{
  "_format": "hh-sol-artifact-1",
  "contractName": "CommunityOld",
  "sourceName": "contracts/mocks/community/CommunityOld.sol",
  "abi": [
    {
      "anonymous": false,
      "inputs": [
        {
          "indexed": true,
          "internalType": "address",
          "name": "manager",
          "type": "address"
        },
        {
          "indexed": true,
          "internalType": "address",
          "name": "beneficiary",
          "type": "address"
        }
      ],
      "name": "BeneficiaryAdded",
      "type": "event"
    },
    {
      "anonymous": false,
      "inputs": [
        {
          "indexed": true,
          "internalType": "address",
          "name": "beneficiary",
          "type": "address"
        },
        {
          "indexed": false,
          "internalType": "uint256",
          "name": "amount",
          "type": "uint256"
        }
      ],
      "name": "BeneficiaryClaim",
      "type": "event"
    },
    {
      "anonymous": false,
      "inputs": [
        {
          "indexed": true,
          "internalType": "address",
          "name": "beneficiary",
          "type": "address"
        }
      ],
      "name": "BeneficiaryJoined",
      "type": "event"
    },
    {
      "anonymous": false,
      "inputs": [
        {
          "indexed": true,
          "internalType": "address",
          "name": "manager",
          "type": "address"
        },
        {
          "indexed": true,
          "internalType": "address",
          "name": "beneficiary",
          "type": "address"
        }
      ],
      "name": "BeneficiaryLocked",
      "type": "event"
    },
    {
      "anonymous": false,
      "inputs": [
        {
          "indexed": false,
          "internalType": "uint256",
          "name": "oldClaimAmount",
          "type": "uint256"
        },
        {
          "indexed": false,
          "internalType": "uint256",
          "name": "oldMaxClaim",
          "type": "uint256"
        },
        {
          "indexed": false,
          "internalType": "uint256",
          "name": "oldDecreaseStep",
          "type": "uint256"
        },
        {
          "indexed": false,
          "internalType": "uint256",
          "name": "oldBaseInterval",
          "type": "uint256"
        },
        {
          "indexed": false,
          "internalType": "uint256",
          "name": "oldIncrementInterval",
          "type": "uint256"
        },
        {
          "indexed": false,
          "internalType": "uint256",
          "name": "newClaimAmount",
          "type": "uint256"
        },
        {
          "indexed": false,
          "internalType": "uint256",
          "name": "newMaxClaim",
          "type": "uint256"
        },
        {
          "indexed": false,
          "internalType": "uint256",
          "name": "newDecreaseStep",
          "type": "uint256"
        },
        {
          "indexed": false,
          "internalType": "uint256",
          "name": "newBaseInterval",
          "type": "uint256"
        },
        {
          "indexed": false,
          "internalType": "uint256",
          "name": "newIncrementInterval",
          "type": "uint256"
        }
      ],
      "name": "BeneficiaryParamsUpdated",
      "type": "event"
    },
    {
      "anonymous": false,
      "inputs": [
        {
          "indexed": true,
          "internalType": "address",
          "name": "manager",
          "type": "address"
        },
        {
          "indexed": true,
          "internalType": "address",
          "name": "beneficiary",
          "type": "address"
        }
      ],
      "name": "BeneficiaryRemoved",
      "type": "event"
    },
    {
      "anonymous": false,
      "inputs": [
        {
          "indexed": true,
          "internalType": "address",
          "name": "manager",
          "type": "address"
        },
        {
          "indexed": true,
          "internalType": "address",
          "name": "beneficiary",
          "type": "address"
        }
      ],
      "name": "BeneficiaryUnlocked",
      "type": "event"
    },
    {
      "anonymous": false,
      "inputs": [
        {
          "indexed": true,
          "internalType": "address",
          "name": "oldCommunityAdmin",
          "type": "address"
        },
        {
          "indexed": true,
          "internalType": "address",
          "name": "newCommunityAdmin",
          "type": "address"
        }
      ],
      "name": "CommunityAdminUpdated",
      "type": "event"
    },
    {
      "anonymous": false,
      "inputs": [
        {
          "indexed": true,
          "internalType": "address",
          "name": "manager",
          "type": "address"
        }
      ],
      "name": "CommunityLocked",
      "type": "event"
    },
    {
      "anonymous": false,
      "inputs": [
        {
          "indexed": false,
          "internalType": "uint256",
          "name": "oldMinTranche",
          "type": "uint256"
        },
        {
          "indexed": false,
          "internalType": "uint256",
          "name": "oldMaxTranche",
          "type": "uint256"
        },
        {
          "indexed": false,
          "internalType": "uint256",
          "name": "newMinTranche",
          "type": "uint256"
        },
        {
          "indexed": false,
          "internalType": "uint256",
          "name": "newMaxTranche",
          "type": "uint256"
        }
      ],
      "name": "CommunityParamsUpdated",
      "type": "event"
    },
    {
      "anonymous": false,
      "inputs": [
        {
          "indexed": true,
          "internalType": "address",
          "name": "manager",
          "type": "address"
        }
      ],
      "name": "CommunityUnlocked",
      "type": "event"
    },
    {
      "anonymous": false,
      "inputs": [
        {
          "indexed": true,
          "internalType": "address",
          "name": "donor",
          "type": "address"
        },
        {
          "indexed": false,
          "internalType": "uint256",
          "name": "amount",
          "type": "uint256"
        }
      ],
      "name": "Donate",
      "type": "event"
    },
    {
      "anonymous": false,
      "inputs": [
        {
          "indexed": true,
          "internalType": "address",
          "name": "manager",
          "type": "address"
        }
      ],
      "name": "FundsRequested",
      "type": "event"
    },
    {
      "anonymous": false,
      "inputs": [
        {
          "indexed": true,
          "internalType": "address",
          "name": "manager",
          "type": "address"
        },
        {
          "indexed": true,
          "internalType": "address",
          "name": "account",
          "type": "address"
        }
      ],
      "name": "ManagerAdded",
      "type": "event"
    },
    {
      "anonymous": false,
      "inputs": [
        {
          "indexed": true,
          "internalType": "address",
          "name": "manager",
          "type": "address"
        },
        {
          "indexed": true,
          "internalType": "address",
          "name": "account",
          "type": "address"
        }
      ],
      "name": "ManagerRemoved",
      "type": "event"
    },
    {
      "anonymous": false,
      "inputs": [
        {
          "indexed": true,
          "internalType": "address",
          "name": "previousOwner",
          "type": "address"
        },
        {
          "indexed": true,
          "internalType": "address",
          "name": "newOwner",
          "type": "address"
        }
      ],
      "name": "OwnershipTransferred",
      "type": "event"
    },
    {
      "anonymous": false,
      "inputs": [
        {
          "indexed": true,
          "internalType": "address",
          "name": "oldPreviousCommunity",
          "type": "address"
        },
        {
          "indexed": true,
          "internalType": "address",
          "name": "newPreviousCommunity",
          "type": "address"
        }
      ],
      "name": "PreviousCommunityUpdated",
      "type": "event"
    },
    {
      "anonymous": false,
      "inputs": [
        {
          "indexed": true,
          "internalType": "bytes32",
          "name": "role",
          "type": "bytes32"
        },
        {
          "indexed": true,
          "internalType": "bytes32",
          "name": "previousAdminRole",
          "type": "bytes32"
        },
        {
          "indexed": true,
          "internalType": "bytes32",
          "name": "newAdminRole",
          "type": "bytes32"
        }
      ],
      "name": "RoleAdminChanged",
      "type": "event"
    },
    {
      "anonymous": false,
      "inputs": [
        {
          "indexed": true,
          "internalType": "bytes32",
          "name": "role",
          "type": "bytes32"
        },
        {
          "indexed": true,
          "internalType": "address",
          "name": "account",
          "type": "address"
        },
        {
          "indexed": true,
          "internalType": "address",
          "name": "sender",
          "type": "address"
        }
      ],
      "name": "RoleGranted",
      "type": "event"
    },
    {
      "anonymous": false,
      "inputs": [
        {
          "indexed": true,
          "internalType": "bytes32",
          "name": "role",
          "type": "bytes32"
        },
        {
          "indexed": true,
          "internalType": "address",
          "name": "account",
          "type": "address"
        },
        {
          "indexed": true,
          "internalType": "address",
          "name": "sender",
          "type": "address"
        }
      ],
      "name": "RoleRevoked",
      "type": "event"
    },
    {
      "anonymous": false,
      "inputs": [
        {
          "indexed": true,
          "internalType": "address",
          "name": "token",
          "type": "address"
        },
        {
          "indexed": true,
          "internalType": "address",
          "name": "to",
          "type": "address"
        },
        {
          "indexed": false,
          "internalType": "uint256",
          "name": "amount",
          "type": "uint256"
        }
      ],
      "name": "TransferERC20",
      "type": "event"
    },
    {
      "inputs": [],
      "name": "DEFAULT_ADMIN_ROLE",
      "outputs": [
        {
          "internalType": "bytes32",
          "name": "",
          "type": "bytes32"
        }
      ],
      "stateMutability": "view",
      "type": "function"
    },
    {
      "inputs": [],
      "name": "_firstBlockTimestamp",
      "outputs": [
        {
          "internalType": "uint256",
          "name": "",
          "type": "uint256"
        }
      ],
      "stateMutability": "view",
      "type": "function"
    },
    {
      "inputs": [
        {
          "internalType": "address",
          "name": "_beneficiaryAddress",
          "type": "address"
        }
      ],
      "name": "addBeneficiary",
      "outputs": [],
      "stateMutability": "nonpayable",
      "type": "function"
    },
    {
      "inputs": [
        {
          "internalType": "address",
          "name": "_account",
          "type": "address"
        }
      ],
      "name": "addManager",
      "outputs": [],
      "stateMutability": "nonpayable",
      "type": "function"
    },
    {
      "inputs": [
        {
          "internalType": "uint256",
          "name": "_amount",
          "type": "uint256"
        }
      ],
      "name": "addTreasuryFunds",
      "outputs": [],
      "stateMutability": "nonpayable",
      "type": "function"
    },
    {
      "inputs": [],
      "name": "baseInterval",
      "outputs": [
        {
          "internalType": "uint256",
          "name": "",
          "type": "uint256"
        }
      ],
      "stateMutability": "view",
      "type": "function"
    },
    {
      "inputs": [
        {
          "internalType": "address",
          "name": "",
          "type": "address"
        }
      ],
      "name": "beneficiaries",
      "outputs": [
        {
          "internalType": "enum ICommunity.BeneficiaryState",
          "name": "state",
          "type": "uint8"
        },
        {
          "internalType": "uint256",
          "name": "claims",
          "type": "uint256"
        },
        {
          "internalType": "uint256",
          "name": "claimedAmount",
          "type": "uint256"
        },
        {
          "internalType": "uint256",
          "name": "lastClaim",
          "type": "uint256"
        }
      ],
      "stateMutability": "view",
      "type": "function"
    },
    {
      "inputs": [],
      "name": "beneficiaryJoinFromMigrated",
      "outputs": [],
      "stateMutability": "nonpayable",
      "type": "function"
    },
    {
      "inputs": [
        {
          "internalType": "uint256",
          "name": "index_",
          "type": "uint256"
        }
      ],
      "name": "beneficiaryListAt",
      "outputs": [
        {
          "internalType": "address",
          "name": "",
          "type": "address"
        }
      ],
      "stateMutability": "view",
      "type": "function"
    },
    {
      "inputs": [],
      "name": "beneficiaryListLength",
      "outputs": [
        {
          "internalType": "uint256",
          "name": "",
          "type": "uint256"
        }
      ],
      "stateMutability": "view",
      "type": "function"
    },
    {
      "inputs": [],
      "name": "cUSD",
      "outputs": [
        {
          "internalType": "contract IERC20Upgradeable",
          "name": "",
          "type": "address"
        }
      ],
      "stateMutability": "view",
      "type": "function"
    },
    {
      "inputs": [],
      "name": "claim",
      "outputs": [],
      "stateMutability": "nonpayable",
      "type": "function"
    },
    {
      "inputs": [],
      "name": "claimAmount",
      "outputs": [
        {
          "internalType": "uint256",
          "name": "",
          "type": "uint256"
        }
      ],
      "stateMutability": "view",
      "type": "function"
    },
    {
      "inputs": [
        {
          "internalType": "address",
          "name": "_beneficiaryAddress",
          "type": "address"
        }
      ],
      "name": "claimCooldown",
      "outputs": [
        {
          "internalType": "uint256",
          "name": "",
          "type": "uint256"
        }
      ],
      "stateMutability": "view",
      "type": "function"
    },
    {
      "inputs": [],
      "name": "communityAdmin",
      "outputs": [
        {
          "internalType": "contract ICommunityAdmin",
          "name": "",
          "type": "address"
        }
      ],
      "stateMutability": "view",
      "type": "function"
    },
    {
      "inputs": [],
      "name": "decreaseStep",
      "outputs": [
        {
          "internalType": "uint256",
          "name": "",
          "type": "uint256"
        }
      ],
      "stateMutability": "view",
      "type": "function"
    },
    {
      "inputs": [
        {
          "internalType": "address",
          "name": "_sender",
          "type": "address"
        },
        {
          "internalType": "uint256",
          "name": "_amount",
          "type": "uint256"
        }
      ],
      "name": "donate",
      "outputs": [],
      "stateMutability": "nonpayable",
      "type": "function"
    },
    {
      "inputs": [],
      "name": "getInitialMaxClaim",
      "outputs": [
        {
          "internalType": "uint256",
          "name": "",
          "type": "uint256"
        }
      ],
      "stateMutability": "view",
      "type": "function"
    },
    {
      "inputs": [
        {
          "internalType": "bytes32",
          "name": "role",
          "type": "bytes32"
        }
      ],
      "name": "getRoleAdmin",
      "outputs": [
        {
          "internalType": "bytes32",
          "name": "",
          "type": "bytes32"
        }
      ],
      "stateMutability": "view",
      "type": "function"
    },
    {
      "inputs": [],
      "name": "getVersion",
      "outputs": [
        {
          "internalType": "uint256",
          "name": "",
          "type": "uint256"
        }
      ],
      "stateMutability": "pure",
      "type": "function"
    },
    {
      "inputs": [
        {
          "internalType": "bytes32",
          "name": "",
          "type": "bytes32"
        },
        {
          "internalType": "address",
          "name": "",
          "type": "address"
        }
      ],
      "name": "grantRole",
      "outputs": [],
      "stateMutability": "pure",
      "type": "function"
    },
    {
      "inputs": [
        {
          "internalType": "bytes32",
          "name": "role",
          "type": "bytes32"
        },
        {
          "internalType": "address",
          "name": "account",
          "type": "address"
        }
      ],
      "name": "hasRole",
      "outputs": [
        {
          "internalType": "bool",
          "name": "",
          "type": "bool"
        }
      ],
      "stateMutability": "view",
      "type": "function"
    },
    {
      "inputs": [],
      "name": "impactMarketAddress",
      "outputs": [
        {
          "internalType": "address",
          "name": "",
          "type": "address"
        }
      ],
      "stateMutability": "pure",
      "type": "function"
    },
    {
      "inputs": [],
      "name": "incrementInterval",
      "outputs": [
        {
          "internalType": "uint256",
          "name": "",
          "type": "uint256"
        }
      ],
      "stateMutability": "view",
      "type": "function"
    },
    {
      "inputs": [
        {
          "internalType": "address[]",
          "name": "_managers",
          "type": "address[]"
        },
        {
          "internalType": "uint256",
          "name": "_claimAmount",
          "type": "uint256"
        },
        {
          "internalType": "uint256",
          "name": "_maxClaim",
          "type": "uint256"
        },
        {
          "internalType": "uint256",
          "name": "_decreaseStep",
          "type": "uint256"
        },
        {
          "internalType": "uint256",
          "name": "_baseInterval",
          "type": "uint256"
        },
        {
          "internalType": "uint256",
          "name": "_incrementInterval",
          "type": "uint256"
        },
        {
          "internalType": "uint256",
          "name": "_minTranche",
          "type": "uint256"
        },
        {
          "internalType": "uint256",
          "name": "_maxTranche",
          "type": "uint256"
        },
        {
          "internalType": "contract ICommunity",
          "name": "_previousCommunity",
          "type": "address"
        }
      ],
      "name": "initialize",
      "outputs": [],
      "stateMutability": "nonpayable",
      "type": "function"
    },
    {
      "inputs": [],
      "name": "lastFundRequest",
      "outputs": [
        {
          "internalType": "uint256",
          "name": "",
          "type": "uint256"
        }
      ],
      "stateMutability": "view",
      "type": "function"
    },
    {
      "inputs": [
        {
          "internalType": "address",
          "name": "_beneficiaryAddress",
          "type": "address"
        }
      ],
      "name": "lastInterval",
      "outputs": [
        {
          "internalType": "uint256",
          "name": "",
          "type": "uint256"
        }
      ],
      "stateMutability": "view",
      "type": "function"
    },
    {
      "inputs": [],
      "name": "lock",
      "outputs": [],
      "stateMutability": "nonpayable",
      "type": "function"
    },
    {
      "inputs": [
        {
          "internalType": "address",
          "name": "_beneficiaryAddress",
          "type": "address"
        }
      ],
      "name": "lockBeneficiary",
      "outputs": [],
      "stateMutability": "nonpayable",
      "type": "function"
    },
    {
      "inputs": [],
      "name": "locked",
      "outputs": [
        {
          "internalType": "bool",
          "name": "",
          "type": "bool"
        }
      ],
      "stateMutability": "view",
      "type": "function"
    },
    {
      "inputs": [],
      "name": "maxClaim",
      "outputs": [
        {
          "internalType": "uint256",
          "name": "",
          "type": "uint256"
        }
      ],
      "stateMutability": "view",
      "type": "function"
    },
    {
      "inputs": [],
      "name": "maxTranche",
      "outputs": [
        {
          "internalType": "uint256",
          "name": "",
          "type": "uint256"
        }
      ],
      "stateMutability": "view",
      "type": "function"
    },
    {
      "inputs": [],
      "name": "minTranche",
      "outputs": [
        {
          "internalType": "uint256",
          "name": "",
          "type": "uint256"
        }
      ],
      "stateMutability": "view",
      "type": "function"
    },
    {
      "inputs": [],
      "name": "owner",
      "outputs": [
        {
          "internalType": "address",
          "name": "",
          "type": "address"
        }
      ],
      "stateMutability": "view",
      "type": "function"
    },
    {
      "inputs": [],
      "name": "previousCommunity",
      "outputs": [
        {
          "internalType": "contract ICommunity",
          "name": "",
          "type": "address"
        }
      ],
      "stateMutability": "view",
      "type": "function"
    },
    {
      "inputs": [],
      "name": "privateFunds",
      "outputs": [
        {
          "internalType": "uint256",
          "name": "",
          "type": "uint256"
        }
      ],
      "stateMutability": "view",
      "type": "function"
    },
    {
      "inputs": [
        {
          "internalType": "address",
          "name": "_beneficiaryAddress",
          "type": "address"
        }
      ],
      "name": "removeBeneficiary",
      "outputs": [],
      "stateMutability": "nonpayable",
      "type": "function"
    },
    {
      "inputs": [
        {
          "internalType": "address",
          "name": "_account",
          "type": "address"
        }
      ],
      "name": "removeManager",
      "outputs": [],
      "stateMutability": "nonpayable",
      "type": "function"
    },
    {
      "inputs": [],
      "name": "renounceOwnership",
      "outputs": [],
      "stateMutability": "nonpayable",
      "type": "function"
    },
    {
      "inputs": [
        {
          "internalType": "bytes32",
          "name": "role",
          "type": "bytes32"
        },
        {
          "internalType": "address",
          "name": "account",
          "type": "address"
        }
      ],
      "name": "renounceRole",
      "outputs": [],
      "stateMutability": "nonpayable",
      "type": "function"
    },
    {
      "inputs": [],
      "name": "requestFunds",
      "outputs": [],
      "stateMutability": "nonpayable",
      "type": "function"
    },
    {
      "inputs": [
        {
          "internalType": "bytes32",
          "name": "",
          "type": "bytes32"
        },
        {
          "internalType": "address",
          "name": "",
          "type": "address"
        }
      ],
      "name": "revokeRole",
      "outputs": [],
      "stateMutability": "pure",
      "type": "function"
    },
    {
      "inputs": [
        {
          "internalType": "bytes4",
          "name": "interfaceId",
          "type": "bytes4"
        }
      ],
      "name": "supportsInterface",
      "outputs": [
        {
          "internalType": "bool",
          "name": "",
          "type": "bool"
        }
      ],
      "stateMutability": "view",
      "type": "function"
    },
    {
      "inputs": [
        {
          "internalType": "contract IERC20Upgradeable",
          "name": "_token",
          "type": "address"
        },
        {
          "internalType": "address",
          "name": "_to",
          "type": "address"
        },
        {
          "internalType": "uint256",
          "name": "_amount",
          "type": "uint256"
        }
      ],
      "name": "transfer",
      "outputs": [],
      "stateMutability": "nonpayable",
      "type": "function"
    },
    {
      "inputs": [
        {
          "internalType": "address",
          "name": "newOwner",
          "type": "address"
        }
      ],
      "name": "transferOwnership",
      "outputs": [],
      "stateMutability": "nonpayable",
      "type": "function"
    },
    {
      "inputs": [],
      "name": "treasuryFunds",
      "outputs": [
        {
          "internalType": "uint256",
          "name": "",
          "type": "uint256"
        }
      ],
      "stateMutability": "view",
      "type": "function"
    },
    {
      "inputs": [],
      "name": "unlock",
      "outputs": [],
      "stateMutability": "nonpayable",
      "type": "function"
    },
    {
      "inputs": [
        {
          "internalType": "address",
          "name": "_beneficiaryAddress",
          "type": "address"
        }
      ],
      "name": "unlockBeneficiary",
      "outputs": [],
      "stateMutability": "nonpayable",
      "type": "function"
    },
    {
      "inputs": [
        {
          "internalType": "uint256",
          "name": "_claimAmount",
          "type": "uint256"
        },
        {
          "internalType": "uint256",
          "name": "_maxClaim",
          "type": "uint256"
        },
        {
          "internalType": "uint256",
          "name": "_decreaseStep",
          "type": "uint256"
        },
        {
          "internalType": "uint256",
          "name": "_baseInterval",
          "type": "uint256"
        },
        {
          "internalType": "uint256",
          "name": "_incrementInterval",
          "type": "uint256"
        }
      ],
      "name": "updateBeneficiaryParams",
      "outputs": [],
      "stateMutability": "nonpayable",
      "type": "function"
    },
    {
      "inputs": [
        {
          "internalType": "contract ICommunityAdmin",
          "name": "_newCommunityAdmin",
          "type": "address"
        }
      ],
      "name": "updateCommunityAdmin",
      "outputs": [],
      "stateMutability": "nonpayable",
      "type": "function"
    },
    {
      "inputs": [
        {
          "internalType": "uint256",
          "name": "_minTranche",
          "type": "uint256"
        },
        {
          "internalType": "uint256",
          "name": "_maxTranche",
          "type": "uint256"
        }
      ],
      "name": "updateCommunityParams",
      "outputs": [],
      "stateMutability": "nonpayable",
      "type": "function"
    },
    {
      "inputs": [
        {
          "internalType": "contract ICommunity",
          "name": "_newPreviousCommunity",
          "type": "address"
        }
      ],
      "name": "updatePreviousCommunity",
      "outputs": [],
      "stateMutability": "nonpayable",
      "type": "function"
    },
    {
      "inputs": [],
      "name": "validBeneficiaryCount",
      "outputs": [
        {
          "internalType": "uint256",
          "name": "",
          "type": "uint256"
        }
      ],
      "stateMutability": "view",
      "type": "function"
    }
  ],
  "bytecode": "0x608060405234801561001057600080fd5b506135d0806100206000396000f3fe608060405234801561001057600080fd5b50600436106103275760003560e01c8063830953ab116101b8578063c041fdc511610104578063d547741f116100a2578063e69d849d1161007c578063e69d849d1461066f578063eb0376b114610682578063f2fde38b1461068a578063f83d08ba1461069d57600080fd5b8063d547741f14610648578063d6dbd9721461065b578063dd4414bb1461066557600080fd5b8063cf309012116100de578063cf3090121461060c578063d10f510714610619578063d33d4ec61461062c578063d4938db31461063f57600080fd5b8063c041fdc5146105e8578063c0e27b6b146105ef578063c51fab3c1461060257600080fd5b8063a678920511610171578063ac18de431161014b578063ac18de43146105a7578063b026ba57146105ba578063b809ee82146105c2578063beabacc8146105d557600080fd5b8063a678920514610584578063a69df4b51461058c578063a8f3e0631461059457600080fd5b8063830953ab146105325780638da5cb5b1461053b57806391d148541461054c5780639c01a4011461055f5780639cecf57214610569578063a217fddf1461057c57600080fd5b806336568abe11610277578063597be18b11610230578063785393db1161020a578063785393db146104f157806378ba280f146105045780637e2959dc1461050c5780638278d4901461051f57600080fd5b8063597be18b146104cc5780635fac917a146104d5578063715018a6146104e957600080fd5b806336568abe1461046d5780633a578a0c14610480578063431a801a146104945780634e71d92d1461049e5780635926651d146104a657806359633a1c146104b957600080fd5b80631fccf672116102e45780632b271117116102be5780632b2711171461042a5780632d06177a146104345780632f2ff15d146104475780632fd791031461045a57600080fd5b80631fccf672146103df578063248a9ca3146103ff5780632a7eabf61461042257600080fd5b8063015677391461032c57806301ffc9a71461037f57806309c338c3146103a25780630d8e6e2c146103ba5780630e5b7c53146103c15780631912cdb4146103ca575b600080fd5b61036661033a366004612f7c565b61010960205260009081526040902080546001820154600283015460039093015460ff90921692909184565b6040516103769493929190613315565b60405180910390f35b61039261038d366004613168565b6106a5565b6040519015158152602001610376565b6103ac6101065481565b604051908152602001610376565b60016103ac565b6103ac60fd5481565b6103dd6103d8366004613229565b6106dc565b005b6103e7610802565b6040516001600160a01b039091168152602001610376565b6103ac61040d366004613121565b60009081526065602052604090206001015490565b6103ac610885565b6103ac6101055481565b6103dd610442366004612f7c565b6108ca565b6103dd610455366004613139565b61096c565b6103dd61046836600461324a565b6109de565b6103dd61047b366004613139565b610bc0565b610107546103e7906001600160a01b031681565b6103ac6101005481565b6103dd610c3a565b6103dd6104b4366004612f7c565b610e84565b6103dd6104c7366004612f7c565b610ff2565b6103ac60fe5481565b610108546103e7906001600160a01b031681565b6103dd611133565b6103e76104ff366004613121565b611169565b6103ac611177565b6103dd61051a366004612f7c565b611198565b6103dd61052d366004612fdf565b611215565b6103ac60fc5481565b6097546001600160a01b03166103e7565b61039261055a366004613139565b611584565b6103ac6101015481565b6103ac610577366004612f7c565b6115af565b6103ac600081565b6103dd6115e1565b6103dd611ba4565b6103ac6105a2366004612f7c565b611c0f565b6103dd6105b5366004612f7c565b611c6c565b6103dd611e10565b6103dd6105d0366004613121565b611edf565b6103dd6105e3366004613190565b611f24565b60006103e7565b6103dd6105fd366004612f7c565b611fe1565b6103ac6101035481565b60fb546103929060ff1681565b6103dd610627366004612f7c565b6120f2565b6103dd61063a366004612f7c565b612205565b6103ac60ff5481565b6103dd610656366004613139565b61229e565b6103ac6101025481565b6103ac6101045481565b6103dd61067d366004612fb4565b61230c565b6103ac6123a9565b6103dd610698366004612f7c565b6123b6565b6103dd61244e565b60006001600160e01b03198216637965db0b60e01b14806106d657506301ffc9a760e01b6001600160e01b03198316145b92915050565b6097546001600160a01b0316331461070f5760405162461bcd60e51b815260040161070690613386565b60405180910390fd5b808211156107a05760405162461bcd60e51b815260206004820152605260248201527f436f6d6d756e6974793a3a757064617465436f6d6d756e697479506172616d7360448201527f3a206d696e5472616e6368652073686f756c64206e6f742062652067726561746064820152716572207468616e206d61785472616e63686560701b608482015260a401610706565b61010480546101058054928590558390556040805182815260208101849052908101859052606081018490529091907fcd922a6f0ad842d84e08eb5df24c029b63c60167fb37cff24adf95c4832e32589060800160405180910390a150505050565b6101085460408051630fe67b3960e11b815290516000926001600160a01b031691631fccf672916004808301926020929190829003018186803b15801561084857600080fd5b505afa15801561085c573d6000803e3d6000fd5b505050506040513d601f19601f820116820180604052508101906108809190612f98565b905090565b60004661a4ec141561089a5750635ea06a0590565b4661aef314156108ad5750635f10925490565b4661aef314156108c05750635ef3704190565b61088043426134c4565b6108e260008051602061357b83398151915233611584565b6108fe5760405162461bcd60e51b8152600401610706906133bb565b61091660008051602061357b83398151915282611584565b6109695761093260008051602061357b833981519152826124bc565b6040516001600160a01b0382169033907f05a4006f300442cf8b7fdb885f5ee958812020bffb5c5a8e655fde64e5f987ed90600090a35b50565b60405162461bcd60e51b815260206004820152603a60248201527f436f6d6d756e6974793a3a6772616e74526f6c653a20596f7520617265206e6f60448201527f7420616c6c6f7720746f207573652074686973206d6574686f640000000000006064820152608401610706565b5050565b6097546001600160a01b03163314610a085760405162461bcd60e51b815260040161070690613386565b808211610a915760405162461bcd60e51b815260206004820152604b60248201527f436f6d6d756e6974793a3a636f6e7374727563746f723a2062617365496e746560448201527f7276616c206d7573742062652067726561746572207468616e20696e6372656d60648201526a195b9d125b9d195c9d985b60aa1b608482015260a401610706565b848411610b105760405162461bcd60e51b815260206004820152604160248201527f436f6d6d756e6974793a3a636f6e7374727563746f723a206d6178436c61696d60448201527f206d7573742062652067726561746572207468616e20636c61696d416d6f756e6064820152601d60fa1b608482015260a401610706565b60fc805460ff8054610103805460fd805460fe8054988e9055958c9055928a9055889055928690556040805185815260208101849052908101849052606081018290526080810186905260a081018b905260c081018a905260e0810189905261010081018890526101208101879052939491939091907fa19f450cd68c70f728b0c4b75befd202ea5ebb1ae78b6aca47365934b5008750906101400160405180910390a150505050505050505050565b6001600160a01b0381163314610c305760405162461bcd60e51b815260206004820152602f60248201527f416363657373436f6e74726f6c3a2063616e206f6e6c792072656e6f756e636560448201526e103937b632b9903337b91039b2b63360891b6064820152608401610706565b6109da82826124e7565b6001336000908152610109602052604090205460ff166003811115610c6f57634e487b7160e01b600052602160045260246000fd5b14610cbc5760405162461bcd60e51b815260206004820181905260248201527f436f6d6d756e6974793a204e4f545f56414c49445f42454e45464943494152596044820152606401610706565b600260c9541415610cdf5760405162461bcd60e51b815260040161070690613436565b600260c9553360009081526101096020526040902060fb5460ff1615610d305760405162461bcd60e51b81526020600482015260066024820152651313d0d2d15160d21b6044820152606401610706565b43610d3a336115af565b1115610d885760405162461bcd60e51b815260206004820152601960248201527f436f6d6d756e6974793a3a636c61696d3a204e4f545f594554000000000000006044820152606401610706565b60ff5460fc548260020154610d9d919061346d565b1115610deb5760405162461bcd60e51b815260206004820152601b60248201527f436f6d6d756e6974793a3a636c61696d3a204d41585f434c41494d00000000006044820152606401610706565b60fc54816002016000828254610e01919061346d565b9091555050600181018054906000610e188361351e565b909155505043600382015560fc54610e44903390610e34610802565b6001600160a01b0316919061254e565b60fc5460405190815233907fd54e03b214b3e8c17e98044f98554b6f1b18dd2a3163a2619afea7e9b2a6eb979060200160405180910390a250600160c955565b610e9c60008051602061357b83398151915233611584565b610eb85760405162461bcd60e51b8152600401610706906133bb565b600260c9541415610edb5760405162461bcd60e51b815260040161070690613436565b600260c9556001600160a01b03811660009081526101096020526040812090815460ff166003811115610f1e57634e487b7160e01b600052602160045260246000fd5b14610f815760405162461bcd60e51b815260206004820152602d60248201527f436f6d6d756e6974793a3a61646442656e65666963696172793a2042656e656660448201526c6963696172792065786973747360981b6064820152608401610706565b610f8c8160016125b1565b436003820155610f9e61010a8361276f565b50610fb38266b1a2bc2ec50000610e34610802565b6040516001600160a01b0383169033907fbb39c36a7502b7256e1a687254146a9a2ea7b146c77cb9e40eb0e2b8793781e190600090a35050600160c955565b61100a60008051602061357b83398151915233611584565b6110265760405162461bcd60e51b8152600401610706906133bb565b6001600160a01b0381166000908152610109602052604090206001815460ff16600381111561106557634e487b7160e01b600052602160045260246000fd5b148061109457506002815460ff16600381111561109257634e487b7160e01b600052602160045260246000fd5b145b6110ee5760405162461bcd60e51b815260206004820152602560248201527f436f6d6d756e6974793a3a72656d6f766542656e65666963696172793a204e4f6044820152641517d6515560da1b6064820152608401610706565b6110f98160036125b1565b6040516001600160a01b0383169033907f1a6590bd0cabbfcc7c86bef99e1034054e179905cfcc294598fcd426c092244290600090a35050565b6097546001600160a01b0316331461115d5760405162461bcd60e51b815260040161070690613386565b6111676000612784565b565b60006106d661010a836127d6565b6000610103546101005461118b91906134a5565b60ff54610880919061346d565b6097546001600160a01b031633146111c25760405162461bcd60e51b815260040161070690613386565b61010780546001600160a01b038381166001600160a01b0319831681179093556040519116919082907f0d6a84e94da4b619dd0d993b5689ec82db4b1095da99ee0f3e7bb046c647e6ad90600090a35050565b600054610100900460ff166112305760005460ff1615611234565b303b155b6112975760405162461bcd60e51b815260206004820152602e60248201527f496e697469616c697a61626c653a20636f6e747261637420697320616c72656160448201526d191e481a5b9a5d1a585b1a5e995960921b6064820152608401610706565b600054610100900460ff161580156112b9576000805461ffff19166101011790555b8486116113415760405162461bcd60e51b815260206004820152604a60248201527f436f6d6d756e6974793a3a696e697469616c697a653a2062617365496e74657260448201527f76616c206d7573742062652067726561746572207468616e20696e6372656d656064820152691b9d125b9d195c9d985b60b21b608482015260a401610706565b8888116113b8576040805162461bcd60e51b81526020600482015260248101919091527f436f6d6d756e6974793a3a696e697469616c697a653a206d6178436c61696d2060448201527f6d7573742062652067726561746572207468616e20636c61696d416d6f756e746064820152608401610706565b8284111561143e5760405162461bcd60e51b815260206004820152604760248201527f436f6d6d756e6974793a3a696e697469616c697a653a206d696e5472616e636860448201527f652073686f756c64206e6f742062652067726561746572207468616e206d61786064820152665472616e63686560c81b608482015260a401610706565b6114466127e2565b61144e612821565b611456612858565b60fc89905560fd86905560fe85905560ff88905561010484905561010583905561010780546001600160a01b03199081166001600160a01b0385161790915561010880543392168217905561010388905560fb805460ff191690556114ba906123b6565b6114d260008051602061357b83398151915280612887565b6114ea60008051602061357b833981519152336128d2565b604051339081907f05a4006f300442cf8b7fdb885f5ee958812020bffb5c5a8e655fde64e5f987ed90600090a360005b8a51811015611565576115538b828151811061154657634e487b7160e01b600052603260045260246000fd5b60200260200101516108ca565b8061155d8161351e565b91505061151a565b508015611578576000805461ff00191690555b50505050505050505050565b60009182526065602090815260408084206001600160a01b0393909316845291905290205460ff1690565b60006115ba82611c0f565b6001600160a01b038316600090815261010960205260409020600301546106d6919061346d565b3360009081526101096020526040812090815460ff16600381111561161657634e487b7160e01b600052602160045260246000fd5b146116895760405162461bcd60e51b815260206004820152603a60248201527f436f6d6d756e6974793a3a62656e65666963696172794a6f696e46726f6d4d6960448201527f6772617465643a2042656e6566696369617279206578697374730000000000006064820152608401610706565b610107546040805163c041fdc560e01b815290516000926001600160a01b03169163c041fdc5916004808301926020929190829003018186803b1580156116cf57600080fd5b505afa1580156116e3573d6000803e3d6000fd5b505050506040513d601f19601f820116820180604052508101906117079190612f98565b6001600160a01b031614156117c85761010754604051630156773960e01b81523360048201526000918291829182916001600160a01b039091169063015677399060240160806040518083038186803b15801561176357600080fd5b505afa158015611777573d6000803e3d6000fd5b505050506040513d601f19601f8201168201806040525081019061179b91906131d0565b93509350935093506117ad85856125b1565b60018501929092556003840191909155600283015550611b69565b6101075460405163a8f3e06360e01b81523360048201526001600160a01b0390911690600090829063a8f3e06390602401602060405180830381600087803b15801561181357600080fd5b505af1158015611827573d6000803e3d6000fd5b505050506040513d601f19601f8201168201806040525081019061184b9190613211565b604051630156773960e01b81523360048201529091506118f19084906001600160a01b03851690630156773990602401602060405180830381600087803b15801561189557600080fd5b505af11580156118a9573d6000803e3d6000fd5b505050506040513d601f19601f820116820180604052508101906118cd9190613211565b60038111156118ec57634e487b7160e01b600052602160045260246000fd5b6125b1565b604051635911706160e11b81523360048201526000906001600160a01b0384169063b222e0c290602401602060405180830381600087803b15801561193557600080fd5b505af1158015611949573d6000803e3d6000fd5b505050506040513d601f19601f8201168201806040525081019061196d9190613211565b9050611977610885565b611981908361346d565b81106119b9576005611991610885565b61199b84846134c4565b6119a591906134c4565b6119af9190613485565b60038501556119c1565b600060038501555b60405163c884ef8360e01b81523360048201526001600160a01b0384169063c884ef8390602401602060405180830381600087803b158015611a0257600080fd5b505af1158015611a16573d6000803e3d6000fd5b505050506040513d601f19601f82011682018060405250810190611a3a9190613211565b84600201819055506000836001600160a01b0316630e5b7c536040518163ffffffff1660e01b8152600401602060405180830381600087803b158015611a7f57600080fd5b505af1158015611a93573d6000803e3d6000fd5b505050506040513d601f19601f82011682018060405250810190611ab79190613211565b9050808310611b5c57836001600160a01b031663597be18b6040518163ffffffff1660e01b8152600401602060405180830381600087803b158015611afb57600080fd5b505af1158015611b0f573d6000803e3d6000fd5b505050506040513d601f19601f82011682018060405250810190611b339190613211565b611b3d82856134c4565b611b479190613485565b611b5290600161346d565b6001860155611b64565b600060018601555b505050505b611b7561010a3361276f565b5060405133907f505fe088fef0d1fb451ccfed842b55a86af1ee6208502f4bc3327dcb9032082990600090a250565b611bbc60008051602061357b83398151915233611584565b611bd85760405162461bcd60e51b8152600401610706906133bb565b60fb805460ff1916905560405133907f4e50048c25972c85ad169c2302967f1e633e8dc6108d6aca51a90d2a59d4934d90600090a2565b6001600160a01b0381166000908152610109602052604081206001810154611c3a5750600092915050565b60fe5460018260010154611c4e91906134c4565b611c5891906134a5565b60fd54611c65919061346d565b9392505050565b611c8460008051602061357b83398151915233611584565b611ca05760405162461bcd60e51b8152600401610706906133bb565b611cb860008051602061357b83398151915282611584565b611d2c576040805162461bcd60e51b81526020600482015260248101919091527f436f6d6d756e6974793a3a72656d6f76654d616e616765723a2054686973206160448201527f63636f756e7420646f65736e27742068617665206d616e6167657220726f6c656064820152608401610706565b610108546001600160a01b0382811691161415611dbf5760405162461bcd60e51b8152602060048201526044602482018190527f436f6d6d756e6974793a3a72656d6f76654d616e616765723a20596f75206172908201527f65206e6f7420616c6c6f7720746f2072656d6f766520636f6d6d756e697479416064820152633236b4b760e11b608482015260a401610706565b611dd760008051602061357b833981519152826128dc565b6040516001600160a01b0382169033907f3e902a6ee93dd5b2d48bd1009c7701a481be512b1ef73dbed2f95ea44c59ea8890600090a350565b611e2860008051602061357b83398151915233611584565b611e445760405162461bcd60e51b8152600401610706906133bb565b61010860009054906101000a90046001600160a01b03166001600160a01b031663174a71d76040518163ffffffff1660e01b8152600401600060405180830381600087803b158015611e9557600080fd5b505af1158015611ea9573d6000803e3d6000fd5b50504361010655505060405133907f16a8b794d4e2ed6ffef50d78af3d4372ce4bfe8a399bfc23f59b7832ee47539090600090a2565b6097546001600160a01b03163314611f095760405162461bcd60e51b815260040161070690613386565b806101016000828254611f1c919061346d565b909155505050565b6097546001600160a01b03163314611f4e5760405162461bcd60e51b815260040161070690613386565b600260c9541415611f715760405162461bcd60e51b815260040161070690613436565b600260c955611f8a6001600160a01b038416838361254e565b816001600160a01b0316836001600160a01b03167f9b035625e569d1d2bf54830a290aefba7ab11610ba8490871dc62b86b63a895683604051611fcf91815260200190565b60405180910390a35050600160c95550565b611ff960008051602061357b83398151915233611584565b6120155760405162461bcd60e51b8152600401610706906133bb565b6001600160a01b0381166000908152610109602052604090206001815460ff16600381111561205457634e487b7160e01b600052602160045260246000fd5b146120ad5760405162461bcd60e51b815260206004820152602360248201527f436f6d6d756e6974793a3a6c6f636b42656e65666963696172793a204e4f545f60448201526216515560ea1b6064820152608401610706565b6120b88160026125b1565b6040516001600160a01b0383169033907f2b9ef93c7856b47a1b624fa3fcc4b651d388dd6d16327f3ad22b05f3da8b0f1590600090a35050565b61210a60008051602061357b83398151915233611584565b6121265760405162461bcd60e51b8152600401610706906133bb565b6001600160a01b0381166000908152610109602052604090206002815460ff16600381111561216557634e487b7160e01b600052602160045260246000fd5b146121c05760405162461bcd60e51b815260206004820152602560248201527f436f6d6d756e6974793a3a756e6c6f636b42656e65666963696172793a204e4f6044820152641517d6515560da1b6064820152608401610706565b6121cb8160016125b1565b6040516001600160a01b0383169033907fa589fb4f2925123e7a030dd6bbe76be46a03f8ce0ea53a78dbb3383c7797db2c90600090a35050565b6097546001600160a01b0316331461222f5760405162461bcd60e51b815260040161070690613386565b61010880546001600160a01b038381166001600160a01b031983168117909355169061225a906108ca565b816001600160a01b0316816001600160a01b03167fdd8d3b7b0badfc5d636d48e71e28015b4b8554b64d2cffba6f0a90bf7693ec0060405160405180910390a35050565b60405162461bcd60e51b815260206004820152603b60248201527f436f6d6d756e6974793a3a7265766f6b65526f6c653a20596f7520617265206e60448201527f6f7420616c6c6f7720746f207573652074686973206d6574686f6400000000006064820152608401610706565b600260c954141561232f5760405162461bcd60e51b815260040161070690613436565b600260c955612353823083612342610802565b6001600160a01b0316929190612902565b806101026000828254612366919061346d565b909155505060405181815233907f0553260a2e46b0577270d8992db02d30856ca880144c72d6e9503760946aef139060200160405180910390a25050600160c955565b600061088061010a612940565b6097546001600160a01b031633146123e05760405162461bcd60e51b815260040161070690613386565b6001600160a01b0381166124455760405162461bcd60e51b815260206004820152602660248201527f4f776e61626c653a206e6577206f776e657220697320746865207a65726f206160448201526564647265737360d01b6064820152608401610706565b61096981612784565b61246660008051602061357b83398151915233611584565b6124825760405162461bcd60e51b8152600401610706906133bb565b60fb805460ff1916600117905560405133907fe1e6bc10311f2f958d6cd2d0ab7308c32089aa1acb8ab11a2ccb60028e332bd090600090a2565b6000828152606560205260409020600101546124d8813361294a565b6124e283836129ae565b505050565b6124f18282611584565b156109da5760008281526065602090815260408083206001600160a01b0385168085529252808320805460ff1916905551339285917ff6391f5c32d9c69d2a47ea670b442974b53935d1edc7fd64eb21e047a839171b9190a45050565b6040516001600160a01b0383166024820152604481018290526124e290849063a9059cbb60e01b906064015b60408051601f198184030181529190526020810180516001600160e01b03166001600160e01b031990931692909217909152612a34565b8060038111156125d157634e487b7160e01b600052602160045260246000fd5b825460ff1660038111156125f557634e487b7160e01b600052602160045260246000fd5b14156125ff575050565b600181600381111561262157634e487b7160e01b600052602160045260246000fd5b14156126dd5760fc546101035460ff5461263b91906134c4565b10156126a75760405162461bcd60e51b815260206004820152603560248201527f436f6d6d756e6974793a3a5f6368616e676542656e656669636961727953746160448201527474653a204d617820636c61696d20746f6f206c6f7760581b6064820152608401610706565b61010080549060006126b88361351e565b91905055506101035460ff60008282546126d291906134c4565b9091555061273a9050565b6001825460ff16600381111561270357634e487b7160e01b600052602160045260246000fd5b141561273a57610100805490600061271a83613507565b91905055506101035460ff6000828254612734919061346d565b90915550505b81548190839060ff1916600183600381111561276657634e487b7160e01b600052602160045260246000fd5b02179055505050565b6000611c65836001600160a01b038416612b06565b609780546001600160a01b038381166001600160a01b0319831681179093556040519116919082907f8be0079c531659141344cd1fd0a4f28419497f9722a3daafe3b4186f6b6457e090600090a35050565b6000611c658383612b55565b600054610100900460ff166128095760405162461bcd60e51b8152600401610706906133eb565b612811612b8d565b612819612b8d565b611167612b8d565b600054610100900460ff166128485760405162461bcd60e51b8152600401610706906133eb565b612850612b8d565b611167612bb4565b600054610100900460ff1661287f5760405162461bcd60e51b8152600401610706906133eb565b611167612be4565b600082815260656020526040808220600101805490849055905190918391839186917fbd79b86ffe0ab8e8776151514217cd7cacd52c909f66475c3af44e129f0b00ff9190a4505050565b6109da82826129ae565b6000828152606560205260409020600101546128f8813361294a565b6124e283836124e7565b6040516001600160a01b038085166024830152831660448201526064810182905261293a9085906323b872dd60e01b9060840161257a565b50505050565b60006106d6825490565b6129548282611584565b6109da5761296c816001600160a01b03166014612c12565b612977836020612c12565b6040516020016129889291906132a0565b60408051601f198184030181529082905262461bcd60e51b825261070691600401613353565b6129b88282611584565b6109da5760008281526065602090815260408083206001600160a01b03851684529091529020805460ff191660011790556129f03390565b6001600160a01b0316816001600160a01b0316837f2f8788117e7eff1d82e926ec794901d17c78024a50270940304540a733656f0d60405160405180910390a45050565b6000612a89826040518060400160405280602081526020017f5361666545524332303a206c6f772d6c6576656c2063616c6c206661696c6564815250856001600160a01b0316612df49092919063ffffffff16565b8051909150156124e25780806020019051810190612aa79190613101565b6124e25760405162461bcd60e51b815260206004820152602a60248201527f5361666545524332303a204552433230206f7065726174696f6e20646964206e6044820152691bdd081cdd58d8d9595960b21b6064820152608401610706565b6000818152600183016020526040812054612b4d575081546001818101845560008481526020808220909301849055845484825282860190935260409020919091556106d6565b5060006106d6565b6000826000018281548110612b7a57634e487b7160e01b600052603260045260246000fd5b9060005260206000200154905092915050565b600054610100900460ff166111675760405162461bcd60e51b8152600401610706906133eb565b600054610100900460ff16612bdb5760405162461bcd60e51b8152600401610706906133eb565b61116733612784565b600054610100900460ff16612c0b5760405162461bcd60e51b8152600401610706906133eb565b600160c955565b60606000612c218360026134a5565b612c2c90600261346d565b67ffffffffffffffff811115612c5257634e487b7160e01b600052604160045260246000fd5b6040519080825280601f01601f191660200182016040528015612c7c576020820181803683370190505b509050600360fc1b81600081518110612ca557634e487b7160e01b600052603260045260246000fd5b60200101906001600160f81b031916908160001a905350600f60fb1b81600181518110612ce257634e487b7160e01b600052603260045260246000fd5b60200101906001600160f81b031916908160001a9053506000612d068460026134a5565b612d1190600161346d565b90505b6001811115612da5576f181899199a1a9b1b9c1cb0b131b232b360811b85600f1660108110612d5357634e487b7160e01b600052603260045260246000fd5b1a60f81b828281518110612d7757634e487b7160e01b600052603260045260246000fd5b60200101906001600160f81b031916908160001a90535060049490941c93612d9e81613507565b9050612d14565b508315611c655760405162461bcd60e51b815260206004820181905260248201527f537472696e67733a20686578206c656e67746820696e73756666696369656e746044820152606401610706565b6060612e038484600085612e0b565b949350505050565b606082471015612e6c5760405162461bcd60e51b815260206004820152602660248201527f416464726573733a20696e73756666696369656e742062616c616e636520666f6044820152651c8818d85b1b60d21b6064820152608401610706565b843b612eba5760405162461bcd60e51b815260206004820152601d60248201527f416464726573733a2063616c6c20746f206e6f6e2d636f6e74726163740000006044820152606401610706565b600080866001600160a01b03168587604051612ed69190613284565b60006040518083038185875af1925050503d8060008114612f13576040519150601f19603f3d011682016040523d82523d6000602084013e612f18565b606091505b5091509150612f28828286612f33565b979650505050505050565b60608315612f42575081611c65565b825115612f525782518084602001fd5b8160405162461bcd60e51b81526004016107069190613353565b8035612f7781613565565b919050565b600060208284031215612f8d578081fd5b8135611c6581613565565b600060208284031215612fa9578081fd5b8151611c6581613565565b60008060408385031215612fc6578081fd5b8235612fd181613565565b946020939093013593505050565b60008060008060008060008060006101208a8c031215612ffd578485fd5b67ffffffffffffffff808b351115613013578586fd5b8a358b018c601f820112613025578687fd5b8035828111156130375761303761354f565b604051601f19603f8360051b01168101818110858211171561305b5761305b61354f565b8060405250809350818152602081019350602083018f60208460051b860101111561308457898afd5b8993505b828410156130ae5761309981612f6c565b85526020948501946001949094019301613088565b509b5050505060208a0135975060408a0135965060608a0135955060808a0135945060a08a0135935060c08a0135925060e08a013591506130f26101008b01612f6c565b90509295985092959850929598565b600060208284031215613112578081fd5b81518015158114611c65578182fd5b600060208284031215613132578081fd5b5035919050565b6000806040838503121561314b578182fd5b82359150602083013561315d81613565565b809150509250929050565b600060208284031215613179578081fd5b81356001600160e01b031981168114611c65578182fd5b6000806000606084860312156131a4578283fd5b83356131af81613565565b925060208401356131bf81613565565b929592945050506040919091013590565b600080600080608085870312156131e5578182fd5b8451600481106131f3578283fd5b60208601516040870151606090970151919890975090945092505050565b600060208284031215613222578081fd5b5051919050565b6000806040838503121561323b578182fd5b50508035926020909101359150565b600080600080600060a08688031215613261578283fd5b505083359560208501359550604085013594606081013594506080013592509050565b600082516132968184602087016134db565b9190910192915050565b7f416363657373436f6e74726f6c3a206163636f756e74200000000000000000008152600083516132d88160178501602088016134db565b7001034b99036b4b9b9b4b733903937b6329607d1b60179184019182015283516133098160288401602088016134db565b01602801949350505050565b608081016004861061333757634e487b7160e01b600052602160045260246000fd5b9481526020810193909352604083019190915260609091015290565b60208152600082518060208401526133728160408501602087016134db565b601f01601f19169190910160400192915050565b6020808252818101527f4f776e61626c653a2063616c6c6572206973206e6f7420746865206f776e6572604082015260600190565b60208082526016908201527521b7b6b6bab734ba3c9d102727aa2fa6a0a720a3a2a960511b604082015260600190565b6020808252602b908201527f496e697469616c697a61626c653a20636f6e7472616374206973206e6f74206960408201526a6e697469616c697a696e6760a81b606082015260800190565b6020808252601f908201527f5265656e7472616e637947756172643a207265656e7472616e742063616c6c00604082015260600190565b6000821982111561348057613480613539565b500190565b6000826134a057634e487b7160e01b81526012600452602481fd5b500490565b60008160001904831182151516156134bf576134bf613539565b500290565b6000828210156134d6576134d6613539565b500390565b60005b838110156134f65781810151838201526020016134de565b8381111561293a5750506000910152565b60008161351657613516613539565b506000190190565b600060001982141561353257613532613539565b5060010190565b634e487b7160e01b600052601160045260246000fd5b634e487b7160e01b600052604160045260246000fd5b6001600160a01b038116811461096957600080fdfe241ecf16d79d0f8dbfb92cbc07fe17840425976cf0667f022fe9877caa831b08a264697066735822122062b78585359dbbdc6f0a4f02e09a54caf3ab16eb379f93406260ecaf411cea5564736f6c63430008040033",
  "linkReferences": {},
  "deployedLinkReferences": {}
}