{
  "_format": "hh-sol-artifact-1",
  "contractName": "PACTDelegateOld",
  "sourceName": "contracts/mocks/governor/PACTDelegateOld.sol",
  "abi": [
    {
      "anonymous": false,
      "inputs": [
        {
          "indexed": false,
          "internalType": "address",
          "name": "oldAdmin",
          "type": "address"
        },
        {
          "indexed": false,
          "internalType": "address",
          "name": "newAdmin",
          "type": "address"
        }
      ],
      "name": "NewAdmin",
      "type": "event"
    },
    {
      "anonymous": false,
      "inputs": [
        {
          "indexed": false,
          "internalType": "address",
          "name": "oldImplementation",
          "type": "address"
        },
        {
          "indexed": false,
          "internalType": "address",
          "name": "newImplementation",
          "type": "address"
        }
      ],
      "name": "NewImplementation",
      "type": "event"
    },
    {
      "anonymous": false,
      "inputs": [
        {
          "indexed": false,
          "internalType": "address",
          "name": "oldPendingAdmin",
          "type": "address"
        },
        {
          "indexed": false,
          "internalType": "address",
          "name": "newPendingAdmin",
          "type": "address"
        }
      ],
      "name": "NewPendingAdmin",
      "type": "event"
    },
    {
      "anonymous": false,
      "inputs": [
        {
          "indexed": true,
          "internalType": "address",
          "name": "previousOwner",
          "type": "address"
        },
        {
          "indexed": true,
          "internalType": "address",
          "name": "newOwner",
          "type": "address"
        }
      ],
      "name": "OwnershipTransferred",
      "type": "event"
    },
    {
      "anonymous": false,
      "inputs": [
        {
          "indexed": false,
          "internalType": "uint256",
          "name": "id",
          "type": "uint256"
        }
      ],
      "name": "ProposalCanceled",
      "type": "event"
    },
    {
      "anonymous": false,
      "inputs": [
        {
          "indexed": false,
          "internalType": "uint256",
          "name": "id",
          "type": "uint256"
        },
        {
          "indexed": false,
          "internalType": "address",
          "name": "proposer",
          "type": "address"
        },
        {
          "indexed": false,
          "internalType": "address[]",
          "name": "targets",
          "type": "address[]"
        },
        {
          "indexed": false,
          "internalType": "uint256[]",
          "name": "values",
          "type": "uint256[]"
        },
        {
          "indexed": false,
          "internalType": "string[]",
          "name": "signatures",
          "type": "string[]"
        },
        {
          "indexed": false,
          "internalType": "bytes[]",
          "name": "calldatas",
          "type": "bytes[]"
        },
        {
          "indexed": false,
          "internalType": "uint256",
          "name": "startBlock",
          "type": "uint256"
        },
        {
          "indexed": false,
          "internalType": "uint256",
          "name": "endBlock",
          "type": "uint256"
        },
        {
          "indexed": false,
          "internalType": "string",
          "name": "description",
          "type": "string"
        }
      ],
      "name": "ProposalCreated",
      "type": "event"
    },
    {
      "anonymous": false,
      "inputs": [
        {
          "indexed": false,
          "internalType": "uint256",
          "name": "id",
          "type": "uint256"
        }
      ],
      "name": "ProposalExecuted",
      "type": "event"
    },
    {
      "anonymous": false,
      "inputs": [
        {
          "indexed": false,
          "internalType": "uint256",
          "name": "id",
          "type": "uint256"
        },
        {
          "indexed": false,
          "internalType": "uint256",
          "name": "eta",
          "type": "uint256"
        }
      ],
      "name": "ProposalQueued",
      "type": "event"
    },
    {
      "anonymous": false,
      "inputs": [
        {
          "indexed": false,
          "internalType": "uint256",
          "name": "oldProposalThreshold",
          "type": "uint256"
        },
        {
          "indexed": false,
          "internalType": "uint256",
          "name": "newProposalThreshold",
          "type": "uint256"
        }
      ],
      "name": "ProposalThresholdSet",
      "type": "event"
    },
    {
      "anonymous": false,
      "inputs": [
        {
          "indexed": false,
          "internalType": "uint256",
          "name": "oldQuorumVotes",
          "type": "uint256"
        },
        {
          "indexed": false,
          "internalType": "uint256",
          "name": "newQuorumVotes",
          "type": "uint256"
        }
      ],
      "name": "QuorumVotesSet",
      "type": "event"
    },
    {
      "anonymous": false,
      "inputs": [
        {
          "indexed": false,
          "internalType": "address",
          "name": "oldReleaseToken",
          "type": "address"
        },
        {
          "indexed": false,
          "internalType": "address",
          "name": "newReleaseToken",
          "type": "address"
        }
      ],
      "name": "ReleaseTokenSet",
      "type": "event"
    },
    {
      "anonymous": false,
      "inputs": [
        {
          "indexed": true,
          "internalType": "address",
          "name": "token",
          "type": "address"
        },
        {
          "indexed": true,
          "internalType": "address",
          "name": "to",
          "type": "address"
        },
        {
          "indexed": false,
          "internalType": "uint256",
          "name": "amount",
          "type": "uint256"
        }
      ],
      "name": "TransferERC20",
      "type": "event"
    },
    {
      "anonymous": false,
      "inputs": [
        {
          "indexed": true,
          "internalType": "address",
          "name": "voter",
          "type": "address"
        },
        {
          "indexed": false,
          "internalType": "uint256",
          "name": "proposalId",
          "type": "uint256"
        },
        {
          "indexed": false,
          "internalType": "uint8",
          "name": "support",
          "type": "uint8"
        },
        {
          "indexed": false,
          "internalType": "uint256",
          "name": "votes",
          "type": "uint256"
        },
        {
          "indexed": false,
          "internalType": "string",
          "name": "reason",
          "type": "string"
        }
      ],
      "name": "VoteCast",
      "type": "event"
    },
    {
      "anonymous": false,
      "inputs": [
        {
          "indexed": false,
          "internalType": "uint256",
          "name": "oldVotingDelay",
          "type": "uint256"
        },
        {
          "indexed": false,
          "internalType": "uint256",
          "name": "newVotingDelay",
          "type": "uint256"
        }
      ],
      "name": "VotingDelaySet",
      "type": "event"
    },
    {
      "anonymous": false,
      "inputs": [
        {
          "indexed": false,
          "internalType": "uint256",
          "name": "oldVotingPeriod",
          "type": "uint256"
        },
        {
          "indexed": false,
          "internalType": "uint256",
          "name": "newVotingPeriod",
          "type": "uint256"
        }
      ],
      "name": "VotingPeriodSet",
      "type": "event"
    },
    {
      "inputs": [],
      "name": "BALLOT_TYPEHASH",
      "outputs": [
        {
          "internalType": "bytes32",
          "name": "",
          "type": "bytes32"
        }
      ],
      "stateMutability": "view",
      "type": "function"
    },
    {
      "inputs": [],
      "name": "DOMAIN_TYPEHASH",
      "outputs": [
        {
          "internalType": "bytes32",
          "name": "",
          "type": "bytes32"
        }
      ],
      "stateMutability": "view",
      "type": "function"
    },
    {
      "inputs": [],
      "name": "MAX_PROPOSAL_THRESHOLD",
      "outputs": [
        {
          "internalType": "uint256",
          "name": "",
          "type": "uint256"
        }
      ],
      "stateMutability": "view",
      "type": "function"
    },
    {
      "inputs": [],
      "name": "MAX_VOTING_DELAY",
      "outputs": [
        {
          "internalType": "uint256",
          "name": "",
          "type": "uint256"
        }
      ],
      "stateMutability": "view",
      "type": "function"
    },
    {
      "inputs": [],
      "name": "MAX_VOTING_PERIOD",
      "outputs": [
        {
          "internalType": "uint256",
          "name": "",
          "type": "uint256"
        }
      ],
      "stateMutability": "view",
      "type": "function"
    },
    {
      "inputs": [],
      "name": "MIN_PROPOSAL_THRESHOLD",
      "outputs": [
        {
          "internalType": "uint256",
          "name": "",
          "type": "uint256"
        }
      ],
      "stateMutability": "view",
      "type": "function"
    },
    {
      "inputs": [],
      "name": "MIN_VOTING_DELAY",
      "outputs": [
        {
          "internalType": "uint256",
          "name": "",
          "type": "uint256"
        }
      ],
      "stateMutability": "view",
      "type": "function"
    },
    {
      "inputs": [],
      "name": "MIN_VOTING_PERIOD",
      "outputs": [
        {
          "internalType": "uint256",
          "name": "",
          "type": "uint256"
        }
      ],
      "stateMutability": "view",
      "type": "function"
    },
    {
      "inputs": [],
      "name": "NAME",
      "outputs": [
        {
          "internalType": "string",
          "name": "",
          "type": "string"
        }
      ],
      "stateMutability": "view",
      "type": "function"
    },
    {
      "inputs": [],
      "name": "PROPOSAL_MAX_OPERATIONS",
      "outputs": [
        {
          "internalType": "uint256",
          "name": "",
          "type": "uint256"
        }
      ],
      "stateMutability": "view",
      "type": "function"
    },
    {
      "inputs": [
        {
          "internalType": "uint256",
          "name": "_newProposalThreshold",
          "type": "uint256"
        }
      ],
      "name": "_setProposalThreshold",
      "outputs": [],
      "stateMutability": "nonpayable",
      "type": "function"
    },
    {
      "inputs": [
        {
          "internalType": "uint256",
          "name": "_newQuorumVotes",
          "type": "uint256"
        }
      ],
      "name": "_setQuorumVotes",
      "outputs": [],
      "stateMutability": "nonpayable",
      "type": "function"
    },
    {
      "inputs": [
        {
          "internalType": "uint256",
          "name": "_newVotingDelay",
          "type": "uint256"
        }
      ],
      "name": "_setVotingDelay",
      "outputs": [],
      "stateMutability": "nonpayable",
      "type": "function"
    },
    {
      "inputs": [
        {
          "internalType": "uint256",
          "name": "_newVotingPeriod",
          "type": "uint256"
        }
      ],
      "name": "_setVotingPeriod",
      "outputs": [],
      "stateMutability": "nonpayable",
      "type": "function"
    },
    {
      "inputs": [
        {
          "internalType": "uint256",
          "name": "_proposalId",
          "type": "uint256"
        }
      ],
      "name": "cancel",
      "outputs": [],
      "stateMutability": "nonpayable",
      "type": "function"
    },
    {
      "inputs": [
        {
          "internalType": "uint256",
          "name": "_proposalId",
          "type": "uint256"
        },
        {
          "internalType": "uint8",
          "name": "_support",
          "type": "uint8"
        }
      ],
      "name": "castVote",
      "outputs": [],
      "stateMutability": "nonpayable",
      "type": "function"
    },
    {
      "inputs": [
        {
          "internalType": "uint256",
          "name": "_proposalId",
          "type": "uint256"
        },
        {
          "internalType": "uint8",
          "name": "_support",
          "type": "uint8"
        },
        {
          "internalType": "uint8",
          "name": "_v",
          "type": "uint8"
        },
        {
          "internalType": "bytes32",
          "name": "_r",
          "type": "bytes32"
        },
        {
          "internalType": "bytes32",
          "name": "_s",
          "type": "bytes32"
        }
      ],
      "name": "castVoteBySig",
      "outputs": [],
      "stateMutability": "nonpayable",
      "type": "function"
    },
    {
      "inputs": [
        {
          "internalType": "uint256",
          "name": "_proposalId",
          "type": "uint256"
        },
        {
          "internalType": "uint8",
          "name": "_support",
          "type": "uint8"
        },
        {
          "internalType": "string",
          "name": "_reason",
          "type": "string"
        }
      ],
      "name": "castVoteWithReason",
      "outputs": [],
      "stateMutability": "nonpayable",
      "type": "function"
    },
    {
      "inputs": [
        {
          "internalType": "uint256",
          "name": "_proposalId",
          "type": "uint256"
        }
      ],
      "name": "execute",
      "outputs": [],
      "stateMutability": "payable",
      "type": "function"
    },
    {
      "inputs": [
        {
          "internalType": "uint256",
          "name": "_proposalId",
          "type": "uint256"
        }
      ],
      "name": "getActions",
      "outputs": [
        {
          "internalType": "address[]",
          "name": "targets",
          "type": "address[]"
        },
        {
          "internalType": "uint256[]",
          "name": "values",
          "type": "uint256[]"
        },
        {
          "internalType": "string[]",
          "name": "signatures",
          "type": "string[]"
        },
        {
          "internalType": "bytes[]",
          "name": "calldatas",
          "type": "bytes[]"
        }
      ],
      "stateMutability": "view",
      "type": "function"
    },
    {
      "inputs": [
        {
          "internalType": "uint256",
          "name": "_proposalId",
          "type": "uint256"
        },
        {
          "internalType": "address",
          "name": "_voter",
          "type": "address"
        }
      ],
      "name": "getReceipt",
      "outputs": [
        {
          "components": [
            {
              "internalType": "bool",
              "name": "hasVoted",
              "type": "bool"
            },
            {
              "internalType": "uint8",
              "name": "support",
              "type": "uint8"
            },
            {
              "internalType": "uint96",
              "name": "votes",
              "type": "uint96"
            }
          ],
          "internalType": "struct PACTDelegateStorageV1.Receipt",
          "name": "",
          "type": "tuple"
        }
      ],
      "stateMutability": "view",
      "type": "function"
    },
    {
      "inputs": [
        {
          "internalType": "address",
          "name": "_timelock",
          "type": "address"
        },
        {
          "internalType": "address",
          "name": "_token",
          "type": "address"
        },
        {
          "internalType": "address",
          "name": "_releaseToken",
          "type": "address"
        },
        {
          "internalType": "uint256",
          "name": "_votingPeriod",
          "type": "uint256"
        },
        {
          "internalType": "uint256",
          "name": "_votingDelay",
          "type": "uint256"
        },
        {
          "internalType": "uint256",
          "name": "_proposalThreshold",
          "type": "uint256"
        },
        {
          "internalType": "uint256",
          "name": "_quorumVotes",
          "type": "uint256"
        }
      ],
      "name": "initialize",
      "outputs": [],
      "stateMutability": "nonpayable",
      "type": "function"
    },
    {
      "inputs": [
        {
          "internalType": "address",
          "name": "",
          "type": "address"
        }
      ],
      "name": "latestProposalIds",
      "outputs": [
        {
          "internalType": "uint256",
          "name": "",
          "type": "uint256"
        }
      ],
      "stateMutability": "view",
      "type": "function"
    },
    {
      "inputs": [],
      "name": "owner",
      "outputs": [
        {
          "internalType": "address",
          "name": "",
          "type": "address"
        }
      ],
      "stateMutability": "view",
      "type": "function"
    },
    {
      "inputs": [
        {
          "internalType": "uint256",
          "name": "",
          "type": "uint256"
        },
        {
          "internalType": "uint256",
          "name": "",
          "type": "uint256"
        }
      ],
      "name": "proposalCalldatas",
      "outputs": [
        {
          "internalType": "bytes",
          "name": "",
          "type": "bytes"
        }
      ],
      "stateMutability": "view",
      "type": "function"
    },
    {
      "inputs": [],
      "name": "proposalCount",
      "outputs": [
        {
          "internalType": "uint256",
          "name": "",
          "type": "uint256"
        }
      ],
      "stateMutability": "view",
      "type": "function"
    },
    {
      "inputs": [
        {
          "internalType": "uint256",
          "name": "",
          "type": "uint256"
        },
        {
          "internalType": "address",
          "name": "",
          "type": "address"
        }
      ],
      "name": "proposalReceipts",
      "outputs": [
        {
          "internalType": "bool",
          "name": "hasVoted",
          "type": "bool"
        },
        {
          "internalType": "uint8",
          "name": "support",
          "type": "uint8"
        },
        {
          "internalType": "uint96",
          "name": "votes",
          "type": "uint96"
        }
      ],
      "stateMutability": "view",
      "type": "function"
    },
    {
      "inputs": [
        {
          "internalType": "uint256",
          "name": "",
          "type": "uint256"
        },
        {
          "internalType": "uint256",
          "name": "",
          "type": "uint256"
        }
      ],
      "name": "proposalSignatures",
      "outputs": [
        {
          "internalType": "string",
          "name": "",
          "type": "string"
        }
      ],
      "stateMutability": "view",
      "type": "function"
    },
    {
      "inputs": [
        {
          "internalType": "uint256",
          "name": "",
          "type": "uint256"
        },
        {
          "internalType": "uint256",
          "name": "",
          "type": "uint256"
        }
      ],
      "name": "proposalTargets",
      "outputs": [
        {
          "internalType": "address",
          "name": "",
          "type": "address"
        }
      ],
      "stateMutability": "view",
      "type": "function"
    },
    {
      "inputs": [],
      "name": "proposalThreshold",
      "outputs": [
        {
          "internalType": "uint256",
          "name": "",
          "type": "uint256"
        }
      ],
      "stateMutability": "view",
      "type": "function"
    },
    {
      "inputs": [
        {
          "internalType": "uint256",
          "name": "",
          "type": "uint256"
        },
        {
          "internalType": "uint256",
          "name": "",
          "type": "uint256"
        }
      ],
      "name": "proposalValues",
      "outputs": [
        {
          "internalType": "uint256",
          "name": "",
          "type": "uint256"
        }
      ],
      "stateMutability": "view",
      "type": "function"
    },
    {
      "inputs": [
        {
          "internalType": "uint256",
          "name": "",
          "type": "uint256"
        }
      ],
      "name": "proposals",
      "outputs": [
        {
          "internalType": "uint256",
          "name": "id",
          "type": "uint256"
        },
        {
          "internalType": "address",
          "name": "proposer",
          "type": "address"
        },
        {
          "internalType": "uint256",
          "name": "eta",
          "type": "uint256"
        },
        {
          "internalType": "uint256",
          "name": "startBlock",
          "type": "uint256"
        },
        {
          "internalType": "uint256",
          "name": "endBlock",
          "type": "uint256"
        },
        {
          "internalType": "uint256",
          "name": "forVotes",
          "type": "uint256"
        },
        {
          "internalType": "uint256",
          "name": "againstVotes",
          "type": "uint256"
        },
        {
          "internalType": "uint256",
          "name": "abstainVotes",
          "type": "uint256"
        },
        {
          "internalType": "bool",
          "name": "canceled",
          "type": "bool"
        },
        {
          "internalType": "bool",
          "name": "executed",
          "type": "bool"
        }
      ],
      "stateMutability": "view",
      "type": "function"
    },
    {
      "inputs": [
        {
          "internalType": "address[]",
          "name": "_targets",
          "type": "address[]"
        },
        {
          "internalType": "uint256[]",
          "name": "_values",
          "type": "uint256[]"
        },
        {
          "internalType": "string[]",
          "name": "_signatures",
          "type": "string[]"
        },
        {
          "internalType": "bytes[]",
          "name": "_calldatas",
          "type": "bytes[]"
        },
        {
          "internalType": "string",
          "name": "_description",
          "type": "string"
        }
      ],
      "name": "propose",
      "outputs": [
        {
          "internalType": "uint256",
          "name": "",
          "type": "uint256"
        }
      ],
      "stateMutability": "nonpayable",
      "type": "function"
    },
    {
      "inputs": [
        {
          "internalType": "uint256",
          "name": "_proposalId",
          "type": "uint256"
        }
      ],
      "name": "queue",
      "outputs": [],
      "stateMutability": "nonpayable",
      "type": "function"
    },
    {
      "inputs": [],
      "name": "quorumVotes",
      "outputs": [
        {
          "internalType": "uint256",
          "name": "",
          "type": "uint256"
        }
      ],
      "stateMutability": "view",
      "type": "function"
    },
    {
      "inputs": [],
      "name": "releaseToken",
      "outputs": [
        {
          "internalType": "contract IHasVotes",
          "name": "",
          "type": "address"
        }
      ],
      "stateMutability": "view",
      "type": "function"
    },
    {
      "inputs": [],
      "name": "renounceOwnership",
      "outputs": [],
      "stateMutability": "nonpayable",
      "type": "function"
    },
    {
      "inputs": [
        {
          "internalType": "uint256",
          "name": "_proposalId",
          "type": "uint256"
        }
      ],
      "name": "state",
      "outputs": [
        {
          "internalType": "enum PACTDelegateStorageV1.ProposalState",
          "name": "",
          "type": "uint8"
        }
      ],
      "stateMutability": "view",
      "type": "function"
    },
    {
      "inputs": [],
      "name": "timelock",
      "outputs": [
        {
          "internalType": "contract TimelockInterface",
          "name": "",
          "type": "address"
        }
      ],
      "stateMutability": "view",
      "type": "function"
    },
    {
      "inputs": [],
      "name": "token",
      "outputs": [
        {
          "internalType": "contract IHasVotes",
          "name": "",
          "type": "address"
        }
      ],
      "stateMutability": "view",
      "type": "function"
    },
    {
      "inputs": [
        {
          "internalType": "contract IERC20Upgradeable",
          "name": "_token",
          "type": "address"
        },
        {
          "internalType": "address",
          "name": "_to",
          "type": "address"
        },
        {
          "internalType": "uint256",
          "name": "_amount",
          "type": "uint256"
        }
      ],
      "name": "transfer",
      "outputs": [],
      "stateMutability": "nonpayable",
      "type": "function"
    },
    {
      "inputs": [
        {
          "internalType": "address",
          "name": "newOwner",
          "type": "address"
        }
      ],
      "name": "transferOwnership",
      "outputs": [],
      "stateMutability": "nonpayable",
      "type": "function"
    },
    {
      "inputs": [],
      "name": "votingDelay",
      "outputs": [
        {
          "internalType": "uint256",
          "name": "",
          "type": "uint256"
        }
      ],
      "stateMutability": "view",
      "type": "function"
    },
    {
      "inputs": [],
      "name": "votingPeriod",
      "outputs": [
        {
          "internalType": "uint256",
          "name": "",
          "type": "uint256"
        }
      ],
      "stateMutability": "view",
      "type": "function"
    }
  ],
  "bytecode": "0x608060405234801561001057600080fd5b50614839806100206000396000f3fe6080604052600436106102675760003560e01c80637b3c71d311610144578063d33219b4116100b6578063e23a9a521161007a578063e23a9a521461086d578063e48083fe146108bd578063ec715a31146108d2578063f2fde38b146108f2578063fc0c546a14610912578063fe0d94c11461093257600080fd5b8063d33219b4146107c3578063da35c664146107e3578063da95691a146107f9578063ddf0b00914610819578063deaaa7cc1461083957600080fd5b8063a4a53a1311610108578063a4a53a131461071f578063a64e024a1461073f578063ac67466414610756578063b112626314610776578063b58131b01461078d578063beabacc8146107a357600080fd5b80637b3c71d31461065d57806386d37e8b1461067d578063878b608d1461069d5780638da5cb5b146106bd578063a3f4df7e146106ef57600080fd5b8063328dd982116101dd57806340e58ee5116101a157806340e58ee51461053e5780634e42b06d1461055e578063567813881461058b57806366176743146105ab578063715018a614610629578063791f5d231461063e57600080fd5b8063328dd9821461049657806336e7048a146104c65780633932abb1146104db5780633bccf4fd146104f15780633e4f49e61461051157600080fd5b80631dfb1b5a1161022f5780631dfb1b5a146103d657806320606b70146103f6578063215809ca1461042a57806324bc1a641461044057806325fd935a146104565780632b4656c81461047657600080fd5b8063013cf08b1461026c57806302a251a3146103435780630ea2d98c1461036757806317977c611461038957806317ba1b8b146103b6575b600080fd5b34801561027857600080fd5b506102e8610287366004613f0a565b609f6020526000908152604090208054600182015460028301546003840154600485015460058601546006870154600788015460089098015496976001600160a01b0390961696949593949293919290919060ff808216916101009004168a565b604080519a8b526001600160a01b0390991660208b0152978901969096526060880194909452608087019290925260a086015260c085015260e084015215156101008301521515610120820152610140015b60405180910390f35b34801561034f57600080fd5b5061035960985481565b60405190815260200161033a565b34801561037357600080fd5b50610387610382366004613f0a565b610945565b005b34801561039557600080fd5b506103596103a4366004613cae565b60a56020526000908152604090205481565b3480156103c257600080fd5b506103876103d1366004613f0a565b610a35565b3480156103e257600080fd5b506103876103f1366004613f0a565b610b36565b34801561040257600080fd5b506103597f8cad95687ba82c2ce50e74f7b754645e5117c3a5bec8151c0726d5857980a86681565b34801561043657600080fd5b506103596102d081565b34801561044c57600080fd5b50610359609b5481565b34801561046257600080fd5b506103596b019d971e4fe8401e7400000081565b34801561048257600080fd5b50610387610491366004613ce6565b610c12565b3480156104a257600080fd5b506104b66104b1366004613f0a565b6111c8565b60405161033a9493929190614340565b3480156104d257600080fd5b50610359600a81565b3480156104e757600080fd5b5061035960975481565b3480156104fd57600080fd5b5061038761050c36600461401f565b611459565b34801561051d57600080fd5b5061053161052c366004613f0a565b6117b6565b60405161033a91906143a0565b34801561054a57600080fd5b50610387610559366004613f0a565b611953565b34801561056a57600080fd5b5061057e610579366004613f51565b611c65565b60405161033a919061438d565b34801561059757600080fd5b506103876105a6366004613f72565b611d1e565b3480156105b757600080fd5b506106016105c6366004613f22565b60a460209081526000928352604080842090915290825290205460ff808216916101008104909116906201000090046001600160601b031683565b60408051931515845260ff90921660208401526001600160601b03169082015260600161033a565b34801561063557600080fd5b50610387611d89565b34801561064a57600080fd5b506103596a52b7d2dcc80cd2e400000081565b34801561066957600080fd5b50610387610678366004613f9d565b611dbf565b34801561068957600080fd5b50610387610698366004613f0a565b611e0f565b3480156106a957600080fd5b506103596106b8366004613f51565b611edd565b3480156106c957600080fd5b506033546001600160a01b03165b6040516001600160a01b03909116815260200161033a565b3480156106fb57600080fd5b5061057e60405180604001604052806004815260200163141050d560e21b81525081565b34801561072b57600080fd5b5061057e61073a366004613f51565b611f0e565b34801561074b57600080fd5b506103596203b10081565b34801561076257600080fd5b506106d7610771366004613f51565b611f2a565b34801561078257600080fd5b506103596201d88081565b34801561079957600080fd5b5061035960995481565b3480156107af57600080fd5b506103876107be366004613eca565b611f62565b3480156107cf57600080fd5b50609c546106d7906001600160a01b031681565b3480156107ef57600080fd5b50610359609a5481565b34801561080557600080fd5b50610359610814366004613d53565b61204f565b34801561082557600080fd5b50610387610834366004613f0a565b6125d0565b34801561084557600080fd5b506103597f150214d74d59b7d1e90c73fc22ef3d991dd0a76b046543d4d80ab92d2a50328f81565b34801561087957600080fd5b5061088d610888366004613f22565b61294d565b6040805182511515815260208084015160ff1690820152918101516001600160601b03169082015260600161033a565b3480156108c957600080fd5b50610359600181565b3480156108de57600080fd5b50609e546106d7906001600160a01b031681565b3480156108fe57600080fd5b5061038761090d366004613cae565b6129c2565b34801561091e57600080fd5b50609d546106d7906001600160a01b031681565b610387610940366004613f0a565b612a5d565b6033546001600160a01b031633146109785760405162461bcd60e51b815260040161096f906143c8565b60405180910390fd5b6102d0811015801561098d57506203b1008111155b6109ef5760405162461bcd60e51b815260206004820152602d60248201527f504143543a3a5f736574566f74696e67506572696f643a20696e76616c69642060448201526c1d9bdd1a5b99c81c195c9a5bd9609a1b606482015260840161096f565b609880549082905560408051828152602081018490527f7e3f7f0708a84de9203036abaa450dccc85ad5ff52f78c170f3edb55cf5e882891015b60405180910390a15050565b6033546001600160a01b03163314610a5f5760405162461bcd60e51b815260040161096f906143c8565b6a52b7d2dcc80cd2e40000008110158015610a8657506b019d971e4fe8401e740000008111155b610af85760405162461bcd60e51b815260206004820152603760248201527f504143543a3a5f73657450726f706f73616c5468726573686f6c643a20696e7660448201527f616c69642070726f706f73616c207468726573686f6c64000000000000000000606482015260840161096f565b609980549082905560408051828152602081018490527fccb45da8d5717e6c4544694297c4ba5cf151d455c9bb0ed4fc7a38411bc054619101610a29565b6033546001600160a01b03163314610b605760405162461bcd60e51b815260040161096f906143c8565b60018110158015610b7457506201d8808111155b610bd45760405162461bcd60e51b815260206004820152602b60248201527f504143543a3a5f736574566f74696e6744656c61793a20696e76616c6964207660448201526a6f74696e672064656c617960a81b606482015260840161096f565b609780549082905560408051828152602081018490527fc565b045403dc03c2eea82b81a0465edad9e2e7fc4d97e11421c209da93d7a939101610a29565b600054610100900460ff16610c2d5760005460ff1615610c31565b303b155b610c945760405162461bcd60e51b815260206004820152602e60248201527f496e697469616c697a61626c653a20636f6e747261637420697320616c72656160448201526d191e481a5b9a5d1a585b1a5e995960921b606482015260840161096f565b600054610100900460ff16158015610cb6576000805461ffff19166101011790555b306001600160a01b0316886001600160a01b031663f851a4406040518163ffffffff1660e01b815260040160206040518083038186803b158015610cf957600080fd5b505afa158015610d0d573d6000803e3d6000fd5b505050506040513d601f19601f82011682018060405250810190610d319190613cca565b6001600160a01b031614610d575760405162461bcd60e51b815260040161096f906143fd565b6102d08510158015610d6c57506203b1008511155b610dc85760405162461bcd60e51b815260206004820152602760248201527f504143543a3a696e697469616c697a653a20696e76616c696420766f74696e67604482015266081c195c9a5bd960ca1b606482015260840161096f565b60018410158015610ddc57506201d8808411155b610e375760405162461bcd60e51b815260206004820152602660248201527f504143543a3a696e697469616c697a653a20696e76616c696420766f74696e676044820152652064656c617960d01b606482015260840161096f565b6a52b7d2dcc80cd2e40000008310158015610e5e57506b019d971e4fe8401e740000008311155b610ebf5760405162461bcd60e51b815260206004820152602c60248201527f504143543a3a696e697469616c697a653a20696e76616c69642070726f706f7360448201526b185b081d1a1c995cda1bdb1960a21b606482015260840161096f565b82821015610f1e5760405162461bcd60e51b815260206004820152602660248201527f504143543a3a696e697469616c697a653a20696e76616c69642071756f72756d60448201526520766f74657360d01b606482015260840161096f565b609c80546001600160a01b0319166001600160a01b038a16908117909155604080516303e1469160e61b8152905130929163f851a440916004808301926020929190829003018186803b158015610f7457600080fd5b505afa158015610f88573d6000803e3d6000fd5b505050506040513d601f19601f82011682018060405250810190610fac9190613cca565b6001600160a01b031614610fd25760405162461bcd60e51b815260040161096f906143fd565b610fda612d3b565b610fe2612d72565b609d80546001600160a01b03808a166001600160a01b031992831617909255609e805492891692909116919091179055609885905560978490556099839055609b8290556040805161014081018252609a80548083523060208401526000938301849052606083018490526080830184905260a0830184905260c0830184905260e08301849052600161010084015261012083018490529192611084836147a7565b909155505080516000908152609f602090815260408083208451808255838601516001830180546001600160a01b0319166001600160a01b039092169182179055838701516002840155606087015160038401556080870151600484015560a080880151600585015560c0880151600685015560e0880151600785015561010080890151600890950180546101208b015161ffff1990911696151561ff0019169690961795151590910294909417909355855260a584528285205584518085529083528184208551855260a184528285208651865260a285528386208751875260a390955283862093517f7d84a6263ae0d98d3329bd7b46bb4e8d6f98cd35a7adb45c274c8b7fd5ebd5e0966111a3969495309592909190819061453e565b60405180910390a15080156111be576000805461ff00191690555b5050505050505050565b600081815260a06020908152604080832060a1835281842060a2845282852060a3855294839020825484518187028101870190955280855260609687968796879695949293909186919083018282801561124b57602002820191906000526020600020905b81546001600160a01b0316815260019091019060200180831161122d575b505050505093508280548060200260200160405190810160405280929190818152602001828054801561129d57602002820191906000526020600020905b815481526020019060010190808311611289575b5050505050925081805480602002602001604051908101604052809291908181526020016000905b828210156113715783829060005260206000200180546112e490614772565b80601f016020809104026020016040519081016040528092919081815260200182805461131090614772565b801561135d5780601f106113325761010080835404028352916020019161135d565b820191906000526020600020905b81548152906001019060200180831161134057829003601f168201915b5050505050815260200190600101906112c5565b50505050915080805480602002602001604051908101604052809291908181526020016000905b828210156114445783829060005260206000200180546113b790614772565b80601f01602080910402602001604051908101604052809291908181526020018280546113e390614772565b80156114305780601f1061140557610100808354040283529160200191611430565b820191906000526020600020905b81548152906001019060200180831161141357829003601f168201915b505050505081526020019060010190611398565b50505050905093509350935093509193509193565b8260ff16601b148061146e57508260ff16601c145b6114c65760405162461bcd60e51b8152602060048201526024808201527f504143543a3a63617374566f746542795369673a20696e76616c696420762076604482015263616c756560e01b606482015260840161096f565b7f7fffffffffffffffffffffffffffffff5d576e7357a4501ddfe92f46681b20a181106115415760405162461bcd60e51b8152602060048201526024808201527f504143543a3a63617374566f746542795369673a20696e76616c696420732076604482015263616c756560e01b606482015260840161096f565b604080518082019091526004815263141050d560e21b60209091015260007f8cad95687ba82c2ce50e74f7b754645e5117c3a5bec8151c0726d5857980a8667f632da7bd42fd0a56ea94358769cdb5b6fb8d747d823a41e491529533c26abea546604080516020810194909452830191909152606082015230608082015260a00160408051601f1981840301815282825280516020918201207f150214d74d59b7d1e90c73fc22ef3d991dd0a76b046543d4d80ab92d2a50328f9184019190915290820188905260ff87166060830152915060009060800160408051601f19818403018152828252805160209182012060609184018290526002608085015261190160f01b60a08501529183018590528201819052915060009060c00160408051601f198184030181528282528051602091820120600080855291840180845281905260ff8a169284019290925260608301889052608083018790529092509060019060a0016020604051602081039080840390855afa1580156116c9573d6000803e3d6000fd5b5050604051601f1901519150506001600160a01b03811661173b5760405162461bcd60e51b815260206004820152602660248201527f504143543a3a63617374566f746542795369673a20696e76616c6964207369676044820152656e617475726560d01b606482015260840161096f565b806001600160a01b03167fb8e138887d0aa13bab447e82de9d5c1777041ecd21ca36ba824ff1e6c07ddda48a8a611773858e8e612da1565b6040805193845260ff90921660208401526001600160601b03169082015260806060820181905260009082015260a00160405180910390a2505050505050505050565b600081609a54116118095760405162461bcd60e51b815260206004820181905260248201527f504143543a3a73746174653a20696e76616c69642070726f706f73616c206964604482015260640161096f565b6000828152609f60205260409020600881015460ff161561182d5750600292915050565b806003015443116118415750600092915050565b806004015443116118555750600192915050565b806006015481600501541115806118715750609b548160050154105b1561187f5750600392915050565b60028101546118915750600492915050565b6008810154610100900460ff16156118ac5750600792915050565b6002810154609c54604080516360d143f160e11b8152905161193593926001600160a01b03169163c1a287e2916004808301926020929190829003018186803b1580156118f857600080fd5b505afa15801561190c573d6000803e3d6000fd5b505050506040513d601f19601f820116820180604052508101906119309190613e3f565b612ff6565b42106119445750600692915050565b50600592915050565b50919050565b600761195e826117b6565b600781111561197d57634e487b7160e01b600052602160045260246000fd5b14156119e15760405162461bcd60e51b815260206004820152602d60248201527f504143543a3a63616e63656c3a2063616e6e6f742063616e63656c206578656360448201526c1d5d1959081c1c9bdc1bdcd85b609a1b606482015260840161096f565b6000818152609f6020526040902060018101546001600160a01b0316331480611a395750609954600180830154611a2e916001600160a01b0390911690611a29904390613049565b61309d565b6001600160601b0316105b611a945760405162461bcd60e51b815260206004820152602660248201527f504143543a3a63616e63656c3a2070726f706f7365722061626f766520746872604482015265195cda1bdb1960d21b606482015260840161096f565b60088101805460ff1916600117905560005b600083815260a06020526040902054811015611c3457609c54600084815260a06020526040902080546001600160a01b039092169163591fcdfe919084908110611b0057634e487b7160e01b600052603260045260246000fd5b600091825260208083209091015487835260a1909152604090912080546001600160a01b039092169185908110611b4757634e487b7160e01b600052603260045260246000fd5b906000526020600020015460a260008881526020019081526020016000208581548110611b8457634e487b7160e01b600052603260045260246000fd5b9060005260206000200160a360008981526020019081526020016000208681548110611bc057634e487b7160e01b600052603260045260246000fd5b9060005260206000200187600201546040518663ffffffff1660e01b8152600401611bef959493929190614307565b600060405180830381600087803b158015611c0957600080fd5b505af1158015611c1d573d6000803e3d6000fd5b505050508080611c2c906147a7565b915050611aa6565b506040518281527f789cf55be980739dad1d0699b93b58e806b51c9d96619bfa8fe0a28abaa7b30c90602001610a29565b60a36020528160005260406000208181548110611c8157600080fd5b90600052602060002001600091509150508054611c9d90614772565b80601f0160208091040260200160405190810160405280929190818152602001828054611cc990614772565b8015611d165780601f10611ceb57610100808354040283529160200191611d16565b820191906000526020600020905b815481529060010190602001808311611cf957829003601f168201915b505050505081565b337fb8e138887d0aa13bab447e82de9d5c1777041ecd21ca36ba824ff1e6c07ddda48383611d4d848383612da1565b6040805193845260ff90921660208401526001600160601b03169082015260806060820181905260009082015260a00160405180910390a25050565b6033546001600160a01b03163314611db35760405162461bcd60e51b815260040161096f906143c8565b611dbd6000613279565b565b337fb8e138887d0aa13bab447e82de9d5c1777041ecd21ca36ba824ff1e6c07ddda48585611dee848383612da1565b8686604051611e0195949392919061461b565b60405180910390a250505050565b6033546001600160a01b03163314611e395760405162461bcd60e51b815260040161096f906143c8565b609954811015611e9f5760405162461bcd60e51b815260206004820152602b60248201527f504143543a3a5f73657451756f72756d566f7465733a20696e76616c6964207160448201526a756f72756d20766f74657360a81b606482015260840161096f565b609754609b82905560408051828152602081018490527fffff0a251408cb8f05a4fc2ab0bdffe28e1519cb8ee5bdb6531e5d6ca51aaf759101610a29565b60a16020528160005260406000208181548110611ef957600080fd5b90600052602060002001600091509150505481565b60a26020528160005260406000208181548110611c8157600080fd5b60a06020528160005260406000208181548110611f4657600080fd5b6000918252602090912001546001600160a01b03169150829050565b6033546001600160a01b03163314611f8c5760405162461bcd60e51b815260040161096f906143c8565b60026065541415611fdf5760405162461bcd60e51b815260206004820152601f60248201527f5265656e7472616e637947756172643a207265656e7472616e742063616c6c00604482015260640161096f565b6002606555611ff86001600160a01b03841683836132cb565b816001600160a01b0316836001600160a01b03167f9b035625e569d1d2bf54830a290aefba7ab11610ba8490871dc62b86b63a89568360405161203d91815260200190565b60405180910390a35050600160655550565b600060995461206333611a29436001613049565b6001600160601b0316116120d85760405162461bcd60e51b815260206004820152603660248201527f504143543a3a70726f706f73653a2070726f706f73657220766f7465732062656044820152751b1bddc81c1c9bdc1bdcd85b081d1a1c995cda1bdb1960521b606482015260840161096f565b845186511480156120ea575083518651145b80156120f7575082518651145b6121695760405162461bcd60e51b815260206004820152603b60248201527f504143543a3a70726f706f73653a2070726f706f73616c2066756e6374696f6e60448201527f20696e666f726d6174696f6e206172697479206d69736d617463680000000000606482015260840161096f565b85516121c35760405162461bcd60e51b815260206004820152602360248201527f504143543a3a70726f706f73653a206d7573742070726f7669646520616374696044820152626f6e7360e81b606482015260840161096f565b600a865111156122155760405162461bcd60e51b815260206004820152601f60248201527f504143543a3a70726f706f73653a20746f6f206d616e7920616374696f6e7300604482015260640161096f565b33600090815260a560205260409020548015612397576000612236826117b6565b9050600181600781111561225a57634e487b7160e01b600052602160045260246000fd5b14156122e65760405162461bcd60e51b815260206004820152604f60248201527f504143543a3a70726f706f73653a206f6e65206c6976652070726f706f73616c60448201527f207065722070726f706f7365722c20666f756e6420616e20616c72656164792060648201526e1858dd1a5d99481c1c9bdc1bdcd85b608a1b608482015260a40161096f565b600081600781111561230857634e487b7160e01b600052602160045260246000fd5b14156123955760405162461bcd60e51b815260206004820152605060248201527f504143543a3a70726f706f73653a206f6e65206c6976652070726f706f73616c60448201527f207065722070726f706f7365722c20666f756e6420616e20616c72656164792060648201526f1c195b991a5b99c81c1c9bdc1bdcd85b60821b608482015260a40161096f565b505b60006123a543609754612ff6565b905060006123b582609854612ff6565b6040805161014081018252609a80548083523360208401526000938301849052606083018790526080830185905260a0830184905260c0830184905260e0830184905261010083018490526101208301849052939450909291612417836147a7565b909155505080516000908152609f602090815260408083208451808255838601516001830180546001600160a01b0319166001600160a01b03909216919091179055828601516002830155606086015160038301556080860151600483015560a080870151600584015560c0870151600684015560e0870151600784015561010080880151600890940180546101208a015161ffff1990911695151561ff0019169590951794151590910293909317909255845282529091208b516124de928d019061380a565b508051600090815260a1602090815260409091208a51612500928c019061386f565b508051600090815260a2602090815260409091208951612522928b01906138aa565b508051600090815260a3602090815260409091208851612544928a0190613903565b50806000015160a5600083602001516001600160a01b03166001600160a01b03168152602001908152602001600020819055507f7d84a6263ae0d98d3329bd7b46bb4e8d6f98cd35a7adb45c274c8b7fd5ebd5e08160000151338c8c8c8c89898e6040516125ba999897969594939291906144a6565b60405180910390a1519998505050505050505050565b60046125db826117b6565b60078111156125fa57634e487b7160e01b600052602160045260246000fd5b1461266d5760405162461bcd60e51b815260206004820152603b60248201527f504143543a3a71756575653a2070726f706f73616c2063616e206f6e6c79206260448201527f6520717565756564206966206974206973207375636365656465640000000000606482015260840161096f565b6000818152609f60209081526040808320609c548251630d48571f60e31b815292519194936126c79342936001600160a01b0390931692636a42b8f892600480840193919291829003018186803b1580156118f857600080fd5b905060005b600084815260a0602052604090205481101561290757600084815260a06020526040902080546128f591908390811061271557634e487b7160e01b600052603260045260246000fd5b600091825260208083209091015487835260a1909152604090912080546001600160a01b03909216918490811061275c57634e487b7160e01b600052603260045260246000fd5b906000526020600020015460a26000888152602001908152602001600020848154811061279957634e487b7160e01b600052603260045260246000fd5b9060005260206000200180546127ae90614772565b80601f01602080910402602001604051908101604052809291908181526020018280546127da90614772565b80156128275780601f106127fc57610100808354040283529160200191612827565b820191906000526020600020905b81548152906001019060200180831161280a57829003601f168201915b50505060008a815260a3602052604090208054909250879150811061285c57634e487b7160e01b600052603260045260246000fd5b90600052602060002001805461287190614772565b80601f016020809104026020016040519081016040528092919081815260200182805461289d90614772565b80156128ea5780601f106128bf576101008083540402835291602001916128ea565b820191906000526020600020905b8154815290600101906020018083116128cd57829003601f168201915b505050505086613322565b806128ff816147a7565b9150506126cc565b506002820181905560408051848152602081018390527f9a2e42fd6722813d69113e7d0079d3d940171428df7373df9c7f7617cfda2892910160405180910390a1505050565b60408051606080820183526000808352602080840182905292840181905285815260a483528381206001600160a01b03861682528352839020835191820184525460ff8082161515835261010082041692820192909252620100009091046001600160601b0316918101919091525b92915050565b6033546001600160a01b031633146129ec5760405162461bcd60e51b815260040161096f906143c8565b6001600160a01b038116612a515760405162461bcd60e51b815260206004820152602660248201527f4f776e61626c653a206e6577206f776e657220697320746865207a65726f206160448201526564647265737360d01b606482015260840161096f565b612a5a81613279565b50565b6005612a68826117b6565b6007811115612a8757634e487b7160e01b600052602160045260246000fd5b14612afa5760405162461bcd60e51b815260206004820152603c60248201527f504143543a3a657865637574653a2070726f706f73616c2063616e206f6e6c7960448201527f2062652065786563757465642069662069742069732071756575656400000000606482015260840161096f565b6000818152609f6020526040812060088101805461ff001916610100179055905b600083815260a06020526040902054811015612d0a57609c54600084815260a16020526040902080546001600160a01b0390921691630825f38f919084908110612b7557634e487b7160e01b600052603260045260246000fd5b906000526020600020015460a060008781526020019081526020016000208481548110612bb257634e487b7160e01b600052603260045260246000fd5b600091825260208083209091015488835260a1909152604090912080546001600160a01b039092169186908110612bf957634e487b7160e01b600052603260045260246000fd5b906000526020600020015460a260008981526020019081526020016000208681548110612c3657634e487b7160e01b600052603260045260246000fd5b9060005260206000200160a360008a81526020019081526020016000208781548110612c7257634e487b7160e01b600052603260045260246000fd5b9060005260206000200188600201546040518763ffffffff1660e01b8152600401612ca1959493929190614307565b6000604051808303818588803b158015612cba57600080fd5b505af1158015612cce573d6000803e3d6000fd5b50505050506040513d6000823e601f3d908101601f19168201604052612cf79190810190613e57565b5080612d02816147a7565b915050612b1b565b506040518281527f712ae1383f79ac853f8d882153778e0260ef8f03b504e2866e0593e04d2b291f90602001610a29565b600054610100900460ff16612d625760405162461bcd60e51b815260040161096f9061445b565b612d6a6134ee565b611dbd613515565b600054610100900460ff16612d995760405162461bcd60e51b815260040161096f9061445b565b611dbd613545565b60006001612dae846117b6565b6007811115612dcd57634e487b7160e01b600052602160045260246000fd5b14612e2b5760405162461bcd60e51b815260206004820152602860248201527f504143543a3a63617374566f7465496e7465726e616c3a20766f74696e6720696044820152671cc818db1bdcd95960c21b606482015260840161096f565b60028260ff161115612e915760405162461bcd60e51b815260206004820152602960248201527f504143543a3a63617374566f7465496e7465726e616c3a20696e76616c696420604482015268766f7465207479706560b81b606482015260840161096f565b6000838152609f6020908152604080832060a483528184206001600160a01b0389168552909252909120805460ff1615612f215760405162461bcd60e51b815260206004820152602b60248201527f504143543a3a63617374566f7465496e7465726e616c3a20766f74657220616c60448201526a1c9958591e481d9bdd195960aa1b606482015260840161096f565b6000612f3187846003015461309d565b905060ff8516612f5c57612f528360060154826001600160601b0316612ff6565b6006840155612fb2565b8460ff1660011415612f8957612f7f8360050154826001600160601b0316612ff6565b6005840155612fb2565b8460ff1660021415612fb257612fac8360070154826001600160601b0316612ff6565b60078401555b8154600161ffff1990911661010060ff88160217176dffffffffffffffffffffffff00001916620100006001600160601b03831602179091559150505b9392505050565b60008061300383856146e8565b905083811015612fef5760405162461bcd60e51b81526020600482015260116024820152706164646974696f6e206f766572666c6f7760781b604482015260640161096f565b6000828211156130935760405162461bcd60e51b81526020600482015260156024820152747375627472616374696f6e20756e646572666c6f7760581b604482015260640161096f565b612fef828461472b565b609e546000906001600160a01b031661313b57609d5460405163782d6fe160e01b81526001600160a01b038581166004830152602482018590529091169063782d6fe19060440160206040518083038186803b1580156130fc57600080fd5b505afa158015613110573d6000803e3d6000fd5b505050506040513d601f19601f82011682018060405250810190613134919061406c565b90506129bc565b609d5460405163782d6fe160e01b81526001600160a01b03858116600483015260248201859052612fef92169063782d6fe19060440160206040518083038186803b15801561318957600080fd5b505afa15801561319d573d6000803e3d6000fd5b505050506040513d601f19601f820116820180604052508101906131c1919061406c565b609e5460405163782d6fe160e01b81526001600160a01b038781166004830152602482018790529091169063782d6fe19060440160206040518083038186803b15801561320d57600080fd5b505afa158015613221573d6000803e3d6000fd5b505050506040513d601f19601f82011682018060405250810190613245919061406c565b604051806040016040528060168152602001756765745072696f72566f746573206f766572666c6f7760501b815250613573565b603380546001600160a01b038381166001600160a01b0319831681179093556040519116919082907f8be0079c531659141344cd1fd0a4f28419497f9722a3daafe3b4186f6b6457e090600090a35050565b604080516001600160a01b038416602482015260448082018490528251808303909101815260649091019091526020810180516001600160e01b031663a9059cbb60e01b17905261331d9084906135c0565b505050565b609c546040516001600160a01b039091169063f2b065379061335090889088908890889088906020016142bb565b604051602081830303815290604052805190602001206040518263ffffffff1660e01b815260040161338491815260200190565b60206040518083038186803b15801561339c57600080fd5b505afa1580156133b0573d6000803e3d6000fd5b505050506040513d601f19601f820116820180604052508101906133d49190613e1f565b1561345c5760405162461bcd60e51b815260206004820152604c60248201527f504143543a3a71756575654f72526576657274496e7465726e616c3a2069646560448201527f6e746963616c2070726f706f73616c20616374696f6e20616c7265616479207160648201526b75657565642061742065746160a01b608482015260a40161096f565b609c54604051633a66f90160e01b81526001600160a01b0390911690633a66f9019061349490889088908890889088906004016142bb565b602060405180830381600087803b1580156134ae57600080fd5b505af11580156134c2573d6000803e3d6000fd5b505050506040513d601f19601f820116820180604052508101906134e69190613e3f565b505050505050565b600054610100900460ff16611dbd5760405162461bcd60e51b815260040161096f9061445b565b600054610100900460ff1661353c5760405162461bcd60e51b815260040161096f9061445b565b611dbd33613279565b600054610100900460ff1661356c5760405162461bcd60e51b815260040161096f9061445b565b6001606555565b6000806135808486614700565b9050846001600160601b0316816001600160601b0316101583906135b75760405162461bcd60e51b815260040161096f919061438d565b50949350505050565b6000613615826040518060400160405280602081526020017f5361666545524332303a206c6f772d6c6576656c2063616c6c206661696c6564815250856001600160a01b03166136929092919063ffffffff16565b80519091501561331d57808060200190518101906136339190613e1f565b61331d5760405162461bcd60e51b815260206004820152602a60248201527f5361666545524332303a204552433230206f7065726174696f6e20646964206e6044820152691bdd081cdd58d8d9595960b21b606482015260840161096f565b60606136a184846000856136a9565b949350505050565b60608247101561370a5760405162461bcd60e51b815260206004820152602660248201527f416464726573733a20696e73756666696369656e742062616c616e636520666f6044820152651c8818d85b1b60d21b606482015260840161096f565b843b6137585760405162461bcd60e51b815260206004820152601d60248201527f416464726573733a2063616c6c20746f206e6f6e2d636f6e7472616374000000604482015260640161096f565b600080866001600160a01b03168587604051613774919061429f565b60006040518083038185875af1925050503d80600081146137b1576040519150601f19603f3d011682016040523d82523d6000602084013e6137b6565b606091505b50915091506137c68282866137d1565b979650505050505050565b606083156137e0575081612fef565b8251156137f05782518084602001fd5b8160405162461bcd60e51b815260040161096f919061438d565b82805482825590600052602060002090810192821561385f579160200282015b8281111561385f57825182546001600160a01b0319166001600160a01b0390911617825560209092019160019091019061382a565b5061386b92915061395c565b5090565b82805482825590600052602060002090810192821561385f579160200282015b8281111561385f57825182559160200191906001019061388f565b8280548282559060005260206000209081019282156138f7579160200282015b828111156138f757825180516138e7918491602090910190613971565b50916020019190600101906138ca565b5061386b9291506139e4565b828054828255906000526020600020908101928215613950579160200282015b828111156139505782518051613940918491602090910190613971565b5091602001919060010190613923565b5061386b929150613a01565b5b8082111561386b576000815560010161395d565b82805461397d90614772565b90600052602060002090601f01602090048101928261399f576000855561385f565b82601f106139b857805160ff191683800117855561385f565b8280016001018555821561385f579182018281111561385f57825182559160200191906001019061388f565b8082111561386b5760006139f88282613a1e565b506001016139e4565b8082111561386b576000613a158282613a1e565b50600101613a01565b508054613a2a90614772565b6000825580601f10613a3a575050565b601f016020900490600052602060002090810190612a5a919061395c565b6000613a6b613a66846146c0565b61466b565b9050828152838383011115613a7f57600080fd5b828260208301376000602084830101529392505050565b600082601f830112613aa6578081fd5b81356020613ab6613a668361469c565b80838252828201915082860187848660051b8901011115613ad5578586fd5b855b85811015613afc578135613aea816147ee565b84529284019290840190600101613ad7565b5090979650505050505050565b600082601f830112613b19578081fd5b81356020613b29613a668361469c565b80838252828201915082860187848660051b8901011115613b48578586fd5b855b85811015613afc57813567ffffffffffffffff811115613b68578788fd5b8801603f81018a13613b78578788fd5b613b898a8783013560408401613a58565b8552509284019290840190600101613b4a565b600082601f830112613bac578081fd5b81356020613bbc613a668361469c565b80838252828201915082860187848660051b8901011115613bdb578586fd5b855b85811015613afc57813567ffffffffffffffff811115613bfb578788fd5b613c098a87838c0101613c79565b8552509284019290840190600101613bdd565b600082601f830112613c2c578081fd5b81356020613c3c613a668361469c565b80838252828201915082860187848660051b8901011115613c5b578586fd5b855b85811015613afc57813584529284019290840190600101613c5d565b600082601f830112613c89578081fd5b612fef83833560208501613a58565b803560ff81168114613ca957600080fd5b919050565b600060208284031215613cbf578081fd5b8135612fef816147ee565b600060208284031215613cdb578081fd5b8151612fef816147ee565b600080600080600080600060e0888a031215613d00578283fd5b8735613d0b816147ee565b96506020880135613d1b816147ee565b95506040880135613d2b816147ee565b969995985095966060810135965060808101359560a0820135955060c0909101359350915050565b600080600080600060a08688031215613d6a578283fd5b853567ffffffffffffffff80821115613d81578485fd5b613d8d89838a01613a96565b96506020880135915080821115613da2578485fd5b613dae89838a01613c1c565b95506040880135915080821115613dc3578485fd5b613dcf89838a01613b9c565b94506060880135915080821115613de4578283fd5b613df089838a01613b09565b93506080880135915080821115613e05578283fd5b50613e1288828901613c79565b9150509295509295909350565b600060208284031215613e30578081fd5b81518015158114612fef578182fd5b600060208284031215613e50578081fd5b5051919050565b600060208284031215613e68578081fd5b815167ffffffffffffffff811115613e7e578182fd5b8201601f81018413613e8e578182fd5b8051613e9c613a66826146c0565b818152856020838501011115613eb0578384fd5b613ec1826020830160208601614742565b95945050505050565b600080600060608486031215613ede578081fd5b8335613ee9816147ee565b92506020840135613ef9816147ee565b929592945050506040919091013590565b600060208284031215613f1b578081fd5b5035919050565b60008060408385031215613f34578182fd5b823591506020830135613f46816147ee565b809150509250929050565b60008060408385031215613f63578182fd5b50508035926020909101359150565b60008060408385031215613f84578182fd5b82359150613f9460208401613c98565b90509250929050565b60008060008060608587031215613fb2578182fd5b84359350613fc260208601613c98565b9250604085013567ffffffffffffffff80821115613fde578384fd5b818701915087601f830112613ff1578384fd5b813581811115613fff578485fd5b886020828501011115614010578485fd5b95989497505060200194505050565b600080600080600060a08688031215614036578283fd5b8535945061404660208701613c98565b935061405460408701613c98565b94979396509394606081013594506080013592915050565b60006020828403121561407d578081fd5b81516001600160601b0381168114612fef578182fd5b6000815180845260208085019450808401835b838110156140cb5781516001600160a01b0316875295820195908201906001016140a6565b509495945050505050565b600081518084526020808501808196508360051b81019150828601855b8581101561411d57828403895261410b8483516141d4565b988501989350908401906001016140f3565b5091979650505050505050565b600081548084526020808501808196508360051b81019150858552828520855b8581101561411d5782840389526141618483614200565b9885019893506001918201910161414a565b6000815180845260208085019450808401835b838110156140cb57815187529582019590820190600101614186565b6000815480845260208085019450838352808320835b838110156140cb578154875295820195600191820191016141b8565b600081518084526141ec816020860160208601614742565b601f01601f19169290920160200192915050565b8054600090600181811c908083168061421a57607f831692505b602080841082141561423a57634e487b7160e01b86526022600452602486fd5b838852818015614251576001811461426557614293565b60ff19861689830152604089019650614293565b876000528160002060005b8681101561428b5781548b8201850152908501908301614270565b8a0183019750505b50505050505092915050565b600082516142b1818460208701614742565b9190910192915050565b60018060a01b038616815284602082015260a0604082015260006142e260a08301866141d4565b82810360608401526142f481866141d4565b9150508260808301529695505050505050565b60018060a01b038616815284602082015260a06040820152600061432e60a0830186614200565b82810360608401526142f48186614200565b6080815260006143536080830187614093565b82810360208401526143658187614173565b9050828103604084015261437981866140d6565b905082810360608401526137c681856140d6565b602081526000612fef60208301846141d4565b60208101600883106143c257634e487b7160e01b600052602160045260246000fd5b91905290565b6020808252818101527f4f776e61626c653a2063616c6c6572206973206e6f7420746865206f776e6572604082015260600190565b602080825260409082018190527f504143543a3a696e697469616c697a653a2074696d656c6f636b2061646d696e908201527f206973206e6f742061737369676e656420746f205041435444656c6567617465606082015260800190565b6020808252602b908201527f496e697469616c697a61626c653a20636f6e7472616374206973206e6f74206960408201526a6e697469616c697a696e6760a81b606082015260800190565b8981526001600160a01b0389166020820152610120604082018190526000906144d18382018b614093565b905082810360608401526144e5818a614173565b905082810360808401526144f981896140d6565b905082810360a084015261450d81886140d6565b90508560c08401528460e084015282810361010084015261452e81856141d4565b9c9b505050505050505050505050565b8881526001600160a01b0388811660208084019190915261012060408401819052895490840181905260008a8152918220919261014085019291845b818110156145a95761459b85848654166001600160a01b0316815260200190565b94506001938401930161457a565b5050505082810360608401526145bf81896141a2565b905082810360808401526145d3818861412a565b905082810360a08401526145e7818761412a565b90508460c08401528360e084015282810361010084015261460c816000815260200190565b9b9a5050505050505050505050565b85815260ff851660208201526001600160601b038416604082015260806060820152816080820152818360a0830137600081830160a090810191909152601f909201601f19160101949350505050565b604051601f8201601f1916810167ffffffffffffffff81118282101715614694576146946147d8565b604052919050565b600067ffffffffffffffff8211156146b6576146b66147d8565b5060051b60200190565b600067ffffffffffffffff8211156146da576146da6147d8565b50601f01601f191660200190565b600082198211156146fb576146fb6147c2565b500190565b60006001600160601b03808316818516808303821115614722576147226147c2565b01949350505050565b60008282101561473d5761473d6147c2565b500390565b60005b8381101561475d578181015183820152602001614745565b8381111561476c576000848401525b50505050565b600181811c9082168061478657607f821691505b6020821081141561194d57634e487b7160e01b600052602260045260246000fd5b60006000198214156147bb576147bb6147c2565b5060010190565b634e487b7160e01b600052601160045260246000fd5b634e487b7160e01b600052604160045260246000fd5b6001600160a01b0381168114612a5a57600080fdfea2646970667358221220205195b0405ea6bb172e73f710ca7f93cb2a8f4df7a9dfe7c17840b289784bfa64736f6c63430008040033",
  "linkReferences": {},
  "deployedLinkReferences": {}
}