{
  "contracts/governor/PACTTimelock.sol": {
    "PACTTimelock": {
      "abi": [
        {
          "inputs": [
            {
              "internalType": "address",
              "name": "_admin",
              "type": "address"
            },
            {
              "internalType": "uint256",
              "name": "_delay",
              "type": "uint256"
            }
          ],
          "stateMutability": "nonpayable",
          "type": "constructor"
        },
        {
          "anonymous": false,
          "inputs": [
            {
              "indexed": true,
              "internalType": "bytes32",
              "name": "txHash",
              "type": "bytes32"
            },
            {
              "indexed": true,
              "internalType": "address",
              "name": "target",
              "type": "address"
            },
            {
              "indexed": false,
              "internalType": "uint256",
              "name": "value",
              "type": "uint256"
            },
            {
              "indexed": false,
              "internalType": "string",
              "name": "signature",
              "type": "string"
            },
            {
              "indexed": false,
              "internalType": "bytes",
              "name": "data",
              "type": "bytes"
            },
            {
              "indexed": false,
              "internalType": "uint256",
              "name": "eta",
              "type": "uint256"
            }
          ],
          "name": "CancelTransaction",
          "type": "event"
        },
        {
          "anonymous": false,
          "inputs": [
            {
              "indexed": true,
              "internalType": "bytes32",
              "name": "txHash",
              "type": "bytes32"
            },
            {
              "indexed": true,
              "internalType": "address",
              "name": "target",
              "type": "address"
            },
            {
              "indexed": false,
              "internalType": "uint256",
              "name": "value",
              "type": "uint256"
            },
            {
              "indexed": false,
              "internalType": "string",
              "name": "signature",
              "type": "string"
            },
            {
              "indexed": false,
              "internalType": "bytes",
              "name": "data",
              "type": "bytes"
            },
            {
              "indexed": false,
              "internalType": "uint256",
              "name": "eta",
              "type": "uint256"
            }
          ],
          "name": "ExecuteTransaction",
          "type": "event"
        },
        {
          "anonymous": false,
          "inputs": [
            {
              "indexed": true,
              "internalType": "address",
              "name": "newAdmin",
              "type": "address"
            }
          ],
          "name": "NewAdmin",
          "type": "event"
        },
        {
          "anonymous": false,
          "inputs": [
            {
              "indexed": true,
              "internalType": "uint256",
              "name": "newDelay",
              "type": "uint256"
            }
          ],
          "name": "NewDelay",
          "type": "event"
        },
        {
          "anonymous": false,
          "inputs": [
            {
              "indexed": true,
              "internalType": "address",
              "name": "newPendingAdmin",
              "type": "address"
            }
          ],
          "name": "NewPendingAdmin",
          "type": "event"
        },
        {
          "anonymous": false,
          "inputs": [
            {
              "indexed": true,
              "internalType": "bytes32",
              "name": "txHash",
              "type": "bytes32"
            },
            {
              "indexed": true,
              "internalType": "address",
              "name": "target",
              "type": "address"
            },
            {
              "indexed": false,
              "internalType": "uint256",
              "name": "value",
              "type": "uint256"
            },
            {
              "indexed": false,
              "internalType": "string",
              "name": "signature",
              "type": "string"
            },
            {
              "indexed": false,
              "internalType": "bytes",
              "name": "data",
              "type": "bytes"
            },
            {
              "indexed": false,
              "internalType": "uint256",
              "name": "eta",
              "type": "uint256"
            }
          ],
          "name": "QueueTransaction",
          "type": "event"
        },
        {
          "inputs": [],
          "name": "GRACE_PERIOD",
          "outputs": [
            {
              "internalType": "uint256",
              "name": "",
              "type": "uint256"
            }
          ],
          "stateMutability": "view",
          "type": "function"
        },
        {
          "inputs": [],
          "name": "MAXIMUM_DELAY",
          "outputs": [
            {
              "internalType": "uint256",
              "name": "",
              "type": "uint256"
            }
          ],
          "stateMutability": "view",
          "type": "function"
        },
        {
          "inputs": [],
          "name": "MINIMUM_DELAY",
          "outputs": [
            {
              "internalType": "uint256",
              "name": "",
              "type": "uint256"
            }
          ],
          "stateMutability": "view",
          "type": "function"
        },
        {
          "inputs": [],
          "name": "acceptAdmin",
          "outputs": [],
          "stateMutability": "nonpayable",
          "type": "function"
        },
        {
          "inputs": [],
          "name": "admin",
          "outputs": [
            {
              "internalType": "address",
              "name": "",
              "type": "address"
            }
          ],
          "stateMutability": "view",
          "type": "function"
        },
        {
          "inputs": [
            {
              "internalType": "address",
              "name": "_target",
              "type": "address"
            },
            {
              "internalType": "uint256",
              "name": "_value",
              "type": "uint256"
            },
            {
              "internalType": "string",
              "name": "_signature",
              "type": "string"
            },
            {
              "internalType": "bytes",
              "name": "_data",
              "type": "bytes"
            },
            {
              "internalType": "uint256",
              "name": "_eta",
              "type": "uint256"
            }
          ],
          "name": "cancelTransaction",
          "outputs": [],
          "stateMutability": "nonpayable",
          "type": "function"
        },
        {
          "inputs": [],
          "name": "delay",
          "outputs": [
            {
              "internalType": "uint256",
              "name": "",
              "type": "uint256"
            }
          ],
          "stateMutability": "view",
          "type": "function"
        },
        {
          "inputs": [
            {
              "internalType": "address",
              "name": "_target",
              "type": "address"
            },
            {
              "internalType": "uint256",
              "name": "_value",
              "type": "uint256"
            },
            {
              "internalType": "string",
              "name": "_signature",
              "type": "string"
            },
            {
              "internalType": "bytes",
              "name": "_data",
              "type": "bytes"
            },
            {
              "internalType": "uint256",
              "name": "_eta",
              "type": "uint256"
            }
          ],
          "name": "executeTransaction",
          "outputs": [
            {
              "internalType": "bytes",
              "name": "",
              "type": "bytes"
            }
          ],
          "stateMutability": "payable",
          "type": "function"
        },
        {
          "inputs": [],
          "name": "pendingAdmin",
          "outputs": [
            {
              "internalType": "address",
              "name": "",
              "type": "address"
            }
          ],
          "stateMutability": "view",
          "type": "function"
        },
        {
          "inputs": [
            {
              "internalType": "address",
              "name": "_target",
              "type": "address"
            },
            {
              "internalType": "uint256",
              "name": "_value",
              "type": "uint256"
            },
            {
              "internalType": "string",
              "name": "_signature",
              "type": "string"
            },
            {
              "internalType": "bytes",
              "name": "_data",
              "type": "bytes"
            },
            {
              "internalType": "uint256",
              "name": "_eta",
              "type": "uint256"
            }
          ],
          "name": "queueTransaction",
          "outputs": [
            {
              "internalType": "bytes32",
              "name": "",
              "type": "bytes32"
            }
          ],
          "stateMutability": "nonpayable",
          "type": "function"
        },
        {
          "inputs": [
            {
              "internalType": "bytes32",
              "name": "",
              "type": "bytes32"
            }
          ],
          "name": "queuedTransactions",
          "outputs": [
            {
              "internalType": "bool",
              "name": "",
              "type": "bool"
            }
          ],
          "stateMutability": "view",
          "type": "function"
        },
        {
          "inputs": [
            {
              "internalType": "uint256",
              "name": "_delay",
              "type": "uint256"
            }
          ],
          "name": "setDelay",
          "outputs": [],
          "stateMutability": "nonpayable",
          "type": "function"
        },
        {
          "inputs": [
            {
              "internalType": "address",
              "name": "_pendingAdmin",
              "type": "address"
            }
          ],
          "name": "setPendingAdmin",
          "outputs": [],
          "stateMutability": "nonpayable",
          "type": "function"
        },
        {
          "stateMutability": "payable",
          "type": "receive"
        }
      ],
      "devdoc": {
        "kind": "dev",
        "methods": {},
        "version": 1
      },
      "evm": {
        "bytecode": {
          "linkReferences": {},
          "object": "608060405234801561001057600080fd5b506040516110b73803806110b783398101604081905261002f9161014e565b6170808110156100ac5760405162461bcd60e51b815260206004820152603760248201527f54696d656c6f636b3a3a636f6e7374727563746f723a2044656c6179206d757360448201527f7420657863656564206d696e696d756d2064656c61792e00000000000000000060648201526084015b60405180910390fd5b62278d008111156101255760405162461bcd60e51b815260206004820152603860248201527f54696d656c6f636b3a3a73657444656c61793a2044656c6179206d757374206e60448201527f6f7420657863656564206d6178696d756d2064656c61792e000000000000000060648201526084016100a3565b600080546001600160a01b0319166001600160a01b039390931692909217909155600255610186565b60008060408385031215610160578182fd5b82516001600160a01b0381168114610176578283fd5b6020939093015192949293505050565b610f22806101956000396000f3fe6080604052600436106100c65760003560e01c80636a42b8f81161007f578063c1a287e211610059578063c1a287e2146101fb578063e177246e14610212578063f2b0653714610232578063f851a4401461027257600080fd5b80636a42b8f8146101b85780637d645fab146101ce578063b1b43ae5146101e557600080fd5b80630825f38f146100d25780630e18b681146100fb57806326782247146101125780633a66f9011461014a5780634dd18bf514610178578063591fcdfe1461019857600080fd5b366100cd57005b600080fd5b6100e56100e0366004610c89565b610292565b6040516100f29190610e12565b60405180910390f35b34801561010757600080fd5b50610110610603565b005b34801561011e57600080fd5b50600154610132906001600160a01b031681565b6040516001600160a01b0390911681526020016100f2565b34801561015657600080fd5b5061016a610165366004610c89565b6106cc565b6040519081526020016100f2565b34801561018457600080fd5b50610110610193366004610c68565b610879565b3480156101a457600080fd5b506101106101b3366004610c89565b610938565b3480156101c457600080fd5b5061016a60025481565b3480156101da57600080fd5b5061016a62278d0081565b3480156101f157600080fd5b5061016a61708081565b34801561020757600080fd5b5061016a6212750081565b34801561021e57600080fd5b5061011061022d366004610d35565b610a52565b34801561023e57600080fd5b5061026261024d366004610d35565b60036020526000908152604090205460ff1681565b60405190151581526020016100f2565b34801561027e57600080fd5b50600054610132906001600160a01b031681565b6000546060906001600160a01b0316331461031a5760405162461bcd60e51b815260206004820152603860248201527f54696d656c6f636b3a3a657865637574655472616e73616374696f6e3a20436160448201527f6c6c206d75737420636f6d652066726f6d2061646d696e2e000000000000000060648201526084015b60405180910390fd5b60008686868686604051602001610335959493929190610dc6565b60408051601f1981840301815291815281516020928301206000818152600390935291205490915060ff166103c05760405162461bcd60e51b815260206004820152603d6024820152600080516020610ecd83398151915260448201527f616e73616374696f6e206861736e2774206265656e207175657565642e0000006064820152608401610311565b824210156104325760405162461bcd60e51b81526020600482015260456024820152600080516020610ecd83398151915260448201527f616e73616374696f6e206861736e2774207375727061737365642074696d65206064820152643637b1b59760d91b608482015260a401610311565b61043f6212750084610e62565b4211156104985760405162461bcd60e51b81526020600482015260336024820152600080516020610ecd83398151915260448201527230b739b0b1ba34b7b71034b99039ba30b6329760691b6064820152608401610311565b6000818152600360205260409020805460ff1916905584516060906104be5750836104ea565b8580519060200120856040516020016104d8929190610d79565b60405160208183030381529060405290505b600080896001600160a01b031689846040516105069190610daa565b60006040518083038185875af1925050503d8060008114610543576040519150601f19603f3d011682016040523d82523d6000602084013e610548565b606091505b5091509150816105ae5760405162461bcd60e51b815260206004820152603d6024820152600080516020610ecd83398151915260448201527f616e73616374696f6e20657865637574696f6e2072657665727465642e0000006064820152608401610311565b896001600160a01b0316847fa560e3198060a2f10670c1ec5b403077ea6ae93ca8de1c32b451dc1a943cd6e78b8b8b8b6040516105ee9493929190610e25565b60405180910390a39998505050505050505050565b6001546001600160a01b031633146106835760405162461bcd60e51b815260206004820152603860248201527f54696d656c6f636b3a3a61636365707441646d696e3a2043616c6c206d75737460448201527f20636f6d652066726f6d2070656e64696e6741646d696e2e00000000000000006064820152608401610311565b60008054336001600160a01b0319918216811783556001805490921690915560405190917f71614071b88dee5e0b2ae578a9dd7b2ebbe9ae832ba419dc0242cd065a290b6c91a2565b600080546001600160a01b031633146107465760405162461bcd60e51b815260206004820152603660248201527f54696d656c6f636b3a3a71756575655472616e73616374696f6e3a2043616c6c6044820152751036bab9ba1031b7b6b290333937b69030b236b4b71760511b6064820152608401610311565b6002546107539042610e62565b8210156107da5760405162461bcd60e51b815260206004820152604960248201527f54696d656c6f636b3a3a71756575655472616e73616374696f6e3a204573746960448201527f6d6174656420657865637574696f6e20626c6f636b206d757374207361746973606482015268333c903232b630bc9760b91b608482015260a401610311565b600086868686866040516020016107f5959493929190610dc6565b60408051601f19818403018152828252805160209182012060008181526003909252919020805460ff1916600117905591506001600160a01b0388169082907f76e2796dc3a81d57b0e8504b647febcbeeb5f4af818e164f11eef8131a6a763f90610867908a908a908a908a90610e25565b60405180910390a39695505050505050565b3330146108ee5760405162461bcd60e51b815260206004820152603860248201527f54696d656c6f636b3a3a73657450656e64696e6741646d696e3a2043616c6c2060448201527f6d75737420636f6d652066726f6d2054696d656c6f636b2e00000000000000006064820152608401610311565b600180546001600160a01b0319166001600160a01b0383169081179091556040517f69d78e38a01985fbb1462961809b4b2d65531bc93b2b94037f3334b82ca4a75690600090a250565b6000546001600160a01b031633146109b85760405162461bcd60e51b815260206004820152603760248201527f54696d656c6f636b3a3a63616e63656c5472616e73616374696f6e3a2043616c60448201527f6c206d75737420636f6d652066726f6d2061646d696e2e0000000000000000006064820152608401610311565b600085858585856040516020016109d3959493929190610dc6565b60408051601f19818403018152828252805160209182012060008181526003909252919020805460ff1916905591506001600160a01b0387169082907f2fffc091a501fd91bfbff27141450d3acb40fb8e6d8382b243ec7a812a3aaf8790610a42908990899089908990610e25565b60405180910390a3505050505050565b333014610abb5760405162461bcd60e51b815260206004820152603160248201527f54696d656c6f636b3a3a73657444656c61793a2043616c6c206d75737420636f60448201527036b290333937b6902a34b6b2b637b1b59760791b6064820152608401610311565b617080811015610b2a5760405162461bcd60e51b815260206004820152603460248201527f54696d656c6f636b3a3a73657444656c61793a2044656c6179206d75737420656044820152733c31b2b2b21036b4b734b6bab6903232b630bc9760611b6064820152608401610311565b62278d00811115610ba35760405162461bcd60e51b815260206004820152603860248201527f54696d656c6f636b3a3a73657444656c61793a2044656c6179206d757374206e60448201527f6f7420657863656564206d6178696d756d2064656c61792e00000000000000006064820152608401610311565b600281905560405181907f948b1f6a42ee138b7e34058ba85a37f716d55ff25ff05a763f15bed6a04c8d2c90600090a250565b600067ffffffffffffffff80841115610bf157610bf1610eb6565b604051601f8501601f19908116603f01168101908282118183101715610c1957610c19610eb6565b81604052809350858152868686011115610c3257600080fd5b858560208301376000602087830101525050509392505050565b80356001600160a01b0381168114610c6357600080fd5b919050565b600060208284031215610c79578081fd5b610c8282610c4c565b9392505050565b600080600080600060a08688031215610ca0578081fd5b610ca986610c4c565b945060208601359350604086013567ffffffffffffffff80821115610ccc578283fd5b818801915088601f830112610cdf578283fd5b610cee89833560208501610bd6565b94506060880135915080821115610d03578283fd5b508601601f81018813610d14578182fd5b610d2388823560208401610bd6565b95989497509295608001359392505050565b600060208284031215610d46578081fd5b5035919050565b60008151808452610d65816020860160208601610e86565b601f01601f19169290920160200192915050565b6001600160e01b0319831681528151600090610d9c816004850160208701610e86565b919091016004019392505050565b60008251610dbc818460208701610e86565b9190910192915050565b60018060a01b038616815284602082015260a060408201526000610ded60a0830186610d4d565b8281036060840152610dff8186610d4d565b9150508260808301529695505050505050565b602081526000610c826020830184610d4d565b848152608060208201526000610e3e6080830186610d4d565b8281036040840152610e508186610d4d565b91505082606083015295945050505050565b60008219821115610e8157634e487b7160e01b81526011600452602481fd5b500190565b60005b83811015610ea1578181015183820152602001610e89565b83811115610eb0576000848401525b50505050565b634e487b7160e01b600052604160045260246000fdfe54696d656c6f636b3a3a657865637574655472616e73616374696f6e3a205472a2646970667358221220119db0ec0ba98a1ecd53d39803765949f7b84bcb2d8acbde638335397a87a6f964736f6c63430008040033",
          "opcodes": "PUSH1 0x80 PUSH1 0x40 MSTORE CALLVALUE DUP1 ISZERO PUSH2 0x10 JUMPI PUSH1 0x0 DUP1 REVERT JUMPDEST POP PUSH1 0x40 MLOAD PUSH2 0x10B7 CODESIZE SUB DUP1 PUSH2 0x10B7 DUP4 CODECOPY DUP2 ADD PUSH1 0x40 DUP2 SWAP1 MSTORE PUSH2 0x2F SWAP2 PUSH2 0x14E JUMP JUMPDEST PUSH2 0x7080 DUP2 LT ISZERO PUSH2 0xAC JUMPI PUSH1 0x40 MLOAD PUSH3 0x461BCD PUSH1 0xE5 SHL DUP2 MSTORE PUSH1 0x20 PUSH1 0x4 DUP3 ADD MSTORE PUSH1 0x37 PUSH1 0x24 DUP3 ADD MSTORE PUSH32 0x54696D656C6F636B3A3A636F6E7374727563746F723A2044656C6179206D7573 PUSH1 0x44 DUP3 ADD MSTORE PUSH32 0x7420657863656564206D696E696D756D2064656C61792E000000000000000000 PUSH1 0x64 DUP3 ADD MSTORE PUSH1 0x84 ADD JUMPDEST PUSH1 0x40 MLOAD DUP1 SWAP2 SUB SWAP1 REVERT JUMPDEST PUSH3 0x278D00 DUP2 GT ISZERO PUSH2 0x125 JUMPI PUSH1 0x40 MLOAD PUSH3 0x461BCD PUSH1 0xE5 SHL DUP2 MSTORE PUSH1 0x20 PUSH1 0x4 DUP3 ADD MSTORE PUSH1 0x38 PUSH1 0x24 DUP3 ADD MSTORE PUSH32 0x54696D656C6F636B3A3A73657444656C61793A2044656C6179206D757374206E PUSH1 0x44 DUP3 ADD MSTORE PUSH32 0x6F7420657863656564206D6178696D756D2064656C61792E0000000000000000 PUSH1 0x64 DUP3 ADD MSTORE PUSH1 0x84 ADD PUSH2 0xA3 JUMP JUMPDEST PUSH1 0x0 DUP1 SLOAD PUSH1 0x1 PUSH1 0x1 PUSH1 0xA0 SHL SUB NOT AND PUSH1 0x1 PUSH1 0x1 PUSH1 0xA0 SHL SUB SWAP4 SWAP1 SWAP4 AND SWAP3 SWAP1 SWAP3 OR SWAP1 SWAP2 SSTORE PUSH1 0x2 SSTORE PUSH2 0x186 JUMP JUMPDEST PUSH1 0x0 DUP1 PUSH1 0x40 DUP4 DUP6 SUB SLT ISZERO PUSH2 0x160 JUMPI DUP2 DUP3 REVERT JUMPDEST DUP3 MLOAD PUSH1 0x1 PUSH1 0x1 PUSH1 0xA0 SHL SUB DUP2 AND DUP2 EQ PUSH2 0x176 JUMPI DUP3 DUP4 REVERT JUMPDEST PUSH1 0x20 SWAP4 SWAP1 SWAP4 ADD MLOAD SWAP3 SWAP5 SWAP3 SWAP4 POP POP POP JUMP JUMPDEST PUSH2 0xF22 DUP1 PUSH2 0x195 PUSH1 0x0 CODECOPY PUSH1 0x0 RETURN INVALID PUSH1 0x80 PUSH1 0x40 MSTORE PUSH1 0x4 CALLDATASIZE LT PUSH2 0xC6 JUMPI PUSH1 0x0 CALLDATALOAD PUSH1 0xE0 SHR DUP1 PUSH4 0x6A42B8F8 GT PUSH2 0x7F JUMPI DUP1 PUSH4 0xC1A287E2 GT PUSH2 0x59 JUMPI DUP1 PUSH4 0xC1A287E2 EQ PUSH2 0x1FB JUMPI DUP1 PUSH4 0xE177246E EQ PUSH2 0x212 JUMPI DUP1 PUSH4 0xF2B06537 EQ PUSH2 0x232 JUMPI DUP1 PUSH4 0xF851A440 EQ PUSH2 0x272 JUMPI PUSH1 0x0 DUP1 REVERT JUMPDEST DUP1 PUSH4 0x6A42B8F8 EQ PUSH2 0x1B8 JUMPI DUP1 PUSH4 0x7D645FAB EQ PUSH2 0x1CE JUMPI DUP1 PUSH4 0xB1B43AE5 EQ PUSH2 0x1E5 JUMPI PUSH1 0x0 DUP1 REVERT JUMPDEST DUP1 PUSH4 0x825F38F EQ PUSH2 0xD2 JUMPI DUP1 PUSH4 0xE18B681 EQ PUSH2 0xFB JUMPI DUP1 PUSH4 0x26782247 EQ PUSH2 0x112 JUMPI DUP1 PUSH4 0x3A66F901 EQ PUSH2 0x14A JUMPI DUP1 PUSH4 0x4DD18BF5 EQ PUSH2 0x178 JUMPI DUP1 PUSH4 0x591FCDFE EQ PUSH2 0x198 JUMPI PUSH1 0x0 DUP1 REVERT JUMPDEST CALLDATASIZE PUSH2 0xCD JUMPI STOP JUMPDEST PUSH1 0x0 DUP1 REVERT JUMPDEST PUSH2 0xE5 PUSH2 0xE0 CALLDATASIZE PUSH1 0x4 PUSH2 0xC89 JUMP JUMPDEST PUSH2 0x292 JUMP JUMPDEST PUSH1 0x40 MLOAD PUSH2 0xF2 SWAP2 SWAP1 PUSH2 0xE12 JUMP JUMPDEST PUSH1 0x40 MLOAD DUP1 SWAP2 SUB SWAP1 RETURN JUMPDEST CALLVALUE DUP1 ISZERO PUSH2 0x107 JUMPI PUSH1 0x0 DUP1 REVERT JUMPDEST POP PUSH2 0x110 PUSH2 0x603 JUMP JUMPDEST STOP JUMPDEST CALLVALUE DUP1 ISZERO PUSH2 0x11E JUMPI PUSH1 0x0 DUP1 REVERT JUMPDEST POP PUSH1 0x1 SLOAD PUSH2 0x132 SWAP1 PUSH1 0x1 PUSH1 0x1 PUSH1 0xA0 SHL SUB AND DUP2 JUMP JUMPDEST PUSH1 0x40 MLOAD PUSH1 0x1 PUSH1 0x1 PUSH1 0xA0 SHL SUB SWAP1 SWAP2 AND DUP2 MSTORE PUSH1 0x20 ADD PUSH2 0xF2 JUMP JUMPDEST CALLVALUE DUP1 ISZERO PUSH2 0x156 JUMPI PUSH1 0x0 DUP1 REVERT JUMPDEST POP PUSH2 0x16A PUSH2 0x165 CALLDATASIZE PUSH1 0x4 PUSH2 0xC89 JUMP JUMPDEST PUSH2 0x6CC JUMP JUMPDEST PUSH1 0x40 MLOAD SWAP1 DUP2 MSTORE PUSH1 0x20 ADD PUSH2 0xF2 JUMP JUMPDEST CALLVALUE DUP1 ISZERO PUSH2 0x184 JUMPI PUSH1 0x0 DUP1 REVERT JUMPDEST POP PUSH2 0x110 PUSH2 0x193 CALLDATASIZE PUSH1 0x4 PUSH2 0xC68 JUMP JUMPDEST PUSH2 0x879 JUMP JUMPDEST CALLVALUE DUP1 ISZERO PUSH2 0x1A4 JUMPI PUSH1 0x0 DUP1 REVERT JUMPDEST POP PUSH2 0x110 PUSH2 0x1B3 CALLDATASIZE PUSH1 0x4 PUSH2 0xC89 JUMP JUMPDEST PUSH2 0x938 JUMP JUMPDEST CALLVALUE DUP1 ISZERO PUSH2 0x1C4 JUMPI PUSH1 0x0 DUP1 REVERT JUMPDEST POP PUSH2 0x16A PUSH1 0x2 SLOAD DUP2 JUMP JUMPDEST CALLVALUE DUP1 ISZERO PUSH2 0x1DA JUMPI PUSH1 0x0 DUP1 REVERT JUMPDEST POP PUSH2 0x16A PUSH3 0x278D00 DUP2 JUMP JUMPDEST CALLVALUE DUP1 ISZERO PUSH2 0x1F1 JUMPI PUSH1 0x0 DUP1 REVERT JUMPDEST POP PUSH2 0x16A PUSH2 0x7080 DUP2 JUMP JUMPDEST CALLVALUE DUP1 ISZERO PUSH2 0x207 JUMPI PUSH1 0x0 DUP1 REVERT JUMPDEST POP PUSH2 0x16A PUSH3 0x127500 DUP2 JUMP JUMPDEST CALLVALUE DUP1 ISZERO PUSH2 0x21E JUMPI PUSH1 0x0 DUP1 REVERT JUMPDEST POP PUSH2 0x110 PUSH2 0x22D CALLDATASIZE PUSH1 0x4 PUSH2 0xD35 JUMP JUMPDEST PUSH2 0xA52 JUMP JUMPDEST CALLVALUE DUP1 ISZERO PUSH2 0x23E JUMPI PUSH1 0x0 DUP1 REVERT JUMPDEST POP PUSH2 0x262 PUSH2 0x24D CALLDATASIZE PUSH1 0x4 PUSH2 0xD35 JUMP JUMPDEST PUSH1 0x3 PUSH1 0x20 MSTORE PUSH1 0x0 SWAP1 DUP2 MSTORE PUSH1 0x40 SWAP1 KECCAK256 SLOAD PUSH1 0xFF AND DUP2 JUMP JUMPDEST PUSH1 0x40 MLOAD SWAP1 ISZERO ISZERO DUP2 MSTORE PUSH1 0x20 ADD PUSH2 0xF2 JUMP JUMPDEST CALLVALUE DUP1 ISZERO PUSH2 0x27E JUMPI PUSH1 0x0 DUP1 REVERT JUMPDEST POP PUSH1 0x0 SLOAD PUSH2 0x132 SWAP1 PUSH1 0x1 PUSH1 0x1 PUSH1 0xA0 SHL SUB AND DUP2 JUMP JUMPDEST PUSH1 0x0 SLOAD PUSH1 0x60 SWAP1 PUSH1 0x1 PUSH1 0x1 PUSH1 0xA0 SHL SUB AND CALLER EQ PUSH2 0x31A JUMPI PUSH1 0x40 MLOAD PUSH3 0x461BCD PUSH1 0xE5 SHL DUP2 MSTORE PUSH1 0x20 PUSH1 0x4 DUP3 ADD MSTORE PUSH1 0x38 PUSH1 0x24 DUP3 ADD MSTORE PUSH32 0x54696D656C6F636B3A3A657865637574655472616E73616374696F6E3A204361 PUSH1 0x44 DUP3 ADD MSTORE PUSH32 0x6C6C206D75737420636F6D652066726F6D2061646D696E2E0000000000000000 PUSH1 0x64 DUP3 ADD MSTORE PUSH1 0x84 ADD JUMPDEST PUSH1 0x40 MLOAD DUP1 SWAP2 SUB SWAP1 REVERT JUMPDEST PUSH1 0x0 DUP7 DUP7 DUP7 DUP7 DUP7 PUSH1 0x40 MLOAD PUSH1 0x20 ADD PUSH2 0x335 SWAP6 SWAP5 SWAP4 SWAP3 SWAP2 SWAP1 PUSH2 0xDC6 JUMP JUMPDEST PUSH1 0x40 DUP1 MLOAD PUSH1 0x1F NOT DUP2 DUP5 SUB ADD DUP2 MSTORE SWAP2 DUP2 MSTORE DUP2 MLOAD PUSH1 0x20 SWAP3 DUP4 ADD KECCAK256 PUSH1 0x0 DUP2 DUP2 MSTORE PUSH1 0x3 SWAP1 SWAP4 MSTORE SWAP2 KECCAK256 SLOAD SWAP1 SWAP2 POP PUSH1 0xFF AND PUSH2 0x3C0 JUMPI PUSH1 0x40 MLOAD PUSH3 0x461BCD PUSH1 0xE5 SHL DUP2 MSTORE PUSH1 0x20 PUSH1 0x4 DUP3 ADD MSTORE PUSH1 0x3D PUSH1 0x24 DUP3 ADD MSTORE PUSH1 0x0 DUP1 MLOAD PUSH1 0x20 PUSH2 0xECD DUP4 CODECOPY DUP2 MLOAD SWAP2 MSTORE PUSH1 0x44 DUP3 ADD MSTORE PUSH32 0x616E73616374696F6E206861736E2774206265656E207175657565642E000000 PUSH1 0x64 DUP3 ADD MSTORE PUSH1 0x84 ADD PUSH2 0x311 JUMP JUMPDEST DUP3 TIMESTAMP LT ISZERO PUSH2 0x432 JUMPI PUSH1 0x40 MLOAD PUSH3 0x461BCD PUSH1 0xE5 SHL DUP2 MSTORE PUSH1 0x20 PUSH1 0x4 DUP3 ADD MSTORE PUSH1 0x45 PUSH1 0x24 DUP3 ADD MSTORE PUSH1 0x0 DUP1 MLOAD PUSH1 0x20 PUSH2 0xECD DUP4 CODECOPY DUP2 MLOAD SWAP2 MSTORE PUSH1 0x44 DUP3 ADD MSTORE PUSH32 0x616E73616374696F6E206861736E2774207375727061737365642074696D6520 PUSH1 0x64 DUP3 ADD MSTORE PUSH5 0x3637B1B597 PUSH1 0xD9 SHL PUSH1 0x84 DUP3 ADD MSTORE PUSH1 0xA4 ADD PUSH2 0x311 JUMP JUMPDEST PUSH2 0x43F PUSH3 0x127500 DUP5 PUSH2 0xE62 JUMP JUMPDEST TIMESTAMP GT ISZERO PUSH2 0x498 JUMPI PUSH1 0x40 MLOAD PUSH3 0x461BCD PUSH1 0xE5 SHL DUP2 MSTORE PUSH1 0x20 PUSH1 0x4 DUP3 ADD MSTORE PUSH1 0x33 PUSH1 0x24 DUP3 ADD MSTORE PUSH1 0x0 DUP1 MLOAD PUSH1 0x20 PUSH2 0xECD DUP4 CODECOPY DUP2 MLOAD SWAP2 MSTORE PUSH1 0x44 DUP3 ADD MSTORE PUSH19 0x30B739B0B1BA34B7B71034B99039BA30B63297 PUSH1 0x69 SHL PUSH1 0x64 DUP3 ADD MSTORE PUSH1 0x84 ADD PUSH2 0x311 JUMP JUMPDEST PUSH1 0x0 DUP2 DUP2 MSTORE PUSH1 0x3 PUSH1 0x20 MSTORE PUSH1 0x40 SWAP1 KECCAK256 DUP1 SLOAD PUSH1 0xFF NOT AND SWAP1 SSTORE DUP5 MLOAD PUSH1 0x60 SWAP1 PUSH2 0x4BE JUMPI POP DUP4 PUSH2 0x4EA JUMP JUMPDEST DUP6 DUP1 MLOAD SWAP1 PUSH1 0x20 ADD KECCAK256 DUP6 PUSH1 0x40 MLOAD PUSH1 0x20 ADD PUSH2 0x4D8 SWAP3 SWAP2 SWAP1 PUSH2 0xD79 JUMP JUMPDEST PUSH1 0x40 MLOAD PUSH1 0x20 DUP2 DUP4 SUB SUB DUP2 MSTORE SWAP1 PUSH1 0x40 MSTORE SWAP1 POP JUMPDEST PUSH1 0x0 DUP1 DUP10 PUSH1 0x1 PUSH1 0x1 PUSH1 0xA0 SHL SUB AND DUP10 DUP5 PUSH1 0x40 MLOAD PUSH2 0x506 SWAP2 SWAP1 PUSH2 0xDAA JUMP JUMPDEST PUSH1 0x0 PUSH1 0x40 MLOAD DUP1 DUP4 SUB DUP2 DUP6 DUP8 GAS CALL SWAP3 POP POP POP RETURNDATASIZE DUP1 PUSH1 0x0 DUP2 EQ PUSH2 0x543 JUMPI PUSH1 0x40 MLOAD SWAP2 POP PUSH1 0x1F NOT PUSH1 0x3F RETURNDATASIZE ADD AND DUP3 ADD PUSH1 0x40 MSTORE RETURNDATASIZE DUP3 MSTORE RETURNDATASIZE PUSH1 0x0 PUSH1 0x20 DUP5 ADD RETURNDATACOPY PUSH2 0x548 JUMP JUMPDEST PUSH1 0x60 SWAP2 POP JUMPDEST POP SWAP2 POP SWAP2 POP DUP2 PUSH2 0x5AE JUMPI PUSH1 0x40 MLOAD PUSH3 0x461BCD PUSH1 0xE5 SHL DUP2 MSTORE PUSH1 0x20 PUSH1 0x4 DUP3 ADD MSTORE PUSH1 0x3D PUSH1 0x24 DUP3 ADD MSTORE PUSH1 0x0 DUP1 MLOAD PUSH1 0x20 PUSH2 0xECD DUP4 CODECOPY DUP2 MLOAD SWAP2 MSTORE PUSH1 0x44 DUP3 ADD MSTORE PUSH32 0x616E73616374696F6E20657865637574696F6E2072657665727465642E000000 PUSH1 0x64 DUP3 ADD MSTORE PUSH1 0x84 ADD PUSH2 0x311 JUMP JUMPDEST DUP10 PUSH1 0x1 PUSH1 0x1 PUSH1 0xA0 SHL SUB AND DUP5 PUSH32 0xA560E3198060A2F10670C1EC5B403077EA6AE93CA8DE1C32B451DC1A943CD6E7 DUP12 DUP12 DUP12 DUP12 PUSH1 0x40 MLOAD PUSH2 0x5EE SWAP5 SWAP4 SWAP3 SWAP2 SWAP1 PUSH2 0xE25 JUMP JUMPDEST PUSH1 0x40 MLOAD DUP1 SWAP2 SUB SWAP1 LOG3 SWAP10 SWAP9 POP POP POP POP POP POP POP POP POP JUMP JUMPDEST PUSH1 0x1 SLOAD PUSH1 0x1 PUSH1 0x1 PUSH1 0xA0 SHL SUB AND CALLER EQ PUSH2 0x683 JUMPI PUSH1 0x40 MLOAD PUSH3 0x461BCD PUSH1 0xE5 SHL DUP2 MSTORE PUSH1 0x20 PUSH1 0x4 DUP3 ADD MSTORE PUSH1 0x38 PUSH1 0x24 DUP3 ADD MSTORE PUSH32 0x54696D656C6F636B3A3A61636365707441646D696E3A2043616C6C206D757374 PUSH1 0x44 DUP3 ADD MSTORE PUSH32 0x20636F6D652066726F6D2070656E64696E6741646D696E2E0000000000000000 PUSH1 0x64 DUP3 ADD MSTORE PUSH1 0x84 ADD PUSH2 0x311 JUMP JUMPDEST PUSH1 0x0 DUP1 SLOAD CALLER PUSH1 0x1 PUSH1 0x1 PUSH1 0xA0 SHL SUB NOT SWAP2 DUP3 AND DUP2 OR DUP4 SSTORE PUSH1 0x1 DUP1 SLOAD SWAP1 SWAP3 AND SWAP1 SWAP2 SSTORE PUSH1 0x40 MLOAD SWAP1 SWAP2 PUSH32 0x71614071B88DEE5E0B2AE578A9DD7B2EBBE9AE832BA419DC0242CD065A290B6C SWAP2 LOG2 JUMP JUMPDEST PUSH1 0x0 DUP1 SLOAD PUSH1 0x1 PUSH1 0x1 PUSH1 0xA0 SHL SUB AND CALLER EQ PUSH2 0x746 JUMPI PUSH1 0x40 MLOAD PUSH3 0x461BCD PUSH1 0xE5 SHL DUP2 MSTORE PUSH1 0x20 PUSH1 0x4 DUP3 ADD MSTORE PUSH1 0x36 PUSH1 0x24 DUP3 ADD MSTORE PUSH32 0x54696D656C6F636B3A3A71756575655472616E73616374696F6E3A2043616C6C PUSH1 0x44 DUP3 ADD MSTORE PUSH22 0x1036BAB9BA1031B7B6B290333937B69030B236B4B717 PUSH1 0x51 SHL PUSH1 0x64 DUP3 ADD MSTORE PUSH1 0x84 ADD PUSH2 0x311 JUMP JUMPDEST PUSH1 0x2 SLOAD PUSH2 0x753 SWAP1 TIMESTAMP PUSH2 0xE62 JUMP JUMPDEST DUP3 LT ISZERO PUSH2 0x7DA JUMPI PUSH1 0x40 MLOAD PUSH3 0x461BCD PUSH1 0xE5 SHL DUP2 MSTORE PUSH1 0x20 PUSH1 0x4 DUP3 ADD MSTORE PUSH1 0x49 PUSH1 0x24 DUP3 ADD MSTORE PUSH32 0x54696D656C6F636B3A3A71756575655472616E73616374696F6E3A2045737469 PUSH1 0x44 DUP3 ADD MSTORE PUSH32 0x6D6174656420657865637574696F6E20626C6F636B206D757374207361746973 PUSH1 0x64 DUP3 ADD MSTORE PUSH9 0x333C903232B630BC97 PUSH1 0xB9 SHL PUSH1 0x84 DUP3 ADD MSTORE PUSH1 0xA4 ADD PUSH2 0x311 JUMP JUMPDEST PUSH1 0x0 DUP7 DUP7 DUP7 DUP7 DUP7 PUSH1 0x40 MLOAD PUSH1 0x20 ADD PUSH2 0x7F5 SWAP6 SWAP5 SWAP4 SWAP3 SWAP2 SWAP1 PUSH2 0xDC6 JUMP JUMPDEST PUSH1 0x40 DUP1 MLOAD PUSH1 0x1F NOT DUP2 DUP5 SUB ADD DUP2 MSTORE DUP3 DUP3 MSTORE DUP1 MLOAD PUSH1 0x20 SWAP2 DUP3 ADD KECCAK256 PUSH1 0x0 DUP2 DUP2 MSTORE PUSH1 0x3 SWAP1 SWAP3 MSTORE SWAP2 SWAP1 KECCAK256 DUP1 SLOAD PUSH1 0xFF NOT AND PUSH1 0x1 OR SWAP1 SSTORE SWAP2 POP PUSH1 0x1 PUSH1 0x1 PUSH1 0xA0 SHL SUB DUP9 AND SWAP1 DUP3 SWAP1 PUSH32 0x76E2796DC3A81D57B0E8504B647FEBCBEEB5F4AF818E164F11EEF8131A6A763F SWAP1 PUSH2 0x867 SWAP1 DUP11 SWAP1 DUP11 SWAP1 DUP11 SWAP1 DUP11 SWAP1 PUSH2 0xE25 JUMP JUMPDEST PUSH1 0x40 MLOAD DUP1 SWAP2 SUB SWAP1 LOG3 SWAP7 SWAP6 POP POP POP POP POP POP JUMP JUMPDEST CALLER ADDRESS EQ PUSH2 0x8EE JUMPI PUSH1 0x40 MLOAD PUSH3 0x461BCD PUSH1 0xE5 SHL DUP2 MSTORE PUSH1 0x20 PUSH1 0x4 DUP3 ADD MSTORE PUSH1 0x38 PUSH1 0x24 DUP3 ADD MSTORE PUSH32 0x54696D656C6F636B3A3A73657450656E64696E6741646D696E3A2043616C6C20 PUSH1 0x44 DUP3 ADD MSTORE PUSH32 0x6D75737420636F6D652066726F6D2054696D656C6F636B2E0000000000000000 PUSH1 0x64 DUP3 ADD MSTORE PUSH1 0x84 ADD PUSH2 0x311 JUMP JUMPDEST PUSH1 0x1 DUP1 SLOAD PUSH1 0x1 PUSH1 0x1 PUSH1 0xA0 SHL SUB NOT AND PUSH1 0x1 PUSH1 0x1 PUSH1 0xA0 SHL SUB DUP4 AND SWAP1 DUP2 OR SWAP1 SWAP2 SSTORE PUSH1 0x40 MLOAD PUSH32 0x69D78E38A01985FBB1462961809B4B2D65531BC93B2B94037F3334B82CA4A756 SWAP1 PUSH1 0x0 SWAP1 LOG2 POP JUMP JUMPDEST PUSH1 0x0 SLOAD PUSH1 0x1 PUSH1 0x1 PUSH1 0xA0 SHL SUB AND CALLER EQ PUSH2 0x9B8 JUMPI PUSH1 0x40 MLOAD PUSH3 0x461BCD PUSH1 0xE5 SHL DUP2 MSTORE PUSH1 0x20 PUSH1 0x4 DUP3 ADD MSTORE PUSH1 0x37 PUSH1 0x24 DUP3 ADD MSTORE PUSH32 0x54696D656C6F636B3A3A63616E63656C5472616E73616374696F6E3A2043616C PUSH1 0x44 DUP3 ADD MSTORE PUSH32 0x6C206D75737420636F6D652066726F6D2061646D696E2E000000000000000000 PUSH1 0x64 DUP3 ADD MSTORE PUSH1 0x84 ADD PUSH2 0x311 JUMP JUMPDEST PUSH1 0x0 DUP6 DUP6 DUP6 DUP6 DUP6 PUSH1 0x40 MLOAD PUSH1 0x20 ADD PUSH2 0x9D3 SWAP6 SWAP5 SWAP4 SWAP3 SWAP2 SWAP1 PUSH2 0xDC6 JUMP JUMPDEST PUSH1 0x40 DUP1 MLOAD PUSH1 0x1F NOT DUP2 DUP5 SUB ADD DUP2 MSTORE DUP3 DUP3 MSTORE DUP1 MLOAD PUSH1 0x20 SWAP2 DUP3 ADD KECCAK256 PUSH1 0x0 DUP2 DUP2 MSTORE PUSH1 0x3 SWAP1 SWAP3 MSTORE SWAP2 SWAP1 KECCAK256 DUP1 SLOAD PUSH1 0xFF NOT AND SWAP1 SSTORE SWAP2 POP PUSH1 0x1 PUSH1 0x1 PUSH1 0xA0 SHL SUB DUP8 AND SWAP1 DUP3 SWAP1 PUSH32 0x2FFFC091A501FD91BFBFF27141450D3ACB40FB8E6D8382B243EC7A812A3AAF87 SWAP1 PUSH2 0xA42 SWAP1 DUP10 SWAP1 DUP10 SWAP1 DUP10 SWAP1 DUP10 SWAP1 PUSH2 0xE25 JUMP JUMPDEST PUSH1 0x40 MLOAD DUP1 SWAP2 SUB SWAP1 LOG3 POP POP POP POP POP POP JUMP JUMPDEST CALLER ADDRESS EQ PUSH2 0xABB JUMPI PUSH1 0x40 MLOAD PUSH3 0x461BCD PUSH1 0xE5 SHL DUP2 MSTORE PUSH1 0x20 PUSH1 0x4 DUP3 ADD MSTORE PUSH1 0x31 PUSH1 0x24 DUP3 ADD MSTORE PUSH32 0x54696D656C6F636B3A3A73657444656C61793A2043616C6C206D75737420636F PUSH1 0x44 DUP3 ADD MSTORE PUSH17 0x36B290333937B6902A34B6B2B637B1B597 PUSH1 0x79 SHL PUSH1 0x64 DUP3 ADD MSTORE PUSH1 0x84 ADD PUSH2 0x311 JUMP JUMPDEST PUSH2 0x7080 DUP2 LT ISZERO PUSH2 0xB2A JUMPI PUSH1 0x40 MLOAD PUSH3 0x461BCD PUSH1 0xE5 SHL DUP2 MSTORE PUSH1 0x20 PUSH1 0x4 DUP3 ADD MSTORE PUSH1 0x34 PUSH1 0x24 DUP3 ADD MSTORE PUSH32 0x54696D656C6F636B3A3A73657444656C61793A2044656C6179206D7573742065 PUSH1 0x44 DUP3 ADD MSTORE PUSH20 0x3C31B2B2B21036B4B734B6BAB6903232B630BC97 PUSH1 0x61 SHL PUSH1 0x64 DUP3 ADD MSTORE PUSH1 0x84 ADD PUSH2 0x311 JUMP JUMPDEST PUSH3 0x278D00 DUP2 GT ISZERO PUSH2 0xBA3 JUMPI PUSH1 0x40 MLOAD PUSH3 0x461BCD PUSH1 0xE5 SHL DUP2 MSTORE PUSH1 0x20 PUSH1 0x4 DUP3 ADD MSTORE PUSH1 0x38 PUSH1 0x24 DUP3 ADD MSTORE PUSH32 0x54696D656C6F636B3A3A73657444656C61793A2044656C6179206D757374206E PUSH1 0x44 DUP3 ADD MSTORE PUSH32 0x6F7420657863656564206D6178696D756D2064656C61792E0000000000000000 PUSH1 0x64 DUP3 ADD MSTORE PUSH1 0x84 ADD PUSH2 0x311 JUMP JUMPDEST PUSH1 0x2 DUP2 SWAP1 SSTORE PUSH1 0x40 MLOAD DUP2 SWAP1 PUSH32 0x948B1F6A42EE138B7E34058BA85A37F716D55FF25FF05A763F15BED6A04C8D2C SWAP1 PUSH1 0x0 SWAP1 LOG2 POP JUMP JUMPDEST PUSH1 0x0 PUSH8 0xFFFFFFFFFFFFFFFF DUP1 DUP5 GT ISZERO PUSH2 0xBF1 JUMPI PUSH2 0xBF1 PUSH2 0xEB6 JUMP JUMPDEST PUSH1 0x40 MLOAD PUSH1 0x1F DUP6 ADD PUSH1 0x1F NOT SWAP1 DUP2 AND PUSH1 0x3F ADD AND DUP2 ADD SWAP1 DUP3 DUP3 GT DUP2 DUP4 LT OR ISZERO PUSH2 0xC19 JUMPI PUSH2 0xC19 PUSH2 0xEB6 JUMP JUMPDEST DUP2 PUSH1 0x40 MSTORE DUP1 SWAP4 POP DUP6 DUP2 MSTORE DUP7 DUP7 DUP7 ADD GT ISZERO PUSH2 0xC32 JUMPI PUSH1 0x0 DUP1 REVERT JUMPDEST DUP6 DUP6 PUSH1 0x20 DUP4 ADD CALLDATACOPY PUSH1 0x0 PUSH1 0x20 DUP8 DUP4 ADD ADD MSTORE POP POP POP SWAP4 SWAP3 POP POP POP JUMP JUMPDEST DUP1 CALLDATALOAD PUSH1 0x1 PUSH1 0x1 PUSH1 0xA0 SHL SUB DUP2 AND DUP2 EQ PUSH2 0xC63 JUMPI PUSH1 0x0 DUP1 REVERT JUMPDEST SWAP2 SWAP1 POP JUMP JUMPDEST PUSH1 0x0 PUSH1 0x20 DUP3 DUP5 SUB SLT ISZERO PUSH2 0xC79 JUMPI DUP1 DUP2 REVERT JUMPDEST PUSH2 0xC82 DUP3 PUSH2 0xC4C JUMP JUMPDEST SWAP4 SWAP3 POP POP POP JUMP JUMPDEST PUSH1 0x0 DUP1 PUSH1 0x0 DUP1 PUSH1 0x0 PUSH1 0xA0 DUP7 DUP9 SUB SLT ISZERO PUSH2 0xCA0 JUMPI DUP1 DUP2 REVERT JUMPDEST PUSH2 0xCA9 DUP7 PUSH2 0xC4C JUMP JUMPDEST SWAP5 POP PUSH1 0x20 DUP7 ADD CALLDATALOAD SWAP4 POP PUSH1 0x40 DUP7 ADD CALLDATALOAD PUSH8 0xFFFFFFFFFFFFFFFF DUP1 DUP3 GT ISZERO PUSH2 0xCCC JUMPI DUP3 DUP4 REVERT JUMPDEST DUP2 DUP9 ADD SWAP2 POP DUP9 PUSH1 0x1F DUP4 ADD SLT PUSH2 0xCDF JUMPI DUP3 DUP4 REVERT JUMPDEST PUSH2 0xCEE DUP10 DUP4 CALLDATALOAD PUSH1 0x20 DUP6 ADD PUSH2 0xBD6 JUMP JUMPDEST SWAP5 POP PUSH1 0x60 DUP9 ADD CALLDATALOAD SWAP2 POP DUP1 DUP3 GT ISZERO PUSH2 0xD03 JUMPI DUP3 DUP4 REVERT JUMPDEST POP DUP7 ADD PUSH1 0x1F DUP2 ADD DUP9 SGT PUSH2 0xD14 JUMPI DUP2 DUP3 REVERT JUMPDEST PUSH2 0xD23 DUP9 DUP3 CALLDATALOAD PUSH1 0x20 DUP5 ADD PUSH2 0xBD6 JUMP JUMPDEST SWAP6 SWAP9 SWAP5 SWAP8 POP SWAP3 SWAP6 PUSH1 0x80 ADD CALLDATALOAD SWAP4 SWAP3 POP POP POP JUMP JUMPDEST PUSH1 0x0 PUSH1 0x20 DUP3 DUP5 SUB SLT ISZERO PUSH2 0xD46 JUMPI DUP1 DUP2 REVERT JUMPDEST POP CALLDATALOAD SWAP2 SWAP1 POP JUMP JUMPDEST PUSH1 0x0 DUP2 MLOAD DUP1 DUP5 MSTORE PUSH2 0xD65 DUP2 PUSH1 0x20 DUP7 ADD PUSH1 0x20 DUP7 ADD PUSH2 0xE86 JUMP JUMPDEST PUSH1 0x1F ADD PUSH1 0x1F NOT AND SWAP3 SWAP1 SWAP3 ADD PUSH1 0x20 ADD SWAP3 SWAP2 POP POP JUMP JUMPDEST PUSH1 0x1 PUSH1 0x1 PUSH1 0xE0 SHL SUB NOT DUP4 AND DUP2 MSTORE DUP2 MLOAD PUSH1 0x0 SWAP1 PUSH2 0xD9C DUP2 PUSH1 0x4 DUP6 ADD PUSH1 0x20 DUP8 ADD PUSH2 0xE86 JUMP JUMPDEST SWAP2 SWAP1 SWAP2 ADD PUSH1 0x4 ADD SWAP4 SWAP3 POP POP POP JUMP JUMPDEST PUSH1 0x0 DUP3 MLOAD PUSH2 0xDBC DUP2 DUP5 PUSH1 0x20 DUP8 ADD PUSH2 0xE86 JUMP JUMPDEST SWAP2 SWAP1 SWAP2 ADD SWAP3 SWAP2 POP POP JUMP JUMPDEST PUSH1 0x1 DUP1 PUSH1 0xA0 SHL SUB DUP7 AND DUP2 MSTORE DUP5 PUSH1 0x20 DUP3 ADD MSTORE PUSH1 0xA0 PUSH1 0x40 DUP3 ADD MSTORE PUSH1 0x0 PUSH2 0xDED PUSH1 0xA0 DUP4 ADD DUP7 PUSH2 0xD4D JUMP JUMPDEST DUP3 DUP2 SUB PUSH1 0x60 DUP5 ADD MSTORE PUSH2 0xDFF DUP2 DUP7 PUSH2 0xD4D JUMP JUMPDEST SWAP2 POP POP DUP3 PUSH1 0x80 DUP4 ADD MSTORE SWAP7 SWAP6 POP POP POP POP POP POP JUMP JUMPDEST PUSH1 0x20 DUP2 MSTORE PUSH1 0x0 PUSH2 0xC82 PUSH1 0x20 DUP4 ADD DUP5 PUSH2 0xD4D JUMP JUMPDEST DUP5 DUP2 MSTORE PUSH1 0x80 PUSH1 0x20 DUP3 ADD MSTORE PUSH1 0x0 PUSH2 0xE3E PUSH1 0x80 DUP4 ADD DUP7 PUSH2 0xD4D JUMP JUMPDEST DUP3 DUP2 SUB PUSH1 0x40 DUP5 ADD MSTORE PUSH2 0xE50 DUP2 DUP7 PUSH2 0xD4D JUMP JUMPDEST SWAP2 POP POP DUP3 PUSH1 0x60 DUP4 ADD MSTORE SWAP6 SWAP5 POP POP POP POP POP JUMP JUMPDEST PUSH1 0x0 DUP3 NOT DUP3 GT ISZERO PUSH2 0xE81 JUMPI PUSH4 0x4E487B71 PUSH1 0xE0 SHL DUP2 MSTORE PUSH1 0x11 PUSH1 0x4 MSTORE PUSH1 0x24 DUP2 REVERT JUMPDEST POP ADD SWAP1 JUMP JUMPDEST PUSH1 0x0 JUMPDEST DUP4 DUP2 LT ISZERO PUSH2 0xEA1 JUMPI DUP2 DUP2 ADD MLOAD DUP4 DUP3 ADD MSTORE PUSH1 0x20 ADD PUSH2 0xE89 JUMP JUMPDEST DUP4 DUP2 GT ISZERO PUSH2 0xEB0 JUMPI PUSH1 0x0 DUP5 DUP5 ADD MSTORE JUMPDEST POP POP POP POP JUMP JUMPDEST PUSH4 0x4E487B71 PUSH1 0xE0 SHL PUSH1 0x0 MSTORE PUSH1 0x41 PUSH1 0x4 MSTORE PUSH1 0x24 PUSH1 0x0 REVERT INVALID SLOAD PUSH10 0x6D656C6F636B3A3A6578 PUSH6 0x637574655472 PUSH2 0x6E73 PUSH2 0x6374 PUSH10 0x6F6E3A205472A2646970 PUSH7 0x7358221220119D 0xB0 0xEC SIGNEXTEND 0xA9 DUP11 0x1E 0xCD MSTORE8 0xD3 SWAP9 SUB PUSH23 0x5949F7B84BCB2D8ACBDE638335397A87A6F964736F6C63 NUMBER STOP ADDMOD DIV STOP CALLER "
        },
        "gasEstimates": {
          "creation": {
            "codeDepositCost": "774800",
            "executionCost": "infinite",
            "totalCost": "infinite"
          },
          "external": {
            "GRACE_PERIOD()": "217",
            "MAXIMUM_DELAY()": "240",
            "MINIMUM_DELAY()": "262",
            "acceptAdmin()": "43815",
            "admin()": "1125",
            "cancelTransaction(address,uint256,string,bytes,uint256)": "infinite",
            "delay()": "1018",
            "executeTransaction(address,uint256,string,bytes,uint256)": "infinite",
            "pendingAdmin()": "1082",
            "queueTransaction(address,uint256,string,bytes,uint256)": "infinite",
            "queuedTransactions(bytes32)": "1216",
            "setDelay(uint256)": "21498",
            "setPendingAdmin(address)": "22420"
          },
          "internal": {
            "getBlockTimestamp()": "infinite"
          }
        },
        "methodIdentifiers": {
          "GRACE_PERIOD()": "c1a287e2",
          "MAXIMUM_DELAY()": "7d645fab",
          "MINIMUM_DELAY()": "b1b43ae5",
          "acceptAdmin()": "0e18b681",
          "admin()": "f851a440",
          "cancelTransaction(address,uint256,string,bytes,uint256)": "591fcdfe",
          "delay()": "6a42b8f8",
          "executeTransaction(address,uint256,string,bytes,uint256)": "0825f38f",
          "pendingAdmin()": "26782247",
          "queueTransaction(address,uint256,string,bytes,uint256)": "3a66f901",
          "queuedTransactions(bytes32)": "f2b06537",
          "setDelay(uint256)": "e177246e",
          "setPendingAdmin(address)": "4dd18bf5"
        }
      },
      "storageLayout": {
        "storage": [
          {
            "astId": 66,
            "contract": "contracts/governor/PACTTimelock.sol:PACTTimelock",
            "label": "admin",
            "offset": 0,
            "slot": "0",
            "type": "t_address"
          },
          {
            "astId": 68,
            "contract": "contracts/governor/PACTTimelock.sol:PACTTimelock",
            "label": "pendingAdmin",
            "offset": 0,
            "slot": "1",
            "type": "t_address"
          },
          {
            "astId": 70,
            "contract": "contracts/governor/PACTTimelock.sol:PACTTimelock",
            "label": "delay",
            "offset": 0,
            "slot": "2",
            "type": "t_uint256"
          },
          {
            "astId": 74,
            "contract": "contracts/governor/PACTTimelock.sol:PACTTimelock",
            "label": "queuedTransactions",
            "offset": 0,
            "slot": "3",
            "type": "t_mapping(t_bytes32,t_bool)"
          }
        ],
        "types": {
          "t_address": {
            "encoding": "inplace",
            "label": "address",
            "numberOfBytes": "20"
          },
          "t_bool": {
            "encoding": "inplace",
            "label": "bool",
            "numberOfBytes": "1"
          },
          "t_bytes32": {
            "encoding": "inplace",
            "label": "bytes32",
            "numberOfBytes": "32"
          },
          "t_mapping(t_bytes32,t_bool)": {
            "encoding": "mapping",
            "key": "t_bytes32",
            "label": "mapping(bytes32 => bool)",
            "numberOfBytes": "32",
            "value": "t_bool"
          },
          "t_uint256": {
            "encoding": "inplace",
            "label": "uint256",
            "numberOfBytes": "32"
          }
        }
      },
      "userdoc": {
        "kind": "user",
        "methods": {},
        "version": 1
      }
    }
  }
}