{
  "_format": "hh-sol-artifact-1",
  "contractName": "VotingPower",
  "sourceName": "@ubeswap/governance/contracts/voting/VotingPower.sol",
  "abi": [
    {
      "inputs": [
        {
          "internalType": "string",
          "name": "name_",
          "type": "string"
        }
      ],
      "stateMutability": "nonpayable",
      "type": "constructor"
    },
    {
      "anonymous": false,
      "inputs": [
        {
          "indexed": true,
          "internalType": "address",
          "name": "delegator",
          "type": "address"
        },
        {
          "indexed": true,
          "internalType": "address",
          "name": "fromDelegate",
          "type": "address"
        },
        {
          "indexed": true,
          "internalType": "address",
          "name": "toDelegate",
          "type": "address"
        }
      ],
      "name": "DelegateChanged",
      "type": "event"
    },
    {
      "anonymous": false,
      "inputs": [
        {
          "indexed": true,
          "internalType": "address",
          "name": "delegate",
          "type": "address"
        },
        {
          "indexed": false,
          "internalType": "uint256",
          "name": "previousBalance",
          "type": "uint256"
        },
        {
          "indexed": false,
          "internalType": "uint256",
          "name": "newBalance",
          "type": "uint256"
        }
      ],
      "name": "DelegateVotesChanged",
      "type": "event"
    },
    {
      "anonymous": false,
      "inputs": [
        {
          "indexed": true,
          "internalType": "address",
          "name": "from",
          "type": "address"
        },
        {
          "indexed": true,
          "internalType": "address",
          "name": "to",
          "type": "address"
        },
        {
          "indexed": false,
          "internalType": "uint256",
          "name": "amount",
          "type": "uint256"
        }
      ],
      "name": "Transfer",
      "type": "event"
    },
    {
      "inputs": [],
      "name": "DELEGATION_TYPEHASH",
      "outputs": [
        {
          "internalType": "bytes32",
          "name": "",
          "type": "bytes32"
        }
      ],
      "stateMutability": "view",
      "type": "function"
    },
    {
      "inputs": [],
      "name": "DOMAIN_TYPEHASH",
      "outputs": [
        {
          "internalType": "bytes32",
          "name": "",
          "type": "bytes32"
        }
      ],
      "stateMutability": "view",
      "type": "function"
    },
    {
      "inputs": [
        {
          "internalType": "address",
          "name": "",
          "type": "address"
        },
        {
          "internalType": "uint32",
          "name": "",
          "type": "uint32"
        }
      ],
      "name": "checkpoints",
      "outputs": [
        {
          "internalType": "uint32",
          "name": "fromBlock",
          "type": "uint32"
        },
        {
          "internalType": "uint96",
          "name": "votes",
          "type": "uint96"
        }
      ],
      "stateMutability": "view",
      "type": "function"
    },
    {
      "inputs": [
        {
          "internalType": "address",
          "name": "delegatee",
          "type": "address"
        }
      ],
      "name": "delegate",
      "outputs": [],
      "stateMutability": "nonpayable",
      "type": "function"
    },
    {
      "inputs": [
        {
          "internalType": "address",
          "name": "delegatee",
          "type": "address"
        },
        {
          "internalType": "uint256",
          "name": "nonce",
          "type": "uint256"
        },
        {
          "internalType": "uint256",
          "name": "expiry",
          "type": "uint256"
        },
        {
          "internalType": "uint8",
          "name": "v",
          "type": "uint8"
        },
        {
          "internalType": "bytes32",
          "name": "r",
          "type": "bytes32"
        },
        {
          "internalType": "bytes32",
          "name": "s",
          "type": "bytes32"
        }
      ],
      "name": "delegateBySig",
      "outputs": [],
      "stateMutability": "nonpayable",
      "type": "function"
    },
    {
      "inputs": [
        {
          "internalType": "address",
          "name": "",
          "type": "address"
        }
      ],
      "name": "delegates",
      "outputs": [
        {
          "internalType": "address",
          "name": "",
          "type": "address"
        }
      ],
      "stateMutability": "view",
      "type": "function"
    },
    {
      "inputs": [
        {
          "internalType": "address",
          "name": "account",
          "type": "address"
        }
      ],
      "name": "getCurrentVotes",
      "outputs": [
        {
          "internalType": "uint96",
          "name": "",
          "type": "uint96"
        }
      ],
      "stateMutability": "view",
      "type": "function"
    },
    {
      "inputs": [
        {
          "internalType": "address",
          "name": "account",
          "type": "address"
        },
        {
          "internalType": "uint256",
          "name": "blockNumber",
          "type": "uint256"
        }
      ],
      "name": "getPriorVotes",
      "outputs": [
        {
          "internalType": "uint96",
          "name": "",
          "type": "uint96"
        }
      ],
      "stateMutability": "view",
      "type": "function"
    },
    {
      "inputs": [],
      "name": "name",
      "outputs": [
        {
          "internalType": "string",
          "name": "",
          "type": "string"
        }
      ],
      "stateMutability": "view",
      "type": "function"
    },
    {
      "inputs": [
        {
          "internalType": "address",
          "name": "",
          "type": "address"
        }
      ],
      "name": "nonces",
      "outputs": [
        {
          "internalType": "uint256",
          "name": "",
          "type": "uint256"
        }
      ],
      "stateMutability": "view",
      "type": "function"
    },
    {
      "inputs": [
        {
          "internalType": "address",
          "name": "",
          "type": "address"
        }
      ],
      "name": "numCheckpoints",
      "outputs": [
        {
          "internalType": "uint32",
          "name": "",
          "type": "uint32"
        }
      ],
      "stateMutability": "view",
      "type": "function"
    },
    {
      "inputs": [],
      "name": "totalVotingPower",
      "outputs": [
        {
          "internalType": "uint96",
          "name": "",
          "type": "uint96"
        }
      ],
      "stateMutability": "view",
      "type": "function"
    },
    {
      "inputs": [
        {
          "internalType": "address",
          "name": "account",
          "type": "address"
        }
      ],
      "name": "votingPower",
      "outputs": [
        {
          "internalType": "uint96",
          "name": "",
          "type": "uint96"
        }
      ],
      "stateMutability": "view",
      "type": "function"
    }
  ],
  "bytecode": "0x60806040523480156200001157600080fd5b5060405162001464380380620014648339810160408190526200003491620000f7565b80516200004990600090602084019062000051565b505062000220565b8280546200005f90620001cd565b90600052602060002090601f016020900481019282620000835760008555620000ce565b82601f106200009e57805160ff1916838001178555620000ce565b82800160010185558215620000ce579182015b82811115620000ce578251825591602001919060010190620000b1565b50620000dc929150620000e0565b5090565b5b80821115620000dc5760008155600101620000e1565b600060208083850312156200010a578182fd5b82516001600160401b038082111562000121578384fd5b818501915085601f83011262000135578384fd5b8151818111156200014a576200014a6200020a565b604051601f8201601f19908116603f011681019083821181831017156200017557620001756200020a565b8160405282815288868487010111156200018d578687fd5b8693505b82841015620001b0578484018601518185018701529285019262000191565b82841115620001c157868684830101525b98975050505050505050565b600181811c90821680620001e257607f821691505b602082108114156200020457634e487b7160e01b600052602260045260246000fd5b50919050565b634e487b7160e01b600052604160045260246000fd5b61123480620002306000396000f3fe608060405234801561001057600080fd5b50600436106100cf5760003560e01c8063782d6fe11161008c578063c07473f611610066578063c07473f614610223578063c3cda52014610255578063e7a324dc14610268578063f1127ed81461028f57600080fd5b8063782d6fe1146101dd5780637ecebe00146101f0578063b4b5ea571461021057600080fd5b806306fdde03146100d457806320606b70146100f2578063587cde1e146101275780635c19a95c14610168578063671b37931461017d5780636fcfff45146101a2575b600080fd5b6100dc6102f6565b6040516100e99190611001565b60405180910390f35b6101197f8cad95687ba82c2ce50e74f7b754645e5117c3a5bec8151c0726d5857980a86681565b6040519081526020016100e9565b610150610135366004610e87565b6003602052600090815260409020546001600160a01b031681565b6040516001600160a01b0390911681526020016100e9565b61017b610176366004610e87565b610388565b005b6001546001600160601b03165b6040516001600160601b0390911681526020016100e9565b6101c86101b0366004610e87565b60056020526000908152604090205463ffffffff1681565b60405163ffffffff90911681526020016100e9565b61018a6101eb366004610ea1565b610395565b6101196101fe366004610e87565b60066020526000908152604090205481565b61018a61021e366004610e87565b610621565b61018a610231366004610e87565b6001600160a01b03166000908152600260205260409020546001600160601b031690565b61017b610263366004610eca565b61069f565b6101197fe48329057bfd03d55e49b547132e39cffd9c1820ad7b9d4c5307691425d15adf81565b6102d261029d366004610f28565b600460209081526000928352604080842090915290825290205463ffffffff811690600160201b90046001600160601b031682565b6040805163ffffffff90931683526001600160601b039091166020830152016100e9565b60606000805461030590611112565b80601f016020809104026020016040519081016040528092919081815260200182805461033190611112565b801561037e5780601f106103535761010080835404028352916020019161037e565b820191906000526020600020905b81548152906001019060200180831161036157829003601f168201915b5050505050905090565b6103923382610972565b50565b60004382106103fa5760405162461bcd60e51b815260206004820152602660248201527f556e693a3a6765745072696f72566f7465733a206e6f742079657420646574656044820152651c9b5a5b995960d21b60648201526084015b60405180910390fd5b6001600160a01b03831660009081526005602052604090205463ffffffff168061042857600091505061061b565b6001600160a01b0384166000908152600460205260408120849161044d6001856110cd565b63ffffffff908116825260208201929092526040016000205416116104c0576001600160a01b0384166000908152600460205260408120906104906001846110cd565b63ffffffff168152602081019190915260400160002054600160201b90046001600160601b0316915061061b9050565b6001600160a01b038416600090815260046020908152604080832083805290915290205463ffffffff168310156104fb57600091505061061b565b6000806105096001846110cd565b90505b8163ffffffff168163ffffffff1611156105db576000600261052e84846110cd565b610538919061109e565b61054290836110cd565b6001600160a01b038816600090815260046020908152604080832063ffffffff858116855290835292819020815180830190925254928316808252600160201b9093046001600160601b0316918101919091529192508714156105af5760200151945061061b9350505050565b805163ffffffff168711156105c6578193506105d4565b6105d16001836110cd565b92505b505061050c565b506001600160a01b038516600090815260046020908152604080832063ffffffff909416835292905220546001600160601b03600160201b909104169150505b92915050565b6001600160a01b03811660009081526005602052604081205463ffffffff168061064c576000610698565b6001600160a01b0383166000908152600460205260408120906106706001846110cd565b63ffffffff168152602081019190915260400160002054600160201b90046001600160601b03165b9392505050565b60007f8cad95687ba82c2ce50e74f7b754645e5117c3a5bec8151c0726d5857980a86660006040516106d19190610f66565b60405180910390206106e04690565b60408051602080820195909552808201939093526060830191909152306080808401919091528151808403909101815260a0830182528051908401207fe48329057bfd03d55e49b547132e39cffd9c1820ad7b9d4c5307691425d15adf60c08401526001600160a01b038b1660e084015261010083018a90526101208084018a90528251808503909101815261014084019092528151919093012061190160f01b610160830152610162820183905261018282018190529192506000906101a20160408051601f198184030181528282528051602091820120600080855291840180845281905260ff8a169284019290925260608301889052608083018790529092509060019060a0016020604051602081039080840390855afa15801561080c573d6000803e3d6000fd5b5050604051601f1901519150506001600160a01b03811661087d5760405162461bcd60e51b815260206004820152602560248201527f556e693a3a64656c656761746542795369673a20696e76616c6964207369676e604482015264617475726560d81b60648201526084016103f1565b6001600160a01b03811660009081526006602052604081208054916108a18361114d565b9190505589146108fd5760405162461bcd60e51b815260206004820152602160248201527f556e693a3a64656c656761746542795369673a20696e76616c6964206e6f6e636044820152606560f81b60648201526084016103f1565b8742111561095b5760405162461bcd60e51b815260206004820152602560248201527f556e693a3a64656c656761746542795369673a207369676e61747572652065786044820152641c1a5c995960da1b60648201526084016103f1565b610965818b610972565b505050505b505050505050565b6001600160a01b03808316600081815260036020818152604080842080546002845282862054949093528787166001600160a01b031984168117909155905191909516946001600160601b039092169391928592917f3134e8a2e6d97e929a7e54011ea5485d7d196dd5f0ba4d4ef95803e8e3fc257f9190a46109f68284836109fc565b50505050565b816001600160a01b0316836001600160a01b031614158015610a2757506000816001600160601b0316115b15610ba8576001600160a01b03831615610aec576001600160a01b03831660009081526005602052604081205463ffffffff169081610a67576000610ab3565b6001600160a01b038516600090815260046020526040812090610a8b6001856110cd565b63ffffffff168152602081019190915260400160002054600160201b90046001600160601b03165b90506000610ada82856040518060600160405280602781526020016111d860279139610bad565b9050610ae886848484610bf7565b5050505b6001600160a01b03821615610ba8576001600160a01b03821660009081526005602052604081205463ffffffff169081610b27576000610b73565b6001600160a01b038416600090815260046020526040812090610b4b6001856110cd565b63ffffffff168152602081019190915260400160002054600160201b90046001600160601b03165b90506000610b9a828560405180606001604052806026815260200161117f60269139610def565b905061096a85848484610bf7565b505050565b6000836001600160601b0316836001600160601b031611158290610be45760405162461bcd60e51b81526004016103f19190611001565b50610bef83856110f2565b949350505050565b6000610c1b436040518060600160405280603381526020016111a560339139610e3c565b905060008463ffffffff16118015610c7557506001600160a01b038516600090815260046020526040812063ffffffff831691610c596001886110cd565b63ffffffff908116825260208201929092526040016000205416145b15610ce9576001600160a01b03851660009081526004602052604081208391610c9f6001886110cd565b63ffffffff168152602081019190915260400160002080546001600160601b0392909216600160201b026fffffffffffffffffffffffff0000000019909216919091179055610d9a565b60408051808201825263ffffffff80841682526001600160601b0380861660208085019182526001600160a01b038b166000908152600482528681208b8616825290915294909420925183549451909116600160201b026fffffffffffffffffffffffffffffffff19909416911617919091179055610d69846001611054565b6001600160a01b0386166000908152600560205260409020805463ffffffff191663ffffffff929092169190911790555b604080516001600160601b038086168252841660208201526001600160a01b038716917fdec2bacdd2f05b59de34da9b523dff8be42e5e38e818c82fdb0bae774387a724910160405180910390a25050505050565b600080610dfc848661107c565b9050846001600160601b0316816001600160601b031610158390610e335760405162461bcd60e51b81526004016103f19190611001565b50949350505050565b600081600160201b8410610e635760405162461bcd60e51b81526004016103f19190611001565b509192915050565b80356001600160a01b0381168114610e8257600080fd5b919050565b600060208284031215610e98578081fd5b61069882610e6b565b60008060408385031215610eb3578081fd5b610ebc83610e6b565b946020939093013593505050565b60008060008060008060c08789031215610ee2578182fd5b610eeb87610e6b565b95506020870135945060408701359350606087013560ff81168114610f0e578283fd5b9598949750929560808101359460a0909101359350915050565b60008060408385031215610f3a578182fd5b610f4383610e6b565b9150602083013563ffffffff81168114610f5b578182fd5b809150509250929050565b600080835482600182811c915080831680610f8257607f831692505b6020808410821415610fa257634e487b7160e01b87526022600452602487fd5b818015610fb65760018114610fc757610ff3565b60ff19861689528489019650610ff3565b60008a815260209020885b86811015610feb5781548b820152908501908301610fd2565b505084890196505b509498975050505050505050565b6000602080835283518082850152825b8181101561102d57858101830151858201604001528201611011565b8181111561103e5783604083870101525b50601f01601f1916929092016040019392505050565b600063ffffffff80831681851680830382111561107357611073611168565b01949350505050565b60006001600160601b0380831681851680830382111561107357611073611168565b600063ffffffff808416806110c157634e487b7160e01b83526012600452602483fd5b92169190910492915050565b600063ffffffff838116908316818110156110ea576110ea611168565b039392505050565b60006001600160601b03838116908316818110156110ea576110ea611168565b600181811c9082168061112657607f821691505b6020821081141561114757634e487b7160e01b600052602260045260246000fd5b50919050565b600060001982141561116157611161611168565b5060010190565b634e487b7160e01b600052601160045260246000fdfe556e693a3a5f6d6f7665566f7465733a20766f746520616d6f756e74206f766572666c6f7773556e693a3a5f7772697465436865636b706f696e743a20626c6f636b206e756d62657220657863656564732033322062697473556e693a3a5f6d6f7665566f7465733a20766f746520616d6f756e7420756e646572666c6f7773a26469706673582212209ee6814d68f25af79ce6cfc7a0db2f47bca72a0c98fa76a6e7dc2d7d38bf09d864736f6c63430008040033",
  "linkReferences": {},
  "deployedLinkReferences": {}
}