{
	"data": {
		"bytecode": {
			"linkReferences": {},
			"object": "60806040523480156200001157600080fd5b50619a4680620000226000396000f3fe608060405234801561001057600080fd5b50600436106104285760003560e01c806391d148541161022b578063c76a890c11610130578063dd4414bb116100b8578063ecd0c0c311610087578063ecd0c0c314610c26578063f2fde38b14610c44578063f83d08ba14610c60578063fb7b0a0c14610c6a578063fc0c546a14610c8857610428565b8063dd4414bb14610bb2578063e25c25f314610bd0578063e69d849d14610bec578063eb0376b114610c0857610428565b8063d33d4ec6116100ff578063d33d4ec614610b20578063d4938db314610b3c578063d547741f14610b5a578063d6dbd97214610b76578063d92fc67b14610b9457610428565b8063c76a890c14610aae578063cf30901214610aca578063d04c41b614610ae8578063d10f510714610b0457610428565b8063a57e08ca116101b3578063b026ba5711610182578063b026ba5714610a32578063b809ee8214610a3c578063beabacc814610a58578063c0e27b6b14610a74578063c51fab3c14610a9057610428565b8063a57e08ca146109c0578063a69df4b5146109dc578063a8f3e063146109e6578063ac18de4314610a1657610428565b80639e2c58ca116101fa5780639e2c58ca1461092c578063a0f93a171461094a578063a217fddf14610968578063a38540ee14610986578063a3c6e411146109a457610428565b806391d148541461089257806394e13748146108c25780639c01a401146108de5780639cecf572146108fc57610428565b80633a578a0c116103315780635fac917a116102b957806378ba280f1161028857806378ba280f146108005780637e2959dc1461081e578063830953ab1461083a57806389554f17146108585780638da5cb5b1461087457610428565b80635fac917a146107785780636b31f2ad14610796578063715018a6146107c6578063785393db146107d057610428565b806357c363271161030057806357c36327146106e8578063590411da146107065780635926651d1461072257806359633a1c1461073e578063597be18b1461075a57610428565b80633a578a0c14610670578063431a801a1461068e5780634e71d92d146106ac5780634f64b2be146106b657610428565b80632b271117116103b4578063300c12fe11610383578063300c12fe146105e2578063305ff6541461060057806336568abe1461061c5780633783946a1461063857806337e556dd1461065457610428565b80632b271117146105705780632d06177a1461058e5780632f2ff15d146105aa5780632fd79103146105c657610428565b80630d8e6e2c116103fb5780630d8e6e2c146104ca5780630e5b7c53146104e85780631912cdb4146105065780631fccf67214610522578063248a9ca31461054057610428565b8063015677391461042d57806301ffc9a71461046057806309c338c3146104905780630b4e7817146104ae575b600080fd5b61044760048036038101906104429190616ecd565b610ca6565b6040516104579493929190617fec565b60405180910390f35b61047a600480360381019061047591906171b6565b610d25565b6040516104879190617f20565b60405180910390f35b610498610d9f565b6040516104a59190618573565b60405180910390f35b6104c860048036038101906104c39190616f1f565b610da6565b005b6104d26111bf565b6040516104df9190618573565b60405180910390f35b6104f06111c8565b6040516104fd9190618573565b60405180910390f35b610520600480360381019061051b919061746a565b6111ce565b005b61052a6112e4565b6040516105379190617fd1565b60405180910390f35b61055a60048036038101906105559190617151565b61140d565b6040516105679190617f3b565b60405180910390f35b61057861142d565b6040516105859190618573565b60405180910390f35b6105a860048036038101906105a39190616ecd565b611434565b005b6105c460048036038101906105bf919061717a565b6115d7565b005b6105e060048036038101906105db91906174a6565b61161c565b005b6105ea6117d6565b6040516105f79190617f20565b60405180910390f35b61061a60048036038101906106159190617418565b6117e3565b005b6106366004803603810190610631919061717a565b611954565b005b610652600480360381019061064d91906172a9565b6119d7565b005b61066e600480360381019061066991906170a4565b6123b3565b005b6106786123cd565b6040516106859190617fb6565b60405180910390f35b6106966123f4565b6040516106a39190618573565b60405180910390f35b6106b46123fb565b005b6106d060048036038101906106cb9190617418565b61291c565b6040516106df93929190617ea5565b60405180910390f35b6106f0612977565b6040516106fd9190618573565b60405180910390f35b610720600480360381019061071b9190617063565b61299d565b005b61073c60048036038101906107379190616ecd565b612ab8565b005b61075860048036038101906107539190616ecd565b612c2d565b005b610762612ca2565b60405161076f9190618573565b60405180910390f35b610780612ca8565b60405161078d9190617f9b565b60405180910390f35b6107b060048036038101906107ab9190616ecd565b612ccf565b6040516107bd9190617efe565b60405180910390f35b6107ce612f2e565b005b6107ea60048036038101906107e59190617418565b612fb6565b6040516107f79190617e01565b60405180910390f35b610808612fd4565b6040516108159190618573565b60405180910390f35b61083860048036038101906108339190617208565b612ffa565b005b610842613138565b60405161084f9190618573565b60405180910390f35b610872600480360381019061086d9190617063565b61313f565b005b61087c613204565b6040516108899190617e01565b60405180910390f35b6108ac60048036038101906108a7919061717a565b61322e565b6040516108b99190617f20565b60405180910390f35b6108dc60048036038101906108d791906170a4565b613299565b005b6108e6613303565b6040516108f39190618573565b60405180910390f35b61091660048036038101906109119190616ecd565b61330a565b6040516109239190618573565b60405180910390f35b61093461336a565b6040516109419190617edc565b60405180910390f35b6109526135a0565b60405161095f9190618573565b60405180910390f35b6109706135a7565b60405161097d9190617f3b565b60405180910390f35b61098e6135ae565b60405161099b9190618573565b60405180910390f35b6109be60048036038101906109b991906170a4565b6135b4565b005b6109da60048036038101906109d59190616ecd565b61361e565b005b6109e4613866565b005b610a0060048036038101906109fb9190616ecd565b6139b3565b604051610a0d9190618573565b60405180910390f35b610a306004803603810190610a2b9190616ecd565b613a43565b005b610a3a613cb2565b005b610a566004803603810190610a519190617418565b613e8b565b005b610a726004803603810190610a6d919061725a565b613f24565b005b610a8e6004803603810190610a899190616ecd565b6140cf565b005b610a98614194565b604051610aa59190618573565b60405180910390f35b610ac86004803603810190610ac39190617063565b61419b565b005b610ad2614210565b604051610adf9190617f20565b60405180910390f35b610b026004803603810190610afd9190617063565b614223565b005b610b1e6004803603810190610b199190616ecd565b6142e8565b005b610b3a6004803603810190610b3591906171df565b6143ad565b005b610b44614517565b604051610b519190618573565b60405180910390f35b610b746004803603810190610b6f919061717a565b614521565b005b610b7e614566565b604051610b8b9190618573565b60405180910390f35b610b9c61456d565b604051610ba99190618573565b60405180910390f35b610bba61457b565b604051610bc79190618573565b60405180910390f35b610bea6004803603810190610be591906170a4565b614582565b005b610c066004803603810190610c019190617027565b614642565b005b610c10614740565b604051610c1d9190618573565b60405180910390f35b610c2e614752565b604051610c3b9190617fd1565b60405180910390f35b610c5e6004803603810190610c599190616ecd565b614779565b005b610c68614871565b005b610c726149be565b604051610c7f9190618573565b60405180910390f35b610c906149c4565b604051610c9d9190617fd1565b60405180910390f35b600080600080600061010960008773ffffffffffffffffffffffffffffffffffffffff1673ffffffffffffffffffffffffffffffffffffffff16815260200190815260200160002090508060000160009054906101000a900460ff168160010154610d1083614aed565b83600301549450945094509450509193509193565b60007f7965db0b000000000000000000000000000000000000000000000000000000007bffffffffffffffffffffffffffffffffffffffffffffffffffffffff1916827bffffffffffffffffffffffffffffffffffffffffffffffffffffffff19161480610d985750610d9782614c0e565b5b9050919050565b6101065481565b600060019054906101000a900460ff16610dce5760008054906101000a900460ff1615610dd7565b610dd6614c78565b5b610e16576040517f08c379a0000000000000000000000000000000000000000000000000000000008152600401610e0d906182b3565b60405180910390fd5b60008060019054906101000a900460ff161590508015610e66576001600060016101000a81548160ff02191690831515021790555060016000806101000a81548160ff0219169083151502179055505b858711610ea8576040517f08c379a0000000000000000000000000000000000000000000000000000000008152600401610e9f90618313565b60405180910390fd5b89891015610eeb576040517f08c379a0000000000000000000000000000000000000000000000000000000008152600401610ee2906183d3565b60405180910390fd5b83851115610f2e576040517f08c379a0000000000000000000000000000000000000000000000000000000008152600401610f25906183f3565b60405180910390fd5b3361010860006101000a81548173ffffffffffffffffffffffffffffffffffffffff021916908373ffffffffffffffffffffffffffffffffffffffff160217905550610f78614c89565b610f80614cf2565b610f88614d53565b8b61010c60006101000a81548173ffffffffffffffffffffffffffffffffffffffff021916908373ffffffffffffffffffffffffffffffffffffffff1602179055508960fc8190555089610111819055508660fd819055508560fe819055508860ff81905550846101048190555083610105819055508161010760006101000a81548173ffffffffffffffffffffffffffffffffffffffff021916908373ffffffffffffffffffffffffffffffffffffffff16021790555087610103819055508261010d81905550600060fb60006101000a81548160ff02191690831515021790555061107433614779565b61109e7f241ecf16d79d0f8dbfb92cbc07fe17840425976cf0667f022fe9877caa831b0880614dac565b6110c87f241ecf16d79d0f8dbfb92cbc07fe17840425976cf0667f022fe9877caa831b0833614e08565b3373ffffffffffffffffffffffffffffffffffffffff163373ffffffffffffffffffffffffffffffffffffffff167f05a4006f300442cf8b7fdb885f5ee958812020bffb5c5a8e655fde64e5f987ed60405160405180910390a36000808c5190505b8082101561118e5761117b8d838151811061116e577f4e487b7100000000000000000000000000000000000000000000000000000000600052603260045260246000fd5b6020026020010151611434565b818061118690618b4d565b92505061112a565b505080156111b15760008060016101000a81548160ff0219169083151502179055505b505050505050505050505050565b60006003905090565b60fd5481565b6111d6614e16565b73ffffffffffffffffffffffffffffffffffffffff166111f4613204565b73ffffffffffffffffffffffffffffffffffffffff161461124a576040517f08c379a000000000000000000000000000000000000000000000000000000000815260040161124190618353565b60405180910390fd5b8082111561128d576040517f08c379a000000000000000000000000000000000000000000000000000000000815260040161128490618193565b60405180910390fd5b7fcd922a6f0ad842d84e08eb5df24c029b63c60167fb37cff24adf95c4832e3258610104546101055484846040516112c89493929190618613565b60405180910390a1816101048190555080610105819055505050565b60008073ffffffffffffffffffffffffffffffffffffffff1661010c60009054906101000a900473ffffffffffffffffffffffffffffffffffffffff1673ffffffffffffffffffffffffffffffffffffffff1614156113e35761010860009054906101000a900473ffffffffffffffffffffffffffffffffffffffff1673ffffffffffffffffffffffffffffffffffffffff16631fccf6726040518163ffffffff1660e01b815260040160206040518083038186803b1580156113a657600080fd5b505afa1580156113ba573d6000803e3d6000fd5b505050506040513d601f19601f820116820180604052508101906113de9190617231565b611408565b61010c60009054906101000a900473ffffffffffffffffffffffffffffffffffffffff165b905090565b600060656000838152602001908152602001600020600101549050919050565b6101055481565b61010860009054906101000a900473ffffffffffffffffffffffffffffffffffffffff1673ffffffffffffffffffffffffffffffffffffffff16636b0de23f30336040518363ffffffff1660e01b8152600401611492929190617e1c565b60206040518083038186803b1580156114aa57600080fd5b505afa1580156114be573d6000803e3d6000fd5b505050506040513d601f19601f820116820180604052508101906114e29190617128565b611521576040517f08c379a000000000000000000000000000000000000000000000000000000000815260040161151890618293565b60405180910390fd5b61154b7f241ecf16d79d0f8dbfb92cbc07fe17840425976cf0667f022fe9877caa831b088261322e565b6115d4576115797f241ecf16d79d0f8dbfb92cbc07fe17840425976cf0667f022fe9877caa831b0882614e1e565b8073ffffffffffffffffffffffffffffffffffffffff163373ffffffffffffffffffffffffffffffffffffffff167f05a4006f300442cf8b7fdb885f5ee958812020bffb5c5a8e655fde64e5f987ed60405160405180910390a35b50565b6000611618576040517f08c379a000000000000000000000000000000000000000000000000000000000815260040161160f90618273565b60405180910390fd5b5050565b611624614e16565b73ffffffffffffffffffffffffffffffffffffffff16611642613204565b73ffffffffffffffffffffffffffffffffffffffff1614611698576040517f08c379a000000000000000000000000000000000000000000000000000000000815260040161168f90618353565b60405180910390fd5b8082116116da576040517f08c379a00000000000000000000000000000000000000000000000000000000081526004016116d190618233565b60405180910390fd5b82610100546116e991906188a9565b856116f49190618822565b841015611736576040517f08c379a000000000000000000000000000000000000000000000000000000000815260040161172d906180d3565b60405180910390fd5b7fa19f450cd68c70f728b0c4b75befd202ea5ebb1ae78b6aca47365934b500875060fc5460ff546101035460fd5460fe548a8a8a8a8a6040516117829a99989796959493929190618658565b60405180910390a18460fc8190555082610100546117a091906188a9565b846117ab9190618903565b60ff8190555082610103819055508160fd819055508060fe819055506117cf614eff565b5050505050565b6000806101055414905090565b6117eb613204565b73ffffffffffffffffffffffffffffffffffffffff163373ffffffffffffffffffffffffffffffffffffffff1614806118ce575061010860009054906101000a900473ffffffffffffffffffffffffffffffffffffffff1673ffffffffffffffffffffffffffffffffffffffff16636b0de23f30336040518363ffffffff1660e01b815260040161187d929190617e1c565b60206040518083038186803b15801561189557600080fd5b505afa1580156118a9573d6000803e3d6000fd5b505050506040513d601f19601f820116820180604052508101906118cd9190617128565b5b61190d576040517f08c379a0000000000000000000000000000000000000000000000000000000008152600401611904906180f3565b60405180910390fd5b7f6672b7064fe522fa09a8078f6d967272e0a379beb2270817417c9f023251b65761010d54826040516119419291906185ea565b60405180910390a18061010d8190555050565b61195c614e16565b73ffffffffffffffffffffffffffffffffffffffff168173ffffffffffffffffffffffffffffffffffffffff16146119c9576040517f08c379a00000000000000000000000000000000000000000000000000000000081526004016119c090618533565b60405180910390fd5b6119d382826151ae565b5050565b6119df614e16565b73ffffffffffffffffffffffffffffffffffffffff166119fd613204565b73ffffffffffffffffffffffffffffffffffffffff1614611a53576040517f08c379a0000000000000000000000000000000000000000000000000000000008152600401611a4a90618353565b60405180910390fd5b600061010860009054906101000a900473ffffffffffffffffffffffffffffffffffffffff1673ffffffffffffffffffffffffffffffffffffffff166361d027b36040518163ffffffff1660e01b815260040160206040518083038186803b158015611abe57600080fd5b505afa158015611ad2573d6000803e3d6000fd5b505050506040513d601f19601f82011682018060405250810190611af69190617363565b9050600a61010e8054905010611b41576040517f08c379a0000000000000000000000000000000000000000000000000000000008152600401611b3890618073565b60405180910390fd5b611b496149c4565b73ffffffffffffffffffffffffffffffffffffffff168973ffffffffffffffffffffffffffffffffffffffff161415611bb7576040517f08c379a0000000000000000000000000000000000000000000000000000000008152600401611bae906181f3565b60405180910390fd5b61010860009054906101000a900473ffffffffffffffffffffffffffffffffffffffff1673ffffffffffffffffffffffffffffffffffffffff16631fccf6726040518163ffffffff1660e01b815260040160206040518083038186803b158015611c2057600080fd5b505afa158015611c34573d6000803e3d6000fd5b505050506040513d601f19601f82011682018060405250810190611c589190617231565b73ffffffffffffffffffffffffffffffffffffffff168973ffffffffffffffffffffffffffffffffffffffff161480611d1657508073ffffffffffffffffffffffffffffffffffffffff166319f373618a6040518263ffffffff1660e01b8152600401611cc59190617e01565b60206040518083038186803b158015611cdd57600080fd5b505afa158015611cf1573d6000803e3d6000fd5b505050506040513d601f19601f82011682018060405250810190611d159190617128565b5b611d55576040517f08c379a0000000000000000000000000000000000000000000000000000000008152600401611d4c90618213565b60405180910390fd5b600188889050118015611de85750611d6b6149c4565b73ffffffffffffffffffffffffffffffffffffffff1688886000818110611dbb577f4e487b7100000000000000000000000000000000000000000000000000000000600052603260045260246000fd5b9050602002016020810190611dd09190616ecd565b73ffffffffffffffffffffffffffffffffffffffff16145b8015611e7b57508873ffffffffffffffffffffffffffffffffffffffff16888860018b8b9050611e189190618903565b818110611e4e577f4e487b7100000000000000000000000000000000000000000000000000000000600052603260045260246000fd5b9050602002016020810190611e639190616ecd565b73ffffffffffffffffffffffffffffffffffffffff16145b611eba576040517f08c379a0000000000000000000000000000000000000000000000000000000008152600401611eb1906181b3565b60405180910390fd5b600061010e805490501415611fb15761010e6040518060600160405280611edf6149c4565b73ffffffffffffffffffffffffffffffffffffffff168152602001670de0b6b3a764000081526020016000815250908060018154018082558091505060019003906000526020600020906003020160009091909190915060008201518160000160006101000a81548173ffffffffffffffffffffffffffffffffffffffff021916908373ffffffffffffffffffffffffffffffffffffffff16021790555060208201518160010155604082015181600201555050611faf611f9e6149c4565b61010f61529090919063ffffffff16565b505b6000611fbb612977565b86670de0b6b3a7640000611fcf91906188a9565b611fd99190618878565b905061010e60405180606001604052808c73ffffffffffffffffffffffffffffffffffffffff16815260200183815260200143815250908060018154018082558091505060019003906000526020600020906003020160009091909190915060008201518160000160006101000a81548173ffffffffffffffffffffffffffffffffffffffff021916908373ffffffffffffffffffffffffffffffffffffffff160217905550602082015181600101556040820151816002015550506120aa8a61010f61529090919063ffffffff16565b5060008273ffffffffffffffffffffffffffffffffffffffff1663735de9f76040518163ffffffff1660e01b815260040160206040518083038186803b1580156120f357600080fd5b505afa158015612107573d6000803e3d6000fd5b505050506040513d601f19601f8201168201806040525081019061212b919061738c565b905060006121376149c4565b73ffffffffffffffffffffffffffffffffffffffff166370a08231306040518263ffffffff1660e01b815260040161216f9190617e01565b60206040518083038186803b15801561218757600080fd5b505afa15801561219b573d6000803e3d6000fd5b505050506040513d601f19601f820116820180604052508101906121bf9190617441565b90506121c96149c4565b73ffffffffffffffffffffffffffffffffffffffff1663095ea7b383836040518363ffffffff1660e01b8152600401612203929190617e7c565b602060405180830381600087803b15801561221d57600080fd5b505af1158015612231573d6000803e3d6000fd5b505050506040513d601f19601f820116820180604052508101906122559190617128565b508173ffffffffffffffffffffffffffffffffffffffff16635c11d7958260008e8e30610e10426122869190618822565b6040518763ffffffff1660e01b81526004016122a79695949392919061858e565b600060405180830381600087803b1580156122c157600080fd5b505af11580156122d5573d6000803e3d6000fd5b505050508b73ffffffffffffffffffffffffffffffffffffffff1661010c60009054906101000a900473ffffffffffffffffffffffffffffffffffffffff1673ffffffffffffffffffffffffffffffffffffffff167f0b1186973f810894b87ab0bfbee422fddcaad21b46dc705a561451bbb6bac11760405160405180910390a38b61010c60006101000a81548173ffffffffffffffffffffffffffffffffffffffff021916908373ffffffffffffffffffffffffffffffffffffffff1602179055506123a5898989898961161c565b505050505050505050505050565b6123be8383836152c0565b6123c784615513565b50505050565b61010760009054906101000a900473ffffffffffffffffffffffffffffffffffffffff1681565b6101005481565b60fb60009054906101000a900460ff161561244b576040517f08c379a000000000000000000000000000000000000000000000000000000000815260040161244290618153565b60405180910390fd5b60016003811115612485577f4e487b7100000000000000000000000000000000000000000000000000000000600052602160045260246000fd5b61010960003373ffffffffffffffffffffffffffffffffffffffff1673ffffffffffffffffffffffffffffffffffffffff16815260200190815260200160002060000160009054906101000a900460ff16600381111561250e577f4e487b7100000000000000000000000000000000000000000000000000000000600052602160045260246000fd5b1461254e576040517f08c379a000000000000000000000000000000000000000000000000000000000815260040161254590618373565b60405180910390fd5b600260c9541415612594576040517f08c379a000000000000000000000000000000000000000000000000000000000815260040161258b906184b3565b60405180910390fd5b600260c981905550600061010960003373ffffffffffffffffffffffffffffffffffffffff1673ffffffffffffffffffffffffffffffffffffffff168152602001908152602001600020905060006125eb82614aed565b9050436125f73361330a565b1115612638576040517f08c379a000000000000000000000000000000000000000000000000000000000815260040161262f90618413565b60405180910390fd5b60ff54811061267c576040517f08c379a000000000000000000000000000000000000000000000000000000000815260040161267390618333565b60405180910390fd5b60008061011154116126905760fc54612695565b610111545b905060008260ff546126a79190618903565b8211156126c1578260ff546126bc9190618903565b6126c3565b815b9050600161010e8054905011801561272b575061010e600181548110612712577f4e487b7100000000000000000000000000000000000000000000000000000000600052603260045260246000fd5b9060005260206000209060030201600201548460030154105b156127e857836002015484600401600061010e600081548110612777577f4e487b7100000000000000000000000000000000000000000000000000000000600052603260045260246000fd5b906000526020600020906003020160000160009054906101000a900473ffffffffffffffffffffffffffffffffffffffff1673ffffffffffffffffffffffffffffffffffffffff1673ffffffffffffffffffffffffffffffffffffffff168152602001908152602001600020819055505b80836127f49190618822565b846002018190555083600101600081548092919061281190618b4d565b9190505550438460030181905550600161010e80549050111561288e578084600401600061283d6149c4565b73ffffffffffffffffffffffffffffffffffffffff1673ffffffffffffffffffffffffffffffffffffffff16815260200190815260200160002060008282546128869190618822565b925050819055505b6128c0338261289b6149c4565b73ffffffffffffffffffffffffffffffffffffffff166155849092919063ffffffff16565b3373ffffffffffffffffffffffffffffffffffffffff167fd54e03b214b3e8c17e98044f98554b6f1b18dd2a3163a2619afea7e9b2a6eb97826040516129069190618573565b60405180910390a250505050600160c981905550565b61010e818154811061292d57600080fd5b90600052602060002090600302016000915090508060000160009054906101000a900473ffffffffffffffffffffffffffffffffffffffff16908060010154908060020154905083565b6000610103546101005461298b91906188a9565b60ff546129989190618822565b905090565b60fb60009054906101000a900460ff16156129ed576040517f08c379a00000000000000000000000000000000000000000000000000000000081526004016129e490618153565b60405180910390fd5b612a177f241ecf16d79d0f8dbfb92cbc07fe17840425976cf0667f022fe9877caa831b083361322e565b612a56576040517f08c379a0000000000000000000000000000000000000000000000000000000008152600401612a4d90618393565b60405180910390fd5b600260c9541415612a9c576040517f08c379a0000000000000000000000000000000000000000000000000000000008152600401612a93906184b3565b60405180910390fd5b600260c981905550612aad8161560a565b600160c98190555050565b60fb60009054906101000a900460ff1615612b08576040517f08c379a0000000000000000000000000000000000000000000000000000000008152600401612aff90618153565b60405180910390fd5b612b327f241ecf16d79d0f8dbfb92cbc07fe17840425976cf0667f022fe9877caa831b083361322e565b612b71576040517f08c379a0000000000000000000000000000000000000000000000000000000008152600401612b6890618393565b60405180910390fd5b600260c9541415612bb7576040517f08c379a0000000000000000000000000000000000000000000000000000000008152600401612bae906184b3565b60405180910390fd5b600260c981905550612bc881615715565b8073ffffffffffffffffffffffffffffffffffffffff163373ffffffffffffffffffffffffffffffffffffffff167fbb39c36a7502b7256e1a687254146a9a2ea7b146c77cb9e40eb0e2b8793781e160405160405180910390a3600160c98190555050565b612c577f241ecf16d79d0f8dbfb92cbc07fe17840425976cf0667f022fe9877caa831b083361322e565b612c96576040517f08c379a0000000000000000000000000000000000000000000000000000000008152600401612c8d90618393565b60405180910390fd5b612c9f81615850565b50565b60fe5481565b61010860009054906101000a900473ffffffffffffffffffffffffffffffffffffffff1681565b6060600061010960008473ffffffffffffffffffffffffffffffffffffffff1673ffffffffffffffffffffffffffffffffffffffff16815260200190815260200160002090506000612d2261010f615a14565b67ffffffffffffffff811115612d61577f4e487b7100000000000000000000000000000000000000000000000000000000600052604160045260246000fd5b604051908082528060200260200182016040528015612d8f5781602001602082028036833780820191505090505b5090506000612d9f61010f615a14565b905060005b81811015612e5a57836004016000612dc78361010f615a2990919063ffffffff16565b73ffffffffffffffffffffffffffffffffffffffff1673ffffffffffffffffffffffffffffffffffffffff16815260200190815260200160002054838281518110612e3b577f4e487b7100000000000000000000000000000000000000000000000000000000600052603260045260246000fd5b6020026020010181815250508080612e5290618b4d565b915050612da4565b50600082511415612f2357600167ffffffffffffffff811115612ea6577f4e487b7100000000000000000000000000000000000000000000000000000000600052604160045260246000fd5b604051908082528060200260200182016040528015612ed45781602001602082028036833780820191505090505b509150826002015482600081518110612f16577f4e487b7100000000000000000000000000000000000000000000000000000000600052603260045260246000fd5b6020026020010181815250505b819350505050919050565b612f36614e16565b73ffffffffffffffffffffffffffffffffffffffff16612f54613204565b73ffffffffffffffffffffffffffffffffffffffff1614612faa576040517f08c379a0000000000000000000000000000000000000000000000000000000008152600401612fa190618353565b60405180910390fd5b612fb46000615a43565b565b6000612fcd8261010a615a2990919063ffffffff16565b9050919050565b60006101035461010054612fe891906188a9565b60ff54612ff59190618822565b905090565b613002614e16565b73ffffffffffffffffffffffffffffffffffffffff16613020613204565b73ffffffffffffffffffffffffffffffffffffffff1614613076576040517f08c379a000000000000000000000000000000000000000000000000000000000815260040161306d90618353565b60405180910390fd5b8073ffffffffffffffffffffffffffffffffffffffff1661010760009054906101000a900473ffffffffffffffffffffffffffffffffffffffff1673ffffffffffffffffffffffffffffffffffffffff167f0d6a84e94da4b619dd0d993b5689ec82db4b1095da99ee0f3e7bb046c647e6ad60405160405180910390a38061010760006101000a81548173ffffffffffffffffffffffffffffffffffffffff021916908373ffffffffffffffffffffffffffffffffffffffff16021790555050565b6101115481565b60fb60009054906101000a900460ff161561318f576040517f08c379a000000000000000000000000000000000000000000000000000000000815260040161318690618153565b60405180910390fd5b6131b97f241ecf16d79d0f8dbfb92cbc07fe17840425976cf0667f022fe9877caa831b083361322e565b6131f8576040517f08c379a00000000000000000000000000000000000000000000000000000000081526004016131ef90618393565b60405180910390fd5b61320181615b09565b50565b6000609760009054906101000a900473ffffffffffffffffffffffffffffffffffffffff16905090565b60006065600084815260200190815260200160002060000160008373ffffffffffffffffffffffffffffffffffffffff1673ffffffffffffffffffffffffffffffffffffffff16815260200190815260200160002060009054906101000a900460ff16905092915050565b60fb60009054906101000a900460ff16156132e9576040517f08c379a00000000000000000000000000000000000000000000000000000000081526004016132e090618153565b60405180910390fd5b6132f48383836152c0565b6132fd84615b7a565b50505050565b6101015481565b6000613315826139b3565b61010960008473ffffffffffffffffffffffffffffffffffffffff1673ffffffffffffffffffffffffffffffffffffffff168152602001908152602001600020600301546133639190618822565b9050919050565b6060600061337961010f615a14565b67ffffffffffffffff8111156133b8577f4e487b7100000000000000000000000000000000000000000000000000000000600052604160045260246000fd5b6040519080825280602002602001820160405280156133e65781602001602082028036833780820191505090505b50905060006133f661010f615a14565b905060005b8181101561349e576134188161010f615a2990919063ffffffff16565b838281518110613451577f4e487b7100000000000000000000000000000000000000000000000000000000600052603260045260246000fd5b602002602001019073ffffffffffffffffffffffffffffffffffffffff16908173ffffffffffffffffffffffffffffffffffffffff1681525050808061349690618b4d565b9150506133fb565b5060008251141561359857600167ffffffffffffffff8111156134ea577f4e487b7100000000000000000000000000000000000000000000000000000000600052604160045260246000fd5b6040519080825280602002602001820160405280156135185781602001602082028036833780820191505090505b5091506135236149c4565b8260008151811061355d577f4e487b7100000000000000000000000000000000000000000000000000000000600052603260045260246000fd5b602002602001019073ffffffffffffffffffffffffffffffffffffffff16908173ffffffffffffffffffffffffffffffffffffffff16815250505b819250505090565b61010d5481565b6000801b81565b60ff5481565b60fb60009054906101000a900460ff1615613604576040517f08c379a00000000000000000000000000000000000000000000000000000000081526004016135fb90618153565b60405180910390fd5b61360f8383836152c0565b61361884615b09565b50505050565b600061010960008373ffffffffffffffffffffffffffffffffffffffff1673ffffffffffffffffffffffffffffffffffffffff16815260200190815260200160002090506000600381111561369c577f4e487b7100000000000000000000000000000000000000000000000000000000600052602160045260246000fd5b8160000160009054906101000a900460ff1660038111156136e6577f4e487b7100000000000000000000000000000000000000000000000000000000600052602160045260246000fd5b14613726576040517f08c379a000000000000000000000000000000000000000000000000000000000815260040161371d906182f3565b60405180910390fd5b60008060008061010760009054906101000a900473ffffffffffffffffffffffffffffffffffffffff1673ffffffffffffffffffffffffffffffffffffffff166301567739876040518263ffffffff1660e01b81526004016137889190617e01565b60806040518083038186803b1580156137a057600080fd5b505afa1580156137b4573d6000803e3d6000fd5b505050506040513d601f19601f820116820180604052508101906137d891906173b5565b93509350935093506137ea8585615beb565b82856001018190555080856003018190555081856002018190555061381a8661010a61529090919063ffffffff16565b508573ffffffffffffffffffffffffffffffffffffffff167f505fe088fef0d1fb451ccfed842b55a86af1ee6208502f4bc3327dcb9032082960405160405180910390a2505050505050565b61010860009054906101000a900473ffffffffffffffffffffffffffffffffffffffff1673ffffffffffffffffffffffffffffffffffffffff16636b0de23f30336040518363ffffffff1660e01b81526004016138c4929190617e1c565b60206040518083038186803b1580156138dc57600080fd5b505afa1580156138f0573d6000803e3d6000fd5b505050506040513d601f19601f820116820180604052508101906139149190617128565b613953576040517f08c379a000000000000000000000000000000000000000000000000000000000815260040161394a90618293565b60405180910390fd5b600060fb60006101000a81548160ff0219169083151502179055503373ffffffffffffffffffffffffffffffffffffffff167f4e50048c25972c85ad169c2302967f1e633e8dc6108d6aca51a90d2a59d4934d60405160405180910390a2565b60008061010960008473ffffffffffffffffffffffffffffffffffffffff1673ffffffffffffffffffffffffffffffffffffffff1681526020019081526020016000209050600081600101541415613a0f576000915050613a3e565b60fe5460018260010154613a239190618903565b613a2d91906188a9565b60fd54613a3a9190618822565b9150505b919050565b61010860009054906101000a900473ffffffffffffffffffffffffffffffffffffffff1673ffffffffffffffffffffffffffffffffffffffff16636b0de23f30336040518363ffffffff1660e01b8152600401613aa1929190617e1c565b60206040518083038186803b158015613ab957600080fd5b505afa158015613acd573d6000803e3d6000fd5b505050506040513d601f19601f82011682018060405250810190613af19190617128565b613b30576040517f08c379a0000000000000000000000000000000000000000000000000000000008152600401613b2790618293565b60405180910390fd5b613b5a7f241ecf16d79d0f8dbfb92cbc07fe17840425976cf0667f022fe9877caa831b088261322e565b613b99576040517f08c379a0000000000000000000000000000000000000000000000000000000008152600401613b90906184f3565b60405180910390fd5b61010860009054906101000a900473ffffffffffffffffffffffffffffffffffffffff1673ffffffffffffffffffffffffffffffffffffffff168173ffffffffffffffffffffffffffffffffffffffff161415613c2b576040517f08c379a0000000000000000000000000000000000000000000000000000000008152600401613c22906183b3565b60405180910390fd5b613c557f241ecf16d79d0f8dbfb92cbc07fe17840425976cf0667f022fe9877caa831b08826151ae565b8073ffffffffffffffffffffffffffffffffffffffff163373ffffffffffffffffffffffffffffffffffffffff167f3e902a6ee93dd5b2d48bd1009c7701a481be512b1ef73dbed2f95ea44c59ea8860405160405180910390a350565b60fb60009054906101000a900460ff1615613d02576040517f08c379a0000000000000000000000000000000000000000000000000000000008152600401613cf990618153565b60405180910390fd5b613d2c7f241ecf16d79d0f8dbfb92cbc07fe17840425976cf0667f022fe9877caa831b083361322e565b613d6b576040517f08c379a0000000000000000000000000000000000000000000000000000000008152600401613d6290618393565b60405180910390fd5b613d736117d6565b15613db3576040517f08c379a0000000000000000000000000000000000000000000000000000000008152600401613daa90618433565b60405180910390fd5b61010860009054906101000a900473ffffffffffffffffffffffffffffffffffffffff1673ffffffffffffffffffffffffffffffffffffffff1663174a71d76040518163ffffffff1660e01b8152600401600060405180830381600087803b158015613e1e57600080fd5b505af1158015613e32573d6000803e3d6000fd5b505050504361010681905550613e46614eff565b3373ffffffffffffffffffffffffffffffffffffffff167f16a8b794d4e2ed6ffef50d78af3d4372ce4bfe8a399bfc23f59b7832ee47539060405160405180910390a2565b613e93614e16565b73ffffffffffffffffffffffffffffffffffffffff16613eb1613204565b73ffffffffffffffffffffffffffffffffffffffff1614613f07576040517f08c379a0000000000000000000000000000000000000000000000000000000008152600401613efe90618353565b60405180910390fd5b806101016000828254613f1a9190618822565b9250508190555050565b613f2c614e16565b73ffffffffffffffffffffffffffffffffffffffff16613f4a613204565b73ffffffffffffffffffffffffffffffffffffffff1614613fa0576040517f08c379a0000000000000000000000000000000000000000000000000000000008152600401613f9790618353565b60405180910390fd5b600260c9541415613fe6576040517f08c379a0000000000000000000000000000000000000000000000000000000008152600401613fdd906184b3565b60405180910390fd5b600260c98190555061401982828573ffffffffffffffffffffffffffffffffffffffff166155849092919063ffffffff16565b6140216149c4565b73ffffffffffffffffffffffffffffffffffffffff168373ffffffffffffffffffffffffffffffffffffffff16141561405d5761405c614eff565b5b8173ffffffffffffffffffffffffffffffffffffffff168373ffffffffffffffffffffffffffffffffffffffff167f9b035625e569d1d2bf54830a290aefba7ab11610ba8490871dc62b86b63a8956836040516140ba9190618573565b60405180910390a3600160c981905550505050565b60fb60009054906101000a900460ff161561411f576040517f08c379a000000000000000000000000000000000000000000000000000000000815260040161411690618153565b60405180910390fd5b6141497f241ecf16d79d0f8dbfb92cbc07fe17840425976cf0667f022fe9877caa831b083361322e565b614188576040517f08c379a000000000000000000000000000000000000000000000000000000000815260040161417f90618393565b60405180910390fd5b61419181615eef565b50565b6101035481565b6141c57f241ecf16d79d0f8dbfb92cbc07fe17840425976cf0667f022fe9877caa831b083361322e565b614204576040517f08c379a00000000000000000000000000000000000000000000000000000000081526004016141fb90618393565b60405180910390fd5b61420d81615513565b50565b60fb60009054906101000a900460ff1681565b60fb60009054906101000a900460ff1615614273576040517f08c379a000000000000000000000000000000000000000000000000000000000815260040161426a90618153565b60405180910390fd5b61429d7f241ecf16d79d0f8dbfb92cbc07fe17840425976cf0667f022fe9877caa831b083361322e565b6142dc576040517f08c379a00000000000000000000000000000000000000000000000000000000081526004016142d390618393565b60405180910390fd5b6142e581615b7a565b50565b60fb60009054906101000a900460ff1615614338576040517f08c379a000000000000000000000000000000000000000000000000000000000815260040161432f90618153565b60405180910390fd5b6143627f241ecf16d79d0f8dbfb92cbc07fe17840425976cf0667f022fe9877caa831b083361322e565b6143a1576040517f08c379a000000000000000000000000000000000000000000000000000000000815260040161439890618393565b60405180910390fd5b6143aa81616027565b50565b6143b5614e16565b73ffffffffffffffffffffffffffffffffffffffff166143d3613204565b73ffffffffffffffffffffffffffffffffffffffff1614614429576040517f08c379a000000000000000000000000000000000000000000000000000000000815260040161442090618353565b60405180910390fd5b8073ffffffffffffffffffffffffffffffffffffffff1661010860009054906101000a900473ffffffffffffffffffffffffffffffffffffffff1673ffffffffffffffffffffffffffffffffffffffff167fdd8d3b7b0badfc5d636d48e71e28015b4b8554b64d2cffba6f0a90bf7693ec0060405160405180910390a38061010860006101000a81548173ffffffffffffffffffffffffffffffffffffffff021916908373ffffffffffffffffffffffffffffffffffffffff16021790555061451461010860009054906101000a900473ffffffffffffffffffffffffffffffffffffffff16611434565b50565b600060ff54905090565b6000614562576040517f08c379a000000000000000000000000000000000000000000000000000000000815260040161455990618513565b60405180910390fd5b5050565b6101025481565b600061010e80549050905090565b6101045481565b60fb60009054906101000a900460ff16156145d2576040517f08c379a00000000000000000000000000000000000000000000000000000000081526004016145c990618153565b60405180910390fd5b600260c9541415614618576040517f08c379a000000000000000000000000000000000000000000000000000000000815260040161460f906184b3565b60405180910390fd5b600260c98190555061462b8383836152c0565b6146348461560a565b600160c98190555050505050565b600260c9541415614688576040517f08c379a000000000000000000000000000000000000000000000000000000000815260040161467f906184b3565b60405180910390fd5b600260c9819055506146c482308361469e6149c4565b73ffffffffffffffffffffffffffffffffffffffff1661615f909392919063ffffffff16565b8061010260008282546146d79190618822565b925050819055506146e6614eff565b3373ffffffffffffffffffffffffffffffffffffffff167f0553260a2e46b0577270d8992db02d30856ca880144c72d6e9503760946aef138260405161472c9190618573565b60405180910390a2600160c9819055505050565b600061474d61010a615a14565b905090565b61010c60009054906101000a900473ffffffffffffffffffffffffffffffffffffffff1681565b614781614e16565b73ffffffffffffffffffffffffffffffffffffffff1661479f613204565b73ffffffffffffffffffffffffffffffffffffffff16146147f5576040517f08c379a00000000000000000000000000000000000000000000000000000000081526004016147ec90618353565b60405180910390fd5b600073ffffffffffffffffffffffffffffffffffffffff168173ffffffffffffffffffffffffffffffffffffffff161415614865576040517f08c379a000000000000000000000000000000000000000000000000000000000815260040161485c90618113565b60405180910390fd5b61486e81615a43565b50565b61010860009054906101000a900473ffffffffffffffffffffffffffffffffffffffff1673ffffffffffffffffffffffffffffffffffffffff16636b0de23f30336040518363ffffffff1660e01b81526004016148cf929190617e1c565b60206040518083038186803b1580156148e757600080fd5b505afa1580156148fb573d6000803e3d6000fd5b505050506040513d601f19601f8201168201806040525081019061491f9190617128565b61495e576040517f08c379a000000000000000000000000000000000000000000000000000000000815260040161495590618293565b60405180910390fd5b600160fb60006101000a81548160ff0219169083151502179055503373ffffffffffffffffffffffffffffffffffffffff167fe1e6bc10311f2f958d6cd2d0ab7308c32089aa1acb8ab11a2ccb60028e332bd060405160405180910390a2565b60fc5481565b60008073ffffffffffffffffffffffffffffffffffffffff1661010c60009054906101000a900473ffffffffffffffffffffffffffffffffffffffff1673ffffffffffffffffffffffffffffffffffffffff161415614ac35761010860009054906101000a900473ffffffffffffffffffffffffffffffffffffffff1673ffffffffffffffffffffffffffffffffffffffff16631fccf6726040518163ffffffff1660e01b815260040160206040518083038186803b158015614a8657600080fd5b505afa158015614a9a573d6000803e3d6000fd5b505050506040513d601f19601f82011682018060405250810190614abe9190617231565b614ae8565b61010c60009054906101000a900473ffffffffffffffffffffffffffffffffffffffff165b905090565b60008061010e8054905090506002811015614b0f578260020154915050614c09565b6000836002015490506000600183614b279190618903565b90505b846003015461010e8281548110614b6a577f4e487b7100000000000000000000000000000000000000000000000000000000600052603260045260246000fd5b9060005260206000209060030201600201541115614c0257670de0b6b3a764000061010e8281548110614bc6577f4e487b7100000000000000000000000000000000000000000000000000000000600052603260045260246000fd5b90600052602060002090600302016001015483614be391906188a9565b614bed9190618878565b91508080614bfa90618af2565b915050614b2a565b5080925050505b919050565b60007f01ffc9a7000000000000000000000000000000000000000000000000000000007bffffffffffffffffffffffffffffffffffffffffffffffffffffffff1916827bffffffffffffffffffffffffffffffffffffffffffffffffffffffff1916149050919050565b6000614c83306161e8565b15905090565b600060019054906101000a900460ff16614cd8576040517f08c379a0000000000000000000000000000000000000000000000000000000008152600401614ccf90618473565b60405180910390fd5b614ce06161fb565b614ce861624c565b614cf061629d565b565b600060019054906101000a900460ff16614d41576040517f08c379a0000000000000000000000000000000000000000000000000000000008152600401614d3890618473565b60405180910390fd5b614d496161fb565b614d516162ee565b565b600060019054906101000a900460ff16614da2576040517f08c379a0000000000000000000000000000000000000000000000000000000008152600401614d9990618473565b60405180910390fd5b614daa61634f565b565b6000614db78361140d565b90508160656000858152602001908152602001600020600101819055508181847fbd79b86ffe0ab8e8776151514217cd7cacd52c909f66475c3af44e129f0b00ff60405160405180910390a4505050565b614e128282614e1e565b5050565b600033905090565b614e28828261322e565b614efb5760016065600084815260200190815260200160002060000160008373ffffffffffffffffffffffffffffffffffffffff1673ffffffffffffffffffffffffffffffffffffffff16815260200190815260200160002060006101000a81548160ff021916908315150217905550614ea0614e16565b73ffffffffffffffffffffffffffffffffffffffff168173ffffffffffffffffffffffffffffffffffffffff16837f2f8788117e7eff1d82e926ec794901d17c78024a50270940304540a733656f0d60405160405180910390a45b5050565b60008061010860009054906101000a900473ffffffffffffffffffffffffffffffffffffffff1673ffffffffffffffffffffffffffffffffffffffff16636b68b2ef6040518163ffffffff1660e01b815260040160206040518083038186803b158015614f6b57600080fd5b505afa158015614f7f573d6000803e3d6000fd5b505050506040513d601f19601f82011682018060405250810190614fa39190617441565b9050600061010860009054906101000a900473ffffffffffffffffffffffffffffffffffffffff1673ffffffffffffffffffffffffffffffffffffffff1663afae65be6040518163ffffffff1660e01b815260040160206040518083038186803b15801561501057600080fd5b505afa158015615024573d6000803e3d6000fd5b505050506040513d601f19601f820116820180604052508101906150489190617441565b90506000610100541480615060575061505f6117d6565b5b8061506b5750808211155b1561507a5760fc54925061515a565b610100546150866149c4565b73ffffffffffffffffffffffffffffffffffffffff166370a08231306040518263ffffffff1660e01b81526004016150be9190617e01565b60206040518083038186803b1580156150d657600080fd5b505afa1580156150ea573d6000803e3d6000fd5b505050506040513d601f19601f8201168201806040525081019061510e9190617441565b6151189190618878565b92506000828260fc5461512b91906188a9565b6151359190618878565b90508084101561514757809350615158565b60fc548411156151575760fc5493505b5b505b6101115483146151a9577fc22e16deec6f587d0a1aad7275c1621e6c24431fea14dd71e8f3243e9fbc5ca361011154846040516151989291906185ea565b60405180910390a182610111819055505b505050565b6151b8828261322e565b1561528c5760006065600084815260200190815260200160002060000160008373ffffffffffffffffffffffffffffffffffffffff1673ffffffffffffffffffffffffffffffffffffffff16815260200190815260200160002060006101000a81548160ff021916908315150217905550615231614e16565b73ffffffffffffffffffffffffffffffffffffffff168173ffffffffffffffffffffffffffffffffffffffff16837ff6391f5c32d9c69d2a47ea670b442974b53935d1edc7fd64eb21e047a839171b60405160405180910390a45b5050565b60006152b8836000018373ffffffffffffffffffffffffffffffffffffffff1660001b6163a8565b905092915050565b61010860009054906101000a900473ffffffffffffffffffffffffffffffffffffffff1673ffffffffffffffffffffffffffffffffffffffff1663af2d77f86040518163ffffffff1660e01b815260040160206040518083038186803b15801561532957600080fd5b505afa15801561533d573d6000803e3d6000fd5b505050506040513d601f19601f820116820180604052508101906153619190616ef6565b73ffffffffffffffffffffffffffffffffffffffff163373ffffffffffffffffffffffffffffffffffffffff16146153ce576040517f08c379a00000000000000000000000000000000000000000000000000000000081526004016153c590618253565b60405180910390fd5b42831015615411576040517f08c379a000000000000000000000000000000000000000000000000000000000815260040161540890618093565b60405180910390fd5b600033308560405160200161542893929190617d87565b60405160208183030381529060405280519060200120905060006154a184848080601f016020809104026020016040519081016040528093929190818152602001838380828437600081840152601f19601f8201169050808301925050505050505061549384616418565b61644890919063ffffffff16565b90506154cd7f241ecf16d79d0f8dbfb92cbc07fe17840425976cf0667f022fe9877caa831b088261322e565b61550c576040517f08c379a0000000000000000000000000000000000000000000000000000000008152600401615503906184d3565b60405180910390fd5b5050505050565b600080825190505b8082101561557f5761556c83838151811061555f577f4e487b7100000000000000000000000000000000000000000000000000000000600052603260045260246000fd5b6020026020010151615850565b818061557790618b4d565b92505061551b565b505050565b6156058363a9059cbb60e01b84846040516024016155a3929190617e7c565b604051602081830303815290604052907bffffffffffffffffffffffffffffffffffffffffffffffffffffffff19166020820180517bffffffffffffffffffffffffffffffffffffffffffffffffffffffff838183161783525050505061646f565b505050565b600080825190505b8082101561571057615663838381518110615656577f4e487b7100000000000000000000000000000000000000000000000000000000600052603260045260246000fd5b6020026020010151615715565b82828151811061569c577f4e487b7100000000000000000000000000000000000000000000000000000000600052603260045260246000fd5b602002602001015173ffffffffffffffffffffffffffffffffffffffff163373ffffffffffffffffffffffffffffffffffffffff167fbb39c36a7502b7256e1a687254146a9a2ea7b146c77cb9e40eb0e2b8793781e160405160405180910390a3818061570890618b4d565b925050615612565b505050565b600061010960008373ffffffffffffffffffffffffffffffffffffffff1673ffffffffffffffffffffffffffffffffffffffff168152602001908152602001600020905060006003811115615793577f4e487b7100000000000000000000000000000000000000000000000000000000600052602160045260246000fd5b8160000160009054906101000a900460ff1660038111156157dd577f4e487b7100000000000000000000000000000000000000000000000000000000600052602160045260246000fd5b146157e8575061584d565b6157f3816001615beb565b4381600301819055506158118261010a61529090919063ffffffff16565b5061584b8266b1a2bc2ec500006158266149c4565b73ffffffffffffffffffffffffffffffffffffffff166155849092919063ffffffff16565b505b50565b600061010960008373ffffffffffffffffffffffffffffffffffffffff1673ffffffffffffffffffffffffffffffffffffffff1681526020019081526020016000209050600160038111156158ce577f4e487b7100000000000000000000000000000000000000000000000000000000600052602160045260246000fd5b8160000160009054906101000a900460ff166003811115615918577f4e487b7100000000000000000000000000000000000000000000000000000000600052602160045260246000fd5b14806159a5575060026003811115615959577f4e487b7100000000000000000000000000000000000000000000000000000000600052602160045260246000fd5b8160000160009054906101000a900460ff1660038111156159a3577f4e487b7100000000000000000000000000000000000000000000000000000000600052602160045260246000fd5b145b15615a10576159b5816003615beb565b8173ffffffffffffffffffffffffffffffffffffffff163373ffffffffffffffffffffffffffffffffffffffff167f1a6590bd0cabbfcc7c86bef99e1034054e179905cfcc294598fcd426c092244260405160405180910390a35b5050565b6000615a2282600001616536565b9050919050565b6000615a388360000183616547565b60001c905092915050565b6000609760009054906101000a900473ffffffffffffffffffffffffffffffffffffffff16905081609760006101000a81548173ffffffffffffffffffffffffffffffffffffffff021916908373ffffffffffffffffffffffffffffffffffffffff1602179055508173ffffffffffffffffffffffffffffffffffffffff168173ffffffffffffffffffffffffffffffffffffffff167f8be0079c531659141344cd1fd0a4f28419497f9722a3daafe3b4186f6b6457e060405160405180910390a35050565b600080825190505b80821015615b7557615b62838381518110615b55577f4e487b7100000000000000000000000000000000000000000000000000000000600052603260045260246000fd5b6020026020010151615eef565b8180615b6d90618b4d565b925050615b11565b505050565b600080825190505b80821015615be657615bd3838381518110615bc6577f4e487b7100000000000000000000000000000000000000000000000000000000600052603260045260246000fd5b6020026020010151616027565b8180615bde90618b4d565b925050615b82565b505050565b806003811115615c24577f4e487b7100000000000000000000000000000000000000000000000000000000600052602160045260246000fd5b8260000160009054906101000a900460ff166003811115615c6e577f4e487b7100000000000000000000000000000000000000000000000000000000600052602160045260246000fd5b1415615c7957615eeb565b60016003811115615cb3577f4e487b7100000000000000000000000000000000000000000000000000000000600052602160045260246000fd5b816003811115615cec577f4e487b7100000000000000000000000000000000000000000000000000000000600052602160045260246000fd5b1415615dd75760fc546101035460ff54615d069190618903565b1015615d47576040517f08c379a0000000000000000000000000000000000000000000000000000000008152600401615d3e90618133565b60405180910390fd5b600061010d541480615d5e575061010d5461010054105b615d9d576040517f08c379a0000000000000000000000000000000000000000000000000000000008152600401615d9490618553565b60405180910390fd5b6101006000815480929190615db190618b4d565b91905055506101035460ff6000828254615dcb9190618903565b92505081905550615e98565b60016003811115615e11577f4e487b7100000000000000000000000000000000000000000000000000000000600052602160045260246000fd5b8260000160009054906101000a900460ff166003811115615e5b577f4e487b7100000000000000000000000000000000000000000000000000000000600052602160045260246000fd5b1415615e97576101006000815480929190615e7590618af2565b91905055506101035460ff6000828254615e8f9190618822565b925050819055505b5b808260000160006101000a81548160ff02191690836003811115615ee5577f4e487b7100000000000000000000000000000000000000000000000000000000600052602160045260246000fd5b02179055505b5050565b600061010960008373ffffffffffffffffffffffffffffffffffffffff1673ffffffffffffffffffffffffffffffffffffffff168152602001908152602001600020905060016003811115615f6d577f4e487b7100000000000000000000000000000000000000000000000000000000600052602160045260246000fd5b8160000160009054906101000a900460ff166003811115615fb7577f4e487b7100000000000000000000000000000000000000000000000000000000600052602160045260246000fd5b141561602357615fc8816002615beb565b8173ffffffffffffffffffffffffffffffffffffffff163373ffffffffffffffffffffffffffffffffffffffff167f2b9ef93c7856b47a1b624fa3fcc4b651d388dd6d16327f3ad22b05f3da8b0f1560405160405180910390a35b5050565b600061010960008373ffffffffffffffffffffffffffffffffffffffff1673ffffffffffffffffffffffffffffffffffffffff1681526020019081526020016000209050600260038111156160a5577f4e487b7100000000000000000000000000000000000000000000000000000000600052602160045260246000fd5b8160000160009054906101000a900460ff1660038111156160ef577f4e487b7100000000000000000000000000000000000000000000000000000000600052602160045260246000fd5b141561615b57616100816001615beb565b8173ffffffffffffffffffffffffffffffffffffffff163373ffffffffffffffffffffffffffffffffffffffff167fa589fb4f2925123e7a030dd6bbe76be46a03f8ce0ea53a78dbb3383c7797db2c60405160405180910390a35b5050565b6161e2846323b872dd60e01b85858560405160240161618093929190617e45565b604051602081830303815290604052907bffffffffffffffffffffffffffffffffffffffffffffffffffffffff19166020820180517bffffffffffffffffffffffffffffffffffffffffffffffffffffffff838183161783525050505061646f565b50505050565b600080823b905060008111915050919050565b600060019054906101000a900460ff1661624a576040517f08c379a000000000000000000000000000000000000000000000000000000000815260040161624190618473565b60405180910390fd5b565b600060019054906101000a900460ff1661629b576040517f08c379a000000000000000000000000000000000000000000000000000000000815260040161629290618473565b60405180910390fd5b565b600060019054906101000a900460ff166162ec576040517f08c379a00000000000000000000000000000000000000000000000000000000081526004016162e390618473565b60405180910390fd5b565b600060019054906101000a900460ff1661633d576040517f08c379a000000000000000000000000000000000000000000000000000000000815260040161633490618473565b60405180910390fd5b61634d616348614e16565b615a43565b565b600060019054906101000a900460ff1661639e576040517f08c379a000000000000000000000000000000000000000000000000000000000815260040161639590618473565b60405180910390fd5b600160c981905550565b60006163b48383616598565b61640d578260000182908060018154018082558091505060019003906000526020600020016000909190919091505582600001805490508360010160008481526020019081526020016000208190555060019050616412565b600090505b92915050565b60008160405160200161642b9190617ddb565b604051602081830303815290604052805190602001209050919050565b600080600061645785856165bb565b915091506164648161663e565b819250505092915050565b60006164d1826040518060400160405280602081526020017f5361666545524332303a206c6f772d6c6576656c2063616c6c206661696c65648152508573ffffffffffffffffffffffffffffffffffffffff1661698f9092919063ffffffff16565b905060008151111561653157808060200190518101906164f19190617128565b616530576040517f08c379a000000000000000000000000000000000000000000000000000000000815260040161652790618493565b60405180910390fd5b5b505050565b600081600001805490509050919050565b6000826000018281548110616585577f4e487b7100000000000000000000000000000000000000000000000000000000600052603260045260246000fd5b9060005260206000200154905092915050565b600080836001016000848152602001908152602001600020541415905092915050565b6000806041835114156165fd5760008060006020860151925060408601519150606086015160001a90506165f1878285856169a7565b94509450505050616637565b60408351141561662e576000806020850151915060408501519050616623868383616ab4565b935093505050616637565b60006002915091505b9250929050565b60006004811115616678577f4e487b7100000000000000000000000000000000000000000000000000000000600052602160045260246000fd5b8160048111156166b1577f4e487b7100000000000000000000000000000000000000000000000000000000600052602160045260246000fd5b14156166bc5761698c565b600160048111156166f6577f4e487b7100000000000000000000000000000000000000000000000000000000600052602160045260246000fd5b81600481111561672f577f4e487b7100000000000000000000000000000000000000000000000000000000600052602160045260246000fd5b1415616770576040517f08c379a000000000000000000000000000000000000000000000000000000000815260040161676790618053565b60405180910390fd5b600260048111156167aa577f4e487b7100000000000000000000000000000000000000000000000000000000600052602160045260246000fd5b8160048111156167e3577f4e487b7100000000000000000000000000000000000000000000000000000000600052602160045260246000fd5b1415616824576040517f08c379a000000000000000000000000000000000000000000000000000000000815260040161681b906180b3565b60405180910390fd5b6003600481111561685e577f4e487b7100000000000000000000000000000000000000000000000000000000600052602160045260246000fd5b816004811115616897577f4e487b7100000000000000000000000000000000000000000000000000000000600052602160045260246000fd5b14156168d8576040517f08c379a00000000000000000000000000000000000000000000000000000000081526004016168cf90618173565b60405180910390fd5b600480811115616911577f4e487b7100000000000000000000000000000000000000000000000000000000600052602160045260246000fd5b81600481111561694a577f4e487b7100000000000000000000000000000000000000000000000000000000600052602160045260246000fd5b141561698b576040517f08c379a0000000000000000000000000000000000000000000000000000000008152600401616982906182d3565b60405180910390fd5b5b50565b606061699e8484600085616b02565b90509392505050565b6000807f7fffffffffffffffffffffffffffffff5d576e7357a4501ddfe92f46681b20a08360001c11156169e2576000600391509150616aab565b601b8560ff16141580156169fa5750601c8560ff1614155b15616a0c576000600491509150616aab565b600060018787878760405160008152602001604052604051616a319493929190617f56565b6020604051602081039080840390855afa158015616a53573d6000803e3d6000fd5b505050602060405103519050600073ffffffffffffffffffffffffffffffffffffffff168173ffffffffffffffffffffffffffffffffffffffff161415616aa257600060019250925050616aab565b80600092509250505b94509492505050565b6000806000807f7fffffffffffffffffffffffffffffffffffffffffffffffffffffffffffffff85169150601b8560ff1c019050616af4878288856169a7565b935093505050935093915050565b606082471015616b47576040517f08c379a0000000000000000000000000000000000000000000000000000000008152600401616b3e906181d3565b60405180910390fd5b616b50856161e8565b616b8f576040517f08c379a0000000000000000000000000000000000000000000000000000000008152600401616b8690618453565b60405180910390fd5b6000808673ffffffffffffffffffffffffffffffffffffffff168587604051616bb89190617dc4565b60006040518083038185875af1925050503d8060008114616bf5576040519150601f19603f3d011682016040523d82523d6000602084013e616bfa565b606091505b5091509150616c0a828286616c16565b92505050949350505050565b60608315616c2657829050616c76565b600083511115616c395782518084602001fd5b816040517f08c379a0000000000000000000000000000000000000000000000000000000008152600401616c6d9190618031565b60405180910390fd5b9392505050565b6000616c90616c8b84618719565b6186f4565b90508083825260208201905082856020860282011115616caf57600080fd5b60005b85811015616cdf5781616cc58882616ce9565b845260208401935060208301925050600181019050616cb2565b5050509392505050565b600081359050616cf88161991a565b92915050565b600081519050616d0d8161991a565b92915050565b60008083601f840112616d2557600080fd5b8235905067ffffffffffffffff811115616d3e57600080fd5b602083019150836020820283011115616d5657600080fd5b9250929050565b600082601f830112616d6e57600080fd5b8135616d7e848260208601616c7d565b91505092915050565b600081519050616d9681619931565b92915050565b600081359050616dab81619948565b92915050565b600081359050616dc08161995f565b92915050565b60008083601f840112616dd857600080fd5b8235905067ffffffffffffffff811115616df157600080fd5b602083019150836001820283011115616e0957600080fd5b9250929050565b600081359050616e1f81619976565b92915050565b600081359050616e348161998d565b92915050565b600081359050616e49816199a4565b92915050565b600081519050616e5e816199a4565b92915050565b600081519050616e73816199bb565b92915050565b600081519050616e88816199d2565b92915050565b600081519050616e9d816199e9565b92915050565b600081359050616eb2816199f9565b92915050565b600081519050616ec7816199f9565b92915050565b600060208284031215616edf57600080fd5b6000616eed84828501616ce9565b91505092915050565b600060208284031215616f0857600080fd5b6000616f1684828501616cfe565b91505092915050565b60008060008060008060008060008060006101608c8e031215616f4157600080fd5b6000616f4f8e828f01616ce9565b9b505060208c013567ffffffffffffffff811115616f6c57600080fd5b616f788e828f01616d5d565b9a50506040616f898e828f01616ea3565b9950506060616f9a8e828f01616ea3565b9850506080616fab8e828f01616ea3565b97505060a0616fbc8e828f01616ea3565b96505060c0616fcd8e828f01616ea3565b95505060e0616fde8e828f01616ea3565b945050610100616ff08e828f01616ea3565b9350506101206170028e828f01616ea3565b9250506101406170148e828f01616e25565b9150509295989b509295989b9093969950565b6000806040838503121561703a57600080fd5b600061704885828601616ce9565b925050602061705985828601616ea3565b9150509250929050565b60006020828403121561707557600080fd5b600082013567ffffffffffffffff81111561708f57600080fd5b61709b84828501616d5d565b91505092915050565b600080600080606085870312156170ba57600080fd5b600085013567ffffffffffffffff8111156170d457600080fd5b6170e087828801616d5d565b94505060206170f187828801616ea3565b935050604085013567ffffffffffffffff81111561710e57600080fd5b61711a87828801616dc6565b925092505092959194509250565b60006020828403121561713a57600080fd5b600061714884828501616d87565b91505092915050565b60006020828403121561716357600080fd5b600061717184828501616d9c565b91505092915050565b6000806040838503121561718d57600080fd5b600061719b85828601616d9c565b92505060206171ac85828601616ce9565b9150509250929050565b6000602082840312156171c857600080fd5b60006171d684828501616db1565b91505092915050565b6000602082840312156171f157600080fd5b60006171ff84828501616e10565b91505092915050565b60006020828403121561721a57600080fd5b600061722884828501616e25565b91505092915050565b60006020828403121561724357600080fd5b600061725184828501616e4f565b91505092915050565b60008060006060848603121561726f57600080fd5b600061727d86828701616e3a565b935050602061728e86828701616ce9565b925050604061729f86828701616ea3565b9150509250925092565b60008060008060008060008060e0898b0312156172c557600080fd5b60006172d38b828c01616e3a565b985050602089013567ffffffffffffffff8111156172f057600080fd5b6172fc8b828c01616d13565b9750975050604061730f8b828c01616ea3565b95505060606173208b828c01616ea3565b94505060806173318b828c01616ea3565b93505060a06173428b828c01616ea3565b92505060c06173538b828c01616ea3565b9150509295985092959890939650565b60006020828403121561737557600080fd5b600061738384828501616e64565b91505092915050565b60006020828403121561739e57600080fd5b60006173ac84828501616e79565b91505092915050565b600080600080608085870312156173cb57600080fd5b60006173d987828801616e8e565b94505060206173ea87828801616eb8565b93505060406173fb87828801616eb8565b925050606061740c87828801616eb8565b91505092959194509250565b60006020828403121561742a57600080fd5b600061743884828501616ea3565b91505092915050565b60006020828403121561745357600080fd5b600061746184828501616eb8565b91505092915050565b6000806040838503121561747d57600080fd5b600061748b85828601616ea3565b925050602061749c85828601616ea3565b9150509250929050565b600080600080600060a086880312156174be57600080fd5b60006174cc88828901616ea3565b95505060206174dd88828901616ea3565b94505060406174ee88828901616ea3565b93505060606174ff88828901616ea3565b925050608061751088828901616ea3565b9150509295509295909350565b6000617529838361754d565b60208301905092915050565b60006175418383617d43565b60208301905092915050565b61755681618937565b82525050565b61756581618937565b82525050565b61757c61757782618937565b618b96565b82525050565b600061758e83856187c2565b935061759982618745565b8060005b858110156175d2576175af828461880b565b6175b9888261751d565b97506175c48361879b565b92505060018101905061759d565b5085925050509392505050565b60006175ea8261876f565b6175f481856187c2565b93506175ff8361874f565b8060005b83811015617630578151617617888261751d565b9750617622836187a8565b925050600181019050617603565b5085935050505092915050565b60006176488261877a565b61765281856187d3565b935061765d8361875f565b8060005b8381101561768e5781516176758882617535565b9750617680836187b5565b925050600181019050617661565b5085935050505092915050565b6176a481618949565b82525050565b6176b381618955565b82525050565b6176ca6176c582618955565b618ba8565b82525050565b60006176db82618785565b6176e581856187e4565b93506176f5818560208601618abf565b80840191505092915050565b61770a81618a2f565b82525050565b61771981618a53565b82525050565b61772881618a77565b82525050565b61773781618a9b565b82525050565b61774681618aad565b82525050565b600061775782618790565b61776181856187ef565b9350617771818560208601618abf565b61777a81618c8a565b840191505092915050565b60006177926018836187ef565b915061779d82618ca8565b602082019050919050565b60006177b56031836187ef565b91506177c082618cd1565b604082019050919050565b60006177d8601c836187ef565b91506177e382618d20565b602082019050919050565b60006177fb601f836187ef565b915061780682618d49565b602082019050919050565b600061781e601c83618800565b915061782982618d72565b601c82019050919050565b6000617841603f836187ef565b915061784c82618d9b565b604082019050919050565b6000617864602c836187ef565b915061786f82618dea565b604082019050919050565b60006178876026836187ef565b915061789282618e39565b604082019050919050565b60006178aa6035836187ef565b91506178b582618e88565b604082019050919050565b60006178cd6011836187ef565b91506178d882618ed7565b602082019050919050565b60006178f06022836187ef565b91506178fb82618f00565b604082019050919050565b60006179136052836187ef565b915061791e82618f4f565b606082019050919050565b6000617936602c836187ef565b915061794182618fc4565b604082019050919050565b60006179596026836187ef565b915061796482619013565b604082019050919050565b600061797c6049836187ef565b915061798782619062565b606082019050919050565b600061799f6025836187ef565b91506179aa826190d7565b604082019050919050565b60006179c26057836187ef565b91506179cd82619126565b606082019050919050565b60006179e5602c836187ef565b91506179f08261919b565b604082019050919050565b6000617a08603a836187ef565b9150617a13826191ea565b604082019050919050565b6000617a2b6023836187ef565b9150617a3682619239565b604082019050919050565b6000617a4e602e836187ef565b9150617a5982619288565b604082019050919050565b6000617a716022836187ef565b9150617a7c826192d7565b604082019050919050565b6000617a94603a836187ef565b9150617a9f82619326565b604082019050919050565b6000617ab7604a836187ef565b9150617ac282619375565b606082019050919050565b6000617ada602c836187ef565b9150617ae5826193ea565b604082019050919050565b6000617afd6020836187ef565b9150617b0882619439565b602082019050919050565b6000617b206020836187ef565b9150617b2b82619462565b602082019050919050565b6000617b436016836187ef565b9150617b4e8261948b565b602082019050919050565b6000617b666044836187ef565b9150617b71826194b4565b606082019050919050565b6000617b896031836187ef565b9150617b9482619529565b604082019050919050565b6000617bac6047836187ef565b9150617bb782619578565b606082019050919050565b6000617bcf6019836187ef565b9150617bda826195ed565b602082019050919050565b6000617bf26037836187ef565b9150617bfd82619616565b604082019050919050565b6000617c15601d836187ef565b9150617c2082619665565b602082019050919050565b6000617c38602b836187ef565b9150617c438261968e565b604082019050919050565b6000617c5b602a836187ef565b9150617c66826196dd565b604082019050919050565b6000617c7e601f836187ef565b9150617c898261972c565b602082019050919050565b6000617ca1601c836187ef565b9150617cac82619755565b602082019050919050565b6000617cc46040836187ef565b9150617ccf8261977e565b604082019050919050565b6000617ce7603b836187ef565b9150617cf2826197cd565b604082019050919050565b6000617d0a602f836187ef565b9150617d158261981c565b604082019050919050565b6000617d2d6068836187ef565b9150617d388261986b565b608082019050919050565b617d4c81618a18565b82525050565b617d5b81618a18565b82525050565b617d72617d6d82618a18565b618bc4565b82525050565b617d8181618a22565b82525050565b6000617d93828661756b565b601482019150617da3828561756b565b601482019150617db38284617d61565b602082019150819050949350505050565b6000617dd082846176d0565b915081905092915050565b6000617de682617811565b9150617df282846176b9565b60208201915081905092915050565b6000602082019050617e16600083018461755c565b92915050565b6000604082019050617e31600083018561755c565b617e3e602083018461755c565b9392505050565b6000606082019050617e5a600083018661755c565b617e67602083018561755c565b617e746040830184617d52565b949350505050565b6000604082019050617e91600083018561755c565b617e9e6020830184617d52565b9392505050565b6000606082019050617eba600083018661755c565b617ec76020830185617d52565b617ed46040830184617d52565b949350505050565b60006020820190508181036000830152617ef681846175df565b905092915050565b60006020820190508181036000830152617f18818461763d565b905092915050565b6000602082019050617f35600083018461769b565b92915050565b6000602082019050617f5060008301846176aa565b92915050565b6000608082019050617f6b60008301876176aa565b617f786020830186617d78565b617f8560408301856176aa565b617f9260608301846176aa565b95945050505050565b6000602082019050617fb06000830184617701565b92915050565b6000602082019050617fcb6000830184617710565b92915050565b6000602082019050617fe6600083018461771f565b92915050565b6000608082019050618001600083018761772e565b61800e6020830186617d52565b61801b6040830185617d52565b6180286060830184617d52565b95945050505050565b6000602082019050818103600083015261804b818461774c565b905092915050565b6000602082019050818103600083015261806c81617785565b9050919050565b6000602082019050818103600083015261808c816177a8565b9050919050565b600060208201905081810360008301526180ac816177cb565b9050919050565b600060208201905081810360008301526180cc816177ee565b9050919050565b600060208201905081810360008301526180ec81617834565b9050919050565b6000602082019050818103600083015261810c81617857565b9050919050565b6000602082019050818103600083015261812c8161787a565b9050919050565b6000602082019050818103600083015261814c8161789d565b9050919050565b6000602082019050818103600083015261816c816178c0565b9050919050565b6000602082019050818103600083015261818c816178e3565b9050919050565b600060208201905081810360008301526181ac81617906565b9050919050565b600060208201905081810360008301526181cc81617929565b9050919050565b600060208201905081810360008301526181ec8161794c565b9050919050565b6000602082019050818103600083015261820c8161796f565b9050919050565b6000602082019050818103600083015261822c81617992565b9050919050565b6000602082019050818103600083015261824c816179b5565b9050919050565b6000602082019050818103600083015261826c816179d8565b9050919050565b6000602082019050818103600083015261828c816179fb565b9050919050565b600060208201905081810360008301526182ac81617a1e565b9050919050565b600060208201905081810360008301526182cc81617a41565b9050919050565b600060208201905081810360008301526182ec81617a64565b9050919050565b6000602082019050818103600083015261830c81617a87565b9050919050565b6000602082019050818103600083015261832c81617aaa565b9050919050565b6000602082019050818103600083015261834c81617acd565b9050919050565b6000602082019050818103600083015261836c81617af0565b9050919050565b6000602082019050818103600083015261838c81617b13565b9050919050565b600060208201905081810360008301526183ac81617b36565b9050919050565b600060208201905081810360008301526183cc81617b59565b9050919050565b600060208201905081810360008301526183ec81617b7c565b9050919050565b6000602082019050818103600083015261840c81617b9f565b9050919050565b6000602082019050818103600083015261842c81617bc2565b9050919050565b6000602082019050818103600083015261844c81617be5565b9050919050565b6000602082019050818103600083015261846c81617c08565b9050919050565b6000602082019050818103600083015261848c81617c2b565b9050919050565b600060208201905081810360008301526184ac81617c4e565b9050919050565b600060208201905081810360008301526184cc81617c71565b9050919050565b600060208201905081810360008301526184ec81617c94565b9050919050565b6000602082019050818103600083015261850c81617cb7565b9050919050565b6000602082019050818103600083015261852c81617cda565b9050919050565b6000602082019050818103600083015261854c81617cfd565b9050919050565b6000602082019050818103600083015261856c81617d20565b9050919050565b60006020820190506185886000830184617d52565b92915050565b600060a0820190506185a36000830189617d52565b6185b0602083018861773d565b81810360408301526185c3818688617582565b90506185d2606083018561755c565b6185df6080830184617d52565b979650505050505050565b60006040820190506185ff6000830185617d52565b61860c6020830184617d52565b9392505050565b60006080820190506186286000830187617d52565b6186356020830186617d52565b6186426040830185617d52565b61864f6060830184617d52565b95945050505050565b60006101408201905061866e600083018d617d52565b61867b602083018c617d52565b618688604083018b617d52565b618695606083018a617d52565b6186a26080830189617d52565b6186af60a0830188617d52565b6186bc60c0830187617d52565b6186c960e0830186617d52565b6186d7610100830185617d52565b6186e5610120830184617d52565b9b9a5050505050505050505050565b60006186fe61870f565b905061870a8282618b1c565b919050565b6000604051905090565b600067ffffffffffffffff82111561873457618733618c5b565b5b602082029050602081019050919050565b6000819050919050565b6000819050602082019050919050565b6000819050602082019050919050565b600081519050919050565b600081519050919050565b600081519050919050565b600081519050919050565b6000602082019050919050565b6000602082019050919050565b6000602082019050919050565b600082825260208201905092915050565b600082825260208201905092915050565b600081905092915050565b600082825260208201905092915050565b600081905092915050565b600061881a6020840184616ce9565b905092915050565b600061882d82618a18565b915061883883618a18565b9250827fffffffffffffffffffffffffffffffffffffffffffffffffffffffffffffffff0382111561886d5761886c618bce565b5b828201905092915050565b600061888382618a18565b915061888e83618a18565b92508261889e5761889d618bfd565b5b828204905092915050565b60006188b482618a18565b91506188bf83618a18565b9250817fffffffffffffffffffffffffffffffffffffffffffffffffffffffffffffffff04831182151516156188f8576188f7618bce565b5b828202905092915050565b600061890e82618a18565b915061891983618a18565b92508282101561892c5761892b618bce565b5b828203905092915050565b6000618942826189f8565b9050919050565b60008115159050919050565b6000819050919050565b60007fffffffff0000000000000000000000000000000000000000000000000000000082169050919050565b600061899682618937565b9050919050565b60006189a882618937565b9050919050565b60006189ba82618937565b9050919050565b60006189cc82618937565b9050919050565b60006189de82618937565b9050919050565b60008190506189f382619906565b919050565b600073ffffffffffffffffffffffffffffffffffffffff82169050919050565b6000819050919050565b600060ff82169050919050565b6000618a3a82618a41565b9050919050565b6000618a4c826189f8565b9050919050565b6000618a5e82618a65565b9050919050565b6000618a70826189f8565b9050919050565b6000618a8282618a89565b9050919050565b6000618a94826189f8565b9050919050565b6000618aa6826189e5565b9050919050565b6000618ab882618a18565b9050919050565b60005b83811015618add578082015181840152602081019050618ac2565b83811115618aec576000848401525b50505050565b6000618afd82618a18565b91506000821415618b1157618b10618bce565b5b600182039050919050565b618b2582618c8a565b810181811067ffffffffffffffff82111715618b4457618b43618c5b565b5b80604052505050565b6000618b5882618a18565b91507fffffffffffffffffffffffffffffffffffffffffffffffffffffffffffffffff821415618b8b57618b8a618bce565b5b600182019050919050565b6000618ba182618bb2565b9050919050565b6000819050919050565b6000618bbd82618c9b565b9050919050565b6000819050919050565b7f4e487b7100000000000000000000000000000000000000000000000000000000600052601160045260246000fd5b7f4e487b7100000000000000000000000000000000000000000000000000000000600052601260045260246000fd5b7f4e487b7100000000000000000000000000000000000000000000000000000000600052602160045260246000fd5b7f4e487b7100000000000000000000000000000000000000000000000000000000600052604160045260246000fd5b6000601f19601f8301169050919050565b60008160601b9050919050565b7f45434453413a20696e76616c6964207369676e61747572650000000000000000600082015250565b7f436f6d6d756e6974793a3a757064617465546f6b656e3a20546f6b656e206c6960008201527f7374206c656e67746820746f6f20626967000000000000000000000000000000602082015250565b7f436f6d6d756e6974793a205369676e617475726520746f6f206f6c6400000000600082015250565b7f45434453413a20696e76616c6964207369676e6174757265206c656e67746800600082015250565b7f19457468657265756d205369676e6564204d6573736167653a0a333200000000600082015250565b7f436f6d6d756e6974793a3a75706461746542656e65666963696172795061726160008201527f6d733a206f726967696e616c436c61696d416d6f756e7420746f6f2062696700602082015250565b7f436f6d6d756e6974793a204e4f545f4f574e45525f4f525f414d42415353414460008201527f4f525f4f525f454e544954590000000000000000000000000000000000000000602082015250565b7f4f776e61626c653a206e6577206f776e657220697320746865207a65726f206160008201527f6464726573730000000000000000000000000000000000000000000000000000602082015250565b7f436f6d6d756e6974793a3a5f6368616e676542656e656669636961727953746160008201527f74653a204d617820636c61696d20746f6f206c6f770000000000000000000000602082015250565b7f436f6d6d756e6974793a206c6f636b6564000000000000000000000000000000600082015250565b7f45434453413a20696e76616c6964207369676e6174757265202773272076616c60008201527f7565000000000000000000000000000000000000000000000000000000000000602082015250565b7f436f6d6d756e6974793a3a757064617465436f6d6d756e697479506172616d7360008201527f3a206d696e5472616e6368652073686f756c64206e6f7420626520677265617460208201527f6572207468616e206d61785472616e6368650000000000000000000000000000604082015250565b7f436f6d6d756e6974793a3a757064617465546f6b656e3a20696e76616c69642060008201527f65786368616e6765506174680000000000000000000000000000000000000000602082015250565b7f416464726573733a20696e73756666696369656e742062616c616e636520666f60008201527f722063616c6c0000000000000000000000000000000000000000000000000000602082015250565b7f436f6d6d756e6974793a3a757064617465546f6b656e3a204e657720746f6b6560008201527f6e2063616e6e6f74206265207468652073616d6520617320746865206375727260208201527f656e7420746f6b656e0000000000000000000000000000000000000000000000604082015250565b7f436f6d6d756e6974793a3a757064617465546f6b656e3a20496e76616c69642060008201527f746f6b656e000000000000000000000000000000000000000000000000000000602082015250565b7f436f6d6d756e6974793a3a75706461746542656e65666963696172795061726160008201527f6d733a2062617365496e74657276616c206d757374206265206772656174657260208201527f207468616e20696e6372656d656e74496e74657276616c000000000000000000604082015250565b7f436f6d6d756e6974793a2053656e646572206d7573742062652074686520626160008201527f636b656e642077616c6c65740000000000000000000000000000000000000000602082015250565b7f436f6d6d756e6974793a3a6772616e74526f6c653a20596f7520617265206e6f60008201527f7420616c6c6f7720746f207573652074686973206d6574686f64000000000000602082015250565b7f436f6d6d756e6974793a204e4f545f414d4241535341444f525f4f525f454e5460008201527f4954590000000000000000000000000000000000000000000000000000000000602082015250565b7f496e697469616c697a61626c653a20636f6e747261637420697320616c72656160008201527f647920696e697469616c697a6564000000000000000000000000000000000000602082015250565b7f45434453413a20696e76616c6964207369676e6174757265202776272076616c60008201527f7565000000000000000000000000000000000000000000000000000000000000602082015250565b7f436f6d6d756e6974793a3a62656e65666963696172794a6f696e46726f6d4d6960008201527f6772617465643a2042656e656669636961727920657869737473000000000000602082015250565b7f436f6d6d756e6974793a3a696e697469616c697a653a2062617365496e74657260008201527f76616c206d7573742062652067726561746572207468616e20696e6372656d6560208201527f6e74496e74657276616c00000000000000000000000000000000000000000000604082015250565b7f436f6d6d756e6974793a3a636c61696d3a20416c726561647920636c61696d6560008201527f642065766572797468696e670000000000000000000000000000000000000000602082015250565b7f4f776e61626c653a2063616c6c6572206973206e6f7420746865206f776e6572600082015250565b7f436f6d6d756e6974793a204e4f545f56414c49445f42454e4546494349415259600082015250565b7f436f6d6d756e6974793a204e4f545f4d414e4147455200000000000000000000600082015250565b7f436f6d6d756e6974793a3a72656d6f76654d616e616765723a20596f7520617260008201527f65206e6f7420616c6c6f7720746f2072656d6f766520636f6d6d756e6974794160208201527f646d696e00000000000000000000000000000000000000000000000000000000604082015250565b7f436f6d6d756e6974793a3a696e697469616c697a653a206f726967696e616c4360008201527f6c61696d416d6f756e7420746f20626967000000000000000000000000000000602082015250565b7f436f6d6d756e6974793a3a696e697469616c697a653a206d696e5472616e636860008201527f652073686f756c64206e6f742062652067726561746572207468616e206d617860208201527f5472616e63686500000000000000000000000000000000000000000000000000604082015250565b7f436f6d6d756e6974793a3a636c61696d3a204e4f545f59455400000000000000600082015250565b7f436f6d6d756e6974793a3a7265717565737446756e64733a205468697320636f60008201527f6f6d756e6974792069732073656c662d66756e64696e67000000000000000000602082015250565b7f416464726573733a2063616c6c20746f206e6f6e2d636f6e7472616374000000600082015250565b7f496e697469616c697a61626c653a20636f6e7472616374206973206e6f74206960008201527f6e697469616c697a696e67000000000000000000000000000000000000000000602082015250565b7f5361666545524332303a204552433230206f7065726174696f6e20646964206e60008201527f6f74207375636365656400000000000000000000000000000000000000000000602082015250565b7f5265656e7472616e637947756172643a207265656e7472616e742063616c6c00600082015250565b7f436f6d6d756e6974793a20496e76616c6964207369676e617475726500000000600082015250565b7f436f6d6d756e6974793a3a72656d6f76654d616e616765723a2054686973206160008201527f63636f756e7420646f65736e27742068617665206d616e6167657220726f6c65602082015250565b7f436f6d6d756e6974793a3a7265766f6b65526f6c653a20596f7520617265206e60008201527f6f7420616c6c6f7720746f207573652074686973206d6574686f640000000000602082015250565b7f416363657373436f6e74726f6c3a2063616e206f6e6c792072656e6f756e636560008201527f20726f6c657320666f722073656c660000000000000000000000000000000000602082015250565b7f436f6d6d756e6974793a3a5f6368616e676542656e656669636961727953746160008201527f74653a205468697320636f6d6d756e697479206861732072656163686564207460208201527f6865206d6178696d756d206e756d626572206f662076616c69642062656e656660408201527f6963696172696573000000000000000000000000000000000000000000000000606082015250565b6004811061991757619916618c2c565b5b50565b61992381618937565b811461992e57600080fd5b50565b61993a81618949565b811461994557600080fd5b50565b61995181618955565b811461995c57600080fd5b50565b6199688161895f565b811461997357600080fd5b50565b61997f8161898b565b811461998a57600080fd5b50565b6199968161899d565b81146199a157600080fd5b50565b6199ad816189af565b81146199b857600080fd5b50565b6199c4816189c1565b81146199cf57600080fd5b50565b6199db816189d3565b81146199e657600080fd5b50565b600481106199f657600080fd5b50565b619a0281618a18565b8114619a0d57600080fd5b5056fea264697066735822122083fd58886a310c2d5a48315f37f995c6cdb1ba8fe3c72bdccf1db7cdc17e772f64736f6c63430008040033",
			"opcodes": "PUSH1 0x80 PUSH1 0x40 MSTORE CALLVALUE DUP1 ISZERO PUSH3 0x11 JUMPI PUSH1 0x0 DUP1 REVERT JUMPDEST POP PUSH2 0x9A46 DUP1 PUSH3 0x22 PUSH1 0x0 CODECOPY PUSH1 0x0 RETURN INVALID PUSH1 0x80 PUSH1 0x40 MSTORE CALLVALUE DUP1 ISZERO PUSH2 0x10 JUMPI PUSH1 0x0 DUP1 REVERT JUMPDEST POP PUSH1 0x4 CALLDATASIZE LT PUSH2 0x428 JUMPI PUSH1 0x0 CALLDATALOAD PUSH1 0xE0 SHR DUP1 PUSH4 0x91D14854 GT PUSH2 0x22B JUMPI DUP1 PUSH4 0xC76A890C GT PUSH2 0x130 JUMPI DUP1 PUSH4 0xDD4414BB GT PUSH2 0xB8 JUMPI DUP1 PUSH4 0xECD0C0C3 GT PUSH2 0x87 JUMPI DUP1 PUSH4 0xECD0C0C3 EQ PUSH2 0xC26 JUMPI DUP1 PUSH4 0xF2FDE38B EQ PUSH2 0xC44 JUMPI DUP1 PUSH4 0xF83D08BA EQ PUSH2 0xC60 JUMPI DUP1 PUSH4 0xFB7B0A0C EQ PUSH2 0xC6A JUMPI DUP1 PUSH4 0xFC0C546A EQ PUSH2 0xC88 JUMPI PUSH2 0x428 JUMP JUMPDEST DUP1 PUSH4 0xDD4414BB EQ PUSH2 0xBB2 JUMPI DUP1 PUSH4 0xE25C25F3 EQ PUSH2 0xBD0 JUMPI DUP1 PUSH4 0xE69D849D EQ PUSH2 0xBEC JUMPI DUP1 PUSH4 0xEB0376B1 EQ PUSH2 0xC08 JUMPI PUSH2 0x428 JUMP JUMPDEST DUP1 PUSH4 0xD33D4EC6 GT PUSH2 0xFF JUMPI DUP1 PUSH4 0xD33D4EC6 EQ PUSH2 0xB20 JUMPI DUP1 PUSH4 0xD4938DB3 EQ PUSH2 0xB3C JUMPI DUP1 PUSH4 0xD547741F EQ PUSH2 0xB5A JUMPI DUP1 PUSH4 0xD6DBD972 EQ PUSH2 0xB76 JUMPI DUP1 PUSH4 0xD92FC67B EQ PUSH2 0xB94 JUMPI PUSH2 0x428 JUMP JUMPDEST DUP1 PUSH4 0xC76A890C EQ PUSH2 0xAAE JUMPI DUP1 PUSH4 0xCF309012 EQ PUSH2 0xACA JUMPI DUP1 PUSH4 0xD04C41B6 EQ PUSH2 0xAE8 JUMPI DUP1 PUSH4 0xD10F5107 EQ PUSH2 0xB04 JUMPI PUSH2 0x428 JUMP JUMPDEST DUP1 PUSH4 0xA57E08CA GT PUSH2 0x1B3 JUMPI DUP1 PUSH4 0xB026BA57 GT PUSH2 0x182 JUMPI DUP1 PUSH4 0xB026BA57 EQ PUSH2 0xA32 JUMPI DUP1 PUSH4 0xB809EE82 EQ PUSH2 0xA3C JUMPI DUP1 PUSH4 0xBEABACC8 EQ PUSH2 0xA58 JUMPI DUP1 PUSH4 0xC0E27B6B EQ PUSH2 0xA74 JUMPI DUP1 PUSH4 0xC51FAB3C EQ PUSH2 0xA90 JUMPI PUSH2 0x428 JUMP JUMPDEST DUP1 PUSH4 0xA57E08CA EQ PUSH2 0x9C0 JUMPI DUP1 PUSH4 0xA69DF4B5 EQ PUSH2 0x9DC JUMPI DUP1 PUSH4 0xA8F3E063 EQ PUSH2 0x9E6 JUMPI DUP1 PUSH4 0xAC18DE43 EQ PUSH2 0xA16 JUMPI PUSH2 0x428 JUMP JUMPDEST DUP1 PUSH4 0x9E2C58CA GT PUSH2 0x1FA JUMPI DUP1 PUSH4 0x9E2C58CA EQ PUSH2 0x92C JUMPI DUP1 PUSH4 0xA0F93A17 EQ PUSH2 0x94A JUMPI DUP1 PUSH4 0xA217FDDF EQ PUSH2 0x968 JUMPI DUP1 PUSH4 0xA38540EE EQ PUSH2 0x986 JUMPI DUP1 PUSH4 0xA3C6E411 EQ PUSH2 0x9A4 JUMPI PUSH2 0x428 JUMP JUMPDEST DUP1 PUSH4 0x91D14854 EQ PUSH2 0x892 JUMPI DUP1 PUSH4 0x94E13748 EQ PUSH2 0x8C2 JUMPI DUP1 PUSH4 0x9C01A401 EQ PUSH2 0x8DE JUMPI DUP1 PUSH4 0x9CECF572 EQ PUSH2 0x8FC JUMPI PUSH2 0x428 JUMP JUMPDEST DUP1 PUSH4 0x3A578A0C GT PUSH2 0x331 JUMPI DUP1 PUSH4 0x5FAC917A GT PUSH2 0x2B9 JUMPI DUP1 PUSH4 0x78BA280F GT PUSH2 0x288 JUMPI DUP1 PUSH4 0x78BA280F EQ PUSH2 0x800 JUMPI DUP1 PUSH4 0x7E2959DC EQ PUSH2 0x81E JUMPI DUP1 PUSH4 0x830953AB EQ PUSH2 0x83A JUMPI DUP1 PUSH4 0x89554F17 EQ PUSH2 0x858 JUMPI DUP1 PUSH4 0x8DA5CB5B EQ PUSH2 0x874 JUMPI PUSH2 0x428 JUMP JUMPDEST DUP1 PUSH4 0x5FAC917A EQ PUSH2 0x778 JUMPI DUP1 PUSH4 0x6B31F2AD EQ PUSH2 0x796 JUMPI DUP1 PUSH4 0x715018A6 EQ PUSH2 0x7C6 JUMPI DUP1 PUSH4 0x785393DB EQ PUSH2 0x7D0 JUMPI PUSH2 0x428 JUMP JUMPDEST DUP1 PUSH4 0x57C36327 GT PUSH2 0x300 JUMPI DUP1 PUSH4 0x57C36327 EQ PUSH2 0x6E8 JUMPI DUP1 PUSH4 0x590411DA EQ PUSH2 0x706 JUMPI DUP1 PUSH4 0x5926651D EQ PUSH2 0x722 JUMPI DUP1 PUSH4 0x59633A1C EQ PUSH2 0x73E JUMPI DUP1 PUSH4 0x597BE18B EQ PUSH2 0x75A JUMPI PUSH2 0x428 JUMP JUMPDEST DUP1 PUSH4 0x3A578A0C EQ PUSH2 0x670 JUMPI DUP1 PUSH4 0x431A801A EQ PUSH2 0x68E JUMPI DUP1 PUSH4 0x4E71D92D EQ PUSH2 0x6AC JUMPI DUP1 PUSH4 0x4F64B2BE EQ PUSH2 0x6B6 JUMPI PUSH2 0x428 JUMP JUMPDEST DUP1 PUSH4 0x2B271117 GT PUSH2 0x3B4 JUMPI DUP1 PUSH4 0x300C12FE GT PUSH2 0x383 JUMPI DUP1 PUSH4 0x300C12FE EQ PUSH2 0x5E2 JUMPI DUP1 PUSH4 0x305FF654 EQ PUSH2 0x600 JUMPI DUP1 PUSH4 0x36568ABE EQ PUSH2 0x61C JUMPI DUP1 PUSH4 0x3783946A EQ PUSH2 0x638 JUMPI DUP1 PUSH4 0x37E556DD EQ PUSH2 0x654 JUMPI PUSH2 0x428 JUMP JUMPDEST DUP1 PUSH4 0x2B271117 EQ PUSH2 0x570 JUMPI DUP1 PUSH4 0x2D06177A EQ PUSH2 0x58E JUMPI DUP1 PUSH4 0x2F2FF15D EQ PUSH2 0x5AA JUMPI DUP1 PUSH4 0x2FD79103 EQ PUSH2 0x5C6 JUMPI PUSH2 0x428 JUMP JUMPDEST DUP1 PUSH4 0xD8E6E2C GT PUSH2 0x3FB JUMPI DUP1 PUSH4 0xD8E6E2C EQ PUSH2 0x4CA JUMPI DUP1 PUSH4 0xE5B7C53 EQ PUSH2 0x4E8 JUMPI DUP1 PUSH4 0x1912CDB4 EQ PUSH2 0x506 JUMPI DUP1 PUSH4 0x1FCCF672 EQ PUSH2 0x522 JUMPI DUP1 PUSH4 0x248A9CA3 EQ PUSH2 0x540 JUMPI PUSH2 0x428 JUMP JUMPDEST DUP1 PUSH4 0x1567739 EQ PUSH2 0x42D JUMPI DUP1 PUSH4 0x1FFC9A7 EQ PUSH2 0x460 JUMPI DUP1 PUSH4 0x9C338C3 EQ PUSH2 0x490 JUMPI DUP1 PUSH4 0xB4E7817 EQ PUSH2 0x4AE JUMPI JUMPDEST PUSH1 0x0 DUP1 REVERT JUMPDEST PUSH2 0x447 PUSH1 0x4 DUP1 CALLDATASIZE SUB DUP2 ADD SWAP1 PUSH2 0x442 SWAP2 SWAP1 PUSH2 0x6ECD JUMP JUMPDEST PUSH2 0xCA6 JUMP JUMPDEST PUSH1 0x40 MLOAD PUSH2 0x457 SWAP5 SWAP4 SWAP3 SWAP2 SWAP1 PUSH2 0x7FEC JUMP JUMPDEST PUSH1 0x40 MLOAD DUP1 SWAP2 SUB SWAP1 RETURN JUMPDEST PUSH2 0x47A PUSH1 0x4 DUP1 CALLDATASIZE SUB DUP2 ADD SWAP1 PUSH2 0x475 SWAP2 SWAP1 PUSH2 0x71B6 JUMP JUMPDEST PUSH2 0xD25 JUMP JUMPDEST PUSH1 0x40 MLOAD PUSH2 0x487 SWAP2 SWAP1 PUSH2 0x7F20 JUMP JUMPDEST PUSH1 0x40 MLOAD DUP1 SWAP2 SUB SWAP1 RETURN JUMPDEST PUSH2 0x498 PUSH2 0xD9F JUMP JUMPDEST PUSH1 0x40 MLOAD PUSH2 0x4A5 SWAP2 SWAP1 PUSH2 0x8573 JUMP JUMPDEST PUSH1 0x40 MLOAD DUP1 SWAP2 SUB SWAP1 RETURN JUMPDEST PUSH2 0x4C8 PUSH1 0x4 DUP1 CALLDATASIZE SUB DUP2 ADD SWAP1 PUSH2 0x4C3 SWAP2 SWAP1 PUSH2 0x6F1F JUMP JUMPDEST PUSH2 0xDA6 JUMP JUMPDEST STOP JUMPDEST PUSH2 0x4D2 PUSH2 0x11BF JUMP JUMPDEST PUSH1 0x40 MLOAD PUSH2 0x4DF SWAP2 SWAP1 PUSH2 0x8573 JUMP JUMPDEST PUSH1 0x40 MLOAD DUP1 SWAP2 SUB SWAP1 RETURN JUMPDEST PUSH2 0x4F0 PUSH2 0x11C8 JUMP JUMPDEST PUSH1 0x40 MLOAD PUSH2 0x4FD SWAP2 SWAP1 PUSH2 0x8573 JUMP JUMPDEST PUSH1 0x40 MLOAD DUP1 SWAP2 SUB SWAP1 RETURN JUMPDEST PUSH2 0x520 PUSH1 0x4 DUP1 CALLDATASIZE SUB DUP2 ADD SWAP1 PUSH2 0x51B SWAP2 SWAP1 PUSH2 0x746A JUMP JUMPDEST PUSH2 0x11CE JUMP JUMPDEST STOP JUMPDEST PUSH2 0x52A PUSH2 0x12E4 JUMP JUMPDEST PUSH1 0x40 MLOAD PUSH2 0x537 SWAP2 SWAP1 PUSH2 0x7FD1 JUMP JUMPDEST PUSH1 0x40 MLOAD DUP1 SWAP2 SUB SWAP1 RETURN JUMPDEST PUSH2 0x55A PUSH1 0x4 DUP1 CALLDATASIZE SUB DUP2 ADD SWAP1 PUSH2 0x555 SWAP2 SWAP1 PUSH2 0x7151 JUMP JUMPDEST PUSH2 0x140D JUMP JUMPDEST PUSH1 0x40 MLOAD PUSH2 0x567 SWAP2 SWAP1 PUSH2 0x7F3B JUMP JUMPDEST PUSH1 0x40 MLOAD DUP1 SWAP2 SUB SWAP1 RETURN JUMPDEST PUSH2 0x578 PUSH2 0x142D JUMP JUMPDEST PUSH1 0x40 MLOAD PUSH2 0x585 SWAP2 SWAP1 PUSH2 0x8573 JUMP JUMPDEST PUSH1 0x40 MLOAD DUP1 SWAP2 SUB SWAP1 RETURN JUMPDEST PUSH2 0x5A8 PUSH1 0x4 DUP1 CALLDATASIZE SUB DUP2 ADD SWAP1 PUSH2 0x5A3 SWAP2 SWAP1 PUSH2 0x6ECD JUMP JUMPDEST PUSH2 0x1434 JUMP JUMPDEST STOP JUMPDEST PUSH2 0x5C4 PUSH1 0x4 DUP1 CALLDATASIZE SUB DUP2 ADD SWAP1 PUSH2 0x5BF SWAP2 SWAP1 PUSH2 0x717A JUMP JUMPDEST PUSH2 0x15D7 JUMP JUMPDEST STOP JUMPDEST PUSH2 0x5E0 PUSH1 0x4 DUP1 CALLDATASIZE SUB DUP2 ADD SWAP1 PUSH2 0x5DB SWAP2 SWAP1 PUSH2 0x74A6 JUMP JUMPDEST PUSH2 0x161C JUMP JUMPDEST STOP JUMPDEST PUSH2 0x5EA PUSH2 0x17D6 JUMP JUMPDEST PUSH1 0x40 MLOAD PUSH2 0x5F7 SWAP2 SWAP1 PUSH2 0x7F20 JUMP JUMPDEST PUSH1 0x40 MLOAD DUP1 SWAP2 SUB SWAP1 RETURN JUMPDEST PUSH2 0x61A PUSH1 0x4 DUP1 CALLDATASIZE SUB DUP2 ADD SWAP1 PUSH2 0x615 SWAP2 SWAP1 PUSH2 0x7418 JUMP JUMPDEST PUSH2 0x17E3 JUMP JUMPDEST STOP JUMPDEST PUSH2 0x636 PUSH1 0x4 DUP1 CALLDATASIZE SUB DUP2 ADD SWAP1 PUSH2 0x631 SWAP2 SWAP1 PUSH2 0x717A JUMP JUMPDEST PUSH2 0x1954 JUMP JUMPDEST STOP JUMPDEST PUSH2 0x652 PUSH1 0x4 DUP1 CALLDATASIZE SUB DUP2 ADD SWAP1 PUSH2 0x64D SWAP2 SWAP1 PUSH2 0x72A9 JUMP JUMPDEST PUSH2 0x19D7 JUMP JUMPDEST STOP JUMPDEST PUSH2 0x66E PUSH1 0x4 DUP1 CALLDATASIZE SUB DUP2 ADD SWAP1 PUSH2 0x669 SWAP2 SWAP1 PUSH2 0x70A4 JUMP JUMPDEST PUSH2 0x23B3 JUMP JUMPDEST STOP JUMPDEST PUSH2 0x678 PUSH2 0x23CD JUMP JUMPDEST PUSH1 0x40 MLOAD PUSH2 0x685 SWAP2 SWAP1 PUSH2 0x7FB6 JUMP JUMPDEST PUSH1 0x40 MLOAD DUP1 SWAP2 SUB SWAP1 RETURN JUMPDEST PUSH2 0x696 PUSH2 0x23F4 JUMP JUMPDEST PUSH1 0x40 MLOAD PUSH2 0x6A3 SWAP2 SWAP1 PUSH2 0x8573 JUMP JUMPDEST PUSH1 0x40 MLOAD DUP1 SWAP2 SUB SWAP1 RETURN JUMPDEST PUSH2 0x6B4 PUSH2 0x23FB JUMP JUMPDEST STOP JUMPDEST PUSH2 0x6D0 PUSH1 0x4 DUP1 CALLDATASIZE SUB DUP2 ADD SWAP1 PUSH2 0x6CB SWAP2 SWAP1 PUSH2 0x7418 JUMP JUMPDEST PUSH2 0x291C JUMP JUMPDEST PUSH1 0x40 MLOAD PUSH2 0x6DF SWAP4 SWAP3 SWAP2 SWAP1 PUSH2 0x7EA5 JUMP JUMPDEST PUSH1 0x40 MLOAD DUP1 SWAP2 SUB SWAP1 RETURN JUMPDEST PUSH2 0x6F0 PUSH2 0x2977 JUMP JUMPDEST PUSH1 0x40 MLOAD PUSH2 0x6FD SWAP2 SWAP1 PUSH2 0x8573 JUMP JUMPDEST PUSH1 0x40 MLOAD DUP1 SWAP2 SUB SWAP1 RETURN JUMPDEST PUSH2 0x720 PUSH1 0x4 DUP1 CALLDATASIZE SUB DUP2 ADD SWAP1 PUSH2 0x71B SWAP2 SWAP1 PUSH2 0x7063 JUMP JUMPDEST PUSH2 0x299D JUMP JUMPDEST STOP JUMPDEST PUSH2 0x73C PUSH1 0x4 DUP1 CALLDATASIZE SUB DUP2 ADD SWAP1 PUSH2 0x737 SWAP2 SWAP1 PUSH2 0x6ECD JUMP JUMPDEST PUSH2 0x2AB8 JUMP JUMPDEST STOP JUMPDEST PUSH2 0x758 PUSH1 0x4 DUP1 CALLDATASIZE SUB DUP2 ADD SWAP1 PUSH2 0x753 SWAP2 SWAP1 PUSH2 0x6ECD JUMP JUMPDEST PUSH2 0x2C2D JUMP JUMPDEST STOP JUMPDEST PUSH2 0x762 PUSH2 0x2CA2 JUMP JUMPDEST PUSH1 0x40 MLOAD PUSH2 0x76F SWAP2 SWAP1 PUSH2 0x8573 JUMP JUMPDEST PUSH1 0x40 MLOAD DUP1 SWAP2 SUB SWAP1 RETURN JUMPDEST PUSH2 0x780 PUSH2 0x2CA8 JUMP JUMPDEST PUSH1 0x40 MLOAD PUSH2 0x78D SWAP2 SWAP1 PUSH2 0x7F9B JUMP JUMPDEST PUSH1 0x40 MLOAD DUP1 SWAP2 SUB SWAP1 RETURN JUMPDEST PUSH2 0x7B0 PUSH1 0x4 DUP1 CALLDATASIZE SUB DUP2 ADD SWAP1 PUSH2 0x7AB SWAP2 SWAP1 PUSH2 0x6ECD JUMP JUMPDEST PUSH2 0x2CCF JUMP JUMPDEST PUSH1 0x40 MLOAD PUSH2 0x7BD SWAP2 SWAP1 PUSH2 0x7EFE JUMP JUMPDEST PUSH1 0x40 MLOAD DUP1 SWAP2 SUB SWAP1 RETURN JUMPDEST PUSH2 0x7CE PUSH2 0x2F2E JUMP JUMPDEST STOP JUMPDEST PUSH2 0x7EA PUSH1 0x4 DUP1 CALLDATASIZE SUB DUP2 ADD SWAP1 PUSH2 0x7E5 SWAP2 SWAP1 PUSH2 0x7418 JUMP JUMPDEST PUSH2 0x2FB6 JUMP JUMPDEST PUSH1 0x40 MLOAD PUSH2 0x7F7 SWAP2 SWAP1 PUSH2 0x7E01 JUMP JUMPDEST PUSH1 0x40 MLOAD DUP1 SWAP2 SUB SWAP1 RETURN JUMPDEST PUSH2 0x808 PUSH2 0x2FD4 JUMP JUMPDEST PUSH1 0x40 MLOAD PUSH2 0x815 SWAP2 SWAP1 PUSH2 0x8573 JUMP JUMPDEST PUSH1 0x40 MLOAD DUP1 SWAP2 SUB SWAP1 RETURN JUMPDEST PUSH2 0x838 PUSH1 0x4 DUP1 CALLDATASIZE SUB DUP2 ADD SWAP1 PUSH2 0x833 SWAP2 SWAP1 PUSH2 0x7208 JUMP JUMPDEST PUSH2 0x2FFA JUMP JUMPDEST STOP JUMPDEST PUSH2 0x842 PUSH2 0x3138 JUMP JUMPDEST PUSH1 0x40 MLOAD PUSH2 0x84F SWAP2 SWAP1 PUSH2 0x8573 JUMP JUMPDEST PUSH1 0x40 MLOAD DUP1 SWAP2 SUB SWAP1 RETURN JUMPDEST PUSH2 0x872 PUSH1 0x4 DUP1 CALLDATASIZE SUB DUP2 ADD SWAP1 PUSH2 0x86D SWAP2 SWAP1 PUSH2 0x7063 JUMP JUMPDEST PUSH2 0x313F JUMP JUMPDEST STOP JUMPDEST PUSH2 0x87C PUSH2 0x3204 JUMP JUMPDEST PUSH1 0x40 MLOAD PUSH2 0x889 SWAP2 SWAP1 PUSH2 0x7E01 JUMP JUMPDEST PUSH1 0x40 MLOAD DUP1 SWAP2 SUB SWAP1 RETURN JUMPDEST PUSH2 0x8AC PUSH1 0x4 DUP1 CALLDATASIZE SUB DUP2 ADD SWAP1 PUSH2 0x8A7 SWAP2 SWAP1 PUSH2 0x717A JUMP JUMPDEST PUSH2 0x322E JUMP JUMPDEST PUSH1 0x40 MLOAD PUSH2 0x8B9 SWAP2 SWAP1 PUSH2 0x7F20 JUMP JUMPDEST PUSH1 0x40 MLOAD DUP1 SWAP2 SUB SWAP1 RETURN JUMPDEST PUSH2 0x8DC PUSH1 0x4 DUP1 CALLDATASIZE SUB DUP2 ADD SWAP1 PUSH2 0x8D7 SWAP2 SWAP1 PUSH2 0x70A4 JUMP JUMPDEST PUSH2 0x3299 JUMP JUMPDEST STOP JUMPDEST PUSH2 0x8E6 PUSH2 0x3303 JUMP JUMPDEST PUSH1 0x40 MLOAD PUSH2 0x8F3 SWAP2 SWAP1 PUSH2 0x8573 JUMP JUMPDEST PUSH1 0x40 MLOAD DUP1 SWAP2 SUB SWAP1 RETURN JUMPDEST PUSH2 0x916 PUSH1 0x4 DUP1 CALLDATASIZE SUB DUP2 ADD SWAP1 PUSH2 0x911 SWAP2 SWAP1 PUSH2 0x6ECD JUMP JUMPDEST PUSH2 0x330A JUMP JUMPDEST PUSH1 0x40 MLOAD PUSH2 0x923 SWAP2 SWAP1 PUSH2 0x8573 JUMP JUMPDEST PUSH1 0x40 MLOAD DUP1 SWAP2 SUB SWAP1 RETURN JUMPDEST PUSH2 0x934 PUSH2 0x336A JUMP JUMPDEST PUSH1 0x40 MLOAD PUSH2 0x941 SWAP2 SWAP1 PUSH2 0x7EDC JUMP JUMPDEST PUSH1 0x40 MLOAD DUP1 SWAP2 SUB SWAP1 RETURN JUMPDEST PUSH2 0x952 PUSH2 0x35A0 JUMP JUMPDEST PUSH1 0x40 MLOAD PUSH2 0x95F SWAP2 SWAP1 PUSH2 0x8573 JUMP JUMPDEST PUSH1 0x40 MLOAD DUP1 SWAP2 SUB SWAP1 RETURN JUMPDEST PUSH2 0x970 PUSH2 0x35A7 JUMP JUMPDEST PUSH1 0x40 MLOAD PUSH2 0x97D SWAP2 SWAP1 PUSH2 0x7F3B JUMP JUMPDEST PUSH1 0x40 MLOAD DUP1 SWAP2 SUB SWAP1 RETURN JUMPDEST PUSH2 0x98E PUSH2 0x35AE JUMP JUMPDEST PUSH1 0x40 MLOAD PUSH2 0x99B SWAP2 SWAP1 PUSH2 0x8573 JUMP JUMPDEST PUSH1 0x40 MLOAD DUP1 SWAP2 SUB SWAP1 RETURN JUMPDEST PUSH2 0x9BE PUSH1 0x4 DUP1 CALLDATASIZE SUB DUP2 ADD SWAP1 PUSH2 0x9B9 SWAP2 SWAP1 PUSH2 0x70A4 JUMP JUMPDEST PUSH2 0x35B4 JUMP JUMPDEST STOP JUMPDEST PUSH2 0x9DA PUSH1 0x4 DUP1 CALLDATASIZE SUB DUP2 ADD SWAP1 PUSH2 0x9D5 SWAP2 SWAP1 PUSH2 0x6ECD JUMP JUMPDEST PUSH2 0x361E JUMP JUMPDEST STOP JUMPDEST PUSH2 0x9E4 PUSH2 0x3866 JUMP JUMPDEST STOP JUMPDEST PUSH2 0xA00 PUSH1 0x4 DUP1 CALLDATASIZE SUB DUP2 ADD SWAP1 PUSH2 0x9FB SWAP2 SWAP1 PUSH2 0x6ECD JUMP JUMPDEST PUSH2 0x39B3 JUMP JUMPDEST PUSH1 0x40 MLOAD PUSH2 0xA0D SWAP2 SWAP1 PUSH2 0x8573 JUMP JUMPDEST PUSH1 0x40 MLOAD DUP1 SWAP2 SUB SWAP1 RETURN JUMPDEST PUSH2 0xA30 PUSH1 0x4 DUP1 CALLDATASIZE SUB DUP2 ADD SWAP1 PUSH2 0xA2B SWAP2 SWAP1 PUSH2 0x6ECD JUMP JUMPDEST PUSH2 0x3A43 JUMP JUMPDEST STOP JUMPDEST PUSH2 0xA3A PUSH2 0x3CB2 JUMP JUMPDEST STOP JUMPDEST PUSH2 0xA56 PUSH1 0x4 DUP1 CALLDATASIZE SUB DUP2 ADD SWAP1 PUSH2 0xA51 SWAP2 SWAP1 PUSH2 0x7418 JUMP JUMPDEST PUSH2 0x3E8B JUMP JUMPDEST STOP JUMPDEST PUSH2 0xA72 PUSH1 0x4 DUP1 CALLDATASIZE SUB DUP2 ADD SWAP1 PUSH2 0xA6D SWAP2 SWAP1 PUSH2 0x725A JUMP JUMPDEST PUSH2 0x3F24 JUMP JUMPDEST STOP JUMPDEST PUSH2 0xA8E PUSH1 0x4 DUP1 CALLDATASIZE SUB DUP2 ADD SWAP1 PUSH2 0xA89 SWAP2 SWAP1 PUSH2 0x6ECD JUMP JUMPDEST PUSH2 0x40CF JUMP JUMPDEST STOP JUMPDEST PUSH2 0xA98 PUSH2 0x4194 JUMP JUMPDEST PUSH1 0x40 MLOAD PUSH2 0xAA5 SWAP2 SWAP1 PUSH2 0x8573 JUMP JUMPDEST PUSH1 0x40 MLOAD DUP1 SWAP2 SUB SWAP1 RETURN JUMPDEST PUSH2 0xAC8 PUSH1 0x4 DUP1 CALLDATASIZE SUB DUP2 ADD SWAP1 PUSH2 0xAC3 SWAP2 SWAP1 PUSH2 0x7063 JUMP JUMPDEST PUSH2 0x419B JUMP JUMPDEST STOP JUMPDEST PUSH2 0xAD2 PUSH2 0x4210 JUMP JUMPDEST PUSH1 0x40 MLOAD PUSH2 0xADF SWAP2 SWAP1 PUSH2 0x7F20 JUMP JUMPDEST PUSH1 0x40 MLOAD DUP1 SWAP2 SUB SWAP1 RETURN JUMPDEST PUSH2 0xB02 PUSH1 0x4 DUP1 CALLDATASIZE SUB DUP2 ADD SWAP1 PUSH2 0xAFD SWAP2 SWAP1 PUSH2 0x7063 JUMP JUMPDEST PUSH2 0x4223 JUMP JUMPDEST STOP JUMPDEST PUSH2 0xB1E PUSH1 0x4 DUP1 CALLDATASIZE SUB DUP2 ADD SWAP1 PUSH2 0xB19 SWAP2 SWAP1 PUSH2 0x6ECD JUMP JUMPDEST PUSH2 0x42E8 JUMP JUMPDEST STOP JUMPDEST PUSH2 0xB3A PUSH1 0x4 DUP1 CALLDATASIZE SUB DUP2 ADD SWAP1 PUSH2 0xB35 SWAP2 SWAP1 PUSH2 0x71DF JUMP JUMPDEST PUSH2 0x43AD JUMP JUMPDEST STOP JUMPDEST PUSH2 0xB44 PUSH2 0x4517 JUMP JUMPDEST PUSH1 0x40 MLOAD PUSH2 0xB51 SWAP2 SWAP1 PUSH2 0x8573 JUMP JUMPDEST PUSH1 0x40 MLOAD DUP1 SWAP2 SUB SWAP1 RETURN JUMPDEST PUSH2 0xB74 PUSH1 0x4 DUP1 CALLDATASIZE SUB DUP2 ADD SWAP1 PUSH2 0xB6F SWAP2 SWAP1 PUSH2 0x717A JUMP JUMPDEST PUSH2 0x4521 JUMP JUMPDEST STOP JUMPDEST PUSH2 0xB7E PUSH2 0x4566 JUMP JUMPDEST PUSH1 0x40 MLOAD PUSH2 0xB8B SWAP2 SWAP1 PUSH2 0x8573 JUMP JUMPDEST PUSH1 0x40 MLOAD DUP1 SWAP2 SUB SWAP1 RETURN JUMPDEST PUSH2 0xB9C PUSH2 0x456D JUMP JUMPDEST PUSH1 0x40 MLOAD PUSH2 0xBA9 SWAP2 SWAP1 PUSH2 0x8573 JUMP JUMPDEST PUSH1 0x40 MLOAD DUP1 SWAP2 SUB SWAP1 RETURN JUMPDEST PUSH2 0xBBA PUSH2 0x457B JUMP JUMPDEST PUSH1 0x40 MLOAD PUSH2 0xBC7 SWAP2 SWAP1 PUSH2 0x8573 JUMP JUMPDEST PUSH1 0x40 MLOAD DUP1 SWAP2 SUB SWAP1 RETURN JUMPDEST PUSH2 0xBEA PUSH1 0x4 DUP1 CALLDATASIZE SUB DUP2 ADD SWAP1 PUSH2 0xBE5 SWAP2 SWAP1 PUSH2 0x70A4 JUMP JUMPDEST PUSH2 0x4582 JUMP JUMPDEST STOP JUMPDEST PUSH2 0xC06 PUSH1 0x4 DUP1 CALLDATASIZE SUB DUP2 ADD SWAP1 PUSH2 0xC01 SWAP2 SWAP1 PUSH2 0x7027 JUMP JUMPDEST PUSH2 0x4642 JUMP JUMPDEST STOP JUMPDEST PUSH2 0xC10 PUSH2 0x4740 JUMP JUMPDEST PUSH1 0x40 MLOAD PUSH2 0xC1D SWAP2 SWAP1 PUSH2 0x8573 JUMP JUMPDEST PUSH1 0x40 MLOAD DUP1 SWAP2 SUB SWAP1 RETURN JUMPDEST PUSH2 0xC2E PUSH2 0x4752 JUMP JUMPDEST PUSH1 0x40 MLOAD PUSH2 0xC3B SWAP2 SWAP1 PUSH2 0x7FD1 JUMP JUMPDEST PUSH1 0x40 MLOAD DUP1 SWAP2 SUB SWAP1 RETURN JUMPDEST PUSH2 0xC5E PUSH1 0x4 DUP1 CALLDATASIZE SUB DUP2 ADD SWAP1 PUSH2 0xC59 SWAP2 SWAP1 PUSH2 0x6ECD JUMP JUMPDEST PUSH2 0x4779 JUMP JUMPDEST STOP JUMPDEST PUSH2 0xC68 PUSH2 0x4871 JUMP JUMPDEST STOP JUMPDEST PUSH2 0xC72 PUSH2 0x49BE JUMP JUMPDEST PUSH1 0x40 MLOAD PUSH2 0xC7F SWAP2 SWAP1 PUSH2 0x8573 JUMP JUMPDEST PUSH1 0x40 MLOAD DUP1 SWAP2 SUB SWAP1 RETURN JUMPDEST PUSH2 0xC90 PUSH2 0x49C4 JUMP JUMPDEST PUSH1 0x40 MLOAD PUSH2 0xC9D SWAP2 SWAP1 PUSH2 0x7FD1 JUMP JUMPDEST PUSH1 0x40 MLOAD DUP1 SWAP2 SUB SWAP1 RETURN JUMPDEST PUSH1 0x0 DUP1 PUSH1 0x0 DUP1 PUSH1 0x0 PUSH2 0x109 PUSH1 0x0 DUP8 PUSH20 0xFFFFFFFFFFFFFFFFFFFFFFFFFFFFFFFFFFFFFFFF AND PUSH20 0xFFFFFFFFFFFFFFFFFFFFFFFFFFFFFFFFFFFFFFFF AND DUP2 MSTORE PUSH1 0x20 ADD SWAP1 DUP2 MSTORE PUSH1 0x20 ADD PUSH1 0x0 KECCAK256 SWAP1 POP DUP1 PUSH1 0x0 ADD PUSH1 0x0 SWAP1 SLOAD SWAP1 PUSH2 0x100 EXP SWAP1 DIV PUSH1 0xFF AND DUP2 PUSH1 0x1 ADD SLOAD PUSH2 0xD10 DUP4 PUSH2 0x4AED JUMP JUMPDEST DUP4 PUSH1 0x3 ADD SLOAD SWAP5 POP SWAP5 POP SWAP5 POP SWAP5 POP POP SWAP2 SWAP4 POP SWAP2 SWAP4 JUMP JUMPDEST PUSH1 0x0 PUSH32 0x7965DB0B00000000000000000000000000000000000000000000000000000000 PUSH28 0xFFFFFFFFFFFFFFFFFFFFFFFFFFFFFFFFFFFFFFFFFFFFFFFFFFFFFFFF NOT AND DUP3 PUSH28 0xFFFFFFFFFFFFFFFFFFFFFFFFFFFFFFFFFFFFFFFFFFFFFFFFFFFFFFFF NOT AND EQ DUP1 PUSH2 0xD98 JUMPI POP PUSH2 0xD97 DUP3 PUSH2 0x4C0E JUMP JUMPDEST JUMPDEST SWAP1 POP SWAP2 SWAP1 POP JUMP JUMPDEST PUSH2 0x106 SLOAD DUP2 JUMP JUMPDEST PUSH1 0x0 PUSH1 0x1 SWAP1 SLOAD SWAP1 PUSH2 0x100 EXP SWAP1 DIV PUSH1 0xFF AND PUSH2 0xDCE JUMPI PUSH1 0x0 DUP1 SLOAD SWAP1 PUSH2 0x100 EXP SWAP1 DIV PUSH1 0xFF AND ISZERO PUSH2 0xDD7 JUMP JUMPDEST PUSH2 0xDD6 PUSH2 0x4C78 JUMP JUMPDEST JUMPDEST PUSH2 0xE16 JUMPI PUSH1 0x40 MLOAD PUSH32 0x8C379A000000000000000000000000000000000000000000000000000000000 DUP2 MSTORE PUSH1 0x4 ADD PUSH2 0xE0D SWAP1 PUSH2 0x82B3 JUMP JUMPDEST PUSH1 0x40 MLOAD DUP1 SWAP2 SUB SWAP1 REVERT JUMPDEST PUSH1 0x0 DUP1 PUSH1 0x1 SWAP1 SLOAD SWAP1 PUSH2 0x100 EXP SWAP1 DIV PUSH1 0xFF AND ISZERO SWAP1 POP DUP1 ISZERO PUSH2 0xE66 JUMPI PUSH1 0x1 PUSH1 0x0 PUSH1 0x1 PUSH2 0x100 EXP DUP2 SLOAD DUP2 PUSH1 0xFF MUL NOT AND SWAP1 DUP4 ISZERO ISZERO MUL OR SWAP1 SSTORE POP PUSH1 0x1 PUSH1 0x0 DUP1 PUSH2 0x100 EXP DUP2 SLOAD DUP2 PUSH1 0xFF MUL NOT AND SWAP1 DUP4 ISZERO ISZERO MUL OR SWAP1 SSTORE POP JUMPDEST DUP6 DUP8 GT PUSH2 0xEA8 JUMPI PUSH1 0x40 MLOAD PUSH32 0x8C379A000000000000000000000000000000000000000000000000000000000 DUP2 MSTORE PUSH1 0x4 ADD PUSH2 0xE9F SWAP1 PUSH2 0x8313 JUMP JUMPDEST PUSH1 0x40 MLOAD DUP1 SWAP2 SUB SWAP1 REVERT JUMPDEST DUP10 DUP10 LT ISZERO PUSH2 0xEEB JUMPI PUSH1 0x40 MLOAD PUSH32 0x8C379A000000000000000000000000000000000000000000000000000000000 DUP2 MSTORE PUSH1 0x4 ADD PUSH2 0xEE2 SWAP1 PUSH2 0x83D3 JUMP JUMPDEST PUSH1 0x40 MLOAD DUP1 SWAP2 SUB SWAP1 REVERT JUMPDEST DUP4 DUP6 GT ISZERO PUSH2 0xF2E JUMPI PUSH1 0x40 MLOAD PUSH32 0x8C379A000000000000000000000000000000000000000000000000000000000 DUP2 MSTORE PUSH1 0x4 ADD PUSH2 0xF25 SWAP1 PUSH2 0x83F3 JUMP JUMPDEST PUSH1 0x40 MLOAD DUP1 SWAP2 SUB SWAP1 REVERT JUMPDEST CALLER PUSH2 0x108 PUSH1 0x0 PUSH2 0x100 EXP DUP2 SLOAD DUP2 PUSH20 0xFFFFFFFFFFFFFFFFFFFFFFFFFFFFFFFFFFFFFFFF MUL NOT AND SWAP1 DUP4 PUSH20 0xFFFFFFFFFFFFFFFFFFFFFFFFFFFFFFFFFFFFFFFF AND MUL OR SWAP1 SSTORE POP PUSH2 0xF78 PUSH2 0x4C89 JUMP JUMPDEST PUSH2 0xF80 PUSH2 0x4CF2 JUMP JUMPDEST PUSH2 0xF88 PUSH2 0x4D53 JUMP JUMPDEST DUP12 PUSH2 0x10C PUSH1 0x0 PUSH2 0x100 EXP DUP2 SLOAD DUP2 PUSH20 0xFFFFFFFFFFFFFFFFFFFFFFFFFFFFFFFFFFFFFFFF MUL NOT AND SWAP1 DUP4 PUSH20 0xFFFFFFFFFFFFFFFFFFFFFFFFFFFFFFFFFFFFFFFF AND MUL OR SWAP1 SSTORE POP DUP10 PUSH1 0xFC DUP2 SWAP1 SSTORE POP DUP10 PUSH2 0x111 DUP2 SWAP1 SSTORE POP DUP7 PUSH1 0xFD DUP2 SWAP1 SSTORE POP DUP6 PUSH1 0xFE DUP2 SWAP1 SSTORE POP DUP9 PUSH1 0xFF DUP2 SWAP1 SSTORE POP DUP5 PUSH2 0x104 DUP2 SWAP1 SSTORE POP DUP4 PUSH2 0x105 DUP2 SWAP1 SSTORE POP DUP2 PUSH2 0x107 PUSH1 0x0 PUSH2 0x100 EXP DUP2 SLOAD DUP2 PUSH20 0xFFFFFFFFFFFFFFFFFFFFFFFFFFFFFFFFFFFFFFFF MUL NOT AND SWAP1 DUP4 PUSH20 0xFFFFFFFFFFFFFFFFFFFFFFFFFFFFFFFFFFFFFFFF AND MUL OR SWAP1 SSTORE POP DUP8 PUSH2 0x103 DUP2 SWAP1 SSTORE POP DUP3 PUSH2 0x10D DUP2 SWAP1 SSTORE POP PUSH1 0x0 PUSH1 0xFB PUSH1 0x0 PUSH2 0x100 EXP DUP2 SLOAD DUP2 PUSH1 0xFF MUL NOT AND SWAP1 DUP4 ISZERO ISZERO MUL OR SWAP1 SSTORE POP PUSH2 0x1074 CALLER PUSH2 0x4779 JUMP JUMPDEST PUSH2 0x109E PUSH32 0x241ECF16D79D0F8DBFB92CBC07FE17840425976CF0667F022FE9877CAA831B08 DUP1 PUSH2 0x4DAC JUMP JUMPDEST PUSH2 0x10C8 PUSH32 0x241ECF16D79D0F8DBFB92CBC07FE17840425976CF0667F022FE9877CAA831B08 CALLER PUSH2 0x4E08 JUMP JUMPDEST CALLER PUSH20 0xFFFFFFFFFFFFFFFFFFFFFFFFFFFFFFFFFFFFFFFF AND CALLER PUSH20 0xFFFFFFFFFFFFFFFFFFFFFFFFFFFFFFFFFFFFFFFF AND PUSH32 0x5A4006F300442CF8B7FDB885F5EE958812020BFFB5C5A8E655FDE64E5F987ED PUSH1 0x40 MLOAD PUSH1 0x40 MLOAD DUP1 SWAP2 SUB SWAP1 LOG3 PUSH1 0x0 DUP1 DUP13 MLOAD SWAP1 POP JUMPDEST DUP1 DUP3 LT ISZERO PUSH2 0x118E JUMPI PUSH2 0x117B DUP14 DUP4 DUP2 MLOAD DUP2 LT PUSH2 0x116E JUMPI PUSH32 0x4E487B7100000000000000000000000000000000000000000000000000000000 PUSH1 0x0 MSTORE PUSH1 0x32 PUSH1 0x4 MSTORE PUSH1 0x24 PUSH1 0x0 REVERT JUMPDEST PUSH1 0x20 MUL PUSH1 0x20 ADD ADD MLOAD PUSH2 0x1434 JUMP JUMPDEST DUP2 DUP1 PUSH2 0x1186 SWAP1 PUSH2 0x8B4D JUMP JUMPDEST SWAP3 POP POP PUSH2 0x112A JUMP JUMPDEST POP POP DUP1 ISZERO PUSH2 0x11B1 JUMPI PUSH1 0x0 DUP1 PUSH1 0x1 PUSH2 0x100 EXP DUP2 SLOAD DUP2 PUSH1 0xFF MUL NOT AND SWAP1 DUP4 ISZERO ISZERO MUL OR SWAP1 SSTORE POP JUMPDEST POP POP POP POP POP POP POP POP POP POP POP POP JUMP JUMPDEST PUSH1 0x0 PUSH1 0x3 SWAP1 POP SWAP1 JUMP JUMPDEST PUSH1 0xFD SLOAD DUP2 JUMP JUMPDEST PUSH2 0x11D6 PUSH2 0x4E16 JUMP JUMPDEST PUSH20 0xFFFFFFFFFFFFFFFFFFFFFFFFFFFFFFFFFFFFFFFF AND PUSH2 0x11F4 PUSH2 0x3204 JUMP JUMPDEST PUSH20 0xFFFFFFFFFFFFFFFFFFFFFFFFFFFFFFFFFFFFFFFF AND EQ PUSH2 0x124A JUMPI PUSH1 0x40 MLOAD PUSH32 0x8C379A000000000000000000000000000000000000000000000000000000000 DUP2 MSTORE PUSH1 0x4 ADD PUSH2 0x1241 SWAP1 PUSH2 0x8353 JUMP JUMPDEST PUSH1 0x40 MLOAD DUP1 SWAP2 SUB SWAP1 REVERT JUMPDEST DUP1 DUP3 GT ISZERO PUSH2 0x128D JUMPI PUSH1 0x40 MLOAD PUSH32 0x8C379A000000000000000000000000000000000000000000000000000000000 DUP2 MSTORE PUSH1 0x4 ADD PUSH2 0x1284 SWAP1 PUSH2 0x8193 JUMP JUMPDEST PUSH1 0x40 MLOAD DUP1 SWAP2 SUB SWAP1 REVERT JUMPDEST PUSH32 0xCD922A6F0AD842D84E08EB5DF24C029B63C60167FB37CFF24ADF95C4832E3258 PUSH2 0x104 SLOAD PUSH2 0x105 SLOAD DUP5 DUP5 PUSH1 0x40 MLOAD PUSH2 0x12C8 SWAP5 SWAP4 SWAP3 SWAP2 SWAP1 PUSH2 0x8613 JUMP JUMPDEST PUSH1 0x40 MLOAD DUP1 SWAP2 SUB SWAP1 LOG1 DUP2 PUSH2 0x104 DUP2 SWAP1 SSTORE POP DUP1 PUSH2 0x105 DUP2 SWAP1 SSTORE POP POP POP JUMP JUMPDEST PUSH1 0x0 DUP1 PUSH20 0xFFFFFFFFFFFFFFFFFFFFFFFFFFFFFFFFFFFFFFFF AND PUSH2 0x10C PUSH1 0x0 SWAP1 SLOAD SWAP1 PUSH2 0x100 EXP SWAP1 DIV PUSH20 0xFFFFFFFFFFFFFFFFFFFFFFFFFFFFFFFFFFFFFFFF AND PUSH20 0xFFFFFFFFFFFFFFFFFFFFFFFFFFFFFFFFFFFFFFFF AND EQ ISZERO PUSH2 0x13E3 JUMPI PUSH2 0x108 PUSH1 0x0 SWAP1 SLOAD SWAP1 PUSH2 0x100 EXP SWAP1 DIV PUSH20 0xFFFFFFFFFFFFFFFFFFFFFFFFFFFFFFFFFFFFFFFF AND PUSH20 0xFFFFFFFFFFFFFFFFFFFFFFFFFFFFFFFFFFFFFFFF AND PUSH4 0x1FCCF672 PUSH1 0x40 MLOAD DUP2 PUSH4 0xFFFFFFFF AND PUSH1 0xE0 SHL DUP2 MSTORE PUSH1 0x4 ADD PUSH1 0x20 PUSH1 0x40 MLOAD DUP1 DUP4 SUB DUP2 DUP7 DUP1 EXTCODESIZE ISZERO DUP1 ISZERO PUSH2 0x13A6 JUMPI PUSH1 0x0 DUP1 REVERT JUMPDEST POP GAS STATICCALL ISZERO DUP1 ISZERO PUSH2 0x13BA JUMPI RETURNDATASIZE PUSH1 0x0 DUP1 RETURNDATACOPY RETURNDATASIZE PUSH1 0x0 REVERT JUMPDEST POP POP POP POP PUSH1 0x40 MLOAD RETURNDATASIZE PUSH1 0x1F NOT PUSH1 0x1F DUP3 ADD AND DUP3 ADD DUP1 PUSH1 0x40 MSTORE POP DUP2 ADD SWAP1 PUSH2 0x13DE SWAP2 SWAP1 PUSH2 0x7231 JUMP JUMPDEST PUSH2 0x1408 JUMP JUMPDEST PUSH2 0x10C PUSH1 0x0 SWAP1 SLOAD SWAP1 PUSH2 0x100 EXP SWAP1 DIV PUSH20 0xFFFFFFFFFFFFFFFFFFFFFFFFFFFFFFFFFFFFFFFF AND JUMPDEST SWAP1 POP SWAP1 JUMP JUMPDEST PUSH1 0x0 PUSH1 0x65 PUSH1 0x0 DUP4 DUP2 MSTORE PUSH1 0x20 ADD SWAP1 DUP2 MSTORE PUSH1 0x20 ADD PUSH1 0x0 KECCAK256 PUSH1 0x1 ADD SLOAD SWAP1 POP SWAP2 SWAP1 POP JUMP JUMPDEST PUSH2 0x105 SLOAD DUP2 JUMP JUMPDEST PUSH2 0x108 PUSH1 0x0 SWAP1 SLOAD SWAP1 PUSH2 0x100 EXP SWAP1 DIV PUSH20 0xFFFFFFFFFFFFFFFFFFFFFFFFFFFFFFFFFFFFFFFF AND PUSH20 0xFFFFFFFFFFFFFFFFFFFFFFFFFFFFFFFFFFFFFFFF AND PUSH4 0x6B0DE23F ADDRESS CALLER PUSH1 0x40 MLOAD DUP4 PUSH4 0xFFFFFFFF AND PUSH1 0xE0 SHL DUP2 MSTORE PUSH1 0x4 ADD PUSH2 0x1492 SWAP3 SWAP2 SWAP1 PUSH2 0x7E1C JUMP JUMPDEST PUSH1 0x20 PUSH1 0x40 MLOAD DUP1 DUP4 SUB DUP2 DUP7 DUP1 EXTCODESIZE ISZERO DUP1 ISZERO PUSH2 0x14AA JUMPI PUSH1 0x0 DUP1 REVERT JUMPDEST POP GAS STATICCALL ISZERO DUP1 ISZERO PUSH2 0x14BE JUMPI RETURNDATASIZE PUSH1 0x0 DUP1 RETURNDATACOPY RETURNDATASIZE PUSH1 0x0 REVERT JUMPDEST POP POP POP POP PUSH1 0x40 MLOAD RETURNDATASIZE PUSH1 0x1F NOT PUSH1 0x1F DUP3 ADD AND DUP3 ADD DUP1 PUSH1 0x40 MSTORE POP DUP2 ADD SWAP1 PUSH2 0x14E2 SWAP2 SWAP1 PUSH2 0x7128 JUMP JUMPDEST PUSH2 0x1521 JUMPI PUSH1 0x40 MLOAD PUSH32 0x8C379A000000000000000000000000000000000000000000000000000000000 DUP2 MSTORE PUSH1 0x4 ADD PUSH2 0x1518 SWAP1 PUSH2 0x8293 JUMP JUMPDEST PUSH1 0x40 MLOAD DUP1 SWAP2 SUB SWAP1 REVERT JUMPDEST PUSH2 0x154B PUSH32 0x241ECF16D79D0F8DBFB92CBC07FE17840425976CF0667F022FE9877CAA831B08 DUP3 PUSH2 0x322E JUMP JUMPDEST PUSH2 0x15D4 JUMPI PUSH2 0x1579 PUSH32 0x241ECF16D79D0F8DBFB92CBC07FE17840425976CF0667F022FE9877CAA831B08 DUP3 PUSH2 0x4E1E JUMP JUMPDEST DUP1 PUSH20 0xFFFFFFFFFFFFFFFFFFFFFFFFFFFFFFFFFFFFFFFF AND CALLER PUSH20 0xFFFFFFFFFFFFFFFFFFFFFFFFFFFFFFFFFFFFFFFF AND PUSH32 0x5A4006F300442CF8B7FDB885F5EE958812020BFFB5C5A8E655FDE64E5F987ED PUSH1 0x40 MLOAD PUSH1 0x40 MLOAD DUP1 SWAP2 SUB SWAP1 LOG3 JUMPDEST POP JUMP JUMPDEST PUSH1 0x0 PUSH2 0x1618 JUMPI PUSH1 0x40 MLOAD PUSH32 0x8C379A000000000000000000000000000000000000000000000000000000000 DUP2 MSTORE PUSH1 0x4 ADD PUSH2 0x160F SWAP1 PUSH2 0x8273 JUMP JUMPDEST PUSH1 0x40 MLOAD DUP1 SWAP2 SUB SWAP1 REVERT JUMPDEST POP POP JUMP JUMPDEST PUSH2 0x1624 PUSH2 0x4E16 JUMP JUMPDEST PUSH20 0xFFFFFFFFFFFFFFFFFFFFFFFFFFFFFFFFFFFFFFFF AND PUSH2 0x1642 PUSH2 0x3204 JUMP JUMPDEST PUSH20 0xFFFFFFFFFFFFFFFFFFFFFFFFFFFFFFFFFFFFFFFF AND EQ PUSH2 0x1698 JUMPI PUSH1 0x40 MLOAD PUSH32 0x8C379A000000000000000000000000000000000000000000000000000000000 DUP2 MSTORE PUSH1 0x4 ADD PUSH2 0x168F SWAP1 PUSH2 0x8353 JUMP JUMPDEST PUSH1 0x40 MLOAD DUP1 SWAP2 SUB SWAP1 REVERT JUMPDEST DUP1 DUP3 GT PUSH2 0x16DA JUMPI PUSH1 0x40 MLOAD PUSH32 0x8C379A000000000000000000000000000000000000000000000000000000000 DUP2 MSTORE PUSH1 0x4 ADD PUSH2 0x16D1 SWAP1 PUSH2 0x8233 JUMP JUMPDEST PUSH1 0x40 MLOAD DUP1 SWAP2 SUB SWAP1 REVERT JUMPDEST DUP3 PUSH2 0x100 SLOAD PUSH2 0x16E9 SWAP2 SWAP1 PUSH2 0x88A9 JUMP JUMPDEST DUP6 PUSH2 0x16F4 SWAP2 SWAP1 PUSH2 0x8822 JUMP JUMPDEST DUP5 LT ISZERO PUSH2 0x1736 JUMPI PUSH1 0x40 MLOAD PUSH32 0x8C379A000000000000000000000000000000000000000000000000000000000 DUP2 MSTORE PUSH1 0x4 ADD PUSH2 0x172D SWAP1 PUSH2 0x80D3 JUMP JUMPDEST PUSH1 0x40 MLOAD DUP1 SWAP2 SUB SWAP1 REVERT JUMPDEST PUSH32 0xA19F450CD68C70F728B0C4B75BEFD202EA5EBB1AE78B6ACA47365934B5008750 PUSH1 0xFC SLOAD PUSH1 0xFF SLOAD PUSH2 0x103 SLOAD PUSH1 0xFD SLOAD PUSH1 0xFE SLOAD DUP11 DUP11 DUP11 DUP11 DUP11 PUSH1 0x40 MLOAD PUSH2 0x1782 SWAP11 SWAP10 SWAP9 SWAP8 SWAP7 SWAP6 SWAP5 SWAP4 SWAP3 SWAP2 SWAP1 PUSH2 0x8658 JUMP JUMPDEST PUSH1 0x40 MLOAD DUP1 SWAP2 SUB SWAP1 LOG1 DUP5 PUSH1 0xFC DUP2 SWAP1 SSTORE POP DUP3 PUSH2 0x100 SLOAD PUSH2 0x17A0 SWAP2 SWAP1 PUSH2 0x88A9 JUMP JUMPDEST DUP5 PUSH2 0x17AB SWAP2 SWAP1 PUSH2 0x8903 JUMP JUMPDEST PUSH1 0xFF DUP2 SWAP1 SSTORE POP DUP3 PUSH2 0x103 DUP2 SWAP1 SSTORE POP DUP2 PUSH1 0xFD DUP2 SWAP1 SSTORE POP DUP1 PUSH1 0xFE DUP2 SWAP1 SSTORE POP PUSH2 0x17CF PUSH2 0x4EFF JUMP JUMPDEST POP POP POP POP POP JUMP JUMPDEST PUSH1 0x0 DUP1 PUSH2 0x105 SLOAD EQ SWAP1 POP SWAP1 JUMP JUMPDEST PUSH2 0x17EB PUSH2 0x3204 JUMP JUMPDEST PUSH20 0xFFFFFFFFFFFFFFFFFFFFFFFFFFFFFFFFFFFFFFFF AND CALLER PUSH20 0xFFFFFFFFFFFFFFFFFFFFFFFFFFFFFFFFFFFFFFFF AND EQ DUP1 PUSH2 0x18CE JUMPI POP PUSH2 0x108 PUSH1 0x0 SWAP1 SLOAD SWAP1 PUSH2 0x100 EXP SWAP1 DIV PUSH20 0xFFFFFFFFFFFFFFFFFFFFFFFFFFFFFFFFFFFFFFFF AND PUSH20 0xFFFFFFFFFFFFFFFFFFFFFFFFFFFFFFFFFFFFFFFF AND PUSH4 0x6B0DE23F ADDRESS CALLER PUSH1 0x40 MLOAD DUP4 PUSH4 0xFFFFFFFF AND PUSH1 0xE0 SHL DUP2 MSTORE PUSH1 0x4 ADD PUSH2 0x187D SWAP3 SWAP2 SWAP1 PUSH2 0x7E1C JUMP JUMPDEST PUSH1 0x20 PUSH1 0x40 MLOAD DUP1 DUP4 SUB DUP2 DUP7 DUP1 EXTCODESIZE ISZERO DUP1 ISZERO PUSH2 0x1895 JUMPI PUSH1 0x0 DUP1 REVERT JUMPDEST POP GAS STATICCALL ISZERO DUP1 ISZERO PUSH2 0x18A9 JUMPI RETURNDATASIZE PUSH1 0x0 DUP1 RETURNDATACOPY RETURNDATASIZE PUSH1 0x0 REVERT JUMPDEST POP POP POP POP PUSH1 0x40 MLOAD RETURNDATASIZE PUSH1 0x1F NOT PUSH1 0x1F DUP3 ADD AND DUP3 ADD DUP1 PUSH1 0x40 MSTORE POP DUP2 ADD SWAP1 PUSH2 0x18CD SWAP2 SWAP1 PUSH2 0x7128 JUMP JUMPDEST JUMPDEST PUSH2 0x190D JUMPI PUSH1 0x40 MLOAD PUSH32 0x8C379A000000000000000000000000000000000000000000000000000000000 DUP2 MSTORE PUSH1 0x4 ADD PUSH2 0x1904 SWAP1 PUSH2 0x80F3 JUMP JUMPDEST PUSH1 0x40 MLOAD DUP1 SWAP2 SUB SWAP1 REVERT JUMPDEST PUSH32 0x6672B7064FE522FA09A8078F6D967272E0A379BEB2270817417C9F023251B657 PUSH2 0x10D SLOAD DUP3 PUSH1 0x40 MLOAD PUSH2 0x1941 SWAP3 SWAP2 SWAP1 PUSH2 0x85EA JUMP JUMPDEST PUSH1 0x40 MLOAD DUP1 SWAP2 SUB SWAP1 LOG1 DUP1 PUSH2 0x10D DUP2 SWAP1 SSTORE POP POP JUMP JUMPDEST PUSH2 0x195C PUSH2 0x4E16 JUMP JUMPDEST PUSH20 0xFFFFFFFFFFFFFFFFFFFFFFFFFFFFFFFFFFFFFFFF AND DUP2 PUSH20 0xFFFFFFFFFFFFFFFFFFFFFFFFFFFFFFFFFFFFFFFF AND EQ PUSH2 0x19C9 JUMPI PUSH1 0x40 MLOAD PUSH32 0x8C379A000000000000000000000000000000000000000000000000000000000 DUP2 MSTORE PUSH1 0x4 ADD PUSH2 0x19C0 SWAP1 PUSH2 0x8533 JUMP JUMPDEST PUSH1 0x40 MLOAD DUP1 SWAP2 SUB SWAP1 REVERT JUMPDEST PUSH2 0x19D3 DUP3 DUP3 PUSH2 0x51AE JUMP JUMPDEST POP POP JUMP JUMPDEST PUSH2 0x19DF PUSH2 0x4E16 JUMP JUMPDEST PUSH20 0xFFFFFFFFFFFFFFFFFFFFFFFFFFFFFFFFFFFFFFFF AND PUSH2 0x19FD PUSH2 0x3204 JUMP JUMPDEST PUSH20 0xFFFFFFFFFFFFFFFFFFFFFFFFFFFFFFFFFFFFFFFF AND EQ PUSH2 0x1A53 JUMPI PUSH1 0x40 MLOAD PUSH32 0x8C379A000000000000000000000000000000000000000000000000000000000 DUP2 MSTORE PUSH1 0x4 ADD PUSH2 0x1A4A SWAP1 PUSH2 0x8353 JUMP JUMPDEST PUSH1 0x40 MLOAD DUP1 SWAP2 SUB SWAP1 REVERT JUMPDEST PUSH1 0x0 PUSH2 0x108 PUSH1 0x0 SWAP1 SLOAD SWAP1 PUSH2 0x100 EXP SWAP1 DIV PUSH20 0xFFFFFFFFFFFFFFFFFFFFFFFFFFFFFFFFFFFFFFFF AND PUSH20 0xFFFFFFFFFFFFFFFFFFFFFFFFFFFFFFFFFFFFFFFF AND PUSH4 0x61D027B3 PUSH1 0x40 MLOAD DUP2 PUSH4 0xFFFFFFFF AND PUSH1 0xE0 SHL DUP2 MSTORE PUSH1 0x4 ADD PUSH1 0x20 PUSH1 0x40 MLOAD DUP1 DUP4 SUB DUP2 DUP7 DUP1 EXTCODESIZE ISZERO DUP1 ISZERO PUSH2 0x1ABE JUMPI PUSH1 0x0 DUP1 REVERT JUMPDEST POP GAS STATICCALL ISZERO DUP1 ISZERO PUSH2 0x1AD2 JUMPI RETURNDATASIZE PUSH1 0x0 DUP1 RETURNDATACOPY RETURNDATASIZE PUSH1 0x0 REVERT JUMPDEST POP POP POP POP PUSH1 0x40 MLOAD RETURNDATASIZE PUSH1 0x1F NOT PUSH1 0x1F DUP3 ADD AND DUP3 ADD DUP1 PUSH1 0x40 MSTORE POP DUP2 ADD SWAP1 PUSH2 0x1AF6 SWAP2 SWAP1 PUSH2 0x7363 JUMP JUMPDEST SWAP1 POP PUSH1 0xA PUSH2 0x10E DUP1 SLOAD SWAP1 POP LT PUSH2 0x1B41 JUMPI PUSH1 0x40 MLOAD PUSH32 0x8C379A000000000000000000000000000000000000000000000000000000000 DUP2 MSTORE PUSH1 0x4 ADD PUSH2 0x1B38 SWAP1 PUSH2 0x8073 JUMP JUMPDEST PUSH1 0x40 MLOAD DUP1 SWAP2 SUB SWAP1 REVERT JUMPDEST PUSH2 0x1B49 PUSH2 0x49C4 JUMP JUMPDEST PUSH20 0xFFFFFFFFFFFFFFFFFFFFFFFFFFFFFFFFFFFFFFFF AND DUP10 PUSH20 0xFFFFFFFFFFFFFFFFFFFFFFFFFFFFFFFFFFFFFFFF AND EQ ISZERO PUSH2 0x1BB7 JUMPI PUSH1 0x40 MLOAD PUSH32 0x8C379A000000000000000000000000000000000000000000000000000000000 DUP2 MSTORE PUSH1 0x4 ADD PUSH2 0x1BAE SWAP1 PUSH2 0x81F3 JUMP JUMPDEST PUSH1 0x40 MLOAD DUP1 SWAP2 SUB SWAP1 REVERT JUMPDEST PUSH2 0x108 PUSH1 0x0 SWAP1 SLOAD SWAP1 PUSH2 0x100 EXP SWAP1 DIV PUSH20 0xFFFFFFFFFFFFFFFFFFFFFFFFFFFFFFFFFFFFFFFF AND PUSH20 0xFFFFFFFFFFFFFFFFFFFFFFFFFFFFFFFFFFFFFFFF AND PUSH4 0x1FCCF672 PUSH1 0x40 MLOAD DUP2 PUSH4 0xFFFFFFFF AND PUSH1 0xE0 SHL DUP2 MSTORE PUSH1 0x4 ADD PUSH1 0x20 PUSH1 0x40 MLOAD DUP1 DUP4 SUB DUP2 DUP7 DUP1 EXTCODESIZE ISZERO DUP1 ISZERO PUSH2 0x1C20 JUMPI PUSH1 0x0 DUP1 REVERT JUMPDEST POP GAS STATICCALL ISZERO DUP1 ISZERO PUSH2 0x1C34 JUMPI RETURNDATASIZE PUSH1 0x0 DUP1 RETURNDATACOPY RETURNDATASIZE PUSH1 0x0 REVERT JUMPDEST POP POP POP POP PUSH1 0x40 MLOAD RETURNDATASIZE PUSH1 0x1F NOT PUSH1 0x1F DUP3 ADD AND DUP3 ADD DUP1 PUSH1 0x40 MSTORE POP DUP2 ADD SWAP1 PUSH2 0x1C58 SWAP2 SWAP1 PUSH2 0x7231 JUMP JUMPDEST PUSH20 0xFFFFFFFFFFFFFFFFFFFFFFFFFFFFFFFFFFFFFFFF AND DUP10 PUSH20 0xFFFFFFFFFFFFFFFFFFFFFFFFFFFFFFFFFFFFFFFF AND EQ DUP1 PUSH2 0x1D16 JUMPI POP DUP1 PUSH20 0xFFFFFFFFFFFFFFFFFFFFFFFFFFFFFFFFFFFFFFFF AND PUSH4 0x19F37361 DUP11 PUSH1 0x40 MLOAD DUP3 PUSH4 0xFFFFFFFF AND PUSH1 0xE0 SHL DUP2 MSTORE PUSH1 0x4 ADD PUSH2 0x1CC5 SWAP2 SWAP1 PUSH2 0x7E01 JUMP JUMPDEST PUSH1 0x20 PUSH1 0x40 MLOAD DUP1 DUP4 SUB DUP2 DUP7 DUP1 EXTCODESIZE ISZERO DUP1 ISZERO PUSH2 0x1CDD JUMPI PUSH1 0x0 DUP1 REVERT JUMPDEST POP GAS STATICCALL ISZERO DUP1 ISZERO PUSH2 0x1CF1 JUMPI RETURNDATASIZE PUSH1 0x0 DUP1 RETURNDATACOPY RETURNDATASIZE PUSH1 0x0 REVERT JUMPDEST POP POP POP POP PUSH1 0x40 MLOAD RETURNDATASIZE PUSH1 0x1F NOT PUSH1 0x1F DUP3 ADD AND DUP3 ADD DUP1 PUSH1 0x40 MSTORE POP DUP2 ADD SWAP1 PUSH2 0x1D15 SWAP2 SWAP1 PUSH2 0x7128 JUMP JUMPDEST JUMPDEST PUSH2 0x1D55 JUMPI PUSH1 0x40 MLOAD PUSH32 0x8C379A000000000000000000000000000000000000000000000000000000000 DUP2 MSTORE PUSH1 0x4 ADD PUSH2 0x1D4C SWAP1 PUSH2 0x8213 JUMP JUMPDEST PUSH1 0x40 MLOAD DUP1 SWAP2 SUB SWAP1 REVERT JUMPDEST PUSH1 0x1 DUP9 DUP9 SWAP1 POP GT DUP1 ISZERO PUSH2 0x1DE8 JUMPI POP PUSH2 0x1D6B PUSH2 0x49C4 JUMP JUMPDEST PUSH20 0xFFFFFFFFFFFFFFFFFFFFFFFFFFFFFFFFFFFFFFFF AND DUP9 DUP9 PUSH1 0x0 DUP2 DUP2 LT PUSH2 0x1DBB JUMPI PUSH32 0x4E487B7100000000000000000000000000000000000000000000000000000000 PUSH1 0x0 MSTORE PUSH1 0x32 PUSH1 0x4 MSTORE PUSH1 0x24 PUSH1 0x0 REVERT JUMPDEST SWAP1 POP PUSH1 0x20 MUL ADD PUSH1 0x20 DUP2 ADD SWAP1 PUSH2 0x1DD0 SWAP2 SWAP1 PUSH2 0x6ECD JUMP JUMPDEST PUSH20 0xFFFFFFFFFFFFFFFFFFFFFFFFFFFFFFFFFFFFFFFF AND EQ JUMPDEST DUP1 ISZERO PUSH2 0x1E7B JUMPI POP DUP9 PUSH20 0xFFFFFFFFFFFFFFFFFFFFFFFFFFFFFFFFFFFFFFFF AND DUP9 DUP9 PUSH1 0x1 DUP12 DUP12 SWAP1 POP PUSH2 0x1E18 SWAP2 SWAP1 PUSH2 0x8903 JUMP JUMPDEST DUP2 DUP2 LT PUSH2 0x1E4E JUMPI PUSH32 0x4E487B7100000000000000000000000000000000000000000000000000000000 PUSH1 0x0 MSTORE PUSH1 0x32 PUSH1 0x4 MSTORE PUSH1 0x24 PUSH1 0x0 REVERT JUMPDEST SWAP1 POP PUSH1 0x20 MUL ADD PUSH1 0x20 DUP2 ADD SWAP1 PUSH2 0x1E63 SWAP2 SWAP1 PUSH2 0x6ECD JUMP JUMPDEST PUSH20 0xFFFFFFFFFFFFFFFFFFFFFFFFFFFFFFFFFFFFFFFF AND EQ JUMPDEST PUSH2 0x1EBA JUMPI PUSH1 0x40 MLOAD PUSH32 0x8C379A000000000000000000000000000000000000000000000000000000000 DUP2 MSTORE PUSH1 0x4 ADD PUSH2 0x1EB1 SWAP1 PUSH2 0x81B3 JUMP JUMPDEST PUSH1 0x40 MLOAD DUP1 SWAP2 SUB SWAP1 REVERT JUMPDEST PUSH1 0x0 PUSH2 0x10E DUP1 SLOAD SWAP1 POP EQ ISZERO PUSH2 0x1FB1 JUMPI PUSH2 0x10E PUSH1 0x40 MLOAD DUP1 PUSH1 0x60 ADD PUSH1 0x40 MSTORE DUP1 PUSH2 0x1EDF PUSH2 0x49C4 JUMP JUMPDEST PUSH20 0xFFFFFFFFFFFFFFFFFFFFFFFFFFFFFFFFFFFFFFFF AND DUP2 MSTORE PUSH1 0x20 ADD PUSH8 0xDE0B6B3A7640000 DUP2 MSTORE PUSH1 0x20 ADD PUSH1 0x0 DUP2 MSTORE POP SWAP1 DUP1 PUSH1 0x1 DUP2 SLOAD ADD DUP1 DUP3 SSTORE DUP1 SWAP2 POP POP PUSH1 0x1 SWAP1 SUB SWAP1 PUSH1 0x0 MSTORE PUSH1 0x20 PUSH1 0x0 KECCAK256 SWAP1 PUSH1 0x3 MUL ADD PUSH1 0x0 SWAP1 SWAP2 SWAP1 SWAP2 SWAP1 SWAP2 POP PUSH1 0x0 DUP3 ADD MLOAD DUP2 PUSH1 0x0 ADD PUSH1 0x0 PUSH2 0x100 EXP DUP2 SLOAD DUP2 PUSH20 0xFFFFFFFFFFFFFFFFFFFFFFFFFFFFFFFFFFFFFFFF MUL NOT AND SWAP1 DUP4 PUSH20 0xFFFFFFFFFFFFFFFFFFFFFFFFFFFFFFFFFFFFFFFF AND MUL OR SWAP1 SSTORE POP PUSH1 0x20 DUP3 ADD MLOAD DUP2 PUSH1 0x1 ADD SSTORE PUSH1 0x40 DUP3 ADD MLOAD DUP2 PUSH1 0x2 ADD SSTORE POP POP PUSH2 0x1FAF PUSH2 0x1F9E PUSH2 0x49C4 JUMP JUMPDEST PUSH2 0x10F PUSH2 0x5290 SWAP1 SWAP2 SWAP1 PUSH4 0xFFFFFFFF AND JUMP JUMPDEST POP JUMPDEST PUSH1 0x0 PUSH2 0x1FBB PUSH2 0x2977 JUMP JUMPDEST DUP7 PUSH8 0xDE0B6B3A7640000 PUSH2 0x1FCF SWAP2 SWAP1 PUSH2 0x88A9 JUMP JUMPDEST PUSH2 0x1FD9 SWAP2 SWAP1 PUSH2 0x8878 JUMP JUMPDEST SWAP1 POP PUSH2 0x10E PUSH1 0x40 MLOAD DUP1 PUSH1 0x60 ADD PUSH1 0x40 MSTORE DUP1 DUP13 PUSH20 0xFFFFFFFFFFFFFFFFFFFFFFFFFFFFFFFFFFFFFFFF AND DUP2 MSTORE PUSH1 0x20 ADD DUP4 DUP2 MSTORE PUSH1 0x20 ADD NUMBER DUP2 MSTORE POP SWAP1 DUP1 PUSH1 0x1 DUP2 SLOAD ADD DUP1 DUP3 SSTORE DUP1 SWAP2 POP POP PUSH1 0x1 SWAP1 SUB SWAP1 PUSH1 0x0 MSTORE PUSH1 0x20 PUSH1 0x0 KECCAK256 SWAP1 PUSH1 0x3 MUL ADD PUSH1 0x0 SWAP1 SWAP2 SWAP1 SWAP2 SWAP1 SWAP2 POP PUSH1 0x0 DUP3 ADD MLOAD DUP2 PUSH1 0x0 ADD PUSH1 0x0 PUSH2 0x100 EXP DUP2 SLOAD DUP2 PUSH20 0xFFFFFFFFFFFFFFFFFFFFFFFFFFFFFFFFFFFFFFFF MUL NOT AND SWAP1 DUP4 PUSH20 0xFFFFFFFFFFFFFFFFFFFFFFFFFFFFFFFFFFFFFFFF AND MUL OR SWAP1 SSTORE POP PUSH1 0x20 DUP3 ADD MLOAD DUP2 PUSH1 0x1 ADD SSTORE PUSH1 0x40 DUP3 ADD MLOAD DUP2 PUSH1 0x2 ADD SSTORE POP POP PUSH2 0x20AA DUP11 PUSH2 0x10F PUSH2 0x5290 SWAP1 SWAP2 SWAP1 PUSH4 0xFFFFFFFF AND JUMP JUMPDEST POP PUSH1 0x0 DUP3 PUSH20 0xFFFFFFFFFFFFFFFFFFFFFFFFFFFFFFFFFFFFFFFF AND PUSH4 0x735DE9F7 PUSH1 0x40 MLOAD DUP2 PUSH4 0xFFFFFFFF AND PUSH1 0xE0 SHL DUP2 MSTORE PUSH1 0x4 ADD PUSH1 0x20 PUSH1 0x40 MLOAD DUP1 DUP4 SUB DUP2 DUP7 DUP1 EXTCODESIZE ISZERO DUP1 ISZERO PUSH2 0x20F3 JUMPI PUSH1 0x0 DUP1 REVERT JUMPDEST POP GAS STATICCALL ISZERO DUP1 ISZERO PUSH2 0x2107 JUMPI RETURNDATASIZE PUSH1 0x0 DUP1 RETURNDATACOPY RETURNDATASIZE PUSH1 0x0 REVERT JUMPDEST POP POP POP POP PUSH1 0x40 MLOAD RETURNDATASIZE PUSH1 0x1F NOT PUSH1 0x1F DUP3 ADD AND DUP3 ADD DUP1 PUSH1 0x40 MSTORE POP DUP2 ADD SWAP1 PUSH2 0x212B SWAP2 SWAP1 PUSH2 0x738C JUMP JUMPDEST SWAP1 POP PUSH1 0x0 PUSH2 0x2137 PUSH2 0x49C4 JUMP JUMPDEST PUSH20 0xFFFFFFFFFFFFFFFFFFFFFFFFFFFFFFFFFFFFFFFF AND PUSH4 0x70A08231 ADDRESS PUSH1 0x40 MLOAD DUP3 PUSH4 0xFFFFFFFF AND PUSH1 0xE0 SHL DUP2 MSTORE PUSH1 0x4 ADD PUSH2 0x216F SWAP2 SWAP1 PUSH2 0x7E01 JUMP JUMPDEST PUSH1 0x20 PUSH1 0x40 MLOAD DUP1 DUP4 SUB DUP2 DUP7 DUP1 EXTCODESIZE ISZERO DUP1 ISZERO PUSH2 0x2187 JUMPI PUSH1 0x0 DUP1 REVERT JUMPDEST POP GAS STATICCALL ISZERO DUP1 ISZERO PUSH2 0x219B JUMPI RETURNDATASIZE PUSH1 0x0 DUP1 RETURNDATACOPY RETURNDATASIZE PUSH1 0x0 REVERT JUMPDEST POP POP POP POP PUSH1 0x40 MLOAD RETURNDATASIZE PUSH1 0x1F NOT PUSH1 0x1F DUP3 ADD AND DUP3 ADD DUP1 PUSH1 0x40 MSTORE POP DUP2 ADD SWAP1 PUSH2 0x21BF SWAP2 SWAP1 PUSH2 0x7441 JUMP JUMPDEST SWAP1 POP PUSH2 0x21C9 PUSH2 0x49C4 JUMP JUMPDEST PUSH20 0xFFFFFFFFFFFFFFFFFFFFFFFFFFFFFFFFFFFFFFFF AND PUSH4 0x95EA7B3 DUP4 DUP4 PUSH1 0x40 MLOAD DUP4 PUSH4 0xFFFFFFFF AND PUSH1 0xE0 SHL DUP2 MSTORE PUSH1 0x4 ADD PUSH2 0x2203 SWAP3 SWAP2 SWAP1 PUSH2 0x7E7C JUMP JUMPDEST PUSH1 0x20 PUSH1 0x40 MLOAD DUP1 DUP4 SUB DUP2 PUSH1 0x0 DUP8 DUP1 EXTCODESIZE ISZERO DUP1 ISZERO PUSH2 0x221D JUMPI PUSH1 0x0 DUP1 REVERT JUMPDEST POP GAS CALL ISZERO DUP1 ISZERO PUSH2 0x2231 JUMPI RETURNDATASIZE PUSH1 0x0 DUP1 RETURNDATACOPY RETURNDATASIZE PUSH1 0x0 REVERT JUMPDEST POP POP POP POP PUSH1 0x40 MLOAD RETURNDATASIZE PUSH1 0x1F NOT PUSH1 0x1F DUP3 ADD AND DUP3 ADD DUP1 PUSH1 0x40 MSTORE POP DUP2 ADD SWAP1 PUSH2 0x2255 SWAP2 SWAP1 PUSH2 0x7128 JUMP JUMPDEST POP DUP2 PUSH20 0xFFFFFFFFFFFFFFFFFFFFFFFFFFFFFFFFFFFFFFFF AND PUSH4 0x5C11D795 DUP3 PUSH1 0x0 DUP15 DUP15 ADDRESS PUSH2 0xE10 TIMESTAMP PUSH2 0x2286 SWAP2 SWAP1 PUSH2 0x8822 JUMP JUMPDEST PUSH1 0x40 MLOAD DUP8 PUSH4 0xFFFFFFFF AND PUSH1 0xE0 SHL DUP2 MSTORE PUSH1 0x4 ADD PUSH2 0x22A7 SWAP7 SWAP6 SWAP5 SWAP4 SWAP3 SWAP2 SWAP1 PUSH2 0x858E JUMP JUMPDEST PUSH1 0x0 PUSH1 0x40 MLOAD DUP1 DUP4 SUB DUP2 PUSH1 0x0 DUP8 DUP1 EXTCODESIZE ISZERO DUP1 ISZERO PUSH2 0x22C1 JUMPI PUSH1 0x0 DUP1 REVERT JUMPDEST POP GAS CALL ISZERO DUP1 ISZERO PUSH2 0x22D5 JUMPI RETURNDATASIZE PUSH1 0x0 DUP1 RETURNDATACOPY RETURNDATASIZE PUSH1 0x0 REVERT JUMPDEST POP POP POP POP DUP12 PUSH20 0xFFFFFFFFFFFFFFFFFFFFFFFFFFFFFFFFFFFFFFFF AND PUSH2 0x10C PUSH1 0x0 SWAP1 SLOAD SWAP1 PUSH2 0x100 EXP SWAP1 DIV PUSH20 0xFFFFFFFFFFFFFFFFFFFFFFFFFFFFFFFFFFFFFFFF AND PUSH20 0xFFFFFFFFFFFFFFFFFFFFFFFFFFFFFFFFFFFFFFFF AND PUSH32 0xB1186973F810894B87AB0BFBEE422FDDCAAD21B46DC705A561451BBB6BAC117 PUSH1 0x40 MLOAD PUSH1 0x40 MLOAD DUP1 SWAP2 SUB SWAP1 LOG3 DUP12 PUSH2 0x10C PUSH1 0x0 PUSH2 0x100 EXP DUP2 SLOAD DUP2 PUSH20 0xFFFFFFFFFFFFFFFFFFFFFFFFFFFFFFFFFFFFFFFF MUL NOT AND SWAP1 DUP4 PUSH20 0xFFFFFFFFFFFFFFFFFFFFFFFFFFFFFFFFFFFFFFFF AND MUL OR SWAP1 SSTORE POP PUSH2 0x23A5 DUP10 DUP10 DUP10 DUP10 DUP10 PUSH2 0x161C JUMP JUMPDEST POP POP POP POP POP POP POP POP POP POP POP POP JUMP JUMPDEST PUSH2 0x23BE DUP4 DUP4 DUP4 PUSH2 0x52C0 JUMP JUMPDEST PUSH2 0x23C7 DUP5 PUSH2 0x5513 JUMP JUMPDEST POP POP POP POP JUMP JUMPDEST PUSH2 0x107 PUSH1 0x0 SWAP1 SLOAD SWAP1 PUSH2 0x100 EXP SWAP1 DIV PUSH20 0xFFFFFFFFFFFFFFFFFFFFFFFFFFFFFFFFFFFFFFFF AND DUP2 JUMP JUMPDEST PUSH2 0x100 SLOAD DUP2 JUMP JUMPDEST PUSH1 0xFB PUSH1 0x0 SWAP1 SLOAD SWAP1 PUSH2 0x100 EXP SWAP1 DIV PUSH1 0xFF AND ISZERO PUSH2 0x244B JUMPI PUSH1 0x40 MLOAD PUSH32 0x8C379A000000000000000000000000000000000000000000000000000000000 DUP2 MSTORE PUSH1 0x4 ADD PUSH2 0x2442 SWAP1 PUSH2 0x8153 JUMP JUMPDEST PUSH1 0x40 MLOAD DUP1 SWAP2 SUB SWAP1 REVERT JUMPDEST PUSH1 0x1 PUSH1 0x3 DUP2 GT ISZERO PUSH2 0x2485 JUMPI PUSH32 0x4E487B7100000000000000000000000000000000000000000000000000000000 PUSH1 0x0 MSTORE PUSH1 0x21 PUSH1 0x4 MSTORE PUSH1 0x24 PUSH1 0x0 REVERT JUMPDEST PUSH2 0x109 PUSH1 0x0 CALLER PUSH20 0xFFFFFFFFFFFFFFFFFFFFFFFFFFFFFFFFFFFFFFFF AND PUSH20 0xFFFFFFFFFFFFFFFFFFFFFFFFFFFFFFFFFFFFFFFF AND DUP2 MSTORE PUSH1 0x20 ADD SWAP1 DUP2 MSTORE PUSH1 0x20 ADD PUSH1 0x0 KECCAK256 PUSH1 0x0 ADD PUSH1 0x0 SWAP1 SLOAD SWAP1 PUSH2 0x100 EXP SWAP1 DIV PUSH1 0xFF AND PUSH1 0x3 DUP2 GT ISZERO PUSH2 0x250E JUMPI PUSH32 0x4E487B7100000000000000000000000000000000000000000000000000000000 PUSH1 0x0 MSTORE PUSH1 0x21 PUSH1 0x4 MSTORE PUSH1 0x24 PUSH1 0x0 REVERT JUMPDEST EQ PUSH2 0x254E JUMPI PUSH1 0x40 MLOAD PUSH32 0x8C379A000000000000000000000000000000000000000000000000000000000 DUP2 MSTORE PUSH1 0x4 ADD PUSH2 0x2545 SWAP1 PUSH2 0x8373 JUMP JUMPDEST PUSH1 0x40 MLOAD DUP1 SWAP2 SUB SWAP1 REVERT JUMPDEST PUSH1 0x2 PUSH1 0xC9 SLOAD EQ ISZERO PUSH2 0x2594 JUMPI PUSH1 0x40 MLOAD PUSH32 0x8C379A000000000000000000000000000000000000000000000000000000000 DUP2 MSTORE PUSH1 0x4 ADD PUSH2 0x258B SWAP1 PUSH2 0x84B3 JUMP JUMPDEST PUSH1 0x40 MLOAD DUP1 SWAP2 SUB SWAP1 REVERT JUMPDEST PUSH1 0x2 PUSH1 0xC9 DUP2 SWAP1 SSTORE POP PUSH1 0x0 PUSH2 0x109 PUSH1 0x0 CALLER PUSH20 0xFFFFFFFFFFFFFFFFFFFFFFFFFFFFFFFFFFFFFFFF AND PUSH20 0xFFFFFFFFFFFFFFFFFFFFFFFFFFFFFFFFFFFFFFFF AND DUP2 MSTORE PUSH1 0x20 ADD SWAP1 DUP2 MSTORE PUSH1 0x20 ADD PUSH1 0x0 KECCAK256 SWAP1 POP PUSH1 0x0 PUSH2 0x25EB DUP3 PUSH2 0x4AED JUMP JUMPDEST SWAP1 POP NUMBER PUSH2 0x25F7 CALLER PUSH2 0x330A JUMP JUMPDEST GT ISZERO PUSH2 0x2638 JUMPI PUSH1 0x40 MLOAD PUSH32 0x8C379A000000000000000000000000000000000000000000000000000000000 DUP2 MSTORE PUSH1 0x4 ADD PUSH2 0x262F SWAP1 PUSH2 0x8413 JUMP JUMPDEST PUSH1 0x40 MLOAD DUP1 SWAP2 SUB SWAP1 REVERT JUMPDEST PUSH1 0xFF SLOAD DUP2 LT PUSH2 0x267C JUMPI PUSH1 0x40 MLOAD PUSH32 0x8C379A000000000000000000000000000000000000000000000000000000000 DUP2 MSTORE PUSH1 0x4 ADD PUSH2 0x2673 SWAP1 PUSH2 0x8333 JUMP JUMPDEST PUSH1 0x40 MLOAD DUP1 SWAP2 SUB SWAP1 REVERT JUMPDEST PUSH1 0x0 DUP1 PUSH2 0x111 SLOAD GT PUSH2 0x2690 JUMPI PUSH1 0xFC SLOAD PUSH2 0x2695 JUMP JUMPDEST PUSH2 0x111 SLOAD JUMPDEST SWAP1 POP PUSH1 0x0 DUP3 PUSH1 0xFF SLOAD PUSH2 0x26A7 SWAP2 SWAP1 PUSH2 0x8903 JUMP JUMPDEST DUP3 GT ISZERO PUSH2 0x26C1 JUMPI DUP3 PUSH1 0xFF SLOAD PUSH2 0x26BC SWAP2 SWAP1 PUSH2 0x8903 JUMP JUMPDEST PUSH2 0x26C3 JUMP JUMPDEST DUP2 JUMPDEST SWAP1 POP PUSH1 0x1 PUSH2 0x10E DUP1 SLOAD SWAP1 POP GT DUP1 ISZERO PUSH2 0x272B JUMPI POP PUSH2 0x10E PUSH1 0x1 DUP2 SLOAD DUP2 LT PUSH2 0x2712 JUMPI PUSH32 0x4E487B7100000000000000000000000000000000000000000000000000000000 PUSH1 0x0 MSTORE PUSH1 0x32 PUSH1 0x4 MSTORE PUSH1 0x24 PUSH1 0x0 REVERT JUMPDEST SWAP1 PUSH1 0x0 MSTORE PUSH1 0x20 PUSH1 0x0 KECCAK256 SWAP1 PUSH1 0x3 MUL ADD PUSH1 0x2 ADD SLOAD DUP5 PUSH1 0x3 ADD SLOAD LT JUMPDEST ISZERO PUSH2 0x27E8 JUMPI DUP4 PUSH1 0x2 ADD SLOAD DUP5 PUSH1 0x4 ADD PUSH1 0x0 PUSH2 0x10E PUSH1 0x0 DUP2 SLOAD DUP2 LT PUSH2 0x2777 JUMPI PUSH32 0x4E487B7100000000000000000000000000000000000000000000000000000000 PUSH1 0x0 MSTORE PUSH1 0x32 PUSH1 0x4 MSTORE PUSH1 0x24 PUSH1 0x0 REVERT JUMPDEST SWAP1 PUSH1 0x0 MSTORE PUSH1 0x20 PUSH1 0x0 KECCAK256 SWAP1 PUSH1 0x3 MUL ADD PUSH1 0x0 ADD PUSH1 0x0 SWAP1 SLOAD SWAP1 PUSH2 0x100 EXP SWAP1 DIV PUSH20 0xFFFFFFFFFFFFFFFFFFFFFFFFFFFFFFFFFFFFFFFF AND PUSH20 0xFFFFFFFFFFFFFFFFFFFFFFFFFFFFFFFFFFFFFFFF AND PUSH20 0xFFFFFFFFFFFFFFFFFFFFFFFFFFFFFFFFFFFFFFFF AND DUP2 MSTORE PUSH1 0x20 ADD SWAP1 DUP2 MSTORE PUSH1 0x20 ADD PUSH1 0x0 KECCAK256 DUP2 SWAP1 SSTORE POP JUMPDEST DUP1 DUP4 PUSH2 0x27F4 SWAP2 SWAP1 PUSH2 0x8822 JUMP JUMPDEST DUP5 PUSH1 0x2 ADD DUP2 SWAP1 SSTORE POP DUP4 PUSH1 0x1 ADD PUSH1 0x0 DUP2 SLOAD DUP1 SWAP3 SWAP2 SWAP1 PUSH2 0x2811 SWAP1 PUSH2 0x8B4D JUMP JUMPDEST SWAP2 SWAP1 POP SSTORE POP NUMBER DUP5 PUSH1 0x3 ADD DUP2 SWAP1 SSTORE POP PUSH1 0x1 PUSH2 0x10E DUP1 SLOAD SWAP1 POP GT ISZERO PUSH2 0x288E JUMPI DUP1 DUP5 PUSH1 0x4 ADD PUSH1 0x0 PUSH2 0x283D PUSH2 0x49C4 JUMP JUMPDEST PUSH20 0xFFFFFFFFFFFFFFFFFFFFFFFFFFFFFFFFFFFFFFFF AND PUSH20 0xFFFFFFFFFFFFFFFFFFFFFFFFFFFFFFFFFFFFFFFF AND DUP2 MSTORE PUSH1 0x20 ADD SWAP1 DUP2 MSTORE PUSH1 0x20 ADD PUSH1 0x0 KECCAK256 PUSH1 0x0 DUP3 DUP3 SLOAD PUSH2 0x2886 SWAP2 SWAP1 PUSH2 0x8822 JUMP JUMPDEST SWAP3 POP POP DUP2 SWAP1 SSTORE POP JUMPDEST PUSH2 0x28C0 CALLER DUP3 PUSH2 0x289B PUSH2 0x49C4 JUMP JUMPDEST PUSH20 0xFFFFFFFFFFFFFFFFFFFFFFFFFFFFFFFFFFFFFFFF AND PUSH2 0x5584 SWAP1 SWAP3 SWAP2 SWAP1 PUSH4 0xFFFFFFFF AND JUMP JUMPDEST CALLER PUSH20 0xFFFFFFFFFFFFFFFFFFFFFFFFFFFFFFFFFFFFFFFF AND PUSH32 0xD54E03B214B3E8C17E98044F98554B6F1B18DD2A3163A2619AFEA7E9B2A6EB97 DUP3 PUSH1 0x40 MLOAD PUSH2 0x2906 SWAP2 SWAP1 PUSH2 0x8573 JUMP JUMPDEST PUSH1 0x40 MLOAD DUP1 SWAP2 SUB SWAP1 LOG2 POP POP POP POP PUSH1 0x1 PUSH1 0xC9 DUP2 SWAP1 SSTORE POP JUMP JUMPDEST PUSH2 0x10E DUP2 DUP2 SLOAD DUP2 LT PUSH2 0x292D JUMPI PUSH1 0x0 DUP1 REVERT JUMPDEST SWAP1 PUSH1 0x0 MSTORE PUSH1 0x20 PUSH1 0x0 KECCAK256 SWAP1 PUSH1 0x3 MUL ADD PUSH1 0x0 SWAP2 POP SWAP1 POP DUP1 PUSH1 0x0 ADD PUSH1 0x0 SWAP1 SLOAD SWAP1 PUSH2 0x100 EXP SWAP1 DIV PUSH20 0xFFFFFFFFFFFFFFFFFFFFFFFFFFFFFFFFFFFFFFFF AND SWAP1 DUP1 PUSH1 0x1 ADD SLOAD SWAP1 DUP1 PUSH1 0x2 ADD SLOAD SWAP1 POP DUP4 JUMP JUMPDEST PUSH1 0x0 PUSH2 0x103 SLOAD PUSH2 0x100 SLOAD PUSH2 0x298B SWAP2 SWAP1 PUSH2 0x88A9 JUMP JUMPDEST PUSH1 0xFF SLOAD PUSH2 0x2998 SWAP2 SWAP1 PUSH2 0x8822 JUMP JUMPDEST SWAP1 POP SWAP1 JUMP JUMPDEST PUSH1 0xFB PUSH1 0x0 SWAP1 SLOAD SWAP1 PUSH2 0x100 EXP SWAP1 DIV PUSH1 0xFF AND ISZERO PUSH2 0x29ED JUMPI PUSH1 0x40 MLOAD PUSH32 0x8C379A000000000000000000000000000000000000000000000000000000000 DUP2 MSTORE PUSH1 0x4 ADD PUSH2 0x29E4 SWAP1 PUSH2 0x8153 JUMP JUMPDEST PUSH1 0x40 MLOAD DUP1 SWAP2 SUB SWAP1 REVERT JUMPDEST PUSH2 0x2A17 PUSH32 0x241ECF16D79D0F8DBFB92CBC07FE17840425976CF0667F022FE9877CAA831B08 CALLER PUSH2 0x322E JUMP JUMPDEST PUSH2 0x2A56 JUMPI PUSH1 0x40 MLOAD PUSH32 0x8C379A000000000000000000000000000000000000000000000000000000000 DUP2 MSTORE PUSH1 0x4 ADD PUSH2 0x2A4D SWAP1 PUSH2 0x8393 JUMP JUMPDEST PUSH1 0x40 MLOAD DUP1 SWAP2 SUB SWAP1 REVERT JUMPDEST PUSH1 0x2 PUSH1 0xC9 SLOAD EQ ISZERO PUSH2 0x2A9C JUMPI PUSH1 0x40 MLOAD PUSH32 0x8C379A000000000000000000000000000000000000000000000000000000000 DUP2 MSTORE PUSH1 0x4 ADD PUSH2 0x2A93 SWAP1 PUSH2 0x84B3 JUMP JUMPDEST PUSH1 0x40 MLOAD DUP1 SWAP2 SUB SWAP1 REVERT JUMPDEST PUSH1 0x2 PUSH1 0xC9 DUP2 SWAP1 SSTORE POP PUSH2 0x2AAD DUP2 PUSH2 0x560A JUMP JUMPDEST PUSH1 0x1 PUSH1 0xC9 DUP2 SWAP1 SSTORE POP POP JUMP JUMPDEST PUSH1 0xFB PUSH1 0x0 SWAP1 SLOAD SWAP1 PUSH2 0x100 EXP SWAP1 DIV PUSH1 0xFF AND ISZERO PUSH2 0x2B08 JUMPI PUSH1 0x40 MLOAD PUSH32 0x8C379A000000000000000000000000000000000000000000000000000000000 DUP2 MSTORE PUSH1 0x4 ADD PUSH2 0x2AFF SWAP1 PUSH2 0x8153 JUMP JUMPDEST PUSH1 0x40 MLOAD DUP1 SWAP2 SUB SWAP1 REVERT JUMPDEST PUSH2 0x2B32 PUSH32 0x241ECF16D79D0F8DBFB92CBC07FE17840425976CF0667F022FE9877CAA831B08 CALLER PUSH2 0x322E JUMP JUMPDEST PUSH2 0x2B71 JUMPI PUSH1 0x40 MLOAD PUSH32 0x8C379A000000000000000000000000000000000000000000000000000000000 DUP2 MSTORE PUSH1 0x4 ADD PUSH2 0x2B68 SWAP1 PUSH2 0x8393 JUMP JUMPDEST PUSH1 0x40 MLOAD DUP1 SWAP2 SUB SWAP1 REVERT JUMPDEST PUSH1 0x2 PUSH1 0xC9 SLOAD EQ ISZERO PUSH2 0x2BB7 JUMPI PUSH1 0x40 MLOAD PUSH32 0x8C379A000000000000000000000000000000000000000000000000000000000 DUP2 MSTORE PUSH1 0x4 ADD PUSH2 0x2BAE SWAP1 PUSH2 0x84B3 JUMP JUMPDEST PUSH1 0x40 MLOAD DUP1 SWAP2 SUB SWAP1 REVERT JUMPDEST PUSH1 0x2 PUSH1 0xC9 DUP2 SWAP1 SSTORE POP PUSH2 0x2BC8 DUP2 PUSH2 0x5715 JUMP JUMPDEST DUP1 PUSH20 0xFFFFFFFFFFFFFFFFFFFFFFFFFFFFFFFFFFFFFFFF AND CALLER PUSH20 0xFFFFFFFFFFFFFFFFFFFFFFFFFFFFFFFFFFFFFFFF AND PUSH32 0xBB39C36A7502B7256E1A687254146A9A2EA7B146C77CB9E40EB0E2B8793781E1 PUSH1 0x40 MLOAD PUSH1 0x40 MLOAD DUP1 SWAP2 SUB SWAP1 LOG3 PUSH1 0x1 PUSH1 0xC9 DUP2 SWAP1 SSTORE POP POP JUMP JUMPDEST PUSH2 0x2C57 PUSH32 0x241ECF16D79D0F8DBFB92CBC07FE17840425976CF0667F022FE9877CAA831B08 CALLER PUSH2 0x322E JUMP JUMPDEST PUSH2 0x2C96 JUMPI PUSH1 0x40 MLOAD PUSH32 0x8C379A000000000000000000000000000000000000000000000000000000000 DUP2 MSTORE PUSH1 0x4 ADD PUSH2 0x2C8D SWAP1 PUSH2 0x8393 JUMP JUMPDEST PUSH1 0x40 MLOAD DUP1 SWAP2 SUB SWAP1 REVERT JUMPDEST PUSH2 0x2C9F DUP2 PUSH2 0x5850 JUMP JUMPDEST POP JUMP JUMPDEST PUSH1 0xFE SLOAD DUP2 JUMP JUMPDEST PUSH2 0x108 PUSH1 0x0 SWAP1 SLOAD SWAP1 PUSH2 0x100 EXP SWAP1 DIV PUSH20 0xFFFFFFFFFFFFFFFFFFFFFFFFFFFFFFFFFFFFFFFF AND DUP2 JUMP JUMPDEST PUSH1 0x60 PUSH1 0x0 PUSH2 0x109 PUSH1 0x0 DUP5 PUSH20 0xFFFFFFFFFFFFFFFFFFFFFFFFFFFFFFFFFFFFFFFF AND PUSH20 0xFFFFFFFFFFFFFFFFFFFFFFFFFFFFFFFFFFFFFFFF AND DUP2 MSTORE PUSH1 0x20 ADD SWAP1 DUP2 MSTORE PUSH1 0x20 ADD PUSH1 0x0 KECCAK256 SWAP1 POP PUSH1 0x0 PUSH2 0x2D22 PUSH2 0x10F PUSH2 0x5A14 JUMP JUMPDEST PUSH8 0xFFFFFFFFFFFFFFFF DUP2 GT ISZERO PUSH2 0x2D61 JUMPI PUSH32 0x4E487B7100000000000000000000000000000000000000000000000000000000 PUSH1 0x0 MSTORE PUSH1 0x41 PUSH1 0x4 MSTORE PUSH1 0x24 PUSH1 0x0 REVERT JUMPDEST PUSH1 0x40 MLOAD SWAP1 DUP1 DUP3 MSTORE DUP1 PUSH1 0x20 MUL PUSH1 0x20 ADD DUP3 ADD PUSH1 0x40 MSTORE DUP1 ISZERO PUSH2 0x2D8F JUMPI DUP2 PUSH1 0x20 ADD PUSH1 0x20 DUP3 MUL DUP1 CALLDATASIZE DUP4 CALLDATACOPY DUP1 DUP3 ADD SWAP2 POP POP SWAP1 POP JUMPDEST POP SWAP1 POP PUSH1 0x0 PUSH2 0x2D9F PUSH2 0x10F PUSH2 0x5A14 JUMP JUMPDEST SWAP1 POP PUSH1 0x0 JUMPDEST DUP2 DUP2 LT ISZERO PUSH2 0x2E5A JUMPI DUP4 PUSH1 0x4 ADD PUSH1 0x0 PUSH2 0x2DC7 DUP4 PUSH2 0x10F PUSH2 0x5A29 SWAP1 SWAP2 SWAP1 PUSH4 0xFFFFFFFF AND JUMP JUMPDEST PUSH20 0xFFFFFFFFFFFFFFFFFFFFFFFFFFFFFFFFFFFFFFFF AND PUSH20 0xFFFFFFFFFFFFFFFFFFFFFFFFFFFFFFFFFFFFFFFF AND DUP2 MSTORE PUSH1 0x20 ADD SWAP1 DUP2 MSTORE PUSH1 0x20 ADD PUSH1 0x0 KECCAK256 SLOAD DUP4 DUP3 DUP2 MLOAD DUP2 LT PUSH2 0x2E3B JUMPI PUSH32 0x4E487B7100000000000000000000000000000000000000000000000000000000 PUSH1 0x0 MSTORE PUSH1 0x32 PUSH1 0x4 MSTORE PUSH1 0x24 PUSH1 0x0 REVERT JUMPDEST PUSH1 0x20 MUL PUSH1 0x20 ADD ADD DUP2 DUP2 MSTORE POP POP DUP1 DUP1 PUSH2 0x2E52 SWAP1 PUSH2 0x8B4D JUMP JUMPDEST SWAP2 POP POP PUSH2 0x2DA4 JUMP JUMPDEST POP PUSH1 0x0 DUP3 MLOAD EQ ISZERO PUSH2 0x2F23 JUMPI PUSH1 0x1 PUSH8 0xFFFFFFFFFFFFFFFF DUP2 GT ISZERO PUSH2 0x2EA6 JUMPI PUSH32 0x4E487B7100000000000000000000000000000000000000000000000000000000 PUSH1 0x0 MSTORE PUSH1 0x41 PUSH1 0x4 MSTORE PUSH1 0x24 PUSH1 0x0 REVERT JUMPDEST PUSH1 0x40 MLOAD SWAP1 DUP1 DUP3 MSTORE DUP1 PUSH1 0x20 MUL PUSH1 0x20 ADD DUP3 ADD PUSH1 0x40 MSTORE DUP1 ISZERO PUSH2 0x2ED4 JUMPI DUP2 PUSH1 0x20 ADD PUSH1 0x20 DUP3 MUL DUP1 CALLDATASIZE DUP4 CALLDATACOPY DUP1 DUP3 ADD SWAP2 POP POP SWAP1 POP JUMPDEST POP SWAP2 POP DUP3 PUSH1 0x2 ADD SLOAD DUP3 PUSH1 0x0 DUP2 MLOAD DUP2 LT PUSH2 0x2F16 JUMPI PUSH32 0x4E487B7100000000000000000000000000000000000000000000000000000000 PUSH1 0x0 MSTORE PUSH1 0x32 PUSH1 0x4 MSTORE PUSH1 0x24 PUSH1 0x0 REVERT JUMPDEST PUSH1 0x20 MUL PUSH1 0x20 ADD ADD DUP2 DUP2 MSTORE POP POP JUMPDEST DUP2 SWAP4 POP POP POP POP SWAP2 SWAP1 POP JUMP JUMPDEST PUSH2 0x2F36 PUSH2 0x4E16 JUMP JUMPDEST PUSH20 0xFFFFFFFFFFFFFFFFFFFFFFFFFFFFFFFFFFFFFFFF AND PUSH2 0x2F54 PUSH2 0x3204 JUMP JUMPDEST PUSH20 0xFFFFFFFFFFFFFFFFFFFFFFFFFFFFFFFFFFFFFFFF AND EQ PUSH2 0x2FAA JUMPI PUSH1 0x40 MLOAD PUSH32 0x8C379A000000000000000000000000000000000000000000000000000000000 DUP2 MSTORE PUSH1 0x4 ADD PUSH2 0x2FA1 SWAP1 PUSH2 0x8353 JUMP JUMPDEST PUSH1 0x40 MLOAD DUP1 SWAP2 SUB SWAP1 REVERT JUMPDEST PUSH2 0x2FB4 PUSH1 0x0 PUSH2 0x5A43 JUMP JUMPDEST JUMP JUMPDEST PUSH1 0x0 PUSH2 0x2FCD DUP3 PUSH2 0x10A PUSH2 0x5A29 SWAP1 SWAP2 SWAP1 PUSH4 0xFFFFFFFF AND JUMP JUMPDEST SWAP1 POP SWAP2 SWAP1 POP JUMP JUMPDEST PUSH1 0x0 PUSH2 0x103 SLOAD PUSH2 0x100 SLOAD PUSH2 0x2FE8 SWAP2 SWAP1 PUSH2 0x88A9 JUMP JUMPDEST PUSH1 0xFF SLOAD PUSH2 0x2FF5 SWAP2 SWAP1 PUSH2 0x8822 JUMP JUMPDEST SWAP1 POP SWAP1 JUMP JUMPDEST PUSH2 0x3002 PUSH2 0x4E16 JUMP JUMPDEST PUSH20 0xFFFFFFFFFFFFFFFFFFFFFFFFFFFFFFFFFFFFFFFF AND PUSH2 0x3020 PUSH2 0x3204 JUMP JUMPDEST PUSH20 0xFFFFFFFFFFFFFFFFFFFFFFFFFFFFFFFFFFFFFFFF AND EQ PUSH2 0x3076 JUMPI PUSH1 0x40 MLOAD PUSH32 0x8C379A000000000000000000000000000000000000000000000000000000000 DUP2 MSTORE PUSH1 0x4 ADD PUSH2 0x306D SWAP1 PUSH2 0x8353 JUMP JUMPDEST PUSH1 0x40 MLOAD DUP1 SWAP2 SUB SWAP1 REVERT JUMPDEST DUP1 PUSH20 0xFFFFFFFFFFFFFFFFFFFFFFFFFFFFFFFFFFFFFFFF AND PUSH2 0x107 PUSH1 0x0 SWAP1 SLOAD SWAP1 PUSH2 0x100 EXP SWAP1 DIV PUSH20 0xFFFFFFFFFFFFFFFFFFFFFFFFFFFFFFFFFFFFFFFF AND PUSH20 0xFFFFFFFFFFFFFFFFFFFFFFFFFFFFFFFFFFFFFFFF AND PUSH32 0xD6A84E94DA4B619DD0D993B5689EC82DB4B1095DA99EE0F3E7BB046C647E6AD PUSH1 0x40 MLOAD PUSH1 0x40 MLOAD DUP1 SWAP2 SUB SWAP1 LOG3 DUP1 PUSH2 0x107 PUSH1 0x0 PUSH2 0x100 EXP DUP2 SLOAD DUP2 PUSH20 0xFFFFFFFFFFFFFFFFFFFFFFFFFFFFFFFFFFFFFFFF MUL NOT AND SWAP1 DUP4 PUSH20 0xFFFFFFFFFFFFFFFFFFFFFFFFFFFFFFFFFFFFFFFF AND MUL OR SWAP1 SSTORE POP POP JUMP JUMPDEST PUSH2 0x111 SLOAD DUP2 JUMP JUMPDEST PUSH1 0xFB PUSH1 0x0 SWAP1 SLOAD SWAP1 PUSH2 0x100 EXP SWAP1 DIV PUSH1 0xFF AND ISZERO PUSH2 0x318F JUMPI PUSH1 0x40 MLOAD PUSH32 0x8C379A000000000000000000000000000000000000000000000000000000000 DUP2 MSTORE PUSH1 0x4 ADD PUSH2 0x3186 SWAP1 PUSH2 0x8153 JUMP JUMPDEST PUSH1 0x40 MLOAD DUP1 SWAP2 SUB SWAP1 REVERT JUMPDEST PUSH2 0x31B9 PUSH32 0x241ECF16D79D0F8DBFB92CBC07FE17840425976CF0667F022FE9877CAA831B08 CALLER PUSH2 0x322E JUMP JUMPDEST PUSH2 0x31F8 JUMPI PUSH1 0x40 MLOAD PUSH32 0x8C379A000000000000000000000000000000000000000000000000000000000 DUP2 MSTORE PUSH1 0x4 ADD PUSH2 0x31EF SWAP1 PUSH2 0x8393 JUMP JUMPDEST PUSH1 0x40 MLOAD DUP1 SWAP2 SUB SWAP1 REVERT JUMPDEST PUSH2 0x3201 DUP2 PUSH2 0x5B09 JUMP JUMPDEST POP JUMP JUMPDEST PUSH1 0x0 PUSH1 0x97 PUSH1 0x0 SWAP1 SLOAD SWAP1 PUSH2 0x100 EXP SWAP1 DIV PUSH20 0xFFFFFFFFFFFFFFFFFFFFFFFFFFFFFFFFFFFFFFFF AND SWAP1 POP SWAP1 JUMP JUMPDEST PUSH1 0x0 PUSH1 0x65 PUSH1 0x0 DUP5 DUP2 MSTORE PUSH1 0x20 ADD SWAP1 DUP2 MSTORE PUSH1 0x20 ADD PUSH1 0x0 KECCAK256 PUSH1 0x0 ADD PUSH1 0x0 DUP4 PUSH20 0xFFFFFFFFFFFFFFFFFFFFFFFFFFFFFFFFFFFFFFFF AND PUSH20 0xFFFFFFFFFFFFFFFFFFFFFFFFFFFFFFFFFFFFFFFF AND DUP2 MSTORE PUSH1 0x20 ADD SWAP1 DUP2 MSTORE PUSH1 0x20 ADD PUSH1 0x0 KECCAK256 PUSH1 0x0 SWAP1 SLOAD SWAP1 PUSH2 0x100 EXP SWAP1 DIV PUSH1 0xFF AND SWAP1 POP SWAP3 SWAP2 POP POP JUMP JUMPDEST PUSH1 0xFB PUSH1 0x0 SWAP1 SLOAD SWAP1 PUSH2 0x100 EXP SWAP1 DIV PUSH1 0xFF AND ISZERO PUSH2 0x32E9 JUMPI PUSH1 0x40 MLOAD PUSH32 0x8C379A000000000000000000000000000000000000000000000000000000000 DUP2 MSTORE PUSH1 0x4 ADD PUSH2 0x32E0 SWAP1 PUSH2 0x8153 JUMP JUMPDEST PUSH1 0x40 MLOAD DUP1 SWAP2 SUB SWAP1 REVERT JUMPDEST PUSH2 0x32F4 DUP4 DUP4 DUP4 PUSH2 0x52C0 JUMP JUMPDEST PUSH2 0x32FD DUP5 PUSH2 0x5B7A JUMP JUMPDEST POP POP POP POP JUMP JUMPDEST PUSH2 0x101 SLOAD DUP2 JUMP JUMPDEST PUSH1 0x0 PUSH2 0x3315 DUP3 PUSH2 0x39B3 JUMP JUMPDEST PUSH2 0x109 PUSH1 0x0 DUP5 PUSH20 0xFFFFFFFFFFFFFFFFFFFFFFFFFFFFFFFFFFFFFFFF AND PUSH20 0xFFFFFFFFFFFFFFFFFFFFFFFFFFFFFFFFFFFFFFFF AND DUP2 MSTORE PUSH1 0x20 ADD SWAP1 DUP2 MSTORE PUSH1 0x20 ADD PUSH1 0x0 KECCAK256 PUSH1 0x3 ADD SLOAD PUSH2 0x3363 SWAP2 SWAP1 PUSH2 0x8822 JUMP JUMPDEST SWAP1 POP SWAP2 SWAP1 POP JUMP JUMPDEST PUSH1 0x60 PUSH1 0x0 PUSH2 0x3379 PUSH2 0x10F PUSH2 0x5A14 JUMP JUMPDEST PUSH8 0xFFFFFFFFFFFFFFFF DUP2 GT ISZERO PUSH2 0x33B8 JUMPI PUSH32 0x4E487B7100000000000000000000000000000000000000000000000000000000 PUSH1 0x0 MSTORE PUSH1 0x41 PUSH1 0x4 MSTORE PUSH1 0x24 PUSH1 0x0 REVERT JUMPDEST PUSH1 0x40 MLOAD SWAP1 DUP1 DUP3 MSTORE DUP1 PUSH1 0x20 MUL PUSH1 0x20 ADD DUP3 ADD PUSH1 0x40 MSTORE DUP1 ISZERO PUSH2 0x33E6 JUMPI DUP2 PUSH1 0x20 ADD PUSH1 0x20 DUP3 MUL DUP1 CALLDATASIZE DUP4 CALLDATACOPY DUP1 DUP3 ADD SWAP2 POP POP SWAP1 POP JUMPDEST POP SWAP1 POP PUSH1 0x0 PUSH2 0x33F6 PUSH2 0x10F PUSH2 0x5A14 JUMP JUMPDEST SWAP1 POP PUSH1 0x0 JUMPDEST DUP2 DUP2 LT ISZERO PUSH2 0x349E JUMPI PUSH2 0x3418 DUP2 PUSH2 0x10F PUSH2 0x5A29 SWAP1 SWAP2 SWAP1 PUSH4 0xFFFFFFFF AND JUMP JUMPDEST DUP4 DUP3 DUP2 MLOAD DUP2 LT PUSH2 0x3451 JUMPI PUSH32 0x4E487B7100000000000000000000000000000000000000000000000000000000 PUSH1 0x0 MSTORE PUSH1 0x32 PUSH1 0x4 MSTORE PUSH1 0x24 PUSH1 0x0 REVERT JUMPDEST PUSH1 0x20 MUL PUSH1 0x20 ADD ADD SWAP1 PUSH20 0xFFFFFFFFFFFFFFFFFFFFFFFFFFFFFFFFFFFFFFFF AND SWAP1 DUP2 PUSH20 0xFFFFFFFFFFFFFFFFFFFFFFFFFFFFFFFFFFFFFFFF AND DUP2 MSTORE POP POP DUP1 DUP1 PUSH2 0x3496 SWAP1 PUSH2 0x8B4D JUMP JUMPDEST SWAP2 POP POP PUSH2 0x33FB JUMP JUMPDEST POP PUSH1 0x0 DUP3 MLOAD EQ ISZERO PUSH2 0x3598 JUMPI PUSH1 0x1 PUSH8 0xFFFFFFFFFFFFFFFF DUP2 GT ISZERO PUSH2 0x34EA JUMPI PUSH32 0x4E487B7100000000000000000000000000000000000000000000000000000000 PUSH1 0x0 MSTORE PUSH1 0x41 PUSH1 0x4 MSTORE PUSH1 0x24 PUSH1 0x0 REVERT JUMPDEST PUSH1 0x40 MLOAD SWAP1 DUP1 DUP3 MSTORE DUP1 PUSH1 0x20 MUL PUSH1 0x20 ADD DUP3 ADD PUSH1 0x40 MSTORE DUP1 ISZERO PUSH2 0x3518 JUMPI DUP2 PUSH1 0x20 ADD PUSH1 0x20 DUP3 MUL DUP1 CALLDATASIZE DUP4 CALLDATACOPY DUP1 DUP3 ADD SWAP2 POP POP SWAP1 POP JUMPDEST POP SWAP2 POP PUSH2 0x3523 PUSH2 0x49C4 JUMP JUMPDEST DUP3 PUSH1 0x0 DUP2 MLOAD DUP2 LT PUSH2 0x355D JUMPI PUSH32 0x4E487B7100000000000000000000000000000000000000000000000000000000 PUSH1 0x0 MSTORE PUSH1 0x32 PUSH1 0x4 MSTORE PUSH1 0x24 PUSH1 0x0 REVERT JUMPDEST PUSH1 0x20 MUL PUSH1 0x20 ADD ADD SWAP1 PUSH20 0xFFFFFFFFFFFFFFFFFFFFFFFFFFFFFFFFFFFFFFFF AND SWAP1 DUP2 PUSH20 0xFFFFFFFFFFFFFFFFFFFFFFFFFFFFFFFFFFFFFFFF AND DUP2 MSTORE POP POP JUMPDEST DUP2 SWAP3 POP POP POP SWAP1 JUMP JUMPDEST PUSH2 0x10D SLOAD DUP2 JUMP JUMPDEST PUSH1 0x0 DUP1 SHL DUP2 JUMP JUMPDEST PUSH1 0xFF SLOAD DUP2 JUMP JUMPDEST PUSH1 0xFB PUSH1 0x0 SWAP1 SLOAD SWAP1 PUSH2 0x100 EXP SWAP1 DIV PUSH1 0xFF AND ISZERO PUSH2 0x3604 JUMPI PUSH1 0x40 MLOAD PUSH32 0x8C379A000000000000000000000000000000000000000000000000000000000 DUP2 MSTORE PUSH1 0x4 ADD PUSH2 0x35FB SWAP1 PUSH2 0x8153 JUMP JUMPDEST PUSH1 0x40 MLOAD DUP1 SWAP2 SUB SWAP1 REVERT JUMPDEST PUSH2 0x360F DUP4 DUP4 DUP4 PUSH2 0x52C0 JUMP JUMPDEST PUSH2 0x3618 DUP5 PUSH2 0x5B09 JUMP JUMPDEST POP POP POP POP JUMP JUMPDEST PUSH1 0x0 PUSH2 0x109 PUSH1 0x0 DUP4 PUSH20 0xFFFFFFFFFFFFFFFFFFFFFFFFFFFFFFFFFFFFFFFF AND PUSH20 0xFFFFFFFFFFFFFFFFFFFFFFFFFFFFFFFFFFFFFFFF AND DUP2 MSTORE PUSH1 0x20 ADD SWAP1 DUP2 MSTORE PUSH1 0x20 ADD PUSH1 0x0 KECCAK256 SWAP1 POP PUSH1 0x0 PUSH1 0x3 DUP2 GT ISZERO PUSH2 0x369C JUMPI PUSH32 0x4E487B7100000000000000000000000000000000000000000000000000000000 PUSH1 0x0 MSTORE PUSH1 0x21 PUSH1 0x4 MSTORE PUSH1 0x24 PUSH1 0x0 REVERT JUMPDEST DUP2 PUSH1 0x0 ADD PUSH1 0x0 SWAP1 SLOAD SWAP1 PUSH2 0x100 EXP SWAP1 DIV PUSH1 0xFF AND PUSH1 0x3 DUP2 GT ISZERO PUSH2 0x36E6 JUMPI PUSH32 0x4E487B7100000000000000000000000000000000000000000000000000000000 PUSH1 0x0 MSTORE PUSH1 0x21 PUSH1 0x4 MSTORE PUSH1 0x24 PUSH1 0x0 REVERT JUMPDEST EQ PUSH2 0x3726 JUMPI PUSH1 0x40 MLOAD PUSH32 0x8C379A000000000000000000000000000000000000000000000000000000000 DUP2 MSTORE PUSH1 0x4 ADD PUSH2 0x371D SWAP1 PUSH2 0x82F3 JUMP JUMPDEST PUSH1 0x40 MLOAD DUP1 SWAP2 SUB SWAP1 REVERT JUMPDEST PUSH1 0x0 DUP1 PUSH1 0x0 DUP1 PUSH2 0x107 PUSH1 0x0 SWAP1 SLOAD SWAP1 PUSH2 0x100 EXP SWAP1 DIV PUSH20 0xFFFFFFFFFFFFFFFFFFFFFFFFFFFFFFFFFFFFFFFF AND PUSH20 0xFFFFFFFFFFFFFFFFFFFFFFFFFFFFFFFFFFFFFFFF AND PUSH4 0x1567739 DUP8 PUSH1 0x40 MLOAD DUP3 PUSH4 0xFFFFFFFF AND PUSH1 0xE0 SHL DUP2 MSTORE PUSH1 0x4 ADD PUSH2 0x3788 SWAP2 SWAP1 PUSH2 0x7E01 JUMP JUMPDEST PUSH1 0x80 PUSH1 0x40 MLOAD DUP1 DUP4 SUB DUP2 DUP7 DUP1 EXTCODESIZE ISZERO DUP1 ISZERO PUSH2 0x37A0 JUMPI PUSH1 0x0 DUP1 REVERT JUMPDEST POP GAS STATICCALL ISZERO DUP1 ISZERO PUSH2 0x37B4 JUMPI RETURNDATASIZE PUSH1 0x0 DUP1 RETURNDATACOPY RETURNDATASIZE PUSH1 0x0 REVERT JUMPDEST POP POP POP POP PUSH1 0x40 MLOAD RETURNDATASIZE PUSH1 0x1F NOT PUSH1 0x1F DUP3 ADD AND DUP3 ADD DUP1 PUSH1 0x40 MSTORE POP DUP2 ADD SWAP1 PUSH2 0x37D8 SWAP2 SWAP1 PUSH2 0x73B5 JUMP JUMPDEST SWAP4 POP SWAP4 POP SWAP4 POP SWAP4 POP PUSH2 0x37EA DUP6 DUP6 PUSH2 0x5BEB JUMP JUMPDEST DUP3 DUP6 PUSH1 0x1 ADD DUP2 SWAP1 SSTORE POP DUP1 DUP6 PUSH1 0x3 ADD DUP2 SWAP1 SSTORE POP DUP2 DUP6 PUSH1 0x2 ADD DUP2 SWAP1 SSTORE POP PUSH2 0x381A DUP7 PUSH2 0x10A PUSH2 0x5290 SWAP1 SWAP2 SWAP1 PUSH4 0xFFFFFFFF AND JUMP JUMPDEST POP DUP6 PUSH20 0xFFFFFFFFFFFFFFFFFFFFFFFFFFFFFFFFFFFFFFFF AND PUSH32 0x505FE088FEF0D1FB451CCFED842B55A86AF1EE6208502F4BC3327DCB90320829 PUSH1 0x40 MLOAD PUSH1 0x40 MLOAD DUP1 SWAP2 SUB SWAP1 LOG2 POP POP POP POP POP POP JUMP JUMPDEST PUSH2 0x108 PUSH1 0x0 SWAP1 SLOAD SWAP1 PUSH2 0x100 EXP SWAP1 DIV PUSH20 0xFFFFFFFFFFFFFFFFFFFFFFFFFFFFFFFFFFFFFFFF AND PUSH20 0xFFFFFFFFFFFFFFFFFFFFFFFFFFFFFFFFFFFFFFFF AND PUSH4 0x6B0DE23F ADDRESS CALLER PUSH1 0x40 MLOAD DUP4 PUSH4 0xFFFFFFFF AND PUSH1 0xE0 SHL DUP2 MSTORE PUSH1 0x4 ADD PUSH2 0x38C4 SWAP3 SWAP2 SWAP1 PUSH2 0x7E1C JUMP JUMPDEST PUSH1 0x20 PUSH1 0x40 MLOAD DUP1 DUP4 SUB DUP2 DUP7 DUP1 EXTCODESIZE ISZERO DUP1 ISZERO PUSH2 0x38DC JUMPI PUSH1 0x0 DUP1 REVERT JUMPDEST POP GAS STATICCALL ISZERO DUP1 ISZERO PUSH2 0x38F0 JUMPI RETURNDATASIZE PUSH1 0x0 DUP1 RETURNDATACOPY RETURNDATASIZE PUSH1 0x0 REVERT JUMPDEST POP POP POP POP PUSH1 0x40 MLOAD RETURNDATASIZE PUSH1 0x1F NOT PUSH1 0x1F DUP3 ADD AND DUP3 ADD DUP1 PUSH1 0x40 MSTORE POP DUP2 ADD SWAP1 PUSH2 0x3914 SWAP2 SWAP1 PUSH2 0x7128 JUMP JUMPDEST PUSH2 0x3953 JUMPI PUSH1 0x40 MLOAD PUSH32 0x8C379A000000000000000000000000000000000000000000000000000000000 DUP2 MSTORE PUSH1 0x4 ADD PUSH2 0x394A SWAP1 PUSH2 0x8293 JUMP JUMPDEST PUSH1 0x40 MLOAD DUP1 SWAP2 SUB SWAP1 REVERT JUMPDEST PUSH1 0x0 PUSH1 0xFB PUSH1 0x0 PUSH2 0x100 EXP DUP2 SLOAD DUP2 PUSH1 0xFF MUL NOT AND SWAP1 DUP4 ISZERO ISZERO MUL OR SWAP1 SSTORE POP CALLER PUSH20 0xFFFFFFFFFFFFFFFFFFFFFFFFFFFFFFFFFFFFFFFF AND PUSH32 0x4E50048C25972C85AD169C2302967F1E633E8DC6108D6ACA51A90D2A59D4934D PUSH1 0x40 MLOAD PUSH1 0x40 MLOAD DUP1 SWAP2 SUB SWAP1 LOG2 JUMP JUMPDEST PUSH1 0x0 DUP1 PUSH2 0x109 PUSH1 0x0 DUP5 PUSH20 0xFFFFFFFFFFFFFFFFFFFFFFFFFFFFFFFFFFFFFFFF AND PUSH20 0xFFFFFFFFFFFFFFFFFFFFFFFFFFFFFFFFFFFFFFFF AND DUP2 MSTORE PUSH1 0x20 ADD SWAP1 DUP2 MSTORE PUSH1 0x20 ADD PUSH1 0x0 KECCAK256 SWAP1 POP PUSH1 0x0 DUP2 PUSH1 0x1 ADD SLOAD EQ ISZERO PUSH2 0x3A0F JUMPI PUSH1 0x0 SWAP2 POP POP PUSH2 0x3A3E JUMP JUMPDEST PUSH1 0xFE SLOAD PUSH1 0x1 DUP3 PUSH1 0x1 ADD SLOAD PUSH2 0x3A23 SWAP2 SWAP1 PUSH2 0x8903 JUMP JUMPDEST PUSH2 0x3A2D SWAP2 SWAP1 PUSH2 0x88A9 JUMP JUMPDEST PUSH1 0xFD SLOAD PUSH2 0x3A3A SWAP2 SWAP1 PUSH2 0x8822 JUMP JUMPDEST SWAP2 POP POP JUMPDEST SWAP2 SWAP1 POP JUMP JUMPDEST PUSH2 0x108 PUSH1 0x0 SWAP1 SLOAD SWAP1 PUSH2 0x100 EXP SWAP1 DIV PUSH20 0xFFFFFFFFFFFFFFFFFFFFFFFFFFFFFFFFFFFFFFFF AND PUSH20 0xFFFFFFFFFFFFFFFFFFFFFFFFFFFFFFFFFFFFFFFF AND PUSH4 0x6B0DE23F ADDRESS CALLER PUSH1 0x40 MLOAD DUP4 PUSH4 0xFFFFFFFF AND PUSH1 0xE0 SHL DUP2 MSTORE PUSH1 0x4 ADD PUSH2 0x3AA1 SWAP3 SWAP2 SWAP1 PUSH2 0x7E1C JUMP JUMPDEST PUSH1 0x20 PUSH1 0x40 MLOAD DUP1 DUP4 SUB DUP2 DUP7 DUP1 EXTCODESIZE ISZERO DUP1 ISZERO PUSH2 0x3AB9 JUMPI PUSH1 0x0 DUP1 REVERT JUMPDEST POP GAS STATICCALL ISZERO DUP1 ISZERO PUSH2 0x3ACD JUMPI RETURNDATASIZE PUSH1 0x0 DUP1 RETURNDATACOPY RETURNDATASIZE PUSH1 0x0 REVERT JUMPDEST POP POP POP POP PUSH1 0x40 MLOAD RETURNDATASIZE PUSH1 0x1F NOT PUSH1 0x1F DUP3 ADD AND DUP3 ADD DUP1 PUSH1 0x40 MSTORE POP DUP2 ADD SWAP1 PUSH2 0x3AF1 SWAP2 SWAP1 PUSH2 0x7128 JUMP JUMPDEST PUSH2 0x3B30 JUMPI PUSH1 0x40 MLOAD PUSH32 0x8C379A000000000000000000000000000000000000000000000000000000000 DUP2 MSTORE PUSH1 0x4 ADD PUSH2 0x3B27 SWAP1 PUSH2 0x8293 JUMP JUMPDEST PUSH1 0x40 MLOAD DUP1 SWAP2 SUB SWAP1 REVERT JUMPDEST PUSH2 0x3B5A PUSH32 0x241ECF16D79D0F8DBFB92CBC07FE17840425976CF0667F022FE9877CAA831B08 DUP3 PUSH2 0x322E JUMP JUMPDEST PUSH2 0x3B99 JUMPI PUSH1 0x40 MLOAD PUSH32 0x8C379A000000000000000000000000000000000000000000000000000000000 DUP2 MSTORE PUSH1 0x4 ADD PUSH2 0x3B90 SWAP1 PUSH2 0x84F3 JUMP JUMPDEST PUSH1 0x40 MLOAD DUP1 SWAP2 SUB SWAP1 REVERT JUMPDEST PUSH2 0x108 PUSH1 0x0 SWAP1 SLOAD SWAP1 PUSH2 0x100 EXP SWAP1 DIV PUSH20 0xFFFFFFFFFFFFFFFFFFFFFFFFFFFFFFFFFFFFFFFF AND PUSH20 0xFFFFFFFFFFFFFFFFFFFFFFFFFFFFFFFFFFFFFFFF AND DUP2 PUSH20 0xFFFFFFFFFFFFFFFFFFFFFFFFFFFFFFFFFFFFFFFF AND EQ ISZERO PUSH2 0x3C2B JUMPI PUSH1 0x40 MLOAD PUSH32 0x8C379A000000000000000000000000000000000000000000000000000000000 DUP2 MSTORE PUSH1 0x4 ADD PUSH2 0x3C22 SWAP1 PUSH2 0x83B3 JUMP JUMPDEST PUSH1 0x40 MLOAD DUP1 SWAP2 SUB SWAP1 REVERT JUMPDEST PUSH2 0x3C55 PUSH32 0x241ECF16D79D0F8DBFB92CBC07FE17840425976CF0667F022FE9877CAA831B08 DUP3 PUSH2 0x51AE JUMP JUMPDEST DUP1 PUSH20 0xFFFFFFFFFFFFFFFFFFFFFFFFFFFFFFFFFFFFFFFF AND CALLER PUSH20 0xFFFFFFFFFFFFFFFFFFFFFFFFFFFFFFFFFFFFFFFF AND PUSH32 0x3E902A6EE93DD5B2D48BD1009C7701A481BE512B1EF73DBED2F95EA44C59EA88 PUSH1 0x40 MLOAD PUSH1 0x40 MLOAD DUP1 SWAP2 SUB SWAP1 LOG3 POP JUMP JUMPDEST PUSH1 0xFB PUSH1 0x0 SWAP1 SLOAD SWAP1 PUSH2 0x100 EXP SWAP1 DIV PUSH1 0xFF AND ISZERO PUSH2 0x3D02 JUMPI PUSH1 0x40 MLOAD PUSH32 0x8C379A000000000000000000000000000000000000000000000000000000000 DUP2 MSTORE PUSH1 0x4 ADD PUSH2 0x3CF9 SWAP1 PUSH2 0x8153 JUMP JUMPDEST PUSH1 0x40 MLOAD DUP1 SWAP2 SUB SWAP1 REVERT JUMPDEST PUSH2 0x3D2C PUSH32 0x241ECF16D79D0F8DBFB92CBC07FE17840425976CF0667F022FE9877CAA831B08 CALLER PUSH2 0x322E JUMP JUMPDEST PUSH2 0x3D6B JUMPI PUSH1 0x40 MLOAD PUSH32 0x8C379A000000000000000000000000000000000000000000000000000000000 DUP2 MSTORE PUSH1 0x4 ADD PUSH2 0x3D62 SWAP1 PUSH2 0x8393 JUMP JUMPDEST PUSH1 0x40 MLOAD DUP1 SWAP2 SUB SWAP1 REVERT JUMPDEST PUSH2 0x3D73 PUSH2 0x17D6 JUMP JUMPDEST ISZERO PUSH2 0x3DB3 JUMPI PUSH1 0x40 MLOAD PUSH32 0x8C379A000000000000000000000000000000000000000000000000000000000 DUP2 MSTORE PUSH1 0x4 ADD PUSH2 0x3DAA SWAP1 PUSH2 0x8433 JUMP JUMPDEST PUSH1 0x40 MLOAD DUP1 SWAP2 SUB SWAP1 REVERT JUMPDEST PUSH2 0x108 PUSH1 0x0 SWAP1 SLOAD SWAP1 PUSH2 0x100 EXP SWAP1 DIV PUSH20 0xFFFFFFFFFFFFFFFFFFFFFFFFFFFFFFFFFFFFFFFF AND PUSH20 0xFFFFFFFFFFFFFFFFFFFFFFFFFFFFFFFFFFFFFFFF AND PUSH4 0x174A71D7 PUSH1 0x40 MLOAD DUP2 PUSH4 0xFFFFFFFF AND PUSH1 0xE0 SHL DUP2 MSTORE PUSH1 0x4 ADD PUSH1 0x0 PUSH1 0x40 MLOAD DUP1 DUP4 SUB DUP2 PUSH1 0x0 DUP8 DUP1 EXTCODESIZE ISZERO DUP1 ISZERO PUSH2 0x3E1E JUMPI PUSH1 0x0 DUP1 REVERT JUMPDEST POP GAS CALL ISZERO DUP1 ISZERO PUSH2 0x3E32 JUMPI RETURNDATASIZE PUSH1 0x0 DUP1 RETURNDATACOPY RETURNDATASIZE PUSH1 0x0 REVERT JUMPDEST POP POP POP POP NUMBER PUSH2 0x106 DUP2 SWAP1 SSTORE POP PUSH2 0x3E46 PUSH2 0x4EFF JUMP JUMPDEST CALLER PUSH20 0xFFFFFFFFFFFFFFFFFFFFFFFFFFFFFFFFFFFFFFFF AND PUSH32 0x16A8B794D4E2ED6FFEF50D78AF3D4372CE4BFE8A399BFC23F59B7832EE475390 PUSH1 0x40 MLOAD PUSH1 0x40 MLOAD DUP1 SWAP2 SUB SWAP1 LOG2 JUMP JUMPDEST PUSH2 0x3E93 PUSH2 0x4E16 JUMP JUMPDEST PUSH20 0xFFFFFFFFFFFFFFFFFFFFFFFFFFFFFFFFFFFFFFFF AND PUSH2 0x3EB1 PUSH2 0x3204 JUMP JUMPDEST PUSH20 0xFFFFFFFFFFFFFFFFFFFFFFFFFFFFFFFFFFFFFFFF AND EQ PUSH2 0x3F07 JUMPI PUSH1 0x40 MLOAD PUSH32 0x8C379A000000000000000000000000000000000000000000000000000000000 DUP2 MSTORE PUSH1 0x4 ADD PUSH2 0x3EFE SWAP1 PUSH2 0x8353 JUMP JUMPDEST PUSH1 0x40 MLOAD DUP1 SWAP2 SUB SWAP1 REVERT JUMPDEST DUP1 PUSH2 0x101 PUSH1 0x0 DUP3 DUP3 SLOAD PUSH2 0x3F1A SWAP2 SWAP1 PUSH2 0x8822 JUMP JUMPDEST SWAP3 POP POP DUP2 SWAP1 SSTORE POP POP JUMP JUMPDEST PUSH2 0x3F2C PUSH2 0x4E16 JUMP JUMPDEST PUSH20 0xFFFFFFFFFFFFFFFFFFFFFFFFFFFFFFFFFFFFFFFF AND PUSH2 0x3F4A PUSH2 0x3204 JUMP JUMPDEST PUSH20 0xFFFFFFFFFFFFFFFFFFFFFFFFFFFFFFFFFFFFFFFF AND EQ PUSH2 0x3FA0 JUMPI PUSH1 0x40 MLOAD PUSH32 0x8C379A000000000000000000000000000000000000000000000000000000000 DUP2 MSTORE PUSH1 0x4 ADD PUSH2 0x3F97 SWAP1 PUSH2 0x8353 JUMP JUMPDEST PUSH1 0x40 MLOAD DUP1 SWAP2 SUB SWAP1 REVERT JUMPDEST PUSH1 0x2 PUSH1 0xC9 SLOAD EQ ISZERO PUSH2 0x3FE6 JUMPI PUSH1 0x40 MLOAD PUSH32 0x8C379A000000000000000000000000000000000000000000000000000000000 DUP2 MSTORE PUSH1 0x4 ADD PUSH2 0x3FDD SWAP1 PUSH2 0x84B3 JUMP JUMPDEST PUSH1 0x40 MLOAD DUP1 SWAP2 SUB SWAP1 REVERT JUMPDEST PUSH1 0x2 PUSH1 0xC9 DUP2 SWAP1 SSTORE POP PUSH2 0x4019 DUP3 DUP3 DUP6 PUSH20 0xFFFFFFFFFFFFFFFFFFFFFFFFFFFFFFFFFFFFFFFF AND PUSH2 0x5584 SWAP1 SWAP3 SWAP2 SWAP1 PUSH4 0xFFFFFFFF AND JUMP JUMPDEST PUSH2 0x4021 PUSH2 0x49C4 JUMP JUMPDEST PUSH20 0xFFFFFFFFFFFFFFFFFFFFFFFFFFFFFFFFFFFFFFFF AND DUP4 PUSH20 0xFFFFFFFFFFFFFFFFFFFFFFFFFFFFFFFFFFFFFFFF AND EQ ISZERO PUSH2 0x405D JUMPI PUSH2 0x405C PUSH2 0x4EFF JUMP JUMPDEST JUMPDEST DUP2 PUSH20 0xFFFFFFFFFFFFFFFFFFFFFFFFFFFFFFFFFFFFFFFF AND DUP4 PUSH20 0xFFFFFFFFFFFFFFFFFFFFFFFFFFFFFFFFFFFFFFFF AND PUSH32 0x9B035625E569D1D2BF54830A290AEFBA7AB11610BA8490871DC62B86B63A8956 DUP4 PUSH1 0x40 MLOAD PUSH2 0x40BA SWAP2 SWAP1 PUSH2 0x8573 JUMP JUMPDEST PUSH1 0x40 MLOAD DUP1 SWAP2 SUB SWAP1 LOG3 PUSH1 0x1 PUSH1 0xC9 DUP2 SWAP1 SSTORE POP POP POP POP JUMP JUMPDEST PUSH1 0xFB PUSH1 0x0 SWAP1 SLOAD SWAP1 PUSH2 0x100 EXP SWAP1 DIV PUSH1 0xFF AND ISZERO PUSH2 0x411F JUMPI PUSH1 0x40 MLOAD PUSH32 0x8C379A000000000000000000000000000000000000000000000000000000000 DUP2 MSTORE PUSH1 0x4 ADD PUSH2 0x4116 SWAP1 PUSH2 0x8153 JUMP JUMPDEST PUSH1 0x40 MLOAD DUP1 SWAP2 SUB SWAP1 REVERT JUMPDEST PUSH2 0x4149 PUSH32 0x241ECF16D79D0F8DBFB92CBC07FE17840425976CF0667F022FE9877CAA831B08 CALLER PUSH2 0x322E JUMP JUMPDEST PUSH2 0x4188 JUMPI PUSH1 0x40 MLOAD PUSH32 0x8C379A000000000000000000000000000000000000000000000000000000000 DUP2 MSTORE PUSH1 0x4 ADD PUSH2 0x417F SWAP1 PUSH2 0x8393 JUMP JUMPDEST PUSH1 0x40 MLOAD DUP1 SWAP2 SUB SWAP1 REVERT JUMPDEST PUSH2 0x4191 DUP2 PUSH2 0x5EEF JUMP JUMPDEST POP JUMP JUMPDEST PUSH2 0x103 SLOAD DUP2 JUMP JUMPDEST PUSH2 0x41C5 PUSH32 0x241ECF16D79D0F8DBFB92CBC07FE17840425976CF0667F022FE9877CAA831B08 CALLER PUSH2 0x322E JUMP JUMPDEST PUSH2 0x4204 JUMPI PUSH1 0x40 MLOAD PUSH32 0x8C379A000000000000000000000000000000000000000000000000000000000 DUP2 MSTORE PUSH1 0x4 ADD PUSH2 0x41FB SWAP1 PUSH2 0x8393 JUMP JUMPDEST PUSH1 0x40 MLOAD DUP1 SWAP2 SUB SWAP1 REVERT JUMPDEST PUSH2 0x420D DUP2 PUSH2 0x5513 JUMP JUMPDEST POP JUMP JUMPDEST PUSH1 0xFB PUSH1 0x0 SWAP1 SLOAD SWAP1 PUSH2 0x100 EXP SWAP1 DIV PUSH1 0xFF AND DUP2 JUMP JUMPDEST PUSH1 0xFB PUSH1 0x0 SWAP1 SLOAD SWAP1 PUSH2 0x100 EXP SWAP1 DIV PUSH1 0xFF AND ISZERO PUSH2 0x4273 JUMPI PUSH1 0x40 MLOAD PUSH32 0x8C379A000000000000000000000000000000000000000000000000000000000 DUP2 MSTORE PUSH1 0x4 ADD PUSH2 0x426A SWAP1 PUSH2 0x8153 JUMP JUMPDEST PUSH1 0x40 MLOAD DUP1 SWAP2 SUB SWAP1 REVERT JUMPDEST PUSH2 0x429D PUSH32 0x241ECF16D79D0F8DBFB92CBC07FE17840425976CF0667F022FE9877CAA831B08 CALLER PUSH2 0x322E JUMP JUMPDEST PUSH2 0x42DC JUMPI PUSH1 0x40 MLOAD PUSH32 0x8C379A000000000000000000000000000000000000000000000000000000000 DUP2 MSTORE PUSH1 0x4 ADD PUSH2 0x42D3 SWAP1 PUSH2 0x8393 JUMP JUMPDEST PUSH1 0x40 MLOAD DUP1 SWAP2 SUB SWAP1 REVERT JUMPDEST PUSH2 0x42E5 DUP2 PUSH2 0x5B7A JUMP JUMPDEST POP JUMP JUMPDEST PUSH1 0xFB PUSH1 0x0 SWAP1 SLOAD SWAP1 PUSH2 0x100 EXP SWAP1 DIV PUSH1 0xFF AND ISZERO PUSH2 0x4338 JUMPI PUSH1 0x40 MLOAD PUSH32 0x8C379A000000000000000000000000000000000000000000000000000000000 DUP2 MSTORE PUSH1 0x4 ADD PUSH2 0x432F SWAP1 PUSH2 0x8153 JUMP JUMPDEST PUSH1 0x40 MLOAD DUP1 SWAP2 SUB SWAP1 REVERT JUMPDEST PUSH2 0x4362 PUSH32 0x241ECF16D79D0F8DBFB92CBC07FE17840425976CF0667F022FE9877CAA831B08 CALLER PUSH2 0x322E JUMP JUMPDEST PUSH2 0x43A1 JUMPI PUSH1 0x40 MLOAD PUSH32 0x8C379A000000000000000000000000000000000000000000000000000000000 DUP2 MSTORE PUSH1 0x4 ADD PUSH2 0x4398 SWAP1 PUSH2 0x8393 JUMP JUMPDEST PUSH1 0x40 MLOAD DUP1 SWAP2 SUB SWAP1 REVERT JUMPDEST PUSH2 0x43AA DUP2 PUSH2 0x6027 JUMP JUMPDEST POP JUMP JUMPDEST PUSH2 0x43B5 PUSH2 0x4E16 JUMP JUMPDEST PUSH20 0xFFFFFFFFFFFFFFFFFFFFFFFFFFFFFFFFFFFFFFFF AND PUSH2 0x43D3 PUSH2 0x3204 JUMP JUMPDEST PUSH20 0xFFFFFFFFFFFFFFFFFFFFFFFFFFFFFFFFFFFFFFFF AND EQ PUSH2 0x4429 JUMPI PUSH1 0x40 MLOAD PUSH32 0x8C379A000000000000000000000000000000000000000000000000000000000 DUP2 MSTORE PUSH1 0x4 ADD PUSH2 0x4420 SWAP1 PUSH2 0x8353 JUMP JUMPDEST PUSH1 0x40 MLOAD DUP1 SWAP2 SUB SWAP1 REVERT JUMPDEST DUP1 PUSH20 0xFFFFFFFFFFFFFFFFFFFFFFFFFFFFFFFFFFFFFFFF AND PUSH2 0x108 PUSH1 0x0 SWAP1 SLOAD SWAP1 PUSH2 0x100 EXP SWAP1 DIV PUSH20 0xFFFFFFFFFFFFFFFFFFFFFFFFFFFFFFFFFFFFFFFF AND PUSH20 0xFFFFFFFFFFFFFFFFFFFFFFFFFFFFFFFFFFFFFFFF AND PUSH32 0xDD8D3B7B0BADFC5D636D48E71E28015B4B8554B64D2CFFBA6F0A90BF7693EC00 PUSH1 0x40 MLOAD PUSH1 0x40 MLOAD DUP1 SWAP2 SUB SWAP1 LOG3 DUP1 PUSH2 0x108 PUSH1 0x0 PUSH2 0x100 EXP DUP2 SLOAD DUP2 PUSH20 0xFFFFFFFFFFFFFFFFFFFFFFFFFFFFFFFFFFFFFFFF MUL NOT AND SWAP1 DUP4 PUSH20 0xFFFFFFFFFFFFFFFFFFFFFFFFFFFFFFFFFFFFFFFF AND MUL OR SWAP1 SSTORE POP PUSH2 0x4514 PUSH2 0x108 PUSH1 0x0 SWAP1 SLOAD SWAP1 PUSH2 0x100 EXP SWAP1 DIV PUSH20 0xFFFFFFFFFFFFFFFFFFFFFFFFFFFFFFFFFFFFFFFF AND PUSH2 0x1434 JUMP JUMPDEST POP JUMP JUMPDEST PUSH1 0x0 PUSH1 0xFF SLOAD SWAP1 POP SWAP1 JUMP JUMPDEST PUSH1 0x0 PUSH2 0x4562 JUMPI PUSH1 0x40 MLOAD PUSH32 0x8C379A000000000000000000000000000000000000000000000000000000000 DUP2 MSTORE PUSH1 0x4 ADD PUSH2 0x4559 SWAP1 PUSH2 0x8513 JUMP JUMPDEST PUSH1 0x40 MLOAD DUP1 SWAP2 SUB SWAP1 REVERT JUMPDEST POP POP JUMP JUMPDEST PUSH2 0x102 SLOAD DUP2 JUMP JUMPDEST PUSH1 0x0 PUSH2 0x10E DUP1 SLOAD SWAP1 POP SWAP1 POP SWAP1 JUMP JUMPDEST PUSH2 0x104 SLOAD DUP2 JUMP JUMPDEST PUSH1 0xFB PUSH1 0x0 SWAP1 SLOAD SWAP1 PUSH2 0x100 EXP SWAP1 DIV PUSH1 0xFF AND ISZERO PUSH2 0x45D2 JUMPI PUSH1 0x40 MLOAD PUSH32 0x8C379A000000000000000000000000000000000000000000000000000000000 DUP2 MSTORE PUSH1 0x4 ADD PUSH2 0x45C9 SWAP1 PUSH2 0x8153 JUMP JUMPDEST PUSH1 0x40 MLOAD DUP1 SWAP2 SUB SWAP1 REVERT JUMPDEST PUSH1 0x2 PUSH1 0xC9 SLOAD EQ ISZERO PUSH2 0x4618 JUMPI PUSH1 0x40 MLOAD PUSH32 0x8C379A000000000000000000000000000000000000000000000000000000000 DUP2 MSTORE PUSH1 0x4 ADD PUSH2 0x460F SWAP1 PUSH2 0x84B3 JUMP JUMPDEST PUSH1 0x40 MLOAD DUP1 SWAP2 SUB SWAP1 REVERT JUMPDEST PUSH1 0x2 PUSH1 0xC9 DUP2 SWAP1 SSTORE POP PUSH2 0x462B DUP4 DUP4 DUP4 PUSH2 0x52C0 JUMP JUMPDEST PUSH2 0x4634 DUP5 PUSH2 0x560A JUMP JUMPDEST PUSH1 0x1 PUSH1 0xC9 DUP2 SWAP1 SSTORE POP POP POP POP POP JUMP JUMPDEST PUSH1 0x2 PUSH1 0xC9 SLOAD EQ ISZERO PUSH2 0x4688 JUMPI PUSH1 0x40 MLOAD PUSH32 0x8C379A000000000000000000000000000000000000000000000000000000000 DUP2 MSTORE PUSH1 0x4 ADD PUSH2 0x467F SWAP1 PUSH2 0x84B3 JUMP JUMPDEST PUSH1 0x40 MLOAD DUP1 SWAP2 SUB SWAP1 REVERT JUMPDEST PUSH1 0x2 PUSH1 0xC9 DUP2 SWAP1 SSTORE POP PUSH2 0x46C4 DUP3 ADDRESS DUP4 PUSH2 0x469E PUSH2 0x49C4 JUMP JUMPDEST PUSH20 0xFFFFFFFFFFFFFFFFFFFFFFFFFFFFFFFFFFFFFFFF AND PUSH2 0x615F SWAP1 SWAP4 SWAP3 SWAP2 SWAP1 PUSH4 0xFFFFFFFF AND JUMP JUMPDEST DUP1 PUSH2 0x102 PUSH1 0x0 DUP3 DUP3 SLOAD PUSH2 0x46D7 SWAP2 SWAP1 PUSH2 0x8822 JUMP JUMPDEST SWAP3 POP POP DUP2 SWAP1 SSTORE POP PUSH2 0x46E6 PUSH2 0x4EFF JUMP JUMPDEST CALLER PUSH20 0xFFFFFFFFFFFFFFFFFFFFFFFFFFFFFFFFFFFFFFFF AND PUSH32 0x553260A2E46B0577270D8992DB02D30856CA880144C72D6E9503760946AEF13 DUP3 PUSH1 0x40 MLOAD PUSH2 0x472C SWAP2 SWAP1 PUSH2 0x8573 JUMP JUMPDEST PUSH1 0x40 MLOAD DUP1 SWAP2 SUB SWAP1 LOG2 PUSH1 0x1 PUSH1 0xC9 DUP2 SWAP1 SSTORE POP POP POP JUMP JUMPDEST PUSH1 0x0 PUSH2 0x474D PUSH2 0x10A PUSH2 0x5A14 JUMP JUMPDEST SWAP1 POP SWAP1 JUMP JUMPDEST PUSH2 0x10C PUSH1 0x0 SWAP1 SLOAD SWAP1 PUSH2 0x100 EXP SWAP1 DIV PUSH20 0xFFFFFFFFFFFFFFFFFFFFFFFFFFFFFFFFFFFFFFFF AND DUP2 JUMP JUMPDEST PUSH2 0x4781 PUSH2 0x4E16 JUMP JUMPDEST PUSH20 0xFFFFFFFFFFFFFFFFFFFFFFFFFFFFFFFFFFFFFFFF AND PUSH2 0x479F PUSH2 0x3204 JUMP JUMPDEST PUSH20 0xFFFFFFFFFFFFFFFFFFFFFFFFFFFFFFFFFFFFFFFF AND EQ PUSH2 0x47F5 JUMPI PUSH1 0x40 MLOAD PUSH32 0x8C379A000000000000000000000000000000000000000000000000000000000 DUP2 MSTORE PUSH1 0x4 ADD PUSH2 0x47EC SWAP1 PUSH2 0x8353 JUMP JUMPDEST PUSH1 0x40 MLOAD DUP1 SWAP2 SUB SWAP1 REVERT JUMPDEST PUSH1 0x0 PUSH20 0xFFFFFFFFFFFFFFFFFFFFFFFFFFFFFFFFFFFFFFFF AND DUP2 PUSH20 0xFFFFFFFFFFFFFFFFFFFFFFFFFFFFFFFFFFFFFFFF AND EQ ISZERO PUSH2 0x4865 JUMPI PUSH1 0x40 MLOAD PUSH32 0x8C379A000000000000000000000000000000000000000000000000000000000 DUP2 MSTORE PUSH1 0x4 ADD PUSH2 0x485C SWAP1 PUSH2 0x8113 JUMP JUMPDEST PUSH1 0x40 MLOAD DUP1 SWAP2 SUB SWAP1 REVERT JUMPDEST PUSH2 0x486E DUP2 PUSH2 0x5A43 JUMP JUMPDEST POP JUMP JUMPDEST PUSH2 0x108 PUSH1 0x0 SWAP1 SLOAD SWAP1 PUSH2 0x100 EXP SWAP1 DIV PUSH20 0xFFFFFFFFFFFFFFFFFFFFFFFFFFFFFFFFFFFFFFFF AND PUSH20 0xFFFFFFFFFFFFFFFFFFFFFFFFFFFFFFFFFFFFFFFF AND PUSH4 0x6B0DE23F ADDRESS CALLER PUSH1 0x40 MLOAD DUP4 PUSH4 0xFFFFFFFF AND PUSH1 0xE0 SHL DUP2 MSTORE PUSH1 0x4 ADD PUSH2 0x48CF SWAP3 SWAP2 SWAP1 PUSH2 0x7E1C JUMP JUMPDEST PUSH1 0x20 PUSH1 0x40 MLOAD DUP1 DUP4 SUB DUP2 DUP7 DUP1 EXTCODESIZE ISZERO DUP1 ISZERO PUSH2 0x48E7 JUMPI PUSH1 0x0 DUP1 REVERT JUMPDEST POP GAS STATICCALL ISZERO DUP1 ISZERO PUSH2 0x48FB JUMPI RETURNDATASIZE PUSH1 0x0 DUP1 RETURNDATACOPY RETURNDATASIZE PUSH1 0x0 REVERT JUMPDEST POP POP POP POP PUSH1 0x40 MLOAD RETURNDATASIZE PUSH1 0x1F NOT PUSH1 0x1F DUP3 ADD AND DUP3 ADD DUP1 PUSH1 0x40 MSTORE POP DUP2 ADD SWAP1 PUSH2 0x491F SWAP2 SWAP1 PUSH2 0x7128 JUMP JUMPDEST PUSH2 0x495E JUMPI PUSH1 0x40 MLOAD PUSH32 0x8C379A000000000000000000000000000000000000000000000000000000000 DUP2 MSTORE PUSH1 0x4 ADD PUSH2 0x4955 SWAP1 PUSH2 0x8293 JUMP JUMPDEST PUSH1 0x40 MLOAD DUP1 SWAP2 SUB SWAP1 REVERT JUMPDEST PUSH1 0x1 PUSH1 0xFB PUSH1 0x0 PUSH2 0x100 EXP DUP2 SLOAD DUP2 PUSH1 0xFF MUL NOT AND SWAP1 DUP4 ISZERO ISZERO MUL OR SWAP1 SSTORE POP CALLER PUSH20 0xFFFFFFFFFFFFFFFFFFFFFFFFFFFFFFFFFFFFFFFF AND PUSH32 0xE1E6BC10311F2F958D6CD2D0AB7308C32089AA1ACB8AB11A2CCB60028E332BD0 PUSH1 0x40 MLOAD PUSH1 0x40 MLOAD DUP1 SWAP2 SUB SWAP1 LOG2 JUMP JUMPDEST PUSH1 0xFC SLOAD DUP2 JUMP JUMPDEST PUSH1 0x0 DUP1 PUSH20 0xFFFFFFFFFFFFFFFFFFFFFFFFFFFFFFFFFFFFFFFF AND PUSH2 0x10C PUSH1 0x0 SWAP1 SLOAD SWAP1 PUSH2 0x100 EXP SWAP1 DIV PUSH20 0xFFFFFFFFFFFFFFFFFFFFFFFFFFFFFFFFFFFFFFFF AND PUSH20 0xFFFFFFFFFFFFFFFFFFFFFFFFFFFFFFFFFFFFFFFF AND EQ ISZERO PUSH2 0x4AC3 JUMPI PUSH2 0x108 PUSH1 0x0 SWAP1 SLOAD SWAP1 PUSH2 0x100 EXP SWAP1 DIV PUSH20 0xFFFFFFFFFFFFFFFFFFFFFFFFFFFFFFFFFFFFFFFF AND PUSH20 0xFFFFFFFFFFFFFFFFFFFFFFFFFFFFFFFFFFFFFFFF AND PUSH4 0x1FCCF672 PUSH1 0x40 MLOAD DUP2 PUSH4 0xFFFFFFFF AND PUSH1 0xE0 SHL DUP2 MSTORE PUSH1 0x4 ADD PUSH1 0x20 PUSH1 0x40 MLOAD DUP1 DUP4 SUB DUP2 DUP7 DUP1 EXTCODESIZE ISZERO DUP1 ISZERO PUSH2 0x4A86 JUMPI PUSH1 0x0 DUP1 REVERT JUMPDEST POP GAS STATICCALL ISZERO DUP1 ISZERO PUSH2 0x4A9A JUMPI RETURNDATASIZE PUSH1 0x0 DUP1 RETURNDATACOPY RETURNDATASIZE PUSH1 0x0 REVERT JUMPDEST POP POP POP POP PUSH1 0x40 MLOAD RETURNDATASIZE PUSH1 0x1F NOT PUSH1 0x1F DUP3 ADD AND DUP3 ADD DUP1 PUSH1 0x40 MSTORE POP DUP2 ADD SWAP1 PUSH2 0x4ABE SWAP2 SWAP1 PUSH2 0x7231 JUMP JUMPDEST PUSH2 0x4AE8 JUMP JUMPDEST PUSH2 0x10C PUSH1 0x0 SWAP1 SLOAD SWAP1 PUSH2 0x100 EXP SWAP1 DIV PUSH20 0xFFFFFFFFFFFFFFFFFFFFFFFFFFFFFFFFFFFFFFFF AND JUMPDEST SWAP1 POP SWAP1 JUMP JUMPDEST PUSH1 0x0 DUP1 PUSH2 0x10E DUP1 SLOAD SWAP1 POP SWAP1 POP PUSH1 0x2 DUP2 LT ISZERO PUSH2 0x4B0F JUMPI DUP3 PUSH1 0x2 ADD SLOAD SWAP2 POP POP PUSH2 0x4C09 JUMP JUMPDEST PUSH1 0x0 DUP4 PUSH1 0x2 ADD SLOAD SWAP1 POP PUSH1 0x0 PUSH1 0x1 DUP4 PUSH2 0x4B27 SWAP2 SWAP1 PUSH2 0x8903 JUMP JUMPDEST SWAP1 POP JUMPDEST DUP5 PUSH1 0x3 ADD SLOAD PUSH2 0x10E DUP3 DUP2 SLOAD DUP2 LT PUSH2 0x4B6A JUMPI PUSH32 0x4E487B7100000000000000000000000000000000000000000000000000000000 PUSH1 0x0 MSTORE PUSH1 0x32 PUSH1 0x4 MSTORE PUSH1 0x24 PUSH1 0x0 REVERT JUMPDEST SWAP1 PUSH1 0x0 MSTORE PUSH1 0x20 PUSH1 0x0 KECCAK256 SWAP1 PUSH1 0x3 MUL ADD PUSH1 0x2 ADD SLOAD GT ISZERO PUSH2 0x4C02 JUMPI PUSH8 0xDE0B6B3A7640000 PUSH2 0x10E DUP3 DUP2 SLOAD DUP2 LT PUSH2 0x4BC6 JUMPI PUSH32 0x4E487B7100000000000000000000000000000000000000000000000000000000 PUSH1 0x0 MSTORE PUSH1 0x32 PUSH1 0x4 MSTORE PUSH1 0x24 PUSH1 0x0 REVERT JUMPDEST SWAP1 PUSH1 0x0 MSTORE PUSH1 0x20 PUSH1 0x0 KECCAK256 SWAP1 PUSH1 0x3 MUL ADD PUSH1 0x1 ADD SLOAD DUP4 PUSH2 0x4BE3 SWAP2 SWAP1 PUSH2 0x88A9 JUMP JUMPDEST PUSH2 0x4BED SWAP2 SWAP1 PUSH2 0x8878 JUMP JUMPDEST SWAP2 POP DUP1 DUP1 PUSH2 0x4BFA SWAP1 PUSH2 0x8AF2 JUMP JUMPDEST SWAP2 POP POP PUSH2 0x4B2A JUMP JUMPDEST POP DUP1 SWAP3 POP POP POP JUMPDEST SWAP2 SWAP1 POP JUMP JUMPDEST PUSH1 0x0 PUSH32 0x1FFC9A700000000000000000000000000000000000000000000000000000000 PUSH28 0xFFFFFFFFFFFFFFFFFFFFFFFFFFFFFFFFFFFFFFFFFFFFFFFFFFFFFFFF NOT AND DUP3 PUSH28 0xFFFFFFFFFFFFFFFFFFFFFFFFFFFFFFFFFFFFFFFFFFFFFFFFFFFFFFFF NOT AND EQ SWAP1 POP SWAP2 SWAP1 POP JUMP JUMPDEST PUSH1 0x0 PUSH2 0x4C83 ADDRESS PUSH2 0x61E8 JUMP JUMPDEST ISZERO SWAP1 POP SWAP1 JUMP JUMPDEST PUSH1 0x0 PUSH1 0x1 SWAP1 SLOAD SWAP1 PUSH2 0x100 EXP SWAP1 DIV PUSH1 0xFF AND PUSH2 0x4CD8 JUMPI PUSH1 0x40 MLOAD PUSH32 0x8C379A000000000000000000000000000000000000000000000000000000000 DUP2 MSTORE PUSH1 0x4 ADD PUSH2 0x4CCF SWAP1 PUSH2 0x8473 JUMP JUMPDEST PUSH1 0x40 MLOAD DUP1 SWAP2 SUB SWAP1 REVERT JUMPDEST PUSH2 0x4CE0 PUSH2 0x61FB JUMP JUMPDEST PUSH2 0x4CE8 PUSH2 0x624C JUMP JUMPDEST PUSH2 0x4CF0 PUSH2 0x629D JUMP JUMPDEST JUMP JUMPDEST PUSH1 0x0 PUSH1 0x1 SWAP1 SLOAD SWAP1 PUSH2 0x100 EXP SWAP1 DIV PUSH1 0xFF AND PUSH2 0x4D41 JUMPI PUSH1 0x40 MLOAD PUSH32 0x8C379A000000000000000000000000000000000000000000000000000000000 DUP2 MSTORE PUSH1 0x4 ADD PUSH2 0x4D38 SWAP1 PUSH2 0x8473 JUMP JUMPDEST PUSH1 0x40 MLOAD DUP1 SWAP2 SUB SWAP1 REVERT JUMPDEST PUSH2 0x4D49 PUSH2 0x61FB JUMP JUMPDEST PUSH2 0x4D51 PUSH2 0x62EE JUMP JUMPDEST JUMP JUMPDEST PUSH1 0x0 PUSH1 0x1 SWAP1 SLOAD SWAP1 PUSH2 0x100 EXP SWAP1 DIV PUSH1 0xFF AND PUSH2 0x4DA2 JUMPI PUSH1 0x40 MLOAD PUSH32 0x8C379A000000000000000000000000000000000000000000000000000000000 DUP2 MSTORE PUSH1 0x4 ADD PUSH2 0x4D99 SWAP1 PUSH2 0x8473 JUMP JUMPDEST PUSH1 0x40 MLOAD DUP1 SWAP2 SUB SWAP1 REVERT JUMPDEST PUSH2 0x4DAA PUSH2 0x634F JUMP JUMPDEST JUMP JUMPDEST PUSH1 0x0 PUSH2 0x4DB7 DUP4 PUSH2 0x140D JUMP JUMPDEST SWAP1 POP DUP2 PUSH1 0x65 PUSH1 0x0 DUP6 DUP2 MSTORE PUSH1 0x20 ADD SWAP1 DUP2 MSTORE PUSH1 0x20 ADD PUSH1 0x0 KECCAK256 PUSH1 0x1 ADD DUP2 SWAP1 SSTORE POP DUP2 DUP2 DUP5 PUSH32 0xBD79B86FFE0AB8E8776151514217CD7CACD52C909F66475C3AF44E129F0B00FF PUSH1 0x40 MLOAD PUSH1 0x40 MLOAD DUP1 SWAP2 SUB SWAP1 LOG4 POP POP POP JUMP JUMPDEST PUSH2 0x4E12 DUP3 DUP3 PUSH2 0x4E1E JUMP JUMPDEST POP POP JUMP JUMPDEST PUSH1 0x0 CALLER SWAP1 POP SWAP1 JUMP JUMPDEST PUSH2 0x4E28 DUP3 DUP3 PUSH2 0x322E JUMP JUMPDEST PUSH2 0x4EFB JUMPI PUSH1 0x1 PUSH1 0x65 PUSH1 0x0 DUP5 DUP2 MSTORE PUSH1 0x20 ADD SWAP1 DUP2 MSTORE PUSH1 0x20 ADD PUSH1 0x0 KECCAK256 PUSH1 0x0 ADD PUSH1 0x0 DUP4 PUSH20 0xFFFFFFFFFFFFFFFFFFFFFFFFFFFFFFFFFFFFFFFF AND PUSH20 0xFFFFFFFFFFFFFFFFFFFFFFFFFFFFFFFFFFFFFFFF AND DUP2 MSTORE PUSH1 0x20 ADD SWAP1 DUP2 MSTORE PUSH1 0x20 ADD PUSH1 0x0 KECCAK256 PUSH1 0x0 PUSH2 0x100 EXP DUP2 SLOAD DUP2 PUSH1 0xFF MUL NOT AND SWAP1 DUP4 ISZERO ISZERO MUL OR SWAP1 SSTORE POP PUSH2 0x4EA0 PUSH2 0x4E16 JUMP JUMPDEST PUSH20 0xFFFFFFFFFFFFFFFFFFFFFFFFFFFFFFFFFFFFFFFF AND DUP2 PUSH20 0xFFFFFFFFFFFFFFFFFFFFFFFFFFFFFFFFFFFFFFFF AND DUP4 PUSH32 0x2F8788117E7EFF1D82E926EC794901D17C78024A50270940304540A733656F0D PUSH1 0x40 MLOAD PUSH1 0x40 MLOAD DUP1 SWAP2 SUB SWAP1 LOG4 JUMPDEST POP POP JUMP JUMPDEST PUSH1 0x0 DUP1 PUSH2 0x108 PUSH1 0x0 SWAP1 SLOAD SWAP1 PUSH2 0x100 EXP SWAP1 DIV PUSH20 0xFFFFFFFFFFFFFFFFFFFFFFFFFFFFFFFFFFFFFFFF AND PUSH20 0xFFFFFFFFFFFFFFFFFFFFFFFFFFFFFFFFFFFFFFFF AND PUSH4 0x6B68B2EF PUSH1 0x40 MLOAD DUP2 PUSH4 0xFFFFFFFF AND PUSH1 0xE0 SHL DUP2 MSTORE PUSH1 0x4 ADD PUSH1 0x20 PUSH1 0x40 MLOAD DUP1 DUP4 SUB DUP2 DUP7 DUP1 EXTCODESIZE ISZERO DUP1 ISZERO PUSH2 0x4F6B JUMPI PUSH1 0x0 DUP1 REVERT JUMPDEST POP GAS STATICCALL ISZERO DUP1 ISZERO PUSH2 0x4F7F JUMPI RETURNDATASIZE PUSH1 0x0 DUP1 RETURNDATACOPY RETURNDATASIZE PUSH1 0x0 REVERT JUMPDEST POP POP POP POP PUSH1 0x40 MLOAD RETURNDATASIZE PUSH1 0x1F NOT PUSH1 0x1F DUP3 ADD AND DUP3 ADD DUP1 PUSH1 0x40 MSTORE POP DUP2 ADD SWAP1 PUSH2 0x4FA3 SWAP2 SWAP1 PUSH2 0x7441 JUMP JUMPDEST SWAP1 POP PUSH1 0x0 PUSH2 0x108 PUSH1 0x0 SWAP1 SLOAD SWAP1 PUSH2 0x100 EXP SWAP1 DIV PUSH20 0xFFFFFFFFFFFFFFFFFFFFFFFFFFFFFFFFFFFFFFFF AND PUSH20 0xFFFFFFFFFFFFFFFFFFFFFFFFFFFFFFFFFFFFFFFF AND PUSH4 0xAFAE65BE PUSH1 0x40 MLOAD DUP2 PUSH4 0xFFFFFFFF AND PUSH1 0xE0 SHL DUP2 MSTORE PUSH1 0x4 ADD PUSH1 0x20 PUSH1 0x40 MLOAD DUP1 DUP4 SUB DUP2 DUP7 DUP1 EXTCODESIZE ISZERO DUP1 ISZERO PUSH2 0x5010 JUMPI PUSH1 0x0 DUP1 REVERT JUMPDEST POP GAS STATICCALL ISZERO DUP1 ISZERO PUSH2 0x5024 JUMPI RETURNDATASIZE PUSH1 0x0 DUP1 RETURNDATACOPY RETURNDATASIZE PUSH1 0x0 REVERT JUMPDEST POP POP POP POP PUSH1 0x40 MLOAD RETURNDATASIZE PUSH1 0x1F NOT PUSH1 0x1F DUP3 ADD AND DUP3 ADD DUP1 PUSH1 0x40 MSTORE POP DUP2 ADD SWAP1 PUSH2 0x5048 SWAP2 SWAP1 PUSH2 0x7441 JUMP JUMPDEST SWAP1 POP PUSH1 0x0 PUSH2 0x100 SLOAD EQ DUP1 PUSH2 0x5060 JUMPI POP PUSH2 0x505F PUSH2 0x17D6 JUMP JUMPDEST JUMPDEST DUP1 PUSH2 0x506B JUMPI POP DUP1 DUP3 GT ISZERO JUMPDEST ISZERO PUSH2 0x507A JUMPI PUSH1 0xFC SLOAD SWAP3 POP PUSH2 0x515A JUMP JUMPDEST PUSH2 0x100 SLOAD PUSH2 0x5086 PUSH2 0x49C4 JUMP JUMPDEST PUSH20 0xFFFFFFFFFFFFFFFFFFFFFFFFFFFFFFFFFFFFFFFF AND PUSH4 0x70A08231 ADDRESS PUSH1 0x40 MLOAD DUP3 PUSH4 0xFFFFFFFF AND PUSH1 0xE0 SHL DUP2 MSTORE PUSH1 0x4 ADD PUSH2 0x50BE SWAP2 SWAP1 PUSH2 0x7E01 JUMP JUMPDEST PUSH1 0x20 PUSH1 0x40 MLOAD DUP1 DUP4 SUB DUP2 DUP7 DUP1 EXTCODESIZE ISZERO DUP1 ISZERO PUSH2 0x50D6 JUMPI PUSH1 0x0 DUP1 REVERT JUMPDEST POP GAS STATICCALL ISZERO DUP1 ISZERO PUSH2 0x50EA JUMPI RETURNDATASIZE PUSH1 0x0 DUP1 RETURNDATACOPY RETURNDATASIZE PUSH1 0x0 REVERT JUMPDEST POP POP POP POP PUSH1 0x40 MLOAD RETURNDATASIZE PUSH1 0x1F NOT PUSH1 0x1F DUP3 ADD AND DUP3 ADD DUP1 PUSH1 0x40 MSTORE POP DUP2 ADD SWAP1 PUSH2 0x510E SWAP2 SWAP1 PUSH2 0x7441 JUMP JUMPDEST PUSH2 0x5118 SWAP2 SWAP1 PUSH2 0x8878 JUMP JUMPDEST SWAP3 POP PUSH1 0x0 DUP3 DUP3 PUSH1 0xFC SLOAD PUSH2 0x512B SWAP2 SWAP1 PUSH2 0x88A9 JUMP JUMPDEST PUSH2 0x5135 SWAP2 SWAP1 PUSH2 0x8878 JUMP JUMPDEST SWAP1 POP DUP1 DUP5 LT ISZERO PUSH2 0x5147 JUMPI DUP1 SWAP4 POP PUSH2 0x5158 JUMP JUMPDEST PUSH1 0xFC SLOAD DUP5 GT ISZERO PUSH2 0x5157 JUMPI PUSH1 0xFC SLOAD SWAP4 POP JUMPDEST JUMPDEST POP JUMPDEST PUSH2 0x111 SLOAD DUP4 EQ PUSH2 0x51A9 JUMPI PUSH32 0xC22E16DEEC6F587D0A1AAD7275C1621E6C24431FEA14DD71E8F3243E9FBC5CA3 PUSH2 0x111 SLOAD DUP5 PUSH1 0x40 MLOAD PUSH2 0x5198 SWAP3 SWAP2 SWAP1 PUSH2 0x85EA JUMP JUMPDEST PUSH1 0x40 MLOAD DUP1 SWAP2 SUB SWAP1 LOG1 DUP3 PUSH2 0x111 DUP2 SWAP1 SSTORE POP JUMPDEST POP POP POP JUMP JUMPDEST PUSH2 0x51B8 DUP3 DUP3 PUSH2 0x322E JUMP JUMPDEST ISZERO PUSH2 0x528C JUMPI PUSH1 0x0 PUSH1 0x65 PUSH1 0x0 DUP5 DUP2 MSTORE PUSH1 0x20 ADD SWAP1 DUP2 MSTORE PUSH1 0x20 ADD PUSH1 0x0 KECCAK256 PUSH1 0x0 ADD PUSH1 0x0 DUP4 PUSH20 0xFFFFFFFFFFFFFFFFFFFFFFFFFFFFFFFFFFFFFFFF AND PUSH20 0xFFFFFFFFFFFFFFFFFFFFFFFFFFFFFFFFFFFFFFFF AND DUP2 MSTORE PUSH1 0x20 ADD SWAP1 DUP2 MSTORE PUSH1 0x20 ADD PUSH1 0x0 KECCAK256 PUSH1 0x0 PUSH2 0x100 EXP DUP2 SLOAD DUP2 PUSH1 0xFF MUL NOT AND SWAP1 DUP4 ISZERO ISZERO MUL OR SWAP1 SSTORE POP PUSH2 0x5231 PUSH2 0x4E16 JUMP JUMPDEST PUSH20 0xFFFFFFFFFFFFFFFFFFFFFFFFFFFFFFFFFFFFFFFF AND DUP2 PUSH20 0xFFFFFFFFFFFFFFFFFFFFFFFFFFFFFFFFFFFFFFFF AND DUP4 PUSH32 0xF6391F5C32D9C69D2A47EA670B442974B53935D1EDC7FD64EB21E047A839171B PUSH1 0x40 MLOAD PUSH1 0x40 MLOAD DUP1 SWAP2 SUB SWAP1 LOG4 JUMPDEST POP POP JUMP JUMPDEST PUSH1 0x0 PUSH2 0x52B8 DUP4 PUSH1 0x0 ADD DUP4 PUSH20 0xFFFFFFFFFFFFFFFFFFFFFFFFFFFFFFFFFFFFFFFF AND PUSH1 0x0 SHL PUSH2 0x63A8 JUMP JUMPDEST SWAP1 POP SWAP3 SWAP2 POP POP JUMP JUMPDEST PUSH2 0x108 PUSH1 0x0 SWAP1 SLOAD SWAP1 PUSH2 0x100 EXP SWAP1 DIV PUSH20 0xFFFFFFFFFFFFFFFFFFFFFFFFFFFFFFFFFFFFFFFF AND PUSH20 0xFFFFFFFFFFFFFFFFFFFFFFFFFFFFFFFFFFFFFFFF AND PUSH4 0xAF2D77F8 PUSH1 0x40 MLOAD DUP2 PUSH4 0xFFFFFFFF AND PUSH1 0xE0 SHL DUP2 MSTORE PUSH1 0x4 ADD PUSH1 0x20 PUSH1 0x40 MLOAD DUP1 DUP4 SUB DUP2 DUP7 DUP1 EXTCODESIZE ISZERO DUP1 ISZERO PUSH2 0x5329 JUMPI PUSH1 0x0 DUP1 REVERT JUMPDEST POP GAS STATICCALL ISZERO DUP1 ISZERO PUSH2 0x533D JUMPI RETURNDATASIZE PUSH1 0x0 DUP1 RETURNDATACOPY RETURNDATASIZE PUSH1 0x0 REVERT JUMPDEST POP POP POP POP PUSH1 0x40 MLOAD RETURNDATASIZE PUSH1 0x1F NOT PUSH1 0x1F DUP3 ADD AND DUP3 ADD DUP1 PUSH1 0x40 MSTORE POP DUP2 ADD SWAP1 PUSH2 0x5361 SWAP2 SWAP1 PUSH2 0x6EF6 JUMP JUMPDEST PUSH20 0xFFFFFFFFFFFFFFFFFFFFFFFFFFFFFFFFFFFFFFFF AND CALLER PUSH20 0xFFFFFFFFFFFFFFFFFFFFFFFFFFFFFFFFFFFFFFFF AND EQ PUSH2 0x53CE JUMPI PUSH1 0x40 MLOAD PUSH32 0x8C379A000000000000000000000000000000000000000000000000000000000 DUP2 MSTORE PUSH1 0x4 ADD PUSH2 0x53C5 SWAP1 PUSH2 0x8253 JUMP JUMPDEST PUSH1 0x40 MLOAD DUP1 SWAP2 SUB SWAP1 REVERT JUMPDEST TIMESTAMP DUP4 LT ISZERO PUSH2 0x5411 JUMPI PUSH1 0x40 MLOAD PUSH32 0x8C379A000000000000000000000000000000000000000000000000000000000 DUP2 MSTORE PUSH1 0x4 ADD PUSH2 0x5408 SWAP1 PUSH2 0x8093 JUMP JUMPDEST PUSH1 0x40 MLOAD DUP1 SWAP2 SUB SWAP1 REVERT JUMPDEST PUSH1 0x0 CALLER ADDRESS DUP6 PUSH1 0x40 MLOAD PUSH1 0x20 ADD PUSH2 0x5428 SWAP4 SWAP3 SWAP2 SWAP1 PUSH2 0x7D87 JUMP JUMPDEST PUSH1 0x40 MLOAD PUSH1 0x20 DUP2 DUP4 SUB SUB DUP2 MSTORE SWAP1 PUSH1 0x40 MSTORE DUP1 MLOAD SWAP1 PUSH1 0x20 ADD KECCAK256 SWAP1 POP PUSH1 0x0 PUSH2 0x54A1 DUP5 DUP5 DUP1 DUP1 PUSH1 0x1F ADD PUSH1 0x20 DUP1 SWAP2 DIV MUL PUSH1 0x20 ADD PUSH1 0x40 MLOAD SWAP1 DUP2 ADD PUSH1 0x40 MSTORE DUP1 SWAP4 SWAP3 SWAP2 SWAP1 DUP2 DUP2 MSTORE PUSH1 0x20 ADD DUP4 DUP4 DUP1 DUP3 DUP5 CALLDATACOPY PUSH1 0x0 DUP2 DUP5 ADD MSTORE PUSH1 0x1F NOT PUSH1 0x1F DUP3 ADD AND SWAP1 POP DUP1 DUP4 ADD SWAP3 POP POP POP POP POP POP POP PUSH2 0x5493 DUP5 PUSH2 0x6418 JUMP JUMPDEST PUSH2 0x6448 SWAP1 SWAP2 SWAP1 PUSH4 0xFFFFFFFF AND JUMP JUMPDEST SWAP1 POP PUSH2 0x54CD PUSH32 0x241ECF16D79D0F8DBFB92CBC07FE17840425976CF0667F022FE9877CAA831B08 DUP3 PUSH2 0x322E JUMP JUMPDEST PUSH2 0x550C JUMPI PUSH1 0x40 MLOAD PUSH32 0x8C379A000000000000000000000000000000000000000000000000000000000 DUP2 MSTORE PUSH1 0x4 ADD PUSH2 0x5503 SWAP1 PUSH2 0x84D3 JUMP JUMPDEST PUSH1 0x40 MLOAD DUP1 SWAP2 SUB SWAP1 REVERT JUMPDEST POP POP POP POP POP JUMP JUMPDEST PUSH1 0x0 DUP1 DUP3 MLOAD SWAP1 POP JUMPDEST DUP1 DUP3 LT ISZERO PUSH2 0x557F JUMPI PUSH2 0x556C DUP4 DUP4 DUP2 MLOAD DUP2 LT PUSH2 0x555F JUMPI PUSH32 0x4E487B7100000000000000000000000000000000000000000000000000000000 PUSH1 0x0 MSTORE PUSH1 0x32 PUSH1 0x4 MSTORE PUSH1 0x24 PUSH1 0x0 REVERT JUMPDEST PUSH1 0x20 MUL PUSH1 0x20 ADD ADD MLOAD PUSH2 0x5850 JUMP JUMPDEST DUP2 DUP1 PUSH2 0x5577 SWAP1 PUSH2 0x8B4D JUMP JUMPDEST SWAP3 POP POP PUSH2 0x551B JUMP JUMPDEST POP POP POP JUMP JUMPDEST PUSH2 0x5605 DUP4 PUSH4 0xA9059CBB PUSH1 0xE0 SHL DUP5 DUP5 PUSH1 0x40 MLOAD PUSH1 0x24 ADD PUSH2 0x55A3 SWAP3 SWAP2 SWAP1 PUSH2 0x7E7C JUMP JUMPDEST PUSH1 0x40 MLOAD PUSH1 0x20 DUP2 DUP4 SUB SUB DUP2 MSTORE SWAP1 PUSH1 0x40 MSTORE SWAP1 PUSH28 0xFFFFFFFFFFFFFFFFFFFFFFFFFFFFFFFFFFFFFFFFFFFFFFFFFFFFFFFF NOT AND PUSH1 0x20 DUP3 ADD DUP1 MLOAD PUSH28 0xFFFFFFFFFFFFFFFFFFFFFFFFFFFFFFFFFFFFFFFFFFFFFFFFFFFFFFFF DUP4 DUP2 DUP4 AND OR DUP4 MSTORE POP POP POP POP PUSH2 0x646F JUMP JUMPDEST POP POP POP JUMP JUMPDEST PUSH1 0x0 DUP1 DUP3 MLOAD SWAP1 POP JUMPDEST DUP1 DUP3 LT ISZERO PUSH2 0x5710 JUMPI PUSH2 0x5663 DUP4 DUP4 DUP2 MLOAD DUP2 LT PUSH2 0x5656 JUMPI PUSH32 0x4E487B7100000000000000000000000000000000000000000000000000000000 PUSH1 0x0 MSTORE PUSH1 0x32 PUSH1 0x4 MSTORE PUSH1 0x24 PUSH1 0x0 REVERT JUMPDEST PUSH1 0x20 MUL PUSH1 0x20 ADD ADD MLOAD PUSH2 0x5715 JUMP JUMPDEST DUP3 DUP3 DUP2 MLOAD DUP2 LT PUSH2 0x569C JUMPI PUSH32 0x4E487B7100000000000000000000000000000000000000000000000000000000 PUSH1 0x0 MSTORE PUSH1 0x32 PUSH1 0x4 MSTORE PUSH1 0x24 PUSH1 0x0 REVERT JUMPDEST PUSH1 0x20 MUL PUSH1 0x20 ADD ADD MLOAD PUSH20 0xFFFFFFFFFFFFFFFFFFFFFFFFFFFFFFFFFFFFFFFF AND CALLER PUSH20 0xFFFFFFFFFFFFFFFFFFFFFFFFFFFFFFFFFFFFFFFF AND PUSH32 0xBB39C36A7502B7256E1A687254146A9A2EA7B146C77CB9E40EB0E2B8793781E1 PUSH1 0x40 MLOAD PUSH1 0x40 MLOAD DUP1 SWAP2 SUB SWAP1 LOG3 DUP2 DUP1 PUSH2 0x5708 SWAP1 PUSH2 0x8B4D JUMP JUMPDEST SWAP3 POP POP PUSH2 0x5612 JUMP JUMPDEST POP POP POP JUMP JUMPDEST PUSH1 0x0 PUSH2 0x109 PUSH1 0x0 DUP4 PUSH20 0xFFFFFFFFFFFFFFFFFFFFFFFFFFFFFFFFFFFFFFFF AND PUSH20 0xFFFFFFFFFFFFFFFFFFFFFFFFFFFFFFFFFFFFFFFF AND DUP2 MSTORE PUSH1 0x20 ADD SWAP1 DUP2 MSTORE PUSH1 0x20 ADD PUSH1 0x0 KECCAK256 SWAP1 POP PUSH1 0x0 PUSH1 0x3 DUP2 GT ISZERO PUSH2 0x5793 JUMPI PUSH32 0x4E487B7100000000000000000000000000000000000000000000000000000000 PUSH1 0x0 MSTORE PUSH1 0x21 PUSH1 0x4 MSTORE PUSH1 0x24 PUSH1 0x0 REVERT JUMPDEST DUP2 PUSH1 0x0 ADD PUSH1 0x0 SWAP1 SLOAD SWAP1 PUSH2 0x100 EXP SWAP1 DIV PUSH1 0xFF AND PUSH1 0x3 DUP2 GT ISZERO PUSH2 0x57DD JUMPI PUSH32 0x4E487B7100000000000000000000000000000000000000000000000000000000 PUSH1 0x0 MSTORE PUSH1 0x21 PUSH1 0x4 MSTORE PUSH1 0x24 PUSH1 0x0 REVERT JUMPDEST EQ PUSH2 0x57E8 JUMPI POP PUSH2 0x584D JUMP JUMPDEST PUSH2 0x57F3 DUP2 PUSH1 0x1 PUSH2 0x5BEB JUMP JUMPDEST NUMBER DUP2 PUSH1 0x3 ADD DUP2 SWAP1 SSTORE POP PUSH2 0x5811 DUP3 PUSH2 0x10A PUSH2 0x5290 SWAP1 SWAP2 SWAP1 PUSH4 0xFFFFFFFF AND JUMP JUMPDEST POP PUSH2 0x584B DUP3 PUSH7 0xB1A2BC2EC50000 PUSH2 0x5826 PUSH2 0x49C4 JUMP JUMPDEST PUSH20 0xFFFFFFFFFFFFFFFFFFFFFFFFFFFFFFFFFFFFFFFF AND PUSH2 0x5584 SWAP1 SWAP3 SWAP2 SWAP1 PUSH4 0xFFFFFFFF AND JUMP JUMPDEST POP JUMPDEST POP JUMP JUMPDEST PUSH1 0x0 PUSH2 0x109 PUSH1 0x0 DUP4 PUSH20 0xFFFFFFFFFFFFFFFFFFFFFFFFFFFFFFFFFFFFFFFF AND PUSH20 0xFFFFFFFFFFFFFFFFFFFFFFFFFFFFFFFFFFFFFFFF AND DUP2 MSTORE PUSH1 0x20 ADD SWAP1 DUP2 MSTORE PUSH1 0x20 ADD PUSH1 0x0 KECCAK256 SWAP1 POP PUSH1 0x1 PUSH1 0x3 DUP2 GT ISZERO PUSH2 0x58CE JUMPI PUSH32 0x4E487B7100000000000000000000000000000000000000000000000000000000 PUSH1 0x0 MSTORE PUSH1 0x21 PUSH1 0x4 MSTORE PUSH1 0x24 PUSH1 0x0 REVERT JUMPDEST DUP2 PUSH1 0x0 ADD PUSH1 0x0 SWAP1 SLOAD SWAP1 PUSH2 0x100 EXP SWAP1 DIV PUSH1 0xFF AND PUSH1 0x3 DUP2 GT ISZERO PUSH2 0x5918 JUMPI PUSH32 0x4E487B7100000000000000000000000000000000000000000000000000000000 PUSH1 0x0 MSTORE PUSH1 0x21 PUSH1 0x4 MSTORE PUSH1 0x24 PUSH1 0x0 REVERT JUMPDEST EQ DUP1 PUSH2 0x59A5 JUMPI POP PUSH1 0x2 PUSH1 0x3 DUP2 GT ISZERO PUSH2 0x5959 JUMPI PUSH32 0x4E487B7100000000000000000000000000000000000000000000000000000000 PUSH1 0x0 MSTORE PUSH1 0x21 PUSH1 0x4 MSTORE PUSH1 0x24 PUSH1 0x0 REVERT JUMPDEST DUP2 PUSH1 0x0 ADD PUSH1 0x0 SWAP1 SLOAD SWAP1 PUSH2 0x100 EXP SWAP1 DIV PUSH1 0xFF AND PUSH1 0x3 DUP2 GT ISZERO PUSH2 0x59A3 JUMPI PUSH32 0x4E487B7100000000000000000000000000000000000000000000000000000000 PUSH1 0x0 MSTORE PUSH1 0x21 PUSH1 0x4 MSTORE PUSH1 0x24 PUSH1 0x0 REVERT JUMPDEST EQ JUMPDEST ISZERO PUSH2 0x5A10 JUMPI PUSH2 0x59B5 DUP2 PUSH1 0x3 PUSH2 0x5BEB JUMP JUMPDEST DUP2 PUSH20 0xFFFFFFFFFFFFFFFFFFFFFFFFFFFFFFFFFFFFFFFF AND CALLER PUSH20 0xFFFFFFFFFFFFFFFFFFFFFFFFFFFFFFFFFFFFFFFF AND PUSH32 0x1A6590BD0CABBFCC7C86BEF99E1034054E179905CFCC294598FCD426C0922442 PUSH1 0x40 MLOAD PUSH1 0x40 MLOAD DUP1 SWAP2 SUB SWAP1 LOG3 JUMPDEST POP POP JUMP JUMPDEST PUSH1 0x0 PUSH2 0x5A22 DUP3 PUSH1 0x0 ADD PUSH2 0x6536 JUMP JUMPDEST SWAP1 POP SWAP2 SWAP1 POP JUMP JUMPDEST PUSH1 0x0 PUSH2 0x5A38 DUP4 PUSH1 0x0 ADD DUP4 PUSH2 0x6547 JUMP JUMPDEST PUSH1 0x0 SHR SWAP1 POP SWAP3 SWAP2 POP POP JUMP JUMPDEST PUSH1 0x0 PUSH1 0x97 PUSH1 0x0 SWAP1 SLOAD SWAP1 PUSH2 0x100 EXP SWAP1 DIV PUSH20 0xFFFFFFFFFFFFFFFFFFFFFFFFFFFFFFFFFFFFFFFF AND SWAP1 POP DUP2 PUSH1 0x97 PUSH1 0x0 PUSH2 0x100 EXP DUP2 SLOAD DUP2 PUSH20 0xFFFFFFFFFFFFFFFFFFFFFFFFFFFFFFFFFFFFFFFF MUL NOT AND SWAP1 DUP4 PUSH20 0xFFFFFFFFFFFFFFFFFFFFFFFFFFFFFFFFFFFFFFFF AND MUL OR SWAP1 SSTORE POP DUP2 PUSH20 0xFFFFFFFFFFFFFFFFFFFFFFFFFFFFFFFFFFFFFFFF AND DUP2 PUSH20 0xFFFFFFFFFFFFFFFFFFFFFFFFFFFFFFFFFFFFFFFF AND PUSH32 0x8BE0079C531659141344CD1FD0A4F28419497F9722A3DAAFE3B4186F6B6457E0 PUSH1 0x40 MLOAD PUSH1 0x40 MLOAD DUP1 SWAP2 SUB SWAP1 LOG3 POP POP JUMP JUMPDEST PUSH1 0x0 DUP1 DUP3 MLOAD SWAP1 POP JUMPDEST DUP1 DUP3 LT ISZERO PUSH2 0x5B75 JUMPI PUSH2 0x5B62 DUP4 DUP4 DUP2 MLOAD DUP2 LT PUSH2 0x5B55 JUMPI PUSH32 0x4E487B7100000000000000000000000000000000000000000000000000000000 PUSH1 0x0 MSTORE PUSH1 0x32 PUSH1 0x4 MSTORE PUSH1 0x24 PUSH1 0x0 REVERT JUMPDEST PUSH1 0x20 MUL PUSH1 0x20 ADD ADD MLOAD PUSH2 0x5EEF JUMP JUMPDEST DUP2 DUP1 PUSH2 0x5B6D SWAP1 PUSH2 0x8B4D JUMP JUMPDEST SWAP3 POP POP PUSH2 0x5B11 JUMP JUMPDEST POP POP POP JUMP JUMPDEST PUSH1 0x0 DUP1 DUP3 MLOAD SWAP1 POP JUMPDEST DUP1 DUP3 LT ISZERO PUSH2 0x5BE6 JUMPI PUSH2 0x5BD3 DUP4 DUP4 DUP2 MLOAD DUP2 LT PUSH2 0x5BC6 JUMPI PUSH32 0x4E487B7100000000000000000000000000000000000000000000000000000000 PUSH1 0x0 MSTORE PUSH1 0x32 PUSH1 0x4 MSTORE PUSH1 0x24 PUSH1 0x0 REVERT JUMPDEST PUSH1 0x20 MUL PUSH1 0x20 ADD ADD MLOAD PUSH2 0x6027 JUMP JUMPDEST DUP2 DUP1 PUSH2 0x5BDE SWAP1 PUSH2 0x8B4D JUMP JUMPDEST SWAP3 POP POP PUSH2 0x5B82 JUMP JUMPDEST POP POP POP JUMP JUMPDEST DUP1 PUSH1 0x3 DUP2 GT ISZERO PUSH2 0x5C24 JUMPI PUSH32 0x4E487B7100000000000000000000000000000000000000000000000000000000 PUSH1 0x0 MSTORE PUSH1 0x21 PUSH1 0x4 MSTORE PUSH1 0x24 PUSH1 0x0 REVERT JUMPDEST DUP3 PUSH1 0x0 ADD PUSH1 0x0 SWAP1 SLOAD SWAP1 PUSH2 0x100 EXP SWAP1 DIV PUSH1 0xFF AND PUSH1 0x3 DUP2 GT ISZERO PUSH2 0x5C6E JUMPI PUSH32 0x4E487B7100000000000000000000000000000000000000000000000000000000 PUSH1 0x0 MSTORE PUSH1 0x21 PUSH1 0x4 MSTORE PUSH1 0x24 PUSH1 0x0 REVERT JUMPDEST EQ ISZERO PUSH2 0x5C79 JUMPI PUSH2 0x5EEB JUMP JUMPDEST PUSH1 0x1 PUSH1 0x3 DUP2 GT ISZERO PUSH2 0x5CB3 JUMPI PUSH32 0x4E487B7100000000000000000000000000000000000000000000000000000000 PUSH1 0x0 MSTORE PUSH1 0x21 PUSH1 0x4 MSTORE PUSH1 0x24 PUSH1 0x0 REVERT JUMPDEST DUP2 PUSH1 0x3 DUP2 GT ISZERO PUSH2 0x5CEC JUMPI PUSH32 0x4E487B7100000000000000000000000000000000000000000000000000000000 PUSH1 0x0 MSTORE PUSH1 0x21 PUSH1 0x4 MSTORE PUSH1 0x24 PUSH1 0x0 REVERT JUMPDEST EQ ISZERO PUSH2 0x5DD7 JUMPI PUSH1 0xFC SLOAD PUSH2 0x103 SLOAD PUSH1 0xFF SLOAD PUSH2 0x5D06 SWAP2 SWAP1 PUSH2 0x8903 JUMP JUMPDEST LT ISZERO PUSH2 0x5D47 JUMPI PUSH1 0x40 MLOAD PUSH32 0x8C379A000000000000000000000000000000000000000000000000000000000 DUP2 MSTORE PUSH1 0x4 ADD PUSH2 0x5D3E SWAP1 PUSH2 0x8133 JUMP JUMPDEST PUSH1 0x40 MLOAD DUP1 SWAP2 SUB SWAP1 REVERT JUMPDEST PUSH1 0x0 PUSH2 0x10D SLOAD EQ DUP1 PUSH2 0x5D5E JUMPI POP PUSH2 0x10D SLOAD PUSH2 0x100 SLOAD LT JUMPDEST PUSH2 0x5D9D JUMPI PUSH1 0x40 MLOAD PUSH32 0x8C379A000000000000000000000000000000000000000000000000000000000 DUP2 MSTORE PUSH1 0x4 ADD PUSH2 0x5D94 SWAP1 PUSH2 0x8553 JUMP JUMPDEST PUSH1 0x40 MLOAD DUP1 SWAP2 SUB SWAP1 REVERT JUMPDEST PUSH2 0x100 PUSH1 0x0 DUP2 SLOAD DUP1 SWAP3 SWAP2 SWAP1 PUSH2 0x5DB1 SWAP1 PUSH2 0x8B4D JUMP JUMPDEST SWAP2 SWAP1 POP SSTORE POP PUSH2 0x103 SLOAD PUSH1 0xFF PUSH1 0x0 DUP3 DUP3 SLOAD PUSH2 0x5DCB SWAP2 SWAP1 PUSH2 0x8903 JUMP JUMPDEST SWAP3 POP POP DUP2 SWAP1 SSTORE POP PUSH2 0x5E98 JUMP JUMPDEST PUSH1 0x1 PUSH1 0x3 DUP2 GT ISZERO PUSH2 0x5E11 JUMPI PUSH32 0x4E487B7100000000000000000000000000000000000000000000000000000000 PUSH1 0x0 MSTORE PUSH1 0x21 PUSH1 0x4 MSTORE PUSH1 0x24 PUSH1 0x0 REVERT JUMPDEST DUP3 PUSH1 0x0 ADD PUSH1 0x0 SWAP1 SLOAD SWAP1 PUSH2 0x100 EXP SWAP1 DIV PUSH1 0xFF AND PUSH1 0x3 DUP2 GT ISZERO PUSH2 0x5E5B JUMPI PUSH32 0x4E487B7100000000000000000000000000000000000000000000000000000000 PUSH1 0x0 MSTORE PUSH1 0x21 PUSH1 0x4 MSTORE PUSH1 0x24 PUSH1 0x0 REVERT JUMPDEST EQ ISZERO PUSH2 0x5E97 JUMPI PUSH2 0x100 PUSH1 0x0 DUP2 SLOAD DUP1 SWAP3 SWAP2 SWAP1 PUSH2 0x5E75 SWAP1 PUSH2 0x8AF2 JUMP JUMPDEST SWAP2 SWAP1 POP SSTORE POP PUSH2 0x103 SLOAD PUSH1 0xFF PUSH1 0x0 DUP3 DUP3 SLOAD PUSH2 0x5E8F SWAP2 SWAP1 PUSH2 0x8822 JUMP JUMPDEST SWAP3 POP POP DUP2 SWAP1 SSTORE POP JUMPDEST JUMPDEST DUP1 DUP3 PUSH1 0x0 ADD PUSH1 0x0 PUSH2 0x100 EXP DUP2 SLOAD DUP2 PUSH1 0xFF MUL NOT AND SWAP1 DUP4 PUSH1 0x3 DUP2 GT ISZERO PUSH2 0x5EE5 JUMPI PUSH32 0x4E487B7100000000000000000000000000000000000000000000000000000000 PUSH1 0x0 MSTORE PUSH1 0x21 PUSH1 0x4 MSTORE PUSH1 0x24 PUSH1 0x0 REVERT JUMPDEST MUL OR SWAP1 SSTORE POP JUMPDEST POP POP JUMP JUMPDEST PUSH1 0x0 PUSH2 0x109 PUSH1 0x0 DUP4 PUSH20 0xFFFFFFFFFFFFFFFFFFFFFFFFFFFFFFFFFFFFFFFF AND PUSH20 0xFFFFFFFFFFFFFFFFFFFFFFFFFFFFFFFFFFFFFFFF AND DUP2 MSTORE PUSH1 0x20 ADD SWAP1 DUP2 MSTORE PUSH1 0x20 ADD PUSH1 0x0 KECCAK256 SWAP1 POP PUSH1 0x1 PUSH1 0x3 DUP2 GT ISZERO PUSH2 0x5F6D JUMPI PUSH32 0x4E487B7100000000000000000000000000000000000000000000000000000000 PUSH1 0x0 MSTORE PUSH1 0x21 PUSH1 0x4 MSTORE PUSH1 0x24 PUSH1 0x0 REVERT JUMPDEST DUP2 PUSH1 0x0 ADD PUSH1 0x0 SWAP1 SLOAD SWAP1 PUSH2 0x100 EXP SWAP1 DIV PUSH1 0xFF AND PUSH1 0x3 DUP2 GT ISZERO PUSH2 0x5FB7 JUMPI PUSH32 0x4E487B7100000000000000000000000000000000000000000000000000000000 PUSH1 0x0 MSTORE PUSH1 0x21 PUSH1 0x4 MSTORE PUSH1 0x24 PUSH1 0x0 REVERT JUMPDEST EQ ISZERO PUSH2 0x6023 JUMPI PUSH2 0x5FC8 DUP2 PUSH1 0x2 PUSH2 0x5BEB JUMP JUMPDEST DUP2 PUSH20 0xFFFFFFFFFFFFFFFFFFFFFFFFFFFFFFFFFFFFFFFF AND CALLER PUSH20 0xFFFFFFFFFFFFFFFFFFFFFFFFFFFFFFFFFFFFFFFF AND PUSH32 0x2B9EF93C7856B47A1B624FA3FCC4B651D388DD6D16327F3AD22B05F3DA8B0F15 PUSH1 0x40 MLOAD PUSH1 0x40 MLOAD DUP1 SWAP2 SUB SWAP1 LOG3 JUMPDEST POP POP JUMP JUMPDEST PUSH1 0x0 PUSH2 0x109 PUSH1 0x0 DUP4 PUSH20 0xFFFFFFFFFFFFFFFFFFFFFFFFFFFFFFFFFFFFFFFF AND PUSH20 0xFFFFFFFFFFFFFFFFFFFFFFFFFFFFFFFFFFFFFFFF AND DUP2 MSTORE PUSH1 0x20 ADD SWAP1 DUP2 MSTORE PUSH1 0x20 ADD PUSH1 0x0 KECCAK256 SWAP1 POP PUSH1 0x2 PUSH1 0x3 DUP2 GT ISZERO PUSH2 0x60A5 JUMPI PUSH32 0x4E487B7100000000000000000000000000000000000000000000000000000000 PUSH1 0x0 MSTORE PUSH1 0x21 PUSH1 0x4 MSTORE PUSH1 0x24 PUSH1 0x0 REVERT JUMPDEST DUP2 PUSH1 0x0 ADD PUSH1 0x0 SWAP1 SLOAD SWAP1 PUSH2 0x100 EXP SWAP1 DIV PUSH1 0xFF AND PUSH1 0x3 DUP2 GT ISZERO PUSH2 0x60EF JUMPI PUSH32 0x4E487B7100000000000000000000000000000000000000000000000000000000 PUSH1 0x0 MSTORE PUSH1 0x21 PUSH1 0x4 MSTORE PUSH1 0x24 PUSH1 0x0 REVERT JUMPDEST EQ ISZERO PUSH2 0x615B JUMPI PUSH2 0x6100 DUP2 PUSH1 0x1 PUSH2 0x5BEB JUMP JUMPDEST DUP2 PUSH20 0xFFFFFFFFFFFFFFFFFFFFFFFFFFFFFFFFFFFFFFFF AND CALLER PUSH20 0xFFFFFFFFFFFFFFFFFFFFFFFFFFFFFFFFFFFFFFFF AND PUSH32 0xA589FB4F2925123E7A030DD6BBE76BE46A03F8CE0EA53A78DBB3383C7797DB2C PUSH1 0x40 MLOAD PUSH1 0x40 MLOAD DUP1 SWAP2 SUB SWAP1 LOG3 JUMPDEST POP POP JUMP JUMPDEST PUSH2 0x61E2 DUP5 PUSH4 0x23B872DD PUSH1 0xE0 SHL DUP6 DUP6 DUP6 PUSH1 0x40 MLOAD PUSH1 0x24 ADD PUSH2 0x6180 SWAP4 SWAP3 SWAP2 SWAP1 PUSH2 0x7E45 JUMP JUMPDEST PUSH1 0x40 MLOAD PUSH1 0x20 DUP2 DUP4 SUB SUB DUP2 MSTORE SWAP1 PUSH1 0x40 MSTORE SWAP1 PUSH28 0xFFFFFFFFFFFFFFFFFFFFFFFFFFFFFFFFFFFFFFFFFFFFFFFFFFFFFFFF NOT AND PUSH1 0x20 DUP3 ADD DUP1 MLOAD PUSH28 0xFFFFFFFFFFFFFFFFFFFFFFFFFFFFFFFFFFFFFFFFFFFFFFFFFFFFFFFF DUP4 DUP2 DUP4 AND OR DUP4 MSTORE POP POP POP POP PUSH2 0x646F JUMP JUMPDEST POP POP POP POP JUMP JUMPDEST PUSH1 0x0 DUP1 DUP3 EXTCODESIZE SWAP1 POP PUSH1 0x0 DUP2 GT SWAP2 POP POP SWAP2 SWAP1 POP JUMP JUMPDEST PUSH1 0x0 PUSH1 0x1 SWAP1 SLOAD SWAP1 PUSH2 0x100 EXP SWAP1 DIV PUSH1 0xFF AND PUSH2 0x624A JUMPI PUSH1 0x40 MLOAD PUSH32 0x8C379A000000000000000000000000000000000000000000000000000000000 DUP2 MSTORE PUSH1 0x4 ADD PUSH2 0x6241 SWAP1 PUSH2 0x8473 JUMP JUMPDEST PUSH1 0x40 MLOAD DUP1 SWAP2 SUB SWAP1 REVERT JUMPDEST JUMP JUMPDEST PUSH1 0x0 PUSH1 0x1 SWAP1 SLOAD SWAP1 PUSH2 0x100 EXP SWAP1 DIV PUSH1 0xFF AND PUSH2 0x629B JUMPI PUSH1 0x40 MLOAD PUSH32 0x8C379A000000000000000000000000000000000000000000000000000000000 DUP2 MSTORE PUSH1 0x4 ADD PUSH2 0x6292 SWAP1 PUSH2 0x8473 JUMP JUMPDEST PUSH1 0x40 MLOAD DUP1 SWAP2 SUB SWAP1 REVERT JUMPDEST JUMP JUMPDEST PUSH1 0x0 PUSH1 0x1 SWAP1 SLOAD SWAP1 PUSH2 0x100 EXP SWAP1 DIV PUSH1 0xFF AND PUSH2 0x62EC JUMPI PUSH1 0x40 MLOAD PUSH32 0x8C379A000000000000000000000000000000000000000000000000000000000 DUP2 MSTORE PUSH1 0x4 ADD PUSH2 0x62E3 SWAP1 PUSH2 0x8473 JUMP JUMPDEST PUSH1 0x40 MLOAD DUP1 SWAP2 SUB SWAP1 REVERT JUMPDEST JUMP JUMPDEST PUSH1 0x0 PUSH1 0x1 SWAP1 SLOAD SWAP1 PUSH2 0x100 EXP SWAP1 DIV PUSH1 0xFF AND PUSH2 0x633D JUMPI PUSH1 0x40 MLOAD PUSH32 0x8C379A000000000000000000000000000000000000000000000000000000000 DUP2 MSTORE PUSH1 0x4 ADD PUSH2 0x6334 SWAP1 PUSH2 0x8473 JUMP JUMPDEST PUSH1 0x40 MLOAD DUP1 SWAP2 SUB SWAP1 REVERT JUMPDEST PUSH2 0x634D PUSH2 0x6348 PUSH2 0x4E16 JUMP JUMPDEST PUSH2 0x5A43 JUMP JUMPDEST JUMP JUMPDEST PUSH1 0x0 PUSH1 0x1 SWAP1 SLOAD SWAP1 PUSH2 0x100 EXP SWAP1 DIV PUSH1 0xFF AND PUSH2 0x639E JUMPI PUSH1 0x40 MLOAD PUSH32 0x8C379A000000000000000000000000000000000000000000000000000000000 DUP2 MSTORE PUSH1 0x4 ADD PUSH2 0x6395 SWAP1 PUSH2 0x8473 JUMP JUMPDEST PUSH1 0x40 MLOAD DUP1 SWAP2 SUB SWAP1 REVERT JUMPDEST PUSH1 0x1 PUSH1 0xC9 DUP2 SWAP1 SSTORE POP JUMP JUMPDEST PUSH1 0x0 PUSH2 0x63B4 DUP4 DUP4 PUSH2 0x6598 JUMP JUMPDEST PUSH2 0x640D JUMPI DUP3 PUSH1 0x0 ADD DUP3 SWAP1 DUP1 PUSH1 0x1 DUP2 SLOAD ADD DUP1 DUP3 SSTORE DUP1 SWAP2 POP POP PUSH1 0x1 SWAP1 SUB SWAP1 PUSH1 0x0 MSTORE PUSH1 0x20 PUSH1 0x0 KECCAK256 ADD PUSH1 0x0 SWAP1 SWAP2 SWAP1 SWAP2 SWAP1 SWAP2 POP SSTORE DUP3 PUSH1 0x0 ADD DUP1 SLOAD SWAP1 POP DUP4 PUSH1 0x1 ADD PUSH1 0x0 DUP5 DUP2 MSTORE PUSH1 0x20 ADD SWAP1 DUP2 MSTORE PUSH1 0x20 ADD PUSH1 0x0 KECCAK256 DUP2 SWAP1 SSTORE POP PUSH1 0x1 SWAP1 POP PUSH2 0x6412 JUMP JUMPDEST PUSH1 0x0 SWAP1 POP JUMPDEST SWAP3 SWAP2 POP POP JUMP JUMPDEST PUSH1 0x0 DUP2 PUSH1 0x40 MLOAD PUSH1 0x20 ADD PUSH2 0x642B SWAP2 SWAP1 PUSH2 0x7DDB JUMP JUMPDEST PUSH1 0x40 MLOAD PUSH1 0x20 DUP2 DUP4 SUB SUB DUP2 MSTORE SWAP1 PUSH1 0x40 MSTORE DUP1 MLOAD SWAP1 PUSH1 0x20 ADD KECCAK256 SWAP1 POP SWAP2 SWAP1 POP JUMP JUMPDEST PUSH1 0x0 DUP1 PUSH1 0x0 PUSH2 0x6457 DUP6 DUP6 PUSH2 0x65BB JUMP JUMPDEST SWAP2 POP SWAP2 POP PUSH2 0x6464 DUP2 PUSH2 0x663E JUMP JUMPDEST DUP2 SWAP3 POP POP POP SWAP3 SWAP2 POP POP JUMP JUMPDEST PUSH1 0x0 PUSH2 0x64D1 DUP3 PUSH1 0x40 MLOAD DUP1 PUSH1 0x40 ADD PUSH1 0x40 MSTORE DUP1 PUSH1 0x20 DUP2 MSTORE PUSH1 0x20 ADD PUSH32 0x5361666545524332303A206C6F772D6C6576656C2063616C6C206661696C6564 DUP2 MSTORE POP DUP6 PUSH20 0xFFFFFFFFFFFFFFFFFFFFFFFFFFFFFFFFFFFFFFFF AND PUSH2 0x698F SWAP1 SWAP3 SWAP2 SWAP1 PUSH4 0xFFFFFFFF AND JUMP JUMPDEST SWAP1 POP PUSH1 0x0 DUP2 MLOAD GT ISZERO PUSH2 0x6531 JUMPI DUP1 DUP1 PUSH1 0x20 ADD SWAP1 MLOAD DUP2 ADD SWAP1 PUSH2 0x64F1 SWAP2 SWAP1 PUSH2 0x7128 JUMP JUMPDEST PUSH2 0x6530 JUMPI PUSH1 0x40 MLOAD PUSH32 0x8C379A000000000000000000000000000000000000000000000000000000000 DUP2 MSTORE PUSH1 0x4 ADD PUSH2 0x6527 SWAP1 PUSH2 0x8493 JUMP JUMPDEST PUSH1 0x40 MLOAD DUP1 SWAP2 SUB SWAP1 REVERT JUMPDEST JUMPDEST POP POP POP JUMP JUMPDEST PUSH1 0x0 DUP2 PUSH1 0x0 ADD DUP1 SLOAD SWAP1 POP SWAP1 POP SWAP2 SWAP1 POP JUMP JUMPDEST PUSH1 0x0 DUP3 PUSH1 0x0 ADD DUP3 DUP2 SLOAD DUP2 LT PUSH2 0x6585 JUMPI PUSH32 0x4E487B7100000000000000000000000000000000000000000000000000000000 PUSH1 0x0 MSTORE PUSH1 0x32 PUSH1 0x4 MSTORE PUSH1 0x24 PUSH1 0x0 REVERT JUMPDEST SWAP1 PUSH1 0x0 MSTORE PUSH1 0x20 PUSH1 0x0 KECCAK256 ADD SLOAD SWAP1 POP SWAP3 SWAP2 POP POP JUMP JUMPDEST PUSH1 0x0 DUP1 DUP4 PUSH1 0x1 ADD PUSH1 0x0 DUP5 DUP2 MSTORE PUSH1 0x20 ADD SWAP1 DUP2 MSTORE PUSH1 0x20 ADD PUSH1 0x0 KECCAK256 SLOAD EQ ISZERO SWAP1 POP SWAP3 SWAP2 POP POP JUMP JUMPDEST PUSH1 0x0 DUP1 PUSH1 0x41 DUP4 MLOAD EQ ISZERO PUSH2 0x65FD JUMPI PUSH1 0x0 DUP1 PUSH1 0x0 PUSH1 0x20 DUP7 ADD MLOAD SWAP3 POP PUSH1 0x40 DUP7 ADD MLOAD SWAP2 POP PUSH1 0x60 DUP7 ADD MLOAD PUSH1 0x0 BYTE SWAP1 POP PUSH2 0x65F1 DUP8 DUP3 DUP6 DUP6 PUSH2 0x69A7 JUMP JUMPDEST SWAP5 POP SWAP5 POP POP POP POP PUSH2 0x6637 JUMP JUMPDEST PUSH1 0x40 DUP4 MLOAD EQ ISZERO PUSH2 0x662E JUMPI PUSH1 0x0 DUP1 PUSH1 0x20 DUP6 ADD MLOAD SWAP2 POP PUSH1 0x40 DUP6 ADD MLOAD SWAP1 POP PUSH2 0x6623 DUP7 DUP4 DUP4 PUSH2 0x6AB4 JUMP JUMPDEST SWAP4 POP SWAP4 POP POP POP PUSH2 0x6637 JUMP JUMPDEST PUSH1 0x0 PUSH1 0x2 SWAP2 POP SWAP2 POP JUMPDEST SWAP3 POP SWAP3 SWAP1 POP JUMP JUMPDEST PUSH1 0x0 PUSH1 0x4 DUP2 GT ISZERO PUSH2 0x6678 JUMPI PUSH32 0x4E487B7100000000000000000000000000000000000000000000000000000000 PUSH1 0x0 MSTORE PUSH1 0x21 PUSH1 0x4 MSTORE PUSH1 0x24 PUSH1 0x0 REVERT JUMPDEST DUP2 PUSH1 0x4 DUP2 GT ISZERO PUSH2 0x66B1 JUMPI PUSH32 0x4E487B7100000000000000000000000000000000000000000000000000000000 PUSH1 0x0 MSTORE PUSH1 0x21 PUSH1 0x4 MSTORE PUSH1 0x24 PUSH1 0x0 REVERT JUMPDEST EQ ISZERO PUSH2 0x66BC JUMPI PUSH2 0x698C JUMP JUMPDEST PUSH1 0x1 PUSH1 0x4 DUP2 GT ISZERO PUSH2 0x66F6 JUMPI PUSH32 0x4E487B7100000000000000000000000000000000000000000000000000000000 PUSH1 0x0 MSTORE PUSH1 0x21 PUSH1 0x4 MSTORE PUSH1 0x24 PUSH1 0x0 REVERT JUMPDEST DUP2 PUSH1 0x4 DUP2 GT ISZERO PUSH2 0x672F JUMPI PUSH32 0x4E487B7100000000000000000000000000000000000000000000000000000000 PUSH1 0x0 MSTORE PUSH1 0x21 PUSH1 0x4 MSTORE PUSH1 0x24 PUSH1 0x0 REVERT JUMPDEST EQ ISZERO PUSH2 0x6770 JUMPI PUSH1 0x40 MLOAD PUSH32 0x8C379A000000000000000000000000000000000000000000000000000000000 DUP2 MSTORE PUSH1 0x4 ADD PUSH2 0x6767 SWAP1 PUSH2 0x8053 JUMP JUMPDEST PUSH1 0x40 MLOAD DUP1 SWAP2 SUB SWAP1 REVERT JUMPDEST PUSH1 0x2 PUSH1 0x4 DUP2 GT ISZERO PUSH2 0x67AA JUMPI PUSH32 0x4E487B7100000000000000000000000000000000000000000000000000000000 PUSH1 0x0 MSTORE PUSH1 0x21 PUSH1 0x4 MSTORE PUSH1 0x24 PUSH1 0x0 REVERT JUMPDEST DUP2 PUSH1 0x4 DUP2 GT ISZERO PUSH2 0x67E3 JUMPI PUSH32 0x4E487B7100000000000000000000000000000000000000000000000000000000 PUSH1 0x0 MSTORE PUSH1 0x21 PUSH1 0x4 MSTORE PUSH1 0x24 PUSH1 0x0 REVERT JUMPDEST EQ ISZERO PUSH2 0x6824 JUMPI PUSH1 0x40 MLOAD PUSH32 0x8C379A000000000000000000000000000000000000000000000000000000000 DUP2 MSTORE PUSH1 0x4 ADD PUSH2 0x681B SWAP1 PUSH2 0x80B3 JUMP JUMPDEST PUSH1 0x40 MLOAD DUP1 SWAP2 SUB SWAP1 REVERT JUMPDEST PUSH1 0x3 PUSH1 0x4 DUP2 GT ISZERO PUSH2 0x685E JUMPI PUSH32 0x4E487B7100000000000000000000000000000000000000000000000000000000 PUSH1 0x0 MSTORE PUSH1 0x21 PUSH1 0x4 MSTORE PUSH1 0x24 PUSH1 0x0 REVERT JUMPDEST DUP2 PUSH1 0x4 DUP2 GT ISZERO PUSH2 0x6897 JUMPI PUSH32 0x4E487B7100000000000000000000000000000000000000000000000000000000 PUSH1 0x0 MSTORE PUSH1 0x21 PUSH1 0x4 MSTORE PUSH1 0x24 PUSH1 0x0 REVERT JUMPDEST EQ ISZERO PUSH2 0x68D8 JUMPI PUSH1 0x40 MLOAD PUSH32 0x8C379A000000000000000000000000000000000000000000000000000000000 DUP2 MSTORE PUSH1 0x4 ADD PUSH2 0x68CF SWAP1 PUSH2 0x8173 JUMP JUMPDEST PUSH1 0x40 MLOAD DUP1 SWAP2 SUB SWAP1 REVERT JUMPDEST PUSH1 0x4 DUP1 DUP2 GT ISZERO PUSH2 0x6911 JUMPI PUSH32 0x4E487B7100000000000000000000000000000000000000000000000000000000 PUSH1 0x0 MSTORE PUSH1 0x21 PUSH1 0x4 MSTORE PUSH1 0x24 PUSH1 0x0 REVERT JUMPDEST DUP2 PUSH1 0x4 DUP2 GT ISZERO PUSH2 0x694A JUMPI PUSH32 0x4E487B7100000000000000000000000000000000000000000000000000000000 PUSH1 0x0 MSTORE PUSH1 0x21 PUSH1 0x4 MSTORE PUSH1 0x24 PUSH1 0x0 REVERT JUMPDEST EQ ISZERO PUSH2 0x698B JUMPI PUSH1 0x40 MLOAD PUSH32 0x8C379A000000000000000000000000000000000000000000000000000000000 DUP2 MSTORE PUSH1 0x4 ADD PUSH2 0x6982 SWAP1 PUSH2 0x82D3 JUMP JUMPDEST PUSH1 0x40 MLOAD DUP1 SWAP2 SUB SWAP1 REVERT JUMPDEST JUMPDEST POP JUMP JUMPDEST PUSH1 0x60 PUSH2 0x699E DUP5 DUP5 PUSH1 0x0 DUP6 PUSH2 0x6B02 JUMP JUMPDEST SWAP1 POP SWAP4 SWAP3 POP POP POP JUMP JUMPDEST PUSH1 0x0 DUP1 PUSH32 0x7FFFFFFFFFFFFFFFFFFFFFFFFFFFFFFF5D576E7357A4501DDFE92F46681B20A0 DUP4 PUSH1 0x0 SHR GT ISZERO PUSH2 0x69E2 JUMPI PUSH1 0x0 PUSH1 0x3 SWAP2 POP SWAP2 POP PUSH2 0x6AAB JUMP JUMPDEST PUSH1 0x1B DUP6 PUSH1 0xFF AND EQ ISZERO DUP1 ISZERO PUSH2 0x69FA JUMPI POP PUSH1 0x1C DUP6 PUSH1 0xFF AND EQ ISZERO JUMPDEST ISZERO PUSH2 0x6A0C JUMPI PUSH1 0x0 PUSH1 0x4 SWAP2 POP SWAP2 POP PUSH2 0x6AAB JUMP JUMPDEST PUSH1 0x0 PUSH1 0x1 DUP8 DUP8 DUP8 DUP8 PUSH1 0x40 MLOAD PUSH1 0x0 DUP2 MSTORE PUSH1 0x20 ADD PUSH1 0x40 MSTORE PUSH1 0x40 MLOAD PUSH2 0x6A31 SWAP5 SWAP4 SWAP3 SWAP2 SWAP1 PUSH2 0x7F56 JUMP JUMPDEST PUSH1 0x20 PUSH1 0x40 MLOAD PUSH1 0x20 DUP2 SUB SWAP1 DUP1 DUP5 SUB SWAP1 DUP6 GAS STATICCALL ISZERO DUP1 ISZERO PUSH2 0x6A53 JUMPI RETURNDATASIZE PUSH1 0x0 DUP1 RETURNDATACOPY RETURNDATASIZE PUSH1 0x0 REVERT JUMPDEST POP POP POP PUSH1 0x20 PUSH1 0x40 MLOAD SUB MLOAD SWAP1 POP PUSH1 0x0 PUSH20 0xFFFFFFFFFFFFFFFFFFFFFFFFFFFFFFFFFFFFFFFF AND DUP2 PUSH20 0xFFFFFFFFFFFFFFFFFFFFFFFFFFFFFFFFFFFFFFFF AND EQ ISZERO PUSH2 0x6AA2 JUMPI PUSH1 0x0 PUSH1 0x1 SWAP3 POP SWAP3 POP POP PUSH2 0x6AAB JUMP JUMPDEST DUP1 PUSH1 0x0 SWAP3 POP SWAP3 POP POP JUMPDEST SWAP5 POP SWAP5 SWAP3 POP POP POP JUMP JUMPDEST PUSH1 0x0 DUP1 PUSH1 0x0 DUP1 PUSH32 0x7FFFFFFFFFFFFFFFFFFFFFFFFFFFFFFFFFFFFFFFFFFFFFFFFFFFFFFFFFFFFFFF DUP6 AND SWAP2 POP PUSH1 0x1B DUP6 PUSH1 0xFF SHR ADD SWAP1 POP PUSH2 0x6AF4 DUP8 DUP3 DUP9 DUP6 PUSH2 0x69A7 JUMP JUMPDEST SWAP4 POP SWAP4 POP POP POP SWAP4 POP SWAP4 SWAP2 POP POP JUMP JUMPDEST PUSH1 0x60 DUP3 SELFBALANCE LT ISZERO PUSH2 0x6B47 JUMPI PUSH1 0x40 MLOAD PUSH32 0x8C379A000000000000000000000000000000000000000000000000000000000 DUP2 MSTORE PUSH1 0x4 ADD PUSH2 0x6B3E SWAP1 PUSH2 0x81D3 JUMP JUMPDEST PUSH1 0x40 MLOAD DUP1 SWAP2 SUB SWAP1 REVERT JUMPDEST PUSH2 0x6B50 DUP6 PUSH2 0x61E8 JUMP JUMPDEST PUSH2 0x6B8F JUMPI PUSH1 0x40 MLOAD PUSH32 0x8C379A000000000000000000000000000000000000000000000000000000000 DUP2 MSTORE PUSH1 0x4 ADD PUSH2 0x6B86 SWAP1 PUSH2 0x8453 JUMP JUMPDEST PUSH1 0x40 MLOAD DUP1 SWAP2 SUB SWAP1 REVERT JUMPDEST PUSH1 0x0 DUP1 DUP7 PUSH20 0xFFFFFFFFFFFFFFFFFFFFFFFFFFFFFFFFFFFFFFFF AND DUP6 DUP8 PUSH1 0x40 MLOAD PUSH2 0x6BB8 SWAP2 SWAP1 PUSH2 0x7DC4 JUMP JUMPDEST PUSH1 0x0 PUSH1 0x40 MLOAD DUP1 DUP4 SUB DUP2 DUP6 DUP8 GAS CALL SWAP3 POP POP POP RETURNDATASIZE DUP1 PUSH1 0x0 DUP2 EQ PUSH2 0x6BF5 JUMPI PUSH1 0x40 MLOAD SWAP2 POP PUSH1 0x1F NOT PUSH1 0x3F RETURNDATASIZE ADD AND DUP3 ADD PUSH1 0x40 MSTORE RETURNDATASIZE DUP3 MSTORE RETURNDATASIZE PUSH1 0x0 PUSH1 0x20 DUP5 ADD RETURNDATACOPY PUSH2 0x6BFA JUMP JUMPDEST PUSH1 0x60 SWAP2 POP JUMPDEST POP SWAP2 POP SWAP2 POP PUSH2 0x6C0A DUP3 DUP3 DUP7 PUSH2 0x6C16 JUMP JUMPDEST SWAP3 POP POP POP SWAP5 SWAP4 POP POP POP POP JUMP JUMPDEST PUSH1 0x60 DUP4 ISZERO PUSH2 0x6C26 JUMPI DUP3 SWAP1 POP PUSH2 0x6C76 JUMP JUMPDEST PUSH1 0x0 DUP4 MLOAD GT ISZERO PUSH2 0x6C39 JUMPI DUP3 MLOAD DUP1 DUP5 PUSH1 0x20 ADD REVERT JUMPDEST DUP2 PUSH1 0x40 MLOAD PUSH32 0x8C379A000000000000000000000000000000000000000000000000000000000 DUP2 MSTORE PUSH1 0x4 ADD PUSH2 0x6C6D SWAP2 SWAP1 PUSH2 0x8031 JUMP JUMPDEST PUSH1 0x40 MLOAD DUP1 SWAP2 SUB SWAP1 REVERT JUMPDEST SWAP4 SWAP3 POP POP POP JUMP JUMPDEST PUSH1 0x0 PUSH2 0x6C90 PUSH2 0x6C8B DUP5 PUSH2 0x8719 JUMP JUMPDEST PUSH2 0x86F4 JUMP JUMPDEST SWAP1 POP DUP1 DUP4 DUP3 MSTORE PUSH1 0x20 DUP3 ADD SWAP1 POP DUP3 DUP6 PUSH1 0x20 DUP7 MUL DUP3 ADD GT ISZERO PUSH2 0x6CAF JUMPI PUSH1 0x0 DUP1 REVERT JUMPDEST PUSH1 0x0 JUMPDEST DUP6 DUP2 LT ISZERO PUSH2 0x6CDF JUMPI DUP2 PUSH2 0x6CC5 DUP9 DUP3 PUSH2 0x6CE9 JUMP JUMPDEST DUP5 MSTORE PUSH1 0x20 DUP5 ADD SWAP4 POP PUSH1 0x20 DUP4 ADD SWAP3 POP POP PUSH1 0x1 DUP2 ADD SWAP1 POP PUSH2 0x6CB2 JUMP JUMPDEST POP POP POP SWAP4 SWAP3 POP POP POP JUMP JUMPDEST PUSH1 0x0 DUP2 CALLDATALOAD SWAP1 POP PUSH2 0x6CF8 DUP2 PUSH2 0x991A JUMP JUMPDEST SWAP3 SWAP2 POP POP JUMP JUMPDEST PUSH1 0x0 DUP2 MLOAD SWAP1 POP PUSH2 0x6D0D DUP2 PUSH2 0x991A JUMP JUMPDEST SWAP3 SWAP2 POP POP JUMP JUMPDEST PUSH1 0x0 DUP1 DUP4 PUSH1 0x1F DUP5 ADD SLT PUSH2 0x6D25 JUMPI PUSH1 0x0 DUP1 REVERT JUMPDEST DUP3 CALLDATALOAD SWAP1 POP PUSH8 0xFFFFFFFFFFFFFFFF DUP2 GT ISZERO PUSH2 0x6D3E JUMPI PUSH1 0x0 DUP1 REVERT JUMPDEST PUSH1 0x20 DUP4 ADD SWAP2 POP DUP4 PUSH1 0x20 DUP3 MUL DUP4 ADD GT ISZERO PUSH2 0x6D56 JUMPI PUSH1 0x0 DUP1 REVERT JUMPDEST SWAP3 POP SWAP3 SWAP1 POP JUMP JUMPDEST PUSH1 0x0 DUP3 PUSH1 0x1F DUP4 ADD SLT PUSH2 0x6D6E JUMPI PUSH1 0x0 DUP1 REVERT JUMPDEST DUP2 CALLDATALOAD PUSH2 0x6D7E DUP5 DUP3 PUSH1 0x20 DUP7 ADD PUSH2 0x6C7D JUMP JUMPDEST SWAP2 POP POP SWAP3 SWAP2 POP POP JUMP JUMPDEST PUSH1 0x0 DUP2 MLOAD SWAP1 POP PUSH2 0x6D96 DUP2 PUSH2 0x9931 JUMP JUMPDEST SWAP3 SWAP2 POP POP JUMP JUMPDEST PUSH1 0x0 DUP2 CALLDATALOAD SWAP1 POP PUSH2 0x6DAB DUP2 PUSH2 0x9948 JUMP JUMPDEST SWAP3 SWAP2 POP POP JUMP JUMPDEST PUSH1 0x0 DUP2 CALLDATALOAD SWAP1 POP PUSH2 0x6DC0 DUP2 PUSH2 0x995F JUMP JUMPDEST SWAP3 SWAP2 POP POP JUMP JUMPDEST PUSH1 0x0 DUP1 DUP4 PUSH1 0x1F DUP5 ADD SLT PUSH2 0x6DD8 JUMPI PUSH1 0x0 DUP1 REVERT JUMPDEST DUP3 CALLDATALOAD SWAP1 POP PUSH8 0xFFFFFFFFFFFFFFFF DUP2 GT ISZERO PUSH2 0x6DF1 JUMPI PUSH1 0x0 DUP1 REVERT JUMPDEST PUSH1 0x20 DUP4 ADD SWAP2 POP DUP4 PUSH1 0x1 DUP3 MUL DUP4 ADD GT ISZERO PUSH2 0x6E09 JUMPI PUSH1 0x0 DUP1 REVERT JUMPDEST SWAP3 POP SWAP3 SWAP1 POP JUMP JUMPDEST PUSH1 0x0 DUP2 CALLDATALOAD SWAP1 POP PUSH2 0x6E1F DUP2 PUSH2 0x9976 JUMP JUMPDEST SWAP3 SWAP2 POP POP JUMP JUMPDEST PUSH1 0x0 DUP2 CALLDATALOAD SWAP1 POP PUSH2 0x6E34 DUP2 PUSH2 0x998D JUMP JUMPDEST SWAP3 SWAP2 POP POP JUMP JUMPDEST PUSH1 0x0 DUP2 CALLDATALOAD SWAP1 POP PUSH2 0x6E49 DUP2 PUSH2 0x99A4 JUMP JUMPDEST SWAP3 SWAP2 POP POP JUMP JUMPDEST PUSH1 0x0 DUP2 MLOAD SWAP1 POP PUSH2 0x6E5E DUP2 PUSH2 0x99A4 JUMP JUMPDEST SWAP3 SWAP2 POP POP JUMP JUMPDEST PUSH1 0x0 DUP2 MLOAD SWAP1 POP PUSH2 0x6E73 DUP2 PUSH2 0x99BB JUMP JUMPDEST SWAP3 SWAP2 POP POP JUMP JUMPDEST PUSH1 0x0 DUP2 MLOAD SWAP1 POP PUSH2 0x6E88 DUP2 PUSH2 0x99D2 JUMP JUMPDEST SWAP3 SWAP2 POP POP JUMP JUMPDEST PUSH1 0x0 DUP2 MLOAD SWAP1 POP PUSH2 0x6E9D DUP2 PUSH2 0x99E9 JUMP JUMPDEST SWAP3 SWAP2 POP POP JUMP JUMPDEST PUSH1 0x0 DUP2 CALLDATALOAD SWAP1 POP PUSH2 0x6EB2 DUP2 PUSH2 0x99F9 JUMP JUMPDEST SWAP3 SWAP2 POP POP JUMP JUMPDEST PUSH1 0x0 DUP2 MLOAD SWAP1 POP PUSH2 0x6EC7 DUP2 PUSH2 0x99F9 JUMP JUMPDEST SWAP3 SWAP2 POP POP JUMP JUMPDEST PUSH1 0x0 PUSH1 0x20 DUP3 DUP5 SUB SLT ISZERO PUSH2 0x6EDF JUMPI PUSH1 0x0 DUP1 REVERT JUMPDEST PUSH1 0x0 PUSH2 0x6EED DUP5 DUP3 DUP6 ADD PUSH2 0x6CE9 JUMP JUMPDEST SWAP2 POP POP SWAP3 SWAP2 POP POP JUMP JUMPDEST PUSH1 0x0 PUSH1 0x20 DUP3 DUP5 SUB SLT ISZERO PUSH2 0x6F08 JUMPI PUSH1 0x0 DUP1 REVERT JUMPDEST PUSH1 0x0 PUSH2 0x6F16 DUP5 DUP3 DUP6 ADD PUSH2 0x6CFE JUMP JUMPDEST SWAP2 POP POP SWAP3 SWAP2 POP POP JUMP JUMPDEST PUSH1 0x0 DUP1 PUSH1 0x0 DUP1 PUSH1 0x0 DUP1 PUSH1 0x0 DUP1 PUSH1 0x0 DUP1 PUSH1 0x0 PUSH2 0x160 DUP13 DUP15 SUB SLT ISZERO PUSH2 0x6F41 JUMPI PUSH1 0x0 DUP1 REVERT JUMPDEST PUSH1 0x0 PUSH2 0x6F4F DUP15 DUP3 DUP16 ADD PUSH2 0x6CE9 JUMP JUMPDEST SWAP12 POP POP PUSH1 0x20 DUP13 ADD CALLDATALOAD PUSH8 0xFFFFFFFFFFFFFFFF DUP2 GT ISZERO PUSH2 0x6F6C JUMPI PUSH1 0x0 DUP1 REVERT JUMPDEST PUSH2 0x6F78 DUP15 DUP3 DUP16 ADD PUSH2 0x6D5D JUMP JUMPDEST SWAP11 POP POP PUSH1 0x40 PUSH2 0x6F89 DUP15 DUP3 DUP16 ADD PUSH2 0x6EA3 JUMP JUMPDEST SWAP10 POP POP PUSH1 0x60 PUSH2 0x6F9A DUP15 DUP3 DUP16 ADD PUSH2 0x6EA3 JUMP JUMPDEST SWAP9 POP POP PUSH1 0x80 PUSH2 0x6FAB DUP15 DUP3 DUP16 ADD PUSH2 0x6EA3 JUMP JUMPDEST SWAP8 POP POP PUSH1 0xA0 PUSH2 0x6FBC DUP15 DUP3 DUP16 ADD PUSH2 0x6EA3 JUMP JUMPDEST SWAP7 POP POP PUSH1 0xC0 PUSH2 0x6FCD DUP15 DUP3 DUP16 ADD PUSH2 0x6EA3 JUMP JUMPDEST SWAP6 POP POP PUSH1 0xE0 PUSH2 0x6FDE DUP15 DUP3 DUP16 ADD PUSH2 0x6EA3 JUMP JUMPDEST SWAP5 POP POP PUSH2 0x100 PUSH2 0x6FF0 DUP15 DUP3 DUP16 ADD PUSH2 0x6EA3 JUMP JUMPDEST SWAP4 POP POP PUSH2 0x120 PUSH2 0x7002 DUP15 DUP3 DUP16 ADD PUSH2 0x6EA3 JUMP JUMPDEST SWAP3 POP POP PUSH2 0x140 PUSH2 0x7014 DUP15 DUP3 DUP16 ADD PUSH2 0x6E25 JUMP JUMPDEST SWAP2 POP POP SWAP3 SWAP6 SWAP9 SWAP12 POP SWAP3 SWAP6 SWAP9 SWAP12 SWAP1 SWAP4 SWAP7 SWAP10 POP JUMP JUMPDEST PUSH1 0x0 DUP1 PUSH1 0x40 DUP4 DUP6 SUB SLT ISZERO PUSH2 0x703A JUMPI PUSH1 0x0 DUP1 REVERT JUMPDEST PUSH1 0x0 PUSH2 0x7048 DUP6 DUP3 DUP7 ADD PUSH2 0x6CE9 JUMP JUMPDEST SWAP3 POP POP PUSH1 0x20 PUSH2 0x7059 DUP6 DUP3 DUP7 ADD PUSH2 0x6EA3 JUMP JUMPDEST SWAP2 POP POP SWAP3 POP SWAP3 SWAP1 POP JUMP JUMPDEST PUSH1 0x0 PUSH1 0x20 DUP3 DUP5 SUB SLT ISZERO PUSH2 0x7075 JUMPI PUSH1 0x0 DUP1 REVERT JUMPDEST PUSH1 0x0 DUP3 ADD CALLDATALOAD PUSH8 0xFFFFFFFFFFFFFFFF DUP2 GT ISZERO PUSH2 0x708F JUMPI PUSH1 0x0 DUP1 REVERT JUMPDEST PUSH2 0x709B DUP5 DUP3 DUP6 ADD PUSH2 0x6D5D JUMP JUMPDEST SWAP2 POP POP SWAP3 SWAP2 POP POP JUMP JUMPDEST PUSH1 0x0 DUP1 PUSH1 0x0 DUP1 PUSH1 0x60 DUP6 DUP8 SUB SLT ISZERO PUSH2 0x70BA JUMPI PUSH1 0x0 DUP1 REVERT JUMPDEST PUSH1 0x0 DUP6 ADD CALLDATALOAD PUSH8 0xFFFFFFFFFFFFFFFF DUP2 GT ISZERO PUSH2 0x70D4 JUMPI PUSH1 0x0 DUP1 REVERT JUMPDEST PUSH2 0x70E0 DUP8 DUP3 DUP9 ADD PUSH2 0x6D5D JUMP JUMPDEST SWAP5 POP POP PUSH1 0x20 PUSH2 0x70F1 DUP8 DUP3 DUP9 ADD PUSH2 0x6EA3 JUMP JUMPDEST SWAP4 POP POP PUSH1 0x40 DUP6 ADD CALLDATALOAD PUSH8 0xFFFFFFFFFFFFFFFF DUP2 GT ISZERO PUSH2 0x710E JUMPI PUSH1 0x0 DUP1 REVERT JUMPDEST PUSH2 0x711A DUP8 DUP3 DUP9 ADD PUSH2 0x6DC6 JUMP JUMPDEST SWAP3 POP SWAP3 POP POP SWAP3 SWAP6 SWAP2 SWAP5 POP SWAP3 POP JUMP JUMPDEST PUSH1 0x0 PUSH1 0x20 DUP3 DUP5 SUB SLT ISZERO PUSH2 0x713A JUMPI PUSH1 0x0 DUP1 REVERT JUMPDEST PUSH1 0x0 PUSH2 0x7148 DUP5 DUP3 DUP6 ADD PUSH2 0x6D87 JUMP JUMPDEST SWAP2 POP POP SWAP3 SWAP2 POP POP JUMP JUMPDEST PUSH1 0x0 PUSH1 0x20 DUP3 DUP5 SUB SLT ISZERO PUSH2 0x7163 JUMPI PUSH1 0x0 DUP1 REVERT JUMPDEST PUSH1 0x0 PUSH2 0x7171 DUP5 DUP3 DUP6 ADD PUSH2 0x6D9C JUMP JUMPDEST SWAP2 POP POP SWAP3 SWAP2 POP POP JUMP JUMPDEST PUSH1 0x0 DUP1 PUSH1 0x40 DUP4 DUP6 SUB SLT ISZERO PUSH2 0x718D JUMPI PUSH1 0x0 DUP1 REVERT JUMPDEST PUSH1 0x0 PUSH2 0x719B DUP6 DUP3 DUP7 ADD PUSH2 0x6D9C JUMP JUMPDEST SWAP3 POP POP PUSH1 0x20 PUSH2 0x71AC DUP6 DUP3 DUP7 ADD PUSH2 0x6CE9 JUMP JUMPDEST SWAP2 POP POP SWAP3 POP SWAP3 SWAP1 POP JUMP JUMPDEST PUSH1 0x0 PUSH1 0x20 DUP3 DUP5 SUB SLT ISZERO PUSH2 0x71C8 JUMPI PUSH1 0x0 DUP1 REVERT JUMPDEST PUSH1 0x0 PUSH2 0x71D6 DUP5 DUP3 DUP6 ADD PUSH2 0x6DB1 JUMP JUMPDEST SWAP2 POP POP SWAP3 SWAP2 POP POP JUMP JUMPDEST PUSH1 0x0 PUSH1 0x20 DUP3 DUP5 SUB SLT ISZERO PUSH2 0x71F1 JUMPI PUSH1 0x0 DUP1 REVERT JUMPDEST PUSH1 0x0 PUSH2 0x71FF DUP5 DUP3 DUP6 ADD PUSH2 0x6E10 JUMP JUMPDEST SWAP2 POP POP SWAP3 SWAP2 POP POP JUMP JUMPDEST PUSH1 0x0 PUSH1 0x20 DUP3 DUP5 SUB SLT ISZERO PUSH2 0x721A JUMPI PUSH1 0x0 DUP1 REVERT JUMPDEST PUSH1 0x0 PUSH2 0x7228 DUP5 DUP3 DUP6 ADD PUSH2 0x6E25 JUMP JUMPDEST SWAP2 POP POP SWAP3 SWAP2 POP POP JUMP JUMPDEST PUSH1 0x0 PUSH1 0x20 DUP3 DUP5 SUB SLT ISZERO PUSH2 0x7243 JUMPI PUSH1 0x0 DUP1 REVERT JUMPDEST PUSH1 0x0 PUSH2 0x7251 DUP5 DUP3 DUP6 ADD PUSH2 0x6E4F JUMP JUMPDEST SWAP2 POP POP SWAP3 SWAP2 POP POP JUMP JUMPDEST PUSH1 0x0 DUP1 PUSH1 0x0 PUSH1 0x60 DUP5 DUP7 SUB SLT ISZERO PUSH2 0x726F JUMPI PUSH1 0x0 DUP1 REVERT JUMPDEST PUSH1 0x0 PUSH2 0x727D DUP7 DUP3 DUP8 ADD PUSH2 0x6E3A JUMP JUMPDEST SWAP4 POP POP PUSH1 0x20 PUSH2 0x728E DUP7 DUP3 DUP8 ADD PUSH2 0x6CE9 JUMP JUMPDEST SWAP3 POP POP PUSH1 0x40 PUSH2 0x729F DUP7 DUP3 DUP8 ADD PUSH2 0x6EA3 JUMP JUMPDEST SWAP2 POP POP SWAP3 POP SWAP3 POP SWAP3 JUMP JUMPDEST PUSH1 0x0 DUP1 PUSH1 0x0 DUP1 PUSH1 0x0 DUP1 PUSH1 0x0 DUP1 PUSH1 0xE0 DUP10 DUP12 SUB SLT ISZERO PUSH2 0x72C5 JUMPI PUSH1 0x0 DUP1 REVERT JUMPDEST PUSH1 0x0 PUSH2 0x72D3 DUP12 DUP3 DUP13 ADD PUSH2 0x6E3A JUMP JUMPDEST SWAP9 POP POP PUSH1 0x20 DUP10 ADD CALLDATALOAD PUSH8 0xFFFFFFFFFFFFFFFF DUP2 GT ISZERO PUSH2 0x72F0 JUMPI PUSH1 0x0 DUP1 REVERT JUMPDEST PUSH2 0x72FC DUP12 DUP3 DUP13 ADD PUSH2 0x6D13 JUMP JUMPDEST SWAP8 POP SWAP8 POP POP PUSH1 0x40 PUSH2 0x730F DUP12 DUP3 DUP13 ADD PUSH2 0x6EA3 JUMP JUMPDEST SWAP6 POP POP PUSH1 0x60 PUSH2 0x7320 DUP12 DUP3 DUP13 ADD PUSH2 0x6EA3 JUMP JUMPDEST SWAP5 POP POP PUSH1 0x80 PUSH2 0x7331 DUP12 DUP3 DUP13 ADD PUSH2 0x6EA3 JUMP JUMPDEST SWAP4 POP POP PUSH1 0xA0 PUSH2 0x7342 DUP12 DUP3 DUP13 ADD PUSH2 0x6EA3 JUMP JUMPDEST SWAP3 POP POP PUSH1 0xC0 PUSH2 0x7353 DUP12 DUP3 DUP13 ADD PUSH2 0x6EA3 JUMP JUMPDEST SWAP2 POP POP SWAP3 SWAP6 SWAP9 POP SWAP3 SWAP6 SWAP9 SWAP1 SWAP4 SWAP7 POP JUMP JUMPDEST PUSH1 0x0 PUSH1 0x20 DUP3 DUP5 SUB SLT ISZERO PUSH2 0x7375 JUMPI PUSH1 0x0 DUP1 REVERT JUMPDEST PUSH1 0x0 PUSH2 0x7383 DUP5 DUP3 DUP6 ADD PUSH2 0x6E64 JUMP JUMPDEST SWAP2 POP POP SWAP3 SWAP2 POP POP JUMP JUMPDEST PUSH1 0x0 PUSH1 0x20 DUP3 DUP5 SUB SLT ISZERO PUSH2 0x739E JUMPI PUSH1 0x0 DUP1 REVERT JUMPDEST PUSH1 0x0 PUSH2 0x73AC DUP5 DUP3 DUP6 ADD PUSH2 0x6E79 JUMP JUMPDEST SWAP2 POP POP SWAP3 SWAP2 POP POP JUMP JUMPDEST PUSH1 0x0 DUP1 PUSH1 0x0 DUP1 PUSH1 0x80 DUP6 DUP8 SUB SLT ISZERO PUSH2 0x73CB JUMPI PUSH1 0x0 DUP1 REVERT JUMPDEST PUSH1 0x0 PUSH2 0x73D9 DUP8 DUP3 DUP9 ADD PUSH2 0x6E8E JUMP JUMPDEST SWAP5 POP POP PUSH1 0x20 PUSH2 0x73EA DUP8 DUP3 DUP9 ADD PUSH2 0x6EB8 JUMP JUMPDEST SWAP4 POP POP PUSH1 0x40 PUSH2 0x73FB DUP8 DUP3 DUP9 ADD PUSH2 0x6EB8 JUMP JUMPDEST SWAP3 POP POP PUSH1 0x60 PUSH2 0x740C DUP8 DUP3 DUP9 ADD PUSH2 0x6EB8 JUMP JUMPDEST SWAP2 POP POP SWAP3 SWAP6 SWAP2 SWAP5 POP SWAP3 POP JUMP JUMPDEST PUSH1 0x0 PUSH1 0x20 DUP3 DUP5 SUB SLT ISZERO PUSH2 0x742A JUMPI PUSH1 0x0 DUP1 REVERT JUMPDEST PUSH1 0x0 PUSH2 0x7438 DUP5 DUP3 DUP6 ADD PUSH2 0x6EA3 JUMP JUMPDEST SWAP2 POP POP SWAP3 SWAP2 POP POP JUMP JUMPDEST PUSH1 0x0 PUSH1 0x20 DUP3 DUP5 SUB SLT ISZERO PUSH2 0x7453 JUMPI PUSH1 0x0 DUP1 REVERT JUMPDEST PUSH1 0x0 PUSH2 0x7461 DUP5 DUP3 DUP6 ADD PUSH2 0x6EB8 JUMP JUMPDEST SWAP2 POP POP SWAP3 SWAP2 POP POP JUMP JUMPDEST PUSH1 0x0 DUP1 PUSH1 0x40 DUP4 DUP6 SUB SLT ISZERO PUSH2 0x747D JUMPI PUSH1 0x0 DUP1 REVERT JUMPDEST PUSH1 0x0 PUSH2 0x748B DUP6 DUP3 DUP7 ADD PUSH2 0x6EA3 JUMP JUMPDEST SWAP3 POP POP PUSH1 0x20 PUSH2 0x749C DUP6 DUP3 DUP7 ADD PUSH2 0x6EA3 JUMP JUMPDEST SWAP2 POP POP SWAP3 POP SWAP3 SWAP1 POP JUMP JUMPDEST PUSH1 0x0 DUP1 PUSH1 0x0 DUP1 PUSH1 0x0 PUSH1 0xA0 DUP7 DUP9 SUB SLT ISZERO PUSH2 0x74BE JUMPI PUSH1 0x0 DUP1 REVERT JUMPDEST PUSH1 0x0 PUSH2 0x74CC DUP9 DUP3 DUP10 ADD PUSH2 0x6EA3 JUMP JUMPDEST SWAP6 POP POP PUSH1 0x20 PUSH2 0x74DD DUP9 DUP3 DUP10 ADD PUSH2 0x6EA3 JUMP JUMPDEST SWAP5 POP POP PUSH1 0x40 PUSH2 0x74EE DUP9 DUP3 DUP10 ADD PUSH2 0x6EA3 JUMP JUMPDEST SWAP4 POP POP PUSH1 0x60 PUSH2 0x74FF DUP9 DUP3 DUP10 ADD PUSH2 0x6EA3 JUMP JUMPDEST SWAP3 POP POP PUSH1 0x80 PUSH2 0x7510 DUP9 DUP3 DUP10 ADD PUSH2 0x6EA3 JUMP JUMPDEST SWAP2 POP POP SWAP3 SWAP6 POP SWAP3 SWAP6 SWAP1 SWAP4 POP JUMP JUMPDEST PUSH1 0x0 PUSH2 0x7529 DUP4 DUP4 PUSH2 0x754D JUMP JUMPDEST PUSH1 0x20 DUP4 ADD SWAP1 POP SWAP3 SWAP2 POP POP JUMP JUMPDEST PUSH1 0x0 PUSH2 0x7541 DUP4 DUP4 PUSH2 0x7D43 JUMP JUMPDEST PUSH1 0x20 DUP4 ADD SWAP1 POP SWAP3 SWAP2 POP POP JUMP JUMPDEST PUSH2 0x7556 DUP2 PUSH2 0x8937 JUMP JUMPDEST DUP3 MSTORE POP POP JUMP JUMPDEST PUSH2 0x7565 DUP2 PUSH2 0x8937 JUMP JUMPDEST DUP3 MSTORE POP POP JUMP JUMPDEST PUSH2 0x757C PUSH2 0x7577 DUP3 PUSH2 0x8937 JUMP JUMPDEST PUSH2 0x8B96 JUMP JUMPDEST DUP3 MSTORE POP POP JUMP JUMPDEST PUSH1 0x0 PUSH2 0x758E DUP4 DUP6 PUSH2 0x87C2 JUMP JUMPDEST SWAP4 POP PUSH2 0x7599 DUP3 PUSH2 0x8745 JUMP JUMPDEST DUP1 PUSH1 0x0 JUMPDEST DUP6 DUP2 LT ISZERO PUSH2 0x75D2 JUMPI PUSH2 0x75AF DUP3 DUP5 PUSH2 0x880B JUMP JUMPDEST PUSH2 0x75B9 DUP9 DUP3 PUSH2 0x751D JUMP JUMPDEST SWAP8 POP PUSH2 0x75C4 DUP4 PUSH2 0x879B JUMP JUMPDEST SWAP3 POP POP PUSH1 0x1 DUP2 ADD SWAP1 POP PUSH2 0x759D JUMP JUMPDEST POP DUP6 SWAP3 POP POP POP SWAP4 SWAP3 POP POP POP JUMP JUMPDEST PUSH1 0x0 PUSH2 0x75EA DUP3 PUSH2 0x876F JUMP JUMPDEST PUSH2 0x75F4 DUP2 DUP6 PUSH2 0x87C2 JUMP JUMPDEST SWAP4 POP PUSH2 0x75FF DUP4 PUSH2 0x874F JUMP JUMPDEST DUP1 PUSH1 0x0 JUMPDEST DUP4 DUP2 LT ISZERO PUSH2 0x7630 JUMPI DUP2 MLOAD PUSH2 0x7617 DUP9 DUP3 PUSH2 0x751D JUMP JUMPDEST SWAP8 POP PUSH2 0x7622 DUP4 PUSH2 0x87A8 JUMP JUMPDEST SWAP3 POP POP PUSH1 0x1 DUP2 ADD SWAP1 POP PUSH2 0x7603 JUMP JUMPDEST POP DUP6 SWAP4 POP POP POP POP SWAP3 SWAP2 POP POP JUMP JUMPDEST PUSH1 0x0 PUSH2 0x7648 DUP3 PUSH2 0x877A JUMP JUMPDEST PUSH2 0x7652 DUP2 DUP6 PUSH2 0x87D3 JUMP JUMPDEST SWAP4 POP PUSH2 0x765D DUP4 PUSH2 0x875F JUMP JUMPDEST DUP1 PUSH1 0x0 JUMPDEST DUP4 DUP2 LT ISZERO PUSH2 0x768E JUMPI DUP2 MLOAD PUSH2 0x7675 DUP9 DUP3 PUSH2 0x7535 JUMP JUMPDEST SWAP8 POP PUSH2 0x7680 DUP4 PUSH2 0x87B5 JUMP JUMPDEST SWAP3 POP POP PUSH1 0x1 DUP2 ADD SWAP1 POP PUSH2 0x7661 JUMP JUMPDEST POP DUP6 SWAP4 POP POP POP POP SWAP3 SWAP2 POP POP JUMP JUMPDEST PUSH2 0x76A4 DUP2 PUSH2 0x8949 JUMP JUMPDEST DUP3 MSTORE POP POP JUMP JUMPDEST PUSH2 0x76B3 DUP2 PUSH2 0x8955 JUMP JUMPDEST DUP3 MSTORE POP POP JUMP JUMPDEST PUSH2 0x76CA PUSH2 0x76C5 DUP3 PUSH2 0x8955 JUMP JUMPDEST PUSH2 0x8BA8 JUMP JUMPDEST DUP3 MSTORE POP POP JUMP JUMPDEST PUSH1 0x0 PUSH2 0x76DB DUP3 PUSH2 0x8785 JUMP JUMPDEST PUSH2 0x76E5 DUP2 DUP6 PUSH2 0x87E4 JUMP JUMPDEST SWAP4 POP PUSH2 0x76F5 DUP2 DUP6 PUSH1 0x20 DUP7 ADD PUSH2 0x8ABF JUMP JUMPDEST DUP1 DUP5 ADD SWAP2 POP POP SWAP3 SWAP2 POP POP JUMP JUMPDEST PUSH2 0x770A DUP2 PUSH2 0x8A2F JUMP JUMPDEST DUP3 MSTORE POP POP JUMP JUMPDEST PUSH2 0x7719 DUP2 PUSH2 0x8A53 JUMP JUMPDEST DUP3 MSTORE POP POP JUMP JUMPDEST PUSH2 0x7728 DUP2 PUSH2 0x8A77 JUMP JUMPDEST DUP3 MSTORE POP POP JUMP JUMPDEST PUSH2 0x7737 DUP2 PUSH2 0x8A9B JUMP JUMPDEST DUP3 MSTORE POP POP JUMP JUMPDEST PUSH2 0x7746 DUP2 PUSH2 0x8AAD JUMP JUMPDEST DUP3 MSTORE POP POP JUMP JUMPDEST PUSH1 0x0 PUSH2 0x7757 DUP3 PUSH2 0x8790 JUMP JUMPDEST PUSH2 0x7761 DUP2 DUP6 PUSH2 0x87EF JUMP JUMPDEST SWAP4 POP PUSH2 0x7771 DUP2 DUP6 PUSH1 0x20 DUP7 ADD PUSH2 0x8ABF JUMP JUMPDEST PUSH2 0x777A DUP2 PUSH2 0x8C8A JUMP JUMPDEST DUP5 ADD SWAP2 POP POP SWAP3 SWAP2 POP POP JUMP JUMPDEST PUSH1 0x0 PUSH2 0x7792 PUSH1 0x18 DUP4 PUSH2 0x87EF JUMP JUMPDEST SWAP2 POP PUSH2 0x779D DUP3 PUSH2 0x8CA8 JUMP JUMPDEST PUSH1 0x20 DUP3 ADD SWAP1 POP SWAP2 SWAP1 POP JUMP JUMPDEST PUSH1 0x0 PUSH2 0x77B5 PUSH1 0x31 DUP4 PUSH2 0x87EF JUMP JUMPDEST SWAP2 POP PUSH2 0x77C0 DUP3 PUSH2 0x8CD1 JUMP JUMPDEST PUSH1 0x40 DUP3 ADD SWAP1 POP SWAP2 SWAP1 POP JUMP JUMPDEST PUSH1 0x0 PUSH2 0x77D8 PUSH1 0x1C DUP4 PUSH2 0x87EF JUMP JUMPDEST SWAP2 POP PUSH2 0x77E3 DUP3 PUSH2 0x8D20 JUMP JUMPDEST PUSH1 0x20 DUP3 ADD SWAP1 POP SWAP2 SWAP1 POP JUMP JUMPDEST PUSH1 0x0 PUSH2 0x77FB PUSH1 0x1F DUP4 PUSH2 0x87EF JUMP JUMPDEST SWAP2 POP PUSH2 0x7806 DUP3 PUSH2 0x8D49 JUMP JUMPDEST PUSH1 0x20 DUP3 ADD SWAP1 POP SWAP2 SWAP1 POP JUMP JUMPDEST PUSH1 0x0 PUSH2 0x781E PUSH1 0x1C DUP4 PUSH2 0x8800 JUMP JUMPDEST SWAP2 POP PUSH2 0x7829 DUP3 PUSH2 0x8D72 JUMP JUMPDEST PUSH1 0x1C DUP3 ADD SWAP1 POP SWAP2 SWAP1 POP JUMP JUMPDEST PUSH1 0x0 PUSH2 0x7841 PUSH1 0x3F DUP4 PUSH2 0x87EF JUMP JUMPDEST SWAP2 POP PUSH2 0x784C DUP3 PUSH2 0x8D9B JUMP JUMPDEST PUSH1 0x40 DUP3 ADD SWAP1 POP SWAP2 SWAP1 POP JUMP JUMPDEST PUSH1 0x0 PUSH2 0x7864 PUSH1 0x2C DUP4 PUSH2 0x87EF JUMP JUMPDEST SWAP2 POP PUSH2 0x786F DUP3 PUSH2 0x8DEA JUMP JUMPDEST PUSH1 0x40 DUP3 ADD SWAP1 POP SWAP2 SWAP1 POP JUMP JUMPDEST PUSH1 0x0 PUSH2 0x7887 PUSH1 0x26 DUP4 PUSH2 0x87EF JUMP JUMPDEST SWAP2 POP PUSH2 0x7892 DUP3 PUSH2 0x8E39 JUMP JUMPDEST PUSH1 0x40 DUP3 ADD SWAP1 POP SWAP2 SWAP1 POP JUMP JUMPDEST PUSH1 0x0 PUSH2 0x78AA PUSH1 0x35 DUP4 PUSH2 0x87EF JUMP JUMPDEST SWAP2 POP PUSH2 0x78B5 DUP3 PUSH2 0x8E88 JUMP JUMPDEST PUSH1 0x40 DUP3 ADD SWAP1 POP SWAP2 SWAP1 POP JUMP JUMPDEST PUSH1 0x0 PUSH2 0x78CD PUSH1 0x11 DUP4 PUSH2 0x87EF JUMP JUMPDEST SWAP2 POP PUSH2 0x78D8 DUP3 PUSH2 0x8ED7 JUMP JUMPDEST PUSH1 0x20 DUP3 ADD SWAP1 POP SWAP2 SWAP1 POP JUMP JUMPDEST PUSH1 0x0 PUSH2 0x78F0 PUSH1 0x22 DUP4 PUSH2 0x87EF JUMP JUMPDEST SWAP2 POP PUSH2 0x78FB DUP3 PUSH2 0x8F00 JUMP JUMPDEST PUSH1 0x40 DUP3 ADD SWAP1 POP SWAP2 SWAP1 POP JUMP JUMPDEST PUSH1 0x0 PUSH2 0x7913 PUSH1 0x52 DUP4 PUSH2 0x87EF JUMP JUMPDEST SWAP2 POP PUSH2 0x791E DUP3 PUSH2 0x8F4F JUMP JUMPDEST PUSH1 0x60 DUP3 ADD SWAP1 POP SWAP2 SWAP1 POP JUMP JUMPDEST PUSH1 0x0 PUSH2 0x7936 PUSH1 0x2C DUP4 PUSH2 0x87EF JUMP JUMPDEST SWAP2 POP PUSH2 0x7941 DUP3 PUSH2 0x8FC4 JUMP JUMPDEST PUSH1 0x40 DUP3 ADD SWAP1 POP SWAP2 SWAP1 POP JUMP JUMPDEST PUSH1 0x0 PUSH2 0x7959 PUSH1 0x26 DUP4 PUSH2 0x87EF JUMP JUMPDEST SWAP2 POP PUSH2 0x7964 DUP3 PUSH2 0x9013 JUMP JUMPDEST PUSH1 0x40 DUP3 ADD SWAP1 POP SWAP2 SWAP1 POP JUMP JUMPDEST PUSH1 0x0 PUSH2 0x797C PUSH1 0x49 DUP4 PUSH2 0x87EF JUMP JUMPDEST SWAP2 POP PUSH2 0x7987 DUP3 PUSH2 0x9062 JUMP JUMPDEST PUSH1 0x60 DUP3 ADD SWAP1 POP SWAP2 SWAP1 POP JUMP JUMPDEST PUSH1 0x0 PUSH2 0x799F PUSH1 0x25 DUP4 PUSH2 0x87EF JUMP JUMPDEST SWAP2 POP PUSH2 0x79AA DUP3 PUSH2 0x90D7 JUMP JUMPDEST PUSH1 0x40 DUP3 ADD SWAP1 POP SWAP2 SWAP1 POP JUMP JUMPDEST PUSH1 0x0 PUSH2 0x79C2 PUSH1 0x57 DUP4 PUSH2 0x87EF JUMP JUMPDEST SWAP2 POP PUSH2 0x79CD DUP3 PUSH2 0x9126 JUMP JUMPDEST PUSH1 0x60 DUP3 ADD SWAP1 POP SWAP2 SWAP1 POP JUMP JUMPDEST PUSH1 0x0 PUSH2 0x79E5 PUSH1 0x2C DUP4 PUSH2 0x87EF JUMP JUMPDEST SWAP2 POP PUSH2 0x79F0 DUP3 PUSH2 0x919B JUMP JUMPDEST PUSH1 0x40 DUP3 ADD SWAP1 POP SWAP2 SWAP1 POP JUMP JUMPDEST PUSH1 0x0 PUSH2 0x7A08 PUSH1 0x3A DUP4 PUSH2 0x87EF JUMP JUMPDEST SWAP2 POP PUSH2 0x7A13 DUP3 PUSH2 0x91EA JUMP JUMPDEST PUSH1 0x40 DUP3 ADD SWAP1 POP SWAP2 SWAP1 POP JUMP JUMPDEST PUSH1 0x0 PUSH2 0x7A2B PUSH1 0x23 DUP4 PUSH2 0x87EF JUMP JUMPDEST SWAP2 POP PUSH2 0x7A36 DUP3 PUSH2 0x9239 JUMP JUMPDEST PUSH1 0x40 DUP3 ADD SWAP1 POP SWAP2 SWAP1 POP JUMP JUMPDEST PUSH1 0x0 PUSH2 0x7A4E PUSH1 0x2E DUP4 PUSH2 0x87EF JUMP JUMPDEST SWAP2 POP PUSH2 0x7A59 DUP3 PUSH2 0x9288 JUMP JUMPDEST PUSH1 0x40 DUP3 ADD SWAP1 POP SWAP2 SWAP1 POP JUMP JUMPDEST PUSH1 0x0 PUSH2 0x7A71 PUSH1 0x22 DUP4 PUSH2 0x87EF JUMP JUMPDEST SWAP2 POP PUSH2 0x7A7C DUP3 PUSH2 0x92D7 JUMP JUMPDEST PUSH1 0x40 DUP3 ADD SWAP1 POP SWAP2 SWAP1 POP JUMP JUMPDEST PUSH1 0x0 PUSH2 0x7A94 PUSH1 0x3A DUP4 PUSH2 0x87EF JUMP JUMPDEST SWAP2 POP PUSH2 0x7A9F DUP3 PUSH2 0x9326 JUMP JUMPDEST PUSH1 0x40 DUP3 ADD SWAP1 POP SWAP2 SWAP1 POP JUMP JUMPDEST PUSH1 0x0 PUSH2 0x7AB7 PUSH1 0x4A DUP4 PUSH2 0x87EF JUMP JUMPDEST SWAP2 POP PUSH2 0x7AC2 DUP3 PUSH2 0x9375 JUMP JUMPDEST PUSH1 0x60 DUP3 ADD SWAP1 POP SWAP2 SWAP1 POP JUMP JUMPDEST PUSH1 0x0 PUSH2 0x7ADA PUSH1 0x2C DUP4 PUSH2 0x87EF JUMP JUMPDEST SWAP2 POP PUSH2 0x7AE5 DUP3 PUSH2 0x93EA JUMP JUMPDEST PUSH1 0x40 DUP3 ADD SWAP1 POP SWAP2 SWAP1 POP JUMP JUMPDEST PUSH1 0x0 PUSH2 0x7AFD PUSH1 0x20 DUP4 PUSH2 0x87EF JUMP JUMPDEST SWAP2 POP PUSH2 0x7B08 DUP3 PUSH2 0x9439 JUMP JUMPDEST PUSH1 0x20 DUP3 ADD SWAP1 POP SWAP2 SWAP1 POP JUMP JUMPDEST PUSH1 0x0 PUSH2 0x7B20 PUSH1 0x20 DUP4 PUSH2 0x87EF JUMP JUMPDEST SWAP2 POP PUSH2 0x7B2B DUP3 PUSH2 0x9462 JUMP JUMPDEST PUSH1 0x20 DUP3 ADD SWAP1 POP SWAP2 SWAP1 POP JUMP JUMPDEST PUSH1 0x0 PUSH2 0x7B43 PUSH1 0x16 DUP4 PUSH2 0x87EF JUMP JUMPDEST SWAP2 POP PUSH2 0x7B4E DUP3 PUSH2 0x948B JUMP JUMPDEST PUSH1 0x20 DUP3 ADD SWAP1 POP SWAP2 SWAP1 POP JUMP JUMPDEST PUSH1 0x0 PUSH2 0x7B66 PUSH1 0x44 DUP4 PUSH2 0x87EF JUMP JUMPDEST SWAP2 POP PUSH2 0x7B71 DUP3 PUSH2 0x94B4 JUMP JUMPDEST PUSH1 0x60 DUP3 ADD SWAP1 POP SWAP2 SWAP1 POP JUMP JUMPDEST PUSH1 0x0 PUSH2 0x7B89 PUSH1 0x31 DUP4 PUSH2 0x87EF JUMP JUMPDEST SWAP2 POP PUSH2 0x7B94 DUP3 PUSH2 0x9529 JUMP JUMPDEST PUSH1 0x40 DUP3 ADD SWAP1 POP SWAP2 SWAP1 POP JUMP JUMPDEST PUSH1 0x0 PUSH2 0x7BAC PUSH1 0x47 DUP4 PUSH2 0x87EF JUMP JUMPDEST SWAP2 POP PUSH2 0x7BB7 DUP3 PUSH2 0x9578 JUMP JUMPDEST PUSH1 0x60 DUP3 ADD SWAP1 POP SWAP2 SWAP1 POP JUMP JUMPDEST PUSH1 0x0 PUSH2 0x7BCF PUSH1 0x19 DUP4 PUSH2 0x87EF JUMP JUMPDEST SWAP2 POP PUSH2 0x7BDA DUP3 PUSH2 0x95ED JUMP JUMPDEST PUSH1 0x20 DUP3 ADD SWAP1 POP SWAP2 SWAP1 POP JUMP JUMPDEST PUSH1 0x0 PUSH2 0x7BF2 PUSH1 0x37 DUP4 PUSH2 0x87EF JUMP JUMPDEST SWAP2 POP PUSH2 0x7BFD DUP3 PUSH2 0x9616 JUMP JUMPDEST PUSH1 0x40 DUP3 ADD SWAP1 POP SWAP2 SWAP1 POP JUMP JUMPDEST PUSH1 0x0 PUSH2 0x7C15 PUSH1 0x1D DUP4 PUSH2 0x87EF JUMP JUMPDEST SWAP2 POP PUSH2 0x7C20 DUP3 PUSH2 0x9665 JUMP JUMPDEST PUSH1 0x20 DUP3 ADD SWAP1 POP SWAP2 SWAP1 POP JUMP JUMPDEST PUSH1 0x0 PUSH2 0x7C38 PUSH1 0x2B DUP4 PUSH2 0x87EF JUMP JUMPDEST SWAP2 POP PUSH2 0x7C43 DUP3 PUSH2 0x968E JUMP JUMPDEST PUSH1 0x40 DUP3 ADD SWAP1 POP SWAP2 SWAP1 POP JUMP JUMPDEST PUSH1 0x0 PUSH2 0x7C5B PUSH1 0x2A DUP4 PUSH2 0x87EF JUMP JUMPDEST SWAP2 POP PUSH2 0x7C66 DUP3 PUSH2 0x96DD JUMP JUMPDEST PUSH1 0x40 DUP3 ADD SWAP1 POP SWAP2 SWAP1 POP JUMP JUMPDEST PUSH1 0x0 PUSH2 0x7C7E PUSH1 0x1F DUP4 PUSH2 0x87EF JUMP JUMPDEST SWAP2 POP PUSH2 0x7C89 DUP3 PUSH2 0x972C JUMP JUMPDEST PUSH1 0x20 DUP3 ADD SWAP1 POP SWAP2 SWAP1 POP JUMP JUMPDEST PUSH1 0x0 PUSH2 0x7CA1 PUSH1 0x1C DUP4 PUSH2 0x87EF JUMP JUMPDEST SWAP2 POP PUSH2 0x7CAC DUP3 PUSH2 0x9755 JUMP JUMPDEST PUSH1 0x20 DUP3 ADD SWAP1 POP SWAP2 SWAP1 POP JUMP JUMPDEST PUSH1 0x0 PUSH2 0x7CC4 PUSH1 0x40 DUP4 PUSH2 0x87EF JUMP JUMPDEST SWAP2 POP PUSH2 0x7CCF DUP3 PUSH2 0x977E JUMP JUMPDEST PUSH1 0x40 DUP3 ADD SWAP1 POP SWAP2 SWAP1 POP JUMP JUMPDEST PUSH1 0x0 PUSH2 0x7CE7 PUSH1 0x3B DUP4 PUSH2 0x87EF JUMP JUMPDEST SWAP2 POP PUSH2 0x7CF2 DUP3 PUSH2 0x97CD JUMP JUMPDEST PUSH1 0x40 DUP3 ADD SWAP1 POP SWAP2 SWAP1 POP JUMP JUMPDEST PUSH1 0x0 PUSH2 0x7D0A PUSH1 0x2F DUP4 PUSH2 0x87EF JUMP JUMPDEST SWAP2 POP PUSH2 0x7D15 DUP3 PUSH2 0x981C JUMP JUMPDEST PUSH1 0x40 DUP3 ADD SWAP1 POP SWAP2 SWAP1 POP JUMP JUMPDEST PUSH1 0x0 PUSH2 0x7D2D PUSH1 0x68 DUP4 PUSH2 0x87EF JUMP JUMPDEST SWAP2 POP PUSH2 0x7D38 DUP3 PUSH2 0x986B JUMP JUMPDEST PUSH1 0x80 DUP3 ADD SWAP1 POP SWAP2 SWAP1 POP JUMP JUMPDEST PUSH2 0x7D4C DUP2 PUSH2 0x8A18 JUMP JUMPDEST DUP3 MSTORE POP POP JUMP JUMPDEST PUSH2 0x7D5B DUP2 PUSH2 0x8A18 JUMP JUMPDEST DUP3 MSTORE POP POP JUMP JUMPDEST PUSH2 0x7D72 PUSH2 0x7D6D DUP3 PUSH2 0x8A18 JUMP JUMPDEST PUSH2 0x8BC4 JUMP JUMPDEST DUP3 MSTORE POP POP JUMP JUMPDEST PUSH2 0x7D81 DUP2 PUSH2 0x8A22 JUMP JUMPDEST DUP3 MSTORE POP POP JUMP JUMPDEST PUSH1 0x0 PUSH2 0x7D93 DUP3 DUP7 PUSH2 0x756B JUMP JUMPDEST PUSH1 0x14 DUP3 ADD SWAP2 POP PUSH2 0x7DA3 DUP3 DUP6 PUSH2 0x756B JUMP JUMPDEST PUSH1 0x14 DUP3 ADD SWAP2 POP PUSH2 0x7DB3 DUP3 DUP5 PUSH2 0x7D61 JUMP JUMPDEST PUSH1 0x20 DUP3 ADD SWAP2 POP DUP2 SWAP1 POP SWAP5 SWAP4 POP POP POP POP JUMP JUMPDEST PUSH1 0x0 PUSH2 0x7DD0 DUP3 DUP5 PUSH2 0x76D0 JUMP JUMPDEST SWAP2 POP DUP2 SWAP1 POP SWAP3 SWAP2 POP POP JUMP JUMPDEST PUSH1 0x0 PUSH2 0x7DE6 DUP3 PUSH2 0x7811 JUMP JUMPDEST SWAP2 POP PUSH2 0x7DF2 DUP3 DUP5 PUSH2 0x76B9 JUMP JUMPDEST PUSH1 0x20 DUP3 ADD SWAP2 POP DUP2 SWAP1 POP SWAP3 SWAP2 POP POP JUMP JUMPDEST PUSH1 0x0 PUSH1 0x20 DUP3 ADD SWAP1 POP PUSH2 0x7E16 PUSH1 0x0 DUP4 ADD DUP5 PUSH2 0x755C JUMP JUMPDEST SWAP3 SWAP2 POP POP JUMP JUMPDEST PUSH1 0x0 PUSH1 0x40 DUP3 ADD SWAP1 POP PUSH2 0x7E31 PUSH1 0x0 DUP4 ADD DUP6 PUSH2 0x755C JUMP JUMPDEST PUSH2 0x7E3E PUSH1 0x20 DUP4 ADD DUP5 PUSH2 0x755C JUMP JUMPDEST SWAP4 SWAP3 POP POP POP JUMP JUMPDEST PUSH1 0x0 PUSH1 0x60 DUP3 ADD SWAP1 POP PUSH2 0x7E5A PUSH1 0x0 DUP4 ADD DUP7 PUSH2 0x755C JUMP JUMPDEST PUSH2 0x7E67 PUSH1 0x20 DUP4 ADD DUP6 PUSH2 0x755C JUMP JUMPDEST PUSH2 0x7E74 PUSH1 0x40 DUP4 ADD DUP5 PUSH2 0x7D52 JUMP JUMPDEST SWAP5 SWAP4 POP POP POP POP JUMP JUMPDEST PUSH1 0x0 PUSH1 0x40 DUP3 ADD SWAP1 POP PUSH2 0x7E91 PUSH1 0x0 DUP4 ADD DUP6 PUSH2 0x755C JUMP JUMPDEST PUSH2 0x7E9E PUSH1 0x20 DUP4 ADD DUP5 PUSH2 0x7D52 JUMP JUMPDEST SWAP4 SWAP3 POP POP POP JUMP JUMPDEST PUSH1 0x0 PUSH1 0x60 DUP3 ADD SWAP1 POP PUSH2 0x7EBA PUSH1 0x0 DUP4 ADD DUP7 PUSH2 0x755C JUMP JUMPDEST PUSH2 0x7EC7 PUSH1 0x20 DUP4 ADD DUP6 PUSH2 0x7D52 JUMP JUMPDEST PUSH2 0x7ED4 PUSH1 0x40 DUP4 ADD DUP5 PUSH2 0x7D52 JUMP JUMPDEST SWAP5 SWAP4 POP POP POP POP JUMP JUMPDEST PUSH1 0x0 PUSH1 0x20 DUP3 ADD SWAP1 POP DUP2 DUP2 SUB PUSH1 0x0 DUP4 ADD MSTORE PUSH2 0x7EF6 DUP2 DUP5 PUSH2 0x75DF JUMP JUMPDEST SWAP1 POP SWAP3 SWAP2 POP POP JUMP JUMPDEST PUSH1 0x0 PUSH1 0x20 DUP3 ADD SWAP1 POP DUP2 DUP2 SUB PUSH1 0x0 DUP4 ADD MSTORE PUSH2 0x7F18 DUP2 DUP5 PUSH2 0x763D JUMP JUMPDEST SWAP1 POP SWAP3 SWAP2 POP POP JUMP JUMPDEST PUSH1 0x0 PUSH1 0x20 DUP3 ADD SWAP1 POP PUSH2 0x7F35 PUSH1 0x0 DUP4 ADD DUP5 PUSH2 0x769B JUMP JUMPDEST SWAP3 SWAP2 POP POP JUMP JUMPDEST PUSH1 0x0 PUSH1 0x20 DUP3 ADD SWAP1 POP PUSH2 0x7F50 PUSH1 0x0 DUP4 ADD DUP5 PUSH2 0x76AA JUMP JUMPDEST SWAP3 SWAP2 POP POP JUMP JUMPDEST PUSH1 0x0 PUSH1 0x80 DUP3 ADD SWAP1 POP PUSH2 0x7F6B PUSH1 0x0 DUP4 ADD DUP8 PUSH2 0x76AA JUMP JUMPDEST PUSH2 0x7F78 PUSH1 0x20 DUP4 ADD DUP7 PUSH2 0x7D78 JUMP JUMPDEST PUSH2 0x7F85 PUSH1 0x40 DUP4 ADD DUP6 PUSH2 0x76AA JUMP JUMPDEST PUSH2 0x7F92 PUSH1 0x60 DUP4 ADD DUP5 PUSH2 0x76AA JUMP JUMPDEST SWAP6 SWAP5 POP POP POP POP POP JUMP JUMPDEST PUSH1 0x0 PUSH1 0x20 DUP3 ADD SWAP1 POP PUSH2 0x7FB0 PUSH1 0x0 DUP4 ADD DUP5 PUSH2 0x7701 JUMP JUMPDEST SWAP3 SWAP2 POP POP JUMP JUMPDEST PUSH1 0x0 PUSH1 0x20 DUP3 ADD SWAP1 POP PUSH2 0x7FCB PUSH1 0x0 DUP4 ADD DUP5 PUSH2 0x7710 JUMP JUMPDEST SWAP3 SWAP2 POP POP JUMP JUMPDEST PUSH1 0x0 PUSH1 0x20 DUP3 ADD SWAP1 POP PUSH2 0x7FE6 PUSH1 0x0 DUP4 ADD DUP5 PUSH2 0x771F JUMP JUMPDEST SWAP3 SWAP2 POP POP JUMP JUMPDEST PUSH1 0x0 PUSH1 0x80 DUP3 ADD SWAP1 POP PUSH2 0x8001 PUSH1 0x0 DUP4 ADD DUP8 PUSH2 0x772E JUMP JUMPDEST PUSH2 0x800E PUSH1 0x20 DUP4 ADD DUP7 PUSH2 0x7D52 JUMP JUMPDEST PUSH2 0x801B PUSH1 0x40 DUP4 ADD DUP6 PUSH2 0x7D52 JUMP JUMPDEST PUSH2 0x8028 PUSH1 0x60 DUP4 ADD DUP5 PUSH2 0x7D52 JUMP JUMPDEST SWAP6 SWAP5 POP POP POP POP POP JUMP JUMPDEST PUSH1 0x0 PUSH1 0x20 DUP3 ADD SWAP1 POP DUP2 DUP2 SUB PUSH1 0x0 DUP4 ADD MSTORE PUSH2 0x804B DUP2 DUP5 PUSH2 0x774C JUMP JUMPDEST SWAP1 POP SWAP3 SWAP2 POP POP JUMP JUMPDEST PUSH1 0x0 PUSH1 0x20 DUP3 ADD SWAP1 POP DUP2 DUP2 SUB PUSH1 0x0 DUP4 ADD MSTORE PUSH2 0x806C DUP2 PUSH2 0x7785 JUMP JUMPDEST SWAP1 POP SWAP2 SWAP1 POP JUMP JUMPDEST PUSH1 0x0 PUSH1 0x20 DUP3 ADD SWAP1 POP DUP2 DUP2 SUB PUSH1 0x0 DUP4 ADD MSTORE PUSH2 0x808C DUP2 PUSH2 0x77A8 JUMP JUMPDEST SWAP1 POP SWAP2 SWAP1 POP JUMP JUMPDEST PUSH1 0x0 PUSH1 0x20 DUP3 ADD SWAP1 POP DUP2 DUP2 SUB PUSH1 0x0 DUP4 ADD MSTORE PUSH2 0x80AC DUP2 PUSH2 0x77CB JUMP JUMPDEST SWAP1 POP SWAP2 SWAP1 POP JUMP JUMPDEST PUSH1 0x0 PUSH1 0x20 DUP3 ADD SWAP1 POP DUP2 DUP2 SUB PUSH1 0x0 DUP4 ADD MSTORE PUSH2 0x80CC DUP2 PUSH2 0x77EE JUMP JUMPDEST SWAP1 POP SWAP2 SWAP1 POP JUMP JUMPDEST PUSH1 0x0 PUSH1 0x20 DUP3 ADD SWAP1 POP DUP2 DUP2 SUB PUSH1 0x0 DUP4 ADD MSTORE PUSH2 0x80EC DUP2 PUSH2 0x7834 JUMP JUMPDEST SWAP1 POP SWAP2 SWAP1 POP JUMP JUMPDEST PUSH1 0x0 PUSH1 0x20 DUP3 ADD SWAP1 POP DUP2 DUP2 SUB PUSH1 0x0 DUP4 ADD MSTORE PUSH2 0x810C DUP2 PUSH2 0x7857 JUMP JUMPDEST SWAP1 POP SWAP2 SWAP1 POP JUMP JUMPDEST PUSH1 0x0 PUSH1 0x20 DUP3 ADD SWAP1 POP DUP2 DUP2 SUB PUSH1 0x0 DUP4 ADD MSTORE PUSH2 0x812C DUP2 PUSH2 0x787A JUMP JUMPDEST SWAP1 POP SWAP2 SWAP1 POP JUMP JUMPDEST PUSH1 0x0 PUSH1 0x20 DUP3 ADD SWAP1 POP DUP2 DUP2 SUB PUSH1 0x0 DUP4 ADD MSTORE PUSH2 0x814C DUP2 PUSH2 0x789D JUMP JUMPDEST SWAP1 POP SWAP2 SWAP1 POP JUMP JUMPDEST PUSH1 0x0 PUSH1 0x20 DUP3 ADD SWAP1 POP DUP2 DUP2 SUB PUSH1 0x0 DUP4 ADD MSTORE PUSH2 0x816C DUP2 PUSH2 0x78C0 JUMP JUMPDEST SWAP1 POP SWAP2 SWAP1 POP JUMP JUMPDEST PUSH1 0x0 PUSH1 0x20 DUP3 ADD SWAP1 POP DUP2 DUP2 SUB PUSH1 0x0 DUP4 ADD MSTORE PUSH2 0x818C DUP2 PUSH2 0x78E3 JUMP JUMPDEST SWAP1 POP SWAP2 SWAP1 POP JUMP JUMPDEST PUSH1 0x0 PUSH1 0x20 DUP3 ADD SWAP1 POP DUP2 DUP2 SUB PUSH1 0x0 DUP4 ADD MSTORE PUSH2 0x81AC DUP2 PUSH2 0x7906 JUMP JUMPDEST SWAP1 POP SWAP2 SWAP1 POP JUMP JUMPDEST PUSH1 0x0 PUSH1 0x20 DUP3 ADD SWAP1 POP DUP2 DUP2 SUB PUSH1 0x0 DUP4 ADD MSTORE PUSH2 0x81CC DUP2 PUSH2 0x7929 JUMP JUMPDEST SWAP1 POP SWAP2 SWAP1 POP JUMP JUMPDEST PUSH1 0x0 PUSH1 0x20 DUP3 ADD SWAP1 POP DUP2 DUP2 SUB PUSH1 0x0 DUP4 ADD MSTORE PUSH2 0x81EC DUP2 PUSH2 0x794C JUMP JUMPDEST SWAP1 POP SWAP2 SWAP1 POP JUMP JUMPDEST PUSH1 0x0 PUSH1 0x20 DUP3 ADD SWAP1 POP DUP2 DUP2 SUB PUSH1 0x0 DUP4 ADD MSTORE PUSH2 0x820C DUP2 PUSH2 0x796F JUMP JUMPDEST SWAP1 POP SWAP2 SWAP1 POP JUMP JUMPDEST PUSH1 0x0 PUSH1 0x20 DUP3 ADD SWAP1 POP DUP2 DUP2 SUB PUSH1 0x0 DUP4 ADD MSTORE PUSH2 0x822C DUP2 PUSH2 0x7992 JUMP JUMPDEST SWAP1 POP SWAP2 SWAP1 POP JUMP JUMPDEST PUSH1 0x0 PUSH1 0x20 DUP3 ADD SWAP1 POP DUP2 DUP2 SUB PUSH1 0x0 DUP4 ADD MSTORE PUSH2 0x824C DUP2 PUSH2 0x79B5 JUMP JUMPDEST SWAP1 POP SWAP2 SWAP1 POP JUMP JUMPDEST PUSH1 0x0 PUSH1 0x20 DUP3 ADD SWAP1 POP DUP2 DUP2 SUB PUSH1 0x0 DUP4 ADD MSTORE PUSH2 0x826C DUP2 PUSH2 0x79D8 JUMP JUMPDEST SWAP1 POP SWAP2 SWAP1 POP JUMP JUMPDEST PUSH1 0x0 PUSH1 0x20 DUP3 ADD SWAP1 POP DUP2 DUP2 SUB PUSH1 0x0 DUP4 ADD MSTORE PUSH2 0x828C DUP2 PUSH2 0x79FB JUMP JUMPDEST SWAP1 POP SWAP2 SWAP1 POP JUMP JUMPDEST PUSH1 0x0 PUSH1 0x20 DUP3 ADD SWAP1 POP DUP2 DUP2 SUB PUSH1 0x0 DUP4 ADD MSTORE PUSH2 0x82AC DUP2 PUSH2 0x7A1E JUMP JUMPDEST SWAP1 POP SWAP2 SWAP1 POP JUMP JUMPDEST PUSH1 0x0 PUSH1 0x20 DUP3 ADD SWAP1 POP DUP2 DUP2 SUB PUSH1 0x0 DUP4 ADD MSTORE PUSH2 0x82CC DUP2 PUSH2 0x7A41 JUMP JUMPDEST SWAP1 POP SWAP2 SWAP1 POP JUMP JUMPDEST PUSH1 0x0 PUSH1 0x20 DUP3 ADD SWAP1 POP DUP2 DUP2 SUB PUSH1 0x0 DUP4 ADD MSTORE PUSH2 0x82EC DUP2 PUSH2 0x7A64 JUMP JUMPDEST SWAP1 POP SWAP2 SWAP1 POP JUMP JUMPDEST PUSH1 0x0 PUSH1 0x20 DUP3 ADD SWAP1 POP DUP2 DUP2 SUB PUSH1 0x0 DUP4 ADD MSTORE PUSH2 0x830C DUP2 PUSH2 0x7A87 JUMP JUMPDEST SWAP1 POP SWAP2 SWAP1 POP JUMP JUMPDEST PUSH1 0x0 PUSH1 0x20 DUP3 ADD SWAP1 POP DUP2 DUP2 SUB PUSH1 0x0 DUP4 ADD MSTORE PUSH2 0x832C DUP2 PUSH2 0x7AAA JUMP JUMPDEST SWAP1 POP SWAP2 SWAP1 POP JUMP JUMPDEST PUSH1 0x0 PUSH1 0x20 DUP3 ADD SWAP1 POP DUP2 DUP2 SUB PUSH1 0x0 DUP4 ADD MSTORE PUSH2 0x834C DUP2 PUSH2 0x7ACD JUMP JUMPDEST SWAP1 POP SWAP2 SWAP1 POP JUMP JUMPDEST PUSH1 0x0 PUSH1 0x20 DUP3 ADD SWAP1 POP DUP2 DUP2 SUB PUSH1 0x0 DUP4 ADD MSTORE PUSH2 0x836C DUP2 PUSH2 0x7AF0 JUMP JUMPDEST SWAP1 POP SWAP2 SWAP1 POP JUMP JUMPDEST PUSH1 0x0 PUSH1 0x20 DUP3 ADD SWAP1 POP DUP2 DUP2 SUB PUSH1 0x0 DUP4 ADD MSTORE PUSH2 0x838C DUP2 PUSH2 0x7B13 JUMP JUMPDEST SWAP1 POP SWAP2 SWAP1 POP JUMP JUMPDEST PUSH1 0x0 PUSH1 0x20 DUP3 ADD SWAP1 POP DUP2 DUP2 SUB PUSH1 0x0 DUP4 ADD MSTORE PUSH2 0x83AC DUP2 PUSH2 0x7B36 JUMP JUMPDEST SWAP1 POP SWAP2 SWAP1 POP JUMP JUMPDEST PUSH1 0x0 PUSH1 0x20 DUP3 ADD SWAP1 POP DUP2 DUP2 SUB PUSH1 0x0 DUP4 ADD MSTORE PUSH2 0x83CC DUP2 PUSH2 0x7B59 JUMP JUMPDEST SWAP1 POP SWAP2 SWAP1 POP JUMP JUMPDEST PUSH1 0x0 PUSH1 0x20 DUP3 ADD SWAP1 POP DUP2 DUP2 SUB PUSH1 0x0 DUP4 ADD MSTORE PUSH2 0x83EC DUP2 PUSH2 0x7B7C JUMP JUMPDEST SWAP1 POP SWAP2 SWAP1 POP JUMP JUMPDEST PUSH1 0x0 PUSH1 0x20 DUP3 ADD SWAP1 POP DUP2 DUP2 SUB PUSH1 0x0 DUP4 ADD MSTORE PUSH2 0x840C DUP2 PUSH2 0x7B9F JUMP JUMPDEST SWAP1 POP SWAP2 SWAP1 POP JUMP JUMPDEST PUSH1 0x0 PUSH1 0x20 DUP3 ADD SWAP1 POP DUP2 DUP2 SUB PUSH1 0x0 DUP4 ADD MSTORE PUSH2 0x842C DUP2 PUSH2 0x7BC2 JUMP JUMPDEST SWAP1 POP SWAP2 SWAP1 POP JUMP JUMPDEST PUSH1 0x0 PUSH1 0x20 DUP3 ADD SWAP1 POP DUP2 DUP2 SUB PUSH1 0x0 DUP4 ADD MSTORE PUSH2 0x844C DUP2 PUSH2 0x7BE5 JUMP JUMPDEST SWAP1 POP SWAP2 SWAP1 POP JUMP JUMPDEST PUSH1 0x0 PUSH1 0x20 DUP3 ADD SWAP1 POP DUP2 DUP2 SUB PUSH1 0x0 DUP4 ADD MSTORE PUSH2 0x846C DUP2 PUSH2 0x7C08 JUMP JUMPDEST SWAP1 POP SWAP2 SWAP1 POP JUMP JUMPDEST PUSH1 0x0 PUSH1 0x20 DUP3 ADD SWAP1 POP DUP2 DUP2 SUB PUSH1 0x0 DUP4 ADD MSTORE PUSH2 0x848C DUP2 PUSH2 0x7C2B JUMP JUMPDEST SWAP1 POP SWAP2 SWAP1 POP JUMP JUMPDEST PUSH1 0x0 PUSH1 0x20 DUP3 ADD SWAP1 POP DUP2 DUP2 SUB PUSH1 0x0 DUP4 ADD MSTORE PUSH2 0x84AC DUP2 PUSH2 0x7C4E JUMP JUMPDEST SWAP1 POP SWAP2 SWAP1 POP JUMP JUMPDEST PUSH1 0x0 PUSH1 0x20 DUP3 ADD SWAP1 POP DUP2 DUP2 SUB PUSH1 0x0 DUP4 ADD MSTORE PUSH2 0x84CC DUP2 PUSH2 0x7C71 JUMP JUMPDEST SWAP1 POP SWAP2 SWAP1 POP JUMP JUMPDEST PUSH1 0x0 PUSH1 0x20 DUP3 ADD SWAP1 POP DUP2 DUP2 SUB PUSH1 0x0 DUP4 ADD MSTORE PUSH2 0x84EC DUP2 PUSH2 0x7C94 JUMP JUMPDEST SWAP1 POP SWAP2 SWAP1 POP JUMP JUMPDEST PUSH1 0x0 PUSH1 0x20 DUP3 ADD SWAP1 POP DUP2 DUP2 SUB PUSH1 0x0 DUP4 ADD MSTORE PUSH2 0x850C DUP2 PUSH2 0x7CB7 JUMP JUMPDEST SWAP1 POP SWAP2 SWAP1 POP JUMP JUMPDEST PUSH1 0x0 PUSH1 0x20 DUP3 ADD SWAP1 POP DUP2 DUP2 SUB PUSH1 0x0 DUP4 ADD MSTORE PUSH2 0x852C DUP2 PUSH2 0x7CDA JUMP JUMPDEST SWAP1 POP SWAP2 SWAP1 POP JUMP JUMPDEST PUSH1 0x0 PUSH1 0x20 DUP3 ADD SWAP1 POP DUP2 DUP2 SUB PUSH1 0x0 DUP4 ADD MSTORE PUSH2 0x854C DUP2 PUSH2 0x7CFD JUMP JUMPDEST SWAP1 POP SWAP2 SWAP1 POP JUMP JUMPDEST PUSH1 0x0 PUSH1 0x20 DUP3 ADD SWAP1 POP DUP2 DUP2 SUB PUSH1 0x0 DUP4 ADD MSTORE PUSH2 0x856C DUP2 PUSH2 0x7D20 JUMP JUMPDEST SWAP1 POP SWAP2 SWAP1 POP JUMP JUMPDEST PUSH1 0x0 PUSH1 0x20 DUP3 ADD SWAP1 POP PUSH2 0x8588 PUSH1 0x0 DUP4 ADD DUP5 PUSH2 0x7D52 JUMP JUMPDEST SWAP3 SWAP2 POP POP JUMP JUMPDEST PUSH1 0x0 PUSH1 0xA0 DUP3 ADD SWAP1 POP PUSH2 0x85A3 PUSH1 0x0 DUP4 ADD DUP10 PUSH2 0x7D52 JUMP JUMPDEST PUSH2 0x85B0 PUSH1 0x20 DUP4 ADD DUP9 PUSH2 0x773D JUMP JUMPDEST DUP2 DUP2 SUB PUSH1 0x40 DUP4 ADD MSTORE PUSH2 0x85C3 DUP2 DUP7 DUP9 PUSH2 0x7582 JUMP JUMPDEST SWAP1 POP PUSH2 0x85D2 PUSH1 0x60 DUP4 ADD DUP6 PUSH2 0x755C JUMP JUMPDEST PUSH2 0x85DF PUSH1 0x80 DUP4 ADD DUP5 PUSH2 0x7D52 JUMP JUMPDEST SWAP8 SWAP7 POP POP POP POP POP POP POP JUMP JUMPDEST PUSH1 0x0 PUSH1 0x40 DUP3 ADD SWAP1 POP PUSH2 0x85FF PUSH1 0x0 DUP4 ADD DUP6 PUSH2 0x7D52 JUMP JUMPDEST PUSH2 0x860C PUSH1 0x20 DUP4 ADD DUP5 PUSH2 0x7D52 JUMP JUMPDEST SWAP4 SWAP3 POP POP POP JUMP JUMPDEST PUSH1 0x0 PUSH1 0x80 DUP3 ADD SWAP1 POP PUSH2 0x8628 PUSH1 0x0 DUP4 ADD DUP8 PUSH2 0x7D52 JUMP JUMPDEST PUSH2 0x8635 PUSH1 0x20 DUP4 ADD DUP7 PUSH2 0x7D52 JUMP JUMPDEST PUSH2 0x8642 PUSH1 0x40 DUP4 ADD DUP6 PUSH2 0x7D52 JUMP JUMPDEST PUSH2 0x864F PUSH1 0x60 DUP4 ADD DUP5 PUSH2 0x7D52 JUMP JUMPDEST SWAP6 SWAP5 POP POP POP POP POP JUMP JUMPDEST PUSH1 0x0 PUSH2 0x140 DUP3 ADD SWAP1 POP PUSH2 0x866E PUSH1 0x0 DUP4 ADD DUP14 PUSH2 0x7D52 JUMP JUMPDEST PUSH2 0x867B PUSH1 0x20 DUP4 ADD DUP13 PUSH2 0x7D52 JUMP JUMPDEST PUSH2 0x8688 PUSH1 0x40 DUP4 ADD DUP12 PUSH2 0x7D52 JUMP JUMPDEST PUSH2 0x8695 PUSH1 0x60 DUP4 ADD DUP11 PUSH2 0x7D52 JUMP JUMPDEST PUSH2 0x86A2 PUSH1 0x80 DUP4 ADD DUP10 PUSH2 0x7D52 JUMP JUMPDEST PUSH2 0x86AF PUSH1 0xA0 DUP4 ADD DUP9 PUSH2 0x7D52 JUMP JUMPDEST PUSH2 0x86BC PUSH1 0xC0 DUP4 ADD DUP8 PUSH2 0x7D52 JUMP JUMPDEST PUSH2 0x86C9 PUSH1 0xE0 DUP4 ADD DUP7 PUSH2 0x7D52 JUMP JUMPDEST PUSH2 0x86D7 PUSH2 0x100 DUP4 ADD DUP6 PUSH2 0x7D52 JUMP JUMPDEST PUSH2 0x86E5 PUSH2 0x120 DUP4 ADD DUP5 PUSH2 0x7D52 JUMP JUMPDEST SWAP12 SWAP11 POP POP POP POP POP POP POP POP POP POP POP JUMP JUMPDEST PUSH1 0x0 PUSH2 0x86FE PUSH2 0x870F JUMP JUMPDEST SWAP1 POP PUSH2 0x870A DUP3 DUP3 PUSH2 0x8B1C JUMP JUMPDEST SWAP2 SWAP1 POP JUMP JUMPDEST PUSH1 0x0 PUSH1 0x40 MLOAD SWAP1 POP SWAP1 JUMP JUMPDEST PUSH1 0x0 PUSH8 0xFFFFFFFFFFFFFFFF DUP3 GT ISZERO PUSH2 0x8734 JUMPI PUSH2 0x8733 PUSH2 0x8C5B JUMP JUMPDEST JUMPDEST PUSH1 0x20 DUP3 MUL SWAP1 POP PUSH1 0x20 DUP2 ADD SWAP1 POP SWAP2 SWAP1 POP JUMP JUMPDEST PUSH1 0x0 DUP2 SWAP1 POP SWAP2 SWAP1 POP JUMP JUMPDEST PUSH1 0x0 DUP2 SWAP1 POP PUSH1 0x20 DUP3 ADD SWAP1 POP SWAP2 SWAP1 POP JUMP JUMPDEST PUSH1 0x0 DUP2 SWAP1 POP PUSH1 0x20 DUP3 ADD SWAP1 POP SWAP2 SWAP1 POP JUMP JUMPDEST PUSH1 0x0 DUP2 MLOAD SWAP1 POP SWAP2 SWAP1 POP JUMP JUMPDEST PUSH1 0x0 DUP2 MLOAD SWAP1 POP SWAP2 SWAP1 POP JUMP JUMPDEST PUSH1 0x0 DUP2 MLOAD SWAP1 POP SWAP2 SWAP1 POP JUMP JUMPDEST PUSH1 0x0 DUP2 MLOAD SWAP1 POP SWAP2 SWAP1 POP JUMP JUMPDEST PUSH1 0x0 PUSH1 0x20 DUP3 ADD SWAP1 POP SWAP2 SWAP1 POP JUMP JUMPDEST PUSH1 0x0 PUSH1 0x20 DUP3 ADD SWAP1 POP SWAP2 SWAP1 POP JUMP JUMPDEST PUSH1 0x0 PUSH1 0x20 DUP3 ADD SWAP1 POP SWAP2 SWAP1 POP JUMP JUMPDEST PUSH1 0x0 DUP3 DUP3 MSTORE PUSH1 0x20 DUP3 ADD SWAP1 POP SWAP3 SWAP2 POP POP JUMP JUMPDEST PUSH1 0x0 DUP3 DUP3 MSTORE PUSH1 0x20 DUP3 ADD SWAP1 POP SWAP3 SWAP2 POP POP JUMP JUMPDEST PUSH1 0x0 DUP2 SWAP1 POP SWAP3 SWAP2 POP POP JUMP JUMPDEST PUSH1 0x0 DUP3 DUP3 MSTORE PUSH1 0x20 DUP3 ADD SWAP1 POP SWAP3 SWAP2 POP POP JUMP JUMPDEST PUSH1 0x0 DUP2 SWAP1 POP SWAP3 SWAP2 POP POP JUMP JUMPDEST PUSH1 0x0 PUSH2 0x881A PUSH1 0x20 DUP5 ADD DUP5 PUSH2 0x6CE9 JUMP JUMPDEST SWAP1 POP SWAP3 SWAP2 POP POP JUMP JUMPDEST PUSH1 0x0 PUSH2 0x882D DUP3 PUSH2 0x8A18 JUMP JUMPDEST SWAP2 POP PUSH2 0x8838 DUP4 PUSH2 0x8A18 JUMP JUMPDEST SWAP3 POP DUP3 PUSH32 0xFFFFFFFFFFFFFFFFFFFFFFFFFFFFFFFFFFFFFFFFFFFFFFFFFFFFFFFFFFFFFFFF SUB DUP3 GT ISZERO PUSH2 0x886D JUMPI PUSH2 0x886C PUSH2 0x8BCE JUMP JUMPDEST JUMPDEST DUP3 DUP3 ADD SWAP1 POP SWAP3 SWAP2 POP POP JUMP JUMPDEST PUSH1 0x0 PUSH2 0x8883 DUP3 PUSH2 0x8A18 JUMP JUMPDEST SWAP2 POP PUSH2 0x888E DUP4 PUSH2 0x8A18 JUMP JUMPDEST SWAP3 POP DUP3 PUSH2 0x889E JUMPI PUSH2 0x889D PUSH2 0x8BFD JUMP JUMPDEST JUMPDEST DUP3 DUP3 DIV SWAP1 POP SWAP3 SWAP2 POP POP JUMP JUMPDEST PUSH1 0x0 PUSH2 0x88B4 DUP3 PUSH2 0x8A18 JUMP JUMPDEST SWAP2 POP PUSH2 0x88BF DUP4 PUSH2 0x8A18 JUMP JUMPDEST SWAP3 POP DUP2 PUSH32 0xFFFFFFFFFFFFFFFFFFFFFFFFFFFFFFFFFFFFFFFFFFFFFFFFFFFFFFFFFFFFFFFF DIV DUP4 GT DUP3 ISZERO ISZERO AND ISZERO PUSH2 0x88F8 JUMPI PUSH2 0x88F7 PUSH2 0x8BCE JUMP JUMPDEST JUMPDEST DUP3 DUP3 MUL SWAP1 POP SWAP3 SWAP2 POP POP JUMP JUMPDEST PUSH1 0x0 PUSH2 0x890E DUP3 PUSH2 0x8A18 JUMP JUMPDEST SWAP2 POP PUSH2 0x8919 DUP4 PUSH2 0x8A18 JUMP JUMPDEST SWAP3 POP DUP3 DUP3 LT ISZERO PUSH2 0x892C JUMPI PUSH2 0x892B PUSH2 0x8BCE JUMP JUMPDEST JUMPDEST DUP3 DUP3 SUB SWAP1 POP SWAP3 SWAP2 POP POP JUMP JUMPDEST PUSH1 0x0 PUSH2 0x8942 DUP3 PUSH2 0x89F8 JUMP JUMPDEST SWAP1 POP SWAP2 SWAP1 POP JUMP JUMPDEST PUSH1 0x0 DUP2 ISZERO ISZERO SWAP1 POP SWAP2 SWAP1 POP JUMP JUMPDEST PUSH1 0x0 DUP2 SWAP1 POP SWAP2 SWAP1 POP JUMP JUMPDEST PUSH1 0x0 PUSH32 0xFFFFFFFF00000000000000000000000000000000000000000000000000000000 DUP3 AND SWAP1 POP SWAP2 SWAP1 POP JUMP JUMPDEST PUSH1 0x0 PUSH2 0x8996 DUP3 PUSH2 0x8937 JUMP JUMPDEST SWAP1 POP SWAP2 SWAP1 POP JUMP JUMPDEST PUSH1 0x0 PUSH2 0x89A8 DUP3 PUSH2 0x8937 JUMP JUMPDEST SWAP1 POP SWAP2 SWAP1 POP JUMP JUMPDEST PUSH1 0x0 PUSH2 0x89BA DUP3 PUSH2 0x8937 JUMP JUMPDEST SWAP1 POP SWAP2 SWAP1 POP JUMP JUMPDEST PUSH1 0x0 PUSH2 0x89CC DUP3 PUSH2 0x8937 JUMP JUMPDEST SWAP1 POP SWAP2 SWAP1 POP JUMP JUMPDEST PUSH1 0x0 PUSH2 0x89DE DUP3 PUSH2 0x8937 JUMP JUMPDEST SWAP1 POP SWAP2 SWAP1 POP JUMP JUMPDEST PUSH1 0x0 DUP2 SWAP1 POP PUSH2 0x89F3 DUP3 PUSH2 0x9906 JUMP JUMPDEST SWAP2 SWAP1 POP JUMP JUMPDEST PUSH1 0x0 PUSH20 0xFFFFFFFFFFFFFFFFFFFFFFFFFFFFFFFFFFFFFFFF DUP3 AND SWAP1 POP SWAP2 SWAP1 POP JUMP JUMPDEST PUSH1 0x0 DUP2 SWAP1 POP SWAP2 SWAP1 POP JUMP JUMPDEST PUSH1 0x0 PUSH1 0xFF DUP3 AND SWAP1 POP SWAP2 SWAP1 POP JUMP JUMPDEST PUSH1 0x0 PUSH2 0x8A3A DUP3 PUSH2 0x8A41 JUMP JUMPDEST SWAP1 POP SWAP2 SWAP1 POP JUMP JUMPDEST PUSH1 0x0 PUSH2 0x8A4C DUP3 PUSH2 0x89F8 JUMP JUMPDEST SWAP1 POP SWAP2 SWAP1 POP JUMP JUMPDEST PUSH1 0x0 PUSH2 0x8A5E DUP3 PUSH2 0x8A65 JUMP JUMPDEST SWAP1 POP SWAP2 SWAP1 POP JUMP JUMPDEST PUSH1 0x0 PUSH2 0x8A70 DUP3 PUSH2 0x89F8 JUMP JUMPDEST SWAP1 POP SWAP2 SWAP1 POP JUMP JUMPDEST PUSH1 0x0 PUSH2 0x8A82 DUP3 PUSH2 0x8A89 JUMP JUMPDEST SWAP1 POP SWAP2 SWAP1 POP JUMP JUMPDEST PUSH1 0x0 PUSH2 0x8A94 DUP3 PUSH2 0x89F8 JUMP JUMPDEST SWAP1 POP SWAP2 SWAP1 POP JUMP JUMPDEST PUSH1 0x0 PUSH2 0x8AA6 DUP3 PUSH2 0x89E5 JUMP JUMPDEST SWAP1 POP SWAP2 SWAP1 POP JUMP JUMPDEST PUSH1 0x0 PUSH2 0x8AB8 DUP3 PUSH2 0x8A18 JUMP JUMPDEST SWAP1 POP SWAP2 SWAP1 POP JUMP JUMPDEST PUSH1 0x0 JUMPDEST DUP4 DUP2 LT ISZERO PUSH2 0x8ADD JUMPI DUP1 DUP3 ADD MLOAD DUP2 DUP5 ADD MSTORE PUSH1 0x20 DUP2 ADD SWAP1 POP PUSH2 0x8AC2 JUMP JUMPDEST DUP4 DUP2 GT ISZERO PUSH2 0x8AEC JUMPI PUSH1 0x0 DUP5 DUP5 ADD MSTORE JUMPDEST POP POP POP POP JUMP JUMPDEST PUSH1 0x0 PUSH2 0x8AFD DUP3 PUSH2 0x8A18 JUMP JUMPDEST SWAP2 POP PUSH1 0x0 DUP3 EQ ISZERO PUSH2 0x8B11 JUMPI PUSH2 0x8B10 PUSH2 0x8BCE JUMP JUMPDEST JUMPDEST PUSH1 0x1 DUP3 SUB SWAP1 POP SWAP2 SWAP1 POP JUMP JUMPDEST PUSH2 0x8B25 DUP3 PUSH2 0x8C8A JUMP JUMPDEST DUP2 ADD DUP2 DUP2 LT PUSH8 0xFFFFFFFFFFFFFFFF DUP3 GT OR ISZERO PUSH2 0x8B44 JUMPI PUSH2 0x8B43 PUSH2 0x8C5B JUMP JUMPDEST JUMPDEST DUP1 PUSH1 0x40 MSTORE POP POP POP JUMP JUMPDEST PUSH1 0x0 PUSH2 0x8B58 DUP3 PUSH2 0x8A18 JUMP JUMPDEST SWAP2 POP PUSH32 0xFFFFFFFFFFFFFFFFFFFFFFFFFFFFFFFFFFFFFFFFFFFFFFFFFFFFFFFFFFFFFFFF DUP3 EQ ISZERO PUSH2 0x8B8B JUMPI PUSH2 0x8B8A PUSH2 0x8BCE JUMP JUMPDEST JUMPDEST PUSH1 0x1 DUP3 ADD SWAP1 POP SWAP2 SWAP1 POP JUMP JUMPDEST PUSH1 0x0 PUSH2 0x8BA1 DUP3 PUSH2 0x8BB2 JUMP JUMPDEST SWAP1 POP SWAP2 SWAP1 POP JUMP JUMPDEST PUSH1 0x0 DUP2 SWAP1 POP SWAP2 SWAP1 POP JUMP JUMPDEST PUSH1 0x0 PUSH2 0x8BBD DUP3 PUSH2 0x8C9B JUMP JUMPDEST SWAP1 POP SWAP2 SWAP1 POP JUMP JUMPDEST PUSH1 0x0 DUP2 SWAP1 POP SWAP2 SWAP1 POP JUMP JUMPDEST PUSH32 0x4E487B7100000000000000000000000000000000000000000000000000000000 PUSH1 0x0 MSTORE PUSH1 0x11 PUSH1 0x4 MSTORE PUSH1 0x24 PUSH1 0x0 REVERT JUMPDEST PUSH32 0x4E487B7100000000000000000000000000000000000000000000000000000000 PUSH1 0x0 MSTORE PUSH1 0x12 PUSH1 0x4 MSTORE PUSH1 0x24 PUSH1 0x0 REVERT JUMPDEST PUSH32 0x4E487B7100000000000000000000000000000000000000000000000000000000 PUSH1 0x0 MSTORE PUSH1 0x21 PUSH1 0x4 MSTORE PUSH1 0x24 PUSH1 0x0 REVERT JUMPDEST PUSH32 0x4E487B7100000000000000000000000000000000000000000000000000000000 PUSH1 0x0 MSTORE PUSH1 0x41 PUSH1 0x4 MSTORE PUSH1 0x24 PUSH1 0x0 REVERT JUMPDEST PUSH1 0x0 PUSH1 0x1F NOT PUSH1 0x1F DUP4 ADD AND SWAP1 POP SWAP2 SWAP1 POP JUMP JUMPDEST PUSH1 0x0 DUP2 PUSH1 0x60 SHL SWAP1 POP SWAP2 SWAP1 POP JUMP JUMPDEST PUSH32 0x45434453413A20696E76616C6964207369676E61747572650000000000000000 PUSH1 0x0 DUP3 ADD MSTORE POP JUMP JUMPDEST PUSH32 0x436F6D6D756E6974793A3A757064617465546F6B656E3A20546F6B656E206C69 PUSH1 0x0 DUP3 ADD MSTORE PUSH32 0x7374206C656E67746820746F6F20626967000000000000000000000000000000 PUSH1 0x20 DUP3 ADD MSTORE POP JUMP JUMPDEST PUSH32 0x436F6D6D756E6974793A205369676E617475726520746F6F206F6C6400000000 PUSH1 0x0 DUP3 ADD MSTORE POP JUMP JUMPDEST PUSH32 0x45434453413A20696E76616C6964207369676E6174757265206C656E67746800 PUSH1 0x0 DUP3 ADD MSTORE POP JUMP JUMPDEST PUSH32 0x19457468657265756D205369676E6564204D6573736167653A0A333200000000 PUSH1 0x0 DUP3 ADD MSTORE POP JUMP JUMPDEST PUSH32 0x436F6D6D756E6974793A3A75706461746542656E656669636961727950617261 PUSH1 0x0 DUP3 ADD MSTORE PUSH32 0x6D733A206F726967696E616C436C61696D416D6F756E7420746F6F2062696700 PUSH1 0x20 DUP3 ADD MSTORE POP JUMP JUMPDEST PUSH32 0x436F6D6D756E6974793A204E4F545F4F574E45525F4F525F414D424153534144 PUSH1 0x0 DUP3 ADD MSTORE PUSH32 0x4F525F4F525F454E544954590000000000000000000000000000000000000000 PUSH1 0x20 DUP3 ADD MSTORE POP JUMP JUMPDEST PUSH32 0x4F776E61626C653A206E6577206F776E657220697320746865207A65726F2061 PUSH1 0x0 DUP3 ADD MSTORE PUSH32 0x6464726573730000000000000000000000000000000000000000000000000000 PUSH1 0x20 DUP3 ADD MSTORE POP JUMP JUMPDEST PUSH32 0x436F6D6D756E6974793A3A5F6368616E676542656E6566696369617279537461 PUSH1 0x0 DUP3 ADD MSTORE PUSH32 0x74653A204D617820636C61696D20746F6F206C6F770000000000000000000000 PUSH1 0x20 DUP3 ADD MSTORE POP JUMP JUMPDEST PUSH32 0x436F6D6D756E6974793A206C6F636B6564000000000000000000000000000000 PUSH1 0x0 DUP3 ADD MSTORE POP JUMP JUMPDEST PUSH32 0x45434453413A20696E76616C6964207369676E6174757265202773272076616C PUSH1 0x0 DUP3 ADD MSTORE PUSH32 0x7565000000000000000000000000000000000000000000000000000000000000 PUSH1 0x20 DUP3 ADD MSTORE POP JUMP JUMPDEST PUSH32 0x436F6D6D756E6974793A3A757064617465436F6D6D756E697479506172616D73 PUSH1 0x0 DUP3 ADD MSTORE PUSH32 0x3A206D696E5472616E6368652073686F756C64206E6F74206265206772656174 PUSH1 0x20 DUP3 ADD MSTORE PUSH32 0x6572207468616E206D61785472616E6368650000000000000000000000000000 PUSH1 0x40 DUP3 ADD MSTORE POP JUMP JUMPDEST PUSH32 0x436F6D6D756E6974793A3A757064617465546F6B656E3A20696E76616C696420 PUSH1 0x0 DUP3 ADD MSTORE PUSH32 0x65786368616E6765506174680000000000000000000000000000000000000000 PUSH1 0x20 DUP3 ADD MSTORE POP JUMP JUMPDEST PUSH32 0x416464726573733A20696E73756666696369656E742062616C616E636520666F PUSH1 0x0 DUP3 ADD MSTORE PUSH32 0x722063616C6C0000000000000000000000000000000000000000000000000000 PUSH1 0x20 DUP3 ADD MSTORE POP JUMP JUMPDEST PUSH32 0x436F6D6D756E6974793A3A757064617465546F6B656E3A204E657720746F6B65 PUSH1 0x0 DUP3 ADD MSTORE PUSH32 0x6E2063616E6E6F74206265207468652073616D65206173207468652063757272 PUSH1 0x20 DUP3 ADD MSTORE PUSH32 0x656E7420746F6B656E0000000000000000000000000000000000000000000000 PUSH1 0x40 DUP3 ADD MSTORE POP JUMP JUMPDEST PUSH32 0x436F6D6D756E6974793A3A757064617465546F6B656E3A20496E76616C696420 PUSH1 0x0 DUP3 ADD MSTORE PUSH32 0x746F6B656E000000000000000000000000000000000000000000000000000000 PUSH1 0x20 DUP3 ADD MSTORE POP JUMP JUMPDEST PUSH32 0x436F6D6D756E6974793A3A75706461746542656E656669636961727950617261 PUSH1 0x0 DUP3 ADD MSTORE PUSH32 0x6D733A2062617365496E74657276616C206D7573742062652067726561746572 PUSH1 0x20 DUP3 ADD MSTORE PUSH32 0x207468616E20696E6372656D656E74496E74657276616C000000000000000000 PUSH1 0x40 DUP3 ADD MSTORE POP JUMP JUMPDEST PUSH32 0x436F6D6D756E6974793A2053656E646572206D75737420626520746865206261 PUSH1 0x0 DUP3 ADD MSTORE PUSH32 0x636B656E642077616C6C65740000000000000000000000000000000000000000 PUSH1 0x20 DUP3 ADD MSTORE POP JUMP JUMPDEST PUSH32 0x436F6D6D756E6974793A3A6772616E74526F6C653A20596F7520617265206E6F PUSH1 0x0 DUP3 ADD MSTORE PUSH32 0x7420616C6C6F7720746F207573652074686973206D6574686F64000000000000 PUSH1 0x20 DUP3 ADD MSTORE POP JUMP JUMPDEST PUSH32 0x436F6D6D756E6974793A204E4F545F414D4241535341444F525F4F525F454E54 PUSH1 0x0 DUP3 ADD MSTORE PUSH32 0x4954590000000000000000000000000000000000000000000000000000000000 PUSH1 0x20 DUP3 ADD MSTORE POP JUMP JUMPDEST PUSH32 0x496E697469616C697A61626C653A20636F6E747261637420697320616C726561 PUSH1 0x0 DUP3 ADD MSTORE PUSH32 0x647920696E697469616C697A6564000000000000000000000000000000000000 PUSH1 0x20 DUP3 ADD MSTORE POP JUMP JUMPDEST PUSH32 0x45434453413A20696E76616C6964207369676E6174757265202776272076616C PUSH1 0x0 DUP3 ADD MSTORE PUSH32 0x7565000000000000000000000000000000000000000000000000000000000000 PUSH1 0x20 DUP3 ADD MSTORE POP JUMP JUMPDEST PUSH32 0x436F6D6D756E6974793A3A62656E65666963696172794A6F696E46726F6D4D69 PUSH1 0x0 DUP3 ADD MSTORE PUSH32 0x6772617465643A2042656E656669636961727920657869737473000000000000 PUSH1 0x20 DUP3 ADD MSTORE POP JUMP JUMPDEST PUSH32 0x436F6D6D756E6974793A3A696E697469616C697A653A2062617365496E746572 PUSH1 0x0 DUP3 ADD MSTORE PUSH32 0x76616C206D7573742062652067726561746572207468616E20696E6372656D65 PUSH1 0x20 DUP3 ADD MSTORE PUSH32 0x6E74496E74657276616C00000000000000000000000000000000000000000000 PUSH1 0x40 DUP3 ADD MSTORE POP JUMP JUMPDEST PUSH32 0x436F6D6D756E6974793A3A636C61696D3A20416C726561647920636C61696D65 PUSH1 0x0 DUP3 ADD MSTORE PUSH32 0x642065766572797468696E670000000000000000000000000000000000000000 PUSH1 0x20 DUP3 ADD MSTORE POP JUMP JUMPDEST PUSH32 0x4F776E61626C653A2063616C6C6572206973206E6F7420746865206F776E6572 PUSH1 0x0 DUP3 ADD MSTORE POP JUMP JUMPDEST PUSH32 0x436F6D6D756E6974793A204E4F545F56414C49445F42454E4546494349415259 PUSH1 0x0 DUP3 ADD MSTORE POP JUMP JUMPDEST PUSH32 0x436F6D6D756E6974793A204E4F545F4D414E4147455200000000000000000000 PUSH1 0x0 DUP3 ADD MSTORE POP JUMP JUMPDEST PUSH32 0x436F6D6D756E6974793A3A72656D6F76654D616E616765723A20596F75206172 PUSH1 0x0 DUP3 ADD MSTORE PUSH32 0x65206E6F7420616C6C6F7720746F2072656D6F766520636F6D6D756E69747941 PUSH1 0x20 DUP3 ADD MSTORE PUSH32 0x646D696E00000000000000000000000000000000000000000000000000000000 PUSH1 0x40 DUP3 ADD MSTORE POP JUMP JUMPDEST PUSH32 0x436F6D6D756E6974793A3A696E697469616C697A653A206F726967696E616C43 PUSH1 0x0 DUP3 ADD MSTORE PUSH32 0x6C61696D416D6F756E7420746F20626967000000000000000000000000000000 PUSH1 0x20 DUP3 ADD MSTORE POP JUMP JUMPDEST PUSH32 0x436F6D6D756E6974793A3A696E697469616C697A653A206D696E5472616E6368 PUSH1 0x0 DUP3 ADD MSTORE PUSH32 0x652073686F756C64206E6F742062652067726561746572207468616E206D6178 PUSH1 0x20 DUP3 ADD MSTORE PUSH32 0x5472616E63686500000000000000000000000000000000000000000000000000 PUSH1 0x40 DUP3 ADD MSTORE POP JUMP JUMPDEST PUSH32 0x436F6D6D756E6974793A3A636C61696D3A204E4F545F59455400000000000000 PUSH1 0x0 DUP3 ADD MSTORE POP JUMP JUMPDEST PUSH32 0x436F6D6D756E6974793A3A7265717565737446756E64733A205468697320636F PUSH1 0x0 DUP3 ADD MSTORE PUSH32 0x6F6D756E6974792069732073656C662D66756E64696E67000000000000000000 PUSH1 0x20 DUP3 ADD MSTORE POP JUMP JUMPDEST PUSH32 0x416464726573733A2063616C6C20746F206E6F6E2D636F6E7472616374000000 PUSH1 0x0 DUP3 ADD MSTORE POP JUMP JUMPDEST PUSH32 0x496E697469616C697A61626C653A20636F6E7472616374206973206E6F742069 PUSH1 0x0 DUP3 ADD MSTORE PUSH32 0x6E697469616C697A696E67000000000000000000000000000000000000000000 PUSH1 0x20 DUP3 ADD MSTORE POP JUMP JUMPDEST PUSH32 0x5361666545524332303A204552433230206F7065726174696F6E20646964206E PUSH1 0x0 DUP3 ADD MSTORE PUSH32 0x6F74207375636365656400000000000000000000000000000000000000000000 PUSH1 0x20 DUP3 ADD MSTORE POP JUMP JUMPDEST PUSH32 0x5265656E7472616E637947756172643A207265656E7472616E742063616C6C00 PUSH1 0x0 DUP3 ADD MSTORE POP JUMP JUMPDEST PUSH32 0x436F6D6D756E6974793A20496E76616C6964207369676E617475726500000000 PUSH1 0x0 DUP3 ADD MSTORE POP JUMP JUMPDEST PUSH32 0x436F6D6D756E6974793A3A72656D6F76654D616E616765723A20546869732061 PUSH1 0x0 DUP3 ADD MSTORE PUSH32 0x63636F756E7420646F65736E27742068617665206D616E6167657220726F6C65 PUSH1 0x20 DUP3 ADD MSTORE POP JUMP JUMPDEST PUSH32 0x436F6D6D756E6974793A3A7265766F6B65526F6C653A20596F7520617265206E PUSH1 0x0 DUP3 ADD MSTORE PUSH32 0x6F7420616C6C6F7720746F207573652074686973206D6574686F640000000000 PUSH1 0x20 DUP3 ADD MSTORE POP JUMP JUMPDEST PUSH32 0x416363657373436F6E74726F6C3A2063616E206F6E6C792072656E6F756E6365 PUSH1 0x0 DUP3 ADD MSTORE PUSH32 0x20726F6C657320666F722073656C660000000000000000000000000000000000 PUSH1 0x20 DUP3 ADD MSTORE POP JUMP JUMPDEST PUSH32 0x436F6D6D756E6974793A3A5F6368616E676542656E6566696369617279537461 PUSH1 0x0 DUP3 ADD MSTORE PUSH32 0x74653A205468697320636F6D6D756E6974792068617320726561636865642074 PUSH1 0x20 DUP3 ADD MSTORE PUSH32 0x6865206D6178696D756D206E756D626572206F662076616C69642062656E6566 PUSH1 0x40 DUP3 ADD MSTORE PUSH32 0x6963696172696573000000000000000000000000000000000000000000000000 PUSH1 0x60 DUP3 ADD MSTORE POP JUMP JUMPDEST PUSH1 0x4 DUP2 LT PUSH2 0x9917 JUMPI PUSH2 0x9916 PUSH2 0x8C2C JUMP JUMPDEST JUMPDEST POP JUMP JUMPDEST PUSH2 0x9923 DUP2 PUSH2 0x8937 JUMP JUMPDEST DUP2 EQ PUSH2 0x992E JUMPI PUSH1 0x0 DUP1 REVERT JUMPDEST POP JUMP JUMPDEST PUSH2 0x993A DUP2 PUSH2 0x8949 JUMP JUMPDEST DUP2 EQ PUSH2 0x9945 JUMPI PUSH1 0x0 DUP1 REVERT JUMPDEST POP JUMP JUMPDEST PUSH2 0x9951 DUP2 PUSH2 0x8955 JUMP JUMPDEST DUP2 EQ PUSH2 0x995C JUMPI PUSH1 0x0 DUP1 REVERT JUMPDEST POP JUMP JUMPDEST PUSH2 0x9968 DUP2 PUSH2 0x895F JUMP JUMPDEST DUP2 EQ PUSH2 0x9973 JUMPI PUSH1 0x0 DUP1 REVERT JUMPDEST POP JUMP JUMPDEST PUSH2 0x997F DUP2 PUSH2 0x898B JUMP JUMPDEST DUP2 EQ PUSH2 0x998A JUMPI PUSH1 0x0 DUP1 REVERT JUMPDEST POP JUMP JUMPDEST PUSH2 0x9996 DUP2 PUSH2 0x899D JUMP JUMPDEST DUP2 EQ PUSH2 0x99A1 JUMPI PUSH1 0x0 DUP1 REVERT JUMPDEST POP JUMP JUMPDEST PUSH2 0x99AD DUP2 PUSH2 0x89AF JUMP JUMPDEST DUP2 EQ PUSH2 0x99B8 JUMPI PUSH1 0x0 DUP1 REVERT JUMPDEST POP JUMP JUMPDEST PUSH2 0x99C4 DUP2 PUSH2 0x89C1 JUMP JUMPDEST DUP2 EQ PUSH2 0x99CF JUMPI PUSH1 0x0 DUP1 REVERT JUMPDEST POP JUMP JUMPDEST PUSH2 0x99DB DUP2 PUSH2 0x89D3 JUMP JUMPDEST DUP2 EQ PUSH2 0x99E6 JUMPI PUSH1 0x0 DUP1 REVERT JUMPDEST POP JUMP JUMPDEST PUSH1 0x4 DUP2 LT PUSH2 0x99F6 JUMPI PUSH1 0x0 DUP1 REVERT JUMPDEST POP JUMP JUMPDEST PUSH2 0x9A02 DUP2 PUSH2 0x8A18 JUMP JUMPDEST DUP2 EQ PUSH2 0x9A0D JUMPI PUSH1 0x0 DUP1 REVERT JUMPDEST POP JUMP INVALID LOG2 PUSH5 0x6970667358 0x22 SLT KECCAK256 DUP4 REVERT PC DUP9 PUSH11 0x310C2D5A48315F37F995C6 0xCD 0xB1 0xBA DUP16 0xE3 0xC7 0x2B 0xDC 0xCF SAR 0xB7 0xCD 0xC1 PUSH31 0x772F64736F6C63430008040033000000000000000000000000000000000000 "
		},
		"gasEstimates": {
			"creation": {
				"codeDepositCost": "7898800",
				"executionCost": "10439",
				"totalCost": "7909239"
			},
			"external": {
				"DEFAULT_ADMIN_ROLE()": "447",
				"_token()": "1323",
				"addBeneficiaries(address[])": "infinite",
				"addBeneficiariesUsingSignature(address[],uint256,bytes)": "infinite",
				"addBeneficiary(address)": "infinite",
				"addManager(address)": "infinite",
				"addTreasuryFunds(uint256)": "infinite",
				"baseInterval()": "1220",
				"beneficiaries(address)": "infinite",
				"beneficiaryClaimedAmounts(address)": "infinite",
				"beneficiaryJoinFromMigrated(address)": "infinite",
				"beneficiaryListAt(uint256)": "infinite",
				"beneficiaryListLength()": "1376",
				"cUSD()": "infinite",
				"claim()": "infinite",
				"claimAmount()": "1240",
				"claimCooldown(address)": "infinite",
				"communityAdmin()": "1325",
				"decreaseStep()": "1284",
				"donate(address,uint256)": "infinite",
				"getInitialMaxClaim()": "infinite",
				"getInitialMaxTotalClaim()": "infinite",
				"getRoleAdmin(bytes32)": "infinite",
				"getVersion()": "406",
				"grantRole(bytes32,address)": "1061",
				"hasRole(bytes32,address)": "1909",
				"incrementInterval()": "1285",
				"initialize(address,address[],uint256,uint256,uint256,uint256,uint256,uint256,uint256,uint256,address)": "infinite",
				"isSelfFunding()": "1217",
				"lastFundRequest()": "1243",
				"lastInterval(address)": "infinite",
				"lock()": "infinite",
				"lockBeneficiaries(address[])": "infinite",
				"lockBeneficiariesUsingSignature(address[],uint256,bytes)": "infinite",
				"lockBeneficiary(address)": "infinite",
				"locked()": "1261",
				"maxBeneficiaries()": "1219",
				"maxClaim()": "1226",
				"maxTotalClaim()": "1263",
				"maxTranche()": "1198",
				"minTranche()": "1196",
				"originalClaimAmount()": "1261",
				"owner()": "1377",
				"previousCommunity()": "1326",
				"privateFunds()": "1262",
				"removeBeneficiaries(address[])": "infinite",
				"removeBeneficiariesUsingSignature(address[],uint256,bytes)": "infinite",
				"removeBeneficiary(address)": "infinite",
				"removeManager(address)": "infinite",
				"renounceOwnership()": "24486",
				"renounceRole(bytes32,address)": "infinite",
				"requestFunds()": "infinite",
				"revokeRole(bytes32,address)": "1059",
				"supportsInterface(bytes4)": "819",
				"token()": "infinite",
				"tokenList()": "infinite",
				"tokens(uint256)": "infinite",
				"tokensLength()": "1300",
				"transfer(address,address,uint256)": "infinite",
				"transferOwnership(address)": "24811",
				"treasuryFunds()": "1242",
				"unlock()": "infinite",
				"unlockBeneficiaries(address[])": "infinite",
				"unlockBeneficiariesUsingSignature(address[],uint256,bytes)": "infinite",
				"unlockBeneficiary(address)": "infinite",
				"updateBeneficiaryParams(uint256,uint256,uint256,uint256,uint256)": "infinite",
				"updateCommunityAdmin(address)": "infinite",
				"updateCommunityParams(uint256,uint256)": "infinite",
				"updateMaxBeneficiaries(uint256)": "infinite",
				"updatePreviousCommunity(address)": "24775",
				"updateToken(address,address[],uint256,uint256,uint256,uint256,uint256)": "infinite",
				"validBeneficiaryCount()": "1220"
			},
			"internal": {
				"_addBeneficiaries(address[] memory)": "infinite",
				"_addBeneficiary(address)": "infinite",
				"_beneficiaryClaimedAmount(struct ICommunity.Beneficiary storage pointer)": "infinite",
				"_changeBeneficiaryState(struct ICommunity.Beneficiary storage pointer,enum ICommunity.BeneficiaryState)": "infinite",
				"_checkManagerSignature(uint256,bytes calldata)": "infinite",
				"_lockBeneficiaries(address[] memory)": "infinite",
				"_lockBeneficiary(address)": "infinite",
				"_removeBeneficiaries(address[] memory)": "infinite",
				"_removeBeneficiary(address)": "infinite",
				"_unlockBeneficiaries(address[] memory)": "infinite",
				"_unlockBeneficiary(address)": "infinite",
				"_updateClaimAmount()": "infinite"
			}
		},
		"methodIdentifiers": {
			"DEFAULT_ADMIN_ROLE()": "a217fddf",
			"_token()": "ecd0c0c3",
			"addBeneficiaries(address[])": "590411da",
			"addBeneficiariesUsingSignature(address[],uint256,bytes)": "e25c25f3",
			"addBeneficiary(address)": "5926651d",
			"addManager(address)": "2d06177a",
			"addTreasuryFunds(uint256)": "b809ee82",
			"baseInterval()": "0e5b7c53",
			"beneficiaries(address)": "01567739",
			"beneficiaryClaimedAmounts(address)": "6b31f2ad",
			"beneficiaryJoinFromMigrated(address)": "a57e08ca",
			"beneficiaryListAt(uint256)": "785393db",
			"beneficiaryListLength()": "eb0376b1",
			"cUSD()": "1fccf672",
			"claim()": "4e71d92d",
			"claimAmount()": "830953ab",
			"claimCooldown(address)": "9cecf572",
			"communityAdmin()": "5fac917a",
			"decreaseStep()": "c51fab3c",
			"donate(address,uint256)": "e69d849d",
			"getInitialMaxClaim()": "78ba280f",
			"getInitialMaxTotalClaim()": "57c36327",
			"getRoleAdmin(bytes32)": "248a9ca3",
			"getVersion()": "0d8e6e2c",
			"grantRole(bytes32,address)": "2f2ff15d",
			"hasRole(bytes32,address)": "91d14854",
			"incrementInterval()": "597be18b",
			"initialize(address,address[],uint256,uint256,uint256,uint256,uint256,uint256,uint256,uint256,address)": "0b4e7817",
			"isSelfFunding()": "300c12fe",
			"lastFundRequest()": "09c338c3",
			"lastInterval(address)": "a8f3e063",
			"lock()": "f83d08ba",
			"lockBeneficiaries(address[])": "89554f17",
			"lockBeneficiariesUsingSignature(address[],uint256,bytes)": "a3c6e411",
			"lockBeneficiary(address)": "c0e27b6b",
			"locked()": "cf309012",
			"maxBeneficiaries()": "a0f93a17",
			"maxClaim()": "d4938db3",
			"maxTotalClaim()": "a38540ee",
			"maxTranche()": "2b271117",
			"minTranche()": "dd4414bb",
			"originalClaimAmount()": "fb7b0a0c",
			"owner()": "8da5cb5b",
			"previousCommunity()": "3a578a0c",
			"privateFunds()": "d6dbd972",
			"removeBeneficiaries(address[])": "c76a890c",
			"removeBeneficiariesUsingSignature(address[],uint256,bytes)": "37e556dd",
			"removeBeneficiary(address)": "59633a1c",
			"removeManager(address)": "ac18de43",
			"renounceOwnership()": "715018a6",
			"renounceRole(bytes32,address)": "36568abe",
			"requestFunds()": "b026ba57",
			"revokeRole(bytes32,address)": "d547741f",
			"supportsInterface(bytes4)": "01ffc9a7",
			"token()": "fc0c546a",
			"tokenList()": "9e2c58ca",
			"tokens(uint256)": "4f64b2be",
			"tokensLength()": "d92fc67b",
			"transfer(address,address,uint256)": "beabacc8",
			"transferOwnership(address)": "f2fde38b",
			"treasuryFunds()": "9c01a401",
			"unlock()": "a69df4b5",
			"unlockBeneficiaries(address[])": "d04c41b6",
			"unlockBeneficiariesUsingSignature(address[],uint256,bytes)": "94e13748",
			"unlockBeneficiary(address)": "d10f5107",
			"updateBeneficiaryParams(uint256,uint256,uint256,uint256,uint256)": "2fd79103",
			"updateCommunityAdmin(address)": "d33d4ec6",
			"updateCommunityParams(uint256,uint256)": "1912cdb4",
			"updateMaxBeneficiaries(uint256)": "305ff654",
			"updatePreviousCommunity(address)": "7e2959dc",
			"updateToken(address,address[],uint256,uint256,uint256,uint256,uint256)": "3783946a",
			"validBeneficiaryCount()": "431a801a"
		}
	},
	"abi": [
		{
			"anonymous": false,
			"inputs": [
				{
					"indexed": true,
					"internalType": "address",
					"name": "manager",
					"type": "address"
				},
				{
					"indexed": true,
					"internalType": "address",
					"name": "beneficiary",
					"type": "address"
				}
			],
			"name": "BeneficiaryAdded",
			"type": "event"
		},
		{
			"anonymous": false,
			"inputs": [
				{
					"indexed": true,
					"internalType": "address",
					"name": "beneficiary",
					"type": "address"
				},
				{
					"indexed": false,
					"internalType": "uint256",
					"name": "amount",
					"type": "uint256"
				}
			],
			"name": "BeneficiaryClaim",
			"type": "event"
		},
		{
			"anonymous": false,
			"inputs": [
				{
					"indexed": true,
					"internalType": "address",
					"name": "beneficiary",
					"type": "address"
				}
			],
			"name": "BeneficiaryJoined",
			"type": "event"
		},
		{
			"anonymous": false,
			"inputs": [
				{
					"indexed": true,
					"internalType": "address",
					"name": "manager",
					"type": "address"
				},
				{
					"indexed": true,
					"internalType": "address",
					"name": "beneficiary",
					"type": "address"
				}
			],
			"name": "BeneficiaryLocked",
			"type": "event"
		},
		{
			"anonymous": false,
			"inputs": [
				{
					"indexed": false,
					"internalType": "uint256",
					"name": "oldOriginalClaimAmount",
					"type": "uint256"
				},
				{
					"indexed": false,
					"internalType": "uint256",
					"name": "oldMaxTotalClaim",
					"type": "uint256"
				},
				{
					"indexed": false,
					"internalType": "uint256",
					"name": "oldDecreaseStep",
					"type": "uint256"
				},
				{
					"indexed": false,
					"internalType": "uint256",
					"name": "oldBaseInterval",
					"type": "uint256"
				},
				{
					"indexed": false,
					"internalType": "uint256",
					"name": "oldIncrementInterval",
					"type": "uint256"
				},
				{
					"indexed": false,
					"internalType": "uint256",
					"name": "newOriginalClaimAmount",
					"type": "uint256"
				},
				{
					"indexed": false,
					"internalType": "uint256",
					"name": "newMaxTotalClaim",
					"type": "uint256"
				},
				{
					"indexed": false,
					"internalType": "uint256",
					"name": "newDecreaseStep",
					"type": "uint256"
				},
				{
					"indexed": false,
					"internalType": "uint256",
					"name": "newBaseInterval",
					"type": "uint256"
				},
				{
					"indexed": false,
					"internalType": "uint256",
					"name": "newIncrementInterval",
					"type": "uint256"
				}
			],
			"name": "BeneficiaryParamsUpdated",
			"type": "event"
		},
		{
			"anonymous": false,
			"inputs": [
				{
					"indexed": true,
					"internalType": "address",
					"name": "manager",
					"type": "address"
				},
				{
					"indexed": true,
					"internalType": "address",
					"name": "beneficiary",
					"type": "address"
				}
			],
			"name": "BeneficiaryRemoved",
			"type": "event"
		},
		{
			"anonymous": false,
			"inputs": [
				{
					"indexed": true,
					"internalType": "address",
					"name": "manager",
					"type": "address"
				},
				{
					"indexed": true,
					"internalType": "address",
					"name": "beneficiary",
					"type": "address"
				}
			],
			"name": "BeneficiaryUnlocked",
			"type": "event"
		},
		{
			"anonymous": false,
			"inputs": [
				{
					"indexed": false,
					"internalType": "uint256",
					"name": "oldClaimAmount",
					"type": "uint256"
				},
				{
					"indexed": false,
					"internalType": "uint256",
					"name": "newClaimAmount",
					"type": "uint256"
				}
			],
			"name": "ClaimAmountUpdated",
			"type": "event"
		},
		{
			"anonymous": false,
			"inputs": [
				{
					"indexed": true,
					"internalType": "address",
					"name": "oldCommunityAdmin",
					"type": "address"
				},
				{
					"indexed": true,
					"internalType": "address",
					"name": "newCommunityAdmin",
					"type": "address"
				}
			],
			"name": "CommunityAdminUpdated",
			"type": "event"
		},
		{
			"anonymous": false,
			"inputs": [
				{
					"indexed": true,
					"internalType": "address",
					"name": "manager",
					"type": "address"
				}
			],
			"name": "CommunityLocked",
			"type": "event"
		},
		{
			"anonymous": false,
			"inputs": [
				{
					"indexed": false,
					"internalType": "uint256",
					"name": "oldMinTranche",
					"type": "uint256"
				},
				{
					"indexed": false,
					"internalType": "uint256",
					"name": "oldMaxTranche",
					"type": "uint256"
				},
				{
					"indexed": false,
					"internalType": "uint256",
					"name": "newMinTranche",
					"type": "uint256"
				},
				{
					"indexed": false,
					"internalType": "uint256",
					"name": "newMaxTranche",
					"type": "uint256"
				}
			],
			"name": "CommunityParamsUpdated",
			"type": "event"
		},
		{
			"anonymous": false,
			"inputs": [
				{
					"indexed": true,
					"internalType": "address",
					"name": "manager",
					"type": "address"
				}
			],
			"name": "CommunityUnlocked",
			"type": "event"
		},
		{
			"anonymous": false,
			"inputs": [
				{
					"indexed": true,
					"internalType": "address",
					"name": "donor",
					"type": "address"
				},
				{
					"indexed": false,
					"internalType": "uint256",
					"name": "amount",
					"type": "uint256"
				}
			],
			"name": "Donate",
			"type": "event"
		},
		{
			"anonymous": false,
			"inputs": [
				{
					"indexed": true,
					"internalType": "address",
					"name": "manager",
					"type": "address"
				}
			],
			"name": "FundsRequested",
			"type": "event"
		},
		{
			"anonymous": false,
			"inputs": [
				{
					"indexed": true,
					"internalType": "address",
					"name": "manager",
					"type": "address"
				},
				{
					"indexed": true,
					"internalType": "address",
					"name": "account",
					"type": "address"
				}
			],
			"name": "ManagerAdded",
			"type": "event"
		},
		{
			"anonymous": false,
			"inputs": [
				{
					"indexed": true,
					"internalType": "address",
					"name": "manager",
					"type": "address"
				},
				{
					"indexed": true,
					"internalType": "address",
					"name": "account",
					"type": "address"
				}
			],
			"name": "ManagerRemoved",
			"type": "event"
		},
		{
			"anonymous": false,
			"inputs": [
				{
					"indexed": false,
					"internalType": "uint256",
					"name": "oldMaxBeneficiaries",
					"type": "uint256"
				},
				{
					"indexed": false,
					"internalType": "uint256",
					"name": "newMaxBeneficiaries",
					"type": "uint256"
				}
			],
			"name": "MaxBeneficiariesUpdated",
			"type": "event"
		},
		{
			"anonymous": false,
			"inputs": [
				{
					"indexed": true,
					"internalType": "address",
					"name": "previousOwner",
					"type": "address"
				},
				{
					"indexed": true,
					"internalType": "address",
					"name": "newOwner",
					"type": "address"
				}
			],
			"name": "OwnershipTransferred",
			"type": "event"
		},
		{
			"anonymous": false,
			"inputs": [
				{
					"indexed": true,
					"internalType": "address",
					"name": "oldPreviousCommunity",
					"type": "address"
				},
				{
					"indexed": true,
					"internalType": "address",
					"name": "newPreviousCommunity",
					"type": "address"
				}
			],
			"name": "PreviousCommunityUpdated",
			"type": "event"
		},
		{
			"anonymous": false,
			"inputs": [
				{
					"indexed": true,
					"internalType": "bytes32",
					"name": "role",
					"type": "bytes32"
				},
				{
					"indexed": true,
					"internalType": "bytes32",
					"name": "previousAdminRole",
					"type": "bytes32"
				},
				{
					"indexed": true,
					"internalType": "bytes32",
					"name": "newAdminRole",
					"type": "bytes32"
				}
			],
			"name": "RoleAdminChanged",
			"type": "event"
		},
		{
			"anonymous": false,
			"inputs": [
				{
					"indexed": true,
					"internalType": "bytes32",
					"name": "role",
					"type": "bytes32"
				},
				{
					"indexed": true,
					"internalType": "address",
					"name": "account",
					"type": "address"
				},
				{
					"indexed": true,
					"internalType": "address",
					"name": "sender",
					"type": "address"
				}
			],
			"name": "RoleGranted",
			"type": "event"
		},
		{
			"anonymous": false,
			"inputs": [
				{
					"indexed": true,
					"internalType": "bytes32",
					"name": "role",
					"type": "bytes32"
				},
				{
					"indexed": true,
					"internalType": "address",
					"name": "account",
					"type": "address"
				},
				{
					"indexed": true,
					"internalType": "address",
					"name": "sender",
					"type": "address"
				}
			],
			"name": "RoleRevoked",
			"type": "event"
		},
		{
			"anonymous": false,
			"inputs": [
				{
					"indexed": true,
					"internalType": "address",
					"name": "oldTokenAddress",
					"type": "address"
				},
				{
					"indexed": true,
					"internalType": "address",
					"name": "newTokenAddress",
					"type": "address"
				}
			],
			"name": "TokenUpdated",
			"type": "event"
		},
		{
			"anonymous": false,
			"inputs": [
				{
					"indexed": true,
					"internalType": "address",
					"name": "token",
					"type": "address"
				},
				{
					"indexed": true,
					"internalType": "address",
					"name": "to",
					"type": "address"
				},
				{
					"indexed": false,
					"internalType": "uint256",
					"name": "amount",
					"type": "uint256"
				}
			],
			"name": "TransferERC20",
			"type": "event"
		},
		{
			"inputs": [],
			"name": "DEFAULT_ADMIN_ROLE",
			"outputs": [
				{
					"internalType": "bytes32",
					"name": "",
					"type": "bytes32"
				}
			],
			"stateMutability": "view",
			"type": "function"
		},
		{
			"inputs": [],
			"name": "_token",
			"outputs": [
				{
					"internalType": "contract IERC20",
					"name": "",
					"type": "address"
				}
			],
			"stateMutability": "view",
			"type": "function"
		},
		{
			"inputs": [
				{
					"internalType": "address[]",
					"name": "_beneficiaryAddresses",
					"type": "address[]"
				}
			],
			"name": "addBeneficiaries",
			"outputs": [],
			"stateMutability": "nonpayable",
			"type": "function"
		},
		{
			"inputs": [
				{
					"internalType": "address[]",
					"name": "_beneficiaryAddresses",
					"type": "address[]"
				},
				{
					"internalType": "uint256",
					"name": "_expirationTimestamp",
					"type": "uint256"
				},
				{
					"internalType": "bytes",
					"name": "_signature",
					"type": "bytes"
				}
			],
			"name": "addBeneficiariesUsingSignature",
			"outputs": [],
			"stateMutability": "nonpayable",
			"type": "function"
		},
		{
			"inputs": [
				{
					"internalType": "address",
					"name": "_beneficiaryAddress",
					"type": "address"
				}
			],
			"name": "addBeneficiary",
			"outputs": [],
			"stateMutability": "nonpayable",
			"type": "function"
		},
		{
			"inputs": [
				{
					"internalType": "address",
					"name": "_account",
					"type": "address"
				}
			],
			"name": "addManager",
			"outputs": [],
			"stateMutability": "nonpayable",
			"type": "function"
		},
		{
			"inputs": [
				{
					"internalType": "uint256",
					"name": "_amount",
					"type": "uint256"
				}
			],
			"name": "addTreasuryFunds",
			"outputs": [],
			"stateMutability": "nonpayable",
			"type": "function"
		},
		{
			"inputs": [],
			"name": "baseInterval",
			"outputs": [
				{
					"internalType": "uint256",
					"name": "",
					"type": "uint256"
				}
			],
			"stateMutability": "view",
			"type": "function"
		},
		{
			"inputs": [
				{
					"internalType": "address",
					"name": "_beneficiaryAddress",
					"type": "address"
				}
			],
			"name": "beneficiaries",
			"outputs": [
				{
					"internalType": "enum ICommunity.BeneficiaryState",
					"name": "state",
					"type": "uint8"
				},
				{
					"internalType": "uint256",
					"name": "claims",
					"type": "uint256"
				},
				{
					"internalType": "uint256",
					"name": "claimedAmount",
					"type": "uint256"
				},
				{
					"internalType": "uint256",
					"name": "lastClaim",
					"type": "uint256"
				}
			],
			"stateMutability": "view",
			"type": "function"
		},
		{
			"inputs": [
				{
					"internalType": "address",
					"name": "_beneficiaryAddress",
					"type": "address"
				}
			],
			"name": "beneficiaryClaimedAmounts",
			"outputs": [
				{
					"internalType": "uint256[]",
					"name": "claimedAmounts",
					"type": "uint256[]"
				}
			],
			"stateMutability": "view",
			"type": "function"
		},
		{
			"inputs": [
				{
					"internalType": "address",
					"name": "_beneficiaryAddress",
					"type": "address"
				}
			],
			"name": "beneficiaryJoinFromMigrated",
			"outputs": [],
			"stateMutability": "nonpayable",
			"type": "function"
		},
		{
			"inputs": [
				{
					"internalType": "uint256",
					"name": "index_",
					"type": "uint256"
				}
			],
			"name": "beneficiaryListAt",
			"outputs": [
				{
					"internalType": "address",
					"name": "",
					"type": "address"
				}
			],
			"stateMutability": "view",
			"type": "function"
		},
		{
			"inputs": [],
			"name": "beneficiaryListLength",
			"outputs": [
				{
					"internalType": "uint256",
					"name": "",
					"type": "uint256"
				}
			],
			"stateMutability": "view",
			"type": "function"
		},
		{
			"inputs": [],
			"name": "cUSD",
			"outputs": [
				{
					"internalType": "contract IERC20",
					"name": "",
					"type": "address"
				}
			],
			"stateMutability": "view",
			"type": "function"
		},
		{
			"inputs": [],
			"name": "claim",
			"outputs": [],
			"stateMutability": "nonpayable",
			"type": "function"
		},
		{
			"inputs": [],
			"name": "claimAmount",
			"outputs": [
				{
					"internalType": "uint256",
					"name": "",
					"type": "uint256"
				}
			],
			"stateMutability": "view",
			"type": "function"
		},
		{
			"inputs": [
				{
					"internalType": "address",
					"name": "_beneficiaryAddress",
					"type": "address"
				}
			],
			"name": "claimCooldown",
			"outputs": [
				{
					"internalType": "uint256",
					"name": "",
					"type": "uint256"
				}
			],
			"stateMutability": "view",
			"type": "function"
		},
		{
			"inputs": [],
			"name": "communityAdmin",
			"outputs": [
				{
					"internalType": "contract ICommunityAdmin",
					"name": "",
					"type": "address"
				}
			],
			"stateMutability": "view",
			"type": "function"
		},
		{
			"inputs": [],
			"name": "decreaseStep",
			"outputs": [
				{
					"internalType": "uint256",
					"name": "",
					"type": "uint256"
				}
			],
			"stateMutability": "view",
			"type": "function"
		},
		{
			"inputs": [
				{
					"internalType": "address",
					"name": "_sender",
					"type": "address"
				},
				{
					"internalType": "uint256",
					"name": "_amount",
					"type": "uint256"
				}
			],
			"name": "donate",
			"outputs": [],
			"stateMutability": "nonpayable",
			"type": "function"
		},
		{
			"inputs": [],
			"name": "getInitialMaxClaim",
			"outputs": [
				{
					"internalType": "uint256",
					"name": "",
					"type": "uint256"
				}
			],
			"stateMutability": "view",
			"type": "function"
		},
		{
			"inputs": [],
			"name": "getInitialMaxTotalClaim",
			"outputs": [
				{
					"internalType": "uint256",
					"name": "",
					"type": "uint256"
				}
			],
			"stateMutability": "view",
			"type": "function"
		},
		{
			"inputs": [
				{
					"internalType": "bytes32",
					"name": "role",
					"type": "bytes32"
				}
			],
			"name": "getRoleAdmin",
			"outputs": [
				{
					"internalType": "bytes32",
					"name": "",
					"type": "bytes32"
				}
			],
			"stateMutability": "view",
			"type": "function"
		},
		{
			"inputs": [],
			"name": "getVersion",
			"outputs": [
				{
					"internalType": "uint256",
					"name": "",
					"type": "uint256"
				}
			],
			"stateMutability": "pure",
			"type": "function"
		},
		{
			"inputs": [
				{
					"internalType": "bytes32",
					"name": "",
					"type": "bytes32"
				},
				{
					"internalType": "address",
					"name": "",
					"type": "address"
				}
			],
			"name": "grantRole",
			"outputs": [],
			"stateMutability": "pure",
			"type": "function"
		},
		{
			"inputs": [
				{
					"internalType": "bytes32",
					"name": "role",
					"type": "bytes32"
				},
				{
					"internalType": "address",
					"name": "account",
					"type": "address"
				}
			],
			"name": "hasRole",
			"outputs": [
				{
					"internalType": "bool",
					"name": "",
					"type": "bool"
				}
			],
			"stateMutability": "view",
			"type": "function"
		},
		{
			"inputs": [],
			"name": "incrementInterval",
			"outputs": [
				{
					"internalType": "uint256",
					"name": "",
					"type": "uint256"
				}
			],
			"stateMutability": "view",
			"type": "function"
		},
		{
			"inputs": [
				{
					"internalType": "address",
					"name": "_tokenAddress",
					"type": "address"
				},
				{
					"internalType": "address[]",
					"name": "_managers",
					"type": "address[]"
				},
				{
					"internalType": "uint256",
					"name": "_originalClaimAmount",
					"type": "uint256"
				},
				{
					"internalType": "uint256",
					"name": "_maxTotalClaim",
					"type": "uint256"
				},
				{
					"internalType": "uint256",
					"name": "_decreaseStep",
					"type": "uint256"
				},
				{
					"internalType": "uint256",
					"name": "_baseInterval",
					"type": "uint256"
				},
				{
					"internalType": "uint256",
					"name": "_incrementInterval",
					"type": "uint256"
				},
				{
					"internalType": "uint256",
					"name": "_minTranche",
					"type": "uint256"
				},
				{
					"internalType": "uint256",
					"name": "_maxTranche",
					"type": "uint256"
				},
				{
					"internalType": "uint256",
					"name": "_maxBeneficiaries",
					"type": "uint256"
				},
				{
					"internalType": "contract ICommunity",
					"name": "_previousCommunity",
					"type": "address"
				}
			],
			"name": "initialize",
			"outputs": [],
			"stateMutability": "nonpayable",
			"type": "function"
		},
		{
			"inputs": [],
			"name": "isSelfFunding",
			"outputs": [
				{
					"internalType": "bool",
					"name": "",
					"type": "bool"
				}
			],
			"stateMutability": "view",
			"type": "function"
		},
		{
			"inputs": [],
			"name": "lastFundRequest",
			"outputs": [
				{
					"internalType": "uint256",
					"name": "",
					"type": "uint256"
				}
			],
			"stateMutability": "view",
			"type": "function"
		},
		{
			"inputs": [
				{
					"internalType": "address",
					"name": "_beneficiaryAddress",
					"type": "address"
				}
			],
			"name": "lastInterval",
			"outputs": [
				{
					"internalType": "uint256",
					"name": "",
					"type": "uint256"
				}
			],
			"stateMutability": "view",
			"type": "function"
		},
		{
			"inputs": [],
			"name": "lock",
			"outputs": [],
			"stateMutability": "nonpayable",
			"type": "function"
		},
		{
			"inputs": [
				{
					"internalType": "address[]",
					"name": "_beneficiaryAddresses",
					"type": "address[]"
				}
			],
			"name": "lockBeneficiaries",
			"outputs": [],
			"stateMutability": "nonpayable",
			"type": "function"
		},
		{
			"inputs": [
				{
					"internalType": "address[]",
					"name": "_beneficiaryAddresses",
					"type": "address[]"
				},
				{
					"internalType": "uint256",
					"name": "_expirationTimestamp",
					"type": "uint256"
				},
				{
					"internalType": "bytes",
					"name": "_signature",
					"type": "bytes"
				}
			],
			"name": "lockBeneficiariesUsingSignature",
			"outputs": [],
			"stateMutability": "nonpayable",
			"type": "function"
		},
		{
			"inputs": [
				{
					"internalType": "address",
					"name": "_beneficiaryAddress",
					"type": "address"
				}
			],
			"name": "lockBeneficiary",
			"outputs": [],
			"stateMutability": "nonpayable",
			"type": "function"
		},
		{
			"inputs": [],
			"name": "locked",
			"outputs": [
				{
					"internalType": "bool",
					"name": "",
					"type": "bool"
				}
			],
			"stateMutability": "view",
			"type": "function"
		},
		{
			"inputs": [],
			"name": "maxBeneficiaries",
			"outputs": [
				{
					"internalType": "uint256",
					"name": "",
					"type": "uint256"
				}
			],
			"stateMutability": "view",
			"type": "function"
		},
		{
			"inputs": [],
			"name": "maxClaim",
			"outputs": [
				{
					"internalType": "uint256",
					"name": "",
					"type": "uint256"
				}
			],
			"stateMutability": "view",
			"type": "function"
		},
		{
			"inputs": [],
			"name": "maxTotalClaim",
			"outputs": [
				{
					"internalType": "uint256",
					"name": "",
					"type": "uint256"
				}
			],
			"stateMutability": "view",
			"type": "function"
		},
		{
			"inputs": [],
			"name": "maxTranche",
			"outputs": [
				{
					"internalType": "uint256",
					"name": "",
					"type": "uint256"
				}
			],
			"stateMutability": "view",
			"type": "function"
		},
		{
			"inputs": [],
			"name": "minTranche",
			"outputs": [
				{
					"internalType": "uint256",
					"name": "",
					"type": "uint256"
				}
			],
			"stateMutability": "view",
			"type": "function"
		},
		{
			"inputs": [],
			"name": "originalClaimAmount",
			"outputs": [
				{
					"internalType": "uint256",
					"name": "",
					"type": "uint256"
				}
			],
			"stateMutability": "view",
			"type": "function"
		},
		{
			"inputs": [],
			"name": "owner",
			"outputs": [
				{
					"internalType": "address",
					"name": "",
					"type": "address"
				}
			],
			"stateMutability": "view",
			"type": "function"
		},
		{
			"inputs": [],
			"name": "previousCommunity",
			"outputs": [
				{
					"internalType": "contract ICommunity",
					"name": "",
					"type": "address"
				}
			],
			"stateMutability": "view",
			"type": "function"
		},
		{
			"inputs": [],
			"name": "privateFunds",
			"outputs": [
				{
					"internalType": "uint256",
					"name": "",
					"type": "uint256"
				}
			],
			"stateMutability": "view",
			"type": "function"
		},
		{
			"inputs": [
				{
					"internalType": "address[]",
					"name": "_beneficiaryAddresses",
					"type": "address[]"
				}
			],
			"name": "removeBeneficiaries",
			"outputs": [],
			"stateMutability": "nonpayable",
			"type": "function"
		},
		{
			"inputs": [
				{
					"internalType": "address[]",
					"name": "_beneficiaryAddresses",
					"type": "address[]"
				},
				{
					"internalType": "uint256",
					"name": "_expirationTimestamp",
					"type": "uint256"
				},
				{
					"internalType": "bytes",
					"name": "_signature",
					"type": "bytes"
				}
			],
			"name": "removeBeneficiariesUsingSignature",
			"outputs": [],
			"stateMutability": "nonpayable",
			"type": "function"
		},
		{
			"inputs": [
				{
					"internalType": "address",
					"name": "_beneficiaryAddress",
					"type": "address"
				}
			],
			"name": "removeBeneficiary",
			"outputs": [],
			"stateMutability": "nonpayable",
			"type": "function"
		},
		{
			"inputs": [
				{
					"internalType": "address",
					"name": "_account",
					"type": "address"
				}
			],
			"name": "removeManager",
			"outputs": [],
			"stateMutability": "nonpayable",
			"type": "function"
		},
		{
			"inputs": [],
			"name": "renounceOwnership",
			"outputs": [],
			"stateMutability": "nonpayable",
			"type": "function"
		},
		{
			"inputs": [
				{
					"internalType": "bytes32",
					"name": "role",
					"type": "bytes32"
				},
				{
					"internalType": "address",
					"name": "account",
					"type": "address"
				}
			],
			"name": "renounceRole",
			"outputs": [],
			"stateMutability": "nonpayable",
			"type": "function"
		},
		{
			"inputs": [],
			"name": "requestFunds",
			"outputs": [],
			"stateMutability": "nonpayable",
			"type": "function"
		},
		{
			"inputs": [
				{
					"internalType": "bytes32",
					"name": "",
					"type": "bytes32"
				},
				{
					"internalType": "address",
					"name": "",
					"type": "address"
				}
			],
			"name": "revokeRole",
			"outputs": [],
			"stateMutability": "pure",
			"type": "function"
		},
		{
			"inputs": [
				{
					"internalType": "bytes4",
					"name": "interfaceId",
					"type": "bytes4"
				}
			],
			"name": "supportsInterface",
			"outputs": [
				{
					"internalType": "bool",
					"name": "",
					"type": "bool"
				}
			],
			"stateMutability": "view",
			"type": "function"
		},
		{
			"inputs": [],
			"name": "token",
			"outputs": [
				{
					"internalType": "contract IERC20",
					"name": "",
					"type": "address"
				}
			],
			"stateMutability": "view",
			"type": "function"
		},
		{
			"inputs": [],
			"name": "tokenList",
			"outputs": [
				{
					"internalType": "address[]",
					"name": "",
					"type": "address[]"
				}
			],
			"stateMutability": "view",
			"type": "function"
		},
		{
			"inputs": [
				{
					"internalType": "uint256",
					"name": "",
					"type": "uint256"
				}
			],
			"name": "tokens",
			"outputs": [
				{
					"internalType": "address",
					"name": "tokenAddress",
					"type": "address"
				},
				{
					"internalType": "uint256",
					"name": "ratio",
					"type": "uint256"
				},
				{
					"internalType": "uint256",
					"name": "startBlock",
					"type": "uint256"
				}
			],
			"stateMutability": "view",
			"type": "function"
		},
		{
			"inputs": [],
			"name": "tokensLength",
			"outputs": [
				{
					"internalType": "uint256",
					"name": "",
					"type": "uint256"
				}
			],
			"stateMutability": "view",
			"type": "function"
		},
		{
			"inputs": [
				{
					"internalType": "contract IERC20",
					"name": "_token",
					"type": "address"
				},
				{
					"internalType": "address",
					"name": "_to",
					"type": "address"
				},
				{
					"internalType": "uint256",
					"name": "_amount",
					"type": "uint256"
				}
			],
			"name": "transfer",
			"outputs": [],
			"stateMutability": "nonpayable",
			"type": "function"
		},
		{
			"inputs": [
				{
					"internalType": "address",
					"name": "newOwner",
					"type": "address"
				}
			],
			"name": "transferOwnership",
			"outputs": [],
			"stateMutability": "nonpayable",
			"type": "function"
		},
		{
			"inputs": [],
			"name": "treasuryFunds",
			"outputs": [
				{
					"internalType": "uint256",
					"name": "",
					"type": "uint256"
				}
			],
			"stateMutability": "view",
			"type": "function"
		},
		{
			"inputs": [],
			"name": "unlock",
			"outputs": [],
			"stateMutability": "nonpayable",
			"type": "function"
		},
		{
			"inputs": [
				{
					"internalType": "address[]",
					"name": "_beneficiaryAddresses",
					"type": "address[]"
				}
			],
			"name": "unlockBeneficiaries",
			"outputs": [],
			"stateMutability": "nonpayable",
			"type": "function"
		},
		{
			"inputs": [
				{
					"internalType": "address[]",
					"name": "_beneficiaryAddresses",
					"type": "address[]"
				},
				{
					"internalType": "uint256",
					"name": "_expirationTimestamp",
					"type": "uint256"
				},
				{
					"internalType": "bytes",
					"name": "_signature",
					"type": "bytes"
				}
			],
			"name": "unlockBeneficiariesUsingSignature",
			"outputs": [],
			"stateMutability": "nonpayable",
			"type": "function"
		},
		{
			"inputs": [
				{
					"internalType": "address",
					"name": "_beneficiaryAddress",
					"type": "address"
				}
			],
			"name": "unlockBeneficiary",
			"outputs": [],
			"stateMutability": "nonpayable",
			"type": "function"
		},
		{
			"inputs": [
				{
					"internalType": "uint256",
					"name": "_originalClaimAmount",
					"type": "uint256"
				},
				{
					"internalType": "uint256",
					"name": "_maxTotalClaim",
					"type": "uint256"
				},
				{
					"internalType": "uint256",
					"name": "_decreaseStep",
					"type": "uint256"
				},
				{
					"internalType": "uint256",
					"name": "_baseInterval",
					"type": "uint256"
				},
				{
					"internalType": "uint256",
					"name": "_incrementInterval",
					"type": "uint256"
				}
			],
			"name": "updateBeneficiaryParams",
			"outputs": [],
			"stateMutability": "nonpayable",
			"type": "function"
		},
		{
			"inputs": [
				{
					"internalType": "contract ICommunityAdmin",
					"name": "_newCommunityAdmin",
					"type": "address"
				}
			],
			"name": "updateCommunityAdmin",
			"outputs": [],
			"stateMutability": "nonpayable",
			"type": "function"
		},
		{
			"inputs": [
				{
					"internalType": "uint256",
					"name": "_minTranche",
					"type": "uint256"
				},
				{
					"internalType": "uint256",
					"name": "_maxTranche",
					"type": "uint256"
				}
			],
			"name": "updateCommunityParams",
			"outputs": [],
			"stateMutability": "nonpayable",
			"type": "function"
		},
		{
			"inputs": [
				{
					"internalType": "uint256",
					"name": "_newMaxBeneficiaries",
					"type": "uint256"
				}
			],
			"name": "updateMaxBeneficiaries",
			"outputs": [],
			"stateMutability": "nonpayable",
			"type": "function"
		},
		{
			"inputs": [
				{
					"internalType": "contract ICommunity",
					"name": "_newPreviousCommunity",
					"type": "address"
				}
			],
			"name": "updatePreviousCommunity",
			"outputs": [],
			"stateMutability": "nonpayable",
			"type": "function"
		},
		{
			"inputs": [
				{
					"internalType": "contract IERC20",
					"name": "_newToken",
					"type": "address"
				},
				{
					"internalType": "address[]",
					"name": "_exchangePath",
					"type": "address[]"
				},
				{
					"internalType": "uint256",
					"name": "_originalClaimAmount",
					"type": "uint256"
				},
				{
					"internalType": "uint256",
					"name": "_maxTotalClaim",
					"type": "uint256"
				},
				{
					"internalType": "uint256",
					"name": "_decreaseStep",
					"type": "uint256"
				},
				{
					"internalType": "uint256",
					"name": "_baseInterval",
					"type": "uint256"
				},
				{
					"internalType": "uint256",
					"name": "_incrementInterval",
					"type": "uint256"
				}
			],
			"name": "updateToken",
			"outputs": [],
			"stateMutability": "nonpayable",
			"type": "function"
		},
		{
			"inputs": [],
			"name": "validBeneficiaryCount",
			"outputs": [
				{
					"internalType": "uint256",
					"name": "",
					"type": "uint256"
				}
			],
			"stateMutability": "view",
			"type": "function"
		}
	]
}