{
  "_format": "hh-sol-artifact-1",
  "contractName": "CommunityAdminImplementation",
  "sourceName": "contracts/community/CommunityAdminImplementation.sol",
  "abi": [
    {
      "anonymous": false,
      "inputs": [
        {
          "indexed": true,
          "internalType": "address",
          "name": "oldAmbassadors",
          "type": "address"
        },
        {
          "indexed": true,
          "internalType": "address",
          "name": "newAmbassadors",
          "type": "address"
        }
      ],
      "name": "AmbassadorsUpdated",
      "type": "event"
    },
    {
      "anonymous": false,
      "inputs": [
        {
          "indexed": true,
          "internalType": "address",
          "name": "communityAddress",
          "type": "address"
        },
        {
          "indexed": false,
          "internalType": "address[]",
          "name": "managers",
          "type": "address[]"
        },
        {
          "indexed": false,
          "internalType": "uint256",
          "name": "originalClaimAmount",
          "type": "uint256"
        },
        {
          "indexed": false,
          "internalType": "uint256",
          "name": "maxTotalClaim",
          "type": "uint256"
        },
        {
          "indexed": false,
          "internalType": "uint256",
          "name": "decreaseStep",
          "type": "uint256"
        },
        {
          "indexed": false,
          "internalType": "uint256",
          "name": "baseInterval",
          "type": "uint256"
        },
        {
          "indexed": false,
          "internalType": "uint256",
          "name": "incrementInterval",
          "type": "uint256"
        },
        {
          "indexed": false,
          "internalType": "uint256",
          "name": "minTranche",
          "type": "uint256"
        },
        {
          "indexed": false,
          "internalType": "uint256",
          "name": "maxTranche",
          "type": "uint256"
        }
      ],
      "name": "CommunityAdded",
      "type": "event"
    },
    {
      "anonymous": false,
      "inputs": [
        {
          "indexed": true,
          "internalType": "address",
          "name": "originalCommunity",
          "type": "address"
        },
        {
          "indexed": true,
          "internalType": "address",
          "name": "copyCommunity",
          "type": "address"
        }
      ],
      "name": "CommunityCopied",
      "type": "event"
    },
    {
      "anonymous": false,
      "inputs": [
        {
          "indexed": true,
          "internalType": "address",
          "name": "community",
          "type": "address"
        },
        {
          "indexed": false,
          "internalType": "uint256",
          "name": "amount",
          "type": "uint256"
        }
      ],
      "name": "CommunityFunded",
      "type": "event"
    },
    {
      "anonymous": false,
      "inputs": [
        {
          "indexed": true,
          "internalType": "address",
          "name": "oldCommunityImplementation",
          "type": "address"
        },
        {
          "indexed": true,
          "internalType": "address",
          "name": "newCommunityImplementation",
          "type": "address"
        }
      ],
      "name": "CommunityImplementationUpdated",
      "type": "event"
    },
    {
      "anonymous": false,
      "inputs": [
        {
          "indexed": false,
          "internalType": "address",
          "name": "oldCommunityMiddleProxy",
          "type": "address"
        },
        {
          "indexed": false,
          "internalType": "address",
          "name": "newCommunityMiddleProxy",
          "type": "address"
        }
      ],
      "name": "CommunityMiddleProxyUpdated",
      "type": "event"
    },
    {
      "anonymous": false,
      "inputs": [
        {
          "indexed": false,
          "internalType": "address[]",
          "name": "managers",
          "type": "address[]"
        },
        {
          "indexed": true,
          "internalType": "address",
          "name": "communityAddress",
          "type": "address"
        },
        {
          "indexed": true,
          "internalType": "address",
          "name": "previousCommunityAddress",
          "type": "address"
        }
      ],
      "name": "CommunityMigrated",
      "type": "event"
    },
    {
      "anonymous": false,
      "inputs": [
        {
          "indexed": true,
          "internalType": "address",
          "name": "communityAddress",
          "type": "address"
        }
      ],
      "name": "CommunityRemoved",
      "type": "event"
    },
    {
      "anonymous": false,
      "inputs": [
        {
          "indexed": true,
          "internalType": "address",
          "name": "oldImpactMarketCouncil",
          "type": "address"
        },
        {
          "indexed": true,
          "internalType": "address",
          "name": "newImpactMarketCouncil",
          "type": "address"
        }
      ],
      "name": "ImpactMarketCouncilUpdated",
      "type": "event"
    },
    {
      "anonymous": false,
      "inputs": [
        {
          "indexed": true,
          "internalType": "address",
          "name": "previousOwner",
          "type": "address"
        },
        {
          "indexed": true,
          "internalType": "address",
          "name": "newOwner",
          "type": "address"
        }
      ],
      "name": "OwnershipTransferred",
      "type": "event"
    },
    {
      "anonymous": false,
      "inputs": [
        {
          "indexed": true,
          "internalType": "address",
          "name": "token",
          "type": "address"
        },
        {
          "indexed": true,
          "internalType": "address",
          "name": "to",
          "type": "address"
        },
        {
          "indexed": false,
          "internalType": "uint256",
          "name": "amount",
          "type": "uint256"
        }
      ],
      "name": "TransferERC20",
      "type": "event"
    },
    {
      "anonymous": false,
      "inputs": [
        {
          "indexed": true,
          "internalType": "address",
          "name": "oldTreasury",
          "type": "address"
        },
        {
          "indexed": true,
          "internalType": "address",
          "name": "newTreasury",
          "type": "address"
        }
      ],
      "name": "TreasuryUpdated",
      "type": "event"
    },
    {
      "inputs": [
        {
          "internalType": "address",
          "name": "_tokenAddress",
          "type": "address"
        },
        {
          "internalType": "address[]",
          "name": "_managers",
          "type": "address[]"
        },
        {
          "internalType": "address",
          "name": "_ambassador",
          "type": "address"
        },
        {
          "internalType": "uint256",
          "name": "_originalClaimAmount",
          "type": "uint256"
        },
        {
          "internalType": "uint256",
          "name": "_maxTotalClaim",
          "type": "uint256"
        },
        {
          "internalType": "uint256",
          "name": "_decreaseStep",
          "type": "uint256"
        },
        {
          "internalType": "uint256",
          "name": "_baseInterval",
          "type": "uint256"
        },
        {
          "internalType": "uint256",
          "name": "_incrementInterval",
          "type": "uint256"
        },
        {
          "internalType": "uint256",
          "name": "_minTranche",
          "type": "uint256"
        },
        {
          "internalType": "uint256",
          "name": "_maxTranche",
          "type": "uint256"
        },
        {
          "internalType": "uint256",
          "name": "_maxBeneficiaries",
          "type": "uint256"
        }
      ],
      "name": "addCommunity",
      "outputs": [],
      "stateMutability": "nonpayable",
      "type": "function"
    },
    {
      "inputs": [],
      "name": "ambassadors",
      "outputs": [
        {
          "internalType": "contract IAmbassadors",
          "name": "",
          "type": "address"
        }
      ],
      "stateMutability": "view",
      "type": "function"
    },
    {
      "inputs": [],
      "name": "authorizedWalletAddress",
      "outputs": [
        {
          "internalType": "address",
          "name": "",
          "type": "address"
        }
      ],
      "stateMutability": "view",
      "type": "function"
    },
    {
      "inputs": [],
      "name": "cUSD",
      "outputs": [
        {
          "internalType": "contract IERC20Upgradeable",
          "name": "",
          "type": "address"
        }
      ],
      "stateMutability": "view",
      "type": "function"
    },
    {
      "inputs": [
        {
          "internalType": "contract ICommunity",
          "name": "_community",
          "type": "address"
        }
      ],
      "name": "calculateCommunityTrancheAmount",
      "outputs": [
        {
          "internalType": "uint256",
          "name": "",
          "type": "uint256"
        }
      ],
      "stateMutability": "view",
      "type": "function"
    },
    {
      "inputs": [
        {
          "internalType": "address",
          "name": "",
          "type": "address"
        }
      ],
      "name": "communities",
      "outputs": [
        {
          "internalType": "enum ICommunityAdmin.CommunityState",
          "name": "",
          "type": "uint8"
        }
      ],
      "stateMutability": "view",
      "type": "function"
    },
    {
      "inputs": [],
      "name": "communityImplementation",
      "outputs": [
        {
          "internalType": "contract ICommunity",
          "name": "",
          "type": "address"
        }
      ],
      "stateMutability": "view",
      "type": "function"
    },
    {
      "inputs": [
        {
          "internalType": "uint256",
          "name": "_index",
          "type": "uint256"
        }
      ],
      "name": "communityListAt",
      "outputs": [
        {
          "internalType": "address",
          "name": "",
          "type": "address"
        }
      ],
      "stateMutability": "view",
      "type": "function"
    },
    {
      "inputs": [],
      "name": "communityListLength",
      "outputs": [
        {
          "internalType": "uint256",
          "name": "",
          "type": "uint256"
        }
      ],
      "stateMutability": "view",
      "type": "function"
    },
    {
      "inputs": [],
      "name": "communityMiddleProxy",
      "outputs": [
        {
          "internalType": "address",
          "name": "",
          "type": "address"
        }
      ],
      "stateMutability": "view",
      "type": "function"
    },
    {
      "inputs": [],
      "name": "communityProxyAdmin",
      "outputs": [
        {
          "internalType": "contract ProxyAdmin",
          "name": "",
          "type": "address"
        }
      ],
      "stateMutability": "view",
      "type": "function"
    },
    {
      "inputs": [],
      "name": "fundCommunity",
      "outputs": [],
      "stateMutability": "nonpayable",
      "type": "function"
    },
    {
      "inputs": [
        {
          "internalType": "address",
          "name": "_communityProxyAddress",
          "type": "address"
        }
      ],
      "name": "getCommunityProxyImplementation",
      "outputs": [
        {
          "internalType": "address",
          "name": "",
          "type": "address"
        }
      ],
      "stateMutability": "view",
      "type": "function"
    },
    {
      "inputs": [],
      "name": "getVersion",
      "outputs": [
        {
          "internalType": "uint256",
          "name": "",
          "type": "uint256"
        }
      ],
      "stateMutability": "pure",
      "type": "function"
    },
    {
      "inputs": [],
      "name": "impactMarketCouncil",
      "outputs": [
        {
          "internalType": "contract IImpactMarketCouncil",
          "name": "",
          "type": "address"
        }
      ],
      "stateMutability": "view",
      "type": "function"
    },
    {
      "inputs": [
        {
          "internalType": "contract ICommunity",
          "name": "_communityImplementation",
          "type": "address"
        },
        {
          "internalType": "contract IERC20Upgradeable",
          "name": "_cUSD",
          "type": "address"
        }
      ],
      "name": "initialize",
      "outputs": [],
      "stateMutability": "nonpayable",
      "type": "function"
    },
    {
      "inputs": [
        {
          "internalType": "address",
          "name": "_community",
          "type": "address"
        },
        {
          "internalType": "address",
          "name": "_ambassadorOrEntity",
          "type": "address"
        }
      ],
      "name": "isAmbassadorOrEntityOfCommunity",
      "outputs": [
        {
          "internalType": "bool",
          "name": "",
          "type": "bool"
        }
      ],
      "stateMutability": "view",
      "type": "function"
    },
    {
      "inputs": [
        {
          "internalType": "address[]",
          "name": "_managers",
          "type": "address[]"
        },
        {
          "internalType": "contract ICommunity",
          "name": "_previousCommunity",
          "type": "address"
        }
      ],
      "name": "migrateCommunity",
      "outputs": [],
      "stateMutability": "nonpayable",
      "type": "function"
    },
    {
      "inputs": [],
      "name": "minClaimAmountRatio",
      "outputs": [
        {
          "internalType": "uint256",
          "name": "",
          "type": "uint256"
        }
      ],
      "stateMutability": "view",
      "type": "function"
    },
    {
      "inputs": [],
      "name": "minClaimAmountRatioPrecision",
      "outputs": [
        {
          "internalType": "uint256",
          "name": "",
          "type": "uint256"
        }
      ],
      "stateMutability": "pure",
      "type": "function"
    },
    {
      "inputs": [],
      "name": "owner",
      "outputs": [
        {
          "internalType": "address",
          "name": "",
          "type": "address"
        }
      ],
      "stateMutability": "view",
      "type": "function"
    },
    {
      "inputs": [
        {
          "internalType": "contract ICommunity",
          "name": "_community",
          "type": "address"
        }
      ],
      "name": "removeCommunity",
      "outputs": [],
      "stateMutability": "nonpayable",
      "type": "function"
    },
    {
      "inputs": [],
      "name": "renounceOwnership",
      "outputs": [],
      "stateMutability": "nonpayable",
      "type": "function"
    },
    {
      "inputs": [
        {
          "internalType": "address",
          "name": "_ambassador",
          "type": "address"
        },
        {
          "internalType": "contract ICommunity",
          "name": "_community",
          "type": "address"
        }
      ],
      "name": "setCommunityToAmbassador",
      "outputs": [],
      "stateMutability": "nonpayable",
      "type": "function"
    },
    {
      "inputs": [
        {
          "internalType": "contract ICommunity",
          "name": "_community",
          "type": "address"
        },
        {
          "internalType": "uint256",
          "name": "_numberOfCopies",
          "type": "uint256"
        },
        {
          "internalType": "address",
          "name": "_ambassador",
          "type": "address"
        },
        {
          "internalType": "address[]",
          "name": "_managers",
          "type": "address[]"
        }
      ],
      "name": "splitCommunity",
      "outputs": [],
      "stateMutability": "nonpayable",
      "type": "function"
    },
    {
      "inputs": [
        {
          "internalType": "contract IERC20Upgradeable",
          "name": "_token",
          "type": "address"
        },
        {
          "internalType": "address",
          "name": "_to",
          "type": "address"
        },
        {
          "internalType": "uint256",
          "name": "_amount",
          "type": "uint256"
        }
      ],
      "name": "transfer",
      "outputs": [],
      "stateMutability": "nonpayable",
      "type": "function"
    },
    {
      "inputs": [
        {
          "internalType": "contract ICommunity",
          "name": "_community",
          "type": "address"
        },
        {
          "internalType": "contract IERC20Upgradeable",
          "name": "_token",
          "type": "address"
        },
        {
          "internalType": "address",
          "name": "_to",
          "type": "address"
        },
        {
          "internalType": "uint256",
          "name": "_amount",
          "type": "uint256"
        }
      ],
      "name": "transferFromCommunity",
      "outputs": [],
      "stateMutability": "nonpayable",
      "type": "function"
    },
    {
      "inputs": [
        {
          "internalType": "address",
          "name": "newOwner",
          "type": "address"
        }
      ],
      "name": "transferOwnership",
      "outputs": [],
      "stateMutability": "nonpayable",
      "type": "function"
    },
    {
      "inputs": [],
      "name": "treasury",
      "outputs": [
        {
          "internalType": "contract ITreasury",
          "name": "",
          "type": "address"
        }
      ],
      "stateMutability": "view",
      "type": "function"
    },
    {
      "inputs": [],
      "name": "treasuryMinBalance",
      "outputs": [
        {
          "internalType": "uint256",
          "name": "",
          "type": "uint256"
        }
      ],
      "stateMutability": "view",
      "type": "function"
    },
    {
      "inputs": [],
      "name": "treasurySafetyPercentage",
      "outputs": [
        {
          "internalType": "uint256",
          "name": "",
          "type": "uint256"
        }
      ],
      "stateMutability": "view",
      "type": "function"
    },
    {
      "inputs": [
        {
          "internalType": "contract IAmbassadors",
          "name": "_newAmbassadors",
          "type": "address"
        }
      ],
      "name": "updateAmbassadors",
      "outputs": [],
      "stateMutability": "nonpayable",
      "type": "function"
    },
    {
      "inputs": [
        {
          "internalType": "address",
          "name": "_newAuthorizedWalletAddress",
          "type": "address"
        }
      ],
      "name": "updateAuthorizedWalletAddress",
      "outputs": [],
      "stateMutability": "nonpayable",
      "type": "function"
    },
    {
      "inputs": [
        {
          "internalType": "contract ICommunity",
          "name": "_community",
          "type": "address"
        },
        {
          "internalType": "uint256",
          "name": "_originalClaimAmount",
          "type": "uint256"
        },
        {
          "internalType": "uint256",
          "name": "_maxTotalClaim",
          "type": "uint256"
        },
        {
          "internalType": "uint256",
          "name": "_decreaseStep",
          "type": "uint256"
        },
        {
          "internalType": "uint256",
          "name": "_baseInterval",
          "type": "uint256"
        },
        {
          "internalType": "uint256",
          "name": "_incrementInterval",
          "type": "uint256"
        },
        {
          "internalType": "uint256",
          "name": "_maxBeneficiaries",
          "type": "uint256"
        }
      ],
      "name": "updateBeneficiaryParams",
      "outputs": [],
      "stateMutability": "nonpayable",
      "type": "function"
    },
    {
      "inputs": [
        {
          "internalType": "contract ICommunity",
          "name": "_newCommunityImplementation",
          "type": "address"
        }
      ],
      "name": "updateCommunityImplementation",
      "outputs": [],
      "stateMutability": "nonpayable",
      "type": "function"
    },
    {
      "inputs": [
        {
          "internalType": "address",
          "name": "_newCommunityMiddleProxy",
          "type": "address"
        }
      ],
      "name": "updateCommunityMiddleProxy",
      "outputs": [],
      "stateMutability": "nonpayable",
      "type": "function"
    },
    {
      "inputs": [
        {
          "internalType": "contract ICommunity",
          "name": "_community",
          "type": "address"
        },
        {
          "internalType": "uint256",
          "name": "_minTranche",
          "type": "uint256"
        },
        {
          "internalType": "uint256",
          "name": "_maxTranche",
          "type": "uint256"
        }
      ],
      "name": "updateCommunityParams",
      "outputs": [],
      "stateMutability": "nonpayable",
      "type": "function"
    },
    {
      "inputs": [
        {
          "internalType": "contract ICommunity",
          "name": "_community",
          "type": "address"
        },
        {
          "internalType": "contract IERC20Upgradeable",
          "name": "_newToken",
          "type": "address"
        },
        {
          "internalType": "address[]",
          "name": "_exchangePath",
          "type": "address[]"
        },
        {
          "internalType": "uint256",
          "name": "_originalClaimAmount",
          "type": "uint256"
        },
        {
          "internalType": "uint256",
          "name": "_maxTotalClaim",
          "type": "uint256"
        },
        {
          "internalType": "uint256",
          "name": "_decreaseStep",
          "type": "uint256"
        },
        {
          "internalType": "uint256",
          "name": "_baseInterval",
          "type": "uint256"
        },
        {
          "internalType": "uint256",
          "name": "_incrementInterval",
          "type": "uint256"
        }
      ],
      "name": "updateCommunityToken",
      "outputs": [],
      "stateMutability": "nonpayable",
      "type": "function"
    },
    {
      "inputs": [
        {
          "internalType": "contract IImpactMarketCouncil",
          "name": "_newImpactMarketCouncil",
          "type": "address"
        }
      ],
      "name": "updateImpactMarketCouncil",
      "outputs": [],
      "stateMutability": "nonpayable",
      "type": "function"
    },
    {
      "inputs": [
        {
          "internalType": "uint256",
          "name": "_newMinClaimAmountRatio",
          "type": "uint256"
        }
      ],
      "name": "updateMinClaimAmountRatio",
      "outputs": [],
      "stateMutability": "nonpayable",
      "type": "function"
    },
    {
      "inputs": [
        {
          "internalType": "address",
          "name": "_communityMiddleProxy",
          "type": "address"
        },
        {
          "internalType": "address",
          "name": "_newCommunityImplementation",
          "type": "address"
        }
      ],
      "name": "updateProxyImplementation",
      "outputs": [],
      "stateMutability": "nonpayable",
      "type": "function"
    },
    {
      "inputs": [
        {
          "internalType": "contract ITreasury",
          "name": "_newTreasury",
          "type": "address"
        }
      ],
      "name": "updateTreasury",
      "outputs": [],
      "stateMutability": "nonpayable",
      "type": "function"
    },
    {
      "inputs": [
        {
          "internalType": "uint256",
          "name": "_newTreasuryMinBalance",
          "type": "uint256"
        }
      ],
      "name": "updateTreasuryMinBalance",
      "outputs": [],
      "stateMutability": "nonpayable",
      "type": "function"
    },
    {
      "inputs": [
        {
          "internalType": "uint256",
          "name": "_newTreasurySafetyPercentage",
          "type": "uint256"
        }
      ],
      "name": "updateTreasurySafetyPercentage",
      "outputs": [],
      "stateMutability": "nonpayable",
      "type": "function"
    }
  ],
  "bytecode": "0x608060405234801561001057600080fd5b5061620c806100206000396000f3fe60806040523480156200001157600080fd5b5060043610620002a95760003560e01c80638da5cb5b116200016d578063beabacc811620000d3578063e80d93a21162000092578063e80d93a214620005f4578063f00d0964146200060b578063f1df10401462000615578063f2fde38b146200062c578063f34ded501462000643578063fbb121b9146200065a57600080fd5b8063beabacc81462000584578063becc3ce3146200059b578063c0b3444e14620005b2578063ca5c285614620005c9578063d7599b6d14620005e057600080fd5b80639d18788b116200012c5780639d18788b146200051c578063af2d77f81462000533578063afae65be1462000547578063b1909ef2146200054f578063b39f7ea41462000566578063b94ef2c2146200057a57600080fd5b80638da5cb5b14620004b15780638e2d90db14620004c35780638e4254f414620004da5780639263454014620004ee5780639c22d32c146200050557600080fd5b80634e39da2311620002135780636b68b2ef11620001d25780636b68b2ef1462000430578063715018a6146200043a5780637c7db5d714620004445780637f2813d2146200044e5780637f51bb1f146200048357806381449efe146200049a57600080fd5b80634e39da2314620003b2578063502791b614620003c957806361d027b314620003dd5780636a3c386514620003f15780636b0de23f146200040857600080fd5b80631fccf672116200026c5780631fccf672146200032b578063212a9de5146200033f5780632de00ddc1462000356578063372a8f4d146200036d57806339f539a21462000384578063485cc955146200039b57600080fd5b8063016a041614620002ae5780630cb967a314620002df5780630d8e6e2c14620002f8578063174a71d7146200030a5780631d2c93591462000314575b600080fd5b609a54620002c2906001600160a01b031681565b6040516001600160a01b0390911681526020015b60405180910390f35b620002f6620002f03660046200429c565b62000671565b005b60035b604051908152602001620002d6565b620002f662000710565b620002f6620003253660046200444a565b62000a26565b609754620002c2906001600160a01b031681565b620002f66200035036600462004537565b62000aef565b620002f662000367366004620043ca565b62001306565b620002c26200037e3660046200467c565b620013b7565b620002f662000395366004620042da565b620013cc565b620002f6620003ac366004620043ca565b6200144a565b620002f6620003c33660046200429c565b6200159b565b609e54620002c2906001600160a01b031681565b609854620002c2906001600160a01b031681565b620002f662000402366004620045e0565b62001624565b6200041f62000419366004620042da565b62001744565b6040519015158152602001620002d6565b620002fb60a25481565b620002f662001865565b620002fb60a35481565b620004746200045f3660046200429c565b609b6020526000908152604090205460ff1681565b604051620002d691906200485d565b620002f6620004943660046200429c565b620018a0565b620002f6620004ab366004620045a9565b62001929565b6033546001600160a01b0316620002c2565b620002f6620004d4366004620043dd565b620019d4565b609954620002c2906001600160a01b031681565b620002f6620004ff3660046200429c565b6200236b565b620002f6620005163660046200467c565b6200279b565b620002f66200052d36600462004317565b6200286b565b60a154620002c2906001600160a01b031681565b6064620002fb565b620002fb620005603660046200429c565b62002bf4565b60a054620002c2906001600160a01b031681565b620002fb60a45481565b620002f66200059536600462004637565b62003376565b620002f6620005ac3660046200467c565b6200343c565b620002f6620005c33660046200467c565b62003484565b620002f6620005da3660046200429c565b6200356a565b609f54620002c2906001600160a01b031681565b620002f6620006053660046200429c565b620035f3565b620002fb6200367c565b620002f662000626366004620044a1565b6200368f565b620002f66200063d3660046200429c565b6200373c565b620002f6620006543660046200429c565b620037de565b620002c26200066b3660046200429c565b62003843565b6033546001600160a01b03163314620006a75760405162461bcd60e51b81526004016200069e906200490b565b60405180910390fd5b60a054604080516001600160a01b03928316815291831660208301527fa5c3a96c9b28d1f0ca36f6d9cc9a8cf138656ee223e4b99adf4a58d10f1048a0910160405180910390a160a080546001600160a01b0319166001600160a01b0392909216919091179055565b6001336000908152609b602052604090205460ff1660038111156200074557634e487b7160e01b600052602160045260246000fd5b14620007945760405162461bcd60e51b815260206004820152601d60248201527f436f6d6d756e69747941646d696e3a204e4f545f434f4d4d554e49545900000060448201526064016200069e565b60003390506000816001600160a01b0316630d8e6e2c6040518163ffffffff1660e01b815260040160206040518083038186803b158015620007d557600080fd5b505afa158015620007ea573d6000803e3d6000fd5b505050506040513d601f19601f8201168201806040525081019062000810919062004695565b6001146200089357816001600160a01b031663fc0c546a6040518163ffffffff1660e01b815260040160206040518083038186803b1580156200085257600080fd5b505afa15801562000867573d6000803e3d6000fd5b505050506040513d601f19601f820116820180604052508101906200088d9190620042bb565b62000908565b816001600160a01b0316631fccf6726040518163ffffffff1660e01b815260040160206040518083038186803b158015620008cd57600080fd5b505afa158015620008e2573d6000803e3d6000fd5b505050506040513d601f19601f82011682018060405250810190620009089190620042bb565b6040516370a0823160e01b81523360048201529091506000906001600160a01b038316906370a082319060240160206040518083038186803b1580156200094e57600080fd5b505afa15801562000963573d6000803e3d6000fd5b505050506040513d601f19601f8201168201806040525081019062000989919062004695565b90506000620009983362002bf4565b90506000811162000a14576040805162461bcd60e51b81526020600482015260248101919091527f436f6d6d756e69747941646d696e3a3a66756e64436f6d6d756e6974793a207460448201527f68697320636f6d6d756e6974792063616e6e6f742072657175657374206e6f7760648201526084016200069e565b62000a208482620038c5565b50505050565b6033546001600160a01b0316331462000a535760405162461bcd60e51b81526004016200069e906200490b565b6002606554141562000a795760405162461bcd60e51b81526004016200069e90620049d6565b60026065556040516317d5759960e31b81526001600160a01b0385169063beabacc89062000ab090869086908690600401620047e9565b600060405180830381600087803b15801562000acb57600080fd5b505af115801562000ae0573d6000803e3d6000fd5b50506001606555505050505050565b6033546001600160a01b031633148062000b135750609e546001600160a01b031633145b62000b325760405162461bcd60e51b81526004016200069e90620048bb565b6002606554141562000b585760405162461bcd60e51b81526004016200069e90620049d6565b600260655560016001600160a01b0385166000908152609b602052604090205460ff16600381111562000b9b57634e487b7160e01b600052602160045260246000fd5b1462000c105760405162461bcd60e51b815260206004820152603760248201527f436f6d6d756e69747941646d696e3a3a73706c6974436f6d6d756e6974793a2060448201527f696e76616c696420636f6d6d756e69747920737461746500000000000000000060648201526084016200069e565b6003846001600160a01b0316630d8e6e2c6040518163ffffffff1660e01b815260040160206040518083038186803b15801562000c4c57600080fd5b505afa15801562000c61573d6000803e3d6000fd5b505050506040513d601f19601f8201168201806040525081019062000c87919062004695565b101562000cfd5760405162461bcd60e51b815260206004820152603960248201527f436f6d6d756e69747941646d696e3a3a73706c6974436f6d6d756e6974793a2060448201527f696e76616c696420636f6d6d756e6974792076657273696f6e0000000000000060648201526084016200069e565b60005b8315620012fa5762000d128462004ab4565b93506200113e856001600160a01b031663fc0c546a6040518163ffffffff1660e01b815260040160206040518083038186803b15801562000d5257600080fd5b505afa15801562000d67573d6000803e3d6000fd5b505050506040513d601f19601f8201168201806040525081019062000d8d9190620042bb565b83876001600160a01b031663fb7b0a0c6040518163ffffffff1660e01b815260040160206040518083038186803b15801562000dc857600080fd5b505afa15801562000ddd573d6000803e3d6000fd5b505050506040513d601f19601f8201168201806040525081019062000e03919062004695565b886001600160a01b03166378ba280f6040518163ffffffff1660e01b815260040160206040518083038186803b15801562000e3d57600080fd5b505afa15801562000e52573d6000803e3d6000fd5b505050506040513d601f19601f8201168201806040525081019062000e78919062004695565b896001600160a01b031663c51fab3c6040518163ffffffff1660e01b815260040160206040518083038186803b15801562000eb257600080fd5b505afa15801562000ec7573d6000803e3d6000fd5b505050506040513d601f19601f8201168201806040525081019062000eed919062004695565b8a6001600160a01b0316630e5b7c536040518163ffffffff1660e01b815260040160206040518083038186803b15801562000f2757600080fd5b505afa15801562000f3c573d6000803e3d6000fd5b505050506040513d601f19601f8201168201806040525081019062000f62919062004695565b8b6001600160a01b031663597be18b6040518163ffffffff1660e01b815260040160206040518083038186803b15801562000f9c57600080fd5b505afa15801562000fb1573d6000803e3d6000fd5b505050506040513d601f19601f8201168201806040525081019062000fd7919062004695565b8c6001600160a01b031663dd4414bb6040518163ffffffff1660e01b815260040160206040518083038186803b1580156200101157600080fd5b505afa15801562001026573d6000803e3d6000fd5b505050506040513d601f19601f820116820180604052508101906200104c919062004695565b8d6001600160a01b0316632b2711176040518163ffffffff1660e01b815260040160206040518083038186803b1580156200108657600080fd5b505afa1580156200109b573d6000803e3d6000fd5b505050506040513d601f19601f82011682018060405250810190620010c1919062004695565b8e6001600160a01b031663a0f93a176040518163ffffffff1660e01b815260040160206040518083038186803b158015620010fb57600080fd5b505afa15801562001110573d6000803e3d6000fd5b505050506040513d601f19601f8201168201806040525081019062001136919062004695565b600062003c03565b90506001600160a01b038116620011695760405162461bcd60e51b81526004016200069e9062004940565b6001600160a01b0381166000908152609b60205260409020805460ff1916600117905562001199609c8262003cf8565b5060405162afbe3960e51b81526001600160a01b0382811660048301528616906315f7c72090602401600060405180830381600087803b158015620011dd57600080fd5b505af1158015620011f2573d6000803e3d6000fd5b5050604051633bb68f1360e21b81526001600160a01b0388811660048301528416925063eeda3c4c9150602401600060405180830381600087803b1580156200123a57600080fd5b505af11580156200124f573d6000803e3d6000fd5b5050609f54604051630b78037760e21b81526001600160a01b03878116600483015285811660248301529091169250632de00ddc9150604401600060405180830381600087803b158015620012a357600080fd5b505af1158015620012b8573d6000803e3d6000fd5b50506040516001600160a01b038085169350881691507f4c8a0d1036aeffbc4de12b3b642c2b9d9cffa18b7e2a4ac6ff3b1474a5fe2fd790600090a362000d00565b50506001606555505050565b6033546001600160a01b03163314806200132a5750609e546001600160a01b031633145b620013495760405162461bcd60e51b81526004016200069e90620048bb565b609f54604051630b78037760e21b81526001600160a01b038481166004830152838116602483015290911690632de00ddc906044015b600060405180830381600087803b1580156200139a57600080fd5b505af1158015620013af573d6000803e3d6000fd5b505050505050565b6000620013c6609c8362003d0f565b92915050565b6033546001600160a01b0316331480620013f05750609e546001600160a01b031633145b6200140f5760405162461bcd60e51b81526004016200069e90620048bb565b609a5460405163266a23b160e21b81526001600160a01b0384811660048301528381166024830152909116906399a88ec4906044016200137f565b600054610100900460ff16620014675760005460ff16156200146b565b303b155b620014d05760405162461bcd60e51b815260206004820152602e60248201527f496e697469616c697a61626c653a20636f6e747261637420697320616c72656160448201526d191e481a5b9a5d1a585b1a5e995960921b60648201526084016200069e565b600054610100900460ff16158015620014f3576000805461ffff19166101011790555b620014fd62003d1d565b6200150762003d5b565b609980546001600160a01b038086166001600160a01b03199283161790925560978054928516929091169190911790556040516200154590620041bd565b604051809103906000f08015801562001562573d6000803e3d6000fd5b50609a80546001600160a01b0319166001600160a01b0392909216919091179055801562001596576000805461ff00191690555b505050565b6033546001600160a01b03163314620015c85760405162461bcd60e51b81526004016200069e906200490b565b609f546040516001600160a01b038084169216907fbede3ab527cb73f6396abc70a54cb6637fe75d7f41468cd7b55900027382f7db90600090a3609f80546001600160a01b0319166001600160a01b0392909216919091179055565b6033546001600160a01b0316331480620016485750609e546001600160a01b031633145b620016675760405162461bcd60e51b81526004016200069e90620048bb565b604051632fd7910360e01b815260048101879052602481018690526044810185905260648101849052608481018390526001600160a01b03881690632fd791039060a401600060405180830381600087803b158015620016c657600080fd5b505af1158015620016db573d6000803e3d6000fd5b5050604051630c17fd9560e21b8152600481018490526001600160a01b038a16925063305ff6549150602401600060405180830381600087803b1580156200172257600080fd5b505af115801562001737573d6000803e3d6000fd5b5050505050505050505050565b609f54604051631611acd760e31b81526001600160a01b0383811660048301528481166024830152600092169063b08d66b89060440160206040518083038186803b1580156200179357600080fd5b505afa158015620017a8573d6000803e3d6000fd5b505050506040513d601f19601f82011682018060405250810190620017ce919062004428565b806200185e5750609f5460405163cb53f50360e01b81526001600160a01b03848116600483015285811660248301529091169063cb53f5039060440160206040518083038186803b1580156200182357600080fd5b505afa15801562001838573d6000803e3d6000fd5b505050506040513d601f19601f820116820180604052508101906200185e919062004428565b9392505050565b6033546001600160a01b03163314620018925760405162461bcd60e51b81526004016200069e906200490b565b6200189e600062003d8f565b565b6033546001600160a01b03163314620018cd5760405162461bcd60e51b81526004016200069e906200490b565b6098546040516001600160a01b038084169216907f4ab5be82436d353e61ca18726e984e561f5c1cc7c6d38b29d2553c790434705a90600090a3609880546001600160a01b0319166001600160a01b0392909216919091179055565b6033546001600160a01b03163314806200194d5750609e546001600160a01b031633145b6200196c5760405162461bcd60e51b81526004016200069e90620048bb565b604051630644b36d60e21b815260048101839052602481018290526001600160a01b03841690631912cdb490604401600060405180830381600087803b158015620019b657600080fd5b505af1158015620019cb573d6000803e3d6000fd5b50505050505050565b6033546001600160a01b0316331480620019f85750609e546001600160a01b031633145b62001a175760405162461bcd60e51b81526004016200069e90620048bb565b6002606554141562001a3d5760405162461bcd60e51b81526004016200069e90620049d6565b600260655560036001600160a01b0382166000908152609b602052604090205460ff16600381111562001a8057634e487b7160e01b600052602160045260246000fd5b141562001b015760405162461bcd60e51b815260206004820152604260248201527f436f6d6d756e69747941646d696e3a3a6d696772617465436f6d6d756e69747960448201527f3a207468697320636f6d6d756e69747920686173206265656e206d6967726174606482015261195960f21b608482015260a4016200069e565b6001600160a01b0381166000818152609b60209081526040808320805460ff1916600317905580516303639b8b60e21b81529051929392630d8e6e2c92600480840193919291829003018186803b15801562001b5c57600080fd5b505afa15801562001b71573d6000803e3d6000fd5b505050506040513d601f19601f8201168201806040525081019062001b97919062004695565b60011462001c1a57816001600160a01b031663fc0c546a6040518163ffffffff1660e01b815260040160206040518083038186803b15801562001bd957600080fd5b505afa15801562001bee573d6000803e3d6000fd5b505050506040513d601f19601f8201168201806040525081019062001c149190620042bb565b62001c8f565b816001600160a01b0316631fccf6726040518163ffffffff1660e01b815260040160206040518083038186803b15801562001c5457600080fd5b505afa15801562001c69573d6000803e3d6000fd5b505050506040513d601f19601f8201168201806040525081019062001c8f9190620042bb565b905060006003836001600160a01b0316630d8e6e2c6040518163ffffffff1660e01b815260040160206040518083038186803b15801562001ccf57600080fd5b505afa15801562001ce4573d6000803e3d6000fd5b505050506040513d601f19601f8201168201806040525081019062001d0a919062004695565b101562001d8c57826001600160a01b031663830953ab6040518163ffffffff1660e01b815260040160206040518083038186803b15801562001d4b57600080fd5b505afa15801562001d60573d6000803e3d6000fd5b505050506040513d601f19601f8201168201806040525081019062001d86919062004695565b62001e01565b826001600160a01b031663fb7b0a0c6040518163ffffffff1660e01b815260040160206040518083038186803b15801562001dc657600080fd5b505afa15801562001ddb573d6000803e3d6000fd5b505050506040513d601f19601f8201168201806040525081019062001e01919062004695565b90506000620021cb838684876001600160a01b03166378ba280f6040518163ffffffff1660e01b815260040160206040518083038186803b15801562001e4657600080fd5b505afa15801562001e5b573d6000803e3d6000fd5b505050506040513d601f19601f8201168201806040525081019062001e81919062004695565b886001600160a01b031663c51fab3c6040518163ffffffff1660e01b815260040160206040518083038186803b15801562001ebb57600080fd5b505afa15801562001ed0573d6000803e3d6000fd5b505050506040513d601f19601f8201168201806040525081019062001ef6919062004695565b896001600160a01b0316630e5b7c536040518163ffffffff1660e01b815260040160206040518083038186803b15801562001f3057600080fd5b505afa15801562001f45573d6000803e3d6000fd5b505050506040513d601f19601f8201168201806040525081019062001f6b919062004695565b8a6001600160a01b031663597be18b6040518163ffffffff1660e01b815260040160206040518083038186803b15801562001fa557600080fd5b505afa15801562001fba573d6000803e3d6000fd5b505050506040513d601f19601f8201168201806040525081019062001fe0919062004695565b8b6001600160a01b031663dd4414bb6040518163ffffffff1660e01b815260040160206040518083038186803b1580156200201a57600080fd5b505afa1580156200202f573d6000803e3d6000fd5b505050506040513d601f19601f8201168201806040525081019062002055919062004695565b8c6001600160a01b0316632b2711176040518163ffffffff1660e01b815260040160206040518083038186803b1580156200208f57600080fd5b505afa158015620020a4573d6000803e3d6000fd5b505050506040513d601f19601f82011682018060405250810190620020ca919062004695565b60018e6001600160a01b0316630d8e6e2c6040518163ffffffff1660e01b815260040160206040518083038186803b1580156200210657600080fd5b505afa1580156200211b573d6000803e3d6000fd5b505050506040513d601f19601f8201168201806040525081019062002141919062004695565b116200214f576000620021c4565b8d6001600160a01b031663a0f93a176040518163ffffffff1660e01b815260040160206040518083038186803b1580156200218957600080fd5b505afa1580156200219e573d6000803e3d6000fd5b505050506040513d601f19601f82011682018060405250810190620021c4919062004695565b8e62003c03565b90506001600160a01b038116620021f65760405162461bcd60e51b81526004016200069e9062004940565b6040516370a0823160e01b81526001600160a01b038581166004830152600091908516906370a082319060240160206040518083038186803b1580156200223c57600080fd5b505afa15801562002251573d6000803e3d6000fd5b505050506040513d601f19601f8201168201806040525081019062002277919062004695565b6040516317d5759960e31b81529091506001600160a01b0386169063beabacc890620022ac90879086908690600401620047e9565b600060405180830381600087803b158015620022c757600080fd5b505af1158015620022dc573d6000803e3d6000fd5b505050506001600160a01b0382166000908152609b60205260409020805460ff1916600117905562002310609c8362003cf8565b50846001600160a01b0316826001600160a01b03167f1c73dbd6259eae88a71a197a742361367d2811051b3de2b22953065b876247af8860405162002356919062004787565b60405180910390a35050600160655550505050565b6033546001600160a01b03163314806200238f5750609e546001600160a01b031633145b620023ae5760405162461bcd60e51b81526004016200069e90620048bb565b60026065541415620023d45760405162461bcd60e51b81526004016200069e90620049d6565b600260655560016001600160a01b0382166000908152609b602052604090205460ff1660038111156200241757634e487b7160e01b600052602160045260246000fd5b146200248c5760405162461bcd60e51b815260206004820152603d60248201527f436f6d6d756e69747941646d696e3a3a72656d6f7665436f6d6d756e6974793a60448201527f20746869732069736e277420612076616c696420636f6d6d756e69747900000060648201526084016200069e565b6001600160a01b038181166000818152609b602052604090819020805460ff19166002179055609f5490516302498d1560e61b8152600481019290925290911690639263454090602401600060405180830381600087803b158015620024f157600080fd5b505af115801562002506573d6000803e3d6000fd5b505050506000816001600160a01b0316630d8e6e2c6040518163ffffffff1660e01b815260040160206040518083038186803b1580156200254657600080fd5b505afa1580156200255b573d6000803e3d6000fd5b505050506040513d601f19601f8201168201806040525081019062002581919062004695565b6001146200260457816001600160a01b031663fc0c546a6040518163ffffffff1660e01b815260040160206040518083038186803b158015620025c357600080fd5b505afa158015620025d8573d6000803e3d6000fd5b505050506040513d601f19601f82011682018060405250810190620025fe9190620042bb565b62002679565b816001600160a01b0316631fccf6726040518163ffffffff1660e01b815260040160206040518083038186803b1580156200263e57600080fd5b505afa15801562002653573d6000803e3d6000fd5b505050506040513d601f19601f82011682018060405250810190620026799190620042bb565b6098546040516370a0823160e01b81526001600160a01b038581166004830181905293945063beabacc8928592908216918316906370a082319060240160206040518083038186803b158015620026cf57600080fd5b505afa158015620026e4573d6000803e3d6000fd5b505050506040513d601f19601f820116820180604052508101906200270a919062004695565b6040518463ffffffff1660e01b81526004016200272a93929190620047e9565b600060405180830381600087803b1580156200274557600080fd5b505af11580156200275a573d6000803e3d6000fd5b50506040516001600160a01b03851692507fa285b77d62d36ec6881b2cbc019c53874eb061798176f3577f2beab0848d16c69150600090a250506001606555565b6033546001600160a01b0316331480620027bf5750609e546001600160a01b031633145b620027de5760405162461bcd60e51b81526004016200069e90620048bb565b6064811015620028665760405162461bcd60e51b815260206004820152604660248201527f436f6d6d756e69747941646d696e3a3a7570646174654d696e436c61696d416d60448201527f6f756e74526174696f3a20496e76616c6964206d696e436c61696d416d6f756e60648201526574526174696f60d01b608482015260a4016200069e565b60a255565b6033546001600160a01b03163314806200288f5750609e546001600160a01b031633145b620028ae5760405162461bcd60e51b81526004016200069e90620048bb565b60008a5111620029385760405162461bcd60e51b815260206004820152604860248201527f436f6d6d756e69747941646d696e3a3a616464436f6d6d756e6974793a20436f60448201527f6d6d756e6974792073686f756c642068617665206174206c65617374206f6e656064820152671036b0b730b3b2b960c11b608482015260a4016200069e565b6000620029508c8c8b8b8b8b8b8b8b8b600062003c03565b90506001600160a01b038116620029ba5760405162461bcd60e51b815260206004820152602760248201527f436f6d6d756e69747941646d696e3a3a616464436f6d6d756e6974793a204e4f6044820152661517d59053125160ca1b60648201526084016200069e565b6001600160a01b0381166000908152609b60205260409020805460ff19166001179055620029ea609c8262003cf8565b50609f54604051630b78037760e21b81526001600160a01b038c81166004830152838116602483015290911690632de00ddc90604401600060405180830381600087803b15801562002a3b57600080fd5b505af115801562002a50573d6000803e3d6000fd5b50505050806001600160a01b03167fd975f7d7350dc54e14ea0400bad2e29483d76cb8810f36f1f520d5c44c1dcf028c8b8b8b8b8b8b8b60405162002a9d9897969594939291906200479c565b60405180910390a262002ab18185620038c5565b6097546098546040516370a0823160e01b81526001600160a01b03918216600482015266b1a2bc2ec500009291909116906370a082319060240160206040518083038186803b15801562002b0457600080fd5b505afa15801562002b19573d6000803e3d6000fd5b505050506040513d601f19601f8201168201806040525081019062002b3f919062004695565b1062002be6576098546097548c516001600160a01b039283169263beabacc89216908e9060009062002b8157634e487b7160e01b600052603260045260246000fd5b602002602001015166b1a2bc2ec500006040518463ffffffff1660e01b815260040162002bb193929190620047e9565b600060405180830381600087803b15801562002bcc57600080fd5b505af115801562002be1573d6000803e3d6000fd5b505050505b505050505050505050505050565b600080826001600160a01b0316630d8e6e2c6040518163ffffffff1660e01b815260040160206040518083038186803b15801562002c3157600080fd5b505afa15801562002c46573d6000803e3d6000fd5b505050506040513d601f19601f8201168201806040525081019062002c6c919062004695565b60011462002cef57826001600160a01b031663fc0c546a6040518163ffffffff1660e01b815260040160206040518083038186803b15801562002cae57600080fd5b505afa15801562002cc3573d6000803e3d6000fd5b505050506040513d601f19601f8201168201806040525081019062002ce99190620042bb565b62002d64565b826001600160a01b0316631fccf6726040518163ffffffff1660e01b815260040160206040518083038186803b15801562002d2957600080fd5b505afa15801562002d3e573d6000803e3d6000fd5b505050506040513d601f19601f8201168201806040525081019062002d649190620042bb565b6040516370a0823160e01b81526001600160a01b0385811660048301529192506000918316906370a082319060240160206040518083038186803b15801562002dac57600080fd5b505afa15801562002dc1573d6000803e3d6000fd5b505050506040513d601f19601f8201168201806040525081019062002de7919062004695565b90506000846001600160a01b031663dd4414bb6040518163ffffffff1660e01b815260040160206040518083038186803b15801562002e2557600080fd5b505afa15801562002e3a573d6000803e3d6000fd5b505050506040513d601f19601f8201168201806040525081019062002e60919062004695565b90506000856001600160a01b0316632b2711176040518163ffffffff1660e01b815260040160206040518083038186803b15801562002e9e57600080fd5b505afa15801562002eb3573d6000803e3d6000fd5b505050506040513d601f19601f8201168201806040525081019062002ed9919062004695565b9050818310158062002fe05750856001600160a01b0316630e5b7c536040518163ffffffff1660e01b815260040160206040518083038186803b15801562002f2057600080fd5b505afa15801562002f35573d6000803e3d6000fd5b505050506040513d601f19601f8201168201806040525081019062002f5b919062004695565b866001600160a01b03166309c338c36040518163ffffffff1660e01b815260040160206040518083038186803b15801562002f9557600080fd5b505afa15801562002faa573d6000803e3d6000fd5b505050506040513d601f19601f8201168201806040525081019062002fd0919062004695565b62002fdc919062004a0d565b4311155b806200306d575060a4546098546040516370a0823160e01b81526001600160a01b039182166004820152908616906370a082319060240160206040518083038186803b1580156200303057600080fd5b505afa15801562003045573d6000803e3d6000fd5b505050506040513d601f19601f820116820180604052508101906200306b919062004695565b105b8062003077575080155b15620030895750600095945050505050565b6000866001600160a01b031663431a801a6040518163ffffffff1660e01b815260040160206040518083038186803b158015620030c557600080fd5b505afa158015620030da573d6000803e3d6000fd5b505050506040513d601f19601f8201168201806040525081019062003100919062004695565b905060006003886001600160a01b0316630d8e6e2c6040518163ffffffff1660e01b815260040160206040518083038186803b1580156200314057600080fd5b505afa15801562003155573d6000803e3d6000fd5b505050506040513d601f19601f820116820180604052508101906200317b919062004695565b1015620031fd57876001600160a01b031663830953ab6040518163ffffffff1660e01b815260040160206040518083038186803b158015620031bc57600080fd5b505afa158015620031d1573d6000803e3d6000fd5b505050506040513d601f19601f82011682018060405250810190620031f7919062004695565b62003272565b876001600160a01b031663fb7b0a0c6040518163ffffffff1660e01b815260040160206040518083038186803b1580156200323757600080fd5b505afa1580156200324c573d6000803e3d6000fd5b505050506040513d601f19601f8201168201806040525081019062003272919062004695565b9050600062003282828462004a49565b905084811015620032905750835b838111156200329c5750825b6000868211156200336957620032b3878362004a6b565b60a3546098546040516370a0823160e01b81526001600160a01b039182166004820152929350600092606492918c16906370a082319060240160206040518083038186803b1580156200330557600080fd5b505afa1580156200331a573d6000803e3d6000fd5b505050506040513d601f19601f8201168201806040525081019062003340919062004695565b6200334c919062004a49565b62003358919062004a28565b90508082111562003367578091505b505b9998505050505050505050565b6033546001600160a01b03163314620033a35760405162461bcd60e51b81526004016200069e906200490b565b60026065541415620033c95760405162461bcd60e51b81526004016200069e90620049d6565b6002606555620033e46001600160a01b038416838362003de1565b816001600160a01b0316836001600160a01b03167f9b035625e569d1d2bf54830a290aefba7ab11610ba8490871dc62b86b63a8956836040516200342a91815260200190565b60405180910390a35050600160655550565b6033546001600160a01b0316331480620034605750609e546001600160a01b031633145b6200347f5760405162461bcd60e51b81526004016200069e90620048bb565b60a455565b6033546001600160a01b0316331480620034a85750609e546001600160a01b031633145b620034c75760405162461bcd60e51b81526004016200069e90620048bb565b600081118015620034d85750606581105b620035655760405162461bcd60e51b815260206004820152605060248201527f436f6d6d756e69747941646d696e3a3a7570646174655472656173757279536160448201527f6665747950657263656e746167653a20496e76616c696420747265617375727960648201526f53616665747950657263656e7461676560801b608482015260a4016200069e565b60a355565b6033546001600160a01b03163314620035975760405162461bcd60e51b81526004016200069e906200490b565b609e546040516001600160a01b038084169216907feb64427276ab0ae1551ebf3002b4c3b44251a38b60c5d25daa1dad4e05876cc490600090a3609e80546001600160a01b0319166001600160a01b0392909216919091179055565b6033546001600160a01b03163314620036205760405162461bcd60e51b81526004016200069e906200490b565b6099546040516001600160a01b038084169216907f0c6ac7336660be2921bd3e55b4c1013a87f9910af2d753f099453a0ea160915a90600090a3609980546001600160a01b0319166001600160a01b0392909216919091179055565b60006200368a609c62003e35565b905090565b6033546001600160a01b0316331480620036b35750609e546001600160a01b031633145b620036d25760405162461bcd60e51b81526004016200069e90620048bb565b604051631bc1ca3560e11b81526001600160a01b03891690633783946a906200370c908a908a908a908a908a908a908a906004016200480d565b600060405180830381600087803b1580156200372757600080fd5b505af115801562002be6573d6000803e3d6000fd5b6033546001600160a01b03163314620037695760405162461bcd60e51b81526004016200069e906200490b565b6001600160a01b038116620037d05760405162461bcd60e51b815260206004820152602660248201527f4f776e61626c653a206e6577206f776e657220697320746865207a65726f206160448201526564647265737360d01b60648201526084016200069e565b620037db8162003d8f565b50565b6033546001600160a01b0316331480620038025750609e546001600160a01b031633145b620038215760405162461bcd60e51b81526004016200069e90620048bb565b60a180546001600160a01b0319166001600160a01b0392909216919091179055565b609a546040516310270e3d60e11b81526001600160a01b038381166004830152600092169063204e1c7a9060240160206040518083038186803b1580156200388a57600080fd5b505afa1580156200389f573d6000803e3d6000fd5b505050506040513d601f19601f82011682018060405250810190620013c69190620042bb565b60026065541415620038eb5760405162461bcd60e51b81526004016200069e90620049d6565b60026065819055506000826001600160a01b0316630d8e6e2c6040518163ffffffff1660e01b815260040160206040518083038186803b1580156200392f57600080fd5b505afa15801562003944573d6000803e3d6000fd5b505050506040513d601f19601f820116820180604052508101906200396a919062004695565b600114620039ed57826001600160a01b031663fc0c546a6040518163ffffffff1660e01b815260040160206040518083038186803b158015620039ac57600080fd5b505afa158015620039c1573d6000803e3d6000fd5b505050506040513d601f19601f82011682018060405250810190620039e79190620042bb565b62003a62565b826001600160a01b0316631fccf6726040518163ffffffff1660e01b815260040160206040518083038186803b15801562003a2757600080fd5b505afa15801562003a3c573d6000803e3d6000fd5b505050506040513d601f19601f8201168201806040525081019062003a629190620042bb565b6098546040516370a0823160e01b81526001600160a01b0391821660048201529192508391908316906370a082319060240160206040518083038186803b15801562003aad57600080fd5b505afa15801562003ac2573d6000803e3d6000fd5b505050506040513d601f19601f8201168201806040525081019062003ae8919062004695565b1062003bf9576098546040516317d5759960e31b81526001600160a01b039091169063beabacc89062003b2490849087908790600401620047e9565b600060405180830381600087803b15801562003b3f57600080fd5b505af115801562003b54573d6000803e3d6000fd5b5050604051635c04f74160e11b8152600481018590526001600160a01b038616925063b809ee829150602401600060405180830381600087803b15801562003b9b57600080fd5b505af115801562003bb0573d6000803e3d6000fd5b50505050826001600160a01b03167f1e951788684f9b9e5c219261ce05daaa0f58ead974c796e6311b1da4c8657af18360405162003bf091815260200190565b60405180910390a25b5050600160655550565b60a054609a5460405160009283926001600160a01b039182169291169062003c2b90620041cb565b6001600160a01b03928316815291166020820152606060408201819052600090820152608001604051809103906000f08015801562003c6e573d6000803e3d6000fd5b509050806001600160a01b0316630b4e78178e8e8e8e8e8e8e8e8e8e8e6040518c63ffffffff1660e01b815260040162003cb39b9a9998979695949392919062004711565b600060405180830381600087803b15801562003cce57600080fd5b505af115801562003ce3573d6000803e3d6000fd5b50929f9e505050505050505050505050505050565b60006200185e836001600160a01b03841662003e40565b60006200185e838362003e92565b600054610100900460ff1662003d475760405162461bcd60e51b81526004016200069e906200498b565b62003d5162003ecb565b6200189e62003ef5565b600054610100900460ff1662003d855760405162461bcd60e51b81526004016200069e906200498b565b6200189e62003f2a565b603380546001600160a01b038381166001600160a01b0319831681179093556040519116919082907f8be0079c531659141344cd1fd0a4f28419497f9722a3daafe3b4186f6b6457e090600090a35050565b604080516001600160a01b038416602482015260448082018490528251808303909101815260649091019091526020810180516001600160e01b031663a9059cbb60e01b1790526200159690849062003f5b565b6000620013c6825490565b600081815260018301602052604081205462003e8957508154600181810184556000848152602080822090930184905584548482528286019093526040902091909155620013c6565b506000620013c6565b600082600001828154811062003eb857634e487b7160e01b600052603260045260246000fd5b9060005260206000200154905092915050565b600054610100900460ff166200189e5760405162461bcd60e51b81526004016200069e906200498b565b600054610100900460ff1662003f1f5760405162461bcd60e51b81526004016200069e906200498b565b6200189e3362003d8f565b600054610100900460ff1662003f545760405162461bcd60e51b81526004016200069e906200498b565b6001606555565b600062003fb2826040518060400160405280602081526020017f5361666545524332303a206c6f772d6c6576656c2063616c6c206661696c6564815250856001600160a01b0316620040349092919063ffffffff16565b80519091501562001596578080602001905181019062003fd3919062004428565b620015965760405162461bcd60e51b815260206004820152602a60248201527f5361666545524332303a204552433230206f7065726174696f6e20646964206e6044820152691bdd081cdd58d8d9595960b21b60648201526084016200069e565b60606200404584846000856200404d565b949350505050565b606082471015620040b05760405162461bcd60e51b815260206004820152602660248201527f416464726573733a20696e73756666696369656e742062616c616e636520666f6044820152651c8818d85b1b60d21b60648201526084016200069e565b843b620041005760405162461bcd60e51b815260206004820152601d60248201527f416464726573733a2063616c6c20746f206e6f6e2d636f6e747261637400000060448201526064016200069e565b600080866001600160a01b031685876040516200411e9190620046f3565b60006040518083038185875af1925050503d80600081146200415d576040519150601f19603f3d011682016040523d82523d6000602084013e62004162565b606091505b5091509150620041748282866200417f565b979650505050505050565b60608315620041905750816200185e565b825115620041a15782518084602001fd5b8160405162461bcd60e51b81526004016200069e919062004886565b6107978062004b1183390190565b610f2f80620052a883390190565b8035620041e68162004afa565b919050565b600082601f830112620041fc578081fd5b8135602067ffffffffffffffff808311156200421c576200421c62004ae4565b8260051b604051601f19603f8301168101818110848211171562004244576200424462004ae4565b6040528481528381019250868401828801850189101562004263578687fd5b8692505b8583101562004290576200427b81620041d9565b84529284019260019290920191840162004267565b50979650505050505050565b600060208284031215620042ae578081fd5b81356200185e8162004afa565b600060208284031215620042cd578081fd5b81516200185e8162004afa565b60008060408385031215620042ed578081fd5b8235620042fa8162004afa565b915060208301356200430c8162004afa565b809150509250929050565b60008060008060008060008060008060006101608c8e03121562004339578687fd5b8b35620043468162004afa565b9a5060208c013567ffffffffffffffff81111562004362578788fd5b620043708e828f01620041eb565b9a505060408c0135620043838162004afa565b9a9d999c50999a60608101359a5060808101359960a0820135995060c0820135985060e0820135975061010082013596506101208201359550610140909101359350915050565b60008060408385031215620042ed578182fd5b60008060408385031215620043f0578182fd5b823567ffffffffffffffff81111562004407578283fd5b6200441585828601620041eb565b92505060208301356200430c8162004afa565b6000602082840312156200443a578081fd5b815180151581146200185e578182fd5b6000806000806080858703121562004460578384fd5b84356200446d8162004afa565b935060208501356200447f8162004afa565b92506040850135620044918162004afa565b9396929550929360600135925050565b600080600080600080600080610100898b031215620044be578182fd5b8835620044cb8162004afa565b97506020890135620044dd8162004afa565b9650604089013567ffffffffffffffff811115620044f9578283fd5b620045078b828c01620041eb565b989b979a5097986060810135985060808101359760a0820135975060c0820135965060e090910135945092505050565b600080600080608085870312156200454d578182fd5b84356200455a8162004afa565b9350602085013592506040850135620045738162004afa565b9150606085013567ffffffffffffffff8111156200458f578182fd5b6200459d87828801620041eb565b91505092959194509250565b600080600060608486031215620045be578081fd5b8335620045cb8162004afa565b95602085013595506040909401359392505050565b600080600080600080600060e0888a031215620045fb578081fd5b8735620046088162004afa565b9960208901359950604089013598606081013598506080810135975060a0810135965060c00135945092505050565b6000806000606084860312156200464c578081fd5b8335620046598162004afa565b925060208401356200466b8162004afa565b929592945050506040919091013590565b6000602082840312156200468e578081fd5b5035919050565b600060208284031215620046a7578081fd5b5051919050565b6000815180845260208085019450808401835b83811015620046e85781516001600160a01b031687529582019590820190600101620046c1565b509495945050505050565b600082516200470781846020870162004a85565b9190910192915050565b6001600160a01b038c8116825261016060208301819052600091620047398483018f620046ae565b604085019d909d52606084019b909b525050608081019790975260a087019590955260c086019390935260e08501919091526101008401526101208301529091166101409091015292915050565b6020815260006200185e6020830184620046ae565b6000610100808352620047b28184018c620046ae565b602084019a909a52505060408101969096526060860194909452608085019290925260a084015260c083015260e090910152919050565b6001600160a01b039384168152919092166020820152604081019190915260600190565b6001600160a01b038816815260e0602082018190526000906200483390830189620046ae565b6040830197909752506060810194909452608084019290925260a083015260c09091015292915050565b60208101600483106200488057634e487b7160e01b600052602160045260246000fd5b91905290565b6020815260008251806020840152620048a781604085016020870162004a85565b601f01601f19169190910160400192915050565b60208082526030908201527f436f6d6d756e69747941646d696e3a204e6f74204f776e6572204f7220496d7060408201526f1858dd13585c9ad95d10dbdd5b98da5b60821b606082015260800190565b6020808252818101527f4f776e61626c653a2063616c6c6572206973206e6f7420746865206f776e6572604082015260600190565b6020808252602b908201527f436f6d6d756e69747941646d696e3a3a6d696772617465436f6d6d756e69747960408201526a0e881393d517d59053125160aa1b606082015260800190565b6020808252602b908201527f496e697469616c697a61626c653a20636f6e7472616374206973206e6f74206960408201526a6e697469616c697a696e6760a81b606082015260800190565b6020808252601f908201527f5265656e7472616e637947756172643a207265656e7472616e742063616c6c00604082015260600190565b6000821982111562004a235762004a2362004ace565b500190565b60008262004a4457634e487b7160e01b81526012600452602481fd5b500490565b600081600019048311821515161562004a665762004a6662004ace565b500290565b60008282101562004a805762004a8062004ace565b500390565b60005b8381101562004aa257818101518382015260200162004a88565b8381111562000a205750506000910152565b60008162004ac65762004ac662004ace565b506000190190565b634e487b7160e01b600052601160045260246000fd5b634e487b7160e01b600052604160045260246000fd5b6001600160a01b0381168114620037db57600080fdfe608060405234801561001057600080fd5b5061001a3361001f565b61006f565b600080546001600160a01b038381166001600160a01b0319831681178455604051919092169283917f8be0079c531659141344cd1fd0a4f28419497f9722a3daafe3b4186f6b6457e09190a35050565b6107198061007e6000396000f3fe60806040526004361061007b5760003560e01c80639623609d1161004e5780639623609d1461011157806399a88ec414610124578063f2fde38b14610144578063f3b7dead1461016457600080fd5b8063204e1c7a14610080578063715018a6146100bc5780637eff275e146100d35780638da5cb5b146100f3575b600080fd5b34801561008c57600080fd5b506100a061009b3660046104d8565b610184565b6040516001600160a01b03909116815260200160405180910390f35b3480156100c857600080fd5b506100d1610215565b005b3480156100df57600080fd5b506100d16100ee366004610517565b610254565b3480156100ff57600080fd5b506000546001600160a01b03166100a0565b6100d161011f36600461054f565b6102de565b34801561013057600080fd5b506100d161013f366004610517565b61036f565b34801561015057600080fd5b506100d161015f3660046104d8565b6103c7565b34801561017057600080fd5b506100a061017f3660046104d8565b610462565b6000806000836001600160a01b03166040516101aa90635c60da1b60e01b815260040190565b600060405180830381855afa9150503d80600081146101e5576040519150601f19603f3d011682016040523d82523d6000602084013e6101ea565b606091505b5091509150816101f957600080fd5b8080602001905181019061020d91906104fb565b949350505050565b6000546001600160a01b031633146102485760405162461bcd60e51b815260040161023f90610683565b60405180910390fd5b6102526000610488565b565b6000546001600160a01b0316331461027e5760405162461bcd60e51b815260040161023f90610683565b6040516308f2839760e41b81526001600160a01b038281166004830152831690638f283970906024015b600060405180830381600087803b1580156102c257600080fd5b505af11580156102d6573d6000803e3d6000fd5b505050505050565b6000546001600160a01b031633146103085760405162461bcd60e51b815260040161023f90610683565b60405163278f794360e11b81526001600160a01b03841690634f1ef2869034906103389086908690600401610620565b6000604051808303818588803b15801561035157600080fd5b505af1158015610365573d6000803e3d6000fd5b5050505050505050565b6000546001600160a01b031633146103995760405162461bcd60e51b815260040161023f90610683565b604051631b2ce7f360e11b81526001600160a01b038281166004830152831690633659cfe6906024016102a8565b6000546001600160a01b031633146103f15760405162461bcd60e51b815260040161023f90610683565b6001600160a01b0381166104565760405162461bcd60e51b815260206004820152602660248201527f4f776e61626c653a206e6577206f776e657220697320746865207a65726f206160448201526564647265737360d01b606482015260840161023f565b61045f81610488565b50565b6000806000836001600160a01b03166040516101aa906303e1469160e61b815260040190565b600080546001600160a01b038381166001600160a01b0319831681178455604051919092169283917f8be0079c531659141344cd1fd0a4f28419497f9722a3daafe3b4186f6b6457e09190a35050565b6000602082840312156104e9578081fd5b81356104f4816106ce565b9392505050565b60006020828403121561050c578081fd5b81516104f4816106ce565b60008060408385031215610529578081fd5b8235610534816106ce565b91506020830135610544816106ce565b809150509250929050565b600080600060608486031215610563578081fd5b833561056e816106ce565b9250602084013561057e816106ce565b9150604084013567ffffffffffffffff8082111561059a578283fd5b818601915086601f8301126105ad578283fd5b8135818111156105bf576105bf6106b8565b604051601f8201601f19908116603f011681019083821181831017156105e7576105e76106b8565b816040528281528960208487010111156105ff578586fd5b82602086016020830137856020848301015280955050505050509250925092565b60018060a01b0383168152600060206040818401528351806040850152825b8181101561065b5785810183015185820160600152820161063f565b8181111561066c5783606083870101525b50601f01601f191692909201606001949350505050565b6020808252818101527f4f776e61626c653a2063616c6c6572206973206e6f7420746865206f776e6572604082015260600190565b634e487b7160e01b600052604160045260246000fd5b6001600160a01b038116811461045f57600080fdfea2646970667358221220e38caf5ca305d28cfea5924808a41fd6f9ab62ed165ed1becf8858d95ea882a264736f6c63430008040033608060405260405162000f2f38038062000f2f8339810160408190526200002691620004da565b82816200005560017f360894a13ba1a3210667c828492db98dca3e2076cc3735a920a3ca505d382bbd62000609565b60008051602062000ee8833981519152146200008157634e487b7160e01b600052600160045260246000fd5b6200008f82826000620000ff565b50620000bf905060017fb53127684a568b3173ae13b9f8a6016e243e63b6e8ee1178d6a717850b5d610462000609565b60008051602062000ec883398151915214620000eb57634e487b7160e01b600052600160045260246000fd5b620000f6826200013c565b50505062000672565b6200010a8362000197565b600082511180620001185750805b156200013757620001358383620001d960201b620002601760201c565b505b505050565b7f7e644d79422f17c01e4894b5f4f588d331ebfa28653d42ae832dc59e38c9798f6200016762000208565b604080516001600160a01b03928316815291841660208301520160405180910390a1620001948162000241565b50565b620001a281620002f6565b6040516001600160a01b038216907fbc7cd75a20ee27fd9adebab32041f755214dbc6bffa90cc0225b39da2e5c2d3b90600090a250565b606062000201838360405180606001604052806027815260200162000f086027913962000399565b9392505050565b60006200023260008051602062000ec883398151915260001b6200047660201b620002081760201c565b546001600160a01b0316919050565b6001600160a01b038116620002ac5760405162461bcd60e51b815260206004820152602660248201527f455243313936373a206e65772061646d696e20697320746865207a65726f206160448201526564647265737360d01b60648201526084015b60405180910390fd5b80620002d560008051602062000ec883398151915260001b6200047660201b620002081760201c565b80546001600160a01b0319166001600160a01b039290921691909117905550565b6200030c816200047960201b6200028c1760201c565b620003705760405162461bcd60e51b815260206004820152602d60248201527f455243313936373a206e657720696d706c656d656e746174696f6e206973206e60448201526c1bdd08184818dbdb9d1c9858dd609a1b6064820152608401620002a3565b80620002d560008051602062000ee883398151915260001b6200047660201b620002081760201c565b6060833b620003fa5760405162461bcd60e51b815260206004820152602660248201527f416464726573733a2064656c65676174652063616c6c20746f206e6f6e2d636f6044820152651b9d1c9858dd60d21b6064820152608401620002a3565b600080856001600160a01b031685604051620004179190620005b6565b600060405180830381855af49150503d806000811462000454576040519150601f19603f3d011682016040523d82523d6000602084013e62000459565b606091505b5090925090506200046c8282866200047f565b9695505050505050565b90565b3b151590565b606083156200049057508162000201565b825115620004a15782518084602001fd5b8160405162461bcd60e51b8152600401620002a39190620005d4565b80516001600160a01b0381168114620004d557600080fd5b919050565b600080600060608486031215620004ef578283fd5b620004fa84620004bd565b92506200050a60208501620004bd565b60408501519092506001600160401b038082111562000527578283fd5b818601915086601f8301126200053b578283fd5b8151818111156200055057620005506200065c565b604051601f8201601f19908116603f011681019083821181831017156200057b576200057b6200065c565b8160405282815289602084870101111562000594578586fd5b620005a78360208301602088016200062d565b80955050505050509250925092565b60008251620005ca8184602087016200062d565b9190910192915050565b6020815260008251806020840152620005f58160408501602087016200062d565b601f01601f19169190910160400192915050565b6000828210156200062857634e487b7160e01b81526011600452602481fd5b500390565b60005b838110156200064a57818101518382015260200162000630565b83811115620001355750506000910152565b634e487b7160e01b600052604160045260246000fd5b61084680620006826000396000f3fe60806040526004361061004e5760003560e01c80633659cfe6146100655780634f1ef286146100855780635c60da1b146100985780638f283970146100c9578063f851a440146100e95761005d565b3661005d5761005b6100fe565b005b61005b6100fe565b34801561007157600080fd5b5061005b6100803660046106d6565b610118565b61005b6100933660046106f0565b61015f565b3480156100a457600080fd5b506100ad6101d0565b6040516001600160a01b03909116815260200160405180910390f35b3480156100d557600080fd5b5061005b6100e43660046106d6565b61020b565b3480156100f557600080fd5b506100ad610235565b610106610292565b610116610111610331565b61033b565b565b61012061035f565b6001600160a01b0316336001600160a01b031614156101575761015481604051806020016040528060008152506000610392565b50565b6101546100fe565b61016761035f565b6001600160a01b0316336001600160a01b031614156101c8576101c38383838080601f01602080910402602001604051908101604052809392919081815260200183838082843760009201919091525060019250610392915050565b505050565b6101c36100fe565b60006101da61035f565b6001600160a01b0316336001600160a01b03161415610200576101fb610331565b905090565b6102086100fe565b90565b61021361035f565b6001600160a01b0316336001600160a01b0316141561015757610154816103bd565b600061023f61035f565b6001600160a01b0316336001600160a01b03161415610200576101fb61035f565b606061028583836040518060600160405280602781526020016107ea60279139610411565b9392505050565b3b151590565b61029a61035f565b6001600160a01b0316336001600160a01b031614156101165760405162461bcd60e51b815260206004820152604260248201527f5472616e73706172656e745570677261646561626c6550726f78793a2061646d60448201527f696e2063616e6e6f742066616c6c6261636b20746f2070726f78792074617267606482015261195d60f21b608482015260a4015b60405180910390fd5b60006101fb6104e5565b3660008037600080366000845af43d6000803e80801561035a573d6000f35b3d6000fd5b60007fb53127684a568b3173ae13b9f8a6016e243e63b6e8ee1178d6a717850b5d61035b546001600160a01b0316919050565b61039b8361050d565b6000825111806103a85750805b156101c3576103b78383610260565b50505050565b7f7e644d79422f17c01e4894b5f4f588d331ebfa28653d42ae832dc59e38c9798f6103e661035f565b604080516001600160a01b03928316815291841660208301520160405180910390a16101548161054d565b6060833b6104705760405162461bcd60e51b815260206004820152602660248201527f416464726573733a2064656c65676174652063616c6c20746f206e6f6e2d636f6044820152651b9d1c9858dd60d21b6064820152608401610328565b600080856001600160a01b03168560405161048b919061076e565b600060405180830381855af49150503d80600081146104c6576040519150601f19603f3d011682016040523d82523d6000602084013e6104cb565b606091505b50915091506104db8282866105f6565b9695505050505050565b60007f360894a13ba1a3210667c828492db98dca3e2076cc3735a920a3ca505d382bbc610383565b6105168161062f565b6040516001600160a01b038216907fbc7cd75a20ee27fd9adebab32041f755214dbc6bffa90cc0225b39da2e5c2d3b90600090a250565b6001600160a01b0381166105b25760405162461bcd60e51b815260206004820152602660248201527f455243313936373a206e65772061646d696e20697320746865207a65726f206160448201526564647265737360d01b6064820152608401610328565b807fb53127684a568b3173ae13b9f8a6016e243e63b6e8ee1178d6a717850b5d61035b80546001600160a01b0319166001600160a01b039290921691909117905550565b60608315610605575081610285565b8251156106155782518084602001fd5b8160405162461bcd60e51b8152600401610328919061078a565b803b6106935760405162461bcd60e51b815260206004820152602d60248201527f455243313936373a206e657720696d706c656d656e746174696f6e206973206e60448201526c1bdd08184818dbdb9d1c9858dd609a1b6064820152608401610328565b807f360894a13ba1a3210667c828492db98dca3e2076cc3735a920a3ca505d382bbc6105d5565b80356001600160a01b03811681146106d157600080fd5b919050565b6000602082840312156106e7578081fd5b610285826106ba565b600080600060408486031215610704578182fd5b61070d846106ba565b9250602084013567ffffffffffffffff80821115610729578384fd5b818601915086601f83011261073c578384fd5b81358181111561074a578485fd5b87602082850101111561075b578485fd5b6020830194508093505050509250925092565b600082516107808184602087016107bd565b9190910192915050565b60208152600082518060208401526107a98160408501602087016107bd565b601f01601f19169190910160400192915050565b60005b838110156107d85781810151838201526020016107c0565b838111156103b7575050600091015256fe416464726573733a206c6f772d6c6576656c2064656c65676174652063616c6c206661696c6564a2646970667358221220675814b80ddcb309746b9826ddefd683cc86b7ea3c0b94e9b1325c4b1e1cb1a764736f6c63430008040033b53127684a568b3173ae13b9f8a6016e243e63b6e8ee1178d6a717850b5d6103360894a13ba1a3210667c828492db98dca3e2076cc3735a920a3ca505d382bbc416464726573733a206c6f772d6c6576656c2064656c65676174652063616c6c206661696c6564a26469706673582212201564a5754a4c38d244ab7d2aca58e223438fac5db6cc6b73f8d7274db9b2d01064736f6c63430008040033",
  "linkReferences": {},
  "deployedLinkReferences": {}
}