{
  "_format": "hh-sol-artifact-1",
  "contractName": "CommunityImplementation",
  "sourceName": "contracts/community/CommunityImplementation.sol",
  "abi": [
    {
      "anonymous": false,
      "inputs": [
        {
          "indexed": true,
          "internalType": "address",
          "name": "manager",
          "type": "address"
        },
        {
          "indexed": true,
          "internalType": "address",
          "name": "beneficiary",
          "type": "address"
        }
      ],
      "name": "BeneficiaryAdded",
      "type": "event"
    },
    {
      "anonymous": false,
      "inputs": [
        {
          "indexed": true,
          "internalType": "address",
          "name": "beneficiary1",
          "type": "address"
        },
        {
          "indexed": true,
          "internalType": "address",
          "name": "beneficiary2",
          "type": "address"
        }
      ],
      "name": "BeneficiaryAddressChanged",
      "type": "event"
    },
    {
      "anonymous": false,
      "inputs": [
        {
          "indexed": true,
          "internalType": "address",
          "name": "beneficiary",
          "type": "address"
        },
        {
          "indexed": false,
          "internalType": "uint256",
          "name": "amount",
          "type": "uint256"
        }
      ],
      "name": "BeneficiaryClaim",
      "type": "event"
    },
    {
      "anonymous": false,
      "inputs": [
        {
          "indexed": true,
          "internalType": "address",
          "name": "manager",
          "type": "address"
        },
        {
          "indexed": true,
          "internalType": "address",
          "name": "beneficiary",
          "type": "address"
        }
      ],
      "name": "BeneficiaryCopied",
      "type": "event"
    },
    {
      "anonymous": false,
      "inputs": [
        {
          "indexed": true,
          "internalType": "address",
          "name": "beneficiary",
          "type": "address"
        }
      ],
      "name": "BeneficiaryJoined",
      "type": "event"
    },
    {
      "anonymous": false,
      "inputs": [
        {
          "indexed": true,
          "internalType": "address",
          "name": "manager",
          "type": "address"
        },
        {
          "indexed": true,
          "internalType": "address",
          "name": "beneficiary",
          "type": "address"
        }
      ],
      "name": "BeneficiaryLocked",
      "type": "event"
    },
    {
      "anonymous": false,
      "inputs": [
        {
          "indexed": false,
          "internalType": "uint256",
          "name": "oldOriginalClaimAmount",
          "type": "uint256"
        },
        {
          "indexed": false,
          "internalType": "uint256",
          "name": "oldMaxTotalClaim",
          "type": "uint256"
        },
        {
          "indexed": false,
          "internalType": "uint256",
          "name": "oldDecreaseStep",
          "type": "uint256"
        },
        {
          "indexed": false,
          "internalType": "uint256",
          "name": "oldBaseInterval",
          "type": "uint256"
        },
        {
          "indexed": false,
          "internalType": "uint256",
          "name": "oldIncrementInterval",
          "type": "uint256"
        },
        {
          "indexed": false,
          "internalType": "uint256",
          "name": "newOriginalClaimAmount",
          "type": "uint256"
        },
        {
          "indexed": false,
          "internalType": "uint256",
          "name": "newMaxTotalClaim",
          "type": "uint256"
        },
        {
          "indexed": false,
          "internalType": "uint256",
          "name": "newDecreaseStep",
          "type": "uint256"
        },
        {
          "indexed": false,
          "internalType": "uint256",
          "name": "newBaseInterval",
          "type": "uint256"
        },
        {
          "indexed": false,
          "internalType": "uint256",
          "name": "newIncrementInterval",
          "type": "uint256"
        }
      ],
      "name": "BeneficiaryParamsUpdated",
      "type": "event"
    },
    {
      "anonymous": false,
      "inputs": [
        {
          "indexed": true,
          "internalType": "address",
          "name": "manager",
          "type": "address"
        },
        {
          "indexed": true,
          "internalType": "address",
          "name": "beneficiary",
          "type": "address"
        }
      ],
      "name": "BeneficiaryRemoved",
      "type": "event"
    },
    {
      "anonymous": false,
      "inputs": [
        {
          "indexed": true,
          "internalType": "address",
          "name": "manager",
          "type": "address"
        },
        {
          "indexed": true,
          "internalType": "address",
          "name": "beneficiary",
          "type": "address"
        }
      ],
      "name": "BeneficiaryUnlocked",
      "type": "event"
    },
    {
      "anonymous": false,
      "inputs": [
        {
          "indexed": false,
          "internalType": "uint256",
          "name": "oldClaimAmount",
          "type": "uint256"
        },
        {
          "indexed": false,
          "internalType": "uint256",
          "name": "newClaimAmount",
          "type": "uint256"
        }
      ],
      "name": "ClaimAmountUpdated",
      "type": "event"
    },
    {
      "anonymous": false,
      "inputs": [
        {
          "indexed": true,
          "internalType": "address",
          "name": "oldCommunityAdmin",
          "type": "address"
        },
        {
          "indexed": true,
          "internalType": "address",
          "name": "newCommunityAdmin",
          "type": "address"
        }
      ],
      "name": "CommunityAdminUpdated",
      "type": "event"
    },
    {
      "anonymous": false,
      "inputs": [
        {
          "indexed": true,
          "internalType": "address",
          "name": "manager",
          "type": "address"
        }
      ],
      "name": "CommunityLocked",
      "type": "event"
    },
    {
      "anonymous": false,
      "inputs": [
        {
          "indexed": false,
          "internalType": "uint256",
          "name": "oldMinTranche",
          "type": "uint256"
        },
        {
          "indexed": false,
          "internalType": "uint256",
          "name": "oldMaxTranche",
          "type": "uint256"
        },
        {
          "indexed": false,
          "internalType": "uint256",
          "name": "newMinTranche",
          "type": "uint256"
        },
        {
          "indexed": false,
          "internalType": "uint256",
          "name": "newMaxTranche",
          "type": "uint256"
        }
      ],
      "name": "CommunityParamsUpdated",
      "type": "event"
    },
    {
      "anonymous": false,
      "inputs": [
        {
          "indexed": true,
          "internalType": "address",
          "name": "manager",
          "type": "address"
        }
      ],
      "name": "CommunityUnlocked",
      "type": "event"
    },
    {
      "anonymous": false,
      "inputs": [
        {
          "indexed": true,
          "internalType": "address",
          "name": "donor",
          "type": "address"
        },
        {
          "indexed": false,
          "internalType": "uint256",
          "name": "amount",
          "type": "uint256"
        }
      ],
      "name": "Donate",
      "type": "event"
    },
    {
      "anonymous": false,
      "inputs": [
        {
          "indexed": true,
          "internalType": "address",
          "name": "manager",
          "type": "address"
        }
      ],
      "name": "FundsRequested",
      "type": "event"
    },
    {
      "anonymous": false,
      "inputs": [
        {
          "indexed": true,
          "internalType": "address",
          "name": "manager",
          "type": "address"
        },
        {
          "indexed": true,
          "internalType": "address",
          "name": "account",
          "type": "address"
        }
      ],
      "name": "ManagerAdded",
      "type": "event"
    },
    {
      "anonymous": false,
      "inputs": [
        {
          "indexed": true,
          "internalType": "address",
          "name": "manager",
          "type": "address"
        },
        {
          "indexed": true,
          "internalType": "address",
          "name": "account",
          "type": "address"
        }
      ],
      "name": "ManagerRemoved",
      "type": "event"
    },
    {
      "anonymous": false,
      "inputs": [
        {
          "indexed": false,
          "internalType": "uint256",
          "name": "oldMaxBeneficiaries",
          "type": "uint256"
        },
        {
          "indexed": false,
          "internalType": "uint256",
          "name": "newMaxBeneficiaries",
          "type": "uint256"
        }
      ],
      "name": "MaxBeneficiariesUpdated",
      "type": "event"
    },
    {
      "anonymous": false,
      "inputs": [
        {
          "indexed": true,
          "internalType": "address",
          "name": "previousOwner",
          "type": "address"
        },
        {
          "indexed": true,
          "internalType": "address",
          "name": "newOwner",
          "type": "address"
        }
      ],
      "name": "OwnershipTransferred",
      "type": "event"
    },
    {
      "anonymous": false,
      "inputs": [
        {
          "indexed": true,
          "internalType": "address",
          "name": "oldPreviousCommunity",
          "type": "address"
        },
        {
          "indexed": true,
          "internalType": "address",
          "name": "newPreviousCommunity",
          "type": "address"
        }
      ],
      "name": "PreviousCommunityUpdated",
      "type": "event"
    },
    {
      "anonymous": false,
      "inputs": [
        {
          "indexed": true,
          "internalType": "bytes32",
          "name": "role",
          "type": "bytes32"
        },
        {
          "indexed": true,
          "internalType": "bytes32",
          "name": "previousAdminRole",
          "type": "bytes32"
        },
        {
          "indexed": true,
          "internalType": "bytes32",
          "name": "newAdminRole",
          "type": "bytes32"
        }
      ],
      "name": "RoleAdminChanged",
      "type": "event"
    },
    {
      "anonymous": false,
      "inputs": [
        {
          "indexed": true,
          "internalType": "bytes32",
          "name": "role",
          "type": "bytes32"
        },
        {
          "indexed": true,
          "internalType": "address",
          "name": "account",
          "type": "address"
        },
        {
          "indexed": true,
          "internalType": "address",
          "name": "sender",
          "type": "address"
        }
      ],
      "name": "RoleGranted",
      "type": "event"
    },
    {
      "anonymous": false,
      "inputs": [
        {
          "indexed": true,
          "internalType": "bytes32",
          "name": "role",
          "type": "bytes32"
        },
        {
          "indexed": true,
          "internalType": "address",
          "name": "account",
          "type": "address"
        },
        {
          "indexed": true,
          "internalType": "address",
          "name": "sender",
          "type": "address"
        }
      ],
      "name": "RoleRevoked",
      "type": "event"
    },
    {
      "anonymous": false,
      "inputs": [
        {
          "indexed": true,
          "internalType": "address",
          "name": "oldTokenAddress",
          "type": "address"
        },
        {
          "indexed": true,
          "internalType": "address",
          "name": "newTokenAddress",
          "type": "address"
        }
      ],
      "name": "TokenUpdated",
      "type": "event"
    },
    {
      "anonymous": false,
      "inputs": [
        {
          "indexed": true,
          "internalType": "address",
          "name": "token",
          "type": "address"
        },
        {
          "indexed": true,
          "internalType": "address",
          "name": "to",
          "type": "address"
        },
        {
          "indexed": false,
          "internalType": "uint256",
          "name": "amount",
          "type": "uint256"
        }
      ],
      "name": "TransferERC20",
      "type": "event"
    },
    {
      "inputs": [],
      "name": "DEFAULT_ADMIN_ROLE",
      "outputs": [
        {
          "internalType": "bytes32",
          "name": "",
          "type": "bytes32"
        }
      ],
      "stateMutability": "view",
      "type": "function"
    },
    {
      "inputs": [],
      "name": "_token",
      "outputs": [
        {
          "internalType": "contract IERC20Upgradeable",
          "name": "",
          "type": "address"
        }
      ],
      "stateMutability": "view",
      "type": "function"
    },
    {
      "inputs": [
        {
          "internalType": "address[]",
          "name": "_beneficiaryAddresses",
          "type": "address[]"
        }
      ],
      "name": "addBeneficiaries",
      "outputs": [],
      "stateMutability": "nonpayable",
      "type": "function"
    },
    {
      "inputs": [
        {
          "internalType": "address[]",
          "name": "_beneficiaryAddresses",
          "type": "address[]"
        },
        {
          "internalType": "uint256",
          "name": "_expirationTimestamp",
          "type": "uint256"
        },
        {
          "internalType": "bytes",
          "name": "_signature",
          "type": "bytes"
        }
      ],
      "name": "addBeneficiariesUsingSignature",
      "outputs": [],
      "stateMutability": "nonpayable",
      "type": "function"
    },
    {
      "inputs": [
        {
          "internalType": "address",
          "name": "_beneficiaryAddress",
          "type": "address"
        }
      ],
      "name": "addBeneficiary",
      "outputs": [],
      "stateMutability": "nonpayable",
      "type": "function"
    },
    {
      "inputs": [
        {
          "internalType": "contract ICommunity",
          "name": "_copy",
          "type": "address"
        }
      ],
      "name": "addCopy",
      "outputs": [],
      "stateMutability": "nonpayable",
      "type": "function"
    },
    {
      "inputs": [
        {
          "internalType": "address",
          "name": "_account",
          "type": "address"
        }
      ],
      "name": "addManager",
      "outputs": [],
      "stateMutability": "nonpayable",
      "type": "function"
    },
    {
      "inputs": [
        {
          "internalType": "uint256",
          "name": "_amount",
          "type": "uint256"
        }
      ],
      "name": "addTreasuryFunds",
      "outputs": [],
      "stateMutability": "nonpayable",
      "type": "function"
    },
    {
      "inputs": [],
      "name": "baseInterval",
      "outputs": [
        {
          "internalType": "uint256",
          "name": "",
          "type": "uint256"
        }
      ],
      "stateMutability": "view",
      "type": "function"
    },
    {
      "inputs": [
        {
          "internalType": "address",
          "name": "_beneficiaryAddress",
          "type": "address"
        }
      ],
      "name": "beneficiaries",
      "outputs": [
        {
          "internalType": "enum ICommunity.BeneficiaryState",
          "name": "state",
          "type": "uint8"
        },
        {
          "internalType": "uint256",
          "name": "claims",
          "type": "uint256"
        },
        {
          "internalType": "uint256",
          "name": "claimedAmount",
          "type": "uint256"
        },
        {
          "internalType": "uint256",
          "name": "lastClaim",
          "type": "uint256"
        }
      ],
      "stateMutability": "view",
      "type": "function"
    },
    {
      "inputs": [
        {
          "internalType": "address",
          "name": "_beneficiaryAddress",
          "type": "address"
        }
      ],
      "name": "beneficiaryClaimedAmounts",
      "outputs": [
        {
          "internalType": "uint256[]",
          "name": "claimedAmounts",
          "type": "uint256[]"
        }
      ],
      "stateMutability": "view",
      "type": "function"
    },
    {
      "inputs": [
        {
          "internalType": "address",
          "name": "_beneficiaryAddress",
          "type": "address"
        }
      ],
      "name": "beneficiaryJoinFromMigrated",
      "outputs": [],
      "stateMutability": "nonpayable",
      "type": "function"
    },
    {
      "inputs": [
        {
          "internalType": "uint256",
          "name": "index_",
          "type": "uint256"
        }
      ],
      "name": "beneficiaryListAt",
      "outputs": [
        {
          "internalType": "address",
          "name": "",
          "type": "address"
        }
      ],
      "stateMutability": "view",
      "type": "function"
    },
    {
      "inputs": [],
      "name": "beneficiaryListLength",
      "outputs": [
        {
          "internalType": "uint256",
          "name": "",
          "type": "uint256"
        }
      ],
      "stateMutability": "view",
      "type": "function"
    },
    {
      "inputs": [],
      "name": "cUSD",
      "outputs": [
        {
          "internalType": "contract IERC20Upgradeable",
          "name": "",
          "type": "address"
        }
      ],
      "stateMutability": "view",
      "type": "function"
    },
    {
      "inputs": [
        {
          "internalType": "address",
          "name": "_newBeneficiaryAddress",
          "type": "address"
        }
      ],
      "name": "changeBeneficiaryAddress",
      "outputs": [],
      "stateMutability": "nonpayable",
      "type": "function"
    },
    {
      "inputs": [
        {
          "internalType": "address",
          "name": "_oldBeneficiaryAddress",
          "type": "address"
        },
        {
          "internalType": "address",
          "name": "_newBeneficiaryAddress",
          "type": "address"
        }
      ],
      "name": "changeBeneficiaryAddressByManager",
      "outputs": [],
      "stateMutability": "nonpayable",
      "type": "function"
    },
    {
      "inputs": [],
      "name": "claim",
      "outputs": [],
      "stateMutability": "nonpayable",
      "type": "function"
    },
    {
      "inputs": [],
      "name": "claimAmount",
      "outputs": [
        {
          "internalType": "uint256",
          "name": "",
          "type": "uint256"
        }
      ],
      "stateMutability": "view",
      "type": "function"
    },
    {
      "inputs": [
        {
          "internalType": "address",
          "name": "_beneficiaryAddress",
          "type": "address"
        }
      ],
      "name": "claimCooldown",
      "outputs": [
        {
          "internalType": "uint256",
          "name": "",
          "type": "uint256"
        }
      ],
      "stateMutability": "view",
      "type": "function"
    },
    {
      "inputs": [],
      "name": "communityAdmin",
      "outputs": [
        {
          "internalType": "contract ICommunityAdmin",
          "name": "",
          "type": "address"
        }
      ],
      "stateMutability": "view",
      "type": "function"
    },
    {
      "inputs": [],
      "name": "copies",
      "outputs": [
        {
          "internalType": "address[]",
          "name": "",
          "type": "address[]"
        }
      ],
      "stateMutability": "view",
      "type": "function"
    },
    {
      "inputs": [
        {
          "internalType": "address[]",
          "name": "_beneficiaryAddresses",
          "type": "address[]"
        }
      ],
      "name": "copyBeneficiaries",
      "outputs": [],
      "stateMutability": "nonpayable",
      "type": "function"
    },
    {
      "inputs": [
        {
          "internalType": "contract ICommunity",
          "name": "_originalCommunity",
          "type": "address"
        }
      ],
      "name": "copyCommunityDetails",
      "outputs": [],
      "stateMutability": "nonpayable",
      "type": "function"
    },
    {
      "inputs": [],
      "name": "copyOf",
      "outputs": [
        {
          "internalType": "contract ICommunity",
          "name": "",
          "type": "address"
        }
      ],
      "stateMutability": "view",
      "type": "function"
    },
    {
      "inputs": [],
      "name": "decreaseStep",
      "outputs": [
        {
          "internalType": "uint256",
          "name": "",
          "type": "uint256"
        }
      ],
      "stateMutability": "view",
      "type": "function"
    },
    {
      "inputs": [
        {
          "internalType": "address",
          "name": "_sender",
          "type": "address"
        },
        {
          "internalType": "uint256",
          "name": "_amount",
          "type": "uint256"
        }
      ],
      "name": "donate",
      "outputs": [],
      "stateMutability": "nonpayable",
      "type": "function"
    },
    {
      "inputs": [],
      "name": "getInitialMaxClaim",
      "outputs": [
        {
          "internalType": "uint256",
          "name": "",
          "type": "uint256"
        }
      ],
      "stateMutability": "view",
      "type": "function"
    },
    {
      "inputs": [],
      "name": "getInitialMaxTotalClaim",
      "outputs": [
        {
          "internalType": "uint256",
          "name": "",
          "type": "uint256"
        }
      ],
      "stateMutability": "view",
      "type": "function"
    },
    {
      "inputs": [
        {
          "internalType": "bytes32",
          "name": "role",
          "type": "bytes32"
        }
      ],
      "name": "getRoleAdmin",
      "outputs": [
        {
          "internalType": "bytes32",
          "name": "",
          "type": "bytes32"
        }
      ],
      "stateMutability": "view",
      "type": "function"
    },
    {
      "inputs": [],
      "name": "getVersion",
      "outputs": [
        {
          "internalType": "uint256",
          "name": "",
          "type": "uint256"
        }
      ],
      "stateMutability": "pure",
      "type": "function"
    },
    {
      "inputs": [
        {
          "internalType": "bytes32",
          "name": "",
          "type": "bytes32"
        },
        {
          "internalType": "address",
          "name": "",
          "type": "address"
        }
      ],
      "name": "grantRole",
      "outputs": [],
      "stateMutability": "pure",
      "type": "function"
    },
    {
      "inputs": [
        {
          "internalType": "bytes32",
          "name": "role",
          "type": "bytes32"
        },
        {
          "internalType": "address",
          "name": "account",
          "type": "address"
        }
      ],
      "name": "hasRole",
      "outputs": [
        {
          "internalType": "bool",
          "name": "",
          "type": "bool"
        }
      ],
      "stateMutability": "view",
      "type": "function"
    },
    {
      "inputs": [],
      "name": "impactMarketAddress",
      "outputs": [
        {
          "internalType": "address",
          "name": "",
          "type": "address"
        }
      ],
      "stateMutability": "pure",
      "type": "function"
    },
    {
      "inputs": [],
      "name": "incrementInterval",
      "outputs": [
        {
          "internalType": "uint256",
          "name": "",
          "type": "uint256"
        }
      ],
      "stateMutability": "view",
      "type": "function"
    },
    {
      "inputs": [
        {
          "internalType": "address",
          "name": "_tokenAddress",
          "type": "address"
        },
        {
          "internalType": "address[]",
          "name": "_managers",
          "type": "address[]"
        },
        {
          "internalType": "uint256",
          "name": "_originalClaimAmount",
          "type": "uint256"
        },
        {
          "internalType": "uint256",
          "name": "_maxTotalClaim",
          "type": "uint256"
        },
        {
          "internalType": "uint256",
          "name": "_decreaseStep",
          "type": "uint256"
        },
        {
          "internalType": "uint256",
          "name": "_baseInterval",
          "type": "uint256"
        },
        {
          "internalType": "uint256",
          "name": "_incrementInterval",
          "type": "uint256"
        },
        {
          "internalType": "uint256",
          "name": "_minTranche",
          "type": "uint256"
        },
        {
          "internalType": "uint256",
          "name": "_maxTranche",
          "type": "uint256"
        },
        {
          "internalType": "uint256",
          "name": "_maxBeneficiaries",
          "type": "uint256"
        },
        {
          "internalType": "contract ICommunity",
          "name": "_previousCommunity",
          "type": "address"
        }
      ],
      "name": "initialize",
      "outputs": [],
      "stateMutability": "nonpayable",
      "type": "function"
    },
    {
      "inputs": [],
      "name": "isSelfFunding",
      "outputs": [
        {
          "internalType": "bool",
          "name": "",
          "type": "bool"
        }
      ],
      "stateMutability": "view",
      "type": "function"
    },
    {
      "inputs": [],
      "name": "lastFundRequest",
      "outputs": [
        {
          "internalType": "uint256",
          "name": "",
          "type": "uint256"
        }
      ],
      "stateMutability": "view",
      "type": "function"
    },
    {
      "inputs": [
        {
          "internalType": "address",
          "name": "_beneficiaryAddress",
          "type": "address"
        }
      ],
      "name": "lastInterval",
      "outputs": [
        {
          "internalType": "uint256",
          "name": "",
          "type": "uint256"
        }
      ],
      "stateMutability": "view",
      "type": "function"
    },
    {
      "inputs": [],
      "name": "lock",
      "outputs": [],
      "stateMutability": "nonpayable",
      "type": "function"
    },
    {
      "inputs": [
        {
          "internalType": "address[]",
          "name": "_beneficiaryAddresses",
          "type": "address[]"
        }
      ],
      "name": "lockBeneficiaries",
      "outputs": [],
      "stateMutability": "nonpayable",
      "type": "function"
    },
    {
      "inputs": [
        {
          "internalType": "address[]",
          "name": "_beneficiaryAddresses",
          "type": "address[]"
        },
        {
          "internalType": "uint256",
          "name": "_expirationTimestamp",
          "type": "uint256"
        },
        {
          "internalType": "bytes",
          "name": "_signature",
          "type": "bytes"
        }
      ],
      "name": "lockBeneficiariesUsingSignature",
      "outputs": [],
      "stateMutability": "nonpayable",
      "type": "function"
    },
    {
      "inputs": [
        {
          "internalType": "address",
          "name": "_beneficiaryAddress",
          "type": "address"
        }
      ],
      "name": "lockBeneficiary",
      "outputs": [],
      "stateMutability": "nonpayable",
      "type": "function"
    },
    {
      "inputs": [],
      "name": "locked",
      "outputs": [
        {
          "internalType": "bool",
          "name": "",
          "type": "bool"
        }
      ],
      "stateMutability": "view",
      "type": "function"
    },
    {
      "inputs": [],
      "name": "maxBeneficiaries",
      "outputs": [
        {
          "internalType": "uint256",
          "name": "",
          "type": "uint256"
        }
      ],
      "stateMutability": "view",
      "type": "function"
    },
    {
      "inputs": [],
      "name": "maxClaim",
      "outputs": [
        {
          "internalType": "uint256",
          "name": "",
          "type": "uint256"
        }
      ],
      "stateMutability": "view",
      "type": "function"
    },
    {
      "inputs": [],
      "name": "maxTotalClaim",
      "outputs": [
        {
          "internalType": "uint256",
          "name": "",
          "type": "uint256"
        }
      ],
      "stateMutability": "view",
      "type": "function"
    },
    {
      "inputs": [],
      "name": "maxTranche",
      "outputs": [
        {
          "internalType": "uint256",
          "name": "",
          "type": "uint256"
        }
      ],
      "stateMutability": "view",
      "type": "function"
    },
    {
      "inputs": [],
      "name": "minTranche",
      "outputs": [
        {
          "internalType": "uint256",
          "name": "",
          "type": "uint256"
        }
      ],
      "stateMutability": "view",
      "type": "function"
    },
    {
      "inputs": [],
      "name": "originalClaimAmount",
      "outputs": [
        {
          "internalType": "uint256",
          "name": "",
          "type": "uint256"
        }
      ],
      "stateMutability": "view",
      "type": "function"
    },
    {
      "inputs": [],
      "name": "owner",
      "outputs": [
        {
          "internalType": "address",
          "name": "",
          "type": "address"
        }
      ],
      "stateMutability": "view",
      "type": "function"
    },
    {
      "inputs": [],
      "name": "previousCommunity",
      "outputs": [
        {
          "internalType": "contract ICommunity",
          "name": "",
          "type": "address"
        }
      ],
      "stateMutability": "view",
      "type": "function"
    },
    {
      "inputs": [],
      "name": "privateFunds",
      "outputs": [
        {
          "internalType": "uint256",
          "name": "",
          "type": "uint256"
        }
      ],
      "stateMutability": "view",
      "type": "function"
    },
    {
      "inputs": [
        {
          "internalType": "address[]",
          "name": "_beneficiaryAddresses",
          "type": "address[]"
        }
      ],
      "name": "removeBeneficiaries",
      "outputs": [],
      "stateMutability": "nonpayable",
      "type": "function"
    },
    {
      "inputs": [
        {
          "internalType": "address[]",
          "name": "_beneficiaryAddresses",
          "type": "address[]"
        },
        {
          "internalType": "uint256",
          "name": "_expirationTimestamp",
          "type": "uint256"
        },
        {
          "internalType": "bytes",
          "name": "_signature",
          "type": "bytes"
        }
      ],
      "name": "removeBeneficiariesUsingSignature",
      "outputs": [],
      "stateMutability": "nonpayable",
      "type": "function"
    },
    {
      "inputs": [
        {
          "internalType": "address",
          "name": "_beneficiaryAddress",
          "type": "address"
        }
      ],
      "name": "removeBeneficiary",
      "outputs": [],
      "stateMutability": "nonpayable",
      "type": "function"
    },
    {
      "inputs": [
        {
          "internalType": "address",
          "name": "_account",
          "type": "address"
        }
      ],
      "name": "removeManager",
      "outputs": [],
      "stateMutability": "nonpayable",
      "type": "function"
    },
    {
      "inputs": [],
      "name": "renounceOwnership",
      "outputs": [],
      "stateMutability": "nonpayable",
      "type": "function"
    },
    {
      "inputs": [
        {
          "internalType": "bytes32",
          "name": "role",
          "type": "bytes32"
        },
        {
          "internalType": "address",
          "name": "account",
          "type": "address"
        }
      ],
      "name": "renounceRole",
      "outputs": [],
      "stateMutability": "nonpayable",
      "type": "function"
    },
    {
      "inputs": [],
      "name": "requestFunds",
      "outputs": [],
      "stateMutability": "nonpayable",
      "type": "function"
    },
    {
      "inputs": [
        {
          "internalType": "bytes32",
          "name": "",
          "type": "bytes32"
        },
        {
          "internalType": "address",
          "name": "",
          "type": "address"
        }
      ],
      "name": "revokeRole",
      "outputs": [],
      "stateMutability": "pure",
      "type": "function"
    },
    {
      "inputs": [
        {
          "internalType": "address",
          "name": "_beneficiaryAddress",
          "type": "address"
        },
        {
          "internalType": "enum ICommunity.BeneficiaryState",
          "name": "_state",
          "type": "uint8"
        }
      ],
      "name": "setBeneficiaryState",
      "outputs": [],
      "stateMutability": "nonpayable",
      "type": "function"
    },
    {
      "inputs": [
        {
          "internalType": "bytes4",
          "name": "interfaceId",
          "type": "bytes4"
        }
      ],
      "name": "supportsInterface",
      "outputs": [
        {
          "internalType": "bool",
          "name": "",
          "type": "bool"
        }
      ],
      "stateMutability": "view",
      "type": "function"
    },
    {
      "inputs": [],
      "name": "token",
      "outputs": [
        {
          "internalType": "contract IERC20Upgradeable",
          "name": "",
          "type": "address"
        }
      ],
      "stateMutability": "view",
      "type": "function"
    },
    {
      "inputs": [],
      "name": "tokenList",
      "outputs": [
        {
          "internalType": "address[]",
          "name": "",
          "type": "address[]"
        }
      ],
      "stateMutability": "view",
      "type": "function"
    },
    {
      "inputs": [
        {
          "internalType": "uint256",
          "name": "",
          "type": "uint256"
        }
      ],
      "name": "tokenUpdates",
      "outputs": [
        {
          "internalType": "address",
          "name": "tokenAddress",
          "type": "address"
        },
        {
          "internalType": "uint256",
          "name": "ratio",
          "type": "uint256"
        },
        {
          "internalType": "uint256",
          "name": "startBlock",
          "type": "uint256"
        }
      ],
      "stateMutability": "view",
      "type": "function"
    },
    {
      "inputs": [],
      "name": "tokenUpdatesLength",
      "outputs": [
        {
          "internalType": "uint256",
          "name": "",
          "type": "uint256"
        }
      ],
      "stateMutability": "view",
      "type": "function"
    },
    {
      "inputs": [
        {
          "internalType": "contract IERC20Upgradeable",
          "name": "_token",
          "type": "address"
        },
        {
          "internalType": "address",
          "name": "_to",
          "type": "address"
        },
        {
          "internalType": "uint256",
          "name": "_amount",
          "type": "uint256"
        }
      ],
      "name": "transfer",
      "outputs": [],
      "stateMutability": "nonpayable",
      "type": "function"
    },
    {
      "inputs": [
        {
          "internalType": "address",
          "name": "newOwner",
          "type": "address"
        }
      ],
      "name": "transferOwnership",
      "outputs": [],
      "stateMutability": "nonpayable",
      "type": "function"
    },
    {
      "inputs": [],
      "name": "treasuryFunds",
      "outputs": [
        {
          "internalType": "uint256",
          "name": "",
          "type": "uint256"
        }
      ],
      "stateMutability": "view",
      "type": "function"
    },
    {
      "inputs": [],
      "name": "unlock",
      "outputs": [],
      "stateMutability": "nonpayable",
      "type": "function"
    },
    {
      "inputs": [
        {
          "internalType": "address[]",
          "name": "_beneficiaryAddresses",
          "type": "address[]"
        }
      ],
      "name": "unlockBeneficiaries",
      "outputs": [],
      "stateMutability": "nonpayable",
      "type": "function"
    },
    {
      "inputs": [
        {
          "internalType": "address[]",
          "name": "_beneficiaryAddresses",
          "type": "address[]"
        },
        {
          "internalType": "uint256",
          "name": "_expirationTimestamp",
          "type": "uint256"
        },
        {
          "internalType": "bytes",
          "name": "_signature",
          "type": "bytes"
        }
      ],
      "name": "unlockBeneficiariesUsingSignature",
      "outputs": [],
      "stateMutability": "nonpayable",
      "type": "function"
    },
    {
      "inputs": [
        {
          "internalType": "address",
          "name": "_beneficiaryAddress",
          "type": "address"
        }
      ],
      "name": "unlockBeneficiary",
      "outputs": [],
      "stateMutability": "nonpayable",
      "type": "function"
    },
    {
      "inputs": [
        {
          "internalType": "uint256",
          "name": "_originalClaimAmount",
          "type": "uint256"
        },
        {
          "internalType": "uint256",
          "name": "_maxTotalClaim",
          "type": "uint256"
        },
        {
          "internalType": "uint256",
          "name": "_decreaseStep",
          "type": "uint256"
        },
        {
          "internalType": "uint256",
          "name": "_baseInterval",
          "type": "uint256"
        },
        {
          "internalType": "uint256",
          "name": "_incrementInterval",
          "type": "uint256"
        }
      ],
      "name": "updateBeneficiaryParams",
      "outputs": [],
      "stateMutability": "nonpayable",
      "type": "function"
    },
    {
      "inputs": [
        {
          "internalType": "contract ICommunityAdmin",
          "name": "_newCommunityAdmin",
          "type": "address"
        }
      ],
      "name": "updateCommunityAdmin",
      "outputs": [],
      "stateMutability": "nonpayable",
      "type": "function"
    },
    {
      "inputs": [
        {
          "internalType": "uint256",
          "name": "_minTranche",
          "type": "uint256"
        },
        {
          "internalType": "uint256",
          "name": "_maxTranche",
          "type": "uint256"
        }
      ],
      "name": "updateCommunityParams",
      "outputs": [],
      "stateMutability": "nonpayable",
      "type": "function"
    },
    {
      "inputs": [
        {
          "internalType": "uint256",
          "name": "_newMaxBeneficiaries",
          "type": "uint256"
        }
      ],
      "name": "updateMaxBeneficiaries",
      "outputs": [],
      "stateMutability": "nonpayable",
      "type": "function"
    },
    {
      "inputs": [
        {
          "internalType": "contract ICommunity",
          "name": "_newPreviousCommunity",
          "type": "address"
        }
      ],
      "name": "updatePreviousCommunity",
      "outputs": [],
      "stateMutability": "nonpayable",
      "type": "function"
    },
    {
      "inputs": [
        {
          "internalType": "contract IERC20Upgradeable",
          "name": "_newToken",
          "type": "address"
        },
        {
          "internalType": "address[]",
          "name": "_exchangePath",
          "type": "address[]"
        },
        {
          "internalType": "uint256",
          "name": "_originalClaimAmount",
          "type": "uint256"
        },
        {
          "internalType": "uint256",
          "name": "_maxTotalClaim",
          "type": "uint256"
        },
        {
          "internalType": "uint256",
          "name": "_decreaseStep",
          "type": "uint256"
        },
        {
          "internalType": "uint256",
          "name": "_baseInterval",
          "type": "uint256"
        },
        {
          "internalType": "uint256",
          "name": "_incrementInterval",
          "type": "uint256"
        }
      ],
      "name": "updateToken",
      "outputs": [],
      "stateMutability": "nonpayable",
      "type": "function"
    },
    {
      "inputs": [],
      "name": "validBeneficiaryCount",
      "outputs": [
        {
          "internalType": "uint256",
          "name": "",
          "type": "uint256"
        }
      ],
      "stateMutability": "view",
      "type": "function"
    }
  ],
  "bytecode": "0x608060405234801561001057600080fd5b5061663980620000216000396000f3fe608060405234801561001057600080fd5b506004361061048b5760003560e01c80638da5cb5b11610262578063c51fab3c11610151578063e25c25f3116100ce578063f2fde38b11610092578063f2fde38b146109ac578063f36e2609146109bf578063f83d08ba146109c7578063f92b6c01146109cf578063fb7b0a0c146109d8578063fc0c546a1461055557600080fd5b8063e25c25f314610957578063e69d849d1461096a578063eb0376b11461097d578063ecd0c0c314610985578063eeda3c4c1461099957600080fd5b8063d33d4ec611610115578063d33d4ec614610915578063d4938db314610928578063d547741f14610930578063d6dbd97214610943578063dd4414bb1461094d57600080fd5b8063c51fab3c146108c5578063c76a890c146108cf578063cf309012146108e2578063d04c41b6146108ef578063d10f51071461090257600080fd5b8063a57e08ca116101df578063b809ee82116101a3578063b809ee8214610871578063bbd17ead14610884578063beabacc814610898578063c041fdc5146108ab578063c0e27b6b146108b257600080fd5b8063a57e08ca14610828578063a69df4b51461083b578063a8f3e06314610843578063ac18de4314610856578063b026ba571461086957600080fd5b80639e2c58ca116102265780639e2c58ca146107e5578063a0f93a17146107fa578063a217fddf14610804578063a38540ee1461080c578063a3c6e4111461081557600080fd5b80638da5cb5b1461079157806391d14854146107a257806394e13748146107b55780639c01a401146107c85780639cecf572146107d257600080fd5b80633a578a0c1161037e578063597be18b116102fb578063785393db116102bf578063785393db1461074e57806378ba280f146106b55780637e2959dc14610761578063830953ab1461077457806389554f171461077e57600080fd5b8063597be18b146106f65780635c7054c0146106ff5780635fac917a146107125780636b31f2ad14610726578063715018a61461074657600080fd5b8063572b9e7b11610342578063572b9e7b146106a257806357c36327146106b5578063590411da146106bd5780635926651d146106d057806359633a1c146106e357600080fd5b80633a578a0c14610631578063431a801a146106455780634e71d92d1461064f57806351d84c9e1461065757806354c5689e1461066a57600080fd5b8063248a9ca31161040c578063300c12fe116103d0578063300c12fe146105db578063305ff654146105e557806336568abe146105f85780633783946a1461060b57806337e556dd1461061e57600080fd5b8063248a9ca3146105755780632b271117146105985780632d06177a146105a25780632f2ff15d146105b55780632fd79103146105c857600080fd5b80630e5b7c53116104535780630e5b7c531461051357806312d0e65a1461051c57806315f7c7201461052f5780631912cdb4146105425780631fccf6721461055557600080fd5b8063015677391461049057806301ffc9a7146104bc57806309c338c3146104df5780630b4e7817146104f75780630d8e6e2c1461050c575b600080fd5b6104a361049e366004615b57565b6109e1565b6040516104b394939291906161f3565b60405180910390f35b6104cf6104ca366004615f4f565b610a2c565b60405190151581526020016104b3565b6104e96101065481565b6040519081526020016104b3565b61050a610505366004615bc7565b610a63565b005b60046104e9565b6104e960fd5481565b61050a61052a366004615b57565b610df5565b61050a61053d366004615b57565b610e5b565b61050a6105503660046160b8565b610e95565b61055d610fad565b6040516001600160a01b0390911681526020016104b3565b6104e9610583366004615f13565b60009081526065602052604090206001015490565b6104e96101055481565b61050a6105b0366004615b57565b61105e565b61050a6105c3366004615f2b565b611105565b61050a6105d63660046160d9565b611173565b61010554156104cf565b61050a6105f3366004615f13565b611387565b61050a610606366004615f2b565b6114c1565b61050a610619366004615fb7565b61153b565b61050a61062c366004615dd7565b611d85565b6101075461055d906001600160a01b031681565b6104e96101005481565b61050a611d9f565b61050a610665366004615b8f565b612112565b61067d610678366004615f13565b612150565b604080516001600160a01b0390941684526020840192909252908201526060016104b3565b61050a6106b0366004615c7a565b61218e565b6104e9612268565b61050a6106cb366004615d08565b612289565b61050a6106de366004615b57565b612319565b61050a6106f1366004615b57565b6123df565b6104e960fe5481565b61050a61070d366004615d08565b61241c565b6101085461055d906001600160a01b031681565b610739610734366004615b57565b61251c565b6040516104b391906161bb565b61050a612681565b61055d61075c366004615f13565b6126b7565b61050a61076f366004615b57565b6126c5565b6104e96101115481565b61050a61078c366004615d08565b61274d565b6097546001600160a01b031661055d565b6104cf6107b0366004615f2b565b6127ad565b61050a6107c3366004615dd7565b6127d8565b6104e96101015481565b6104e96107e0366004615b57565b61280f565b6107ed612841565b6040516104b3919061616e565b6104e961010d5481565b6104e9600081565b6104e960ff5481565b61050a610823366004615dd7565b6128c5565b61050a610836366004615b57565b6128fc565b61050a612aa2565b6104e9610851366004615b57565b612b77565b61050a610864366004615b57565b612bd4565b61050a612de2565b61050a61087f366004615f13565b612f53565b6101125461055d906001600160a01b031681565b61050a6108a6366004615f77565b612f98565b600061055d565b61050a6108c0366004615b57565b61307e565b6104e96101035481565b61050a6108dd366004615d08565b6130de565b60fb546104cf9060ff1681565b61050a6108fd366004615d08565b61311b565b61050a610910366004615b57565b61317b565b61050a610923366004615b57565b6131db565b60ff546104e9565b61050a61093e366004615f2b565b613268565b6104e96101025481565b6104e96101045481565b61050a610965366004615dd7565b6132d6565b61050a610978366004615ca7565b613340565b6104e96133e6565b61010c5461055d906001600160a01b031681565b61050a6109a7366004615b57565b6133f3565b61050a6109ba366004615b57565b6137bd565b6107ed613855565b61050a613862565b61010e546104e9565b6104e960fc5481565b6001600160a01b0381166000908152610109602052604081208054600182015483928392839260ff90911690610a17834361393a565b83600301549450945094509450509193509193565b60006001600160e01b03198216637965db0b60e01b1480610a5d57506301ffc9a760e01b6001600160e01b03198316145b92915050565b600054610100900460ff16610a7e5760005460ff1615610a82565b303b155b610aea5760405162461bcd60e51b815260206004820152602e60248201527f496e697469616c697a61626c653a20636f6e747261637420697320616c72656160448201526d191e481a5b9a5d1a585b1a5e995960921b60648201526084015b60405180910390fd5b600054610100900460ff16158015610b0c576000805461ffff19166101011790555b858711610b945760405162461bcd60e51b815260206004820152604a60248201527f436f6d6d756e6974793a3a696e697469616c697a653a2062617365496e74657260448201527f76616c206d7573742062652067726561746572207468616e20696e6372656d656064820152691b9d125b9d195c9d985b60b21b608482015260a401610ae1565b89891015610bfe5760405162461bcd60e51b815260206004820152603160248201527f436f6d6d756e6974793a3a696e697469616c697a653a206f726967696e616c436044820152706c61696d416d6f756e7420746f2062696760781b6064820152608401610ae1565b83851115610c845760405162461bcd60e51b815260206004820152604760248201527f436f6d6d756e6974793a3a696e697469616c697a653a206d696e5472616e636860448201527f652073686f756c64206e6f742062652067726561746572207468616e206d61786064820152665472616e63686560c81b608482015260a401610ae1565b61010880546001600160a01b03191633179055610c9f613a5a565b610ca7613a99565b610caf613ad0565b61010c80546001600160a01b03808f166001600160a01b03199283161790925560fc8c90556101118c905560fd89905560fe88905560ff8b905561010487905561010586905561010780549285169290911691909117905561010388905561010d83905560fb805460ff19169055610d26336137bd565b610d3e6000805160206165e483398151915280613aff565b610d566000805160206165e483398151915233613b4a565b604051339081907f05a4006f300442cf8b7fdb885f5ee958812020bffb5c5a8e655fde64e5f987ed90600090a38a516000905b80821015610dd357610dc18d8381518110610db457634e487b7160e01b600052603260045260246000fd5b6020026020010151613b54565b81610dcb8161657a565b925050610d89565b50508015610de7576000805461ff00191690555b505050505050505050505050565b6001600160a01b0381166000908152610109602052604081205460ff166005811115610e3157634e487b7160e01b600052602160045260246000fd5b14610e4e5760405162461bcd60e51b8152600401610ae1906163a4565b610e583382613bc1565b50565b6097546001600160a01b03163314610e855760405162461bcd60e51b8152600401610ae1906162bd565b610e9161011382613f18565b5050565b6097546001600160a01b03163314610ebf5760405162461bcd60e51b8152600401610ae1906162bd565b80821115610f505760405162461bcd60e51b815260206004820152605260248201527f436f6d6d756e6974793a3a757064617465436f6d6d756e697479506172616d7360448201527f3a206d696e5472616e6368652073686f756c64206e6f742062652067726561746064820152716572207468616e206d61785472616e63686560701b608482015260a401610ae1565b61010454610105546040805192835260208301919091528101839052606081018290527fcd922a6f0ad842d84e08eb5df24c029b63c60167fb37cff24adf95c4832e32589060800160405180910390a16101049190915561010555565b61010c546000906001600160a01b031661104d5761010860009054906101000a90046001600160a01b03166001600160a01b0316631fccf6726040518163ffffffff1660e01b815260040160206040518083038186803b15801561101057600080fd5b505afa158015611024573d6000803e3d6000fd5b505050506040513d601f19601f820116820180604052508101906110489190615b73565b905090565b5061010c546001600160a01b031690565b61010854604051636b0de23f60e01b81523060048201523360248201526001600160a01b0390911690636b0de23f9060440160206040518083038186803b1580156110a857600080fd5b505afa1580156110bc573d6000803e3d6000fd5b505050506040513d601f19601f820116820180604052508101906110e09190615ef3565b6110fc5760405162461bcd60e51b8152600401610ae19061627a565b610e5881613b54565b60405162461bcd60e51b815260206004820152603a60248201527f436f6d6d756e6974793a3a6772616e74526f6c653a20596f7520617265206e6f60448201527f7420616c6c6f7720746f207573652074686973206d6574686f640000000000006064820152608401610ae1565b6097546001600160a01b0316331461119d5760405162461bcd60e51b8152600401610ae1906162bd565b8082116112385760405162461bcd60e51b815260206004820152605760248201527f436f6d6d756e6974793a3a75706461746542656e65666963696172795061726160448201527f6d733a2062617365496e74657276616c206d757374206265206772656174657260648201527f207468616e20696e6372656d656e74496e74657276616c000000000000000000608482015260a401610ae1565b82610100546112479190616501565b61125190866164c9565b8410156112c65760405162461bcd60e51b815260206004820152603f60248201527f436f6d6d756e6974793a3a75706461746542656e65666963696172795061726160448201527f6d733a206f726967696e616c436c61696d416d6f756e7420746f6f20626967006064820152608401610ae1565b60fc5460ff546101035460fd5460fe54604080519586526020860194909452848401929092526060840152608083015260a0820187905260c0820186905260e0820185905261010082018490526101208201839052517fa19f450cd68c70f728b0c4b75befd202ea5ebb1ae78b6aca47365934b5008750918190036101400190a160fc8590556101005461135b908490616501565b6113659085616520565b60ff5561010383905560fd82905560fe819055611380613f2d565b5050505050565b6097546001600160a01b031633148061141d575061010854604051636b0de23f60e01b81523060048201523360248201526001600160a01b0390911690636b0de23f9060440160206040518083038186803b1580156113e557600080fd5b505afa1580156113f9573d6000803e3d6000fd5b505050506040513d601f19601f8201168201806040525081019061141d9190615ef3565b61147e5760405162461bcd60e51b815260206004820152602c60248201527f436f6d6d756e6974793a204e4f545f4f574e45525f4f525f414d42415353414460448201526b4f525f4f525f454e5449545960a01b6064820152608401610ae1565b61010d5460408051918252602082018390527f6672b7064fe522fa09a8078f6d967272e0a379beb2270817417c9f023251b657910160405180910390a161010d55565b6001600160a01b03811633146115315760405162461bcd60e51b815260206004820152602f60248201527f416363657373436f6e74726f6c3a2063616e206f6e6c792072656e6f756e636560448201526e103937b632b9903337b91039b2b63360891b6064820152608401610ae1565b610e918282614194565b6097546001600160a01b031633146115655760405162461bcd60e51b8152600401610ae1906162bd565b61010854604080516361d027b360e01b815290516000926001600160a01b0316916361d027b3916004808301926020929190829003018186803b1580156115ab57600080fd5b505afa1580156115bf573d6000803e3d6000fd5b505050506040513d601f19601f820116820180604052508101906115e39190615b73565b61010e54909150600a116116535760405162461bcd60e51b815260206004820152603160248201527f436f6d6d756e6974793a3a757064617465546f6b656e3a20546f6b656e206c696044820152707374206c656e67746820746f6f2062696760781b6064820152608401610ae1565b61165b610fad565b6001600160a01b0316896001600160a01b031614156116f45760405162461bcd60e51b815260206004820152604960248201527f436f6d6d756e6974793a3a757064617465546f6b656e3a204e657720746f6b6560448201527f6e2063616e6e6f74206265207468652073616d6520617320746865206375727260648201526832b73a103a37b5b2b760b91b608482015260a401610ae1565b61010860009054906101000a90046001600160a01b03166001600160a01b0316631fccf6726040518163ffffffff1660e01b815260040160206040518083038186803b15801561174357600080fd5b505afa158015611757573d6000803e3d6000fd5b505050506040513d601f19601f8201168201806040525081019061177b9190615b73565b6001600160a01b0316896001600160a01b0316148061180e57506040516319f3736160e01b81526001600160a01b038a811660048301528216906319f373619060240160206040518083038186803b1580156117d657600080fd5b505afa1580156117ea573d6000803e3d6000fd5b505050506040513d601f19601f8201168201806040525081019061180e9190615ef3565b6118685760405162461bcd60e51b815260206004820152602560248201527f436f6d6d756e6974793a3a757064617465546f6b656e3a20496e76616c6964206044820152643a37b5b2b760d91b6064820152608401610ae1565b6001871180156118c5575061187b610fad565b6001600160a01b0316888860008181106118a557634e487b7160e01b600052603260045260246000fd5b90506020020160208101906118ba9190615b57565b6001600160a01b0316145b801561192057506001600160a01b03891688886118e3600182616520565b81811061190057634e487b7160e01b600052603260045260246000fd5b90506020020160208101906119159190615b57565b6001600160a01b0316145b6119815760405162461bcd60e51b815260206004820152602c60248201527f436f6d6d756e6974793a3a757064617465546f6b656e3a20696e76616c69642060448201526b0caf0c6d0c2dccecaa0c2e8d60a31b6064820152608401610ae1565b61010e54611a1b5761010e604051806060016040528061199f610fad565b6001600160a01b039081168252670de0b6b3a76400006020808401919091526000604093840181905285546001808201885596825290829020855160039092020180546001600160a01b03191691909316178255830151938101939093550151600290910155611a19611a10610fad565b61010f90613f18565b505b6000611a25612268565b611a3787670de0b6b3a7640000616501565b611a4191906164e1565b604080516060810182526001600160a01b038d81168252602082018481524393830193845261010e805460018101825560009190915292517f44731785622d53a842eeb261a70df6f2b61b9624656157b6168597f0656f4805600390940293840180546001600160a01b0319169190931617909155517f44731785622d53a842eeb261a70df6f2b61b9624656157b6168597f0656f480682015590517f44731785622d53a842eeb261a70df6f2b61b9624656157b6168597f0656f4807909101559050611b1061010f8b613f18565b506000611b1b610fad565b6040516370a0823160e01b81523060048201526001600160a01b0391909116906370a082319060240160206040518083038186803b158015611b5c57600080fd5b505afa158015611b70573d6000803e3d6000fd5b505050506040513d601f19601f82011682018060405250810190611b9491906160a0565b90508015611d14576000836001600160a01b031663735de9f76040518163ffffffff1660e01b815260040160206040518083038186803b158015611bd757600080fd5b505afa158015611beb573d6000803e3d6000fd5b505050506040513d601f19601f82011682018060405250810190611c0f9190615b73565b9050611c19610fad565b60405163095ea7b360e01b81526001600160a01b03838116600483015260248201859052919091169063095ea7b390604401602060405180830381600087803b158015611c6557600080fd5b505af1158015611c79573d6000803e3d6000fd5b505050506040513d601f19601f82011682018060405250810190611c9d9190615ef3565b506001600160a01b038116635c11d7958360008e8e30611cbf42610e106164c9565b6040518763ffffffff1660e01b8152600401611ce096959493929190616401565b600060405180830381600087803b158015611cfa57600080fd5b505af1158015611d0e573d6000803e3d6000fd5b50505050505b61010c546040516001600160a01b03808e169216907f0b1186973f810894b87ab0bfbee422fddcaad21b46dc705a561451bbb6bac11790600090a361010c80546001600160a01b0319166001600160a01b038d16179055611d788888888888611173565b5050505050505050505050565b611d908383836141fb565b611d9984614431565b50505050565b60fb5460ff1615611dc25760405162461bcd60e51b8152600401610ae19061624f565b6001336000908152610109602052604090205460ff166005811115611df757634e487b7160e01b600052602160045260246000fd5b14611e445760405162461bcd60e51b815260206004820181905260248201527f436f6d6d756e6974793a204e4f545f56414c49445f42454e45464943494152596044820152606401610ae1565b600260c9541415611e675760405162461bcd60e51b8152600401610ae19061636d565b600260c9553360009081526101096020526040812090611e87824361393a565b905043611e933361280f565b1115611ee15760405162461bcd60e51b815260206004820152601960248201527f436f6d6d756e6974793a3a636c61696d3a204e4f545f594554000000000000006044820152606401610ae1565b60ff548110611f475760405162461bcd60e51b815260206004820152602c60248201527f436f6d6d756e6974793a3a636c61696d3a20416c726561647920636c61696d6560448201526b642065766572797468696e6760a01b6064820152608401610ae1565b6000806101115411611f5b5760fc54611f60565b610111545b905060008260ff54611f729190616520565b821115611f8c578260ff54611f879190616520565b611f8e565b815b61010e549091506001108015611fdb575061010e600181548110611fc257634e487b7160e01b600052603260045260246000fd5b9060005260206000209060030201600201548460030154105b1561203957836002015484600401600061010e60008154811061200e57634e487b7160e01b600052603260045260246000fd5b600091825260208083206003909202909101546001600160a01b031683528201929092526040019020555b61204381846164c9565b600285015560018401805490600061205a8361657a565b909155505043600385015561010e54600110156120b55780846004016000612080610fad565b6001600160a01b03166001600160a01b0316815260200190815260200160002060008282546120af91906164c9565b90915550505b6120d233826120c2610fad565b6001600160a01b03169190614481565b60405181815233907fd54e03b214b3e8c17e98044f98554b6f1b18dd2a3163a2619afea7e9b2a6eb979060200160405180910390a25050600160c9555050565b61212a6000805160206165e4833981519152336127ad565b6121465760405162461bcd60e51b8152600401610ae1906162f2565b610e918282613bc1565b61010e818154811061216157600080fd5b60009182526020909120600390910201805460018201546002909201546001600160a01b03909116925083565b60fb5460ff16156121b15760405162461bcd60e51b8152600401610ae19061624f565b6121bd610113336144e4565b6122135760405162461bcd60e51b815260206004820152602160248201527f436f6d6d756e6974793a20496e76616c696420636f6d6d756e69747920636f706044820152607960f81b6064820152608401610ae1565b600260c95414156122365760405162461bcd60e51b8152600401610ae19061636d565b600260c9556001600160a01b03821660009081526101096020526040902061225e8183614506565b5050600160c95550565b6000610103546101005461227c9190616501565b60ff5461104891906164c9565b60fb5460ff16156122ac5760405162461bcd60e51b8152600401610ae19061624f565b6122c46000805160206165e4833981519152336127ad565b6122e05760405162461bcd60e51b8152600401610ae1906162f2565b600260c95414156123035760405162461bcd60e51b8152600401610ae19061636d565b600260c95561231181614782565b50600160c955565b60fb5460ff161561233c5760405162461bcd60e51b8152600401610ae19061624f565b6123546000805160206165e4833981519152336127ad565b6123705760405162461bcd60e51b8152600401610ae1906162f2565b600260c95414156123935760405162461bcd60e51b8152600401610ae19061636d565b600260c9556123a181614839565b6040516001600160a01b0382169033907fbb39c36a7502b7256e1a687254146a9a2ea7b146c77cb9e40eb0e2b8793781e190600090a350600160c955565b6123f76000805160206165e4833981519152336127ad565b6124135760405162461bcd60e51b8152600401610ae1906162f2565b610e58816149de565b60fb5460ff161561243f5760405162461bcd60e51b8152600401610ae19061624f565b6124576000805160206165e4833981519152336127ad565b6124735760405162461bcd60e51b8152600401610ae1906162f2565b600260c95414156124965760405162461bcd60e51b8152600401610ae19061636d565b600260c955610112546001600160a01b03166125135760405162461bcd60e51b815260206004820152603660248201527f436f6d6d756e6974793a3a636f707942656e656669636961726965733a20496e60448201527576616c696420706172656e7420636f6d6d756e69747960501b6064820152608401610ae1565b61231181614a96565b6001600160a01b03811660009081526101096020526040812060609161254361010f614ae6565b67ffffffffffffffff81111561256957634e487b7160e01b600052604160045260246000fd5b604051908082528060200260200182016040528015612592578160200160208202803683370190505b50905060006125a261010f614ae6565b905060005b8181101561261f576004840160006125c161010f84614af0565b6001600160a01b03166001600160a01b031681526020019081526020016000205483828151811061260257634e487b7160e01b600052603260045260246000fd5b6020908102919091010152806126178161657a565b9150506125a7565b50815161267957604080516001808252818301909252906020808301908036833701905050915082600201548260008151811061266c57634e487b7160e01b600052603260045260246000fd5b6020026020010181815250505b509392505050565b6097546001600160a01b031633146126ab5760405162461bcd60e51b8152600401610ae1906162bd565b6126b56000614afc565b565b6000610a5d61010a83614af0565b6097546001600160a01b031633146126ef5760405162461bcd60e51b8152600401610ae1906162bd565b610107546040516001600160a01b038084169216907f0d6a84e94da4b619dd0d993b5689ec82db4b1095da99ee0f3e7bb046c647e6ad90600090a361010780546001600160a01b0319166001600160a01b0392909216919091179055565b60fb5460ff16156127705760405162461bcd60e51b8152600401610ae19061624f565b6127886000805160206165e4833981519152336127ad565b6127a45760405162461bcd60e51b8152600401610ae1906162f2565b610e5881614b4e565b60009182526065602090815260408084206001600160a01b0393909316845291905290205460ff1690565b60fb5460ff16156127fb5760405162461bcd60e51b8152600401610ae19061624f565b6128068383836141fb565b611d9984614b9e565b600061281a82612b77565b6001600160a01b03831660009081526101096020526040902060030154610a5d91906164c9565b606061284e61010f614ae6565b6128ba576040805160018082528183019092526000916020808301908036833701905050905061287c610fad565b8160008151811061289d57634e487b7160e01b600052603260045260246000fd5b6001600160a01b0390921660209283029190910190910152919050565b61104861010f614bee565b60fb5460ff16156128e85760405162461bcd60e51b8152600401610ae19061624f565b6128f38383836141fb565b611d9984614b4e565b6001600160a01b03811660009081526101096020526040812090815460ff16600581111561293a57634e487b7160e01b600052602160045260246000fd5b146129ad5760405162461bcd60e51b815260206004820152603a60248201527f436f6d6d756e6974793a3a62656e65666963696172794a6f696e46726f6d4d6960448201527f6772617465643a2042656e6566696369617279206578697374730000000000006064820152608401610ae1565b61010754604051630156773960e01b81526001600160a01b038481166004830152600092839283928392169063015677399060240160806040518083038186803b1580156129fa57600080fd5b505afa158015612a0e573d6000803e3d6000fd5b505050506040513d601f19601f82011682018060405250810190612a329190616062565b9350935093509350612a448585614506565b600185018390556003850181905560028501829055612a6561010a87613f18565b506040516001600160a01b038716907f505fe088fef0d1fb451ccfed842b55a86af1ee6208502f4bc3327dcb9032082990600090a2505050505050565b61010854604051636b0de23f60e01b81523060048201523360248201526001600160a01b0390911690636b0de23f9060440160206040518083038186803b158015612aec57600080fd5b505afa158015612b00573d6000803e3d6000fd5b505050506040513d601f19601f82011682018060405250810190612b249190615ef3565b612b405760405162461bcd60e51b8152600401610ae19061627a565b60fb805460ff1916905560405133907f4e50048c25972c85ad169c2302967f1e633e8dc6108d6aca51a90d2a59d4934d90600090a2565b6001600160a01b0381166000908152610109602052604081206001810154612ba25750600092915050565b60fe5460018260010154612bb69190616520565b612bc09190616501565b60fd54612bcd91906164c9565b9392505050565b61010854604051636b0de23f60e01b81523060048201523360248201526001600160a01b0390911690636b0de23f9060440160206040518083038186803b158015612c1e57600080fd5b505afa158015612c32573d6000803e3d6000fd5b505050506040513d601f19601f82011682018060405250810190612c569190615ef3565b612c725760405162461bcd60e51b8152600401610ae19061627a565b612c8a6000805160206165e4833981519152826127ad565b612cfe576040805162461bcd60e51b81526020600482015260248101919091527f436f6d6d756e6974793a3a72656d6f76654d616e616765723a2054686973206160448201527f63636f756e7420646f65736e27742068617665206d616e6167657220726f6c656064820152608401610ae1565b610108546001600160a01b0382811691161415612d915760405162461bcd60e51b8152602060048201526044602482018190527f436f6d6d756e6974793a3a72656d6f76654d616e616765723a20596f75206172908201527f65206e6f7420616c6c6f7720746f2072656d6f766520636f6d6d756e697479416064820152633236b4b760e11b608482015260a401610ae1565b612da96000805160206165e483398151915282614194565b6040516001600160a01b0382169033907f3e902a6ee93dd5b2d48bd1009c7701a481be512b1ef73dbed2f95ea44c59ea8890600090a350565b60fb5460ff1615612e055760405162461bcd60e51b8152600401610ae19061624f565b612e1d6000805160206165e4833981519152336127ad565b612e395760405162461bcd60e51b8152600401610ae1906162f2565b61010554612eaf5760405162461bcd60e51b815260206004820152603760248201527f436f6d6d756e6974793a3a7265717565737446756e64733a205468697320636f60448201527f6d6d756e6974792069732073656c662d66756e64696e670000000000000000006064820152608401610ae1565b61010860009054906101000a90046001600160a01b03166001600160a01b031663174a71d76040518163ffffffff1660e01b8152600401600060405180830381600087803b158015612f0057600080fd5b505af1158015612f14573d6000803e3d6000fd5b5050436101065550612f269050613f2d565b60405133907f16a8b794d4e2ed6ffef50d78af3d4372ce4bfe8a399bfc23f59b7832ee47539090600090a2565b6097546001600160a01b03163314612f7d5760405162461bcd60e51b8152600401610ae1906162bd565b806101016000828254612f9091906164c9565b909155505050565b6097546001600160a01b03163314612fc25760405162461bcd60e51b8152600401610ae1906162bd565b600260c9541415612fe55760405162461bcd60e51b8152600401610ae19061636d565b600260c955612ffe6001600160a01b0384168383614481565b613006610fad565b6001600160a01b0316836001600160a01b0316141561302757613027613f2d565b816001600160a01b0316836001600160a01b03167f9b035625e569d1d2bf54830a290aefba7ab11610ba8490871dc62b86b63a89568360405161306c91815260200190565b60405180910390a35050600160c95550565b60fb5460ff16156130a15760405162461bcd60e51b8152600401610ae19061624f565b6130b96000805160206165e4833981519152336127ad565b6130d55760405162461bcd60e51b8152600401610ae1906162f2565b610e5881614bfb565b6130f66000805160206165e4833981519152336127ad565b6131125760405162461bcd60e51b8152600401610ae1906162f2565b610e5881614431565b60fb5460ff161561313e5760405162461bcd60e51b8152600401610ae19061624f565b6131566000805160206165e4833981519152336127ad565b6131725760405162461bcd60e51b8152600401610ae1906162f2565b610e5881614b9e565b60fb5460ff161561319e5760405162461bcd60e51b8152600401610ae19061624f565b6131b66000805160206165e4833981519152336127ad565b6131d25760405162461bcd60e51b8152600401610ae1906162f2565b610e5881614c85565b6097546001600160a01b031633146132055760405162461bcd60e51b8152600401610ae1906162bd565b610108546040516001600160a01b038084169216907fdd8d3b7b0badfc5d636d48e71e28015b4b8554b64d2cffba6f0a90bf7693ec0090600090a361010880546001600160a01b0319166001600160a01b038316908117909155610e5890613b54565b60405162461bcd60e51b815260206004820152603b60248201527f436f6d6d756e6974793a3a7265766f6b65526f6c653a20596f7520617265206e60448201527f6f7420616c6c6f7720746f207573652074686973206d6574686f6400000000006064820152608401610ae1565b60fb5460ff16156132f95760405162461bcd60e51b8152600401610ae19061624f565b600260c954141561331c5760405162461bcd60e51b8152600401610ae19061636d565b600260c95561332c8383836141fb565b61333584614782565b5050600160c9555050565b600260c95414156133635760405162461bcd60e51b8152600401610ae19061636d565b600260c955613387823083613376610fad565b6001600160a01b0316929190614d0f565b80610102600082825461339a91906164c9565b909155506133a89050613f2d565b60405181815233907f0553260a2e46b0577270d8992db02d30856ca880144c72d6e9503760946aef139060200160405180910390a25050600160c955565b600061104861010a614ae6565b6097546001600160a01b0316331461341d5760405162461bcd60e51b8152600401610ae1906162bd565b61011280546001600160a01b0319166001600160a01b0383169081179091556040805163f92b6c0160e01b815290516000928392909163f92b6c0191600480820192602092909190829003018186803b15801561347957600080fd5b505afa15801561348d573d6000803e3d6000fd5b505050506040513d601f19601f820116820180604052508101906134b191906160a0565b61010e54600093509091505b808310156135275761010e8054806134e557634e487b7160e01b600052603160045260246000fd5b60008281526020812060036000199093019283020180546001600160a01b0319168155600181018290556002015590558261351f8161657a565b9350506134bd565b60008060008095505b8486101561368f5761011254604051632a62b44f60e11b8152600481018890526001600160a01b03909116906354c5689e9060240160606040518083038186803b15801561357d57600080fd5b505afa158015613591573d6000803e3d6000fd5b505050506040513d601f19601f820116820180604052508101906135b59190615cd2565b604080516060810182526001600160a01b0385811682526020820185815292820184815261010e805460018101825560009190915292517f44731785622d53a842eeb261a70df6f2b61b9624656157b6168597f0656f4805600390940293840180546001600160a01b031916919093161790915591517f44731785622d53a842eeb261a70df6f2b61b9624656157b6168597f0656f480682015590517f44731785622d53a842eeb261a70df6f2b61b9624656157b6168597f0656f48079091015591945092509050856136878161657a565b965050613530565b600061369c61010f614ae6565b90505b80156136cf576136be6136b561010f6000614af0565b61010f90614d47565b506136c881616563565b905061369f565b6101125460408051634f162c6560e11b815290516000926001600160a01b031691639e2c58ca9160048083019286929190829003018186803b15801561371457600080fd5b505afa158015613728573d6000803e3d6000fd5b505050506040513d6000823e601f3d908101601f191682016040526137509190810190615d3b565b8051600099509091505b808910156137b15761379e828a8151811061378557634e487b7160e01b600052603260045260246000fd5b602002602001015161010f613f1890919063ffffffff16565b50886137a98161657a565b99505061375a565b50505050505050505050565b6097546001600160a01b031633146137e75760405162461bcd60e51b8152600401610ae1906162bd565b6001600160a01b03811661384c5760405162461bcd60e51b815260206004820152602660248201527f4f776e61626c653a206e6577206f776e657220697320746865207a65726f206160448201526564647265737360d01b6064820152608401610ae1565b610e5881614afc565b6060611048610113614bee565b61010854604051636b0de23f60e01b81523060048201523360248201526001600160a01b0390911690636b0de23f9060440160206040518083038186803b1580156138ac57600080fd5b505afa1580156138c0573d6000803e3d6000fd5b505050506040513d601f19601f820116820180604052508101906138e49190615ef3565b6139005760405162461bcd60e51b8152600401610ae19061627a565b60fb805460ff1916600117905560405133907fe1e6bc10311f2f958d6cd2d0ab7308c32089aa1acb8ab11a2ccb60028e332bd090600090a2565b61010e5460009060028110156139565750506002820154610a5d565b60028401546000613968600184616520565b90505b856003015461010e828154811061399257634e487b7160e01b600052603260045260246000fd5b9060005260206000209060030201600201541115613a515761010e81815481106139cc57634e487b7160e01b600052603260045260246000fd5b9060005260206000209060030201600201548510156139ea57613a3f565b670de0b6b3a764000061010e8281548110613a1557634e487b7160e01b600052603260045260246000fd5b90600052602060002090600302016001015483613a329190616501565b613a3c91906164e1565b91505b80613a4981616563565b91505061396b565b50949350505050565b600054610100900460ff16613a815760405162461bcd60e51b8152600401610ae190616322565b613a89614d5c565b613a91614d5c565b6126b5614d5c565b600054610100900460ff16613ac05760405162461bcd60e51b8152600401610ae190616322565b613ac8614d5c565b6126b5614d83565b600054610100900460ff16613af75760405162461bcd60e51b8152600401610ae190616322565b6126b5614db3565b600082815260656020526040808220600101805490849055905190918391839186917fbd79b86ffe0ab8e8776151514217cd7cacd52c909f66475c3af44e129f0b00ff9190a4505050565b610e918282614de1565b613b6c6000805160206165e4833981519152826127ad565b610e5857613b886000805160206165e483398151915282614de1565b6040516001600160a01b0382169033907f05a4006f300442cf8b7fdb885f5ee958812020bffb5c5a8e655fde64e5f987ed90600090a350565b806001600160a01b0316826001600160a01b03161415613c575760405162461bcd60e51b8152602060048201526044602482018190527f436f6d6d756e6974793a3a6368616e676542656e656669636961727941646472908201527f6573733a2042656e65666963696172696573206d7573742062652064696666656064820152631c995b9d60e21b608482015260a401610ae1565b6001600160a01b0380831660009081526101096020526040808220928416825290206004825460ff166005811115613c9f57634e487b7160e01b600052602160045260246000fd5b14158015613cd157506000825460ff166005811115613cce57634e487b7160e01b600052602160045260246000fd5b14155b613ced5760405162461bcd60e51b8152600401610ae1906163a4565b6004815460ff166005811115613d1357634e487b7160e01b600052602160045260246000fd5b1415613d875760405162461bcd60e51b815260206004820152603f60248201527f436f6d6d756e6974793a3a6368616e676542656e65666963696172794164647260448201527f6573733a20496e76616c6964207461726765742062656e6566696369617279006064820152608401610ae1565b6000815460ff166005811115613dad57634e487b7160e01b600052602160045260246000fd5b1415613dc3578154613dc390829060ff16614506565b613dce826004614506565b8160010154816001016000828254613de691906164c9565b9091555050600380830154908201541115613e2757613e0982826003015461393a565b816002016000828254613e1c91906164c9565b90915550613e549050565b613e3581836003015461393a565b8260020154613e4491906164c9565b6002820155600380830154908201555b6000613e6161010f614ae6565b90506000805b82811015613ecf57613e7b61010f82614af0565b6001600160a01b038116600090815260048088016020908152604080842054928901909152822080549395509092909190613eb79084906164c9565b90915550819050613ec78161657a565b915050613e67565b50846001600160a01b0316866001600160a01b03167fb53b7057ddbff0cd9111b0a1a501a9cc1a9c315eb3396cb0d47917908325999a60405160405180910390a3505050505050565b6000612bcd836001600160a01b038416614e67565b60008061010860009054906101000a90046001600160a01b03166001600160a01b0316636b68b2ef6040518163ffffffff1660e01b815260040160206040518083038186803b158015613f7f57600080fd5b505afa158015613f93573d6000803e3d6000fd5b505050506040513d601f19601f82011682018060405250810190613fb791906160a0565b9050600061010860009054906101000a90046001600160a01b03166001600160a01b031663afae65be6040518163ffffffff1660e01b815260040160206040518083038186803b15801561400a57600080fd5b505afa15801561401e573d6000803e3d6000fd5b505050506040513d601f19601f8201168201806040525081019061404291906160a0565b90506101005460001480614057575061010554155b806140625750808211155b156140715760fc549250614141565b6101005461407d610fad565b6040516370a0823160e01b81523060048201526001600160a01b0391909116906370a082319060240160206040518083038186803b1580156140be57600080fd5b505afa1580156140d2573d6000803e3d6000fd5b505050506040513d601f19601f820116820180604052508101906140f691906160a0565b61410091906164e1565b92506000828260fc546141139190616501565b61411d91906164e1565b90508084101561412f5780935061413f565b60fc5484111561413f5760fc5493505b505b61011154831461418f576101115460408051918252602082018590527fc22e16deec6f587d0a1aad7275c1621e6c24431fea14dd71e8f3243e9fbc5ca3910160405180910390a16101118390555b505050565b61419e82826127ad565b15610e915760008281526065602090815260408083206001600160a01b0385168085529252808320805460ff1916905551339285917ff6391f5c32d9c69d2a47ea670b442974b53935d1edc7fd64eb21e047a839171b9190a45050565b61010860009054906101000a90046001600160a01b03166001600160a01b031663af2d77f86040518163ffffffff1660e01b815260040160206040518083038186803b15801561424a57600080fd5b505afa15801561425e573d6000803e3d6000fd5b505050506040513d601f19601f820116820180604052508101906142829190615b73565b6001600160a01b0316336001600160a01b0316146142f75760405162461bcd60e51b815260206004820152602c60248201527f436f6d6d756e6974793a2053656e646572206d7573742062652074686520626160448201526b18dad95b99081dd85b1b195d60a21b6064820152608401610ae1565b428310156143475760405162461bcd60e51b815260206004820152601c60248201527f436f6d6d756e6974793a205369676e617475726520746f6f206f6c64000000006044820152606401610ae1565b6040805133602082015230918101919091526060810184905260009060800160405160208183030381529060405280519060200120905060006143cb84848080601f0160208091040260200160405190810160405280939291908181526020018383808284376000920191909152506143c59250869150614eb69050565b90614f09565b90506143e56000805160206165e4833981519152826127ad565b6113805760405162461bcd60e51b815260206004820152601c60248201527f436f6d6d756e6974793a20496e76616c6964207369676e6174757265000000006044820152606401610ae1565b80516000905b8082101561418f5761446f83838151811061446257634e487b7160e01b600052603260045260246000fd5b60200260200101516149de565b816144798161657a565b925050614437565b6040516001600160a01b03831660248201526044810182905261418f90849063a9059cbb60e01b906064015b60408051601f198184030181529190526020810180516001600160e01b03166001600160e01b031990931692909217909152614f25565b6001600160a01b03811660009081526001830160205260408120541515612bcd565b80600581111561452657634e487b7160e01b600052602160045260246000fd5b825460ff16600581111561454a57634e487b7160e01b600052602160045260246000fd5b1415614554575050565b600181600581111561457657634e487b7160e01b600052602160045260246000fd5b14156146f05760fc546101035460ff546145909190616520565b10156145fc5760405162461bcd60e51b815260206004820152603560248201527f436f6d6d756e6974793a3a5f6368616e676542656e656669636961727953746160448201527474653a204d617820636c61696d20746f6f206c6f7760581b6064820152608401610ae1565b61010d541580614611575061010d5461010054105b6146ba5760405162461bcd60e51b815260206004820152606860248201527f436f6d6d756e6974793a3a5f6368616e676542656e656669636961727953746160448201527f74653a205468697320636f6d6d756e697479206861732072656163686564207460648201527f6865206d6178696d756d206e756d626572206f662076616c69642062656e6566608482015267696369617269657360c01b60a482015260c401610ae1565b61010080549060006146cb8361657a565b91905055506101035460ff60008282546146e59190616520565b9091555061474d9050565b6001825460ff16600581111561471657634e487b7160e01b600052602160045260246000fd5b141561474d57610100805490600061472d83616563565b91905055506101035460ff600082825461474791906164c9565b90915550505b81548190839060ff1916600183600581111561477957634e487b7160e01b600052602160045260246000fd5b02179055505050565b80516000905b8082101561418f576147c08383815181106147b357634e487b7160e01b600052603260045260246000fd5b6020026020010151614839565b8282815181106147e057634e487b7160e01b600052603260045260246000fd5b60200260200101516001600160a01b0316336001600160a01b03167fbb39c36a7502b7256e1a687254146a9a2ea7b146c77cb9e40eb0e2b8793781e160405160405180910390a3816148318161657a565b925050614788565b6001600160a01b03811660009081526101096020526040812090815460ff16600581111561487757634e487b7160e01b600052602160045260246000fd5b14614880575050565b610112546001600160a01b0316156149ac5761011254604051630156773960e01b81526001600160a01b038481166004830152600092169063015677399060240160806040518083038186803b1580156148d957600080fd5b505afa1580156148ed573d6000803e3d6000fd5b505050506040513d601f19601f820116820180604052508101906149119190616062565b50919250600091506149209050565b81600581111561494057634e487b7160e01b600052602160045260246000fd5b146149aa5760405162461bcd60e51b815260206004820152603460248201527f436f6d6d756e6974793a3a61646442656e65666963696172793a20496e76616c60448201527369642062656e656669636961727920737461746560601b6064820152608401610ae1565b505b6149b7816001614506565b4360038201556149c961010a83613f18565b50610e9182662386f26fc100006120c2610fad565b6001600160a01b0381166000908152610109602052604090206001815460ff166005811115614a1d57634e487b7160e01b600052602160045260246000fd5b1480614a4c57506002815460ff166005811115614a4a57634e487b7160e01b600052602160045260246000fd5b145b15610e9157614a5c816003614506565b6040516001600160a01b0383169033907f1a6590bd0cabbfcc7c86bef99e1034054e179905cfcc294598fcd426c092244290600090a35050565b80516000905b8082101561418f57614ad4838381518110614ac757634e487b7160e01b600052603260045260246000fd5b6020026020010151614ff7565b81614ade8161657a565b925050614a9c565b6000610a5d825490565b6000612bcd8383615429565b609780546001600160a01b038381166001600160a01b0319831681179093556040519116919082907f8be0079c531659141344cd1fd0a4f28419497f9722a3daafe3b4186f6b6457e090600090a35050565b80516000905b8082101561418f57614b8c838381518110614b7f57634e487b7160e01b600052603260045260246000fd5b6020026020010151614bfb565b81614b968161657a565b925050614b54565b80516000905b8082101561418f57614bdc838381518110614bcf57634e487b7160e01b600052603260045260246000fd5b6020026020010151614c85565b81614be68161657a565b925050614ba4565b60606000612bcd83615461565b6001600160a01b0381166000908152610109602052604090206001815460ff166005811115614c3a57634e487b7160e01b600052602160045260246000fd5b1415610e9157614c4b816002614506565b6040516001600160a01b0383169033907f2b9ef93c7856b47a1b624fa3fcc4b651d388dd6d16327f3ad22b05f3da8b0f1590600090a35050565b6001600160a01b0381166000908152610109602052604090206002815460ff166005811115614cc457634e487b7160e01b600052602160045260246000fd5b1415610e9157614cd5816001614506565b6040516001600160a01b0383169033907fa589fb4f2925123e7a030dd6bbe76be46a03f8ce0ea53a78dbb3383c7797db2c90600090a35050565b6040516001600160a01b0380851660248301528316604482015260648101829052611d999085906323b872dd60e01b906084016144ad565b6000612bcd836001600160a01b0384166154bd565b600054610100900460ff166126b55760405162461bcd60e51b8152600401610ae190616322565b600054610100900460ff16614daa5760405162461bcd60e51b8152600401610ae190616322565b6126b533614afc565b600054610100900460ff16614dda5760405162461bcd60e51b8152600401610ae190616322565b600160c955565b614deb82826127ad565b610e915760008281526065602090815260408083206001600160a01b03851684529091529020805460ff19166001179055614e233390565b6001600160a01b0316816001600160a01b0316837f2f8788117e7eff1d82e926ec794901d17c78024a50270940304540a733656f0d60405160405180910390a45050565b6000818152600183016020526040812054614eae57508154600181810184556000848152602080822090930184905584548482528286019093526040902091909155610a5d565b506000610a5d565b6040517f19457468657265756d205369676e6564204d6573736167653a0a3332000000006020820152603c8101829052600090605c01604051602081830303815290604052805190602001209050919050565b6000806000614f1885856155da565b915091506126798161564a565b6000614f7a826040518060400160405280602081526020017f5361666545524332303a206c6f772d6c6576656c2063616c6c206661696c6564815250856001600160a01b031661584b9092919063ffffffff16565b80519091501561418f5780806020019051810190614f989190615ef3565b61418f5760405162461bcd60e51b815260206004820152602a60248201527f5361666545524332303a204552433230206f7065726174696f6e20646964206e6044820152691bdd081cdd58d8d9595960b21b6064820152608401610ae1565b6001600160a01b03811660009081526101096020526040812090815460ff16600581111561503557634e487b7160e01b600052602160045260246000fd5b1461503e575050565b61011254604051630156773960e01b81526001600160a01b038481166004830152600092839283928392169063015677399060240160806040518083038186803b15801561508b57600080fd5b505afa15801561509f573d6000803e3d6000fd5b505050506040513d601f19601f820116820180604052508101906150c39190616062565b9296509094509250905060058460058111156150ef57634e487b7160e01b600052602160045260246000fd5b141561515c5760405162461bcd60e51b815260206004820152603660248201527f436f6d6d756e6974793a3a636f707942656e65666963696172793a2042656e65604482015275199a58da585c9e48185b1c9958591e4818dbdc1a595960521b6064820152608401610ae1565b6151668585614506565b60018501839055600285018290556003850181905561011254604051636b31f2ad60e01b81526001600160a01b0388811660048301526000921690636b31f2ad9060240160006040518083038186803b1580156151c257600080fd5b505afa1580156151d6573d6000803e3d6000fd5b505050506040513d6000823e601f3d908101601f191682016040526151fe9190810190615e6c565b9050600061011260009054906101000a90046001600160a01b03166001600160a01b0316639e2c58ca6040518163ffffffff1660e01b815260040160006040518083038186803b15801561525157600080fd5b505afa158015615265573d6000803e3d6000fd5b505050506040513d6000823e601f3d908101601f1916820160405261528d9190810190615d3b565b825190915060005b8181101561536b576152d98382815181106152c057634e487b7160e01b600052603260045260246000fd5b602002602001015161010f6144e490919063ffffffff16565b15615359578381815181106152fe57634e487b7160e01b600052603260045260246000fd5b602002602001015189600401600085848151811061532c57634e487b7160e01b600052603260045260246000fd5b60200260200101516001600160a01b03166001600160a01b03168152602001908152602001600020819055505b806153638161657a565b915050615295565b506101125460405163572b9e7b60e01b81526001600160a01b039091169063572b9e7b906153a0908c90600590600401616151565b600060405180830381600087803b1580156153ba57600080fd5b505af11580156153ce573d6000803e3d6000fd5b505050506153e78961010a613f1890919063ffffffff16565b506040516001600160a01b038a169033907f7b385acd6ce016fe5a2ca902550e21b2c49056139ce3e7517e4c63ecd535b71490600090a3505050505050505050565b600082600001828154811061544e57634e487b7160e01b600052603260045260246000fd5b9060005260206000200154905092915050565b6060816000018054806020026020016040519081016040528092919081815260200182805480156154b157602002820191906000526020600020905b81548152602001906001019080831161549d575b50505050509050919050565b600081815260018301602052604081205480156155d05760006154e1600183616520565b85549091506000906154f590600190616520565b905081811461557657600086600001828154811061552357634e487b7160e01b600052603260045260246000fd5b906000526020600020015490508087600001848154811061555457634e487b7160e01b600052603260045260246000fd5b6000918252602080832090910192909255918252600188019052604090208390555b855486908061559557634e487b7160e01b600052603160045260246000fd5b600190038181906000526020600020016000905590558560010160008681526020019081526020016000206000905560019350505050610a5d565b6000915050610a5d565b6000808251604114156156115760208301516040840151606085015160001a61560587828585615862565b94509450505050615643565b82516040141561563b576020830151604084015161563086838361594f565b935093505050615643565b506000905060025b9250929050565b600081600481111561566c57634e487b7160e01b600052602160045260246000fd5b14156156755750565b600181600481111561569757634e487b7160e01b600052602160045260246000fd5b14156156e55760405162461bcd60e51b815260206004820152601860248201527f45434453413a20696e76616c6964207369676e617475726500000000000000006044820152606401610ae1565b600281600481111561570757634e487b7160e01b600052602160045260246000fd5b14156157555760405162461bcd60e51b815260206004820152601f60248201527f45434453413a20696e76616c6964207369676e6174757265206c656e677468006044820152606401610ae1565b600381600481111561577757634e487b7160e01b600052602160045260246000fd5b14156157d05760405162461bcd60e51b815260206004820152602260248201527f45434453413a20696e76616c6964207369676e6174757265202773272076616c604482015261756560f01b6064820152608401610ae1565b60048160048111156157f257634e487b7160e01b600052602160045260246000fd5b1415610e585760405162461bcd60e51b815260206004820152602260248201527f45434453413a20696e76616c6964207369676e6174757265202776272076616c604482015261756560f01b6064820152608401610ae1565b606061585a848460008561597e565b949350505050565b6000807f7fffffffffffffffffffffffffffffff5d576e7357a4501ddfe92f46681b20a08311156158995750600090506003615946565b8460ff16601b141580156158b157508460ff16601c14155b156158c25750600090506004615946565b6040805160008082526020820180845289905260ff881692820192909252606081018690526080810185905260019060a0016020604051602081039080840390855afa158015615916573d6000803e3d6000fd5b5050604051601f1901519150506001600160a01b03811661593f57600060019250925050615946565b9150600090505b94509492505050565b6000806001600160ff1b03831660ff84901c601b0161597087828885615862565b935093505050935093915050565b6060824710156159df5760405162461bcd60e51b815260206004820152602660248201527f416464726573733a20696e73756666696369656e742062616c616e636520666f6044820152651c8818d85b1b60d21b6064820152608401610ae1565b843b615a2d5760405162461bcd60e51b815260206004820152601d60248201527f416464726573733a2063616c6c20746f206e6f6e2d636f6e74726163740000006044820152606401610ae1565b600080866001600160a01b03168587604051615a499190616135565b60006040518083038185875af1925050503d8060008114615a86576040519150601f19603f3d011682016040523d82523d6000602084013e615a8b565b606091505b5091509150615a9b828286615aa6565b979650505050505050565b60608315615ab5575081612bcd565b825115615ac55782518084602001fd5b8160405162461bcd60e51b8152600401610ae1919061621c565b600082601f830112615aef578081fd5b81356020615b04615aff836164a5565b616474565b80838252828201915082860187848660051b8901011115615b23578586fd5b855b85811015615b4a578135615b38816165c1565b84529284019290840190600101615b25565b5090979650505050505050565b600060208284031215615b68578081fd5b8135612bcd816165c1565b600060208284031215615b84578081fd5b8151612bcd816165c1565b60008060408385031215615ba1578081fd5b8235615bac816165c1565b91506020830135615bbc816165c1565b809150509250929050565b60008060008060008060008060008060006101608c8e031215615be8578687fd5b8b35615bf3816165c1565b9a5060208c013567ffffffffffffffff811115615c0e578788fd5b615c1a8e828f01615adf565b9a505060408c0135985060608c0135975060808c0135965060a08c0135955060c08c0135945060e08c013593506101008c013592506101208c013591506101408c0135615c66816165c1565b809150509295989b509295989b9093969950565b60008060408385031215615c8c578182fd5b8235615c97816165c1565b91506020830135615bbc816165d6565b60008060408385031215615cb9578182fd5b8235615cc4816165c1565b946020939093013593505050565b600080600060608486031215615ce6578081fd5b8351615cf1816165c1565b602085015160409095015190969495509392505050565b600060208284031215615d19578081fd5b813567ffffffffffffffff811115615d2f578182fd5b61585a84828501615adf565b60006020808385031215615d4d578182fd5b825167ffffffffffffffff811115615d63578283fd5b8301601f81018513615d73578283fd5b8051615d81615aff826164a5565b80828252848201915084840188868560051b8701011115615da0578687fd5b8694505b83851015615dcb578051615db7816165c1565b835260019490940193918501918501615da4565b50979650505050505050565b60008060008060608587031215615dec578182fd5b843567ffffffffffffffff80821115615e03578384fd5b615e0f88838901615adf565b9550602087013594506040870135915080821115615e2b578384fd5b818701915087601f830112615e3e578384fd5b813581811115615e4c578485fd5b886020828501011115615e5d578485fd5b95989497505060200194505050565b60006020808385031215615e7e578182fd5b825167ffffffffffffffff811115615e94578283fd5b8301601f81018513615ea4578283fd5b8051615eb2615aff826164a5565b80828252848201915084840188868560051b8701011115615ed1578687fd5b8694505b83851015615dcb578051835260019490940193918501918501615ed5565b600060208284031215615f04578081fd5b81518015158114612bcd578182fd5b600060208284031215615f24578081fd5b5035919050565b60008060408385031215615f3d578182fd5b823591506020830135615bbc816165c1565b600060208284031215615f60578081fd5b81356001600160e01b031981168114612bcd578182fd5b600080600060608486031215615f8b578081fd5b8335615f96816165c1565b92506020840135615fa6816165c1565b929592945050506040919091013590565b60008060008060008060008060e0898b031215615fd2578182fd5b8835615fdd816165c1565b9750602089013567ffffffffffffffff80821115615ff9578384fd5b818b0191508b601f83011261600c578384fd5b81358181111561601a578485fd5b8c60208260051b850101111561602e578485fd5b999c6020929092019b50989960408101359950606081013598506080810135975060a0810135965060c00135945092505050565b60008060008060808587031215616077578182fd5b8451616082816165d6565b60208601516040870151606090970151919890975090945092505050565b6000602082840312156160b1578081fd5b5051919050565b600080604083850312156160ca578182fd5b50508035926020909101359150565b600080600080600060a086880312156160f0578283fd5b505083359560208501359550604085013594606081013594506080013592509050565b6006811061613157634e487b7160e01b600052602160045260246000fd5b9052565b60008251616147818460208701616537565b9190910192915050565b6001600160a01b038316815260408101612bcd6020830184616113565b6020808252825182820181905260009190848201906040850190845b818110156161af5783516001600160a01b03168352928401929184019160010161618a565b50909695505050505050565b6020808252825182820181905260009190848201906040850190845b818110156161af578351835292840192918401916001016161d7565b608081016162018287616113565b84602083015283604083015282606083015295945050505050565b602081526000825180602084015261623b816040850160208701616537565b601f01601f19169190910160400192915050565b60208082526011908201527010dbdb5b5d5b9a5d1e4e881b1bd8dad959607a1b604082015260600190565b60208082526023908201527f436f6d6d756e6974793a204e4f545f414d4241535341444f525f4f525f454e5460408201526249545960e81b606082015260800190565b6020808252818101527f4f776e61626c653a2063616c6c6572206973206e6f7420746865206f776e6572604082015260600190565b60208082526016908201527521b7b6b6bab734ba3c9d102727aa2fa6a0a720a3a2a960511b604082015260600190565b6020808252602b908201527f496e697469616c697a61626c653a20636f6e7472616374206973206e6f74206960408201526a6e697469616c697a696e6760a81b606082015260800190565b6020808252601f908201527f5265656e7472616e637947756172643a207265656e7472616e742063616c6c00604082015260600190565b60208082526038908201527f436f6d6d756e6974793a3a6368616e676542656e65666963696172794164647260408201527f6573733a20496e76616c69642062656e65666963696172790000000000000000606082015260800190565b868152602080820187905260a0604083018190528201859052600090869060c08401835b88811015616453578335616438816165c1565b6001600160a01b031682529282019290820190600101616425565b506001600160a01b0396909616606085015250505060800152949350505050565b604051601f8201601f1916810167ffffffffffffffff8111828210171561649d5761649d6165ab565b604052919050565b600067ffffffffffffffff8211156164bf576164bf6165ab565b5060051b60200190565b600082198211156164dc576164dc616595565b500190565b6000826164fc57634e487b7160e01b81526012600452602481fd5b500490565b600081600019048311821515161561651b5761651b616595565b500290565b60008282101561653257616532616595565b500390565b60005b8381101561655257818101518382015260200161653a565b83811115611d995750506000910152565b60008161657257616572616595565b506000190190565b600060001982141561658e5761658e616595565b5060010190565b634e487b7160e01b600052601160045260246000fd5b634e487b7160e01b600052604160045260246000fd5b6001600160a01b0381168114610e5857600080fd5b60068110610e5857600080fdfe241ecf16d79d0f8dbfb92cbc07fe17840425976cf0667f022fe9877caa831b08a26469706673582212204aa2a7ae414db4a556375c1f875930266a31312b6da8f646f94eeecb92a40f0c64736f6c63430008040033",
  "linkReferences": {},
  "deployedLinkReferences": {}
}