{
  "_format": "hh-sol-artifact-1",
  "contractName": "CommunityAdminImplementationOld",
  "sourceName": "contracts/mocks/community/CommunityAdminImplementationOld.sol",
  "abi": [
    {
      "anonymous": false,
      "inputs": [
        {
          "indexed": true,
          "internalType": "address",
          "name": "communityAddress",
          "type": "address"
        },
        {
          "indexed": false,
          "internalType": "address[]",
          "name": "managers",
          "type": "address[]"
        },
        {
          "indexed": false,
          "internalType": "uint256",
          "name": "claimAmount",
          "type": "uint256"
        },
        {
          "indexed": false,
          "internalType": "uint256",
          "name": "maxClaim",
          "type": "uint256"
        },
        {
          "indexed": false,
          "internalType": "uint256",
          "name": "decreaseStep",
          "type": "uint256"
        },
        {
          "indexed": false,
          "internalType": "uint256",
          "name": "baseInterval",
          "type": "uint256"
        },
        {
          "indexed": false,
          "internalType": "uint256",
          "name": "incrementInterval",
          "type": "uint256"
        },
        {
          "indexed": false,
          "internalType": "uint256",
          "name": "minTranche",
          "type": "uint256"
        },
        {
          "indexed": false,
          "internalType": "uint256",
          "name": "maxTranche",
          "type": "uint256"
        }
      ],
      "name": "CommunityAdded",
      "type": "event"
    },
    {
      "anonymous": false,
      "inputs": [
        {
          "indexed": true,
          "internalType": "address",
          "name": "community",
          "type": "address"
        },
        {
          "indexed": false,
          "internalType": "uint256",
          "name": "amount",
          "type": "uint256"
        }
      ],
      "name": "CommunityFunded",
      "type": "event"
    },
    {
      "anonymous": false,
      "inputs": [
        {
          "indexed": false,
          "internalType": "address[]",
          "name": "managers",
          "type": "address[]"
        },
        {
          "indexed": true,
          "internalType": "address",
          "name": "communityAddress",
          "type": "address"
        },
        {
          "indexed": true,
          "internalType": "address",
          "name": "previousCommunityAddress",
          "type": "address"
        }
      ],
      "name": "CommunityMigrated",
      "type": "event"
    },
    {
      "anonymous": false,
      "inputs": [
        {
          "indexed": true,
          "internalType": "address",
          "name": "communityAddress",
          "type": "address"
        }
      ],
      "name": "CommunityRemoved",
      "type": "event"
    },
    {
      "anonymous": false,
      "inputs": [
        {
          "indexed": true,
          "internalType": "address",
          "name": "oldCommunityTemplate",
          "type": "address"
        },
        {
          "indexed": true,
          "internalType": "address",
          "name": "newCommunityTemplate",
          "type": "address"
        }
      ],
      "name": "CommunityTemplateUpdated",
      "type": "event"
    },
    {
      "anonymous": false,
      "inputs": [
        {
          "indexed": true,
          "internalType": "address",
          "name": "previousOwner",
          "type": "address"
        },
        {
          "indexed": true,
          "internalType": "address",
          "name": "newOwner",
          "type": "address"
        }
      ],
      "name": "OwnershipTransferred",
      "type": "event"
    },
    {
      "anonymous": false,
      "inputs": [
        {
          "indexed": true,
          "internalType": "address",
          "name": "token",
          "type": "address"
        },
        {
          "indexed": true,
          "internalType": "address",
          "name": "to",
          "type": "address"
        },
        {
          "indexed": false,
          "internalType": "uint256",
          "name": "amount",
          "type": "uint256"
        }
      ],
      "name": "TransferERC20",
      "type": "event"
    },
    {
      "anonymous": false,
      "inputs": [
        {
          "indexed": true,
          "internalType": "address",
          "name": "oldTreasury",
          "type": "address"
        },
        {
          "indexed": true,
          "internalType": "address",
          "name": "newTreasury",
          "type": "address"
        }
      ],
      "name": "TreasuryUpdated",
      "type": "event"
    },
    {
      "inputs": [
        {
          "internalType": "address[]",
          "name": "_managers",
          "type": "address[]"
        },
        {
          "internalType": "uint256",
          "name": "_claimAmount",
          "type": "uint256"
        },
        {
          "internalType": "uint256",
          "name": "_maxClaim",
          "type": "uint256"
        },
        {
          "internalType": "uint256",
          "name": "_decreaseStep",
          "type": "uint256"
        },
        {
          "internalType": "uint256",
          "name": "_baseInterval",
          "type": "uint256"
        },
        {
          "internalType": "uint256",
          "name": "_incrementInterval",
          "type": "uint256"
        },
        {
          "internalType": "uint256",
          "name": "_minTranche",
          "type": "uint256"
        },
        {
          "internalType": "uint256",
          "name": "_maxTranche",
          "type": "uint256"
        }
      ],
      "name": "addCommunity",
      "outputs": [],
      "stateMutability": "nonpayable",
      "type": "function"
    },
    {
      "inputs": [
        {
          "internalType": "contract ICommunity",
          "name": "_community",
          "type": "address"
        },
        {
          "internalType": "address",
          "name": "_account",
          "type": "address"
        }
      ],
      "name": "addManagerToCommunity",
      "outputs": [],
      "stateMutability": "nonpayable",
      "type": "function"
    },
    {
      "inputs": [],
      "name": "cUSD",
      "outputs": [
        {
          "internalType": "contract IERC20Upgradeable",
          "name": "",
          "type": "address"
        }
      ],
      "stateMutability": "view",
      "type": "function"
    },
    {
      "inputs": [
        {
          "internalType": "address",
          "name": "",
          "type": "address"
        }
      ],
      "name": "communities",
      "outputs": [
        {
          "internalType": "enum ICommunityAdmin.CommunityState",
          "name": "",
          "type": "uint8"
        }
      ],
      "stateMutability": "view",
      "type": "function"
    },
    {
      "inputs": [
        {
          "internalType": "uint256",
          "name": "_index",
          "type": "uint256"
        }
      ],
      "name": "communityListAt",
      "outputs": [
        {
          "internalType": "address",
          "name": "",
          "type": "address"
        }
      ],
      "stateMutability": "view",
      "type": "function"
    },
    {
      "inputs": [],
      "name": "communityListLength",
      "outputs": [
        {
          "internalType": "uint256",
          "name": "",
          "type": "uint256"
        }
      ],
      "stateMutability": "view",
      "type": "function"
    },
    {
      "inputs": [],
      "name": "communityProxyAdmin",
      "outputs": [
        {
          "internalType": "contract ProxyAdmin",
          "name": "",
          "type": "address"
        }
      ],
      "stateMutability": "view",
      "type": "function"
    },
    {
      "inputs": [],
      "name": "communityTemplate",
      "outputs": [
        {
          "internalType": "contract ICommunity",
          "name": "",
          "type": "address"
        }
      ],
      "stateMutability": "view",
      "type": "function"
    },
    {
      "inputs": [],
      "name": "fundCommunity",
      "outputs": [],
      "stateMutability": "nonpayable",
      "type": "function"
    },
    {
      "inputs": [],
      "name": "getVersion",
      "outputs": [
        {
          "internalType": "uint256",
          "name": "",
          "type": "uint256"
        }
      ],
      "stateMutability": "pure",
      "type": "function"
    },
    {
      "inputs": [
        {
          "internalType": "contract ICommunity",
          "name": "_communityTemplate",
          "type": "address"
        },
        {
          "internalType": "contract IERC20Upgradeable",
          "name": "_cUSD",
          "type": "address"
        }
      ],
      "name": "initialize",
      "outputs": [],
      "stateMutability": "nonpayable",
      "type": "function"
    },
    {
      "inputs": [
        {
          "internalType": "address[]",
          "name": "_managers",
          "type": "address[]"
        },
        {
          "internalType": "contract ICommunity",
          "name": "_previousCommunity",
          "type": "address"
        }
      ],
      "name": "migrateCommunity",
      "outputs": [],
      "stateMutability": "nonpayable",
      "type": "function"
    },
    {
      "inputs": [],
      "name": "owner",
      "outputs": [
        {
          "internalType": "address",
          "name": "",
          "type": "address"
        }
      ],
      "stateMutability": "view",
      "type": "function"
    },
    {
      "inputs": [
        {
          "internalType": "contract ICommunity",
          "name": "_community",
          "type": "address"
        }
      ],
      "name": "removeCommunity",
      "outputs": [],
      "stateMutability": "nonpayable",
      "type": "function"
    },
    {
      "inputs": [],
      "name": "renounceOwnership",
      "outputs": [],
      "stateMutability": "nonpayable",
      "type": "function"
    },
    {
      "inputs": [
        {
          "internalType": "contract IERC20Upgradeable",
          "name": "_token",
          "type": "address"
        },
        {
          "internalType": "address",
          "name": "_to",
          "type": "address"
        },
        {
          "internalType": "uint256",
          "name": "_amount",
          "type": "uint256"
        }
      ],
      "name": "transfer",
      "outputs": [],
      "stateMutability": "nonpayable",
      "type": "function"
    },
    {
      "inputs": [
        {
          "internalType": "contract ICommunity",
          "name": "_community",
          "type": "address"
        },
        {
          "internalType": "contract IERC20Upgradeable",
          "name": "_token",
          "type": "address"
        },
        {
          "internalType": "address",
          "name": "_to",
          "type": "address"
        },
        {
          "internalType": "uint256",
          "name": "_amount",
          "type": "uint256"
        }
      ],
      "name": "transferFromCommunity",
      "outputs": [],
      "stateMutability": "nonpayable",
      "type": "function"
    },
    {
      "inputs": [
        {
          "internalType": "address",
          "name": "newOwner",
          "type": "address"
        }
      ],
      "name": "transferOwnership",
      "outputs": [],
      "stateMutability": "nonpayable",
      "type": "function"
    },
    {
      "inputs": [],
      "name": "treasury",
      "outputs": [
        {
          "internalType": "contract ITreasury",
          "name": "",
          "type": "address"
        }
      ],
      "stateMutability": "view",
      "type": "function"
    },
    {
      "inputs": [
        {
          "internalType": "contract ICommunity",
          "name": "_community",
          "type": "address"
        },
        {
          "internalType": "uint256",
          "name": "_claimAmount",
          "type": "uint256"
        },
        {
          "internalType": "uint256",
          "name": "_maxClaim",
          "type": "uint256"
        },
        {
          "internalType": "uint256",
          "name": "_decreaseStep",
          "type": "uint256"
        },
        {
          "internalType": "uint256",
          "name": "_baseInterval",
          "type": "uint256"
        },
        {
          "internalType": "uint256",
          "name": "_incrementInterval",
          "type": "uint256"
        }
      ],
      "name": "updateBeneficiaryParams",
      "outputs": [],
      "stateMutability": "nonpayable",
      "type": "function"
    },
    {
      "inputs": [
        {
          "internalType": "contract ICommunity",
          "name": "_community",
          "type": "address"
        },
        {
          "internalType": "uint256",
          "name": "_minTranche",
          "type": "uint256"
        },
        {
          "internalType": "uint256",
          "name": "_maxTranche",
          "type": "uint256"
        }
      ],
      "name": "updateCommunityParams",
      "outputs": [],
      "stateMutability": "nonpayable",
      "type": "function"
    },
    {
      "inputs": [
        {
          "internalType": "contract ICommunity",
          "name": "_newCommunityTemplate",
          "type": "address"
        }
      ],
      "name": "updateCommunityTemplate",
      "outputs": [],
      "stateMutability": "nonpayable",
      "type": "function"
    },
    {
      "inputs": [
        {
          "internalType": "address",
          "name": "_communityProxy",
          "type": "address"
        },
        {
          "internalType": "address",
          "name": "_newCommunityTemplate",
          "type": "address"
        }
      ],
      "name": "updateProxyImplementation",
      "outputs": [],
      "stateMutability": "nonpayable",
      "type": "function"
    },
    {
      "inputs": [
        {
          "internalType": "contract ITreasury",
          "name": "_newTreasury",
          "type": "address"
        }
      ],
      "name": "updateTreasury",
      "outputs": [],
      "stateMutability": "nonpayable",
      "type": "function"
    }
  ],
  "bytecode": "0x608060405234801561001057600080fd5b5061459e806100206000396000f3fe60806040523480156200001157600080fd5b5060043610620001755760003560e01c806371582c0311620000d3578063926345401162000086578063926345401462000328578063a4937c51146200033f578063add9b3801462000356578063beabacc8146200036a578063f00d09641462000381578063f2fde38b146200038b57600080fd5b806371582c0314620002855780637f2813d2146200029c5780637f51bb1f14620002d157806381449efe14620002e85780638da5cb5b14620002ff5780638e2d90db146200031157600080fd5b80631fccf672116200012c5780631fccf672146200020e578063372a8f4d146200022257806339f539a21462000239578063485cc955146200025057806361d027b31462000267578063715018a6146200027b57600080fd5b8063016a0416146200017a578063082f3cac14620001ab5780630be826c314620001c45780630d8e6e2c14620001db578063174a71d714620001ed5780631d2c935914620001f7575b600080fd5b609a546200018e906001600160a01b031681565b6040516001600160a01b0390911681526020015b60405180910390f35b620001c2620001bc36600462002a4e565b620003a2565b005b620001c2620001d5366004620029ad565b62000458565b60015b604051908152602001620001a2565b620001c2620004e7565b620001c262000208366004620029c0565b6200099d565b6097546200018e906001600160a01b031681565b6200018e6200023336600462002ae1565b62000a66565b620001c26200024a3660046200288a565b62000a7b565b620001c262000261366004620029ad565b62000ae3565b6098546200018e906001600160a01b031681565b620001c262000c33565b620001c2620002963660046200284c565b62000c6e565b620002c2620002ad3660046200284c565b609b6020526000908152604090205460ff1681565b604051620001a2919062002cc0565b620001c2620002e23660046200284c565b62000ced565b620001c2620002f936600462002a17565b62000d6c565b6033546001600160a01b03166200018e565b620001c262000322366004620028c7565b62000e01565b620001c2620003393660046200284c565b6200169d565b620001c26200035036600462002912565b620018e4565b6099546200018e906001600160a01b031681565b620001c26200037b36600462002a9c565b62001b54565b620001de62001c1a565b620001c26200039c3660046200284c565b62001c2d565b6033546001600160a01b03163314620003d85760405162461bcd60e51b8152600401620003cf9062002cfe565b60405180910390fd5b604051632fd7910360e01b815260048101869052602481018590526044810184905260648101839052608481018290526001600160a01b03871690632fd791039060a401600060405180830381600087803b1580156200043757600080fd5b505af11580156200044c573d6000803e3d6000fd5b50505050505050505050565b6033546001600160a01b03163314620004855760405162461bcd60e51b8152600401620003cf9062002cfe565b6040516316830bbd60e11b81526001600160a01b038281166004830152831690632d06177a906024015b600060405180830381600087803b158015620004ca57600080fd5b505af1158015620004df573d6000803e3d6000fd5b505050505050565b6001336000908152609b602052604090205460ff1660038111156200051c57634e487b7160e01b600052602160045260246000fd5b146200056b5760405162461bcd60e51b815260206004820152601d60248201527f436f6d6d756e69747941646d696e3a204e4f545f434f4d4d554e4954590000006044820152606401620003cf565b6097546040516370a0823160e01b81523360048201819052916000916001600160a01b03909116906370a082319060240160206040518083038186803b158015620005b557600080fd5b505afa158015620005ca573d6000803e3d6000fd5b505050506040513d601f19601f82011682018060405250810190620005f0919062002afa565b9050816001600160a01b031663dd4414bb6040518163ffffffff1660e01b815260040160206040518083038186803b1580156200062c57600080fd5b505afa15801562000641573d6000803e3d6000fd5b505050506040513d601f19601f8201168201806040525081019062000667919062002afa565b8110620006dd5760405162461bcd60e51b815260206004820152603e60248201527f436f6d6d756e69747941646d696e3a3a66756e64436f6d6d756e6974793a207460448201527f68697320636f6d6d756e6974792068617320656e6f7567682066756e647300006064820152608401620003cf565b816001600160a01b0316630e5b7c536040518163ffffffff1660e01b815260040160206040518083038186803b1580156200071757600080fd5b505afa1580156200072c573d6000803e3d6000fd5b505050506040513d601f19601f8201168201806040525081019062000752919062002afa565b826001600160a01b03166309c338c36040518163ffffffff1660e01b815260040160206040518083038186803b1580156200078c57600080fd5b505afa158015620007a1573d6000803e3d6000fd5b505050506040513d601f19601f82011682018060405250810190620007c7919062002afa565b620007d3919062002db5565b43116200085d5760405162461bcd60e51b815260206004820152604b60248201527f436f6d6d756e69747941646d696e3a3a66756e64436f6d6d756e6974793a207460448201527f68697320636f6d6d756e697479206973206e6f7420616c6c6f77656420746f2060648201526a1c995c5d595cdd081e595d60aa1b608482015260a401620003cf565b60006200086a3362001ccf565b9050818111156200099857600062000883838362002e13565b6097546098546040516370a0823160e01b81526001600160a01b039182166004820152929350600092600a9291909116906370a082319060240160206040518083038186803b158015620008d657600080fd5b505afa158015620008eb573d6000803e3d6000fd5b505050506040513d601f19601f8201168201806040525081019062000911919062002afa565b6200091d919062002dd0565b905080821115620009895760405162461bcd60e51b815260206004820152602f60248201527f436f6d6d756e69747941646d696e3a3a66756e64436f6d6d756e6974793a204e60448201526e6f7420656e6f7567682066756e647360881b6064820152608401620003cf565b62000995858362002020565b50505b505050565b6033546001600160a01b03163314620009ca5760405162461bcd60e51b8152600401620003cf9062002cfe565b60026065541415620009f05760405162461bcd60e51b8152600401620003cf9062002d7e565b60026065556040516317d5759960e31b81526001600160a01b0385169063beabacc89062000a279086908690869060040162002c9c565b600060405180830381600087803b15801562000a4257600080fd5b505af115801562000a57573d6000803e3d6000fd5b50506001606555505050505050565b600062000a75609c8362002162565b92915050565b6033546001600160a01b0316331462000aa85760405162461bcd60e51b8152600401620003cf9062002cfe565b609a5460405163266a23b160e21b81526001600160a01b0384811660048301528381166024830152909116906399a88ec490604401620004af565b600054610100900460ff1662000b005760005460ff161562000b04565b303b155b62000b695760405162461bcd60e51b815260206004820152602e60248201527f496e697469616c697a61626c653a20636f6e747261637420697320616c72656160448201526d191e481a5b9a5d1a585b1a5e995960921b6064820152608401620003cf565b600054610100900460ff1615801562000b8c576000805461ffff19166101011790555b62000b9662002177565b62000ba0620021b5565b609980546001600160a01b038086166001600160a01b031992831617909255609780549285169290911691909117905560405162000bde906200276d565b604051809103906000f08015801562000bfb573d6000803e3d6000fd5b50609a80546001600160a01b0319166001600160a01b0392909216919091179055801562000998576000805461ff0019169055505050565b6033546001600160a01b0316331462000c605760405162461bcd60e51b8152600401620003cf9062002cfe565b62000c6c6000620021e9565b565b6033546001600160a01b0316331462000c9b5760405162461bcd60e51b8152600401620003cf9062002cfe565b609980546001600160a01b038381166001600160a01b0319831681179093556040519116919082907fe86060109e6eea418a51a5ed2ba7e250e72fcff0b9387082351310b5df38359890600090a35050565b6033546001600160a01b0316331462000d1a5760405162461bcd60e51b8152600401620003cf9062002cfe565b609880546001600160a01b038381166001600160a01b0319831681179093556040519116919082907f4ab5be82436d353e61ca18726e984e561f5c1cc7c6d38b29d2553c790434705a90600090a35050565b6033546001600160a01b0316331462000d995760405162461bcd60e51b8152600401620003cf9062002cfe565b604051630644b36d60e21b815260048101839052602481018290526001600160a01b03841690631912cdb490604401600060405180830381600087803b15801562000de357600080fd5b505af115801562000df8573d6000803e3d6000fd5b50505050505050565b6033546001600160a01b0316331462000e2e5760405162461bcd60e51b8152600401620003cf9062002cfe565b6002606554141562000e545760405162461bcd60e51b8152600401620003cf9062002d7e565b600260655560036001600160a01b0382166000908152609b602052604090205460ff16600381111562000e9757634e487b7160e01b600052602160045260246000fd5b141562000f185760405162461bcd60e51b815260206004820152604260248201527f436f6d6d756e69747941646d696e3a3a6d696772617465436f6d6d756e69747960448201527f3a207468697320636f6d6d756e69747920686173206265656e206d6967726174606482015261195960f21b608482015260a401620003cf565b6001600160a01b0381166000908152609b60205260408120805460ff1916600317905562000f46826200223b565b90506000811562001298576200129084846001600160a01b031663830953ab6040518163ffffffff1660e01b815260040160206040518083038186803b15801562000f9057600080fd5b505afa15801562000fa5573d6000803e3d6000fd5b505050506040513d601f19601f8201168201806040525081019062000fcb919062002afa565b856001600160a01b03166378ba280f6040518163ffffffff1660e01b815260040160206040518083038186803b1580156200100557600080fd5b505afa1580156200101a573d6000803e3d6000fd5b505050506040513d601f19601f8201168201806040525081019062001040919062002afa565b866001600160a01b031663c51fab3c6040518163ffffffff1660e01b815260040160206040518083038186803b1580156200107a57600080fd5b505afa1580156200108f573d6000803e3d6000fd5b505050506040513d601f19601f82011682018060405250810190620010b5919062002afa565b876001600160a01b0316630e5b7c536040518163ffffffff1660e01b815260040160206040518083038186803b158015620010ef57600080fd5b505afa15801562001104573d6000803e3d6000fd5b505050506040513d601f19601f820116820180604052508101906200112a919062002afa565b886001600160a01b031663597be18b6040518163ffffffff1660e01b815260040160206040518083038186803b1580156200116457600080fd5b505afa15801562001179573d6000803e3d6000fd5b505050506040513d601f19601f820116820180604052508101906200119f919062002afa565b896001600160a01b031663dd4414bb6040518163ffffffff1660e01b815260040160206040518083038186803b158015620011d957600080fd5b505afa158015620011ee573d6000803e3d6000fd5b505050506040513d601f19601f8201168201806040525081019062001214919062002afa565b8a6001600160a01b0316632b2711176040518163ffffffff1660e01b815260040160206040518083038186803b1580156200124e57600080fd5b505afa15801562001263573d6000803e3d6000fd5b505050506040513d601f19601f8201168201806040525081019062001289919062002afa565b8b620022cc565b9050620014b0565b620014ad84846001600160a01b031663830953ab6040518163ffffffff1660e01b815260040160206040518083038186803b158015620012d757600080fd5b505afa158015620012ec573d6000803e3d6000fd5b505050506040513d601f19601f8201168201806040525081019062001312919062002afa565b856001600160a01b031663d4938db36040518163ffffffff1660e01b815260040160206040518083038186803b1580156200134c57600080fd5b505afa15801562001361573d6000803e3d6000fd5b505050506040513d601f19601f8201168201806040525081019062001387919062002afa565b662386f26fc100006005886001600160a01b0316630e5b7c536040518163ffffffff1660e01b815260040160206040518083038186803b158015620013cb57600080fd5b505afa158015620013e0573d6000803e3d6000fd5b505050506040513d601f19601f8201168201806040525081019062001406919062002afa565b62001412919062002dd0565b6005896001600160a01b031663597be18b6040518163ffffffff1660e01b815260040160206040518083038186803b1580156200144e57600080fd5b505afa15801562001463573d6000803e3d6000fd5b505050506040513d601f19601f8201168201806040525081019062001489919062002afa565b62001495919062002dd0565b662386f26fc10000674563918244f400008b620022cc565b90505b6001600160a01b0381166200151c5760405162461bcd60e51b815260206004820152602b60248201527f436f6d6d756e69747941646d696e3a3a6d696772617465436f6d6d756e69747960448201526a0e881393d517d59053125160aa1b6064820152608401620003cf565b811562001614576097546040516370a0823160e01b81526001600160a01b03858116600483015260009216906370a082319060240160206040518083038186803b1580156200156a57600080fd5b505afa1580156200157f573d6000803e3d6000fd5b505050506040513d601f19601f82011682018060405250810190620015a5919062002afa565b6097546040516317d5759960e31b81529192506001600160a01b038087169263beabacc892620015de9216908690869060040162002c9c565b600060405180830381600087803b158015620015f957600080fd5b505af11580156200160e573d6000803e3d6000fd5b50505050505b6001600160a01b0381166000908152609b60205260409020805460ff1916600117905562001644609c826200237a565b50826001600160a01b0316816001600160a01b03167f1c73dbd6259eae88a71a197a742361367d2811051b3de2b22953065b876247af866040516200168a919062002bdb565b60405180910390a3505060016065555050565b6033546001600160a01b03163314620016ca5760405162461bcd60e51b8152600401620003cf9062002cfe565b60026065541415620016f05760405162461bcd60e51b8152600401620003cf9062002d7e565b600260655560016001600160a01b0382166000908152609b602052604090205460ff1660038111156200173357634e487b7160e01b600052602160045260246000fd5b14620017a85760405162461bcd60e51b815260206004820152603d60248201527f436f6d6d756e69747941646d696e3a3a72656d6f7665436f6d6d756e6974793a60448201527f20746869732069736e277420612076616c696420636f6d6d756e6974790000006064820152608401620003cf565b6001600160a01b038181166000818152609b602052604090819020805460ff1916600217905560975460985491516370a0823160e01b815260048101849052929363beabacc89391811692169082906370a082319060240160206040518083038186803b1580156200181957600080fd5b505afa1580156200182e573d6000803e3d6000fd5b505050506040513d601f19601f8201168201806040525081019062001854919062002afa565b6040518463ffffffff1660e01b8152600401620018749392919062002c9c565b600060405180830381600087803b1580156200188f57600080fd5b505af1158015620018a4573d6000803e3d6000fd5b50506040516001600160a01b03841692507fa285b77d62d36ec6881b2cbc019c53874eb061798176f3577f2beab0848d16c69150600090a2506001606555565b6033546001600160a01b03163314620019115760405162461bcd60e51b8152600401620003cf9062002cfe565b60008851116200199b5760405162461bcd60e51b815260206004820152604860248201527f436f6d6d756e69747941646d696e3a3a616464436f6d6d756e6974793a20436f60448201527f6d6d756e6974792073686f756c642068617665206174206c65617374206f6e656064820152671036b0b730b3b2b960c11b608482015260a401620003cf565b6000620019b189898989898989896000620022cc565b90506001600160a01b03811662001a1b5760405162461bcd60e51b815260206004820152602760248201527f436f6d6d756e69747941646d696e3a3a616464436f6d6d756e6974793a204e4f6044820152661517d59053125160ca1b6064820152608401620003cf565b6001600160a01b0381166000908152609b60205260409020805460ff1916600117905562001a4b609c826200237a565b50806001600160a01b03167fd975f7d7350dc54e14ea0400bad2e29483d76cb8810f36f1f520d5c44c1dcf028a8a8a8a8a8a8a8a60405162001a9598979695949392919062002bf0565b60405180910390a262001aa9818462002020565b6098546097548a516001600160a01b039283169263beabacc89216908c9060009062001ae557634e487b7160e01b600052603260045260246000fd5b602002602001015166b1a2bc2ec500006040518463ffffffff1660e01b815260040162001b159392919062002c9c565b600060405180830381600087803b15801562001b3057600080fd5b505af115801562001b45573d6000803e3d6000fd5b50505050505050505050505050565b6033546001600160a01b0316331462001b815760405162461bcd60e51b8152600401620003cf9062002cfe565b6002606554141562001ba75760405162461bcd60e51b8152600401620003cf9062002d7e565b600260655562001bc26001600160a01b038416838362002391565b816001600160a01b0316836001600160a01b03167f9b035625e569d1d2bf54830a290aefba7ab11610ba8490871dc62b86b63a89568360405162001c0891815260200190565b60405180910390a35050600160655550565b600062001c28609c620023e5565b905090565b6033546001600160a01b0316331462001c5a5760405162461bcd60e51b8152600401620003cf9062002cfe565b6001600160a01b03811662001cc15760405162461bcd60e51b815260206004820152602660248201527f4f776e61626c653a206e6577206f776e657220697320746865207a65726f206160448201526564647265737360d01b6064820152608401620003cf565b62001ccc81620021e9565b50565b600080826001600160a01b031663431a801a6040518163ffffffff1660e01b815260040160206040518083038186803b15801562001d0c57600080fd5b505afa15801562001d21573d6000803e3d6000fd5b505050506040513d601f19601f8201168201806040525081019062001d47919062002afa565b90506000836001600160a01b031663830953ab6040518163ffffffff1660e01b815260040160206040518083038186803b15801562001d8557600080fd5b505afa15801562001d9a573d6000803e3d6000fd5b505050506040513d601f19601f8201168201806040525081019062001dc0919062002afa565b90506000846001600160a01b0316639c01a4016040518163ffffffff1660e01b815260040160206040518083038186803b15801562001dfe57600080fd5b505afa15801562001e13573d6000803e3d6000fd5b505050506040513d601f19601f8201168201806040525081019062001e39919062002afa565b90506000856001600160a01b031663d6dbd9726040518163ffffffff1660e01b815260040160206040518083038186803b15801562001e7757600080fd5b505afa15801562001e8c573d6000803e3d6000fd5b505050506040513d601f19601f8201168201806040525081019062001eb2919062002afa565b90506000866001600160a01b031663dd4414bb6040518163ffffffff1660e01b815260040160206040518083038186803b15801562001ef057600080fd5b505afa15801562001f05573d6000803e3d6000fd5b505050506040513d601f19601f8201168201806040525081019062001f2b919062002afa565b90506000876001600160a01b0316632b2711176040518163ffffffff1660e01b815260040160206040518083038186803b15801562001f6957600080fd5b505afa15801562001f7e573d6000803e3d6000fd5b505050506040513d601f19601f8201168201806040525081019062001fa4919062002afa565b90506000841162001fbe57670de0b6b3a764000062001fc0565b835b935060008462001fd1858262002db5565b62001fdd888a62002df1565b62001fe9919062002df1565b62001ff5919062002dd0565b9050828110156200200857508162002014565b81811115620020145750805b98975050505050505050565b60026065541415620020465760405162461bcd60e51b8152600401620003cf9062002d7e565b60026065556098546097546040516317d5759960e31b81526001600160a01b039283169263beabacc89262002085929116908690869060040162002c9c565b600060405180830381600087803b158015620020a057600080fd5b505af1158015620020b5573d6000803e3d6000fd5b5050604051635c04f74160e11b8152600481018490526001600160a01b038516925063b809ee829150602401600060405180830381600087803b158015620020fc57600080fd5b505af115801562002111573d6000803e3d6000fd5b50505050816001600160a01b03167f1e951788684f9b9e5c219261ce05daaa0f58ead974c796e6311b1da4c8657af1826040516200215191815260200190565b60405180910390a250506001606555565b6000620021708383620023f0565b9392505050565b600054610100900460ff16620021a15760405162461bcd60e51b8152600401620003cf9062002d33565b620021ab62002429565b62000c6c62002453565b600054610100900460ff16620021df5760405162461bcd60e51b8152600401620003cf9062002d33565b62000c6c62002488565b603380546001600160a01b038381166001600160a01b0319831681179093556040519116919082907f8be0079c531659141344cd1fd0a4f28419497f9722a3daafe3b4186f6b6457e090600090a35050565b6000806001600160a01b0316826001600160a01b031663c041fdc56040518163ffffffff1660e01b815260040160206040518083038186803b1580156200228157600080fd5b505afa15801562002296573d6000803e3d6000fd5b505050506040513d601f19601f82011682018060405250810190620022bc91906200286b565b6001600160a01b03161492915050565b609954609a5460405160009283926001600160a01b039182169291169062002309908e908e908e908e908e908e908e908e908e9060240162002c3d565b60408051601f198184030181529181526020820180516001600160e01b03166308278d4960e41b179052516200233f906200277b565b6200234d9392919062002ba4565b604051809103906000f0801580156200236a573d6000803e3d6000fd5b509b9a5050505050505050505050565b600062002170836001600160a01b038416620024b9565b604080516001600160a01b038416602482015260448082018490528251808303909101815260649091019091526020810180516001600160e01b031663a9059cbb60e01b179052620009989084906200250b565b600062000a75825490565b60008260000182815481106200241657634e487b7160e01b600052603260045260246000fd5b9060005260206000200154905092915050565b600054610100900460ff1662000c6c5760405162461bcd60e51b8152600401620003cf9062002d33565b600054610100900460ff166200247d5760405162461bcd60e51b8152600401620003cf9062002d33565b62000c6c33620021e9565b600054610100900460ff16620024b25760405162461bcd60e51b8152600401620003cf9062002d33565b6001606555565b6000818152600183016020526040812054620025025750815460018181018455600084815260208082209093018490558454848252828601909352604090209190915562000a75565b50600062000a75565b600062002562826040518060400160405280602081526020017f5361666545524332303a206c6f772d6c6576656c2063616c6c206661696c6564815250856001600160a01b0316620025e49092919063ffffffff16565b8051909150156200099857808060200190518101906200258391906200298b565b620009985760405162461bcd60e51b815260206004820152602a60248201527f5361666545524332303a204552433230206f7065726174696f6e20646964206e6044820152691bdd081cdd58d8d9595960b21b6064820152608401620003cf565b6060620025f58484600085620025fd565b949350505050565b606082471015620026605760405162461bcd60e51b815260206004820152602660248201527f416464726573733a20696e73756666696369656e742062616c616e636520666f6044820152651c8818d85b1b60d21b6064820152608401620003cf565b843b620026b05760405162461bcd60e51b815260206004820152601d60248201527f416464726573733a2063616c6c20746f206e6f6e2d636f6e74726163740000006044820152606401620003cf565b600080866001600160a01b03168587604051620026ce919062002b86565b60006040518083038185875af1925050503d80600081146200270d576040519150601f19603f3d011682016040523d82523d6000602084013e62002712565b606091505b5091509150620027248282866200272f565b979650505050505050565b606083156200274057508162002170565b825115620027515782518084602001fd5b8160405162461bcd60e51b8152600401620003cf919062002ce9565b6107978062002ea383390190565b610f2f806200363a83390190565b8035620027968162002e8c565b919050565b600082601f830112620027ac578081fd5b8135602067ffffffffffffffff80831115620027cc57620027cc62002e76565b8260051b604051601f19603f83011681018181108482111715620027f457620027f462002e76565b6040528481528381019250868401828801850189101562002813578687fd5b8692505b8583101562002840576200282b8162002789565b84529284019260019290920191840162002817565b50979650505050505050565b6000602082840312156200285e578081fd5b8135620021708162002e8c565b6000602082840312156200287d578081fd5b8151620021708162002e8c565b600080604083850312156200289d578081fd5b8235620028aa8162002e8c565b91506020830135620028bc8162002e8c565b809150509250929050565b60008060408385031215620028da578182fd5b823567ffffffffffffffff811115620028f1578283fd5b620028ff858286016200279b565b9250506020830135620028bc8162002e8c565b600080600080600080600080610100898b0312156200292f578384fd5b883567ffffffffffffffff81111562002946578485fd5b620029548b828c016200279b565b9b60208b01359b5060408b01359a60608101359a506080810135995060a0810135985060c0810135975060e0013595509350505050565b6000602082840312156200299d578081fd5b8151801515811462002170578182fd5b600080604083850312156200289d578182fd5b60008060008060808587031215620029d6578384fd5b8435620029e38162002e8c565b93506020850135620029f58162002e8c565b9250604085013562002a078162002e8c565b9396929550929360600135925050565b60008060006060848603121562002a2c578283fd5b833562002a398162002e8c565b95602085013595506040909401359392505050565b60008060008060008060c0878903121562002a67578182fd5b863562002a748162002e8c565b9860208801359850604088013597606081013597506080810135965060a00135945092505050565b60008060006060848603121562002ab1578081fd5b833562002abe8162002e8c565b9250602084013562002ad08162002e8c565b929592945050506040919091013590565b60006020828403121562002af3578081fd5b5035919050565b60006020828403121562002b0c578081fd5b5051919050565b6000815180845260208085019450808401835b8381101562002b4d5781516001600160a01b03168752958201959082019060010162002b26565b509495945050505050565b6000815180845262002b7281602086016020860162002e2d565b601f01601f19169290920160200192915050565b6000825162002b9a81846020870162002e2d565b9190910192915050565b6001600160a01b0384811682528316602082015260606040820181905260009062002bd29083018462002b58565b95945050505050565b60208152600062002170602083018462002b13565b600061010080835262002c068184018c62002b13565b602084019a909a52505060408101969096526060860194909452608085019290925260a084015260c083015260e090910152919050565b600061012080835262002c538184018d62002b13565b602084019b909b52505060408101979097526060870195909552608086019390935260a085019190915260c084015260e08301526001600160a01b031661010090910152919050565b6001600160a01b039384168152919092166020820152604081019190915260600190565b602081016004831062002ce357634e487b7160e01b600052602160045260246000fd5b91905290565b60208152600062002170602083018462002b58565b6020808252818101527f4f776e61626c653a2063616c6c6572206973206e6f7420746865206f776e6572604082015260600190565b6020808252602b908201527f496e697469616c697a61626c653a20636f6e7472616374206973206e6f74206960408201526a6e697469616c697a696e6760a81b606082015260800190565b6020808252601f908201527f5265656e7472616e637947756172643a207265656e7472616e742063616c6c00604082015260600190565b6000821982111562002dcb5762002dcb62002e60565b500190565b60008262002dec57634e487b7160e01b81526012600452602481fd5b500490565b600081600019048311821515161562002e0e5762002e0e62002e60565b500290565b60008282101562002e285762002e2862002e60565b500390565b60005b8381101562002e4a57818101518382015260200162002e30565b8381111562002e5a576000848401525b50505050565b634e487b7160e01b600052601160045260246000fd5b634e487b7160e01b600052604160045260246000fd5b6001600160a01b038116811462001ccc57600080fdfe608060405234801561001057600080fd5b5061001a3361001f565b61006f565b600080546001600160a01b038381166001600160a01b0319831681178455604051919092169283917f8be0079c531659141344cd1fd0a4f28419497f9722a3daafe3b4186f6b6457e09190a35050565b6107198061007e6000396000f3fe60806040526004361061007b5760003560e01c80639623609d1161004e5780639623609d1461011157806399a88ec414610124578063f2fde38b14610144578063f3b7dead1461016457600080fd5b8063204e1c7a14610080578063715018a6146100bc5780637eff275e146100d35780638da5cb5b146100f3575b600080fd5b34801561008c57600080fd5b506100a061009b3660046104d8565b610184565b6040516001600160a01b03909116815260200160405180910390f35b3480156100c857600080fd5b506100d1610215565b005b3480156100df57600080fd5b506100d16100ee366004610517565b610254565b3480156100ff57600080fd5b506000546001600160a01b03166100a0565b6100d161011f36600461054f565b6102de565b34801561013057600080fd5b506100d161013f366004610517565b61036f565b34801561015057600080fd5b506100d161015f3660046104d8565b6103c7565b34801561017057600080fd5b506100a061017f3660046104d8565b610462565b6000806000836001600160a01b03166040516101aa90635c60da1b60e01b815260040190565b600060405180830381855afa9150503d80600081146101e5576040519150601f19603f3d011682016040523d82523d6000602084013e6101ea565b606091505b5091509150816101f957600080fd5b8080602001905181019061020d91906104fb565b949350505050565b6000546001600160a01b031633146102485760405162461bcd60e51b815260040161023f90610683565b60405180910390fd5b6102526000610488565b565b6000546001600160a01b0316331461027e5760405162461bcd60e51b815260040161023f90610683565b6040516308f2839760e41b81526001600160a01b038281166004830152831690638f283970906024015b600060405180830381600087803b1580156102c257600080fd5b505af11580156102d6573d6000803e3d6000fd5b505050505050565b6000546001600160a01b031633146103085760405162461bcd60e51b815260040161023f90610683565b60405163278f794360e11b81526001600160a01b03841690634f1ef2869034906103389086908690600401610620565b6000604051808303818588803b15801561035157600080fd5b505af1158015610365573d6000803e3d6000fd5b5050505050505050565b6000546001600160a01b031633146103995760405162461bcd60e51b815260040161023f90610683565b604051631b2ce7f360e11b81526001600160a01b038281166004830152831690633659cfe6906024016102a8565b6000546001600160a01b031633146103f15760405162461bcd60e51b815260040161023f90610683565b6001600160a01b0381166104565760405162461bcd60e51b815260206004820152602660248201527f4f776e61626c653a206e6577206f776e657220697320746865207a65726f206160448201526564647265737360d01b606482015260840161023f565b61045f81610488565b50565b6000806000836001600160a01b03166040516101aa906303e1469160e61b815260040190565b600080546001600160a01b038381166001600160a01b0319831681178455604051919092169283917f8be0079c531659141344cd1fd0a4f28419497f9722a3daafe3b4186f6b6457e09190a35050565b6000602082840312156104e9578081fd5b81356104f4816106ce565b9392505050565b60006020828403121561050c578081fd5b81516104f4816106ce565b60008060408385031215610529578081fd5b8235610534816106ce565b91506020830135610544816106ce565b809150509250929050565b600080600060608486031215610563578081fd5b833561056e816106ce565b9250602084013561057e816106ce565b9150604084013567ffffffffffffffff8082111561059a578283fd5b818601915086601f8301126105ad578283fd5b8135818111156105bf576105bf6106b8565b604051601f8201601f19908116603f011681019083821181831017156105e7576105e76106b8565b816040528281528960208487010111156105ff578586fd5b82602086016020830137856020848301015280955050505050509250925092565b60018060a01b0383168152600060206040818401528351806040850152825b8181101561065b5785810183015185820160600152820161063f565b8181111561066c5783606083870101525b50601f01601f191692909201606001949350505050565b6020808252818101527f4f776e61626c653a2063616c6c6572206973206e6f7420746865206f776e6572604082015260600190565b634e487b7160e01b600052604160045260246000fd5b6001600160a01b038116811461045f57600080fdfea2646970667358221220e38caf5ca305d28cfea5924808a41fd6f9ab62ed165ed1becf8858d95ea882a264736f6c63430008040033608060405260405162000f2f38038062000f2f8339810160408190526200002691620004da565b82816200005560017f360894a13ba1a3210667c828492db98dca3e2076cc3735a920a3ca505d382bbd62000609565b60008051602062000ee8833981519152146200008157634e487b7160e01b600052600160045260246000fd5b6200008f82826000620000ff565b50620000bf905060017fb53127684a568b3173ae13b9f8a6016e243e63b6e8ee1178d6a717850b5d610462000609565b60008051602062000ec883398151915214620000eb57634e487b7160e01b600052600160045260246000fd5b620000f6826200013c565b50505062000672565b6200010a8362000197565b600082511180620001185750805b156200013757620001358383620001d960201b620002601760201c565b505b505050565b7f7e644d79422f17c01e4894b5f4f588d331ebfa28653d42ae832dc59e38c9798f6200016762000208565b604080516001600160a01b03928316815291841660208301520160405180910390a1620001948162000241565b50565b620001a281620002f6565b6040516001600160a01b038216907fbc7cd75a20ee27fd9adebab32041f755214dbc6bffa90cc0225b39da2e5c2d3b90600090a250565b606062000201838360405180606001604052806027815260200162000f086027913962000399565b9392505050565b60006200023260008051602062000ec883398151915260001b6200047660201b620002081760201c565b546001600160a01b0316919050565b6001600160a01b038116620002ac5760405162461bcd60e51b815260206004820152602660248201527f455243313936373a206e65772061646d696e20697320746865207a65726f206160448201526564647265737360d01b60648201526084015b60405180910390fd5b80620002d560008051602062000ec883398151915260001b6200047660201b620002081760201c565b80546001600160a01b0319166001600160a01b039290921691909117905550565b6200030c816200047960201b6200028c1760201c565b620003705760405162461bcd60e51b815260206004820152602d60248201527f455243313936373a206e657720696d706c656d656e746174696f6e206973206e60448201526c1bdd08184818dbdb9d1c9858dd609a1b6064820152608401620002a3565b80620002d560008051602062000ee883398151915260001b6200047660201b620002081760201c565b6060833b620003fa5760405162461bcd60e51b815260206004820152602660248201527f416464726573733a2064656c65676174652063616c6c20746f206e6f6e2d636f6044820152651b9d1c9858dd60d21b6064820152608401620002a3565b600080856001600160a01b031685604051620004179190620005b6565b600060405180830381855af49150503d806000811462000454576040519150601f19603f3d011682016040523d82523d6000602084013e62000459565b606091505b5090925090506200046c8282866200047f565b9695505050505050565b90565b3b151590565b606083156200049057508162000201565b825115620004a15782518084602001fd5b8160405162461bcd60e51b8152600401620002a39190620005d4565b80516001600160a01b0381168114620004d557600080fd5b919050565b600080600060608486031215620004ef578283fd5b620004fa84620004bd565b92506200050a60208501620004bd565b60408501519092506001600160401b038082111562000527578283fd5b818601915086601f8301126200053b578283fd5b8151818111156200055057620005506200065c565b604051601f8201601f19908116603f011681019083821181831017156200057b576200057b6200065c565b8160405282815289602084870101111562000594578586fd5b620005a78360208301602088016200062d565b80955050505050509250925092565b60008251620005ca8184602087016200062d565b9190910192915050565b6020815260008251806020840152620005f58160408501602087016200062d565b601f01601f19169190910160400192915050565b6000828210156200062857634e487b7160e01b81526011600452602481fd5b500390565b60005b838110156200064a57818101518382015260200162000630565b83811115620001355750506000910152565b634e487b7160e01b600052604160045260246000fd5b61084680620006826000396000f3fe60806040526004361061004e5760003560e01c80633659cfe6146100655780634f1ef286146100855780635c60da1b146100985780638f283970146100c9578063f851a440146100e95761005d565b3661005d5761005b6100fe565b005b61005b6100fe565b34801561007157600080fd5b5061005b6100803660046106d6565b610118565b61005b6100933660046106f0565b61015f565b3480156100a457600080fd5b506100ad6101d0565b6040516001600160a01b03909116815260200160405180910390f35b3480156100d557600080fd5b5061005b6100e43660046106d6565b61020b565b3480156100f557600080fd5b506100ad610235565b610106610292565b610116610111610331565b61033b565b565b61012061035f565b6001600160a01b0316336001600160a01b031614156101575761015481604051806020016040528060008152506000610392565b50565b6101546100fe565b61016761035f565b6001600160a01b0316336001600160a01b031614156101c8576101c38383838080601f01602080910402602001604051908101604052809392919081815260200183838082843760009201919091525060019250610392915050565b505050565b6101c36100fe565b60006101da61035f565b6001600160a01b0316336001600160a01b03161415610200576101fb610331565b905090565b6102086100fe565b90565b61021361035f565b6001600160a01b0316336001600160a01b0316141561015757610154816103bd565b600061023f61035f565b6001600160a01b0316336001600160a01b03161415610200576101fb61035f565b606061028583836040518060600160405280602781526020016107ea60279139610411565b9392505050565b3b151590565b61029a61035f565b6001600160a01b0316336001600160a01b031614156101165760405162461bcd60e51b815260206004820152604260248201527f5472616e73706172656e745570677261646561626c6550726f78793a2061646d60448201527f696e2063616e6e6f742066616c6c6261636b20746f2070726f78792074617267606482015261195d60f21b608482015260a4015b60405180910390fd5b60006101fb6104e5565b3660008037600080366000845af43d6000803e80801561035a573d6000f35b3d6000fd5b60007fb53127684a568b3173ae13b9f8a6016e243e63b6e8ee1178d6a717850b5d61035b546001600160a01b0316919050565b61039b8361050d565b6000825111806103a85750805b156101c3576103b78383610260565b50505050565b7f7e644d79422f17c01e4894b5f4f588d331ebfa28653d42ae832dc59e38c9798f6103e661035f565b604080516001600160a01b03928316815291841660208301520160405180910390a16101548161054d565b6060833b6104705760405162461bcd60e51b815260206004820152602660248201527f416464726573733a2064656c65676174652063616c6c20746f206e6f6e2d636f6044820152651b9d1c9858dd60d21b6064820152608401610328565b600080856001600160a01b03168560405161048b919061076e565b600060405180830381855af49150503d80600081146104c6576040519150601f19603f3d011682016040523d82523d6000602084013e6104cb565b606091505b50915091506104db8282866105f6565b9695505050505050565b60007f360894a13ba1a3210667c828492db98dca3e2076cc3735a920a3ca505d382bbc610383565b6105168161062f565b6040516001600160a01b038216907fbc7cd75a20ee27fd9adebab32041f755214dbc6bffa90cc0225b39da2e5c2d3b90600090a250565b6001600160a01b0381166105b25760405162461bcd60e51b815260206004820152602660248201527f455243313936373a206e65772061646d696e20697320746865207a65726f206160448201526564647265737360d01b6064820152608401610328565b807fb53127684a568b3173ae13b9f8a6016e243e63b6e8ee1178d6a717850b5d61035b80546001600160a01b0319166001600160a01b039290921691909117905550565b60608315610605575081610285565b8251156106155782518084602001fd5b8160405162461bcd60e51b8152600401610328919061078a565b803b6106935760405162461bcd60e51b815260206004820152602d60248201527f455243313936373a206e657720696d706c656d656e746174696f6e206973206e60448201526c1bdd08184818dbdb9d1c9858dd609a1b6064820152608401610328565b807f360894a13ba1a3210667c828492db98dca3e2076cc3735a920a3ca505d382bbc6105d5565b80356001600160a01b03811681146106d157600080fd5b919050565b6000602082840312156106e7578081fd5b610285826106ba565b600080600060408486031215610704578182fd5b61070d846106ba565b9250602084013567ffffffffffffffff80821115610729578384fd5b818601915086601f83011261073c578384fd5b81358181111561074a578485fd5b87602082850101111561075b578485fd5b6020830194508093505050509250925092565b600082516107808184602087016107bd565b9190910192915050565b60208152600082518060208401526107a98160408501602087016107bd565b601f01601f19169190910160400192915050565b60005b838110156107d85781810151838201526020016107c0565b838111156103b7575050600091015256fe416464726573733a206c6f772d6c6576656c2064656c65676174652063616c6c206661696c6564a2646970667358221220675814b80ddcb309746b9826ddefd683cc86b7ea3c0b94e9b1325c4b1e1cb1a764736f6c63430008040033b53127684a568b3173ae13b9f8a6016e243e63b6e8ee1178d6a717850b5d6103360894a13ba1a3210667c828492db98dca3e2076cc3735a920a3ca505d382bbc416464726573733a206c6f772d6c6576656c2064656c65676174652063616c6c206661696c6564a2646970667358221220d007d412f8dfcb545079ef7d8e173a4dfbeec06a64a13688279a317c5903893364736f6c63430008040033",
  "linkReferences": {},
  "deployedLinkReferences": {}
}