{
  "_format": "hh-sol-artifact-1",
  "contractName": "DonationMinerImplementationOld",
  "sourceName": "contracts/mocks/donationMiner/DonationMinerImplementationOld.sol",
  "abi": [
    {
      "anonymous": false,
      "inputs": [
        {
          "indexed": false,
          "internalType": "uint256",
          "name": "oldAgainstPeriods",
          "type": "uint256"
        },
        {
          "indexed": false,
          "internalType": "uint256",
          "name": "newAgainstPeriods",
          "type": "uint256"
        }
      ],
      "name": "AgainstPeriodsUpdated",
      "type": "event"
    },
    {
      "anonymous": false,
      "inputs": [
        {
          "indexed": false,
          "internalType": "uint256",
          "name": "oldClaimDelay",
          "type": "uint256"
        },
        {
          "indexed": false,
          "internalType": "uint256",
          "name": "newClaimDelay",
          "type": "uint256"
        }
      ],
      "name": "ClaimDelayUpdated",
      "type": "event"
    },
    {
      "anonymous": false,
      "inputs": [
        {
          "indexed": true,
          "internalType": "uint256",
          "name": "donationId",
          "type": "uint256"
        },
        {
          "indexed": true,
          "internalType": "address",
          "name": "donor",
          "type": "address"
        },
        {
          "indexed": false,
          "internalType": "uint256",
          "name": "amount",
          "type": "uint256"
        },
        {
          "indexed": true,
          "internalType": "address",
          "name": "target",
          "type": "address"
        }
      ],
      "name": "DonationAdded",
      "type": "event"
    },
    {
      "anonymous": false,
      "inputs": [
        {
          "indexed": true,
          "internalType": "address",
          "name": "previousOwner",
          "type": "address"
        },
        {
          "indexed": true,
          "internalType": "address",
          "name": "newOwner",
          "type": "address"
        }
      ],
      "name": "OwnershipTransferred",
      "type": "event"
    },
    {
      "anonymous": false,
      "inputs": [
        {
          "indexed": false,
          "internalType": "address",
          "name": "account",
          "type": "address"
        }
      ],
      "name": "Paused",
      "type": "event"
    },
    {
      "anonymous": false,
      "inputs": [
        {
          "indexed": true,
          "internalType": "address",
          "name": "donor",
          "type": "address"
        },
        {
          "indexed": false,
          "internalType": "uint256",
          "name": "amount",
          "type": "uint256"
        }
      ],
      "name": "RewardClaimed",
      "type": "event"
    },
    {
      "anonymous": false,
      "inputs": [
        {
          "indexed": true,
          "internalType": "address",
          "name": "donor",
          "type": "address"
        },
        {
          "indexed": false,
          "internalType": "uint256",
          "name": "amount",
          "type": "uint256"
        },
        {
          "indexed": false,
          "internalType": "uint256",
          "name": "lastRewardPeriod",
          "type": "uint256"
        }
      ],
      "name": "RewardClaimedPartial",
      "type": "event"
    },
    {
      "anonymous": false,
      "inputs": [
        {
          "indexed": false,
          "internalType": "uint256",
          "name": "oldRewardPeriodSize",
          "type": "uint256"
        },
        {
          "indexed": false,
          "internalType": "uint256",
          "name": "oldDecayNumerator",
          "type": "uint256"
        },
        {
          "indexed": false,
          "internalType": "uint256",
          "name": "oldDecayDenominator",
          "type": "uint256"
        },
        {
          "indexed": false,
          "internalType": "uint256",
          "name": "newRewardPeriodSize",
          "type": "uint256"
        },
        {
          "indexed": false,
          "internalType": "uint256",
          "name": "newDecayNumerator",
          "type": "uint256"
        },
        {
          "indexed": false,
          "internalType": "uint256",
          "name": "newDecayDenominator",
          "type": "uint256"
        }
      ],
      "name": "RewardPeriodParamsUpdated",
      "type": "event"
    },
    {
      "anonymous": false,
      "inputs": [
        {
          "indexed": true,
          "internalType": "address",
          "name": "token",
          "type": "address"
        },
        {
          "indexed": true,
          "internalType": "address",
          "name": "to",
          "type": "address"
        },
        {
          "indexed": false,
          "internalType": "uint256",
          "name": "amount",
          "type": "uint256"
        }
      ],
      "name": "TransferERC20",
      "type": "event"
    },
    {
      "anonymous": false,
      "inputs": [
        {
          "indexed": true,
          "internalType": "address",
          "name": "oldTreasury",
          "type": "address"
        },
        {
          "indexed": true,
          "internalType": "address",
          "name": "newTreasury",
          "type": "address"
        }
      ],
      "name": "TreasuryUpdated",
      "type": "event"
    },
    {
      "anonymous": false,
      "inputs": [
        {
          "indexed": false,
          "internalType": "address",
          "name": "account",
          "type": "address"
        }
      ],
      "name": "Unpaused",
      "type": "event"
    },
    {
      "inputs": [],
      "name": "PACT",
      "outputs": [
        {
          "internalType": "contract IERC20Upgradeable",
          "name": "",
          "type": "address"
        }
      ],
      "stateMutability": "view",
      "type": "function"
    },
    {
      "inputs": [],
      "name": "againstPeriods",
      "outputs": [
        {
          "internalType": "uint256",
          "name": "",
          "type": "uint256"
        }
      ],
      "stateMutability": "view",
      "type": "function"
    },
    {
      "inputs": [],
      "name": "cUSD",
      "outputs": [
        {
          "internalType": "contract IERC20Upgradeable",
          "name": "",
          "type": "address"
        }
      ],
      "stateMutability": "view",
      "type": "function"
    },
    {
      "inputs": [
        {
          "internalType": "address",
          "name": "_donorAddress",
          "type": "address"
        }
      ],
      "name": "calculateClaimableRewards",
      "outputs": [
        {
          "internalType": "uint256",
          "name": "",
          "type": "uint256"
        }
      ],
      "stateMutability": "view",
      "type": "function"
    },
    {
      "inputs": [
        {
          "internalType": "address",
          "name": "_donorAddress",
          "type": "address"
        },
        {
          "internalType": "uint256",
          "name": "_lastPeriodNumber",
          "type": "uint256"
        }
      ],
      "name": "calculateClaimableRewardsByPeriodNumber",
      "outputs": [
        {
          "internalType": "uint256",
          "name": "",
          "type": "uint256"
        }
      ],
      "stateMutability": "view",
      "type": "function"
    },
    {
      "inputs": [],
      "name": "claimDelay",
      "outputs": [
        {
          "internalType": "uint256",
          "name": "",
          "type": "uint256"
        }
      ],
      "stateMutability": "view",
      "type": "function"
    },
    {
      "inputs": [],
      "name": "claimRewards",
      "outputs": [],
      "stateMutability": "nonpayable",
      "type": "function"
    },
    {
      "inputs": [
        {
          "internalType": "uint256",
          "name": "_lastPeriodNumber",
          "type": "uint256"
        }
      ],
      "name": "claimRewardsPartial",
      "outputs": [],
      "stateMutability": "nonpayable",
      "type": "function"
    },
    {
      "inputs": [],
      "name": "decayDenominator",
      "outputs": [
        {
          "internalType": "uint256",
          "name": "",
          "type": "uint256"
        }
      ],
      "stateMutability": "view",
      "type": "function"
    },
    {
      "inputs": [],
      "name": "decayNumerator",
      "outputs": [
        {
          "internalType": "uint256",
          "name": "",
          "type": "uint256"
        }
      ],
      "stateMutability": "view",
      "type": "function"
    },
    {
      "inputs": [
        {
          "internalType": "uint256",
          "name": "_amount",
          "type": "uint256"
        }
      ],
      "name": "donate",
      "outputs": [],
      "stateMutability": "nonpayable",
      "type": "function"
    },
    {
      "inputs": [
        {
          "internalType": "contract ICommunity",
          "name": "_community",
          "type": "address"
        },
        {
          "internalType": "uint256",
          "name": "_amount",
          "type": "uint256"
        }
      ],
      "name": "donateToCommunity",
      "outputs": [],
      "stateMutability": "nonpayable",
      "type": "function"
    },
    {
      "inputs": [],
      "name": "donationCount",
      "outputs": [
        {
          "internalType": "uint256",
          "name": "",
          "type": "uint256"
        }
      ],
      "stateMutability": "view",
      "type": "function"
    },
    {
      "inputs": [
        {
          "internalType": "uint256",
          "name": "",
          "type": "uint256"
        }
      ],
      "name": "donations",
      "outputs": [
        {
          "internalType": "address",
          "name": "donor",
          "type": "address"
        },
        {
          "internalType": "address",
          "name": "target",
          "type": "address"
        },
        {
          "internalType": "uint256",
          "name": "rewardPeriod",
          "type": "uint256"
        },
        {
          "internalType": "uint256",
          "name": "blockNumber",
          "type": "uint256"
        },
        {
          "internalType": "uint256",
          "name": "amount",
          "type": "uint256"
        },
        {
          "internalType": "contract IERC20Upgradeable",
          "name": "token",
          "type": "address"
        },
        {
          "internalType": "uint256",
          "name": "tokenPrice",
          "type": "uint256"
        }
      ],
      "stateMutability": "view",
      "type": "function"
    },
    {
      "inputs": [
        {
          "internalType": "address",
          "name": "_donor",
          "type": "address"
        },
        {
          "internalType": "uint256",
          "name": "_rewardPeriodIndex",
          "type": "uint256"
        }
      ],
      "name": "donorRewardPeriod",
      "outputs": [
        {
          "internalType": "uint256",
          "name": "",
          "type": "uint256"
        }
      ],
      "stateMutability": "view",
      "type": "function"
    },
    {
      "inputs": [
        {
          "internalType": "address",
          "name": "",
          "type": "address"
        }
      ],
      "name": "donors",
      "outputs": [
        {
          "internalType": "uint256",
          "name": "lastClaim",
          "type": "uint256"
        },
        {
          "internalType": "uint256",
          "name": "rewardPeriodsCount",
          "type": "uint256"
        },
        {
          "internalType": "uint256",
          "name": "lastClaimPeriod",
          "type": "uint256"
        }
      ],
      "stateMutability": "view",
      "type": "function"
    },
    {
      "inputs": [
        {
          "internalType": "address",
          "name": "_donorAddress",
          "type": "address"
        }
      ],
      "name": "estimateClaimableReward",
      "outputs": [
        {
          "internalType": "uint256",
          "name": "",
          "type": "uint256"
        }
      ],
      "stateMutability": "view",
      "type": "function"
    },
    {
      "inputs": [],
      "name": "getVersion",
      "outputs": [
        {
          "internalType": "uint256",
          "name": "",
          "type": "uint256"
        }
      ],
      "stateMutability": "pure",
      "type": "function"
    },
    {
      "inputs": [
        {
          "internalType": "contract IERC20Upgradeable",
          "name": "_cUSD",
          "type": "address"
        },
        {
          "internalType": "contract IERC20Upgradeable",
          "name": "_PACT",
          "type": "address"
        },
        {
          "internalType": "contract ITreasury",
          "name": "_treasury",
          "type": "address"
        },
        {
          "internalType": "uint256",
          "name": "_firstRewardPerBlock",
          "type": "uint256"
        },
        {
          "internalType": "uint256",
          "name": "_rewardPeriodSize",
          "type": "uint256"
        },
        {
          "internalType": "uint256",
          "name": "_startingBlock",
          "type": "uint256"
        },
        {
          "internalType": "uint256",
          "name": "_decayNumerator",
          "type": "uint256"
        },
        {
          "internalType": "uint256",
          "name": "_decayDenominator",
          "type": "uint256"
        }
      ],
      "name": "initialize",
      "outputs": [],
      "stateMutability": "nonpayable",
      "type": "function"
    },
    {
      "inputs": [],
      "name": "owner",
      "outputs": [
        {
          "internalType": "address",
          "name": "",
          "type": "address"
        }
      ],
      "stateMutability": "view",
      "type": "function"
    },
    {
      "inputs": [],
      "name": "paused",
      "outputs": [
        {
          "internalType": "bool",
          "name": "",
          "type": "bool"
        }
      ],
      "stateMutability": "view",
      "type": "function"
    },
    {
      "inputs": [],
      "name": "renounceOwnership",
      "outputs": [],
      "stateMutability": "nonpayable",
      "type": "function"
    },
    {
      "inputs": [],
      "name": "rewardPeriodCount",
      "outputs": [
        {
          "internalType": "uint256",
          "name": "",
          "type": "uint256"
        }
      ],
      "stateMutability": "view",
      "type": "function"
    },
    {
      "inputs": [
        {
          "internalType": "uint256",
          "name": "_period",
          "type": "uint256"
        },
        {
          "internalType": "address",
          "name": "_donor",
          "type": "address"
        }
      ],
      "name": "rewardPeriodDonorAmount",
      "outputs": [
        {
          "internalType": "uint256",
          "name": "",
          "type": "uint256"
        }
      ],
      "stateMutability": "view",
      "type": "function"
    },
    {
      "inputs": [],
      "name": "rewardPeriodSize",
      "outputs": [
        {
          "internalType": "uint256",
          "name": "",
          "type": "uint256"
        }
      ],
      "stateMutability": "view",
      "type": "function"
    },
    {
      "inputs": [
        {
          "internalType": "uint256",
          "name": "",
          "type": "uint256"
        }
      ],
      "name": "rewardPeriods",
      "outputs": [
        {
          "internalType": "uint256",
          "name": "rewardPerBlock",
          "type": "uint256"
        },
        {
          "internalType": "uint256",
          "name": "rewardAmount",
          "type": "uint256"
        },
        {
          "internalType": "uint256",
          "name": "startBlock",
          "type": "uint256"
        },
        {
          "internalType": "uint256",
          "name": "endBlock",
          "type": "uint256"
        },
        {
          "internalType": "uint256",
          "name": "donationsAmount",
          "type": "uint256"
        },
        {
          "internalType": "uint256",
          "name": "againstPeriods",
          "type": "uint256"
        }
      ],
      "stateMutability": "view",
      "type": "function"
    },
    {
      "inputs": [
        {
          "internalType": "contract IERC20Upgradeable",
          "name": "_token",
          "type": "address"
        },
        {
          "internalType": "address",
          "name": "_to",
          "type": "address"
        },
        {
          "internalType": "uint256",
          "name": "_amount",
          "type": "uint256"
        }
      ],
      "name": "transfer",
      "outputs": [],
      "stateMutability": "nonpayable",
      "type": "function"
    },
    {
      "inputs": [
        {
          "internalType": "address",
          "name": "newOwner",
          "type": "address"
        }
      ],
      "name": "transferOwnership",
      "outputs": [],
      "stateMutability": "nonpayable",
      "type": "function"
    },
    {
      "inputs": [],
      "name": "treasury",
      "outputs": [
        {
          "internalType": "contract ITreasury",
          "name": "",
          "type": "address"
        }
      ],
      "stateMutability": "view",
      "type": "function"
    },
    {
      "inputs": [
        {
          "internalType": "uint256",
          "name": "_newAgainstPeriods",
          "type": "uint256"
        }
      ],
      "name": "updateAgainstPeriods",
      "outputs": [],
      "stateMutability": "nonpayable",
      "type": "function"
    },
    {
      "inputs": [
        {
          "internalType": "uint256",
          "name": "_newClaimDelay",
          "type": "uint256"
        }
      ],
      "name": "updateClaimDelay",
      "outputs": [],
      "stateMutability": "nonpayable",
      "type": "function"
    },
    {
      "inputs": [
        {
          "internalType": "uint256",
          "name": "_newRewardPeriodSize",
          "type": "uint256"
        },
        {
          "internalType": "uint256",
          "name": "_newDecayNumerator",
          "type": "uint256"
        },
        {
          "internalType": "uint256",
          "name": "_newDecayDenominator",
          "type": "uint256"
        }
      ],
      "name": "updateRewardPeriodParams",
      "outputs": [],
      "stateMutability": "nonpayable",
      "type": "function"
    },
    {
      "inputs": [
        {
          "internalType": "contract ITreasury",
          "name": "_newTreasury",
          "type": "address"
        }
      ],
      "name": "updateTreasury",
      "outputs": [],
      "stateMutability": "nonpayable",
      "type": "function"
    }
  ],
  "bytecode": "0x608060405234801561001057600080fd5b506126a0806100206000396000f3fe608060405234801561001057600080fd5b50600436106101fb5760003560e01c80638da5cb5b1161011a578063cd75000c116100ad578063e48508df1161007c578063e48508df1461049f578063ed409ff3146104b2578063f14faf6f146104bb578063f2fde38b146104ce578063f8626af8146104e157600080fd5b8063cd75000c14610453578063de8f41ba14610466578063df8fa43014610479578063e247b8d81461048c57600080fd5b8063beabacc8116100e9578063beabacc8146103da578063c38474c0146103ed578063c89d1a8e146103f6578063ca0cdea81461040957600080fd5b80638da5cb5b146103a457806392ade299146103b5578063a4b01bf5146103be578063a70e940b146103d157600080fd5b80633ddec531116101925780637c62b1af116101615780637c62b1af146102fb5780637f51bb1f1461030e578063821787ec146103215780638252097d1461033457600080fd5b80633ddec531146102905780635c975abb146102ca57806361d027b3146102e0578063715018a6146102f357600080fd5b80632abfab4d116101ce5780632abfab4d146102575780632bef5eef14610260578063372500ab146102735780633b9a01761461027d57600080fd5b806307ea4e57146102005780630d8e6e2c1461021c5780631c8ec299146102235780631fccf6721461022c575b600080fd5b61020960cf5481565b6040519081526020015b60405180910390f35b6003610209565b61020960d45481565b60c95461023f906001600160a01b031681565b6040516001600160a01b039091168152602001610213565b61020960cd5481565b61020961026e3660046123a9565b61057f565b61027b6105ac565b005b60ca5461023f906001600160a01b031681565b61020961029e36600461222b565b6001600160a01b0391909116600090815260d36020908152604080832093835260029093019052205490565b60655460ff166040519015158152602001610213565b60cb5461023f906001600160a01b031681565b61027b61068c565b61027b610309366004612292565b6106c2565b61027b61031c36600461220f565b610957565b61020961032f36600461222b565b6109d3565b610377610342366004612379565b60d260205260009081526040902080546001820154600283015460038401546004850154600690950154939492939192909186565b604080519687526020870195909552938501929092526060840152608083015260a082015260c001610213565b6033546001600160a01b031661023f565b61020960d05481565b61027b6103cc366004612379565b610af4565b61020960d55481565b61027b6103e83660046122a4565b610b64565b61020960ce5481565b61020961040436600461220f565b610c21565b61043861041736600461220f565b60d36020526000908152604090208054600182015460039092015490919083565b60408051938452602084019290925290820152606001610213565b61020961046136600461220f565b610d21565b61027b610474366004612379565b610da5565b61027b6104873660046122e4565b610f0c565b61027b61049a366004612379565b61126d565b61027b6104ad3660046123d8565b6112d5565b61020960cc5481565b61027b6104c9366004612379565b611379565b61027b6104dc36600461220f565b61143d565b61053b6104ef366004612379565b60d16020526000908152604090208054600182015460028301546003840154600485015460058601546006909601546001600160a01b0395861696948616959394929391929091169087565b604080516001600160a01b03988916815296881660208801528601949094526060850192909252608084015290921660a082015260c081019190915260e001610213565b600082815260d2602090815260408083206001600160a01b03851684526005019091529020545b92915050565b60655460ff16156105d85760405162461bcd60e51b81526004016105cf90612489565b60405180910390fd5b600160005260d260205260008051602061264b833981519152544310156106115760405162461bcd60e51b81526004016105cf90612452565b600260975414156106345760405162461bcd60e51b81526004016105cf90612533565b6002609755600061064c336106476114d8565b61151f565b60405181815290915033907f106f923f993c2149d49b4255ff723acafa1f2d94393f561d3eda32ae348f72419060200160405180910390a2506001609755565b6033546001600160a01b031633146106b65760405162461bcd60e51b81526004016105cf906124b3565b6106c0600061167d565b565b60655460ff16156106e55760405162461bcd60e51b81526004016105cf90612489565b600160005260d260205260008051602061264b8339815191525443101561071e5760405162461bcd60e51b81526004016105cf90612452565b600260975414156107415760405162461bcd60e51b81526004016105cf90612533565b600260975560cb5460408051632fd648bd60e11b815290516000926001600160a01b031691635fac917a916004808301926020929190829003018186803b15801561078b57600080fd5b505afa15801561079f573d6000803e3d6000fd5b505050506040513d601f19601f820116820180604052508101906107c39190612276565b90506001604051633f9409e960e11b81526001600160a01b038581166004830152831690637f2813d29060240160206040518083038186803b15801561080857600080fd5b505afa15801561081c573d6000803e3d6000fd5b505050506040513d601f19601f82011682018060405250810190610840919061235a565b600381111561085f57634e487b7160e01b600052602160045260246000fd5b146108e25760405162461bcd60e51b815260206004820152604760248201527f446f6e6174696f6e4d696e65723a3a646f6e617465546f436f6d6d756e69747960448201527f3a2054686973206973206e6f7420612076616c696420636f6d6d756e697479206064820152666164647265737360c81b608482015260a4016105cf565b60405163e69d849d60e01b8152336004820152602481018390526001600160a01b0384169063e69d849d90604401600060405180830381600087803b15801561092a57600080fd5b505af115801561093e573d6000803e3d6000fd5b5050505061094d3383856116cf565b5050600160975550565b6033546001600160a01b031633146109815760405162461bcd60e51b81526004016105cf906124b3565b60cb80546001600160a01b038381166001600160a01b0319831681179093556040519116919082907f4ab5be82436d353e61ca18726e984e561f5c1cc7c6d38b29d2553c790434705a90600090a35050565b60ce54600090815260d260205260408120600301548190431115610a345760cc5460ce54600090815260d26020526040902060030154610a1390436125c1565b610a1d9190612582565b905060ce5481610a2d919061256a565b9050610a46565b600160ce54610a4391906125c1565b90505b80831115610ae25760405162461bcd60e51b815260206004820152605e60248201527f446f6e6174696f6e4d696e65723a3a63616c63756c617465436c61696d61626c60448201527f65526577617264734279506572696f644e756d6265723a20546869732072657760648201527f61726420706572696f642069736e277420617661696c61626c65207965740000608482015260a4016105cf565b610aec84846117bf565b949350505050565b6033546001600160a01b03163314610b1e5760405162461bcd60e51b81526004016105cf906124b3565b60d580549082905560408051828152602081018490527fd6a28c11ae992e0014e83eaaa6f0023a04c0787848134e8b4e43f44b7d7d8e3091015b60405180910390a15050565b6033546001600160a01b03163314610b8e5760405162461bcd60e51b81526004016105cf906124b3565b60026097541415610bb15760405162461bcd60e51b81526004016105cf90612533565b6002609755610bca6001600160a01b0384168383611b30565b816001600160a01b0316836001600160a01b03167f9b035625e569d1d2bf54830a290aefba7ab11610ba8490871dc62b86b63a895683604051610c0f91815260200190565b60405180910390a35050600160975550565b6001600090815260d260205260008051602061264b83398151915254431015610c5c5760405162461bcd60e51b81526004016105cf90612452565b60655460ff1615610c7f5760405162461bcd60e51b81526004016105cf90612489565b60ce54600090815260d26020526040902060030154431115610ca357506000919050565b60ce54600081815260d26020526040812060d554909282918291829110610ccb576000610cdb565b60d55460ce54610cdb91906125c1565b9050610cea878260ce54611b98565b60018701549095509093508490610d029085906125a2565b610d0c9190612582565b610d16908361256a565b979650505050505050565b60ce54600090815260d260205260408120600301548190431115610d825760cc5460ce54600090815260d26020526040902060030154610d6190436125c1565b610d6b9190612582565b905060ce5481610d7b919061256a565b9050610d94565b600160ce54610d9191906125c1565b90505b610d9e83826117bf565b9392505050565b60655460ff1615610dc85760405162461bcd60e51b81526004016105cf90612489565b600160005260d260205260008051602061264b83398151915254431015610e015760405162461bcd60e51b81526004016105cf90612452565b60026097541415610e245760405162461bcd60e51b81526004016105cf90612533565b6002609755610e316114d8565b811115610eb95760405162461bcd60e51b815260206004820152604a60248201527f446f6e6174696f6e4d696e65723a3a636c61696d52657761726473506172746960448201527f616c3a20546869732072657761726420706572696f642069736e277420636c616064820152691a5b58589b19481e595d60b21b608482015260a4016105cf565b6000610ec5338361151f565b604080518281526020810185905291925033917f2233b4bbf378b3d984acd0e36cea96f66bc81012a683e81929ed96df5287ba3d910160405180910390a250506001609755565b600054610100900460ff16610f275760005460ff1615610f2b565b303b155b610f8e5760405162461bcd60e51b815260206004820152602e60248201527f496e697469616c697a61626c653a20636f6e747261637420697320616c72656160448201526d191e481a5b9a5d1a585b1a5e995960921b60648201526084016105cf565b600054610100900460ff16158015610fb0576000805461ffff19166101011790555b6001600160a01b03891661101e5760405162461bcd60e51b815260206004820152602f60248201527f446f6e6174696f6e4d696e65723a3a696e697469616c697a653a20635553442060448201526e1859191c995cdcc81b9bdd081cd95d608a1b60648201526084016105cf565b6001600160a01b03881661108c5760405162461bcd60e51b815260206004820152602f60248201527f446f6e6174696f6e4d696e65723a3a696e697469616c697a653a20504143542060448201526e1859191c995cdcc81b9bdd081cd95d608a1b60648201526084016105cf565b6001600160a01b0387166110f75760405162461bcd60e51b815260206004820152602c60248201527f446f6e6174696f6e4d696e65723a3a696e697469616c697a653a20747265617360448201526b1d5c9e57c81b9bdd081cd95d60a21b60648201526084016105cf565b8561116a5760405162461bcd60e51b815260206004820152603760248201527f446f6e6174696f6e4d696e65723a3a696e697469616c697a653a20666972737460448201527f526577617264506572426c6f636b206e6f74207365742100000000000000000060648201526084016105cf565b836111dd5760405162461bcd60e51b815260206004820152603860248201527f446f6e6174696f6e4d696e65723a3a696e697469616c697a653a20737461727460448201527f696e67526577617264506572696f64206e6f742073657421000000000000000060648201526084016105cf565b6111e5611c0d565b6111ed611c44565b6111f5611c7b565b60c980546001600160a01b03808c166001600160a01b03199283161790925560ca80548b841690831617905560cb8054928a169290911691909117905560cc85905560cf83905560d0829055600160ce556112508487611caa565b8015611262576000805461ff00191690555b505050505050505050565b6033546001600160a01b031633146112975760405162461bcd60e51b81526004016105cf906124b3565b60d480549082905560408051828152602081018490527f7625e5482008771a414881eb4c957803f2ab46e99e6da60df6e1310f0f009fec9101610b58565b6033546001600160a01b031633146112ff5760405162461bcd60e51b81526004016105cf906124b3565b60cc805460cf805460d080549488905591869055908490556040805183815260208101839052908101849052606081018790526080810186905260a08101859052919290917f8fb29c6ced5ce51696c08668df816fab7e60c674a6c36e167d5df9b8a5f499849060c00160405180910390a1505050505050565b60655460ff161561139c5760405162461bcd60e51b81526004016105cf90612489565b600160005260d260205260008051602061264b833981519152544310156113d55760405162461bcd60e51b81526004016105cf90612452565b600260975414156113f85760405162461bcd60e51b81526004016105cf90612533565b600260975560cb5460c95461141c916001600160a01b039182169133911684611d21565b60cb5461143590339083906001600160a01b03166116cf565b506001609755565b6033546001600160a01b031633146114675760405162461bcd60e51b81526004016105cf906124b3565b6001600160a01b0381166114cc5760405162461bcd60e51b815260206004820152602660248201527f4f776e61626c653a206e6577206f776e657220697320746865207a65726f206160448201526564647265737360d01b60648201526084016105cf565b6114d58161167d565b50565b60006114e2611d5f565b60d4546114f090600161256a565b60ce54116114fe5750600090565b60d454600160ce5461151091906125c1565b61151a91906125c1565b905090565b6001600160a01b038216600090815260d3602052604081208161154285856117bf565b9050838260030154101561155857600382018490555b806115665791506105a69050565b60ca546040516370a0823160e01b81523060048201526001600160a01b03909116906370a082319060240160206040518083038186803b1580156115a957600080fd5b505afa1580156115bd573d6000803e3d6000fd5b505050506040513d601f19601f820116820180604052508101906115e19190612391565b8111156116665760ca546040516370a0823160e01b81523060048201526001600160a01b03909116906370a082319060240160206040518083038186803b15801561162b57600080fd5b505afa15801561163f573d6000803e3d6000fd5b505050506040513d601f19601f820116820180604052508101906116639190612391565b90505b60ca54610aec906001600160a01b03168683611b30565b603380546001600160a01b038381166001600160a01b0319831681179093556040519116919082907f8be0079c531659141344cd1fd0a4f28419497f9722a3daafe3b4186f6b6457e090600090a35050565b6116d7611d5f565b60cd80549060006116e783612604565b909155505060cd54600090815260d16020526040902080546001600160a01b038086166001600160a01b03199283161783556001830180548583169084161790556004830185905543600384015560ce8054600285015560c954600585018054909416921691909117909155670de0b6b3a764000060068301555461176d903385611e81565b61177633611ede565b60cd546040518481526001600160a01b0384169133917fdc4e2aab08207c15ed02d2a68af2e6df3472e2d7a636be078843d1724917e3a89060200160405180910390a450505050565b6001600160a01b038216600090815260d360209081526040808320805484526002810190925282205460038201548391829111611819578254600090815260028401602052604090205461181490600161256a565b611829565b600383015461182990600161256a565b905080600114156118495750600160009081526002830160205260409020545b60d26020526000818152604081208180528190819081907f20791b593a776a2631a28f4a3f62a14ad18db22add38130c4f4a8fdfa463988590815b8b8811611b1f57600282015461197a5760d5546118a290600161256a565b88111561191f5760d2600060d55460018b6118bd91906125c1565b6118c791906125c1565b815260200190815260200160002090508060050160008e6001600160a01b03166001600160a01b03168152602001908152602001600020548761190a91906125c1565b965080600401548661191c91906125c1565b95505b6001600160a01b038d166000908152600583016020526040902054611944908861256a565b9650816004015486611956919061256a565b955060d05460cf548561196991906125a2565b6119739190612582565b9350611ad2565b60068201546119b4576001600160a01b038d1660009081526005830160205260409020546004830154600184015491985096509350611ad2565b8160060154836006015414611a0257816006015488116119d55760006119e4565b60068201546119e490896125c1565b94506119f18d868a611b98565b600184015491985096509350611ad2565b6006820154611a1290600161256a565b881115611a915760d26000836006015460018b611a2f91906125c1565b611a3991906125c1565b815260200190815260200160002090508060050160008e6001600160a01b03166001600160a01b031681526020019081526020016000205487611a7c91906125c1565b9650806004015486611a8e91906125c1565b95505b6001600160a01b038d166000908152600583016020526040902054611ab6908861256a565b9650816004015486611ac8919061256a565b9550816001015493505b8515611afa5785611ae388866125a2565b611aed9190612582565b611af7908a61256a565b98505b87611b0481612604565b600081815260d2602052604090209099509293506118849050565b50969b9a5050505050505050505050565b6040516001600160a01b038316602482015260448101829052611b9390849063a9059cbb60e01b906064015b60408051601f198184030181529190526020810180516001600160e01b03166001600160e01b031990931692909217909152611f49565b505050565b6000808080855b858111611c0057600081815260d2602090815260408083206001600160a01b038c1684526005810190925290912054611bd8908561256a565b9350806004015483611bea919061256a565b9250508080611bf890612604565b915050611b9f565b5090969095509350505050565b600054610100900460ff16611c345760405162461bcd60e51b81526004016105cf906124e8565b611c3c61201b565b6106c0612042565b600054610100900460ff16611c6b5760405162461bcd60e51b81526004016105cf906124e8565b611c7361201b565b6106c0612072565b600054610100900460ff16611ca25760405162461bcd60e51b81526004016105cf906124e8565b6106c06120a5565b6001600081905260d260205260008051602061264b83398151915283905560cc547fb7404ce2b5a52e61a6b5c9b4585ed65d8cb4b8848d3ee262a356d0c2c46c5f359190611cf8908561256a565b611d0291906125c1565b600382015581815560cc54611d1790836125a2565b6001909101555050565b6040516001600160a01b0380851660248301528316604482015260648101829052611d599085906323b872dd60e01b90608401611b5c565b50505050565b60ce54600090815260d2602052604090205b43816003015410156114d55760ce8054906000611d8d83612604565b909155505060ce54600090815260d26020526040902060d55460068201556003820154611dbb90600161256a565b6002820181905560cc54600191611dd2919061256a565b611ddc91906125c1565b6003820155611de96120d3565b80825560cc54600091611dfb916125a2565b90506000808460060154600160ce54611e1491906125c1565b11611e20576000611e3e565b8460060154600160ce54611e3491906125c1565b611e3e91906125c1565b9050611e593382600160ce54611e5491906125c1565b611b98565b92505081611e73576001850154611e70908461256a565b92505b505060018201559050611d71565b600083815260d26020526040812060048101805491928492611ea490849061256a565b90915550506001600160a01b038316600090815260058201602052604081208054849290611ed390849061256a565b909155505050505050565b6001600160a01b038116600090815260d36020908152604080832060018101548452600281019092529091205460ce548114611b9357600182018054906000611f2683612604565b909155505060ce5460018301546000908152600284016020526040902055505050565b6000611f9e826040518060400160405280602081526020017f5361666545524332303a206c6f772d6c6576656c2063616c6c206661696c6564815250856001600160a01b03166121149092919063ffffffff16565b805190915015611b935780806020019051810190611fbc9190612256565b611b935760405162461bcd60e51b815260206004820152602a60248201527f5361666545524332303a204552433230206f7065726174696f6e20646964206e6044820152691bdd081cdd58d8d9595960b21b60648201526084016105cf565b600054610100900460ff166106c05760405162461bcd60e51b81526004016105cf906124e8565b600054610100900460ff166120695760405162461bcd60e51b81526004016105cf906124e8565b6106c03361167d565b600054610100900460ff166120995760405162461bcd60e51b81526004016105cf906124e8565b6065805460ff19169055565b600054610100900460ff166120cc5760405162461bcd60e51b81526004016105cf906124e8565b6001609755565b600060d05460cf5460d26000600160ce546120ee91906125c1565b81526020019081526020016000206000015461210a91906125a2565b61151a9190612582565b6060610aec848460008585843b61216d5760405162461bcd60e51b815260206004820152601d60248201527f416464726573733a2063616c6c20746f206e6f6e2d636f6e747261637400000060448201526064016105cf565b600080866001600160a01b031685876040516121899190612403565b60006040518083038185875af1925050503d80600081146121c6576040519150601f19603f3d011682016040523d82523d6000602084013e6121cb565b606091505b5091509150610d16828286606083156121e5575081610d9e565b8251156121f55782518084602001fd5b8160405162461bcd60e51b81526004016105cf919061241f565b600060208284031215612220578081fd5b8135610d9e81612635565b6000806040838503121561223d578081fd5b823561224881612635565b946020939093013593505050565b600060208284031215612267578081fd5b81518015158114610d9e578182fd5b600060208284031215612287578081fd5b8151610d9e81612635565b6000806040838503121561223d578182fd5b6000806000606084860312156122b8578081fd5b83356122c381612635565b925060208401356122d381612635565b929592945050506040919091013590565b600080600080600080600080610100898b031215612300578384fd5b883561230b81612635565b9750602089013561231b81612635565b9650604089013561232b81612635565b979a96995096976060810135975060808101359660a0820135965060c0820135955060e0909101359350915050565b60006020828403121561236b578081fd5b815160048110610d9e578182fd5b60006020828403121561238a578081fd5b5035919050565b6000602082840312156123a2578081fd5b5051919050565b600080604083850312156123bb578182fd5b8235915060208301356123cd81612635565b809150509250929050565b6000806000606084860312156123ec578283fd5b505081359360208301359350604090920135919050565b600082516124158184602087016125d8565b9190910192915050565b602081526000825180602084015261243e8160408501602087016125d8565b601f01601f19169190910160400192915050565b6020808252601e908201527f446f6e6174696f6e4d696e65723a204552525f4e4f545f535441525445440000604082015260600190565b60208082526010908201526f14185d5cd8589b194e881c185d5cd95960821b604082015260600190565b6020808252818101527f4f776e61626c653a2063616c6c6572206973206e6f7420746865206f776e6572604082015260600190565b6020808252602b908201527f496e697469616c697a61626c653a20636f6e7472616374206973206e6f74206960408201526a6e697469616c697a696e6760a81b606082015260800190565b6020808252601f908201527f5265656e7472616e637947756172643a207265656e7472616e742063616c6c00604082015260600190565b6000821982111561257d5761257d61261f565b500190565b60008261259d57634e487b7160e01b81526012600452602481fd5b500490565b60008160001904831182151516156125bc576125bc61261f565b500290565b6000828210156125d3576125d361261f565b500390565b60005b838110156125f35781810151838201526020016125db565b83811115611d595750506000910152565b60006000198214156126185761261861261f565b5060010190565b634e487b7160e01b600052601160045260246000fd5b6001600160a01b03811681146114d557600080fdfeb7404ce2b5a52e61a6b5c9b4585ed65d8cb4b8848d3ee262a356d0c2c46c5f37a26469706673582212205bae344ec2de857ebb729f8323174b23f49949bbff0a0e317c4e26cd4247cd3c64736f6c63430008040033",
  "linkReferences": {},
  "deployedLinkReferences": {}
}