{
  "_format": "hh-sol-artifact-1",
  "contractName": "TreasuryImplementationOld",
  "sourceName": "contracts/mocks/treasury/TreasuryImplementationOld.sol",
  "abi": [
    {
      "anonymous": false,
      "inputs": [
        {
          "indexed": true,
          "internalType": "address",
          "name": "oldCommunityAdmin",
          "type": "address"
        },
        {
          "indexed": true,
          "internalType": "address",
          "name": "newCommunityAdmin",
          "type": "address"
        }
      ],
      "name": "CommunityAdminUpdated",
      "type": "event"
    },
    {
      "anonymous": false,
      "inputs": [
        {
          "indexed": true,
          "internalType": "address",
          "name": "previousOwner",
          "type": "address"
        },
        {
          "indexed": true,
          "internalType": "address",
          "name": "newOwner",
          "type": "address"
        }
      ],
      "name": "OwnershipTransferred",
      "type": "event"
    },
    {
      "anonymous": false,
      "inputs": [
        {
          "indexed": true,
          "internalType": "address",
          "name": "token",
          "type": "address"
        },
        {
          "indexed": true,
          "internalType": "address",
          "name": "to",
          "type": "address"
        },
        {
          "indexed": false,
          "internalType": "uint256",
          "name": "amount",
          "type": "uint256"
        }
      ],
      "name": "TransferERC20",
      "type": "event"
    },
    {
      "inputs": [],
      "name": "communityAdmin",
      "outputs": [
        {
          "internalType": "contract ICommunityAdmin",
          "name": "",
          "type": "address"
        }
      ],
      "stateMutability": "view",
      "type": "function"
    },
    {
      "inputs": [],
      "name": "getVersion",
      "outputs": [
        {
          "internalType": "uint256",
          "name": "",
          "type": "uint256"
        }
      ],
      "stateMutability": "pure",
      "type": "function"
    },
    {
      "inputs": [
        {
          "internalType": "contract ICommunityAdmin",
          "name": "_communityAdmin",
          "type": "address"
        }
      ],
      "name": "initialize",
      "outputs": [],
      "stateMutability": "nonpayable",
      "type": "function"
    },
    {
      "inputs": [],
      "name": "owner",
      "outputs": [
        {
          "internalType": "address",
          "name": "",
          "type": "address"
        }
      ],
      "stateMutability": "view",
      "type": "function"
    },
    {
      "inputs": [],
      "name": "renounceOwnership",
      "outputs": [],
      "stateMutability": "nonpayable",
      "type": "function"
    },
    {
      "inputs": [
        {
          "internalType": "contract IERC20Upgradeable",
          "name": "_token",
          "type": "address"
        },
        {
          "internalType": "address",
          "name": "_to",
          "type": "address"
        },
        {
          "internalType": "uint256",
          "name": "_amount",
          "type": "uint256"
        }
      ],
      "name": "transfer",
      "outputs": [],
      "stateMutability": "nonpayable",
      "type": "function"
    },
    {
      "inputs": [
        {
          "internalType": "address",
          "name": "newOwner",
          "type": "address"
        }
      ],
      "name": "transferOwnership",
      "outputs": [],
      "stateMutability": "nonpayable",
      "type": "function"
    },
    {
      "inputs": [
        {
          "internalType": "contract ICommunityAdmin",
          "name": "_newCommunityAdmin",
          "type": "address"
        }
      ],
      "name": "updateCommunityAdmin",
      "outputs": [],
      "stateMutability": "nonpayable",
      "type": "function"
    }
  ],
  "bytecode": "0x608060405234801561001057600080fd5b50610a5a806100206000396000f3fe608060405234801561001057600080fd5b50600436106100885760003560e01c8063beabacc81161005b578063beabacc8146100e7578063c4d66de8146100fa578063d33d4ec61461010d578063f2fde38b1461012057600080fd5b80630d8e6e2c1461008d5780635fac917a146100a1578063715018a6146100cc5780638da5cb5b146100d6575b600080fd5b604051600181526020015b60405180910390f35b6097546100b4906001600160a01b031681565b6040516001600160a01b039091168152602001610098565b6100d4610133565b005b6033546001600160a01b03166100b4565b6100d46100f53660046108d0565b610172565b6100d4610108366004610894565b6102b8565b6100d461011b366004610894565b61039d565b6100d461012e366004610894565b610419565b6033546001600160a01b031633146101665760405162461bcd60e51b815260040161015d9061095f565b60405180910390fd5b61017060006104b4565b565b6097546001600160a01b031633148061019557506033546001600160a01b031633145b6101f55760405162461bcd60e51b815260206004820152602b60248201527f54726561737572793a204e4f545f434f4d4d554e4954595f41444d494e20414e60448201526a22102727aa2fa7aba722a960a91b606482015260840161015d565b600260655414156102485760405162461bcd60e51b815260206004820152601f60248201527f5265656e7472616e637947756172643a207265656e7472616e742063616c6c00604482015260640161015d565b60026065556102616001600160a01b0384168383610506565b816001600160a01b0316836001600160a01b03167f9b035625e569d1d2bf54830a290aefba7ab11610ba8490871dc62b86b63a8956836040516102a691815260200190565b60405180910390a35050600160655550565b600054610100900460ff166102d35760005460ff16156102d7565b303b155b61033a5760405162461bcd60e51b815260206004820152602e60248201527f496e697469616c697a61626c653a20636f6e747261637420697320616c72656160448201526d191e481a5b9a5d1a585b1a5e995960921b606482015260840161015d565b600054610100900460ff1615801561035c576000805461ffff19166101011790555b61036461055d565b61036c610594565b609780546001600160a01b0319166001600160a01b0384161790558015610399576000805461ff00191690555b5050565b6033546001600160a01b031633146103c75760405162461bcd60e51b815260040161015d9061095f565b609780546001600160a01b038381166001600160a01b0319831681179093556040519116919082907fdd8d3b7b0badfc5d636d48e71e28015b4b8554b64d2cffba6f0a90bf7693ec0090600090a35050565b6033546001600160a01b031633146104435760405162461bcd60e51b815260040161015d9061095f565b6001600160a01b0381166104a85760405162461bcd60e51b815260206004820152602660248201527f4f776e61626c653a206e6577206f776e657220697320746865207a65726f206160448201526564647265737360d01b606482015260840161015d565b6104b1816104b4565b50565b603380546001600160a01b038381166001600160a01b0319831681179093556040519116919082907f8be0079c531659141344cd1fd0a4f28419497f9722a3daafe3b4186f6b6457e090600090a35050565b604080516001600160a01b038416602482015260448082018490528251808303909101815260649091019091526020810180516001600160e01b031663a9059cbb60e01b1790526105589084906105c3565b505050565b600054610100900460ff166105845760405162461bcd60e51b815260040161015d90610994565b61058c610695565b6101706106bc565b600054610100900460ff166105bb5760405162461bcd60e51b815260040161015d90610994565b6101706106ec565b6000610618826040518060400160405280602081526020017f5361666545524332303a206c6f772d6c6576656c2063616c6c206661696c6564815250856001600160a01b031661071a9092919063ffffffff16565b805190915015610558578080602001905181019061063691906108b0565b6105585760405162461bcd60e51b815260206004820152602a60248201527f5361666545524332303a204552433230206f7065726174696f6e20646964206e6044820152691bdd081cdd58d8d9595960b21b606482015260840161015d565b600054610100900460ff166101705760405162461bcd60e51b815260040161015d90610994565b600054610100900460ff166106e35760405162461bcd60e51b815260040161015d90610994565b610170336104b4565b600054610100900460ff166107135760405162461bcd60e51b815260040161015d90610994565b6001606555565b60606107298484600085610733565b90505b9392505050565b6060824710156107945760405162461bcd60e51b815260206004820152602660248201527f416464726573733a20696e73756666696369656e742062616c616e636520666f6044820152651c8818d85b1b60d21b606482015260840161015d565b843b6107e25760405162461bcd60e51b815260206004820152601d60248201527f416464726573733a2063616c6c20746f206e6f6e2d636f6e7472616374000000604482015260640161015d565b600080866001600160a01b031685876040516107fe9190610910565b60006040518083038185875af1925050503d806000811461083b576040519150601f19603f3d011682016040523d82523d6000602084013e610840565b606091505b509150915061085082828661085b565b979650505050505050565b6060831561086a57508161072c565b82511561087a5782518084602001fd5b8160405162461bcd60e51b815260040161015d919061092c565b6000602082840312156108a5578081fd5b813561072c81610a0f565b6000602082840312156108c1578081fd5b8151801515811461072c578182fd5b6000806000606084860312156108e4578182fd5b83356108ef81610a0f565b925060208401356108ff81610a0f565b929592945050506040919091013590565b600082516109228184602087016109df565b9190910192915050565b602081526000825180602084015261094b8160408501602087016109df565b601f01601f19169190910160400192915050565b6020808252818101527f4f776e61626c653a2063616c6c6572206973206e6f7420746865206f776e6572604082015260600190565b6020808252602b908201527f496e697469616c697a61626c653a20636f6e7472616374206973206e6f74206960408201526a6e697469616c697a696e6760a81b606082015260800190565b60005b838110156109fa5781810151838201526020016109e2565b83811115610a09576000848401525b50505050565b6001600160a01b03811681146104b157600080fdfea264697066735822122059d973b26968e36449bb7fa47c3eec54886630e70a43bfa264abe44321eea2e164736f6c63430008040033",
  "linkReferences": {},
  "deployedLinkReferences": {}
}