{
  "_format": "hh-sol-artifact-1",
  "contractName": "VotingToken",
  "sourceName": "@ubeswap/governance/contracts/voting/VotingToken.sol",
  "abi": [
    {
      "inputs": [
        {
          "internalType": "string",
          "name": "name_",
          "type": "string"
        },
        {
          "internalType": "string",
          "name": "symbol_",
          "type": "string"
        },
        {
          "internalType": "uint8",
          "name": "decimals_",
          "type": "uint8"
        }
      ],
      "stateMutability": "nonpayable",
      "type": "constructor"
    },
    {
      "anonymous": false,
      "inputs": [
        {
          "indexed": true,
          "internalType": "address",
          "name": "delegator",
          "type": "address"
        },
        {
          "indexed": true,
          "internalType": "address",
          "name": "fromDelegate",
          "type": "address"
        },
        {
          "indexed": true,
          "internalType": "address",
          "name": "toDelegate",
          "type": "address"
        }
      ],
      "name": "DelegateChanged",
      "type": "event"
    },
    {
      "anonymous": false,
      "inputs": [
        {
          "indexed": true,
          "internalType": "address",
          "name": "delegate",
          "type": "address"
        },
        {
          "indexed": false,
          "internalType": "uint256",
          "name": "previousBalance",
          "type": "uint256"
        },
        {
          "indexed": false,
          "internalType": "uint256",
          "name": "newBalance",
          "type": "uint256"
        }
      ],
      "name": "DelegateVotesChanged",
      "type": "event"
    },
    {
      "anonymous": false,
      "inputs": [
        {
          "indexed": true,
          "internalType": "address",
          "name": "from",
          "type": "address"
        },
        {
          "indexed": true,
          "internalType": "address",
          "name": "to",
          "type": "address"
        },
        {
          "indexed": false,
          "internalType": "uint256",
          "name": "amount",
          "type": "uint256"
        }
      ],
      "name": "Transfer",
      "type": "event"
    },
    {
      "inputs": [],
      "name": "DELEGATION_TYPEHASH",
      "outputs": [
        {
          "internalType": "bytes32",
          "name": "",
          "type": "bytes32"
        }
      ],
      "stateMutability": "view",
      "type": "function"
    },
    {
      "inputs": [],
      "name": "DOMAIN_TYPEHASH",
      "outputs": [
        {
          "internalType": "bytes32",
          "name": "",
          "type": "bytes32"
        }
      ],
      "stateMutability": "view",
      "type": "function"
    },
    {
      "inputs": [
        {
          "internalType": "address",
          "name": "_account",
          "type": "address"
        }
      ],
      "name": "balanceOf",
      "outputs": [
        {
          "internalType": "uint256",
          "name": "",
          "type": "uint256"
        }
      ],
      "stateMutability": "view",
      "type": "function"
    },
    {
      "inputs": [
        {
          "internalType": "address",
          "name": "",
          "type": "address"
        },
        {
          "internalType": "uint32",
          "name": "",
          "type": "uint32"
        }
      ],
      "name": "checkpoints",
      "outputs": [
        {
          "internalType": "uint32",
          "name": "fromBlock",
          "type": "uint32"
        },
        {
          "internalType": "uint96",
          "name": "votes",
          "type": "uint96"
        }
      ],
      "stateMutability": "view",
      "type": "function"
    },
    {
      "inputs": [],
      "name": "decimals",
      "outputs": [
        {
          "internalType": "uint8",
          "name": "",
          "type": "uint8"
        }
      ],
      "stateMutability": "view",
      "type": "function"
    },
    {
      "inputs": [
        {
          "internalType": "address",
          "name": "delegatee",
          "type": "address"
        }
      ],
      "name": "delegate",
      "outputs": [],
      "stateMutability": "nonpayable",
      "type": "function"
    },
    {
      "inputs": [
        {
          "internalType": "address",
          "name": "delegatee",
          "type": "address"
        },
        {
          "internalType": "uint256",
          "name": "nonce",
          "type": "uint256"
        },
        {
          "internalType": "uint256",
          "name": "expiry",
          "type": "uint256"
        },
        {
          "internalType": "uint8",
          "name": "v",
          "type": "uint8"
        },
        {
          "internalType": "bytes32",
          "name": "r",
          "type": "bytes32"
        },
        {
          "internalType": "bytes32",
          "name": "s",
          "type": "bytes32"
        }
      ],
      "name": "delegateBySig",
      "outputs": [],
      "stateMutability": "nonpayable",
      "type": "function"
    },
    {
      "inputs": [
        {
          "internalType": "address",
          "name": "",
          "type": "address"
        }
      ],
      "name": "delegates",
      "outputs": [
        {
          "internalType": "address",
          "name": "",
          "type": "address"
        }
      ],
      "stateMutability": "view",
      "type": "function"
    },
    {
      "inputs": [
        {
          "internalType": "address",
          "name": "account",
          "type": "address"
        }
      ],
      "name": "getCurrentVotes",
      "outputs": [
        {
          "internalType": "uint96",
          "name": "",
          "type": "uint96"
        }
      ],
      "stateMutability": "view",
      "type": "function"
    },
    {
      "inputs": [
        {
          "internalType": "address",
          "name": "account",
          "type": "address"
        },
        {
          "internalType": "uint256",
          "name": "blockNumber",
          "type": "uint256"
        }
      ],
      "name": "getPriorVotes",
      "outputs": [
        {
          "internalType": "uint96",
          "name": "",
          "type": "uint96"
        }
      ],
      "stateMutability": "view",
      "type": "function"
    },
    {
      "inputs": [],
      "name": "name",
      "outputs": [
        {
          "internalType": "string",
          "name": "",
          "type": "string"
        }
      ],
      "stateMutability": "view",
      "type": "function"
    },
    {
      "inputs": [
        {
          "internalType": "address",
          "name": "",
          "type": "address"
        }
      ],
      "name": "nonces",
      "outputs": [
        {
          "internalType": "uint256",
          "name": "",
          "type": "uint256"
        }
      ],
      "stateMutability": "view",
      "type": "function"
    },
    {
      "inputs": [
        {
          "internalType": "address",
          "name": "",
          "type": "address"
        }
      ],
      "name": "numCheckpoints",
      "outputs": [
        {
          "internalType": "uint32",
          "name": "",
          "type": "uint32"
        }
      ],
      "stateMutability": "view",
      "type": "function"
    },
    {
      "inputs": [],
      "name": "symbol",
      "outputs": [
        {
          "internalType": "string",
          "name": "",
          "type": "string"
        }
      ],
      "stateMutability": "view",
      "type": "function"
    },
    {
      "inputs": [],
      "name": "totalSupply",
      "outputs": [
        {
          "internalType": "uint256",
          "name": "",
          "type": "uint256"
        }
      ],
      "stateMutability": "view",
      "type": "function"
    },
    {
      "inputs": [],
      "name": "totalVotingPower",
      "outputs": [
        {
          "internalType": "uint96",
          "name": "",
          "type": "uint96"
        }
      ],
      "stateMutability": "view",
      "type": "function"
    },
    {
      "inputs": [
        {
          "internalType": "address",
          "name": "account",
          "type": "address"
        }
      ],
      "name": "votingPower",
      "outputs": [
        {
          "internalType": "uint96",
          "name": "",
          "type": "uint96"
        }
      ],
      "stateMutability": "view",
      "type": "function"
    }
  ],
  "bytecode": "0x60a06040523480156200001157600080fd5b50604051620015df380380620015df8339810160408190526200003491620001ed565b825183906200004b90600090602084019062000094565b505081516200006290600790602085019062000094565b5060f81b7fff000000000000000000000000000000000000000000000000000000000000001660805250620002c19050565b828054620000a2906200026e565b90600052602060002090601f016020900481019282620000c6576000855562000111565b82601f10620000e157805160ff191683800117855562000111565b8280016001018555821562000111579182015b8281111562000111578251825591602001919060010190620000f4565b506200011f92915062000123565b5090565b5b808211156200011f576000815560010162000124565b600082601f8301126200014b578081fd5b81516001600160401b0380821115620001685762000168620002ab565b604051601f8301601f19908116603f01168101908282118183101715620001935762000193620002ab565b81604052838152602092508683858801011115620001af578485fd5b8491505b83821015620001d25785820183015181830184015290820190620001b3565b83821115620001e357848385830101525b9695505050505050565b60008060006060848603121562000202578283fd5b83516001600160401b038082111562000219578485fd5b62000227878388016200013a565b945060208601519150808211156200023d578384fd5b506200024c868287016200013a565b925050604084015160ff8116811462000263578182fd5b809150509250925092565b600181811c908216806200028357607f821691505b60208210811415620002a557634e487b7160e01b600052602260045260246000fd5b50919050565b634e487b7160e01b600052604160045260246000fd5b60805160f81c6112ff620002e0600039600061017201526112ff6000f3fe608060405234801561001057600080fd5b506004361061010b5760003560e01c806370a08231116100a2578063b4b5ea5711610071578063b4b5ea57146102bf578063c07473f6146102d2578063c3cda520146102e0578063e7a324dc146102f3578063f1127ed81461031a57600080fd5b806370a0823114610252578063782d6fe1146102845780637ecebe001461029757806395d89b41146102b757600080fd5b8063587cde1e116100de578063587cde1e1461019c5780635c19a95c146101dd578063671b3793146101f25780636fcfff451461021757600080fd5b806306fdde031461011057806318160ddd1461012e57806320606b7014610144578063313ce5671461016b575b600080fd5b610118610381565b60405161012591906110cc565b60405180910390f35b610136610390565b604051908152602001610125565b6101367f8cad95687ba82c2ce50e74f7b754645e5117c3a5bec8151c0726d5857980a86681565b60405160ff7f0000000000000000000000000000000000000000000000000000000000000000168152602001610125565b6101c56101aa366004610f52565b6003602052600090815260409020546001600160a01b031681565b6040516001600160a01b039091168152602001610125565b6101f06101eb366004610f52565b6103b2565b005b6001546001600160601b03165b6040516001600160601b039091168152602001610125565b61023d610225366004610f52565b60056020526000908152604090205463ffffffff1681565b60405163ffffffff9091168152602001610125565b610136610260366004610f52565b6001600160a01b03166000908152600260205260409020546001600160601b031690565b6101ff610292366004610f6c565b6103bf565b6101366102a5366004610f52565b60066020526000908152604090205481565b61011861064b565b6101ff6102cd366004610f52565b6106dd565b6101ff610260366004610f52565b6101f06102ee366004610f95565b61075b565b6101367fe48329057bfd03d55e49b547132e39cffd9c1820ad7b9d4c5307691425d15adf81565b61035d610328366004610ff3565b600460209081526000928352604080842090915290825290205463ffffffff811690600160201b90046001600160601b031682565b6040805163ffffffff90931683526001600160601b03909116602083015201610125565b606061038b610a2e565b905090565b60006103a46001546001600160601b031690565b6001600160601b0316905090565b6103bc3382610a3d565b50565b60004382106104245760405162461bcd60e51b815260206004820152602660248201527f556e693a3a6765745072696f72566f7465733a206e6f742079657420646574656044820152651c9b5a5b995960d21b60648201526084015b60405180910390fd5b6001600160a01b03831660009081526005602052604090205463ffffffff1680610452576000915050610645565b6001600160a01b03841660009081526004602052604081208491610477600185611198565b63ffffffff908116825260208201929092526040016000205416116104ea576001600160a01b0384166000908152600460205260408120906104ba600184611198565b63ffffffff168152602081019190915260400160002054600160201b90046001600160601b031691506106459050565b6001600160a01b038416600090815260046020908152604080832083805290915290205463ffffffff16831015610525576000915050610645565b600080610533600184611198565b90505b8163ffffffff168163ffffffff16111561060557600060026105588484611198565b6105629190611169565b61056c9083611198565b6001600160a01b038816600090815260046020908152604080832063ffffffff858116855290835292819020815180830190925254928316808252600160201b9093046001600160601b0316918101919091529192508714156105d9576020015194506106459350505050565b805163ffffffff168711156105f0578193506105fe565b6105fb600183611198565b92505b5050610536565b506001600160a01b038516600090815260046020908152604080832063ffffffff909416835292905220546001600160601b03600160201b909104169150505b92915050565b60606007805461065a906111dd565b80601f0160208091040260200160405190810160405280929190818152602001828054610686906111dd565b80156106d35780601f106106a8576101008083540402835291602001916106d3565b820191906000526020600020905b8154815290600101906020018083116106b657829003601f168201915b5050505050905090565b6001600160a01b03811660009081526005602052604081205463ffffffff1680610708576000610754565b6001600160a01b03831660009081526004602052604081209061072c600184611198565b63ffffffff168152602081019190915260400160002054600160201b90046001600160601b03165b9392505050565b60007f8cad95687ba82c2ce50e74f7b754645e5117c3a5bec8151c0726d5857980a866600060405161078d9190611031565b604051809103902061079c4690565b60408051602080820195909552808201939093526060830191909152306080808401919091528151808403909101815260a0830182528051908401207fe48329057bfd03d55e49b547132e39cffd9c1820ad7b9d4c5307691425d15adf60c08401526001600160a01b038b1660e084015261010083018a90526101208084018a90528251808503909101815261014084019092528151919093012061190160f01b610160830152610162820183905261018282018190529192506000906101a20160408051601f198184030181528282528051602091820120600080855291840180845281905260ff8a169284019290925260608301889052608083018790529092509060019060a0016020604051602081039080840390855afa1580156108c8573d6000803e3d6000fd5b5050604051601f1901519150506001600160a01b0381166109395760405162461bcd60e51b815260206004820152602560248201527f556e693a3a64656c656761746542795369673a20696e76616c6964207369676e604482015264617475726560d81b606482015260840161041b565b6001600160a01b038116600090815260066020526040812080549161095d83611218565b9190505589146109b95760405162461bcd60e51b815260206004820152602160248201527f556e693a3a64656c656761746542795369673a20696e76616c6964206e6f6e636044820152606560f81b606482015260840161041b565b87421115610a175760405162461bcd60e51b815260206004820152602560248201527f556e693a3a64656c656761746542795369673a207369676e61747572652065786044820152641c1a5c995960da1b606482015260840161041b565b610a21818b610a3d565b505050505b505050505050565b60606000805461065a906111dd565b6001600160a01b03808316600081815260036020818152604080842080546002845282862054949093528787166001600160a01b031984168117909155905191909516946001600160601b039092169391928592917f3134e8a2e6d97e929a7e54011ea5485d7d196dd5f0ba4d4ef95803e8e3fc257f9190a4610ac1828483610ac7565b50505050565b816001600160a01b0316836001600160a01b031614158015610af257506000816001600160601b0316115b15610c73576001600160a01b03831615610bb7576001600160a01b03831660009081526005602052604081205463ffffffff169081610b32576000610b7e565b6001600160a01b038516600090815260046020526040812090610b56600185611198565b63ffffffff168152602081019190915260400160002054600160201b90046001600160601b03165b90506000610ba582856040518060600160405280602781526020016112a360279139610c78565b9050610bb386848484610cc2565b5050505b6001600160a01b03821615610c73576001600160a01b03821660009081526005602052604081205463ffffffff169081610bf2576000610c3e565b6001600160a01b038416600090815260046020526040812090610c16600185611198565b63ffffffff168152602081019190915260400160002054600160201b90046001600160601b03165b90506000610c65828560405180606001604052806026815260200161124a60269139610eba565b9050610a2685848484610cc2565b505050565b6000836001600160601b0316836001600160601b031611158290610caf5760405162461bcd60e51b815260040161041b91906110cc565b50610cba83856111bd565b949350505050565b6000610ce64360405180606001604052806033815260200161127060339139610f07565b905060008463ffffffff16118015610d4057506001600160a01b038516600090815260046020526040812063ffffffff831691610d24600188611198565b63ffffffff908116825260208201929092526040016000205416145b15610db4576001600160a01b03851660009081526004602052604081208391610d6a600188611198565b63ffffffff168152602081019190915260400160002080546001600160601b0392909216600160201b026fffffffffffffffffffffffff0000000019909216919091179055610e65565b60408051808201825263ffffffff80841682526001600160601b0380861660208085019182526001600160a01b038b166000908152600482528681208b8616825290915294909420925183549451909116600160201b026fffffffffffffffffffffffffffffffff19909416911617919091179055610e3484600161111f565b6001600160a01b0386166000908152600560205260409020805463ffffffff191663ffffffff929092169190911790555b604080516001600160601b038086168252841660208201526001600160a01b038716917fdec2bacdd2f05b59de34da9b523dff8be42e5e38e818c82fdb0bae774387a724910160405180910390a25050505050565b600080610ec78486611147565b9050846001600160601b0316816001600160601b031610158390610efe5760405162461bcd60e51b815260040161041b91906110cc565b50949350505050565b600081600160201b8410610f2e5760405162461bcd60e51b815260040161041b91906110cc565b509192915050565b80356001600160a01b0381168114610f4d57600080fd5b919050565b600060208284031215610f63578081fd5b61075482610f36565b60008060408385031215610f7e578081fd5b610f8783610f36565b946020939093013593505050565b60008060008060008060c08789031215610fad578182fd5b610fb687610f36565b95506020870135945060408701359350606087013560ff81168114610fd9578283fd5b9598949750929560808101359460a0909101359350915050565b60008060408385031215611005578182fd5b61100e83610f36565b9150602083013563ffffffff81168114611026578182fd5b809150509250929050565b600080835482600182811c91508083168061104d57607f831692505b602080841082141561106d57634e487b7160e01b87526022600452602487fd5b8180156110815760018114611092576110be565b60ff198616895284890196506110be565b60008a815260209020885b868110156110b65781548b82015290850190830161109d565b505084890196505b509498975050505050505050565b6000602080835283518082850152825b818110156110f8578581018301518582016040015282016110dc565b818111156111095783604083870101525b50601f01601f1916929092016040019392505050565b600063ffffffff80831681851680830382111561113e5761113e611233565b01949350505050565b60006001600160601b0380831681851680830382111561113e5761113e611233565b600063ffffffff8084168061118c57634e487b7160e01b83526012600452602483fd5b92169190910492915050565b600063ffffffff838116908316818110156111b5576111b5611233565b039392505050565b60006001600160601b03838116908316818110156111b5576111b5611233565b600181811c908216806111f157607f821691505b6020821081141561121257634e487b7160e01b600052602260045260246000fd5b50919050565b600060001982141561122c5761122c611233565b5060010190565b634e487b7160e01b600052601160045260246000fdfe556e693a3a5f6d6f7665566f7465733a20766f746520616d6f756e74206f766572666c6f7773556e693a3a5f7772697465436865636b706f696e743a20626c6f636b206e756d62657220657863656564732033322062697473556e693a3a5f6d6f7665566f7465733a20766f746520616d6f756e7420756e646572666c6f7773a26469706673582212204d8e373af7315d3d1fdb17e81fa7d4a73be54a659394f8f57a4d84dbec89a80464736f6c63430008040033",
  "linkReferences": {},
  "deployedLinkReferences": {}
}