{
  "_format": "hh-sol-artifact-1",
  "contractName": "StakingImplementation",
  "sourceName": "contracts/staking/StakingImplementation.sol",
  "abi": [
    {
      "anonymous": false,
      "inputs": [
        {
          "indexed": true,
          "internalType": "address",
          "name": "holder",
          "type": "address"
        },
        {
          "indexed": false,
          "internalType": "uint256",
          "name": "amount",
          "type": "uint256"
        }
      ],
      "name": "Claimed",
      "type": "event"
    },
    {
      "anonymous": false,
      "inputs": [
        {
          "indexed": true,
          "internalType": "address",
          "name": "holder",
          "type": "address"
        },
        {
          "indexed": false,
          "internalType": "uint256",
          "name": "amount",
          "type": "uint256"
        },
        {
          "indexed": false,
          "internalType": "uint256",
          "name": "lastUnstakeId",
          "type": "uint256"
        }
      ],
      "name": "ClaimedPartial",
      "type": "event"
    },
    {
      "anonymous": false,
      "inputs": [
        {
          "indexed": false,
          "internalType": "uint256",
          "name": "oldCooldown",
          "type": "uint256"
        },
        {
          "indexed": false,
          "internalType": "uint256",
          "name": "newCooldown",
          "type": "uint256"
        }
      ],
      "name": "CooldownUpdated",
      "type": "event"
    },
    {
      "anonymous": false,
      "inputs": [
        {
          "indexed": true,
          "internalType": "address",
          "name": "previousOwner",
          "type": "address"
        },
        {
          "indexed": true,
          "internalType": "address",
          "name": "newOwner",
          "type": "address"
        }
      ],
      "name": "OwnershipTransferred",
      "type": "event"
    },
    {
      "anonymous": false,
      "inputs": [
        {
          "indexed": true,
          "internalType": "address",
          "name": "holder",
          "type": "address"
        },
        {
          "indexed": false,
          "internalType": "uint256",
          "name": "amount",
          "type": "uint256"
        }
      ],
      "name": "Staked",
      "type": "event"
    },
    {
      "anonymous": false,
      "inputs": [
        {
          "indexed": true,
          "internalType": "address",
          "name": "holder",
          "type": "address"
        },
        {
          "indexed": false,
          "internalType": "uint256",
          "name": "amount",
          "type": "uint256"
        }
      ],
      "name": "Unstaked",
      "type": "event"
    },
    {
      "inputs": [],
      "name": "PACT",
      "outputs": [
        {
          "internalType": "contract IERC20Upgradeable",
          "name": "",
          "type": "address"
        }
      ],
      "stateMutability": "view",
      "type": "function"
    },
    {
      "inputs": [],
      "name": "SPACT",
      "outputs": [
        {
          "internalType": "contract IMintableERC20",
          "name": "",
          "type": "address"
        }
      ],
      "stateMutability": "view",
      "type": "function"
    },
    {
      "inputs": [],
      "name": "claim",
      "outputs": [],
      "stateMutability": "nonpayable",
      "type": "function"
    },
    {
      "inputs": [
        {
          "internalType": "address",
          "name": "_holderAddress",
          "type": "address"
        }
      ],
      "name": "claimAmount",
      "outputs": [
        {
          "internalType": "uint256",
          "name": "",
          "type": "uint256"
        }
      ],
      "stateMutability": "view",
      "type": "function"
    },
    {
      "inputs": [
        {
          "internalType": "uint256",
          "name": "_lastUnstakeId",
          "type": "uint256"
        }
      ],
      "name": "claimPartial",
      "outputs": [],
      "stateMutability": "nonpayable",
      "type": "function"
    },
    {
      "inputs": [],
      "name": "cooldown",
      "outputs": [
        {
          "internalType": "uint256",
          "name": "",
          "type": "uint256"
        }
      ],
      "stateMutability": "view",
      "type": "function"
    },
    {
      "inputs": [],
      "name": "currentTotalAmount",
      "outputs": [
        {
          "internalType": "uint256",
          "name": "",
          "type": "uint256"
        }
      ],
      "stateMutability": "view",
      "type": "function"
    },
    {
      "inputs": [],
      "name": "donationMiner",
      "outputs": [
        {
          "internalType": "contract IDonationMiner",
          "name": "",
          "type": "address"
        }
      ],
      "stateMutability": "view",
      "type": "function"
    },
    {
      "inputs": [],
      "name": "getVersion",
      "outputs": [
        {
          "internalType": "uint256",
          "name": "",
          "type": "uint256"
        }
      ],
      "stateMutability": "pure",
      "type": "function"
    },
    {
      "inputs": [
        {
          "internalType": "contract IERC20Upgradeable",
          "name": "_PACT",
          "type": "address"
        },
        {
          "internalType": "contract IMintableERC20",
          "name": "_SPACT",
          "type": "address"
        },
        {
          "internalType": "contract IDonationMiner",
          "name": "_donationMiner",
          "type": "address"
        },
        {
          "internalType": "uint256",
          "name": "_cooldown",
          "type": "uint256"
        }
      ],
      "name": "initialize",
      "outputs": [],
      "stateMutability": "nonpayable",
      "type": "function"
    },
    {
      "inputs": [],
      "name": "owner",
      "outputs": [
        {
          "internalType": "address",
          "name": "",
          "type": "address"
        }
      ],
      "stateMutability": "view",
      "type": "function"
    },
    {
      "inputs": [],
      "name": "renounceOwnership",
      "outputs": [],
      "stateMutability": "nonpayable",
      "type": "function"
    },
    {
      "inputs": [
        {
          "internalType": "address",
          "name": "_holderAddress",
          "type": "address"
        },
        {
          "internalType": "uint256",
          "name": "_amount",
          "type": "uint256"
        }
      ],
      "name": "stake",
      "outputs": [],
      "stateMutability": "nonpayable",
      "type": "function"
    },
    {
      "inputs": [
        {
          "internalType": "address",
          "name": "_holderAddress",
          "type": "address"
        }
      ],
      "name": "stakeholder",
      "outputs": [
        {
          "internalType": "uint256",
          "name": "amount",
          "type": "uint256"
        },
        {
          "internalType": "uint256",
          "name": "nextUnstakeId",
          "type": "uint256"
        },
        {
          "internalType": "uint256",
          "name": "unstakeListLength",
          "type": "uint256"
        },
        {
          "internalType": "uint256",
          "name": "unstakedAmount",
          "type": "uint256"
        }
      ],
      "stateMutability": "view",
      "type": "function"
    },
    {
      "inputs": [
        {
          "internalType": "address",
          "name": "_holderAddress",
          "type": "address"
        }
      ],
      "name": "stakeholderAmount",
      "outputs": [
        {
          "internalType": "uint256",
          "name": "",
          "type": "uint256"
        }
      ],
      "stateMutability": "view",
      "type": "function"
    },
    {
      "inputs": [
        {
          "internalType": "address",
          "name": "_holderAddress",
          "type": "address"
        },
        {
          "internalType": "uint256",
          "name": "_unstakeIndex",
          "type": "uint256"
        }
      ],
      "name": "stakeholderUnstakeAt",
      "outputs": [
        {
          "components": [
            {
              "internalType": "uint256",
              "name": "amount",
              "type": "uint256"
            },
            {
              "internalType": "uint256",
              "name": "cooldownBlock",
              "type": "uint256"
            }
          ],
          "internalType": "struct IStaking.Unstake",
          "name": "",
          "type": "tuple"
        }
      ],
      "stateMutability": "view",
      "type": "function"
    },
    {
      "inputs": [
        {
          "internalType": "uint256",
          "name": "_index",
          "type": "uint256"
        }
      ],
      "name": "stakeholdersListAt",
      "outputs": [
        {
          "internalType": "address",
          "name": "",
          "type": "address"
        }
      ],
      "stateMutability": "view",
      "type": "function"
    },
    {
      "inputs": [],
      "name": "stakeholdersListLength",
      "outputs": [
        {
          "internalType": "uint256",
          "name": "",
          "type": "uint256"
        }
      ],
      "stateMutability": "view",
      "type": "function"
    },
    {
      "inputs": [
        {
          "internalType": "address",
          "name": "newOwner",
          "type": "address"
        }
      ],
      "name": "transferOwnership",
      "outputs": [],
      "stateMutability": "nonpayable",
      "type": "function"
    },
    {
      "inputs": [
        {
          "internalType": "uint256",
          "name": "_amount",
          "type": "uint256"
        }
      ],
      "name": "unstake",
      "outputs": [],
      "stateMutability": "nonpayable",
      "type": "function"
    },
    {
      "inputs": [
        {
          "internalType": "uint256",
          "name": "_newCooldown",
          "type": "uint256"
        }
      ],
      "name": "updateCooldown",
      "outputs": [],
      "stateMutability": "nonpayable",
      "type": "function"
    }
  ],
  "bytecode": "0x608060405234801561001057600080fd5b50611833806100206000396000f3fe608060405234801561001057600080fd5b50600436106101375760003560e01c806378317be7116100b8578063adc9772e1161007c578063adc9772e14610275578063cf756fdf14610288578063e36d4f3e1461029b578063ec98518e146102ae578063f2fde38b146102c1578063f7e72617146102d457600080fd5b806378317be714610237578063787a08a61461024a57806384f1265b146102535780638c58d0a91461025b5780638da5cb5b1461026457600080fd5b80634e71d92d116100ff5780634e71d92d146101d857806352a8088f146101e057806355119df9146101f35780636bbea1b414610206578063715018a61461022f57600080fd5b80630d8e6e2c1461013c57806319e815f914610152578063225e69d51461017d5780632e17de78146101b05780633b9a0176146101c5575b600080fd5b60015b6040519081526020015b60405180910390f35b609854610165906001600160a01b031681565b6040516001600160a01b039091168152602001610149565b61019061018b36600461156f565b610302565b604080519485526020850193909352918301526060820152608001610149565b6101c36101be366004611626565b6103c1565b005b609754610165906001600160a01b031681565b6101c3610614565b6101c36101ee366004611626565b6106fd565b6101c3610201366004611626565b6107e3565b61013f61021436600461156f565b6001600160a01b03166000908152609c602052604090205490565b6101c361084e565b61013f61024536600461156f565b610884565b61013f609a5481565b61013f61095d565b61013f609b5481565b6033546001600160a01b0316610165565b6101c361028336600461158b565b61096e565b6101c36102963660046115d6565b610be9565b609954610165906001600160a01b031681565b6101656102bc366004611626565b610e37565b6101c36102cf36600461156f565b610e4a565b6102e76102e236600461158b565b610ee5565b60408051825181526020928301519281019290925201610149565b6001600160a01b038181166000818152609c602052604080822080546001820154600283015460985494516370a0823160e01b815260048101979097529496879687968796909285929116906370a082319060240160206040518083038186803b15801561036f57600080fd5b505afa158015610383573d6000803e3d6000fd5b505050506040513d601f19601f820116820180604052508101906103a7919061163e565b6103b19190611774565b9450945094509450509193509193565b6000811161042d5760405162461bcd60e51b815260206004820152602e60248201527f5374616b653a3a756e7374616b653a20556e7374616b6520616d6f756e74207360448201526d0686f756c64206e6f7420626520360941b60648201526084015b60405180910390fd5b6001600160601b038111156104935760405162461bcd60e51b815260206004820152602660248201527f5374616b653a3a756e7374616b653a20556e7374616b6520616d6f756e7420746044820152656f6f2062696760d01b6064820152608401610424565b336000908152609c6020526040902080548211156104f35760405162461bcd60e51b815260206004820181905260248201527f5374616b653a3a756e7374616b653a204e6f7420656e6f7567682066756e64736044820152606401610424565b806002016040518060400160405280848152602001609a5443610516919061175c565b90528154600181810184556000938452602080852084516002909402019283559092015191015581548391839161054e908490611774565b9250508190555081609b60008282546105679190611774565b90915550506099548154609b5460405163ad3e48c560e01b8152336004820152602481019290925260448201526001600160a01b039091169063ad3e48c590606401600060405180830381600087803b1580156105c357600080fd5b505af11580156105d7573d6000803e3d6000fd5b50506040518481523392507f0f5bb82176feb1b5e747e28471aa92156a04d9f3ab9f45f28e2d704232b93f75915060200160405180910390a25050565b600260655414156106375760405162461bcd60e51b815260040161042490611725565b60026065819055336000908152609c60205260409020015461069b5760405162461bcd60e51b815260206004820152601f60248201527f5374616b653a3a636c61696d3a204e6f2066756e647320746f20636c61696d006044820152606401610424565b336000818152609c60205260409020600201547fd8138f8a3f377c5259ca548e70e4c2de94f129f5a11036a15b69513cba2b426a906106e5906106e090600190611774565b610f69565b60405190815260200160405180910390a26001606555565b600260655414156107205760405162461bcd60e51b815260040161042490611725565b60026065819055336000908152609c60205260409020015481106107995760405162461bcd60e51b815260206004820152602a60248201527f5374616b653a3a636c61696d5061727469616c3a206c617374556e7374616b65604482015269496420746f6f2062696760b01b6064820152608401610424565b337f5239dcc98d7316a9bcc086298a1940913af527d281cb606f3d6de92008fa2c546107c483610f69565b60408051918252602082018590520160405180910390a2506001606555565b6033546001600160a01b0316331461080d5760405162461bcd60e51b8152600401610424906116a5565b609a5460408051918252602082018390527f5953b565c074c2cce1866b4e69c9efc4908556bb6fca70f735907c94d9405515910160405180910390a1609a55565b6033546001600160a01b031633146108785760405162461bcd60e51b8152600401610424906116a5565b61088260006110f6565b565b6001600160a01b0381166000908152609c6020526040812060028101546108ae5750600092915050565b600181015460005b6002830154821080156108fc5750438360020183815481106108e857634e487b7160e01b600052603260045260246000fd5b906000526020600020906002020160010154105b156109555782600201828154811061092457634e487b7160e01b600052603260045260246000fd5b90600052602060002090600202016000015481610941919061175c565b90508161094d816117b7565b9250506108b6565b949350505050565b6000610969609d611148565b905090565b600260655414156109915760405162461bcd60e51b815260040161042490611725565b6002606555806109e35760405162461bcd60e51b815260206004820152601f60248201527f5374616b653a3a7374616b653a20416d6f756e742063616e27742062652030006044820152606401610424565b6001600160601b03811115610a455760405162461bcd60e51b815260206004820152602260248201527f5374616b653a3a7374616b653a205374616b6520616d6f756e7420746f6f2062604482015261696760f01b6064820152608401610424565b609754610a5d906001600160a01b0316333084611152565b609854604051626c096960e61b81526001600160a01b0384811660048301526001600160601b038416602483015290911690631b025a4090604401600060405180830381600087803b158015610ab257600080fd5b505af1158015610ac6573d6000803e3d6000fd5b50505050610ade82609d6111c390919063ffffffff16565b506001600160a01b0382166000908152609c60205260408120805490918391839190610b0b90849061175c565b9250508190555081609b6000828254610b24919061175c565b90915550506099548154609b5460405163ad3e48c560e01b81526001600160a01b0387811660048301526024820193909352604481019190915291169063ad3e48c590606401600060405180830381600087803b158015610b8457600080fd5b505af1158015610b98573d6000803e3d6000fd5b50505050826001600160a01b03167f9e71bc8eea02a63969f509818f2dafb9254532904319f9dbda79b67bd34a5f3d83604051610bd791815260200190565b60405180910390a25050600160655550565b600054610100900460ff16610c045760005460ff1615610c08565b303b155b610c6b5760405162461bcd60e51b815260206004820152602e60248201527f496e697469616c697a61626c653a20636f6e747261637420697320616c72656160448201526d191e481a5b9a5d1a585b1a5e995960921b6064820152608401610424565b600054610100900460ff16158015610c8d576000805461ffff19166101011790555b6001600160a01b038516610cf45760405162461bcd60e51b815260206004820152602860248201527f5374616b653a3a696e697469616c697a653a20696e76616c6964205f50414354604482015267206164647265737360c01b6064820152608401610424565b6001600160a01b038416610d5c5760405162461bcd60e51b815260206004820152602960248201527f5374616b653a3a696e697469616c697a653a20696e76616c6964205f5350414360448201526854206164647265737360b81b6064820152608401610424565b6001600160a01b038316610dcc5760405162461bcd60e51b815260206004820152603160248201527f5374616b653a3a696e697469616c697a653a20696e76616c6964205f646f6e6160448201527074696f6e4d696e6572206164647265737360781b6064820152608401610424565b610dd46111df565b610ddc611216565b609780546001600160a01b038088166001600160a01b031992831617909255609880548784169083161790556099805492861692909116919091179055609a8290558015610e30576000805461ff00191690555b5050505050565b6000610e44609d83611245565b92915050565b6033546001600160a01b03163314610e745760405162461bcd60e51b8152600401610424906116a5565b6001600160a01b038116610ed95760405162461bcd60e51b815260206004820152602660248201527f4f776e61626c653a206e6577206f776e657220697320746865207a65726f206160448201526564647265737360d01b6064820152608401610424565b610ee2816110f6565b50565b60408051808201909152600080825260208201526001600160a01b0383166000908152609c60205260409020600201805483908110610f3457634e487b7160e01b600052603260045260246000fd5b906000526020600020906002020160405180604001604052908160008201548152602001600182015481525050905092915050565b336000908152609c602052604081206001810154825b848211158015610fc2575043836002018381548110610fae57634e487b7160e01b600052603260045260246000fd5b906000526020600020906002020160010154105b1561101b57826002018281548110610fea57634e487b7160e01b600052603260045260246000fd5b90600052602060002090600202016000015481611007919061175c565b905081611013816117b7565b925050610f7f565b6000811161106b5760405162461bcd60e51b815260206004820152601f60248201527f5374616b653a3a636c61696d3a204e6f2066756e647320746f20636c61696d006044820152606401610424565b600183018290556098546040516346f9647360e11b81523360048201526001600160601b03831660248201526001600160a01b0390911690638df2c8e690604401600060405180830381600087803b1580156110c657600080fd5b505af11580156110da573d6000803e3d6000fd5b505060975461095592506001600160a01b031690503383611251565b603380546001600160a01b038381166001600160a01b0319831681179093556040519116919082907f8be0079c531659141344cd1fd0a4f28419497f9722a3daafe3b4186f6b6457e090600090a35050565b6000610e44825490565b6040516001600160a01b03808516602483015283166044820152606481018290526111bd9085906323b872dd60e01b906084015b60408051601f198184030181529190526020810180516001600160e01b03166001600160e01b031990931692909217909152611286565b50505050565b60006111d8836001600160a01b038416611358565b9392505050565b600054610100900460ff166112065760405162461bcd60e51b8152600401610424906116da565b61120e6113a7565b6108826113ce565b600054610100900460ff1661123d5760405162461bcd60e51b8152600401610424906116da565b6108826113fe565b60006111d8838361142c565b6040516001600160a01b03831660248201526044810182905261128190849063a9059cbb60e01b90606401611186565b505050565b60006112db826040518060400160405280602081526020017f5361666545524332303a206c6f772d6c6576656c2063616c6c206661696c6564815250856001600160a01b03166114649092919063ffffffff16565b80519091501561128157808060200190518101906112f991906115b6565b6112815760405162461bcd60e51b815260206004820152602a60248201527f5361666545524332303a204552433230206f7065726174696f6e20646964206e6044820152691bdd081cdd58d8d9595960b21b6064820152608401610424565b600081815260018301602052604081205461139f57508154600181810184556000848152602080822090930184905584548482528286019093526040902091909155610e44565b506000610e44565b600054610100900460ff166108825760405162461bcd60e51b8152600401610424906116da565b600054610100900460ff166113f55760405162461bcd60e51b8152600401610424906116da565b610882336110f6565b600054610100900460ff166114255760405162461bcd60e51b8152600401610424906116da565b6001606555565b600082600001828154811061145157634e487b7160e01b600052603260045260246000fd5b9060005260206000200154905092915050565b6060610955848460008585843b6114bd5760405162461bcd60e51b815260206004820152601d60248201527f416464726573733a2063616c6c20746f206e6f6e2d636f6e74726163740000006044820152606401610424565b600080866001600160a01b031685876040516114d99190611656565b60006040518083038185875af1925050503d8060008114611516576040519150601f19603f3d011682016040523d82523d6000602084013e61151b565b606091505b509150915061152b828286611536565b979650505050505050565b606083156115455750816111d8565b8251156115555782518084602001fd5b8160405162461bcd60e51b81526004016104249190611672565b600060208284031215611580578081fd5b81356111d8816117e8565b6000806040838503121561159d578081fd5b82356115a8816117e8565b946020939093013593505050565b6000602082840312156115c7578081fd5b815180151581146111d8578182fd5b600080600080608085870312156115eb578182fd5b84356115f6816117e8565b93506020850135611606816117e8565b92506040850135611616816117e8565b9396929550929360600135925050565b600060208284031215611637578081fd5b5035919050565b60006020828403121561164f578081fd5b5051919050565b6000825161166881846020870161178b565b9190910192915050565b602081526000825180602084015261169181604085016020870161178b565b601f01601f19169190910160400192915050565b6020808252818101527f4f776e61626c653a2063616c6c6572206973206e6f7420746865206f776e6572604082015260600190565b6020808252602b908201527f496e697469616c697a61626c653a20636f6e7472616374206973206e6f74206960408201526a6e697469616c697a696e6760a81b606082015260800190565b6020808252601f908201527f5265656e7472616e637947756172643a207265656e7472616e742063616c6c00604082015260600190565b6000821982111561176f5761176f6117d2565b500190565b600082821015611786576117866117d2565b500390565b60005b838110156117a657818101518382015260200161178e565b838111156111bd5750506000910152565b60006000198214156117cb576117cb6117d2565b5060010190565b634e487b7160e01b600052601160045260246000fd5b6001600160a01b0381168114610ee257600080fdfea2646970667358221220c3f9dc0e69e6454eaab597bebe97993e8af4685b17b5ebc0dd596a3634e5375b64736f6c63430008040033",
  "linkReferences": {},
  "deployedLinkReferences": {}
}