{
  "_format": "hh-sol-artifact-1",
  "contractName": "MerkleDistributor",
  "sourceName": "contracts/airdrop/MerkleDistributor.sol",
  "abi": [
    {
      "inputs": [
        {
          "internalType": "address",
          "name": "_token",
          "type": "address"
        },
        {
          "internalType": "bytes32",
          "name": "_merkleRoot",
          "type": "bytes32"
        }
      ],
      "stateMutability": "nonpayable",
      "type": "constructor"
    },
    {
      "anonymous": false,
      "inputs": [
        {
          "indexed": false,
          "internalType": "uint256",
          "name": "_index",
          "type": "uint256"
        },
        {
          "indexed": false,
          "internalType": "address",
          "name": "_account",
          "type": "address"
        },
        {
          "indexed": false,
          "internalType": "uint256",
          "name": "_amount",
          "type": "uint256"
        }
      ],
      "name": "Claimed",
      "type": "event"
    },
    {
      "anonymous": false,
      "inputs": [
        {
          "indexed": true,
          "internalType": "address",
          "name": "previousOwner",
          "type": "address"
        },
        {
          "indexed": true,
          "internalType": "address",
          "name": "newOwner",
          "type": "address"
        }
      ],
      "name": "OwnershipTransferred",
      "type": "event"
    },
    {
      "anonymous": false,
      "inputs": [
        {
          "indexed": false,
          "internalType": "address",
          "name": "_treasury",
          "type": "address"
        },
        {
          "indexed": false,
          "internalType": "uint256",
          "name": "_amount",
          "type": "uint256"
        }
      ],
      "name": "Withdrawn",
      "type": "event"
    },
    {
      "inputs": [
        {
          "internalType": "uint256",
          "name": "_index",
          "type": "uint256"
        },
        {
          "internalType": "address",
          "name": "_account",
          "type": "address"
        },
        {
          "internalType": "uint256",
          "name": "_amount",
          "type": "uint256"
        },
        {
          "internalType": "bytes32[]",
          "name": "_merkleProof",
          "type": "bytes32[]"
        }
      ],
      "name": "claim",
      "outputs": [],
      "stateMutability": "nonpayable",
      "type": "function"
    },
    {
      "inputs": [],
      "name": "claimPeriodEndBlock",
      "outputs": [
        {
          "internalType": "uint256",
          "name": "",
          "type": "uint256"
        }
      ],
      "stateMutability": "view",
      "type": "function"
    },
    {
      "inputs": [
        {
          "internalType": "uint256",
          "name": "_index",
          "type": "uint256"
        }
      ],
      "name": "isClaimed",
      "outputs": [
        {
          "internalType": "bool",
          "name": "",
          "type": "bool"
        }
      ],
      "stateMutability": "view",
      "type": "function"
    },
    {
      "inputs": [],
      "name": "merkleRoot",
      "outputs": [
        {
          "internalType": "bytes32",
          "name": "",
          "type": "bytes32"
        }
      ],
      "stateMutability": "view",
      "type": "function"
    },
    {
      "inputs": [],
      "name": "owner",
      "outputs": [
        {
          "internalType": "address",
          "name": "",
          "type": "address"
        }
      ],
      "stateMutability": "view",
      "type": "function"
    },
    {
      "inputs": [],
      "name": "renounceOwnership",
      "outputs": [],
      "stateMutability": "nonpayable",
      "type": "function"
    },
    {
      "inputs": [],
      "name": "token",
      "outputs": [
        {
          "internalType": "address",
          "name": "",
          "type": "address"
        }
      ],
      "stateMutability": "view",
      "type": "function"
    },
    {
      "inputs": [
        {
          "internalType": "contract IERC20Upgradeable",
          "name": "_token",
          "type": "address"
        },
        {
          "internalType": "address",
          "name": "_to",
          "type": "address"
        },
        {
          "internalType": "uint256",
          "name": "_amount",
          "type": "uint256"
        }
      ],
      "name": "transfer",
      "outputs": [],
      "stateMutability": "nonpayable",
      "type": "function"
    },
    {
      "inputs": [
        {
          "internalType": "address",
          "name": "newOwner",
          "type": "address"
        }
      ],
      "name": "transferOwnership",
      "outputs": [],
      "stateMutability": "nonpayable",
      "type": "function"
    },
    {
      "inputs": [],
      "name": "withdrawUnclaimed",
      "outputs": [],
      "stateMutability": "nonpayable",
      "type": "function"
    }
  ],
  "bytecode": "0x60c060405234801561001057600080fd5b50604051610f07380380610f0783398101604081905261002f916100b7565b61003833610067565b6001600160601b0319606083901b1660805260a081905261005c62603d80436100ef565b600155506101139050565b600080546001600160a01b038381166001600160a01b0319831681178455604051919092169283917f8be0079c531659141344cd1fd0a4f28419497f9722a3daafe3b4186f6b6457e09190a35050565b600080604083850312156100c9578182fd5b82516001600160a01b03811681146100df578283fd5b6020939093015192949293505050565b6000821982111561010e57634e487b7160e01b81526011600452602481fd5b500190565b60805160601c60a051610db16101566000396000818160bd01526102ef01526000818161017e0152818161037d0152818161049e015261052f0152610db16000f3fe608060405234801561001057600080fd5b506004361061009e5760003560e01c80639e34070f116100665780639e34070f14610127578063b9d596211461014a578063beabacc814610153578063f2fde38b14610166578063fc0c546a1461017957600080fd5b80632e7ba6ef146100a35780632eb4a7ab146100b857806333fc56d9146100f2578063715018a6146100fa5780638da5cb5b14610102575b600080fd5b6100b66100b1366004610bb9565b6101a0565b005b6100df7f000000000000000000000000000000000000000000000000000000000000000081565b6040519081526020015b60405180910390f35b6100b66103f5565b6100b6610592565b6000546001600160a01b03165b6040516001600160a01b0390911681526020016100e9565b61013a610135366004610b89565b6105c8565b60405190151581526020016100e9565b6100df60015481565b6100b6610161366004610b49565b610609565b6100b6610174366004610b0d565b61064c565b61010f7f000000000000000000000000000000000000000000000000000000000000000081565b6001544311156102095760405162461bcd60e51b815260206004820152602960248201527f4d65726b6c654469737472696275746f723a20436c61696d20706572696f64206044820152681a185cc8195b99195960ba1b60648201526084015b60405180910390fd5b610212856106e7565b61026f5760405162461bcd60e51b815260206004820152602860248201527f4d65726b6c654469737472696275746f723a2044726f7020616c72656164792060448201526731b630b4b6b2b21760c11b6064820152608401610200565b60408051602081018790526bffffffffffffffffffffffff19606087901b16918101919091526054810184905260009060740160405160208183030381529060405280519060200120905061031a8383808060200260200160405190810160405280939291908181526020018383602002808284376000920191909152507f0000000000000000000000000000000000000000000000000000000000000000925085915061074f9050565b6103705760405162461bcd60e51b815260206004820152602160248201527f4d65726b6c654469737472696275746f723a20496e76616c69642070726f6f666044820152601760f91b6064820152608401610200565b6103a46001600160a01b037f0000000000000000000000000000000000000000000000000000000000000000168686610767565b604080518781526001600160a01b03871660208201529081018590527f4ec90e965519d92681267467f775ada5bd214aa92c0dc93d90a5e880ce9ed0269060600160405180910390a1505050505050565b6000546001600160a01b0316331461041f5760405162461bcd60e51b815260040161020090610c9c565b60015443116104865760405162461bcd60e51b815260206004820152602d60248201527f4d65726b6c654469737472696275746f723a20436c61696d20706572696f642060448201526c1a185cc81b9bdd08195b991959609a1b6064820152608401610200565b6040516370a0823160e01b81523060048201526000907f00000000000000000000000000000000000000000000000000000000000000006001600160a01b0316906370a082319060240160206040518083038186803b1580156104e857600080fd5b505afa1580156104fc573d6000803e3d6000fd5b505050506040513d601f19601f820116820180604052508101906105209190610ba1565b90506105566001600160a01b037f0000000000000000000000000000000000000000000000000000000000000000163383610767565b60408051338152602081018390527f7084f5476618d8e60b11ef0d7d3f06914655adb8793e28ff7f018d4c76d505d5910160405180910390a150565b6000546001600160a01b031633146105bc5760405162461bcd60e51b815260040161020090610c9c565b6105c660006107b9565b565b6000806105d761010084610cd1565b905060006105e761010085610d3c565b60009283526002602052604090922054600190921b9182169091149392505050565b6000546001600160a01b031633146106335760405162461bcd60e51b815260040161020090610c9c565b6106476001600160a01b0384168383610767565b505050565b6000546001600160a01b031633146106765760405162461bcd60e51b815260040161020090610c9c565b6001600160a01b0381166106db5760405162461bcd60e51b815260206004820152602660248201527f4f776e61626c653a206e6577206f776e657220697320746865207a65726f206160448201526564647265737360d01b6064820152608401610200565b6106e4816107b9565b50565b6000806106f661010084610cd1565b9050600061070661010085610d3c565b6000838152600260205260409020549091506001821b8082168114156107325750600095945050505050565b600093845260026020526040909320921790915550600192915050565b60008261075c8584610809565b1490505b9392505050565b604080516001600160a01b038416602482015260448082018490528251808303909101815260649091019091526020810180516001600160e01b031663a9059cbb60e01b1790526106479084906108c3565b600080546001600160a01b038381166001600160a01b0319831681178455604051919092169283917f8be0079c531659141344cd1fd0a4f28419497f9722a3daafe3b4186f6b6457e09190a35050565b600081815b84518110156108bb57600085828151811061083957634e487b7160e01b600052603260045260246000fd5b6020026020010151905080831161087b5760408051602081018590529081018290526060016040516020818303038152906040528051906020012092506108a8565b60408051602081018390529081018490526060016040516020818303038152906040528051906020012092505b50806108b381610d15565b91505061080e565b509392505050565b6000610918826040518060400160405280602081526020017f5361666545524332303a206c6f772d6c6576656c2063616c6c206661696c6564815250856001600160a01b03166109959092919063ffffffff16565b80519091501561064757808060200190518101906109369190610b29565b6106475760405162461bcd60e51b815260206004820152602a60248201527f5361666545524332303a204552433230206f7065726174696f6e20646964206e6044820152691bdd081cdd58d8d9595960b21b6064820152608401610200565b60606109a484846000856109ac565b949350505050565b606082471015610a0d5760405162461bcd60e51b815260206004820152602660248201527f416464726573733a20696e73756666696369656e742062616c616e636520666f6044820152651c8818d85b1b60d21b6064820152608401610200565b843b610a5b5760405162461bcd60e51b815260206004820152601d60248201527f416464726573733a2063616c6c20746f206e6f6e2d636f6e74726163740000006044820152606401610200565b600080866001600160a01b03168587604051610a779190610c4d565b60006040518083038185875af1925050503d8060008114610ab4576040519150601f19603f3d011682016040523d82523d6000602084013e610ab9565b606091505b5091509150610ac9828286610ad4565b979650505050505050565b60608315610ae3575081610760565b825115610af35782518084602001fd5b8160405162461bcd60e51b81526004016102009190610c69565b600060208284031215610b1e578081fd5b813561076081610d66565b600060208284031215610b3a578081fd5b81518015158114610760578182fd5b600080600060608486031215610b5d578182fd5b8335610b6881610d66565b92506020840135610b7881610d66565b929592945050506040919091013590565b600060208284031215610b9a578081fd5b5035919050565b600060208284031215610bb2578081fd5b5051919050565b600080600080600060808688031215610bd0578081fd5b853594506020860135610be281610d66565b935060408601359250606086013567ffffffffffffffff80821115610c05578283fd5b818801915088601f830112610c18578283fd5b813581811115610c26578384fd5b8960208260051b8501011115610c3a578384fd5b9699959850939650602001949392505050565b60008251610c5f818460208701610ce5565b9190910192915050565b6020815260008251806020840152610c88816040850160208701610ce5565b601f01601f19169190910160400192915050565b6020808252818101527f4f776e61626c653a2063616c6c6572206973206e6f7420746865206f776e6572604082015260600190565b600082610ce057610ce0610d50565b500490565b60005b83811015610d00578181015183820152602001610ce8565b83811115610d0f576000848401525b50505050565b6000600019821415610d3557634e487b7160e01b81526011600452602481fd5b5060010190565b600082610d4b57610d4b610d50565b500690565b634e487b7160e01b600052601260045260246000fd5b6001600160a01b03811681146106e457600080fdfea2646970667358221220df065df6dec4e39d2ebdc5edf679978fcf8b70faf1e88d35fd18f11d3a005a5964736f6c63430008040033",
  "linkReferences": {},
  "deployedLinkReferences": {}
}