{
  "_format": "hh-sol-artifact-1",
  "contractName": "TransferrableVotingToken",
  "sourceName": "@ubeswap/governance/contracts/voting/TransferrableVotingToken.sol",
  "abi": [
    {
      "inputs": [
        {
          "internalType": "string",
          "name": "name_",
          "type": "string"
        },
        {
          "internalType": "string",
          "name": "symbol_",
          "type": "string"
        },
        {
          "internalType": "uint8",
          "name": "decimals_",
          "type": "uint8"
        },
        {
          "internalType": "uint96",
          "name": "initialSupply_",
          "type": "uint96"
        },
        {
          "internalType": "address",
          "name": "account_",
          "type": "address"
        }
      ],
      "stateMutability": "nonpayable",
      "type": "constructor"
    },
    {
      "anonymous": false,
      "inputs": [
        {
          "indexed": true,
          "internalType": "address",
          "name": "owner",
          "type": "address"
        },
        {
          "indexed": true,
          "internalType": "address",
          "name": "spender",
          "type": "address"
        },
        {
          "indexed": false,
          "internalType": "uint256",
          "name": "amount",
          "type": "uint256"
        }
      ],
      "name": "Approval",
      "type": "event"
    },
    {
      "anonymous": false,
      "inputs": [
        {
          "indexed": true,
          "internalType": "address",
          "name": "delegator",
          "type": "address"
        },
        {
          "indexed": true,
          "internalType": "address",
          "name": "fromDelegate",
          "type": "address"
        },
        {
          "indexed": true,
          "internalType": "address",
          "name": "toDelegate",
          "type": "address"
        }
      ],
      "name": "DelegateChanged",
      "type": "event"
    },
    {
      "anonymous": false,
      "inputs": [
        {
          "indexed": true,
          "internalType": "address",
          "name": "delegate",
          "type": "address"
        },
        {
          "indexed": false,
          "internalType": "uint256",
          "name": "previousBalance",
          "type": "uint256"
        },
        {
          "indexed": false,
          "internalType": "uint256",
          "name": "newBalance",
          "type": "uint256"
        }
      ],
      "name": "DelegateVotesChanged",
      "type": "event"
    },
    {
      "anonymous": false,
      "inputs": [
        {
          "indexed": true,
          "internalType": "address",
          "name": "from",
          "type": "address"
        },
        {
          "indexed": true,
          "internalType": "address",
          "name": "to",
          "type": "address"
        },
        {
          "indexed": false,
          "internalType": "uint256",
          "name": "amount",
          "type": "uint256"
        }
      ],
      "name": "Transfer",
      "type": "event"
    },
    {
      "inputs": [],
      "name": "DELEGATION_TYPEHASH",
      "outputs": [
        {
          "internalType": "bytes32",
          "name": "",
          "type": "bytes32"
        }
      ],
      "stateMutability": "view",
      "type": "function"
    },
    {
      "inputs": [],
      "name": "DOMAIN_TYPEHASH",
      "outputs": [
        {
          "internalType": "bytes32",
          "name": "",
          "type": "bytes32"
        }
      ],
      "stateMutability": "view",
      "type": "function"
    },
    {
      "inputs": [],
      "name": "PERMIT_TYPEHASH",
      "outputs": [
        {
          "internalType": "bytes32",
          "name": "",
          "type": "bytes32"
        }
      ],
      "stateMutability": "view",
      "type": "function"
    },
    {
      "inputs": [
        {
          "internalType": "address",
          "name": "account",
          "type": "address"
        },
        {
          "internalType": "address",
          "name": "spender",
          "type": "address"
        }
      ],
      "name": "allowance",
      "outputs": [
        {
          "internalType": "uint256",
          "name": "",
          "type": "uint256"
        }
      ],
      "stateMutability": "view",
      "type": "function"
    },
    {
      "inputs": [
        {
          "internalType": "address",
          "name": "spender",
          "type": "address"
        },
        {
          "internalType": "uint256",
          "name": "rawAmount",
          "type": "uint256"
        }
      ],
      "name": "approve",
      "outputs": [
        {
          "internalType": "bool",
          "name": "",
          "type": "bool"
        }
      ],
      "stateMutability": "nonpayable",
      "type": "function"
    },
    {
      "inputs": [
        {
          "internalType": "address",
          "name": "_account",
          "type": "address"
        }
      ],
      "name": "balanceOf",
      "outputs": [
        {
          "internalType": "uint256",
          "name": "",
          "type": "uint256"
        }
      ],
      "stateMutability": "view",
      "type": "function"
    },
    {
      "inputs": [
        {
          "internalType": "address",
          "name": "",
          "type": "address"
        },
        {
          "internalType": "uint32",
          "name": "",
          "type": "uint32"
        }
      ],
      "name": "checkpoints",
      "outputs": [
        {
          "internalType": "uint32",
          "name": "fromBlock",
          "type": "uint32"
        },
        {
          "internalType": "uint96",
          "name": "votes",
          "type": "uint96"
        }
      ],
      "stateMutability": "view",
      "type": "function"
    },
    {
      "inputs": [],
      "name": "decimals",
      "outputs": [
        {
          "internalType": "uint8",
          "name": "",
          "type": "uint8"
        }
      ],
      "stateMutability": "view",
      "type": "function"
    },
    {
      "inputs": [
        {
          "internalType": "address",
          "name": "delegatee",
          "type": "address"
        }
      ],
      "name": "delegate",
      "outputs": [],
      "stateMutability": "nonpayable",
      "type": "function"
    },
    {
      "inputs": [
        {
          "internalType": "address",
          "name": "delegatee",
          "type": "address"
        },
        {
          "internalType": "uint256",
          "name": "nonce",
          "type": "uint256"
        },
        {
          "internalType": "uint256",
          "name": "expiry",
          "type": "uint256"
        },
        {
          "internalType": "uint8",
          "name": "v",
          "type": "uint8"
        },
        {
          "internalType": "bytes32",
          "name": "r",
          "type": "bytes32"
        },
        {
          "internalType": "bytes32",
          "name": "s",
          "type": "bytes32"
        }
      ],
      "name": "delegateBySig",
      "outputs": [],
      "stateMutability": "nonpayable",
      "type": "function"
    },
    {
      "inputs": [
        {
          "internalType": "address",
          "name": "",
          "type": "address"
        }
      ],
      "name": "delegates",
      "outputs": [
        {
          "internalType": "address",
          "name": "",
          "type": "address"
        }
      ],
      "stateMutability": "view",
      "type": "function"
    },
    {
      "inputs": [
        {
          "internalType": "address",
          "name": "account",
          "type": "address"
        }
      ],
      "name": "getCurrentVotes",
      "outputs": [
        {
          "internalType": "uint96",
          "name": "",
          "type": "uint96"
        }
      ],
      "stateMutability": "view",
      "type": "function"
    },
    {
      "inputs": [
        {
          "internalType": "address",
          "name": "account",
          "type": "address"
        },
        {
          "internalType": "uint256",
          "name": "blockNumber",
          "type": "uint256"
        }
      ],
      "name": "getPriorVotes",
      "outputs": [
        {
          "internalType": "uint96",
          "name": "",
          "type": "uint96"
        }
      ],
      "stateMutability": "view",
      "type": "function"
    },
    {
      "inputs": [],
      "name": "name",
      "outputs": [
        {
          "internalType": "string",
          "name": "",
          "type": "string"
        }
      ],
      "stateMutability": "view",
      "type": "function"
    },
    {
      "inputs": [
        {
          "internalType": "address",
          "name": "",
          "type": "address"
        }
      ],
      "name": "nonces",
      "outputs": [
        {
          "internalType": "uint256",
          "name": "",
          "type": "uint256"
        }
      ],
      "stateMutability": "view",
      "type": "function"
    },
    {
      "inputs": [
        {
          "internalType": "address",
          "name": "",
          "type": "address"
        }
      ],
      "name": "numCheckpoints",
      "outputs": [
        {
          "internalType": "uint32",
          "name": "",
          "type": "uint32"
        }
      ],
      "stateMutability": "view",
      "type": "function"
    },
    {
      "inputs": [
        {
          "internalType": "address",
          "name": "owner",
          "type": "address"
        },
        {
          "internalType": "address",
          "name": "spender",
          "type": "address"
        },
        {
          "internalType": "uint256",
          "name": "rawAmount",
          "type": "uint256"
        },
        {
          "internalType": "uint256",
          "name": "deadline",
          "type": "uint256"
        },
        {
          "internalType": "uint8",
          "name": "v",
          "type": "uint8"
        },
        {
          "internalType": "bytes32",
          "name": "r",
          "type": "bytes32"
        },
        {
          "internalType": "bytes32",
          "name": "s",
          "type": "bytes32"
        }
      ],
      "name": "permit",
      "outputs": [],
      "stateMutability": "nonpayable",
      "type": "function"
    },
    {
      "inputs": [],
      "name": "symbol",
      "outputs": [
        {
          "internalType": "string",
          "name": "",
          "type": "string"
        }
      ],
      "stateMutability": "view",
      "type": "function"
    },
    {
      "inputs": [],
      "name": "totalSupply",
      "outputs": [
        {
          "internalType": "uint256",
          "name": "",
          "type": "uint256"
        }
      ],
      "stateMutability": "view",
      "type": "function"
    },
    {
      "inputs": [],
      "name": "totalVotingPower",
      "outputs": [
        {
          "internalType": "uint96",
          "name": "",
          "type": "uint96"
        }
      ],
      "stateMutability": "view",
      "type": "function"
    },
    {
      "inputs": [
        {
          "internalType": "address",
          "name": "dst",
          "type": "address"
        },
        {
          "internalType": "uint256",
          "name": "rawAmount",
          "type": "uint256"
        }
      ],
      "name": "transfer",
      "outputs": [
        {
          "internalType": "bool",
          "name": "",
          "type": "bool"
        }
      ],
      "stateMutability": "nonpayable",
      "type": "function"
    },
    {
      "inputs": [
        {
          "internalType": "address",
          "name": "src",
          "type": "address"
        },
        {
          "internalType": "address",
          "name": "dst",
          "type": "address"
        },
        {
          "internalType": "uint256",
          "name": "rawAmount",
          "type": "uint256"
        }
      ],
      "name": "transferFrom",
      "outputs": [
        {
          "internalType": "bool",
          "name": "",
          "type": "bool"
        }
      ],
      "stateMutability": "nonpayable",
      "type": "function"
    },
    {
      "inputs": [
        {
          "internalType": "address",
          "name": "account",
          "type": "address"
        }
      ],
      "name": "votingPower",
      "outputs": [
        {
          "internalType": "uint96",
          "name": "",
          "type": "uint96"
        }
      ],
      "stateMutability": "view",
      "type": "function"
    }
  ],
  "bytecode": "0x60a06040523480156200001157600080fd5b5060405162002af838038062002af8833981016040819052620000349162000852565b8484848280600090805190602001906200005092919062000700565b505081516200006790600790602085019062000700565b5060f81b7fff0000000000000000000000000000000000000000000000000000000000000016608052506200009f90508183620000aa565b505050505062000a70565b6001600160a01b0382166200012c5760405162461bcd60e51b815260206004820152603860248201527f566f74696e67506f7765723a3a5f6d696e74566f7465733a2063616e6e6f742060448201527f6d696e7420746f20746865207a65726f2061646472657373000000000000000060648201526084015b60405180910390fd5b6001600160a01b03821660009081526002602090815260409182902054825160608101909352602e8084526200017a936001600160601b03909216928592919062002a1b9083013962000268565b6001600160a01b03831660009081526002602090815260409182902080546001600160601b0319166001600160601b03948516179055600154825160608101909352602f808452620001de949190911692859290919062002a499083013962000268565b600180546001600160601b0319166001600160601b0392831617905560405190821681526001600160a01b038316906000907fddf252ad1be2c89b69c2b068fc378daa952ba7f163c4a11628f55a4df523b3ef9060200160405180910390a36001600160a01b0380831660009081526003602052604081205462000264921683620002ba565b5050565b60008062000277848662000964565b9050846001600160601b0316816001600160601b031610158390620002b15760405162461bcd60e51b815260040162000123919062000904565b50949350505050565b816001600160a01b0316836001600160a01b031614158015620002e657506000816001600160601b0316115b1562000482576001600160a01b03831615620003b7576001600160a01b03831660009081526005602052604081205463ffffffff1690816200032a57600062000379565b6001600160a01b0385166000908152600460205260408120906200035060018562000989565b63ffffffff16815260208101919091526040016000205464010000000090046001600160601b03165b90506000620003a3828560405180606001604052806027815260200162002ad16027913962000487565b9050620003b386848484620004d6565b5050505b6001600160a01b0382161562000482576001600160a01b03821660009081526005602052604081205463ffffffff169081620003f557600062000444565b6001600160a01b0384166000908152600460205260408120906200041b60018562000989565b63ffffffff16815260208101919091526040016000205464010000000090046001600160601b03165b905060006200046e828560405180606001604052806026815260200162002a786026913962000268565b90506200047e85848484620004d6565b5050505b505050565b6000836001600160601b0316836001600160601b031611158290620004c15760405162461bcd60e51b815260040162000123919062000904565b50620004ce8385620009b1565b949350505050565b6000620004fd4360405180606001604052806033815260200162002a9e60339139620006cd565b905060008463ffffffff161180156200055a57506001600160a01b038516600090815260046020526040812063ffffffff8316916200053e60018862000989565b63ffffffff908116825260208201929092526040016000205416145b15620005cd576001600160a01b038516600090815260046020526040812083916200058760018862000989565b63ffffffff168152602081019190915260400160002080546001600160601b039290921664010000000002600160201b600160801b031990921691909117905562000678565b60408051808201825263ffffffff80841682526001600160601b0380861660208085019182526001600160a01b038b166000908152600482528681208b8616825290915294909420925183549451909116640100000000026001600160801b03199094169116179190911790556200064784600162000939565b6001600160a01b0386166000908152600560205260409020805463ffffffff191663ffffffff929092169190911790555b604080516001600160601b038086168252841660208201526001600160a01b038716917fdec2bacdd2f05b59de34da9b523dff8be42e5e38e818c82fdb0bae774387a724910160405180910390a25050505050565b6000816401000000008410620006f85760405162461bcd60e51b815260040162000123919062000904565b509192915050565b8280546200070e9062000a07565b90600052602060002090601f0160209004810192826200073257600085556200077d565b82601f106200074d57805160ff19168380011785556200077d565b828001600101855582156200077d579182015b828111156200077d57825182559160200191906001019062000760565b506200078b9291506200078f565b5090565b5b808211156200078b576000815560010162000790565b80516001600160a01b0381168114620007be57600080fd5b919050565b600082601f830112620007d4578081fd5b81516001600160401b0380821115620007f157620007f162000a5a565b604051601f8301601f19908116603f011681019082821181831017156200081c576200081c62000a5a565b8160405283815286602085880101111562000835578485fd5b62000848846020830160208901620009d4565b9695505050505050565b600080600080600060a086880312156200086a578081fd5b85516001600160401b038082111562000881578283fd5b6200088f89838a01620007c3565b96506020880151915080821115620008a5578283fd5b50620008b488828901620007c3565b945050604086015160ff81168114620008cb578182fd5b60608701519093506001600160601b0381168114620008e8578182fd5b9150620008f860808701620007a6565b90509295509295909350565b602081526000825180602084015262000925816040850160208701620009d4565b601f01601f19169190910160400192915050565b600063ffffffff8083168185168083038211156200095b576200095b62000a44565b01949350505050565b60006001600160601b038281168482168083038211156200095b576200095b62000a44565b600063ffffffff83811690831681811015620009a957620009a962000a44565b039392505050565b60006001600160601b0383811690831681811015620009a957620009a962000a44565b60005b83811015620009f1578181015183820152602001620009d7565b8381111562000a01576000848401525b50505050565b600181811c9082168062000a1c57607f821691505b6020821081141562000a3e57634e487b7160e01b600052602260045260246000fd5b50919050565b634e487b7160e01b600052601160045260246000fd5b634e487b7160e01b600052604160045260246000fd5b60805160f81c611f8c62000a8f60003960006102110152611f8c6000f3fe608060405234801561001057600080fd5b506004361061014d5760003560e01c806370a08231116100c3578063c07473f61161007c578063c07473f614610384578063c3cda52014610392578063d505accf146103a5578063dd62ed3e146103b8578063e7a324dc146103fa578063f1127ed81461042157600080fd5b806370a08231146102f1578063782d6fe1146103235780637ecebe001461033657806395d89b4114610356578063a9059cbb1461035e578063b4b5ea571461037157600080fd5b806330adf81f1161011557806330adf81f146101e3578063313ce5671461020a578063587cde1e1461023b5780635c19a95c1461027c578063671b3793146102915780636fcfff45146102b657600080fd5b806306fdde0314610152578063095ea7b31461017057806318160ddd1461019357806320606b70146101a957806323b872dd146101d0575b600080fd5b61015a610488565b6040516101679190611c4d565b60405180910390f35b61018361017e366004611af4565b610497565b6040519015158152602001610167565b61019b610558565b604051908152602001610167565b61019b7f8cad95687ba82c2ce50e74f7b754645e5117c3a5bec8151c0726d5857980a86681565b6101836101de366004611a50565b61057a565b61019b7f6e71edae12b1b97f4d1f60370fef10105fa2faae0126114a169c64845d6126c981565b60405160ff7f0000000000000000000000000000000000000000000000000000000000000000168152602001610167565b610264610249366004611a04565b6003602052600090815260409020546001600160a01b031681565b6040516001600160a01b039091168152602001610167565b61028f61028a366004611a04565b610752565b005b6001546001600160601b03165b6040516001600160601b039091168152602001610167565b6102dc6102c4366004611a04565b60056020526000908152604090205463ffffffff1681565b60405163ffffffff9091168152602001610167565b61019b6102ff366004611a04565b6001600160a01b03166000908152600260205260409020546001600160601b031690565b61029e610331366004611af4565b61075f565b61019b610344366004611a04565b60066020526000908152604090205481565b61015a6109e5565b61018361036c366004611af4565b610a77565b61029e61037f366004611a04565b610b3e565b61029e6102ff366004611a04565b61028f6103a0366004611b1d565b610bbc565b61028f6103b3366004611a8b565b610e8f565b61019b6103c6366004611a1e565b6001600160a01b0391821660009081526008602090815260408083209390941682529190915220546001600160601b031690565b61019b7fe48329057bfd03d55e49b547132e39cffd9c1820ad7b9d4c5307691425d15adf81565b61046461042f366004611b74565b600460209081526000928352604080842090915290825290205463ffffffff811690600160201b90046001600160601b031682565b6040805163ffffffff90931683526001600160601b03909116602083015201610167565b6060610492611260565b905090565b6000806000198314156104b257506001600160601b036104d7565b6104d483604051806060016040528060248152602001611f046024913961126f565b90505b3360008181526008602090815260408083206001600160a01b0389168085529083529281902080546001600160601b0319166001600160601b03871690811790915590519081529192917f8c5be1e5ebec7d5bd14f71427d1e84f3dd0314c0f7b2291e5b200ac8c7c3b925910160405180910390a360019150505b92915050565b600061056c6001546001600160601b031690565b6001600160601b0316905090565b60006001600160a01b03831630141561060f5760405162461bcd60e51b815260206004820152604660248201527f5472616e736665727261626c65566f74696e67546f6b656e3a3a7472616e736660448201527f657246726f6d3a2063616e6e6f742073656e6420746f6b656e7320746f20636f6064820152651b9d1c9858dd60d21b608482015260a4015b60405180910390fd5b6001600160a01b03841660009081526008602090815260408083203380855290835281842054825160608101909352602480845291946001600160601b03909116939092610665928892611f049083013961126f565b9050866001600160a01b0316836001600160a01b03161415801561069257506001600160601b0382811614155b1561073a5760006106bc83836040518060600160405280603c8152602001611dcb603c913961129e565b6001600160a01b038981166000818152600860209081526040808320948a168084529482529182902080546001600160601b0319166001600160601b0387169081179091559151918252939450919290917f8c5be1e5ebec7d5bd14f71427d1e84f3dd0314c0f7b2291e5b200ac8c7c3b925910160405180910390a3505b6107458787836112e8565b5060019695505050505050565b61075c3382611539565b50565b60004382106107bf5760405162461bcd60e51b815260206004820152602660248201527f556e693a3a6765745072696f72566f7465733a206e6f742079657420646574656044820152651c9b5a5b995960d21b6064820152608401610606565b6001600160a01b03831660009081526005602052604090205463ffffffff16806107ed576000915050610552565b6001600160a01b03841660009081526004602052604081208491610812600185611d19565b63ffffffff90811682526020820192909252604001600020541611610885576001600160a01b038416600090815260046020526040812090610855600184611d19565b63ffffffff168152602081019190915260400160002054600160201b90046001600160601b031691506105529050565b6001600160a01b038416600090815260046020908152604080832083805290915290205463ffffffff168310156108c0576000915050610552565b6000806108ce600184611d19565b90505b8163ffffffff168163ffffffff1611156109a057600060026108f38484611d19565b6108fd9190611cea565b6109079083611d19565b6001600160a01b038816600090815260046020908152604080832063ffffffff858116855290835292819020815180830190925254928316808252600160201b9093046001600160601b031691810191909152919250871415610974576020015194506105529350505050565b805163ffffffff1687111561098b57819350610999565b610996600183611d19565b92505b50506108d1565b506001600160a01b038516600090815260046020908152604080832063ffffffff909416835292905220546001600160601b03600160201b9091041691505092915050565b6060600780546109f490611d5e565b80601f0160208091040260200160405190810160405280929190818152602001828054610a2090611d5e565b8015610a6d5780601f10610a4257610100808354040283529160200191610a6d565b820191906000526020600020905b815481529060010190602001808311610a5057829003601f168201915b5050505050905090565b60006001600160a01b038316301415610b035760405162461bcd60e51b815260206004820152604260248201527f5472616e736665727261626c65566f74696e67546f6b656e3a3a7472616e736660448201527f65723a2063616e6e6f742073656e6420746f6b656e7320746f20636f6e74726160648201526118dd60f21b608482015260a401610606565b6000610b2783604051806060016040528060258152602001611edf6025913961126f565b9050610b343385836112e8565b5060019392505050565b6001600160a01b03811660009081526005602052604081205463ffffffff1680610b69576000610bb5565b6001600160a01b038316600090815260046020526040812090610b8d600184611d19565b63ffffffff168152602081019190915260400160002054600160201b90046001600160601b03165b9392505050565b60007f8cad95687ba82c2ce50e74f7b754645e5117c3a5bec8151c0726d5857980a8666000604051610bee9190611bb2565b6040518091039020610bfd4690565b60408051602080820195909552808201939093526060830191909152306080808401919091528151808403909101815260a0830182528051908401207fe48329057bfd03d55e49b547132e39cffd9c1820ad7b9d4c5307691425d15adf60c08401526001600160a01b038b1660e084015261010083018a90526101208084018a90528251808503909101815261014084019092528151919093012061190160f01b610160830152610162820183905261018282018190529192506000906101a20160408051601f198184030181528282528051602091820120600080855291840180845281905260ff8a169284019290925260608301889052608083018790529092509060019060a0016020604051602081039080840390855afa158015610d29573d6000803e3d6000fd5b5050604051601f1901519150506001600160a01b038116610d9a5760405162461bcd60e51b815260206004820152602560248201527f556e693a3a64656c656761746542795369673a20696e76616c6964207369676e604482015264617475726560d81b6064820152608401610606565b6001600160a01b0381166000908152600660205260408120805491610dbe83611d99565b919050558914610e1a5760405162461bcd60e51b815260206004820152602160248201527f556e693a3a64656c656761746542795369673a20696e76616c6964206e6f6e636044820152606560f81b6064820152608401610606565b87421115610e785760405162461bcd60e51b815260206004820152602560248201527f556e693a3a64656c656761746542795369673a207369676e61747572652065786044820152641c1a5c995960da1b6064820152608401610606565b610e82818b611539565b505050505b505050505050565b6000600019861415610ea957506001600160601b03610ece565b610ecb86604051806060016040528060238152602001611e3c6023913961126f565b90505b60007f8cad95687ba82c2ce50e74f7b754645e5117c3a5bec8151c0726d5857980a866610ef9610488565b80519060200120610f074690565b604080516020810194909452830191909152606082015230608082015260a00160408051601f1981840301815291815281516020928301206001600160a01b038c166000908152600690935290822080549193507f6e71edae12b1b97f4d1f60370fef10105fa2faae0126114a169c64845d6126c9918c918c918c9186610f8d83611d99565b909155506040805160208101969096526001600160a01b0394851690860152929091166060840152608083015260a082015260c0810188905260e0016040516020818303038152906040528051906020012090506000828260405160200161100c92919061190160f01b81526002810192909252602282015260420190565b60408051601f198184030181528282528051602091820120600080855291840180845281905260ff8b169284019290925260608301899052608083018890529092509060019060a0016020604051602081039080840390855afa158015611077573d6000803e3d6000fd5b5050604051601f1901519150506001600160a01b0381166110da5760405162461bcd60e51b815260206004820152601e60248201527f556e693a3a7065726d69743a20696e76616c6964207369676e617475726500006044820152606401610606565b8b6001600160a01b0316816001600160a01b03161461113b5760405162461bcd60e51b815260206004820152601960248201527f556e693a3a7065726d69743a20756e617574686f72697a6564000000000000006044820152606401610606565b8842111561118b5760405162461bcd60e51b815260206004820152601e60248201527f556e693a3a7065726d69743a207369676e6174757265206578706972656400006044820152606401610606565b84600860008e6001600160a01b03166001600160a01b0316815260200190815260200160002060008d6001600160a01b03166001600160a01b0316815260200190815260200160002060006101000a8154816001600160601b0302191690836001600160601b031602179055508a6001600160a01b03168c6001600160a01b03167f8c5be1e5ebec7d5bd14f71427d1e84f3dd0314c0f7b2291e5b200ac8c7c3b9258760405161124a91906001600160601b0391909116815260200190565b60405180910390a3505050505050505050505050565b6060600080546109f490611d5e565b600081600160601b84106112965760405162461bcd60e51b81526004016106069190611c4d565b509192915050565b6000836001600160601b0316836001600160601b0316111582906112d55760405162461bcd60e51b81526004016106069190611c4d565b506112e08385611d3e565b949350505050565b6001600160a01b0383166113645760405162461bcd60e51b815260206004820152603b60248201527f556e693a3a5f7472616e73666572546f6b656e733a2063616e6e6f742074726160448201527f6e736665722066726f6d20746865207a65726f206164647265737300000000006064820152608401610606565b6001600160a01b0382166113e05760405162461bcd60e51b815260206004820152603960248201527f556e693a3a5f7472616e73666572546f6b656e733a2063616e6e6f742074726160448201527f6e7366657220746f20746865207a65726f2061646472657373000000000000006064820152608401610606565b6001600160a01b03831660009081526002602090815260409182902054825160608101909352603580845261142b936001600160601b039092169285929190611e079083013961129e565b6001600160a01b03848116600090815260026020908152604080832080546001600160601b0319166001600160601b0396871617905592861682529082902054825160608101909352602f8084526114939491909116928592909190611f28908301396115c3565b6001600160a01b0383811660008181526002602090815260409182902080546001600160601b0319166001600160601b03968716179055905193851684529092918616917fddf252ad1be2c89b69c2b068fc378daa952ba7f163c4a11628f55a4df523b3ef910160405180910390a36001600160a01b0380841660009081526003602052604080822054858416835291205461153492918216911683611610565b505050565b6001600160a01b03808316600081815260036020818152604080842080546002845282862054949093528787166001600160a01b031984168117909155905191909516946001600160601b039092169391928592917f3134e8a2e6d97e929a7e54011ea5485d7d196dd5f0ba4d4ef95803e8e3fc257f9190a46115bd828483611610565b50505050565b6000806115d08486611cc8565b9050846001600160601b0316816001600160601b0316101583906116075760405162461bcd60e51b81526004016106069190611c4d565b50949350505050565b816001600160a01b0316836001600160a01b03161415801561163b57506000816001600160601b0316115b15611534576001600160a01b03831615611700576001600160a01b03831660009081526005602052604081205463ffffffff16908161167b5760006116c7565b6001600160a01b03851660009081526004602052604081209061169f600185611d19565b63ffffffff168152602081019190915260400160002054600160201b90046001600160601b03165b905060006116ee8285604051806060016040528060278152602001611eb86027913961129e565b90506116fc868484846117b8565b5050505b6001600160a01b03821615611534576001600160a01b03821660009081526005602052604081205463ffffffff16908161173b576000611787565b6001600160a01b03841660009081526004602052604081209061175f600185611d19565b63ffffffff168152602081019190915260400160002054600160201b90046001600160601b03165b905060006117ae8285604051806060016040528060268152602001611e5f602691396115c3565b9050610e87858484845b60006117dc43604051806060016040528060338152602001611e85603391396119b0565b905060008463ffffffff1611801561183657506001600160a01b038516600090815260046020526040812063ffffffff83169161181a600188611d19565b63ffffffff908116825260208201929092526040016000205416145b156118aa576001600160a01b03851660009081526004602052604081208391611860600188611d19565b63ffffffff168152602081019190915260400160002080546001600160601b0392909216600160201b026fffffffffffffffffffffffff000000001990921691909117905561195b565b60408051808201825263ffffffff80841682526001600160601b0380861660208085019182526001600160a01b038b166000908152600482528681208b8616825290915294909420925183549451909116600160201b026fffffffffffffffffffffffffffffffff1990941691161791909117905561192a846001611ca0565b6001600160a01b0386166000908152600560205260409020805463ffffffff191663ffffffff929092169190911790555b604080516001600160601b038086168252841660208201526001600160a01b038716917fdec2bacdd2f05b59de34da9b523dff8be42e5e38e818c82fdb0bae774387a724910160405180910390a25050505050565b600081600160201b84106112965760405162461bcd60e51b81526004016106069190611c4d565b80356001600160a01b03811681146119ee57600080fd5b919050565b803560ff811681146119ee57600080fd5b600060208284031215611a15578081fd5b610bb5826119d7565b60008060408385031215611a30578081fd5b611a39836119d7565b9150611a47602084016119d7565b90509250929050565b600080600060608486031215611a64578081fd5b611a6d846119d7565b9250611a7b602085016119d7565b9150604084013590509250925092565b600080600080600080600060e0888a031215611aa5578283fd5b611aae886119d7565b9650611abc602089016119d7565b95506040880135945060608801359350611ad8608089016119f3565b925060a0880135915060c0880135905092959891949750929550565b60008060408385031215611b06578182fd5b611b0f836119d7565b946020939093013593505050565b60008060008060008060c08789031215611b35578182fd5b611b3e876119d7565b95506020870135945060408701359350611b5a606088016119f3565b92506080870135915060a087013590509295509295509295565b60008060408385031215611b86578182fd5b611b8f836119d7565b9150602083013563ffffffff81168114611ba7578182fd5b809150509250929050565b600080835482600182811c915080831680611bce57607f831692505b6020808410821415611bee57634e487b7160e01b87526022600452602487fd5b818015611c025760018114611c1357611c3f565b60ff19861689528489019650611c3f565b60008a815260209020885b86811015611c375781548b820152908501908301611c1e565b505084890196505b509498975050505050505050565b6000602080835283518082850152825b81811015611c7957858101830151858201604001528201611c5d565b81811115611c8a5783604083870101525b50601f01601f1916929092016040019392505050565b600063ffffffff808316818516808303821115611cbf57611cbf611db4565b01949350505050565b60006001600160601b03808316818516808303821115611cbf57611cbf611db4565b600063ffffffff80841680611d0d57634e487b7160e01b83526012600452602483fd5b92169190910492915050565b600063ffffffff83811690831681811015611d3657611d36611db4565b039392505050565b60006001600160601b0383811690831681811015611d3657611d36611db4565b600181811c90821680611d7257607f821691505b60208210811415611d9357634e487b7160e01b600052602260045260246000fd5b50919050565b6000600019821415611dad57611dad611db4565b5060010190565b634e487b7160e01b600052601160045260246000fdfe556e693a3a7472616e7366657246726f6d3a207472616e7366657220616d6f756e742065786365656473207370656e64657220616c6c6f77616e6365556e693a3a5f7472616e73666572546f6b656e733a207472616e7366657220616d6f756e7420657863656564732062616c616e6365556e693a3a7065726d69743a20616d6f756e7420657863656564732039362062697473556e693a3a5f6d6f7665566f7465733a20766f746520616d6f756e74206f766572666c6f7773556e693a3a5f7772697465436865636b706f696e743a20626c6f636b206e756d62657220657863656564732033322062697473556e693a3a5f6d6f7665566f7465733a20766f746520616d6f756e7420756e646572666c6f7773556e693a3a7472616e736665723a20616d6f756e7420657863656564732039362062697473556e693a3a617070726f76653a20616d6f756e7420657863656564732039362062697473556e693a3a5f7472616e73666572546f6b656e733a207472616e7366657220616d6f756e74206f766572666c6f7773a264697066735822122033bccafd790a99ba9ca70751f65f5399310c5b8fe9dbd3f6a45e500f3d4f8d6164736f6c63430008040033566f74696e67506f7765723a3a5f6d696e74566f7465733a206d696e7420616d6f756e74206f766572666c6f7773566f74696e67506f7765723a3a5f6d696e74566f7465733a20746f74616c20737570706c79206f766572666c6f7773556e693a3a5f6d6f7665566f7465733a20766f746520616d6f756e74206f766572666c6f7773556e693a3a5f7772697465436865636b706f696e743a20626c6f636b206e756d62657220657863656564732033322062697473556e693a3a5f6d6f7665566f7465733a20766f746520616d6f756e7420756e646572666c6f7773",
  "linkReferences": {},
  "deployedLinkReferences": {}
}