{
  "_format": "hh-sol-artifact-1",
  "contractName": "PACTDelegateStorageV1",
  "sourceName": "contracts/governor/interfaces/PACTDelegateStorageV1.sol",
  "abi": [
    {
      "inputs": [
        {
          "internalType": "address",
          "name": "",
          "type": "address"
        }
      ],
      "name": "latestProposalIds",
      "outputs": [
        {
          "internalType": "uint256",
          "name": "",
          "type": "uint256"
        }
      ],
      "stateMutability": "view",
      "type": "function"
    },
    {
      "inputs": [
        {
          "internalType": "uint256",
          "name": "",
          "type": "uint256"
        },
        {
          "internalType": "uint256",
          "name": "",
          "type": "uint256"
        }
      ],
      "name": "proposalCalldatas",
      "outputs": [
        {
          "internalType": "bytes",
          "name": "",
          "type": "bytes"
        }
      ],
      "stateMutability": "view",
      "type": "function"
    },
    {
      "inputs": [],
      "name": "proposalCount",
      "outputs": [
        {
          "internalType": "uint256",
          "name": "",
          "type": "uint256"
        }
      ],
      "stateMutability": "view",
      "type": "function"
    },
    {
      "inputs": [
        {
          "internalType": "uint256",
          "name": "",
          "type": "uint256"
        },
        {
          "internalType": "address",
          "name": "",
          "type": "address"
        }
      ],
      "name": "proposalReceipts",
      "outputs": [
        {
          "internalType": "bool",
          "name": "hasVoted",
          "type": "bool"
        },
        {
          "internalType": "uint8",
          "name": "support",
          "type": "uint8"
        },
        {
          "internalType": "uint96",
          "name": "votes",
          "type": "uint96"
        }
      ],
      "stateMutability": "view",
      "type": "function"
    },
    {
      "inputs": [
        {
          "internalType": "uint256",
          "name": "",
          "type": "uint256"
        },
        {
          "internalType": "uint256",
          "name": "",
          "type": "uint256"
        }
      ],
      "name": "proposalSignatures",
      "outputs": [
        {
          "internalType": "string",
          "name": "",
          "type": "string"
        }
      ],
      "stateMutability": "view",
      "type": "function"
    },
    {
      "inputs": [
        {
          "internalType": "uint256",
          "name": "",
          "type": "uint256"
        },
        {
          "internalType": "uint256",
          "name": "",
          "type": "uint256"
        }
      ],
      "name": "proposalTargets",
      "outputs": [
        {
          "internalType": "address",
          "name": "",
          "type": "address"
        }
      ],
      "stateMutability": "view",
      "type": "function"
    },
    {
      "inputs": [],
      "name": "proposalThreshold",
      "outputs": [
        {
          "internalType": "uint256",
          "name": "",
          "type": "uint256"
        }
      ],
      "stateMutability": "view",
      "type": "function"
    },
    {
      "inputs": [
        {
          "internalType": "uint256",
          "name": "",
          "type": "uint256"
        },
        {
          "internalType": "uint256",
          "name": "",
          "type": "uint256"
        }
      ],
      "name": "proposalValues",
      "outputs": [
        {
          "internalType": "uint256",
          "name": "",
          "type": "uint256"
        }
      ],
      "stateMutability": "view",
      "type": "function"
    },
    {
      "inputs": [
        {
          "internalType": "uint256",
          "name": "",
          "type": "uint256"
        }
      ],
      "name": "proposals",
      "outputs": [
        {
          "internalType": "uint256",
          "name": "id",
          "type": "uint256"
        },
        {
          "internalType": "address",
          "name": "proposer",
          "type": "address"
        },
        {
          "internalType": "uint256",
          "name": "eta",
          "type": "uint256"
        },
        {
          "internalType": "uint256",
          "name": "startBlock",
          "type": "uint256"
        },
        {
          "internalType": "uint256",
          "name": "endBlock",
          "type": "uint256"
        },
        {
          "internalType": "uint256",
          "name": "forVotes",
          "type": "uint256"
        },
        {
          "internalType": "uint256",
          "name": "againstVotes",
          "type": "uint256"
        },
        {
          "internalType": "uint256",
          "name": "abstainVotes",
          "type": "uint256"
        },
        {
          "internalType": "bool",
          "name": "canceled",
          "type": "bool"
        },
        {
          "internalType": "bool",
          "name": "executed",
          "type": "bool"
        }
      ],
      "stateMutability": "view",
      "type": "function"
    },
    {
      "inputs": [],
      "name": "quorumVotes",
      "outputs": [
        {
          "internalType": "uint256",
          "name": "",
          "type": "uint256"
        }
      ],
      "stateMutability": "view",
      "type": "function"
    },
    {
      "inputs": [],
      "name": "releaseToken",
      "outputs": [
        {
          "internalType": "contract IHasVotes",
          "name": "",
          "type": "address"
        }
      ],
      "stateMutability": "view",
      "type": "function"
    },
    {
      "inputs": [],
      "name": "timelock",
      "outputs": [
        {
          "internalType": "contract TimelockInterface",
          "name": "",
          "type": "address"
        }
      ],
      "stateMutability": "view",
      "type": "function"
    },
    {
      "inputs": [],
      "name": "token",
      "outputs": [
        {
          "internalType": "contract IHasVotes",
          "name": "",
          "type": "address"
        }
      ],
      "stateMutability": "view",
      "type": "function"
    },
    {
      "inputs": [],
      "name": "votingDelay",
      "outputs": [
        {
          "internalType": "uint256",
          "name": "",
          "type": "uint256"
        }
      ],
      "stateMutability": "view",
      "type": "function"
    },
    {
      "inputs": [],
      "name": "votingPeriod",
      "outputs": [
        {
          "internalType": "uint256",
          "name": "",
          "type": "uint256"
        }
      ],
      "stateMutability": "view",
      "type": "function"
    }
  ],
  "bytecode": "0x608060405234801561001057600080fd5b506105f1806100206000396000f3fe608060405234801561001057600080fd5b50600436106100f55760003560e01c8063878b608d11610097578063d33219b411610066578063d33219b414610301578063da35c66414610314578063ec715a311461031d578063fc0c546a1461033057600080fd5b8063878b608d146102a7578063a4a53a13146102ba578063ac674664146102cd578063b58131b0146102f857600080fd5b806324bc1a64116100d357806324bc1a64146101fa5780633932abb1146102035780634e42b06d1461020c578063661767431461022c57600080fd5b8063013cf08b146100fa57806302a251a3146101c357806317977c61146101da575b600080fd5b6101686101083660046104be565b600860208190526000918252604090912080546001820154600283015460038401546004850154600586015460068701546007880154979098015495976001600160a01b0390951696939592949193909260ff808216916101009004168a565b604080519a8b526001600160a01b0390991660208b0152978901969096526060880194909452608087019290925260a086015260c085015260e084015215156101008301521515610120820152610140015b60405180910390f35b6101cc60015481565b6040519081526020016101ba565b6101cc6101e836600461049d565b600e6020526000908152604090205481565b6101cc60045481565b6101cc60005481565b61021f61021a366004610501565b610343565b6040516101ba919061056d565b61027a61023a3660046104d6565b600d60209081526000928352604080842090915290825290205460ff808216916101008104909116906201000090046bffffffffffffffffffffffff1683565b60408051931515845260ff90921660208401526bffffffffffffffffffffffff16908201526060016101ba565b6101cc6102b5366004610501565b6103fc565b61021f6102c8366004610501565b61042d565b6102e06102db366004610501565b610449565b6040516001600160a01b0390911681526020016101ba565b6101cc60025481565b6005546102e0906001600160a01b031681565b6101cc60035481565b6007546102e0906001600160a01b031681565b6006546102e0906001600160a01b031681565b600c602052816000526040600020818154811061035f57600080fd5b9060005260206000200160009150915050805461037b90610580565b80601f01602080910402602001604051908101604052809291908181526020018280546103a790610580565b80156103f45780601f106103c9576101008083540402835291602001916103f4565b820191906000526020600020905b8154815290600101906020018083116103d757829003601f168201915b505050505081565b600a602052816000526040600020818154811061041857600080fd5b90600052602060002001600091509150505481565b600b602052816000526040600020818154811061035f57600080fd5b6009602052816000526040600020818154811061046557600080fd5b6000918252602090912001546001600160a01b03169150829050565b80356001600160a01b038116811461049857600080fd5b919050565b6000602082840312156104ae578081fd5b6104b782610481565b9392505050565b6000602082840312156104cf578081fd5b5035919050565b600080604083850312156104e8578081fd5b823591506104f860208401610481565b90509250929050565b60008060408385031215610513578182fd5b50508035926020909101359150565b60008151808452815b818110156105475760208185018101518683018201520161052b565b818111156105585782602083870101525b50601f01601f19169290920160200192915050565b6020815260006104b76020830184610522565b600181811c9082168061059457607f821691505b602082108114156105b557634e487b7160e01b600052602260045260246000fd5b5091905056fea2646970667358221220e4de7d02484aac5e5a9a2bc7fb000242447a0328839436ce1feab17b807c841964736f6c63430008040033",
  "linkReferences": {},
  "deployedLinkReferences": {}
}