{
  "_format": "hh-sol-artifact-1",
  "contractName": "ImpactLabsVestingImplementation",
  "sourceName": "contracts/vesting/ImpactLabsVestingImplementation.sol",
  "abi": [
    {
      "anonymous": false,
      "inputs": [
        {
          "indexed": false,
          "internalType": "uint256",
          "name": "amount",
          "type": "uint256"
        },
        {
          "indexed": false,
          "internalType": "uint256",
          "name": "advancePaymentLeft",
          "type": "uint256"
        }
      ],
      "name": "AdvancePaymentDecreased",
      "type": "event"
    },
    {
      "anonymous": false,
      "inputs": [
        {
          "indexed": false,
          "internalType": "uint256",
          "name": "amount",
          "type": "uint256"
        }
      ],
      "name": "Claimed",
      "type": "event"
    },
    {
      "anonymous": false,
      "inputs": [
        {
          "indexed": true,
          "internalType": "address",
          "name": "previousOwner",
          "type": "address"
        },
        {
          "indexed": true,
          "internalType": "address",
          "name": "newOwner",
          "type": "address"
        }
      ],
      "name": "OwnershipTransferred",
      "type": "event"
    },
    {
      "anonymous": false,
      "inputs": [
        {
          "indexed": false,
          "internalType": "address",
          "name": "account",
          "type": "address"
        }
      ],
      "name": "Paused",
      "type": "event"
    },
    {
      "anonymous": false,
      "inputs": [
        {
          "indexed": true,
          "internalType": "address",
          "name": "token",
          "type": "address"
        },
        {
          "indexed": true,
          "internalType": "address",
          "name": "to",
          "type": "address"
        },
        {
          "indexed": false,
          "internalType": "uint256",
          "name": "amount",
          "type": "uint256"
        }
      ],
      "name": "TransferERC20",
      "type": "event"
    },
    {
      "anonymous": false,
      "inputs": [
        {
          "indexed": false,
          "internalType": "address",
          "name": "account",
          "type": "address"
        }
      ],
      "name": "Unpaused",
      "type": "event"
    },
    {
      "inputs": [],
      "name": "PACT",
      "outputs": [
        {
          "internalType": "contract IERC20Upgradeable",
          "name": "",
          "type": "address"
        }
      ],
      "stateMutability": "view",
      "type": "function"
    },
    {
      "inputs": [],
      "name": "advancePayment",
      "outputs": [
        {
          "internalType": "uint256",
          "name": "",
          "type": "uint256"
        }
      ],
      "stateMutability": "view",
      "type": "function"
    },
    {
      "inputs": [],
      "name": "claim",
      "outputs": [],
      "stateMutability": "nonpayable",
      "type": "function"
    },
    {
      "inputs": [],
      "name": "donationMiner",
      "outputs": [
        {
          "internalType": "contract IDonationMiner",
          "name": "",
          "type": "address"
        }
      ],
      "stateMutability": "view",
      "type": "function"
    },
    {
      "inputs": [],
      "name": "getVersion",
      "outputs": [
        {
          "internalType": "uint256",
          "name": "",
          "type": "uint256"
        }
      ],
      "stateMutability": "pure",
      "type": "function"
    },
    {
      "inputs": [],
      "name": "impactLabs",
      "outputs": [
        {
          "internalType": "address",
          "name": "",
          "type": "address"
        }
      ],
      "stateMutability": "view",
      "type": "function"
    },
    {
      "inputs": [
        {
          "internalType": "address",
          "name": "_impactLabs",
          "type": "address"
        },
        {
          "internalType": "contract IERC20Upgradeable",
          "name": "_PACT",
          "type": "address"
        },
        {
          "internalType": "contract IDonationMiner",
          "name": "_donationMiner",
          "type": "address"
        },
        {
          "internalType": "uint256",
          "name": "_advancePayment",
          "type": "uint256"
        }
      ],
      "name": "initialize",
      "outputs": [],
      "stateMutability": "nonpayable",
      "type": "function"
    },
    {
      "inputs": [],
      "name": "nextRewardPeriod",
      "outputs": [
        {
          "internalType": "uint256",
          "name": "",
          "type": "uint256"
        }
      ],
      "stateMutability": "view",
      "type": "function"
    },
    {
      "inputs": [],
      "name": "owner",
      "outputs": [
        {
          "internalType": "address",
          "name": "",
          "type": "address"
        }
      ],
      "stateMutability": "view",
      "type": "function"
    },
    {
      "inputs": [],
      "name": "paused",
      "outputs": [
        {
          "internalType": "bool",
          "name": "",
          "type": "bool"
        }
      ],
      "stateMutability": "view",
      "type": "function"
    },
    {
      "inputs": [],
      "name": "renounceOwnership",
      "outputs": [],
      "stateMutability": "nonpayable",
      "type": "function"
    },
    {
      "inputs": [
        {
          "internalType": "contract IERC20Upgradeable",
          "name": "_token",
          "type": "address"
        },
        {
          "internalType": "address",
          "name": "_to",
          "type": "address"
        },
        {
          "internalType": "uint256",
          "name": "_amount",
          "type": "uint256"
        }
      ],
      "name": "transfer",
      "outputs": [],
      "stateMutability": "nonpayable",
      "type": "function"
    },
    {
      "inputs": [
        {
          "internalType": "address",
          "name": "newOwner",
          "type": "address"
        }
      ],
      "name": "transferOwnership",
      "outputs": [],
      "stateMutability": "nonpayable",
      "type": "function"
    }
  ],
  "bytecode": "0x608060405234801561001057600080fd5b506111df806100206000396000f3fe608060405234801561001057600080fd5b50600436106100cf5760003560e01c8063715018a61161008c578063beabacc811610066578063beabacc814610173578063cf756fdf14610186578063e36d4f3e14610199578063f2fde38b146101ac57600080fd5b8063715018a614610151578063831d2ac3146101595780638da5cb5b1461016257600080fd5b80630d8e6e2c146100d4578063385eeda8146100ea5780633b9a0176146101155780634e71d92d1461012857806356d4dcb2146101325780635c975abb1461013b575b600080fd5b60015b6040519081526020015b60405180910390f35b60c9546100fd906001600160a01b031681565b6040516001600160a01b0390911681526020016100e1565b60ca546100fd906001600160a01b031681565b6101306101bf565b005b6100d760cc5481565b60655460ff1660405190151581526020016100e1565b610130610470565b6100d760cd5481565b6033546001600160a01b03166100fd565b610130610181366004610f42565b6104a6565b610130610194366004610ed2565b610593565b60cb546100fd906001600160a01b031681565b6101306101ba366004610eb6565b610822565b60655460ff161561020a5760405162461bcd60e51b815260206004820152601060248201526f14185d5cd8589b194e881c185d5cd95960821b60448201526064015b60405180910390fd5b60cc5460cb546040805163030e11d360e61b815290516000926001600160a01b03169163c38474c0916004808301926020929190829003018186803b15801561025257600080fd5b505afa158015610266573d6000803e3d6000fd5b505050506040513d601f19601f8201168201806040525081019061028a9190610f82565b90506000806000805b8486116103885760cb54604051638252097d60e01b8152600481018890526001600160a01b0390911690638252097d906024016101006040518083038186803b1580156102df57600080fd5b505afa1580156102f3573d6000803e3d6000fd5b505050506040513d601f19601f820116820180604052508101906103179190610f9a565b5095995092975090955050438510925061033391505057610388565b600484610340858561111c565b61034b9060016110c5565b61035591906110fd565b6103609060036110fd565b61036a91906110dd565b61037490826110c5565b90508561038081611163565b965050610293565b60cd5461039d57610398816108bd565b610463565b8060cd54106103ff578060cd60008282546103b8919061111c565b909155505060cd546040805183815260208101929092527f3bb316f43c793154a3a0fb64e2df25a526bb089ed8bd49e71b228ebc907b9d7a910160405180910390a1610463565b600060cd548261040f919061111c565b600060cd5590507f3bb316f43c793154a3a0fb64e2df25a526bb089ed8bd49e71b228ebc907b9d7a610441828461111c565b60408051918252600060208301520160405180910390a1610461816108bd565b505b50505060cc929092555050565b6033546001600160a01b0316331461049a5760405162461bcd60e51b815260040161020190611045565b6104a46000610a6c565b565b6033546001600160a01b031633146104d05760405162461bcd60e51b815260040161020190611045565b600260975414156105235760405162461bcd60e51b815260206004820152601f60248201527f5265656e7472616e637947756172643a207265656e7472616e742063616c6c006044820152606401610201565b600260975561053c6001600160a01b0384168383610abe565b816001600160a01b0316836001600160a01b03167f9b035625e569d1d2bf54830a290aefba7ab11610ba8490871dc62b86b63a89568360405161058191815260200190565b60405180910390a35050600160975550565b600054610100900460ff166105ae5760005460ff16156105b2565b303b155b6106155760405162461bcd60e51b815260206004820152602e60248201527f496e697469616c697a61626c653a20636f6e747261637420697320616c72656160448201526d191e481a5b9a5d1a585b1a5e995960921b6064820152608401610201565b600054610100900460ff16158015610637576000805461ffff19166101011790555b6001600160a01b0385166106b35760405162461bcd60e51b815260206004820152603a60248201527f496d706163744c61627356657374696e673a3a696e697469616c697a653a206960448201527f6d706163744c6162735f2061646472657373206e6f74207365740000000000006064820152608401610201565b6001600160a01b0384166107255760405162461bcd60e51b815260206004820152603360248201527f496d706163744c61627356657374696e673a3a696e697469616c697a653a20506044820152721050d5081859191c995cdcc81b9bdd081cd95d606a1b6064820152608401610201565b6001600160a01b0383166107a15760405162461bcd60e51b815260206004820152603d60248201527f496d706163744c61627356657374696e673a3a696e697469616c697a653a206460448201527f6f6e6174696f6e4d696e65725f2061646472657373206e6f74207365740000006064820152608401610201565b6107a9610b15565b6107b1610b4c565b6107b9610b83565b60c980546001600160a01b038088166001600160a01b03199283161790925560ca805487841690831617905560cb80549286169290911691909117905560cd829055600160cc55610809826108bd565b801561081b576000805461ff00191690555b5050505050565b6033546001600160a01b0316331461084c5760405162461bcd60e51b815260040161020190611045565b6001600160a01b0381166108b15760405162461bcd60e51b815260206004820152602660248201527f4f776e61626c653a206e6577206f776e657220697320746865207a65726f206160448201526564647265737360d01b6064820152608401610201565b6108ba81610a6c565b50565b600260975414156109105760405162461bcd60e51b815260206004820152601f60248201527f5265656e7472616e637947756172643a207265656e7472616e742063616c6c006044820152606401610201565b60026097558015610a315760ca546040516370a0823160e01b815230600482015282916001600160a01b0316906370a082319060240160206040518083038186803b15801561095e57600080fd5b505afa158015610972573d6000803e3d6000fd5b505050506040513d601f19601f820116820180604052508101906109969190610f82565b1015610a145760405162461bcd60e51b815260206004820152604160248201527f496d706163744c61627356657374696e673a3a7472616e73666572546f496d7060448201527f6163744c6162733a204552525f5245574152445f544f4b454e5f42414c414e436064820152604560f81b608482015260a401610201565b60c95460ca54610a31916001600160a01b03918216911683610abe565b6040518181527f7a355715549cfe7c1cba26304350343fbddc4b4f72d3ce3e7c27117dd20b5cb89060200160405180910390a1506001609755565b603380546001600160a01b038381166001600160a01b0319831681179093556040519116919082907f8be0079c531659141344cd1fd0a4f28419497f9722a3daafe3b4186f6b6457e090600090a35050565b604080516001600160a01b038416602482015260448082018490528251808303909101815260649091019091526020810180516001600160e01b031663a9059cbb60e01b179052610b10908490610bb2565b505050565b600054610100900460ff16610b3c5760405162461bcd60e51b81526004016102019061107a565b610b44610c84565b6104a4610cab565b600054610100900460ff16610b735760405162461bcd60e51b81526004016102019061107a565b610b7b610c84565b6104a4610cdb565b600054610100900460ff16610baa5760405162461bcd60e51b81526004016102019061107a565b6104a4610d0e565b6000610c07826040518060400160405280602081526020017f5361666545524332303a206c6f772d6c6576656c2063616c6c206661696c6564815250856001600160a01b0316610d3c9092919063ffffffff16565b805190915015610b105780806020019051810190610c259190610f22565b610b105760405162461bcd60e51b815260206004820152602a60248201527f5361666545524332303a204552433230206f7065726174696f6e20646964206e6044820152691bdd081cdd58d8d9595960b21b6064820152608401610201565b600054610100900460ff166104a45760405162461bcd60e51b81526004016102019061107a565b600054610100900460ff16610cd25760405162461bcd60e51b81526004016102019061107a565b6104a433610a6c565b600054610100900460ff16610d025760405162461bcd60e51b81526004016102019061107a565b6065805460ff19169055565b600054610100900460ff16610d355760405162461bcd60e51b81526004016102019061107a565b6001609755565b6060610d4b8484600085610d55565b90505b9392505050565b606082471015610db65760405162461bcd60e51b815260206004820152602660248201527f416464726573733a20696e73756666696369656e742062616c616e636520666f6044820152651c8818d85b1b60d21b6064820152608401610201565b843b610e045760405162461bcd60e51b815260206004820152601d60248201527f416464726573733a2063616c6c20746f206e6f6e2d636f6e74726163740000006044820152606401610201565b600080866001600160a01b03168587604051610e209190610ff6565b60006040518083038185875af1925050503d8060008114610e5d576040519150601f19603f3d011682016040523d82523d6000602084013e610e62565b606091505b5091509150610e72828286610e7d565b979650505050505050565b60608315610e8c575081610d4e565b825115610e9c5782518084602001fd5b8160405162461bcd60e51b81526004016102019190611012565b600060208284031215610ec7578081fd5b8135610d4e81611194565b60008060008060808587031215610ee7578283fd5b8435610ef281611194565b93506020850135610f0281611194565b92506040850135610f1281611194565b9396929550929360600135925050565b600060208284031215610f33578081fd5b81518015158114610d4e578182fd5b600080600060608486031215610f56578283fd5b8335610f6181611194565b92506020840135610f7181611194565b929592945050506040919091013590565b600060208284031215610f93578081fd5b5051919050565b600080600080600080600080610100898b031215610fb6578384fd5b505086516020880151604089015160608a015160808b015160a08c015160c08d015160e0909d0151959e949d50929b919a50985090965094509092509050565b60008251611008818460208701611133565b9190910192915050565b6020815260008251806020840152611031816040850160208701611133565b601f01601f19169190910160400192915050565b6020808252818101527f4f776e61626c653a2063616c6c6572206973206e6f7420746865206f776e6572604082015260600190565b6020808252602b908201527f496e697469616c697a61626c653a20636f6e7472616374206973206e6f74206960408201526a6e697469616c697a696e6760a81b606082015260800190565b600082198211156110d8576110d861117e565b500190565b6000826110f857634e487b7160e01b81526012600452602481fd5b500490565b60008160001904831182151516156111175761111761117e565b500290565b60008282101561112e5761112e61117e565b500390565b60005b8381101561114e578181015183820152602001611136565b8381111561115d576000848401525b50505050565b60006000198214156111775761117761117e565b5060010190565b634e487b7160e01b600052601160045260246000fd5b6001600160a01b03811681146108ba57600080fdfea2646970667358221220b3631176df31d4fa410f2698f3a818ebe65391ddc1c3f34e420cdbee2f41cf7264736f6c63430008040033",
  "linkReferences": {},
  "deployedLinkReferences": {}
}