{
  "contractName": "Community",
  "abi": [
    {
      "inputs": [
        {
          "internalType": "address",
          "name": "_firstManager",
          "type": "address"
        },
        {
          "internalType": "uint256",
          "name": "_claimAmount",
          "type": "uint256"
        },
        {
          "internalType": "uint256",
          "name": "_maxClaim",
          "type": "uint256"
        },
        {
          "internalType": "uint256",
          "name": "_baseInterval",
          "type": "uint256"
        },
        {
          "internalType": "uint256",
          "name": "_incrementInterval",
          "type": "uint256"
        },
        {
          "internalType": "address",
          "name": "_previousCommunityContract",
          "type": "address"
        },
        {
          "internalType": "address",
          "name": "_cUSDAddress",
          "type": "address"
        },
        {
          "internalType": "address",
          "name": "_addressesProvider",
          "type": "address"
        },
        {
          "internalType": "address",
          "name": "_impactMarketAddress",
          "type": "address"
        }
      ],
      "stateMutability": "nonpayable",
      "type": "constructor"
    },
    {
      "anonymous": false,
      "inputs": [
        {
          "indexed": true,
          "internalType": "address",
          "name": "_account",
          "type": "address"
        }
      ],
      "name": "BeneficiaryAdded",
      "type": "event"
    },
    {
      "anonymous": false,
      "inputs": [
        {
          "indexed": true,
          "internalType": "address",
          "name": "_account",
          "type": "address"
        },
        {
          "indexed": false,
          "internalType": "uint256",
          "name": "_amount",
          "type": "uint256"
        }
      ],
      "name": "BeneficiaryClaim",
      "type": "event"
    },
    {
      "anonymous": false,
      "inputs": [
        {
          "indexed": true,
          "internalType": "address",
          "name": "_account",
          "type": "address"
        }
      ],
      "name": "BeneficiaryLocked",
      "type": "event"
    },
    {
      "anonymous": false,
      "inputs": [
        {
          "indexed": true,
          "internalType": "address",
          "name": "_account",
          "type": "address"
        }
      ],
      "name": "BeneficiaryRemoved",
      "type": "event"
    },
    {
      "anonymous": false,
      "inputs": [
        {
          "indexed": true,
          "internalType": "address",
          "name": "_account",
          "type": "address"
        }
      ],
      "name": "BeneficiaryUnlocked",
      "type": "event"
    },
    {
      "anonymous": false,
      "inputs": [
        {
          "indexed": false,
          "internalType": "uint256",
          "name": "_claimAmount",
          "type": "uint256"
        },
        {
          "indexed": false,
          "internalType": "uint256",
          "name": "_maxClaim",
          "type": "uint256"
        },
        {
          "indexed": false,
          "internalType": "uint256",
          "name": "_baseInterval",
          "type": "uint256"
        },
        {
          "indexed": false,
          "internalType": "uint256",
          "name": "_incrementInterval",
          "type": "uint256"
        }
      ],
      "name": "CommunityEdited",
      "type": "event"
    },
    {
      "anonymous": false,
      "inputs": [
        {
          "indexed": true,
          "internalType": "address",
          "name": "_by",
          "type": "address"
        }
      ],
      "name": "CommunityLocked",
      "type": "event"
    },
    {
      "anonymous": false,
      "inputs": [
        {
          "indexed": true,
          "internalType": "address",
          "name": "_by",
          "type": "address"
        }
      ],
      "name": "CommunityUnlocked",
      "type": "event"
    },
    {
      "anonymous": false,
      "inputs": [
        {
          "indexed": true,
          "internalType": "address",
          "name": "_account",
          "type": "address"
        }
      ],
      "name": "ManagerAdded",
      "type": "event"
    },
    {
      "anonymous": false,
      "inputs": [
        {
          "indexed": true,
          "internalType": "address",
          "name": "_account",
          "type": "address"
        }
      ],
      "name": "ManagerRemoved",
      "type": "event"
    },
    {
      "anonymous": false,
      "inputs": [
        {
          "indexed": true,
          "internalType": "address",
          "name": "_to",
          "type": "address"
        },
        {
          "indexed": false,
          "internalType": "uint256",
          "name": "_amount",
          "type": "uint256"
        }
      ],
      "name": "MigratedFunds",
      "type": "event"
    },
    {
      "anonymous": false,
      "inputs": [
        {
          "indexed": true,
          "internalType": "bytes32",
          "name": "role",
          "type": "bytes32"
        },
        {
          "indexed": true,
          "internalType": "bytes32",
          "name": "previousAdminRole",
          "type": "bytes32"
        },
        {
          "indexed": true,
          "internalType": "bytes32",
          "name": "newAdminRole",
          "type": "bytes32"
        }
      ],
      "name": "RoleAdminChanged",
      "type": "event"
    },
    {
      "anonymous": false,
      "inputs": [
        {
          "indexed": true,
          "internalType": "bytes32",
          "name": "role",
          "type": "bytes32"
        },
        {
          "indexed": true,
          "internalType": "address",
          "name": "account",
          "type": "address"
        },
        {
          "indexed": true,
          "internalType": "address",
          "name": "sender",
          "type": "address"
        }
      ],
      "name": "RoleGranted",
      "type": "event"
    },
    {
      "anonymous": false,
      "inputs": [
        {
          "indexed": true,
          "internalType": "bytes32",
          "name": "role",
          "type": "bytes32"
        },
        {
          "indexed": true,
          "internalType": "address",
          "name": "account",
          "type": "address"
        },
        {
          "indexed": true,
          "internalType": "address",
          "name": "sender",
          "type": "address"
        }
      ],
      "name": "RoleRevoked",
      "type": "event"
    },
    {
      "inputs": [],
      "name": "DEFAULT_ADMIN_ROLE",
      "outputs": [
        {
          "internalType": "bytes32",
          "name": "",
          "type": "bytes32"
        }
      ],
      "stateMutability": "view",
      "type": "function"
    },
    {
      "inputs": [],
      "name": "MANAGER_ROLE",
      "outputs": [
        {
          "internalType": "bytes32",
          "name": "",
          "type": "bytes32"
        }
      ],
      "stateMutability": "view",
      "type": "function"
    },
    {
      "inputs": [],
      "name": "addressesProvider",
      "outputs": [
        {
          "internalType": "address",
          "name": "",
          "type": "address"
        }
      ],
      "stateMutability": "view",
      "type": "function"
    },
    {
      "inputs": [],
      "name": "baseInterval",
      "outputs": [
        {
          "internalType": "uint256",
          "name": "",
          "type": "uint256"
        }
      ],
      "stateMutability": "view",
      "type": "function"
    },
    {
      "inputs": [
        {
          "internalType": "address",
          "name": "",
          "type": "address"
        }
      ],
      "name": "beneficiaries",
      "outputs": [
        {
          "internalType": "enum Community.BeneficiaryState",
          "name": "",
          "type": "uint8"
        }
      ],
      "stateMutability": "view",
      "type": "function"
    },
    {
      "inputs": [],
      "name": "cUSDAddress",
      "outputs": [
        {
          "internalType": "address",
          "name": "",
          "type": "address"
        }
      ],
      "stateMutability": "view",
      "type": "function"
    },
    {
      "inputs": [],
      "name": "claimAmount",
      "outputs": [
        {
          "internalType": "uint256",
          "name": "",
          "type": "uint256"
        }
      ],
      "stateMutability": "view",
      "type": "function"
    },
    {
      "inputs": [
        {
          "internalType": "address",
          "name": "",
          "type": "address"
        }
      ],
      "name": "claimed",
      "outputs": [
        {
          "internalType": "uint256",
          "name": "",
          "type": "uint256"
        }
      ],
      "stateMutability": "view",
      "type": "function"
    },
    {
      "inputs": [
        {
          "internalType": "address",
          "name": "",
          "type": "address"
        }
      ],
      "name": "cooldown",
      "outputs": [
        {
          "internalType": "uint256",
          "name": "",
          "type": "uint256"
        }
      ],
      "stateMutability": "view",
      "type": "function"
    },
    {
      "inputs": [
        {
          "internalType": "bytes32",
          "name": "role",
          "type": "bytes32"
        }
      ],
      "name": "getRoleAdmin",
      "outputs": [
        {
          "internalType": "bytes32",
          "name": "",
          "type": "bytes32"
        }
      ],
      "stateMutability": "view",
      "type": "function"
    },
    {
      "inputs": [
        {
          "internalType": "bytes32",
          "name": "role",
          "type": "bytes32"
        },
        {
          "internalType": "address",
          "name": "account",
          "type": "address"
        }
      ],
      "name": "grantRole",
      "outputs": [],
      "stateMutability": "nonpayable",
      "type": "function"
    },
    {
      "inputs": [
        {
          "internalType": "bytes32",
          "name": "role",
          "type": "bytes32"
        },
        {
          "internalType": "address",
          "name": "account",
          "type": "address"
        }
      ],
      "name": "hasRole",
      "outputs": [
        {
          "internalType": "bool",
          "name": "",
          "type": "bool"
        }
      ],
      "stateMutability": "view",
      "type": "function"
    },
    {
      "inputs": [],
      "name": "impactMarketAddress",
      "outputs": [
        {
          "internalType": "address",
          "name": "",
          "type": "address"
        }
      ],
      "stateMutability": "view",
      "type": "function"
    },
    {
      "inputs": [],
      "name": "incrementInterval",
      "outputs": [
        {
          "internalType": "uint256",
          "name": "",
          "type": "uint256"
        }
      ],
      "stateMutability": "view",
      "type": "function"
    },
    {
      "inputs": [
        {
          "internalType": "address",
          "name": "",
          "type": "address"
        }
      ],
      "name": "lastInterval",
      "outputs": [
        {
          "internalType": "uint256",
          "name": "",
          "type": "uint256"
        }
      ],
      "stateMutability": "view",
      "type": "function"
    },
    {
      "inputs": [],
      "name": "locked",
      "outputs": [
        {
          "internalType": "bool",
          "name": "",
          "type": "bool"
        }
      ],
      "stateMutability": "view",
      "type": "function"
    },
    {
      "inputs": [],
      "name": "maxClaim",
      "outputs": [
        {
          "internalType": "uint256",
          "name": "",
          "type": "uint256"
        }
      ],
      "stateMutability": "view",
      "type": "function"
    },
    {
      "inputs": [],
      "name": "nBeneficiaries",
      "outputs": [
        {
          "internalType": "uint256",
          "name": "",
          "type": "uint256"
        }
      ],
      "stateMutability": "view",
      "type": "function"
    },
    {
      "inputs": [],
      "name": "nManagers",
      "outputs": [
        {
          "internalType": "uint256",
          "name": "",
          "type": "uint256"
        }
      ],
      "stateMutability": "view",
      "type": "function"
    },
    {
      "inputs": [],
      "name": "previousCommunityContract",
      "outputs": [
        {
          "internalType": "address",
          "name": "",
          "type": "address"
        }
      ],
      "stateMutability": "view",
      "type": "function"
    },
    {
      "inputs": [
        {
          "internalType": "bytes32",
          "name": "role",
          "type": "bytes32"
        },
        {
          "internalType": "address",
          "name": "account",
          "type": "address"
        }
      ],
      "name": "renounceRole",
      "outputs": [],
      "stateMutability": "nonpayable",
      "type": "function"
    },
    {
      "inputs": [
        {
          "internalType": "bytes32",
          "name": "role",
          "type": "bytes32"
        },
        {
          "internalType": "address",
          "name": "account",
          "type": "address"
        }
      ],
      "name": "revokeRole",
      "outputs": [],
      "stateMutability": "nonpayable",
      "type": "function"
    },
    {
      "inputs": [
        {
          "internalType": "bytes4",
          "name": "interfaceId",
          "type": "bytes4"
        }
      ],
      "name": "supportsInterface",
      "outputs": [
        {
          "internalType": "bool",
          "name": "",
          "type": "bool"
        }
      ],
      "stateMutability": "view",
      "type": "function"
    },
    {
      "inputs": [
        {
          "internalType": "address",
          "name": "_account",
          "type": "address"
        }
      ],
      "name": "addManager",
      "outputs": [],
      "stateMutability": "nonpayable",
      "type": "function"
    },
    {
      "inputs": [
        {
          "internalType": "address",
          "name": "_account",
          "type": "address"
        }
      ],
      "name": "removeManager",
      "outputs": [],
      "stateMutability": "nonpayable",
      "type": "function"
    },
    {
      "inputs": [
        {
          "internalType": "address",
          "name": "_account",
          "type": "address"
        }
      ],
      "name": "addBeneficiary",
      "outputs": [],
      "stateMutability": "nonpayable",
      "type": "function"
    },
    {
      "inputs": [
        {
          "internalType": "address",
          "name": "_account",
          "type": "address"
        }
      ],
      "name": "lockBeneficiary",
      "outputs": [],
      "stateMutability": "nonpayable",
      "type": "function"
    },
    {
      "inputs": [
        {
          "internalType": "address",
          "name": "_account",
          "type": "address"
        }
      ],
      "name": "unlockBeneficiary",
      "outputs": [],
      "stateMutability": "nonpayable",
      "type": "function"
    },
    {
      "inputs": [
        {
          "internalType": "address",
          "name": "_account",
          "type": "address"
        }
      ],
      "name": "removeBeneficiary",
      "outputs": [],
      "stateMutability": "nonpayable",
      "type": "function"
    },
    {
      "inputs": [],
      "name": "claim",
      "outputs": [],
      "stateMutability": "nonpayable",
      "type": "function"
    },
    {
      "inputs": [
        {
          "internalType": "uint256",
          "name": "_claimAmount",
          "type": "uint256"
        },
        {
          "internalType": "uint256",
          "name": "_maxClaim",
          "type": "uint256"
        },
        {
          "internalType": "uint256",
          "name": "_baseInterval",
          "type": "uint256"
        },
        {
          "internalType": "uint256",
          "name": "_incrementInterval",
          "type": "uint256"
        }
      ],
      "name": "edit",
      "outputs": [],
      "stateMutability": "nonpayable",
      "type": "function"
    },
    {
      "inputs": [],
      "name": "lock",
      "outputs": [],
      "stateMutability": "nonpayable",
      "type": "function"
    },
    {
      "inputs": [],
      "name": "unlock",
      "outputs": [],
      "stateMutability": "nonpayable",
      "type": "function"
    },
    {
      "inputs": [],
      "name": "depoistAndEarn",
      "outputs": [],
      "stateMutability": "nonpayable",
      "type": "function"
    },
    {
      "inputs": [
        {
          "internalType": "address",
          "name": "_newCommunity",
          "type": "address"
        },
        {
          "internalType": "address",
          "name": "_newCommunityManager",
          "type": "address"
        }
      ],
      "name": "migrateFunds",
      "outputs": [],
      "stateMutability": "nonpayable",
      "type": "function"
    },
    {
      "inputs": [],
      "name": "beneficiaryJoinFromMigrated",
      "outputs": [],
      "stateMutability": "nonpayable",
      "type": "function"
    },
    {
      "inputs": [],
      "name": "managerJoinFromMigrated",
      "outputs": [],
      "stateMutability": "nonpayable",
      "type": "function"
    }
  ],
  "bytecode": "0x60806040523480156200001157600080fd5b50604051620042ef380380620042ef8339818101604052810190620000379190620004e5565b8486116200007c576040517f08c379a0000000000000000000000000000000000000000000000000000000008152600401620000739062000600565b60405180910390fd5b878711620000c1576040517f08c379a0000000000000000000000000000000000000000000000000000000008152600401620000b89062000600565b60405180910390fd5b8760058190555085600681905550846007819055508660088190555060006009819055506002600a819055506200011f7f241ecf16d79d0f8dbfb92cbc07fe17840425976cf0667f022fe9877caa831b088a620002c260201b60201c565b620001517f241ecf16d79d0f8dbfb92cbc07fe17840425976cf0667f022fe9877caa831b0880620002d860201b60201c565b8873ffffffffffffffffffffffffffffffffffffffff167f3b4a40cccf2058c593542587329dd385be4f0b588db5471fbd9598e56dd7093a60405160405180910390a283600b60006101000a81548173ffffffffffffffffffffffffffffffffffffffff021916908373ffffffffffffffffffffffffffffffffffffffff16021790555082600d60006101000a81548173ffffffffffffffffffffffffffffffffffffffff021916908373ffffffffffffffffffffffffffffffffffffffff16021790555081600e60006101000a81548173ffffffffffffffffffffffffffffffffffffffff021916908373ffffffffffffffffffffffffffffffffffffffff16021790555080600c60006101000a81548173ffffffffffffffffffffffffffffffffffffffff021916908373ffffffffffffffffffffffffffffffffffffffff1602179055506000600e60146101000a81548160ff021916908315150217905550505050505050505050620006a5565b620002d482826200033560201b60201c565b5050565b80620002ea836200042660201b60201c565b837fbd79b86ffe0ab8e8776151514217cd7cacd52c909f66475c3af44e129f0b00ff60405160405180910390a480600080848152602001908152602001600020600101819055505050565b6200034782826200044560201b60201c565b6200042257600160008084815260200190815260200160002060000160008373ffffffffffffffffffffffffffffffffffffffff1673ffffffffffffffffffffffffffffffffffffffff16815260200190815260200160002060006101000a81548160ff021916908315150217905550620003c7620004af60201b60201c565b73ffffffffffffffffffffffffffffffffffffffff168173ffffffffffffffffffffffffffffffffffffffff16837f2f8788117e7eff1d82e926ec794901d17c78024a50270940304540a733656f0d60405160405180910390a45b5050565b6000806000838152602001908152602001600020600101549050919050565b600080600084815260200190815260200160002060000160008373ffffffffffffffffffffffffffffffffffffffff1673ffffffffffffffffffffffffffffffffffffffff16815260200190815260200160002060009054906101000a900460ff16905092915050565b600033905090565b600081519050620004c88162000671565b92915050565b600081519050620004df816200068b565b92915050565b60008060008060008060008060006101208a8c0312156200050557600080fd5b6000620005158c828d01620004b7565b9950506020620005288c828d01620004ce565b98505060406200053b8c828d01620004ce565b97505060606200054e8c828d01620004ce565b9650506080620005618c828d01620004ce565b95505060a0620005748c828d01620004b7565b94505060c0620005878c828d01620004b7565b93505060e06200059a8c828d01620004b7565b925050610100620005ae8c828d01620004b7565b9150509295985092959850929598565b6000620005cd600b8362000622565b91507f4e4f545f414c4c4f5745440000000000000000000000000000000000000000006000830152602082019050919050565b600060208201905081810360008301526200061b81620005be565b9050919050565b600082825260208201905092915050565b6000620006408262000647565b9050919050565b600073ffffffffffffffffffffffffffffffffffffffff82169050919050565b6000819050919050565b6200067c8162000633565b81146200068857600080fd5b50565b620006968162000667565b8114620006a257600080fd5b50565b613c3a80620006b56000396000f3fe608060405234801561001057600080fd5b50600436106102275760003560e01c8063a217fddf11610130578063c0e27b6b116100b8578063d4938db31161007c578063d4938db3146105f4578063d547741f14610612578063e1b56a7d1461062e578063ec87621c1461064a578063f83d08ba1461066857610227565b8063c0e27b6b14610550578063c72c4d101461056c578063c884ef831461058a578063cf309012146105ba578063d10f5107146105d857610227565b8063a8f3e063116100ff578063a8f3e063146104ac578063ac18de43146104dc578063b222e0c2146104f8578063b27c525c14610528578063c041fdc51461053257610227565b8063a217fddf1461045c578063a67892051461047a578063a69df4b514610484578063a7ddfc731461048e57610227565b80633ff574b6116101b3578063597be18b11610182578063597be18b146103c8578063723775c9146103e6578063830953ab146103f05780638b78509e1461040e57806391d148541461042c57610227565b80633ff574b6146103685780634e71d92d146103865780635926651d1461039057806359633a1c146103ac57610227565b8063248a9ca3116101fa578063248a9ca3146102c65780632d06177a146102f65780632f2ff15d1461031257806336568abe1461032e5780633df03b4a1461034a57610227565b8063015677391461022c57806301ffc9a71461025c5780630e5b7c531461028c5780631fe9578e146102aa575b600080fd5b6102466004803603810190610241919061300a565b610672565b60405161025391906136cb565b60405180910390f35b61027660048036038101906102719190613126565b610692565b604051610283919061366c565b60405180910390f35b61029461070c565b6040516102a19190613848565b60405180910390f35b6102c460048036038101906102bf919061305c565b610712565b005b6102e060048036038101906102db91906130c1565b610b7a565b6040516102ed9190613687565b60405180910390f35b610310600480360381019061030b919061300a565b610b99565b005b61032c600480360381019061032791906130ea565b610c8a565b005b610348600480360381019061034391906130ea565b610cb3565b005b610352610d36565b60405161035f91906135ff565b60405180910390f35b610370610d5c565b60405161037d91906135ff565b60405180910390f35b61038e610d82565b005b6103aa60048036038101906103a5919061300a565b611545565b005b6103c660048036038101906103c1919061300a565b6118a4565b005b6103d06119f9565b6040516103dd9190613848565b60405180910390f35b6103ee6119ff565b005b6103f8611b4f565b6040516104059190613848565b60405180910390f35b610416611b55565b6040516104239190613848565b60405180910390f35b610446600480360381019061044191906130ea565b611b5b565b604051610453919061366c565b60405180910390f35b610464611bc5565b6040516104719190613687565b60405180910390f35b610482611bcc565b005b61048c61201f565b005b6104966120e8565b6040516104a39190613848565b60405180910390f35b6104c660048036038101906104c1919061300a565b6120ee565b6040516104d39190613848565b60405180910390f35b6104f660048036038101906104f1919061300a565b612106565b005b610512600480360381019061050d919061300a565b61223c565b60405161051f9190613848565b60405180910390f35b610530612254565b005b61053a612256565b60405161054791906135ff565b60405180910390f35b61056a6004803603810190610565919061300a565b61227c565b005b6105746124b8565b60405161058191906135ff565b60405180910390f35b6105a4600480360381019061059f919061300a565b6124de565b6040516105b19190613848565b60405180910390f35b6105c26124f6565b6040516105cf919061366c565b60405180910390f35b6105f260048036038101906105ed919061300a565b612509565b005b6105fc612745565b6040516106099190613848565b60405180910390f35b61062c600480360381019061062791906130ea565b61274b565b005b61064860048036038101906106439190613178565b612774565b005b6106526128c0565b60405161065f9190613687565b60405180910390f35b6106706128e4565b005b60046020528060005260406000206000915054906101000a900460ff1681565b60007f7965db0b000000000000000000000000000000000000000000000000000000007bffffffffffffffffffffffffffffffffffffffffffffffffffffffff1916827bffffffffffffffffffffffffffffffffffffffffffffffffffffffff191614806107055750610704826129ad565b5b9050919050565b60065481565b600c60009054906101000a900473ffffffffffffffffffffffffffffffffffffffff1673ffffffffffffffffffffffffffffffffffffffff163373ffffffffffffffffffffffffffffffffffffffff16146107a2576040517f08c379a000000000000000000000000000000000000000000000000000000000815260040161079990613768565b60405180910390fd5b6000829050600115158173ffffffffffffffffffffffffffffffffffffffff166391d148547f241ecf16d79d0f8dbfb92cbc07fe17840425976cf0667f022fe9877caa831b08856040518363ffffffff1660e01b81526004016108069291906136a2565b60206040518083038186803b15801561081e57600080fd5b505afa158015610832573d6000803e3d6000fd5b505050506040513d601f19601f820116820180604052508101906108569190613098565b151514610898576040517f08c379a000000000000000000000000000000000000000000000000000000000815260040161088f90613768565b60405180910390fd5b3073ffffffffffffffffffffffffffffffffffffffff168173ffffffffffffffffffffffffffffffffffffffff16633df03b4a6040518163ffffffff1660e01b815260040160206040518083038186803b1580156108f557600080fd5b505afa158015610909573d6000803e3d6000fd5b505050506040513d601f19601f8201168201806040525081019061092d9190613033565b73ffffffffffffffffffffffffffffffffffffffff1614610983576040517f08c379a000000000000000000000000000000000000000000000000000000000815260040161097a90613768565b60405180910390fd5b6000600d60009054906101000a900473ffffffffffffffffffffffffffffffffffffffff1673ffffffffffffffffffffffffffffffffffffffff166370a08231306040518263ffffffff1660e01b81526004016109e091906135ff565b60206040518083038186803b1580156109f857600080fd5b505afa158015610a0c573d6000803e3d6000fd5b505050506040513d601f19601f82011682018060405250810190610a30919061314f565b90506000600d60009054906101000a900473ffffffffffffffffffffffffffffffffffffffff1673ffffffffffffffffffffffffffffffffffffffff1663a9059cbb86846040518363ffffffff1660e01b8152600401610a91929190613643565b602060405180830381600087803b158015610aab57600080fd5b505af1158015610abf573d6000803e3d6000fd5b505050506040513d601f19601f82011682018060405250810190610ae39190613098565b905080610b25576040517f08c379a0000000000000000000000000000000000000000000000000000000008152600401610b1c90613768565b60405180910390fd5b8473ffffffffffffffffffffffffffffffffffffffff167fec3fe17382089950d15d61fa7c2347c1b7eeb9a828e1cc790f522eca57ed18ec83604051610b6b9190613848565b60405180910390a25050505050565b6000806000838152602001908152602001600020600101549050919050565b610bc37f241ecf16d79d0f8dbfb92cbc07fe17840425976cf0667f022fe9877caa831b0833611b5b565b610c02576040517f08c379a0000000000000000000000000000000000000000000000000000000008152600401610bf990613728565b60405180910390fd5b600a6000815480929190610c1590613ac5565b9190505550610c447f241ecf16d79d0f8dbfb92cbc07fe17840425976cf0667f022fe9877caa831b0882610c8a565b8073ffffffffffffffffffffffffffffffffffffffff167f3b4a40cccf2058c593542587329dd385be4f0b588db5471fbd9598e56dd7093a60405160405180910390a250565b610c9382610b7a565b610ca481610c9f612a17565b612a1f565b610cae8383612abc565b505050565b610cbb612a17565b73ffffffffffffffffffffffffffffffffffffffff168173ffffffffffffffffffffffffffffffffffffffff1614610d28576040517f08c379a0000000000000000000000000000000000000000000000000000000008152600401610d1f90613828565b60405180910390fd5b610d328282612b9c565b5050565b600b60009054906101000a900473ffffffffffffffffffffffffffffffffffffffff1681565b600d60009054906101000a900473ffffffffffffffffffffffffffffffffffffffff1681565b60026003811115610dbc577f4e487b7100000000000000000000000000000000000000000000000000000000600052602160045260246000fd5b600460003373ffffffffffffffffffffffffffffffffffffffff1673ffffffffffffffffffffffffffffffffffffffff16815260200190815260200160002060009054906101000a900460ff166003811115610e41577f4e487b7100000000000000000000000000000000000000000000000000000000600052602160045260246000fd5b1415610e82576040517f08c379a0000000000000000000000000000000000000000000000000000000008152600401610e7990613808565b60405180910390fd5b600380811115610ebb577f4e487b7100000000000000000000000000000000000000000000000000000000600052602160045260246000fd5b600460003373ffffffffffffffffffffffffffffffffffffffff1673ffffffffffffffffffffffffffffffffffffffff16815260200190815260200160002060009054906101000a900460ff166003811115610f40577f4e487b7100000000000000000000000000000000000000000000000000000000600052602160045260246000fd5b1415610f81576040517f08c379a0000000000000000000000000000000000000000000000000000000008152600401610f78906137a8565b60405180910390fd5b60016003811115610fbb577f4e487b7100000000000000000000000000000000000000000000000000000000600052602160045260246000fd5b600460003373ffffffffffffffffffffffffffffffffffffffff1673ffffffffffffffffffffffffffffffffffffffff16815260200190815260200160002060009054906101000a900460ff166003811115611040577f4e487b7100000000000000000000000000000000000000000000000000000000600052602160045260246000fd5b14611080576040517f08c379a000000000000000000000000000000000000000000000000000000000815260040161107790613788565b60405180910390fd5b600e60149054906101000a900460ff16156110d0576040517f08c379a00000000000000000000000000000000000000000000000000000000081526004016110c790613808565b60405180910390fd5b6002600381111561110a577f4e487b7100000000000000000000000000000000000000000000000000000000600052602160045260246000fd5b600460003373ffffffffffffffffffffffffffffffffffffffff1673ffffffffffffffffffffffffffffffffffffffff16815260200190815260200160002060009054906101000a900460ff16600381111561118f577f4e487b7100000000000000000000000000000000000000000000000000000000600052602160045260246000fd5b14156111d0576040517f08c379a00000000000000000000000000000000000000000000000000000000081526004016111c790613808565b60405180910390fd5b42600160003373ffffffffffffffffffffffffffffffffffffffff1673ffffffffffffffffffffffffffffffffffffffff168152602001908152602001600020541115611252576040517f08c379a0000000000000000000000000000000000000000000000000000000008152600401611249906137e8565b60405180910390fd5b600854600554600360003373ffffffffffffffffffffffffffffffffffffffff1673ffffffffffffffffffffffffffffffffffffffff168152602001908152602001600020546112a291906138cf565b11156112e3576040517f08c379a00000000000000000000000000000000000000000000000000000000081526004016112da90613748565b60405180910390fd5b600554600360003373ffffffffffffffffffffffffffffffffffffffff1673ffffffffffffffffffffffffffffffffffffffff1681526020019081526020016000205461133091906138cf565b600360003373ffffffffffffffffffffffffffffffffffffffff1673ffffffffffffffffffffffffffffffffffffffff16815260200190815260200160002081905550600754600260003373ffffffffffffffffffffffffffffffffffffffff1673ffffffffffffffffffffffffffffffffffffffff168152602001908152602001600020546113c091906138cf565b600260003373ffffffffffffffffffffffffffffffffffffffff1673ffffffffffffffffffffffffffffffffffffffff16815260200190815260200160002081905550600260003373ffffffffffffffffffffffffffffffffffffffff1673ffffffffffffffffffffffffffffffffffffffff168152602001908152602001600020544261144e91906138cf565b600160003373ffffffffffffffffffffffffffffffffffffffff1673ffffffffffffffffffffffffffffffffffffffff16815260200190815260200160002081905550600d60009054906101000a900473ffffffffffffffffffffffffffffffffffffffff1673ffffffffffffffffffffffffffffffffffffffff1663a9059cbb336005546040518363ffffffff1660e01b81526004016114f0929190613643565b602060405180830381600087803b15801561150a57600080fd5b505af115801561151e573d6000803e3d6000fd5b505050506040513d601f19601f820116820180604052508101906115429190613098565b50565b61156f7f241ecf16d79d0f8dbfb92cbc07fe17840425976cf0667f022fe9877caa831b0833611b5b565b6115ae576040517f08c379a00000000000000000000000000000000000000000000000000000000081526004016115a590613728565b60405180910390fd5b600060038111156115e8577f4e487b7100000000000000000000000000000000000000000000000000000000600052602160045260246000fd5b600460008373ffffffffffffffffffffffffffffffffffffffff1673ffffffffffffffffffffffffffffffffffffffff16815260200190815260200160002060009054906101000a900460ff16600381111561166d577f4e487b7100000000000000000000000000000000000000000000000000000000600052602160045260246000fd5b146116ad576040517f08c379a00000000000000000000000000000000000000000000000000000000081526004016116a490613768565b60405180910390fd5b6001600460008373ffffffffffffffffffffffffffffffffffffffff1673ffffffffffffffffffffffffffffffffffffffff16815260200190815260200160002060006101000a81548160ff02191690836003811115611736577f4e487b7100000000000000000000000000000000000000000000000000000000600052602160045260246000fd5b021790555042600160008373ffffffffffffffffffffffffffffffffffffffff1673ffffffffffffffffffffffffffffffffffffffff1681526020019081526020016000208190555060075460065461178f919061397f565b600260008373ffffffffffffffffffffffffffffffffffffffff1673ffffffffffffffffffffffffffffffffffffffff16815260200190815260200160002081905550600960008154809291906117e590613ac5565b9190505550600d60009054906101000a900473ffffffffffffffffffffffffffffffffffffffff1673ffffffffffffffffffffffffffffffffffffffff1663a9059cbb8266b1a2bc2ec500006040518363ffffffff1660e01b815260040161184e92919061361a565b602060405180830381600087803b15801561186857600080fd5b505af115801561187c573d6000803e3d6000fd5b505050506040513d601f19601f820116820180604052508101906118a09190613098565b5050565b6118ce7f241ecf16d79d0f8dbfb92cbc07fe17840425976cf0667f022fe9877caa831b0833611b5b565b61190d576040517f08c379a000000000000000000000000000000000000000000000000000000000815260040161190490613728565b60405180910390fd5b6009600081548092919061192090613a9b565b91905055506003600460008373ffffffffffffffffffffffffffffffffffffffff1673ffffffffffffffffffffffffffffffffffffffff16815260200190815260200160002060006101000a81548160ff021916908360038111156119ae577f4e487b7100000000000000000000000000000000000000000000000000000000600052602160045260246000fd5b02179055508073ffffffffffffffffffffffffffffffffffffffff167f72977dad29432f655f11c2f0e72ef5124bb9ade7a512fb7a43a9f504df22342860405160405180910390a250565b60075481565b600b60009054906101000a900473ffffffffffffffffffffffffffffffffffffffff1673ffffffffffffffffffffffffffffffffffffffff166391d148547f241ecf16d79d0f8dbfb92cbc07fe17840425976cf0667f022fe9877caa831b08336040518363ffffffff1660e01b8152600401611a7c9291906136a2565b60206040518083038186803b158015611a9457600080fd5b505afa158015611aa8573d6000803e3d6000fd5b505050506040513d601f19601f82011682018060405250810190611acc9190613098565b611b0b576040517f08c379a0000000000000000000000000000000000000000000000000000000008152600401611b0290613768565b60405180910390fd5b611b357f241ecf16d79d0f8dbfb92cbc07fe17840425976cf0667f022fe9877caa831b0833610c8a565b600a6000815480929190611b4890613ac5565b9190505550565b60055481565b60095481565b600080600084815260200190815260200160002060000160008373ffffffffffffffffffffffffffffffffffffffff1673ffffffffffffffffffffffffffffffffffffffff16815260200190815260200160002060009054906101000a900460ff16905092915050565b6000801b81565b600b60009054906101000a900473ffffffffffffffffffffffffffffffffffffffff1673ffffffffffffffffffffffffffffffffffffffff1663b222e0c2336040518263ffffffff1660e01b8152600401611c2791906135ff565b60206040518083038186803b158015611c3f57600080fd5b505afa158015611c53573d6000803e3d6000fd5b505050506040513d601f19601f82011682018060405250810190611c77919061314f565b600160003373ffffffffffffffffffffffffffffffffffffffff1673ffffffffffffffffffffffffffffffffffffffff16815260200190815260200160002081905550600b60009054906101000a900473ffffffffffffffffffffffffffffffffffffffff1673ffffffffffffffffffffffffffffffffffffffff1663a8f3e063336040518263ffffffff1660e01b8152600401611d1591906135ff565b60206040518083038186803b158015611d2d57600080fd5b505afa158015611d41573d6000803e3d6000fd5b505050506040513d601f19601f82011682018060405250810190611d65919061314f565b600260003373ffffffffffffffffffffffffffffffffffffffff1673ffffffffffffffffffffffffffffffffffffffff16815260200190815260200160002081905550600b60009054906101000a900473ffffffffffffffffffffffffffffffffffffffff1673ffffffffffffffffffffffffffffffffffffffff1663c884ef83336040518263ffffffff1660e01b8152600401611e0391906135ff565b60206040518083038186803b158015611e1b57600080fd5b505afa158015611e2f573d6000803e3d6000fd5b505050506040513d601f19601f82011682018060405250810190611e53919061314f565b600360003373ffffffffffffffffffffffffffffffffffffffff1673ffffffffffffffffffffffffffffffffffffffff16815260200190815260200160002081905550600b60009054906101000a900473ffffffffffffffffffffffffffffffffffffffff1673ffffffffffffffffffffffffffffffffffffffff166301567739336040518263ffffffff1660e01b8152600401611ef191906135ff565b60206040518083038186803b158015611f0957600080fd5b505afa158015611f1d573d6000803e3d6000fd5b505050506040513d601f19601f82011682018060405250810190611f41919061314f565b6003811115611f79577f4e487b7100000000000000000000000000000000000000000000000000000000600052602160045260246000fd5b600460003373ffffffffffffffffffffffffffffffffffffffff1673ffffffffffffffffffffffffffffffffffffffff16815260200190815260200160002060006101000a81548160ff02191690836003811115612000577f4e487b7100000000000000000000000000000000000000000000000000000000600052602160045260246000fd5b02179055506009600081548092919061201890613ac5565b9190505550565b6120497f241ecf16d79d0f8dbfb92cbc07fe17840425976cf0667f022fe9877caa831b0833611b5b565b612088576040517f08c379a000000000000000000000000000000000000000000000000000000000815260040161207f90613728565b60405180910390fd5b6000600e60146101000a81548160ff0219169083151502179055503373ffffffffffffffffffffffffffffffffffffffff167f4e50048c25972c85ad169c2302967f1e633e8dc6108d6aca51a90d2a59d4934d60405160405180910390a2565b600a5481565b60026020528060005260406000206000915090505481565b6121307f241ecf16d79d0f8dbfb92cbc07fe17840425976cf0667f022fe9877caa831b0833611b5b565b61216f576040517f08c379a000000000000000000000000000000000000000000000000000000000815260040161216690613728565b60405180910390fd5b6002600a54116121b4576040517f08c379a00000000000000000000000000000000000000000000000000000000081526004016121ab906137c8565b60405180910390fd5b600a60008154809291906121c790613a9b565b91905055506121f67f241ecf16d79d0f8dbfb92cbc07fe17840425976cf0667f022fe9877caa831b088261274b565b8073ffffffffffffffffffffffffffffffffffffffff167fef69f7d97228658c92417be1b16b19058315de71fecb435d07b7d23728b6bd3160405160405180910390a250565b60016020528060005260406000206000915090505481565b565b600c60009054906101000a900473ffffffffffffffffffffffffffffffffffffffff1681565b6122a67f241ecf16d79d0f8dbfb92cbc07fe17840425976cf0667f022fe9877caa831b0833611b5b565b6122e5576040517f08c379a00000000000000000000000000000000000000000000000000000000081526004016122dc90613728565b60405180910390fd5b6001600381111561231f577f4e487b7100000000000000000000000000000000000000000000000000000000600052602160045260246000fd5b600460008373ffffffffffffffffffffffffffffffffffffffff1673ffffffffffffffffffffffffffffffffffffffff16815260200190815260200160002060009054906101000a900460ff1660038111156123a4577f4e487b7100000000000000000000000000000000000000000000000000000000600052602160045260246000fd5b146123e4576040517f08c379a00000000000000000000000000000000000000000000000000000000081526004016123db906137e8565b60405180910390fd5b6002600460008373ffffffffffffffffffffffffffffffffffffffff1673ffffffffffffffffffffffffffffffffffffffff16815260200190815260200160002060006101000a81548160ff0219169083600381111561246d577f4e487b7100000000000000000000000000000000000000000000000000000000600052602160045260246000fd5b02179055508073ffffffffffffffffffffffffffffffffffffffff167f8bbf1861fd29297756bc2ec1496a157359ea7fda5746df5233b4fc3e8124511860405160405180910390a250565b600e60009054906101000a900473ffffffffffffffffffffffffffffffffffffffff1681565b60036020528060005260406000206000915090505481565b600e60149054906101000a900460ff1681565b6125337f241ecf16d79d0f8dbfb92cbc07fe17840425976cf0667f022fe9877caa831b0833611b5b565b612572576040517f08c379a000000000000000000000000000000000000000000000000000000000815260040161256990613728565b60405180910390fd5b600260038111156125ac577f4e487b7100000000000000000000000000000000000000000000000000000000600052602160045260246000fd5b600460008373ffffffffffffffffffffffffffffffffffffffff1673ffffffffffffffffffffffffffffffffffffffff16815260200190815260200160002060009054906101000a900460ff166003811115612631577f4e487b7100000000000000000000000000000000000000000000000000000000600052602160045260246000fd5b14612671576040517f08c379a0000000000000000000000000000000000000000000000000000000008152600401612668906137e8565b60405180910390fd5b6001600460008373ffffffffffffffffffffffffffffffffffffffff1673ffffffffffffffffffffffffffffffffffffffff16815260200190815260200160002060006101000a81548160ff021916908360038111156126fa577f4e487b7100000000000000000000000000000000000000000000000000000000600052602160045260246000fd5b02179055508073ffffffffffffffffffffffffffffffffffffffff167fb84ab42066834057600f08f7bc7564111d6f5c12497b99f98d02346aed682a1460405160405180910390a250565b60085481565b61275482610b7a565b61276581612760612a17565b612a1f565b61276f8383612b9c565b505050565b61279e7f241ecf16d79d0f8dbfb92cbc07fe17840425976cf0667f022fe9877caa831b0833611b5b565b6127dd576040517f08c379a00000000000000000000000000000000000000000000000000000000081526004016127d490613728565b60405180910390fd5b80821161281f576040517f08c379a000000000000000000000000000000000000000000000000000000000815260040161281690613768565b60405180910390fd5b838311612861576040517f08c379a000000000000000000000000000000000000000000000000000000000815260040161285890613768565b60405180910390fd5b836005819055508160068190555080600781905550826008819055507f439aed8a17825b1759469932384a25f3652d3eac82c0f52e402a0b458ae4e838848484846040516128b29493929190613863565b60405180910390a150505050565b7f241ecf16d79d0f8dbfb92cbc07fe17840425976cf0667f022fe9877caa831b0881565b61290e7f241ecf16d79d0f8dbfb92cbc07fe17840425976cf0667f022fe9877caa831b0833611b5b565b61294d576040517f08c379a000000000000000000000000000000000000000000000000000000000815260040161294490613728565b60405180910390fd5b6001600e60146101000a81548160ff0219169083151502179055503373ffffffffffffffffffffffffffffffffffffffff167fe1e6bc10311f2f958d6cd2d0ab7308c32089aa1acb8ab11a2ccb60028e332bd060405160405180910390a2565b60007f01ffc9a7000000000000000000000000000000000000000000000000000000007bffffffffffffffffffffffffffffffffffffffffffffffffffffffff1916827bffffffffffffffffffffffffffffffffffffffffffffffffffffffff1916149050919050565b600033905090565b612a298282611b5b565b612ab857612a4e8173ffffffffffffffffffffffffffffffffffffffff166014612c7d565b612a5c8360001c6020612c7d565b604051602001612a6d9291906135c5565b6040516020818303038152906040526040517f08c379a0000000000000000000000000000000000000000000000000000000008152600401612aaf91906136e6565b60405180910390fd5b5050565b612ac68282611b5b565b612b9857600160008084815260200190815260200160002060000160008373ffffffffffffffffffffffffffffffffffffffff1673ffffffffffffffffffffffffffffffffffffffff16815260200190815260200160002060006101000a81548160ff021916908315150217905550612b3d612a17565b73ffffffffffffffffffffffffffffffffffffffff168173ffffffffffffffffffffffffffffffffffffffff16837f2f8788117e7eff1d82e926ec794901d17c78024a50270940304540a733656f0d60405160405180910390a45b5050565b612ba68282611b5b565b15612c7957600080600084815260200190815260200160002060000160008373ffffffffffffffffffffffffffffffffffffffff1673ffffffffffffffffffffffffffffffffffffffff16815260200190815260200160002060006101000a81548160ff021916908315150217905550612c1e612a17565b73ffffffffffffffffffffffffffffffffffffffff168173ffffffffffffffffffffffffffffffffffffffff16837ff6391f5c32d9c69d2a47ea670b442974b53935d1edc7fd64eb21e047a839171b60405160405180910390a45b5050565b606060006002836002612c909190613925565b612c9a91906138cf565b67ffffffffffffffff811115612cd9577f4e487b7100000000000000000000000000000000000000000000000000000000600052604160045260246000fd5b6040519080825280601f01601f191660200182016040528015612d0b5781602001600182028036833780820191505090505b5090507f300000000000000000000000000000000000000000000000000000000000000081600081518110612d69577f4e487b7100000000000000000000000000000000000000000000000000000000600052603260045260246000fd5b60200101907effffffffffffffffffffffffffffffffffffffffffffffffffffffffffffff1916908160001a9053507f780000000000000000000000000000000000000000000000000000000000000081600181518110612df3577f4e487b7100000000000000000000000000000000000000000000000000000000600052603260045260246000fd5b60200101907effffffffffffffffffffffffffffffffffffffffffffffffffffffffffffff1916908160001a90535060006001846002612e339190613925565b612e3d91906138cf565b90505b6001811115612f29577f3031323334353637383961626364656600000000000000000000000000000000600f861660108110612ea5577f4e487b7100000000000000000000000000000000000000000000000000000000600052603260045260246000fd5b1a60f81b828281518110612ee2577f4e487b7100000000000000000000000000000000000000000000000000000000600052603260045260246000fd5b60200101907effffffffffffffffffffffffffffffffffffffffffffffffffffffffffffff1916908160001a905350600485901c945080612f2290613a9b565b9050612e40565b5060008414612f6d576040517f08c379a0000000000000000000000000000000000000000000000000000000008152600401612f6490613708565b60405180910390fd5b8091505092915050565b600081359050612f8681613b91565b92915050565b600081519050612f9b81613b91565b92915050565b600081519050612fb081613ba8565b92915050565b600081359050612fc581613bbf565b92915050565b600081359050612fda81613bd6565b92915050565b600081359050612fef81613bed565b92915050565b60008151905061300481613bed565b92915050565b60006020828403121561301c57600080fd5b600061302a84828501612f77565b91505092915050565b60006020828403121561304557600080fd5b600061305384828501612f8c565b91505092915050565b6000806040838503121561306f57600080fd5b600061307d85828601612f77565b925050602061308e85828601612f77565b9150509250929050565b6000602082840312156130aa57600080fd5b60006130b884828501612fa1565b91505092915050565b6000602082840312156130d357600080fd5b60006130e184828501612fb6565b91505092915050565b600080604083850312156130fd57600080fd5b600061310b85828601612fb6565b925050602061311c85828601612f77565b9150509250929050565b60006020828403121561313857600080fd5b600061314684828501612fcb565b91505092915050565b60006020828403121561316157600080fd5b600061316f84828501612ff5565b91505092915050565b6000806000806080858703121561318e57600080fd5b600061319c87828801612fe0565b94505060206131ad87828801612fe0565b93505060406131be87828801612fe0565b92505060606131cf87828801612fe0565b91505092959194509250565b6131e4816139b3565b82525050565b6131f3816139c5565b82525050565b613202816139d1565b82525050565b61321181613a44565b82525050565b61322081613a56565b82525050565b6000613231826138a8565b61323b81856138b3565b935061324b818560208601613a68565b61325481613b6c565b840191505092915050565b600061326a826138a8565b61327481856138c4565b9350613284818560208601613a68565b80840191505092915050565b600061329d6020836138b3565b91507f537472696e67733a20686578206c656e67746820696e73756666696369656e746000830152602082019050919050565b60006132dd600b836138b3565b91507f4e4f545f4d414e414745520000000000000000000000000000000000000000006000830152602082019050919050565b600061331d6009836138b3565b91507f4d41585f434c41494d00000000000000000000000000000000000000000000006000830152602082019050919050565b600061335d600b836138b3565b91507f4e4f545f414c4c4f5745440000000000000000000000000000000000000000006000830152602082019050919050565b600061339d600f836138b3565b91507f4e4f545f42454e454649434941525900000000000000000000000000000000006000830152602082019050919050565b60006133dd6007836138b3565b91507f52454d4f564544000000000000000000000000000000000000000000000000006000830152602082019050919050565b600061341d600a836138b3565b91507f4e4f545f454e4f554748000000000000000000000000000000000000000000006000830152602082019050919050565b600061345d6017836138c4565b91507f416363657373436f6e74726f6c3a206163636f756e74200000000000000000006000830152601782019050919050565b600061349d6007836138b3565b91507f4e4f545f594554000000000000000000000000000000000000000000000000006000830152602082019050919050565b60006134dd6006836138b3565b91507f4c4f434b454400000000000000000000000000000000000000000000000000006000830152602082019050919050565b600061351d6011836138c4565b91507f206973206d697373696e6720726f6c65200000000000000000000000000000006000830152601182019050919050565b600061355d602f836138b3565b91507f416363657373436f6e74726f6c3a2063616e206f6e6c792072656e6f756e636560008301527f20726f6c657320666f722073656c6600000000000000000000000000000000006020830152604082019050919050565b6135bf81613a3a565b82525050565b60006135d082613450565b91506135dc828561325f565b91506135e782613510565b91506135f3828461325f565b91508190509392505050565b600060208201905061361460008301846131db565b92915050565b600060408201905061362f60008301856131db565b61363c6020830184613217565b9392505050565b600060408201905061365860008301856131db565b61366560208301846135b6565b9392505050565b600060208201905061368160008301846131ea565b92915050565b600060208201905061369c60008301846131f9565b92915050565b60006040820190506136b760008301856131f9565b6136c460208301846131db565b9392505050565b60006020820190506136e06000830184613208565b92915050565b600060208201905081810360008301526137008184613226565b905092915050565b6000602082019050818103600083015261372181613290565b9050919050565b60006020820190508181036000830152613741816132d0565b9050919050565b6000602082019050818103600083015261376181613310565b9050919050565b6000602082019050818103600083015261378181613350565b9050919050565b600060208201905081810360008301526137a181613390565b9050919050565b600060208201905081810360008301526137c1816133d0565b9050919050565b600060208201905081810360008301526137e181613410565b9050919050565b6000602082019050818103600083015261380181613490565b9050919050565b60006020820190508181036000830152613821816134d0565b9050919050565b6000602082019050818103600083015261384181613550565b9050919050565b600060208201905061385d60008301846135b6565b92915050565b600060808201905061387860008301876135b6565b61388560208301866135b6565b61389260408301856135b6565b61389f60608301846135b6565b95945050505050565b600081519050919050565b600082825260208201905092915050565b600081905092915050565b60006138da82613a3a565b91506138e583613a3a565b9250827fffffffffffffffffffffffffffffffffffffffffffffffffffffffffffffffff0382111561391a57613919613b0e565b5b828201905092915050565b600061393082613a3a565b915061393b83613a3a565b9250817fffffffffffffffffffffffffffffffffffffffffffffffffffffffffffffffff048311821515161561397457613973613b0e565b5b828202905092915050565b600061398a82613a3a565b915061399583613a3a565b9250828210156139a8576139a7613b0e565b5b828203905092915050565b60006139be82613a1a565b9050919050565b60008115159050919050565b6000819050919050565b60007fffffffff0000000000000000000000000000000000000000000000000000000082169050919050565b6000819050613a1582613b7d565b919050565b600073ffffffffffffffffffffffffffffffffffffffff82169050919050565b6000819050919050565b6000613a4f82613a07565b9050919050565b6000613a6182613a3a565b9050919050565b60005b83811015613a86578082015181840152602081019050613a6b565b83811115613a95576000848401525b50505050565b6000613aa682613a3a565b91506000821415613aba57613ab9613b0e565b5b600182039050919050565b6000613ad082613a3a565b91507fffffffffffffffffffffffffffffffffffffffffffffffffffffffffffffffff821415613b0357613b02613b0e565b5b600182019050919050565b7f4e487b7100000000000000000000000000000000000000000000000000000000600052601160045260246000fd5b7f4e487b7100000000000000000000000000000000000000000000000000000000600052602160045260246000fd5b6000601f19601f8301169050919050565b60048110613b8e57613b8d613b3d565b5b50565b613b9a816139b3565b8114613ba557600080fd5b50565b613bb1816139c5565b8114613bbc57600080fd5b50565b613bc8816139d1565b8114613bd357600080fd5b50565b613bdf816139db565b8114613bea57600080fd5b50565b613bf681613a3a565b8114613c0157600080fd5b5056fea2646970667358221220fbe9445951565d6beaec7e8029c357c03f4e9872eb9a2e5924ea7b7d254c5b5d64736f6c63430008000033",
  "immutableReferences": {},
  "source": "// SPDX-License-Identifier: Apache-2.0\npragma solidity ^0.8.0;\n\nimport \"@openzeppelin/contracts/access/AccessControl.sol\";\nimport \"@openzeppelin/contracts/token/ERC20/IERC20.sol\";\nimport \"./interfaces/ICommunity.sol\";\nimport \"../interfaces/ILendingPool.sol\";\nimport \"../interfaces/ILendingPoolCore.sol\";\nimport \"../interfaces/IAddressesProvider.sol\";\nimport \"../interfaces/ILendingPoolAddressesProvider.sol\";\nimport \"../common/ICurrencies.sol\";\n\n/**\n * @notice Welcome to the Community contract. For each community\n * there will be one contract like this being deployed by\n * ImpactMarket contract. This enable us to save tokens on the\n * contract itself, and avoid the problems of having everything\n * in one single contract. Each community has it's own members and\n * and managers.\n */\ncontract Community is AccessControl {\n    bytes32 public constant MANAGER_ROLE = keccak256(\"MANAGER_ROLE\");\n    enum BeneficiaryState {NONE, Valid, Locked, Removed} // starts by 0 (when user is not added yet)\n\n    mapping(address => uint256) public cooldown;\n    mapping(address => uint256) public lastInterval;\n    mapping(address => uint256) public claimed;\n    mapping(address => BeneficiaryState) public beneficiaries;\n\n    uint256 public claimAmount;\n    uint256 public baseInterval;\n    uint256 public incrementInterval;\n    uint256 public maxClaim;\n\n    uint256 public nBeneficiaries;\n    uint256 public nManagers;\n\n    address public previousCommunityContract;\n    address public impactMarketAddress;\n    address public cUSDAddress;\n    address public addressesProvider;\n    bool public locked;\n\n    event ManagerAdded(address indexed _account);\n    event ManagerRemoved(address indexed _account);\n    event BeneficiaryAdded(address indexed _account);\n    event BeneficiaryLocked(address indexed _account);\n    event BeneficiaryUnlocked(address indexed _account);\n    event BeneficiaryRemoved(address indexed _account);\n    event BeneficiaryClaim(address indexed _account, uint256 _amount);\n    event CommunityEdited(\n        uint256 _claimAmount,\n        uint256 _maxClaim,\n        uint256 _baseInterval,\n        uint256 _incrementInterval\n    );\n    event CommunityLocked(address indexed _by);\n    event CommunityUnlocked(address indexed _by);\n    event MigratedFunds(address indexed _to, uint256 _amount);\n\n    /**\n     * @dev Constructor with custom fields, choosen by the community.\n     * @param _firstManager Comminuty's first manager. Will\n     * be able to add others.\n     * @param _claimAmount Base amount to be claim by the benificiary.\n     * @param _maxClaim Limit that a beneficiary can claim at once.\n     * @param _baseInterval Base interval to start claiming.\n     * @param _incrementInterval Increment interval used in each claim.\n     * @param _previousCommunityContract previous smart contract address of community.\n     * @param _cUSDAddress cUSD smart contract address.\n     * @param _addressesProvider cUSD smart contract address.\n     */\n    constructor(\n        address _firstManager,\n        uint256 _claimAmount,\n        uint256 _maxClaim,\n        uint256 _baseInterval,\n        uint256 _incrementInterval,\n        address _previousCommunityContract,\n        address _cUSDAddress,\n        address _addressesProvider,\n        address _impactMarketAddress\n    ) {\n        require(_baseInterval > _incrementInterval, \"NOT_ALLOWED\");\n        require(_maxClaim > _claimAmount, \"NOT_ALLOWED\");\n\n        claimAmount = _claimAmount;\n        baseInterval = _baseInterval;\n        incrementInterval = _incrementInterval;\n        maxClaim = _maxClaim;\n\n        nBeneficiaries = 0;\n        nManagers = 2;\n\n        _setupRole(MANAGER_ROLE, _firstManager);\n        _setRoleAdmin(MANAGER_ROLE, MANAGER_ROLE);\n        emit ManagerAdded(_firstManager);\n\n        previousCommunityContract = _previousCommunityContract;\n        cUSDAddress = _cUSDAddress;\n        addressesProvider = _addressesProvider;\n        impactMarketAddress = _impactMarketAddress;\n        locked = false;\n    }\n\n    modifier onlyValidBeneficiary() {\n        require(beneficiaries[msg.sender] != BeneficiaryState.Locked, \"LOCKED\");\n        require(\n            beneficiaries[msg.sender] != BeneficiaryState.Removed,\n            \"REMOVED\"\n        );\n        require(\n            beneficiaries[msg.sender] == BeneficiaryState.Valid,\n            \"NOT_BENEFICIARY\"\n        );\n        _;\n    }\n\n    modifier onlyManagers() {\n        require(hasRole(MANAGER_ROLE, msg.sender), \"NOT_MANAGER\");\n        _;\n    }\n\n    modifier onlyImpactMarket() {\n        require(msg.sender == impactMarketAddress, \"NOT_ALLOWED\");\n        _;\n    }\n\n    /**\n     * @dev Allow community managers to add other managers.\n     */\n    function addManager(address _account) external onlyManagers {\n        nManagers ++;\n        grantRole(MANAGER_ROLE, _account);\n        emit ManagerAdded(_account);\n    }\n\n    /**\n     * @dev Allow community managers to remove other managers.\n     */\n    function removeManager(address _account) external onlyManagers {\n        require(nManagers > 2, \"NOT_ENOUGH\");\n        nManagers --;\n        revokeRole(MANAGER_ROLE, _account);\n        emit ManagerRemoved(_account);\n    }\n\n    /**\n     * @dev Allow community managers to add beneficiaries.\n     */\n    function addBeneficiary(address _account) external onlyManagers {\n        require(beneficiaries[_account] == BeneficiaryState.NONE, \"NOT_ALLOWED\");\n        beneficiaries[_account] = BeneficiaryState.Valid;\n        // solhint-disable-next-line not-rely-on-time\n        cooldown[_account] = block.timestamp;\n        lastInterval[_account] = uint256(baseInterval - incrementInterval);\n        nBeneficiaries ++;\n        // send 5 cents when adding a new beneficiary\n        // _redeemAndTransfer(_account, 50000000000000000);\n        IERC20(cUSDAddress).transfer(_account, 50000000000000000);\n    }\n\n    /**\n     * @dev Allow community managers to lock beneficiaries.\n     */\n    function lockBeneficiary(address _account) external onlyManagers {\n        require(beneficiaries[_account] == BeneficiaryState.Valid, \"NOT_YET\");\n        beneficiaries[_account] = BeneficiaryState.Locked;\n        emit BeneficiaryLocked(_account);\n    }\n\n    /**\n     * @dev Allow community managers to unlock locked beneficiaries.\n     */\n    function unlockBeneficiary(address _account) external onlyManagers {\n        require(beneficiaries[_account] == BeneficiaryState.Locked, \"NOT_YET\");\n        beneficiaries[_account] = BeneficiaryState.Valid;\n        emit BeneficiaryUnlocked(_account);\n    }\n\n    /**\n     * @dev Allow community managers to remove beneficiaries.\n     */\n    function removeBeneficiary(address _account) external onlyManagers {\n        // require(beneficiaries[_account] == BeneficiaryState.Valid\n        //     && beneficiaries[_account] == BeneficiaryState.Locked, \"NOT_YET\");\n        nBeneficiaries --;\n        beneficiaries[_account] = BeneficiaryState.Removed;\n        emit BeneficiaryRemoved(_account);\n    }\n\n    /**\n     * @dev Allow beneficiaries to claim.\n     */\n    function claim() external onlyValidBeneficiary {\n        require(!locked, \"LOCKED\");\n        require(beneficiaries[msg.sender] != BeneficiaryState.Locked, \"LOCKED\");\n        // solhint-disable-next-line not-rely-on-time\n        require(cooldown[msg.sender] <= block.timestamp, \"NOT_YET\");\n        require((claimed[msg.sender] + claimAmount) <= maxClaim, \"MAX_CLAIM\");\n        claimed[msg.sender] = claimed[msg.sender] + claimAmount;\n        lastInterval[msg.sender] = lastInterval[msg.sender] + incrementInterval;\n        cooldown[msg.sender] = uint256(\n            // solhint-disable-next-line not-rely-on-time\n            block.timestamp + lastInterval[msg.sender]\n        );\n        // _redeemAndTransfer(msg.sender, claimAmount);\n        IERC20(cUSDAddress).transfer(msg.sender, claimAmount);\n    }\n\n    /**\n     * @dev Allow community managers to edit community variables.\n     */\n    function edit(\n        uint256 _claimAmount,\n        uint256 _maxClaim,\n        uint256 _baseInterval,\n        uint256 _incrementInterval\n    ) external onlyManagers {\n        require(_baseInterval > _incrementInterval, \"NOT_ALLOWED\");\n        require(_maxClaim > _claimAmount, \"NOT_ALLOWED\");\n\n        claimAmount = _claimAmount;\n        baseInterval = _baseInterval;\n        incrementInterval = _incrementInterval;\n        maxClaim = _maxClaim;\n\n        emit CommunityEdited(\n            _claimAmount,\n            _maxClaim,\n            _baseInterval,\n            _incrementInterval\n        );\n    }\n\n    /**\n     * @dev Allow community managers to lock community claims.\n     */\n    function lock() external onlyManagers {\n        locked = true;\n        emit CommunityLocked(msg.sender);\n    }\n\n    /**\n     * @dev Allow community managers to unlock community claims.\n     */\n    function unlock() external onlyManagers {\n        locked = false;\n        emit CommunityUnlocked(msg.sender);\n    }\n\n    /**\n     * @dev Method called by a bot that deposits cUSD to earn interest.\n     */\n    function depoistAndEarn() external {\n        // uint256 balance = IERC20(cUSDAddress).balanceOf(address(this));\n        // ILendingPool(lendingPoolAddress).deposit(mcUSDAddress, balance, 0);\n    }\n\n    /**\n     * @dev Migrate funds in current community to new one.\n     */\n    function migrateFunds(address _newCommunity, address _newCommunityManager)\n        external\n        onlyImpactMarket\n    {\n        ICommunity newCommunity = ICommunity(_newCommunity);\n        require(\n            newCommunity.hasRole(MANAGER_ROLE, _newCommunityManager) == true,\n            \"NOT_ALLOWED\"\n        );\n        require(\n            newCommunity.previousCommunityContract() == address(this),\n            \"NOT_ALLOWED\"\n        );\n        uint256 balance = IERC20(cUSDAddress).balanceOf(address(this));\n        bool success = IERC20(cUSDAddress).transfer(_newCommunity, balance);\n        // uint256 mbalance = IERC20(mcUSDAddress).balanceOf(address(this));\n        // bool msuccess = IERC20(mcUSDAddress).transfer(_newCommunity, mbalance);\n        require(success, \"NOT_ALLOWED\");\n        // require(msuccess, \"NOT_ALLOWED\");\n        emit MigratedFunds(_newCommunity, balance);\n    }\n\n    function beneficiaryJoinFromMigrated() external {\n        cooldown[msg.sender] = ICommunity(previousCommunityContract).cooldown(msg.sender);\n        lastInterval[msg.sender] = ICommunity(previousCommunityContract).lastInterval(msg.sender);\n        claimed[msg.sender] = ICommunity(previousCommunityContract).claimed(msg.sender);\n        // no need to check if it's a beneficiary, as the state is copied\n        beneficiaries[msg.sender] = BeneficiaryState(ICommunity(previousCommunityContract).beneficiaries(msg.sender));\n        nBeneficiaries ++;\n    }\n\n    function managerJoinFromMigrated() external {\n        require(ICommunity(previousCommunityContract).hasRole(MANAGER_ROLE, msg.sender), \"NOT_ALLOWED\");\n        grantRole(MANAGER_ROLE, msg.sender);\n        nManagers ++;\n    }\n\n    function _redeemAndTransfer(address _account, uint256 _amount) private returns(bool) {\n        // get pool address provider from addresses provider\n        address lendingPoolAddressProvider = IAddressesProvider(addressesProvider).getAddress(\"POOL_ADDRESSES_PROVIDER\");\n        address currenciesAddress = IAddressesProvider(addressesProvider).getAddress(\"CURRENCIES\");\n        // get lending pool core address\n        address lendingPoolCoreAddress = ILendingPoolAddressesProvider(lendingPoolAddressProvider).getLendingPoolCore();\n        // get lending pool address\n        address lendingPoolAddress = ILendingPoolAddressesProvider(lendingPoolAddressProvider).getLendingPool();\n        for (uint256 c = 0; c < ICurrencies(currenciesAddress).length(); c += 1) {\n            address currency = ICurrencies(currenciesAddress).at(c);\n            // get aToken from reserve\n            address aToken = ILendingPoolCore(lendingPoolCoreAddress).getReserveATokenAddress(currency);\n            // redeem underlying to community contract\n            try ILendingPool(lendingPoolAddress).redeemUnderlying(aToken, payable(address(this)), _amount, 0)\n            {\n                // send _amount to _account\n                bool success = IERC20(currency).transfer(_account, _amount);\n                require(success, \"NOT_ENOUGH\");\n                return true;\n            } catch {\n                //\n            }\n        }\n        return false;\n    }\n}\n",
  "sourcePath": "/home/ssallam/pycharm_projects/smart-contracts/contracts/ubi/Community.sol",
  "compiler": {
    "name": "solc",
    "version": "0.8.0+commit.c7dfd78e.Emscripten.clang"
  },
  "schemaVersion": "3.4.3",
  "updatedAt": "2021-09-13T16:48:25.194Z",
  "devdoc": {
    "kind": "dev",
    "methods": {
      "addBeneficiary(address)": {
        "details": "Allow community managers to add beneficiaries."
      },
      "addManager(address)": {
        "details": "Allow community managers to add other managers."
      },
      "claim()": {
        "details": "Allow beneficiaries to claim."
      },
      "constructor": {
        "details": "Constructor with custom fields, choosen by the community.",
        "params": {
          "_addressesProvider": "cUSD smart contract address.",
          "_baseInterval": "Base interval to start claiming.",
          "_cUSDAddress": "cUSD smart contract address.",
          "_claimAmount": "Base amount to be claim by the benificiary.",
          "_firstManager": "Comminuty's first manager. Will be able to add others.",
          "_incrementInterval": "Increment interval used in each claim.",
          "_maxClaim": "Limit that a beneficiary can claim at once.",
          "_previousCommunityContract": "previous smart contract address of community."
        }
      },
      "depoistAndEarn()": {
        "details": "Method called by a bot that deposits cUSD to earn interest."
      },
      "edit(uint256,uint256,uint256,uint256)": {
        "details": "Allow community managers to edit community variables."
      },
      "getRoleAdmin(bytes32)": {
        "details": "Returns the admin role that controls `role`. See {grantRole} and {revokeRole}. To change a role's admin, use {_setRoleAdmin}."
      },
      "grantRole(bytes32,address)": {
        "details": "Grants `role` to `account`. If `account` had not been already granted `role`, emits a {RoleGranted} event. Requirements: - the caller must have ``role``'s admin role."
      },
      "hasRole(bytes32,address)": {
        "details": "Returns `true` if `account` has been granted `role`."
      },
      "lock()": {
        "details": "Allow community managers to lock community claims."
      },
      "lockBeneficiary(address)": {
        "details": "Allow community managers to lock beneficiaries."
      },
      "migrateFunds(address,address)": {
        "details": "Migrate funds in current community to new one."
      },
      "removeBeneficiary(address)": {
        "details": "Allow community managers to remove beneficiaries."
      },
      "removeManager(address)": {
        "details": "Allow community managers to remove other managers."
      },
      "renounceRole(bytes32,address)": {
        "details": "Revokes `role` from the calling account. Roles are often managed via {grantRole} and {revokeRole}: this function's purpose is to provide a mechanism for accounts to lose their privileges if they are compromised (such as when a trusted device is misplaced). If the calling account had been granted `role`, emits a {RoleRevoked} event. Requirements: - the caller must be `account`."
      },
      "revokeRole(bytes32,address)": {
        "details": "Revokes `role` from `account`. If `account` had been granted `role`, emits a {RoleRevoked} event. Requirements: - the caller must have ``role``'s admin role."
      },
      "supportsInterface(bytes4)": {
        "details": "See {IERC165-supportsInterface}."
      },
      "unlock()": {
        "details": "Allow community managers to unlock community claims."
      },
      "unlockBeneficiary(address)": {
        "details": "Allow community managers to unlock locked beneficiaries."
      }
    },
    "version": 1
  },
  "userdoc": {
    "kind": "user",
    "methods": {},
    "notice": "Welcome to the Community contract. For each community there will be one contract like this being deployed by ImpactMarket contract. This enable us to save tokens on the contract itself, and avoid the problems of having everything in one single contract. Each community has it's own members and and managers.",
    "version": 1
  }
}