{
  "contractName": "ImpactMarket",
  "abi": [
    {
      "inputs": [
        {
          "internalType": "address",
          "name": "_cUSDAddress",
          "type": "address"
        },
        {
          "internalType": "address[]",
          "name": "_signatures",
          "type": "address[]"
        }
      ],
      "stateMutability": "nonpayable",
      "type": "constructor"
    },
    {
      "anonymous": false,
      "inputs": [
        {
          "indexed": true,
          "internalType": "address",
          "name": "_communityAddress",
          "type": "address"
        },
        {
          "indexed": true,
          "internalType": "address",
          "name": "_firstManager",
          "type": "address"
        },
        {
          "indexed": false,
          "internalType": "uint256",
          "name": "_claimAmount",
          "type": "uint256"
        },
        {
          "indexed": false,
          "internalType": "uint256",
          "name": "_maxClaim",
          "type": "uint256"
        },
        {
          "indexed": false,
          "internalType": "uint256",
          "name": "_baseInterval",
          "type": "uint256"
        },
        {
          "indexed": false,
          "internalType": "uint256",
          "name": "_incrementInterval",
          "type": "uint256"
        }
      ],
      "name": "CommunityAdded",
      "type": "event"
    },
    {
      "anonymous": false,
      "inputs": [
        {
          "indexed": true,
          "internalType": "address",
          "name": "_newCommunityFactory",
          "type": "address"
        }
      ],
      "name": "CommunityFactoryChanged",
      "type": "event"
    },
    {
      "anonymous": false,
      "inputs": [
        {
          "indexed": true,
          "internalType": "address",
          "name": "_firstManager",
          "type": "address"
        },
        {
          "indexed": true,
          "internalType": "address",
          "name": "_communityAddress",
          "type": "address"
        },
        {
          "indexed": true,
          "internalType": "address",
          "name": "_previousCommunityAddress",
          "type": "address"
        }
      ],
      "name": "CommunityMigrated",
      "type": "event"
    },
    {
      "anonymous": false,
      "inputs": [
        {
          "indexed": true,
          "internalType": "address",
          "name": "_communityAddress",
          "type": "address"
        }
      ],
      "name": "CommunityRemoved",
      "type": "event"
    },
    {
      "anonymous": false,
      "inputs": [
        {
          "indexed": true,
          "internalType": "bytes32",
          "name": "role",
          "type": "bytes32"
        },
        {
          "indexed": true,
          "internalType": "bytes32",
          "name": "previousAdminRole",
          "type": "bytes32"
        },
        {
          "indexed": true,
          "internalType": "bytes32",
          "name": "newAdminRole",
          "type": "bytes32"
        }
      ],
      "name": "RoleAdminChanged",
      "type": "event"
    },
    {
      "anonymous": false,
      "inputs": [
        {
          "indexed": true,
          "internalType": "bytes32",
          "name": "role",
          "type": "bytes32"
        },
        {
          "indexed": true,
          "internalType": "address",
          "name": "account",
          "type": "address"
        },
        {
          "indexed": true,
          "internalType": "address",
          "name": "sender",
          "type": "address"
        }
      ],
      "name": "RoleGranted",
      "type": "event"
    },
    {
      "anonymous": false,
      "inputs": [
        {
          "indexed": true,
          "internalType": "bytes32",
          "name": "role",
          "type": "bytes32"
        },
        {
          "indexed": true,
          "internalType": "address",
          "name": "account",
          "type": "address"
        },
        {
          "indexed": true,
          "internalType": "address",
          "name": "sender",
          "type": "address"
        }
      ],
      "name": "RoleRevoked",
      "type": "event"
    },
    {
      "inputs": [],
      "name": "ADMIN_ROLE",
      "outputs": [
        {
          "internalType": "bytes32",
          "name": "",
          "type": "bytes32"
        }
      ],
      "stateMutability": "view",
      "type": "function"
    },
    {
      "inputs": [],
      "name": "DEFAULT_ADMIN_ROLE",
      "outputs": [
        {
          "internalType": "bytes32",
          "name": "",
          "type": "bytes32"
        }
      ],
      "stateMutability": "view",
      "type": "function"
    },
    {
      "inputs": [],
      "name": "cUSDAddress",
      "outputs": [
        {
          "internalType": "address",
          "name": "",
          "type": "address"
        }
      ],
      "stateMutability": "view",
      "type": "function"
    },
    {
      "inputs": [
        {
          "internalType": "address",
          "name": "",
          "type": "address"
        }
      ],
      "name": "communities",
      "outputs": [
        {
          "internalType": "bool",
          "name": "",
          "type": "bool"
        }
      ],
      "stateMutability": "view",
      "type": "function"
    },
    {
      "inputs": [],
      "name": "communityFactory",
      "outputs": [
        {
          "internalType": "address",
          "name": "",
          "type": "address"
        }
      ],
      "stateMutability": "view",
      "type": "function"
    },
    {
      "inputs": [
        {
          "internalType": "bytes32",
          "name": "role",
          "type": "bytes32"
        }
      ],
      "name": "getRoleAdmin",
      "outputs": [
        {
          "internalType": "bytes32",
          "name": "",
          "type": "bytes32"
        }
      ],
      "stateMutability": "view",
      "type": "function"
    },
    {
      "inputs": [
        {
          "internalType": "bytes32",
          "name": "role",
          "type": "bytes32"
        },
        {
          "internalType": "address",
          "name": "account",
          "type": "address"
        }
      ],
      "name": "hasRole",
      "outputs": [
        {
          "internalType": "bool",
          "name": "",
          "type": "bool"
        }
      ],
      "stateMutability": "view",
      "type": "function"
    },
    {
      "inputs": [
        {
          "internalType": "bytes32",
          "name": "",
          "type": "bytes32"
        },
        {
          "internalType": "uint256",
          "name": "",
          "type": "uint256"
        }
      ],
      "name": "pendingValidations",
      "outputs": [
        {
          "internalType": "address",
          "name": "",
          "type": "address"
        }
      ],
      "stateMutability": "view",
      "type": "function"
    },
    {
      "inputs": [],
      "name": "signaturesThreshold",
      "outputs": [
        {
          "internalType": "uint256",
          "name": "",
          "type": "uint256"
        }
      ],
      "stateMutability": "view",
      "type": "function"
    },
    {
      "inputs": [
        {
          "internalType": "bytes4",
          "name": "interfaceId",
          "type": "bytes4"
        }
      ],
      "name": "supportsInterface",
      "outputs": [
        {
          "internalType": "bool",
          "name": "",
          "type": "bool"
        }
      ],
      "stateMutability": "view",
      "type": "function"
    },
    {
      "inputs": [
        {
          "internalType": "address",
          "name": "_firstManager",
          "type": "address"
        },
        {
          "internalType": "uint256",
          "name": "_claimAmount",
          "type": "uint256"
        },
        {
          "internalType": "uint256",
          "name": "_maxClaim",
          "type": "uint256"
        },
        {
          "internalType": "uint256",
          "name": "_baseInterval",
          "type": "uint256"
        },
        {
          "internalType": "uint256",
          "name": "_incrementInterval",
          "type": "uint256"
        }
      ],
      "name": "addCommunity",
      "outputs": [],
      "stateMutability": "nonpayable",
      "type": "function"
    },
    {
      "inputs": [
        {
          "internalType": "address",
          "name": "_firstManager",
          "type": "address"
        },
        {
          "internalType": "address",
          "name": "_previousCommunityAddress",
          "type": "address"
        },
        {
          "internalType": "address",
          "name": "_newCommunityFactory",
          "type": "address"
        }
      ],
      "name": "migrateCommunity",
      "outputs": [],
      "stateMutability": "nonpayable",
      "type": "function"
    },
    {
      "inputs": [
        {
          "internalType": "address",
          "name": "_community",
          "type": "address"
        }
      ],
      "name": "removeCommunity",
      "outputs": [],
      "stateMutability": "nonpayable",
      "type": "function"
    },
    {
      "inputs": [
        {
          "internalType": "address",
          "name": "_communityFactory",
          "type": "address"
        }
      ],
      "name": "setCommunityFactory",
      "outputs": [],
      "stateMutability": "nonpayable",
      "type": "function"
    },
    {
      "inputs": [
        {
          "internalType": "address",
          "name": "_communityFactory",
          "type": "address"
        }
      ],
      "name": "initCommunityFactory",
      "outputs": [],
      "stateMutability": "nonpayable",
      "type": "function"
    },
    {
      "inputs": [
        {
          "internalType": "bytes32",
          "name": "",
          "type": "bytes32"
        },
        {
          "internalType": "address",
          "name": "",
          "type": "address"
        }
      ],
      "name": "grantRole",
      "outputs": [],
      "stateMutability": "nonpayable",
      "type": "function"
    },
    {
      "inputs": [
        {
          "internalType": "bytes32",
          "name": "",
          "type": "bytes32"
        },
        {
          "internalType": "address",
          "name": "",
          "type": "address"
        }
      ],
      "name": "revokeRole",
      "outputs": [],
      "stateMutability": "nonpayable",
      "type": "function"
    },
    {
      "inputs": [
        {
          "internalType": "bytes32",
          "name": "",
          "type": "bytes32"
        },
        {
          "internalType": "address",
          "name": "",
          "type": "address"
        }
      ],
      "name": "renounceRole",
      "outputs": [],
      "stateMutability": "nonpayable",
      "type": "function"
    }
  ],
  "bytecode": "0x60806040523480156200001157600080fd5b5060405162002da538038062002da58339818101604052810190620000379190620004ed565b60008151116200007e576040517f08c379a0000000000000000000000000000000000000000000000000000000008152600401620000759062000589565b60405180910390fd5b620000f27fa49807205ce4d355092ef5a8a18f56e8913cf4a201fbe287825b095693c2177582600081518110620000de577f4e487b7100000000000000000000000000000000000000000000000000000000600052603260045260246000fd5b60200260200101516200023f60201b60201c565b620001247fa49807205ce4d355092ef5a8a18f56e8913cf4a201fbe287825b095693c21775806200025560201b60201c565b81600360006101000a81548173ffffffffffffffffffffffffffffffffffffffff021916908373ffffffffffffffffffffffffffffffffffffffff1602179055506002815111156200018c57600181516200018091906200065d565b60058190555062000195565b80516005819055505b6000600190505b81518160ff16101562000236576200021f7fa49807205ce4d355092ef5a8a18f56e8913cf4a201fbe287825b095693c21775838360ff16815181106200020b577f4e487b7100000000000000000000000000000000000000000000000000000000600052603260045260246000fd5b60200260200101516200023f60201b60201c565b6001816200022e91906200061f565b90506200019c565b5050506200075b565b620002518282620002b260201b60201c565b5050565b806200026783620003a360201b60201c565b837fbd79b86ffe0ab8e8776151514217cd7cacd52c909f66475c3af44e129f0b00ff60405160405180910390a480600080848152602001908152602001600020600101819055505050565b620002c48282620003c260201b60201c565b6200039f57600160008084815260200190815260200160002060000160008373ffffffffffffffffffffffffffffffffffffffff1673ffffffffffffffffffffffffffffffffffffffff16815260200190815260200160002060006101000a81548160ff021916908315150217905550620003446200042c60201b60201c565b73ffffffffffffffffffffffffffffffffffffffff168173ffffffffffffffffffffffffffffffffffffffff16837f2f8788117e7eff1d82e926ec794901d17c78024a50270940304540a733656f0d60405160405180910390a45b5050565b6000806000838152602001908152602001600020600101549050919050565b600080600084815260200190815260200160002060000160008373ffffffffffffffffffffffffffffffffffffffff1673ffffffffffffffffffffffffffffffffffffffff16815260200190815260200160002060009054906101000a900460ff16905092915050565b600033905090565b60006200044b6200044584620005df565b620005ab565b905080838252602082019050828560208602820111156200046b57600080fd5b60005b858110156200049f5781620004848882620004a9565b8452602084019350602083019250506001810190506200046e565b5050509392505050565b600081519050620004ba8162000741565b92915050565b600082601f830112620004d257600080fd5b8151620004e484826020860162000434565b91505092915050565b600080604083850312156200050157600080fd5b60006200051185828601620004a9565b925050602083015167ffffffffffffffff8111156200052f57600080fd5b6200053d85828601620004c0565b9150509250929050565b6000620005566009836200060e565b91507f4e4f545f56414c494400000000000000000000000000000000000000000000006000830152602082019050919050565b60006020820190508181036000830152620005a48162000547565b9050919050565b6000604051905081810181811067ffffffffffffffff82111715620005d557620005d462000712565b5b8060405250919050565b600067ffffffffffffffff821115620005fd57620005fc62000712565b5b602082029050602081019050919050565b600082825260208201905092915050565b60006200062c82620006d6565b91506200063983620006d6565b92508260ff03821115620006525762000651620006e3565b5b828201905092915050565b60006200066a82620006cc565b91506200067783620006cc565b9250828210156200068d576200068c620006e3565b5b828203905092915050565b6000620006a582620006ac565b9050919050565b600073ffffffffffffffffffffffffffffffffffffffff82169050919050565b6000819050919050565b600060ff82169050919050565b7f4e487b7100000000000000000000000000000000000000000000000000000000600052601160045260246000fd5b7f4e487b7100000000000000000000000000000000000000000000000000000000600052604160045260246000fd5b6200074c8162000698565b81146200075857600080fd5b50565b61263a806200076b6000396000f3fe608060405234801561001057600080fd5b50600436106101165760003560e01c80637f2813d2116100a2578063926345401161007157806392634540146102f1578063a217fddf1461030d578063cc579ec41461032b578063d547741f14610347578063fac8a6101461036357610116565b80637f2813d2146102455780638226dab0146102755780638774be9b146102a557806391d14854146102c157610116565b806336568abe116100e957806336568abe146101b357806339ce73c7146101cf5780633ff574b6146101ed5780636e6930d21461020b57806375b238fc1461022757610116565b806301ffc9a71461011b5780630b4afb1b1461014b578063248a9ca3146101675780632f2ff15d14610197575b600080fd5b61013560048036038101906101309190611f51565b610381565b60405161014291906122e2565b60405180910390f35b61016560048036038101906101609190611e39565b6103fb565b005b610181600480360381019061017c9190611eb0565b610901565b60405161018e91906122fd565b60405180910390f35b6101b160048036038101906101ac9190611ed9565b610920565b005b6101cd60048036038101906101c89190611ed9565b61095b565b005b6101d7610996565b6040516101e491906123b8565b60405180910390f35b6101f561099c565b604051610202919061223d565b60405180910390f35b61022560048036038101906102209190611d98565b6109c2565b005b61022f610e41565b60405161023c91906122fd565b60405180910390f35b61025f600480360381019061025a9190611d98565b610e65565b60405161026c91906122e2565b60405180910390f35b61028f600480360381019061028a9190611f15565b610e85565b60405161029c919061223d565b60405180910390f35b6102bf60048036038101906102ba9190611dea565b610ed3565b005b6102db60048036038101906102d69190611ed9565b6116e3565b6040516102e891906122e2565b60405180910390f35b61030b60048036038101906103069190611d98565b61174d565b005b610315611af2565b60405161032291906122fd565b60405180910390f35b61034560048036038101906103409190611d98565b611af9565b005b610361600480360381019061035c9190611ed9565b611c11565b005b61036b611c4c565b604051610378919061223d565b60405180910390f35b60007f7965db0b000000000000000000000000000000000000000000000000000000007bffffffffffffffffffffffffffffffffffffffffffffffffffffffff1916827bffffffffffffffffffffffffffffffffffffffffffffffffffffffff191614806103f457506103f382611c72565b5b9050919050565b6104257fa49807205ce4d355092ef5a8a18f56e8913cf4a201fbe287825b095693c21775336116e3565b610464576040517f08c379a000000000000000000000000000000000000000000000000000000000815260040161045b90612338565b60405180910390fd5b7f616464436f6d6d756e6974790000000000000000000000000000000000000000858585858560405160200161049e9594939291906121b6565b604051602081830303815290604052600082826040516020016104c2929190612215565b60405160208183030381529060405280519060200120905060006001600083815260200190815260200160002080548060200260200160405190810160405280929190818152602001828054801561056f57602002820191906000526020600020905b8160009054906101000a900473ffffffffffffffffffffffffffffffffffffffff1673ffffffffffffffffffffffffffffffffffffffff1681526020019060010190808311610525575b5050505050905060005b81518160ff16101561064b573373ffffffffffffffffffffffffffffffffffffffff16828260ff16815181106105d8577f4e487b7100000000000000000000000000000000000000000000000000000000600052603260045260246000fd5b602002602001015173ffffffffffffffffffffffffffffffffffffffff161415610637576040517f08c379a000000000000000000000000000000000000000000000000000000000815260040161062e90612358565b60405180910390fd5b600181610644919061243f565b9050610579565b5060016000838152602001908152602001600020339080600181540180825580915050600190039060005260206000200160009091909190916101000a81548173ffffffffffffffffffffffffffffffffffffffff021916908373ffffffffffffffffffffffffffffffffffffffff1602179055506000600160008481526020019081526020016000208054905090506005548114156108f5576001600084815260200190815260200160002060006107049190611cdc565b6000600460009054906101000a900473ffffffffffffffffffffffffffffffffffffffff1673ffffffffffffffffffffffffffffffffffffffff16638523f3118c8c8c8c8c60006040518763ffffffff1660e01b815260040161076c96959493929190612281565b602060405180830381600087803b15801561078657600080fd5b505af115801561079a573d6000803e3d6000fd5b505050506040513d601f19601f820116820180604052508101906107be9190611dc1565b9050600073ffffffffffffffffffffffffffffffffffffffff168173ffffffffffffffffffffffffffffffffffffffff161415610830576040517f08c379a000000000000000000000000000000000000000000000000000000000815260040161082790612398565b60405180910390fd5b6001600260008373ffffffffffffffffffffffffffffffffffffffff1673ffffffffffffffffffffffffffffffffffffffff16815260200190815260200160002060006101000a81548160ff0219169083151502179055508a73ffffffffffffffffffffffffffffffffffffffff168173ffffffffffffffffffffffffffffffffffffffff167f5864130135b8d46c4808bc474964778f56ef5f98402be58df45a515edd08d3048c8c8c8c6040516108eb94939291906123d3565b60405180910390a3505b50505050505050505050565b6000806000838152602001908152602001600020600101549050919050565b6040517f08c379a000000000000000000000000000000000000000000000000000000000815260040161095290612318565b60405180910390fd5b6040517f08c379a000000000000000000000000000000000000000000000000000000000815260040161098d90612318565b60405180910390fd5b60055481565b600360009054906101000a900473ffffffffffffffffffffffffffffffffffffffff1681565b6109ec7fa49807205ce4d355092ef5a8a18f56e8913cf4a201fbe287825b095693c21775336116e3565b610a2b576040517f08c379a0000000000000000000000000000000000000000000000000000000008152600401610a2290612338565b60405180910390fd5b7f736574436f6d6d756e697479466163746f72790000000000000000000000000081604051602001610a5d919061216f565b60405160208183030381529060405260008282604051602001610a81929190612215565b604051602081830303815290604052805190602001209050600060016000838152602001908152602001600020805480602002602001604051908101604052809291908181526020018280548015610b2e57602002820191906000526020600020905b8160009054906101000a900473ffffffffffffffffffffffffffffffffffffffff1673ffffffffffffffffffffffffffffffffffffffff1681526020019060010190808311610ae4575b5050505050905060005b81518160ff161015610c0a573373ffffffffffffffffffffffffffffffffffffffff16828260ff1681518110610b97577f4e487b7100000000000000000000000000000000000000000000000000000000600052603260045260246000fd5b602002602001015173ffffffffffffffffffffffffffffffffffffffff161415610bf6576040517f08c379a0000000000000000000000000000000000000000000000000000000008152600401610bed90612358565b60405180910390fd5b600181610c03919061243f565b9050610b38565b5060016000838152602001908152602001600020339080600181540180825580915050600190039060005260206000200160009091909190916101000a81548173ffffffffffffffffffffffffffffffffffffffff021916908373ffffffffffffffffffffffffffffffffffffffff160217905550600060016000848152602001908152602001600020805490509050600554811415610e3957600160008481526020019081526020016000206000610cc39190611cdc565b60008690503073ffffffffffffffffffffffffffffffffffffffff168173ffffffffffffffffffffffffffffffffffffffff1663c041fdc56040518163ffffffff1660e01b815260040160206040518083038186803b158015610d2557600080fd5b505afa158015610d39573d6000803e3d6000fd5b505050506040513d601f19601f82011682018060405250810190610d5d9190611dc1565b73ffffffffffffffffffffffffffffffffffffffff1614610db3576040517f08c379a0000000000000000000000000000000000000000000000000000000008152600401610daa90612318565b60405180910390fd5b86600460006101000a81548173ffffffffffffffffffffffffffffffffffffffff021916908373ffffffffffffffffffffffffffffffffffffffff1602179055508673ffffffffffffffffffffffffffffffffffffffff167fd8961aaf9fb4046ee3c9088247c5ada34a3d089c61b6accad9e03b18b7376db460405160405180910390a2505b505050505050565b7fa49807205ce4d355092ef5a8a18f56e8913cf4a201fbe287825b095693c2177581565b60026020528060005260406000206000915054906101000a900460ff1681565b60016020528160005260406000208181548110610ea157600080fd5b906000526020600020016000915091509054906101000a900473ffffffffffffffffffffffffffffffffffffffff1681565b610efd7fa49807205ce4d355092ef5a8a18f56e8913cf4a201fbe287825b095693c21775336116e3565b610f3c576040517f08c379a0000000000000000000000000000000000000000000000000000000008152600401610f3390612338565b60405180910390fd5b7f6d696772617465436f6d6d756e697479000000000000000000000000000000008383604051602001610f7092919061218a565b60405160208183030381529060405260008282604051602001610f94929190612215565b60405160208183030381529060405280519060200120905060006001600083815260200190815260200160002080548060200260200160405190810160405280929190818152602001828054801561104157602002820191906000526020600020905b8160009054906101000a900473ffffffffffffffffffffffffffffffffffffffff1673ffffffffffffffffffffffffffffffffffffffff1681526020019060010190808311610ff7575b5050505050905060005b81518160ff16101561111d573373ffffffffffffffffffffffffffffffffffffffff16828260ff16815181106110aa577f4e487b7100000000000000000000000000000000000000000000000000000000600052603260045260246000fd5b602002602001015173ffffffffffffffffffffffffffffffffffffffff161415611109576040517f08c379a000000000000000000000000000000000000000000000000000000000815260040161110090612358565b60405180910390fd5b600181611116919061243f565b905061104b565b5060016000838152602001908152602001600020339080600181540180825580915050600190039060005260206000200160009091909190916101000a81548173ffffffffffffffffffffffffffffffffffffffff021916908373ffffffffffffffffffffffffffffffffffffffff1602179055506000600160008481526020019081526020016000208054905090506005548114156116d9576001600084815260200190815260200160002060006111d69190611cdc565b6000600260008973ffffffffffffffffffffffffffffffffffffffff1673ffffffffffffffffffffffffffffffffffffffff16815260200190815260200160002060006101000a81548160ff021916908315150217905550600073ffffffffffffffffffffffffffffffffffffffff168773ffffffffffffffffffffffffffffffffffffffff16141561129e576040517f08c379a000000000000000000000000000000000000000000000000000000000815260040161129590612398565b60405180910390fd5b600087905060008773ffffffffffffffffffffffffffffffffffffffff16638523f3118b8473ffffffffffffffffffffffffffffffffffffffff1663830953ab6040518163ffffffff1660e01b815260040160206040518083038186803b15801561130857600080fd5b505afa15801561131c573d6000803e3d6000fd5b505050506040513d601f19601f820116820180604052508101906113409190611f7a565b8573ffffffffffffffffffffffffffffffffffffffff1663d4938db36040518163ffffffff1660e01b815260040160206040518083038186803b15801561138657600080fd5b505afa15801561139a573d6000803e3d6000fd5b505050506040513d601f19601f820116820180604052508101906113be9190611f7a565b8673ffffffffffffffffffffffffffffffffffffffff16630e5b7c536040518163ffffffff1660e01b815260040160206040518083038186803b15801561140457600080fd5b505afa158015611418573d6000803e3d6000fd5b505050506040513d601f19601f8201168201806040525081019061143c9190611f7a565b8773ffffffffffffffffffffffffffffffffffffffff1663597be18b6040518163ffffffff1660e01b815260040160206040518083038186803b15801561148257600080fd5b505afa158015611496573d6000803e3d6000fd5b505050506040513d601f19601f820116820180604052508101906114ba9190611f7a565b8f6040518763ffffffff1660e01b81526004016114dc96959493929190612281565b602060405180830381600087803b1580156114f657600080fd5b505af115801561150a573d6000803e3d6000fd5b505050506040513d601f19601f8201168201806040525081019061152e9190611dc1565b9050600073ffffffffffffffffffffffffffffffffffffffff168173ffffffffffffffffffffffffffffffffffffffff1614156115a0576040517f08c379a000000000000000000000000000000000000000000000000000000000815260040161159790612398565b60405180910390fd5b8173ffffffffffffffffffffffffffffffffffffffff16631fe9578e828c6040518363ffffffff1660e01b81526004016115db929190612258565b600060405180830381600087803b1580156115f557600080fd5b505af1158015611609573d6000803e3d6000fd5b505050506001600260008373ffffffffffffffffffffffffffffffffffffffff1673ffffffffffffffffffffffffffffffffffffffff16815260200190815260200160002060006101000a81548160ff0219169083151502179055508873ffffffffffffffffffffffffffffffffffffffff168173ffffffffffffffffffffffffffffffffffffffff168b73ffffffffffffffffffffffffffffffffffffffff167f98c0ae41ed9dcfef204d20409e01d4051eee4da4276aa4b5fa1cb3cf01403d6860405160405180910390a450505b5050505050505050565b600080600084815260200190815260200160002060000160008373ffffffffffffffffffffffffffffffffffffffff1673ffffffffffffffffffffffffffffffffffffffff16815260200190815260200160002060009054906101000a900460ff16905092915050565b6117777fa49807205ce4d355092ef5a8a18f56e8913cf4a201fbe287825b095693c21775336116e3565b6117b6576040517f08c379a00000000000000000000000000000000000000000000000000000000081526004016117ad90612338565b60405180910390fd5b7f72656d6f7665436f6d6d756e6974790000000000000000000000000000000000816040516020016117e8919061216f565b6040516020818303038152906040526000828260405160200161180c929190612215565b6040516020818303038152906040528051906020012090506000600160008381526020019081526020016000208054806020026020016040519081016040528092919081815260200182805480156118b957602002820191906000526020600020905b8160009054906101000a900473ffffffffffffffffffffffffffffffffffffffff1673ffffffffffffffffffffffffffffffffffffffff168152602001906001019080831161186f575b5050505050905060005b81518160ff161015611995573373ffffffffffffffffffffffffffffffffffffffff16828260ff1681518110611922577f4e487b7100000000000000000000000000000000000000000000000000000000600052603260045260246000fd5b602002602001015173ffffffffffffffffffffffffffffffffffffffff161415611981576040517f08c379a000000000000000000000000000000000000000000000000000000000815260040161197890612358565b60405180910390fd5b60018161198e919061243f565b90506118c3565b5060016000838152602001908152602001600020339080600181540180825580915050600190039060005260206000200160009091909190916101000a81548173ffffffffffffffffffffffffffffffffffffffff021916908373ffffffffffffffffffffffffffffffffffffffff160217905550600060016000848152602001908152602001600020805490509050600554811415611aea57600160008481526020019081526020016000206000611a4e9190611cdc565b6000600260008873ffffffffffffffffffffffffffffffffffffffff1673ffffffffffffffffffffffffffffffffffffffff16815260200190815260200160002060006101000a81548160ff0219169083151502179055508573ffffffffffffffffffffffffffffffffffffffff167fa285b77d62d36ec6881b2cbc019c53874eb061798176f3577f2beab0848d16c660405160405180910390a25b505050505050565b6000801b81565b600073ffffffffffffffffffffffffffffffffffffffff16600460009054906101000a900473ffffffffffffffffffffffffffffffffffffffff1673ffffffffffffffffffffffffffffffffffffffff1614611b8a576040517f08c379a0000000000000000000000000000000000000000000000000000000008152600401611b8190612378565b60405180910390fd5b80600460006101000a81548173ffffffffffffffffffffffffffffffffffffffff021916908373ffffffffffffffffffffffffffffffffffffffff1602179055508073ffffffffffffffffffffffffffffffffffffffff167fd8961aaf9fb4046ee3c9088247c5ada34a3d089c61b6accad9e03b18b7376db460405160405180910390a250565b6040517f08c379a0000000000000000000000000000000000000000000000000000000008152600401611c4390612318565b60405180910390fd5b600460009054906101000a900473ffffffffffffffffffffffffffffffffffffffff1681565b60007f01ffc9a7000000000000000000000000000000000000000000000000000000007bffffffffffffffffffffffffffffffffffffffffffffffffffffffff1916827bffffffffffffffffffffffffffffffffffffffffffffffffffffffff1916149050919050565b5080546000825590600052602060002090810190611cfa9190611cfd565b50565b5b80821115611d16576000816000905550600101611cfe565b5090565b600081359050611d29816125a8565b92915050565b600081519050611d3e816125a8565b92915050565b600081359050611d53816125bf565b92915050565b600081359050611d68816125d6565b92915050565b600081359050611d7d816125ed565b92915050565b600081519050611d92816125ed565b92915050565b600060208284031215611daa57600080fd5b6000611db884828501611d1a565b91505092915050565b600060208284031215611dd357600080fd5b6000611de184828501611d2f565b91505092915050565b600080600060608486031215611dff57600080fd5b6000611e0d86828701611d1a565b9350506020611e1e86828701611d1a565b9250506040611e2f86828701611d1a565b9150509250925092565b600080600080600060a08688031215611e5157600080fd5b6000611e5f88828901611d1a565b9550506020611e7088828901611d6e565b9450506040611e8188828901611d6e565b9350506060611e9288828901611d6e565b9250506080611ea388828901611d6e565b9150509295509295909350565b600060208284031215611ec257600080fd5b6000611ed084828501611d44565b91505092915050565b60008060408385031215611eec57600080fd5b6000611efa85828601611d44565b9250506020611f0b85828601611d1a565b9150509250929050565b60008060408385031215611f2857600080fd5b6000611f3685828601611d44565b9250506020611f4785828601611d6e565b9150509250929050565b600060208284031215611f6357600080fd5b6000611f7184828501611d59565b91505092915050565b600060208284031215611f8c57600080fd5b6000611f9a84828501611d83565b91505092915050565b611fac81612476565b82525050565b611fc3611fbe82612476565b612534565b82525050565b611fd281612488565b82525050565b611fe181612494565b82525050565b611ff8611ff382612494565b612546565b82525050565b600061200982612418565b6120138185612423565b9350612023818560208601612501565b80840191505092915050565b600061203c600b8361242e565b91507f4e4f545f414c4c4f5745440000000000000000000000000000000000000000006000830152602082019050919050565b600061207c60098361242e565b91507f4e4f545f41444d494e00000000000000000000000000000000000000000000006000830152602082019050919050565b60006120bc60068361242e565b91507f5349474e454400000000000000000000000000000000000000000000000000006000830152602082019050919050565b60006120fc60008361242e565b9150600082019050919050565b600061211660098361242e565b91507f4e4f545f56414c494400000000000000000000000000000000000000000000006000830152602082019050919050565b612152816124ea565b82525050565b612169612164826124ea565b612562565b82525050565b600061217b8284611fb2565b60148201915081905092915050565b60006121968285611fb2565b6014820191506121a68284611fb2565b6014820191508190509392505050565b60006121c28288611fb2565b6014820191506121d28287612158565b6020820191506121e28286612158565b6020820191506121f28285612158565b6020820191506122028284612158565b6020820191508190509695505050505050565b60006122218285611fe7565b6020820191506122318284611ffe565b91508190509392505050565b60006020820190506122526000830184611fa3565b92915050565b600060408201905061226d6000830185611fa3565b61227a6020830184611fa3565b9392505050565b600060c0820190506122966000830189611fa3565b6122a36020830188612149565b6122b06040830187612149565b6122bd6060830186612149565b6122ca6080830185612149565b6122d760a0830184611fa3565b979650505050505050565b60006020820190506122f76000830184611fc9565b92915050565b60006020820190506123126000830184611fd8565b92915050565b600060208201905081810360008301526123318161202f565b9050919050565b600060208201905081810360008301526123518161206f565b9050919050565b60006020820190508181036000830152612371816120af565b9050919050565b60006020820190508181036000830152612391816120ef565b9050919050565b600060208201905081810360008301526123b181612109565b9050919050565b60006020820190506123cd6000830184612149565b92915050565b60006080820190506123e86000830187612149565b6123f56020830186612149565b6124026040830185612149565b61240f6060830184612149565b95945050505050565b600081519050919050565b600081905092915050565b600082825260208201905092915050565b600061244a826124f4565b9150612455836124f4565b92508260ff0382111561246b5761246a61256c565b5b828201905092915050565b6000612481826124ca565b9050919050565b60008115159050919050565b6000819050919050565b60007fffffffff0000000000000000000000000000000000000000000000000000000082169050919050565b600073ffffffffffffffffffffffffffffffffffffffff82169050919050565b6000819050919050565b600060ff82169050919050565b60005b8381101561251f578082015181840152602081019050612504565b8381111561252e576000848401525b50505050565b600061253f82612550565b9050919050565b6000819050919050565b600061255b8261259b565b9050919050565b6000819050919050565b7f4e487b7100000000000000000000000000000000000000000000000000000000600052601160045260246000fd5b60008160601b9050919050565b6125b181612476565b81146125bc57600080fd5b50565b6125c881612494565b81146125d357600080fd5b50565b6125df8161249e565b81146125ea57600080fd5b50565b6125f6816124ea565b811461260157600080fd5b5056fea26469706673582212207132f222241fcc53c2799e17aec2eb8273a5b10f0f2afa1ae16f1b3064228b5e64736f6c63430008000033",
  "immutableReferences": {},
  "source": "// SPDX-License-Identifier: Apache-2.0\npragma solidity ^0.8.0;\n\nimport \"@openzeppelin/contracts/access/AccessControl.sol\";\nimport \"./interfaces/ICommunity.sol\";\nimport \"./interfaces/ICommunityFactory.sol\";\nimport \"./Community.sol\";\n\n/**\n * @notice Welcome to ImpactMarket, the main contract. This is an\n * administrative (for now) contract where the admins have control\n * over the list of communities. Being only able to add and\n * remove communities\n */\ncontract ImpactMarket is AccessControl {\n    bytes32 public constant ADMIN_ROLE = keccak256(\"ADMIN_ROLE\");\n\n    mapping(bytes32 => address[]) public pendingValidations;\n    mapping(address => bool) public communities;\n    address public cUSDAddress;\n    address public communityFactory;\n    uint256 public signaturesThreshold;\n\n    event CommunityAdded(\n        address indexed _communityAddress,\n        address indexed _firstManager,\n        uint256 _claimAmount,\n        uint256 _maxClaim,\n        uint256 _baseInterval,\n        uint256 _incrementInterval\n    );\n    event CommunityRemoved(address indexed _communityAddress);\n    event CommunityMigrated(\n        address indexed _firstManager,\n        address indexed _communityAddress,\n        address indexed _previousCommunityAddress\n    );\n    event CommunityFactoryChanged(address indexed _newCommunityFactory);\n\n    /**\n     * @dev It sets the first admin, which later can add others\n     * and add/remove communities.\n     */\n    constructor(address _cUSDAddress, address[] memory _signatures) {\n        require(_signatures.length > 0, \"NOT_VALID\");\n        _setupRole(ADMIN_ROLE, address(_signatures[0]));\n        _setRoleAdmin(ADMIN_ROLE, ADMIN_ROLE);\n        cUSDAddress = _cUSDAddress;\n        if (_signatures.length > 2) {\n            signaturesThreshold = _signatures.length - 1;\n        } else {\n            signaturesThreshold = _signatures.length;\n        }\n        for (uint8 u = 1; u < _signatures.length; u += 1) {\n            _setupRole(ADMIN_ROLE, address(_signatures[u]));\n        }\n    }\n\n    modifier onlyAdmin() {\n        require(hasRole(ADMIN_ROLE, msg.sender), \"NOT_ADMIN\");\n        _;\n    }\n\n    modifier validateRequest(bytes32 _type, bytes memory _packedParams) {\n        bytes32 requestIdentifier = keccak256(\n            abi.encodePacked(_type, _packedParams)\n        );\n        address[] memory validations = pendingValidations[requestIdentifier];\n        for (uint8 u = 0; u < validations.length; u += 1) {\n            require(validations[u] != msg.sender, \"SIGNED\");\n        }\n        // slither-disable-next-line controlled-array-length\n        pendingValidations[requestIdentifier].push(msg.sender);\n        uint256 totalValidations = pendingValidations[requestIdentifier].length;\n        if (totalValidations == signaturesThreshold) {\n            delete pendingValidations[requestIdentifier];\n            _;\n        }\n    }\n\n    /**\n     * @dev Add a new community. Can be used only by an admin.\n     * For further information regarding each parameter, see\n     * *Community* smart contract constructor.\n     */\n    function addCommunity(\n        address _firstManager,\n        uint256 _claimAmount,\n        uint256 _maxClaim,\n        uint256 _baseInterval,\n        uint256 _incrementInterval\n    )\n        external\n        onlyAdmin\n        validateRequest(\n            \"addCommunity\",\n            abi.encodePacked(\n                _firstManager,\n                _claimAmount,\n                _maxClaim,\n                _baseInterval,\n                _incrementInterval\n            )\n        )\n    {\n        address community = ICommunityFactory(communityFactory).deployCommunity(\n            _firstManager,\n            _claimAmount,\n            _maxClaim,\n            _baseInterval,\n            _incrementInterval,\n            address(0)\n        );\n        require(community != address(0), \"NOT_VALID\");\n        communities[community] = true;\n        emit CommunityAdded(\n            community,\n            _firstManager,\n            _claimAmount,\n            _maxClaim,\n            _baseInterval,\n            _incrementInterval\n        );\n    }\n\n    /**\n     * @dev Migrate community by deploying a new contract. Can be used only by an admin.\n     * For further information regarding each parameter, see\n     * *Community* smart contract constructor.\n     */\n    function migrateCommunity(\n        address _firstManager,\n        address _previousCommunityAddress,\n        address _newCommunityFactory\n    )\n        external\n        onlyAdmin\n        validateRequest(\n            \"migrateCommunity\",\n            abi.encodePacked(_firstManager, _previousCommunityAddress)\n        )\n    {\n        communities[_previousCommunityAddress] = false;\n        require(address(_previousCommunityAddress) != address(0), \"NOT_VALID\");\n        ICommunity previousCommunity = ICommunity(_previousCommunityAddress);\n        address community = ICommunityFactory(_newCommunityFactory).deployCommunity(\n            _firstManager,\n            previousCommunity.claimAmount(),\n            previousCommunity.maxClaim(),\n            previousCommunity.baseInterval(),\n            previousCommunity.incrementInterval(),\n            _previousCommunityAddress\n        );\n        require(community != address(0), \"NOT_VALID\");\n        previousCommunity.migrateFunds(community, _firstManager);\n        communities[community] = true;\n        emit CommunityMigrated(\n            _firstManager,\n            community,\n            _previousCommunityAddress\n        );\n    }\n\n    /**\n     * @dev Remove an existing community. Can be used only by an admin.\n     */\n    function removeCommunity(address _community)\n        external\n        onlyAdmin\n        validateRequest(\"removeCommunity\", abi.encodePacked(_community))\n    {\n        communities[_community] = false;\n        emit CommunityRemoved(_community);\n    }\n\n    /**\n     * @dev Set the community factory address, if the contract is valid.\n     */\n    function setCommunityFactory(address _communityFactory)\n        external\n        onlyAdmin\n        validateRequest(\n            \"setCommunityFactory\",\n            abi.encodePacked(_communityFactory)\n        )\n    {\n        ICommunityFactory factory = ICommunityFactory(_communityFactory);\n        require(factory.impactMarketAddress() == address(this), \"NOT_ALLOWED\");\n        communityFactory = _communityFactory;\n        emit CommunityFactoryChanged(_communityFactory);\n    }\n\n    /**\n     * @dev Init community factory, used only at deploy time.\n     */\n    function initCommunityFactory(address _communityFactory)\n        external\n    {\n        require(communityFactory == address(0), \"\");\n        communityFactory = _communityFactory;\n        emit CommunityFactoryChanged(_communityFactory);\n    }\n\n    /**\n     * @dev Not allowed.\n     */\n    function grantRole(bytes32, address) public override {\n        revert(\"NOT_ALLOWED\");\n    }\n\n    /**\n     * @dev Not allowed.\n     */\n    function revokeRole(bytes32, address) public override {\n        revert(\"NOT_ALLOWED\");\n    }\n\n    /**\n     * @dev Not allowed.\n     */\n    function renounceRole(bytes32, address) public override {\n        revert(\"NOT_ALLOWED\");\n    }\n}\n",
  "sourcePath": "/home/ssallam/pycharm_projects/smart-contracts/contracts/ubi/ImpactMarket.sol",
  "compiler": {
    "name": "solc",
    "version": "0.8.0+commit.c7dfd78e.Emscripten.clang"
  },
  "schemaVersion": "3.4.3",
  "updatedAt": "2021-09-13T16:48:25.232Z",
  "devdoc": {
    "kind": "dev",
    "methods": {
      "addCommunity(address,uint256,uint256,uint256,uint256)": {
        "details": "Add a new community. Can be used only by an admin. For further information regarding each parameter, see *Community* smart contract constructor."
      },
      "constructor": {
        "details": "It sets the first admin, which later can add others and add/remove communities."
      },
      "getRoleAdmin(bytes32)": {
        "details": "Returns the admin role that controls `role`. See {grantRole} and {revokeRole}. To change a role's admin, use {_setRoleAdmin}."
      },
      "grantRole(bytes32,address)": {
        "details": "Not allowed."
      },
      "hasRole(bytes32,address)": {
        "details": "Returns `true` if `account` has been granted `role`."
      },
      "initCommunityFactory(address)": {
        "details": "Init community factory, used only at deploy time."
      },
      "migrateCommunity(address,address,address)": {
        "details": "Migrate community by deploying a new contract. Can be used only by an admin. For further information regarding each parameter, see *Community* smart contract constructor."
      },
      "removeCommunity(address)": {
        "details": "Remove an existing community. Can be used only by an admin."
      },
      "renounceRole(bytes32,address)": {
        "details": "Not allowed."
      },
      "revokeRole(bytes32,address)": {
        "details": "Not allowed."
      },
      "setCommunityFactory(address)": {
        "details": "Set the community factory address, if the contract is valid."
      },
      "supportsInterface(bytes4)": {
        "details": "See {IERC165-supportsInterface}."
      }
    },
    "version": 1
  },
  "userdoc": {
    "kind": "user",
    "methods": {},
    "notice": "Welcome to ImpactMarket, the main contract. This is an administrative (for now) contract where the admins have control over the list of communities. Being only able to add and remove communities",
    "version": 1
  }
}