{
  "address": "0x8cb73d779DBfEb3f6D05655b1C8855fF47edB110",
  "abi": [
    {
      "anonymous": false,
      "inputs": [
        {
          "indexed": false,
          "internalType": "uint256",
          "name": "ambassadorIndex",
          "type": "uint256"
        },
        {
          "indexed": true,
          "internalType": "address",
          "name": "entityAccount",
          "type": "address"
        },
        {
          "indexed": true,
          "internalType": "address",
          "name": "oldAccount",
          "type": "address"
        },
        {
          "indexed": true,
          "internalType": "address",
          "name": "newAccount",
          "type": "address"
        }
      ],
      "name": "AmbassadorAccountReplaced",
      "type": "event"
    },
    {
      "anonymous": false,
      "inputs": [
        {
          "indexed": true,
          "internalType": "address",
          "name": "ambassador",
          "type": "address"
        },
        {
          "indexed": true,
          "internalType": "address",
          "name": "entity",
          "type": "address"
        }
      ],
      "name": "AmbassadorAdded",
      "type": "event"
    },
    {
      "anonymous": false,
      "inputs": [
        {
          "indexed": true,
          "internalType": "address",
          "name": "ambassador",
          "type": "address"
        },
        {
          "indexed": true,
          "internalType": "address",
          "name": "entity",
          "type": "address"
        }
      ],
      "name": "AmbassadorRemoved",
      "type": "event"
    },
    {
      "anonymous": false,
      "inputs": [
        {
          "indexed": false,
          "internalType": "uint256",
          "name": "ambassadorIndex",
          "type": "uint256"
        },
        {
          "indexed": true,
          "internalType": "address",
          "name": "entityAccount",
          "type": "address"
        },
        {
          "indexed": true,
          "internalType": "address",
          "name": "oldAmbassador",
          "type": "address"
        },
        {
          "indexed": true,
          "internalType": "address",
          "name": "newAmbassador",
          "type": "address"
        }
      ],
      "name": "AmbassadorReplaced",
      "type": "event"
    },
    {
      "anonymous": false,
      "inputs": [
        {
          "indexed": true,
          "internalType": "address",
          "name": "fromAmbassador",
          "type": "address"
        },
        {
          "indexed": true,
          "internalType": "address",
          "name": "toAmbassador",
          "type": "address"
        },
        {
          "indexed": true,
          "internalType": "address",
          "name": "community",
          "type": "address"
        }
      ],
      "name": "AmbassadorToCommunityUpdated",
      "type": "event"
    },
    {
      "anonymous": false,
      "inputs": [
        {
          "indexed": true,
          "internalType": "address",
          "name": "ambassador",
          "type": "address"
        },
        {
          "indexed": true,
          "internalType": "address",
          "name": "oldEntity",
          "type": "address"
        },
        {
          "indexed": true,
          "internalType": "address",
          "name": "newEntity",
          "type": "address"
        }
      ],
      "name": "AmbassadorTransfered",
      "type": "event"
    },
    {
      "anonymous": false,
      "inputs": [
        {
          "indexed": true,
          "internalType": "address",
          "name": "ambassador",
          "type": "address"
        },
        {
          "indexed": true,
          "internalType": "address",
          "name": "community",
          "type": "address"
        }
      ],
      "name": "CommunityRemoved",
      "type": "event"
    },
    {
      "anonymous": false,
      "inputs": [
        {
          "indexed": false,
          "internalType": "uint256",
          "name": "entityIndex",
          "type": "uint256"
        },
        {
          "indexed": true,
          "internalType": "address",
          "name": "oldAccount",
          "type": "address"
        },
        {
          "indexed": true,
          "internalType": "address",
          "name": "newAccount",
          "type": "address"
        }
      ],
      "name": "EntityAccountReplaced",
      "type": "event"
    },
    {
      "anonymous": false,
      "inputs": [
        {
          "indexed": true,
          "internalType": "address",
          "name": "entity",
          "type": "address"
        }
      ],
      "name": "EntityAdded",
      "type": "event"
    },
    {
      "anonymous": false,
      "inputs": [
        {
          "indexed": true,
          "internalType": "address",
          "name": "entity",
          "type": "address"
        }
      ],
      "name": "EntityRemoved",
      "type": "event"
    },
    {
      "anonymous": false,
      "inputs": [
        {
          "indexed": true,
          "internalType": "address",
          "name": "previousOwner",
          "type": "address"
        },
        {
          "indexed": true,
          "internalType": "address",
          "name": "newOwner",
          "type": "address"
        }
      ],
      "name": "OwnershipTransferred",
      "type": "event"
    },
    {
      "inputs": [
        {
          "internalType": "address",
          "name": "_ambassador",
          "type": "address"
        }
      ],
      "name": "addAmbassador",
      "outputs": [],
      "stateMutability": "nonpayable",
      "type": "function"
    },
    {
      "inputs": [
        {
          "internalType": "address",
          "name": "_entity",
          "type": "address"
        }
      ],
      "name": "addEntity",
      "outputs": [],
      "stateMutability": "nonpayable",
      "type": "function"
    },
    {
      "inputs": [
        {
          "internalType": "address",
          "name": "",
          "type": "address"
        }
      ],
      "name": "ambassadorByAddress",
      "outputs": [
        {
          "internalType": "uint256",
          "name": "",
          "type": "uint256"
        }
      ],
      "stateMutability": "view",
      "type": "function"
    },
    {
      "inputs": [
        {
          "internalType": "uint256",
          "name": "",
          "type": "uint256"
        }
      ],
      "name": "ambassadorByIndex",
      "outputs": [
        {
          "internalType": "address",
          "name": "",
          "type": "address"
        }
      ],
      "stateMutability": "view",
      "type": "function"
    },
    {
      "inputs": [],
      "name": "ambassadorIndex",
      "outputs": [
        {
          "internalType": "uint256",
          "name": "",
          "type": "uint256"
        }
      ],
      "stateMutability": "view",
      "type": "function"
    },
    {
      "inputs": [
        {
          "internalType": "uint256",
          "name": "",
          "type": "uint256"
        }
      ],
      "name": "ambassadorToEntity",
      "outputs": [
        {
          "internalType": "uint256",
          "name": "",
          "type": "uint256"
        }
      ],
      "stateMutability": "view",
      "type": "function"
    },
    {
      "inputs": [],
      "name": "communityAdmin",
      "outputs": [
        {
          "internalType": "contract ICommunityAdmin",
          "name": "",
          "type": "address"
        }
      ],
      "stateMutability": "view",
      "type": "function"
    },
    {
      "inputs": [
        {
          "internalType": "address",
          "name": "",
          "type": "address"
        }
      ],
      "name": "communityToAmbassador",
      "outputs": [
        {
          "internalType": "uint256",
          "name": "",
          "type": "uint256"
        }
      ],
      "stateMutability": "view",
      "type": "function"
    },
    {
      "inputs": [
        {
          "internalType": "uint256",
          "name": "",
          "type": "uint256"
        }
      ],
      "name": "entityAmbassadors",
      "outputs": [
        {
          "internalType": "uint256",
          "name": "",
          "type": "uint256"
        }
      ],
      "stateMutability": "view",
      "type": "function"
    },
    {
      "inputs": [
        {
          "internalType": "address",
          "name": "",
          "type": "address"
        }
      ],
      "name": "entityByAddress",
      "outputs": [
        {
          "internalType": "uint256",
          "name": "",
          "type": "uint256"
        }
      ],
      "stateMutability": "view",
      "type": "function"
    },
    {
      "inputs": [
        {
          "internalType": "uint256",
          "name": "",
          "type": "uint256"
        }
      ],
      "name": "entityByIndex",
      "outputs": [
        {
          "internalType": "address",
          "name": "",
          "type": "address"
        }
      ],
      "stateMutability": "view",
      "type": "function"
    },
    {
      "inputs": [],
      "name": "entityIndex",
      "outputs": [
        {
          "internalType": "uint256",
          "name": "",
          "type": "uint256"
        }
      ],
      "stateMutability": "view",
      "type": "function"
    },
    {
      "inputs": [],
      "name": "getVersion",
      "outputs": [
        {
          "internalType": "uint256",
          "name": "",
          "type": "uint256"
        }
      ],
      "stateMutability": "pure",
      "type": "function"
    },
    {
      "inputs": [
        {
          "internalType": "contract ICommunityAdmin",
          "name": "_communityAdmin",
          "type": "address"
        }
      ],
      "name": "initialize",
      "outputs": [],
      "stateMutability": "nonpayable",
      "type": "function"
    },
    {
      "inputs": [
        {
          "internalType": "address",
          "name": "_ambassador",
          "type": "address"
        }
      ],
      "name": "isAmbassador",
      "outputs": [
        {
          "internalType": "bool",
          "name": "",
          "type": "bool"
        }
      ],
      "stateMutability": "view",
      "type": "function"
    },
    {
      "inputs": [
        {
          "internalType": "address",
          "name": "_ambassador",
          "type": "address"
        },
        {
          "internalType": "address",
          "name": "_entityAddress",
          "type": "address"
        }
      ],
      "name": "isAmbassadorAt",
      "outputs": [
        {
          "internalType": "bool",
          "name": "",
          "type": "bool"
        }
      ],
      "stateMutability": "view",
      "type": "function"
    },
    {
      "inputs": [
        {
          "internalType": "address",
          "name": "_ambassador",
          "type": "address"
        },
        {
          "internalType": "address",
          "name": "_community",
          "type": "address"
        }
      ],
      "name": "isAmbassadorOf",
      "outputs": [
        {
          "internalType": "bool",
          "name": "",
          "type": "bool"
        }
      ],
      "stateMutability": "view",
      "type": "function"
    },
    {
      "inputs": [
        {
          "internalType": "address",
          "name": "_entity",
          "type": "address"
        },
        {
          "internalType": "address",
          "name": "_community",
          "type": "address"
        }
      ],
      "name": "isEntityOf",
      "outputs": [
        {
          "internalType": "bool",
          "name": "",
          "type": "bool"
        }
      ],
      "stateMutability": "view",
      "type": "function"
    },
    {
      "inputs": [],
      "name": "owner",
      "outputs": [
        {
          "internalType": "address",
          "name": "",
          "type": "address"
        }
      ],
      "stateMutability": "view",
      "type": "function"
    },
    {
      "inputs": [
        {
          "internalType": "address",
          "name": "_ambassador",
          "type": "address"
        }
      ],
      "name": "removeAmbassador",
      "outputs": [],
      "stateMutability": "nonpayable",
      "type": "function"
    },
    {
      "inputs": [
        {
          "internalType": "address",
          "name": "_community",
          "type": "address"
        }
      ],
      "name": "removeCommunity",
      "outputs": [],
      "stateMutability": "nonpayable",
      "type": "function"
    },
    {
      "inputs": [
        {
          "internalType": "address",
          "name": "_entity",
          "type": "address"
        }
      ],
      "name": "removeEntity",
      "outputs": [],
      "stateMutability": "nonpayable",
      "type": "function"
    },
    {
      "inputs": [],
      "name": "renounceOwnership",
      "outputs": [],
      "stateMutability": "nonpayable",
      "type": "function"
    },
    {
      "inputs": [
        {
          "internalType": "address",
          "name": "_oldAmbassador",
          "type": "address"
        },
        {
          "internalType": "address",
          "name": "_newAmbassador",
          "type": "address"
        }
      ],
      "name": "replaceAmbassador",
      "outputs": [],
      "stateMutability": "nonpayable",
      "type": "function"
    },
    {
      "inputs": [
        {
          "internalType": "address",
          "name": "_ambassador",
          "type": "address"
        },
        {
          "internalType": "address",
          "name": "_newAmbassador",
          "type": "address"
        }
      ],
      "name": "replaceAmbassadorAccount",
      "outputs": [],
      "stateMutability": "nonpayable",
      "type": "function"
    },
    {
      "inputs": [
        {
          "internalType": "address",
          "name": "_entity",
          "type": "address"
        },
        {
          "internalType": "address",
          "name": "_newEntity",
          "type": "address"
        }
      ],
      "name": "replaceEntityAccount",
      "outputs": [],
      "stateMutability": "nonpayable",
      "type": "function"
    },
    {
      "inputs": [
        {
          "internalType": "address",
          "name": "_ambassador",
          "type": "address"
        },
        {
          "internalType": "address",
          "name": "_community",
          "type": "address"
        }
      ],
      "name": "setCommunityToAmbassador",
      "outputs": [],
      "stateMutability": "nonpayable",
      "type": "function"
    },
    {
      "inputs": [
        {
          "internalType": "address",
          "name": "_ambassador",
          "type": "address"
        },
        {
          "internalType": "address",
          "name": "_toEntity",
          "type": "address"
        },
        {
          "internalType": "bool",
          "name": "_keepCommunities",
          "type": "bool"
        }
      ],
      "name": "transferAmbassador",
      "outputs": [],
      "stateMutability": "nonpayable",
      "type": "function"
    },
    {
      "inputs": [
        {
          "internalType": "address",
          "name": "_to",
          "type": "address"
        },
        {
          "internalType": "address",
          "name": "_community",
          "type": "address"
        }
      ],
      "name": "transferCommunityToAmbassador",
      "outputs": [],
      "stateMutability": "nonpayable",
      "type": "function"
    },
    {
      "inputs": [
        {
          "internalType": "address",
          "name": "newOwner",
          "type": "address"
        }
      ],
      "name": "transferOwnership",
      "outputs": [],
      "stateMutability": "nonpayable",
      "type": "function"
    },
    {
      "inputs": [
        {
          "internalType": "contract ICommunityAdmin",
          "name": "_newCommunityAdmin",
          "type": "address"
        }
      ],
      "name": "updateCommunityAdmin",
      "outputs": [],
      "stateMutability": "nonpayable",
      "type": "function"
    }
  ],
  "transactionHash": "0xfcddd3f2c0facfd62eb5eefcf83518aeff5867839d1b8cb23c5c6b69c4a4ab10",
  "args": [],
  "numDeployments": 1,
  "solcInputHash": "9eb897b604538ee3c093b3f66f713a0d",
  "bytecode": "0x608060405234801561001057600080fd5b50611b93806100206000396000f3fe608060405234801561001057600080fd5b50600436106101e55760003560e01c80639ac0c6ac1161010f578063cb53f503116100a2578063df3441a811610071578063df3441a814610493578063e8729646146104b3578063f1703d24146104bc578063f2fde38b146104cf57600080fd5b8063cb53f50314610415578063d33d4ec61461045a578063dd1829961461046d578063de96587e1461048057600080fd5b8063c273f1f1116100de578063c273f1f1146103a2578063c4d66de8146103c2578063c80acb3c146103d5578063cacc3088146103f557600080fd5b80639ac0c6ac146103405780639f9abc1414610353578063b08d66b814610366578063bb26e9b61461037957600080fd5b806330a14f9511610187578063715018a611610156578063715018a6146103015780638da5cb5b14610309578063926345401461031a57806397710ab11461032d57600080fd5b806330a14f95146102a55780633ddfee0c146102b857806342e1d997146102cb5780635fac917a146102ee57600080fd5b80632426de98116101c35780632426de981461021e578063295c25d51461023e5780632af82058146102515780632de00ddc1461029257600080fd5b80630d8e6e2c146101ea578063169e7d56146102005780631df7b3cd14610215575b600080fd5b60015b6040519081526020015b60405180910390f35b61021361020e3660046118db565b6104e2565b005b6101ed60975481565b6101ed61022c3660046118bf565b609d6020526000908152604090205481565b61021361024c3660046118bf565b610603565b61027a61025f366004611961565b60a0602052600090815260409020546001600160a01b031681565b6040516001600160a01b0390911681526020016101f7565b6102136102a03660046118db565b610741565b6102136102b3366004611913565b610838565b6102136102c63660046118db565b610a0b565b6102de6102d93660046118db565b610b4d565b60405190151581526020016101f7565b60995461027a906001600160a01b031681565b610213610b89565b6033546001600160a01b031661027a565b6102136103283660046118bf565b610bbf565b61021361033b3660046118db565b610cbd565b6102de61034e3660046118bf565b610d7b565b6102136103613660046118db565b610d98565b6102de6103743660046118db565b610f9c565b61027a610387366004611961565b609b602052600090815260409020546001600160a01b031681565b6101ed6103b03660046118bf565b609f6020526000908152604090205481565b6102136103d03660046118bf565b610fc9565b6101ed6103e3366004611961565b609e6020526000908152604090205481565b6101ed610403366004611961565b60a16020526000908152604090205481565b6102de6104233660046118db565b6001600160a01b039081166000908152609d60209081526040808320548352609e825280832054949093168252609f905220541490565b6102136104683660046118bf565b6110b8565b61021361047b3660046118bf565b611104565b61021361048e3660046118bf565b61124b565b6101ed6104a13660046118bf565b609a6020526000908152604090205481565b6101ed60985481565b6102136104ca3660046118bf565b6113bd565b6102136104dd3660046118bf565b6114d3565b336001600160a01b038316148061050357506033546001600160a01b031633145b61054f5760405162461bcd60e51b8152602060048201526018602482015277105b58985cdcd8591bdc8e8e881393d517d0531313d5d15160421b60448201526064015b60405180910390fd5b61055882610d7b565b6105745760405162461bcd60e51b8152600401610546906119ef565b61057d81610d7b565b1561059a5760405162461bcd60e51b815260040161054690611a67565b6000806000806105aa868661156e565b604051848152939750919550935091506001600160a01b0380831691818516918616907fb0433a1c3702cf0bd7986f8f52d4b155e390f3f600a3677f19d9953305466d7b906020015b60405180910390a4505050505050565b336000908152609f602052604090205461065a5760405162461bcd60e51b8152602060048201526018602482015277416d6261737361646f723a3a204f4e4c595f454e5449545960401b6044820152606401610546565b61066381610d7b565b156106805760405162461bcd60e51b815260040161054690611a67565b336000908152609f6020908152604080832054609780546001600160a01b038716808752609a8652848720829055908652609b855283862080546001600160a01b0319169091179055548452609e835281842081905580845260a19092528220805491926106ed83611b17565b90915550506097805490600061070283611b17565b909155505060405133906001600160a01b038416907f7974b0235ffa33752026d77f968bed3382bcd8ce49170bbb32d3fb7494d2275e90600090a35050565b6099546001600160a01b0316331461076b5760405162461bcd60e51b815260040161054690611979565b61077482610d7b565b6107905760405162461bcd60e51b8152600401610546906119ef565b61079a8282610f9c565b156107b75760405162461bcd60e51b815260040161054690611a67565b6001600160a01b038083166000908152609a60209081526040808320549385168352609d8252808320849055838352609c90915290206107f790836115db565b506040516001600160a01b0380841691908516906000907f8e197c1b94ad42b061a1947f91c7bff6387f001a7a5a0ddee8610893706de8af908290a4505050565b336000908152609f602052604090205415158061086e5750336108636033546001600160a01b031690565b6001600160a01b0316145b61088a5760405162461bcd60e51b815260040161054690611a26565b6001600160a01b0383166000908152609a60205260409020546108ad8433610b4d565b806108c257506033546001600160a01b031633145b6108de5760405162461bcd60e51b8152600401610546906119ef565b6000818152609c602052604090206108f5906115f7565b158061090357506001821515145b61094f5760405162461bcd60e51b815260206004820152601c60248201527f416d6261737361646f723a3a204841535f434f4d4d554e4954494553000000006044820152606401610546565b6000818152609e6020908152604080832080546001600160a01b0388168552609f8452828520549182905580855260a19093529083208054929391929161099583611b00565b9091555050600081815260a1602052604081208054916109b483611b17565b9091555050600082815260a060205260408082205490516001600160a01b038089169392811692908a16917ffcc524962ae2655aeb5b6c7ad6cb8e8fc45c9f14edf517beb2b48595a3cd90489190a4505050505050565b6001600160a01b0382166000818152609f602052604090205490331480610a3c57506033546001600160a01b031633145b610a835760405162461bcd60e51b8152602060048201526018602482015277105b58985cdcd8591bdc8e8e881393d517d0531313d5d15160421b6044820152606401610546565b80610aca5760405162461bcd60e51b8152602060048201526017602482015276416d6261737361646f723a3a204e4f545f454e5449545960481b6044820152606401610546565b600081815260a06020908152604080832080546001600160a01b0319166001600160a01b03878116918217909255908716808552609f84528285208054838752848720558186529490945590518481529092917f1cef456569215c66a24eca2e9e631350d3daf1f358738ba7a3df455fcdc243a4910160405180910390a3505050565b6001600160a01b038082166000908152609f60209081526040808320549386168352609a8252808320548352609e909152902054145b92915050565b6033546001600160a01b03163314610bb35760405162461bcd60e51b8152600401610546906119ba565b610bbd6000611601565b565b6099546001600160a01b03163314610be95760405162461bcd60e51b815260040161054690611979565b6001600160a01b038082166000908152609d60209081526040808320548352609b90915290205416610c1b8183610f9c565b610c375760405162461bcd60e51b8152600401610546906119ef565b6001600160a01b038082166000908152609a60209081526040808320549386168352609d8252808320839055838352609c9091529020610c779084611653565b50826001600160a01b0316826001600160a01b03167fbac68789a3f4e375a8fa2492f0930108bbb4d9e2646f37abc5ef2a94ddce06ba60405160405180910390a3505050565b610cc78233610b4d565b80610cdc57506033546001600160a01b031633145b610cf85760405162461bcd60e51b8152600401610546906119ef565b610d0181610d7b565b15610d1e5760405162461bcd60e51b815260040161054690611a67565b600080600080610d2e868661156e565b604051848152939750919550935091506001600160a01b0380831691818516918616907f9998ffadb0cd2ca491daebaaecf860ac02dd25cd317ec9ef08b5c2a0a6a5677f906020016105f3565b6001600160a01b03166000908152609a6020526040902054151590565b336000908152609f6020526040902054151580610dce575033610dc36033546001600160a01b031690565b6001600160a01b0316145b610dea5760405162461bcd60e51b815260040161054690611a26565b6001600160a01b038082166000908152609d60209081526040808320548352609b90915290205416610e1c8183610f9c565b610e385760405162461bcd60e51b8152600401610546906119ef565b610e428383610f9c565b15610e5f5760405162461bcd60e51b815260040161054690611a67565b610e698133610b4d565b80610e7e57506033546001600160a01b031633145b610e9a5760405162461bcd60e51b8152600401610546906119ef565b610ea48333610b4d565b80610eb957506033546001600160a01b031633145b610ed55760405162461bcd60e51b8152600401610546906119ef565b6001600160a01b038084166000908152609a60208181526040808420548786168552609d8352818520559385168352908152828220548252609c905220610f1c9083611653565b506001600160a01b0383166000908152609a60209081526040808320548352609c9091529020610f4c90836115db565b50816001600160a01b0316836001600160a01b0316826001600160a01b03167f8e197c1b94ad42b061a1947f91c7bff6387f001a7a5a0ddee8610893706de8af60405160405180910390a4505050565b6001600160a01b039081166000908152609d6020908152604080832054949093168252609a905220541490565b600054610100900460ff16610fe45760005460ff1615610fe8565b303b155b61104b5760405162461bcd60e51b815260206004820152602e60248201527f496e697469616c697a61626c653a20636f6e747261637420697320616c72656160448201526d191e481a5b9a5d1a585b1a5e995960921b6064820152608401610546565b600054610100900460ff1615801561106d576000805461ffff19166101011790555b611075611668565b61107d61169f565b60016097819055609855609980546001600160a01b0319166001600160a01b03841617905580156110b4576000805461ff00191690555b5050565b6033546001600160a01b031633146110e25760405162461bcd60e51b8152600401610546906119ba565b609980546001600160a01b0319166001600160a01b0392909216919091179055565b6033546001600160a01b0316331461112e5760405162461bcd60e51b8152600401610546906119ba565b6001600160a01b0381166000908152609f60205260409020548061118e5760405162461bcd60e51b8152602060048201526017602482015276416d6261737361646f723a3a204e4f545f454e5449545960481b6044820152606401610546565b600081815260a16020526040902054156111ea5760405162461bcd60e51b815260206004820152601c60248201527f416d6261737361646f723a3a204841535f414d4241535341444f5253000000006044820152606401610546565b600081815260a06020908152604080832080546001600160a01b03191690556001600160a01b038516808452609f9092528083208390555190917f66baa8598dad476a7a23c2c39a3c9ea353a313b8050f5f2ff7df3121abe1f98391a25050565b336000908152609f60205260409020546112a25760405162461bcd60e51b8152602060048201526018602482015277416d6261737361646f723a3a204f4e4c595f454e5449545960401b6044820152606401610546565b6001600160a01b0381166000908152609a602090815260408083205433808552609f909352922054906112d6908490610b4d565b6112f25760405162461bcd60e51b8152600401610546906119ef565b6000828152609c60205260409020611309906115f7565b156113565760405162461bcd60e51b815260206004820152601c60248201527f416d6261737361646f723a3a204841535f434f4d4d554e4954494553000000006044820152606401610546565b600081815260a16020526040812080549161137083611b00565b90915550506001600160a01b0383166000818152609a6020526040808220829055513392917fdf0a456c1486c80ba4cdebb55052f692736d848b7cd52f7586d824a51018483791a3505050565b6033546001600160a01b031633146113e75760405162461bcd60e51b8152600401610546906119ba565b6001600160a01b0381166000908152609f60205260409020541561144d5760405162461bcd60e51b815260206004820152601b60248201527f416d6261737361646f723a3a20414c52454144595f454e5449545900000000006044820152606401610546565b609880546001600160a01b0383166000818152609f6020908152604080832085905593825260a0905291822080546001600160a01b03191690911790558154919061149783611b17565b90915550506040516001600160a01b038216907fb22e19f08ff14b8507fef310677b98ad1329eba6abb5b90f147acd6475dc762b90600090a250565b6033546001600160a01b031633146114fd5760405162461bcd60e51b8152600401610546906119ba565b6001600160a01b0381166115625760405162461bcd60e51b815260206004820152602660248201527f4f776e61626c653a206e6577206f776e657220697320746865207a65726f206160448201526564647265737360d01b6064820152608401610546565b61156b81611601565b50565b6001600160a01b038281166000908152609a602081815260408084208054808652609e845282862054609b855283872080546001600160a01b0319168a8a169081179091559585528254958752838720959095559085905592845260a09091529091205490949116929190565b60006115f0836001600160a01b0384166116ce565b9392505050565b6000610b83825490565b603380546001600160a01b038381166001600160a01b0319831681179093556040519116919082907f8be0079c531659141344cd1fd0a4f28419497f9722a3daafe3b4186f6b6457e090600090a35050565b60006115f0836001600160a01b03841661171d565b600054610100900460ff1661168f5760405162461bcd60e51b815260040161054690611a9e565b61169761183a565b610bbd611861565b600054610100900460ff166116c65760405162461bcd60e51b815260040161054690611a9e565b610bbd611891565b600081815260018301602052604081205461171557508154600181810184556000848152602080822090930184905584548482528286019093526040902091909155610b83565b506000610b83565b60008181526001830160205260408120548015611830576000611741600183611ae9565b855490915060009061175590600190611ae9565b90508181146117d657600086600001828154811061178357634e487b7160e01b600052603260045260246000fd5b90600052602060002001549050808760000184815481106117b457634e487b7160e01b600052603260045260246000fd5b6000918252602080832090910192909255918252600188019052604090208390555b85548690806117f557634e487b7160e01b600052603160045260246000fd5b600190038181906000526020600020016000905590558560010160008681526020019081526020016000206000905560019350505050610b83565b6000915050610b83565b600054610100900460ff16610bbd5760405162461bcd60e51b815260040161054690611a9e565b600054610100900460ff166118885760405162461bcd60e51b815260040161054690611a9e565b610bbd33611601565b600054610100900460ff166118b85760405162461bcd60e51b815260040161054690611a9e565b6001606555565b6000602082840312156118d0578081fd5b81356115f081611b48565b600080604083850312156118ed578081fd5b82356118f881611b48565b9150602083013561190881611b48565b809150509250929050565b600080600060608486031215611927578081fd5b833561193281611b48565b9250602084013561194281611b48565b915060408401358015158114611956578182fd5b809150509250925092565b600060208284031215611972578081fd5b5035919050565b60208082526021908201527f416d6261737361646f723a3a204f4e4c595f434f4d4d554e4954595f41444d496040820152602760f91b606082015260800190565b6020808252818101527f4f776e61626c653a2063616c6c6572206973206e6f7420746865206f776e6572604082015260600190565b6020808252601b908201527f416d6261737361646f723a3a204e4f545f414d4241535341444f520000000000604082015260600190565b60208082526021908201527f416d6261737361646f723a3a204f4e4c595f454e544954595f4f525f4f574e456040820152602960f91b606082015260800190565b6020808252601f908201527f416d6261737361646f723a3a20414c52454144595f414d4241535341444f5200604082015260600190565b6020808252602b908201527f496e697469616c697a61626c653a20636f6e7472616374206973206e6f74206960408201526a6e697469616c697a696e6760a81b606082015260800190565b600082821015611afb57611afb611b32565b500390565b600081611b0f57611b0f611b32565b506000190190565b6000600019821415611b2b57611b2b611b32565b5060010190565b634e487b7160e01b600052601160045260246000fd5b6001600160a01b038116811461156b57600080fdfea2646970667358221220860a416c28402c7468c8e01f56c36fe700231a61450e79055bef17aed347fb2064736f6c63430008040033",
  "devdoc": {
    "events": {
      "AmbassadorAccountReplaced(uint256,address,address,address)": {
        "params": {
          "ambassadorIndex": "Index of the ambassador being replaced",
          "entityAccount": "Address of the entity where ambassador is being replaced",
          "newAccount": "Ambassador's new account address",
          "oldAccount": "Ambassador's old account address"
        }
      },
      "AmbassadorAdded(address,address)": {
        "params": {
          "ambassador": "Address of the ambassador added",
          "entity": "Address of the entity where the ambassador is added"
        }
      },
      "AmbassadorRemoved(address,address)": {
        "params": {
          "ambassador": "Address of the ambassador removed",
          "entity": "Address of the entity where the ambassador is removed"
        }
      },
      "AmbassadorReplaced(uint256,address,address,address)": {
        "params": {
          "ambassadorIndex": "Index of the ambassador being replaced",
          "entityAccount": "Address of the entity where ambassador is being replaced",
          "newAmbassador": "Ambassador's new account address",
          "oldAmbassador": "Ambassador's old account address"
        }
      },
      "AmbassadorToCommunityUpdated(address,address,address)": {
        "params": {
          "community": "Community address being transfered",
          "fromAmbassador": "Ambassador address from which the community is being transfered from",
          "toAmbassador": "Ambassador address to which the community is being transfered to"
        }
      },
      "AmbassadorTransfered(address,address,address)": {
        "params": {
          "ambassador": "Ambassador address being replaced",
          "newEntity": "Entity's new account address",
          "oldEntity": "Entity's old account address"
        }
      },
      "CommunityRemoved(address,address)": {
        "params": {
          "ambassador": "Ambassador of the community being removed",
          "community": "Community address being removed"
        }
      },
      "EntityAccountReplaced(uint256,address,address)": {
        "params": {
          "entityIndex": "Entity index replacing account address",
          "newAccount": "New account address",
          "oldAccount": "Old account address"
        }
      },
      "EntityAdded(address)": {
        "params": {
          "entity": "Address of the entity added"
        }
      },
      "EntityRemoved(address)": {
        "params": {
          "entity": "Address of the entity removed"
        }
      }
    },
    "kind": "dev",
    "methods": {
      "addAmbassador(address)": {
        "params": {
          "_ambassador": "Address of the ambassador"
        }
      },
      "addEntity(address)": {
        "params": {
          "_entity": "Address of the entity"
        }
      },
      "initialize(address)": {
        "params": {
          "_communityAdmin": "Address of the community admin contract"
        }
      },
      "isAmbassador(address)": {
        "params": {
          "_ambassador": "Address of the ambassador"
        },
        "returns": {
          "_0": "Boolean whether an address is ambassador or not"
        }
      },
      "isAmbassadorAt(address,address)": {
        "params": {
          "_ambassador": "Address of the ambassador",
          "_entityAddress": "Address of the entity"
        },
        "returns": {
          "_0": "Boolean whether an address is ambassador at a given entity or not"
        }
      },
      "isAmbassadorOf(address,address)": {
        "params": {
          "_ambassador": "Address of the ambassador",
          "_community": "Address of the community"
        },
        "returns": {
          "_0": "Boolean whether an address is ambassador of a given community or not"
        }
      },
      "isEntityOf(address,address)": {
        "params": {
          "_community": "Address of the community",
          "_entity": "Address of the entity"
        },
        "returns": {
          "_0": "Boolean whether an address is entity reponsible for ambassador of a given community or not"
        }
      },
      "owner()": {
        "details": "Returns the address of the current owner."
      },
      "removeAmbassador(address)": {
        "params": {
          "_ambassador": "Address of the ambassador"
        }
      },
      "removeCommunity(address)": {
        "params": {
          "_community": "Community address"
        }
      },
      "removeEntity(address)": {
        "params": {
          "_entity": "Address of the entity"
        }
      },
      "renounceOwnership()": {
        "details": "Leaves the contract without owner. It will not be possible to call `onlyOwner` functions anymore. Can only be called by the current owner. NOTE: Renouncing ownership will leave the contract without an owner, thereby removing any functionality that is only available to the owner."
      },
      "replaceAmbassador(address,address)": {
        "params": {
          "_newAmbassador": "New ambassador address",
          "_oldAmbassador": "Address of the ambassador"
        }
      },
      "replaceAmbassadorAccount(address,address)": {
        "params": {
          "_ambassador": "Address of the ambassador",
          "_newAmbassador": "New ambassador address"
        }
      },
      "replaceEntityAccount(address,address)": {
        "params": {
          "_entity": "Address of the entity",
          "_newEntity": "New entity address"
        }
      },
      "setCommunityToAmbassador(address,address)": {
        "params": {
          "_ambassador": "Address of the ambassador",
          "_community": "Community address"
        }
      },
      "transferAmbassador(address,address,bool)": {
        "params": {
          "_ambassador": "Address of the ambassador",
          "_keepCommunities": "Boolean whether to keep the ambassador's communities or not",
          "_toEntity": "Address of the entity"
        }
      },
      "transferCommunityToAmbassador(address,address)": {
        "params": {
          "_community": "Community address",
          "_to": "Address of the ambassador to transfer the community to"
        }
      },
      "transferOwnership(address)": {
        "details": "Transfers ownership of the contract to a new account (`newOwner`). Can only be called by the current owner."
      },
      "updateCommunityAdmin(address)": {
        "details": "used only for testing the new community upgrade flow",
        "params": {
          "_newCommunityAdmin": "address of the new communityAdmin"
        }
      }
    },
    "version": 1
  },
  "userdoc": {
    "events": {
      "AmbassadorAccountReplaced(uint256,address,address,address)": {
        "notice": "Triggered when an ambassador replaces it's own account."
      },
      "AmbassadorAdded(address,address)": {
        "notice": "Triggered when an ambassador is added to an entity."
      },
      "AmbassadorRemoved(address,address)": {
        "notice": "Triggered when an ambassador is removed."
      },
      "AmbassadorReplaced(uint256,address,address,address)": {
        "notice": "Triggered when an ambassador is replaced by the entity."
      },
      "AmbassadorToCommunityUpdated(address,address,address)": {
        "notice": "Triggered when a community is transfered from one ambassador to another."
      },
      "AmbassadorTransfered(address,address,address)": {
        "notice": "Triggered when an ambassador is transfered to a new entity."
      },
      "CommunityRemoved(address,address)": {
        "notice": "Triggered when a community is removed."
      },
      "EntityAccountReplaced(uint256,address,address)": {
        "notice": "Triggered when an entity replaced account address."
      },
      "EntityAdded(address)": {
        "notice": "Triggered when an entity is added."
      },
      "EntityRemoved(address)": {
        "notice": "Triggered when an entity is removed."
      }
    },
    "kind": "user",
    "methods": {
      "addAmbassador(address)": {
        "notice": "Registers an ambassador."
      },
      "addEntity(address)": {
        "notice": "Registers an entity."
      },
      "getVersion()": {
        "notice": "Returns the current implementation version"
      },
      "initialize(address)": {
        "notice": "Used to initialize a new Ambassadors contract"
      },
      "isAmbassador(address)": {
        "notice": "Returns boolean whether an address is ambassador or not."
      },
      "isAmbassadorAt(address,address)": {
        "notice": "Returns boolean whether an address is ambassador at a given entity."
      },
      "isAmbassadorOf(address,address)": {
        "notice": "Returns boolean whether an address is ambassador of a given community."
      },
      "isEntityOf(address,address)": {
        "notice": "Returns boolean whether an address is entity reponsible for ambassador of a given community."
      },
      "removeAmbassador(address)": {
        "notice": "Removes an ambassador."
      },
      "removeCommunity(address)": {
        "notice": "Removes community."
      },
      "removeEntity(address)": {
        "notice": "Removes an entity."
      },
      "replaceAmbassador(address,address)": {
        "notice": "Replaces an ambassador. Called by entity."
      },
      "replaceAmbassadorAccount(address,address)": {
        "notice": "Replace ambassador account. Called by ambassador."
      },
      "replaceEntityAccount(address,address)": {
        "notice": "Replace entity account."
      },
      "setCommunityToAmbassador(address,address)": {
        "notice": "Sets community to ambassador."
      },
      "transferAmbassador(address,address,bool)": {
        "notice": "Transfers an ambassador to another entity."
      },
      "transferCommunityToAmbassador(address,address)": {
        "notice": "Transfers community from ambassador to another ambassador."
      },
      "updateCommunityAdmin(address)": {
        "notice": "Updates the address of the communityAdmin"
      }
    },
    "notice": "Welcome to Ambassadors contract.",
    "version": 1
  },
  "storageLayout": {
    "storage": [
      {
        "astId": 542,
        "contract": "contracts/ambassadors/AmbassadorsImplementation.sol:AmbassadorsImplementation",
        "label": "_initialized",
        "offset": 0,
        "slot": "0",
        "type": "t_bool"
      },
      {
        "astId": 545,
        "contract": "contracts/ambassadors/AmbassadorsImplementation.sol:AmbassadorsImplementation",
        "label": "_initializing",
        "offset": 1,
        "slot": "0",
        "type": "t_bool"
      },
      {
        "astId": 1068,
        "contract": "contracts/ambassadors/AmbassadorsImplementation.sol:AmbassadorsImplementation",
        "label": "__gap",
        "offset": 0,
        "slot": "1",
        "type": "t_array(t_uint256)50_storage"
      },
      {
        "astId": 420,
        "contract": "contracts/ambassadors/AmbassadorsImplementation.sol:AmbassadorsImplementation",
        "label": "_owner",
        "offset": 0,
        "slot": "51",
        "type": "t_address"
      },
      {
        "astId": 534,
        "contract": "contracts/ambassadors/AmbassadorsImplementation.sol:AmbassadorsImplementation",
        "label": "__gap",
        "offset": 0,
        "slot": "52",
        "type": "t_array(t_uint256)49_storage"
      },
      {
        "astId": 736,
        "contract": "contracts/ambassadors/AmbassadorsImplementation.sol:AmbassadorsImplementation",
        "label": "_status",
        "offset": 0,
        "slot": "101",
        "type": "t_uint256"
      },
      {
        "astId": 779,
        "contract": "contracts/ambassadors/AmbassadorsImplementation.sol:AmbassadorsImplementation",
        "label": "__gap",
        "offset": 0,
        "slot": "102",
        "type": "t_array(t_uint256)49_storage"
      },
      {
        "astId": 8578,
        "contract": "contracts/ambassadors/AmbassadorsImplementation.sol:AmbassadorsImplementation",
        "label": "ambassadorIndex",
        "offset": 0,
        "slot": "151",
        "type": "t_uint256"
      },
      {
        "astId": 8580,
        "contract": "contracts/ambassadors/AmbassadorsImplementation.sol:AmbassadorsImplementation",
        "label": "entityIndex",
        "offset": 0,
        "slot": "152",
        "type": "t_uint256"
      },
      {
        "astId": 8583,
        "contract": "contracts/ambassadors/AmbassadorsImplementation.sol:AmbassadorsImplementation",
        "label": "communityAdmin",
        "offset": 0,
        "slot": "153",
        "type": "t_contract(ICommunityAdmin)12085"
      },
      {
        "astId": 8587,
        "contract": "contracts/ambassadors/AmbassadorsImplementation.sol:AmbassadorsImplementation",
        "label": "ambassadorByAddress",
        "offset": 0,
        "slot": "154",
        "type": "t_mapping(t_address,t_uint256)"
      },
      {
        "astId": 8591,
        "contract": "contracts/ambassadors/AmbassadorsImplementation.sol:AmbassadorsImplementation",
        "label": "ambassadorByIndex",
        "offset": 0,
        "slot": "155",
        "type": "t_mapping(t_uint256,t_address)"
      },
      {
        "astId": 8596,
        "contract": "contracts/ambassadors/AmbassadorsImplementation.sol:AmbassadorsImplementation",
        "label": "ambassadorCommunities",
        "offset": 0,
        "slot": "156",
        "type": "t_mapping(t_uint256,t_struct(AddressSet)5349_storage)"
      },
      {
        "astId": 8600,
        "contract": "contracts/ambassadors/AmbassadorsImplementation.sol:AmbassadorsImplementation",
        "label": "communityToAmbassador",
        "offset": 0,
        "slot": "157",
        "type": "t_mapping(t_address,t_uint256)"
      },
      {
        "astId": 8604,
        "contract": "contracts/ambassadors/AmbassadorsImplementation.sol:AmbassadorsImplementation",
        "label": "ambassadorToEntity",
        "offset": 0,
        "slot": "158",
        "type": "t_mapping(t_uint256,t_uint256)"
      },
      {
        "astId": 8608,
        "contract": "contracts/ambassadors/AmbassadorsImplementation.sol:AmbassadorsImplementation",
        "label": "entityByAddress",
        "offset": 0,
        "slot": "159",
        "type": "t_mapping(t_address,t_uint256)"
      },
      {
        "astId": 8612,
        "contract": "contracts/ambassadors/AmbassadorsImplementation.sol:AmbassadorsImplementation",
        "label": "entityByIndex",
        "offset": 0,
        "slot": "160",
        "type": "t_mapping(t_uint256,t_address)"
      },
      {
        "astId": 8616,
        "contract": "contracts/ambassadors/AmbassadorsImplementation.sol:AmbassadorsImplementation",
        "label": "entityAmbassadors",
        "offset": 0,
        "slot": "161",
        "type": "t_mapping(t_uint256,t_uint256)"
      }
    ],
    "types": {
      "t_address": {
        "encoding": "inplace",
        "label": "address",
        "numberOfBytes": "20"
      },
      "t_array(t_bytes32)dyn_storage": {
        "base": "t_bytes32",
        "encoding": "dynamic_array",
        "label": "bytes32[]",
        "numberOfBytes": "32"
      },
      "t_array(t_uint256)49_storage": {
        "base": "t_uint256",
        "encoding": "inplace",
        "label": "uint256[49]",
        "numberOfBytes": "1568"
      },
      "t_array(t_uint256)50_storage": {
        "base": "t_uint256",
        "encoding": "inplace",
        "label": "uint256[50]",
        "numberOfBytes": "1600"
      },
      "t_bool": {
        "encoding": "inplace",
        "label": "bool",
        "numberOfBytes": "1"
      },
      "t_bytes32": {
        "encoding": "inplace",
        "label": "bytes32",
        "numberOfBytes": "32"
      },
      "t_contract(ICommunityAdmin)12085": {
        "encoding": "inplace",
        "label": "contract ICommunityAdmin",
        "numberOfBytes": "20"
      },
      "t_mapping(t_address,t_uint256)": {
        "encoding": "mapping",
        "key": "t_address",
        "label": "mapping(address => uint256)",
        "numberOfBytes": "32",
        "value": "t_uint256"
      },
      "t_mapping(t_bytes32,t_uint256)": {
        "encoding": "mapping",
        "key": "t_bytes32",
        "label": "mapping(bytes32 => uint256)",
        "numberOfBytes": "32",
        "value": "t_uint256"
      },
      "t_mapping(t_uint256,t_address)": {
        "encoding": "mapping",
        "key": "t_uint256",
        "label": "mapping(uint256 => address)",
        "numberOfBytes": "32",
        "value": "t_address"
      },
      "t_mapping(t_uint256,t_struct(AddressSet)5349_storage)": {
        "encoding": "mapping",
        "key": "t_uint256",
        "label": "mapping(uint256 => struct EnumerableSet.AddressSet)",
        "numberOfBytes": "32",
        "value": "t_struct(AddressSet)5349_storage"
      },
      "t_mapping(t_uint256,t_uint256)": {
        "encoding": "mapping",
        "key": "t_uint256",
        "label": "mapping(uint256 => uint256)",
        "numberOfBytes": "32",
        "value": "t_uint256"
      },
      "t_struct(AddressSet)5349_storage": {
        "encoding": "inplace",
        "label": "struct EnumerableSet.AddressSet",
        "members": [
          {
            "astId": 5348,
            "contract": "contracts/ambassadors/AmbassadorsImplementation.sol:AmbassadorsImplementation",
            "label": "_inner",
            "offset": 0,
            "slot": "0",
            "type": "t_struct(Set)5048_storage"
          }
        ],
        "numberOfBytes": "64"
      },
      "t_struct(Set)5048_storage": {
        "encoding": "inplace",
        "label": "struct EnumerableSet.Set",
        "members": [
          {
            "astId": 5043,
            "contract": "contracts/ambassadors/AmbassadorsImplementation.sol:AmbassadorsImplementation",
            "label": "_values",
            "offset": 0,
            "slot": "0",
            "type": "t_array(t_bytes32)dyn_storage"
          },
          {
            "astId": 5047,
            "contract": "contracts/ambassadors/AmbassadorsImplementation.sol:AmbassadorsImplementation",
            "label": "_indexes",
            "offset": 0,
            "slot": "1",
            "type": "t_mapping(t_bytes32,t_uint256)"
          }
        ],
        "numberOfBytes": "64"
      },
      "t_uint256": {
        "encoding": "inplace",
        "label": "uint256",
        "numberOfBytes": "32"
      }
    }
  }
}