{
  "address": "0xD97180Ed09Fb8C4424E3Dc83EadEf85b1C8C199D",
  "abi": [
    {
      "anonymous": false,
      "inputs": [
        {
          "indexed": true,
          "internalType": "address",
          "name": "oldAmbassadors",
          "type": "address"
        },
        {
          "indexed": true,
          "internalType": "address",
          "name": "newAmbassadors",
          "type": "address"
        }
      ],
      "name": "AmbassadorsUpdated",
      "type": "event"
    },
    {
      "anonymous": false,
      "inputs": [
        {
          "indexed": true,
          "internalType": "address",
          "name": "communityAddress",
          "type": "address"
        },
        {
          "indexed": false,
          "internalType": "address[]",
          "name": "managers",
          "type": "address[]"
        },
        {
          "indexed": false,
          "internalType": "uint256",
          "name": "originalClaimAmount",
          "type": "uint256"
        },
        {
          "indexed": false,
          "internalType": "uint256",
          "name": "maxTotalClaim",
          "type": "uint256"
        },
        {
          "indexed": false,
          "internalType": "uint256",
          "name": "decreaseStep",
          "type": "uint256"
        },
        {
          "indexed": false,
          "internalType": "uint256",
          "name": "baseInterval",
          "type": "uint256"
        },
        {
          "indexed": false,
          "internalType": "uint256",
          "name": "incrementInterval",
          "type": "uint256"
        },
        {
          "indexed": false,
          "internalType": "uint256",
          "name": "minTranche",
          "type": "uint256"
        },
        {
          "indexed": false,
          "internalType": "uint256",
          "name": "maxTranche",
          "type": "uint256"
        }
      ],
      "name": "CommunityAdded",
      "type": "event"
    },
    {
      "anonymous": false,
      "inputs": [
        {
          "indexed": true,
          "internalType": "address",
          "name": "community",
          "type": "address"
        },
        {
          "indexed": false,
          "internalType": "uint256",
          "name": "amount",
          "type": "uint256"
        }
      ],
      "name": "CommunityFunded",
      "type": "event"
    },
    {
      "anonymous": false,
      "inputs": [
        {
          "indexed": true,
          "internalType": "address",
          "name": "oldCommunityImplementation",
          "type": "address"
        },
        {
          "indexed": true,
          "internalType": "address",
          "name": "newCommunityImplementation",
          "type": "address"
        }
      ],
      "name": "CommunityImplementationUpdated",
      "type": "event"
    },
    {
      "anonymous": false,
      "inputs": [
        {
          "indexed": false,
          "internalType": "address",
          "name": "oldCommunityMiddleProxy",
          "type": "address"
        },
        {
          "indexed": false,
          "internalType": "address",
          "name": "newCommunityMiddleProxy",
          "type": "address"
        }
      ],
      "name": "CommunityMiddleProxyUpdated",
      "type": "event"
    },
    {
      "anonymous": false,
      "inputs": [
        {
          "indexed": false,
          "internalType": "address[]",
          "name": "managers",
          "type": "address[]"
        },
        {
          "indexed": true,
          "internalType": "address",
          "name": "communityAddress",
          "type": "address"
        },
        {
          "indexed": true,
          "internalType": "address",
          "name": "previousCommunityAddress",
          "type": "address"
        }
      ],
      "name": "CommunityMigrated",
      "type": "event"
    },
    {
      "anonymous": false,
      "inputs": [
        {
          "indexed": true,
          "internalType": "address",
          "name": "communityAddress",
          "type": "address"
        }
      ],
      "name": "CommunityRemoved",
      "type": "event"
    },
    {
      "anonymous": false,
      "inputs": [
        {
          "indexed": true,
          "internalType": "address",
          "name": "oldImpactMarketCouncil",
          "type": "address"
        },
        {
          "indexed": true,
          "internalType": "address",
          "name": "newImpactMarketCouncil",
          "type": "address"
        }
      ],
      "name": "ImpactMarketCouncilUpdated",
      "type": "event"
    },
    {
      "anonymous": false,
      "inputs": [
        {
          "indexed": true,
          "internalType": "address",
          "name": "previousOwner",
          "type": "address"
        },
        {
          "indexed": true,
          "internalType": "address",
          "name": "newOwner",
          "type": "address"
        }
      ],
      "name": "OwnershipTransferred",
      "type": "event"
    },
    {
      "anonymous": false,
      "inputs": [
        {
          "indexed": true,
          "internalType": "address",
          "name": "token",
          "type": "address"
        },
        {
          "indexed": true,
          "internalType": "address",
          "name": "to",
          "type": "address"
        },
        {
          "indexed": false,
          "internalType": "uint256",
          "name": "amount",
          "type": "uint256"
        }
      ],
      "name": "TransferERC20",
      "type": "event"
    },
    {
      "anonymous": false,
      "inputs": [
        {
          "indexed": true,
          "internalType": "address",
          "name": "oldTreasury",
          "type": "address"
        },
        {
          "indexed": true,
          "internalType": "address",
          "name": "newTreasury",
          "type": "address"
        }
      ],
      "name": "TreasuryUpdated",
      "type": "event"
    },
    {
      "inputs": [
        {
          "internalType": "address",
          "name": "_tokenAddress",
          "type": "address"
        },
        {
          "internalType": "address[]",
          "name": "_managers",
          "type": "address[]"
        },
        {
          "internalType": "address",
          "name": "_ambassador",
          "type": "address"
        },
        {
          "internalType": "uint256",
          "name": "_originalClaimAmount",
          "type": "uint256"
        },
        {
          "internalType": "uint256",
          "name": "_maxTotalClaim",
          "type": "uint256"
        },
        {
          "internalType": "uint256",
          "name": "_decreaseStep",
          "type": "uint256"
        },
        {
          "internalType": "uint256",
          "name": "_baseInterval",
          "type": "uint256"
        },
        {
          "internalType": "uint256",
          "name": "_incrementInterval",
          "type": "uint256"
        },
        {
          "internalType": "uint256",
          "name": "_minTranche",
          "type": "uint256"
        },
        {
          "internalType": "uint256",
          "name": "_maxTranche",
          "type": "uint256"
        },
        {
          "internalType": "uint256",
          "name": "_maxBeneficiaries",
          "type": "uint256"
        }
      ],
      "name": "addCommunity",
      "outputs": [],
      "stateMutability": "nonpayable",
      "type": "function"
    },
    {
      "inputs": [],
      "name": "ambassadors",
      "outputs": [
        {
          "internalType": "contract IAmbassadors",
          "name": "",
          "type": "address"
        }
      ],
      "stateMutability": "view",
      "type": "function"
    },
    {
      "inputs": [],
      "name": "authorizedWalletAddress",
      "outputs": [
        {
          "internalType": "address",
          "name": "",
          "type": "address"
        }
      ],
      "stateMutability": "view",
      "type": "function"
    },
    {
      "inputs": [],
      "name": "cUSD",
      "outputs": [
        {
          "internalType": "contract IERC20",
          "name": "",
          "type": "address"
        }
      ],
      "stateMutability": "view",
      "type": "function"
    },
    {
      "inputs": [
        {
          "internalType": "contract ICommunity",
          "name": "_community",
          "type": "address"
        }
      ],
      "name": "calculateCommunityTrancheAmount",
      "outputs": [
        {
          "internalType": "uint256",
          "name": "",
          "type": "uint256"
        }
      ],
      "stateMutability": "view",
      "type": "function"
    },
    {
      "inputs": [
        {
          "internalType": "address",
          "name": "",
          "type": "address"
        }
      ],
      "name": "communities",
      "outputs": [
        {
          "internalType": "enum ICommunityAdmin.CommunityState",
          "name": "",
          "type": "uint8"
        }
      ],
      "stateMutability": "view",
      "type": "function"
    },
    {
      "inputs": [],
      "name": "communityImplementation",
      "outputs": [
        {
          "internalType": "contract ICommunity",
          "name": "",
          "type": "address"
        }
      ],
      "stateMutability": "view",
      "type": "function"
    },
    {
      "inputs": [
        {
          "internalType": "uint256",
          "name": "_index",
          "type": "uint256"
        }
      ],
      "name": "communityListAt",
      "outputs": [
        {
          "internalType": "address",
          "name": "",
          "type": "address"
        }
      ],
      "stateMutability": "view",
      "type": "function"
    },
    {
      "inputs": [],
      "name": "communityListLength",
      "outputs": [
        {
          "internalType": "uint256",
          "name": "",
          "type": "uint256"
        }
      ],
      "stateMutability": "view",
      "type": "function"
    },
    {
      "inputs": [],
      "name": "communityMiddleProxy",
      "outputs": [
        {
          "internalType": "address",
          "name": "",
          "type": "address"
        }
      ],
      "stateMutability": "view",
      "type": "function"
    },
    {
      "inputs": [],
      "name": "communityProxyAdmin",
      "outputs": [
        {
          "internalType": "contract ProxyAdmin",
          "name": "",
          "type": "address"
        }
      ],
      "stateMutability": "view",
      "type": "function"
    },
    {
      "inputs": [],
      "name": "fundCommunity",
      "outputs": [],
      "stateMutability": "nonpayable",
      "type": "function"
    },
    {
      "inputs": [
        {
          "internalType": "address",
          "name": "_communityProxyAddress",
          "type": "address"
        }
      ],
      "name": "getCommunityProxyImplementation",
      "outputs": [
        {
          "internalType": "address",
          "name": "",
          "type": "address"
        }
      ],
      "stateMutability": "view",
      "type": "function"
    },
    {
      "inputs": [],
      "name": "getVersion",
      "outputs": [
        {
          "internalType": "uint256",
          "name": "",
          "type": "uint256"
        }
      ],
      "stateMutability": "pure",
      "type": "function"
    },
    {
      "inputs": [],
      "name": "impactMarketCouncil",
      "outputs": [
        {
          "internalType": "contract IImpactMarketCouncil",
          "name": "",
          "type": "address"
        }
      ],
      "stateMutability": "view",
      "type": "function"
    },
    {
      "inputs": [
        {
          "internalType": "contract ICommunity",
          "name": "_communityImplementation",
          "type": "address"
        },
        {
          "internalType": "contract IERC20",
          "name": "_cUSD",
          "type": "address"
        }
      ],
      "name": "initialize",
      "outputs": [],
      "stateMutability": "nonpayable",
      "type": "function"
    },
    {
      "inputs": [
        {
          "internalType": "address",
          "name": "_community",
          "type": "address"
        },
        {
          "internalType": "address",
          "name": "_ambassadorOrEntity",
          "type": "address"
        }
      ],
      "name": "isAmbassadorOrEntityOfCommunity",
      "outputs": [
        {
          "internalType": "bool",
          "name": "",
          "type": "bool"
        }
      ],
      "stateMutability": "view",
      "type": "function"
    },
    {
      "inputs": [
        {
          "internalType": "address[]",
          "name": "_managers",
          "type": "address[]"
        },
        {
          "internalType": "contract ICommunity",
          "name": "_previousCommunity",
          "type": "address"
        }
      ],
      "name": "migrateCommunity",
      "outputs": [],
      "stateMutability": "nonpayable",
      "type": "function"
    },
    {
      "inputs": [],
      "name": "minClaimAmountRatio",
      "outputs": [
        {
          "internalType": "uint256",
          "name": "",
          "type": "uint256"
        }
      ],
      "stateMutability": "view",
      "type": "function"
    },
    {
      "inputs": [],
      "name": "minClaimAmountRatioPrecision",
      "outputs": [
        {
          "internalType": "uint256",
          "name": "",
          "type": "uint256"
        }
      ],
      "stateMutability": "pure",
      "type": "function"
    },
    {
      "inputs": [],
      "name": "owner",
      "outputs": [
        {
          "internalType": "address",
          "name": "",
          "type": "address"
        }
      ],
      "stateMutability": "view",
      "type": "function"
    },
    {
      "inputs": [
        {
          "internalType": "contract ICommunity",
          "name": "_community",
          "type": "address"
        }
      ],
      "name": "removeCommunity",
      "outputs": [],
      "stateMutability": "nonpayable",
      "type": "function"
    },
    {
      "inputs": [],
      "name": "renounceOwnership",
      "outputs": [],
      "stateMutability": "nonpayable",
      "type": "function"
    },
    {
      "inputs": [
        {
          "internalType": "address",
          "name": "_ambassador",
          "type": "address"
        },
        {
          "internalType": "contract ICommunity",
          "name": "_communityAddress",
          "type": "address"
        }
      ],
      "name": "setCommunityToAmbassador",
      "outputs": [],
      "stateMutability": "nonpayable",
      "type": "function"
    },
    {
      "inputs": [
        {
          "internalType": "contract IERC20",
          "name": "_token",
          "type": "address"
        },
        {
          "internalType": "address",
          "name": "_to",
          "type": "address"
        },
        {
          "internalType": "uint256",
          "name": "_amount",
          "type": "uint256"
        }
      ],
      "name": "transfer",
      "outputs": [],
      "stateMutability": "nonpayable",
      "type": "function"
    },
    {
      "inputs": [
        {
          "internalType": "contract ICommunity",
          "name": "_community",
          "type": "address"
        },
        {
          "internalType": "contract IERC20",
          "name": "_token",
          "type": "address"
        },
        {
          "internalType": "address",
          "name": "_to",
          "type": "address"
        },
        {
          "internalType": "uint256",
          "name": "_amount",
          "type": "uint256"
        }
      ],
      "name": "transferFromCommunity",
      "outputs": [],
      "stateMutability": "nonpayable",
      "type": "function"
    },
    {
      "inputs": [
        {
          "internalType": "address",
          "name": "newOwner",
          "type": "address"
        }
      ],
      "name": "transferOwnership",
      "outputs": [],
      "stateMutability": "nonpayable",
      "type": "function"
    },
    {
      "inputs": [],
      "name": "treasury",
      "outputs": [
        {
          "internalType": "contract ITreasury",
          "name": "",
          "type": "address"
        }
      ],
      "stateMutability": "view",
      "type": "function"
    },
    {
      "inputs": [],
      "name": "treasuryMinBalance",
      "outputs": [
        {
          "internalType": "uint256",
          "name": "",
          "type": "uint256"
        }
      ],
      "stateMutability": "view",
      "type": "function"
    },
    {
      "inputs": [],
      "name": "treasurySafetyPercentage",
      "outputs": [
        {
          "internalType": "uint256",
          "name": "",
          "type": "uint256"
        }
      ],
      "stateMutability": "view",
      "type": "function"
    },
    {
      "inputs": [
        {
          "internalType": "contract IAmbassadors",
          "name": "_newAmbassadors",
          "type": "address"
        }
      ],
      "name": "updateAmbassadors",
      "outputs": [],
      "stateMutability": "nonpayable",
      "type": "function"
    },
    {
      "inputs": [
        {
          "internalType": "address",
          "name": "_newAuthorizedWalletAddress",
          "type": "address"
        }
      ],
      "name": "updateAuthorizedWalletAddress",
      "outputs": [],
      "stateMutability": "nonpayable",
      "type": "function"
    },
    {
      "inputs": [
        {
          "internalType": "contract ICommunity",
          "name": "_community",
          "type": "address"
        },
        {
          "internalType": "uint256",
          "name": "_originalClaimAmount",
          "type": "uint256"
        },
        {
          "internalType": "uint256",
          "name": "_maxTotalClaim",
          "type": "uint256"
        },
        {
          "internalType": "uint256",
          "name": "_decreaseStep",
          "type": "uint256"
        },
        {
          "internalType": "uint256",
          "name": "_baseInterval",
          "type": "uint256"
        },
        {
          "internalType": "uint256",
          "name": "_incrementInterval",
          "type": "uint256"
        },
        {
          "internalType": "uint256",
          "name": "_maxBeneficiaries",
          "type": "uint256"
        }
      ],
      "name": "updateBeneficiaryParams",
      "outputs": [],
      "stateMutability": "nonpayable",
      "type": "function"
    },
    {
      "inputs": [
        {
          "internalType": "contract ICommunity",
          "name": "_newCommunityImplementation",
          "type": "address"
        }
      ],
      "name": "updateCommunityImplementation",
      "outputs": [],
      "stateMutability": "nonpayable",
      "type": "function"
    },
    {
      "inputs": [
        {
          "internalType": "address",
          "name": "_newCommunityMiddleProxy",
          "type": "address"
        }
      ],
      "name": "updateCommunityMiddleProxy",
      "outputs": [],
      "stateMutability": "nonpayable",
      "type": "function"
    },
    {
      "inputs": [
        {
          "internalType": "contract ICommunity",
          "name": "_community",
          "type": "address"
        },
        {
          "internalType": "uint256",
          "name": "_minTranche",
          "type": "uint256"
        },
        {
          "internalType": "uint256",
          "name": "_maxTranche",
          "type": "uint256"
        }
      ],
      "name": "updateCommunityParams",
      "outputs": [],
      "stateMutability": "nonpayable",
      "type": "function"
    },
    {
      "inputs": [
        {
          "internalType": "contract ICommunity",
          "name": "_community",
          "type": "address"
        },
        {
          "internalType": "contract IERC20",
          "name": "_newToken",
          "type": "address"
        },
        {
          "internalType": "address[]",
          "name": "_exchangePath",
          "type": "address[]"
        },
        {
          "internalType": "uint256",
          "name": "_originalClaimAmount",
          "type": "uint256"
        },
        {
          "internalType": "uint256",
          "name": "_maxTotalClaim",
          "type": "uint256"
        },
        {
          "internalType": "uint256",
          "name": "_decreaseStep",
          "type": "uint256"
        },
        {
          "internalType": "uint256",
          "name": "_baseInterval",
          "type": "uint256"
        },
        {
          "internalType": "uint256",
          "name": "_incrementInterval",
          "type": "uint256"
        }
      ],
      "name": "updateCommunityToken",
      "outputs": [],
      "stateMutability": "nonpayable",
      "type": "function"
    },
    {
      "inputs": [
        {
          "internalType": "contract IImpactMarketCouncil",
          "name": "_newImpactMarketCouncil",
          "type": "address"
        }
      ],
      "name": "updateImpactMarketCouncil",
      "outputs": [],
      "stateMutability": "nonpayable",
      "type": "function"
    },
    {
      "inputs": [
        {
          "internalType": "uint256",
          "name": "_newMinClaimAmountRatio",
          "type": "uint256"
        }
      ],
      "name": "updateMinClaimAmountRatio",
      "outputs": [],
      "stateMutability": "nonpayable",
      "type": "function"
    },
    {
      "inputs": [
        {
          "internalType": "address",
          "name": "_communityMiddleProxy",
          "type": "address"
        },
        {
          "internalType": "address",
          "name": "_newCommunityImplementation",
          "type": "address"
        }
      ],
      "name": "updateProxyImplementation",
      "outputs": [],
      "stateMutability": "nonpayable",
      "type": "function"
    },
    {
      "inputs": [
        {
          "internalType": "contract ITreasury",
          "name": "_newTreasury",
          "type": "address"
        }
      ],
      "name": "updateTreasury",
      "outputs": [],
      "stateMutability": "nonpayable",
      "type": "function"
    },
    {
      "inputs": [
        {
          "internalType": "uint256",
          "name": "_newTreasuryMinBalance",
          "type": "uint256"
        }
      ],
      "name": "updateTreasuryMinBalance",
      "outputs": [],
      "stateMutability": "nonpayable",
      "type": "function"
    },
    {
      "inputs": [
        {
          "internalType": "uint256",
          "name": "_newTreasurySafetyPercentage",
          "type": "uint256"
        }
      ],
      "name": "updateTreasurySafetyPercentage",
      "outputs": [],
      "stateMutability": "nonpayable",
      "type": "function"
    }
  ],
  "transactionHash": "0xd0218c817c28b352aa5f9e2d699914fbd52ba9714cf389f93329420c593c0880",
  "args": [],
  "numDeployments": 5,
  "solcInputHash": "ec349a2ba4f1c3c73af5031ccef83aea",
  "bytecode": "0x608060405234801561001057600080fd5b506159b2806100206000396000f3fe60806040523480156200001157600080fd5b50600436106200029d5760003560e01c80638da5cb5b116200016d578063beabacc811620000d3578063e80d93a21162000092578063e80d93a214620005d1578063f00d096414620005e8578063f1df104014620005f2578063f2fde38b1462000609578063f34ded501462000620578063fbb121b9146200063757600080fd5b8063beabacc81462000561578063becc3ce31462000578578063c0b3444e146200058f578063ca5c285614620005a6578063d7599b6d14620005bd57600080fd5b80639d18788b116200012c5780639d18788b14620004f9578063af2d77f81462000510578063afae65be1462000524578063b1909ef2146200052c578063b39f7ea41462000543578063b94ef2c2146200055757600080fd5b80638da5cb5b146200048e5780638e2d90db14620004a05780638e4254f414620004b75780639263454014620004cb5780639c22d32c14620004e257600080fd5b80634e39da2311620002135780636b68b2ef11620001d25780636b68b2ef146200040d578063715018a614620004175780637c7db5d714620004215780637f2813d2146200042b5780637f51bb1f146200046057806381449efe146200047757600080fd5b80634e39da23146200038f578063502791b614620003a657806361d027b314620003ba5780636a3c386514620003ce5780636b0de23f14620003e557600080fd5b80631fccf67211620002605780631fccf672146200031f5780632de00ddc1462000333578063372a8f4d146200034a57806339f539a21462000361578063485cc955146200037857600080fd5b8063016a041614620002a25780630cb967a314620002d35780630d8e6e2c14620002ec578063174a71d714620002fe5780631d2c93591462000308575b600080fd5b609a54620002b6906001600160a01b031681565b6040516001600160a01b0390911681526020015b60405180910390f35b620002ea620002e436600462003b19565b6200064e565b005b60035b604051908152602001620002ca565b620002ea620006ed565b620002ea6200031936600462003cc7565b62000a03565b609754620002b6906001600160a01b031681565b620002ea6200034436600462003c47565b62000acc565b620002b66200035b36600462003e87565b62000b7d565b620002ea6200037236600462003b57565b62000b92565b620002ea6200038936600462003c47565b62000c10565b620002ea620003a036600462003b19565b62000d61565b609e54620002b6906001600160a01b031681565b609854620002b6906001600160a01b031681565b620002ea620003df36600462003deb565b62000dea565b620003fc620003f636600462003b57565b62000f0a565b6040519015158152602001620002ca565b620002ef60a25481565b620002ea6200102b565b620002ef60a35481565b620004516200043c36600462003b19565b609b6020526000908152604090205460ff1681565b604051620002ca919062004068565b620002ea6200047136600462003b19565b62001066565b620002ea6200048836600462003db4565b620010ef565b6033546001600160a01b0316620002b6565b620002ea620004b136600462003c5a565b6200119a565b609954620002b6906001600160a01b031681565b620002ea620004dc36600462003b19565b62001b74565b620002ea620004f336600462003e87565b62001fa4565b620002ea6200050a36600462003b94565b62002074565b60a154620002b6906001600160a01b031681565b6064620002ef565b620002ef6200053d36600462003b19565b620023fd565b60a054620002b6906001600160a01b031681565b620002ef60a45481565b620002ea6200057236600462003e42565b62002bf3565b620002ea6200058936600462003e87565b62002cb9565b620002ea620005a036600462003e87565b62002d01565b620002ea620005b736600462003b19565b62002de7565b609f54620002b6906001600160a01b031681565b620002ea620005e236600462003b19565b62002e70565b620002ef62002ef9565b620002ea6200060336600462003d1e565b62002f0c565b620002ea6200061a36600462003b19565b62002fb9565b620002ea6200063136600462003b19565b6200305b565b620002b66200064836600462003b19565b620030c0565b6033546001600160a01b03163314620006845760405162461bcd60e51b81526004016200067b9062004116565b60405180910390fd5b60a054604080516001600160a01b03928316815291831660208301527fa5c3a96c9b28d1f0ca36f6d9cc9a8cf138656ee223e4b99adf4a58d10f1048a0910160405180910390a160a080546001600160a01b0319166001600160a01b0392909216919091179055565b6001336000908152609b602052604090205460ff1660038111156200072257634e487b7160e01b600052602160045260246000fd5b14620007715760405162461bcd60e51b815260206004820152601d60248201527f436f6d6d756e69747941646d696e3a204e4f545f434f4d4d554e49545900000060448201526064016200067b565b60003390506000816001600160a01b0316630d8e6e2c6040518163ffffffff1660e01b815260040160206040518083038186803b158015620007b257600080fd5b505afa158015620007c7573d6000803e3d6000fd5b505050506040513d601f19601f82011682018060405250810190620007ed919062003ea0565b6001146200087057816001600160a01b031663fc0c546a6040518163ffffffff1660e01b815260040160206040518083038186803b1580156200082f57600080fd5b505afa15801562000844573d6000803e3d6000fd5b505050506040513d601f19601f820116820180604052508101906200086a919062003b38565b620008e5565b816001600160a01b0316631fccf6726040518163ffffffff1660e01b815260040160206040518083038186803b158015620008aa57600080fd5b505afa158015620008bf573d6000803e3d6000fd5b505050506040513d601f19601f82011682018060405250810190620008e5919062003b38565b6040516370a0823160e01b81523360048201529091506000906001600160a01b038316906370a082319060240160206040518083038186803b1580156200092b57600080fd5b505afa15801562000940573d6000803e3d6000fd5b505050506040513d601f19601f8201168201806040525081019062000966919062003ea0565b905060006200097533620023fd565b905060008111620009f1576040805162461bcd60e51b81526020600482015260248101919091527f436f6d6d756e69747941646d696e3a3a66756e64436f6d6d756e6974793a207460448201527f68697320636f6d6d756e6974792063616e6e6f742072657175657374206e6f7760648201526084016200067b565b620009fd848262003142565b50505050565b6033546001600160a01b0316331462000a305760405162461bcd60e51b81526004016200067b9062004116565b6002606554141562000a565760405162461bcd60e51b81526004016200067b9062004196565b60026065556040516317d5759960e31b81526001600160a01b0385169063beabacc89062000a8d9086908690869060040162003ff4565b600060405180830381600087803b15801562000aa857600080fd5b505af115801562000abd573d6000803e3d6000fd5b50506001606555505050505050565b6033546001600160a01b031633148062000af05750609e546001600160a01b031633145b62000b0f5760405162461bcd60e51b81526004016200067b90620040c6565b609f54604051630b78037760e21b81526001600160a01b038481166004830152838116602483015290911690632de00ddc906044015b600060405180830381600087803b15801562000b6057600080fd5b505af115801562000b75573d6000803e3d6000fd5b505050505050565b600062000b8c609c8362003480565b92915050565b6033546001600160a01b031633148062000bb65750609e546001600160a01b031633145b62000bd55760405162461bcd60e51b81526004016200067b90620040c6565b609a5460405163266a23b160e21b81526001600160a01b0384811660048301528381166024830152909116906399a88ec49060440162000b45565b600054610100900460ff1662000c2d5760005460ff161562000c31565b303b155b62000c965760405162461bcd60e51b815260206004820152602e60248201527f496e697469616c697a61626c653a20636f6e747261637420697320616c72656160448201526d191e481a5b9a5d1a585b1a5e995960921b60648201526084016200067b565b600054610100900460ff1615801562000cb9576000805461ffff19166101011790555b62000cc36200348e565b62000ccd620034cc565b609980546001600160a01b038086166001600160a01b031992831617909255609780549285169290911691909117905560405162000d0b9062003a3a565b604051809103906000f08015801562000d28573d6000803e3d6000fd5b50609a80546001600160a01b0319166001600160a01b0392909216919091179055801562000d5c576000805461ff00191690555b505050565b6033546001600160a01b0316331462000d8e5760405162461bcd60e51b81526004016200067b9062004116565b609f546040516001600160a01b038084169216907fbede3ab527cb73f6396abc70a54cb6637fe75d7f41468cd7b55900027382f7db90600090a3609f80546001600160a01b0319166001600160a01b0392909216919091179055565b6033546001600160a01b031633148062000e0e5750609e546001600160a01b031633145b62000e2d5760405162461bcd60e51b81526004016200067b90620040c6565b604051632fd7910360e01b815260048101879052602481018690526044810185905260648101849052608481018390526001600160a01b03881690632fd791039060a401600060405180830381600087803b15801562000e8c57600080fd5b505af115801562000ea1573d6000803e3d6000fd5b5050604051630c17fd9560e21b8152600481018490526001600160a01b038a16925063305ff6549150602401600060405180830381600087803b15801562000ee857600080fd5b505af115801562000efd573d6000803e3d6000fd5b5050505050505050505050565b609f54604051631611acd760e31b81526001600160a01b0383811660048301528481166024830152600092169063b08d66b89060440160206040518083038186803b15801562000f5957600080fd5b505afa15801562000f6e573d6000803e3d6000fd5b505050506040513d601f19601f8201168201806040525081019062000f94919062003ca5565b80620010245750609f5460405163cb53f50360e01b81526001600160a01b03848116600483015285811660248301529091169063cb53f5039060440160206040518083038186803b15801562000fe957600080fd5b505afa15801562000ffe573d6000803e3d6000fd5b505050506040513d601f19601f8201168201806040525081019062001024919062003ca5565b9392505050565b6033546001600160a01b03163314620010585760405162461bcd60e51b81526004016200067b9062004116565b62001064600062003500565b565b6033546001600160a01b03163314620010935760405162461bcd60e51b81526004016200067b9062004116565b6098546040516001600160a01b038084169216907f4ab5be82436d353e61ca18726e984e561f5c1cc7c6d38b29d2553c790434705a90600090a3609880546001600160a01b0319166001600160a01b0392909216919091179055565b6033546001600160a01b0316331480620011135750609e546001600160a01b031633145b620011325760405162461bcd60e51b81526004016200067b90620040c6565b604051630644b36d60e21b815260048101839052602481018290526001600160a01b03841690631912cdb490604401600060405180830381600087803b1580156200117c57600080fd5b505af115801562001191573d6000803e3d6000fd5b50505050505050565b6033546001600160a01b0316331480620011be5750609e546001600160a01b031633145b620011dd5760405162461bcd60e51b81526004016200067b90620040c6565b60026065541415620012035760405162461bcd60e51b81526004016200067b9062004196565b600260655560036001600160a01b0382166000908152609b602052604090205460ff1660038111156200124657634e487b7160e01b600052602160045260246000fd5b1415620012c75760405162461bcd60e51b815260206004820152604260248201527f436f6d6d756e69747941646d696e3a3a6d696772617465436f6d6d756e69747960448201527f3a207468697320636f6d6d756e69747920686173206265656e206d6967726174606482015261195960f21b608482015260a4016200067b565b6001600160a01b0381166000818152609b60209081526040808320805460ff1916600317905580516303639b8b60e21b81529051929392630d8e6e2c92600480840193919291829003018186803b1580156200132257600080fd5b505afa15801562001337573d6000803e3d6000fd5b505050506040513d601f19601f820116820180604052508101906200135d919062003ea0565b600114620013e057816001600160a01b031663fc0c546a6040518163ffffffff1660e01b815260040160206040518083038186803b1580156200139f57600080fd5b505afa158015620013b4573d6000803e3d6000fd5b505050506040513d601f19601f82011682018060405250810190620013da919062003b38565b62001455565b816001600160a01b0316631fccf6726040518163ffffffff1660e01b815260040160206040518083038186803b1580156200141a57600080fd5b505afa1580156200142f573d6000803e3d6000fd5b505050506040513d601f19601f8201168201806040525081019062001455919062003b38565b905060006003836001600160a01b0316630d8e6e2c6040518163ffffffff1660e01b815260040160206040518083038186803b1580156200149557600080fd5b505afa158015620014aa573d6000803e3d6000fd5b505050506040513d601f19601f82011682018060405250810190620014d0919062003ea0565b10156200155257826001600160a01b031663830953ab6040518163ffffffff1660e01b815260040160206040518083038186803b1580156200151157600080fd5b505afa15801562001526573d6000803e3d6000fd5b505050506040513d601f19601f820116820180604052508101906200154c919062003ea0565b620015c7565b826001600160a01b031663fb7b0a0c6040518163ffffffff1660e01b815260040160206040518083038186803b1580156200158c57600080fd5b505afa158015620015a1573d6000803e3d6000fd5b505050506040513d601f19601f82011682018060405250810190620015c7919062003ea0565b9050600062001991838684876001600160a01b03166378ba280f6040518163ffffffff1660e01b815260040160206040518083038186803b1580156200160c57600080fd5b505afa15801562001621573d6000803e3d6000fd5b505050506040513d601f19601f8201168201806040525081019062001647919062003ea0565b886001600160a01b031663c51fab3c6040518163ffffffff1660e01b815260040160206040518083038186803b1580156200168157600080fd5b505afa15801562001696573d6000803e3d6000fd5b505050506040513d601f19601f82011682018060405250810190620016bc919062003ea0565b896001600160a01b0316630e5b7c536040518163ffffffff1660e01b815260040160206040518083038186803b158015620016f657600080fd5b505afa1580156200170b573d6000803e3d6000fd5b505050506040513d601f19601f8201168201806040525081019062001731919062003ea0565b8a6001600160a01b031663597be18b6040518163ffffffff1660e01b815260040160206040518083038186803b1580156200176b57600080fd5b505afa15801562001780573d6000803e3d6000fd5b505050506040513d601f19601f82011682018060405250810190620017a6919062003ea0565b8b6001600160a01b031663dd4414bb6040518163ffffffff1660e01b815260040160206040518083038186803b158015620017e057600080fd5b505afa158015620017f5573d6000803e3d6000fd5b505050506040513d601f19601f820116820180604052508101906200181b919062003ea0565b8c6001600160a01b0316632b2711176040518163ffffffff1660e01b815260040160206040518083038186803b1580156200185557600080fd5b505afa1580156200186a573d6000803e3d6000fd5b505050506040513d601f19601f8201168201806040525081019062001890919062003ea0565b60018e6001600160a01b0316630d8e6e2c6040518163ffffffff1660e01b815260040160206040518083038186803b158015620018cc57600080fd5b505afa158015620018e1573d6000803e3d6000fd5b505050506040513d601f19601f8201168201806040525081019062001907919062003ea0565b11620019155760006200198a565b8d6001600160a01b031663a0f93a176040518163ffffffff1660e01b815260040160206040518083038186803b1580156200194f57600080fd5b505afa15801562001964573d6000803e3d6000fd5b505050506040513d601f19601f820116820180604052508101906200198a919062003ea0565b8e62003552565b90506001600160a01b038116620019ff5760405162461bcd60e51b815260206004820152602b60248201527f436f6d6d756e69747941646d696e3a3a6d696772617465436f6d6d756e69747960448201526a0e881393d517d59053125160aa1b60648201526084016200067b565b6040516370a0823160e01b81526001600160a01b038581166004830152600091908516906370a082319060240160206040518083038186803b15801562001a4557600080fd5b505afa15801562001a5a573d6000803e3d6000fd5b505050506040513d601f19601f8201168201806040525081019062001a80919062003ea0565b6040516317d5759960e31b81529091506001600160a01b0386169063beabacc89062001ab59087908690869060040162003ff4565b600060405180830381600087803b15801562001ad057600080fd5b505af115801562001ae5573d6000803e3d6000fd5b505050506001600160a01b0382166000908152609b60205260409020805460ff1916600117905562001b19609c8362003647565b50846001600160a01b0316826001600160a01b03167f1c73dbd6259eae88a71a197a742361367d2811051b3de2b22953065b876247af8860405162001b5f919062003f92565b60405180910390a35050600160655550505050565b6033546001600160a01b031633148062001b985750609e546001600160a01b031633145b62001bb75760405162461bcd60e51b81526004016200067b90620040c6565b6002606554141562001bdd5760405162461bcd60e51b81526004016200067b9062004196565b600260655560016001600160a01b0382166000908152609b602052604090205460ff16600381111562001c2057634e487b7160e01b600052602160045260246000fd5b1462001c955760405162461bcd60e51b815260206004820152603d60248201527f436f6d6d756e69747941646d696e3a3a72656d6f7665436f6d6d756e6974793a60448201527f20746869732069736e277420612076616c696420636f6d6d756e69747900000060648201526084016200067b565b6001600160a01b038181166000818152609b602052604090819020805460ff19166002179055609f5490516302498d1560e61b8152600481019290925290911690639263454090602401600060405180830381600087803b15801562001cfa57600080fd5b505af115801562001d0f573d6000803e3d6000fd5b505050506000816001600160a01b0316630d8e6e2c6040518163ffffffff1660e01b815260040160206040518083038186803b15801562001d4f57600080fd5b505afa15801562001d64573d6000803e3d6000fd5b505050506040513d601f19601f8201168201806040525081019062001d8a919062003ea0565b60011462001e0d57816001600160a01b031663fc0c546a6040518163ffffffff1660e01b815260040160206040518083038186803b15801562001dcc57600080fd5b505afa15801562001de1573d6000803e3d6000fd5b505050506040513d601f19601f8201168201806040525081019062001e07919062003b38565b62001e82565b816001600160a01b0316631fccf6726040518163ffffffff1660e01b815260040160206040518083038186803b15801562001e4757600080fd5b505afa15801562001e5c573d6000803e3d6000fd5b505050506040513d601f19601f8201168201806040525081019062001e82919062003b38565b6098546040516370a0823160e01b81526001600160a01b038581166004830181905293945063beabacc8928592908216918316906370a082319060240160206040518083038186803b15801562001ed857600080fd5b505afa15801562001eed573d6000803e3d6000fd5b505050506040513d601f19601f8201168201806040525081019062001f13919062003ea0565b6040518463ffffffff1660e01b815260040162001f339392919062003ff4565b600060405180830381600087803b15801562001f4e57600080fd5b505af115801562001f63573d6000803e3d6000fd5b50506040516001600160a01b03851692507fa285b77d62d36ec6881b2cbc019c53874eb061798176f3577f2beab0848d16c69150600090a250506001606555565b6033546001600160a01b031633148062001fc85750609e546001600160a01b031633145b62001fe75760405162461bcd60e51b81526004016200067b90620040c6565b60648110156200206f5760405162461bcd60e51b815260206004820152604660248201527f436f6d6d756e69747941646d696e3a3a7570646174654d696e436c61696d416d60448201527f6f756e74526174696f3a20496e76616c6964206d696e436c61696d416d6f756e60648201526574526174696f60d01b608482015260a4016200067b565b60a255565b6033546001600160a01b0316331480620020985750609e546001600160a01b031633145b620020b75760405162461bcd60e51b81526004016200067b90620040c6565b60008a5111620021415760405162461bcd60e51b815260206004820152604860248201527f436f6d6d756e69747941646d696e3a3a616464436f6d6d756e6974793a20436f60448201527f6d6d756e6974792073686f756c642068617665206174206c65617374206f6e656064820152671036b0b730b3b2b960c11b608482015260a4016200067b565b6000620021598c8c8b8b8b8b8b8b8b8b600062003552565b90506001600160a01b038116620021c35760405162461bcd60e51b815260206004820152602760248201527f436f6d6d756e69747941646d696e3a3a616464436f6d6d756e6974793a204e4f6044820152661517d59053125160ca1b60648201526084016200067b565b6001600160a01b0381166000908152609b60205260409020805460ff19166001179055620021f3609c8262003647565b50609f54604051630b78037760e21b81526001600160a01b038c81166004830152838116602483015290911690632de00ddc90604401600060405180830381600087803b1580156200224457600080fd5b505af115801562002259573d6000803e3d6000fd5b50505050806001600160a01b03167fd975f7d7350dc54e14ea0400bad2e29483d76cb8810f36f1f520d5c44c1dcf028c8b8b8b8b8b8b8b604051620022a698979695949392919062003fa7565b60405180910390a2620022ba818562003142565b6097546098546040516370a0823160e01b81526001600160a01b03918216600482015266b1a2bc2ec500009291909116906370a082319060240160206040518083038186803b1580156200230d57600080fd5b505afa15801562002322573d6000803e3d6000fd5b505050506040513d601f19601f8201168201806040525081019062002348919062003ea0565b10620023ef576098546097548c516001600160a01b039283169263beabacc89216908e906000906200238a57634e487b7160e01b600052603260045260246000fd5b602002602001015166b1a2bc2ec500006040518463ffffffff1660e01b8152600401620023ba9392919062003ff4565b600060405180830381600087803b158015620023d557600080fd5b505af1158015620023ea573d6000803e3d6000fd5b505050505b505050505050505050505050565b600080826001600160a01b0316630d8e6e2c6040518163ffffffff1660e01b815260040160206040518083038186803b1580156200243a57600080fd5b505afa1580156200244f573d6000803e3d6000fd5b505050506040513d601f19601f8201168201806040525081019062002475919062003ea0565b600114620024f857826001600160a01b031663fc0c546a6040518163ffffffff1660e01b815260040160206040518083038186803b158015620024b757600080fd5b505afa158015620024cc573d6000803e3d6000fd5b505050506040513d601f19601f82011682018060405250810190620024f2919062003b38565b6200256d565b826001600160a01b0316631fccf6726040518163ffffffff1660e01b815260040160206040518083038186803b1580156200253257600080fd5b505afa15801562002547573d6000803e3d6000fd5b505050506040513d601f19601f820116820180604052508101906200256d919062003b38565b6040516370a0823160e01b81526001600160a01b0385811660048301529192506000918316906370a082319060240160206040518083038186803b158015620025b557600080fd5b505afa158015620025ca573d6000803e3d6000fd5b505050506040513d601f19601f82011682018060405250810190620025f0919062003ea0565b90506000846001600160a01b031663dd4414bb6040518163ffffffff1660e01b815260040160206040518083038186803b1580156200262e57600080fd5b505afa15801562002643573d6000803e3d6000fd5b505050506040513d601f19601f8201168201806040525081019062002669919062003ea0565b90506000856001600160a01b0316632b2711176040518163ffffffff1660e01b815260040160206040518083038186803b158015620026a757600080fd5b505afa158015620026bc573d6000803e3d6000fd5b505050506040513d601f19601f82011682018060405250810190620026e2919062003ea0565b9050856001600160a01b031663dd4414bb6040518163ffffffff1660e01b815260040160206040518083038186803b1580156200271e57600080fd5b505afa15801562002733573d6000803e3d6000fd5b505050506040513d601f19601f8201168201806040525081019062002759919062003ea0565b831015806200285d5750856001600160a01b0316630e5b7c536040518163ffffffff1660e01b815260040160206040518083038186803b1580156200279d57600080fd5b505afa158015620027b2573d6000803e3d6000fd5b505050506040513d601f19601f82011682018060405250810190620027d8919062003ea0565b866001600160a01b03166309c338c36040518163ffffffff1660e01b815260040160206040518083038186803b1580156200281257600080fd5b505afa15801562002827573d6000803e3d6000fd5b505050506040513d601f19601f820116820180604052508101906200284d919062003ea0565b620028599190620041cd565b4311155b80620028ea575060a4546098546040516370a0823160e01b81526001600160a01b039182166004820152908616906370a082319060240160206040518083038186803b158015620028ad57600080fd5b505afa158015620028c2573d6000803e3d6000fd5b505050506040513d601f19601f82011682018060405250810190620028e8919062003ea0565b105b80620028f4575080155b15620029065750600095945050505050565b6000866001600160a01b031663431a801a6040518163ffffffff1660e01b815260040160206040518083038186803b1580156200294257600080fd5b505afa15801562002957573d6000803e3d6000fd5b505050506040513d601f19601f820116820180604052508101906200297d919062003ea0565b905060006003886001600160a01b0316630d8e6e2c6040518163ffffffff1660e01b815260040160206040518083038186803b158015620029bd57600080fd5b505afa158015620029d2573d6000803e3d6000fd5b505050506040513d601f19601f82011682018060405250810190620029f8919062003ea0565b101562002a7a57876001600160a01b031663830953ab6040518163ffffffff1660e01b815260040160206040518083038186803b15801562002a3957600080fd5b505afa15801562002a4e573d6000803e3d6000fd5b505050506040513d601f19601f8201168201806040525081019062002a74919062003ea0565b62002aef565b876001600160a01b031663fb7b0a0c6040518163ffffffff1660e01b815260040160206040518083038186803b15801562002ab457600080fd5b505afa15801562002ac9573d6000803e3d6000fd5b505050506040513d601f19601f8201168201806040525081019062002aef919062003ea0565b9050600062002aff828462004209565b90508481101562002b0d5750835b8381111562002b195750825b60008682111562002be65762002b3087836200422b565b60a3546098546040516370a0823160e01b81526001600160a01b039182166004820152929350600092606492918c16906370a082319060240160206040518083038186803b15801562002b8257600080fd5b505afa15801562002b97573d6000803e3d6000fd5b505050506040513d601f19601f8201168201806040525081019062002bbd919062003ea0565b62002bc9919062004209565b62002bd59190620041e8565b90508082111562002be4578091505b505b9998505050505050505050565b6033546001600160a01b0316331462002c205760405162461bcd60e51b81526004016200067b9062004116565b6002606554141562002c465760405162461bcd60e51b81526004016200067b9062004196565b600260655562002c616001600160a01b03841683836200365e565b816001600160a01b0316836001600160a01b03167f9b035625e569d1d2bf54830a290aefba7ab11610ba8490871dc62b86b63a89568360405162002ca791815260200190565b60405180910390a35050600160655550565b6033546001600160a01b031633148062002cdd5750609e546001600160a01b031633145b62002cfc5760405162461bcd60e51b81526004016200067b90620040c6565b60a455565b6033546001600160a01b031633148062002d255750609e546001600160a01b031633145b62002d445760405162461bcd60e51b81526004016200067b90620040c6565b60008111801562002d555750606581105b62002de25760405162461bcd60e51b815260206004820152605060248201527f436f6d6d756e69747941646d696e3a3a7570646174655472656173757279536160448201527f6665747950657263656e746167653a20496e76616c696420747265617375727960648201526f53616665747950657263656e7461676560801b608482015260a4016200067b565b60a355565b6033546001600160a01b0316331462002e145760405162461bcd60e51b81526004016200067b9062004116565b609e546040516001600160a01b038084169216907feb64427276ab0ae1551ebf3002b4c3b44251a38b60c5d25daa1dad4e05876cc490600090a3609e80546001600160a01b0319166001600160a01b0392909216919091179055565b6033546001600160a01b0316331462002e9d5760405162461bcd60e51b81526004016200067b9062004116565b6099546040516001600160a01b038084169216907f0c6ac7336660be2921bd3e55b4c1013a87f9910af2d753f099453a0ea160915a90600090a3609980546001600160a01b0319166001600160a01b0392909216919091179055565b600062002f07609c620036b2565b905090565b6033546001600160a01b031633148062002f305750609e546001600160a01b031633145b62002f4f5760405162461bcd60e51b81526004016200067b90620040c6565b604051631bc1ca3560e11b81526001600160a01b03891690633783946a9062002f89908a908a908a908a908a908a908a9060040162004018565b600060405180830381600087803b15801562002fa457600080fd5b505af1158015620023ef573d6000803e3d6000fd5b6033546001600160a01b0316331462002fe65760405162461bcd60e51b81526004016200067b9062004116565b6001600160a01b0381166200304d5760405162461bcd60e51b815260206004820152602660248201527f4f776e61626c653a206e6577206f776e657220697320746865207a65726f206160448201526564647265737360d01b60648201526084016200067b565b620030588162003500565b50565b6033546001600160a01b03163314806200307f5750609e546001600160a01b031633145b6200309e5760405162461bcd60e51b81526004016200067b90620040c6565b60a180546001600160a01b0319166001600160a01b0392909216919091179055565b609a546040516310270e3d60e11b81526001600160a01b038381166004830152600092169063204e1c7a9060240160206040518083038186803b1580156200310757600080fd5b505afa1580156200311c573d6000803e3d6000fd5b505050506040513d601f19601f8201168201806040525081019062000b8c919062003b38565b60026065541415620031685760405162461bcd60e51b81526004016200067b9062004196565b60026065819055506000826001600160a01b0316630d8e6e2c6040518163ffffffff1660e01b815260040160206040518083038186803b158015620031ac57600080fd5b505afa158015620031c1573d6000803e3d6000fd5b505050506040513d601f19601f82011682018060405250810190620031e7919062003ea0565b6001146200326a57826001600160a01b031663fc0c546a6040518163ffffffff1660e01b815260040160206040518083038186803b1580156200322957600080fd5b505afa1580156200323e573d6000803e3d6000fd5b505050506040513d601f19601f8201168201806040525081019062003264919062003b38565b620032df565b826001600160a01b0316631fccf6726040518163ffffffff1660e01b815260040160206040518083038186803b158015620032a457600080fd5b505afa158015620032b9573d6000803e3d6000fd5b505050506040513d601f19601f82011682018060405250810190620032df919062003b38565b6098546040516370a0823160e01b81526001600160a01b0391821660048201529192508391908316906370a082319060240160206040518083038186803b1580156200332a57600080fd5b505afa1580156200333f573d6000803e3d6000fd5b505050506040513d601f19601f8201168201806040525081019062003365919062003ea0565b1062003476576098546040516317d5759960e31b81526001600160a01b039091169063beabacc890620033a19084908790879060040162003ff4565b600060405180830381600087803b158015620033bc57600080fd5b505af1158015620033d1573d6000803e3d6000fd5b5050604051635c04f74160e11b8152600481018590526001600160a01b038616925063b809ee829150602401600060405180830381600087803b1580156200341857600080fd5b505af11580156200342d573d6000803e3d6000fd5b50505050826001600160a01b03167f1e951788684f9b9e5c219261ce05daaa0f58ead974c796e6311b1da4c8657af1836040516200346d91815260200190565b60405180910390a25b5050600160655550565b6000620010248383620036bd565b600054610100900460ff16620034b85760405162461bcd60e51b81526004016200067b906200414b565b620034c2620036f6565b6200106462003720565b600054610100900460ff16620034f65760405162461bcd60e51b81526004016200067b906200414b565b6200106462003755565b603380546001600160a01b038381166001600160a01b0319831681179093556040519116919082907f8be0079c531659141344cd1fd0a4f28419497f9722a3daafe3b4186f6b6457e090600090a35050565b60a054609a5460405160009283926001600160a01b03918216929116906200357a9062003a48565b6001600160a01b03928316815291166020820152606060408201819052600090820152608001604051809103906000f080158015620035bd573d6000803e3d6000fd5b509050806001600160a01b0316630b4e78178e8e8e8e8e8e8e8e8e8e8e6040518c63ffffffff1660e01b8152600401620036029b9a9998979695949392919062003f1c565b600060405180830381600087803b1580156200361d57600080fd5b505af115801562003632573d6000803e3d6000fd5b50929f9e505050505050505050505050505050565b600062001024836001600160a01b03841662003786565b604080516001600160a01b038416602482015260448082018490528251808303909101815260649091019091526020810180516001600160e01b031663a9059cbb60e01b17905262000d5c908490620037d8565b600062000b8c825490565b6000826000018281548110620036e357634e487b7160e01b600052603260045260246000fd5b9060005260206000200154905092915050565b600054610100900460ff16620010645760405162461bcd60e51b81526004016200067b906200414b565b600054610100900460ff166200374a5760405162461bcd60e51b81526004016200067b906200414b565b620010643362003500565b600054610100900460ff166200377f5760405162461bcd60e51b81526004016200067b906200414b565b6001606555565b6000818152600183016020526040812054620037cf5750815460018181018455600084815260208082209093018490558454848252828601909352604090209190915562000b8c565b50600062000b8c565b60006200382f826040518060400160405280602081526020017f5361666545524332303a206c6f772d6c6576656c2063616c6c206661696c6564815250856001600160a01b0316620038b19092919063ffffffff16565b80519091501562000d5c578080602001905181019062003850919062003ca5565b62000d5c5760405162461bcd60e51b815260206004820152602a60248201527f5361666545524332303a204552433230206f7065726174696f6e20646964206e6044820152691bdd081cdd58d8d9595960b21b60648201526084016200067b565b6060620038c28484600085620038ca565b949350505050565b6060824710156200392d5760405162461bcd60e51b815260206004820152602660248201527f416464726573733a20696e73756666696369656e742062616c616e636520666f6044820152651c8818d85b1b60d21b60648201526084016200067b565b843b6200397d5760405162461bcd60e51b815260206004820152601d60248201527f416464726573733a2063616c6c20746f206e6f6e2d636f6e747261637400000060448201526064016200067b565b600080866001600160a01b031685876040516200399b919062003efe565b60006040518083038185875af1925050503d8060008114620039da576040519150601f19603f3d011682016040523d82523d6000602084013e620039df565b606091505b5091509150620039f1828286620039fc565b979650505050505050565b6060831562003a0d57508162001024565b82511562003a1e5782518084602001fd5b8160405162461bcd60e51b81526004016200067b919062004091565b61079780620042b783390190565b610f2f8062004a4e83390190565b803562003a6381620042a0565b919050565b600082601f83011262003a79578081fd5b8135602067ffffffffffffffff8083111562003a995762003a996200428a565b8260051b604051601f19603f8301168101818110848211171562003ac15762003ac16200428a565b6040528481528381019250868401828801850189101562003ae0578687fd5b8692505b8583101562003b0d5762003af88162003a56565b84529284019260019290920191840162003ae4565b50979650505050505050565b60006020828403121562003b2b578081fd5b81356200102481620042a0565b60006020828403121562003b4a578081fd5b81516200102481620042a0565b6000806040838503121562003b6a578081fd5b823562003b7781620042a0565b9150602083013562003b8981620042a0565b809150509250929050565b60008060008060008060008060008060006101608c8e03121562003bb6578687fd5b8b3562003bc381620042a0565b9a5060208c013567ffffffffffffffff81111562003bdf578788fd5b62003bed8e828f0162003a68565b9a505060408c013562003c0081620042a0565b9a9d999c50999a60608101359a5060808101359960a0820135995060c0820135985060e0820135975061010082013596506101208201359550610140909101359350915050565b6000806040838503121562003b6a578182fd5b6000806040838503121562003c6d578182fd5b823567ffffffffffffffff81111562003c84578283fd5b62003c928582860162003a68565b925050602083013562003b8981620042a0565b60006020828403121562003cb7578081fd5b8151801515811462001024578182fd5b6000806000806080858703121562003cdd578384fd5b843562003cea81620042a0565b9350602085013562003cfc81620042a0565b9250604085013562003d0e81620042a0565b9396929550929360600135925050565b600080600080600080600080610100898b03121562003d3b578182fd5b883562003d4881620042a0565b9750602089013562003d5a81620042a0565b9650604089013567ffffffffffffffff81111562003d76578283fd5b62003d848b828c0162003a68565b989b979a5097986060810135985060808101359760a0820135975060c0820135965060e090910135945092505050565b60008060006060848603121562003dc9578081fd5b833562003dd681620042a0565b95602085013595506040909401359392505050565b600080600080600080600060e0888a03121562003e06578081fd5b873562003e1381620042a0565b9960208901359950604089013598606081013598506080810135975060a0810135965060c00135945092505050565b60008060006060848603121562003e57578081fd5b833562003e6481620042a0565b9250602084013562003e7681620042a0565b929592945050506040919091013590565b60006020828403121562003e99578081fd5b5035919050565b60006020828403121562003eb2578081fd5b5051919050565b6000815180845260208085019450808401835b8381101562003ef35781516001600160a01b03168752958201959082019060010162003ecc565b509495945050505050565b6000825162003f1281846020870162004245565b9190910192915050565b6001600160a01b038c811682526101606020830181905260009162003f448483018f62003eb9565b604085019d909d52606084019b909b525050608081019790975260a087019590955260c086019390935260e08501919091526101008401526101208301529091166101409091015292915050565b60208152600062001024602083018462003eb9565b600061010080835262003fbd8184018c62003eb9565b602084019a909a52505060408101969096526060860194909452608085019290925260a084015260c083015260e090910152919050565b6001600160a01b039384168152919092166020820152604081019190915260600190565b6001600160a01b038816815260e0602082018190526000906200403e9083018962003eb9565b6040830197909752506060810194909452608084019290925260a083015260c09091015292915050565b60208101600483106200408b57634e487b7160e01b600052602160045260246000fd5b91905290565b6020815260008251806020840152620040b281604085016020870162004245565b601f01601f19169190910160400192915050565b60208082526030908201527f436f6d6d756e69747941646d696e3a204e6f74204f776e6572204f7220496d7060408201526f1858dd13585c9ad95d10dbdd5b98da5b60821b606082015260800190565b6020808252818101527f4f776e61626c653a2063616c6c6572206973206e6f7420746865206f776e6572604082015260600190565b6020808252602b908201527f496e697469616c697a61626c653a20636f6e7472616374206973206e6f74206960408201526a6e697469616c697a696e6760a81b606082015260800190565b6020808252601f908201527f5265656e7472616e637947756172643a207265656e7472616e742063616c6c00604082015260600190565b60008219821115620041e357620041e362004274565b500190565b6000826200420457634e487b7160e01b81526012600452602481fd5b500490565b600081600019048311821515161562004226576200422662004274565b500290565b60008282101562004240576200424062004274565b500390565b60005b838110156200426257818101518382015260200162004248565b83811115620009fd5750506000910152565b634e487b7160e01b600052601160045260246000fd5b634e487b7160e01b600052604160045260246000fd5b6001600160a01b03811681146200305857600080fdfe608060405234801561001057600080fd5b5061001a3361001f565b61006f565b600080546001600160a01b038381166001600160a01b0319831681178455604051919092169283917f8be0079c531659141344cd1fd0a4f28419497f9722a3daafe3b4186f6b6457e09190a35050565b6107198061007e6000396000f3fe60806040526004361061007b5760003560e01c80639623609d1161004e5780639623609d1461011157806399a88ec414610124578063f2fde38b14610144578063f3b7dead1461016457600080fd5b8063204e1c7a14610080578063715018a6146100bc5780637eff275e146100d35780638da5cb5b146100f3575b600080fd5b34801561008c57600080fd5b506100a061009b3660046104d8565b610184565b6040516001600160a01b03909116815260200160405180910390f35b3480156100c857600080fd5b506100d1610215565b005b3480156100df57600080fd5b506100d16100ee366004610517565b610254565b3480156100ff57600080fd5b506000546001600160a01b03166100a0565b6100d161011f36600461054f565b6102de565b34801561013057600080fd5b506100d161013f366004610517565b61036f565b34801561015057600080fd5b506100d161015f3660046104d8565b6103c7565b34801561017057600080fd5b506100a061017f3660046104d8565b610462565b6000806000836001600160a01b03166040516101aa90635c60da1b60e01b815260040190565b600060405180830381855afa9150503d80600081146101e5576040519150601f19603f3d011682016040523d82523d6000602084013e6101ea565b606091505b5091509150816101f957600080fd5b8080602001905181019061020d91906104fb565b949350505050565b6000546001600160a01b031633146102485760405162461bcd60e51b815260040161023f90610683565b60405180910390fd5b6102526000610488565b565b6000546001600160a01b0316331461027e5760405162461bcd60e51b815260040161023f90610683565b6040516308f2839760e41b81526001600160a01b038281166004830152831690638f283970906024015b600060405180830381600087803b1580156102c257600080fd5b505af11580156102d6573d6000803e3d6000fd5b505050505050565b6000546001600160a01b031633146103085760405162461bcd60e51b815260040161023f90610683565b60405163278f794360e11b81526001600160a01b03841690634f1ef2869034906103389086908690600401610620565b6000604051808303818588803b15801561035157600080fd5b505af1158015610365573d6000803e3d6000fd5b5050505050505050565b6000546001600160a01b031633146103995760405162461bcd60e51b815260040161023f90610683565b604051631b2ce7f360e11b81526001600160a01b038281166004830152831690633659cfe6906024016102a8565b6000546001600160a01b031633146103f15760405162461bcd60e51b815260040161023f90610683565b6001600160a01b0381166104565760405162461bcd60e51b815260206004820152602660248201527f4f776e61626c653a206e6577206f776e657220697320746865207a65726f206160448201526564647265737360d01b606482015260840161023f565b61045f81610488565b50565b6000806000836001600160a01b03166040516101aa906303e1469160e61b815260040190565b600080546001600160a01b038381166001600160a01b0319831681178455604051919092169283917f8be0079c531659141344cd1fd0a4f28419497f9722a3daafe3b4186f6b6457e09190a35050565b6000602082840312156104e9578081fd5b81356104f4816106ce565b9392505050565b60006020828403121561050c578081fd5b81516104f4816106ce565b60008060408385031215610529578081fd5b8235610534816106ce565b91506020830135610544816106ce565b809150509250929050565b600080600060608486031215610563578081fd5b833561056e816106ce565b9250602084013561057e816106ce565b9150604084013567ffffffffffffffff8082111561059a578283fd5b818601915086601f8301126105ad578283fd5b8135818111156105bf576105bf6106b8565b604051601f8201601f19908116603f011681019083821181831017156105e7576105e76106b8565b816040528281528960208487010111156105ff578586fd5b82602086016020830137856020848301015280955050505050509250925092565b60018060a01b0383168152600060206040818401528351806040850152825b8181101561065b5785810183015185820160600152820161063f565b8181111561066c5783606083870101525b50601f01601f191692909201606001949350505050565b6020808252818101527f4f776e61626c653a2063616c6c6572206973206e6f7420746865206f776e6572604082015260600190565b634e487b7160e01b600052604160045260246000fd5b6001600160a01b038116811461045f57600080fdfea2646970667358221220e38caf5ca305d28cfea5924808a41fd6f9ab62ed165ed1becf8858d95ea882a264736f6c63430008040033608060405260405162000f2f38038062000f2f8339810160408190526200002691620004da565b82816200005560017f360894a13ba1a3210667c828492db98dca3e2076cc3735a920a3ca505d382bbd62000609565b60008051602062000ee8833981519152146200008157634e487b7160e01b600052600160045260246000fd5b6200008f82826000620000ff565b50620000bf905060017fb53127684a568b3173ae13b9f8a6016e243e63b6e8ee1178d6a717850b5d610462000609565b60008051602062000ec883398151915214620000eb57634e487b7160e01b600052600160045260246000fd5b620000f6826200013c565b50505062000672565b6200010a8362000197565b600082511180620001185750805b156200013757620001358383620001d960201b620002601760201c565b505b505050565b7f7e644d79422f17c01e4894b5f4f588d331ebfa28653d42ae832dc59e38c9798f6200016762000208565b604080516001600160a01b03928316815291841660208301520160405180910390a1620001948162000241565b50565b620001a281620002f6565b6040516001600160a01b038216907fbc7cd75a20ee27fd9adebab32041f755214dbc6bffa90cc0225b39da2e5c2d3b90600090a250565b606062000201838360405180606001604052806027815260200162000f086027913962000399565b9392505050565b60006200023260008051602062000ec883398151915260001b6200047660201b620002081760201c565b546001600160a01b0316919050565b6001600160a01b038116620002ac5760405162461bcd60e51b815260206004820152602660248201527f455243313936373a206e65772061646d696e20697320746865207a65726f206160448201526564647265737360d01b60648201526084015b60405180910390fd5b80620002d560008051602062000ec883398151915260001b6200047660201b620002081760201c565b80546001600160a01b0319166001600160a01b039290921691909117905550565b6200030c816200047960201b6200028c1760201c565b620003705760405162461bcd60e51b815260206004820152602d60248201527f455243313936373a206e657720696d706c656d656e746174696f6e206973206e60448201526c1bdd08184818dbdb9d1c9858dd609a1b6064820152608401620002a3565b80620002d560008051602062000ee883398151915260001b6200047660201b620002081760201c565b6060833b620003fa5760405162461bcd60e51b815260206004820152602660248201527f416464726573733a2064656c65676174652063616c6c20746f206e6f6e2d636f6044820152651b9d1c9858dd60d21b6064820152608401620002a3565b600080856001600160a01b031685604051620004179190620005b6565b600060405180830381855af49150503d806000811462000454576040519150601f19603f3d011682016040523d82523d6000602084013e62000459565b606091505b5090925090506200046c8282866200047f565b9695505050505050565b90565b3b151590565b606083156200049057508162000201565b825115620004a15782518084602001fd5b8160405162461bcd60e51b8152600401620002a39190620005d4565b80516001600160a01b0381168114620004d557600080fd5b919050565b600080600060608486031215620004ef578283fd5b620004fa84620004bd565b92506200050a60208501620004bd565b60408501519092506001600160401b038082111562000527578283fd5b818601915086601f8301126200053b578283fd5b8151818111156200055057620005506200065c565b604051601f8201601f19908116603f011681019083821181831017156200057b576200057b6200065c565b8160405282815289602084870101111562000594578586fd5b620005a78360208301602088016200062d565b80955050505050509250925092565b60008251620005ca8184602087016200062d565b9190910192915050565b6020815260008251806020840152620005f58160408501602087016200062d565b601f01601f19169190910160400192915050565b6000828210156200062857634e487b7160e01b81526011600452602481fd5b500390565b60005b838110156200064a57818101518382015260200162000630565b83811115620001355750506000910152565b634e487b7160e01b600052604160045260246000fd5b61084680620006826000396000f3fe60806040526004361061004e5760003560e01c80633659cfe6146100655780634f1ef286146100855780635c60da1b146100985780638f283970146100c9578063f851a440146100e95761005d565b3661005d5761005b6100fe565b005b61005b6100fe565b34801561007157600080fd5b5061005b6100803660046106d6565b610118565b61005b6100933660046106f0565b61015f565b3480156100a457600080fd5b506100ad6101d0565b6040516001600160a01b03909116815260200160405180910390f35b3480156100d557600080fd5b5061005b6100e43660046106d6565b61020b565b3480156100f557600080fd5b506100ad610235565b610106610292565b610116610111610331565b61033b565b565b61012061035f565b6001600160a01b0316336001600160a01b031614156101575761015481604051806020016040528060008152506000610392565b50565b6101546100fe565b61016761035f565b6001600160a01b0316336001600160a01b031614156101c8576101c38383838080601f01602080910402602001604051908101604052809392919081815260200183838082843760009201919091525060019250610392915050565b505050565b6101c36100fe565b60006101da61035f565b6001600160a01b0316336001600160a01b03161415610200576101fb610331565b905090565b6102086100fe565b90565b61021361035f565b6001600160a01b0316336001600160a01b0316141561015757610154816103bd565b600061023f61035f565b6001600160a01b0316336001600160a01b03161415610200576101fb61035f565b606061028583836040518060600160405280602781526020016107ea60279139610411565b9392505050565b3b151590565b61029a61035f565b6001600160a01b0316336001600160a01b031614156101165760405162461bcd60e51b815260206004820152604260248201527f5472616e73706172656e745570677261646561626c6550726f78793a2061646d60448201527f696e2063616e6e6f742066616c6c6261636b20746f2070726f78792074617267606482015261195d60f21b608482015260a4015b60405180910390fd5b60006101fb6104e5565b3660008037600080366000845af43d6000803e80801561035a573d6000f35b3d6000fd5b60007fb53127684a568b3173ae13b9f8a6016e243e63b6e8ee1178d6a717850b5d61035b546001600160a01b0316919050565b61039b8361050d565b6000825111806103a85750805b156101c3576103b78383610260565b50505050565b7f7e644d79422f17c01e4894b5f4f588d331ebfa28653d42ae832dc59e38c9798f6103e661035f565b604080516001600160a01b03928316815291841660208301520160405180910390a16101548161054d565b6060833b6104705760405162461bcd60e51b815260206004820152602660248201527f416464726573733a2064656c65676174652063616c6c20746f206e6f6e2d636f6044820152651b9d1c9858dd60d21b6064820152608401610328565b600080856001600160a01b03168560405161048b919061076e565b600060405180830381855af49150503d80600081146104c6576040519150601f19603f3d011682016040523d82523d6000602084013e6104cb565b606091505b50915091506104db8282866105f6565b9695505050505050565b60007f360894a13ba1a3210667c828492db98dca3e2076cc3735a920a3ca505d382bbc610383565b6105168161062f565b6040516001600160a01b038216907fbc7cd75a20ee27fd9adebab32041f755214dbc6bffa90cc0225b39da2e5c2d3b90600090a250565b6001600160a01b0381166105b25760405162461bcd60e51b815260206004820152602660248201527f455243313936373a206e65772061646d696e20697320746865207a65726f206160448201526564647265737360d01b6064820152608401610328565b807fb53127684a568b3173ae13b9f8a6016e243e63b6e8ee1178d6a717850b5d61035b80546001600160a01b0319166001600160a01b039290921691909117905550565b60608315610605575081610285565b8251156106155782518084602001fd5b8160405162461bcd60e51b8152600401610328919061078a565b803b6106935760405162461bcd60e51b815260206004820152602d60248201527f455243313936373a206e657720696d706c656d656e746174696f6e206973206e60448201526c1bdd08184818dbdb9d1c9858dd609a1b6064820152608401610328565b807f360894a13ba1a3210667c828492db98dca3e2076cc3735a920a3ca505d382bbc6105d5565b80356001600160a01b03811681146106d157600080fd5b919050565b6000602082840312156106e7578081fd5b610285826106ba565b600080600060408486031215610704578182fd5b61070d846106ba565b9250602084013567ffffffffffffffff80821115610729578384fd5b818601915086601f83011261073c578384fd5b81358181111561074a578485fd5b87602082850101111561075b578485fd5b6020830194508093505050509250925092565b600082516107808184602087016107bd565b9190910192915050565b60208152600082518060208401526107a98160408501602087016107bd565b601f01601f19169190910160400192915050565b60005b838110156107d85781810151838201526020016107c0565b838111156103b7575050600091015256fe416464726573733a206c6f772d6c6576656c2064656c65676174652063616c6c206661696c6564a2646970667358221220675814b80ddcb309746b9826ddefd683cc86b7ea3c0b94e9b1325c4b1e1cb1a764736f6c63430008040033b53127684a568b3173ae13b9f8a6016e243e63b6e8ee1178d6a717850b5d6103360894a13ba1a3210667c828492db98dca3e2076cc3735a920a3ca505d382bbc416464726573733a206c6f772d6c6576656c2064656c65676174652063616c6c206661696c6564a264697066735822122069ee6fb71b805f11fce578df08f450abc24dc5a8ee62e88b5825c60142a2c9eb64736f6c63430008040033",
  "devdoc": {
    "events": {
      "AmbassadorsUpdated(address,address)": {
        "params": {
          "newAmbassadors": "New Ambassador address",
          "oldAmbassadors": "Old Ambassador address"
        }
      },
      "CommunityAdded(address,address[],uint256,uint256,uint256,uint256,uint256,uint256,uint256)": {
        "params": {
          "baseInterval": "Value of the baseInterval",
          "communityAddress": "Address of the community that has been added",
          "decreaseStep": "Value of the decreaseStep",
          "incrementInterval": "Value of the incrementInterval",
          "managers": "Addresses of the initial managers",
          "maxTotalClaim": "Value of the maxTotalClaim",
          "maxTranche": "Value of the maxTranche For further information regarding each parameter, see *Community* smart contract initialize method.",
          "minTranche": "Value of the minTranche",
          "originalClaimAmount": "Value of the originalClaimAmount"
        }
      },
      "CommunityFunded(address,uint256)": {
        "params": {
          "amount": "Amount of the funding",
          "community": "Address of the community"
        }
      },
      "CommunityImplementationUpdated(address,address)": {
        "params": {
          "newCommunityImplementation": "New communityImplementation address",
          "oldCommunityImplementation": "Old communityImplementation address"
        }
      },
      "CommunityMiddleProxyUpdated(address,address)": {
        "params": {
          "newCommunityMiddleProxy": "New communityMiddleProxy address",
          "oldCommunityMiddleProxy": "Old communityMiddleProxy address"
        }
      },
      "CommunityMigrated(address[],address,address)": {
        "params": {
          "communityAddress": "New community address",
          "managers": "Addresses of the new community's initial managers",
          "previousCommunityAddress": "Old community address"
        }
      },
      "CommunityRemoved(address)": {
        "params": {
          "communityAddress": "Address of the community that has been removed"
        }
      },
      "ImpactMarketCouncilUpdated(address,address)": {
        "params": {
          "newImpactMarketCouncil": "New impactMarket Council address",
          "oldImpactMarketCouncil": "Old impactMarket Council address"
        }
      },
      "TransferERC20(address,address,uint256)": {
        "params": {
          "amount": "Amount of the transaction",
          "to": "Address of the receiver",
          "token": "ERC20 token address"
        }
      },
      "TreasuryUpdated(address,address)": {
        "params": {
          "newTreasury": "New treasury address",
          "oldTreasury": "Old treasury address"
        }
      }
    },
    "kind": "dev",
    "methods": {
      "addCommunity(address,address[],address,uint256,uint256,uint256,uint256,uint256,uint256,uint256,uint256)": {
        "params": {
          "_ambassador": "address of the ambassador",
          "_baseInterval": "base interval to start claiming",
          "_decreaseStep": "value decreased from maxTotalClaim for every beneficiary added",
          "_incrementInterval": "increment interval used in each claim",
          "_managers": "addresses of the community managers",
          "_maxBeneficiaries": "maximum number of valid beneficiaries",
          "_maxTotalClaim": "limit that a beneficiary can claim at in total",
          "_maxTranche": "maximum amount that the community will receive when requesting funds",
          "_minTranche": "minimum amount that the community will receive when requesting funds",
          "_originalClaimAmount": "maximum base amount to be claim by the beneficiary",
          "_tokenAddress": "address of the token used by the community"
        }
      },
      "calculateCommunityTrancheAmount(address)": {
        "details": "Calculates the tranche amount of a community.",
        "params": {
          "_community": "address of the community"
        },
        "returns": {
          "_0": "uint256        the value of the tranche amount"
        }
      },
      "communityListAt(uint256)": {
        "params": {
          "_index": "index of the community"
        },
        "returns": {
          "_0": "address of the community"
        }
      },
      "communityListLength()": {
        "returns": {
          "_0": "uint256 number of communities"
        }
      },
      "fundCommunity()": {
        "details": "Funds an existing community if it hasn't enough funds"
      },
      "getCommunityProxyImplementation(address)": {
        "params": {
          "_communityProxyAddress": "address of the community"
        }
      },
      "initialize(address,address)": {
        "params": {
          "_cUSD": "Address of the cUSD token",
          "_communityImplementation": "Address of the Community implementation                              used for deploying new communities"
        }
      },
      "isAmbassadorOrEntityOfCommunity(address,address)": {
        "returns": {
          "_0": "bool true if the address is an ambassador or entity of the community"
        }
      },
      "migrateCommunity(address[],address)": {
        "params": {
          "_managers": "address of the community managers",
          "_previousCommunity": "address of the community to be migrated"
        }
      },
      "minClaimAmountRatioPrecision()": {
        "returns": {
          "_0": "uint256 number of communities"
        }
      },
      "owner()": {
        "details": "Returns the address of the current owner."
      },
      "removeCommunity(address)": {
        "params": {
          "_community": "address of the community"
        }
      },
      "renounceOwnership()": {
        "details": "Leaves the contract without owner. It will not be possible to call `onlyOwner` functions anymore. Can only be called by the current owner. NOTE: Renouncing ownership will leave the contract without an owner, thereby removing any functionality that is only available to the owner."
      },
      "setCommunityToAmbassador(address,address)": {
        "params": {
          "_ambassador": "address of the ambassador",
          "_communityAddress": "address of the community contract"
        }
      },
      "transfer(address,address,uint256)": {
        "params": {
          "_amount": "amount of the transaction",
          "_to": "address of the receiver",
          "_token": "address of the ERC20 token"
        }
      },
      "transferFromCommunity(address,address,address,uint256)": {
        "params": {
          "_amount": "amount of the transaction",
          "_community": "address of the community",
          "_to": "address of the receiver",
          "_token": "address of the ERC20 token"
        }
      },
      "transferOwnership(address)": {
        "details": "Transfers ownership of the contract to a new account (`newOwner`). Can only be called by the current owner."
      },
      "updateAmbassadors(address)": {
        "params": {
          "_newAmbassadors": "address of new implementation contract"
        }
      },
      "updateAuthorizedWalletAddress(address)": {
        "params": {
          "_newAuthorizedWalletAddress": "address of the new backend wallet"
        }
      },
      "updateBeneficiaryParams(address,uint256,uint256,uint256,uint256,uint256,uint256)": {
        "params": {
          "_baseInterval": "base interval to start claiming",
          "_community": "address of the community",
          "_decreaseStep": "value decreased from maxTotalClaim each time a is beneficiary added",
          "_incrementInterval": "increment interval used in each claim",
          "_maxBeneficiaries": "maximum number of beneficiaries",
          "_maxTotalClaim": "limit that a beneficiary can claim  in total",
          "_originalClaimAmount": "maximum base amount to be claim by the beneficiary"
        }
      },
      "updateCommunityImplementation(address)": {
        "params": {
          "_newCommunityImplementation": "address of the new communityImplementation contract"
        }
      },
      "updateCommunityMiddleProxy(address)": {
        "params": {
          "_newCommunityMiddleProxy": "address of new implementation contract"
        }
      },
      "updateCommunityParams(address,uint256,uint256)": {
        "params": {
          "_community": "address of the community",
          "_maxTranche": "maximum amount that the community will receive when requesting funds",
          "_minTranche": "minimum amount that the community will receive when requesting funds"
        }
      },
      "updateCommunityToken(address,address,address[],uint256,uint256,uint256,uint256,uint256)": {
        "params": {
          "_community": "address of the community",
          "_exchangePath": "path used by uniswap to exchange the current tokens to the new tokens",
          "_newToken": "new token address"
        }
      },
      "updateImpactMarketCouncil(address)": {
        "params": {
          "_newImpactMarketCouncil": "address of new implementation contract"
        }
      },
      "updateMinClaimAmountRatio(uint256)": {
        "params": {
          "_newMinClaimAmountRatio": "value of the minClaimAmountRatio !!! be aware that this value will be divided by MIN_CLAIM_AMOUNT_RATIO_PRECISION"
        }
      },
      "updateProxyImplementation(address,address)": {
        "params": {
          "_communityMiddleProxy": "address of the community",
          "_newCommunityImplementation": "address of new implementation contract"
        }
      },
      "updateTreasury(address)": {
        "params": {
          "_newTreasury": "address of the new treasury contract"
        }
      },
      "updateTreasuryMinBalance(uint256)": {
        "params": {
          "_newTreasuryMinBalance": "value of the treasuryMinBalance"
        }
      },
      "updateTreasurySafetyPercentage(uint256)": {
        "params": {
          "_newTreasurySafetyPercentage": "value of the treasurySafetyPercentage"
        }
      }
    },
    "version": 1
  },
  "userdoc": {
    "events": {
      "AmbassadorsUpdated(address,address)": {
        "notice": "Triggered when the ambassadors has been updated"
      },
      "CommunityAdded(address,address[],uint256,uint256,uint256,uint256,uint256,uint256,uint256)": {
        "notice": "Triggered when a community has been added"
      },
      "CommunityFunded(address,uint256)": {
        "notice": "Triggered when a community has been funded"
      },
      "CommunityImplementationUpdated(address,address)": {
        "notice": "Triggered when the communityImplementation address has been updated"
      },
      "CommunityMiddleProxyUpdated(address,address)": {
        "notice": "Triggered when the communityMiddleProxy address has been updated"
      },
      "CommunityMigrated(address[],address,address)": {
        "notice": "Triggered when a community has been migrated"
      },
      "CommunityRemoved(address)": {
        "notice": "Triggered when a community has been removed"
      },
      "ImpactMarketCouncilUpdated(address,address)": {
        "notice": "Triggered when the impactMarket Council has been updated"
      },
      "TransferERC20(address,address,uint256)": {
        "notice": "Triggered when an amount of an ERC20 has been transferred from this contract to an address"
      },
      "TreasuryUpdated(address,address)": {
        "notice": "Triggered when the treasury address has been updated"
      }
    },
    "kind": "user",
    "methods": {
      "addCommunity(address,address[],address,uint256,uint256,uint256,uint256,uint256,uint256,uint256,uint256)": {
        "notice": "Adds a new community"
      },
      "communityListAt(uint256)": {
        "notice": "Returns the address of a community from communityList"
      },
      "communityListLength()": {
        "notice": "Returns the number of communities"
      },
      "getCommunityProxyImplementation(address)": {
        "notice": "Gets a community implementation address"
      },
      "getVersion()": {
        "notice": "Returns the current implementation version"
      },
      "initialize(address,address)": {
        "notice": "Used to initialize a new CommunityAdmin contract"
      },
      "isAmbassadorOrEntityOfCommunity(address,address)": {
        "notice": "Returns if an address is the ambassador or entity of the community"
      },
      "migrateCommunity(address[],address)": {
        "notice": "Migrates a community by deploying a new contract."
      },
      "minClaimAmountRatioPrecision()": {
        "notice": "Returns the MIN_CLAIM_AMOUNT_RATIO_PRECISION"
      },
      "removeCommunity(address)": {
        "notice": "Removes an existing community. All community funds are transferred to the treasury"
      },
      "setCommunityToAmbassador(address,address)": {
        "notice": "Set an existing ambassador to an existing community"
      },
      "transfer(address,address,uint256)": {
        "notice": "Transfers an amount of an ERC20 from this contract to an address"
      },
      "transferFromCommunity(address,address,address,uint256)": {
        "notice": "Transfers an amount of an ERC20 from  community to an address"
      },
      "updateAmbassadors(address)": {
        "notice": "Updates proxy implementation address of ambassadors"
      },
      "updateAuthorizedWalletAddress(address)": {
        "notice": "Updates the address of the backend wallet"
      },
      "updateBeneficiaryParams(address,uint256,uint256,uint256,uint256,uint256,uint256)": {
        "notice": "Updates the beneficiary params of a community"
      },
      "updateCommunityImplementation(address)": {
        "notice": "Updates the address of the the communityImplementation"
      },
      "updateCommunityMiddleProxy(address)": {
        "notice": "Updates communityMiddleProxy address"
      },
      "updateCommunityParams(address,uint256,uint256)": {
        "notice": "Updates params of a community"
      },
      "updateCommunityToken(address,address,address[],uint256,uint256,uint256,uint256,uint256)": {
        "notice": "Updates token address of a community"
      },
      "updateImpactMarketCouncil(address)": {
        "notice": "Updates proxy implementation address of impactMarket council"
      },
      "updateMinClaimAmountRatio(uint256)": {
        "notice": "Updates the value of the minClaimAmountRatio"
      },
      "updateProxyImplementation(address,address)": {
        "notice": "Updates proxy implementation address of a community use this only for changing the implementation for one community for updating the implementation for (almost) all communities, just update the communityImplementation param"
      },
      "updateTreasury(address)": {
        "notice": "Updates the address of the treasury"
      },
      "updateTreasuryMinBalance(uint256)": {
        "notice": "Updates the value of the treasuryMinBalance"
      },
      "updateTreasurySafetyPercentage(uint256)": {
        "notice": "Updates the value of the treasurySafetyPercentage"
      }
    },
    "notice": "Welcome to CommunityAdmin, the main contract. This is an administrative (for now) contract where the admins have control over the list of communities. Being only able to add and remove communities",
    "version": 1
  },
  "storageLayout": {
    "storage": [
      {
        "astId": 542,
        "contract": "contracts/community/CommunityAdminImplementation.sol:CommunityAdminImplementation",
        "label": "_initialized",
        "offset": 0,
        "slot": "0",
        "type": "t_bool"
      },
      {
        "astId": 545,
        "contract": "contracts/community/CommunityAdminImplementation.sol:CommunityAdminImplementation",
        "label": "_initializing",
        "offset": 1,
        "slot": "0",
        "type": "t_bool"
      },
      {
        "astId": 1370,
        "contract": "contracts/community/CommunityAdminImplementation.sol:CommunityAdminImplementation",
        "label": "__gap",
        "offset": 0,
        "slot": "1",
        "type": "t_array(t_uint256)50_storage"
      },
      {
        "astId": 420,
        "contract": "contracts/community/CommunityAdminImplementation.sol:CommunityAdminImplementation",
        "label": "_owner",
        "offset": 0,
        "slot": "51",
        "type": "t_address"
      },
      {
        "astId": 534,
        "contract": "contracts/community/CommunityAdminImplementation.sol:CommunityAdminImplementation",
        "label": "__gap",
        "offset": 0,
        "slot": "52",
        "type": "t_array(t_uint256)49_storage"
      },
      {
        "astId": 736,
        "contract": "contracts/community/CommunityAdminImplementation.sol:CommunityAdminImplementation",
        "label": "_status",
        "offset": 0,
        "slot": "101",
        "type": "t_uint256"
      },
      {
        "astId": 779,
        "contract": "contracts/community/CommunityAdminImplementation.sol:CommunityAdminImplementation",
        "label": "__gap",
        "offset": 0,
        "slot": "102",
        "type": "t_array(t_uint256)49_storage"
      },
      {
        "astId": 13211,
        "contract": "contracts/community/CommunityAdminImplementation.sol:CommunityAdminImplementation",
        "label": "cUSD",
        "offset": 0,
        "slot": "151",
        "type": "t_contract(IERC20)3749"
      },
      {
        "astId": 13215,
        "contract": "contracts/community/CommunityAdminImplementation.sol:CommunityAdminImplementation",
        "label": "treasury",
        "offset": 0,
        "slot": "152",
        "type": "t_contract(ITreasury)30703"
      },
      {
        "astId": 13219,
        "contract": "contracts/community/CommunityAdminImplementation.sol:CommunityAdminImplementation",
        "label": "communityImplementation",
        "offset": 0,
        "slot": "153",
        "type": "t_contract(ICommunity)13802"
      },
      {
        "astId": 13223,
        "contract": "contracts/community/CommunityAdminImplementation.sol:CommunityAdminImplementation",
        "label": "communityProxyAdmin",
        "offset": 0,
        "slot": "154",
        "type": "t_contract(ProxyAdmin)2869"
      },
      {
        "astId": 13229,
        "contract": "contracts/community/CommunityAdminImplementation.sol:CommunityAdminImplementation",
        "label": "communities",
        "offset": 0,
        "slot": "155",
        "type": "t_mapping(t_address,t_enum(CommunityState)13815)"
      },
      {
        "astId": 13232,
        "contract": "contracts/community/CommunityAdminImplementation.sol:CommunityAdminImplementation",
        "label": "communityList",
        "offset": 0,
        "slot": "156",
        "type": "t_struct(AddressSet)5729_storage"
      },
      {
        "astId": 13245,
        "contract": "contracts/community/CommunityAdminImplementation.sol:CommunityAdminImplementation",
        "label": "impactMarketCouncil",
        "offset": 0,
        "slot": "158",
        "type": "t_contract(IImpactMarketCouncil)21862"
      },
      {
        "astId": 13249,
        "contract": "contracts/community/CommunityAdminImplementation.sol:CommunityAdminImplementation",
        "label": "ambassadors",
        "offset": 0,
        "slot": "159",
        "type": "t_contract(IAmbassadors)9112"
      },
      {
        "astId": 13252,
        "contract": "contracts/community/CommunityAdminImplementation.sol:CommunityAdminImplementation",
        "label": "communityMiddleProxy",
        "offset": 0,
        "slot": "160",
        "type": "t_address"
      },
      {
        "astId": 13262,
        "contract": "contracts/community/CommunityAdminImplementation.sol:CommunityAdminImplementation",
        "label": "authorizedWalletAddress",
        "offset": 0,
        "slot": "161",
        "type": "t_address"
      },
      {
        "astId": 13265,
        "contract": "contracts/community/CommunityAdminImplementation.sol:CommunityAdminImplementation",
        "label": "minClaimAmountRatio",
        "offset": 0,
        "slot": "162",
        "type": "t_uint256"
      },
      {
        "astId": 13268,
        "contract": "contracts/community/CommunityAdminImplementation.sol:CommunityAdminImplementation",
        "label": "treasurySafetyPercentage",
        "offset": 0,
        "slot": "163",
        "type": "t_uint256"
      },
      {
        "astId": 13271,
        "contract": "contracts/community/CommunityAdminImplementation.sol:CommunityAdminImplementation",
        "label": "treasuryMinBalance",
        "offset": 0,
        "slot": "164",
        "type": "t_uint256"
      }
    ],
    "types": {
      "t_address": {
        "encoding": "inplace",
        "label": "address",
        "numberOfBytes": "20"
      },
      "t_array(t_bytes32)dyn_storage": {
        "base": "t_bytes32",
        "encoding": "dynamic_array",
        "label": "bytes32[]",
        "numberOfBytes": "32"
      },
      "t_array(t_uint256)49_storage": {
        "base": "t_uint256",
        "encoding": "inplace",
        "label": "uint256[49]",
        "numberOfBytes": "1568"
      },
      "t_array(t_uint256)50_storage": {
        "base": "t_uint256",
        "encoding": "inplace",
        "label": "uint256[50]",
        "numberOfBytes": "1600"
      },
      "t_bool": {
        "encoding": "inplace",
        "label": "bool",
        "numberOfBytes": "1"
      },
      "t_bytes32": {
        "encoding": "inplace",
        "label": "bytes32",
        "numberOfBytes": "32"
      },
      "t_contract(IAmbassadors)9112": {
        "encoding": "inplace",
        "label": "contract IAmbassadors",
        "numberOfBytes": "20"
      },
      "t_contract(ICommunity)13802": {
        "encoding": "inplace",
        "label": "contract ICommunity",
        "numberOfBytes": "20"
      },
      "t_contract(IERC20)3749": {
        "encoding": "inplace",
        "label": "contract IERC20",
        "numberOfBytes": "20"
      },
      "t_contract(IImpactMarketCouncil)21862": {
        "encoding": "inplace",
        "label": "contract IImpactMarketCouncil",
        "numberOfBytes": "20"
      },
      "t_contract(ITreasury)30703": {
        "encoding": "inplace",
        "label": "contract ITreasury",
        "numberOfBytes": "20"
      },
      "t_contract(ProxyAdmin)2869": {
        "encoding": "inplace",
        "label": "contract ProxyAdmin",
        "numberOfBytes": "20"
      },
      "t_enum(CommunityState)13815": {
        "encoding": "inplace",
        "label": "enum ICommunityAdmin.CommunityState",
        "numberOfBytes": "1"
      },
      "t_mapping(t_address,t_enum(CommunityState)13815)": {
        "encoding": "mapping",
        "key": "t_address",
        "label": "mapping(address => enum ICommunityAdmin.CommunityState)",
        "numberOfBytes": "32",
        "value": "t_enum(CommunityState)13815"
      },
      "t_mapping(t_bytes32,t_uint256)": {
        "encoding": "mapping",
        "key": "t_bytes32",
        "label": "mapping(bytes32 => uint256)",
        "numberOfBytes": "32",
        "value": "t_uint256"
      },
      "t_struct(AddressSet)5729_storage": {
        "encoding": "inplace",
        "label": "struct EnumerableSet.AddressSet",
        "members": [
          {
            "astId": 5728,
            "contract": "contracts/community/CommunityAdminImplementation.sol:CommunityAdminImplementation",
            "label": "_inner",
            "offset": 0,
            "slot": "0",
            "type": "t_struct(Set)5428_storage"
          }
        ],
        "numberOfBytes": "64"
      },
      "t_struct(Set)5428_storage": {
        "encoding": "inplace",
        "label": "struct EnumerableSet.Set",
        "members": [
          {
            "astId": 5423,
            "contract": "contracts/community/CommunityAdminImplementation.sol:CommunityAdminImplementation",
            "label": "_values",
            "offset": 0,
            "slot": "0",
            "type": "t_array(t_bytes32)dyn_storage"
          },
          {
            "astId": 5427,
            "contract": "contracts/community/CommunityAdminImplementation.sol:CommunityAdminImplementation",
            "label": "_indexes",
            "offset": 0,
            "slot": "1",
            "type": "t_mapping(t_bytes32,t_uint256)"
          }
        ],
        "numberOfBytes": "64"
      },
      "t_uint256": {
        "encoding": "inplace",
        "label": "uint256",
        "numberOfBytes": "32"
      }
    }
  }
}