{
  "address": "0x707B24dB65E62D10858b446DC299C94E8a31E3D4",
  "abi": [
    {
      "anonymous": false,
      "inputs": [
        {
          "indexed": true,
          "internalType": "address",
          "name": "manager",
          "type": "address"
        },
        {
          "indexed": true,
          "internalType": "address",
          "name": "beneficiary",
          "type": "address"
        }
      ],
      "name": "BeneficiaryAdded",
      "type": "event"
    },
    {
      "anonymous": false,
      "inputs": [
        {
          "indexed": true,
          "internalType": "address",
          "name": "beneficiary",
          "type": "address"
        },
        {
          "indexed": false,
          "internalType": "uint256",
          "name": "amount",
          "type": "uint256"
        }
      ],
      "name": "BeneficiaryClaim",
      "type": "event"
    },
    {
      "anonymous": false,
      "inputs": [
        {
          "indexed": true,
          "internalType": "address",
          "name": "beneficiary",
          "type": "address"
        }
      ],
      "name": "BeneficiaryJoined",
      "type": "event"
    },
    {
      "anonymous": false,
      "inputs": [
        {
          "indexed": true,
          "internalType": "address",
          "name": "manager",
          "type": "address"
        },
        {
          "indexed": true,
          "internalType": "address",
          "name": "beneficiary",
          "type": "address"
        }
      ],
      "name": "BeneficiaryLocked",
      "type": "event"
    },
    {
      "anonymous": false,
      "inputs": [
        {
          "indexed": false,
          "internalType": "uint256",
          "name": "oldClaimAmount",
          "type": "uint256"
        },
        {
          "indexed": false,
          "internalType": "uint256",
          "name": "oldMaxClaim",
          "type": "uint256"
        },
        {
          "indexed": false,
          "internalType": "uint256",
          "name": "oldDecreaseStep",
          "type": "uint256"
        },
        {
          "indexed": false,
          "internalType": "uint256",
          "name": "oldBaseInterval",
          "type": "uint256"
        },
        {
          "indexed": false,
          "internalType": "uint256",
          "name": "oldIncrementInterval",
          "type": "uint256"
        },
        {
          "indexed": false,
          "internalType": "uint256",
          "name": "newClaimAmount",
          "type": "uint256"
        },
        {
          "indexed": false,
          "internalType": "uint256",
          "name": "newMaxClaim",
          "type": "uint256"
        },
        {
          "indexed": false,
          "internalType": "uint256",
          "name": "newDecreaseStep",
          "type": "uint256"
        },
        {
          "indexed": false,
          "internalType": "uint256",
          "name": "newBaseInterval",
          "type": "uint256"
        },
        {
          "indexed": false,
          "internalType": "uint256",
          "name": "newIncrementInterval",
          "type": "uint256"
        }
      ],
      "name": "BeneficiaryParamsUpdated",
      "type": "event"
    },
    {
      "anonymous": false,
      "inputs": [
        {
          "indexed": true,
          "internalType": "address",
          "name": "manager",
          "type": "address"
        },
        {
          "indexed": true,
          "internalType": "address",
          "name": "beneficiary",
          "type": "address"
        }
      ],
      "name": "BeneficiaryRemoved",
      "type": "event"
    },
    {
      "anonymous": false,
      "inputs": [
        {
          "indexed": true,
          "internalType": "address",
          "name": "manager",
          "type": "address"
        },
        {
          "indexed": true,
          "internalType": "address",
          "name": "beneficiary",
          "type": "address"
        }
      ],
      "name": "BeneficiaryUnlocked",
      "type": "event"
    },
    {
      "anonymous": false,
      "inputs": [
        {
          "indexed": true,
          "internalType": "address",
          "name": "oldCommunityAdmin",
          "type": "address"
        },
        {
          "indexed": true,
          "internalType": "address",
          "name": "newCommunityAdmin",
          "type": "address"
        }
      ],
      "name": "CommunityAdminUpdated",
      "type": "event"
    },
    {
      "anonymous": false,
      "inputs": [
        {
          "indexed": true,
          "internalType": "address",
          "name": "manager",
          "type": "address"
        }
      ],
      "name": "CommunityLocked",
      "type": "event"
    },
    {
      "anonymous": false,
      "inputs": [
        {
          "indexed": false,
          "internalType": "uint256",
          "name": "oldMinTranche",
          "type": "uint256"
        },
        {
          "indexed": false,
          "internalType": "uint256",
          "name": "oldMaxTranche",
          "type": "uint256"
        },
        {
          "indexed": false,
          "internalType": "uint256",
          "name": "newMinTranche",
          "type": "uint256"
        },
        {
          "indexed": false,
          "internalType": "uint256",
          "name": "newMaxTranche",
          "type": "uint256"
        }
      ],
      "name": "CommunityParamsUpdated",
      "type": "event"
    },
    {
      "anonymous": false,
      "inputs": [
        {
          "indexed": true,
          "internalType": "address",
          "name": "manager",
          "type": "address"
        }
      ],
      "name": "CommunityUnlocked",
      "type": "event"
    },
    {
      "anonymous": false,
      "inputs": [
        {
          "indexed": true,
          "internalType": "address",
          "name": "donor",
          "type": "address"
        },
        {
          "indexed": false,
          "internalType": "uint256",
          "name": "amount",
          "type": "uint256"
        }
      ],
      "name": "Donate",
      "type": "event"
    },
    {
      "anonymous": false,
      "inputs": [
        {
          "indexed": true,
          "internalType": "address",
          "name": "manager",
          "type": "address"
        }
      ],
      "name": "FundsRequested",
      "type": "event"
    },
    {
      "anonymous": false,
      "inputs": [
        {
          "indexed": true,
          "internalType": "address",
          "name": "manager",
          "type": "address"
        },
        {
          "indexed": true,
          "internalType": "address",
          "name": "account",
          "type": "address"
        }
      ],
      "name": "ManagerAdded",
      "type": "event"
    },
    {
      "anonymous": false,
      "inputs": [
        {
          "indexed": true,
          "internalType": "address",
          "name": "manager",
          "type": "address"
        },
        {
          "indexed": true,
          "internalType": "address",
          "name": "account",
          "type": "address"
        }
      ],
      "name": "ManagerRemoved",
      "type": "event"
    },
    {
      "anonymous": false,
      "inputs": [
        {
          "indexed": true,
          "internalType": "address",
          "name": "previousOwner",
          "type": "address"
        },
        {
          "indexed": true,
          "internalType": "address",
          "name": "newOwner",
          "type": "address"
        }
      ],
      "name": "OwnershipTransferred",
      "type": "event"
    },
    {
      "anonymous": false,
      "inputs": [
        {
          "indexed": true,
          "internalType": "address",
          "name": "oldPreviousCommunity",
          "type": "address"
        },
        {
          "indexed": true,
          "internalType": "address",
          "name": "newPreviousCommunity",
          "type": "address"
        }
      ],
      "name": "PreviousCommunityUpdated",
      "type": "event"
    },
    {
      "anonymous": false,
      "inputs": [
        {
          "indexed": true,
          "internalType": "bytes32",
          "name": "role",
          "type": "bytes32"
        },
        {
          "indexed": true,
          "internalType": "bytes32",
          "name": "previousAdminRole",
          "type": "bytes32"
        },
        {
          "indexed": true,
          "internalType": "bytes32",
          "name": "newAdminRole",
          "type": "bytes32"
        }
      ],
      "name": "RoleAdminChanged",
      "type": "event"
    },
    {
      "anonymous": false,
      "inputs": [
        {
          "indexed": true,
          "internalType": "bytes32",
          "name": "role",
          "type": "bytes32"
        },
        {
          "indexed": true,
          "internalType": "address",
          "name": "account",
          "type": "address"
        },
        {
          "indexed": true,
          "internalType": "address",
          "name": "sender",
          "type": "address"
        }
      ],
      "name": "RoleGranted",
      "type": "event"
    },
    {
      "anonymous": false,
      "inputs": [
        {
          "indexed": true,
          "internalType": "bytes32",
          "name": "role",
          "type": "bytes32"
        },
        {
          "indexed": true,
          "internalType": "address",
          "name": "account",
          "type": "address"
        },
        {
          "indexed": true,
          "internalType": "address",
          "name": "sender",
          "type": "address"
        }
      ],
      "name": "RoleRevoked",
      "type": "event"
    },
    {
      "anonymous": false,
      "inputs": [
        {
          "indexed": true,
          "internalType": "address",
          "name": "token",
          "type": "address"
        },
        {
          "indexed": true,
          "internalType": "address",
          "name": "to",
          "type": "address"
        },
        {
          "indexed": false,
          "internalType": "uint256",
          "name": "amount",
          "type": "uint256"
        }
      ],
      "name": "TransferERC20",
      "type": "event"
    },
    {
      "inputs": [],
      "name": "DEFAULT_ADMIN_ROLE",
      "outputs": [
        {
          "internalType": "bytes32",
          "name": "",
          "type": "bytes32"
        }
      ],
      "stateMutability": "view",
      "type": "function"
    },
    {
      "inputs": [],
      "name": "_firstBlockTimestamp",
      "outputs": [
        {
          "internalType": "uint256",
          "name": "",
          "type": "uint256"
        }
      ],
      "stateMutability": "view",
      "type": "function"
    },
    {
      "inputs": [
        {
          "internalType": "address",
          "name": "_beneficiaryAddress",
          "type": "address"
        }
      ],
      "name": "addBeneficiary",
      "outputs": [],
      "stateMutability": "nonpayable",
      "type": "function"
    },
    {
      "inputs": [
        {
          "internalType": "address",
          "name": "_account",
          "type": "address"
        }
      ],
      "name": "addManager",
      "outputs": [],
      "stateMutability": "nonpayable",
      "type": "function"
    },
    {
      "inputs": [
        {
          "internalType": "uint256",
          "name": "_amount",
          "type": "uint256"
        }
      ],
      "name": "addTreasuryFunds",
      "outputs": [],
      "stateMutability": "nonpayable",
      "type": "function"
    },
    {
      "inputs": [],
      "name": "baseInterval",
      "outputs": [
        {
          "internalType": "uint256",
          "name": "",
          "type": "uint256"
        }
      ],
      "stateMutability": "view",
      "type": "function"
    },
    {
      "inputs": [
        {
          "internalType": "address",
          "name": "",
          "type": "address"
        }
      ],
      "name": "beneficiaries",
      "outputs": [
        {
          "internalType": "enum ICommunity.BeneficiaryState",
          "name": "state",
          "type": "uint8"
        },
        {
          "internalType": "uint256",
          "name": "claims",
          "type": "uint256"
        },
        {
          "internalType": "uint256",
          "name": "claimedAmount",
          "type": "uint256"
        },
        {
          "internalType": "uint256",
          "name": "lastClaim",
          "type": "uint256"
        }
      ],
      "stateMutability": "view",
      "type": "function"
    },
    {
      "inputs": [],
      "name": "beneficiaryJoinFromMigrated",
      "outputs": [],
      "stateMutability": "nonpayable",
      "type": "function"
    },
    {
      "inputs": [
        {
          "internalType": "uint256",
          "name": "index_",
          "type": "uint256"
        }
      ],
      "name": "beneficiaryListAt",
      "outputs": [
        {
          "internalType": "address",
          "name": "",
          "type": "address"
        }
      ],
      "stateMutability": "view",
      "type": "function"
    },
    {
      "inputs": [],
      "name": "beneficiaryListLength",
      "outputs": [
        {
          "internalType": "uint256",
          "name": "",
          "type": "uint256"
        }
      ],
      "stateMutability": "view",
      "type": "function"
    },
    {
      "inputs": [],
      "name": "cUSD",
      "outputs": [
        {
          "internalType": "contract IERC20",
          "name": "",
          "type": "address"
        }
      ],
      "stateMutability": "view",
      "type": "function"
    },
    {
      "inputs": [],
      "name": "claim",
      "outputs": [],
      "stateMutability": "nonpayable",
      "type": "function"
    },
    {
      "inputs": [],
      "name": "claimAmount",
      "outputs": [
        {
          "internalType": "uint256",
          "name": "",
          "type": "uint256"
        }
      ],
      "stateMutability": "view",
      "type": "function"
    },
    {
      "inputs": [
        {
          "internalType": "address",
          "name": "_beneficiaryAddress",
          "type": "address"
        }
      ],
      "name": "claimCooldown",
      "outputs": [
        {
          "internalType": "uint256",
          "name": "",
          "type": "uint256"
        }
      ],
      "stateMutability": "view",
      "type": "function"
    },
    {
      "inputs": [],
      "name": "communityAdmin",
      "outputs": [
        {
          "internalType": "contract ICommunityAdmin",
          "name": "",
          "type": "address"
        }
      ],
      "stateMutability": "view",
      "type": "function"
    },
    {
      "inputs": [],
      "name": "decreaseStep",
      "outputs": [
        {
          "internalType": "uint256",
          "name": "",
          "type": "uint256"
        }
      ],
      "stateMutability": "view",
      "type": "function"
    },
    {
      "inputs": [
        {
          "internalType": "address",
          "name": "_sender",
          "type": "address"
        },
        {
          "internalType": "uint256",
          "name": "_amount",
          "type": "uint256"
        }
      ],
      "name": "donate",
      "outputs": [],
      "stateMutability": "nonpayable",
      "type": "function"
    },
    {
      "inputs": [],
      "name": "getInitialMaxClaim",
      "outputs": [
        {
          "internalType": "uint256",
          "name": "",
          "type": "uint256"
        }
      ],
      "stateMutability": "view",
      "type": "function"
    },
    {
      "inputs": [
        {
          "internalType": "bytes32",
          "name": "role",
          "type": "bytes32"
        }
      ],
      "name": "getRoleAdmin",
      "outputs": [
        {
          "internalType": "bytes32",
          "name": "",
          "type": "bytes32"
        }
      ],
      "stateMutability": "view",
      "type": "function"
    },
    {
      "inputs": [],
      "name": "getVersion",
      "outputs": [
        {
          "internalType": "uint256",
          "name": "",
          "type": "uint256"
        }
      ],
      "stateMutability": "pure",
      "type": "function"
    },
    {
      "inputs": [
        {
          "internalType": "bytes32",
          "name": "",
          "type": "bytes32"
        },
        {
          "internalType": "address",
          "name": "",
          "type": "address"
        }
      ],
      "name": "grantRole",
      "outputs": [],
      "stateMutability": "pure",
      "type": "function"
    },
    {
      "inputs": [
        {
          "internalType": "bytes32",
          "name": "role",
          "type": "bytes32"
        },
        {
          "internalType": "address",
          "name": "account",
          "type": "address"
        }
      ],
      "name": "hasRole",
      "outputs": [
        {
          "internalType": "bool",
          "name": "",
          "type": "bool"
        }
      ],
      "stateMutability": "view",
      "type": "function"
    },
    {
      "inputs": [],
      "name": "impactMarketAddress",
      "outputs": [
        {
          "internalType": "address",
          "name": "",
          "type": "address"
        }
      ],
      "stateMutability": "pure",
      "type": "function"
    },
    {
      "inputs": [],
      "name": "incrementInterval",
      "outputs": [
        {
          "internalType": "uint256",
          "name": "",
          "type": "uint256"
        }
      ],
      "stateMutability": "view",
      "type": "function"
    },
    {
      "inputs": [
        {
          "internalType": "address[]",
          "name": "_managers",
          "type": "address[]"
        },
        {
          "internalType": "uint256",
          "name": "_claimAmount",
          "type": "uint256"
        },
        {
          "internalType": "uint256",
          "name": "_maxClaim",
          "type": "uint256"
        },
        {
          "internalType": "uint256",
          "name": "_decreaseStep",
          "type": "uint256"
        },
        {
          "internalType": "uint256",
          "name": "_baseInterval",
          "type": "uint256"
        },
        {
          "internalType": "uint256",
          "name": "_incrementInterval",
          "type": "uint256"
        },
        {
          "internalType": "uint256",
          "name": "_minTranche",
          "type": "uint256"
        },
        {
          "internalType": "uint256",
          "name": "_maxTranche",
          "type": "uint256"
        },
        {
          "internalType": "contract ICommunity",
          "name": "_previousCommunity",
          "type": "address"
        }
      ],
      "name": "initialize",
      "outputs": [],
      "stateMutability": "nonpayable",
      "type": "function"
    },
    {
      "inputs": [],
      "name": "lastFundRequest",
      "outputs": [
        {
          "internalType": "uint256",
          "name": "",
          "type": "uint256"
        }
      ],
      "stateMutability": "view",
      "type": "function"
    },
    {
      "inputs": [
        {
          "internalType": "address",
          "name": "_beneficiaryAddress",
          "type": "address"
        }
      ],
      "name": "lastInterval",
      "outputs": [
        {
          "internalType": "uint256",
          "name": "",
          "type": "uint256"
        }
      ],
      "stateMutability": "view",
      "type": "function"
    },
    {
      "inputs": [],
      "name": "lock",
      "outputs": [],
      "stateMutability": "nonpayable",
      "type": "function"
    },
    {
      "inputs": [
        {
          "internalType": "address",
          "name": "_beneficiaryAddress",
          "type": "address"
        }
      ],
      "name": "lockBeneficiary",
      "outputs": [],
      "stateMutability": "nonpayable",
      "type": "function"
    },
    {
      "inputs": [],
      "name": "locked",
      "outputs": [
        {
          "internalType": "bool",
          "name": "",
          "type": "bool"
        }
      ],
      "stateMutability": "view",
      "type": "function"
    },
    {
      "inputs": [],
      "name": "maxClaim",
      "outputs": [
        {
          "internalType": "uint256",
          "name": "",
          "type": "uint256"
        }
      ],
      "stateMutability": "view",
      "type": "function"
    },
    {
      "inputs": [],
      "name": "maxTranche",
      "outputs": [
        {
          "internalType": "uint256",
          "name": "",
          "type": "uint256"
        }
      ],
      "stateMutability": "view",
      "type": "function"
    },
    {
      "inputs": [],
      "name": "minTranche",
      "outputs": [
        {
          "internalType": "uint256",
          "name": "",
          "type": "uint256"
        }
      ],
      "stateMutability": "view",
      "type": "function"
    },
    {
      "inputs": [],
      "name": "owner",
      "outputs": [
        {
          "internalType": "address",
          "name": "",
          "type": "address"
        }
      ],
      "stateMutability": "view",
      "type": "function"
    },
    {
      "inputs": [],
      "name": "previousCommunity",
      "outputs": [
        {
          "internalType": "contract ICommunity",
          "name": "",
          "type": "address"
        }
      ],
      "stateMutability": "view",
      "type": "function"
    },
    {
      "inputs": [],
      "name": "privateFunds",
      "outputs": [
        {
          "internalType": "uint256",
          "name": "",
          "type": "uint256"
        }
      ],
      "stateMutability": "view",
      "type": "function"
    },
    {
      "inputs": [
        {
          "internalType": "address",
          "name": "_beneficiaryAddress",
          "type": "address"
        }
      ],
      "name": "removeBeneficiary",
      "outputs": [],
      "stateMutability": "nonpayable",
      "type": "function"
    },
    {
      "inputs": [
        {
          "internalType": "address",
          "name": "_account",
          "type": "address"
        }
      ],
      "name": "removeManager",
      "outputs": [],
      "stateMutability": "nonpayable",
      "type": "function"
    },
    {
      "inputs": [],
      "name": "renounceOwnership",
      "outputs": [],
      "stateMutability": "nonpayable",
      "type": "function"
    },
    {
      "inputs": [
        {
          "internalType": "bytes32",
          "name": "role",
          "type": "bytes32"
        },
        {
          "internalType": "address",
          "name": "account",
          "type": "address"
        }
      ],
      "name": "renounceRole",
      "outputs": [],
      "stateMutability": "nonpayable",
      "type": "function"
    },
    {
      "inputs": [],
      "name": "requestFunds",
      "outputs": [],
      "stateMutability": "nonpayable",
      "type": "function"
    },
    {
      "inputs": [
        {
          "internalType": "bytes32",
          "name": "",
          "type": "bytes32"
        },
        {
          "internalType": "address",
          "name": "",
          "type": "address"
        }
      ],
      "name": "revokeRole",
      "outputs": [],
      "stateMutability": "pure",
      "type": "function"
    },
    {
      "inputs": [
        {
          "internalType": "bytes4",
          "name": "interfaceId",
          "type": "bytes4"
        }
      ],
      "name": "supportsInterface",
      "outputs": [
        {
          "internalType": "bool",
          "name": "",
          "type": "bool"
        }
      ],
      "stateMutability": "view",
      "type": "function"
    },
    {
      "inputs": [
        {
          "internalType": "contract IERC20",
          "name": "_token",
          "type": "address"
        },
        {
          "internalType": "address",
          "name": "_to",
          "type": "address"
        },
        {
          "internalType": "uint256",
          "name": "_amount",
          "type": "uint256"
        }
      ],
      "name": "transfer",
      "outputs": [],
      "stateMutability": "nonpayable",
      "type": "function"
    },
    {
      "inputs": [
        {
          "internalType": "address",
          "name": "newOwner",
          "type": "address"
        }
      ],
      "name": "transferOwnership",
      "outputs": [],
      "stateMutability": "nonpayable",
      "type": "function"
    },
    {
      "inputs": [],
      "name": "treasuryFunds",
      "outputs": [
        {
          "internalType": "uint256",
          "name": "",
          "type": "uint256"
        }
      ],
      "stateMutability": "view",
      "type": "function"
    },
    {
      "inputs": [],
      "name": "unlock",
      "outputs": [],
      "stateMutability": "nonpayable",
      "type": "function"
    },
    {
      "inputs": [
        {
          "internalType": "address",
          "name": "_beneficiaryAddress",
          "type": "address"
        }
      ],
      "name": "unlockBeneficiary",
      "outputs": [],
      "stateMutability": "nonpayable",
      "type": "function"
    },
    {
      "inputs": [
        {
          "internalType": "uint256",
          "name": "_claimAmount",
          "type": "uint256"
        },
        {
          "internalType": "uint256",
          "name": "_maxClaim",
          "type": "uint256"
        },
        {
          "internalType": "uint256",
          "name": "_decreaseStep",
          "type": "uint256"
        },
        {
          "internalType": "uint256",
          "name": "_baseInterval",
          "type": "uint256"
        },
        {
          "internalType": "uint256",
          "name": "_incrementInterval",
          "type": "uint256"
        }
      ],
      "name": "updateBeneficiaryParams",
      "outputs": [],
      "stateMutability": "nonpayable",
      "type": "function"
    },
    {
      "inputs": [
        {
          "internalType": "contract ICommunityAdmin",
          "name": "_newCommunityAdmin",
          "type": "address"
        }
      ],
      "name": "updateCommunityAdmin",
      "outputs": [],
      "stateMutability": "nonpayable",
      "type": "function"
    },
    {
      "inputs": [
        {
          "internalType": "uint256",
          "name": "_minTranche",
          "type": "uint256"
        },
        {
          "internalType": "uint256",
          "name": "_maxTranche",
          "type": "uint256"
        }
      ],
      "name": "updateCommunityParams",
      "outputs": [],
      "stateMutability": "nonpayable",
      "type": "function"
    },
    {
      "inputs": [
        {
          "internalType": "contract ICommunity",
          "name": "_newPreviousCommunity",
          "type": "address"
        }
      ],
      "name": "updatePreviousCommunity",
      "outputs": [],
      "stateMutability": "nonpayable",
      "type": "function"
    },
    {
      "inputs": [],
      "name": "validBeneficiaryCount",
      "outputs": [
        {
          "internalType": "uint256",
          "name": "",
          "type": "uint256"
        }
      ],
      "stateMutability": "view",
      "type": "function"
    }
  ],
  "transactionHash": "0x91e29329e514559b2da56e99b257fef26882dcd70aa3db2936b191ae65aee66d",
  "args": [],
  "solcInputHash": "bc78398ad6ba86cebe8213030fed1011",
  "bytecode": "0x608060405234801561001057600080fd5b5061371e806100206000396000f3fe608060405234801561001057600080fd5b50600436106103275760003560e01c8063830953ab116101b8578063c041fdc511610104578063d547741f116100a2578063e69d849d1161007c578063e69d849d1461066f578063eb0376b114610682578063f2fde38b1461068a578063f83d08ba1461069d57600080fd5b8063d547741f14610648578063d6dbd9721461065b578063dd4414bb1461066557600080fd5b8063cf309012116100de578063cf3090121461060c578063d10f510714610619578063d33d4ec61461062c578063d4938db31461063f57600080fd5b8063c041fdc5146105e8578063c0e27b6b146105ef578063c51fab3c1461060257600080fd5b8063a678920511610171578063ac18de431161014b578063ac18de43146105a7578063b026ba57146105ba578063b809ee82146105c2578063beabacc8146105d557600080fd5b8063a678920514610584578063a69df4b51461058c578063a8f3e0631461059457600080fd5b8063830953ab146105325780638da5cb5b1461053b57806391d148541461054c5780639c01a4011461055f5780639cecf57214610569578063a217fddf1461057c57600080fd5b806336568abe11610277578063597be18b11610230578063785393db1161020a578063785393db146104f157806378ba280f146105045780637e2959dc1461050c5780638278d4901461051f57600080fd5b8063597be18b146104cc5780635fac917a146104d5578063715018a6146104e957600080fd5b806336568abe1461046d5780633a578a0c14610480578063431a801a146104945780634e71d92d1461049e5780635926651d146104a657806359633a1c146104b957600080fd5b80631fccf672116102e45780632b271117116102be5780632b2711171461042a5780632d06177a146104345780632f2ff15d146104475780632fd791031461045a57600080fd5b80631fccf672146103df578063248a9ca3146103ff5780632a7eabf61461042257600080fd5b8063015677391461032c57806301ffc9a71461037f57806309c338c3146103a25780630d8e6e2c146103ba5780630e5b7c53146103c15780631912cdb4146103ca575b600080fd5b61036661033a3660046130c7565b61010960205260009081526040902080546001820154600283015460039093015460ff90921692909184565b6040516103769493929190613460565b60405180910390f35b61039261038d3660046132b3565b6106a5565b6040519015158152602001610376565b6103ac6101065481565b604051908152602001610376565b60016103ac565b6103ac60fd5481565b6103dd6103d8366004613374565b6106dc565b005b6103e7610802565b6040516001600160a01b039091168152602001610376565b6103ac61040d36600461326c565b60009081526065602052604090206001015490565b6103ac610885565b6103ac6101055481565b6103dd6104423660046130c7565b6108ca565b6103dd610455366004613284565b61096c565b6103dd610468366004613395565b6109de565b6103dd61047b366004613284565b610bc0565b610107546103e7906001600160a01b031681565b6103ac6101005481565b6103dd610c3a565b6103dd6104b43660046130c7565b610e84565b6103dd6104c73660046130c7565b610ff2565b6103ac60fe5481565b610108546103e7906001600160a01b031681565b6103dd611133565b6103e76104ff36600461326c565b611169565b6103ac611177565b6103dd61051a3660046130c7565b611198565b6103dd61052d36600461312a565b611215565b6103ac60fc5481565b6097546001600160a01b03166103e7565b61039261055a366004613284565b611537565b6103ac6101015481565b6103ac6105773660046130c7565b611562565b6103ac600081565b6103dd611594565b6103dd611b57565b6103ac6105a23660046130c7565b611bc2565b6103dd6105b53660046130c7565b611c1f565b6103dd611dc3565b6103dd6105d036600461326c565b611e92565b6103dd6105e33660046132db565b611ed7565b60006103e7565b6103dd6105fd3660046130c7565b611f94565b6103ac6101035481565b60fb546103929060ff1681565b6103dd6106273660046130c7565b6120a5565b6103dd61063a3660046130c7565b6121b8565b6103ac60ff5481565b6103dd610656366004613284565b612251565b6103ac6101025481565b6103ac6101045481565b6103dd61067d3660046130ff565b6122bf565b6103ac61235c565b6103dd6106983660046130c7565b612369565b6103dd612401565b60006001600160e01b03198216637965db0b60e01b14806106d657506301ffc9a760e01b6001600160e01b03198316145b92915050565b6097546001600160a01b0316331461070f5760405162461bcd60e51b81526004016107069061351f565b60405180910390fd5b808211156107a05760405162461bcd60e51b815260206004820152605260248201527f436f6d6d756e6974793a3a757064617465436f6d6d756e697479506172616d7360448201527f3a206d696e5472616e6368652073686f756c64206e6f742062652067726561746064820152716572207468616e206d61785472616e63686560701b608482015260a401610706565b61010480546101058054928590558390556040805182815260208101849052908101859052606081018490529091907fcd922a6f0ad842d84e08eb5df24c029b63c60167fb37cff24adf95c4832e32589060800160405180910390a150505050565b6101085460408051630fe67b3960e11b815290516000926001600160a01b031691631fccf672916004808301926020929190829003018186803b15801561084857600080fd5b505afa15801561085c573d6000803e3d6000fd5b505050506040513d601f19601f8201168201806040525081019061088091906130e3565b905090565b60004661a4ec141561089a5750635ea06a0590565b4661aef314156108ad5750635f10925490565b4661aef314156108c05750635ef3704190565b6108804342613612565b6108e26000805160206136c983398151915233611537565b6108fe5760405162461bcd60e51b815260040161070690613554565b6109166000805160206136c983398151915282611537565b610969576109326000805160206136c98339815191528261246f565b6040516001600160a01b0382169033907f05a4006f300442cf8b7fdb885f5ee958812020bffb5c5a8e655fde64e5f987ed90600090a35b50565b60405162461bcd60e51b815260206004820152603a60248201527f436f6d6d756e6974793a3a6772616e74526f6c653a20596f7520617265206e6f60448201527f7420616c6c6f7720746f207573652074686973206d6574686f640000000000006064820152608401610706565b5050565b6097546001600160a01b03163314610a085760405162461bcd60e51b81526004016107069061351f565b808211610a915760405162461bcd60e51b815260206004820152604b60248201527f436f6d6d756e6974793a3a636f6e7374727563746f723a2062617365496e746560448201527f7276616c206d7573742062652067726561746572207468616e20696e6372656d60648201526a195b9d125b9d195c9d985b60aa1b608482015260a401610706565b848411610b105760405162461bcd60e51b815260206004820152604160248201527f436f6d6d756e6974793a3a636f6e7374727563746f723a206d6178436c61696d60448201527f206d7573742062652067726561746572207468616e20636c61696d416d6f756e6064820152601d60fa1b608482015260a401610706565b60fc805460ff8054610103805460fd805460fe8054988e9055958c9055928a9055889055928690556040805185815260208101849052908101849052606081018290526080810186905260a081018b905260c081018a905260e0810189905261010081018890526101208101879052939491939091907fa19f450cd68c70f728b0c4b75befd202ea5ebb1ae78b6aca47365934b5008750906101400160405180910390a150505050505050505050565b6001600160a01b0381163314610c305760405162461bcd60e51b815260206004820152602f60248201527f416363657373436f6e74726f6c3a2063616e206f6e6c792072656e6f756e636560448201526e103937b632b9903337b91039b2b63360891b6064820152608401610706565b6109da828261249a565b6001336000908152610109602052604090205460ff166003811115610c6f57634e487b7160e01b600052602160045260246000fd5b14610cbc5760405162461bcd60e51b815260206004820181905260248201527f436f6d6d756e6974793a204e4f545f56414c49445f42454e45464943494152596044820152606401610706565b600260c9541415610cdf5760405162461bcd60e51b815260040161070690613584565b600260c9553360009081526101096020526040902060fb5460ff1615610d305760405162461bcd60e51b81526020600482015260066024820152651313d0d2d15160d21b6044820152606401610706565b43610d3a33611562565b1115610d885760405162461bcd60e51b815260206004820152601960248201527f436f6d6d756e6974793a3a636c61696d3a204e4f545f594554000000000000006044820152606401610706565b60ff5460fc548260020154610d9d91906135bb565b1115610deb5760405162461bcd60e51b815260206004820152601b60248201527f436f6d6d756e6974793a3a636c61696d3a204d41585f434c41494d00000000006044820152606401610706565b60fc54816002016000828254610e0191906135bb565b9091555050600181018054906000610e188361366c565b909155505043600382015560fc54610e44903390610e34610802565b6001600160a01b03169190612501565b60fc5460405190815233907fd54e03b214b3e8c17e98044f98554b6f1b18dd2a3163a2619afea7e9b2a6eb979060200160405180910390a250600160c955565b610e9c6000805160206136c983398151915233611537565b610eb85760405162461bcd60e51b815260040161070690613554565b600260c9541415610edb5760405162461bcd60e51b815260040161070690613584565b600260c9556001600160a01b03811660009081526101096020526040812090815460ff166003811115610f1e57634e487b7160e01b600052602160045260246000fd5b14610f815760405162461bcd60e51b815260206004820152602d60248201527f436f6d6d756e6974793a3a61646442656e65666963696172793a2042656e656660448201526c6963696172792065786973747360981b6064820152608401610706565b610f8c816001612564565b436003820155610f9e61010a83612761565b50610fb38266b1a2bc2ec50000610e34610802565b6040516001600160a01b0383169033907fbb39c36a7502b7256e1a687254146a9a2ea7b146c77cb9e40eb0e2b8793781e190600090a35050600160c955565b61100a6000805160206136c983398151915233611537565b6110265760405162461bcd60e51b815260040161070690613554565b6001600160a01b0381166000908152610109602052604090206001815460ff16600381111561106557634e487b7160e01b600052602160045260246000fd5b148061109457506002815460ff16600381111561109257634e487b7160e01b600052602160045260246000fd5b145b6110ee5760405162461bcd60e51b815260206004820152602560248201527f436f6d6d756e6974793a3a72656d6f766542656e65666963696172793a204e4f6044820152641517d6515560da1b6064820152608401610706565b6110f9816003612564565b6040516001600160a01b0383169033907f1a6590bd0cabbfcc7c86bef99e1034054e179905cfcc294598fcd426c092244290600090a35050565b6097546001600160a01b0316331461115d5760405162461bcd60e51b81526004016107069061351f565b6111676000612776565b565b60006106d661010a836127c8565b6000610103546101005461118b91906135f3565b60ff5461088091906135bb565b6097546001600160a01b031633146111c25760405162461bcd60e51b81526004016107069061351f565b61010780546001600160a01b038381166001600160a01b0319831681179093556040519116919082907f0d6a84e94da4b619dd0d993b5689ec82db4b1095da99ee0f3e7bb046c647e6ad90600090a35050565b600054610100900460ff168061122e575060005460ff16155b61124a5760405162461bcd60e51b8152600401610706906134d1565b600054610100900460ff1615801561126c576000805461ffff19166101011790555b8486116112f45760405162461bcd60e51b815260206004820152604a60248201527f436f6d6d756e6974793a3a696e697469616c697a653a2062617365496e74657260448201527f76616c206d7573742062652067726561746572207468616e20696e6372656d656064820152691b9d125b9d195c9d985b60b21b608482015260a401610706565b88881161136b576040805162461bcd60e51b81526020600482015260248101919091527f436f6d6d756e6974793a3a696e697469616c697a653a206d6178436c61696d2060448201527f6d7573742062652067726561746572207468616e20636c61696d416d6f756e746064820152608401610706565b828411156113f15760405162461bcd60e51b815260206004820152604760248201527f436f6d6d756e6974793a3a696e697469616c697a653a206d696e5472616e636860448201527f652073686f756c64206e6f742062652067726561746572207468616e206d61786064820152665472616e63686560c81b608482015260a401610706565b6113f96127d4565b611401612857565b6114096128be565b60fc89905560fd86905560fe85905560ff88905561010484905561010583905561010780546001600160a01b03199081166001600160a01b0385161790915561010880543392168217905561010388905560fb805460ff1916905561146d90612369565b6114856000805160206136c98339815191528061291d565b61149d6000805160206136c983398151915233612968565b604051339081907f05a4006f300442cf8b7fdb885f5ee958812020bffb5c5a8e655fde64e5f987ed90600090a360005b8a51811015611518576115068b82815181106114f957634e487b7160e01b600052603260045260246000fd5b60200260200101516108ca565b806115108161366c565b9150506114cd565b50801561152b576000805461ff00191690555b50505050505050505050565b60009182526065602090815260408084206001600160a01b0393909316845291905290205460ff1690565b600061156d82611bc2565b6001600160a01b038316600090815261010960205260409020600301546106d691906135bb565b3360009081526101096020526040812090815460ff1660038111156115c957634e487b7160e01b600052602160045260246000fd5b1461163c5760405162461bcd60e51b815260206004820152603a60248201527f436f6d6d756e6974793a3a62656e65666963696172794a6f696e46726f6d4d6960448201527f6772617465643a2042656e6566696369617279206578697374730000000000006064820152608401610706565b610107546040805163c041fdc560e01b815290516000926001600160a01b03169163c041fdc5916004808301926020929190829003018186803b15801561168257600080fd5b505afa158015611696573d6000803e3d6000fd5b505050506040513d601f19601f820116820180604052508101906116ba91906130e3565b6001600160a01b0316141561177b5761010754604051630156773960e01b81523360048201526000918291829182916001600160a01b039091169063015677399060240160806040518083038186803b15801561171657600080fd5b505afa15801561172a573d6000803e3d6000fd5b505050506040513d601f19601f8201168201806040525081019061174e919061331b565b93509350935093506117608585612564565b60018501929092556003840191909155600283015550611b1c565b6101075460405163a8f3e06360e01b81523360048201526001600160a01b0390911690600090829063a8f3e06390602401602060405180830381600087803b1580156117c657600080fd5b505af11580156117da573d6000803e3d6000fd5b505050506040513d601f19601f820116820180604052508101906117fe919061335c565b604051630156773960e01b81523360048201529091506118a49084906001600160a01b03851690630156773990602401602060405180830381600087803b15801561184857600080fd5b505af115801561185c573d6000803e3d6000fd5b505050506040513d601f19601f82011682018060405250810190611880919061335c565b600381111561189f57634e487b7160e01b600052602160045260246000fd5b612564565b604051635911706160e11b81523360048201526000906001600160a01b0384169063b222e0c290602401602060405180830381600087803b1580156118e857600080fd5b505af11580156118fc573d6000803e3d6000fd5b505050506040513d601f19601f82011682018060405250810190611920919061335c565b905061192a610885565b61193490836135bb565b811061196c576005611944610885565b61194e8484613612565b6119589190613612565b61196291906135d3565b6003850155611974565b600060038501555b60405163c884ef8360e01b81523360048201526001600160a01b0384169063c884ef8390602401602060405180830381600087803b1580156119b557600080fd5b505af11580156119c9573d6000803e3d6000fd5b505050506040513d601f19601f820116820180604052508101906119ed919061335c565b84600201819055506000836001600160a01b0316630e5b7c536040518163ffffffff1660e01b8152600401602060405180830381600087803b158015611a3257600080fd5b505af1158015611a46573d6000803e3d6000fd5b505050506040513d601f19601f82011682018060405250810190611a6a919061335c565b9050808310611b0f57836001600160a01b031663597be18b6040518163ffffffff1660e01b8152600401602060405180830381600087803b158015611aae57600080fd5b505af1158015611ac2573d6000803e3d6000fd5b505050506040513d601f19601f82011682018060405250810190611ae6919061335c565b611af08285613612565b611afa91906135d3565b611b059060016135bb565b6001860155611b17565b600060018601555b505050505b611b2861010a33612761565b5060405133907f505fe088fef0d1fb451ccfed842b55a86af1ee6208502f4bc3327dcb9032082990600090a250565b611b6f6000805160206136c983398151915233611537565b611b8b5760405162461bcd60e51b815260040161070690613554565b60fb805460ff1916905560405133907f4e50048c25972c85ad169c2302967f1e633e8dc6108d6aca51a90d2a59d4934d90600090a2565b6001600160a01b0381166000908152610109602052604081206001810154611bed5750600092915050565b60fe5460018260010154611c019190613612565b611c0b91906135f3565b60fd54611c1891906135bb565b9392505050565b611c376000805160206136c983398151915233611537565b611c535760405162461bcd60e51b815260040161070690613554565b611c6b6000805160206136c983398151915282611537565b611cdf576040805162461bcd60e51b81526020600482015260248101919091527f436f6d6d756e6974793a3a72656d6f76654d616e616765723a2054686973206160448201527f63636f756e7420646f65736e27742068617665206d616e6167657220726f6c656064820152608401610706565b610108546001600160a01b0382811691161415611d725760405162461bcd60e51b8152602060048201526044602482018190527f436f6d6d756e6974793a3a72656d6f76654d616e616765723a20596f75206172908201527f65206e6f7420616c6c6f7720746f2072656d6f766520636f6d6d756e697479416064820152633236b4b760e11b608482015260a401610706565b611d8a6000805160206136c983398151915282612972565b6040516001600160a01b0382169033907f3e902a6ee93dd5b2d48bd1009c7701a481be512b1ef73dbed2f95ea44c59ea8890600090a350565b611ddb6000805160206136c983398151915233611537565b611df75760405162461bcd60e51b815260040161070690613554565b61010860009054906101000a90046001600160a01b03166001600160a01b031663174a71d76040518163ffffffff1660e01b8152600401600060405180830381600087803b158015611e4857600080fd5b505af1158015611e5c573d6000803e3d6000fd5b50504361010655505060405133907f16a8b794d4e2ed6ffef50d78af3d4372ce4bfe8a399bfc23f59b7832ee47539090600090a2565b6097546001600160a01b03163314611ebc5760405162461bcd60e51b81526004016107069061351f565b806101016000828254611ecf91906135bb565b909155505050565b6097546001600160a01b03163314611f015760405162461bcd60e51b81526004016107069061351f565b600260c9541415611f245760405162461bcd60e51b815260040161070690613584565b600260c955611f3d6001600160a01b0384168383612501565b816001600160a01b0316836001600160a01b03167f9b035625e569d1d2bf54830a290aefba7ab11610ba8490871dc62b86b63a895683604051611f8291815260200190565b60405180910390a35050600160c95550565b611fac6000805160206136c983398151915233611537565b611fc85760405162461bcd60e51b815260040161070690613554565b6001600160a01b0381166000908152610109602052604090206001815460ff16600381111561200757634e487b7160e01b600052602160045260246000fd5b146120605760405162461bcd60e51b815260206004820152602360248201527f436f6d6d756e6974793a3a6c6f636b42656e65666963696172793a204e4f545f60448201526216515560ea1b6064820152608401610706565b61206b816002612564565b6040516001600160a01b0383169033907f2b9ef93c7856b47a1b624fa3fcc4b651d388dd6d16327f3ad22b05f3da8b0f1590600090a35050565b6120bd6000805160206136c983398151915233611537565b6120d95760405162461bcd60e51b815260040161070690613554565b6001600160a01b0381166000908152610109602052604090206002815460ff16600381111561211857634e487b7160e01b600052602160045260246000fd5b146121735760405162461bcd60e51b815260206004820152602560248201527f436f6d6d756e6974793a3a756e6c6f636b42656e65666963696172793a204e4f6044820152641517d6515560da1b6064820152608401610706565b61217e816001612564565b6040516001600160a01b0383169033907fa589fb4f2925123e7a030dd6bbe76be46a03f8ce0ea53a78dbb3383c7797db2c90600090a35050565b6097546001600160a01b031633146121e25760405162461bcd60e51b81526004016107069061351f565b61010880546001600160a01b038381166001600160a01b031983168117909355169061220d906108ca565b816001600160a01b0316816001600160a01b03167fdd8d3b7b0badfc5d636d48e71e28015b4b8554b64d2cffba6f0a90bf7693ec0060405160405180910390a35050565b60405162461bcd60e51b815260206004820152603b60248201527f436f6d6d756e6974793a3a7265766f6b65526f6c653a20596f7520617265206e60448201527f6f7420616c6c6f7720746f207573652074686973206d6574686f6400000000006064820152608401610706565b600260c95414156122e25760405162461bcd60e51b815260040161070690613584565b600260c9556123068230836122f5610802565b6001600160a01b0316929190612998565b80610102600082825461231991906135bb565b909155505060405181815233907f0553260a2e46b0577270d8992db02d30856ca880144c72d6e9503760946aef139060200160405180910390a25050600160c955565b600061088061010a6129d6565b6097546001600160a01b031633146123935760405162461bcd60e51b81526004016107069061351f565b6001600160a01b0381166123f85760405162461bcd60e51b815260206004820152602660248201527f4f776e61626c653a206e6577206f776e657220697320746865207a65726f206160448201526564647265737360d01b6064820152608401610706565b61096981612776565b6124196000805160206136c983398151915233611537565b6124355760405162461bcd60e51b815260040161070690613554565b60fb805460ff1916600117905560405133907fe1e6bc10311f2f958d6cd2d0ab7308c32089aa1acb8ab11a2ccb60028e332bd090600090a2565b60008281526065602052604090206001015461248b81336129e0565b6124958383612a44565b505050565b6124a48282611537565b156109da5760008281526065602090815260408083206001600160a01b0385168085529252808320805460ff1916905551339285917ff6391f5c32d9c69d2a47ea670b442974b53935d1edc7fd64eb21e047a839171b9190a45050565b6040516001600160a01b03831660248201526044810182905261249590849063a9059cbb60e01b906064015b60408051601f198184030181529190526020810180516001600160e01b03166001600160e01b031990931692909217909152612aca565b80600381111561258457634e487b7160e01b600052602160045260246000fd5b825460ff1660038111156125a857634e487b7160e01b600052602160045260246000fd5b14156125b2575050565b60018160038111156125d457634e487b7160e01b600052602160045260246000fd5b14156126cf5760fc546101035460ff546125ee9190613612565b10156126995760405162461bcd60e51b815260206004820152606860248201527f436f6d6d756e6974793a3a5f6368616e676542656e656669636961727953746160448201527f74653a205468697320636f6d6d756e697479206861732072656163686564207460648201527f6865206d6178696d756d206e756d626572206f662076616c69642062656e6566608482015267696369617269657360c01b60a482015260c401610706565b61010080549060006126aa8361366c565b91905055506101035460ff60008282546126c49190613612565b9091555061272c9050565b6001825460ff1660038111156126f557634e487b7160e01b600052602160045260246000fd5b141561272c57610100805490600061270c83613655565b91905055506101035460ff600082825461272691906135bb565b90915550505b81548190839060ff1916600183600381111561275857634e487b7160e01b600052602160045260246000fd5b02179055505050565b6000611c18836001600160a01b038416612b9c565b609780546001600160a01b038381166001600160a01b0319831681179093556040519116919082907f8be0079c531659141344cd1fd0a4f28419497f9722a3daafe3b4186f6b6457e090600090a35050565b6000611c188383612beb565b600054610100900460ff16806127ed575060005460ff16155b6128095760405162461bcd60e51b8152600401610706906134d1565b600054610100900460ff1615801561282b576000805461ffff19166101011790555b612833612c23565b61283b612c23565b612843612c23565b8015610969576000805461ff001916905550565b600054610100900460ff1680612870575060005460ff16155b61288c5760405162461bcd60e51b8152600401610706906134d1565b600054610100900460ff161580156128ae576000805461ffff19166101011790555b6128b6612c23565b612843612c8d565b600054610100900460ff16806128d7575060005460ff16155b6128f35760405162461bcd60e51b8152600401610706906134d1565b600054610100900460ff16158015612915576000805461ffff19166101011790555b612843612ced565b600082815260656020526040808220600101805490849055905190918391839186917fbd79b86ffe0ab8e8776151514217cd7cacd52c909f66475c3af44e129f0b00ff9190a4505050565b6109da8282612a44565b60008281526065602052604090206001015461298e81336129e0565b612495838361249a565b6040516001600160a01b03808516602483015283166044820152606481018290526129d09085906323b872dd60e01b9060840161252d565b50505050565b60006106d6825490565b6129ea8282611537565b6109da57612a02816001600160a01b03166014612d5d565b612a0d836020612d5d565b604051602001612a1e9291906133eb565b60408051601f198184030181529082905262461bcd60e51b82526107069160040161349e565b612a4e8282611537565b6109da5760008281526065602090815260408083206001600160a01b03851684529091529020805460ff19166001179055612a863390565b6001600160a01b0316816001600160a01b0316837f2f8788117e7eff1d82e926ec794901d17c78024a50270940304540a733656f0d60405160405180910390a45050565b6000612b1f826040518060400160405280602081526020017f5361666545524332303a206c6f772d6c6576656c2063616c6c206661696c6564815250856001600160a01b0316612f3f9092919063ffffffff16565b8051909150156124955780806020019051810190612b3d919061324c565b6124955760405162461bcd60e51b815260206004820152602a60248201527f5361666545524332303a204552433230206f7065726174696f6e20646964206e6044820152691bdd081cdd58d8d9595960b21b6064820152608401610706565b6000818152600183016020526040812054612be3575081546001818101845560008481526020808220909301849055845484825282860190935260409020919091556106d6565b5060006106d6565b6000826000018281548110612c1057634e487b7160e01b600052603260045260246000fd5b9060005260206000200154905092915050565b600054610100900460ff1680612c3c575060005460ff16155b612c585760405162461bcd60e51b8152600401610706906134d1565b600054610100900460ff16158015612843576000805461ffff19166101011790558015610969576000805461ff001916905550565b600054610100900460ff1680612ca6575060005460ff16155b612cc25760405162461bcd60e51b8152600401610706906134d1565b600054610100900460ff16158015612ce4576000805461ffff19166101011790555b61284333612776565b600054610100900460ff1680612d06575060005460ff16155b612d225760405162461bcd60e51b8152600401610706906134d1565b600054610100900460ff16158015612d44576000805461ffff19166101011790555b600160c9558015610969576000805461ff001916905550565b60606000612d6c8360026135f3565b612d779060026135bb565b67ffffffffffffffff811115612d9d57634e487b7160e01b600052604160045260246000fd5b6040519080825280601f01601f191660200182016040528015612dc7576020820181803683370190505b509050600360fc1b81600081518110612df057634e487b7160e01b600052603260045260246000fd5b60200101906001600160f81b031916908160001a905350600f60fb1b81600181518110612e2d57634e487b7160e01b600052603260045260246000fd5b60200101906001600160f81b031916908160001a9053506000612e518460026135f3565b612e5c9060016135bb565b90505b6001811115612ef0576f181899199a1a9b1b9c1cb0b131b232b360811b85600f1660108110612e9e57634e487b7160e01b600052603260045260246000fd5b1a60f81b828281518110612ec257634e487b7160e01b600052603260045260246000fd5b60200101906001600160f81b031916908160001a90535060049490941c93612ee981613655565b9050612e5f565b508315611c185760405162461bcd60e51b815260206004820181905260248201527f537472696e67733a20686578206c656e67746820696e73756666696369656e746044820152606401610706565b6060612f4e8484600085612f56565b949350505050565b606082471015612fb75760405162461bcd60e51b815260206004820152602660248201527f416464726573733a20696e73756666696369656e742062616c616e636520666f6044820152651c8818d85b1b60d21b6064820152608401610706565b843b6130055760405162461bcd60e51b815260206004820152601d60248201527f416464726573733a2063616c6c20746f206e6f6e2d636f6e74726163740000006044820152606401610706565b600080866001600160a01b0316858760405161302191906133cf565b60006040518083038185875af1925050503d806000811461305e576040519150601f19603f3d011682016040523d82523d6000602084013e613063565b606091505b509150915061307382828661307e565b979650505050505050565b6060831561308d575081611c18565b82511561309d5782518084602001fd5b8160405162461bcd60e51b8152600401610706919061349e565b80356130c2816136b3565b919050565b6000602082840312156130d8578081fd5b8135611c18816136b3565b6000602082840312156130f4578081fd5b8151611c18816136b3565b60008060408385031215613111578081fd5b823561311c816136b3565b946020939093013593505050565b60008060008060008060008060006101208a8c031215613148578485fd5b67ffffffffffffffff808b35111561315e578586fd5b8a358b018c601f820112613170578687fd5b8035828111156131825761318261369d565b604051601f19603f8360051b0116810181811085821117156131a6576131a661369d565b8060405250809350818152602081019350602083018f60208460051b86010111156131cf57898afd5b8993505b828410156131f9576131e4816130b7565b855260209485019460019490940193016131d3565b509b5050505060208a0135975060408a0135965060608a0135955060808a0135945060a08a0135935060c08a0135925060e08a0135915061323d6101008b016130b7565b90509295985092959850929598565b60006020828403121561325d578081fd5b81518015158114611c18578182fd5b60006020828403121561327d578081fd5b5035919050565b60008060408385031215613296578182fd5b8235915060208301356132a8816136b3565b809150509250929050565b6000602082840312156132c4578081fd5b81356001600160e01b031981168114611c18578182fd5b6000806000606084860312156132ef578283fd5b83356132fa816136b3565b9250602084013561330a816136b3565b929592945050506040919091013590565b60008060008060808587031215613330578182fd5b84516004811061333e578283fd5b60208601516040870151606090970151919890975090945092505050565b60006020828403121561336d578081fd5b5051919050565b60008060408385031215613386578182fd5b50508035926020909101359150565b600080600080600060a086880312156133ac578283fd5b505083359560208501359550604085013594606081013594506080013592509050565b600082516133e1818460208701613629565b9190910192915050565b7f416363657373436f6e74726f6c3a206163636f756e7420000000000000000000815260008351613423816017850160208801613629565b7001034b99036b4b9b9b4b733903937b6329607d1b6017918401918201528351613454816028840160208801613629565b01602801949350505050565b608081016004861061348257634e487b7160e01b600052602160045260246000fd5b9481526020810193909352604083019190915260609091015290565b60208152600082518060208401526134bd816040850160208701613629565b601f01601f19169190910160400192915050565b6020808252602e908201527f496e697469616c697a61626c653a20636f6e747261637420697320616c72656160408201526d191e481a5b9a5d1a585b1a5e995960921b606082015260800190565b6020808252818101527f4f776e61626c653a2063616c6c6572206973206e6f7420746865206f776e6572604082015260600190565b60208082526016908201527521b7b6b6bab734ba3c9d102727aa2fa6a0a720a3a2a960511b604082015260600190565b6020808252601f908201527f5265656e7472616e637947756172643a207265656e7472616e742063616c6c00604082015260600190565b600082198211156135ce576135ce613687565b500190565b6000826135ee57634e487b7160e01b81526012600452602481fd5b500490565b600081600019048311821515161561360d5761360d613687565b500290565b60008282101561362457613624613687565b500390565b60005b8381101561364457818101518382015260200161362c565b838111156129d05750506000910152565b60008161366457613664613687565b506000190190565b600060001982141561368057613680613687565b5060010190565b634e487b7160e01b600052601160045260246000fd5b634e487b7160e01b600052604160045260246000fd5b6001600160a01b038116811461096957600080fdfe241ecf16d79d0f8dbfb92cbc07fe17840425976cf0667f022fe9877caa831b08a2646970667358221220662bfa4dbacc51d9a1584ecf7515f1f51a0bffa64a4705a6db4df837c57b460764736f6c63430008040033",
  "devdoc": {
    "events": {
      "BeneficiaryAdded(address,address)": {
        "params": {
          "beneficiary": "Address of the beneficiary that has been added",
          "manager": "Address of the manager that triggered the event"
        }
      },
      "BeneficiaryClaim(address,uint256)": {
        "params": {
          "amount": "Amount of the claim",
          "beneficiary": "Address of the beneficiary that has claimed"
        }
      },
      "BeneficiaryJoined(address)": {
        "params": {
          "beneficiary": "Address of the beneficiary"
        }
      },
      "BeneficiaryLocked(address,address)": {
        "params": {
          "beneficiary": "Address of the beneficiary that has been locked",
          "manager": "Address of the manager that triggered the event"
        }
      },
      "BeneficiaryParamsUpdated(uint256,uint256,uint256,uint256,uint256,uint256,uint256,uint256,uint256,uint256)": {
        "params": {
          "newBaseInterval": "New baseInterval value",
          "newClaimAmount": "New claimAmount value",
          "newDecreaseStep": "New decreaseStep value",
          "newIncrementInterval": "New incrementInterval value For further information regarding each parameter, see *Community* smart contract initialize method.",
          "newMaxClaim": "New maxClaim value",
          "oldBaseInterval": "Old baseInterval value",
          "oldClaimAmount": "Old claimAmount value",
          "oldDecreaseStep": "Old decreaseStep value",
          "oldIncrementInterval": "Old incrementInterval value",
          "oldMaxClaim": "Old maxClaim value"
        }
      },
      "BeneficiaryRemoved(address,address)": {
        "params": {
          "beneficiary": "Address of the beneficiary that has been removed",
          "manager": "Address of the manager that triggered the event"
        }
      },
      "BeneficiaryUnlocked(address,address)": {
        "params": {
          "beneficiary": "Address of the beneficiary that has been unlocked",
          "manager": "Address of the manager that triggered the event"
        }
      },
      "CommunityAdminUpdated(address,address)": {
        "params": {
          "newCommunityAdmin": "New communityAdmin address",
          "oldCommunityAdmin": "Old communityAdmin address"
        }
      },
      "CommunityLocked(address)": {
        "params": {
          "manager": "Address of the manager that triggered the event"
        }
      },
      "CommunityParamsUpdated(uint256,uint256,uint256,uint256)": {
        "params": {
          "newMaxTranche": "New maxTranche value For further information regarding each parameter, see *Community* smart contract initialize method.",
          "newMinTranche": "New minTranche value",
          "oldMaxTranche": "Old maxTranche value",
          "oldMinTranche": "Old minTranche value"
        }
      },
      "CommunityUnlocked(address)": {
        "params": {
          "manager": "Address of the manager that triggered the event"
        }
      },
      "Donate(address,uint256)": {
        "params": {
          "amount": "Amount of the donation",
          "donor": "Address of the donor"
        }
      },
      "FundsRequested(address)": {
        "params": {
          "manager": "Address of the manager that triggered the event"
        }
      },
      "ManagerAdded(address,address)": {
        "params": {
          "account": "Address of the manager that has been added",
          "manager": "Address of the manager that triggered the event                          or address of the CommunityAdmin if it's first manager"
        }
      },
      "ManagerRemoved(address,address)": {
        "params": {
          "account": "Address of the manager that has been removed",
          "manager": "Address of the manager that triggered the event"
        }
      },
      "PreviousCommunityUpdated(address,address)": {
        "params": {
          "newPreviousCommunity": "New previousCommunity address",
          "oldPreviousCommunity": "Old previousCommunity address"
        }
      },
      "TransferERC20(address,address,uint256)": {
        "params": {
          "amount": "Amount of the transaction",
          "to": "Address of the receiver",
          "token": "ERC20 token address"
        }
      }
    },
    "kind": "dev",
    "methods": {
      "addBeneficiary(address)": {
        "params": {
          "_beneficiaryAddress": "address of the beneficiary to be added"
        }
      },
      "addManager(address)": {
        "params": {
          "_account": "address of the manager to be added"
        }
      },
      "addTreasuryFunds(uint256)": {
        "params": {
          "_amount": "amount to be added to treasuryFunds"
        }
      },
      "beneficiaryListAt(uint256)": {
        "params": {
          "index_": "index value"
        },
        "returns": {
          "_0": "address of the beneficiary"
        }
      },
      "claim()": {
        "details": "Transfers cUSD to a valid beneficiary"
      },
      "claimCooldown(address)": {
        "params": {
          "_beneficiaryAddress": "address of the beneficiary"
        },
        "returns": {
          "_0": "uint256 number of block when the beneficiary can claim"
        }
      },
      "donate(address,uint256)": {
        "params": {
          "_amount": "amount to be donated",
          "_sender": "address of the sender"
        }
      },
      "getRoleAdmin(bytes32)": {
        "details": "Returns the admin role that controls `role`. See {grantRole} and {revokeRole}. To change a role's admin, use {_setRoleAdmin}."
      },
      "hasRole(bytes32,address)": {
        "details": "Returns `true` if `account` has been granted `role`."
      },
      "initialize(address[],uint256,uint256,uint256,uint256,uint256,uint256,uint256,address)": {
        "params": {
          "_baseInterval": "Base interval to start claiming",
          "_claimAmount": "Base amount to be claim by the beneficiary",
          "_decreaseStep": "Value decreased from maxClaim each time a beneficiary is added",
          "_incrementInterval": "Increment interval used in each claim",
          "_managers": "Community's initial managers.                             Will be able to add others",
          "_maxClaim": "Limit that a beneficiary can claim in total",
          "_maxTranche": "Maximum amount that the community will receive when requesting funds",
          "_minTranche": "Minimum amount that the community will receive when requesting funds",
          "_previousCommunity": "Previous smart contract address of community"
        }
      },
      "lastInterval(address)": {
        "params": {
          "_beneficiaryAddress": "address of the beneficiary"
        },
        "returns": {
          "_0": "uint256 number of blocks for the lastInterval"
        }
      },
      "lockBeneficiary(address)": {
        "params": {
          "_beneficiaryAddress": "address of the beneficiary to be locked"
        }
      },
      "owner()": {
        "details": "Returns the address of the current owner."
      },
      "removeBeneficiary(address)": {
        "params": {
          "_beneficiaryAddress": "address of the beneficiary to be removed"
        }
      },
      "removeManager(address)": {
        "params": {
          "_account": "address of the manager to be removed"
        }
      },
      "renounceOwnership()": {
        "details": "Leaves the contract without owner. It will not be possible to call `onlyOwner` functions anymore. Can only be called by the current owner. NOTE: Renouncing ownership will leave the contract without an owner, thereby removing any functionality that is only available to the owner."
      },
      "renounceRole(bytes32,address)": {
        "details": "Revokes `role` from the calling account. Roles are often managed via {grantRole} and {revokeRole}: this function's purpose is to provide a mechanism for accounts to lose their privileges if they are compromised (such as when a trusted device is misplaced). If the calling account had been granted `role`, emits a {RoleRevoked} event. Requirements: - the caller must be `account`."
      },
      "supportsInterface(bytes4)": {
        "details": "See {IERC165-supportsInterface}."
      },
      "transfer(address,address,uint256)": {
        "params": {
          "_amount": "amount of the transaction",
          "_to": "address of the receiver",
          "_token": "address of the ERC20 token"
        }
      },
      "transferOwnership(address)": {
        "details": "Transfers ownership of the contract to a new account (`newOwner`). Can only be called by the current owner."
      },
      "unlockBeneficiary(address)": {
        "params": {
          "_beneficiaryAddress": "address of the beneficiary to be unlocked"
        }
      },
      "updateBeneficiaryParams(uint256,uint256,uint256,uint256,uint256)": {
        "params": {
          "_baseInterval": "base interval to start claiming",
          "_claimAmount": "base amount to be claim by the beneficiary",
          "_decreaseStep": "value decreased from maxClaim each time a is beneficiary added",
          "_incrementInterval": "increment interval used in each claim",
          "_maxClaim": "limit that a beneficiary can claim  in total"
        }
      },
      "updateCommunityAdmin(address)": {
        "params": {
          "_newCommunityAdmin": "address of the new communityAdmin"
        }
      },
      "updateCommunityParams(uint256,uint256)": {
        "params": {
          "_maxTranche": "maximum amount that the community will receive when requesting funds",
          "_minTranche": "minimum amount that the community will receive when requesting funds"
        }
      },
      "updatePreviousCommunity(address)": {
        "params": {
          "_newPreviousCommunity": "address of the new previousCommunity"
        }
      }
    },
    "version": 1
  },
  "userdoc": {
    "events": {
      "BeneficiaryAdded(address,address)": {
        "notice": "Triggered when a beneficiary has been added"
      },
      "BeneficiaryClaim(address,uint256)": {
        "notice": "Triggered when a beneficiary has claimed"
      },
      "BeneficiaryJoined(address)": {
        "notice": "Triggered when a beneficiary from previous community has joined in the current community"
      },
      "BeneficiaryLocked(address,address)": {
        "notice": "Triggered when a beneficiary has been locked"
      },
      "BeneficiaryParamsUpdated(uint256,uint256,uint256,uint256,uint256,uint256,uint256,uint256,uint256,uint256)": {
        "notice": "Triggered when beneficiary params has been updated"
      },
      "BeneficiaryRemoved(address,address)": {
        "notice": "Triggered when a beneficiary has been removed"
      },
      "BeneficiaryUnlocked(address,address)": {
        "notice": "Triggered when a beneficiary has been unlocked"
      },
      "CommunityAdminUpdated(address,address)": {
        "notice": "Triggered when communityAdmin has been updated"
      },
      "CommunityLocked(address)": {
        "notice": "Triggered when a community has been locked"
      },
      "CommunityParamsUpdated(uint256,uint256,uint256,uint256)": {
        "notice": "Triggered when community params has been updated"
      },
      "CommunityUnlocked(address)": {
        "notice": "Triggered when a community has been unlocked"
      },
      "Donate(address,uint256)": {
        "notice": "Triggered when someone has donated cUSD"
      },
      "FundsRequested(address)": {
        "notice": "Triggered when a manager has requested funds for community"
      },
      "ManagerAdded(address,address)": {
        "notice": "Triggered when a manager has been added"
      },
      "ManagerRemoved(address,address)": {
        "notice": "Triggered when a manager has been removed"
      },
      "PreviousCommunityUpdated(address,address)": {
        "notice": "Triggered when previousCommunity has been updated"
      },
      "TransferERC20(address,address,uint256)": {
        "notice": "Triggered when an amount of an ERC20 has been transferred from this contract to an address"
      }
    },
    "kind": "user",
    "methods": {
      "addBeneficiary(address)": {
        "notice": "Adds a new beneficiary"
      },
      "addManager(address)": {
        "notice": "Adds a new manager"
      },
      "addTreasuryFunds(uint256)": {
        "notice": "Increases the treasuryFunds value Used by communityAdmin after an amount of cUSD are sent from the treasury"
      },
      "beneficiaryJoinFromMigrated()": {
        "notice": "Allows a beneficiary from the previousCommunity to join in this community"
      },
      "beneficiaryListAt(uint256)": {
        "notice": "Returns an address from the beneficiaryList"
      },
      "beneficiaryListLength()": {
        "notice": "Returns the length of the beneficiaryList"
      },
      "cUSD()": {
        "notice": "Returns the cUSD contract address"
      },
      "claimCooldown(address)": {
        "notice": "Returns the block number when a beneficiary can claim again"
      },
      "donate(address,uint256)": {
        "notice": "Transfers cUSDs from donor to this community Used by donationToCommunity method from DonationMiner contract"
      },
      "getInitialMaxClaim()": {
        "notice": "Returns the initial maxClaim"
      },
      "getVersion()": {
        "notice": "Returns the current implementation version"
      },
      "grantRole(bytes32,address)": {
        "notice": "Enforces managers to use addManager method"
      },
      "impactMarketAddress()": {
        "notice": "Returns the 0 address only used for backwards compatibility"
      },
      "initialize(address[],uint256,uint256,uint256,uint256,uint256,uint256,uint256,address)": {
        "notice": "Used to initialize a new Community contract"
      },
      "lastInterval(address)": {
        "notice": "Returns the number of blocks that a beneficiary have to wait between claims"
      },
      "lock()": {
        "notice": "Locks the community claims"
      },
      "lockBeneficiary(address)": {
        "notice": "Locks a valid beneficiary"
      },
      "removeBeneficiary(address)": {
        "notice": "Remove an existing beneficiary"
      },
      "removeManager(address)": {
        "notice": "Remove an existing manager"
      },
      "requestFunds()": {
        "notice": "Requests treasury funds from the communityAdmin"
      },
      "revokeRole(bytes32,address)": {
        "notice": "Enforces managers to use removeManager method"
      },
      "transfer(address,address,uint256)": {
        "notice": "Transfers an amount of an ERC20 from this contract to an address"
      },
      "unlock()": {
        "notice": "Unlocks the community claims"
      },
      "unlockBeneficiary(address)": {
        "notice": "Unlocks a locked beneficiary"
      },
      "updateBeneficiaryParams(uint256,uint256,uint256,uint256,uint256)": {
        "notice": "Updates beneficiary params"
      },
      "updateCommunityAdmin(address)": {
        "notice": "Updates the address of the communityAdmin"
      },
      "updateCommunityParams(uint256,uint256)": {
        "notice": "Updates params of a community"
      },
      "updatePreviousCommunity(address)": {
        "notice": "Updates the address of the previousCommunity"
      }
    },
    "notice": "Welcome to the Community contract. For each community there will be one proxy contract deployed by CommunityAdmin. The implementation of the proxy is this contract. This enable us to save tokens on the contract itself, and avoid the problems of having everything in one single contract. Each community has it's own members and and managers.",
    "version": 1
  },
  "storageLayout": {
    "storage": [
      {
        "astId": 538,
        "contract": "contracts/community/Community.sol:Community",
        "label": "_initialized",
        "offset": 0,
        "slot": "0",
        "type": "t_bool"
      },
      {
        "astId": 541,
        "contract": "contracts/community/Community.sol:Community",
        "label": "_initializing",
        "offset": 1,
        "slot": "0",
        "type": "t_bool"
      },
      {
        "astId": 792,
        "contract": "contracts/community/Community.sol:Community",
        "label": "__gap",
        "offset": 0,
        "slot": "1",
        "type": "t_array(t_uint256)50_storage"
      },
      {
        "astId": 1041,
        "contract": "contracts/community/Community.sol:Community",
        "label": "__gap",
        "offset": 0,
        "slot": "51",
        "type": "t_array(t_uint256)50_storage"
      },
      {
        "astId": 48,
        "contract": "contracts/community/Community.sol:Community",
        "label": "_roles",
        "offset": 0,
        "slot": "101",
        "type": "t_mapping(t_bytes32,t_struct(RoleData)43_storage)"
      },
      {
        "astId": 333,
        "contract": "contracts/community/Community.sol:Community",
        "label": "__gap",
        "offset": 0,
        "slot": "102",
        "type": "t_array(t_uint256)49_storage"
      },
      {
        "astId": 418,
        "contract": "contracts/community/Community.sol:Community",
        "label": "_owner",
        "offset": 0,
        "slot": "151",
        "type": "t_address"
      },
      {
        "astId": 531,
        "contract": "contracts/community/Community.sol:Community",
        "label": "__gap",
        "offset": 0,
        "slot": "152",
        "type": "t_array(t_uint256)49_storage"
      },
      {
        "astId": 705,
        "contract": "contracts/community/Community.sol:Community",
        "label": "_status",
        "offset": 0,
        "slot": "201",
        "type": "t_uint256"
      },
      {
        "astId": 748,
        "contract": "contracts/community/Community.sol:Community",
        "label": "__gap",
        "offset": 0,
        "slot": "202",
        "type": "t_array(t_uint256)49_storage"
      },
      {
        "astId": 9708,
        "contract": "contracts/community/Community.sol:Community",
        "label": "locked",
        "offset": 0,
        "slot": "251",
        "type": "t_bool"
      },
      {
        "astId": 9711,
        "contract": "contracts/community/Community.sol:Community",
        "label": "claimAmount",
        "offset": 0,
        "slot": "252",
        "type": "t_uint256"
      },
      {
        "astId": 9714,
        "contract": "contracts/community/Community.sol:Community",
        "label": "baseInterval",
        "offset": 0,
        "slot": "253",
        "type": "t_uint256"
      },
      {
        "astId": 9717,
        "contract": "contracts/community/Community.sol:Community",
        "label": "incrementInterval",
        "offset": 0,
        "slot": "254",
        "type": "t_uint256"
      },
      {
        "astId": 9720,
        "contract": "contracts/community/Community.sol:Community",
        "label": "maxClaim",
        "offset": 0,
        "slot": "255",
        "type": "t_uint256"
      },
      {
        "astId": 9723,
        "contract": "contracts/community/Community.sol:Community",
        "label": "validBeneficiaryCount",
        "offset": 0,
        "slot": "256",
        "type": "t_uint256"
      },
      {
        "astId": 9726,
        "contract": "contracts/community/Community.sol:Community",
        "label": "treasuryFunds",
        "offset": 0,
        "slot": "257",
        "type": "t_uint256"
      },
      {
        "astId": 9729,
        "contract": "contracts/community/Community.sol:Community",
        "label": "privateFunds",
        "offset": 0,
        "slot": "258",
        "type": "t_uint256"
      },
      {
        "astId": 9732,
        "contract": "contracts/community/Community.sol:Community",
        "label": "decreaseStep",
        "offset": 0,
        "slot": "259",
        "type": "t_uint256"
      },
      {
        "astId": 9735,
        "contract": "contracts/community/Community.sol:Community",
        "label": "minTranche",
        "offset": 0,
        "slot": "260",
        "type": "t_uint256"
      },
      {
        "astId": 9738,
        "contract": "contracts/community/Community.sol:Community",
        "label": "maxTranche",
        "offset": 0,
        "slot": "261",
        "type": "t_uint256"
      },
      {
        "astId": 9741,
        "contract": "contracts/community/Community.sol:Community",
        "label": "lastFundRequest",
        "offset": 0,
        "slot": "262",
        "type": "t_uint256"
      },
      {
        "astId": 9745,
        "contract": "contracts/community/Community.sol:Community",
        "label": "previousCommunity",
        "offset": 0,
        "slot": "263",
        "type": "t_contract(ICommunity)10012"
      },
      {
        "astId": 9749,
        "contract": "contracts/community/Community.sol:Community",
        "label": "communityAdmin",
        "offset": 0,
        "slot": "264",
        "type": "t_contract(ICommunityAdmin)10187"
      },
      {
        "astId": 9755,
        "contract": "contracts/community/Community.sol:Community",
        "label": "beneficiaries",
        "offset": 0,
        "slot": "265",
        "type": "t_mapping(t_address,t_struct(Beneficiary)9779_storage)"
      },
      {
        "astId": 9758,
        "contract": "contracts/community/Community.sol:Community",
        "label": "beneficiaryList",
        "offset": 0,
        "slot": "266",
        "type": "t_struct(AddressSet)5061_storage"
      }
    ],
    "types": {
      "t_address": {
        "encoding": "inplace",
        "label": "address",
        "numberOfBytes": "20"
      },
      "t_array(t_bytes32)dyn_storage": {
        "base": "t_bytes32",
        "encoding": "dynamic_array",
        "label": "bytes32[]",
        "numberOfBytes": "32"
      },
      "t_array(t_uint256)49_storage": {
        "base": "t_uint256",
        "encoding": "inplace",
        "label": "uint256[49]",
        "numberOfBytes": "1568"
      },
      "t_array(t_uint256)50_storage": {
        "base": "t_uint256",
        "encoding": "inplace",
        "label": "uint256[50]",
        "numberOfBytes": "1600"
      },
      "t_bool": {
        "encoding": "inplace",
        "label": "bool",
        "numberOfBytes": "1"
      },
      "t_bytes32": {
        "encoding": "inplace",
        "label": "bytes32",
        "numberOfBytes": "32"
      },
      "t_contract(ICommunity)10012": {
        "encoding": "inplace",
        "label": "contract ICommunity",
        "numberOfBytes": "20"
      },
      "t_contract(ICommunityAdmin)10187": {
        "encoding": "inplace",
        "label": "contract ICommunityAdmin",
        "numberOfBytes": "20"
      },
      "t_enum(BeneficiaryState)9769": {
        "encoding": "inplace",
        "label": "enum ICommunity.BeneficiaryState",
        "numberOfBytes": "1"
      },
      "t_mapping(t_address,t_bool)": {
        "encoding": "mapping",
        "key": "t_address",
        "label": "mapping(address => bool)",
        "numberOfBytes": "32",
        "value": "t_bool"
      },
      "t_mapping(t_address,t_struct(Beneficiary)9779_storage)": {
        "encoding": "mapping",
        "key": "t_address",
        "label": "mapping(address => struct ICommunity.Beneficiary)",
        "numberOfBytes": "32",
        "value": "t_struct(Beneficiary)9779_storage"
      },
      "t_mapping(t_bytes32,t_struct(RoleData)43_storage)": {
        "encoding": "mapping",
        "key": "t_bytes32",
        "label": "mapping(bytes32 => struct AccessControlUpgradeable.RoleData)",
        "numberOfBytes": "32",
        "value": "t_struct(RoleData)43_storage"
      },
      "t_mapping(t_bytes32,t_uint256)": {
        "encoding": "mapping",
        "key": "t_bytes32",
        "label": "mapping(bytes32 => uint256)",
        "numberOfBytes": "32",
        "value": "t_uint256"
      },
      "t_struct(AddressSet)5061_storage": {
        "encoding": "inplace",
        "label": "struct EnumerableSet.AddressSet",
        "members": [
          {
            "astId": 5060,
            "contract": "contracts/community/Community.sol:Community",
            "label": "_inner",
            "offset": 0,
            "slot": "0",
            "type": "t_struct(Set)4790_storage"
          }
        ],
        "numberOfBytes": "64"
      },
      "t_struct(Beneficiary)9779_storage": {
        "encoding": "inplace",
        "label": "struct ICommunity.Beneficiary",
        "members": [
          {
            "astId": 9772,
            "contract": "contracts/community/Community.sol:Community",
            "label": "state",
            "offset": 0,
            "slot": "0",
            "type": "t_enum(BeneficiaryState)9769"
          },
          {
            "astId": 9774,
            "contract": "contracts/community/Community.sol:Community",
            "label": "claims",
            "offset": 0,
            "slot": "1",
            "type": "t_uint256"
          },
          {
            "astId": 9776,
            "contract": "contracts/community/Community.sol:Community",
            "label": "claimedAmount",
            "offset": 0,
            "slot": "2",
            "type": "t_uint256"
          },
          {
            "astId": 9778,
            "contract": "contracts/community/Community.sol:Community",
            "label": "lastClaim",
            "offset": 0,
            "slot": "3",
            "type": "t_uint256"
          }
        ],
        "numberOfBytes": "128"
      },
      "t_struct(RoleData)43_storage": {
        "encoding": "inplace",
        "label": "struct AccessControlUpgradeable.RoleData",
        "members": [
          {
            "astId": 40,
            "contract": "contracts/community/Community.sol:Community",
            "label": "members",
            "offset": 0,
            "slot": "0",
            "type": "t_mapping(t_address,t_bool)"
          },
          {
            "astId": 42,
            "contract": "contracts/community/Community.sol:Community",
            "label": "adminRole",
            "offset": 0,
            "slot": "1",
            "type": "t_bytes32"
          }
        ],
        "numberOfBytes": "64"
      },
      "t_struct(Set)4790_storage": {
        "encoding": "inplace",
        "label": "struct EnumerableSet.Set",
        "members": [
          {
            "astId": 4785,
            "contract": "contracts/community/Community.sol:Community",
            "label": "_values",
            "offset": 0,
            "slot": "0",
            "type": "t_array(t_bytes32)dyn_storage"
          },
          {
            "astId": 4789,
            "contract": "contracts/community/Community.sol:Community",
            "label": "_indexes",
            "offset": 0,
            "slot": "1",
            "type": "t_mapping(t_bytes32,t_uint256)"
          }
        ],
        "numberOfBytes": "64"
      },
      "t_uint256": {
        "encoding": "inplace",
        "label": "uint256",
        "numberOfBytes": "32"
      }
    }
  }
}