{
  "address": "0x53a885740a08b367c86BDB9cA2320B39D159204A",
  "abi": [
    {
      "inputs": [
        {
          "internalType": "address",
          "name": "_cUSDAddress",
          "type": "address"
        },
        {
          "internalType": "address",
          "name": "_communityAdminAddress",
          "type": "address"
        }
      ],
      "stateMutability": "nonpayable",
      "type": "constructor"
    },
    {
      "inputs": [],
      "name": "cUSDAddress",
      "outputs": [
        {
          "internalType": "address",
          "name": "",
          "type": "address"
        }
      ],
      "stateMutability": "view",
      "type": "function"
    },
    {
      "inputs": [],
      "name": "communityAdminAddress",
      "outputs": [
        {
          "internalType": "address",
          "name": "",
          "type": "address"
        }
      ],
      "stateMutability": "view",
      "type": "function"
    },
    {
      "inputs": [
        {
          "internalType": "address",
          "name": "_firstManager",
          "type": "address"
        },
        {
          "internalType": "uint256",
          "name": "_claimAmount",
          "type": "uint256"
        },
        {
          "internalType": "uint256",
          "name": "_maxClaim",
          "type": "uint256"
        },
        {
          "internalType": "uint256",
          "name": "_baseInterval",
          "type": "uint256"
        },
        {
          "internalType": "uint256",
          "name": "_incrementInterval",
          "type": "uint256"
        },
        {
          "internalType": "address",
          "name": "_previousCommunityAddress",
          "type": "address"
        }
      ],
      "name": "deployCommunity",
      "outputs": [
        {
          "internalType": "address",
          "name": "",
          "type": "address"
        }
      ],
      "stateMutability": "nonpayable",
      "type": "function"
    }
  ],
  "transactionHash": "0x46982fcb472e830df79371d4ff71fd3b37614907dd89a108a01424608e68ebd1",
  "args": [
    "0x874069fa1eb16d44d622f2e0ca25eea172369bc1",
    "0xC36D69C42e28f085AC362Cb16A2Ed984ed30a245"
  ],
  "solcInputHash": "413fd773c78ff11e2fb6dec80e4c68ae",
  "bytecode": "0x608060405234801561001057600080fd5b5060405161406f38038061406f833981810160405281019061003291906100cf565b816000806101000a81548173ffffffffffffffffffffffffffffffffffffffff021916908373ffffffffffffffffffffffffffffffffffffffff16021790555080600160006101000a81548173ffffffffffffffffffffffffffffffffffffffff021916908373ffffffffffffffffffffffffffffffffffffffff160217905550505061015d565b6000815190506100c981610146565b92915050565b600080604083850312156100e6576100e5610141565b5b60006100f4858286016100ba565b9250506020610105858286016100ba565b9150509250929050565b600061011a82610121565b9050919050565b600073ffffffffffffffffffffffffffffffffffffffff82169050919050565b600080fd5b61014f8161010f565b811461015a57600080fd5b50565b613f038061016c6000396000f3fe60806040523480156200001157600080fd5b5060043610620000465760003560e01c806330316daf146200004b5780633ff574b6146200006d5780638523f311146200008f575b600080fd5b62000055620000c5565b60405162000064919062000338565b60405180910390f35b62000077620000eb565b60405162000086919062000338565b60405180910390f35b620000ad6004803603810190620000a7919062000253565b6200010f565b604051620000bc919062000338565b60405180910390f35b600160009054906101000a900473ffffffffffffffffffffffffffffffffffffffff1681565b60008054906101000a900473ffffffffffffffffffffffffffffffffffffffff1681565b6000600160009054906101000a900473ffffffffffffffffffffffffffffffffffffffff1673ffffffffffffffffffffffffffffffffffffffff163373ffffffffffffffffffffffffffffffffffffffff1614620001a4576040517f08c379a00000000000000000000000000000000000000000000000000000000081526004016200019b90620003e3565b60405180910390fd5b86868686868660008054906101000a900473ffffffffffffffffffffffffffffffffffffffff1633604051620001da9062000217565b620001ed98979695949392919062000355565b604051809103906000f0801580156200020a573d6000803e3d6000fd5b5090509695505050505050565b613a1780620004b783390190565b600081359050620002368162000482565b92915050565b6000813590506200024d816200049c565b92915050565b60008060008060008060c0878903121562000273576200027262000454565b5b60006200028389828a0162000225565b96505060206200029689828a016200023c565b9550506040620002a989828a016200023c565b9450506060620002bc89828a016200023c565b9350506080620002cf89828a016200023c565b92505060a0620002e289828a0162000225565b9150509295509295509295565b620002fa8162000416565b82525050565b60006200030f600b8362000405565b91506200031c8262000459565b602082019050919050565b62000332816200044a565b82525050565b60006020820190506200034f6000830184620002ef565b92915050565b6000610100820190506200036d600083018b620002ef565b6200037c602083018a62000327565b6200038b604083018962000327565b6200039a606083018862000327565b620003a9608083018762000327565b620003b860a0830186620002ef565b620003c760c0830185620002ef565b620003d660e0830184620002ef565b9998505050505050505050565b60006020820190508181036000830152620003fe8162000300565b9050919050565b600082825260208201905092915050565b600062000423826200042a565b9050919050565b600073ffffffffffffffffffffffffffffffffffffffff82169050919050565b6000819050919050565b600080fd5b7f4e4f545f414c4c4f574544000000000000000000000000000000000000000000600082015250565b6200048d8162000416565b81146200049957600080fd5b50565b620004a7816200044a565b8114620004b357600080fd5b5056fe60806040523480156200001157600080fd5b5060405162003a1738038062003a17833981810160405281019062000037919062000493565b8385116200007c576040517f08c379a0000000000000000000000000000000000000000000000000000000008152600401620000739062000583565b60405180910390fd5b868611620000c1576040517f08c379a0000000000000000000000000000000000000000000000000000000008152600401620000b89062000583565b60405180910390fd5b620000f37f241ecf16d79d0f8dbfb92cbc07fe17840425976cf0667f022fe9877caa831b08896200027060201b60201c565b620001257f241ecf16d79d0f8dbfb92cbc07fe17840425976cf0667f022fe9877caa831b08806200028660201b60201c565b8773ffffffffffffffffffffffffffffffffffffffff167f3b4a40cccf2058c593542587329dd385be4f0b588db5471fbd9598e56dd7093a60405160405180910390a28660058190555084600681905550836007819055508560088190555082600960006101000a81548173ffffffffffffffffffffffffffffffffffffffff021916908373ffffffffffffffffffffffffffffffffffffffff16021790555081600b60006101000a81548173ffffffffffffffffffffffffffffffffffffffff021916908373ffffffffffffffffffffffffffffffffffffffff16021790555080600a60006101000a81548173ffffffffffffffffffffffffffffffffffffffff021916908373ffffffffffffffffffffffffffffffffffffffff1602179055506000600b60146101000a81548160ff021916908315150217905550505050505050505062000630565b620002828282620002e360201b60201c565b5050565b806200029883620003d460201b60201c565b837fbd79b86ffe0ab8e8776151514217cd7cacd52c909f66475c3af44e129f0b00ff60405160405180910390a480600080848152602001908152602001600020600101819055505050565b620002f58282620003f360201b60201c565b620003d057600160008084815260200190815260200160002060000160008373ffffffffffffffffffffffffffffffffffffffff1673ffffffffffffffffffffffffffffffffffffffff16815260200190815260200160002060006101000a81548160ff021916908315150217905550620003756200045d60201b60201c565b73ffffffffffffffffffffffffffffffffffffffff168173ffffffffffffffffffffffffffffffffffffffff16837f2f8788117e7eff1d82e926ec794901d17c78024a50270940304540a733656f0d60405160405180910390a45b5050565b6000806000838152602001908152602001600020600101549050919050565b600080600084815260200190815260200160002060000160008373ffffffffffffffffffffffffffffffffffffffff1673ffffffffffffffffffffffffffffffffffffffff16815260200190815260200160002060009054906101000a900460ff16905092915050565b600033905090565b6000815190506200047681620005fc565b92915050565b6000815190506200048d8162000616565b92915050565b600080600080600080600080610100898b031215620004b757620004b6620005f4565b5b6000620004c78b828c0162000465565b9850506020620004da8b828c016200047c565b9750506040620004ed8b828c016200047c565b9650506060620005008b828c016200047c565b9550506080620005138b828c016200047c565b94505060a0620005268b828c0162000465565b93505060c0620005398b828c0162000465565b92505060e06200054c8b828c0162000465565b9150509295985092959890939650565b60006200056b600083620005a5565b91506200057882620005f9565b600082019050919050565b600060208201905081810360008301526200059e816200055c565b9050919050565b600082825260208201905092915050565b6000620005c382620005ca565b9050919050565b600073ffffffffffffffffffffffffffffffffffffffff82169050919050565b6000819050919050565b600080fd5b50565b6200060781620005b6565b81146200061357600080fd5b50565b6200062181620005ea565b81146200062d57600080fd5b50565b6133d780620006406000396000f3fe608060405234801561001057600080fd5b50600436106101e55760003560e01c8063830953ab1161010f578063c884ef83116100a2578063d547741f11610071578063d547741f14610558578063e1b56a7d14610574578063ec87621c14610590578063f83d08ba146105ae576101e5565b8063c884ef83146104d0578063cf30901214610500578063d10f51071461051e578063d4938db31461053a576101e5565b8063a8f3e063116100de578063a8f3e06314610438578063ac18de4314610468578063b222e0c214610484578063c0e27b6b146104b4576101e5565b8063830953ab146103c257806391d14854146103e0578063a217fddf14610410578063a69df4b51461042e576101e5565b806330316daf116101875780634e71d92d116101565780634e71d92d146103625780635926651d1461036c57806359633a1c14610388578063597be18b146103a4576101e5565b806330316daf146102ec57806336568abe1461030a5780633df03b4a146103265780633ff574b614610344576101e5565b80631fe9578e116101c35780631fe9578e14610268578063248a9ca3146102845780632d06177a146102b45780632f2ff15d146102d0576101e5565b806301567739146101ea57806301ffc9a71461021a5780630e5b7c531461024a575b600080fd5b61020460048036038101906101ff91906126ff565b6105b8565b6040516102119190612c62565b60405180910390f35b610234600480360381019061022f9190612833565b6105d8565b6040516102419190612c03565b60405180910390f35b610252610652565b60405161025f9190612ddf565b60405180910390f35b610282600480360381019061027d9190612759565b610658565b005b61029e600480360381019061029991906127c6565b610ac0565b6040516102ab9190612c1e565b60405180910390f35b6102ce60048036038101906102c991906126ff565b610adf565b005b6102ea60048036038101906102e591906127f3565b610bb8565b005b6102f4610be1565b6040516103019190612b96565b60405180910390f35b610324600480360381019061031f91906127f3565b610c07565b005b61032e610c8a565b60405161033b9190612b96565b60405180910390f35b61034c610cb0565b6040516103599190612b96565b60405180910390f35b61036a610cd6565b005b610386600480360381019061038191906126ff565b611349565b005b6103a2600480360381019061039d91906126ff565b6116a5565b005b6103ac6118ea565b6040516103b99190612ddf565b60405180910390f35b6103ca6118f0565b6040516103d79190612ddf565b60405180910390f35b6103fa60048036038101906103f591906127f3565b6118f6565b6040516104079190612c03565b60405180910390f35b610418611960565b6040516104259190612c1e565b60405180910390f35b610436611967565b005b610452600480360381019061044d91906126ff565b611a30565b60405161045f9190612ddf565b60405180910390f35b610482600480360381019061047d91906126ff565b611a48565b005b61049e600480360381019061049991906126ff565b611b21565b6040516104ab9190612ddf565b60405180910390f35b6104ce60048036038101906104c991906126ff565b611b39565b005b6104ea60048036038101906104e591906126ff565b611d03565b6040516104f79190612ddf565b60405180910390f35b610508611d1b565b6040516105159190612c03565b60405180910390f35b610538600480360381019061053391906126ff565b611d2e565b005b610542611ef8565b60405161054f9190612ddf565b60405180910390f35b610572600480360381019061056d91906127f3565b611efe565b005b61058e6004803603810190610589919061288d565b611f27565b005b610598612073565b6040516105a59190612c1e565b60405180910390f35b6105b6612097565b005b60046020528060005260406000206000915054906101000a900460ff1681565b60007f7965db0b000000000000000000000000000000000000000000000000000000007bffffffffffffffffffffffffffffffffffffffffffffffffffffffff1916827bffffffffffffffffffffffffffffffffffffffffffffffffffffffff1916148061064b575061064a82612160565b5b9050919050565b60065481565b600a60009054906101000a900473ffffffffffffffffffffffffffffffffffffffff1673ffffffffffffffffffffffffffffffffffffffff163373ffffffffffffffffffffffffffffffffffffffff16146106e8576040517f08c379a00000000000000000000000000000000000000000000000000000000081526004016106df90612cff565b60405180910390fd5b6000829050600115158173ffffffffffffffffffffffffffffffffffffffff166391d148547f241ecf16d79d0f8dbfb92cbc07fe17840425976cf0667f022fe9877caa831b08856040518363ffffffff1660e01b815260040161074c929190612c39565b60206040518083038186803b15801561076457600080fd5b505afa158015610778573d6000803e3d6000fd5b505050506040513d601f19601f8201168201806040525081019061079c9190612799565b1515146107de576040517f08c379a00000000000000000000000000000000000000000000000000000000081526004016107d590612cff565b60405180910390fd5b3073ffffffffffffffffffffffffffffffffffffffff168173ffffffffffffffffffffffffffffffffffffffff16633df03b4a6040518163ffffffff1660e01b815260040160206040518083038186803b15801561083b57600080fd5b505afa15801561084f573d6000803e3d6000fd5b505050506040513d601f19601f82011682018060405250810190610873919061272c565b73ffffffffffffffffffffffffffffffffffffffff16146108c9576040517f08c379a00000000000000000000000000000000000000000000000000000000081526004016108c090612cff565b60405180910390fd5b6000600b60009054906101000a900473ffffffffffffffffffffffffffffffffffffffff1673ffffffffffffffffffffffffffffffffffffffff166370a08231306040518263ffffffff1660e01b81526004016109269190612b96565b60206040518083038186803b15801561093e57600080fd5b505afa158015610952573d6000803e3d6000fd5b505050506040513d601f19601f820116820180604052508101906109769190612860565b90506000600b60009054906101000a900473ffffffffffffffffffffffffffffffffffffffff1673ffffffffffffffffffffffffffffffffffffffff1663a9059cbb86846040518363ffffffff1660e01b81526004016109d7929190612bda565b602060405180830381600087803b1580156109f157600080fd5b505af1158015610a05573d6000803e3d6000fd5b505050506040513d601f19601f82011682018060405250810190610a299190612799565b905080610a6b576040517f08c379a0000000000000000000000000000000000000000000000000000000008152600401610a6290612cff565b60405180910390fd5b8473ffffffffffffffffffffffffffffffffffffffff167fec3fe17382089950d15d61fa7c2347c1b7eeb9a828e1cc790f522eca57ed18ec83604051610ab19190612ddf565b60405180910390a25050505050565b6000806000838152602001908152602001600020600101549050919050565b610b097f241ecf16d79d0f8dbfb92cbc07fe17840425976cf0667f022fe9877caa831b08336118f6565b610b48576040517f08c379a0000000000000000000000000000000000000000000000000000000008152600401610b3f90612cbf565b60405180910390fd5b610b727f241ecf16d79d0f8dbfb92cbc07fe17840425976cf0667f022fe9877caa831b0882610bb8565b8073ffffffffffffffffffffffffffffffffffffffff167f3b4a40cccf2058c593542587329dd385be4f0b588db5471fbd9598e56dd7093a60405160405180910390a250565b610bc182610ac0565b610bd281610bcd6121ca565b6121d2565b610bdc838361226f565b505050565b600a60009054906101000a900473ffffffffffffffffffffffffffffffffffffffff1681565b610c0f6121ca565b73ffffffffffffffffffffffffffffffffffffffff168173ffffffffffffffffffffffffffffffffffffffff1614610c7c576040517f08c379a0000000000000000000000000000000000000000000000000000000008152600401610c7390612dbf565b60405180910390fd5b610c86828261234f565b5050565b600960009054906101000a900473ffffffffffffffffffffffffffffffffffffffff1681565b600b60009054906101000a900473ffffffffffffffffffffffffffffffffffffffff1681565b60026003811115610cea57610ce961308b565b5b600460003373ffffffffffffffffffffffffffffffffffffffff1673ffffffffffffffffffffffffffffffffffffffff16815260200190815260200160002060009054906101000a900460ff166003811115610d4957610d4861308b565b5b1415610d8a576040517f08c379a0000000000000000000000000000000000000000000000000000000008152600401610d8190612d9f565b60405180910390fd5b600380811115610d9d57610d9c61308b565b5b600460003373ffffffffffffffffffffffffffffffffffffffff1673ffffffffffffffffffffffffffffffffffffffff16815260200190815260200160002060009054906101000a900460ff166003811115610dfc57610dfb61308b565b5b1415610e3d576040517f08c379a0000000000000000000000000000000000000000000000000000000008152600401610e3490612d3f565b60405180910390fd5b60016003811115610e5157610e5061308b565b5b600460003373ffffffffffffffffffffffffffffffffffffffff1673ffffffffffffffffffffffffffffffffffffffff16815260200190815260200160002060009054906101000a900460ff166003811115610eb057610eaf61308b565b5b14610ef0576040517f08c379a0000000000000000000000000000000000000000000000000000000008152600401610ee790612d1f565b60405180910390fd5b600b60149054906101000a900460ff1615610f40576040517f08c379a0000000000000000000000000000000000000000000000000000000008152600401610f3790612d9f565b60405180910390fd5b42600160003373ffffffffffffffffffffffffffffffffffffffff1673ffffffffffffffffffffffffffffffffffffffff168152602001908152602001600020541115610fc2576040517f08c379a0000000000000000000000000000000000000000000000000000000008152600401610fb990612d7f565b60405180910390fd5b600854600554600360003373ffffffffffffffffffffffffffffffffffffffff1673ffffffffffffffffffffffffffffffffffffffff168152602001908152602001600020546110129190612e66565b1115611053576040517f08c379a000000000000000000000000000000000000000000000000000000000815260040161104a90612cdf565b60405180910390fd5b600554600360003373ffffffffffffffffffffffffffffffffffffffff1673ffffffffffffffffffffffffffffffffffffffff168152602001908152602001600020546110a09190612e66565b600360003373ffffffffffffffffffffffffffffffffffffffff1673ffffffffffffffffffffffffffffffffffffffff16815260200190815260200160002081905550600754600260003373ffffffffffffffffffffffffffffffffffffffff1673ffffffffffffffffffffffffffffffffffffffff168152602001908152602001600020546111309190612e66565b600260003373ffffffffffffffffffffffffffffffffffffffff1673ffffffffffffffffffffffffffffffffffffffff16815260200190815260200160002081905550600260003373ffffffffffffffffffffffffffffffffffffffff1673ffffffffffffffffffffffffffffffffffffffff16815260200190815260200160002054426111be9190612e66565b600160003373ffffffffffffffffffffffffffffffffffffffff1673ffffffffffffffffffffffffffffffffffffffff168152602001908152602001600020819055503373ffffffffffffffffffffffffffffffffffffffff167fd54e03b214b3e8c17e98044f98554b6f1b18dd2a3163a2619afea7e9b2a6eb976005546040516112499190612ddf565b60405180910390a26000600b60009054906101000a900473ffffffffffffffffffffffffffffffffffffffff1673ffffffffffffffffffffffffffffffffffffffff1663a9059cbb336005546040518363ffffffff1660e01b81526004016112b2929190612bda565b602060405180830381600087803b1580156112cc57600080fd5b505af11580156112e0573d6000803e3d6000fd5b505050506040513d601f19601f820116820180604052508101906113049190612799565b905080611346576040517f08c379a000000000000000000000000000000000000000000000000000000000815260040161133d90612cff565b60405180910390fd5b50565b6113737f241ecf16d79d0f8dbfb92cbc07fe17840425976cf0667f022fe9877caa831b08336118f6565b6113b2576040517f08c379a00000000000000000000000000000000000000000000000000000000081526004016113a990612cbf565b60405180910390fd5b600060038111156113c6576113c561308b565b5b600460008373ffffffffffffffffffffffffffffffffffffffff1673ffffffffffffffffffffffffffffffffffffffff16815260200190815260200160002060009054906101000a900460ff1660038111156114255761142461308b565b5b14611465576040517f08c379a000000000000000000000000000000000000000000000000000000000815260040161145c90612d7f565b60405180910390fd5b6001600460008373ffffffffffffffffffffffffffffffffffffffff1673ffffffffffffffffffffffffffffffffffffffff16815260200190815260200160002060006101000a81548160ff021916908360038111156114c8576114c761308b565b5b021790555042600160008373ffffffffffffffffffffffffffffffffffffffff1673ffffffffffffffffffffffffffffffffffffffff168152602001908152602001600020819055506007546006546115219190612f16565b600260008373ffffffffffffffffffffffffffffffffffffffff1673ffffffffffffffffffffffffffffffffffffffff168152602001908152602001600020819055506000600b60009054906101000a900473ffffffffffffffffffffffffffffffffffffffff1673ffffffffffffffffffffffffffffffffffffffff1663a9059cbb8366b1a2bc2ec500006040518363ffffffff1660e01b81526004016115ca929190612bb1565b602060405180830381600087803b1580156115e457600080fd5b505af11580156115f8573d6000803e3d6000fd5b505050506040513d601f19601f8201168201806040525081019061161c9190612799565b90508061165e576040517f08c379a000000000000000000000000000000000000000000000000000000000815260040161165590612cff565b60405180910390fd5b8173ffffffffffffffffffffffffffffffffffffffff167fc3e089fc6227e049d0e41c3d7a383d57efe69c1955c5752f7e5a9b5f1f11302060405160405180910390a25050565b6116cf7f241ecf16d79d0f8dbfb92cbc07fe17840425976cf0667f022fe9877caa831b08336118f6565b61170e576040517f08c379a000000000000000000000000000000000000000000000000000000000815260040161170590612cbf565b60405180910390fd5b600160038111156117225761172161308b565b5b600460008373ffffffffffffffffffffffffffffffffffffffff1673ffffffffffffffffffffffffffffffffffffffff16815260200190815260200160002060009054906101000a900460ff1660038111156117815761178061308b565b5b14806117fd57506002600381111561179c5761179b61308b565b5b600460008373ffffffffffffffffffffffffffffffffffffffff1673ffffffffffffffffffffffffffffffffffffffff16815260200190815260200160002060009054906101000a900460ff1660038111156117fb576117fa61308b565b5b145b61183c576040517f08c379a000000000000000000000000000000000000000000000000000000000815260040161183390612d7f565b60405180910390fd5b6003600460008373ffffffffffffffffffffffffffffffffffffffff1673ffffffffffffffffffffffffffffffffffffffff16815260200190815260200160002060006101000a81548160ff0219169083600381111561189f5761189e61308b565b5b02179055508073ffffffffffffffffffffffffffffffffffffffff167f72977dad29432f655f11c2f0e72ef5124bb9ade7a512fb7a43a9f504df22342860405160405180910390a250565b60075481565b60055481565b600080600084815260200190815260200160002060000160008373ffffffffffffffffffffffffffffffffffffffff1673ffffffffffffffffffffffffffffffffffffffff16815260200190815260200160002060009054906101000a900460ff16905092915050565b6000801b81565b6119917f241ecf16d79d0f8dbfb92cbc07fe17840425976cf0667f022fe9877caa831b08336118f6565b6119d0576040517f08c379a00000000000000000000000000000000000000000000000000000000081526004016119c790612cbf565b60405180910390fd5b6000600b60146101000a81548160ff0219169083151502179055503373ffffffffffffffffffffffffffffffffffffffff167f4e50048c25972c85ad169c2302967f1e633e8dc6108d6aca51a90d2a59d4934d60405160405180910390a2565b60026020528060005260406000206000915090505481565b611a727f241ecf16d79d0f8dbfb92cbc07fe17840425976cf0667f022fe9877caa831b08336118f6565b611ab1576040517f08c379a0000000000000000000000000000000000000000000000000000000008152600401611aa890612cbf565b60405180910390fd5b611adb7f241ecf16d79d0f8dbfb92cbc07fe17840425976cf0667f022fe9877caa831b0882611efe565b8073ffffffffffffffffffffffffffffffffffffffff167fef69f7d97228658c92417be1b16b19058315de71fecb435d07b7d23728b6bd3160405160405180910390a250565b60016020528060005260406000206000915090505481565b611b637f241ecf16d79d0f8dbfb92cbc07fe17840425976cf0667f022fe9877caa831b08336118f6565b611ba2576040517f08c379a0000000000000000000000000000000000000000000000000000000008152600401611b9990612cbf565b60405180910390fd5b60016003811115611bb657611bb561308b565b5b600460008373ffffffffffffffffffffffffffffffffffffffff1673ffffffffffffffffffffffffffffffffffffffff16815260200190815260200160002060009054906101000a900460ff166003811115611c1557611c1461308b565b5b14611c55576040517f08c379a0000000000000000000000000000000000000000000000000000000008152600401611c4c90612d7f565b60405180910390fd5b6002600460008373ffffffffffffffffffffffffffffffffffffffff1673ffffffffffffffffffffffffffffffffffffffff16815260200190815260200160002060006101000a81548160ff02191690836003811115611cb857611cb761308b565b5b02179055508073ffffffffffffffffffffffffffffffffffffffff167f8bbf1861fd29297756bc2ec1496a157359ea7fda5746df5233b4fc3e8124511860405160405180910390a250565b60036020528060005260406000206000915090505481565b600b60149054906101000a900460ff1681565b611d587f241ecf16d79d0f8dbfb92cbc07fe17840425976cf0667f022fe9877caa831b08336118f6565b611d97576040517f08c379a0000000000000000000000000000000000000000000000000000000008152600401611d8e90612cbf565b60405180910390fd5b60026003811115611dab57611daa61308b565b5b600460008373ffffffffffffffffffffffffffffffffffffffff1673ffffffffffffffffffffffffffffffffffffffff16815260200190815260200160002060009054906101000a900460ff166003811115611e0a57611e0961308b565b5b14611e4a576040517f08c379a0000000000000000000000000000000000000000000000000000000008152600401611e4190612d7f565b60405180910390fd5b6001600460008373ffffffffffffffffffffffffffffffffffffffff1673ffffffffffffffffffffffffffffffffffffffff16815260200190815260200160002060006101000a81548160ff02191690836003811115611ead57611eac61308b565b5b02179055508073ffffffffffffffffffffffffffffffffffffffff167fb84ab42066834057600f08f7bc7564111d6f5c12497b99f98d02346aed682a1460405160405180910390a250565b60085481565b611f0782610ac0565b611f1881611f136121ca565b6121d2565b611f22838361234f565b505050565b611f517f241ecf16d79d0f8dbfb92cbc07fe17840425976cf0667f022fe9877caa831b08336118f6565b611f90576040517f08c379a0000000000000000000000000000000000000000000000000000000008152600401611f8790612cbf565b60405180910390fd5b808211611fd2576040517f08c379a0000000000000000000000000000000000000000000000000000000008152600401611fc990612d5f565b60405180910390fd5b838311612014576040517f08c379a000000000000000000000000000000000000000000000000000000000815260040161200b90612d5f565b60405180910390fd5b836005819055508160068190555080600781905550826008819055507f439aed8a17825b1759469932384a25f3652d3eac82c0f52e402a0b458ae4e838848484846040516120659493929190612dfa565b60405180910390a150505050565b7f241ecf16d79d0f8dbfb92cbc07fe17840425976cf0667f022fe9877caa831b0881565b6120c17f241ecf16d79d0f8dbfb92cbc07fe17840425976cf0667f022fe9877caa831b08336118f6565b612100576040517f08c379a00000000000000000000000000000000000000000000000000000000081526004016120f790612cbf565b60405180910390fd5b6001600b60146101000a81548160ff0219169083151502179055503373ffffffffffffffffffffffffffffffffffffffff167fe1e6bc10311f2f958d6cd2d0ab7308c32089aa1acb8ab11a2ccb60028e332bd060405160405180910390a2565b60007f01ffc9a7000000000000000000000000000000000000000000000000000000007bffffffffffffffffffffffffffffffffffffffffffffffffffffffff1916827bffffffffffffffffffffffffffffffffffffffffffffffffffffffff1916149050919050565b600033905090565b6121dc82826118f6565b61226b576122018173ffffffffffffffffffffffffffffffffffffffff166014612430565b61220f8360001c6020612430565b604051602001612220929190612b5c565b6040516020818303038152906040526040517f08c379a00000000000000000000000000000000000000000000000000000000081526004016122629190612c7d565b60405180910390fd5b5050565b61227982826118f6565b61234b57600160008084815260200190815260200160002060000160008373ffffffffffffffffffffffffffffffffffffffff1673ffffffffffffffffffffffffffffffffffffffff16815260200190815260200160002060006101000a81548160ff0219169083151502179055506122f06121ca565b73ffffffffffffffffffffffffffffffffffffffff168173ffffffffffffffffffffffffffffffffffffffff16837f2f8788117e7eff1d82e926ec794901d17c78024a50270940304540a733656f0d60405160405180910390a45b5050565b61235982826118f6565b1561242c57600080600084815260200190815260200160002060000160008373ffffffffffffffffffffffffffffffffffffffff1673ffffffffffffffffffffffffffffffffffffffff16815260200190815260200160002060006101000a81548160ff0219169083151502179055506123d16121ca565b73ffffffffffffffffffffffffffffffffffffffff168173ffffffffffffffffffffffffffffffffffffffff16837ff6391f5c32d9c69d2a47ea670b442974b53935d1edc7fd64eb21e047a839171b60405160405180910390a45b5050565b6060600060028360026124439190612ebc565b61244d9190612e66565b67ffffffffffffffff811115612466576124656130e9565b5b6040519080825280601f01601f1916602001820160405280156124985781602001600182028036833780820191505090505b5090507f3000000000000000000000000000000000000000000000000000000000000000816000815181106124d0576124cf6130ba565b5b60200101907effffffffffffffffffffffffffffffffffffffffffffffffffffffffffffff1916908160001a9053507f780000000000000000000000000000000000000000000000000000000000000081600181518110612534576125336130ba565b5b60200101907effffffffffffffffffffffffffffffffffffffffffffffffffffffffffffff1916908160001a905350600060018460026125749190612ebc565b61257e9190612e66565b90505b600181111561261e577f3031323334353637383961626364656600000000000000000000000000000000600f8616601081106125c0576125bf6130ba565b5b1a60f81b8282815181106125d7576125d66130ba565b5b60200101907effffffffffffffffffffffffffffffffffffffffffffffffffffffffffffff1916908160001a905350600485901c94508061261790613032565b9050612581565b5060008414612662576040517f08c379a000000000000000000000000000000000000000000000000000000000815260040161265990612c9f565b60405180910390fd5b8091505092915050565b60008135905061267b8161332e565b92915050565b6000815190506126908161332e565b92915050565b6000815190506126a581613345565b92915050565b6000813590506126ba8161335c565b92915050565b6000813590506126cf81613373565b92915050565b6000813590506126e48161338a565b92915050565b6000815190506126f98161338a565b92915050565b60006020828403121561271557612714613118565b5b60006127238482850161266c565b91505092915050565b60006020828403121561274257612741613118565b5b600061275084828501612681565b91505092915050565b600080604083850312156127705761276f613118565b5b600061277e8582860161266c565b925050602061278f8582860161266c565b9150509250929050565b6000602082840312156127af576127ae613118565b5b60006127bd84828501612696565b91505092915050565b6000602082840312156127dc576127db613118565b5b60006127ea848285016126ab565b91505092915050565b6000806040838503121561280a57612809613118565b5b6000612818858286016126ab565b92505060206128298582860161266c565b9150509250929050565b60006020828403121561284957612848613118565b5b6000612857848285016126c0565b91505092915050565b60006020828403121561287657612875613118565b5b6000612884848285016126ea565b91505092915050565b600080600080608085870312156128a7576128a6613118565b5b60006128b5878288016126d5565b94505060206128c6878288016126d5565b93505060406128d7878288016126d5565b92505060606128e8878288016126d5565b91505092959194509250565b6128fd81612f4a565b82525050565b61290c81612f5c565b82525050565b61291b81612f68565b82525050565b61292a81612fdb565b82525050565b61293981612fed565b82525050565b600061294a82612e3f565b6129548185612e4a565b9350612964818560208601612fff565b61296d8161311d565b840191505092915050565b600061298382612e3f565b61298d8185612e5b565b935061299d818560208601612fff565b80840191505092915050565b60006129b6602083612e4a565b91506129c18261312e565b602082019050919050565b60006129d9600b83612e4a565b91506129e482613157565b602082019050919050565b60006129fc600983612e4a565b9150612a0782613180565b602082019050919050565b6000612a1f600b83612e4a565b9150612a2a826131a9565b602082019050919050565b6000612a42600f83612e4a565b9150612a4d826131d2565b602082019050919050565b6000612a65600783612e4a565b9150612a70826131fb565b602082019050919050565b6000612a88600083612e4a565b9150612a9382613224565b600082019050919050565b6000612aab601783612e5b565b9150612ab682613227565b601782019050919050565b6000612ace600783612e4a565b9150612ad982613250565b602082019050919050565b6000612af1600683612e4a565b9150612afc82613279565b602082019050919050565b6000612b14601183612e5b565b9150612b1f826132a2565b601182019050919050565b6000612b37602f83612e4a565b9150612b42826132cb565b604082019050919050565b612b5681612fd1565b82525050565b6000612b6782612a9e565b9150612b738285612978565b9150612b7e82612b07565b9150612b8a8284612978565b91508190509392505050565b6000602082019050612bab60008301846128f4565b92915050565b6000604082019050612bc660008301856128f4565b612bd36020830184612930565b9392505050565b6000604082019050612bef60008301856128f4565b612bfc6020830184612b4d565b9392505050565b6000602082019050612c186000830184612903565b92915050565b6000602082019050612c336000830184612912565b92915050565b6000604082019050612c4e6000830185612912565b612c5b60208301846128f4565b9392505050565b6000602082019050612c776000830184612921565b92915050565b60006020820190508181036000830152612c97818461293f565b905092915050565b60006020820190508181036000830152612cb8816129a9565b9050919050565b60006020820190508181036000830152612cd8816129cc565b9050919050565b60006020820190508181036000830152612cf8816129ef565b9050919050565b60006020820190508181036000830152612d1881612a12565b9050919050565b60006020820190508181036000830152612d3881612a35565b9050919050565b60006020820190508181036000830152612d5881612a58565b9050919050565b60006020820190508181036000830152612d7881612a7b565b9050919050565b60006020820190508181036000830152612d9881612ac1565b9050919050565b60006020820190508181036000830152612db881612ae4565b9050919050565b60006020820190508181036000830152612dd881612b2a565b9050919050565b6000602082019050612df46000830184612b4d565b92915050565b6000608082019050612e0f6000830187612b4d565b612e1c6020830186612b4d565b612e296040830185612b4d565b612e366060830184612b4d565b95945050505050565b600081519050919050565b600082825260208201905092915050565b600081905092915050565b6000612e7182612fd1565b9150612e7c83612fd1565b9250827fffffffffffffffffffffffffffffffffffffffffffffffffffffffffffffffff03821115612eb157612eb061305c565b5b828201905092915050565b6000612ec782612fd1565b9150612ed283612fd1565b9250817fffffffffffffffffffffffffffffffffffffffffffffffffffffffffffffffff0483118215151615612f0b57612f0a61305c565b5b828202905092915050565b6000612f2182612fd1565b9150612f2c83612fd1565b925082821015612f3f57612f3e61305c565b5b828203905092915050565b6000612f5582612fb1565b9050919050565b60008115159050919050565b6000819050919050565b60007fffffffff0000000000000000000000000000000000000000000000000000000082169050919050565b6000819050612fac8261331a565b919050565b600073ffffffffffffffffffffffffffffffffffffffff82169050919050565b6000819050919050565b6000612fe682612f9e565b9050919050565b6000612ff882612fd1565b9050919050565b60005b8381101561301d578082015181840152602081019050613002565b8381111561302c576000848401525b50505050565b600061303d82612fd1565b915060008214156130515761305061305c565b5b600182039050919050565b7f4e487b7100000000000000000000000000000000000000000000000000000000600052601160045260246000fd5b7f4e487b7100000000000000000000000000000000000000000000000000000000600052602160045260246000fd5b7f4e487b7100000000000000000000000000000000000000000000000000000000600052603260045260246000fd5b7f4e487b7100000000000000000000000000000000000000000000000000000000600052604160045260246000fd5b600080fd5b6000601f19601f8301169050919050565b7f537472696e67733a20686578206c656e67746820696e73756666696369656e74600082015250565b7f4e4f545f4d414e41474552000000000000000000000000000000000000000000600082015250565b7f4d41585f434c41494d0000000000000000000000000000000000000000000000600082015250565b7f4e4f545f414c4c4f574544000000000000000000000000000000000000000000600082015250565b7f4e4f545f42454e45464943494152590000000000000000000000000000000000600082015250565b7f52454d4f56454400000000000000000000000000000000000000000000000000600082015250565b50565b7f416363657373436f6e74726f6c3a206163636f756e7420000000000000000000600082015250565b7f4e4f545f59455400000000000000000000000000000000000000000000000000600082015250565b7f4c4f434b45440000000000000000000000000000000000000000000000000000600082015250565b7f206973206d697373696e6720726f6c6520000000000000000000000000000000600082015250565b7f416363657373436f6e74726f6c3a2063616e206f6e6c792072656e6f756e636560008201527f20726f6c657320666f722073656c660000000000000000000000000000000000602082015250565b6004811061332b5761332a61308b565b5b50565b61333781612f4a565b811461334257600080fd5b50565b61334e81612f5c565b811461335957600080fd5b50565b61336581612f68565b811461337057600080fd5b50565b61337c81612f72565b811461338757600080fd5b50565b61339381612fd1565b811461339e57600080fd5b5056fea2646970667358221220ac8d123a9b96203906759f03a37ec5f987f75007336215c29510066753bf368564736f6c63430008050033a264697066735822122003a223a98efb2a44373b43d331189d4d39d8ff787c03d02c8700b3c3cdb5bc9964736f6c63430008050033",
  "devdoc": {
    "kind": "dev",
    "methods": {
      "deployCommunity(address,uint256,uint256,uint256,uint256,address)": {
        "details": "Add a new community. Can be used only by an admin. For further information regarding each parameter, see *Community* smart contract constructor."
      }
    },
    "version": 1
  },
  "userdoc": {
    "kind": "user",
    "methods": {},
    "notice": "Welcome to CommunityFactory",
    "version": 1
  },
  "storageLayout": {
    "storage": [
      {
        "astId": 5302,
        "contract": "contracts/community/CommunityFactory.sol:CommunityFactory",
        "label": "cUSDAddress",
        "offset": 0,
        "slot": "0",
        "type": "t_address"
      },
      {
        "astId": 5304,
        "contract": "contracts/community/CommunityFactory.sol:CommunityFactory",
        "label": "communityAdminAddress",
        "offset": 0,
        "slot": "1",
        "type": "t_address"
      }
    ],
    "types": {
      "t_address": {
        "encoding": "inplace",
        "label": "address",
        "numberOfBytes": "20"
      }
    }
  }
}