{
  "address": "0x3979e1D48Ea2942F0F4E858Fc6F4DB6ecF2D6542",
  "abi": [
    {
      "anonymous": false,
      "inputs": [
        {
          "indexed": true,
          "internalType": "address",
          "name": "_communityAddress",
          "type": "address"
        },
        {
          "indexed": true,
          "internalType": "address",
          "name": "_firstManager",
          "type": "address"
        },
        {
          "indexed": false,
          "internalType": "uint256",
          "name": "_claimAmount",
          "type": "uint256"
        },
        {
          "indexed": false,
          "internalType": "uint256",
          "name": "_maxClaim",
          "type": "uint256"
        },
        {
          "indexed": false,
          "internalType": "uint256",
          "name": "_baseInterval",
          "type": "uint256"
        },
        {
          "indexed": false,
          "internalType": "uint256",
          "name": "_incrementInterval",
          "type": "uint256"
        }
      ],
      "name": "CommunityAdded",
      "type": "event"
    },
    {
      "anonymous": false,
      "inputs": [
        {
          "indexed": true,
          "internalType": "uint256",
          "name": "_newCommunitMaxTranche",
          "type": "uint256"
        }
      ],
      "name": "CommunityMaxTrancheChanged",
      "type": "event"
    },
    {
      "anonymous": false,
      "inputs": [
        {
          "indexed": true,
          "internalType": "address",
          "name": "_firstManager",
          "type": "address"
        },
        {
          "indexed": true,
          "internalType": "address",
          "name": "_communityAddress",
          "type": "address"
        },
        {
          "indexed": true,
          "internalType": "address",
          "name": "_previousCommunityAddress",
          "type": "address"
        }
      ],
      "name": "CommunityMigrated",
      "type": "event"
    },
    {
      "anonymous": false,
      "inputs": [
        {
          "indexed": true,
          "internalType": "uint256",
          "name": "_newCommunityMinTranche",
          "type": "uint256"
        }
      ],
      "name": "CommunityMinTrancheChanged",
      "type": "event"
    },
    {
      "anonymous": false,
      "inputs": [
        {
          "indexed": true,
          "internalType": "address",
          "name": "_communityAddress",
          "type": "address"
        }
      ],
      "name": "CommunityRemoved",
      "type": "event"
    },
    {
      "anonymous": false,
      "inputs": [
        {
          "indexed": true,
          "internalType": "address",
          "name": "previousOwner",
          "type": "address"
        },
        {
          "indexed": true,
          "internalType": "address",
          "name": "newOwner",
          "type": "address"
        }
      ],
      "name": "OwnershipTransferred",
      "type": "event"
    },
    {
      "inputs": [],
      "name": "VERSION",
      "outputs": [
        {
          "internalType": "uint256",
          "name": "",
          "type": "uint256"
        }
      ],
      "stateMutability": "view",
      "type": "function"
    },
    {
      "inputs": [
        {
          "internalType": "address",
          "name": "firstManager_",
          "type": "address"
        },
        {
          "internalType": "uint256",
          "name": "claimAmount_",
          "type": "uint256"
        },
        {
          "internalType": "uint256",
          "name": "maxClaim_",
          "type": "uint256"
        },
        {
          "internalType": "uint256",
          "name": "baseInterval_",
          "type": "uint256"
        },
        {
          "internalType": "uint256",
          "name": "incrementInterval_",
          "type": "uint256"
        }
      ],
      "name": "addCommunity",
      "outputs": [],
      "stateMutability": "nonpayable",
      "type": "function"
    },
    {
      "inputs": [],
      "name": "cUSD",
      "outputs": [
        {
          "internalType": "contract IERC20",
          "name": "",
          "type": "address"
        }
      ],
      "stateMutability": "view",
      "type": "function"
    },
    {
      "inputs": [
        {
          "internalType": "address",
          "name": "communityAddress_",
          "type": "address"
        }
      ],
      "name": "communities",
      "outputs": [
        {
          "internalType": "enum ICommunityAdmin.CommunityState",
          "name": "",
          "type": "uint8"
        }
      ],
      "stateMutability": "view",
      "type": "function"
    },
    {
      "inputs": [
        {
          "internalType": "uint256",
          "name": "index",
          "type": "uint256"
        }
      ],
      "name": "communityList",
      "outputs": [
        {
          "internalType": "address",
          "name": "",
          "type": "address"
        }
      ],
      "stateMutability": "view",
      "type": "function"
    },
    {
      "inputs": [],
      "name": "communityListLength",
      "outputs": [
        {
          "internalType": "uint256",
          "name": "",
          "type": "uint256"
        }
      ],
      "stateMutability": "view",
      "type": "function"
    },
    {
      "inputs": [],
      "name": "communityMaxTranche",
      "outputs": [
        {
          "internalType": "uint256",
          "name": "",
          "type": "uint256"
        }
      ],
      "stateMutability": "view",
      "type": "function"
    },
    {
      "inputs": [],
      "name": "communityMinTranche",
      "outputs": [
        {
          "internalType": "uint256",
          "name": "",
          "type": "uint256"
        }
      ],
      "stateMutability": "view",
      "type": "function"
    },
    {
      "inputs": [],
      "name": "fundCommunity",
      "outputs": [],
      "stateMutability": "nonpayable",
      "type": "function"
    },
    {
      "inputs": [
        {
          "internalType": "contract ICommunity",
          "name": "communityTemplate_",
          "type": "address"
        },
        {
          "internalType": "contract IERC20",
          "name": "cUSD_",
          "type": "address"
        },
        {
          "internalType": "uint256",
          "name": "communityMinTranche_",
          "type": "uint256"
        },
        {
          "internalType": "uint256",
          "name": "communityMaxTranche_",
          "type": "uint256"
        }
      ],
      "name": "initialize",
      "outputs": [],
      "stateMutability": "nonpayable",
      "type": "function"
    },
    {
      "inputs": [
        {
          "internalType": "address",
          "name": "firstManager_",
          "type": "address"
        },
        {
          "internalType": "contract ICommunity",
          "name": "previousCommunity_",
          "type": "address"
        },
        {
          "internalType": "contract ICommunityAdmin",
          "name": "newCommunityAdminHelper_",
          "type": "address"
        }
      ],
      "name": "migrateCommunity",
      "outputs": [],
      "stateMutability": "nonpayable",
      "type": "function"
    },
    {
      "inputs": [],
      "name": "owner",
      "outputs": [
        {
          "internalType": "address",
          "name": "",
          "type": "address"
        }
      ],
      "stateMutability": "view",
      "type": "function"
    },
    {
      "inputs": [
        {
          "internalType": "contract ICommunity",
          "name": "community_",
          "type": "address"
        }
      ],
      "name": "removeCommunity",
      "outputs": [],
      "stateMutability": "nonpayable",
      "type": "function"
    },
    {
      "inputs": [],
      "name": "renounceOwnership",
      "outputs": [],
      "stateMutability": "nonpayable",
      "type": "function"
    },
    {
      "inputs": [
        {
          "internalType": "uint256",
          "name": "newCommunityMaxTranche_",
          "type": "uint256"
        }
      ],
      "name": "setCommunityMaxTranche",
      "outputs": [],
      "stateMutability": "nonpayable",
      "type": "function"
    },
    {
      "inputs": [
        {
          "internalType": "uint256",
          "name": "newCommunityMinTranche_",
          "type": "uint256"
        }
      ],
      "name": "setCommunityMinTranche",
      "outputs": [],
      "stateMutability": "nonpayable",
      "type": "function"
    },
    {
      "inputs": [
        {
          "internalType": "contract ITreasury",
          "name": "newTreasury_",
          "type": "address"
        }
      ],
      "name": "setTreasury",
      "outputs": [],
      "stateMutability": "nonpayable",
      "type": "function"
    },
    {
      "inputs": [
        {
          "internalType": "contract IERC20",
          "name": "erc20_",
          "type": "address"
        },
        {
          "internalType": "address",
          "name": "to_",
          "type": "address"
        },
        {
          "internalType": "uint256",
          "name": "amount_",
          "type": "uint256"
        }
      ],
      "name": "transfer",
      "outputs": [],
      "stateMutability": "nonpayable",
      "type": "function"
    },
    {
      "inputs": [
        {
          "internalType": "contract ICommunity",
          "name": "community_",
          "type": "address"
        },
        {
          "internalType": "contract IERC20",
          "name": "erc20_",
          "type": "address"
        },
        {
          "internalType": "address",
          "name": "to_",
          "type": "address"
        },
        {
          "internalType": "uint256",
          "name": "amount_",
          "type": "uint256"
        }
      ],
      "name": "transferFromCommunity",
      "outputs": [],
      "stateMutability": "nonpayable",
      "type": "function"
    },
    {
      "inputs": [
        {
          "internalType": "address",
          "name": "newOwner",
          "type": "address"
        }
      ],
      "name": "transferOwnership",
      "outputs": [],
      "stateMutability": "nonpayable",
      "type": "function"
    },
    {
      "inputs": [],
      "name": "treasury",
      "outputs": [
        {
          "internalType": "contract ITreasury",
          "name": "",
          "type": "address"
        }
      ],
      "stateMutability": "view",
      "type": "function"
    },
    {
      "inputs": [
        {
          "internalType": "address",
          "name": "_communityProxy",
          "type": "address"
        },
        {
          "internalType": "address",
          "name": "_newLogic",
          "type": "address"
        }
      ],
      "name": "updateProxyImplementation",
      "outputs": [],
      "stateMutability": "nonpayable",
      "type": "function"
    },
    {
      "inputs": [
        {
          "internalType": "address",
          "name": "newImplementation",
          "type": "address"
        }
      ],
      "name": "upgrade",
      "outputs": [],
      "stateMutability": "nonpayable",
      "type": "function"
    }
  ],
  "transactionHash": "0x93001c58edd41558da60db36010ac36d98c82948d156a342fbe86f0659e0316a",
  "args": [],
  "solcInputHash": "9c20b7d0ef3c95f34061765f16360135",
  "bytecode": "0x608060405234801561001057600080fd5b5061665f806100206000396000f3fe60806040523480156200001157600080fd5b50600436106200016c5760003560e01c8063868a7e8811620000d5578063beabacc81162000087578063beabacc8146200039f578063eb990c5914620003bf578063f00d096414620003df578063f0f442601462000401578063f2fde38b1462000421578063ffa1ad741462000441576200016c565b8063868a7e8814620002c55780638774be9b14620002e75780638da5cb5b14620003075780638e30971b1462000329578063926345401462000349578063a681b7ba1462000369576200016c565b8063255cef69116200012f578063255cef6914620001ff57806339f539a214620002215780635e347360146200024157806361d027b31462000261578063715018a614620002835780637f2813d2146200028f576200016c565b80630900f01014620001715780630b4afb1b1462000191578063174a71d714620001b15780631d2c935914620001bd5780631fccf67214620001dd575b600080fd5b6200018f600480360381019062000189919062002850565b62000463565b005b620001af6004803603810190620001a9919062002925565b62000529565b005b620001bb62000739565b005b620001db6004803603810190620001d5919062002a11565b6200090b565b005b620001e762000a07565b604051620001f6919062003063565b60405180910390f35b6200020962000a31565b60405162000218919062003302565b60405180910390f35b6200023f600480360381019062000239919062002882565b62000a3b565b005b6200025f600480360381019062000259919062002b83565b62000b55565b005b6200026b62000c56565b6040516200027a9190620030bd565b60405180910390f35b6200028d62000c80565b005b620002ad6004803603810190620002a7919062002850565b62000d11565b604051620002bc919062003107565b60405180910390f35b620002cf62000d67565b604051620002de919062003302565b60405180910390f35b620003056004803603810190620002ff9190620028c9565b62000d71565b005b62000311620012c7565b60405162000320919062002f2b565b60405180910390f35b62000347600480360381019062000341919062002b83565b620012f1565b005b620003676004803603810190620003619190620029df565b620013f2565b005b62000387600480360381019062000381919062002b83565b62001526565b60405162000396919062002f2b565b60405180910390f35b620003bd6004803603810190620003b7919062002af5565b62001545565b005b620003dd6004803603810190620003d7919062002a83565b620015fa565b005b620003e96200182d565b604051620003f8919062003302565b60405180910390f35b6200041f600480360381019062000419919062002b51565b62001840565b005b6200043f600480360381019062000439919062002850565b62001907565b005b6200044b62001a0b565b6040516200045a919062003302565b60405180910390f35b6200046d62001a10565b73ffffffffffffffffffffffffffffffffffffffff166200048d620012c7565b73ffffffffffffffffffffffffffffffffffffffff1614620004e6576040517f08c379a0000000000000000000000000000000000000000000000000000000008152600401620004dd90620031f2565b60405180910390fd5b806000806101000a81548173ffffffffffffffffffffffffffffffffffffffff021916908373ffffffffffffffffffffffffffffffffffffffff16021790555050565b6200053362001a10565b73ffffffffffffffffffffffffffffffffffffffff1662000553620012c7565b73ffffffffffffffffffffffffffffffffffffffff1614620005ac576040517f08c379a0000000000000000000000000000000000000000000000000000000008152600401620005a390620031f2565b60405180910390fd5b6000620005bf8686868686600062001a18565b9050600073ffffffffffffffffffffffffffffffffffffffff168173ffffffffffffffffffffffffffffffffffffffff16141562000634576040517f08c379a00000000000000000000000000000000000000000000000000000000081526004016200062b906200327a565b60405180910390fd5b6001600760008373ffffffffffffffffffffffffffffffffffffffff1673ffffffffffffffffffffffffffffffffffffffff16815260200190815260200160002060006101000a81548160ff021916908360028111156200069a57620006996200369c565b5b0217905550620006b581600862001bcb90919063ffffffff16565b508573ffffffffffffffffffffffffffffffffffffffff168173ffffffffffffffffffffffffffffffffffffffff167f5864130135b8d46c4808bc474964778f56ef5f98402be58df45a515edd08d304878787876040516200071b94939291906200331f565b60405180910390a3620007318160055462001bfd565b505050505050565b6001600281111562000750576200074f6200369c565b5b600760003373ffffffffffffffffffffffffffffffffffffffff1673ffffffffffffffffffffffffffffffffffffffff16815260200190815260200160002060009054906101000a900460ff166002811115620007b257620007b16200369c565b5b14620007f5576040517f08c379a0000000000000000000000000000000000000000000000000000000008152600401620007ec9062003214565b60405180910390fd5b600554600160009054906101000a900473ffffffffffffffffffffffffffffffffffffffff1673ffffffffffffffffffffffffffffffffffffffff166370a08231336040518263ffffffff1660e01b815260040162000855919062002f2b565b60206040518083038186803b1580156200086e57600080fd5b505afa15801562000883573d6000803e3d6000fd5b505050506040513d601f19601f82011682018060405250810190620008a9919062002bb5565b1115620008ed576040517f08c379a0000000000000000000000000000000000000000000000000000000008152600401620008e490620032e0565b60405180910390fd5b6000620008fa3362001d27565b905062000908338262001bfd565b50565b6200091562001a10565b73ffffffffffffffffffffffffffffffffffffffff1662000935620012c7565b73ffffffffffffffffffffffffffffffffffffffff16146200098e576040517f08c379a00000000000000000000000000000000000000000000000000000000081526004016200098590620031f2565b60405180910390fd5b8373ffffffffffffffffffffffffffffffffffffffff16631501bf038484846040518463ffffffff1660e01b8152600401620009cd9392919062003080565b600060405180830381600087803b158015620009e857600080fd5b505af1158015620009fd573d6000803e3d6000fd5b5050505050505050565b6000600160009054906101000a900473ffffffffffffffffffffffffffffffffffffffff16905090565b6000600654905090565b62000a4562001a10565b73ffffffffffffffffffffffffffffffffffffffff1662000a65620012c7565b73ffffffffffffffffffffffffffffffffffffffff161462000abe576040517f08c379a000000000000000000000000000000000000000000000000000000000815260040162000ab590620031f2565b60405180910390fd5b600460009054906101000a900473ffffffffffffffffffffffffffffffffffffffff1673ffffffffffffffffffffffffffffffffffffffff166399a88ec483836040518363ffffffff1660e01b815260040162000b1d929190620030da565b600060405180830381600087803b15801562000b3857600080fd5b505af115801562000b4d573d6000803e3d6000fd5b505050505050565b62000b5f62001a10565b73ffffffffffffffffffffffffffffffffffffffff1662000b7f620012c7565b73ffffffffffffffffffffffffffffffffffffffff161462000bd8576040517f08c379a000000000000000000000000000000000000000000000000000000000815260040162000bcf90620031f2565b60405180910390fd5b806005541062000c1f576040517f08c379a000000000000000000000000000000000000000000000000000000000815260040162000c1690620031d0565b60405180910390fd5b80600681905550807f99d204dd7ae6365474b11bb0e2750714699dc57fbe2d0b7c1bef72bb42f4405260405160405180910390a250565b6000600260009054906101000a900473ffffffffffffffffffffffffffffffffffffffff16905090565b62000c8a62001a10565b73ffffffffffffffffffffffffffffffffffffffff1662000caa620012c7565b73ffffffffffffffffffffffffffffffffffffffff161462000d03576040517f08c379a000000000000000000000000000000000000000000000000000000000815260040162000cfa90620031f2565b60405180910390fd5b62000d0f600062001fc5565b565b6000600760008373ffffffffffffffffffffffffffffffffffffffff1673ffffffffffffffffffffffffffffffffffffffff16815260200190815260200160002060009054906101000a900460ff169050919050565b6000600554905090565b62000d7b62001a10565b73ffffffffffffffffffffffffffffffffffffffff1662000d9b620012c7565b73ffffffffffffffffffffffffffffffffffffffff161462000df4576040517f08c379a000000000000000000000000000000000000000000000000000000000815260040162000deb90620031f2565b60405180910390fd5b6002600760008473ffffffffffffffffffffffffffffffffffffffff1673ffffffffffffffffffffffffffffffffffffffff16815260200190815260200160002060006101000a81548160ff0219169083600281111562000e5a5762000e596200369c565b5b0217905550600073ffffffffffffffffffffffffffffffffffffffff168273ffffffffffffffffffffffffffffffffffffffff16141562000ed2576040517f08c379a000000000000000000000000000000000000000000000000000000000815260040162000ec99062003236565b60405180910390fd5b6000620010e8848473ffffffffffffffffffffffffffffffffffffffff1663830953ab6040518163ffffffff1660e01b815260040160206040518083038186803b15801562000f2057600080fd5b505afa15801562000f35573d6000803e3d6000fd5b505050506040513d601f19601f8201168201806040525081019062000f5b919062002bb5565b8573ffffffffffffffffffffffffffffffffffffffff1663d4938db36040518163ffffffff1660e01b815260040160206040518083038186803b15801562000fa257600080fd5b505afa15801562000fb7573d6000803e3d6000fd5b505050506040513d601f19601f8201168201806040525081019062000fdd919062002bb5565b8673ffffffffffffffffffffffffffffffffffffffff16630e5b7c536040518163ffffffff1660e01b815260040160206040518083038186803b1580156200102457600080fd5b505afa15801562001039573d6000803e3d6000fd5b505050506040513d601f19601f820116820180604052508101906200105f919062002bb5565b8773ffffffffffffffffffffffffffffffffffffffff1663597be18b6040518163ffffffff1660e01b815260040160206040518083038186803b158015620010a657600080fd5b505afa158015620010bb573d6000803e3d6000fd5b505050506040513d601f19601f82011682018060405250810190620010e1919062002bb5565b8862001a18565b9050600073ffffffffffffffffffffffffffffffffffffffff168173ffffffffffffffffffffffffffffffffffffffff1614156200115d576040517f08c379a0000000000000000000000000000000000000000000000000000000008152600401620011549062003236565b60405180910390fd5b8273ffffffffffffffffffffffffffffffffffffffff16631fe9578e82866040518363ffffffff1660e01b81526004016200119a92919062003036565b600060405180830381600087803b158015620011b557600080fd5b505af1158015620011ca573d6000803e3d6000fd5b505050506001600760008373ffffffffffffffffffffffffffffffffffffffff1673ffffffffffffffffffffffffffffffffffffffff16815260200190815260200160002060006101000a81548160ff021916908360028111156200123457620012336200369c565b5b02179055506200124f81600862001bcb90919063ffffffff16565b508273ffffffffffffffffffffffffffffffffffffffff168173ffffffffffffffffffffffffffffffffffffffff168573ffffffffffffffffffffffffffffffffffffffff167f98c0ae41ed9dcfef204d20409e01d4051eee4da4276aa4b5fa1cb3cf01403d6860405160405180910390a450505050565b6000603d60009054906101000a900473ffffffffffffffffffffffffffffffffffffffff16905090565b620012fb62001a10565b73ffffffffffffffffffffffffffffffffffffffff166200131b620012c7565b73ffffffffffffffffffffffffffffffffffffffff161462001374576040517f08c379a00000000000000000000000000000000000000000000000000000000081526004016200136b90620031f2565b60405180910390fd5b6006548110620013bb576040517f08c379a0000000000000000000000000000000000000000000000000000000008152600401620013b2906200318c565b60405180910390fd5b80600581905550807f61d018ca7dd3e2bb8e9a1994153b31c93371ac0e87da1f4dfcfa73e31a332fb160405160405180910390a250565b620013fc62001a10565b73ffffffffffffffffffffffffffffffffffffffff166200141c620012c7565b73ffffffffffffffffffffffffffffffffffffffff161462001475576040517f08c379a00000000000000000000000000000000000000000000000000000000081526004016200146c90620031f2565b60405180910390fd5b6002600760008373ffffffffffffffffffffffffffffffffffffffff1673ffffffffffffffffffffffffffffffffffffffff16815260200190815260200160002060006101000a81548160ff02191690836002811115620014db57620014da6200369c565b5b02179055508073ffffffffffffffffffffffffffffffffffffffff167fa285b77d62d36ec6881b2cbc019c53874eb061798176f3577f2beab0848d16c660405160405180910390a250565b60006200153e8260086200208b90919063ffffffff16565b9050919050565b6200154f62001a10565b73ffffffffffffffffffffffffffffffffffffffff166200156f620012c7565b73ffffffffffffffffffffffffffffffffffffffff1614620015c8576040517f08c379a0000000000000000000000000000000000000000000000000000000008152600401620015bf90620031f2565b60405180910390fd5b620015f582828573ffffffffffffffffffffffffffffffffffffffff16620020a79092919063ffffffff16565b505050565b600a60019054906101000a900460ff1680620016235750600a60009054906101000a900460ff16155b62001665576040517f08c379a00000000000000000000000000000000000000000000000000000000081526004016200165c90620031ae565b60405180910390fd5b6000600a60019054906101000a900460ff161590508015620016b8576001600a60016101000a81548160ff0219169083151502179055506001600a60006101000a81548160ff0219169083151502179055505b818310620016fd576040517f08c379a0000000000000000000000000000000000000000000000000000000008152600401620016f490620032be565b60405180910390fd5b6200170762002131565b84600360006101000a81548173ffffffffffffffffffffffffffffffffffffffff021916908373ffffffffffffffffffffffffffffffffffffffff16021790555083600160006101000a81548173ffffffffffffffffffffffffffffffffffffffff021916908373ffffffffffffffffffffffffffffffffffffffff1602179055508260058190555081600681905550604051620017a5906200277c565b604051809103906000f080158015620017c2573d6000803e3d6000fd5b50600460006101000a81548173ffffffffffffffffffffffffffffffffffffffff021916908373ffffffffffffffffffffffffffffffffffffffff160217905550801562001826576000600a60016101000a81548160ff0219169083151502179055505b5050505050565b60006200183b600862002229565b905090565b6200184a62001a10565b73ffffffffffffffffffffffffffffffffffffffff166200186a620012c7565b73ffffffffffffffffffffffffffffffffffffffff1614620018c3576040517f08c379a0000000000000000000000000000000000000000000000000000000008152600401620018ba90620031f2565b60405180910390fd5b80600260006101000a81548173ffffffffffffffffffffffffffffffffffffffff021916908373ffffffffffffffffffffffffffffffffffffffff16021790555050565b6200191162001a10565b73ffffffffffffffffffffffffffffffffffffffff1662001931620012c7565b73ffffffffffffffffffffffffffffffffffffffff16146200198a576040517f08c379a00000000000000000000000000000000000000000000000000000000081526004016200198190620031f2565b60405180910390fd5b600073ffffffffffffffffffffffffffffffffffffffff168173ffffffffffffffffffffffffffffffffffffffff161415620019fd576040517f08c379a0000000000000000000000000000000000000000000000000000000008152600401620019f49062003148565b60405180910390fd5b62001a088162001fc5565b50565b600181565b600033905090565b600062001a2462001a10565b73ffffffffffffffffffffffffffffffffffffffff1662001a44620012c7565b73ffffffffffffffffffffffffffffffffffffffff161462001a9d576040517f08c379a000000000000000000000000000000000000000000000000000000000815260040162001a9490620031f2565b60405180910390fd5b6000600360009054906101000a900473ffffffffffffffffffffffffffffffffffffffff16600460009054906101000a900473ffffffffffffffffffffffffffffffffffffffff168989898989893060405160240162001b04979695949392919062002fb9565b6040516020818303038152906040527fa8cec45f000000000000000000000000000000000000000000000000000000007bffffffffffffffffffffffffffffffffffffffffffffffffffffffff19166020820180517bffffffffffffffffffffffffffffffffffffffffffffffffffffffff838183161783525050505060405162001b8f906200278a565b62001b9d9392919062002f48565b604051809103906000f08015801562001bba573d6000803e3d6000fd5b509050809150509695505050505050565b600062001bf5836000018373ffffffffffffffffffffffffffffffffffffffff1660001b62002240565b905092915050565b600260009054906101000a900473ffffffffffffffffffffffffffffffffffffffff1673ffffffffffffffffffffffffffffffffffffffff1663beabacc8600160009054906101000a900473ffffffffffffffffffffffffffffffffffffffff1684846040518463ffffffff1660e01b815260040162001c809392919062003080565b600060405180830381600087803b15801562001c9b57600080fd5b505af115801562001cb0573d6000803e3d6000fd5b505050508173ffffffffffffffffffffffffffffffffffffffff1663b809ee82826040518263ffffffff1660e01b815260040162001cef919062003302565b600060405180830381600087803b15801562001d0a57600080fd5b505af115801562001d1f573d6000803e3d6000fd5b505050505050565b6000808273ffffffffffffffffffffffffffffffffffffffff1663431a801a6040518163ffffffff1660e01b815260040160206040518083038186803b15801562001d7157600080fd5b505afa15801562001d86573d6000803e3d6000fd5b505050506040513d601f19601f8201168201806040525081019062001dac919062002bb5565b905060008373ffffffffffffffffffffffffffffffffffffffff1663830953ab6040518163ffffffff1660e01b815260040160206040518083038186803b15801562001df757600080fd5b505afa15801562001e0c573d6000803e3d6000fd5b505050506040513d601f19601f8201168201806040525081019062001e32919062002bb5565b905060008473ffffffffffffffffffffffffffffffffffffffff16639c01a4016040518163ffffffff1660e01b815260040160206040518083038186803b15801562001e7d57600080fd5b505afa15801562001e92573d6000803e3d6000fd5b505050506040513d601f19601f8201168201806040525081019062001eb8919062002bb5565b905060008573ffffffffffffffffffffffffffffffffffffffff1663d6dbd9726040518163ffffffff1660e01b815260040160206040518083038186803b15801562001f0357600080fd5b505afa15801562001f18573d6000803e3d6000fd5b505050506040513d601f19601f8201168201806040525081019062001f3e919062002bb5565b90506000828462001f50919062003444565b828462001f5e9190620033af565b866f0785ee10d5da46d900f436a00000000062001f7c919062003444565b62001f88919062003444565b62001f9491906200340c565b905060055481101562001fa75760055490505b60065481111562001fb85760065490505b8095505050505050919050565b6000603d60009054906101000a900473ffffffffffffffffffffffffffffffffffffffff16905081603d60006101000a81548173ffffffffffffffffffffffffffffffffffffffff021916908373ffffffffffffffffffffffffffffffffffffffff1602179055508173ffffffffffffffffffffffffffffffffffffffff168173ffffffffffffffffffffffffffffffffffffffff167f8be0079c531659141344cd1fd0a4f28419497f9722a3daafe3b4186f6b6457e060405160405180910390a35050565b60006200209c8360000183620022b4565b60001c905092915050565b6200212c8363a9059cbb60e01b8484604051602401620020c992919062002f8c565b604051602081830303815290604052907bffffffffffffffffffffffffffffffffffffffffffffffffffffffff19166020820180517bffffffffffffffffffffffffffffffffffffffffffffffffffffffff8381831617835250505050620022e2565b505050565b600a60019054906101000a900460ff16806200215a5750600a60009054906101000a900460ff16155b6200219c576040517f08c379a00000000000000000000000000000000000000000000000000000000081526004016200219390620031ae565b60405180910390fd5b6000600a60019054906101000a900460ff161590508015620021ef576001600a60016101000a81548160ff0219169083151502179055506001600a60006101000a81548160ff0219169083151502179055505b620021f9620023b1565b6200220362002495565b801562002226576000600a60016101000a81548160ff0219169083151502179055505b50565b600062002239826000016200258d565b9050919050565b60006200224e83836200259e565b620022a9578260000182908060018154018082558091505060019003906000526020600020016000909190919091505582600001805490508360010160008481526020019081526020016000208190555060019050620022ae565b600090505b92915050565b6000826000018281548110620022cf57620022ce620036cb565b5b9060005260206000200154905092915050565b600062002346826040518060400160405280602081526020017f5361666545524332303a206c6f772d6c6576656c2063616c6c206661696c65648152508573ffffffffffffffffffffffffffffffffffffffff16620025c19092919063ffffffff16565b9050600081511115620023ac5780806020019051810190620023699190620029ad565b620023ab576040517f08c379a0000000000000000000000000000000000000000000000000000000008152600401620023a2906200329c565b60405180910390fd5b5b505050565b600a60019054906101000a900460ff1680620023da5750600a60009054906101000a900460ff16155b6200241c576040517f08c379a00000000000000000000000000000000000000000000000000000000081526004016200241390620031ae565b60405180910390fd5b6000600a60019054906101000a900460ff1615905080156200246f576001600a60016101000a81548160ff0219169083151502179055506001600a60006101000a81548160ff0219169083151502179055505b801562002492576000600a60016101000a81548160ff0219169083151502179055505b50565b600a60019054906101000a900460ff1680620024be5750600a60009054906101000a900460ff16155b62002500576040517f08c379a0000000000000000000000000000000000000000000000000000000008152600401620024f790620031ae565b60405180910390fd5b6000600a60019054906101000a900460ff16159050801562002553576001600a60016101000a81548160ff0219169083151502179055506001600a60006101000a81548160ff0219169083151502179055505b620025676200256162001a10565b62001fc5565b80156200258a576000600a60016101000a81548160ff0219169083151502179055505b50565b600081600001805490509050919050565b600080836001016000848152602001908152602001600020541415905092915050565b6060620025d28484600085620025db565b90509392505050565b60608247101562002623576040517f08c379a00000000000000000000000000000000000000000000000000000000081526004016200261a906200316a565b60405180910390fd5b6200262e85620026fd565b62002670576040517f08c379a0000000000000000000000000000000000000000000000000000000008152600401620026679062003258565b60405180910390fd5b6000808673ffffffffffffffffffffffffffffffffffffffff1685876040516200269b919062002f12565b60006040518083038185875af1925050503d8060008114620026da576040519150601f19603f3d011682016040523d82523d6000602084013e620026df565b606091505b5091509150620026f182828662002710565b92505050949350505050565b600080823b905060008111915050919050565b60608315620027225782905062002775565b600083511115620027365782518084602001fd5b816040517f08c379a00000000000000000000000000000000000000000000000000000000081526004016200276c919062003124565b60405180910390fd5b9392505050565b610fa08062003c2d83390190565b611a5d8062004bcd83390190565b600081359050620027a98162003b76565b92915050565b600081519050620027c08162003b90565b92915050565b600081359050620027d78162003baa565b92915050565b600081359050620027ee8162003bc4565b92915050565b600081359050620028058162003bde565b92915050565b6000813590506200281c8162003bf8565b92915050565b600081359050620028338162003c12565b92915050565b6000815190506200284a8162003c12565b92915050565b600060208284031215620028695762002868620036fa565b5b6000620028798482850162002798565b91505092915050565b600080604083850312156200289c576200289b620036fa565b5b6000620028ac8582860162002798565b9250506020620028bf8582860162002798565b9150509250929050565b600080600060608486031215620028e557620028e4620036fa565b5b6000620028f58682870162002798565b93505060206200290886828701620027dd565b92505060406200291b86828701620027c6565b9150509250925092565b600080600080600060a08688031215620029445762002943620036fa565b5b6000620029548882890162002798565b9550506020620029678882890162002822565b94505060406200297a8882890162002822565b93505060606200298d8882890162002822565b9250506080620029a08882890162002822565b9150509295509295909350565b600060208284031215620029c657620029c5620036fa565b5b6000620029d684828501620027af565b91505092915050565b600060208284031215620029f857620029f7620036fa565b5b600062002a0884828501620027dd565b91505092915050565b6000806000806080858703121562002a2e5762002a2d620036fa565b5b600062002a3e87828801620027dd565b945050602062002a5187828801620027f4565b935050604062002a648782880162002798565b925050606062002a778782880162002822565b91505092959194509250565b6000806000806080858703121562002aa05762002a9f620036fa565b5b600062002ab087828801620027dd565b945050602062002ac387828801620027f4565b935050604062002ad68782880162002822565b925050606062002ae98782880162002822565b91505092959194509250565b60008060006060848603121562002b115762002b10620036fa565b5b600062002b2186828701620027f4565b935050602062002b348682870162002798565b925050604062002b478682870162002822565b9150509250925092565b60006020828403121562002b6a5762002b69620036fa565b5b600062002b7a848285016200280b565b91505092915050565b60006020828403121562002b9c5762002b9b620036fa565b5b600062002bac8482850162002822565b91505092915050565b60006020828403121562002bce5762002bcd620036fa565b5b600062002bde8482850162002839565b91505092915050565b62002bf281620034a5565b82525050565b600062002c05826200336c565b62002c11818562003382565b935062002c2381856020860162003608565b62002c2e81620036ff565b840191505092915050565b600062002c46826200336c565b62002c52818562003393565b935062002c6481856020860162003608565b80840191505092915050565b62002c7b8162003554565b82525050565b62002c8c816200357c565b82525050565b62002c9d81620035a4565b82525050565b62002cae81620035cc565b82525050565b62002cbf81620035f4565b82525050565b600062002cd28262003377565b62002cde81856200339e565b935062002cf081856020860162003608565b62002cfb81620036ff565b840191505092915050565b600062002d156026836200339e565b915062002d228262003710565b604082019050919050565b600062002d3c6026836200339e565b915062002d49826200375f565b604082019050919050565b600062002d636067836200339e565b915062002d7082620037ae565b608082019050919050565b600062002d8a602e836200339e565b915062002d978262003849565b604082019050919050565b600062002db1606a836200339e565b915062002dbe8262003898565b608082019050919050565b600062002dd86020836200339e565b915062002de58262003933565b602082019050919050565b600062002dff601d836200339e565b915062002e0c826200395c565b602082019050919050565b600062002e26602b836200339e565b915062002e338262003985565b604082019050919050565b600062002e4d601d836200339e565b915062002e5a82620039d4565b602082019050919050565b600062002e746027836200339e565b915062002e8182620039fd565b604082019050919050565b600062002e9b602a836200339e565b915062002ea88262003a4c565b604082019050919050565b600062002ec26058836200339e565b915062002ecf8262003a9b565b606082019050919050565b600062002ee9603e836200339e565b915062002ef68262003b10565b604082019050919050565b62002f0c816200354a565b82525050565b600062002f20828462002c39565b915081905092915050565b600060208201905062002f42600083018462002be7565b92915050565b600060608201905062002f5f600083018662002be7565b62002f6e602083018562002be7565b818103604083015262002f82818462002bf8565b9050949350505050565b600060408201905062002fa3600083018562002be7565b62002fb2602083018462002f01565b9392505050565b600060e08201905062002fd0600083018a62002be7565b62002fdf602083018962002f01565b62002fee604083018862002f01565b62002ffd606083018762002f01565b6200300c608083018662002f01565b6200301b60a083018562002be7565b6200302a60c083018462002be7565b98975050505050505050565b60006040820190506200304d600083018562002c70565b6200305c602083018462002be7565b9392505050565b60006020820190506200307a600083018462002c81565b92915050565b600060608201905062003097600083018662002c81565b620030a6602083018562002be7565b620030b5604083018462002f01565b949350505050565b6000602082019050620030d4600083018462002c92565b92915050565b6000604082019050620030f1600083018562002ca3565b62003100602083018462002be7565b9392505050565b60006020820190506200311e600083018462002cb4565b92915050565b6000602082019050818103600083015262003140818462002cc5565b905092915050565b60006020820190508181036000830152620031638162002d06565b9050919050565b60006020820190508181036000830152620031858162002d2d565b9050919050565b60006020820190508181036000830152620031a78162002d54565b9050919050565b60006020820190508181036000830152620031c98162002d7b565b9050919050565b60006020820190508181036000830152620031eb8162002da2565b9050919050565b600060208201905081810360008301526200320d8162002dc9565b9050919050565b600060208201905081810360008301526200322f8162002df0565b9050919050565b60006020820190508181036000830152620032518162002e17565b9050919050565b60006020820190508181036000830152620032738162002e3e565b9050919050565b60006020820190508181036000830152620032958162002e65565b9050919050565b60006020820190508181036000830152620032b78162002e8c565b9050919050565b60006020820190508181036000830152620032d98162002eb3565b9050919050565b60006020820190508181036000830152620032fb8162002eda565b9050919050565b600060208201905062003319600083018462002f01565b92915050565b600060808201905062003336600083018762002f01565b62003345602083018662002f01565b62003354604083018562002f01565b62003363606083018462002f01565b95945050505050565b600081519050919050565b600081519050919050565b600082825260208201905092915050565b600081905092915050565b600082825260208201905092915050565b6000620033bc826200354a565b9150620033c9836200354a565b9250827fffffffffffffffffffffffffffffffffffffffffffffffffffffffffffffffff038211156200340157620034006200363e565b5b828201905092915050565b600062003419826200354a565b915062003426836200354a565b9250826200343957620034386200366d565b5b828204905092915050565b600062003451826200354a565b91506200345e836200354a565b9250817fffffffffffffffffffffffffffffffffffffffffffffffffffffffffffffffff04831182151516156200349a57620034996200363e565b5b828202905092915050565b6000620034b2826200352a565b9050919050565b60008115159050919050565b6000620034d282620034a5565b9050919050565b6000620034e682620034a5565b9050919050565b6000620034fa82620034a5565b9050919050565b60006200350e82620034a5565b9050919050565b6000819050620035258262003b5f565b919050565b600073ffffffffffffffffffffffffffffffffffffffff82169050919050565b6000819050919050565b6000620035618262003568565b9050919050565b600062003575826200352a565b9050919050565b6000620035898262003590565b9050919050565b60006200359d826200352a565b9050919050565b6000620035b182620035b8565b9050919050565b6000620035c5826200352a565b9050919050565b6000620035d982620035e0565b9050919050565b6000620035ed826200352a565b9050919050565b6000620036018262003515565b9050919050565b60005b83811015620036285780820151818401526020810190506200360b565b8381111562003638576000848401525b50505050565b7f4e487b7100000000000000000000000000000000000000000000000000000000600052601160045260246000fd5b7f4e487b7100000000000000000000000000000000000000000000000000000000600052601260045260246000fd5b7f4e487b7100000000000000000000000000000000000000000000000000000000600052602160045260246000fd5b7f4e487b7100000000000000000000000000000000000000000000000000000000600052603260045260246000fd5b600080fd5b6000601f19601f8301169050919050565b7f4f776e61626c653a206e6577206f776e657220697320746865207a65726f206160008201527f6464726573730000000000000000000000000000000000000000000000000000602082015250565b7f416464726573733a20696e73756666696369656e742062616c616e636520666f60008201527f722063616c6c0000000000000000000000000000000000000000000000000000602082015250565b7f436f6d6d756e69747941646d696e3a3a736574436f6d6d756e6974794d696e5460008201527f72616e6368653a204e657720636f6d6d756e6974794d696e5472616e6368652060208201527f73686f756c64206265206c657373207468656e20636f6d6d756e6974794d617860408201527f5472616e63686500000000000000000000000000000000000000000000000000606082015250565b7f496e697469616c697a61626c653a20636f6e747261637420697320616c72656160008201527f647920696e697469616c697a6564000000000000000000000000000000000000602082015250565b7f436f6d6d756e69747941646d696e3a3a736574436f6d6d756e6974794d61785460008201527f72616e6368653a204e657720636f6d6d756e6974794d61785472616e6368652060208201527f73686f756c642062652067726561746572207468656e20636f6d6d756e69747960408201527f4d696e5472616e63686500000000000000000000000000000000000000000000606082015250565b7f4f776e61626c653a2063616c6c6572206973206e6f7420746865206f776e6572600082015250565b7f436f6d6d756e69747941646d696e3a204e4f545f434f4d4d554e495459000000600082015250565b7f436f6d6d756e69747941646d696e3a3a6d696772617465436f6d6d756e69747960008201527f3a204e4f545f56414c4944000000000000000000000000000000000000000000602082015250565b7f416464726573733a2063616c6c20746f206e6f6e2d636f6e7472616374000000600082015250565b7f436f6d6d756e69747941646d696e3a3a616464436f6d6d756e6974793a204e4f60008201527f545f56414c494400000000000000000000000000000000000000000000000000602082015250565b7f5361666545524332303a204552433230206f7065726174696f6e20646964206e60008201527f6f74207375636365656400000000000000000000000000000000000000000000602082015250565b7f436f6d6d756e69747941646d696e3a3a636f6e7374727563746f723a20636f6d60008201527f6d756e6974794d696e5472616e6368652073686f756c64206265206c6573732060208201527f7468656e20636f6d6d756e6974794d61785472616e6368650000000000000000604082015250565b7f436f6d6d756e69747941646d696e3a3a66756e64436f6d6d756e6974793a207460008201527f68697320636f6d6d756e6974792068617320656e6f7567682066756e64730000602082015250565b6003811062003b735762003b726200369c565b5b50565b62003b8181620034a5565b811462003b8d57600080fd5b50565b62003b9b81620034b9565b811462003ba757600080fd5b50565b62003bb581620034c5565b811462003bc157600080fd5b50565b62003bcf81620034d9565b811462003bdb57600080fd5b50565b62003be981620034ed565b811462003bf557600080fd5b50565b62003c038162003501565b811462003c0f57600080fd5b50565b62003c1d816200354a565b811462003c2957600080fd5b5056fe608060405234801561001057600080fd5b5061002d61002261003260201b60201c565b61003a60201b60201c565b6100fe565b600033905090565b60008060009054906101000a900473ffffffffffffffffffffffffffffffffffffffff169050816000806101000a81548173ffffffffffffffffffffffffffffffffffffffff021916908373ffffffffffffffffffffffffffffffffffffffff1602179055508173ffffffffffffffffffffffffffffffffffffffff168173ffffffffffffffffffffffffffffffffffffffff167f8be0079c531659141344cd1fd0a4f28419497f9722a3daafe3b4186f6b6457e060405160405180910390a35050565b610e938061010d6000396000f3fe60806040526004361061007b5760003560e01c80639623609d1161004e5780639623609d1461012857806399a88ec414610144578063f2fde38b1461016d578063f3b7dead146101965761007b565b8063204e1c7a14610080578063715018a6146100bd5780637eff275e146100d45780638da5cb5b146100fd575b600080fd5b34801561008c57600080fd5b506100a760048036038101906100a2919061093e565b6101d3565b6040516100b49190610b18565b60405180910390f35b3480156100c957600080fd5b506100d2610267565b005b3480156100e057600080fd5b506100fb60048036038101906100f6919061096b565b6102ef565b005b34801561010957600080fd5b506101126103da565b60405161011f9190610b18565b60405180910390f35b610142600480360381019061013d91906109ab565b610403565b005b34801561015057600080fd5b5061016b6004803603810190610166919061096b565b6104f2565b005b34801561017957600080fd5b50610194600480360381019061018f91906108e4565b6105dd565b005b3480156101a257600080fd5b506101bd60048036038101906101b8919061093e565b6106d5565b6040516101ca9190610b18565b60405180910390f35b60008060008373ffffffffffffffffffffffffffffffffffffffff166040516101fb90610aee565b600060405180830381855afa9150503d8060008114610236576040519150601f19603f3d011682016040523d82523d6000602084013e61023b565b606091505b50915091508161024a57600080fd5b8080602001905181019061025e9190610911565b92505050919050565b61026f610769565b73ffffffffffffffffffffffffffffffffffffffff1661028d6103da565b73ffffffffffffffffffffffffffffffffffffffff16146102e3576040517f08c379a00000000000000000000000000000000000000000000000000000000081526004016102da90610b83565b60405180910390fd5b6102ed6000610771565b565b6102f7610769565b73ffffffffffffffffffffffffffffffffffffffff166103156103da565b73ffffffffffffffffffffffffffffffffffffffff161461036b576040517f08c379a000000000000000000000000000000000000000000000000000000000815260040161036290610b83565b60405180910390fd5b8173ffffffffffffffffffffffffffffffffffffffff16638f283970826040518263ffffffff1660e01b81526004016103a49190610b18565b600060405180830381600087803b1580156103be57600080fd5b505af11580156103d2573d6000803e3d6000fd5b505050505050565b60008060009054906101000a900473ffffffffffffffffffffffffffffffffffffffff16905090565b61040b610769565b73ffffffffffffffffffffffffffffffffffffffff166104296103da565b73ffffffffffffffffffffffffffffffffffffffff161461047f576040517f08c379a000000000000000000000000000000000000000000000000000000000815260040161047690610b83565b60405180910390fd5b8273ffffffffffffffffffffffffffffffffffffffff16634f1ef2863484846040518463ffffffff1660e01b81526004016104bb929190610b33565b6000604051808303818588803b1580156104d457600080fd5b505af11580156104e8573d6000803e3d6000fd5b5050505050505050565b6104fa610769565b73ffffffffffffffffffffffffffffffffffffffff166105186103da565b73ffffffffffffffffffffffffffffffffffffffff161461056e576040517f08c379a000000000000000000000000000000000000000000000000000000000815260040161056590610b83565b60405180910390fd5b8173ffffffffffffffffffffffffffffffffffffffff16633659cfe6826040518263ffffffff1660e01b81526004016105a79190610b18565b600060405180830381600087803b1580156105c157600080fd5b505af11580156105d5573d6000803e3d6000fd5b505050505050565b6105e5610769565b73ffffffffffffffffffffffffffffffffffffffff166106036103da565b73ffffffffffffffffffffffffffffffffffffffff1614610659576040517f08c379a000000000000000000000000000000000000000000000000000000000815260040161065090610b83565b60405180910390fd5b600073ffffffffffffffffffffffffffffffffffffffff168173ffffffffffffffffffffffffffffffffffffffff1614156106c9576040517f08c379a00000000000000000000000000000000000000000000000000000000081526004016106c090610b63565b60405180910390fd5b6106d281610771565b50565b60008060008373ffffffffffffffffffffffffffffffffffffffff166040516106fd90610b03565b600060405180830381855afa9150503d8060008114610738576040519150601f19603f3d011682016040523d82523d6000602084013e61073d565b606091505b50915091508161074c57600080fd5b808060200190518101906107609190610911565b92505050919050565b600033905090565b60008060009054906101000a900473ffffffffffffffffffffffffffffffffffffffff169050816000806101000a81548173ffffffffffffffffffffffffffffffffffffffff021916908373ffffffffffffffffffffffffffffffffffffffff1602179055508173ffffffffffffffffffffffffffffffffffffffff168173ffffffffffffffffffffffffffffffffffffffff167f8be0079c531659141344cd1fd0a4f28419497f9722a3daafe3b4186f6b6457e060405160405180910390a35050565b600061084861084384610bc8565b610ba3565b90508281526020810184848401111561086457610863610d2e565b5b61086f848285610c87565b509392505050565b60008135905061088681610e18565b92915050565b60008151905061089b81610e2f565b92915050565b600082601f8301126108b6576108b5610d29565b5b81356108c6848260208601610835565b91505092915050565b6000813590506108de81610e46565b92915050565b6000602082840312156108fa576108f9610d38565b5b600061090884828501610877565b91505092915050565b60006020828403121561092757610926610d38565b5b60006109358482850161088c565b91505092915050565b60006020828403121561095457610953610d38565b5b6000610962848285016108cf565b91505092915050565b6000806040838503121561098257610981610d38565b5b6000610990858286016108cf565b92505060206109a185828601610877565b9150509250929050565b6000806000606084860312156109c4576109c3610d38565b5b60006109d2868287016108cf565b93505060206109e386828701610877565b925050604084013567ffffffffffffffff811115610a0457610a03610d33565b5b610a10868287016108a1565b9150509250925092565b610a2381610c31565b82525050565b6000610a3482610bf9565b610a3e8185610c04565b9350610a4e818560208601610c96565b610a5781610d3d565b840191505092915050565b6000610a6f602683610c20565b9150610a7a82610d4e565b604082019050919050565b6000610a92600483610c15565b9150610a9d82610d9d565b600482019050919050565b6000610ab5602083610c20565b9150610ac082610dc6565b602082019050919050565b6000610ad8600483610c15565b9150610ae382610def565b600482019050919050565b6000610af982610a85565b9150819050919050565b6000610b0e82610acb565b9150819050919050565b6000602082019050610b2d6000830184610a1a565b92915050565b6000604082019050610b486000830185610a1a565b8181036020830152610b5a8184610a29565b90509392505050565b60006020820190508181036000830152610b7c81610a62565b9050919050565b60006020820190508181036000830152610b9c81610aa8565b9050919050565b6000610bad610bbe565b9050610bb98282610cc9565b919050565b6000604051905090565b600067ffffffffffffffff821115610be357610be2610cfa565b5b610bec82610d3d565b9050602081019050919050565b600081519050919050565b600082825260208201905092915050565b600081905092915050565b600082825260208201905092915050565b6000610c3c82610c67565b9050919050565b6000610c4e82610c67565b9050919050565b6000610c6082610c43565b9050919050565b600073ffffffffffffffffffffffffffffffffffffffff82169050919050565b82818337600083830152505050565b60005b83811015610cb4578082015181840152602081019050610c99565b83811115610cc3576000848401525b50505050565b610cd282610d3d565b810181811067ffffffffffffffff82111715610cf157610cf0610cfa565b5b80604052505050565b7f4e487b7100000000000000000000000000000000000000000000000000000000600052604160045260246000fd5b600080fd5b600080fd5b600080fd5b600080fd5b6000601f19601f8301169050919050565b7f4f776e61626c653a206e6577206f776e657220697320746865207a65726f206160008201527f6464726573730000000000000000000000000000000000000000000000000000602082015250565b7f5c60da1b00000000000000000000000000000000000000000000000000000000600082015250565b7f4f776e61626c653a2063616c6c6572206973206e6f7420746865206f776e6572600082015250565b7ff851a44000000000000000000000000000000000000000000000000000000000600082015250565b610e2181610c31565b8114610e2c57600080fd5b50565b610e3881610c43565b8114610e4357600080fd5b50565b610e4f81610c55565b8114610e5a57600080fd5b5056fea26469706673582212202099502fa3b1e7c4bfe5d9aeecfb212782481688988ee981e71d509ae42e907764736f6c63430008050033608060405260405162001a5d38038062001a5d83398181016040528101906200002991906200068a565b828160017f360894a13ba1a3210667c828492db98dca3e2076cc3735a920a3ca505d382bbd60001c6200005d919062000964565b60001b7f360894a13ba1a3210667c828492db98dca3e2076cc3735a920a3ca505d382bbc60001b1462000095576200009462000a49565b5b620000a9828260006200012f60201b60201c565b505060017fb53127684a568b3173ae13b9f8a6016e243e63b6e8ee1178d6a717850b5d610460001c620000dd919062000964565b60001b7fb53127684a568b3173ae13b9f8a6016e243e63b6e8ee1178d6a717850b5d610360001b1462000115576200011462000a49565b5b62000126826200017260201b60201c565b50505062000c02565b6200014083620001d060201b60201c565b6000825111806200014e5750805b156200016d576200016b83836200022760201b6200034f1760201c565b505b505050565b7f7e644d79422f17c01e4894b5f4f588d331ebfa28653d42ae832dc59e38c9798f620001a36200025d60201b60201c565b82604051620001b49291906200081c565b60405180910390a1620001cd81620002c160201b60201c565b50565b620001e181620003b260201b60201c565b8073ffffffffffffffffffffffffffffffffffffffff167fbc7cd75a20ee27fd9adebab32041f755214dbc6bffa90cc0225b39da2e5c2d3b60405160405180910390a250565b606062000255838360405180606001604052806027815260200162001a36602791396200048860201b60201c565b905092915050565b6000620002987fb53127684a568b3173ae13b9f8a6016e243e63b6e8ee1178d6a717850b5d610360001b6200056c60201b6200037c1760201c565b60000160009054906101000a900473ffffffffffffffffffffffffffffffffffffffff16905090565b600073ffffffffffffffffffffffffffffffffffffffff168173ffffffffffffffffffffffffffffffffffffffff16141562000334576040517f08c379a00000000000000000000000000000000000000000000000000000000081526004016200032b906200086d565b60405180910390fd5b806200036e7fb53127684a568b3173ae13b9f8a6016e243e63b6e8ee1178d6a717850b5d610360001b6200056c60201b6200037c1760201c565b60000160006101000a81548173ffffffffffffffffffffffffffffffffffffffff021916908373ffffffffffffffffffffffffffffffffffffffff16021790555050565b620003c8816200057660201b620003861760201c565b6200040a576040517f08c379a000000000000000000000000000000000000000000000000000000000815260040162000401906200088f565b60405180910390fd5b80620004447f360894a13ba1a3210667c828492db98dca3e2076cc3735a920a3ca505d382bbc60001b6200056c60201b6200037c1760201c565b60000160006101000a81548173ffffffffffffffffffffffffffffffffffffffff021916908373ffffffffffffffffffffffffffffffffffffffff16021790555050565b60606200049b846200057660201b60201c565b620004dd576040517f08c379a0000000000000000000000000000000000000000000000000000000008152600401620004d490620008b1565b60405180910390fd5b6000808573ffffffffffffffffffffffffffffffffffffffff168560405162000507919062000803565b600060405180830381855af49150503d806000811462000544576040519150601f19603f3d011682016040523d82523d6000602084013e62000549565b606091505b5091509150620005618282866200058960201b60201c565b925050509392505050565b6000819050919050565b600080823b905060008111915050919050565b606083156200059b57829050620005ee565b600083511115620005af5782518084602001fd5b816040517f08c379a0000000000000000000000000000000000000000000000000000000008152600401620005e5919062000849565b60405180910390fd5b9392505050565b60006200060c6200060684620008fc565b620008d3565b9050828152602081018484840111156200062b576200062a62000adb565b5b62000638848285620009dd565b509392505050565b600081519050620006518162000be8565b92915050565b600082601f8301126200066f576200066e62000ad6565b5b815162000681848260208601620005f5565b91505092915050565b600080600060608486031215620006a657620006a562000ae5565b5b6000620006b68682870162000640565b9350506020620006c98682870162000640565b925050604084015167ffffffffffffffff811115620006ed57620006ec62000ae0565b5b620006fb8682870162000657565b9150509250925092565b62000710816200099f565b82525050565b6000620007238262000932565b6200072f818562000948565b935062000741818560208601620009dd565b80840191505092915050565b60006200075a826200093d565b62000766818562000953565b935062000778818560208601620009dd565b620007838162000aea565b840191505092915050565b60006200079d60268362000953565b9150620007aa8262000afb565b604082019050919050565b6000620007c4602d8362000953565b9150620007d18262000b4a565b604082019050919050565b6000620007eb60268362000953565b9150620007f88262000b99565b604082019050919050565b600062000811828462000716565b915081905092915050565b600060408201905062000833600083018562000705565b62000842602083018462000705565b9392505050565b600060208201905081810360008301526200086581846200074d565b905092915050565b6000602082019050818103600083015262000888816200078e565b9050919050565b60006020820190508181036000830152620008aa81620007b5565b9050919050565b60006020820190508181036000830152620008cc81620007dc565b9050919050565b6000620008df620008f2565b9050620008ed828262000a13565b919050565b6000604051905090565b600067ffffffffffffffff8211156200091a576200091962000aa7565b5b620009258262000aea565b9050602081019050919050565b600081519050919050565b600081519050919050565b600081905092915050565b600082825260208201905092915050565b60006200097182620009d3565b91506200097e83620009d3565b92508282101562000994576200099362000a78565b5b828203905092915050565b6000620009ac82620009b3565b9050919050565b600073ffffffffffffffffffffffffffffffffffffffff82169050919050565b6000819050919050565b60005b83811015620009fd578082015181840152602081019050620009e0565b8381111562000a0d576000848401525b50505050565b62000a1e8262000aea565b810181811067ffffffffffffffff8211171562000a405762000a3f62000aa7565b5b80604052505050565b7f4e487b7100000000000000000000000000000000000000000000000000000000600052600160045260246000fd5b7f4e487b7100000000000000000000000000000000000000000000000000000000600052601160045260246000fd5b7f4e487b7100000000000000000000000000000000000000000000000000000000600052604160045260246000fd5b600080fd5b600080fd5b600080fd5b600080fd5b6000601f19601f8301169050919050565b7f455243313936373a206e65772061646d696e20697320746865207a65726f206160008201527f6464726573730000000000000000000000000000000000000000000000000000602082015250565b7f455243313936373a206e657720696d706c656d656e746174696f6e206973206e60008201527f6f74206120636f6e747261637400000000000000000000000000000000000000602082015250565b7f416464726573733a2064656c65676174652063616c6c20746f206e6f6e2d636f60008201527f6e74726163740000000000000000000000000000000000000000000000000000602082015250565b62000bf3816200099f565b811462000bff57600080fd5b50565b610e248062000c126000396000f3fe60806040526004361061004e5760003560e01c80633659cfe6146100675780634f1ef286146100905780635c60da1b146100ac5780638f283970146100d7578063f851a440146101005761005d565b3661005d5761005b61012b565b005b61006561012b565b005b34801561007357600080fd5b5061008e600480360381019061008991906108fe565b610145565b005b6100aa60048036038101906100a5919061092b565b6101ac565b005b3480156100b857600080fd5b506100c161024a565b6040516100ce9190610aa7565b60405180910390f35b3480156100e357600080fd5b506100fe60048036038101906100f991906108fe565b6102a2565b005b34801561010c57600080fd5b506101156102f7565b6040516101229190610aa7565b60405180910390f35b610133610399565b61014361013e610419565b610428565b565b61014d61044e565b73ffffffffffffffffffffffffffffffffffffffff163373ffffffffffffffffffffffffffffffffffffffff1614156101a05761019b816040518060200160405280600081525060006104a5565b6101a9565b6101a861012b565b5b50565b6101b461044e565b73ffffffffffffffffffffffffffffffffffffffff163373ffffffffffffffffffffffffffffffffffffffff16141561023c576102378383838080601f016020809104026020016040519081016040528093929190818152602001838380828437600081840152601f19601f8201169050808301925050505050505060016104a5565b610245565b61024461012b565b5b505050565b600061025461044e565b73ffffffffffffffffffffffffffffffffffffffff163373ffffffffffffffffffffffffffffffffffffffff1614156102965761028f610419565b905061029f565b61029e61012b565b5b90565b6102aa61044e565b73ffffffffffffffffffffffffffffffffffffffff163373ffffffffffffffffffffffffffffffffffffffff1614156102eb576102e6816104d1565b6102f4565b6102f361012b565b5b50565b600061030161044e565b73ffffffffffffffffffffffffffffffffffffffff163373ffffffffffffffffffffffffffffffffffffffff1614156103435761033c61044e565b905061034c565b61034b61012b565b5b90565b60606103748383604051806060016040528060278152602001610dc86027913961051d565b905092915050565b6000819050919050565b600080823b905060008111915050919050565b6103a161044e565b73ffffffffffffffffffffffffffffffffffffffff163373ffffffffffffffffffffffffffffffffffffffff16141561040f576040517f08c379a000000000000000000000000000000000000000000000000000000000815260040161040690610b6d565b60405180910390fd5b6104176105ea565b565b60006104236105ec565b905090565b3660008037600080366000845af43d6000803e8060008114610449573d6000f35b3d6000fd5b600061047c7fb53127684a568b3173ae13b9f8a6016e243e63b6e8ee1178d6a717850b5d610360001b61037c565b60000160009054906101000a900473ffffffffffffffffffffffffffffffffffffffff16905090565b6104ae83610643565b6000825111806104bb5750805b156104cc576104ca838361034f565b505b505050565b7f7e644d79422f17c01e4894b5f4f588d331ebfa28653d42ae832dc59e38c9798f6104fa61044e565b82604051610509929190610ac2565b60405180910390a161051a81610692565b50565b606061052884610386565b610567576040517f08c379a000000000000000000000000000000000000000000000000000000000815260040161055e90610b4d565b60405180910390fd5b6000808573ffffffffffffffffffffffffffffffffffffffff168560405161058f9190610a90565b600060405180830381855af49150503d80600081146105ca576040519150601f19603f3d011682016040523d82523d6000602084013e6105cf565b606091505b50915091506105df828286610773565b925050509392505050565b565b600061061a7f360894a13ba1a3210667c828492db98dca3e2076cc3735a920a3ca505d382bbc60001b61037c565b60000160009054906101000a900473ffffffffffffffffffffffffffffffffffffffff16905090565b61064c816107da565b8073ffffffffffffffffffffffffffffffffffffffff167fbc7cd75a20ee27fd9adebab32041f755214dbc6bffa90cc0225b39da2e5c2d3b60405160405180910390a250565b600073ffffffffffffffffffffffffffffffffffffffff168173ffffffffffffffffffffffffffffffffffffffff161415610702576040517f08c379a00000000000000000000000000000000000000000000000000000000081526004016106f990610b0d565b60405180910390fd5b8061072f7fb53127684a568b3173ae13b9f8a6016e243e63b6e8ee1178d6a717850b5d610360001b61037c565b60000160006101000a81548173ffffffffffffffffffffffffffffffffffffffff021916908373ffffffffffffffffffffffffffffffffffffffff16021790555050565b60608315610783578290506107d3565b6000835111156107965782518084602001fd5b816040517f08c379a00000000000000000000000000000000000000000000000000000000081526004016107ca9190610aeb565b60405180910390fd5b9392505050565b6107e381610386565b610822576040517f08c379a000000000000000000000000000000000000000000000000000000000815260040161081990610b2d565b60405180910390fd5b8061084f7f360894a13ba1a3210667c828492db98dca3e2076cc3735a920a3ca505d382bbc60001b61037c565b60000160006101000a81548173ffffffffffffffffffffffffffffffffffffffff021916908373ffffffffffffffffffffffffffffffffffffffff16021790555050565b6000813590506108a281610db0565b92915050565b60008083601f8401126108be576108bd610c29565b5b8235905067ffffffffffffffff8111156108db576108da610c24565b5b6020830191508360018202830111156108f7576108f6610c2e565b5b9250929050565b60006020828403121561091457610913610c38565b5b600061092284828501610893565b91505092915050565b60008060006040848603121561094457610943610c38565b5b600061095286828701610893565b935050602084013567ffffffffffffffff81111561097357610972610c33565b5b61097f868287016108a8565b92509250509250925092565b61099481610bbf565b82525050565b60006109a582610b8d565b6109af8185610ba3565b93506109bf818560208601610bf1565b80840191505092915050565b60006109d682610b98565b6109e08185610bae565b93506109f0818560208601610bf1565b6109f981610c3d565b840191505092915050565b6000610a11602683610bae565b9150610a1c82610c4e565b604082019050919050565b6000610a34602d83610bae565b9150610a3f82610c9d565b604082019050919050565b6000610a57602683610bae565b9150610a6282610cec565b604082019050919050565b6000610a7a604283610bae565b9150610a8582610d3b565b606082019050919050565b6000610a9c828461099a565b915081905092915050565b6000602082019050610abc600083018461098b565b92915050565b6000604082019050610ad7600083018561098b565b610ae4602083018461098b565b9392505050565b60006020820190508181036000830152610b0581846109cb565b905092915050565b60006020820190508181036000830152610b2681610a04565b9050919050565b60006020820190508181036000830152610b4681610a27565b9050919050565b60006020820190508181036000830152610b6681610a4a565b9050919050565b60006020820190508181036000830152610b8681610a6d565b9050919050565b600081519050919050565b600081519050919050565b600081905092915050565b600082825260208201905092915050565b6000610bca82610bd1565b9050919050565b600073ffffffffffffffffffffffffffffffffffffffff82169050919050565b60005b83811015610c0f578082015181840152602081019050610bf4565b83811115610c1e576000848401525b50505050565b600080fd5b600080fd5b600080fd5b600080fd5b600080fd5b6000601f19601f8301169050919050565b7f455243313936373a206e65772061646d696e20697320746865207a65726f206160008201527f6464726573730000000000000000000000000000000000000000000000000000602082015250565b7f455243313936373a206e657720696d706c656d656e746174696f6e206973206e60008201527f6f74206120636f6e747261637400000000000000000000000000000000000000602082015250565b7f416464726573733a2064656c65676174652063616c6c20746f206e6f6e2d636f60008201527f6e74726163740000000000000000000000000000000000000000000000000000602082015250565b7f5472616e73706172656e745570677261646561626c6550726f78793a2061646d60008201527f696e2063616e6e6f742066616c6c6261636b20746f2070726f7879207461726760208201527f6574000000000000000000000000000000000000000000000000000000000000604082015250565b610db981610bbf565b8114610dc457600080fd5b5056fe416464726573733a206c6f772d6c6576656c2064656c65676174652063616c6c206661696c6564a26469706673582212209b15b1e08dca121acb2c1bb9b0418ffb848e2aee133874cd662968805037287064736f6c63430008050033416464726573733a206c6f772d6c6576656c2064656c65676174652063616c6c206661696c6564a2646970667358221220127c2fd86df5d5ac48d4764371203302895a841fa237ae96e9775456b8ee1b3b64736f6c63430008050033",
  "devdoc": {
    "kind": "dev",
    "methods": {
      "addCommunity(address,uint256,uint256,uint256,uint256)": {
        "details": "Add a new community. Can be used only by an admin. For further information regarding each parameter, see *Community* smart contract constructor."
      },
      "initialize(address,address,uint256,uint256)": {
        "details": "It sets the first admin, which later can add others and add/remove communities."
      },
      "migrateCommunity(address,address,address)": {
        "details": "Migrate community by deploying a new contract. Can be used only by an admin. For further information regarding each parameter, see *Community* smart contract constructor."
      },
      "owner()": {
        "details": "Returns the address of the current owner."
      },
      "removeCommunity(address)": {
        "details": "Remove an existing community. Can be used only by an admin."
      },
      "renounceOwnership()": {
        "details": "Leaves the contract without owner. It will not be possible to call `onlyOwner` functions anymore. Can only be called by the current owner. NOTE: Renouncing ownership will leave the contract without an owner, thereby removing any functionality that is only available to the owner."
      },
      "setCommunityMaxTranche(uint256)": {
        "details": "Set the community max tranche"
      },
      "setCommunityMinTranche(uint256)": {
        "details": "Set the community min tranche"
      },
      "transferOwnership(address)": {
        "details": "Transfers ownership of the contract to a new account (`newOwner`). Can only be called by the current owner."
      },
      "updateProxyImplementation(address,address)": {
        "params": {
          "_communityProxy": "Address of a wallet proxy",
          "_newLogic": "Address of new implementation contract"
        }
      }
    },
    "version": 1
  },
  "userdoc": {
    "kind": "user",
    "methods": {
      "updateProxyImplementation(address,address)": {
        "notice": "Update proxy implementation address"
      }
    },
    "notice": "Welcome to CommunityAdmin, the main contract. This is an administrative (for now) contract where the admins have control over the list of communities. Being only able to add and remove communities",
    "version": 1
  },
  "storageLayout": {
    "storage": [
      {
        "astId": 8571,
        "contract": "contracts/community/CommunityAdminImplementation.sol:CommunityAdminImplementation",
        "label": "implementation",
        "offset": 0,
        "slot": "0",
        "type": "t_address"
      },
      {
        "astId": 8574,
        "contract": "contracts/community/CommunityAdminImplementation.sol:CommunityAdminImplementation",
        "label": "_cUSD",
        "offset": 0,
        "slot": "1",
        "type": "t_contract(IERC20)3112"
      },
      {
        "astId": 8577,
        "contract": "contracts/community/CommunityAdminImplementation.sol:CommunityAdminImplementation",
        "label": "_treasury",
        "offset": 0,
        "slot": "2",
        "type": "t_contract(ITreasury)12533"
      },
      {
        "astId": 8580,
        "contract": "contracts/community/CommunityAdminImplementation.sol:CommunityAdminImplementation",
        "label": "_communityTemplate",
        "offset": 0,
        "slot": "3",
        "type": "t_contract(ICommunity)8810"
      },
      {
        "astId": 8583,
        "contract": "contracts/community/CommunityAdminImplementation.sol:CommunityAdminImplementation",
        "label": "_communityProxyAdmin",
        "offset": 0,
        "slot": "4",
        "type": "t_contract(ProxyAdmin)2145"
      },
      {
        "astId": 8585,
        "contract": "contracts/community/CommunityAdminImplementation.sol:CommunityAdminImplementation",
        "label": "_communityMinTranche",
        "offset": 0,
        "slot": "5",
        "type": "t_uint256"
      },
      {
        "astId": 8587,
        "contract": "contracts/community/CommunityAdminImplementation.sol:CommunityAdminImplementation",
        "label": "_communityMaxTranche",
        "offset": 0,
        "slot": "6",
        "type": "t_uint256"
      },
      {
        "astId": 8592,
        "contract": "contracts/community/CommunityAdminImplementation.sol:CommunityAdminImplementation",
        "label": "_communities",
        "offset": 0,
        "slot": "7",
        "type": "t_mapping(t_address,t_enum(CommunityState)8819)"
      },
      {
        "astId": 8595,
        "contract": "contracts/community/CommunityAdminImplementation.sol:CommunityAdminImplementation",
        "label": "_communityList",
        "offset": 0,
        "slot": "8",
        "type": "t_struct(AddressSet)4906_storage"
      },
      {
        "astId": 538,
        "contract": "contracts/community/CommunityAdminImplementation.sol:CommunityAdminImplementation",
        "label": "_initialized",
        "offset": 0,
        "slot": "10",
        "type": "t_bool"
      },
      {
        "astId": 541,
        "contract": "contracts/community/CommunityAdminImplementation.sol:CommunityAdminImplementation",
        "label": "_initializing",
        "offset": 1,
        "slot": "10",
        "type": "t_bool"
      },
      {
        "astId": 621,
        "contract": "contracts/community/CommunityAdminImplementation.sol:CommunityAdminImplementation",
        "label": "__gap",
        "offset": 0,
        "slot": "11",
        "type": "t_array(t_uint256)50_storage"
      },
      {
        "astId": 418,
        "contract": "contracts/community/CommunityAdminImplementation.sol:CommunityAdminImplementation",
        "label": "_owner",
        "offset": 0,
        "slot": "61",
        "type": "t_address"
      },
      {
        "astId": 531,
        "contract": "contracts/community/CommunityAdminImplementation.sol:CommunityAdminImplementation",
        "label": "__gap",
        "offset": 0,
        "slot": "62",
        "type": "t_array(t_uint256)49_storage"
      }
    ],
    "types": {
      "t_address": {
        "encoding": "inplace",
        "label": "address",
        "numberOfBytes": "20"
      },
      "t_array(t_bytes32)dyn_storage": {
        "base": "t_bytes32",
        "encoding": "dynamic_array",
        "label": "bytes32[]",
        "numberOfBytes": "32"
      },
      "t_array(t_uint256)49_storage": {
        "base": "t_uint256",
        "encoding": "inplace",
        "label": "uint256[49]",
        "numberOfBytes": "1568"
      },
      "t_array(t_uint256)50_storage": {
        "base": "t_uint256",
        "encoding": "inplace",
        "label": "uint256[50]",
        "numberOfBytes": "1600"
      },
      "t_bool": {
        "encoding": "inplace",
        "label": "bool",
        "numberOfBytes": "1"
      },
      "t_bytes32": {
        "encoding": "inplace",
        "label": "bytes32",
        "numberOfBytes": "32"
      },
      "t_contract(ICommunity)8810": {
        "encoding": "inplace",
        "label": "contract ICommunity",
        "numberOfBytes": "20"
      },
      "t_contract(IERC20)3112": {
        "encoding": "inplace",
        "label": "contract IERC20",
        "numberOfBytes": "20"
      },
      "t_contract(ITreasury)12533": {
        "encoding": "inplace",
        "label": "contract ITreasury",
        "numberOfBytes": "20"
      },
      "t_contract(ProxyAdmin)2145": {
        "encoding": "inplace",
        "label": "contract ProxyAdmin",
        "numberOfBytes": "20"
      },
      "t_enum(CommunityState)8819": {
        "encoding": "inplace",
        "label": "enum ICommunityAdmin.CommunityState",
        "numberOfBytes": "1"
      },
      "t_mapping(t_address,t_enum(CommunityState)8819)": {
        "encoding": "mapping",
        "key": "t_address",
        "label": "mapping(address => enum ICommunityAdmin.CommunityState)",
        "numberOfBytes": "32",
        "value": "t_enum(CommunityState)8819"
      },
      "t_mapping(t_bytes32,t_uint256)": {
        "encoding": "mapping",
        "key": "t_bytes32",
        "label": "mapping(bytes32 => uint256)",
        "numberOfBytes": "32",
        "value": "t_uint256"
      },
      "t_struct(AddressSet)4906_storage": {
        "encoding": "inplace",
        "label": "struct EnumerableSet.AddressSet",
        "members": [
          {
            "astId": 4905,
            "contract": "contracts/community/CommunityAdminImplementation.sol:CommunityAdminImplementation",
            "label": "_inner",
            "offset": 0,
            "slot": "0",
            "type": "t_struct(Set)4635_storage"
          }
        ],
        "numberOfBytes": "64"
      },
      "t_struct(Set)4635_storage": {
        "encoding": "inplace",
        "label": "struct EnumerableSet.Set",
        "members": [
          {
            "astId": 4630,
            "contract": "contracts/community/CommunityAdminImplementation.sol:CommunityAdminImplementation",
            "label": "_values",
            "offset": 0,
            "slot": "0",
            "type": "t_array(t_bytes32)dyn_storage"
          },
          {
            "astId": 4634,
            "contract": "contracts/community/CommunityAdminImplementation.sol:CommunityAdminImplementation",
            "label": "_indexes",
            "offset": 0,
            "slot": "1",
            "type": "t_mapping(t_bytes32,t_uint256)"
          }
        ],
        "numberOfBytes": "64"
      },
      "t_uint256": {
        "encoding": "inplace",
        "label": "uint256",
        "numberOfBytes": "32"
      }
    }
  }
}