{
  "address": "0xb21b0DA3B29eFC0cB5396e429d98Ce35bdd05669",
  "abi": [
    {
      "anonymous": false,
      "inputs": [
        {
          "indexed": true,
          "internalType": "address",
          "name": "manager",
          "type": "address"
        },
        {
          "indexed": true,
          "internalType": "address",
          "name": "beneficiary",
          "type": "address"
        }
      ],
      "name": "BeneficiaryAdded",
      "type": "event"
    },
    {
      "anonymous": false,
      "inputs": [
        {
          "indexed": true,
          "internalType": "address",
          "name": "beneficiary1",
          "type": "address"
        },
        {
          "indexed": true,
          "internalType": "address",
          "name": "beneficiary2",
          "type": "address"
        }
      ],
      "name": "BeneficiaryAddressChanged",
      "type": "event"
    },
    {
      "anonymous": false,
      "inputs": [
        {
          "indexed": true,
          "internalType": "address",
          "name": "beneficiary",
          "type": "address"
        },
        {
          "indexed": false,
          "internalType": "uint256",
          "name": "amount",
          "type": "uint256"
        }
      ],
      "name": "BeneficiaryClaim",
      "type": "event"
    },
    {
      "anonymous": false,
      "inputs": [
        {
          "indexed": true,
          "internalType": "address",
          "name": "manager",
          "type": "address"
        },
        {
          "indexed": true,
          "internalType": "address",
          "name": "beneficiary",
          "type": "address"
        }
      ],
      "name": "BeneficiaryCopied",
      "type": "event"
    },
    {
      "anonymous": false,
      "inputs": [
        {
          "indexed": true,
          "internalType": "address",
          "name": "beneficiary",
          "type": "address"
        }
      ],
      "name": "BeneficiaryJoined",
      "type": "event"
    },
    {
      "anonymous": false,
      "inputs": [
        {
          "indexed": true,
          "internalType": "address",
          "name": "manager",
          "type": "address"
        },
        {
          "indexed": true,
          "internalType": "address",
          "name": "beneficiary",
          "type": "address"
        }
      ],
      "name": "BeneficiaryLocked",
      "type": "event"
    },
    {
      "anonymous": false,
      "inputs": [
        {
          "indexed": false,
          "internalType": "uint256",
          "name": "oldOriginalClaimAmount",
          "type": "uint256"
        },
        {
          "indexed": false,
          "internalType": "uint256",
          "name": "oldMaxTotalClaim",
          "type": "uint256"
        },
        {
          "indexed": false,
          "internalType": "uint256",
          "name": "oldDecreaseStep",
          "type": "uint256"
        },
        {
          "indexed": false,
          "internalType": "uint256",
          "name": "oldBaseInterval",
          "type": "uint256"
        },
        {
          "indexed": false,
          "internalType": "uint256",
          "name": "oldIncrementInterval",
          "type": "uint256"
        },
        {
          "indexed": false,
          "internalType": "uint256",
          "name": "newOriginalClaimAmount",
          "type": "uint256"
        },
        {
          "indexed": false,
          "internalType": "uint256",
          "name": "newMaxTotalClaim",
          "type": "uint256"
        },
        {
          "indexed": false,
          "internalType": "uint256",
          "name": "newDecreaseStep",
          "type": "uint256"
        },
        {
          "indexed": false,
          "internalType": "uint256",
          "name": "newBaseInterval",
          "type": "uint256"
        },
        {
          "indexed": false,
          "internalType": "uint256",
          "name": "newIncrementInterval",
          "type": "uint256"
        }
      ],
      "name": "BeneficiaryParamsUpdated",
      "type": "event"
    },
    {
      "anonymous": false,
      "inputs": [
        {
          "indexed": true,
          "internalType": "address",
          "name": "manager",
          "type": "address"
        },
        {
          "indexed": true,
          "internalType": "address",
          "name": "beneficiary",
          "type": "address"
        }
      ],
      "name": "BeneficiaryRemoved",
      "type": "event"
    },
    {
      "anonymous": false,
      "inputs": [
        {
          "indexed": true,
          "internalType": "address",
          "name": "manager",
          "type": "address"
        },
        {
          "indexed": true,
          "internalType": "address",
          "name": "beneficiary",
          "type": "address"
        }
      ],
      "name": "BeneficiaryUnlocked",
      "type": "event"
    },
    {
      "anonymous": false,
      "inputs": [
        {
          "indexed": false,
          "internalType": "uint256",
          "name": "oldClaimAmount",
          "type": "uint256"
        },
        {
          "indexed": false,
          "internalType": "uint256",
          "name": "newClaimAmount",
          "type": "uint256"
        }
      ],
      "name": "ClaimAmountUpdated",
      "type": "event"
    },
    {
      "anonymous": false,
      "inputs": [
        {
          "indexed": true,
          "internalType": "address",
          "name": "oldCommunityAdmin",
          "type": "address"
        },
        {
          "indexed": true,
          "internalType": "address",
          "name": "newCommunityAdmin",
          "type": "address"
        }
      ],
      "name": "CommunityAdminUpdated",
      "type": "event"
    },
    {
      "anonymous": false,
      "inputs": [
        {
          "indexed": true,
          "internalType": "address",
          "name": "manager",
          "type": "address"
        }
      ],
      "name": "CommunityLocked",
      "type": "event"
    },
    {
      "anonymous": false,
      "inputs": [
        {
          "indexed": false,
          "internalType": "uint256",
          "name": "oldMinTranche",
          "type": "uint256"
        },
        {
          "indexed": false,
          "internalType": "uint256",
          "name": "oldMaxTranche",
          "type": "uint256"
        },
        {
          "indexed": false,
          "internalType": "uint256",
          "name": "newMinTranche",
          "type": "uint256"
        },
        {
          "indexed": false,
          "internalType": "uint256",
          "name": "newMaxTranche",
          "type": "uint256"
        }
      ],
      "name": "CommunityParamsUpdated",
      "type": "event"
    },
    {
      "anonymous": false,
      "inputs": [
        {
          "indexed": true,
          "internalType": "address",
          "name": "manager",
          "type": "address"
        }
      ],
      "name": "CommunityUnlocked",
      "type": "event"
    },
    {
      "anonymous": false,
      "inputs": [
        {
          "indexed": true,
          "internalType": "address",
          "name": "donor",
          "type": "address"
        },
        {
          "indexed": false,
          "internalType": "uint256",
          "name": "amount",
          "type": "uint256"
        }
      ],
      "name": "Donate",
      "type": "event"
    },
    {
      "anonymous": false,
      "inputs": [
        {
          "indexed": true,
          "internalType": "address",
          "name": "manager",
          "type": "address"
        }
      ],
      "name": "FundsRequested",
      "type": "event"
    },
    {
      "anonymous": false,
      "inputs": [
        {
          "indexed": true,
          "internalType": "address",
          "name": "manager",
          "type": "address"
        },
        {
          "indexed": true,
          "internalType": "address",
          "name": "account",
          "type": "address"
        }
      ],
      "name": "ManagerAdded",
      "type": "event"
    },
    {
      "anonymous": false,
      "inputs": [
        {
          "indexed": true,
          "internalType": "address",
          "name": "manager",
          "type": "address"
        },
        {
          "indexed": true,
          "internalType": "address",
          "name": "account",
          "type": "address"
        }
      ],
      "name": "ManagerRemoved",
      "type": "event"
    },
    {
      "anonymous": false,
      "inputs": [
        {
          "indexed": false,
          "internalType": "uint256",
          "name": "oldMaxBeneficiaries",
          "type": "uint256"
        },
        {
          "indexed": false,
          "internalType": "uint256",
          "name": "newMaxBeneficiaries",
          "type": "uint256"
        }
      ],
      "name": "MaxBeneficiariesUpdated",
      "type": "event"
    },
    {
      "anonymous": false,
      "inputs": [
        {
          "indexed": true,
          "internalType": "address",
          "name": "previousOwner",
          "type": "address"
        },
        {
          "indexed": true,
          "internalType": "address",
          "name": "newOwner",
          "type": "address"
        }
      ],
      "name": "OwnershipTransferred",
      "type": "event"
    },
    {
      "anonymous": false,
      "inputs": [
        {
          "indexed": true,
          "internalType": "address",
          "name": "oldPreviousCommunity",
          "type": "address"
        },
        {
          "indexed": true,
          "internalType": "address",
          "name": "newPreviousCommunity",
          "type": "address"
        }
      ],
      "name": "PreviousCommunityUpdated",
      "type": "event"
    },
    {
      "anonymous": false,
      "inputs": [
        {
          "indexed": true,
          "internalType": "bytes32",
          "name": "role",
          "type": "bytes32"
        },
        {
          "indexed": true,
          "internalType": "bytes32",
          "name": "previousAdminRole",
          "type": "bytes32"
        },
        {
          "indexed": true,
          "internalType": "bytes32",
          "name": "newAdminRole",
          "type": "bytes32"
        }
      ],
      "name": "RoleAdminChanged",
      "type": "event"
    },
    {
      "anonymous": false,
      "inputs": [
        {
          "indexed": true,
          "internalType": "bytes32",
          "name": "role",
          "type": "bytes32"
        },
        {
          "indexed": true,
          "internalType": "address",
          "name": "account",
          "type": "address"
        },
        {
          "indexed": true,
          "internalType": "address",
          "name": "sender",
          "type": "address"
        }
      ],
      "name": "RoleGranted",
      "type": "event"
    },
    {
      "anonymous": false,
      "inputs": [
        {
          "indexed": true,
          "internalType": "bytes32",
          "name": "role",
          "type": "bytes32"
        },
        {
          "indexed": true,
          "internalType": "address",
          "name": "account",
          "type": "address"
        },
        {
          "indexed": true,
          "internalType": "address",
          "name": "sender",
          "type": "address"
        }
      ],
      "name": "RoleRevoked",
      "type": "event"
    },
    {
      "anonymous": false,
      "inputs": [
        {
          "indexed": true,
          "internalType": "address",
          "name": "oldTokenAddress",
          "type": "address"
        },
        {
          "indexed": true,
          "internalType": "address",
          "name": "newTokenAddress",
          "type": "address"
        }
      ],
      "name": "TokenUpdated",
      "type": "event"
    },
    {
      "anonymous": false,
      "inputs": [
        {
          "indexed": true,
          "internalType": "address",
          "name": "token",
          "type": "address"
        },
        {
          "indexed": true,
          "internalType": "address",
          "name": "to",
          "type": "address"
        },
        {
          "indexed": false,
          "internalType": "uint256",
          "name": "amount",
          "type": "uint256"
        }
      ],
      "name": "TransferERC20",
      "type": "event"
    },
    {
      "inputs": [],
      "name": "DEFAULT_ADMIN_ROLE",
      "outputs": [
        {
          "internalType": "bytes32",
          "name": "",
          "type": "bytes32"
        }
      ],
      "stateMutability": "view",
      "type": "function"
    },
    {
      "inputs": [],
      "name": "_token",
      "outputs": [
        {
          "internalType": "contract IERC20Upgradeable",
          "name": "",
          "type": "address"
        }
      ],
      "stateMutability": "view",
      "type": "function"
    },
    {
      "inputs": [
        {
          "internalType": "address[]",
          "name": "_beneficiaryAddresses",
          "type": "address[]"
        }
      ],
      "name": "addBeneficiaries",
      "outputs": [],
      "stateMutability": "nonpayable",
      "type": "function"
    },
    {
      "inputs": [
        {
          "internalType": "address[]",
          "name": "_beneficiaryAddresses",
          "type": "address[]"
        },
        {
          "internalType": "uint256",
          "name": "_expirationTimestamp",
          "type": "uint256"
        },
        {
          "internalType": "bytes",
          "name": "_signature",
          "type": "bytes"
        }
      ],
      "name": "addBeneficiariesUsingSignature",
      "outputs": [],
      "stateMutability": "nonpayable",
      "type": "function"
    },
    {
      "inputs": [
        {
          "internalType": "address",
          "name": "_beneficiaryAddress",
          "type": "address"
        }
      ],
      "name": "addBeneficiary",
      "outputs": [],
      "stateMutability": "nonpayable",
      "type": "function"
    },
    {
      "inputs": [
        {
          "internalType": "contract ICommunity",
          "name": "_copy",
          "type": "address"
        }
      ],
      "name": "addCopy",
      "outputs": [],
      "stateMutability": "nonpayable",
      "type": "function"
    },
    {
      "inputs": [
        {
          "internalType": "address",
          "name": "_account",
          "type": "address"
        }
      ],
      "name": "addManager",
      "outputs": [],
      "stateMutability": "nonpayable",
      "type": "function"
    },
    {
      "inputs": [
        {
          "internalType": "uint256",
          "name": "_amount",
          "type": "uint256"
        }
      ],
      "name": "addTreasuryFunds",
      "outputs": [],
      "stateMutability": "nonpayable",
      "type": "function"
    },
    {
      "inputs": [],
      "name": "baseInterval",
      "outputs": [
        {
          "internalType": "uint256",
          "name": "",
          "type": "uint256"
        }
      ],
      "stateMutability": "view",
      "type": "function"
    },
    {
      "inputs": [
        {
          "internalType": "address",
          "name": "_beneficiaryAddress",
          "type": "address"
        }
      ],
      "name": "beneficiaries",
      "outputs": [
        {
          "internalType": "enum ICommunity.BeneficiaryState",
          "name": "state",
          "type": "uint8"
        },
        {
          "internalType": "uint256",
          "name": "claims",
          "type": "uint256"
        },
        {
          "internalType": "uint256",
          "name": "claimedAmount",
          "type": "uint256"
        },
        {
          "internalType": "uint256",
          "name": "lastClaim",
          "type": "uint256"
        }
      ],
      "stateMutability": "view",
      "type": "function"
    },
    {
      "inputs": [
        {
          "internalType": "address",
          "name": "_beneficiaryAddress",
          "type": "address"
        }
      ],
      "name": "beneficiaryClaimedAmounts",
      "outputs": [
        {
          "internalType": "uint256[]",
          "name": "claimedAmounts",
          "type": "uint256[]"
        }
      ],
      "stateMutability": "view",
      "type": "function"
    },
    {
      "inputs": [
        {
          "internalType": "address",
          "name": "_beneficiaryAddress",
          "type": "address"
        }
      ],
      "name": "beneficiaryJoinFromMigrated",
      "outputs": [],
      "stateMutability": "nonpayable",
      "type": "function"
    },
    {
      "inputs": [
        {
          "internalType": "uint256",
          "name": "index_",
          "type": "uint256"
        }
      ],
      "name": "beneficiaryListAt",
      "outputs": [
        {
          "internalType": "address",
          "name": "",
          "type": "address"
        }
      ],
      "stateMutability": "view",
      "type": "function"
    },
    {
      "inputs": [],
      "name": "beneficiaryListLength",
      "outputs": [
        {
          "internalType": "uint256",
          "name": "",
          "type": "uint256"
        }
      ],
      "stateMutability": "view",
      "type": "function"
    },
    {
      "inputs": [],
      "name": "cUSD",
      "outputs": [
        {
          "internalType": "contract IERC20Upgradeable",
          "name": "",
          "type": "address"
        }
      ],
      "stateMutability": "view",
      "type": "function"
    },
    {
      "inputs": [
        {
          "internalType": "address",
          "name": "_newBeneficiaryAddress",
          "type": "address"
        }
      ],
      "name": "changeBeneficiaryAddress",
      "outputs": [],
      "stateMutability": "nonpayable",
      "type": "function"
    },
    {
      "inputs": [
        {
          "internalType": "address",
          "name": "_oldBeneficiaryAddress",
          "type": "address"
        },
        {
          "internalType": "address",
          "name": "_newBeneficiaryAddress",
          "type": "address"
        }
      ],
      "name": "changeBeneficiaryAddressByManager",
      "outputs": [],
      "stateMutability": "nonpayable",
      "type": "function"
    },
    {
      "inputs": [],
      "name": "claim",
      "outputs": [],
      "stateMutability": "nonpayable",
      "type": "function"
    },
    {
      "inputs": [],
      "name": "claimAmount",
      "outputs": [
        {
          "internalType": "uint256",
          "name": "",
          "type": "uint256"
        }
      ],
      "stateMutability": "view",
      "type": "function"
    },
    {
      "inputs": [
        {
          "internalType": "address",
          "name": "_beneficiaryAddress",
          "type": "address"
        }
      ],
      "name": "claimCooldown",
      "outputs": [
        {
          "internalType": "uint256",
          "name": "",
          "type": "uint256"
        }
      ],
      "stateMutability": "view",
      "type": "function"
    },
    {
      "inputs": [],
      "name": "communityAdmin",
      "outputs": [
        {
          "internalType": "contract ICommunityAdmin",
          "name": "",
          "type": "address"
        }
      ],
      "stateMutability": "view",
      "type": "function"
    },
    {
      "inputs": [],
      "name": "copies",
      "outputs": [
        {
          "internalType": "address[]",
          "name": "",
          "type": "address[]"
        }
      ],
      "stateMutability": "view",
      "type": "function"
    },
    {
      "inputs": [
        {
          "internalType": "address[]",
          "name": "_beneficiaryAddresses",
          "type": "address[]"
        }
      ],
      "name": "copyBeneficiaries",
      "outputs": [],
      "stateMutability": "nonpayable",
      "type": "function"
    },
    {
      "inputs": [
        {
          "internalType": "contract ICommunity",
          "name": "_originalCommunity",
          "type": "address"
        }
      ],
      "name": "copyCommunityDetails",
      "outputs": [],
      "stateMutability": "nonpayable",
      "type": "function"
    },
    {
      "inputs": [],
      "name": "copyOf",
      "outputs": [
        {
          "internalType": "contract ICommunity",
          "name": "",
          "type": "address"
        }
      ],
      "stateMutability": "view",
      "type": "function"
    },
    {
      "inputs": [],
      "name": "decreaseStep",
      "outputs": [
        {
          "internalType": "uint256",
          "name": "",
          "type": "uint256"
        }
      ],
      "stateMutability": "view",
      "type": "function"
    },
    {
      "inputs": [
        {
          "internalType": "address",
          "name": "_sender",
          "type": "address"
        },
        {
          "internalType": "uint256",
          "name": "_amount",
          "type": "uint256"
        }
      ],
      "name": "donate",
      "outputs": [],
      "stateMutability": "nonpayable",
      "type": "function"
    },
    {
      "inputs": [],
      "name": "getInitialMaxClaim",
      "outputs": [
        {
          "internalType": "uint256",
          "name": "",
          "type": "uint256"
        }
      ],
      "stateMutability": "view",
      "type": "function"
    },
    {
      "inputs": [],
      "name": "getInitialMaxTotalClaim",
      "outputs": [
        {
          "internalType": "uint256",
          "name": "",
          "type": "uint256"
        }
      ],
      "stateMutability": "view",
      "type": "function"
    },
    {
      "inputs": [
        {
          "internalType": "bytes32",
          "name": "role",
          "type": "bytes32"
        }
      ],
      "name": "getRoleAdmin",
      "outputs": [
        {
          "internalType": "bytes32",
          "name": "",
          "type": "bytes32"
        }
      ],
      "stateMutability": "view",
      "type": "function"
    },
    {
      "inputs": [],
      "name": "getVersion",
      "outputs": [
        {
          "internalType": "uint256",
          "name": "",
          "type": "uint256"
        }
      ],
      "stateMutability": "pure",
      "type": "function"
    },
    {
      "inputs": [
        {
          "internalType": "bytes32",
          "name": "",
          "type": "bytes32"
        },
        {
          "internalType": "address",
          "name": "",
          "type": "address"
        }
      ],
      "name": "grantRole",
      "outputs": [],
      "stateMutability": "pure",
      "type": "function"
    },
    {
      "inputs": [
        {
          "internalType": "bytes32",
          "name": "role",
          "type": "bytes32"
        },
        {
          "internalType": "address",
          "name": "account",
          "type": "address"
        }
      ],
      "name": "hasRole",
      "outputs": [
        {
          "internalType": "bool",
          "name": "",
          "type": "bool"
        }
      ],
      "stateMutability": "view",
      "type": "function"
    },
    {
      "inputs": [],
      "name": "impactMarketAddress",
      "outputs": [
        {
          "internalType": "address",
          "name": "",
          "type": "address"
        }
      ],
      "stateMutability": "pure",
      "type": "function"
    },
    {
      "inputs": [],
      "name": "incrementInterval",
      "outputs": [
        {
          "internalType": "uint256",
          "name": "",
          "type": "uint256"
        }
      ],
      "stateMutability": "view",
      "type": "function"
    },
    {
      "inputs": [
        {
          "internalType": "address",
          "name": "_tokenAddress",
          "type": "address"
        },
        {
          "internalType": "address[]",
          "name": "_managers",
          "type": "address[]"
        },
        {
          "internalType": "uint256",
          "name": "_originalClaimAmount",
          "type": "uint256"
        },
        {
          "internalType": "uint256",
          "name": "_maxTotalClaim",
          "type": "uint256"
        },
        {
          "internalType": "uint256",
          "name": "_decreaseStep",
          "type": "uint256"
        },
        {
          "internalType": "uint256",
          "name": "_baseInterval",
          "type": "uint256"
        },
        {
          "internalType": "uint256",
          "name": "_incrementInterval",
          "type": "uint256"
        },
        {
          "internalType": "uint256",
          "name": "_minTranche",
          "type": "uint256"
        },
        {
          "internalType": "uint256",
          "name": "_maxTranche",
          "type": "uint256"
        },
        {
          "internalType": "uint256",
          "name": "_maxBeneficiaries",
          "type": "uint256"
        },
        {
          "internalType": "contract ICommunity",
          "name": "_previousCommunity",
          "type": "address"
        }
      ],
      "name": "initialize",
      "outputs": [],
      "stateMutability": "nonpayable",
      "type": "function"
    },
    {
      "inputs": [],
      "name": "isSelfFunding",
      "outputs": [
        {
          "internalType": "bool",
          "name": "",
          "type": "bool"
        }
      ],
      "stateMutability": "view",
      "type": "function"
    },
    {
      "inputs": [],
      "name": "lastFundRequest",
      "outputs": [
        {
          "internalType": "uint256",
          "name": "",
          "type": "uint256"
        }
      ],
      "stateMutability": "view",
      "type": "function"
    },
    {
      "inputs": [
        {
          "internalType": "address",
          "name": "_beneficiaryAddress",
          "type": "address"
        }
      ],
      "name": "lastInterval",
      "outputs": [
        {
          "internalType": "uint256",
          "name": "",
          "type": "uint256"
        }
      ],
      "stateMutability": "view",
      "type": "function"
    },
    {
      "inputs": [],
      "name": "lock",
      "outputs": [],
      "stateMutability": "nonpayable",
      "type": "function"
    },
    {
      "inputs": [
        {
          "internalType": "address[]",
          "name": "_beneficiaryAddresses",
          "type": "address[]"
        }
      ],
      "name": "lockBeneficiaries",
      "outputs": [],
      "stateMutability": "nonpayable",
      "type": "function"
    },
    {
      "inputs": [
        {
          "internalType": "address[]",
          "name": "_beneficiaryAddresses",
          "type": "address[]"
        },
        {
          "internalType": "uint256",
          "name": "_expirationTimestamp",
          "type": "uint256"
        },
        {
          "internalType": "bytes",
          "name": "_signature",
          "type": "bytes"
        }
      ],
      "name": "lockBeneficiariesUsingSignature",
      "outputs": [],
      "stateMutability": "nonpayable",
      "type": "function"
    },
    {
      "inputs": [
        {
          "internalType": "address",
          "name": "_beneficiaryAddress",
          "type": "address"
        }
      ],
      "name": "lockBeneficiary",
      "outputs": [],
      "stateMutability": "nonpayable",
      "type": "function"
    },
    {
      "inputs": [],
      "name": "locked",
      "outputs": [
        {
          "internalType": "bool",
          "name": "",
          "type": "bool"
        }
      ],
      "stateMutability": "view",
      "type": "function"
    },
    {
      "inputs": [],
      "name": "maxBeneficiaries",
      "outputs": [
        {
          "internalType": "uint256",
          "name": "",
          "type": "uint256"
        }
      ],
      "stateMutability": "view",
      "type": "function"
    },
    {
      "inputs": [],
      "name": "maxClaim",
      "outputs": [
        {
          "internalType": "uint256",
          "name": "",
          "type": "uint256"
        }
      ],
      "stateMutability": "view",
      "type": "function"
    },
    {
      "inputs": [],
      "name": "maxTotalClaim",
      "outputs": [
        {
          "internalType": "uint256",
          "name": "",
          "type": "uint256"
        }
      ],
      "stateMutability": "view",
      "type": "function"
    },
    {
      "inputs": [],
      "name": "maxTranche",
      "outputs": [
        {
          "internalType": "uint256",
          "name": "",
          "type": "uint256"
        }
      ],
      "stateMutability": "view",
      "type": "function"
    },
    {
      "inputs": [],
      "name": "minTranche",
      "outputs": [
        {
          "internalType": "uint256",
          "name": "",
          "type": "uint256"
        }
      ],
      "stateMutability": "view",
      "type": "function"
    },
    {
      "inputs": [],
      "name": "originalClaimAmount",
      "outputs": [
        {
          "internalType": "uint256",
          "name": "",
          "type": "uint256"
        }
      ],
      "stateMutability": "view",
      "type": "function"
    },
    {
      "inputs": [],
      "name": "owner",
      "outputs": [
        {
          "internalType": "address",
          "name": "",
          "type": "address"
        }
      ],
      "stateMutability": "view",
      "type": "function"
    },
    {
      "inputs": [],
      "name": "previousCommunity",
      "outputs": [
        {
          "internalType": "contract ICommunity",
          "name": "",
          "type": "address"
        }
      ],
      "stateMutability": "view",
      "type": "function"
    },
    {
      "inputs": [],
      "name": "privateFunds",
      "outputs": [
        {
          "internalType": "uint256",
          "name": "",
          "type": "uint256"
        }
      ],
      "stateMutability": "view",
      "type": "function"
    },
    {
      "inputs": [
        {
          "internalType": "address[]",
          "name": "_beneficiaryAddresses",
          "type": "address[]"
        }
      ],
      "name": "removeBeneficiaries",
      "outputs": [],
      "stateMutability": "nonpayable",
      "type": "function"
    },
    {
      "inputs": [
        {
          "internalType": "address[]",
          "name": "_beneficiaryAddresses",
          "type": "address[]"
        },
        {
          "internalType": "uint256",
          "name": "_expirationTimestamp",
          "type": "uint256"
        },
        {
          "internalType": "bytes",
          "name": "_signature",
          "type": "bytes"
        }
      ],
      "name": "removeBeneficiariesUsingSignature",
      "outputs": [],
      "stateMutability": "nonpayable",
      "type": "function"
    },
    {
      "inputs": [
        {
          "internalType": "address",
          "name": "_beneficiaryAddress",
          "type": "address"
        }
      ],
      "name": "removeBeneficiary",
      "outputs": [],
      "stateMutability": "nonpayable",
      "type": "function"
    },
    {
      "inputs": [
        {
          "internalType": "address",
          "name": "_account",
          "type": "address"
        }
      ],
      "name": "removeManager",
      "outputs": [],
      "stateMutability": "nonpayable",
      "type": "function"
    },
    {
      "inputs": [],
      "name": "renounceOwnership",
      "outputs": [],
      "stateMutability": "nonpayable",
      "type": "function"
    },
    {
      "inputs": [
        {
          "internalType": "bytes32",
          "name": "role",
          "type": "bytes32"
        },
        {
          "internalType": "address",
          "name": "account",
          "type": "address"
        }
      ],
      "name": "renounceRole",
      "outputs": [],
      "stateMutability": "nonpayable",
      "type": "function"
    },
    {
      "inputs": [],
      "name": "requestFunds",
      "outputs": [],
      "stateMutability": "nonpayable",
      "type": "function"
    },
    {
      "inputs": [
        {
          "internalType": "bytes32",
          "name": "",
          "type": "bytes32"
        },
        {
          "internalType": "address",
          "name": "",
          "type": "address"
        }
      ],
      "name": "revokeRole",
      "outputs": [],
      "stateMutability": "pure",
      "type": "function"
    },
    {
      "inputs": [
        {
          "internalType": "address",
          "name": "_beneficiaryAddress",
          "type": "address"
        },
        {
          "internalType": "enum ICommunity.BeneficiaryState",
          "name": "_state",
          "type": "uint8"
        }
      ],
      "name": "setBeneficiaryState",
      "outputs": [],
      "stateMutability": "nonpayable",
      "type": "function"
    },
    {
      "inputs": [
        {
          "internalType": "bytes4",
          "name": "interfaceId",
          "type": "bytes4"
        }
      ],
      "name": "supportsInterface",
      "outputs": [
        {
          "internalType": "bool",
          "name": "",
          "type": "bool"
        }
      ],
      "stateMutability": "view",
      "type": "function"
    },
    {
      "inputs": [],
      "name": "token",
      "outputs": [
        {
          "internalType": "contract IERC20Upgradeable",
          "name": "",
          "type": "address"
        }
      ],
      "stateMutability": "view",
      "type": "function"
    },
    {
      "inputs": [],
      "name": "tokenList",
      "outputs": [
        {
          "internalType": "address[]",
          "name": "",
          "type": "address[]"
        }
      ],
      "stateMutability": "view",
      "type": "function"
    },
    {
      "inputs": [
        {
          "internalType": "uint256",
          "name": "",
          "type": "uint256"
        }
      ],
      "name": "tokenUpdates",
      "outputs": [
        {
          "internalType": "address",
          "name": "tokenAddress",
          "type": "address"
        },
        {
          "internalType": "uint256",
          "name": "ratio",
          "type": "uint256"
        },
        {
          "internalType": "uint256",
          "name": "startBlock",
          "type": "uint256"
        }
      ],
      "stateMutability": "view",
      "type": "function"
    },
    {
      "inputs": [],
      "name": "tokenUpdatesLength",
      "outputs": [
        {
          "internalType": "uint256",
          "name": "",
          "type": "uint256"
        }
      ],
      "stateMutability": "view",
      "type": "function"
    },
    {
      "inputs": [
        {
          "internalType": "contract IERC20Upgradeable",
          "name": "_token",
          "type": "address"
        },
        {
          "internalType": "address",
          "name": "_to",
          "type": "address"
        },
        {
          "internalType": "uint256",
          "name": "_amount",
          "type": "uint256"
        }
      ],
      "name": "transfer",
      "outputs": [],
      "stateMutability": "nonpayable",
      "type": "function"
    },
    {
      "inputs": [
        {
          "internalType": "address",
          "name": "newOwner",
          "type": "address"
        }
      ],
      "name": "transferOwnership",
      "outputs": [],
      "stateMutability": "nonpayable",
      "type": "function"
    },
    {
      "inputs": [],
      "name": "treasuryFunds",
      "outputs": [
        {
          "internalType": "uint256",
          "name": "",
          "type": "uint256"
        }
      ],
      "stateMutability": "view",
      "type": "function"
    },
    {
      "inputs": [],
      "name": "unlock",
      "outputs": [],
      "stateMutability": "nonpayable",
      "type": "function"
    },
    {
      "inputs": [
        {
          "internalType": "address[]",
          "name": "_beneficiaryAddresses",
          "type": "address[]"
        }
      ],
      "name": "unlockBeneficiaries",
      "outputs": [],
      "stateMutability": "nonpayable",
      "type": "function"
    },
    {
      "inputs": [
        {
          "internalType": "address[]",
          "name": "_beneficiaryAddresses",
          "type": "address[]"
        },
        {
          "internalType": "uint256",
          "name": "_expirationTimestamp",
          "type": "uint256"
        },
        {
          "internalType": "bytes",
          "name": "_signature",
          "type": "bytes"
        }
      ],
      "name": "unlockBeneficiariesUsingSignature",
      "outputs": [],
      "stateMutability": "nonpayable",
      "type": "function"
    },
    {
      "inputs": [
        {
          "internalType": "address",
          "name": "_beneficiaryAddress",
          "type": "address"
        }
      ],
      "name": "unlockBeneficiary",
      "outputs": [],
      "stateMutability": "nonpayable",
      "type": "function"
    },
    {
      "inputs": [
        {
          "internalType": "uint256",
          "name": "_originalClaimAmount",
          "type": "uint256"
        },
        {
          "internalType": "uint256",
          "name": "_maxTotalClaim",
          "type": "uint256"
        },
        {
          "internalType": "uint256",
          "name": "_decreaseStep",
          "type": "uint256"
        },
        {
          "internalType": "uint256",
          "name": "_baseInterval",
          "type": "uint256"
        },
        {
          "internalType": "uint256",
          "name": "_incrementInterval",
          "type": "uint256"
        }
      ],
      "name": "updateBeneficiaryParams",
      "outputs": [],
      "stateMutability": "nonpayable",
      "type": "function"
    },
    {
      "inputs": [
        {
          "internalType": "contract ICommunityAdmin",
          "name": "_newCommunityAdmin",
          "type": "address"
        }
      ],
      "name": "updateCommunityAdmin",
      "outputs": [],
      "stateMutability": "nonpayable",
      "type": "function"
    },
    {
      "inputs": [
        {
          "internalType": "uint256",
          "name": "_minTranche",
          "type": "uint256"
        },
        {
          "internalType": "uint256",
          "name": "_maxTranche",
          "type": "uint256"
        }
      ],
      "name": "updateCommunityParams",
      "outputs": [],
      "stateMutability": "nonpayable",
      "type": "function"
    },
    {
      "inputs": [
        {
          "internalType": "uint256",
          "name": "_newMaxBeneficiaries",
          "type": "uint256"
        }
      ],
      "name": "updateMaxBeneficiaries",
      "outputs": [],
      "stateMutability": "nonpayable",
      "type": "function"
    },
    {
      "inputs": [
        {
          "internalType": "contract ICommunity",
          "name": "_newPreviousCommunity",
          "type": "address"
        }
      ],
      "name": "updatePreviousCommunity",
      "outputs": [],
      "stateMutability": "nonpayable",
      "type": "function"
    },
    {
      "inputs": [
        {
          "internalType": "contract IERC20Upgradeable",
          "name": "_newToken",
          "type": "address"
        },
        {
          "internalType": "address[]",
          "name": "_exchangePath",
          "type": "address[]"
        },
        {
          "internalType": "uint256",
          "name": "_originalClaimAmount",
          "type": "uint256"
        },
        {
          "internalType": "uint256",
          "name": "_maxTotalClaim",
          "type": "uint256"
        },
        {
          "internalType": "uint256",
          "name": "_decreaseStep",
          "type": "uint256"
        },
        {
          "internalType": "uint256",
          "name": "_baseInterval",
          "type": "uint256"
        },
        {
          "internalType": "uint256",
          "name": "_incrementInterval",
          "type": "uint256"
        }
      ],
      "name": "updateToken",
      "outputs": [],
      "stateMutability": "nonpayable",
      "type": "function"
    },
    {
      "inputs": [],
      "name": "validBeneficiaryCount",
      "outputs": [
        {
          "internalType": "uint256",
          "name": "",
          "type": "uint256"
        }
      ],
      "stateMutability": "view",
      "type": "function"
    }
  ],
  "transactionHash": "0x3a421064f8eaa93d8574ab05b5567b3cda90e34ea8a8bc646943f28abeeed8a5",
  "args": [],
  "numDeployments": 6,
  "solcInputHash": "97b94cf3a3290cd67b53d36394d9f1bb",
  "bytecode": "0x608060405234801561001057600080fd5b506165fb80620000216000396000f3fe608060405234801561001057600080fd5b506004361061048b5760003560e01c80638da5cb5b11610262578063c51fab3c11610151578063e25c25f3116100ce578063f2fde38b11610092578063f2fde38b146109ac578063f36e2609146109bf578063f83d08ba146109c7578063f92b6c01146109cf578063fb7b0a0c146109d8578063fc0c546a1461055557600080fd5b8063e25c25f314610957578063e69d849d1461096a578063eb0376b11461097d578063ecd0c0c314610985578063eeda3c4c1461099957600080fd5b8063d33d4ec611610115578063d33d4ec614610915578063d4938db314610928578063d547741f14610930578063d6dbd97214610943578063dd4414bb1461094d57600080fd5b8063c51fab3c146108c5578063c76a890c146108cf578063cf309012146108e2578063d04c41b6146108ef578063d10f51071461090257600080fd5b8063a57e08ca116101df578063b809ee82116101a3578063b809ee8214610871578063bbd17ead14610884578063beabacc814610898578063c041fdc5146108ab578063c0e27b6b146108b257600080fd5b8063a57e08ca14610828578063a69df4b51461083b578063a8f3e06314610843578063ac18de4314610856578063b026ba571461086957600080fd5b80639e2c58ca116102265780639e2c58ca146107e5578063a0f93a17146107fa578063a217fddf14610804578063a38540ee1461080c578063a3c6e4111461081557600080fd5b80638da5cb5b1461079157806391d14854146107a257806394e13748146107b55780639c01a401146107c85780639cecf572146107d257600080fd5b80633a578a0c1161037e578063597be18b116102fb578063785393db116102bf578063785393db1461074e57806378ba280f146106b55780637e2959dc14610761578063830953ab1461077457806389554f171461077e57600080fd5b8063597be18b146106f65780635c7054c0146106ff5780635fac917a146107125780636b31f2ad14610726578063715018a61461074657600080fd5b8063572b9e7b11610342578063572b9e7b146106a257806357c36327146106b5578063590411da146106bd5780635926651d146106d057806359633a1c146106e357600080fd5b80633a578a0c14610631578063431a801a146106455780634e71d92d1461064f57806351d84c9e1461065757806354c5689e1461066a57600080fd5b8063248a9ca31161040c578063300c12fe116103d0578063300c12fe146105db578063305ff654146105e557806336568abe146105f85780633783946a1461060b57806337e556dd1461061e57600080fd5b8063248a9ca3146105755780632b271117146105985780632d06177a146105a25780632f2ff15d146105b55780632fd79103146105c857600080fd5b80630e5b7c53116104535780630e5b7c531461051357806312d0e65a1461051c57806315f7c7201461052f5780631912cdb4146105425780631fccf6721461055557600080fd5b8063015677391461049057806301ffc9a7146104bc57806309c338c3146104df5780630b4e7817146104f75780630d8e6e2c1461050c575b600080fd5b6104a361049e366004615b19565b6109e1565b6040516104b394939291906161b5565b60405180910390f35b6104cf6104ca366004615f11565b610a2c565b60405190151581526020016104b3565b6104e96101065481565b6040519081526020016104b3565b61050a610505366004615b89565b610a63565b005b60046104e9565b6104e960fd5481565b61050a61052a366004615b19565b610df5565b61050a61053d366004615b19565b610e5b565b61050a61055036600461607a565b610e95565b61055d610fad565b6040516001600160a01b0390911681526020016104b3565b6104e9610583366004615ed5565b60009081526065602052604090206001015490565b6104e96101055481565b61050a6105b0366004615b19565b61105e565b61050a6105c3366004615eed565b611105565b61050a6105d636600461609b565b611173565b61010554156104cf565b61050a6105f3366004615ed5565b611387565b61050a610606366004615eed565b6114c1565b61050a610619366004615f79565b61153b565b61050a61062c366004615d99565b611d85565b6101075461055d906001600160a01b031681565b6104e96101005481565b61050a611d9f565b61050a610665366004615b51565b61211a565b61067d610678366004615ed5565b612158565b604080516001600160a01b0390941684526020840192909252908201526060016104b3565b61050a6106b0366004615c3c565b612196565b6104e9612270565b61050a6106cb366004615cca565b612291565b61050a6106de366004615b19565b612321565b61050a6106f1366004615b19565b6123e7565b6104e960fe5481565b61050a61070d366004615cca565b612424565b6101085461055d906001600160a01b031681565b610739610734366004615b19565b612524565b6040516104b3919061617d565b61050a612689565b61055d61075c366004615ed5565b6126bf565b61050a61076f366004615b19565b6126cd565b6104e96101115481565b61050a61078c366004615cca565b612755565b6097546001600160a01b031661055d565b6104cf6107b0366004615eed565b6127b5565b61050a6107c3366004615d99565b6127e0565b6104e96101015481565b6104e96107e0366004615b19565b612817565b6107ed612849565b6040516104b39190616130565b6104e961010d5481565b6104e9600081565b6104e960ff5481565b61050a610823366004615d99565b6128cd565b61050a610836366004615b19565b612904565b61050a612aaa565b6104e9610851366004615b19565b612b7f565b61050a610864366004615b19565b612bdc565b61050a612dea565b61050a61087f366004615ed5565b612e49565b6101125461055d906001600160a01b031681565b61050a6108a6366004615f39565b612e8e565b600061055d565b61050a6108c0366004615b19565b612f74565b6104e96101035481565b61050a6108dd366004615cca565b612fd4565b60fb546104cf9060ff1681565b61050a6108fd366004615cca565b613011565b61050a610910366004615b19565b613071565b61050a610923366004615b19565b6130d1565b60ff546104e9565b61050a61093e366004615eed565b61315e565b6104e96101025481565b6104e96101045481565b61050a610965366004615d99565b6131cc565b61050a610978366004615c69565b613236565b6104e96132dc565b61010c5461055d906001600160a01b031681565b61050a6109a7366004615b19565b6132e9565b61050a6109ba366004615b19565b6136b3565b6107ed61374b565b61050a613758565b61010e546104e9565b6104e960fc5481565b6001600160a01b0381166000908152610109602052604081208054600182015483928392839260ff90911690610a178343613830565b83600301549450945094509450509193509193565b60006001600160e01b03198216637965db0b60e01b1480610a5d57506301ffc9a760e01b6001600160e01b03198316145b92915050565b600054610100900460ff16610a7e5760005460ff1615610a82565b303b155b610aea5760405162461bcd60e51b815260206004820152602e60248201527f496e697469616c697a61626c653a20636f6e747261637420697320616c72656160448201526d191e481a5b9a5d1a585b1a5e995960921b60648201526084015b60405180910390fd5b600054610100900460ff16158015610b0c576000805461ffff19166101011790555b858711610b945760405162461bcd60e51b815260206004820152604a60248201527f436f6d6d756e6974793a3a696e697469616c697a653a2062617365496e74657260448201527f76616c206d7573742062652067726561746572207468616e20696e6372656d656064820152691b9d125b9d195c9d985b60b21b608482015260a401610ae1565b89891015610bfe5760405162461bcd60e51b815260206004820152603160248201527f436f6d6d756e6974793a3a696e697469616c697a653a206f726967696e616c436044820152706c61696d416d6f756e7420746f2062696760781b6064820152608401610ae1565b83851115610c845760405162461bcd60e51b815260206004820152604760248201527f436f6d6d756e6974793a3a696e697469616c697a653a206d696e5472616e636860448201527f652073686f756c64206e6f742062652067726561746572207468616e206d61786064820152665472616e63686560c81b608482015260a401610ae1565b61010880546001600160a01b03191633179055610c9f613950565b610ca761398f565b610caf6139c6565b61010c80546001600160a01b03808f166001600160a01b03199283161790925560fc8c90556101118c905560fd89905560fe88905560ff8b905561010487905561010586905561010780549285169290911691909117905561010388905561010d83905560fb805460ff19169055610d26336136b3565b610d3e6000805160206165a6833981519152806139f5565b610d566000805160206165a683398151915233613a40565b604051339081907f05a4006f300442cf8b7fdb885f5ee958812020bffb5c5a8e655fde64e5f987ed90600090a38a516000905b80821015610dd357610dc18d8381518110610db457634e487b7160e01b600052603260045260246000fd5b6020026020010151613a4a565b81610dcb8161653c565b925050610d89565b50508015610de7576000805461ff00191690555b505050505050505050505050565b6001600160a01b0381166000908152610109602052604081205460ff166005811115610e3157634e487b7160e01b600052602160045260246000fd5b14610e4e5760405162461bcd60e51b8152600401610ae190616366565b610e583382613ab7565b50565b6097546001600160a01b03163314610e855760405162461bcd60e51b8152600401610ae19061627f565b610e9161011382613e0e565b5050565b6097546001600160a01b03163314610ebf5760405162461bcd60e51b8152600401610ae19061627f565b80821115610f505760405162461bcd60e51b815260206004820152605260248201527f436f6d6d756e6974793a3a757064617465436f6d6d756e697479506172616d7360448201527f3a206d696e5472616e6368652073686f756c64206e6f742062652067726561746064820152716572207468616e206d61785472616e63686560701b608482015260a401610ae1565b61010454610105546040805192835260208301919091528101839052606081018290527fcd922a6f0ad842d84e08eb5df24c029b63c60167fb37cff24adf95c4832e32589060800160405180910390a16101049190915561010555565b61010c546000906001600160a01b031661104d5761010860009054906101000a90046001600160a01b03166001600160a01b0316631fccf6726040518163ffffffff1660e01b815260040160206040518083038186803b15801561101057600080fd5b505afa158015611024573d6000803e3d6000fd5b505050506040513d601f19601f820116820180604052508101906110489190615b35565b905090565b5061010c546001600160a01b031690565b61010854604051636b0de23f60e01b81523060048201523360248201526001600160a01b0390911690636b0de23f9060440160206040518083038186803b1580156110a857600080fd5b505afa1580156110bc573d6000803e3d6000fd5b505050506040513d601f19601f820116820180604052508101906110e09190615eb5565b6110fc5760405162461bcd60e51b8152600401610ae19061623c565b610e5881613a4a565b60405162461bcd60e51b815260206004820152603a60248201527f436f6d6d756e6974793a3a6772616e74526f6c653a20596f7520617265206e6f60448201527f7420616c6c6f7720746f207573652074686973206d6574686f640000000000006064820152608401610ae1565b6097546001600160a01b0316331461119d5760405162461bcd60e51b8152600401610ae19061627f565b8082116112385760405162461bcd60e51b815260206004820152605760248201527f436f6d6d756e6974793a3a75706461746542656e65666963696172795061726160448201527f6d733a2062617365496e74657276616c206d757374206265206772656174657260648201527f207468616e20696e6372656d656e74496e74657276616c000000000000000000608482015260a401610ae1565b826101005461124791906164c3565b611251908661648b565b8410156112c65760405162461bcd60e51b815260206004820152603f60248201527f436f6d6d756e6974793a3a75706461746542656e65666963696172795061726160448201527f6d733a206f726967696e616c436c61696d416d6f756e7420746f6f20626967006064820152608401610ae1565b60fc5460ff546101035460fd5460fe54604080519586526020860194909452848401929092526060840152608083015260a0820187905260c0820186905260e0820185905261010082018490526101208201839052517fa19f450cd68c70f728b0c4b75befd202ea5ebb1ae78b6aca47365934b5008750918190036101400190a160fc8590556101005461135b9084906164c3565b61136590856164e2565b60ff5561010383905560fd82905560fe819055611380613e23565b5050505050565b6097546001600160a01b031633148061141d575061010854604051636b0de23f60e01b81523060048201523360248201526001600160a01b0390911690636b0de23f9060440160206040518083038186803b1580156113e557600080fd5b505afa1580156113f9573d6000803e3d6000fd5b505050506040513d601f19601f8201168201806040525081019061141d9190615eb5565b61147e5760405162461bcd60e51b815260206004820152602c60248201527f436f6d6d756e6974793a204e4f545f4f574e45525f4f525f414d42415353414460448201526b4f525f4f525f454e5449545960a01b6064820152608401610ae1565b61010d5460408051918252602082018390527f6672b7064fe522fa09a8078f6d967272e0a379beb2270817417c9f023251b657910160405180910390a161010d55565b6001600160a01b03811633146115315760405162461bcd60e51b815260206004820152602f60248201527f416363657373436f6e74726f6c3a2063616e206f6e6c792072656e6f756e636560448201526e103937b632b9903337b91039b2b63360891b6064820152608401610ae1565b610e91828261408a565b6097546001600160a01b031633146115655760405162461bcd60e51b8152600401610ae19061627f565b61010854604080516361d027b360e01b815290516000926001600160a01b0316916361d027b3916004808301926020929190829003018186803b1580156115ab57600080fd5b505afa1580156115bf573d6000803e3d6000fd5b505050506040513d601f19601f820116820180604052508101906115e39190615b35565b61010e54909150600a116116535760405162461bcd60e51b815260206004820152603160248201527f436f6d6d756e6974793a3a757064617465546f6b656e3a20546f6b656e206c696044820152707374206c656e67746820746f6f2062696760781b6064820152608401610ae1565b61165b610fad565b6001600160a01b0316896001600160a01b031614156116f45760405162461bcd60e51b815260206004820152604960248201527f436f6d6d756e6974793a3a757064617465546f6b656e3a204e657720746f6b6560448201527f6e2063616e6e6f74206265207468652073616d6520617320746865206375727260648201526832b73a103a37b5b2b760b91b608482015260a401610ae1565b61010860009054906101000a90046001600160a01b03166001600160a01b0316631fccf6726040518163ffffffff1660e01b815260040160206040518083038186803b15801561174357600080fd5b505afa158015611757573d6000803e3d6000fd5b505050506040513d601f19601f8201168201806040525081019061177b9190615b35565b6001600160a01b0316896001600160a01b0316148061180e57506040516319f3736160e01b81526001600160a01b038a811660048301528216906319f373619060240160206040518083038186803b1580156117d657600080fd5b505afa1580156117ea573d6000803e3d6000fd5b505050506040513d601f19601f8201168201806040525081019061180e9190615eb5565b6118685760405162461bcd60e51b815260206004820152602560248201527f436f6d6d756e6974793a3a757064617465546f6b656e3a20496e76616c6964206044820152643a37b5b2b760d91b6064820152608401610ae1565b6001871180156118c5575061187b610fad565b6001600160a01b0316888860008181106118a557634e487b7160e01b600052603260045260246000fd5b90506020020160208101906118ba9190615b19565b6001600160a01b0316145b801561192057506001600160a01b03891688886118e36001826164e2565b81811061190057634e487b7160e01b600052603260045260246000fd5b90506020020160208101906119159190615b19565b6001600160a01b0316145b6119815760405162461bcd60e51b815260206004820152602c60248201527f436f6d6d756e6974793a3a757064617465546f6b656e3a20696e76616c69642060448201526b0caf0c6d0c2dccecaa0c2e8d60a31b6064820152608401610ae1565b61010e54611a1b5761010e604051806060016040528061199f610fad565b6001600160a01b039081168252670de0b6b3a76400006020808401919091526000604093840181905285546001808201885596825290829020855160039092020180546001600160a01b03191691909316178255830151938101939093550151600290910155611a19611a10610fad565b61010f90613e0e565b505b6000611a25612270565b611a3787670de0b6b3a76400006164c3565b611a4191906164a3565b604080516060810182526001600160a01b038d81168252602082018481524393830193845261010e805460018101825560009190915292517f44731785622d53a842eeb261a70df6f2b61b9624656157b6168597f0656f4805600390940293840180546001600160a01b0319169190931617909155517f44731785622d53a842eeb261a70df6f2b61b9624656157b6168597f0656f480682015590517f44731785622d53a842eeb261a70df6f2b61b9624656157b6168597f0656f4807909101559050611b1061010f8b613e0e565b506000611b1b610fad565b6040516370a0823160e01b81523060048201526001600160a01b0391909116906370a082319060240160206040518083038186803b158015611b5c57600080fd5b505afa158015611b70573d6000803e3d6000fd5b505050506040513d601f19601f82011682018060405250810190611b949190616062565b90508015611d14576000836001600160a01b031663735de9f76040518163ffffffff1660e01b815260040160206040518083038186803b158015611bd757600080fd5b505afa158015611beb573d6000803e3d6000fd5b505050506040513d601f19601f82011682018060405250810190611c0f9190615b35565b9050611c19610fad565b60405163095ea7b360e01b81526001600160a01b03838116600483015260248201859052919091169063095ea7b390604401602060405180830381600087803b158015611c6557600080fd5b505af1158015611c79573d6000803e3d6000fd5b505050506040513d601f19601f82011682018060405250810190611c9d9190615eb5565b506001600160a01b038116635c11d7958360008e8e30611cbf42610e1061648b565b6040518763ffffffff1660e01b8152600401611ce0969594939291906163c3565b600060405180830381600087803b158015611cfa57600080fd5b505af1158015611d0e573d6000803e3d6000fd5b50505050505b61010c546040516001600160a01b03808e169216907f0b1186973f810894b87ab0bfbee422fddcaad21b46dc705a561451bbb6bac11790600090a361010c80546001600160a01b0319166001600160a01b038d16179055611d788888888888611173565b5050505050505050505050565b611d908383836140f1565b611d9984614327565b50505050565b60fb5460ff1615611dc25760405162461bcd60e51b8152600401610ae190616211565b6001336000908152610109602052604090205460ff166005811115611df757634e487b7160e01b600052602160045260246000fd5b14611e445760405162461bcd60e51b815260206004820181905260248201527f436f6d6d756e6974793a204e4f545f56414c49445f42454e45464943494152596044820152606401610ae1565b600260c9541415611e675760405162461bcd60e51b8152600401610ae19061632f565b600260c955611e74614377565b3360009081526101096020526040812090611e8f8243613830565b905043611e9b33612817565b1115611ee95760405162461bcd60e51b815260206004820152601960248201527f436f6d6d756e6974793a3a636c61696d3a204e4f545f594554000000000000006044820152606401610ae1565b60ff548110611f4f5760405162461bcd60e51b815260206004820152602c60248201527f436f6d6d756e6974793a3a636c61696d3a20416c726561647920636c61696d6560448201526b642065766572797468696e6760a01b6064820152608401610ae1565b6000806101115411611f635760fc54611f68565b610111545b905060008260ff54611f7a91906164e2565b821115611f94578260ff54611f8f91906164e2565b611f96565b815b61010e549091506001108015611fe3575061010e600181548110611fca57634e487b7160e01b600052603260045260246000fd5b9060005260206000209060030201600201548460030154105b1561204157836002015484600401600061010e60008154811061201657634e487b7160e01b600052603260045260246000fd5b600091825260208083206003909202909101546001600160a01b031683528201929092526040019020555b61204b818461648b565b60028501556001840180549060006120628361653c565b909155505043600385015561010e54600110156120bd5780846004016000612088610fad565b6001600160a01b03166001600160a01b0316815260200190815260200160002060008282546120b7919061648b565b90915550505b6120da33826120ca610fad565b6001600160a01b03169190614443565b60405181815233907fd54e03b214b3e8c17e98044f98554b6f1b18dd2a3163a2619afea7e9b2a6eb979060200160405180910390a25050600160c9555050565b6121326000805160206165a6833981519152336127b5565b61214e5760405162461bcd60e51b8152600401610ae1906162b4565b610e918282613ab7565b61010e818154811061216957600080fd5b60009182526020909120600390910201805460018201546002909201546001600160a01b03909116925083565b60fb5460ff16156121b95760405162461bcd60e51b8152600401610ae190616211565b6121c5610113336144a6565b61221b5760405162461bcd60e51b815260206004820152602160248201527f436f6d6d756e6974793a20496e76616c696420636f6d6d756e69747920636f706044820152607960f81b6064820152608401610ae1565b600260c954141561223e5760405162461bcd60e51b8152600401610ae19061632f565b600260c9556001600160a01b03821660009081526101096020526040902061226681836144c8565b5050600160c95550565b6000610103546101005461228491906164c3565b60ff54611048919061648b565b60fb5460ff16156122b45760405162461bcd60e51b8152600401610ae190616211565b6122cc6000805160206165a6833981519152336127b5565b6122e85760405162461bcd60e51b8152600401610ae1906162b4565b600260c954141561230b5760405162461bcd60e51b8152600401610ae19061632f565b600260c95561231981614744565b50600160c955565b60fb5460ff16156123445760405162461bcd60e51b8152600401610ae190616211565b61235c6000805160206165a6833981519152336127b5565b6123785760405162461bcd60e51b8152600401610ae1906162b4565b600260c954141561239b5760405162461bcd60e51b8152600401610ae19061632f565b600260c9556123a9816147fb565b6040516001600160a01b0382169033907fbb39c36a7502b7256e1a687254146a9a2ea7b146c77cb9e40eb0e2b8793781e190600090a350600160c955565b6123ff6000805160206165a6833981519152336127b5565b61241b5760405162461bcd60e51b8152600401610ae1906162b4565b610e58816149a0565b60fb5460ff16156124475760405162461bcd60e51b8152600401610ae190616211565b61245f6000805160206165a6833981519152336127b5565b61247b5760405162461bcd60e51b8152600401610ae1906162b4565b600260c954141561249e5760405162461bcd60e51b8152600401610ae19061632f565b600260c955610112546001600160a01b031661251b5760405162461bcd60e51b815260206004820152603660248201527f436f6d6d756e6974793a3a636f707942656e656669636961726965733a20496e60448201527576616c696420706172656e7420636f6d6d756e69747960501b6064820152608401610ae1565b61231981614a58565b6001600160a01b03811660009081526101096020526040812060609161254b61010f614aa8565b67ffffffffffffffff81111561257157634e487b7160e01b600052604160045260246000fd5b60405190808252806020026020018201604052801561259a578160200160208202803683370190505b50905060006125aa61010f614aa8565b905060005b81811015612627576004840160006125c961010f84614ab2565b6001600160a01b03166001600160a01b031681526020019081526020016000205483828151811061260a57634e487b7160e01b600052603260045260246000fd5b60209081029190910101528061261f8161653c565b9150506125af565b50815161268157604080516001808252818301909252906020808301908036833701905050915082600201548260008151811061267457634e487b7160e01b600052603260045260246000fd5b6020026020010181815250505b509392505050565b6097546001600160a01b031633146126b35760405162461bcd60e51b8152600401610ae19061627f565b6126bd6000614abe565b565b6000610a5d61010a83614ab2565b6097546001600160a01b031633146126f75760405162461bcd60e51b8152600401610ae19061627f565b610107546040516001600160a01b038084169216907f0d6a84e94da4b619dd0d993b5689ec82db4b1095da99ee0f3e7bb046c647e6ad90600090a361010780546001600160a01b0319166001600160a01b0392909216919091179055565b60fb5460ff16156127785760405162461bcd60e51b8152600401610ae190616211565b6127906000805160206165a6833981519152336127b5565b6127ac5760405162461bcd60e51b8152600401610ae1906162b4565b610e5881614b10565b60009182526065602090815260408084206001600160a01b0393909316845291905290205460ff1690565b60fb5460ff16156128035760405162461bcd60e51b8152600401610ae190616211565b61280e8383836140f1565b611d9984614b60565b600061282282612b7f565b6001600160a01b03831660009081526101096020526040902060030154610a5d919061648b565b606061285661010f614aa8565b6128c25760408051600180825281830190925260009160208083019080368337019050509050612884610fad565b816000815181106128a557634e487b7160e01b600052603260045260246000fd5b6001600160a01b0390921660209283029190910190910152919050565b61104861010f614bb0565b60fb5460ff16156128f05760405162461bcd60e51b8152600401610ae190616211565b6128fb8383836140f1565b611d9984614b10565b6001600160a01b03811660009081526101096020526040812090815460ff16600581111561294257634e487b7160e01b600052602160045260246000fd5b146129b55760405162461bcd60e51b815260206004820152603a60248201527f436f6d6d756e6974793a3a62656e65666963696172794a6f696e46726f6d4d6960448201527f6772617465643a2042656e6566696369617279206578697374730000000000006064820152608401610ae1565b61010754604051630156773960e01b81526001600160a01b038481166004830152600092839283928392169063015677399060240160806040518083038186803b158015612a0257600080fd5b505afa158015612a16573d6000803e3d6000fd5b505050506040513d601f19601f82011682018060405250810190612a3a9190616024565b9350935093509350612a4c85856144c8565b600185018390556003850181905560028501829055612a6d61010a87613e0e565b506040516001600160a01b038716907f505fe088fef0d1fb451ccfed842b55a86af1ee6208502f4bc3327dcb9032082990600090a2505050505050565b61010854604051636b0de23f60e01b81523060048201523360248201526001600160a01b0390911690636b0de23f9060440160206040518083038186803b158015612af457600080fd5b505afa158015612b08573d6000803e3d6000fd5b505050506040513d601f19601f82011682018060405250810190612b2c9190615eb5565b612b485760405162461bcd60e51b8152600401610ae19061623c565b60fb805460ff1916905560405133907f4e50048c25972c85ad169c2302967f1e633e8dc6108d6aca51a90d2a59d4934d90600090a2565b6001600160a01b0381166000908152610109602052604081206001810154612baa5750600092915050565b60fe5460018260010154612bbe91906164e2565b612bc891906164c3565b60fd54612bd5919061648b565b9392505050565b61010854604051636b0de23f60e01b81523060048201523360248201526001600160a01b0390911690636b0de23f9060440160206040518083038186803b158015612c2657600080fd5b505afa158015612c3a573d6000803e3d6000fd5b505050506040513d601f19601f82011682018060405250810190612c5e9190615eb5565b612c7a5760405162461bcd60e51b8152600401610ae19061623c565b612c926000805160206165a6833981519152826127b5565b612d06576040805162461bcd60e51b81526020600482015260248101919091527f436f6d6d756e6974793a3a72656d6f76654d616e616765723a2054686973206160448201527f63636f756e7420646f65736e27742068617665206d616e6167657220726f6c656064820152608401610ae1565b610108546001600160a01b0382811691161415612d995760405162461bcd60e51b8152602060048201526044602482018190527f436f6d6d756e6974793a3a72656d6f76654d616e616765723a20596f75206172908201527f65206e6f7420616c6c6f7720746f2072656d6f766520636f6d6d756e697479416064820152633236b4b760e11b608482015260a401610ae1565b612db16000805160206165a68339815191528261408a565b6040516001600160a01b0382169033907f3e902a6ee93dd5b2d48bd1009c7701a481be512b1ef73dbed2f95ea44c59ea8890600090a350565b60fb5460ff1615612e0d5760405162461bcd60e51b8152600401610ae190616211565b612e256000805160206165a6833981519152336127b5565b612e415760405162461bcd60e51b8152600401610ae1906162b4565b6126bd614377565b6097546001600160a01b03163314612e735760405162461bcd60e51b8152600401610ae19061627f565b806101016000828254612e86919061648b565b909155505050565b6097546001600160a01b03163314612eb85760405162461bcd60e51b8152600401610ae19061627f565b600260c9541415612edb5760405162461bcd60e51b8152600401610ae19061632f565b600260c955612ef46001600160a01b0384168383614443565b612efc610fad565b6001600160a01b0316836001600160a01b03161415612f1d57612f1d613e23565b816001600160a01b0316836001600160a01b03167f9b035625e569d1d2bf54830a290aefba7ab11610ba8490871dc62b86b63a895683604051612f6291815260200190565b60405180910390a35050600160c95550565b60fb5460ff1615612f975760405162461bcd60e51b8152600401610ae190616211565b612faf6000805160206165a6833981519152336127b5565b612fcb5760405162461bcd60e51b8152600401610ae1906162b4565b610e5881614bbd565b612fec6000805160206165a6833981519152336127b5565b6130085760405162461bcd60e51b8152600401610ae1906162b4565b610e5881614327565b60fb5460ff16156130345760405162461bcd60e51b8152600401610ae190616211565b61304c6000805160206165a6833981519152336127b5565b6130685760405162461bcd60e51b8152600401610ae1906162b4565b610e5881614b60565b60fb5460ff16156130945760405162461bcd60e51b8152600401610ae190616211565b6130ac6000805160206165a6833981519152336127b5565b6130c85760405162461bcd60e51b8152600401610ae1906162b4565b610e5881614c47565b6097546001600160a01b031633146130fb5760405162461bcd60e51b8152600401610ae19061627f565b610108546040516001600160a01b038084169216907fdd8d3b7b0badfc5d636d48e71e28015b4b8554b64d2cffba6f0a90bf7693ec0090600090a361010880546001600160a01b0319166001600160a01b038316908117909155610e5890613a4a565b60405162461bcd60e51b815260206004820152603b60248201527f436f6d6d756e6974793a3a7265766f6b65526f6c653a20596f7520617265206e60448201527f6f7420616c6c6f7720746f207573652074686973206d6574686f6400000000006064820152608401610ae1565b60fb5460ff16156131ef5760405162461bcd60e51b8152600401610ae190616211565b600260c95414156132125760405162461bcd60e51b8152600401610ae19061632f565b600260c9556132228383836140f1565b61322b84614744565b5050600160c9555050565b600260c95414156132595760405162461bcd60e51b8152600401610ae19061632f565b600260c95561327d82308361326c610fad565b6001600160a01b0316929190614cd1565b806101026000828254613290919061648b565b9091555061329e9050613e23565b60405181815233907f0553260a2e46b0577270d8992db02d30856ca880144c72d6e9503760946aef139060200160405180910390a25050600160c955565b600061104861010a614aa8565b6097546001600160a01b031633146133135760405162461bcd60e51b8152600401610ae19061627f565b61011280546001600160a01b0319166001600160a01b0383169081179091556040805163f92b6c0160e01b815290516000928392909163f92b6c0191600480820192602092909190829003018186803b15801561336f57600080fd5b505afa158015613383573d6000803e3d6000fd5b505050506040513d601f19601f820116820180604052508101906133a79190616062565b61010e54600093509091505b8083101561341d5761010e8054806133db57634e487b7160e01b600052603160045260246000fd5b60008281526020812060036000199093019283020180546001600160a01b031916815560018101829055600201559055826134158161653c565b9350506133b3565b60008060008095505b848610156135855761011254604051632a62b44f60e11b8152600481018890526001600160a01b03909116906354c5689e9060240160606040518083038186803b15801561347357600080fd5b505afa158015613487573d6000803e3d6000fd5b505050506040513d601f19601f820116820180604052508101906134ab9190615c94565b604080516060810182526001600160a01b0385811682526020820185815292820184815261010e805460018101825560009190915292517f44731785622d53a842eeb261a70df6f2b61b9624656157b6168597f0656f4805600390940293840180546001600160a01b031916919093161790915591517f44731785622d53a842eeb261a70df6f2b61b9624656157b6168597f0656f480682015590517f44731785622d53a842eeb261a70df6f2b61b9624656157b6168597f0656f480790910155919450925090508561357d8161653c565b965050613426565b600061359261010f614aa8565b90505b80156135c5576135b46135ab61010f6000614ab2565b61010f90614d09565b506135be81616525565b9050613595565b6101125460408051634f162c6560e11b815290516000926001600160a01b031691639e2c58ca9160048083019286929190829003018186803b15801561360a57600080fd5b505afa15801561361e573d6000803e3d6000fd5b505050506040513d6000823e601f3d908101601f191682016040526136469190810190615cfd565b8051600099509091505b808910156136a757613694828a8151811061367b57634e487b7160e01b600052603260045260246000fd5b602002602001015161010f613e0e90919063ffffffff16565b508861369f8161653c565b995050613650565b50505050505050505050565b6097546001600160a01b031633146136dd5760405162461bcd60e51b8152600401610ae19061627f565b6001600160a01b0381166137425760405162461bcd60e51b815260206004820152602660248201527f4f776e61626c653a206e6577206f776e657220697320746865207a65726f206160448201526564647265737360d01b6064820152608401610ae1565b610e5881614abe565b6060611048610113614bb0565b61010854604051636b0de23f60e01b81523060048201523360248201526001600160a01b0390911690636b0de23f9060440160206040518083038186803b1580156137a257600080fd5b505afa1580156137b6573d6000803e3d6000fd5b505050506040513d601f19601f820116820180604052508101906137da9190615eb5565b6137f65760405162461bcd60e51b8152600401610ae19061623c565b60fb805460ff1916600117905560405133907fe1e6bc10311f2f958d6cd2d0ab7308c32089aa1acb8ab11a2ccb60028e332bd090600090a2565b61010e54600090600281101561384c5750506002820154610a5d565b6002840154600061385e6001846164e2565b90505b856003015461010e828154811061388857634e487b7160e01b600052603260045260246000fd5b90600052602060002090600302016002015411156139475761010e81815481106138c257634e487b7160e01b600052603260045260246000fd5b9060005260206000209060030201600201548510156138e057613935565b670de0b6b3a764000061010e828154811061390b57634e487b7160e01b600052603260045260246000fd5b9060005260206000209060030201600101548361392891906164c3565b61393291906164a3565b91505b8061393f81616525565b915050613861565b50949350505050565b600054610100900460ff166139775760405162461bcd60e51b8152600401610ae1906162e4565b61397f614d1e565b613987614d1e565b6126bd614d1e565b600054610100900460ff166139b65760405162461bcd60e51b8152600401610ae1906162e4565b6139be614d1e565b6126bd614d45565b600054610100900460ff166139ed5760405162461bcd60e51b8152600401610ae1906162e4565b6126bd614d75565b600082815260656020526040808220600101805490849055905190918391839186917fbd79b86ffe0ab8e8776151514217cd7cacd52c909f66475c3af44e129f0b00ff9190a4505050565b610e918282614da3565b613a626000805160206165a6833981519152826127b5565b610e5857613a7e6000805160206165a683398151915282614da3565b6040516001600160a01b0382169033907f05a4006f300442cf8b7fdb885f5ee958812020bffb5c5a8e655fde64e5f987ed90600090a350565b806001600160a01b0316826001600160a01b03161415613b4d5760405162461bcd60e51b8152602060048201526044602482018190527f436f6d6d756e6974793a3a6368616e676542656e656669636961727941646472908201527f6573733a2042656e65666963696172696573206d7573742062652064696666656064820152631c995b9d60e21b608482015260a401610ae1565b6001600160a01b0380831660009081526101096020526040808220928416825290206004825460ff166005811115613b9557634e487b7160e01b600052602160045260246000fd5b14158015613bc757506000825460ff166005811115613bc457634e487b7160e01b600052602160045260246000fd5b14155b613be35760405162461bcd60e51b8152600401610ae190616366565b6004815460ff166005811115613c0957634e487b7160e01b600052602160045260246000fd5b1415613c7d5760405162461bcd60e51b815260206004820152603f60248201527f436f6d6d756e6974793a3a6368616e676542656e65666963696172794164647260448201527f6573733a20496e76616c6964207461726765742062656e6566696369617279006064820152608401610ae1565b6000815460ff166005811115613ca357634e487b7160e01b600052602160045260246000fd5b1415613cb9578154613cb990829060ff166144c8565b613cc48260046144c8565b8160010154816001016000828254613cdc919061648b565b9091555050600380830154908201541115613d1d57613cff828260030154613830565b816002016000828254613d12919061648b565b90915550613d4a9050565b613d2b818360030154613830565b8260020154613d3a919061648b565b6002820155600380830154908201555b6000613d5761010f614aa8565b90506000805b82811015613dc557613d7161010f82614ab2565b6001600160a01b038116600090815260048088016020908152604080842054928901909152822080549395509092909190613dad90849061648b565b90915550819050613dbd8161653c565b915050613d5d565b50846001600160a01b0316866001600160a01b03167fb53b7057ddbff0cd9111b0a1a501a9cc1a9c315eb3396cb0d47917908325999a60405160405180910390a3505050505050565b6000612bd5836001600160a01b038416614e29565b60008061010860009054906101000a90046001600160a01b03166001600160a01b0316636b68b2ef6040518163ffffffff1660e01b815260040160206040518083038186803b158015613e7557600080fd5b505afa158015613e89573d6000803e3d6000fd5b505050506040513d601f19601f82011682018060405250810190613ead9190616062565b9050600061010860009054906101000a90046001600160a01b03166001600160a01b031663afae65be6040518163ffffffff1660e01b815260040160206040518083038186803b158015613f0057600080fd5b505afa158015613f14573d6000803e3d6000fd5b505050506040513d601f19601f82011682018060405250810190613f389190616062565b90506101005460001480613f4d575061010554155b80613f585750808211155b15613f675760fc549250614037565b61010054613f73610fad565b6040516370a0823160e01b81523060048201526001600160a01b0391909116906370a082319060240160206040518083038186803b158015613fb457600080fd5b505afa158015613fc8573d6000803e3d6000fd5b505050506040513d601f19601f82011682018060405250810190613fec9190616062565b613ff691906164a3565b92506000828260fc5461400991906164c3565b61401391906164a3565b90508084101561402557809350614035565b60fc548411156140355760fc5493505b505b610111548314614085576101115460408051918252602082018590527fc22e16deec6f587d0a1aad7275c1621e6c24431fea14dd71e8f3243e9fbc5ca3910160405180910390a16101118390555b505050565b61409482826127b5565b15610e915760008281526065602090815260408083206001600160a01b0385168085529252808320805460ff1916905551339285917ff6391f5c32d9c69d2a47ea670b442974b53935d1edc7fd64eb21e047a839171b9190a45050565b61010860009054906101000a90046001600160a01b03166001600160a01b031663af2d77f86040518163ffffffff1660e01b815260040160206040518083038186803b15801561414057600080fd5b505afa158015614154573d6000803e3d6000fd5b505050506040513d601f19601f820116820180604052508101906141789190615b35565b6001600160a01b0316336001600160a01b0316146141ed5760405162461bcd60e51b815260206004820152602c60248201527f436f6d6d756e6974793a2053656e646572206d7573742062652074686520626160448201526b18dad95b99081dd85b1b195d60a21b6064820152608401610ae1565b4283101561423d5760405162461bcd60e51b815260206004820152601c60248201527f436f6d6d756e6974793a205369676e617475726520746f6f206f6c64000000006044820152606401610ae1565b6040805133602082015230918101919091526060810184905260009060800160405160208183030381529060405280519060200120905060006142c184848080601f0160208091040260200160405190810160405280939291908181526020018383808284376000920191909152506142bb9250869150614e789050565b90614ecb565b90506142db6000805160206165a6833981519152826127b5565b6113805760405162461bcd60e51b815260206004820152601c60248201527f436f6d6d756e6974793a20496e76616c6964207369676e6174757265000000006044820152606401610ae1565b80516000905b808210156140855761436583838151811061435857634e487b7160e01b600052603260045260246000fd5b60200260200101516149a0565b8161436f8161653c565b92505061432d565b6101055461438157565b610108546040805163174a71d760e01b815290516000926001600160a01b03169163174a71d791600480830192602092919082900301818787803b1580156143c857600080fd5b505af11580156143dc573d6000803e3d6000fd5b505050506040513d601f19601f820116820180604052508101906144009190616062565b90508015610e58574361010655614415613e23565b60405133907f16a8b794d4e2ed6ffef50d78af3d4372ce4bfe8a399bfc23f59b7832ee47539090600090a250565b6040516001600160a01b03831660248201526044810182905261408590849063a9059cbb60e01b906064015b60408051601f198184030181529190526020810180516001600160e01b03166001600160e01b031990931692909217909152614ee7565b6001600160a01b03811660009081526001830160205260408120541515612bd5565b8060058111156144e857634e487b7160e01b600052602160045260246000fd5b825460ff16600581111561450c57634e487b7160e01b600052602160045260246000fd5b1415614516575050565b600181600581111561453857634e487b7160e01b600052602160045260246000fd5b14156146b25760fc546101035460ff5461455291906164e2565b10156145be5760405162461bcd60e51b815260206004820152603560248201527f436f6d6d756e6974793a3a5f6368616e676542656e656669636961727953746160448201527474653a204d617820636c61696d20746f6f206c6f7760581b6064820152608401610ae1565b61010d5415806145d3575061010d5461010054105b61467c5760405162461bcd60e51b815260206004820152606860248201527f436f6d6d756e6974793a3a5f6368616e676542656e656669636961727953746160448201527f74653a205468697320636f6d6d756e697479206861732072656163686564207460648201527f6865206d6178696d756d206e756d626572206f662076616c69642062656e6566608482015267696369617269657360c01b60a482015260c401610ae1565b610100805490600061468d8361653c565b91905055506101035460ff60008282546146a791906164e2565b9091555061470f9050565b6001825460ff1660058111156146d857634e487b7160e01b600052602160045260246000fd5b141561470f5761010080549060006146ef83616525565b91905055506101035460ff6000828254614709919061648b565b90915550505b81548190839060ff1916600183600581111561473b57634e487b7160e01b600052602160045260246000fd5b02179055505050565b80516000905b808210156140855761478283838151811061477557634e487b7160e01b600052603260045260246000fd5b60200260200101516147fb565b8282815181106147a257634e487b7160e01b600052603260045260246000fd5b60200260200101516001600160a01b0316336001600160a01b03167fbb39c36a7502b7256e1a687254146a9a2ea7b146c77cb9e40eb0e2b8793781e160405160405180910390a3816147f38161653c565b92505061474a565b6001600160a01b03811660009081526101096020526040812090815460ff16600581111561483957634e487b7160e01b600052602160045260246000fd5b14614842575050565b610112546001600160a01b03161561496e5761011254604051630156773960e01b81526001600160a01b038481166004830152600092169063015677399060240160806040518083038186803b15801561489b57600080fd5b505afa1580156148af573d6000803e3d6000fd5b505050506040513d601f19601f820116820180604052508101906148d39190616024565b50919250600091506148e29050565b81600581111561490257634e487b7160e01b600052602160045260246000fd5b1461496c5760405162461bcd60e51b815260206004820152603460248201527f436f6d6d756e6974793a3a61646442656e65666963696172793a20496e76616c60448201527369642062656e656669636961727920737461746560601b6064820152608401610ae1565b505b6149798160016144c8565b43600382015561498b61010a83613e0e565b50610e9182662386f26fc100006120ca610fad565b6001600160a01b0381166000908152610109602052604090206001815460ff1660058111156149df57634e487b7160e01b600052602160045260246000fd5b1480614a0e57506002815460ff166005811115614a0c57634e487b7160e01b600052602160045260246000fd5b145b15610e9157614a1e8160036144c8565b6040516001600160a01b0383169033907f1a6590bd0cabbfcc7c86bef99e1034054e179905cfcc294598fcd426c092244290600090a35050565b80516000905b8082101561408557614a96838381518110614a8957634e487b7160e01b600052603260045260246000fd5b6020026020010151614fb9565b81614aa08161653c565b925050614a5e565b6000610a5d825490565b6000612bd583836153eb565b609780546001600160a01b038381166001600160a01b0319831681179093556040519116919082907f8be0079c531659141344cd1fd0a4f28419497f9722a3daafe3b4186f6b6457e090600090a35050565b80516000905b8082101561408557614b4e838381518110614b4157634e487b7160e01b600052603260045260246000fd5b6020026020010151614bbd565b81614b588161653c565b925050614b16565b80516000905b8082101561408557614b9e838381518110614b9157634e487b7160e01b600052603260045260246000fd5b6020026020010151614c47565b81614ba88161653c565b925050614b66565b60606000612bd583615423565b6001600160a01b0381166000908152610109602052604090206001815460ff166005811115614bfc57634e487b7160e01b600052602160045260246000fd5b1415610e9157614c0d8160026144c8565b6040516001600160a01b0383169033907f2b9ef93c7856b47a1b624fa3fcc4b651d388dd6d16327f3ad22b05f3da8b0f1590600090a35050565b6001600160a01b0381166000908152610109602052604090206002815460ff166005811115614c8657634e487b7160e01b600052602160045260246000fd5b1415610e9157614c978160016144c8565b6040516001600160a01b0383169033907fa589fb4f2925123e7a030dd6bbe76be46a03f8ce0ea53a78dbb3383c7797db2c90600090a35050565b6040516001600160a01b0380851660248301528316604482015260648101829052611d999085906323b872dd60e01b9060840161446f565b6000612bd5836001600160a01b03841661547f565b600054610100900460ff166126bd5760405162461bcd60e51b8152600401610ae1906162e4565b600054610100900460ff16614d6c5760405162461bcd60e51b8152600401610ae1906162e4565b6126bd33614abe565b600054610100900460ff16614d9c5760405162461bcd60e51b8152600401610ae1906162e4565b600160c955565b614dad82826127b5565b610e915760008281526065602090815260408083206001600160a01b03851684529091529020805460ff19166001179055614de53390565b6001600160a01b0316816001600160a01b0316837f2f8788117e7eff1d82e926ec794901d17c78024a50270940304540a733656f0d60405160405180910390a45050565b6000818152600183016020526040812054614e7057508154600181810184556000848152602080822090930184905584548482528286019093526040902091909155610a5d565b506000610a5d565b6040517f19457468657265756d205369676e6564204d6573736167653a0a3332000000006020820152603c8101829052600090605c01604051602081830303815290604052805190602001209050919050565b6000806000614eda858561559c565b915091506126818161560c565b6000614f3c826040518060400160405280602081526020017f5361666545524332303a206c6f772d6c6576656c2063616c6c206661696c6564815250856001600160a01b031661580d9092919063ffffffff16565b8051909150156140855780806020019051810190614f5a9190615eb5565b6140855760405162461bcd60e51b815260206004820152602a60248201527f5361666545524332303a204552433230206f7065726174696f6e20646964206e6044820152691bdd081cdd58d8d9595960b21b6064820152608401610ae1565b6001600160a01b03811660009081526101096020526040812090815460ff166005811115614ff757634e487b7160e01b600052602160045260246000fd5b14615000575050565b61011254604051630156773960e01b81526001600160a01b038481166004830152600092839283928392169063015677399060240160806040518083038186803b15801561504d57600080fd5b505afa158015615061573d6000803e3d6000fd5b505050506040513d601f19601f820116820180604052508101906150859190616024565b9296509094509250905060058460058111156150b157634e487b7160e01b600052602160045260246000fd5b141561511e5760405162461bcd60e51b815260206004820152603660248201527f436f6d6d756e6974793a3a636f707942656e65666963696172793a2042656e65604482015275199a58da585c9e48185b1c9958591e4818dbdc1a595960521b6064820152608401610ae1565b61512885856144c8565b60018501839055600285018290556003850181905561011254604051636b31f2ad60e01b81526001600160a01b0388811660048301526000921690636b31f2ad9060240160006040518083038186803b15801561518457600080fd5b505afa158015615198573d6000803e3d6000fd5b505050506040513d6000823e601f3d908101601f191682016040526151c09190810190615e2e565b9050600061011260009054906101000a90046001600160a01b03166001600160a01b0316639e2c58ca6040518163ffffffff1660e01b815260040160006040518083038186803b15801561521357600080fd5b505afa158015615227573d6000803e3d6000fd5b505050506040513d6000823e601f3d908101601f1916820160405261524f9190810190615cfd565b825190915060005b8181101561532d5761529b83828151811061528257634e487b7160e01b600052603260045260246000fd5b602002602001015161010f6144a690919063ffffffff16565b1561531b578381815181106152c057634e487b7160e01b600052603260045260246000fd5b60200260200101518960040160008584815181106152ee57634e487b7160e01b600052603260045260246000fd5b60200260200101516001600160a01b03166001600160a01b03168152602001908152602001600020819055505b806153258161653c565b915050615257565b506101125460405163572b9e7b60e01b81526001600160a01b039091169063572b9e7b90615362908c90600590600401616113565b600060405180830381600087803b15801561537c57600080fd5b505af1158015615390573d6000803e3d6000fd5b505050506153a98961010a613e0e90919063ffffffff16565b506040516001600160a01b038a169033907f7b385acd6ce016fe5a2ca902550e21b2c49056139ce3e7517e4c63ecd535b71490600090a3505050505050505050565b600082600001828154811061541057634e487b7160e01b600052603260045260246000fd5b9060005260206000200154905092915050565b60608160000180548060200260200160405190810160405280929190818152602001828054801561547357602002820191906000526020600020905b81548152602001906001019080831161545f575b50505050509050919050565b600081815260018301602052604081205480156155925760006154a36001836164e2565b85549091506000906154b7906001906164e2565b90508181146155385760008660000182815481106154e557634e487b7160e01b600052603260045260246000fd5b906000526020600020015490508087600001848154811061551657634e487b7160e01b600052603260045260246000fd5b6000918252602080832090910192909255918252600188019052604090208390555b855486908061555757634e487b7160e01b600052603160045260246000fd5b600190038181906000526020600020016000905590558560010160008681526020019081526020016000206000905560019350505050610a5d565b6000915050610a5d565b6000808251604114156155d35760208301516040840151606085015160001a6155c787828585615824565b94509450505050615605565b8251604014156155fd57602083015160408401516155f2868383615911565b935093505050615605565b506000905060025b9250929050565b600081600481111561562e57634e487b7160e01b600052602160045260246000fd5b14156156375750565b600181600481111561565957634e487b7160e01b600052602160045260246000fd5b14156156a75760405162461bcd60e51b815260206004820152601860248201527f45434453413a20696e76616c6964207369676e617475726500000000000000006044820152606401610ae1565b60028160048111156156c957634e487b7160e01b600052602160045260246000fd5b14156157175760405162461bcd60e51b815260206004820152601f60248201527f45434453413a20696e76616c6964207369676e6174757265206c656e677468006044820152606401610ae1565b600381600481111561573957634e487b7160e01b600052602160045260246000fd5b14156157925760405162461bcd60e51b815260206004820152602260248201527f45434453413a20696e76616c6964207369676e6174757265202773272076616c604482015261756560f01b6064820152608401610ae1565b60048160048111156157b457634e487b7160e01b600052602160045260246000fd5b1415610e585760405162461bcd60e51b815260206004820152602260248201527f45434453413a20696e76616c6964207369676e6174757265202776272076616c604482015261756560f01b6064820152608401610ae1565b606061581c8484600085615940565b949350505050565b6000807f7fffffffffffffffffffffffffffffff5d576e7357a4501ddfe92f46681b20a083111561585b5750600090506003615908565b8460ff16601b1415801561587357508460ff16601c14155b156158845750600090506004615908565b6040805160008082526020820180845289905260ff881692820192909252606081018690526080810185905260019060a0016020604051602081039080840390855afa1580156158d8573d6000803e3d6000fd5b5050604051601f1901519150506001600160a01b03811661590157600060019250925050615908565b9150600090505b94509492505050565b6000806001600160ff1b03831660ff84901c601b0161593287828885615824565b935093505050935093915050565b6060824710156159a15760405162461bcd60e51b815260206004820152602660248201527f416464726573733a20696e73756666696369656e742062616c616e636520666f6044820152651c8818d85b1b60d21b6064820152608401610ae1565b843b6159ef5760405162461bcd60e51b815260206004820152601d60248201527f416464726573733a2063616c6c20746f206e6f6e2d636f6e74726163740000006044820152606401610ae1565b600080866001600160a01b03168587604051615a0b91906160f7565b60006040518083038185875af1925050503d8060008114615a48576040519150601f19603f3d011682016040523d82523d6000602084013e615a4d565b606091505b5091509150615a5d828286615a68565b979650505050505050565b60608315615a77575081612bd5565b825115615a875782518084602001fd5b8160405162461bcd60e51b8152600401610ae191906161de565b600082601f830112615ab1578081fd5b81356020615ac6615ac183616467565b616436565b80838252828201915082860187848660051b8901011115615ae5578586fd5b855b85811015615b0c578135615afa81616583565b84529284019290840190600101615ae7565b5090979650505050505050565b600060208284031215615b2a578081fd5b8135612bd581616583565b600060208284031215615b46578081fd5b8151612bd581616583565b60008060408385031215615b63578081fd5b8235615b6e81616583565b91506020830135615b7e81616583565b809150509250929050565b60008060008060008060008060008060006101608c8e031215615baa578687fd5b8b35615bb581616583565b9a5060208c013567ffffffffffffffff811115615bd0578788fd5b615bdc8e828f01615aa1565b9a505060408c0135985060608c0135975060808c0135965060a08c0135955060c08c0135945060e08c013593506101008c013592506101208c013591506101408c0135615c2881616583565b809150509295989b509295989b9093969950565b60008060408385031215615c4e578182fd5b8235615c5981616583565b91506020830135615b7e81616598565b60008060408385031215615c7b578182fd5b8235615c8681616583565b946020939093013593505050565b600080600060608486031215615ca8578081fd5b8351615cb381616583565b602085015160409095015190969495509392505050565b600060208284031215615cdb578081fd5b813567ffffffffffffffff811115615cf1578182fd5b61581c84828501615aa1565b60006020808385031215615d0f578182fd5b825167ffffffffffffffff811115615d25578283fd5b8301601f81018513615d35578283fd5b8051615d43615ac182616467565b80828252848201915084840188868560051b8701011115615d62578687fd5b8694505b83851015615d8d578051615d7981616583565b835260019490940193918501918501615d66565b50979650505050505050565b60008060008060608587031215615dae578182fd5b843567ffffffffffffffff80821115615dc5578384fd5b615dd188838901615aa1565b9550602087013594506040870135915080821115615ded578384fd5b818701915087601f830112615e00578384fd5b813581811115615e0e578485fd5b886020828501011115615e1f578485fd5b95989497505060200194505050565b60006020808385031215615e40578182fd5b825167ffffffffffffffff811115615e56578283fd5b8301601f81018513615e66578283fd5b8051615e74615ac182616467565b80828252848201915084840188868560051b8701011115615e93578687fd5b8694505b83851015615d8d578051835260019490940193918501918501615e97565b600060208284031215615ec6578081fd5b81518015158114612bd5578182fd5b600060208284031215615ee6578081fd5b5035919050565b60008060408385031215615eff578182fd5b823591506020830135615b7e81616583565b600060208284031215615f22578081fd5b81356001600160e01b031981168114612bd5578182fd5b600080600060608486031215615f4d578081fd5b8335615f5881616583565b92506020840135615f6881616583565b929592945050506040919091013590565b60008060008060008060008060e0898b031215615f94578182fd5b8835615f9f81616583565b9750602089013567ffffffffffffffff80821115615fbb578384fd5b818b0191508b601f830112615fce578384fd5b813581811115615fdc578485fd5b8c60208260051b8501011115615ff0578485fd5b999c6020929092019b50989960408101359950606081013598506080810135975060a0810135965060c00135945092505050565b60008060008060808587031215616039578182fd5b845161604481616598565b60208601516040870151606090970151919890975090945092505050565b600060208284031215616073578081fd5b5051919050565b6000806040838503121561608c578182fd5b50508035926020909101359150565b600080600080600060a086880312156160b2578283fd5b505083359560208501359550604085013594606081013594506080013592509050565b600681106160f357634e487b7160e01b600052602160045260246000fd5b9052565b600082516161098184602087016164f9565b9190910192915050565b6001600160a01b038316815260408101612bd560208301846160d5565b6020808252825182820181905260009190848201906040850190845b818110156161715783516001600160a01b03168352928401929184019160010161614c565b50909695505050505050565b6020808252825182820181905260009190848201906040850190845b8181101561617157835183529284019291840191600101616199565b608081016161c382876160d5565b84602083015283604083015282606083015295945050505050565b60208152600082518060208401526161fd8160408501602087016164f9565b601f01601f19169190910160400192915050565b60208082526011908201527010dbdb5b5d5b9a5d1e4e881b1bd8dad959607a1b604082015260600190565b60208082526023908201527f436f6d6d756e6974793a204e4f545f414d4241535341444f525f4f525f454e5460408201526249545960e81b606082015260800190565b6020808252818101527f4f776e61626c653a2063616c6c6572206973206e6f7420746865206f776e6572604082015260600190565b60208082526016908201527521b7b6b6bab734ba3c9d102727aa2fa6a0a720a3a2a960511b604082015260600190565b6020808252602b908201527f496e697469616c697a61626c653a20636f6e7472616374206973206e6f74206960408201526a6e697469616c697a696e6760a81b606082015260800190565b6020808252601f908201527f5265656e7472616e637947756172643a207265656e7472616e742063616c6c00604082015260600190565b60208082526038908201527f436f6d6d756e6974793a3a6368616e676542656e65666963696172794164647260408201527f6573733a20496e76616c69642062656e65666963696172790000000000000000606082015260800190565b868152602080820187905260a0604083018190528201859052600090869060c08401835b888110156164155783356163fa81616583565b6001600160a01b0316825292820192908201906001016163e7565b506001600160a01b0396909616606085015250505060800152949350505050565b604051601f8201601f1916810167ffffffffffffffff8111828210171561645f5761645f61656d565b604052919050565b600067ffffffffffffffff8211156164815761648161656d565b5060051b60200190565b6000821982111561649e5761649e616557565b500190565b6000826164be57634e487b7160e01b81526012600452602481fd5b500490565b60008160001904831182151516156164dd576164dd616557565b500290565b6000828210156164f4576164f4616557565b500390565b60005b838110156165145781810151838201526020016164fc565b83811115611d995750506000910152565b60008161653457616534616557565b506000190190565b600060001982141561655057616550616557565b5060010190565b634e487b7160e01b600052601160045260246000fd5b634e487b7160e01b600052604160045260246000fd5b6001600160a01b0381168114610e5857600080fd5b60068110610e5857600080fdfe241ecf16d79d0f8dbfb92cbc07fe17840425976cf0667f022fe9877caa831b08a2646970667358221220c2dd15a8bceb9cdbd8b02b276e587a1f1f282c6d1c9432bc675398816e37956064736f6c63430008040033",
  "devdoc": {
    "events": {
      "BeneficiaryAdded(address,address)": {
        "params": {
          "beneficiary": "Address of the beneficiary that has been added",
          "manager": "Address of the manager that triggered the event"
        }
      },
      "BeneficiaryAddressChanged(address,address)": {
        "params": {
          "beneficiary1": "Address of the first beneficiary",
          "beneficiary2": "Address of the second beneficiary"
        }
      },
      "BeneficiaryClaim(address,uint256)": {
        "params": {
          "amount": "Amount of the claim",
          "beneficiary": "Address of the beneficiary that has claimed"
        }
      },
      "BeneficiaryCopied(address,address)": {
        "params": {
          "beneficiary": "Address of the beneficiary that has been added",
          "manager": "Address of the manager that triggered the event"
        }
      },
      "BeneficiaryJoined(address)": {
        "params": {
          "beneficiary": "Address of the beneficiary"
        }
      },
      "BeneficiaryLocked(address,address)": {
        "params": {
          "beneficiary": "Address of the beneficiary that has been locked",
          "manager": "Address of the manager that triggered the event"
        }
      },
      "BeneficiaryParamsUpdated(uint256,uint256,uint256,uint256,uint256,uint256,uint256,uint256,uint256,uint256)": {
        "params": {
          "newBaseInterval": "New baseInterval value",
          "newDecreaseStep": "New decreaseStep value",
          "newIncrementInterval": "New incrementInterval value For further information regarding each parameter, see *Community* smart contract initialize method.",
          "newMaxTotalClaim": "New maxTotalClaim value",
          "newOriginalClaimAmount": "New originalClaimAmount value",
          "oldBaseInterval": "Old baseInterval value",
          "oldDecreaseStep": "Old decreaseStep value",
          "oldIncrementInterval": "Old incrementInterval value",
          "oldMaxTotalClaim": "Old maxTotalClaim value",
          "oldOriginalClaimAmount": "Old originalClaimAmount value"
        }
      },
      "BeneficiaryRemoved(address,address)": {
        "params": {
          "beneficiary": "Address of the beneficiary that has been removed",
          "manager": "Address of the manager that triggered the event"
        }
      },
      "BeneficiaryUnlocked(address,address)": {
        "params": {
          "beneficiary": "Address of the beneficiary that has been unlocked",
          "manager": "Address of the manager that triggered the event"
        }
      },
      "ClaimAmountUpdated(uint256,uint256)": {
        "params": {
          "newClaimAmount": "New claimAmount value",
          "oldClaimAmount": "Old claimAmount value"
        }
      },
      "CommunityAdminUpdated(address,address)": {
        "params": {
          "newCommunityAdmin": "New communityAdmin address",
          "oldCommunityAdmin": "Old communityAdmin address"
        }
      },
      "CommunityLocked(address)": {
        "params": {
          "manager": "Address of the manager that triggered the event"
        }
      },
      "CommunityParamsUpdated(uint256,uint256,uint256,uint256)": {
        "params": {
          "newMaxTranche": "New maxTranche value For further information regarding each parameter, see *Community* smart contract initialize method.",
          "newMinTranche": "New minTranche value",
          "oldMaxTranche": "Old maxTranche value",
          "oldMinTranche": "Old minTranche value"
        }
      },
      "CommunityUnlocked(address)": {
        "params": {
          "manager": "Address of the manager that triggered the event"
        }
      },
      "Donate(address,uint256)": {
        "params": {
          "amount": "Amount of the donation",
          "donor": "Address of the donor"
        }
      },
      "FundsRequested(address)": {
        "params": {
          "manager": "Address of the manager that triggered the event"
        }
      },
      "ManagerAdded(address,address)": {
        "params": {
          "account": "Address of the manager that has been added",
          "manager": "Address of the manager that triggered the event                          or address of the CommunityAdmin if it's first manager"
        }
      },
      "ManagerRemoved(address,address)": {
        "params": {
          "account": "Address of the manager that has been removed",
          "manager": "Address of the manager that triggered the event"
        }
      },
      "MaxBeneficiariesUpdated(uint256,uint256)": {
        "params": {
          "newMaxBeneficiaries": "New maxBeneficiaries value",
          "oldMaxBeneficiaries": "Old maxBeneficiaries value"
        }
      },
      "PreviousCommunityUpdated(address,address)": {
        "params": {
          "newPreviousCommunity": "New previousCommunity address",
          "oldPreviousCommunity": "Old previousCommunity address"
        }
      },
      "TokenUpdated(address,address)": {
        "params": {
          "newTokenAddress": "New token address",
          "oldTokenAddress": "Old token address"
        }
      },
      "TransferERC20(address,address,uint256)": {
        "params": {
          "amount": "Amount of the transaction",
          "to": "Address of the receiver",
          "token": "ERC20 token address"
        }
      }
    },
    "kind": "dev",
    "methods": {
      "addBeneficiaries(address[])": {
        "params": {
          "_beneficiaryAddresses": "addresses of the beneficiaries to be added"
        }
      },
      "addBeneficiariesUsingSignature(address[],uint256,bytes)": {
        "params": {
          "_beneficiaryAddresses": "addresses of the beneficiaries to be added",
          "_expirationTimestamp": "timestamp when the signature will expire/expired",
          "_signature": "the signature of a manager"
        }
      },
      "addBeneficiary(address)": {
        "params": {
          "_beneficiaryAddress": "address of the beneficiary to be added"
        }
      },
      "addCopy(address)": {
        "params": {
          "_copy": "address of the 'child' community"
        }
      },
      "addManager(address)": {
        "params": {
          "_account": "address of the manager to be added"
        }
      },
      "addTreasuryFunds(uint256)": {
        "params": {
          "_amount": "amount to be added to treasuryFunds"
        }
      },
      "beneficiaries(address)": {
        "params": {
          "_beneficiaryAddress": "address of the beneficiary"
        },
        "returns": {
          "claimedAmount": "        the amount he has claimed",
          "claims": "               how many times the beneficiary has claimed",
          "lastClaim": "            block number of the last claim",
          "state": "                the status of the beneficiary"
        }
      },
      "beneficiaryClaimedAmounts(address)": {
        "params": {
          "_beneficiaryAddress": "address of the beneficiary"
        },
        "returns": {
          "claimedAmounts": "       a uint256 array with all claimed amounts in the same order as tokenList array"
        }
      },
      "beneficiaryListAt(uint256)": {
        "params": {
          "index_": "index value"
        },
        "returns": {
          "_0": "address of the beneficiary"
        }
      },
      "changeBeneficiaryAddress(address)": {
        "details": "used by beneficiaries"
      },
      "changeBeneficiaryAddressByManager(address,address)": {
        "details": "used by managers"
      },
      "claim()": {
        "details": "Transfers tokens to a valid beneficiary"
      },
      "claimCooldown(address)": {
        "params": {
          "_beneficiaryAddress": "address of the beneficiary"
        },
        "returns": {
          "_0": "uint256 number of block when the beneficiary can claim"
        }
      },
      "copyBeneficiaries(address[])": {
        "params": {
          "_beneficiaryAddresses": "addresses of the beneficiaries to be copied"
        }
      },
      "copyCommunityDetails(address)": {
        "params": {
          "_originalCommunity": "address of the 'parent' community"
        }
      },
      "donate(address,uint256)": {
        "params": {
          "_amount": "amount to be donated",
          "_sender": "address of the sender"
        }
      },
      "getRoleAdmin(bytes32)": {
        "details": "Returns the admin role that controls `role`. See {grantRole} and {revokeRole}. To change a role's admin, use {_setRoleAdmin}."
      },
      "hasRole(bytes32,address)": {
        "details": "Returns `true` if `account` has been granted `role`."
      },
      "initialize(address,address[],uint256,uint256,uint256,uint256,uint256,uint256,uint256,uint256,address)": {
        "params": {
          "_baseInterval": "Base interval to start claiming",
          "_decreaseStep": "Value decreased from maxTotalClaim each time a beneficiary is added",
          "_incrementInterval": "Increment interval used in each claim",
          "_managers": "Community's initial managers                             Will be able to add others",
          "_maxBeneficiaries": "Maximum valid beneficiaries number",
          "_maxTotalClaim": "Limit that a beneficiary can claim in total",
          "_maxTranche": "Maximum amount that the community will receive when requesting funds",
          "_minTranche": "Minimum amount that the community will receive when requesting funds",
          "_originalClaimAmount": "Maximum base amount to be claim by the beneficiary",
          "_previousCommunity": "Previous smart contract address of community",
          "_tokenAddress": "Address of the token used by the community"
        }
      },
      "lastInterval(address)": {
        "params": {
          "_beneficiaryAddress": "address of the beneficiary"
        },
        "returns": {
          "_0": "uint256 number of blocks for the lastInterval"
        }
      },
      "lockBeneficiaries(address[])": {
        "params": {
          "_beneficiaryAddresses": "addresses of the beneficiaries to be locked"
        }
      },
      "lockBeneficiariesUsingSignature(address[],uint256,bytes)": {
        "params": {
          "_beneficiaryAddresses": "addresses of the beneficiaries to be locked",
          "_expirationTimestamp": "timestamp when the signature will expire/expired",
          "_signature": "the signature of a manager"
        }
      },
      "lockBeneficiary(address)": {
        "params": {
          "_beneficiaryAddress": "address of the beneficiary to be locked"
        }
      },
      "owner()": {
        "details": "Returns the address of the current owner."
      },
      "removeBeneficiaries(address[])": {
        "params": {
          "_beneficiaryAddresses": "addresses of the beneficiaries to be removed"
        }
      },
      "removeBeneficiariesUsingSignature(address[],uint256,bytes)": {
        "params": {
          "_beneficiaryAddresses": "addresses of the beneficiaries to be removed",
          "_expirationTimestamp": "timestamp when the signature will expire/expired",
          "_signature": "the signature of a manager"
        }
      },
      "removeBeneficiary(address)": {
        "params": {
          "_beneficiaryAddress": "address of the beneficiary to be removed"
        }
      },
      "removeManager(address)": {
        "params": {
          "_account": "address of the manager to be removed"
        }
      },
      "renounceOwnership()": {
        "details": "Leaves the contract without owner. It will not be possible to call `onlyOwner` functions anymore. Can only be called by the current owner. NOTE: Renouncing ownership will leave the contract without an owner, thereby removing any functionality that is only available to the owner."
      },
      "renounceRole(bytes32,address)": {
        "details": "Revokes `role` from the calling account. Roles are often managed via {grantRole} and {revokeRole}: this function's purpose is to provide a mechanism for accounts to lose their privileges if they are compromised (such as when a trusted device is misplaced). If the calling account had been revoked `role`, emits a {RoleRevoked} event. Requirements: - the caller must be `account`."
      },
      "setBeneficiaryState(address,uint8)": {
        "params": {
          "_beneficiaryAddress": "address of the beneficiary",
          "_state": "beneficiary's state"
        }
      },
      "supportsInterface(bytes4)": {
        "details": "See {IERC165-supportsInterface}."
      },
      "transfer(address,address,uint256)": {
        "params": {
          "_amount": "amount of the transaction",
          "_to": "address of the receiver",
          "_token": "address of the ERC20 token"
        }
      },
      "transferOwnership(address)": {
        "details": "Transfers ownership of the contract to a new account (`newOwner`). Can only be called by the current owner."
      },
      "unlockBeneficiaries(address[])": {
        "params": {
          "_beneficiaryAddresses": "addresses of the beneficiaries to be unlocked"
        }
      },
      "unlockBeneficiariesUsingSignature(address[],uint256,bytes)": {
        "params": {
          "_beneficiaryAddresses": "addresses of the beneficiaries to be unlocked",
          "_expirationTimestamp": "timestamp when the signature will expire/expired",
          "_signature": "the signature of a manager"
        }
      },
      "unlockBeneficiary(address)": {
        "params": {
          "_beneficiaryAddress": "address of the beneficiary to be unlocked"
        }
      },
      "updateBeneficiaryParams(uint256,uint256,uint256,uint256,uint256)": {
        "params": {
          "_baseInterval": "base interval to start claiming",
          "_decreaseStep": "value decreased from maxTotalClaim each time a is beneficiary added",
          "_incrementInterval": "increment interval used in each claim",
          "_maxTotalClaim": "limit that a beneficiary can claim  in total",
          "_originalClaimAmount": "maximum base amount to be claim by the beneficiary"
        }
      },
      "updateCommunityAdmin(address)": {
        "params": {
          "_newCommunityAdmin": "address of the new communityAdmin"
        }
      },
      "updateCommunityParams(uint256,uint256)": {
        "params": {
          "_maxTranche": "maximum amount that the community will receive when requesting funds",
          "_minTranche": "minimum amount that the community will receive when requesting funds"
        }
      },
      "updateMaxBeneficiaries(uint256)": {
        "params": {
          "_newMaxBeneficiaries": "new _maxBeneficiaries value"
        }
      },
      "updatePreviousCommunity(address)": {
        "params": {
          "_newPreviousCommunity": "address of the new previousCommunity"
        }
      }
    },
    "version": 1
  },
  "userdoc": {
    "events": {
      "BeneficiaryAdded(address,address)": {
        "notice": "Triggered when a beneficiary has been added"
      },
      "BeneficiaryAddressChanged(address,address)": {
        "notice": "Triggered when two beneficiaries has been merged"
      },
      "BeneficiaryClaim(address,uint256)": {
        "notice": "Triggered when a beneficiary has claimed"
      },
      "BeneficiaryCopied(address,address)": {
        "notice": "Triggered when a beneficiary has been copied"
      },
      "BeneficiaryJoined(address)": {
        "notice": "Triggered when a beneficiary from previous community has joined in the current community"
      },
      "BeneficiaryLocked(address,address)": {
        "notice": "Triggered when a beneficiary has been locked"
      },
      "BeneficiaryParamsUpdated(uint256,uint256,uint256,uint256,uint256,uint256,uint256,uint256,uint256,uint256)": {
        "notice": "Triggered when beneficiary params has been updated"
      },
      "BeneficiaryRemoved(address,address)": {
        "notice": "Triggered when a beneficiary has been removed"
      },
      "BeneficiaryUnlocked(address,address)": {
        "notice": "Triggered when a beneficiary has been unlocked"
      },
      "ClaimAmountUpdated(uint256,uint256)": {
        "notice": "Triggered when claimAmount has been changed"
      },
      "CommunityAdminUpdated(address,address)": {
        "notice": "Triggered when communityAdmin has been updated"
      },
      "CommunityLocked(address)": {
        "notice": "Triggered when a community has been locked"
      },
      "CommunityParamsUpdated(uint256,uint256,uint256,uint256)": {
        "notice": "Triggered when community params has been updated"
      },
      "CommunityUnlocked(address)": {
        "notice": "Triggered when a community has been unlocked"
      },
      "Donate(address,uint256)": {
        "notice": "Triggered when someone has donated token"
      },
      "FundsRequested(address)": {
        "notice": "Triggered when a manager has requested funds for community"
      },
      "ManagerAdded(address,address)": {
        "notice": "Triggered when a manager has been added"
      },
      "ManagerRemoved(address,address)": {
        "notice": "Triggered when a manager has been removed"
      },
      "MaxBeneficiariesUpdated(uint256,uint256)": {
        "notice": "Triggered when maxBeneficiaries has been updated"
      },
      "PreviousCommunityUpdated(address,address)": {
        "notice": "Triggered when previousCommunity has been updated"
      },
      "TokenUpdated(address,address)": {
        "notice": "Triggered when token address has been updated"
      },
      "TransferERC20(address,address,uint256)": {
        "notice": "Triggered when an amount of an ERC20 has been transferred from this contract to an address"
      }
    },
    "kind": "user",
    "methods": {
      "addBeneficiaries(address[])": {
        "notice": "Adds new beneficiaries"
      },
      "addBeneficiariesUsingSignature(address[],uint256,bytes)": {
        "notice": "Adds new beneficiaries using a manager signature"
      },
      "addBeneficiary(address)": {
        "notice": "Adds a new beneficiary"
      },
      "addCopy(address)": {
        "notice": "Adds a new copy of this community"
      },
      "addManager(address)": {
        "notice": "Adds a new manager"
      },
      "addTreasuryFunds(uint256)": {
        "notice": "Increases the treasuryFunds value Used by communityAdmin after an amount of tokens are sent from the treasury"
      },
      "beneficiaries(address)": {
        "notice": "Returns the data of a beneficiary"
      },
      "beneficiaryClaimedAmounts(address)": {
        "notice": "Returns the beneficiary's claimed amounts for each token"
      },
      "beneficiaryJoinFromMigrated(address)": {
        "notice": "Allows a beneficiary from the previousCommunity to join in this community"
      },
      "beneficiaryListAt(uint256)": {
        "notice": "Returns an address from the beneficiaryList"
      },
      "beneficiaryListLength()": {
        "notice": "Returns the length of the beneficiaryList"
      },
      "cUSD()": {
        "notice": "Returns the cUSD contract address todo: to be removed, use token() instead"
      },
      "changeBeneficiaryAddress(address)": {
        "notice": "Allows a beneficiary to use another address this action adds claim details from both addresses"
      },
      "changeBeneficiaryAddressByManager(address,address)": {
        "notice": "Changes the address of a beneficiary this action adds claim details from both addresses"
      },
      "claimCooldown(address)": {
        "notice": "Returns the block number when a beneficiary can claim again"
      },
      "copies()": {
        "notice": "Returns the list with all communities copies"
      },
      "copyBeneficiaries(address[])": {
        "notice": "Copies beneficiaries from the original community"
      },
      "copyCommunityDetails(address)": {
        "notice": "Copies the original community details that haven't been copied in the initialize method  !!used only by communityAdmin.copyCommunity method"
      },
      "donate(address,uint256)": {
        "notice": "Transfers tokens from donor to this community Used by donationToCommunity method from DonationMiner contract"
      },
      "getInitialMaxClaim()": {
        "notice": "Returns the initial maxTotalClaim todo: do be deleted after updating all communities to v3"
      },
      "getInitialMaxTotalClaim()": {
        "notice": "Returns the initial maxTotalClaim"
      },
      "getVersion()": {
        "notice": "Returns the current implementation version"
      },
      "grantRole(bytes32,address)": {
        "notice": "Enforces managers to use addManager method"
      },
      "impactMarketAddress()": {
        "notice": "Returns the 0 address only used for backwards compatibility"
      },
      "initialize(address,address[],uint256,uint256,uint256,uint256,uint256,uint256,uint256,uint256,address)": {
        "notice": "Used to initialize a new Community contract"
      },
      "lastInterval(address)": {
        "notice": "Returns the number of blocks that a beneficiary have to wait between claims"
      },
      "lock()": {
        "notice": "Locks the community"
      },
      "lockBeneficiaries(address[])": {
        "notice": "Locks a list of beneficiaries"
      },
      "lockBeneficiariesUsingSignature(address[],uint256,bytes)": {
        "notice": "Locks a list of beneficiaries using a manager signature"
      },
      "lockBeneficiary(address)": {
        "notice": "Locks a valid beneficiary"
      },
      "maxClaim()": {
        "notice": "Returns the amount that can be claimed by a beneficiary in total todo: remove it after the frontend is updated to the new function: maxTotalClaim()"
      },
      "removeBeneficiaries(address[])": {
        "notice": "Removes a list of beneficiaries"
      },
      "removeBeneficiariesUsingSignature(address[],uint256,bytes)": {
        "notice": "Removes a list of beneficiaries using a manager signature"
      },
      "removeBeneficiary(address)": {
        "notice": "Remove an existing beneficiary"
      },
      "removeManager(address)": {
        "notice": "Remove an existing manager"
      },
      "requestFunds()": {
        "notice": "Requests treasury funds from the communityAdmin"
      },
      "revokeRole(bytes32,address)": {
        "notice": "Enforces managers to use removeManager method"
      },
      "setBeneficiaryState(address,uint8)": {
        "notice": "Sets a beneficiary's state"
      },
      "token()": {
        "notice": "Returns the address of the token used by this community"
      },
      "tokenUpdatesLength()": {
        "notice": "Returns the length of the tokenList"
      },
      "transfer(address,address,uint256)": {
        "notice": "Transfers an amount of an ERC20 from this contract to an address"
      },
      "unlock()": {
        "notice": "Unlocks the community"
      },
      "unlockBeneficiaries(address[])": {
        "notice": "Unlocks a list of beneficiaries"
      },
      "unlockBeneficiariesUsingSignature(address[],uint256,bytes)": {
        "notice": "Unlocks a list of beneficiaries using a manager signature"
      },
      "unlockBeneficiary(address)": {
        "notice": "Unlocks a locked beneficiary"
      },
      "updateBeneficiaryParams(uint256,uint256,uint256,uint256,uint256)": {
        "notice": "Updates beneficiary paramsbe aware that max claim will not be the same with the value you've provided             maxTotalClaim = _maxTotalClaim - validBeneficiaryCount * _decreaseStep"
      },
      "updateCommunityAdmin(address)": {
        "notice": "Updates the address of the communityAdmin"
      },
      "updateCommunityParams(uint256,uint256)": {
        "notice": "Updates params of a community"
      },
      "updateMaxBeneficiaries(uint256)": {
        "notice": "Updates maxBeneficiaries"
      },
      "updatePreviousCommunity(address)": {
        "notice": "Updates the address of the previousCommunity"
      },
      "updateToken(address,address[],uint256,uint256,uint256,uint256,uint256)": {
        "notice": "Updates token address   !!!!!! you must be careful about _maxTotalClaim value. This value determines all beneficiaries claimedAmounts"
      }
    },
    "notice": "Welcome to the Community contract. For each community there will be one proxy contract deployed by CommunityAdmin. The implementation of the proxy is this contract. This enable us to save tokens on the contract itself, and avoid the problems of having everything in one single contract. Each community has it's own members and and managers.",
    "version": 1
  },
  "storageLayout": {
    "storage": [
      {
        "astId": 542,
        "contract": "contracts/community/CommunityImplementation.sol:CommunityImplementation",
        "label": "_initialized",
        "offset": 0,
        "slot": "0",
        "type": "t_bool"
      },
      {
        "astId": 545,
        "contract": "contracts/community/CommunityImplementation.sol:CommunityImplementation",
        "label": "_initializing",
        "offset": 1,
        "slot": "0",
        "type": "t_bool"
      },
      {
        "astId": 1370,
        "contract": "contracts/community/CommunityImplementation.sol:CommunityImplementation",
        "label": "__gap",
        "offset": 0,
        "slot": "1",
        "type": "t_array(t_uint256)50_storage"
      },
      {
        "astId": 1619,
        "contract": "contracts/community/CommunityImplementation.sol:CommunityImplementation",
        "label": "__gap",
        "offset": 0,
        "slot": "51",
        "type": "t_array(t_uint256)50_storage"
      },
      {
        "astId": 48,
        "contract": "contracts/community/CommunityImplementation.sol:CommunityImplementation",
        "label": "_roles",
        "offset": 0,
        "slot": "101",
        "type": "t_mapping(t_bytes32,t_struct(RoleData)43_storage)"
      },
      {
        "astId": 335,
        "contract": "contracts/community/CommunityImplementation.sol:CommunityImplementation",
        "label": "__gap",
        "offset": 0,
        "slot": "102",
        "type": "t_array(t_uint256)49_storage"
      },
      {
        "astId": 420,
        "contract": "contracts/community/CommunityImplementation.sol:CommunityImplementation",
        "label": "_owner",
        "offset": 0,
        "slot": "151",
        "type": "t_address"
      },
      {
        "astId": 534,
        "contract": "contracts/community/CommunityImplementation.sol:CommunityImplementation",
        "label": "__gap",
        "offset": 0,
        "slot": "152",
        "type": "t_array(t_uint256)49_storage"
      },
      {
        "astId": 736,
        "contract": "contracts/community/CommunityImplementation.sol:CommunityImplementation",
        "label": "_status",
        "offset": 0,
        "slot": "201",
        "type": "t_uint256"
      },
      {
        "astId": 779,
        "contract": "contracts/community/CommunityImplementation.sol:CommunityImplementation",
        "label": "__gap",
        "offset": 0,
        "slot": "202",
        "type": "t_array(t_uint256)49_storage"
      },
      {
        "astId": 14305,
        "contract": "contracts/community/CommunityImplementation.sol:CommunityImplementation",
        "label": "locked",
        "offset": 0,
        "slot": "251",
        "type": "t_bool"
      },
      {
        "astId": 14308,
        "contract": "contracts/community/CommunityImplementation.sol:CommunityImplementation",
        "label": "originalClaimAmount",
        "offset": 0,
        "slot": "252",
        "type": "t_uint256"
      },
      {
        "astId": 14311,
        "contract": "contracts/community/CommunityImplementation.sol:CommunityImplementation",
        "label": "baseInterval",
        "offset": 0,
        "slot": "253",
        "type": "t_uint256"
      },
      {
        "astId": 14314,
        "contract": "contracts/community/CommunityImplementation.sol:CommunityImplementation",
        "label": "incrementInterval",
        "offset": 0,
        "slot": "254",
        "type": "t_uint256"
      },
      {
        "astId": 14317,
        "contract": "contracts/community/CommunityImplementation.sol:CommunityImplementation",
        "label": "maxTotalClaim",
        "offset": 0,
        "slot": "255",
        "type": "t_uint256"
      },
      {
        "astId": 14320,
        "contract": "contracts/community/CommunityImplementation.sol:CommunityImplementation",
        "label": "validBeneficiaryCount",
        "offset": 0,
        "slot": "256",
        "type": "t_uint256"
      },
      {
        "astId": 14323,
        "contract": "contracts/community/CommunityImplementation.sol:CommunityImplementation",
        "label": "treasuryFunds",
        "offset": 0,
        "slot": "257",
        "type": "t_uint256"
      },
      {
        "astId": 14326,
        "contract": "contracts/community/CommunityImplementation.sol:CommunityImplementation",
        "label": "privateFunds",
        "offset": 0,
        "slot": "258",
        "type": "t_uint256"
      },
      {
        "astId": 14329,
        "contract": "contracts/community/CommunityImplementation.sol:CommunityImplementation",
        "label": "decreaseStep",
        "offset": 0,
        "slot": "259",
        "type": "t_uint256"
      },
      {
        "astId": 14332,
        "contract": "contracts/community/CommunityImplementation.sol:CommunityImplementation",
        "label": "minTranche",
        "offset": 0,
        "slot": "260",
        "type": "t_uint256"
      },
      {
        "astId": 14335,
        "contract": "contracts/community/CommunityImplementation.sol:CommunityImplementation",
        "label": "maxTranche",
        "offset": 0,
        "slot": "261",
        "type": "t_uint256"
      },
      {
        "astId": 14338,
        "contract": "contracts/community/CommunityImplementation.sol:CommunityImplementation",
        "label": "lastFundRequest",
        "offset": 0,
        "slot": "262",
        "type": "t_uint256"
      },
      {
        "astId": 14342,
        "contract": "contracts/community/CommunityImplementation.sol:CommunityImplementation",
        "label": "previousCommunity",
        "offset": 0,
        "slot": "263",
        "type": "t_contract(ICommunity)14890"
      },
      {
        "astId": 14346,
        "contract": "contracts/community/CommunityImplementation.sol:CommunityImplementation",
        "label": "communityAdmin",
        "offset": 0,
        "slot": "264",
        "type": "t_contract(ICommunityAdmin)15216"
      },
      {
        "astId": 14351,
        "contract": "contracts/community/CommunityImplementation.sol:CommunityImplementation",
        "label": "_beneficiaries",
        "offset": 0,
        "slot": "265",
        "type": "t_mapping(t_address,t_struct(Beneficiary)14427_storage)"
      },
      {
        "astId": 14354,
        "contract": "contracts/community/CommunityImplementation.sol:CommunityImplementation",
        "label": "beneficiaryList",
        "offset": 0,
        "slot": "266",
        "type": "t_struct(AddressSet)5505_storage"
      },
      {
        "astId": 14364,
        "contract": "contracts/community/CommunityImplementation.sol:CommunityImplementation",
        "label": "_token",
        "offset": 0,
        "slot": "268",
        "type": "t_contract(IERC20Upgradeable)858"
      },
      {
        "astId": 14367,
        "contract": "contracts/community/CommunityImplementation.sol:CommunityImplementation",
        "label": "maxBeneficiaries",
        "offset": 0,
        "slot": "269",
        "type": "t_uint256"
      },
      {
        "astId": 14379,
        "contract": "contracts/community/CommunityImplementation.sol:CommunityImplementation",
        "label": "tokenUpdates",
        "offset": 0,
        "slot": "270",
        "type": "t_array(t_struct(TokenUpdates)14434_storage)dyn_storage"
      },
      {
        "astId": 14382,
        "contract": "contracts/community/CommunityImplementation.sol:CommunityImplementation",
        "label": "_tokenList",
        "offset": 0,
        "slot": "271",
        "type": "t_struct(AddressSet)5505_storage"
      },
      {
        "astId": 14385,
        "contract": "contracts/community/CommunityImplementation.sol:CommunityImplementation",
        "label": "claimAmount",
        "offset": 0,
        "slot": "273",
        "type": "t_uint256"
      },
      {
        "astId": 14396,
        "contract": "contracts/community/CommunityImplementation.sol:CommunityImplementation",
        "label": "copyOf",
        "offset": 0,
        "slot": "274",
        "type": "t_contract(ICommunity)14890"
      },
      {
        "astId": 14399,
        "contract": "contracts/community/CommunityImplementation.sol:CommunityImplementation",
        "label": "_copies",
        "offset": 0,
        "slot": "275",
        "type": "t_struct(AddressSet)5505_storage"
      }
    ],
    "types": {
      "t_address": {
        "encoding": "inplace",
        "label": "address",
        "numberOfBytes": "20"
      },
      "t_array(t_bytes32)dyn_storage": {
        "base": "t_bytes32",
        "encoding": "dynamic_array",
        "label": "bytes32[]",
        "numberOfBytes": "32"
      },
      "t_array(t_struct(TokenUpdates)14434_storage)dyn_storage": {
        "base": "t_struct(TokenUpdates)14434_storage",
        "encoding": "dynamic_array",
        "label": "struct ICommunity.TokenUpdates[]",
        "numberOfBytes": "32"
      },
      "t_array(t_uint256)49_storage": {
        "base": "t_uint256",
        "encoding": "inplace",
        "label": "uint256[49]",
        "numberOfBytes": "1568"
      },
      "t_array(t_uint256)50_storage": {
        "base": "t_uint256",
        "encoding": "inplace",
        "label": "uint256[50]",
        "numberOfBytes": "1600"
      },
      "t_bool": {
        "encoding": "inplace",
        "label": "bool",
        "numberOfBytes": "1"
      },
      "t_bytes32": {
        "encoding": "inplace",
        "label": "bytes32",
        "numberOfBytes": "32"
      },
      "t_contract(ICommunity)14890": {
        "encoding": "inplace",
        "label": "contract ICommunity",
        "numberOfBytes": "20"
      },
      "t_contract(ICommunityAdmin)15216": {
        "encoding": "inplace",
        "label": "contract ICommunityAdmin",
        "numberOfBytes": "20"
      },
      "t_contract(IERC20Upgradeable)858": {
        "encoding": "inplace",
        "label": "contract IERC20Upgradeable",
        "numberOfBytes": "20"
      },
      "t_enum(BeneficiaryState)14413": {
        "encoding": "inplace",
        "label": "enum ICommunity.BeneficiaryState",
        "numberOfBytes": "1"
      },
      "t_mapping(t_address,t_bool)": {
        "encoding": "mapping",
        "key": "t_address",
        "label": "mapping(address => bool)",
        "numberOfBytes": "32",
        "value": "t_bool"
      },
      "t_mapping(t_address,t_struct(Beneficiary)14427_storage)": {
        "encoding": "mapping",
        "key": "t_address",
        "label": "mapping(address => struct ICommunity.Beneficiary)",
        "numberOfBytes": "32",
        "value": "t_struct(Beneficiary)14427_storage"
      },
      "t_mapping(t_address,t_uint256)": {
        "encoding": "mapping",
        "key": "t_address",
        "label": "mapping(address => uint256)",
        "numberOfBytes": "32",
        "value": "t_uint256"
      },
      "t_mapping(t_bytes32,t_struct(RoleData)43_storage)": {
        "encoding": "mapping",
        "key": "t_bytes32",
        "label": "mapping(bytes32 => struct AccessControlUpgradeable.RoleData)",
        "numberOfBytes": "32",
        "value": "t_struct(RoleData)43_storage"
      },
      "t_mapping(t_bytes32,t_uint256)": {
        "encoding": "mapping",
        "key": "t_bytes32",
        "label": "mapping(bytes32 => uint256)",
        "numberOfBytes": "32",
        "value": "t_uint256"
      },
      "t_struct(AddressSet)5505_storage": {
        "encoding": "inplace",
        "label": "struct EnumerableSet.AddressSet",
        "members": [
          {
            "astId": 5504,
            "contract": "contracts/community/CommunityImplementation.sol:CommunityImplementation",
            "label": "_inner",
            "offset": 0,
            "slot": "0",
            "type": "t_struct(Set)5204_storage"
          }
        ],
        "numberOfBytes": "64"
      },
      "t_struct(Beneficiary)14427_storage": {
        "encoding": "inplace",
        "label": "struct ICommunity.Beneficiary",
        "members": [
          {
            "astId": 14416,
            "contract": "contracts/community/CommunityImplementation.sol:CommunityImplementation",
            "label": "state",
            "offset": 0,
            "slot": "0",
            "type": "t_enum(BeneficiaryState)14413"
          },
          {
            "astId": 14418,
            "contract": "contracts/community/CommunityImplementation.sol:CommunityImplementation",
            "label": "claims",
            "offset": 0,
            "slot": "1",
            "type": "t_uint256"
          },
          {
            "astId": 14420,
            "contract": "contracts/community/CommunityImplementation.sol:CommunityImplementation",
            "label": "claimedAmount",
            "offset": 0,
            "slot": "2",
            "type": "t_uint256"
          },
          {
            "astId": 14422,
            "contract": "contracts/community/CommunityImplementation.sol:CommunityImplementation",
            "label": "lastClaim",
            "offset": 0,
            "slot": "3",
            "type": "t_uint256"
          },
          {
            "astId": 14426,
            "contract": "contracts/community/CommunityImplementation.sol:CommunityImplementation",
            "label": "claimedAmounts",
            "offset": 0,
            "slot": "4",
            "type": "t_mapping(t_address,t_uint256)"
          }
        ],
        "numberOfBytes": "160"
      },
      "t_struct(RoleData)43_storage": {
        "encoding": "inplace",
        "label": "struct AccessControlUpgradeable.RoleData",
        "members": [
          {
            "astId": 40,
            "contract": "contracts/community/CommunityImplementation.sol:CommunityImplementation",
            "label": "members",
            "offset": 0,
            "slot": "0",
            "type": "t_mapping(t_address,t_bool)"
          },
          {
            "astId": 42,
            "contract": "contracts/community/CommunityImplementation.sol:CommunityImplementation",
            "label": "adminRole",
            "offset": 0,
            "slot": "1",
            "type": "t_bytes32"
          }
        ],
        "numberOfBytes": "64"
      },
      "t_struct(Set)5204_storage": {
        "encoding": "inplace",
        "label": "struct EnumerableSet.Set",
        "members": [
          {
            "astId": 5199,
            "contract": "contracts/community/CommunityImplementation.sol:CommunityImplementation",
            "label": "_values",
            "offset": 0,
            "slot": "0",
            "type": "t_array(t_bytes32)dyn_storage"
          },
          {
            "astId": 5203,
            "contract": "contracts/community/CommunityImplementation.sol:CommunityImplementation",
            "label": "_indexes",
            "offset": 0,
            "slot": "1",
            "type": "t_mapping(t_bytes32,t_uint256)"
          }
        ],
        "numberOfBytes": "64"
      },
      "t_struct(TokenUpdates)14434_storage": {
        "encoding": "inplace",
        "label": "struct ICommunity.TokenUpdates",
        "members": [
          {
            "astId": 14429,
            "contract": "contracts/community/CommunityImplementation.sol:CommunityImplementation",
            "label": "tokenAddress",
            "offset": 0,
            "slot": "0",
            "type": "t_address"
          },
          {
            "astId": 14431,
            "contract": "contracts/community/CommunityImplementation.sol:CommunityImplementation",
            "label": "ratio",
            "offset": 0,
            "slot": "1",
            "type": "t_uint256"
          },
          {
            "astId": 14433,
            "contract": "contracts/community/CommunityImplementation.sol:CommunityImplementation",
            "label": "startBlock",
            "offset": 0,
            "slot": "2",
            "type": "t_uint256"
          }
        ],
        "numberOfBytes": "96"
      },
      "t_uint256": {
        "encoding": "inplace",
        "label": "uint256",
        "numberOfBytes": "32"
      }
    }
  }
}