{
  "address": "0x6f31bc09aD126d89F6C4E7fC174458EdcD8b37a4",
  "abi": [
    {
      "anonymous": false,
      "inputs": [
        {
          "indexed": true,
          "internalType": "address",
          "name": "manager",
          "type": "address"
        },
        {
          "indexed": true,
          "internalType": "address",
          "name": "beneficiary",
          "type": "address"
        }
      ],
      "name": "BeneficiaryAdded",
      "type": "event"
    },
    {
      "anonymous": false,
      "inputs": [
        {
          "indexed": true,
          "internalType": "address",
          "name": "beneficiary",
          "type": "address"
        },
        {
          "indexed": false,
          "internalType": "uint256",
          "name": "amount",
          "type": "uint256"
        }
      ],
      "name": "BeneficiaryClaim",
      "type": "event"
    },
    {
      "anonymous": false,
      "inputs": [
        {
          "indexed": true,
          "internalType": "address",
          "name": "beneficiary",
          "type": "address"
        }
      ],
      "name": "BeneficiaryJoined",
      "type": "event"
    },
    {
      "anonymous": false,
      "inputs": [
        {
          "indexed": true,
          "internalType": "address",
          "name": "manager",
          "type": "address"
        },
        {
          "indexed": true,
          "internalType": "address",
          "name": "beneficiary",
          "type": "address"
        }
      ],
      "name": "BeneficiaryLocked",
      "type": "event"
    },
    {
      "anonymous": false,
      "inputs": [
        {
          "indexed": false,
          "internalType": "uint256",
          "name": "oldClaimAmount",
          "type": "uint256"
        },
        {
          "indexed": false,
          "internalType": "uint256",
          "name": "oldMaxClaim",
          "type": "uint256"
        },
        {
          "indexed": false,
          "internalType": "uint256",
          "name": "oldDecreaseStep",
          "type": "uint256"
        },
        {
          "indexed": false,
          "internalType": "uint256",
          "name": "oldBaseInterval",
          "type": "uint256"
        },
        {
          "indexed": false,
          "internalType": "uint256",
          "name": "oldIncrementInterval",
          "type": "uint256"
        },
        {
          "indexed": false,
          "internalType": "uint256",
          "name": "newClaimAmount",
          "type": "uint256"
        },
        {
          "indexed": false,
          "internalType": "uint256",
          "name": "newMaxClaim",
          "type": "uint256"
        },
        {
          "indexed": false,
          "internalType": "uint256",
          "name": "newDecreaseStep",
          "type": "uint256"
        },
        {
          "indexed": false,
          "internalType": "uint256",
          "name": "newBaseInterval",
          "type": "uint256"
        },
        {
          "indexed": false,
          "internalType": "uint256",
          "name": "newIncrementInterval",
          "type": "uint256"
        }
      ],
      "name": "BeneficiaryParamsUpdated",
      "type": "event"
    },
    {
      "anonymous": false,
      "inputs": [
        {
          "indexed": true,
          "internalType": "address",
          "name": "manager",
          "type": "address"
        },
        {
          "indexed": true,
          "internalType": "address",
          "name": "beneficiary",
          "type": "address"
        }
      ],
      "name": "BeneficiaryRemoved",
      "type": "event"
    },
    {
      "anonymous": false,
      "inputs": [
        {
          "indexed": true,
          "internalType": "address",
          "name": "manager",
          "type": "address"
        },
        {
          "indexed": true,
          "internalType": "address",
          "name": "beneficiary",
          "type": "address"
        }
      ],
      "name": "BeneficiaryUnlocked",
      "type": "event"
    },
    {
      "anonymous": false,
      "inputs": [
        {
          "indexed": true,
          "internalType": "address",
          "name": "oldCommunityAdmin",
          "type": "address"
        },
        {
          "indexed": true,
          "internalType": "address",
          "name": "newCommunityAdmin",
          "type": "address"
        }
      ],
      "name": "CommunityAdminUpdated",
      "type": "event"
    },
    {
      "anonymous": false,
      "inputs": [
        {
          "indexed": true,
          "internalType": "address",
          "name": "manager",
          "type": "address"
        }
      ],
      "name": "CommunityLocked",
      "type": "event"
    },
    {
      "anonymous": false,
      "inputs": [
        {
          "indexed": false,
          "internalType": "uint256",
          "name": "oldMinTranche",
          "type": "uint256"
        },
        {
          "indexed": false,
          "internalType": "uint256",
          "name": "oldMaxTranche",
          "type": "uint256"
        },
        {
          "indexed": false,
          "internalType": "uint256",
          "name": "newMinTranche",
          "type": "uint256"
        },
        {
          "indexed": false,
          "internalType": "uint256",
          "name": "newMaxTranche",
          "type": "uint256"
        }
      ],
      "name": "CommunityParamsUpdated",
      "type": "event"
    },
    {
      "anonymous": false,
      "inputs": [
        {
          "indexed": true,
          "internalType": "address",
          "name": "manager",
          "type": "address"
        }
      ],
      "name": "CommunityUnlocked",
      "type": "event"
    },
    {
      "anonymous": false,
      "inputs": [
        {
          "indexed": true,
          "internalType": "address",
          "name": "donor",
          "type": "address"
        },
        {
          "indexed": false,
          "internalType": "uint256",
          "name": "amount",
          "type": "uint256"
        }
      ],
      "name": "Donate",
      "type": "event"
    },
    {
      "anonymous": false,
      "inputs": [
        {
          "indexed": true,
          "internalType": "address",
          "name": "manager",
          "type": "address"
        }
      ],
      "name": "FundsRequested",
      "type": "event"
    },
    {
      "anonymous": false,
      "inputs": [
        {
          "indexed": true,
          "internalType": "address",
          "name": "manager",
          "type": "address"
        },
        {
          "indexed": true,
          "internalType": "address",
          "name": "account",
          "type": "address"
        }
      ],
      "name": "ManagerAdded",
      "type": "event"
    },
    {
      "anonymous": false,
      "inputs": [
        {
          "indexed": true,
          "internalType": "address",
          "name": "manager",
          "type": "address"
        },
        {
          "indexed": true,
          "internalType": "address",
          "name": "account",
          "type": "address"
        }
      ],
      "name": "ManagerRemoved",
      "type": "event"
    },
    {
      "anonymous": false,
      "inputs": [
        {
          "indexed": true,
          "internalType": "address",
          "name": "previousOwner",
          "type": "address"
        },
        {
          "indexed": true,
          "internalType": "address",
          "name": "newOwner",
          "type": "address"
        }
      ],
      "name": "OwnershipTransferred",
      "type": "event"
    },
    {
      "anonymous": false,
      "inputs": [
        {
          "indexed": true,
          "internalType": "address",
          "name": "oldPreviousCommunity",
          "type": "address"
        },
        {
          "indexed": true,
          "internalType": "address",
          "name": "newPreviousCommunity",
          "type": "address"
        }
      ],
      "name": "PreviousCommunityUpdated",
      "type": "event"
    },
    {
      "anonymous": false,
      "inputs": [
        {
          "indexed": true,
          "internalType": "bytes32",
          "name": "role",
          "type": "bytes32"
        },
        {
          "indexed": true,
          "internalType": "bytes32",
          "name": "previousAdminRole",
          "type": "bytes32"
        },
        {
          "indexed": true,
          "internalType": "bytes32",
          "name": "newAdminRole",
          "type": "bytes32"
        }
      ],
      "name": "RoleAdminChanged",
      "type": "event"
    },
    {
      "anonymous": false,
      "inputs": [
        {
          "indexed": true,
          "internalType": "bytes32",
          "name": "role",
          "type": "bytes32"
        },
        {
          "indexed": true,
          "internalType": "address",
          "name": "account",
          "type": "address"
        },
        {
          "indexed": true,
          "internalType": "address",
          "name": "sender",
          "type": "address"
        }
      ],
      "name": "RoleGranted",
      "type": "event"
    },
    {
      "anonymous": false,
      "inputs": [
        {
          "indexed": true,
          "internalType": "bytes32",
          "name": "role",
          "type": "bytes32"
        },
        {
          "indexed": true,
          "internalType": "address",
          "name": "account",
          "type": "address"
        },
        {
          "indexed": true,
          "internalType": "address",
          "name": "sender",
          "type": "address"
        }
      ],
      "name": "RoleRevoked",
      "type": "event"
    },
    {
      "anonymous": false,
      "inputs": [
        {
          "indexed": true,
          "internalType": "address",
          "name": "token",
          "type": "address"
        },
        {
          "indexed": true,
          "internalType": "address",
          "name": "to",
          "type": "address"
        },
        {
          "indexed": false,
          "internalType": "uint256",
          "name": "amount",
          "type": "uint256"
        }
      ],
      "name": "TransferERC20",
      "type": "event"
    },
    {
      "inputs": [],
      "name": "DEFAULT_ADMIN_ROLE",
      "outputs": [
        {
          "internalType": "bytes32",
          "name": "",
          "type": "bytes32"
        }
      ],
      "stateMutability": "view",
      "type": "function"
    },
    {
      "inputs": [],
      "name": "_firstBlockTimestamp",
      "outputs": [
        {
          "internalType": "uint256",
          "name": "",
          "type": "uint256"
        }
      ],
      "stateMutability": "view",
      "type": "function"
    },
    {
      "inputs": [
        {
          "internalType": "address",
          "name": "beneficiaryAddress_",
          "type": "address"
        }
      ],
      "name": "addBeneficiary",
      "outputs": [],
      "stateMutability": "nonpayable",
      "type": "function"
    },
    {
      "inputs": [
        {
          "internalType": "address",
          "name": "account_",
          "type": "address"
        }
      ],
      "name": "addManager",
      "outputs": [],
      "stateMutability": "nonpayable",
      "type": "function"
    },
    {
      "inputs": [
        {
          "internalType": "uint256",
          "name": "amount_",
          "type": "uint256"
        }
      ],
      "name": "addTreasuryFunds",
      "outputs": [],
      "stateMutability": "nonpayable",
      "type": "function"
    },
    {
      "inputs": [],
      "name": "baseInterval",
      "outputs": [
        {
          "internalType": "uint256",
          "name": "",
          "type": "uint256"
        }
      ],
      "stateMutability": "view",
      "type": "function"
    },
    {
      "inputs": [
        {
          "internalType": "address",
          "name": "",
          "type": "address"
        }
      ],
      "name": "beneficiaries",
      "outputs": [
        {
          "internalType": "enum ICommunity.BeneficiaryState",
          "name": "state",
          "type": "uint8"
        },
        {
          "internalType": "uint256",
          "name": "claims",
          "type": "uint256"
        },
        {
          "internalType": "uint256",
          "name": "claimedAmount",
          "type": "uint256"
        },
        {
          "internalType": "uint256",
          "name": "lastClaim",
          "type": "uint256"
        }
      ],
      "stateMutability": "view",
      "type": "function"
    },
    {
      "inputs": [],
      "name": "beneficiaryJoinFromMigrated",
      "outputs": [],
      "stateMutability": "nonpayable",
      "type": "function"
    },
    {
      "inputs": [
        {
          "internalType": "uint256",
          "name": "index_",
          "type": "uint256"
        }
      ],
      "name": "beneficiaryListAt",
      "outputs": [
        {
          "internalType": "address",
          "name": "",
          "type": "address"
        }
      ],
      "stateMutability": "view",
      "type": "function"
    },
    {
      "inputs": [],
      "name": "beneficiaryListLength",
      "outputs": [
        {
          "internalType": "uint256",
          "name": "",
          "type": "uint256"
        }
      ],
      "stateMutability": "view",
      "type": "function"
    },
    {
      "inputs": [],
      "name": "cUSD",
      "outputs": [
        {
          "internalType": "contract IERC20",
          "name": "",
          "type": "address"
        }
      ],
      "stateMutability": "view",
      "type": "function"
    },
    {
      "inputs": [],
      "name": "claim",
      "outputs": [],
      "stateMutability": "nonpayable",
      "type": "function"
    },
    {
      "inputs": [],
      "name": "claimAmount",
      "outputs": [
        {
          "internalType": "uint256",
          "name": "",
          "type": "uint256"
        }
      ],
      "stateMutability": "view",
      "type": "function"
    },
    {
      "inputs": [
        {
          "internalType": "address",
          "name": "beneficiaryAddress_",
          "type": "address"
        }
      ],
      "name": "claimCooldown",
      "outputs": [
        {
          "internalType": "uint256",
          "name": "",
          "type": "uint256"
        }
      ],
      "stateMutability": "view",
      "type": "function"
    },
    {
      "inputs": [],
      "name": "communityAdmin",
      "outputs": [
        {
          "internalType": "contract ICommunityAdmin",
          "name": "",
          "type": "address"
        }
      ],
      "stateMutability": "view",
      "type": "function"
    },
    {
      "inputs": [],
      "name": "decreaseStep",
      "outputs": [
        {
          "internalType": "uint256",
          "name": "",
          "type": "uint256"
        }
      ],
      "stateMutability": "view",
      "type": "function"
    },
    {
      "inputs": [
        {
          "internalType": "address",
          "name": "sender_",
          "type": "address"
        },
        {
          "internalType": "uint256",
          "name": "amount_",
          "type": "uint256"
        }
      ],
      "name": "donate",
      "outputs": [],
      "stateMutability": "nonpayable",
      "type": "function"
    },
    {
      "inputs": [],
      "name": "getInitialMaxClaim",
      "outputs": [
        {
          "internalType": "uint256",
          "name": "",
          "type": "uint256"
        }
      ],
      "stateMutability": "view",
      "type": "function"
    },
    {
      "inputs": [
        {
          "internalType": "bytes32",
          "name": "role",
          "type": "bytes32"
        }
      ],
      "name": "getRoleAdmin",
      "outputs": [
        {
          "internalType": "bytes32",
          "name": "",
          "type": "bytes32"
        }
      ],
      "stateMutability": "view",
      "type": "function"
    },
    {
      "inputs": [],
      "name": "getVersion",
      "outputs": [
        {
          "internalType": "uint256",
          "name": "",
          "type": "uint256"
        }
      ],
      "stateMutability": "pure",
      "type": "function"
    },
    {
      "inputs": [
        {
          "internalType": "bytes32",
          "name": "role",
          "type": "bytes32"
        },
        {
          "internalType": "address",
          "name": "account",
          "type": "address"
        }
      ],
      "name": "grantRole",
      "outputs": [],
      "stateMutability": "nonpayable",
      "type": "function"
    },
    {
      "inputs": [
        {
          "internalType": "bytes32",
          "name": "role",
          "type": "bytes32"
        },
        {
          "internalType": "address",
          "name": "account",
          "type": "address"
        }
      ],
      "name": "hasRole",
      "outputs": [
        {
          "internalType": "bool",
          "name": "",
          "type": "bool"
        }
      ],
      "stateMutability": "view",
      "type": "function"
    },
    {
      "inputs": [],
      "name": "impactMarketAddress",
      "outputs": [
        {
          "internalType": "address",
          "name": "",
          "type": "address"
        }
      ],
      "stateMutability": "pure",
      "type": "function"
    },
    {
      "inputs": [],
      "name": "incrementInterval",
      "outputs": [
        {
          "internalType": "uint256",
          "name": "",
          "type": "uint256"
        }
      ],
      "stateMutability": "view",
      "type": "function"
    },
    {
      "inputs": [
        {
          "internalType": "address[]",
          "name": "managers_",
          "type": "address[]"
        },
        {
          "internalType": "uint256",
          "name": "claimAmount_",
          "type": "uint256"
        },
        {
          "internalType": "uint256",
          "name": "maxClaim_",
          "type": "uint256"
        },
        {
          "internalType": "uint256",
          "name": "decreaseStep_",
          "type": "uint256"
        },
        {
          "internalType": "uint256",
          "name": "baseInterval_",
          "type": "uint256"
        },
        {
          "internalType": "uint256",
          "name": "incrementInterval_",
          "type": "uint256"
        },
        {
          "internalType": "uint256",
          "name": "minTranche_",
          "type": "uint256"
        },
        {
          "internalType": "uint256",
          "name": "maxTranche_",
          "type": "uint256"
        },
        {
          "internalType": "contract ICommunity",
          "name": "previousCommunity_",
          "type": "address"
        }
      ],
      "name": "initialize",
      "outputs": [],
      "stateMutability": "nonpayable",
      "type": "function"
    },
    {
      "inputs": [
        {
          "internalType": "address",
          "name": "beneficiaryAddress_",
          "type": "address"
        }
      ],
      "name": "lastInterval",
      "outputs": [
        {
          "internalType": "uint256",
          "name": "",
          "type": "uint256"
        }
      ],
      "stateMutability": "view",
      "type": "function"
    },
    {
      "inputs": [],
      "name": "lock",
      "outputs": [],
      "stateMutability": "nonpayable",
      "type": "function"
    },
    {
      "inputs": [
        {
          "internalType": "address",
          "name": "beneficiaryAddress_",
          "type": "address"
        }
      ],
      "name": "lockBeneficiary",
      "outputs": [],
      "stateMutability": "nonpayable",
      "type": "function"
    },
    {
      "inputs": [],
      "name": "locked",
      "outputs": [
        {
          "internalType": "bool",
          "name": "",
          "type": "bool"
        }
      ],
      "stateMutability": "view",
      "type": "function"
    },
    {
      "inputs": [],
      "name": "maxClaim",
      "outputs": [
        {
          "internalType": "uint256",
          "name": "",
          "type": "uint256"
        }
      ],
      "stateMutability": "view",
      "type": "function"
    },
    {
      "inputs": [],
      "name": "maxTranche",
      "outputs": [
        {
          "internalType": "uint256",
          "name": "",
          "type": "uint256"
        }
      ],
      "stateMutability": "view",
      "type": "function"
    },
    {
      "inputs": [],
      "name": "minTranche",
      "outputs": [
        {
          "internalType": "uint256",
          "name": "",
          "type": "uint256"
        }
      ],
      "stateMutability": "view",
      "type": "function"
    },
    {
      "inputs": [],
      "name": "owner",
      "outputs": [
        {
          "internalType": "address",
          "name": "",
          "type": "address"
        }
      ],
      "stateMutability": "view",
      "type": "function"
    },
    {
      "inputs": [],
      "name": "previousCommunity",
      "outputs": [
        {
          "internalType": "contract ICommunity",
          "name": "",
          "type": "address"
        }
      ],
      "stateMutability": "view",
      "type": "function"
    },
    {
      "inputs": [],
      "name": "privateFunds",
      "outputs": [
        {
          "internalType": "uint256",
          "name": "",
          "type": "uint256"
        }
      ],
      "stateMutability": "view",
      "type": "function"
    },
    {
      "inputs": [
        {
          "internalType": "address",
          "name": "beneficiaryAddress_",
          "type": "address"
        }
      ],
      "name": "removeBeneficiary",
      "outputs": [],
      "stateMutability": "nonpayable",
      "type": "function"
    },
    {
      "inputs": [
        {
          "internalType": "address",
          "name": "account_",
          "type": "address"
        }
      ],
      "name": "removeManager",
      "outputs": [],
      "stateMutability": "nonpayable",
      "type": "function"
    },
    {
      "inputs": [],
      "name": "renounceOwnership",
      "outputs": [],
      "stateMutability": "nonpayable",
      "type": "function"
    },
    {
      "inputs": [
        {
          "internalType": "bytes32",
          "name": "role",
          "type": "bytes32"
        },
        {
          "internalType": "address",
          "name": "account",
          "type": "address"
        }
      ],
      "name": "renounceRole",
      "outputs": [],
      "stateMutability": "nonpayable",
      "type": "function"
    },
    {
      "inputs": [],
      "name": "requestFunds",
      "outputs": [],
      "stateMutability": "nonpayable",
      "type": "function"
    },
    {
      "inputs": [
        {
          "internalType": "bytes32",
          "name": "role",
          "type": "bytes32"
        },
        {
          "internalType": "address",
          "name": "account",
          "type": "address"
        }
      ],
      "name": "revokeRole",
      "outputs": [],
      "stateMutability": "nonpayable",
      "type": "function"
    },
    {
      "inputs": [
        {
          "internalType": "bytes4",
          "name": "interfaceId",
          "type": "bytes4"
        }
      ],
      "name": "supportsInterface",
      "outputs": [
        {
          "internalType": "bool",
          "name": "",
          "type": "bool"
        }
      ],
      "stateMutability": "view",
      "type": "function"
    },
    {
      "inputs": [
        {
          "internalType": "contract IERC20",
          "name": "token_",
          "type": "address"
        },
        {
          "internalType": "address",
          "name": "to_",
          "type": "address"
        },
        {
          "internalType": "uint256",
          "name": "amount_",
          "type": "uint256"
        }
      ],
      "name": "transfer",
      "outputs": [],
      "stateMutability": "nonpayable",
      "type": "function"
    },
    {
      "inputs": [
        {
          "internalType": "address",
          "name": "newOwner",
          "type": "address"
        }
      ],
      "name": "transferOwnership",
      "outputs": [],
      "stateMutability": "nonpayable",
      "type": "function"
    },
    {
      "inputs": [],
      "name": "treasuryFunds",
      "outputs": [
        {
          "internalType": "uint256",
          "name": "",
          "type": "uint256"
        }
      ],
      "stateMutability": "view",
      "type": "function"
    },
    {
      "inputs": [],
      "name": "unlock",
      "outputs": [],
      "stateMutability": "nonpayable",
      "type": "function"
    },
    {
      "inputs": [
        {
          "internalType": "address",
          "name": "beneficiaryAddress_",
          "type": "address"
        }
      ],
      "name": "unlockBeneficiary",
      "outputs": [],
      "stateMutability": "nonpayable",
      "type": "function"
    },
    {
      "inputs": [
        {
          "internalType": "uint256",
          "name": "claimAmount_",
          "type": "uint256"
        },
        {
          "internalType": "uint256",
          "name": "maxClaim_",
          "type": "uint256"
        },
        {
          "internalType": "uint256",
          "name": "decreaseStep_",
          "type": "uint256"
        },
        {
          "internalType": "uint256",
          "name": "baseInterval_",
          "type": "uint256"
        },
        {
          "internalType": "uint256",
          "name": "incrementInterval_",
          "type": "uint256"
        }
      ],
      "name": "updateBeneficiaryParams",
      "outputs": [],
      "stateMutability": "nonpayable",
      "type": "function"
    },
    {
      "inputs": [
        {
          "internalType": "contract ICommunityAdmin",
          "name": "newCommunityAdmin_",
          "type": "address"
        }
      ],
      "name": "updateCommunityAdmin",
      "outputs": [],
      "stateMutability": "nonpayable",
      "type": "function"
    },
    {
      "inputs": [
        {
          "internalType": "uint256",
          "name": "minTranche_",
          "type": "uint256"
        },
        {
          "internalType": "uint256",
          "name": "maxTranche_",
          "type": "uint256"
        }
      ],
      "name": "updateCommunityParams",
      "outputs": [],
      "stateMutability": "nonpayable",
      "type": "function"
    },
    {
      "inputs": [
        {
          "internalType": "contract ICommunity",
          "name": "newPreviousCommunity_",
          "type": "address"
        }
      ],
      "name": "updatePreviousCommunity",
      "outputs": [],
      "stateMutability": "nonpayable",
      "type": "function"
    },
    {
      "inputs": [],
      "name": "validBeneficiaryCount",
      "outputs": [
        {
          "internalType": "uint256",
          "name": "",
          "type": "uint256"
        }
      ],
      "stateMutability": "view",
      "type": "function"
    }
  ],
  "transactionHash": "0x3fb2779c5d28f75be74ab9e5121d21b7727de9f09d09f7d74cd70f77223d4e45",
  "args": [],
  "solcInputHash": "afcdce682cbb7559134b40b7aecfc117",
  "bytecode": "0x608060405234801561001057600080fd5b50613751806100206000396000f3fe608060405234801561001057600080fd5b506004361061030c5760003560e01c80638da5cb5b1161019d578063c0e27b6b116100e9578063d547741f116100a2578063e69d849d1161007c578063e69d849d14610646578063eb0376b114610659578063f2fde38b14610661578063f83d08ba1461067457600080fd5b8063d547741f1461061f578063d6dbd97214610632578063dd4414bb1461063c57600080fd5b8063c0e27b6b146105c6578063c51fab3c146105d9578063cf309012146105e3578063d10f5107146105f0578063d33d4ec614610603578063d4938db31461061657600080fd5b8063a69df4b511610156578063b026ba5711610130578063b026ba5714610591578063b809ee8214610599578063beabacc8146105ac578063c041fdc5146105bf57600080fd5b8063a69df4b514610563578063a8f3e0631461056b578063ac18de431461057e57600080fd5b80638da5cb5b1461051257806391d14854146105235780639c01a401146105365780639cecf57214610540578063a217fddf14610553578063a67892051461055b57600080fd5b80633a578a0c1161025c5780635fac917a1161021557806378ba280f116101ef57806378ba280f146104db5780637e2959dc146104e35780638278d490146104f6578063830953ab1461050957600080fd5b80635fac917a146104ac578063715018a6146104c0578063785393db146104c857600080fd5b80633a578a0c14610457578063431a801a1461046b5780634e71d92d146104755780635926651d1461047d57806359633a1c14610490578063597be18b146104a357600080fd5b8063248a9ca3116102c95780632d06177a116102a35780632d06177a1461040b5780632f2ff15d1461041e5780632fd791031461043157806336568abe1461044457600080fd5b8063248a9ca3146103d65780632a7eabf6146103f95780632b2711171461040157600080fd5b8063015677391461031157806301ffc9a7146103645780630d8e6e2c146103875780630e5b7c53146103985780631912cdb4146103a15780631fccf672146103b6575b600080fd5b61034b61031f3660046130fa565b61010860205260009081526040902080546001820154600283015460039093015460ff90921692909184565b60405161035b9493929190613493565b60405180910390f35b6103776103723660046132e6565b61067c565b604051901515815260200161035b565b60015b60405190815260200161035b565b61038a60fd5481565b6103b46103af3660046133a7565b6106b3565b005b6103be6107d9565b6040516001600160a01b03909116815260200161035b565b61038a6103e436600461329f565b60009081526065602052604090206001015490565b61038a61085c565b61038a6101055481565b6103b46104193660046130fa565b6108a1565b6103b461042c3660046132b7565b610943565b6103b461043f3660046133c8565b6109b5565b6103b46104523660046132b7565b610b97565b610106546103be906001600160a01b031681565b61038a6101005481565b6103b4610c11565b6103b461048b3660046130fa565b610e5b565b6103b461049e3660046130fa565b610fc9565b61038a60fe5481565b610107546103be906001600160a01b031681565b6103b461110a565b6103be6104d636600461329f565b611140565b61038a61114e565b6103b46104f13660046130fa565b61116f565b6103b461050436600461315d565b6111ec565b61038a60fc5481565b6097546001600160a01b03166103be565b6103776105313660046132b7565b61150e565b61038a6101015481565b61038a61054e3660046130fa565b611539565b61038a600081565b6103b461156b565b6103b4611b2e565b61038a6105793660046130fa565b611b99565b6103b461058c3660046130fa565b611bf6565b6103b4611d9a565b6103b46105a736600461329f565b611e64565b6103b46105ba36600461330e565b611ea9565b60006103be565b6103b46105d43660046130fa565b611f66565b61038a6101035481565b60fb546103779060ff1681565b6103b46105fe3660046130fa565b612077565b6103b46106113660046130fa565b61218a565b61038a60ff5481565b6103b461062d3660046132b7565b612223565b61038a6101025481565b61038a6101045481565b6103b4610654366004613132565b612291565b61038a61232e565b6103b461066f3660046130fa565b61233b565b6103b46123d3565b60006001600160e01b03198216637965db0b60e01b14806106ad57506301ffc9a760e01b6001600160e01b03198316145b92915050565b6097546001600160a01b031633146106e65760405162461bcd60e51b81526004016106dd90613552565b60405180910390fd5b808211156107775760405162461bcd60e51b815260206004820152605260248201527f436f6d6d756e6974793a3a757064617465436f6d6d756e697479506172616d7360448201527f3a206d696e5472616e6368652073686f756c64206e6f742062652067726561746064820152716572207468616e206d61785472616e63686560701b608482015260a4016106dd565b61010480546101058054928590558390556040805182815260208101849052908101859052606081018490529091907fcd922a6f0ad842d84e08eb5df24c029b63c60167fb37cff24adf95c4832e32589060800160405180910390a150505050565b6101075460408051630fe67b3960e11b815290516000926001600160a01b031691631fccf672916004808301926020929190829003018186803b15801561081f57600080fd5b505afa158015610833573d6000803e3d6000fd5b505050506040513d601f19601f820116820180604052508101906108579190613116565b905090565b60004661a4ec14156108715750635ea06a0590565b4661aef314156108845750635f10925490565b4661aef314156108975750635ef3704190565b6108574342613645565b6108b96000805160206136fc8339815191523361150e565b6108d55760405162461bcd60e51b81526004016106dd90613587565b6108ed6000805160206136fc8339815191528261150e565b610940576109096000805160206136fc83398151915282612441565b6040516001600160a01b0382169033907f05a4006f300442cf8b7fdb885f5ee958812020bffb5c5a8e655fde64e5f987ed90600090a35b50565b60405162461bcd60e51b815260206004820152603a60248201527f436f6d6d756e6974793a3a6772616e74526f6c653a20596f7520617265206e6f60448201527f7420616c6c6f7720746f207573652074686973206d6574686f6400000000000060648201526084016106dd565b5050565b6097546001600160a01b031633146109df5760405162461bcd60e51b81526004016106dd90613552565b808211610a685760405162461bcd60e51b815260206004820152604b60248201527f436f6d6d756e6974793a3a636f6e7374727563746f723a2062617365496e746560448201527f7276616c206d7573742062652067726561746572207468616e20696e6372656d60648201526a195b9d125b9d195c9d985b60aa1b608482015260a4016106dd565b848411610ae75760405162461bcd60e51b815260206004820152604160248201527f436f6d6d756e6974793a3a636f6e7374727563746f723a206d6178436c61696d60448201527f206d7573742062652067726561746572207468616e20636c61696d416d6f756e6064820152601d60fa1b608482015260a4016106dd565b60fc805460ff8054610103805460fd805460fe8054988e9055958c9055928a9055889055928690556040805185815260208101849052908101849052606081018290526080810186905260a081018b905260c081018a905260e0810189905261010081018890526101208101879052939491939091907fa19f450cd68c70f728b0c4b75befd202ea5ebb1ae78b6aca47365934b5008750906101400160405180910390a150505050505050505050565b6001600160a01b0381163314610c075760405162461bcd60e51b815260206004820152602f60248201527f416363657373436f6e74726f6c3a2063616e206f6e6c792072656e6f756e636560448201526e103937b632b9903337b91039b2b63360891b60648201526084016106dd565b6109b1828261246c565b6001336000908152610108602052604090205460ff166003811115610c4657634e487b7160e01b600052602160045260246000fd5b14610c935760405162461bcd60e51b815260206004820181905260248201527f436f6d6d756e6974793a204e4f545f56414c49445f42454e454649434941525960448201526064016106dd565b600260c9541415610cb65760405162461bcd60e51b81526004016106dd906135b7565b600260c9553360009081526101086020526040902060fb5460ff1615610d075760405162461bcd60e51b81526020600482015260066024820152651313d0d2d15160d21b60448201526064016106dd565b43610d1133611539565b1115610d5f5760405162461bcd60e51b815260206004820152601960248201527f436f6d6d756e6974793a3a636c61696d3a204e4f545f5945540000000000000060448201526064016106dd565b60ff5460fc548260020154610d7491906135ee565b1115610dc25760405162461bcd60e51b815260206004820152601b60248201527f436f6d6d756e6974793a3a636c61696d3a204d41585f434c41494d000000000060448201526064016106dd565b60fc54816002016000828254610dd891906135ee565b9091555050600181018054906000610def8361369f565b909155505043600382015560fc54610e1b903390610e0b6107d9565b6001600160a01b03169190612534565b60fc5460405190815233907fd54e03b214b3e8c17e98044f98554b6f1b18dd2a3163a2619afea7e9b2a6eb979060200160405180910390a250600160c955565b610e736000805160206136fc8339815191523361150e565b610e8f5760405162461bcd60e51b81526004016106dd90613587565b600260c9541415610eb25760405162461bcd60e51b81526004016106dd906135b7565b600260c9556001600160a01b03811660009081526101086020526040812090815460ff166003811115610ef557634e487b7160e01b600052602160045260246000fd5b14610f585760405162461bcd60e51b815260206004820152602d60248201527f436f6d6d756e6974793a3a61646442656e65666963696172793a2042656e656660448201526c6963696172792065786973747360981b60648201526084016106dd565b610f63816001612597565b436003820155610f7561010983612794565b50610f8a8266b1a2bc2ec50000610e0b6107d9565b6040516001600160a01b0383169033907fbb39c36a7502b7256e1a687254146a9a2ea7b146c77cb9e40eb0e2b8793781e190600090a35050600160c955565b610fe16000805160206136fc8339815191523361150e565b610ffd5760405162461bcd60e51b81526004016106dd90613587565b6001600160a01b0381166000908152610108602052604090206001815460ff16600381111561103c57634e487b7160e01b600052602160045260246000fd5b148061106b57506002815460ff16600381111561106957634e487b7160e01b600052602160045260246000fd5b145b6110c55760405162461bcd60e51b815260206004820152602560248201527f436f6d6d756e6974793a3a72656d6f766542656e65666963696172793a204e4f6044820152641517d6515560da1b60648201526084016106dd565b6110d0816003612597565b6040516001600160a01b0383169033907f1a6590bd0cabbfcc7c86bef99e1034054e179905cfcc294598fcd426c092244290600090a35050565b6097546001600160a01b031633146111345760405162461bcd60e51b81526004016106dd90613552565b61113e60006127a9565b565b60006106ad610109836127fb565b600061010354610100546111629190613626565b60ff5461085791906135ee565b6097546001600160a01b031633146111995760405162461bcd60e51b81526004016106dd90613552565b61010680546001600160a01b038381166001600160a01b0319831681179093556040519116919082907f0d6a84e94da4b619dd0d993b5689ec82db4b1095da99ee0f3e7bb046c647e6ad90600090a35050565b600054610100900460ff1680611205575060005460ff16155b6112215760405162461bcd60e51b81526004016106dd90613504565b600054610100900460ff16158015611243576000805461ffff19166101011790555b8486116112cb5760405162461bcd60e51b815260206004820152604a60248201527f436f6d6d756e6974793a3a696e697469616c697a653a2062617365496e74657260448201527f76616c206d7573742062652067726561746572207468616e20696e6372656d656064820152691b9d125b9d195c9d985b60b21b608482015260a4016106dd565b888811611342576040805162461bcd60e51b81526020600482015260248101919091527f436f6d6d756e6974793a3a696e697469616c697a653a206d6178436c61696d2060448201527f6d7573742062652067726561746572207468616e20636c61696d416d6f756e7460648201526084016106dd565b828411156113c85760405162461bcd60e51b815260206004820152604760248201527f436f6d6d756e6974793a3a696e697469616c697a653a206d696e5472616e636860448201527f652073686f756c64206e6f742062652067726561746572207468616e206d61786064820152665472616e63686560c81b608482015260a4016106dd565b6113d0612807565b6113d861288a565b6113e06128f1565b60fc89905560fd86905560fe85905560ff88905561010484905561010583905561010680546001600160a01b03199081166001600160a01b0385161790915561010780543392168217905561010388905560fb805460ff191690556114449061233b565b61145c6000805160206136fc83398151915280612950565b6114746000805160206136fc8339815191523361299b565b604051339081907f05a4006f300442cf8b7fdb885f5ee958812020bffb5c5a8e655fde64e5f987ed90600090a360005b8a518110156114ef576114dd8b82815181106114d057634e487b7160e01b600052603260045260246000fd5b60200260200101516108a1565b806114e78161369f565b9150506114a4565b508015611502576000805461ff00191690555b50505050505050505050565b60009182526065602090815260408084206001600160a01b0393909316845291905290205460ff1690565b600061154482611b99565b6001600160a01b038316600090815261010860205260409020600301546106ad91906135ee565b3360009081526101086020526040812090815460ff1660038111156115a057634e487b7160e01b600052602160045260246000fd5b146116135760405162461bcd60e51b815260206004820152603a60248201527f436f6d6d756e6974793a3a62656e65666963696172794a6f696e46726f6d4d6960448201527f6772617465643a2042656e65666963696172792065786973747300000000000060648201526084016106dd565b610106546040805163c041fdc560e01b815290516000926001600160a01b03169163c041fdc5916004808301926020929190829003018186803b15801561165957600080fd5b505afa15801561166d573d6000803e3d6000fd5b505050506040513d601f19601f820116820180604052508101906116919190613116565b6001600160a01b031614156117525761010654604051630156773960e01b81523360048201526000918291829182916001600160a01b039091169063015677399060240160806040518083038186803b1580156116ed57600080fd5b505afa158015611701573d6000803e3d6000fd5b505050506040513d601f19601f82011682018060405250810190611725919061334e565b93509350935093506117378585612597565b60018501929092556003840191909155600283015550611af3565b6101065460405163a8f3e06360e01b81523360048201526001600160a01b0390911690600090829063a8f3e06390602401602060405180830381600087803b15801561179d57600080fd5b505af11580156117b1573d6000803e3d6000fd5b505050506040513d601f19601f820116820180604052508101906117d5919061338f565b604051630156773960e01b815233600482015290915061187b9084906001600160a01b03851690630156773990602401602060405180830381600087803b15801561181f57600080fd5b505af1158015611833573d6000803e3d6000fd5b505050506040513d601f19601f82011682018060405250810190611857919061338f565b600381111561187657634e487b7160e01b600052602160045260246000fd5b612597565b604051635911706160e11b81523360048201526000906001600160a01b0384169063b222e0c290602401602060405180830381600087803b1580156118bf57600080fd5b505af11580156118d3573d6000803e3d6000fd5b505050506040513d601f19601f820116820180604052508101906118f7919061338f565b905061190161085c565b61190b90836135ee565b811061194357600561191b61085c565b6119258484613645565b61192f9190613645565b6119399190613606565b600385015561194b565b600060038501555b60405163c884ef8360e01b81523360048201526001600160a01b0384169063c884ef8390602401602060405180830381600087803b15801561198c57600080fd5b505af11580156119a0573d6000803e3d6000fd5b505050506040513d601f19601f820116820180604052508101906119c4919061338f565b84600201819055506000836001600160a01b0316630e5b7c536040518163ffffffff1660e01b8152600401602060405180830381600087803b158015611a0957600080fd5b505af1158015611a1d573d6000803e3d6000fd5b505050506040513d601f19601f82011682018060405250810190611a41919061338f565b9050808310611ae657836001600160a01b031663597be18b6040518163ffffffff1660e01b8152600401602060405180830381600087803b158015611a8557600080fd5b505af1158015611a99573d6000803e3d6000fd5b505050506040513d601f19601f82011682018060405250810190611abd919061338f565b611ac78285613645565b611ad19190613606565b611adc9060016135ee565b6001860155611aee565b600060018601555b505050505b611aff61010933612794565b5060405133907f505fe088fef0d1fb451ccfed842b55a86af1ee6208502f4bc3327dcb9032082990600090a250565b611b466000805160206136fc8339815191523361150e565b611b625760405162461bcd60e51b81526004016106dd90613587565b60fb805460ff1916905560405133907f4e50048c25972c85ad169c2302967f1e633e8dc6108d6aca51a90d2a59d4934d90600090a2565b6001600160a01b0381166000908152610108602052604081206001810154611bc45750600092915050565b60fe5460018260010154611bd89190613645565b611be29190613626565b60fd54611bef91906135ee565b9392505050565b611c0e6000805160206136fc8339815191523361150e565b611c2a5760405162461bcd60e51b81526004016106dd90613587565b611c426000805160206136fc8339815191528261150e565b611cb6576040805162461bcd60e51b81526020600482015260248101919091527f436f6d6d756e6974793a3a72656d6f76654d616e616765723a2054686973206160448201527f63636f756e7420646f65736e27742068617665206d616e6167657220726f6c6560648201526084016106dd565b610107546001600160a01b0382811691161415611d495760405162461bcd60e51b8152602060048201526044602482018190527f436f6d6d756e6974793a3a72656d6f76654d616e616765723a20596f75206172908201527f65206e6f7420616c6c6f7720746f2072656d6f766520636f6d6d756e697479416064820152633236b4b760e11b608482015260a4016106dd565b611d616000805160206136fc833981519152826129a5565b6040516001600160a01b0382169033907f3e902a6ee93dd5b2d48bd1009c7701a481be512b1ef73dbed2f95ea44c59ea8890600090a350565b611db26000805160206136fc8339815191523361150e565b611dce5760405162461bcd60e51b81526004016106dd90613587565b61010760009054906101000a90046001600160a01b03166001600160a01b031663174a71d76040518163ffffffff1660e01b8152600401600060405180830381600087803b158015611e1f57600080fd5b505af1158015611e33573d6000803e3d6000fd5b50506040513392507f16a8b794d4e2ed6ffef50d78af3d4372ce4bfe8a399bfc23f59b7832ee4753909150600090a2565b6097546001600160a01b03163314611e8e5760405162461bcd60e51b81526004016106dd90613552565b806101016000828254611ea191906135ee565b909155505050565b6097546001600160a01b03163314611ed35760405162461bcd60e51b81526004016106dd90613552565b600260c9541415611ef65760405162461bcd60e51b81526004016106dd906135b7565b600260c955611f0f6001600160a01b0384168383612534565b816001600160a01b0316836001600160a01b03167f9b035625e569d1d2bf54830a290aefba7ab11610ba8490871dc62b86b63a895683604051611f5491815260200190565b60405180910390a35050600160c95550565b611f7e6000805160206136fc8339815191523361150e565b611f9a5760405162461bcd60e51b81526004016106dd90613587565b6001600160a01b0381166000908152610108602052604090206001815460ff166003811115611fd957634e487b7160e01b600052602160045260246000fd5b146120325760405162461bcd60e51b815260206004820152602360248201527f436f6d6d756e6974793a3a6c6f636b42656e65666963696172793a204e4f545f60448201526216515560ea1b60648201526084016106dd565b61203d816002612597565b6040516001600160a01b0383169033907f2b9ef93c7856b47a1b624fa3fcc4b651d388dd6d16327f3ad22b05f3da8b0f1590600090a35050565b61208f6000805160206136fc8339815191523361150e565b6120ab5760405162461bcd60e51b81526004016106dd90613587565b6001600160a01b0381166000908152610108602052604090206002815460ff1660038111156120ea57634e487b7160e01b600052602160045260246000fd5b146121455760405162461bcd60e51b815260206004820152602560248201527f436f6d6d756e6974793a3a756e6c6f636b42656e65666963696172793a204e4f6044820152641517d6515560da1b60648201526084016106dd565b612150816001612597565b6040516001600160a01b0383169033907fa589fb4f2925123e7a030dd6bbe76be46a03f8ce0ea53a78dbb3383c7797db2c90600090a35050565b6097546001600160a01b031633146121b45760405162461bcd60e51b81526004016106dd90613552565b61010780546001600160a01b038381166001600160a01b03198316811790935516906121df906108a1565b816001600160a01b0316816001600160a01b03167fdd8d3b7b0badfc5d636d48e71e28015b4b8554b64d2cffba6f0a90bf7693ec0060405160405180910390a35050565b60405162461bcd60e51b815260206004820152603b60248201527f436f6d6d756e6974793a3a7265766f6b65526f6c653a20596f7520617265206e60448201527f6f7420616c6c6f7720746f207573652074686973206d6574686f64000000000060648201526084016106dd565b600260c95414156122b45760405162461bcd60e51b81526004016106dd906135b7565b600260c9556122d88230836122c76107d9565b6001600160a01b03169291906129cb565b8061010260008282546122eb91906135ee565b909155505060405181815233907f0553260a2e46b0577270d8992db02d30856ca880144c72d6e9503760946aef139060200160405180910390a25050600160c955565b6000610857610109612a09565b6097546001600160a01b031633146123655760405162461bcd60e51b81526004016106dd90613552565b6001600160a01b0381166123ca5760405162461bcd60e51b815260206004820152602660248201527f4f776e61626c653a206e6577206f776e657220697320746865207a65726f206160448201526564647265737360d01b60648201526084016106dd565b610940816127a9565b6123eb6000805160206136fc8339815191523361150e565b6124075760405162461bcd60e51b81526004016106dd90613587565b60fb805460ff1916600117905560405133907fe1e6bc10311f2f958d6cd2d0ab7308c32089aa1acb8ab11a2ccb60028e332bd090600090a2565b60008281526065602052604090206001015461245d8133612a13565b6124678383612a77565b505050565b612476828261150e565b6124cd5760405162461bcd60e51b815260206004820152602260248201527f6161616161616161616161616161616161616161616161616161616161616161604482015261616160f01b60648201526084016106dd565b6124d7828261150e565b156109b15760008281526065602090815260408083206001600160a01b0385168085529252808320805460ff1916905551339285917ff6391f5c32d9c69d2a47ea670b442974b53935d1edc7fd64eb21e047a839171b9190a45050565b6040516001600160a01b03831660248201526044810182905261246790849063a9059cbb60e01b906064015b60408051601f198184030181529190526020810180516001600160e01b03166001600160e01b031990931692909217909152612afd565b8060038111156125b757634e487b7160e01b600052602160045260246000fd5b825460ff1660038111156125db57634e487b7160e01b600052602160045260246000fd5b14156125e5575050565b600181600381111561260757634e487b7160e01b600052602160045260246000fd5b14156127025760fc546101035460ff546126219190613645565b10156126cc5760405162461bcd60e51b815260206004820152606860248201527f436f6d6d756e6974793a3a5f6368616e676542656e656669636961727953746160448201527f74653a205468697320636f6d6d756e697479206861732072656163686564207460648201527f6865206d6178696d756d206e756d626572206f662076616c69642062656e6566608482015267696369617269657360c01b60a482015260c4016106dd565b61010080549060006126dd8361369f565b91905055506101035460ff60008282546126f79190613645565b9091555061275f9050565b6001825460ff16600381111561272857634e487b7160e01b600052602160045260246000fd5b141561275f57610100805490600061273f83613688565b91905055506101035460ff600082825461275991906135ee565b90915550505b81548190839060ff1916600183600381111561278b57634e487b7160e01b600052602160045260246000fd5b02179055505050565b6000611bef836001600160a01b038416612bcf565b609780546001600160a01b038381166001600160a01b0319831681179093556040519116919082907f8be0079c531659141344cd1fd0a4f28419497f9722a3daafe3b4186f6b6457e090600090a35050565b6000611bef8383612c1e565b600054610100900460ff1680612820575060005460ff16155b61283c5760405162461bcd60e51b81526004016106dd90613504565b600054610100900460ff1615801561285e576000805461ffff19166101011790555b612866612c56565b61286e612c56565b612876612c56565b8015610940576000805461ff001916905550565b600054610100900460ff16806128a3575060005460ff16155b6128bf5760405162461bcd60e51b81526004016106dd90613504565b600054610100900460ff161580156128e1576000805461ffff19166101011790555b6128e9612c56565b612876612cc0565b600054610100900460ff168061290a575060005460ff16155b6129265760405162461bcd60e51b81526004016106dd90613504565b600054610100900460ff16158015612948576000805461ffff19166101011790555b612876612d20565b600082815260656020526040808220600101805490849055905190918391839186917fbd79b86ffe0ab8e8776151514217cd7cacd52c909f66475c3af44e129f0b00ff9190a4505050565b6109b18282612a77565b6000828152606560205260409020600101546129c18133612a13565b612467838361246c565b6040516001600160a01b0380851660248301528316604482015260648101829052612a039085906323b872dd60e01b90608401612560565b50505050565b60006106ad825490565b612a1d828261150e565b6109b157612a35816001600160a01b03166014612d90565b612a40836020612d90565b604051602001612a5192919061341e565b60408051601f198184030181529082905262461bcd60e51b82526106dd916004016134d1565b612a81828261150e565b6109b15760008281526065602090815260408083206001600160a01b03851684529091529020805460ff19166001179055612ab93390565b6001600160a01b0316816001600160a01b0316837f2f8788117e7eff1d82e926ec794901d17c78024a50270940304540a733656f0d60405160405180910390a45050565b6000612b52826040518060400160405280602081526020017f5361666545524332303a206c6f772d6c6576656c2063616c6c206661696c6564815250856001600160a01b0316612f729092919063ffffffff16565b8051909150156124675780806020019051810190612b70919061327f565b6124675760405162461bcd60e51b815260206004820152602a60248201527f5361666545524332303a204552433230206f7065726174696f6e20646964206e6044820152691bdd081cdd58d8d9595960b21b60648201526084016106dd565b6000818152600183016020526040812054612c16575081546001818101845560008481526020808220909301849055845484825282860190935260409020919091556106ad565b5060006106ad565b6000826000018281548110612c4357634e487b7160e01b600052603260045260246000fd5b9060005260206000200154905092915050565b600054610100900460ff1680612c6f575060005460ff16155b612c8b5760405162461bcd60e51b81526004016106dd90613504565b600054610100900460ff16158015612876576000805461ffff19166101011790558015610940576000805461ff001916905550565b600054610100900460ff1680612cd9575060005460ff16155b612cf55760405162461bcd60e51b81526004016106dd90613504565b600054610100900460ff16158015612d17576000805461ffff19166101011790555b612876336127a9565b600054610100900460ff1680612d39575060005460ff16155b612d555760405162461bcd60e51b81526004016106dd90613504565b600054610100900460ff16158015612d77576000805461ffff19166101011790555b600160c9558015610940576000805461ff001916905550565b60606000612d9f836002613626565b612daa9060026135ee565b67ffffffffffffffff811115612dd057634e487b7160e01b600052604160045260246000fd5b6040519080825280601f01601f191660200182016040528015612dfa576020820181803683370190505b509050600360fc1b81600081518110612e2357634e487b7160e01b600052603260045260246000fd5b60200101906001600160f81b031916908160001a905350600f60fb1b81600181518110612e6057634e487b7160e01b600052603260045260246000fd5b60200101906001600160f81b031916908160001a9053506000612e84846002613626565b612e8f9060016135ee565b90505b6001811115612f23576f181899199a1a9b1b9c1cb0b131b232b360811b85600f1660108110612ed157634e487b7160e01b600052603260045260246000fd5b1a60f81b828281518110612ef557634e487b7160e01b600052603260045260246000fd5b60200101906001600160f81b031916908160001a90535060049490941c93612f1c81613688565b9050612e92565b508315611bef5760405162461bcd60e51b815260206004820181905260248201527f537472696e67733a20686578206c656e67746820696e73756666696369656e7460448201526064016106dd565b6060612f818484600085612f89565b949350505050565b606082471015612fea5760405162461bcd60e51b815260206004820152602660248201527f416464726573733a20696e73756666696369656e742062616c616e636520666f6044820152651c8818d85b1b60d21b60648201526084016106dd565b843b6130385760405162461bcd60e51b815260206004820152601d60248201527f416464726573733a2063616c6c20746f206e6f6e2d636f6e747261637400000060448201526064016106dd565b600080866001600160a01b031685876040516130549190613402565b60006040518083038185875af1925050503d8060008114613091576040519150601f19603f3d011682016040523d82523d6000602084013e613096565b606091505b50915091506130a68282866130b1565b979650505050505050565b606083156130c0575081611bef565b8251156130d05782518084602001fd5b8160405162461bcd60e51b81526004016106dd91906134d1565b80356130f5816136e6565b919050565b60006020828403121561310b578081fd5b8135611bef816136e6565b600060208284031215613127578081fd5b8151611bef816136e6565b60008060408385031215613144578081fd5b823561314f816136e6565b946020939093013593505050565b60008060008060008060008060006101208a8c03121561317b578485fd5b67ffffffffffffffff808b351115613191578586fd5b8a358b018c601f8201126131a3578687fd5b8035828111156131b5576131b56136d0565b604051601f19603f8360051b0116810181811085821117156131d9576131d96136d0565b8060405250809350818152602081019350602083018f60208460051b860101111561320257898afd5b8993505b8284101561322c57613217816130ea565b85526020948501946001949094019301613206565b509b5050505060208a0135975060408a0135965060608a0135955060808a0135945060a08a0135935060c08a0135925060e08a013591506132706101008b016130ea565b90509295985092959850929598565b600060208284031215613290578081fd5b81518015158114611bef578182fd5b6000602082840312156132b0578081fd5b5035919050565b600080604083850312156132c9578182fd5b8235915060208301356132db816136e6565b809150509250929050565b6000602082840312156132f7578081fd5b81356001600160e01b031981168114611bef578182fd5b600080600060608486031215613322578283fd5b833561332d816136e6565b9250602084013561333d816136e6565b929592945050506040919091013590565b60008060008060808587031215613363578182fd5b845160048110613371578283fd5b60208601516040870151606090970151919890975090945092505050565b6000602082840312156133a0578081fd5b5051919050565b600080604083850312156133b9578182fd5b50508035926020909101359150565b600080600080600060a086880312156133df578283fd5b505083359560208501359550604085013594606081013594506080013592509050565b6000825161341481846020870161365c565b9190910192915050565b7f416363657373436f6e74726f6c3a206163636f756e742000000000000000000081526000835161345681601785016020880161365c565b7001034b99036b4b9b9b4b733903937b6329607d1b601791840191820152835161348781602884016020880161365c565b01602801949350505050565b60808101600486106134b557634e487b7160e01b600052602160045260246000fd5b9481526020810193909352604083019190915260609091015290565b60208152600082518060208401526134f081604085016020870161365c565b601f01601f19169190910160400192915050565b6020808252602e908201527f496e697469616c697a61626c653a20636f6e747261637420697320616c72656160408201526d191e481a5b9a5d1a585b1a5e995960921b606082015260800190565b6020808252818101527f4f776e61626c653a2063616c6c6572206973206e6f7420746865206f776e6572604082015260600190565b60208082526016908201527521b7b6b6bab734ba3c9d102727aa2fa6a0a720a3a2a960511b604082015260600190565b6020808252601f908201527f5265656e7472616e637947756172643a207265656e7472616e742063616c6c00604082015260600190565b60008219821115613601576136016136ba565b500190565b60008261362157634e487b7160e01b81526012600452602481fd5b500490565b6000816000190483118215151615613640576136406136ba565b500290565b600082821015613657576136576136ba565b500390565b60005b8381101561367757818101518382015260200161365f565b83811115612a035750506000910152565b600081613697576136976136ba565b506000190190565b60006000198214156136b3576136b36136ba565b5060010190565b634e487b7160e01b600052601160045260246000fd5b634e487b7160e01b600052604160045260246000fd5b6001600160a01b038116811461094057600080fdfe241ecf16d79d0f8dbfb92cbc07fe17840425976cf0667f022fe9877caa831b08a26469706673582212207e3ca00db92a0ec67d3ededc62e2bd6f623b9cbe31649371e8bfe601bd33328e64736f6c63430008040033",
  "devdoc": {
    "events": {
      "BeneficiaryAdded(address,address)": {
        "params": {
          "beneficiary": "Address of the beneficiary that has been added",
          "manager": "Address of the manager that triggered the event"
        }
      },
      "BeneficiaryClaim(address,uint256)": {
        "params": {
          "amount": "Amount of the claim",
          "beneficiary": "Address of the beneficiary that has claimed"
        }
      },
      "BeneficiaryJoined(address)": {
        "params": {
          "beneficiary": "Address of the beneficiary"
        }
      },
      "BeneficiaryLocked(address,address)": {
        "params": {
          "beneficiary": "Address of the beneficiary that has been locked",
          "manager": "Address of the manager that triggered the event"
        }
      },
      "BeneficiaryParamsUpdated(uint256,uint256,uint256,uint256,uint256,uint256,uint256,uint256,uint256,uint256)": {
        "params": {
          "newBaseInterval": "New baseInterval value",
          "newClaimAmount": "New claimAmount value",
          "newDecreaseStep": "New decreaseStep value",
          "newIncrementInterval": "New incrementInterval value For further information regarding each parameter, see *Community* smart contract initialize method.",
          "newMaxClaim": "New maxClaim value",
          "oldBaseInterval": "Old baseInterval value",
          "oldClaimAmount": "Old claimAmount value",
          "oldDecreaseStep": "Old decreaseStep value",
          "oldIncrementInterval": "Old incrementInterval value",
          "oldMaxClaim": "Old maxClaim value"
        }
      },
      "BeneficiaryRemoved(address,address)": {
        "params": {
          "beneficiary": "Address of the beneficiary that has been removed",
          "manager": "Address of the manager that triggered the event"
        }
      },
      "BeneficiaryUnlocked(address,address)": {
        "params": {
          "beneficiary": "Address of the beneficiary that has been unlocked",
          "manager": "Address of the manager that triggered the event"
        }
      },
      "CommunityAdminUpdated(address,address)": {
        "params": {
          "newCommunityAdmin": "New communityAdmin address",
          "oldCommunityAdmin": "Old communityAdmin address"
        }
      },
      "CommunityLocked(address)": {
        "params": {
          "manager": "Address of the manager that triggered the event"
        }
      },
      "CommunityParamsUpdated(uint256,uint256,uint256,uint256)": {
        "params": {
          "newMaxTranche": "New maxTranche value For further information regarding each parameter, see *Community* smart contract initialize method.",
          "newMinTranche": "New minTranche value",
          "oldMaxTranche": "Old maxTranche value",
          "oldMinTranche": "Old minTranche value"
        }
      },
      "CommunityUnlocked(address)": {
        "params": {
          "manager": "Address of the manager that triggered the event"
        }
      },
      "Donate(address,uint256)": {
        "params": {
          "amount": "Amount of the donation",
          "donor": "Address of the donor"
        }
      },
      "FundsRequested(address)": {
        "params": {
          "manager": "Address of the manager that triggered the event"
        }
      },
      "ManagerAdded(address,address)": {
        "params": {
          "account": "Address of the manager that has been added",
          "manager": "Address of the manager that triggered the event                          or address of the CommunityAdmin if it's first manager"
        }
      },
      "ManagerRemoved(address,address)": {
        "params": {
          "account": "Address of the manager that has been removed",
          "manager": "Address of the manager that triggered the event"
        }
      },
      "PreviousCommunityUpdated(address,address)": {
        "params": {
          "newPreviousCommunity": "New previousCommunity address",
          "oldPreviousCommunity": "Old previousCommunity address"
        }
      },
      "TransferERC20(address,address,uint256)": {
        "params": {
          "amount": "Amount of the transaction",
          "to": "Address of the receiver",
          "token": "ERC20 token address"
        }
      }
    },
    "kind": "dev",
    "methods": {
      "addBeneficiary(address)": {
        "params": {
          "beneficiaryAddress_": "address of the beneficiary to be added"
        }
      },
      "addManager(address)": {
        "params": {
          "account_": "address of the manager to be added"
        }
      },
      "addTreasuryFunds(uint256)": {
        "params": {
          "amount_": "amount to be added to treasuryFunds"
        }
      },
      "beneficiaryListAt(uint256)": {
        "params": {
          "index_": "index value"
        },
        "returns": {
          "_0": "address of the beneficiary"
        }
      },
      "claim()": {
        "details": "Transfers cUSD to a valid beneficiary"
      },
      "claimCooldown(address)": {
        "params": {
          "beneficiaryAddress_": "address of the beneficiary"
        },
        "returns": {
          "_0": "uint256 number of block when the beneficiary can claim"
        }
      },
      "donate(address,uint256)": {
        "params": {
          "amount_": "amount to be donated",
          "sender_": "address of the sender"
        }
      },
      "getRoleAdmin(bytes32)": {
        "details": "Returns the admin role that controls `role`. See {grantRole} and {revokeRole}. To change a role's admin, use {_setRoleAdmin}."
      },
      "hasRole(bytes32,address)": {
        "details": "Returns `true` if `account` has been granted `role`."
      },
      "initialize(address[],uint256,uint256,uint256,uint256,uint256,uint256,uint256,address)": {
        "params": {
          "baseInterval_": "Base interval to start claiming",
          "claimAmount_": "Base amount to be claim by the beneficiary",
          "decreaseStep_": "Value decreased from maxClaim each time a beneficiary is added",
          "incrementInterval_": "Increment interval used in each claim",
          "managers_": "Community's initial managers.                             Will be able to add others",
          "maxClaim_": "Limit that a beneficiary can claim in total",
          "maxTranche_": "Maximum amount that the community will receive when requesting funds",
          "minTranche_": "Minimum amount that the community will receive when requesting funds",
          "previousCommunity_": "Previous smart contract address of community"
        }
      },
      "lastInterval(address)": {
        "params": {
          "beneficiaryAddress_": "address of the beneficiary"
        },
        "returns": {
          "_0": "uint256 number of blocks for the lastInterval"
        }
      },
      "lockBeneficiary(address)": {
        "params": {
          "beneficiaryAddress_": "address of the beneficiary to be locked"
        }
      },
      "owner()": {
        "details": "Returns the address of the current owner."
      },
      "removeBeneficiary(address)": {
        "params": {
          "beneficiaryAddress_": "address of the beneficiary to be removed"
        }
      },
      "removeManager(address)": {
        "params": {
          "account_": "address of the manager to be removed"
        }
      },
      "renounceOwnership()": {
        "details": "Leaves the contract without owner. It will not be possible to call `onlyOwner` functions anymore. Can only be called by the current owner. NOTE: Renouncing ownership will leave the contract without an owner, thereby removing any functionality that is only available to the owner."
      },
      "renounceRole(bytes32,address)": {
        "details": "Revokes `role` from the calling account. Roles are often managed via {grantRole} and {revokeRole}: this function's purpose is to provide a mechanism for accounts to lose their privileges if they are compromised (such as when a trusted device is misplaced). If the calling account had been granted `role`, emits a {RoleRevoked} event. Requirements: - the caller must be `account`."
      },
      "supportsInterface(bytes4)": {
        "details": "See {IERC165-supportsInterface}."
      },
      "transfer(address,address,uint256)": {
        "params": {
          "amount_": "amount of the transaction",
          "to_": "address of the receiver",
          "token_": "address of the ERC20 token"
        }
      },
      "transferOwnership(address)": {
        "details": "Transfers ownership of the contract to a new account (`newOwner`). Can only be called by the current owner."
      },
      "unlockBeneficiary(address)": {
        "params": {
          "beneficiaryAddress_": "address of the beneficiary to be unlocked"
        }
      },
      "updateBeneficiaryParams(uint256,uint256,uint256,uint256,uint256)": {
        "params": {
          "baseInterval_": "base interval to start claiming",
          "claimAmount_": "base amount to be claim by the beneficiary",
          "decreaseStep_": "value decreased from maxClaim each time a is beneficiary added",
          "incrementInterval_": "increment interval used in each claim",
          "maxClaim_": "limit that a beneficiary can claim  in total"
        }
      },
      "updateCommunityAdmin(address)": {
        "params": {
          "newCommunityAdmin_": "address of the new communityAdmin"
        }
      },
      "updateCommunityParams(uint256,uint256)": {
        "params": {
          "maxTranche_": "maximum amount that the community will receive when requesting funds",
          "minTranche_": "minimum amount that the community will receive when requesting funds"
        }
      },
      "updatePreviousCommunity(address)": {
        "params": {
          "newPreviousCommunity_": "address of the new previousCommunity"
        }
      }
    },
    "version": 1
  },
  "userdoc": {
    "events": {
      "BeneficiaryAdded(address,address)": {
        "notice": "Triggered when a beneficiary has been added"
      },
      "BeneficiaryClaim(address,uint256)": {
        "notice": "Triggered when a beneficiary has claimed"
      },
      "BeneficiaryJoined(address)": {
        "notice": "Triggered when a beneficiary from previous community has joined in the current community"
      },
      "BeneficiaryLocked(address,address)": {
        "notice": "Triggered when a beneficiary has been locked"
      },
      "BeneficiaryParamsUpdated(uint256,uint256,uint256,uint256,uint256,uint256,uint256,uint256,uint256,uint256)": {
        "notice": "Triggered when beneficiary params has been updated"
      },
      "BeneficiaryRemoved(address,address)": {
        "notice": "Triggered when a beneficiary has been removed"
      },
      "BeneficiaryUnlocked(address,address)": {
        "notice": "Triggered when a beneficiary has been unlocked"
      },
      "CommunityAdminUpdated(address,address)": {
        "notice": "Triggered when communityAdmin has been updated"
      },
      "CommunityLocked(address)": {
        "notice": "Triggered when a community has been locked"
      },
      "CommunityParamsUpdated(uint256,uint256,uint256,uint256)": {
        "notice": "Triggered when community params has been updated"
      },
      "CommunityUnlocked(address)": {
        "notice": "Triggered when a community has been unlocked"
      },
      "Donate(address,uint256)": {
        "notice": "Triggered when someone has donated cUSD"
      },
      "FundsRequested(address)": {
        "notice": "Triggered when a manager has requested funds for community"
      },
      "ManagerAdded(address,address)": {
        "notice": "Triggered when a manager has been added"
      },
      "ManagerRemoved(address,address)": {
        "notice": "Triggered when a manager has been removed"
      },
      "PreviousCommunityUpdated(address,address)": {
        "notice": "Triggered when previousCommunity has been updated"
      },
      "TransferERC20(address,address,uint256)": {
        "notice": "Triggered when an amount of an ERC20 has been transferred from this contract to an address"
      }
    },
    "kind": "user",
    "methods": {
      "addBeneficiary(address)": {
        "notice": "Adds a new beneficiary"
      },
      "addManager(address)": {
        "notice": "Adds a new manager"
      },
      "addTreasuryFunds(uint256)": {
        "notice": "Increases the treasuryFunds value Used by communityAdmin after an amount of cUSD are sent from the treasury"
      },
      "beneficiaryJoinFromMigrated()": {
        "notice": "Allows a beneficiary from the previousCommunity to join in this community"
      },
      "beneficiaryListAt(uint256)": {
        "notice": "Returns an address from the beneficiaryList"
      },
      "beneficiaryListLength()": {
        "notice": "Returns the length of the beneficiaryList"
      },
      "cUSD()": {
        "notice": "Returns the cUSD contract address"
      },
      "claimCooldown(address)": {
        "notice": "Returns the block number when a beneficiary can claim again"
      },
      "donate(address,uint256)": {
        "notice": "Transfers cUSDs from donor to this community Used by donationToCommunity method from DonationMiner contract"
      },
      "getInitialMaxClaim()": {
        "notice": "Returns the initial maxClaim"
      },
      "getVersion()": {
        "notice": "Returns the current implementation version"
      },
      "grantRole(bytes32,address)": {
        "notice": "Enforces managers to use addManager method"
      },
      "impactMarketAddress()": {
        "notice": "Returns the 0 address only used for backwards compatibility"
      },
      "initialize(address[],uint256,uint256,uint256,uint256,uint256,uint256,uint256,address)": {
        "notice": "Used to initialize a new Community contract"
      },
      "lastInterval(address)": {
        "notice": "Returns the number of blocks that a beneficiary have to wait between claims"
      },
      "lock()": {
        "notice": "Locks the community claims"
      },
      "lockBeneficiary(address)": {
        "notice": "Locks a valid beneficiary"
      },
      "removeBeneficiary(address)": {
        "notice": "Remove an existing beneficiary"
      },
      "removeManager(address)": {
        "notice": "Remove an existing manager"
      },
      "requestFunds()": {
        "notice": "Requests treasury funds from the communityAdmin"
      },
      "revokeRole(bytes32,address)": {
        "notice": "Enforces managers to use removeManager method"
      },
      "transfer(address,address,uint256)": {
        "notice": "Transfers an amount of an ERC20 from this contract to an address"
      },
      "unlock()": {
        "notice": "Unlocks the community claims"
      },
      "unlockBeneficiary(address)": {
        "notice": "Unlocks a locked beneficiary"
      },
      "updateBeneficiaryParams(uint256,uint256,uint256,uint256,uint256)": {
        "notice": "Updates beneficiary params"
      },
      "updateCommunityAdmin(address)": {
        "notice": "Updates the address of the communityAdmin"
      },
      "updateCommunityParams(uint256,uint256)": {
        "notice": "Updates params of a community"
      },
      "updatePreviousCommunity(address)": {
        "notice": "Updates the address of the previousCommunity"
      }
    },
    "notice": "Welcome to the Community contract. For each community there will be one proxy contract deployed by CommunityAdmin. The implementation of the proxy is this contract. This enable us to save tokens on the contract itself, and avoid the problems of having everything in one single contract. Each community has it's own members and and managers.",
    "version": 1
  },
  "storageLayout": {
    "storage": [
      {
        "astId": 546,
        "contract": "contracts/community/Community.sol:Community",
        "label": "_initialized",
        "offset": 0,
        "slot": "0",
        "type": "t_bool"
      },
      {
        "astId": 549,
        "contract": "contracts/community/Community.sol:Community",
        "label": "_initializing",
        "offset": 1,
        "slot": "0",
        "type": "t_bool"
      },
      {
        "astId": 800,
        "contract": "contracts/community/Community.sol:Community",
        "label": "__gap",
        "offset": 0,
        "slot": "1",
        "type": "t_array(t_uint256)50_storage"
      },
      {
        "astId": 1049,
        "contract": "contracts/community/Community.sol:Community",
        "label": "__gap",
        "offset": 0,
        "slot": "51",
        "type": "t_array(t_uint256)50_storage"
      },
      {
        "astId": 48,
        "contract": "contracts/community/Community.sol:Community",
        "label": "_roles",
        "offset": 0,
        "slot": "101",
        "type": "t_mapping(t_bytes32,t_struct(RoleData)43_storage)"
      },
      {
        "astId": 341,
        "contract": "contracts/community/Community.sol:Community",
        "label": "__gap",
        "offset": 0,
        "slot": "102",
        "type": "t_array(t_uint256)49_storage"
      },
      {
        "astId": 426,
        "contract": "contracts/community/Community.sol:Community",
        "label": "_owner",
        "offset": 0,
        "slot": "151",
        "type": "t_address"
      },
      {
        "astId": 539,
        "contract": "contracts/community/Community.sol:Community",
        "label": "__gap",
        "offset": 0,
        "slot": "152",
        "type": "t_array(t_uint256)49_storage"
      },
      {
        "astId": 713,
        "contract": "contracts/community/Community.sol:Community",
        "label": "_status",
        "offset": 0,
        "slot": "201",
        "type": "t_uint256"
      },
      {
        "astId": 756,
        "contract": "contracts/community/Community.sol:Community",
        "label": "__gap",
        "offset": 0,
        "slot": "202",
        "type": "t_array(t_uint256)49_storage"
      },
      {
        "astId": 9617,
        "contract": "contracts/community/Community.sol:Community",
        "label": "locked",
        "offset": 0,
        "slot": "251",
        "type": "t_bool"
      },
      {
        "astId": 9620,
        "contract": "contracts/community/Community.sol:Community",
        "label": "claimAmount",
        "offset": 0,
        "slot": "252",
        "type": "t_uint256"
      },
      {
        "astId": 9623,
        "contract": "contracts/community/Community.sol:Community",
        "label": "baseInterval",
        "offset": 0,
        "slot": "253",
        "type": "t_uint256"
      },
      {
        "astId": 9626,
        "contract": "contracts/community/Community.sol:Community",
        "label": "incrementInterval",
        "offset": 0,
        "slot": "254",
        "type": "t_uint256"
      },
      {
        "astId": 9629,
        "contract": "contracts/community/Community.sol:Community",
        "label": "maxClaim",
        "offset": 0,
        "slot": "255",
        "type": "t_uint256"
      },
      {
        "astId": 9632,
        "contract": "contracts/community/Community.sol:Community",
        "label": "validBeneficiaryCount",
        "offset": 0,
        "slot": "256",
        "type": "t_uint256"
      },
      {
        "astId": 9635,
        "contract": "contracts/community/Community.sol:Community",
        "label": "treasuryFunds",
        "offset": 0,
        "slot": "257",
        "type": "t_uint256"
      },
      {
        "astId": 9638,
        "contract": "contracts/community/Community.sol:Community",
        "label": "privateFunds",
        "offset": 0,
        "slot": "258",
        "type": "t_uint256"
      },
      {
        "astId": 9641,
        "contract": "contracts/community/Community.sol:Community",
        "label": "decreaseStep",
        "offset": 0,
        "slot": "259",
        "type": "t_uint256"
      },
      {
        "astId": 9644,
        "contract": "contracts/community/Community.sol:Community",
        "label": "minTranche",
        "offset": 0,
        "slot": "260",
        "type": "t_uint256"
      },
      {
        "astId": 9647,
        "contract": "contracts/community/Community.sol:Community",
        "label": "maxTranche",
        "offset": 0,
        "slot": "261",
        "type": "t_uint256"
      },
      {
        "astId": 9651,
        "contract": "contracts/community/Community.sol:Community",
        "label": "previousCommunity",
        "offset": 0,
        "slot": "262",
        "type": "t_contract(ICommunity)9913"
      },
      {
        "astId": 9655,
        "contract": "contracts/community/Community.sol:Community",
        "label": "communityAdmin",
        "offset": 0,
        "slot": "263",
        "type": "t_contract(ICommunityAdmin)10088"
      },
      {
        "astId": 9661,
        "contract": "contracts/community/Community.sol:Community",
        "label": "beneficiaries",
        "offset": 0,
        "slot": "264",
        "type": "t_mapping(t_address,t_struct(Beneficiary)9685_storage)"
      },
      {
        "astId": 9664,
        "contract": "contracts/community/Community.sol:Community",
        "label": "beneficiaryList",
        "offset": 0,
        "slot": "265",
        "type": "t_struct(AddressSet)5070_storage"
      }
    ],
    "types": {
      "t_address": {
        "encoding": "inplace",
        "label": "address",
        "numberOfBytes": "20"
      },
      "t_array(t_bytes32)dyn_storage": {
        "base": "t_bytes32",
        "encoding": "dynamic_array",
        "label": "bytes32[]",
        "numberOfBytes": "32"
      },
      "t_array(t_uint256)49_storage": {
        "base": "t_uint256",
        "encoding": "inplace",
        "label": "uint256[49]",
        "numberOfBytes": "1568"
      },
      "t_array(t_uint256)50_storage": {
        "base": "t_uint256",
        "encoding": "inplace",
        "label": "uint256[50]",
        "numberOfBytes": "1600"
      },
      "t_bool": {
        "encoding": "inplace",
        "label": "bool",
        "numberOfBytes": "1"
      },
      "t_bytes32": {
        "encoding": "inplace",
        "label": "bytes32",
        "numberOfBytes": "32"
      },
      "t_contract(ICommunity)9913": {
        "encoding": "inplace",
        "label": "contract ICommunity",
        "numberOfBytes": "20"
      },
      "t_contract(ICommunityAdmin)10088": {
        "encoding": "inplace",
        "label": "contract ICommunityAdmin",
        "numberOfBytes": "20"
      },
      "t_enum(BeneficiaryState)9675": {
        "encoding": "inplace",
        "label": "enum ICommunity.BeneficiaryState",
        "numberOfBytes": "1"
      },
      "t_mapping(t_address,t_bool)": {
        "encoding": "mapping",
        "key": "t_address",
        "label": "mapping(address => bool)",
        "numberOfBytes": "32",
        "value": "t_bool"
      },
      "t_mapping(t_address,t_struct(Beneficiary)9685_storage)": {
        "encoding": "mapping",
        "key": "t_address",
        "label": "mapping(address => struct ICommunity.Beneficiary)",
        "numberOfBytes": "32",
        "value": "t_struct(Beneficiary)9685_storage"
      },
      "t_mapping(t_bytes32,t_struct(RoleData)43_storage)": {
        "encoding": "mapping",
        "key": "t_bytes32",
        "label": "mapping(bytes32 => struct AccessControlUpgradeable.RoleData)",
        "numberOfBytes": "32",
        "value": "t_struct(RoleData)43_storage"
      },
      "t_mapping(t_bytes32,t_uint256)": {
        "encoding": "mapping",
        "key": "t_bytes32",
        "label": "mapping(bytes32 => uint256)",
        "numberOfBytes": "32",
        "value": "t_uint256"
      },
      "t_struct(AddressSet)5070_storage": {
        "encoding": "inplace",
        "label": "struct EnumerableSet.AddressSet",
        "members": [
          {
            "astId": 5069,
            "contract": "contracts/community/Community.sol:Community",
            "label": "_inner",
            "offset": 0,
            "slot": "0",
            "type": "t_struct(Set)4799_storage"
          }
        ],
        "numberOfBytes": "64"
      },
      "t_struct(Beneficiary)9685_storage": {
        "encoding": "inplace",
        "label": "struct ICommunity.Beneficiary",
        "members": [
          {
            "astId": 9678,
            "contract": "contracts/community/Community.sol:Community",
            "label": "state",
            "offset": 0,
            "slot": "0",
            "type": "t_enum(BeneficiaryState)9675"
          },
          {
            "astId": 9680,
            "contract": "contracts/community/Community.sol:Community",
            "label": "claims",
            "offset": 0,
            "slot": "1",
            "type": "t_uint256"
          },
          {
            "astId": 9682,
            "contract": "contracts/community/Community.sol:Community",
            "label": "claimedAmount",
            "offset": 0,
            "slot": "2",
            "type": "t_uint256"
          },
          {
            "astId": 9684,
            "contract": "contracts/community/Community.sol:Community",
            "label": "lastClaim",
            "offset": 0,
            "slot": "3",
            "type": "t_uint256"
          }
        ],
        "numberOfBytes": "128"
      },
      "t_struct(RoleData)43_storage": {
        "encoding": "inplace",
        "label": "struct AccessControlUpgradeable.RoleData",
        "members": [
          {
            "astId": 40,
            "contract": "contracts/community/Community.sol:Community",
            "label": "members",
            "offset": 0,
            "slot": "0",
            "type": "t_mapping(t_address,t_bool)"
          },
          {
            "astId": 42,
            "contract": "contracts/community/Community.sol:Community",
            "label": "adminRole",
            "offset": 0,
            "slot": "1",
            "type": "t_bytes32"
          }
        ],
        "numberOfBytes": "64"
      },
      "t_struct(Set)4799_storage": {
        "encoding": "inplace",
        "label": "struct EnumerableSet.Set",
        "members": [
          {
            "astId": 4794,
            "contract": "contracts/community/Community.sol:Community",
            "label": "_values",
            "offset": 0,
            "slot": "0",
            "type": "t_array(t_bytes32)dyn_storage"
          },
          {
            "astId": 4798,
            "contract": "contracts/community/Community.sol:Community",
            "label": "_indexes",
            "offset": 0,
            "slot": "1",
            "type": "t_mapping(t_bytes32,t_uint256)"
          }
        ],
        "numberOfBytes": "64"
      },
      "t_uint256": {
        "encoding": "inplace",
        "label": "uint256",
        "numberOfBytes": "32"
      }
    }
  }
}