{
  "address": "0xA427b5a3ef1FB86C7Ba0Cd0fE9f3E62Be9f22dD1",
  "abi": [
    {
      "anonymous": false,
      "inputs": [
        {
          "indexed": true,
          "internalType": "address",
          "name": "communityAddress",
          "type": "address"
        },
        {
          "indexed": false,
          "internalType": "address[]",
          "name": "managers",
          "type": "address[]"
        },
        {
          "indexed": false,
          "internalType": "uint256",
          "name": "claimAmount",
          "type": "uint256"
        },
        {
          "indexed": false,
          "internalType": "uint256",
          "name": "maxClaim",
          "type": "uint256"
        },
        {
          "indexed": false,
          "internalType": "uint256",
          "name": "decreaseStep",
          "type": "uint256"
        },
        {
          "indexed": false,
          "internalType": "uint256",
          "name": "baseInterval",
          "type": "uint256"
        },
        {
          "indexed": false,
          "internalType": "uint256",
          "name": "incrementInterval",
          "type": "uint256"
        },
        {
          "indexed": false,
          "internalType": "uint256",
          "name": "minTranche",
          "type": "uint256"
        },
        {
          "indexed": false,
          "internalType": "uint256",
          "name": "maxTranche",
          "type": "uint256"
        }
      ],
      "name": "CommunityAdded",
      "type": "event"
    },
    {
      "anonymous": false,
      "inputs": [
        {
          "indexed": true,
          "internalType": "address",
          "name": "community",
          "type": "address"
        },
        {
          "indexed": false,
          "internalType": "uint256",
          "name": "amount",
          "type": "uint256"
        }
      ],
      "name": "CommunityFunded",
      "type": "event"
    },
    {
      "anonymous": false,
      "inputs": [
        {
          "indexed": false,
          "internalType": "address[]",
          "name": "managers",
          "type": "address[]"
        },
        {
          "indexed": true,
          "internalType": "address",
          "name": "communityAddress",
          "type": "address"
        },
        {
          "indexed": true,
          "internalType": "address",
          "name": "previousCommunityAddress",
          "type": "address"
        }
      ],
      "name": "CommunityMigrated",
      "type": "event"
    },
    {
      "anonymous": false,
      "inputs": [
        {
          "indexed": true,
          "internalType": "address",
          "name": "communityAddress",
          "type": "address"
        }
      ],
      "name": "CommunityRemoved",
      "type": "event"
    },
    {
      "anonymous": false,
      "inputs": [
        {
          "indexed": true,
          "internalType": "address",
          "name": "oldCommunityTemplate",
          "type": "address"
        },
        {
          "indexed": true,
          "internalType": "address",
          "name": "newCommunityTemplate",
          "type": "address"
        }
      ],
      "name": "CommunityTemplateUpdated",
      "type": "event"
    },
    {
      "anonymous": false,
      "inputs": [
        {
          "indexed": true,
          "internalType": "address",
          "name": "previousOwner",
          "type": "address"
        },
        {
          "indexed": true,
          "internalType": "address",
          "name": "newOwner",
          "type": "address"
        }
      ],
      "name": "OwnershipTransferred",
      "type": "event"
    },
    {
      "anonymous": false,
      "inputs": [
        {
          "indexed": true,
          "internalType": "address",
          "name": "token",
          "type": "address"
        },
        {
          "indexed": true,
          "internalType": "address",
          "name": "to",
          "type": "address"
        },
        {
          "indexed": false,
          "internalType": "uint256",
          "name": "amount",
          "type": "uint256"
        }
      ],
      "name": "TransferERC20",
      "type": "event"
    },
    {
      "anonymous": false,
      "inputs": [
        {
          "indexed": true,
          "internalType": "address",
          "name": "oldTreasury",
          "type": "address"
        },
        {
          "indexed": true,
          "internalType": "address",
          "name": "newTreasury",
          "type": "address"
        }
      ],
      "name": "TreasuryUpdated",
      "type": "event"
    },
    {
      "inputs": [
        {
          "internalType": "address[]",
          "name": "_managers",
          "type": "address[]"
        },
        {
          "internalType": "uint256",
          "name": "_claimAmount",
          "type": "uint256"
        },
        {
          "internalType": "uint256",
          "name": "_maxClaim",
          "type": "uint256"
        },
        {
          "internalType": "uint256",
          "name": "_decreaseStep",
          "type": "uint256"
        },
        {
          "internalType": "uint256",
          "name": "_baseInterval",
          "type": "uint256"
        },
        {
          "internalType": "uint256",
          "name": "_incrementInterval",
          "type": "uint256"
        },
        {
          "internalType": "uint256",
          "name": "_minTranche",
          "type": "uint256"
        },
        {
          "internalType": "uint256",
          "name": "_maxTranche",
          "type": "uint256"
        }
      ],
      "name": "addCommunity",
      "outputs": [],
      "stateMutability": "nonpayable",
      "type": "function"
    },
    {
      "inputs": [
        {
          "internalType": "contract ICommunity",
          "name": "_community",
          "type": "address"
        },
        {
          "internalType": "address",
          "name": "_account",
          "type": "address"
        }
      ],
      "name": "addManagerToCommunity",
      "outputs": [],
      "stateMutability": "nonpayable",
      "type": "function"
    },
    {
      "inputs": [],
      "name": "cUSD",
      "outputs": [
        {
          "internalType": "contract IERC20",
          "name": "",
          "type": "address"
        }
      ],
      "stateMutability": "view",
      "type": "function"
    },
    {
      "inputs": [
        {
          "internalType": "address",
          "name": "",
          "type": "address"
        }
      ],
      "name": "communities",
      "outputs": [
        {
          "internalType": "enum ICommunityAdmin.CommunityState",
          "name": "",
          "type": "uint8"
        }
      ],
      "stateMutability": "view",
      "type": "function"
    },
    {
      "inputs": [
        {
          "internalType": "uint256",
          "name": "_index",
          "type": "uint256"
        }
      ],
      "name": "communityListAt",
      "outputs": [
        {
          "internalType": "address",
          "name": "",
          "type": "address"
        }
      ],
      "stateMutability": "view",
      "type": "function"
    },
    {
      "inputs": [],
      "name": "communityListLength",
      "outputs": [
        {
          "internalType": "uint256",
          "name": "",
          "type": "uint256"
        }
      ],
      "stateMutability": "view",
      "type": "function"
    },
    {
      "inputs": [],
      "name": "communityProxyAdmin",
      "outputs": [
        {
          "internalType": "contract ProxyAdmin",
          "name": "",
          "type": "address"
        }
      ],
      "stateMutability": "view",
      "type": "function"
    },
    {
      "inputs": [],
      "name": "communityTemplate",
      "outputs": [
        {
          "internalType": "contract ICommunity",
          "name": "",
          "type": "address"
        }
      ],
      "stateMutability": "view",
      "type": "function"
    },
    {
      "inputs": [],
      "name": "fundCommunity",
      "outputs": [],
      "stateMutability": "nonpayable",
      "type": "function"
    },
    {
      "inputs": [],
      "name": "getVersion",
      "outputs": [
        {
          "internalType": "uint256",
          "name": "",
          "type": "uint256"
        }
      ],
      "stateMutability": "pure",
      "type": "function"
    },
    {
      "inputs": [
        {
          "internalType": "contract ICommunity",
          "name": "_communityTemplate",
          "type": "address"
        },
        {
          "internalType": "contract IERC20",
          "name": "_cUSD",
          "type": "address"
        }
      ],
      "name": "initialize",
      "outputs": [],
      "stateMutability": "nonpayable",
      "type": "function"
    },
    {
      "inputs": [
        {
          "internalType": "address[]",
          "name": "_managers",
          "type": "address[]"
        },
        {
          "internalType": "contract ICommunity",
          "name": "_previousCommunity",
          "type": "address"
        }
      ],
      "name": "migrateCommunity",
      "outputs": [],
      "stateMutability": "nonpayable",
      "type": "function"
    },
    {
      "inputs": [],
      "name": "owner",
      "outputs": [
        {
          "internalType": "address",
          "name": "",
          "type": "address"
        }
      ],
      "stateMutability": "view",
      "type": "function"
    },
    {
      "inputs": [
        {
          "internalType": "contract ICommunity",
          "name": "_community",
          "type": "address"
        }
      ],
      "name": "removeCommunity",
      "outputs": [],
      "stateMutability": "nonpayable",
      "type": "function"
    },
    {
      "inputs": [],
      "name": "renounceOwnership",
      "outputs": [],
      "stateMutability": "nonpayable",
      "type": "function"
    },
    {
      "inputs": [
        {
          "internalType": "contract IERC20",
          "name": "_token",
          "type": "address"
        },
        {
          "internalType": "address",
          "name": "_to",
          "type": "address"
        },
        {
          "internalType": "uint256",
          "name": "_amount",
          "type": "uint256"
        }
      ],
      "name": "transfer",
      "outputs": [],
      "stateMutability": "nonpayable",
      "type": "function"
    },
    {
      "inputs": [
        {
          "internalType": "contract ICommunity",
          "name": "_community",
          "type": "address"
        },
        {
          "internalType": "contract IERC20",
          "name": "_token",
          "type": "address"
        },
        {
          "internalType": "address",
          "name": "_to",
          "type": "address"
        },
        {
          "internalType": "uint256",
          "name": "_amount",
          "type": "uint256"
        }
      ],
      "name": "transferFromCommunity",
      "outputs": [],
      "stateMutability": "nonpayable",
      "type": "function"
    },
    {
      "inputs": [
        {
          "internalType": "address",
          "name": "newOwner",
          "type": "address"
        }
      ],
      "name": "transferOwnership",
      "outputs": [],
      "stateMutability": "nonpayable",
      "type": "function"
    },
    {
      "inputs": [],
      "name": "treasury",
      "outputs": [
        {
          "internalType": "contract ITreasury",
          "name": "",
          "type": "address"
        }
      ],
      "stateMutability": "view",
      "type": "function"
    },
    {
      "inputs": [
        {
          "internalType": "contract ICommunity",
          "name": "_community",
          "type": "address"
        },
        {
          "internalType": "uint256",
          "name": "_claimAmount",
          "type": "uint256"
        },
        {
          "internalType": "uint256",
          "name": "_maxClaim",
          "type": "uint256"
        },
        {
          "internalType": "uint256",
          "name": "_decreaseStep",
          "type": "uint256"
        },
        {
          "internalType": "uint256",
          "name": "_baseInterval",
          "type": "uint256"
        },
        {
          "internalType": "uint256",
          "name": "_incrementInterval",
          "type": "uint256"
        }
      ],
      "name": "updateBeneficiaryParams",
      "outputs": [],
      "stateMutability": "nonpayable",
      "type": "function"
    },
    {
      "inputs": [
        {
          "internalType": "contract ICommunity",
          "name": "_community",
          "type": "address"
        },
        {
          "internalType": "uint256",
          "name": "_minTranche",
          "type": "uint256"
        },
        {
          "internalType": "uint256",
          "name": "_maxTranche",
          "type": "uint256"
        }
      ],
      "name": "updateCommunityParams",
      "outputs": [],
      "stateMutability": "nonpayable",
      "type": "function"
    },
    {
      "inputs": [
        {
          "internalType": "contract ICommunity",
          "name": "_newCommunityTemplate",
          "type": "address"
        }
      ],
      "name": "updateCommunityTemplate",
      "outputs": [],
      "stateMutability": "nonpayable",
      "type": "function"
    },
    {
      "inputs": [
        {
          "internalType": "address",
          "name": "_communityProxy",
          "type": "address"
        },
        {
          "internalType": "address",
          "name": "_newCommunityTemplate",
          "type": "address"
        }
      ],
      "name": "updateProxyImplementation",
      "outputs": [],
      "stateMutability": "nonpayable",
      "type": "function"
    },
    {
      "inputs": [
        {
          "internalType": "contract ITreasury",
          "name": "_newTreasury",
          "type": "address"
        }
      ],
      "name": "updateTreasury",
      "outputs": [],
      "stateMutability": "nonpayable",
      "type": "function"
    }
  ],
  "transactionHash": "0x5ce55bbdb4b9f44816dd21cf733b26827984348a0e124c5352021d2b0a0fead4",
  "args": [],
  "solcInputHash": "bc78398ad6ba86cebe8213030fed1011",
  "bytecode": "0x608060405234801561001057600080fd5b5061468a806100206000396000f3fe60806040523480156200001157600080fd5b5060043610620001755760003560e01c806371582c0311620000d3578063926345401162000086578063926345401462000328578063a4937c51146200033f578063add9b3801462000356578063beabacc8146200036a578063f00d09641462000381578063f2fde38b146200038b57600080fd5b806371582c0314620002855780637f2813d2146200029c5780637f51bb1f14620002d157806381449efe14620002e85780638da5cb5b14620002ff5780638e2d90db146200031157600080fd5b80631fccf672116200012c5780631fccf672146200020e578063372a8f4d146200022257806339f539a21462000239578063485cc955146200025057806361d027b31462000267578063715018a6146200027b57600080fd5b8063016a0416146200017a578063082f3cac14620001ab5780630be826c314620001c45780630d8e6e2c14620001db578063174a71d714620001ed5780631d2c935914620001f7575b600080fd5b609a546200018e906001600160a01b031681565b6040516001600160a01b0390911681526020015b60405180910390f35b620001c2620001bc36600462002b37565b620003a2565b005b620001c2620001d536600462002a96565b62000458565b60015b604051908152602001620001a2565b620001c2620004e7565b620001c26200020836600462002aa9565b6200099d565b6097546200018e906001600160a01b031681565b6200018e6200023336600462002bca565b62000a66565b620001c26200024a36600462002973565b62000a7b565b620001c26200026136600462002a96565b62000ae3565b6098546200018e906001600160a01b031681565b620001c262000be6565b620001c26200029636600462002935565b62000c21565b620002c2620002ad36600462002935565b609b6020526000908152604090205460ff1681565b604051620001a2919062002da9565b620001c2620002e236600462002935565b62000ca0565b620001c2620002f936600462002b00565b62000d1f565b6033546001600160a01b03166200018e565b620001c262000322366004620029b0565b62000db4565b620001c26200033936600462002935565b62001650565b620001c262000350366004620029fb565b62001897565b6099546200018e906001600160a01b031681565b620001c26200037b36600462002b85565b62001b07565b620001de62001bcd565b620001c26200039c36600462002935565b62001be0565b6033546001600160a01b03163314620003d85760405162461bcd60e51b8152600401620003cf9062002e35565b60405180910390fd5b604051632fd7910360e01b815260048101869052602481018590526044810184905260648101839052608481018290526001600160a01b03871690632fd791039060a401600060405180830381600087803b1580156200043757600080fd5b505af11580156200044c573d6000803e3d6000fd5b50505050505050505050565b6033546001600160a01b03163314620004855760405162461bcd60e51b8152600401620003cf9062002e35565b6040516316830bbd60e11b81526001600160a01b038281166004830152831690632d06177a906024015b600060405180830381600087803b158015620004ca57600080fd5b505af1158015620004df573d6000803e3d6000fd5b505050505050565b6001336000908152609b602052604090205460ff1660038111156200051c57634e487b7160e01b600052602160045260246000fd5b146200056b5760405162461bcd60e51b815260206004820152601d60248201527f436f6d6d756e69747941646d696e3a204e4f545f434f4d4d554e4954590000006044820152606401620003cf565b6097546040516370a0823160e01b81523360048201819052916000916001600160a01b03909116906370a082319060240160206040518083038186803b158015620005b557600080fd5b505afa158015620005ca573d6000803e3d6000fd5b505050506040513d601f19601f82011682018060405250810190620005f0919062002be3565b9050816001600160a01b031663dd4414bb6040518163ffffffff1660e01b815260040160206040518083038186803b1580156200062c57600080fd5b505afa15801562000641573d6000803e3d6000fd5b505050506040513d601f19601f8201168201806040525081019062000667919062002be3565b8110620006dd5760405162461bcd60e51b815260206004820152603e60248201527f436f6d6d756e69747941646d696e3a3a66756e64436f6d6d756e6974793a207460448201527f68697320636f6d6d756e6974792068617320656e6f7567682066756e647300006064820152608401620003cf565b816001600160a01b0316630e5b7c536040518163ffffffff1660e01b815260040160206040518083038186803b1580156200071757600080fd5b505afa1580156200072c573d6000803e3d6000fd5b505050506040513d601f19601f8201168201806040525081019062000752919062002be3565b826001600160a01b03166309c338c36040518163ffffffff1660e01b815260040160206040518083038186803b1580156200078c57600080fd5b505afa158015620007a1573d6000803e3d6000fd5b505050506040513d601f19601f82011682018060405250810190620007c7919062002be3565b620007d3919062002ea1565b43116200085d5760405162461bcd60e51b815260206004820152604b60248201527f436f6d6d756e69747941646d696e3a3a66756e64436f6d6d756e6974793a207460448201527f68697320636f6d6d756e697479206973206e6f7420616c6c6f77656420746f2060648201526a1c995c5d595cdd081e595d60aa1b608482015260a401620003cf565b60006200086a3362001c82565b9050818111156200099857600062000883838362002eff565b6097546098546040516370a0823160e01b81526001600160a01b039182166004820152929350600092600a9291909116906370a082319060240160206040518083038186803b158015620008d657600080fd5b505afa158015620008eb573d6000803e3d6000fd5b505050506040513d601f19601f8201168201806040525081019062000911919062002be3565b6200091d919062002ebc565b905080821115620009895760405162461bcd60e51b815260206004820152602f60248201527f436f6d6d756e69747941646d696e3a3a66756e64436f6d6d756e6974793a204e60448201526e6f7420656e6f7567682066756e647360881b6064820152608401620003cf565b62000995858362001fd3565b50505b505050565b6033546001600160a01b03163314620009ca5760405162461bcd60e51b8152600401620003cf9062002e35565b60026065541415620009f05760405162461bcd60e51b8152600401620003cf9062002e6a565b60026065556040516317d5759960e31b81526001600160a01b0385169063beabacc89062000a279086908690869060040162002d85565b600060405180830381600087803b15801562000a4257600080fd5b505af115801562000a57573d6000803e3d6000fd5b50506001606555505050505050565b600062000a75609c8362002115565b92915050565b6033546001600160a01b0316331462000aa85760405162461bcd60e51b8152600401620003cf9062002e35565b609a5460405163266a23b160e21b81526001600160a01b0384811660048301528381166024830152909116906399a88ec490604401620004af565b600054610100900460ff168062000afd575060005460ff16155b62000b1c5760405162461bcd60e51b8152600401620003cf9062002de7565b600054610100900460ff1615801562000b3f576000805461ffff19166101011790555b62000b496200212a565b62000b53620021af565b609980546001600160a01b038086166001600160a01b031992831617909255609780549285169290911691909117905560405162000b919062002856565b604051809103906000f08015801562000bae573d6000803e3d6000fd5b50609a80546001600160a01b0319166001600160a01b0392909216919091179055801562000998576000805461ff0019169055505050565b6033546001600160a01b0316331462000c135760405162461bcd60e51b8152600401620003cf9062002e35565b62000c1f600062002215565b565b6033546001600160a01b0316331462000c4e5760405162461bcd60e51b8152600401620003cf9062002e35565b609980546001600160a01b038381166001600160a01b0319831681179093556040519116919082907fe86060109e6eea418a51a5ed2ba7e250e72fcff0b9387082351310b5df38359890600090a35050565b6033546001600160a01b0316331462000ccd5760405162461bcd60e51b8152600401620003cf9062002e35565b609880546001600160a01b038381166001600160a01b0319831681179093556040519116919082907f4ab5be82436d353e61ca18726e984e561f5c1cc7c6d38b29d2553c790434705a90600090a35050565b6033546001600160a01b0316331462000d4c5760405162461bcd60e51b8152600401620003cf9062002e35565b604051630644b36d60e21b815260048101839052602481018290526001600160a01b03841690631912cdb490604401600060405180830381600087803b15801562000d9657600080fd5b505af115801562000dab573d6000803e3d6000fd5b50505050505050565b6033546001600160a01b0316331462000de15760405162461bcd60e51b8152600401620003cf9062002e35565b6002606554141562000e075760405162461bcd60e51b8152600401620003cf9062002e6a565b600260655560036001600160a01b0382166000908152609b602052604090205460ff16600381111562000e4a57634e487b7160e01b600052602160045260246000fd5b141562000ecb5760405162461bcd60e51b815260206004820152604260248201527f436f6d6d756e69747941646d696e3a3a6d696772617465436f6d6d756e69747960448201527f3a207468697320636f6d6d756e69747920686173206265656e206d6967726174606482015261195960f21b608482015260a401620003cf565b6001600160a01b0381166000908152609b60205260408120805460ff1916600317905562000ef98262002267565b9050600081156200124b576200124384846001600160a01b031663830953ab6040518163ffffffff1660e01b815260040160206040518083038186803b15801562000f4357600080fd5b505afa15801562000f58573d6000803e3d6000fd5b505050506040513d601f19601f8201168201806040525081019062000f7e919062002be3565b856001600160a01b03166378ba280f6040518163ffffffff1660e01b815260040160206040518083038186803b15801562000fb857600080fd5b505afa15801562000fcd573d6000803e3d6000fd5b505050506040513d601f19601f8201168201806040525081019062000ff3919062002be3565b866001600160a01b031663c51fab3c6040518163ffffffff1660e01b815260040160206040518083038186803b1580156200102d57600080fd5b505afa15801562001042573d6000803e3d6000fd5b505050506040513d601f19601f8201168201806040525081019062001068919062002be3565b876001600160a01b0316630e5b7c536040518163ffffffff1660e01b815260040160206040518083038186803b158015620010a257600080fd5b505afa158015620010b7573d6000803e3d6000fd5b505050506040513d601f19601f82011682018060405250810190620010dd919062002be3565b886001600160a01b031663597be18b6040518163ffffffff1660e01b815260040160206040518083038186803b1580156200111757600080fd5b505afa1580156200112c573d6000803e3d6000fd5b505050506040513d601f19601f8201168201806040525081019062001152919062002be3565b896001600160a01b031663dd4414bb6040518163ffffffff1660e01b815260040160206040518083038186803b1580156200118c57600080fd5b505afa158015620011a1573d6000803e3d6000fd5b505050506040513d601f19601f82011682018060405250810190620011c7919062002be3565b8a6001600160a01b0316632b2711176040518163ffffffff1660e01b815260040160206040518083038186803b1580156200120157600080fd5b505afa15801562001216573d6000803e3d6000fd5b505050506040513d601f19601f820116820180604052508101906200123c919062002be3565b8b620022f8565b905062001463565b6200146084846001600160a01b031663830953ab6040518163ffffffff1660e01b815260040160206040518083038186803b1580156200128a57600080fd5b505afa1580156200129f573d6000803e3d6000fd5b505050506040513d601f19601f82011682018060405250810190620012c5919062002be3565b856001600160a01b031663d4938db36040518163ffffffff1660e01b815260040160206040518083038186803b158015620012ff57600080fd5b505afa15801562001314573d6000803e3d6000fd5b505050506040513d601f19601f820116820180604052508101906200133a919062002be3565b662386f26fc100006005886001600160a01b0316630e5b7c536040518163ffffffff1660e01b815260040160206040518083038186803b1580156200137e57600080fd5b505afa15801562001393573d6000803e3d6000fd5b505050506040513d601f19601f82011682018060405250810190620013b9919062002be3565b620013c5919062002ebc565b6005896001600160a01b031663597be18b6040518163ffffffff1660e01b815260040160206040518083038186803b1580156200140157600080fd5b505afa15801562001416573d6000803e3d6000fd5b505050506040513d601f19601f820116820180604052508101906200143c919062002be3565b62001448919062002ebc565b662386f26fc10000674563918244f400008b620022f8565b90505b6001600160a01b038116620014cf5760405162461bcd60e51b815260206004820152602b60248201527f436f6d6d756e69747941646d696e3a3a6d696772617465436f6d6d756e69747960448201526a0e881393d517d59053125160aa1b6064820152608401620003cf565b8115620015c7576097546040516370a0823160e01b81526001600160a01b03858116600483015260009216906370a082319060240160206040518083038186803b1580156200151d57600080fd5b505afa15801562001532573d6000803e3d6000fd5b505050506040513d601f19601f8201168201806040525081019062001558919062002be3565b6097546040516317d5759960e31b81529192506001600160a01b038087169263beabacc892620015919216908690869060040162002d85565b600060405180830381600087803b158015620015ac57600080fd5b505af1158015620015c1573d6000803e3d6000fd5b50505050505b6001600160a01b0381166000908152609b60205260409020805460ff19166001179055620015f7609c82620023a6565b50826001600160a01b0316816001600160a01b03167f1c73dbd6259eae88a71a197a742361367d2811051b3de2b22953065b876247af866040516200163d919062002cc4565b60405180910390a3505060016065555050565b6033546001600160a01b031633146200167d5760405162461bcd60e51b8152600401620003cf9062002e35565b60026065541415620016a35760405162461bcd60e51b8152600401620003cf9062002e6a565b600260655560016001600160a01b0382166000908152609b602052604090205460ff166003811115620016e657634e487b7160e01b600052602160045260246000fd5b146200175b5760405162461bcd60e51b815260206004820152603d60248201527f436f6d6d756e69747941646d696e3a3a72656d6f7665436f6d6d756e6974793a60448201527f20746869732069736e277420612076616c696420636f6d6d756e6974790000006064820152608401620003cf565b6001600160a01b038181166000818152609b602052604090819020805460ff1916600217905560975460985491516370a0823160e01b815260048101849052929363beabacc89391811692169082906370a082319060240160206040518083038186803b158015620017cc57600080fd5b505afa158015620017e1573d6000803e3d6000fd5b505050506040513d601f19601f8201168201806040525081019062001807919062002be3565b6040518463ffffffff1660e01b8152600401620018279392919062002d85565b600060405180830381600087803b1580156200184257600080fd5b505af115801562001857573d6000803e3d6000fd5b50506040516001600160a01b03841692507fa285b77d62d36ec6881b2cbc019c53874eb061798176f3577f2beab0848d16c69150600090a2506001606555565b6033546001600160a01b03163314620018c45760405162461bcd60e51b8152600401620003cf9062002e35565b60008851116200194e5760405162461bcd60e51b815260206004820152604860248201527f436f6d6d756e69747941646d696e3a3a616464436f6d6d756e6974793a20436f60448201527f6d6d756e6974792073686f756c642068617665206174206c65617374206f6e656064820152671036b0b730b3b2b960c11b608482015260a401620003cf565b60006200196489898989898989896000620022f8565b90506001600160a01b038116620019ce5760405162461bcd60e51b815260206004820152602760248201527f436f6d6d756e69747941646d696e3a3a616464436f6d6d756e6974793a204e4f6044820152661517d59053125160ca1b6064820152608401620003cf565b6001600160a01b0381166000908152609b60205260409020805460ff19166001179055620019fe609c82620023a6565b50806001600160a01b03167fd975f7d7350dc54e14ea0400bad2e29483d76cb8810f36f1f520d5c44c1dcf028a8a8a8a8a8a8a8a60405162001a4898979695949392919062002cd9565b60405180910390a262001a5c818462001fd3565b6098546097548a516001600160a01b039283169263beabacc89216908c9060009062001a9857634e487b7160e01b600052603260045260246000fd5b602002602001015166b1a2bc2ec500006040518463ffffffff1660e01b815260040162001ac89392919062002d85565b600060405180830381600087803b15801562001ae357600080fd5b505af115801562001af8573d6000803e3d6000fd5b50505050505050505050505050565b6033546001600160a01b0316331462001b345760405162461bcd60e51b8152600401620003cf9062002e35565b6002606554141562001b5a5760405162461bcd60e51b8152600401620003cf9062002e6a565b600260655562001b756001600160a01b0384168383620023bd565b816001600160a01b0316836001600160a01b03167f9b035625e569d1d2bf54830a290aefba7ab11610ba8490871dc62b86b63a89568360405162001bbb91815260200190565b60405180910390a35050600160655550565b600062001bdb609c62002411565b905090565b6033546001600160a01b0316331462001c0d5760405162461bcd60e51b8152600401620003cf9062002e35565b6001600160a01b03811662001c745760405162461bcd60e51b815260206004820152602660248201527f4f776e61626c653a206e6577206f776e657220697320746865207a65726f206160448201526564647265737360d01b6064820152608401620003cf565b62001c7f8162002215565b50565b600080826001600160a01b031663431a801a6040518163ffffffff1660e01b815260040160206040518083038186803b15801562001cbf57600080fd5b505afa15801562001cd4573d6000803e3d6000fd5b505050506040513d601f19601f8201168201806040525081019062001cfa919062002be3565b90506000836001600160a01b031663830953ab6040518163ffffffff1660e01b815260040160206040518083038186803b15801562001d3857600080fd5b505afa15801562001d4d573d6000803e3d6000fd5b505050506040513d601f19601f8201168201806040525081019062001d73919062002be3565b90506000846001600160a01b0316639c01a4016040518163ffffffff1660e01b815260040160206040518083038186803b15801562001db157600080fd5b505afa15801562001dc6573d6000803e3d6000fd5b505050506040513d601f19601f8201168201806040525081019062001dec919062002be3565b90506000856001600160a01b031663d6dbd9726040518163ffffffff1660e01b815260040160206040518083038186803b15801562001e2a57600080fd5b505afa15801562001e3f573d6000803e3d6000fd5b505050506040513d601f19601f8201168201806040525081019062001e65919062002be3565b90506000866001600160a01b031663dd4414bb6040518163ffffffff1660e01b815260040160206040518083038186803b15801562001ea357600080fd5b505afa15801562001eb8573d6000803e3d6000fd5b505050506040513d601f19601f8201168201806040525081019062001ede919062002be3565b90506000876001600160a01b0316632b2711176040518163ffffffff1660e01b815260040160206040518083038186803b15801562001f1c57600080fd5b505afa15801562001f31573d6000803e3d6000fd5b505050506040513d601f19601f8201168201806040525081019062001f57919062002be3565b90506000841162001f7157670de0b6b3a764000062001f73565b835b935060008462001f84858262002ea1565b62001f90888a62002edd565b62001f9c919062002edd565b62001fa8919062002ebc565b90508281101562001fbb57508162001fc7565b8181111562001fc75750805b98975050505050505050565b6002606554141562001ff95760405162461bcd60e51b8152600401620003cf9062002e6a565b60026065556098546097546040516317d5759960e31b81526001600160a01b039283169263beabacc89262002038929116908690869060040162002d85565b600060405180830381600087803b1580156200205357600080fd5b505af115801562002068573d6000803e3d6000fd5b5050604051635c04f74160e11b8152600481018490526001600160a01b038516925063b809ee829150602401600060405180830381600087803b158015620020af57600080fd5b505af1158015620020c4573d6000803e3d6000fd5b50505050816001600160a01b03167f1e951788684f9b9e5c219261ce05daaa0f58ead974c796e6311b1da4c8657af1826040516200210491815260200190565b60405180910390a250506001606555565b60006200212383836200241c565b9392505050565b600054610100900460ff168062002144575060005460ff16155b620021635760405162461bcd60e51b8152600401620003cf9062002de7565b600054610100900460ff1615801562002186576000805461ffff19166101011790555b6200219062002455565b6200219a620024c5565b801562001c7f576000805461ff001916905550565b600054610100900460ff1680620021c9575060005460ff16155b620021e85760405162461bcd60e51b8152600401620003cf9062002de7565b600054610100900460ff161580156200220b576000805461ffff19166101011790555b6200219a6200252c565b603380546001600160a01b038381166001600160a01b0319831681179093556040519116919082907f8be0079c531659141344cd1fd0a4f28419497f9722a3daafe3b4186f6b6457e090600090a35050565b6000806001600160a01b0316826001600160a01b031663c041fdc56040518163ffffffff1660e01b815260040160206040518083038186803b158015620022ad57600080fd5b505afa158015620022c2573d6000803e3d6000fd5b505050506040513d601f19601f82011682018060405250810190620022e8919062002954565b6001600160a01b03161492915050565b609954609a5460405160009283926001600160a01b039182169291169062002335908e908e908e908e908e908e908e908e908e9060240162002d26565b60408051601f198184030181529181526020820180516001600160e01b03166308278d4960e41b179052516200236b9062002864565b620023799392919062002c8d565b604051809103906000f08015801562002396573d6000803e3d6000fd5b509b9a5050505050505050505050565b600062002123836001600160a01b038416620025a2565b604080516001600160a01b038416602482015260448082018490528251808303909101815260649091019091526020810180516001600160e01b031663a9059cbb60e01b17905262000998908490620025f4565b600062000a75825490565b60008260000182815481106200244257634e487b7160e01b600052603260045260246000fd5b9060005260206000200154905092915050565b600054610100900460ff16806200246f575060005460ff16155b6200248e5760405162461bcd60e51b8152600401620003cf9062002de7565b600054610100900460ff161580156200219a576000805461ffff1916610101179055801562001c7f576000805461ff001916905550565b600054610100900460ff1680620024df575060005460ff16155b620024fe5760405162461bcd60e51b8152600401620003cf9062002de7565b600054610100900460ff1615801562002521576000805461ffff19166101011790555b6200219a3362002215565b600054610100900460ff168062002546575060005460ff16155b620025655760405162461bcd60e51b8152600401620003cf9062002de7565b600054610100900460ff1615801562002588576000805461ffff19166101011790555b6001606555801562001c7f576000805461ff001916905550565b6000818152600183016020526040812054620025eb5750815460018181018455600084815260208082209093018490558454848252828601909352604090209190915562000a75565b50600062000a75565b60006200264b826040518060400160405280602081526020017f5361666545524332303a206c6f772d6c6576656c2063616c6c206661696c6564815250856001600160a01b0316620026cd9092919063ffffffff16565b8051909150156200099857808060200190518101906200266c919062002a74565b620009985760405162461bcd60e51b815260206004820152602a60248201527f5361666545524332303a204552433230206f7065726174696f6e20646964206e6044820152691bdd081cdd58d8d9595960b21b6064820152608401620003cf565b6060620026de8484600085620026e6565b949350505050565b606082471015620027495760405162461bcd60e51b815260206004820152602660248201527f416464726573733a20696e73756666696369656e742062616c616e636520666f6044820152651c8818d85b1b60d21b6064820152608401620003cf565b843b620027995760405162461bcd60e51b815260206004820152601d60248201527f416464726573733a2063616c6c20746f206e6f6e2d636f6e74726163740000006044820152606401620003cf565b600080866001600160a01b03168587604051620027b7919062002c6f565b60006040518083038185875af1925050503d8060008114620027f6576040519150601f19603f3d011682016040523d82523d6000602084013e620027fb565b606091505b50915091506200280d82828662002818565b979650505050505050565b606083156200282957508162002123565b8251156200283a5782518084602001fd5b8160405162461bcd60e51b8152600401620003cf919062002dd2565b6107978062002f8f83390190565b610f2f806200372683390190565b80356200287f8162002f78565b919050565b600082601f83011262002895578081fd5b8135602067ffffffffffffffff80831115620028b557620028b562002f62565b8260051b604051601f19603f83011681018181108482111715620028dd57620028dd62002f62565b60405284815283810192508684018288018501891015620028fc578687fd5b8692505b858310156200292957620029148162002872565b84529284019260019290920191840162002900565b50979650505050505050565b60006020828403121562002947578081fd5b8135620021238162002f78565b60006020828403121562002966578081fd5b8151620021238162002f78565b6000806040838503121562002986578081fd5b8235620029938162002f78565b91506020830135620029a58162002f78565b809150509250929050565b60008060408385031215620029c3578182fd5b823567ffffffffffffffff811115620029da578283fd5b620029e88582860162002884565b9250506020830135620029a58162002f78565b600080600080600080600080610100898b03121562002a18578384fd5b883567ffffffffffffffff81111562002a2f578485fd5b62002a3d8b828c0162002884565b9b60208b01359b5060408b01359a60608101359a506080810135995060a0810135985060c0810135975060e0013595509350505050565b60006020828403121562002a86578081fd5b8151801515811462002123578182fd5b6000806040838503121562002986578182fd5b6000806000806080858703121562002abf578384fd5b843562002acc8162002f78565b9350602085013562002ade8162002f78565b9250604085013562002af08162002f78565b9396929550929360600135925050565b60008060006060848603121562002b15578283fd5b833562002b228162002f78565b95602085013595506040909401359392505050565b60008060008060008060c0878903121562002b50578182fd5b863562002b5d8162002f78565b9860208801359850604088013597606081013597506080810135965060a00135945092505050565b60008060006060848603121562002b9a578081fd5b833562002ba78162002f78565b9250602084013562002bb98162002f78565b929592945050506040919091013590565b60006020828403121562002bdc578081fd5b5035919050565b60006020828403121562002bf5578081fd5b5051919050565b6000815180845260208085019450808401835b8381101562002c365781516001600160a01b03168752958201959082019060010162002c0f565b509495945050505050565b6000815180845262002c5b81602086016020860162002f19565b601f01601f19169290920160200192915050565b6000825162002c8381846020870162002f19565b9190910192915050565b6001600160a01b0384811682528316602082015260606040820181905260009062002cbb9083018462002c41565b95945050505050565b60208152600062002123602083018462002bfc565b600061010080835262002cef8184018c62002bfc565b602084019a909a52505060408101969096526060860194909452608085019290925260a084015260c083015260e090910152919050565b600061012080835262002d3c8184018d62002bfc565b602084019b909b52505060408101979097526060870195909552608086019390935260a085019190915260c084015260e08301526001600160a01b031661010090910152919050565b6001600160a01b039384168152919092166020820152604081019190915260600190565b602081016004831062002dcc57634e487b7160e01b600052602160045260246000fd5b91905290565b60208152600062002123602083018462002c41565b6020808252602e908201527f496e697469616c697a61626c653a20636f6e747261637420697320616c72656160408201526d191e481a5b9a5d1a585b1a5e995960921b606082015260800190565b6020808252818101527f4f776e61626c653a2063616c6c6572206973206e6f7420746865206f776e6572604082015260600190565b6020808252601f908201527f5265656e7472616e637947756172643a207265656e7472616e742063616c6c00604082015260600190565b6000821982111562002eb75762002eb762002f4c565b500190565b60008262002ed857634e487b7160e01b81526012600452602481fd5b500490565b600081600019048311821515161562002efa5762002efa62002f4c565b500290565b60008282101562002f145762002f1462002f4c565b500390565b60005b8381101562002f3657818101518382015260200162002f1c565b8381111562002f46576000848401525b50505050565b634e487b7160e01b600052601160045260246000fd5b634e487b7160e01b600052604160045260246000fd5b6001600160a01b038116811462001c7f57600080fdfe608060405234801561001057600080fd5b5061001a3361001f565b61006f565b600080546001600160a01b038381166001600160a01b0319831681178455604051919092169283917f8be0079c531659141344cd1fd0a4f28419497f9722a3daafe3b4186f6b6457e09190a35050565b6107198061007e6000396000f3fe60806040526004361061007b5760003560e01c80639623609d1161004e5780639623609d1461011157806399a88ec414610124578063f2fde38b14610144578063f3b7dead1461016457600080fd5b8063204e1c7a14610080578063715018a6146100bc5780637eff275e146100d35780638da5cb5b146100f3575b600080fd5b34801561008c57600080fd5b506100a061009b3660046104d8565b610184565b6040516001600160a01b03909116815260200160405180910390f35b3480156100c857600080fd5b506100d1610215565b005b3480156100df57600080fd5b506100d16100ee366004610517565b610254565b3480156100ff57600080fd5b506000546001600160a01b03166100a0565b6100d161011f36600461054f565b6102de565b34801561013057600080fd5b506100d161013f366004610517565b61036f565b34801561015057600080fd5b506100d161015f3660046104d8565b6103c7565b34801561017057600080fd5b506100a061017f3660046104d8565b610462565b6000806000836001600160a01b03166040516101aa90635c60da1b60e01b815260040190565b600060405180830381855afa9150503d80600081146101e5576040519150601f19603f3d011682016040523d82523d6000602084013e6101ea565b606091505b5091509150816101f957600080fd5b8080602001905181019061020d91906104fb565b949350505050565b6000546001600160a01b031633146102485760405162461bcd60e51b815260040161023f90610683565b60405180910390fd5b6102526000610488565b565b6000546001600160a01b0316331461027e5760405162461bcd60e51b815260040161023f90610683565b6040516308f2839760e41b81526001600160a01b038281166004830152831690638f283970906024015b600060405180830381600087803b1580156102c257600080fd5b505af11580156102d6573d6000803e3d6000fd5b505050505050565b6000546001600160a01b031633146103085760405162461bcd60e51b815260040161023f90610683565b60405163278f794360e11b81526001600160a01b03841690634f1ef2869034906103389086908690600401610620565b6000604051808303818588803b15801561035157600080fd5b505af1158015610365573d6000803e3d6000fd5b5050505050505050565b6000546001600160a01b031633146103995760405162461bcd60e51b815260040161023f90610683565b604051631b2ce7f360e11b81526001600160a01b038281166004830152831690633659cfe6906024016102a8565b6000546001600160a01b031633146103f15760405162461bcd60e51b815260040161023f90610683565b6001600160a01b0381166104565760405162461bcd60e51b815260206004820152602660248201527f4f776e61626c653a206e6577206f776e657220697320746865207a65726f206160448201526564647265737360d01b606482015260840161023f565b61045f81610488565b50565b6000806000836001600160a01b03166040516101aa906303e1469160e61b815260040190565b600080546001600160a01b038381166001600160a01b0319831681178455604051919092169283917f8be0079c531659141344cd1fd0a4f28419497f9722a3daafe3b4186f6b6457e09190a35050565b6000602082840312156104e9578081fd5b81356104f4816106ce565b9392505050565b60006020828403121561050c578081fd5b81516104f4816106ce565b60008060408385031215610529578081fd5b8235610534816106ce565b91506020830135610544816106ce565b809150509250929050565b600080600060608486031215610563578081fd5b833561056e816106ce565b9250602084013561057e816106ce565b9150604084013567ffffffffffffffff8082111561059a578283fd5b818601915086601f8301126105ad578283fd5b8135818111156105bf576105bf6106b8565b604051601f8201601f19908116603f011681019083821181831017156105e7576105e76106b8565b816040528281528960208487010111156105ff578586fd5b82602086016020830137856020848301015280955050505050509250925092565b60018060a01b0383168152600060206040818401528351806040850152825b8181101561065b5785810183015185820160600152820161063f565b8181111561066c5783606083870101525b50601f01601f191692909201606001949350505050565b6020808252818101527f4f776e61626c653a2063616c6c6572206973206e6f7420746865206f776e6572604082015260600190565b634e487b7160e01b600052604160045260246000fd5b6001600160a01b038116811461045f57600080fdfea2646970667358221220eb1ff7a6963eedf81135d5bca790e014e7d474fe373c8adc05c61468c9d0a7dd64736f6c63430008040033608060405260405162000f2f38038062000f2f8339810160408190526200002691620004da565b82816200005560017f360894a13ba1a3210667c828492db98dca3e2076cc3735a920a3ca505d382bbd62000609565b60008051602062000ee8833981519152146200008157634e487b7160e01b600052600160045260246000fd5b6200008f82826000620000ff565b50620000bf905060017fb53127684a568b3173ae13b9f8a6016e243e63b6e8ee1178d6a717850b5d610462000609565b60008051602062000ec883398151915214620000eb57634e487b7160e01b600052600160045260246000fd5b620000f6826200013c565b50505062000672565b6200010a8362000197565b600082511180620001185750805b156200013757620001358383620001d960201b620002601760201c565b505b505050565b7f7e644d79422f17c01e4894b5f4f588d331ebfa28653d42ae832dc59e38c9798f6200016762000208565b604080516001600160a01b03928316815291841660208301520160405180910390a1620001948162000241565b50565b620001a281620002f6565b6040516001600160a01b038216907fbc7cd75a20ee27fd9adebab32041f755214dbc6bffa90cc0225b39da2e5c2d3b90600090a250565b606062000201838360405180606001604052806027815260200162000f086027913962000399565b9392505050565b60006200023260008051602062000ec883398151915260001b6200047660201b620002081760201c565b546001600160a01b0316919050565b6001600160a01b038116620002ac5760405162461bcd60e51b815260206004820152602660248201527f455243313936373a206e65772061646d696e20697320746865207a65726f206160448201526564647265737360d01b60648201526084015b60405180910390fd5b80620002d560008051602062000ec883398151915260001b6200047660201b620002081760201c565b80546001600160a01b0319166001600160a01b039290921691909117905550565b6200030c816200047960201b6200028c1760201c565b620003705760405162461bcd60e51b815260206004820152602d60248201527f455243313936373a206e657720696d706c656d656e746174696f6e206973206e60448201526c1bdd08184818dbdb9d1c9858dd609a1b6064820152608401620002a3565b80620002d560008051602062000ee883398151915260001b6200047660201b620002081760201c565b6060833b620003fa5760405162461bcd60e51b815260206004820152602660248201527f416464726573733a2064656c65676174652063616c6c20746f206e6f6e2d636f6044820152651b9d1c9858dd60d21b6064820152608401620002a3565b600080856001600160a01b031685604051620004179190620005b6565b600060405180830381855af49150503d806000811462000454576040519150601f19603f3d011682016040523d82523d6000602084013e62000459565b606091505b5090925090506200046c8282866200047f565b9695505050505050565b90565b3b151590565b606083156200049057508162000201565b825115620004a15782518084602001fd5b8160405162461bcd60e51b8152600401620002a39190620005d4565b80516001600160a01b0381168114620004d557600080fd5b919050565b600080600060608486031215620004ef578283fd5b620004fa84620004bd565b92506200050a60208501620004bd565b60408501519092506001600160401b038082111562000527578283fd5b818601915086601f8301126200053b578283fd5b8151818111156200055057620005506200065c565b604051601f8201601f19908116603f011681019083821181831017156200057b576200057b6200065c565b8160405282815289602084870101111562000594578586fd5b620005a78360208301602088016200062d565b80955050505050509250925092565b60008251620005ca8184602087016200062d565b9190910192915050565b6020815260008251806020840152620005f58160408501602087016200062d565b601f01601f19169190910160400192915050565b6000828210156200062857634e487b7160e01b81526011600452602481fd5b500390565b60005b838110156200064a57818101518382015260200162000630565b83811115620001355750506000910152565b634e487b7160e01b600052604160045260246000fd5b61084680620006826000396000f3fe60806040526004361061004e5760003560e01c80633659cfe6146100655780634f1ef286146100855780635c60da1b146100985780638f283970146100c9578063f851a440146100e95761005d565b3661005d5761005b6100fe565b005b61005b6100fe565b34801561007157600080fd5b5061005b6100803660046106d6565b610118565b61005b6100933660046106f0565b61015f565b3480156100a457600080fd5b506100ad6101d0565b6040516001600160a01b03909116815260200160405180910390f35b3480156100d557600080fd5b5061005b6100e43660046106d6565b61020b565b3480156100f557600080fd5b506100ad610235565b610106610292565b610116610111610331565b61033b565b565b61012061035f565b6001600160a01b0316336001600160a01b031614156101575761015481604051806020016040528060008152506000610392565b50565b6101546100fe565b61016761035f565b6001600160a01b0316336001600160a01b031614156101c8576101c38383838080601f01602080910402602001604051908101604052809392919081815260200183838082843760009201919091525060019250610392915050565b505050565b6101c36100fe565b60006101da61035f565b6001600160a01b0316336001600160a01b03161415610200576101fb610331565b905090565b6102086100fe565b90565b61021361035f565b6001600160a01b0316336001600160a01b0316141561015757610154816103bd565b600061023f61035f565b6001600160a01b0316336001600160a01b03161415610200576101fb61035f565b606061028583836040518060600160405280602781526020016107ea60279139610411565b9392505050565b3b151590565b61029a61035f565b6001600160a01b0316336001600160a01b031614156101165760405162461bcd60e51b815260206004820152604260248201527f5472616e73706172656e745570677261646561626c6550726f78793a2061646d60448201527f696e2063616e6e6f742066616c6c6261636b20746f2070726f78792074617267606482015261195d60f21b608482015260a4015b60405180910390fd5b60006101fb6104e5565b3660008037600080366000845af43d6000803e80801561035a573d6000f35b3d6000fd5b60007fb53127684a568b3173ae13b9f8a6016e243e63b6e8ee1178d6a717850b5d61035b546001600160a01b0316919050565b61039b8361050d565b6000825111806103a85750805b156101c3576103b78383610260565b50505050565b7f7e644d79422f17c01e4894b5f4f588d331ebfa28653d42ae832dc59e38c9798f6103e661035f565b604080516001600160a01b03928316815291841660208301520160405180910390a16101548161054d565b6060833b6104705760405162461bcd60e51b815260206004820152602660248201527f416464726573733a2064656c65676174652063616c6c20746f206e6f6e2d636f6044820152651b9d1c9858dd60d21b6064820152608401610328565b600080856001600160a01b03168560405161048b919061076e565b600060405180830381855af49150503d80600081146104c6576040519150601f19603f3d011682016040523d82523d6000602084013e6104cb565b606091505b50915091506104db8282866105f6565b9695505050505050565b60007f360894a13ba1a3210667c828492db98dca3e2076cc3735a920a3ca505d382bbc610383565b6105168161062f565b6040516001600160a01b038216907fbc7cd75a20ee27fd9adebab32041f755214dbc6bffa90cc0225b39da2e5c2d3b90600090a250565b6001600160a01b0381166105b25760405162461bcd60e51b815260206004820152602660248201527f455243313936373a206e65772061646d696e20697320746865207a65726f206160448201526564647265737360d01b6064820152608401610328565b807fb53127684a568b3173ae13b9f8a6016e243e63b6e8ee1178d6a717850b5d61035b80546001600160a01b0319166001600160a01b039290921691909117905550565b60608315610605575081610285565b8251156106155782518084602001fd5b8160405162461bcd60e51b8152600401610328919061078a565b803b6106935760405162461bcd60e51b815260206004820152602d60248201527f455243313936373a206e657720696d706c656d656e746174696f6e206973206e60448201526c1bdd08184818dbdb9d1c9858dd609a1b6064820152608401610328565b807f360894a13ba1a3210667c828492db98dca3e2076cc3735a920a3ca505d382bbc6105d5565b80356001600160a01b03811681146106d157600080fd5b919050565b6000602082840312156106e7578081fd5b610285826106ba565b600080600060408486031215610704578182fd5b61070d846106ba565b9250602084013567ffffffffffffffff80821115610729578384fd5b818601915086601f83011261073c578384fd5b81358181111561074a578485fd5b87602082850101111561075b578485fd5b6020830194508093505050509250925092565b600082516107808184602087016107bd565b9190910192915050565b60208152600082518060208401526107a98160408501602087016107bd565b601f01601f19169190910160400192915050565b60005b838110156107d85781810151838201526020016107c0565b838111156103b7575050600091015256fe416464726573733a206c6f772d6c6576656c2064656c65676174652063616c6c206661696c6564a264697066735822122017a1c90c545513e5babf9883883aaf5dc4c74f987c81d2eec9879ebe7a807bac64736f6c63430008040033b53127684a568b3173ae13b9f8a6016e243e63b6e8ee1178d6a717850b5d6103360894a13ba1a3210667c828492db98dca3e2076cc3735a920a3ca505d382bbc416464726573733a206c6f772d6c6576656c2064656c65676174652063616c6c206661696c6564a264697066735822122088cdda54c5631824b6523ca4855f3ad67d9688aeb118d7c715033233b88e29d164736f6c63430008040033",
  "devdoc": {
    "events": {
      "CommunityAdded(address,address[],uint256,uint256,uint256,uint256,uint256,uint256,uint256)": {
        "params": {
          "baseInterval": "Value of the baseInterval",
          "claimAmount": "Value of the claimAmount",
          "communityAddress": "Address of the community that has been added",
          "decreaseStep": "Value of the decreaseStep",
          "incrementInterval": "Value of the incrementInterval",
          "managers": "Addresses of the initial managers",
          "maxClaim": "Value of the maxClaim",
          "maxTranche": "Value of the maxTranche For further information regarding each parameter, see *Community* smart contract initialize method.",
          "minTranche": "Value of the minTranche"
        }
      },
      "CommunityFunded(address,uint256)": {
        "params": {
          "amount": "Amount of the funding",
          "community": "Address of the community"
        }
      },
      "CommunityMigrated(address[],address,address)": {
        "params": {
          "communityAddress": "New community address",
          "managers": "Addresses of the new community's initial managers",
          "previousCommunityAddress": "Old community address"
        }
      },
      "CommunityRemoved(address)": {
        "params": {
          "communityAddress": "Address of the community that has been removed"
        }
      },
      "CommunityTemplateUpdated(address,address)": {
        "params": {
          "newCommunityTemplate": "New communityTemplate address",
          "oldCommunityTemplate": "Old communityTemplate address"
        }
      },
      "TransferERC20(address,address,uint256)": {
        "params": {
          "amount": "Amount of the transaction",
          "to": "Address of the receiver",
          "token": "ERC20 token address"
        }
      },
      "TreasuryUpdated(address,address)": {
        "params": {
          "newTreasury": "New treasury address",
          "oldTreasury": "Old treasury address"
        }
      }
    },
    "kind": "dev",
    "methods": {
      "addCommunity(address[],uint256,uint256,uint256,uint256,uint256,uint256,uint256)": {
        "params": {
          "_baseInterval": "base interval to start claiming",
          "_claimAmount": "base amount to be claim by the beneficiary",
          "_decreaseStep": "value decreased from maxClaim for every beneficiary added",
          "_incrementInterval": "increment interval used in each claim",
          "_managers": "addresses of the community managers",
          "_maxClaim": "limit that a beneficiary can claim at in total",
          "_maxTranche": "maximum amount that the community will receive when requesting funds",
          "_minTranche": "minimum amount that the community will receive when requesting funds"
        }
      },
      "addManagerToCommunity(address,address)": {
        "params": {
          "_account": "address to be added as community manager",
          "_community": "address of the community"
        }
      },
      "communityListAt(uint256)": {
        "params": {
          "_index": "index of the community"
        },
        "returns": {
          "_0": "address of the community"
        }
      },
      "communityListLength()": {
        "returns": {
          "_0": "uint256 number of communities"
        }
      },
      "fundCommunity()": {
        "details": "Funds an existing community if it hasn't enough funds"
      },
      "initialize(address,address)": {
        "params": {
          "_cUSD": "Address of the cUSD token",
          "_communityTemplate": "Address of the Community implementation                              used for deploying new communities"
        }
      },
      "migrateCommunity(address[],address)": {
        "params": {
          "_managers": "address of the community managers",
          "_previousCommunity": "address of the community to be migrated"
        }
      },
      "owner()": {
        "details": "Returns the address of the current owner."
      },
      "removeCommunity(address)": {
        "params": {
          "_community": "address of the community"
        }
      },
      "renounceOwnership()": {
        "details": "Leaves the contract without owner. It will not be possible to call `onlyOwner` functions anymore. Can only be called by the current owner. NOTE: Renouncing ownership will leave the contract without an owner, thereby removing any functionality that is only available to the owner."
      },
      "transfer(address,address,uint256)": {
        "params": {
          "_amount": "amount of the transaction",
          "_to": "address of the receiver",
          "_token": "address of the ERC20 token"
        }
      },
      "transferFromCommunity(address,address,address,uint256)": {
        "params": {
          "_amount": "amount of the transaction",
          "_community": "address of the community",
          "_to": "address of the receiver",
          "_token": "address of the ERC20 token"
        }
      },
      "transferOwnership(address)": {
        "details": "Transfers ownership of the contract to a new account (`newOwner`). Can only be called by the current owner."
      },
      "updateBeneficiaryParams(address,uint256,uint256,uint256,uint256,uint256)": {
        "params": {
          "_baseInterval": "base interval to start claiming",
          "_claimAmount": "base amount to be claim by the beneficiary",
          "_community": "address of the community",
          "_decreaseStep": "value decreased from maxClaim each time a is beneficiary added",
          "_incrementInterval": "increment interval used in each claim",
          "_maxClaim": "limit that a beneficiary can claim  in total"
        }
      },
      "updateCommunityParams(address,uint256,uint256)": {
        "params": {
          "_community": "address of the community",
          "_maxTranche": "maximum amount that the community will receive when requesting funds",
          "_minTranche": "minimum amount that the community will receive when requesting funds"
        }
      },
      "updateCommunityTemplate(address)": {
        "params": {
          "_newCommunityTemplate": "address of the new communityTemplate contract"
        }
      },
      "updateProxyImplementation(address,address)": {
        "params": {
          "_communityProxy": "address of the community",
          "_newCommunityTemplate": "address of new implementation contract"
        }
      },
      "updateTreasury(address)": {
        "params": {
          "_newTreasury": "address of the new treasury contract"
        }
      }
    },
    "version": 1
  },
  "userdoc": {
    "events": {
      "CommunityAdded(address,address[],uint256,uint256,uint256,uint256,uint256,uint256,uint256)": {
        "notice": "Triggered when a community has been added"
      },
      "CommunityFunded(address,uint256)": {
        "notice": "Triggered when a community has been funded"
      },
      "CommunityMigrated(address[],address,address)": {
        "notice": "Triggered when a community has been migrated"
      },
      "CommunityRemoved(address)": {
        "notice": "Triggered when a community has been removed"
      },
      "CommunityTemplateUpdated(address,address)": {
        "notice": "Triggered when the communityTemplate address has been updated"
      },
      "TransferERC20(address,address,uint256)": {
        "notice": "Triggered when an amount of an ERC20 has been transferred from this contract to an address"
      },
      "TreasuryUpdated(address,address)": {
        "notice": "Triggered when the treasury address has been updated"
      }
    },
    "kind": "user",
    "methods": {
      "addCommunity(address[],uint256,uint256,uint256,uint256,uint256,uint256,uint256)": {
        "notice": "Adds a new community"
      },
      "addManagerToCommunity(address,address)": {
        "notice": "Adds a new manager to a community"
      },
      "communityListAt(uint256)": {
        "notice": "Returns the address of a community from communityList"
      },
      "communityListLength()": {
        "notice": "Returns the number of communities"
      },
      "getVersion()": {
        "notice": "Returns the current implementation version"
      },
      "initialize(address,address)": {
        "notice": "Used to initialize a new CommunityAdmin contract"
      },
      "migrateCommunity(address[],address)": {
        "notice": "Migrates a community by deploying a new contract."
      },
      "removeCommunity(address)": {
        "notice": "Removes an existing community. All community funds are transferred to the treasury"
      },
      "transfer(address,address,uint256)": {
        "notice": "Transfers an amount of an ERC20 from this contract to an address"
      },
      "transferFromCommunity(address,address,address,uint256)": {
        "notice": "Transfers an amount of an ERC20 from  community to an address"
      },
      "updateBeneficiaryParams(address,uint256,uint256,uint256,uint256,uint256)": {
        "notice": "Updates the beneficiary params of a community"
      },
      "updateCommunityParams(address,uint256,uint256)": {
        "notice": "Updates params of a community"
      },
      "updateCommunityTemplate(address)": {
        "notice": "Updates the address of the the communityTemplate"
      },
      "updateProxyImplementation(address,address)": {
        "notice": "Updates proxy implementation address of a community"
      },
      "updateTreasury(address)": {
        "notice": "Updates the address of the treasury"
      }
    },
    "notice": "Welcome to CommunityAdmin, the main contract. This is an administrative (for now) contract where the admins have control over the list of communities. Being only able to add and remove communities",
    "version": 1
  },
  "storageLayout": {
    "storage": [
      {
        "astId": 538,
        "contract": "contracts/community/CommunityAdminImplementation.sol:CommunityAdminImplementation",
        "label": "_initialized",
        "offset": 0,
        "slot": "0",
        "type": "t_bool"
      },
      {
        "astId": 541,
        "contract": "contracts/community/CommunityAdminImplementation.sol:CommunityAdminImplementation",
        "label": "_initializing",
        "offset": 1,
        "slot": "0",
        "type": "t_bool"
      },
      {
        "astId": 792,
        "contract": "contracts/community/CommunityAdminImplementation.sol:CommunityAdminImplementation",
        "label": "__gap",
        "offset": 0,
        "slot": "1",
        "type": "t_array(t_uint256)50_storage"
      },
      {
        "astId": 418,
        "contract": "contracts/community/CommunityAdminImplementation.sol:CommunityAdminImplementation",
        "label": "_owner",
        "offset": 0,
        "slot": "51",
        "type": "t_address"
      },
      {
        "astId": 531,
        "contract": "contracts/community/CommunityAdminImplementation.sol:CommunityAdminImplementation",
        "label": "__gap",
        "offset": 0,
        "slot": "52",
        "type": "t_array(t_uint256)49_storage"
      },
      {
        "astId": 705,
        "contract": "contracts/community/CommunityAdminImplementation.sol:CommunityAdminImplementation",
        "label": "_status",
        "offset": 0,
        "slot": "101",
        "type": "t_uint256"
      },
      {
        "astId": 748,
        "contract": "contracts/community/CommunityAdminImplementation.sol:CommunityAdminImplementation",
        "label": "__gap",
        "offset": 0,
        "slot": "102",
        "type": "t_array(t_uint256)49_storage"
      },
      {
        "astId": 9674,
        "contract": "contracts/community/CommunityAdminImplementation.sol:CommunityAdminImplementation",
        "label": "cUSD",
        "offset": 0,
        "slot": "151",
        "type": "t_contract(IERC20)3196"
      },
      {
        "astId": 9678,
        "contract": "contracts/community/CommunityAdminImplementation.sol:CommunityAdminImplementation",
        "label": "treasury",
        "offset": 0,
        "slot": "152",
        "type": "t_contract(ITreasury)18639"
      },
      {
        "astId": 9682,
        "contract": "contracts/community/CommunityAdminImplementation.sol:CommunityAdminImplementation",
        "label": "communityTemplate",
        "offset": 0,
        "slot": "153",
        "type": "t_contract(ICommunity)10012"
      },
      {
        "astId": 9686,
        "contract": "contracts/community/CommunityAdminImplementation.sol:CommunityAdminImplementation",
        "label": "communityProxyAdmin",
        "offset": 0,
        "slot": "154",
        "type": "t_contract(ProxyAdmin)2316"
      },
      {
        "astId": 9692,
        "contract": "contracts/community/CommunityAdminImplementation.sol:CommunityAdminImplementation",
        "label": "communities",
        "offset": 0,
        "slot": "155",
        "type": "t_mapping(t_address,t_enum(CommunityState)10023)"
      },
      {
        "astId": 9695,
        "contract": "contracts/community/CommunityAdminImplementation.sol:CommunityAdminImplementation",
        "label": "communityList",
        "offset": 0,
        "slot": "156",
        "type": "t_struct(AddressSet)5061_storage"
      }
    ],
    "types": {
      "t_address": {
        "encoding": "inplace",
        "label": "address",
        "numberOfBytes": "20"
      },
      "t_array(t_bytes32)dyn_storage": {
        "base": "t_bytes32",
        "encoding": "dynamic_array",
        "label": "bytes32[]",
        "numberOfBytes": "32"
      },
      "t_array(t_uint256)49_storage": {
        "base": "t_uint256",
        "encoding": "inplace",
        "label": "uint256[49]",
        "numberOfBytes": "1568"
      },
      "t_array(t_uint256)50_storage": {
        "base": "t_uint256",
        "encoding": "inplace",
        "label": "uint256[50]",
        "numberOfBytes": "1600"
      },
      "t_bool": {
        "encoding": "inplace",
        "label": "bool",
        "numberOfBytes": "1"
      },
      "t_bytes32": {
        "encoding": "inplace",
        "label": "bytes32",
        "numberOfBytes": "32"
      },
      "t_contract(ICommunity)10012": {
        "encoding": "inplace",
        "label": "contract ICommunity",
        "numberOfBytes": "20"
      },
      "t_contract(IERC20)3196": {
        "encoding": "inplace",
        "label": "contract IERC20",
        "numberOfBytes": "20"
      },
      "t_contract(ITreasury)18639": {
        "encoding": "inplace",
        "label": "contract ITreasury",
        "numberOfBytes": "20"
      },
      "t_contract(ProxyAdmin)2316": {
        "encoding": "inplace",
        "label": "contract ProxyAdmin",
        "numberOfBytes": "20"
      },
      "t_enum(CommunityState)10023": {
        "encoding": "inplace",
        "label": "enum ICommunityAdmin.CommunityState",
        "numberOfBytes": "1"
      },
      "t_mapping(t_address,t_enum(CommunityState)10023)": {
        "encoding": "mapping",
        "key": "t_address",
        "label": "mapping(address => enum ICommunityAdmin.CommunityState)",
        "numberOfBytes": "32",
        "value": "t_enum(CommunityState)10023"
      },
      "t_mapping(t_bytes32,t_uint256)": {
        "encoding": "mapping",
        "key": "t_bytes32",
        "label": "mapping(bytes32 => uint256)",
        "numberOfBytes": "32",
        "value": "t_uint256"
      },
      "t_struct(AddressSet)5061_storage": {
        "encoding": "inplace",
        "label": "struct EnumerableSet.AddressSet",
        "members": [
          {
            "astId": 5060,
            "contract": "contracts/community/CommunityAdminImplementation.sol:CommunityAdminImplementation",
            "label": "_inner",
            "offset": 0,
            "slot": "0",
            "type": "t_struct(Set)4790_storage"
          }
        ],
        "numberOfBytes": "64"
      },
      "t_struct(Set)4790_storage": {
        "encoding": "inplace",
        "label": "struct EnumerableSet.Set",
        "members": [
          {
            "astId": 4785,
            "contract": "contracts/community/CommunityAdminImplementation.sol:CommunityAdminImplementation",
            "label": "_values",
            "offset": 0,
            "slot": "0",
            "type": "t_array(t_bytes32)dyn_storage"
          },
          {
            "astId": 4789,
            "contract": "contracts/community/CommunityAdminImplementation.sol:CommunityAdminImplementation",
            "label": "_indexes",
            "offset": 0,
            "slot": "1",
            "type": "t_mapping(t_bytes32,t_uint256)"
          }
        ],
        "numberOfBytes": "64"
      },
      "t_uint256": {
        "encoding": "inplace",
        "label": "uint256",
        "numberOfBytes": "32"
      }
    }
  }
}