{
  "address": "0xBd7dF9aF8ba747D933cF190aE0BfF3187B9058fF",
  "abi": [
    {
      "anonymous": false,
      "inputs": [
        {
          "indexed": true,
          "internalType": "address",
          "name": "_communityAddress",
          "type": "address"
        },
        {
          "indexed": true,
          "internalType": "address",
          "name": "_firstManager",
          "type": "address"
        },
        {
          "indexed": false,
          "internalType": "uint256",
          "name": "_claimAmount",
          "type": "uint256"
        },
        {
          "indexed": false,
          "internalType": "uint256",
          "name": "_maxClaim",
          "type": "uint256"
        },
        {
          "indexed": false,
          "internalType": "uint256",
          "name": "_baseInterval",
          "type": "uint256"
        },
        {
          "indexed": false,
          "internalType": "uint256",
          "name": "_incrementInterval",
          "type": "uint256"
        }
      ],
      "name": "CommunityAdded",
      "type": "event"
    },
    {
      "anonymous": false,
      "inputs": [
        {
          "indexed": true,
          "internalType": "uint256",
          "name": "_newCommunitMaxTranche",
          "type": "uint256"
        }
      ],
      "name": "CommunityMaxTrancheChanged",
      "type": "event"
    },
    {
      "anonymous": false,
      "inputs": [
        {
          "indexed": true,
          "internalType": "address",
          "name": "_firstManager",
          "type": "address"
        },
        {
          "indexed": true,
          "internalType": "address",
          "name": "_communityAddress",
          "type": "address"
        },
        {
          "indexed": true,
          "internalType": "address",
          "name": "_previousCommunityAddress",
          "type": "address"
        }
      ],
      "name": "CommunityMigrated",
      "type": "event"
    },
    {
      "anonymous": false,
      "inputs": [
        {
          "indexed": true,
          "internalType": "uint256",
          "name": "_newCommunityMinTranche",
          "type": "uint256"
        }
      ],
      "name": "CommunityMinTrancheChanged",
      "type": "event"
    },
    {
      "anonymous": false,
      "inputs": [
        {
          "indexed": true,
          "internalType": "address",
          "name": "_communityAddress",
          "type": "address"
        }
      ],
      "name": "CommunityRemoved",
      "type": "event"
    },
    {
      "anonymous": false,
      "inputs": [
        {
          "indexed": true,
          "internalType": "address",
          "name": "previousOwner",
          "type": "address"
        },
        {
          "indexed": true,
          "internalType": "address",
          "name": "newOwner",
          "type": "address"
        }
      ],
      "name": "OwnershipTransferred",
      "type": "event"
    },
    {
      "inputs": [],
      "name": "VERSION",
      "outputs": [
        {
          "internalType": "uint256",
          "name": "",
          "type": "uint256"
        }
      ],
      "stateMutability": "view",
      "type": "function"
    },
    {
      "inputs": [
        {
          "internalType": "address",
          "name": "firstManager_",
          "type": "address"
        },
        {
          "internalType": "uint256",
          "name": "claimAmount_",
          "type": "uint256"
        },
        {
          "internalType": "uint256",
          "name": "maxClaim_",
          "type": "uint256"
        },
        {
          "internalType": "uint256",
          "name": "baseInterval_",
          "type": "uint256"
        },
        {
          "internalType": "uint256",
          "name": "incrementInterval_",
          "type": "uint256"
        }
      ],
      "name": "addCommunity",
      "outputs": [],
      "stateMutability": "nonpayable",
      "type": "function"
    },
    {
      "inputs": [],
      "name": "cUSD",
      "outputs": [
        {
          "internalType": "contract IERC20",
          "name": "",
          "type": "address"
        }
      ],
      "stateMutability": "view",
      "type": "function"
    },
    {
      "inputs": [
        {
          "internalType": "address",
          "name": "communityAddress_",
          "type": "address"
        }
      ],
      "name": "communities",
      "outputs": [
        {
          "internalType": "enum ICommunityAdmin.CommunityState",
          "name": "",
          "type": "uint8"
        }
      ],
      "stateMutability": "view",
      "type": "function"
    },
    {
      "inputs": [
        {
          "internalType": "uint256",
          "name": "index",
          "type": "uint256"
        }
      ],
      "name": "communityList",
      "outputs": [
        {
          "internalType": "address",
          "name": "",
          "type": "address"
        }
      ],
      "stateMutability": "view",
      "type": "function"
    },
    {
      "inputs": [],
      "name": "communityListLength",
      "outputs": [
        {
          "internalType": "uint256",
          "name": "",
          "type": "uint256"
        }
      ],
      "stateMutability": "view",
      "type": "function"
    },
    {
      "inputs": [],
      "name": "communityMaxTranche",
      "outputs": [
        {
          "internalType": "uint256",
          "name": "",
          "type": "uint256"
        }
      ],
      "stateMutability": "view",
      "type": "function"
    },
    {
      "inputs": [],
      "name": "communityMinTranche",
      "outputs": [
        {
          "internalType": "uint256",
          "name": "",
          "type": "uint256"
        }
      ],
      "stateMutability": "view",
      "type": "function"
    },
    {
      "inputs": [],
      "name": "fundCommunity",
      "outputs": [],
      "stateMutability": "nonpayable",
      "type": "function"
    },
    {
      "inputs": [
        {
          "internalType": "contract ICommunity",
          "name": "communityTemplate_",
          "type": "address"
        },
        {
          "internalType": "contract IERC20",
          "name": "cUSD_",
          "type": "address"
        },
        {
          "internalType": "uint256",
          "name": "communityMinTranche_",
          "type": "uint256"
        },
        {
          "internalType": "uint256",
          "name": "communityMaxTranche_",
          "type": "uint256"
        }
      ],
      "name": "initialize",
      "outputs": [],
      "stateMutability": "nonpayable",
      "type": "function"
    },
    {
      "inputs": [
        {
          "internalType": "address",
          "name": "firstManager_",
          "type": "address"
        },
        {
          "internalType": "contract ICommunity",
          "name": "previousCommunity_",
          "type": "address"
        },
        {
          "internalType": "contract ICommunityAdmin",
          "name": "newCommunityAdminHelper_",
          "type": "address"
        }
      ],
      "name": "migrateCommunity",
      "outputs": [],
      "stateMutability": "nonpayable",
      "type": "function"
    },
    {
      "inputs": [],
      "name": "owner",
      "outputs": [
        {
          "internalType": "address",
          "name": "",
          "type": "address"
        }
      ],
      "stateMutability": "view",
      "type": "function"
    },
    {
      "inputs": [
        {
          "internalType": "contract ICommunity",
          "name": "community_",
          "type": "address"
        }
      ],
      "name": "removeCommunity",
      "outputs": [],
      "stateMutability": "nonpayable",
      "type": "function"
    },
    {
      "inputs": [],
      "name": "renounceOwnership",
      "outputs": [],
      "stateMutability": "nonpayable",
      "type": "function"
    },
    {
      "inputs": [
        {
          "internalType": "uint256",
          "name": "newCommunityMaxTranche_",
          "type": "uint256"
        }
      ],
      "name": "setCommunityMaxTranche",
      "outputs": [],
      "stateMutability": "nonpayable",
      "type": "function"
    },
    {
      "inputs": [
        {
          "internalType": "uint256",
          "name": "newCommunityMinTranche_",
          "type": "uint256"
        }
      ],
      "name": "setCommunityMinTranche",
      "outputs": [],
      "stateMutability": "nonpayable",
      "type": "function"
    },
    {
      "inputs": [
        {
          "internalType": "contract ITreasury",
          "name": "newTreasury_",
          "type": "address"
        }
      ],
      "name": "setTreasury",
      "outputs": [],
      "stateMutability": "nonpayable",
      "type": "function"
    },
    {
      "inputs": [
        {
          "internalType": "contract IERC20",
          "name": "erc20_",
          "type": "address"
        },
        {
          "internalType": "address",
          "name": "to_",
          "type": "address"
        },
        {
          "internalType": "uint256",
          "name": "amount_",
          "type": "uint256"
        }
      ],
      "name": "transfer",
      "outputs": [],
      "stateMutability": "nonpayable",
      "type": "function"
    },
    {
      "inputs": [
        {
          "internalType": "contract ICommunity",
          "name": "community_",
          "type": "address"
        },
        {
          "internalType": "contract IERC20",
          "name": "erc20_",
          "type": "address"
        },
        {
          "internalType": "address",
          "name": "to_",
          "type": "address"
        },
        {
          "internalType": "uint256",
          "name": "amount_",
          "type": "uint256"
        }
      ],
      "name": "transferFromCommunity",
      "outputs": [],
      "stateMutability": "nonpayable",
      "type": "function"
    },
    {
      "inputs": [
        {
          "internalType": "address",
          "name": "newOwner",
          "type": "address"
        }
      ],
      "name": "transferOwnership",
      "outputs": [],
      "stateMutability": "nonpayable",
      "type": "function"
    },
    {
      "inputs": [],
      "name": "treasury",
      "outputs": [
        {
          "internalType": "contract ITreasury",
          "name": "",
          "type": "address"
        }
      ],
      "stateMutability": "view",
      "type": "function"
    },
    {
      "inputs": [
        {
          "internalType": "address",
          "name": "_communityProxy",
          "type": "address"
        },
        {
          "internalType": "address",
          "name": "_newLogic",
          "type": "address"
        }
      ],
      "name": "updateProxyImplementation",
      "outputs": [],
      "stateMutability": "nonpayable",
      "type": "function"
    }
  ],
  "transactionHash": "0x87ecd3e7d2679056cd69fceb9c0930283470321bd660e012645a39602a6bc1ad",
  "args": [],
  "solcInputHash": "3bc71f9a138f3878c759acccb5102221",
  "bytecode": "0x608060405234801561001057600080fd5b50616567806100206000396000f3fe60806040523480156200001157600080fd5b5060043610620001605760003560e01c80638774be9b11620000c9578063beabacc81162000087578063beabacc81462000373578063eb990c591462000393578063f00d096414620003b3578063f0f4426014620003d5578063f2fde38b14620003f5578063ffa1ad7414620004155762000160565b80638774be9b14620002bb5780638da5cb5b14620002db5780638e30971b14620002fd57806392634540146200031d578063a681b7ba146200033d5762000160565b806339f539a2116200012357806339f539a214620001f55780635e347360146200021557806361d027b31462000235578063715018a614620002575780637f2813d21462000263578063868a7e8814620002995762000160565b80630b4afb1b1462000165578063174a71d714620001855780631d2c935914620001915780631fccf67214620001b1578063255cef6914620001d3575b600080fd5b6200018360048036038101906200017d91906200282d565b62000437565b005b6200018f62000647565b005b620001af6004803603810190620001a9919062002919565b62000817565b005b620001bb62000913565b604051620001ca919062002f6b565b60405180910390f35b620001dd6200093c565b604051620001ec91906200320a565b60405180910390f35b6200021360048036038101906200020d91906200278a565b62000946565b005b6200023360048036038101906200022d919062002a8b565b62000a60565b005b6200023f62000b61565b6040516200024e919062002fc5565b60405180910390f35b6200026162000b8b565b005b6200028160048036038101906200027b919062002758565b62000c1c565b6040516200029091906200300f565b60405180910390f35b620002a362000c72565b604051620002b291906200320a565b60405180910390f35b620002d96004803603810190620002d39190620027d1565b62000c7c565b005b620002e5620011d2565b604051620002f4919062002e33565b60405180910390f35b6200031b600480360381019062000315919062002a8b565b620011fc565b005b6200033b6004803603810190620003359190620028e7565b620012fd565b005b6200035b600480360381019062000355919062002a8b565b62001431565b6040516200036a919062002e33565b60405180910390f35b6200039160048036038101906200038b9190620029fd565b62001450565b005b620003b16004803603810190620003ab91906200298b565b62001505565b005b620003bd62001737565b604051620003cc91906200320a565b60405180910390f35b620003f36004803603810190620003ed919062002a59565b6200174a565b005b6200041360048036038101906200040d919062002758565b62001811565b005b6200041f62001915565b6040516200042e91906200320a565b60405180910390f35b620004416200191a565b73ffffffffffffffffffffffffffffffffffffffff1662000461620011d2565b73ffffffffffffffffffffffffffffffffffffffff1614620004ba576040517f08c379a0000000000000000000000000000000000000000000000000000000008152600401620004b190620030fa565b60405180910390fd5b6000620004cd8686868686600062001922565b9050600073ffffffffffffffffffffffffffffffffffffffff168173ffffffffffffffffffffffffffffffffffffffff16141562000542576040517f08c379a0000000000000000000000000000000000000000000000000000000008152600401620005399062003182565b60405180910390fd5b6001600660008373ffffffffffffffffffffffffffffffffffffffff1673ffffffffffffffffffffffffffffffffffffffff16815260200190815260200160002060006101000a81548160ff02191690836002811115620005a857620005a7620035a4565b5b0217905550620005c381600762001ad590919063ffffffff16565b508573ffffffffffffffffffffffffffffffffffffffff168173ffffffffffffffffffffffffffffffffffffffff167f5864130135b8d46c4808bc474964778f56ef5f98402be58df45a515edd08d3048787878760405162000629949392919062003227565b60405180910390a36200063f8160045462001b07565b505050505050565b600160028111156200065e576200065d620035a4565b5b600660003373ffffffffffffffffffffffffffffffffffffffff1673ffffffffffffffffffffffffffffffffffffffff16815260200190815260200160002060009054906101000a900460ff166002811115620006c057620006bf620035a4565b5b1462000703576040517f08c379a0000000000000000000000000000000000000000000000000000000008152600401620006fa906200311c565b60405180910390fd5b60045460008054906101000a900473ffffffffffffffffffffffffffffffffffffffff1673ffffffffffffffffffffffffffffffffffffffff166370a08231336040518263ffffffff1660e01b815260040162000761919062002e33565b60206040518083038186803b1580156200077a57600080fd5b505afa1580156200078f573d6000803e3d6000fd5b505050506040513d601f19601f82011682018060405250810190620007b5919062002abd565b1115620007f9576040517f08c379a0000000000000000000000000000000000000000000000000000000008152600401620007f090620031e8565b60405180910390fd5b6000620008063362001c2f565b905062000814338262001b07565b50565b620008216200191a565b73ffffffffffffffffffffffffffffffffffffffff1662000841620011d2565b73ffffffffffffffffffffffffffffffffffffffff16146200089a576040517f08c379a00000000000000000000000000000000000000000000000000000000081526004016200089190620030fa565b60405180910390fd5b8373ffffffffffffffffffffffffffffffffffffffff16631501bf038484846040518463ffffffff1660e01b8152600401620008d99392919062002f88565b600060405180830381600087803b158015620008f457600080fd5b505af115801562000909573d6000803e3d6000fd5b5050505050505050565b60008060009054906101000a900473ffffffffffffffffffffffffffffffffffffffff16905090565b6000600554905090565b620009506200191a565b73ffffffffffffffffffffffffffffffffffffffff1662000970620011d2565b73ffffffffffffffffffffffffffffffffffffffff1614620009c9576040517f08c379a0000000000000000000000000000000000000000000000000000000008152600401620009c090620030fa565b60405180910390fd5b600360009054906101000a900473ffffffffffffffffffffffffffffffffffffffff1673ffffffffffffffffffffffffffffffffffffffff166399a88ec483836040518363ffffffff1660e01b815260040162000a2892919062002fe2565b600060405180830381600087803b15801562000a4357600080fd5b505af115801562000a58573d6000803e3d6000fd5b505050505050565b62000a6a6200191a565b73ffffffffffffffffffffffffffffffffffffffff1662000a8a620011d2565b73ffffffffffffffffffffffffffffffffffffffff161462000ae3576040517f08c379a000000000000000000000000000000000000000000000000000000000815260040162000ada90620030fa565b60405180910390fd5b806004541062000b2a576040517f08c379a000000000000000000000000000000000000000000000000000000000815260040162000b2190620030d8565b60405180910390fd5b80600581905550807f99d204dd7ae6365474b11bb0e2750714699dc57fbe2d0b7c1bef72bb42f4405260405160405180910390a250565b6000600160009054906101000a900473ffffffffffffffffffffffffffffffffffffffff16905090565b62000b956200191a565b73ffffffffffffffffffffffffffffffffffffffff1662000bb5620011d2565b73ffffffffffffffffffffffffffffffffffffffff161462000c0e576040517f08c379a000000000000000000000000000000000000000000000000000000000815260040162000c0590620030fa565b60405180910390fd5b62000c1a600062001ecd565b565b6000600660008373ffffffffffffffffffffffffffffffffffffffff1673ffffffffffffffffffffffffffffffffffffffff16815260200190815260200160002060009054906101000a900460ff169050919050565b6000600454905090565b62000c866200191a565b73ffffffffffffffffffffffffffffffffffffffff1662000ca6620011d2565b73ffffffffffffffffffffffffffffffffffffffff161462000cff576040517f08c379a000000000000000000000000000000000000000000000000000000000815260040162000cf690620030fa565b60405180910390fd5b6002600660008473ffffffffffffffffffffffffffffffffffffffff1673ffffffffffffffffffffffffffffffffffffffff16815260200190815260200160002060006101000a81548160ff0219169083600281111562000d655762000d64620035a4565b5b0217905550600073ffffffffffffffffffffffffffffffffffffffff168273ffffffffffffffffffffffffffffffffffffffff16141562000ddd576040517f08c379a000000000000000000000000000000000000000000000000000000000815260040162000dd4906200313e565b60405180910390fd5b600062000ff3848473ffffffffffffffffffffffffffffffffffffffff1663830953ab6040518163ffffffff1660e01b815260040160206040518083038186803b15801562000e2b57600080fd5b505afa15801562000e40573d6000803e3d6000fd5b505050506040513d601f19601f8201168201806040525081019062000e66919062002abd565b8573ffffffffffffffffffffffffffffffffffffffff1663d4938db36040518163ffffffff1660e01b815260040160206040518083038186803b15801562000ead57600080fd5b505afa15801562000ec2573d6000803e3d6000fd5b505050506040513d601f19601f8201168201806040525081019062000ee8919062002abd565b8673ffffffffffffffffffffffffffffffffffffffff16630e5b7c536040518163ffffffff1660e01b815260040160206040518083038186803b15801562000f2f57600080fd5b505afa15801562000f44573d6000803e3d6000fd5b505050506040513d601f19601f8201168201806040525081019062000f6a919062002abd565b8773ffffffffffffffffffffffffffffffffffffffff1663597be18b6040518163ffffffff1660e01b815260040160206040518083038186803b15801562000fb157600080fd5b505afa15801562000fc6573d6000803e3d6000fd5b505050506040513d601f19601f8201168201806040525081019062000fec919062002abd565b8862001922565b9050600073ffffffffffffffffffffffffffffffffffffffff168173ffffffffffffffffffffffffffffffffffffffff16141562001068576040517f08c379a00000000000000000000000000000000000000000000000000000000081526004016200105f906200313e565b60405180910390fd5b8273ffffffffffffffffffffffffffffffffffffffff16631fe9578e82866040518363ffffffff1660e01b8152600401620010a592919062002f3e565b600060405180830381600087803b158015620010c057600080fd5b505af1158015620010d5573d6000803e3d6000fd5b505050506001600660008373ffffffffffffffffffffffffffffffffffffffff1673ffffffffffffffffffffffffffffffffffffffff16815260200190815260200160002060006101000a81548160ff021916908360028111156200113f576200113e620035a4565b5b02179055506200115a81600762001ad590919063ffffffff16565b508273ffffffffffffffffffffffffffffffffffffffff168173ffffffffffffffffffffffffffffffffffffffff168573ffffffffffffffffffffffffffffffffffffffff167f98c0ae41ed9dcfef204d20409e01d4051eee4da4276aa4b5fa1cb3cf01403d6860405160405180910390a450505050565b6000603c60009054906101000a900473ffffffffffffffffffffffffffffffffffffffff16905090565b620012066200191a565b73ffffffffffffffffffffffffffffffffffffffff1662001226620011d2565b73ffffffffffffffffffffffffffffffffffffffff16146200127f576040517f08c379a00000000000000000000000000000000000000000000000000000000081526004016200127690620030fa565b60405180910390fd5b6005548110620012c6576040517f08c379a0000000000000000000000000000000000000000000000000000000008152600401620012bd9062003094565b60405180910390fd5b80600481905550807f61d018ca7dd3e2bb8e9a1994153b31c93371ac0e87da1f4dfcfa73e31a332fb160405160405180910390a250565b620013076200191a565b73ffffffffffffffffffffffffffffffffffffffff1662001327620011d2565b73ffffffffffffffffffffffffffffffffffffffff161462001380576040517f08c379a00000000000000000000000000000000000000000000000000000000081526004016200137790620030fa565b60405180910390fd5b6002600660008373ffffffffffffffffffffffffffffffffffffffff1673ffffffffffffffffffffffffffffffffffffffff16815260200190815260200160002060006101000a81548160ff02191690836002811115620013e657620013e5620035a4565b5b02179055508073ffffffffffffffffffffffffffffffffffffffff167fa285b77d62d36ec6881b2cbc019c53874eb061798176f3577f2beab0848d16c660405160405180910390a250565b60006200144982600762001f9390919063ffffffff16565b9050919050565b6200145a6200191a565b73ffffffffffffffffffffffffffffffffffffffff166200147a620011d2565b73ffffffffffffffffffffffffffffffffffffffff1614620014d3576040517f08c379a0000000000000000000000000000000000000000000000000000000008152600401620014ca90620030fa565b60405180910390fd5b6200150082828573ffffffffffffffffffffffffffffffffffffffff1662001faf9092919063ffffffff16565b505050565b600960019054906101000a900460ff16806200152e5750600960009054906101000a900460ff16155b62001570576040517f08c379a00000000000000000000000000000000000000000000000000000000081526004016200156790620030b6565b60405180910390fd5b6000600960019054906101000a900460ff161590508015620015c3576001600960016101000a81548160ff0219169083151502179055506001600960006101000a81548160ff0219169083151502179055505b81831062001608576040517f08c379a0000000000000000000000000000000000000000000000000000000008152600401620015ff90620031c6565b60405180910390fd5b6200161262002039565b84600260006101000a81548173ffffffffffffffffffffffffffffffffffffffff021916908373ffffffffffffffffffffffffffffffffffffffff160217905550836000806101000a81548173ffffffffffffffffffffffffffffffffffffffff021916908373ffffffffffffffffffffffffffffffffffffffff1602179055508260048190555081600581905550604051620016af9062002684565b604051809103906000f080158015620016cc573d6000803e3d6000fd5b50600360006101000a81548173ffffffffffffffffffffffffffffffffffffffff021916908373ffffffffffffffffffffffffffffffffffffffff160217905550801562001730576000600960016101000a81548160ff0219169083151502179055505b5050505050565b600062001745600762002131565b905090565b620017546200191a565b73ffffffffffffffffffffffffffffffffffffffff1662001774620011d2565b73ffffffffffffffffffffffffffffffffffffffff1614620017cd576040517f08c379a0000000000000000000000000000000000000000000000000000000008152600401620017c490620030fa565b60405180910390fd5b80600160006101000a81548173ffffffffffffffffffffffffffffffffffffffff021916908373ffffffffffffffffffffffffffffffffffffffff16021790555050565b6200181b6200191a565b73ffffffffffffffffffffffffffffffffffffffff166200183b620011d2565b73ffffffffffffffffffffffffffffffffffffffff161462001894576040517f08c379a00000000000000000000000000000000000000000000000000000000081526004016200188b90620030fa565b60405180910390fd5b600073ffffffffffffffffffffffffffffffffffffffff168173ffffffffffffffffffffffffffffffffffffffff16141562001907576040517f08c379a0000000000000000000000000000000000000000000000000000000008152600401620018fe9062003050565b60405180910390fd5b620019128162001ecd565b50565b600181565b600033905090565b60006200192e6200191a565b73ffffffffffffffffffffffffffffffffffffffff166200194e620011d2565b73ffffffffffffffffffffffffffffffffffffffff1614620019a7576040517f08c379a00000000000000000000000000000000000000000000000000000000081526004016200199e90620030fa565b60405180910390fd5b6000600260009054906101000a900473ffffffffffffffffffffffffffffffffffffffff16600360009054906101000a900473ffffffffffffffffffffffffffffffffffffffff168989898989893060405160240162001a0e979695949392919062002ec1565b6040516020818303038152906040527fa8cec45f000000000000000000000000000000000000000000000000000000007bffffffffffffffffffffffffffffffffffffffffffffffffffffffff19166020820180517bffffffffffffffffffffffffffffffffffffffffffffffffffffffff838183161783525050505060405162001a999062002692565b62001aa79392919062002e50565b604051809103906000f08015801562001ac4573d6000803e3d6000fd5b509050809150509695505050505050565b600062001aff836000018373ffffffffffffffffffffffffffffffffffffffff1660001b62002148565b905092915050565b600160009054906101000a900473ffffffffffffffffffffffffffffffffffffffff1673ffffffffffffffffffffffffffffffffffffffff1663beabacc860008054906101000a900473ffffffffffffffffffffffffffffffffffffffff1684846040518463ffffffff1660e01b815260040162001b889392919062002f88565b600060405180830381600087803b15801562001ba357600080fd5b505af115801562001bb8573d6000803e3d6000fd5b505050508173ffffffffffffffffffffffffffffffffffffffff1663b809ee82826040518263ffffffff1660e01b815260040162001bf791906200320a565b600060405180830381600087803b15801562001c1257600080fd5b505af115801562001c27573d6000803e3d6000fd5b505050505050565b6000808273ffffffffffffffffffffffffffffffffffffffff1663431a801a6040518163ffffffff1660e01b815260040160206040518083038186803b15801562001c7957600080fd5b505afa15801562001c8e573d6000803e3d6000fd5b505050506040513d601f19601f8201168201806040525081019062001cb4919062002abd565b905060008373ffffffffffffffffffffffffffffffffffffffff1663830953ab6040518163ffffffff1660e01b815260040160206040518083038186803b15801562001cff57600080fd5b505afa15801562001d14573d6000803e3d6000fd5b505050506040513d601f19601f8201168201806040525081019062001d3a919062002abd565b905060008473ffffffffffffffffffffffffffffffffffffffff16639c01a4016040518163ffffffff1660e01b815260040160206040518083038186803b15801562001d8557600080fd5b505afa15801562001d9a573d6000803e3d6000fd5b505050506040513d601f19601f8201168201806040525081019062001dc0919062002abd565b905060008573ffffffffffffffffffffffffffffffffffffffff1663d6dbd9726040518163ffffffff1660e01b815260040160206040518083038186803b15801562001e0b57600080fd5b505afa15801562001e20573d6000803e3d6000fd5b505050506040513d601f19601f8201168201806040525081019062001e46919062002abd565b90506000828462001e5891906200334c565b828462001e669190620032b7565b866f0785ee10d5da46d900f436a00000000062001e8491906200334c565b62001e9091906200334c565b62001e9c919062003314565b905060045481101562001eaf5760045490505b60055481111562001ec05760055490505b8095505050505050919050565b6000603c60009054906101000a900473ffffffffffffffffffffffffffffffffffffffff16905081603c60006101000a81548173ffffffffffffffffffffffffffffffffffffffff021916908373ffffffffffffffffffffffffffffffffffffffff1602179055508173ffffffffffffffffffffffffffffffffffffffff168173ffffffffffffffffffffffffffffffffffffffff167f8be0079c531659141344cd1fd0a4f28419497f9722a3daafe3b4186f6b6457e060405160405180910390a35050565b600062001fa48360000183620021bc565b60001c905092915050565b620020348363a9059cbb60e01b848460405160240162001fd192919062002e94565b604051602081830303815290604052907bffffffffffffffffffffffffffffffffffffffffffffffffffffffff19166020820180517bffffffffffffffffffffffffffffffffffffffffffffffffffffffff8381831617835250505050620021ea565b505050565b600960019054906101000a900460ff1680620020625750600960009054906101000a900460ff16155b620020a4576040517f08c379a00000000000000000000000000000000000000000000000000000000081526004016200209b90620030b6565b60405180910390fd5b6000600960019054906101000a900460ff161590508015620020f7576001600960016101000a81548160ff0219169083151502179055506001600960006101000a81548160ff0219169083151502179055505b62002101620022b9565b6200210b6200239d565b80156200212e576000600960016101000a81548160ff0219169083151502179055505b50565b6000620021418260000162002495565b9050919050565b6000620021568383620024a6565b620021b1578260000182908060018154018082558091505060019003906000526020600020016000909190919091505582600001805490508360010160008481526020019081526020016000208190555060019050620021b6565b600090505b92915050565b6000826000018281548110620021d757620021d6620035d3565b5b9060005260206000200154905092915050565b60006200224e826040518060400160405280602081526020017f5361666545524332303a206c6f772d6c6576656c2063616c6c206661696c65648152508573ffffffffffffffffffffffffffffffffffffffff16620024c99092919063ffffffff16565b9050600081511115620022b45780806020019051810190620022719190620028b5565b620022b3576040517f08c379a0000000000000000000000000000000000000000000000000000000008152600401620022aa90620031a4565b60405180910390fd5b5b505050565b600960019054906101000a900460ff1680620022e25750600960009054906101000a900460ff16155b62002324576040517f08c379a00000000000000000000000000000000000000000000000000000000081526004016200231b90620030b6565b60405180910390fd5b6000600960019054906101000a900460ff16159050801562002377576001600960016101000a81548160ff0219169083151502179055506001600960006101000a81548160ff0219169083151502179055505b80156200239a576000600960016101000a81548160ff0219169083151502179055505b50565b600960019054906101000a900460ff1680620023c65750600960009054906101000a900460ff16155b62002408576040517f08c379a0000000000000000000000000000000000000000000000000000000008152600401620023ff90620030b6565b60405180910390fd5b6000600960019054906101000a900460ff1615905080156200245b576001600960016101000a81548160ff0219169083151502179055506001600960006101000a81548160ff0219169083151502179055505b6200246f620024696200191a565b62001ecd565b801562002492576000600960016101000a81548160ff0219169083151502179055505b50565b600081600001805490509050919050565b600080836001016000848152602001908152602001600020541415905092915050565b6060620024da8484600085620024e3565b90509392505050565b6060824710156200252b576040517f08c379a0000000000000000000000000000000000000000000000000000000008152600401620025229062003072565b60405180910390fd5b620025368562002605565b62002578576040517f08c379a00000000000000000000000000000000000000000000000000000000081526004016200256f9062003160565b60405180910390fd5b6000808673ffffffffffffffffffffffffffffffffffffffff168587604051620025a3919062002e1a565b60006040518083038185875af1925050503d8060008114620025e2576040519150601f19603f3d011682016040523d82523d6000602084013e620025e7565b606091505b5091509150620025f982828662002618565b92505050949350505050565b600080823b905060008111915050919050565b606083156200262a578290506200267d565b6000835111156200263e5782518084602001fd5b816040517f08c379a00000000000000000000000000000000000000000000000000000000081526004016200267491906200302c565b60405180910390fd5b9392505050565b610fa08062003b3583390190565b611a5d8062004ad583390190565b600081359050620026b18162003a7e565b92915050565b600081519050620026c88162003a98565b92915050565b600081359050620026df8162003ab2565b92915050565b600081359050620026f68162003acc565b92915050565b6000813590506200270d8162003ae6565b92915050565b600081359050620027248162003b00565b92915050565b6000813590506200273b8162003b1a565b92915050565b600081519050620027528162003b1a565b92915050565b60006020828403121562002771576200277062003602565b5b60006200278184828501620026a0565b91505092915050565b60008060408385031215620027a457620027a362003602565b5b6000620027b485828601620026a0565b9250506020620027c785828601620026a0565b9150509250929050565b600080600060608486031215620027ed57620027ec62003602565b5b6000620027fd86828701620026a0565b93505060206200281086828701620026e5565b92505060406200282386828701620026ce565b9150509250925092565b600080600080600060a086880312156200284c576200284b62003602565b5b60006200285c88828901620026a0565b95505060206200286f888289016200272a565b945050604062002882888289016200272a565b935050606062002895888289016200272a565b9250506080620028a8888289016200272a565b9150509295509295909350565b600060208284031215620028ce57620028cd62003602565b5b6000620028de84828501620026b7565b91505092915050565b6000602082840312156200290057620028ff62003602565b5b60006200291084828501620026e5565b91505092915050565b6000806000806080858703121562002936576200293562003602565b5b60006200294687828801620026e5565b94505060206200295987828801620026fc565b93505060406200296c87828801620026a0565b92505060606200297f878288016200272a565b91505092959194509250565b60008060008060808587031215620029a857620029a762003602565b5b6000620029b887828801620026e5565b9450506020620029cb87828801620026fc565b9350506040620029de878288016200272a565b9250506060620029f1878288016200272a565b91505092959194509250565b60008060006060848603121562002a195762002a1862003602565b5b600062002a2986828701620026fc565b935050602062002a3c86828701620026a0565b925050604062002a4f868287016200272a565b9150509250925092565b60006020828403121562002a725762002a7162003602565b5b600062002a828482850162002713565b91505092915050565b60006020828403121562002aa45762002aa362003602565b5b600062002ab4848285016200272a565b91505092915050565b60006020828403121562002ad65762002ad562003602565b5b600062002ae68482850162002741565b91505092915050565b62002afa81620033ad565b82525050565b600062002b0d8262003274565b62002b1981856200328a565b935062002b2b81856020860162003510565b62002b368162003607565b840191505092915050565b600062002b4e8262003274565b62002b5a81856200329b565b935062002b6c81856020860162003510565b80840191505092915050565b62002b83816200345c565b82525050565b62002b948162003484565b82525050565b62002ba581620034ac565b82525050565b62002bb681620034d4565b82525050565b62002bc781620034fc565b82525050565b600062002bda826200327f565b62002be68185620032a6565b935062002bf881856020860162003510565b62002c038162003607565b840191505092915050565b600062002c1d602683620032a6565b915062002c2a8262003618565b604082019050919050565b600062002c44602683620032a6565b915062002c518262003667565b604082019050919050565b600062002c6b606783620032a6565b915062002c7882620036b6565b608082019050919050565b600062002c92602e83620032a6565b915062002c9f8262003751565b604082019050919050565b600062002cb9606a83620032a6565b915062002cc682620037a0565b608082019050919050565b600062002ce0602083620032a6565b915062002ced826200383b565b602082019050919050565b600062002d07601d83620032a6565b915062002d148262003864565b602082019050919050565b600062002d2e602b83620032a6565b915062002d3b826200388d565b604082019050919050565b600062002d55601d83620032a6565b915062002d6282620038dc565b602082019050919050565b600062002d7c602783620032a6565b915062002d898262003905565b604082019050919050565b600062002da3602a83620032a6565b915062002db08262003954565b604082019050919050565b600062002dca605883620032a6565b915062002dd782620039a3565b606082019050919050565b600062002df1603e83620032a6565b915062002dfe8262003a18565b604082019050919050565b62002e148162003452565b82525050565b600062002e28828462002b41565b915081905092915050565b600060208201905062002e4a600083018462002aef565b92915050565b600060608201905062002e67600083018662002aef565b62002e76602083018562002aef565b818103604083015262002e8a818462002b00565b9050949350505050565b600060408201905062002eab600083018562002aef565b62002eba602083018462002e09565b9392505050565b600060e08201905062002ed8600083018a62002aef565b62002ee7602083018962002e09565b62002ef6604083018862002e09565b62002f05606083018762002e09565b62002f14608083018662002e09565b62002f2360a083018562002aef565b62002f3260c083018462002aef565b98975050505050505050565b600060408201905062002f55600083018562002b78565b62002f64602083018462002aef565b9392505050565b600060208201905062002f82600083018462002b89565b92915050565b600060608201905062002f9f600083018662002b89565b62002fae602083018562002aef565b62002fbd604083018462002e09565b949350505050565b600060208201905062002fdc600083018462002b9a565b92915050565b600060408201905062002ff9600083018562002bab565b62003008602083018462002aef565b9392505050565b600060208201905062003026600083018462002bbc565b92915050565b6000602082019050818103600083015262003048818462002bcd565b905092915050565b600060208201905081810360008301526200306b8162002c0e565b9050919050565b600060208201905081810360008301526200308d8162002c35565b9050919050565b60006020820190508181036000830152620030af8162002c5c565b9050919050565b60006020820190508181036000830152620030d18162002c83565b9050919050565b60006020820190508181036000830152620030f38162002caa565b9050919050565b60006020820190508181036000830152620031158162002cd1565b9050919050565b60006020820190508181036000830152620031378162002cf8565b9050919050565b60006020820190508181036000830152620031598162002d1f565b9050919050565b600060208201905081810360008301526200317b8162002d46565b9050919050565b600060208201905081810360008301526200319d8162002d6d565b9050919050565b60006020820190508181036000830152620031bf8162002d94565b9050919050565b60006020820190508181036000830152620031e18162002dbb565b9050919050565b60006020820190508181036000830152620032038162002de2565b9050919050565b600060208201905062003221600083018462002e09565b92915050565b60006080820190506200323e600083018762002e09565b6200324d602083018662002e09565b6200325c604083018562002e09565b6200326b606083018462002e09565b95945050505050565b600081519050919050565b600081519050919050565b600082825260208201905092915050565b600081905092915050565b600082825260208201905092915050565b6000620032c48262003452565b9150620032d18362003452565b9250827fffffffffffffffffffffffffffffffffffffffffffffffffffffffffffffffff0382111562003309576200330862003546565b5b828201905092915050565b6000620033218262003452565b91506200332e8362003452565b92508262003341576200334062003575565b5b828204905092915050565b6000620033598262003452565b9150620033668362003452565b9250817fffffffffffffffffffffffffffffffffffffffffffffffffffffffffffffffff0483118215151615620033a257620033a162003546565b5b828202905092915050565b6000620033ba8262003432565b9050919050565b60008115159050919050565b6000620033da82620033ad565b9050919050565b6000620033ee82620033ad565b9050919050565b60006200340282620033ad565b9050919050565b60006200341682620033ad565b9050919050565b60008190506200342d8262003a67565b919050565b600073ffffffffffffffffffffffffffffffffffffffff82169050919050565b6000819050919050565b6000620034698262003470565b9050919050565b60006200347d8262003432565b9050919050565b6000620034918262003498565b9050919050565b6000620034a58262003432565b9050919050565b6000620034b982620034c0565b9050919050565b6000620034cd8262003432565b9050919050565b6000620034e182620034e8565b9050919050565b6000620034f58262003432565b9050919050565b600062003509826200341d565b9050919050565b60005b838110156200353057808201518184015260208101905062003513565b8381111562003540576000848401525b50505050565b7f4e487b7100000000000000000000000000000000000000000000000000000000600052601160045260246000fd5b7f4e487b7100000000000000000000000000000000000000000000000000000000600052601260045260246000fd5b7f4e487b7100000000000000000000000000000000000000000000000000000000600052602160045260246000fd5b7f4e487b7100000000000000000000000000000000000000000000000000000000600052603260045260246000fd5b600080fd5b6000601f19601f8301169050919050565b7f4f776e61626c653a206e6577206f776e657220697320746865207a65726f206160008201527f6464726573730000000000000000000000000000000000000000000000000000602082015250565b7f416464726573733a20696e73756666696369656e742062616c616e636520666f60008201527f722063616c6c0000000000000000000000000000000000000000000000000000602082015250565b7f436f6d6d756e69747941646d696e3a3a736574436f6d6d756e6974794d696e5460008201527f72616e6368653a204e657720636f6d6d756e6974794d696e5472616e6368652060208201527f73686f756c64206265206c657373207468656e20636f6d6d756e6974794d617860408201527f5472616e63686500000000000000000000000000000000000000000000000000606082015250565b7f496e697469616c697a61626c653a20636f6e747261637420697320616c72656160008201527f647920696e697469616c697a6564000000000000000000000000000000000000602082015250565b7f436f6d6d756e69747941646d696e3a3a736574436f6d6d756e6974794d61785460008201527f72616e6368653a204e657720636f6d6d756e6974794d61785472616e6368652060208201527f73686f756c642062652067726561746572207468656e20636f6d6d756e69747960408201527f4d696e5472616e63686500000000000000000000000000000000000000000000606082015250565b7f4f776e61626c653a2063616c6c6572206973206e6f7420746865206f776e6572600082015250565b7f436f6d6d756e69747941646d696e3a204e4f545f434f4d4d554e495459000000600082015250565b7f436f6d6d756e69747941646d696e3a3a6d696772617465436f6d6d756e69747960008201527f3a204e4f545f56414c4944000000000000000000000000000000000000000000602082015250565b7f416464726573733a2063616c6c20746f206e6f6e2d636f6e7472616374000000600082015250565b7f436f6d6d756e69747941646d696e3a3a616464436f6d6d756e6974793a204e4f60008201527f545f56414c494400000000000000000000000000000000000000000000000000602082015250565b7f5361666545524332303a204552433230206f7065726174696f6e20646964206e60008201527f6f74207375636365656400000000000000000000000000000000000000000000602082015250565b7f436f6d6d756e69747941646d696e3a3a636f6e7374727563746f723a20636f6d60008201527f6d756e6974794d696e5472616e6368652073686f756c64206265206c6573732060208201527f7468656e20636f6d6d756e6974794d61785472616e6368650000000000000000604082015250565b7f436f6d6d756e69747941646d696e3a3a66756e64436f6d6d756e6974793a207460008201527f68697320636f6d6d756e6974792068617320656e6f7567682066756e64730000602082015250565b6003811062003a7b5762003a7a620035a4565b5b50565b62003a8981620033ad565b811462003a9557600080fd5b50565b62003aa381620033c1565b811462003aaf57600080fd5b50565b62003abd81620033cd565b811462003ac957600080fd5b50565b62003ad781620033e1565b811462003ae357600080fd5b50565b62003af181620033f5565b811462003afd57600080fd5b50565b62003b0b8162003409565b811462003b1757600080fd5b50565b62003b258162003452565b811462003b3157600080fd5b5056fe608060405234801561001057600080fd5b5061002d61002261003260201b60201c565b61003a60201b60201c565b6100fe565b600033905090565b60008060009054906101000a900473ffffffffffffffffffffffffffffffffffffffff169050816000806101000a81548173ffffffffffffffffffffffffffffffffffffffff021916908373ffffffffffffffffffffffffffffffffffffffff1602179055508173ffffffffffffffffffffffffffffffffffffffff168173ffffffffffffffffffffffffffffffffffffffff167f8be0079c531659141344cd1fd0a4f28419497f9722a3daafe3b4186f6b6457e060405160405180910390a35050565b610e938061010d6000396000f3fe60806040526004361061007b5760003560e01c80639623609d1161004e5780639623609d1461012857806399a88ec414610144578063f2fde38b1461016d578063f3b7dead146101965761007b565b8063204e1c7a14610080578063715018a6146100bd5780637eff275e146100d45780638da5cb5b146100fd575b600080fd5b34801561008c57600080fd5b506100a760048036038101906100a2919061093e565b6101d3565b6040516100b49190610b18565b60405180910390f35b3480156100c957600080fd5b506100d2610267565b005b3480156100e057600080fd5b506100fb60048036038101906100f6919061096b565b6102ef565b005b34801561010957600080fd5b506101126103da565b60405161011f9190610b18565b60405180910390f35b610142600480360381019061013d91906109ab565b610403565b005b34801561015057600080fd5b5061016b6004803603810190610166919061096b565b6104f2565b005b34801561017957600080fd5b50610194600480360381019061018f91906108e4565b6105dd565b005b3480156101a257600080fd5b506101bd60048036038101906101b8919061093e565b6106d5565b6040516101ca9190610b18565b60405180910390f35b60008060008373ffffffffffffffffffffffffffffffffffffffff166040516101fb90610aee565b600060405180830381855afa9150503d8060008114610236576040519150601f19603f3d011682016040523d82523d6000602084013e61023b565b606091505b50915091508161024a57600080fd5b8080602001905181019061025e9190610911565b92505050919050565b61026f610769565b73ffffffffffffffffffffffffffffffffffffffff1661028d6103da565b73ffffffffffffffffffffffffffffffffffffffff16146102e3576040517f08c379a00000000000000000000000000000000000000000000000000000000081526004016102da90610b83565b60405180910390fd5b6102ed6000610771565b565b6102f7610769565b73ffffffffffffffffffffffffffffffffffffffff166103156103da565b73ffffffffffffffffffffffffffffffffffffffff161461036b576040517f08c379a000000000000000000000000000000000000000000000000000000000815260040161036290610b83565b60405180910390fd5b8173ffffffffffffffffffffffffffffffffffffffff16638f283970826040518263ffffffff1660e01b81526004016103a49190610b18565b600060405180830381600087803b1580156103be57600080fd5b505af11580156103d2573d6000803e3d6000fd5b505050505050565b60008060009054906101000a900473ffffffffffffffffffffffffffffffffffffffff16905090565b61040b610769565b73ffffffffffffffffffffffffffffffffffffffff166104296103da565b73ffffffffffffffffffffffffffffffffffffffff161461047f576040517f08c379a000000000000000000000000000000000000000000000000000000000815260040161047690610b83565b60405180910390fd5b8273ffffffffffffffffffffffffffffffffffffffff16634f1ef2863484846040518463ffffffff1660e01b81526004016104bb929190610b33565b6000604051808303818588803b1580156104d457600080fd5b505af11580156104e8573d6000803e3d6000fd5b5050505050505050565b6104fa610769565b73ffffffffffffffffffffffffffffffffffffffff166105186103da565b73ffffffffffffffffffffffffffffffffffffffff161461056e576040517f08c379a000000000000000000000000000000000000000000000000000000000815260040161056590610b83565b60405180910390fd5b8173ffffffffffffffffffffffffffffffffffffffff16633659cfe6826040518263ffffffff1660e01b81526004016105a79190610b18565b600060405180830381600087803b1580156105c157600080fd5b505af11580156105d5573d6000803e3d6000fd5b505050505050565b6105e5610769565b73ffffffffffffffffffffffffffffffffffffffff166106036103da565b73ffffffffffffffffffffffffffffffffffffffff1614610659576040517f08c379a000000000000000000000000000000000000000000000000000000000815260040161065090610b83565b60405180910390fd5b600073ffffffffffffffffffffffffffffffffffffffff168173ffffffffffffffffffffffffffffffffffffffff1614156106c9576040517f08c379a00000000000000000000000000000000000000000000000000000000081526004016106c090610b63565b60405180910390fd5b6106d281610771565b50565b60008060008373ffffffffffffffffffffffffffffffffffffffff166040516106fd90610b03565b600060405180830381855afa9150503d8060008114610738576040519150601f19603f3d011682016040523d82523d6000602084013e61073d565b606091505b50915091508161074c57600080fd5b808060200190518101906107609190610911565b92505050919050565b600033905090565b60008060009054906101000a900473ffffffffffffffffffffffffffffffffffffffff169050816000806101000a81548173ffffffffffffffffffffffffffffffffffffffff021916908373ffffffffffffffffffffffffffffffffffffffff1602179055508173ffffffffffffffffffffffffffffffffffffffff168173ffffffffffffffffffffffffffffffffffffffff167f8be0079c531659141344cd1fd0a4f28419497f9722a3daafe3b4186f6b6457e060405160405180910390a35050565b600061084861084384610bc8565b610ba3565b90508281526020810184848401111561086457610863610d2e565b5b61086f848285610c87565b509392505050565b60008135905061088681610e18565b92915050565b60008151905061089b81610e2f565b92915050565b600082601f8301126108b6576108b5610d29565b5b81356108c6848260208601610835565b91505092915050565b6000813590506108de81610e46565b92915050565b6000602082840312156108fa576108f9610d38565b5b600061090884828501610877565b91505092915050565b60006020828403121561092757610926610d38565b5b60006109358482850161088c565b91505092915050565b60006020828403121561095457610953610d38565b5b6000610962848285016108cf565b91505092915050565b6000806040838503121561098257610981610d38565b5b6000610990858286016108cf565b92505060206109a185828601610877565b9150509250929050565b6000806000606084860312156109c4576109c3610d38565b5b60006109d2868287016108cf565b93505060206109e386828701610877565b925050604084013567ffffffffffffffff811115610a0457610a03610d33565b5b610a10868287016108a1565b9150509250925092565b610a2381610c31565b82525050565b6000610a3482610bf9565b610a3e8185610c04565b9350610a4e818560208601610c96565b610a5781610d3d565b840191505092915050565b6000610a6f602683610c20565b9150610a7a82610d4e565b604082019050919050565b6000610a92600483610c15565b9150610a9d82610d9d565b600482019050919050565b6000610ab5602083610c20565b9150610ac082610dc6565b602082019050919050565b6000610ad8600483610c15565b9150610ae382610def565b600482019050919050565b6000610af982610a85565b9150819050919050565b6000610b0e82610acb565b9150819050919050565b6000602082019050610b2d6000830184610a1a565b92915050565b6000604082019050610b486000830185610a1a565b8181036020830152610b5a8184610a29565b90509392505050565b60006020820190508181036000830152610b7c81610a62565b9050919050565b60006020820190508181036000830152610b9c81610aa8565b9050919050565b6000610bad610bbe565b9050610bb98282610cc9565b919050565b6000604051905090565b600067ffffffffffffffff821115610be357610be2610cfa565b5b610bec82610d3d565b9050602081019050919050565b600081519050919050565b600082825260208201905092915050565b600081905092915050565b600082825260208201905092915050565b6000610c3c82610c67565b9050919050565b6000610c4e82610c67565b9050919050565b6000610c6082610c43565b9050919050565b600073ffffffffffffffffffffffffffffffffffffffff82169050919050565b82818337600083830152505050565b60005b83811015610cb4578082015181840152602081019050610c99565b83811115610cc3576000848401525b50505050565b610cd282610d3d565b810181811067ffffffffffffffff82111715610cf157610cf0610cfa565b5b80604052505050565b7f4e487b7100000000000000000000000000000000000000000000000000000000600052604160045260246000fd5b600080fd5b600080fd5b600080fd5b600080fd5b6000601f19601f8301169050919050565b7f4f776e61626c653a206e6577206f776e657220697320746865207a65726f206160008201527f6464726573730000000000000000000000000000000000000000000000000000602082015250565b7f5c60da1b00000000000000000000000000000000000000000000000000000000600082015250565b7f4f776e61626c653a2063616c6c6572206973206e6f7420746865206f776e6572600082015250565b7ff851a44000000000000000000000000000000000000000000000000000000000600082015250565b610e2181610c31565b8114610e2c57600080fd5b50565b610e3881610c43565b8114610e4357600080fd5b50565b610e4f81610c55565b8114610e5a57600080fd5b5056fea26469706673582212202099502fa3b1e7c4bfe5d9aeecfb212782481688988ee981e71d509ae42e907764736f6c63430008050033608060405260405162001a5d38038062001a5d83398181016040528101906200002991906200068a565b828160017f360894a13ba1a3210667c828492db98dca3e2076cc3735a920a3ca505d382bbd60001c6200005d919062000964565b60001b7f360894a13ba1a3210667c828492db98dca3e2076cc3735a920a3ca505d382bbc60001b1462000095576200009462000a49565b5b620000a9828260006200012f60201b60201c565b505060017fb53127684a568b3173ae13b9f8a6016e243e63b6e8ee1178d6a717850b5d610460001c620000dd919062000964565b60001b7fb53127684a568b3173ae13b9f8a6016e243e63b6e8ee1178d6a717850b5d610360001b1462000115576200011462000a49565b5b62000126826200017260201b60201c565b50505062000c02565b6200014083620001d060201b60201c565b6000825111806200014e5750805b156200016d576200016b83836200022760201b6200034f1760201c565b505b505050565b7f7e644d79422f17c01e4894b5f4f588d331ebfa28653d42ae832dc59e38c9798f620001a36200025d60201b60201c565b82604051620001b49291906200081c565b60405180910390a1620001cd81620002c160201b60201c565b50565b620001e181620003b260201b60201c565b8073ffffffffffffffffffffffffffffffffffffffff167fbc7cd75a20ee27fd9adebab32041f755214dbc6bffa90cc0225b39da2e5c2d3b60405160405180910390a250565b606062000255838360405180606001604052806027815260200162001a36602791396200048860201b60201c565b905092915050565b6000620002987fb53127684a568b3173ae13b9f8a6016e243e63b6e8ee1178d6a717850b5d610360001b6200056c60201b6200037c1760201c565b60000160009054906101000a900473ffffffffffffffffffffffffffffffffffffffff16905090565b600073ffffffffffffffffffffffffffffffffffffffff168173ffffffffffffffffffffffffffffffffffffffff16141562000334576040517f08c379a00000000000000000000000000000000000000000000000000000000081526004016200032b906200086d565b60405180910390fd5b806200036e7fb53127684a568b3173ae13b9f8a6016e243e63b6e8ee1178d6a717850b5d610360001b6200056c60201b6200037c1760201c565b60000160006101000a81548173ffffffffffffffffffffffffffffffffffffffff021916908373ffffffffffffffffffffffffffffffffffffffff16021790555050565b620003c8816200057660201b620003861760201c565b6200040a576040517f08c379a000000000000000000000000000000000000000000000000000000000815260040162000401906200088f565b60405180910390fd5b80620004447f360894a13ba1a3210667c828492db98dca3e2076cc3735a920a3ca505d382bbc60001b6200056c60201b6200037c1760201c565b60000160006101000a81548173ffffffffffffffffffffffffffffffffffffffff021916908373ffffffffffffffffffffffffffffffffffffffff16021790555050565b60606200049b846200057660201b60201c565b620004dd576040517f08c379a0000000000000000000000000000000000000000000000000000000008152600401620004d490620008b1565b60405180910390fd5b6000808573ffffffffffffffffffffffffffffffffffffffff168560405162000507919062000803565b600060405180830381855af49150503d806000811462000544576040519150601f19603f3d011682016040523d82523d6000602084013e62000549565b606091505b5091509150620005618282866200058960201b60201c565b925050509392505050565b6000819050919050565b600080823b905060008111915050919050565b606083156200059b57829050620005ee565b600083511115620005af5782518084602001fd5b816040517f08c379a0000000000000000000000000000000000000000000000000000000008152600401620005e5919062000849565b60405180910390fd5b9392505050565b60006200060c6200060684620008fc565b620008d3565b9050828152602081018484840111156200062b576200062a62000adb565b5b62000638848285620009dd565b509392505050565b600081519050620006518162000be8565b92915050565b600082601f8301126200066f576200066e62000ad6565b5b815162000681848260208601620005f5565b91505092915050565b600080600060608486031215620006a657620006a562000ae5565b5b6000620006b68682870162000640565b9350506020620006c98682870162000640565b925050604084015167ffffffffffffffff811115620006ed57620006ec62000ae0565b5b620006fb8682870162000657565b9150509250925092565b62000710816200099f565b82525050565b6000620007238262000932565b6200072f818562000948565b935062000741818560208601620009dd565b80840191505092915050565b60006200075a826200093d565b62000766818562000953565b935062000778818560208601620009dd565b620007838162000aea565b840191505092915050565b60006200079d60268362000953565b9150620007aa8262000afb565b604082019050919050565b6000620007c4602d8362000953565b9150620007d18262000b4a565b604082019050919050565b6000620007eb60268362000953565b9150620007f88262000b99565b604082019050919050565b600062000811828462000716565b915081905092915050565b600060408201905062000833600083018562000705565b62000842602083018462000705565b9392505050565b600060208201905081810360008301526200086581846200074d565b905092915050565b6000602082019050818103600083015262000888816200078e565b9050919050565b60006020820190508181036000830152620008aa81620007b5565b9050919050565b60006020820190508181036000830152620008cc81620007dc565b9050919050565b6000620008df620008f2565b9050620008ed828262000a13565b919050565b6000604051905090565b600067ffffffffffffffff8211156200091a576200091962000aa7565b5b620009258262000aea565b9050602081019050919050565b600081519050919050565b600081519050919050565b600081905092915050565b600082825260208201905092915050565b60006200097182620009d3565b91506200097e83620009d3565b92508282101562000994576200099362000a78565b5b828203905092915050565b6000620009ac82620009b3565b9050919050565b600073ffffffffffffffffffffffffffffffffffffffff82169050919050565b6000819050919050565b60005b83811015620009fd578082015181840152602081019050620009e0565b8381111562000a0d576000848401525b50505050565b62000a1e8262000aea565b810181811067ffffffffffffffff8211171562000a405762000a3f62000aa7565b5b80604052505050565b7f4e487b7100000000000000000000000000000000000000000000000000000000600052600160045260246000fd5b7f4e487b7100000000000000000000000000000000000000000000000000000000600052601160045260246000fd5b7f4e487b7100000000000000000000000000000000000000000000000000000000600052604160045260246000fd5b600080fd5b600080fd5b600080fd5b600080fd5b6000601f19601f8301169050919050565b7f455243313936373a206e65772061646d696e20697320746865207a65726f206160008201527f6464726573730000000000000000000000000000000000000000000000000000602082015250565b7f455243313936373a206e657720696d706c656d656e746174696f6e206973206e60008201527f6f74206120636f6e747261637400000000000000000000000000000000000000602082015250565b7f416464726573733a2064656c65676174652063616c6c20746f206e6f6e2d636f60008201527f6e74726163740000000000000000000000000000000000000000000000000000602082015250565b62000bf3816200099f565b811462000bff57600080fd5b50565b610e248062000c126000396000f3fe60806040526004361061004e5760003560e01c80633659cfe6146100675780634f1ef286146100905780635c60da1b146100ac5780638f283970146100d7578063f851a440146101005761005d565b3661005d5761005b61012b565b005b61006561012b565b005b34801561007357600080fd5b5061008e600480360381019061008991906108fe565b610145565b005b6100aa60048036038101906100a5919061092b565b6101ac565b005b3480156100b857600080fd5b506100c161024a565b6040516100ce9190610aa7565b60405180910390f35b3480156100e357600080fd5b506100fe60048036038101906100f991906108fe565b6102a2565b005b34801561010c57600080fd5b506101156102f7565b6040516101229190610aa7565b60405180910390f35b610133610399565b61014361013e610419565b610428565b565b61014d61044e565b73ffffffffffffffffffffffffffffffffffffffff163373ffffffffffffffffffffffffffffffffffffffff1614156101a05761019b816040518060200160405280600081525060006104a5565b6101a9565b6101a861012b565b5b50565b6101b461044e565b73ffffffffffffffffffffffffffffffffffffffff163373ffffffffffffffffffffffffffffffffffffffff16141561023c576102378383838080601f016020809104026020016040519081016040528093929190818152602001838380828437600081840152601f19601f8201169050808301925050505050505060016104a5565b610245565b61024461012b565b5b505050565b600061025461044e565b73ffffffffffffffffffffffffffffffffffffffff163373ffffffffffffffffffffffffffffffffffffffff1614156102965761028f610419565b905061029f565b61029e61012b565b5b90565b6102aa61044e565b73ffffffffffffffffffffffffffffffffffffffff163373ffffffffffffffffffffffffffffffffffffffff1614156102eb576102e6816104d1565b6102f4565b6102f361012b565b5b50565b600061030161044e565b73ffffffffffffffffffffffffffffffffffffffff163373ffffffffffffffffffffffffffffffffffffffff1614156103435761033c61044e565b905061034c565b61034b61012b565b5b90565b60606103748383604051806060016040528060278152602001610dc86027913961051d565b905092915050565b6000819050919050565b600080823b905060008111915050919050565b6103a161044e565b73ffffffffffffffffffffffffffffffffffffffff163373ffffffffffffffffffffffffffffffffffffffff16141561040f576040517f08c379a000000000000000000000000000000000000000000000000000000000815260040161040690610b6d565b60405180910390fd5b6104176105ea565b565b60006104236105ec565b905090565b3660008037600080366000845af43d6000803e8060008114610449573d6000f35b3d6000fd5b600061047c7fb53127684a568b3173ae13b9f8a6016e243e63b6e8ee1178d6a717850b5d610360001b61037c565b60000160009054906101000a900473ffffffffffffffffffffffffffffffffffffffff16905090565b6104ae83610643565b6000825111806104bb5750805b156104cc576104ca838361034f565b505b505050565b7f7e644d79422f17c01e4894b5f4f588d331ebfa28653d42ae832dc59e38c9798f6104fa61044e565b82604051610509929190610ac2565b60405180910390a161051a81610692565b50565b606061052884610386565b610567576040517f08c379a000000000000000000000000000000000000000000000000000000000815260040161055e90610b4d565b60405180910390fd5b6000808573ffffffffffffffffffffffffffffffffffffffff168560405161058f9190610a90565b600060405180830381855af49150503d80600081146105ca576040519150601f19603f3d011682016040523d82523d6000602084013e6105cf565b606091505b50915091506105df828286610773565b925050509392505050565b565b600061061a7f360894a13ba1a3210667c828492db98dca3e2076cc3735a920a3ca505d382bbc60001b61037c565b60000160009054906101000a900473ffffffffffffffffffffffffffffffffffffffff16905090565b61064c816107da565b8073ffffffffffffffffffffffffffffffffffffffff167fbc7cd75a20ee27fd9adebab32041f755214dbc6bffa90cc0225b39da2e5c2d3b60405160405180910390a250565b600073ffffffffffffffffffffffffffffffffffffffff168173ffffffffffffffffffffffffffffffffffffffff161415610702576040517f08c379a00000000000000000000000000000000000000000000000000000000081526004016106f990610b0d565b60405180910390fd5b8061072f7fb53127684a568b3173ae13b9f8a6016e243e63b6e8ee1178d6a717850b5d610360001b61037c565b60000160006101000a81548173ffffffffffffffffffffffffffffffffffffffff021916908373ffffffffffffffffffffffffffffffffffffffff16021790555050565b60608315610783578290506107d3565b6000835111156107965782518084602001fd5b816040517f08c379a00000000000000000000000000000000000000000000000000000000081526004016107ca9190610aeb565b60405180910390fd5b9392505050565b6107e381610386565b610822576040517f08c379a000000000000000000000000000000000000000000000000000000000815260040161081990610b2d565b60405180910390fd5b8061084f7f360894a13ba1a3210667c828492db98dca3e2076cc3735a920a3ca505d382bbc60001b61037c565b60000160006101000a81548173ffffffffffffffffffffffffffffffffffffffff021916908373ffffffffffffffffffffffffffffffffffffffff16021790555050565b6000813590506108a281610db0565b92915050565b60008083601f8401126108be576108bd610c29565b5b8235905067ffffffffffffffff8111156108db576108da610c24565b5b6020830191508360018202830111156108f7576108f6610c2e565b5b9250929050565b60006020828403121561091457610913610c38565b5b600061092284828501610893565b91505092915050565b60008060006040848603121561094457610943610c38565b5b600061095286828701610893565b935050602084013567ffffffffffffffff81111561097357610972610c33565b5b61097f868287016108a8565b92509250509250925092565b61099481610bbf565b82525050565b60006109a582610b8d565b6109af8185610ba3565b93506109bf818560208601610bf1565b80840191505092915050565b60006109d682610b98565b6109e08185610bae565b93506109f0818560208601610bf1565b6109f981610c3d565b840191505092915050565b6000610a11602683610bae565b9150610a1c82610c4e565b604082019050919050565b6000610a34602d83610bae565b9150610a3f82610c9d565b604082019050919050565b6000610a57602683610bae565b9150610a6282610cec565b604082019050919050565b6000610a7a604283610bae565b9150610a8582610d3b565b606082019050919050565b6000610a9c828461099a565b915081905092915050565b6000602082019050610abc600083018461098b565b92915050565b6000604082019050610ad7600083018561098b565b610ae4602083018461098b565b9392505050565b60006020820190508181036000830152610b0581846109cb565b905092915050565b60006020820190508181036000830152610b2681610a04565b9050919050565b60006020820190508181036000830152610b4681610a27565b9050919050565b60006020820190508181036000830152610b6681610a4a565b9050919050565b60006020820190508181036000830152610b8681610a6d565b9050919050565b600081519050919050565b600081519050919050565b600081905092915050565b600082825260208201905092915050565b6000610bca82610bd1565b9050919050565b600073ffffffffffffffffffffffffffffffffffffffff82169050919050565b60005b83811015610c0f578082015181840152602081019050610bf4565b83811115610c1e576000848401525b50505050565b600080fd5b600080fd5b600080fd5b600080fd5b600080fd5b6000601f19601f8301169050919050565b7f455243313936373a206e65772061646d696e20697320746865207a65726f206160008201527f6464726573730000000000000000000000000000000000000000000000000000602082015250565b7f455243313936373a206e657720696d706c656d656e746174696f6e206973206e60008201527f6f74206120636f6e747261637400000000000000000000000000000000000000602082015250565b7f416464726573733a2064656c65676174652063616c6c20746f206e6f6e2d636f60008201527f6e74726163740000000000000000000000000000000000000000000000000000602082015250565b7f5472616e73706172656e745570677261646561626c6550726f78793a2061646d60008201527f696e2063616e6e6f742066616c6c6261636b20746f2070726f7879207461726760208201527f6574000000000000000000000000000000000000000000000000000000000000604082015250565b610db981610bbf565b8114610dc457600080fd5b5056fe416464726573733a206c6f772d6c6576656c2064656c65676174652063616c6c206661696c6564a26469706673582212209b15b1e08dca121acb2c1bb9b0418ffb848e2aee133874cd662968805037287064736f6c63430008050033416464726573733a206c6f772d6c6576656c2064656c65676174652063616c6c206661696c6564a2646970667358221220e7506f9ad3129b49fb90b01d366be27dc4f532c381804ef2dc8eb0f306114fb664736f6c63430008050033",
  "devdoc": {
    "kind": "dev",
    "methods": {
      "addCommunity(address,uint256,uint256,uint256,uint256)": {
        "details": "Add a new community. Can be used only by an admin. For further information regarding each parameter, see *Community* smart contract constructor."
      },
      "migrateCommunity(address,address,address)": {
        "details": "Migrate community by deploying a new contract. Can be used only by an admin. For further information regarding each parameter, see *Community* smart contract constructor."
      },
      "owner()": {
        "details": "Returns the address of the current owner."
      },
      "removeCommunity(address)": {
        "details": "Remove an existing community. Can be used only by an admin."
      },
      "renounceOwnership()": {
        "details": "Leaves the contract without owner. It will not be possible to call `onlyOwner` functions anymore. Can only be called by the current owner. NOTE: Renouncing ownership will leave the contract without an owner, thereby removing any functionality that is only available to the owner."
      },
      "setCommunityMaxTranche(uint256)": {
        "details": "Set the community max tranche"
      },
      "setCommunityMinTranche(uint256)": {
        "details": "Set the community min tranche"
      },
      "transferOwnership(address)": {
        "details": "Transfers ownership of the contract to a new account (`newOwner`). Can only be called by the current owner."
      },
      "updateProxyImplementation(address,address)": {
        "params": {
          "_communityProxy": "Address of a wallet proxy",
          "_newLogic": "Address of new implementation contract"
        }
      }
    },
    "version": 1
  },
  "userdoc": {
    "kind": "user",
    "methods": {
      "updateProxyImplementation(address,address)": {
        "notice": "Update proxy implementation address"
      }
    },
    "notice": "Welcome to CommunityAdmin, the main contract. This is an administrative (for now) contract where the admins have control over the list of communities. Being only able to add and remove communities",
    "version": 1
  },
  "storageLayout": {
    "storage": [
      {
        "astId": 8683,
        "contract": "contracts/community/CommunityAdminImplementation.sol:CommunityAdminImplementation",
        "label": "_cUSD",
        "offset": 0,
        "slot": "0",
        "type": "t_contract(IERC20)3243"
      },
      {
        "astId": 8686,
        "contract": "contracts/community/CommunityAdminImplementation.sol:CommunityAdminImplementation",
        "label": "_treasury",
        "offset": 0,
        "slot": "1",
        "type": "t_contract(ITreasury)12730"
      },
      {
        "astId": 8689,
        "contract": "contracts/community/CommunityAdminImplementation.sol:CommunityAdminImplementation",
        "label": "_communityTemplate",
        "offset": 0,
        "slot": "2",
        "type": "t_contract(ICommunity)8919"
      },
      {
        "astId": 8692,
        "contract": "contracts/community/CommunityAdminImplementation.sol:CommunityAdminImplementation",
        "label": "_communityProxyAdmin",
        "offset": 0,
        "slot": "3",
        "type": "t_contract(ProxyAdmin)2316"
      },
      {
        "astId": 8694,
        "contract": "contracts/community/CommunityAdminImplementation.sol:CommunityAdminImplementation",
        "label": "_communityMinTranche",
        "offset": 0,
        "slot": "4",
        "type": "t_uint256"
      },
      {
        "astId": 8696,
        "contract": "contracts/community/CommunityAdminImplementation.sol:CommunityAdminImplementation",
        "label": "_communityMaxTranche",
        "offset": 0,
        "slot": "5",
        "type": "t_uint256"
      },
      {
        "astId": 8701,
        "contract": "contracts/community/CommunityAdminImplementation.sol:CommunityAdminImplementation",
        "label": "_communities",
        "offset": 0,
        "slot": "6",
        "type": "t_mapping(t_address,t_enum(CommunityState)8928)"
      },
      {
        "astId": 8704,
        "contract": "contracts/community/CommunityAdminImplementation.sol:CommunityAdminImplementation",
        "label": "_communityList",
        "offset": 0,
        "slot": "7",
        "type": "t_struct(AddressSet)5037_storage"
      },
      {
        "astId": 538,
        "contract": "contracts/community/CommunityAdminImplementation.sol:CommunityAdminImplementation",
        "label": "_initialized",
        "offset": 0,
        "slot": "9",
        "type": "t_bool"
      },
      {
        "astId": 541,
        "contract": "contracts/community/CommunityAdminImplementation.sol:CommunityAdminImplementation",
        "label": "_initializing",
        "offset": 1,
        "slot": "9",
        "type": "t_bool"
      },
      {
        "astId": 792,
        "contract": "contracts/community/CommunityAdminImplementation.sol:CommunityAdminImplementation",
        "label": "__gap",
        "offset": 0,
        "slot": "10",
        "type": "t_array(t_uint256)50_storage"
      },
      {
        "astId": 418,
        "contract": "contracts/community/CommunityAdminImplementation.sol:CommunityAdminImplementation",
        "label": "_owner",
        "offset": 0,
        "slot": "60",
        "type": "t_address"
      },
      {
        "astId": 531,
        "contract": "contracts/community/CommunityAdminImplementation.sol:CommunityAdminImplementation",
        "label": "__gap",
        "offset": 0,
        "slot": "61",
        "type": "t_array(t_uint256)49_storage"
      }
    ],
    "types": {
      "t_address": {
        "encoding": "inplace",
        "label": "address",
        "numberOfBytes": "20"
      },
      "t_array(t_bytes32)dyn_storage": {
        "base": "t_bytes32",
        "encoding": "dynamic_array",
        "label": "bytes32[]",
        "numberOfBytes": "32"
      },
      "t_array(t_uint256)49_storage": {
        "base": "t_uint256",
        "encoding": "inplace",
        "label": "uint256[49]",
        "numberOfBytes": "1568"
      },
      "t_array(t_uint256)50_storage": {
        "base": "t_uint256",
        "encoding": "inplace",
        "label": "uint256[50]",
        "numberOfBytes": "1600"
      },
      "t_bool": {
        "encoding": "inplace",
        "label": "bool",
        "numberOfBytes": "1"
      },
      "t_bytes32": {
        "encoding": "inplace",
        "label": "bytes32",
        "numberOfBytes": "32"
      },
      "t_contract(ICommunity)8919": {
        "encoding": "inplace",
        "label": "contract ICommunity",
        "numberOfBytes": "20"
      },
      "t_contract(IERC20)3243": {
        "encoding": "inplace",
        "label": "contract IERC20",
        "numberOfBytes": "20"
      },
      "t_contract(ITreasury)12730": {
        "encoding": "inplace",
        "label": "contract ITreasury",
        "numberOfBytes": "20"
      },
      "t_contract(ProxyAdmin)2316": {
        "encoding": "inplace",
        "label": "contract ProxyAdmin",
        "numberOfBytes": "20"
      },
      "t_enum(CommunityState)8928": {
        "encoding": "inplace",
        "label": "enum ICommunityAdmin.CommunityState",
        "numberOfBytes": "1"
      },
      "t_mapping(t_address,t_enum(CommunityState)8928)": {
        "encoding": "mapping",
        "key": "t_address",
        "label": "mapping(address => enum ICommunityAdmin.CommunityState)",
        "numberOfBytes": "32",
        "value": "t_enum(CommunityState)8928"
      },
      "t_mapping(t_bytes32,t_uint256)": {
        "encoding": "mapping",
        "key": "t_bytes32",
        "label": "mapping(bytes32 => uint256)",
        "numberOfBytes": "32",
        "value": "t_uint256"
      },
      "t_struct(AddressSet)5037_storage": {
        "encoding": "inplace",
        "label": "struct EnumerableSet.AddressSet",
        "members": [
          {
            "astId": 5036,
            "contract": "contracts/community/CommunityAdminImplementation.sol:CommunityAdminImplementation",
            "label": "_inner",
            "offset": 0,
            "slot": "0",
            "type": "t_struct(Set)4766_storage"
          }
        ],
        "numberOfBytes": "64"
      },
      "t_struct(Set)4766_storage": {
        "encoding": "inplace",
        "label": "struct EnumerableSet.Set",
        "members": [
          {
            "astId": 4761,
            "contract": "contracts/community/CommunityAdminImplementation.sol:CommunityAdminImplementation",
            "label": "_values",
            "offset": 0,
            "slot": "0",
            "type": "t_array(t_bytes32)dyn_storage"
          },
          {
            "astId": 4765,
            "contract": "contracts/community/CommunityAdminImplementation.sol:CommunityAdminImplementation",
            "label": "_indexes",
            "offset": 0,
            "slot": "1",
            "type": "t_mapping(t_bytes32,t_uint256)"
          }
        ],
        "numberOfBytes": "64"
      },
      "t_uint256": {
        "encoding": "inplace",
        "label": "uint256",
        "numberOfBytes": "32"
      }
    }
  }
}