{
  "address": "0xf822D0D415D36F58FD6188Fe29c081A9174fc4d6",
  "abi": [
    {
      "anonymous": false,
      "inputs": [
        {
          "indexed": true,
          "internalType": "address",
          "name": "_communityAddress",
          "type": "address"
        },
        {
          "indexed": true,
          "internalType": "address",
          "name": "_firstManager",
          "type": "address"
        },
        {
          "indexed": false,
          "internalType": "uint256",
          "name": "_claimAmount",
          "type": "uint256"
        },
        {
          "indexed": false,
          "internalType": "uint256",
          "name": "_maxClaim",
          "type": "uint256"
        },
        {
          "indexed": false,
          "internalType": "uint256",
          "name": "_baseInterval",
          "type": "uint256"
        },
        {
          "indexed": false,
          "internalType": "uint256",
          "name": "_incrementInterval",
          "type": "uint256"
        }
      ],
      "name": "CommunityAdded",
      "type": "event"
    },
    {
      "anonymous": false,
      "inputs": [
        {
          "indexed": true,
          "internalType": "address",
          "name": "_newCommunityAdminHelper",
          "type": "address"
        }
      ],
      "name": "CommunityAdminHelperChanged",
      "type": "event"
    },
    {
      "anonymous": false,
      "inputs": [
        {
          "indexed": true,
          "internalType": "uint256",
          "name": "_newCommunitMaxTranche",
          "type": "uint256"
        }
      ],
      "name": "CommunityMaxTrancheChanged",
      "type": "event"
    },
    {
      "anonymous": false,
      "inputs": [
        {
          "indexed": true,
          "internalType": "address",
          "name": "_firstManager",
          "type": "address"
        },
        {
          "indexed": true,
          "internalType": "address",
          "name": "_communityAddress",
          "type": "address"
        },
        {
          "indexed": true,
          "internalType": "address",
          "name": "_previousCommunityAddress",
          "type": "address"
        }
      ],
      "name": "CommunityMigrated",
      "type": "event"
    },
    {
      "anonymous": false,
      "inputs": [
        {
          "indexed": true,
          "internalType": "uint256",
          "name": "_newCommunityMinTranche",
          "type": "uint256"
        }
      ],
      "name": "CommunityMinTrancheChanged",
      "type": "event"
    },
    {
      "anonymous": false,
      "inputs": [
        {
          "indexed": true,
          "internalType": "address",
          "name": "_communityAddress",
          "type": "address"
        }
      ],
      "name": "CommunityRemoved",
      "type": "event"
    },
    {
      "anonymous": false,
      "inputs": [
        {
          "indexed": true,
          "internalType": "address",
          "name": "previousOwner",
          "type": "address"
        },
        {
          "indexed": true,
          "internalType": "address",
          "name": "newOwner",
          "type": "address"
        }
      ],
      "name": "OwnershipTransferred",
      "type": "event"
    },
    {
      "inputs": [],
      "name": "VERSION",
      "outputs": [
        {
          "internalType": "uint256",
          "name": "",
          "type": "uint256"
        }
      ],
      "stateMutability": "view",
      "type": "function"
    },
    {
      "inputs": [
        {
          "internalType": "address",
          "name": "firstManager_",
          "type": "address"
        },
        {
          "internalType": "uint256",
          "name": "claimAmount_",
          "type": "uint256"
        },
        {
          "internalType": "uint256",
          "name": "maxClaim_",
          "type": "uint256"
        },
        {
          "internalType": "uint256",
          "name": "baseInterval_",
          "type": "uint256"
        },
        {
          "internalType": "uint256",
          "name": "incrementInterval_",
          "type": "uint256"
        }
      ],
      "name": "addCommunity",
      "outputs": [],
      "stateMutability": "nonpayable",
      "type": "function"
    },
    {
      "inputs": [],
      "name": "cUSD",
      "outputs": [
        {
          "internalType": "contract IERC20",
          "name": "",
          "type": "address"
        }
      ],
      "stateMutability": "view",
      "type": "function"
    },
    {
      "inputs": [
        {
          "internalType": "address",
          "name": "communityAddress_",
          "type": "address"
        }
      ],
      "name": "communities",
      "outputs": [
        {
          "internalType": "enum ICommunityAdmin.CommunityState",
          "name": "",
          "type": "uint8"
        }
      ],
      "stateMutability": "view",
      "type": "function"
    },
    {
      "inputs": [],
      "name": "communityAdminHelper",
      "outputs": [
        {
          "internalType": "contract ICommunityAdminHelper",
          "name": "",
          "type": "address"
        }
      ],
      "stateMutability": "view",
      "type": "function"
    },
    {
      "inputs": [
        {
          "internalType": "uint256",
          "name": "index",
          "type": "uint256"
        }
      ],
      "name": "communityList",
      "outputs": [
        {
          "internalType": "address",
          "name": "",
          "type": "address"
        }
      ],
      "stateMutability": "view",
      "type": "function"
    },
    {
      "inputs": [],
      "name": "communityListLength",
      "outputs": [
        {
          "internalType": "uint256",
          "name": "",
          "type": "uint256"
        }
      ],
      "stateMutability": "view",
      "type": "function"
    },
    {
      "inputs": [],
      "name": "communityMaxTranche",
      "outputs": [
        {
          "internalType": "uint256",
          "name": "",
          "type": "uint256"
        }
      ],
      "stateMutability": "view",
      "type": "function"
    },
    {
      "inputs": [],
      "name": "communityMinTranche",
      "outputs": [
        {
          "internalType": "uint256",
          "name": "",
          "type": "uint256"
        }
      ],
      "stateMutability": "view",
      "type": "function"
    },
    {
      "inputs": [],
      "name": "fundCommunity",
      "outputs": [],
      "stateMutability": "nonpayable",
      "type": "function"
    },
    {
      "inputs": [
        {
          "internalType": "contract ICommunityAdminHelper",
          "name": "communityAdminHelper_",
          "type": "address"
        }
      ],
      "name": "initCommunityAdminHelper",
      "outputs": [],
      "stateMutability": "nonpayable",
      "type": "function"
    },
    {
      "inputs": [
        {
          "internalType": "contract IERC20",
          "name": "cUSD_",
          "type": "address"
        },
        {
          "internalType": "uint256",
          "name": "communityMinTranche_",
          "type": "uint256"
        },
        {
          "internalType": "uint256",
          "name": "communityMaxTranche_",
          "type": "uint256"
        }
      ],
      "name": "initialize",
      "outputs": [],
      "stateMutability": "nonpayable",
      "type": "function"
    },
    {
      "inputs": [
        {
          "internalType": "address",
          "name": "firstManager_",
          "type": "address"
        },
        {
          "internalType": "contract ICommunity",
          "name": "previousCommunity_",
          "type": "address"
        },
        {
          "internalType": "contract ICommunityAdminHelper",
          "name": "newCommunityAdminHelper_",
          "type": "address"
        }
      ],
      "name": "migrateCommunity",
      "outputs": [],
      "stateMutability": "nonpayable",
      "type": "function"
    },
    {
      "inputs": [],
      "name": "owner",
      "outputs": [
        {
          "internalType": "address",
          "name": "",
          "type": "address"
        }
      ],
      "stateMutability": "view",
      "type": "function"
    },
    {
      "inputs": [
        {
          "internalType": "contract ICommunity",
          "name": "community_",
          "type": "address"
        }
      ],
      "name": "removeCommunity",
      "outputs": [],
      "stateMutability": "nonpayable",
      "type": "function"
    },
    {
      "inputs": [],
      "name": "renounceOwnership",
      "outputs": [],
      "stateMutability": "nonpayable",
      "type": "function"
    },
    {
      "inputs": [
        {
          "internalType": "contract ICommunityAdminHelper",
          "name": "communityAdminHelper_",
          "type": "address"
        }
      ],
      "name": "setCommunityAdminHelper",
      "outputs": [],
      "stateMutability": "nonpayable",
      "type": "function"
    },
    {
      "inputs": [
        {
          "internalType": "uint256",
          "name": "newCommunityMaxTranche_",
          "type": "uint256"
        }
      ],
      "name": "setCommunityMaxTranche",
      "outputs": [],
      "stateMutability": "nonpayable",
      "type": "function"
    },
    {
      "inputs": [
        {
          "internalType": "uint256",
          "name": "newCommunityMinTranche_",
          "type": "uint256"
        }
      ],
      "name": "setCommunityMinTranche",
      "outputs": [],
      "stateMutability": "nonpayable",
      "type": "function"
    },
    {
      "inputs": [
        {
          "internalType": "contract ITreasury",
          "name": "newTreasury_",
          "type": "address"
        }
      ],
      "name": "setTreasury",
      "outputs": [],
      "stateMutability": "nonpayable",
      "type": "function"
    },
    {
      "inputs": [
        {
          "internalType": "contract IERC20",
          "name": "erc20_",
          "type": "address"
        },
        {
          "internalType": "address",
          "name": "to_",
          "type": "address"
        },
        {
          "internalType": "uint256",
          "name": "amount_",
          "type": "uint256"
        }
      ],
      "name": "transfer",
      "outputs": [],
      "stateMutability": "nonpayable",
      "type": "function"
    },
    {
      "inputs": [
        {
          "internalType": "contract ICommunity",
          "name": "community_",
          "type": "address"
        },
        {
          "internalType": "contract IERC20",
          "name": "erc20_",
          "type": "address"
        },
        {
          "internalType": "address",
          "name": "to_",
          "type": "address"
        },
        {
          "internalType": "uint256",
          "name": "amount_",
          "type": "uint256"
        }
      ],
      "name": "transferFromCommunity",
      "outputs": [],
      "stateMutability": "nonpayable",
      "type": "function"
    },
    {
      "inputs": [
        {
          "internalType": "address",
          "name": "newOwner",
          "type": "address"
        }
      ],
      "name": "transferOwnership",
      "outputs": [],
      "stateMutability": "nonpayable",
      "type": "function"
    },
    {
      "inputs": [],
      "name": "treasury",
      "outputs": [
        {
          "internalType": "contract ITreasury",
          "name": "",
          "type": "address"
        }
      ],
      "stateMutability": "view",
      "type": "function"
    },
    {
      "inputs": [
        {
          "internalType": "address",
          "name": "newImplementation",
          "type": "address"
        }
      ],
      "name": "upgrade",
      "outputs": [],
      "stateMutability": "nonpayable",
      "type": "function"
    }
  ],
  "transactionHash": "0x458e04d0f68866a9c27c9d49d374a0d71e7307eb0f82938f4e4e13ffc72d962b",
  "args": [],
  "solcInputHash": "6bf46383f11fabdc202ffe24b62c453f",
  "bytecode": "0x608060405234801561001057600080fd5b506138e0806100206000396000f3fe608060405234801561001057600080fd5b50600436106101735760003560e01c80637f2813d2116100de578063a681b7ba11610097578063f00d096411610071578063f00d0964146103d4578063f0f44260146103f2578063f2fde38b1461040e578063ffa1ad741461042a57610173565b8063a681b7ba1461036c578063beabacc81461039c578063ebb395e9146103b857610173565b80637f2813d2146102ac578063868a7e88146102dc5780638774be9b146102fa5780638da5cb5b146103165780638e30971b14610334578063926345401461035057610173565b8063301fbb3011610130578063301fbb301461021257806331ec5771146102305780635e3473601461024c57806361d027b314610268578063715018a6146102865780637a1ac61e1461029057610173565b80630900f010146101785780630b4afb1b14610194578063174a71d7146101b05780631d2c9359146101ba5780631fccf672146101d6578063255cef69146101f4575b600080fd5b610192600480360381019061018d919061266c565b610448565b005b6101ae60048036038101906101a99190612719565b610507565b005b6101b86107ab565b005b6101d460048036038101906101cf9190612848565b610a09565b005b6101de610afa565b6040516101eb9190612dd7565b60405180910390f35b6101fc610b24565b6040516102099190613061565b60405180910390f35b61021a610b2e565b6040516102279190612d78565b60405180910390f35b61024a600480360381019061024591906127c1565b610b58565b005b61026660048036038101906102619190612982565b610d46565b005b610270610e3d565b60405161027d9190612e29565b60405180910390f35b61028e610e67565b005b6102aa60048036038101906102a59190612902565b610eef565b005b6102c660048036038101906102c1919061266c565b611069565b6040516102d39190612e44565b60405180910390f35b6102e46110bf565b6040516102f19190613061565b60405180910390f35b610314600480360381019061030f91906126c6565b6110c9565b005b61031e61167b565b60405161032b9190612cd3565b60405180910390f35b61034e60048036038101906103499190612982565b6116a5565b005b61036a6004803603810190610365919061281b565b61179c565b005b61038660048036038101906103819190612982565b6118c6565b6040516103939190612cd3565b60405180910390f35b6103b660048036038101906103b191906128af565b6118e3565b005b6103d260048036038101906103cd91906127c1565b61198f565b005b6103dc611b01565b6040516103e99190613061565b60405180910390f35b61040c60048036038101906104079190612955565b611b12565b005b6104286004803603810190610423919061266c565b611bd2565b005b610432611cca565b60405161043f9190613061565b60405180910390f35b610450611ccf565b73ffffffffffffffffffffffffffffffffffffffff1661046e61167b565b73ffffffffffffffffffffffffffffffffffffffff16146104c4576040517f08c379a00000000000000000000000000000000000000000000000000000000081526004016104bb90612f21565b60405180910390fd5b806000806101000a81548173ffffffffffffffffffffffffffffffffffffffff021916908373ffffffffffffffffffffffffffffffffffffffff16021790555050565b61050f611ccf565b73ffffffffffffffffffffffffffffffffffffffff1661052d61167b565b73ffffffffffffffffffffffffffffffffffffffff1614610583576040517f08c379a000000000000000000000000000000000000000000000000000000000815260040161057a90612f21565b60405180910390fd5b6000600360009054906101000a900473ffffffffffffffffffffffffffffffffffffffff1673ffffffffffffffffffffffffffffffffffffffff16638523f311878787878760006040518763ffffffff1660e01b81526004016105eb96959493929190612d17565b602060405180830381600087803b15801561060557600080fd5b505af1158015610619573d6000803e3d6000fd5b505050506040513d601f19601f8201168201806040525081019061063d9190612699565b9050600073ffffffffffffffffffffffffffffffffffffffff168173ffffffffffffffffffffffffffffffffffffffff1614156106af576040517f08c379a00000000000000000000000000000000000000000000000000000000081526004016106a690612fc1565b60405180910390fd5b6001600660008373ffffffffffffffffffffffffffffffffffffffff1673ffffffffffffffffffffffffffffffffffffffff16815260200190815260200160002060006101000a81548160ff021916908360028111156107125761071161327d565b5b021790555061072b816007611cd790919063ffffffff16565b508573ffffffffffffffffffffffffffffffffffffffff168173ffffffffffffffffffffffffffffffffffffffff167f5864130135b8d46c4808bc474964778f56ef5f98402be58df45a515edd08d3048787878760405161078f949392919061307c565b60405180910390a36107a381600454611d07565b505050505050565b600160028111156107bf576107be61327d565b5b600660003373ffffffffffffffffffffffffffffffffffffffff1673ffffffffffffffffffffffffffffffffffffffff16815260200190815260200160002060009054906101000a900460ff16600281111561081e5761081d61327d565b5b1461085e576040517f08c379a000000000000000000000000000000000000000000000000000000000815260040161085590612f41565b60405180910390fd5b600454600160009054906101000a900473ffffffffffffffffffffffffffffffffffffffff1673ffffffffffffffffffffffffffffffffffffffff166370a08231336040518263ffffffff1660e01b81526004016108bc9190612cd3565b60206040518083038186803b1580156108d457600080fd5b505afa1580156108e8573d6000803e3d6000fd5b505050506040513d601f19601f8201168201806040525081019061090c91906129af565b111561094d576040517f08c379a000000000000000000000000000000000000000000000000000000000815260040161094490613041565b60405180910390fd5b6000600360009054906101000a900473ffffffffffffffffffffffffffffffffffffffff1673ffffffffffffffffffffffffffffffffffffffff1663b1909ef2336040518263ffffffff1660e01b81526004016109aa9190612d93565b60206040518083038186803b1580156109c257600080fd5b505afa1580156109d6573d6000803e3d6000fd5b505050506040513d601f19601f820116820180604052508101906109fa91906129af565b9050610a063382611d07565b50565b610a11611ccf565b73ffffffffffffffffffffffffffffffffffffffff16610a2f61167b565b73ffffffffffffffffffffffffffffffffffffffff1614610a85576040517f08c379a0000000000000000000000000000000000000000000000000000000008152600401610a7c90612f21565b60405180910390fd5b8373ffffffffffffffffffffffffffffffffffffffff16631501bf038484846040518463ffffffff1660e01b8152600401610ac293929190612df2565b600060405180830381600087803b158015610adc57600080fd5b505af1158015610af0573d6000803e3d6000fd5b5050505050505050565b6000600160009054906101000a900473ffffffffffffffffffffffffffffffffffffffff16905090565b6000600554905090565b6000600360009054906101000a900473ffffffffffffffffffffffffffffffffffffffff16905090565b610b60611ccf565b73ffffffffffffffffffffffffffffffffffffffff16610b7e61167b565b73ffffffffffffffffffffffffffffffffffffffff1614610bd4576040517f08c379a0000000000000000000000000000000000000000000000000000000008152600401610bcb90612f21565b60405180910390fd5b3073ffffffffffffffffffffffffffffffffffffffff168173ffffffffffffffffffffffffffffffffffffffff16635fac917a6040518163ffffffff1660e01b815260040160206040518083038186803b158015610c3157600080fd5b505afa158015610c45573d6000803e3d6000fd5b505050506040513d601f19601f82011682018060405250810190610c6991906127ee565b73ffffffffffffffffffffffffffffffffffffffff1614610cbf576040517f08c379a0000000000000000000000000000000000000000000000000000000008152600401610cb690612fe1565b60405180910390fd5b80600360006101000a81548173ffffffffffffffffffffffffffffffffffffffff021916908373ffffffffffffffffffffffffffffffffffffffff1602179055508073ffffffffffffffffffffffffffffffffffffffff167fa29f0e144018780bcd7a68990ea4b03e96034be4455b71a9b79e66c5a8c06a2e60405160405180910390a250565b610d4e611ccf565b73ffffffffffffffffffffffffffffffffffffffff16610d6c61167b565b73ffffffffffffffffffffffffffffffffffffffff1614610dc2576040517f08c379a0000000000000000000000000000000000000000000000000000000008152600401610db990612f21565b60405180910390fd5b8060045410610e06576040517f08c379a0000000000000000000000000000000000000000000000000000000008152600401610dfd90612f01565b60405180910390fd5b80600581905550807f99d204dd7ae6365474b11bb0e2750714699dc57fbe2d0b7c1bef72bb42f4405260405160405180910390a250565b6000600260009054906101000a900473ffffffffffffffffffffffffffffffffffffffff16905090565b610e6f611ccf565b73ffffffffffffffffffffffffffffffffffffffff16610e8d61167b565b73ffffffffffffffffffffffffffffffffffffffff1614610ee3576040517f08c379a0000000000000000000000000000000000000000000000000000000008152600401610eda90612f21565b60405180910390fd5b610eed6000611e29565b565b600960019054906101000a900460ff1680610f175750600960009054906101000a900460ff16155b610f56576040517f08c379a0000000000000000000000000000000000000000000000000000000008152600401610f4d90612ee1565b60405180910390fd5b6000600960019054906101000a900460ff161590508015610fa8576001600960016101000a81548160ff0219169083151502179055506001600960006101000a81548160ff0219169083151502179055505b610fb0611eef565b818310610ff2576040517f08c379a0000000000000000000000000000000000000000000000000000000008152600401610fe990613021565b60405180910390fd5b83600160006101000a81548173ffffffffffffffffffffffffffffffffffffffff021916908373ffffffffffffffffffffffffffffffffffffffff16021790555082600481905550816005819055508015611063576000600960016101000a81548160ff0219169083151502179055505b50505050565b6000600660008373ffffffffffffffffffffffffffffffffffffffff1673ffffffffffffffffffffffffffffffffffffffff16815260200190815260200160002060009054906101000a900460ff169050919050565b6000600454905090565b6110d1611ccf565b73ffffffffffffffffffffffffffffffffffffffff166110ef61167b565b73ffffffffffffffffffffffffffffffffffffffff1614611145576040517f08c379a000000000000000000000000000000000000000000000000000000000815260040161113c90612f21565b60405180910390fd5b6002600660008473ffffffffffffffffffffffffffffffffffffffff1673ffffffffffffffffffffffffffffffffffffffff16815260200190815260200160002060006101000a81548160ff021916908360028111156111a8576111a761327d565b5b0217905550600073ffffffffffffffffffffffffffffffffffffffff168273ffffffffffffffffffffffffffffffffffffffff16141561121d576040517f08c379a000000000000000000000000000000000000000000000000000000000815260040161121490612f61565b60405180910390fd5b60008173ffffffffffffffffffffffffffffffffffffffff16638523f311858573ffffffffffffffffffffffffffffffffffffffff1663830953ab6040518163ffffffff1660e01b815260040160206040518083038186803b15801561128257600080fd5b505afa158015611296573d6000803e3d6000fd5b505050506040513d601f19601f820116820180604052508101906112ba91906129af565b8673ffffffffffffffffffffffffffffffffffffffff1663d4938db36040518163ffffffff1660e01b815260040160206040518083038186803b15801561130057600080fd5b505afa158015611314573d6000803e3d6000fd5b505050506040513d601f19601f8201168201806040525081019061133891906129af565b8773ffffffffffffffffffffffffffffffffffffffff16630e5b7c536040518163ffffffff1660e01b815260040160206040518083038186803b15801561137e57600080fd5b505afa158015611392573d6000803e3d6000fd5b505050506040513d601f19601f820116820180604052508101906113b691906129af565b8873ffffffffffffffffffffffffffffffffffffffff1663597be18b6040518163ffffffff1660e01b815260040160206040518083038186803b1580156113fc57600080fd5b505afa158015611410573d6000803e3d6000fd5b505050506040513d601f19601f8201168201806040525081019061143491906129af565b896040518763ffffffff1660e01b815260040161145696959493929190612d17565b602060405180830381600087803b15801561147057600080fd5b505af1158015611484573d6000803e3d6000fd5b505050506040513d601f19601f820116820180604052508101906114a89190612699565b9050600073ffffffffffffffffffffffffffffffffffffffff168173ffffffffffffffffffffffffffffffffffffffff16141561151a576040517f08c379a000000000000000000000000000000000000000000000000000000000815260040161151190612f61565b60405180910390fd5b8273ffffffffffffffffffffffffffffffffffffffff16631fe9578e82866040518363ffffffff1660e01b8152600401611555929190612dae565b600060405180830381600087803b15801561156f57600080fd5b505af1158015611583573d6000803e3d6000fd5b505050506001600660008373ffffffffffffffffffffffffffffffffffffffff1673ffffffffffffffffffffffffffffffffffffffff16815260200190815260200160002060006101000a81548160ff021916908360028111156115ea576115e961327d565b5b0217905550611603816007611cd790919063ffffffff16565b508273ffffffffffffffffffffffffffffffffffffffff168173ffffffffffffffffffffffffffffffffffffffff168573ffffffffffffffffffffffffffffffffffffffff167f98c0ae41ed9dcfef204d20409e01d4051eee4da4276aa4b5fa1cb3cf01403d6860405160405180910390a450505050565b6000603c60009054906101000a900473ffffffffffffffffffffffffffffffffffffffff16905090565b6116ad611ccf565b73ffffffffffffffffffffffffffffffffffffffff166116cb61167b565b73ffffffffffffffffffffffffffffffffffffffff1614611721576040517f08c379a000000000000000000000000000000000000000000000000000000000815260040161171890612f21565b60405180910390fd5b6005548110611765576040517f08c379a000000000000000000000000000000000000000000000000000000000815260040161175c90612ec1565b60405180910390fd5b80600481905550807f61d018ca7dd3e2bb8e9a1994153b31c93371ac0e87da1f4dfcfa73e31a332fb160405160405180910390a250565b6117a4611ccf565b73ffffffffffffffffffffffffffffffffffffffff166117c261167b565b73ffffffffffffffffffffffffffffffffffffffff1614611818576040517f08c379a000000000000000000000000000000000000000000000000000000000815260040161180f90612f21565b60405180910390fd5b6002600660008373ffffffffffffffffffffffffffffffffffffffff1673ffffffffffffffffffffffffffffffffffffffff16815260200190815260200160002060006101000a81548160ff0219169083600281111561187b5761187a61327d565b5b02179055508073ffffffffffffffffffffffffffffffffffffffff167fa285b77d62d36ec6881b2cbc019c53874eb061798176f3577f2beab0848d16c660405160405180910390a250565b60006118dc826007611fdd90919063ffffffff16565b9050919050565b6118eb611ccf565b73ffffffffffffffffffffffffffffffffffffffff1661190961167b565b73ffffffffffffffffffffffffffffffffffffffff161461195f576040517f08c379a000000000000000000000000000000000000000000000000000000000815260040161195690612f21565b60405180910390fd5b61198a82828573ffffffffffffffffffffffffffffffffffffffff16611ff79092919063ffffffff16565b505050565b611997611ccf565b73ffffffffffffffffffffffffffffffffffffffff166119b561167b565b73ffffffffffffffffffffffffffffffffffffffff1614611a0b576040517f08c379a0000000000000000000000000000000000000000000000000000000008152600401611a0290612f21565b60405180910390fd5b600073ffffffffffffffffffffffffffffffffffffffff168173ffffffffffffffffffffffffffffffffffffffff1614611a7a576040517f08c379a0000000000000000000000000000000000000000000000000000000008152600401611a7190612f81565b60405180910390fd5b80600360006101000a81548173ffffffffffffffffffffffffffffffffffffffff021916908373ffffffffffffffffffffffffffffffffffffffff1602179055508073ffffffffffffffffffffffffffffffffffffffff167fa29f0e144018780bcd7a68990ea4b03e96034be4455b71a9b79e66c5a8c06a2e60405160405180910390a250565b6000611b0d600761207d565b905090565b611b1a611ccf565b73ffffffffffffffffffffffffffffffffffffffff16611b3861167b565b73ffffffffffffffffffffffffffffffffffffffff1614611b8e576040517f08c379a0000000000000000000000000000000000000000000000000000000008152600401611b8590612f21565b60405180910390fd5b80600260006101000a81548173ffffffffffffffffffffffffffffffffffffffff021916908373ffffffffffffffffffffffffffffffffffffffff16021790555050565b611bda611ccf565b73ffffffffffffffffffffffffffffffffffffffff16611bf861167b565b73ffffffffffffffffffffffffffffffffffffffff1614611c4e576040517f08c379a0000000000000000000000000000000000000000000000000000000008152600401611c4590612f21565b60405180910390fd5b600073ffffffffffffffffffffffffffffffffffffffff168173ffffffffffffffffffffffffffffffffffffffff161415611cbe576040517f08c379a0000000000000000000000000000000000000000000000000000000008152600401611cb590612e81565b60405180910390fd5b611cc781611e29565b50565b600181565b600033905090565b6000611cff836000018373ffffffffffffffffffffffffffffffffffffffff1660001b612092565b905092915050565b600260009054906101000a900473ffffffffffffffffffffffffffffffffffffffff1673ffffffffffffffffffffffffffffffffffffffff1663beabacc8600160009054906101000a900473ffffffffffffffffffffffffffffffffffffffff1684846040518463ffffffff1660e01b8152600401611d8893929190612df2565b600060405180830381600087803b158015611da257600080fd5b505af1158015611db6573d6000803e3d6000fd5b505050508173ffffffffffffffffffffffffffffffffffffffff1663b809ee82826040518263ffffffff1660e01b8152600401611df39190613061565b600060405180830381600087803b158015611e0d57600080fd5b505af1158015611e21573d6000803e3d6000fd5b505050505050565b6000603c60009054906101000a900473ffffffffffffffffffffffffffffffffffffffff16905081603c60006101000a81548173ffffffffffffffffffffffffffffffffffffffff021916908373ffffffffffffffffffffffffffffffffffffffff1602179055508173ffffffffffffffffffffffffffffffffffffffff168173ffffffffffffffffffffffffffffffffffffffff167f8be0079c531659141344cd1fd0a4f28419497f9722a3daafe3b4186f6b6457e060405160405180910390a35050565b600960019054906101000a900460ff1680611f175750600960009054906101000a900460ff16155b611f56576040517f08c379a0000000000000000000000000000000000000000000000000000000008152600401611f4d90612ee1565b60405180910390fd5b6000600960019054906101000a900460ff161590508015611fa8576001600960016101000a81548160ff0219169083151502179055506001600960006101000a81548160ff0219169083151502179055505b611fb0612102565b611fb86121e0565b8015611fda576000600960016101000a81548160ff0219169083151502179055505b50565b6000611fec83600001836122ce565b60001c905092915050565b6120788363a9059cbb60e01b8484604051602401612016929190612cee565b604051602081830303815290604052907bffffffffffffffffffffffffffffffffffffffffffffffffffffffff19166020820180517bffffffffffffffffffffffffffffffffffffffffffffffffffffffff83818316178352505050506122f9565b505050565b600061208b826000016123c0565b9050919050565b600061209e83836123d1565b6120f75782600001829080600181540180825580915050600190039060005260206000200160009091909190915055826000018054905083600101600084815260200190815260200160002081905550600190506120fc565b600090505b92915050565b600960019054906101000a900460ff168061212a5750600960009054906101000a900460ff16155b612169576040517f08c379a000000000000000000000000000000000000000000000000000000000815260040161216090612ee1565b60405180910390fd5b6000600960019054906101000a900460ff1615905080156121bb576001600960016101000a81548160ff0219169083151502179055506001600960006101000a81548160ff0219169083151502179055505b80156121dd576000600960016101000a81548160ff0219169083151502179055505b50565b600960019054906101000a900460ff16806122085750600960009054906101000a900460ff16155b612247576040517f08c379a000000000000000000000000000000000000000000000000000000000815260040161223e90612ee1565b60405180910390fd5b6000600960019054906101000a900460ff161590508015612299576001600960016101000a81548160ff0219169083151502179055506001600960006101000a81548160ff0219169083151502179055505b6122a96122a4611ccf565b611e29565b80156122cb576000600960016101000a81548160ff0219169083151502179055505b50565b60008260000182815481106122e6576122e56132ac565b5b9060005260206000200154905092915050565b600061235b826040518060400160405280602081526020017f5361666545524332303a206c6f772d6c6576656c2063616c6c206661696c65648152508573ffffffffffffffffffffffffffffffffffffffff166123f49092919063ffffffff16565b90506000815111156123bb578080602001905181019061237b9190612794565b6123ba576040517f08c379a00000000000000000000000000000000000000000000000000000000081526004016123b190613001565b60405180910390fd5b5b505050565b600081600001805490509050919050565b600080836001016000848152602001908152602001600020541415905092915050565b6060612403848460008561240c565b90509392505050565b606082471015612451576040517f08c379a000000000000000000000000000000000000000000000000000000000815260040161244890612ea1565b60405180910390fd5b61245a85612520565b612499576040517f08c379a000000000000000000000000000000000000000000000000000000000815260040161249090612fa1565b60405180910390fd5b6000808673ffffffffffffffffffffffffffffffffffffffff1685876040516124c29190612cbc565b60006040518083038185875af1925050503d80600081146124ff576040519150601f19603f3d011682016040523d82523d6000602084013e612504565b606091505b5091509150612514828286612533565b92505050949350505050565b600080823b905060008111915050919050565b6060831561254357829050612593565b6000835111156125565782518084602001fd5b816040517f08c379a000000000000000000000000000000000000000000000000000000000815260040161258a9190612e5f565b60405180910390fd5b9392505050565b6000813590506125a9816137f2565b92915050565b6000815190506125be816137f2565b92915050565b6000815190506125d381613809565b92915050565b6000813590506125e881613820565b92915050565b6000815190506125fd81613837565b92915050565b6000813590506126128161384e565b92915050565b60008135905061262781613865565b92915050565b60008135905061263c8161387c565b92915050565b60008135905061265181613893565b92915050565b60008151905061266681613893565b92915050565b600060208284031215612682576126816132db565b5b60006126908482850161259a565b91505092915050565b6000602082840312156126af576126ae6132db565b5b60006126bd848285016125af565b91505092915050565b6000806000606084860312156126df576126de6132db565b5b60006126ed8682870161259a565b93505060206126fe86828701612603565b925050604061270f868287016125d9565b9150509250925092565b600080600080600060a08688031215612735576127346132db565b5b60006127438882890161259a565b955050602061275488828901612642565b945050604061276588828901612642565b935050606061277688828901612642565b925050608061278788828901612642565b9150509295509295909350565b6000602082840312156127aa576127a96132db565b5b60006127b8848285016125c4565b91505092915050565b6000602082840312156127d7576127d66132db565b5b60006127e5848285016125d9565b91505092915050565b600060208284031215612804576128036132db565b5b6000612812848285016125ee565b91505092915050565b600060208284031215612831576128306132db565b5b600061283f84828501612603565b91505092915050565b60008060008060808587031215612862576128616132db565b5b600061287087828801612603565b945050602061288187828801612618565b93505060406128928782880161259a565b92505060606128a387828801612642565b91505092959194509250565b6000806000606084860312156128c8576128c76132db565b5b60006128d686828701612618565b93505060206128e78682870161259a565b92505060406128f886828701612642565b9150509250925092565b60008060006060848603121561291b5761291a6132db565b5b600061292986828701612618565b935050602061293a86828701612642565b925050604061294b86828701612642565b9150509250925092565b60006020828403121561296b5761296a6132db565b5b60006129798482850161262d565b91505092915050565b600060208284031215612998576129976132db565b5b60006129a684828501612642565b91505092915050565b6000602082840312156129c5576129c46132db565b5b60006129d384828501612657565b91505092915050565b6129e5816130f3565b82525050565b60006129f6826130c1565b612a0081856130d7565b9350612a1081856020860161324a565b80840191505092915050565b612a25816131a8565b82525050565b612a34816131cc565b82525050565b612a43816131f0565b82525050565b612a5281613214565b82525050565b612a6181613238565b82525050565b6000612a72826130cc565b612a7c81856130e2565b9350612a8c81856020860161324a565b612a95816132e0565b840191505092915050565b6000612aad6026836130e2565b9150612ab8826132f1565b604082019050919050565b6000612ad06026836130e2565b9150612adb82613340565b604082019050919050565b6000612af36067836130e2565b9150612afe8261338f565b608082019050919050565b6000612b16602e836130e2565b9150612b218261342a565b604082019050919050565b6000612b39606a836130e2565b9150612b4482613479565b608082019050919050565b6000612b5c6020836130e2565b9150612b6782613514565b602082019050919050565b6000612b7f601d836130e2565b9150612b8a8261353d565b602082019050919050565b6000612ba2602b836130e2565b9150612bad82613566565b604082019050919050565b6000612bc56033836130e2565b9150612bd0826135b5565b604082019050919050565b6000612be8601d836130e2565b9150612bf382613604565b602082019050919050565b6000612c0b6027836130e2565b9150612c168261362d565b604082019050919050565b6000612c2e6034836130e2565b9150612c398261367c565b604082019050919050565b6000612c51602a836130e2565b9150612c5c826136cb565b604082019050919050565b6000612c746058836130e2565b9150612c7f8261371a565b606082019050919050565b6000612c97603e836130e2565b9150612ca28261378f565b604082019050919050565b612cb68161319e565b82525050565b6000612cc882846129eb565b915081905092915050565b6000602082019050612ce860008301846129dc565b92915050565b6000604082019050612d0360008301856129dc565b612d106020830184612cad565b9392505050565b600060c082019050612d2c60008301896129dc565b612d396020830188612cad565b612d466040830187612cad565b612d536060830186612cad565b612d606080830185612cad565b612d6d60a0830184612a2b565b979650505050505050565b6000602082019050612d8d6000830184612a1c565b92915050565b6000602082019050612da86000830184612a2b565b92915050565b6000604082019050612dc36000830185612a2b565b612dd060208301846129dc565b9392505050565b6000602082019050612dec6000830184612a3a565b92915050565b6000606082019050612e076000830186612a3a565b612e1460208301856129dc565b612e216040830184612cad565b949350505050565b6000602082019050612e3e6000830184612a49565b92915050565b6000602082019050612e596000830184612a58565b92915050565b60006020820190508181036000830152612e798184612a67565b905092915050565b60006020820190508181036000830152612e9a81612aa0565b9050919050565b60006020820190508181036000830152612eba81612ac3565b9050919050565b60006020820190508181036000830152612eda81612ae6565b9050919050565b60006020820190508181036000830152612efa81612b09565b9050919050565b60006020820190508181036000830152612f1a81612b2c565b9050919050565b60006020820190508181036000830152612f3a81612b4f565b9050919050565b60006020820190508181036000830152612f5a81612b72565b9050919050565b60006020820190508181036000830152612f7a81612b95565b9050919050565b60006020820190508181036000830152612f9a81612bb8565b9050919050565b60006020820190508181036000830152612fba81612bdb565b9050919050565b60006020820190508181036000830152612fda81612bfe565b9050919050565b60006020820190508181036000830152612ffa81612c21565b9050919050565b6000602082019050818103600083015261301a81612c44565b9050919050565b6000602082019050818103600083015261303a81612c67565b9050919050565b6000602082019050818103600083015261305a81612c8a565b9050919050565b60006020820190506130766000830184612cad565b92915050565b60006080820190506130916000830187612cad565b61309e6020830186612cad565b6130ab6040830185612cad565b6130b86060830184612cad565b95945050505050565b600081519050919050565b600081519050919050565b600081905092915050565b600082825260208201905092915050565b60006130fe8261317e565b9050919050565b60008115159050919050565b600061311c826130f3565b9050919050565b600061312e826130f3565b9050919050565b6000613140826130f3565b9050919050565b6000613152826130f3565b9050919050565b6000613164826130f3565b9050919050565b6000819050613179826137de565b919050565b600073ffffffffffffffffffffffffffffffffffffffff82169050919050565b6000819050919050565b60006131b3826131ba565b9050919050565b60006131c58261317e565b9050919050565b60006131d7826131de565b9050919050565b60006131e98261317e565b9050919050565b60006131fb82613202565b9050919050565b600061320d8261317e565b9050919050565b600061321f82613226565b9050919050565b60006132318261317e565b9050919050565b60006132438261316b565b9050919050565b60005b8381101561326857808201518184015260208101905061324d565b83811115613277576000848401525b50505050565b7f4e487b7100000000000000000000000000000000000000000000000000000000600052602160045260246000fd5b7f4e487b7100000000000000000000000000000000000000000000000000000000600052603260045260246000fd5b600080fd5b6000601f19601f8301169050919050565b7f4f776e61626c653a206e6577206f776e657220697320746865207a65726f206160008201527f6464726573730000000000000000000000000000000000000000000000000000602082015250565b7f416464726573733a20696e73756666696369656e742062616c616e636520666f60008201527f722063616c6c0000000000000000000000000000000000000000000000000000602082015250565b7f436f6d6d756e69747941646d696e3a3a736574436f6d6d756e6974794d696e5460008201527f72616e6368653a204e657720636f6d6d756e6974794d696e5472616e6368652060208201527f73686f756c64206265206c657373207468656e20636f6d6d756e6974794d617860408201527f5472616e63686500000000000000000000000000000000000000000000000000606082015250565b7f496e697469616c697a61626c653a20636f6e747261637420697320616c72656160008201527f647920696e697469616c697a6564000000000000000000000000000000000000602082015250565b7f436f6d6d756e69747941646d696e3a3a736574436f6d6d756e6974794d61785460008201527f72616e6368653a204e657720636f6d6d756e6974794d61785472616e6368652060208201527f73686f756c642062652067726561746572207468656e20636f6d6d756e69747960408201527f4d696e5472616e63686500000000000000000000000000000000000000000000606082015250565b7f4f776e61626c653a2063616c6c6572206973206e6f7420746865206f776e6572600082015250565b7f436f6d6d756e69747941646d696e3a204e4f545f434f4d4d554e495459000000600082015250565b7f436f6d6d756e69747941646d696e3a3a6d696772617465436f6d6d756e69747960008201527f3a204e4f545f56414c4944000000000000000000000000000000000000000000602082015250565b7f436f6d6d756e69747941646d696e3a3a696e6974436f6d6d756e69747941646d60008201527f696e48656c7065723a204e4f545f56414c494400000000000000000000000000602082015250565b7f416464726573733a2063616c6c20746f206e6f6e2d636f6e7472616374000000600082015250565b7f436f6d6d756e69747941646d696e3a3a616464436f6d6d756e6974793a204e4f60008201527f545f56414c494400000000000000000000000000000000000000000000000000602082015250565b7f436f6d6d756e69747941646d696e3a3a736574436f6d6d756e69747941646d6960008201527f6e48656c7065723a204e4f545f414c4c4f574544000000000000000000000000602082015250565b7f5361666545524332303a204552433230206f7065726174696f6e20646964206e60008201527f6f74207375636365656400000000000000000000000000000000000000000000602082015250565b7f436f6d6d756e69747941646d696e3a3a636f6e7374727563746f723a20636f6d60008201527f6d756e6974794d696e5472616e6368652073686f756c64206265206c6573732060208201527f7468656e20636f6d6d756e6974794d61785472616e6368650000000000000000604082015250565b7f436f6d6d756e69747941646d696e3a3a66756e64436f6d6d756e6974793a207460008201527f68697320636f6d6d756e6974792068617320656e6f7567682066756e64730000602082015250565b600381106137ef576137ee61327d565b5b50565b6137fb816130f3565b811461380657600080fd5b50565b61381281613105565b811461381d57600080fd5b50565b61382981613111565b811461383457600080fd5b50565b61384081613123565b811461384b57600080fd5b50565b61385781613135565b811461386257600080fd5b50565b61386e81613147565b811461387957600080fd5b50565b61388581613159565b811461389057600080fd5b50565b61389c8161319e565b81146138a757600080fd5b5056fea26469706673582212206881998b81fbd0e6d8caf4d14045ce53cd90143458e90f12eb4540238cdf3fd064736f6c63430008050033",
  "devdoc": {
    "kind": "dev",
    "methods": {
      "addCommunity(address,uint256,uint256,uint256,uint256)": {
        "details": "Add a new community. Can be used only by an admin. For further information regarding each parameter, see *Community* smart contract constructor."
      },
      "initCommunityAdminHelper(address)": {
        "details": "Init community factory, used only at deploy time."
      },
      "initialize(address,uint256,uint256)": {
        "details": "It sets the first admin, which later can add others and add/remove communities."
      },
      "migrateCommunity(address,address,address)": {
        "details": "Migrate community by deploying a new contract. Can be used only by an admin. For further information regarding each parameter, see *Community* smart contract constructor."
      },
      "owner()": {
        "details": "Returns the address of the current owner."
      },
      "removeCommunity(address)": {
        "details": "Remove an existing community. Can be used only by an admin."
      },
      "renounceOwnership()": {
        "details": "Leaves the contract without owner. It will not be possible to call `onlyOwner` functions anymore. Can only be called by the current owner. NOTE: Renouncing ownership will leave the contract without an owner, thereby removing any functionality that is only available to the owner."
      },
      "setCommunityAdminHelper(address)": {
        "details": "Set the community factory address, if the contract is valid."
      },
      "setCommunityMaxTranche(uint256)": {
        "details": "Set the community max tranche"
      },
      "setCommunityMinTranche(uint256)": {
        "details": "Set the community min tranche"
      },
      "transferOwnership(address)": {
        "details": "Transfers ownership of the contract to a new account (`newOwner`). Can only be called by the current owner."
      }
    },
    "version": 1
  },
  "userdoc": {
    "kind": "user",
    "methods": {},
    "notice": "Welcome to CommunityAdmin, the main contract. This is an administrative (for now) contract where the admins have control over the list of communities. Being only able to add and remove communities",
    "version": 1
  },
  "storageLayout": {
    "storage": [
      {
        "astId": 7160,
        "contract": "contracts/community/CommunityAdminImplementation.sol:CommunityAdminImplementation",
        "label": "implementation",
        "offset": 0,
        "slot": "0",
        "type": "t_address"
      },
      {
        "astId": 7163,
        "contract": "contracts/community/CommunityAdminImplementation.sol:CommunityAdminImplementation",
        "label": "_cUSD",
        "offset": 0,
        "slot": "1",
        "type": "t_contract(IERC20)1678"
      },
      {
        "astId": 7166,
        "contract": "contracts/community/CommunityAdminImplementation.sol:CommunityAdminImplementation",
        "label": "_treasury",
        "offset": 0,
        "slot": "2",
        "type": "t_contract(ITreasury)11153"
      },
      {
        "astId": 7169,
        "contract": "contracts/community/CommunityAdminImplementation.sol:CommunityAdminImplementation",
        "label": "_communityAdminHelper",
        "offset": 0,
        "slot": "3",
        "type": "t_contract(ICommunityAdminHelper)7579"
      },
      {
        "astId": 7171,
        "contract": "contracts/community/CommunityAdminImplementation.sol:CommunityAdminImplementation",
        "label": "_communityMinTranche",
        "offset": 0,
        "slot": "4",
        "type": "t_uint256"
      },
      {
        "astId": 7173,
        "contract": "contracts/community/CommunityAdminImplementation.sol:CommunityAdminImplementation",
        "label": "_communityMaxTranche",
        "offset": 0,
        "slot": "5",
        "type": "t_uint256"
      },
      {
        "astId": 7178,
        "contract": "contracts/community/CommunityAdminImplementation.sol:CommunityAdminImplementation",
        "label": "_communities",
        "offset": 0,
        "slot": "6",
        "type": "t_mapping(t_address,t_enum(CommunityState)7408)"
      },
      {
        "astId": 7181,
        "contract": "contracts/community/CommunityAdminImplementation.sol:CommunityAdminImplementation",
        "label": "_communityList",
        "offset": 0,
        "slot": "7",
        "type": "t_struct(AddressSet)3412_storage"
      },
      {
        "astId": 130,
        "contract": "contracts/community/CommunityAdminImplementation.sol:CommunityAdminImplementation",
        "label": "_initialized",
        "offset": 0,
        "slot": "9",
        "type": "t_bool"
      },
      {
        "astId": 133,
        "contract": "contracts/community/CommunityAdminImplementation.sol:CommunityAdminImplementation",
        "label": "_initializing",
        "offset": 1,
        "slot": "9",
        "type": "t_bool"
      },
      {
        "astId": 213,
        "contract": "contracts/community/CommunityAdminImplementation.sol:CommunityAdminImplementation",
        "label": "__gap",
        "offset": 0,
        "slot": "10",
        "type": "t_array(t_uint256)50_storage"
      },
      {
        "astId": 10,
        "contract": "contracts/community/CommunityAdminImplementation.sol:CommunityAdminImplementation",
        "label": "_owner",
        "offset": 0,
        "slot": "60",
        "type": "t_address"
      },
      {
        "astId": 123,
        "contract": "contracts/community/CommunityAdminImplementation.sol:CommunityAdminImplementation",
        "label": "__gap",
        "offset": 0,
        "slot": "61",
        "type": "t_array(t_uint256)49_storage"
      }
    ],
    "types": {
      "t_address": {
        "encoding": "inplace",
        "label": "address",
        "numberOfBytes": "20"
      },
      "t_array(t_bytes32)dyn_storage": {
        "base": "t_bytes32",
        "encoding": "dynamic_array",
        "label": "bytes32[]",
        "numberOfBytes": "32"
      },
      "t_array(t_uint256)49_storage": {
        "base": "t_uint256",
        "encoding": "inplace",
        "label": "uint256[49]",
        "numberOfBytes": "1568"
      },
      "t_array(t_uint256)50_storage": {
        "base": "t_uint256",
        "encoding": "inplace",
        "label": "uint256[50]",
        "numberOfBytes": "1600"
      },
      "t_bool": {
        "encoding": "inplace",
        "label": "bool",
        "numberOfBytes": "1"
      },
      "t_bytes32": {
        "encoding": "inplace",
        "label": "bytes32",
        "numberOfBytes": "32"
      },
      "t_contract(ICommunityAdminHelper)7579": {
        "encoding": "inplace",
        "label": "contract ICommunityAdminHelper",
        "numberOfBytes": "20"
      },
      "t_contract(IERC20)1678": {
        "encoding": "inplace",
        "label": "contract IERC20",
        "numberOfBytes": "20"
      },
      "t_contract(ITreasury)11153": {
        "encoding": "inplace",
        "label": "contract ITreasury",
        "numberOfBytes": "20"
      },
      "t_enum(CommunityState)7408": {
        "encoding": "inplace",
        "label": "enum ICommunityAdmin.CommunityState",
        "numberOfBytes": "1"
      },
      "t_mapping(t_address,t_enum(CommunityState)7408)": {
        "encoding": "mapping",
        "key": "t_address",
        "label": "mapping(address => enum ICommunityAdmin.CommunityState)",
        "numberOfBytes": "32",
        "value": "t_enum(CommunityState)7408"
      },
      "t_mapping(t_bytes32,t_uint256)": {
        "encoding": "mapping",
        "key": "t_bytes32",
        "label": "mapping(bytes32 => uint256)",
        "numberOfBytes": "32",
        "value": "t_uint256"
      },
      "t_struct(AddressSet)3412_storage": {
        "encoding": "inplace",
        "label": "struct EnumerableSet.AddressSet",
        "members": [
          {
            "astId": 3411,
            "contract": "contracts/community/CommunityAdminImplementation.sol:CommunityAdminImplementation",
            "label": "_inner",
            "offset": 0,
            "slot": "0",
            "type": "t_struct(Set)3141_storage"
          }
        ],
        "numberOfBytes": "64"
      },
      "t_struct(Set)3141_storage": {
        "encoding": "inplace",
        "label": "struct EnumerableSet.Set",
        "members": [
          {
            "astId": 3136,
            "contract": "contracts/community/CommunityAdminImplementation.sol:CommunityAdminImplementation",
            "label": "_values",
            "offset": 0,
            "slot": "0",
            "type": "t_array(t_bytes32)dyn_storage"
          },
          {
            "astId": 3140,
            "contract": "contracts/community/CommunityAdminImplementation.sol:CommunityAdminImplementation",
            "label": "_indexes",
            "offset": 0,
            "slot": "1",
            "type": "t_mapping(t_bytes32,t_uint256)"
          }
        ],
        "numberOfBytes": "64"
      },
      "t_uint256": {
        "encoding": "inplace",
        "label": "uint256",
        "numberOfBytes": "32"
      }
    }
  }
}