{
  "address": "0x62A116371B3897e6222C26AE196be92122f3bb47",
  "abi": [
    {
      "anonymous": false,
      "inputs": [
        {
          "indexed": true,
          "internalType": "address",
          "name": "_account",
          "type": "address"
        }
      ],
      "name": "BeneficiaryAdded",
      "type": "event"
    },
    {
      "anonymous": false,
      "inputs": [
        {
          "indexed": true,
          "internalType": "address",
          "name": "_account",
          "type": "address"
        },
        {
          "indexed": false,
          "internalType": "uint256",
          "name": "_amount",
          "type": "uint256"
        }
      ],
      "name": "BeneficiaryClaim",
      "type": "event"
    },
    {
      "anonymous": false,
      "inputs": [
        {
          "indexed": true,
          "internalType": "address",
          "name": "_account",
          "type": "address"
        }
      ],
      "name": "BeneficiaryLocked",
      "type": "event"
    },
    {
      "anonymous": false,
      "inputs": [
        {
          "indexed": true,
          "internalType": "address",
          "name": "_account",
          "type": "address"
        }
      ],
      "name": "BeneficiaryRemoved",
      "type": "event"
    },
    {
      "anonymous": false,
      "inputs": [
        {
          "indexed": true,
          "internalType": "address",
          "name": "_account",
          "type": "address"
        }
      ],
      "name": "BeneficiaryUnlocked",
      "type": "event"
    },
    {
      "anonymous": false,
      "inputs": [
        {
          "indexed": false,
          "internalType": "uint256",
          "name": "_claimAmount",
          "type": "uint256"
        },
        {
          "indexed": false,
          "internalType": "uint256",
          "name": "_maxClaim",
          "type": "uint256"
        },
        {
          "indexed": false,
          "internalType": "uint256",
          "name": "_decreaseStep",
          "type": "uint256"
        },
        {
          "indexed": false,
          "internalType": "uint256",
          "name": "_baseInterval",
          "type": "uint256"
        },
        {
          "indexed": false,
          "internalType": "uint256",
          "name": "_incrementInterval",
          "type": "uint256"
        }
      ],
      "name": "CommunityEdited",
      "type": "event"
    },
    {
      "anonymous": false,
      "inputs": [
        {
          "indexed": true,
          "internalType": "address",
          "name": "_by",
          "type": "address"
        }
      ],
      "name": "CommunityLocked",
      "type": "event"
    },
    {
      "anonymous": false,
      "inputs": [
        {
          "indexed": true,
          "internalType": "address",
          "name": "_by",
          "type": "address"
        }
      ],
      "name": "CommunityUnlocked",
      "type": "event"
    },
    {
      "anonymous": false,
      "inputs": [
        {
          "indexed": true,
          "internalType": "address",
          "name": "_account",
          "type": "address"
        }
      ],
      "name": "ManagerAdded",
      "type": "event"
    },
    {
      "anonymous": false,
      "inputs": [
        {
          "indexed": true,
          "internalType": "address",
          "name": "_account",
          "type": "address"
        }
      ],
      "name": "ManagerRemoved",
      "type": "event"
    },
    {
      "anonymous": false,
      "inputs": [
        {
          "indexed": true,
          "internalType": "address",
          "name": "_to",
          "type": "address"
        },
        {
          "indexed": false,
          "internalType": "uint256",
          "name": "_amount",
          "type": "uint256"
        }
      ],
      "name": "MigratedFunds",
      "type": "event"
    },
    {
      "anonymous": false,
      "inputs": [
        {
          "indexed": true,
          "internalType": "address",
          "name": "previousOwner",
          "type": "address"
        },
        {
          "indexed": true,
          "internalType": "address",
          "name": "newOwner",
          "type": "address"
        }
      ],
      "name": "OwnershipTransferred",
      "type": "event"
    },
    {
      "anonymous": false,
      "inputs": [
        {
          "indexed": true,
          "internalType": "bytes32",
          "name": "role",
          "type": "bytes32"
        },
        {
          "indexed": true,
          "internalType": "bytes32",
          "name": "previousAdminRole",
          "type": "bytes32"
        },
        {
          "indexed": true,
          "internalType": "bytes32",
          "name": "newAdminRole",
          "type": "bytes32"
        }
      ],
      "name": "RoleAdminChanged",
      "type": "event"
    },
    {
      "anonymous": false,
      "inputs": [
        {
          "indexed": true,
          "internalType": "bytes32",
          "name": "role",
          "type": "bytes32"
        },
        {
          "indexed": true,
          "internalType": "address",
          "name": "account",
          "type": "address"
        },
        {
          "indexed": true,
          "internalType": "address",
          "name": "sender",
          "type": "address"
        }
      ],
      "name": "RoleGranted",
      "type": "event"
    },
    {
      "anonymous": false,
      "inputs": [
        {
          "indexed": true,
          "internalType": "bytes32",
          "name": "role",
          "type": "bytes32"
        },
        {
          "indexed": true,
          "internalType": "address",
          "name": "account",
          "type": "address"
        },
        {
          "indexed": true,
          "internalType": "address",
          "name": "sender",
          "type": "address"
        }
      ],
      "name": "RoleRevoked",
      "type": "event"
    },
    {
      "inputs": [],
      "name": "DEFAULT_ADMIN_ROLE",
      "outputs": [
        {
          "internalType": "bytes32",
          "name": "",
          "type": "bytes32"
        }
      ],
      "stateMutability": "view",
      "type": "function"
    },
    {
      "inputs": [],
      "name": "DEFAULT_AMOUNT",
      "outputs": [
        {
          "internalType": "uint256",
          "name": "",
          "type": "uint256"
        }
      ],
      "stateMutability": "view",
      "type": "function"
    },
    {
      "inputs": [],
      "name": "MANAGER_ROLE",
      "outputs": [
        {
          "internalType": "bytes32",
          "name": "",
          "type": "bytes32"
        }
      ],
      "stateMutability": "view",
      "type": "function"
    },
    {
      "inputs": [],
      "name": "VERSION",
      "outputs": [
        {
          "internalType": "uint256",
          "name": "",
          "type": "uint256"
        }
      ],
      "stateMutability": "view",
      "type": "function"
    },
    {
      "inputs": [
        {
          "internalType": "address",
          "name": "beneficiaryAddress_",
          "type": "address"
        }
      ],
      "name": "addBeneficiary",
      "outputs": [],
      "stateMutability": "nonpayable",
      "type": "function"
    },
    {
      "inputs": [
        {
          "internalType": "address",
          "name": "_account",
          "type": "address"
        }
      ],
      "name": "addManager",
      "outputs": [],
      "stateMutability": "nonpayable",
      "type": "function"
    },
    {
      "inputs": [
        {
          "internalType": "uint256",
          "name": "_amount",
          "type": "uint256"
        }
      ],
      "name": "addTreasuryFunds",
      "outputs": [],
      "stateMutability": "nonpayable",
      "type": "function"
    },
    {
      "inputs": [],
      "name": "baseInterval",
      "outputs": [
        {
          "internalType": "uint256",
          "name": "",
          "type": "uint256"
        }
      ],
      "stateMutability": "view",
      "type": "function"
    },
    {
      "inputs": [
        {
          "internalType": "address",
          "name": "beneficiary_",
          "type": "address"
        }
      ],
      "name": "beneficiaries",
      "outputs": [
        {
          "components": [
            {
              "internalType": "enum ICommunity.BeneficiaryState",
              "name": "state",
              "type": "uint8"
            },
            {
              "internalType": "uint256",
              "name": "claims",
              "type": "uint256"
            },
            {
              "internalType": "uint256",
              "name": "claimedAmount",
              "type": "uint256"
            },
            {
              "internalType": "uint256",
              "name": "lastClaim",
              "type": "uint256"
            }
          ],
          "internalType": "struct ICommunity.Beneficiary",
          "name": "",
          "type": "tuple"
        }
      ],
      "stateMutability": "view",
      "type": "function"
    },
    {
      "inputs": [],
      "name": "beneficiaryJoinFromMigrated",
      "outputs": [],
      "stateMutability": "nonpayable",
      "type": "function"
    },
    {
      "inputs": [
        {
          "internalType": "uint256",
          "name": "index",
          "type": "uint256"
        }
      ],
      "name": "beneficiaryList",
      "outputs": [
        {
          "internalType": "address",
          "name": "",
          "type": "address"
        }
      ],
      "stateMutability": "view",
      "type": "function"
    },
    {
      "inputs": [],
      "name": "beneficiaryListLength",
      "outputs": [
        {
          "internalType": "uint256",
          "name": "",
          "type": "uint256"
        }
      ],
      "stateMutability": "view",
      "type": "function"
    },
    {
      "inputs": [],
      "name": "cUSD",
      "outputs": [
        {
          "internalType": "contract IERC20",
          "name": "",
          "type": "address"
        }
      ],
      "stateMutability": "view",
      "type": "function"
    },
    {
      "inputs": [],
      "name": "claim",
      "outputs": [],
      "stateMutability": "nonpayable",
      "type": "function"
    },
    {
      "inputs": [],
      "name": "claimAmount",
      "outputs": [
        {
          "internalType": "uint256",
          "name": "",
          "type": "uint256"
        }
      ],
      "stateMutability": "view",
      "type": "function"
    },
    {
      "inputs": [
        {
          "internalType": "address",
          "name": "beneficiaryAddress_",
          "type": "address"
        }
      ],
      "name": "claimCooldown",
      "outputs": [
        {
          "internalType": "uint256",
          "name": "",
          "type": "uint256"
        }
      ],
      "stateMutability": "view",
      "type": "function"
    },
    {
      "inputs": [],
      "name": "communityAdmin",
      "outputs": [
        {
          "internalType": "contract ICommunityAdmin",
          "name": "",
          "type": "address"
        }
      ],
      "stateMutability": "view",
      "type": "function"
    },
    {
      "inputs": [],
      "name": "decreaseStep",
      "outputs": [
        {
          "internalType": "uint256",
          "name": "",
          "type": "uint256"
        }
      ],
      "stateMutability": "view",
      "type": "function"
    },
    {
      "inputs": [
        {
          "internalType": "address",
          "name": "sender_",
          "type": "address"
        },
        {
          "internalType": "uint256",
          "name": "amount_",
          "type": "uint256"
        }
      ],
      "name": "donate",
      "outputs": [],
      "stateMutability": "nonpayable",
      "type": "function"
    },
    {
      "inputs": [
        {
          "internalType": "uint256",
          "name": "claimAmount_",
          "type": "uint256"
        },
        {
          "internalType": "uint256",
          "name": "maxClaim_",
          "type": "uint256"
        },
        {
          "internalType": "uint256",
          "name": "decreaseStep_",
          "type": "uint256"
        },
        {
          "internalType": "uint256",
          "name": "baseInterval_",
          "type": "uint256"
        },
        {
          "internalType": "uint256",
          "name": "incrementInterval_",
          "type": "uint256"
        }
      ],
      "name": "edit",
      "outputs": [],
      "stateMutability": "nonpayable",
      "type": "function"
    },
    {
      "inputs": [
        {
          "internalType": "bytes32",
          "name": "role",
          "type": "bytes32"
        }
      ],
      "name": "getRoleAdmin",
      "outputs": [
        {
          "internalType": "bytes32",
          "name": "",
          "type": "bytes32"
        }
      ],
      "stateMutability": "view",
      "type": "function"
    },
    {
      "inputs": [
        {
          "internalType": "bytes32",
          "name": "role",
          "type": "bytes32"
        },
        {
          "internalType": "address",
          "name": "account",
          "type": "address"
        }
      ],
      "name": "grantRole",
      "outputs": [],
      "stateMutability": "nonpayable",
      "type": "function"
    },
    {
      "inputs": [
        {
          "internalType": "bytes32",
          "name": "role",
          "type": "bytes32"
        },
        {
          "internalType": "address",
          "name": "account",
          "type": "address"
        }
      ],
      "name": "hasRole",
      "outputs": [
        {
          "internalType": "bool",
          "name": "",
          "type": "bool"
        }
      ],
      "stateMutability": "view",
      "type": "function"
    },
    {
      "inputs": [],
      "name": "impactMarketAddress",
      "outputs": [
        {
          "internalType": "address",
          "name": "",
          "type": "address"
        }
      ],
      "stateMutability": "pure",
      "type": "function"
    },
    {
      "inputs": [],
      "name": "incrementInterval",
      "outputs": [
        {
          "internalType": "uint256",
          "name": "",
          "type": "uint256"
        }
      ],
      "stateMutability": "view",
      "type": "function"
    },
    {
      "inputs": [
        {
          "internalType": "address",
          "name": "firstManager_",
          "type": "address"
        },
        {
          "internalType": "uint256",
          "name": "claimAmount_",
          "type": "uint256"
        },
        {
          "internalType": "uint256",
          "name": "maxClaim_",
          "type": "uint256"
        },
        {
          "internalType": "uint256",
          "name": "baseInterval_",
          "type": "uint256"
        },
        {
          "internalType": "uint256",
          "name": "incrementInterval_",
          "type": "uint256"
        },
        {
          "internalType": "contract ICommunity",
          "name": "previousCommunity_",
          "type": "address"
        },
        {
          "internalType": "contract ICommunityAdmin",
          "name": "communityAdmin_",
          "type": "address"
        }
      ],
      "name": "initialize",
      "outputs": [],
      "stateMutability": "nonpayable",
      "type": "function"
    },
    {
      "inputs": [
        {
          "internalType": "address",
          "name": "beneficiaryAddress_",
          "type": "address"
        }
      ],
      "name": "lastInterval",
      "outputs": [
        {
          "internalType": "uint256",
          "name": "",
          "type": "uint256"
        }
      ],
      "stateMutability": "view",
      "type": "function"
    },
    {
      "inputs": [],
      "name": "lock",
      "outputs": [],
      "stateMutability": "nonpayable",
      "type": "function"
    },
    {
      "inputs": [
        {
          "internalType": "address",
          "name": "beneficiaryAddress_",
          "type": "address"
        }
      ],
      "name": "lockBeneficiary",
      "outputs": [],
      "stateMutability": "nonpayable",
      "type": "function"
    },
    {
      "inputs": [],
      "name": "locked",
      "outputs": [
        {
          "internalType": "bool",
          "name": "",
          "type": "bool"
        }
      ],
      "stateMutability": "view",
      "type": "function"
    },
    {
      "inputs": [],
      "name": "managerJoinFromMigrated",
      "outputs": [],
      "stateMutability": "nonpayable",
      "type": "function"
    },
    {
      "inputs": [],
      "name": "maxClaim",
      "outputs": [
        {
          "internalType": "uint256",
          "name": "",
          "type": "uint256"
        }
      ],
      "stateMutability": "view",
      "type": "function"
    },
    {
      "inputs": [
        {
          "internalType": "contract ICommunity",
          "name": "newCommunity_",
          "type": "address"
        },
        {
          "internalType": "address",
          "name": "newCommunityManager_",
          "type": "address"
        }
      ],
      "name": "migrateFunds",
      "outputs": [],
      "stateMutability": "nonpayable",
      "type": "function"
    },
    {
      "inputs": [],
      "name": "owner",
      "outputs": [
        {
          "internalType": "address",
          "name": "",
          "type": "address"
        }
      ],
      "stateMutability": "view",
      "type": "function"
    },
    {
      "inputs": [],
      "name": "previousCommunity",
      "outputs": [
        {
          "internalType": "contract ICommunity",
          "name": "",
          "type": "address"
        }
      ],
      "stateMutability": "view",
      "type": "function"
    },
    {
      "inputs": [],
      "name": "privateFunds",
      "outputs": [
        {
          "internalType": "uint256",
          "name": "",
          "type": "uint256"
        }
      ],
      "stateMutability": "view",
      "type": "function"
    },
    {
      "inputs": [
        {
          "internalType": "address",
          "name": "beneficiaryAddress_",
          "type": "address"
        }
      ],
      "name": "removeBeneficiary",
      "outputs": [],
      "stateMutability": "nonpayable",
      "type": "function"
    },
    {
      "inputs": [
        {
          "internalType": "address",
          "name": "_account",
          "type": "address"
        }
      ],
      "name": "removeManager",
      "outputs": [],
      "stateMutability": "nonpayable",
      "type": "function"
    },
    {
      "inputs": [],
      "name": "renounceOwnership",
      "outputs": [],
      "stateMutability": "nonpayable",
      "type": "function"
    },
    {
      "inputs": [
        {
          "internalType": "bytes32",
          "name": "role",
          "type": "bytes32"
        },
        {
          "internalType": "address",
          "name": "account",
          "type": "address"
        }
      ],
      "name": "renounceRole",
      "outputs": [],
      "stateMutability": "nonpayable",
      "type": "function"
    },
    {
      "inputs": [],
      "name": "requestFunds",
      "outputs": [],
      "stateMutability": "nonpayable",
      "type": "function"
    },
    {
      "inputs": [
        {
          "internalType": "bytes32",
          "name": "role",
          "type": "bytes32"
        },
        {
          "internalType": "address",
          "name": "account",
          "type": "address"
        }
      ],
      "name": "revokeRole",
      "outputs": [],
      "stateMutability": "nonpayable",
      "type": "function"
    },
    {
      "inputs": [
        {
          "internalType": "bytes4",
          "name": "interfaceId",
          "type": "bytes4"
        }
      ],
      "name": "supportsInterface",
      "outputs": [
        {
          "internalType": "bool",
          "name": "",
          "type": "bool"
        }
      ],
      "stateMutability": "view",
      "type": "function"
    },
    {
      "inputs": [
        {
          "internalType": "contract IERC20",
          "name": "erc20_",
          "type": "address"
        },
        {
          "internalType": "address",
          "name": "to_",
          "type": "address"
        },
        {
          "internalType": "uint256",
          "name": "amount_",
          "type": "uint256"
        }
      ],
      "name": "transferFunds",
      "outputs": [],
      "stateMutability": "nonpayable",
      "type": "function"
    },
    {
      "inputs": [
        {
          "internalType": "address",
          "name": "newOwner",
          "type": "address"
        }
      ],
      "name": "transferOwnership",
      "outputs": [],
      "stateMutability": "nonpayable",
      "type": "function"
    },
    {
      "inputs": [],
      "name": "treasuryFunds",
      "outputs": [
        {
          "internalType": "uint256",
          "name": "",
          "type": "uint256"
        }
      ],
      "stateMutability": "view",
      "type": "function"
    },
    {
      "inputs": [],
      "name": "unlock",
      "outputs": [],
      "stateMutability": "nonpayable",
      "type": "function"
    },
    {
      "inputs": [
        {
          "internalType": "address",
          "name": "beneficiaryAddress_",
          "type": "address"
        }
      ],
      "name": "unlockBeneficiary",
      "outputs": [],
      "stateMutability": "nonpayable",
      "type": "function"
    },
    {
      "inputs": [],
      "name": "validBeneficiaryCount",
      "outputs": [
        {
          "internalType": "uint256",
          "name": "",
          "type": "uint256"
        }
      ],
      "stateMutability": "view",
      "type": "function"
    }
  ],
  "transactionHash": "0x85aa2597031491749a53a9fd92537b63e566259ea037f6113ac0ab0696c407c0",
  "args": [],
  "solcInputHash": "9c20b7d0ef3c95f34061765f16360135",
  "bytecode": "0x608060405234801561001057600080fd5b5061557f80620000216000396000f3fe608060405234801561001057600080fd5b50600436106102bb5760003560e01c80639cecf57211610182578063c0e27b6b116100e9578063d6dbd972116100a2578063ec87621c1161007c578063ec87621c146107ee578063f2fde38b1461080c578063f83d08ba14610828578063ffa1ad7414610832576102bb565b8063d6dbd97214610796578063e69d849d146107b4578063eb0376b1146107d0576102bb565b8063c0e27b6b146106e8578063c51fab3c14610704578063cf30901214610722578063d10f510714610740578063d4938db31461075c578063d547741f1461077a576102bb565b8063a8f3e0631161013b578063a8f3e0631461063c578063ac18de431461066c578063b026ba5714610688578063b087689114610692578063b809ee82146106ae578063c041fdc5146106ca576102bb565b80639cecf5721461058e5780639e761bbb146105be578063a217fddf146105ee578063a67892051461060c578063a69df4b514610616578063a8cec45f14610620576102bb565b80634e71d92d11610226578063715018a6116101df578063715018a6146104f0578063723775c9146104fa578063830953ab146105045780638da5cb5b1461052257806391d14854146105405780639c01a40114610570576102bb565b80634e71d92d146104545780635926651d1461045e57806359633a1c1461047a578063597be18b146104965780635fac917a146104b45780636850e5c1146104d2576102bb565b8063248a9ca311610278578063248a9ca3146103945780632d06177a146103c45780632f2ff15d146103e057806336568abe146103fc5780633a578a0c14610418578063431a801a14610436576102bb565b806301567739146102c057806301ffc9a7146102f05780630e5b7c53146103205780631501bf031461033e5780631fccf6721461035a5780631fe9578e14610378575b600080fd5b6102da60048036038101906102d59190613c80565b610850565b6040516102e79190614939565b60405180910390f35b61030a60048036038101906103059190613e29565b610902565b60405161031791906145d0565b60405180910390f35b61032861097c565b6040516103359190614954565b60405180910390f35b61035860048036038101906103539190613ef0565b610986565b005b610362610a32565b60405161036f919061463c565b60405180910390f35b610392600480360381019061038d9190613e83565b610ad9565b005b6103ae60048036038101906103a99190613dbc565b610e00565b6040516103bb91906145eb565b60405180910390f35b6103de60048036038101906103d99190613c80565b610e20565b005b6103fa60048036038101906103f59190613de9565b610ef9565b005b61041660048036038101906104119190613de9565b610f22565b005b610420610fa5565b60405161042d9190614621565b60405180910390f35b61043e610fcf565b60405161044b9190614954565b60405180910390f35b61045c610fd9565b005b61047860048036038101906104739190613c80565b611331565b005b610494600480360381019061048f9190613c80565b6115a5565b005b61049e61175b565b6040516104ab9190614954565b60405180910390f35b6104bc611765565b6040516104c99190614606565b60405180910390f35b6104da61178f565b6040516104e79190614954565b60405180910390f35b6104f861179a565b005b610502611822565b005b61050c61184e565b6040516105199190614954565b60405180910390f35b61052a611858565b6040516105379190614555565b60405180910390f35b61055a60048036038101906105559190613de9565b611882565b60405161056791906145d0565b60405180910390f35b6105786118ed565b6040516105859190614954565b60405180910390f35b6105a860048036038101906105a39190613c80565b6118f7565b6040516105b59190614954565b60405180910390f35b6105d860048036038101906105d39190613f70565b611956565b6040516105e59190614555565b60405180910390f35b6105f6611973565b60405161060391906145eb565b60405180910390f35b61061461197a565b005b61061e611bc5565b005b61063a60048036038101906106359190613ced565b611c8e565b005b61065660048036038101906106519190613c80565b611f69565b6040516106639190614954565b60405180910390f35b61068660048036038101906106819190613c80565b611ff8565b005b6106906120d1565b005b6106ac60048036038101906106a79190613fca565b6121be565b005b6106c860048036038101906106c39190613f70565b61231e565b005b6106d26123b6565b6040516106df9190614555565b60405180910390f35b61070260048036038101906106fd9190613c80565b6123bb565b005b61070c612531565b6040516107199190614954565b60405180910390f35b61072a61253b565b60405161073791906145d0565b60405180910390f35b61075a60048036038101906107559190613c80565b612552565b005b6107646126c8565b6040516107719190614954565b60405180910390f35b610794600480360381019061078f9190613de9565b6126d2565b005b61079e6126fb565b6040516107ab9190614954565b60405180910390f35b6107ce60048036038101906107c99190613cad565b612705565b005b6107d8612756565b6040516107e59190614954565b60405180910390f35b6107f6612767565b60405161080391906145eb565b60405180910390f35b61082660048036038101906108219190613c80565b61278b565b005b610830612883565b005b61083a61294c565b6040516108479190614954565b60405180910390f35b610858613ad2565b60d460008373ffffffffffffffffffffffffffffffffffffffff1673ffffffffffffffffffffffffffffffffffffffff1681526020019081526020016000206040518060800160405290816000820160009054906101000a900460ff1660038111156108c7576108c6614db3565b5b60038111156108d9576108d8614db3565b5b815260200160018201548152602001600282015481526020016003820154815250509050919050565b60007f7965db0b000000000000000000000000000000000000000000000000000000007bffffffffffffffffffffffffffffffffffffffffffffffffffffffff1916827bffffffffffffffffffffffffffffffffffffffffffffffffffffffff19161480610975575061097482612951565b5b9050919050565b600060cb54905090565b61098e6129bb565b73ffffffffffffffffffffffffffffffffffffffff166109ac611858565b73ffffffffffffffffffffffffffffffffffffffff1614610a02576040517f08c379a00000000000000000000000000000000000000000000000000000000081526004016109f990614779565b60405180910390fd5b610a2d82828573ffffffffffffffffffffffffffffffffffffffff166129c39092919063ffffffff16565b505050565b600060d360009054906101000a900473ffffffffffffffffffffffffffffffffffffffff1673ffffffffffffffffffffffffffffffffffffffff16631fccf6726040518163ffffffff1660e01b815260040160206040518083038186803b158015610a9c57600080fd5b505afa158015610ab0573d6000803e3d6000fd5b505050506040513d601f19601f82011682018060405250810190610ad49190613ec3565b905090565b610ae16129bb565b73ffffffffffffffffffffffffffffffffffffffff16610aff611858565b73ffffffffffffffffffffffffffffffffffffffff1614610b55576040517f08c379a0000000000000000000000000000000000000000000000000000000008152600401610b4c90614779565b60405180910390fd5b3073ffffffffffffffffffffffffffffffffffffffff168273ffffffffffffffffffffffffffffffffffffffff16633a578a0c6040518163ffffffff1660e01b815260040160206040518083038186803b158015610bb257600080fd5b505afa158015610bc6573d6000803e3d6000fd5b505050506040513d601f19601f82011682018060405250810190610bea9190613e56565b73ffffffffffffffffffffffffffffffffffffffff1614610c40576040517f08c379a0000000000000000000000000000000000000000000000000000000008152600401610c3790614699565b60405180910390fd5b6000610c4a610a32565b73ffffffffffffffffffffffffffffffffffffffff166370a08231306040518263ffffffff1660e01b8152600401610c829190614555565b60206040518083038186803b158015610c9a57600080fd5b505afa158015610cae573d6000803e3d6000fd5b505050506040513d601f19601f82011682018060405250810190610cd29190613f9d565b90506000610cde610a32565b73ffffffffffffffffffffffffffffffffffffffff1663a9059cbb85846040518363ffffffff1660e01b8152600401610d189291906145a7565b602060405180830381600087803b158015610d3257600080fd5b505af1158015610d46573d6000803e3d6000fd5b505050506040513d601f19601f82011682018060405250810190610d6a9190613d8f565b905080610dac576040517f08c379a0000000000000000000000000000000000000000000000000000000008152600401610da390614699565b60405180910390fd5b8373ffffffffffffffffffffffffffffffffffffffff167fec3fe17382089950d15d61fa7c2347c1b7eeb9a828e1cc790f522eca57ed18ec83604051610df29190614954565b60405180910390a250505050565b600060656000838152602001908152602001600020600101549050919050565b610e4a7f241ecf16d79d0f8dbfb92cbc07fe17840425976cf0667f022fe9877caa831b0833611882565b610e89576040517f08c379a0000000000000000000000000000000000000000000000000000000008152600401610e80906147d9565b60405180910390fd5b610eb37f241ecf16d79d0f8dbfb92cbc07fe17840425976cf0667f022fe9877caa831b0882610ef9565b8073ffffffffffffffffffffffffffffffffffffffff167f3b4a40cccf2058c593542587329dd385be4f0b588db5471fbd9598e56dd7093a60405160405180910390a250565b610f0282610e00565b610f1381610f0e6129bb565b612a49565b610f1d8383612ae6565b505050565b610f2a6129bb565b73ffffffffffffffffffffffffffffffffffffffff168173ffffffffffffffffffffffffffffffffffffffff1614610f97576040517f08c379a0000000000000000000000000000000000000000000000000000000008152600401610f8e90614919565b60405180910390fd5b610fa18282612bc7565b5050565b600060d260009054906101000a900473ffffffffffffffffffffffffffffffffffffffff16905090565b600060ce54905090565b60016003811115610fed57610fec614db3565b5b60d460003373ffffffffffffffffffffffffffffffffffffffff1673ffffffffffffffffffffffffffffffffffffffff16815260200190815260200160002060000160009054906101000a900460ff16600381111561104f5761104e614db3565b5b1461108f576040517f08c379a000000000000000000000000000000000000000000000000000000000815260040161108690614799565b60405180910390fd5b600060d460003373ffffffffffffffffffffffffffffffffffffffff1673ffffffffffffffffffffffffffffffffffffffff168152602001908152602001600020905060c960009054906101000a900460ff1615611122576040517f08c379a0000000000000000000000000000000000000000000000000000000008152600401611119906148d9565b60405180910390fd5b4261112c336118f7565b111561116d576040517f08c379a0000000000000000000000000000000000000000000000000000000008152600401611164906147f9565b60405180910390fd5b60cd5460ca5482600201546111829190614a24565b11156111c3576040517f08c379a00000000000000000000000000000000000000000000000000000000081526004016111ba90614879565b60405180910390fd5b60ca548160020160008282546111d99190614a24565b925050819055508060010160008154809291906111f590614d0c565b9190505550428160030181905550600061120d610a32565b73ffffffffffffffffffffffffffffffffffffffff1663a9059cbb3360ca546040518363ffffffff1660e01b81526004016112499291906145a7565b602060405180830381600087803b15801561126357600080fd5b505af1158015611277573d6000803e3d6000fd5b505050506040513d601f19601f8201168201806040525081019061129b9190613d8f565b9050806112dd576040517f08c379a00000000000000000000000000000000000000000000000000000000081526004016112d4906147b9565b60405180910390fd5b3373ffffffffffffffffffffffffffffffffffffffff167fd54e03b214b3e8c17e98044f98554b6f1b18dd2a3163a2619afea7e9b2a6eb9760ca546040516113259190614954565b60405180910390a25050565b61135b7f241ecf16d79d0f8dbfb92cbc07fe17840425976cf0667f022fe9877caa831b0833611882565b61139a576040517f08c379a0000000000000000000000000000000000000000000000000000000008152600401611391906147d9565b60405180910390fd5b600060d460008373ffffffffffffffffffffffffffffffffffffffff1673ffffffffffffffffffffffffffffffffffffffff1681526020019081526020016000209050600060038111156113f1576113f0614db3565b5b8160000160009054906101000a900460ff16600381111561141557611414614db3565b5b14611455576040517f08c379a000000000000000000000000000000000000000000000000000000000815260040161144c90614739565b60405180910390fd5b611460816001612ca9565b4281600301819055506000611473610a32565b73ffffffffffffffffffffffffffffffffffffffff1663a9059cbb8466b1a2bc2ec500006040518363ffffffff1660e01b81526004016114b49291906145a7565b602060405180830381600087803b1580156114ce57600080fd5b505af11580156114e2573d6000803e3d6000fd5b505050506040513d601f19601f820116820180604052508101906115069190613d8f565b905080611548576040517f08c379a000000000000000000000000000000000000000000000000000000000815260040161153f90614819565b60405180910390fd5b61155c8360d5612df490919063ffffffff16565b508273ffffffffffffffffffffffffffffffffffffffff167fc3e089fc6227e049d0e41c3d7a383d57efe69c1955c5752f7e5a9b5f1f11302060405160405180910390a2505050565b6115cf7f241ecf16d79d0f8dbfb92cbc07fe17840425976cf0667f022fe9877caa831b0833611882565b61160e576040517f08c379a0000000000000000000000000000000000000000000000000000000008152600401611605906147d9565b60405180910390fd5b600060d460008373ffffffffffffffffffffffffffffffffffffffff1673ffffffffffffffffffffffffffffffffffffffff16815260200190815260200160002090506001600381111561166557611664614db3565b5b8160000160009054906101000a900460ff16600381111561168957611688614db3565b5b14806116ca5750600260038111156116a4576116a3614db3565b5b8160000160009054906101000a900460ff1660038111156116c8576116c7614db3565b5b145b611709576040517f08c379a0000000000000000000000000000000000000000000000000000000008152600401611700906148f9565b60405180910390fd5b611714816003612ca9565b8173ffffffffffffffffffffffffffffffffffffffff167f72977dad29432f655f11c2f0e72ef5124bb9ade7a512fb7a43a9f504df22342860405160405180910390a25050565b600060cc54905090565b600060d360009054906101000a900473ffffffffffffffffffffffffffffffffffffffff16905090565b66b1a2bc2ec5000081565b6117a26129bb565b73ffffffffffffffffffffffffffffffffffffffff166117c0611858565b73ffffffffffffffffffffffffffffffffffffffff1614611816576040517f08c379a000000000000000000000000000000000000000000000000000000000815260040161180d90614779565b60405180910390fd5b6118206000612e24565b565b61184c7f241ecf16d79d0f8dbfb92cbc07fe17840425976cf0667f022fe9877caa831b0833610ef9565b565b600060ca54905090565b6000609760009054906101000a900473ffffffffffffffffffffffffffffffffffffffff16905090565b60006065600084815260200190815260200160002060000160008373ffffffffffffffffffffffffffffffffffffffff1673ffffffffffffffffffffffffffffffffffffffff16815260200190815260200160002060009054906101000a900460ff16905092915050565b600060cf54905090565b600061190282611f69565b60d460008473ffffffffffffffffffffffffffffffffffffffff1673ffffffffffffffffffffffffffffffffffffffff1681526020019081526020016000206003015461194f9190614a24565b9050919050565b600061196c8260d5612eea90919063ffffffff16565b9050919050565b6000801b81565b600060d460003373ffffffffffffffffffffffffffffffffffffffff1673ffffffffffffffffffffffffffffffffffffffff1681526020019081526020016000209050600060d260009054906101000a900473ffffffffffffffffffffffffffffffffffffffff1673ffffffffffffffffffffffffffffffffffffffff166301567739336040518263ffffffff1660e01b8152600401611a1a9190614555565b60806040518083038186803b158015611a3257600080fd5b505afa158015611a46573d6000803e3d6000fd5b505050506040513d601f19601f82011682018060405250810190611a6a9190613f43565b9050611a7a828260000151612ca9565b8060600151826003018190555080604001518260020181905550600160cc5460cb5460d260009054906101000a900473ffffffffffffffffffffffffffffffffffffffff1673ffffffffffffffffffffffffffffffffffffffff1663a8f3e063336040518263ffffffff1660e01b8152600401611af79190614555565b60206040518083038186803b158015611b0f57600080fd5b505afa158015611b23573d6000803e3d6000fd5b505050506040513d601f19601f82011682018060405250810190611b479190613f9d565b611b519190614b05565b611b5b9190614a7a565b611b659190614a24565b826001018190555060006003811115611b8157611b80614db3565b5b8260000160009054906101000a900460ff166003811115611ba557611ba4614db3565b5b1415611bc157611bbf3360d5612df490919063ffffffff16565b505b5050565b611bef7f241ecf16d79d0f8dbfb92cbc07fe17840425976cf0667f022fe9877caa831b0833611882565b611c2e576040517f08c379a0000000000000000000000000000000000000000000000000000000008152600401611c25906147d9565b60405180910390fd5b600060c960006101000a81548160ff0219169083151502179055503373ffffffffffffffffffffffffffffffffffffffff167f4e50048c25972c85ad169c2302967f1e633e8dc6108d6aca51a90d2a59d4934d60405160405180910390a2565b600060019054906101000a900460ff1680611cb4575060008054906101000a900460ff16155b611cf3576040517f08c379a0000000000000000000000000000000000000000000000000000000008152600401611cea90614719565b60405180910390fd5b60008060019054906101000a900460ff161590508015611d43576001600060016101000a81548160ff02191690831515021790555060016000806101000a81548160ff0219169083151502179055505b838511611d85576040517f08c379a0000000000000000000000000000000000000000000000000000000008152600401611d7c906148b9565b60405180910390fd5b868611611dc7576040517f08c379a0000000000000000000000000000000000000000000000000000000008152600401611dbe906146d9565b60405180910390fd5b611dcf612f04565b611dd7612ff5565b611e017f241ecf16d79d0f8dbfb92cbc07fe17840425976cf0667f022fe9877caa831b08896130de565b611e2b7f241ecf16d79d0f8dbfb92cbc07fe17840425976cf0667f022fe9877caa831b08806130ec565b8773ffffffffffffffffffffffffffffffffffffffff167f3b4a40cccf2058c593542587329dd385be4f0b588db5471fbd9598e56dd7093a60405160405180910390a28660ca819055508460cb819055508360cc819055508560cd819055508260d260006101000a81548173ffffffffffffffffffffffffffffffffffffffff021916908373ffffffffffffffffffffffffffffffffffffffff1602179055508160d360006101000a81548173ffffffffffffffffffffffffffffffffffffffff021916908373ffffffffffffffffffffffffffffffffffffffff160217905550600060c960006101000a81548160ff021916908315150217905550662386f26fc1000060d181905550611f3e8261278b565b8015611f5f5760008060016101000a81548160ff0219169083151502179055505b5050505050505050565b60008060d460008473ffffffffffffffffffffffffffffffffffffffff1673ffffffffffffffffffffffffffffffffffffffff1681526020019081526020016000209050600081600101541415611fc4576000915050611ff3565b60cc5460018260010154611fd89190614b05565b611fe29190614aab565b60cb54611fef9190614a24565b9150505b919050565b6120227f241ecf16d79d0f8dbfb92cbc07fe17840425976cf0667f022fe9877caa831b0833611882565b612061576040517f08c379a0000000000000000000000000000000000000000000000000000000008152600401612058906147d9565b60405180910390fd5b61208b7f241ecf16d79d0f8dbfb92cbc07fe17840425976cf0667f022fe9877caa831b08826126d2565b8073ffffffffffffffffffffffffffffffffffffffff167fef69f7d97228658c92417be1b16b19058315de71fecb435d07b7d23728b6bd3160405160405180910390a250565b6120fb7f241ecf16d79d0f8dbfb92cbc07fe17840425976cf0667f022fe9877caa831b0833611882565b61213a576040517f08c379a0000000000000000000000000000000000000000000000000000000008152600401612131906147d9565b60405180910390fd5b60d360009054906101000a900473ffffffffffffffffffffffffffffffffffffffff1673ffffffffffffffffffffffffffffffffffffffff1663174a71d76040518163ffffffff1660e01b8152600401600060405180830381600087803b1580156121a457600080fd5b505af11580156121b8573d6000803e3d6000fd5b50505050565b6121e87f241ecf16d79d0f8dbfb92cbc07fe17840425976cf0667f022fe9877caa831b0833611882565b612227576040517f08c379a000000000000000000000000000000000000000000000000000000000815260040161221e906147d9565b60405180910390fd5b808211612269576040517f08c379a0000000000000000000000000000000000000000000000000000000008152600401612260906148b9565b60405180910390fd5b8484116122ab576040517f08c379a00000000000000000000000000000000000000000000000000000000081526004016122a2906146d9565b60405180910390fd5b8460ca819055508360cd819055508260d1819055508160cb819055508060cc819055507f39af63eb8c9c237288f5b888a24aa4e8b53d53b76e83275936b3b22829a02c2560ca5460cd5460d15460cb5460cc5460405161230f95949392919061496f565b60405180910390a15050505050565b6123266129bb565b73ffffffffffffffffffffffffffffffffffffffff16612344611858565b73ffffffffffffffffffffffffffffffffffffffff161461239a576040517f08c379a000000000000000000000000000000000000000000000000000000000815260040161239190614779565b60405180910390fd5b8060cf60008282546123ac9190614a24565b9250508190555050565b600090565b6123e57f241ecf16d79d0f8dbfb92cbc07fe17840425976cf0667f022fe9877caa831b0833611882565b612424576040517f08c379a000000000000000000000000000000000000000000000000000000000815260040161241b906147d9565b60405180910390fd5b600060d460008373ffffffffffffffffffffffffffffffffffffffff1673ffffffffffffffffffffffffffffffffffffffff16815260200190815260200160002090506001600381111561247b5761247a614db3565b5b8160000160009054906101000a900460ff16600381111561249f5761249e614db3565b5b146124df576040517f08c379a00000000000000000000000000000000000000000000000000000000081526004016124d690614859565b60405180910390fd5b6124ea816002612ca9565b8173ffffffffffffffffffffffffffffffffffffffff167f8bbf1861fd29297756bc2ec1496a157359ea7fda5746df5233b4fc3e8124511860405160405180910390a25050565b600060d154905090565b600060c960009054906101000a900460ff16905090565b61257c7f241ecf16d79d0f8dbfb92cbc07fe17840425976cf0667f022fe9877caa831b0833611882565b6125bb576040517f08c379a00000000000000000000000000000000000000000000000000000000081526004016125b2906147d9565b60405180910390fd5b600060d460008373ffffffffffffffffffffffffffffffffffffffff1673ffffffffffffffffffffffffffffffffffffffff16815260200190815260200160002090506002600381111561261257612611614db3565b5b8160000160009054906101000a900460ff16600381111561263657612635614db3565b5b14612676576040517f08c379a000000000000000000000000000000000000000000000000000000000815260040161266d90614759565b60405180910390fd5b612681816001612ca9565b8173ffffffffffffffffffffffffffffffffffffffff167fb84ab42066834057600f08f7bc7564111d6f5c12497b99f98d02346aed682a1460405160405180910390a25050565b600060cd54905090565b6126db82610e00565b6126ec816126e76129bb565b612a49565b6126f68383612bc7565b505050565b600060d054905090565b612739823083612713610a32565b73ffffffffffffffffffffffffffffffffffffffff16613148909392919063ffffffff16565b8060d0600082825461274b9190614a24565b925050819055505050565b600061276260d56131d1565b905090565b7f241ecf16d79d0f8dbfb92cbc07fe17840425976cf0667f022fe9877caa831b0881565b6127936129bb565b73ffffffffffffffffffffffffffffffffffffffff166127b1611858565b73ffffffffffffffffffffffffffffffffffffffff1614612807576040517f08c379a00000000000000000000000000000000000000000000000000000000081526004016127fe90614779565b60405180910390fd5b600073ffffffffffffffffffffffffffffffffffffffff168173ffffffffffffffffffffffffffffffffffffffff161415612877576040517f08c379a000000000000000000000000000000000000000000000000000000000815260040161286e906146b9565b60405180910390fd5b61288081612e24565b50565b6128ad7f241ecf16d79d0f8dbfb92cbc07fe17840425976cf0667f022fe9877caa831b0833611882565b6128ec576040517f08c379a00000000000000000000000000000000000000000000000000000000081526004016128e3906147d9565b60405180910390fd5b600160c960006101000a81548160ff0219169083151502179055503373ffffffffffffffffffffffffffffffffffffffff167fe1e6bc10311f2f958d6cd2d0ab7308c32089aa1acb8ab11a2ccb60028e332bd060405160405180910390a2565b600181565b60007f01ffc9a7000000000000000000000000000000000000000000000000000000007bffffffffffffffffffffffffffffffffffffffffffffffffffffffff1916827bffffffffffffffffffffffffffffffffffffffffffffffffffffffff1916149050919050565b600033905090565b612a448363a9059cbb60e01b84846040516024016129e29291906145a7565b604051602081830303815290604052907bffffffffffffffffffffffffffffffffffffffffffffffffffffffff19166020820180517bffffffffffffffffffffffffffffffffffffffffffffffffffffffff83818316178352505050506131e6565b505050565b612a538282611882565b612ae257612a788173ffffffffffffffffffffffffffffffffffffffff1660146132ad565b612a868360001c60206132ad565b604051602001612a9792919061451b565b6040516020818303038152906040526040517f08c379a0000000000000000000000000000000000000000000000000000000008152600401612ad99190614657565b60405180910390fd5b5050565b612af08282611882565b612bc35760016065600084815260200190815260200160002060000160008373ffffffffffffffffffffffffffffffffffffffff1673ffffffffffffffffffffffffffffffffffffffff16815260200190815260200160002060006101000a81548160ff021916908315150217905550612b686129bb565b73ffffffffffffffffffffffffffffffffffffffff168173ffffffffffffffffffffffffffffffffffffffff16837f2f8788117e7eff1d82e926ec794901d17c78024a50270940304540a733656f0d60405160405180910390a45b5050565b612bd18282611882565b15612ca55760006065600084815260200190815260200160002060000160008373ffffffffffffffffffffffffffffffffffffffff1673ffffffffffffffffffffffffffffffffffffffff16815260200190815260200160002060006101000a81548160ff021916908315150217905550612c4a6129bb565b73ffffffffffffffffffffffffffffffffffffffff168173ffffffffffffffffffffffffffffffffffffffff16837ff6391f5c32d9c69d2a47ea670b442974b53935d1edc7fd64eb21e047a839171b60405160405180910390a45b5050565b806003811115612cbc57612cbb614db3565b5b8260000160009054906101000a900460ff166003811115612ce057612cdf614db3565b5b1415612ceb57612df0565b60016003811115612cff57612cfe614db3565b5b816003811115612d1257612d11614db3565b5b1415612d505760ce6000815480929190612d2b90614d0c565b919050555060d15460ca6000828254612d449190614b05565b92505081905550612dc3565b60016003811115612d6457612d63614db3565b5b8260000160009054906101000a900460ff166003811115612d8857612d87614db3565b5b1415612dc25760ce6000815480929190612da190614cb1565b919050555060d15460ca6000828254612dba9190614a24565b925050819055505b5b808260000160006101000a81548160ff02191690836003811115612dea57612de9614db3565b5b02179055505b5050565b6000612e1c836000018373ffffffffffffffffffffffffffffffffffffffff1660001b6134e9565b905092915050565b6000609760009054906101000a900473ffffffffffffffffffffffffffffffffffffffff16905081609760006101000a81548173ffffffffffffffffffffffffffffffffffffffff021916908373ffffffffffffffffffffffffffffffffffffffff1602179055508173ffffffffffffffffffffffffffffffffffffffff168173ffffffffffffffffffffffffffffffffffffffff167f8be0079c531659141344cd1fd0a4f28419497f9722a3daafe3b4186f6b6457e060405160405180910390a35050565b6000612ef98360000183613559565b60001c905092915050565b600060019054906101000a900460ff1680612f2a575060008054906101000a900460ff16155b612f69576040517f08c379a0000000000000000000000000000000000000000000000000000000008152600401612f6090614719565b60405180910390fd5b60008060019054906101000a900460ff161590508015612fb9576001600060016101000a81548160ff02191690831515021790555060016000806101000a81548160ff0219169083151502179055505b612fc1613584565b612fc961365d565b612fd1613736565b8015612ff25760008060016101000a81548160ff0219169083151502179055505b50565b600060019054906101000a900460ff168061301b575060008054906101000a900460ff16155b61305a576040517f08c379a000000000000000000000000000000000000000000000000000000000815260040161305190614719565b60405180910390fd5b60008060019054906101000a900460ff1615905080156130aa576001600060016101000a81548160ff02191690831515021790555060016000806101000a81548160ff0219169083151502179055505b6130b2613584565b6130ba61380f565b80156130db5760008060016101000a81548160ff0219169083151502179055505b50565b6130e88282612ae6565b5050565b60006130f783610e00565b90508160656000858152602001908152602001600020600101819055508181847fbd79b86ffe0ab8e8776151514217cd7cacd52c909f66475c3af44e129f0b00ff60405160405180910390a4505050565b6131cb846323b872dd60e01b85858560405160240161316993929190614570565b604051602081830303815290604052907bffffffffffffffffffffffffffffffffffffffffffffffffffffffff19166020820180517bffffffffffffffffffffffffffffffffffffffffffffffffffffffff83818316178352505050506131e6565b50505050565b60006131df826000016138f8565b9050919050565b6000613248826040518060400160405280602081526020017f5361666545524332303a206c6f772d6c6576656c2063616c6c206661696c65648152508573ffffffffffffffffffffffffffffffffffffffff166139099092919063ffffffff16565b90506000815111156132a857808060200190518101906132689190613d8f565b6132a7576040517f08c379a000000000000000000000000000000000000000000000000000000000815260040161329e90614899565b60405180910390fd5b5b505050565b6060600060028360026132c09190614aab565b6132ca9190614a24565b67ffffffffffffffff8111156132e3576132e2614e11565b5b6040519080825280601f01601f1916602001820160405280156133155781602001600182028036833780820191505090505b5090507f30000000000000000000000000000000000000000000000000000000000000008160008151811061334d5761334c614de2565b5b60200101907effffffffffffffffffffffffffffffffffffffffffffffffffffffffffffff1916908160001a9053507f7800000000000000000000000000000000000000000000000000000000000000816001815181106133b1576133b0614de2565b5b60200101907effffffffffffffffffffffffffffffffffffffffffffffffffffffffffffff1916908160001a905350600060018460026133f19190614aab565b6133fb9190614a24565b90505b600181111561349b577f3031323334353637383961626364656600000000000000000000000000000000600f86166010811061343d5761343c614de2565b5b1a60f81b82828151811061345457613453614de2565b5b60200101907effffffffffffffffffffffffffffffffffffffffffffffffffffffffffffff1916908160001a905350600485901c94508061349490614cb1565b90506133fe565b50600084146134df576040517f08c379a00000000000000000000000000000000000000000000000000000000081526004016134d690614679565b60405180910390fd5b8091505092915050565b60006134f58383613921565b61354e578260000182908060018154018082558091505060019003906000526020600020016000909190919091505582600001805490508360010160008481526020019081526020016000208190555060019050613553565b600090505b92915050565b600082600001828154811061357157613570614de2565b5b9060005260206000200154905092915050565b600060019054906101000a900460ff16806135aa575060008054906101000a900460ff16155b6135e9576040517f08c379a00000000000000000000000000000000000000000000000000000000081526004016135e090614719565b60405180910390fd5b60008060019054906101000a900460ff161590508015613639576001600060016101000a81548160ff02191690831515021790555060016000806101000a81548160ff0219169083151502179055505b801561365a5760008060016101000a81548160ff0219169083151502179055505b50565b600060019054906101000a900460ff1680613683575060008054906101000a900460ff16155b6136c2576040517f08c379a00000000000000000000000000000000000000000000000000000000081526004016136b990614719565b60405180910390fd5b60008060019054906101000a900460ff161590508015613712576001600060016101000a81548160ff02191690831515021790555060016000806101000a81548160ff0219169083151502179055505b80156137335760008060016101000a81548160ff0219169083151502179055505b50565b600060019054906101000a900460ff168061375c575060008054906101000a900460ff16155b61379b576040517f08c379a000000000000000000000000000000000000000000000000000000000815260040161379290614719565b60405180910390fd5b60008060019054906101000a900460ff1615905080156137eb576001600060016101000a81548160ff02191690831515021790555060016000806101000a81548160ff0219169083151502179055505b801561380c5760008060016101000a81548160ff0219169083151502179055505b50565b600060019054906101000a900460ff1680613835575060008054906101000a900460ff16155b613874576040517f08c379a000000000000000000000000000000000000000000000000000000000815260040161386b90614719565b60405180910390fd5b60008060019054906101000a900460ff1615905080156138c4576001600060016101000a81548160ff02191690831515021790555060016000806101000a81548160ff0219169083151502179055505b6138d46138cf6129bb565b612e24565b80156138f55760008060016101000a81548160ff0219169083151502179055505b50565b600081600001805490509050919050565b60606139188484600085613944565b90509392505050565b600080836001016000848152602001908152602001600020541415905092915050565b606082471015613989576040517f08c379a0000000000000000000000000000000000000000000000000000000008152600401613980906146f9565b60405180910390fd5b61399285613a58565b6139d1576040517f08c379a00000000000000000000000000000000000000000000000000000000081526004016139c890614839565b60405180910390fd5b6000808673ffffffffffffffffffffffffffffffffffffffff1685876040516139fa9190614504565b60006040518083038185875af1925050503d8060008114613a37576040519150601f19603f3d011682016040523d82523d6000602084013e613a3c565b606091505b5091509150613a4c828286613a6b565b92505050949350505050565b600080823b905060008111915050919050565b60608315613a7b57829050613acb565b600083511115613a8e5782518084602001fd5b816040517f08c379a0000000000000000000000000000000000000000000000000000000008152600401613ac29190614657565b60405180910390fd5b9392505050565b604051806080016040528060006003811115613af157613af0614db3565b5b81526020016000815260200160008152602001600081525090565b600081359050613b1b81615481565b92915050565b600081519050613b3081615498565b92915050565b600081359050613b45816154af565b92915050565b600081359050613b5a816154c6565b92915050565b600081359050613b6f816154dd565b92915050565b600081359050613b84816154f4565b92915050565b600081519050613b99816154f4565b92915050565b600081359050613bae8161550b565b92915050565b600081519050613bc38161550b565b92915050565b600081519050613bd881615522565b92915050565b600060808284031215613bf457613bf3614e40565b5b613bfe60806149c2565b90506000613c0e84828501613bc9565b6000830152506020613c2284828501613c6b565b6020830152506040613c3684828501613c6b565b6040830152506060613c4a84828501613c6b565b60608301525092915050565b600081359050613c6581615532565b92915050565b600081519050613c7a81615532565b92915050565b600060208284031215613c9657613c95614e45565b5b6000613ca484828501613b0c565b91505092915050565b60008060408385031215613cc457613cc3614e45565b5b6000613cd285828601613b0c565b9250506020613ce385828601613c56565b9150509250929050565b600080600080600080600060e0888a031215613d0c57613d0b614e45565b5b6000613d1a8a828b01613b0c565b9750506020613d2b8a828b01613c56565b9650506040613d3c8a828b01613c56565b9550506060613d4d8a828b01613c56565b9450506080613d5e8a828b01613c56565b93505060a0613d6f8a828b01613b75565b92505060c0613d808a828b01613b60565b91505092959891949750929550565b600060208284031215613da557613da4614e45565b5b6000613db384828501613b21565b91505092915050565b600060208284031215613dd257613dd1614e45565b5b6000613de084828501613b36565b91505092915050565b60008060408385031215613e0057613dff614e45565b5b6000613e0e85828601613b36565b9250506020613e1f85828601613b0c565b9150509250929050565b600060208284031215613e3f57613e3e614e45565b5b6000613e4d84828501613b4b565b91505092915050565b600060208284031215613e6c57613e6b614e45565b5b6000613e7a84828501613b8a565b91505092915050565b60008060408385031215613e9a57613e99614e45565b5b6000613ea885828601613b75565b9250506020613eb985828601613b0c565b9150509250929050565b600060208284031215613ed957613ed8614e45565b5b6000613ee784828501613bb4565b91505092915050565b600080600060608486031215613f0957613f08614e45565b5b6000613f1786828701613b9f565b9350506020613f2886828701613b0c565b9250506040613f3986828701613c56565b9150509250925092565b600060808284031215613f5957613f58614e45565b5b6000613f6784828501613bde565b91505092915050565b600060208284031215613f8657613f85614e45565b5b6000613f9484828501613c56565b91505092915050565b600060208284031215613fb357613fb2614e45565b5b6000613fc184828501613c6b565b91505092915050565b600080600080600060a08688031215613fe657613fe5614e45565b5b6000613ff488828901613c56565b955050602061400588828901613c56565b945050604061401688828901613c56565b935050606061402788828901613c56565b925050608061403888828901613c56565b9150509295509295909350565b61404e81614b39565b82525050565b61405d81614b4b565b82525050565b61406c81614b57565b82525050565b600061407d826149e7565b61408781856149fd565b9350614097818560208601614c7e565b80840191505092915050565b6140ac81614c00565b82525050565b6140bb81614c24565b82525050565b6140ca81614c48565b82525050565b6140d981614c6c565b82525050565b60006140ea826149f2565b6140f48185614a08565b9350614104818560208601614c7e565b61410d81614e4a565b840191505092915050565b6000614123826149f2565b61412d8185614a19565b935061413d818560208601614c7e565b80840191505092915050565b6000614156602083614a08565b915061416182614e5b565b602082019050919050565b6000614179602483614a08565b915061418482614e84565b604082019050919050565b600061419c602683614a08565b91506141a782614ed3565b604082019050919050565b60006141bf604183614a08565b91506141ca82614f22565b606082019050919050565b60006141e2602683614a08565b91506141ed82614f97565b604082019050919050565b6000614205602e83614a08565b915061421082614fe6565b604082019050919050565b6000614228602283614a08565b915061423382615035565b604082019050919050565b600061424b602583614a08565b915061425682615084565b604082019050919050565b600061426e602083614a08565b9150614279826150d3565b602082019050919050565b6000614291602083614a08565b915061429c826150fc565b602082019050919050565b60006142b4601d83614a08565b91506142bf82615125565b602082019050919050565b60006142d7601683614a08565b91506142e28261514e565b602082019050919050565b60006142fa601983614a08565b915061430582615177565b602082019050919050565b600061431d602683614a08565b9150614328826151a0565b604082019050919050565b6000614340601d83614a08565b915061434b826151ef565b602082019050919050565b6000614363602383614a08565b915061436e82615218565b604082019050919050565b6000614386601b83614a08565b915061439182615267565b602082019050919050565b60006143a9601783614a19565b91506143b482615290565b601782019050919050565b60006143cc602a83614a08565b91506143d7826152b9565b604082019050919050565b60006143ef604b83614a08565b91506143fa82615308565b606082019050919050565b6000614412600683614a08565b915061441d8261537d565b602082019050919050565b6000614435602583614a08565b9150614440826153a6565b604082019050919050565b6000614458601183614a19565b9150614463826153f5565b601182019050919050565b600061447b602f83614a08565b91506144868261541e565b604082019050919050565b6080820160008201516144a760008501826140d0565b5060208201516144ba60208501826144e6565b5060408201516144cd60408501826144e6565b5060608201516144e060608501826144e6565b50505050565b6144ef81614bf6565b82525050565b6144fe81614bf6565b82525050565b60006145108284614072565b915081905092915050565b60006145268261439c565b91506145328285614118565b915061453d8261444b565b91506145498284614118565b91508190509392505050565b600060208201905061456a6000830184614045565b92915050565b60006060820190506145856000830186614045565b6145926020830185614045565b61459f60408301846144f5565b949350505050565b60006040820190506145bc6000830185614045565b6145c960208301846144f5565b9392505050565b60006020820190506145e56000830184614054565b92915050565b60006020820190506146006000830184614063565b92915050565b600060208201905061461b60008301846140a3565b92915050565b600060208201905061463660008301846140b2565b92915050565b600060208201905061465160008301846140c1565b92915050565b6000602082019050818103600083015261467181846140df565b905092915050565b6000602082019050818103600083015261469281614149565b9050919050565b600060208201905081810360008301526146b28161416c565b9050919050565b600060208201905081810360008301526146d28161418f565b9050919050565b600060208201905081810360008301526146f2816141b2565b9050919050565b60006020820190508181036000830152614712816141d5565b9050919050565b60006020820190508181036000830152614732816141f8565b9050919050565b600060208201905081810360008301526147528161421b565b9050919050565b600060208201905081810360008301526147728161423e565b9050919050565b6000602082019050818103600083015261479281614261565b9050919050565b600060208201905081810360008301526147b281614284565b9050919050565b600060208201905081810360008301526147d2816142a7565b9050919050565b600060208201905081810360008301526147f2816142ca565b9050919050565b60006020820190508181036000830152614812816142ed565b9050919050565b6000602082019050818103600083015261483281614310565b9050919050565b6000602082019050818103600083015261485281614333565b9050919050565b6000602082019050818103600083015261487281614356565b9050919050565b6000602082019050818103600083015261489281614379565b9050919050565b600060208201905081810360008301526148b2816143bf565b9050919050565b600060208201905081810360008301526148d2816143e2565b9050919050565b600060208201905081810360008301526148f281614405565b9050919050565b6000602082019050818103600083015261491281614428565b9050919050565b600060208201905081810360008301526149328161446e565b9050919050565b600060808201905061494e6000830184614491565b92915050565b600060208201905061496960008301846144f5565b92915050565b600060a08201905061498460008301886144f5565b61499160208301876144f5565b61499e60408301866144f5565b6149ab60608301856144f5565b6149b860808301846144f5565b9695505050505050565b60006149cc6149dd565b90506149d88282614cdb565b919050565b6000604051905090565b600081519050919050565b600081519050919050565b600081905092915050565b600082825260208201905092915050565b600081905092915050565b6000614a2f82614bf6565b9150614a3a83614bf6565b9250827fffffffffffffffffffffffffffffffffffffffffffffffffffffffffffffffff03821115614a6f57614a6e614d55565b5b828201905092915050565b6000614a8582614bf6565b9150614a9083614bf6565b925082614aa057614a9f614d84565b5b828204905092915050565b6000614ab682614bf6565b9150614ac183614bf6565b9250817fffffffffffffffffffffffffffffffffffffffffffffffffffffffffffffffff0483118215151615614afa57614af9614d55565b5b828202905092915050565b6000614b1082614bf6565b9150614b1b83614bf6565b925082821015614b2e57614b2d614d55565b5b828203905092915050565b6000614b4482614bd6565b9050919050565b60008115159050919050565b6000819050919050565b60007fffffffff0000000000000000000000000000000000000000000000000000000082169050919050565b6000614b9882614b39565b9050919050565b6000614baa82614b39565b9050919050565b6000614bbc82614b39565b9050919050565b6000819050614bd18261546d565b919050565b600073ffffffffffffffffffffffffffffffffffffffff82169050919050565b6000819050919050565b6000614c0b82614c12565b9050919050565b6000614c1d82614bd6565b9050919050565b6000614c2f82614c36565b9050919050565b6000614c4182614bd6565b9050919050565b6000614c5382614c5a565b9050919050565b6000614c6582614bd6565b9050919050565b6000614c7782614bc3565b9050919050565b60005b83811015614c9c578082015181840152602081019050614c81565b83811115614cab576000848401525b50505050565b6000614cbc82614bf6565b91506000821415614cd057614ccf614d55565b5b600182039050919050565b614ce482614e4a565b810181811067ffffffffffffffff82111715614d0357614d02614e11565b5b80604052505050565b6000614d1782614bf6565b91507fffffffffffffffffffffffffffffffffffffffffffffffffffffffffffffffff821415614d4a57614d49614d55565b5b600182019050919050565b7f4e487b7100000000000000000000000000000000000000000000000000000000600052601160045260246000fd5b7f4e487b7100000000000000000000000000000000000000000000000000000000600052601260045260246000fd5b7f4e487b7100000000000000000000000000000000000000000000000000000000600052602160045260246000fd5b7f4e487b7100000000000000000000000000000000000000000000000000000000600052603260045260246000fd5b7f4e487b7100000000000000000000000000000000000000000000000000000000600052604160045260246000fd5b600080fd5b600080fd5b6000601f19601f8301169050919050565b7f537472696e67733a20686578206c656e67746820696e73756666696369656e74600082015250565b7f436f6d6d756e6974793a3a6d69677261746546756e64733a204e4f545f414c4c60008201527f4f57454400000000000000000000000000000000000000000000000000000000602082015250565b7f4f776e61626c653a206e6577206f776e657220697320746865207a65726f206160008201527f6464726573730000000000000000000000000000000000000000000000000000602082015250565b7f436f6d6d756e6974793a3a636f6e7374727563746f723a206d6178436c61696d60008201527f206d7573742062652067726561746572207468616e20636c61696d416d6f756e60208201527f7400000000000000000000000000000000000000000000000000000000000000604082015250565b7f416464726573733a20696e73756666696369656e742062616c616e636520666f60008201527f722063616c6c0000000000000000000000000000000000000000000000000000602082015250565b7f496e697469616c697a61626c653a20636f6e747261637420697320616c72656160008201527f647920696e697469616c697a6564000000000000000000000000000000000000602082015250565b7f436f6d6d756e6974793a3a61646442656e65666963696172793a204e4f545f5960008201527f4554000000000000000000000000000000000000000000000000000000000000602082015250565b7f436f6d6d756e6974793a3a756e6c6f636b42656e65666963696172793a204e4f60008201527f545f594554000000000000000000000000000000000000000000000000000000602082015250565b7f4f776e61626c653a2063616c6c6572206973206e6f7420746865206f776e6572600082015250565b7f436f6d6d756e6974793a204e4f545f56414c49445f42454e4546494349415259600082015250565b7f436f6d6d756e6974793a3a636c61696d3a204e4f545f414c4c4f574544000000600082015250565b7f436f6d6d756e6974793a204e4f545f4d414e4147455200000000000000000000600082015250565b7f436f6d6d756e6974793a3a636c61696d3a204e4f545f59455400000000000000600082015250565b7f436f6d6d756e6974793a3a61646442656e65666963696172793a204e4f545f4160008201527f4c4c4f5745440000000000000000000000000000000000000000000000000000602082015250565b7f416464726573733a2063616c6c20746f206e6f6e2d636f6e7472616374000000600082015250565b7f436f6d6d756e6974793a3a6c6f636b42656e65666963696172793a204e4f545f60008201527f5945540000000000000000000000000000000000000000000000000000000000602082015250565b7f436f6d6d756e6974793a3a636c61696d3a204d41585f434c41494d0000000000600082015250565b7f416363657373436f6e74726f6c3a206163636f756e7420000000000000000000600082015250565b7f5361666545524332303a204552433230206f7065726174696f6e20646964206e60008201527f6f74207375636365656400000000000000000000000000000000000000000000602082015250565b7f436f6d6d756e6974793a3a636f6e7374727563746f723a2062617365496e746560008201527f7276616c206d7573742062652067726561746572207468616e20696e6372656d60208201527f656e74496e74657276616c000000000000000000000000000000000000000000604082015250565b7f4c4f434b45440000000000000000000000000000000000000000000000000000600082015250565b7f436f6d6d756e6974793a3a72656d6f766542656e65666963696172793a204e4f60008201527f545f594554000000000000000000000000000000000000000000000000000000602082015250565b7f206973206d697373696e6720726f6c6520000000000000000000000000000000600082015250565b7f416363657373436f6e74726f6c3a2063616e206f6e6c792072656e6f756e636560008201527f20726f6c657320666f722073656c660000000000000000000000000000000000602082015250565b6004811061547e5761547d614db3565b5b50565b61548a81614b39565b811461549557600080fd5b50565b6154a181614b4b565b81146154ac57600080fd5b50565b6154b881614b57565b81146154c357600080fd5b50565b6154cf81614b61565b81146154da57600080fd5b50565b6154e681614b8d565b81146154f157600080fd5b50565b6154fd81614b9f565b811461550857600080fd5b50565b61551481614bb1565b811461551f57600080fd5b50565b6004811061552f57600080fd5b50565b61553b81614bf6565b811461554657600080fd5b5056fea26469706673582212203865e9bb330f5fff9187a50220e3f48390e5d6b048d80a90cf88ccc84b27bd7164736f6c63430008050033",
  "devdoc": {
    "kind": "dev",
    "methods": {
      "addBeneficiary(address)": {
        "details": "Allow community managers to add beneficiaries."
      },
      "addManager(address)": {
        "details": "Allow community managers to add other managers."
      },
      "claim()": {
        "details": "Allow beneficiaries to claim."
      },
      "edit(uint256,uint256,uint256,uint256,uint256)": {
        "details": "Allow community managers to edit community variables."
      },
      "getRoleAdmin(bytes32)": {
        "details": "Returns the admin role that controls `role`. See {grantRole} and {revokeRole}. To change a role's admin, use {_setRoleAdmin}."
      },
      "grantRole(bytes32,address)": {
        "details": "Grants `role` to `account`. If `account` had not been already granted `role`, emits a {RoleGranted} event. Requirements: - the caller must have ``role``'s admin role."
      },
      "hasRole(bytes32,address)": {
        "details": "Returns `true` if `account` has been granted `role`."
      },
      "initialize(address,uint256,uint256,uint256,uint256,address,address)": {
        "details": "Constructor with custom fields, choosen by the community.",
        "params": {
          "baseInterval_": "Base interval to start claiming.",
          "claimAmount_": "Base amount to be claim by the benificiary.",
          "firstManager_": "Comminuty's first manager. Will be able to add others.",
          "incrementInterval_": "Increment interval used in each claim.",
          "maxClaim_": "Limit that a beneficiary can claim at once.",
          "previousCommunity_": "previous smart contract address of community."
        }
      },
      "lockBeneficiary(address)": {
        "details": "Allow community managers to lock beneficiaries."
      },
      "owner()": {
        "details": "Returns the address of the current owner."
      },
      "removeBeneficiary(address)": {
        "details": "Allow community managers to remove beneficiaries."
      },
      "removeManager(address)": {
        "details": "Allow community managers to remove other managers."
      },
      "renounceOwnership()": {
        "details": "Leaves the contract without owner. It will not be possible to call `onlyOwner` functions anymore. Can only be called by the current owner. NOTE: Renouncing ownership will leave the contract without an owner, thereby removing any functionality that is only available to the owner."
      },
      "renounceRole(bytes32,address)": {
        "details": "Revokes `role` from the calling account. Roles are often managed via {grantRole} and {revokeRole}: this function's purpose is to provide a mechanism for accounts to lose their privileges if they are compromised (such as when a trusted device is misplaced). If the calling account had been granted `role`, emits a {RoleRevoked} event. Requirements: - the caller must be `account`."
      },
      "revokeRole(bytes32,address)": {
        "details": "Revokes `role` from `account`. If `account` had been granted `role`, emits a {RoleRevoked} event. Requirements: - the caller must have ``role``'s admin role."
      },
      "supportsInterface(bytes4)": {
        "details": "See {IERC165-supportsInterface}."
      },
      "transferOwnership(address)": {
        "details": "Transfers ownership of the contract to a new account (`newOwner`). Can only be called by the current owner."
      },
      "unlockBeneficiary(address)": {
        "details": "Allow community managers to unlock locked beneficiaries."
      }
    },
    "version": 1
  },
  "userdoc": {
    "kind": "user",
    "methods": {
      "lock()": {
        "notice": "Allow community managers to lock community claims."
      },
      "migrateFunds(address,address)": {
        "notice": "Migrate funds in current community to new one."
      },
      "unlock()": {
        "notice": "Allow community managers to unlock community claims."
      }
    },
    "notice": "Welcome to the Community contract. For each community there will be one contract like this being deployed by CommunityAdmin contract. This enable us to save tokens on the contract itself, and avoid the problems of having everything in one single contract. Each community has it's own members and and managers.",
    "version": 1
  },
  "storageLayout": {
    "storage": [
      {
        "astId": 538,
        "contract": "contracts/community/Community.sol:Community",
        "label": "_initialized",
        "offset": 0,
        "slot": "0",
        "type": "t_bool"
      },
      {
        "astId": 541,
        "contract": "contracts/community/Community.sol:Community",
        "label": "_initializing",
        "offset": 1,
        "slot": "0",
        "type": "t_bool"
      },
      {
        "astId": 621,
        "contract": "contracts/community/Community.sol:Community",
        "label": "__gap",
        "offset": 0,
        "slot": "1",
        "type": "t_array(t_uint256)50_storage"
      },
      {
        "astId": 870,
        "contract": "contracts/community/Community.sol:Community",
        "label": "__gap",
        "offset": 0,
        "slot": "51",
        "type": "t_array(t_uint256)50_storage"
      },
      {
        "astId": 48,
        "contract": "contracts/community/Community.sol:Community",
        "label": "_roles",
        "offset": 0,
        "slot": "101",
        "type": "t_mapping(t_bytes32,t_struct(RoleData)43_storage)"
      },
      {
        "astId": 333,
        "contract": "contracts/community/Community.sol:Community",
        "label": "__gap",
        "offset": 0,
        "slot": "102",
        "type": "t_array(t_uint256)49_storage"
      },
      {
        "astId": 418,
        "contract": "contracts/community/Community.sol:Community",
        "label": "_owner",
        "offset": 0,
        "slot": "151",
        "type": "t_address"
      },
      {
        "astId": 531,
        "contract": "contracts/community/Community.sol:Community",
        "label": "__gap",
        "offset": 0,
        "slot": "152",
        "type": "t_array(t_uint256)49_storage"
      },
      {
        "astId": 6688,
        "contract": "contracts/community/Community.sol:Community",
        "label": "_locked",
        "offset": 0,
        "slot": "201",
        "type": "t_bool"
      },
      {
        "astId": 6690,
        "contract": "contracts/community/Community.sol:Community",
        "label": "_claimAmount",
        "offset": 0,
        "slot": "202",
        "type": "t_uint256"
      },
      {
        "astId": 6692,
        "contract": "contracts/community/Community.sol:Community",
        "label": "_baseInterval",
        "offset": 0,
        "slot": "203",
        "type": "t_uint256"
      },
      {
        "astId": 6694,
        "contract": "contracts/community/Community.sol:Community",
        "label": "_incrementInterval",
        "offset": 0,
        "slot": "204",
        "type": "t_uint256"
      },
      {
        "astId": 6696,
        "contract": "contracts/community/Community.sol:Community",
        "label": "_maxClaim",
        "offset": 0,
        "slot": "205",
        "type": "t_uint256"
      },
      {
        "astId": 6698,
        "contract": "contracts/community/Community.sol:Community",
        "label": "_validBeneficiaryCount",
        "offset": 0,
        "slot": "206",
        "type": "t_uint256"
      },
      {
        "astId": 6700,
        "contract": "contracts/community/Community.sol:Community",
        "label": "_treasuryFunds",
        "offset": 0,
        "slot": "207",
        "type": "t_uint256"
      },
      {
        "astId": 6702,
        "contract": "contracts/community/Community.sol:Community",
        "label": "_privateFunds",
        "offset": 0,
        "slot": "208",
        "type": "t_uint256"
      },
      {
        "astId": 6704,
        "contract": "contracts/community/Community.sol:Community",
        "label": "_decreaseStep",
        "offset": 0,
        "slot": "209",
        "type": "t_uint256"
      },
      {
        "astId": 6707,
        "contract": "contracts/community/Community.sol:Community",
        "label": "_previousCommunity",
        "offset": 0,
        "slot": "210",
        "type": "t_contract(ICommunity)8810"
      },
      {
        "astId": 6710,
        "contract": "contracts/community/Community.sol:Community",
        "label": "_communityAdmin",
        "offset": 0,
        "slot": "211",
        "type": "t_contract(ICommunityAdmin)8954"
      },
      {
        "astId": 6715,
        "contract": "contracts/community/Community.sol:Community",
        "label": "_beneficiaries",
        "offset": 0,
        "slot": "212",
        "type": "t_mapping(t_address,t_struct(Beneficiary)8616_storage)"
      },
      {
        "astId": 6718,
        "contract": "contracts/community/Community.sol:Community",
        "label": "_beneficiaryList",
        "offset": 0,
        "slot": "213",
        "type": "t_struct(AddressSet)4906_storage"
      }
    ],
    "types": {
      "t_address": {
        "encoding": "inplace",
        "label": "address",
        "numberOfBytes": "20"
      },
      "t_array(t_bytes32)dyn_storage": {
        "base": "t_bytes32",
        "encoding": "dynamic_array",
        "label": "bytes32[]",
        "numberOfBytes": "32"
      },
      "t_array(t_uint256)49_storage": {
        "base": "t_uint256",
        "encoding": "inplace",
        "label": "uint256[49]",
        "numberOfBytes": "1568"
      },
      "t_array(t_uint256)50_storage": {
        "base": "t_uint256",
        "encoding": "inplace",
        "label": "uint256[50]",
        "numberOfBytes": "1600"
      },
      "t_bool": {
        "encoding": "inplace",
        "label": "bool",
        "numberOfBytes": "1"
      },
      "t_bytes32": {
        "encoding": "inplace",
        "label": "bytes32",
        "numberOfBytes": "32"
      },
      "t_contract(ICommunity)8810": {
        "encoding": "inplace",
        "label": "contract ICommunity",
        "numberOfBytes": "20"
      },
      "t_contract(ICommunityAdmin)8954": {
        "encoding": "inplace",
        "label": "contract ICommunityAdmin",
        "numberOfBytes": "20"
      },
      "t_enum(BeneficiaryState)8606": {
        "encoding": "inplace",
        "label": "enum ICommunity.BeneficiaryState",
        "numberOfBytes": "1"
      },
      "t_mapping(t_address,t_bool)": {
        "encoding": "mapping",
        "key": "t_address",
        "label": "mapping(address => bool)",
        "numberOfBytes": "32",
        "value": "t_bool"
      },
      "t_mapping(t_address,t_struct(Beneficiary)8616_storage)": {
        "encoding": "mapping",
        "key": "t_address",
        "label": "mapping(address => struct ICommunity.Beneficiary)",
        "numberOfBytes": "32",
        "value": "t_struct(Beneficiary)8616_storage"
      },
      "t_mapping(t_bytes32,t_struct(RoleData)43_storage)": {
        "encoding": "mapping",
        "key": "t_bytes32",
        "label": "mapping(bytes32 => struct AccessControlUpgradeable.RoleData)",
        "numberOfBytes": "32",
        "value": "t_struct(RoleData)43_storage"
      },
      "t_mapping(t_bytes32,t_uint256)": {
        "encoding": "mapping",
        "key": "t_bytes32",
        "label": "mapping(bytes32 => uint256)",
        "numberOfBytes": "32",
        "value": "t_uint256"
      },
      "t_struct(AddressSet)4906_storage": {
        "encoding": "inplace",
        "label": "struct EnumerableSet.AddressSet",
        "members": [
          {
            "astId": 4905,
            "contract": "contracts/community/Community.sol:Community",
            "label": "_inner",
            "offset": 0,
            "slot": "0",
            "type": "t_struct(Set)4635_storage"
          }
        ],
        "numberOfBytes": "64"
      },
      "t_struct(Beneficiary)8616_storage": {
        "encoding": "inplace",
        "label": "struct ICommunity.Beneficiary",
        "members": [
          {
            "astId": 8609,
            "contract": "contracts/community/Community.sol:Community",
            "label": "state",
            "offset": 0,
            "slot": "0",
            "type": "t_enum(BeneficiaryState)8606"
          },
          {
            "astId": 8611,
            "contract": "contracts/community/Community.sol:Community",
            "label": "claims",
            "offset": 0,
            "slot": "1",
            "type": "t_uint256"
          },
          {
            "astId": 8613,
            "contract": "contracts/community/Community.sol:Community",
            "label": "claimedAmount",
            "offset": 0,
            "slot": "2",
            "type": "t_uint256"
          },
          {
            "astId": 8615,
            "contract": "contracts/community/Community.sol:Community",
            "label": "lastClaim",
            "offset": 0,
            "slot": "3",
            "type": "t_uint256"
          }
        ],
        "numberOfBytes": "128"
      },
      "t_struct(RoleData)43_storage": {
        "encoding": "inplace",
        "label": "struct AccessControlUpgradeable.RoleData",
        "members": [
          {
            "astId": 40,
            "contract": "contracts/community/Community.sol:Community",
            "label": "members",
            "offset": 0,
            "slot": "0",
            "type": "t_mapping(t_address,t_bool)"
          },
          {
            "astId": 42,
            "contract": "contracts/community/Community.sol:Community",
            "label": "adminRole",
            "offset": 0,
            "slot": "1",
            "type": "t_bytes32"
          }
        ],
        "numberOfBytes": "64"
      },
      "t_struct(Set)4635_storage": {
        "encoding": "inplace",
        "label": "struct EnumerableSet.Set",
        "members": [
          {
            "astId": 4630,
            "contract": "contracts/community/Community.sol:Community",
            "label": "_values",
            "offset": 0,
            "slot": "0",
            "type": "t_array(t_bytes32)dyn_storage"
          },
          {
            "astId": 4634,
            "contract": "contracts/community/Community.sol:Community",
            "label": "_indexes",
            "offset": 0,
            "slot": "1",
            "type": "t_mapping(t_bytes32,t_uint256)"
          }
        ],
        "numberOfBytes": "64"
      },
      "t_uint256": {
        "encoding": "inplace",
        "label": "uint256",
        "numberOfBytes": "32"
      }
    }
  }
}