{
  "address": "0x240B5A713A194b0364b23D0d852e0fC8cE676D6e",
  "abi": [
    {
      "inputs": [
        {
          "internalType": "address",
          "name": "_cUSDAddress",
          "type": "address"
        },
        {
          "internalType": "address",
          "name": "_communityAdminAddress",
          "type": "address"
        }
      ],
      "stateMutability": "nonpayable",
      "type": "constructor"
    },
    {
      "inputs": [],
      "name": "cUSDAddress",
      "outputs": [
        {
          "internalType": "address",
          "name": "",
          "type": "address"
        }
      ],
      "stateMutability": "view",
      "type": "function"
    },
    {
      "inputs": [],
      "name": "communityAdminAddress",
      "outputs": [
        {
          "internalType": "address",
          "name": "",
          "type": "address"
        }
      ],
      "stateMutability": "view",
      "type": "function"
    },
    {
      "inputs": [
        {
          "internalType": "address",
          "name": "_firstManager",
          "type": "address"
        },
        {
          "internalType": "uint256",
          "name": "_claimAmount",
          "type": "uint256"
        },
        {
          "internalType": "uint256",
          "name": "_maxClaim",
          "type": "uint256"
        },
        {
          "internalType": "uint256",
          "name": "_baseInterval",
          "type": "uint256"
        },
        {
          "internalType": "uint256",
          "name": "_incrementInterval",
          "type": "uint256"
        },
        {
          "internalType": "address",
          "name": "_previousCommunityAddress",
          "type": "address"
        }
      ],
      "name": "deployCommunity",
      "outputs": [
        {
          "internalType": "address",
          "name": "",
          "type": "address"
        }
      ],
      "stateMutability": "nonpayable",
      "type": "function"
    }
  ],
  "transactionHash": "0xa67b050cc24a2c4e9d4a98adb2b42cf095999c9c5820d18c6daaa97f804714d4",
  "args": [
    "0x874069fa1eb16d44d622f2e0ca25eea172369bc1",
    "0x67Fc747b66E92d863de5386148fE3e328c56c455"
  ],
  "solcInputHash": "8c7f64154b5285b30cc96cb58aff2ea5",
  "bytecode": "0x608060405234801561001057600080fd5b506040516140ec3803806140ec833981810160405281019061003291906100cf565b816000806101000a81548173ffffffffffffffffffffffffffffffffffffffff021916908373ffffffffffffffffffffffffffffffffffffffff16021790555080600160006101000a81548173ffffffffffffffffffffffffffffffffffffffff021916908373ffffffffffffffffffffffffffffffffffffffff160217905550505061015d565b6000815190506100c981610146565b92915050565b600080604083850312156100e6576100e5610141565b5b60006100f4858286016100ba565b9250506020610105858286016100ba565b9150509250929050565b600061011a82610121565b9050919050565b600073ffffffffffffffffffffffffffffffffffffffff82169050919050565b600080fd5b61014f8161010f565b811461015a57600080fd5b50565b613f808061016c6000396000f3fe60806040523480156200001157600080fd5b5060043610620000465760003560e01c806330316daf146200004b5780633ff574b6146200006d5780638523f311146200008f575b600080fd5b62000055620000c5565b60405162000064919062000338565b60405180910390f35b62000077620000eb565b60405162000086919062000338565b60405180910390f35b620000ad6004803603810190620000a7919062000253565b6200010f565b604051620000bc919062000338565b60405180910390f35b600160009054906101000a900473ffffffffffffffffffffffffffffffffffffffff1681565b60008054906101000a900473ffffffffffffffffffffffffffffffffffffffff1681565b6000600160009054906101000a900473ffffffffffffffffffffffffffffffffffffffff1673ffffffffffffffffffffffffffffffffffffffff163373ffffffffffffffffffffffffffffffffffffffff1614620001a4576040517f08c379a00000000000000000000000000000000000000000000000000000000081526004016200019b90620003e3565b60405180910390fd5b86868686868660008054906101000a900473ffffffffffffffffffffffffffffffffffffffff1633604051620001da9062000217565b620001ed98979695949392919062000355565b604051809103906000f0801580156200020a573d6000803e3d6000fd5b5090509695505050505050565b613a9480620004b783390190565b600081359050620002368162000482565b92915050565b6000813590506200024d816200049c565b92915050565b60008060008060008060c0878903121562000273576200027262000454565b5b60006200028389828a0162000225565b96505060206200029689828a016200023c565b9550506040620002a989828a016200023c565b9450506060620002bc89828a016200023c565b9350506080620002cf89828a016200023c565b92505060a0620002e289828a0162000225565b9150509295509295509295565b620002fa8162000416565b82525050565b60006200030f600b8362000405565b91506200031c8262000459565b602082019050919050565b62000332816200044a565b82525050565b60006020820190506200034f6000830184620002ef565b92915050565b6000610100820190506200036d600083018b620002ef565b6200037c602083018a62000327565b6200038b604083018962000327565b6200039a606083018862000327565b620003a9608083018762000327565b620003b860a0830186620002ef565b620003c760c0830185620002ef565b620003d660e0830184620002ef565b9998505050505050505050565b60006020820190508181036000830152620003fe8162000300565b9050919050565b600082825260208201905092915050565b600062000423826200042a565b9050919050565b600073ffffffffffffffffffffffffffffffffffffffff82169050919050565b6000819050919050565b600080fd5b7f4e4f545f414c4c4f574544000000000000000000000000000000000000000000600082015250565b6200048d8162000416565b81146200049957600080fd5b50565b620004a7816200044a565b8114620004b357600080fd5b5056fe60806040523480156200001157600080fd5b5060405162003a9438038062003a94833981810160405281019062000037919062000493565b8385116200007c576040517f08c379a0000000000000000000000000000000000000000000000000000000008152600401620000739062000583565b60405180910390fd5b868611620000c1576040517f08c379a0000000000000000000000000000000000000000000000000000000008152600401620000b89062000583565b60405180910390fd5b620000f37f241ecf16d79d0f8dbfb92cbc07fe17840425976cf0667f022fe9877caa831b08896200027060201b60201c565b620001257f241ecf16d79d0f8dbfb92cbc07fe17840425976cf0667f022fe9877caa831b08806200028660201b60201c565b8773ffffffffffffffffffffffffffffffffffffffff167f3b4a40cccf2058c593542587329dd385be4f0b588db5471fbd9598e56dd7093a60405160405180910390a28660058190555084600681905550836007819055508560088190555082600960006101000a81548173ffffffffffffffffffffffffffffffffffffffff021916908373ffffffffffffffffffffffffffffffffffffffff16021790555081600b60006101000a81548173ffffffffffffffffffffffffffffffffffffffff021916908373ffffffffffffffffffffffffffffffffffffffff16021790555080600a60006101000a81548173ffffffffffffffffffffffffffffffffffffffff021916908373ffffffffffffffffffffffffffffffffffffffff1602179055506000600b60146101000a81548160ff021916908315150217905550505050505050505062000630565b620002828282620002e360201b60201c565b5050565b806200029883620003d460201b60201c565b837fbd79b86ffe0ab8e8776151514217cd7cacd52c909f66475c3af44e129f0b00ff60405160405180910390a480600080848152602001908152602001600020600101819055505050565b620002f58282620003f360201b60201c565b620003d057600160008084815260200190815260200160002060000160008373ffffffffffffffffffffffffffffffffffffffff1673ffffffffffffffffffffffffffffffffffffffff16815260200190815260200160002060006101000a81548160ff021916908315150217905550620003756200045d60201b60201c565b73ffffffffffffffffffffffffffffffffffffffff168173ffffffffffffffffffffffffffffffffffffffff16837f2f8788117e7eff1d82e926ec794901d17c78024a50270940304540a733656f0d60405160405180910390a45b5050565b6000806000838152602001908152602001600020600101549050919050565b600080600084815260200190815260200160002060000160008373ffffffffffffffffffffffffffffffffffffffff1673ffffffffffffffffffffffffffffffffffffffff16815260200190815260200160002060009054906101000a900460ff16905092915050565b600033905090565b6000815190506200047681620005fc565b92915050565b6000815190506200048d8162000616565b92915050565b600080600080600080600080610100898b031215620004b757620004b6620005f4565b5b6000620004c78b828c0162000465565b9850506020620004da8b828c016200047c565b9750506040620004ed8b828c016200047c565b9650506060620005008b828c016200047c565b9550506080620005138b828c016200047c565b94505060a0620005268b828c0162000465565b93505060c0620005398b828c0162000465565b92505060e06200054c8b828c0162000465565b9150509295985092959890939650565b60006200056b600083620005a5565b91506200057882620005f9565b600082019050919050565b600060208201905081810360008301526200059e816200055c565b9050919050565b600082825260208201905092915050565b6000620005c382620005ca565b9050919050565b600073ffffffffffffffffffffffffffffffffffffffff82169050919050565b6000819050919050565b600080fd5b50565b6200060781620005b6565b81146200061357600080fd5b50565b6200062181620005ea565b81146200062d57600080fd5b50565b61345480620006406000396000f3fe608060405234801561001057600080fd5b50600436106101f05760003560e01c806391d148541161010f578063c884ef83116100a2578063d547741f11610071578063d547741f14610593578063e1b56a7d146105af578063ec87621c146105cb578063f83d08ba146105e9576101f0565b8063c884ef831461050b578063cf3090121461053b578063d10f510714610559578063d4938db314610575576101f0565b8063ac18de43116100de578063ac18de4314610473578063b222e0c21461048f578063c0e27b6b146104bf578063c6788bdd146104db576101f0565b806391d14854146103eb578063a217fddf1461041b578063a69df4b514610439578063a8f3e06314610443576101f0565b806336568abe116101875780635926651d116101565780635926651d1461037757806359633a1c14610393578063597be18b146103af578063830953ab146103cd576101f0565b806336568abe146103155780633df03b4a146103315780633ff574b61461034f5780634e71d92d1461036d576101f0565b8063248a9ca3116101c3578063248a9ca31461028f5780632d06177a146102bf5780632f2ff15d146102db57806330316daf146102f7576101f0565b806301567739146101f557806301ffc9a7146102255780630e5b7c53146102555780631fe9578e14610273575b600080fd5b61020f600480360381019061020a919061277c565b6105f3565b60405161021c9190612cdf565b60405180910390f35b61023f600480360381019061023a91906128b0565b610613565b60405161024c9190612c80565b60405180910390f35b61025d61068d565b60405161026a9190612e5c565b60405180910390f35b61028d600480360381019061028891906127d6565b610693565b005b6102a960048036038101906102a49190612843565b610afb565b6040516102b69190612c9b565b60405180910390f35b6102d960048036038101906102d4919061277c565b610b1a565b005b6102f560048036038101906102f09190612870565b610bf3565b005b6102ff610c1c565b60405161030c9190612c13565b60405180910390f35b61032f600480360381019061032a9190612870565b610c42565b005b610339610cc5565b6040516103469190612c13565b60405180910390f35b610357610ceb565b6040516103649190612c13565b60405180910390f35b610375610d11565b005b610391600480360381019061038c919061277c565b611314565b005b6103ad60048036038101906103a8919061277c565b611662565b005b6103b76118a7565b6040516103c49190612e5c565b60405180910390f35b6103d56118ad565b6040516103e29190612e5c565b60405180910390f35b61040560048036038101906104009190612870565b6118b3565b6040516104129190612c80565b60405180910390f35b61042361191d565b6040516104309190612c9b565b60405180910390f35b610441611924565b005b61045d6004803603810190610458919061277c565b6119ed565b60405161046a9190612e5c565b60405180910390f35b61048d6004803603810190610488919061277c565b611aad565b005b6104a960048036038101906104a4919061277c565b611b86565b6040516104b69190612e5c565b60405180910390f35b6104d960048036038101906104d4919061277c565b611b9e565b005b6104f560048036038101906104f0919061277c565b611d68565b6040516105029190612e5c565b60405180910390f35b6105256004803603810190610520919061277c565b611d80565b6040516105329190612e5c565b60405180910390f35b610543611d98565b6040516105509190612c80565b60405180910390f35b610573600480360381019061056e919061277c565b611dab565b005b61057d611f75565b60405161058a9190612e5c565b60405180910390f35b6105ad60048036038101906105a89190612870565b611f7b565b005b6105c960048036038101906105c4919061290a565b611fa4565b005b6105d36120f0565b6040516105e09190612c9b565b60405180910390f35b6105f1612114565b005b60046020528060005260406000206000915054906101000a900460ff1681565b60007f7965db0b000000000000000000000000000000000000000000000000000000007bffffffffffffffffffffffffffffffffffffffffffffffffffffffff1916827bffffffffffffffffffffffffffffffffffffffffffffffffffffffff191614806106865750610685826121dd565b5b9050919050565b60065481565b600a60009054906101000a900473ffffffffffffffffffffffffffffffffffffffff1673ffffffffffffffffffffffffffffffffffffffff163373ffffffffffffffffffffffffffffffffffffffff1614610723576040517f08c379a000000000000000000000000000000000000000000000000000000000815260040161071a90612d7c565b60405180910390fd5b6000829050600115158173ffffffffffffffffffffffffffffffffffffffff166391d148547f241ecf16d79d0f8dbfb92cbc07fe17840425976cf0667f022fe9877caa831b08856040518363ffffffff1660e01b8152600401610787929190612cb6565b60206040518083038186803b15801561079f57600080fd5b505afa1580156107b3573d6000803e3d6000fd5b505050506040513d601f19601f820116820180604052508101906107d79190612816565b151514610819576040517f08c379a000000000000000000000000000000000000000000000000000000000815260040161081090612d7c565b60405180910390fd5b3073ffffffffffffffffffffffffffffffffffffffff168173ffffffffffffffffffffffffffffffffffffffff16633df03b4a6040518163ffffffff1660e01b815260040160206040518083038186803b15801561087657600080fd5b505afa15801561088a573d6000803e3d6000fd5b505050506040513d601f19601f820116820180604052508101906108ae91906127a9565b73ffffffffffffffffffffffffffffffffffffffff1614610904576040517f08c379a00000000000000000000000000000000000000000000000000000000081526004016108fb90612d7c565b60405180910390fd5b6000600b60009054906101000a900473ffffffffffffffffffffffffffffffffffffffff1673ffffffffffffffffffffffffffffffffffffffff166370a08231306040518263ffffffff1660e01b81526004016109619190612c13565b60206040518083038186803b15801561097957600080fd5b505afa15801561098d573d6000803e3d6000fd5b505050506040513d601f19601f820116820180604052508101906109b191906128dd565b90506000600b60009054906101000a900473ffffffffffffffffffffffffffffffffffffffff1673ffffffffffffffffffffffffffffffffffffffff1663a9059cbb86846040518363ffffffff1660e01b8152600401610a12929190612c57565b602060405180830381600087803b158015610a2c57600080fd5b505af1158015610a40573d6000803e3d6000fd5b505050506040513d601f19601f82011682018060405250810190610a649190612816565b905080610aa6576040517f08c379a0000000000000000000000000000000000000000000000000000000008152600401610a9d90612d7c565b60405180910390fd5b8473ffffffffffffffffffffffffffffffffffffffff167fec3fe17382089950d15d61fa7c2347c1b7eeb9a828e1cc790f522eca57ed18ec83604051610aec9190612e5c565b60405180910390a25050505050565b6000806000838152602001908152602001600020600101549050919050565b610b447f241ecf16d79d0f8dbfb92cbc07fe17840425976cf0667f022fe9877caa831b08336118b3565b610b83576040517f08c379a0000000000000000000000000000000000000000000000000000000008152600401610b7a90612d3c565b60405180910390fd5b610bad7f241ecf16d79d0f8dbfb92cbc07fe17840425976cf0667f022fe9877caa831b0882610bf3565b8073ffffffffffffffffffffffffffffffffffffffff167f3b4a40cccf2058c593542587329dd385be4f0b588db5471fbd9598e56dd7093a60405160405180910390a250565b610bfc82610afb565b610c0d81610c08612247565b61224f565b610c1783836122ec565b505050565b600a60009054906101000a900473ffffffffffffffffffffffffffffffffffffffff1681565b610c4a612247565b73ffffffffffffffffffffffffffffffffffffffff168173ffffffffffffffffffffffffffffffffffffffff1614610cb7576040517f08c379a0000000000000000000000000000000000000000000000000000000008152600401610cae90612e3c565b60405180910390fd5b610cc182826123cc565b5050565b600960009054906101000a900473ffffffffffffffffffffffffffffffffffffffff1681565b600b60009054906101000a900473ffffffffffffffffffffffffffffffffffffffff1681565b60026003811115610d2557610d24613108565b5b600460003373ffffffffffffffffffffffffffffffffffffffff1673ffffffffffffffffffffffffffffffffffffffff16815260200190815260200160002060009054906101000a900460ff166003811115610d8457610d83613108565b5b1415610dc5576040517f08c379a0000000000000000000000000000000000000000000000000000000008152600401610dbc90612e1c565b60405180910390fd5b600380811115610dd857610dd7613108565b5b600460003373ffffffffffffffffffffffffffffffffffffffff1673ffffffffffffffffffffffffffffffffffffffff16815260200190815260200160002060009054906101000a900460ff166003811115610e3757610e36613108565b5b1415610e78576040517f08c379a0000000000000000000000000000000000000000000000000000000008152600401610e6f90612dbc565b60405180910390fd5b60016003811115610e8c57610e8b613108565b5b600460003373ffffffffffffffffffffffffffffffffffffffff1673ffffffffffffffffffffffffffffffffffffffff16815260200190815260200160002060009054906101000a900460ff166003811115610eeb57610eea613108565b5b14610f2b576040517f08c379a0000000000000000000000000000000000000000000000000000000008152600401610f2290612d9c565b60405180910390fd5b600b60149054906101000a900460ff1615610f7b576040517f08c379a0000000000000000000000000000000000000000000000000000000008152600401610f7290612e1c565b60405180910390fd5b42600160003373ffffffffffffffffffffffffffffffffffffffff1673ffffffffffffffffffffffffffffffffffffffff168152602001908152602001600020541115610ffd576040517f08c379a0000000000000000000000000000000000000000000000000000000008152600401610ff490612dfc565b60405180910390fd5b600854600554600260003373ffffffffffffffffffffffffffffffffffffffff1673ffffffffffffffffffffffffffffffffffffffff1681526020019081526020016000205461104d9190612ee3565b111561108e576040517f08c379a000000000000000000000000000000000000000000000000000000000815260040161108590612d5c565b60405180910390fd5b600554600260003373ffffffffffffffffffffffffffffffffffffffff1673ffffffffffffffffffffffffffffffffffffffff168152602001908152602001600020546110db9190612ee3565b600260003373ffffffffffffffffffffffffffffffffffffffff1673ffffffffffffffffffffffffffffffffffffffff168152602001908152602001600020819055506001600360003373ffffffffffffffffffffffffffffffffffffffff1673ffffffffffffffffffffffffffffffffffffffff168152602001908152602001600020600082825461116e9190612ee3565b9250508190555061117e336119ed565b426111899190612ee3565b600160003373ffffffffffffffffffffffffffffffffffffffff1673ffffffffffffffffffffffffffffffffffffffff168152602001908152602001600020819055503373ffffffffffffffffffffffffffffffffffffffff167fd54e03b214b3e8c17e98044f98554b6f1b18dd2a3163a2619afea7e9b2a6eb976005546040516112149190612e5c565b60405180910390a26000600b60009054906101000a900473ffffffffffffffffffffffffffffffffffffffff1673ffffffffffffffffffffffffffffffffffffffff1663a9059cbb336005546040518363ffffffff1660e01b815260040161127d929190612c57565b602060405180830381600087803b15801561129757600080fd5b505af11580156112ab573d6000803e3d6000fd5b505050506040513d601f19601f820116820180604052508101906112cf9190612816565b905080611311576040517f08c379a000000000000000000000000000000000000000000000000000000000815260040161130890612d7c565b60405180910390fd5b50565b61133e7f241ecf16d79d0f8dbfb92cbc07fe17840425976cf0667f022fe9877caa831b08336118b3565b61137d576040517f08c379a000000000000000000000000000000000000000000000000000000000815260040161137490612d3c565b60405180910390fd5b6000600381111561139157611390613108565b5b600460008373ffffffffffffffffffffffffffffffffffffffff1673ffffffffffffffffffffffffffffffffffffffff16815260200190815260200160002060009054906101000a900460ff1660038111156113f0576113ef613108565b5b14611430576040517f08c379a000000000000000000000000000000000000000000000000000000000815260040161142790612dfc565b60405180910390fd5b6001600460008373ffffffffffffffffffffffffffffffffffffffff1673ffffffffffffffffffffffffffffffffffffffff16815260200190815260200160002060006101000a81548160ff0219169083600381111561149357611492613108565b5b021790555042600160008373ffffffffffffffffffffffffffffffffffffffff1673ffffffffffffffffffffffffffffffffffffffff168152602001908152602001600020819055506000600360008373ffffffffffffffffffffffffffffffffffffffff1673ffffffffffffffffffffffffffffffffffffffff168152602001908152602001600020819055506000600b60009054906101000a900473ffffffffffffffffffffffffffffffffffffffff1673ffffffffffffffffffffffffffffffffffffffff1663a9059cbb8366b1a2bc2ec500006040518363ffffffff1660e01b8152600401611587929190612c2e565b602060405180830381600087803b1580156115a157600080fd5b505af11580156115b5573d6000803e3d6000fd5b505050506040513d601f19601f820116820180604052508101906115d99190612816565b90508061161b576040517f08c379a000000000000000000000000000000000000000000000000000000000815260040161161290612d7c565b60405180910390fd5b8173ffffffffffffffffffffffffffffffffffffffff167fc3e089fc6227e049d0e41c3d7a383d57efe69c1955c5752f7e5a9b5f1f11302060405160405180910390a25050565b61168c7f241ecf16d79d0f8dbfb92cbc07fe17840425976cf0667f022fe9877caa831b08336118b3565b6116cb576040517f08c379a00000000000000000000000000000000000000000000000000000000081526004016116c290612d3c565b60405180910390fd5b600160038111156116df576116de613108565b5b600460008373ffffffffffffffffffffffffffffffffffffffff1673ffffffffffffffffffffffffffffffffffffffff16815260200190815260200160002060009054906101000a900460ff16600381111561173e5761173d613108565b5b14806117ba57506002600381111561175957611758613108565b5b600460008373ffffffffffffffffffffffffffffffffffffffff1673ffffffffffffffffffffffffffffffffffffffff16815260200190815260200160002060009054906101000a900460ff1660038111156117b8576117b7613108565b5b145b6117f9576040517f08c379a00000000000000000000000000000000000000000000000000000000081526004016117f090612dfc565b60405180910390fd5b6003600460008373ffffffffffffffffffffffffffffffffffffffff1673ffffffffffffffffffffffffffffffffffffffff16815260200190815260200160002060006101000a81548160ff0219169083600381111561185c5761185b613108565b5b02179055508073ffffffffffffffffffffffffffffffffffffffff167f72977dad29432f655f11c2f0e72ef5124bb9ade7a512fb7a43a9f504df22342860405160405180910390a250565b60075481565b60055481565b600080600084815260200190815260200160002060000160008373ffffffffffffffffffffffffffffffffffffffff1673ffffffffffffffffffffffffffffffffffffffff16815260200190815260200160002060009054906101000a900460ff16905092915050565b6000801b81565b61194e7f241ecf16d79d0f8dbfb92cbc07fe17840425976cf0667f022fe9877caa831b08336118b3565b61198d576040517f08c379a000000000000000000000000000000000000000000000000000000000815260040161198490612d3c565b60405180910390fd5b6000600b60146101000a81548160ff0219169083151502179055503373ffffffffffffffffffffffffffffffffffffffff167f4e50048c25972c85ad169c2302967f1e633e8dc6108d6aca51a90d2a59d4934d60405160405180910390a2565b600080600360008473ffffffffffffffffffffffffffffffffffffffff1673ffffffffffffffffffffffffffffffffffffffff168152602001908152602001600020541415611a3f5760009050611aa8565b6007546001600360008573ffffffffffffffffffffffffffffffffffffffff1673ffffffffffffffffffffffffffffffffffffffff16815260200190815260200160002054611a8e9190612f93565b611a989190612f39565b600654611aa59190612ee3565b90505b919050565b611ad77f241ecf16d79d0f8dbfb92cbc07fe17840425976cf0667f022fe9877caa831b08336118b3565b611b16576040517f08c379a0000000000000000000000000000000000000000000000000000000008152600401611b0d90612d3c565b60405180910390fd5b611b407f241ecf16d79d0f8dbfb92cbc07fe17840425976cf0667f022fe9877caa831b0882611f7b565b8073ffffffffffffffffffffffffffffffffffffffff167fef69f7d97228658c92417be1b16b19058315de71fecb435d07b7d23728b6bd3160405160405180910390a250565b60016020528060005260406000206000915090505481565b611bc87f241ecf16d79d0f8dbfb92cbc07fe17840425976cf0667f022fe9877caa831b08336118b3565b611c07576040517f08c379a0000000000000000000000000000000000000000000000000000000008152600401611bfe90612d3c565b60405180910390fd5b60016003811115611c1b57611c1a613108565b5b600460008373ffffffffffffffffffffffffffffffffffffffff1673ffffffffffffffffffffffffffffffffffffffff16815260200190815260200160002060009054906101000a900460ff166003811115611c7a57611c79613108565b5b14611cba576040517f08c379a0000000000000000000000000000000000000000000000000000000008152600401611cb190612dfc565b60405180910390fd5b6002600460008373ffffffffffffffffffffffffffffffffffffffff1673ffffffffffffffffffffffffffffffffffffffff16815260200190815260200160002060006101000a81548160ff02191690836003811115611d1d57611d1c613108565b5b02179055508073ffffffffffffffffffffffffffffffffffffffff167f8bbf1861fd29297756bc2ec1496a157359ea7fda5746df5233b4fc3e8124511860405160405180910390a250565b60036020528060005260406000206000915090505481565b60026020528060005260406000206000915090505481565b600b60149054906101000a900460ff1681565b611dd57f241ecf16d79d0f8dbfb92cbc07fe17840425976cf0667f022fe9877caa831b08336118b3565b611e14576040517f08c379a0000000000000000000000000000000000000000000000000000000008152600401611e0b90612d3c565b60405180910390fd5b60026003811115611e2857611e27613108565b5b600460008373ffffffffffffffffffffffffffffffffffffffff1673ffffffffffffffffffffffffffffffffffffffff16815260200190815260200160002060009054906101000a900460ff166003811115611e8757611e86613108565b5b14611ec7576040517f08c379a0000000000000000000000000000000000000000000000000000000008152600401611ebe90612dfc565b60405180910390fd5b6001600460008373ffffffffffffffffffffffffffffffffffffffff1673ffffffffffffffffffffffffffffffffffffffff16815260200190815260200160002060006101000a81548160ff02191690836003811115611f2a57611f29613108565b5b02179055508073ffffffffffffffffffffffffffffffffffffffff167fb84ab42066834057600f08f7bc7564111d6f5c12497b99f98d02346aed682a1460405160405180910390a250565b60085481565b611f8482610afb565b611f9581611f90612247565b61224f565b611f9f83836123cc565b505050565b611fce7f241ecf16d79d0f8dbfb92cbc07fe17840425976cf0667f022fe9877caa831b08336118b3565b61200d576040517f08c379a000000000000000000000000000000000000000000000000000000000815260040161200490612d3c565b60405180910390fd5b80821161204f576040517f08c379a000000000000000000000000000000000000000000000000000000000815260040161204690612ddc565b60405180910390fd5b838311612091576040517f08c379a000000000000000000000000000000000000000000000000000000000815260040161208890612ddc565b60405180910390fd5b836005819055508160068190555080600781905550826008819055507f439aed8a17825b1759469932384a25f3652d3eac82c0f52e402a0b458ae4e838848484846040516120e29493929190612e77565b60405180910390a150505050565b7f241ecf16d79d0f8dbfb92cbc07fe17840425976cf0667f022fe9877caa831b0881565b61213e7f241ecf16d79d0f8dbfb92cbc07fe17840425976cf0667f022fe9877caa831b08336118b3565b61217d576040517f08c379a000000000000000000000000000000000000000000000000000000000815260040161217490612d3c565b60405180910390fd5b6001600b60146101000a81548160ff0219169083151502179055503373ffffffffffffffffffffffffffffffffffffffff167fe1e6bc10311f2f958d6cd2d0ab7308c32089aa1acb8ab11a2ccb60028e332bd060405160405180910390a2565b60007f01ffc9a7000000000000000000000000000000000000000000000000000000007bffffffffffffffffffffffffffffffffffffffffffffffffffffffff1916827bffffffffffffffffffffffffffffffffffffffffffffffffffffffff1916149050919050565b600033905090565b61225982826118b3565b6122e85761227e8173ffffffffffffffffffffffffffffffffffffffff1660146124ad565b61228c8360001c60206124ad565b60405160200161229d929190612bd9565b6040516020818303038152906040526040517f08c379a00000000000000000000000000000000000000000000000000000000081526004016122df9190612cfa565b60405180910390fd5b5050565b6122f682826118b3565b6123c857600160008084815260200190815260200160002060000160008373ffffffffffffffffffffffffffffffffffffffff1673ffffffffffffffffffffffffffffffffffffffff16815260200190815260200160002060006101000a81548160ff02191690831515021790555061236d612247565b73ffffffffffffffffffffffffffffffffffffffff168173ffffffffffffffffffffffffffffffffffffffff16837f2f8788117e7eff1d82e926ec794901d17c78024a50270940304540a733656f0d60405160405180910390a45b5050565b6123d682826118b3565b156124a957600080600084815260200190815260200160002060000160008373ffffffffffffffffffffffffffffffffffffffff1673ffffffffffffffffffffffffffffffffffffffff16815260200190815260200160002060006101000a81548160ff02191690831515021790555061244e612247565b73ffffffffffffffffffffffffffffffffffffffff168173ffffffffffffffffffffffffffffffffffffffff16837ff6391f5c32d9c69d2a47ea670b442974b53935d1edc7fd64eb21e047a839171b60405160405180910390a45b5050565b6060600060028360026124c09190612f39565b6124ca9190612ee3565b67ffffffffffffffff8111156124e3576124e2613166565b5b6040519080825280601f01601f1916602001820160405280156125155781602001600182028036833780820191505090505b5090507f30000000000000000000000000000000000000000000000000000000000000008160008151811061254d5761254c613137565b5b60200101907effffffffffffffffffffffffffffffffffffffffffffffffffffffffffffff1916908160001a9053507f7800000000000000000000000000000000000000000000000000000000000000816001815181106125b1576125b0613137565b5b60200101907effffffffffffffffffffffffffffffffffffffffffffffffffffffffffffff1916908160001a905350600060018460026125f19190612f39565b6125fb9190612ee3565b90505b600181111561269b577f3031323334353637383961626364656600000000000000000000000000000000600f86166010811061263d5761263c613137565b5b1a60f81b82828151811061265457612653613137565b5b60200101907effffffffffffffffffffffffffffffffffffffffffffffffffffffffffffff1916908160001a905350600485901c945080612694906130af565b90506125fe565b50600084146126df576040517f08c379a00000000000000000000000000000000000000000000000000000000081526004016126d690612d1c565b60405180910390fd5b8091505092915050565b6000813590506126f8816133ab565b92915050565b60008151905061270d816133ab565b92915050565b600081519050612722816133c2565b92915050565b600081359050612737816133d9565b92915050565b60008135905061274c816133f0565b92915050565b60008135905061276181613407565b92915050565b60008151905061277681613407565b92915050565b60006020828403121561279257612791613195565b5b60006127a0848285016126e9565b91505092915050565b6000602082840312156127bf576127be613195565b5b60006127cd848285016126fe565b91505092915050565b600080604083850312156127ed576127ec613195565b5b60006127fb858286016126e9565b925050602061280c858286016126e9565b9150509250929050565b60006020828403121561282c5761282b613195565b5b600061283a84828501612713565b91505092915050565b60006020828403121561285957612858613195565b5b600061286784828501612728565b91505092915050565b6000806040838503121561288757612886613195565b5b600061289585828601612728565b92505060206128a6858286016126e9565b9150509250929050565b6000602082840312156128c6576128c5613195565b5b60006128d48482850161273d565b91505092915050565b6000602082840312156128f3576128f2613195565b5b600061290184828501612767565b91505092915050565b6000806000806080858703121561292457612923613195565b5b600061293287828801612752565b945050602061294387828801612752565b935050604061295487828801612752565b925050606061296587828801612752565b91505092959194509250565b61297a81612fc7565b82525050565b61298981612fd9565b82525050565b61299881612fe5565b82525050565b6129a781613058565b82525050565b6129b68161306a565b82525050565b60006129c782612ebc565b6129d18185612ec7565b93506129e181856020860161307c565b6129ea8161319a565b840191505092915050565b6000612a0082612ebc565b612a0a8185612ed8565b9350612a1a81856020860161307c565b80840191505092915050565b6000612a33602083612ec7565b9150612a3e826131ab565b602082019050919050565b6000612a56600b83612ec7565b9150612a61826131d4565b602082019050919050565b6000612a79600983612ec7565b9150612a84826131fd565b602082019050919050565b6000612a9c600b83612ec7565b9150612aa782613226565b602082019050919050565b6000612abf600f83612ec7565b9150612aca8261324f565b602082019050919050565b6000612ae2600783612ec7565b9150612aed82613278565b602082019050919050565b6000612b05600083612ec7565b9150612b10826132a1565b600082019050919050565b6000612b28601783612ed8565b9150612b33826132a4565b601782019050919050565b6000612b4b600783612ec7565b9150612b56826132cd565b602082019050919050565b6000612b6e600683612ec7565b9150612b79826132f6565b602082019050919050565b6000612b91601183612ed8565b9150612b9c8261331f565b601182019050919050565b6000612bb4602f83612ec7565b9150612bbf82613348565b604082019050919050565b612bd38161304e565b82525050565b6000612be482612b1b565b9150612bf082856129f5565b9150612bfb82612b84565b9150612c0782846129f5565b91508190509392505050565b6000602082019050612c286000830184612971565b92915050565b6000604082019050612c436000830185612971565b612c5060208301846129ad565b9392505050565b6000604082019050612c6c6000830185612971565b612c796020830184612bca565b9392505050565b6000602082019050612c956000830184612980565b92915050565b6000602082019050612cb0600083018461298f565b92915050565b6000604082019050612ccb600083018561298f565b612cd86020830184612971565b9392505050565b6000602082019050612cf4600083018461299e565b92915050565b60006020820190508181036000830152612d1481846129bc565b905092915050565b60006020820190508181036000830152612d3581612a26565b9050919050565b60006020820190508181036000830152612d5581612a49565b9050919050565b60006020820190508181036000830152612d7581612a6c565b9050919050565b60006020820190508181036000830152612d9581612a8f565b9050919050565b60006020820190508181036000830152612db581612ab2565b9050919050565b60006020820190508181036000830152612dd581612ad5565b9050919050565b60006020820190508181036000830152612df581612af8565b9050919050565b60006020820190508181036000830152612e1581612b3e565b9050919050565b60006020820190508181036000830152612e3581612b61565b9050919050565b60006020820190508181036000830152612e5581612ba7565b9050919050565b6000602082019050612e716000830184612bca565b92915050565b6000608082019050612e8c6000830187612bca565b612e996020830186612bca565b612ea66040830185612bca565b612eb36060830184612bca565b95945050505050565b600081519050919050565b600082825260208201905092915050565b600081905092915050565b6000612eee8261304e565b9150612ef98361304e565b9250827fffffffffffffffffffffffffffffffffffffffffffffffffffffffffffffffff03821115612f2e57612f2d6130d9565b5b828201905092915050565b6000612f448261304e565b9150612f4f8361304e565b9250817fffffffffffffffffffffffffffffffffffffffffffffffffffffffffffffffff0483118215151615612f8857612f876130d9565b5b828202905092915050565b6000612f9e8261304e565b9150612fa98361304e565b925082821015612fbc57612fbb6130d9565b5b828203905092915050565b6000612fd28261302e565b9050919050565b60008115159050919050565b6000819050919050565b60007fffffffff0000000000000000000000000000000000000000000000000000000082169050919050565b600081905061302982613397565b919050565b600073ffffffffffffffffffffffffffffffffffffffff82169050919050565b6000819050919050565b60006130638261301b565b9050919050565b60006130758261304e565b9050919050565b60005b8381101561309a57808201518184015260208101905061307f565b838111156130a9576000848401525b50505050565b60006130ba8261304e565b915060008214156130ce576130cd6130d9565b5b600182039050919050565b7f4e487b7100000000000000000000000000000000000000000000000000000000600052601160045260246000fd5b7f4e487b7100000000000000000000000000000000000000000000000000000000600052602160045260246000fd5b7f4e487b7100000000000000000000000000000000000000000000000000000000600052603260045260246000fd5b7f4e487b7100000000000000000000000000000000000000000000000000000000600052604160045260246000fd5b600080fd5b6000601f19601f8301169050919050565b7f537472696e67733a20686578206c656e67746820696e73756666696369656e74600082015250565b7f4e4f545f4d414e41474552000000000000000000000000000000000000000000600082015250565b7f4d41585f434c41494d0000000000000000000000000000000000000000000000600082015250565b7f4e4f545f414c4c4f574544000000000000000000000000000000000000000000600082015250565b7f4e4f545f42454e45464943494152590000000000000000000000000000000000600082015250565b7f52454d4f56454400000000000000000000000000000000000000000000000000600082015250565b50565b7f416363657373436f6e74726f6c3a206163636f756e7420000000000000000000600082015250565b7f4e4f545f59455400000000000000000000000000000000000000000000000000600082015250565b7f4c4f434b45440000000000000000000000000000000000000000000000000000600082015250565b7f206973206d697373696e6720726f6c6520000000000000000000000000000000600082015250565b7f416363657373436f6e74726f6c3a2063616e206f6e6c792072656e6f756e636560008201527f20726f6c657320666f722073656c660000000000000000000000000000000000602082015250565b600481106133a8576133a7613108565b5b50565b6133b481612fc7565b81146133bf57600080fd5b50565b6133cb81612fd9565b81146133d657600080fd5b50565b6133e281612fe5565b81146133ed57600080fd5b50565b6133f981612fef565b811461340457600080fd5b50565b6134108161304e565b811461341b57600080fd5b5056fea264697066735822122047f5bb6d95c605b724197685195dfece87201d9062f463be88f0fe47c0e5a23f64736f6c63430008050033a2646970667358221220b4bf88c8ce410d2b67a608b70cb47e795a1cc3a7ae210a43c98bd47f66a97c9564736f6c63430008050033",
  "devdoc": {
    "kind": "dev",
    "methods": {
      "deployCommunity(address,uint256,uint256,uint256,uint256,address)": {
        "details": "Add a new community. Can be used only by an admin. For further information regarding each parameter, see *Community* smart contract constructor."
      }
    },
    "version": 1
  },
  "userdoc": {
    "kind": "user",
    "methods": {},
    "notice": "Welcome to CommunityFactory",
    "version": 1
  },
  "storageLayout": {
    "storage": [
      {
        "astId": 5219,
        "contract": "contracts/community/CommunityFactory.sol:CommunityFactory",
        "label": "cUSDAddress",
        "offset": 0,
        "slot": "0",
        "type": "t_address"
      },
      {
        "astId": 5221,
        "contract": "contracts/community/CommunityFactory.sol:CommunityFactory",
        "label": "communityAdminAddress",
        "offset": 0,
        "slot": "1",
        "type": "t_address"
      }
    ],
    "types": {
      "t_address": {
        "encoding": "inplace",
        "label": "address",
        "numberOfBytes": "20"
      }
    }
  }
}