{
  "address": "0x83dC280E0F4F6e26075FC6eBC1188C5036e8BC08",
  "abi": [
    {
      "anonymous": false,
      "inputs": [
        {
          "indexed": true,
          "internalType": "address",
          "name": "manager",
          "type": "address"
        },
        {
          "indexed": true,
          "internalType": "address",
          "name": "beneficiary",
          "type": "address"
        }
      ],
      "name": "BeneficiaryAdded",
      "type": "event"
    },
    {
      "anonymous": false,
      "inputs": [
        {
          "indexed": true,
          "internalType": "address",
          "name": "beneficiary",
          "type": "address"
        },
        {
          "indexed": false,
          "internalType": "uint256",
          "name": "amount",
          "type": "uint256"
        }
      ],
      "name": "BeneficiaryClaim",
      "type": "event"
    },
    {
      "anonymous": false,
      "inputs": [
        {
          "indexed": true,
          "internalType": "address",
          "name": "beneficiary",
          "type": "address"
        }
      ],
      "name": "BeneficiaryJoined",
      "type": "event"
    },
    {
      "anonymous": false,
      "inputs": [
        {
          "indexed": true,
          "internalType": "address",
          "name": "manager",
          "type": "address"
        },
        {
          "indexed": true,
          "internalType": "address",
          "name": "beneficiary",
          "type": "address"
        }
      ],
      "name": "BeneficiaryLocked",
      "type": "event"
    },
    {
      "anonymous": false,
      "inputs": [
        {
          "indexed": false,
          "internalType": "uint256",
          "name": "oldClaimAmount",
          "type": "uint256"
        },
        {
          "indexed": false,
          "internalType": "uint256",
          "name": "oldMaxClaim",
          "type": "uint256"
        },
        {
          "indexed": false,
          "internalType": "uint256",
          "name": "oldDecreaseStep",
          "type": "uint256"
        },
        {
          "indexed": false,
          "internalType": "uint256",
          "name": "oldBaseInterval",
          "type": "uint256"
        },
        {
          "indexed": false,
          "internalType": "uint256",
          "name": "oldIncrementInterval",
          "type": "uint256"
        },
        {
          "indexed": false,
          "internalType": "uint256",
          "name": "newClaimAmount",
          "type": "uint256"
        },
        {
          "indexed": false,
          "internalType": "uint256",
          "name": "newMaxClaim",
          "type": "uint256"
        },
        {
          "indexed": false,
          "internalType": "uint256",
          "name": "newDecreaseStep",
          "type": "uint256"
        },
        {
          "indexed": false,
          "internalType": "uint256",
          "name": "newBaseInterval",
          "type": "uint256"
        },
        {
          "indexed": false,
          "internalType": "uint256",
          "name": "newIncrementInterval",
          "type": "uint256"
        }
      ],
      "name": "BeneficiaryParamsUpdated",
      "type": "event"
    },
    {
      "anonymous": false,
      "inputs": [
        {
          "indexed": true,
          "internalType": "address",
          "name": "manager",
          "type": "address"
        },
        {
          "indexed": true,
          "internalType": "address",
          "name": "beneficiary",
          "type": "address"
        }
      ],
      "name": "BeneficiaryRemoved",
      "type": "event"
    },
    {
      "anonymous": false,
      "inputs": [
        {
          "indexed": true,
          "internalType": "address",
          "name": "manager",
          "type": "address"
        },
        {
          "indexed": true,
          "internalType": "address",
          "name": "beneficiary",
          "type": "address"
        }
      ],
      "name": "BeneficiaryUnlocked",
      "type": "event"
    },
    {
      "anonymous": false,
      "inputs": [
        {
          "indexed": true,
          "internalType": "address",
          "name": "oldCommunityAdmin",
          "type": "address"
        },
        {
          "indexed": true,
          "internalType": "address",
          "name": "newCommunityAdmin",
          "type": "address"
        }
      ],
      "name": "CommunityAdminUpdated",
      "type": "event"
    },
    {
      "anonymous": false,
      "inputs": [
        {
          "indexed": true,
          "internalType": "address",
          "name": "manager",
          "type": "address"
        }
      ],
      "name": "CommunityLocked",
      "type": "event"
    },
    {
      "anonymous": false,
      "inputs": [
        {
          "indexed": false,
          "internalType": "uint256",
          "name": "oldMinTranche",
          "type": "uint256"
        },
        {
          "indexed": false,
          "internalType": "uint256",
          "name": "oldMaxTranche",
          "type": "uint256"
        },
        {
          "indexed": false,
          "internalType": "uint256",
          "name": "newMinTranche",
          "type": "uint256"
        },
        {
          "indexed": false,
          "internalType": "uint256",
          "name": "newMaxTranche",
          "type": "uint256"
        }
      ],
      "name": "CommunityParamsUpdated",
      "type": "event"
    },
    {
      "anonymous": false,
      "inputs": [
        {
          "indexed": true,
          "internalType": "address",
          "name": "manager",
          "type": "address"
        }
      ],
      "name": "CommunityUnlocked",
      "type": "event"
    },
    {
      "anonymous": false,
      "inputs": [
        {
          "indexed": true,
          "internalType": "address",
          "name": "donor",
          "type": "address"
        },
        {
          "indexed": false,
          "internalType": "uint256",
          "name": "amount",
          "type": "uint256"
        }
      ],
      "name": "Donate",
      "type": "event"
    },
    {
      "anonymous": false,
      "inputs": [
        {
          "indexed": true,
          "internalType": "address",
          "name": "manager",
          "type": "address"
        }
      ],
      "name": "FundsRequested",
      "type": "event"
    },
    {
      "anonymous": false,
      "inputs": [
        {
          "indexed": true,
          "internalType": "address",
          "name": "manager",
          "type": "address"
        },
        {
          "indexed": true,
          "internalType": "address",
          "name": "account",
          "type": "address"
        }
      ],
      "name": "ManagerAdded",
      "type": "event"
    },
    {
      "anonymous": false,
      "inputs": [
        {
          "indexed": true,
          "internalType": "address",
          "name": "manager",
          "type": "address"
        },
        {
          "indexed": true,
          "internalType": "address",
          "name": "account",
          "type": "address"
        }
      ],
      "name": "ManagerRemoved",
      "type": "event"
    },
    {
      "anonymous": false,
      "inputs": [
        {
          "indexed": true,
          "internalType": "address",
          "name": "previousOwner",
          "type": "address"
        },
        {
          "indexed": true,
          "internalType": "address",
          "name": "newOwner",
          "type": "address"
        }
      ],
      "name": "OwnershipTransferred",
      "type": "event"
    },
    {
      "anonymous": false,
      "inputs": [
        {
          "indexed": true,
          "internalType": "address",
          "name": "oldPreviousCommunity",
          "type": "address"
        },
        {
          "indexed": true,
          "internalType": "address",
          "name": "newPreviousCommunity",
          "type": "address"
        }
      ],
      "name": "PreviousCommunityUpdated",
      "type": "event"
    },
    {
      "anonymous": false,
      "inputs": [
        {
          "indexed": true,
          "internalType": "bytes32",
          "name": "role",
          "type": "bytes32"
        },
        {
          "indexed": true,
          "internalType": "bytes32",
          "name": "previousAdminRole",
          "type": "bytes32"
        },
        {
          "indexed": true,
          "internalType": "bytes32",
          "name": "newAdminRole",
          "type": "bytes32"
        }
      ],
      "name": "RoleAdminChanged",
      "type": "event"
    },
    {
      "anonymous": false,
      "inputs": [
        {
          "indexed": true,
          "internalType": "bytes32",
          "name": "role",
          "type": "bytes32"
        },
        {
          "indexed": true,
          "internalType": "address",
          "name": "account",
          "type": "address"
        },
        {
          "indexed": true,
          "internalType": "address",
          "name": "sender",
          "type": "address"
        }
      ],
      "name": "RoleGranted",
      "type": "event"
    },
    {
      "anonymous": false,
      "inputs": [
        {
          "indexed": true,
          "internalType": "bytes32",
          "name": "role",
          "type": "bytes32"
        },
        {
          "indexed": true,
          "internalType": "address",
          "name": "account",
          "type": "address"
        },
        {
          "indexed": true,
          "internalType": "address",
          "name": "sender",
          "type": "address"
        }
      ],
      "name": "RoleRevoked",
      "type": "event"
    },
    {
      "anonymous": false,
      "inputs": [
        {
          "indexed": true,
          "internalType": "address",
          "name": "token",
          "type": "address"
        },
        {
          "indexed": true,
          "internalType": "address",
          "name": "to",
          "type": "address"
        },
        {
          "indexed": false,
          "internalType": "uint256",
          "name": "amount",
          "type": "uint256"
        }
      ],
      "name": "TransferERC20",
      "type": "event"
    },
    {
      "inputs": [],
      "name": "DEFAULT_ADMIN_ROLE",
      "outputs": [
        {
          "internalType": "bytes32",
          "name": "",
          "type": "bytes32"
        }
      ],
      "stateMutability": "view",
      "type": "function"
    },
    {
      "inputs": [],
      "name": "_firstBlockTimestamp",
      "outputs": [
        {
          "internalType": "uint256",
          "name": "",
          "type": "uint256"
        }
      ],
      "stateMutability": "view",
      "type": "function"
    },
    {
      "inputs": [
        {
          "internalType": "address",
          "name": "_beneficiaryAddress",
          "type": "address"
        }
      ],
      "name": "addBeneficiary",
      "outputs": [],
      "stateMutability": "nonpayable",
      "type": "function"
    },
    {
      "inputs": [
        {
          "internalType": "address",
          "name": "_account",
          "type": "address"
        }
      ],
      "name": "addManager",
      "outputs": [],
      "stateMutability": "nonpayable",
      "type": "function"
    },
    {
      "inputs": [
        {
          "internalType": "uint256",
          "name": "_amount",
          "type": "uint256"
        }
      ],
      "name": "addTreasuryFunds",
      "outputs": [],
      "stateMutability": "nonpayable",
      "type": "function"
    },
    {
      "inputs": [],
      "name": "baseInterval",
      "outputs": [
        {
          "internalType": "uint256",
          "name": "",
          "type": "uint256"
        }
      ],
      "stateMutability": "view",
      "type": "function"
    },
    {
      "inputs": [
        {
          "internalType": "address",
          "name": "",
          "type": "address"
        }
      ],
      "name": "beneficiaries",
      "outputs": [
        {
          "internalType": "enum ICommunity.BeneficiaryState",
          "name": "state",
          "type": "uint8"
        },
        {
          "internalType": "uint256",
          "name": "claims",
          "type": "uint256"
        },
        {
          "internalType": "uint256",
          "name": "claimedAmount",
          "type": "uint256"
        },
        {
          "internalType": "uint256",
          "name": "lastClaim",
          "type": "uint256"
        }
      ],
      "stateMutability": "view",
      "type": "function"
    },
    {
      "inputs": [
        {
          "internalType": "address",
          "name": "_beneficiaryAddress",
          "type": "address"
        }
      ],
      "name": "beneficiaryJoinFromMigrated",
      "outputs": [],
      "stateMutability": "nonpayable",
      "type": "function"
    },
    {
      "inputs": [
        {
          "internalType": "uint256",
          "name": "index_",
          "type": "uint256"
        }
      ],
      "name": "beneficiaryListAt",
      "outputs": [
        {
          "internalType": "address",
          "name": "",
          "type": "address"
        }
      ],
      "stateMutability": "view",
      "type": "function"
    },
    {
      "inputs": [],
      "name": "beneficiaryListLength",
      "outputs": [
        {
          "internalType": "uint256",
          "name": "",
          "type": "uint256"
        }
      ],
      "stateMutability": "view",
      "type": "function"
    },
    {
      "inputs": [],
      "name": "cUSD",
      "outputs": [
        {
          "internalType": "contract IERC20",
          "name": "",
          "type": "address"
        }
      ],
      "stateMutability": "view",
      "type": "function"
    },
    {
      "inputs": [],
      "name": "claim",
      "outputs": [],
      "stateMutability": "nonpayable",
      "type": "function"
    },
    {
      "inputs": [],
      "name": "claimAmount",
      "outputs": [
        {
          "internalType": "uint256",
          "name": "",
          "type": "uint256"
        }
      ],
      "stateMutability": "view",
      "type": "function"
    },
    {
      "inputs": [
        {
          "internalType": "address",
          "name": "_beneficiaryAddress",
          "type": "address"
        }
      ],
      "name": "claimCooldown",
      "outputs": [
        {
          "internalType": "uint256",
          "name": "",
          "type": "uint256"
        }
      ],
      "stateMutability": "view",
      "type": "function"
    },
    {
      "inputs": [],
      "name": "communityAdmin",
      "outputs": [
        {
          "internalType": "contract ICommunityAdmin",
          "name": "",
          "type": "address"
        }
      ],
      "stateMutability": "view",
      "type": "function"
    },
    {
      "inputs": [],
      "name": "decreaseStep",
      "outputs": [
        {
          "internalType": "uint256",
          "name": "",
          "type": "uint256"
        }
      ],
      "stateMutability": "view",
      "type": "function"
    },
    {
      "inputs": [
        {
          "internalType": "address",
          "name": "_sender",
          "type": "address"
        },
        {
          "internalType": "uint256",
          "name": "_amount",
          "type": "uint256"
        }
      ],
      "name": "donate",
      "outputs": [],
      "stateMutability": "nonpayable",
      "type": "function"
    },
    {
      "inputs": [],
      "name": "getInitialMaxClaim",
      "outputs": [
        {
          "internalType": "uint256",
          "name": "",
          "type": "uint256"
        }
      ],
      "stateMutability": "view",
      "type": "function"
    },
    {
      "inputs": [
        {
          "internalType": "bytes32",
          "name": "role",
          "type": "bytes32"
        }
      ],
      "name": "getRoleAdmin",
      "outputs": [
        {
          "internalType": "bytes32",
          "name": "",
          "type": "bytes32"
        }
      ],
      "stateMutability": "view",
      "type": "function"
    },
    {
      "inputs": [],
      "name": "getVersion",
      "outputs": [
        {
          "internalType": "uint256",
          "name": "",
          "type": "uint256"
        }
      ],
      "stateMutability": "pure",
      "type": "function"
    },
    {
      "inputs": [
        {
          "internalType": "bytes32",
          "name": "",
          "type": "bytes32"
        },
        {
          "internalType": "address",
          "name": "",
          "type": "address"
        }
      ],
      "name": "grantRole",
      "outputs": [],
      "stateMutability": "pure",
      "type": "function"
    },
    {
      "inputs": [
        {
          "internalType": "bytes32",
          "name": "role",
          "type": "bytes32"
        },
        {
          "internalType": "address",
          "name": "account",
          "type": "address"
        }
      ],
      "name": "hasRole",
      "outputs": [
        {
          "internalType": "bool",
          "name": "",
          "type": "bool"
        }
      ],
      "stateMutability": "view",
      "type": "function"
    },
    {
      "inputs": [],
      "name": "impactMarketAddress",
      "outputs": [
        {
          "internalType": "address",
          "name": "",
          "type": "address"
        }
      ],
      "stateMutability": "pure",
      "type": "function"
    },
    {
      "inputs": [],
      "name": "incrementInterval",
      "outputs": [
        {
          "internalType": "uint256",
          "name": "",
          "type": "uint256"
        }
      ],
      "stateMutability": "view",
      "type": "function"
    },
    {
      "inputs": [
        {
          "internalType": "address[]",
          "name": "_managers",
          "type": "address[]"
        },
        {
          "internalType": "uint256",
          "name": "_claimAmount",
          "type": "uint256"
        },
        {
          "internalType": "uint256",
          "name": "_maxClaim",
          "type": "uint256"
        },
        {
          "internalType": "uint256",
          "name": "_decreaseStep",
          "type": "uint256"
        },
        {
          "internalType": "uint256",
          "name": "_baseInterval",
          "type": "uint256"
        },
        {
          "internalType": "uint256",
          "name": "_incrementInterval",
          "type": "uint256"
        },
        {
          "internalType": "uint256",
          "name": "_minTranche",
          "type": "uint256"
        },
        {
          "internalType": "uint256",
          "name": "_maxTranche",
          "type": "uint256"
        },
        {
          "internalType": "contract ICommunity",
          "name": "_previousCommunity",
          "type": "address"
        }
      ],
      "name": "initialize",
      "outputs": [],
      "stateMutability": "nonpayable",
      "type": "function"
    },
    {
      "inputs": [],
      "name": "lastFundRequest",
      "outputs": [
        {
          "internalType": "uint256",
          "name": "",
          "type": "uint256"
        }
      ],
      "stateMutability": "view",
      "type": "function"
    },
    {
      "inputs": [
        {
          "internalType": "address",
          "name": "_beneficiaryAddress",
          "type": "address"
        }
      ],
      "name": "lastInterval",
      "outputs": [
        {
          "internalType": "uint256",
          "name": "",
          "type": "uint256"
        }
      ],
      "stateMutability": "view",
      "type": "function"
    },
    {
      "inputs": [],
      "name": "lock",
      "outputs": [],
      "stateMutability": "nonpayable",
      "type": "function"
    },
    {
      "inputs": [
        {
          "internalType": "address",
          "name": "_beneficiaryAddress",
          "type": "address"
        }
      ],
      "name": "lockBeneficiary",
      "outputs": [],
      "stateMutability": "nonpayable",
      "type": "function"
    },
    {
      "inputs": [],
      "name": "locked",
      "outputs": [
        {
          "internalType": "bool",
          "name": "",
          "type": "bool"
        }
      ],
      "stateMutability": "view",
      "type": "function"
    },
    {
      "inputs": [],
      "name": "maxClaim",
      "outputs": [
        {
          "internalType": "uint256",
          "name": "",
          "type": "uint256"
        }
      ],
      "stateMutability": "view",
      "type": "function"
    },
    {
      "inputs": [],
      "name": "maxTranche",
      "outputs": [
        {
          "internalType": "uint256",
          "name": "",
          "type": "uint256"
        }
      ],
      "stateMutability": "view",
      "type": "function"
    },
    {
      "inputs": [],
      "name": "minTranche",
      "outputs": [
        {
          "internalType": "uint256",
          "name": "",
          "type": "uint256"
        }
      ],
      "stateMutability": "view",
      "type": "function"
    },
    {
      "inputs": [],
      "name": "owner",
      "outputs": [
        {
          "internalType": "address",
          "name": "",
          "type": "address"
        }
      ],
      "stateMutability": "view",
      "type": "function"
    },
    {
      "inputs": [],
      "name": "previousCommunity",
      "outputs": [
        {
          "internalType": "contract ICommunity",
          "name": "",
          "type": "address"
        }
      ],
      "stateMutability": "view",
      "type": "function"
    },
    {
      "inputs": [],
      "name": "privateFunds",
      "outputs": [
        {
          "internalType": "uint256",
          "name": "",
          "type": "uint256"
        }
      ],
      "stateMutability": "view",
      "type": "function"
    },
    {
      "inputs": [
        {
          "internalType": "address",
          "name": "_beneficiaryAddress",
          "type": "address"
        }
      ],
      "name": "removeBeneficiary",
      "outputs": [],
      "stateMutability": "nonpayable",
      "type": "function"
    },
    {
      "inputs": [
        {
          "internalType": "address",
          "name": "_account",
          "type": "address"
        }
      ],
      "name": "removeManager",
      "outputs": [],
      "stateMutability": "nonpayable",
      "type": "function"
    },
    {
      "inputs": [],
      "name": "renounceOwnership",
      "outputs": [],
      "stateMutability": "nonpayable",
      "type": "function"
    },
    {
      "inputs": [
        {
          "internalType": "bytes32",
          "name": "role",
          "type": "bytes32"
        },
        {
          "internalType": "address",
          "name": "account",
          "type": "address"
        }
      ],
      "name": "renounceRole",
      "outputs": [],
      "stateMutability": "nonpayable",
      "type": "function"
    },
    {
      "inputs": [],
      "name": "requestFunds",
      "outputs": [],
      "stateMutability": "nonpayable",
      "type": "function"
    },
    {
      "inputs": [
        {
          "internalType": "bytes32",
          "name": "",
          "type": "bytes32"
        },
        {
          "internalType": "address",
          "name": "",
          "type": "address"
        }
      ],
      "name": "revokeRole",
      "outputs": [],
      "stateMutability": "pure",
      "type": "function"
    },
    {
      "inputs": [
        {
          "internalType": "bytes4",
          "name": "interfaceId",
          "type": "bytes4"
        }
      ],
      "name": "supportsInterface",
      "outputs": [
        {
          "internalType": "bool",
          "name": "",
          "type": "bool"
        }
      ],
      "stateMutability": "view",
      "type": "function"
    },
    {
      "inputs": [
        {
          "internalType": "contract IERC20",
          "name": "_token",
          "type": "address"
        },
        {
          "internalType": "address",
          "name": "_to",
          "type": "address"
        },
        {
          "internalType": "uint256",
          "name": "_amount",
          "type": "uint256"
        }
      ],
      "name": "transfer",
      "outputs": [],
      "stateMutability": "nonpayable",
      "type": "function"
    },
    {
      "inputs": [
        {
          "internalType": "address",
          "name": "newOwner",
          "type": "address"
        }
      ],
      "name": "transferOwnership",
      "outputs": [],
      "stateMutability": "nonpayable",
      "type": "function"
    },
    {
      "inputs": [],
      "name": "treasuryFunds",
      "outputs": [
        {
          "internalType": "uint256",
          "name": "",
          "type": "uint256"
        }
      ],
      "stateMutability": "view",
      "type": "function"
    },
    {
      "inputs": [],
      "name": "unlock",
      "outputs": [],
      "stateMutability": "nonpayable",
      "type": "function"
    },
    {
      "inputs": [
        {
          "internalType": "address",
          "name": "_beneficiaryAddress",
          "type": "address"
        }
      ],
      "name": "unlockBeneficiary",
      "outputs": [],
      "stateMutability": "nonpayable",
      "type": "function"
    },
    {
      "inputs": [
        {
          "internalType": "uint256",
          "name": "_claimAmount",
          "type": "uint256"
        },
        {
          "internalType": "uint256",
          "name": "_maxClaim",
          "type": "uint256"
        },
        {
          "internalType": "uint256",
          "name": "_decreaseStep",
          "type": "uint256"
        },
        {
          "internalType": "uint256",
          "name": "_baseInterval",
          "type": "uint256"
        },
        {
          "internalType": "uint256",
          "name": "_incrementInterval",
          "type": "uint256"
        }
      ],
      "name": "updateBeneficiaryParams",
      "outputs": [],
      "stateMutability": "nonpayable",
      "type": "function"
    },
    {
      "inputs": [
        {
          "internalType": "contract ICommunityAdmin",
          "name": "_newCommunityAdmin",
          "type": "address"
        }
      ],
      "name": "updateCommunityAdmin",
      "outputs": [],
      "stateMutability": "nonpayable",
      "type": "function"
    },
    {
      "inputs": [
        {
          "internalType": "uint256",
          "name": "_minTranche",
          "type": "uint256"
        },
        {
          "internalType": "uint256",
          "name": "_maxTranche",
          "type": "uint256"
        }
      ],
      "name": "updateCommunityParams",
      "outputs": [],
      "stateMutability": "nonpayable",
      "type": "function"
    },
    {
      "inputs": [
        {
          "internalType": "contract ICommunity",
          "name": "_newPreviousCommunity",
          "type": "address"
        }
      ],
      "name": "updatePreviousCommunity",
      "outputs": [],
      "stateMutability": "nonpayable",
      "type": "function"
    },
    {
      "inputs": [],
      "name": "validBeneficiaryCount",
      "outputs": [
        {
          "internalType": "uint256",
          "name": "",
          "type": "uint256"
        }
      ],
      "stateMutability": "view",
      "type": "function"
    }
  ],
  "transactionHash": "0x84fc6b9ff54ccfabae93ebe28bab4c898208085d97801510bbb1389988a0f138",
  "args": [],
  "numDeployments": 1,
  "solcInputHash": "9eb897b604538ee3c093b3f66f713a0d",
  "bytecode": "0x608060405234801561001057600080fd5b506135ae806100206000396000f3fe608060405234801561001057600080fd5b50600436106103275760003560e01c8063830953ab116101b8578063c041fdc511610104578063d547741f116100a2578063e69d849d1161007c578063e69d849d1461067a578063eb0376b11461068d578063f2fde38b14610695578063f83d08ba146106a857600080fd5b8063d547741f14610653578063d6dbd97214610666578063dd4414bb1461067057600080fd5b8063cf309012116100de578063cf30901214610617578063d10f510714610624578063d33d4ec614610637578063d4938db31461064a57600080fd5b8063c041fdc5146105f3578063c0e27b6b146105fa578063c51fab3c1461060d57600080fd5b8063a57e08ca11610171578063ac18de431161014b578063ac18de43146105b2578063b026ba57146105c5578063b809ee82146105cd578063beabacc8146105e057600080fd5b8063a57e08ca14610584578063a69df4b514610597578063a8f3e0631461059f57600080fd5b8063830953ab146105325780638da5cb5b1461053b57806391d148541461054c5780639c01a4011461055f5780639cecf57214610569578063a217fddf1461057c57600080fd5b806336568abe11610277578063597be18b11610230578063785393db1161020a578063785393db146104f157806378ba280f146105045780637e2959dc1461050c5780638278d4901461051f57600080fd5b8063597be18b146104cc5780635fac917a146104d5578063715018a6146104e957600080fd5b806336568abe1461046d5780633a578a0c14610480578063431a801a146104945780634e71d92d1461049e5780635926651d146104a657806359633a1c146104b957600080fd5b80631fccf672116102e45780632b271117116102be5780632b2711171461042a5780632d06177a146104345780632f2ff15d146104475780632fd791031461045a57600080fd5b80631fccf672146103df578063248a9ca3146103ff5780632a7eabf61461042257600080fd5b8063015677391461032c57806301ffc9a71461037f57806309c338c3146103a25780630d8e6e2c146103ba5780630e5b7c53146103c15780631912cdb4146103ca575b600080fd5b61036661033a366004612f6c565b61010960205260009081526040902080546001820154600283015460039093015460ff90921692909184565b6040516103769493929190613290565b60405180910390f35b61039261038d366004613158565b6106b0565b6040519015158152602001610376565b6103ac6101065481565b604051908152602001610376565b60026103ac565b6103ac60fd5481565b6103dd6103d8366004613219565b6106e7565b005b6103e761080d565b6040516001600160a01b039091168152602001610376565b6103ac61040d366004613111565b60009081526065602052604090206001015490565b6103ac610890565b6103ac6101055481565b6103dd610442366004612f6c565b6108d5565b6103dd610455366004613129565b6109e1565b6103dd61046836600461323a565b610a53565b6103dd61047b366004613129565b610c35565b610107546103e7906001600160a01b031681565b6103ac6101005481565b6103dd610caf565b6103dd6104b4366004612f6c565b610ee0565b6103dd6104c7366004612f6c565b611071565b6103ac60fe5481565b610108546103e7906001600160a01b031681565b6103dd6111b2565b6103e76104ff366004613111565b6111e8565b6103ac6111f6565b6103dd61051a366004612f6c565b611217565b6103dd61052d366004612fcf565b611294565b6103ac60fc5481565b6097546001600160a01b03166103e7565b61039261055a366004613129565b611603565b6103ac6101015481565b6103ac610577366004612f6c565b61162e565b6103ac600081565b6103dd610592366004612f6c565b611660565b6103dd611c40565b6103ac6105ad366004612f6c565b611d15565b6103dd6105c0366004612f6c565b611d72565b6103dd611f80565b6103dd6105db366004613111565b612072565b6103dd6105ee366004613180565b6120b7565b60006103e7565b6103dd610608366004612f6c565b612174565b6103ac6101035481565b60fb546103929060ff1681565b6103dd610632366004612f6c565b6122a8565b6103dd610645366004612f6c565b6123de565b6103ac60ff5481565b6103dd610661366004613129565b612477565b6103ac6101025481565b6103ac6101045481565b6103dd610688366004612fa4565b6124e5565b6103ac612582565b6103dd6106a3366004612f6c565b61258f565b6103dd612627565b60006001600160e01b03198216637965db0b60e01b14806106e157506301ffc9a760e01b6001600160e01b03198316145b92915050565b6097546001600160a01b0316331461071a5760405162461bcd60e51b815260040161071190613344565b60405180910390fd5b808211156107ab5760405162461bcd60e51b815260206004820152605260248201527f436f6d6d756e6974793a3a757064617465436f6d6d756e697479506172616d7360448201527f3a206d696e5472616e6368652073686f756c64206e6f742062652067726561746064820152716572207468616e206d61785472616e63686560701b608482015260a401610711565b61010480546101058054928590558390556040805182815260208101849052908101859052606081018490529091907fcd922a6f0ad842d84e08eb5df24c029b63c60167fb37cff24adf95c4832e32589060800160405180910390a150505050565b6101085460408051630fe67b3960e11b815290516000926001600160a01b031691631fccf672916004808301926020929190829003018186803b15801561085357600080fd5b505afa158015610867573d6000803e3d6000fd5b505050506040513d601f19601f8201168201806040525081019061088b9190612f88565b905090565b60004661a4ec14156108a55750635ea06a0590565b4661aef314156108b85750635f10925490565b4661aef314156108cb5750635ef3704190565b61088b43426134a2565b61010854604051636b0de23f60e01b81523060048201523360248201526001600160a01b0390911690636b0de23f9060440160206040518083038186803b15801561091f57600080fd5b505afa158015610933573d6000803e3d6000fd5b505050506040513d601f19601f8201168201806040525081019061095791906130f1565b6109735760405162461bcd60e51b815260040161071190613301565b61098b60008051602061355983398151915282611603565b6109de576109a7600080516020613559833981519152826126ff565b6040516001600160a01b0382169033907f05a4006f300442cf8b7fdb885f5ee958812020bffb5c5a8e655fde64e5f987ed90600090a35b50565b60405162461bcd60e51b815260206004820152603a60248201527f436f6d6d756e6974793a3a6772616e74526f6c653a20596f7520617265206e6f60448201527f7420616c6c6f7720746f207573652074686973206d6574686f640000000000006064820152608401610711565b5050565b6097546001600160a01b03163314610a7d5760405162461bcd60e51b815260040161071190613344565b808211610b065760405162461bcd60e51b815260206004820152604b60248201527f436f6d6d756e6974793a3a636f6e7374727563746f723a2062617365496e746560448201527f7276616c206d7573742062652067726561746572207468616e20696e6372656d60648201526a195b9d125b9d195c9d985b60aa1b608482015260a401610711565b848411610b855760405162461bcd60e51b815260206004820152604160248201527f436f6d6d756e6974793a3a636f6e7374727563746f723a206d6178436c61696d60448201527f206d7573742062652067726561746572207468616e20636c61696d416d6f756e6064820152601d60fa1b608482015260a401610711565b60fc805460ff8054610103805460fd805460fe8054988e9055958c9055928a9055889055928690556040805185815260208101849052908101849052606081018290526080810186905260a081018b905260c081018a905260e0810189905261010081018890526101208101879052939491939091907fa19f450cd68c70f728b0c4b75befd202ea5ebb1ae78b6aca47365934b5008750906101400160405180910390a150505050505050505050565b6001600160a01b0381163314610ca55760405162461bcd60e51b815260206004820152602f60248201527f416363657373436f6e74726f6c3a2063616e206f6e6c792072656e6f756e636560448201526e103937b632b9903337b91039b2b63360891b6064820152608401610711565b610a4f8282612785565b6001336000908152610109602052604090205460ff166003811115610ce457634e487b7160e01b600052602160045260246000fd5b14610d315760405162461bcd60e51b815260206004820181905260248201527f436f6d6d756e6974793a204e4f545f56414c49445f42454e45464943494152596044820152606401610711565b600260c9541415610d545760405162461bcd60e51b815260040161071190613414565b600260c9553360009081526101096020526040902060fb5460ff1615610d8c5760405162461bcd60e51b8152600401610711906133f4565b43610d963361162e565b1115610de45760405162461bcd60e51b815260206004820152601960248201527f436f6d6d756e6974793a3a636c61696d3a204e4f545f594554000000000000006044820152606401610711565b60ff5460fc548260020154610df9919061344b565b1115610e475760405162461bcd60e51b815260206004820152601b60248201527f436f6d6d756e6974793a3a636c61696d3a204d41585f434c41494d00000000006044820152606401610711565b60fc54816002016000828254610e5d919061344b565b9091555050600181018054906000610e74836134fc565b909155505043600382015560fc54610ea0903390610e9061080d565b6001600160a01b031691906127ec565b60fc5460405190815233907fd54e03b214b3e8c17e98044f98554b6f1b18dd2a3163a2619afea7e9b2a6eb979060200160405180910390a250600160c955565b610ef860008051602061355983398151915233611603565b610f145760405162461bcd60e51b815260040161071190613379565b600260c9541415610f375760405162461bcd60e51b815260040161071190613414565b600260c95560fb5460ff1615610f5f5760405162461bcd60e51b8152600401610711906133f4565b6001600160a01b03811660009081526101096020526040812090815460ff166003811115610f9d57634e487b7160e01b600052602160045260246000fd5b146110005760405162461bcd60e51b815260206004820152602d60248201527f436f6d6d756e6974793a3a61646442656e65666963696172793a2042656e656660448201526c6963696172792065786973747360981b6064820152608401610711565b61100b816001612854565b43600382015561101d61010a83612a51565b506110328266b1a2bc2ec50000610e9061080d565b6040516001600160a01b0383169033907fbb39c36a7502b7256e1a687254146a9a2ea7b146c77cb9e40eb0e2b8793781e190600090a35050600160c955565b61108960008051602061355983398151915233611603565b6110a55760405162461bcd60e51b815260040161071190613379565b6001600160a01b0381166000908152610109602052604090206001815460ff1660038111156110e457634e487b7160e01b600052602160045260246000fd5b148061111357506002815460ff16600381111561111157634e487b7160e01b600052602160045260246000fd5b145b61116d5760405162461bcd60e51b815260206004820152602560248201527f436f6d6d756e6974793a3a72656d6f766542656e65666963696172793a204e4f6044820152641517d6515560da1b6064820152608401610711565b611178816003612854565b6040516001600160a01b0383169033907f1a6590bd0cabbfcc7c86bef99e1034054e179905cfcc294598fcd426c092244290600090a35050565b6097546001600160a01b031633146111dc5760405162461bcd60e51b815260040161071190613344565b6111e66000612a66565b565b60006106e161010a83612ab8565b6000610103546101005461120a9190613483565b60ff5461088b919061344b565b6097546001600160a01b031633146112415760405162461bcd60e51b815260040161071190613344565b61010780546001600160a01b038381166001600160a01b0319831681179093556040519116919082907f0d6a84e94da4b619dd0d993b5689ec82db4b1095da99ee0f3e7bb046c647e6ad90600090a35050565b600054610100900460ff166112af5760005460ff16156112b3565b303b155b6113165760405162461bcd60e51b815260206004820152602e60248201527f496e697469616c697a61626c653a20636f6e747261637420697320616c72656160448201526d191e481a5b9a5d1a585b1a5e995960921b6064820152608401610711565b600054610100900460ff16158015611338576000805461ffff19166101011790555b8486116113c05760405162461bcd60e51b815260206004820152604a60248201527f436f6d6d756e6974793a3a696e697469616c697a653a2062617365496e74657260448201527f76616c206d7573742062652067726561746572207468616e20696e6372656d656064820152691b9d125b9d195c9d985b60b21b608482015260a401610711565b888811611437576040805162461bcd60e51b81526020600482015260248101919091527f436f6d6d756e6974793a3a696e697469616c697a653a206d6178436c61696d2060448201527f6d7573742062652067726561746572207468616e20636c61696d416d6f756e746064820152608401610711565b828411156114bd5760405162461bcd60e51b815260206004820152604760248201527f436f6d6d756e6974793a3a696e697469616c697a653a206d696e5472616e636860448201527f652073686f756c64206e6f742062652067726561746572207468616e206d61786064820152665472616e63686560c81b608482015260a401610711565b6114c5612ac4565b6114cd612b03565b6114d5612b3a565b60fc89905560fd86905560fe85905560ff88905561010484905561010583905561010780546001600160a01b03199081166001600160a01b0385161790915561010880543392168217905561010388905560fb805460ff191690556115399061258f565b61155160008051602061355983398151915280612b69565b61156960008051602061355983398151915233612bb4565b604051339081907f05a4006f300442cf8b7fdb885f5ee958812020bffb5c5a8e655fde64e5f987ed90600090a360005b8a518110156115e4576115d28b82815181106115c557634e487b7160e01b600052603260045260246000fd5b60200260200101516108d5565b806115dc816134fc565b915050611599565b5080156115f7576000805461ff00191690555b50505050505050505050565b60009182526065602090815260408084206001600160a01b0393909316845291905290205460ff1690565b600061163982611d15565b6001600160a01b038316600090815261010960205260409020600301546106e1919061344b565b6001600160a01b03811660009081526101096020526040812090815460ff16600381111561169e57634e487b7160e01b600052602160045260246000fd5b146117115760405162461bcd60e51b815260206004820152603a60248201527f436f6d6d756e6974793a3a62656e65666963696172794a6f696e46726f6d4d6960448201527f6772617465643a2042656e6566696369617279206578697374730000000000006064820152608401610711565b610107546040805163c041fdc560e01b815290516000926001600160a01b03169163c041fdc5916004808301926020929190829003018186803b15801561175757600080fd5b505afa15801561176b573d6000803e3d6000fd5b505050506040513d601f19601f8201168201806040525081019061178f9190612f88565b6001600160a01b031614156118505761010754604051630156773960e01b81526001600160a01b038481166004830152600092839283928392169063015677399060240160806040518083038186803b1580156117eb57600080fd5b505afa1580156117ff573d6000803e3d6000fd5b505050506040513d601f19601f8201168201806040525081019061182391906131c0565b93509350935093506118358585612854565b60018501929092556003840191909155600283015550611bfb565b6101075460405163a8f3e06360e01b81526001600160a01b03848116600483015290911690600090829063a8f3e06390602401602060405180830381600087803b15801561189d57600080fd5b505af11580156118b1573d6000803e3d6000fd5b505050506040513d601f19601f820116820180604052508101906118d59190613201565b604051630156773960e01b81526001600160a01b03868116600483015291925061197e91859190851690630156773990602401602060405180830381600087803b15801561192257600080fd5b505af1158015611936573d6000803e3d6000fd5b505050506040513d601f19601f8201168201806040525081019061195a9190613201565b600381111561197957634e487b7160e01b600052602160045260246000fd5b612854565b604051635911706160e11b81526001600160a01b0385811660048301526000919084169063b222e0c290602401602060405180830381600087803b1580156119c557600080fd5b505af11580156119d9573d6000803e3d6000fd5b505050506040513d601f19601f820116820180604052508101906119fd9190613201565b9050611a07610890565b611a11908361344b565b8110611a49576005611a21610890565b611a2b84846134a2565b611a3591906134a2565b611a3f9190613463565b6003850155611a51565b600060038501555b60405163c884ef8360e01b81526001600160a01b03868116600483015284169063c884ef8390602401602060405180830381600087803b158015611a9457600080fd5b505af1158015611aa8573d6000803e3d6000fd5b505050506040513d601f19601f82011682018060405250810190611acc9190613201565b84600201819055506000836001600160a01b0316630e5b7c536040518163ffffffff1660e01b8152600401602060405180830381600087803b158015611b1157600080fd5b505af1158015611b25573d6000803e3d6000fd5b505050506040513d601f19601f82011682018060405250810190611b499190613201565b9050808310611bee57836001600160a01b031663597be18b6040518163ffffffff1660e01b8152600401602060405180830381600087803b158015611b8d57600080fd5b505af1158015611ba1573d6000803e3d6000fd5b505050506040513d601f19601f82011682018060405250810190611bc59190613201565b611bcf82856134a2565b611bd99190613463565b611be490600161344b565b6001860155611bf6565b600060018601555b505050505b611c0761010a83612a51565b506040516001600160a01b038316907f505fe088fef0d1fb451ccfed842b55a86af1ee6208502f4bc3327dcb9032082990600090a25050565b61010854604051636b0de23f60e01b81523060048201523360248201526001600160a01b0390911690636b0de23f9060440160206040518083038186803b158015611c8a57600080fd5b505afa158015611c9e573d6000803e3d6000fd5b505050506040513d601f19601f82011682018060405250810190611cc291906130f1565b611cde5760405162461bcd60e51b815260040161071190613301565b60fb805460ff1916905560405133907f4e50048c25972c85ad169c2302967f1e633e8dc6108d6aca51a90d2a59d4934d90600090a2565b6001600160a01b0381166000908152610109602052604081206001810154611d405750600092915050565b60fe5460018260010154611d5491906134a2565b611d5e9190613483565b60fd54611d6b919061344b565b9392505050565b61010854604051636b0de23f60e01b81523060048201523360248201526001600160a01b0390911690636b0de23f9060440160206040518083038186803b158015611dbc57600080fd5b505afa158015611dd0573d6000803e3d6000fd5b505050506040513d601f19601f82011682018060405250810190611df491906130f1565b611e105760405162461bcd60e51b815260040161071190613301565b611e2860008051602061355983398151915282611603565b611e9c576040805162461bcd60e51b81526020600482015260248101919091527f436f6d6d756e6974793a3a72656d6f76654d616e616765723a2054686973206160448201527f63636f756e7420646f65736e27742068617665206d616e6167657220726f6c656064820152608401610711565b610108546001600160a01b0382811691161415611f2f5760405162461bcd60e51b8152602060048201526044602482018190527f436f6d6d756e6974793a3a72656d6f76654d616e616765723a20596f75206172908201527f65206e6f7420616c6c6f7720746f2072656d6f766520636f6d6d756e697479416064820152633236b4b760e11b608482015260a401610711565b611f4760008051602061355983398151915282612785565b6040516001600160a01b0382169033907f3e902a6ee93dd5b2d48bd1009c7701a481be512b1ef73dbed2f95ea44c59ea8890600090a350565b611f9860008051602061355983398151915233611603565b611fb45760405162461bcd60e51b815260040161071190613379565b60fb5460ff1615611fd75760405162461bcd60e51b8152600401610711906133f4565b61010860009054906101000a90046001600160a01b03166001600160a01b031663174a71d76040518163ffffffff1660e01b8152600401600060405180830381600087803b15801561202857600080fd5b505af115801561203c573d6000803e3d6000fd5b50504361010655505060405133907f16a8b794d4e2ed6ffef50d78af3d4372ce4bfe8a399bfc23f59b7832ee47539090600090a2565b6097546001600160a01b0316331461209c5760405162461bcd60e51b815260040161071190613344565b8061010160008282546120af919061344b565b909155505050565b6097546001600160a01b031633146120e15760405162461bcd60e51b815260040161071190613344565b600260c95414156121045760405162461bcd60e51b815260040161071190613414565b600260c95561211d6001600160a01b03841683836127ec565b816001600160a01b0316836001600160a01b03167f9b035625e569d1d2bf54830a290aefba7ab11610ba8490871dc62b86b63a89568360405161216291815260200190565b60405180910390a35050600160c95550565b61218c60008051602061355983398151915233611603565b6121a85760405162461bcd60e51b815260040161071190613379565b60fb5460ff16156121cb5760405162461bcd60e51b8152600401610711906133f4565b6001600160a01b0381166000908152610109602052604090206001815460ff16600381111561220a57634e487b7160e01b600052602160045260246000fd5b146122635760405162461bcd60e51b815260206004820152602360248201527f436f6d6d756e6974793a3a6c6f636b42656e65666963696172793a204e4f545f60448201526216515560ea1b6064820152608401610711565b61226e816002612854565b6040516001600160a01b0383169033907f2b9ef93c7856b47a1b624fa3fcc4b651d388dd6d16327f3ad22b05f3da8b0f1590600090a35050565b6122c060008051602061355983398151915233611603565b6122dc5760405162461bcd60e51b815260040161071190613379565b60fb5460ff16156122ff5760405162461bcd60e51b8152600401610711906133f4565b6001600160a01b0381166000908152610109602052604090206002815460ff16600381111561233e57634e487b7160e01b600052602160045260246000fd5b146123995760405162461bcd60e51b815260206004820152602560248201527f436f6d6d756e6974793a3a756e6c6f636b42656e65666963696172793a204e4f6044820152641517d6515560da1b6064820152608401610711565b6123a4816001612854565b6040516001600160a01b0383169033907fa589fb4f2925123e7a030dd6bbe76be46a03f8ce0ea53a78dbb3383c7797db2c90600090a35050565b6097546001600160a01b031633146124085760405162461bcd60e51b815260040161071190613344565b61010880546001600160a01b038381166001600160a01b0319831681179093551690612433906108d5565b816001600160a01b0316816001600160a01b03167fdd8d3b7b0badfc5d636d48e71e28015b4b8554b64d2cffba6f0a90bf7693ec0060405160405180910390a35050565b60405162461bcd60e51b815260206004820152603b60248201527f436f6d6d756e6974793a3a7265766f6b65526f6c653a20596f7520617265206e60448201527f6f7420616c6c6f7720746f207573652074686973206d6574686f6400000000006064820152608401610711565b600260c95414156125085760405162461bcd60e51b815260040161071190613414565b600260c95561252c82308361251b61080d565b6001600160a01b0316929190612bbe565b80610102600082825461253f919061344b565b909155505060405181815233907f0553260a2e46b0577270d8992db02d30856ca880144c72d6e9503760946aef139060200160405180910390a25050600160c955565b600061088b61010a612bfc565b6097546001600160a01b031633146125b95760405162461bcd60e51b815260040161071190613344565b6001600160a01b03811661261e5760405162461bcd60e51b815260206004820152602660248201527f4f776e61626c653a206e6577206f776e657220697320746865207a65726f206160448201526564647265737360d01b6064820152608401610711565b6109de81612a66565b61010854604051636b0de23f60e01b81523060048201523360248201526001600160a01b0390911690636b0de23f9060440160206040518083038186803b15801561267157600080fd5b505afa158015612685573d6000803e3d6000fd5b505050506040513d601f19601f820116820180604052508101906126a991906130f1565b6126c55760405162461bcd60e51b815260040161071190613301565b60fb805460ff1916600117905560405133907fe1e6bc10311f2f958d6cd2d0ab7308c32089aa1acb8ab11a2ccb60028e332bd090600090a2565b6127098282611603565b610a4f5760008281526065602090815260408083206001600160a01b03851684529091529020805460ff191660011790556127413390565b6001600160a01b0316816001600160a01b0316837f2f8788117e7eff1d82e926ec794901d17c78024a50270940304540a733656f0d60405160405180910390a45050565b61278f8282611603565b15610a4f5760008281526065602090815260408083206001600160a01b0385168085529252808320805460ff1916905551339285917ff6391f5c32d9c69d2a47ea670b442974b53935d1edc7fd64eb21e047a839171b9190a45050565b6040516001600160a01b03831660248201526044810182905261284f90849063a9059cbb60e01b906064015b60408051601f198184030181529190526020810180516001600160e01b03166001600160e01b031990931692909217909152612c06565b505050565b80600381111561287457634e487b7160e01b600052602160045260246000fd5b825460ff16600381111561289857634e487b7160e01b600052602160045260246000fd5b14156128a2575050565b60018160038111156128c457634e487b7160e01b600052602160045260246000fd5b14156129bf5760fc546101035460ff546128de91906134a2565b10156129895760405162461bcd60e51b815260206004820152606860248201527f436f6d6d756e6974793a3a5f6368616e676542656e656669636961727953746160448201527f74653a205468697320636f6d6d756e697479206861732072656163686564207460648201527f6865206d6178696d756d206e756d626572206f662076616c69642062656e6566608482015267696369617269657360c01b60a482015260c401610711565b610100805490600061299a836134fc565b91905055506101035460ff60008282546129b491906134a2565b90915550612a1c9050565b6001825460ff1660038111156129e557634e487b7160e01b600052602160045260246000fd5b1415612a1c5761010080549060006129fc836134e5565b91905055506101035460ff6000828254612a16919061344b565b90915550505b81548190839060ff19166001836003811115612a4857634e487b7160e01b600052602160045260246000fd5b02179055505050565b6000611d6b836001600160a01b038416612cd8565b609780546001600160a01b038381166001600160a01b0319831681179093556040519116919082907f8be0079c531659141344cd1fd0a4f28419497f9722a3daafe3b4186f6b6457e090600090a35050565b6000611d6b8383612d27565b600054610100900460ff16612aeb5760405162461bcd60e51b8152600401610711906133a9565b612af3612d5f565b612afb612d5f565b6111e6612d5f565b600054610100900460ff16612b2a5760405162461bcd60e51b8152600401610711906133a9565b612b32612d5f565b6111e6612d86565b600054610100900460ff16612b615760405162461bcd60e51b8152600401610711906133a9565b6111e6612db6565b600082815260656020526040808220600101805490849055905190918391839186917fbd79b86ffe0ab8e8776151514217cd7cacd52c909f66475c3af44e129f0b00ff9190a4505050565b610a4f82826126ff565b6040516001600160a01b0380851660248301528316604482015260648101829052612bf69085906323b872dd60e01b90608401612818565b50505050565b60006106e1825490565b6000612c5b826040518060400160405280602081526020017f5361666545524332303a206c6f772d6c6576656c2063616c6c206661696c6564815250856001600160a01b0316612de49092919063ffffffff16565b80519091501561284f5780806020019051810190612c7991906130f1565b61284f5760405162461bcd60e51b815260206004820152602a60248201527f5361666545524332303a204552433230206f7065726174696f6e20646964206e6044820152691bdd081cdd58d8d9595960b21b6064820152608401610711565b6000818152600183016020526040812054612d1f575081546001818101845560008481526020808220909301849055845484825282860190935260409020919091556106e1565b5060006106e1565b6000826000018281548110612d4c57634e487b7160e01b600052603260045260246000fd5b9060005260206000200154905092915050565b600054610100900460ff166111e65760405162461bcd60e51b8152600401610711906133a9565b600054610100900460ff16612dad5760405162461bcd60e51b8152600401610711906133a9565b6111e633612a66565b600054610100900460ff16612ddd5760405162461bcd60e51b8152600401610711906133a9565b600160c955565b6060612df38484600085612dfb565b949350505050565b606082471015612e5c5760405162461bcd60e51b815260206004820152602660248201527f416464726573733a20696e73756666696369656e742062616c616e636520666f6044820152651c8818d85b1b60d21b6064820152608401610711565b843b612eaa5760405162461bcd60e51b815260206004820152601d60248201527f416464726573733a2063616c6c20746f206e6f6e2d636f6e74726163740000006044820152606401610711565b600080866001600160a01b03168587604051612ec69190613274565b60006040518083038185875af1925050503d8060008114612f03576040519150601f19603f3d011682016040523d82523d6000602084013e612f08565b606091505b5091509150612f18828286612f23565b979650505050505050565b60608315612f32575081611d6b565b825115612f425782518084602001fd5b8160405162461bcd60e51b815260040161071191906132ce565b8035612f6781613543565b919050565b600060208284031215612f7d578081fd5b8135611d6b81613543565b600060208284031215612f99578081fd5b8151611d6b81613543565b60008060408385031215612fb6578081fd5b8235612fc181613543565b946020939093013593505050565b60008060008060008060008060006101208a8c031215612fed578485fd5b67ffffffffffffffff808b351115613003578586fd5b8a358b018c601f820112613015578687fd5b8035828111156130275761302761352d565b604051601f19603f8360051b01168101818110858211171561304b5761304b61352d565b8060405250809350818152602081019350602083018f60208460051b860101111561307457898afd5b8993505b8284101561309e5761308981612f5c565b85526020948501946001949094019301613078565b509b5050505060208a0135975060408a0135965060608a0135955060808a0135945060a08a0135935060c08a0135925060e08a013591506130e26101008b01612f5c565b90509295985092959850929598565b600060208284031215613102578081fd5b81518015158114611d6b578182fd5b600060208284031215613122578081fd5b5035919050565b6000806040838503121561313b578182fd5b82359150602083013561314d81613543565b809150509250929050565b600060208284031215613169578081fd5b81356001600160e01b031981168114611d6b578182fd5b600080600060608486031215613194578283fd5b833561319f81613543565b925060208401356131af81613543565b929592945050506040919091013590565b600080600080608085870312156131d5578182fd5b8451600481106131e3578283fd5b60208601516040870151606090970151919890975090945092505050565b600060208284031215613212578081fd5b5051919050565b6000806040838503121561322b578182fd5b50508035926020909101359150565b600080600080600060a08688031215613251578283fd5b505083359560208501359550604085013594606081013594506080013592509050565b600082516132868184602087016134b9565b9190910192915050565b60808101600486106132b257634e487b7160e01b600052602160045260246000fd5b9481526020810193909352604083019190915260609091015290565b60208152600082518060208401526132ed8160408501602087016134b9565b601f01601f19169190910160400192915050565b60208082526023908201527f436f6d6d756e6974793a204e4f545f414d4241535341444f525f4f525f454e5460408201526249545960e81b606082015260800190565b6020808252818101527f4f776e61626c653a2063616c6c6572206973206e6f7420746865206f776e6572604082015260600190565b60208082526016908201527521b7b6b6bab734ba3c9d102727aa2fa6a0a720a3a2a960511b604082015260600190565b6020808252602b908201527f496e697469616c697a61626c653a20636f6e7472616374206973206e6f74206960408201526a6e697469616c697a696e6760a81b606082015260800190565b6020808252600690820152651313d0d2d15160d21b604082015260600190565b6020808252601f908201527f5265656e7472616e637947756172643a207265656e7472616e742063616c6c00604082015260600190565b6000821982111561345e5761345e613517565b500190565b60008261347e57634e487b7160e01b81526012600452602481fd5b500490565b600081600019048311821515161561349d5761349d613517565b500290565b6000828210156134b4576134b4613517565b500390565b60005b838110156134d45781810151838201526020016134bc565b83811115612bf65750506000910152565b6000816134f4576134f4613517565b506000190190565b600060001982141561351057613510613517565b5060010190565b634e487b7160e01b600052601160045260246000fd5b634e487b7160e01b600052604160045260246000fd5b6001600160a01b03811681146109de57600080fdfe241ecf16d79d0f8dbfb92cbc07fe17840425976cf0667f022fe9877caa831b08a26469706673582212204f76d40907aab4854b4cd579296867dd3b54e8d8ad01acef1e665ff866a9f5d664736f6c63430008040033",
  "devdoc": {
    "events": {
      "BeneficiaryAdded(address,address)": {
        "params": {
          "beneficiary": "Address of the beneficiary that has been added",
          "manager": "Address of the manager that triggered the event"
        }
      },
      "BeneficiaryClaim(address,uint256)": {
        "params": {
          "amount": "Amount of the claim",
          "beneficiary": "Address of the beneficiary that has claimed"
        }
      },
      "BeneficiaryJoined(address)": {
        "params": {
          "beneficiary": "Address of the beneficiary"
        }
      },
      "BeneficiaryLocked(address,address)": {
        "params": {
          "beneficiary": "Address of the beneficiary that has been locked",
          "manager": "Address of the manager that triggered the event"
        }
      },
      "BeneficiaryParamsUpdated(uint256,uint256,uint256,uint256,uint256,uint256,uint256,uint256,uint256,uint256)": {
        "params": {
          "newBaseInterval": "New baseInterval value",
          "newClaimAmount": "New claimAmount value",
          "newDecreaseStep": "New decreaseStep value",
          "newIncrementInterval": "New incrementInterval value For further information regarding each parameter, see *Community* smart contract initialize method.",
          "newMaxClaim": "New maxClaim value",
          "oldBaseInterval": "Old baseInterval value",
          "oldClaimAmount": "Old claimAmount value",
          "oldDecreaseStep": "Old decreaseStep value",
          "oldIncrementInterval": "Old incrementInterval value",
          "oldMaxClaim": "Old maxClaim value"
        }
      },
      "BeneficiaryRemoved(address,address)": {
        "params": {
          "beneficiary": "Address of the beneficiary that has been removed",
          "manager": "Address of the manager that triggered the event"
        }
      },
      "BeneficiaryUnlocked(address,address)": {
        "params": {
          "beneficiary": "Address of the beneficiary that has been unlocked",
          "manager": "Address of the manager that triggered the event"
        }
      },
      "CommunityAdminUpdated(address,address)": {
        "params": {
          "newCommunityAdmin": "New communityAdmin address",
          "oldCommunityAdmin": "Old communityAdmin address"
        }
      },
      "CommunityLocked(address)": {
        "params": {
          "manager": "Address of the manager that triggered the event"
        }
      },
      "CommunityParamsUpdated(uint256,uint256,uint256,uint256)": {
        "params": {
          "newMaxTranche": "New maxTranche value For further information regarding each parameter, see *Community* smart contract initialize method.",
          "newMinTranche": "New minTranche value",
          "oldMaxTranche": "Old maxTranche value",
          "oldMinTranche": "Old minTranche value"
        }
      },
      "CommunityUnlocked(address)": {
        "params": {
          "manager": "Address of the manager that triggered the event"
        }
      },
      "Donate(address,uint256)": {
        "params": {
          "amount": "Amount of the donation",
          "donor": "Address of the donor"
        }
      },
      "FundsRequested(address)": {
        "params": {
          "manager": "Address of the manager that triggered the event"
        }
      },
      "ManagerAdded(address,address)": {
        "params": {
          "account": "Address of the manager that has been added",
          "manager": "Address of the manager that triggered the event                          or address of the CommunityAdmin if it's first manager"
        }
      },
      "ManagerRemoved(address,address)": {
        "params": {
          "account": "Address of the manager that has been removed",
          "manager": "Address of the manager that triggered the event"
        }
      },
      "PreviousCommunityUpdated(address,address)": {
        "params": {
          "newPreviousCommunity": "New previousCommunity address",
          "oldPreviousCommunity": "Old previousCommunity address"
        }
      },
      "TransferERC20(address,address,uint256)": {
        "params": {
          "amount": "Amount of the transaction",
          "to": "Address of the receiver",
          "token": "ERC20 token address"
        }
      }
    },
    "kind": "dev",
    "methods": {
      "addBeneficiary(address)": {
        "params": {
          "_beneficiaryAddress": "address of the beneficiary to be added"
        }
      },
      "addManager(address)": {
        "params": {
          "_account": "address of the manager to be added"
        }
      },
      "addTreasuryFunds(uint256)": {
        "params": {
          "_amount": "amount to be added to treasuryFunds"
        }
      },
      "beneficiaryListAt(uint256)": {
        "params": {
          "index_": "index value"
        },
        "returns": {
          "_0": "address of the beneficiary"
        }
      },
      "claim()": {
        "details": "Transfers cUSD to a valid beneficiary"
      },
      "claimCooldown(address)": {
        "params": {
          "_beneficiaryAddress": "address of the beneficiary"
        },
        "returns": {
          "_0": "uint256 number of block when the beneficiary can claim"
        }
      },
      "donate(address,uint256)": {
        "params": {
          "_amount": "amount to be donated",
          "_sender": "address of the sender"
        }
      },
      "getRoleAdmin(bytes32)": {
        "details": "Returns the admin role that controls `role`. See {grantRole} and {revokeRole}. To change a role's admin, use {_setRoleAdmin}."
      },
      "hasRole(bytes32,address)": {
        "details": "Returns `true` if `account` has been granted `role`."
      },
      "initialize(address[],uint256,uint256,uint256,uint256,uint256,uint256,uint256,address)": {
        "params": {
          "_baseInterval": "Base interval to start claiming",
          "_claimAmount": "Base amount to be claim by the beneficiary",
          "_decreaseStep": "Value decreased from maxClaim each time a beneficiary is added",
          "_incrementInterval": "Increment interval used in each claim",
          "_managers": "Community's initial managers.                             Will be able to add others",
          "_maxClaim": "Limit that a beneficiary can claim in total",
          "_maxTranche": "Maximum amount that the community will receive when requesting funds",
          "_minTranche": "Minimum amount that the community will receive when requesting funds",
          "_previousCommunity": "Previous smart contract address of community"
        }
      },
      "lastInterval(address)": {
        "params": {
          "_beneficiaryAddress": "address of the beneficiary"
        },
        "returns": {
          "_0": "uint256 number of blocks for the lastInterval"
        }
      },
      "lockBeneficiary(address)": {
        "params": {
          "_beneficiaryAddress": "address of the beneficiary to be locked"
        }
      },
      "owner()": {
        "details": "Returns the address of the current owner."
      },
      "removeBeneficiary(address)": {
        "params": {
          "_beneficiaryAddress": "address of the beneficiary to be removed"
        }
      },
      "removeManager(address)": {
        "params": {
          "_account": "address of the manager to be removed"
        }
      },
      "renounceOwnership()": {
        "details": "Leaves the contract without owner. It will not be possible to call `onlyOwner` functions anymore. Can only be called by the current owner. NOTE: Renouncing ownership will leave the contract without an owner, thereby removing any functionality that is only available to the owner."
      },
      "renounceRole(bytes32,address)": {
        "details": "Revokes `role` from the calling account. Roles are often managed via {grantRole} and {revokeRole}: this function's purpose is to provide a mechanism for accounts to lose their privileges if they are compromised (such as when a trusted device is misplaced). If the calling account had been revoked `role`, emits a {RoleRevoked} event. Requirements: - the caller must be `account`."
      },
      "supportsInterface(bytes4)": {
        "details": "See {IERC165-supportsInterface}."
      },
      "transfer(address,address,uint256)": {
        "params": {
          "_amount": "amount of the transaction",
          "_to": "address of the receiver",
          "_token": "address of the ERC20 token"
        }
      },
      "transferOwnership(address)": {
        "details": "Transfers ownership of the contract to a new account (`newOwner`). Can only be called by the current owner."
      },
      "unlockBeneficiary(address)": {
        "params": {
          "_beneficiaryAddress": "address of the beneficiary to be unlocked"
        }
      },
      "updateBeneficiaryParams(uint256,uint256,uint256,uint256,uint256)": {
        "params": {
          "_baseInterval": "base interval to start claiming",
          "_claimAmount": "base amount to be claim by the beneficiary",
          "_decreaseStep": "value decreased from maxClaim each time a is beneficiary added",
          "_incrementInterval": "increment interval used in each claim",
          "_maxClaim": "limit that a beneficiary can claim  in total"
        }
      },
      "updateCommunityAdmin(address)": {
        "params": {
          "_newCommunityAdmin": "address of the new communityAdmin"
        }
      },
      "updateCommunityParams(uint256,uint256)": {
        "params": {
          "_maxTranche": "maximum amount that the community will receive when requesting funds",
          "_minTranche": "minimum amount that the community will receive when requesting funds"
        }
      },
      "updatePreviousCommunity(address)": {
        "params": {
          "_newPreviousCommunity": "address of the new previousCommunity"
        }
      }
    },
    "version": 1
  },
  "userdoc": {
    "events": {
      "BeneficiaryAdded(address,address)": {
        "notice": "Triggered when a beneficiary has been added"
      },
      "BeneficiaryClaim(address,uint256)": {
        "notice": "Triggered when a beneficiary has claimed"
      },
      "BeneficiaryJoined(address)": {
        "notice": "Triggered when a beneficiary from previous community has joined in the current community"
      },
      "BeneficiaryLocked(address,address)": {
        "notice": "Triggered when a beneficiary has been locked"
      },
      "BeneficiaryParamsUpdated(uint256,uint256,uint256,uint256,uint256,uint256,uint256,uint256,uint256,uint256)": {
        "notice": "Triggered when beneficiary params has been updated"
      },
      "BeneficiaryRemoved(address,address)": {
        "notice": "Triggered when a beneficiary has been removed"
      },
      "BeneficiaryUnlocked(address,address)": {
        "notice": "Triggered when a beneficiary has been unlocked"
      },
      "CommunityAdminUpdated(address,address)": {
        "notice": "Triggered when communityAdmin has been updated"
      },
      "CommunityLocked(address)": {
        "notice": "Triggered when a community has been locked"
      },
      "CommunityParamsUpdated(uint256,uint256,uint256,uint256)": {
        "notice": "Triggered when community params has been updated"
      },
      "CommunityUnlocked(address)": {
        "notice": "Triggered when a community has been unlocked"
      },
      "Donate(address,uint256)": {
        "notice": "Triggered when someone has donated cUSD"
      },
      "FundsRequested(address)": {
        "notice": "Triggered when a manager has requested funds for community"
      },
      "ManagerAdded(address,address)": {
        "notice": "Triggered when a manager has been added"
      },
      "ManagerRemoved(address,address)": {
        "notice": "Triggered when a manager has been removed"
      },
      "PreviousCommunityUpdated(address,address)": {
        "notice": "Triggered when previousCommunity has been updated"
      },
      "TransferERC20(address,address,uint256)": {
        "notice": "Triggered when an amount of an ERC20 has been transferred from this contract to an address"
      }
    },
    "kind": "user",
    "methods": {
      "addBeneficiary(address)": {
        "notice": "Adds a new beneficiary"
      },
      "addManager(address)": {
        "notice": "Adds a new manager"
      },
      "addTreasuryFunds(uint256)": {
        "notice": "Increases the treasuryFunds value Used by communityAdmin after an amount of cUSD are sent from the treasury"
      },
      "beneficiaryJoinFromMigrated(address)": {
        "notice": "Allows a beneficiary from the previousCommunity to join in this community"
      },
      "beneficiaryListAt(uint256)": {
        "notice": "Returns an address from the beneficiaryList"
      },
      "beneficiaryListLength()": {
        "notice": "Returns the length of the beneficiaryList"
      },
      "cUSD()": {
        "notice": "Returns the cUSD contract address"
      },
      "claimCooldown(address)": {
        "notice": "Returns the block number when a beneficiary can claim again"
      },
      "donate(address,uint256)": {
        "notice": "Transfers cUSDs from donor to this community Used by donationToCommunity method from DonationMiner contract"
      },
      "getInitialMaxClaim()": {
        "notice": "Returns the initial maxClaim"
      },
      "getVersion()": {
        "notice": "Returns the current implementation version"
      },
      "grantRole(bytes32,address)": {
        "notice": "Enforces managers to use addManager method"
      },
      "impactMarketAddress()": {
        "notice": "Returns the 0 address only used for backwards compatibility"
      },
      "initialize(address[],uint256,uint256,uint256,uint256,uint256,uint256,uint256,address)": {
        "notice": "Used to initialize a new Community contract"
      },
      "lastInterval(address)": {
        "notice": "Returns the number of blocks that a beneficiary have to wait between claims"
      },
      "lock()": {
        "notice": "Locks the community"
      },
      "lockBeneficiary(address)": {
        "notice": "Locks a valid beneficiary"
      },
      "removeBeneficiary(address)": {
        "notice": "Remove an existing beneficiary"
      },
      "removeManager(address)": {
        "notice": "Remove an existing manager"
      },
      "requestFunds()": {
        "notice": "Requests treasury funds from the communityAdmin"
      },
      "revokeRole(bytes32,address)": {
        "notice": "Enforces managers to use removeManager method"
      },
      "transfer(address,address,uint256)": {
        "notice": "Transfers an amount of an ERC20 from this contract to an address"
      },
      "unlock()": {
        "notice": "Unlocks the community"
      },
      "unlockBeneficiary(address)": {
        "notice": "Unlocks a locked beneficiary"
      },
      "updateBeneficiaryParams(uint256,uint256,uint256,uint256,uint256)": {
        "notice": "Updates beneficiary params"
      },
      "updateCommunityAdmin(address)": {
        "notice": "Updates the address of the communityAdmin"
      },
      "updateCommunityParams(uint256,uint256)": {
        "notice": "Updates params of a community"
      },
      "updatePreviousCommunity(address)": {
        "notice": "Updates the address of the previousCommunity"
      }
    },
    "notice": "Welcome to the Community contract. For each community there will be one proxy contract deployed by CommunityAdmin. The implementation of the proxy is this contract. This enable us to save tokens on the contract itself, and avoid the problems of having everything in one single contract. Each community has it's own members and and managers.",
    "version": 1
  },
  "storageLayout": {
    "storage": [
      {
        "astId": 542,
        "contract": "contracts/community/CommunityImplementation.sol:CommunityImplementation",
        "label": "_initialized",
        "offset": 0,
        "slot": "0",
        "type": "t_bool"
      },
      {
        "astId": 545,
        "contract": "contracts/community/CommunityImplementation.sol:CommunityImplementation",
        "label": "_initializing",
        "offset": 1,
        "slot": "0",
        "type": "t_bool"
      },
      {
        "astId": 1068,
        "contract": "contracts/community/CommunityImplementation.sol:CommunityImplementation",
        "label": "__gap",
        "offset": 0,
        "slot": "1",
        "type": "t_array(t_uint256)50_storage"
      },
      {
        "astId": 1317,
        "contract": "contracts/community/CommunityImplementation.sol:CommunityImplementation",
        "label": "__gap",
        "offset": 0,
        "slot": "51",
        "type": "t_array(t_uint256)50_storage"
      },
      {
        "astId": 48,
        "contract": "contracts/community/CommunityImplementation.sol:CommunityImplementation",
        "label": "_roles",
        "offset": 0,
        "slot": "101",
        "type": "t_mapping(t_bytes32,t_struct(RoleData)43_storage)"
      },
      {
        "astId": 335,
        "contract": "contracts/community/CommunityImplementation.sol:CommunityImplementation",
        "label": "__gap",
        "offset": 0,
        "slot": "102",
        "type": "t_array(t_uint256)49_storage"
      },
      {
        "astId": 420,
        "contract": "contracts/community/CommunityImplementation.sol:CommunityImplementation",
        "label": "_owner",
        "offset": 0,
        "slot": "151",
        "type": "t_address"
      },
      {
        "astId": 534,
        "contract": "contracts/community/CommunityImplementation.sol:CommunityImplementation",
        "label": "__gap",
        "offset": 0,
        "slot": "152",
        "type": "t_array(t_uint256)49_storage"
      },
      {
        "astId": 736,
        "contract": "contracts/community/CommunityImplementation.sol:CommunityImplementation",
        "label": "_status",
        "offset": 0,
        "slot": "201",
        "type": "t_uint256"
      },
      {
        "astId": 779,
        "contract": "contracts/community/CommunityImplementation.sol:CommunityImplementation",
        "label": "__gap",
        "offset": 0,
        "slot": "202",
        "type": "t_array(t_uint256)49_storage"
      },
      {
        "astId": 11534,
        "contract": "contracts/community/CommunityImplementation.sol:CommunityImplementation",
        "label": "locked",
        "offset": 0,
        "slot": "251",
        "type": "t_bool"
      },
      {
        "astId": 11537,
        "contract": "contracts/community/CommunityImplementation.sol:CommunityImplementation",
        "label": "claimAmount",
        "offset": 0,
        "slot": "252",
        "type": "t_uint256"
      },
      {
        "astId": 11540,
        "contract": "contracts/community/CommunityImplementation.sol:CommunityImplementation",
        "label": "baseInterval",
        "offset": 0,
        "slot": "253",
        "type": "t_uint256"
      },
      {
        "astId": 11543,
        "contract": "contracts/community/CommunityImplementation.sol:CommunityImplementation",
        "label": "incrementInterval",
        "offset": 0,
        "slot": "254",
        "type": "t_uint256"
      },
      {
        "astId": 11546,
        "contract": "contracts/community/CommunityImplementation.sol:CommunityImplementation",
        "label": "maxClaim",
        "offset": 0,
        "slot": "255",
        "type": "t_uint256"
      },
      {
        "astId": 11549,
        "contract": "contracts/community/CommunityImplementation.sol:CommunityImplementation",
        "label": "validBeneficiaryCount",
        "offset": 0,
        "slot": "256",
        "type": "t_uint256"
      },
      {
        "astId": 11552,
        "contract": "contracts/community/CommunityImplementation.sol:CommunityImplementation",
        "label": "treasuryFunds",
        "offset": 0,
        "slot": "257",
        "type": "t_uint256"
      },
      {
        "astId": 11555,
        "contract": "contracts/community/CommunityImplementation.sol:CommunityImplementation",
        "label": "privateFunds",
        "offset": 0,
        "slot": "258",
        "type": "t_uint256"
      },
      {
        "astId": 11558,
        "contract": "contracts/community/CommunityImplementation.sol:CommunityImplementation",
        "label": "decreaseStep",
        "offset": 0,
        "slot": "259",
        "type": "t_uint256"
      },
      {
        "astId": 11561,
        "contract": "contracts/community/CommunityImplementation.sol:CommunityImplementation",
        "label": "minTranche",
        "offset": 0,
        "slot": "260",
        "type": "t_uint256"
      },
      {
        "astId": 11564,
        "contract": "contracts/community/CommunityImplementation.sol:CommunityImplementation",
        "label": "maxTranche",
        "offset": 0,
        "slot": "261",
        "type": "t_uint256"
      },
      {
        "astId": 11567,
        "contract": "contracts/community/CommunityImplementation.sol:CommunityImplementation",
        "label": "lastFundRequest",
        "offset": 0,
        "slot": "262",
        "type": "t_uint256"
      },
      {
        "astId": 11571,
        "contract": "contracts/community/CommunityImplementation.sol:CommunityImplementation",
        "label": "previousCommunity",
        "offset": 0,
        "slot": "263",
        "type": "t_contract(ICommunity)11863"
      },
      {
        "astId": 11575,
        "contract": "contracts/community/CommunityImplementation.sol:CommunityImplementation",
        "label": "communityAdmin",
        "offset": 0,
        "slot": "264",
        "type": "t_contract(ICommunityAdmin)12085"
      },
      {
        "astId": 11581,
        "contract": "contracts/community/CommunityImplementation.sol:CommunityImplementation",
        "label": "beneficiaries",
        "offset": 0,
        "slot": "265",
        "type": "t_mapping(t_address,t_struct(Beneficiary)11605_storage)"
      },
      {
        "astId": 11584,
        "contract": "contracts/community/CommunityImplementation.sol:CommunityImplementation",
        "label": "beneficiaryList",
        "offset": 0,
        "slot": "266",
        "type": "t_struct(AddressSet)5349_storage"
      }
    ],
    "types": {
      "t_address": {
        "encoding": "inplace",
        "label": "address",
        "numberOfBytes": "20"
      },
      "t_array(t_bytes32)dyn_storage": {
        "base": "t_bytes32",
        "encoding": "dynamic_array",
        "label": "bytes32[]",
        "numberOfBytes": "32"
      },
      "t_array(t_uint256)49_storage": {
        "base": "t_uint256",
        "encoding": "inplace",
        "label": "uint256[49]",
        "numberOfBytes": "1568"
      },
      "t_array(t_uint256)50_storage": {
        "base": "t_uint256",
        "encoding": "inplace",
        "label": "uint256[50]",
        "numberOfBytes": "1600"
      },
      "t_bool": {
        "encoding": "inplace",
        "label": "bool",
        "numberOfBytes": "1"
      },
      "t_bytes32": {
        "encoding": "inplace",
        "label": "bytes32",
        "numberOfBytes": "32"
      },
      "t_contract(ICommunity)11863": {
        "encoding": "inplace",
        "label": "contract ICommunity",
        "numberOfBytes": "20"
      },
      "t_contract(ICommunityAdmin)12085": {
        "encoding": "inplace",
        "label": "contract ICommunityAdmin",
        "numberOfBytes": "20"
      },
      "t_enum(BeneficiaryState)11595": {
        "encoding": "inplace",
        "label": "enum ICommunity.BeneficiaryState",
        "numberOfBytes": "1"
      },
      "t_mapping(t_address,t_bool)": {
        "encoding": "mapping",
        "key": "t_address",
        "label": "mapping(address => bool)",
        "numberOfBytes": "32",
        "value": "t_bool"
      },
      "t_mapping(t_address,t_struct(Beneficiary)11605_storage)": {
        "encoding": "mapping",
        "key": "t_address",
        "label": "mapping(address => struct ICommunity.Beneficiary)",
        "numberOfBytes": "32",
        "value": "t_struct(Beneficiary)11605_storage"
      },
      "t_mapping(t_bytes32,t_struct(RoleData)43_storage)": {
        "encoding": "mapping",
        "key": "t_bytes32",
        "label": "mapping(bytes32 => struct AccessControlUpgradeable.RoleData)",
        "numberOfBytes": "32",
        "value": "t_struct(RoleData)43_storage"
      },
      "t_mapping(t_bytes32,t_uint256)": {
        "encoding": "mapping",
        "key": "t_bytes32",
        "label": "mapping(bytes32 => uint256)",
        "numberOfBytes": "32",
        "value": "t_uint256"
      },
      "t_struct(AddressSet)5349_storage": {
        "encoding": "inplace",
        "label": "struct EnumerableSet.AddressSet",
        "members": [
          {
            "astId": 5348,
            "contract": "contracts/community/CommunityImplementation.sol:CommunityImplementation",
            "label": "_inner",
            "offset": 0,
            "slot": "0",
            "type": "t_struct(Set)5048_storage"
          }
        ],
        "numberOfBytes": "64"
      },
      "t_struct(Beneficiary)11605_storage": {
        "encoding": "inplace",
        "label": "struct ICommunity.Beneficiary",
        "members": [
          {
            "astId": 11598,
            "contract": "contracts/community/CommunityImplementation.sol:CommunityImplementation",
            "label": "state",
            "offset": 0,
            "slot": "0",
            "type": "t_enum(BeneficiaryState)11595"
          },
          {
            "astId": 11600,
            "contract": "contracts/community/CommunityImplementation.sol:CommunityImplementation",
            "label": "claims",
            "offset": 0,
            "slot": "1",
            "type": "t_uint256"
          },
          {
            "astId": 11602,
            "contract": "contracts/community/CommunityImplementation.sol:CommunityImplementation",
            "label": "claimedAmount",
            "offset": 0,
            "slot": "2",
            "type": "t_uint256"
          },
          {
            "astId": 11604,
            "contract": "contracts/community/CommunityImplementation.sol:CommunityImplementation",
            "label": "lastClaim",
            "offset": 0,
            "slot": "3",
            "type": "t_uint256"
          }
        ],
        "numberOfBytes": "128"
      },
      "t_struct(RoleData)43_storage": {
        "encoding": "inplace",
        "label": "struct AccessControlUpgradeable.RoleData",
        "members": [
          {
            "astId": 40,
            "contract": "contracts/community/CommunityImplementation.sol:CommunityImplementation",
            "label": "members",
            "offset": 0,
            "slot": "0",
            "type": "t_mapping(t_address,t_bool)"
          },
          {
            "astId": 42,
            "contract": "contracts/community/CommunityImplementation.sol:CommunityImplementation",
            "label": "adminRole",
            "offset": 0,
            "slot": "1",
            "type": "t_bytes32"
          }
        ],
        "numberOfBytes": "64"
      },
      "t_struct(Set)5048_storage": {
        "encoding": "inplace",
        "label": "struct EnumerableSet.Set",
        "members": [
          {
            "astId": 5043,
            "contract": "contracts/community/CommunityImplementation.sol:CommunityImplementation",
            "label": "_values",
            "offset": 0,
            "slot": "0",
            "type": "t_array(t_bytes32)dyn_storage"
          },
          {
            "astId": 5047,
            "contract": "contracts/community/CommunityImplementation.sol:CommunityImplementation",
            "label": "_indexes",
            "offset": 0,
            "slot": "1",
            "type": "t_mapping(t_bytes32,t_uint256)"
          }
        ],
        "numberOfBytes": "64"
      },
      "t_uint256": {
        "encoding": "inplace",
        "label": "uint256",
        "numberOfBytes": "32"
      }
    }
  }
}