{
  "address": "0xdFFC8b64c85514397Bf88bDFE60e11cBe8C16282",
  "abi": [
    {
      "inputs": [
        {
          "internalType": "contract ICommunityAdmin",
          "name": "communityAdmin_",
          "type": "address"
        }
      ],
      "stateMutability": "nonpayable",
      "type": "constructor"
    },
    {
      "anonymous": false,
      "inputs": [
        {
          "indexed": true,
          "internalType": "address",
          "name": "previousOwner",
          "type": "address"
        },
        {
          "indexed": true,
          "internalType": "address",
          "name": "newOwner",
          "type": "address"
        }
      ],
      "name": "OwnershipTransferred",
      "type": "event"
    },
    {
      "inputs": [
        {
          "internalType": "contract ICommunity",
          "name": "community_",
          "type": "address"
        }
      ],
      "name": "calculateCommunityTrancheAmount",
      "outputs": [
        {
          "internalType": "uint256",
          "name": "",
          "type": "uint256"
        }
      ],
      "stateMutability": "view",
      "type": "function"
    },
    {
      "inputs": [],
      "name": "communityAdmin",
      "outputs": [
        {
          "internalType": "contract ICommunityAdmin",
          "name": "",
          "type": "address"
        }
      ],
      "stateMutability": "view",
      "type": "function"
    },
    {
      "inputs": [
        {
          "internalType": "address",
          "name": "_firstManager",
          "type": "address"
        },
        {
          "internalType": "uint256",
          "name": "_claimAmount",
          "type": "uint256"
        },
        {
          "internalType": "uint256",
          "name": "_maxClaim",
          "type": "uint256"
        },
        {
          "internalType": "uint256",
          "name": "_baseInterval",
          "type": "uint256"
        },
        {
          "internalType": "uint256",
          "name": "_incrementInterval",
          "type": "uint256"
        },
        {
          "internalType": "contract ICommunity",
          "name": "_previousCommunity",
          "type": "address"
        }
      ],
      "name": "deployCommunity",
      "outputs": [
        {
          "internalType": "address",
          "name": "",
          "type": "address"
        }
      ],
      "stateMutability": "nonpayable",
      "type": "function"
    },
    {
      "inputs": [],
      "name": "owner",
      "outputs": [
        {
          "internalType": "address",
          "name": "",
          "type": "address"
        }
      ],
      "stateMutability": "view",
      "type": "function"
    },
    {
      "inputs": [],
      "name": "renounceOwnership",
      "outputs": [],
      "stateMutability": "nonpayable",
      "type": "function"
    },
    {
      "inputs": [
        {
          "internalType": "address",
          "name": "newOwner",
          "type": "address"
        }
      ],
      "name": "transferOwnership",
      "outputs": [],
      "stateMutability": "nonpayable",
      "type": "function"
    }
  ],
  "transactionHash": "0x1f95413ab51098fab5999c488d3c19990fc652b2c65e80734005b7fd636efebd",
  "args": [
    "0x2148220F41e33580e256CF80A94C7D92FF5b7907"
  ],
  "solcInputHash": "6bf46383f11fabdc202ffe24b62c453f",
  "bytecode": "0x60806040523480156200001157600080fd5b5060405162006dac38038062006dac8339818101604052810190620000379190620002d2565b620000576200004b620000b060201b60201c565b620000b860201b60201c565b80600160006101000a81548173ffffffffffffffffffffffffffffffffffffffff021916908373ffffffffffffffffffffffffffffffffffffffff160217905550620000a9816200017c60201b60201c565b5062000486565b600033905090565b60008060009054906101000a900473ffffffffffffffffffffffffffffffffffffffff169050816000806101000a81548173ffffffffffffffffffffffffffffffffffffffff021916908373ffffffffffffffffffffffffffffffffffffffff1602179055508173ffffffffffffffffffffffffffffffffffffffff168173ffffffffffffffffffffffffffffffffffffffff167f8be0079c531659141344cd1fd0a4f28419497f9722a3daafe3b4186f6b6457e060405160405180910390a35050565b6200018c620000b060201b60201c565b73ffffffffffffffffffffffffffffffffffffffff16620001b26200029260201b60201c565b73ffffffffffffffffffffffffffffffffffffffff16146200020b576040517f08c379a0000000000000000000000000000000000000000000000000000000008152600401620002029062000374565b60405180910390fd5b600073ffffffffffffffffffffffffffffffffffffffff168173ffffffffffffffffffffffffffffffffffffffff1614156200027e576040517f08c379a0000000000000000000000000000000000000000000000000000000008152600401620002759062000352565b60405180910390fd5b6200028f81620000b860201b60201c565b50565b60008060009054906101000a900473ffffffffffffffffffffffffffffffffffffffff16905090565b600081519050620002cc816200046c565b92915050565b600060208284031215620002eb57620002ea620003ef565b5b6000620002fb84828501620002bb565b91505092915050565b60006200031360268362000396565b91506200032082620003f4565b604082019050919050565b60006200033a60208362000396565b9150620003478262000443565b602082019050919050565b600060208201905081810360008301526200036d8162000304565b9050919050565b600060208201905081810360008301526200038f816200032b565b9050919050565b600082825260208201905092915050565b6000620003b482620003cf565b9050919050565b6000620003c882620003a7565b9050919050565b600073ffffffffffffffffffffffffffffffffffffffff82169050919050565b600080fd5b7f4f776e61626c653a206e6577206f776e657220697320746865207a65726f206160008201527f6464726573730000000000000000000000000000000000000000000000000000602082015250565b7f4f776e61626c653a2063616c6c6572206973206e6f7420746865206f776e6572600082015250565b6200047781620003bb565b81146200048357600080fd5b50565b61691680620004966000396000f3fe60806040523480156200001157600080fd5b50600436106200006a5760003560e01c80635fac917a146200006f578063715018a614620000915780638523f311146200009d5780638da5cb5b14620000d3578063b1909ef214620000f5578063f2fde38b146200012b575b600080fd5b620000796200014b565b60405162000088919062000cbf565b60405180910390f35b6200009b62000175565b005b620000bb6004803603810190620000b5919062000a93565b62000206565b604051620000ca919062000c25565b60405180910390f35b620000dd620002dc565b604051620000ec919062000c25565b60405180910390f35b6200011360048036038101906200010d919062000b2f565b62000305565b60405162000122919062000d20565b60405180910390f35b62000149600480360381019062000143919062000a61565b62000827565b005b6000600160009054906101000a900473ffffffffffffffffffffffffffffffffffffffff16905090565b6200017f6200092b565b73ffffffffffffffffffffffffffffffffffffffff166200019f620002dc565b73ffffffffffffffffffffffffffffffffffffffff1614620001f8576040517f08c379a0000000000000000000000000000000000000000000000000000000008152600401620001ef9062000cfe565b60405180910390fd5b62000204600062000933565b565b6000620002126200092b565b73ffffffffffffffffffffffffffffffffffffffff1662000232620002dc565b73ffffffffffffffffffffffffffffffffffffffff16146200028b576040517f08c379a0000000000000000000000000000000000000000000000000000000008152600401620002829062000cfe565b60405180910390fd5b86868686868633604051620002a090620009f7565b620002b2979695949392919062000c42565b604051809103906000f080158015620002cf573d6000803e3d6000fd5b5090509695505050505050565b60008060009054906101000a900473ffffffffffffffffffffffffffffffffffffffff16905090565b6000808273ffffffffffffffffffffffffffffffffffffffff1663431a801a6040518163ffffffff1660e01b815260040160206040518083038186803b1580156200034f57600080fd5b505afa15801562000364573d6000803e3d6000fd5b505050506040513d601f19601f820116820180604052508101906200038a919062000b61565b905060008373ffffffffffffffffffffffffffffffffffffffff1663830953ab6040518163ffffffff1660e01b815260040160206040518083038186803b158015620003d557600080fd5b505afa158015620003ea573d6000803e3d6000fd5b505050506040513d601f19601f8201168201806040525081019062000410919062000b61565b905060008473ffffffffffffffffffffffffffffffffffffffff16639c01a4016040518163ffffffff1660e01b815260040160206040518083038186803b1580156200045b57600080fd5b505afa15801562000470573d6000803e3d6000fd5b505050506040513d601f19601f8201168201806040525081019062000496919062000b61565b905060008573ffffffffffffffffffffffffffffffffffffffff1663d6dbd9726040518163ffffffff1660e01b815260040160206040518083038186803b158015620004e157600080fd5b505afa158015620004f6573d6000803e3d6000fd5b505050506040513d601f19601f820116820180604052508101906200051c919062000b61565b9050600082846200052e919062000de3565b82846200053c919062000d4e565b866f0785ee10d5da46d900f436a0000000006200055a919062000de3565b62000566919062000de3565b62000572919062000dab565b9050600160009054906101000a900473ffffffffffffffffffffffffffffffffffffffff1673ffffffffffffffffffffffffffffffffffffffff1663868a7e886040518163ffffffff1660e01b815260040160206040518083038186803b158015620005dd57600080fd5b505afa158015620005f2573d6000803e3d6000fd5b505050506040513d601f19601f8201168201806040525081019062000618919062000b61565b811015620006c757600160009054906101000a900473ffffffffffffffffffffffffffffffffffffffff1673ffffffffffffffffffffffffffffffffffffffff1663868a7e886040518163ffffffff1660e01b815260040160206040518083038186803b1580156200068957600080fd5b505afa1580156200069e573d6000803e3d6000fd5b505050506040513d601f19601f82011682018060405250810190620006c4919062000b61565b90505b600160009054906101000a900473ffffffffffffffffffffffffffffffffffffffff1673ffffffffffffffffffffffffffffffffffffffff1663255cef696040518163ffffffff1660e01b815260040160206040518083038186803b1580156200073057600080fd5b505afa15801562000745573d6000803e3d6000fd5b505050506040513d601f19601f820116820180604052508101906200076b919062000b61565b8111156200081a57600160009054906101000a900473ffffffffffffffffffffffffffffffffffffffff1673ffffffffffffffffffffffffffffffffffffffff1663255cef696040518163ffffffff1660e01b815260040160206040518083038186803b158015620007dc57600080fd5b505afa158015620007f1573d6000803e3d6000fd5b505050506040513d601f19601f8201168201806040525081019062000817919062000b61565b90505b8095505050505050919050565b620008316200092b565b73ffffffffffffffffffffffffffffffffffffffff1662000851620002dc565b73ffffffffffffffffffffffffffffffffffffffff1614620008aa576040517f08c379a0000000000000000000000000000000000000000000000000000000008152600401620008a19062000cfe565b60405180910390fd5b600073ffffffffffffffffffffffffffffffffffffffff168173ffffffffffffffffffffffffffffffffffffffff1614156200091d576040517f08c379a0000000000000000000000000000000000000000000000000000000008152600401620009149062000cdc565b60405180910390fd5b620009288162000933565b50565b600033905090565b60008060009054906101000a900473ffffffffffffffffffffffffffffffffffffffff169050816000806101000a81548173ffffffffffffffffffffffffffffffffffffffff021916908373ffffffffffffffffffffffffffffffffffffffff1602179055508173ffffffffffffffffffffffffffffffffffffffff168173ffffffffffffffffffffffffffffffffffffffff167f8be0079c531659141344cd1fd0a4f28419497f9722a3daafe3b4186f6b6457e060405160405180910390a35050565b6158d1806200101083390190565b60008135905062000a168162000fc1565b92915050565b60008135905062000a2d8162000fdb565b92915050565b60008135905062000a448162000ff5565b92915050565b60008151905062000a5b8162000ff5565b92915050565b60006020828403121562000a7a5762000a7962000f44565b5b600062000a8a8482850162000a05565b91505092915050565b60008060008060008060c0878903121562000ab35762000ab262000f44565b5b600062000ac389828a0162000a05565b965050602062000ad689828a0162000a33565b955050604062000ae989828a0162000a33565b945050606062000afc89828a0162000a33565b935050608062000b0f89828a0162000a33565b92505060a062000b2289828a0162000a1c565b9150509295509295509295565b60006020828403121562000b485762000b4762000f44565b5b600062000b588482850162000a1c565b91505092915050565b60006020828403121562000b7a5762000b7962000f44565b5b600062000b8a8482850162000a4a565b91505092915050565b62000b9e8162000e44565b82525050565b62000baf8162000e96565b82525050565b62000bc08162000ebe565b82525050565b600062000bd560268362000d3d565b915062000be28262000f49565b604082019050919050565b600062000bfc60208362000d3d565b915062000c098262000f98565b602082019050919050565b62000c1f8162000e8c565b82525050565b600060208201905062000c3c600083018462000b93565b92915050565b600060e08201905062000c59600083018a62000b93565b62000c68602083018962000c14565b62000c77604083018862000c14565b62000c86606083018762000c14565b62000c95608083018662000c14565b62000ca460a083018562000bb5565b62000cb360c083018462000ba4565b98975050505050505050565b600060208201905062000cd6600083018462000ba4565b92915050565b6000602082019050818103600083015262000cf78162000bc6565b9050919050565b6000602082019050818103600083015262000d198162000bed565b9050919050565b600060208201905062000d37600083018462000c14565b92915050565b600082825260208201905092915050565b600062000d5b8262000e8c565b915062000d688362000e8c565b9250827fffffffffffffffffffffffffffffffffffffffffffffffffffffffffffffffff0382111562000da05762000d9f62000ee6565b5b828201905092915050565b600062000db88262000e8c565b915062000dc58362000e8c565b92508262000dd85762000dd762000f15565b5b828204905092915050565b600062000df08262000e8c565b915062000dfd8362000e8c565b9250817fffffffffffffffffffffffffffffffffffffffffffffffffffffffffffffffff048311821515161562000e395762000e3862000ee6565b5b828202905092915050565b600062000e518262000e6c565b9050919050565b600062000e658262000e44565b9050919050565b600073ffffffffffffffffffffffffffffffffffffffff82169050919050565b6000819050919050565b600062000ea38262000eaa565b9050919050565b600062000eb78262000e6c565b9050919050565b600062000ecb8262000ed2565b9050919050565b600062000edf8262000e6c565b9050919050565b7f4e487b7100000000000000000000000000000000000000000000000000000000600052601160045260246000fd5b7f4e487b7100000000000000000000000000000000000000000000000000000000600052601260045260246000fd5b600080fd5b7f4f776e61626c653a206e6577206f776e657220697320746865207a65726f206160008201527f6464726573730000000000000000000000000000000000000000000000000000602082015250565b7f4f776e61626c653a2063616c6c6572206973206e6f7420746865206f776e6572600082015250565b62000fcc8162000e44565b811462000fd857600080fd5b50565b62000fe68162000e58565b811462000ff257600080fd5b50565b620010008162000e8c565b81146200100c57600080fd5b5056fe6080604052662386f26fc100006009553480156200001c57600080fd5b50604051620058d1380380620058d18339818101604052810190620000429190620006c1565b62000062620000566200026a60201b60201c565b6200027260201b60201c565b828411620000a7576040517f08c379a00000000000000000000000000000000000000000000000000000000081526004016200009e9062000876565b60405180910390fd5b858511620000ec576040517f08c379a0000000000000000000000000000000000000000000000000000000008152600401620000e39062000832565b60405180910390fd5b6200011e7f241ecf16d79d0f8dbfb92cbc07fe17840425976cf0667f022fe9877caa831b08886200033860201b60201c565b620001507f241ecf16d79d0f8dbfb92cbc07fe17840425976cf0667f022fe9877caa831b08806200034e60201b60201c565b8673ffffffffffffffffffffffffffffffffffffffff167f3b4a40cccf2058c593542587329dd385be4f0b588db5471fbd9598e56dd7093a60405160405180910390a28560028190555083600381905550826004819055508460058190555081600a60006101000a81548173ffffffffffffffffffffffffffffffffffffffff021916908373ffffffffffffffffffffffffffffffffffffffff16021790555080600b60006101000a81548173ffffffffffffffffffffffffffffffffffffffff021916908373ffffffffffffffffffffffffffffffffffffffff1602179055506000600160146101000a81548160ff0219169083151502179055506200025d81620003ab60201b60201c565b5050505050505062000ade565b600033905090565b6000600160009054906101000a900473ffffffffffffffffffffffffffffffffffffffff16905081600160006101000a81548173ffffffffffffffffffffffffffffffffffffffff021916908373ffffffffffffffffffffffffffffffffffffffff1602179055508173ffffffffffffffffffffffffffffffffffffffff168173ffffffffffffffffffffffffffffffffffffffff167f8be0079c531659141344cd1fd0a4f28419497f9722a3daafe3b4186f6b6457e060405160405180910390a35050565b6200034a8282620004c160201b60201c565b5050565b806200036083620005b260201b60201c565b837fbd79b86ffe0ab8e8776151514217cd7cacd52c909f66475c3af44e129f0b00ff60405160405180910390a480600080848152602001908152602001600020600101819055505050565b620003bb6200026a60201b60201c565b73ffffffffffffffffffffffffffffffffffffffff16620003e1620005d160201b60201c565b73ffffffffffffffffffffffffffffffffffffffff16146200043a576040517f08c379a0000000000000000000000000000000000000000000000000000000008152600401620004319062000854565b60405180910390fd5b600073ffffffffffffffffffffffffffffffffffffffff168173ffffffffffffffffffffffffffffffffffffffff161415620004ad576040517f08c379a0000000000000000000000000000000000000000000000000000000008152600401620004a49062000810565b60405180910390fd5b620004be816200027260201b60201c565b50565b620004d38282620005fb60201b60201c565b620005ae57600160008084815260200190815260200160002060000160008373ffffffffffffffffffffffffffffffffffffffff1673ffffffffffffffffffffffffffffffffffffffff16815260200190815260200160002060006101000a81548160ff021916908315150217905550620005536200026a60201b60201c565b73ffffffffffffffffffffffffffffffffffffffff168173ffffffffffffffffffffffffffffffffffffffff16837f2f8788117e7eff1d82e926ec794901d17c78024a50270940304540a733656f0d60405160405180910390a45b5050565b6000806000838152602001908152602001600020600101549050919050565b6000600160009054906101000a900473ffffffffffffffffffffffffffffffffffffffff16905090565b600080600084815260200190815260200160002060000160008373ffffffffffffffffffffffffffffffffffffffff1673ffffffffffffffffffffffffffffffffffffffff16815260200190815260200160002060009054906101000a900460ff16905092915050565b600081519050620006768162000a76565b92915050565b6000815190506200068d8162000a90565b92915050565b600081519050620006a48162000aaa565b92915050565b600081519050620006bb8162000ac4565b92915050565b600080600080600080600060e0888a031215620006e357620006e26200090f565b5b6000620006f38a828b0162000665565b9750506020620007068a828b01620006aa565b9650506040620007198a828b01620006aa565b95505060606200072c8a828b01620006aa565b94505060806200073f8a828b01620006aa565b93505060a0620007528a828b0162000693565b92505060c0620007658a828b016200067c565b91505092959891949750929550565b60006200078360268362000898565b9150620007908262000914565b604082019050919050565b6000620007aa60418362000898565b9150620007b78262000963565b606082019050919050565b6000620007d160208362000898565b9150620007de82620009d8565b602082019050919050565b6000620007f8604b8362000898565b9150620008058262000a01565b606082019050919050565b600060208201905081810360008301526200082b8162000774565b9050919050565b600060208201905081810360008301526200084d816200079b565b9050919050565b600060208201905081810360008301526200086f81620007c2565b9050919050565b600060208201905081810360008301526200089181620007e9565b9050919050565b600082825260208201905092915050565b6000620008b682620008e5565b9050919050565b6000620008ca82620008a9565b9050919050565b6000620008de82620008a9565b9050919050565b600073ffffffffffffffffffffffffffffffffffffffff82169050919050565b6000819050919050565b600080fd5b7f4f776e61626c653a206e6577206f776e657220697320746865207a65726f206160008201527f6464726573730000000000000000000000000000000000000000000000000000602082015250565b7f436f6d6d756e6974793a3a636f6e7374727563746f723a206d6178436c61696d60008201527f206d7573742062652067726561746572207468616e20636c61696d416d6f756e60208201527f7400000000000000000000000000000000000000000000000000000000000000604082015250565b7f4f776e61626c653a2063616c6c6572206973206e6f7420746865206f776e6572600082015250565b7f436f6d6d756e6974793a3a636f6e7374727563746f723a2062617365496e746560008201527f7276616c206d7573742062652067726561746572207468616e20696e6372656d60208201527f656e74496e74657276616c000000000000000000000000000000000000000000604082015250565b62000a8181620008a9565b811462000a8d57600080fd5b50565b62000a9b81620008bd565b811462000aa757600080fd5b50565b62000ab581620008d1565b811462000ac157600080fd5b50565b62000acf8162000905565b811462000adb57600080fd5b50565b614de38062000aee6000396000f3fe608060405234801561001057600080fd5b50600436106102a05760003560e01c80639cecf57211610167578063c51fab3c116100ce578063e69d849d11610087578063e69d849d1461077d578063eb0376b114610799578063ec87621c146107b7578063f2fde38b146107d5578063f83d08ba146107f1578063ffa1ad74146107fb576102a0565b8063c51fab3c146106cd578063cf309012146106eb578063d10f510714610709578063d4938db314610725578063d547741f14610743578063d6dbd9721461075f576102a0565b8063ac18de4311610120578063ac18de4314610635578063b026ba5714610651578063b08768911461065b578063b809ee8214610677578063c041fdc514610693578063c0e27b6b146106b1576102a0565b80639cecf572146105735780639e761bbb146105a3578063a217fddf146105d3578063a6789205146105f1578063a69df4b5146105fb578063a8f3e06314610605576102a0565b80634e71d92d1161020b578063715018a6116101c4578063715018a6146104d5578063723775c9146104df578063830953ab146104e95780638da5cb5b1461050757806391d14854146105255780639c01a40114610555576102a0565b80634e71d92d146104395780635926651d1461044357806359633a1c1461045f578063597be18b1461047b5780635fac917a146104995780636850e5c1146104b7576102a0565b8063248a9ca31161025d578063248a9ca3146103795780632d06177a146103a95780632f2ff15d146103c557806336568abe146103e15780633a578a0c146103fd578063431a801a1461041b576102a0565b806301567739146102a557806301ffc9a7146102d55780630e5b7c53146103055780631501bf03146103235780631fccf6721461033f5780631fe9578e1461035d575b600080fd5b6102bf60048036038101906102ba91906135ac565b610819565b6040516102cc91906141ec565b60405180910390f35b6102ef60048036038101906102ea91906136b3565b6108cb565b6040516102fc9190613e5a565b60405180910390f35b61030d610945565b60405161031a9190614207565b60405180910390f35b61033d6004803603810190610338919061377a565b61094f565b005b6103476109fb565b6040516103549190613eef565b60405180910390f35b6103776004803603810190610372919061370d565b610aa2565b005b610393600480360381019061038e9190613646565b610eba565b6040516103a09190613e75565b60405180910390f35b6103c360048036038101906103be91906135ac565b610ed9565b005b6103df60048036038101906103da9190613673565b610fb2565b005b6103fb60048036038101906103f69190613673565b610fdb565b005b61040561105e565b6040516104129190613ed4565b60405180910390f35b610423611088565b6040516104309190614207565b60405180910390f35b610441611092565b005b61045d600480360381019061045891906135ac565b6113ea565b005b610479600480360381019061047491906135ac565b61165e565b005b610483611814565b6040516104909190614207565b60405180910390f35b6104a161181e565b6040516104ae9190613eb9565b60405180910390f35b6104bf611848565b6040516104cc9190614207565b60405180910390f35b6104dd611853565b005b6104e76118db565b005b6104f1611a13565b6040516104fe9190614207565b60405180910390f35b61050f611a1d565b60405161051c9190613ddf565b60405180910390f35b61053f600480360381019061053a9190613673565b611a47565b60405161054c9190613e5a565b60405180910390f35b61055d611ab1565b60405161056a9190614207565b60405180910390f35b61058d600480360381019061058891906135ac565b611abb565b60405161059a9190614207565b60405180910390f35b6105bd60048036038101906105b891906137fa565b611b1a565b6040516105ca9190613ddf565b60405180910390f35b6105db611b37565b6040516105e89190613e75565b60405180910390f35b6105f9611b3e565b005b610603611d89565b005b61061f600480360381019061061a91906135ac565b611e52565b60405161062c9190614207565b60405180910390f35b61064f600480360381019061064a91906135ac565b611ee1565b005b610659611fba565b005b61067560048036038101906106709190613854565b6120a7565b005b610691600480360381019061068c91906137fa565b61221a565b005b61069b6122b2565b6040516106a89190613ddf565b60405180910390f35b6106cb60048036038101906106c691906135ac565b6122b7565b005b6106d561242d565b6040516106e29190614207565b60405180910390f35b6106f3612437565b6040516107009190613e5a565b60405180910390f35b610723600480360381019061071e91906135ac565b61244e565b005b61072d6125c4565b60405161073a9190614207565b60405180910390f35b61075d60048036038101906107589190613673565b6125ce565b005b6107676125f7565b6040516107749190614207565b60405180910390f35b610797600480360381019061079291906135d9565b612601565b005b6107a1612652565b6040516107ae9190614207565b60405180910390f35b6107bf612663565b6040516107cc9190613e75565b60405180910390f35b6107ef60048036038101906107ea91906135ac565b612687565b005b6107f961277f565b005b610803612847565b6040516108109190614207565b60405180910390f35b610821613413565b600c60008373ffffffffffffffffffffffffffffffffffffffff1673ffffffffffffffffffffffffffffffffffffffff1681526020019081526020016000206040518060800160405290816000820160009054906101000a900460ff1660038111156108905761088f614654565b5b60038111156108a2576108a1614654565b5b815260200160018201548152602001600282015481526020016003820154815250509050919050565b60007f7965db0b000000000000000000000000000000000000000000000000000000007bffffffffffffffffffffffffffffffffffffffffffffffffffffffff1916827bffffffffffffffffffffffffffffffffffffffffffffffffffffffff1916148061093e575061093d8261284c565b5b9050919050565b6000600354905090565b6109576128b6565b73ffffffffffffffffffffffffffffffffffffffff16610975611a1d565b73ffffffffffffffffffffffffffffffffffffffff16146109cb576040517f08c379a00000000000000000000000000000000000000000000000000000000081526004016109c29061402c565b60405180910390fd5b6109f682828573ffffffffffffffffffffffffffffffffffffffff166128be9092919063ffffffff16565b505050565b6000600b60009054906101000a900473ffffffffffffffffffffffffffffffffffffffff1673ffffffffffffffffffffffffffffffffffffffff16631fccf6726040518163ffffffff1660e01b815260040160206040518083038186803b158015610a6557600080fd5b505afa158015610a79573d6000803e3d6000fd5b505050506040513d601f19601f82011682018060405250810190610a9d919061374d565b905090565b610aaa6128b6565b73ffffffffffffffffffffffffffffffffffffffff16610ac8611a1d565b73ffffffffffffffffffffffffffffffffffffffff1614610b1e576040517f08c379a0000000000000000000000000000000000000000000000000000000008152600401610b159061402c565b60405180910390fd5b600115158273ffffffffffffffffffffffffffffffffffffffff166391d148547f241ecf16d79d0f8dbfb92cbc07fe17840425976cf0667f022fe9877caa831b08846040518363ffffffff1660e01b8152600401610b7d929190613e90565b60206040518083038186803b158015610b9557600080fd5b505afa158015610ba9573d6000803e3d6000fd5b505050506040513d601f19601f82011682018060405250810190610bcd9190613619565b151514610c0f576040517f08c379a0000000000000000000000000000000000000000000000000000000008152600401610c0690613f4c565b60405180910390fd5b3073ffffffffffffffffffffffffffffffffffffffff168273ffffffffffffffffffffffffffffffffffffffff16633a578a0c6040518163ffffffff1660e01b815260040160206040518083038186803b158015610c6c57600080fd5b505afa158015610c80573d6000803e3d6000fd5b505050506040513d601f19601f82011682018060405250810190610ca491906136e0565b73ffffffffffffffffffffffffffffffffffffffff1614610cfa576040517f08c379a0000000000000000000000000000000000000000000000000000000008152600401610cf190613f4c565b60405180910390fd5b6000610d046109fb565b73ffffffffffffffffffffffffffffffffffffffff166370a08231306040518263ffffffff1660e01b8152600401610d3c9190613ddf565b60206040518083038186803b158015610d5457600080fd5b505afa158015610d68573d6000803e3d6000fd5b505050506040513d601f19601f82011682018060405250810190610d8c9190613827565b90506000610d986109fb565b73ffffffffffffffffffffffffffffffffffffffff1663a9059cbb85846040518363ffffffff1660e01b8152600401610dd2929190613e31565b602060405180830381600087803b158015610dec57600080fd5b505af1158015610e00573d6000803e3d6000fd5b505050506040513d601f19601f82011682018060405250810190610e249190613619565b905080610e66576040517f08c379a0000000000000000000000000000000000000000000000000000000008152600401610e5d90613f4c565b60405180910390fd5b8373ffffffffffffffffffffffffffffffffffffffff167fec3fe17382089950d15d61fa7c2347c1b7eeb9a828e1cc790f522eca57ed18ec83604051610eac9190614207565b60405180910390a250505050565b6000806000838152602001908152602001600020600101549050919050565b610f037f241ecf16d79d0f8dbfb92cbc07fe17840425976cf0667f022fe9877caa831b0833611a47565b610f42576040517f08c379a0000000000000000000000000000000000000000000000000000000008152600401610f399061408c565b60405180910390fd5b610f6c7f241ecf16d79d0f8dbfb92cbc07fe17840425976cf0667f022fe9877caa831b0882610fb2565b8073ffffffffffffffffffffffffffffffffffffffff167f3b4a40cccf2058c593542587329dd385be4f0b588db5471fbd9598e56dd7093a60405160405180910390a250565b610fbb82610eba565b610fcc81610fc76128b6565b612944565b610fd683836129e1565b505050565b610fe36128b6565b73ffffffffffffffffffffffffffffffffffffffff168173ffffffffffffffffffffffffffffffffffffffff1614611050576040517f08c379a0000000000000000000000000000000000000000000000000000000008152600401611047906141cc565b60405180910390fd5b61105a8282612ac1565b5050565b6000600a60009054906101000a900473ffffffffffffffffffffffffffffffffffffffff16905090565b6000600654905090565b600160038111156110a6576110a5614654565b5b600c60003373ffffffffffffffffffffffffffffffffffffffff1673ffffffffffffffffffffffffffffffffffffffff16815260200190815260200160002060000160009054906101000a900460ff16600381111561110857611107614654565b5b14611148576040517f08c379a000000000000000000000000000000000000000000000000000000000815260040161113f9061404c565b60405180910390fd5b6000600c60003373ffffffffffffffffffffffffffffffffffffffff1673ffffffffffffffffffffffffffffffffffffffff1681526020019081526020016000209050600160149054906101000a900460ff16156111db576040517f08c379a00000000000000000000000000000000000000000000000000000000081526004016111d29061418c565b60405180910390fd5b426111e533611abb565b1115611226576040517f08c379a000000000000000000000000000000000000000000000000000000000815260040161121d906140ac565b60405180910390fd5b600554600254826002015461123b91906142d7565b111561127c576040517f08c379a00000000000000000000000000000000000000000000000000000000081526004016112739061412c565b60405180910390fd5b60025481600201600082825461129291906142d7565b925050819055508060010160008154809291906112ae906145ad565b919050555042816003018190555060006112c66109fb565b73ffffffffffffffffffffffffffffffffffffffff1663a9059cbb336002546040518363ffffffff1660e01b8152600401611302929190613e31565b602060405180830381600087803b15801561131c57600080fd5b505af1158015611330573d6000803e3d6000fd5b505050506040513d601f19601f820116820180604052508101906113549190613619565b905080611396576040517f08c379a000000000000000000000000000000000000000000000000000000000815260040161138d9061406c565b60405180910390fd5b3373ffffffffffffffffffffffffffffffffffffffff167fd54e03b214b3e8c17e98044f98554b6f1b18dd2a3163a2619afea7e9b2a6eb976002546040516113de9190614207565b60405180910390a25050565b6114147f241ecf16d79d0f8dbfb92cbc07fe17840425976cf0667f022fe9877caa831b0833611a47565b611453576040517f08c379a000000000000000000000000000000000000000000000000000000000815260040161144a9061408c565b60405180910390fd5b6000600c60008373ffffffffffffffffffffffffffffffffffffffff1673ffffffffffffffffffffffffffffffffffffffff1681526020019081526020016000209050600060038111156114aa576114a9614654565b5b8160000160009054906101000a900460ff1660038111156114ce576114cd614654565b5b1461150e576040517f08c379a000000000000000000000000000000000000000000000000000000000815260040161150590613fec565b60405180910390fd5b611519816001612ba2565b428160030181905550600061152c6109fb565b73ffffffffffffffffffffffffffffffffffffffff1663a9059cbb8466b1a2bc2ec500006040518363ffffffff1660e01b815260040161156d929190613e31565b602060405180830381600087803b15801561158757600080fd5b505af115801561159b573d6000803e3d6000fd5b505050506040513d601f19601f820116820180604052508101906115bf9190613619565b905080611601576040517f08c379a00000000000000000000000000000000000000000000000000000000081526004016115f8906140cc565b60405180910390fd5b61161583600d612ced90919063ffffffff16565b508273ffffffffffffffffffffffffffffffffffffffff167fc3e089fc6227e049d0e41c3d7a383d57efe69c1955c5752f7e5a9b5f1f11302060405160405180910390a2505050565b6116887f241ecf16d79d0f8dbfb92cbc07fe17840425976cf0667f022fe9877caa831b0833611a47565b6116c7576040517f08c379a00000000000000000000000000000000000000000000000000000000081526004016116be9061408c565b60405180910390fd5b6000600c60008373ffffffffffffffffffffffffffffffffffffffff1673ffffffffffffffffffffffffffffffffffffffff16815260200190815260200160002090506001600381111561171e5761171d614654565b5b8160000160009054906101000a900460ff16600381111561174257611741614654565b5b148061178357506002600381111561175d5761175c614654565b5b8160000160009054906101000a900460ff16600381111561178157611780614654565b5b145b6117c2576040517f08c379a00000000000000000000000000000000000000000000000000000000081526004016117b9906141ac565b60405180910390fd5b6117cd816003612ba2565b8173ffffffffffffffffffffffffffffffffffffffff167f72977dad29432f655f11c2f0e72ef5124bb9ade7a512fb7a43a9f504df22342860405160405180910390a25050565b6000600454905090565b6000600b60009054906101000a900473ffffffffffffffffffffffffffffffffffffffff16905090565b66b1a2bc2ec5000081565b61185b6128b6565b73ffffffffffffffffffffffffffffffffffffffff16611879611a1d565b73ffffffffffffffffffffffffffffffffffffffff16146118cf576040517f08c379a00000000000000000000000000000000000000000000000000000000081526004016118c69061402c565b60405180910390fd5b6118d96000612d1d565b565b600a60009054906101000a900473ffffffffffffffffffffffffffffffffffffffff1673ffffffffffffffffffffffffffffffffffffffff166391d148547f241ecf16d79d0f8dbfb92cbc07fe17840425976cf0667f022fe9877caa831b08336040518363ffffffff1660e01b8152600401611958929190613e90565b60206040518083038186803b15801561197057600080fd5b505afa158015611984573d6000803e3d6000fd5b505050506040513d601f19601f820116820180604052508101906119a89190613619565b6119e7576040517f08c379a00000000000000000000000000000000000000000000000000000000081526004016119de90613fcc565b60405180910390fd5b611a117f241ecf16d79d0f8dbfb92cbc07fe17840425976cf0667f022fe9877caa831b0833610fb2565b565b6000600254905090565b6000600160009054906101000a900473ffffffffffffffffffffffffffffffffffffffff16905090565b600080600084815260200190815260200160002060000160008373ffffffffffffffffffffffffffffffffffffffff1673ffffffffffffffffffffffffffffffffffffffff16815260200190815260200160002060009054906101000a900460ff16905092915050565b6000600754905090565b6000611ac682611e52565b600c60008473ffffffffffffffffffffffffffffffffffffffff1673ffffffffffffffffffffffffffffffffffffffff16815260200190815260200160002060030154611b1391906142d7565b9050919050565b6000611b3082600d612de390919063ffffffff16565b9050919050565b6000801b81565b6000600c60003373ffffffffffffffffffffffffffffffffffffffff1673ffffffffffffffffffffffffffffffffffffffff16815260200190815260200160002090506000600a60009054906101000a900473ffffffffffffffffffffffffffffffffffffffff1673ffffffffffffffffffffffffffffffffffffffff166301567739336040518263ffffffff1660e01b8152600401611bde9190613ddf565b60806040518083038186803b158015611bf657600080fd5b505afa158015611c0a573d6000803e3d6000fd5b505050506040513d601f19601f82011682018060405250810190611c2e91906137cd565b9050611c3e828260000151612ba2565b80606001518260030181905550806040015182600201819055506001600454600354600a60009054906101000a900473ffffffffffffffffffffffffffffffffffffffff1673ffffffffffffffffffffffffffffffffffffffff1663a8f3e063336040518263ffffffff1660e01b8152600401611cbb9190613ddf565b60206040518083038186803b158015611cd357600080fd5b505afa158015611ce7573d6000803e3d6000fd5b505050506040513d601f19601f82011682018060405250810190611d0b9190613827565b611d1591906143b8565b611d1f919061432d565b611d2991906142d7565b826001018190555060006003811115611d4557611d44614654565b5b8260000160009054906101000a900460ff166003811115611d6957611d68614654565b5b1415611d8557611d8333600d612ced90919063ffffffff16565b505b5050565b611db37f241ecf16d79d0f8dbfb92cbc07fe17840425976cf0667f022fe9877caa831b0833611a47565b611df2576040517f08c379a0000000000000000000000000000000000000000000000000000000008152600401611de99061408c565b60405180910390fd5b6000600160146101000a81548160ff0219169083151502179055503373ffffffffffffffffffffffffffffffffffffffff167f4e50048c25972c85ad169c2302967f1e633e8dc6108d6aca51a90d2a59d4934d60405160405180910390a2565b600080600c60008473ffffffffffffffffffffffffffffffffffffffff1673ffffffffffffffffffffffffffffffffffffffff1681526020019081526020016000209050600081600101541415611ead576000915050611edc565b60045460018260010154611ec191906143b8565b611ecb919061435e565b600354611ed891906142d7565b9150505b919050565b611f0b7f241ecf16d79d0f8dbfb92cbc07fe17840425976cf0667f022fe9877caa831b0833611a47565b611f4a576040517f08c379a0000000000000000000000000000000000000000000000000000000008152600401611f419061408c565b60405180910390fd5b611f747f241ecf16d79d0f8dbfb92cbc07fe17840425976cf0667f022fe9877caa831b08826125ce565b8073ffffffffffffffffffffffffffffffffffffffff167fef69f7d97228658c92417be1b16b19058315de71fecb435d07b7d23728b6bd3160405160405180910390a250565b611fe47f241ecf16d79d0f8dbfb92cbc07fe17840425976cf0667f022fe9877caa831b0833611a47565b612023576040517f08c379a000000000000000000000000000000000000000000000000000000000815260040161201a9061408c565b60405180910390fd5b600b60009054906101000a900473ffffffffffffffffffffffffffffffffffffffff1673ffffffffffffffffffffffffffffffffffffffff1663174a71d76040518163ffffffff1660e01b8152600401600060405180830381600087803b15801561208d57600080fd5b505af11580156120a1573d6000803e3d6000fd5b50505050565b6120af6128b6565b73ffffffffffffffffffffffffffffffffffffffff166120cd611a1d565b73ffffffffffffffffffffffffffffffffffffffff1614612123576040517f08c379a000000000000000000000000000000000000000000000000000000000815260040161211a9061402c565b60405180910390fd5b808211612165576040517f08c379a000000000000000000000000000000000000000000000000000000000815260040161215c9061416c565b60405180910390fd5b8484116121a7576040517f08c379a000000000000000000000000000000000000000000000000000000000815260040161219e90613f8c565b60405180910390fd5b84600281905550836005819055508260098190555081600381905550806004819055507f39af63eb8c9c237288f5b888a24aa4e8b53d53b76e83275936b3b22829a02c2560025460055460095460035460045460405161220b959493929190614222565b60405180910390a15050505050565b6122226128b6565b73ffffffffffffffffffffffffffffffffffffffff16612240611a1d565b73ffffffffffffffffffffffffffffffffffffffff1614612296576040517f08c379a000000000000000000000000000000000000000000000000000000000815260040161228d9061402c565b60405180910390fd5b80600760008282546122a891906142d7565b9250508190555050565b600090565b6122e17f241ecf16d79d0f8dbfb92cbc07fe17840425976cf0667f022fe9877caa831b0833611a47565b612320576040517f08c379a00000000000000000000000000000000000000000000000000000000081526004016123179061408c565b60405180910390fd5b6000600c60008373ffffffffffffffffffffffffffffffffffffffff1673ffffffffffffffffffffffffffffffffffffffff16815260200190815260200160002090506001600381111561237757612376614654565b5b8160000160009054906101000a900460ff16600381111561239b5761239a614654565b5b146123db576040517f08c379a00000000000000000000000000000000000000000000000000000000081526004016123d29061410c565b60405180910390fd5b6123e6816002612ba2565b8173ffffffffffffffffffffffffffffffffffffffff167f8bbf1861fd29297756bc2ec1496a157359ea7fda5746df5233b4fc3e8124511860405160405180910390a25050565b6000600954905090565b6000600160149054906101000a900460ff16905090565b6124787f241ecf16d79d0f8dbfb92cbc07fe17840425976cf0667f022fe9877caa831b0833611a47565b6124b7576040517f08c379a00000000000000000000000000000000000000000000000000000000081526004016124ae9061408c565b60405180910390fd5b6000600c60008373ffffffffffffffffffffffffffffffffffffffff1673ffffffffffffffffffffffffffffffffffffffff16815260200190815260200160002090506002600381111561250e5761250d614654565b5b8160000160009054906101000a900460ff16600381111561253257612531614654565b5b14612572576040517f08c379a00000000000000000000000000000000000000000000000000000000081526004016125699061400c565b60405180910390fd5b61257d816001612ba2565b8173ffffffffffffffffffffffffffffffffffffffff167fb84ab42066834057600f08f7bc7564111d6f5c12497b99f98d02346aed682a1460405160405180910390a25050565b6000600554905090565b6125d782610eba565b6125e8816125e36128b6565b612944565b6125f28383612ac1565b505050565b6000600854905090565b61263582308361260f6109fb565b73ffffffffffffffffffffffffffffffffffffffff16612dfd909392919063ffffffff16565b806008600082825461264791906142d7565b925050819055505050565b600061265e600d612e86565b905090565b7f241ecf16d79d0f8dbfb92cbc07fe17840425976cf0667f022fe9877caa831b0881565b61268f6128b6565b73ffffffffffffffffffffffffffffffffffffffff166126ad611a1d565b73ffffffffffffffffffffffffffffffffffffffff1614612703576040517f08c379a00000000000000000000000000000000000000000000000000000000081526004016126fa9061402c565b60405180910390fd5b600073ffffffffffffffffffffffffffffffffffffffff168173ffffffffffffffffffffffffffffffffffffffff161415612773576040517f08c379a000000000000000000000000000000000000000000000000000000000815260040161276a90613f6c565b60405180910390fd5b61277c81612d1d565b50565b6127a97f241ecf16d79d0f8dbfb92cbc07fe17840425976cf0667f022fe9877caa831b0833611a47565b6127e8576040517f08c379a00000000000000000000000000000000000000000000000000000000081526004016127df9061408c565b60405180910390fd5b60018060146101000a81548160ff0219169083151502179055503373ffffffffffffffffffffffffffffffffffffffff167fe1e6bc10311f2f958d6cd2d0ab7308c32089aa1acb8ab11a2ccb60028e332bd060405160405180910390a2565b600181565b60007f01ffc9a7000000000000000000000000000000000000000000000000000000007bffffffffffffffffffffffffffffffffffffffffffffffffffffffff1916827bffffffffffffffffffffffffffffffffffffffffffffffffffffffff1916149050919050565b600033905090565b61293f8363a9059cbb60e01b84846040516024016128dd929190613e31565b604051602081830303815290604052907bffffffffffffffffffffffffffffffffffffffffffffffffffffffff19166020820180517bffffffffffffffffffffffffffffffffffffffffffffffffffffffff8381831617835250505050612e9b565b505050565b61294e8282611a47565b6129dd576129738173ffffffffffffffffffffffffffffffffffffffff166014612f62565b6129818360001c6020612f62565b604051602001612992929190613da5565b6040516020818303038152906040526040517f08c379a00000000000000000000000000000000000000000000000000000000081526004016129d49190613f0a565b60405180910390fd5b5050565b6129eb8282611a47565b612abd57600160008084815260200190815260200160002060000160008373ffffffffffffffffffffffffffffffffffffffff1673ffffffffffffffffffffffffffffffffffffffff16815260200190815260200160002060006101000a81548160ff021916908315150217905550612a626128b6565b73ffffffffffffffffffffffffffffffffffffffff168173ffffffffffffffffffffffffffffffffffffffff16837f2f8788117e7eff1d82e926ec794901d17c78024a50270940304540a733656f0d60405160405180910390a45b5050565b612acb8282611a47565b15612b9e57600080600084815260200190815260200160002060000160008373ffffffffffffffffffffffffffffffffffffffff1673ffffffffffffffffffffffffffffffffffffffff16815260200190815260200160002060006101000a81548160ff021916908315150217905550612b436128b6565b73ffffffffffffffffffffffffffffffffffffffff168173ffffffffffffffffffffffffffffffffffffffff16837ff6391f5c32d9c69d2a47ea670b442974b53935d1edc7fd64eb21e047a839171b60405160405180910390a45b5050565b806003811115612bb557612bb4614654565b5b8260000160009054906101000a900460ff166003811115612bd957612bd8614654565b5b1415612be457612ce9565b60016003811115612bf857612bf7614654565b5b816003811115612c0b57612c0a614654565b5b1415612c495760066000815480929190612c24906145ad565b919050555060095460026000828254612c3d91906143b8565b92505081905550612cbc565b60016003811115612c5d57612c5c614654565b5b8260000160009054906101000a900460ff166003811115612c8157612c80614654565b5b1415612cbb5760066000815480929190612c9a90614552565b919050555060095460026000828254612cb391906142d7565b925050819055505b5b808260000160006101000a81548160ff02191690836003811115612ce357612ce2614654565b5b02179055505b5050565b6000612d15836000018373ffffffffffffffffffffffffffffffffffffffff1660001b61319e565b905092915050565b6000600160009054906101000a900473ffffffffffffffffffffffffffffffffffffffff16905081600160006101000a81548173ffffffffffffffffffffffffffffffffffffffff021916908373ffffffffffffffffffffffffffffffffffffffff1602179055508173ffffffffffffffffffffffffffffffffffffffff168173ffffffffffffffffffffffffffffffffffffffff167f8be0079c531659141344cd1fd0a4f28419497f9722a3daafe3b4186f6b6457e060405160405180910390a35050565b6000612df2836000018361320e565b60001c905092915050565b612e80846323b872dd60e01b858585604051602401612e1e93929190613dfa565b604051602081830303815290604052907bffffffffffffffffffffffffffffffffffffffffffffffffffffffff19166020820180517bffffffffffffffffffffffffffffffffffffffffffffffffffffffff8381831617835250505050612e9b565b50505050565b6000612e9482600001613239565b9050919050565b6000612efd826040518060400160405280602081526020017f5361666545524332303a206c6f772d6c6576656c2063616c6c206661696c65648152508573ffffffffffffffffffffffffffffffffffffffff1661324a9092919063ffffffff16565b9050600081511115612f5d5780806020019051810190612f1d9190613619565b612f5c576040517f08c379a0000000000000000000000000000000000000000000000000000000008152600401612f539061414c565b60405180910390fd5b5b505050565b606060006002836002612f75919061435e565b612f7f91906142d7565b67ffffffffffffffff811115612f9857612f976146b2565b5b6040519080825280601f01601f191660200182016040528015612fca5781602001600182028036833780820191505090505b5090507f30000000000000000000000000000000000000000000000000000000000000008160008151811061300257613001614683565b5b60200101907effffffffffffffffffffffffffffffffffffffffffffffffffffffffffffff1916908160001a9053507f78000000000000000000000000000000000000000000000000000000000000008160018151811061306657613065614683565b5b60200101907effffffffffffffffffffffffffffffffffffffffffffffffffffffffffffff1916908160001a905350600060018460026130a6919061435e565b6130b091906142d7565b90505b6001811115613150577f3031323334353637383961626364656600000000000000000000000000000000600f8616601081106130f2576130f1614683565b5b1a60f81b82828151811061310957613108614683565b5b60200101907effffffffffffffffffffffffffffffffffffffffffffffffffffffffffffff1916908160001a905350600485901c94508061314990614552565b90506130b3565b5060008414613194576040517f08c379a000000000000000000000000000000000000000000000000000000000815260040161318b90613f2c565b60405180910390fd5b8091505092915050565b60006131aa8383613262565b613203578260000182908060018154018082558091505060019003906000526020600020016000909190919091505582600001805490508360010160008481526020019081526020016000208190555060019050613208565b600090505b92915050565b600082600001828154811061322657613225614683565b5b9060005260206000200154905092915050565b600081600001805490509050919050565b60606132598484600085613285565b90509392505050565b600080836001016000848152602001908152602001600020541415905092915050565b6060824710156132ca576040517f08c379a00000000000000000000000000000000000000000000000000000000081526004016132c190613fac565b60405180910390fd5b6132d385613399565b613312576040517f08c379a0000000000000000000000000000000000000000000000000000000008152600401613309906140ec565b60405180910390fd5b6000808673ffffffffffffffffffffffffffffffffffffffff16858760405161333b9190613d8e565b60006040518083038185875af1925050503d8060008114613378576040519150601f19603f3d011682016040523d82523d6000602084013e61337d565b606091505b509150915061338d8282866133ac565b92505050949350505050565b600080823b905060008111915050919050565b606083156133bc5782905061340c565b6000835111156133cf5782518084602001fd5b816040517f08c379a00000000000000000000000000000000000000000000000000000000081526004016134039190613f0a565b60405180910390fd5b9392505050565b60405180608001604052806000600381111561343257613431614654565b5b81526020016000815260200160008152602001600081525090565b60008135905061345c81614cfc565b92915050565b60008151905061347181614d13565b92915050565b60008135905061348681614d2a565b92915050565b60008135905061349b81614d41565b92915050565b6000813590506134b081614d58565b92915050565b6000815190506134c581614d58565b92915050565b6000813590506134da81614d6f565b92915050565b6000815190506134ef81614d6f565b92915050565b60008151905061350481614d86565b92915050565b6000608082840312156135205761351f6146e1565b5b61352a6080614275565b9050600061353a848285016134f5565b600083015250602061354e84828501613597565b602083015250604061356284828501613597565b604083015250606061357684828501613597565b60608301525092915050565b60008135905061359181614d96565b92915050565b6000815190506135a681614d96565b92915050565b6000602082840312156135c2576135c16146e6565b5b60006135d08482850161344d565b91505092915050565b600080604083850312156135f0576135ef6146e6565b5b60006135fe8582860161344d565b925050602061360f85828601613582565b9150509250929050565b60006020828403121561362f5761362e6146e6565b5b600061363d84828501613462565b91505092915050565b60006020828403121561365c5761365b6146e6565b5b600061366a84828501613477565b91505092915050565b6000806040838503121561368a576136896146e6565b5b600061369885828601613477565b92505060206136a98582860161344d565b9150509250929050565b6000602082840312156136c9576136c86146e6565b5b60006136d78482850161348c565b91505092915050565b6000602082840312156136f6576136f56146e6565b5b6000613704848285016134b6565b91505092915050565b60008060408385031215613724576137236146e6565b5b6000613732858286016134a1565b92505060206137438582860161344d565b9150509250929050565b600060208284031215613763576137626146e6565b5b6000613771848285016134e0565b91505092915050565b600080600060608486031215613793576137926146e6565b5b60006137a1868287016134cb565b93505060206137b28682870161344d565b92505060406137c386828701613582565b9150509250925092565b6000608082840312156137e3576137e26146e6565b5b60006137f18482850161350a565b91505092915050565b6000602082840312156138105761380f6146e6565b5b600061381e84828501613582565b91505092915050565b60006020828403121561383d5761383c6146e6565b5b600061384b84828501613597565b91505092915050565b600080600080600060a086880312156138705761386f6146e6565b5b600061387e88828901613582565b955050602061388f88828901613582565b94505060406138a088828901613582565b93505060606138b188828901613582565b92505060806138c288828901613582565b9150509295509295909350565b6138d8816143ec565b82525050565b6138e7816143fe565b82525050565b6138f68161440a565b82525050565b60006139078261429a565b61391181856142b0565b935061392181856020860161451f565b80840191505092915050565b613936816144a1565b82525050565b613945816144c5565b82525050565b613954816144e9565b82525050565b6139638161450d565b82525050565b6000613974826142a5565b61397e81856142bb565b935061398e81856020860161451f565b613997816146eb565b840191505092915050565b60006139ad826142a5565b6139b781856142cc565b93506139c781856020860161451f565b80840191505092915050565b60006139e06020836142bb565b91506139eb826146fc565b602082019050919050565b6000613a036024836142bb565b9150613a0e82614725565b604082019050919050565b6000613a266026836142bb565b9150613a3182614774565b604082019050919050565b6000613a496041836142bb565b9150613a54826147c3565b606082019050919050565b6000613a6c6026836142bb565b9150613a7782614838565b604082019050919050565b6000613a8f600b836142bb565b9150613a9a82614887565b602082019050919050565b6000613ab26022836142bb565b9150613abd826148b0565b604082019050919050565b6000613ad56025836142bb565b9150613ae0826148ff565b604082019050919050565b6000613af86020836142bb565b9150613b038261494e565b602082019050919050565b6000613b1b6020836142bb565b9150613b2682614977565b602082019050919050565b6000613b3e601d836142bb565b9150613b49826149a0565b602082019050919050565b6000613b616016836142bb565b9150613b6c826149c9565b602082019050919050565b6000613b846019836142bb565b9150613b8f826149f2565b602082019050919050565b6000613ba76026836142bb565b9150613bb282614a1b565b604082019050919050565b6000613bca601d836142bb565b9150613bd582614a6a565b602082019050919050565b6000613bed6023836142bb565b9150613bf882614a93565b604082019050919050565b6000613c10601b836142bb565b9150613c1b82614ae2565b602082019050919050565b6000613c336017836142cc565b9150613c3e82614b0b565b601782019050919050565b6000613c56602a836142bb565b9150613c6182614b34565b604082019050919050565b6000613c79604b836142bb565b9150613c8482614b83565b606082019050919050565b6000613c9c6006836142bb565b9150613ca782614bf8565b602082019050919050565b6000613cbf6025836142bb565b9150613cca82614c21565b604082019050919050565b6000613ce26011836142cc565b9150613ced82614c70565b601182019050919050565b6000613d05602f836142bb565b9150613d1082614c99565b604082019050919050565b608082016000820151613d31600085018261395a565b506020820151613d446020850182613d70565b506040820151613d576040850182613d70565b506060820151613d6a6060850182613d70565b50505050565b613d7981614497565b82525050565b613d8881614497565b82525050565b6000613d9a82846138fc565b915081905092915050565b6000613db082613c26565b9150613dbc82856139a2565b9150613dc782613cd5565b9150613dd382846139a2565b91508190509392505050565b6000602082019050613df460008301846138cf565b92915050565b6000606082019050613e0f60008301866138cf565b613e1c60208301856138cf565b613e296040830184613d7f565b949350505050565b6000604082019050613e4660008301856138cf565b613e536020830184613d7f565b9392505050565b6000602082019050613e6f60008301846138de565b92915050565b6000602082019050613e8a60008301846138ed565b92915050565b6000604082019050613ea560008301856138ed565b613eb260208301846138cf565b9392505050565b6000602082019050613ece600083018461392d565b92915050565b6000602082019050613ee9600083018461393c565b92915050565b6000602082019050613f04600083018461394b565b92915050565b60006020820190508181036000830152613f248184613969565b905092915050565b60006020820190508181036000830152613f45816139d3565b9050919050565b60006020820190508181036000830152613f65816139f6565b9050919050565b60006020820190508181036000830152613f8581613a19565b9050919050565b60006020820190508181036000830152613fa581613a3c565b9050919050565b60006020820190508181036000830152613fc581613a5f565b9050919050565b60006020820190508181036000830152613fe581613a82565b9050919050565b6000602082019050818103600083015261400581613aa5565b9050919050565b6000602082019050818103600083015261402581613ac8565b9050919050565b6000602082019050818103600083015261404581613aeb565b9050919050565b6000602082019050818103600083015261406581613b0e565b9050919050565b6000602082019050818103600083015261408581613b31565b9050919050565b600060208201905081810360008301526140a581613b54565b9050919050565b600060208201905081810360008301526140c581613b77565b9050919050565b600060208201905081810360008301526140e581613b9a565b9050919050565b6000602082019050818103600083015261410581613bbd565b9050919050565b6000602082019050818103600083015261412581613be0565b9050919050565b6000602082019050818103600083015261414581613c03565b9050919050565b6000602082019050818103600083015261416581613c49565b9050919050565b6000602082019050818103600083015261418581613c6c565b9050919050565b600060208201905081810360008301526141a581613c8f565b9050919050565b600060208201905081810360008301526141c581613cb2565b9050919050565b600060208201905081810360008301526141e581613cf8565b9050919050565b60006080820190506142016000830184613d1b565b92915050565b600060208201905061421c6000830184613d7f565b92915050565b600060a0820190506142376000830188613d7f565b6142446020830187613d7f565b6142516040830186613d7f565b61425e6060830185613d7f565b61426b6080830184613d7f565b9695505050505050565b600061427f614290565b905061428b828261457c565b919050565b6000604051905090565b600081519050919050565b600081519050919050565b600081905092915050565b600082825260208201905092915050565b600081905092915050565b60006142e282614497565b91506142ed83614497565b9250827fffffffffffffffffffffffffffffffffffffffffffffffffffffffffffffffff03821115614322576143216145f6565b5b828201905092915050565b600061433882614497565b915061434383614497565b92508261435357614352614625565b5b828204905092915050565b600061436982614497565b915061437483614497565b9250817fffffffffffffffffffffffffffffffffffffffffffffffffffffffffffffffff04831182151516156143ad576143ac6145f6565b5b828202905092915050565b60006143c382614497565b91506143ce83614497565b9250828210156143e1576143e06145f6565b5b828203905092915050565b60006143f782614477565b9050919050565b60008115159050919050565b6000819050919050565b60007fffffffff0000000000000000000000000000000000000000000000000000000082169050919050565b600061444b826143ec565b9050919050565b600061445d826143ec565b9050919050565b600081905061447282614ce8565b919050565b600073ffffffffffffffffffffffffffffffffffffffff82169050919050565b6000819050919050565b60006144ac826144b3565b9050919050565b60006144be82614477565b9050919050565b60006144d0826144d7565b9050919050565b60006144e282614477565b9050919050565b60006144f4826144fb565b9050919050565b600061450682614477565b9050919050565b600061451882614464565b9050919050565b60005b8381101561453d578082015181840152602081019050614522565b8381111561454c576000848401525b50505050565b600061455d82614497565b91506000821415614571576145706145f6565b5b600182039050919050565b614585826146eb565b810181811067ffffffffffffffff821117156145a4576145a36146b2565b5b80604052505050565b60006145b882614497565b91507fffffffffffffffffffffffffffffffffffffffffffffffffffffffffffffffff8214156145eb576145ea6145f6565b5b600182019050919050565b7f4e487b7100000000000000000000000000000000000000000000000000000000600052601160045260246000fd5b7f4e487b7100000000000000000000000000000000000000000000000000000000600052601260045260246000fd5b7f4e487b7100000000000000000000000000000000000000000000000000000000600052602160045260246000fd5b7f4e487b7100000000000000000000000000000000000000000000000000000000600052603260045260246000fd5b7f4e487b7100000000000000000000000000000000000000000000000000000000600052604160045260246000fd5b600080fd5b600080fd5b6000601f19601f8301169050919050565b7f537472696e67733a20686578206c656e67746820696e73756666696369656e74600082015250565b7f436f6d6d756e6974793a3a6d69677261746546756e64733a204e4f545f414c4c60008201527f4f57454400000000000000000000000000000000000000000000000000000000602082015250565b7f4f776e61626c653a206e6577206f776e657220697320746865207a65726f206160008201527f6464726573730000000000000000000000000000000000000000000000000000602082015250565b7f436f6d6d756e6974793a3a636f6e7374727563746f723a206d6178436c61696d60008201527f206d7573742062652067726561746572207468616e20636c61696d416d6f756e60208201527f7400000000000000000000000000000000000000000000000000000000000000604082015250565b7f416464726573733a20696e73756666696369656e742062616c616e636520666f60008201527f722063616c6c0000000000000000000000000000000000000000000000000000602082015250565b7f4e4f545f414c4c4f574544000000000000000000000000000000000000000000600082015250565b7f436f6d6d756e6974793a3a61646442656e65666963696172793a204e4f545f5960008201527f4554000000000000000000000000000000000000000000000000000000000000602082015250565b7f436f6d6d756e6974793a3a756e6c6f636b42656e65666963696172793a204e4f60008201527f545f594554000000000000000000000000000000000000000000000000000000602082015250565b7f4f776e61626c653a2063616c6c6572206973206e6f7420746865206f776e6572600082015250565b7f436f6d6d756e6974793a204e4f545f56414c49445f42454e4546494349415259600082015250565b7f436f6d6d756e6974793a3a636c61696d3a204e4f545f414c4c4f574544000000600082015250565b7f436f6d6d756e6974793a204e4f545f4d414e4147455200000000000000000000600082015250565b7f436f6d6d756e6974793a3a636c61696d3a204e4f545f59455400000000000000600082015250565b7f436f6d6d756e6974793a3a61646442656e65666963696172793a204e4f545f4160008201527f4c4c4f5745440000000000000000000000000000000000000000000000000000602082015250565b7f416464726573733a2063616c6c20746f206e6f6e2d636f6e7472616374000000600082015250565b7f436f6d6d756e6974793a3a6c6f636b42656e65666963696172793a204e4f545f60008201527f5945540000000000000000000000000000000000000000000000000000000000602082015250565b7f436f6d6d756e6974793a3a636c61696d3a204d41585f434c41494d0000000000600082015250565b7f416363657373436f6e74726f6c3a206163636f756e7420000000000000000000600082015250565b7f5361666545524332303a204552433230206f7065726174696f6e20646964206e60008201527f6f74207375636365656400000000000000000000000000000000000000000000602082015250565b7f436f6d6d756e6974793a3a636f6e7374727563746f723a2062617365496e746560008201527f7276616c206d7573742062652067726561746572207468616e20696e6372656d60208201527f656e74496e74657276616c000000000000000000000000000000000000000000604082015250565b7f4c4f434b45440000000000000000000000000000000000000000000000000000600082015250565b7f436f6d6d756e6974793a3a72656d6f766542656e65666963696172793a204e4f60008201527f545f594554000000000000000000000000000000000000000000000000000000602082015250565b7f206973206d697373696e6720726f6c6520000000000000000000000000000000600082015250565b7f416363657373436f6e74726f6c3a2063616e206f6e6c792072656e6f756e636560008201527f20726f6c657320666f722073656c660000000000000000000000000000000000602082015250565b60048110614cf957614cf8614654565b5b50565b614d05816143ec565b8114614d1057600080fd5b50565b614d1c816143fe565b8114614d2757600080fd5b50565b614d338161440a565b8114614d3e57600080fd5b50565b614d4a81614414565b8114614d5557600080fd5b50565b614d6181614440565b8114614d6c57600080fd5b50565b614d7881614452565b8114614d8357600080fd5b50565b60048110614d9357600080fd5b50565b614d9f81614497565b8114614daa57600080fd5b5056fea2646970667358221220e6a2e62a7db4544f3690e7d125f984207f9381d5c8ea6dfab446dc591028237f64736f6c63430008050033a2646970667358221220c1cbd9a3370a229b4ea48b5267fa0d669d751e2609387e381bd3060c212f601c64736f6c63430008050033",
  "devdoc": {
    "kind": "dev",
    "methods": {
      "deployCommunity(address,uint256,uint256,uint256,uint256,address)": {
        "details": "Add a new community. Can be used only by an admin. For further information regarding each parameter, see *Community* smart contract constructor."
      },
      "owner()": {
        "details": "Returns the address of the current owner."
      },
      "renounceOwnership()": {
        "details": "Leaves the contract without owner. It will not be possible to call `onlyOwner` functions anymore. Can only be called by the current owner. NOTE: Renouncing ownership will leave the contract without an owner, thereby removing any functionality that is only available to the owner."
      },
      "transferOwnership(address)": {
        "details": "Transfers ownership of the contract to a new account (`newOwner`). Can only be called by the current owner."
      }
    },
    "version": 1
  },
  "userdoc": {
    "kind": "user",
    "methods": {},
    "notice": "Welcome to CommunityAdminHelper",
    "version": 1
  },
  "storageLayout": {
    "storage": [
      {
        "astId": 780,
        "contract": "contracts/community/CommunityAdminHelper.sol:CommunityAdminHelper",
        "label": "_owner",
        "offset": 0,
        "slot": "0",
        "type": "t_address"
      },
      {
        "astId": 6296,
        "contract": "contracts/community/CommunityAdminHelper.sol:CommunityAdminHelper",
        "label": "_communityAdmin",
        "offset": 0,
        "slot": "1",
        "type": "t_contract(ICommunityAdmin)7541"
      }
    ],
    "types": {
      "t_address": {
        "encoding": "inplace",
        "label": "address",
        "numberOfBytes": "20"
      },
      "t_contract(ICommunityAdmin)7541": {
        "encoding": "inplace",
        "label": "contract ICommunityAdmin",
        "numberOfBytes": "20"
      }
    }
  }
}