{
  "address": "0xFD63395526ef820C5E2A379a36cD578E419b1a71",
  "abi": [
    {
      "anonymous": false,
      "inputs": [
        {
          "indexed": true,
          "internalType": "address",
          "name": "oldAmbassadors",
          "type": "address"
        },
        {
          "indexed": true,
          "internalType": "address",
          "name": "newAmbassadors",
          "type": "address"
        }
      ],
      "name": "AmbassadorsUpdated",
      "type": "event"
    },
    {
      "anonymous": false,
      "inputs": [
        {
          "indexed": true,
          "internalType": "address",
          "name": "communityAddress",
          "type": "address"
        },
        {
          "indexed": false,
          "internalType": "address[]",
          "name": "managers",
          "type": "address[]"
        },
        {
          "indexed": false,
          "internalType": "uint256",
          "name": "claimAmount",
          "type": "uint256"
        },
        {
          "indexed": false,
          "internalType": "uint256",
          "name": "maxClaim",
          "type": "uint256"
        },
        {
          "indexed": false,
          "internalType": "uint256",
          "name": "decreaseStep",
          "type": "uint256"
        },
        {
          "indexed": false,
          "internalType": "uint256",
          "name": "baseInterval",
          "type": "uint256"
        },
        {
          "indexed": false,
          "internalType": "uint256",
          "name": "incrementInterval",
          "type": "uint256"
        },
        {
          "indexed": false,
          "internalType": "uint256",
          "name": "minTranche",
          "type": "uint256"
        },
        {
          "indexed": false,
          "internalType": "uint256",
          "name": "maxTranche",
          "type": "uint256"
        }
      ],
      "name": "CommunityAdded",
      "type": "event"
    },
    {
      "anonymous": false,
      "inputs": [
        {
          "indexed": true,
          "internalType": "address",
          "name": "community",
          "type": "address"
        },
        {
          "indexed": false,
          "internalType": "uint256",
          "name": "amount",
          "type": "uint256"
        }
      ],
      "name": "CommunityFunded",
      "type": "event"
    },
    {
      "anonymous": false,
      "inputs": [
        {
          "indexed": true,
          "internalType": "address",
          "name": "oldCommunityImplementation",
          "type": "address"
        },
        {
          "indexed": true,
          "internalType": "address",
          "name": "newCommunityImplementation",
          "type": "address"
        }
      ],
      "name": "CommunityImplementationUpdated",
      "type": "event"
    },
    {
      "anonymous": false,
      "inputs": [
        {
          "indexed": false,
          "internalType": "address",
          "name": "oldCommunityMiddleProxy",
          "type": "address"
        },
        {
          "indexed": false,
          "internalType": "address",
          "name": "newCommunityMiddleProxy",
          "type": "address"
        }
      ],
      "name": "CommunityMiddleProxyUpdated",
      "type": "event"
    },
    {
      "anonymous": false,
      "inputs": [
        {
          "indexed": false,
          "internalType": "address[]",
          "name": "managers",
          "type": "address[]"
        },
        {
          "indexed": true,
          "internalType": "address",
          "name": "communityAddress",
          "type": "address"
        },
        {
          "indexed": true,
          "internalType": "address",
          "name": "previousCommunityAddress",
          "type": "address"
        }
      ],
      "name": "CommunityMigrated",
      "type": "event"
    },
    {
      "anonymous": false,
      "inputs": [
        {
          "indexed": true,
          "internalType": "address",
          "name": "communityAddress",
          "type": "address"
        }
      ],
      "name": "CommunityRemoved",
      "type": "event"
    },
    {
      "anonymous": false,
      "inputs": [
        {
          "indexed": true,
          "internalType": "address",
          "name": "oldImpactMarketCouncil",
          "type": "address"
        },
        {
          "indexed": true,
          "internalType": "address",
          "name": "newImpactMarketCouncil",
          "type": "address"
        }
      ],
      "name": "ImpactMarketCouncilUpdated",
      "type": "event"
    },
    {
      "anonymous": false,
      "inputs": [
        {
          "indexed": true,
          "internalType": "address",
          "name": "previousOwner",
          "type": "address"
        },
        {
          "indexed": true,
          "internalType": "address",
          "name": "newOwner",
          "type": "address"
        }
      ],
      "name": "OwnershipTransferred",
      "type": "event"
    },
    {
      "anonymous": false,
      "inputs": [
        {
          "indexed": true,
          "internalType": "address",
          "name": "token",
          "type": "address"
        },
        {
          "indexed": true,
          "internalType": "address",
          "name": "to",
          "type": "address"
        },
        {
          "indexed": false,
          "internalType": "uint256",
          "name": "amount",
          "type": "uint256"
        }
      ],
      "name": "TransferERC20",
      "type": "event"
    },
    {
      "anonymous": false,
      "inputs": [
        {
          "indexed": true,
          "internalType": "address",
          "name": "oldTreasury",
          "type": "address"
        },
        {
          "indexed": true,
          "internalType": "address",
          "name": "newTreasury",
          "type": "address"
        }
      ],
      "name": "TreasuryUpdated",
      "type": "event"
    },
    {
      "inputs": [
        {
          "internalType": "address[]",
          "name": "_managers",
          "type": "address[]"
        },
        {
          "internalType": "address",
          "name": "_ambassador",
          "type": "address"
        },
        {
          "internalType": "uint256",
          "name": "_claimAmount",
          "type": "uint256"
        },
        {
          "internalType": "uint256",
          "name": "_maxClaim",
          "type": "uint256"
        },
        {
          "internalType": "uint256",
          "name": "_decreaseStep",
          "type": "uint256"
        },
        {
          "internalType": "uint256",
          "name": "_baseInterval",
          "type": "uint256"
        },
        {
          "internalType": "uint256",
          "name": "_incrementInterval",
          "type": "uint256"
        },
        {
          "internalType": "uint256",
          "name": "_minTranche",
          "type": "uint256"
        },
        {
          "internalType": "uint256",
          "name": "_maxTranche",
          "type": "uint256"
        },
        {
          "internalType": "uint256",
          "name": "_maxBeneficiaries",
          "type": "uint256"
        }
      ],
      "name": "addCommunity",
      "outputs": [],
      "stateMutability": "nonpayable",
      "type": "function"
    },
    {
      "inputs": [],
      "name": "ambassadors",
      "outputs": [
        {
          "internalType": "contract IAmbassadors",
          "name": "",
          "type": "address"
        }
      ],
      "stateMutability": "view",
      "type": "function"
    },
    {
      "inputs": [],
      "name": "cUSD",
      "outputs": [
        {
          "internalType": "contract IERC20",
          "name": "",
          "type": "address"
        }
      ],
      "stateMutability": "view",
      "type": "function"
    },
    {
      "inputs": [
        {
          "internalType": "address",
          "name": "",
          "type": "address"
        }
      ],
      "name": "communities",
      "outputs": [
        {
          "internalType": "enum ICommunityAdmin.CommunityState",
          "name": "",
          "type": "uint8"
        }
      ],
      "stateMutability": "view",
      "type": "function"
    },
    {
      "inputs": [],
      "name": "communityImplementation",
      "outputs": [
        {
          "internalType": "contract ICommunity",
          "name": "",
          "type": "address"
        }
      ],
      "stateMutability": "view",
      "type": "function"
    },
    {
      "inputs": [
        {
          "internalType": "uint256",
          "name": "_index",
          "type": "uint256"
        }
      ],
      "name": "communityListAt",
      "outputs": [
        {
          "internalType": "address",
          "name": "",
          "type": "address"
        }
      ],
      "stateMutability": "view",
      "type": "function"
    },
    {
      "inputs": [],
      "name": "communityListLength",
      "outputs": [
        {
          "internalType": "uint256",
          "name": "",
          "type": "uint256"
        }
      ],
      "stateMutability": "view",
      "type": "function"
    },
    {
      "inputs": [],
      "name": "communityMiddleProxy",
      "outputs": [
        {
          "internalType": "address",
          "name": "",
          "type": "address"
        }
      ],
      "stateMutability": "view",
      "type": "function"
    },
    {
      "inputs": [],
      "name": "communityProxyAdmin",
      "outputs": [
        {
          "internalType": "contract ProxyAdmin",
          "name": "",
          "type": "address"
        }
      ],
      "stateMutability": "view",
      "type": "function"
    },
    {
      "inputs": [],
      "name": "fundCommunity",
      "outputs": [],
      "stateMutability": "nonpayable",
      "type": "function"
    },
    {
      "inputs": [],
      "name": "getVersion",
      "outputs": [
        {
          "internalType": "uint256",
          "name": "",
          "type": "uint256"
        }
      ],
      "stateMutability": "pure",
      "type": "function"
    },
    {
      "inputs": [],
      "name": "impactMarketCouncil",
      "outputs": [
        {
          "internalType": "contract IImpactMarketCouncil",
          "name": "",
          "type": "address"
        }
      ],
      "stateMutability": "view",
      "type": "function"
    },
    {
      "inputs": [
        {
          "internalType": "contract ICommunity",
          "name": "_communityImplementation",
          "type": "address"
        },
        {
          "internalType": "contract IERC20",
          "name": "_cUSD",
          "type": "address"
        }
      ],
      "name": "initialize",
      "outputs": [],
      "stateMutability": "nonpayable",
      "type": "function"
    },
    {
      "inputs": [
        {
          "internalType": "address",
          "name": "_community",
          "type": "address"
        },
        {
          "internalType": "address",
          "name": "_ambassadorOrEntity",
          "type": "address"
        }
      ],
      "name": "isAmbassadorOrEntityOfCommunity",
      "outputs": [
        {
          "internalType": "bool",
          "name": "",
          "type": "bool"
        }
      ],
      "stateMutability": "view",
      "type": "function"
    },
    {
      "inputs": [
        {
          "internalType": "address[]",
          "name": "_managers",
          "type": "address[]"
        },
        {
          "internalType": "contract ICommunity",
          "name": "_previousCommunity",
          "type": "address"
        }
      ],
      "name": "migrateCommunity",
      "outputs": [],
      "stateMutability": "nonpayable",
      "type": "function"
    },
    {
      "inputs": [],
      "name": "owner",
      "outputs": [
        {
          "internalType": "address",
          "name": "",
          "type": "address"
        }
      ],
      "stateMutability": "view",
      "type": "function"
    },
    {
      "inputs": [
        {
          "internalType": "contract ICommunity",
          "name": "_community",
          "type": "address"
        }
      ],
      "name": "removeCommunity",
      "outputs": [],
      "stateMutability": "nonpayable",
      "type": "function"
    },
    {
      "inputs": [],
      "name": "renounceOwnership",
      "outputs": [],
      "stateMutability": "nonpayable",
      "type": "function"
    },
    {
      "inputs": [
        {
          "internalType": "contract IERC20",
          "name": "_token",
          "type": "address"
        },
        {
          "internalType": "address",
          "name": "_to",
          "type": "address"
        },
        {
          "internalType": "uint256",
          "name": "_amount",
          "type": "uint256"
        }
      ],
      "name": "transfer",
      "outputs": [],
      "stateMutability": "nonpayable",
      "type": "function"
    },
    {
      "inputs": [
        {
          "internalType": "contract ICommunity",
          "name": "_community",
          "type": "address"
        },
        {
          "internalType": "contract IERC20",
          "name": "_token",
          "type": "address"
        },
        {
          "internalType": "address",
          "name": "_to",
          "type": "address"
        },
        {
          "internalType": "uint256",
          "name": "_amount",
          "type": "uint256"
        }
      ],
      "name": "transferFromCommunity",
      "outputs": [],
      "stateMutability": "nonpayable",
      "type": "function"
    },
    {
      "inputs": [
        {
          "internalType": "address",
          "name": "newOwner",
          "type": "address"
        }
      ],
      "name": "transferOwnership",
      "outputs": [],
      "stateMutability": "nonpayable",
      "type": "function"
    },
    {
      "inputs": [],
      "name": "treasury",
      "outputs": [
        {
          "internalType": "contract ITreasury",
          "name": "",
          "type": "address"
        }
      ],
      "stateMutability": "view",
      "type": "function"
    },
    {
      "inputs": [
        {
          "internalType": "contract IAmbassadors",
          "name": "_newAmbassadors",
          "type": "address"
        }
      ],
      "name": "updateAmbassadors",
      "outputs": [],
      "stateMutability": "nonpayable",
      "type": "function"
    },
    {
      "inputs": [
        {
          "internalType": "contract ICommunity",
          "name": "_community",
          "type": "address"
        },
        {
          "internalType": "uint256",
          "name": "_claimAmount",
          "type": "uint256"
        },
        {
          "internalType": "uint256",
          "name": "_maxClaim",
          "type": "uint256"
        },
        {
          "internalType": "uint256",
          "name": "_decreaseStep",
          "type": "uint256"
        },
        {
          "internalType": "uint256",
          "name": "_baseInterval",
          "type": "uint256"
        },
        {
          "internalType": "uint256",
          "name": "_incrementInterval",
          "type": "uint256"
        },
        {
          "internalType": "uint256",
          "name": "_maxBeneficiaries",
          "type": "uint256"
        }
      ],
      "name": "updateBeneficiaryParams",
      "outputs": [],
      "stateMutability": "nonpayable",
      "type": "function"
    },
    {
      "inputs": [
        {
          "internalType": "contract ICommunity",
          "name": "_newCommunityImplementation",
          "type": "address"
        }
      ],
      "name": "updateCommunityImplementation",
      "outputs": [],
      "stateMutability": "nonpayable",
      "type": "function"
    },
    {
      "inputs": [
        {
          "internalType": "address",
          "name": "_newCommunityMiddleProxy",
          "type": "address"
        }
      ],
      "name": "updateCommunityMiddleProxy",
      "outputs": [],
      "stateMutability": "nonpayable",
      "type": "function"
    },
    {
      "inputs": [
        {
          "internalType": "contract ICommunity",
          "name": "_community",
          "type": "address"
        },
        {
          "internalType": "uint256",
          "name": "_minTranche",
          "type": "uint256"
        },
        {
          "internalType": "uint256",
          "name": "_maxTranche",
          "type": "uint256"
        }
      ],
      "name": "updateCommunityParams",
      "outputs": [],
      "stateMutability": "nonpayable",
      "type": "function"
    },
    {
      "inputs": [
        {
          "internalType": "contract ICommunity",
          "name": "_community",
          "type": "address"
        },
        {
          "internalType": "contract IERC20",
          "name": "_newToken",
          "type": "address"
        },
        {
          "internalType": "address[]",
          "name": "_exchangePath",
          "type": "address[]"
        }
      ],
      "name": "updateCommunityToken",
      "outputs": [],
      "stateMutability": "nonpayable",
      "type": "function"
    },
    {
      "inputs": [
        {
          "internalType": "contract IImpactMarketCouncil",
          "name": "_newImpactMarketCouncil",
          "type": "address"
        }
      ],
      "name": "updateImpactMarketCouncil",
      "outputs": [],
      "stateMutability": "nonpayable",
      "type": "function"
    },
    {
      "inputs": [
        {
          "internalType": "address",
          "name": "_CommunityMiddleProxy",
          "type": "address"
        },
        {
          "internalType": "address",
          "name": "_newCommunityImplementation",
          "type": "address"
        }
      ],
      "name": "updateProxyImplementation",
      "outputs": [],
      "stateMutability": "nonpayable",
      "type": "function"
    },
    {
      "inputs": [
        {
          "internalType": "contract ITreasury",
          "name": "_newTreasury",
          "type": "address"
        }
      ],
      "name": "updateTreasury",
      "outputs": [],
      "stateMutability": "nonpayable",
      "type": "function"
    }
  ],
  "transactionHash": "0x4976df0f52b8894b66d80d38a8d97670dcf1b78802b43fb80c937f475071ccd2",
  "args": [],
  "numDeployments": 1,
  "solcInputHash": "9f7bffa15693d61510860eff6ced8ff8",
  "bytecode": "0x608060405234801561001057600080fd5b50614bf9806100206000396000f3fe60806040523480156200001157600080fd5b50600436106200020d5760003560e01c80637f2813d21162000125578063b39f7ea411620000af578063e80d93a2116200007a578063e80d93a21462000494578063ef5126e014620004ab578063f00d096414620004c2578063f2fde38b14620004cc57600080fd5b8063b39f7ea4146200043e578063beabacc81462000452578063ca5c28561462000469578063d7599b6d146200048057600080fd5b80638da5cb5b11620000f05780638da5cb5b14620003ea5780638e2d90db14620003fc5780638e4254f4146200041357806392634540146200042757600080fd5b80637f2813d214620003705780637f51bb1f14620003a557806381449efe14620003bc578063865e24a314620003d357600080fd5b806339f539a211620001a757806361d027b3116200017257806361d027b314620003135780636a3c386514620003275780636b0de23f146200033e578063715018a6146200036657600080fd5b806339f539a214620002ba578063485cc95514620002d15780634e39da2314620002e8578063502791b614620002ff57600080fd5b8063174a71d711620001e8578063174a71d7146200026e5780631d2c935914620002785780631fccf672146200028f578063372a8f4d14620002a357600080fd5b8063016a041614620002125780630cb967a314620002435780630d8e6e2c146200025c575b600080fd5b609a5462000226906001600160a01b031681565b6040516001600160a01b0390911681526020015b60405180910390f35b6200025a6200025436600462002ddd565b620004e3565b005b60025b6040519081526020016200023a565b6200025a62000582565b6200025a6200028936600462002f73565b620009db565b60975462000226906001600160a01b031681565b62000226620002b436600462003105565b62000aa4565b6200025a620002cb36600462002e1b565b62000ab9565b6200025a620002e236600462002f60565b62000b69565b6200025a620002f936600462002ddd565b62000cb9565b609e5462000226906001600160a01b031681565b60985462000226906001600160a01b031681565b6200025a6200033836600462003069565b62000d42565b620003556200034f36600462002e1b565b62000e62565b60405190151581526020016200023a565b6200025a62000f83565b620003966200038136600462002ddd565b609b6020526000908152604090205460ff1681565b6040516200023a9190620032ab565b6200025a620003b636600462002ddd565b62000fbe565b6200025a620003cd36600462003032565b62001047565b6200025a620003e436600462002fca565b620010f3565b6033546001600160a01b031662000226565b6200025a6200040d36600462002ef3565b62001166565b60995462000226906001600160a01b031681565b6200025a6200043836600462002ddd565b62001b16565b60a05462000226906001600160a01b031681565b6200025a62000463366004620030c0565b62001dd8565b6200025a6200047a36600462002ddd565b62001e9e565b609f5462000226906001600160a01b031681565b6200025a620004a536600462002ddd565b62001f27565b6200025a620004bc36600462002e58565b62001fb0565b6200025f620022a2565b6200025a620004dd36600462002ddd565b620022b5565b6033546001600160a01b03163314620005195760405162461bcd60e51b8152600401620005109062003359565b60405180910390fd5b60a054604080516001600160a01b03928316815291831660208301527fa5c3a96c9b28d1f0ca36f6d9cc9a8cf138656ee223e4b99adf4a58d10f1048a0910160405180910390a160a080546001600160a01b0319166001600160a01b0392909216919091179055565b6001336000908152609b602052604090205460ff166003811115620005b757634e487b7160e01b600052602160045260246000fd5b14620006065760405162461bcd60e51b815260206004820152601d60248201527f436f6d6d756e69747941646d696e3a204e4f545f434f4d4d554e495459000000604482015260640162000510565b6097546040516370a0823160e01b81523360048201819052916000916001600160a01b03909116906370a082319060240160206040518083038186803b1580156200065057600080fd5b505afa15801562000665573d6000803e3d6000fd5b505050506040513d601f19601f820116820180604052508101906200068b91906200311e565b9050816001600160a01b031663dd4414bb6040518163ffffffff1660e01b815260040160206040518083038186803b158015620006c757600080fd5b505afa158015620006dc573d6000803e3d6000fd5b505050506040513d601f19601f820116820180604052508101906200070291906200311e565b8110620007785760405162461bcd60e51b815260206004820152603e60248201527f436f6d6d756e69747941646d696e3a3a66756e64436f6d6d756e6974793a207460448201527f68697320636f6d6d756e6974792068617320656e6f7567682066756e64730000606482015260840162000510565b816001600160a01b0316630e5b7c536040518163ffffffff1660e01b815260040160206040518083038186803b158015620007b257600080fd5b505afa158015620007c7573d6000803e3d6000fd5b505050506040513d601f19601f82011682018060405250810190620007ed91906200311e565b826001600160a01b03166309c338c36040518163ffffffff1660e01b815260040160206040518083038186803b1580156200082757600080fd5b505afa1580156200083c573d6000803e3d6000fd5b505050506040513d601f19601f820116820180604052508101906200086291906200311e565b6200086e919062003410565b4311620008f85760405162461bcd60e51b815260206004820152604b60248201527f436f6d6d756e69747941646d696e3a3a66756e64436f6d6d756e6974793a207460448201527f68697320636f6d6d756e697479206973206e6f7420616c6c6f77656420746f2060648201526a1c995c5d595cdd081e595d60aa1b608482015260a40162000510565b6000620009053362002357565b905081811115620009d65760006200091e83836200346e565b6097546098546040516370a0823160e01b81526001600160a01b039182166004820152929350600092600a9291909116906370a082319060240160206040518083038186803b1580156200097157600080fd5b505afa15801562000986573d6000803e3d6000fd5b505050506040513d601f19601f82011682018060405250810190620009ac91906200311e565b620009b891906200342b565b905080821115620009c7578091505b620009d3858362002573565b50505b505050565b6033546001600160a01b0316331462000a085760405162461bcd60e51b8152600401620005109062003359565b6002606554141562000a2e5760405162461bcd60e51b81526004016200051090620033d9565b60026065556040516317d5759960e31b81526001600160a01b0385169063beabacc89062000a659086908690869060040162003261565b600060405180830381600087803b15801562000a8057600080fd5b505af115801562000a95573d6000803e3d6000fd5b50506001606555505050505050565b600062000ab3609c83620026b5565b92915050565b6033546001600160a01b031633148062000add5750609e546001600160a01b031633145b62000afc5760405162461bcd60e51b8152600401620005109062003309565b609a5460405163266a23b160e21b81526001600160a01b0384811660048301528381166024830152909116906399a88ec490604401600060405180830381600087803b15801562000b4c57600080fd5b505af115801562000b61573d6000803e3d6000fd5b505050505050565b600054610100900460ff1662000b865760005460ff161562000b8a565b303b155b62000bef5760405162461bcd60e51b815260206004820152602e60248201527f496e697469616c697a61626c653a20636f6e747261637420697320616c72656160448201526d191e481a5b9a5d1a585b1a5e995960921b606482015260840162000510565b600054610100900460ff1615801562000c12576000805461ffff19166101011790555b62000c1c620026c3565b62000c2662002701565b609980546001600160a01b038086166001600160a01b031992831617909255609780549285169290911691909117905560405162000c649062002cfe565b604051809103906000f08015801562000c81573d6000803e3d6000fd5b50609a80546001600160a01b0319166001600160a01b03929092169190911790558015620009d6576000805461ff0019169055505050565b6033546001600160a01b0316331462000ce65760405162461bcd60e51b8152600401620005109062003359565b609f546040516001600160a01b038084169216907fbede3ab527cb73f6396abc70a54cb6637fe75d7f41468cd7b55900027382f7db90600090a3609f80546001600160a01b0319166001600160a01b0392909216919091179055565b6033546001600160a01b031633148062000d665750609e546001600160a01b031633145b62000d855760405162461bcd60e51b8152600401620005109062003309565b604051632fd7910360e01b815260048101879052602481018690526044810185905260648101849052608481018390526001600160a01b03881690632fd791039060a401600060405180830381600087803b15801562000de457600080fd5b505af115801562000df9573d6000803e3d6000fd5b5050604051630c17fd9560e21b8152600481018490526001600160a01b038a16925063305ff6549150602401600060405180830381600087803b15801562000e4057600080fd5b505af115801562000e55573d6000803e3d6000fd5b5050505050505050505050565b609f54604051631611acd760e31b81526001600160a01b0383811660048301528481166024830152600092169063b08d66b89060440160206040518083038186803b15801562000eb157600080fd5b505afa15801562000ec6573d6000803e3d6000fd5b505050506040513d601f19601f8201168201806040525081019062000eec919062002f3e565b8062000f7c5750609f5460405163cb53f50360e01b81526001600160a01b03848116600483015285811660248301529091169063cb53f5039060440160206040518083038186803b15801562000f4157600080fd5b505afa15801562000f56573d6000803e3d6000fd5b505050506040513d601f19601f8201168201806040525081019062000f7c919062002f3e565b9392505050565b6033546001600160a01b0316331462000fb05760405162461bcd60e51b8152600401620005109062003359565b62000fbc600062002735565b565b6033546001600160a01b0316331462000feb5760405162461bcd60e51b8152600401620005109062003359565b6098546040516001600160a01b038084169216907f4ab5be82436d353e61ca18726e984e561f5c1cc7c6d38b29d2553c790434705a90600090a3609880546001600160a01b0319166001600160a01b0392909216919091179055565b6033546001600160a01b03163314806200106b5750609e546001600160a01b031633145b6200108a5760405162461bcd60e51b8152600401620005109062003309565b604051630644b36d60e21b815260048101839052602481018290526001600160a01b03841690631912cdb4906044015b600060405180830381600087803b158015620010d557600080fd5b505af1158015620010ea573d6000803e3d6000fd5b50505050505050565b6033546001600160a01b0316331480620011175750609e546001600160a01b031633145b620011365760405162461bcd60e51b8152600401620005109062003309565b604051638f4a626960e01b81526001600160a01b03841690638f4a626990620010ba908590859060040162003285565b6033546001600160a01b03163314806200118a5750609e546001600160a01b031633145b620011a95760405162461bcd60e51b8152600401620005109062003309565b60026065541415620011cf5760405162461bcd60e51b81526004016200051090620033d9565b600260655560036001600160a01b0382166000908152609b602052604090205460ff1660038111156200121257634e487b7160e01b600052602160045260246000fd5b1415620012935760405162461bcd60e51b815260206004820152604260248201527f436f6d6d756e69747941646d696e3a3a6d696772617465436f6d6d756e69747960448201527f3a207468697320636f6d6d756e69747920686173206265656e206d6967726174606482015261195960f21b608482015260a40162000510565b6001600160a01b0381166000908152609b60205260408120805460ff19166003179055620012c18262002787565b9050600081156200170f576200170784846001600160a01b031663830953ab6040518163ffffffff1660e01b815260040160206040518083038186803b1580156200130b57600080fd5b505afa15801562001320573d6000803e3d6000fd5b505050506040513d601f19601f820116820180604052508101906200134691906200311e565b856001600160a01b03166378ba280f6040518163ffffffff1660e01b815260040160206040518083038186803b1580156200138057600080fd5b505afa15801562001395573d6000803e3d6000fd5b505050506040513d601f19601f82011682018060405250810190620013bb91906200311e565b866001600160a01b031663c51fab3c6040518163ffffffff1660e01b815260040160206040518083038186803b158015620013f557600080fd5b505afa1580156200140a573d6000803e3d6000fd5b505050506040513d601f19601f820116820180604052508101906200143091906200311e565b876001600160a01b0316630e5b7c536040518163ffffffff1660e01b815260040160206040518083038186803b1580156200146a57600080fd5b505afa1580156200147f573d6000803e3d6000fd5b505050506040513d601f19601f82011682018060405250810190620014a591906200311e565b886001600160a01b031663597be18b6040518163ffffffff1660e01b815260040160206040518083038186803b158015620014df57600080fd5b505afa158015620014f4573d6000803e3d6000fd5b505050506040513d601f19601f820116820180604052508101906200151a91906200311e565b896001600160a01b031663dd4414bb6040518163ffffffff1660e01b815260040160206040518083038186803b1580156200155457600080fd5b505afa15801562001569573d6000803e3d6000fd5b505050506040513d601f19601f820116820180604052508101906200158f91906200311e565b8a6001600160a01b0316632b2711176040518163ffffffff1660e01b815260040160206040518083038186803b158015620015c957600080fd5b505afa158015620015de573d6000803e3d6000fd5b505050506040513d601f19601f820116820180604052508101906200160491906200311e565b60018c6001600160a01b0316630d8e6e2c6040518163ffffffff1660e01b8152600401602060405180830381600087803b1580156200164257600080fd5b505af115801562001657573d6000803e3d6000fd5b505050506040513d601f19601f820116820180604052508101906200167d91906200311e565b116200168b57600062001700565b8b6001600160a01b031663a0f93a176040518163ffffffff1660e01b815260040160206040518083038186803b158015620016c557600080fd5b505afa158015620016da573d6000803e3d6000fd5b505050506040513d601f19601f820116820180604052508101906200170091906200311e565b8c62002818565b905062001929565b6200192684846001600160a01b031663830953ab6040518163ffffffff1660e01b815260040160206040518083038186803b1580156200174e57600080fd5b505afa15801562001763573d6000803e3d6000fd5b505050506040513d601f19601f820116820180604052508101906200178991906200311e565b856001600160a01b031663d4938db36040518163ffffffff1660e01b815260040160206040518083038186803b158015620017c357600080fd5b505afa158015620017d8573d6000803e3d6000fd5b505050506040513d601f19601f82011682018060405250810190620017fe91906200311e565b662386f26fc100006005886001600160a01b0316630e5b7c536040518163ffffffff1660e01b815260040160206040518083038186803b1580156200184257600080fd5b505afa15801562001857573d6000803e3d6000fd5b505050506040513d601f19601f820116820180604052508101906200187d91906200311e565b6200188991906200342b565b6005896001600160a01b031663597be18b6040518163ffffffff1660e01b815260040160206040518083038186803b158015620018c557600080fd5b505afa158015620018da573d6000803e3d6000fd5b505050506040513d601f19601f820116820180604052508101906200190091906200311e565b6200190c91906200342b565b662386f26fc10000674563918244f4000060008c62002818565b90505b6001600160a01b038116620019955760405162461bcd60e51b815260206004820152602b60248201527f436f6d6d756e69747941646d696e3a3a6d696772617465436f6d6d756e69747960448201526a0e881393d517d59053125160aa1b606482015260840162000510565b811562001a8d576097546040516370a0823160e01b81526001600160a01b03858116600483015260009216906370a082319060240160206040518083038186803b158015620019e357600080fd5b505afa158015620019f8573d6000803e3d6000fd5b505050506040513d601f19601f8201168201806040525081019062001a1e91906200311e565b6097546040516317d5759960e31b81529192506001600160a01b038087169263beabacc89262001a579216908690869060040162003261565b600060405180830381600087803b15801562001a7257600080fd5b505af115801562001a87573d6000803e3d6000fd5b50505050505b6001600160a01b0381166000908152609b60205260409020805460ff1916600117905562001abd609c826200290b565b50826001600160a01b0316816001600160a01b03167f1c73dbd6259eae88a71a197a742361367d2811051b3de2b22953065b876247af8660405162001b0391906200319a565b60405180910390a3505060016065555050565b6033546001600160a01b031633148062001b3a5750609e546001600160a01b031633145b62001b595760405162461bcd60e51b8152600401620005109062003309565b6002606554141562001b7f5760405162461bcd60e51b81526004016200051090620033d9565b600260655560016001600160a01b0382166000908152609b602052604090205460ff16600381111562001bc257634e487b7160e01b600052602160045260246000fd5b1462001c375760405162461bcd60e51b815260206004820152603d60248201527f436f6d6d756e69747941646d696e3a3a72656d6f7665436f6d6d756e6974793a60448201527f20746869732069736e277420612076616c696420636f6d6d756e697479000000606482015260840162000510565b6001600160a01b038181166000818152609b602052604090819020805460ff19166002179055609f5490516302498d1560e61b8152600481019290925290911690639263454090602401600060405180830381600087803b15801562001c9c57600080fd5b505af115801562001cb1573d6000803e3d6000fd5b50506097546098546040516370a0823160e01b81526001600160a01b0386811660048301819052955063beabacc89450928316929091169082906370a082319060240160206040518083038186803b15801562001d0d57600080fd5b505afa15801562001d22573d6000803e3d6000fd5b505050506040513d601f19601f8201168201806040525081019062001d4891906200311e565b6040518463ffffffff1660e01b815260040162001d689392919062003261565b600060405180830381600087803b15801562001d8357600080fd5b505af115801562001d98573d6000803e3d6000fd5b50506040516001600160a01b03841692507fa285b77d62d36ec6881b2cbc019c53874eb061798176f3577f2beab0848d16c69150600090a2506001606555565b6033546001600160a01b0316331462001e055760405162461bcd60e51b8152600401620005109062003359565b6002606554141562001e2b5760405162461bcd60e51b81526004016200051090620033d9565b600260655562001e466001600160a01b038416838362002922565b816001600160a01b0316836001600160a01b03167f9b035625e569d1d2bf54830a290aefba7ab11610ba8490871dc62b86b63a89568360405162001e8c91815260200190565b60405180910390a35050600160655550565b6033546001600160a01b0316331462001ecb5760405162461bcd60e51b8152600401620005109062003359565b609e546040516001600160a01b038084169216907feb64427276ab0ae1551ebf3002b4c3b44251a38b60c5d25daa1dad4e05876cc490600090a3609e80546001600160a01b0319166001600160a01b0392909216919091179055565b6033546001600160a01b0316331462001f545760405162461bcd60e51b8152600401620005109062003359565b6099546040516001600160a01b038084169216907f0c6ac7336660be2921bd3e55b4c1013a87f9910af2d753f099453a0ea160915a90600090a3609980546001600160a01b0319166001600160a01b0392909216919091179055565b6033546001600160a01b031633148062001fd45750609e546001600160a01b031633145b62001ff35760405162461bcd60e51b8152600401620005109062003309565b60008a51116200207d5760405162461bcd60e51b815260206004820152604860248201527f436f6d6d756e69747941646d696e3a3a616464436f6d6d756e6974793a20436f60448201527f6d6d756e6974792073686f756c642068617665206174206c65617374206f6e656064820152671036b0b730b3b2b960c11b608482015260a40162000510565b6000620020948b8a8a8a8a8a8a8a8a600062002818565b90506001600160a01b038116620020fe5760405162461bcd60e51b815260206004820152602760248201527f436f6d6d756e69747941646d696e3a3a616464436f6d6d756e6974793a204e4f6044820152661517d59053125160ca1b606482015260840162000510565b6001600160a01b0381166000908152609b60205260409020805460ff191660011790556200212e609c826200290b565b50609f54604051630b78037760e21b81526001600160a01b038c81166004830152838116602483015290911690632de00ddc90604401600060405180830381600087803b1580156200217f57600080fd5b505af115801562002194573d6000803e3d6000fd5b50505050806001600160a01b03167fd975f7d7350dc54e14ea0400bad2e29483d76cb8810f36f1f520d5c44c1dcf028c8b8b8b8b8b8b8b604051620021e1989796959493929190620031af565b60405180910390a2620021f5818562002573565b6098546097548c516001600160a01b039283169263beabacc89216908e906000906200223157634e487b7160e01b600052603260045260246000fd5b602002602001015166b1a2bc2ec500006040518463ffffffff1660e01b8152600401620022619392919062003261565b600060405180830381600087803b1580156200227c57600080fd5b505af115801562002291573d6000803e3d6000fd5b505050505050505050505050505050565b6000620022b0609c62002976565b905090565b6033546001600160a01b03163314620022e25760405162461bcd60e51b8152600401620005109062003359565b6001600160a01b038116620023495760405162461bcd60e51b815260206004820152602660248201527f4f776e61626c653a206e6577206f776e657220697320746865207a65726f206160448201526564647265737360d01b606482015260840162000510565b620023548162002735565b50565b600080826001600160a01b031663431a801a6040518163ffffffff1660e01b815260040160206040518083038186803b1580156200239457600080fd5b505afa158015620023a9573d6000803e3d6000fd5b505050506040513d601f19601f82011682018060405250810190620023cf91906200311e565b90506000836001600160a01b031663830953ab6040518163ffffffff1660e01b815260040160206040518083038186803b1580156200240d57600080fd5b505afa15801562002422573d6000803e3d6000fd5b505050506040513d601f19601f820116820180604052508101906200244891906200311e565b90506000846001600160a01b031663dd4414bb6040518163ffffffff1660e01b815260040160206040518083038186803b1580156200248657600080fd5b505afa1580156200249b573d6000803e3d6000fd5b505050506040513d601f19601f82011682018060405250810190620024c191906200311e565b90506000856001600160a01b0316632b2711176040518163ffffffff1660e01b815260040160206040518083038186803b158015620024ff57600080fd5b505afa15801562002514573d6000803e3d6000fd5b505050506040513d601f19601f820116820180604052508101906200253a91906200311e565b905060006200254a84866200344c565b9050828110156200255d57508162002569565b81811115620025695750805b9695505050505050565b60026065541415620025995760405162461bcd60e51b81526004016200051090620033d9565b60026065556098546097546040516317d5759960e31b81526001600160a01b039283169263beabacc892620025d8929116908690869060040162003261565b600060405180830381600087803b158015620025f357600080fd5b505af115801562002608573d6000803e3d6000fd5b5050604051635c04f74160e11b8152600481018490526001600160a01b038516925063b809ee829150602401600060405180830381600087803b1580156200264f57600080fd5b505af115801562002664573d6000803e3d6000fd5b50505050816001600160a01b03167f1e951788684f9b9e5c219261ce05daaa0f58ead974c796e6311b1da4c8657af182604051620026a491815260200190565b60405180910390a250506001606555565b600062000f7c838362002981565b600054610100900460ff16620026ed5760405162461bcd60e51b815260040162000510906200338e565b620026f7620029ba565b62000fbc620029e4565b600054610100900460ff166200272b5760405162461bcd60e51b815260040162000510906200338e565b62000fbc62002a19565b603380546001600160a01b038381166001600160a01b0319831681179093556040519116919082907f8be0079c531659141344cd1fd0a4f28419497f9722a3daafe3b4186f6b6457e090600090a35050565b6000806001600160a01b0316826001600160a01b031663c041fdc56040518163ffffffff1660e01b815260040160206040518083038186803b158015620027cd57600080fd5b505afa158015620027e2573d6000803e3d6000fd5b505050506040513d601f19601f8201168201806040525081019062002808919062002dfc565b6001600160a01b03161492915050565b60a054609a5460405160009283926001600160a01b0391821692911690620028409062002d0c565b6001600160a01b03928316815291166020820152606060408201819052600090820152608001604051809103906000f08015801562002883573d6000803e3d6000fd5b50604051633c19c2d360e01b81529091506001600160a01b03821690633c19c2d390620028c7908f908f908f908f908f908f908f908f908f908f90600401620031fc565b600060405180830381600087803b158015620028e257600080fd5b505af1158015620028f7573d6000803e3d6000fd5b50929e9d5050505050505050505050505050565b600062000f7c836001600160a01b03841662002a4a565b604080516001600160a01b038416602482015260448082018490528251808303909101815260649091019091526020810180516001600160e01b031663a9059cbb60e01b179052620009d690849062002a9c565b600062000ab3825490565b6000826000018281548110620029a757634e487b7160e01b600052603260045260246000fd5b9060005260206000200154905092915050565b600054610100900460ff1662000fbc5760405162461bcd60e51b815260040162000510906200338e565b600054610100900460ff1662002a0e5760405162461bcd60e51b815260040162000510906200338e565b62000fbc3362002735565b600054610100900460ff1662002a435760405162461bcd60e51b815260040162000510906200338e565b6001606555565b600081815260018301602052604081205462002a935750815460018181018455600084815260208082209093018490558454848252828601909352604090209190915562000ab3565b50600062000ab3565b600062002af3826040518060400160405280602081526020017f5361666545524332303a206c6f772d6c6576656c2063616c6c206661696c6564815250856001600160a01b031662002b759092919063ffffffff16565b805190915015620009d6578080602001905181019062002b14919062002f3e565b620009d65760405162461bcd60e51b815260206004820152602a60248201527f5361666545524332303a204552433230206f7065726174696f6e20646964206e6044820152691bdd081cdd58d8d9595960b21b606482015260840162000510565b606062002b86848460008562002b8e565b949350505050565b60608247101562002bf15760405162461bcd60e51b815260206004820152602660248201527f416464726573733a20696e73756666696369656e742062616c616e636520666f6044820152651c8818d85b1b60d21b606482015260840162000510565b843b62002c415760405162461bcd60e51b815260206004820152601d60248201527f416464726573733a2063616c6c20746f206e6f6e2d636f6e7472616374000000604482015260640162000510565b600080866001600160a01b0316858760405162002c5f91906200317c565b60006040518083038185875af1925050503d806000811462002c9e576040519150601f19603f3d011682016040523d82523d6000602084013e62002ca3565b606091505b509150915062002cb582828662002cc0565b979650505050505050565b6060831562002cd157508162000f7c565b82511562002ce25782518084602001fd5b8160405162461bcd60e51b8152600401620005109190620032d4565b61079780620034fe83390190565b610f2f8062003c9583390190565b803562002d2781620034e7565b919050565b600082601f83011262002d3d578081fd5b8135602067ffffffffffffffff8083111562002d5d5762002d5d620034d1565b8260051b604051601f19603f8301168101818110848211171562002d855762002d85620034d1565b6040528481528381019250868401828801850189101562002da4578687fd5b8692505b8583101562002dd15762002dbc8162002d1a565b84529284019260019290920191840162002da8565b50979650505050505050565b60006020828403121562002def578081fd5b813562000f7c81620034e7565b60006020828403121562002e0e578081fd5b815162000f7c81620034e7565b6000806040838503121562002e2e578081fd5b823562002e3b81620034e7565b9150602083013562002e4d81620034e7565b809150509250929050565b6000806000806000806000806000806101408b8d03121562002e78578586fd5b8a3567ffffffffffffffff81111562002e8f578687fd5b62002e9d8d828e0162002d2c565b9a505060208b013562002eb081620034e7565b999c999b505050506040880135976060810135976080820135975060a0820135965060c0820135955060e082013594506101008201359350610120909101359150565b6000806040838503121562002f06578182fd5b823567ffffffffffffffff81111562002f1d578283fd5b62002f2b8582860162002d2c565b925050602083013562002e4d81620034e7565b60006020828403121562002f50578081fd5b8151801515811462000f7c578182fd5b6000806040838503121562002e2e578182fd5b6000806000806080858703121562002f89578384fd5b843562002f9681620034e7565b9350602085013562002fa881620034e7565b9250604085013562002fba81620034e7565b9396929550929360600135925050565b60008060006060848603121562002fdf578283fd5b833562002fec81620034e7565b9250602084013562002ffe81620034e7565b9150604084013567ffffffffffffffff8111156200301a578182fd5b620030288682870162002d2c565b9150509250925092565b60008060006060848603121562003047578081fd5b83356200305481620034e7565b95602085013595506040909401359392505050565b600080600080600080600060e0888a03121562003084578081fd5b87356200309181620034e7565b9960208901359950604089013598606081013598506080810135975060a0810135965060c00135945092505050565b600080600060608486031215620030d5578081fd5b8335620030e281620034e7565b92506020840135620030f481620034e7565b929592945050506040919091013590565b60006020828403121562003117578081fd5b5035919050565b60006020828403121562003130578081fd5b5051919050565b6000815180845260208085019450808401835b83811015620031715781516001600160a01b0316875295820195908201906001016200314a565b509495945050505050565b600082516200319081846020870162003488565b9190910192915050565b60208152600062000f7c602083018462003137565b6000610100808352620031c58184018c62003137565b602084019a909a52505060408101969096526060860194909452608085019290925260a084015260c083015260e090910152919050565b6000610140808352620032128184018e62003137565b602084019c909c52505060408101989098526060880196909652608087019490945260a086019290925260c085015260e08401526101008301526001600160a01b031661012090910152919050565b6001600160a01b039384168152919092166020820152604081019190915260600190565b6001600160a01b038316815260406020820181905260009062002b869083018462003137565b6020810160048310620032ce57634e487b7160e01b600052602160045260246000fd5b91905290565b6020815260008251806020840152620032f581604085016020870162003488565b601f01601f19169190910160400192915050565b60208082526030908201527f436f6d6d756e69747941646d696e3a204e6f74204f776e6572204f7220496d7060408201526f1858dd13585c9ad95d10dbdd5b98da5b60821b606082015260800190565b6020808252818101527f4f776e61626c653a2063616c6c6572206973206e6f7420746865206f776e6572604082015260600190565b6020808252602b908201527f496e697469616c697a61626c653a20636f6e7472616374206973206e6f74206960408201526a6e697469616c697a696e6760a81b606082015260800190565b6020808252601f908201527f5265656e7472616e637947756172643a207265656e7472616e742063616c6c00604082015260600190565b60008219821115620034265762003426620034bb565b500190565b6000826200344757634e487b7160e01b81526012600452602481fd5b500490565b6000816000190483118215151615620034695762003469620034bb565b500290565b600082821015620034835762003483620034bb565b500390565b60005b83811015620034a55781810151838201526020016200348b565b83811115620034b5576000848401525b50505050565b634e487b7160e01b600052601160045260246000fd5b634e487b7160e01b600052604160045260246000fd5b6001600160a01b03811681146200235457600080fdfe608060405234801561001057600080fd5b5061001a3361001f565b61006f565b600080546001600160a01b038381166001600160a01b0319831681178455604051919092169283917f8be0079c531659141344cd1fd0a4f28419497f9722a3daafe3b4186f6b6457e09190a35050565b6107198061007e6000396000f3fe60806040526004361061007b5760003560e01c80639623609d1161004e5780639623609d1461011157806399a88ec414610124578063f2fde38b14610144578063f3b7dead1461016457600080fd5b8063204e1c7a14610080578063715018a6146100bc5780637eff275e146100d35780638da5cb5b146100f3575b600080fd5b34801561008c57600080fd5b506100a061009b3660046104d8565b610184565b6040516001600160a01b03909116815260200160405180910390f35b3480156100c857600080fd5b506100d1610215565b005b3480156100df57600080fd5b506100d16100ee366004610517565b610254565b3480156100ff57600080fd5b506000546001600160a01b03166100a0565b6100d161011f36600461054f565b6102de565b34801561013057600080fd5b506100d161013f366004610517565b61036f565b34801561015057600080fd5b506100d161015f3660046104d8565b6103c7565b34801561017057600080fd5b506100a061017f3660046104d8565b610462565b6000806000836001600160a01b03166040516101aa90635c60da1b60e01b815260040190565b600060405180830381855afa9150503d80600081146101e5576040519150601f19603f3d011682016040523d82523d6000602084013e6101ea565b606091505b5091509150816101f957600080fd5b8080602001905181019061020d91906104fb565b949350505050565b6000546001600160a01b031633146102485760405162461bcd60e51b815260040161023f90610683565b60405180910390fd5b6102526000610488565b565b6000546001600160a01b0316331461027e5760405162461bcd60e51b815260040161023f90610683565b6040516308f2839760e41b81526001600160a01b038281166004830152831690638f283970906024015b600060405180830381600087803b1580156102c257600080fd5b505af11580156102d6573d6000803e3d6000fd5b505050505050565b6000546001600160a01b031633146103085760405162461bcd60e51b815260040161023f90610683565b60405163278f794360e11b81526001600160a01b03841690634f1ef2869034906103389086908690600401610620565b6000604051808303818588803b15801561035157600080fd5b505af1158015610365573d6000803e3d6000fd5b5050505050505050565b6000546001600160a01b031633146103995760405162461bcd60e51b815260040161023f90610683565b604051631b2ce7f360e11b81526001600160a01b038281166004830152831690633659cfe6906024016102a8565b6000546001600160a01b031633146103f15760405162461bcd60e51b815260040161023f90610683565b6001600160a01b0381166104565760405162461bcd60e51b815260206004820152602660248201527f4f776e61626c653a206e6577206f776e657220697320746865207a65726f206160448201526564647265737360d01b606482015260840161023f565b61045f81610488565b50565b6000806000836001600160a01b03166040516101aa906303e1469160e61b815260040190565b600080546001600160a01b038381166001600160a01b0319831681178455604051919092169283917f8be0079c531659141344cd1fd0a4f28419497f9722a3daafe3b4186f6b6457e09190a35050565b6000602082840312156104e9578081fd5b81356104f4816106ce565b9392505050565b60006020828403121561050c578081fd5b81516104f4816106ce565b60008060408385031215610529578081fd5b8235610534816106ce565b91506020830135610544816106ce565b809150509250929050565b600080600060608486031215610563578081fd5b833561056e816106ce565b9250602084013561057e816106ce565b9150604084013567ffffffffffffffff8082111561059a578283fd5b818601915086601f8301126105ad578283fd5b8135818111156105bf576105bf6106b8565b604051601f8201601f19908116603f011681019083821181831017156105e7576105e76106b8565b816040528281528960208487010111156105ff578586fd5b82602086016020830137856020848301015280955050505050509250925092565b60018060a01b0383168152600060206040818401528351806040850152825b8181101561065b5785810183015185820160600152820161063f565b8181111561066c5783606083870101525b50601f01601f191692909201606001949350505050565b6020808252818101527f4f776e61626c653a2063616c6c6572206973206e6f7420746865206f776e6572604082015260600190565b634e487b7160e01b600052604160045260246000fd5b6001600160a01b038116811461045f57600080fdfea2646970667358221220e38caf5ca305d28cfea5924808a41fd6f9ab62ed165ed1becf8858d95ea882a264736f6c63430008040033608060405260405162000f2f38038062000f2f8339810160408190526200002691620004da565b82816200005560017f360894a13ba1a3210667c828492db98dca3e2076cc3735a920a3ca505d382bbd62000609565b60008051602062000ee8833981519152146200008157634e487b7160e01b600052600160045260246000fd5b6200008f82826000620000ff565b50620000bf905060017fb53127684a568b3173ae13b9f8a6016e243e63b6e8ee1178d6a717850b5d610462000609565b60008051602062000ec883398151915214620000eb57634e487b7160e01b600052600160045260246000fd5b620000f6826200013c565b50505062000672565b6200010a8362000197565b600082511180620001185750805b156200013757620001358383620001d960201b620002601760201c565b505b505050565b7f7e644d79422f17c01e4894b5f4f588d331ebfa28653d42ae832dc59e38c9798f6200016762000208565b604080516001600160a01b03928316815291841660208301520160405180910390a1620001948162000241565b50565b620001a281620002f6565b6040516001600160a01b038216907fbc7cd75a20ee27fd9adebab32041f755214dbc6bffa90cc0225b39da2e5c2d3b90600090a250565b606062000201838360405180606001604052806027815260200162000f086027913962000399565b9392505050565b60006200023260008051602062000ec883398151915260001b6200047660201b620002081760201c565b546001600160a01b0316919050565b6001600160a01b038116620002ac5760405162461bcd60e51b815260206004820152602660248201527f455243313936373a206e65772061646d696e20697320746865207a65726f206160448201526564647265737360d01b60648201526084015b60405180910390fd5b80620002d560008051602062000ec883398151915260001b6200047660201b620002081760201c565b80546001600160a01b0319166001600160a01b039290921691909117905550565b6200030c816200047960201b6200028c1760201c565b620003705760405162461bcd60e51b815260206004820152602d60248201527f455243313936373a206e657720696d706c656d656e746174696f6e206973206e60448201526c1bdd08184818dbdb9d1c9858dd609a1b6064820152608401620002a3565b80620002d560008051602062000ee883398151915260001b6200047660201b620002081760201c565b6060833b620003fa5760405162461bcd60e51b815260206004820152602660248201527f416464726573733a2064656c65676174652063616c6c20746f206e6f6e2d636f6044820152651b9d1c9858dd60d21b6064820152608401620002a3565b600080856001600160a01b031685604051620004179190620005b6565b600060405180830381855af49150503d806000811462000454576040519150601f19603f3d011682016040523d82523d6000602084013e62000459565b606091505b5090925090506200046c8282866200047f565b9695505050505050565b90565b3b151590565b606083156200049057508162000201565b825115620004a15782518084602001fd5b8160405162461bcd60e51b8152600401620002a39190620005d4565b80516001600160a01b0381168114620004d557600080fd5b919050565b600080600060608486031215620004ef578283fd5b620004fa84620004bd565b92506200050a60208501620004bd565b60408501519092506001600160401b038082111562000527578283fd5b818601915086601f8301126200053b578283fd5b8151818111156200055057620005506200065c565b604051601f8201601f19908116603f011681019083821181831017156200057b576200057b6200065c565b8160405282815289602084870101111562000594578586fd5b620005a78360208301602088016200062d565b80955050505050509250925092565b60008251620005ca8184602087016200062d565b9190910192915050565b6020815260008251806020840152620005f58160408501602087016200062d565b601f01601f19169190910160400192915050565b6000828210156200062857634e487b7160e01b81526011600452602481fd5b500390565b60005b838110156200064a57818101518382015260200162000630565b83811115620001355750506000910152565b634e487b7160e01b600052604160045260246000fd5b61084680620006826000396000f3fe60806040526004361061004e5760003560e01c80633659cfe6146100655780634f1ef286146100855780635c60da1b146100985780638f283970146100c9578063f851a440146100e95761005d565b3661005d5761005b6100fe565b005b61005b6100fe565b34801561007157600080fd5b5061005b6100803660046106d6565b610118565b61005b6100933660046106f0565b61015f565b3480156100a457600080fd5b506100ad6101d0565b6040516001600160a01b03909116815260200160405180910390f35b3480156100d557600080fd5b5061005b6100e43660046106d6565b61020b565b3480156100f557600080fd5b506100ad610235565b610106610292565b610116610111610331565b61033b565b565b61012061035f565b6001600160a01b0316336001600160a01b031614156101575761015481604051806020016040528060008152506000610392565b50565b6101546100fe565b61016761035f565b6001600160a01b0316336001600160a01b031614156101c8576101c38383838080601f01602080910402602001604051908101604052809392919081815260200183838082843760009201919091525060019250610392915050565b505050565b6101c36100fe565b60006101da61035f565b6001600160a01b0316336001600160a01b03161415610200576101fb610331565b905090565b6102086100fe565b90565b61021361035f565b6001600160a01b0316336001600160a01b0316141561015757610154816103bd565b600061023f61035f565b6001600160a01b0316336001600160a01b03161415610200576101fb61035f565b606061028583836040518060600160405280602781526020016107ea60279139610411565b9392505050565b3b151590565b61029a61035f565b6001600160a01b0316336001600160a01b031614156101165760405162461bcd60e51b815260206004820152604260248201527f5472616e73706172656e745570677261646561626c6550726f78793a2061646d60448201527f696e2063616e6e6f742066616c6c6261636b20746f2070726f78792074617267606482015261195d60f21b608482015260a4015b60405180910390fd5b60006101fb6104e5565b3660008037600080366000845af43d6000803e80801561035a573d6000f35b3d6000fd5b60007fb53127684a568b3173ae13b9f8a6016e243e63b6e8ee1178d6a717850b5d61035b546001600160a01b0316919050565b61039b8361050d565b6000825111806103a85750805b156101c3576103b78383610260565b50505050565b7f7e644d79422f17c01e4894b5f4f588d331ebfa28653d42ae832dc59e38c9798f6103e661035f565b604080516001600160a01b03928316815291841660208301520160405180910390a16101548161054d565b6060833b6104705760405162461bcd60e51b815260206004820152602660248201527f416464726573733a2064656c65676174652063616c6c20746f206e6f6e2d636f6044820152651b9d1c9858dd60d21b6064820152608401610328565b600080856001600160a01b03168560405161048b919061076e565b600060405180830381855af49150503d80600081146104c6576040519150601f19603f3d011682016040523d82523d6000602084013e6104cb565b606091505b50915091506104db8282866105f6565b9695505050505050565b60007f360894a13ba1a3210667c828492db98dca3e2076cc3735a920a3ca505d382bbc610383565b6105168161062f565b6040516001600160a01b038216907fbc7cd75a20ee27fd9adebab32041f755214dbc6bffa90cc0225b39da2e5c2d3b90600090a250565b6001600160a01b0381166105b25760405162461bcd60e51b815260206004820152602660248201527f455243313936373a206e65772061646d696e20697320746865207a65726f206160448201526564647265737360d01b6064820152608401610328565b807fb53127684a568b3173ae13b9f8a6016e243e63b6e8ee1178d6a717850b5d61035b80546001600160a01b0319166001600160a01b039290921691909117905550565b60608315610605575081610285565b8251156106155782518084602001fd5b8160405162461bcd60e51b8152600401610328919061078a565b803b6106935760405162461bcd60e51b815260206004820152602d60248201527f455243313936373a206e657720696d706c656d656e746174696f6e206973206e60448201526c1bdd08184818dbdb9d1c9858dd609a1b6064820152608401610328565b807f360894a13ba1a3210667c828492db98dca3e2076cc3735a920a3ca505d382bbc6105d5565b80356001600160a01b03811681146106d157600080fd5b919050565b6000602082840312156106e7578081fd5b610285826106ba565b600080600060408486031215610704578182fd5b61070d846106ba565b9250602084013567ffffffffffffffff80821115610729578384fd5b818601915086601f83011261073c578384fd5b81358181111561074a578485fd5b87602082850101111561075b578485fd5b6020830194508093505050509250925092565b600082516107808184602087016107bd565b9190910192915050565b60208152600082518060208401526107a98160408501602087016107bd565b601f01601f19169190910160400192915050565b60005b838110156107d85781810151838201526020016107c0565b838111156103b7575050600091015256fe416464726573733a206c6f772d6c6576656c2064656c65676174652063616c6c206661696c6564a2646970667358221220675814b80ddcb309746b9826ddefd683cc86b7ea3c0b94e9b1325c4b1e1cb1a764736f6c63430008040033b53127684a568b3173ae13b9f8a6016e243e63b6e8ee1178d6a717850b5d6103360894a13ba1a3210667c828492db98dca3e2076cc3735a920a3ca505d382bbc416464726573733a206c6f772d6c6576656c2064656c65676174652063616c6c206661696c6564a2646970667358221220796e82adc3abd615ffa5190882342158aa4754f91be72f156ec4c050b97b5f3c64736f6c63430008040033",
  "devdoc": {
    "events": {
      "AmbassadorsUpdated(address,address)": {
        "params": {
          "newAmbassadors": "New Ambassador address",
          "oldAmbassadors": "Old Ambassador address"
        }
      },
      "CommunityAdded(address,address[],uint256,uint256,uint256,uint256,uint256,uint256,uint256)": {
        "params": {
          "baseInterval": "Value of the baseInterval",
          "claimAmount": "Value of the claimAmount",
          "communityAddress": "Address of the community that has been added",
          "decreaseStep": "Value of the decreaseStep",
          "incrementInterval": "Value of the incrementInterval",
          "managers": "Addresses of the initial managers",
          "maxClaim": "Value of the maxClaim",
          "maxTranche": "Value of the maxTranche For further information regarding each parameter, see *Community* smart contract initialize method.",
          "minTranche": "Value of the minTranche"
        }
      },
      "CommunityFunded(address,uint256)": {
        "params": {
          "amount": "Amount of the funding",
          "community": "Address of the community"
        }
      },
      "CommunityImplementationUpdated(address,address)": {
        "params": {
          "newCommunityImplementation": "New communityImplementation address",
          "oldCommunityImplementation": "Old communityImplementation address"
        }
      },
      "CommunityMiddleProxyUpdated(address,address)": {
        "params": {
          "newCommunityMiddleProxy": "New communityMiddleProxy address",
          "oldCommunityMiddleProxy": "Old communityMiddleProxy address"
        }
      },
      "CommunityMigrated(address[],address,address)": {
        "params": {
          "communityAddress": "New community address",
          "managers": "Addresses of the new community's initial managers",
          "previousCommunityAddress": "Old community address"
        }
      },
      "CommunityRemoved(address)": {
        "params": {
          "communityAddress": "Address of the community that has been removed"
        }
      },
      "ImpactMarketCouncilUpdated(address,address)": {
        "params": {
          "newImpactMarketCouncil": "New impactMarket Council address",
          "oldImpactMarketCouncil": "Old impactMarket Council address"
        }
      },
      "TransferERC20(address,address,uint256)": {
        "params": {
          "amount": "Amount of the transaction",
          "to": "Address of the receiver",
          "token": "ERC20 token address"
        }
      },
      "TreasuryUpdated(address,address)": {
        "params": {
          "newTreasury": "New treasury address",
          "oldTreasury": "Old treasury address"
        }
      }
    },
    "kind": "dev",
    "methods": {
      "addCommunity(address[],address,uint256,uint256,uint256,uint256,uint256,uint256,uint256,uint256)": {
        "params": {
          "_ambassador": "address of the ambassador",
          "_baseInterval": "base interval to start claiming",
          "_claimAmount": "base amount to be claim by the beneficiary",
          "_decreaseStep": "value decreased from maxClaim for every beneficiary added",
          "_incrementInterval": "increment interval used in each claim",
          "_managers": "addresses of the community managers",
          "_maxBeneficiaries": "maximum number of valid beneficiaries",
          "_maxClaim": "limit that a beneficiary can claim at in total",
          "_maxTranche": "maximum amount that the community will receive when requesting funds",
          "_minTranche": "minimum amount that the community will receive when requesting funds"
        }
      },
      "communityListAt(uint256)": {
        "params": {
          "_index": "index of the community"
        },
        "returns": {
          "_0": "address of the community"
        }
      },
      "communityListLength()": {
        "returns": {
          "_0": "uint256 number of communities"
        }
      },
      "fundCommunity()": {
        "details": "Funds an existing community if it hasn't enough funds"
      },
      "initialize(address,address)": {
        "params": {
          "_cUSD": "Address of the cUSD token",
          "_communityImplementation": "Address of the Community implementation                              used for deploying new communities"
        }
      },
      "isAmbassadorOrEntityOfCommunity(address,address)": {
        "returns": {
          "_0": "bool true if the address is an ambassador or entity of the community"
        }
      },
      "migrateCommunity(address[],address)": {
        "params": {
          "_managers": "address of the community managers",
          "_previousCommunity": "address of the community to be migrated"
        }
      },
      "owner()": {
        "details": "Returns the address of the current owner."
      },
      "removeCommunity(address)": {
        "params": {
          "_community": "address of the community"
        }
      },
      "renounceOwnership()": {
        "details": "Leaves the contract without owner. It will not be possible to call `onlyOwner` functions anymore. Can only be called by the current owner. NOTE: Renouncing ownership will leave the contract without an owner, thereby removing any functionality that is only available to the owner."
      },
      "transfer(address,address,uint256)": {
        "params": {
          "_amount": "amount of the transaction",
          "_to": "address of the receiver",
          "_token": "address of the ERC20 token"
        }
      },
      "transferFromCommunity(address,address,address,uint256)": {
        "params": {
          "_amount": "amount of the transaction",
          "_community": "address of the community",
          "_to": "address of the receiver",
          "_token": "address of the ERC20 token"
        }
      },
      "transferOwnership(address)": {
        "details": "Transfers ownership of the contract to a new account (`newOwner`). Can only be called by the current owner."
      },
      "updateAmbassadors(address)": {
        "params": {
          "_newAmbassadors": "address of new implementation contract"
        }
      },
      "updateBeneficiaryParams(address,uint256,uint256,uint256,uint256,uint256,uint256)": {
        "params": {
          "_baseInterval": "base interval to start claiming",
          "_claimAmount": "base amount to be claim by the beneficiary",
          "_community": "address of the community",
          "_decreaseStep": "value decreased from maxClaim each time a is beneficiary added",
          "_incrementInterval": "increment interval used in each claim",
          "_maxBeneficiaries": "maximum number of beneficiaries",
          "_maxClaim": "limit that a beneficiary can claim  in total"
        }
      },
      "updateCommunityImplementation(address)": {
        "params": {
          "_newCommunityImplementation": "address of the new communityImplementation contract"
        }
      },
      "updateCommunityMiddleProxy(address)": {
        "params": {
          "_newCommunityMiddleProxy": "address of new implementation contract"
        }
      },
      "updateCommunityParams(address,uint256,uint256)": {
        "params": {
          "_community": "address of the community",
          "_maxTranche": "maximum amount that the community will receive when requesting funds",
          "_minTranche": "minimum amount that the community will receive when requesting funds"
        }
      },
      "updateCommunityToken(address,address,address[])": {
        "params": {
          "_exchangePath": "path used by uniswap to exchange the current tokens to the new tokens",
          "_newToken": "new token address"
        }
      },
      "updateImpactMarketCouncil(address)": {
        "params": {
          "_newImpactMarketCouncil": "address of new implementation contract"
        }
      },
      "updateProxyImplementation(address,address)": {
        "params": {
          "_CommunityMiddleProxy": "address of the community",
          "_newCommunityImplementation": "address of new implementation contract"
        }
      },
      "updateTreasury(address)": {
        "params": {
          "_newTreasury": "address of the new treasury contract"
        }
      }
    },
    "version": 1
  },
  "userdoc": {
    "events": {
      "AmbassadorsUpdated(address,address)": {
        "notice": "Triggered when the ambassadors has been updated"
      },
      "CommunityAdded(address,address[],uint256,uint256,uint256,uint256,uint256,uint256,uint256)": {
        "notice": "Triggered when a community has been added"
      },
      "CommunityFunded(address,uint256)": {
        "notice": "Triggered when a community has been funded"
      },
      "CommunityImplementationUpdated(address,address)": {
        "notice": "Triggered when the communityImplementation address has been updated"
      },
      "CommunityMiddleProxyUpdated(address,address)": {
        "notice": "Triggered when the communityMiddleProxy address has been updated"
      },
      "CommunityMigrated(address[],address,address)": {
        "notice": "Triggered when a community has been migrated"
      },
      "CommunityRemoved(address)": {
        "notice": "Triggered when a community has been removed"
      },
      "ImpactMarketCouncilUpdated(address,address)": {
        "notice": "Triggered when the impactMarket Council has been updated"
      },
      "TransferERC20(address,address,uint256)": {
        "notice": "Triggered when an amount of an ERC20 has been transferred from this contract to an address"
      },
      "TreasuryUpdated(address,address)": {
        "notice": "Triggered when the treasury address has been updated"
      }
    },
    "kind": "user",
    "methods": {
      "addCommunity(address[],address,uint256,uint256,uint256,uint256,uint256,uint256,uint256,uint256)": {
        "notice": "Adds a new community"
      },
      "communityListAt(uint256)": {
        "notice": "Returns the address of a community from communityList"
      },
      "communityListLength()": {
        "notice": "Returns the number of communities"
      },
      "getVersion()": {
        "notice": "Returns the current implementation version"
      },
      "initialize(address,address)": {
        "notice": "Used to initialize a new CommunityAdmin contract"
      },
      "isAmbassadorOrEntityOfCommunity(address,address)": {
        "notice": "Returns if an address is the ambassador or entity of the community"
      },
      "migrateCommunity(address[],address)": {
        "notice": "Migrates a community by deploying a new contract."
      },
      "removeCommunity(address)": {
        "notice": "Removes an existing community. All community funds are transferred to the treasury"
      },
      "transfer(address,address,uint256)": {
        "notice": "Transfers an amount of an ERC20 from this contract to an address"
      },
      "transferFromCommunity(address,address,address,uint256)": {
        "notice": "Transfers an amount of an ERC20 from  community to an address"
      },
      "updateAmbassadors(address)": {
        "notice": "Updates proxy implementation address of ambassadors"
      },
      "updateBeneficiaryParams(address,uint256,uint256,uint256,uint256,uint256,uint256)": {
        "notice": "Updates the beneficiary params of a community"
      },
      "updateCommunityImplementation(address)": {
        "notice": "Updates the address of the the communityImplementation"
      },
      "updateCommunityMiddleProxy(address)": {
        "notice": "Updates communityMiddleProxy address"
      },
      "updateCommunityParams(address,uint256,uint256)": {
        "notice": "Updates params of a community"
      },
      "updateCommunityToken(address,address,address[])": {
        "notice": "Updates token address of a community"
      },
      "updateImpactMarketCouncil(address)": {
        "notice": "Updates proxy implementation address of impactMarket council"
      },
      "updateProxyImplementation(address,address)": {
        "notice": "Updates proxy implementation address of a community"
      },
      "updateTreasury(address)": {
        "notice": "Updates the address of the treasury"
      }
    },
    "notice": "Welcome to CommunityAdmin, the main contract. This is an administrative (for now) contract where the admins have control over the list of communities. Being only able to add and remove communities",
    "version": 1
  },
  "storageLayout": {
    "storage": [
      {
        "astId": 542,
        "contract": "contracts/community/CommunityAdminImplementation.sol:CommunityAdminImplementation",
        "label": "_initialized",
        "offset": 0,
        "slot": "0",
        "type": "t_bool"
      },
      {
        "astId": 545,
        "contract": "contracts/community/CommunityAdminImplementation.sol:CommunityAdminImplementation",
        "label": "_initializing",
        "offset": 1,
        "slot": "0",
        "type": "t_bool"
      },
      {
        "astId": 1068,
        "contract": "contracts/community/CommunityAdminImplementation.sol:CommunityAdminImplementation",
        "label": "__gap",
        "offset": 0,
        "slot": "1",
        "type": "t_array(t_uint256)50_storage"
      },
      {
        "astId": 420,
        "contract": "contracts/community/CommunityAdminImplementation.sol:CommunityAdminImplementation",
        "label": "_owner",
        "offset": 0,
        "slot": "51",
        "type": "t_address"
      },
      {
        "astId": 534,
        "contract": "contracts/community/CommunityAdminImplementation.sol:CommunityAdminImplementation",
        "label": "__gap",
        "offset": 0,
        "slot": "52",
        "type": "t_array(t_uint256)49_storage"
      },
      {
        "astId": 736,
        "contract": "contracts/community/CommunityAdminImplementation.sol:CommunityAdminImplementation",
        "label": "_status",
        "offset": 0,
        "slot": "101",
        "type": "t_uint256"
      },
      {
        "astId": 779,
        "contract": "contracts/community/CommunityAdminImplementation.sol:CommunityAdminImplementation",
        "label": "__gap",
        "offset": 0,
        "slot": "102",
        "type": "t_array(t_uint256)49_storage"
      },
      {
        "astId": 11423,
        "contract": "contracts/community/CommunityAdminImplementation.sol:CommunityAdminImplementation",
        "label": "cUSD",
        "offset": 0,
        "slot": "151",
        "type": "t_contract(IERC20)3447"
      },
      {
        "astId": 11427,
        "contract": "contracts/community/CommunityAdminImplementation.sol:CommunityAdminImplementation",
        "label": "treasury",
        "offset": 0,
        "slot": "152",
        "type": "t_contract(ITreasury)27287"
      },
      {
        "astId": 11431,
        "contract": "contracts/community/CommunityAdminImplementation.sol:CommunityAdminImplementation",
        "label": "communityImplementation",
        "offset": 0,
        "slot": "153",
        "type": "t_contract(ICommunity)11847"
      },
      {
        "astId": 11435,
        "contract": "contracts/community/CommunityAdminImplementation.sol:CommunityAdminImplementation",
        "label": "communityProxyAdmin",
        "offset": 0,
        "slot": "154",
        "type": "t_contract(ProxyAdmin)2567"
      },
      {
        "astId": 11441,
        "contract": "contracts/community/CommunityAdminImplementation.sol:CommunityAdminImplementation",
        "label": "communities",
        "offset": 0,
        "slot": "155",
        "type": "t_mapping(t_address,t_enum(CommunityState)11860)"
      },
      {
        "astId": 11444,
        "contract": "contracts/community/CommunityAdminImplementation.sol:CommunityAdminImplementation",
        "label": "communityList",
        "offset": 0,
        "slot": "156",
        "type": "t_struct(AddressSet)5037_storage"
      },
      {
        "astId": 11457,
        "contract": "contracts/community/CommunityAdminImplementation.sol:CommunityAdminImplementation",
        "label": "impactMarketCouncil",
        "offset": 0,
        "slot": "158",
        "type": "t_contract(IImpactMarketCouncil)17639"
      },
      {
        "astId": 11461,
        "contract": "contracts/community/CommunityAdminImplementation.sol:CommunityAdminImplementation",
        "label": "ambassadors",
        "offset": 0,
        "slot": "159",
        "type": "t_contract(IAmbassadors)8416"
      },
      {
        "astId": 11464,
        "contract": "contracts/community/CommunityAdminImplementation.sol:CommunityAdminImplementation",
        "label": "communityMiddleProxy",
        "offset": 0,
        "slot": "160",
        "type": "t_address"
      }
    ],
    "types": {
      "t_address": {
        "encoding": "inplace",
        "label": "address",
        "numberOfBytes": "20"
      },
      "t_array(t_bytes32)dyn_storage": {
        "base": "t_bytes32",
        "encoding": "dynamic_array",
        "label": "bytes32[]",
        "numberOfBytes": "32"
      },
      "t_array(t_uint256)49_storage": {
        "base": "t_uint256",
        "encoding": "inplace",
        "label": "uint256[49]",
        "numberOfBytes": "1568"
      },
      "t_array(t_uint256)50_storage": {
        "base": "t_uint256",
        "encoding": "inplace",
        "label": "uint256[50]",
        "numberOfBytes": "1600"
      },
      "t_bool": {
        "encoding": "inplace",
        "label": "bool",
        "numberOfBytes": "1"
      },
      "t_bytes32": {
        "encoding": "inplace",
        "label": "bytes32",
        "numberOfBytes": "32"
      },
      "t_contract(IAmbassadors)8416": {
        "encoding": "inplace",
        "label": "contract IAmbassadors",
        "numberOfBytes": "20"
      },
      "t_contract(ICommunity)11847": {
        "encoding": "inplace",
        "label": "contract ICommunity",
        "numberOfBytes": "20"
      },
      "t_contract(IERC20)3447": {
        "encoding": "inplace",
        "label": "contract IERC20",
        "numberOfBytes": "20"
      },
      "t_contract(IImpactMarketCouncil)17639": {
        "encoding": "inplace",
        "label": "contract IImpactMarketCouncil",
        "numberOfBytes": "20"
      },
      "t_contract(ITreasury)27287": {
        "encoding": "inplace",
        "label": "contract ITreasury",
        "numberOfBytes": "20"
      },
      "t_contract(ProxyAdmin)2567": {
        "encoding": "inplace",
        "label": "contract ProxyAdmin",
        "numberOfBytes": "20"
      },
      "t_enum(CommunityState)11860": {
        "encoding": "inplace",
        "label": "enum ICommunityAdmin.CommunityState",
        "numberOfBytes": "1"
      },
      "t_mapping(t_address,t_enum(CommunityState)11860)": {
        "encoding": "mapping",
        "key": "t_address",
        "label": "mapping(address => enum ICommunityAdmin.CommunityState)",
        "numberOfBytes": "32",
        "value": "t_enum(CommunityState)11860"
      },
      "t_mapping(t_bytes32,t_uint256)": {
        "encoding": "mapping",
        "key": "t_bytes32",
        "label": "mapping(bytes32 => uint256)",
        "numberOfBytes": "32",
        "value": "t_uint256"
      },
      "t_struct(AddressSet)5037_storage": {
        "encoding": "inplace",
        "label": "struct EnumerableSet.AddressSet",
        "members": [
          {
            "astId": 5036,
            "contract": "contracts/community/CommunityAdminImplementation.sol:CommunityAdminImplementation",
            "label": "_inner",
            "offset": 0,
            "slot": "0",
            "type": "t_struct(Set)4736_storage"
          }
        ],
        "numberOfBytes": "64"
      },
      "t_struct(Set)4736_storage": {
        "encoding": "inplace",
        "label": "struct EnumerableSet.Set",
        "members": [
          {
            "astId": 4731,
            "contract": "contracts/community/CommunityAdminImplementation.sol:CommunityAdminImplementation",
            "label": "_values",
            "offset": 0,
            "slot": "0",
            "type": "t_array(t_bytes32)dyn_storage"
          },
          {
            "astId": 4735,
            "contract": "contracts/community/CommunityAdminImplementation.sol:CommunityAdminImplementation",
            "label": "_indexes",
            "offset": 0,
            "slot": "1",
            "type": "t_mapping(t_bytes32,t_uint256)"
          }
        ],
        "numberOfBytes": "64"
      },
      "t_uint256": {
        "encoding": "inplace",
        "label": "uint256",
        "numberOfBytes": "32"
      }
    }
  }
}