{
  "address": "0x80BC345192837B034911992Cab1b04eB3412EDe6",
  "abi": [
    {
      "anonymous": false,
      "inputs": [
        {
          "indexed": true,
          "internalType": "uint256",
          "name": "donationId",
          "type": "uint256"
        },
        {
          "indexed": true,
          "internalType": "address",
          "name": "donor",
          "type": "address"
        },
        {
          "indexed": false,
          "internalType": "uint256",
          "name": "amount",
          "type": "uint256"
        },
        {
          "indexed": true,
          "internalType": "address",
          "name": "target",
          "type": "address"
        }
      ],
      "name": "DonationAdded",
      "type": "event"
    },
    {
      "anonymous": false,
      "inputs": [
        {
          "indexed": true,
          "internalType": "address",
          "name": "previousOwner",
          "type": "address"
        },
        {
          "indexed": true,
          "internalType": "address",
          "name": "newOwner",
          "type": "address"
        }
      ],
      "name": "OwnershipTransferred",
      "type": "event"
    },
    {
      "anonymous": false,
      "inputs": [
        {
          "indexed": false,
          "internalType": "address",
          "name": "account",
          "type": "address"
        }
      ],
      "name": "Paused",
      "type": "event"
    },
    {
      "anonymous": false,
      "inputs": [
        {
          "indexed": true,
          "internalType": "address",
          "name": "donor",
          "type": "address"
        },
        {
          "indexed": false,
          "internalType": "uint256",
          "name": "amount",
          "type": "uint256"
        }
      ],
      "name": "RewardClaimed",
      "type": "event"
    },
    {
      "anonymous": false,
      "inputs": [
        {
          "indexed": false,
          "internalType": "uint256",
          "name": "oldRewardPeriodSize",
          "type": "uint256"
        },
        {
          "indexed": false,
          "internalType": "uint256",
          "name": "oldDecayNumerator",
          "type": "uint256"
        },
        {
          "indexed": false,
          "internalType": "uint256",
          "name": "oldDecayDenominator",
          "type": "uint256"
        },
        {
          "indexed": false,
          "internalType": "uint256",
          "name": "newRewardPeriodSize",
          "type": "uint256"
        },
        {
          "indexed": false,
          "internalType": "uint256",
          "name": "newDecayNumerator",
          "type": "uint256"
        },
        {
          "indexed": false,
          "internalType": "uint256",
          "name": "newDecayDenominator",
          "type": "uint256"
        }
      ],
      "name": "RewardPeriodParamsUpdated",
      "type": "event"
    },
    {
      "anonymous": false,
      "inputs": [
        {
          "indexed": true,
          "internalType": "address",
          "name": "token",
          "type": "address"
        },
        {
          "indexed": true,
          "internalType": "address",
          "name": "to",
          "type": "address"
        },
        {
          "indexed": false,
          "internalType": "uint256",
          "name": "amount",
          "type": "uint256"
        }
      ],
      "name": "TransferERC20",
      "type": "event"
    },
    {
      "anonymous": false,
      "inputs": [
        {
          "indexed": true,
          "internalType": "address",
          "name": "oldTreasury",
          "type": "address"
        },
        {
          "indexed": true,
          "internalType": "address",
          "name": "newTreasury",
          "type": "address"
        }
      ],
      "name": "TreasuryUpdated",
      "type": "event"
    },
    {
      "anonymous": false,
      "inputs": [
        {
          "indexed": false,
          "internalType": "address",
          "name": "account",
          "type": "address"
        }
      ],
      "name": "Unpaused",
      "type": "event"
    },
    {
      "inputs": [],
      "name": "PACT",
      "outputs": [
        {
          "internalType": "contract IERC20",
          "name": "",
          "type": "address"
        }
      ],
      "stateMutability": "view",
      "type": "function"
    },
    {
      "inputs": [],
      "name": "cUSD",
      "outputs": [
        {
          "internalType": "contract IERC20",
          "name": "",
          "type": "address"
        }
      ],
      "stateMutability": "view",
      "type": "function"
    },
    {
      "inputs": [
        {
          "internalType": "address",
          "name": "donor_",
          "type": "address"
        }
      ],
      "name": "calculateClaimableRewards",
      "outputs": [
        {
          "internalType": "uint256",
          "name": "",
          "type": "uint256"
        }
      ],
      "stateMutability": "view",
      "type": "function"
    },
    {
      "inputs": [],
      "name": "claimRewards",
      "outputs": [],
      "stateMutability": "nonpayable",
      "type": "function"
    },
    {
      "inputs": [],
      "name": "decayDenominator",
      "outputs": [
        {
          "internalType": "uint256",
          "name": "",
          "type": "uint256"
        }
      ],
      "stateMutability": "view",
      "type": "function"
    },
    {
      "inputs": [],
      "name": "decayNumerator",
      "outputs": [
        {
          "internalType": "uint256",
          "name": "",
          "type": "uint256"
        }
      ],
      "stateMutability": "view",
      "type": "function"
    },
    {
      "inputs": [
        {
          "internalType": "uint256",
          "name": "amount_",
          "type": "uint256"
        }
      ],
      "name": "donate",
      "outputs": [],
      "stateMutability": "nonpayable",
      "type": "function"
    },
    {
      "inputs": [
        {
          "internalType": "contract ICommunity",
          "name": "community_",
          "type": "address"
        },
        {
          "internalType": "uint256",
          "name": "amount_",
          "type": "uint256"
        }
      ],
      "name": "donateToCommunity",
      "outputs": [],
      "stateMutability": "nonpayable",
      "type": "function"
    },
    {
      "inputs": [],
      "name": "donationCount",
      "outputs": [
        {
          "internalType": "uint256",
          "name": "",
          "type": "uint256"
        }
      ],
      "stateMutability": "view",
      "type": "function"
    },
    {
      "inputs": [
        {
          "internalType": "uint256",
          "name": "",
          "type": "uint256"
        }
      ],
      "name": "donations",
      "outputs": [
        {
          "internalType": "address",
          "name": "donor",
          "type": "address"
        },
        {
          "internalType": "address",
          "name": "target",
          "type": "address"
        },
        {
          "internalType": "uint256",
          "name": "rewardPeriod",
          "type": "uint256"
        },
        {
          "internalType": "uint256",
          "name": "blockNumber",
          "type": "uint256"
        },
        {
          "internalType": "uint256",
          "name": "amount",
          "type": "uint256"
        },
        {
          "internalType": "contract IERC20",
          "name": "token",
          "type": "address"
        },
        {
          "internalType": "uint256",
          "name": "tokenPrice",
          "type": "uint256"
        }
      ],
      "stateMutability": "view",
      "type": "function"
    },
    {
      "inputs": [
        {
          "internalType": "address",
          "name": "donor",
          "type": "address"
        },
        {
          "internalType": "uint256",
          "name": "rewardPeriodIndex",
          "type": "uint256"
        }
      ],
      "name": "donorRewardPeriod",
      "outputs": [
        {
          "internalType": "uint256",
          "name": "",
          "type": "uint256"
        }
      ],
      "stateMutability": "view",
      "type": "function"
    },
    {
      "inputs": [
        {
          "internalType": "address",
          "name": "",
          "type": "address"
        }
      ],
      "name": "donors",
      "outputs": [
        {
          "internalType": "uint256",
          "name": "lastClaim",
          "type": "uint256"
        },
        {
          "internalType": "uint256",
          "name": "rewardPeriodsCount",
          "type": "uint256"
        }
      ],
      "stateMutability": "view",
      "type": "function"
    },
    {
      "inputs": [
        {
          "internalType": "address",
          "name": "donor_",
          "type": "address"
        }
      ],
      "name": "estimateClaimableReward",
      "outputs": [
        {
          "internalType": "uint256",
          "name": "",
          "type": "uint256"
        }
      ],
      "stateMutability": "view",
      "type": "function"
    },
    {
      "inputs": [],
      "name": "getVersion",
      "outputs": [
        {
          "internalType": "uint256",
          "name": "",
          "type": "uint256"
        }
      ],
      "stateMutability": "pure",
      "type": "function"
    },
    {
      "inputs": [
        {
          "internalType": "contract IERC20",
          "name": "cUSD_",
          "type": "address"
        },
        {
          "internalType": "contract IERC20",
          "name": "PACT_",
          "type": "address"
        },
        {
          "internalType": "contract ITreasury",
          "name": "treasury_",
          "type": "address"
        },
        {
          "internalType": "uint256",
          "name": "firstRewardPerBlock_",
          "type": "uint256"
        },
        {
          "internalType": "uint256",
          "name": "rewardPeriodSize_",
          "type": "uint256"
        },
        {
          "internalType": "uint256",
          "name": "startingBlock_",
          "type": "uint256"
        },
        {
          "internalType": "uint256",
          "name": "decayNumerator_",
          "type": "uint256"
        },
        {
          "internalType": "uint256",
          "name": "decayDenominator_",
          "type": "uint256"
        }
      ],
      "name": "initialize",
      "outputs": [],
      "stateMutability": "nonpayable",
      "type": "function"
    },
    {
      "inputs": [],
      "name": "owner",
      "outputs": [
        {
          "internalType": "address",
          "name": "",
          "type": "address"
        }
      ],
      "stateMutability": "view",
      "type": "function"
    },
    {
      "inputs": [],
      "name": "paused",
      "outputs": [
        {
          "internalType": "bool",
          "name": "",
          "type": "bool"
        }
      ],
      "stateMutability": "view",
      "type": "function"
    },
    {
      "inputs": [],
      "name": "renounceOwnership",
      "outputs": [],
      "stateMutability": "nonpayable",
      "type": "function"
    },
    {
      "inputs": [],
      "name": "rewardPeriodCount",
      "outputs": [
        {
          "internalType": "uint256",
          "name": "",
          "type": "uint256"
        }
      ],
      "stateMutability": "view",
      "type": "function"
    },
    {
      "inputs": [
        {
          "internalType": "uint256",
          "name": "period",
          "type": "uint256"
        },
        {
          "internalType": "address",
          "name": "donor",
          "type": "address"
        }
      ],
      "name": "rewardPeriodDonorAmount",
      "outputs": [
        {
          "internalType": "uint256",
          "name": "",
          "type": "uint256"
        }
      ],
      "stateMutability": "view",
      "type": "function"
    },
    {
      "inputs": [],
      "name": "rewardPeriodSize",
      "outputs": [
        {
          "internalType": "uint256",
          "name": "",
          "type": "uint256"
        }
      ],
      "stateMutability": "view",
      "type": "function"
    },
    {
      "inputs": [
        {
          "internalType": "uint256",
          "name": "",
          "type": "uint256"
        }
      ],
      "name": "rewardPeriods",
      "outputs": [
        {
          "internalType": "uint256",
          "name": "rewardPerBlock",
          "type": "uint256"
        },
        {
          "internalType": "uint256",
          "name": "rewardAmount",
          "type": "uint256"
        },
        {
          "internalType": "uint256",
          "name": "startBlock",
          "type": "uint256"
        },
        {
          "internalType": "uint256",
          "name": "endBlock",
          "type": "uint256"
        },
        {
          "internalType": "uint256",
          "name": "donationsAmount",
          "type": "uint256"
        }
      ],
      "stateMutability": "view",
      "type": "function"
    },
    {
      "inputs": [
        {
          "internalType": "contract IERC20",
          "name": "token_",
          "type": "address"
        },
        {
          "internalType": "address",
          "name": "to_",
          "type": "address"
        },
        {
          "internalType": "uint256",
          "name": "amount_",
          "type": "uint256"
        }
      ],
      "name": "transfer",
      "outputs": [],
      "stateMutability": "nonpayable",
      "type": "function"
    },
    {
      "inputs": [
        {
          "internalType": "address",
          "name": "newOwner",
          "type": "address"
        }
      ],
      "name": "transferOwnership",
      "outputs": [],
      "stateMutability": "nonpayable",
      "type": "function"
    },
    {
      "inputs": [],
      "name": "treasury",
      "outputs": [
        {
          "internalType": "contract ITreasury",
          "name": "",
          "type": "address"
        }
      ],
      "stateMutability": "view",
      "type": "function"
    },
    {
      "inputs": [
        {
          "internalType": "uint256",
          "name": "newRewardPeriodSize_",
          "type": "uint256"
        },
        {
          "internalType": "uint256",
          "name": "newDecayNumerator_",
          "type": "uint256"
        },
        {
          "internalType": "uint256",
          "name": "newDecayDenominator_",
          "type": "uint256"
        }
      ],
      "name": "updateRewardPeriodParams",
      "outputs": [],
      "stateMutability": "nonpayable",
      "type": "function"
    },
    {
      "inputs": [
        {
          "internalType": "contract ITreasury",
          "name": "newTreasury_",
          "type": "address"
        }
      ],
      "name": "updateTreasury",
      "outputs": [],
      "stateMutability": "nonpayable",
      "type": "function"
    }
  ],
  "transactionHash": "0x277d7b8c0931a243e6ec4705a145a7130c7a5448ea13d392250bbbf90f6f905f",
  "args": [],
  "solcInputHash": "afcdce682cbb7559134b40b7aecfc117",
  "bytecode": "0x608060405234801561001057600080fd5b50611fc5806100206000396000f3fe608060405234801561001057600080fd5b50600436106101a95760003560e01c80638252097d116100f9578063cd75000c11610097578063ed409ff311610071578063ed409ff314610410578063f14faf6f14610419578063f2fde38b1461042c578063f8626af81461043f57600080fd5b8063cd75000c146103d7578063df8fa430146103ea578063e48508df146103fd57600080fd5b8063beabacc8116100d3578063beabacc81461036c578063c38474c01461037f578063c89d1a8e14610388578063ca0cdea81461039b57600080fd5b80638252097d146102ed5780638da5cb5b1461035257806392ade2991461036357600080fd5b80633b9a01761161016657806361d027b31161014057806361d027b3146102ac578063715018a6146102bf5780637c62b1af146102c75780637f51bb1f146102da57600080fd5b80633b9a0176146102495780633ddec5311461025c5780635c975abb1461029657600080fd5b806307ea4e57146101ae5780630d8e6e2c146101ca5780631fccf672146101d15780632abfab4d146101fc5780632bef5eef14610205578063372500ab1461023f575b600080fd5b6101b760cf5481565b6040519081526020015b60405180910390f35b60016101b7565b60c9546101e4906001600160a01b031681565b6040516001600160a01b0390911681526020016101c1565b6101b760cd5481565b6101b7610213366004611ccb565b600082815260d2602090815260408083206001600160a01b038516845260050190915290205492915050565b6102476104dd565b005b60ca546101e4906001600160a01b031681565b6101b761026a366004611b4d565b6001600160a01b0391909116600090815260d36020908152604080832093835260029093019052205490565b60655460ff1660405190151581526020016101c1565b60cb546101e4906001600160a01b031681565b6102476106f2565b6102476102d5366004611bb4565b610728565b6102476102e8366004611b31565b6109bd565b61032a6102fb366004611c9b565b60d260205260009081526040902080546001820154600283015460038401546004909401549293919290919085565b604080519586526020860194909452928401919091526060830152608082015260a0016101c1565b6033546001600160a01b03166101e4565b6101b760d05481565b61024761037a366004611bc6565b610a39565b6101b760ce5481565b6101b7610396366004611b31565b610af6565b6103c26103a9366004611b31565b60d3602052600090815260409020805460019091015482565b604080519283526020830191909152016101c1565b6101b76103e5366004611b31565b610bc0565b6102476103f8366004611c06565b610c84565b61024761040b366004611cfa565b610ffd565b6101b760cc5481565b610247610427366004611c9b565b6110a1565b61024761043a366004611b31565b611165565b61049961044d366004611c9b565b60d16020526000908152604090208054600182015460028301546003840154600485015460058601546006909601546001600160a01b0395861696948616959394929391929091169087565b604080516001600160a01b03988916815296881660208801528601949094526060850192909252608084015290921660a082015260c081019190915260e0016101c1565b60655460ff16156105095760405162461bcd60e51b815260040161050090611dab565b60405180910390fd5b600160005260d2602052600080516020611f70833981519152544310156105425760405162461bcd60e51b815260040161050090611d74565b600260975414156105655760405162461bcd60e51b815260040161050090611e58565b600260975533600081815260d3602052604081209161058390610bc0565b905061058e82611200565b82558061059c5750506106eb565b60ca546040516370a0823160e01b81523060048201526001600160a01b03909116906370a082319060240160206040518083038186803b1580156105df57600080fd5b505afa1580156105f3573d6000803e3d6000fd5b505050506040513d601f19601f820116820180604052508101906106179190611cb3565b81111561069c5760ca546040516370a0823160e01b81523060048201526001600160a01b03909116906370a082319060240160206040518083038186803b15801561066157600080fd5b505afa158015610675573d6000803e3d6000fd5b505050506040513d601f19601f820116820180604052508101906106999190611cb3565b90505b60ca546106b3906001600160a01b03163383611248565b60405181815233907f106f923f993c2149d49b4255ff723acafa1f2d94393f561d3eda32ae348f72419060200160405180910390a250505b6001609755565b6033546001600160a01b0316331461071c5760405162461bcd60e51b815260040161050090611e23565b61072660006112b0565b565b60655460ff161561074b5760405162461bcd60e51b815260040161050090611dab565b600160005260d2602052600080516020611f70833981519152544310156107845760405162461bcd60e51b815260040161050090611d74565b600260975414156107a75760405162461bcd60e51b815260040161050090611e58565b600260975560cb5460408051632fd648bd60e11b815290516000926001600160a01b031691635fac917a916004808301926020929190829003018186803b1580156107f157600080fd5b505afa158015610805573d6000803e3d6000fd5b505050506040513d601f19601f820116820180604052508101906108299190611b98565b90506001604051633f9409e960e11b81526001600160a01b038581166004830152831690637f2813d29060240160206040518083038186803b15801561086e57600080fd5b505afa158015610882573d6000803e3d6000fd5b505050506040513d601f19601f820116820180604052508101906108a69190611c7c565b60038111156108c557634e487b7160e01b600052602160045260246000fd5b146109485760405162461bcd60e51b815260206004820152604760248201527f446f6e6174696f6e4d696e65723a3a646f6e617465546f436f6d6d756e69747960448201527f3a2054686973206973206e6f7420612076616c696420636f6d6d756e697479206064820152666164647265737360c81b608482015260a401610500565b60405163e69d849d60e01b8152336004820152602481018390526001600160a01b0384169063e69d849d90604401600060405180830381600087803b15801561099057600080fd5b505af11580156109a4573d6000803e3d6000fd5b505050506109b3338385611302565b5050600160975550565b6033546001600160a01b031633146109e75760405162461bcd60e51b815260040161050090611e23565b60cb80546001600160a01b038381166001600160a01b0319831681179093556040519116919082907f4ab5be82436d353e61ca18726e984e561f5c1cc7c6d38b29d2553c790434705a90600090a35050565b6033546001600160a01b03163314610a635760405162461bcd60e51b815260040161050090611e23565b60026097541415610a865760405162461bcd60e51b815260040161050090611e58565b6002609755610a9f6001600160a01b0384168383611248565b816001600160a01b0316836001600160a01b03167f9b035625e569d1d2bf54830a290aefba7ab11610ba8490871dc62b86b63a895683604051610ae491815260200190565b60405180910390a35050600160975550565b6001600090815260d2602052600080516020611f7083398151915254431015610b315760405162461bcd60e51b815260040161050090611d74565b60655460ff1615610b545760405162461bcd60e51b815260040161050090611dab565b60ce54600090815260d26020526040812060038101549091904311610bb95760048201546001600160a01b03851660009081526005840160205260409020546001840154610ba29190611ec7565b610bac9190611ea7565b610bb69082611e8f565b90505b9392505050565b6001600160a01b038116600090815260d360205260408120818080610be484611200565b8454909150600090610bf7906001611e8f565b90505b818111610c7957600081815260028601602090815260408083205480845260d2835281842060048101546001600160a01b038d16865260058201909452919093205460018201549396509092610c509190611ec7565b610c5a9190611ea7565b610c649086611e8f565b945081610c7081611f29565b92505050610bfa565b509195945050505050565b600054610100900460ff1680610c9d575060005460ff16155b610cb95760405162461bcd60e51b815260040161050090611dd5565b600054610100900460ff16158015610cdb576000805461ffff19166101011790555b6001600160a01b038916610d495760405162461bcd60e51b815260206004820152602f60248201527f446f6e6174696f6e4d696e65723a3a696e697469616c697a653a20635553442060448201526e1859191c995cdcc81b9bdd081cd95d608a1b6064820152608401610500565b6001600160a01b038816610db75760405162461bcd60e51b815260206004820152602f60248201527f446f6e6174696f6e4d696e65723a3a696e697469616c697a653a20504143542060448201526e1859191c995cdcc81b9bdd081cd95d608a1b6064820152608401610500565b6001600160a01b038716610e225760405162461bcd60e51b815260206004820152602c60248201527f446f6e6174696f6e4d696e65723a3a696e697469616c697a653a20747265617360448201526b1d5c9e57c81b9bdd081cd95d60a21b6064820152608401610500565b85610e955760405162461bcd60e51b815260206004820152603760248201527f446f6e6174696f6e4d696e65723a3a696e697469616c697a653a20666972737460448201527f526577617264506572426c6f636b206e6f7420736574210000000000000000006064820152608401610500565b83610f085760405162461bcd60e51b815260206004820152603860248201527f446f6e6174696f6e4d696e65723a3a696e697469616c697a653a20737461727460448201527f696e67526577617264506572696f64206e6f74207365742100000000000000006064820152608401610500565b610f106113f2565b610f1861146d565b610f206114d4565b60c980546001600160a01b03808c166001600160a01b03199283161790925560ca80548b841690831617905560cb8054928a169290911691909117905560cc85905560cf83905560d0829055600160ce819055600081905260d2602052600080516020611f708339815191528590557fb7404ce2b5a52e61a6b5c9b4585ed65d8cb4b8848d3ee262a356d0c2c46c5f3590610fbb8787611e8f565b610fc59190611ee6565b600382015586815560cc54610fda9088611ec7565b6001909101558015610ff2576000805461ff00191690555b505050505050505050565b6033546001600160a01b031633146110275760405162461bcd60e51b815260040161050090611e23565b60cc805460cf805460d080549488905591869055908490556040805183815260208101839052908101849052606081018790526080810186905260a08101859052919290917f8fb29c6ced5ce51696c08668df816fab7e60c674a6c36e167d5df9b8a5f499849060c00160405180910390a1505050505050565b60655460ff16156110c45760405162461bcd60e51b815260040161050090611dab565b600160005260d2602052600080516020611f70833981519152544310156110fd5760405162461bcd60e51b815260040161050090611d74565b600260975414156111205760405162461bcd60e51b815260040161050090611e58565b600260975560cb5460c954611144916001600160a01b039182169133911684611533565b60cb5461115d90339083906001600160a01b0316611302565b506001609755565b6033546001600160a01b0316331461118f5760405162461bcd60e51b815260040161050090611e23565b6001600160a01b0381166111f45760405162461bcd60e51b815260206004820152602660248201527f4f776e61626c653a206e6577206f776e657220697320746865207a65726f206160448201526564647265737360d01b6064820152608401610500565b6111fd816112b0565b50565b6001810154600090815260028201602090815260408083205480845260d29092528220600301544311156112375750506001015490565b60018360010154610bb99190611ee6565b6040516001600160a01b0383166024820152604481018290526112ab90849063a9059cbb60e01b906064015b60408051601f198184030181529190526020810180516001600160e01b03166001600160e01b031990931692909217909152611571565b505050565b603380546001600160a01b038381166001600160a01b0319831681179093556040519116919082907f8be0079c531659141344cd1fd0a4f28419497f9722a3daafe3b4186f6b6457e090600090a35050565b61130a611643565b60cd805490600061131a83611f29565b909155505060cd54600090815260d16020526040902080546001600160a01b038086166001600160a01b03199283161783556001830180548583169084161790556004830185905543600384015560ce8054600285015560c954600585018054909416921691909117909155670de0b6b3a76400006006830155546113a0903385611704565b6113a933611761565b60cd546040518481526001600160a01b0384169133917fdc4e2aab08207c15ed02d2a68af2e6df3472e2d7a636be078843d1724917e3a89060200160405180910390a450505050565b600054610100900460ff168061140b575060005460ff16155b6114275760405162461bcd60e51b815260040161050090611dd5565b600054610100900460ff16158015611449576000805461ffff19166101011790555b6114516117cc565b611459611836565b80156111fd576000805461ff001916905550565b600054610100900460ff1680611486575060005460ff16155b6114a25760405162461bcd60e51b815260040161050090611dd5565b600054610100900460ff161580156114c4576000805461ffff19166101011790555b6114cc6117cc565b611459611896565b600054610100900460ff16806114ed575060005460ff16155b6115095760405162461bcd60e51b815260040161050090611dd5565b600054610100900460ff1615801561152b576000805461ffff19166101011790555b61145961190b565b6040516001600160a01b038085166024830152831660448201526064810182905261156b9085906323b872dd60e01b90608401611274565b50505050565b60006115c6826040518060400160405280602081526020017f5361666545524332303a206c6f772d6c6576656c2063616c6c206661696c6564815250856001600160a01b031661197b9092919063ffffffff16565b8051909150156112ab57808060200190518101906115e49190611b78565b6112ab5760405162461bcd60e51b815260206004820152602a60248201527f5361666545524332303a204552433230206f7065726174696f6e20646964206e6044820152691bdd081cdd58d8d9595960b21b6064820152608401610500565b60ce54600090815260d2602052604090205b43816003015410156111fd5760ce805490600061167183611f29565b909155505060ce54600090815260d2602052604090206003820154611697906001611e8f565b6002820181905560cc546001916116ae9190611e8f565b6116b89190611ee6565b60038201556116c561198a565b80825560cc546000916116d791611ec7565b90508260040154600014156116f85760018301546116f59082611e8f565b90505b60018201559050611655565b600083815260d26020526040812060048101805491928492611727908490611e8f565b90915550506001600160a01b038316600090815260058201602052604081208054849290611756908490611e8f565b909155505050505050565b6001600160a01b038116600090815260d36020908152604080832060018101548452600281019092529091205460ce5481146112ab576001820180549060006117a983611f29565b909155505060ce5460018301546000908152600284016020526040902055505050565b600054610100900460ff16806117e5575060005460ff16155b6118015760405162461bcd60e51b815260040161050090611dd5565b600054610100900460ff16158015611459576000805461ffff191661010117905580156111fd576000805461ff001916905550565b600054610100900460ff168061184f575060005460ff16155b61186b5760405162461bcd60e51b815260040161050090611dd5565b600054610100900460ff1615801561188d576000805461ffff19166101011790555b611459336112b0565b600054610100900460ff16806118af575060005460ff16155b6118cb5760405162461bcd60e51b815260040161050090611dd5565b600054610100900460ff161580156118ed576000805461ffff19166101011790555b6065805460ff1916905580156111fd576000805461ff001916905550565b600054610100900460ff1680611924575060005460ff16155b6119405760405162461bcd60e51b815260040161050090611dd5565b600054610100900460ff16158015611962576000805461ffff19166101011790555b600160975580156111fd576000805461ff001916905550565b6060610bb684846000856119d0565b600060d05460cf5460d26000600160ce546119a59190611ee6565b8152602001908152602001600020600001546119c19190611ec7565b6119cb9190611ea7565b905090565b606082471015611a315760405162461bcd60e51b815260206004820152602660248201527f416464726573733a20696e73756666696369656e742062616c616e636520666f6044820152651c8818d85b1b60d21b6064820152608401610500565b843b611a7f5760405162461bcd60e51b815260206004820152601d60248201527f416464726573733a2063616c6c20746f206e6f6e2d636f6e74726163740000006044820152606401610500565b600080866001600160a01b03168587604051611a9b9190611d25565b60006040518083038185875af1925050503d8060008114611ad8576040519150601f19603f3d011682016040523d82523d6000602084013e611add565b606091505b5091509150611aed828286611af8565b979650505050505050565b60608315611b07575081610bb9565b825115611b175782518084602001fd5b8160405162461bcd60e51b81526004016105009190611d41565b600060208284031215611b42578081fd5b8135610bb981611f5a565b60008060408385031215611b5f578081fd5b8235611b6a81611f5a565b946020939093013593505050565b600060208284031215611b89578081fd5b81518015158114610bb9578182fd5b600060208284031215611ba9578081fd5b8151610bb981611f5a565b60008060408385031215611b5f578182fd5b600080600060608486031215611bda578081fd5b8335611be581611f5a565b92506020840135611bf581611f5a565b929592945050506040919091013590565b600080600080600080600080610100898b031215611c22578384fd5b8835611c2d81611f5a565b97506020890135611c3d81611f5a565b96506040890135611c4d81611f5a565b979a96995096976060810135975060808101359660a0820135965060c0820135955060e0909101359350915050565b600060208284031215611c8d578081fd5b815160048110610bb9578182fd5b600060208284031215611cac578081fd5b5035919050565b600060208284031215611cc4578081fd5b5051919050565b60008060408385031215611cdd578182fd5b823591506020830135611cef81611f5a565b809150509250929050565b600080600060608486031215611d0e578283fd5b505081359360208301359350604090920135919050565b60008251611d37818460208701611efd565b9190910192915050565b6020815260008251806020840152611d60816040850160208701611efd565b601f01601f19169190910160400192915050565b6020808252601e908201527f446f6e6174696f6e4d696e65723a204552525f4e4f545f535441525445440000604082015260600190565b60208082526010908201526f14185d5cd8589b194e881c185d5cd95960821b604082015260600190565b6020808252602e908201527f496e697469616c697a61626c653a20636f6e747261637420697320616c72656160408201526d191e481a5b9a5d1a585b1a5e995960921b606082015260800190565b6020808252818101527f4f776e61626c653a2063616c6c6572206973206e6f7420746865206f776e6572604082015260600190565b6020808252601f908201527f5265656e7472616e637947756172643a207265656e7472616e742063616c6c00604082015260600190565b60008219821115611ea257611ea2611f44565b500190565b600082611ec257634e487b7160e01b81526012600452602481fd5b500490565b6000816000190483118215151615611ee157611ee1611f44565b500290565b600082821015611ef857611ef8611f44565b500390565b60005b83811015611f18578181015183820152602001611f00565b8381111561156b5750506000910152565b6000600019821415611f3d57611f3d611f44565b5060010190565b634e487b7160e01b600052601160045260246000fd5b6001600160a01b03811681146111fd57600080fdfeb7404ce2b5a52e61a6b5c9b4585ed65d8cb4b8848d3ee262a356d0c2c46c5f37a2646970667358221220b8ec55336369c30eb0809a3959dc6fe24acecc996056f89b9d4dd2291999c4b164736f6c63430008040033",
  "devdoc": {
    "events": {
      "DonationAdded(uint256,address,uint256,address)": {
        "params": {
          "amount": "Value of the donation",
          "donationId": "Id of the donation",
          "donor": "Address of the donner",
          "target": "Address of the receiver (community or treasury)                    or address of the DonationMiner contract otherwise"
        }
      },
      "RewardClaimed(address,uint256)": {
        "params": {
          "amount": "Value of the reward",
          "donor": "Address of the donner"
        }
      },
      "RewardPeriodParamsUpdated(uint256,uint256,uint256,uint256,uint256,uint256)": {
        "params": {
          "newDecayDenominator": "New decayDenominator value For further information regarding each parameter, see *DonationMiner* smart contract initialize method.",
          "newDecayNumerator": "New decayNumerator value",
          "newRewardPeriodSize": "New rewardPeriodSize value",
          "oldDecayDenominator": "Old decayDenominator value",
          "oldDecayNumerator": "Old decayNumerator value",
          "oldRewardPeriodSize": "Old rewardPeriodSize value"
        }
      },
      "TransferERC20(address,address,uint256)": {
        "params": {
          "amount": "Amount of the transaction",
          "to": "Address of the receiver",
          "token": "ERC20 token address"
        }
      },
      "TreasuryUpdated(address,address)": {
        "params": {
          "newTreasury": "New treasury address",
          "oldTreasury": "Old treasury address"
        }
      }
    },
    "kind": "dev",
    "methods": {
      "calculateClaimableRewards(address)": {
        "params": {
          "donor_": "address of the donor"
        },
        "returns": {
          "_0": "uint256 sum of all donor's rewards that has not been claimed yet"
        }
      },
      "donate(uint256)": {
        "params": {
          "amount_": "Amount of cUSD tokens to deposit."
        }
      },
      "donateToCommunity(address,uint256)": {
        "details": "Transfers cUSD tokens to the community contract",
        "params": {
          "amount_": "amount of cUSD tokens to deposit",
          "community_": "address of the community"
        }
      },
      "donorRewardPeriod(address,uint256)": {
        "params": {
          "donor": "address of the donor",
          "rewardPeriodIndex": "index of the reward period"
        },
        "returns": {
          "_0": "uint256 number of the reward period"
        }
      },
      "estimateClaimableReward(address)": {
        "params": {
          "donor_": "address of the donor"
        },
        "returns": {
          "_0": "uint256 reward that donor will receive in current reward period if there isn't another donation"
        }
      },
      "initialize(address,address,address,uint256,uint256,uint256,uint256,uint256)": {
        "params": {
          "PACT_": "Address of the PACT Token",
          "cUSD_": "Address of the cUSD token",
          "decayDenominator_": "Decay denominator used for calculating the new reward per block based on the previous reward per block",
          "decayNumerator_": "Decay numerator used for calculating the new reward per block based on the previous reward per block",
          "firstRewardPerBlock_": "Number of PACTs given for each block                              from the first reward period",
          "rewardPeriodSize_": "Number of blocks of the reward period",
          "startingBlock_": "First block of the first reward period",
          "treasury_": "Address of the Treasury"
        }
      },
      "owner()": {
        "details": "Returns the address of the current owner."
      },
      "paused()": {
        "details": "Returns true if the contract is paused, and false otherwise."
      },
      "renounceOwnership()": {
        "details": "Leaves the contract without owner. It will not be possible to call `onlyOwner` functions anymore. Can only be called by the current owner. NOTE: Renouncing ownership will leave the contract without an owner, thereby removing any functionality that is only available to the owner."
      },
      "rewardPeriodDonorAmount(uint256,address)": {
        "params": {
          "donor": "address of the donor",
          "period": "number of the reward period"
        },
        "returns": {
          "_0": "uint256 amount of cUSD donated by the user in this reward period"
        }
      },
      "transfer(address,address,uint256)": {
        "params": {
          "amount_": "amount of the transaction",
          "to_": "address of the receiver",
          "token_": "address of the ERC20 token"
        }
      },
      "transferOwnership(address)": {
        "details": "Transfers ownership of the contract to a new account (`newOwner`). Can only be called by the current owner."
      },
      "updateRewardPeriodParams(uint256,uint256,uint256)": {
        "params": {
          "newDecayDenominator_": "value of new decayDenominator",
          "newDecayNumerator_": "value of new decayNumerator",
          "newRewardPeriodSize_": "value of new rewardPeriodSize"
        }
      },
      "updateTreasury(address)": {
        "params": {
          "newTreasury_": "address of new treasury_ contract"
        }
      }
    },
    "version": 1
  },
  "userdoc": {
    "events": {
      "DonationAdded(uint256,address,uint256,address)": {
        "notice": "Triggered when a donation has been added"
      },
      "RewardClaimed(address,uint256)": {
        "notice": "Triggered when a donor has claimed his reward"
      },
      "RewardPeriodParamsUpdated(uint256,uint256,uint256,uint256,uint256,uint256)": {
        "notice": "Triggered when reward period params have been updated"
      },
      "TransferERC20(address,address,uint256)": {
        "notice": "Triggered when an amount of an ERC20 has been transferred from this contract to an address"
      },
      "TreasuryUpdated(address,address)": {
        "notice": "Triggered when the treasury address has been updated"
      }
    },
    "kind": "user",
    "methods": {
      "calculateClaimableRewards(address)": {
        "notice": "Calculates the rewards from ended reward periods of a donor"
      },
      "claimRewards()": {
        "notice": "Transfers to the sender the rewards from ended reward periods"
      },
      "donate(uint256)": {
        "notice": "Transfers cUSD tokens to the treasury contract"
      },
      "donorRewardPeriod(address,uint256)": {
        "notice": "Returns a reward period number from a donor reward period list"
      },
      "estimateClaimableReward(address)": {
        "notice": "Calculates the estimate reward of a donor for current reward period"
      },
      "getVersion()": {
        "notice": "Returns the current implementation version"
      },
      "initialize(address,address,address,uint256,uint256,uint256,uint256,uint256)": {
        "notice": "Used to initialize a new DonationMiner contract"
      },
      "rewardPeriodDonorAmount(uint256,address)": {
        "notice": "Returns the amount of cUSD donated by a user in a reward period"
      },
      "transfer(address,address,uint256)": {
        "notice": "Transfers an amount of an ERC20 from this contract to an address"
      },
      "updateRewardPeriodParams(uint256,uint256,uint256)": {
        "notice": "Updates reward period default params"
      },
      "updateTreasury(address)": {
        "notice": "Updates Treasury address"
      }
    },
    "version": 1
  },
  "storageLayout": {
    "storage": [
      {
        "astId": 546,
        "contract": "contracts/token/DonationMinerImplementation.sol:DonationMinerImplementation",
        "label": "_initialized",
        "offset": 0,
        "slot": "0",
        "type": "t_bool"
      },
      {
        "astId": 549,
        "contract": "contracts/token/DonationMinerImplementation.sol:DonationMinerImplementation",
        "label": "_initializing",
        "offset": 1,
        "slot": "0",
        "type": "t_bool"
      },
      {
        "astId": 800,
        "contract": "contracts/token/DonationMinerImplementation.sol:DonationMinerImplementation",
        "label": "__gap",
        "offset": 0,
        "slot": "1",
        "type": "t_array(t_uint256)50_storage"
      },
      {
        "astId": 426,
        "contract": "contracts/token/DonationMinerImplementation.sol:DonationMinerImplementation",
        "label": "_owner",
        "offset": 0,
        "slot": "51",
        "type": "t_address"
      },
      {
        "astId": 539,
        "contract": "contracts/token/DonationMinerImplementation.sol:DonationMinerImplementation",
        "label": "__gap",
        "offset": 0,
        "slot": "52",
        "type": "t_array(t_uint256)49_storage"
      },
      {
        "astId": 607,
        "contract": "contracts/token/DonationMinerImplementation.sol:DonationMinerImplementation",
        "label": "_paused",
        "offset": 0,
        "slot": "101",
        "type": "t_bool"
      },
      {
        "astId": 698,
        "contract": "contracts/token/DonationMinerImplementation.sol:DonationMinerImplementation",
        "label": "__gap",
        "offset": 0,
        "slot": "102",
        "type": "t_array(t_uint256)49_storage"
      },
      {
        "astId": 713,
        "contract": "contracts/token/DonationMinerImplementation.sol:DonationMinerImplementation",
        "label": "_status",
        "offset": 0,
        "slot": "151",
        "type": "t_uint256"
      },
      {
        "astId": 756,
        "contract": "contracts/token/DonationMinerImplementation.sol:DonationMinerImplementation",
        "label": "__gap",
        "offset": 0,
        "slot": "152",
        "type": "t_array(t_uint256)49_storage"
      },
      {
        "astId": 17348,
        "contract": "contracts/token/DonationMinerImplementation.sol:DonationMinerImplementation",
        "label": "cUSD",
        "offset": 0,
        "slot": "201",
        "type": "t_contract(IERC20)3205"
      },
      {
        "astId": 17352,
        "contract": "contracts/token/DonationMinerImplementation.sol:DonationMinerImplementation",
        "label": "PACT",
        "offset": 0,
        "slot": "202",
        "type": "t_contract(IERC20)3205"
      },
      {
        "astId": 17356,
        "contract": "contracts/token/DonationMinerImplementation.sol:DonationMinerImplementation",
        "label": "treasury",
        "offset": 0,
        "slot": "203",
        "type": "t_contract(ITreasury)17685"
      },
      {
        "astId": 17359,
        "contract": "contracts/token/DonationMinerImplementation.sol:DonationMinerImplementation",
        "label": "rewardPeriodSize",
        "offset": 0,
        "slot": "204",
        "type": "t_uint256"
      },
      {
        "astId": 17362,
        "contract": "contracts/token/DonationMinerImplementation.sol:DonationMinerImplementation",
        "label": "donationCount",
        "offset": 0,
        "slot": "205",
        "type": "t_uint256"
      },
      {
        "astId": 17365,
        "contract": "contracts/token/DonationMinerImplementation.sol:DonationMinerImplementation",
        "label": "rewardPeriodCount",
        "offset": 0,
        "slot": "206",
        "type": "t_uint256"
      },
      {
        "astId": 17368,
        "contract": "contracts/token/DonationMinerImplementation.sol:DonationMinerImplementation",
        "label": "decayNumerator",
        "offset": 0,
        "slot": "207",
        "type": "t_uint256"
      },
      {
        "astId": 17371,
        "contract": "contracts/token/DonationMinerImplementation.sol:DonationMinerImplementation",
        "label": "decayDenominator",
        "offset": 0,
        "slot": "208",
        "type": "t_uint256"
      },
      {
        "astId": 17377,
        "contract": "contracts/token/DonationMinerImplementation.sol:DonationMinerImplementation",
        "label": "donations",
        "offset": 0,
        "slot": "209",
        "type": "t_mapping(t_uint256,t_struct(Donation)17435_storage)"
      },
      {
        "astId": 17383,
        "contract": "contracts/token/DonationMinerImplementation.sol:DonationMinerImplementation",
        "label": "rewardPeriods",
        "offset": 0,
        "slot": "210",
        "type": "t_mapping(t_uint256,t_struct(RewardPeriod)17410_storage)"
      },
      {
        "astId": 17389,
        "contract": "contracts/token/DonationMinerImplementation.sol:DonationMinerImplementation",
        "label": "donors",
        "offset": 0,
        "slot": "211",
        "type": "t_mapping(t_address,t_struct(Donor)17419_storage)"
      }
    ],
    "types": {
      "t_address": {
        "encoding": "inplace",
        "label": "address",
        "numberOfBytes": "20"
      },
      "t_array(t_uint256)49_storage": {
        "base": "t_uint256",
        "encoding": "inplace",
        "label": "uint256[49]",
        "numberOfBytes": "1568"
      },
      "t_array(t_uint256)50_storage": {
        "base": "t_uint256",
        "encoding": "inplace",
        "label": "uint256[50]",
        "numberOfBytes": "1600"
      },
      "t_bool": {
        "encoding": "inplace",
        "label": "bool",
        "numberOfBytes": "1"
      },
      "t_contract(IERC20)3205": {
        "encoding": "inplace",
        "label": "contract IERC20",
        "numberOfBytes": "20"
      },
      "t_contract(ITreasury)17685": {
        "encoding": "inplace",
        "label": "contract ITreasury",
        "numberOfBytes": "20"
      },
      "t_mapping(t_address,t_struct(Donor)17419_storage)": {
        "encoding": "mapping",
        "key": "t_address",
        "label": "mapping(address => struct IDonationMiner.Donor)",
        "numberOfBytes": "32",
        "value": "t_struct(Donor)17419_storage"
      },
      "t_mapping(t_address,t_uint256)": {
        "encoding": "mapping",
        "key": "t_address",
        "label": "mapping(address => uint256)",
        "numberOfBytes": "32",
        "value": "t_uint256"
      },
      "t_mapping(t_uint256,t_struct(Donation)17435_storage)": {
        "encoding": "mapping",
        "key": "t_uint256",
        "label": "mapping(uint256 => struct IDonationMiner.Donation)",
        "numberOfBytes": "32",
        "value": "t_struct(Donation)17435_storage"
      },
      "t_mapping(t_uint256,t_struct(RewardPeriod)17410_storage)": {
        "encoding": "mapping",
        "key": "t_uint256",
        "label": "mapping(uint256 => struct IDonationMiner.RewardPeriod)",
        "numberOfBytes": "32",
        "value": "t_struct(RewardPeriod)17410_storage"
      },
      "t_mapping(t_uint256,t_uint256)": {
        "encoding": "mapping",
        "key": "t_uint256",
        "label": "mapping(uint256 => uint256)",
        "numberOfBytes": "32",
        "value": "t_uint256"
      },
      "t_struct(Donation)17435_storage": {
        "encoding": "inplace",
        "label": "struct IDonationMiner.Donation",
        "members": [
          {
            "astId": 17421,
            "contract": "contracts/token/DonationMinerImplementation.sol:DonationMinerImplementation",
            "label": "donor",
            "offset": 0,
            "slot": "0",
            "type": "t_address"
          },
          {
            "astId": 17423,
            "contract": "contracts/token/DonationMinerImplementation.sol:DonationMinerImplementation",
            "label": "target",
            "offset": 0,
            "slot": "1",
            "type": "t_address"
          },
          {
            "astId": 17425,
            "contract": "contracts/token/DonationMinerImplementation.sol:DonationMinerImplementation",
            "label": "rewardPeriod",
            "offset": 0,
            "slot": "2",
            "type": "t_uint256"
          },
          {
            "astId": 17427,
            "contract": "contracts/token/DonationMinerImplementation.sol:DonationMinerImplementation",
            "label": "blockNumber",
            "offset": 0,
            "slot": "3",
            "type": "t_uint256"
          },
          {
            "astId": 17429,
            "contract": "contracts/token/DonationMinerImplementation.sol:DonationMinerImplementation",
            "label": "amount",
            "offset": 0,
            "slot": "4",
            "type": "t_uint256"
          },
          {
            "astId": 17432,
            "contract": "contracts/token/DonationMinerImplementation.sol:DonationMinerImplementation",
            "label": "token",
            "offset": 0,
            "slot": "5",
            "type": "t_contract(IERC20)3205"
          },
          {
            "astId": 17434,
            "contract": "contracts/token/DonationMinerImplementation.sol:DonationMinerImplementation",
            "label": "tokenPrice",
            "offset": 0,
            "slot": "6",
            "type": "t_uint256"
          }
        ],
        "numberOfBytes": "224"
      },
      "t_struct(Donor)17419_storage": {
        "encoding": "inplace",
        "label": "struct IDonationMiner.Donor",
        "members": [
          {
            "astId": 17412,
            "contract": "contracts/token/DonationMinerImplementation.sol:DonationMinerImplementation",
            "label": "lastClaim",
            "offset": 0,
            "slot": "0",
            "type": "t_uint256"
          },
          {
            "astId": 17414,
            "contract": "contracts/token/DonationMinerImplementation.sol:DonationMinerImplementation",
            "label": "rewardPeriodsCount",
            "offset": 0,
            "slot": "1",
            "type": "t_uint256"
          },
          {
            "astId": 17418,
            "contract": "contracts/token/DonationMinerImplementation.sol:DonationMinerImplementation",
            "label": "rewardPeriods",
            "offset": 0,
            "slot": "2",
            "type": "t_mapping(t_uint256,t_uint256)"
          }
        ],
        "numberOfBytes": "96"
      },
      "t_struct(RewardPeriod)17410_storage": {
        "encoding": "inplace",
        "label": "struct IDonationMiner.RewardPeriod",
        "members": [
          {
            "astId": 17397,
            "contract": "contracts/token/DonationMinerImplementation.sol:DonationMinerImplementation",
            "label": "rewardPerBlock",
            "offset": 0,
            "slot": "0",
            "type": "t_uint256"
          },
          {
            "astId": 17399,
            "contract": "contracts/token/DonationMinerImplementation.sol:DonationMinerImplementation",
            "label": "rewardAmount",
            "offset": 0,
            "slot": "1",
            "type": "t_uint256"
          },
          {
            "astId": 17401,
            "contract": "contracts/token/DonationMinerImplementation.sol:DonationMinerImplementation",
            "label": "startBlock",
            "offset": 0,
            "slot": "2",
            "type": "t_uint256"
          },
          {
            "astId": 17403,
            "contract": "contracts/token/DonationMinerImplementation.sol:DonationMinerImplementation",
            "label": "endBlock",
            "offset": 0,
            "slot": "3",
            "type": "t_uint256"
          },
          {
            "astId": 17405,
            "contract": "contracts/token/DonationMinerImplementation.sol:DonationMinerImplementation",
            "label": "donationsAmount",
            "offset": 0,
            "slot": "4",
            "type": "t_uint256"
          },
          {
            "astId": 17409,
            "contract": "contracts/token/DonationMinerImplementation.sol:DonationMinerImplementation",
            "label": "donorAmounts",
            "offset": 0,
            "slot": "5",
            "type": "t_mapping(t_address,t_uint256)"
          }
        ],
        "numberOfBytes": "192"
      },
      "t_uint256": {
        "encoding": "inplace",
        "label": "uint256",
        "numberOfBytes": "32"
      }
    }
  }
}