{
  "address": "0x8C567e108727fd3947A2352fD86004d93187f0b9",
  "abi": [
    {
      "anonymous": false,
      "inputs": [
        {
          "indexed": true,
          "internalType": "uint256",
          "name": "donationId",
          "type": "uint256"
        },
        {
          "indexed": true,
          "internalType": "address",
          "name": "donor",
          "type": "address"
        },
        {
          "indexed": false,
          "internalType": "uint256",
          "name": "amount",
          "type": "uint256"
        },
        {
          "indexed": true,
          "internalType": "address",
          "name": "target",
          "type": "address"
        }
      ],
      "name": "DonationAdded",
      "type": "event"
    },
    {
      "anonymous": false,
      "inputs": [
        {
          "indexed": false,
          "internalType": "uint256",
          "name": "oldStartingBlock",
          "type": "uint256"
        },
        {
          "indexed": false,
          "internalType": "uint256",
          "name": "oldFirstRewardPerBlock",
          "type": "uint256"
        },
        {
          "indexed": false,
          "internalType": "uint256",
          "name": "newStartingBlock",
          "type": "uint256"
        },
        {
          "indexed": false,
          "internalType": "uint256",
          "name": "newFirstRewardPerBlock",
          "type": "uint256"
        }
      ],
      "name": "FirstRewardPeriodParamsUpdated",
      "type": "event"
    },
    {
      "anonymous": false,
      "inputs": [
        {
          "indexed": true,
          "internalType": "address",
          "name": "previousOwner",
          "type": "address"
        },
        {
          "indexed": true,
          "internalType": "address",
          "name": "newOwner",
          "type": "address"
        }
      ],
      "name": "OwnershipTransferred",
      "type": "event"
    },
    {
      "anonymous": false,
      "inputs": [
        {
          "indexed": false,
          "internalType": "address",
          "name": "account",
          "type": "address"
        }
      ],
      "name": "Paused",
      "type": "event"
    },
    {
      "anonymous": false,
      "inputs": [
        {
          "indexed": true,
          "internalType": "address",
          "name": "donor",
          "type": "address"
        },
        {
          "indexed": false,
          "internalType": "uint256",
          "name": "amount",
          "type": "uint256"
        }
      ],
      "name": "RewardClaimed",
      "type": "event"
    },
    {
      "anonymous": false,
      "inputs": [
        {
          "indexed": false,
          "internalType": "uint256",
          "name": "oldRewardPeriodSize",
          "type": "uint256"
        },
        {
          "indexed": false,
          "internalType": "uint256",
          "name": "oldDecayNumerator",
          "type": "uint256"
        },
        {
          "indexed": false,
          "internalType": "uint256",
          "name": "oldDecayDenominator",
          "type": "uint256"
        },
        {
          "indexed": false,
          "internalType": "uint256",
          "name": "newRewardPeriodSize",
          "type": "uint256"
        },
        {
          "indexed": false,
          "internalType": "uint256",
          "name": "newDecayNumerator",
          "type": "uint256"
        },
        {
          "indexed": false,
          "internalType": "uint256",
          "name": "newDecayDenominator",
          "type": "uint256"
        }
      ],
      "name": "RewardPeriodParamsUpdated",
      "type": "event"
    },
    {
      "anonymous": false,
      "inputs": [
        {
          "indexed": true,
          "internalType": "address",
          "name": "token",
          "type": "address"
        },
        {
          "indexed": true,
          "internalType": "address",
          "name": "to",
          "type": "address"
        },
        {
          "indexed": false,
          "internalType": "uint256",
          "name": "amount",
          "type": "uint256"
        }
      ],
      "name": "TransferERC20",
      "type": "event"
    },
    {
      "anonymous": false,
      "inputs": [
        {
          "indexed": true,
          "internalType": "address",
          "name": "oldTreasury",
          "type": "address"
        },
        {
          "indexed": true,
          "internalType": "address",
          "name": "newTreasury",
          "type": "address"
        }
      ],
      "name": "TreasuryUpdated",
      "type": "event"
    },
    {
      "anonymous": false,
      "inputs": [
        {
          "indexed": false,
          "internalType": "address",
          "name": "account",
          "type": "address"
        }
      ],
      "name": "Unpaused",
      "type": "event"
    },
    {
      "inputs": [],
      "name": "PACT",
      "outputs": [
        {
          "internalType": "contract IERC20",
          "name": "",
          "type": "address"
        }
      ],
      "stateMutability": "view",
      "type": "function"
    },
    {
      "inputs": [],
      "name": "cUSD",
      "outputs": [
        {
          "internalType": "contract IERC20",
          "name": "",
          "type": "address"
        }
      ],
      "stateMutability": "view",
      "type": "function"
    },
    {
      "inputs": [
        {
          "internalType": "address",
          "name": "_donorAddress",
          "type": "address"
        }
      ],
      "name": "calculateClaimableRewards",
      "outputs": [
        {
          "internalType": "uint256",
          "name": "",
          "type": "uint256"
        }
      ],
      "stateMutability": "view",
      "type": "function"
    },
    {
      "inputs": [],
      "name": "claimRewards",
      "outputs": [],
      "stateMutability": "nonpayable",
      "type": "function"
    },
    {
      "inputs": [],
      "name": "decayDenominator",
      "outputs": [
        {
          "internalType": "uint256",
          "name": "",
          "type": "uint256"
        }
      ],
      "stateMutability": "view",
      "type": "function"
    },
    {
      "inputs": [],
      "name": "decayNumerator",
      "outputs": [
        {
          "internalType": "uint256",
          "name": "",
          "type": "uint256"
        }
      ],
      "stateMutability": "view",
      "type": "function"
    },
    {
      "inputs": [
        {
          "internalType": "uint256",
          "name": "_amount",
          "type": "uint256"
        }
      ],
      "name": "donate",
      "outputs": [],
      "stateMutability": "nonpayable",
      "type": "function"
    },
    {
      "inputs": [
        {
          "internalType": "contract ICommunity",
          "name": "_community",
          "type": "address"
        },
        {
          "internalType": "uint256",
          "name": "_amount",
          "type": "uint256"
        }
      ],
      "name": "donateToCommunity",
      "outputs": [],
      "stateMutability": "nonpayable",
      "type": "function"
    },
    {
      "inputs": [],
      "name": "donationCount",
      "outputs": [
        {
          "internalType": "uint256",
          "name": "",
          "type": "uint256"
        }
      ],
      "stateMutability": "view",
      "type": "function"
    },
    {
      "inputs": [
        {
          "internalType": "uint256",
          "name": "",
          "type": "uint256"
        }
      ],
      "name": "donations",
      "outputs": [
        {
          "internalType": "address",
          "name": "donor",
          "type": "address"
        },
        {
          "internalType": "address",
          "name": "target",
          "type": "address"
        },
        {
          "internalType": "uint256",
          "name": "rewardPeriod",
          "type": "uint256"
        },
        {
          "internalType": "uint256",
          "name": "blockNumber",
          "type": "uint256"
        },
        {
          "internalType": "uint256",
          "name": "amount",
          "type": "uint256"
        },
        {
          "internalType": "contract IERC20",
          "name": "token",
          "type": "address"
        },
        {
          "internalType": "uint256",
          "name": "tokenPrice",
          "type": "uint256"
        }
      ],
      "stateMutability": "view",
      "type": "function"
    },
    {
      "inputs": [
        {
          "internalType": "address",
          "name": "_donor",
          "type": "address"
        },
        {
          "internalType": "uint256",
          "name": "_rewardPeriodIndex",
          "type": "uint256"
        }
      ],
      "name": "donorRewardPeriod",
      "outputs": [
        {
          "internalType": "uint256",
          "name": "",
          "type": "uint256"
        }
      ],
      "stateMutability": "view",
      "type": "function"
    },
    {
      "inputs": [
        {
          "internalType": "address",
          "name": "",
          "type": "address"
        }
      ],
      "name": "donors",
      "outputs": [
        {
          "internalType": "uint256",
          "name": "lastClaim",
          "type": "uint256"
        },
        {
          "internalType": "uint256",
          "name": "rewardPeriodsCount",
          "type": "uint256"
        }
      ],
      "stateMutability": "view",
      "type": "function"
    },
    {
      "inputs": [
        {
          "internalType": "address",
          "name": "_donorAddress",
          "type": "address"
        }
      ],
      "name": "estimateClaimableReward",
      "outputs": [
        {
          "internalType": "uint256",
          "name": "",
          "type": "uint256"
        }
      ],
      "stateMutability": "view",
      "type": "function"
    },
    {
      "inputs": [],
      "name": "getVersion",
      "outputs": [
        {
          "internalType": "uint256",
          "name": "",
          "type": "uint256"
        }
      ],
      "stateMutability": "pure",
      "type": "function"
    },
    {
      "inputs": [
        {
          "internalType": "contract IERC20",
          "name": "_cUSD",
          "type": "address"
        },
        {
          "internalType": "contract IERC20",
          "name": "_PACT",
          "type": "address"
        },
        {
          "internalType": "contract ITreasury",
          "name": "_treasury",
          "type": "address"
        },
        {
          "internalType": "uint256",
          "name": "_firstRewardPerBlock",
          "type": "uint256"
        },
        {
          "internalType": "uint256",
          "name": "_rewardPeriodSize",
          "type": "uint256"
        },
        {
          "internalType": "uint256",
          "name": "_startingBlock",
          "type": "uint256"
        },
        {
          "internalType": "uint256",
          "name": "_decayNumerator",
          "type": "uint256"
        },
        {
          "internalType": "uint256",
          "name": "_decayDenominator",
          "type": "uint256"
        }
      ],
      "name": "initialize",
      "outputs": [],
      "stateMutability": "nonpayable",
      "type": "function"
    },
    {
      "inputs": [],
      "name": "owner",
      "outputs": [
        {
          "internalType": "address",
          "name": "",
          "type": "address"
        }
      ],
      "stateMutability": "view",
      "type": "function"
    },
    {
      "inputs": [],
      "name": "paused",
      "outputs": [
        {
          "internalType": "bool",
          "name": "",
          "type": "bool"
        }
      ],
      "stateMutability": "view",
      "type": "function"
    },
    {
      "inputs": [],
      "name": "renounceOwnership",
      "outputs": [],
      "stateMutability": "nonpayable",
      "type": "function"
    },
    {
      "inputs": [],
      "name": "rewardPeriodCount",
      "outputs": [
        {
          "internalType": "uint256",
          "name": "",
          "type": "uint256"
        }
      ],
      "stateMutability": "view",
      "type": "function"
    },
    {
      "inputs": [
        {
          "internalType": "uint256",
          "name": "_period",
          "type": "uint256"
        },
        {
          "internalType": "address",
          "name": "_donor",
          "type": "address"
        }
      ],
      "name": "rewardPeriodDonorAmount",
      "outputs": [
        {
          "internalType": "uint256",
          "name": "",
          "type": "uint256"
        }
      ],
      "stateMutability": "view",
      "type": "function"
    },
    {
      "inputs": [],
      "name": "rewardPeriodSize",
      "outputs": [
        {
          "internalType": "uint256",
          "name": "",
          "type": "uint256"
        }
      ],
      "stateMutability": "view",
      "type": "function"
    },
    {
      "inputs": [
        {
          "internalType": "uint256",
          "name": "",
          "type": "uint256"
        }
      ],
      "name": "rewardPeriods",
      "outputs": [
        {
          "internalType": "uint256",
          "name": "rewardPerBlock",
          "type": "uint256"
        },
        {
          "internalType": "uint256",
          "name": "rewardAmount",
          "type": "uint256"
        },
        {
          "internalType": "uint256",
          "name": "startBlock",
          "type": "uint256"
        },
        {
          "internalType": "uint256",
          "name": "endBlock",
          "type": "uint256"
        },
        {
          "internalType": "uint256",
          "name": "donationsAmount",
          "type": "uint256"
        }
      ],
      "stateMutability": "view",
      "type": "function"
    },
    {
      "inputs": [
        {
          "internalType": "contract IERC20",
          "name": "_token",
          "type": "address"
        },
        {
          "internalType": "address",
          "name": "_to",
          "type": "address"
        },
        {
          "internalType": "uint256",
          "name": "_amount",
          "type": "uint256"
        }
      ],
      "name": "transfer",
      "outputs": [],
      "stateMutability": "nonpayable",
      "type": "function"
    },
    {
      "inputs": [
        {
          "internalType": "address",
          "name": "newOwner",
          "type": "address"
        }
      ],
      "name": "transferOwnership",
      "outputs": [],
      "stateMutability": "nonpayable",
      "type": "function"
    },
    {
      "inputs": [],
      "name": "treasury",
      "outputs": [
        {
          "internalType": "contract ITreasury",
          "name": "",
          "type": "address"
        }
      ],
      "stateMutability": "view",
      "type": "function"
    },
    {
      "inputs": [
        {
          "internalType": "uint256",
          "name": "_startingBlock",
          "type": "uint256"
        },
        {
          "internalType": "uint256",
          "name": "_firstRewardPerBlock",
          "type": "uint256"
        }
      ],
      "name": "updateFirstRewardPeriodParams",
      "outputs": [],
      "stateMutability": "nonpayable",
      "type": "function"
    },
    {
      "inputs": [
        {
          "internalType": "uint256",
          "name": "_newRewardPeriodSize",
          "type": "uint256"
        },
        {
          "internalType": "uint256",
          "name": "_newDecayNumerator",
          "type": "uint256"
        },
        {
          "internalType": "uint256",
          "name": "_newDecayDenominator",
          "type": "uint256"
        }
      ],
      "name": "updateRewardPeriodParams",
      "outputs": [],
      "stateMutability": "nonpayable",
      "type": "function"
    },
    {
      "inputs": [
        {
          "internalType": "contract ITreasury",
          "name": "_newTreasury",
          "type": "address"
        }
      ],
      "name": "updateTreasury",
      "outputs": [],
      "stateMutability": "nonpayable",
      "type": "function"
    }
  ],
  "transactionHash": "0x091e9cb1007ec1f5652db03893bb231441206c315e4c25b6a1de47d351e5696e",
  "args": [],
  "solcInputHash": "bc78398ad6ba86cebe8213030fed1011",
  "bytecode": "0x608060405234801561001057600080fd5b50612171806100206000396000f3fe608060405234801561001057600080fd5b50600436106101c45760003560e01c80638252097d116100f9578063cd75000c11610097578063ed409ff311610071578063ed409ff31461043e578063f14faf6f14610447578063f2fde38b1461045a578063f8626af81461046d57600080fd5b8063cd75000c14610405578063df8fa43014610418578063e48508df1461042b57600080fd5b8063beabacc8116100d3578063beabacc81461039a578063c38474c0146103ad578063c89d1a8e146103b6578063ca0cdea8146103c957600080fd5b80638252097d1461031b5780638da5cb5b1461038057806392ade2991461039157600080fd5b80633b9a01761161016657806361d027b31161014057806361d027b3146102da578063715018a6146102ed5780637c62b1af146102f55780637f51bb1f1461030857600080fd5b80633b9a0176146102775780633ddec5311461028a5780635c975abb146102c457600080fd5b80631fccf672116101a25780631fccf672146102015780632abfab4d1461022c5780632bef5eef14610235578063372500ab1461026f57600080fd5b806307ea4e57146101c95780630d8e6e2c146101e557806311ec639b146101ec575b600080fd5b6101d260cf5481565b6040519081526020015b60405180910390f35b60016101d2565b6101ff6101fa366004611e85565b61050b565b005b60c954610214906001600160a01b031681565b6040516001600160a01b0390911681526020016101dc565b6101d260cd5481565b6101d2610243366004611e56565b600082815260d2602090815260408083206001600160a01b038516845260050190915290205492915050565b6101ff61065f565b60ca54610214906001600160a01b031681565b6101d2610298366004611cd8565b6001600160a01b0391909116600090815260d36020908152604080832093835260029093019052205490565b60655460ff1660405190151581526020016101dc565b60cb54610214906001600160a01b031681565b6101ff61086b565b6101ff610303366004611d3f565b6108a1565b6101ff610316366004611cbc565b610b36565b610358610329366004611e26565b60d260205260009081526040902080546001820154600283015460038401546004909401549293919290919085565b604080519586526020860194909452928401919091526060830152608082015260a0016101dc565b6033546001600160a01b0316610214565b6101d260d05481565b6101ff6103a8366004611d51565b610bb2565b6101d260ce5481565b6101d26103c4366004611cbc565b610c6f565b6103f06103d7366004611cbc565b60d3602052600090815260409020805460019091015482565b604080519283526020830191909152016101dc565b6101d2610413366004611cbc565b610d39565b6101ff610426366004611d91565b610dfd565b6101ff610439366004611ea6565b611111565b6101d260cc5481565b6101ff610455366004611e26565b6111b5565b6101ff610468366004611cbc565b611279565b6104c761047b366004611e26565b60d16020526000908152604090208054600182015460028301546003840154600485015460058601546006909601546001600160a01b0395861696948616959394929391929091169087565b604080516001600160a01b03988916815296881660208801528601949094526060850192909252608084015290921660a082015260c081019190915260e0016101dc565b6033546001600160a01b0316331461053e5760405162461bcd60e51b815260040161053590611fcf565b60405180910390fd5b600160005260d260205260008051602061211c833981519152547fb7404ce2b5a52e61a6b5c9b4585ed65d8cb4b8848d3ee262a356d0c2c46c5f35544382116106075760405162461bcd60e51b815260206004820152604f60248201527f446f6e6174696f6e4d696e65723a3a757064617465466972737452657761726460448201527f506572696f64506172616d733a20446f6e6174696f6e4d696e6572206861732060648201526e185b1c9958591e481cdd185c9d1959608a1b608482015260a401610535565b6106118484611314565b6040805183815260208101839052908101859052606081018490527f0dff8d4d90919e5c45ed6b61037a861e35ea326548d4e842036fef8883288c469060800160405180910390a150505050565b60655460ff16156106825760405162461bcd60e51b815260040161053590611f57565b600160005260d260205260008051602061211c833981519152544310156106bb5760405162461bcd60e51b815260040161053590611f20565b600260975414156106de5760405162461bcd60e51b815260040161053590612004565b600260975533600081815260d360205260408120916106fc90610d39565b90506107078261138b565b825580610715575050610864565b60ca546040516370a0823160e01b81523060048201526001600160a01b03909116906370a082319060240160206040518083038186803b15801561075857600080fd5b505afa15801561076c573d6000803e3d6000fd5b505050506040513d601f19601f820116820180604052508101906107909190611e3e565b8111156108155760ca546040516370a0823160e01b81523060048201526001600160a01b03909116906370a082319060240160206040518083038186803b1580156107da57600080fd5b505afa1580156107ee573d6000803e3d6000fd5b505050506040513d601f19601f820116820180604052508101906108129190611e3e565b90505b60ca5461082c906001600160a01b031633836113d3565b60405181815233907f106f923f993c2149d49b4255ff723acafa1f2d94393f561d3eda32ae348f72419060200160405180910390a250505b6001609755565b6033546001600160a01b031633146108955760405162461bcd60e51b815260040161053590611fcf565b61089f600061143b565b565b60655460ff16156108c45760405162461bcd60e51b815260040161053590611f57565b600160005260d260205260008051602061211c833981519152544310156108fd5760405162461bcd60e51b815260040161053590611f20565b600260975414156109205760405162461bcd60e51b815260040161053590612004565b600260975560cb5460408051632fd648bd60e11b815290516000926001600160a01b031691635fac917a916004808301926020929190829003018186803b15801561096a57600080fd5b505afa15801561097e573d6000803e3d6000fd5b505050506040513d601f19601f820116820180604052508101906109a29190611d23565b90506001604051633f9409e960e11b81526001600160a01b038581166004830152831690637f2813d29060240160206040518083038186803b1580156109e757600080fd5b505afa1580156109fb573d6000803e3d6000fd5b505050506040513d601f19601f82011682018060405250810190610a1f9190611e07565b6003811115610a3e57634e487b7160e01b600052602160045260246000fd5b14610ac15760405162461bcd60e51b815260206004820152604760248201527f446f6e6174696f6e4d696e65723a3a646f6e617465546f436f6d6d756e69747960448201527f3a2054686973206973206e6f7420612076616c696420636f6d6d756e697479206064820152666164647265737360c81b608482015260a401610535565b60405163e69d849d60e01b8152336004820152602481018390526001600160a01b0384169063e69d849d90604401600060405180830381600087803b158015610b0957600080fd5b505af1158015610b1d573d6000803e3d6000fd5b50505050610b2c33838561148d565b5050600160975550565b6033546001600160a01b03163314610b605760405162461bcd60e51b815260040161053590611fcf565b60cb80546001600160a01b038381166001600160a01b0319831681179093556040519116919082907f4ab5be82436d353e61ca18726e984e561f5c1cc7c6d38b29d2553c790434705a90600090a35050565b6033546001600160a01b03163314610bdc5760405162461bcd60e51b815260040161053590611fcf565b60026097541415610bff5760405162461bcd60e51b815260040161053590612004565b6002609755610c186001600160a01b03841683836113d3565b816001600160a01b0316836001600160a01b03167f9b035625e569d1d2bf54830a290aefba7ab11610ba8490871dc62b86b63a895683604051610c5d91815260200190565b60405180910390a35050600160975550565b6001600090815260d260205260008051602061211c83398151915254431015610caa5760405162461bcd60e51b815260040161053590611f20565b60655460ff1615610ccd5760405162461bcd60e51b815260040161053590611f57565b60ce54600090815260d26020526040812060038101549091904311610d325760048201546001600160a01b03851660009081526005840160205260409020546001840154610d1b9190612073565b610d259190612053565b610d2f908261203b565b90505b9392505050565b6001600160a01b038116600090815260d360205260408120818080610d5d8461138b565b8454909150600090610d7090600161203b565b90505b818111610df257600081815260028601602090815260408083205480845260d2835281842060048101546001600160a01b038d16865260058201909452919093205460018201549396509092610dc99190612073565b610dd39190612053565b610ddd908661203b565b945081610de9816120d5565b92505050610d73565b509195945050505050565b600054610100900460ff1680610e16575060005460ff16155b610e325760405162461bcd60e51b815260040161053590611f81565b600054610100900460ff16158015610e54576000805461ffff19166101011790555b6001600160a01b038916610ec25760405162461bcd60e51b815260206004820152602f60248201527f446f6e6174696f6e4d696e65723a3a696e697469616c697a653a20635553442060448201526e1859191c995cdcc81b9bdd081cd95d608a1b6064820152608401610535565b6001600160a01b038816610f305760405162461bcd60e51b815260206004820152602f60248201527f446f6e6174696f6e4d696e65723a3a696e697469616c697a653a20504143542060448201526e1859191c995cdcc81b9bdd081cd95d608a1b6064820152608401610535565b6001600160a01b038716610f9b5760405162461bcd60e51b815260206004820152602c60248201527f446f6e6174696f6e4d696e65723a3a696e697469616c697a653a20747265617360448201526b1d5c9e57c81b9bdd081cd95d60a21b6064820152608401610535565b8561100e5760405162461bcd60e51b815260206004820152603760248201527f446f6e6174696f6e4d696e65723a3a696e697469616c697a653a20666972737460448201527f526577617264506572426c6f636b206e6f7420736574210000000000000000006064820152608401610535565b836110815760405162461bcd60e51b815260206004820152603860248201527f446f6e6174696f6e4d696e65723a3a696e697469616c697a653a20737461727460448201527f696e67526577617264506572696f64206e6f74207365742100000000000000006064820152608401610535565b61108961157d565b6110916115f8565b61109961165f565b60c980546001600160a01b03808c166001600160a01b03199283161790925560ca80548b841690831617905560cb8054928a169290911691909117905560cc85905560cf83905560d0829055600160ce556110f48487611314565b8015611106576000805461ff00191690555b505050505050505050565b6033546001600160a01b0316331461113b5760405162461bcd60e51b815260040161053590611fcf565b60cc805460cf805460d080549488905591869055908490556040805183815260208101839052908101849052606081018790526080810186905260a08101859052919290917f8fb29c6ced5ce51696c08668df816fab7e60c674a6c36e167d5df9b8a5f499849060c00160405180910390a1505050505050565b60655460ff16156111d85760405162461bcd60e51b815260040161053590611f57565b600160005260d260205260008051602061211c833981519152544310156112115760405162461bcd60e51b815260040161053590611f20565b600260975414156112345760405162461bcd60e51b815260040161053590612004565b600260975560cb5460c954611258916001600160a01b0391821691339116846116be565b60cb5461127190339083906001600160a01b031661148d565b506001609755565b6033546001600160a01b031633146112a35760405162461bcd60e51b815260040161053590611fcf565b6001600160a01b0381166113085760405162461bcd60e51b815260206004820152602660248201527f4f776e61626c653a206e6577206f776e657220697320746865207a65726f206160448201526564647265737360d01b6064820152608401610535565b6113118161143b565b50565b6001600081905260d260205260008051602061211c83398151915283905560cc547fb7404ce2b5a52e61a6b5c9b4585ed65d8cb4b8848d3ee262a356d0c2c46c5f359190611362908561203b565b61136c9190612092565b600382015581815560cc546113819083612073565b6001909101555050565b6001810154600090815260028201602090815260408083205480845260d29092528220600301544311156113c25750506001015490565b60018360010154610d329190612092565b6040516001600160a01b03831660248201526044810182905261143690849063a9059cbb60e01b906064015b60408051601f198184030181529190526020810180516001600160e01b03166001600160e01b0319909316929092179091526116fc565b505050565b603380546001600160a01b038381166001600160a01b0319831681179093556040519116919082907f8be0079c531659141344cd1fd0a4f28419497f9722a3daafe3b4186f6b6457e090600090a35050565b6114956117ce565b60cd80549060006114a5836120d5565b909155505060cd54600090815260d16020526040902080546001600160a01b038086166001600160a01b03199283161783556001830180548583169084161790556004830185905543600384015560ce8054600285015560c954600585018054909416921691909117909155670de0b6b3a764000060068301555461152b90338561188f565b611534336118ec565b60cd546040518481526001600160a01b0384169133917fdc4e2aab08207c15ed02d2a68af2e6df3472e2d7a636be078843d1724917e3a89060200160405180910390a450505050565b600054610100900460ff1680611596575060005460ff16155b6115b25760405162461bcd60e51b815260040161053590611f81565b600054610100900460ff161580156115d4576000805461ffff19166101011790555b6115dc611957565b6115e46119c1565b8015611311576000805461ff001916905550565b600054610100900460ff1680611611575060005460ff16155b61162d5760405162461bcd60e51b815260040161053590611f81565b600054610100900460ff1615801561164f576000805461ffff19166101011790555b611657611957565b6115e4611a21565b600054610100900460ff1680611678575060005460ff16155b6116945760405162461bcd60e51b815260040161053590611f81565b600054610100900460ff161580156116b6576000805461ffff19166101011790555b6115e4611a96565b6040516001600160a01b03808516602483015283166044820152606481018290526116f69085906323b872dd60e01b906084016113ff565b50505050565b6000611751826040518060400160405280602081526020017f5361666545524332303a206c6f772d6c6576656c2063616c6c206661696c6564815250856001600160a01b0316611b069092919063ffffffff16565b805190915015611436578080602001905181019061176f9190611d03565b6114365760405162461bcd60e51b815260206004820152602a60248201527f5361666545524332303a204552433230206f7065726174696f6e20646964206e6044820152691bdd081cdd58d8d9595960b21b6064820152608401610535565b60ce54600090815260d2602052604090205b43816003015410156113115760ce80549060006117fc836120d5565b909155505060ce54600090815260d260205260409020600382015461182290600161203b565b6002820181905560cc54600191611839919061203b565b6118439190612092565b6003820155611850611b15565b80825560cc5460009161186291612073565b9050826004015460001415611883576001830154611880908261203b565b90505b600182015590506117e0565b600083815260d260205260408120600481018054919284926118b290849061203b565b90915550506001600160a01b0383166000908152600582016020526040812080548492906118e190849061203b565b909155505050505050565b6001600160a01b038116600090815260d36020908152604080832060018101548452600281019092529091205460ce54811461143657600182018054906000611934836120d5565b909155505060ce5460018301546000908152600284016020526040902055505050565b600054610100900460ff1680611970575060005460ff16155b61198c5760405162461bcd60e51b815260040161053590611f81565b600054610100900460ff161580156115e4576000805461ffff19166101011790558015611311576000805461ff001916905550565b600054610100900460ff16806119da575060005460ff16155b6119f65760405162461bcd60e51b815260040161053590611f81565b600054610100900460ff16158015611a18576000805461ffff19166101011790555b6115e43361143b565b600054610100900460ff1680611a3a575060005460ff16155b611a565760405162461bcd60e51b815260040161053590611f81565b600054610100900460ff16158015611a78576000805461ffff19166101011790555b6065805460ff191690558015611311576000805461ff001916905550565b600054610100900460ff1680611aaf575060005460ff16155b611acb5760405162461bcd60e51b815260040161053590611f81565b600054610100900460ff16158015611aed576000805461ffff19166101011790555b60016097558015611311576000805461ff001916905550565b6060610d2f8484600085611b5b565b600060d05460cf5460d26000600160ce54611b309190612092565b815260200190815260200160002060000154611b4c9190612073565b611b569190612053565b905090565b606082471015611bbc5760405162461bcd60e51b815260206004820152602660248201527f416464726573733a20696e73756666696369656e742062616c616e636520666f6044820152651c8818d85b1b60d21b6064820152608401610535565b843b611c0a5760405162461bcd60e51b815260206004820152601d60248201527f416464726573733a2063616c6c20746f206e6f6e2d636f6e74726163740000006044820152606401610535565b600080866001600160a01b03168587604051611c269190611ed1565b60006040518083038185875af1925050503d8060008114611c63576040519150601f19603f3d011682016040523d82523d6000602084013e611c68565b606091505b5091509150611c78828286611c83565b979650505050505050565b60608315611c92575081610d32565b825115611ca25782518084602001fd5b8160405162461bcd60e51b81526004016105359190611eed565b600060208284031215611ccd578081fd5b8135610d3281612106565b60008060408385031215611cea578081fd5b8235611cf581612106565b946020939093013593505050565b600060208284031215611d14578081fd5b81518015158114610d32578182fd5b600060208284031215611d34578081fd5b8151610d3281612106565b60008060408385031215611cea578182fd5b600080600060608486031215611d65578081fd5b8335611d7081612106565b92506020840135611d8081612106565b929592945050506040919091013590565b600080600080600080600080610100898b031215611dad578384fd5b8835611db881612106565b97506020890135611dc881612106565b96506040890135611dd881612106565b979a96995096976060810135975060808101359660a0820135965060c0820135955060e0909101359350915050565b600060208284031215611e18578081fd5b815160048110610d32578182fd5b600060208284031215611e37578081fd5b5035919050565b600060208284031215611e4f578081fd5b5051919050565b60008060408385031215611e68578182fd5b823591506020830135611e7a81612106565b809150509250929050565b60008060408385031215611e97578182fd5b50508035926020909101359150565b600080600060608486031215611eba578283fd5b505081359360208301359350604090920135919050565b60008251611ee38184602087016120a9565b9190910192915050565b6020815260008251806020840152611f0c8160408501602087016120a9565b601f01601f19169190910160400192915050565b6020808252601e908201527f446f6e6174696f6e4d696e65723a204552525f4e4f545f535441525445440000604082015260600190565b60208082526010908201526f14185d5cd8589b194e881c185d5cd95960821b604082015260600190565b6020808252602e908201527f496e697469616c697a61626c653a20636f6e747261637420697320616c72656160408201526d191e481a5b9a5d1a585b1a5e995960921b606082015260800190565b6020808252818101527f4f776e61626c653a2063616c6c6572206973206e6f7420746865206f776e6572604082015260600190565b6020808252601f908201527f5265656e7472616e637947756172643a207265656e7472616e742063616c6c00604082015260600190565b6000821982111561204e5761204e6120f0565b500190565b60008261206e57634e487b7160e01b81526012600452602481fd5b500490565b600081600019048311821515161561208d5761208d6120f0565b500290565b6000828210156120a4576120a46120f0565b500390565b60005b838110156120c45781810151838201526020016120ac565b838111156116f65750506000910152565b60006000198214156120e9576120e96120f0565b5060010190565b634e487b7160e01b600052601160045260246000fd5b6001600160a01b038116811461131157600080fdfeb7404ce2b5a52e61a6b5c9b4585ed65d8cb4b8848d3ee262a356d0c2c46c5f37a26469706673582212201d0af73d9efe742524b34382155e9592c62575d04fde0b58ae3d80c1033b286d64736f6c63430008040033",
  "devdoc": {
    "events": {
      "DonationAdded(uint256,address,uint256,address)": {
        "params": {
          "amount": "Value of the donation",
          "donationId": "Id of the donation",
          "donor": "Address of the donner",
          "target": "Address of the receiver (community or treasury)                    or address of the DonationMiner contract otherwise"
        }
      },
      "FirstRewardPeriodParamsUpdated(uint256,uint256,uint256,uint256)": {
        "params": {
          "newFirstRewardPerBlock": "New newFirstRewardPerBlock value For further information regarding each parameter, see *DonationMiner* smart contract initialize method.",
          "newStartingBlock": "New newStartingBlock value",
          "oldFirstRewardPerBlock": "Old oldFirstRewardPerBlock value",
          "oldStartingBlock": "Old oldStartingBlock value"
        }
      },
      "RewardClaimed(address,uint256)": {
        "params": {
          "amount": "Value of the reward",
          "donor": "Address of the donner"
        }
      },
      "RewardPeriodParamsUpdated(uint256,uint256,uint256,uint256,uint256,uint256)": {
        "params": {
          "newDecayDenominator": "New decayDenominator value For further information regarding each parameter, see *DonationMiner* smart contract initialize method.",
          "newDecayNumerator": "New decayNumerator value",
          "newRewardPeriodSize": "New rewardPeriodSize value",
          "oldDecayDenominator": "Old decayDenominator value",
          "oldDecayNumerator": "Old decayNumerator value",
          "oldRewardPeriodSize": "Old rewardPeriodSize value"
        }
      },
      "TransferERC20(address,address,uint256)": {
        "params": {
          "amount": "Amount of the transaction",
          "to": "Address of the receiver",
          "token": "ERC20 token address"
        }
      },
      "TreasuryUpdated(address,address)": {
        "params": {
          "newTreasury": "New treasury address",
          "oldTreasury": "Old treasury address"
        }
      }
    },
    "kind": "dev",
    "methods": {
      "calculateClaimableRewards(address)": {
        "params": {
          "_donorAddress": "address of the donor"
        },
        "returns": {
          "_0": "uint256 sum of all donor's rewards that has not been claimed yet"
        }
      },
      "donate(uint256)": {
        "params": {
          "_amount": "Amount of cUSD tokens to deposit."
        }
      },
      "donateToCommunity(address,uint256)": {
        "details": "Transfers cUSD tokens to the community contract",
        "params": {
          "_amount": "amount of cUSD tokens to deposit",
          "_community": "address of the community"
        }
      },
      "donorRewardPeriod(address,uint256)": {
        "params": {
          "_donor": "address of the donor",
          "_rewardPeriodIndex": "index of the reward period"
        },
        "returns": {
          "_0": "uint256 number of the reward period"
        }
      },
      "estimateClaimableReward(address)": {
        "params": {
          "_donorAddress": "address of the donor"
        },
        "returns": {
          "_0": "uint256 reward that donor will receive in current reward period if there isn't another donation"
        }
      },
      "initialize(address,address,address,uint256,uint256,uint256,uint256,uint256)": {
        "params": {
          "_PACT": "Address of the PACT Token",
          "_cUSD": "Address of the cUSD token",
          "_decayDenominator": "Decay denominator used for calculating the new reward per block based on the previous reward per block",
          "_decayNumerator": "Decay numerator used for calculating the new reward per block based on the previous reward per block",
          "_firstRewardPerBlock": "Number of PACTs given for each block                              from the first reward period",
          "_rewardPeriodSize": "Number of blocks of the reward period",
          "_startingBlock": "First block of the first reward period",
          "_treasury": "Address of the Treasury"
        }
      },
      "owner()": {
        "details": "Returns the address of the current owner."
      },
      "paused()": {
        "details": "Returns true if the contract is paused, and false otherwise."
      },
      "renounceOwnership()": {
        "details": "Leaves the contract without owner. It will not be possible to call `onlyOwner` functions anymore. Can only be called by the current owner. NOTE: Renouncing ownership will leave the contract without an owner, thereby removing any functionality that is only available to the owner."
      },
      "rewardPeriodDonorAmount(uint256,address)": {
        "params": {
          "_donor": "address of the donor",
          "_period": "number of the reward period"
        },
        "returns": {
          "_0": "uint256 amount of cUSD donated by the user in this reward period"
        }
      },
      "transfer(address,address,uint256)": {
        "params": {
          "_amount": "amount of the transaction",
          "_to": "address of the receiver",
          "_token": "address of the ERC20 token"
        }
      },
      "transferOwnership(address)": {
        "details": "Transfers ownership of the contract to a new account (`newOwner`). Can only be called by the current owner."
      },
      "updateFirstRewardPeriodParams(uint256,uint256)": {
        "params": {
          "_firstRewardPerBlock": "value of new firstRewardPerBlock",
          "_startingBlock": "value of new startingBlock"
        }
      },
      "updateRewardPeriodParams(uint256,uint256,uint256)": {
        "params": {
          "_newDecayDenominator": "value of new decayDenominator",
          "_newDecayNumerator": "value of new decayNumerator",
          "_newRewardPeriodSize": "value of new rewardPeriodSize"
        }
      },
      "updateTreasury(address)": {
        "params": {
          "_newTreasury": "address of new treasury_ contract"
        }
      }
    },
    "version": 1
  },
  "userdoc": {
    "events": {
      "DonationAdded(uint256,address,uint256,address)": {
        "notice": "Triggered when a donation has been added"
      },
      "FirstRewardPeriodParamsUpdated(uint256,uint256,uint256,uint256)": {
        "notice": "Triggered when the first reward period params have been updated"
      },
      "RewardClaimed(address,uint256)": {
        "notice": "Triggered when a donor has claimed his reward"
      },
      "RewardPeriodParamsUpdated(uint256,uint256,uint256,uint256,uint256,uint256)": {
        "notice": "Triggered when reward period params have been updated"
      },
      "TransferERC20(address,address,uint256)": {
        "notice": "Triggered when an amount of an ERC20 has been transferred from this contract to an address"
      },
      "TreasuryUpdated(address,address)": {
        "notice": "Triggered when the treasury address has been updated"
      }
    },
    "kind": "user",
    "methods": {
      "calculateClaimableRewards(address)": {
        "notice": "Calculates the rewards from ended reward periods of a donor"
      },
      "claimRewards()": {
        "notice": "Transfers to the sender the rewards from ended reward periods"
      },
      "donate(uint256)": {
        "notice": "Transfers cUSD tokens to the treasury contract"
      },
      "donorRewardPeriod(address,uint256)": {
        "notice": "Returns a reward period number from a donor reward period list"
      },
      "estimateClaimableReward(address)": {
        "notice": "Calculates the estimate reward of a donor for current reward period"
      },
      "getVersion()": {
        "notice": "Returns the current implementation version"
      },
      "initialize(address,address,address,uint256,uint256,uint256,uint256,uint256)": {
        "notice": "Used to initialize a new DonationMiner contract"
      },
      "rewardPeriodDonorAmount(uint256,address)": {
        "notice": "Returns the amount of cUSD donated by a user in a reward period"
      },
      "transfer(address,address,uint256)": {
        "notice": "Transfers an amount of an ERC20 from this contract to an address"
      },
      "updateFirstRewardPeriodParams(uint256,uint256)": {
        "notice": "Updates first reward period default params"
      },
      "updateRewardPeriodParams(uint256,uint256,uint256)": {
        "notice": "Updates reward period default params"
      },
      "updateTreasury(address)": {
        "notice": "Updates Treasury address"
      }
    },
    "version": 1
  },
  "storageLayout": {
    "storage": [
      {
        "astId": 538,
        "contract": "contracts/token/DonationMinerImplementation.sol:DonationMinerImplementation",
        "label": "_initialized",
        "offset": 0,
        "slot": "0",
        "type": "t_bool"
      },
      {
        "astId": 541,
        "contract": "contracts/token/DonationMinerImplementation.sol:DonationMinerImplementation",
        "label": "_initializing",
        "offset": 1,
        "slot": "0",
        "type": "t_bool"
      },
      {
        "astId": 792,
        "contract": "contracts/token/DonationMinerImplementation.sol:DonationMinerImplementation",
        "label": "__gap",
        "offset": 0,
        "slot": "1",
        "type": "t_array(t_uint256)50_storage"
      },
      {
        "astId": 418,
        "contract": "contracts/token/DonationMinerImplementation.sol:DonationMinerImplementation",
        "label": "_owner",
        "offset": 0,
        "slot": "51",
        "type": "t_address"
      },
      {
        "astId": 531,
        "contract": "contracts/token/DonationMinerImplementation.sol:DonationMinerImplementation",
        "label": "__gap",
        "offset": 0,
        "slot": "52",
        "type": "t_array(t_uint256)49_storage"
      },
      {
        "astId": 599,
        "contract": "contracts/token/DonationMinerImplementation.sol:DonationMinerImplementation",
        "label": "_paused",
        "offset": 0,
        "slot": "101",
        "type": "t_bool"
      },
      {
        "astId": 690,
        "contract": "contracts/token/DonationMinerImplementation.sol:DonationMinerImplementation",
        "label": "__gap",
        "offset": 0,
        "slot": "102",
        "type": "t_array(t_uint256)49_storage"
      },
      {
        "astId": 705,
        "contract": "contracts/token/DonationMinerImplementation.sol:DonationMinerImplementation",
        "label": "_status",
        "offset": 0,
        "slot": "151",
        "type": "t_uint256"
      },
      {
        "astId": 748,
        "contract": "contracts/token/DonationMinerImplementation.sol:DonationMinerImplementation",
        "label": "__gap",
        "offset": 0,
        "slot": "152",
        "type": "t_array(t_uint256)49_storage"
      },
      {
        "astId": 18295,
        "contract": "contracts/token/DonationMinerImplementation.sol:DonationMinerImplementation",
        "label": "cUSD",
        "offset": 0,
        "slot": "201",
        "type": "t_contract(IERC20)3196"
      },
      {
        "astId": 18299,
        "contract": "contracts/token/DonationMinerImplementation.sol:DonationMinerImplementation",
        "label": "PACT",
        "offset": 0,
        "slot": "202",
        "type": "t_contract(IERC20)3196"
      },
      {
        "astId": 18303,
        "contract": "contracts/token/DonationMinerImplementation.sol:DonationMinerImplementation",
        "label": "treasury",
        "offset": 0,
        "slot": "203",
        "type": "t_contract(ITreasury)18639"
      },
      {
        "astId": 18306,
        "contract": "contracts/token/DonationMinerImplementation.sol:DonationMinerImplementation",
        "label": "rewardPeriodSize",
        "offset": 0,
        "slot": "204",
        "type": "t_uint256"
      },
      {
        "astId": 18309,
        "contract": "contracts/token/DonationMinerImplementation.sol:DonationMinerImplementation",
        "label": "donationCount",
        "offset": 0,
        "slot": "205",
        "type": "t_uint256"
      },
      {
        "astId": 18312,
        "contract": "contracts/token/DonationMinerImplementation.sol:DonationMinerImplementation",
        "label": "rewardPeriodCount",
        "offset": 0,
        "slot": "206",
        "type": "t_uint256"
      },
      {
        "astId": 18315,
        "contract": "contracts/token/DonationMinerImplementation.sol:DonationMinerImplementation",
        "label": "decayNumerator",
        "offset": 0,
        "slot": "207",
        "type": "t_uint256"
      },
      {
        "astId": 18318,
        "contract": "contracts/token/DonationMinerImplementation.sol:DonationMinerImplementation",
        "label": "decayDenominator",
        "offset": 0,
        "slot": "208",
        "type": "t_uint256"
      },
      {
        "astId": 18324,
        "contract": "contracts/token/DonationMinerImplementation.sol:DonationMinerImplementation",
        "label": "donations",
        "offset": 0,
        "slot": "209",
        "type": "t_mapping(t_uint256,t_struct(Donation)18382_storage)"
      },
      {
        "astId": 18330,
        "contract": "contracts/token/DonationMinerImplementation.sol:DonationMinerImplementation",
        "label": "rewardPeriods",
        "offset": 0,
        "slot": "210",
        "type": "t_mapping(t_uint256,t_struct(RewardPeriod)18357_storage)"
      },
      {
        "astId": 18336,
        "contract": "contracts/token/DonationMinerImplementation.sol:DonationMinerImplementation",
        "label": "donors",
        "offset": 0,
        "slot": "211",
        "type": "t_mapping(t_address,t_struct(Donor)18366_storage)"
      }
    ],
    "types": {
      "t_address": {
        "encoding": "inplace",
        "label": "address",
        "numberOfBytes": "20"
      },
      "t_array(t_uint256)49_storage": {
        "base": "t_uint256",
        "encoding": "inplace",
        "label": "uint256[49]",
        "numberOfBytes": "1568"
      },
      "t_array(t_uint256)50_storage": {
        "base": "t_uint256",
        "encoding": "inplace",
        "label": "uint256[50]",
        "numberOfBytes": "1600"
      },
      "t_bool": {
        "encoding": "inplace",
        "label": "bool",
        "numberOfBytes": "1"
      },
      "t_contract(IERC20)3196": {
        "encoding": "inplace",
        "label": "contract IERC20",
        "numberOfBytes": "20"
      },
      "t_contract(ITreasury)18639": {
        "encoding": "inplace",
        "label": "contract ITreasury",
        "numberOfBytes": "20"
      },
      "t_mapping(t_address,t_struct(Donor)18366_storage)": {
        "encoding": "mapping",
        "key": "t_address",
        "label": "mapping(address => struct IDonationMiner.Donor)",
        "numberOfBytes": "32",
        "value": "t_struct(Donor)18366_storage"
      },
      "t_mapping(t_address,t_uint256)": {
        "encoding": "mapping",
        "key": "t_address",
        "label": "mapping(address => uint256)",
        "numberOfBytes": "32",
        "value": "t_uint256"
      },
      "t_mapping(t_uint256,t_struct(Donation)18382_storage)": {
        "encoding": "mapping",
        "key": "t_uint256",
        "label": "mapping(uint256 => struct IDonationMiner.Donation)",
        "numberOfBytes": "32",
        "value": "t_struct(Donation)18382_storage"
      },
      "t_mapping(t_uint256,t_struct(RewardPeriod)18357_storage)": {
        "encoding": "mapping",
        "key": "t_uint256",
        "label": "mapping(uint256 => struct IDonationMiner.RewardPeriod)",
        "numberOfBytes": "32",
        "value": "t_struct(RewardPeriod)18357_storage"
      },
      "t_mapping(t_uint256,t_uint256)": {
        "encoding": "mapping",
        "key": "t_uint256",
        "label": "mapping(uint256 => uint256)",
        "numberOfBytes": "32",
        "value": "t_uint256"
      },
      "t_struct(Donation)18382_storage": {
        "encoding": "inplace",
        "label": "struct IDonationMiner.Donation",
        "members": [
          {
            "astId": 18368,
            "contract": "contracts/token/DonationMinerImplementation.sol:DonationMinerImplementation",
            "label": "donor",
            "offset": 0,
            "slot": "0",
            "type": "t_address"
          },
          {
            "astId": 18370,
            "contract": "contracts/token/DonationMinerImplementation.sol:DonationMinerImplementation",
            "label": "target",
            "offset": 0,
            "slot": "1",
            "type": "t_address"
          },
          {
            "astId": 18372,
            "contract": "contracts/token/DonationMinerImplementation.sol:DonationMinerImplementation",
            "label": "rewardPeriod",
            "offset": 0,
            "slot": "2",
            "type": "t_uint256"
          },
          {
            "astId": 18374,
            "contract": "contracts/token/DonationMinerImplementation.sol:DonationMinerImplementation",
            "label": "blockNumber",
            "offset": 0,
            "slot": "3",
            "type": "t_uint256"
          },
          {
            "astId": 18376,
            "contract": "contracts/token/DonationMinerImplementation.sol:DonationMinerImplementation",
            "label": "amount",
            "offset": 0,
            "slot": "4",
            "type": "t_uint256"
          },
          {
            "astId": 18379,
            "contract": "contracts/token/DonationMinerImplementation.sol:DonationMinerImplementation",
            "label": "token",
            "offset": 0,
            "slot": "5",
            "type": "t_contract(IERC20)3196"
          },
          {
            "astId": 18381,
            "contract": "contracts/token/DonationMinerImplementation.sol:DonationMinerImplementation",
            "label": "tokenPrice",
            "offset": 0,
            "slot": "6",
            "type": "t_uint256"
          }
        ],
        "numberOfBytes": "224"
      },
      "t_struct(Donor)18366_storage": {
        "encoding": "inplace",
        "label": "struct IDonationMiner.Donor",
        "members": [
          {
            "astId": 18359,
            "contract": "contracts/token/DonationMinerImplementation.sol:DonationMinerImplementation",
            "label": "lastClaim",
            "offset": 0,
            "slot": "0",
            "type": "t_uint256"
          },
          {
            "astId": 18361,
            "contract": "contracts/token/DonationMinerImplementation.sol:DonationMinerImplementation",
            "label": "rewardPeriodsCount",
            "offset": 0,
            "slot": "1",
            "type": "t_uint256"
          },
          {
            "astId": 18365,
            "contract": "contracts/token/DonationMinerImplementation.sol:DonationMinerImplementation",
            "label": "rewardPeriods",
            "offset": 0,
            "slot": "2",
            "type": "t_mapping(t_uint256,t_uint256)"
          }
        ],
        "numberOfBytes": "96"
      },
      "t_struct(RewardPeriod)18357_storage": {
        "encoding": "inplace",
        "label": "struct IDonationMiner.RewardPeriod",
        "members": [
          {
            "astId": 18344,
            "contract": "contracts/token/DonationMinerImplementation.sol:DonationMinerImplementation",
            "label": "rewardPerBlock",
            "offset": 0,
            "slot": "0",
            "type": "t_uint256"
          },
          {
            "astId": 18346,
            "contract": "contracts/token/DonationMinerImplementation.sol:DonationMinerImplementation",
            "label": "rewardAmount",
            "offset": 0,
            "slot": "1",
            "type": "t_uint256"
          },
          {
            "astId": 18348,
            "contract": "contracts/token/DonationMinerImplementation.sol:DonationMinerImplementation",
            "label": "startBlock",
            "offset": 0,
            "slot": "2",
            "type": "t_uint256"
          },
          {
            "astId": 18350,
            "contract": "contracts/token/DonationMinerImplementation.sol:DonationMinerImplementation",
            "label": "endBlock",
            "offset": 0,
            "slot": "3",
            "type": "t_uint256"
          },
          {
            "astId": 18352,
            "contract": "contracts/token/DonationMinerImplementation.sol:DonationMinerImplementation",
            "label": "donationsAmount",
            "offset": 0,
            "slot": "4",
            "type": "t_uint256"
          },
          {
            "astId": 18356,
            "contract": "contracts/token/DonationMinerImplementation.sol:DonationMinerImplementation",
            "label": "donorAmounts",
            "offset": 0,
            "slot": "5",
            "type": "t_mapping(t_address,t_uint256)"
          }
        ],
        "numberOfBytes": "192"
      },
      "t_uint256": {
        "encoding": "inplace",
        "label": "uint256",
        "numberOfBytes": "32"
      }
    }
  }
}