{
  "address": "0xc08702aF2061fa28318B1F9341c055a612ceb3De",
  "abi": [
    {
      "inputs": [
        {
          "internalType": "contract IERC20",
          "name": "cUSD_",
          "type": "address"
        },
        {
          "internalType": "contract IERC20",
          "name": "IPCT_",
          "type": "address"
        },
        {
          "internalType": "contract ITreasury",
          "name": "treasury_",
          "type": "address"
        },
        {
          "internalType": "uint256",
          "name": "rewardPerBlock_",
          "type": "uint256"
        },
        {
          "internalType": "uint256",
          "name": "rewardPeriodSize_",
          "type": "uint256"
        },
        {
          "internalType": "uint256",
          "name": "startingBlock_",
          "type": "uint256"
        }
      ],
      "stateMutability": "nonpayable",
      "type": "constructor"
    },
    {
      "anonymous": false,
      "inputs": [
        {
          "indexed": true,
          "internalType": "address",
          "name": "donor",
          "type": "address"
        },
        {
          "indexed": false,
          "internalType": "uint256",
          "name": "amount",
          "type": "uint256"
        }
      ],
      "name": "DonationAdded",
      "type": "event"
    },
    {
      "anonymous": false,
      "inputs": [
        {
          "indexed": true,
          "internalType": "address",
          "name": "previousOwner",
          "type": "address"
        },
        {
          "indexed": true,
          "internalType": "address",
          "name": "newOwner",
          "type": "address"
        }
      ],
      "name": "OwnershipTransferred",
      "type": "event"
    },
    {
      "anonymous": false,
      "inputs": [
        {
          "indexed": false,
          "internalType": "address",
          "name": "account",
          "type": "address"
        }
      ],
      "name": "Paused",
      "type": "event"
    },
    {
      "anonymous": false,
      "inputs": [
        {
          "indexed": true,
          "internalType": "address",
          "name": "donor",
          "type": "address"
        },
        {
          "indexed": false,
          "internalType": "uint256",
          "name": "amount",
          "type": "uint256"
        }
      ],
      "name": "RewardClaimed",
      "type": "event"
    },
    {
      "anonymous": false,
      "inputs": [
        {
          "indexed": false,
          "internalType": "address",
          "name": "account",
          "type": "address"
        }
      ],
      "name": "Unpaused",
      "type": "event"
    },
    {
      "inputs": [],
      "name": "IPCT",
      "outputs": [
        {
          "internalType": "contract IERC20",
          "name": "",
          "type": "address"
        }
      ],
      "stateMutability": "view",
      "type": "function"
    },
    {
      "inputs": [],
      "name": "cUSD",
      "outputs": [
        {
          "internalType": "contract IERC20",
          "name": "",
          "type": "address"
        }
      ],
      "stateMutability": "view",
      "type": "function"
    },
    {
      "inputs": [],
      "name": "claimRewards",
      "outputs": [],
      "stateMutability": "nonpayable",
      "type": "function"
    },
    {
      "inputs": [
        {
          "internalType": "uint256",
          "name": "amount_",
          "type": "uint256"
        }
      ],
      "name": "donate",
      "outputs": [],
      "stateMutability": "nonpayable",
      "type": "function"
    },
    {
      "inputs": [
        {
          "internalType": "contract ICommunity",
          "name": "community_",
          "type": "address"
        },
        {
          "internalType": "uint256",
          "name": "amount_",
          "type": "uint256"
        }
      ],
      "name": "donateToCommunity",
      "outputs": [],
      "stateMutability": "nonpayable",
      "type": "function"
    },
    {
      "inputs": [
        {
          "internalType": "address",
          "name": "donor",
          "type": "address"
        },
        {
          "internalType": "uint256",
          "name": "donationId",
          "type": "uint256"
        }
      ],
      "name": "donations",
      "outputs": [
        {
          "internalType": "uint256",
          "name": "rewardPeriodNumber",
          "type": "uint256"
        },
        {
          "internalType": "uint256",
          "name": "amount",
          "type": "uint256"
        }
      ],
      "stateMutability": "view",
      "type": "function"
    },
    {
      "inputs": [
        {
          "internalType": "address",
          "name": "donor",
          "type": "address"
        }
      ],
      "name": "donors",
      "outputs": [
        {
          "internalType": "uint256",
          "name": "donationsCount",
          "type": "uint256"
        },
        {
          "internalType": "uint256",
          "name": "lastClaim",
          "type": "uint256"
        }
      ],
      "stateMutability": "view",
      "type": "function"
    },
    {
      "inputs": [
        {
          "internalType": "address",
          "name": "donor_",
          "type": "address"
        }
      ],
      "name": "estimateClaimableReward",
      "outputs": [
        {
          "internalType": "uint256",
          "name": "",
          "type": "uint256"
        }
      ],
      "stateMutability": "view",
      "type": "function"
    },
    {
      "inputs": [],
      "name": "owner",
      "outputs": [
        {
          "internalType": "address",
          "name": "",
          "type": "address"
        }
      ],
      "stateMutability": "view",
      "type": "function"
    },
    {
      "inputs": [],
      "name": "paused",
      "outputs": [
        {
          "internalType": "bool",
          "name": "",
          "type": "bool"
        }
      ],
      "stateMutability": "view",
      "type": "function"
    },
    {
      "inputs": [],
      "name": "renounceOwnership",
      "outputs": [],
      "stateMutability": "nonpayable",
      "type": "function"
    },
    {
      "inputs": [],
      "name": "rewardPerBlock",
      "outputs": [
        {
          "internalType": "uint256",
          "name": "",
          "type": "uint256"
        }
      ],
      "stateMutability": "view",
      "type": "function"
    },
    {
      "inputs": [],
      "name": "rewardPeriodCount",
      "outputs": [
        {
          "internalType": "uint256",
          "name": "",
          "type": "uint256"
        }
      ],
      "stateMutability": "view",
      "type": "function"
    },
    {
      "inputs": [],
      "name": "rewardPeriodSize",
      "outputs": [
        {
          "internalType": "uint256",
          "name": "",
          "type": "uint256"
        }
      ],
      "stateMutability": "view",
      "type": "function"
    },
    {
      "inputs": [
        {
          "internalType": "uint256",
          "name": "period",
          "type": "uint256"
        }
      ],
      "name": "rewardPeriods",
      "outputs": [
        {
          "internalType": "uint256",
          "name": "reward",
          "type": "uint256"
        },
        {
          "internalType": "uint256",
          "name": "bonusReward",
          "type": "uint256"
        },
        {
          "internalType": "uint256",
          "name": "startBlock",
          "type": "uint256"
        },
        {
          "internalType": "uint256",
          "name": "endBlock",
          "type": "uint256"
        },
        {
          "internalType": "uint256",
          "name": "donationsAmount",
          "type": "uint256"
        }
      ],
      "stateMutability": "view",
      "type": "function"
    },
    {
      "inputs": [
        {
          "internalType": "uint256",
          "name": "rewardPeriodSize_",
          "type": "uint256"
        }
      ],
      "name": "setRewardPeriodSize",
      "outputs": [],
      "stateMutability": "nonpayable",
      "type": "function"
    },
    {
      "inputs": [],
      "name": "startingBlock",
      "outputs": [
        {
          "internalType": "uint256",
          "name": "",
          "type": "uint256"
        }
      ],
      "stateMutability": "view",
      "type": "function"
    },
    {
      "inputs": [
        {
          "internalType": "address",
          "name": "newOwner",
          "type": "address"
        }
      ],
      "name": "transferOwnership",
      "outputs": [],
      "stateMutability": "nonpayable",
      "type": "function"
    },
    {
      "inputs": [],
      "name": "treasury",
      "outputs": [
        {
          "internalType": "contract ITreasury",
          "name": "",
          "type": "address"
        }
      ],
      "stateMutability": "view",
      "type": "function"
    }
  ],
  "transactionHash": "0x0b5c5d8291a8d55380c797a15a2f02f012d29405809b89aa78cf707673d43d19",
  "args": [
    "0x874069fa1eb16d44d622f2e0ca25eea172369bc1",
    "0x485cB1E09ff8Ab9286a0Ce8868A7448c663cb90a",
    "0x8d8deB6A06A84DDaC9fdA5cFDDdF28ef31dA87C8",
    "100000000000000000000",
    14,
    30
  ],
  "solcInputHash": "6bf46383f11fabdc202ffe24b62c453f",
  "bytecode": "0x60c06040523480156200001157600080fd5b5060405162002f0938038062002f09833981810160405281019062000037919062000469565b620000576200004b6200035860201b60201c565b6200036060201b60201c565b60008060146101000a81548160ff02191690831515021790555060018081905550600073ffffffffffffffffffffffffffffffffffffffff168673ffffffffffffffffffffffffffffffffffffffff161415620000eb576040517f08c379a0000000000000000000000000000000000000000000000000000000008152600401620000e2906200060c565b60405180910390fd5b600073ffffffffffffffffffffffffffffffffffffffff168573ffffffffffffffffffffffffffffffffffffffff1614156200015e576040517f08c379a00000000000000000000000000000000000000000000000000000000081526004016200015590620005c8565b60405180910390fd5b600073ffffffffffffffffffffffffffffffffffffffff168473ffffffffffffffffffffffffffffffffffffffff161415620001d1576040517f08c379a0000000000000000000000000000000000000000000000000000000008152600401620001c890620005ea565b60405180910390fd5b600083141562000218576040517f08c379a00000000000000000000000000000000000000000000000000000000081526004016200020f906200062e565b60405180910390fd5b60008114156200025f576040517f08c379a0000000000000000000000000000000000000000000000000000000008152600401620002569062000650565b60405180910390fd5b8573ffffffffffffffffffffffffffffffffffffffff1660808173ffffffffffffffffffffffffffffffffffffffff1660601b815250508473ffffffffffffffffffffffffffffffffffffffff1660a08173ffffffffffffffffffffffffffffffffffffffff1660601b8152505083600260006101000a81548173ffffffffffffffffffffffffffffffffffffffff021916908373ffffffffffffffffffffffffffffffffffffffff16021790555080600481905550816003819055508260058190555060018162000332919062000683565b600760008081526020019081526020016000206003018190555050505050505062000931565b600033905090565b60008060009054906101000a900473ffffffffffffffffffffffffffffffffffffffff169050816000806101000a81548173ffffffffffffffffffffffffffffffffffffffff021916908373ffffffffffffffffffffffffffffffffffffffff1602179055508173ffffffffffffffffffffffffffffffffffffffff168173ffffffffffffffffffffffffffffffffffffffff167f8be0079c531659141344cd1fd0a4f28419497f9722a3daafe3b4186f6b6457e060405160405180910390a35050565b6000815190506200043581620008e3565b92915050565b6000815190506200044c81620008fd565b92915050565b600081519050620004638162000917565b92915050565b60008060008060008060c0878903121562000489576200048862000753565b5b60006200049989828a0162000424565b9650506020620004ac89828a0162000424565b9550506040620004bf89828a016200043b565b9450506060620004d289828a0162000452565b9350506080620004e589828a0162000452565b92505060a0620004f889828a0162000452565b9150509295509295509295565b60006200051460328362000672565b9150620005218262000758565b604082019050919050565b60006200053b602e8362000672565b91506200054882620007a7565b604082019050919050565b60006200056260328362000672565b91506200056f82620007f6565b604082019050919050565b60006200058960348362000672565b9150620005968262000845565b604082019050919050565b6000620005b0603a8362000672565b9150620005bd8262000894565b604082019050919050565b60006020820190508181036000830152620005e38162000505565b9050919050565b6000602082019050818103600083015262000605816200052c565b9050919050565b60006020820190508181036000830152620006278162000553565b9050919050565b6000602082019050818103600083015262000649816200057a565b9050919050565b600060208201905081810360008301526200066b81620005a1565b9050919050565b600082825260208201905092915050565b600062000690826200071a565b91506200069d836200071a565b925082821015620006b357620006b262000724565b5b828203905092915050565b6000620006cb82620006fa565b9050919050565b6000620006df82620006be565b9050919050565b6000620006f382620006be565b9050919050565b600073ffffffffffffffffffffffffffffffffffffffff82169050919050565b6000819050919050565b7f4e487b7100000000000000000000000000000000000000000000000000000000600052601160045260246000fd5b600080fd5b7f446f6e6174696f6e4d696e65723a3a636f6e7374727563746f723a205f49504360008201527f542061646472657373206e6f7420736574210000000000000000000000000000602082015250565b7f446f6e6174696f6e4d696e65723a3a636f6e7374727563746f723a205f74726560008201527f6173757279206e6f742073657421000000000000000000000000000000000000602082015250565b7f446f6e6174696f6e4d696e65723a3a636f6e7374727563746f723a205f63555360008201527f442061646472657373206e6f7420736574210000000000000000000000000000602082015250565b7f446f6e6174696f6e4d696e65723a3a636f6e7374727563746f723a205f72657760008201527f617264506572426c6f636b206e6f742073657421000000000000000000000000602082015250565b7f446f6e6174696f6e4d696e65723a3a636f6e7374727563746f723a205f73746160008201527f7274696e67526577617264506572696f64206e6f742073657421000000000000602082015250565b620008ee81620006d2565b8114620008fa57600080fd5b50565b6200090881620006e6565b81146200091457600080fd5b50565b62000922816200071a565b81146200092e57600080fd5b50565b60805160601c60a05160601c61259762000972600039600081816105a7015281816106960152611190015260008181610382015261103c01526125976000f3fe608060405234801561001057600080fd5b50600436106101215760003560e01c806395086ed1116100ad578063d91c98d311610071578063d91c98d3146102ec578063ed409ff31461030a578063f14faf6f14610328578063f2fde38b14610344578063f5698df61461036057610121565b806395086ed114610220578063c38474c014610251578063c478e8c41461026f578063c89d1a8e1461028b578063ca0cdea8146102bb57610121565b8063715018a6116100f4578063715018a61461018a5780637c62b1af146101945780638252097d146101b05780638ae39cac146101e45780638da5cb5b1461020257610121565b80631fccf67214610126578063372500ab146101445780635c975abb1461014e57806361d027b31461016c575b600080fd5b61012e61037e565b60405161013b9190611ced565b60405180910390f35b61014c6103a6565b005b610156610734565b6040516101639190611cd2565b60405180910390f35b61017461074a565b6040516101819190611d08565b60405180910390f35b610192610774565b005b6101ae60048036038101906101a99190611966565b6107fc565b005b6101ca60048036038101906101c591906119d3565b610af4565b6040516101db959493929190611ec9565b60405180910390f35b6101ec610b82565b6040516101f99190611e85565b60405180910390f35b61020a610b8c565b6040516102179190611c57565b60405180910390f35b61023a600480360381019061023591906118cc565b610bb5565b604051610248929190611ea0565b60405180910390f35b610259610c71565b6040516102669190611e85565b60405180910390f35b610289600480360381019061028491906119d3565b610c7b565b005b6102a560048036038101906102a0919061189f565b610d01565b6040516102b29190611e85565b60405180910390f35b6102d560048036038101906102d0919061189f565b610e89565b6040516102e3929190611ea0565b60405180910390f35b6102f4610f1b565b6040516103019190611e85565b60405180910390f35b610312610f25565b60405161031f9190611e85565b60405180910390f35b610342600480360381019061033d91906119d3565b610f2f565b005b61035e6004803603810190610359919061189f565b611094565b005b61036861118c565b6040516103759190611ced565b60405180910390f35b60007f0000000000000000000000000000000000000000000000000000000000000000905090565b6103ae610734565b156103ee576040517f08c379a00000000000000000000000000000000000000000000000000000000081526004016103e590611da5565b60405180910390fd5b600454431015610433576040517f08c379a000000000000000000000000000000000000000000000000000000000815260040161042a90611d65565b60405180910390fd5b60026001541415610479576040517f08c379a000000000000000000000000000000000000000000000000000000000815260040161047090611e25565b60405180910390fd5b60026001819055506000600860003373ffffffffffffffffffffffffffffffffffffffff1673ffffffffffffffffffffffffffffffffffffffff168152602001908152602001600020905060005b81600001548260010154101561059b578160010160008154809291906104ec90612174565b9190505550600082600201600084600101548152602001908152602001600020905060006007600083600001548152602001908152602001600020905043816003015410610555578360010160008154809291906105499061214a565b9190505550505061059b565b80600401548260010154826001015483600001546105739190611f4e565b61057d9190611fd5565b6105879190611fa4565b836105929190611f4e565b925050506104c7565b60008111156106db57807f000000000000000000000000000000000000000000000000000000000000000073ffffffffffffffffffffffffffffffffffffffff166370a08231306040518263ffffffff1660e01b81526004016105fe9190611c57565b60206040518083038186803b15801561061657600080fd5b505afa15801561062a573d6000803e3d6000fd5b505050506040513d601f19601f8201168201806040525081019061064e9190611a00565b101561068f576040517f08c379a000000000000000000000000000000000000000000000000000000000815260040161068690611e45565b60405180910390fd5b6106da33827f000000000000000000000000000000000000000000000000000000000000000073ffffffffffffffffffffffffffffffffffffffff166111b49092919063ffffffff16565b5b3373ffffffffffffffffffffffffffffffffffffffff167f106f923f993c2149d49b4255ff723acafa1f2d94393f561d3eda32ae348f7241826040516107219190611e85565b60405180910390a2505060018081905550565b60008060149054906101000a900460ff16905090565b6000600260009054906101000a900473ffffffffffffffffffffffffffffffffffffffff16905090565b61077c61123a565b73ffffffffffffffffffffffffffffffffffffffff1661079a610b8c565b73ffffffffffffffffffffffffffffffffffffffff16146107f0576040517f08c379a00000000000000000000000000000000000000000000000000000000081526004016107e790611dc5565b60405180910390fd5b6107fa6000611242565b565b610804610734565b15610844576040517f08c379a000000000000000000000000000000000000000000000000000000000815260040161083b90611da5565b60405180910390fd5b600454431015610889576040517f08c379a000000000000000000000000000000000000000000000000000000000815260040161088090611d65565b60405180910390fd5b600260015414156108cf576040517f08c379a00000000000000000000000000000000000000000000000000000000081526004016108c690611e25565b60405180910390fd5b60026001819055506000600260009054906101000a900473ffffffffffffffffffffffffffffffffffffffff1673ffffffffffffffffffffffffffffffffffffffff16635fac917a6040518163ffffffff1660e01b815260040160206040518083038186803b15801561094157600080fd5b505afa158015610955573d6000803e3d6000fd5b505050506040513d601f19601f820116820180604052508101906109799190611939565b90506001600281111561098f5761098e61221b565b5b8173ffffffffffffffffffffffffffffffffffffffff16637f2813d2856040518263ffffffff1660e01b81526004016109c89190611c57565b60206040518083038186803b1580156109e057600080fd5b505afa1580156109f4573d6000803e3d6000fd5b505050506040513d601f19601f82011682018060405250810190610a1891906119a6565b6002811115610a2a57610a2961221b565b5b14610a6a576040517f08c379a0000000000000000000000000000000000000000000000000000000008152600401610a6190611e65565b60405180910390fd5b610a72611306565b8273ffffffffffffffffffffffffffffffffffffffff1663e69d849d33846040518363ffffffff1660e01b8152600401610aad929190611ca9565b600060405180830381600087803b158015610ac757600080fd5b505af1158015610adb573d6000803e3d6000fd5b50505050610ae8826113e0565b50600180819055505050565b6000806000806000600760008781526020019081526020016000206000015494506007600087815260200190815260200160002060010154935060076000878152602001908152602001600020600201549250600760008781526020019081526020016000206003015491506007600087815260200190815260200160002060040154905091939590929450565b6000600554905090565b60008060009054906101000a900473ffffffffffffffffffffffffffffffffffffffff16905090565b600080600860008573ffffffffffffffffffffffffffffffffffffffff1673ffffffffffffffffffffffffffffffffffffffff1681526020019081526020016000206002016000848152602001908152602001600020600001549150600860008573ffffffffffffffffffffffffffffffffffffffff1673ffffffffffffffffffffffffffffffffffffffff16815260200190815260200160002060020160008481526020019081526020016000206001015490509250929050565b6000600654905090565b610c8361123a565b73ffffffffffffffffffffffffffffffffffffffff16610ca1610b8c565b73ffffffffffffffffffffffffffffffffffffffff1614610cf7576040517f08c379a0000000000000000000000000000000000000000000000000000000008152600401610cee90611dc5565b60405180910390fd5b8060038190555050565b6000600454431015610d48576040517f08c379a0000000000000000000000000000000000000000000000000000000008152600401610d3f90611d65565b60405180910390fd5b610d50610734565b15610d90576040517f08c379a0000000000000000000000000000000000000000000000000000000008152600401610d8790611da5565b60405180910390fd5b6000600860008473ffffffffffffffffffffffffffffffffffffffff1673ffffffffffffffffffffffffffffffffffffffff1681526020019081526020016000209050600060018260010154610de69190611f4e565b905060005b82600001548211610e7e57600083600201600084815260200190815260200160002090506000600760008360000154815260200190815260200160002090508060040154826001015482600101548360000154610e489190611f4e565b610e529190611fd5565b610e5c9190611fa4565b83610e679190611f4e565b92508380610e7490612174565b9450505050610deb565b809350505050919050565b600080600860008473ffffffffffffffffffffffffffffffffffffffff1673ffffffffffffffffffffffffffffffffffffffff168152602001908152602001600020600001549150600860008473ffffffffffffffffffffffffffffffffffffffff1673ffffffffffffffffffffffffffffffffffffffff168152602001908152602001600020600101549050915091565b6000600454905090565b6000600354905090565b610f37610734565b15610f77576040517f08c379a0000000000000000000000000000000000000000000000000000000008152600401610f6e90611da5565b60405180910390fd5b600454431015610fbc576040517f08c379a0000000000000000000000000000000000000000000000000000000008152600401610fb390611d65565b60405180910390fd5b60026001541415611002576040517f08c379a0000000000000000000000000000000000000000000000000000000008152600401610ff990611e25565b60405180910390fd5b6002600181905550611012611306565b61108133600260009054906101000a900473ffffffffffffffffffffffffffffffffffffffff16837f000000000000000000000000000000000000000000000000000000000000000073ffffffffffffffffffffffffffffffffffffffff166114f3909392919063ffffffff16565b61108a816113e0565b6001808190555050565b61109c61123a565b73ffffffffffffffffffffffffffffffffffffffff166110ba610b8c565b73ffffffffffffffffffffffffffffffffffffffff1614611110576040517f08c379a000000000000000000000000000000000000000000000000000000000815260040161110790611dc5565b60405180910390fd5b600073ffffffffffffffffffffffffffffffffffffffff168173ffffffffffffffffffffffffffffffffffffffff161415611180576040517f08c379a000000000000000000000000000000000000000000000000000000000815260040161117790611d45565b60405180910390fd5b61118981611242565b50565b60007f0000000000000000000000000000000000000000000000000000000000000000905090565b6112358363a9059cbb60e01b84846040516024016111d3929190611ca9565b604051602081830303815290604052907bffffffffffffffffffffffffffffffffffffffffffffffffffffffff19166020820180517bffffffffffffffffffffffffffffffffffffffffffffffffffffffff838183161783525050505061157c565b505050565b600033905090565b60008060009054906101000a900473ffffffffffffffffffffffffffffffffffffffff169050816000806101000a81548173ffffffffffffffffffffffffffffffffffffffff021916908373ffffffffffffffffffffffffffffffffffffffff1602179055508173ffffffffffffffffffffffffffffffffffffffff168173ffffffffffffffffffffffffffffffffffffffff167f8be0079c531659141344cd1fd0a4f28419497f9722a3daafe3b4186f6b6457e060405160405180910390a35050565b600060076000600654815260200190815260200160002090505b43816003015410156113dd576006600081548092919061133f90612174565b9190505550600060076000600654815260200190815260200160002090506001826003015461136e9190611f4e565b816002018190555060035481600201546113889190611f4e565b81600301819055506113a281600201548260030154611643565b81600001819055506000826004015414156113d457816001015482600001546113cb9190611f4e565b81600101819055505b80915050611320565b50565b600060076000600654815260200190815260200160002090508181600401546114099190611f4e565b81600401819055506000600860003373ffffffffffffffffffffffffffffffffffffffff1673ffffffffffffffffffffffffffffffffffffffff168152602001908152602001600020905080600001600081548092919061146990612174565b9190505550600081600201600083600001548152602001908152602001600020905060065481600001819055508381600101819055503373ffffffffffffffffffffffffffffffffffffffff167f9f860a72bcc856a3648b565f0ff6e3fb23b326997cd19e2350e76fec3564e6b0856040516114e59190611e85565b60405180910390a250505050565b611576846323b872dd60e01b85858560405160240161151493929190611c72565b604051602081830303815290604052907bffffffffffffffffffffffffffffffffffffffffffffffffffffffff19166020820180517bffffffffffffffffffffffffffffffffffffffffffffffffffffffff838183161783525050505061157c565b50505050565b60006115de826040518060400160405280602081526020017f5361666545524332303a206c6f772d6c6576656c2063616c6c206661696c65648152508573ffffffffffffffffffffffffffffffffffffffff166116669092919063ffffffff16565b905060008151111561163e57808060200190518101906115fe919061190c565b61163d576040517f08c379a000000000000000000000000000000000000000000000000000000000815260040161163490611e05565b60405180910390fd5b5b505050565b60006005548383611654919061202f565b61165e9190611fd5565b905092915050565b6060611675848460008561167e565b90509392505050565b6060824710156116c3576040517f08c379a00000000000000000000000000000000000000000000000000000000081526004016116ba90611d85565b60405180910390fd5b6116cc85611792565b61170b576040517f08c379a000000000000000000000000000000000000000000000000000000000815260040161170290611de5565b60405180910390fd5b6000808673ffffffffffffffffffffffffffffffffffffffff1685876040516117349190611c40565b60006040518083038185875af1925050503d8060008114611771576040519150601f19603f3d011682016040523d82523d6000602084013e611776565b606091505b50915091506117868282866117a5565b92505050949350505050565b600080823b905060008111915050919050565b606083156117b557829050611805565b6000835111156117c85782518084602001fd5b816040517f08c379a00000000000000000000000000000000000000000000000000000000081526004016117fc9190611d23565b60405180910390fd5b9392505050565b60008135905061181b816124de565b92915050565b600081519050611830816124f5565b92915050565b6000815190506118458161250c565b92915050565b60008135905061185a81612523565b92915050565b60008151905061186f8161253a565b92915050565b6000813590506118848161254a565b92915050565b6000815190506118998161254a565b92915050565b6000602082840312156118b5576118b461224a565b5b60006118c38482850161180c565b91505092915050565b600080604083850312156118e3576118e261224a565b5b60006118f18582860161180c565b925050602061190285828601611875565b9150509250929050565b6000602082840312156119225761192161224a565b5b600061193084828501611821565b91505092915050565b60006020828403121561194f5761194e61224a565b5b600061195d84828501611836565b91505092915050565b6000806040838503121561197d5761197c61224a565b5b600061198b8582860161184b565b925050602061199c85828601611875565b9150509250929050565b6000602082840312156119bc576119bb61224a565b5b60006119ca84828501611860565b91505092915050565b6000602082840312156119e9576119e861224a565b5b60006119f784828501611875565b91505092915050565b600060208284031215611a1657611a1561224a565b5b6000611a248482850161188a565b91505092915050565b611a3681612063565b82525050565b611a4581612075565b82525050565b6000611a5682611f1c565b611a608185611f32565b9350611a70818560208601612117565b80840191505092915050565b611a85816120cf565b82525050565b611a94816120f3565b82525050565b6000611aa582611f27565b611aaf8185611f3d565b9350611abf818560208601612117565b611ac88161224f565b840191505092915050565b6000611ae0602683611f3d565b9150611aeb82612260565b604082019050919050565b6000611b03601e83611f3d565b9150611b0e826122af565b602082019050919050565b6000611b26602683611f3d565b9150611b31826122d8565b604082019050919050565b6000611b49601083611f3d565b9150611b5482612327565b602082019050919050565b6000611b6c602083611f3d565b9150611b7782612350565b602082019050919050565b6000611b8f601d83611f3d565b9150611b9a82612379565b602082019050919050565b6000611bb2602a83611f3d565b9150611bbd826123a2565b604082019050919050565b6000611bd5601f83611f3d565b9150611be0826123f1565b602082019050919050565b6000611bf8603583611f3d565b9150611c038261241a565b604082019050919050565b6000611c1b604783611f3d565b9150611c2682612469565b606082019050919050565b611c3a816120c5565b82525050565b6000611c4c8284611a4b565b915081905092915050565b6000602082019050611c6c6000830184611a2d565b92915050565b6000606082019050611c876000830186611a2d565b611c946020830185611a2d565b611ca16040830184611c31565b949350505050565b6000604082019050611cbe6000830185611a2d565b611ccb6020830184611c31565b9392505050565b6000602082019050611ce76000830184611a3c565b92915050565b6000602082019050611d026000830184611a7c565b92915050565b6000602082019050611d1d6000830184611a8b565b92915050565b60006020820190508181036000830152611d3d8184611a9a565b905092915050565b60006020820190508181036000830152611d5e81611ad3565b9050919050565b60006020820190508181036000830152611d7e81611af6565b9050919050565b60006020820190508181036000830152611d9e81611b19565b9050919050565b60006020820190508181036000830152611dbe81611b3c565b9050919050565b60006020820190508181036000830152611dde81611b5f565b9050919050565b60006020820190508181036000830152611dfe81611b82565b9050919050565b60006020820190508181036000830152611e1e81611ba5565b9050919050565b60006020820190508181036000830152611e3e81611bc8565b9050919050565b60006020820190508181036000830152611e5e81611beb565b9050919050565b60006020820190508181036000830152611e7e81611c0e565b9050919050565b6000602082019050611e9a6000830184611c31565b92915050565b6000604082019050611eb56000830185611c31565b611ec26020830184611c31565b9392505050565b600060a082019050611ede6000830188611c31565b611eeb6020830187611c31565b611ef86040830186611c31565b611f056060830185611c31565b611f126080830184611c31565b9695505050505050565b600081519050919050565b600081519050919050565b600081905092915050565b600082825260208201905092915050565b6000611f59826120c5565b9150611f64836120c5565b9250827fffffffffffffffffffffffffffffffffffffffffffffffffffffffffffffffff03821115611f9957611f986121bd565b5b828201905092915050565b6000611faf826120c5565b9150611fba836120c5565b925082611fca57611fc96121ec565b5b828204905092915050565b6000611fe0826120c5565b9150611feb836120c5565b9250817fffffffffffffffffffffffffffffffffffffffffffffffffffffffffffffffff0483118215151615612024576120236121bd565b5b828202905092915050565b600061203a826120c5565b9150612045836120c5565b925082821015612058576120576121bd565b5b828203905092915050565b600061206e826120a5565b9050919050565b60008115159050919050565b600061208c82612063565b9050919050565b600061209e82612063565b9050919050565b600073ffffffffffffffffffffffffffffffffffffffff82169050919050565b6000819050919050565b60006120da826120e1565b9050919050565b60006120ec826120a5565b9050919050565b60006120fe82612105565b9050919050565b6000612110826120a5565b9050919050565b60005b8381101561213557808201518184015260208101905061211a565b83811115612144576000848401525b50505050565b6000612155826120c5565b91506000821415612169576121686121bd565b5b600182039050919050565b600061217f826120c5565b91507fffffffffffffffffffffffffffffffffffffffffffffffffffffffffffffffff8214156121b2576121b16121bd565b5b600182019050919050565b7f4e487b7100000000000000000000000000000000000000000000000000000000600052601160045260246000fd5b7f4e487b7100000000000000000000000000000000000000000000000000000000600052601260045260246000fd5b7f4e487b7100000000000000000000000000000000000000000000000000000000600052602160045260246000fd5b600080fd5b6000601f19601f8301169050919050565b7f4f776e61626c653a206e6577206f776e657220697320746865207a65726f206160008201527f6464726573730000000000000000000000000000000000000000000000000000602082015250565b7f446f6e6174696f6e4d696e65723a204552525f4e4f545f535441525445440000600082015250565b7f416464726573733a20696e73756666696369656e742062616c616e636520666f60008201527f722063616c6c0000000000000000000000000000000000000000000000000000602082015250565b7f5061757361626c653a2070617573656400000000000000000000000000000000600082015250565b7f4f776e61626c653a2063616c6c6572206973206e6f7420746865206f776e6572600082015250565b7f416464726573733a2063616c6c20746f206e6f6e2d636f6e7472616374000000600082015250565b7f5361666545524332303a204552433230206f7065726174696f6e20646964206e60008201527f6f74207375636365656400000000000000000000000000000000000000000000602082015250565b7f5265656e7472616e637947756172643a207265656e7472616e742063616c6c00600082015250565b7f446f6e6174696f6e4d696e65723a3a636c61696d526577617264733a2045525260008201527f5f5245574152445f544f4b454e5f42414c414e43450000000000000000000000602082015250565b7f446f6e6174696f6e4d696e65723a3a646f6e617465546f436f6d6d756e69747960008201527f3a2054686973206973206e6f7420612076616c696420636f6d6d756e6974792060208201527f6164647265737300000000000000000000000000000000000000000000000000604082015250565b6124e781612063565b81146124f257600080fd5b50565b6124fe81612075565b811461250957600080fd5b50565b61251581612081565b811461252057600080fd5b50565b61252c81612093565b811461253757600080fd5b50565b6003811061254757600080fd5b50565b612553816120c5565b811461255e57600080fd5b5056fea26469706673582212206d9d0eda82946b21f3b6a0ef05b28099b0779167819d64f26035fa0a5b5d569c64736f6c63430008050033",
  "devdoc": {
    "kind": "dev",
    "methods": {
      "claimRewards()": {
        "details": "Calculate and claim all pending rewards for a donor"
      },
      "donate(uint256)": {
        "details": "Deposit cUSD tokens to the donation mining contract",
        "params": {
          "amount_": "Amount of cUSD tokens to deposit."
        }
      },
      "donateToCommunity(address,uint256)": {
        "details": "Deposit cUSD tokens to the donation mining contract",
        "params": {
          "amount_": "Amount of cUSD tokens to deposit."
        }
      },
      "estimateClaimableReward(address)": {
        "details": "View function to see pending rewards on frontend.",
        "params": {
          "donor_": "Address of a specific donor."
        },
        "returns": {
          "_0": "Pending rewards."
        }
      },
      "owner()": {
        "details": "Returns the address of the current owner."
      },
      "paused()": {
        "details": "Returns true if the contract is paused, and false otherwise."
      },
      "renounceOwnership()": {
        "details": "Leaves the contract without owner. It will not be possible to call `onlyOwner` functions anymore. Can only be called by the current owner. NOTE: Renouncing ownership will leave the contract without an owner, thereby removing any functionality that is only available to the owner."
      },
      "transferOwnership(address)": {
        "details": "Transfers ownership of the contract to a new account (`newOwner`). Can only be called by the current owner."
      }
    },
    "version": 1
  },
  "userdoc": {
    "kind": "user",
    "methods": {},
    "version": 1
  },
  "storageLayout": {
    "storage": [
      {
        "astId": 780,
        "contract": "contracts/token/DonationMiner.sol:DonationMiner",
        "label": "_owner",
        "offset": 0,
        "slot": "0",
        "type": "t_address"
      },
      {
        "astId": 940,
        "contract": "contracts/token/DonationMiner.sol:DonationMiner",
        "label": "_paused",
        "offset": 20,
        "slot": "0",
        "type": "t_bool"
      },
      {
        "astId": 1025,
        "contract": "contracts/token/DonationMiner.sol:DonationMiner",
        "label": "_status",
        "offset": 0,
        "slot": "1",
        "type": "t_uint256"
      },
      {
        "astId": 10102,
        "contract": "contracts/token/DonationMiner.sol:DonationMiner",
        "label": "_treasury",
        "offset": 0,
        "slot": "2",
        "type": "t_contract(ITreasury)11153"
      },
      {
        "astId": 10104,
        "contract": "contracts/token/DonationMiner.sol:DonationMiner",
        "label": "_rewardPeriodSize",
        "offset": 0,
        "slot": "3",
        "type": "t_uint256"
      },
      {
        "astId": 10106,
        "contract": "contracts/token/DonationMiner.sol:DonationMiner",
        "label": "_startingBlock",
        "offset": 0,
        "slot": "4",
        "type": "t_uint256"
      },
      {
        "astId": 10108,
        "contract": "contracts/token/DonationMiner.sol:DonationMiner",
        "label": "_rewardPerBlock",
        "offset": 0,
        "slot": "5",
        "type": "t_uint256"
      },
      {
        "astId": 10110,
        "contract": "contracts/token/DonationMiner.sol:DonationMiner",
        "label": "_rewardPeriodCount",
        "offset": 0,
        "slot": "6",
        "type": "t_uint256"
      },
      {
        "astId": 10115,
        "contract": "contracts/token/DonationMiner.sol:DonationMiner",
        "label": "_rewardPeriods",
        "offset": 0,
        "slot": "7",
        "type": "t_mapping(t_uint256,t_struct(RewardPeriod)11009_storage)"
      },
      {
        "astId": 10120,
        "contract": "contracts/token/DonationMiner.sol:DonationMiner",
        "label": "_donors",
        "offset": 0,
        "slot": "8",
        "type": "t_mapping(t_address,t_struct(Donor)11024_storage)"
      }
    ],
    "types": {
      "t_address": {
        "encoding": "inplace",
        "label": "address",
        "numberOfBytes": "20"
      },
      "t_bool": {
        "encoding": "inplace",
        "label": "bool",
        "numberOfBytes": "1"
      },
      "t_contract(ITreasury)11153": {
        "encoding": "inplace",
        "label": "contract ITreasury",
        "numberOfBytes": "20"
      },
      "t_mapping(t_address,t_struct(Donor)11024_storage)": {
        "encoding": "mapping",
        "key": "t_address",
        "label": "mapping(address => struct IDonationMiner.Donor)",
        "numberOfBytes": "32",
        "value": "t_struct(Donor)11024_storage"
      },
      "t_mapping(t_uint256,t_struct(Donation)11014_storage)": {
        "encoding": "mapping",
        "key": "t_uint256",
        "label": "mapping(uint256 => struct IDonationMiner.Donation)",
        "numberOfBytes": "32",
        "value": "t_struct(Donation)11014_storage"
      },
      "t_mapping(t_uint256,t_struct(RewardPeriod)11009_storage)": {
        "encoding": "mapping",
        "key": "t_uint256",
        "label": "mapping(uint256 => struct IDonationMiner.RewardPeriod)",
        "numberOfBytes": "32",
        "value": "t_struct(RewardPeriod)11009_storage"
      },
      "t_struct(Donation)11014_storage": {
        "encoding": "inplace",
        "label": "struct IDonationMiner.Donation",
        "members": [
          {
            "astId": 11011,
            "contract": "contracts/token/DonationMiner.sol:DonationMiner",
            "label": "rewardPeriodNumber",
            "offset": 0,
            "slot": "0",
            "type": "t_uint256"
          },
          {
            "astId": 11013,
            "contract": "contracts/token/DonationMiner.sol:DonationMiner",
            "label": "amount",
            "offset": 0,
            "slot": "1",
            "type": "t_uint256"
          }
        ],
        "numberOfBytes": "64"
      },
      "t_struct(Donor)11024_storage": {
        "encoding": "inplace",
        "label": "struct IDonationMiner.Donor",
        "members": [
          {
            "astId": 11016,
            "contract": "contracts/token/DonationMiner.sol:DonationMiner",
            "label": "donationsCount",
            "offset": 0,
            "slot": "0",
            "type": "t_uint256"
          },
          {
            "astId": 11018,
            "contract": "contracts/token/DonationMiner.sol:DonationMiner",
            "label": "lastClaim",
            "offset": 0,
            "slot": "1",
            "type": "t_uint256"
          },
          {
            "astId": 11023,
            "contract": "contracts/token/DonationMiner.sol:DonationMiner",
            "label": "donations",
            "offset": 0,
            "slot": "2",
            "type": "t_mapping(t_uint256,t_struct(Donation)11014_storage)"
          }
        ],
        "numberOfBytes": "96"
      },
      "t_struct(RewardPeriod)11009_storage": {
        "encoding": "inplace",
        "label": "struct IDonationMiner.RewardPeriod",
        "members": [
          {
            "astId": 11000,
            "contract": "contracts/token/DonationMiner.sol:DonationMiner",
            "label": "reward",
            "offset": 0,
            "slot": "0",
            "type": "t_uint256"
          },
          {
            "astId": 11002,
            "contract": "contracts/token/DonationMiner.sol:DonationMiner",
            "label": "bonusReward",
            "offset": 0,
            "slot": "1",
            "type": "t_uint256"
          },
          {
            "astId": 11004,
            "contract": "contracts/token/DonationMiner.sol:DonationMiner",
            "label": "startBlock",
            "offset": 0,
            "slot": "2",
            "type": "t_uint256"
          },
          {
            "astId": 11006,
            "contract": "contracts/token/DonationMiner.sol:DonationMiner",
            "label": "endBlock",
            "offset": 0,
            "slot": "3",
            "type": "t_uint256"
          },
          {
            "astId": 11008,
            "contract": "contracts/token/DonationMiner.sol:DonationMiner",
            "label": "donationsAmount",
            "offset": 0,
            "slot": "4",
            "type": "t_uint256"
          }
        ],
        "numberOfBytes": "160"
      },
      "t_uint256": {
        "encoding": "inplace",
        "label": "uint256",
        "numberOfBytes": "32"
      }
    }
  }
}