{
  "address": "0xFB8A664F188706E6f20f2C65d1C5d0a99Db7019D",
  "abi": [
    {
      "anonymous": false,
      "inputs": [
        {
          "indexed": false,
          "internalType": "uint256",
          "name": "oldAgainstPeriods",
          "type": "uint256"
        },
        {
          "indexed": false,
          "internalType": "uint256",
          "name": "newAgainstPeriods",
          "type": "uint256"
        }
      ],
      "name": "AgainstPeriodsUpdated",
      "type": "event"
    },
    {
      "anonymous": false,
      "inputs": [
        {
          "indexed": false,
          "internalType": "uint256",
          "name": "oldClaimDelay",
          "type": "uint256"
        },
        {
          "indexed": false,
          "internalType": "uint256",
          "name": "newClaimDelay",
          "type": "uint256"
        }
      ],
      "name": "ClaimDelayUpdated",
      "type": "event"
    },
    {
      "anonymous": false,
      "inputs": [
        {
          "indexed": false,
          "internalType": "uint256",
          "name": "oldCommunityDonationRatio",
          "type": "uint256"
        },
        {
          "indexed": false,
          "internalType": "uint256",
          "name": "newCommunityDonationRatio",
          "type": "uint256"
        }
      ],
      "name": "CommunityDonationRatioUpdated",
      "type": "event"
    },
    {
      "anonymous": false,
      "inputs": [
        {
          "indexed": true,
          "internalType": "uint256",
          "name": "donationId",
          "type": "uint256"
        },
        {
          "indexed": true,
          "internalType": "address",
          "name": "delegateAddress",
          "type": "address"
        },
        {
          "indexed": false,
          "internalType": "uint256",
          "name": "amount",
          "type": "uint256"
        },
        {
          "indexed": false,
          "internalType": "address",
          "name": "token",
          "type": "address"
        },
        {
          "indexed": false,
          "internalType": "uint256",
          "name": "initialAmount",
          "type": "uint256"
        },
        {
          "indexed": true,
          "internalType": "address",
          "name": "target",
          "type": "address"
        }
      ],
      "name": "DonationAdded",
      "type": "event"
    },
    {
      "anonymous": false,
      "inputs": [
        {
          "indexed": true,
          "internalType": "address",
          "name": "previousOwner",
          "type": "address"
        },
        {
          "indexed": true,
          "internalType": "address",
          "name": "newOwner",
          "type": "address"
        }
      ],
      "name": "OwnershipTransferred",
      "type": "event"
    },
    {
      "anonymous": false,
      "inputs": [
        {
          "indexed": false,
          "internalType": "address",
          "name": "account",
          "type": "address"
        }
      ],
      "name": "Paused",
      "type": "event"
    },
    {
      "anonymous": false,
      "inputs": [
        {
          "indexed": true,
          "internalType": "address",
          "name": "donor",
          "type": "address"
        },
        {
          "indexed": false,
          "internalType": "uint256",
          "name": "amount",
          "type": "uint256"
        }
      ],
      "name": "RewardClaimed",
      "type": "event"
    },
    {
      "anonymous": false,
      "inputs": [
        {
          "indexed": true,
          "internalType": "address",
          "name": "donor",
          "type": "address"
        },
        {
          "indexed": false,
          "internalType": "uint256",
          "name": "amount",
          "type": "uint256"
        },
        {
          "indexed": false,
          "internalType": "uint256",
          "name": "lastRewardPeriod",
          "type": "uint256"
        }
      ],
      "name": "RewardClaimedPartial",
      "type": "event"
    },
    {
      "anonymous": false,
      "inputs": [
        {
          "indexed": false,
          "internalType": "uint256",
          "name": "oldRewardPeriodSize",
          "type": "uint256"
        },
        {
          "indexed": false,
          "internalType": "uint256",
          "name": "oldDecayNumerator",
          "type": "uint256"
        },
        {
          "indexed": false,
          "internalType": "uint256",
          "name": "oldDecayDenominator",
          "type": "uint256"
        },
        {
          "indexed": false,
          "internalType": "uint256",
          "name": "newRewardPeriodSize",
          "type": "uint256"
        },
        {
          "indexed": false,
          "internalType": "uint256",
          "name": "newDecayNumerator",
          "type": "uint256"
        },
        {
          "indexed": false,
          "internalType": "uint256",
          "name": "newDecayDenominator",
          "type": "uint256"
        }
      ],
      "name": "RewardPeriodParamsUpdated",
      "type": "event"
    },
    {
      "anonymous": false,
      "inputs": [
        {
          "indexed": true,
          "internalType": "address",
          "name": "donor",
          "type": "address"
        },
        {
          "indexed": false,
          "internalType": "uint256",
          "name": "amount",
          "type": "uint256"
        }
      ],
      "name": "RewardStaked",
      "type": "event"
    },
    {
      "anonymous": false,
      "inputs": [
        {
          "indexed": true,
          "internalType": "address",
          "name": "donor",
          "type": "address"
        },
        {
          "indexed": false,
          "internalType": "uint256",
          "name": "amount",
          "type": "uint256"
        },
        {
          "indexed": false,
          "internalType": "uint256",
          "name": "lastRewardPeriod",
          "type": "uint256"
        }
      ],
      "name": "RewardStakedPartial",
      "type": "event"
    },
    {
      "anonymous": false,
      "inputs": [
        {
          "indexed": false,
          "internalType": "uint256",
          "name": "oldStakingDonationRatio",
          "type": "uint256"
        },
        {
          "indexed": false,
          "internalType": "uint256",
          "name": "newStakingDonationRatio",
          "type": "uint256"
        }
      ],
      "name": "StakingDonationRatioUpdated",
      "type": "event"
    },
    {
      "anonymous": false,
      "inputs": [
        {
          "indexed": true,
          "internalType": "address",
          "name": "oldStaking",
          "type": "address"
        },
        {
          "indexed": true,
          "internalType": "address",
          "name": "newStaking",
          "type": "address"
        }
      ],
      "name": "StakingUpdated",
      "type": "event"
    },
    {
      "anonymous": false,
      "inputs": [
        {
          "indexed": true,
          "internalType": "address",
          "name": "token",
          "type": "address"
        },
        {
          "indexed": true,
          "internalType": "address",
          "name": "to",
          "type": "address"
        },
        {
          "indexed": false,
          "internalType": "uint256",
          "name": "amount",
          "type": "uint256"
        }
      ],
      "name": "TransferERC20",
      "type": "event"
    },
    {
      "anonymous": false,
      "inputs": [
        {
          "indexed": true,
          "internalType": "address",
          "name": "oldTreasury",
          "type": "address"
        },
        {
          "indexed": true,
          "internalType": "address",
          "name": "newTreasury",
          "type": "address"
        }
      ],
      "name": "TreasuryUpdated",
      "type": "event"
    },
    {
      "anonymous": false,
      "inputs": [
        {
          "indexed": false,
          "internalType": "address",
          "name": "account",
          "type": "address"
        }
      ],
      "name": "Unpaused",
      "type": "event"
    },
    {
      "inputs": [],
      "name": "PACT",
      "outputs": [
        {
          "internalType": "contract IERC20Upgradeable",
          "name": "",
          "type": "address"
        }
      ],
      "stateMutability": "view",
      "type": "function"
    },
    {
      "inputs": [],
      "name": "againstPeriods",
      "outputs": [
        {
          "internalType": "uint256",
          "name": "",
          "type": "uint256"
        }
      ],
      "stateMutability": "view",
      "type": "function"
    },
    {
      "inputs": [
        {
          "internalType": "address",
          "name": "_stakeholderAddress",
          "type": "address"
        }
      ],
      "name": "apr",
      "outputs": [
        {
          "internalType": "uint256",
          "name": "",
          "type": "uint256"
        }
      ],
      "stateMutability": "view",
      "type": "function"
    },
    {
      "inputs": [],
      "name": "cUSD",
      "outputs": [
        {
          "internalType": "contract IERC20Upgradeable",
          "name": "",
          "type": "address"
        }
      ],
      "stateMutability": "view",
      "type": "function"
    },
    {
      "inputs": [
        {
          "internalType": "address",
          "name": "_donorAddress",
          "type": "address"
        }
      ],
      "name": "calculateClaimableRewards",
      "outputs": [
        {
          "internalType": "uint256",
          "name": "",
          "type": "uint256"
        }
      ],
      "stateMutability": "view",
      "type": "function"
    },
    {
      "inputs": [
        {
          "internalType": "address",
          "name": "_donorAddress",
          "type": "address"
        },
        {
          "internalType": "uint256",
          "name": "_lastPeriodNumber",
          "type": "uint256"
        }
      ],
      "name": "calculateClaimableRewardsByPeriodNumber",
      "outputs": [
        {
          "internalType": "uint256",
          "name": "",
          "type": "uint256"
        }
      ],
      "stateMutability": "view",
      "type": "function"
    },
    {
      "inputs": [],
      "name": "claimDelay",
      "outputs": [
        {
          "internalType": "uint256",
          "name": "",
          "type": "uint256"
        }
      ],
      "stateMutability": "view",
      "type": "function"
    },
    {
      "inputs": [],
      "name": "claimRewards",
      "outputs": [],
      "stateMutability": "nonpayable",
      "type": "function"
    },
    {
      "inputs": [
        {
          "internalType": "uint256",
          "name": "_lastPeriodNumber",
          "type": "uint256"
        }
      ],
      "name": "claimRewardsPartial",
      "outputs": [],
      "stateMutability": "nonpayable",
      "type": "function"
    },
    {
      "inputs": [],
      "name": "communityDonationRatio",
      "outputs": [
        {
          "internalType": "uint256",
          "name": "",
          "type": "uint256"
        }
      ],
      "stateMutability": "view",
      "type": "function"
    },
    {
      "inputs": [],
      "name": "currentRewardPeriodNumber",
      "outputs": [
        {
          "internalType": "uint256",
          "name": "",
          "type": "uint256"
        }
      ],
      "stateMutability": "view",
      "type": "function"
    },
    {
      "inputs": [],
      "name": "decayDenominator",
      "outputs": [
        {
          "internalType": "uint256",
          "name": "",
          "type": "uint256"
        }
      ],
      "stateMutability": "view",
      "type": "function"
    },
    {
      "inputs": [],
      "name": "decayNumerator",
      "outputs": [
        {
          "internalType": "uint256",
          "name": "",
          "type": "uint256"
        }
      ],
      "stateMutability": "view",
      "type": "function"
    },
    {
      "inputs": [
        {
          "internalType": "contract IERC20Upgradeable",
          "name": "_token",
          "type": "address"
        },
        {
          "internalType": "uint256",
          "name": "_amount",
          "type": "uint256"
        },
        {
          "internalType": "address",
          "name": "_delegateAddress",
          "type": "address"
        }
      ],
      "name": "donate",
      "outputs": [],
      "stateMutability": "nonpayable",
      "type": "function"
    },
    {
      "inputs": [
        {
          "internalType": "contract ICommunity",
          "name": "_community",
          "type": "address"
        },
        {
          "internalType": "contract IERC20Upgradeable",
          "name": "_token",
          "type": "address"
        },
        {
          "internalType": "uint256",
          "name": "_amount",
          "type": "uint256"
        },
        {
          "internalType": "address",
          "name": "_delegateAddress",
          "type": "address"
        }
      ],
      "name": "donateToCommunity",
      "outputs": [],
      "stateMutability": "nonpayable",
      "type": "function"
    },
    {
      "inputs": [],
      "name": "donationCount",
      "outputs": [
        {
          "internalType": "uint256",
          "name": "",
          "type": "uint256"
        }
      ],
      "stateMutability": "view",
      "type": "function"
    },
    {
      "inputs": [
        {
          "internalType": "uint256",
          "name": "",
          "type": "uint256"
        }
      ],
      "name": "donations",
      "outputs": [
        {
          "internalType": "address",
          "name": "donor",
          "type": "address"
        },
        {
          "internalType": "address",
          "name": "target",
          "type": "address"
        },
        {
          "internalType": "uint256",
          "name": "rewardPeriod",
          "type": "uint256"
        },
        {
          "internalType": "uint256",
          "name": "blockNumber",
          "type": "uint256"
        },
        {
          "internalType": "uint256",
          "name": "amount",
          "type": "uint256"
        },
        {
          "internalType": "contract IERC20Upgradeable",
          "name": "token",
          "type": "address"
        },
        {
          "internalType": "uint256",
          "name": "initialAmount",
          "type": "uint256"
        }
      ],
      "stateMutability": "view",
      "type": "function"
    },
    {
      "inputs": [
        {
          "internalType": "address",
          "name": "_donor",
          "type": "address"
        },
        {
          "internalType": "uint256",
          "name": "_rewardPeriodIndex",
          "type": "uint256"
        }
      ],
      "name": "donorRewardPeriod",
      "outputs": [
        {
          "internalType": "uint256",
          "name": "",
          "type": "uint256"
        }
      ],
      "stateMutability": "view",
      "type": "function"
    },
    {
      "inputs": [
        {
          "internalType": "address",
          "name": "_donorAddress",
          "type": "address"
        }
      ],
      "name": "donorScore",
      "outputs": [
        {
          "internalType": "uint256",
          "name": "",
          "type": "uint256"
        }
      ],
      "stateMutability": "view",
      "type": "function"
    },
    {
      "inputs": [
        {
          "internalType": "address",
          "name": "",
          "type": "address"
        }
      ],
      "name": "donors",
      "outputs": [
        {
          "internalType": "uint256",
          "name": "lastClaim",
          "type": "uint256"
        },
        {
          "internalType": "uint256",
          "name": "rewardPeriodsCount",
          "type": "uint256"
        },
        {
          "internalType": "uint256",
          "name": "lastClaimPeriod",
          "type": "uint256"
        }
      ],
      "stateMutability": "view",
      "type": "function"
    },
    {
      "inputs": [
        {
          "internalType": "address",
          "name": "_donorAddress",
          "type": "address"
        }
      ],
      "name": "estimateClaimableReward",
      "outputs": [
        {
          "internalType": "uint256",
          "name": "",
          "type": "uint256"
        }
      ],
      "stateMutability": "view",
      "type": "function"
    },
    {
      "inputs": [
        {
          "internalType": "address",
          "name": "_donorAddress",
          "type": "address"
        }
      ],
      "name": "estimateClaimableRewardAdvance",
      "outputs": [
        {
          "internalType": "uint256",
          "name": "",
          "type": "uint256"
        }
      ],
      "stateMutability": "view",
      "type": "function"
    },
    {
      "inputs": [
        {
          "internalType": "address",
          "name": "_donorAddress",
          "type": "address"
        }
      ],
      "name": "estimateClaimableRewardByStaking",
      "outputs": [
        {
          "internalType": "uint256",
          "name": "",
          "type": "uint256"
        }
      ],
      "stateMutability": "view",
      "type": "function"
    },
    {
      "inputs": [],
      "name": "generalApr",
      "outputs": [
        {
          "internalType": "uint256",
          "name": "",
          "type": "uint256"
        }
      ],
      "stateMutability": "view",
      "type": "function"
    },
    {
      "inputs": [],
      "name": "getVersion",
      "outputs": [
        {
          "internalType": "uint256",
          "name": "",
          "type": "uint256"
        }
      ],
      "stateMutability": "pure",
      "type": "function"
    },
    {
      "inputs": [
        {
          "internalType": "contract IERC20Upgradeable",
          "name": "_cUSD",
          "type": "address"
        },
        {
          "internalType": "contract IERC20Upgradeable",
          "name": "_PACT",
          "type": "address"
        },
        {
          "internalType": "contract ITreasury",
          "name": "_treasury",
          "type": "address"
        },
        {
          "internalType": "uint256",
          "name": "_firstRewardPerBlock",
          "type": "uint256"
        },
        {
          "internalType": "uint256",
          "name": "_rewardPeriodSize",
          "type": "uint256"
        },
        {
          "internalType": "uint256",
          "name": "_startingBlock",
          "type": "uint256"
        },
        {
          "internalType": "uint256",
          "name": "_decayNumerator",
          "type": "uint256"
        },
        {
          "internalType": "uint256",
          "name": "_decayDenominator",
          "type": "uint256"
        }
      ],
      "name": "initialize",
      "outputs": [],
      "stateMutability": "nonpayable",
      "type": "function"
    },
    {
      "inputs": [
        {
          "internalType": "address",
          "name": "_donorAddress",
          "type": "address"
        }
      ],
      "name": "lastPeriodsDonations",
      "outputs": [
        {
          "internalType": "uint256",
          "name": "donorAmount",
          "type": "uint256"
        },
        {
          "internalType": "uint256",
          "name": "totalAmount",
          "type": "uint256"
        }
      ],
      "stateMutability": "view",
      "type": "function"
    },
    {
      "inputs": [],
      "name": "owner",
      "outputs": [
        {
          "internalType": "address",
          "name": "",
          "type": "address"
        }
      ],
      "stateMutability": "view",
      "type": "function"
    },
    {
      "inputs": [],
      "name": "paused",
      "outputs": [
        {
          "internalType": "bool",
          "name": "",
          "type": "bool"
        }
      ],
      "stateMutability": "view",
      "type": "function"
    },
    {
      "inputs": [],
      "name": "renounceOwnership",
      "outputs": [],
      "stateMutability": "nonpayable",
      "type": "function"
    },
    {
      "inputs": [],
      "name": "rewardPeriodCount",
      "outputs": [
        {
          "internalType": "uint256",
          "name": "",
          "type": "uint256"
        }
      ],
      "stateMutability": "view",
      "type": "function"
    },
    {
      "inputs": [
        {
          "internalType": "uint256",
          "name": "_period",
          "type": "uint256"
        },
        {
          "internalType": "address",
          "name": "_donor",
          "type": "address"
        }
      ],
      "name": "rewardPeriodDonorAmount",
      "outputs": [
        {
          "internalType": "uint256",
          "name": "",
          "type": "uint256"
        }
      ],
      "stateMutability": "view",
      "type": "function"
    },
    {
      "inputs": [
        {
          "internalType": "uint256",
          "name": "_period",
          "type": "uint256"
        },
        {
          "internalType": "address",
          "name": "_donor",
          "type": "address"
        }
      ],
      "name": "rewardPeriodDonorStakeAmounts",
      "outputs": [
        {
          "internalType": "uint256",
          "name": "",
          "type": "uint256"
        }
      ],
      "stateMutability": "view",
      "type": "function"
    },
    {
      "inputs": [],
      "name": "rewardPeriodSize",
      "outputs": [
        {
          "internalType": "uint256",
          "name": "",
          "type": "uint256"
        }
      ],
      "stateMutability": "view",
      "type": "function"
    },
    {
      "inputs": [
        {
          "internalType": "uint256",
          "name": "",
          "type": "uint256"
        }
      ],
      "name": "rewardPeriods",
      "outputs": [
        {
          "internalType": "uint256",
          "name": "rewardPerBlock",
          "type": "uint256"
        },
        {
          "internalType": "uint256",
          "name": "rewardAmount",
          "type": "uint256"
        },
        {
          "internalType": "uint256",
          "name": "startBlock",
          "type": "uint256"
        },
        {
          "internalType": "uint256",
          "name": "endBlock",
          "type": "uint256"
        },
        {
          "internalType": "uint256",
          "name": "donationsAmount",
          "type": "uint256"
        },
        {
          "internalType": "uint256",
          "name": "againstPeriods",
          "type": "uint256"
        },
        {
          "internalType": "uint256",
          "name": "stakesAmount",
          "type": "uint256"
        },
        {
          "internalType": "uint256",
          "name": "stakingDonationRatio",
          "type": "uint256"
        }
      ],
      "stateMutability": "view",
      "type": "function"
    },
    {
      "inputs": [
        {
          "internalType": "address",
          "name": "_holderAddress",
          "type": "address"
        },
        {
          "internalType": "uint256",
          "name": "_holderAmount",
          "type": "uint256"
        },
        {
          "internalType": "uint256",
          "name": "_totalAmount",
          "type": "uint256"
        }
      ],
      "name": "setStakingAmounts",
      "outputs": [],
      "stateMutability": "nonpayable",
      "type": "function"
    },
    {
      "inputs": [],
      "name": "stakeRewards",
      "outputs": [],
      "stateMutability": "nonpayable",
      "type": "function"
    },
    {
      "inputs": [
        {
          "internalType": "uint256",
          "name": "_lastPeriodNumber",
          "type": "uint256"
        }
      ],
      "name": "stakeRewardsPartial",
      "outputs": [],
      "stateMutability": "nonpayable",
      "type": "function"
    },
    {
      "inputs": [],
      "name": "staking",
      "outputs": [
        {
          "internalType": "contract IStaking",
          "name": "",
          "type": "address"
        }
      ],
      "stateMutability": "view",
      "type": "function"
    },
    {
      "inputs": [],
      "name": "stakingDonationRatio",
      "outputs": [
        {
          "internalType": "uint256",
          "name": "",
          "type": "uint256"
        }
      ],
      "stateMutability": "view",
      "type": "function"
    },
    {
      "inputs": [
        {
          "internalType": "contract IERC20Upgradeable",
          "name": "_token",
          "type": "address"
        },
        {
          "internalType": "address",
          "name": "_to",
          "type": "address"
        },
        {
          "internalType": "uint256",
          "name": "_amount",
          "type": "uint256"
        }
      ],
      "name": "transfer",
      "outputs": [],
      "stateMutability": "nonpayable",
      "type": "function"
    },
    {
      "inputs": [
        {
          "internalType": "address",
          "name": "newOwner",
          "type": "address"
        }
      ],
      "name": "transferOwnership",
      "outputs": [],
      "stateMutability": "nonpayable",
      "type": "function"
    },
    {
      "inputs": [],
      "name": "treasury",
      "outputs": [
        {
          "internalType": "contract ITreasury",
          "name": "",
          "type": "address"
        }
      ],
      "stateMutability": "view",
      "type": "function"
    },
    {
      "inputs": [
        {
          "internalType": "uint256",
          "name": "_newAgainstPeriods",
          "type": "uint256"
        }
      ],
      "name": "updateAgainstPeriods",
      "outputs": [],
      "stateMutability": "nonpayable",
      "type": "function"
    },
    {
      "inputs": [
        {
          "internalType": "uint256",
          "name": "_newClaimDelay",
          "type": "uint256"
        }
      ],
      "name": "updateClaimDelay",
      "outputs": [],
      "stateMutability": "nonpayable",
      "type": "function"
    },
    {
      "inputs": [
        {
          "internalType": "uint256",
          "name": "_newCommunityDonationRatio",
          "type": "uint256"
        }
      ],
      "name": "updateCommunityDonationRatio",
      "outputs": [],
      "stateMutability": "nonpayable",
      "type": "function"
    },
    {
      "inputs": [
        {
          "internalType": "uint256",
          "name": "_newRewardPeriodSize",
          "type": "uint256"
        },
        {
          "internalType": "uint256",
          "name": "_newDecayNumerator",
          "type": "uint256"
        },
        {
          "internalType": "uint256",
          "name": "_newDecayDenominator",
          "type": "uint256"
        }
      ],
      "name": "updateRewardPeriodParams",
      "outputs": [],
      "stateMutability": "nonpayable",
      "type": "function"
    },
    {
      "inputs": [
        {
          "internalType": "contract IStaking",
          "name": "_newStaking",
          "type": "address"
        }
      ],
      "name": "updateStaking",
      "outputs": [],
      "stateMutability": "nonpayable",
      "type": "function"
    },
    {
      "inputs": [
        {
          "internalType": "uint256",
          "name": "_newStakingDonationRatio",
          "type": "uint256"
        }
      ],
      "name": "updateStakingDonationRatio",
      "outputs": [],
      "stateMutability": "nonpayable",
      "type": "function"
    },
    {
      "inputs": [
        {
          "internalType": "contract ITreasury",
          "name": "_newTreasury",
          "type": "address"
        }
      ],
      "name": "updateTreasury",
      "outputs": [],
      "stateMutability": "nonpayable",
      "type": "function"
    }
  ],
  "transactionHash": "0xb50f1bd52c7ffe155d447f70bc6d45707a3791db292284201bce36390d4f0353",
  "args": [],
  "numDeployments": 11,
  "solcInputHash": "86c3022e3b12214e126013e0ac826021",
  "bytecode": "0x608060405234801561001057600080fd5b50613ec3806100206000396000f3fe608060405234801561001057600080fd5b50600436106102d65760003560e01c806396990e6e11610182578063cf428795116100e9578063e57919d6116100a2578063f2fde38b1161007c578063f2fde38b146106d4578063f8626af8146106e7578063fa86590914610785578063fef4af861461079857600080fd5b8063e57919d6146106b0578063ed409ff3146106b8578063f223c973146106c157600080fd5b8063cf42879514610622578063cf9d0b5f1461065c578063de8f41ba14610664578063df8fa43014610677578063e247b8d81461068a578063e48508df1461069d57600080fd5b8063ad3e48c51161013b578063ad3e48c514610583578063beabacc814610596578063c38474c0146105a9578063c89d1a8e146105b2578063ca0cdea8146105c5578063cd75000c1461060f57600080fd5b806396990e6e1461052f578063a345f38d14610542578063a4b01bf514610555578063a70e940b14610568578063a915da5614610571578063ac9e03881461057a57600080fd5b806353d541c111610241578063715018a6116101fa5780638252097d116101d45780638252097d146104765780638901e985146105025780638da5cb5b1461051557806392ade2991461052657600080fd5b8063715018a6146104485780637f51bb1f14610450578063821787ec1461046357600080fd5b806353d541c1146103d357806359d0bfff146103e65780635c975abb146103f957806361d027b31461040f5780636cc40c2c146104225780636d0acb431461043557600080fd5b80632abfab4d116102935780632abfab4d1461034f5780632bef5eef14610358578063372500ab1461036b5780633b9a0176146103735780633ddec531146103865780634cf088d9146103c057600080fd5b806307ea4e57146102db5780630d1e9b4a146102f75780630d8e6e2c1461030c5780631569cc95146103135780631c8ec2991461031b5780631fccf67214610324575b600080fd5b6102e460cf5481565b6040519081526020015b60405180910390f35b61030a6103053660046139dd565b6107c0565b005b60046102e4565b6102e461097a565b6102e460d45481565b60c954610337906001600160a01b031681565b6040516001600160a01b0390911681526020016102ee565b6102e460cd5481565b6102e4610366366004613a6d565b6109d4565b61030a610a01565b60ca54610337906001600160a01b031681565b6102e461039436600461383a565b6001600160a01b0391909116600090815260d36020908152604080832093835260029093019052205490565b60d654610337906001600160a01b031681565b6102e46103e136600461381e565b610af0565b61030a6103f43660046138d5565b610ca2565b60655460ff1660405190151581526020016102ee565b60cb54610337906001600160a01b031681565b61030a610430366004613a3d565b611023565b61030a610443366004613a3d565b611273565b61030a6112de565b61030a61045e36600461381e565b611314565b6102e461047136600461383a565b61139a565b6104c7610484366004613a3d565b60d2602052600090815260409020805460018201546002830154600384015460048501546006860154600787015460089097015495969495939492939192909188565b604080519889526020890197909752958701949094526060860192909252608085015260a084015260c083015260e0820152610100016102ee565b61030a610510366004613a3d565b6114bf565b6033546001600160a01b0316610337565b6102e460d05481565b6102e461053d36600461381e565b611532565b61030a61055036600461381e565b61164f565b61030a610563366004613a3d565b6116d5565b6102e460d55481565b6102e460d85481565b6102e460d75481565b61030a610591366004613865565b611748565b61030a6105a4366004613927565b61188a565b6102e460ce5481565b6102e46105c036600461381e565b611947565b6105f46105d336600461381e565b60d36020526000908152604090208054600182015460039092015490919083565b604080519384526020840192909252908201526060016102ee565b6102e461061d36600461381e565b6119b0565b6102e4610630366004613a6d565b600082815260d2602090815260408083206001600160a01b0385168452600a0190915290205492915050565b61030a6119d8565b61030a610672366004613a3d565b611b9a565b61030a610685366004613967565b611d0c565b61030a610698366004613a3d565b61208a565b61030a6106ab366004613a9c565b6120f5565b6102e46121ae565b6102e460cc5481565b6102e46106cf36600461381e565b612335565b61030a6106e236600461381e565b612349565b6107416106f5366004613a3d565b60d16020526000908152604090208054600182015460028301546003840154600485015460058601546006909601546001600160a01b0395861696948616959394929391929091169087565b604080516001600160a01b03988916815296881660208801528601949094526060850192909252608084015290921660a082015260c081019190915260e0016102ee565b6102e461079336600461381e565b6123e4565b6107ab6107a636600461381e565b61244e565b604080519283526020830191909152016102ee565b60655460ff16156107ec5760405162461bcd60e51b81526004016107e390613b4d565b60405180910390fd5b600160005260d2602052600080516020613e6e833981519152544310156108255760405162461bcd60e51b81526004016107e390613b16565b600260975414156108485760405162461bcd60e51b81526004016107e390613c54565b600260975560c9546001600160a01b03848116911614806108e1575060cb546040516319f3736160e01b81526001600160a01b038581166004830152909116906319f373619060240160206040518083038186803b1580156108a957600080fd5b505afa1580156108bd573d6000803e3d6000fd5b505050506040513d601f19601f820116820180604052508101906108e19190613899565b6109395760405162461bcd60e51b8152602060048201526024808201527f446f6e6174696f6e4d696e65723a3a646f6e6174653a20496e76616c6964207460448201526337b5b2b760e11b60648201526084016107e3565b60cb54610955906001600160a01b0385811691339116856124a1565b60cb54610970908290859085906001600160a01b0316612512565b5050600160975550565b60ce54600090815260d260205260408120600301544381116109ca5760cc546109a38243613dcd565b6109ad9190613ca3565b60ce546109ba9190613c8b565b6109c5906001613c8b565b6109ce565b60ce545b91505090565b600082815260d2602090815260408083206001600160a01b03851684526005019091529020545b92915050565b60655460ff1615610a245760405162461bcd60e51b81526004016107e390613b4d565b600160005260d2602052600080516020613e6e83398151915254431015610a5d5760405162461bcd60e51b81526004016107e390613b16565b60026097541415610a805760405162461bcd60e51b81526004016107e390613c54565b60026097556000610a9833610a936126d8565b61271f565b60ca54909150610ab2906001600160a01b0316338361289c565b60405181815233907f106f923f993c2149d49b4255ff723acafa1f2d94393f561d3eda32ae348f7241906020015b60405180910390a2506001609755565b6001600090815260d2602052600080516020613e6e83398151915254431015610b2b5760405162461bcd60e51b81526004016107e390613b16565b60655460ff1615610b4e5760405162461bcd60e51b81526004016107e390613b4d565b600080610b5b600061244e565b915060009050610b696128d1565b905060d660009054906101000a90046001600160a01b03166001600160a01b0316638c58d0a96040518163ffffffff1660e01b815260040160206040518083038186803b158015610bb957600080fd5b505afa158015610bcd573d6000803e3d6000fd5b505050506040513d601f19601f82011682018060405250810190610bf19190613a55565b60d754610bfe9084613dae565b610c089190613c8b565b60d654604051631aefa86d60e21b81526001600160a01b03888116600483015290911690636bbea1b49060240160206040518083038186803b158015610c4d57600080fd5b505afa158015610c61573d6000803e3d6000fd5b505050506040513d601f19601f82011682018060405250810190610c859190613a55565b610c8f9083613dae565b610c999190613ca3565b95945050505050565b60655460ff1615610cc55760405162461bcd60e51b81526004016107e390613b4d565b600160005260d2602052600080516020613e6e83398151915254431015610cfe5760405162461bcd60e51b81526004016107e390613b16565b60026097541415610d215760405162461bcd60e51b81526004016107e390613c54565b600260975560cb5460408051632fd648bd60e11b815290516000926001600160a01b031691635fac917a916004808301926020929190829003018186803b158015610d6b57600080fd5b505afa158015610d7f573d6000803e3d6000fd5b505050506040513d601f19601f82011682018060405250810190610da391906138b9565b90506001604051633f9409e960e11b81526001600160a01b038781166004830152831690637f2813d29060240160206040518083038186803b158015610de857600080fd5b505afa158015610dfc573d6000803e3d6000fd5b505050506040513d601f19601f82011682018060405250810190610e209190613a1e565b6003811115610e3f57634e487b7160e01b600052602160045260246000fd5b14610ec25760405162461bcd60e51b815260206004820152604760248201527f446f6e6174696f6e4d696e65723a3a646f6e617465546f436f6d6d756e69747960448201527f3a2054686973206973206e6f7420612076616c696420636f6d6d756e697479206064820152666164647265737360c81b608482015260a4016107e3565b846001600160a01b0316631fccf6726040518163ffffffff1660e01b815260040160206040518083038186803b158015610efb57600080fd5b505afa158015610f0f573d6000803e3d6000fd5b505050506040513d601f19601f82011682018060405250810190610f3391906138b9565b6001600160a01b0316846001600160a01b031614610fab5760405162461bcd60e51b815260206004820152602f60248201527f446f6e6174696f6e4d696e65723a3a646f6e617465546f436f6d6d756e69747960448201526e1d1024b73b30b634b2103a37b5b2b760891b60648201526084016107e3565b60405163e69d849d60e01b8152336004820152602481018490526001600160a01b0386169063e69d849d90604401600060405180830381600087803b158015610ff357600080fd5b505af1158015611007573d6000803e3d6000fd5b5050505061101782858588612512565b50506001609755505050565b60655460ff16156110465760405162461bcd60e51b81526004016107e390613b4d565b600160005260d2602052600080516020613e6e8339815191525443101561107f5760405162461bcd60e51b81526004016107e390613b16565b600260975414156110a25760405162461bcd60e51b81526004016107e390613c54565b60026097556110af612952565b60ce5481106111395760405162461bcd60e51b815260206004820152604a60248201527f446f6e6174696f6e4d696e65723a3a7374616b6552657761726473506172746960448201527f616c3a20546869732072657761726420706572696f642069736e277420636c616064820152691a5b58589b19481e595d60b21b608482015260a4016107e3565b6000611145338361271f565b60ca5460d65460405163095ea7b360e01b81526001600160a01b03918216600482015260248101849052929350169063095ea7b390604401602060405180830381600087803b15801561119757600080fd5b505af11580156111ab573d6000803e3d6000fd5b505050506040513d601f19601f820116820180604052508101906111cf9190613899565b5060d6546040516356e4bb9760e11b8152336004820152602481018390526001600160a01b039091169063adc9772e90604401600060405180830381600087803b15801561121c57600080fd5b505af1158015611230573d6000803e3d6000fd5b50506040518381523392507f7d3a0ab251dfd8c04c691239edd99d2c124cce6971cebc4c2ed96a378d13d50091506020015b60405180910390a250506001609755565b6033546001600160a01b0316331461129d5760405162461bcd60e51b81526004016107e390613b77565b60d85460408051918252602082018390527f300b3540c99261403e527f171e281f3dfb0705395e1902af7e9badcddce56e5e910160405180910390a160d855565b6033546001600160a01b031633146113085760405162461bcd60e51b81526004016107e390613b77565b6113126000612b02565b565b6033546001600160a01b0316331461133e5760405162461bcd60e51b81526004016107e390613b77565b60cb546040516001600160a01b038084169216907f4ab5be82436d353e61ca18726e984e561f5c1cc7c6d38b29d2553c790434705a90600090a360cb80546001600160a01b0319166001600160a01b0392909216919091179055565b60ce54600090815260d2602052604081206003015481904311156113fb5760cc5460ce54600090815260d260205260409020600301546113da9043613dcd565b6113e49190613ca3565b905060ce54816113f49190613c8b565b905061140d565b600160ce5461140a9190613dcd565b90505b808311156114a95760405162461bcd60e51b815260206004820152605e60248201527f446f6e6174696f6e4d696e65723a3a63616c63756c617465436c61696d61626c60448201527f65526577617264734279506572696f644e756d6265723a20546869732072657760648201527f61726420706572696f642069736e277420617661696c61626c65207965740000608482015260a4016107e3565b60006114b58585612b54565b5095945050505050565b6033546001600160a01b031633146114e95760405162461bcd60e51b81526004016107e390613b77565b6114f1612952565b60d75460408051918252602082018390527fb7ce19da4d8265c844e0fa744e3429c62104c793f8ecb52d1b418b47eb9f8555910160405180910390a160d755565b6001600090815260d2602052600080516020613e6e8339815191525443101561156d5760405162461bcd60e51b81526004016107e390613b16565b60655460ff16156115905760405162461bcd60e51b81526004016107e390613b4d565b60d654604051631aefa86d60e21b81526001600160a01b0384811660048301526000921690636bbea1b49060240160206040518083038186803b1580156115d657600080fd5b505afa1580156115ea573d6000803e3d6000fd5b505050506040513d601f19601f8201168201806040525081019061160e9190613a55565b90508061161e5750600092915050565b8061162a846000612f7a565b61163e90694d501c54214bcd300000613dae565b6116489190613ca3565b9392505050565b6033546001600160a01b031633146116795760405162461bcd60e51b81526004016107e390613b77565b60d6546040516001600160a01b038084169216907fcfa056eb826b2a28817aa38ccb94f12ba8a1309598f7ea19bef6fd67fe04b61e90600090a360d680546001600160a01b0319166001600160a01b0392909216919091179055565b6033546001600160a01b031633146116ff5760405162461bcd60e51b81526004016107e390613b77565b611707612952565b60d55460408051918252602082018390527fd6a28c11ae992e0014e83eaaa6f0023a04c0787848134e8b4e43f44b7d7d8e30910160405180910390a160d555565b60655460ff161561176b5760405162461bcd60e51b81526004016107e390613b4d565b600160005260d2602052600080516020613e6e833981519152544310156117a45760405162461bcd60e51b81526004016107e390613b16565b60d6546001600160a01b031633146117fe5760405162461bcd60e51b815260206004820152601a60248201527f446f6e6174696f6e4d696e65723a204e4f545f5354414b494e4700000000000060448201526064016107e3565b611806612952565b60ce54600090815260d2602090815260408083206001600160a01b0387168452600981018352818420805460ff19166001179055600a810183528184208690556007810185905560d3909252909120600381015415801561186957506001810154155b1561188357600160ce5461187d9190613dcd565b60038201555b5050505050565b6033546001600160a01b031633146118b45760405162461bcd60e51b81526004016107e390613b77565b600260975414156118d75760405162461bcd60e51b81526004016107e390613c54565b60026097556118f06001600160a01b038416838361289c565b816001600160a01b0316836001600160a01b03167f9b035625e569d1d2bf54830a290aefba7ab11610ba8490871dc62b86b63a89568360405161193591815260200190565b60405180910390a35050600160975550565b6001600090815260d2602052600080516020613e6e833981519152544310156119825760405162461bcd60e51b81526004016107e390613b16565b60655460ff16156119a55760405162461bcd60e51b81526004016107e390613b4d565b6109fb826000612f7a565b6000806119d08360016119c161097a565b6119cb9190613dcd565b612b54565b509392505050565b60655460ff16156119fb5760405162461bcd60e51b81526004016107e390613b4d565b600160005260d2602052600080516020613e6e83398151915254431015611a345760405162461bcd60e51b81526004016107e390613b16565b60026097541415611a575760405162461bcd60e51b81526004016107e390613c54565b6002609755611a64612952565b6000611a7933600160ce54610a939190613dcd565b60ca5460d65460405163095ea7b360e01b81526001600160a01b03918216600482015260248101849052929350169063095ea7b390604401602060405180830381600087803b158015611acb57600080fd5b505af1158015611adf573d6000803e3d6000fd5b505050506040513d601f19601f82011682018060405250810190611b039190613899565b5060d6546040516356e4bb9760e11b8152336004820152602481018390526001600160a01b039091169063adc9772e90604401600060405180830381600087803b158015611b5057600080fd5b505af1158015611b64573d6000803e3d6000fd5b50506040518381523392507f7d3a0ab251dfd8c04c691239edd99d2c124cce6971cebc4c2ed96a378d13d5009150602001610ae0565b60655460ff1615611bbd5760405162461bcd60e51b81526004016107e390613b4d565b600160005260d2602052600080516020613e6e83398151915254431015611bf65760405162461bcd60e51b81526004016107e390613b16565b60026097541415611c195760405162461bcd60e51b81526004016107e390613c54565b6002609755611c266126d8565b811115611cae5760405162461bcd60e51b815260206004820152604a60248201527f446f6e6174696f6e4d696e65723a3a636c61696d52657761726473506172746960448201527f616c3a20546869732072657761726420706572696f642069736e277420636c616064820152691a5b58589b19481e595d60b21b608482015260a4016107e3565b6000611cba338361271f565b60ca54909150611cd4906001600160a01b0316338361289c565b604080518281526020810184905233917f2233b4bbf378b3d984acd0e36cea96f66bc81012a683e81929ed96df5287ba3d9101611262565b600054610100900460ff16611d275760005460ff1615611d2b565b303b155b611d8e5760405162461bcd60e51b815260206004820152602e60248201527f496e697469616c697a61626c653a20636f6e747261637420697320616c72656160448201526d191e481a5b9a5d1a585b1a5e995960921b60648201526084016107e3565b600054610100900460ff16158015611db0576000805461ffff19166101011790555b6001600160a01b038916611e1e5760405162461bcd60e51b815260206004820152602f60248201527f446f6e6174696f6e4d696e65723a3a696e697469616c697a653a20635553442060448201526e1859191c995cdcc81b9bdd081cd95d608a1b60648201526084016107e3565b6001600160a01b038816611e8c5760405162461bcd60e51b815260206004820152602f60248201527f446f6e6174696f6e4d696e65723a3a696e697469616c697a653a20504143542060448201526e1859191c995cdcc81b9bdd081cd95d608a1b60648201526084016107e3565b6001600160a01b038716611ef75760405162461bcd60e51b815260206004820152602c60248201527f446f6e6174696f6e4d696e65723a3a696e697469616c697a653a20747265617360448201526b1d5c9e57c81b9bdd081cd95d60a21b60648201526084016107e3565b85611f6a5760405162461bcd60e51b815260206004820152603760248201527f446f6e6174696f6e4d696e65723a3a696e697469616c697a653a20666972737460448201527f526577617264506572426c6f636b206e6f74207365742100000000000000000060648201526084016107e3565b83611fdd5760405162461bcd60e51b815260206004820152603860248201527f446f6e6174696f6e4d696e65723a3a696e697469616c697a653a20737461727460448201527f696e67526577617264506572696f64206e6f742073657421000000000000000060648201526084016107e3565b84611ffa5760405162461bcd60e51b81526004016107e390613bac565b612002612fd3565b61200a61300a565b612012613041565b60c980546001600160a01b03808c166001600160a01b03199283161790925560ca80548b841690831617905560cb8054928a169290911691909117905560cc85905560cf83905560d0829055600160ce5561206d8487613070565b801561207f576000805461ff00191690555b505050505050505050565b6033546001600160a01b031633146120b45760405162461bcd60e51b81526004016107e390613b77565b60d45460408051918252602082018390527f7625e5482008771a414881eb4c957803f2ab46e99e6da60df6e1310f0f009fec910160405180910390a160d455565b6033546001600160a01b0316331461211f5760405162461bcd60e51b81526004016107e390613b77565b8261213c5760405162461bcd60e51b81526004016107e390613bac565b612144612952565b60cc5460cf5460d05460408051938452602084019290925282820152606082018590526080820184905260a08201839052517f8fb29c6ced5ce51696c08668df816fab7e60c674a6c36e167d5df9b8a5f499849181900360c00190a160cc9290925560cf5560d055565b6001600090815260d2602052600080516020613e6e833981519152544310156121e95760405162461bcd60e51b81526004016107e390613b16565b60655460ff161561220c5760405162461bcd60e51b81526004016107e390613b4d565b600080612219600061244e565b9150600090506122276128d1565b90508060005b61016c8110156122715760d05460cf546122479085613dae565b6122519190613ca3565b925061225d8383613c8b565b91508061226981613e27565b91505061222d565b60d660009054906101000a90046001600160a01b03166001600160a01b0316638c58d0a96040518163ffffffff1660e01b815260040160206040518083038186803b1580156122bf57600080fd5b505afa1580156122d3573d6000803e3d6000fd5b505050506040513d601f19601f820116820180604052508101906122f79190613a55565b60d7546123049086613dae565b61230e9190613c8b565b6123218368056bc75e2d63100000613dae565b61232b9190613ca3565b9550505050505090565b60006109fb82670de0b6b3a76400006130e7565b6033546001600160a01b031633146123735760405162461bcd60e51b81526004016107e390613b77565b6001600160a01b0381166123d85760405162461bcd60e51b815260206004820152602660248201527f4f776e61626c653a206e6577206f776e657220697320746865207a65726f206160448201526564647265737360d01b60648201526084016107e3565b6123e181612b02565b50565b6001600090815260d2602052600080516020613e6e8339815191525443101561241f5760405162461bcd60e51b81526004016107e390613b16565b60655460ff16156124425760405162461bcd60e51b81526004016107e390613b4d565b6109fb8260d554612f7a565b600080600061245b61097a565b9050600060d554821161246f57600161247c565b60d55461247c9083613dcd565b90508060ce541061249a57612494858260ce5461336b565b90945092505b5050915091565b6040516001600160a01b038085166024830152831660448201526064810182905261250c9085906323b872dd60e01b906084015b60408051601f198184030181529190526020810180516001600160e01b03166001600160e01b0319909316929092179091526133e0565b50505050565b61251a612952565b60cd805490600061252a83613e27565b909155505060cd54600090815260d16020526040902080546001600160a01b038087166001600160a01b0319928316178355600183018054858316908416811790915543600385015560ce5460028501556005840180548884169416939093179092556006830185905560cb5416141561264a5760c9546001600160a01b0385811691161461263e5760cb5460405163f2b8995160e01b81526001600160a01b038681166004830152602482018690529091169063f2b8995190604401602060405180830381600087803b15801561260157600080fd5b505af1158015612615573d6000803e3d6000fd5b505050506040513d601f19601f820116820180604052508101906126399190613a55565b612640565b825b600482015561265d565b60d8546126579084613ca3565b60048201555b61266e60ce548683600401546134b2565b6126778561350f565b60cd546004820154604080519182526001600160a01b03878116602084015290820186905280851692908816917f3d2fa2b84d5f2000d605401d563ba60e2e44f62701fdbe9f9101c59b3c215f299060600160405180910390a45050505050565b60006126e2612952565b60d4546126f0906001613c8b565b60ce54116126fe5750600090565b60d454600160ce546127109190613dcd565b61271a9190613dcd565b905090565b6001600160a01b038216600090815260d36020526040812081806127438686612b54565b6003850154919350915085111561275c57600383018590555b600085815260d2602090815260408083206001600160a01b038a168452600a01909152902081905581612793575091506109fb9050565b60ca546040516370a0823160e01b81523060048201526001600160a01b03909116906370a082319060240160206040518083038186803b1580156127d657600080fd5b505afa1580156127ea573d6000803e3d6000fd5b505050506040513d601f19601f8201168201806040525081019061280e9190613a55565b8211156128935760ca546040516370a0823160e01b81523060048201526001600160a01b03909116906370a082319060240160206040518083038186803b15801561285857600080fd5b505afa15801561286c573d6000803e3d6000fd5b505050506040513d601f19601f820116820180604052508101906128909190613a55565b91505b50949350505050565b6040516001600160a01b0383166024820152604481018290526128cc90849063a9059cbb60e01b906064016124d5565b505050565b6000806128dc61097a565b9050600060ce54826128ee9190613dcd565b60d0546128fb9190613d06565b60ce546129089084613dcd565b60cf546129159190613d06565b60ce54600090815260d260205260409020546129319190613dae565b61293b9190613ca3565b905060cc548161294b9190613dae565b9250505090565b60ce54600090815260d2602052604090205b43816003015410156123e15760ce805490600061298083613e27565b909155505060ce54600090815260d26020526040902060d554600682015560038201546129ae906001613c8b565b6002820181905560cc546001916129c59190613c8b565b6129cf9190613dcd565b600382015560d05460cf5483546129e69190613dae565b6129f09190613ca3565b8082556007808401549083015560d754600883015560cc54600091612a1491613dae565b905060008360060154600160ce54612a2c9190613dcd565b11612a38576001612a56565b8360060154600160ce54612a4c9190613dcd565b612a569190613dcd565b9050612a7081600160ce54612a6b9190613dcd565b6135a8565b612a86576001840154612a839083613c8b565b91505b81836001018190555082935060cb60009054906101000a90046001600160a01b03166001600160a01b0316635093141f6040518163ffffffff1660e01b8152600401600060405180830381600087803b158015612ae257600080fd5b505af1158015612af6573d6000803e3d6000fd5b50505050505050612964565b603380546001600160a01b038381166001600160a01b0319831681179093556040519116919082907f8be0079c531659141344cd1fd0a4f28419497f9722a3daafe3b4186f6b6457e090600090a35050565b6001600160a01b038216600090815260d36020526040812060038101548291908290612b81906001613c8b565b90508060011415612bad5781546000908152600283016020526040902054612baa906001613c8b565b90505b60d26020819052600082815260408120818052909182918291829182917f20791b593a776a2631a28f4a3f62a14ad18db22add38130c4f4a8fdfa46398859190829084612bfb60018c613dcd565b8152602001908152602001600020600a0160008f6001600160a01b03166001600160a01b03168152602001908152602001600020549a505b8c8911612f6957600282015415612dc4576006820154612c77576001600160a01b038e16600090815260058301602052604090205460048301549098509650612d96565b816006015483600601541415612d54576006820154612c97906001613c8b565b891115612d165760d26000836006015460018c612cb49190613dcd565b612cbe9190613dcd565b815260200190815260200160002090508060050160008f6001600160a01b03166001600160a01b031681526020019081526020016000205488612d019190613dcd565b9750806004015487612d139190613dcd565b96505b6001600160a01b038e166000908152600583016020526040902054612d3b9089613c8b565b9750816004015487612d4d9190613c8b565b9650612d96565b8160060154891115612d8457612d7a8e83600601548b612d749190613dcd565b8b61336b565b9098509650612d96565b612d908e60008b61336b565b90985096505b81600101549550816007015494506000826008015411612db7576001612dbd565b81600801545b9350612ea6565b60d554612dd2906001613c8b565b891115612e4f5760d2600060d55460018c612ded9190613dcd565b612df79190613dcd565b815260200190815260200160002090508060050160008f6001600160a01b03166001600160a01b031681526020019081526020016000205488612e3a9190613dcd565b9750806004015487612e4c9190613dcd565b96505b6001600160a01b038e166000908152600583016020526040902054612e749089613c8b565b9750816004015487612e869190613c8b565b965060d05460cf5487612e999190613dae565b612ea39190613ca3565b95505b6001600160a01b038e16600090815260098301602052604090205460ff1615612ee7576001600160a01b038e166000908152600a830160205260409020549a505b6000612ef38c8a613c8b565b1115612f445784612f048589613dae565b612f0e9190613c8b565b8b612f19868b613dae565b612f239190613c8b565b612f2d9088613dae565b612f379190613ca3565b612f41908d613c8b565b9b505b88612f4e81613e27565b600081815260d260205260409020909a50929350612c339050565b505050505050505050509250929050565b600080612f856128d1565b9050805b8315612fc95760d05460cf54612f9f9084613dae565b612fa99190613ca3565b9150612fb58282613c8b565b905083612fc181613e10565b945050612f89565b610c9985826130e7565b600054610100900460ff16612ffa5760405162461bcd60e51b81526004016107e390613c09565b6130026135fe565b611312613625565b600054610100900460ff166130315760405162461bcd60e51b81526004016107e390613c09565b6130396135fe565b611312613655565b600054610100900460ff166130685760405162461bcd60e51b81526004016107e390613c09565b611312613688565b6001600081905260d2602052600080516020613e6e83398151915283905560cc547fb7404ce2b5a52e61a6b5c9b4585ed65d8cb4b8848d3ee262a356d0c2c46c5f3591906130be9085613c8b565b6130c89190613dcd565b600382015581815560cc546130dd9083613dae565b6001909101555050565b60008060006130f58561244e565b60d654604080516319e815f960e01b815290519395509193506000926001600160a01b03909116916319e815f9916004808301926020929190829003018186803b15801561314257600080fd5b505afa158015613156573d6000803e3d6000fd5b505050506040513d601f19601f8201168201806040525081019061317a91906138b9565b6001600160a01b03166318160ddd6040518163ffffffff1660e01b815260040160206040518083038186803b1580156131b257600080fd5b505afa1580156131c6573d6000803e3d6000fd5b505050506040513d601f19601f820116820180604052508101906131ea9190613a55565b9050801580156131f8575081155b1561320957600093505050506109fb565b60008060d7541161321b57600161321f565b60d7545b905060d660009054906101000a90046001600160a01b03166001600160a01b0316638c58d0a96040518163ffffffff1660e01b815260040160206040518083038186803b15801561326f57600080fd5b505afa158015613283573d6000803e3d6000fd5b505050506040513d601f19601f820116820180604052508101906132a79190613a55565b6132b18285613dae565b6132bb9190613c8b565b60d654604051631aefa86d60e21b81526001600160a01b038a8116600483015290911690636bbea1b49060240160206040518083038186803b15801561330057600080fd5b505afa158015613314573d6000803e3d6000fd5b505050506040513d601f19601f820116820180604052508101906133389190613a55565b6133428387613dae565b61334c9190613c8b565b6133569088613dae565b6133609190613ca3565b979650505050505050565b6000808080855b8581116133d357600081815260d2602090815260408083206001600160a01b038c16845260058101909252909120546133ab9085613c8b565b93508060040154836133bd9190613c8b565b92505080806133cb90613e27565b915050613372565b5090969095509350505050565b6000613435826040518060400160405280602081526020017f5361666545524332303a206c6f772d6c6576656c2063616c6c206661696c6564815250856001600160a01b03166136b69092919063ffffffff16565b8051909150156128cc57808060200190518101906134539190613899565b6128cc5760405162461bcd60e51b815260206004820152602a60248201527f5361666545524332303a204552433230206f7065726174696f6e20646964206e6044820152691bdd081cdd58d8d9595960b21b60648201526084016107e3565b600083815260d260205260408120600481018054919284926134d5908490613c8b565b90915550506001600160a01b038316600090815260058201602052604081208054849290613504908490613c8b565b909155505050505050565b6001600160a01b038116600090815260d36020908152604080832060018101548452600281019092529091205460ce5481146135765760018201805490600061355783613e27565b909155505060ce54600183015460009081526002840160205260409020555b600382015415801561358a57506001820154155b156128cc57600160ce5461359e9190613dcd565b6003830155505050565b60005b8183116135f557600083815260d26020526040812060078101546004909101546135d59190613c8b565b11156135e3575060016109fb565b826135ed81613e27565b9350506135ab565b50600092915050565b600054610100900460ff166113125760405162461bcd60e51b81526004016107e390613c09565b600054610100900460ff1661364c5760405162461bcd60e51b81526004016107e390613c09565b61131233612b02565b600054610100900460ff1661367c5760405162461bcd60e51b81526004016107e390613c09565b6065805460ff19169055565b600054610100900460ff166136af5760405162461bcd60e51b81526004016107e390613c09565b6001609755565b60606136c584846000856136cd565b949350505050565b60608247101561372e5760405162461bcd60e51b815260206004820152602660248201527f416464726573733a20696e73756666696369656e742062616c616e636520666f6044820152651c8818d85b1b60d21b60648201526084016107e3565b843b61377c5760405162461bcd60e51b815260206004820152601d60248201527f416464726573733a2063616c6c20746f206e6f6e2d636f6e747261637400000060448201526064016107e3565b600080866001600160a01b031685876040516137989190613ac7565b60006040518083038185875af1925050503d80600081146137d5576040519150601f19603f3d011682016040523d82523d6000602084013e6137da565b606091505b5091509150613360828286606083156137f4575081611648565b8251156138045782518084602001fd5b8160405162461bcd60e51b81526004016107e39190613ae3565b60006020828403121561382f578081fd5b813561164881613e58565b6000806040838503121561384c578081fd5b823561385781613e58565b946020939093013593505050565b600080600060608486031215613879578081fd5b833561388481613e58565b95602085013595506040909401359392505050565b6000602082840312156138aa578081fd5b81518015158114611648578182fd5b6000602082840312156138ca578081fd5b815161164881613e58565b600080600080608085870312156138ea578081fd5b84356138f581613e58565b9350602085013561390581613e58565b925060408501359150606085013561391c81613e58565b939692955090935050565b60008060006060848603121561393b578283fd5b833561394681613e58565b9250602084013561395681613e58565b929592945050506040919091013590565b600080600080600080600080610100898b031215613983578384fd5b883561398e81613e58565b9750602089013561399e81613e58565b965060408901356139ae81613e58565b979a96995096976060810135975060808101359660a0820135965060c0820135955060e0909101359350915050565b6000806000606084860312156139f1578283fd5b83356139fc81613e58565b9250602084013591506040840135613a1381613e58565b809150509250925092565b600060208284031215613a2f578081fd5b815160048110611648578182fd5b600060208284031215613a4e578081fd5b5035919050565b600060208284031215613a66578081fd5b5051919050565b60008060408385031215613a7f578182fd5b823591506020830135613a9181613e58565b809150509250929050565b600080600060608486031215613ab0578081fd5b505081359360208301359350604090920135919050565b60008251613ad9818460208701613de4565b9190910192915050565b6020815260008251806020840152613b02816040850160208701613de4565b601f01601f19169190910160400192915050565b6020808252601e908201527f446f6e6174696f6e4d696e65723a204552525f4e4f545f535441525445440000604082015260600190565b60208082526010908201526f14185d5cd8589b194e881c185d5cd95960821b604082015260600190565b6020808252818101527f4f776e61626c653a2063616c6c6572206973206e6f7420746865206f776e6572604082015260600190565b60208082526037908201527f446f6e6174696f6e4d696e65723a3a696e697469616c697a653a20726577617260408201527f64506572696f6453697a6520697320696e76616c696421000000000000000000606082015260800190565b6020808252602b908201527f496e697469616c697a61626c653a20636f6e7472616374206973206e6f74206960408201526a6e697469616c697a696e6760a81b606082015260800190565b6020808252601f908201527f5265656e7472616e637947756172643a207265656e7472616e742063616c6c00604082015260600190565b60008219821115613c9e57613c9e613e42565b500190565b600082613cbe57634e487b7160e01b81526012600452602481fd5b500490565b600181815b80851115613cfe578160001904821115613ce457613ce4613e42565b80851615613cf157918102915b93841c9390800290613cc8565b509250929050565b60006116488383600082613d1c575060016109fb565b81613d29575060006109fb565b8160018114613d3f5760028114613d4957613d65565b60019150506109fb565b60ff841115613d5a57613d5a613e42565b50506001821b6109fb565b5060208310610133831016604e8410600b8410161715613d88575081810a6109fb565b613d928383613cc3565b8060001904821115613da657613da6613e42565b029392505050565b6000816000190483118215151615613dc857613dc8613e42565b500290565b600082821015613ddf57613ddf613e42565b500390565b60005b83811015613dff578181015183820152602001613de7565b8381111561250c5750506000910152565b600081613e1f57613e1f613e42565b506000190190565b6000600019821415613e3b57613e3b613e42565b5060010190565b634e487b7160e01b600052601160045260246000fd5b6001600160a01b03811681146123e157600080fdfeb7404ce2b5a52e61a6b5c9b4585ed65d8cb4b8848d3ee262a356d0c2c46c5f37a264697066735822122071b596355438346e8637062c1c01331feb00ddd47b9fe1f95be1bc4c6a5bc27764736f6c63430008040033",
  "devdoc": {
    "events": {
      "AgainstPeriodsUpdated(uint256,uint256)": {
        "params": {
          "newAgainstPeriods": "New againstPeriods value",
          "oldAgainstPeriods": "Old againstPeriods value"
        }
      },
      "ClaimDelayUpdated(uint256,uint256)": {
        "params": {
          "newClaimDelay": "New claimDelay value",
          "oldClaimDelay": "Old claimDelay value"
        }
      },
      "CommunityDonationRatioUpdated(uint256,uint256)": {
        "params": {
          "newCommunityDonationRatio": "New communityDonationRatio value",
          "oldCommunityDonationRatio": "Old communityDonationRatio value"
        }
      },
      "DonationAdded(uint256,address,uint256,address,uint256,address)": {
        "params": {
          "amount": "Number of token donated",
          "delegateAddress": "Address of the delegate",
          "donationId": "Id of the donation",
          "target": "Address of the receiver (community or treasury)                          or address of the DonationMiner contract otherwise",
          "token": "Address of the token after conversion"
        }
      },
      "RewardClaimed(address,uint256)": {
        "params": {
          "amount": "Value of the reward",
          "donor": "Address of the donner"
        }
      },
      "RewardClaimedPartial(address,uint256,uint256)": {
        "params": {
          "amount": "Value of the reward",
          "donor": "Address of the donner",
          "lastRewardPeriod": "Number of the last reward period for witch the claim was made"
        }
      },
      "RewardPeriodParamsUpdated(uint256,uint256,uint256,uint256,uint256,uint256)": {
        "params": {
          "newDecayDenominator": "New decayDenominator value For further information regarding each parameter, see *DonationMiner* smart contract initialize method.",
          "newDecayNumerator": "New decayNumerator value",
          "newRewardPeriodSize": "New rewardPeriodSize value",
          "oldDecayDenominator": "Old decayDenominator value",
          "oldDecayNumerator": "Old decayNumerator value",
          "oldRewardPeriodSize": "Old rewardPeriodSize value"
        }
      },
      "RewardStaked(address,uint256)": {
        "params": {
          "amount": "Value of the reward",
          "donor": "Address of the donner"
        }
      },
      "RewardStakedPartial(address,uint256,uint256)": {
        "params": {
          "amount": "Value of the reward",
          "donor": "Address of the donner",
          "lastRewardPeriod": "Number of the last reward period for witch tha stake was made"
        }
      },
      "StakingDonationRatioUpdated(uint256,uint256)": {
        "params": {
          "newStakingDonationRatio": "New stakingDonationRatio value",
          "oldStakingDonationRatio": "Old stakingDonationRatio value"
        }
      },
      "StakingUpdated(address,address)": {
        "params": {
          "newStaking": "New staking address",
          "oldStaking": "Old staking address"
        }
      },
      "TransferERC20(address,address,uint256)": {
        "params": {
          "amount": "Amount of the transaction",
          "to": "Address of the receiver",
          "token": "ERC20 token address"
        }
      },
      "TreasuryUpdated(address,address)": {
        "params": {
          "newTreasury": "New treasury address",
          "oldTreasury": "Old treasury address"
        }
      }
    },
    "kind": "dev",
    "methods": {
      "apr(address)": {
        "params": {
          "_stakeholderAddress": "address of the stakeHolder"
        },
        "returns": {
          "_0": "uint256 APR of the user"
        }
      },
      "calculateClaimableRewards(address)": {
        "params": {
          "_donorAddress": "address of the donor"
        },
        "returns": {
          "_0": "claimAmount uint256 sum of all donor's rewards that has not been claimed until _lastPeriodNumber"
        }
      },
      "calculateClaimableRewardsByPeriodNumber(address,uint256)": {
        "params": {
          "_donorAddress": "address of the donor",
          "_lastPeriodNumber": "last reward period number to be computed"
        },
        "returns": {
          "_0": "uint256 sum of all donor's rewards that has not been claimed until _lastPeriodNumber"
        }
      },
      "donate(address,uint256,address)": {
        "params": {
          "_amount": "Amount of cUSD tokens to deposit.",
          "_delegateAddress": "the address that will claim the reward for the donation",
          "_token": "address of the token"
        }
      },
      "donateToCommunity(address,address,uint256,address)": {
        "details": "Transfers tokens to the community contract",
        "params": {
          "_amount": "amount of cUSD tokens to deposit",
          "_community": "address of the community",
          "_delegateAddress": "the address that will claim the reward for the donation",
          "_token": "address of the token"
        }
      },
      "donorRewardPeriod(address,uint256)": {
        "params": {
          "_donor": "address of the donor",
          "_rewardPeriodIndex": "index of the reward period"
        },
        "returns": {
          "_0": "uint256 number of the reward period"
        }
      },
      "donorScore(address)": {
        "details": "Calculate the score of a user based as this ratio (his donation and staking) / (all donation and staking) E.G. score = 0.01 * 1e18 => the donor have have 1% score      so he will get 1% of the reward",
        "params": {
          "_donorAddress": "address of the donor"
        },
        "returns": {
          "_0": "uint256    donor's score"
        }
      },
      "estimateClaimableReward(address)": {
        "params": {
          "_donorAddress": "address of the donor"
        },
        "returns": {
          "_0": "uint256 reward that donor will receive in current reward period if there isn't another donation"
        }
      },
      "estimateClaimableRewardAdvance(address)": {
        "params": {
          "_donorAddress": "address of the donor"
        },
        "returns": {
          "_0": "uint256 reward that donor will receive in current reward period if there isn't another donation"
        }
      },
      "estimateClaimableRewardByStaking(address)": {
        "returns": {
          "_0": "uint256 estimated reward by donor stakes"
        }
      },
      "generalApr()": {
        "returns": {
          "_0": "uint256 APR"
        }
      },
      "initialize(address,address,address,uint256,uint256,uint256,uint256,uint256)": {
        "params": {
          "_PACT": "Address of the PACT Token",
          "_cUSD": "Address of the cUSD token",
          "_decayDenominator": "Decay denominator used for calculating the new reward per block based on the previous reward per block",
          "_decayNumerator": "Decay numerator used for calculating the new reward per block based on the previous reward per block",
          "_firstRewardPerBlock": "Number of PACTs given for each block                              from the first reward period",
          "_rewardPeriodSize": "Number of blocks of the reward period",
          "_startingBlock": "First block of the first reward period",
          "_treasury": "Address of the Treasury"
        }
      },
      "lastPeriodsDonations(address)": {
        "details": "Calculate all donations on the last X epochs as well as everyone else in the same period.",
        "params": {
          "_donorAddress": "address of the donor"
        },
        "returns": {
          "donorAmount": "uint256    sum of donor's donations",
          "totalAmount": "uint256    sum of all donations"
        }
      },
      "owner()": {
        "details": "Returns the address of the current owner."
      },
      "paused()": {
        "details": "Returns true if the contract is paused, and false otherwise."
      },
      "renounceOwnership()": {
        "details": "Leaves the contract without owner. It will not be possible to call `onlyOwner` functions anymore. Can only be called by the current owner. NOTE: Renouncing ownership will leave the contract without an owner, thereby removing any functionality that is only available to the owner."
      },
      "rewardPeriodDonorAmount(uint256,address)": {
        "params": {
          "_donor": "address of the donor",
          "_period": "number of the reward period"
        },
        "returns": {
          "_0": "uint256 amount of cUSD donated by the user in this reward period"
        }
      },
      "rewardPeriodDonorStakeAmounts(uint256,address)": {
        "params": {
          "_donor": "address of the donor",
          "_period": "reward period number"
        },
        "returns": {
          "_0": "uint256 amount of PACT staked by a user at the and of the reward period"
        }
      },
      "transfer(address,address,uint256)": {
        "params": {
          "_amount": "amount of the transaction",
          "_to": "address of the receiver",
          "_token": "address of the ERC20 token"
        }
      },
      "transferOwnership(address)": {
        "details": "Transfers ownership of the contract to a new account (`newOwner`). Can only be called by the current owner."
      },
      "updateAgainstPeriods(uint256)": {
        "params": {
          "_newAgainstPeriods": "Number of reward periods for the backward computation"
        }
      },
      "updateClaimDelay(uint256)": {
        "params": {
          "_newClaimDelay": "Number of reward periods a donor has to wait after                            a donation until he will be able to claim his reward"
        }
      },
      "updateCommunityDonationRatio(uint256)": {
        "params": {
          "_newCommunityDonationRatio": "Ratio between 1USD donated into the treasury vs 1USD donated to a community"
        }
      },
      "updateRewardPeriodParams(uint256,uint256,uint256)": {
        "params": {
          "_newDecayDenominator": "value of new decayDenominator",
          "_newDecayNumerator": "value of new decayNumerator",
          "_newRewardPeriodSize": "value of new rewardPeriodSize"
        }
      },
      "updateStaking(address)": {
        "params": {
          "_newStaking": "address of new Staking contract"
        }
      },
      "updateStakingDonationRatio(uint256)": {
        "params": {
          "_newStakingDonationRatio": "Number of tokens that need to be staked to be counted as 1 PACT donated"
        }
      },
      "updateTreasury(address)": {
        "params": {
          "_newTreasury": "address of new treasury_ contract"
        }
      }
    },
    "version": 1
  },
  "userdoc": {
    "events": {
      "AgainstPeriodsUpdated(uint256,uint256)": {
        "notice": "Triggered when the againstPeriods value has been updated"
      },
      "ClaimDelayUpdated(uint256,uint256)": {
        "notice": "Triggered when the claimDelay value has been updated"
      },
      "CommunityDonationRatioUpdated(uint256,uint256)": {
        "notice": "Triggered when the communityDonationRatio value has been updated"
      },
      "DonationAdded(uint256,address,uint256,address,uint256,address)": {
        "notice": "Triggered when a donation has been added"
      },
      "RewardClaimed(address,uint256)": {
        "notice": "Triggered when a donor has claimed his reward"
      },
      "RewardClaimedPartial(address,uint256,uint256)": {
        "notice": "Triggered when a donor has claimed his reward"
      },
      "RewardPeriodParamsUpdated(uint256,uint256,uint256,uint256,uint256,uint256)": {
        "notice": "Triggered when reward period params have been updated"
      },
      "RewardStaked(address,uint256)": {
        "notice": "Triggered when a donor has staked his reward"
      },
      "RewardStakedPartial(address,uint256,uint256)": {
        "notice": "Triggered when a donor has staked his reward"
      },
      "StakingDonationRatioUpdated(uint256,uint256)": {
        "notice": "Triggered when the stakingDonationRatio value has been updated"
      },
      "StakingUpdated(address,address)": {
        "notice": "Triggered when the staking address has been updated"
      },
      "TransferERC20(address,address,uint256)": {
        "notice": "Triggered when an amount of an ERC20 has been transferred from this contract to an address"
      },
      "TreasuryUpdated(address,address)": {
        "notice": "Triggered when the treasury address has been updated"
      }
    },
    "kind": "user",
    "methods": {
      "apr(address)": {
        "notice": "Calculates the APR of a user based on his staking"
      },
      "calculateClaimableRewards(address)": {
        "notice": "Calculates the rewards from ended reward periods of a donor"
      },
      "calculateClaimableRewardsByPeriodNumber(address,uint256)": {
        "notice": "Calculates the rewards from ended reward periods of a donor"
      },
      "claimRewards()": {
        "notice": "Transfers to the sender the rewards"
      },
      "claimRewardsPartial(uint256)": {
        "notice": "Transfers to the sender the rewards"
      },
      "donate(address,uint256,address)": {
        "notice": "Transfers cUSD tokens to the treasury contract"
      },
      "donorRewardPeriod(address,uint256)": {
        "notice": "Returns a reward period number from a donor reward period list"
      },
      "estimateClaimableReward(address)": {
        "notice": "Calculates the estimate reward of a donor for current reward period"
      },
      "estimateClaimableRewardAdvance(address)": {
        "notice": "Calculates the estimate reward of a donor for the next x reward periods"
      },
      "estimateClaimableRewardByStaking(address)": {
        "notice": "Calculates the estimate reward of a donor for current reward period based on his staking"
      },
      "generalApr()": {
        "notice": "Calculates the APR"
      },
      "getVersion()": {
        "notice": "Returns the current implementation version"
      },
      "initialize(address,address,address,uint256,uint256,uint256,uint256,uint256)": {
        "notice": "Used to initialize a new DonationMiner contract"
      },
      "rewardPeriodDonorAmount(uint256,address)": {
        "notice": "Returns the amount of cUSD donated by a user in a reward period"
      },
      "rewardPeriodDonorStakeAmounts(uint256,address)": {
        "notice": "Returns the amount of PACT staked by a user at the and of the reward period"
      },
      "stakeRewards()": {
        "notice": "Stakes the reward"
      },
      "stakeRewardsPartial(uint256)": {
        "notice": "Stakes the reward"
      },
      "transfer(address,address,uint256)": {
        "notice": "Transfers an amount of an ERC20 from this contract to an address"
      },
      "updateAgainstPeriods(uint256)": {
        "notice": "Updates againstPeriods value"
      },
      "updateClaimDelay(uint256)": {
        "notice": "Updates claimDelay value"
      },
      "updateCommunityDonationRatio(uint256)": {
        "notice": "Updates communityDonationRatio value"
      },
      "updateRewardPeriodParams(uint256,uint256,uint256)": {
        "notice": "Updates reward period default params"
      },
      "updateStaking(address)": {
        "notice": "Updates Staking address"
      },
      "updateStakingDonationRatio(uint256)": {
        "notice": "Updates stakingDonationRatio value"
      },
      "updateTreasury(address)": {
        "notice": "Updates Treasury address"
      }
    },
    "version": 1
  },
  "storageLayout": {
    "storage": [
      {
        "astId": 542,
        "contract": "contracts/donationMiner/DonationMinerImplementation.sol:DonationMinerImplementation",
        "label": "_initialized",
        "offset": 0,
        "slot": "0",
        "type": "t_bool"
      },
      {
        "astId": 545,
        "contract": "contracts/donationMiner/DonationMinerImplementation.sol:DonationMinerImplementation",
        "label": "_initializing",
        "offset": 1,
        "slot": "0",
        "type": "t_bool"
      },
      {
        "astId": 1370,
        "contract": "contracts/donationMiner/DonationMinerImplementation.sol:DonationMinerImplementation",
        "label": "__gap",
        "offset": 0,
        "slot": "1",
        "type": "t_array(t_uint256)50_storage"
      },
      {
        "astId": 420,
        "contract": "contracts/donationMiner/DonationMinerImplementation.sol:DonationMinerImplementation",
        "label": "_owner",
        "offset": 0,
        "slot": "51",
        "type": "t_address"
      },
      {
        "astId": 534,
        "contract": "contracts/donationMiner/DonationMinerImplementation.sol:DonationMinerImplementation",
        "label": "__gap",
        "offset": 0,
        "slot": "52",
        "type": "t_array(t_uint256)49_storage"
      },
      {
        "astId": 630,
        "contract": "contracts/donationMiner/DonationMinerImplementation.sol:DonationMinerImplementation",
        "label": "_paused",
        "offset": 0,
        "slot": "101",
        "type": "t_bool"
      },
      {
        "astId": 721,
        "contract": "contracts/donationMiner/DonationMinerImplementation.sol:DonationMinerImplementation",
        "label": "__gap",
        "offset": 0,
        "slot": "102",
        "type": "t_array(t_uint256)49_storage"
      },
      {
        "astId": 736,
        "contract": "contracts/donationMiner/DonationMinerImplementation.sol:DonationMinerImplementation",
        "label": "_status",
        "offset": 0,
        "slot": "151",
        "type": "t_uint256"
      },
      {
        "astId": 779,
        "contract": "contracts/donationMiner/DonationMinerImplementation.sol:DonationMinerImplementation",
        "label": "__gap",
        "offset": 0,
        "slot": "152",
        "type": "t_array(t_uint256)49_storage"
      },
      {
        "astId": 17435,
        "contract": "contracts/donationMiner/DonationMinerImplementation.sol:DonationMinerImplementation",
        "label": "cUSD",
        "offset": 0,
        "slot": "201",
        "type": "t_contract(IERC20Upgradeable)858"
      },
      {
        "astId": 17439,
        "contract": "contracts/donationMiner/DonationMinerImplementation.sol:DonationMinerImplementation",
        "label": "PACT",
        "offset": 0,
        "slot": "202",
        "type": "t_contract(IERC20Upgradeable)858"
      },
      {
        "astId": 17443,
        "contract": "contracts/donationMiner/DonationMinerImplementation.sol:DonationMinerImplementation",
        "label": "treasury",
        "offset": 0,
        "slot": "203",
        "type": "t_contract(ITreasury)35138"
      },
      {
        "astId": 17446,
        "contract": "contracts/donationMiner/DonationMinerImplementation.sol:DonationMinerImplementation",
        "label": "rewardPeriodSize",
        "offset": 0,
        "slot": "204",
        "type": "t_uint256"
      },
      {
        "astId": 17449,
        "contract": "contracts/donationMiner/DonationMinerImplementation.sol:DonationMinerImplementation",
        "label": "donationCount",
        "offset": 0,
        "slot": "205",
        "type": "t_uint256"
      },
      {
        "astId": 17452,
        "contract": "contracts/donationMiner/DonationMinerImplementation.sol:DonationMinerImplementation",
        "label": "rewardPeriodCount",
        "offset": 0,
        "slot": "206",
        "type": "t_uint256"
      },
      {
        "astId": 17455,
        "contract": "contracts/donationMiner/DonationMinerImplementation.sol:DonationMinerImplementation",
        "label": "decayNumerator",
        "offset": 0,
        "slot": "207",
        "type": "t_uint256"
      },
      {
        "astId": 17458,
        "contract": "contracts/donationMiner/DonationMinerImplementation.sol:DonationMinerImplementation",
        "label": "decayDenominator",
        "offset": 0,
        "slot": "208",
        "type": "t_uint256"
      },
      {
        "astId": 17464,
        "contract": "contracts/donationMiner/DonationMinerImplementation.sol:DonationMinerImplementation",
        "label": "donations",
        "offset": 0,
        "slot": "209",
        "type": "t_mapping(t_uint256,t_struct(Donation)17578_storage)"
      },
      {
        "astId": 17470,
        "contract": "contracts/donationMiner/DonationMinerImplementation.sol:DonationMinerImplementation",
        "label": "rewardPeriods",
        "offset": 0,
        "slot": "210",
        "type": "t_mapping(t_uint256,t_struct(RewardPeriod)17551_storage)"
      },
      {
        "astId": 17476,
        "contract": "contracts/donationMiner/DonationMinerImplementation.sol:DonationMinerImplementation",
        "label": "donors",
        "offset": 0,
        "slot": "211",
        "type": "t_mapping(t_address,t_struct(Donor)17562_storage)"
      },
      {
        "astId": 17486,
        "contract": "contracts/donationMiner/DonationMinerImplementation.sol:DonationMinerImplementation",
        "label": "claimDelay",
        "offset": 0,
        "slot": "212",
        "type": "t_uint256"
      },
      {
        "astId": 17496,
        "contract": "contracts/donationMiner/DonationMinerImplementation.sol:DonationMinerImplementation",
        "label": "againstPeriods",
        "offset": 0,
        "slot": "213",
        "type": "t_uint256"
      },
      {
        "astId": 17507,
        "contract": "contracts/donationMiner/DonationMinerImplementation.sol:DonationMinerImplementation",
        "label": "staking",
        "offset": 0,
        "slot": "214",
        "type": "t_contract(IStaking)32343"
      },
      {
        "astId": 17510,
        "contract": "contracts/donationMiner/DonationMinerImplementation.sol:DonationMinerImplementation",
        "label": "stakingDonationRatio",
        "offset": 0,
        "slot": "215",
        "type": "t_uint256"
      },
      {
        "astId": 17513,
        "contract": "contracts/donationMiner/DonationMinerImplementation.sol:DonationMinerImplementation",
        "label": "communityDonationRatio",
        "offset": 0,
        "slot": "216",
        "type": "t_uint256"
      }
    ],
    "types": {
      "t_address": {
        "encoding": "inplace",
        "label": "address",
        "numberOfBytes": "20"
      },
      "t_array(t_uint256)49_storage": {
        "base": "t_uint256",
        "encoding": "inplace",
        "label": "uint256[49]",
        "numberOfBytes": "1568"
      },
      "t_array(t_uint256)50_storage": {
        "base": "t_uint256",
        "encoding": "inplace",
        "label": "uint256[50]",
        "numberOfBytes": "1600"
      },
      "t_bool": {
        "encoding": "inplace",
        "label": "bool",
        "numberOfBytes": "1"
      },
      "t_contract(IERC20Upgradeable)858": {
        "encoding": "inplace",
        "label": "contract IERC20Upgradeable",
        "numberOfBytes": "20"
      },
      "t_contract(IStaking)32343": {
        "encoding": "inplace",
        "label": "contract IStaking",
        "numberOfBytes": "20"
      },
      "t_contract(ITreasury)35138": {
        "encoding": "inplace",
        "label": "contract ITreasury",
        "numberOfBytes": "20"
      },
      "t_mapping(t_address,t_bool)": {
        "encoding": "mapping",
        "key": "t_address",
        "label": "mapping(address => bool)",
        "numberOfBytes": "32",
        "value": "t_bool"
      },
      "t_mapping(t_address,t_struct(Donor)17562_storage)": {
        "encoding": "mapping",
        "key": "t_address",
        "label": "mapping(address => struct IDonationMiner.Donor)",
        "numberOfBytes": "32",
        "value": "t_struct(Donor)17562_storage"
      },
      "t_mapping(t_address,t_uint256)": {
        "encoding": "mapping",
        "key": "t_address",
        "label": "mapping(address => uint256)",
        "numberOfBytes": "32",
        "value": "t_uint256"
      },
      "t_mapping(t_uint256,t_struct(Donation)17578_storage)": {
        "encoding": "mapping",
        "key": "t_uint256",
        "label": "mapping(uint256 => struct IDonationMiner.Donation)",
        "numberOfBytes": "32",
        "value": "t_struct(Donation)17578_storage"
      },
      "t_mapping(t_uint256,t_struct(RewardPeriod)17551_storage)": {
        "encoding": "mapping",
        "key": "t_uint256",
        "label": "mapping(uint256 => struct IDonationMiner.RewardPeriod)",
        "numberOfBytes": "32",
        "value": "t_struct(RewardPeriod)17551_storage"
      },
      "t_mapping(t_uint256,t_uint256)": {
        "encoding": "mapping",
        "key": "t_uint256",
        "label": "mapping(uint256 => uint256)",
        "numberOfBytes": "32",
        "value": "t_uint256"
      },
      "t_struct(Donation)17578_storage": {
        "encoding": "inplace",
        "label": "struct IDonationMiner.Donation",
        "members": [
          {
            "astId": 17564,
            "contract": "contracts/donationMiner/DonationMinerImplementation.sol:DonationMinerImplementation",
            "label": "donor",
            "offset": 0,
            "slot": "0",
            "type": "t_address"
          },
          {
            "astId": 17566,
            "contract": "contracts/donationMiner/DonationMinerImplementation.sol:DonationMinerImplementation",
            "label": "target",
            "offset": 0,
            "slot": "1",
            "type": "t_address"
          },
          {
            "astId": 17568,
            "contract": "contracts/donationMiner/DonationMinerImplementation.sol:DonationMinerImplementation",
            "label": "rewardPeriod",
            "offset": 0,
            "slot": "2",
            "type": "t_uint256"
          },
          {
            "astId": 17570,
            "contract": "contracts/donationMiner/DonationMinerImplementation.sol:DonationMinerImplementation",
            "label": "blockNumber",
            "offset": 0,
            "slot": "3",
            "type": "t_uint256"
          },
          {
            "astId": 17572,
            "contract": "contracts/donationMiner/DonationMinerImplementation.sol:DonationMinerImplementation",
            "label": "amount",
            "offset": 0,
            "slot": "4",
            "type": "t_uint256"
          },
          {
            "astId": 17575,
            "contract": "contracts/donationMiner/DonationMinerImplementation.sol:DonationMinerImplementation",
            "label": "token",
            "offset": 0,
            "slot": "5",
            "type": "t_contract(IERC20Upgradeable)858"
          },
          {
            "astId": 17577,
            "contract": "contracts/donationMiner/DonationMinerImplementation.sol:DonationMinerImplementation",
            "label": "initialAmount",
            "offset": 0,
            "slot": "6",
            "type": "t_uint256"
          }
        ],
        "numberOfBytes": "224"
      },
      "t_struct(Donor)17562_storage": {
        "encoding": "inplace",
        "label": "struct IDonationMiner.Donor",
        "members": [
          {
            "astId": 17553,
            "contract": "contracts/donationMiner/DonationMinerImplementation.sol:DonationMinerImplementation",
            "label": "lastClaim",
            "offset": 0,
            "slot": "0",
            "type": "t_uint256"
          },
          {
            "astId": 17555,
            "contract": "contracts/donationMiner/DonationMinerImplementation.sol:DonationMinerImplementation",
            "label": "rewardPeriodsCount",
            "offset": 0,
            "slot": "1",
            "type": "t_uint256"
          },
          {
            "astId": 17559,
            "contract": "contracts/donationMiner/DonationMinerImplementation.sol:DonationMinerImplementation",
            "label": "rewardPeriods",
            "offset": 0,
            "slot": "2",
            "type": "t_mapping(t_uint256,t_uint256)"
          },
          {
            "astId": 17561,
            "contract": "contracts/donationMiner/DonationMinerImplementation.sol:DonationMinerImplementation",
            "label": "lastClaimPeriod",
            "offset": 0,
            "slot": "3",
            "type": "t_uint256"
          }
        ],
        "numberOfBytes": "128"
      },
      "t_struct(RewardPeriod)17551_storage": {
        "encoding": "inplace",
        "label": "struct IDonationMiner.RewardPeriod",
        "members": [
          {
            "astId": 17524,
            "contract": "contracts/donationMiner/DonationMinerImplementation.sol:DonationMinerImplementation",
            "label": "rewardPerBlock",
            "offset": 0,
            "slot": "0",
            "type": "t_uint256"
          },
          {
            "astId": 17526,
            "contract": "contracts/donationMiner/DonationMinerImplementation.sol:DonationMinerImplementation",
            "label": "rewardAmount",
            "offset": 0,
            "slot": "1",
            "type": "t_uint256"
          },
          {
            "astId": 17528,
            "contract": "contracts/donationMiner/DonationMinerImplementation.sol:DonationMinerImplementation",
            "label": "startBlock",
            "offset": 0,
            "slot": "2",
            "type": "t_uint256"
          },
          {
            "astId": 17530,
            "contract": "contracts/donationMiner/DonationMinerImplementation.sol:DonationMinerImplementation",
            "label": "endBlock",
            "offset": 0,
            "slot": "3",
            "type": "t_uint256"
          },
          {
            "astId": 17532,
            "contract": "contracts/donationMiner/DonationMinerImplementation.sol:DonationMinerImplementation",
            "label": "donationsAmount",
            "offset": 0,
            "slot": "4",
            "type": "t_uint256"
          },
          {
            "astId": 17536,
            "contract": "contracts/donationMiner/DonationMinerImplementation.sol:DonationMinerImplementation",
            "label": "donorAmounts",
            "offset": 0,
            "slot": "5",
            "type": "t_mapping(t_address,t_uint256)"
          },
          {
            "astId": 17538,
            "contract": "contracts/donationMiner/DonationMinerImplementation.sol:DonationMinerImplementation",
            "label": "againstPeriods",
            "offset": 0,
            "slot": "6",
            "type": "t_uint256"
          },
          {
            "astId": 17540,
            "contract": "contracts/donationMiner/DonationMinerImplementation.sol:DonationMinerImplementation",
            "label": "stakesAmount",
            "offset": 0,
            "slot": "7",
            "type": "t_uint256"
          },
          {
            "astId": 17542,
            "contract": "contracts/donationMiner/DonationMinerImplementation.sol:DonationMinerImplementation",
            "label": "stakingDonationRatio",
            "offset": 0,
            "slot": "8",
            "type": "t_uint256"
          },
          {
            "astId": 17546,
            "contract": "contracts/donationMiner/DonationMinerImplementation.sol:DonationMinerImplementation",
            "label": "hasSetStakeAmount",
            "offset": 0,
            "slot": "9",
            "type": "t_mapping(t_address,t_bool)"
          },
          {
            "astId": 17550,
            "contract": "contracts/donationMiner/DonationMinerImplementation.sol:DonationMinerImplementation",
            "label": "donorStakeAmounts",
            "offset": 0,
            "slot": "10",
            "type": "t_mapping(t_address,t_uint256)"
          }
        ],
        "numberOfBytes": "352"
      },
      "t_uint256": {
        "encoding": "inplace",
        "label": "uint256",
        "numberOfBytes": "32"
      }
    }
  }
}