{
  "address": "0xb6f368d102Fb26D7868e420505d530b10efAd0B0",
  "abi": [
    {
      "anonymous": false,
      "inputs": [
        {
          "indexed": true,
          "internalType": "address",
          "name": "donor",
          "type": "address"
        },
        {
          "indexed": false,
          "internalType": "uint256",
          "name": "amount",
          "type": "uint256"
        }
      ],
      "name": "DonationAdded",
      "type": "event"
    },
    {
      "anonymous": false,
      "inputs": [
        {
          "indexed": true,
          "internalType": "address",
          "name": "previousOwner",
          "type": "address"
        },
        {
          "indexed": true,
          "internalType": "address",
          "name": "newOwner",
          "type": "address"
        }
      ],
      "name": "OwnershipTransferred",
      "type": "event"
    },
    {
      "anonymous": false,
      "inputs": [
        {
          "indexed": false,
          "internalType": "address",
          "name": "account",
          "type": "address"
        }
      ],
      "name": "Paused",
      "type": "event"
    },
    {
      "anonymous": false,
      "inputs": [
        {
          "indexed": true,
          "internalType": "address",
          "name": "donor",
          "type": "address"
        },
        {
          "indexed": false,
          "internalType": "uint256",
          "name": "amount",
          "type": "uint256"
        }
      ],
      "name": "RewardClaimed",
      "type": "event"
    },
    {
      "anonymous": false,
      "inputs": [
        {
          "indexed": false,
          "internalType": "address",
          "name": "account",
          "type": "address"
        }
      ],
      "name": "Unpaused",
      "type": "event"
    },
    {
      "inputs": [],
      "name": "IPCT",
      "outputs": [
        {
          "internalType": "contract IERC20",
          "name": "",
          "type": "address"
        }
      ],
      "stateMutability": "view",
      "type": "function"
    },
    {
      "inputs": [],
      "name": "cUSD",
      "outputs": [
        {
          "internalType": "contract IERC20",
          "name": "",
          "type": "address"
        }
      ],
      "stateMutability": "view",
      "type": "function"
    },
    {
      "inputs": [
        {
          "internalType": "address",
          "name": "donor_",
          "type": "address"
        }
      ],
      "name": "calculateClaimableRewards",
      "outputs": [
        {
          "internalType": "uint256",
          "name": "",
          "type": "uint256"
        }
      ],
      "stateMutability": "nonpayable",
      "type": "function"
    },
    {
      "inputs": [],
      "name": "claimRewards",
      "outputs": [],
      "stateMutability": "nonpayable",
      "type": "function"
    },
    {
      "inputs": [
        {
          "internalType": "uint256",
          "name": "amount_",
          "type": "uint256"
        }
      ],
      "name": "donate",
      "outputs": [],
      "stateMutability": "nonpayable",
      "type": "function"
    },
    {
      "inputs": [
        {
          "internalType": "contract ICommunity",
          "name": "community_",
          "type": "address"
        },
        {
          "internalType": "uint256",
          "name": "amount_",
          "type": "uint256"
        }
      ],
      "name": "donateToCommunity",
      "outputs": [],
      "stateMutability": "nonpayable",
      "type": "function"
    },
    {
      "inputs": [
        {
          "internalType": "address",
          "name": "donor",
          "type": "address"
        },
        {
          "internalType": "uint256",
          "name": "donationId",
          "type": "uint256"
        }
      ],
      "name": "donations",
      "outputs": [
        {
          "internalType": "uint256",
          "name": "rewardPeriodNumber",
          "type": "uint256"
        },
        {
          "internalType": "uint256",
          "name": "amount",
          "type": "uint256"
        }
      ],
      "stateMutability": "view",
      "type": "function"
    },
    {
      "inputs": [
        {
          "internalType": "address",
          "name": "donor",
          "type": "address"
        }
      ],
      "name": "donors",
      "outputs": [
        {
          "internalType": "uint256",
          "name": "rewardPeriodsCount",
          "type": "uint256"
        },
        {
          "internalType": "uint256",
          "name": "lastClaim",
          "type": "uint256"
        }
      ],
      "stateMutability": "view",
      "type": "function"
    },
    {
      "inputs": [
        {
          "internalType": "address",
          "name": "donor_",
          "type": "address"
        }
      ],
      "name": "estimateClaimableReward",
      "outputs": [
        {
          "internalType": "uint256",
          "name": "",
          "type": "uint256"
        }
      ],
      "stateMutability": "view",
      "type": "function"
    },
    {
      "inputs": [
        {
          "internalType": "contract IERC20",
          "name": "cUSD_",
          "type": "address"
        },
        {
          "internalType": "contract IERC20",
          "name": "IPCT_",
          "type": "address"
        },
        {
          "internalType": "contract ITreasury",
          "name": "treasury_",
          "type": "address"
        },
        {
          "internalType": "uint256",
          "name": "rewardPerBlock_",
          "type": "uint256"
        },
        {
          "internalType": "uint256",
          "name": "rewardPeriodSize_",
          "type": "uint256"
        },
        {
          "internalType": "uint256",
          "name": "startingBlock_",
          "type": "uint256"
        }
      ],
      "name": "initialize",
      "outputs": [],
      "stateMutability": "nonpayable",
      "type": "function"
    },
    {
      "inputs": [],
      "name": "owner",
      "outputs": [
        {
          "internalType": "address",
          "name": "",
          "type": "address"
        }
      ],
      "stateMutability": "view",
      "type": "function"
    },
    {
      "inputs": [],
      "name": "paused",
      "outputs": [
        {
          "internalType": "bool",
          "name": "",
          "type": "bool"
        }
      ],
      "stateMutability": "view",
      "type": "function"
    },
    {
      "inputs": [],
      "name": "renounceOwnership",
      "outputs": [],
      "stateMutability": "nonpayable",
      "type": "function"
    },
    {
      "inputs": [],
      "name": "rewardPerBlock",
      "outputs": [
        {
          "internalType": "uint256",
          "name": "",
          "type": "uint256"
        }
      ],
      "stateMutability": "view",
      "type": "function"
    },
    {
      "inputs": [],
      "name": "rewardPeriodCount",
      "outputs": [
        {
          "internalType": "uint256",
          "name": "",
          "type": "uint256"
        }
      ],
      "stateMutability": "view",
      "type": "function"
    },
    {
      "inputs": [
        {
          "internalType": "uint256",
          "name": "period",
          "type": "uint256"
        },
        {
          "internalType": "address",
          "name": "donor",
          "type": "address"
        }
      ],
      "name": "rewardPeriodDonations",
      "outputs": [
        {
          "internalType": "uint256",
          "name": "",
          "type": "uint256"
        }
      ],
      "stateMutability": "view",
      "type": "function"
    },
    {
      "inputs": [],
      "name": "rewardPeriodSize",
      "outputs": [
        {
          "internalType": "uint256",
          "name": "",
          "type": "uint256"
        }
      ],
      "stateMutability": "view",
      "type": "function"
    },
    {
      "inputs": [
        {
          "internalType": "uint256",
          "name": "period",
          "type": "uint256"
        }
      ],
      "name": "rewardPeriods",
      "outputs": [
        {
          "internalType": "uint256",
          "name": "reward",
          "type": "uint256"
        },
        {
          "internalType": "uint256",
          "name": "bonusReward",
          "type": "uint256"
        },
        {
          "internalType": "uint256",
          "name": "startBlock",
          "type": "uint256"
        },
        {
          "internalType": "uint256",
          "name": "endBlock",
          "type": "uint256"
        },
        {
          "internalType": "uint256",
          "name": "donationsAmount",
          "type": "uint256"
        }
      ],
      "stateMutability": "view",
      "type": "function"
    },
    {
      "inputs": [
        {
          "internalType": "uint256",
          "name": "rewardPeriodSize_",
          "type": "uint256"
        }
      ],
      "name": "setRewardPeriodSize",
      "outputs": [],
      "stateMutability": "nonpayable",
      "type": "function"
    },
    {
      "inputs": [],
      "name": "startingBlock",
      "outputs": [
        {
          "internalType": "uint256",
          "name": "",
          "type": "uint256"
        }
      ],
      "stateMutability": "view",
      "type": "function"
    },
    {
      "inputs": [
        {
          "internalType": "address",
          "name": "newOwner",
          "type": "address"
        }
      ],
      "name": "transferOwnership",
      "outputs": [],
      "stateMutability": "nonpayable",
      "type": "function"
    },
    {
      "inputs": [],
      "name": "treasury",
      "outputs": [
        {
          "internalType": "contract ITreasury",
          "name": "",
          "type": "address"
        }
      ],
      "stateMutability": "view",
      "type": "function"
    }
  ],
  "transactionHash": "0x0bf06abda05db1d58a2aa15c978eb58cc1216c7684f1ece576b86ae8e619b27c",
  "args": [],
  "solcInputHash": "c65e0410550cacd59d73fa811b193a16",
  "bytecode": "0x608060405234801561001057600080fd5b50613672806100206000396000f3fe608060405234801561001057600080fd5b50600436106101425760003560e01c806395086ed1116100b8578063cd75000c1161007c578063cd75000c14610359578063d91c98d314610389578063ed409ff3146103a7578063f14faf6f146103c5578063f2fde38b146103e1578063f5698df6146103fd57610142565b806395086ed11461028d578063c38474c0146102be578063c478e8c4146102dc578063c89d1a8e146102f8578063ca0cdea81461032857610142565b8063715018a61161010a578063715018a6146101db578063728cdbca146101e55780637c62b1af146102015780638252097d1461021d5780638ae39cac146102515780638da5cb5b1461026f57610142565b806302f9b534146101475780631fccf67214610177578063372500ab146101955780635c975abb1461019f57806361d027b3146101bd575b600080fd5b610161600480360381019061015c9190612734565b61041b565b60405161016e9190612d5e565b60405180910390f35b61017f610479565b60405161018c9190612b06565b60405180910390f35b61019d6104a2565b005b6101a761077c565b6040516101b49190612aeb565b60405180910390f35b6101c5610793565b6040516101d29190612b21565b60405180910390f35b6101e36107bd565b005b6101ff60048036038101906101fa9190612620565b610845565b005b61021b600480360381019061021691906125e0565b610c17565b005b610237600480360381019061023291906126da565b610f10565b604051610248959493929190612da2565b60405180910390f35b610259610f9e565b6040516102669190612d5e565b60405180910390f35b610277610fa8565b6040516102849190612a70565b60405180910390f35b6102a760048036038101906102a29190612546565b610fd2565b6040516102b5929190612d79565b60405180910390f35b6102c6611088565b6040516102d39190612d5e565b60405180910390f35b6102f660048036038101906102f191906126da565b611092565b005b610312600480360381019061030d9190612519565b611118565b60405161031f9190612d5e565b60405180910390f35b610342600480360381019061033d9190612519565b611254565b604051610350929190612d79565b60405180910390f35b610373600480360381019061036e9190612519565b6112e6565b6040516103809190612d5e565b60405180910390f35b610391611423565b60405161039e9190612d5e565b60405180910390f35b6103af61142d565b6040516103bc9190612d5e565b60405180910390f35b6103df60048036038101906103da91906126da565b611437565b005b6103fb60048036038101906103f69190612519565b61159d565b005b610405611695565b6040516104129190612b06565b60405180910390f35b60006007600084815260200190815260200160002060050160008373ffffffffffffffffffffffffffffffffffffffff1673ffffffffffffffffffffffffffffffffffffffff16815260200190815260200160002054905092915050565b60008060009054906101000a900473ffffffffffffffffffffffffffffffffffffffff16905090565b6104aa61077c565b156104ea576040517f08c379a00000000000000000000000000000000000000000000000000000000081526004016104e190612bfe565b60405180910390fd5b60045443101561052f576040517f08c379a000000000000000000000000000000000000000000000000000000000815260040161052690612b9e565b60405180910390fd5b600260a0541415610575576040517f08c379a000000000000000000000000000000000000000000000000000000000815260040161056c90612cfe565b60405180910390fd5b600260a0819055506000600860003373ffffffffffffffffffffffffffffffffffffffff1673ffffffffffffffffffffffffffffffffffffffff168152602001908152602001600020905060006105cb336112e6565b90506105d6826116bf565b826000018190555060008111156107225780600160009054906101000a900473ffffffffffffffffffffffffffffffffffffffff1673ffffffffffffffffffffffffffffffffffffffff166370a08231306040518263ffffffff1660e01b81526004016106439190612a70565b60206040518083038186803b15801561065b57600080fd5b505afa15801561066f573d6000803e3d6000fd5b505050506040513d601f19601f820116820180604052508101906106939190612707565b10156106d4576040517f08c379a00000000000000000000000000000000000000000000000000000000081526004016106cb90612d1e565b60405180910390fd5b6107213382600160009054906101000a900473ffffffffffffffffffffffffffffffffffffffff1673ffffffffffffffffffffffffffffffffffffffff166117239092919063ffffffff16565b5b3373ffffffffffffffffffffffffffffffffffffffff167f106f923f993c2149d49b4255ff723acafa1f2d94393f561d3eda32ae348f7241826040516107689190612d5e565b60405180910390a25050600160a081905550565b6000606e60009054906101000a900460ff16905090565b6000600260009054906101000a900473ffffffffffffffffffffffffffffffffffffffff16905090565b6107c56117a9565b73ffffffffffffffffffffffffffffffffffffffff166107e3610fa8565b73ffffffffffffffffffffffffffffffffffffffff1614610839576040517f08c379a000000000000000000000000000000000000000000000000000000000815260040161083090612c3e565b60405180910390fd5b61084360006117b1565b565b600960019054906101000a900460ff168061086d5750600960009054906101000a900460ff16155b6108ac576040517f08c379a00000000000000000000000000000000000000000000000000000000081526004016108a390612c1e565b60405180910390fd5b6000600960019054906101000a900460ff1615905080156108fe576001600960016101000a81548160ff0219169083151502179055506001600960006101000a81548160ff0219169083151502179055505b600073ffffffffffffffffffffffffffffffffffffffff168773ffffffffffffffffffffffffffffffffffffffff16141561096e576040517f08c379a000000000000000000000000000000000000000000000000000000000815260040161096590612c5e565b60405180910390fd5b600073ffffffffffffffffffffffffffffffffffffffff168673ffffffffffffffffffffffffffffffffffffffff1614156109de576040517f08c379a00000000000000000000000000000000000000000000000000000000081526004016109d590612b5e565b60405180910390fd5b600073ffffffffffffffffffffffffffffffffffffffff168573ffffffffffffffffffffffffffffffffffffffff161415610a4e576040517f08c379a0000000000000000000000000000000000000000000000000000000008152600401610a4590612bbe565b60405180910390fd5b6000841415610a92576040517f08c379a0000000000000000000000000000000000000000000000000000000008152600401610a8990612c7e565b60405180910390fd5b6000821415610ad6576040517f08c379a0000000000000000000000000000000000000000000000000000000008152600401610acd90612cde565b60405180910390fd5b610ade611877565b610ae6611965565b610aee611a53565b866000806101000a81548173ffffffffffffffffffffffffffffffffffffffff021916908373ffffffffffffffffffffffffffffffffffffffff16021790555085600160006101000a81548173ffffffffffffffffffffffffffffffffffffffff021916908373ffffffffffffffffffffffffffffffffffffffff16021790555084600260006101000a81548173ffffffffffffffffffffffffffffffffffffffff021916908373ffffffffffffffffffffffffffffffffffffffff160217905550816004819055508260038190555083600581905550600182610bd29190612f08565b60076000808152602001908152602001600020600301819055508015610c0e576000600960016101000a81548160ff0219169083151502179055505b50505050505050565b610c1f61077c565b15610c5f576040517f08c379a0000000000000000000000000000000000000000000000000000000008152600401610c5690612bfe565b60405180910390fd5b600454431015610ca4576040517f08c379a0000000000000000000000000000000000000000000000000000000008152600401610c9b90612b9e565b60405180910390fd5b600260a0541415610cea576040517f08c379a0000000000000000000000000000000000000000000000000000000008152600401610ce190612cfe565b60405180910390fd5b600260a0819055506000600260009054906101000a900473ffffffffffffffffffffffffffffffffffffffff1673ffffffffffffffffffffffffffffffffffffffff16635fac917a6040518163ffffffff1660e01b815260040160206040518083038186803b158015610d5c57600080fd5b505afa158015610d70573d6000803e3d6000fd5b505050506040513d601f19601f82011682018060405250810190610d9491906125b3565b905060016002811115610daa57610da96130ee565b5b8173ffffffffffffffffffffffffffffffffffffffff16637f2813d2856040518263ffffffff1660e01b8152600401610de39190612a70565b60206040518083038186803b158015610dfb57600080fd5b505afa158015610e0f573d6000803e3d6000fd5b505050506040513d601f19601f82011682018060405250810190610e3391906126ad565b6002811115610e4557610e446130ee565b5b14610e85576040517f08c379a0000000000000000000000000000000000000000000000000000000008152600401610e7c90612d3e565b60405180910390fd5b610e8d611b39565b8273ffffffffffffffffffffffffffffffffffffffff1663e69d849d33846040518363ffffffff1660e01b8152600401610ec8929190612ac2565b600060405180830381600087803b158015610ee257600080fd5b505af1158015610ef6573d6000803e3d6000fd5b50505050610f0382611c13565b50600160a0819055505050565b6000806000806000600760008781526020019081526020016000206000015494506007600087815260200190815260200160002060010154935060076000878152602001908152602001600020600201549250600760008781526020019081526020016000206003015491506007600087815260200190815260200160002060040154905091939590929450565b6000600554905090565b6000603c60009054906101000a900473ffffffffffffffffffffffffffffffffffffffff16905090565b600080600860008573ffffffffffffffffffffffffffffffffffffffff1673ffffffffffffffffffffffffffffffffffffffff16815260200190815260200160002060020160008481526020019081526020016000205491506007600083815260200190815260200160002060050160008573ffffffffffffffffffffffffffffffffffffffff1673ffffffffffffffffffffffffffffffffffffffff1681526020019081526020016000205490509250929050565b6000600654905090565b61109a6117a9565b73ffffffffffffffffffffffffffffffffffffffff166110b8610fa8565b73ffffffffffffffffffffffffffffffffffffffff161461110e576040517f08c379a000000000000000000000000000000000000000000000000000000000815260040161110590612c3e565b60405180910390fd5b8060038190555050565b600060045443101561115f576040517f08c379a000000000000000000000000000000000000000000000000000000000815260040161115690612b9e565b60405180910390fd5b61116761077c565b156111a7576040517f08c379a000000000000000000000000000000000000000000000000000000000815260040161119e90612bfe565b60405180910390fd5b6000600760006006548152602001908152602001600020905060004382600301541061124a5781600401548260050160008673ffffffffffffffffffffffffffffffffffffffff1673ffffffffffffffffffffffffffffffffffffffff16815260200190815260200160002054836001015484600001546112289190612e27565b6112329190612eae565b61123c9190612e7d565b816112479190612e27565b90505b8092505050919050565b600080600860008473ffffffffffffffffffffffffffffffffffffffff1673ffffffffffffffffffffffffffffffffffffffff168152602001908152602001600020600101549150600860008473ffffffffffffffffffffffffffffffffffffffff1673ffffffffffffffffffffffffffffffffffffffff168152602001908152602001600020600001549050915091565b600080600860008473ffffffffffffffffffffffffffffffffffffffff1673ffffffffffffffffffffffffffffffffffffffff16815260200190815260200160002090506000806000611338846116bf565b905060006001856000015461134d9190612e27565b90505b81811161141657846002016000828152602001908152602001600020549250600060076000858152602001908152602001600020905080600401548160050160003373ffffffffffffffffffffffffffffffffffffffff1673ffffffffffffffffffffffffffffffffffffffff16815260200190815260200160002054826001015483600001546113e19190612e27565b6113eb9190612eae565b6113f59190612e7d565b856114009190612e27565b9450818061140d90613047565b92505050611350565b8395505050505050919050565b6000600454905090565b6000600354905090565b61143f61077c565b1561147f576040517f08c379a000000000000000000000000000000000000000000000000000000000815260040161147690612bfe565b60405180910390fd5b6004544310156114c4576040517f08c379a00000000000000000000000000000000000000000000000000000000081526004016114bb90612b9e565b60405180910390fd5b600260a054141561150a576040517f08c379a000000000000000000000000000000000000000000000000000000000815260040161150190612cfe565b60405180910390fd5b600260a08190555061151a611b39565b61158933600260009054906101000a900473ffffffffffffffffffffffffffffffffffffffff168360008054906101000a900473ffffffffffffffffffffffffffffffffffffffff1673ffffffffffffffffffffffffffffffffffffffff16611d98909392919063ffffffff16565b61159281611c13565b600160a08190555050565b6115a56117a9565b73ffffffffffffffffffffffffffffffffffffffff166115c3610fa8565b73ffffffffffffffffffffffffffffffffffffffff1614611619576040517f08c379a000000000000000000000000000000000000000000000000000000000815260040161161090612c3e565b60405180910390fd5b600073ffffffffffffffffffffffffffffffffffffffff168173ffffffffffffffffffffffffffffffffffffffff161415611689576040517f08c379a000000000000000000000000000000000000000000000000000000000815260040161168090612b7e565b60405180910390fd5b611692816117b1565b50565b6000600160009054906101000a900473ffffffffffffffffffffffffffffffffffffffff16905090565b60008082600201600084600101548152602001908152602001600020549050436007600083815260200190815260200160002060030154101561170957826001015491505061171e565b6001836001015461171a9190612f08565b9150505b919050565b6117a48363a9059cbb60e01b8484604051602401611742929190612ac2565b604051602081830303815290604052907bffffffffffffffffffffffffffffffffffffffffffffffffffffffff19166020820180517bffffffffffffffffffffffffffffffffffffffffffffffffffffffff8381831617835250505050611e21565b505050565b600033905090565b6000603c60009054906101000a900473ffffffffffffffffffffffffffffffffffffffff16905081603c60006101000a81548173ffffffffffffffffffffffffffffffffffffffff021916908373ffffffffffffffffffffffffffffffffffffffff1602179055508173ffffffffffffffffffffffffffffffffffffffff168173ffffffffffffffffffffffffffffffffffffffff167f8be0079c531659141344cd1fd0a4f28419497f9722a3daafe3b4186f6b6457e060405160405180910390a35050565b600960019054906101000a900460ff168061189f5750600960009054906101000a900460ff16155b6118de576040517f08c379a00000000000000000000000000000000000000000000000000000000081526004016118d590612c1e565b60405180910390fd5b6000600960019054906101000a900460ff161590508015611930576001600960016101000a81548160ff0219169083151502179055506001600960006101000a81548160ff0219169083151502179055505b611938611ee8565b611940611fc6565b8015611962576000600960016101000a81548160ff0219169083151502179055505b50565b600960019054906101000a900460ff168061198d5750600960009054906101000a900460ff16155b6119cc576040517f08c379a00000000000000000000000000000000000000000000000000000000081526004016119c390612c1e565b60405180910390fd5b6000600960019054906101000a900460ff161590508015611a1e576001600960016101000a81548160ff0219169083151502179055506001600960006101000a81548160ff0219169083151502179055505b611a26611ee8565b611a2e6120b4565b8015611a50576000600960016101000a81548160ff0219169083151502179055505b50565b600960019054906101000a900460ff1680611a7b5750600960009054906101000a900460ff16155b611aba576040517f08c379a0000000000000000000000000000000000000000000000000000000008152600401611ab190612c1e565b60405180910390fd5b6000600960019054906101000a900460ff161590508015611b0c576001600960016101000a81548160ff0219169083151502179055506001600960006101000a81548160ff0219169083151502179055505b611b146121ad565b8015611b36576000600960016101000a81548160ff0219169083151502179055505b50565b600060076000600654815260200190815260200160002090505b4381600301541015611c105760066000815480929190611b7290613047565b91905055506000600760006006548152602001908152602001600020905060018260030154611ba19190612e27565b81600201819055506003548160020154611bbb9190612e27565b8160030181905550611bd581600201548260030154612293565b8160000181905550600082600401541415611c075781600101548260000154611bfe9190612e27565b81600101819055505b80915050611b53565b50565b6000600760006006548152602001908152602001600020905081816004016000828254611c409190612e27565b92505081905550818160050160003373ffffffffffffffffffffffffffffffffffffffff1673ffffffffffffffffffffffffffffffffffffffff1681526020019081526020016000206000828254611c989190612e27565b925050819055506000600860003373ffffffffffffffffffffffffffffffffffffffff1673ffffffffffffffffffffffffffffffffffffffff16815260200190815260200160002090506000816002016000836001015481526020019081526020016000205490506006548114611d4457816001016000815480929190611d1e90613047565b919050555060065482600201600084600101548152602001908152602001600020819055505b3373ffffffffffffffffffffffffffffffffffffffff167f9f860a72bcc856a3648b565f0ff6e3fb23b326997cd19e2350e76fec3564e6b085604051611d8a9190612d5e565b60405180910390a250505050565b611e1b846323b872dd60e01b858585604051602401611db993929190612a8b565b604051602081830303815290604052907bffffffffffffffffffffffffffffffffffffffffffffffffffffffff19166020820180517bffffffffffffffffffffffffffffffffffffffffffffffffffffffff8381831617835250505050611e21565b50505050565b6000611e83826040518060400160405280602081526020017f5361666545524332303a206c6f772d6c6576656c2063616c6c206661696c65648152508573ffffffffffffffffffffffffffffffffffffffff166122b69092919063ffffffff16565b9050600081511115611ee35780806020019051810190611ea39190612586565b611ee2576040517f08c379a0000000000000000000000000000000000000000000000000000000008152600401611ed990612cbe565b60405180910390fd5b5b505050565b600960019054906101000a900460ff1680611f105750600960009054906101000a900460ff16155b611f4f576040517f08c379a0000000000000000000000000000000000000000000000000000000008152600401611f4690612c1e565b60405180910390fd5b6000600960019054906101000a900460ff161590508015611fa1576001600960016101000a81548160ff0219169083151502179055506001600960006101000a81548160ff0219169083151502179055505b8015611fc3576000600960016101000a81548160ff0219169083151502179055505b50565b600960019054906101000a900460ff1680611fee5750600960009054906101000a900460ff16155b61202d576040517f08c379a000000000000000000000000000000000000000000000000000000000815260040161202490612c1e565b60405180910390fd5b6000600960019054906101000a900460ff16159050801561207f576001600960016101000a81548160ff0219169083151502179055506001600960006101000a81548160ff0219169083151502179055505b61208f61208a6117a9565b6117b1565b80156120b1576000600960016101000a81548160ff0219169083151502179055505b50565b600960019054906101000a900460ff16806120dc5750600960009054906101000a900460ff16155b61211b576040517f08c379a000000000000000000000000000000000000000000000000000000000815260040161211290612c1e565b60405180910390fd5b6000600960019054906101000a900460ff16159050801561216d576001600960016101000a81548160ff0219169083151502179055506001600960006101000a81548160ff0219169083151502179055505b6000606e60006101000a81548160ff02191690831515021790555080156121aa576000600960016101000a81548160ff0219169083151502179055505b50565b600960019054906101000a900460ff16806121d55750600960009054906101000a900460ff16155b612214576040517f08c379a000000000000000000000000000000000000000000000000000000000815260040161220b90612c1e565b60405180910390fd5b6000600960019054906101000a900460ff161590508015612266576001600960016101000a81548160ff0219169083151502179055506001600960006101000a81548160ff0219169083151502179055505b600160a0819055508015612290576000600960016101000a81548160ff0219169083151502179055505b50565b600060055483836122a49190612f08565b6122ae9190612eae565b905092915050565b60606122c584846000856122ce565b90509392505050565b606082471015612313576040517f08c379a000000000000000000000000000000000000000000000000000000000815260040161230a90612bde565b60405180910390fd5b61231c856123e2565b61235b576040517f08c379a000000000000000000000000000000000000000000000000000000000815260040161235290612c9e565b60405180910390fd5b6000808673ffffffffffffffffffffffffffffffffffffffff1685876040516123849190612a59565b60006040518083038185875af1925050503d80600081146123c1576040519150601f19603f3d011682016040523d82523d6000602084013e6123c6565b606091505b50915091506123d68282866123f5565b92505050949350505050565b600080823b905060008111915050919050565b6060831561240557829050612455565b6000835111156124185782518084602001fd5b816040517f08c379a000000000000000000000000000000000000000000000000000000000815260040161244c9190612b3c565b60405180910390fd5b9392505050565b60008135905061246b8161358b565b92915050565b600081519050612480816135a2565b92915050565b600081519050612495816135b9565b92915050565b6000813590506124aa816135d0565b92915050565b6000813590506124bf816135e7565b92915050565b6000813590506124d4816135fe565b92915050565b6000815190506124e981613615565b92915050565b6000813590506124fe81613625565b92915050565b60008151905061251381613625565b92915050565b60006020828403121561252f5761252e61311d565b5b600061253d8482850161245c565b91505092915050565b6000806040838503121561255d5761255c61311d565b5b600061256b8582860161245c565b925050602061257c858286016124ef565b9150509250929050565b60006020828403121561259c5761259b61311d565b5b60006125aa84828501612471565b91505092915050565b6000602082840312156125c9576125c861311d565b5b60006125d784828501612486565b91505092915050565b600080604083850312156125f7576125f661311d565b5b60006126058582860161249b565b9250506020612616858286016124ef565b9150509250929050565b60008060008060008060c0878903121561263d5761263c61311d565b5b600061264b89828a016124b0565b965050602061265c89828a016124b0565b955050604061266d89828a016124c5565b945050606061267e89828a016124ef565b935050608061268f89828a016124ef565b92505060a06126a089828a016124ef565b9150509295509295509295565b6000602082840312156126c3576126c261311d565b5b60006126d1848285016124da565b91505092915050565b6000602082840312156126f0576126ef61311d565b5b60006126fe848285016124ef565b91505092915050565b60006020828403121561271d5761271c61311d565b5b600061272b84828501612504565b91505092915050565b6000806040838503121561274b5761274a61311d565b5b6000612759858286016124ef565b925050602061276a8582860161245c565b9150509250929050565b61277d81612f3c565b82525050565b61278c81612f4e565b82525050565b600061279d82612df5565b6127a78185612e0b565b93506127b7818560208601613014565b80840191505092915050565b6127cc81612fcc565b82525050565b6127db81612ff0565b82525050565b60006127ec82612e00565b6127f68185612e16565b9350612806818560208601613014565b61280f81613122565b840191505092915050565b6000612827603283612e16565b915061283282613133565b604082019050919050565b600061284a602683612e16565b915061285582613182565b604082019050919050565b600061286d601e83612e16565b9150612878826131d1565b602082019050919050565b6000612890602e83612e16565b915061289b826131fa565b604082019050919050565b60006128b3602683612e16565b91506128be82613249565b604082019050919050565b60006128d6601083612e16565b91506128e182613298565b602082019050919050565b60006128f9602e83612e16565b9150612904826132c1565b604082019050919050565b600061291c602083612e16565b915061292782613310565b602082019050919050565b600061293f603283612e16565b915061294a82613339565b604082019050919050565b6000612962603483612e16565b915061296d82613388565b604082019050919050565b6000612985601d83612e16565b9150612990826133d7565b602082019050919050565b60006129a8602a83612e16565b91506129b382613400565b604082019050919050565b60006129cb603a83612e16565b91506129d68261344f565b604082019050919050565b60006129ee601f83612e16565b91506129f98261349e565b602082019050919050565b6000612a11603583612e16565b9150612a1c826134c7565b604082019050919050565b6000612a34604783612e16565b9150612a3f82613516565b606082019050919050565b612a5381612fc2565b82525050565b6000612a658284612792565b915081905092915050565b6000602082019050612a856000830184612774565b92915050565b6000606082019050612aa06000830186612774565b612aad6020830185612774565b612aba6040830184612a4a565b949350505050565b6000604082019050612ad76000830185612774565b612ae46020830184612a4a565b9392505050565b6000602082019050612b006000830184612783565b92915050565b6000602082019050612b1b60008301846127c3565b92915050565b6000602082019050612b3660008301846127d2565b92915050565b60006020820190508181036000830152612b5681846127e1565b905092915050565b60006020820190508181036000830152612b778161281a565b9050919050565b60006020820190508181036000830152612b978161283d565b9050919050565b60006020820190508181036000830152612bb781612860565b9050919050565b60006020820190508181036000830152612bd781612883565b9050919050565b60006020820190508181036000830152612bf7816128a6565b9050919050565b60006020820190508181036000830152612c17816128c9565b9050919050565b60006020820190508181036000830152612c37816128ec565b9050919050565b60006020820190508181036000830152612c578161290f565b9050919050565b60006020820190508181036000830152612c7781612932565b9050919050565b60006020820190508181036000830152612c9781612955565b9050919050565b60006020820190508181036000830152612cb781612978565b9050919050565b60006020820190508181036000830152612cd78161299b565b9050919050565b60006020820190508181036000830152612cf7816129be565b9050919050565b60006020820190508181036000830152612d17816129e1565b9050919050565b60006020820190508181036000830152612d3781612a04565b9050919050565b60006020820190508181036000830152612d5781612a27565b9050919050565b6000602082019050612d736000830184612a4a565b92915050565b6000604082019050612d8e6000830185612a4a565b612d9b6020830184612a4a565b9392505050565b600060a082019050612db76000830188612a4a565b612dc46020830187612a4a565b612dd16040830186612a4a565b612dde6060830185612a4a565b612deb6080830184612a4a565b9695505050505050565b600081519050919050565b600081519050919050565b600081905092915050565b600082825260208201905092915050565b6000612e3282612fc2565b9150612e3d83612fc2565b9250827fffffffffffffffffffffffffffffffffffffffffffffffffffffffffffffffff03821115612e7257612e71613090565b5b828201905092915050565b6000612e8882612fc2565b9150612e9383612fc2565b925082612ea357612ea26130bf565b5b828204905092915050565b6000612eb982612fc2565b9150612ec483612fc2565b9250817fffffffffffffffffffffffffffffffffffffffffffffffffffffffffffffffff0483118215151615612efd57612efc613090565b5b828202905092915050565b6000612f1382612fc2565b9150612f1e83612fc2565b925082821015612f3157612f30613090565b5b828203905092915050565b6000612f4782612fa2565b9050919050565b60008115159050919050565b6000612f6582612f3c565b9050919050565b6000612f7782612f3c565b9050919050565b6000612f8982612f3c565b9050919050565b6000612f9b82612f3c565b9050919050565b600073ffffffffffffffffffffffffffffffffffffffff82169050919050565b6000819050919050565b6000612fd782612fde565b9050919050565b6000612fe982612fa2565b9050919050565b6000612ffb82613002565b9050919050565b600061300d82612fa2565b9050919050565b60005b83811015613032578082015181840152602081019050613017565b83811115613041576000848401525b50505050565b600061305282612fc2565b91507fffffffffffffffffffffffffffffffffffffffffffffffffffffffffffffffff82141561308557613084613090565b5b600182019050919050565b7f4e487b7100000000000000000000000000000000000000000000000000000000600052601160045260246000fd5b7f4e487b7100000000000000000000000000000000000000000000000000000000600052601260045260246000fd5b7f4e487b7100000000000000000000000000000000000000000000000000000000600052602160045260246000fd5b600080fd5b6000601f19601f8301169050919050565b7f446f6e6174696f6e4d696e65723a3a636f6e7374727563746f723a205f49504360008201527f542061646472657373206e6f7420736574210000000000000000000000000000602082015250565b7f4f776e61626c653a206e6577206f776e657220697320746865207a65726f206160008201527f6464726573730000000000000000000000000000000000000000000000000000602082015250565b7f446f6e6174696f6e4d696e65723a204552525f4e4f545f535441525445440000600082015250565b7f446f6e6174696f6e4d696e65723a3a636f6e7374727563746f723a205f74726560008201527f6173757279206e6f742073657421000000000000000000000000000000000000602082015250565b7f416464726573733a20696e73756666696369656e742062616c616e636520666f60008201527f722063616c6c0000000000000000000000000000000000000000000000000000602082015250565b7f5061757361626c653a2070617573656400000000000000000000000000000000600082015250565b7f496e697469616c697a61626c653a20636f6e747261637420697320616c72656160008201527f647920696e697469616c697a6564000000000000000000000000000000000000602082015250565b7f4f776e61626c653a2063616c6c6572206973206e6f7420746865206f776e6572600082015250565b7f446f6e6174696f6e4d696e65723a3a636f6e7374727563746f723a205f63555360008201527f442061646472657373206e6f7420736574210000000000000000000000000000602082015250565b7f446f6e6174696f6e4d696e65723a3a636f6e7374727563746f723a205f72657760008201527f617264506572426c6f636b206e6f742073657421000000000000000000000000602082015250565b7f416464726573733a2063616c6c20746f206e6f6e2d636f6e7472616374000000600082015250565b7f5361666545524332303a204552433230206f7065726174696f6e20646964206e60008201527f6f74207375636365656400000000000000000000000000000000000000000000602082015250565b7f446f6e6174696f6e4d696e65723a3a636f6e7374727563746f723a205f73746160008201527f7274696e67526577617264506572696f64206e6f742073657421000000000000602082015250565b7f5265656e7472616e637947756172643a207265656e7472616e742063616c6c00600082015250565b7f446f6e6174696f6e4d696e65723a3a636c61696d526577617264733a2045525260008201527f5f5245574152445f544f4b454e5f42414c414e43450000000000000000000000602082015250565b7f446f6e6174696f6e4d696e65723a3a646f6e617465546f436f6d6d756e69747960008201527f3a2054686973206973206e6f7420612076616c696420636f6d6d756e6974792060208201527f6164647265737300000000000000000000000000000000000000000000000000604082015250565b61359481612f3c565b811461359f57600080fd5b50565b6135ab81612f4e565b81146135b657600080fd5b50565b6135c281612f5a565b81146135cd57600080fd5b50565b6135d981612f6c565b81146135e457600080fd5b50565b6135f081612f7e565b81146135fb57600080fd5b50565b61360781612f90565b811461361257600080fd5b50565b6003811061362257600080fd5b50565b61362e81612fc2565b811461363957600080fd5b5056fea26469706673582212200481ff10f2c0d7934eaaf642fe2ec6d0a92782f66e50cabd9cce721077eba46d64736f6c63430008050033",
  "devdoc": {
    "kind": "dev",
    "methods": {
      "calculateClaimableRewards(address)": {
        "details": "Calculate all pending rewards for a donor"
      },
      "claimRewards()": {
        "details": "Claim all pending rewards for a donor"
      },
      "donate(uint256)": {
        "details": "Deposit cUSD tokens to the donation mining contract",
        "params": {
          "amount_": "Amount of cUSD tokens to deposit."
        }
      },
      "donateToCommunity(address,uint256)": {
        "details": "Deposit cUSD tokens to the donation mining contract",
        "params": {
          "amount_": "Amount of cUSD tokens to deposit."
        }
      },
      "estimateClaimableReward(address)": {
        "details": "View function to see pending rewards on frontend.",
        "params": {
          "donor_": "Address of a specific donor."
        },
        "returns": {
          "_0": "Pending rewards."
        }
      },
      "owner()": {
        "details": "Returns the address of the current owner."
      },
      "paused()": {
        "details": "Returns true if the contract is paused, and false otherwise."
      },
      "renounceOwnership()": {
        "details": "Leaves the contract without owner. It will not be possible to call `onlyOwner` functions anymore. Can only be called by the current owner. NOTE: Renouncing ownership will leave the contract without an owner, thereby removing any functionality that is only available to the owner."
      },
      "transferOwnership(address)": {
        "details": "Transfers ownership of the contract to a new account (`newOwner`). Can only be called by the current owner."
      }
    },
    "version": 1
  },
  "userdoc": {
    "kind": "user",
    "methods": {},
    "version": 1
  },
  "storageLayout": {
    "storage": [
      {
        "astId": 2694,
        "contract": "contracts/token/DonationMinerImplementation.sol:DonationMinerImplementation",
        "label": "_cUSD",
        "offset": 0,
        "slot": "0",
        "type": "t_contract(IERC20)536"
      },
      {
        "astId": 2697,
        "contract": "contracts/token/DonationMinerImplementation.sol:DonationMinerImplementation",
        "label": "_IPCT",
        "offset": 0,
        "slot": "1",
        "type": "t_contract(IERC20)536"
      },
      {
        "astId": 2700,
        "contract": "contracts/token/DonationMinerImplementation.sol:DonationMinerImplementation",
        "label": "_treasury",
        "offset": 0,
        "slot": "2",
        "type": "t_contract(ITreasury)2917"
      },
      {
        "astId": 2702,
        "contract": "contracts/token/DonationMinerImplementation.sol:DonationMinerImplementation",
        "label": "_rewardPeriodSize",
        "offset": 0,
        "slot": "3",
        "type": "t_uint256"
      },
      {
        "astId": 2704,
        "contract": "contracts/token/DonationMinerImplementation.sol:DonationMinerImplementation",
        "label": "_startingBlock",
        "offset": 0,
        "slot": "4",
        "type": "t_uint256"
      },
      {
        "astId": 2706,
        "contract": "contracts/token/DonationMinerImplementation.sol:DonationMinerImplementation",
        "label": "_rewardPerBlock",
        "offset": 0,
        "slot": "5",
        "type": "t_uint256"
      },
      {
        "astId": 2708,
        "contract": "contracts/token/DonationMinerImplementation.sol:DonationMinerImplementation",
        "label": "_rewardPeriodCount",
        "offset": 0,
        "slot": "6",
        "type": "t_uint256"
      },
      {
        "astId": 2713,
        "contract": "contracts/token/DonationMinerImplementation.sol:DonationMinerImplementation",
        "label": "_rewardPeriods",
        "offset": 0,
        "slot": "7",
        "type": "t_mapping(t_uint256,t_struct(RewardPeriod)2739_storage)"
      },
      {
        "astId": 2718,
        "contract": "contracts/token/DonationMinerImplementation.sol:DonationMinerImplementation",
        "label": "_donors",
        "offset": 0,
        "slot": "8",
        "type": "t_mapping(t_address,t_struct(Donor)2748_storage)"
      },
      {
        "astId": 203,
        "contract": "contracts/token/DonationMinerImplementation.sol:DonationMinerImplementation",
        "label": "_initialized",
        "offset": 0,
        "slot": "9",
        "type": "t_bool"
      },
      {
        "astId": 206,
        "contract": "contracts/token/DonationMinerImplementation.sol:DonationMinerImplementation",
        "label": "_initializing",
        "offset": 1,
        "slot": "9",
        "type": "t_bool"
      },
      {
        "astId": 457,
        "contract": "contracts/token/DonationMinerImplementation.sol:DonationMinerImplementation",
        "label": "__gap",
        "offset": 0,
        "slot": "10",
        "type": "t_array(t_uint256)50_storage"
      },
      {
        "astId": 83,
        "contract": "contracts/token/DonationMinerImplementation.sol:DonationMinerImplementation",
        "label": "_owner",
        "offset": 0,
        "slot": "60",
        "type": "t_address"
      },
      {
        "astId": 196,
        "contract": "contracts/token/DonationMinerImplementation.sol:DonationMinerImplementation",
        "label": "__gap",
        "offset": 0,
        "slot": "61",
        "type": "t_array(t_uint256)49_storage"
      },
      {
        "astId": 264,
        "contract": "contracts/token/DonationMinerImplementation.sol:DonationMinerImplementation",
        "label": "_paused",
        "offset": 0,
        "slot": "110",
        "type": "t_bool"
      },
      {
        "astId": 355,
        "contract": "contracts/token/DonationMinerImplementation.sol:DonationMinerImplementation",
        "label": "__gap",
        "offset": 0,
        "slot": "111",
        "type": "t_array(t_uint256)49_storage"
      },
      {
        "astId": 370,
        "contract": "contracts/token/DonationMinerImplementation.sol:DonationMinerImplementation",
        "label": "_status",
        "offset": 0,
        "slot": "160",
        "type": "t_uint256"
      },
      {
        "astId": 413,
        "contract": "contracts/token/DonationMinerImplementation.sol:DonationMinerImplementation",
        "label": "__gap",
        "offset": 0,
        "slot": "161",
        "type": "t_array(t_uint256)49_storage"
      }
    ],
    "types": {
      "t_address": {
        "encoding": "inplace",
        "label": "address",
        "numberOfBytes": "20"
      },
      "t_array(t_uint256)49_storage": {
        "base": "t_uint256",
        "encoding": "inplace",
        "label": "uint256[49]",
        "numberOfBytes": "1568"
      },
      "t_array(t_uint256)50_storage": {
        "base": "t_uint256",
        "encoding": "inplace",
        "label": "uint256[50]",
        "numberOfBytes": "1600"
      },
      "t_bool": {
        "encoding": "inplace",
        "label": "bool",
        "numberOfBytes": "1"
      },
      "t_contract(IERC20)536": {
        "encoding": "inplace",
        "label": "contract IERC20",
        "numberOfBytes": "20"
      },
      "t_contract(ITreasury)2917": {
        "encoding": "inplace",
        "label": "contract ITreasury",
        "numberOfBytes": "20"
      },
      "t_mapping(t_address,t_struct(Donor)2748_storage)": {
        "encoding": "mapping",
        "key": "t_address",
        "label": "mapping(address => struct IDonationMiner.Donor)",
        "numberOfBytes": "32",
        "value": "t_struct(Donor)2748_storage"
      },
      "t_mapping(t_address,t_uint256)": {
        "encoding": "mapping",
        "key": "t_address",
        "label": "mapping(address => uint256)",
        "numberOfBytes": "32",
        "value": "t_uint256"
      },
      "t_mapping(t_uint256,t_struct(RewardPeriod)2739_storage)": {
        "encoding": "mapping",
        "key": "t_uint256",
        "label": "mapping(uint256 => struct IDonationMiner.RewardPeriod)",
        "numberOfBytes": "32",
        "value": "t_struct(RewardPeriod)2739_storage"
      },
      "t_mapping(t_uint256,t_uint256)": {
        "encoding": "mapping",
        "key": "t_uint256",
        "label": "mapping(uint256 => uint256)",
        "numberOfBytes": "32",
        "value": "t_uint256"
      },
      "t_struct(Donor)2748_storage": {
        "encoding": "inplace",
        "label": "struct IDonationMiner.Donor",
        "members": [
          {
            "astId": 2741,
            "contract": "contracts/token/DonationMinerImplementation.sol:DonationMinerImplementation",
            "label": "lastClaim",
            "offset": 0,
            "slot": "0",
            "type": "t_uint256"
          },
          {
            "astId": 2743,
            "contract": "contracts/token/DonationMinerImplementation.sol:DonationMinerImplementation",
            "label": "rewardPeriodsCount",
            "offset": 0,
            "slot": "1",
            "type": "t_uint256"
          },
          {
            "astId": 2747,
            "contract": "contracts/token/DonationMinerImplementation.sol:DonationMinerImplementation",
            "label": "rewardPeriods",
            "offset": 0,
            "slot": "2",
            "type": "t_mapping(t_uint256,t_uint256)"
          }
        ],
        "numberOfBytes": "96"
      },
      "t_struct(RewardPeriod)2739_storage": {
        "encoding": "inplace",
        "label": "struct IDonationMiner.RewardPeriod",
        "members": [
          {
            "astId": 2726,
            "contract": "contracts/token/DonationMinerImplementation.sol:DonationMinerImplementation",
            "label": "reward",
            "offset": 0,
            "slot": "0",
            "type": "t_uint256"
          },
          {
            "astId": 2728,
            "contract": "contracts/token/DonationMinerImplementation.sol:DonationMinerImplementation",
            "label": "bonusReward",
            "offset": 0,
            "slot": "1",
            "type": "t_uint256"
          },
          {
            "astId": 2730,
            "contract": "contracts/token/DonationMinerImplementation.sol:DonationMinerImplementation",
            "label": "startBlock",
            "offset": 0,
            "slot": "2",
            "type": "t_uint256"
          },
          {
            "astId": 2732,
            "contract": "contracts/token/DonationMinerImplementation.sol:DonationMinerImplementation",
            "label": "endBlock",
            "offset": 0,
            "slot": "3",
            "type": "t_uint256"
          },
          {
            "astId": 2734,
            "contract": "contracts/token/DonationMinerImplementation.sol:DonationMinerImplementation",
            "label": "donationsAmount",
            "offset": 0,
            "slot": "4",
            "type": "t_uint256"
          },
          {
            "astId": 2738,
            "contract": "contracts/token/DonationMinerImplementation.sol:DonationMinerImplementation",
            "label": "donations",
            "offset": 0,
            "slot": "5",
            "type": "t_mapping(t_address,t_uint256)"
          }
        ],
        "numberOfBytes": "192"
      },
      "t_uint256": {
        "encoding": "inplace",
        "label": "uint256",
        "numberOfBytes": "32"
      }
    }
  }
}