{
  "address": "0x2F095B6F43259c8017794C9f25B2eF774b54B6ce",
  "abi": [
    {
      "anonymous": false,
      "inputs": [
        {
          "indexed": false,
          "internalType": "uint256",
          "name": "oldClaimDelay",
          "type": "uint256"
        },
        {
          "indexed": false,
          "internalType": "uint256",
          "name": "newClaimDelay",
          "type": "uint256"
        }
      ],
      "name": "ClaimDelayUpdated",
      "type": "event"
    },
    {
      "anonymous": false,
      "inputs": [
        {
          "indexed": true,
          "internalType": "uint256",
          "name": "donationId",
          "type": "uint256"
        },
        {
          "indexed": true,
          "internalType": "address",
          "name": "donor",
          "type": "address"
        },
        {
          "indexed": false,
          "internalType": "uint256",
          "name": "amount",
          "type": "uint256"
        },
        {
          "indexed": true,
          "internalType": "address",
          "name": "target",
          "type": "address"
        }
      ],
      "name": "DonationAdded",
      "type": "event"
    },
    {
      "anonymous": false,
      "inputs": [
        {
          "indexed": false,
          "internalType": "uint256",
          "name": "oldStartingBlock",
          "type": "uint256"
        },
        {
          "indexed": false,
          "internalType": "uint256",
          "name": "oldFirstRewardPerBlock",
          "type": "uint256"
        },
        {
          "indexed": false,
          "internalType": "uint256",
          "name": "newStartingBlock",
          "type": "uint256"
        },
        {
          "indexed": false,
          "internalType": "uint256",
          "name": "newFirstRewardPerBlock",
          "type": "uint256"
        }
      ],
      "name": "FirstRewardPeriodParamsUpdated",
      "type": "event"
    },
    {
      "anonymous": false,
      "inputs": [
        {
          "indexed": true,
          "internalType": "address",
          "name": "previousOwner",
          "type": "address"
        },
        {
          "indexed": true,
          "internalType": "address",
          "name": "newOwner",
          "type": "address"
        }
      ],
      "name": "OwnershipTransferred",
      "type": "event"
    },
    {
      "anonymous": false,
      "inputs": [
        {
          "indexed": false,
          "internalType": "address",
          "name": "account",
          "type": "address"
        }
      ],
      "name": "Paused",
      "type": "event"
    },
    {
      "anonymous": false,
      "inputs": [
        {
          "indexed": true,
          "internalType": "address",
          "name": "donor",
          "type": "address"
        },
        {
          "indexed": false,
          "internalType": "uint256",
          "name": "amount",
          "type": "uint256"
        }
      ],
      "name": "RewardClaimed",
      "type": "event"
    },
    {
      "anonymous": false,
      "inputs": [
        {
          "indexed": false,
          "internalType": "uint256",
          "name": "oldRewardPeriodSize",
          "type": "uint256"
        },
        {
          "indexed": false,
          "internalType": "uint256",
          "name": "oldDecayNumerator",
          "type": "uint256"
        },
        {
          "indexed": false,
          "internalType": "uint256",
          "name": "oldDecayDenominator",
          "type": "uint256"
        },
        {
          "indexed": false,
          "internalType": "uint256",
          "name": "newRewardPeriodSize",
          "type": "uint256"
        },
        {
          "indexed": false,
          "internalType": "uint256",
          "name": "newDecayNumerator",
          "type": "uint256"
        },
        {
          "indexed": false,
          "internalType": "uint256",
          "name": "newDecayDenominator",
          "type": "uint256"
        }
      ],
      "name": "RewardPeriodParamsUpdated",
      "type": "event"
    },
    {
      "anonymous": false,
      "inputs": [
        {
          "indexed": true,
          "internalType": "address",
          "name": "token",
          "type": "address"
        },
        {
          "indexed": true,
          "internalType": "address",
          "name": "to",
          "type": "address"
        },
        {
          "indexed": false,
          "internalType": "uint256",
          "name": "amount",
          "type": "uint256"
        }
      ],
      "name": "TransferERC20",
      "type": "event"
    },
    {
      "anonymous": false,
      "inputs": [
        {
          "indexed": true,
          "internalType": "address",
          "name": "oldTreasury",
          "type": "address"
        },
        {
          "indexed": true,
          "internalType": "address",
          "name": "newTreasury",
          "type": "address"
        }
      ],
      "name": "TreasuryUpdated",
      "type": "event"
    },
    {
      "anonymous": false,
      "inputs": [
        {
          "indexed": false,
          "internalType": "address",
          "name": "account",
          "type": "address"
        }
      ],
      "name": "Unpaused",
      "type": "event"
    },
    {
      "inputs": [],
      "name": "PACT",
      "outputs": [
        {
          "internalType": "contract IERC20",
          "name": "",
          "type": "address"
        }
      ],
      "stateMutability": "view",
      "type": "function"
    },
    {
      "inputs": [],
      "name": "cUSD",
      "outputs": [
        {
          "internalType": "contract IERC20",
          "name": "",
          "type": "address"
        }
      ],
      "stateMutability": "view",
      "type": "function"
    },
    {
      "inputs": [
        {
          "internalType": "address",
          "name": "_donorAddress",
          "type": "address"
        }
      ],
      "name": "calculateClaimableRewards",
      "outputs": [
        {
          "internalType": "uint256",
          "name": "",
          "type": "uint256"
        }
      ],
      "stateMutability": "view",
      "type": "function"
    },
    {
      "inputs": [
        {
          "internalType": "address",
          "name": "_donorAddress",
          "type": "address"
        },
        {
          "internalType": "uint256",
          "name": "_lastPeriodNumber",
          "type": "uint256"
        }
      ],
      "name": "calculateClaimableRewardsByPeriodNumber",
      "outputs": [
        {
          "internalType": "uint256",
          "name": "",
          "type": "uint256"
        }
      ],
      "stateMutability": "view",
      "type": "function"
    },
    {
      "inputs": [],
      "name": "claimDelay",
      "outputs": [
        {
          "internalType": "uint256",
          "name": "",
          "type": "uint256"
        }
      ],
      "stateMutability": "view",
      "type": "function"
    },
    {
      "inputs": [],
      "name": "claimRewards",
      "outputs": [],
      "stateMutability": "nonpayable",
      "type": "function"
    },
    {
      "inputs": [],
      "name": "decayDenominator",
      "outputs": [
        {
          "internalType": "uint256",
          "name": "",
          "type": "uint256"
        }
      ],
      "stateMutability": "view",
      "type": "function"
    },
    {
      "inputs": [],
      "name": "decayNumerator",
      "outputs": [
        {
          "internalType": "uint256",
          "name": "",
          "type": "uint256"
        }
      ],
      "stateMutability": "view",
      "type": "function"
    },
    {
      "inputs": [
        {
          "internalType": "uint256",
          "name": "_amount",
          "type": "uint256"
        }
      ],
      "name": "donate",
      "outputs": [],
      "stateMutability": "nonpayable",
      "type": "function"
    },
    {
      "inputs": [
        {
          "internalType": "contract ICommunity",
          "name": "_community",
          "type": "address"
        },
        {
          "internalType": "uint256",
          "name": "_amount",
          "type": "uint256"
        }
      ],
      "name": "donateToCommunity",
      "outputs": [],
      "stateMutability": "nonpayable",
      "type": "function"
    },
    {
      "inputs": [],
      "name": "donationCount",
      "outputs": [
        {
          "internalType": "uint256",
          "name": "",
          "type": "uint256"
        }
      ],
      "stateMutability": "view",
      "type": "function"
    },
    {
      "inputs": [
        {
          "internalType": "uint256",
          "name": "",
          "type": "uint256"
        }
      ],
      "name": "donations",
      "outputs": [
        {
          "internalType": "address",
          "name": "donor",
          "type": "address"
        },
        {
          "internalType": "address",
          "name": "target",
          "type": "address"
        },
        {
          "internalType": "uint256",
          "name": "rewardPeriod",
          "type": "uint256"
        },
        {
          "internalType": "uint256",
          "name": "blockNumber",
          "type": "uint256"
        },
        {
          "internalType": "uint256",
          "name": "amount",
          "type": "uint256"
        },
        {
          "internalType": "contract IERC20",
          "name": "token",
          "type": "address"
        },
        {
          "internalType": "uint256",
          "name": "tokenPrice",
          "type": "uint256"
        }
      ],
      "stateMutability": "view",
      "type": "function"
    },
    {
      "inputs": [
        {
          "internalType": "address",
          "name": "_donor",
          "type": "address"
        },
        {
          "internalType": "uint256",
          "name": "_rewardPeriodIndex",
          "type": "uint256"
        }
      ],
      "name": "donorRewardPeriod",
      "outputs": [
        {
          "internalType": "uint256",
          "name": "",
          "type": "uint256"
        }
      ],
      "stateMutability": "view",
      "type": "function"
    },
    {
      "inputs": [
        {
          "internalType": "address",
          "name": "",
          "type": "address"
        }
      ],
      "name": "donors",
      "outputs": [
        {
          "internalType": "uint256",
          "name": "lastClaim",
          "type": "uint256"
        },
        {
          "internalType": "uint256",
          "name": "rewardPeriodsCount",
          "type": "uint256"
        }
      ],
      "stateMutability": "view",
      "type": "function"
    },
    {
      "inputs": [
        {
          "internalType": "address",
          "name": "_donorAddress",
          "type": "address"
        }
      ],
      "name": "estimateClaimableReward",
      "outputs": [
        {
          "internalType": "uint256",
          "name": "",
          "type": "uint256"
        }
      ],
      "stateMutability": "view",
      "type": "function"
    },
    {
      "inputs": [],
      "name": "getVersion",
      "outputs": [
        {
          "internalType": "uint256",
          "name": "",
          "type": "uint256"
        }
      ],
      "stateMutability": "pure",
      "type": "function"
    },
    {
      "inputs": [],
      "name": "owner",
      "outputs": [
        {
          "internalType": "address",
          "name": "",
          "type": "address"
        }
      ],
      "stateMutability": "view",
      "type": "function"
    },
    {
      "inputs": [],
      "name": "paused",
      "outputs": [
        {
          "internalType": "bool",
          "name": "",
          "type": "bool"
        }
      ],
      "stateMutability": "view",
      "type": "function"
    },
    {
      "inputs": [],
      "name": "renounceOwnership",
      "outputs": [],
      "stateMutability": "nonpayable",
      "type": "function"
    },
    {
      "inputs": [],
      "name": "rewardPeriodCount",
      "outputs": [
        {
          "internalType": "uint256",
          "name": "",
          "type": "uint256"
        }
      ],
      "stateMutability": "view",
      "type": "function"
    },
    {
      "inputs": [
        {
          "internalType": "uint256",
          "name": "_period",
          "type": "uint256"
        },
        {
          "internalType": "address",
          "name": "_donor",
          "type": "address"
        }
      ],
      "name": "rewardPeriodDonorAmount",
      "outputs": [
        {
          "internalType": "uint256",
          "name": "",
          "type": "uint256"
        }
      ],
      "stateMutability": "view",
      "type": "function"
    },
    {
      "inputs": [],
      "name": "rewardPeriodSize",
      "outputs": [
        {
          "internalType": "uint256",
          "name": "",
          "type": "uint256"
        }
      ],
      "stateMutability": "view",
      "type": "function"
    },
    {
      "inputs": [
        {
          "internalType": "uint256",
          "name": "",
          "type": "uint256"
        }
      ],
      "name": "rewardPeriods",
      "outputs": [
        {
          "internalType": "uint256",
          "name": "rewardPerBlock",
          "type": "uint256"
        },
        {
          "internalType": "uint256",
          "name": "rewardAmount",
          "type": "uint256"
        },
        {
          "internalType": "uint256",
          "name": "startBlock",
          "type": "uint256"
        },
        {
          "internalType": "uint256",
          "name": "endBlock",
          "type": "uint256"
        },
        {
          "internalType": "uint256",
          "name": "donationsAmount",
          "type": "uint256"
        }
      ],
      "stateMutability": "view",
      "type": "function"
    },
    {
      "inputs": [
        {
          "internalType": "contract IERC20",
          "name": "_token",
          "type": "address"
        },
        {
          "internalType": "address",
          "name": "_to",
          "type": "address"
        },
        {
          "internalType": "uint256",
          "name": "_amount",
          "type": "uint256"
        }
      ],
      "name": "transfer",
      "outputs": [],
      "stateMutability": "nonpayable",
      "type": "function"
    },
    {
      "inputs": [
        {
          "internalType": "address",
          "name": "newOwner",
          "type": "address"
        }
      ],
      "name": "transferOwnership",
      "outputs": [],
      "stateMutability": "nonpayable",
      "type": "function"
    },
    {
      "inputs": [],
      "name": "treasury",
      "outputs": [
        {
          "internalType": "contract ITreasury",
          "name": "",
          "type": "address"
        }
      ],
      "stateMutability": "view",
      "type": "function"
    },
    {
      "inputs": [
        {
          "internalType": "uint256",
          "name": "_newClaimDelay",
          "type": "uint256"
        }
      ],
      "name": "updateClaimDelay",
      "outputs": [],
      "stateMutability": "nonpayable",
      "type": "function"
    },
    {
      "inputs": [
        {
          "internalType": "uint256",
          "name": "_startingBlock",
          "type": "uint256"
        },
        {
          "internalType": "uint256",
          "name": "_firstRewardPerBlock",
          "type": "uint256"
        }
      ],
      "name": "updateFirstRewardPeriodParams",
      "outputs": [],
      "stateMutability": "nonpayable",
      "type": "function"
    },
    {
      "inputs": [
        {
          "internalType": "uint256",
          "name": "_newRewardPeriodSize",
          "type": "uint256"
        },
        {
          "internalType": "uint256",
          "name": "_newDecayNumerator",
          "type": "uint256"
        },
        {
          "internalType": "uint256",
          "name": "_newDecayDenominator",
          "type": "uint256"
        }
      ],
      "name": "updateRewardPeriodParams",
      "outputs": [],
      "stateMutability": "nonpayable",
      "type": "function"
    },
    {
      "inputs": [
        {
          "internalType": "contract ITreasury",
          "name": "_newTreasury",
          "type": "address"
        }
      ],
      "name": "updateTreasury",
      "outputs": [],
      "stateMutability": "nonpayable",
      "type": "function"
    }
  ],
  "transactionHash": "0x6e5fae35eddc4e00acca9ac649b8bb7f47b26753436f1e2dd1b76ae406f90da4",
  "args": [],
  "solcInputHash": "3d1b65699b28b7297b4f109c77d784c7",
  "bytecode": "0x608060405234801561001057600080fd5b50611c81806100206000396000f3fe608060405234801561001057600080fd5b50600436106101da5760003560e01c8063821787ec11610104578063ca0cdea8116100a2578063ed409ff311610071578063ed409ff314610470578063f14faf6f14610479578063f2fde38b1461048c578063f8626af81461049f57600080fd5b8063ca0cdea8146103fb578063cd75000c14610437578063e247b8d81461044a578063e48508df1461045d57600080fd5b806392ade299116100de57806392ade299146103c3578063beabacc8146103cc578063c38474c0146103df578063c89d1a8e146103e857600080fd5b8063821787ec1461033a5780638252097d1461034d5780638da5cb5b146103b257600080fd5b8063372500ab1161017c57806361d027b31161014b57806361d027b3146102f9578063715018a61461030c5780637c62b1af146103145780637f51bb1f1461032757600080fd5b8063372500ab1461028e5780633b9a0176146102965780633ddec531146102a95780635c975abb146102e357600080fd5b80631c8ec299116101b85780631c8ec299146102175780631fccf672146102205780632abfab4d1461024b5780632bef5eef1461025457600080fd5b806307ea4e57146101df5780630d8e6e2c146101fb57806311ec639b14610202575b600080fd5b6101e860cf5481565b6040519081526020015b60405180910390f35b60026101e8565b6102156102103660046119ad565b61053d565b005b6101e860d45481565b60c954610233906001600160a01b031681565b6040516001600160a01b0390911681526020016101f2565b6101e860cd5481565b6101e861026236600461197e565b600082815260d2602090815260408083206001600160a01b038516845260050190915290205492915050565b610215610691565b60ca54610233906001600160a01b031681565b6101e86102b7366004611876565b6001600160a01b0391909116600090815260d36020908152604080832093835260029093019052205490565b60655460ff1660405190151581526020016101f2565b60cb54610233906001600160a01b031681565b6102156108ae565b6102156103223660046118dd565b6108e4565b61021561033536600461185a565b610b79565b6101e8610348366004611876565b610bf5565b61038a61035b36600461194e565b60d260205260009081526040902080546001820154600283015460038401546004909401549293919290919085565b604080519586526020860194909452928401919091526060830152608082015260a0016101f2565b6033546001600160a01b0316610233565b6101e860d05481565b6102156103da3660046118ef565b610c0b565b6101e860ce5481565b6101e86103f636600461185a565b610cc8565b61042261040936600461185a565b60d3602052600090815260409020805460019091015482565b604080519283526020830191909152016101f2565b6101e861044536600461185a565b610d92565b61021561045836600461194e565b610da9565b61021561046b3660046119ce565b610eb2565b6101e860cc5481565b61021561048736600461194e565b610f56565b61021561049a36600461185a565b61101a565b6104f96104ad36600461194e565b60d16020526000908152604090208054600182015460028301546003840154600485015460058601546006909601546001600160a01b0395861696948616959394929391929091169087565b604080516001600160a01b03988916815296881660208801528601949094526060850192909252608084015290921660a082015260c081019190915260e0016101f2565b6033546001600160a01b031633146105705760405162461bcd60e51b815260040161056790611adf565b60405180910390fd5b600160005260d2602052600080516020611c2c833981519152547fb7404ce2b5a52e61a6b5c9b4585ed65d8cb4b8848d3ee262a356d0c2c46c5f35544382116106395760405162461bcd60e51b815260206004820152604f60248201527f446f6e6174696f6e4d696e65723a3a757064617465466972737452657761726460448201527f506572696f64506172616d733a20446f6e6174696f6e4d696e6572206861732060648201526e185b1c9958591e481cdd185c9d1959608a1b608482015260a401610567565b61064384846110b5565b6040805183815260208101839052908101859052606081018490527f0dff8d4d90919e5c45ed6b61037a861e35ea326548d4e842036fef8883288c469060800160405180910390a150505050565b60655460ff16156106b45760405162461bcd60e51b815260040161056790611ab5565b600160005260d2602052600080516020611c2c833981519152544310156106ed5760405162461bcd60e51b815260040161056790611a7e565b600260975414156107105760405162461bcd60e51b815260040161056790611b14565b600260975561071d61112c565b33600081815260d36020526040812060d45460ce54919361074892909161074391611ba2565b6111ed565b83559050806107585750506108a7565b60ca546040516370a0823160e01b81523060048201526001600160a01b03909116906370a082319060240160206040518083038186803b15801561079b57600080fd5b505afa1580156107af573d6000803e3d6000fd5b505050506040513d601f19601f820116820180604052508101906107d39190611966565b8111156108585760ca546040516370a0823160e01b81523060048201526001600160a01b03909116906370a082319060240160206040518083038186803b15801561081d57600080fd5b505afa158015610831573d6000803e3d6000fd5b505050506040513d601f19601f820116820180604052508101906108559190611966565b90505b60ca5461086f906001600160a01b031633836112da565b60405181815233907f106f923f993c2149d49b4255ff723acafa1f2d94393f561d3eda32ae348f72419060200160405180910390a250505b6001609755565b6033546001600160a01b031633146108d85760405162461bcd60e51b815260040161056790611adf565b6108e26000611342565b565b60655460ff16156109075760405162461bcd60e51b815260040161056790611ab5565b600160005260d2602052600080516020611c2c833981519152544310156109405760405162461bcd60e51b815260040161056790611a7e565b600260975414156109635760405162461bcd60e51b815260040161056790611b14565b600260975560cb5460408051632fd648bd60e11b815290516000926001600160a01b031691635fac917a916004808301926020929190829003018186803b1580156109ad57600080fd5b505afa1580156109c1573d6000803e3d6000fd5b505050506040513d601f19601f820116820180604052508101906109e591906118c1565b90506001604051633f9409e960e11b81526001600160a01b038581166004830152831690637f2813d29060240160206040518083038186803b158015610a2a57600080fd5b505afa158015610a3e573d6000803e3d6000fd5b505050506040513d601f19601f82011682018060405250810190610a62919061192f565b6003811115610a8157634e487b7160e01b600052602160045260246000fd5b14610b045760405162461bcd60e51b815260206004820152604760248201527f446f6e6174696f6e4d696e65723a3a646f6e617465546f436f6d6d756e69747960448201527f3a2054686973206973206e6f7420612076616c696420636f6d6d756e697479206064820152666164647265737360c81b608482015260a401610567565b60405163e69d849d60e01b8152336004820152602481018390526001600160a01b0384169063e69d849d90604401600060405180830381600087803b158015610b4c57600080fd5b505af1158015610b60573d6000803e3d6000fd5b50505050610b6f338385611394565b5050600160975550565b6033546001600160a01b03163314610ba35760405162461bcd60e51b815260040161056790611adf565b60cb80546001600160a01b038381166001600160a01b0319831681179093556040519116919082907f4ab5be82436d353e61ca18726e984e561f5c1cc7c6d38b29d2553c790434705a90600090a35050565b600080610c0284846111ed565b50949350505050565b6033546001600160a01b03163314610c355760405162461bcd60e51b815260040161056790611adf565b60026097541415610c585760405162461bcd60e51b815260040161056790611b14565b6002609755610c716001600160a01b03841683836112da565b816001600160a01b0316836001600160a01b03167f9b035625e569d1d2bf54830a290aefba7ab11610ba8490871dc62b86b63a895683604051610cb691815260200190565b60405180910390a35050600160975550565b6001600090815260d2602052600080516020611c2c83398151915254431015610d035760405162461bcd60e51b815260040161056790611a7e565b60655460ff1615610d265760405162461bcd60e51b815260040161056790611ab5565b60ce54600090815260d26020526040812060038101549091904311610d8b5760048201546001600160a01b03851660009081526005840160205260409020546001840154610d749190611b83565b610d7e9190611b63565b610d889082611b4b565b90505b9392505050565b600080610da18360ce546111ed565b509392505050565b610dda6040518060400160405280601081526020016f757064617465436c61696d44656c617960801b815250611484565b610e036040518060400160405280600781526020016639b2b73232b91d60c91b815250336114c7565b610e3c6040518060400160405280600681526020016537bbb732b91d60d11b815250610e376033546001600160a01b031690565b6114c7565b610e6d6040518060400160405280601081526020016f757064617465436c61696d44656c617960801b815250611484565b60d480549082905560408051828152602081018490527f7625e5482008771a414881eb4c957803f2ab46e99e6da60df6e1310f0f009fec910160405180910390a15050565b6033546001600160a01b03163314610edc5760405162461bcd60e51b815260040161056790611adf565b60cc805460cf805460d080549488905591869055908490556040805183815260208101839052908101849052606081018790526080810186905260a08101859052919290917f8fb29c6ced5ce51696c08668df816fab7e60c674a6c36e167d5df9b8a5f499849060c00160405180910390a1505050505050565b60655460ff1615610f795760405162461bcd60e51b815260040161056790611ab5565b600160005260d2602052600080516020611c2c83398151915254431015610fb25760405162461bcd60e51b815260040161056790611a7e565b60026097541415610fd55760405162461bcd60e51b815260040161056790611b14565b600260975560cb5460c954610ff9916001600160a01b039182169133911684611510565b60cb5461101290339083906001600160a01b0316611394565b506001609755565b6033546001600160a01b031633146110445760405162461bcd60e51b815260040161056790611adf565b6001600160a01b0381166110a95760405162461bcd60e51b815260206004820152602660248201527f4f776e61626c653a206e6577206f776e657220697320746865207a65726f206160448201526564647265737360d01b6064820152608401610567565b6110b281611342565b50565b6001600081905260d2602052600080516020611c2c83398151915283905560cc547fb7404ce2b5a52e61a6b5c9b4585ed65d8cb4b8848d3ee262a356d0c2c46c5f3591906111039085611b4b565b61110d9190611ba2565b600382015581815560cc546111229083611b83565b6001909101555050565b60ce54600090815260d2602052604090205b43816003015410156110b25760ce805490600061115a83611be5565b909155505060ce54600090815260d2602052604090206003820154611180906001611b4b565b6002820181905560cc546001916111979190611b4b565b6111a19190611ba2565b60038201556111ae61154e565b80825560cc546000916111c091611b83565b90508260040154600014156111e15760018301546111de9082611b4b565b90505b6001820155905061113e565b6001600160a01b038216600090815260d360205260408120805482919082908190819061121b906001611b4b565b90505b836001015481116112bf57600081815260028501602090815260408083205480845260d29092529091209092508783118061125c5750438160030154115b1561126757506112bf565b60048101546001600160a01b038a16600090815260058301602052604090205460018301546112969190611b83565b6112a09190611b63565b6112aa9085611b4b565b9350816112b681611be5565b9250505061121e565b826112cb600183611ba2565b95509550505050509250929050565b6040516001600160a01b03831660248201526044810182905261133d90849063a9059cbb60e01b906064015b60408051601f198184030181529190526020810180516001600160e01b03166001600160e01b031990931692909217909152611594565b505050565b603380546001600160a01b038381166001600160a01b0319831681179093556040519116919082907f8be0079c531659141344cd1fd0a4f28419497f9722a3daafe3b4186f6b6457e090600090a35050565b61139c61112c565b60cd80549060006113ac83611be5565b909155505060cd54600090815260d16020526040902080546001600160a01b038086166001600160a01b03199283161783556001830180548583169084161790556004830185905543600384015560ce8054600285015560c954600585018054909416921691909117909155670de0b6b3a7640000600683015554611432903385611666565b61143b336116c3565b60cd546040518481526001600160a01b0384169133917fdc4e2aab08207c15ed02d2a68af2e6df3472e2d7a636be078843d1724917e3a89060200160405180910390a450505050565b6110b2816040516024016114989190611a41565b60408051601f198184030181529190526020810180516001600160e01b031663104c13eb60e21b17905261172e565b61150c82826040516024016114dd929190611a54565b60408051601f198184030181529190526020810180516001600160e01b031663319af33360e01b17905261172e565b5050565b6040516001600160a01b03808516602483015283166044820152606481018290526115489085906323b872dd60e01b90608401611306565b50505050565b600060d05460cf5460d26000600160ce546115699190611ba2565b8152602001908152602001600020600001546115859190611b83565b61158f9190611b63565b905090565b60006115e9826040518060400160405280602081526020017f5361666545524332303a206c6f772d6c6576656c2063616c6c206661696c6564815250856001600160a01b031661174f9092919063ffffffff16565b80519091501561133d578080602001905181019061160791906118a1565b61133d5760405162461bcd60e51b815260206004820152602a60248201527f5361666545524332303a204552433230206f7065726174696f6e20646964206e6044820152691bdd081cdd58d8d9595960b21b6064820152608401610567565b600083815260d26020526040812060048101805491928492611689908490611b4b565b90915550506001600160a01b0383166000908152600582016020526040812080548492906116b8908490611b4b565b909155505050505050565b6001600160a01b038116600090815260d36020908152604080832060018101548452600281019092529091205460ce54811461133d5760018201805490600061170b83611be5565b909155505060ce5460018301546000908152600284016020526040902055505050565b80516a636f6e736f6c652e6c6f67602083016000808483855afa5050505050565b6060610d88848460008585843b6117a85760405162461bcd60e51b815260206004820152601d60248201527f416464726573733a2063616c6c20746f206e6f6e2d636f6e74726163740000006044820152606401610567565b600080866001600160a01b031685876040516117c49190611a25565b60006040518083038185875af1925050503d8060008114611801576040519150601f19603f3d011682016040523d82523d6000602084013e611806565b606091505b5091509150611816828286611821565b979650505050505050565b60608315611830575081610d8b565b8251156118405782518084602001fd5b8160405162461bcd60e51b81526004016105679190611a41565b60006020828403121561186b578081fd5b8135610d8b81611c16565b60008060408385031215611888578081fd5b823561189381611c16565b946020939093013593505050565b6000602082840312156118b2578081fd5b81518015158114610d8b578182fd5b6000602082840312156118d2578081fd5b8151610d8b81611c16565b60008060408385031215611888578182fd5b600080600060608486031215611903578081fd5b833561190e81611c16565b9250602084013561191e81611c16565b929592945050506040919091013590565b600060208284031215611940578081fd5b815160048110610d8b578182fd5b60006020828403121561195f578081fd5b5035919050565b600060208284031215611977578081fd5b5051919050565b60008060408385031215611990578182fd5b8235915060208301356119a281611c16565b809150509250929050565b600080604083850312156119bf578182fd5b50508035926020909101359150565b6000806000606084860312156119e2578283fd5b505081359360208301359350604090920135919050565b60008151808452611a11816020860160208601611bb9565b601f01601f19169290920160200192915050565b60008251611a37818460208701611bb9565b9190910192915050565b602081526000610d8b60208301846119f9565b604081526000611a6760408301856119f9565b905060018060a01b03831660208301529392505050565b6020808252601e908201527f446f6e6174696f6e4d696e65723a204552525f4e4f545f535441525445440000604082015260600190565b60208082526010908201526f14185d5cd8589b194e881c185d5cd95960821b604082015260600190565b6020808252818101527f4f776e61626c653a2063616c6c6572206973206e6f7420746865206f776e6572604082015260600190565b6020808252601f908201527f5265656e7472616e637947756172643a207265656e7472616e742063616c6c00604082015260600190565b60008219821115611b5e57611b5e611c00565b500190565b600082611b7e57634e487b7160e01b81526012600452602481fd5b500490565b6000816000190483118215151615611b9d57611b9d611c00565b500290565b600082821015611bb457611bb4611c00565b500390565b60005b83811015611bd4578181015183820152602001611bbc565b838111156115485750506000910152565b6000600019821415611bf957611bf9611c00565b5060010190565b634e487b7160e01b600052601160045260246000fd5b6001600160a01b03811681146110b257600080fdfeb7404ce2b5a52e61a6b5c9b4585ed65d8cb4b8848d3ee262a356d0c2c46c5f37a26469706673582212209a6c1d9d0586f03cb84d790e6747dd573276c4fe7b208849fb48d9f65f1f524964736f6c63430008040033",
  "devdoc": {
    "events": {
      "ClaimDelayUpdated(uint256,uint256)": {
        "params": {
          "newClaimDelay": "New claimDelay value",
          "oldClaimDelay": "Old claimDelay value"
        }
      },
      "DonationAdded(uint256,address,uint256,address)": {
        "params": {
          "amount": "Value of the donation",
          "donationId": "Id of the donation",
          "donor": "Address of the donner",
          "target": "Address of the receiver (community or treasury)                    or address of the DonationMiner contract otherwise"
        }
      },
      "FirstRewardPeriodParamsUpdated(uint256,uint256,uint256,uint256)": {
        "params": {
          "newFirstRewardPerBlock": "New newFirstRewardPerBlock value For further information regarding each parameter, see *DonationMiner* smart contract initialize method.",
          "newStartingBlock": "New newStartingBlock value",
          "oldFirstRewardPerBlock": "Old oldFirstRewardPerBlock value",
          "oldStartingBlock": "Old oldStartingBlock value"
        }
      },
      "RewardClaimed(address,uint256)": {
        "params": {
          "amount": "Value of the reward",
          "donor": "Address of the donner"
        }
      },
      "RewardPeriodParamsUpdated(uint256,uint256,uint256,uint256,uint256,uint256)": {
        "params": {
          "newDecayDenominator": "New decayDenominator value For further information regarding each parameter, see *DonationMiner* smart contract initialize method.",
          "newDecayNumerator": "New decayNumerator value",
          "newRewardPeriodSize": "New rewardPeriodSize value",
          "oldDecayDenominator": "Old decayDenominator value",
          "oldDecayNumerator": "Old decayNumerator value",
          "oldRewardPeriodSize": "Old rewardPeriodSize value"
        }
      },
      "TransferERC20(address,address,uint256)": {
        "params": {
          "amount": "Amount of the transaction",
          "to": "Address of the receiver",
          "token": "ERC20 token address"
        }
      },
      "TreasuryUpdated(address,address)": {
        "params": {
          "newTreasury": "New treasury address",
          "oldTreasury": "Old treasury address"
        }
      }
    },
    "kind": "dev",
    "methods": {
      "calculateClaimableRewards(address)": {
        "params": {
          "_donorAddress": "address of the donor"
        },
        "returns": {
          "_0": "uint256 sum of all donor's rewards that has not been claimed"
        }
      },
      "calculateClaimableRewardsByPeriodNumber(address,uint256)": {
        "params": {
          "_donorAddress": "address of the donor",
          "_lastPeriodNumber": "last reward period number to be computed"
        },
        "returns": {
          "_0": "uint256 sum of all donor's rewards that has not been claimed until _lastPeriodNumber"
        }
      },
      "donate(uint256)": {
        "params": {
          "_amount": "Amount of cUSD tokens to deposit."
        }
      },
      "donateToCommunity(address,uint256)": {
        "details": "Transfers cUSD tokens to the community contract",
        "params": {
          "_amount": "amount of cUSD tokens to deposit",
          "_community": "address of the community"
        }
      },
      "donorRewardPeriod(address,uint256)": {
        "params": {
          "_donor": "address of the donor",
          "_rewardPeriodIndex": "index of the reward period"
        },
        "returns": {
          "_0": "uint256 number of the reward period"
        }
      },
      "estimateClaimableReward(address)": {
        "params": {
          "_donorAddress": "address of the donor"
        },
        "returns": {
          "_0": "uint256 reward that donor will receive in current reward period if there isn't another donation"
        }
      },
      "owner()": {
        "details": "Returns the address of the current owner."
      },
      "paused()": {
        "details": "Returns true if the contract is paused, and false otherwise."
      },
      "renounceOwnership()": {
        "details": "Leaves the contract without owner. It will not be possible to call `onlyOwner` functions anymore. Can only be called by the current owner. NOTE: Renouncing ownership will leave the contract without an owner, thereby removing any functionality that is only available to the owner."
      },
      "rewardPeriodDonorAmount(uint256,address)": {
        "params": {
          "_donor": "address of the donor",
          "_period": "number of the reward period"
        },
        "returns": {
          "_0": "uint256 amount of cUSD donated by the user in this reward period"
        }
      },
      "transfer(address,address,uint256)": {
        "params": {
          "_amount": "amount of the transaction",
          "_to": "address of the receiver",
          "_token": "address of the ERC20 token"
        }
      },
      "transferOwnership(address)": {
        "details": "Transfers ownership of the contract to a new account (`newOwner`). Can only be called by the current owner."
      },
      "updateClaimDelay(uint256)": {
        "params": {
          "_newClaimDelay": "Number of reward periods a donor has to wait after                            a donation until he will be able to claim his reward"
        }
      },
      "updateFirstRewardPeriodParams(uint256,uint256)": {
        "params": {
          "_firstRewardPerBlock": "value of new firstRewardPerBlock",
          "_startingBlock": "value of new startingBlock"
        }
      },
      "updateRewardPeriodParams(uint256,uint256,uint256)": {
        "params": {
          "_newDecayDenominator": "value of new decayDenominator",
          "_newDecayNumerator": "value of new decayNumerator",
          "_newRewardPeriodSize": "value of new rewardPeriodSize"
        }
      },
      "updateTreasury(address)": {
        "params": {
          "_newTreasury": "address of new treasury_ contract"
        }
      }
    },
    "version": 1
  },
  "userdoc": {
    "events": {
      "ClaimDelayUpdated(uint256,uint256)": {
        "notice": "Triggered when the claimDelay address has been updated"
      },
      "DonationAdded(uint256,address,uint256,address)": {
        "notice": "Triggered when a donation has been added"
      },
      "FirstRewardPeriodParamsUpdated(uint256,uint256,uint256,uint256)": {
        "notice": "Triggered when the first reward period params have been updated"
      },
      "RewardClaimed(address,uint256)": {
        "notice": "Triggered when a donor has claimed his reward"
      },
      "RewardPeriodParamsUpdated(uint256,uint256,uint256,uint256,uint256,uint256)": {
        "notice": "Triggered when reward period params have been updated"
      },
      "TransferERC20(address,address,uint256)": {
        "notice": "Triggered when an amount of an ERC20 has been transferred from this contract to an address"
      },
      "TreasuryUpdated(address,address)": {
        "notice": "Triggered when the treasury address has been updated"
      }
    },
    "kind": "user",
    "methods": {
      "calculateClaimableRewards(address)": {
        "notice": "Calculates the rewards from ended reward periods of a donor"
      },
      "calculateClaimableRewardsByPeriodNumber(address,uint256)": {
        "notice": "Calculates the rewards from ended reward periods of a donor"
      },
      "claimRewards()": {
        "notice": "Transfers to the sender the rewards"
      },
      "donate(uint256)": {
        "notice": "Transfers cUSD tokens to the treasury contract"
      },
      "donorRewardPeriod(address,uint256)": {
        "notice": "Returns a reward period number from a donor reward period list"
      },
      "estimateClaimableReward(address)": {
        "notice": "Calculates the estimate reward of a donor for current reward period"
      },
      "getVersion()": {
        "notice": "Returns the current implementation version"
      },
      "rewardPeriodDonorAmount(uint256,address)": {
        "notice": "Returns the amount of cUSD donated by a user in a reward period"
      },
      "transfer(address,address,uint256)": {
        "notice": "Transfers an amount of an ERC20 from this contract to an address"
      },
      "updateClaimDelay(uint256)": {
        "notice": "Updates claimDelay value"
      },
      "updateFirstRewardPeriodParams(uint256,uint256)": {
        "notice": "Updates first reward period default params"
      },
      "updateRewardPeriodParams(uint256,uint256,uint256)": {
        "notice": "Updates reward period default params"
      },
      "updateTreasury(address)": {
        "notice": "Updates Treasury address"
      }
    },
    "version": 1
  },
  "storageLayout": {
    "storage": [
      {
        "astId": 538,
        "contract": "contracts/token/DonationMinerImplementationV2.sol:DonationMinerImplementationV2",
        "label": "_initialized",
        "offset": 0,
        "slot": "0",
        "type": "t_bool"
      },
      {
        "astId": 541,
        "contract": "contracts/token/DonationMinerImplementationV2.sol:DonationMinerImplementationV2",
        "label": "_initializing",
        "offset": 1,
        "slot": "0",
        "type": "t_bool"
      },
      {
        "astId": 792,
        "contract": "contracts/token/DonationMinerImplementationV2.sol:DonationMinerImplementationV2",
        "label": "__gap",
        "offset": 0,
        "slot": "1",
        "type": "t_array(t_uint256)50_storage"
      },
      {
        "astId": 418,
        "contract": "contracts/token/DonationMinerImplementationV2.sol:DonationMinerImplementationV2",
        "label": "_owner",
        "offset": 0,
        "slot": "51",
        "type": "t_address"
      },
      {
        "astId": 531,
        "contract": "contracts/token/DonationMinerImplementationV2.sol:DonationMinerImplementationV2",
        "label": "__gap",
        "offset": 0,
        "slot": "52",
        "type": "t_array(t_uint256)49_storage"
      },
      {
        "astId": 599,
        "contract": "contracts/token/DonationMinerImplementationV2.sol:DonationMinerImplementationV2",
        "label": "_paused",
        "offset": 0,
        "slot": "101",
        "type": "t_bool"
      },
      {
        "astId": 690,
        "contract": "contracts/token/DonationMinerImplementationV2.sol:DonationMinerImplementationV2",
        "label": "__gap",
        "offset": 0,
        "slot": "102",
        "type": "t_array(t_uint256)49_storage"
      },
      {
        "astId": 705,
        "contract": "contracts/token/DonationMinerImplementationV2.sol:DonationMinerImplementationV2",
        "label": "_status",
        "offset": 0,
        "slot": "151",
        "type": "t_uint256"
      },
      {
        "astId": 748,
        "contract": "contracts/token/DonationMinerImplementationV2.sol:DonationMinerImplementationV2",
        "label": "__gap",
        "offset": 0,
        "slot": "152",
        "type": "t_array(t_uint256)49_storage"
      },
      {
        "astId": 18347,
        "contract": "contracts/token/DonationMinerImplementationV2.sol:DonationMinerImplementationV2",
        "label": "cUSD",
        "offset": 0,
        "slot": "201",
        "type": "t_contract(IERC20)3196"
      },
      {
        "astId": 18351,
        "contract": "contracts/token/DonationMinerImplementationV2.sol:DonationMinerImplementationV2",
        "label": "PACT",
        "offset": 0,
        "slot": "202",
        "type": "t_contract(IERC20)3196"
      },
      {
        "astId": 18355,
        "contract": "contracts/token/DonationMinerImplementationV2.sol:DonationMinerImplementationV2",
        "label": "treasury",
        "offset": 0,
        "slot": "203",
        "type": "t_contract(ITreasury)18931"
      },
      {
        "astId": 18358,
        "contract": "contracts/token/DonationMinerImplementationV2.sol:DonationMinerImplementationV2",
        "label": "rewardPeriodSize",
        "offset": 0,
        "slot": "204",
        "type": "t_uint256"
      },
      {
        "astId": 18361,
        "contract": "contracts/token/DonationMinerImplementationV2.sol:DonationMinerImplementationV2",
        "label": "donationCount",
        "offset": 0,
        "slot": "205",
        "type": "t_uint256"
      },
      {
        "astId": 18364,
        "contract": "contracts/token/DonationMinerImplementationV2.sol:DonationMinerImplementationV2",
        "label": "rewardPeriodCount",
        "offset": 0,
        "slot": "206",
        "type": "t_uint256"
      },
      {
        "astId": 18367,
        "contract": "contracts/token/DonationMinerImplementationV2.sol:DonationMinerImplementationV2",
        "label": "decayNumerator",
        "offset": 0,
        "slot": "207",
        "type": "t_uint256"
      },
      {
        "astId": 18370,
        "contract": "contracts/token/DonationMinerImplementationV2.sol:DonationMinerImplementationV2",
        "label": "decayDenominator",
        "offset": 0,
        "slot": "208",
        "type": "t_uint256"
      },
      {
        "astId": 18376,
        "contract": "contracts/token/DonationMinerImplementationV2.sol:DonationMinerImplementationV2",
        "label": "donations",
        "offset": 0,
        "slot": "209",
        "type": "t_mapping(t_uint256,t_struct(Donation)18655_storage)"
      },
      {
        "astId": 18382,
        "contract": "contracts/token/DonationMinerImplementationV2.sol:DonationMinerImplementationV2",
        "label": "rewardPeriods",
        "offset": 0,
        "slot": "210",
        "type": "t_mapping(t_uint256,t_struct(RewardPeriod)18630_storage)"
      },
      {
        "astId": 18388,
        "contract": "contracts/token/DonationMinerImplementationV2.sol:DonationMinerImplementationV2",
        "label": "donors",
        "offset": 0,
        "slot": "211",
        "type": "t_mapping(t_address,t_struct(Donor)18639_storage)"
      },
      {
        "astId": 18391,
        "contract": "contracts/token/DonationMinerImplementationV2.sol:DonationMinerImplementationV2",
        "label": "claimDelay",
        "offset": 0,
        "slot": "212",
        "type": "t_uint256"
      }
    ],
    "types": {
      "t_address": {
        "encoding": "inplace",
        "label": "address",
        "numberOfBytes": "20"
      },
      "t_array(t_uint256)49_storage": {
        "base": "t_uint256",
        "encoding": "inplace",
        "label": "uint256[49]",
        "numberOfBytes": "1568"
      },
      "t_array(t_uint256)50_storage": {
        "base": "t_uint256",
        "encoding": "inplace",
        "label": "uint256[50]",
        "numberOfBytes": "1600"
      },
      "t_bool": {
        "encoding": "inplace",
        "label": "bool",
        "numberOfBytes": "1"
      },
      "t_contract(IERC20)3196": {
        "encoding": "inplace",
        "label": "contract IERC20",
        "numberOfBytes": "20"
      },
      "t_contract(ITreasury)18931": {
        "encoding": "inplace",
        "label": "contract ITreasury",
        "numberOfBytes": "20"
      },
      "t_mapping(t_address,t_struct(Donor)18639_storage)": {
        "encoding": "mapping",
        "key": "t_address",
        "label": "mapping(address => struct IDonationMinerV2.Donor)",
        "numberOfBytes": "32",
        "value": "t_struct(Donor)18639_storage"
      },
      "t_mapping(t_address,t_uint256)": {
        "encoding": "mapping",
        "key": "t_address",
        "label": "mapping(address => uint256)",
        "numberOfBytes": "32",
        "value": "t_uint256"
      },
      "t_mapping(t_uint256,t_struct(Donation)18655_storage)": {
        "encoding": "mapping",
        "key": "t_uint256",
        "label": "mapping(uint256 => struct IDonationMinerV2.Donation)",
        "numberOfBytes": "32",
        "value": "t_struct(Donation)18655_storage"
      },
      "t_mapping(t_uint256,t_struct(RewardPeriod)18630_storage)": {
        "encoding": "mapping",
        "key": "t_uint256",
        "label": "mapping(uint256 => struct IDonationMinerV2.RewardPeriod)",
        "numberOfBytes": "32",
        "value": "t_struct(RewardPeriod)18630_storage"
      },
      "t_mapping(t_uint256,t_uint256)": {
        "encoding": "mapping",
        "key": "t_uint256",
        "label": "mapping(uint256 => uint256)",
        "numberOfBytes": "32",
        "value": "t_uint256"
      },
      "t_struct(Donation)18655_storage": {
        "encoding": "inplace",
        "label": "struct IDonationMinerV2.Donation",
        "members": [
          {
            "astId": 18641,
            "contract": "contracts/token/DonationMinerImplementationV2.sol:DonationMinerImplementationV2",
            "label": "donor",
            "offset": 0,
            "slot": "0",
            "type": "t_address"
          },
          {
            "astId": 18643,
            "contract": "contracts/token/DonationMinerImplementationV2.sol:DonationMinerImplementationV2",
            "label": "target",
            "offset": 0,
            "slot": "1",
            "type": "t_address"
          },
          {
            "astId": 18645,
            "contract": "contracts/token/DonationMinerImplementationV2.sol:DonationMinerImplementationV2",
            "label": "rewardPeriod",
            "offset": 0,
            "slot": "2",
            "type": "t_uint256"
          },
          {
            "astId": 18647,
            "contract": "contracts/token/DonationMinerImplementationV2.sol:DonationMinerImplementationV2",
            "label": "blockNumber",
            "offset": 0,
            "slot": "3",
            "type": "t_uint256"
          },
          {
            "astId": 18649,
            "contract": "contracts/token/DonationMinerImplementationV2.sol:DonationMinerImplementationV2",
            "label": "amount",
            "offset": 0,
            "slot": "4",
            "type": "t_uint256"
          },
          {
            "astId": 18652,
            "contract": "contracts/token/DonationMinerImplementationV2.sol:DonationMinerImplementationV2",
            "label": "token",
            "offset": 0,
            "slot": "5",
            "type": "t_contract(IERC20)3196"
          },
          {
            "astId": 18654,
            "contract": "contracts/token/DonationMinerImplementationV2.sol:DonationMinerImplementationV2",
            "label": "tokenPrice",
            "offset": 0,
            "slot": "6",
            "type": "t_uint256"
          }
        ],
        "numberOfBytes": "224"
      },
      "t_struct(Donor)18639_storage": {
        "encoding": "inplace",
        "label": "struct IDonationMinerV2.Donor",
        "members": [
          {
            "astId": 18632,
            "contract": "contracts/token/DonationMinerImplementationV2.sol:DonationMinerImplementationV2",
            "label": "lastClaim",
            "offset": 0,
            "slot": "0",
            "type": "t_uint256"
          },
          {
            "astId": 18634,
            "contract": "contracts/token/DonationMinerImplementationV2.sol:DonationMinerImplementationV2",
            "label": "rewardPeriodsCount",
            "offset": 0,
            "slot": "1",
            "type": "t_uint256"
          },
          {
            "astId": 18638,
            "contract": "contracts/token/DonationMinerImplementationV2.sol:DonationMinerImplementationV2",
            "label": "rewardPeriods",
            "offset": 0,
            "slot": "2",
            "type": "t_mapping(t_uint256,t_uint256)"
          }
        ],
        "numberOfBytes": "96"
      },
      "t_struct(RewardPeriod)18630_storage": {
        "encoding": "inplace",
        "label": "struct IDonationMinerV2.RewardPeriod",
        "members": [
          {
            "astId": 18617,
            "contract": "contracts/token/DonationMinerImplementationV2.sol:DonationMinerImplementationV2",
            "label": "rewardPerBlock",
            "offset": 0,
            "slot": "0",
            "type": "t_uint256"
          },
          {
            "astId": 18619,
            "contract": "contracts/token/DonationMinerImplementationV2.sol:DonationMinerImplementationV2",
            "label": "rewardAmount",
            "offset": 0,
            "slot": "1",
            "type": "t_uint256"
          },
          {
            "astId": 18621,
            "contract": "contracts/token/DonationMinerImplementationV2.sol:DonationMinerImplementationV2",
            "label": "startBlock",
            "offset": 0,
            "slot": "2",
            "type": "t_uint256"
          },
          {
            "astId": 18623,
            "contract": "contracts/token/DonationMinerImplementationV2.sol:DonationMinerImplementationV2",
            "label": "endBlock",
            "offset": 0,
            "slot": "3",
            "type": "t_uint256"
          },
          {
            "astId": 18625,
            "contract": "contracts/token/DonationMinerImplementationV2.sol:DonationMinerImplementationV2",
            "label": "donationsAmount",
            "offset": 0,
            "slot": "4",
            "type": "t_uint256"
          },
          {
            "astId": 18629,
            "contract": "contracts/token/DonationMinerImplementationV2.sol:DonationMinerImplementationV2",
            "label": "donorAmounts",
            "offset": 0,
            "slot": "5",
            "type": "t_mapping(t_address,t_uint256)"
          }
        ],
        "numberOfBytes": "192"
      },
      "t_uint256": {
        "encoding": "inplace",
        "label": "uint256",
        "numberOfBytes": "32"
      }
    }
  }
}