{
  "address": "0x9FEC0F80415690F99A3BdCcb9c48Cf17B77F2a73",
  "abi": [
    {
      "anonymous": false,
      "inputs": [
        {
          "indexed": false,
          "internalType": "uint256",
          "name": "amount",
          "type": "uint256"
        },
        {
          "indexed": false,
          "internalType": "uint256",
          "name": "advancePaymentLeft",
          "type": "uint256"
        }
      ],
      "name": "AdvancePaymentDecreased",
      "type": "event"
    },
    {
      "anonymous": false,
      "inputs": [
        {
          "indexed": false,
          "internalType": "uint256",
          "name": "amount",
          "type": "uint256"
        }
      ],
      "name": "Claimed",
      "type": "event"
    },
    {
      "anonymous": false,
      "inputs": [
        {
          "indexed": true,
          "internalType": "address",
          "name": "previousOwner",
          "type": "address"
        },
        {
          "indexed": true,
          "internalType": "address",
          "name": "newOwner",
          "type": "address"
        }
      ],
      "name": "OwnershipTransferred",
      "type": "event"
    },
    {
      "anonymous": false,
      "inputs": [
        {
          "indexed": false,
          "internalType": "address",
          "name": "account",
          "type": "address"
        }
      ],
      "name": "Paused",
      "type": "event"
    },
    {
      "anonymous": false,
      "inputs": [
        {
          "indexed": true,
          "internalType": "address",
          "name": "token",
          "type": "address"
        },
        {
          "indexed": true,
          "internalType": "address",
          "name": "to",
          "type": "address"
        },
        {
          "indexed": false,
          "internalType": "uint256",
          "name": "amount",
          "type": "uint256"
        }
      ],
      "name": "TransferERC20",
      "type": "event"
    },
    {
      "anonymous": false,
      "inputs": [
        {
          "indexed": false,
          "internalType": "address",
          "name": "account",
          "type": "address"
        }
      ],
      "name": "Unpaused",
      "type": "event"
    },
    {
      "inputs": [],
      "name": "PACT",
      "outputs": [
        {
          "internalType": "contract IERC20",
          "name": "",
          "type": "address"
        }
      ],
      "stateMutability": "view",
      "type": "function"
    },
    {
      "inputs": [],
      "name": "advancePayment",
      "outputs": [
        {
          "internalType": "uint256",
          "name": "",
          "type": "uint256"
        }
      ],
      "stateMutability": "view",
      "type": "function"
    },
    {
      "inputs": [],
      "name": "claim",
      "outputs": [],
      "stateMutability": "nonpayable",
      "type": "function"
    },
    {
      "inputs": [],
      "name": "donationMiner",
      "outputs": [
        {
          "internalType": "contract IDonationMiner",
          "name": "",
          "type": "address"
        }
      ],
      "stateMutability": "view",
      "type": "function"
    },
    {
      "inputs": [],
      "name": "getVersion",
      "outputs": [
        {
          "internalType": "uint256",
          "name": "",
          "type": "uint256"
        }
      ],
      "stateMutability": "pure",
      "type": "function"
    },
    {
      "inputs": [],
      "name": "impactLabs",
      "outputs": [
        {
          "internalType": "address",
          "name": "",
          "type": "address"
        }
      ],
      "stateMutability": "view",
      "type": "function"
    },
    {
      "inputs": [
        {
          "internalType": "address",
          "name": "_impactLabs",
          "type": "address"
        },
        {
          "internalType": "contract IERC20",
          "name": "_PACT",
          "type": "address"
        },
        {
          "internalType": "contract IDonationMiner",
          "name": "_donationMiner",
          "type": "address"
        },
        {
          "internalType": "uint256",
          "name": "_advancePayment",
          "type": "uint256"
        }
      ],
      "name": "initialize",
      "outputs": [],
      "stateMutability": "nonpayable",
      "type": "function"
    },
    {
      "inputs": [],
      "name": "nextRewardPeriod",
      "outputs": [
        {
          "internalType": "uint256",
          "name": "",
          "type": "uint256"
        }
      ],
      "stateMutability": "view",
      "type": "function"
    },
    {
      "inputs": [],
      "name": "owner",
      "outputs": [
        {
          "internalType": "address",
          "name": "",
          "type": "address"
        }
      ],
      "stateMutability": "view",
      "type": "function"
    },
    {
      "inputs": [],
      "name": "paused",
      "outputs": [
        {
          "internalType": "bool",
          "name": "",
          "type": "bool"
        }
      ],
      "stateMutability": "view",
      "type": "function"
    },
    {
      "inputs": [],
      "name": "renounceOwnership",
      "outputs": [],
      "stateMutability": "nonpayable",
      "type": "function"
    },
    {
      "inputs": [
        {
          "internalType": "contract IERC20",
          "name": "_token",
          "type": "address"
        },
        {
          "internalType": "address",
          "name": "_to",
          "type": "address"
        },
        {
          "internalType": "uint256",
          "name": "_amount",
          "type": "uint256"
        }
      ],
      "name": "transfer",
      "outputs": [],
      "stateMutability": "nonpayable",
      "type": "function"
    },
    {
      "inputs": [
        {
          "internalType": "address",
          "name": "newOwner",
          "type": "address"
        }
      ],
      "name": "transferOwnership",
      "outputs": [],
      "stateMutability": "nonpayable",
      "type": "function"
    }
  ],
  "transactionHash": "0x3eaf9faa6db9463fc65cd8982b2efd5e8116d5abd3fcc472dfe5a749e8fa7adb",
  "args": [],
  "numDeployments": 1,
  "solcInputHash": "265387198c8b172ef2646ca4e37830be",
  "bytecode": "0x608060405234801561001057600080fd5b506111bb806100206000396000f3fe608060405234801561001057600080fd5b50600436106100cf5760003560e01c8063715018a61161008c578063beabacc811610066578063beabacc814610173578063cf756fdf14610186578063e36d4f3e14610199578063f2fde38b146101ac57600080fd5b8063715018a614610151578063831d2ac3146101595780638da5cb5b1461016257600080fd5b80630d8e6e2c146100d4578063385eeda8146100ea5780633b9a0176146101155780634e71d92d1461012857806356d4dcb2146101325780635c975abb1461013b575b600080fd5b60015b6040519081526020015b60405180910390f35b60c9546100fd906001600160a01b031681565b6040516001600160a01b0390911681526020016100e1565b60ca546100fd906001600160a01b031681565b6101306101bf565b005b6100d760cc5481565b60655460ff1660405190151581526020016100e1565b610130610469565b6100d760cd5481565b6033546001600160a01b03166100fd565b610130610181366004610f3b565b61049f565b610130610194366004610ecb565b61058c565b60cb546100fd906001600160a01b031681565b6101306101ba366004610eaf565b61081b565b60655460ff161561020a5760405162461bcd60e51b815260206004820152601060248201526f14185d5cd8589b194e881c185d5cd95960821b60448201526064015b60405180910390fd5b60cc5460cb546040805163030e11d360e61b815290516000926001600160a01b03169163c38474c0916004808301926020929190829003018186803b15801561025257600080fd5b505afa158015610266573d6000803e3d6000fd5b505050506040513d601f19601f8201168201806040525081019061028a9190610f7b565b90506000806000805b8486116103815760cb54604051638252097d60e01b8152600481018890526001600160a01b0390911690638252097d9060240160a06040518083038186803b1580156102de57600080fd5b505afa1580156102f2573d6000803e3d6000fd5b505050506040513d601f19601f820116820180604052508101906103169190610f93565b5092965094509092505043821061032c57610381565b60048461033985856110f8565b6103449060016110a1565b61034e91906110d9565b6103599060036110d9565b61036391906110b9565b61036d90826110a1565b9050856103798161113f565b965050610293565b60cd5461039657610391816108b6565b61045c565b8060cd54106103f8578060cd60008282546103b191906110f8565b909155505060cd546040805183815260208101929092527f3bb316f43c793154a3a0fb64e2df25a526bb089ed8bd49e71b228ebc907b9d7a910160405180910390a161045c565b600060cd548261040891906110f8565b600060cd5590507f3bb316f43c793154a3a0fb64e2df25a526bb089ed8bd49e71b228ebc907b9d7a61043a82846110f8565b60408051918252600060208301520160405180910390a161045a816108b6565b505b50505060cc929092555050565b6033546001600160a01b031633146104935760405162461bcd60e51b815260040161020190611021565b61049d6000610a65565b565b6033546001600160a01b031633146104c95760405162461bcd60e51b815260040161020190611021565b6002609754141561051c5760405162461bcd60e51b815260206004820152601f60248201527f5265656e7472616e637947756172643a207265656e7472616e742063616c6c006044820152606401610201565b60026097556105356001600160a01b0384168383610ab7565b816001600160a01b0316836001600160a01b03167f9b035625e569d1d2bf54830a290aefba7ab11610ba8490871dc62b86b63a89568360405161057a91815260200190565b60405180910390a35050600160975550565b600054610100900460ff166105a75760005460ff16156105ab565b303b155b61060e5760405162461bcd60e51b815260206004820152602e60248201527f496e697469616c697a61626c653a20636f6e747261637420697320616c72656160448201526d191e481a5b9a5d1a585b1a5e995960921b6064820152608401610201565b600054610100900460ff16158015610630576000805461ffff19166101011790555b6001600160a01b0385166106ac5760405162461bcd60e51b815260206004820152603a60248201527f496d706163744c61627356657374696e673a3a696e697469616c697a653a206960448201527f6d706163744c6162735f2061646472657373206e6f74207365740000000000006064820152608401610201565b6001600160a01b03841661071e5760405162461bcd60e51b815260206004820152603360248201527f496d706163744c61627356657374696e673a3a696e697469616c697a653a20506044820152721050d5081859191c995cdcc81b9bdd081cd95d606a1b6064820152608401610201565b6001600160a01b03831661079a5760405162461bcd60e51b815260206004820152603d60248201527f496d706163744c61627356657374696e673a3a696e697469616c697a653a206460448201527f6f6e6174696f6e4d696e65725f2061646472657373206e6f74207365740000006064820152608401610201565b6107a2610b0e565b6107aa610b45565b6107b2610b7c565b60c980546001600160a01b038088166001600160a01b03199283161790925560ca805487841690831617905560cb80549286169290911691909117905560cd829055600160cc55610802826108b6565b8015610814576000805461ff00191690555b5050505050565b6033546001600160a01b031633146108455760405162461bcd60e51b815260040161020190611021565b6001600160a01b0381166108aa5760405162461bcd60e51b815260206004820152602660248201527f4f776e61626c653a206e6577206f776e657220697320746865207a65726f206160448201526564647265737360d01b6064820152608401610201565b6108b381610a65565b50565b600260975414156109095760405162461bcd60e51b815260206004820152601f60248201527f5265656e7472616e637947756172643a207265656e7472616e742063616c6c006044820152606401610201565b60026097558015610a2a5760ca546040516370a0823160e01b815230600482015282916001600160a01b0316906370a082319060240160206040518083038186803b15801561095757600080fd5b505afa15801561096b573d6000803e3d6000fd5b505050506040513d601f19601f8201168201806040525081019061098f9190610f7b565b1015610a0d5760405162461bcd60e51b815260206004820152604160248201527f496d706163744c61627356657374696e673a3a7472616e73666572546f496d7060448201527f6163744c6162733a204552525f5245574152445f544f4b454e5f42414c414e436064820152604560f81b608482015260a401610201565b60c95460ca54610a2a916001600160a01b03918216911683610ab7565b6040518181527f7a355715549cfe7c1cba26304350343fbddc4b4f72d3ce3e7c27117dd20b5cb89060200160405180910390a1506001609755565b603380546001600160a01b038381166001600160a01b0319831681179093556040519116919082907f8be0079c531659141344cd1fd0a4f28419497f9722a3daafe3b4186f6b6457e090600090a35050565b604080516001600160a01b038416602482015260448082018490528251808303909101815260649091019091526020810180516001600160e01b031663a9059cbb60e01b179052610b09908490610bab565b505050565b600054610100900460ff16610b355760405162461bcd60e51b815260040161020190611056565b610b3d610c7d565b61049d610ca4565b600054610100900460ff16610b6c5760405162461bcd60e51b815260040161020190611056565b610b74610c7d565b61049d610cd4565b600054610100900460ff16610ba35760405162461bcd60e51b815260040161020190611056565b61049d610d07565b6000610c00826040518060400160405280602081526020017f5361666545524332303a206c6f772d6c6576656c2063616c6c206661696c6564815250856001600160a01b0316610d359092919063ffffffff16565b805190915015610b095780806020019051810190610c1e9190610f1b565b610b095760405162461bcd60e51b815260206004820152602a60248201527f5361666545524332303a204552433230206f7065726174696f6e20646964206e6044820152691bdd081cdd58d8d9595960b21b6064820152608401610201565b600054610100900460ff1661049d5760405162461bcd60e51b815260040161020190611056565b600054610100900460ff16610ccb5760405162461bcd60e51b815260040161020190611056565b61049d33610a65565b600054610100900460ff16610cfb5760405162461bcd60e51b815260040161020190611056565b6065805460ff19169055565b600054610100900460ff16610d2e5760405162461bcd60e51b815260040161020190611056565b6001609755565b6060610d448484600085610d4e565b90505b9392505050565b606082471015610daf5760405162461bcd60e51b815260206004820152602660248201527f416464726573733a20696e73756666696369656e742062616c616e636520666f6044820152651c8818d85b1b60d21b6064820152608401610201565b843b610dfd5760405162461bcd60e51b815260206004820152601d60248201527f416464726573733a2063616c6c20746f206e6f6e2d636f6e74726163740000006044820152606401610201565b600080866001600160a01b03168587604051610e199190610fd2565b60006040518083038185875af1925050503d8060008114610e56576040519150601f19603f3d011682016040523d82523d6000602084013e610e5b565b606091505b5091509150610e6b828286610e76565b979650505050505050565b60608315610e85575081610d47565b825115610e955782518084602001fd5b8160405162461bcd60e51b81526004016102019190610fee565b600060208284031215610ec0578081fd5b8135610d4781611170565b60008060008060808587031215610ee0578283fd5b8435610eeb81611170565b93506020850135610efb81611170565b92506040850135610f0b81611170565b9396929550929360600135925050565b600060208284031215610f2c578081fd5b81518015158114610d47578182fd5b600080600060608486031215610f4f578283fd5b8335610f5a81611170565b92506020840135610f6a81611170565b929592945050506040919091013590565b600060208284031215610f8c578081fd5b5051919050565b600080600080600060a08688031215610faa578081fd5b5050835160208501516040860151606087015160809097015192989197509594509092509050565b60008251610fe481846020870161110f565b9190910192915050565b602081526000825180602084015261100d81604085016020870161110f565b601f01601f19169190910160400192915050565b6020808252818101527f4f776e61626c653a2063616c6c6572206973206e6f7420746865206f776e6572604082015260600190565b6020808252602b908201527f496e697469616c697a61626c653a20636f6e7472616374206973206e6f74206960408201526a6e697469616c697a696e6760a81b606082015260800190565b600082198211156110b4576110b461115a565b500190565b6000826110d457634e487b7160e01b81526012600452602481fd5b500490565b60008160001904831182151516156110f3576110f361115a565b500290565b60008282101561110a5761110a61115a565b500390565b60005b8381101561112a578181015183820152602001611112565b83811115611139576000848401525b50505050565b60006000198214156111535761115361115a565b5060010190565b634e487b7160e01b600052601160045260246000fd5b6001600160a01b03811681146108b357600080fdfea26469706673582212202b76e0d7fac2c8f1a85c17f06b8ee7e10ef2191a8531f1933dfa07e357f7b32d64736f6c63430008040033",
  "devdoc": {
    "events": {
      "AdvancePaymentDecreased(uint256,uint256)": {
        "params": {
          "advancePaymentLeft": "Value of the advancePayment left",
          "amount": "Value of the decrease"
        }
      },
      "Claimed(uint256)": {
        "params": {
          "amount": "Value of the claim"
        }
      },
      "TransferERC20(address,address,uint256)": {
        "params": {
          "amount": "Amount of the transaction",
          "to": "Address of the receiver",
          "token": "ERC20 token address"
        }
      }
    },
    "kind": "dev",
    "methods": {
      "initialize(address,address,address,uint256)": {
        "params": {
          "_PACT": "Address of the PACT Token",
          "_advancePayment": "The amount of PACT that will be given in advance to ImpactLabs",
          "_impactLabs": "Address of the ImpactLabs"
        }
      },
      "owner()": {
        "details": "Returns the address of the current owner."
      },
      "paused()": {
        "details": "Returns true if the contract is paused, and false otherwise."
      },
      "renounceOwnership()": {
        "details": "Leaves the contract without owner. It will not be possible to call `onlyOwner` functions anymore. Can only be called by the current owner. NOTE: Renouncing ownership will leave the contract without an owner, thereby removing any functionality that is only available to the owner."
      },
      "transfer(address,address,uint256)": {
        "params": {
          "_amount": "amount of the transaction",
          "_to": "address of the receiver",
          "_token": "address of the ERC20 token"
        }
      },
      "transferOwnership(address)": {
        "details": "Transfers ownership of the contract to a new account (`newOwner`). Can only be called by the current owner."
      }
    },
    "version": 1
  },
  "userdoc": {
    "events": {
      "AdvancePaymentDecreased(uint256,uint256)": {
        "notice": "Triggered when advancePayment has been decreased"
      },
      "Claimed(uint256)": {
        "notice": "Triggered when ImpactLabs has claimed"
      },
      "TransferERC20(address,address,uint256)": {
        "notice": "Triggered when an amount of an ERC20 has been transferred from this contract to an address"
      }
    },
    "kind": "user",
    "methods": {
      "claim()": {
        "notice": "Transfers PACT to ImpactLabs it will not be transferred PACTs to ImpactLabs until the entire amount payed in advance will be covered"
      },
      "getVersion()": {
        "notice": "Returns the current implementation version"
      },
      "initialize(address,address,address,uint256)": {
        "notice": "Used to initialize a new ImpactLabsVesting contract !!! before calling this method, you must ensure that there is enough PACTs on the contract address"
      },
      "transfer(address,address,uint256)": {
        "notice": "Transfers an amount of an ERC20 from this contract to an address"
      }
    },
    "version": 1
  },
  "storageLayout": {
    "storage": [
      {
        "astId": 542,
        "contract": "contracts/token/ImpactLabsVestingImplementation.sol:ImpactLabsVestingImplementation",
        "label": "_initialized",
        "offset": 0,
        "slot": "0",
        "type": "t_bool"
      },
      {
        "astId": 545,
        "contract": "contracts/token/ImpactLabsVestingImplementation.sol:ImpactLabsVestingImplementation",
        "label": "_initializing",
        "offset": 1,
        "slot": "0",
        "type": "t_bool"
      },
      {
        "astId": 1068,
        "contract": "contracts/token/ImpactLabsVestingImplementation.sol:ImpactLabsVestingImplementation",
        "label": "__gap",
        "offset": 0,
        "slot": "1",
        "type": "t_array(t_uint256)50_storage"
      },
      {
        "astId": 420,
        "contract": "contracts/token/ImpactLabsVestingImplementation.sol:ImpactLabsVestingImplementation",
        "label": "_owner",
        "offset": 0,
        "slot": "51",
        "type": "t_address"
      },
      {
        "astId": 534,
        "contract": "contracts/token/ImpactLabsVestingImplementation.sol:ImpactLabsVestingImplementation",
        "label": "__gap",
        "offset": 0,
        "slot": "52",
        "type": "t_array(t_uint256)49_storage"
      },
      {
        "astId": 630,
        "contract": "contracts/token/ImpactLabsVestingImplementation.sol:ImpactLabsVestingImplementation",
        "label": "_paused",
        "offset": 0,
        "slot": "101",
        "type": "t_bool"
      },
      {
        "astId": 721,
        "contract": "contracts/token/ImpactLabsVestingImplementation.sol:ImpactLabsVestingImplementation",
        "label": "__gap",
        "offset": 0,
        "slot": "102",
        "type": "t_array(t_uint256)49_storage"
      },
      {
        "astId": 736,
        "contract": "contracts/token/ImpactLabsVestingImplementation.sol:ImpactLabsVestingImplementation",
        "label": "_status",
        "offset": 0,
        "slot": "151",
        "type": "t_uint256"
      },
      {
        "astId": 779,
        "contract": "contracts/token/ImpactLabsVestingImplementation.sol:ImpactLabsVestingImplementation",
        "label": "__gap",
        "offset": 0,
        "slot": "152",
        "type": "t_array(t_uint256)49_storage"
      },
      {
        "astId": 18996,
        "contract": "contracts/token/ImpactLabsVestingImplementation.sol:ImpactLabsVestingImplementation",
        "label": "impactLabs",
        "offset": 0,
        "slot": "201",
        "type": "t_address"
      },
      {
        "astId": 19000,
        "contract": "contracts/token/ImpactLabsVestingImplementation.sol:ImpactLabsVestingImplementation",
        "label": "PACT",
        "offset": 0,
        "slot": "202",
        "type": "t_contract(IERC20)3447"
      },
      {
        "astId": 19004,
        "contract": "contracts/token/ImpactLabsVestingImplementation.sol:ImpactLabsVestingImplementation",
        "label": "donationMiner",
        "offset": 0,
        "slot": "203",
        "type": "t_contract(IDonationMiner)18903"
      },
      {
        "astId": 19007,
        "contract": "contracts/token/ImpactLabsVestingImplementation.sol:ImpactLabsVestingImplementation",
        "label": "nextRewardPeriod",
        "offset": 0,
        "slot": "204",
        "type": "t_uint256"
      },
      {
        "astId": 19010,
        "contract": "contracts/token/ImpactLabsVestingImplementation.sol:ImpactLabsVestingImplementation",
        "label": "advancePayment",
        "offset": 0,
        "slot": "205",
        "type": "t_uint256"
      }
    ],
    "types": {
      "t_address": {
        "encoding": "inplace",
        "label": "address",
        "numberOfBytes": "20"
      },
      "t_array(t_uint256)49_storage": {
        "base": "t_uint256",
        "encoding": "inplace",
        "label": "uint256[49]",
        "numberOfBytes": "1568"
      },
      "t_array(t_uint256)50_storage": {
        "base": "t_uint256",
        "encoding": "inplace",
        "label": "uint256[50]",
        "numberOfBytes": "1600"
      },
      "t_bool": {
        "encoding": "inplace",
        "label": "bool",
        "numberOfBytes": "1"
      },
      "t_contract(IDonationMiner)18903": {
        "encoding": "inplace",
        "label": "contract IDonationMiner",
        "numberOfBytes": "20"
      },
      "t_contract(IERC20)3447": {
        "encoding": "inplace",
        "label": "contract IERC20",
        "numberOfBytes": "20"
      },
      "t_uint256": {
        "encoding": "inplace",
        "label": "uint256",
        "numberOfBytes": "32"
      }
    }
  }
}