{
  "address": "0xbC97a0999816b1F5a47070681Eeb65f677F69AAb",
  "abi": [
    {
      "inputs": [
        {
          "internalType": "address",
          "name": "timelock_",
          "type": "address"
        },
        {
          "internalType": "address",
          "name": "token_",
          "type": "address"
        },
        {
          "internalType": "address",
          "name": "releaseToken_",
          "type": "address"
        },
        {
          "internalType": "address",
          "name": "admin_",
          "type": "address"
        },
        {
          "internalType": "address",
          "name": "implementation_",
          "type": "address"
        },
        {
          "internalType": "uint256",
          "name": "votingPeriod_",
          "type": "uint256"
        },
        {
          "internalType": "uint256",
          "name": "votingDelay_",
          "type": "uint256"
        },
        {
          "internalType": "uint256",
          "name": "proposalThreshold_",
          "type": "uint256"
        }
      ],
      "stateMutability": "nonpayable",
      "type": "constructor"
    },
    {
      "anonymous": false,
      "inputs": [
        {
          "indexed": false,
          "internalType": "address",
          "name": "oldAdmin",
          "type": "address"
        },
        {
          "indexed": false,
          "internalType": "address",
          "name": "newAdmin",
          "type": "address"
        }
      ],
      "name": "NewAdmin",
      "type": "event"
    },
    {
      "anonymous": false,
      "inputs": [
        {
          "indexed": false,
          "internalType": "address",
          "name": "oldImplementation",
          "type": "address"
        },
        {
          "indexed": false,
          "internalType": "address",
          "name": "newImplementation",
          "type": "address"
        }
      ],
      "name": "NewImplementation",
      "type": "event"
    },
    {
      "anonymous": false,
      "inputs": [
        {
          "indexed": false,
          "internalType": "address",
          "name": "oldPendingAdmin",
          "type": "address"
        },
        {
          "indexed": false,
          "internalType": "address",
          "name": "newPendingAdmin",
          "type": "address"
        }
      ],
      "name": "NewPendingAdmin",
      "type": "event"
    },
    {
      "anonymous": false,
      "inputs": [
        {
          "indexed": false,
          "internalType": "uint256",
          "name": "id",
          "type": "uint256"
        }
      ],
      "name": "ProposalCanceled",
      "type": "event"
    },
    {
      "anonymous": false,
      "inputs": [
        {
          "indexed": false,
          "internalType": "uint256",
          "name": "id",
          "type": "uint256"
        },
        {
          "indexed": false,
          "internalType": "address",
          "name": "proposer",
          "type": "address"
        },
        {
          "indexed": false,
          "internalType": "address[]",
          "name": "targets",
          "type": "address[]"
        },
        {
          "indexed": false,
          "internalType": "uint256[]",
          "name": "values",
          "type": "uint256[]"
        },
        {
          "indexed": false,
          "internalType": "string[]",
          "name": "signatures",
          "type": "string[]"
        },
        {
          "indexed": false,
          "internalType": "bytes[]",
          "name": "calldatas",
          "type": "bytes[]"
        },
        {
          "indexed": false,
          "internalType": "uint256",
          "name": "startBlock",
          "type": "uint256"
        },
        {
          "indexed": false,
          "internalType": "uint256",
          "name": "endBlock",
          "type": "uint256"
        },
        {
          "indexed": false,
          "internalType": "string",
          "name": "description",
          "type": "string"
        }
      ],
      "name": "ProposalCreated",
      "type": "event"
    },
    {
      "anonymous": false,
      "inputs": [
        {
          "indexed": false,
          "internalType": "uint256",
          "name": "id",
          "type": "uint256"
        }
      ],
      "name": "ProposalExecuted",
      "type": "event"
    },
    {
      "anonymous": false,
      "inputs": [
        {
          "indexed": false,
          "internalType": "uint256",
          "name": "id",
          "type": "uint256"
        },
        {
          "indexed": false,
          "internalType": "uint256",
          "name": "eta",
          "type": "uint256"
        }
      ],
      "name": "ProposalQueued",
      "type": "event"
    },
    {
      "anonymous": false,
      "inputs": [
        {
          "indexed": false,
          "internalType": "uint256",
          "name": "oldProposalThreshold",
          "type": "uint256"
        },
        {
          "indexed": false,
          "internalType": "uint256",
          "name": "newProposalThreshold",
          "type": "uint256"
        }
      ],
      "name": "ProposalThresholdSet",
      "type": "event"
    },
    {
      "anonymous": false,
      "inputs": [
        {
          "indexed": true,
          "internalType": "address",
          "name": "voter",
          "type": "address"
        },
        {
          "indexed": false,
          "internalType": "uint256",
          "name": "proposalId",
          "type": "uint256"
        },
        {
          "indexed": false,
          "internalType": "uint8",
          "name": "support",
          "type": "uint8"
        },
        {
          "indexed": false,
          "internalType": "uint256",
          "name": "votes",
          "type": "uint256"
        },
        {
          "indexed": false,
          "internalType": "string",
          "name": "reason",
          "type": "string"
        }
      ],
      "name": "VoteCast",
      "type": "event"
    },
    {
      "anonymous": false,
      "inputs": [
        {
          "indexed": false,
          "internalType": "uint256",
          "name": "oldVotingDelay",
          "type": "uint256"
        },
        {
          "indexed": false,
          "internalType": "uint256",
          "name": "newVotingDelay",
          "type": "uint256"
        }
      ],
      "name": "VotingDelaySet",
      "type": "event"
    },
    {
      "anonymous": false,
      "inputs": [
        {
          "indexed": false,
          "internalType": "uint256",
          "name": "oldVotingPeriod",
          "type": "uint256"
        },
        {
          "indexed": false,
          "internalType": "uint256",
          "name": "newVotingPeriod",
          "type": "uint256"
        }
      ],
      "name": "VotingPeriodSet",
      "type": "event"
    },
    {
      "stateMutability": "nonpayable",
      "type": "fallback"
    },
    {
      "inputs": [
        {
          "internalType": "address",
          "name": "implementation_",
          "type": "address"
        }
      ],
      "name": "_setImplementation",
      "outputs": [],
      "stateMutability": "nonpayable",
      "type": "function"
    },
    {
      "inputs": [],
      "name": "admin",
      "outputs": [
        {
          "internalType": "address",
          "name": "",
          "type": "address"
        }
      ],
      "stateMutability": "view",
      "type": "function"
    },
    {
      "inputs": [],
      "name": "implementation",
      "outputs": [
        {
          "internalType": "address",
          "name": "",
          "type": "address"
        }
      ],
      "stateMutability": "view",
      "type": "function"
    },
    {
      "inputs": [],
      "name": "pendingAdmin",
      "outputs": [
        {
          "internalType": "address",
          "name": "",
          "type": "address"
        }
      ],
      "stateMutability": "view",
      "type": "function"
    },
    {
      "inputs": [
        {
          "internalType": "bytes32",
          "name": "name",
          "type": "bytes32"
        }
      ],
      "name": "resolve",
      "outputs": [
        {
          "internalType": "address",
          "name": "",
          "type": "address"
        }
      ],
      "stateMutability": "view",
      "type": "function"
    }
  ],
  "transactionHash": "0xacf1683bc1015111f84411910c1f774d21b585d6c8228863998a55f5549a2094",
  "args": [
    "0x085caB2Af396e52a938FB022DeeC54A51aC78167",
    "0x2B1Eab2ADE55e8c25514927dF86920f182D88eD0",
    "0x2B1Eab2ADE55e8c25514927dF86920f182D88eD0",
    "0xC0b05BFA7e6D2f61C029D2828250287295cd8841",
    "0x03fEc24A6fB3a276c96EEBd299e7653d40F20bfA",
    17280,
    34560,
    "1000000000000000000000000"
  ],
  "solcInputHash": "3a00c5687657109722398afe4b4674da",
  "bytecode": "0x60806040523480156200001157600080fd5b506040516200107138038062001071833981810160405281019062000037919062000404565b336000806101000a81548173ffffffffffffffffffffffffffffffffffffffff021916908373ffffffffffffffffffffffffffffffffffffffff16021790555062000122848989898787876040516024016200009996959493929190620005ba565b6040516020818303038152906040527f728cdbca000000000000000000000000000000000000000000000000000000007bffffffffffffffffffffffffffffffffffffffffffffffffffffffff19166020820180517bffffffffffffffffffffffffffffffffffffffffffffffffffffffff83818316178352505050506200018160201b60201c565b62000133846200020960201b60201c565b846000806101000a81548173ffffffffffffffffffffffffffffffffffffffff021916908373ffffffffffffffffffffffffffffffffffffffff160217905550505050505050505062000803565b6000808373ffffffffffffffffffffffffffffffffffffffff1683604051620001ab919062000574565b600060405180830381855af49150503d8060008114620001e8576040519150601f19603f3d011682016040523d82523d6000602084013e620001ed565b606091505b5091509150600082141562000203573d60208201fd5b50505050565b60008054906101000a900473ffffffffffffffffffffffffffffffffffffffff1673ffffffffffffffffffffffffffffffffffffffff163373ffffffffffffffffffffffffffffffffffffffff16146200029a576040517f08c379a0000000000000000000000000000000000000000000000000000000008152600401620002919062000649565b60405180910390fd5b600073ffffffffffffffffffffffffffffffffffffffff168173ffffffffffffffffffffffffffffffffffffffff1614156200030d576040517f08c379a0000000000000000000000000000000000000000000000000000000008152600401620003049062000627565b60405180910390fd5b6000600260009054906101000a900473ffffffffffffffffffffffffffffffffffffffff16905081600260006101000a81548173ffffffffffffffffffffffffffffffffffffffff021916908373ffffffffffffffffffffffffffffffffffffffff1602179055507fd604de94d45953f9138079ec1b82d533cb2160c906d1076d1f7ed54befbca97a81600260009054906101000a900473ffffffffffffffffffffffffffffffffffffffff16604051620003ca9291906200058d565b60405180910390a15050565b600081519050620003e781620007cf565b92915050565b600081519050620003fe81620007e9565b92915050565b600080600080600080600080610100898b03121562000428576200042762000706565b5b6000620004388b828c01620003d6565b98505060206200044b8b828c01620003d6565b97505060406200045e8b828c01620003d6565b9650506060620004718b828c01620003d6565b9550506080620004848b828c01620003d6565b94505060a0620004978b828c01620003ed565b93505060c0620004aa8b828c01620003ed565b92505060e0620004bd8b828c01620003ed565b9150509295985092959890939650565b620004d88162000692565b82525050565b6000620004eb826200066b565b620004f7818562000676565b935062000509818560208601620006d0565b80840191505092915050565b60006200052460418362000681565b915062000531826200070b565b606082019050919050565b60006200054b602d8362000681565b9150620005588262000780565b604082019050919050565b6200056e81620006c6565b82525050565b6000620005828284620004de565b915081905092915050565b6000604082019050620005a46000830185620004cd565b620005b36020830184620004cd565b9392505050565b600060c082019050620005d16000830189620004cd565b620005e06020830188620004cd565b620005ef6040830187620004cd565b620005fe606083018662000563565b6200060d608083018562000563565b6200061c60a083018462000563565b979650505050505050565b60006020820190508181036000830152620006428162000515565b9050919050565b6000602082019050818103600083015262000664816200053c565b9050919050565b600081519050919050565b600081905092915050565b600082825260208201905092915050565b60006200069f82620006a6565b9050919050565b600073ffffffffffffffffffffffffffffffffffffffff82169050919050565b6000819050919050565b60005b83811015620006f0578082015181840152602081019050620006d3565b8381111562000700576000848401525b50505050565b600080fd5b7f4950435444656c656761746f723a3a5f736574496d706c656d656e746174696f60008201527f6e3a20696e76616c696420696d706c656d656e746174696f6e2061646472657360208201527f7300000000000000000000000000000000000000000000000000000000000000604082015250565b7f4950435444656c656761746f723a3a5f736574496d706c656d656e746174696f60008201527f6e3a2061646d696e206f6e6c7900000000000000000000000000000000000000602082015250565b620007da8162000692565b8114620007e657600080fd5b50565b620007f481620006c6565b81146200080057600080fd5b50565b61085e80620008136000396000f3fe608060405234801561001057600080fd5b506004361061005b5760003560e01c806326782247146101055780635c23bdf5146101235780635c60da1b14610153578063bb913f4114610171578063f851a4401461018d5761005c565b5b6000600260009054906101000a900473ffffffffffffffffffffffffffffffffffffffff1673ffffffffffffffffffffffffffffffffffffffff166000366040516100a8929190610612565b600060405180830381855af49150503d80600081146100e3576040519150601f19603f3d011682016040523d82523d6000602084013e6100e8565b606091505b505090506040513d6000823e8160008114610101573d82f35b3d82fd5b61010d6101ab565b60405161011a919061062b565b60405180910390f35b61013d6004803603810190610138919061055c565b6101d1565b60405161014a919061062b565b60405180910390f35b61015b6102a7565b604051610168919061062b565b60405180910390f35b61018b60048036038101906101869190610502565b6102cd565b005b610195610492565b6040516101a2919061062b565b60405180910390f35b600160009054906101000a900473ffffffffffffffffffffffffffffffffffffffff1681565b60008061a4ec6101df6104b6565b146101fe577336c976da6a6499cad683064f849afa69cd4dec2e610214565b73abf8fabbc071f320f222a526a2e1fbe26429344d5b90508073ffffffffffffffffffffffffffffffffffffffff16635c23bdf5846040518263ffffffff1660e01b815260040161024f919061066f565b60206040518083038186803b15801561026757600080fd5b505afa15801561027b573d6000803e3d6000fd5b505050506040513d601f19601f8201168201806040525081019061029f919061052f565b915050919050565b600260009054906101000a900473ffffffffffffffffffffffffffffffffffffffff1681565b60008054906101000a900473ffffffffffffffffffffffffffffffffffffffff1673ffffffffffffffffffffffffffffffffffffffff163373ffffffffffffffffffffffffffffffffffffffff161461035b576040517f08c379a0000000000000000000000000000000000000000000000000000000008152600401610352906106aa565b60405180910390fd5b600073ffffffffffffffffffffffffffffffffffffffff168173ffffffffffffffffffffffffffffffffffffffff1614156103cb576040517f08c379a00000000000000000000000000000000000000000000000000000000081526004016103c29061068a565b60405180910390fd5b6000600260009054906101000a900473ffffffffffffffffffffffffffffffffffffffff16905081600260006101000a81548173ffffffffffffffffffffffffffffffffffffffff021916908373ffffffffffffffffffffffffffffffffffffffff1602179055507fd604de94d45953f9138079ec1b82d533cb2160c906d1076d1f7ed54befbca97a81600260009054906101000a900473ffffffffffffffffffffffffffffffffffffffff16604051610486929190610646565b60405180910390a15050565b60008054906101000a900473ffffffffffffffffffffffffffffffffffffffff1681565b6000804690508091505090565b6000813590506104d2816107fa565b92915050565b6000815190506104e7816107fa565b92915050565b6000813590506104fc81610811565b92915050565b60006020828403121561051857610517610731565b5b6000610526848285016104c3565b91505092915050565b60006020828403121561054557610544610731565b5b6000610553848285016104d8565b91505092915050565b60006020828403121561057257610571610731565b5b6000610580848285016104ed565b91505092915050565b610592816106e6565b82525050565b6105a1816106f8565b82525050565b60006105b383856106ca565b93506105c0838584610722565b82840190509392505050565b60006105d96041836106d5565b91506105e482610736565b606082019050919050565b60006105fc602d836106d5565b9150610607826107ab565b604082019050919050565b600061061f8284866105a7565b91508190509392505050565b60006020820190506106406000830184610589565b92915050565b600060408201905061065b6000830185610589565b6106686020830184610589565b9392505050565b60006020820190506106846000830184610598565b92915050565b600060208201905081810360008301526106a3816105cc565b9050919050565b600060208201905081810360008301526106c3816105ef565b9050919050565b600081905092915050565b600082825260208201905092915050565b60006106f182610702565b9050919050565b6000819050919050565b600073ffffffffffffffffffffffffffffffffffffffff82169050919050565b82818337600083830152505050565b600080fd5b7f4950435444656c656761746f723a3a5f736574496d706c656d656e746174696f60008201527f6e3a20696e76616c696420696d706c656d656e746174696f6e2061646472657360208201527f7300000000000000000000000000000000000000000000000000000000000000604082015250565b7f4950435444656c656761746f723a3a5f736574496d706c656d656e746174696f60008201527f6e3a2061646d696e206f6e6c7900000000000000000000000000000000000000602082015250565b610803816106e6565b811461080e57600080fd5b50565b61081a816106f8565b811461082557600080fd5b5056fea2646970667358221220cb6c064b3a1fe810ab09663598275c11fb1f5759fd47b83f87e53b2fe645cb9d64736f6c63430008050033",
  "devdoc": {
    "kind": "dev",
    "methods": {
      "_setImplementation(address)": {
        "params": {
          "implementation_": "The address of the new implementation for delegation"
        }
      }
    },
    "version": 1
  },
  "userdoc": {
    "events": {
      "NewAdmin(address,address)": {
        "notice": "Emitted when pendingAdmin is accepted, which means admin is updated"
      },
      "NewImplementation(address,address)": {
        "notice": "Emitted when implementation is changed"
      },
      "NewPendingAdmin(address,address)": {
        "notice": "Emitted when pendingAdmin is changed"
      },
      "ProposalCanceled(uint256)": {
        "notice": "An event emitted when a proposal has been canceled"
      },
      "ProposalCreated(uint256,address,address[],uint256[],string[],bytes[],uint256,uint256,string)": {
        "notice": "An event emitted when a new proposal is created"
      },
      "ProposalExecuted(uint256)": {
        "notice": "An event emitted when a proposal has been executed in the Timelock"
      },
      "ProposalQueued(uint256,uint256)": {
        "notice": "An event emitted when a proposal has been queued in the Timelock"
      },
      "ProposalThresholdSet(uint256,uint256)": {
        "notice": "Emitted when proposal threshold is set"
      },
      "VoteCast(address,uint256,uint8,uint256,string)": {
        "notice": "An event emitted when a vote has been cast on a proposal"
      },
      "VotingDelaySet(uint256,uint256)": {
        "notice": "An event emitted when the voting delay is set"
      },
      "VotingPeriodSet(uint256,uint256)": {
        "notice": "An event emitted when the voting period is set"
      }
    },
    "kind": "user",
    "methods": {
      "_setImplementation(address)": {
        "notice": "Called by the admin to update the implementation of the delegator"
      },
      "admin()": {
        "notice": "Administrator for this contract"
      },
      "implementation()": {
        "notice": "Active brains of Governor"
      },
      "pendingAdmin()": {
        "notice": "Pending administrator for this contract"
      }
    },
    "version": 1
  },
  "storageLayout": {
    "storage": [
      {
        "astId": 7173,
        "contract": "contracts/governor/IPCTDelegator.sol:IPCTDelegator",
        "label": "admin",
        "offset": 0,
        "slot": "0",
        "type": "t_address"
      },
      {
        "astId": 7176,
        "contract": "contracts/governor/IPCTDelegator.sol:IPCTDelegator",
        "label": "pendingAdmin",
        "offset": 0,
        "slot": "1",
        "type": "t_address"
      },
      {
        "astId": 7179,
        "contract": "contracts/governor/IPCTDelegator.sol:IPCTDelegator",
        "label": "implementation",
        "offset": 0,
        "slot": "2",
        "type": "t_address"
      }
    ],
    "types": {
      "t_address": {
        "encoding": "inplace",
        "label": "address",
        "numberOfBytes": "20"
      }
    }
  }
}