{
  "address": "0x3A011dC59d21Dcb06e00904c904C207d5441d3E5",
  "abi": [
    {
      "anonymous": false,
      "inputs": [
        {
          "indexed": false,
          "internalType": "address",
          "name": "oldAdmin",
          "type": "address"
        },
        {
          "indexed": false,
          "internalType": "address",
          "name": "newAdmin",
          "type": "address"
        }
      ],
      "name": "NewAdmin",
      "type": "event"
    },
    {
      "anonymous": false,
      "inputs": [
        {
          "indexed": false,
          "internalType": "address",
          "name": "oldImplementation",
          "type": "address"
        },
        {
          "indexed": false,
          "internalType": "address",
          "name": "newImplementation",
          "type": "address"
        }
      ],
      "name": "NewImplementation",
      "type": "event"
    },
    {
      "anonymous": false,
      "inputs": [
        {
          "indexed": false,
          "internalType": "address",
          "name": "oldPendingAdmin",
          "type": "address"
        },
        {
          "indexed": false,
          "internalType": "address",
          "name": "newPendingAdmin",
          "type": "address"
        }
      ],
      "name": "NewPendingAdmin",
      "type": "event"
    },
    {
      "anonymous": false,
      "inputs": [
        {
          "indexed": false,
          "internalType": "uint256",
          "name": "id",
          "type": "uint256"
        }
      ],
      "name": "ProposalCanceled",
      "type": "event"
    },
    {
      "anonymous": false,
      "inputs": [
        {
          "indexed": false,
          "internalType": "uint256",
          "name": "id",
          "type": "uint256"
        },
        {
          "indexed": false,
          "internalType": "address",
          "name": "proposer",
          "type": "address"
        },
        {
          "indexed": false,
          "internalType": "address[]",
          "name": "targets",
          "type": "address[]"
        },
        {
          "indexed": false,
          "internalType": "uint256[]",
          "name": "values",
          "type": "uint256[]"
        },
        {
          "indexed": false,
          "internalType": "string[]",
          "name": "signatures",
          "type": "string[]"
        },
        {
          "indexed": false,
          "internalType": "bytes[]",
          "name": "calldatas",
          "type": "bytes[]"
        },
        {
          "indexed": false,
          "internalType": "uint256",
          "name": "startBlock",
          "type": "uint256"
        },
        {
          "indexed": false,
          "internalType": "uint256",
          "name": "endBlock",
          "type": "uint256"
        },
        {
          "indexed": false,
          "internalType": "string",
          "name": "description",
          "type": "string"
        }
      ],
      "name": "ProposalCreated",
      "type": "event"
    },
    {
      "anonymous": false,
      "inputs": [
        {
          "indexed": false,
          "internalType": "uint256",
          "name": "id",
          "type": "uint256"
        }
      ],
      "name": "ProposalExecuted",
      "type": "event"
    },
    {
      "anonymous": false,
      "inputs": [
        {
          "indexed": false,
          "internalType": "uint256",
          "name": "id",
          "type": "uint256"
        },
        {
          "indexed": false,
          "internalType": "uint256",
          "name": "eta",
          "type": "uint256"
        }
      ],
      "name": "ProposalQueued",
      "type": "event"
    },
    {
      "anonymous": false,
      "inputs": [
        {
          "indexed": false,
          "internalType": "uint256",
          "name": "oldProposalThreshold",
          "type": "uint256"
        },
        {
          "indexed": false,
          "internalType": "uint256",
          "name": "newProposalThreshold",
          "type": "uint256"
        }
      ],
      "name": "ProposalThresholdSet",
      "type": "event"
    },
    {
      "anonymous": false,
      "inputs": [
        {
          "indexed": true,
          "internalType": "address",
          "name": "voter",
          "type": "address"
        },
        {
          "indexed": false,
          "internalType": "uint256",
          "name": "proposalId",
          "type": "uint256"
        },
        {
          "indexed": false,
          "internalType": "uint8",
          "name": "support",
          "type": "uint8"
        },
        {
          "indexed": false,
          "internalType": "uint256",
          "name": "votes",
          "type": "uint256"
        },
        {
          "indexed": false,
          "internalType": "string",
          "name": "reason",
          "type": "string"
        }
      ],
      "name": "VoteCast",
      "type": "event"
    },
    {
      "anonymous": false,
      "inputs": [
        {
          "indexed": false,
          "internalType": "uint256",
          "name": "oldVotingDelay",
          "type": "uint256"
        },
        {
          "indexed": false,
          "internalType": "uint256",
          "name": "newVotingDelay",
          "type": "uint256"
        }
      ],
      "name": "VotingDelaySet",
      "type": "event"
    },
    {
      "anonymous": false,
      "inputs": [
        {
          "indexed": false,
          "internalType": "uint256",
          "name": "oldVotingPeriod",
          "type": "uint256"
        },
        {
          "indexed": false,
          "internalType": "uint256",
          "name": "newVotingPeriod",
          "type": "uint256"
        }
      ],
      "name": "VotingPeriodSet",
      "type": "event"
    },
    {
      "inputs": [],
      "name": "BALLOT_TYPEHASH",
      "outputs": [
        {
          "internalType": "bytes32",
          "name": "",
          "type": "bytes32"
        }
      ],
      "stateMutability": "view",
      "type": "function"
    },
    {
      "inputs": [],
      "name": "DOMAIN_TYPEHASH",
      "outputs": [
        {
          "internalType": "bytes32",
          "name": "",
          "type": "bytes32"
        }
      ],
      "stateMutability": "view",
      "type": "function"
    },
    {
      "inputs": [],
      "name": "MAX_PROPOSAL_THRESHOLD",
      "outputs": [
        {
          "internalType": "uint256",
          "name": "",
          "type": "uint256"
        }
      ],
      "stateMutability": "view",
      "type": "function"
    },
    {
      "inputs": [],
      "name": "MAX_VOTING_DELAY",
      "outputs": [
        {
          "internalType": "uint256",
          "name": "",
          "type": "uint256"
        }
      ],
      "stateMutability": "view",
      "type": "function"
    },
    {
      "inputs": [],
      "name": "MAX_VOTING_PERIOD",
      "outputs": [
        {
          "internalType": "uint256",
          "name": "",
          "type": "uint256"
        }
      ],
      "stateMutability": "view",
      "type": "function"
    },
    {
      "inputs": [],
      "name": "MIN_PROPOSAL_THRESHOLD",
      "outputs": [
        {
          "internalType": "uint256",
          "name": "",
          "type": "uint256"
        }
      ],
      "stateMutability": "view",
      "type": "function"
    },
    {
      "inputs": [],
      "name": "MIN_VOTING_DELAY",
      "outputs": [
        {
          "internalType": "uint256",
          "name": "",
          "type": "uint256"
        }
      ],
      "stateMutability": "view",
      "type": "function"
    },
    {
      "inputs": [],
      "name": "MIN_VOTING_PERIOD",
      "outputs": [
        {
          "internalType": "uint256",
          "name": "",
          "type": "uint256"
        }
      ],
      "stateMutability": "view",
      "type": "function"
    },
    {
      "inputs": [],
      "name": "_acceptAdmin",
      "outputs": [],
      "stateMutability": "nonpayable",
      "type": "function"
    },
    {
      "inputs": [
        {
          "internalType": "address",
          "name": "newPendingAdmin",
          "type": "address"
        }
      ],
      "name": "_setPendingAdmin",
      "outputs": [],
      "stateMutability": "nonpayable",
      "type": "function"
    },
    {
      "inputs": [
        {
          "internalType": "uint256",
          "name": "newProposalThreshold",
          "type": "uint256"
        }
      ],
      "name": "_setProposalThreshold",
      "outputs": [],
      "stateMutability": "nonpayable",
      "type": "function"
    },
    {
      "inputs": [
        {
          "internalType": "uint256",
          "name": "newVotingDelay",
          "type": "uint256"
        }
      ],
      "name": "_setVotingDelay",
      "outputs": [],
      "stateMutability": "nonpayable",
      "type": "function"
    },
    {
      "inputs": [
        {
          "internalType": "uint256",
          "name": "newVotingPeriod",
          "type": "uint256"
        }
      ],
      "name": "_setVotingPeriod",
      "outputs": [],
      "stateMutability": "nonpayable",
      "type": "function"
    },
    {
      "inputs": [],
      "name": "admin",
      "outputs": [
        {
          "internalType": "address",
          "name": "",
          "type": "address"
        }
      ],
      "stateMutability": "view",
      "type": "function"
    },
    {
      "inputs": [
        {
          "internalType": "uint256",
          "name": "proposalId",
          "type": "uint256"
        }
      ],
      "name": "cancel",
      "outputs": [],
      "stateMutability": "nonpayable",
      "type": "function"
    },
    {
      "inputs": [
        {
          "internalType": "uint256",
          "name": "proposalId",
          "type": "uint256"
        },
        {
          "internalType": "uint8",
          "name": "support",
          "type": "uint8"
        }
      ],
      "name": "castVote",
      "outputs": [],
      "stateMutability": "nonpayable",
      "type": "function"
    },
    {
      "inputs": [
        {
          "internalType": "uint256",
          "name": "proposalId",
          "type": "uint256"
        },
        {
          "internalType": "uint8",
          "name": "support",
          "type": "uint8"
        },
        {
          "internalType": "uint8",
          "name": "v",
          "type": "uint8"
        },
        {
          "internalType": "bytes32",
          "name": "r",
          "type": "bytes32"
        },
        {
          "internalType": "bytes32",
          "name": "s",
          "type": "bytes32"
        }
      ],
      "name": "castVoteBySig",
      "outputs": [],
      "stateMutability": "nonpayable",
      "type": "function"
    },
    {
      "inputs": [
        {
          "internalType": "uint256",
          "name": "proposalId",
          "type": "uint256"
        },
        {
          "internalType": "uint8",
          "name": "support",
          "type": "uint8"
        },
        {
          "internalType": "string",
          "name": "reason",
          "type": "string"
        }
      ],
      "name": "castVoteWithReason",
      "outputs": [],
      "stateMutability": "nonpayable",
      "type": "function"
    },
    {
      "inputs": [
        {
          "internalType": "uint256",
          "name": "proposalId",
          "type": "uint256"
        }
      ],
      "name": "execute",
      "outputs": [],
      "stateMutability": "payable",
      "type": "function"
    },
    {
      "inputs": [
        {
          "internalType": "uint256",
          "name": "proposalId",
          "type": "uint256"
        }
      ],
      "name": "getActions",
      "outputs": [
        {
          "internalType": "address[]",
          "name": "targets",
          "type": "address[]"
        },
        {
          "internalType": "uint256[]",
          "name": "values",
          "type": "uint256[]"
        },
        {
          "internalType": "string[]",
          "name": "signatures",
          "type": "string[]"
        },
        {
          "internalType": "bytes[]",
          "name": "calldatas",
          "type": "bytes[]"
        }
      ],
      "stateMutability": "view",
      "type": "function"
    },
    {
      "inputs": [
        {
          "internalType": "uint256",
          "name": "proposalId",
          "type": "uint256"
        },
        {
          "internalType": "address",
          "name": "voter",
          "type": "address"
        }
      ],
      "name": "getReceipt",
      "outputs": [
        {
          "components": [
            {
              "internalType": "bool",
              "name": "hasVoted",
              "type": "bool"
            },
            {
              "internalType": "uint8",
              "name": "support",
              "type": "uint8"
            },
            {
              "internalType": "uint96",
              "name": "votes",
              "type": "uint96"
            }
          ],
          "internalType": "struct IPCTDelegateStorageV1.Receipt",
          "name": "",
          "type": "tuple"
        }
      ],
      "stateMutability": "view",
      "type": "function"
    },
    {
      "inputs": [],
      "name": "implementation",
      "outputs": [
        {
          "internalType": "address",
          "name": "",
          "type": "address"
        }
      ],
      "stateMutability": "view",
      "type": "function"
    },
    {
      "inputs": [
        {
          "internalType": "address",
          "name": "timelock_",
          "type": "address"
        },
        {
          "internalType": "address",
          "name": "token_",
          "type": "address"
        },
        {
          "internalType": "address",
          "name": "releaseToken_",
          "type": "address"
        },
        {
          "internalType": "uint256",
          "name": "votingPeriod_",
          "type": "uint256"
        },
        {
          "internalType": "uint256",
          "name": "votingDelay_",
          "type": "uint256"
        },
        {
          "internalType": "uint256",
          "name": "proposalThreshold_",
          "type": "uint256"
        }
      ],
      "name": "initialize",
      "outputs": [],
      "stateMutability": "nonpayable",
      "type": "function"
    },
    {
      "inputs": [
        {
          "internalType": "address",
          "name": "",
          "type": "address"
        }
      ],
      "name": "latestProposalIds",
      "outputs": [
        {
          "internalType": "uint256",
          "name": "",
          "type": "uint256"
        }
      ],
      "stateMutability": "view",
      "type": "function"
    },
    {
      "inputs": [],
      "name": "name",
      "outputs": [
        {
          "internalType": "string",
          "name": "",
          "type": "string"
        }
      ],
      "stateMutability": "view",
      "type": "function"
    },
    {
      "inputs": [],
      "name": "pendingAdmin",
      "outputs": [
        {
          "internalType": "address",
          "name": "",
          "type": "address"
        }
      ],
      "stateMutability": "view",
      "type": "function"
    },
    {
      "inputs": [
        {
          "internalType": "uint256",
          "name": "",
          "type": "uint256"
        },
        {
          "internalType": "uint256",
          "name": "",
          "type": "uint256"
        }
      ],
      "name": "proposalCalldatas",
      "outputs": [
        {
          "internalType": "bytes",
          "name": "",
          "type": "bytes"
        }
      ],
      "stateMutability": "view",
      "type": "function"
    },
    {
      "inputs": [],
      "name": "proposalCount",
      "outputs": [
        {
          "internalType": "uint256",
          "name": "",
          "type": "uint256"
        }
      ],
      "stateMutability": "view",
      "type": "function"
    },
    {
      "inputs": [],
      "name": "proposalMaxOperations",
      "outputs": [
        {
          "internalType": "uint256",
          "name": "",
          "type": "uint256"
        }
      ],
      "stateMutability": "view",
      "type": "function"
    },
    {
      "inputs": [
        {
          "internalType": "uint256",
          "name": "",
          "type": "uint256"
        },
        {
          "internalType": "address",
          "name": "",
          "type": "address"
        }
      ],
      "name": "proposalReceipts",
      "outputs": [
        {
          "internalType": "bool",
          "name": "hasVoted",
          "type": "bool"
        },
        {
          "internalType": "uint8",
          "name": "support",
          "type": "uint8"
        },
        {
          "internalType": "uint96",
          "name": "votes",
          "type": "uint96"
        }
      ],
      "stateMutability": "view",
      "type": "function"
    },
    {
      "inputs": [
        {
          "internalType": "uint256",
          "name": "",
          "type": "uint256"
        },
        {
          "internalType": "uint256",
          "name": "",
          "type": "uint256"
        }
      ],
      "name": "proposalSignatures",
      "outputs": [
        {
          "internalType": "string",
          "name": "",
          "type": "string"
        }
      ],
      "stateMutability": "view",
      "type": "function"
    },
    {
      "inputs": [
        {
          "internalType": "uint256",
          "name": "",
          "type": "uint256"
        },
        {
          "internalType": "uint256",
          "name": "",
          "type": "uint256"
        }
      ],
      "name": "proposalTargets",
      "outputs": [
        {
          "internalType": "address",
          "name": "",
          "type": "address"
        }
      ],
      "stateMutability": "view",
      "type": "function"
    },
    {
      "inputs": [],
      "name": "proposalThreshold",
      "outputs": [
        {
          "internalType": "uint256",
          "name": "",
          "type": "uint256"
        }
      ],
      "stateMutability": "view",
      "type": "function"
    },
    {
      "inputs": [
        {
          "internalType": "uint256",
          "name": "",
          "type": "uint256"
        },
        {
          "internalType": "uint256",
          "name": "",
          "type": "uint256"
        }
      ],
      "name": "proposalValues",
      "outputs": [
        {
          "internalType": "uint256",
          "name": "",
          "type": "uint256"
        }
      ],
      "stateMutability": "view",
      "type": "function"
    },
    {
      "inputs": [
        {
          "internalType": "uint256",
          "name": "",
          "type": "uint256"
        }
      ],
      "name": "proposals",
      "outputs": [
        {
          "internalType": "uint256",
          "name": "id",
          "type": "uint256"
        },
        {
          "internalType": "address",
          "name": "proposer",
          "type": "address"
        },
        {
          "internalType": "uint256",
          "name": "eta",
          "type": "uint256"
        },
        {
          "internalType": "uint256",
          "name": "startBlock",
          "type": "uint256"
        },
        {
          "internalType": "uint256",
          "name": "endBlock",
          "type": "uint256"
        },
        {
          "internalType": "uint256",
          "name": "forVotes",
          "type": "uint256"
        },
        {
          "internalType": "uint256",
          "name": "againstVotes",
          "type": "uint256"
        },
        {
          "internalType": "uint256",
          "name": "abstainVotes",
          "type": "uint256"
        },
        {
          "internalType": "bool",
          "name": "canceled",
          "type": "bool"
        },
        {
          "internalType": "bool",
          "name": "executed",
          "type": "bool"
        }
      ],
      "stateMutability": "view",
      "type": "function"
    },
    {
      "inputs": [
        {
          "internalType": "address[]",
          "name": "targets",
          "type": "address[]"
        },
        {
          "internalType": "uint256[]",
          "name": "values",
          "type": "uint256[]"
        },
        {
          "internalType": "string[]",
          "name": "signatures",
          "type": "string[]"
        },
        {
          "internalType": "bytes[]",
          "name": "calldatas",
          "type": "bytes[]"
        },
        {
          "internalType": "string",
          "name": "description",
          "type": "string"
        }
      ],
      "name": "propose",
      "outputs": [
        {
          "internalType": "uint256",
          "name": "",
          "type": "uint256"
        }
      ],
      "stateMutability": "nonpayable",
      "type": "function"
    },
    {
      "inputs": [
        {
          "internalType": "uint256",
          "name": "proposalId",
          "type": "uint256"
        }
      ],
      "name": "queue",
      "outputs": [],
      "stateMutability": "nonpayable",
      "type": "function"
    },
    {
      "inputs": [],
      "name": "quorumVotes",
      "outputs": [
        {
          "internalType": "uint256",
          "name": "",
          "type": "uint256"
        }
      ],
      "stateMutability": "view",
      "type": "function"
    },
    {
      "inputs": [],
      "name": "releaseToken",
      "outputs": [
        {
          "internalType": "contract IHasVotes",
          "name": "",
          "type": "address"
        }
      ],
      "stateMutability": "view",
      "type": "function"
    },
    {
      "inputs": [
        {
          "internalType": "uint256",
          "name": "proposalId",
          "type": "uint256"
        }
      ],
      "name": "state",
      "outputs": [
        {
          "internalType": "enum IPCTDelegateStorageV1.ProposalState",
          "name": "",
          "type": "uint8"
        }
      ],
      "stateMutability": "view",
      "type": "function"
    },
    {
      "inputs": [],
      "name": "timelock",
      "outputs": [
        {
          "internalType": "contract TimelockInterface",
          "name": "",
          "type": "address"
        }
      ],
      "stateMutability": "view",
      "type": "function"
    },
    {
      "inputs": [],
      "name": "token",
      "outputs": [
        {
          "internalType": "contract IHasVotes",
          "name": "",
          "type": "address"
        }
      ],
      "stateMutability": "view",
      "type": "function"
    },
    {
      "inputs": [],
      "name": "votingDelay",
      "outputs": [
        {
          "internalType": "uint256",
          "name": "",
          "type": "uint256"
        }
      ],
      "stateMutability": "view",
      "type": "function"
    },
    {
      "inputs": [],
      "name": "votingPeriod",
      "outputs": [
        {
          "internalType": "uint256",
          "name": "",
          "type": "uint256"
        }
      ],
      "stateMutability": "view",
      "type": "function"
    }
  ],
  "transactionHash": "0x87f82ba4564cf83a6c087dc529509e3bc50e6a700c27796a534be1d23902eaae",
  "args": [],
  "solcInputHash": "8c7f64154b5285b30cc96cb58aff2ea5",
  "bytecode": "0x608060405234801561001057600080fd5b506173aa80620000216000396000f3fe6080604052600436106102675760003560e01c8063791f5d2311610144578063da35c664116100b6578063e48083fe1161007a578063e48083fe1461098e578063e9c714f2146109b9578063ec715a31146109d0578063f851a440146109fb578063fc0c546a14610a26578063fe0d94c114610a5157610267565b8063da35c66414610895578063da95691a146108c0578063ddf0b009146108fd578063deaaa7cc14610926578063e23a9a521461095157610267565b8063a64e024a11610108578063a64e024a14610783578063ac674664146107ae578063b1126263146107eb578063b58131b014610816578063b71d1a0c14610841578063d33219b41461086a57610267565b8063791f5d231461068a5780637b3c71d3146106b55780637bdbe4d0146106de578063878b608d14610709578063a4a53a131461074657610267565b806326782247116101dd57806340e58ee5116101a157806340e58ee5146105685780634e42b06d1461059157806356781388146105ce5780635c60da1b146105f75780636617674314610622578063728cdbca1461066157610267565b8063267822471461046c578063328dd982146104975780633932abb1146104d75780633bccf4fd146105025780633e4f49e61461052b57610267565b806317ba1b8b1161022f57806317ba1b8b1461036e5780631dfb1b5a1461039757806320606b70146103c0578063215809ca146103eb57806324bc1a641461041657806325fd935a1461044157610267565b8063013cf08b1461026c57806302a251a3146102b257806306fdde03146102dd5780630ea2d98c1461030857806317977c6114610331575b600080fd5b34801561027857600080fd5b50610293600480360381019061028e9190614a1b565b610a6d565b6040516102a99a99989796959493929190616120565b60405180910390f35b3480156102be57600080fd5b506102c7610afb565b6040516102d49190615fa7565b60405180910390f35b3480156102e957600080fd5b506102f2610b01565b6040516102ff9190615bea565b60405180910390f35b34801561031457600080fd5b5061032f600480360381019061032a9190614a1b565b610b3a565b005b34801561033d57600080fd5b506103586004803603810190610353919061478a565b610c69565b6040516103659190615fa7565b60405180910390f35b34801561037a57600080fd5b5061039560048036038101906103909190614a1b565b610c81565b005b3480156103a357600080fd5b506103be60048036038101906103b99190614a1b565b610dc0565b005b3480156103cc57600080fd5b506103d5610eee565b6040516103e29190615a9b565b60405180910390f35b3480156103f757600080fd5b50610400610f12565b60405161040d9190615fa7565b60405180910390f35b34801561042257600080fd5b5061042b610f18565b6040516104389190615fa7565b60405180910390f35b34801561044d57600080fd5b50610456610f27565b6040516104639190615fa7565b60405180910390f35b34801561047857600080fd5b50610481610f36565b60405161048e91906158d4565b60405180910390f35b3480156104a357600080fd5b506104be60048036038101906104b99190614a1b565b610f5c565b6040516104ce9493929190615a03565b60405180910390f35b3480156104e357600080fd5b506104ec61123d565b6040516104f99190615fa7565b60405180910390f35b34801561050e57600080fd5b5061052960048036038101906105249190614ba9565b611243565b005b34801561053757600080fd5b50610552600480360381019061054d9190614a1b565b61147d565b60405161055f9190615bcf565b60405180910390f35b34801561057457600080fd5b5061058f600480360381019061058a9190614a1b565b611659565b005b34801561059d57600080fd5b506105b860048036038101906105b39190614ab5565b6119c2565b6040516105c59190615b77565b60405180910390f35b3480156105da57600080fd5b506105f560048036038101906105f09190614af5565b611a7b565b005b34801561060357600080fd5b5061060c611adb565b60405161061991906158d4565b60405180910390f35b34801561062e57600080fd5b5061064960048036038101906106449190614a75565b611b01565b60405161065893929190615a64565b60405180910390f35b34801561066d57600080fd5b50610688600480360381019061068391906147e4565b611b6a565b005b34801561069657600080fd5b5061069f612356565b6040516106ac9190615fa7565b60405180910390f35b3480156106c157600080fd5b506106dc60048036038101906106d79190614b35565b612364565b005b3480156106ea57600080fd5b506106f36123ca565b6040516107009190615fa7565b60405180910390f35b34801561071557600080fd5b50610730600480360381019061072b9190614ab5565b6123cf565b60405161073d9190615fa7565b60405180910390f35b34801561075257600080fd5b5061076d60048036038101906107689190614ab5565b612400565b60405161077a9190615bea565b60405180910390f35b34801561078f57600080fd5b506107986124b9565b6040516107a59190615fa7565b60405180910390f35b3480156107ba57600080fd5b506107d560048036038101906107d09190614ab5565b6124c0565b6040516107e291906158d4565b60405180910390f35b3480156107f757600080fd5b5061080061250e565b60405161080d9190615fa7565b60405180910390f35b34801561082257600080fd5b5061082b612515565b6040516108389190615fa7565b60405180910390f35b34801561084d57600080fd5b506108686004803603810190610863919061478a565b61251b565b005b34801561087657600080fd5b5061087f61264e565b60405161088c9190615bb4565b60405180910390f35b3480156108a157600080fd5b506108aa612674565b6040516108b79190615fa7565b60405180910390f35b3480156108cc57600080fd5b506108e760048036038101906108e29190614871565b61267a565b6040516108f49190615fa7565b60405180910390f35b34801561090957600080fd5b50610924600480360381019061091f9190614a1b565b612bdd565b005b34801561093257600080fd5b5061093b612f85565b6040516109489190615a9b565b60405180910390f35b34801561095d57600080fd5b5061097860048036038101906109739190614a75565b612fa9565b6040516109859190615f8c565b60405180910390f35b34801561099a57600080fd5b506109a361308a565b6040516109b09190615fa7565b60405180910390f35b3480156109c557600080fd5b506109ce61308f565b005b3480156109dc57600080fd5b506109e5613301565b6040516109f29190615b99565b60405180910390f35b348015610a0757600080fd5b50610a10613327565b604051610a1d91906158d4565b60405180910390f35b348015610a3257600080fd5b50610a3b61334b565b604051610a489190615b99565b60405180910390f35b610a6b6004803603810190610a669190614a1b565b613371565b005b600a6020528060005260406000206000915090508060000154908060010160009054906101000a900473ffffffffffffffffffffffffffffffffffffffff16908060020154908060030154908060040154908060050154908060060154908060070154908060080160009054906101000a900460ff16908060080160019054906101000a900460ff1690508a565b60045481565b6040518060400160405280600481526020017f495043540000000000000000000000000000000000000000000000000000000081525081565b60008054906101000a900473ffffffffffffffffffffffffffffffffffffffff1673ffffffffffffffffffffffffffffffffffffffff163373ffffffffffffffffffffffffffffffffffffffff1614610bc8576040517f08c379a0000000000000000000000000000000000000000000000000000000008152600401610bbf90615ccc565b60405180910390fd5b6143808110158015610bdd57506203b1008111155b610c1c576040517f08c379a0000000000000000000000000000000000000000000000000000000008152600401610c1390615dac565b60405180910390fd5b60006004549050816004819055507f7e3f7f0708a84de9203036abaa450dccc85ad5ff52f78c170f3edb55cf5e882881600454604051610c5d9291906161bc565b60405180910390a15050565b60106020528060005260406000206000915090505481565b60008054906101000a900473ffffffffffffffffffffffffffffffffffffffff1673ffffffffffffffffffffffffffffffffffffffff163373ffffffffffffffffffffffffffffffffffffffff1614610d0f576040517f08c379a0000000000000000000000000000000000000000000000000000000008152600401610d0690615ccc565b60405180910390fd5b69d3c21bcecceda10000008110158015610d3457506a0422ca8b0a00a4250000008111155b610d73576040517f08c379a0000000000000000000000000000000000000000000000000000000008152600401610d6a90615d6c565b60405180910390fd5b60006005549050816005819055507fccb45da8d5717e6c4544694297c4ba5cf151d455c9bb0ed4fc7a38411bc0546181600554604051610db49291906161bc565b60405180910390a15050565b60008054906101000a900473ffffffffffffffffffffffffffffffffffffffff1673ffffffffffffffffffffffffffffffffffffffff163373ffffffffffffffffffffffffffffffffffffffff1614610e4e576040517f08c379a0000000000000000000000000000000000000000000000000000000008152600401610e4590615ccc565b60405180910390fd5b60018110158015610e6257506201d8808111155b610ea1576040517f08c379a0000000000000000000000000000000000000000000000000000000008152600401610e9890615f6c565b60405180910390fd5b60006003549050816003819055507fc565b045403dc03c2eea82b81a0465edad9e2e7fc4d97e11421c209da93d7a9381600354604051610ee29291906161bc565b60405180910390a15050565b7f8cad95687ba82c2ce50e74f7b754645e5117c3a5bec8151c0726d5857980a86681565b61438081565b6a034f086f3b33b68400000081565b6a0422ca8b0a00a42500000081565b600160009054906101000a900473ffffffffffffffffffffffffffffffffffffffff1681565b606080606080600b6000868152602001908152602001600020600c6000878152602001908152602001600020600d6000888152602001908152602001600020600e60008981526020019081526020016000208380548060200260200160405190810160405280929190818152602001828054801561102f57602002820191906000526020600020905b8160009054906101000a900473ffffffffffffffffffffffffffffffffffffffff1673ffffffffffffffffffffffffffffffffffffffff1681526020019060010190808311610fe5575b505050505093508280548060200260200160405190810160405280929190818152602001828054801561108157602002820191906000526020600020905b81548152602001906001019080831161106d575b5050505050925081805480602002602001604051908101604052809291908181526020016000905b828210156111555783829060005260206000200180546110c89061681b565b80601f01602080910402602001604051908101604052809291908181526020018280546110f49061681b565b80156111415780601f1061111657610100808354040283529160200191611141565b820191906000526020600020905b81548152906001019060200180831161112457829003601f168201915b5050505050815260200190600101906110a9565b50505050915080805480602002602001604051908101604052809291908181526020016000905b8282101561122857838290600052602060002001805461119b9061681b565b80601f01602080910402602001604051908101604052809291908181526020018280546111c79061681b565b80156112145780601f106111e957610100808354040283529160200191611214565b820191906000526020600020905b8154815290600101906020018083116111f757829003601f168201915b50505050508152602001906001019061117c565b50505050905093509350935093509193509193565b60035481565b60007f8cad95687ba82c2ce50e74f7b754645e5117c3a5bec8151c0726d5857980a8666040518060400160405280600481526020017f4950435400000000000000000000000000000000000000000000000000000000815250805190602001206112ab61364d565b306040516020016112bf9493929190615ab6565b60405160208183030381529060405280519060200120905060007f150214d74d59b7d1e90c73fc22ef3d991dd0a76b046543d4d80ab92d2a50328f878760405160200161130e93929190615afb565b6040516020818303038152906040528051906020012090506000828260405160200161133b92919061589d565b6040516020818303038152906040528051906020012090506000600182888888604051600081526020016040526040516113789493929190615b32565b6020604051602081039080840390855afa15801561139a573d6000803e3d6000fd5b505050602060405103519050600073ffffffffffffffffffffffffffffffffffffffff168173ffffffffffffffffffffffffffffffffffffffff161415611416576040517f08c379a000000000000000000000000000000000000000000000000000000000815260040161140d90615e6c565b60405180910390fd5b8073ffffffffffffffffffffffffffffffffffffffff167fb8e138887d0aa13bab447e82de9d5c1777041ecd21ca36ba824ff1e6c07ddda48a8a61145b858e8e61365a565b60405161146a93929190616233565b60405180910390a2505050505050505050565b600081600654116114c3576040517f08c379a00000000000000000000000000000000000000000000000000000000081526004016114ba90615e2c565b60405180910390fd5b6000600a600084815260200190815260200160002090508060080160009054906101000a900460ff16156114fb576002915050611654565b80600301544311611510576000915050611654565b80600401544311611525576001915050611654565b8060060154816005015411158061154a57506a034f086f3b33b6840000008160050154105b15611559576003915050611654565b600081600201541415611570576004915050611654565b8060080160019054906101000a900460ff1615611591576007915050611654565b61163e8160020154600760009054906101000a900473ffffffffffffffffffffffffffffffffffffffff1673ffffffffffffffffffffffffffffffffffffffff1663c1a287e26040518163ffffffff1660e01b815260040160206040518083038186803b15801561160157600080fd5b505afa158015611615573d6000803e3d6000fd5b505050506040513d601f19601f820116820180604052508101906116399190614a48565b6138fe565b421061164e576006915050611654565b60059150505b919050565b60078081111561166c5761166b616934565b5b6116758261147d565b600781111561168757611686616934565b5b14156116c8576040517f08c379a00000000000000000000000000000000000000000000000000000000081526004016116bf90615c0c565b60405180910390fd5b6000600a600083815260200190815260200160002090508060010160009054906101000a900473ffffffffffffffffffffffffffffffffffffffff1673ffffffffffffffffffffffffffffffffffffffff163373ffffffffffffffffffffffffffffffffffffffff16148061178357506005546117738260010160009054906101000a900473ffffffffffffffffffffffffffffffffffffffff1661176e43600161395c565b6139b5565b6bffffffffffffffffffffffff16105b6117c2576040517f08c379a00000000000000000000000000000000000000000000000000000000081526004016117b990615e0c565b60405180910390fd5b60018160080160006101000a81548160ff02191690831515021790555060005b600b60008481526020019081526020016000208054905081101561198657600760009054906101000a900473ffffffffffffffffffffffffffffffffffffffff1673ffffffffffffffffffffffffffffffffffffffff1663591fcdfe600b6000868152602001908152602001600020838154811061186357611862616992565b5b9060005260206000200160009054906101000a900473ffffffffffffffffffffffffffffffffffffffff16600c600087815260200190815260200160002084815481106118b3576118b2616992565b5b9060005260206000200154600d600088815260200190815260200160002085815481106118e3576118e2616992565b5b90600052602060002001600e6000898152602001908152602001600020868154811061191257611911616992565b5b9060005260206000200187600201546040518663ffffffff1660e01b81526004016119419594939291906159a2565b600060405180830381600087803b15801561195b57600080fd5b505af115801561196f573d6000803e3d6000fd5b50505050808061197e906168b2565b9150506117e2565b507f789cf55be980739dad1d0699b93b58e806b51c9d96619bfa8fe0a28abaa7b30c826040516119b69190615fa7565b60405180910390a15050565b600e60205281600052604060002081815481106119de57600080fd5b906000526020600020016000915091505080546119fa9061681b565b80601f0160208091040260200160405190810160405280929190818152602001828054611a269061681b565b8015611a735780601f10611a4857610100808354040283529160200191611a73565b820191906000526020600020905b815481529060010190602001808311611a5657829003601f168201915b505050505081565b3373ffffffffffffffffffffffffffffffffffffffff167fb8e138887d0aa13bab447e82de9d5c1777041ecd21ca36ba824ff1e6c07ddda48383611ac033878761365a565b604051611acf93929190616233565b60405180910390a25050565b600260009054906101000a900473ffffffffffffffffffffffffffffffffffffffff1681565b600f602052816000526040600020602052806000526040600020600091509150508060000160009054906101000a900460ff16908060000160019054906101000a900460ff16908060000160029054906101000a90046bffffffffffffffffffffffff16905083565b601160019054906101000a900460ff1680611b925750601160009054906101000a900460ff16155b611bd1576040517f08c379a0000000000000000000000000000000000000000000000000000000008152600401611bc890615dec565b60405180910390fd5b6000601160019054906101000a900460ff161590508015611c23576001601160016101000a81548160ff0219169083151502179055506001601160006101000a81548160ff0219169083151502179055505b60008054906101000a900473ffffffffffffffffffffffffffffffffffffffff1673ffffffffffffffffffffffffffffffffffffffff163373ffffffffffffffffffffffffffffffffffffffff1614611cb1576040517f08c379a0000000000000000000000000000000000000000000000000000000008152600401611ca890615ccc565b60405180910390fd5b3073ffffffffffffffffffffffffffffffffffffffff168773ffffffffffffffffffffffffffffffffffffffff1663f851a4406040518163ffffffff1660e01b815260040160206040518083038186803b158015611d0e57600080fd5b505afa158015611d22573d6000803e3d6000fd5b505050506040513d601f19601f82011682018060405250810190611d4691906147b7565b73ffffffffffffffffffffffffffffffffffffffff1614611d9c576040517f08c379a0000000000000000000000000000000000000000000000000000000008152600401611d9390615c8c565b60405180910390fd5b6143808410158015611db157506203b1008411155b611df0576040517f08c379a0000000000000000000000000000000000000000000000000000000008152600401611de790615e8c565b60405180910390fd5b60018310158015611e0457506201d8808311155b611e43576040517f08c379a0000000000000000000000000000000000000000000000000000000008152600401611e3a90615f0c565b60405180910390fd5b69d3c21bcecceda10000008210158015611e6857506a0422ca8b0a00a4250000008211155b611ea7576040517f08c379a0000000000000000000000000000000000000000000000000000000008152600401611e9e90615cac565b60405180910390fd5b86600760006101000a81548173ffffffffffffffffffffffffffffffffffffffff021916908373ffffffffffffffffffffffffffffffffffffffff1602179055503073ffffffffffffffffffffffffffffffffffffffff16600760009054906101000a900473ffffffffffffffffffffffffffffffffffffffff1673ffffffffffffffffffffffffffffffffffffffff1663f851a4406040518163ffffffff1660e01b815260040160206040518083038186803b158015611f6757600080fd5b505afa158015611f7b573d6000803e3d6000fd5b505050506040513d601f19601f82011682018060405250810190611f9f91906147b7565b73ffffffffffffffffffffffffffffffffffffffff1614611ff5576040517f08c379a0000000000000000000000000000000000000000000000000000000008152600401611fec90615c8c565b60405180910390fd5b336000806101000a81548173ffffffffffffffffffffffffffffffffffffffff021916908373ffffffffffffffffffffffffffffffffffffffff16021790555085600860006101000a81548173ffffffffffffffffffffffffffffffffffffffff021916908373ffffffffffffffffffffffffffffffffffffffff16021790555084600960006101000a81548173ffffffffffffffffffffffffffffffffffffffff021916908373ffffffffffffffffffffffffffffffffffffffff160217905550836004819055508260038190555081600581905550600060405180610140016040528060065481526020013073ffffffffffffffffffffffffffffffffffffffff1681526020016000815260200160008152602001600081526020016000815260200160008152602001600081526020016001151581526020016000151581525090506006600081548092919061214d906168b2565b919050555080600a6000836000015181526020019081526020016000206000820151816000015560208201518160010160006101000a81548173ffffffffffffffffffffffffffffffffffffffff021916908373ffffffffffffffffffffffffffffffffffffffff16021790555060408201518160020155606082015181600301556080820151816004015560a0820151816005015560c0820151816006015560e082015181600701556101008201518160080160006101000a81548160ff0219169083151502179055506101208201518160080160016101000a81548160ff021916908315150217905550905050806000015160106000836020015173ffffffffffffffffffffffffffffffffffffffff1673ffffffffffffffffffffffffffffffffffffffff168152602001908152602001600020819055507f7d84a6263ae0d98d3329bd7b46bb4e8d6f98cd35a7adb45c274c8b7fd5ebd5e0816000015130600b600085600001518152602001908152602001600020600c600086600001518152602001908152602001600020600d600087600001518152602001908152602001600020600e600088600001518152602001908152602001600020600080604051612322989796959493929190616072565b60405180910390a150801561234d576000601160016101000a81548160ff0219169083151502179055505b50505050505050565b69d3c21bcecceda100000081565b3373ffffffffffffffffffffffffffffffffffffffff167fb8e138887d0aa13bab447e82de9d5c1777041ecd21ca36ba824ff1e6c07ddda485856123a933898961365a565b86866040516123bc9594939291906161e5565b60405180910390a250505050565b600a81565b600c60205281600052604060002081815481106123eb57600080fd5b90600052602060002001600091509150505481565b600d602052816000526040600020818154811061241c57600080fd5b906000526020600020016000915091505080546124389061681b565b80601f01602080910402602001604051908101604052809291908181526020018280546124649061681b565b80156124b15780601f10612486576101008083540402835291602001916124b1565b820191906000526020600020905b81548152906001019060200180831161249457829003601f168201915b505050505081565b6203b10081565b600b60205281600052604060002081815481106124dc57600080fd5b906000526020600020016000915091509054906101000a900473ffffffffffffffffffffffffffffffffffffffff1681565b6201d88081565b60055481565b60008054906101000a900473ffffffffffffffffffffffffffffffffffffffff1673ffffffffffffffffffffffffffffffffffffffff163373ffffffffffffffffffffffffffffffffffffffff16146125a9576040517f08c379a00000000000000000000000000000000000000000000000000000000081526004016125a090615ccc565b60405180910390fd5b6000600160009054906101000a900473ffffffffffffffffffffffffffffffffffffffff16905081600160006101000a81548173ffffffffffffffffffffffffffffffffffffffff021916908373ffffffffffffffffffffffffffffffffffffffff1602179055507fca4f2f25d0898edd99413412fb94012f9e54ec8142f9b093e7720646a95b16a981836040516126429291906158ef565b60405180910390a15050565b600760009054906101000a900473ffffffffffffffffffffffffffffffffffffffff1681565b60065481565b60006005546126933361268e43600161395c565b6139b5565b6bffffffffffffffffffffffff16116126e1576040517f08c379a00000000000000000000000000000000000000000000000000000000081526004016126d890615c4c565b60405180910390fd5b845186511480156126f3575083518651145b8015612700575082518651145b61273f576040517f08c379a000000000000000000000000000000000000000000000000000000000815260040161273690615ecc565b60405180910390fd5b600086511415612784576040517f08c379a000000000000000000000000000000000000000000000000000000000815260040161277b90615eac565b60405180910390fd5b600a865111156127c9576040517f08c379a00000000000000000000000000000000000000000000000000000000081526004016127c090615d2c565b60405180910390fd5b6000601060003373ffffffffffffffffffffffffffffffffffffffff1673ffffffffffffffffffffffffffffffffffffffff168152602001908152602001600020549050600081146128f45760006128208261147d565b90506001600781111561283657612835616934565b5b81600781111561284957612848616934565b5b141561288a576040517f08c379a000000000000000000000000000000000000000000000000000000000815260040161288190615eec565b60405180910390fd5b6000600781111561289e5761289d616934565b5b8160078111156128b1576128b0616934565b5b14156128f2576040517f08c379a00000000000000000000000000000000000000000000000000000000081526004016128e990615c6c565b60405180910390fd5b505b6000612902436003546138fe565b90506000612912826004546138fe565b9050600060405180610140016040528060065481526020013373ffffffffffffffffffffffffffffffffffffffff1681526020016000815260200184815260200183815260200160008152602001600081526020016000815260200160001515815260200160001515815250905060066000815480929190612993906168b2565b919050555080600a6000836000015181526020019081526020016000206000820151816000015560208201518160010160006101000a81548173ffffffffffffffffffffffffffffffffffffffff021916908373ffffffffffffffffffffffffffffffffffffffff16021790555060408201518160020155606082015181600301556080820151816004015560a0820151816005015560c0820151816006015560e082015181600701556101008201518160080160006101000a81548160ff0219169083151502179055506101208201518160080160016101000a81548160ff02191690831515021790555090505089600b6000836000015181526020019081526020016000209080519060200190612aad929190613eb7565b5088600c6000836000015181526020019081526020016000209080519060200190612ad9929190613f41565b5087600d6000836000015181526020019081526020016000209080519060200190612b05929190613f8e565b5086600e6000836000015181526020019081526020016000209080519060200190612b31929190613fee565b50806000015160106000836020015173ffffffffffffffffffffffffffffffffffffffff1673ffffffffffffffffffffffffffffffffffffffff168152602001908152602001600020819055507f7d84a6263ae0d98d3329bd7b46bb4e8d6f98cd35a7adb45c274c8b7fd5ebd5e08160000151338c8c8c8c89898e604051612bc199989796959493929190615fc2565b60405180910390a1806000015194505050505095945050505050565b60046007811115612bf157612bf0616934565b5b612bfa8261147d565b6007811115612c0c57612c0b616934565b5b14612c4c576040517f08c379a0000000000000000000000000000000000000000000000000000000008152600401612c4390615d4c565b60405180910390fd5b6000600a600083815260200190815260200160002090506000612d0e42600760009054906101000a900473ffffffffffffffffffffffffffffffffffffffff1673ffffffffffffffffffffffffffffffffffffffff16636a42b8f86040518163ffffffff1660e01b815260040160206040518083038186803b158015612cd157600080fd5b505afa158015612ce5573d6000803e3d6000fd5b505050506040513d601f19601f82011682018060405250810190612d099190614a48565b6138fe565b905060005b600b600085815260200190815260200160002080549050811015612f3d57612f2a600b60008681526020019081526020016000208281548110612d5957612d58616992565b5b9060005260206000200160009054906101000a900473ffffffffffffffffffffffffffffffffffffffff16600c60008781526020019081526020016000208381548110612da957612da8616992565b5b9060005260206000200154600d60008881526020019081526020016000208481548110612dd957612dd8616992565b5b906000526020600020018054612dee9061681b565b80601f0160208091040260200160405190810160405280929190818152602001828054612e1a9061681b565b8015612e675780601f10612e3c57610100808354040283529160200191612e67565b820191906000526020600020905b815481529060010190602001808311612e4a57829003601f168201915b5050505050600e60008981526020019081526020016000208581548110612e9157612e90616992565b5b906000526020600020018054612ea69061681b565b80601f0160208091040260200160405190810160405280929190818152602001828054612ed29061681b565b8015612f1f5780601f10612ef457610100808354040283529160200191612f1f565b820191906000526020600020905b815481529060010190602001808311612f0257829003601f168201915b505050505086613c62565b8080612f35906168b2565b915050612d13565b508082600201819055507f9a2e42fd6722813d69113e7d0079d3d940171428df7373df9c7f7617cfda28928382604051612f789291906161bc565b60405180910390a1505050565b7f150214d74d59b7d1e90c73fc22ef3d991dd0a76b046543d4d80ab92d2a50328f81565b612fb161404e565b600f600084815260200190815260200160002060008373ffffffffffffffffffffffffffffffffffffffff1673ffffffffffffffffffffffffffffffffffffffff1681526020019081526020016000206040518060600160405290816000820160009054906101000a900460ff161515151581526020016000820160019054906101000a900460ff1660ff1660ff1681526020016000820160029054906101000a90046bffffffffffffffffffffffff166bffffffffffffffffffffffff166bffffffffffffffffffffffff1681525050905092915050565b600181565b600160009054906101000a900473ffffffffffffffffffffffffffffffffffffffff1673ffffffffffffffffffffffffffffffffffffffff163373ffffffffffffffffffffffffffffffffffffffff161480156131195750600073ffffffffffffffffffffffffffffffffffffffff163373ffffffffffffffffffffffffffffffffffffffff1614155b613158576040517f08c379a000000000000000000000000000000000000000000000000000000000815260040161314f90615dcc565b60405180910390fd5b60008060009054906101000a900473ffffffffffffffffffffffffffffffffffffffff1690506000600160009054906101000a900473ffffffffffffffffffffffffffffffffffffffff169050600160009054906101000a900473ffffffffffffffffffffffffffffffffffffffff166000806101000a81548173ffffffffffffffffffffffffffffffffffffffff021916908373ffffffffffffffffffffffffffffffffffffffff1602179055506000600160006101000a81548173ffffffffffffffffffffffffffffffffffffffff021916908373ffffffffffffffffffffffffffffffffffffffff1602179055507ff9ffabca9c8276e99321725bcb43fb076a6c66a54b7f21c4e8146d8519b417dc8260008054906101000a900473ffffffffffffffffffffffffffffffffffffffff1660405161329a9291906158ef565b60405180910390a17fca4f2f25d0898edd99413412fb94012f9e54ec8142f9b093e7720646a95b16a981600160009054906101000a900473ffffffffffffffffffffffffffffffffffffffff166040516132f59291906158ef565b60405180910390a15050565b600960009054906101000a900473ffffffffffffffffffffffffffffffffffffffff1681565b60008054906101000a900473ffffffffffffffffffffffffffffffffffffffff1681565b600860009054906101000a900473ffffffffffffffffffffffffffffffffffffffff1681565b6005600781111561338557613384616934565b5b61338e8261147d565b60078111156133a05761339f616934565b5b146133e0576040517f08c379a00000000000000000000000000000000000000000000000000000000081526004016133d790615d0c565b60405180910390fd5b6000600a6000838152602001908152602001600020905060018160080160016101000a81548160ff02191690831515021790555060005b600b60008481526020019081526020016000208054905081101561361157600760009054906101000a900473ffffffffffffffffffffffffffffffffffffffff1673ffffffffffffffffffffffffffffffffffffffff16630825f38f600c6000868152602001908152602001600020838154811061349857613497616992565b5b9060005260206000200154600b600087815260200190815260200160002084815481106134c8576134c7616992565b5b9060005260206000200160009054906101000a900473ffffffffffffffffffffffffffffffffffffffff16600c6000888152602001908152602001600020858154811061351857613517616992565b5b9060005260206000200154600d6000898152602001908152602001600020868154811061354857613547616992565b5b90600052602060002001600e60008a8152602001908152602001600020878154811061357757613576616992565b5b9060005260206000200188600201546040518763ffffffff1660e01b81526004016135a69594939291906159a2565b6000604051808303818588803b1580156135bf57600080fd5b505af11580156135d3573d6000803e3d6000fd5b50505050506040513d6000823e3d601f19601f820116820180604052508101906135fd91906149d2565b508080613609906168b2565b915050613417565b507f712ae1383f79ac853f8d882153778e0260ef8f03b504e2866e0593e04d2b291f826040516136419190615fa7565b60405180910390a15050565b6000804690508091505090565b6000600160078111156136705761366f616934565b5b6136798461147d565b600781111561368b5761368a616934565b5b146136cb576040517f08c379a00000000000000000000000000000000000000000000000000000000081526004016136c290615c2c565b60405180910390fd5b60028260ff161115613712576040517f08c379a000000000000000000000000000000000000000000000000000000000815260040161370990615d8c565b60405180910390fd5b6000600a600085815260200190815260200160002090506000600f600086815260200190815260200160002060008773ffffffffffffffffffffffffffffffffffffffff1673ffffffffffffffffffffffffffffffffffffffff1681526020019081526020016000209050600015158160000160009054906101000a900460ff161515146137d5576040517f08c379a00000000000000000000000000000000000000000000000000000000081526004016137cc90615f4c565b60405180910390fd5b60006137e58784600301546139b5565b905060008560ff16141561381c5761380f8360060154826bffffffffffffffffffffffff166138fe565b8360060181905550613884565b60018560ff161415613851576138448360050154826bffffffffffffffffffffffff166138fe565b8360050181905550613883565b60028560ff161415613882576138798360070154826bffffffffffffffffffffffff166138fe565b83600701819055505b5b5b60018260000160006101000a81548160ff021916908315150217905550848260000160016101000a81548160ff021916908360ff160217905550808260000160026101000a8154816bffffffffffffffffffffffff02191690836bffffffffffffffffffffffff1602179055508093505050509392505050565b600080828461390d91906165db565b905083811015613952576040517f08c379a000000000000000000000000000000000000000000000000000000000815260040161394990615e4c565b60405180910390fd5b8091505092915050565b6000828211156139a1576040517f08c379a000000000000000000000000000000000000000000000000000000000815260040161399890615f2c565b60405180910390fd5b81836139ad9190616673565b905092915050565b60008073ffffffffffffffffffffffffffffffffffffffff16600960009054906101000a900473ffffffffffffffffffffffffffffffffffffffff1673ffffffffffffffffffffffffffffffffffffffff161415613ac157600860009054906101000a900473ffffffffffffffffffffffffffffffffffffffff1673ffffffffffffffffffffffffffffffffffffffff1663782d6fe184846040518363ffffffff1660e01b8152600401613a6a929190615918565b60206040518083038186803b158015613a8257600080fd5b505afa158015613a96573d6000803e3d6000fd5b505050506040513d601f19601f82011682018060405250810190613aba9190614c24565b9050613c5c565b613c59600860009054906101000a900473ffffffffffffffffffffffffffffffffffffffff1673ffffffffffffffffffffffffffffffffffffffff1663782d6fe185856040518363ffffffff1660e01b8152600401613b21929190615918565b60206040518083038186803b158015613b3957600080fd5b505afa158015613b4d573d6000803e3d6000fd5b505050506040513d601f19601f82011682018060405250810190613b719190614c24565b600960009054906101000a900473ffffffffffffffffffffffffffffffffffffffff1673ffffffffffffffffffffffffffffffffffffffff1663782d6fe186866040518363ffffffff1660e01b8152600401613bce929190615918565b60206040518083038186803b158015613be657600080fd5b505afa158015613bfa573d6000803e3d6000fd5b505050506040513d601f19601f82011682018060405250810190613c1e9190614c24565b6040518060400160405280601681526020017f6765745072696f72566f746573206f766572666c6f7700000000000000000000815250613e38565b90505b92915050565b600760009054906101000a900473ffffffffffffffffffffffffffffffffffffffff1673ffffffffffffffffffffffffffffffffffffffff1663f2b065378686868686604051602001613cb9959493929190615941565b604051602081830303815290604052805190602001206040518263ffffffff1660e01b8152600401613ceb9190615a9b565b60206040518083038186803b158015613d0357600080fd5b505afa158015613d17573d6000803e3d6000fd5b505050506040513d601f19601f82011682018060405250810190613d3b9190614978565b15613d7b576040517f08c379a0000000000000000000000000000000000000000000000000000000008152600401613d7290615cec565b60405180910390fd5b600760009054906101000a900473ffffffffffffffffffffffffffffffffffffffff1673ffffffffffffffffffffffffffffffffffffffff16633a66f90186868686866040518663ffffffff1660e01b8152600401613dde959493929190615941565b602060405180830381600087803b158015613df857600080fd5b505af1158015613e0c573d6000803e3d6000fd5b505050506040513d601f19601f82011682018060405250810190613e3091906149a5565b505050505050565b6000808385613e479190616631565b9050846bffffffffffffffffffffffff16816bffffffffffffffffffffffff1610158390613eab576040517f08c379a0000000000000000000000000000000000000000000000000000000008152600401613ea29190615bea565b60405180910390fd5b50809150509392505050565b828054828255906000526020600020908101928215613f30579160200282015b82811115613f2f5782518260006101000a81548173ffffffffffffffffffffffffffffffffffffffff021916908373ffffffffffffffffffffffffffffffffffffffff16021790555091602001919060010190613ed7565b5b509050613f3d9190614082565b5090565b828054828255906000526020600020908101928215613f7d579160200282015b82811115613f7c578251825591602001919060010190613f61565b5b509050613f8a9190614082565b5090565b828054828255906000526020600020908101928215613fdd579160200282015b82811115613fdc578251829080519060200190613fcc92919061409f565b5091602001919060010190613fae565b5b509050613fea9190614125565b5090565b82805482825590600052602060002090810192821561403d579160200282015b8281111561403c57825182908051906020019061402c929190614149565b509160200191906001019061400e565b5b50905061404a91906141cf565b5090565b6040518060600160405280600015158152602001600060ff16815260200160006bffffffffffffffffffffffff1681525090565b5b8082111561409b576000816000905550600101614083565b5090565b8280546140ab9061681b565b90600052602060002090601f0160209004810192826140cd5760008555614114565b82601f106140e657805160ff1916838001178555614114565b82800160010185558215614114579182015b828111156141135782518255916020019190600101906140f8565b5b5090506141219190614082565b5090565b5b80821115614145576000818161413c91906141f3565b50600101614126565b5090565b8280546141559061681b565b90600052602060002090601f01602090048101928261417757600085556141be565b82601f1061419057805160ff19168380011785556141be565b828001600101855582156141be579182015b828111156141bd5782518255916020019190600101906141a2565b5b5090506141cb9190614082565b5090565b5b808211156141ef57600081816141e69190614233565b506001016141d0565b5090565b5080546141ff9061681b565b6000825580601f106142115750614230565b601f01602090049060005260206000209081019061422f9190614082565b5b50565b50805461423f9061681b565b6000825580601f106142515750614270565b601f01602090049060005260206000209081019061426f9190614082565b5b50565b6000614286614281846162a2565b61627d565b905080838252602082019050828560208602820111156142a9576142a8616a20565b5b60005b858110156142d957816142bf8882614535565b8452602084019350602083019250506001810190506142ac565b5050509392505050565b60006142f66142f1846162ce565b61627d565b9050808382526020820190508285602086028201111561431957614318616a20565b5b60005b8581101561436757813567ffffffffffffffff81111561433f5761433e616a1b565b5b80860161434c8982614656565b8552602085019450602084019350505060018101905061431c565b5050509392505050565b600061438461437f846162fa565b61627d565b905080838252602082019050828560208602820111156143a7576143a6616a20565b5b60005b858110156143f557813567ffffffffffffffff8111156143cd576143cc616a1b565b5b8086016143da8982614708565b855260208501945060208401935050506001810190506143aa565b5050509392505050565b600061441261440d84616326565b61627d565b9050808382526020820190508285602086028201111561443557614434616a20565b5b60005b85811015614465578161444b8882614736565b845260208401935060208301925050600181019050614438565b5050509392505050565b600061448261447d84616352565b61627d565b90508281526020810184848401111561449e5761449d616a25565b5b6144a98482856167d9565b509392505050565b60006144c46144bf84616352565b61627d565b9050828152602081018484840111156144e0576144df616a25565b5b6144eb8482856167e8565b509392505050565b600061450661450184616383565b61627d565b90508281526020810184848401111561452257614521616a25565b5b61452d8482856167d9565b509392505050565b600081359050614544816172ea565b92915050565b600081519050614559816172ea565b92915050565b600082601f83011261457457614573616a1b565b5b8135614584848260208601614273565b91505092915050565b600082601f8301126145a2576145a1616a1b565b5b81356145b28482602086016142e3565b91505092915050565b600082601f8301126145d0576145cf616a1b565b5b81356145e0848260208601614371565b91505092915050565b600082601f8301126145fe576145fd616a1b565b5b813561460e8482602086016143ff565b91505092915050565b60008151905061462681617301565b92915050565b60008135905061463b81617318565b92915050565b60008151905061465081617318565b92915050565b600082601f83011261466b5761466a616a1b565b5b813561467b84826020860161446f565b91505092915050565b600082601f83011261469957614698616a1b565b5b81516146a98482602086016144b1565b91505092915050565b60008083601f8401126146c8576146c7616a1b565b5b8235905067ffffffffffffffff8111156146e5576146e4616a16565b5b60208301915083600182028301111561470157614700616a20565b5b9250929050565b600082601f83011261471d5761471c616a1b565b5b813561472d8482602086016144f3565b91505092915050565b6000813590506147458161732f565b92915050565b60008151905061475a8161732f565b92915050565b60008135905061476f81617346565b92915050565b6000815190506147848161735d565b92915050565b6000602082840312156147a05761479f616a2f565b5b60006147ae84828501614535565b91505092915050565b6000602082840312156147cd576147cc616a2f565b5b60006147db8482850161454a565b91505092915050565b60008060008060008060c0878903121561480157614800616a2f565b5b600061480f89828a01614535565b965050602061482089828a01614535565b955050604061483189828a01614535565b945050606061484289828a01614736565b935050608061485389828a01614736565b92505060a061486489828a01614736565b9150509295509295509295565b600080600080600060a0868803121561488d5761488c616a2f565b5b600086013567ffffffffffffffff8111156148ab576148aa616a2a565b5b6148b78882890161455f565b955050602086013567ffffffffffffffff8111156148d8576148d7616a2a565b5b6148e4888289016145e9565b945050604086013567ffffffffffffffff81111561490557614904616a2a565b5b614911888289016145bb565b935050606086013567ffffffffffffffff81111561493257614931616a2a565b5b61493e8882890161458d565b925050608086013567ffffffffffffffff81111561495f5761495e616a2a565b5b61496b88828901614708565b9150509295509295909350565b60006020828403121561498e5761498d616a2f565b5b600061499c84828501614617565b91505092915050565b6000602082840312156149bb576149ba616a2f565b5b60006149c984828501614641565b91505092915050565b6000602082840312156149e8576149e7616a2f565b5b600082015167ffffffffffffffff811115614a0657614a05616a2a565b5b614a1284828501614684565b91505092915050565b600060208284031215614a3157614a30616a2f565b5b6000614a3f84828501614736565b91505092915050565b600060208284031215614a5e57614a5d616a2f565b5b6000614a6c8482850161474b565b91505092915050565b60008060408385031215614a8c57614a8b616a2f565b5b6000614a9a85828601614736565b9250506020614aab85828601614535565b9150509250929050565b60008060408385031215614acc57614acb616a2f565b5b6000614ada85828601614736565b9250506020614aeb85828601614736565b9150509250929050565b60008060408385031215614b0c57614b0b616a2f565b5b6000614b1a85828601614736565b9250506020614b2b85828601614760565b9150509250929050565b60008060008060608587031215614b4f57614b4e616a2f565b5b6000614b5d87828801614736565b9450506020614b6e87828801614760565b935050604085013567ffffffffffffffff811115614b8f57614b8e616a2a565b5b614b9b878288016146b2565b925092505092959194509250565b600080600080600060a08688031215614bc557614bc4616a2f565b5b6000614bd388828901614736565b9550506020614be488828901614760565b9450506040614bf588828901614760565b9350506060614c068882890161462c565b9250506080614c178882890161462c565b9150509295509295909350565b600060208284031215614c3a57614c39616a2f565b5b6000614c4884828501614775565b91505092915050565b6000614c5d8383614cd1565b60208301905092915050565b6000614c75838361508b565b905092915050565b6000614c8983836150fd565b905092915050565b6000614c9d8383615266565b905092915050565b6000614cb183836152d8565b905092915050565b6000614cc58383615834565b60208301905092915050565b614cda816166d1565b82525050565b614ce9816166d1565b82525050565b6000614cfa82616472565b614d048185616548565b9350614d0f836163b4565b8060005b83811015614d40578151614d278882614c51565b9750614d32836164e0565b925050600181019050614d13565b5085935050505092915050565b6000614d588261647d565b614d628185616548565b9350614d6d836163c4565b8060005b83811015614da557614d82826169f0565b614d8c8882614c51565b9750614d97836164ed565b925050600181019050614d71565b5085935050505092915050565b6000614dbd82616488565b614dc78185616559565b935083602082028501614dd9856163d9565b8060005b85811015614e155784840389528151614df68582614c69565b9450614e01836164fa565b925060208a01995050600181019050614ddd565b50829750879550505050505092915050565b6000614e3282616493565b614e3c8185616559565b935083602082028501614e4e856163e9565b8060005b85811015614e8957848403895281614e6a8582614c7d565b9450614e7583616507565b925060208a01995050600181019050614e52565b50829750879550505050505092915050565b6000614ea68261649e565b614eb0818561656a565b935083602082028501614ec2856163fe565b8060005b85811015614efe5784840389528151614edf8582614c91565b9450614eea83616514565b925060208a01995050600181019050614ec6565b50829750879550505050505092915050565b6000614f1b826164a9565b614f25818561656a565b935083602082028501614f378561640e565b8060005b85811015614f7257848403895281614f538582614ca5565b9450614f5e83616521565b925060208a01995050600181019050614f3b565b50829750879550505050505092915050565b6000614f8f826164b4565b614f99818561657b565b9350614fa483616423565b8060005b83811015614fd5578151614fbc8882614cb9565b9750614fc78361652e565b925050600181019050614fa8565b5085935050505092915050565b6000614fed826164bf565b614ff7818561657b565b935061500283616433565b8060005b8381101561503a5761501782616a03565b6150218882614cb9565b975061502c8361653b565b925050600181019050615006565b5085935050505092915050565b615050816166e3565b82525050565b61505f816166e3565b82525050565b61506e816166ef565b82525050565b615085615080826166ef565b6168fb565b82525050565b6000615096826164ca565b6150a0818561658c565b93506150b08185602086016167e8565b6150b981616a34565b840191505092915050565b60006150cf826164ca565b6150d9818561659d565b93506150e98185602086016167e8565b6150f281616a34565b840191505092915050565b6000815461510a8161681b565b615114818661658c565b9450600182166000811461512f576001811461514157615174565b60ff1983168652602086019350615174565b61514a85616448565b60005b8381101561516c5781548189015260018201915060208101905061514d565b808801955050505b50505092915050565b6000815461518a8161681b565b615194818661659d565b945060018216600081146151af57600181146151c1576151f4565b60ff19831686526020860193506151f4565b6151ca85616448565b60005b838110156151ec578154818901526001820191506020810190506151cd565b808801955050505b50505092915050565b6152068161675b565b82525050565b6152158161677f565b82525050565b615224816167a3565b82525050565b615233816167b5565b82525050565b600061524583856165bf565b93506152528385846167d9565b61525b83616a34565b840190509392505050565b6000615271826164d5565b61527b81856165ae565b935061528b8185602086016167e8565b61529481616a34565b840191505092915050565b60006152aa826164d5565b6152b481856165bf565b93506152c48185602086016167e8565b6152cd81616a34565b840191505092915050565b600081546152e58161681b565b6152ef81866165ae565b9450600182166000811461530a576001811461531c5761534f565b60ff198316865260208601935061534f565b6153258561645d565b60005b8381101561534757815481890152600182019150602081019050615328565b808801955050505b50505092915050565b600081546153658161681b565b61536f81866165bf565b9450600182166000811461538a576001811461539c576153cf565b60ff19831686526020860193506153cf565b6153a58561645d565b60005b838110156153c7578154818901526001820191506020810190506153a8565b808801955050505b50505092915050565b60006153e5602d836165bf565b91506153f082616a52565b604082019050919050565b60006154086028836165bf565b915061541382616aa1565b604082019050919050565b600061542b6036836165bf565b915061543682616af0565b604082019050919050565b600061544e6050836165bf565b915061545982616b3f565b606082019050919050565b60006154716040836165bf565b915061547c82616bb4565b604082019050919050565b6000615494602c836165bf565b915061549f82616c03565b604082019050919050565b60006154b76013836165bf565b91506154c282616c52565b602082019050919050565b60006154da604c836165bf565b91506154e582616c7b565b606082019050919050565b60006154fd6002836165d0565b915061550882616cf0565b600282019050919050565b6000615520603c836165bf565b915061552b82616d19565b604082019050919050565b6000615543601f836165bf565b915061554e82616d68565b602082019050919050565b6000615566603b836165bf565b915061557182616d91565b604082019050919050565b60006155896037836165bf565b915061559482616de0565b604082019050919050565b60006155ac6029836165bf565b91506155b782616e2f565b604082019050919050565b60006155cf602d836165bf565b91506155da82616e7e565b604082019050919050565b60006155f26025836165bf565b91506155fd82616ecd565b604082019050919050565b6000615615602e836165bf565b915061562082616f1c565b604082019050919050565b60006156386026836165bf565b915061564382616f6b565b604082019050919050565b600061565b6020836165bf565b915061566682616fba565b602082019050919050565b600061567e6011836165bf565b915061568982616fe3565b602082019050919050565b60006156a16026836165bf565b91506156ac8261700c565b604082019050919050565b60006156c46027836165bf565b91506156cf8261705b565b604082019050919050565b60006156e76000836165bf565b91506156f2826170aa565b600082019050919050565b600061570a6023836165bf565b9150615715826170ad565b604082019050919050565b600061572d603b836165bf565b9150615738826170fc565b604082019050919050565b6000615750604f836165bf565b915061575b8261714b565b606082019050919050565b60006157736026836165bf565b915061577e826171c0565b604082019050919050565b60006157966015836165bf565b91506157a18261720f565b602082019050919050565b60006157b9602b836165bf565b91506157c482617238565b604082019050919050565b60006157dc602b836165bf565b91506157e782617287565b604082019050919050565b6060820160008201516158086000850182615047565b50602082015161581b6020850182615852565b50604082015161582e604085018261587f565b50505050565b61583d8161672c565b82525050565b61584c8161672c565b82525050565b61585b81616736565b82525050565b61586a81616736565b82525050565b615879816167c7565b82525050565b61588881616743565b82525050565b61589781616743565b82525050565b60006158a8826154f0565b91506158b48285615074565b6020820191506158c48284615074565b6020820191508190509392505050565b60006020820190506158e96000830184614ce0565b92915050565b60006040820190506159046000830185614ce0565b6159116020830184614ce0565b9392505050565b600060408201905061592d6000830185614ce0565b61593a6020830184615843565b9392505050565b600060a0820190506159566000830188614ce0565b6159636020830187615843565b8181036040830152615975818661529f565b9050818103606083015261598981856150c4565b90506159986080830184615843565b9695505050505050565b600060a0820190506159b76000830188614ce0565b6159c46020830187615843565b81810360408301526159d68186615358565b905081810360608301526159ea818561517d565b90506159f96080830184615843565b9695505050505050565b60006080820190508181036000830152615a1d8187614cef565b90508181036020830152615a318186614f84565b90508181036040830152615a458185614e9b565b90508181036060830152615a598184614db2565b905095945050505050565b6000606082019050615a796000830186615056565b615a866020830185615861565b615a93604083018461588e565b949350505050565b6000602082019050615ab06000830184615065565b92915050565b6000608082019050615acb6000830187615065565b615ad86020830186615065565b615ae56040830185615843565b615af26060830184614ce0565b95945050505050565b6000606082019050615b106000830186615065565b615b1d6020830185615843565b615b2a6040830184615861565b949350505050565b6000608082019050615b476000830187615065565b615b546020830186615861565b615b616040830185615065565b615b6e6060830184615065565b95945050505050565b60006020820190508181036000830152615b9181846150c4565b905092915050565b6000602082019050615bae60008301846151fd565b92915050565b6000602082019050615bc9600083018461520c565b92915050565b6000602082019050615be4600083018461521b565b92915050565b60006020820190508181036000830152615c04818461529f565b905092915050565b60006020820190508181036000830152615c25816153d8565b9050919050565b60006020820190508181036000830152615c45816153fb565b9050919050565b60006020820190508181036000830152615c658161541e565b9050919050565b60006020820190508181036000830152615c8581615441565b9050919050565b60006020820190508181036000830152615ca581615464565b9050919050565b60006020820190508181036000830152615cc581615487565b9050919050565b60006020820190508181036000830152615ce5816154aa565b9050919050565b60006020820190508181036000830152615d05816154cd565b9050919050565b60006020820190508181036000830152615d2581615513565b9050919050565b60006020820190508181036000830152615d4581615536565b9050919050565b60006020820190508181036000830152615d6581615559565b9050919050565b60006020820190508181036000830152615d858161557c565b9050919050565b60006020820190508181036000830152615da58161559f565b9050919050565b60006020820190508181036000830152615dc5816155c2565b9050919050565b60006020820190508181036000830152615de5816155e5565b9050919050565b60006020820190508181036000830152615e0581615608565b9050919050565b60006020820190508181036000830152615e258161562b565b9050919050565b60006020820190508181036000830152615e458161564e565b9050919050565b60006020820190508181036000830152615e6581615671565b9050919050565b60006020820190508181036000830152615e8581615694565b9050919050565b60006020820190508181036000830152615ea5816156b7565b9050919050565b60006020820190508181036000830152615ec5816156fd565b9050919050565b60006020820190508181036000830152615ee581615720565b9050919050565b60006020820190508181036000830152615f0581615743565b9050919050565b60006020820190508181036000830152615f2581615766565b9050919050565b60006020820190508181036000830152615f4581615789565b9050919050565b60006020820190508181036000830152615f65816157ac565b9050919050565b60006020820190508181036000830152615f85816157cf565b9050919050565b6000606082019050615fa160008301846157f2565b92915050565b6000602082019050615fbc6000830184615843565b92915050565b600061012082019050615fd8600083018c615843565b615fe5602083018b614ce0565b8181036040830152615ff7818a614cef565b9050818103606083015261600b8189614f84565b9050818103608083015261601f8188614e9b565b905081810360a08301526160338187614db2565b905061604260c0830186615843565b61604f60e0830185615843565b818103610100830152616062818461529f565b90509a9950505050505050505050565b600061012082019050616088600083018b615843565b616095602083018a614ce0565b81810360408301526160a78189614d4d565b905081810360608301526160bb8188614fe2565b905081810360808301526160cf8187614f10565b905081810360a08301526160e38186614e27565b90506160f260c083018561522a565b6160ff60e083018461522a565b818103610100830152616111816156da565b90509998505050505050505050565b600061014082019050616136600083018d615843565b616143602083018c614ce0565b616150604083018b615843565b61615d606083018a615843565b61616a6080830189615843565b61617760a0830188615843565b61618460c0830187615843565b61619160e0830186615843565b61619f610100830185615056565b6161ad610120830184615056565b9b9a5050505050505050505050565b60006040820190506161d16000830185615843565b6161de6020830184615843565b9392505050565b60006080820190506161fa6000830188615843565b6162076020830187615861565b6162146040830186615870565b8181036060830152616227818486615239565b90509695505050505050565b60006080820190506162486000830186615843565b6162556020830185615861565b6162626040830184615870565b8181036060830152616273816156da565b9050949350505050565b6000616287616298565b90506162938282616881565b919050565b6000604051905090565b600067ffffffffffffffff8211156162bd576162bc6169c1565b5b602082029050602081019050919050565b600067ffffffffffffffff8211156162e9576162e86169c1565b5b602082029050602081019050919050565b600067ffffffffffffffff821115616315576163146169c1565b5b602082029050602081019050919050565b600067ffffffffffffffff821115616341576163406169c1565b5b602082029050602081019050919050565b600067ffffffffffffffff82111561636d5761636c6169c1565b5b61637682616a34565b9050602081019050919050565b600067ffffffffffffffff82111561639e5761639d6169c1565b5b6163a782616a34565b9050602081019050919050565b6000819050602082019050919050565b60008190508160005260206000209050919050565b6000819050602082019050919050565b60008190508160005260206000209050919050565b6000819050602082019050919050565b60008190508160005260206000209050919050565b6000819050602082019050919050565b60008190508160005260206000209050919050565b60008190508160005260206000209050919050565b60008190508160005260206000209050919050565b600081519050919050565b600081549050919050565b600081519050919050565b600081549050919050565b600081519050919050565b600081549050919050565b600081519050919050565b600081549050919050565b600081519050919050565b600081519050919050565b6000602082019050919050565b6000600182019050919050565b6000602082019050919050565b6000600182019050919050565b6000602082019050919050565b6000600182019050919050565b6000602082019050919050565b6000600182019050919050565b600082825260208201905092915050565b600082825260208201905092915050565b600082825260208201905092915050565b600082825260208201905092915050565b600082825260208201905092915050565b600082825260208201905092915050565b600082825260208201905092915050565b600082825260208201905092915050565b600081905092915050565b60006165e68261672c565b91506165f18361672c565b9250827fffffffffffffffffffffffffffffffffffffffffffffffffffffffffffffffff0382111561662657616625616905565b5b828201905092915050565b600061663c82616743565b915061664783616743565b9250826bffffffffffffffffffffffff0382111561666857616667616905565b5b828201905092915050565b600061667e8261672c565b91506166898361672c565b92508282101561669c5761669b616905565b5b828203905092915050565b600073ffffffffffffffffffffffffffffffffffffffff82169050919050565b6000819050919050565b60006166dc8261670c565b9050919050565b60008115159050919050565b6000819050919050565b6000819050616707826172d6565b919050565b600073ffffffffffffffffffffffffffffffffffffffff82169050919050565b6000819050919050565b600060ff82169050919050565b60006bffffffffffffffffffffffff82169050919050565b60006167668261676d565b9050919050565b60006167788261670c565b9050919050565b600061678a82616791565b9050919050565b600061679c8261670c565b9050919050565b60006167ae826166f9565b9050919050565b60006167c08261672c565b9050919050565b60006167d282616743565b9050919050565b82818337600083830152505050565b60005b838110156168065780820151818401526020810190506167eb565b83811115616815576000848401525b50505050565b6000600282049050600182168061683357607f821691505b6020821081141561684757616846616963565b5b50919050565b600061686061685b83616a45565b6166a7565b9050919050565b600061687a61687583616a45565b6166c7565b9050919050565b61688a82616a34565b810181811067ffffffffffffffff821117156168a9576168a86169c1565b5b80604052505050565b60006168bd8261672c565b91507fffffffffffffffffffffffffffffffffffffffffffffffffffffffffffffffff8214156168f0576168ef616905565b5b600182019050919050565b6000819050919050565b7f4e487b7100000000000000000000000000000000000000000000000000000000600052601160045260246000fd5b7f4e487b7100000000000000000000000000000000000000000000000000000000600052602160045260246000fd5b7f4e487b7100000000000000000000000000000000000000000000000000000000600052602260045260246000fd5b7f4e487b7100000000000000000000000000000000000000000000000000000000600052603260045260246000fd5b7f4e487b7100000000000000000000000000000000000000000000000000000000600052604160045260246000fd5b60006169fc825461684d565b9050919050565b6000616a0f8254616867565b9050919050565b600080fd5b600080fd5b600080fd5b600080fd5b600080fd5b600080fd5b6000601f19601f8301169050919050565b60008160001c9050919050565b7f495043543a3a63616e63656c3a2063616e6e6f742063616e63656c206578656360008201527f757465642070726f706f73616c00000000000000000000000000000000000000602082015250565b7f495043543a3a63617374566f7465496e7465726e616c3a20766f74696e67206960008201527f7320636c6f736564000000000000000000000000000000000000000000000000602082015250565b7f495043543a3a70726f706f73653a2070726f706f73657220766f74657320626560008201527f6c6f772070726f706f73616c207468726573686f6c6400000000000000000000602082015250565b7f495043543a3a70726f706f73653a206f6e65206c6976652070726f706f73616c60008201527f207065722070726f706f7365722c20666f756e6420616e20616c72656164792060208201527f70656e64696e672070726f706f73616c00000000000000000000000000000000604082015250565b7f495043543a3a696e697469616c697a653a2074696d656c6f636b2061646d696e60008201527f206973206e6f742061737369676e656420746f204950435444656c6567617465602082015250565b7f495043543a3a696e697469616c697a653a20696e76616c69642070726f706f7360008201527f616c207468726573686f6c640000000000000000000000000000000000000000602082015250565b7f4f6e6c792061646d696e2063616e2063616c6c00000000000000000000000000600082015250565b7f495043543a3a71756575654f72526576657274496e7465726e616c3a2069646560008201527f6e746963616c2070726f706f73616c20616374696f6e20616c7265616479207160208201527f7565756564206174206574610000000000000000000000000000000000000000604082015250565b7f1901000000000000000000000000000000000000000000000000000000000000600082015250565b7f495043543a3a657865637574653a2070726f706f73616c2063616e206f6e6c7960008201527f2062652065786563757465642069662069742069732071756575656400000000602082015250565b7f495043543a3a70726f706f73653a20746f6f206d616e7920616374696f6e7300600082015250565b7f495043543a3a71756575653a2070726f706f73616c2063616e206f6e6c79206260008201527f6520717565756564206966206974206973207375636365656465640000000000602082015250565b7f495043543a3a5f73657450726f706f73616c5468726573686f6c643a20696e7660008201527f616c69642070726f706f73616c207468726573686f6c64000000000000000000602082015250565b7f495043543a3a63617374566f7465496e7465726e616c3a20696e76616c69642060008201527f766f746520747970650000000000000000000000000000000000000000000000602082015250565b7f495043543a3a5f736574566f74696e67506572696f643a20696e76616c69642060008201527f766f74696e6720706572696f6400000000000000000000000000000000000000602082015250565b7f495043543a5f61636365707441646d696e3a2070656e64696e672061646d696e60008201527f206f6e6c79000000000000000000000000000000000000000000000000000000602082015250565b7f496e697469616c697a61626c653a20636f6e747261637420697320616c72656160008201527f647920696e697469616c697a6564000000000000000000000000000000000000602082015250565b7f495043543a3a63616e63656c3a2070726f706f7365722061626f76652074687260008201527f6573686f6c640000000000000000000000000000000000000000000000000000602082015250565b7f495043543a3a73746174653a20696e76616c69642070726f706f73616c206964600082015250565b7f6164646974696f6e206f766572666c6f77000000000000000000000000000000600082015250565b7f495043543a3a63617374566f746542795369673a20696e76616c69642073696760008201527f6e61747572650000000000000000000000000000000000000000000000000000602082015250565b7f495043543a3a696e697469616c697a653a20696e76616c696420766f74696e6760008201527f20706572696f6400000000000000000000000000000000000000000000000000602082015250565b50565b7f495043543a3a70726f706f73653a206d7573742070726f76696465206163746960008201527f6f6e730000000000000000000000000000000000000000000000000000000000602082015250565b7f495043543a3a70726f706f73653a2070726f706f73616c2066756e6374696f6e60008201527f20696e666f726d6174696f6e206172697479206d69736d617463680000000000602082015250565b7f495043543a3a70726f706f73653a206f6e65206c6976652070726f706f73616c60008201527f207065722070726f706f7365722c20666f756e6420616e20616c72656164792060208201527f6163746976652070726f706f73616c0000000000000000000000000000000000604082015250565b7f495043543a3a696e697469616c697a653a20696e76616c696420766f74696e6760008201527f2064656c61790000000000000000000000000000000000000000000000000000602082015250565b7f7375627472616374696f6e20756e646572666c6f770000000000000000000000600082015250565b7f495043543a3a63617374566f7465496e7465726e616c3a20766f74657220616c60008201527f726561647920766f746564000000000000000000000000000000000000000000602082015250565b7f495043543a3a5f736574566f74696e6744656c61793a20696e76616c6964207660008201527f6f74696e672064656c6179000000000000000000000000000000000000000000602082015250565b600881106172e7576172e6616934565b5b50565b6172f3816166d1565b81146172fe57600080fd5b50565b61730a816166e3565b811461731557600080fd5b50565b617321816166ef565b811461732c57600080fd5b50565b6173388161672c565b811461734357600080fd5b50565b61734f81616736565b811461735a57600080fd5b50565b61736681616743565b811461737157600080fd5b5056fea2646970667358221220770aeae1e0be836829b38c9e3ac024a443a2634e9bcc35633b7132159d9404e264736f6c63430008050033",
  "devdoc": {
    "kind": "dev",
    "methods": {
      "_acceptAdmin()": {
        "details": "Admin function for pending admin to accept role and update admin"
      },
      "_setPendingAdmin(address)": {
        "details": "Admin function to begin change of admin. The newPendingAdmin must call `_acceptAdmin` to finalize the transfer.",
        "params": {
          "newPendingAdmin": "New pending admin."
        }
      },
      "_setProposalThreshold(uint256)": {
        "details": "newProposalThreshold must be greater than the hardcoded min",
        "params": {
          "newProposalThreshold": "new proposal threshold"
        }
      },
      "_setVotingDelay(uint256)": {
        "params": {
          "newVotingDelay": "new voting delay, in blocks"
        }
      },
      "_setVotingPeriod(uint256)": {
        "params": {
          "newVotingPeriod": "new voting period, in blocks"
        }
      },
      "cancel(uint256)": {
        "params": {
          "proposalId": "The id of the proposal to cancel"
        }
      },
      "castVote(uint256,uint8)": {
        "params": {
          "proposalId": "The id of the proposal to vote on",
          "support": "The support value for the vote. 0=against, 1=for, 2=abstain"
        }
      },
      "castVoteBySig(uint256,uint8,uint8,bytes32,bytes32)": {
        "details": "External function that accepts EIP-712 signatures for voting on proposals."
      },
      "castVoteWithReason(uint256,uint8,string)": {
        "params": {
          "proposalId": "The id of the proposal to vote on",
          "reason": "The reason given for the vote by the voter",
          "support": "The support value for the vote. 0=against, 1=for, 2=abstain"
        }
      },
      "execute(uint256)": {
        "params": {
          "proposalId": "The id of the proposal to execute"
        }
      },
      "getActions(uint256)": {
        "params": {
          "proposalId": "Proposal to query."
        },
        "returns": {
          "calldatas": "Calldatas for proposal calls.",
          "signatures": "Function signatures for proposal calls.",
          "targets": "Target addresses for proposal calls.",
          "values": "Eth values for proposal calls."
        }
      },
      "getReceipt(uint256,address)": {
        "params": {
          "proposalId": "the id of proposal",
          "voter": "The address of the voter"
        },
        "returns": {
          "_0": "The voting receipt"
        }
      },
      "initialize(address,address,address,uint256,uint256,uint256)": {
        "params": {
          "proposalThreshold_": "The initial proposal threshold",
          "releaseToken_": "The address of the \"Release\" voting token. If none, specify the zero address.",
          "timelock_": "The address of the Timelock",
          "token_": "The address of the voting token",
          "votingDelay_": "The initial voting delay",
          "votingPeriod_": "The initial voting period"
        }
      },
      "propose(address[],uint256[],string[],bytes[],string)": {
        "params": {
          "calldatas": "Calldatas for proposal calls.",
          "description": "String description of the proposal.",
          "signatures": "Function signatures for proposal calls.",
          "targets": "Target addresses for proposal calls.",
          "values": "Eth values for proposal calls."
        },
        "returns": {
          "_0": "Proposal id of new proposal."
        }
      },
      "queue(uint256)": {
        "params": {
          "proposalId": "The id of the proposal to queue"
        }
      },
      "state(uint256)": {
        "params": {
          "proposalId": "The id of the proposal"
        },
        "returns": {
          "_0": "Proposal state"
        }
      }
    },
    "version": 1
  },
  "userdoc": {
    "events": {
      "NewAdmin(address,address)": {
        "notice": "Emitted when pendingAdmin is accepted, which means admin is updated"
      },
      "NewImplementation(address,address)": {
        "notice": "Emitted when implementation is changed"
      },
      "NewPendingAdmin(address,address)": {
        "notice": "Emitted when pendingAdmin is changed"
      },
      "ProposalCanceled(uint256)": {
        "notice": "An event emitted when a proposal has been canceled"
      },
      "ProposalCreated(uint256,address,address[],uint256[],string[],bytes[],uint256,uint256,string)": {
        "notice": "An event emitted when a new proposal is created"
      },
      "ProposalExecuted(uint256)": {
        "notice": "An event emitted when a proposal has been executed in the Timelock"
      },
      "ProposalQueued(uint256,uint256)": {
        "notice": "An event emitted when a proposal has been queued in the Timelock"
      },
      "ProposalThresholdSet(uint256,uint256)": {
        "notice": "Emitted when proposal threshold is set"
      },
      "VoteCast(address,uint256,uint8,uint256,string)": {
        "notice": "An event emitted when a vote has been cast on a proposal"
      },
      "VotingDelaySet(uint256,uint256)": {
        "notice": "An event emitted when the voting delay is set"
      },
      "VotingPeriodSet(uint256,uint256)": {
        "notice": "An event emitted when the voting period is set"
      }
    },
    "kind": "user",
    "methods": {
      "BALLOT_TYPEHASH()": {
        "notice": "The EIP-712 typehash for the ballot struct used by the contract"
      },
      "DOMAIN_TYPEHASH()": {
        "notice": "The EIP-712 typehash for the contract's domain"
      },
      "MAX_PROPOSAL_THRESHOLD()": {
        "notice": "The maximum setable proposal threshold"
      },
      "MAX_VOTING_DELAY()": {
        "notice": "The max setable voting delay"
      },
      "MAX_VOTING_PERIOD()": {
        "notice": "The max setable voting period"
      },
      "MIN_PROPOSAL_THRESHOLD()": {
        "notice": "The minimum setable proposal threshold"
      },
      "MIN_VOTING_DELAY()": {
        "notice": "The min setable voting delay"
      },
      "MIN_VOTING_PERIOD()": {
        "notice": "The minimum setable voting period"
      },
      "_acceptAdmin()": {
        "notice": "Accepts transfer of admin rights. msg.sender must be pendingAdmin"
      },
      "_setPendingAdmin(address)": {
        "notice": "Begins transfer of admin rights. The newPendingAdmin must call `_acceptAdmin` to finalize the transfer."
      },
      "_setProposalThreshold(uint256)": {
        "notice": "Admin function for setting the proposal threshold"
      },
      "_setVotingDelay(uint256)": {
        "notice": "Admin function for setting the voting delay"
      },
      "_setVotingPeriod(uint256)": {
        "notice": "Admin function for setting the voting period"
      },
      "admin()": {
        "notice": "Administrator for this contract"
      },
      "cancel(uint256)": {
        "notice": "Cancels a proposal only if sender is the proposer, or proposer delegates dropped below proposal threshold"
      },
      "castVote(uint256,uint8)": {
        "notice": "Cast a vote for a proposal"
      },
      "castVoteBySig(uint256,uint8,uint8,bytes32,bytes32)": {
        "notice": "Cast a vote for a proposal by signature"
      },
      "castVoteWithReason(uint256,uint8,string)": {
        "notice": "Cast a vote for a proposal with a reason"
      },
      "execute(uint256)": {
        "notice": "Executes a queued proposal if eta has passed"
      },
      "getActions(uint256)": {
        "notice": "Gets actions of a proposal."
      },
      "getReceipt(uint256,address)": {
        "notice": "Gets the receipt for a voter on a given proposal"
      },
      "implementation()": {
        "notice": "Active brains of Governor"
      },
      "initialize(address,address,address,uint256,uint256,uint256)": {
        "notice": "Used to initialize the contract during delegator contructor"
      },
      "latestProposalIds(address)": {
        "notice": "The latest proposal for each proposer"
      },
      "name()": {
        "notice": "The name of this contract"
      },
      "pendingAdmin()": {
        "notice": "Pending administrator for this contract"
      },
      "proposalCalldatas(uint256,uint256)": {
        "notice": "The official each proposal's calldatas: An ordered list of calldata to be passed to each call"
      },
      "proposalCount()": {
        "notice": "The total number of proposals"
      },
      "proposalMaxOperations()": {
        "notice": "The maximum number of actions that can be included in a proposal"
      },
      "proposalReceipts(uint256,address)": {
        "notice": "The official each proposal's receipts: Receipts of ballots for the entire set of voters"
      },
      "proposalSignatures(uint256,uint256)": {
        "notice": "The official each proposal's signatures: An ordered list of function signatures to be called"
      },
      "proposalTargets(uint256,uint256)": {
        "notice": "The official each proposal's targets: An ordered list of target addresses for calls to be made"
      },
      "proposalThreshold()": {
        "notice": "The number of votes required in order for a voter to become a proposer"
      },
      "proposalValues(uint256,uint256)": {
        "notice": "The official each proposal's values: An ordered list of values (i.e. msg.value) to be passed to the calls to be made"
      },
      "proposals(uint256)": {
        "notice": "The official record of all proposals ever proposed"
      },
      "propose(address[],uint256[],string[],bytes[],string)": {
        "notice": "Function used to propose a new proposal. Sender must have delegates above the proposal threshold."
      },
      "queue(uint256)": {
        "notice": "Queues a proposal of state succeeded"
      },
      "quorumVotes()": {
        "notice": "The number of votes in support of a proposal required in order for a quorum to be reached and for a vote to succeed"
      },
      "releaseToken()": {
        "notice": "The address of the \"Release\" governance token"
      },
      "state(uint256)": {
        "notice": "Gets the state of a proposal"
      },
      "timelock()": {
        "notice": "The address of the Governance Timelock"
      },
      "token()": {
        "notice": "The address of the governance token"
      },
      "votingDelay()": {
        "notice": "The delay before voting on a proposal may take place, once proposed, in blocks"
      },
      "votingPeriod()": {
        "notice": "The duration of voting on a proposal, in blocks"
      }
    },
    "version": 1
  },
  "storageLayout": {
    "storage": [
      {
        "astId": 7549,
        "contract": "contracts/governor/IPCTDelegate.sol:IPCTDelegate",
        "label": "admin",
        "offset": 0,
        "slot": "0",
        "type": "t_address"
      },
      {
        "astId": 7552,
        "contract": "contracts/governor/IPCTDelegate.sol:IPCTDelegate",
        "label": "pendingAdmin",
        "offset": 0,
        "slot": "1",
        "type": "t_address"
      },
      {
        "astId": 7555,
        "contract": "contracts/governor/IPCTDelegate.sol:IPCTDelegate",
        "label": "implementation",
        "offset": 0,
        "slot": "2",
        "type": "t_address"
      },
      {
        "astId": 7442,
        "contract": "contracts/governor/IPCTDelegate.sol:IPCTDelegate",
        "label": "votingDelay",
        "offset": 0,
        "slot": "3",
        "type": "t_uint256"
      },
      {
        "astId": 7445,
        "contract": "contracts/governor/IPCTDelegate.sol:IPCTDelegate",
        "label": "votingPeriod",
        "offset": 0,
        "slot": "4",
        "type": "t_uint256"
      },
      {
        "astId": 7448,
        "contract": "contracts/governor/IPCTDelegate.sol:IPCTDelegate",
        "label": "proposalThreshold",
        "offset": 0,
        "slot": "5",
        "type": "t_uint256"
      },
      {
        "astId": 7451,
        "contract": "contracts/governor/IPCTDelegate.sol:IPCTDelegate",
        "label": "proposalCount",
        "offset": 0,
        "slot": "6",
        "type": "t_uint256"
      },
      {
        "astId": 7455,
        "contract": "contracts/governor/IPCTDelegate.sol:IPCTDelegate",
        "label": "timelock",
        "offset": 0,
        "slot": "7",
        "type": "t_contract(TimelockInterface)7727"
      },
      {
        "astId": 7459,
        "contract": "contracts/governor/IPCTDelegate.sol:IPCTDelegate",
        "label": "token",
        "offset": 0,
        "slot": "8",
        "type": "t_contract(IHasVotes)2682"
      },
      {
        "astId": 7463,
        "contract": "contracts/governor/IPCTDelegate.sol:IPCTDelegate",
        "label": "releaseToken",
        "offset": 0,
        "slot": "9",
        "type": "t_contract(IHasVotes)2682"
      },
      {
        "astId": 7469,
        "contract": "contracts/governor/IPCTDelegate.sol:IPCTDelegate",
        "label": "proposals",
        "offset": 0,
        "slot": "10",
        "type": "t_mapping(t_uint256,t_struct(Proposal)7527_storage)"
      },
      {
        "astId": 7475,
        "contract": "contracts/governor/IPCTDelegate.sol:IPCTDelegate",
        "label": "proposalTargets",
        "offset": 0,
        "slot": "11",
        "type": "t_mapping(t_uint256,t_array(t_address)dyn_storage)"
      },
      {
        "astId": 7481,
        "contract": "contracts/governor/IPCTDelegate.sol:IPCTDelegate",
        "label": "proposalValues",
        "offset": 0,
        "slot": "12",
        "type": "t_mapping(t_uint256,t_array(t_uint256)dyn_storage)"
      },
      {
        "astId": 7487,
        "contract": "contracts/governor/IPCTDelegate.sol:IPCTDelegate",
        "label": "proposalSignatures",
        "offset": 0,
        "slot": "13",
        "type": "t_mapping(t_uint256,t_array(t_string_storage)dyn_storage)"
      },
      {
        "astId": 7493,
        "contract": "contracts/governor/IPCTDelegate.sol:IPCTDelegate",
        "label": "proposalCalldatas",
        "offset": 0,
        "slot": "14",
        "type": "t_mapping(t_uint256,t_array(t_bytes_storage)dyn_storage)"
      },
      {
        "astId": 7501,
        "contract": "contracts/governor/IPCTDelegate.sol:IPCTDelegate",
        "label": "proposalReceipts",
        "offset": 0,
        "slot": "15",
        "type": "t_mapping(t_uint256,t_mapping(t_address,t_struct(Receipt)7534_storage))"
      },
      {
        "astId": 7506,
        "contract": "contracts/governor/IPCTDelegate.sol:IPCTDelegate",
        "label": "latestProposalIds",
        "offset": 0,
        "slot": "16",
        "type": "t_mapping(t_address,t_uint256)"
      },
      {
        "astId": 563,
        "contract": "contracts/governor/IPCTDelegate.sol:IPCTDelegate",
        "label": "_initialized",
        "offset": 0,
        "slot": "17",
        "type": "t_bool"
      },
      {
        "astId": 566,
        "contract": "contracts/governor/IPCTDelegate.sol:IPCTDelegate",
        "label": "_initializing",
        "offset": 1,
        "slot": "17",
        "type": "t_bool"
      }
    ],
    "types": {
      "t_address": {
        "encoding": "inplace",
        "label": "address",
        "numberOfBytes": "20"
      },
      "t_array(t_address)dyn_storage": {
        "base": "t_address",
        "encoding": "dynamic_array",
        "label": "address[]",
        "numberOfBytes": "32"
      },
      "t_array(t_bytes_storage)dyn_storage": {
        "base": "t_bytes_storage",
        "encoding": "dynamic_array",
        "label": "bytes[]",
        "numberOfBytes": "32"
      },
      "t_array(t_string_storage)dyn_storage": {
        "base": "t_string_storage",
        "encoding": "dynamic_array",
        "label": "string[]",
        "numberOfBytes": "32"
      },
      "t_array(t_uint256)dyn_storage": {
        "base": "t_uint256",
        "encoding": "dynamic_array",
        "label": "uint256[]",
        "numberOfBytes": "32"
      },
      "t_bool": {
        "encoding": "inplace",
        "label": "bool",
        "numberOfBytes": "1"
      },
      "t_bytes_storage": {
        "encoding": "bytes",
        "label": "bytes",
        "numberOfBytes": "32"
      },
      "t_contract(IHasVotes)2682": {
        "encoding": "inplace",
        "label": "contract IHasVotes",
        "numberOfBytes": "20"
      },
      "t_contract(TimelockInterface)7727": {
        "encoding": "inplace",
        "label": "contract TimelockInterface",
        "numberOfBytes": "20"
      },
      "t_mapping(t_address,t_struct(Receipt)7534_storage)": {
        "encoding": "mapping",
        "key": "t_address",
        "label": "mapping(address => struct IPCTDelegateStorageV1.Receipt)",
        "numberOfBytes": "32",
        "value": "t_struct(Receipt)7534_storage"
      },
      "t_mapping(t_address,t_uint256)": {
        "encoding": "mapping",
        "key": "t_address",
        "label": "mapping(address => uint256)",
        "numberOfBytes": "32",
        "value": "t_uint256"
      },
      "t_mapping(t_uint256,t_array(t_address)dyn_storage)": {
        "encoding": "mapping",
        "key": "t_uint256",
        "label": "mapping(uint256 => address[])",
        "numberOfBytes": "32",
        "value": "t_array(t_address)dyn_storage"
      },
      "t_mapping(t_uint256,t_array(t_bytes_storage)dyn_storage)": {
        "encoding": "mapping",
        "key": "t_uint256",
        "label": "mapping(uint256 => bytes[])",
        "numberOfBytes": "32",
        "value": "t_array(t_bytes_storage)dyn_storage"
      },
      "t_mapping(t_uint256,t_array(t_string_storage)dyn_storage)": {
        "encoding": "mapping",
        "key": "t_uint256",
        "label": "mapping(uint256 => string[])",
        "numberOfBytes": "32",
        "value": "t_array(t_string_storage)dyn_storage"
      },
      "t_mapping(t_uint256,t_array(t_uint256)dyn_storage)": {
        "encoding": "mapping",
        "key": "t_uint256",
        "label": "mapping(uint256 => uint256[])",
        "numberOfBytes": "32",
        "value": "t_array(t_uint256)dyn_storage"
      },
      "t_mapping(t_uint256,t_mapping(t_address,t_struct(Receipt)7534_storage))": {
        "encoding": "mapping",
        "key": "t_uint256",
        "label": "mapping(uint256 => mapping(address => struct IPCTDelegateStorageV1.Receipt))",
        "numberOfBytes": "32",
        "value": "t_mapping(t_address,t_struct(Receipt)7534_storage)"
      },
      "t_mapping(t_uint256,t_struct(Proposal)7527_storage)": {
        "encoding": "mapping",
        "key": "t_uint256",
        "label": "mapping(uint256 => struct IPCTDelegateStorageV1.Proposal)",
        "numberOfBytes": "32",
        "value": "t_struct(Proposal)7527_storage"
      },
      "t_string_storage": {
        "encoding": "bytes",
        "label": "string",
        "numberOfBytes": "32"
      },
      "t_struct(Proposal)7527_storage": {
        "encoding": "inplace",
        "label": "struct IPCTDelegateStorageV1.Proposal",
        "members": [
          {
            "astId": 7508,
            "contract": "contracts/governor/IPCTDelegate.sol:IPCTDelegate",
            "label": "id",
            "offset": 0,
            "slot": "0",
            "type": "t_uint256"
          },
          {
            "astId": 7510,
            "contract": "contracts/governor/IPCTDelegate.sol:IPCTDelegate",
            "label": "proposer",
            "offset": 0,
            "slot": "1",
            "type": "t_address"
          },
          {
            "astId": 7512,
            "contract": "contracts/governor/IPCTDelegate.sol:IPCTDelegate",
            "label": "eta",
            "offset": 0,
            "slot": "2",
            "type": "t_uint256"
          },
          {
            "astId": 7514,
            "contract": "contracts/governor/IPCTDelegate.sol:IPCTDelegate",
            "label": "startBlock",
            "offset": 0,
            "slot": "3",
            "type": "t_uint256"
          },
          {
            "astId": 7516,
            "contract": "contracts/governor/IPCTDelegate.sol:IPCTDelegate",
            "label": "endBlock",
            "offset": 0,
            "slot": "4",
            "type": "t_uint256"
          },
          {
            "astId": 7518,
            "contract": "contracts/governor/IPCTDelegate.sol:IPCTDelegate",
            "label": "forVotes",
            "offset": 0,
            "slot": "5",
            "type": "t_uint256"
          },
          {
            "astId": 7520,
            "contract": "contracts/governor/IPCTDelegate.sol:IPCTDelegate",
            "label": "againstVotes",
            "offset": 0,
            "slot": "6",
            "type": "t_uint256"
          },
          {
            "astId": 7522,
            "contract": "contracts/governor/IPCTDelegate.sol:IPCTDelegate",
            "label": "abstainVotes",
            "offset": 0,
            "slot": "7",
            "type": "t_uint256"
          },
          {
            "astId": 7524,
            "contract": "contracts/governor/IPCTDelegate.sol:IPCTDelegate",
            "label": "canceled",
            "offset": 0,
            "slot": "8",
            "type": "t_bool"
          },
          {
            "astId": 7526,
            "contract": "contracts/governor/IPCTDelegate.sol:IPCTDelegate",
            "label": "executed",
            "offset": 1,
            "slot": "8",
            "type": "t_bool"
          }
        ],
        "numberOfBytes": "288"
      },
      "t_struct(Receipt)7534_storage": {
        "encoding": "inplace",
        "label": "struct IPCTDelegateStorageV1.Receipt",
        "members": [
          {
            "astId": 7529,
            "contract": "contracts/governor/IPCTDelegate.sol:IPCTDelegate",
            "label": "hasVoted",
            "offset": 0,
            "slot": "0",
            "type": "t_bool"
          },
          {
            "astId": 7531,
            "contract": "contracts/governor/IPCTDelegate.sol:IPCTDelegate",
            "label": "support",
            "offset": 1,
            "slot": "0",
            "type": "t_uint8"
          },
          {
            "astId": 7533,
            "contract": "contracts/governor/IPCTDelegate.sol:IPCTDelegate",
            "label": "votes",
            "offset": 2,
            "slot": "0",
            "type": "t_uint96"
          }
        ],
        "numberOfBytes": "32"
      },
      "t_uint256": {
        "encoding": "inplace",
        "label": "uint256",
        "numberOfBytes": "32"
      },
      "t_uint8": {
        "encoding": "inplace",
        "label": "uint8",
        "numberOfBytes": "1"
      },
      "t_uint96": {
        "encoding": "inplace",
        "label": "uint96",
        "numberOfBytes": "12"
      }
    }
  }
}