{
  "address": "0xE63cB6B71E55Bec3602E088792a59480571E508A",
  "abi": [
    {
      "anonymous": false,
      "inputs": [
        {
          "indexed": false,
          "internalType": "address",
          "name": "oldAdmin",
          "type": "address"
        },
        {
          "indexed": false,
          "internalType": "address",
          "name": "newAdmin",
          "type": "address"
        }
      ],
      "name": "NewAdmin",
      "type": "event"
    },
    {
      "anonymous": false,
      "inputs": [
        {
          "indexed": false,
          "internalType": "address",
          "name": "oldImplementation",
          "type": "address"
        },
        {
          "indexed": false,
          "internalType": "address",
          "name": "newImplementation",
          "type": "address"
        }
      ],
      "name": "NewImplementation",
      "type": "event"
    },
    {
      "anonymous": false,
      "inputs": [
        {
          "indexed": false,
          "internalType": "address",
          "name": "oldPendingAdmin",
          "type": "address"
        },
        {
          "indexed": false,
          "internalType": "address",
          "name": "newPendingAdmin",
          "type": "address"
        }
      ],
      "name": "NewPendingAdmin",
      "type": "event"
    },
    {
      "anonymous": false,
      "inputs": [
        {
          "indexed": false,
          "internalType": "uint256",
          "name": "id",
          "type": "uint256"
        }
      ],
      "name": "ProposalCanceled",
      "type": "event"
    },
    {
      "anonymous": false,
      "inputs": [
        {
          "indexed": false,
          "internalType": "uint256",
          "name": "id",
          "type": "uint256"
        },
        {
          "indexed": false,
          "internalType": "address",
          "name": "proposer",
          "type": "address"
        },
        {
          "indexed": false,
          "internalType": "address[]",
          "name": "targets",
          "type": "address[]"
        },
        {
          "indexed": false,
          "internalType": "uint256[]",
          "name": "values",
          "type": "uint256[]"
        },
        {
          "indexed": false,
          "internalType": "string[]",
          "name": "signatures",
          "type": "string[]"
        },
        {
          "indexed": false,
          "internalType": "bytes[]",
          "name": "calldatas",
          "type": "bytes[]"
        },
        {
          "indexed": false,
          "internalType": "uint256",
          "name": "startBlock",
          "type": "uint256"
        },
        {
          "indexed": false,
          "internalType": "uint256",
          "name": "endBlock",
          "type": "uint256"
        },
        {
          "indexed": false,
          "internalType": "string",
          "name": "description",
          "type": "string"
        }
      ],
      "name": "ProposalCreated",
      "type": "event"
    },
    {
      "anonymous": false,
      "inputs": [
        {
          "indexed": false,
          "internalType": "uint256",
          "name": "id",
          "type": "uint256"
        }
      ],
      "name": "ProposalExecuted",
      "type": "event"
    },
    {
      "anonymous": false,
      "inputs": [
        {
          "indexed": false,
          "internalType": "uint256",
          "name": "id",
          "type": "uint256"
        },
        {
          "indexed": false,
          "internalType": "uint256",
          "name": "eta",
          "type": "uint256"
        }
      ],
      "name": "ProposalQueued",
      "type": "event"
    },
    {
      "anonymous": false,
      "inputs": [
        {
          "indexed": false,
          "internalType": "uint256",
          "name": "oldProposalThreshold",
          "type": "uint256"
        },
        {
          "indexed": false,
          "internalType": "uint256",
          "name": "newProposalThreshold",
          "type": "uint256"
        }
      ],
      "name": "ProposalThresholdSet",
      "type": "event"
    },
    {
      "anonymous": false,
      "inputs": [
        {
          "indexed": true,
          "internalType": "address",
          "name": "voter",
          "type": "address"
        },
        {
          "indexed": false,
          "internalType": "uint256",
          "name": "proposalId",
          "type": "uint256"
        },
        {
          "indexed": false,
          "internalType": "uint8",
          "name": "support",
          "type": "uint8"
        },
        {
          "indexed": false,
          "internalType": "uint256",
          "name": "votes",
          "type": "uint256"
        },
        {
          "indexed": false,
          "internalType": "string",
          "name": "reason",
          "type": "string"
        }
      ],
      "name": "VoteCast",
      "type": "event"
    },
    {
      "anonymous": false,
      "inputs": [
        {
          "indexed": false,
          "internalType": "uint256",
          "name": "oldVotingDelay",
          "type": "uint256"
        },
        {
          "indexed": false,
          "internalType": "uint256",
          "name": "newVotingDelay",
          "type": "uint256"
        }
      ],
      "name": "VotingDelaySet",
      "type": "event"
    },
    {
      "anonymous": false,
      "inputs": [
        {
          "indexed": false,
          "internalType": "uint256",
          "name": "oldVotingPeriod",
          "type": "uint256"
        },
        {
          "indexed": false,
          "internalType": "uint256",
          "name": "newVotingPeriod",
          "type": "uint256"
        }
      ],
      "name": "VotingPeriodSet",
      "type": "event"
    },
    {
      "inputs": [],
      "name": "BALLOT_TYPEHASH",
      "outputs": [
        {
          "internalType": "bytes32",
          "name": "",
          "type": "bytes32"
        }
      ],
      "stateMutability": "view",
      "type": "function"
    },
    {
      "inputs": [],
      "name": "DOMAIN_TYPEHASH",
      "outputs": [
        {
          "internalType": "bytes32",
          "name": "",
          "type": "bytes32"
        }
      ],
      "stateMutability": "view",
      "type": "function"
    },
    {
      "inputs": [],
      "name": "MAX_PROPOSAL_THRESHOLD",
      "outputs": [
        {
          "internalType": "uint256",
          "name": "",
          "type": "uint256"
        }
      ],
      "stateMutability": "view",
      "type": "function"
    },
    {
      "inputs": [],
      "name": "MAX_VOTING_DELAY",
      "outputs": [
        {
          "internalType": "uint256",
          "name": "",
          "type": "uint256"
        }
      ],
      "stateMutability": "view",
      "type": "function"
    },
    {
      "inputs": [],
      "name": "MAX_VOTING_PERIOD",
      "outputs": [
        {
          "internalType": "uint256",
          "name": "",
          "type": "uint256"
        }
      ],
      "stateMutability": "view",
      "type": "function"
    },
    {
      "inputs": [],
      "name": "MIN_PROPOSAL_THRESHOLD",
      "outputs": [
        {
          "internalType": "uint256",
          "name": "",
          "type": "uint256"
        }
      ],
      "stateMutability": "view",
      "type": "function"
    },
    {
      "inputs": [],
      "name": "MIN_VOTING_DELAY",
      "outputs": [
        {
          "internalType": "uint256",
          "name": "",
          "type": "uint256"
        }
      ],
      "stateMutability": "view",
      "type": "function"
    },
    {
      "inputs": [],
      "name": "MIN_VOTING_PERIOD",
      "outputs": [
        {
          "internalType": "uint256",
          "name": "",
          "type": "uint256"
        }
      ],
      "stateMutability": "view",
      "type": "function"
    },
    {
      "inputs": [],
      "name": "_acceptAdmin",
      "outputs": [],
      "stateMutability": "nonpayable",
      "type": "function"
    },
    {
      "inputs": [
        {
          "internalType": "address",
          "name": "newPendingAdmin",
          "type": "address"
        }
      ],
      "name": "_setPendingAdmin",
      "outputs": [],
      "stateMutability": "nonpayable",
      "type": "function"
    },
    {
      "inputs": [
        {
          "internalType": "uint256",
          "name": "newProposalThreshold",
          "type": "uint256"
        }
      ],
      "name": "_setProposalThreshold",
      "outputs": [],
      "stateMutability": "nonpayable",
      "type": "function"
    },
    {
      "inputs": [
        {
          "internalType": "uint256",
          "name": "newVotingDelay",
          "type": "uint256"
        }
      ],
      "name": "_setVotingDelay",
      "outputs": [],
      "stateMutability": "nonpayable",
      "type": "function"
    },
    {
      "inputs": [
        {
          "internalType": "uint256",
          "name": "newVotingPeriod",
          "type": "uint256"
        }
      ],
      "name": "_setVotingPeriod",
      "outputs": [],
      "stateMutability": "nonpayable",
      "type": "function"
    },
    {
      "inputs": [],
      "name": "admin",
      "outputs": [
        {
          "internalType": "address",
          "name": "",
          "type": "address"
        }
      ],
      "stateMutability": "view",
      "type": "function"
    },
    {
      "inputs": [
        {
          "internalType": "uint256",
          "name": "proposalId",
          "type": "uint256"
        }
      ],
      "name": "cancel",
      "outputs": [],
      "stateMutability": "nonpayable",
      "type": "function"
    },
    {
      "inputs": [
        {
          "internalType": "uint256",
          "name": "proposalId",
          "type": "uint256"
        },
        {
          "internalType": "uint8",
          "name": "support",
          "type": "uint8"
        }
      ],
      "name": "castVote",
      "outputs": [],
      "stateMutability": "nonpayable",
      "type": "function"
    },
    {
      "inputs": [
        {
          "internalType": "uint256",
          "name": "proposalId",
          "type": "uint256"
        },
        {
          "internalType": "uint8",
          "name": "support",
          "type": "uint8"
        },
        {
          "internalType": "uint8",
          "name": "v",
          "type": "uint8"
        },
        {
          "internalType": "bytes32",
          "name": "r",
          "type": "bytes32"
        },
        {
          "internalType": "bytes32",
          "name": "s",
          "type": "bytes32"
        }
      ],
      "name": "castVoteBySig",
      "outputs": [],
      "stateMutability": "nonpayable",
      "type": "function"
    },
    {
      "inputs": [
        {
          "internalType": "uint256",
          "name": "proposalId",
          "type": "uint256"
        },
        {
          "internalType": "uint8",
          "name": "support",
          "type": "uint8"
        },
        {
          "internalType": "string",
          "name": "reason",
          "type": "string"
        }
      ],
      "name": "castVoteWithReason",
      "outputs": [],
      "stateMutability": "nonpayable",
      "type": "function"
    },
    {
      "inputs": [
        {
          "internalType": "uint256",
          "name": "proposalId",
          "type": "uint256"
        }
      ],
      "name": "execute",
      "outputs": [],
      "stateMutability": "payable",
      "type": "function"
    },
    {
      "inputs": [
        {
          "internalType": "uint256",
          "name": "proposalId",
          "type": "uint256"
        }
      ],
      "name": "getActions",
      "outputs": [
        {
          "internalType": "address[]",
          "name": "targets",
          "type": "address[]"
        },
        {
          "internalType": "uint256[]",
          "name": "values",
          "type": "uint256[]"
        },
        {
          "internalType": "string[]",
          "name": "signatures",
          "type": "string[]"
        },
        {
          "internalType": "bytes[]",
          "name": "calldatas",
          "type": "bytes[]"
        }
      ],
      "stateMutability": "view",
      "type": "function"
    },
    {
      "inputs": [
        {
          "internalType": "uint256",
          "name": "proposalId",
          "type": "uint256"
        },
        {
          "internalType": "address",
          "name": "voter",
          "type": "address"
        }
      ],
      "name": "getReceipt",
      "outputs": [
        {
          "components": [
            {
              "internalType": "bool",
              "name": "hasVoted",
              "type": "bool"
            },
            {
              "internalType": "uint8",
              "name": "support",
              "type": "uint8"
            },
            {
              "internalType": "uint96",
              "name": "votes",
              "type": "uint96"
            }
          ],
          "internalType": "struct IPCTDelegateStorageV1.Receipt",
          "name": "",
          "type": "tuple"
        }
      ],
      "stateMutability": "view",
      "type": "function"
    },
    {
      "inputs": [],
      "name": "implementation",
      "outputs": [
        {
          "internalType": "address",
          "name": "",
          "type": "address"
        }
      ],
      "stateMutability": "view",
      "type": "function"
    },
    {
      "inputs": [
        {
          "internalType": "address",
          "name": "timelock_",
          "type": "address"
        },
        {
          "internalType": "address",
          "name": "token_",
          "type": "address"
        },
        {
          "internalType": "address",
          "name": "releaseToken_",
          "type": "address"
        },
        {
          "internalType": "uint256",
          "name": "votingPeriod_",
          "type": "uint256"
        },
        {
          "internalType": "uint256",
          "name": "votingDelay_",
          "type": "uint256"
        },
        {
          "internalType": "uint256",
          "name": "proposalThreshold_",
          "type": "uint256"
        }
      ],
      "name": "initialize",
      "outputs": [],
      "stateMutability": "nonpayable",
      "type": "function"
    },
    {
      "inputs": [
        {
          "internalType": "address",
          "name": "",
          "type": "address"
        }
      ],
      "name": "latestProposalIds",
      "outputs": [
        {
          "internalType": "uint256",
          "name": "",
          "type": "uint256"
        }
      ],
      "stateMutability": "view",
      "type": "function"
    },
    {
      "inputs": [],
      "name": "name",
      "outputs": [
        {
          "internalType": "string",
          "name": "",
          "type": "string"
        }
      ],
      "stateMutability": "view",
      "type": "function"
    },
    {
      "inputs": [],
      "name": "pendingAdmin",
      "outputs": [
        {
          "internalType": "address",
          "name": "",
          "type": "address"
        }
      ],
      "stateMutability": "view",
      "type": "function"
    },
    {
      "inputs": [
        {
          "internalType": "uint256",
          "name": "",
          "type": "uint256"
        },
        {
          "internalType": "uint256",
          "name": "",
          "type": "uint256"
        }
      ],
      "name": "proposalCalldatas",
      "outputs": [
        {
          "internalType": "bytes",
          "name": "",
          "type": "bytes"
        }
      ],
      "stateMutability": "view",
      "type": "function"
    },
    {
      "inputs": [],
      "name": "proposalCount",
      "outputs": [
        {
          "internalType": "uint256",
          "name": "",
          "type": "uint256"
        }
      ],
      "stateMutability": "view",
      "type": "function"
    },
    {
      "inputs": [],
      "name": "proposalMaxOperations",
      "outputs": [
        {
          "internalType": "uint256",
          "name": "",
          "type": "uint256"
        }
      ],
      "stateMutability": "view",
      "type": "function"
    },
    {
      "inputs": [
        {
          "internalType": "uint256",
          "name": "",
          "type": "uint256"
        },
        {
          "internalType": "address",
          "name": "",
          "type": "address"
        }
      ],
      "name": "proposalReceipts",
      "outputs": [
        {
          "internalType": "bool",
          "name": "hasVoted",
          "type": "bool"
        },
        {
          "internalType": "uint8",
          "name": "support",
          "type": "uint8"
        },
        {
          "internalType": "uint96",
          "name": "votes",
          "type": "uint96"
        }
      ],
      "stateMutability": "view",
      "type": "function"
    },
    {
      "inputs": [
        {
          "internalType": "uint256",
          "name": "",
          "type": "uint256"
        },
        {
          "internalType": "uint256",
          "name": "",
          "type": "uint256"
        }
      ],
      "name": "proposalSignatures",
      "outputs": [
        {
          "internalType": "string",
          "name": "",
          "type": "string"
        }
      ],
      "stateMutability": "view",
      "type": "function"
    },
    {
      "inputs": [
        {
          "internalType": "uint256",
          "name": "",
          "type": "uint256"
        },
        {
          "internalType": "uint256",
          "name": "",
          "type": "uint256"
        }
      ],
      "name": "proposalTargets",
      "outputs": [
        {
          "internalType": "address",
          "name": "",
          "type": "address"
        }
      ],
      "stateMutability": "view",
      "type": "function"
    },
    {
      "inputs": [],
      "name": "proposalThreshold",
      "outputs": [
        {
          "internalType": "uint256",
          "name": "",
          "type": "uint256"
        }
      ],
      "stateMutability": "view",
      "type": "function"
    },
    {
      "inputs": [
        {
          "internalType": "uint256",
          "name": "",
          "type": "uint256"
        },
        {
          "internalType": "uint256",
          "name": "",
          "type": "uint256"
        }
      ],
      "name": "proposalValues",
      "outputs": [
        {
          "internalType": "uint256",
          "name": "",
          "type": "uint256"
        }
      ],
      "stateMutability": "view",
      "type": "function"
    },
    {
      "inputs": [
        {
          "internalType": "uint256",
          "name": "",
          "type": "uint256"
        }
      ],
      "name": "proposals",
      "outputs": [
        {
          "internalType": "uint256",
          "name": "id",
          "type": "uint256"
        },
        {
          "internalType": "address",
          "name": "proposer",
          "type": "address"
        },
        {
          "internalType": "uint256",
          "name": "eta",
          "type": "uint256"
        },
        {
          "internalType": "uint256",
          "name": "startBlock",
          "type": "uint256"
        },
        {
          "internalType": "uint256",
          "name": "endBlock",
          "type": "uint256"
        },
        {
          "internalType": "uint256",
          "name": "forVotes",
          "type": "uint256"
        },
        {
          "internalType": "uint256",
          "name": "againstVotes",
          "type": "uint256"
        },
        {
          "internalType": "uint256",
          "name": "abstainVotes",
          "type": "uint256"
        },
        {
          "internalType": "bool",
          "name": "canceled",
          "type": "bool"
        },
        {
          "internalType": "bool",
          "name": "executed",
          "type": "bool"
        }
      ],
      "stateMutability": "view",
      "type": "function"
    },
    {
      "inputs": [
        {
          "internalType": "address[]",
          "name": "targets",
          "type": "address[]"
        },
        {
          "internalType": "uint256[]",
          "name": "values",
          "type": "uint256[]"
        },
        {
          "internalType": "string[]",
          "name": "signatures",
          "type": "string[]"
        },
        {
          "internalType": "bytes[]",
          "name": "calldatas",
          "type": "bytes[]"
        },
        {
          "internalType": "string",
          "name": "description",
          "type": "string"
        }
      ],
      "name": "propose",
      "outputs": [
        {
          "internalType": "uint256",
          "name": "",
          "type": "uint256"
        }
      ],
      "stateMutability": "nonpayable",
      "type": "function"
    },
    {
      "inputs": [
        {
          "internalType": "uint256",
          "name": "proposalId",
          "type": "uint256"
        }
      ],
      "name": "queue",
      "outputs": [],
      "stateMutability": "nonpayable",
      "type": "function"
    },
    {
      "inputs": [],
      "name": "quorumVotes",
      "outputs": [
        {
          "internalType": "uint256",
          "name": "",
          "type": "uint256"
        }
      ],
      "stateMutability": "view",
      "type": "function"
    },
    {
      "inputs": [],
      "name": "releaseToken",
      "outputs": [
        {
          "internalType": "contract IHasVotes",
          "name": "",
          "type": "address"
        }
      ],
      "stateMutability": "view",
      "type": "function"
    },
    {
      "inputs": [
        {
          "internalType": "uint256",
          "name": "proposalId",
          "type": "uint256"
        }
      ],
      "name": "state",
      "outputs": [
        {
          "internalType": "enum IPCTDelegateStorageV1.ProposalState",
          "name": "",
          "type": "uint8"
        }
      ],
      "stateMutability": "view",
      "type": "function"
    },
    {
      "inputs": [],
      "name": "timelock",
      "outputs": [
        {
          "internalType": "contract TimelockInterface",
          "name": "",
          "type": "address"
        }
      ],
      "stateMutability": "view",
      "type": "function"
    },
    {
      "inputs": [],
      "name": "token",
      "outputs": [
        {
          "internalType": "contract IHasVotes",
          "name": "",
          "type": "address"
        }
      ],
      "stateMutability": "view",
      "type": "function"
    },
    {
      "inputs": [],
      "name": "votingDelay",
      "outputs": [
        {
          "internalType": "uint256",
          "name": "",
          "type": "uint256"
        }
      ],
      "stateMutability": "view",
      "type": "function"
    },
    {
      "inputs": [],
      "name": "votingPeriod",
      "outputs": [
        {
          "internalType": "uint256",
          "name": "",
          "type": "uint256"
        }
      ],
      "stateMutability": "view",
      "type": "function"
    }
  ],
  "transactionHash": "0x18de66d00bc720f63554ef3df86cf5ef350de9573d2d5f8fb5cfd6195508f7c6",
  "args": [],
  "solcInputHash": "3a00c5687657109722398afe4b4674da",
  "bytecode": "0x608060405234801561001057600080fd5b5061725380620000216000396000f3fe6080604052600436106102675760003560e01c8063791f5d2311610144578063da35c664116100b6578063e48083fe1161007a578063e48083fe1461098e578063e9c714f2146109b9578063ec715a31146109d0578063f851a440146109fb578063fc0c546a14610a26578063fe0d94c114610a5157610267565b8063da35c66414610895578063da95691a146108c0578063ddf0b009146108fd578063deaaa7cc14610926578063e23a9a521461095157610267565b8063a64e024a11610108578063a64e024a14610783578063ac674664146107ae578063b1126263146107eb578063b58131b014610816578063b71d1a0c14610841578063d33219b41461086a57610267565b8063791f5d231461068a5780637b3c71d3146106b55780637bdbe4d0146106de578063878b608d14610709578063a4a53a131461074657610267565b806326782247116101dd57806340e58ee5116101a157806340e58ee5146105685780634e42b06d1461059157806356781388146105ce5780635c60da1b146105f75780636617674314610622578063728cdbca1461066157610267565b8063267822471461046c578063328dd982146104975780633932abb1146104d75780633bccf4fd146105025780633e4f49e61461052b57610267565b806317ba1b8b1161022f57806317ba1b8b1461036e5780631dfb1b5a1461039757806320606b70146103c0578063215809ca146103eb57806324bc1a641461041657806325fd935a1461044157610267565b8063013cf08b1461026c57806302a251a3146102b257806306fdde03146102dd5780630ea2d98c1461030857806317977c6114610331575b600080fd5b34801561027857600080fd5b50610293600480360381019061028e9190614956565b610a6d565b6040516102a99a99989796959493929190616018565b60405180910390f35b3480156102be57600080fd5b506102c7610afb565b6040516102d49190615e9f565b60405180910390f35b3480156102e957600080fd5b506102f2610b01565b6040516102ff9190615b02565b60405180910390f35b34801561031457600080fd5b5061032f600480360381019061032a9190614956565b610b3a565b005b34801561033d57600080fd5b50610358600480360381019061035391906146f2565b610c69565b6040516103659190615e9f565b60405180910390f35b34801561037a57600080fd5b5061039560048036038101906103909190614956565b610c81565b005b3480156103a357600080fd5b506103be60048036038101906103b99190614956565b610dc0565b005b3480156103cc57600080fd5b506103d5610eee565b6040516103e291906159b3565b60405180910390f35b3480156103f757600080fd5b50610400610f12565b60405161040d9190615e9f565b60405180910390f35b34801561042257600080fd5b5061042b610f18565b6040516104389190615e9f565b60405180910390f35b34801561044d57600080fd5b50610456610f27565b6040516104639190615e9f565b60405180910390f35b34801561047857600080fd5b50610481610f36565b60405161048e91906157ec565b60405180910390f35b3480156104a357600080fd5b506104be60048036038101906104b99190614956565b610f5c565b6040516104ce949392919061591b565b60405180910390f35b3480156104e357600080fd5b506104ec61123d565b6040516104f99190615e9f565b60405180910390f35b34801561050e57600080fd5b5061052960048036038101906105249190614ae4565b611243565b005b34801561053757600080fd5b50610552600480360381019061054d9190614956565b61147d565b60405161055f9190615ae7565b60405180910390f35b34801561057457600080fd5b5061058f600480360381019061058a9190614956565b611701565b005b34801561059d57600080fd5b506105b860048036038101906105b391906149f0565b611a6a565b6040516105c59190615a8f565b60405180910390f35b3480156105da57600080fd5b506105f560048036038101906105f09190614a30565b611b23565b005b34801561060357600080fd5b5061060c611b83565b60405161061991906157ec565b60405180910390f35b34801561062e57600080fd5b50610649600480360381019061064491906149b0565b611ba9565b6040516106589392919061597c565b60405180910390f35b34801561066d57600080fd5b506106886004803603810190610683919061471f565b611c12565b005b34801561069657600080fd5b5061069f612178565b6040516106ac9190615e9f565b60405180910390f35b3480156106c157600080fd5b506106dc60048036038101906106d79190614a70565b612186565b005b3480156106ea57600080fd5b506106f36121ec565b6040516107009190615e9f565b60405180910390f35b34801561071557600080fd5b50610730600480360381019061072b91906149f0565b6121f1565b60405161073d9190615e9f565b60405180910390f35b34801561075257600080fd5b5061076d600480360381019061076891906149f0565b612222565b60405161077a9190615b02565b60405180910390f35b34801561078f57600080fd5b506107986122db565b6040516107a59190615e9f565b60405180910390f35b3480156107ba57600080fd5b506107d560048036038101906107d091906149f0565b6122e2565b6040516107e291906157ec565b60405180910390f35b3480156107f757600080fd5b50610800612330565b60405161080d9190615e9f565b60405180910390f35b34801561082257600080fd5b5061082b612337565b6040516108389190615e9f565b60405180910390f35b34801561084d57600080fd5b50610868600480360381019061086391906146f2565b61233d565b005b34801561087657600080fd5b5061087f612470565b60405161088c9190615acc565b60405180910390f35b3480156108a157600080fd5b506108aa612496565b6040516108b79190615e9f565b60405180910390f35b3480156108cc57600080fd5b506108e760048036038101906108e291906147ac565b61249c565b6040516108f49190615e9f565b60405180910390f35b34801561090957600080fd5b50610924600480360381019061091f9190614956565b6129ff565b005b34801561093257600080fd5b5061093b612da7565b60405161094891906159b3565b60405180910390f35b34801561095d57600080fd5b50610978600480360381019061097391906149b0565b612dcb565b6040516109859190615e84565b60405180910390f35b34801561099a57600080fd5b506109a3612eac565b6040516109b09190615e9f565b60405180910390f35b3480156109c557600080fd5b506109ce612eb1565b005b3480156109dc57600080fd5b506109e5613123565b6040516109f29190615ab1565b60405180910390f35b348015610a0757600080fd5b50610a10613149565b604051610a1d91906157ec565b60405180910390f35b348015610a3257600080fd5b50610a3b61316d565b604051610a489190615ab1565b60405180910390f35b610a6b6004803603810190610a669190614956565b613193565b005b600a6020528060005260406000206000915090508060000154908060010160009054906101000a900473ffffffffffffffffffffffffffffffffffffffff16908060020154908060030154908060040154908060050154908060060154908060070154908060080160009054906101000a900460ff16908060080160019054906101000a900460ff1690508a565b60045481565b6040518060400160405280600481526020017f495043540000000000000000000000000000000000000000000000000000000081525081565b60008054906101000a900473ffffffffffffffffffffffffffffffffffffffff1673ffffffffffffffffffffffffffffffffffffffff163373ffffffffffffffffffffffffffffffffffffffff1614610bc8576040517f08c379a0000000000000000000000000000000000000000000000000000000008152600401610bbf90615bc4565b60405180910390fd5b6143808110158015610bdd57506203b1008111155b610c1c576040517f08c379a0000000000000000000000000000000000000000000000000000000008152600401610c1390615ca4565b60405180910390fd5b60006004549050816004819055507f7e3f7f0708a84de9203036abaa450dccc85ad5ff52f78c170f3edb55cf5e882881600454604051610c5d9291906160b4565b60405180910390a15050565b60106020528060005260406000206000915090505481565b60008054906101000a900473ffffffffffffffffffffffffffffffffffffffff1673ffffffffffffffffffffffffffffffffffffffff163373ffffffffffffffffffffffffffffffffffffffff1614610d0f576040517f08c379a0000000000000000000000000000000000000000000000000000000008152600401610d0690615bc4565b60405180910390fd5b69d3c21bcecceda10000008110158015610d3457506a0422ca8b0a00a4250000008111155b610d73576040517f08c379a0000000000000000000000000000000000000000000000000000000008152600401610d6a90615c64565b60405180910390fd5b60006005549050816005819055507fccb45da8d5717e6c4544694297c4ba5cf151d455c9bb0ed4fc7a38411bc0546181600554604051610db49291906160b4565b60405180910390a15050565b60008054906101000a900473ffffffffffffffffffffffffffffffffffffffff1673ffffffffffffffffffffffffffffffffffffffff163373ffffffffffffffffffffffffffffffffffffffff1614610e4e576040517f08c379a0000000000000000000000000000000000000000000000000000000008152600401610e4590615bc4565b60405180910390fd5b60018110158015610e6257506201d8808111155b610ea1576040517f08c379a0000000000000000000000000000000000000000000000000000000008152600401610e9890615e64565b60405180910390fd5b60006003549050816003819055507fc565b045403dc03c2eea82b81a0465edad9e2e7fc4d97e11421c209da93d7a9381600354604051610ee29291906160b4565b60405180910390a15050565b7f8cad95687ba82c2ce50e74f7b754645e5117c3a5bec8151c0726d5857980a86681565b61438081565b6a034f086f3b33b68400000081565b6a0422ca8b0a00a42500000081565b600160009054906101000a900473ffffffffffffffffffffffffffffffffffffffff1681565b606080606080600b6000868152602001908152602001600020600c6000878152602001908152602001600020600d6000888152602001908152602001600020600e60008981526020019081526020016000208380548060200260200160405190810160405280929190818152602001828054801561102f57602002820191906000526020600020905b8160009054906101000a900473ffffffffffffffffffffffffffffffffffffffff1673ffffffffffffffffffffffffffffffffffffffff1681526020019060010190808311610fe5575b505050505093508280548060200260200160405190810160405280929190818152602001828054801561108157602002820191906000526020600020905b81548152602001906001019080831161106d575b5050505050925081805480602002602001604051908101604052809291908181526020016000905b828210156111555783829060005260206000200180546110c890616713565b80601f01602080910402602001604051908101604052809291908181526020018280546110f490616713565b80156111415780601f1061111657610100808354040283529160200191611141565b820191906000526020600020905b81548152906001019060200180831161112457829003601f168201915b5050505050815260200190600101906110a9565b50505050915080805480602002602001604051908101604052809291908181526020016000905b8282101561122857838290600052602060002001805461119b90616713565b80601f01602080910402602001604051908101604052809291908181526020018280546111c790616713565b80156112145780601f106111e957610100808354040283529160200191611214565b820191906000526020600020905b8154815290600101906020018083116111f757829003601f168201915b50505050508152602001906001019061117c565b50505050905093509350935093509193509193565b60035481565b60007f8cad95687ba82c2ce50e74f7b754645e5117c3a5bec8151c0726d5857980a8666040518060400160405280600481526020017f4950435400000000000000000000000000000000000000000000000000000000815250805190602001206112ab61346f565b306040516020016112bf94939291906159ce565b60405160208183030381529060405280519060200120905060007f150214d74d59b7d1e90c73fc22ef3d991dd0a76b046543d4d80ab92d2a50328f878760405160200161130e93929190615a13565b6040516020818303038152906040528051906020012090506000828260405160200161133b9291906157b5565b6040516020818303038152906040528051906020012090506000600182888888604051600081526020016040526040516113789493929190615a4a565b6020604051602081039080840390855afa15801561139a573d6000803e3d6000fd5b505050602060405103519050600073ffffffffffffffffffffffffffffffffffffffff168173ffffffffffffffffffffffffffffffffffffffff161415611416576040517f08c379a000000000000000000000000000000000000000000000000000000000815260040161140d90615d64565b60405180910390fd5b8073ffffffffffffffffffffffffffffffffffffffff167fb8e138887d0aa13bab447e82de9d5c1777041ecd21ca36ba824ff1e6c07ddda48a8a61145b858e8e61347c565b60405161146a9392919061612b565b60405180910390a2505050505050505050565b600081600654116114c3576040517f08c379a00000000000000000000000000000000000000000000000000000000081526004016114ba90615d24565b60405180910390fd5b6000600a600084815260200190815260200160002090508060080160009054906101000a900460ff16156114fb5760029150506116fc565b80600301544311611564576115446040518060400160405280600781526020017f70656e64696e6700000000000000000000000000000000000000000000000000815250613720565b61154d436137b9565b61155a81600301546137b9565b60009150506116fc565b806004015443116115cd576115ad6040518060400160405280600681526020017f6163746976650000000000000000000000000000000000000000000000000000815250613720565b6115b6436137b9565b6115c381600401546137b9565b60019150506116fc565b806006015481600501541115806115f257506a034f086f3b33b6840000008160050154105b156116015760039150506116fc565b6000816002015414156116185760049150506116fc565b8060080160019054906101000a900460ff16156116395760079150506116fc565b6116e68160020154600760009054906101000a900473ffffffffffffffffffffffffffffffffffffffff1673ffffffffffffffffffffffffffffffffffffffff1663c1a287e26040518163ffffffff1660e01b815260040160206040518083038186803b1580156116a957600080fd5b505afa1580156116bd573d6000803e3d6000fd5b505050506040513d601f19601f820116820180604052508101906116e19190614983565b613852565b42106116f65760069150506116fc565b60059150505b919050565b6007808111156117145761171361682c565b5b61171d8261147d565b600781111561172f5761172e61682c565b5b1415611770576040517f08c379a000000000000000000000000000000000000000000000000000000000815260040161176790615b24565b60405180910390fd5b6000600a600083815260200190815260200160002090508060010160009054906101000a900473ffffffffffffffffffffffffffffffffffffffff1673ffffffffffffffffffffffffffffffffffffffff163373ffffffffffffffffffffffffffffffffffffffff16148061182b575060055461181b8260010160009054906101000a900473ffffffffffffffffffffffffffffffffffffffff166118164360016138b0565b613909565b6bffffffffffffffffffffffff16105b61186a576040517f08c379a000000000000000000000000000000000000000000000000000000000815260040161186190615d04565b60405180910390fd5b60018160080160006101000a81548160ff02191690831515021790555060005b600b600084815260200190815260200160002080549050811015611a2e57600760009054906101000a900473ffffffffffffffffffffffffffffffffffffffff1673ffffffffffffffffffffffffffffffffffffffff1663591fcdfe600b6000868152602001908152602001600020838154811061190b5761190a61688a565b5b9060005260206000200160009054906101000a900473ffffffffffffffffffffffffffffffffffffffff16600c6000878152602001908152602001600020848154811061195b5761195a61688a565b5b9060005260206000200154600d6000888152602001908152602001600020858154811061198b5761198a61688a565b5b90600052602060002001600e600089815260200190815260200160002086815481106119ba576119b961688a565b5b9060005260206000200187600201546040518663ffffffff1660e01b81526004016119e99594939291906158ba565b600060405180830381600087803b158015611a0357600080fd5b505af1158015611a17573d6000803e3d6000fd5b505050508080611a26906167aa565b91505061188a565b507f789cf55be980739dad1d0699b93b58e806b51c9d96619bfa8fe0a28abaa7b30c82604051611a5e9190615e9f565b60405180910390a15050565b600e6020528160005260406000208181548110611a8657600080fd5b90600052602060002001600091509150508054611aa290616713565b80601f0160208091040260200160405190810160405280929190818152602001828054611ace90616713565b8015611b1b5780601f10611af057610100808354040283529160200191611b1b565b820191906000526020600020905b815481529060010190602001808311611afe57829003601f168201915b505050505081565b3373ffffffffffffffffffffffffffffffffffffffff167fb8e138887d0aa13bab447e82de9d5c1777041ecd21ca36ba824ff1e6c07ddda48383611b6833878761347c565b604051611b779392919061612b565b60405180910390a25050565b600260009054906101000a900473ffffffffffffffffffffffffffffffffffffffff1681565b600f602052816000526040600020602052806000526040600020600091509150508060000160009054906101000a900460ff16908060000160019054906101000a900460ff16908060000160029054906101000a90046bffffffffffffffffffffffff16905083565b601160019054906101000a900460ff1680611c3a5750601160009054906101000a900460ff16155b611c79576040517f08c379a0000000000000000000000000000000000000000000000000000000008152600401611c7090615ce4565b60405180910390fd5b6000601160019054906101000a900460ff161590508015611ccb576001601160016101000a81548160ff0219169083151502179055506001601160006101000a81548160ff0219169083151502179055505b6143808410158015611ce057506203b1008411155b611d1f576040517f08c379a0000000000000000000000000000000000000000000000000000000008152600401611d1690615d84565b60405180910390fd5b60018310158015611d3357506201d8808311155b611d72576040517f08c379a0000000000000000000000000000000000000000000000000000000008152600401611d6990615e04565b60405180910390fd5b69d3c21bcecceda10000008210158015611d9757506a0422ca8b0a00a4250000008211155b611dd6576040517f08c379a0000000000000000000000000000000000000000000000000000000008152600401611dcd90615ba4565b60405180910390fd5b86600760006101000a81548173ffffffffffffffffffffffffffffffffffffffff021916908373ffffffffffffffffffffffffffffffffffffffff160217905550336000806101000a81548173ffffffffffffffffffffffffffffffffffffffff021916908373ffffffffffffffffffffffffffffffffffffffff16021790555085600860006101000a81548173ffffffffffffffffffffffffffffffffffffffff021916908373ffffffffffffffffffffffffffffffffffffffff16021790555084600960006101000a81548173ffffffffffffffffffffffffffffffffffffffff021916908373ffffffffffffffffffffffffffffffffffffffff160217905550836004819055508260038190555081600581905550600060405180610140016040528060065481526020013073ffffffffffffffffffffffffffffffffffffffff16815260200160008152602001600081526020016000815260200160008152602001600081526020016000815260200160011515815260200160001515815250905060066000815480929190611f6f906167aa565b919050555080600a6000836000015181526020019081526020016000206000820151816000015560208201518160010160006101000a81548173ffffffffffffffffffffffffffffffffffffffff021916908373ffffffffffffffffffffffffffffffffffffffff16021790555060408201518160020155606082015181600301556080820151816004015560a0820151816005015560c0820151816006015560e082015181600701556101008201518160080160006101000a81548160ff0219169083151502179055506101208201518160080160016101000a81548160ff021916908315150217905550905050806000015160106000836020015173ffffffffffffffffffffffffffffffffffffffff1673ffffffffffffffffffffffffffffffffffffffff168152602001908152602001600020819055507f7d84a6263ae0d98d3329bd7b46bb4e8d6f98cd35a7adb45c274c8b7fd5ebd5e0816000015130600b600085600001518152602001908152602001600020600c600086600001518152602001908152602001600020600d600087600001518152602001908152602001600020600e600088600001518152602001908152602001600020600080604051612144989796959493929190615f6a565b60405180910390a150801561216f576000601160016101000a81548160ff0219169083151502179055505b50505050505050565b69d3c21bcecceda100000081565b3373ffffffffffffffffffffffffffffffffffffffff167fb8e138887d0aa13bab447e82de9d5c1777041ecd21ca36ba824ff1e6c07ddda485856121cb33898961347c565b86866040516121de9594939291906160dd565b60405180910390a250505050565b600a81565b600c602052816000526040600020818154811061220d57600080fd5b90600052602060002001600091509150505481565b600d602052816000526040600020818154811061223e57600080fd5b9060005260206000200160009150915050805461225a90616713565b80601f016020809104026020016040519081016040528092919081815260200182805461228690616713565b80156122d35780601f106122a8576101008083540402835291602001916122d3565b820191906000526020600020905b8154815290600101906020018083116122b657829003601f168201915b505050505081565b6203b10081565b600b60205281600052604060002081815481106122fe57600080fd5b906000526020600020016000915091509054906101000a900473ffffffffffffffffffffffffffffffffffffffff1681565b6201d88081565b60055481565b60008054906101000a900473ffffffffffffffffffffffffffffffffffffffff1673ffffffffffffffffffffffffffffffffffffffff163373ffffffffffffffffffffffffffffffffffffffff16146123cb576040517f08c379a00000000000000000000000000000000000000000000000000000000081526004016123c290615bc4565b60405180910390fd5b6000600160009054906101000a900473ffffffffffffffffffffffffffffffffffffffff16905081600160006101000a81548173ffffffffffffffffffffffffffffffffffffffff021916908373ffffffffffffffffffffffffffffffffffffffff1602179055507fca4f2f25d0898edd99413412fb94012f9e54ec8142f9b093e7720646a95b16a98183604051612464929190615807565b60405180910390a15050565b600760009054906101000a900473ffffffffffffffffffffffffffffffffffffffff1681565b60065481565b60006005546124b5336124b04360016138b0565b613909565b6bffffffffffffffffffffffff1611612503576040517f08c379a00000000000000000000000000000000000000000000000000000000081526004016124fa90615b64565b60405180910390fd5b84518651148015612515575083518651145b8015612522575082518651145b612561576040517f08c379a000000000000000000000000000000000000000000000000000000000815260040161255890615dc4565b60405180910390fd5b6000865114156125a6576040517f08c379a000000000000000000000000000000000000000000000000000000000815260040161259d90615da4565b60405180910390fd5b600a865111156125eb576040517f08c379a00000000000000000000000000000000000000000000000000000000081526004016125e290615c24565b60405180910390fd5b6000601060003373ffffffffffffffffffffffffffffffffffffffff1673ffffffffffffffffffffffffffffffffffffffff168152602001908152602001600020549050600081146127165760006126428261147d565b9050600160078111156126585761265761682c565b5b81600781111561266b5761266a61682c565b5b14156126ac576040517f08c379a00000000000000000000000000000000000000000000000000000000081526004016126a390615de4565b60405180910390fd5b600060078111156126c0576126bf61682c565b5b8160078111156126d3576126d261682c565b5b1415612714576040517f08c379a000000000000000000000000000000000000000000000000000000000815260040161270b90615b84565b60405180910390fd5b505b600061272443600354613852565b9050600061273482600454613852565b9050600060405180610140016040528060065481526020013373ffffffffffffffffffffffffffffffffffffffff16815260200160008152602001848152602001838152602001600081526020016000815260200160008152602001600015158152602001600015158152509050600660008154809291906127b5906167aa565b919050555080600a6000836000015181526020019081526020016000206000820151816000015560208201518160010160006101000a81548173ffffffffffffffffffffffffffffffffffffffff021916908373ffffffffffffffffffffffffffffffffffffffff16021790555060408201518160020155606082015181600301556080820151816004015560a0820151816005015560c0820151816006015560e082015181600701556101008201518160080160006101000a81548160ff0219169083151502179055506101208201518160080160016101000a81548160ff02191690831515021790555090505089600b60008360000151815260200190815260200160002090805190602001906128cf929190613e34565b5088600c60008360000151815260200190815260200160002090805190602001906128fb929190613ebe565b5087600d6000836000015181526020019081526020016000209080519060200190612927929190613f0b565b5086600e6000836000015181526020019081526020016000209080519060200190612953929190613f6b565b50806000015160106000836020015173ffffffffffffffffffffffffffffffffffffffff1673ffffffffffffffffffffffffffffffffffffffff168152602001908152602001600020819055507f7d84a6263ae0d98d3329bd7b46bb4e8d6f98cd35a7adb45c274c8b7fd5ebd5e08160000151338c8c8c8c89898e6040516129e399989796959493929190615eba565b60405180910390a1806000015194505050505095945050505050565b60046007811115612a1357612a1261682c565b5b612a1c8261147d565b6007811115612a2e57612a2d61682c565b5b14612a6e576040517f08c379a0000000000000000000000000000000000000000000000000000000008152600401612a6590615c44565b60405180910390fd5b6000600a600083815260200190815260200160002090506000612b3042600760009054906101000a900473ffffffffffffffffffffffffffffffffffffffff1673ffffffffffffffffffffffffffffffffffffffff16636a42b8f86040518163ffffffff1660e01b815260040160206040518083038186803b158015612af357600080fd5b505afa158015612b07573d6000803e3d6000fd5b505050506040513d601f19601f82011682018060405250810190612b2b9190614983565b613852565b905060005b600b600085815260200190815260200160002080549050811015612d5f57612d4c600b60008681526020019081526020016000208281548110612b7b57612b7a61688a565b5b9060005260206000200160009054906101000a900473ffffffffffffffffffffffffffffffffffffffff16600c60008781526020019081526020016000208381548110612bcb57612bca61688a565b5b9060005260206000200154600d60008881526020019081526020016000208481548110612bfb57612bfa61688a565b5b906000526020600020018054612c1090616713565b80601f0160208091040260200160405190810160405280929190818152602001828054612c3c90616713565b8015612c895780601f10612c5e57610100808354040283529160200191612c89565b820191906000526020600020905b815481529060010190602001808311612c6c57829003601f168201915b5050505050600e60008981526020019081526020016000208581548110612cb357612cb261688a565b5b906000526020600020018054612cc890616713565b80601f0160208091040260200160405190810160405280929190818152602001828054612cf490616713565b8015612d415780601f10612d1657610100808354040283529160200191612d41565b820191906000526020600020905b815481529060010190602001808311612d2457829003601f168201915b505050505086613bb6565b8080612d57906167aa565b915050612b35565b508082600201819055507f9a2e42fd6722813d69113e7d0079d3d940171428df7373df9c7f7617cfda28928382604051612d9a9291906160b4565b60405180910390a1505050565b7f150214d74d59b7d1e90c73fc22ef3d991dd0a76b046543d4d80ab92d2a50328f81565b612dd3613fcb565b600f600084815260200190815260200160002060008373ffffffffffffffffffffffffffffffffffffffff1673ffffffffffffffffffffffffffffffffffffffff1681526020019081526020016000206040518060600160405290816000820160009054906101000a900460ff161515151581526020016000820160019054906101000a900460ff1660ff1660ff1681526020016000820160029054906101000a90046bffffffffffffffffffffffff166bffffffffffffffffffffffff166bffffffffffffffffffffffff1681525050905092915050565b600181565b600160009054906101000a900473ffffffffffffffffffffffffffffffffffffffff1673ffffffffffffffffffffffffffffffffffffffff163373ffffffffffffffffffffffffffffffffffffffff16148015612f3b5750600073ffffffffffffffffffffffffffffffffffffffff163373ffffffffffffffffffffffffffffffffffffffff1614155b612f7a576040517f08c379a0000000000000000000000000000000000000000000000000000000008152600401612f7190615cc4565b60405180910390fd5b60008060009054906101000a900473ffffffffffffffffffffffffffffffffffffffff1690506000600160009054906101000a900473ffffffffffffffffffffffffffffffffffffffff169050600160009054906101000a900473ffffffffffffffffffffffffffffffffffffffff166000806101000a81548173ffffffffffffffffffffffffffffffffffffffff021916908373ffffffffffffffffffffffffffffffffffffffff1602179055506000600160006101000a81548173ffffffffffffffffffffffffffffffffffffffff021916908373ffffffffffffffffffffffffffffffffffffffff1602179055507ff9ffabca9c8276e99321725bcb43fb076a6c66a54b7f21c4e8146d8519b417dc8260008054906101000a900473ffffffffffffffffffffffffffffffffffffffff166040516130bc929190615807565b60405180910390a17fca4f2f25d0898edd99413412fb94012f9e54ec8142f9b093e7720646a95b16a981600160009054906101000a900473ffffffffffffffffffffffffffffffffffffffff16604051613117929190615807565b60405180910390a15050565b600960009054906101000a900473ffffffffffffffffffffffffffffffffffffffff1681565b60008054906101000a900473ffffffffffffffffffffffffffffffffffffffff1681565b600860009054906101000a900473ffffffffffffffffffffffffffffffffffffffff1681565b600560078111156131a7576131a661682c565b5b6131b08261147d565b60078111156131c2576131c161682c565b5b14613202576040517f08c379a00000000000000000000000000000000000000000000000000000000081526004016131f990615c04565b60405180910390fd5b6000600a6000838152602001908152602001600020905060018160080160016101000a81548160ff02191690831515021790555060005b600b60008481526020019081526020016000208054905081101561343357600760009054906101000a900473ffffffffffffffffffffffffffffffffffffffff1673ffffffffffffffffffffffffffffffffffffffff16630825f38f600c600086815260200190815260200160002083815481106132ba576132b961688a565b5b9060005260206000200154600b600087815260200190815260200160002084815481106132ea576132e961688a565b5b9060005260206000200160009054906101000a900473ffffffffffffffffffffffffffffffffffffffff16600c6000888152602001908152602001600020858154811061333a5761333961688a565b5b9060005260206000200154600d6000898152602001908152602001600020868154811061336a5761336961688a565b5b90600052602060002001600e60008a815260200190815260200160002087815481106133995761339861688a565b5b9060005260206000200188600201546040518763ffffffff1660e01b81526004016133c89594939291906158ba565b6000604051808303818588803b1580156133e157600080fd5b505af11580156133f5573d6000803e3d6000fd5b50505050506040513d6000823e3d601f19601f8201168201806040525081019061341f919061490d565b50808061342b906167aa565b915050613239565b507f712ae1383f79ac853f8d882153778e0260ef8f03b504e2866e0593e04d2b291f826040516134639190615e9f565b60405180910390a15050565b6000804690508091505090565b6000600160078111156134925761349161682c565b5b61349b8461147d565b60078111156134ad576134ac61682c565b5b146134ed576040517f08c379a00000000000000000000000000000000000000000000000000000000081526004016134e490615b44565b60405180910390fd5b60028260ff161115613534576040517f08c379a000000000000000000000000000000000000000000000000000000000815260040161352b90615c84565b60405180910390fd5b6000600a600085815260200190815260200160002090506000600f600086815260200190815260200160002060008773ffffffffffffffffffffffffffffffffffffffff1673ffffffffffffffffffffffffffffffffffffffff1681526020019081526020016000209050600015158160000160009054906101000a900460ff161515146135f7576040517f08c379a00000000000000000000000000000000000000000000000000000000081526004016135ee90615e44565b60405180910390fd5b6000613607878460030154613909565b905060008560ff16141561363e576136318360060154826bffffffffffffffffffffffff16613852565b83600601819055506136a6565b60018560ff161415613673576136668360050154826bffffffffffffffffffffffff16613852565b83600501819055506136a5565b60028560ff1614156136a45761369b8360070154826bffffffffffffffffffffffff16613852565b83600701819055505b5b5b60018260000160006101000a81548160ff021916908315150217905550848260000160016101000a81548160ff021916908360ff160217905550808260000160026101000a8154816bffffffffffffffffffffffff02191690836bffffffffffffffffffffffff1602179055508093505050509392505050565b6137b6816040516024016137349190615b02565b6040516020818303038152906040527f41304fac000000000000000000000000000000000000000000000000000000007bffffffffffffffffffffffffffffffffffffffffffffffffffffffff19166020820180517bffffffffffffffffffffffffffffffffffffffffffffffffffffffff8381831617835250505050613d8c565b50565b61384f816040516024016137cd9190615e9f565b6040516020818303038152906040527ff5b1bba9000000000000000000000000000000000000000000000000000000007bffffffffffffffffffffffffffffffffffffffffffffffffffffffff19166020820180517bffffffffffffffffffffffffffffffffffffffffffffffffffffffff8381831617835250505050613d8c565b50565b600080828461386191906164d3565b9050838110156138a6576040517f08c379a000000000000000000000000000000000000000000000000000000000815260040161389d90615d44565b60405180910390fd5b8091505092915050565b6000828211156138f5576040517f08c379a00000000000000000000000000000000000000000000000000000000081526004016138ec90615e24565b60405180910390fd5b8183613901919061656b565b905092915050565b60008073ffffffffffffffffffffffffffffffffffffffff16600960009054906101000a900473ffffffffffffffffffffffffffffffffffffffff1673ffffffffffffffffffffffffffffffffffffffff161415613a1557600860009054906101000a900473ffffffffffffffffffffffffffffffffffffffff1673ffffffffffffffffffffffffffffffffffffffff1663782d6fe184846040518363ffffffff1660e01b81526004016139be929190615830565b60206040518083038186803b1580156139d657600080fd5b505afa1580156139ea573d6000803e3d6000fd5b505050506040513d601f19601f82011682018060405250810190613a0e9190614b5f565b9050613bb0565b613bad600860009054906101000a900473ffffffffffffffffffffffffffffffffffffffff1673ffffffffffffffffffffffffffffffffffffffff1663782d6fe185856040518363ffffffff1660e01b8152600401613a75929190615830565b60206040518083038186803b158015613a8d57600080fd5b505afa158015613aa1573d6000803e3d6000fd5b505050506040513d601f19601f82011682018060405250810190613ac59190614b5f565b600960009054906101000a900473ffffffffffffffffffffffffffffffffffffffff1673ffffffffffffffffffffffffffffffffffffffff1663782d6fe186866040518363ffffffff1660e01b8152600401613b22929190615830565b60206040518083038186803b158015613b3a57600080fd5b505afa158015613b4e573d6000803e3d6000fd5b505050506040513d601f19601f82011682018060405250810190613b729190614b5f565b6040518060400160405280601681526020017f6765745072696f72566f746573206f766572666c6f7700000000000000000000815250613db5565b90505b92915050565b600760009054906101000a900473ffffffffffffffffffffffffffffffffffffffff1673ffffffffffffffffffffffffffffffffffffffff1663f2b065378686868686604051602001613c0d959493929190615859565b604051602081830303815290604052805190602001206040518263ffffffff1660e01b8152600401613c3f91906159b3565b60206040518083038186803b158015613c5757600080fd5b505afa158015613c6b573d6000803e3d6000fd5b505050506040513d601f19601f82011682018060405250810190613c8f91906148b3565b15613ccf576040517f08c379a0000000000000000000000000000000000000000000000000000000008152600401613cc690615be4565b60405180910390fd5b600760009054906101000a900473ffffffffffffffffffffffffffffffffffffffff1673ffffffffffffffffffffffffffffffffffffffff16633a66f90186868686866040518663ffffffff1660e01b8152600401613d32959493929190615859565b602060405180830381600087803b158015613d4c57600080fd5b505af1158015613d60573d6000803e3d6000fd5b505050506040513d601f19601f82011682018060405250810190613d8491906148e0565b505050505050565b60008151905060006a636f6e736f6c652e6c6f679050602083016000808483855afa5050505050565b6000808385613dc49190616529565b9050846bffffffffffffffffffffffff16816bffffffffffffffffffffffff1610158390613e28576040517f08c379a0000000000000000000000000000000000000000000000000000000008152600401613e1f9190615b02565b60405180910390fd5b50809150509392505050565b828054828255906000526020600020908101928215613ead579160200282015b82811115613eac5782518260006101000a81548173ffffffffffffffffffffffffffffffffffffffff021916908373ffffffffffffffffffffffffffffffffffffffff16021790555091602001919060010190613e54565b5b509050613eba9190613fff565b5090565b828054828255906000526020600020908101928215613efa579160200282015b82811115613ef9578251825591602001919060010190613ede565b5b509050613f079190613fff565b5090565b828054828255906000526020600020908101928215613f5a579160200282015b82811115613f59578251829080519060200190613f4992919061401c565b5091602001919060010190613f2b565b5b509050613f6791906140a2565b5090565b828054828255906000526020600020908101928215613fba579160200282015b82811115613fb9578251829080519060200190613fa99291906140c6565b5091602001919060010190613f8b565b5b509050613fc7919061414c565b5090565b6040518060600160405280600015158152602001600060ff16815260200160006bffffffffffffffffffffffff1681525090565b5b80821115614018576000816000905550600101614000565b5090565b82805461402890616713565b90600052602060002090601f01602090048101928261404a5760008555614091565b82601f1061406357805160ff1916838001178555614091565b82800160010185558215614091579182015b82811115614090578251825591602001919060010190614075565b5b50905061409e9190613fff565b5090565b5b808211156140c257600081816140b99190614170565b506001016140a3565b5090565b8280546140d290616713565b90600052602060002090601f0160209004810192826140f4576000855561413b565b82601f1061410d57805160ff191683800117855561413b565b8280016001018555821561413b579182015b8281111561413a57825182559160200191906001019061411f565b5b5090506141489190613fff565b5090565b5b8082111561416c576000818161416391906141b0565b5060010161414d565b5090565b50805461417c90616713565b6000825580601f1061418e57506141ad565b601f0160209004906000526020600020908101906141ac9190613fff565b5b50565b5080546141bc90616713565b6000825580601f106141ce57506141ed565b601f0160209004906000526020600020908101906141ec9190613fff565b5b50565b60006142036141fe8461619a565b616175565b9050808382526020820190508285602086028201111561422657614225616918565b5b60005b85811015614256578161423c88826144b2565b845260208401935060208301925050600181019050614229565b5050509392505050565b600061427361426e846161c6565b616175565b9050808382526020820190508285602086028201111561429657614295616918565b5b60005b858110156142e457813567ffffffffffffffff8111156142bc576142bb616913565b5b8086016142c989826145be565b85526020850194506020840193505050600181019050614299565b5050509392505050565b60006143016142fc846161f2565b616175565b9050808382526020820190508285602086028201111561432457614323616918565b5b60005b8581101561437257813567ffffffffffffffff81111561434a57614349616913565b5b8086016143578982614670565b85526020850194506020840193505050600181019050614327565b5050509392505050565b600061438f61438a8461621e565b616175565b905080838252602082019050828560208602820111156143b2576143b1616918565b5b60005b858110156143e257816143c8888261469e565b8452602084019350602083019250506001810190506143b5565b5050509392505050565b60006143ff6143fa8461624a565b616175565b90508281526020810184848401111561441b5761441a61691d565b5b6144268482856166d1565b509392505050565b600061444161443c8461624a565b616175565b90508281526020810184848401111561445d5761445c61691d565b5b6144688482856166e0565b509392505050565b600061448361447e8461627b565b616175565b90508281526020810184848401111561449f5761449e61691d565b5b6144aa8482856166d1565b509392505050565b6000813590506144c181617193565b92915050565b600082601f8301126144dc576144db616913565b5b81356144ec8482602086016141f0565b91505092915050565b600082601f83011261450a57614509616913565b5b813561451a848260208601614260565b91505092915050565b600082601f83011261453857614537616913565b5b81356145488482602086016142ee565b91505092915050565b600082601f83011261456657614565616913565b5b813561457684826020860161437c565b91505092915050565b60008151905061458e816171aa565b92915050565b6000813590506145a3816171c1565b92915050565b6000815190506145b8816171c1565b92915050565b600082601f8301126145d3576145d2616913565b5b81356145e38482602086016143ec565b91505092915050565b600082601f83011261460157614600616913565b5b815161461184826020860161442e565b91505092915050565b60008083601f8401126146305761462f616913565b5b8235905067ffffffffffffffff81111561464d5761464c61690e565b5b60208301915083600182028301111561466957614668616918565b5b9250929050565b600082601f83011261468557614684616913565b5b8135614695848260208601614470565b91505092915050565b6000813590506146ad816171d8565b92915050565b6000815190506146c2816171d8565b92915050565b6000813590506146d7816171ef565b92915050565b6000815190506146ec81617206565b92915050565b60006020828403121561470857614707616927565b5b6000614716848285016144b2565b91505092915050565b60008060008060008060c0878903121561473c5761473b616927565b5b600061474a89828a016144b2565b965050602061475b89828a016144b2565b955050604061476c89828a016144b2565b945050606061477d89828a0161469e565b935050608061478e89828a0161469e565b92505060a061479f89828a0161469e565b9150509295509295509295565b600080600080600060a086880312156147c8576147c7616927565b5b600086013567ffffffffffffffff8111156147e6576147e5616922565b5b6147f2888289016144c7565b955050602086013567ffffffffffffffff81111561481357614812616922565b5b61481f88828901614551565b945050604086013567ffffffffffffffff8111156148405761483f616922565b5b61484c88828901614523565b935050606086013567ffffffffffffffff81111561486d5761486c616922565b5b614879888289016144f5565b925050608086013567ffffffffffffffff81111561489a57614899616922565b5b6148a688828901614670565b9150509295509295909350565b6000602082840312156148c9576148c8616927565b5b60006148d78482850161457f565b91505092915050565b6000602082840312156148f6576148f5616927565b5b6000614904848285016145a9565b91505092915050565b60006020828403121561492357614922616927565b5b600082015167ffffffffffffffff81111561494157614940616922565b5b61494d848285016145ec565b91505092915050565b60006020828403121561496c5761496b616927565b5b600061497a8482850161469e565b91505092915050565b60006020828403121561499957614998616927565b5b60006149a7848285016146b3565b91505092915050565b600080604083850312156149c7576149c6616927565b5b60006149d58582860161469e565b92505060206149e6858286016144b2565b9150509250929050565b60008060408385031215614a0757614a06616927565b5b6000614a158582860161469e565b9250506020614a268582860161469e565b9150509250929050565b60008060408385031215614a4757614a46616927565b5b6000614a558582860161469e565b9250506020614a66858286016146c8565b9150509250929050565b60008060008060608587031215614a8a57614a89616927565b5b6000614a988782880161469e565b9450506020614aa9878288016146c8565b935050604085013567ffffffffffffffff811115614aca57614ac9616922565b5b614ad68782880161461a565b925092505092959194509250565b600080600080600060a08688031215614b0057614aff616927565b5b6000614b0e8882890161469e565b9550506020614b1f888289016146c8565b9450506040614b30888289016146c8565b9350506060614b4188828901614594565b9250506080614b5288828901614594565b9150509295509295909350565b600060208284031215614b7557614b74616927565b5b6000614b83848285016146dd565b91505092915050565b6000614b988383614c0c565b60208301905092915050565b6000614bb08383614fc6565b905092915050565b6000614bc48383615038565b905092915050565b6000614bd883836151a1565b905092915050565b6000614bec8383615213565b905092915050565b6000614c00838361574c565b60208301905092915050565b614c15816165c9565b82525050565b614c24816165c9565b82525050565b6000614c358261636a565b614c3f8185616440565b9350614c4a836162ac565b8060005b83811015614c7b578151614c628882614b8c565b9750614c6d836163d8565b925050600181019050614c4e565b5085935050505092915050565b6000614c9382616375565b614c9d8185616440565b9350614ca8836162bc565b8060005b83811015614ce057614cbd826168e8565b614cc78882614b8c565b9750614cd2836163e5565b925050600181019050614cac565b5085935050505092915050565b6000614cf882616380565b614d028185616451565b935083602082028501614d14856162d1565b8060005b85811015614d505784840389528151614d318582614ba4565b9450614d3c836163f2565b925060208a01995050600181019050614d18565b50829750879550505050505092915050565b6000614d6d8261638b565b614d778185616451565b935083602082028501614d89856162e1565b8060005b85811015614dc457848403895281614da58582614bb8565b9450614db0836163ff565b925060208a01995050600181019050614d8d565b50829750879550505050505092915050565b6000614de182616396565b614deb8185616462565b935083602082028501614dfd856162f6565b8060005b85811015614e395784840389528151614e1a8582614bcc565b9450614e258361640c565b925060208a01995050600181019050614e01565b50829750879550505050505092915050565b6000614e56826163a1565b614e608185616462565b935083602082028501614e7285616306565b8060005b85811015614ead57848403895281614e8e8582614be0565b9450614e9983616419565b925060208a01995050600181019050614e76565b50829750879550505050505092915050565b6000614eca826163ac565b614ed48185616473565b9350614edf8361631b565b8060005b83811015614f10578151614ef78882614bf4565b9750614f0283616426565b925050600181019050614ee3565b5085935050505092915050565b6000614f28826163b7565b614f328185616473565b9350614f3d8361632b565b8060005b83811015614f7557614f52826168fb565b614f5c8882614bf4565b9750614f6783616433565b925050600181019050614f41565b5085935050505092915050565b614f8b816165db565b82525050565b614f9a816165db565b82525050565b614fa9816165e7565b82525050565b614fc0614fbb826165e7565b6167f3565b82525050565b6000614fd1826163c2565b614fdb8185616484565b9350614feb8185602086016166e0565b614ff48161692c565b840191505092915050565b600061500a826163c2565b6150148185616495565b93506150248185602086016166e0565b61502d8161692c565b840191505092915050565b6000815461504581616713565b61504f8186616484565b9450600182166000811461506a576001811461507c576150af565b60ff19831686526020860193506150af565b61508585616340565b60005b838110156150a757815481890152600182019150602081019050615088565b808801955050505b50505092915050565b600081546150c581616713565b6150cf8186616495565b945060018216600081146150ea57600181146150fc5761512f565b60ff198316865260208601935061512f565b61510585616340565b60005b8381101561512757815481890152600182019150602081019050615108565b808801955050505b50505092915050565b61514181616653565b82525050565b61515081616677565b82525050565b61515f8161669b565b82525050565b61516e816166ad565b82525050565b600061518083856164b7565b935061518d8385846166d1565b6151968361692c565b840190509392505050565b60006151ac826163cd565b6151b681856164a6565b93506151c68185602086016166e0565b6151cf8161692c565b840191505092915050565b60006151e5826163cd565b6151ef81856164b7565b93506151ff8185602086016166e0565b6152088161692c565b840191505092915050565b6000815461522081616713565b61522a81866164a6565b9450600182166000811461524557600181146152575761528a565b60ff198316865260208601935061528a565b61526085616355565b60005b8381101561528257815481890152600182019150602081019050615263565b808801955050505b50505092915050565b600081546152a081616713565b6152aa81866164b7565b945060018216600081146152c557600181146152d75761530a565b60ff198316865260208601935061530a565b6152e085616355565b60005b83811015615302578154818901526001820191506020810190506152e3565b808801955050505b50505092915050565b6000615320602d836164b7565b915061532b8261694a565b604082019050919050565b60006153436028836164b7565b915061534e82616999565b604082019050919050565b60006153666036836164b7565b9150615371826169e8565b604082019050919050565b60006153896050836164b7565b915061539482616a37565b606082019050919050565b60006153ac602c836164b7565b91506153b782616aac565b604082019050919050565b60006153cf6013836164b7565b91506153da82616afb565b602082019050919050565b60006153f2604c836164b7565b91506153fd82616b24565b606082019050919050565b60006154156002836164c8565b915061542082616b99565b600282019050919050565b6000615438603c836164b7565b915061544382616bc2565b604082019050919050565b600061545b601f836164b7565b915061546682616c11565b602082019050919050565b600061547e603b836164b7565b915061548982616c3a565b604082019050919050565b60006154a16037836164b7565b91506154ac82616c89565b604082019050919050565b60006154c46029836164b7565b91506154cf82616cd8565b604082019050919050565b60006154e7602d836164b7565b91506154f282616d27565b604082019050919050565b600061550a6025836164b7565b915061551582616d76565b604082019050919050565b600061552d602e836164b7565b915061553882616dc5565b604082019050919050565b60006155506026836164b7565b915061555b82616e14565b604082019050919050565b60006155736020836164b7565b915061557e82616e63565b602082019050919050565b60006155966011836164b7565b91506155a182616e8c565b602082019050919050565b60006155b96026836164b7565b91506155c482616eb5565b604082019050919050565b60006155dc6027836164b7565b91506155e782616f04565b604082019050919050565b60006155ff6000836164b7565b915061560a82616f53565b600082019050919050565b60006156226023836164b7565b915061562d82616f56565b604082019050919050565b6000615645603b836164b7565b915061565082616fa5565b604082019050919050565b6000615668604f836164b7565b915061567382616ff4565b606082019050919050565b600061568b6026836164b7565b915061569682617069565b604082019050919050565b60006156ae6015836164b7565b91506156b9826170b8565b602082019050919050565b60006156d1602b836164b7565b91506156dc826170e1565b604082019050919050565b60006156f4602b836164b7565b91506156ff82617130565b604082019050919050565b6060820160008201516157206000850182614f82565b506020820151615733602085018261576a565b5060408201516157466040850182615797565b50505050565b61575581616624565b82525050565b61576481616624565b82525050565b6157738161662e565b82525050565b6157828161662e565b82525050565b615791816166bf565b82525050565b6157a08161663b565b82525050565b6157af8161663b565b82525050565b60006157c082615408565b91506157cc8285614faf565b6020820191506157dc8284614faf565b6020820191508190509392505050565b60006020820190506158016000830184614c1b565b92915050565b600060408201905061581c6000830185614c1b565b6158296020830184614c1b565b9392505050565b60006040820190506158456000830185614c1b565b615852602083018461575b565b9392505050565b600060a08201905061586e6000830188614c1b565b61587b602083018761575b565b818103604083015261588d81866151da565b905081810360608301526158a18185614fff565b90506158b0608083018461575b565b9695505050505050565b600060a0820190506158cf6000830188614c1b565b6158dc602083018761575b565b81810360408301526158ee8186615293565b9050818103606083015261590281856150b8565b9050615911608083018461575b565b9695505050505050565b600060808201905081810360008301526159358187614c2a565b905081810360208301526159498186614ebf565b9050818103604083015261595d8185614dd6565b905081810360608301526159718184614ced565b905095945050505050565b60006060820190506159916000830186614f91565b61599e6020830185615779565b6159ab60408301846157a6565b949350505050565b60006020820190506159c86000830184614fa0565b92915050565b60006080820190506159e36000830187614fa0565b6159f06020830186614fa0565b6159fd604083018561575b565b615a0a6060830184614c1b565b95945050505050565b6000606082019050615a286000830186614fa0565b615a35602083018561575b565b615a426040830184615779565b949350505050565b6000608082019050615a5f6000830187614fa0565b615a6c6020830186615779565b615a796040830185614fa0565b615a866060830184614fa0565b95945050505050565b60006020820190508181036000830152615aa98184614fff565b905092915050565b6000602082019050615ac66000830184615138565b92915050565b6000602082019050615ae16000830184615147565b92915050565b6000602082019050615afc6000830184615156565b92915050565b60006020820190508181036000830152615b1c81846151da565b905092915050565b60006020820190508181036000830152615b3d81615313565b9050919050565b60006020820190508181036000830152615b5d81615336565b9050919050565b60006020820190508181036000830152615b7d81615359565b9050919050565b60006020820190508181036000830152615b9d8161537c565b9050919050565b60006020820190508181036000830152615bbd8161539f565b9050919050565b60006020820190508181036000830152615bdd816153c2565b9050919050565b60006020820190508181036000830152615bfd816153e5565b9050919050565b60006020820190508181036000830152615c1d8161542b565b9050919050565b60006020820190508181036000830152615c3d8161544e565b9050919050565b60006020820190508181036000830152615c5d81615471565b9050919050565b60006020820190508181036000830152615c7d81615494565b9050919050565b60006020820190508181036000830152615c9d816154b7565b9050919050565b60006020820190508181036000830152615cbd816154da565b9050919050565b60006020820190508181036000830152615cdd816154fd565b9050919050565b60006020820190508181036000830152615cfd81615520565b9050919050565b60006020820190508181036000830152615d1d81615543565b9050919050565b60006020820190508181036000830152615d3d81615566565b9050919050565b60006020820190508181036000830152615d5d81615589565b9050919050565b60006020820190508181036000830152615d7d816155ac565b9050919050565b60006020820190508181036000830152615d9d816155cf565b9050919050565b60006020820190508181036000830152615dbd81615615565b9050919050565b60006020820190508181036000830152615ddd81615638565b9050919050565b60006020820190508181036000830152615dfd8161565b565b9050919050565b60006020820190508181036000830152615e1d8161567e565b9050919050565b60006020820190508181036000830152615e3d816156a1565b9050919050565b60006020820190508181036000830152615e5d816156c4565b9050919050565b60006020820190508181036000830152615e7d816156e7565b9050919050565b6000606082019050615e99600083018461570a565b92915050565b6000602082019050615eb4600083018461575b565b92915050565b600061012082019050615ed0600083018c61575b565b615edd602083018b614c1b565b8181036040830152615eef818a614c2a565b90508181036060830152615f038189614ebf565b90508181036080830152615f178188614dd6565b905081810360a0830152615f2b8187614ced565b9050615f3a60c083018661575b565b615f4760e083018561575b565b818103610100830152615f5a81846151da565b90509a9950505050505050505050565b600061012082019050615f80600083018b61575b565b615f8d602083018a614c1b565b8181036040830152615f9f8189614c88565b90508181036060830152615fb38188614f1d565b90508181036080830152615fc78187614e4b565b905081810360a0830152615fdb8186614d62565b9050615fea60c0830185615165565b615ff760e0830184615165565b818103610100830152616009816155f2565b90509998505050505050505050565b60006101408201905061602e600083018d61575b565b61603b602083018c614c1b565b616048604083018b61575b565b616055606083018a61575b565b616062608083018961575b565b61606f60a083018861575b565b61607c60c083018761575b565b61608960e083018661575b565b616097610100830185614f91565b6160a5610120830184614f91565b9b9a5050505050505050505050565b60006040820190506160c9600083018561575b565b6160d6602083018461575b565b9392505050565b60006080820190506160f2600083018861575b565b6160ff6020830187615779565b61610c6040830186615788565b818103606083015261611f818486615174565b90509695505050505050565b6000608082019050616140600083018661575b565b61614d6020830185615779565b61615a6040830184615788565b818103606083015261616b816155f2565b9050949350505050565b600061617f616190565b905061618b8282616779565b919050565b6000604051905090565b600067ffffffffffffffff8211156161b5576161b46168b9565b5b602082029050602081019050919050565b600067ffffffffffffffff8211156161e1576161e06168b9565b5b602082029050602081019050919050565b600067ffffffffffffffff82111561620d5761620c6168b9565b5b602082029050602081019050919050565b600067ffffffffffffffff821115616239576162386168b9565b5b602082029050602081019050919050565b600067ffffffffffffffff821115616265576162646168b9565b5b61626e8261692c565b9050602081019050919050565b600067ffffffffffffffff821115616296576162956168b9565b5b61629f8261692c565b9050602081019050919050565b6000819050602082019050919050565b60008190508160005260206000209050919050565b6000819050602082019050919050565b60008190508160005260206000209050919050565b6000819050602082019050919050565b60008190508160005260206000209050919050565b6000819050602082019050919050565b60008190508160005260206000209050919050565b60008190508160005260206000209050919050565b60008190508160005260206000209050919050565b600081519050919050565b600081549050919050565b600081519050919050565b600081549050919050565b600081519050919050565b600081549050919050565b600081519050919050565b600081549050919050565b600081519050919050565b600081519050919050565b6000602082019050919050565b6000600182019050919050565b6000602082019050919050565b6000600182019050919050565b6000602082019050919050565b6000600182019050919050565b6000602082019050919050565b6000600182019050919050565b600082825260208201905092915050565b600082825260208201905092915050565b600082825260208201905092915050565b600082825260208201905092915050565b600082825260208201905092915050565b600082825260208201905092915050565b600082825260208201905092915050565b600082825260208201905092915050565b600081905092915050565b60006164de82616624565b91506164e983616624565b9250827fffffffffffffffffffffffffffffffffffffffffffffffffffffffffffffffff0382111561651e5761651d6167fd565b5b828201905092915050565b60006165348261663b565b915061653f8361663b565b9250826bffffffffffffffffffffffff038211156165605761655f6167fd565b5b828201905092915050565b600061657682616624565b915061658183616624565b925082821015616594576165936167fd565b5b828203905092915050565b600073ffffffffffffffffffffffffffffffffffffffff82169050919050565b6000819050919050565b60006165d482616604565b9050919050565b60008115159050919050565b6000819050919050565b60008190506165ff8261717f565b919050565b600073ffffffffffffffffffffffffffffffffffffffff82169050919050565b6000819050919050565b600060ff82169050919050565b60006bffffffffffffffffffffffff82169050919050565b600061665e82616665565b9050919050565b600061667082616604565b9050919050565b600061668282616689565b9050919050565b600061669482616604565b9050919050565b60006166a6826165f1565b9050919050565b60006166b882616624565b9050919050565b60006166ca8261663b565b9050919050565b82818337600083830152505050565b60005b838110156166fe5780820151818401526020810190506166e3565b8381111561670d576000848401525b50505050565b6000600282049050600182168061672b57607f821691505b6020821081141561673f5761673e61685b565b5b50919050565b60006167586167538361693d565b61659f565b9050919050565b600061677261676d8361693d565b6165bf565b9050919050565b6167828261692c565b810181811067ffffffffffffffff821117156167a1576167a06168b9565b5b80604052505050565b60006167b582616624565b91507fffffffffffffffffffffffffffffffffffffffffffffffffffffffffffffffff8214156167e8576167e76167fd565b5b600182019050919050565b6000819050919050565b7f4e487b7100000000000000000000000000000000000000000000000000000000600052601160045260246000fd5b7f4e487b7100000000000000000000000000000000000000000000000000000000600052602160045260246000fd5b7f4e487b7100000000000000000000000000000000000000000000000000000000600052602260045260246000fd5b7f4e487b7100000000000000000000000000000000000000000000000000000000600052603260045260246000fd5b7f4e487b7100000000000000000000000000000000000000000000000000000000600052604160045260246000fd5b60006168f48254616745565b9050919050565b6000616907825461675f565b9050919050565b600080fd5b600080fd5b600080fd5b600080fd5b600080fd5b600080fd5b6000601f19601f8301169050919050565b60008160001c9050919050565b7f495043543a3a63616e63656c3a2063616e6e6f742063616e63656c206578656360008201527f757465642070726f706f73616c00000000000000000000000000000000000000602082015250565b7f495043543a3a63617374566f7465496e7465726e616c3a20766f74696e67206960008201527f7320636c6f736564000000000000000000000000000000000000000000000000602082015250565b7f495043543a3a70726f706f73653a2070726f706f73657220766f74657320626560008201527f6c6f772070726f706f73616c207468726573686f6c6400000000000000000000602082015250565b7f495043543a3a70726f706f73653a206f6e65206c6976652070726f706f73616c60008201527f207065722070726f706f7365722c20666f756e6420616e20616c72656164792060208201527f70656e64696e672070726f706f73616c00000000000000000000000000000000604082015250565b7f495043543a3a696e697469616c697a653a20696e76616c69642070726f706f7360008201527f616c207468726573686f6c640000000000000000000000000000000000000000602082015250565b7f4f6e6c792061646d696e2063616e2063616c6c00000000000000000000000000600082015250565b7f495043543a3a71756575654f72526576657274496e7465726e616c3a2069646560008201527f6e746963616c2070726f706f73616c20616374696f6e20616c7265616479207160208201527f7565756564206174206574610000000000000000000000000000000000000000604082015250565b7f1901000000000000000000000000000000000000000000000000000000000000600082015250565b7f495043543a3a657865637574653a2070726f706f73616c2063616e206f6e6c7960008201527f2062652065786563757465642069662069742069732071756575656400000000602082015250565b7f495043543a3a70726f706f73653a20746f6f206d616e7920616374696f6e7300600082015250565b7f495043543a3a71756575653a2070726f706f73616c2063616e206f6e6c79206260008201527f6520717565756564206966206974206973207375636365656465640000000000602082015250565b7f495043543a3a5f73657450726f706f73616c5468726573686f6c643a20696e7660008201527f616c69642070726f706f73616c207468726573686f6c64000000000000000000602082015250565b7f495043543a3a63617374566f7465496e7465726e616c3a20696e76616c69642060008201527f766f746520747970650000000000000000000000000000000000000000000000602082015250565b7f495043543a3a5f736574566f74696e67506572696f643a20696e76616c69642060008201527f766f74696e6720706572696f6400000000000000000000000000000000000000602082015250565b7f495043543a5f61636365707441646d696e3a2070656e64696e672061646d696e60008201527f206f6e6c79000000000000000000000000000000000000000000000000000000602082015250565b7f496e697469616c697a61626c653a20636f6e747261637420697320616c72656160008201527f647920696e697469616c697a6564000000000000000000000000000000000000602082015250565b7f495043543a3a63616e63656c3a2070726f706f7365722061626f76652074687260008201527f6573686f6c640000000000000000000000000000000000000000000000000000602082015250565b7f495043543a3a73746174653a20696e76616c69642070726f706f73616c206964600082015250565b7f6164646974696f6e206f766572666c6f77000000000000000000000000000000600082015250565b7f495043543a3a63617374566f746542795369673a20696e76616c69642073696760008201527f6e61747572650000000000000000000000000000000000000000000000000000602082015250565b7f495043543a3a696e697469616c697a653a20696e76616c696420766f74696e6760008201527f20706572696f6400000000000000000000000000000000000000000000000000602082015250565b50565b7f495043543a3a70726f706f73653a206d7573742070726f76696465206163746960008201527f6f6e730000000000000000000000000000000000000000000000000000000000602082015250565b7f495043543a3a70726f706f73653a2070726f706f73616c2066756e6374696f6e60008201527f20696e666f726d6174696f6e206172697479206d69736d617463680000000000602082015250565b7f495043543a3a70726f706f73653a206f6e65206c6976652070726f706f73616c60008201527f207065722070726f706f7365722c20666f756e6420616e20616c72656164792060208201527f6163746976652070726f706f73616c0000000000000000000000000000000000604082015250565b7f495043543a3a696e697469616c697a653a20696e76616c696420766f74696e6760008201527f2064656c61790000000000000000000000000000000000000000000000000000602082015250565b7f7375627472616374696f6e20756e646572666c6f770000000000000000000000600082015250565b7f495043543a3a63617374566f7465496e7465726e616c3a20766f74657220616c60008201527f726561647920766f746564000000000000000000000000000000000000000000602082015250565b7f495043543a3a5f736574566f74696e6744656c61793a20696e76616c6964207660008201527f6f74696e672064656c6179000000000000000000000000000000000000000000602082015250565b600881106171905761718f61682c565b5b50565b61719c816165c9565b81146171a757600080fd5b50565b6171b3816165db565b81146171be57600080fd5b50565b6171ca816165e7565b81146171d557600080fd5b50565b6171e181616624565b81146171ec57600080fd5b50565b6171f88161662e565b811461720357600080fd5b50565b61720f8161663b565b811461721a57600080fd5b5056fea26469706673582212207c69cce506239e0ec7ea75be66d89ec15beafdc35d2279daa107fcad6605c49364736f6c63430008050033",
  "devdoc": {
    "kind": "dev",
    "methods": {
      "_acceptAdmin()": {
        "details": "Admin function for pending admin to accept role and update admin"
      },
      "_setPendingAdmin(address)": {
        "details": "Admin function to begin change of admin. The newPendingAdmin must call `_acceptAdmin` to finalize the transfer.",
        "params": {
          "newPendingAdmin": "New pending admin."
        }
      },
      "_setProposalThreshold(uint256)": {
        "details": "newProposalThreshold must be greater than the hardcoded min",
        "params": {
          "newProposalThreshold": "new proposal threshold"
        }
      },
      "_setVotingDelay(uint256)": {
        "params": {
          "newVotingDelay": "new voting delay, in blocks"
        }
      },
      "_setVotingPeriod(uint256)": {
        "params": {
          "newVotingPeriod": "new voting period, in blocks"
        }
      },
      "cancel(uint256)": {
        "params": {
          "proposalId": "The id of the proposal to cancel"
        }
      },
      "castVote(uint256,uint8)": {
        "params": {
          "proposalId": "The id of the proposal to vote on",
          "support": "The support value for the vote. 0=against, 1=for, 2=abstain"
        }
      },
      "castVoteBySig(uint256,uint8,uint8,bytes32,bytes32)": {
        "details": "External function that accepts EIP-712 signatures for voting on proposals."
      },
      "castVoteWithReason(uint256,uint8,string)": {
        "params": {
          "proposalId": "The id of the proposal to vote on",
          "reason": "The reason given for the vote by the voter",
          "support": "The support value for the vote. 0=against, 1=for, 2=abstain"
        }
      },
      "execute(uint256)": {
        "params": {
          "proposalId": "The id of the proposal to execute"
        }
      },
      "getActions(uint256)": {
        "params": {
          "proposalId": "Proposal to query."
        },
        "returns": {
          "calldatas": "Calldatas for proposal calls.",
          "signatures": "Function signatures for proposal calls.",
          "targets": "Target addresses for proposal calls.",
          "values": "Eth values for proposal calls."
        }
      },
      "getReceipt(uint256,address)": {
        "params": {
          "proposalId": "the id of proposal",
          "voter": "The address of the voter"
        },
        "returns": {
          "_0": "The voting receipt"
        }
      },
      "initialize(address,address,address,uint256,uint256,uint256)": {
        "params": {
          "proposalThreshold_": "The initial proposal threshold",
          "releaseToken_": "The address of the \"Release\" voting token. If none, specify the zero address.",
          "timelock_": "The address of the Timelock",
          "token_": "The address of the voting token",
          "votingDelay_": "The initial voting delay",
          "votingPeriod_": "The initial voting period"
        }
      },
      "propose(address[],uint256[],string[],bytes[],string)": {
        "params": {
          "calldatas": "Calldatas for proposal calls.",
          "description": "String description of the proposal.",
          "signatures": "Function signatures for proposal calls.",
          "targets": "Target addresses for proposal calls.",
          "values": "Eth values for proposal calls."
        },
        "returns": {
          "_0": "Proposal id of new proposal."
        }
      },
      "queue(uint256)": {
        "params": {
          "proposalId": "The id of the proposal to queue"
        }
      },
      "state(uint256)": {
        "params": {
          "proposalId": "The id of the proposal"
        },
        "returns": {
          "_0": "Proposal state"
        }
      }
    },
    "version": 1
  },
  "userdoc": {
    "events": {
      "NewAdmin(address,address)": {
        "notice": "Emitted when pendingAdmin is accepted, which means admin is updated"
      },
      "NewImplementation(address,address)": {
        "notice": "Emitted when implementation is changed"
      },
      "NewPendingAdmin(address,address)": {
        "notice": "Emitted when pendingAdmin is changed"
      },
      "ProposalCanceled(uint256)": {
        "notice": "An event emitted when a proposal has been canceled"
      },
      "ProposalCreated(uint256,address,address[],uint256[],string[],bytes[],uint256,uint256,string)": {
        "notice": "An event emitted when a new proposal is created"
      },
      "ProposalExecuted(uint256)": {
        "notice": "An event emitted when a proposal has been executed in the Timelock"
      },
      "ProposalQueued(uint256,uint256)": {
        "notice": "An event emitted when a proposal has been queued in the Timelock"
      },
      "ProposalThresholdSet(uint256,uint256)": {
        "notice": "Emitted when proposal threshold is set"
      },
      "VoteCast(address,uint256,uint8,uint256,string)": {
        "notice": "An event emitted when a vote has been cast on a proposal"
      },
      "VotingDelaySet(uint256,uint256)": {
        "notice": "An event emitted when the voting delay is set"
      },
      "VotingPeriodSet(uint256,uint256)": {
        "notice": "An event emitted when the voting period is set"
      }
    },
    "kind": "user",
    "methods": {
      "BALLOT_TYPEHASH()": {
        "notice": "The EIP-712 typehash for the ballot struct used by the contract"
      },
      "DOMAIN_TYPEHASH()": {
        "notice": "The EIP-712 typehash for the contract's domain"
      },
      "MAX_PROPOSAL_THRESHOLD()": {
        "notice": "The maximum setable proposal threshold"
      },
      "MAX_VOTING_DELAY()": {
        "notice": "The max setable voting delay"
      },
      "MAX_VOTING_PERIOD()": {
        "notice": "The max setable voting period"
      },
      "MIN_PROPOSAL_THRESHOLD()": {
        "notice": "The minimum setable proposal threshold"
      },
      "MIN_VOTING_DELAY()": {
        "notice": "The min setable voting delay"
      },
      "MIN_VOTING_PERIOD()": {
        "notice": "The minimum setable voting period"
      },
      "_acceptAdmin()": {
        "notice": "Accepts transfer of admin rights. msg.sender must be pendingAdmin"
      },
      "_setPendingAdmin(address)": {
        "notice": "Begins transfer of admin rights. The newPendingAdmin must call `_acceptAdmin` to finalize the transfer."
      },
      "_setProposalThreshold(uint256)": {
        "notice": "Admin function for setting the proposal threshold"
      },
      "_setVotingDelay(uint256)": {
        "notice": "Admin function for setting the voting delay"
      },
      "_setVotingPeriod(uint256)": {
        "notice": "Admin function for setting the voting period"
      },
      "admin()": {
        "notice": "Administrator for this contract"
      },
      "cancel(uint256)": {
        "notice": "Cancels a proposal only if sender is the proposer, or proposer delegates dropped below proposal threshold"
      },
      "castVote(uint256,uint8)": {
        "notice": "Cast a vote for a proposal"
      },
      "castVoteBySig(uint256,uint8,uint8,bytes32,bytes32)": {
        "notice": "Cast a vote for a proposal by signature"
      },
      "castVoteWithReason(uint256,uint8,string)": {
        "notice": "Cast a vote for a proposal with a reason"
      },
      "execute(uint256)": {
        "notice": "Executes a queued proposal if eta has passed"
      },
      "getActions(uint256)": {
        "notice": "Gets actions of a proposal."
      },
      "getReceipt(uint256,address)": {
        "notice": "Gets the receipt for a voter on a given proposal"
      },
      "implementation()": {
        "notice": "Active brains of Governor"
      },
      "initialize(address,address,address,uint256,uint256,uint256)": {
        "notice": "Used to initialize the contract during delegator contructor"
      },
      "latestProposalIds(address)": {
        "notice": "The latest proposal for each proposer"
      },
      "name()": {
        "notice": "The name of this contract"
      },
      "pendingAdmin()": {
        "notice": "Pending administrator for this contract"
      },
      "proposalCalldatas(uint256,uint256)": {
        "notice": "The official each proposal's calldatas: An ordered list of calldata to be passed to each call"
      },
      "proposalCount()": {
        "notice": "The total number of proposals"
      },
      "proposalMaxOperations()": {
        "notice": "The maximum number of actions that can be included in a proposal"
      },
      "proposalReceipts(uint256,address)": {
        "notice": "The official each proposal's receipts: Receipts of ballots for the entire set of voters"
      },
      "proposalSignatures(uint256,uint256)": {
        "notice": "The official each proposal's signatures: An ordered list of function signatures to be called"
      },
      "proposalTargets(uint256,uint256)": {
        "notice": "The official each proposal's targets: An ordered list of target addresses for calls to be made"
      },
      "proposalThreshold()": {
        "notice": "The number of votes required in order for a voter to become a proposer"
      },
      "proposalValues(uint256,uint256)": {
        "notice": "The official each proposal's values: An ordered list of values (i.e. msg.value) to be passed to the calls to be made"
      },
      "proposals(uint256)": {
        "notice": "The official record of all proposals ever proposed"
      },
      "propose(address[],uint256[],string[],bytes[],string)": {
        "notice": "Function used to propose a new proposal. Sender must have delegates above the proposal threshold."
      },
      "queue(uint256)": {
        "notice": "Queues a proposal of state succeeded"
      },
      "quorumVotes()": {
        "notice": "The number of votes in support of a proposal required in order for a quorum to be reached and for a vote to succeed"
      },
      "releaseToken()": {
        "notice": "The address of the \"Release\" governance token"
      },
      "state(uint256)": {
        "notice": "Gets the state of a proposal"
      },
      "timelock()": {
        "notice": "The address of the Governance Timelock"
      },
      "token()": {
        "notice": "The address of the governance token"
      },
      "votingDelay()": {
        "notice": "The delay before voting on a proposal may take place, once proposed, in blocks"
      },
      "votingPeriod()": {
        "notice": "The duration of voting on a proposal, in blocks"
      }
    },
    "version": 1
  },
  "storageLayout": {
    "storage": [
      {
        "astId": 7173,
        "contract": "contracts/governor/IPCTDelegate.sol:IPCTDelegate",
        "label": "admin",
        "offset": 0,
        "slot": "0",
        "type": "t_address"
      },
      {
        "astId": 7176,
        "contract": "contracts/governor/IPCTDelegate.sol:IPCTDelegate",
        "label": "pendingAdmin",
        "offset": 0,
        "slot": "1",
        "type": "t_address"
      },
      {
        "astId": 7179,
        "contract": "contracts/governor/IPCTDelegate.sol:IPCTDelegate",
        "label": "implementation",
        "offset": 0,
        "slot": "2",
        "type": "t_address"
      },
      {
        "astId": 7186,
        "contract": "contracts/governor/IPCTDelegate.sol:IPCTDelegate",
        "label": "votingDelay",
        "offset": 0,
        "slot": "3",
        "type": "t_uint256"
      },
      {
        "astId": 7189,
        "contract": "contracts/governor/IPCTDelegate.sol:IPCTDelegate",
        "label": "votingPeriod",
        "offset": 0,
        "slot": "4",
        "type": "t_uint256"
      },
      {
        "astId": 7192,
        "contract": "contracts/governor/IPCTDelegate.sol:IPCTDelegate",
        "label": "proposalThreshold",
        "offset": 0,
        "slot": "5",
        "type": "t_uint256"
      },
      {
        "astId": 7195,
        "contract": "contracts/governor/IPCTDelegate.sol:IPCTDelegate",
        "label": "proposalCount",
        "offset": 0,
        "slot": "6",
        "type": "t_uint256"
      },
      {
        "astId": 7199,
        "contract": "contracts/governor/IPCTDelegate.sol:IPCTDelegate",
        "label": "timelock",
        "offset": 0,
        "slot": "7",
        "type": "t_contract(TimelockInterface)7357"
      },
      {
        "astId": 7203,
        "contract": "contracts/governor/IPCTDelegate.sol:IPCTDelegate",
        "label": "token",
        "offset": 0,
        "slot": "8",
        "type": "t_contract(IHasVotes)2783"
      },
      {
        "astId": 7207,
        "contract": "contracts/governor/IPCTDelegate.sol:IPCTDelegate",
        "label": "releaseToken",
        "offset": 0,
        "slot": "9",
        "type": "t_contract(IHasVotes)2783"
      },
      {
        "astId": 7213,
        "contract": "contracts/governor/IPCTDelegate.sol:IPCTDelegate",
        "label": "proposals",
        "offset": 0,
        "slot": "10",
        "type": "t_mapping(t_uint256,t_struct(Proposal)7271_storage)"
      },
      {
        "astId": 7219,
        "contract": "contracts/governor/IPCTDelegate.sol:IPCTDelegate",
        "label": "proposalTargets",
        "offset": 0,
        "slot": "11",
        "type": "t_mapping(t_uint256,t_array(t_address)dyn_storage)"
      },
      {
        "astId": 7225,
        "contract": "contracts/governor/IPCTDelegate.sol:IPCTDelegate",
        "label": "proposalValues",
        "offset": 0,
        "slot": "12",
        "type": "t_mapping(t_uint256,t_array(t_uint256)dyn_storage)"
      },
      {
        "astId": 7231,
        "contract": "contracts/governor/IPCTDelegate.sol:IPCTDelegate",
        "label": "proposalSignatures",
        "offset": 0,
        "slot": "13",
        "type": "t_mapping(t_uint256,t_array(t_string_storage)dyn_storage)"
      },
      {
        "astId": 7237,
        "contract": "contracts/governor/IPCTDelegate.sol:IPCTDelegate",
        "label": "proposalCalldatas",
        "offset": 0,
        "slot": "14",
        "type": "t_mapping(t_uint256,t_array(t_bytes_storage)dyn_storage)"
      },
      {
        "astId": 7245,
        "contract": "contracts/governor/IPCTDelegate.sol:IPCTDelegate",
        "label": "proposalReceipts",
        "offset": 0,
        "slot": "15",
        "type": "t_mapping(t_uint256,t_mapping(t_address,t_struct(Receipt)7278_storage))"
      },
      {
        "astId": 7250,
        "contract": "contracts/governor/IPCTDelegate.sol:IPCTDelegate",
        "label": "latestProposalIds",
        "offset": 0,
        "slot": "16",
        "type": "t_mapping(t_address,t_uint256)"
      },
      {
        "astId": 622,
        "contract": "contracts/governor/IPCTDelegate.sol:IPCTDelegate",
        "label": "_initialized",
        "offset": 0,
        "slot": "17",
        "type": "t_bool"
      },
      {
        "astId": 625,
        "contract": "contracts/governor/IPCTDelegate.sol:IPCTDelegate",
        "label": "_initializing",
        "offset": 1,
        "slot": "17",
        "type": "t_bool"
      }
    ],
    "types": {
      "t_address": {
        "encoding": "inplace",
        "label": "address",
        "numberOfBytes": "20"
      },
      "t_array(t_address)dyn_storage": {
        "base": "t_address",
        "encoding": "dynamic_array",
        "label": "address[]",
        "numberOfBytes": "32"
      },
      "t_array(t_bytes_storage)dyn_storage": {
        "base": "t_bytes_storage",
        "encoding": "dynamic_array",
        "label": "bytes[]",
        "numberOfBytes": "32"
      },
      "t_array(t_string_storage)dyn_storage": {
        "base": "t_string_storage",
        "encoding": "dynamic_array",
        "label": "string[]",
        "numberOfBytes": "32"
      },
      "t_array(t_uint256)dyn_storage": {
        "base": "t_uint256",
        "encoding": "dynamic_array",
        "label": "uint256[]",
        "numberOfBytes": "32"
      },
      "t_bool": {
        "encoding": "inplace",
        "label": "bool",
        "numberOfBytes": "1"
      },
      "t_bytes_storage": {
        "encoding": "bytes",
        "label": "bytes",
        "numberOfBytes": "32"
      },
      "t_contract(IHasVotes)2783": {
        "encoding": "inplace",
        "label": "contract IHasVotes",
        "numberOfBytes": "20"
      },
      "t_contract(TimelockInterface)7357": {
        "encoding": "inplace",
        "label": "contract TimelockInterface",
        "numberOfBytes": "20"
      },
      "t_mapping(t_address,t_struct(Receipt)7278_storage)": {
        "encoding": "mapping",
        "key": "t_address",
        "label": "mapping(address => struct IPCTDelegateStorageV1.Receipt)",
        "numberOfBytes": "32",
        "value": "t_struct(Receipt)7278_storage"
      },
      "t_mapping(t_address,t_uint256)": {
        "encoding": "mapping",
        "key": "t_address",
        "label": "mapping(address => uint256)",
        "numberOfBytes": "32",
        "value": "t_uint256"
      },
      "t_mapping(t_uint256,t_array(t_address)dyn_storage)": {
        "encoding": "mapping",
        "key": "t_uint256",
        "label": "mapping(uint256 => address[])",
        "numberOfBytes": "32",
        "value": "t_array(t_address)dyn_storage"
      },
      "t_mapping(t_uint256,t_array(t_bytes_storage)dyn_storage)": {
        "encoding": "mapping",
        "key": "t_uint256",
        "label": "mapping(uint256 => bytes[])",
        "numberOfBytes": "32",
        "value": "t_array(t_bytes_storage)dyn_storage"
      },
      "t_mapping(t_uint256,t_array(t_string_storage)dyn_storage)": {
        "encoding": "mapping",
        "key": "t_uint256",
        "label": "mapping(uint256 => string[])",
        "numberOfBytes": "32",
        "value": "t_array(t_string_storage)dyn_storage"
      },
      "t_mapping(t_uint256,t_array(t_uint256)dyn_storage)": {
        "encoding": "mapping",
        "key": "t_uint256",
        "label": "mapping(uint256 => uint256[])",
        "numberOfBytes": "32",
        "value": "t_array(t_uint256)dyn_storage"
      },
      "t_mapping(t_uint256,t_mapping(t_address,t_struct(Receipt)7278_storage))": {
        "encoding": "mapping",
        "key": "t_uint256",
        "label": "mapping(uint256 => mapping(address => struct IPCTDelegateStorageV1.Receipt))",
        "numberOfBytes": "32",
        "value": "t_mapping(t_address,t_struct(Receipt)7278_storage)"
      },
      "t_mapping(t_uint256,t_struct(Proposal)7271_storage)": {
        "encoding": "mapping",
        "key": "t_uint256",
        "label": "mapping(uint256 => struct IPCTDelegateStorageV1.Proposal)",
        "numberOfBytes": "32",
        "value": "t_struct(Proposal)7271_storage"
      },
      "t_string_storage": {
        "encoding": "bytes",
        "label": "string",
        "numberOfBytes": "32"
      },
      "t_struct(Proposal)7271_storage": {
        "encoding": "inplace",
        "label": "struct IPCTDelegateStorageV1.Proposal",
        "members": [
          {
            "astId": 7252,
            "contract": "contracts/governor/IPCTDelegate.sol:IPCTDelegate",
            "label": "id",
            "offset": 0,
            "slot": "0",
            "type": "t_uint256"
          },
          {
            "astId": 7254,
            "contract": "contracts/governor/IPCTDelegate.sol:IPCTDelegate",
            "label": "proposer",
            "offset": 0,
            "slot": "1",
            "type": "t_address"
          },
          {
            "astId": 7256,
            "contract": "contracts/governor/IPCTDelegate.sol:IPCTDelegate",
            "label": "eta",
            "offset": 0,
            "slot": "2",
            "type": "t_uint256"
          },
          {
            "astId": 7258,
            "contract": "contracts/governor/IPCTDelegate.sol:IPCTDelegate",
            "label": "startBlock",
            "offset": 0,
            "slot": "3",
            "type": "t_uint256"
          },
          {
            "astId": 7260,
            "contract": "contracts/governor/IPCTDelegate.sol:IPCTDelegate",
            "label": "endBlock",
            "offset": 0,
            "slot": "4",
            "type": "t_uint256"
          },
          {
            "astId": 7262,
            "contract": "contracts/governor/IPCTDelegate.sol:IPCTDelegate",
            "label": "forVotes",
            "offset": 0,
            "slot": "5",
            "type": "t_uint256"
          },
          {
            "astId": 7264,
            "contract": "contracts/governor/IPCTDelegate.sol:IPCTDelegate",
            "label": "againstVotes",
            "offset": 0,
            "slot": "6",
            "type": "t_uint256"
          },
          {
            "astId": 7266,
            "contract": "contracts/governor/IPCTDelegate.sol:IPCTDelegate",
            "label": "abstainVotes",
            "offset": 0,
            "slot": "7",
            "type": "t_uint256"
          },
          {
            "astId": 7268,
            "contract": "contracts/governor/IPCTDelegate.sol:IPCTDelegate",
            "label": "canceled",
            "offset": 0,
            "slot": "8",
            "type": "t_bool"
          },
          {
            "astId": 7270,
            "contract": "contracts/governor/IPCTDelegate.sol:IPCTDelegate",
            "label": "executed",
            "offset": 1,
            "slot": "8",
            "type": "t_bool"
          }
        ],
        "numberOfBytes": "288"
      },
      "t_struct(Receipt)7278_storage": {
        "encoding": "inplace",
        "label": "struct IPCTDelegateStorageV1.Receipt",
        "members": [
          {
            "astId": 7273,
            "contract": "contracts/governor/IPCTDelegate.sol:IPCTDelegate",
            "label": "hasVoted",
            "offset": 0,
            "slot": "0",
            "type": "t_bool"
          },
          {
            "astId": 7275,
            "contract": "contracts/governor/IPCTDelegate.sol:IPCTDelegate",
            "label": "support",
            "offset": 1,
            "slot": "0",
            "type": "t_uint8"
          },
          {
            "astId": 7277,
            "contract": "contracts/governor/IPCTDelegate.sol:IPCTDelegate",
            "label": "votes",
            "offset": 2,
            "slot": "0",
            "type": "t_uint96"
          }
        ],
        "numberOfBytes": "32"
      },
      "t_uint256": {
        "encoding": "inplace",
        "label": "uint256",
        "numberOfBytes": "32"
      },
      "t_uint8": {
        "encoding": "inplace",
        "label": "uint8",
        "numberOfBytes": "1"
      },
      "t_uint96": {
        "encoding": "inplace",
        "label": "uint96",
        "numberOfBytes": "12"
      }
    }
  }
}