{
  "address": "0x727F2E29bF657Ce99C317D98b9d76858A8dc1fAa",
  "abi": [
    {
      "inputs": [
        {
          "internalType": "address",
          "name": "timelock_",
          "type": "address"
        },
        {
          "internalType": "address",
          "name": "token_",
          "type": "address"
        },
        {
          "internalType": "address",
          "name": "releaseToken_",
          "type": "address"
        },
        {
          "internalType": "address",
          "name": "admin_",
          "type": "address"
        },
        {
          "internalType": "address",
          "name": "implementation_",
          "type": "address"
        },
        {
          "internalType": "uint256",
          "name": "votingPeriod_",
          "type": "uint256"
        },
        {
          "internalType": "uint256",
          "name": "votingDelay_",
          "type": "uint256"
        },
        {
          "internalType": "uint256",
          "name": "proposalThreshold_",
          "type": "uint256"
        }
      ],
      "stateMutability": "nonpayable",
      "type": "constructor"
    },
    {
      "anonymous": false,
      "inputs": [
        {
          "indexed": false,
          "internalType": "address",
          "name": "oldAdmin",
          "type": "address"
        },
        {
          "indexed": false,
          "internalType": "address",
          "name": "newAdmin",
          "type": "address"
        }
      ],
      "name": "NewAdmin",
      "type": "event"
    },
    {
      "anonymous": false,
      "inputs": [
        {
          "indexed": false,
          "internalType": "address",
          "name": "oldImplementation",
          "type": "address"
        },
        {
          "indexed": false,
          "internalType": "address",
          "name": "newImplementation",
          "type": "address"
        }
      ],
      "name": "NewImplementation",
      "type": "event"
    },
    {
      "anonymous": false,
      "inputs": [
        {
          "indexed": false,
          "internalType": "address",
          "name": "oldPendingAdmin",
          "type": "address"
        },
        {
          "indexed": false,
          "internalType": "address",
          "name": "newPendingAdmin",
          "type": "address"
        }
      ],
      "name": "NewPendingAdmin",
      "type": "event"
    },
    {
      "anonymous": false,
      "inputs": [
        {
          "indexed": false,
          "internalType": "uint256",
          "name": "id",
          "type": "uint256"
        }
      ],
      "name": "ProposalCanceled",
      "type": "event"
    },
    {
      "anonymous": false,
      "inputs": [
        {
          "indexed": false,
          "internalType": "uint256",
          "name": "id",
          "type": "uint256"
        },
        {
          "indexed": false,
          "internalType": "address",
          "name": "proposer",
          "type": "address"
        },
        {
          "indexed": false,
          "internalType": "address[]",
          "name": "targets",
          "type": "address[]"
        },
        {
          "indexed": false,
          "internalType": "uint256[]",
          "name": "values",
          "type": "uint256[]"
        },
        {
          "indexed": false,
          "internalType": "string[]",
          "name": "signatures",
          "type": "string[]"
        },
        {
          "indexed": false,
          "internalType": "bytes[]",
          "name": "calldatas",
          "type": "bytes[]"
        },
        {
          "indexed": false,
          "internalType": "uint256",
          "name": "startBlock",
          "type": "uint256"
        },
        {
          "indexed": false,
          "internalType": "uint256",
          "name": "endBlock",
          "type": "uint256"
        },
        {
          "indexed": false,
          "internalType": "string",
          "name": "description",
          "type": "string"
        }
      ],
      "name": "ProposalCreated",
      "type": "event"
    },
    {
      "anonymous": false,
      "inputs": [
        {
          "indexed": false,
          "internalType": "uint256",
          "name": "id",
          "type": "uint256"
        }
      ],
      "name": "ProposalExecuted",
      "type": "event"
    },
    {
      "anonymous": false,
      "inputs": [
        {
          "indexed": false,
          "internalType": "uint256",
          "name": "id",
          "type": "uint256"
        },
        {
          "indexed": false,
          "internalType": "uint256",
          "name": "eta",
          "type": "uint256"
        }
      ],
      "name": "ProposalQueued",
      "type": "event"
    },
    {
      "anonymous": false,
      "inputs": [
        {
          "indexed": false,
          "internalType": "uint256",
          "name": "oldProposalThreshold",
          "type": "uint256"
        },
        {
          "indexed": false,
          "internalType": "uint256",
          "name": "newProposalThreshold",
          "type": "uint256"
        }
      ],
      "name": "ProposalThresholdSet",
      "type": "event"
    },
    {
      "anonymous": false,
      "inputs": [
        {
          "indexed": true,
          "internalType": "address",
          "name": "voter",
          "type": "address"
        },
        {
          "indexed": false,
          "internalType": "uint256",
          "name": "proposalId",
          "type": "uint256"
        },
        {
          "indexed": false,
          "internalType": "uint8",
          "name": "support",
          "type": "uint8"
        },
        {
          "indexed": false,
          "internalType": "uint256",
          "name": "votes",
          "type": "uint256"
        },
        {
          "indexed": false,
          "internalType": "string",
          "name": "reason",
          "type": "string"
        }
      ],
      "name": "VoteCast",
      "type": "event"
    },
    {
      "anonymous": false,
      "inputs": [
        {
          "indexed": false,
          "internalType": "uint256",
          "name": "oldVotingDelay",
          "type": "uint256"
        },
        {
          "indexed": false,
          "internalType": "uint256",
          "name": "newVotingDelay",
          "type": "uint256"
        }
      ],
      "name": "VotingDelaySet",
      "type": "event"
    },
    {
      "anonymous": false,
      "inputs": [
        {
          "indexed": false,
          "internalType": "uint256",
          "name": "oldVotingPeriod",
          "type": "uint256"
        },
        {
          "indexed": false,
          "internalType": "uint256",
          "name": "newVotingPeriod",
          "type": "uint256"
        }
      ],
      "name": "VotingPeriodSet",
      "type": "event"
    },
    {
      "stateMutability": "nonpayable",
      "type": "fallback"
    },
    {
      "inputs": [
        {
          "internalType": "address",
          "name": "implementation_",
          "type": "address"
        }
      ],
      "name": "_setImplementation",
      "outputs": [],
      "stateMutability": "nonpayable",
      "type": "function"
    },
    {
      "inputs": [],
      "name": "admin",
      "outputs": [
        {
          "internalType": "address",
          "name": "",
          "type": "address"
        }
      ],
      "stateMutability": "view",
      "type": "function"
    },
    {
      "inputs": [],
      "name": "implementation",
      "outputs": [
        {
          "internalType": "address",
          "name": "",
          "type": "address"
        }
      ],
      "stateMutability": "view",
      "type": "function"
    },
    {
      "inputs": [],
      "name": "pendingAdmin",
      "outputs": [
        {
          "internalType": "address",
          "name": "",
          "type": "address"
        }
      ],
      "stateMutability": "view",
      "type": "function"
    }
  ],
  "transactionHash": "0xdde8951bdc132e214cdb332281f80ba594190e2a8b9af35a11e052c595ce99ea",
  "args": [
    "0x1f3c7b63CCE589e525115Bf1A28B4896b57C8791",
    "0x01155A9A63a9C031151cE7B0935f1345784C948e",
    "0x01155A9A63a9C031151cE7B0935f1345784C948e",
    "0xC0b05BFA7e6D2f61C029D2828250287295cd8841",
    "0x3A011dC59d21Dcb06e00904c904C207d5441d3E5",
    17280,
    34560,
    "1000000000000000000000000"
  ],
  "solcInputHash": "8c7f64154b5285b30cc96cb58aff2ea5",
  "bytecode": "0x60806040523480156200001157600080fd5b5060405162000e8438038062000e84833981810160405281019062000037919062000404565b336000806101000a81548173ffffffffffffffffffffffffffffffffffffffff021916908373ffffffffffffffffffffffffffffffffffffffff16021790555062000122848989898787876040516024016200009996959493929190620005ba565b6040516020818303038152906040527f728cdbca000000000000000000000000000000000000000000000000000000007bffffffffffffffffffffffffffffffffffffffffffffffffffffffff19166020820180517bffffffffffffffffffffffffffffffffffffffffffffffffffffffff83818316178352505050506200018160201b60201c565b62000133846200020960201b60201c565b846000806101000a81548173ffffffffffffffffffffffffffffffffffffffff021916908373ffffffffffffffffffffffffffffffffffffffff160217905550505050505050505062000803565b6000808373ffffffffffffffffffffffffffffffffffffffff1683604051620001ab919062000574565b600060405180830381855af49150503d8060008114620001e8576040519150601f19603f3d011682016040523d82523d6000602084013e620001ed565b606091505b5091509150600082141562000203573d60208201fd5b50505050565b60008054906101000a900473ffffffffffffffffffffffffffffffffffffffff1673ffffffffffffffffffffffffffffffffffffffff163373ffffffffffffffffffffffffffffffffffffffff16146200029a576040517f08c379a0000000000000000000000000000000000000000000000000000000008152600401620002919062000649565b60405180910390fd5b600073ffffffffffffffffffffffffffffffffffffffff168173ffffffffffffffffffffffffffffffffffffffff1614156200030d576040517f08c379a0000000000000000000000000000000000000000000000000000000008152600401620003049062000627565b60405180910390fd5b6000600260009054906101000a900473ffffffffffffffffffffffffffffffffffffffff16905081600260006101000a81548173ffffffffffffffffffffffffffffffffffffffff021916908373ffffffffffffffffffffffffffffffffffffffff1602179055507fd604de94d45953f9138079ec1b82d533cb2160c906d1076d1f7ed54befbca97a81600260009054906101000a900473ffffffffffffffffffffffffffffffffffffffff16604051620003ca9291906200058d565b60405180910390a15050565b600081519050620003e781620007cf565b92915050565b600081519050620003fe81620007e9565b92915050565b600080600080600080600080610100898b03121562000428576200042762000706565b5b6000620004388b828c01620003d6565b98505060206200044b8b828c01620003d6565b97505060406200045e8b828c01620003d6565b9650506060620004718b828c01620003d6565b9550506080620004848b828c01620003d6565b94505060a0620004978b828c01620003ed565b93505060c0620004aa8b828c01620003ed565b92505060e0620004bd8b828c01620003ed565b9150509295985092959890939650565b620004d88162000692565b82525050565b6000620004eb826200066b565b620004f7818562000676565b935062000509818560208601620006d0565b80840191505092915050565b60006200052460418362000681565b915062000531826200070b565b606082019050919050565b60006200054b602d8362000681565b9150620005588262000780565b604082019050919050565b6200056e81620006c6565b82525050565b6000620005828284620004de565b915081905092915050565b6000604082019050620005a46000830185620004cd565b620005b36020830184620004cd565b9392505050565b600060c082019050620005d16000830189620004cd565b620005e06020830188620004cd565b620005ef6040830187620004cd565b620005fe606083018662000563565b6200060d608083018562000563565b6200061c60a083018462000563565b979650505050505050565b60006020820190508181036000830152620006428162000515565b9050919050565b6000602082019050818103600083015262000664816200053c565b9050919050565b600081519050919050565b600081905092915050565b600082825260208201905092915050565b60006200069f82620006a6565b9050919050565b600073ffffffffffffffffffffffffffffffffffffffff82169050919050565b6000819050919050565b60005b83811015620006f0578082015181840152602081019050620006d3565b8381111562000700576000848401525b50505050565b600080fd5b7f4950435444656c656761746f723a3a5f736574496d706c656d656e746174696f60008201527f6e3a20696e76616c696420696d706c656d656e746174696f6e2061646472657360208201527f7300000000000000000000000000000000000000000000000000000000000000604082015250565b7f4950435444656c656761746f723a3a5f736574496d706c656d656e746174696f60008201527f6e3a2061646d696e206f6e6c7900000000000000000000000000000000000000602082015250565b620007da8162000692565b8114620007e657600080fd5b50565b620007f481620006c6565b81146200080057600080fd5b50565b61067180620008136000396000f3fe608060405234801561001057600080fd5b50600436106100505760003560e01c806326782247146100fa5780635c60da1b14610118578063bb913f4114610136578063f851a4401461015257610051565b5b6000600260009054906101000a900473ffffffffffffffffffffffffffffffffffffffff1673ffffffffffffffffffffffffffffffffffffffff1660003660405161009d929190610461565b600060405180830381855af49150503d80600081146100d8576040519150601f19603f3d011682016040523d82523d6000602084013e6100dd565b606091505b505090506040513d6000823e81600081146100f6573d82f35b3d82fd5b610102610170565b60405161010f919061047a565b60405180910390f35b610120610196565b60405161012d919061047a565b60405180910390f35b610150600480360381019061014b91906103ba565b6101bc565b005b61015a610381565b604051610167919061047a565b60405180910390f35b600160009054906101000a900473ffffffffffffffffffffffffffffffffffffffff1681565b600260009054906101000a900473ffffffffffffffffffffffffffffffffffffffff1681565b60008054906101000a900473ffffffffffffffffffffffffffffffffffffffff1673ffffffffffffffffffffffffffffffffffffffff163373ffffffffffffffffffffffffffffffffffffffff161461024a576040517f08c379a0000000000000000000000000000000000000000000000000000000008152600401610241906104de565b60405180910390fd5b600073ffffffffffffffffffffffffffffffffffffffff168173ffffffffffffffffffffffffffffffffffffffff1614156102ba576040517f08c379a00000000000000000000000000000000000000000000000000000000081526004016102b1906104be565b60405180910390fd5b6000600260009054906101000a900473ffffffffffffffffffffffffffffffffffffffff16905081600260006101000a81548173ffffffffffffffffffffffffffffffffffffffff021916908373ffffffffffffffffffffffffffffffffffffffff1602179055507fd604de94d45953f9138079ec1b82d533cb2160c906d1076d1f7ed54befbca97a81600260009054906101000a900473ffffffffffffffffffffffffffffffffffffffff16604051610375929190610495565b60405180910390a15050565b60008054906101000a900473ffffffffffffffffffffffffffffffffffffffff1681565b6000813590506103b481610624565b92915050565b6000602082840312156103d0576103cf61055b565b5b60006103de848285016103a5565b91505092915050565b6103f08161051a565b82525050565b600061040283856104fe565b935061040f83858461054c565b82840190509392505050565b6000610428604183610509565b915061043382610560565b606082019050919050565b600061044b602d83610509565b9150610456826105d5565b604082019050919050565b600061046e8284866103f6565b91508190509392505050565b600060208201905061048f60008301846103e7565b92915050565b60006040820190506104aa60008301856103e7565b6104b760208301846103e7565b9392505050565b600060208201905081810360008301526104d78161041b565b9050919050565b600060208201905081810360008301526104f78161043e565b9050919050565b600081905092915050565b600082825260208201905092915050565b60006105258261052c565b9050919050565b600073ffffffffffffffffffffffffffffffffffffffff82169050919050565b82818337600083830152505050565b600080fd5b7f4950435444656c656761746f723a3a5f736574496d706c656d656e746174696f60008201527f6e3a20696e76616c696420696d706c656d656e746174696f6e2061646472657360208201527f7300000000000000000000000000000000000000000000000000000000000000604082015250565b7f4950435444656c656761746f723a3a5f736574496d706c656d656e746174696f60008201527f6e3a2061646d696e206f6e6c7900000000000000000000000000000000000000602082015250565b61062d8161051a565b811461063857600080fd5b5056fea2646970667358221220350b726266fb57ff5ec2ad86b2690ec5bcf59a63a54cab76c08ec886c876510564736f6c63430008050033",
  "devdoc": {
    "kind": "dev",
    "methods": {
      "_setImplementation(address)": {
        "params": {
          "implementation_": "The address of the new implementation for delegation"
        }
      }
    },
    "version": 1
  },
  "userdoc": {
    "events": {
      "NewAdmin(address,address)": {
        "notice": "Emitted when pendingAdmin is accepted, which means admin is updated"
      },
      "NewImplementation(address,address)": {
        "notice": "Emitted when implementation is changed"
      },
      "NewPendingAdmin(address,address)": {
        "notice": "Emitted when pendingAdmin is changed"
      },
      "ProposalCanceled(uint256)": {
        "notice": "An event emitted when a proposal has been canceled"
      },
      "ProposalCreated(uint256,address,address[],uint256[],string[],bytes[],uint256,uint256,string)": {
        "notice": "An event emitted when a new proposal is created"
      },
      "ProposalExecuted(uint256)": {
        "notice": "An event emitted when a proposal has been executed in the Timelock"
      },
      "ProposalQueued(uint256,uint256)": {
        "notice": "An event emitted when a proposal has been queued in the Timelock"
      },
      "ProposalThresholdSet(uint256,uint256)": {
        "notice": "Emitted when proposal threshold is set"
      },
      "VoteCast(address,uint256,uint8,uint256,string)": {
        "notice": "An event emitted when a vote has been cast on a proposal"
      },
      "VotingDelaySet(uint256,uint256)": {
        "notice": "An event emitted when the voting delay is set"
      },
      "VotingPeriodSet(uint256,uint256)": {
        "notice": "An event emitted when the voting period is set"
      }
    },
    "kind": "user",
    "methods": {
      "_setImplementation(address)": {
        "notice": "Called by the admin to update the implementation of the delegator"
      },
      "admin()": {
        "notice": "Administrator for this contract"
      },
      "implementation()": {
        "notice": "Active brains of Governor"
      },
      "pendingAdmin()": {
        "notice": "Pending administrator for this contract"
      }
    },
    "version": 1
  },
  "storageLayout": {
    "storage": [
      {
        "astId": 7549,
        "contract": "contracts/governor/IPCTDelegator.sol:IPCTDelegator",
        "label": "admin",
        "offset": 0,
        "slot": "0",
        "type": "t_address"
      },
      {
        "astId": 7552,
        "contract": "contracts/governor/IPCTDelegator.sol:IPCTDelegator",
        "label": "pendingAdmin",
        "offset": 0,
        "slot": "1",
        "type": "t_address"
      },
      {
        "astId": 7555,
        "contract": "contracts/governor/IPCTDelegator.sol:IPCTDelegator",
        "label": "implementation",
        "offset": 0,
        "slot": "2",
        "type": "t_address"
      }
    ],
    "types": {
      "t_address": {
        "encoding": "inplace",
        "label": "address",
        "numberOfBytes": "20"
      }
    }
  }
}