{
  "address": "0xf15E484c041698457D117C31f06146A7DC9758De",
  "abi": [
    {
      "anonymous": false,
      "inputs": [
        {
          "indexed": false,
          "internalType": "address",
          "name": "oldAdmin",
          "type": "address"
        },
        {
          "indexed": false,
          "internalType": "address",
          "name": "newAdmin",
          "type": "address"
        }
      ],
      "name": "NewAdmin",
      "type": "event"
    },
    {
      "anonymous": false,
      "inputs": [
        {
          "indexed": false,
          "internalType": "address",
          "name": "oldImplementation",
          "type": "address"
        },
        {
          "indexed": false,
          "internalType": "address",
          "name": "newImplementation",
          "type": "address"
        }
      ],
      "name": "NewImplementation",
      "type": "event"
    },
    {
      "anonymous": false,
      "inputs": [
        {
          "indexed": false,
          "internalType": "address",
          "name": "oldPendingAdmin",
          "type": "address"
        },
        {
          "indexed": false,
          "internalType": "address",
          "name": "newPendingAdmin",
          "type": "address"
        }
      ],
      "name": "NewPendingAdmin",
      "type": "event"
    },
    {
      "anonymous": false,
      "inputs": [
        {
          "indexed": false,
          "internalType": "uint256",
          "name": "id",
          "type": "uint256"
        }
      ],
      "name": "ProposalCanceled",
      "type": "event"
    },
    {
      "anonymous": false,
      "inputs": [
        {
          "indexed": false,
          "internalType": "uint256",
          "name": "id",
          "type": "uint256"
        },
        {
          "indexed": false,
          "internalType": "address",
          "name": "proposer",
          "type": "address"
        },
        {
          "indexed": false,
          "internalType": "address[]",
          "name": "targets",
          "type": "address[]"
        },
        {
          "indexed": false,
          "internalType": "uint256[]",
          "name": "values",
          "type": "uint256[]"
        },
        {
          "indexed": false,
          "internalType": "string[]",
          "name": "signatures",
          "type": "string[]"
        },
        {
          "indexed": false,
          "internalType": "bytes[]",
          "name": "calldatas",
          "type": "bytes[]"
        },
        {
          "indexed": false,
          "internalType": "uint256",
          "name": "startBlock",
          "type": "uint256"
        },
        {
          "indexed": false,
          "internalType": "uint256",
          "name": "endBlock",
          "type": "uint256"
        },
        {
          "indexed": false,
          "internalType": "string",
          "name": "description",
          "type": "string"
        }
      ],
      "name": "ProposalCreated",
      "type": "event"
    },
    {
      "anonymous": false,
      "inputs": [
        {
          "indexed": false,
          "internalType": "uint256",
          "name": "id",
          "type": "uint256"
        }
      ],
      "name": "ProposalExecuted",
      "type": "event"
    },
    {
      "anonymous": false,
      "inputs": [
        {
          "indexed": false,
          "internalType": "uint256",
          "name": "id",
          "type": "uint256"
        },
        {
          "indexed": false,
          "internalType": "uint256",
          "name": "eta",
          "type": "uint256"
        }
      ],
      "name": "ProposalQueued",
      "type": "event"
    },
    {
      "anonymous": false,
      "inputs": [
        {
          "indexed": false,
          "internalType": "uint256",
          "name": "oldProposalThreshold",
          "type": "uint256"
        },
        {
          "indexed": false,
          "internalType": "uint256",
          "name": "newProposalThreshold",
          "type": "uint256"
        }
      ],
      "name": "ProposalThresholdSet",
      "type": "event"
    },
    {
      "anonymous": false,
      "inputs": [
        {
          "indexed": false,
          "internalType": "uint256",
          "name": "oldQuorumVotes",
          "type": "uint256"
        },
        {
          "indexed": false,
          "internalType": "uint256",
          "name": "newQuorumVotes",
          "type": "uint256"
        }
      ],
      "name": "QuorumVotesSet",
      "type": "event"
    },
    {
      "anonymous": false,
      "inputs": [
        {
          "indexed": true,
          "internalType": "address",
          "name": "voter",
          "type": "address"
        },
        {
          "indexed": false,
          "internalType": "uint256",
          "name": "proposalId",
          "type": "uint256"
        },
        {
          "indexed": false,
          "internalType": "uint8",
          "name": "support",
          "type": "uint8"
        },
        {
          "indexed": false,
          "internalType": "uint256",
          "name": "votes",
          "type": "uint256"
        },
        {
          "indexed": false,
          "internalType": "string",
          "name": "reason",
          "type": "string"
        }
      ],
      "name": "VoteCast",
      "type": "event"
    },
    {
      "anonymous": false,
      "inputs": [
        {
          "indexed": false,
          "internalType": "uint256",
          "name": "oldVotingDelay",
          "type": "uint256"
        },
        {
          "indexed": false,
          "internalType": "uint256",
          "name": "newVotingDelay",
          "type": "uint256"
        }
      ],
      "name": "VotingDelaySet",
      "type": "event"
    },
    {
      "anonymous": false,
      "inputs": [
        {
          "indexed": false,
          "internalType": "uint256",
          "name": "oldVotingPeriod",
          "type": "uint256"
        },
        {
          "indexed": false,
          "internalType": "uint256",
          "name": "newVotingPeriod",
          "type": "uint256"
        }
      ],
      "name": "VotingPeriodSet",
      "type": "event"
    },
    {
      "inputs": [],
      "name": "BALLOT_TYPEHASH",
      "outputs": [
        {
          "internalType": "bytes32",
          "name": "",
          "type": "bytes32"
        }
      ],
      "stateMutability": "view",
      "type": "function"
    },
    {
      "inputs": [],
      "name": "DOMAIN_TYPEHASH",
      "outputs": [
        {
          "internalType": "bytes32",
          "name": "",
          "type": "bytes32"
        }
      ],
      "stateMutability": "view",
      "type": "function"
    },
    {
      "inputs": [],
      "name": "MAX_PROPOSAL_THRESHOLD",
      "outputs": [
        {
          "internalType": "uint256",
          "name": "",
          "type": "uint256"
        }
      ],
      "stateMutability": "view",
      "type": "function"
    },
    {
      "inputs": [],
      "name": "MAX_VOTING_DELAY",
      "outputs": [
        {
          "internalType": "uint256",
          "name": "",
          "type": "uint256"
        }
      ],
      "stateMutability": "view",
      "type": "function"
    },
    {
      "inputs": [],
      "name": "MAX_VOTING_PERIOD",
      "outputs": [
        {
          "internalType": "uint256",
          "name": "",
          "type": "uint256"
        }
      ],
      "stateMutability": "view",
      "type": "function"
    },
    {
      "inputs": [],
      "name": "MIN_PROPOSAL_THRESHOLD",
      "outputs": [
        {
          "internalType": "uint256",
          "name": "",
          "type": "uint256"
        }
      ],
      "stateMutability": "view",
      "type": "function"
    },
    {
      "inputs": [],
      "name": "MIN_VOTING_DELAY",
      "outputs": [
        {
          "internalType": "uint256",
          "name": "",
          "type": "uint256"
        }
      ],
      "stateMutability": "view",
      "type": "function"
    },
    {
      "inputs": [],
      "name": "MIN_VOTING_PERIOD",
      "outputs": [
        {
          "internalType": "uint256",
          "name": "",
          "type": "uint256"
        }
      ],
      "stateMutability": "view",
      "type": "function"
    },
    {
      "inputs": [],
      "name": "NAME",
      "outputs": [
        {
          "internalType": "string",
          "name": "",
          "type": "string"
        }
      ],
      "stateMutability": "view",
      "type": "function"
    },
    {
      "inputs": [],
      "name": "PROPOSAL_MAX_OPERATIONS",
      "outputs": [
        {
          "internalType": "uint256",
          "name": "",
          "type": "uint256"
        }
      ],
      "stateMutability": "view",
      "type": "function"
    },
    {
      "inputs": [],
      "name": "_acceptAdmin",
      "outputs": [],
      "stateMutability": "nonpayable",
      "type": "function"
    },
    {
      "inputs": [
        {
          "internalType": "address",
          "name": "newPendingAdmin",
          "type": "address"
        }
      ],
      "name": "_setPendingAdmin",
      "outputs": [],
      "stateMutability": "nonpayable",
      "type": "function"
    },
    {
      "inputs": [
        {
          "internalType": "uint256",
          "name": "newProposalThreshold",
          "type": "uint256"
        }
      ],
      "name": "_setProposalThreshold",
      "outputs": [],
      "stateMutability": "nonpayable",
      "type": "function"
    },
    {
      "inputs": [
        {
          "internalType": "uint256",
          "name": "newQuorumVotes",
          "type": "uint256"
        }
      ],
      "name": "_setQuorumVotes",
      "outputs": [],
      "stateMutability": "nonpayable",
      "type": "function"
    },
    {
      "inputs": [
        {
          "internalType": "uint256",
          "name": "newVotingDelay",
          "type": "uint256"
        }
      ],
      "name": "_setVotingDelay",
      "outputs": [],
      "stateMutability": "nonpayable",
      "type": "function"
    },
    {
      "inputs": [
        {
          "internalType": "uint256",
          "name": "newVotingPeriod",
          "type": "uint256"
        }
      ],
      "name": "_setVotingPeriod",
      "outputs": [],
      "stateMutability": "nonpayable",
      "type": "function"
    },
    {
      "inputs": [],
      "name": "admin",
      "outputs": [
        {
          "internalType": "address",
          "name": "",
          "type": "address"
        }
      ],
      "stateMutability": "view",
      "type": "function"
    },
    {
      "inputs": [
        {
          "internalType": "uint256",
          "name": "proposalId",
          "type": "uint256"
        }
      ],
      "name": "cancel",
      "outputs": [],
      "stateMutability": "nonpayable",
      "type": "function"
    },
    {
      "inputs": [
        {
          "internalType": "uint256",
          "name": "proposalId",
          "type": "uint256"
        },
        {
          "internalType": "uint8",
          "name": "support",
          "type": "uint8"
        }
      ],
      "name": "castVote",
      "outputs": [],
      "stateMutability": "nonpayable",
      "type": "function"
    },
    {
      "inputs": [
        {
          "internalType": "uint256",
          "name": "proposalId",
          "type": "uint256"
        },
        {
          "internalType": "uint8",
          "name": "support",
          "type": "uint8"
        },
        {
          "internalType": "uint8",
          "name": "v",
          "type": "uint8"
        },
        {
          "internalType": "bytes32",
          "name": "r",
          "type": "bytes32"
        },
        {
          "internalType": "bytes32",
          "name": "s",
          "type": "bytes32"
        }
      ],
      "name": "castVoteBySig",
      "outputs": [],
      "stateMutability": "nonpayable",
      "type": "function"
    },
    {
      "inputs": [
        {
          "internalType": "uint256",
          "name": "proposalId",
          "type": "uint256"
        },
        {
          "internalType": "uint8",
          "name": "support",
          "type": "uint8"
        },
        {
          "internalType": "string",
          "name": "reason",
          "type": "string"
        }
      ],
      "name": "castVoteWithReason",
      "outputs": [],
      "stateMutability": "nonpayable",
      "type": "function"
    },
    {
      "inputs": [
        {
          "internalType": "uint256",
          "name": "proposalId",
          "type": "uint256"
        }
      ],
      "name": "execute",
      "outputs": [],
      "stateMutability": "payable",
      "type": "function"
    },
    {
      "inputs": [
        {
          "internalType": "uint256",
          "name": "proposalId",
          "type": "uint256"
        }
      ],
      "name": "getActions",
      "outputs": [
        {
          "internalType": "address[]",
          "name": "targets",
          "type": "address[]"
        },
        {
          "internalType": "uint256[]",
          "name": "values",
          "type": "uint256[]"
        },
        {
          "internalType": "string[]",
          "name": "signatures",
          "type": "string[]"
        },
        {
          "internalType": "bytes[]",
          "name": "calldatas",
          "type": "bytes[]"
        }
      ],
      "stateMutability": "view",
      "type": "function"
    },
    {
      "inputs": [
        {
          "internalType": "uint256",
          "name": "proposalId",
          "type": "uint256"
        },
        {
          "internalType": "address",
          "name": "voter",
          "type": "address"
        }
      ],
      "name": "getReceipt",
      "outputs": [
        {
          "components": [
            {
              "internalType": "bool",
              "name": "hasVoted",
              "type": "bool"
            },
            {
              "internalType": "uint8",
              "name": "support",
              "type": "uint8"
            },
            {
              "internalType": "uint96",
              "name": "votes",
              "type": "uint96"
            }
          ],
          "internalType": "struct IPCTDelegateStorageV1.Receipt",
          "name": "",
          "type": "tuple"
        }
      ],
      "stateMutability": "view",
      "type": "function"
    },
    {
      "inputs": [],
      "name": "implementation",
      "outputs": [
        {
          "internalType": "address",
          "name": "",
          "type": "address"
        }
      ],
      "stateMutability": "view",
      "type": "function"
    },
    {
      "inputs": [
        {
          "internalType": "address",
          "name": "timelock_",
          "type": "address"
        },
        {
          "internalType": "address",
          "name": "token_",
          "type": "address"
        },
        {
          "internalType": "address",
          "name": "releaseToken_",
          "type": "address"
        },
        {
          "internalType": "uint256",
          "name": "votingPeriod_",
          "type": "uint256"
        },
        {
          "internalType": "uint256",
          "name": "votingDelay_",
          "type": "uint256"
        },
        {
          "internalType": "uint256",
          "name": "proposalThreshold_",
          "type": "uint256"
        },
        {
          "internalType": "uint256",
          "name": "quorumVotes_",
          "type": "uint256"
        }
      ],
      "name": "initialize",
      "outputs": [],
      "stateMutability": "nonpayable",
      "type": "function"
    },
    {
      "inputs": [
        {
          "internalType": "address",
          "name": "",
          "type": "address"
        }
      ],
      "name": "latestProposalIds",
      "outputs": [
        {
          "internalType": "uint256",
          "name": "",
          "type": "uint256"
        }
      ],
      "stateMutability": "view",
      "type": "function"
    },
    {
      "inputs": [],
      "name": "pendingAdmin",
      "outputs": [
        {
          "internalType": "address",
          "name": "",
          "type": "address"
        }
      ],
      "stateMutability": "view",
      "type": "function"
    },
    {
      "inputs": [
        {
          "internalType": "uint256",
          "name": "",
          "type": "uint256"
        },
        {
          "internalType": "uint256",
          "name": "",
          "type": "uint256"
        }
      ],
      "name": "proposalCalldatas",
      "outputs": [
        {
          "internalType": "bytes",
          "name": "",
          "type": "bytes"
        }
      ],
      "stateMutability": "view",
      "type": "function"
    },
    {
      "inputs": [],
      "name": "proposalCount",
      "outputs": [
        {
          "internalType": "uint256",
          "name": "",
          "type": "uint256"
        }
      ],
      "stateMutability": "view",
      "type": "function"
    },
    {
      "inputs": [
        {
          "internalType": "uint256",
          "name": "",
          "type": "uint256"
        },
        {
          "internalType": "address",
          "name": "",
          "type": "address"
        }
      ],
      "name": "proposalReceipts",
      "outputs": [
        {
          "internalType": "bool",
          "name": "hasVoted",
          "type": "bool"
        },
        {
          "internalType": "uint8",
          "name": "support",
          "type": "uint8"
        },
        {
          "internalType": "uint96",
          "name": "votes",
          "type": "uint96"
        }
      ],
      "stateMutability": "view",
      "type": "function"
    },
    {
      "inputs": [
        {
          "internalType": "uint256",
          "name": "",
          "type": "uint256"
        },
        {
          "internalType": "uint256",
          "name": "",
          "type": "uint256"
        }
      ],
      "name": "proposalSignatures",
      "outputs": [
        {
          "internalType": "string",
          "name": "",
          "type": "string"
        }
      ],
      "stateMutability": "view",
      "type": "function"
    },
    {
      "inputs": [
        {
          "internalType": "uint256",
          "name": "",
          "type": "uint256"
        },
        {
          "internalType": "uint256",
          "name": "",
          "type": "uint256"
        }
      ],
      "name": "proposalTargets",
      "outputs": [
        {
          "internalType": "address",
          "name": "",
          "type": "address"
        }
      ],
      "stateMutability": "view",
      "type": "function"
    },
    {
      "inputs": [],
      "name": "proposalThreshold",
      "outputs": [
        {
          "internalType": "uint256",
          "name": "",
          "type": "uint256"
        }
      ],
      "stateMutability": "view",
      "type": "function"
    },
    {
      "inputs": [
        {
          "internalType": "uint256",
          "name": "",
          "type": "uint256"
        },
        {
          "internalType": "uint256",
          "name": "",
          "type": "uint256"
        }
      ],
      "name": "proposalValues",
      "outputs": [
        {
          "internalType": "uint256",
          "name": "",
          "type": "uint256"
        }
      ],
      "stateMutability": "view",
      "type": "function"
    },
    {
      "inputs": [
        {
          "internalType": "uint256",
          "name": "",
          "type": "uint256"
        }
      ],
      "name": "proposals",
      "outputs": [
        {
          "internalType": "uint256",
          "name": "id",
          "type": "uint256"
        },
        {
          "internalType": "address",
          "name": "proposer",
          "type": "address"
        },
        {
          "internalType": "uint256",
          "name": "eta",
          "type": "uint256"
        },
        {
          "internalType": "uint256",
          "name": "startBlock",
          "type": "uint256"
        },
        {
          "internalType": "uint256",
          "name": "endBlock",
          "type": "uint256"
        },
        {
          "internalType": "uint256",
          "name": "forVotes",
          "type": "uint256"
        },
        {
          "internalType": "uint256",
          "name": "againstVotes",
          "type": "uint256"
        },
        {
          "internalType": "uint256",
          "name": "abstainVotes",
          "type": "uint256"
        },
        {
          "internalType": "bool",
          "name": "canceled",
          "type": "bool"
        },
        {
          "internalType": "bool",
          "name": "executed",
          "type": "bool"
        }
      ],
      "stateMutability": "view",
      "type": "function"
    },
    {
      "inputs": [
        {
          "internalType": "address[]",
          "name": "targets",
          "type": "address[]"
        },
        {
          "internalType": "uint256[]",
          "name": "values",
          "type": "uint256[]"
        },
        {
          "internalType": "string[]",
          "name": "signatures",
          "type": "string[]"
        },
        {
          "internalType": "bytes[]",
          "name": "calldatas",
          "type": "bytes[]"
        },
        {
          "internalType": "string",
          "name": "description",
          "type": "string"
        }
      ],
      "name": "propose",
      "outputs": [
        {
          "internalType": "uint256",
          "name": "",
          "type": "uint256"
        }
      ],
      "stateMutability": "nonpayable",
      "type": "function"
    },
    {
      "inputs": [
        {
          "internalType": "uint256",
          "name": "proposalId",
          "type": "uint256"
        }
      ],
      "name": "queue",
      "outputs": [],
      "stateMutability": "nonpayable",
      "type": "function"
    },
    {
      "inputs": [],
      "name": "quorumVotes",
      "outputs": [
        {
          "internalType": "uint256",
          "name": "",
          "type": "uint256"
        }
      ],
      "stateMutability": "view",
      "type": "function"
    },
    {
      "inputs": [],
      "name": "releaseToken",
      "outputs": [
        {
          "internalType": "contract IHasVotes",
          "name": "",
          "type": "address"
        }
      ],
      "stateMutability": "view",
      "type": "function"
    },
    {
      "inputs": [
        {
          "internalType": "uint256",
          "name": "proposalId",
          "type": "uint256"
        }
      ],
      "name": "state",
      "outputs": [
        {
          "internalType": "enum IPCTDelegateStorageV1.ProposalState",
          "name": "",
          "type": "uint8"
        }
      ],
      "stateMutability": "view",
      "type": "function"
    },
    {
      "inputs": [],
      "name": "timelock",
      "outputs": [
        {
          "internalType": "contract TimelockInterface",
          "name": "",
          "type": "address"
        }
      ],
      "stateMutability": "view",
      "type": "function"
    },
    {
      "inputs": [],
      "name": "token",
      "outputs": [
        {
          "internalType": "contract IHasVotes",
          "name": "",
          "type": "address"
        }
      ],
      "stateMutability": "view",
      "type": "function"
    },
    {
      "inputs": [],
      "name": "votingDelay",
      "outputs": [
        {
          "internalType": "uint256",
          "name": "",
          "type": "uint256"
        }
      ],
      "stateMutability": "view",
      "type": "function"
    },
    {
      "inputs": [],
      "name": "votingPeriod",
      "outputs": [
        {
          "internalType": "uint256",
          "name": "",
          "type": "uint256"
        }
      ],
      "stateMutability": "view",
      "type": "function"
    }
  ],
  "transactionHash": "0x1e3b5e33ccbfa8fb18f46b9ed7f9773bb0099359e2088a2fbe1343a845cba973",
  "args": [],
  "solcInputHash": "6bf46383f11fabdc202ffe24b62c453f",
  "bytecode": "0x608060405234801561001057600080fd5b5061767480620000216000396000f3fe6080604052600436106102725760003560e01c8063791f5d231161014f578063d33219b4116100c1578063e48083fe1161007a578063e48083fe146109c2578063e9c714f2146109ed578063ec715a3114610a04578063f851a44014610a2f578063fc0c546a14610a5a578063fe0d94c114610a8557610272565b8063d33219b41461089e578063da35c664146108c9578063da95691a146108f4578063ddf0b00914610931578063deaaa7cc1461095a578063e23a9a521461098557610272565b8063a4a53a1311610113578063a4a53a131461077a578063a64e024a146107b7578063ac674664146107e2578063b11262631461081f578063b58131b01461084a578063b71d1a0c1461087557610272565b8063791f5d23146106955780637b3c71d3146106c057806386d37e8b146106e9578063878b608d14610712578063a3f4df7e1461074f57610272565b80632b4656c8116101e85780633e4f49e6116101ac5780633e4f49e61461055f57806340e58ee51461059c5780634e42b06d146105c557806356781388146106025780635c60da1b1461062b578063661767431461065657610272565b80632b4656c814610477578063328dd982146104a057806336e7048a146104e05780633932abb11461050b5780633bccf4fd1461053657610272565b80631dfb1b5a1161023a5780631dfb1b5a1461037757806320606b70146103a0578063215809ca146103cb57806324bc1a64146103f657806325fd935a14610421578063267822471461044c57610272565b8063013cf08b1461027757806302a251a3146102bd5780630ea2d98c146102e857806317977c611461031157806317ba1b8b1461034e575b600080fd5b34801561028357600080fd5b5061029e60048036038101906102999190614bc1565b610aa1565b6040516102b49a9998979695949392919061634c565b60405180910390f35b3480156102c957600080fd5b506102d2610b2f565b6040516102df91906161d3565b60405180910390f35b3480156102f457600080fd5b5061030f600480360381019061030a9190614bc1565b610b35565b005b34801561031d57600080fd5b506103386004803603810190610333919061491b565b610c64565b60405161034591906161d3565b60405180910390f35b34801561035a57600080fd5b5061037560048036038101906103709190614bc1565b610c7c565b005b34801561038357600080fd5b5061039e60048036038101906103999190614bc1565b610dbd565b005b3480156103ac57600080fd5b506103b5610eeb565b6040516103c29190615c87565b60405180910390f35b3480156103d757600080fd5b506103e0610f0f565b6040516103ed91906161d3565b60405180910390f35b34801561040257600080fd5b5061040b610f15565b60405161041891906161d3565b60405180910390f35b34801561042d57600080fd5b50610436610f1b565b60405161044391906161d3565b60405180910390f35b34801561045857600080fd5b50610461610f2b565b60405161046e9190615ac0565b60405180910390f35b34801561048357600080fd5b5061049e60048036038101906104999190614975565b610f51565b005b3480156104ac57600080fd5b506104c760048036038101906104c29190614bc1565b61178a565b6040516104d79493929190615bef565b60405180910390f35b3480156104ec57600080fd5b506104f5611a6b565b60405161050291906161d3565b60405180910390f35b34801561051757600080fd5b50610520611a70565b60405161052d91906161d3565b60405180910390f35b34801561054257600080fd5b5061055d60048036038101906105589190614d4f565b611a76565b005b34801561056b57600080fd5b5061058660048036038101906105819190614bc1565b611cb0565b6040516105939190615dbb565b60405180910390f35b3480156105a857600080fd5b506105c360048036038101906105be9190614bc1565b611e83565b005b3480156105d157600080fd5b506105ec60048036038101906105e79190614c5b565b6121ec565b6040516105f99190615d63565b60405180910390f35b34801561060e57600080fd5b5061062960048036038101906106249190614c9b565b6122a5565b005b34801561063757600080fd5b50610640612305565b60405161064d9190615ac0565b60405180910390f35b34801561066257600080fd5b5061067d60048036038101906106789190614c1b565b61232b565b60405161068c93929190615c50565b60405180910390f35b3480156106a157600080fd5b506106aa612394565b6040516106b791906161d3565b60405180910390f35b3480156106cc57600080fd5b506106e760048036038101906106e29190614cdb565b6123a3565b005b3480156106f557600080fd5b50610710600480360381019061070b9190614bc1565b612409565b005b34801561071e57600080fd5b5061073960048036038101906107349190614c5b565b612527565b60405161074691906161d3565b60405180910390f35b34801561075b57600080fd5b50610764612558565b6040516107719190615dd6565b60405180910390f35b34801561078657600080fd5b506107a1600480360381019061079c9190614c5b565b612591565b6040516107ae9190615dd6565b60405180910390f35b3480156107c357600080fd5b506107cc61264a565b6040516107d991906161d3565b60405180910390f35b3480156107ee57600080fd5b5061080960048036038101906108049190614c5b565b612651565b6040516108169190615ac0565b60405180910390f35b34801561082b57600080fd5b5061083461269f565b60405161084191906161d3565b60405180910390f35b34801561085657600080fd5b5061085f6126a6565b60405161086c91906161d3565b60405180910390f35b34801561088157600080fd5b5061089c6004803603810190610897919061491b565b6126ac565b005b3480156108aa57600080fd5b506108b36127df565b6040516108c09190615da0565b60405180910390f35b3480156108d557600080fd5b506108de612805565b6040516108eb91906161d3565b60405180910390f35b34801561090057600080fd5b5061091b60048036038101906109169190614a17565b61280b565b60405161092891906161d3565b60405180910390f35b34801561093d57600080fd5b5061095860048036038101906109539190614bc1565b612d6e565b005b34801561096657600080fd5b5061096f613116565b60405161097c9190615c87565b60405180910390f35b34801561099157600080fd5b506109ac60048036038101906109a79190614c1b565b61313a565b6040516109b991906161b8565b60405180910390f35b3480156109ce57600080fd5b506109d761321b565b6040516109e491906161d3565b60405180910390f35b3480156109f957600080fd5b50610a02613220565b005b348015610a1057600080fd5b50610a19613492565b604051610a269190615d85565b60405180910390f35b348015610a3b57600080fd5b50610a446134b8565b604051610a519190615ac0565b60405180910390f35b348015610a6657600080fd5b50610a6f6134dc565b604051610a7c9190615d85565b60405180910390f35b610a9f6004803603810190610a9a9190614bc1565b613502565b005b600b6020528060005260406000206000915090508060000154908060010160009054906101000a900473ffffffffffffffffffffffffffffffffffffffff16908060020154908060030154908060040154908060050154908060060154908060070154908060080160009054906101000a900460ff16908060080160019054906101000a900460ff1690508a565b60045481565b60008054906101000a900473ffffffffffffffffffffffffffffffffffffffff1673ffffffffffffffffffffffffffffffffffffffff163373ffffffffffffffffffffffffffffffffffffffff1614610bc3576040517f08c379a0000000000000000000000000000000000000000000000000000000008152600401610bba90615eb8565b60405180910390fd5b6143808110158015610bd857506203b1008111155b610c17576040517f08c379a0000000000000000000000000000000000000000000000000000000008152600401610c0e90615fb8565b60405180910390fd5b60006004549050816004819055507f7e3f7f0708a84de9203036abaa450dccc85ad5ff52f78c170f3edb55cf5e882881600454604051610c589291906163e8565b60405180910390a15050565b60116020528060005260406000206000915090505481565b60008054906101000a900473ffffffffffffffffffffffffffffffffffffffff1673ffffffffffffffffffffffffffffffffffffffff163373ffffffffffffffffffffffffffffffffffffffff1614610d0a576040517f08c379a0000000000000000000000000000000000000000000000000000000008152600401610d0190615eb8565b60405180910390fd5b6a52b7d2dcc80cd2e40000008110158015610d3157506b019d971e4fe8401e740000008111155b610d70576040517f08c379a0000000000000000000000000000000000000000000000000000000008152600401610d6790615f78565b60405180910390fd5b60006005549050816005819055507fccb45da8d5717e6c4544694297c4ba5cf151d455c9bb0ed4fc7a38411bc0546181600554604051610db19291906163e8565b60405180910390a15050565b60008054906101000a900473ffffffffffffffffffffffffffffffffffffffff1673ffffffffffffffffffffffffffffffffffffffff163373ffffffffffffffffffffffffffffffffffffffff1614610e4b576040517f08c379a0000000000000000000000000000000000000000000000000000000008152600401610e4290615eb8565b60405180910390fd5b60018110158015610e5f57506201d8808111155b610e9e576040517f08c379a0000000000000000000000000000000000000000000000000000000008152600401610e9590616198565b60405180910390fd5b60006003549050816003819055507fc565b045403dc03c2eea82b81a0465edad9e2e7fc4d97e11421c209da93d7a9381600354604051610edf9291906163e8565b60405180910390a15050565b7f8cad95687ba82c2ce50e74f7b754645e5117c3a5bec8151c0726d5857980a86681565b61438081565b60075481565b6b019d971e4fe8401e7400000081565b600160009054906101000a900473ffffffffffffffffffffffffffffffffffffffff1681565b601260019054906101000a900460ff1680610f795750601260009054906101000a900460ff16155b610fb8576040517f08c379a0000000000000000000000000000000000000000000000000000000008152600401610faf90615ff8565b60405180910390fd5b6000601260019054906101000a900460ff16159050801561100a576001601260016101000a81548160ff0219169083151502179055506001601260006101000a81548160ff0219169083151502179055505b60008054906101000a900473ffffffffffffffffffffffffffffffffffffffff1673ffffffffffffffffffffffffffffffffffffffff163373ffffffffffffffffffffffffffffffffffffffff1614611098576040517f08c379a000000000000000000000000000000000000000000000000000000000815260040161108f90615eb8565b60405180910390fd5b3073ffffffffffffffffffffffffffffffffffffffff168873ffffffffffffffffffffffffffffffffffffffff1663f851a4406040518163ffffffff1660e01b815260040160206040518083038186803b1580156110f557600080fd5b505afa158015611109573d6000803e3d6000fd5b505050506040513d601f19601f8201168201806040525081019061112d9190614948565b73ffffffffffffffffffffffffffffffffffffffff1614611183576040517f08c379a000000000000000000000000000000000000000000000000000000000815260040161117a90615e78565b60405180910390fd5b614380851015801561119857506203b1008511155b6111d7576040517f08c379a00000000000000000000000000000000000000000000000000000000081526004016111ce90616098565b60405180910390fd5b600184101580156111eb57506201d8808411155b61122a576040517f08c379a000000000000000000000000000000000000000000000000000000000815260040161122190616118565b60405180910390fd5b6a52b7d2dcc80cd2e4000000831015801561125157506b019d971e4fe8401e740000008311155b611290576040517f08c379a000000000000000000000000000000000000000000000000000000000815260040161128790615e98565b60405180910390fd5b828210156112d3576040517f08c379a00000000000000000000000000000000000000000000000000000000081526004016112ca90616138565b60405180910390fd5b87600860006101000a81548173ffffffffffffffffffffffffffffffffffffffff021916908373ffffffffffffffffffffffffffffffffffffffff1602179055503073ffffffffffffffffffffffffffffffffffffffff16600860009054906101000a900473ffffffffffffffffffffffffffffffffffffffff1673ffffffffffffffffffffffffffffffffffffffff1663f851a4406040518163ffffffff1660e01b815260040160206040518083038186803b15801561139357600080fd5b505afa1580156113a7573d6000803e3d6000fd5b505050506040513d601f19601f820116820180604052508101906113cb9190614948565b73ffffffffffffffffffffffffffffffffffffffff1614611421576040517f08c379a000000000000000000000000000000000000000000000000000000000815260040161141890615e78565b60405180910390fd5b336000806101000a81548173ffffffffffffffffffffffffffffffffffffffff021916908373ffffffffffffffffffffffffffffffffffffffff16021790555086600960006101000a81548173ffffffffffffffffffffffffffffffffffffffff021916908373ffffffffffffffffffffffffffffffffffffffff16021790555085600a60006101000a81548173ffffffffffffffffffffffffffffffffffffffff021916908373ffffffffffffffffffffffffffffffffffffffff16021790555084600481905550836003819055508260058190555081600781905550600060405180610140016040528060065481526020013073ffffffffffffffffffffffffffffffffffffffff1681526020016000815260200160008152602001600081526020016000815260200160008152602001600081526020016001151581526020016000151581525090506006600081548092919061158090616ade565b919050555080600b6000836000015181526020019081526020016000206000820151816000015560208201518160010160006101000a81548173ffffffffffffffffffffffffffffffffffffffff021916908373ffffffffffffffffffffffffffffffffffffffff16021790555060408201518160020155606082015181600301556080820151816004015560a0820151816005015560c0820151816006015560e082015181600701556101008201518160080160006101000a81548160ff0219169083151502179055506101208201518160080160016101000a81548160ff021916908315150217905550905050806000015160116000836020015173ffffffffffffffffffffffffffffffffffffffff1673ffffffffffffffffffffffffffffffffffffffff168152602001908152602001600020819055507f7d84a6263ae0d98d3329bd7b46bb4e8d6f98cd35a7adb45c274c8b7fd5ebd5e0816000015130600c600085600001518152602001908152602001600020600d600086600001518152602001908152602001600020600e600087600001518152602001908152602001600020600f60008860000151815260200190815260200160002060008060405161175598979695949392919061629e565b60405180910390a1508015611780576000601260016101000a81548160ff0219169083151502179055505b5050505050505050565b606080606080600c6000868152602001908152602001600020600d6000878152602001908152602001600020600e6000888152602001908152602001600020600f60008981526020019081526020016000208380548060200260200160405190810160405280929190818152602001828054801561185d57602002820191906000526020600020905b8160009054906101000a900473ffffffffffffffffffffffffffffffffffffffff1673ffffffffffffffffffffffffffffffffffffffff1681526020019060010190808311611813575b50505050509350828054806020026020016040519081016040528092919081815260200182805480156118af57602002820191906000526020600020905b81548152602001906001019080831161189b575b5050505050925081805480602002602001604051908101604052809291908181526020016000905b828210156119835783829060005260206000200180546118f690616a47565b80601f016020809104026020016040519081016040528092919081815260200182805461192290616a47565b801561196f5780601f106119445761010080835404028352916020019161196f565b820191906000526020600020905b81548152906001019060200180831161195257829003601f168201915b5050505050815260200190600101906118d7565b50505050915080805480602002602001604051908101604052809291908181526020016000905b82821015611a565783829060005260206000200180546119c990616a47565b80601f01602080910402602001604051908101604052809291908181526020018280546119f590616a47565b8015611a425780601f10611a1757610100808354040283529160200191611a42565b820191906000526020600020905b815481529060010190602001808311611a2557829003601f168201915b5050505050815260200190600101906119aa565b50505050905093509350935093509193509193565b600a81565b60035481565b60007f8cad95687ba82c2ce50e74f7b754645e5117c3a5bec8151c0726d5857980a8666040518060400160405280600481526020017f495043540000000000000000000000000000000000000000000000000000000081525080519060200120611ade6137de565b30604051602001611af29493929190615ca2565b60405160208183030381529060405280519060200120905060007f150214d74d59b7d1e90c73fc22ef3d991dd0a76b046543d4d80ab92d2a50328f8787604051602001611b4193929190615ce7565b60405160208183030381529060405280519060200120905060008282604051602001611b6e929190615a89565b604051602081830303815290604052805190602001209050600060018288888860405160008152602001604052604051611bab9493929190615d1e565b6020604051602081039080840390855afa158015611bcd573d6000803e3d6000fd5b505050602060405103519050600073ffffffffffffffffffffffffffffffffffffffff168173ffffffffffffffffffffffffffffffffffffffff161415611c49576040517f08c379a0000000000000000000000000000000000000000000000000000000008152600401611c4090616078565b60405180910390fd5b8073ffffffffffffffffffffffffffffffffffffffff167fb8e138887d0aa13bab447e82de9d5c1777041ecd21ca36ba824ff1e6c07ddda48a8a611c8e858e8e6137eb565b604051611c9d9392919061645f565b60405180910390a2505050505050505050565b60008160065411611cf6576040517f08c379a0000000000000000000000000000000000000000000000000000000008152600401611ced90616038565b60405180910390fd5b6000600b600084815260200190815260200160002090508060080160009054906101000a900460ff1615611d2e576002915050611e7e565b80600301544311611d43576000915050611e7e565b80600401544311611d58576001915050611e7e565b80600601548160050154111580611d7457506007548160050154105b15611d83576003915050611e7e565b600081600201541415611d9a576004915050611e7e565b8060080160019054906101000a900460ff1615611dbb576007915050611e7e565b611e688160020154600860009054906101000a900473ffffffffffffffffffffffffffffffffffffffff1673ffffffffffffffffffffffffffffffffffffffff1663c1a287e26040518163ffffffff1660e01b815260040160206040518083038186803b158015611e2b57600080fd5b505afa158015611e3f573d6000803e3d6000fd5b505050506040513d601f19601f82011682018060405250810190611e639190614bee565b613a8f565b4210611e78576006915050611e7e565b60059150505b919050565b600780811115611e9657611e95616b60565b5b611e9f82611cb0565b6007811115611eb157611eb0616b60565b5b1415611ef2576040517f08c379a0000000000000000000000000000000000000000000000000000000008152600401611ee990615df8565b60405180910390fd5b6000600b600083815260200190815260200160002090508060010160009054906101000a900473ffffffffffffffffffffffffffffffffffffffff1673ffffffffffffffffffffffffffffffffffffffff163373ffffffffffffffffffffffffffffffffffffffff161480611fad5750600554611f9d8260010160009054906101000a900473ffffffffffffffffffffffffffffffffffffffff16611f98436001613aed565b613b46565b6bffffffffffffffffffffffff16105b611fec576040517f08c379a0000000000000000000000000000000000000000000000000000000008152600401611fe390616018565b60405180910390fd5b60018160080160006101000a81548160ff02191690831515021790555060005b600c6000848152602001908152602001600020805490508110156121b057600860009054906101000a900473ffffffffffffffffffffffffffffffffffffffff1673ffffffffffffffffffffffffffffffffffffffff1663591fcdfe600c6000868152602001908152602001600020838154811061208d5761208c616bbe565b5b9060005260206000200160009054906101000a900473ffffffffffffffffffffffffffffffffffffffff16600d600087815260200190815260200160002084815481106120dd576120dc616bbe565b5b9060005260206000200154600e6000888152602001908152602001600020858154811061210d5761210c616bbe565b5b90600052602060002001600f6000898152602001908152602001600020868154811061213c5761213b616bbe565b5b9060005260206000200187600201546040518663ffffffff1660e01b815260040161216b959493929190615b8e565b600060405180830381600087803b15801561218557600080fd5b505af1158015612199573d6000803e3d6000fd5b5050505080806121a890616ade565b91505061200c565b507f789cf55be980739dad1d0699b93b58e806b51c9d96619bfa8fe0a28abaa7b30c826040516121e091906161d3565b60405180910390a15050565b600f602052816000526040600020818154811061220857600080fd5b9060005260206000200160009150915050805461222490616a47565b80601f016020809104026020016040519081016040528092919081815260200182805461225090616a47565b801561229d5780601f106122725761010080835404028352916020019161229d565b820191906000526020600020905b81548152906001019060200180831161228057829003601f168201915b505050505081565b3373ffffffffffffffffffffffffffffffffffffffff167fb8e138887d0aa13bab447e82de9d5c1777041ecd21ca36ba824ff1e6c07ddda483836122ea3387876137eb565b6040516122f99392919061645f565b60405180910390a25050565b600260009054906101000a900473ffffffffffffffffffffffffffffffffffffffff1681565b6010602052816000526040600020602052806000526040600020600091509150508060000160009054906101000a900460ff16908060000160019054906101000a900460ff16908060000160029054906101000a90046bffffffffffffffffffffffff16905083565b6a52b7d2dcc80cd2e400000081565b3373ffffffffffffffffffffffffffffffffffffffff167fb8e138887d0aa13bab447e82de9d5c1777041ecd21ca36ba824ff1e6c07ddda485856123e83389896137eb565b86866040516123fb959493929190616411565b60405180910390a250505050565b60008054906101000a900473ffffffffffffffffffffffffffffffffffffffff1673ffffffffffffffffffffffffffffffffffffffff163373ffffffffffffffffffffffffffffffffffffffff1614612497576040517f08c379a000000000000000000000000000000000000000000000000000000000815260040161248e90615eb8565b60405180910390fd5b6005548110156124dc576040517f08c379a00000000000000000000000000000000000000000000000000000000081526004016124d390615f38565b60405180910390fd5b60006003549050816007819055507fffff0a251408cb8f05a4fc2ab0bdffe28e1519cb8ee5bdb6531e5d6ca51aaf75818360405161251b9291906163e8565b60405180910390a15050565b600d602052816000526040600020818154811061254357600080fd5b90600052602060002001600091509150505481565b6040518060400160405280600481526020017f495043540000000000000000000000000000000000000000000000000000000081525081565b600e60205281600052604060002081815481106125ad57600080fd5b906000526020600020016000915091505080546125c990616a47565b80601f01602080910402602001604051908101604052809291908181526020018280546125f590616a47565b80156126425780601f1061261757610100808354040283529160200191612642565b820191906000526020600020905b81548152906001019060200180831161262557829003601f168201915b505050505081565b6203b10081565b600c602052816000526040600020818154811061266d57600080fd5b906000526020600020016000915091509054906101000a900473ffffffffffffffffffffffffffffffffffffffff1681565b6201d88081565b60055481565b60008054906101000a900473ffffffffffffffffffffffffffffffffffffffff1673ffffffffffffffffffffffffffffffffffffffff163373ffffffffffffffffffffffffffffffffffffffff161461273a576040517f08c379a000000000000000000000000000000000000000000000000000000000815260040161273190615eb8565b60405180910390fd5b6000600160009054906101000a900473ffffffffffffffffffffffffffffffffffffffff16905081600160006101000a81548173ffffffffffffffffffffffffffffffffffffffff021916908373ffffffffffffffffffffffffffffffffffffffff1602179055507fca4f2f25d0898edd99413412fb94012f9e54ec8142f9b093e7720646a95b16a981836040516127d3929190615adb565b60405180910390a15050565b600860009054906101000a900473ffffffffffffffffffffffffffffffffffffffff1681565b60065481565b60006005546128243361281f436001613aed565b613b46565b6bffffffffffffffffffffffff1611612872576040517f08c379a000000000000000000000000000000000000000000000000000000000815260040161286990615e38565b60405180910390fd5b84518651148015612884575083518651145b8015612891575082518651145b6128d0576040517f08c379a00000000000000000000000000000000000000000000000000000000081526004016128c7906160d8565b60405180910390fd5b600086511415612915576040517f08c379a000000000000000000000000000000000000000000000000000000000815260040161290c906160b8565b60405180910390fd5b600a8651111561295a576040517f08c379a000000000000000000000000000000000000000000000000000000000815260040161295190615f18565b60405180910390fd5b6000601160003373ffffffffffffffffffffffffffffffffffffffff1673ffffffffffffffffffffffffffffffffffffffff16815260200190815260200160002054905060008114612a855760006129b182611cb0565b9050600160078111156129c7576129c6616b60565b5b8160078111156129da576129d9616b60565b5b1415612a1b576040517f08c379a0000000000000000000000000000000000000000000000000000000008152600401612a12906160f8565b60405180910390fd5b60006007811115612a2f57612a2e616b60565b5b816007811115612a4257612a41616b60565b5b1415612a83576040517f08c379a0000000000000000000000000000000000000000000000000000000008152600401612a7a90615e58565b60405180910390fd5b505b6000612a9343600354613a8f565b90506000612aa382600454613a8f565b9050600060405180610140016040528060065481526020013373ffffffffffffffffffffffffffffffffffffffff1681526020016000815260200184815260200183815260200160008152602001600081526020016000815260200160001515815260200160001515815250905060066000815480929190612b2490616ade565b919050555080600b6000836000015181526020019081526020016000206000820151816000015560208201518160010160006101000a81548173ffffffffffffffffffffffffffffffffffffffff021916908373ffffffffffffffffffffffffffffffffffffffff16021790555060408201518160020155606082015181600301556080820151816004015560a0820151816005015560c0820151816006015560e082015181600701556101008201518160080160006101000a81548160ff0219169083151502179055506101208201518160080160016101000a81548160ff02191690831515021790555090505089600c6000836000015181526020019081526020016000209080519060200190612c3e929190614048565b5088600d6000836000015181526020019081526020016000209080519060200190612c6a9291906140d2565b5087600e6000836000015181526020019081526020016000209080519060200190612c9692919061411f565b5086600f6000836000015181526020019081526020016000209080519060200190612cc292919061417f565b50806000015160116000836020015173ffffffffffffffffffffffffffffffffffffffff1673ffffffffffffffffffffffffffffffffffffffff168152602001908152602001600020819055507f7d84a6263ae0d98d3329bd7b46bb4e8d6f98cd35a7adb45c274c8b7fd5ebd5e08160000151338c8c8c8c89898e604051612d52999897969594939291906161ee565b60405180910390a1806000015194505050505095945050505050565b60046007811115612d8257612d81616b60565b5b612d8b82611cb0565b6007811115612d9d57612d9c616b60565b5b14612ddd576040517f08c379a0000000000000000000000000000000000000000000000000000000008152600401612dd490615f58565b60405180910390fd5b6000600b600083815260200190815260200160002090506000612e9f42600860009054906101000a900473ffffffffffffffffffffffffffffffffffffffff1673ffffffffffffffffffffffffffffffffffffffff16636a42b8f86040518163ffffffff1660e01b815260040160206040518083038186803b158015612e6257600080fd5b505afa158015612e76573d6000803e3d6000fd5b505050506040513d601f19601f82011682018060405250810190612e9a9190614bee565b613a8f565b905060005b600c6000858152602001908152602001600020805490508110156130ce576130bb600c60008681526020019081526020016000208281548110612eea57612ee9616bbe565b5b9060005260206000200160009054906101000a900473ffffffffffffffffffffffffffffffffffffffff16600d60008781526020019081526020016000208381548110612f3a57612f39616bbe565b5b9060005260206000200154600e60008881526020019081526020016000208481548110612f6a57612f69616bbe565b5b906000526020600020018054612f7f90616a47565b80601f0160208091040260200160405190810160405280929190818152602001828054612fab90616a47565b8015612ff85780601f10612fcd57610100808354040283529160200191612ff8565b820191906000526020600020905b815481529060010190602001808311612fdb57829003601f168201915b5050505050600f6000898152602001908152602001600020858154811061302257613021616bbe565b5b90600052602060002001805461303790616a47565b80601f016020809104026020016040519081016040528092919081815260200182805461306390616a47565b80156130b05780601f10613085576101008083540402835291602001916130b0565b820191906000526020600020905b81548152906001019060200180831161309357829003601f168201915b505050505086613df3565b80806130c690616ade565b915050612ea4565b508082600201819055507f9a2e42fd6722813d69113e7d0079d3d940171428df7373df9c7f7617cfda289283826040516131099291906163e8565b60405180910390a1505050565b7f150214d74d59b7d1e90c73fc22ef3d991dd0a76b046543d4d80ab92d2a50328f81565b6131426141df565b6010600084815260200190815260200160002060008373ffffffffffffffffffffffffffffffffffffffff1673ffffffffffffffffffffffffffffffffffffffff1681526020019081526020016000206040518060600160405290816000820160009054906101000a900460ff161515151581526020016000820160019054906101000a900460ff1660ff1660ff1681526020016000820160029054906101000a90046bffffffffffffffffffffffff166bffffffffffffffffffffffff166bffffffffffffffffffffffff1681525050905092915050565b600181565b600160009054906101000a900473ffffffffffffffffffffffffffffffffffffffff1673ffffffffffffffffffffffffffffffffffffffff163373ffffffffffffffffffffffffffffffffffffffff161480156132aa5750600073ffffffffffffffffffffffffffffffffffffffff163373ffffffffffffffffffffffffffffffffffffffff1614155b6132e9576040517f08c379a00000000000000000000000000000000000000000000000000000000081526004016132e090615fd8565b60405180910390fd5b60008060009054906101000a900473ffffffffffffffffffffffffffffffffffffffff1690506000600160009054906101000a900473ffffffffffffffffffffffffffffffffffffffff169050600160009054906101000a900473ffffffffffffffffffffffffffffffffffffffff166000806101000a81548173ffffffffffffffffffffffffffffffffffffffff021916908373ffffffffffffffffffffffffffffffffffffffff1602179055506000600160006101000a81548173ffffffffffffffffffffffffffffffffffffffff021916908373ffffffffffffffffffffffffffffffffffffffff1602179055507ff9ffabca9c8276e99321725bcb43fb076a6c66a54b7f21c4e8146d8519b417dc8260008054906101000a900473ffffffffffffffffffffffffffffffffffffffff1660405161342b929190615adb565b60405180910390a17fca4f2f25d0898edd99413412fb94012f9e54ec8142f9b093e7720646a95b16a981600160009054906101000a900473ffffffffffffffffffffffffffffffffffffffff16604051613486929190615adb565b60405180910390a15050565b600a60009054906101000a900473ffffffffffffffffffffffffffffffffffffffff1681565b60008054906101000a900473ffffffffffffffffffffffffffffffffffffffff1681565b600960009054906101000a900473ffffffffffffffffffffffffffffffffffffffff1681565b6005600781111561351657613515616b60565b5b61351f82611cb0565b600781111561353157613530616b60565b5b14613571576040517f08c379a000000000000000000000000000000000000000000000000000000000815260040161356890615ef8565b60405180910390fd5b6000600b6000838152602001908152602001600020905060018160080160016101000a81548160ff02191690831515021790555060005b600c6000848152602001908152602001600020805490508110156137a257600860009054906101000a900473ffffffffffffffffffffffffffffffffffffffff1673ffffffffffffffffffffffffffffffffffffffff16630825f38f600d6000868152602001908152602001600020838154811061362957613628616bbe565b5b9060005260206000200154600c6000878152602001908152602001600020848154811061365957613658616bbe565b5b9060005260206000200160009054906101000a900473ffffffffffffffffffffffffffffffffffffffff16600d600088815260200190815260200160002085815481106136a9576136a8616bbe565b5b9060005260206000200154600e600089815260200190815260200160002086815481106136d9576136d8616bbe565b5b90600052602060002001600f60008a8152602001908152602001600020878154811061370857613707616bbe565b5b9060005260206000200188600201546040518763ffffffff1660e01b8152600401613737959493929190615b8e565b6000604051808303818588803b15801561375057600080fd5b505af1158015613764573d6000803e3d6000fd5b50505050506040513d6000823e3d601f19601f8201168201806040525081019061378e9190614b78565b50808061379a90616ade565b9150506135a8565b507f712ae1383f79ac853f8d882153778e0260ef8f03b504e2866e0593e04d2b291f826040516137d291906161d3565b60405180910390a15050565b6000804690508091505090565b60006001600781111561380157613800616b60565b5b61380a84611cb0565b600781111561381c5761381b616b60565b5b1461385c576040517f08c379a000000000000000000000000000000000000000000000000000000000815260040161385390615e18565b60405180910390fd5b60028260ff1611156138a3576040517f08c379a000000000000000000000000000000000000000000000000000000000815260040161389a90615f98565b60405180910390fd5b6000600b6000858152602001908152602001600020905060006010600086815260200190815260200160002060008773ffffffffffffffffffffffffffffffffffffffff1673ffffffffffffffffffffffffffffffffffffffff1681526020019081526020016000209050600015158160000160009054906101000a900460ff16151514613966576040517f08c379a000000000000000000000000000000000000000000000000000000000815260040161395d90616178565b60405180910390fd5b6000613976878460030154613b46565b905060008560ff1614156139ad576139a08360060154826bffffffffffffffffffffffff16613a8f565b8360060181905550613a15565b60018560ff1614156139e2576139d58360050154826bffffffffffffffffffffffff16613a8f565b8360050181905550613a14565b60028560ff161415613a1357613a0a8360070154826bffffffffffffffffffffffff16613a8f565b83600701819055505b5b5b60018260000160006101000a81548160ff021916908315150217905550848260000160016101000a81548160ff021916908360ff160217905550808260000160026101000a8154816bffffffffffffffffffffffff02191690836bffffffffffffffffffffffff1602179055508093505050509392505050565b6000808284613a9e9190616807565b905083811015613ae3576040517f08c379a0000000000000000000000000000000000000000000000000000000008152600401613ada90616058565b60405180910390fd5b8091505092915050565b600082821115613b32576040517f08c379a0000000000000000000000000000000000000000000000000000000008152600401613b2990616158565b60405180910390fd5b8183613b3e919061689f565b905092915050565b60008073ffffffffffffffffffffffffffffffffffffffff16600a60009054906101000a900473ffffffffffffffffffffffffffffffffffffffff1673ffffffffffffffffffffffffffffffffffffffff161415613c5257600960009054906101000a900473ffffffffffffffffffffffffffffffffffffffff1673ffffffffffffffffffffffffffffffffffffffff1663782d6fe184846040518363ffffffff1660e01b8152600401613bfb929190615b04565b60206040518083038186803b158015613c1357600080fd5b505afa158015613c27573d6000803e3d6000fd5b505050506040513d601f19601f82011682018060405250810190613c4b9190614dca565b9050613ded565b613dea600960009054906101000a900473ffffffffffffffffffffffffffffffffffffffff1673ffffffffffffffffffffffffffffffffffffffff1663782d6fe185856040518363ffffffff1660e01b8152600401613cb2929190615b04565b60206040518083038186803b158015613cca57600080fd5b505afa158015613cde573d6000803e3d6000fd5b505050506040513d601f19601f82011682018060405250810190613d029190614dca565b600a60009054906101000a900473ffffffffffffffffffffffffffffffffffffffff1673ffffffffffffffffffffffffffffffffffffffff1663782d6fe186866040518363ffffffff1660e01b8152600401613d5f929190615b04565b60206040518083038186803b158015613d7757600080fd5b505afa158015613d8b573d6000803e3d6000fd5b505050506040513d601f19601f82011682018060405250810190613daf9190614dca565b6040518060400160405280601681526020017f6765745072696f72566f746573206f766572666c6f7700000000000000000000815250613fc9565b90505b92915050565b600860009054906101000a900473ffffffffffffffffffffffffffffffffffffffff1673ffffffffffffffffffffffffffffffffffffffff1663f2b065378686868686604051602001613e4a959493929190615b2d565b604051602081830303815290604052805190602001206040518263ffffffff1660e01b8152600401613e7c9190615c87565b60206040518083038186803b158015613e9457600080fd5b505afa158015613ea8573d6000803e3d6000fd5b505050506040513d601f19601f82011682018060405250810190613ecc9190614b1e565b15613f0c576040517f08c379a0000000000000000000000000000000000000000000000000000000008152600401613f0390615ed8565b60405180910390fd5b600860009054906101000a900473ffffffffffffffffffffffffffffffffffffffff1673ffffffffffffffffffffffffffffffffffffffff16633a66f90186868686866040518663ffffffff1660e01b8152600401613f6f959493929190615b2d565b602060405180830381600087803b158015613f8957600080fd5b505af1158015613f9d573d6000803e3d6000fd5b505050506040513d601f19601f82011682018060405250810190613fc19190614b4b565b505050505050565b6000808385613fd8919061685d565b9050846bffffffffffffffffffffffff16816bffffffffffffffffffffffff161015839061403c576040517f08c379a00000000000000000000000000000000000000000000000000000000081526004016140339190615dd6565b60405180910390fd5b50809150509392505050565b8280548282559060005260206000209081019282156140c1579160200282015b828111156140c05782518260006101000a81548173ffffffffffffffffffffffffffffffffffffffff021916908373ffffffffffffffffffffffffffffffffffffffff16021790555091602001919060010190614068565b5b5090506140ce9190614213565b5090565b82805482825590600052602060002090810192821561410e579160200282015b8281111561410d5782518255916020019190600101906140f2565b5b50905061411b9190614213565b5090565b82805482825590600052602060002090810192821561416e579160200282015b8281111561416d57825182908051906020019061415d929190614230565b509160200191906001019061413f565b5b50905061417b91906142b6565b5090565b8280548282559060005260206000209081019282156141ce579160200282015b828111156141cd5782518290805190602001906141bd9291906142da565b509160200191906001019061419f565b5b5090506141db9190614360565b5090565b6040518060600160405280600015158152602001600060ff16815260200160006bffffffffffffffffffffffff1681525090565b5b8082111561422c576000816000905550600101614214565b5090565b82805461423c90616a47565b90600052602060002090601f01602090048101928261425e57600085556142a5565b82601f1061427757805160ff19168380011785556142a5565b828001600101855582156142a5579182015b828111156142a4578251825591602001919060010190614289565b5b5090506142b29190614213565b5090565b5b808211156142d657600081816142cd9190614384565b506001016142b7565b5090565b8280546142e690616a47565b90600052602060002090601f016020900481019282614308576000855561434f565b82601f1061432157805160ff191683800117855561434f565b8280016001018555821561434f579182015b8281111561434e578251825591602001919060010190614333565b5b50905061435c9190614213565b5090565b5b80821115614380576000818161437791906143c4565b50600101614361565b5090565b50805461439090616a47565b6000825580601f106143a257506143c1565b601f0160209004906000526020600020908101906143c09190614213565b5b50565b5080546143d090616a47565b6000825580601f106143e25750614401565b601f0160209004906000526020600020908101906144009190614213565b5b50565b6000614417614412846164ce565b6164a9565b9050808382526020820190508285602086028201111561443a57614439616c4c565b5b60005b8581101561446a578161445088826146c6565b84526020840193506020830192505060018101905061443d565b5050509392505050565b6000614487614482846164fa565b6164a9565b905080838252602082019050828560208602820111156144aa576144a9616c4c565b5b60005b858110156144f857813567ffffffffffffffff8111156144d0576144cf616c47565b5b8086016144dd89826147e7565b855260208501945060208401935050506001810190506144ad565b5050509392505050565b600061451561451084616526565b6164a9565b9050808382526020820190508285602086028201111561453857614537616c4c565b5b60005b8581101561458657813567ffffffffffffffff81111561455e5761455d616c47565b5b80860161456b8982614899565b8552602085019450602084019350505060018101905061453b565b5050509392505050565b60006145a361459e84616552565b6164a9565b905080838252602082019050828560208602820111156145c6576145c5616c4c565b5b60005b858110156145f657816145dc88826148c7565b8452602084019350602083019250506001810190506145c9565b5050509392505050565b600061461361460e8461657e565b6164a9565b90508281526020810184848401111561462f5761462e616c51565b5b61463a848285616a05565b509392505050565b60006146556146508461657e565b6164a9565b90508281526020810184848401111561467157614670616c51565b5b61467c848285616a14565b509392505050565b6000614697614692846165af565b6164a9565b9050828152602081018484840111156146b3576146b2616c51565b5b6146be848285616a05565b509392505050565b6000813590506146d5816175b4565b92915050565b6000815190506146ea816175b4565b92915050565b600082601f83011261470557614704616c47565b5b8135614715848260208601614404565b91505092915050565b600082601f83011261473357614732616c47565b5b8135614743848260208601614474565b91505092915050565b600082601f83011261476157614760616c47565b5b8135614771848260208601614502565b91505092915050565b600082601f83011261478f5761478e616c47565b5b813561479f848260208601614590565b91505092915050565b6000815190506147b7816175cb565b92915050565b6000813590506147cc816175e2565b92915050565b6000815190506147e1816175e2565b92915050565b600082601f8301126147fc576147fb616c47565b5b813561480c848260208601614600565b91505092915050565b600082601f83011261482a57614829616c47565b5b815161483a848260208601614642565b91505092915050565b60008083601f84011261485957614858616c47565b5b8235905067ffffffffffffffff81111561487657614875616c42565b5b60208301915083600182028301111561489257614891616c4c565b5b9250929050565b600082601f8301126148ae576148ad616c47565b5b81356148be848260208601614684565b91505092915050565b6000813590506148d6816175f9565b92915050565b6000815190506148eb816175f9565b92915050565b60008135905061490081617610565b92915050565b60008151905061491581617627565b92915050565b60006020828403121561493157614930616c5b565b5b600061493f848285016146c6565b91505092915050565b60006020828403121561495e5761495d616c5b565b5b600061496c848285016146db565b91505092915050565b600080600080600080600060e0888a03121561499457614993616c5b565b5b60006149a28a828b016146c6565b97505060206149b38a828b016146c6565b96505060406149c48a828b016146c6565b95505060606149d58a828b016148c7565b94505060806149e68a828b016148c7565b93505060a06149f78a828b016148c7565b92505060c0614a088a828b016148c7565b91505092959891949750929550565b600080600080600060a08688031215614a3357614a32616c5b565b5b600086013567ffffffffffffffff811115614a5157614a50616c56565b5b614a5d888289016146f0565b955050602086013567ffffffffffffffff811115614a7e57614a7d616c56565b5b614a8a8882890161477a565b945050604086013567ffffffffffffffff811115614aab57614aaa616c56565b5b614ab78882890161474c565b935050606086013567ffffffffffffffff811115614ad857614ad7616c56565b5b614ae48882890161471e565b925050608086013567ffffffffffffffff811115614b0557614b04616c56565b5b614b1188828901614899565b9150509295509295909350565b600060208284031215614b3457614b33616c5b565b5b6000614b42848285016147a8565b91505092915050565b600060208284031215614b6157614b60616c5b565b5b6000614b6f848285016147d2565b91505092915050565b600060208284031215614b8e57614b8d616c5b565b5b600082015167ffffffffffffffff811115614bac57614bab616c56565b5b614bb884828501614815565b91505092915050565b600060208284031215614bd757614bd6616c5b565b5b6000614be5848285016148c7565b91505092915050565b600060208284031215614c0457614c03616c5b565b5b6000614c12848285016148dc565b91505092915050565b60008060408385031215614c3257614c31616c5b565b5b6000614c40858286016148c7565b9250506020614c51858286016146c6565b9150509250929050565b60008060408385031215614c7257614c71616c5b565b5b6000614c80858286016148c7565b9250506020614c91858286016148c7565b9150509250929050565b60008060408385031215614cb257614cb1616c5b565b5b6000614cc0858286016148c7565b9250506020614cd1858286016148f1565b9150509250929050565b60008060008060608587031215614cf557614cf4616c5b565b5b6000614d03878288016148c7565b9450506020614d14878288016148f1565b935050604085013567ffffffffffffffff811115614d3557614d34616c56565b5b614d4187828801614843565b925092505092959194509250565b600080600080600060a08688031215614d6b57614d6a616c5b565b5b6000614d79888289016148c7565b9550506020614d8a888289016148f1565b9450506040614d9b888289016148f1565b9350506060614dac888289016147bd565b9250506080614dbd888289016147bd565b9150509295509295909350565b600060208284031215614de057614ddf616c5b565b5b6000614dee84828501614906565b91505092915050565b6000614e038383614e77565b60208301905092915050565b6000614e1b8383615231565b905092915050565b6000614e2f83836152a3565b905092915050565b6000614e43838361540c565b905092915050565b6000614e57838361547e565b905092915050565b6000614e6b8383615a20565b60208301905092915050565b614e80816168fd565b82525050565b614e8f816168fd565b82525050565b6000614ea08261669e565b614eaa8185616774565b9350614eb5836165e0565b8060005b83811015614ee6578151614ecd8882614df7565b9750614ed88361670c565b925050600181019050614eb9565b5085935050505092915050565b6000614efe826166a9565b614f088185616774565b9350614f13836165f0565b8060005b83811015614f4b57614f2882616c1c565b614f328882614df7565b9750614f3d83616719565b925050600181019050614f17565b5085935050505092915050565b6000614f63826166b4565b614f6d8185616785565b935083602082028501614f7f85616605565b8060005b85811015614fbb5784840389528151614f9c8582614e0f565b9450614fa783616726565b925060208a01995050600181019050614f83565b50829750879550505050505092915050565b6000614fd8826166bf565b614fe28185616785565b935083602082028501614ff485616615565b8060005b8581101561502f578484038952816150108582614e23565b945061501b83616733565b925060208a01995050600181019050614ff8565b50829750879550505050505092915050565b600061504c826166ca565b6150568185616796565b9350836020820285016150688561662a565b8060005b858110156150a457848403895281516150858582614e37565b945061509083616740565b925060208a0199505060018101905061506c565b50829750879550505050505092915050565b60006150c1826166d5565b6150cb8185616796565b9350836020820285016150dd8561663a565b8060005b85811015615118578484038952816150f98582614e4b565b94506151048361674d565b925060208a019950506001810190506150e1565b50829750879550505050505092915050565b6000615135826166e0565b61513f81856167a7565b935061514a8361664f565b8060005b8381101561517b5781516151628882614e5f565b975061516d8361675a565b92505060018101905061514e565b5085935050505092915050565b6000615193826166eb565b61519d81856167a7565b93506151a88361665f565b8060005b838110156151e0576151bd82616c2f565b6151c78882614e5f565b97506151d283616767565b9250506001810190506151ac565b5085935050505092915050565b6151f68161690f565b82525050565b6152058161690f565b82525050565b6152148161691b565b82525050565b61522b6152268261691b565b616b27565b82525050565b600061523c826166f6565b61524681856167b8565b9350615256818560208601616a14565b61525f81616c60565b840191505092915050565b6000615275826166f6565b61527f81856167c9565b935061528f818560208601616a14565b61529881616c60565b840191505092915050565b600081546152b081616a47565b6152ba81866167b8565b945060018216600081146152d557600181146152e75761531a565b60ff198316865260208601935061531a565b6152f085616674565b60005b83811015615312578154818901526001820191506020810190506152f3565b808801955050505b50505092915050565b6000815461533081616a47565b61533a81866167c9565b9450600182166000811461535557600181146153675761539a565b60ff198316865260208601935061539a565b61537085616674565b60005b8381101561539257815481890152600182019150602081019050615373565b808801955050505b50505092915050565b6153ac81616987565b82525050565b6153bb816169ab565b82525050565b6153ca816169cf565b82525050565b6153d9816169e1565b82525050565b60006153eb83856167eb565b93506153f8838584616a05565b61540183616c60565b840190509392505050565b600061541782616701565b61542181856167da565b9350615431818560208601616a14565b61543a81616c60565b840191505092915050565b600061545082616701565b61545a81856167eb565b935061546a818560208601616a14565b61547381616c60565b840191505092915050565b6000815461548b81616a47565b61549581866167da565b945060018216600081146154b057600181146154c2576154f5565b60ff19831686526020860193506154f5565b6154cb85616689565b60005b838110156154ed578154818901526001820191506020810190506154ce565b808801955050505b50505092915050565b6000815461550b81616a47565b61551581866167eb565b94506001821660008114615530576001811461554257615575565b60ff1983168652602086019350615575565b61554b85616689565b60005b8381101561556d5781548189015260018201915060208101905061554e565b808801955050505b50505092915050565b600061558b602d836167eb565b915061559682616c7e565b604082019050919050565b60006155ae6028836167eb565b91506155b982616ccd565b604082019050919050565b60006155d16036836167eb565b91506155dc82616d1c565b604082019050919050565b60006155f46050836167eb565b91506155ff82616d6b565b606082019050919050565b60006156176040836167eb565b915061562282616de0565b604082019050919050565b600061563a602c836167eb565b915061564582616e2f565b604082019050919050565b600061565d6013836167eb565b915061566882616e7e565b602082019050919050565b6000615680604c836167eb565b915061568b82616ea7565b606082019050919050565b60006156a36002836167fc565b91506156ae82616f1c565b600282019050919050565b60006156c6603c836167eb565b91506156d182616f45565b604082019050919050565b60006156e9601f836167eb565b91506156f482616f94565b602082019050919050565b600061570c602b836167eb565b915061571782616fbd565b604082019050919050565b600061572f603b836167eb565b915061573a8261700c565b604082019050919050565b60006157526037836167eb565b915061575d8261705b565b604082019050919050565b60006157756029836167eb565b9150615780826170aa565b604082019050919050565b6000615798602d836167eb565b91506157a3826170f9565b604082019050919050565b60006157bb6025836167eb565b91506157c682617148565b604082019050919050565b60006157de602e836167eb565b91506157e982617197565b604082019050919050565b60006158016026836167eb565b915061580c826171e6565b604082019050919050565b60006158246020836167eb565b915061582f82617235565b602082019050919050565b60006158476011836167eb565b91506158528261725e565b602082019050919050565b600061586a6026836167eb565b915061587582617287565b604082019050919050565b600061588d6027836167eb565b9150615898826172d6565b604082019050919050565b60006158b06000836167eb565b91506158bb82617325565b600082019050919050565b60006158d36023836167eb565b91506158de82617328565b604082019050919050565b60006158f6603b836167eb565b915061590182617377565b604082019050919050565b6000615919604f836167eb565b9150615924826173c6565b606082019050919050565b600061593c6026836167eb565b91506159478261743b565b604082019050919050565b600061595f6026836167eb565b915061596a8261748a565b604082019050919050565b60006159826015836167eb565b915061598d826174d9565b602082019050919050565b60006159a5602b836167eb565b91506159b082617502565b604082019050919050565b60006159c8602b836167eb565b91506159d382617551565b604082019050919050565b6060820160008201516159f460008501826151ed565b506020820151615a076020850182615a3e565b506040820151615a1a6040850182615a6b565b50505050565b615a2981616958565b82525050565b615a3881616958565b82525050565b615a4781616962565b82525050565b615a5681616962565b82525050565b615a65816169f3565b82525050565b615a748161696f565b82525050565b615a838161696f565b82525050565b6000615a9482615696565b9150615aa0828561521a565b602082019150615ab0828461521a565b6020820191508190509392505050565b6000602082019050615ad56000830184614e86565b92915050565b6000604082019050615af06000830185614e86565b615afd6020830184614e86565b9392505050565b6000604082019050615b196000830185614e86565b615b266020830184615a2f565b9392505050565b600060a082019050615b426000830188614e86565b615b4f6020830187615a2f565b8181036040830152615b618186615445565b90508181036060830152615b75818561526a565b9050615b846080830184615a2f565b9695505050505050565b600060a082019050615ba36000830188614e86565b615bb06020830187615a2f565b8181036040830152615bc281866154fe565b90508181036060830152615bd68185615323565b9050615be56080830184615a2f565b9695505050505050565b60006080820190508181036000830152615c098187614e95565b90508181036020830152615c1d818661512a565b90508181036040830152615c318185615041565b90508181036060830152615c458184614f58565b905095945050505050565b6000606082019050615c6560008301866151fc565b615c726020830185615a4d565b615c7f6040830184615a7a565b949350505050565b6000602082019050615c9c600083018461520b565b92915050565b6000608082019050615cb7600083018761520b565b615cc4602083018661520b565b615cd16040830185615a2f565b615cde6060830184614e86565b95945050505050565b6000606082019050615cfc600083018661520b565b615d096020830185615a2f565b615d166040830184615a4d565b949350505050565b6000608082019050615d33600083018761520b565b615d406020830186615a4d565b615d4d604083018561520b565b615d5a606083018461520b565b95945050505050565b60006020820190508181036000830152615d7d818461526a565b905092915050565b6000602082019050615d9a60008301846153a3565b92915050565b6000602082019050615db560008301846153b2565b92915050565b6000602082019050615dd060008301846153c1565b92915050565b60006020820190508181036000830152615df08184615445565b905092915050565b60006020820190508181036000830152615e118161557e565b9050919050565b60006020820190508181036000830152615e31816155a1565b9050919050565b60006020820190508181036000830152615e51816155c4565b9050919050565b60006020820190508181036000830152615e71816155e7565b9050919050565b60006020820190508181036000830152615e918161560a565b9050919050565b60006020820190508181036000830152615eb18161562d565b9050919050565b60006020820190508181036000830152615ed181615650565b9050919050565b60006020820190508181036000830152615ef181615673565b9050919050565b60006020820190508181036000830152615f11816156b9565b9050919050565b60006020820190508181036000830152615f31816156dc565b9050919050565b60006020820190508181036000830152615f51816156ff565b9050919050565b60006020820190508181036000830152615f7181615722565b9050919050565b60006020820190508181036000830152615f9181615745565b9050919050565b60006020820190508181036000830152615fb181615768565b9050919050565b60006020820190508181036000830152615fd18161578b565b9050919050565b60006020820190508181036000830152615ff1816157ae565b9050919050565b60006020820190508181036000830152616011816157d1565b9050919050565b60006020820190508181036000830152616031816157f4565b9050919050565b6000602082019050818103600083015261605181615817565b9050919050565b600060208201905081810360008301526160718161583a565b9050919050565b600060208201905081810360008301526160918161585d565b9050919050565b600060208201905081810360008301526160b181615880565b9050919050565b600060208201905081810360008301526160d1816158c6565b9050919050565b600060208201905081810360008301526160f1816158e9565b9050919050565b600060208201905081810360008301526161118161590c565b9050919050565b600060208201905081810360008301526161318161592f565b9050919050565b6000602082019050818103600083015261615181615952565b9050919050565b6000602082019050818103600083015261617181615975565b9050919050565b6000602082019050818103600083015261619181615998565b9050919050565b600060208201905081810360008301526161b1816159bb565b9050919050565b60006060820190506161cd60008301846159de565b92915050565b60006020820190506161e86000830184615a2f565b92915050565b600061012082019050616204600083018c615a2f565b616211602083018b614e86565b8181036040830152616223818a614e95565b90508181036060830152616237818961512a565b9050818103608083015261624b8188615041565b905081810360a083015261625f8187614f58565b905061626e60c0830186615a2f565b61627b60e0830185615a2f565b81810361010083015261628e8184615445565b90509a9950505050505050505050565b6000610120820190506162b4600083018b615a2f565b6162c1602083018a614e86565b81810360408301526162d38189614ef3565b905081810360608301526162e78188615188565b905081810360808301526162fb81876150b6565b905081810360a083015261630f8186614fcd565b905061631e60c08301856153d0565b61632b60e08301846153d0565b81810361010083015261633d816158a3565b90509998505050505050505050565b600061014082019050616362600083018d615a2f565b61636f602083018c614e86565b61637c604083018b615a2f565b616389606083018a615a2f565b6163966080830189615a2f565b6163a360a0830188615a2f565b6163b060c0830187615a2f565b6163bd60e0830186615a2f565b6163cb6101008301856151fc565b6163d96101208301846151fc565b9b9a5050505050505050505050565b60006040820190506163fd6000830185615a2f565b61640a6020830184615a2f565b9392505050565b60006080820190506164266000830188615a2f565b6164336020830187615a4d565b6164406040830186615a5c565b81810360608301526164538184866153df565b90509695505050505050565b60006080820190506164746000830186615a2f565b6164816020830185615a4d565b61648e6040830184615a5c565b818103606083015261649f816158a3565b9050949350505050565b60006164b36164c4565b90506164bf8282616aad565b919050565b6000604051905090565b600067ffffffffffffffff8211156164e9576164e8616bed565b5b602082029050602081019050919050565b600067ffffffffffffffff82111561651557616514616bed565b5b602082029050602081019050919050565b600067ffffffffffffffff82111561654157616540616bed565b5b602082029050602081019050919050565b600067ffffffffffffffff82111561656d5761656c616bed565b5b602082029050602081019050919050565b600067ffffffffffffffff82111561659957616598616bed565b5b6165a282616c60565b9050602081019050919050565b600067ffffffffffffffff8211156165ca576165c9616bed565b5b6165d382616c60565b9050602081019050919050565b6000819050602082019050919050565b60008190508160005260206000209050919050565b6000819050602082019050919050565b60008190508160005260206000209050919050565b6000819050602082019050919050565b60008190508160005260206000209050919050565b6000819050602082019050919050565b60008190508160005260206000209050919050565b60008190508160005260206000209050919050565b60008190508160005260206000209050919050565b600081519050919050565b600081549050919050565b600081519050919050565b600081549050919050565b600081519050919050565b600081549050919050565b600081519050919050565b600081549050919050565b600081519050919050565b600081519050919050565b6000602082019050919050565b6000600182019050919050565b6000602082019050919050565b6000600182019050919050565b6000602082019050919050565b6000600182019050919050565b6000602082019050919050565b6000600182019050919050565b600082825260208201905092915050565b600082825260208201905092915050565b600082825260208201905092915050565b600082825260208201905092915050565b600082825260208201905092915050565b600082825260208201905092915050565b600082825260208201905092915050565b600082825260208201905092915050565b600081905092915050565b600061681282616958565b915061681d83616958565b9250827fffffffffffffffffffffffffffffffffffffffffffffffffffffffffffffffff0382111561685257616851616b31565b5b828201905092915050565b60006168688261696f565b91506168738361696f565b9250826bffffffffffffffffffffffff0382111561689457616893616b31565b5b828201905092915050565b60006168aa82616958565b91506168b583616958565b9250828210156168c8576168c7616b31565b5b828203905092915050565b600073ffffffffffffffffffffffffffffffffffffffff82169050919050565b6000819050919050565b600061690882616938565b9050919050565b60008115159050919050565b6000819050919050565b6000819050616933826175a0565b919050565b600073ffffffffffffffffffffffffffffffffffffffff82169050919050565b6000819050919050565b600060ff82169050919050565b60006bffffffffffffffffffffffff82169050919050565b600061699282616999565b9050919050565b60006169a482616938565b9050919050565b60006169b6826169bd565b9050919050565b60006169c882616938565b9050919050565b60006169da82616925565b9050919050565b60006169ec82616958565b9050919050565b60006169fe8261696f565b9050919050565b82818337600083830152505050565b60005b83811015616a32578082015181840152602081019050616a17565b83811115616a41576000848401525b50505050565b60006002820490506001821680616a5f57607f821691505b60208210811415616a7357616a72616b8f565b5b50919050565b6000616a8c616a8783616c71565b6168d3565b9050919050565b6000616aa6616aa183616c71565b6168f3565b9050919050565b616ab682616c60565b810181811067ffffffffffffffff82111715616ad557616ad4616bed565b5b80604052505050565b6000616ae982616958565b91507fffffffffffffffffffffffffffffffffffffffffffffffffffffffffffffffff821415616b1c57616b1b616b31565b5b600182019050919050565b6000819050919050565b7f4e487b7100000000000000000000000000000000000000000000000000000000600052601160045260246000fd5b7f4e487b7100000000000000000000000000000000000000000000000000000000600052602160045260246000fd5b7f4e487b7100000000000000000000000000000000000000000000000000000000600052602260045260246000fd5b7f4e487b7100000000000000000000000000000000000000000000000000000000600052603260045260246000fd5b7f4e487b7100000000000000000000000000000000000000000000000000000000600052604160045260246000fd5b6000616c288254616a79565b9050919050565b6000616c3b8254616a93565b9050919050565b600080fd5b600080fd5b600080fd5b600080fd5b600080fd5b600080fd5b6000601f19601f8301169050919050565b60008160001c9050919050565b7f495043543a3a63616e63656c3a2063616e6e6f742063616e63656c206578656360008201527f757465642070726f706f73616c00000000000000000000000000000000000000602082015250565b7f495043543a3a63617374566f7465496e7465726e616c3a20766f74696e67206960008201527f7320636c6f736564000000000000000000000000000000000000000000000000602082015250565b7f495043543a3a70726f706f73653a2070726f706f73657220766f74657320626560008201527f6c6f772070726f706f73616c207468726573686f6c6400000000000000000000602082015250565b7f495043543a3a70726f706f73653a206f6e65206c6976652070726f706f73616c60008201527f207065722070726f706f7365722c20666f756e6420616e20616c72656164792060208201527f70656e64696e672070726f706f73616c00000000000000000000000000000000604082015250565b7f495043543a3a696e697469616c697a653a2074696d656c6f636b2061646d696e60008201527f206973206e6f742061737369676e656420746f204950435444656c6567617465602082015250565b7f495043543a3a696e697469616c697a653a20696e76616c69642070726f706f7360008201527f616c207468726573686f6c640000000000000000000000000000000000000000602082015250565b7f4f6e6c792061646d696e2063616e2063616c6c00000000000000000000000000600082015250565b7f495043543a3a71756575654f72526576657274496e7465726e616c3a2069646560008201527f6e746963616c2070726f706f73616c20616374696f6e20616c7265616479207160208201527f7565756564206174206574610000000000000000000000000000000000000000604082015250565b7f1901000000000000000000000000000000000000000000000000000000000000600082015250565b7f495043543a3a657865637574653a2070726f706f73616c2063616e206f6e6c7960008201527f2062652065786563757465642069662069742069732071756575656400000000602082015250565b7f495043543a3a70726f706f73653a20746f6f206d616e7920616374696f6e7300600082015250565b7f495043543a3a5f73657451756f72756d566f7465733a20696e76616c6964207160008201527f756f72756d20766f746573000000000000000000000000000000000000000000602082015250565b7f495043543a3a71756575653a2070726f706f73616c2063616e206f6e6c79206260008201527f6520717565756564206966206974206973207375636365656465640000000000602082015250565b7f495043543a3a5f73657450726f706f73616c5468726573686f6c643a20696e7660008201527f616c69642070726f706f73616c207468726573686f6c64000000000000000000602082015250565b7f495043543a3a63617374566f7465496e7465726e616c3a20696e76616c69642060008201527f766f746520747970650000000000000000000000000000000000000000000000602082015250565b7f495043543a3a5f736574566f74696e67506572696f643a20696e76616c69642060008201527f766f74696e6720706572696f6400000000000000000000000000000000000000602082015250565b7f495043543a5f61636365707441646d696e3a2070656e64696e672061646d696e60008201527f206f6e6c79000000000000000000000000000000000000000000000000000000602082015250565b7f496e697469616c697a61626c653a20636f6e747261637420697320616c72656160008201527f647920696e697469616c697a6564000000000000000000000000000000000000602082015250565b7f495043543a3a63616e63656c3a2070726f706f7365722061626f76652074687260008201527f6573686f6c640000000000000000000000000000000000000000000000000000602082015250565b7f495043543a3a73746174653a20696e76616c69642070726f706f73616c206964600082015250565b7f6164646974696f6e206f766572666c6f77000000000000000000000000000000600082015250565b7f495043543a3a63617374566f746542795369673a20696e76616c69642073696760008201527f6e61747572650000000000000000000000000000000000000000000000000000602082015250565b7f495043543a3a696e697469616c697a653a20696e76616c696420766f74696e6760008201527f20706572696f6400000000000000000000000000000000000000000000000000602082015250565b50565b7f495043543a3a70726f706f73653a206d7573742070726f76696465206163746960008201527f6f6e730000000000000000000000000000000000000000000000000000000000602082015250565b7f495043543a3a70726f706f73653a2070726f706f73616c2066756e6374696f6e60008201527f20696e666f726d6174696f6e206172697479206d69736d617463680000000000602082015250565b7f495043543a3a70726f706f73653a206f6e65206c6976652070726f706f73616c60008201527f207065722070726f706f7365722c20666f756e6420616e20616c72656164792060208201527f6163746976652070726f706f73616c0000000000000000000000000000000000604082015250565b7f495043543a3a696e697469616c697a653a20696e76616c696420766f74696e6760008201527f2064656c61790000000000000000000000000000000000000000000000000000602082015250565b7f495043543a3a696e697469616c697a653a20696e76616c69642071756f72756d60008201527f20766f7465730000000000000000000000000000000000000000000000000000602082015250565b7f7375627472616374696f6e20756e646572666c6f770000000000000000000000600082015250565b7f495043543a3a63617374566f7465496e7465726e616c3a20766f74657220616c60008201527f726561647920766f746564000000000000000000000000000000000000000000602082015250565b7f495043543a3a5f736574566f74696e6744656c61793a20696e76616c6964207660008201527f6f74696e672064656c6179000000000000000000000000000000000000000000602082015250565b600881106175b1576175b0616b60565b5b50565b6175bd816168fd565b81146175c857600080fd5b50565b6175d48161690f565b81146175df57600080fd5b50565b6175eb8161691b565b81146175f657600080fd5b50565b61760281616958565b811461760d57600080fd5b50565b61761981616962565b811461762457600080fd5b50565b6176308161696f565b811461763b57600080fd5b5056fea2646970667358221220e731277c443043a26bd83a469766abc16b3c765f396199a00b4dcc4e4ca3021664736f6c63430008050033",
  "devdoc": {
    "kind": "dev",
    "methods": {
      "_acceptAdmin()": {
        "details": "Admin function for pending admin to accept role and update admin"
      },
      "_setPendingAdmin(address)": {
        "details": "Admin function to begin change of admin. The newPendingAdmin must call `_acceptAdmin` to finalize the transfer.",
        "params": {
          "newPendingAdmin": "New pending admin."
        }
      },
      "_setProposalThreshold(uint256)": {
        "details": "newProposalThreshold must be greater than the hardcoded min",
        "params": {
          "newProposalThreshold": "new proposal threshold"
        }
      },
      "_setQuorumVotes(uint256)": {
        "params": {
          "newQuorumVotes": "new quorum votes"
        }
      },
      "_setVotingDelay(uint256)": {
        "params": {
          "newVotingDelay": "new voting delay, in blocks"
        }
      },
      "_setVotingPeriod(uint256)": {
        "params": {
          "newVotingPeriod": "new voting period, in blocks"
        }
      },
      "cancel(uint256)": {
        "params": {
          "proposalId": "The id of the proposal to cancel"
        }
      },
      "castVote(uint256,uint8)": {
        "params": {
          "proposalId": "The id of the proposal to vote on",
          "support": "The support value for the vote. 0=against, 1=for, 2=abstain"
        }
      },
      "castVoteBySig(uint256,uint8,uint8,bytes32,bytes32)": {
        "details": "External function that accepts EIP-712 signatures for voting on proposals."
      },
      "castVoteWithReason(uint256,uint8,string)": {
        "params": {
          "proposalId": "The id of the proposal to vote on",
          "reason": "The reason given for the vote by the voter",
          "support": "The support value for the vote. 0=against, 1=for, 2=abstain"
        }
      },
      "execute(uint256)": {
        "params": {
          "proposalId": "The id of the proposal to execute"
        }
      },
      "getActions(uint256)": {
        "params": {
          "proposalId": "Proposal to query."
        },
        "returns": {
          "calldatas": "Calldatas for proposal calls.",
          "signatures": "Function signatures for proposal calls.",
          "targets": "Target addresses for proposal calls.",
          "values": "Eth values for proposal calls."
        }
      },
      "getReceipt(uint256,address)": {
        "params": {
          "proposalId": "the id of proposal",
          "voter": "The address of the voter"
        },
        "returns": {
          "_0": "The voting receipt"
        }
      },
      "initialize(address,address,address,uint256,uint256,uint256,uint256)": {
        "params": {
          "proposalThreshold_": "The initial proposal threshold",
          "quorumVotes_": "The initial quorum votes",
          "releaseToken_": "The address of the \"Release\" voting token. If none, specify the zero address.",
          "timelock_": "The address of the Timelock",
          "token_": "The address of the voting token",
          "votingDelay_": "The initial voting delay",
          "votingPeriod_": "The initial voting period"
        }
      },
      "propose(address[],uint256[],string[],bytes[],string)": {
        "params": {
          "calldatas": "Calldatas for proposal calls.",
          "description": "String description of the proposal.",
          "signatures": "Function signatures for proposal calls.",
          "targets": "Target addresses for proposal calls.",
          "values": "Eth values for proposal calls."
        },
        "returns": {
          "_0": "Proposal id of new proposal."
        }
      },
      "queue(uint256)": {
        "params": {
          "proposalId": "The id of the proposal to queue"
        }
      },
      "state(uint256)": {
        "params": {
          "proposalId": "The id of the proposal"
        },
        "returns": {
          "_0": "Proposal state"
        }
      }
    },
    "version": 1
  },
  "userdoc": {
    "events": {
      "NewAdmin(address,address)": {
        "notice": "Emitted when pendingAdmin is accepted, which means admin is updated"
      },
      "NewImplementation(address,address)": {
        "notice": "Emitted when implementation is changed"
      },
      "NewPendingAdmin(address,address)": {
        "notice": "Emitted when pendingAdmin is changed"
      },
      "ProposalCanceled(uint256)": {
        "notice": "An event emitted when a proposal has been canceled"
      },
      "ProposalCreated(uint256,address,address[],uint256[],string[],bytes[],uint256,uint256,string)": {
        "notice": "An event emitted when a new proposal is created"
      },
      "ProposalExecuted(uint256)": {
        "notice": "An event emitted when a proposal has been executed in the Timelock"
      },
      "ProposalQueued(uint256,uint256)": {
        "notice": "An event emitted when a proposal has been queued in the Timelock"
      },
      "ProposalThresholdSet(uint256,uint256)": {
        "notice": "Emitted when proposal threshold is set"
      },
      "QuorumVotesSet(uint256,uint256)": {
        "notice": "An event emitted when the quorum votes is set"
      },
      "VoteCast(address,uint256,uint8,uint256,string)": {
        "notice": "An event emitted when a vote has been cast on a proposal"
      },
      "VotingDelaySet(uint256,uint256)": {
        "notice": "An event emitted when the voting delay is set"
      },
      "VotingPeriodSet(uint256,uint256)": {
        "notice": "An event emitted when the voting period is set"
      }
    },
    "kind": "user",
    "methods": {
      "BALLOT_TYPEHASH()": {
        "notice": "The EIP-712 typehash for the ballot struct used by the contract"
      },
      "DOMAIN_TYPEHASH()": {
        "notice": "The EIP-712 typehash for the contract's domain"
      },
      "MAX_PROPOSAL_THRESHOLD()": {
        "notice": "The maximum setable proposal threshold"
      },
      "MAX_VOTING_DELAY()": {
        "notice": "The max setable voting delay"
      },
      "MAX_VOTING_PERIOD()": {
        "notice": "The max setable voting period"
      },
      "MIN_PROPOSAL_THRESHOLD()": {
        "notice": "The minimum setable proposal threshold"
      },
      "MIN_VOTING_DELAY()": {
        "notice": "The min setable voting delay"
      },
      "MIN_VOTING_PERIOD()": {
        "notice": "The minimum setable voting period"
      },
      "NAME()": {
        "notice": "The name of this contract"
      },
      "PROPOSAL_MAX_OPERATIONS()": {
        "notice": "The maximum number of actions that can be included in a proposal"
      },
      "_acceptAdmin()": {
        "notice": "Accepts transfer of admin rights. msg.sender must be pendingAdmin"
      },
      "_setPendingAdmin(address)": {
        "notice": "Begins transfer of admin rights. The newPendingAdmin must call `_acceptAdmin` to finalize the transfer."
      },
      "_setProposalThreshold(uint256)": {
        "notice": "Admin function for setting the proposal threshold"
      },
      "_setQuorumVotes(uint256)": {
        "notice": "Admin function for setting the quorum votes"
      },
      "_setVotingDelay(uint256)": {
        "notice": "Admin function for setting the voting delay"
      },
      "_setVotingPeriod(uint256)": {
        "notice": "Admin function for setting the voting period"
      },
      "admin()": {
        "notice": "Administrator for this contract"
      },
      "cancel(uint256)": {
        "notice": "Cancels a proposal only if sender is the proposer, or proposer delegates dropped below proposal threshold"
      },
      "castVote(uint256,uint8)": {
        "notice": "Cast a vote for a proposal"
      },
      "castVoteBySig(uint256,uint8,uint8,bytes32,bytes32)": {
        "notice": "Cast a vote for a proposal by signature"
      },
      "castVoteWithReason(uint256,uint8,string)": {
        "notice": "Cast a vote for a proposal with a reason"
      },
      "execute(uint256)": {
        "notice": "Executes a queued proposal if eta has passed"
      },
      "getActions(uint256)": {
        "notice": "Gets actions of a proposal."
      },
      "getReceipt(uint256,address)": {
        "notice": "Gets the receipt for a voter on a given proposal"
      },
      "implementation()": {
        "notice": "Active brains of Governor"
      },
      "initialize(address,address,address,uint256,uint256,uint256,uint256)": {
        "notice": "Used to initialize the contract during delegator contructor"
      },
      "latestProposalIds(address)": {
        "notice": "The latest proposal for each proposer"
      },
      "pendingAdmin()": {
        "notice": "Pending administrator for this contract"
      },
      "proposalCalldatas(uint256,uint256)": {
        "notice": "The official each proposal's calldatas: An ordered list of calldata to be passed to each call"
      },
      "proposalCount()": {
        "notice": "The total number of proposals"
      },
      "proposalReceipts(uint256,address)": {
        "notice": "The official each proposal's receipts: Receipts of ballots for the entire set of voters"
      },
      "proposalSignatures(uint256,uint256)": {
        "notice": "The official each proposal's signatures: An ordered list of function signatures to be called"
      },
      "proposalTargets(uint256,uint256)": {
        "notice": "The official each proposal's targets: An ordered list of target addresses for calls to be made"
      },
      "proposalThreshold()": {
        "notice": "The number of votes required in order for a voter to become a proposer"
      },
      "proposalValues(uint256,uint256)": {
        "notice": "The official each proposal's values: An ordered list of values (i.e. msg.value) to be passed to the calls to be made"
      },
      "proposals(uint256)": {
        "notice": "The official record of all proposals ever proposed"
      },
      "propose(address[],uint256[],string[],bytes[],string)": {
        "notice": "Function used to propose a new proposal. Sender must have delegates above the proposal threshold."
      },
      "queue(uint256)": {
        "notice": "Queues a proposal of state succeeded"
      },
      "quorumVotes()": {
        "notice": "The number of votes in support of a proposal required in order for a quorum to be reached and for a vote to succeed"
      },
      "releaseToken()": {
        "notice": "The address of the \"Release\" governance token"
      },
      "state(uint256)": {
        "notice": "Gets the state of a proposal"
      },
      "timelock()": {
        "notice": "The address of the Governance Timelock"
      },
      "token()": {
        "notice": "The address of the governance token"
      },
      "votingDelay()": {
        "notice": "The delay before voting on a proposal may take place, once proposed, in blocks"
      },
      "votingPeriod()": {
        "notice": "The duration of voting on a proposal, in blocks"
      }
    },
    "version": 1
  },
  "storageLayout": {
    "storage": [
      {
        "astId": 9802,
        "contract": "contracts/governor/IPCTDelegate.sol:IPCTDelegate",
        "label": "admin",
        "offset": 0,
        "slot": "0",
        "type": "t_address"
      },
      {
        "astId": 9805,
        "contract": "contracts/governor/IPCTDelegate.sol:IPCTDelegate",
        "label": "pendingAdmin",
        "offset": 0,
        "slot": "1",
        "type": "t_address"
      },
      {
        "astId": 9808,
        "contract": "contracts/governor/IPCTDelegate.sol:IPCTDelegate",
        "label": "implementation",
        "offset": 0,
        "slot": "2",
        "type": "t_address"
      },
      {
        "astId": 9692,
        "contract": "contracts/governor/IPCTDelegate.sol:IPCTDelegate",
        "label": "votingDelay",
        "offset": 0,
        "slot": "3",
        "type": "t_uint256"
      },
      {
        "astId": 9695,
        "contract": "contracts/governor/IPCTDelegate.sol:IPCTDelegate",
        "label": "votingPeriod",
        "offset": 0,
        "slot": "4",
        "type": "t_uint256"
      },
      {
        "astId": 9698,
        "contract": "contracts/governor/IPCTDelegate.sol:IPCTDelegate",
        "label": "proposalThreshold",
        "offset": 0,
        "slot": "5",
        "type": "t_uint256"
      },
      {
        "astId": 9701,
        "contract": "contracts/governor/IPCTDelegate.sol:IPCTDelegate",
        "label": "proposalCount",
        "offset": 0,
        "slot": "6",
        "type": "t_uint256"
      },
      {
        "astId": 9704,
        "contract": "contracts/governor/IPCTDelegate.sol:IPCTDelegate",
        "label": "quorumVotes",
        "offset": 0,
        "slot": "7",
        "type": "t_uint256"
      },
      {
        "astId": 9708,
        "contract": "contracts/governor/IPCTDelegate.sol:IPCTDelegate",
        "label": "timelock",
        "offset": 0,
        "slot": "8",
        "type": "t_contract(TimelockInterface)9987"
      },
      {
        "astId": 9712,
        "contract": "contracts/governor/IPCTDelegate.sol:IPCTDelegate",
        "label": "token",
        "offset": 0,
        "slot": "9",
        "type": "t_contract(IHasVotes)3661"
      },
      {
        "astId": 9716,
        "contract": "contracts/governor/IPCTDelegate.sol:IPCTDelegate",
        "label": "releaseToken",
        "offset": 0,
        "slot": "10",
        "type": "t_contract(IHasVotes)3661"
      },
      {
        "astId": 9722,
        "contract": "contracts/governor/IPCTDelegate.sol:IPCTDelegate",
        "label": "proposals",
        "offset": 0,
        "slot": "11",
        "type": "t_mapping(t_uint256,t_struct(Proposal)9780_storage)"
      },
      {
        "astId": 9728,
        "contract": "contracts/governor/IPCTDelegate.sol:IPCTDelegate",
        "label": "proposalTargets",
        "offset": 0,
        "slot": "12",
        "type": "t_mapping(t_uint256,t_array(t_address)dyn_storage)"
      },
      {
        "astId": 9734,
        "contract": "contracts/governor/IPCTDelegate.sol:IPCTDelegate",
        "label": "proposalValues",
        "offset": 0,
        "slot": "13",
        "type": "t_mapping(t_uint256,t_array(t_uint256)dyn_storage)"
      },
      {
        "astId": 9740,
        "contract": "contracts/governor/IPCTDelegate.sol:IPCTDelegate",
        "label": "proposalSignatures",
        "offset": 0,
        "slot": "14",
        "type": "t_mapping(t_uint256,t_array(t_string_storage)dyn_storage)"
      },
      {
        "astId": 9746,
        "contract": "contracts/governor/IPCTDelegate.sol:IPCTDelegate",
        "label": "proposalCalldatas",
        "offset": 0,
        "slot": "15",
        "type": "t_mapping(t_uint256,t_array(t_bytes_storage)dyn_storage)"
      },
      {
        "astId": 9754,
        "contract": "contracts/governor/IPCTDelegate.sol:IPCTDelegate",
        "label": "proposalReceipts",
        "offset": 0,
        "slot": "16",
        "type": "t_mapping(t_uint256,t_mapping(t_address,t_struct(Receipt)9787_storage))"
      },
      {
        "astId": 9759,
        "contract": "contracts/governor/IPCTDelegate.sol:IPCTDelegate",
        "label": "latestProposalIds",
        "offset": 0,
        "slot": "17",
        "type": "t_mapping(t_address,t_uint256)"
      },
      {
        "astId": 882,
        "contract": "contracts/governor/IPCTDelegate.sol:IPCTDelegate",
        "label": "_initialized",
        "offset": 0,
        "slot": "18",
        "type": "t_bool"
      },
      {
        "astId": 885,
        "contract": "contracts/governor/IPCTDelegate.sol:IPCTDelegate",
        "label": "_initializing",
        "offset": 1,
        "slot": "18",
        "type": "t_bool"
      }
    ],
    "types": {
      "t_address": {
        "encoding": "inplace",
        "label": "address",
        "numberOfBytes": "20"
      },
      "t_array(t_address)dyn_storage": {
        "base": "t_address",
        "encoding": "dynamic_array",
        "label": "address[]",
        "numberOfBytes": "32"
      },
      "t_array(t_bytes_storage)dyn_storage": {
        "base": "t_bytes_storage",
        "encoding": "dynamic_array",
        "label": "bytes[]",
        "numberOfBytes": "32"
      },
      "t_array(t_string_storage)dyn_storage": {
        "base": "t_string_storage",
        "encoding": "dynamic_array",
        "label": "string[]",
        "numberOfBytes": "32"
      },
      "t_array(t_uint256)dyn_storage": {
        "base": "t_uint256",
        "encoding": "dynamic_array",
        "label": "uint256[]",
        "numberOfBytes": "32"
      },
      "t_bool": {
        "encoding": "inplace",
        "label": "bool",
        "numberOfBytes": "1"
      },
      "t_bytes_storage": {
        "encoding": "bytes",
        "label": "bytes",
        "numberOfBytes": "32"
      },
      "t_contract(IHasVotes)3661": {
        "encoding": "inplace",
        "label": "contract IHasVotes",
        "numberOfBytes": "20"
      },
      "t_contract(TimelockInterface)9987": {
        "encoding": "inplace",
        "label": "contract TimelockInterface",
        "numberOfBytes": "20"
      },
      "t_mapping(t_address,t_struct(Receipt)9787_storage)": {
        "encoding": "mapping",
        "key": "t_address",
        "label": "mapping(address => struct IPCTDelegateStorageV1.Receipt)",
        "numberOfBytes": "32",
        "value": "t_struct(Receipt)9787_storage"
      },
      "t_mapping(t_address,t_uint256)": {
        "encoding": "mapping",
        "key": "t_address",
        "label": "mapping(address => uint256)",
        "numberOfBytes": "32",
        "value": "t_uint256"
      },
      "t_mapping(t_uint256,t_array(t_address)dyn_storage)": {
        "encoding": "mapping",
        "key": "t_uint256",
        "label": "mapping(uint256 => address[])",
        "numberOfBytes": "32",
        "value": "t_array(t_address)dyn_storage"
      },
      "t_mapping(t_uint256,t_array(t_bytes_storage)dyn_storage)": {
        "encoding": "mapping",
        "key": "t_uint256",
        "label": "mapping(uint256 => bytes[])",
        "numberOfBytes": "32",
        "value": "t_array(t_bytes_storage)dyn_storage"
      },
      "t_mapping(t_uint256,t_array(t_string_storage)dyn_storage)": {
        "encoding": "mapping",
        "key": "t_uint256",
        "label": "mapping(uint256 => string[])",
        "numberOfBytes": "32",
        "value": "t_array(t_string_storage)dyn_storage"
      },
      "t_mapping(t_uint256,t_array(t_uint256)dyn_storage)": {
        "encoding": "mapping",
        "key": "t_uint256",
        "label": "mapping(uint256 => uint256[])",
        "numberOfBytes": "32",
        "value": "t_array(t_uint256)dyn_storage"
      },
      "t_mapping(t_uint256,t_mapping(t_address,t_struct(Receipt)9787_storage))": {
        "encoding": "mapping",
        "key": "t_uint256",
        "label": "mapping(uint256 => mapping(address => struct IPCTDelegateStorageV1.Receipt))",
        "numberOfBytes": "32",
        "value": "t_mapping(t_address,t_struct(Receipt)9787_storage)"
      },
      "t_mapping(t_uint256,t_struct(Proposal)9780_storage)": {
        "encoding": "mapping",
        "key": "t_uint256",
        "label": "mapping(uint256 => struct IPCTDelegateStorageV1.Proposal)",
        "numberOfBytes": "32",
        "value": "t_struct(Proposal)9780_storage"
      },
      "t_string_storage": {
        "encoding": "bytes",
        "label": "string",
        "numberOfBytes": "32"
      },
      "t_struct(Proposal)9780_storage": {
        "encoding": "inplace",
        "label": "struct IPCTDelegateStorageV1.Proposal",
        "members": [
          {
            "astId": 9761,
            "contract": "contracts/governor/IPCTDelegate.sol:IPCTDelegate",
            "label": "id",
            "offset": 0,
            "slot": "0",
            "type": "t_uint256"
          },
          {
            "astId": 9763,
            "contract": "contracts/governor/IPCTDelegate.sol:IPCTDelegate",
            "label": "proposer",
            "offset": 0,
            "slot": "1",
            "type": "t_address"
          },
          {
            "astId": 9765,
            "contract": "contracts/governor/IPCTDelegate.sol:IPCTDelegate",
            "label": "eta",
            "offset": 0,
            "slot": "2",
            "type": "t_uint256"
          },
          {
            "astId": 9767,
            "contract": "contracts/governor/IPCTDelegate.sol:IPCTDelegate",
            "label": "startBlock",
            "offset": 0,
            "slot": "3",
            "type": "t_uint256"
          },
          {
            "astId": 9769,
            "contract": "contracts/governor/IPCTDelegate.sol:IPCTDelegate",
            "label": "endBlock",
            "offset": 0,
            "slot": "4",
            "type": "t_uint256"
          },
          {
            "astId": 9771,
            "contract": "contracts/governor/IPCTDelegate.sol:IPCTDelegate",
            "label": "forVotes",
            "offset": 0,
            "slot": "5",
            "type": "t_uint256"
          },
          {
            "astId": 9773,
            "contract": "contracts/governor/IPCTDelegate.sol:IPCTDelegate",
            "label": "againstVotes",
            "offset": 0,
            "slot": "6",
            "type": "t_uint256"
          },
          {
            "astId": 9775,
            "contract": "contracts/governor/IPCTDelegate.sol:IPCTDelegate",
            "label": "abstainVotes",
            "offset": 0,
            "slot": "7",
            "type": "t_uint256"
          },
          {
            "astId": 9777,
            "contract": "contracts/governor/IPCTDelegate.sol:IPCTDelegate",
            "label": "canceled",
            "offset": 0,
            "slot": "8",
            "type": "t_bool"
          },
          {
            "astId": 9779,
            "contract": "contracts/governor/IPCTDelegate.sol:IPCTDelegate",
            "label": "executed",
            "offset": 1,
            "slot": "8",
            "type": "t_bool"
          }
        ],
        "numberOfBytes": "288"
      },
      "t_struct(Receipt)9787_storage": {
        "encoding": "inplace",
        "label": "struct IPCTDelegateStorageV1.Receipt",
        "members": [
          {
            "astId": 9782,
            "contract": "contracts/governor/IPCTDelegate.sol:IPCTDelegate",
            "label": "hasVoted",
            "offset": 0,
            "slot": "0",
            "type": "t_bool"
          },
          {
            "astId": 9784,
            "contract": "contracts/governor/IPCTDelegate.sol:IPCTDelegate",
            "label": "support",
            "offset": 1,
            "slot": "0",
            "type": "t_uint8"
          },
          {
            "astId": 9786,
            "contract": "contracts/governor/IPCTDelegate.sol:IPCTDelegate",
            "label": "votes",
            "offset": 2,
            "slot": "0",
            "type": "t_uint96"
          }
        ],
        "numberOfBytes": "32"
      },
      "t_uint256": {
        "encoding": "inplace",
        "label": "uint256",
        "numberOfBytes": "32"
      },
      "t_uint8": {
        "encoding": "inplace",
        "label": "uint8",
        "numberOfBytes": "1"
      },
      "t_uint96": {
        "encoding": "inplace",
        "label": "uint96",
        "numberOfBytes": "12"
      }
    }
  }
}