{
  "address": "0xC556be82E3DE18130eFEc3a623e2214Be38B6bf7",
  "abi": [
    {
      "inputs": [
        {
          "internalType": "address",
          "name": "timelock_",
          "type": "address"
        },
        {
          "internalType": "address",
          "name": "token_",
          "type": "address"
        },
        {
          "internalType": "address",
          "name": "releaseToken_",
          "type": "address"
        },
        {
          "internalType": "address",
          "name": "admin_",
          "type": "address"
        },
        {
          "internalType": "address",
          "name": "implementation_",
          "type": "address"
        },
        {
          "internalType": "uint256",
          "name": "votingPeriod_",
          "type": "uint256"
        },
        {
          "internalType": "uint256",
          "name": "votingDelay_",
          "type": "uint256"
        },
        {
          "internalType": "uint256",
          "name": "proposalThreshold_",
          "type": "uint256"
        },
        {
          "internalType": "uint256",
          "name": "quorumVotes_",
          "type": "uint256"
        }
      ],
      "stateMutability": "nonpayable",
      "type": "constructor"
    },
    {
      "anonymous": false,
      "inputs": [
        {
          "indexed": false,
          "internalType": "address",
          "name": "oldAdmin",
          "type": "address"
        },
        {
          "indexed": false,
          "internalType": "address",
          "name": "newAdmin",
          "type": "address"
        }
      ],
      "name": "NewAdmin",
      "type": "event"
    },
    {
      "anonymous": false,
      "inputs": [
        {
          "indexed": false,
          "internalType": "address",
          "name": "oldImplementation",
          "type": "address"
        },
        {
          "indexed": false,
          "internalType": "address",
          "name": "newImplementation",
          "type": "address"
        }
      ],
      "name": "NewImplementation",
      "type": "event"
    },
    {
      "anonymous": false,
      "inputs": [
        {
          "indexed": false,
          "internalType": "address",
          "name": "oldPendingAdmin",
          "type": "address"
        },
        {
          "indexed": false,
          "internalType": "address",
          "name": "newPendingAdmin",
          "type": "address"
        }
      ],
      "name": "NewPendingAdmin",
      "type": "event"
    },
    {
      "anonymous": false,
      "inputs": [
        {
          "indexed": false,
          "internalType": "uint256",
          "name": "id",
          "type": "uint256"
        }
      ],
      "name": "ProposalCanceled",
      "type": "event"
    },
    {
      "anonymous": false,
      "inputs": [
        {
          "indexed": false,
          "internalType": "uint256",
          "name": "id",
          "type": "uint256"
        },
        {
          "indexed": false,
          "internalType": "address",
          "name": "proposer",
          "type": "address"
        },
        {
          "indexed": false,
          "internalType": "address[]",
          "name": "targets",
          "type": "address[]"
        },
        {
          "indexed": false,
          "internalType": "uint256[]",
          "name": "values",
          "type": "uint256[]"
        },
        {
          "indexed": false,
          "internalType": "string[]",
          "name": "signatures",
          "type": "string[]"
        },
        {
          "indexed": false,
          "internalType": "bytes[]",
          "name": "calldatas",
          "type": "bytes[]"
        },
        {
          "indexed": false,
          "internalType": "uint256",
          "name": "startBlock",
          "type": "uint256"
        },
        {
          "indexed": false,
          "internalType": "uint256",
          "name": "endBlock",
          "type": "uint256"
        },
        {
          "indexed": false,
          "internalType": "string",
          "name": "description",
          "type": "string"
        }
      ],
      "name": "ProposalCreated",
      "type": "event"
    },
    {
      "anonymous": false,
      "inputs": [
        {
          "indexed": false,
          "internalType": "uint256",
          "name": "id",
          "type": "uint256"
        }
      ],
      "name": "ProposalExecuted",
      "type": "event"
    },
    {
      "anonymous": false,
      "inputs": [
        {
          "indexed": false,
          "internalType": "uint256",
          "name": "id",
          "type": "uint256"
        },
        {
          "indexed": false,
          "internalType": "uint256",
          "name": "eta",
          "type": "uint256"
        }
      ],
      "name": "ProposalQueued",
      "type": "event"
    },
    {
      "anonymous": false,
      "inputs": [
        {
          "indexed": false,
          "internalType": "uint256",
          "name": "oldProposalThreshold",
          "type": "uint256"
        },
        {
          "indexed": false,
          "internalType": "uint256",
          "name": "newProposalThreshold",
          "type": "uint256"
        }
      ],
      "name": "ProposalThresholdSet",
      "type": "event"
    },
    {
      "anonymous": false,
      "inputs": [
        {
          "indexed": false,
          "internalType": "uint256",
          "name": "oldQuorumVotes",
          "type": "uint256"
        },
        {
          "indexed": false,
          "internalType": "uint256",
          "name": "newQuorumVotes",
          "type": "uint256"
        }
      ],
      "name": "QuorumVotesSet",
      "type": "event"
    },
    {
      "anonymous": false,
      "inputs": [
        {
          "indexed": true,
          "internalType": "address",
          "name": "voter",
          "type": "address"
        },
        {
          "indexed": false,
          "internalType": "uint256",
          "name": "proposalId",
          "type": "uint256"
        },
        {
          "indexed": false,
          "internalType": "uint8",
          "name": "support",
          "type": "uint8"
        },
        {
          "indexed": false,
          "internalType": "uint256",
          "name": "votes",
          "type": "uint256"
        },
        {
          "indexed": false,
          "internalType": "string",
          "name": "reason",
          "type": "string"
        }
      ],
      "name": "VoteCast",
      "type": "event"
    },
    {
      "anonymous": false,
      "inputs": [
        {
          "indexed": false,
          "internalType": "uint256",
          "name": "oldVotingDelay",
          "type": "uint256"
        },
        {
          "indexed": false,
          "internalType": "uint256",
          "name": "newVotingDelay",
          "type": "uint256"
        }
      ],
      "name": "VotingDelaySet",
      "type": "event"
    },
    {
      "anonymous": false,
      "inputs": [
        {
          "indexed": false,
          "internalType": "uint256",
          "name": "oldVotingPeriod",
          "type": "uint256"
        },
        {
          "indexed": false,
          "internalType": "uint256",
          "name": "newVotingPeriod",
          "type": "uint256"
        }
      ],
      "name": "VotingPeriodSet",
      "type": "event"
    },
    {
      "stateMutability": "nonpayable",
      "type": "fallback"
    },
    {
      "inputs": [
        {
          "internalType": "address",
          "name": "implementation_",
          "type": "address"
        }
      ],
      "name": "_setImplementation",
      "outputs": [],
      "stateMutability": "nonpayable",
      "type": "function"
    },
    {
      "inputs": [],
      "name": "admin",
      "outputs": [
        {
          "internalType": "address",
          "name": "",
          "type": "address"
        }
      ],
      "stateMutability": "view",
      "type": "function"
    },
    {
      "inputs": [],
      "name": "implementation",
      "outputs": [
        {
          "internalType": "address",
          "name": "",
          "type": "address"
        }
      ],
      "stateMutability": "view",
      "type": "function"
    },
    {
      "inputs": [],
      "name": "pendingAdmin",
      "outputs": [
        {
          "internalType": "address",
          "name": "",
          "type": "address"
        }
      ],
      "stateMutability": "view",
      "type": "function"
    }
  ],
  "transactionHash": "0x857930f62affd101d570a9aa2a2ef63aae545a47d9c0d413f4646acd7318b657",
  "args": [
    "0xC8fc5348199CeaF0B9B1b03Db38231F548Ff3267",
    "0xC8f9874aE8EDAa939e17099304FBCce4a1b27f89",
    "0xC8f9874aE8EDAa939e17099304FBCce4a1b27f89",
    "0xC8fc5348199CeaF0B9B1b03Db38231F548Ff3267",
    "0x242b6a91B30683cf8af06b350EefB70F4d873FFb",
    17280,
    720,
    "100000000000000000000000000",
    "400000000000000000000000000"
  ],
  "solcInputHash": "9c20b7d0ef3c95f34061765f16360135",
  "bytecode": "0x60806040523480156200001157600080fd5b5060405162000ead38038062000ead833981810160405281019062000037919062000407565b336000806101000a81548173ffffffffffffffffffffffffffffffffffffffff021916908373ffffffffffffffffffffffffffffffffffffffff16021790555062000124858a8a8a888888886040516024016200009b9796959493929190620005d3565b6040516020818303038152906040527f2b4656c8000000000000000000000000000000000000000000000000000000007bffffffffffffffffffffffffffffffffffffffffffffffffffffffff19166020820180517bffffffffffffffffffffffffffffffffffffffffffffffffffffffff83818316178352505050506200018460201b60201c565b62000135856200020c60201b60201c565b856000806101000a81548173ffffffffffffffffffffffffffffffffffffffff021916908373ffffffffffffffffffffffffffffffffffffffff1602179055505050505050505050506200082c565b6000808373ffffffffffffffffffffffffffffffffffffffff1683604051620001ae91906200058d565b600060405180830381855af49150503d8060008114620001eb576040519150601f19603f3d011682016040523d82523d6000602084013e620001f0565b606091505b5091509150600082141562000206573d60208201fd5b50505050565b60008054906101000a900473ffffffffffffffffffffffffffffffffffffffff1673ffffffffffffffffffffffffffffffffffffffff163373ffffffffffffffffffffffffffffffffffffffff16146200029d576040517f08c379a0000000000000000000000000000000000000000000000000000000008152600401620002949062000672565b60405180910390fd5b600073ffffffffffffffffffffffffffffffffffffffff168173ffffffffffffffffffffffffffffffffffffffff16141562000310576040517f08c379a0000000000000000000000000000000000000000000000000000000008152600401620003079062000650565b60405180910390fd5b6000600260009054906101000a900473ffffffffffffffffffffffffffffffffffffffff16905081600260006101000a81548173ffffffffffffffffffffffffffffffffffffffff021916908373ffffffffffffffffffffffffffffffffffffffff1602179055507fd604de94d45953f9138079ec1b82d533cb2160c906d1076d1f7ed54befbca97a81600260009054906101000a900473ffffffffffffffffffffffffffffffffffffffff16604051620003cd929190620005a6565b60405180910390a15050565b600081519050620003ea81620007f8565b92915050565b600081519050620004018162000812565b92915050565b60008060008060008060008060006101208a8c0312156200042d576200042c6200072f565b5b60006200043d8c828d01620003d9565b9950506020620004508c828d01620003d9565b9850506040620004638c828d01620003d9565b9750506060620004768c828d01620003d9565b9650506080620004898c828d01620003d9565b95505060a06200049c8c828d01620003f0565b94505060c0620004af8c828d01620003f0565b93505060e0620004c28c828d01620003f0565b925050610100620004d68c828d01620003f0565b9150509295985092959850929598565b620004f181620006bb565b82525050565b6000620005048262000694565b6200051081856200069f565b935062000522818560208601620006f9565b80840191505092915050565b60006200053d604183620006aa565b91506200054a8262000734565b606082019050919050565b600062000564602d83620006aa565b91506200057182620007a9565b604082019050919050565b6200058781620006ef565b82525050565b60006200059b8284620004f7565b915081905092915050565b6000604082019050620005bd6000830185620004e6565b620005cc6020830184620004e6565b9392505050565b600060e082019050620005ea600083018a620004e6565b620005f96020830189620004e6565b620006086040830188620004e6565b6200061760608301876200057c565b6200062660808301866200057c565b6200063560a08301856200057c565b6200064460c08301846200057c565b98975050505050505050565b600060208201905081810360008301526200066b816200052e565b9050919050565b600060208201905081810360008301526200068d8162000555565b9050919050565b600081519050919050565b600081905092915050565b600082825260208201905092915050565b6000620006c882620006cf565b9050919050565b600073ffffffffffffffffffffffffffffffffffffffff82169050919050565b6000819050919050565b60005b8381101562000719578082015181840152602081019050620006fc565b8381111562000729576000848401525b50505050565b600080fd5b7f4950435444656c656761746f723a3a5f736574496d706c656d656e746174696f60008201527f6e3a20696e76616c696420696d706c656d656e746174696f6e2061646472657360208201527f7300000000000000000000000000000000000000000000000000000000000000604082015250565b7f4950435444656c656761746f723a3a5f736574496d706c656d656e746174696f60008201527f6e3a2061646d696e206f6e6c7900000000000000000000000000000000000000602082015250565b6200080381620006bb565b81146200080f57600080fd5b50565b6200081d81620006ef565b81146200082957600080fd5b50565b610671806200083c6000396000f3fe608060405234801561001057600080fd5b50600436106100505760003560e01c806326782247146100fa5780635c60da1b14610118578063bb913f4114610136578063f851a4401461015257610051565b5b6000600260009054906101000a900473ffffffffffffffffffffffffffffffffffffffff1673ffffffffffffffffffffffffffffffffffffffff1660003660405161009d929190610461565b600060405180830381855af49150503d80600081146100d8576040519150601f19603f3d011682016040523d82523d6000602084013e6100dd565b606091505b505090506040513d6000823e81600081146100f6573d82f35b3d82fd5b610102610170565b60405161010f919061047a565b60405180910390f35b610120610196565b60405161012d919061047a565b60405180910390f35b610150600480360381019061014b91906103ba565b6101bc565b005b61015a610381565b604051610167919061047a565b60405180910390f35b600160009054906101000a900473ffffffffffffffffffffffffffffffffffffffff1681565b600260009054906101000a900473ffffffffffffffffffffffffffffffffffffffff1681565b60008054906101000a900473ffffffffffffffffffffffffffffffffffffffff1673ffffffffffffffffffffffffffffffffffffffff163373ffffffffffffffffffffffffffffffffffffffff161461024a576040517f08c379a0000000000000000000000000000000000000000000000000000000008152600401610241906104de565b60405180910390fd5b600073ffffffffffffffffffffffffffffffffffffffff168173ffffffffffffffffffffffffffffffffffffffff1614156102ba576040517f08c379a00000000000000000000000000000000000000000000000000000000081526004016102b1906104be565b60405180910390fd5b6000600260009054906101000a900473ffffffffffffffffffffffffffffffffffffffff16905081600260006101000a81548173ffffffffffffffffffffffffffffffffffffffff021916908373ffffffffffffffffffffffffffffffffffffffff1602179055507fd604de94d45953f9138079ec1b82d533cb2160c906d1076d1f7ed54befbca97a81600260009054906101000a900473ffffffffffffffffffffffffffffffffffffffff16604051610375929190610495565b60405180910390a15050565b60008054906101000a900473ffffffffffffffffffffffffffffffffffffffff1681565b6000813590506103b481610624565b92915050565b6000602082840312156103d0576103cf61055b565b5b60006103de848285016103a5565b91505092915050565b6103f08161051a565b82525050565b600061040283856104fe565b935061040f83858461054c565b82840190509392505050565b6000610428604183610509565b915061043382610560565b606082019050919050565b600061044b602d83610509565b9150610456826105d5565b604082019050919050565b600061046e8284866103f6565b91508190509392505050565b600060208201905061048f60008301846103e7565b92915050565b60006040820190506104aa60008301856103e7565b6104b760208301846103e7565b9392505050565b600060208201905081810360008301526104d78161041b565b9050919050565b600060208201905081810360008301526104f78161043e565b9050919050565b600081905092915050565b600082825260208201905092915050565b60006105258261052c565b9050919050565b600073ffffffffffffffffffffffffffffffffffffffff82169050919050565b82818337600083830152505050565b600080fd5b7f4950435444656c656761746f723a3a5f736574496d706c656d656e746174696f60008201527f6e3a20696e76616c696420696d706c656d656e746174696f6e2061646472657360208201527f7300000000000000000000000000000000000000000000000000000000000000604082015250565b7f4950435444656c656761746f723a3a5f736574496d706c656d656e746174696f60008201527f6e3a2061646d696e206f6e6c7900000000000000000000000000000000000000602082015250565b61062d8161051a565b811461063857600080fd5b5056fea2646970667358221220bf5fbc0cf54e0a2cce4e95adbd75075a90b9ad5e6efd814a9e796d8f32bcd93e64736f6c63430008050033",
  "devdoc": {
    "kind": "dev",
    "methods": {
      "_setImplementation(address)": {
        "params": {
          "implementation_": "The address of the new implementation for delegation"
        }
      }
    },
    "version": 1
  },
  "userdoc": {
    "events": {
      "NewAdmin(address,address)": {
        "notice": "Emitted when pendingAdmin is accepted, which means admin is updated"
      },
      "NewImplementation(address,address)": {
        "notice": "Emitted when implementation is changed"
      },
      "NewPendingAdmin(address,address)": {
        "notice": "Emitted when pendingAdmin is changed"
      },
      "ProposalCanceled(uint256)": {
        "notice": "An event emitted when a proposal has been canceled"
      },
      "ProposalCreated(uint256,address,address[],uint256[],string[],bytes[],uint256,uint256,string)": {
        "notice": "An event emitted when a new proposal is created"
      },
      "ProposalExecuted(uint256)": {
        "notice": "An event emitted when a proposal has been executed in the Timelock"
      },
      "ProposalQueued(uint256,uint256)": {
        "notice": "An event emitted when a proposal has been queued in the Timelock"
      },
      "ProposalThresholdSet(uint256,uint256)": {
        "notice": "Emitted when proposal threshold is set"
      },
      "QuorumVotesSet(uint256,uint256)": {
        "notice": "An event emitted when the quorum votes is set"
      },
      "VoteCast(address,uint256,uint8,uint256,string)": {
        "notice": "An event emitted when a vote has been cast on a proposal"
      },
      "VotingDelaySet(uint256,uint256)": {
        "notice": "An event emitted when the voting delay is set"
      },
      "VotingPeriodSet(uint256,uint256)": {
        "notice": "An event emitted when the voting period is set"
      }
    },
    "kind": "user",
    "methods": {
      "_setImplementation(address)": {
        "notice": "Called by the admin to update the implementation of the delegator"
      },
      "admin()": {
        "notice": "Administrator for this contract"
      },
      "implementation()": {
        "notice": "Active brains of Governor"
      },
      "pendingAdmin()": {
        "notice": "Pending administrator for this contract"
      }
    },
    "version": 1
  },
  "storageLayout": {
    "storage": [
      {
        "astId": 11184,
        "contract": "contracts/governor/IPCTDelegator.sol:IPCTDelegator",
        "label": "admin",
        "offset": 0,
        "slot": "0",
        "type": "t_address"
      },
      {
        "astId": 11187,
        "contract": "contracts/governor/IPCTDelegator.sol:IPCTDelegator",
        "label": "pendingAdmin",
        "offset": 0,
        "slot": "1",
        "type": "t_address"
      },
      {
        "astId": 11190,
        "contract": "contracts/governor/IPCTDelegator.sol:IPCTDelegator",
        "label": "implementation",
        "offset": 0,
        "slot": "2",
        "type": "t_address"
      }
    ],
    "types": {
      "t_address": {
        "encoding": "inplace",
        "label": "address",
        "numberOfBytes": "20"
      }
    }
  }
}