{
  "address": "0xf8F7FFC74027984337430F140BC9E7697f4D7f26",
  "abi": [
    {
      "anonymous": false,
      "inputs": [
        {
          "indexed": true,
          "internalType": "uint256",
          "name": "levelId",
          "type": "uint256"
        },
        {
          "indexed": true,
          "internalType": "address",
          "name": "sender",
          "type": "address"
        },
        {
          "indexed": false,
          "internalType": "uint256",
          "name": "amount",
          "type": "uint256"
        }
      ],
      "name": "LevelFunded",
      "type": "event"
    },
    {
      "anonymous": false,
      "inputs": [
        {
          "indexed": true,
          "internalType": "uint256",
          "name": "levelId",
          "type": "uint256"
        },
        {
          "indexed": true,
          "internalType": "enum ILearnAndEarn.LevelState",
          "name": "state",
          "type": "uint8"
        }
      ],
      "name": "LevelStateChanged",
      "type": "event"
    },
    {
      "anonymous": false,
      "inputs": [
        {
          "indexed": true,
          "internalType": "address",
          "name": "previousOwner",
          "type": "address"
        },
        {
          "indexed": true,
          "internalType": "address",
          "name": "newOwner",
          "type": "address"
        }
      ],
      "name": "OwnershipTransferred",
      "type": "event"
    },
    {
      "anonymous": false,
      "inputs": [
        {
          "indexed": false,
          "internalType": "address",
          "name": "account",
          "type": "address"
        }
      ],
      "name": "Paused",
      "type": "event"
    },
    {
      "anonymous": false,
      "inputs": [
        {
          "indexed": true,
          "internalType": "address",
          "name": "beneficiary",
          "type": "address"
        },
        {
          "indexed": true,
          "internalType": "uint256",
          "name": "levelId",
          "type": "uint256"
        }
      ],
      "name": "RewardClaimed",
      "type": "event"
    },
    {
      "anonymous": false,
      "inputs": [
        {
          "indexed": false,
          "internalType": "address",
          "name": "account",
          "type": "address"
        }
      ],
      "name": "Unpaused",
      "type": "event"
    },
    {
      "inputs": [
        {
          "internalType": "uint256",
          "name": "_levelId",
          "type": "uint256"
        },
        {
          "internalType": "contract IERC20Upgradeable",
          "name": "_token",
          "type": "address"
        }
      ],
      "name": "addLevel",
      "outputs": [],
      "stateMutability": "nonpayable",
      "type": "function"
    },
    {
      "inputs": [
        {
          "internalType": "uint256",
          "name": "_levelId",
          "type": "uint256"
        },
        {
          "internalType": "address",
          "name": "_fundRecipient",
          "type": "address"
        }
      ],
      "name": "cancelLevel",
      "outputs": [],
      "stateMutability": "nonpayable",
      "type": "function"
    },
    {
      "inputs": [
        {
          "internalType": "address",
          "name": "_beneficiary",
          "type": "address"
        },
        {
          "internalType": "uint256[]",
          "name": "_levelIds",
          "type": "uint256[]"
        },
        {
          "internalType": "uint256[]",
          "name": "_rewardAmounts",
          "type": "uint256[]"
        },
        {
          "internalType": "bytes[]",
          "name": "_signatures",
          "type": "bytes[]"
        }
      ],
      "name": "claimRewardForLevels",
      "outputs": [],
      "stateMutability": "nonpayable",
      "type": "function"
    },
    {
      "inputs": [],
      "name": "communityAdmin",
      "outputs": [
        {
          "internalType": "contract ICommunityAdmin",
          "name": "",
          "type": "address"
        }
      ],
      "stateMutability": "view",
      "type": "function"
    },
    {
      "inputs": [
        {
          "internalType": "uint256",
          "name": "_levelId",
          "type": "uint256"
        },
        {
          "internalType": "uint256",
          "name": "_amount",
          "type": "uint256"
        }
      ],
      "name": "fundLevel",
      "outputs": [],
      "stateMutability": "nonpayable",
      "type": "function"
    },
    {
      "inputs": [],
      "name": "getVersion",
      "outputs": [
        {
          "internalType": "uint256",
          "name": "",
          "type": "uint256"
        }
      ],
      "stateMutability": "pure",
      "type": "function"
    },
    {
      "inputs": [
        {
          "internalType": "address",
          "name": "_signerWalletAddress",
          "type": "address"
        },
        {
          "internalType": "contract ICommunityAdmin",
          "name": "_communityAdmin",
          "type": "address"
        }
      ],
      "name": "initialize",
      "outputs": [],
      "stateMutability": "nonpayable",
      "type": "function"
    },
    {
      "inputs": [
        {
          "internalType": "uint256",
          "name": "_levelId",
          "type": "uint256"
        },
        {
          "internalType": "address",
          "name": "_beneficiary",
          "type": "address"
        }
      ],
      "name": "levelClaims",
      "outputs": [
        {
          "internalType": "uint256",
          "name": "",
          "type": "uint256"
        }
      ],
      "stateMutability": "view",
      "type": "function"
    },
    {
      "inputs": [
        {
          "internalType": "uint256",
          "name": "_index",
          "type": "uint256"
        }
      ],
      "name": "levelListAt",
      "outputs": [
        {
          "internalType": "uint256",
          "name": "",
          "type": "uint256"
        }
      ],
      "stateMutability": "view",
      "type": "function"
    },
    {
      "inputs": [],
      "name": "levelListLength",
      "outputs": [
        {
          "internalType": "uint256",
          "name": "",
          "type": "uint256"
        }
      ],
      "stateMutability": "view",
      "type": "function"
    },
    {
      "inputs": [
        {
          "internalType": "uint256",
          "name": "",
          "type": "uint256"
        }
      ],
      "name": "levels",
      "outputs": [
        {
          "internalType": "contract IERC20Upgradeable",
          "name": "token",
          "type": "address"
        },
        {
          "internalType": "uint256",
          "name": "balance",
          "type": "uint256"
        },
        {
          "internalType": "enum ILearnAndEarn.LevelState",
          "name": "state",
          "type": "uint8"
        }
      ],
      "stateMutability": "view",
      "type": "function"
    },
    {
      "inputs": [],
      "name": "owner",
      "outputs": [
        {
          "internalType": "address",
          "name": "",
          "type": "address"
        }
      ],
      "stateMutability": "view",
      "type": "function"
    },
    {
      "inputs": [],
      "name": "pause",
      "outputs": [],
      "stateMutability": "nonpayable",
      "type": "function"
    },
    {
      "inputs": [
        {
          "internalType": "uint256",
          "name": "_levelId",
          "type": "uint256"
        }
      ],
      "name": "pauseLevel",
      "outputs": [],
      "stateMutability": "nonpayable",
      "type": "function"
    },
    {
      "inputs": [],
      "name": "paused",
      "outputs": [
        {
          "internalType": "bool",
          "name": "",
          "type": "bool"
        }
      ],
      "stateMutability": "view",
      "type": "function"
    },
    {
      "inputs": [],
      "name": "renounceOwnership",
      "outputs": [],
      "stateMutability": "nonpayable",
      "type": "function"
    },
    {
      "inputs": [],
      "name": "signerWalletAddress",
      "outputs": [
        {
          "internalType": "address",
          "name": "",
          "type": "address"
        }
      ],
      "stateMutability": "view",
      "type": "function"
    },
    {
      "inputs": [
        {
          "internalType": "address",
          "name": "newOwner",
          "type": "address"
        }
      ],
      "name": "transferOwnership",
      "outputs": [],
      "stateMutability": "nonpayable",
      "type": "function"
    },
    {
      "inputs": [],
      "name": "unpause",
      "outputs": [],
      "stateMutability": "nonpayable",
      "type": "function"
    },
    {
      "inputs": [
        {
          "internalType": "uint256",
          "name": "_levelId",
          "type": "uint256"
        }
      ],
      "name": "unpauseLevel",
      "outputs": [],
      "stateMutability": "nonpayable",
      "type": "function"
    },
    {
      "inputs": [
        {
          "internalType": "contract ICommunityAdmin",
          "name": "_newCommunityAdmin",
          "type": "address"
        }
      ],
      "name": "updateCommunityAdmin",
      "outputs": [],
      "stateMutability": "nonpayable",
      "type": "function"
    },
    {
      "inputs": [
        {
          "internalType": "address",
          "name": "_newSignerWalletAddress",
          "type": "address"
        }
      ],
      "name": "updateSignerWalletAddress",
      "outputs": [],
      "stateMutability": "nonpayable",
      "type": "function"
    }
  ],
  "transactionHash": "0x01eae2ac5bc659cc7fcc513cfd4e2f0ff5ce9a232b9538bc41a5f29aa45821ef",
  "args": [],
  "numDeployments": 1,
  "solcInputHash": "3f50bf71fc86d36741326eb3b3f872a2",
  "bytecode": "0x608060405234801561001057600080fd5b5061239b806100206000396000f3fe608060405234801561001057600080fd5b50600436106101425760003560e01c8063715018a6116100b8578063af2bc4381161007c578063af2bc43814610269578063b2596a671461027c578063b53fe8a5146102c7578063d33d4ec6146102da578063ec6f0245146102ed578063f2fde38b1461030057600080fd5b8063715018a6146102225780638456cb591461022a578063886b7767146102325780638da5cb5b146102455780639f2b30cf1461025657600080fd5b80633833a5fd1161010a5780633833a5fd146101a05780633f4ba83a146101b3578063485cc955146101bb5780635c975abb146101ce5780635fac917a146101e45780636a896a651461020f57600080fd5b80630b4a76a6146101475780630d8e6e2c1461015c5780630dca76671461017257806318a1d32f1461017a5780632effa6b51461018d575b600080fd5b61015a6101553660046120cf565b610313565b005b60015b6040519081526020015b60405180910390f35b61015f61044a565b61015a6101883660046120ab565b61045b565b61015a61019b366004612093565b610651565b61015a6101ae366004612093565b6107f2565b61015a61096c565b61015a6101c936600461201f565b610a41565b60335460ff166040519015158152602001610169565b60ca546101f7906001600160a01b031681565b6040516001600160a01b039091168152602001610169565b61015a61021d3660046120ab565b610b44565b61015a610ced565b61015a610d21565b61015f6102403660046120ab565b610df4565b6065546001600160a01b03166101f7565b60c9546101f7906001600160a01b031681565b61015a610277366004611f5a565b610e21565b6102b861028a366004612093565b60cd602052600090815260409020805460018201546002909201546001600160a01b03909116919060ff1683565b6040516101699392919061210c565b61015a6102d5366004611f76565b610f0e565b61015a6102e8366004611f5a565b611406565b61015f6102fb366004612093565b611452565b61015a61030e366004611f5a565b61145f565b600082815260cd602052604090206001600282015460ff16600381111561034a57634e487b7160e01b600052602160045260246000fd5b148061037b575060028082015460ff16600381111561037957634e487b7160e01b600052602160045260246000fd5b145b6103de5760405162461bcd60e51b815260206004820152602960248201527f4c6561726e416e644561726e3a3a66756e644c6576656c3a20496e76616c6964604482015268081b195d995b081a5960ba1b60648201526084015b60405180910390fd5b80546103f5906001600160a01b03163330856114fa565b8181600101600082825461040991906122a4565b9091555050604051828152339084907f2696a4597f56434a70ba48071ab5cd017c463335fae57a7dfa522bf0344266c19060200160405180910390a3505050565b600061045660cb61156b565b905090565b6065546001600160a01b031633148061050a575060ca60009054906101000a90046001600160a01b03166001600160a01b031663502791b66040518163ffffffff1660e01b815260040160206040518083038186803b1580156104bd57600080fd5b505afa1580156104d1573d6000803e3d6000fd5b505050506040513d601f19601f820116820180604052508101906104f59190612077565b6001600160a01b0316336001600160a01b0316145b6105265760405162461bcd60e51b81526004016103d590612182565b600082815260cd602052604090206001600282015460ff16600381111561055d57634e487b7160e01b600052602160045260246000fd5b148061058e575060028082015460ff16600381111561058c57634e487b7160e01b600052602160045260246000fd5b145b6105ee5760405162461bcd60e51b815260206004820152602b60248201527f4c6561726e416e644561726e3a3a63616e63656c4c6576656c3a20496e76616c60448201526a1a59081b195d995b081a5960aa1b60648201526084016103d5565b60028101805460ff191660031790556001810180546000909155815461061e906001600160a01b03168483611575565b600360405185907fd0f7851c679986391b7a6be75abf87357c7efad81350b7a10a256a22e729292f90600090a350505050565b6065546001600160a01b0316331480610700575060ca60009054906101000a90046001600160a01b03166001600160a01b031663502791b66040518163ffffffff1660e01b815260040160206040518083038186803b1580156106b357600080fd5b505afa1580156106c7573d6000803e3d6000fd5b505050506040513d601f19601f820116820180604052508101906106eb9190612077565b6001600160a01b0316336001600160a01b0316145b61071c5760405162461bcd60e51b81526004016103d590612182565b600081815260cd602052604090206001600282015460ff16600381111561075357634e487b7160e01b600052602160045260246000fd5b146107b35760405162461bcd60e51b815260206004820152602a60248201527f4c6561726e416e644561726e3a3a70617573654c6576656c3a20496e76616c6960448201526919081b195d995b081a5960b21b60648201526084016103d5565b6002818101805460ff1916821790555b60405183907fd0f7851c679986391b7a6be75abf87357c7efad81350b7a10a256a22e729292f90600090a35050565b6065546001600160a01b03163314806108a1575060ca60009054906101000a90046001600160a01b03166001600160a01b031663502791b66040518163ffffffff1660e01b815260040160206040518083038186803b15801561085457600080fd5b505afa158015610868573d6000803e3d6000fd5b505050506040513d601f19601f8201168201806040525081019061088c9190612077565b6001600160a01b0316336001600160a01b0316145b6108bd5760405162461bcd60e51b81526004016103d590612182565b600081815260cd6020526040902060028082015460ff1660038111156108f357634e487b7160e01b600052602160045260246000fd5b146109555760405162461bcd60e51b815260206004820152602c60248201527f4c6561726e416e644561726e3a3a756e70617573654c6576656c3a20496e766160448201526b1b1a59081b195d995b081a5960a21b60648201526084016103d5565b60028101805460ff191660019081179091556107c3565b6065546001600160a01b0316331480610a1b575060ca60009054906101000a90046001600160a01b03166001600160a01b031663502791b66040518163ffffffff1660e01b815260040160206040518083038186803b1580156109ce57600080fd5b505afa1580156109e2573d6000803e3d6000fd5b505050506040513d601f19601f82011682018060405250810190610a069190612077565b6001600160a01b0316336001600160a01b0316145b610a375760405162461bcd60e51b81526004016103d590612182565b610a3f6115a5565b565b600054610100900460ff16610a5c5760005460ff1615610a60565b303b155b610ac35760405162461bcd60e51b815260206004820152602e60248201527f496e697469616c697a61626c653a20636f6e747261637420697320616c72656160448201526d191e481a5b9a5d1a585b1a5e995960921b60648201526084016103d5565b600054610100900460ff16158015610ae5576000805461ffff19166101011790555b610aed611638565b610af561166f565b610afd61169e565b60c980546001600160a01b038086166001600160a01b03199283161790925560ca8054928516929091169190911790558015610b3f576000805461ff00191690555b505050565b6065546001600160a01b0316331480610bf3575060ca60009054906101000a90046001600160a01b03166001600160a01b031663502791b66040518163ffffffff1660e01b815260040160206040518083038186803b158015610ba657600080fd5b505afa158015610bba573d6000803e3d6000fd5b505050506040513d601f19601f82011682018060405250810190610bde9190612077565b6001600160a01b0316336001600160a01b0316145b610c0f5760405162461bcd60e51b81526004016103d590612182565b600082815260cd602052604081206002015460ff166003811115610c4357634e487b7160e01b600052602160045260246000fd5b14610ca25760405162461bcd60e51b815260206004820152602960248201527f4c6561726e416e644c6561726e3a3a6164644c6576656c3a20496e76616c6964604482015268081b195d995b081a5960ba1b60648201526084016103d5565b600082815260cd6020526040902060028101805460ff1916600117905580546001600160a01b0383166001600160a01b0319909116179055610ce560cb836116d1565b5060016107c3565b6065546001600160a01b03163314610d175760405162461bcd60e51b81526004016103d5906121df565b610a3f60006116e4565b6065546001600160a01b0316331480610dd0575060ca60009054906101000a90046001600160a01b03166001600160a01b031663502791b66040518163ffffffff1660e01b815260040160206040518083038186803b158015610d8357600080fd5b505afa158015610d97573d6000803e3d6000fd5b505050506040513d601f19601f82011682018060405250810190610dbb9190612077565b6001600160a01b0316336001600160a01b0316145b610dec5760405162461bcd60e51b81526004016103d590612182565b610a3f611736565b600082815260cd602090815260408083206001600160a01b03851684526003019091529020545b92915050565b6065546001600160a01b0316331480610ed0575060ca60009054906101000a90046001600160a01b03166001600160a01b031663502791b66040518163ffffffff1660e01b815260040160206040518083038186803b158015610e8357600080fd5b505afa158015610e97573d6000803e3d6000fd5b505050506040513d601f19601f82011682018060405250810190610ebb9190612077565b6001600160a01b0316336001600160a01b0316145b610eec5760405162461bcd60e51b81526004016103d590612182565b60c980546001600160a01b0319166001600160a01b0392909216919091179055565b60008584148015610f1e57508582145b610f715760405162461bcd60e51b8152602060048201526030602482015260008051602061234683398151915260448201526f6c733a20496e76616c6964206461746160801b60648201526084016103d5565b6000805b878210156113fa5760cd60008a8a85818110610fa157634e487b7160e01b600052603260045260246000fd5b905060200201358152602001908152602001600020925060016003811115610fd957634e487b7160e01b600052602160045260246000fd5b600284015460ff16600381111561100057634e487b7160e01b600052602160045260246000fd5b146110585760405162461bcd60e51b815260206004820152603460248201526000805160206123468339815191526044820152731b1cce88125b9d985b1a59081b195d995b081a5960621b60648201526084016103d5565b6001600160a01b038a1660009081526003840160205260409020541515806110a6575086868381811061109b57634e487b7160e01b600052603260045260246000fd5b905060200201356000145b156110b0576113e8565b898989848181106110d157634e487b7160e01b600052603260045260246000fd5b905060200201358888858181106110f857634e487b7160e01b600052603260045260246000fd5b9050602002013560405160200161112d939291906001600160a01b039390931683526020830191909152604082015260600190565b6040516020818303038152906040528051906020012090506111c085858481811061116857634e487b7160e01b600052603260045260246000fd5b905060200281019061117a919061225f565b8080601f0160208091040260200160405190810160405280939291908181526020018383808284376000920191909152506111ba92508591506117b19050565b90611804565b60c9546001600160a01b039081169116146112295760405162461bcd60e51b815260206004820152603560248201526000805160206123468339815191526044820152746c733a20496e76616c6964207369676e617475726560581b60648201526084016103d5565b86868381811061124957634e487b7160e01b600052603260045260246000fd5b6001600160a01b038d1660009081526003870160209081526040909120910292909201359091555086868381811061129157634e487b7160e01b600052603260045260246000fd5b905060200201358360010154101561130b5760405162461bcd60e51b8152602060048201526043602482015260008051602061234683398151915260448201527f6c733a204c6576656c20646f65736e2774206861766520656e6f7567682066756064820152626e647360e81b608482015260a4016103d5565b61134a8a88888581811061132f57634e487b7160e01b600052603260045260246000fd5b87546001600160a01b03169392602090910201359050611575565b86868381811061136a57634e487b7160e01b600052603260045260246000fd5b9050602002013583600101600082825461138491906122bc565b9091555089905088838181106113aa57634e487b7160e01b600052603260045260246000fd5b905060200201358a6001600160a01b03167f106f923f993c2149d49b4255ff723acafa1f2d94393f561d3eda32ae348f724160405160405180910390a35b816113f2816122ff565b925050610f75565b50505050505050505050565b6065546001600160a01b031633146114305760405162461bcd60e51b81526004016103d5906121df565b60ca80546001600160a01b0319166001600160a01b0392909216919091179055565b6000610e1b60cb83611828565b6065546001600160a01b031633146114895760405162461bcd60e51b81526004016103d5906121df565b6001600160a01b0381166114ee5760405162461bcd60e51b815260206004820152602660248201527f4f776e61626c653a206e6577206f776e657220697320746865207a65726f206160448201526564647265737360d01b60648201526084016103d5565b6114f7816116e4565b50565b6040516001600160a01b03808516602483015283166044820152606481018290526115659085906323b872dd60e01b906084015b60408051601f198184030181529190526020810180516001600160e01b03166001600160e01b031990931692909217909152611834565b50505050565b6000610e1b825490565b6040516001600160a01b038316602482015260448101829052610b3f90849063a9059cbb60e01b9060640161152e565b60335460ff166115ee5760405162461bcd60e51b815260206004820152601460248201527314185d5cd8589b194e881b9bdd081c185d5cd95960621b60448201526064016103d5565b6033805460ff191690557f5db9ee0a495bf2e6ff9c91a7834c1ba4fdd244a5e8aa4e537bd38aeae4b073aa335b6040516001600160a01b03909116815260200160405180910390a1565b600054610100900460ff1661165f5760405162461bcd60e51b81526004016103d590612214565b611667611906565b610a3f61192d565b600054610100900460ff166116965760405162461bcd60e51b81526004016103d590612214565b610a3f61195d565b600054610100900460ff166116c55760405162461bcd60e51b81526004016103d590612214565b6033805460ff19169055565b60006116dd838361198b565b9392505050565b606580546001600160a01b038381166001600160a01b0319831681179093556040519116919082907f8be0079c531659141344cd1fd0a4f28419497f9722a3daafe3b4186f6b6457e090600090a35050565b60335460ff161561177c5760405162461bcd60e51b815260206004820152601060248201526f14185d5cd8589b194e881c185d5cd95960821b60448201526064016103d5565b6033805460ff191660011790557f62e78cea01bee320cd4e420270b5ea74000d11b0c9f74754ebdbfc544b05a25861161b3390565b6040517f19457468657265756d205369676e6564204d6573736167653a0a3332000000006020820152603c8101829052600090605c01604051602081830303815290604052805190602001209050919050565b600080600061181385856119da565b9150915061182081611a4a565b509392505050565b60006116dd8383611c4b565b6000611889826040518060400160405280602081526020017f5361666545524332303a206c6f772d6c6576656c2063616c6c206661696c6564815250856001600160a01b0316611c839092919063ffffffff16565b805190915015610b3f57808060200190518101906118a79190612057565b610b3f5760405162461bcd60e51b815260206004820152602a60248201527f5361666545524332303a204552433230206f7065726174696f6e20646964206e6044820152691bdd081cdd58d8d9595960b21b60648201526084016103d5565b600054610100900460ff16610a3f5760405162461bcd60e51b81526004016103d590612214565b600054610100900460ff166119545760405162461bcd60e51b81526004016103d590612214565b610a3f336116e4565b600054610100900460ff166119845760405162461bcd60e51b81526004016103d590612214565b6001609755565b60008181526001830160205260408120546119d257508154600181810184556000848152602080822090930184905584548482528286019093526040902091909155610e1b565b506000610e1b565b600080825160411415611a115760208301516040840151606085015160001a611a0587828585611c9a565b94509450505050611a43565b825160401415611a3b5760208301516040840151611a30868383611d87565b935093505050611a43565b506000905060025b9250929050565b6000816004811115611a6c57634e487b7160e01b600052602160045260246000fd5b1415611a755750565b6001816004811115611a9757634e487b7160e01b600052602160045260246000fd5b1415611ae55760405162461bcd60e51b815260206004820152601860248201527f45434453413a20696e76616c6964207369676e6174757265000000000000000060448201526064016103d5565b6002816004811115611b0757634e487b7160e01b600052602160045260246000fd5b1415611b555760405162461bcd60e51b815260206004820152601f60248201527f45434453413a20696e76616c6964207369676e6174757265206c656e6774680060448201526064016103d5565b6003816004811115611b7757634e487b7160e01b600052602160045260246000fd5b1415611bd05760405162461bcd60e51b815260206004820152602260248201527f45434453413a20696e76616c6964207369676e6174757265202773272076616c604482015261756560f01b60648201526084016103d5565b6004816004811115611bf257634e487b7160e01b600052602160045260246000fd5b14156114f75760405162461bcd60e51b815260206004820152602260248201527f45434453413a20696e76616c6964207369676e6174757265202776272076616c604482015261756560f01b60648201526084016103d5565b6000826000018281548110611c7057634e487b7160e01b600052603260045260246000fd5b9060005260206000200154905092915050565b6060611c928484600085611db6565b949350505050565b6000807f7fffffffffffffffffffffffffffffff5d576e7357a4501ddfe92f46681b20a0831115611cd15750600090506003611d7e565b8460ff16601b14158015611ce957508460ff16601c14155b15611cfa5750600090506004611d7e565b6040805160008082526020820180845289905260ff881692820192909252606081018690526080810185905260019060a0016020604051602081039080840390855afa158015611d4e573d6000803e3d6000fd5b5050604051601f1901519150506001600160a01b038116611d7757600060019250925050611d7e565b9150600090505b94509492505050565b6000806001600160ff1b03831660ff84901c601b01611da887828885611c9a565b935093505050935093915050565b606082471015611e175760405162461bcd60e51b815260206004820152602660248201527f416464726573733a20696e73756666696369656e742062616c616e636520666f6044820152651c8818d85b1b60d21b60648201526084016103d5565b843b611e655760405162461bcd60e51b815260206004820152601d60248201527f416464726573733a2063616c6c20746f206e6f6e2d636f6e747261637400000060448201526064016103d5565b600080866001600160a01b03168587604051611e8191906120f0565b60006040518083038185875af1925050503d8060008114611ebe576040519150601f19603f3d011682016040523d82523d6000602084013e611ec3565b606091505b5091509150611ed3828286611ede565b979650505050505050565b60608315611eed5750816116dd565b825115611efd5782518084602001fd5b8160405162461bcd60e51b81526004016103d5919061214f565b60008083601f840112611f28578182fd5b50813567ffffffffffffffff811115611f3f578182fd5b6020830191508360208260051b8501011115611a4357600080fd5b600060208284031215611f6b578081fd5b81356116dd81612330565b60008060008060008060006080888a031215611f90578283fd5b8735611f9b81612330565b9650602088013567ffffffffffffffff80821115611fb7578485fd5b611fc38b838c01611f17565b909850965060408a0135915080821115611fdb578485fd5b611fe78b838c01611f17565b909650945060608a0135915080821115611fff578384fd5b5061200c8a828b01611f17565b989b979a50959850939692959293505050565b60008060408385031215612031578182fd5b823561203c81612330565b9150602083013561204c81612330565b809150509250929050565b600060208284031215612068578081fd5b815180151581146116dd578182fd5b600060208284031215612088578081fd5b81516116dd81612330565b6000602082840312156120a4578081fd5b5035919050565b600080604083850312156120bd578182fd5b82359150602083013561204c81612330565b600080604083850312156120e1578182fd5b50508035926020909101359150565b600082516121028184602087016122d3565b9190910192915050565b6001600160a01b038416815260208101839052606081016004831061214157634e487b7160e01b600052602160045260246000fd5b826040830152949350505050565b602081526000825180602084015261216e8160408501602087016122d3565b601f01601f19169190910160400192915050565b6020808252603d908201527f4c6561726e416e644561726e3a2063616c6c6572206973206e6f74207468652060408201527f6f776e6572206e6f7220496d706163744d61726b6574436f756e63696c000000606082015260800190565b6020808252818101527f4f776e61626c653a2063616c6c6572206973206e6f7420746865206f776e6572604082015260600190565b6020808252602b908201527f496e697469616c697a61626c653a20636f6e7472616374206973206e6f74206960408201526a6e697469616c697a696e6760a81b606082015260800190565b6000808335601e19843603018112612275578283fd5b83018035915067ffffffffffffffff82111561228f578283fd5b602001915036819003821315611a4357600080fd5b600082198211156122b7576122b761231a565b500190565b6000828210156122ce576122ce61231a565b500390565b60005b838110156122ee5781810151838201526020016122d6565b838111156115655750506000910152565b60006000198214156123135761231361231a565b5060010190565b634e487b7160e01b600052601160045260246000fd5b6001600160a01b03811681146114f757600080fdfe4c6561726e416e644561726e3a3a636c61696d526577617264466f724c657665a264697066735822122016e3ec4ad79529df3b7f642f895d9af72f0d3b50541f0b3380fc184b7a4e243864736f6c63430008040033",
  "devdoc": {
    "events": {
      "LevelFunded(uint256,address,uint256)": {
        "params": {
          "amount": "Amount of the fund",
          "levelId": "Id of the level",
          "sender": "Address of the sender"
        }
      },
      "LevelStateChanged(uint256,uint8)": {
        "params": {
          "levelId": "Id of the level",
          "state": "New state of the level"
        }
      },
      "RewardClaimed(address,uint256)": {
        "params": {
          "beneficiary": "address of the beneficiary to be rewarded",
          "levelId": "the id of the level"
        }
      }
    },
    "kind": "dev",
    "methods": {
      "addLevel(uint256,address)": {
        "params": {
          "_levelId": "the id of the level",
          "_token": "the token used for reward"
        }
      },
      "cancelLevel(uint256,address)": {
        "params": {
          "_fundRecipient": "the address of the recipient who will receive the funds allocated for this level",
          "_levelId": "id of the level"
        }
      },
      "claimRewardForLevels(address,uint256[],uint256[],bytes[])": {
        "params": {
          "_beneficiary": "address of the beneficiary to be rewarded",
          "_levelIds": "the ids of the levels",
          "_rewardAmounts": "the amounts of the tokens to be send to the beneficiary as reward for each level",
          "_signatures": "the signatures from the backend"
        }
      },
      "fundLevel(uint256,uint256)": {
        "params": {
          "_amount": "the amount to be funded",
          "_levelId": "the id of the level"
        }
      },
      "initialize(address,address)": {
        "params": {
          "_signerWalletAddress": "Address of the backend wallet"
        }
      },
      "levelClaims(uint256,address)": {
        "params": {
          "_beneficiary": "address of the beneficiary",
          "_levelId": "id of the level"
        },
        "returns": {
          "_0": "reward amount claimed by the beneficiary for a level"
        }
      },
      "levelListAt(uint256)": {
        "params": {
          "_index": "index of the level"
        },
        "returns": {
          "_0": "id of the level"
        }
      },
      "levelListLength()": {
        "returns": {
          "_0": "uint256 number of levels"
        }
      },
      "owner()": {
        "details": "Returns the address of the current owner."
      },
      "pause()": {
        "details": "Pauses the contract"
      },
      "pauseLevel(uint256)": {
        "params": {
          "_levelId": "id of the level"
        }
      },
      "paused()": {
        "details": "Returns true if the contract is paused, and false otherwise."
      },
      "renounceOwnership()": {
        "details": "Leaves the contract without owner. It will not be possible to call `onlyOwner` functions anymore. Can only be called by the current owner. NOTE: Renouncing ownership will leave the contract without an owner, thereby removing any functionality that is only available to the owner."
      },
      "transferOwnership(address)": {
        "details": "Transfers ownership of the contract to a new account (`newOwner`). Can only be called by the current owner."
      },
      "unpause()": {
        "details": "Unpauses the contract"
      },
      "unpauseLevel(uint256)": {
        "params": {
          "_levelId": "id of the level"
        }
      },
      "updateCommunityAdmin(address)": {
        "params": {
          "_newCommunityAdmin": "address of the new CommunityAdmin contract"
        }
      },
      "updateSignerWalletAddress(address)": {
        "params": {
          "_newSignerWalletAddress": "address of the new backend wallet"
        }
      }
    },
    "version": 1
  },
  "userdoc": {
    "events": {
      "LevelFunded(uint256,address,uint256)": {
        "notice": "Triggered when a level has been funded"
      },
      "LevelStateChanged(uint256,uint8)": {
        "notice": "Triggered when a level state has been changed"
      },
      "RewardClaimed(address,uint256)": {
        "notice": "Triggered when a reward has been claimed"
      }
    },
    "kind": "user",
    "methods": {
      "addLevel(uint256,address)": {
        "notice": "Adds a new level"
      },
      "cancelLevel(uint256,address)": {
        "notice": "Cancels a level"
      },
      "claimRewardForLevels(address,uint256[],uint256[],bytes[])": {
        "notice": "Allows beneficiaries to claim the reward for a list of levels using a signature"
      },
      "fundLevel(uint256,uint256)": {
        "notice": "Funds a level"
      },
      "getVersion()": {
        "notice": "Returns the current implementation version"
      },
      "initialize(address,address)": {
        "notice": "Used to initialize a new CommunityAdmin contract"
      },
      "levelClaims(uint256,address)": {
        "notice": "Returns the reward amount claimed by a beneficiary for a level"
      },
      "levelListAt(uint256)": {
        "notice": "Returns the id of a level from levelList"
      },
      "levelListLength()": {
        "notice": "Returns the number of levels"
      },
      "pauseLevel(uint256)": {
        "notice": "Pauses a level"
      },
      "unpauseLevel(uint256)": {
        "notice": "Unpauses a level"
      },
      "updateCommunityAdmin(address)": {
        "notice": "Updates the CommunityAdmin contract address"
      },
      "updateSignerWalletAddress(address)": {
        "notice": "Updates the address of the backend wallet"
      }
    },
    "version": 1
  },
  "storageLayout": {
    "storage": [
      {
        "astId": 542,
        "contract": "contracts/learnAndEarn/LearnAndEarnImplementation.sol:LearnAndEarnImplementation",
        "label": "_initialized",
        "offset": 0,
        "slot": "0",
        "type": "t_bool"
      },
      {
        "astId": 545,
        "contract": "contracts/learnAndEarn/LearnAndEarnImplementation.sol:LearnAndEarnImplementation",
        "label": "_initializing",
        "offset": 1,
        "slot": "0",
        "type": "t_bool"
      },
      {
        "astId": 1370,
        "contract": "contracts/learnAndEarn/LearnAndEarnImplementation.sol:LearnAndEarnImplementation",
        "label": "__gap",
        "offset": 0,
        "slot": "1",
        "type": "t_array(t_uint256)50_storage"
      },
      {
        "astId": 630,
        "contract": "contracts/learnAndEarn/LearnAndEarnImplementation.sol:LearnAndEarnImplementation",
        "label": "_paused",
        "offset": 0,
        "slot": "51",
        "type": "t_bool"
      },
      {
        "astId": 721,
        "contract": "contracts/learnAndEarn/LearnAndEarnImplementation.sol:LearnAndEarnImplementation",
        "label": "__gap",
        "offset": 0,
        "slot": "52",
        "type": "t_array(t_uint256)49_storage"
      },
      {
        "astId": 420,
        "contract": "contracts/learnAndEarn/LearnAndEarnImplementation.sol:LearnAndEarnImplementation",
        "label": "_owner",
        "offset": 0,
        "slot": "101",
        "type": "t_address"
      },
      {
        "astId": 534,
        "contract": "contracts/learnAndEarn/LearnAndEarnImplementation.sol:LearnAndEarnImplementation",
        "label": "__gap",
        "offset": 0,
        "slot": "102",
        "type": "t_array(t_uint256)49_storage"
      },
      {
        "astId": 736,
        "contract": "contracts/learnAndEarn/LearnAndEarnImplementation.sol:LearnAndEarnImplementation",
        "label": "_status",
        "offset": 0,
        "slot": "151",
        "type": "t_uint256"
      },
      {
        "astId": 779,
        "contract": "contracts/learnAndEarn/LearnAndEarnImplementation.sol:LearnAndEarnImplementation",
        "label": "__gap",
        "offset": 0,
        "slot": "152",
        "type": "t_array(t_uint256)49_storage"
      },
      {
        "astId": 24144,
        "contract": "contracts/learnAndEarn/LearnAndEarnImplementation.sol:LearnAndEarnImplementation",
        "label": "signerWalletAddress",
        "offset": 0,
        "slot": "201",
        "type": "t_address"
      },
      {
        "astId": 24148,
        "contract": "contracts/learnAndEarn/LearnAndEarnImplementation.sol:LearnAndEarnImplementation",
        "label": "communityAdmin",
        "offset": 0,
        "slot": "202",
        "type": "t_contract(ICommunityAdmin)15207"
      },
      {
        "astId": 24151,
        "contract": "contracts/learnAndEarn/LearnAndEarnImplementation.sol:LearnAndEarnImplementation",
        "label": "_levelList",
        "offset": 0,
        "slot": "203",
        "type": "t_struct(UintSet)5662_storage"
      },
      {
        "astId": 24157,
        "contract": "contracts/learnAndEarn/LearnAndEarnImplementation.sol:LearnAndEarnImplementation",
        "label": "levels",
        "offset": 0,
        "slot": "205",
        "type": "t_mapping(t_uint256,t_struct(Level)24026_storage)"
      }
    ],
    "types": {
      "t_address": {
        "encoding": "inplace",
        "label": "address",
        "numberOfBytes": "20"
      },
      "t_array(t_bytes32)dyn_storage": {
        "base": "t_bytes32",
        "encoding": "dynamic_array",
        "label": "bytes32[]",
        "numberOfBytes": "32"
      },
      "t_array(t_uint256)49_storage": {
        "base": "t_uint256",
        "encoding": "inplace",
        "label": "uint256[49]",
        "numberOfBytes": "1568"
      },
      "t_array(t_uint256)50_storage": {
        "base": "t_uint256",
        "encoding": "inplace",
        "label": "uint256[50]",
        "numberOfBytes": "1600"
      },
      "t_bool": {
        "encoding": "inplace",
        "label": "bool",
        "numberOfBytes": "1"
      },
      "t_bytes32": {
        "encoding": "inplace",
        "label": "bytes32",
        "numberOfBytes": "32"
      },
      "t_contract(ICommunityAdmin)15207": {
        "encoding": "inplace",
        "label": "contract ICommunityAdmin",
        "numberOfBytes": "20"
      },
      "t_contract(IERC20Upgradeable)858": {
        "encoding": "inplace",
        "label": "contract IERC20Upgradeable",
        "numberOfBytes": "20"
      },
      "t_enum(LevelState)24013": {
        "encoding": "inplace",
        "label": "enum ILearnAndEarn.LevelState",
        "numberOfBytes": "1"
      },
      "t_mapping(t_address,t_uint256)": {
        "encoding": "mapping",
        "key": "t_address",
        "label": "mapping(address => uint256)",
        "numberOfBytes": "32",
        "value": "t_uint256"
      },
      "t_mapping(t_bytes32,t_uint256)": {
        "encoding": "mapping",
        "key": "t_bytes32",
        "label": "mapping(bytes32 => uint256)",
        "numberOfBytes": "32",
        "value": "t_uint256"
      },
      "t_mapping(t_uint256,t_struct(Level)24026_storage)": {
        "encoding": "mapping",
        "key": "t_uint256",
        "label": "mapping(uint256 => struct ILearnAndEarn.Level)",
        "numberOfBytes": "32",
        "value": "t_struct(Level)24026_storage"
      },
      "t_struct(Level)24026_storage": {
        "encoding": "inplace",
        "label": "struct ILearnAndEarn.Level",
        "members": [
          {
            "astId": 24016,
            "contract": "contracts/learnAndEarn/LearnAndEarnImplementation.sol:LearnAndEarnImplementation",
            "label": "token",
            "offset": 0,
            "slot": "0",
            "type": "t_contract(IERC20Upgradeable)858"
          },
          {
            "astId": 24018,
            "contract": "contracts/learnAndEarn/LearnAndEarnImplementation.sol:LearnAndEarnImplementation",
            "label": "balance",
            "offset": 0,
            "slot": "1",
            "type": "t_uint256"
          },
          {
            "astId": 24021,
            "contract": "contracts/learnAndEarn/LearnAndEarnImplementation.sol:LearnAndEarnImplementation",
            "label": "state",
            "offset": 0,
            "slot": "2",
            "type": "t_enum(LevelState)24013"
          },
          {
            "astId": 24025,
            "contract": "contracts/learnAndEarn/LearnAndEarnImplementation.sol:LearnAndEarnImplementation",
            "label": "claims",
            "offset": 0,
            "slot": "3",
            "type": "t_mapping(t_address,t_uint256)"
          }
        ],
        "numberOfBytes": "128"
      },
      "t_struct(Set)5204_storage": {
        "encoding": "inplace",
        "label": "struct EnumerableSet.Set",
        "members": [
          {
            "astId": 5199,
            "contract": "contracts/learnAndEarn/LearnAndEarnImplementation.sol:LearnAndEarnImplementation",
            "label": "_values",
            "offset": 0,
            "slot": "0",
            "type": "t_array(t_bytes32)dyn_storage"
          },
          {
            "astId": 5203,
            "contract": "contracts/learnAndEarn/LearnAndEarnImplementation.sol:LearnAndEarnImplementation",
            "label": "_indexes",
            "offset": 0,
            "slot": "1",
            "type": "t_mapping(t_bytes32,t_uint256)"
          }
        ],
        "numberOfBytes": "64"
      },
      "t_struct(UintSet)5662_storage": {
        "encoding": "inplace",
        "label": "struct EnumerableSet.UintSet",
        "members": [
          {
            "astId": 5661,
            "contract": "contracts/learnAndEarn/LearnAndEarnImplementation.sol:LearnAndEarnImplementation",
            "label": "_inner",
            "offset": 0,
            "slot": "0",
            "type": "t_struct(Set)5204_storage"
          }
        ],
        "numberOfBytes": "64"
      },
      "t_uint256": {
        "encoding": "inplace",
        "label": "uint256",
        "numberOfBytes": "32"
      }
    }
  }
}