{
  "address": "0x64efC2641FEdDB17ca97B886522819622651A65f",
  "abi": [
    {
      "inputs": [
        {
          "internalType": "address",
          "name": "_token",
          "type": "address"
        },
        {
          "internalType": "bytes32",
          "name": "_merkleRoot",
          "type": "bytes32"
        }
      ],
      "stateMutability": "nonpayable",
      "type": "constructor"
    },
    {
      "anonymous": false,
      "inputs": [
        {
          "indexed": false,
          "internalType": "uint256",
          "name": "_index",
          "type": "uint256"
        },
        {
          "indexed": false,
          "internalType": "address",
          "name": "_account",
          "type": "address"
        },
        {
          "indexed": false,
          "internalType": "uint256",
          "name": "_amount",
          "type": "uint256"
        }
      ],
      "name": "Claimed",
      "type": "event"
    },
    {
      "anonymous": false,
      "inputs": [
        {
          "indexed": true,
          "internalType": "address",
          "name": "previousOwner",
          "type": "address"
        },
        {
          "indexed": true,
          "internalType": "address",
          "name": "newOwner",
          "type": "address"
        }
      ],
      "name": "OwnershipTransferred",
      "type": "event"
    },
    {
      "anonymous": false,
      "inputs": [
        {
          "indexed": false,
          "internalType": "address",
          "name": "_treasury",
          "type": "address"
        },
        {
          "indexed": false,
          "internalType": "uint256",
          "name": "_amount",
          "type": "uint256"
        }
      ],
      "name": "Withdrawn",
      "type": "event"
    },
    {
      "inputs": [
        {
          "internalType": "uint256",
          "name": "_index",
          "type": "uint256"
        },
        {
          "internalType": "address",
          "name": "_account",
          "type": "address"
        },
        {
          "internalType": "uint256",
          "name": "_amount",
          "type": "uint256"
        },
        {
          "internalType": "bytes32[]",
          "name": "_merkleProof",
          "type": "bytes32[]"
        }
      ],
      "name": "claim",
      "outputs": [],
      "stateMutability": "nonpayable",
      "type": "function"
    },
    {
      "inputs": [],
      "name": "claimPeriodEndBlock",
      "outputs": [
        {
          "internalType": "uint256",
          "name": "",
          "type": "uint256"
        }
      ],
      "stateMutability": "view",
      "type": "function"
    },
    {
      "inputs": [
        {
          "internalType": "uint256",
          "name": "_index",
          "type": "uint256"
        }
      ],
      "name": "isClaimed",
      "outputs": [
        {
          "internalType": "bool",
          "name": "",
          "type": "bool"
        }
      ],
      "stateMutability": "view",
      "type": "function"
    },
    {
      "inputs": [],
      "name": "merkleRoot",
      "outputs": [
        {
          "internalType": "bytes32",
          "name": "",
          "type": "bytes32"
        }
      ],
      "stateMutability": "view",
      "type": "function"
    },
    {
      "inputs": [],
      "name": "owner",
      "outputs": [
        {
          "internalType": "address",
          "name": "",
          "type": "address"
        }
      ],
      "stateMutability": "view",
      "type": "function"
    },
    {
      "inputs": [],
      "name": "renounceOwnership",
      "outputs": [],
      "stateMutability": "nonpayable",
      "type": "function"
    },
    {
      "inputs": [],
      "name": "token",
      "outputs": [
        {
          "internalType": "address",
          "name": "",
          "type": "address"
        }
      ],
      "stateMutability": "view",
      "type": "function"
    },
    {
      "inputs": [
        {
          "internalType": "contract IERC20",
          "name": "_token",
          "type": "address"
        },
        {
          "internalType": "address",
          "name": "_to",
          "type": "address"
        },
        {
          "internalType": "uint256",
          "name": "_amount",
          "type": "uint256"
        }
      ],
      "name": "transfer",
      "outputs": [],
      "stateMutability": "nonpayable",
      "type": "function"
    },
    {
      "inputs": [
        {
          "internalType": "address",
          "name": "newOwner",
          "type": "address"
        }
      ],
      "name": "transferOwnership",
      "outputs": [],
      "stateMutability": "nonpayable",
      "type": "function"
    },
    {
      "inputs": [],
      "name": "withdrawUnclaimed",
      "outputs": [],
      "stateMutability": "nonpayable",
      "type": "function"
    }
  ],
  "transactionHash": "0x79fa6949c1d20af4ceb47751a34f9524c20322bae41c99c600f647562162e63f",
  "args": [
    "0x7c2fCf8914BD045bE0A91ED7734668d7E2C19a23",
    "0x38dcc0e7f12d1a4e073ada370d73e10888b68a9809659d2d13be1540285f88f9"
  ],
  "solcInputHash": "bc78398ad6ba86cebe8213030fed1011",
  "bytecode": "0x60c060405234801561001057600080fd5b50604051610ef4380380610ef483398101604081905261002f916100b7565b61003833610067565b6001600160601b0319606083901b1660805260a081905261005c62603d80436100ef565b600155506101139050565b600080546001600160a01b038381166001600160a01b0319831681178455604051919092169283917f8be0079c531659141344cd1fd0a4f28419497f9722a3daafe3b4186f6b6457e09190a35050565b600080604083850312156100c9578182fd5b82516001600160a01b03811681146100df578283fd5b6020939093015192949293505050565b6000821982111561010e57634e487b7160e01b81526011600452602481fd5b500190565b60805160601c60a051610d9e6101566000396000818160bd01526102ef01526000818161017e0152818161037d0152818161049e015261052f0152610d9e6000f3fe608060405234801561001057600080fd5b506004361061009e5760003560e01c80639e34070f116100665780639e34070f14610127578063b9d596211461014a578063beabacc814610153578063f2fde38b14610166578063fc0c546a1461017957600080fd5b80632e7ba6ef146100a35780632eb4a7ab146100b857806333fc56d9146100f2578063715018a6146100fa5780638da5cb5b14610102575b600080fd5b6100b66100b1366004610ba6565b6101a0565b005b6100df7f000000000000000000000000000000000000000000000000000000000000000081565b6040519081526020015b60405180910390f35b6100b66103f5565b6100b6610592565b6000546001600160a01b03165b6040516001600160a01b0390911681526020016100e9565b61013a610135366004610b76565b6105c8565b60405190151581526020016100e9565b6100df60015481565b6100b6610161366004610b36565b610609565b6100b6610174366004610afa565b61064c565b61010f7f000000000000000000000000000000000000000000000000000000000000000081565b6001544311156102095760405162461bcd60e51b815260206004820152602960248201527f4d65726b6c654469737472696275746f723a20436c61696d20706572696f64206044820152681a185cc8195b99195960ba1b60648201526084015b60405180910390fd5b610212856106e7565b61026f5760405162461bcd60e51b815260206004820152602860248201527f4d65726b6c654469737472696275746f723a2044726f7020616c72656164792060448201526731b630b4b6b2b21760c11b6064820152608401610200565b60408051602081018790526bffffffffffffffffffffffff19606087901b16918101919091526054810184905260009060740160405160208183030381529060405280519060200120905061031a8383808060200260200160405190810160405280939291908181526020018383602002808284376000920191909152507f0000000000000000000000000000000000000000000000000000000000000000925085915061074f9050565b6103705760405162461bcd60e51b815260206004820152602160248201527f4d65726b6c654469737472696275746f723a20496e76616c69642070726f6f666044820152601760f91b6064820152608401610200565b6103a46001600160a01b037f000000000000000000000000000000000000000000000000000000000000000016868661080e565b604080518781526001600160a01b03871660208201529081018590527f4ec90e965519d92681267467f775ada5bd214aa92c0dc93d90a5e880ce9ed0269060600160405180910390a1505050505050565b6000546001600160a01b0316331461041f5760405162461bcd60e51b815260040161020090610c89565b60015443116104865760405162461bcd60e51b815260206004820152602d60248201527f4d65726b6c654469737472696275746f723a20436c61696d20706572696f642060448201526c1a185cc81b9bdd08195b991959609a1b6064820152608401610200565b6040516370a0823160e01b81523060048201526000907f00000000000000000000000000000000000000000000000000000000000000006001600160a01b0316906370a082319060240160206040518083038186803b1580156104e857600080fd5b505afa1580156104fc573d6000803e3d6000fd5b505050506040513d601f19601f820116820180604052508101906105209190610b8e565b90506105566001600160a01b037f000000000000000000000000000000000000000000000000000000000000000016338361080e565b60408051338152602081018390527f7084f5476618d8e60b11ef0d7d3f06914655adb8793e28ff7f018d4c76d505d5910160405180910390a150565b6000546001600160a01b031633146105bc5760405162461bcd60e51b815260040161020090610c89565b6105c66000610860565b565b6000806105d761010084610cbe565b905060006105e761010085610d29565b60009283526002602052604090922054600190921b9182169091149392505050565b6000546001600160a01b031633146106335760405162461bcd60e51b815260040161020090610c89565b6106476001600160a01b038416838361080e565b505050565b6000546001600160a01b031633146106765760405162461bcd60e51b815260040161020090610c89565b6001600160a01b0381166106db5760405162461bcd60e51b815260206004820152602660248201527f4f776e61626c653a206e6577206f776e657220697320746865207a65726f206160448201526564647265737360d01b6064820152608401610200565b6106e481610860565b50565b6000806106f661010084610cbe565b9050600061070661010085610d29565b6000838152600260205260409020549091506001821b8082168114156107325750600095945050505050565b600093845260026020526040909320921790915550600192915050565b600081815b855181101561080157600086828151811061077f57634e487b7160e01b600052603260045260246000fd5b602002602001015190508083116107c15760408051602081018590529081018290526060016040516020818303038152906040528051906020012092506107ee565b60408051602081018390529081018490526060016040516020818303038152906040528051906020012092505b50806107f981610d02565b915050610754565b50831490505b9392505050565b604080516001600160a01b038416602482015260448082018490528251808303909101815260649091019091526020810180516001600160e01b031663a9059cbb60e01b1790526106479084906108b0565b600080546001600160a01b038381166001600160a01b0319831681178455604051919092169283917f8be0079c531659141344cd1fd0a4f28419497f9722a3daafe3b4186f6b6457e09190a35050565b6000610905826040518060400160405280602081526020017f5361666545524332303a206c6f772d6c6576656c2063616c6c206661696c6564815250856001600160a01b03166109829092919063ffffffff16565b80519091501561064757808060200190518101906109239190610b16565b6106475760405162461bcd60e51b815260206004820152602a60248201527f5361666545524332303a204552433230206f7065726174696f6e20646964206e6044820152691bdd081cdd58d8d9595960b21b6064820152608401610200565b60606109918484600085610999565b949350505050565b6060824710156109fa5760405162461bcd60e51b815260206004820152602660248201527f416464726573733a20696e73756666696369656e742062616c616e636520666f6044820152651c8818d85b1b60d21b6064820152608401610200565b843b610a485760405162461bcd60e51b815260206004820152601d60248201527f416464726573733a2063616c6c20746f206e6f6e2d636f6e74726163740000006044820152606401610200565b600080866001600160a01b03168587604051610a649190610c3a565b60006040518083038185875af1925050503d8060008114610aa1576040519150601f19603f3d011682016040523d82523d6000602084013e610aa6565b606091505b5091509150610ab6828286610ac1565b979650505050505050565b60608315610ad0575081610807565b825115610ae05782518084602001fd5b8160405162461bcd60e51b81526004016102009190610c56565b600060208284031215610b0b578081fd5b813561080781610d53565b600060208284031215610b27578081fd5b81518015158114610807578182fd5b600080600060608486031215610b4a578182fd5b8335610b5581610d53565b92506020840135610b6581610d53565b929592945050506040919091013590565b600060208284031215610b87578081fd5b5035919050565b600060208284031215610b9f578081fd5b5051919050565b600080600080600060808688031215610bbd578081fd5b853594506020860135610bcf81610d53565b935060408601359250606086013567ffffffffffffffff80821115610bf2578283fd5b818801915088601f830112610c05578283fd5b813581811115610c13578384fd5b8960208260051b8501011115610c27578384fd5b9699959850939650602001949392505050565b60008251610c4c818460208701610cd2565b9190910192915050565b6020815260008251806020840152610c75816040850160208701610cd2565b601f01601f19169190910160400192915050565b6020808252818101527f4f776e61626c653a2063616c6c6572206973206e6f7420746865206f776e6572604082015260600190565b600082610ccd57610ccd610d3d565b500490565b60005b83811015610ced578181015183820152602001610cd5565b83811115610cfc576000848401525b50505050565b6000600019821415610d2257634e487b7160e01b81526011600452602481fd5b5060010190565b600082610d3857610d38610d3d565b500690565b634e487b7160e01b600052601260045260246000fd5b6001600160a01b03811681146106e457600080fdfea2646970667358221220ec7fd507ab2cbcc73cc2af681b3ec074bc8e38400cb55273aef7dc9a517a6ce364736f6c63430008040033",
  "devdoc": {
    "kind": "dev",
    "methods": {
      "owner()": {
        "details": "Returns the address of the current owner."
      },
      "renounceOwnership()": {
        "details": "Leaves the contract without owner. It will not be possible to call `onlyOwner` functions anymore. Can only be called by the current owner. NOTE: Renouncing ownership will leave the contract without an owner, thereby removing any functionality that is only available to the owner."
      },
      "transfer(address,address,uint256)": {
        "params": {
          "_amount": "amount of the transaction",
          "_to": "address of the receiver",
          "_token": "address of the ERC20 token"
        }
      },
      "transferOwnership(address)": {
        "details": "Transfers ownership of the contract to a new account (`newOwner`). Can only be called by the current owner."
      }
    },
    "version": 1
  },
  "userdoc": {
    "kind": "user",
    "methods": {
      "transfer(address,address,uint256)": {
        "notice": "Transfers an amount of an ERC20 from this contract to an address"
      }
    },
    "version": 1
  },
  "storageLayout": {
    "storage": [
      {
        "astId": 1620,
        "contract": "contracts/airgrab/MerkleDistributor.sol:MerkleDistributor",
        "label": "_owner",
        "offset": 0,
        "slot": "0",
        "type": "t_address"
      },
      {
        "astId": 6823,
        "contract": "contracts/airgrab/MerkleDistributor.sol:MerkleDistributor",
        "label": "claimPeriodEndBlock",
        "offset": 0,
        "slot": "1",
        "type": "t_uint256"
      },
      {
        "astId": 6832,
        "contract": "contracts/airgrab/MerkleDistributor.sol:MerkleDistributor",
        "label": "claimedBitMap",
        "offset": 0,
        "slot": "2",
        "type": "t_mapping(t_uint256,t_uint256)"
      }
    ],
    "types": {
      "t_address": {
        "encoding": "inplace",
        "label": "address",
        "numberOfBytes": "20"
      },
      "t_mapping(t_uint256,t_uint256)": {
        "encoding": "mapping",
        "key": "t_uint256",
        "label": "mapping(uint256 => uint256)",
        "numberOfBytes": "32",
        "value": "t_uint256"
      },
      "t_uint256": {
        "encoding": "inplace",
        "label": "uint256",
        "numberOfBytes": "32"
      }
    }
  }
}