{
  "address": "0xb168142ce878C4D5da46Fc517fE6e8db0BBC9e2b",
  "abi": [
    {
      "anonymous": false,
      "inputs": [
        {
          "indexed": true,
          "internalType": "address",
          "name": "userAddress",
          "type": "address"
        },
        {
          "indexed": true,
          "internalType": "address",
          "name": "tokenAddress",
          "type": "address"
        },
        {
          "indexed": false,
          "internalType": "uint256",
          "name": "loanId",
          "type": "uint256"
        },
        {
          "indexed": false,
          "internalType": "uint256",
          "name": "amount",
          "type": "uint256"
        },
        {
          "indexed": false,
          "internalType": "uint256",
          "name": "period",
          "type": "uint256"
        },
        {
          "indexed": false,
          "internalType": "uint256",
          "name": "dailyInterest",
          "type": "uint256"
        },
        {
          "indexed": false,
          "internalType": "uint256",
          "name": "claimDeadline",
          "type": "uint256"
        }
      ],
      "name": "LoanAdded",
      "type": "event"
    },
    {
      "anonymous": false,
      "inputs": [
        {
          "indexed": true,
          "internalType": "address",
          "name": "userAddress",
          "type": "address"
        },
        {
          "indexed": false,
          "internalType": "uint256",
          "name": "loanId",
          "type": "uint256"
        }
      ],
      "name": "LoanCanceled",
      "type": "event"
    },
    {
      "anonymous": false,
      "inputs": [
        {
          "indexed": true,
          "internalType": "address",
          "name": "userAddress",
          "type": "address"
        },
        {
          "indexed": false,
          "internalType": "uint256",
          "name": "loanId",
          "type": "uint256"
        }
      ],
      "name": "LoanClaimed",
      "type": "event"
    },
    {
      "anonymous": false,
      "inputs": [
        {
          "indexed": true,
          "internalType": "address",
          "name": "_userAddress",
          "type": "address"
        },
        {
          "indexed": false,
          "internalType": "uint256",
          "name": "_loanId",
          "type": "uint256"
        },
        {
          "indexed": false,
          "internalType": "uint256",
          "name": "_newPeriod",
          "type": "uint256"
        },
        {
          "indexed": false,
          "internalType": "uint256",
          "name": "_newDailyInterest",
          "type": "uint256"
        },
        {
          "indexed": false,
          "internalType": "uint256",
          "name": "_newLastComputedDebt",
          "type": "uint256"
        },
        {
          "indexed": false,
          "internalType": "uint256",
          "name": "_newLastComputedDate",
          "type": "uint256"
        }
      ],
      "name": "LoanEdited",
      "type": "event"
    },
    {
      "anonymous": false,
      "inputs": [
        {
          "indexed": true,
          "internalType": "address",
          "name": "managerAddress",
          "type": "address"
        },
        {
          "indexed": false,
          "internalType": "uint256",
          "name": "lentAmountLimit",
          "type": "uint256"
        }
      ],
      "name": "ManagerAdded",
      "type": "event"
    },
    {
      "anonymous": false,
      "inputs": [
        {
          "indexed": true,
          "internalType": "address",
          "name": "borrowerAddress",
          "type": "address"
        },
        {
          "indexed": true,
          "internalType": "address",
          "name": "managerAddress",
          "type": "address"
        }
      ],
      "name": "ManagerChanged",
      "type": "event"
    },
    {
      "anonymous": false,
      "inputs": [
        {
          "indexed": true,
          "internalType": "address",
          "name": "managerAddress",
          "type": "address"
        }
      ],
      "name": "ManagerRemoved",
      "type": "event"
    },
    {
      "anonymous": false,
      "inputs": [
        {
          "indexed": true,
          "internalType": "address",
          "name": "previousOwner",
          "type": "address"
        },
        {
          "indexed": true,
          "internalType": "address",
          "name": "newOwner",
          "type": "address"
        }
      ],
      "name": "OwnershipTransferred",
      "type": "event"
    },
    {
      "anonymous": false,
      "inputs": [
        {
          "indexed": false,
          "internalType": "address",
          "name": "account",
          "type": "address"
        }
      ],
      "name": "Paused",
      "type": "event"
    },
    {
      "anonymous": false,
      "inputs": [
        {
          "indexed": true,
          "internalType": "address",
          "name": "userAddress",
          "type": "address"
        },
        {
          "indexed": false,
          "internalType": "uint256",
          "name": "loanId",
          "type": "uint256"
        },
        {
          "indexed": false,
          "internalType": "uint256",
          "name": "repaymentAmount",
          "type": "uint256"
        },
        {
          "indexed": false,
          "internalType": "uint256",
          "name": "currentDebt",
          "type": "uint256"
        }
      ],
      "name": "RepaymentAdded",
      "type": "event"
    },
    {
      "anonymous": false,
      "inputs": [
        {
          "indexed": true,
          "internalType": "address",
          "name": "tokenAddress",
          "type": "address"
        }
      ],
      "name": "TokenAdded",
      "type": "event"
    },
    {
      "anonymous": false,
      "inputs": [
        {
          "indexed": true,
          "internalType": "address",
          "name": "tokenAddress",
          "type": "address"
        }
      ],
      "name": "TokenRemoved",
      "type": "event"
    },
    {
      "anonymous": false,
      "inputs": [
        {
          "indexed": false,
          "internalType": "address",
          "name": "account",
          "type": "address"
        }
      ],
      "name": "Unpaused",
      "type": "event"
    },
    {
      "anonymous": false,
      "inputs": [
        {
          "indexed": true,
          "internalType": "address",
          "name": "oldWalletAddress",
          "type": "address"
        },
        {
          "indexed": true,
          "internalType": "address",
          "name": "newWalletAddress",
          "type": "address"
        }
      ],
      "name": "UserAddressChanged",
      "type": "event"
    },
    {
      "inputs": [
        {
          "internalType": "address",
          "name": "_userAddress",
          "type": "address"
        },
        {
          "internalType": "address",
          "name": "_tokenAddress",
          "type": "address"
        },
        {
          "internalType": "uint256",
          "name": "_amount",
          "type": "uint256"
        },
        {
          "internalType": "uint256",
          "name": "_period",
          "type": "uint256"
        },
        {
          "internalType": "uint256",
          "name": "_dailyInterest",
          "type": "uint256"
        },
        {
          "internalType": "uint256",
          "name": "_claimDeadline",
          "type": "uint256"
        }
      ],
      "name": "addLoan",
      "outputs": [],
      "stateMutability": "nonpayable",
      "type": "function"
    },
    {
      "inputs": [
        {
          "internalType": "address[]",
          "name": "_userAddresses",
          "type": "address[]"
        },
        {
          "internalType": "address[]",
          "name": "_tokenAddresses",
          "type": "address[]"
        },
        {
          "internalType": "uint256[]",
          "name": "_amounts",
          "type": "uint256[]"
        },
        {
          "internalType": "uint256[]",
          "name": "_periods",
          "type": "uint256[]"
        },
        {
          "internalType": "uint256[]",
          "name": "_dailyInterests",
          "type": "uint256[]"
        },
        {
          "internalType": "uint256[]",
          "name": "_claimDeadlines",
          "type": "uint256[]"
        }
      ],
      "name": "addLoans",
      "outputs": [],
      "stateMutability": "nonpayable",
      "type": "function"
    },
    {
      "inputs": [
        {
          "internalType": "address[]",
          "name": "_managerAddresses",
          "type": "address[]"
        },
        {
          "internalType": "uint256[]",
          "name": "_lentAmountLimits",
          "type": "uint256[]"
        }
      ],
      "name": "addManagers",
      "outputs": [],
      "stateMutability": "nonpayable",
      "type": "function"
    },
    {
      "inputs": [
        {
          "internalType": "address",
          "name": "_tokenAddress",
          "type": "address"
        },
        {
          "internalType": "address[]",
          "name": "_exchangeTokens",
          "type": "address[]"
        },
        {
          "internalType": "bytes[]",
          "name": "_exchangePaths",
          "type": "bytes[]"
        }
      ],
      "name": "addToken",
      "outputs": [],
      "stateMutability": "nonpayable",
      "type": "function"
    },
    {
      "inputs": [],
      "name": "cUSD",
      "outputs": [
        {
          "internalType": "contract IERC20Upgradeable",
          "name": "",
          "type": "address"
        }
      ],
      "stateMutability": "view",
      "type": "function"
    },
    {
      "inputs": [
        {
          "internalType": "address[]",
          "name": "_userAddresses",
          "type": "address[]"
        },
        {
          "internalType": "uint256[]",
          "name": "_loansIds",
          "type": "uint256[]"
        }
      ],
      "name": "cancelLoans",
      "outputs": [],
      "stateMutability": "nonpayable",
      "type": "function"
    },
    {
      "inputs": [
        {
          "internalType": "address[]",
          "name": "_borrowerAddresses",
          "type": "address[]"
        },
        {
          "internalType": "address",
          "name": "_managerAddress",
          "type": "address"
        }
      ],
      "name": "changeManager",
      "outputs": [],
      "stateMutability": "nonpayable",
      "type": "function"
    },
    {
      "inputs": [
        {
          "internalType": "address",
          "name": "_oldWalletAddress",
          "type": "address"
        },
        {
          "internalType": "address",
          "name": "_newWalletAddress",
          "type": "address"
        }
      ],
      "name": "changeUserAddress",
      "outputs": [],
      "stateMutability": "nonpayable",
      "type": "function"
    },
    {
      "inputs": [
        {
          "internalType": "uint256",
          "name": "_loanId",
          "type": "uint256"
        }
      ],
      "name": "claimLoan",
      "outputs": [],
      "stateMutability": "nonpayable",
      "type": "function"
    },
    {
      "inputs": [],
      "name": "donationMiner",
      "outputs": [
        {
          "internalType": "contract IDonationMiner",
          "name": "",
          "type": "address"
        }
      ],
      "stateMutability": "view",
      "type": "function"
    },
    {
      "inputs": [
        {
          "internalType": "address",
          "name": "_userAddress",
          "type": "address"
        },
        {
          "internalType": "uint256",
          "name": "_loanId",
          "type": "uint256"
        },
        {
          "internalType": "uint256",
          "name": "_currentLastComputedDate",
          "type": "uint256"
        },
        {
          "internalType": "uint256",
          "name": "_newPeriod",
          "type": "uint256"
        },
        {
          "internalType": "uint256",
          "name": "_newDailyInterest",
          "type": "uint256"
        },
        {
          "internalType": "uint256",
          "name": "_newLastComputedDebt",
          "type": "uint256"
        },
        {
          "internalType": "uint256",
          "name": "_newLastComputedDate",
          "type": "uint256"
        }
      ],
      "name": "editLoan",
      "outputs": [],
      "stateMutability": "nonpayable",
      "type": "function"
    },
    {
      "inputs": [],
      "name": "getVersion",
      "outputs": [
        {
          "internalType": "uint256",
          "name": "",
          "type": "uint256"
        }
      ],
      "stateMutability": "pure",
      "type": "function"
    },
    {
      "inputs": [
        {
          "internalType": "address",
          "name": "_tokenAddress",
          "type": "address"
        }
      ],
      "name": "inactivateToken",
      "outputs": [],
      "stateMutability": "nonpayable",
      "type": "function"
    },
    {
      "inputs": [],
      "name": "initV2",
      "outputs": [],
      "stateMutability": "nonpayable",
      "type": "function"
    },
    {
      "inputs": [
        {
          "internalType": "address",
          "name": "_cUSDAddress",
          "type": "address"
        },
        {
          "internalType": "address",
          "name": "_revenueAddress",
          "type": "address"
        }
      ],
      "name": "initialize",
      "outputs": [],
      "stateMutability": "nonpayable",
      "type": "function"
    },
    {
      "inputs": [
        {
          "internalType": "uint256",
          "name": "_index",
          "type": "uint256"
        }
      ],
      "name": "managerListAt",
      "outputs": [
        {
          "internalType": "address",
          "name": "",
          "type": "address"
        }
      ],
      "stateMutability": "view",
      "type": "function"
    },
    {
      "inputs": [],
      "name": "managerListLength",
      "outputs": [
        {
          "internalType": "uint256",
          "name": "",
          "type": "uint256"
        }
      ],
      "stateMutability": "view",
      "type": "function"
    },
    {
      "inputs": [
        {
          "internalType": "address",
          "name": "_managerAddress",
          "type": "address"
        }
      ],
      "name": "managers",
      "outputs": [
        {
          "components": [
            {
              "internalType": "uint256",
              "name": "lentAmountLimit",
              "type": "uint256"
            },
            {
              "internalType": "uint256",
              "name": "lentAmount",
              "type": "uint256"
            }
          ],
          "internalType": "struct IMicrocredit.Manager",
          "name": "",
          "type": "tuple"
        }
      ],
      "stateMutability": "view",
      "type": "function"
    },
    {
      "inputs": [],
      "name": "owner",
      "outputs": [
        {
          "internalType": "address",
          "name": "",
          "type": "address"
        }
      ],
      "stateMutability": "view",
      "type": "function"
    },
    {
      "inputs": [],
      "name": "paused",
      "outputs": [
        {
          "internalType": "bool",
          "name": "",
          "type": "bool"
        }
      ],
      "stateMutability": "view",
      "type": "function"
    },
    {
      "inputs": [
        {
          "internalType": "address[]",
          "name": "_managerAddresses",
          "type": "address[]"
        }
      ],
      "name": "removeManagers",
      "outputs": [],
      "stateMutability": "nonpayable",
      "type": "function"
    },
    {
      "inputs": [],
      "name": "renounceOwnership",
      "outputs": [],
      "stateMutability": "nonpayable",
      "type": "function"
    },
    {
      "inputs": [
        {
          "internalType": "uint256",
          "name": "_loanId",
          "type": "uint256"
        },
        {
          "internalType": "uint256",
          "name": "_tokenRepaymentAmount",
          "type": "uint256"
        }
      ],
      "name": "repayLoan",
      "outputs": [],
      "stateMutability": "nonpayable",
      "type": "function"
    },
    {
      "inputs": [],
      "name": "revenueAddress",
      "outputs": [
        {
          "internalType": "address",
          "name": "",
          "type": "address"
        }
      ],
      "stateMutability": "view",
      "type": "function"
    },
    {
      "inputs": [
        {
          "internalType": "address[]",
          "name": "_userAddresses",
          "type": "address[]"
        },
        {
          "internalType": "uint256[]",
          "name": "_loanIds",
          "type": "uint256[]"
        },
        {
          "internalType": "address[]",
          "name": "_managersAddresses",
          "type": "address[]"
        }
      ],
      "name": "setManagers",
      "outputs": [],
      "stateMutability": "nonpayable",
      "type": "function"
    },
    {
      "inputs": [
        {
          "internalType": "uint256",
          "name": "_index",
          "type": "uint256"
        }
      ],
      "name": "tokenListAt",
      "outputs": [
        {
          "internalType": "address",
          "name": "",
          "type": "address"
        }
      ],
      "stateMutability": "view",
      "type": "function"
    },
    {
      "inputs": [],
      "name": "tokenListLength",
      "outputs": [
        {
          "internalType": "uint256",
          "name": "",
          "type": "uint256"
        }
      ],
      "stateMutability": "view",
      "type": "function"
    },
    {
      "inputs": [
        {
          "internalType": "address",
          "name": "_tokenAddress",
          "type": "address"
        }
      ],
      "name": "tokens",
      "outputs": [
        {
          "internalType": "bool",
          "name": "active",
          "type": "bool"
        }
      ],
      "stateMutability": "view",
      "type": "function"
    },
    {
      "inputs": [
        {
          "internalType": "contract IERC20Upgradeable",
          "name": "_token",
          "type": "address"
        },
        {
          "internalType": "address",
          "name": "_to",
          "type": "address"
        },
        {
          "internalType": "uint256",
          "name": "_amount",
          "type": "uint256"
        }
      ],
      "name": "transferERC20",
      "outputs": [],
      "stateMutability": "nonpayable",
      "type": "function"
    },
    {
      "inputs": [
        {
          "internalType": "address",
          "name": "newOwner",
          "type": "address"
        }
      ],
      "name": "transferOwnership",
      "outputs": [],
      "stateMutability": "nonpayable",
      "type": "function"
    },
    {
      "inputs": [],
      "name": "uniswapQuoter",
      "outputs": [
        {
          "internalType": "contract IQuoter",
          "name": "",
          "type": "address"
        }
      ],
      "stateMutability": "view",
      "type": "function"
    },
    {
      "inputs": [],
      "name": "uniswapRouter",
      "outputs": [
        {
          "internalType": "contract IUniswapRouter02",
          "name": "",
          "type": "address"
        }
      ],
      "stateMutability": "view",
      "type": "function"
    },
    {
      "inputs": [
        {
          "internalType": "contract IDonationMiner",
          "name": "_newDonationMiner",
          "type": "address"
        }
      ],
      "name": "updateDonationMiner",
      "outputs": [],
      "stateMutability": "nonpayable",
      "type": "function"
    },
    {
      "inputs": [
        {
          "internalType": "address",
          "name": "_newRevenueAddress",
          "type": "address"
        }
      ],
      "name": "updateRevenueAddress",
      "outputs": [],
      "stateMutability": "nonpayable",
      "type": "function"
    },
    {
      "inputs": [
        {
          "internalType": "contract IQuoter",
          "name": "_newUniswapQuoter",
          "type": "address"
        }
      ],
      "name": "updateUniswapQuoter",
      "outputs": [],
      "stateMutability": "nonpayable",
      "type": "function"
    },
    {
      "inputs": [
        {
          "internalType": "contract IUniswapRouter02",
          "name": "_newUniswapRouter",
          "type": "address"
        }
      ],
      "name": "updateUniswapRouter",
      "outputs": [],
      "stateMutability": "nonpayable",
      "type": "function"
    },
    {
      "inputs": [
        {
          "internalType": "address",
          "name": "_userAddress",
          "type": "address"
        },
        {
          "internalType": "uint256",
          "name": "_loanId",
          "type": "uint256"
        },
        {
          "internalType": "uint256",
          "name": "_repaymentId",
          "type": "uint256"
        }
      ],
      "name": "userLoanRepayments",
      "outputs": [
        {
          "internalType": "uint256",
          "name": "date",
          "type": "uint256"
        },
        {
          "internalType": "uint256",
          "name": "amount",
          "type": "uint256"
        }
      ],
      "stateMutability": "view",
      "type": "function"
    },
    {
      "inputs": [
        {
          "internalType": "address",
          "name": "_userAddress",
          "type": "address"
        },
        {
          "internalType": "uint256",
          "name": "_loanId",
          "type": "uint256"
        }
      ],
      "name": "userLoans",
      "outputs": [
        {
          "components": [
            {
              "internalType": "uint256",
              "name": "amountBorrowed",
              "type": "uint256"
            },
            {
              "internalType": "uint256",
              "name": "period",
              "type": "uint256"
            },
            {
              "internalType": "uint256",
              "name": "dailyInterest",
              "type": "uint256"
            },
            {
              "internalType": "uint256",
              "name": "claimDeadline",
              "type": "uint256"
            },
            {
              "internalType": "uint256",
              "name": "startDate",
              "type": "uint256"
            },
            {
              "internalType": "uint256",
              "name": "currentDebt",
              "type": "uint256"
            },
            {
              "internalType": "uint256",
              "name": "lastComputedDebt",
              "type": "uint256"
            },
            {
              "internalType": "uint256",
              "name": "amountRepayed",
              "type": "uint256"
            },
            {
              "internalType": "uint256",
              "name": "repaymentsLength",
              "type": "uint256"
            },
            {
              "internalType": "uint256",
              "name": "lastComputedDate",
              "type": "uint256"
            },
            {
              "internalType": "address",
              "name": "managerAddress",
              "type": "address"
            },
            {
              "internalType": "address",
              "name": "tokenAddress",
              "type": "address"
            },
            {
              "internalType": "uint256",
              "name": "tokenAmountBorrowed",
              "type": "uint256"
            },
            {
              "internalType": "uint256",
              "name": "tokenAmountRepayed",
              "type": "uint256"
            },
            {
              "internalType": "uint256",
              "name": "tokenLastComputedDebt",
              "type": "uint256"
            },
            {
              "internalType": "uint256",
              "name": "tokenCurrentDebt",
              "type": "uint256"
            }
          ],
          "internalType": "struct IMicrocredit.UserLoanResponse",
          "name": "userLoan",
          "type": "tuple"
        }
      ],
      "stateMutability": "nonpayable",
      "type": "function"
    },
    {
      "inputs": [
        {
          "internalType": "uint256",
          "name": "_index",
          "type": "uint256"
        }
      ],
      "name": "walletListAt",
      "outputs": [
        {
          "internalType": "address",
          "name": "",
          "type": "address"
        }
      ],
      "stateMutability": "view",
      "type": "function"
    },
    {
      "inputs": [],
      "name": "walletListLength",
      "outputs": [
        {
          "internalType": "uint256",
          "name": "",
          "type": "uint256"
        }
      ],
      "stateMutability": "view",
      "type": "function"
    },
    {
      "inputs": [
        {
          "internalType": "address",
          "name": "_userAddress",
          "type": "address"
        }
      ],
      "name": "walletMetadata",
      "outputs": [
        {
          "internalType": "uint256",
          "name": "userId",
          "type": "uint256"
        },
        {
          "internalType": "address",
          "name": "movedTo",
          "type": "address"
        },
        {
          "internalType": "uint256",
          "name": "loansLength",
          "type": "uint256"
        }
      ],
      "stateMutability": "view",
      "type": "function"
    }
  ],
  "transactionHash": "0xcac98d97bce869e9abf0f715f05c41423d9e6cc40552a6955da7b6cec8ccda73",
  "args": [],
  "numDeployments": 8,
  "solcInputHash": "500aa915e7dd0310854c0314ba56b93c",
  "bytecode": "0x608060405234801561001057600080fd5b5061432f806100206000396000f3fe608060405234801561001057600080fd5b50600436106102535760003560e01c80638da5cb5b11610146578063d8bad5bd116100c3578063efaf058b11610087578063efaf058b14610579578063f29ebfef1461058c578063f2fde38b1461059f578063fdd28859146105b2578063fdf7b379146105c5578063fdff9b4d146105d857600080fd5b8063d8bad5bd146104f4578063e0c7cf5714610514578063e36d4f3e14610527578063e48603391461053a578063eef1b5151461056657600080fd5b8063adb971261161010a578063adb97126146104a0578063b410908d146104b3578063c66bf3c5146104c6578063c89fc9a7146104d9578063ca97f520146104ec57600080fd5b80638da5cb5b1461044e578063908bb2ae1461045f5780639a552a29146104725780639a9cb9711461047a5780639db5dbe41461048d57600080fd5b80635c975abb116101d4578063735de9f711610198578063735de9f7146103da57806378d5bcc1146103ed57806380407735146104155780638634e84b146104285780638a700b531461043b57600080fd5b80635c975abb1461032857806360c4477a1461033f5780636323f5e91461034757806368fcaf84146103bf578063715018a6146103d257600080fd5b806332b194b51161021b57806332b194b5146102d4578063387d0263146102e7578063485cc955146102ef5780634db4a3521461030257806353a469b31461031557600080fd5b80630d8e6e2c146102585780630e242d5a1461026e57806310f3ee29146102835780631fccf672146102965780632e131cf9146102c1575b600080fd5b60025b6040519081526020015b60405180910390f35b61028161027c366004613803565b610648565b005b6102816102913660046139e1565b61069d565b60c9546102a9906001600160a01b031681565b6040516001600160a01b039091168152602001610265565b6102816102cf366004613803565b61089d565b6102a96102e2366004613d8b565b61097d565b61025b610990565b6102816102fd36600461381f565b6109a1565b60d9546102a9906001600160a01b031681565b610281610323366004613d8b565b610ac3565b60655460ff165b6040519015158152602001610265565b61025b610cd5565b61039c610355366004613803565b6001600160a01b03908116600090815260cc6020908152604080832081518083018352815480825260019092015490951694830185905280845260d4909252909120549092565b604080519384526001600160a01b03909216602084015290820152606001610265565b6102a96103cd366004613d8b565b610ce1565b610281610cee565b60d8546102a9906001600160a01b031681565b6104006103fb366004613959565b610d24565b60408051928352602083019190915201610265565b610281610423366004613b56565b610e00565b61028161043636600461398d565b610ece565b610281610449366004613dbb565b611122565b6033546001600160a01b03166102a9565b61028161046d366004613803565b6115c6565b61025b611612565b610281610488366004613c53565b61161e565b61028161049b366004613d4b565b6117c5565b6102a96104ae366004613d8b565b611835565b60d1546102a9906001600160a01b031681565b6102816104d43660046138af565b611842565b6102816104e7366004613803565b611c14565b610281611c60565b61050761050236600461392e565b611db9565b604051610265919061409e565b610281610522366004613b56565b611fb3565b60d3546102a9906001600160a01b031681565b61032f610548366004613803565b6001600160a01b0316600090815260d5602052604090205460ff1690565b61028161057436600461381f565b61215b565b610281610587366004613bbe565b612300565b61028161059a366004613857565b612489565b6102816105ad366004613803565b6124be565b6102816105c0366004613803565b612559565b6102816105d3366004613a20565b61260b565b61062d6105e6366004613803565b6040805180820190915260008082526020820152506001600160a01b0316600090815260d26020908152604091829020825180840190935280548352600101549082015290565b60408051825181526020928301519281019290925201610265565b6033546001600160a01b0316331461067b5760405162461bcd60e51b815260040161067290613fe7565b60405180910390fd5b60d980546001600160a01b0319166001600160a01b0392909216919091179055565b6033546001600160a01b031633146106c75760405162461bcd60e51b815260040161067290613fe7565b8060005b818110156108975760d260008585848181106106f757634e487b7160e01b600052603260045260246000fd5b905060200201602081019061070c9190613803565b6001600160a01b03168152602081019190915260400160002060010154156107855760405162461bcd60e51b815260206004820152602660248201527f4d6963726f6372656469743a206d616e6167657220686173206f6e676f696e67604482015265206c6f616e7360d01b6064820152608401610672565b6107c58484838181106107a857634e487b7160e01b600052603260045260246000fd5b90506020020160208101906107bd9190613803565b60cf90612809565b50600060d260008686858181106107ec57634e487b7160e01b600052603260045260246000fd5b90506020020160208101906108019190613803565b6001600160a01b0316815260208101919091526040016000205583838281811061083b57634e487b7160e01b600052603260045260246000fd5b90506020020160208101906108509190613803565b6001600160a01b03167fef69f7d97228658c92417be1b16b19058315de71fecb435d07b7d23728b6bd3160405160405180910390a28061088f8161429d565b9150506106cb565b50505050565b6033546001600160a01b031633146108c75760405162461bcd60e51b815260040161067290613fe7565b6001600160a01b038116600090815260d5602052604090205460ff1615156001146109345760405162461bcd60e51b815260206004820181905260248201527f4d6963726f6372656469743a20546f6b656e206973206e6f74206163746976656044820152606401610672565b6001600160a01b038116600081815260d56020526040808220805460ff19169055517f4c910b69fe65a61f7531b9c5042b2329ca7179c77290aa7e2eb3afa3c8511fd39190a250565b600061098a60d683612825565b92915050565b600061099c60cf612831565b905090565b600054610100900460ff166109bc5760005460ff16156109c0565b303b155b610a235760405162461bcd60e51b815260206004820152602e60248201527f496e697469616c697a61626c653a20636f6e747261637420697320616c72656160448201526d191e481a5b9a5d1a585b1a5e995960921b6064820152608401610672565b600054610100900460ff16158015610a45576000805461ffff19166101011790555b610a4d61283b565b610a55612872565b610a5d6128a9565b60c980546001600160a01b0319166001600160a01b0385811691909117909155821615610a8a5781610a8c565b305b60d180546001600160a01b0319166001600160a01b03929092169190911790558015610abe576000805461ff00191690555b505050565b60026097541415610ae65760405162461bcd60e51b815260040161067290614067565b6002609755610af533826128d8565b33600090815260cc602090815260408083208151808301835281548082526001928301546001600160a01b031682860152855260d484528285208686529182019093529220600481015491929115610b5f5760405162461bcd60e51b815260040161067290613fa6565b6003810154610bb05760405162461bcd60e51b815260206004820152601a60248201527f4d6963726f6372656469743a204c6f616e2063616e63656c65640000000000006044820152606401610672565b4281600301541015610c045760405162461bcd60e51b815260206004820152601960248201527f4d6963726f6372656469743a204c6f616e2065787069726564000000000000006044820152606401610672565b4260048201556002810154670de0b6b3a764000090610c25906064906141c9565b610c3790670de0b6b3a76400006141b1565b8254610c4391906141e9565b610c4d91906141c9565b6005820155426009820155600b8101548154610c72916001600160a01b0316906129e1565b600c8201819055600b820154610c95916001600160a01b03909116903390612ab9565b60405184815233907fba0cbe8ef8ef3c6984adc684d0c9b9a4d2d4c79b4678b63c38651fa48d21c62c9060200160405180910390a2505060016097555050565b600061099c60cd612831565b600061098a60cf83612825565b6033546001600160a01b03163314610d185760405162461bcd60e51b815260040161067290613fe7565b610d226000612b1c565b565b600080610d3185856128d8565b6001600160a01b03808616600090815260cc602090815260408083208151808301835281548082526001928301549096168185015294845260d4835281842089855290810190925290912060078101548610610ddb5760405162461bcd60e51b8152602060048201526024808201527f4d6963726f6372656469743a2052657061796d656e7420646f65736e277420656044820152631e1a5cdd60e21b6064820152608401610672565b6000958652600801602052505060409092208054600190910154909590945092505050565b610e0b60cf33612b6e565b610e275760405162461bcd60e51b815260040161067290613f12565b828114610e465760405162461bcd60e51b815260040161067290613f56565b60005b83811015610ec757610eb5858583818110610e7457634e487b7160e01b600052603260045260246000fd5b9050602002016020810190610e899190613803565b848484818110610ea957634e487b7160e01b600052603260045260246000fd5b90506020020135612b90565b80610ebf8161429d565b915050610e49565b5050505050565b6033546001600160a01b03163314610ef85760405162461bcd60e51b815260040161067290613fe7565b610f0287876128d8565b6001600160a01b03808816600090815260cc602090815260408083208151808301835281548082526001928301549096168185015294845260d483528184208b85529081019092529091206004810154610fc45760405162461bcd60e51b815260206004820152603a60248201527f4d6963726f6372656469743a204c6f616e206973206e6f74206163746976652c60448201527f207573652063616e63656c206d6574686f6420696e73746561640000000000006064820152608401610672565b8781600901541461102f5760405162461bcd60e51b815260206004820152602f60248201527f4d6963726f6372656469743a20546865207573657220686173206a757374206d60448201526e1859194818481c995c185e5b595b9d608a1b6064820152608401610672565b806004015484101580156110435750428411155b6110a05760405162461bcd60e51b815260206004820152602860248201527f4d6963726f6372656469743a20496e76616c6964206e65774c617374436f6d70604482015267757465644461746560c01b6064820152608401610672565b60018101879055600281018690556005810185905560098101849055604080518a81526020810189905290810187905260608101869052608081018590526001600160a01b038b16907f91fee5b60a39ad652827d582d9e5282a903ba110c2a27126938cd053a2cdabec9060a00160405180910390a250505050505050505050565b600260975414156111455760405162461bcd60e51b815260040161067290614067565b6002609755806111975760405162461bcd60e51b815260206004820152601b60248201527f4d6963726f6372656469743a20496e76616c696420616d6f756e7400000000006044820152606401610672565b6111a133836128d8565b33600090815260cc602090815260408083208151808301835281548082526001928301546001600160a01b031682860152855260d484528285208786529182019093529220600481015491929161123a5760405162461bcd60e51b815260206004820152601d60248201527f4d6963726f6372656469743a204c6f616e206e6f7420636c61696d65640000006044820152606401610672565b60008160050154116112a75760405162461bcd60e51b815260206004820152603060248201527f4d6963726f6372656469743a204c6f616e2068617320616c726561647920626560448201526f195b88199d5b1b1e481c995c185e595960821b6064820152608401610672565b60006112b282612cea565b600b8301549091506000906112d0906001600160a01b031687612d84565b9050808210156112f85750600b82015481906112f5906001600160a01b0316826129e1565b95505b8254600684015461130a9083906141b1565b1161134657600b830154611329906001600160a01b0316333089612e03565b600a830154611341906001600160a01b031682612e3b565b61140e565b82546006840154106113735760d154600b840154611341916001600160a01b039182169133911689612e03565b6006830154835460009161138691614208565b600b8501549091506000906113a4906001600160a01b0316836129e1565b600b8601549091506113c1906001600160a01b0316333084612e03565b60d1546113f39033906001600160a01b03166113dd848c614208565b600b8901546001600160a01b0316929190612e03565b600a85015461140b906001600160a01b031683612e3b565b50505b60078301805460008181526008860160205260408120929061142f8361429d565b9091555050428155600181018290556002810187905561144f8284614208565b84600501819055508184600601600082825461146b91906141b1565b925050819055508684600d01600082825461148691906141b1565b9091555050600984015460009062015180906114a29042614208565b6114ac91906141c9565b90506114bb81620151806141e9565b85600901546114ca91906141b1565b600986015560058501541580156114eb575060d3546001600160a01b031615155b1561156d5760d354855460068701546001600160a01b039092169163bc4643ee9161151591614208565b6040516001600160e01b031960e084901b1681526004810191909152336024820152604401600060405180830381600087803b15801561155457600080fd5b505af1158015611568573d6000803e3d6000fd5b505050505b6005850154604080518b8152602081018690529081019190915233907f36bd188317b9b3af98bbc5bfd88a0bccb96582fa2c955815ea9916dfeeb02d9e9060600160405180910390a25050600160975550505050505050565b6033546001600160a01b031633146115f05760405162461bcd60e51b815260040161067290613fe7565b60d880546001600160a01b0319166001600160a01b0392909216919091179055565b600061099c60d6612831565b61162960cf33612b6e565b6116455760405162461bcd60e51b815260040161067290613f12565b600061165260cf83612b6e565b6116aa5760405162461bcd60e51b8152602060048201526024808201527f4d6963726f6372656469743a20696e76616c6964206d616e61676572206164646044820152637265737360e01b6064820152608401610672565b5060005b8251811015610abe576116f28382815181106116da57634e487b7160e01b600052603260045260246000fd5b602002602001015160cd612b6e90919063ffffffff16565b61174c5760405162461bcd60e51b815260206004820152602560248201527f4d6963726f6372656469743a20696e76616c696420626f72726f776572206164604482015264647265737360d81b6064820152608401610672565b816001600160a01b031683828151811061177657634e487b7160e01b600052603260045260246000fd5b60200260200101516001600160a01b03167f605c2dbf762e5f7d60a546d42e7205dcb1b011ebc62a61736a57c9089d3a435060405160405180910390a3806117bd8161429d565b9150506116ae565b600260975414156117e85760405162461bcd60e51b815260040161067290614067565b60026097556033546001600160a01b031633146118175760405162461bcd60e51b815260040161067290613fe7565b61182b6001600160a01b0384168383612ab9565b5050600160975550565b600061098a60cd83612825565b6033546001600160a01b0316331461186c5760405162461bcd60e51b815260040161067290613fe7565b82811461188b5760405162461bcd60e51b815260040161067290613f56565b6001600160a01b038516600090815260d5602052604090205460ff16156118fe5760405162461bcd60e51b815260206004820152602160248201527f4d6963726f6372656469743a20546f6b656e20616c72656164792065786973746044820152607360f81b6064820152608401610672565b61190960d686612e90565b506001600160a01b038516600090815260d560205260409020805460ff19166001178155815b8015611b33578061193f8161424b565b60d954909250600091506001600160a01b031663cdca175386868581811061197757634e487b7160e01b600052603260045260246000fd5b9050602002810190611989919061416d565b670de0b6b3a76400006040518463ffffffff1660e01b81526004016119b093929190613df8565b602060405180830381600087803b1580156119ca57600080fd5b505af11580156119de573d6000803e3d6000fd5b505050506040513d601f19601f82011682018060405250810190611a029190613da3565b11611a595760405162461bcd60e51b815260206004820152602160248201527f4d6963726f6372656469743a20696e76616c69642065786368616e67655061746044820152600d60fb1b6064820152608401610672565b838382818110611a7957634e487b7160e01b600052603260045260246000fd5b9050602002810190611a8b919061416d565b836003016000898986818110611ab157634e487b7160e01b600052603260045260246000fd5b9050602002016020810190611ac69190613803565b6001600160a01b031681526020810191909152604001600020611aea929091613711565b50611b2d868683818110611b0e57634e487b7160e01b600052603260045260246000fd5b9050602002016020810190611b239190613803565b6001840190612e90565b5061192f565b60c9546001600160a01b0316600090815260038301602052604081208054611b5a90614262565b90501180611b75575060c9546001600160a01b038881169116145b611bd75760405162461bcd60e51b815260206004820152602d60248201527f4d6963726f6372656469743a2065786368616e67655061746820746f2063555360448201526c11081b5d5cdd081899481cd95d609a1b6064820152608401610672565b6040516001600160a01b038816907f784c8f4dbf0ffedd6e72c76501c545a70f8b203b30a26ce542bf92ba87c248a490600090a250505050505050565b6033546001600160a01b03163314611c3e5760405162461bcd60e51b815260040161067290613fe7565b60d380546001600160a01b0319166001600160a01b0392909216919091179055565b6033546001600160a01b03163314611c8a5760405162461bcd60e51b815260040161067290613fe7565b6000805b60ca54821015611d29575060005b600082815260d46020526040902054811015611d175760c954600083815260d4602090815260408083208584526001019091529020600b810180546001600160a01b0319166001600160a01b03909316929092179091558054600c8201556006810154600d9091015580611d0f8161429d565b915050611c9c565b81611d218161429d565b925050611c8e565b60c954611d419060d6906001600160a01b0316612b6e565b611db55760c954611d5d9060d6906001600160a01b0316612e90565b5060c980546001600160a01b03908116600090815260d56020526040808220805460ff191660011790559254925192909116917f784c8f4dbf0ffedd6e72c76501c545a70f8b203b30a26ce542bf92ba87c248a49190a25b5050565b611e4b6040518061020001604052806000815260200160008152602001600081526020016000815260200160008152602001600081526020016000815260200160008152602001600081526020016000815260200160006001600160a01b0316815260200160006001600160a01b03168152602001600081526020016000815260200160008152602001600081525090565b611e5583836128d8565b6001600160a01b03808416600090815260cc602090815260408083208151808301835281548082526001928301549096168185015294845260d4835281842087855281018352928190208054865292830154918501919091526002820154908401526003810154606084015260048101546080840152600581015460c0840152611ede81612cea565b60a0840152600681015460e084015260078101546101008401526009810154610120840152600a8101546001600160a01b03908116610140850152600b82015416610160840152600c810154611f4d57600b8101548154611f48916001600160a01b0316906129e1565b611f53565b80600c01545b610180840152600d8101546101a0840152600b81015460c0840151611f81916001600160a01b0316906129e1565b6101c0840152600b81015460a0840151611fa4916001600160a01b0316906129e1565b6101e084015250909392505050565b6033546001600160a01b03163314611fdd5760405162461bcd60e51b815260040161067290613fe7565b8260005b818110156121535761202986868381811061200c57634e487b7160e01b600052603260045260246000fd5b90506020020160208101906120219190613803565b60cf90612e90565b5083838281811061204a57634e487b7160e01b600052603260045260246000fd5b9050602002013560d2600088888581811061207557634e487b7160e01b600052603260045260246000fd5b905060200201602081019061208a9190613803565b6001600160a01b031681526020810191909152604001600020558585828181106120c457634e487b7160e01b600052603260045260246000fd5b90506020020160208101906120d99190613803565b6001600160a01b03167ffae05d1286e3d4cd0db21fce06a66beb75ec586eb923fc0fcc332e69d7ad2e2f85858481811061212357634e487b7160e01b600052603260045260246000fd5b9050602002013560405161213991815260200190565b60405180910390a28061214b8161429d565b915050611fe1565b505050505050565b61216660cf33612b6e565b6121825760405162461bcd60e51b815260040161067290613f12565b6001600160a01b038216600090815260cc602052604090208054158015906121b5575060018101546001600160a01b0316155b6122105760405162461bcd60e51b815260206004820152602660248201527f4d6963726f6372656469743a205468697320757365722063616e6e6f74206265604482015265081b5bdd995960d21b6064820152608401610672565b6001600160a01b038216600090815260cc6020526040902080541561228d5760405162461bcd60e51b815260206004820152602d60248201527f4d6963726f6372656469743a205461726765742077616c6c657420616464726560448201526c1cdcc81a5cc81a5b9d985b1a59609a1b6064820152608401610672565b6001820180546001600160a01b0319166001600160a01b038516179055815481556122b960cd84612e90565b50826001600160a01b0316846001600160a01b03167ffe697da51e9b8089b3ac92361b06886b93f48f935848aa4da1148c15b262840a60405160405180910390a350505050565b6033546001600160a01b0316331461232a5760405162461bcd60e51b815260040161067290613fe7565b8481146123495760405162461bcd60e51b815260040161067290613f56565b60005b8581101561248057600060cc600089898581811061237a57634e487b7160e01b600052603260045260246000fd5b905060200201602081019061238f9190613803565b6001600160a01b039081168252602080830193909352604091820160002082518084019093528054835260010154169181019190915290508383838181106123e757634e487b7160e01b600052603260045260246000fd5b90506020020160208101906123fc9190613803565b8151600090815260d4602052604081206001019088888681811061243057634e487b7160e01b600052603260045260246000fd5b905060200201358152602001908152602001600020600a0160006101000a8154816001600160a01b0302191690836001600160a01b031602179055505080806124789061429d565b91505061234c565b50505050505050565b61249460cf33612b6e565b6124b05760405162461bcd60e51b815260040161067290613f12565b612153858786868686612ea5565b6033546001600160a01b031633146124e85760405162461bcd60e51b815260040161067290613fe7565b6001600160a01b03811661254d5760405162461bcd60e51b815260206004820152602660248201527f4f776e61626c653a206e6577206f776e657220697320746865207a65726f206160448201526564647265737360d01b6064820152608401610672565b61255681612b1c565b50565b6033546001600160a01b031633146125835760405162461bcd60e51b815260040161067290613fe7565b6001600160a01b0381166125e95760405162461bcd60e51b815260206004820152602760248201527f4d6963726f6372656469743a20726576656e756541646472657373206d757374604482015266081899481cd95d60ca1b6064820152608401610672565b60d180546001600160a01b0319166001600160a01b0392909216919091179055565b61261660cf33612b6e565b6126325760405162461bcd60e51b815260040161067290613f12565b8a8981146126525760405162461bcd60e51b815260040161067290613f56565b8088146126715760405162461bcd60e51b815260040161067290613f56565b8086146126905760405162461bcd60e51b815260040161067290613f56565b8084146126af5760405162461bcd60e51b815260040161067290613f56565b8082146126ce5760405162461bcd60e51b815260040161067290613f56565b60005b818110156127f9576127e78c8c838181106126fc57634e487b7160e01b600052603260045260246000fd5b90506020020160208101906127119190613803565b8f8f8481811061273157634e487b7160e01b600052603260045260246000fd5b90506020020160208101906127469190613803565b8c8c8581811061276657634e487b7160e01b600052603260045260246000fd5b905060200201358b8b8681811061278d57634e487b7160e01b600052603260045260246000fd5b905060200201358a8a878181106127b457634e487b7160e01b600052603260045260246000fd5b905060200201358989888181106127db57634e487b7160e01b600052603260045260246000fd5b90506020020135612ea5565b806127f18161429d565b9150506126d1565b5050505050505050505050505050565b600061281e836001600160a01b03841661326b565b9392505050565b600061281e8383613388565b600061098a825490565b600054610100900460ff166128625760405162461bcd60e51b81526004016106729061401c565b61286a6133c0565b610d226133e7565b600054610100900460ff166128995760405162461bcd60e51b81526004016106729061401c565b6128a16133c0565b610d22613417565b600054610100900460ff166128d05760405162461bcd60e51b81526004016106729061401c565b610d2261344a565b6001600160a01b03808316600090815260cc602090815260409182902082518084019093528054808452600190910154909316908201529015801590612929575060208101516001600160a01b0316155b6129815760405162461bcd60e51b815260206004820152602360248201527f4d6963726f6372656469743a20496e76616c69642077616c6c6574206164647260448201526265737360e81b6064820152608401610672565b8051600090815260d460205260409020805483106108975760405162461bcd60e51b815260206004820152601f60248201527f4d6963726f6372656469743a204c6f616e20646f65736e2774206578697374006044820152606401610672565b60c9546000906001600160a01b03848116911614806129fe575081155b15612a0a57508061098a565b60d9546001600160a01b03848116600090815260d56020908152604080832060c95485168452600301909152908190209051632f80bb1d60e01b81529190921691632f80bb1d91612a6091908690600401613e30565b602060405180830381600087803b158015612a7a57600080fd5b505af1158015612a8e573d6000803e3d6000fd5b505050506040513d601f19601f82011682018060405250810190612ab29190613da3565b905061098a565b6040516001600160a01b038316602482015260448101829052610abe90849063a9059cbb60e01b906064015b60408051601f198184030181529190526020810180516001600160e01b03166001600160e01b031990931692909217909152613478565b603380546001600160a01b038381166001600160a01b0319831681179093556040519116919082907f8be0079c531659141344cd1fd0a4f28419497f9722a3daafe3b4186f6b6457e090600090a35050565b6001600160a01b0381166000908152600183016020526040812054151561281e565b612b9a82826128d8565b6001600160a01b03808316600090815260cc602090815260408083208151808301835281548082526001928301549096168185015294845260d48352818420868552908101909252909120600481015415612c075760405162461bcd60e51b815260040161067290613fa6565b6003810154612c635760405162461bcd60e51b815260206004820152602260248201527f4d6963726f6372656469743a204c6f616e20616c72656164792063616e63656c604482015261195960f21b6064820152608401610672565b600060038201819055600a8201546001600160a01b0316815260d260205260408120825460018201805492939192909190612c9f908490614208565b90915550506040518581526001600160a01b038716907f2f0f5933c0b9b1d9fee69327e7789ce07ef1be486122748fc2a079742067a8089060200160405180910390a2505050505050565b6000816005015460001415612d0157506000919050565b600062015180836009015442612d179190614208565b612d2191906141c9565b60058401549091505b811561281e57670de0b6b3a764000060648560020154612d4a91906141c9565b612d5c90670de0b6b3a76400006141b1565b612d6690836141e9565b612d7091906141c9565b905081612d7c8161424b565b925050612d2a565b60c9546000906001600160a01b0384811691161480612da1575081155b15612dad57508061098a565b60d9546001600160a01b03848116600090815260d56020908152604080832060c9548516845260030190915290819020905163cdca175360e01b8152919092169163cdca175391612a6091908690600401613e30565b6040516001600160a01b03808516602483015283166044820152606481018290526108979085906323b872dd60e01b90608401612ae5565b6001600160a01b038216600081815260d2602052604090209015610abe578181600101541115612e845781816001016000828254612e799190614208565b90915550610abe9050565b60006001820155505050565b600061281e836001600160a01b03841661354a565b6001600160a01b038616600090815260d5602052604090205460ff161515600114612f125760405162461bcd60e51b815260206004820152601a60248201527f4d6963726f6372656469743a20696e76616c696420746f6b656e0000000000006044820152606401610672565b428111612f6c5760405162461bcd60e51b815260206004820152602260248201527f4d6963726f6372656469743a20696e76616c696420636c61696d446561646c696044820152616e6560f01b6064820152608401610672565b6001600160a01b03808616600090815260cc60205260409020600181015490911615612fe65760405162461bcd60e51b8152602060048201526024808201527f4d6963726f6372656469743a20546865207573657220686173206265656e206d6044820152631bdd995960e21b6064820152608401610672565b33600090815260d260205260409020805460018201546130079088906141b1565b11156130865760405162461bcd60e51b815260206004820152604260248201527f4d6963726f6372656469743a204d616e6167657220646f6e277420686176652060448201527f656e6f7567682066756e647320746f20626f72726f77207468697320616d6f756064820152611b9d60f21b608482015260a401610672565b81546130b35760ca805490600061309c8361429d565b909155505060ca5482556130b160cd88612e90565b505b8154600090815260d4602052604090208054801561317a5760008260010160006001846130e09190614208565b815260200190815260200160002090506000816004015411801561310657506005810154155b8061311357506003810154155b6131785760405162461bcd60e51b815260206004820152603060248201527f4d6963726f6372656469743a20546865207573657220616c726561647920686160448201526f399030b71030b1ba34bb32903637b0b760811b6064820152608401610672565b505b600081815260018301602052604081208354909184906131998361429d565b9091555050600b810180546001600160a01b038d166001600160a01b03199182161790915589825560018083018a90556002830189905560038301889055600a830180549092163317909155840180548a91906000906131fa9084906141b1565b909155505060408051838152602081018b905290810189905260608101889052608081018790526001600160a01b03808d1691908c16907fed40ee432e5ffa2f69dfc2b8c7a11d8182b1ed55bc1c557d71af8e38108d8d919060a00160405180910390a35050505050505050505050565b6000818152600183016020526040812054801561337e57600061328f600183614208565b85549091506000906132a390600190614208565b90508181146133245760008660000182815481106132d157634e487b7160e01b600052603260045260246000fd5b906000526020600020015490508087600001848154811061330257634e487b7160e01b600052603260045260246000fd5b6000918252602080832090910192909255918252600188019052604090208390555b855486908061334357634e487b7160e01b600052603160045260246000fd5b60019003818190600052602060002001600090559055856001016000868152602001908152602001600020600090556001935050505061098a565b600091505061098a565b60008260000182815481106133ad57634e487b7160e01b600052603260045260246000fd5b9060005260206000200154905092915050565b600054610100900460ff16610d225760405162461bcd60e51b81526004016106729061401c565b600054610100900460ff1661340e5760405162461bcd60e51b81526004016106729061401c565b610d2233612b1c565b600054610100900460ff1661343e5760405162461bcd60e51b81526004016106729061401c565b6065805460ff19169055565b600054610100900460ff166134715760405162461bcd60e51b81526004016106729061401c565b6001609755565b60006134cd826040518060400160405280602081526020017f5361666545524332303a206c6f772d6c6576656c2063616c6c206661696c6564815250856001600160a01b03166135999092919063ffffffff16565b805190915015610abe57808060200190518101906134eb9190613d2b565b610abe5760405162461bcd60e51b815260206004820152602a60248201527f5361666545524332303a204552433230206f7065726174696f6e20646964206e6044820152691bdd081cdd58d8d9595960b21b6064820152608401610672565b60008181526001830160205260408120546135915750815460018181018455600084815260208082209093018490558454848252828601909352604090209190915561098a565b50600061098a565b60606135a884846000856135b0565b949350505050565b6060824710156136115760405162461bcd60e51b815260206004820152602660248201527f416464726573733a20696e73756666696369656e742062616c616e636520666f6044820152651c8818d85b1b60d21b6064820152608401610672565b843b61365f5760405162461bcd60e51b815260206004820152601d60248201527f416464726573733a2063616c6c20746f206e6f6e2d636f6e74726163740000006044820152606401610672565b600080866001600160a01b0316858760405161367b9190613ddc565b60006040518083038185875af1925050503d80600081146136b8576040519150601f19603f3d011682016040523d82523d6000602084013e6136bd565b606091505b50915091506136cd8282866136d8565b979650505050505050565b606083156136e757508161281e565b8251156136f75782518084602001fd5b8160405162461bcd60e51b81526004016106729190613edf565b82805461371d90614262565b90600052602060002090601f01602090048101928261373f5760008555613785565b82601f106137585782800160ff19823516178555613785565b82800160010185558215613785579182015b8281111561378557823582559160200191906001019061376a565b50613791929150613795565b5090565b5b808211156137915760008155600101613796565b80356137b5816142e4565b919050565b60008083601f8401126137cb578081fd5b5081356001600160401b038111156137e1578182fd5b6020830191508360208260051b85010111156137fc57600080fd5b9250929050565b600060208284031215613814578081fd5b813561281e816142e4565b60008060408385031215613831578081fd5b823561383c816142e4565b9150602083013561384c816142e4565b809150509250929050565b60008060008060008060c0878903121561386f578182fd5b863561387a816142e4565b9550602087013561388a816142e4565b95989597505050506040840135936060810135936080820135935060a0909101359150565b6000806000806000606086880312156138c6578081fd5b85356138d1816142e4565b945060208601356001600160401b03808211156138ec578283fd5b6138f889838a016137ba565b90965094506040880135915080821115613910578283fd5b5061391d888289016137ba565b969995985093965092949392505050565b60008060408385031215613940578182fd5b823561394b816142e4565b946020939093013593505050565b60008060006060848603121561396d578283fd5b8335613978816142e4565b95602085013595506040909401359392505050565b600080600080600080600060e0888a0312156139a7578081fd5b87356139b2816142e4565b9960208901359950604089013598606081013598506080810135975060a0810135965060c00135945092505050565b600080602083850312156139f3578182fd5b82356001600160401b03811115613a08578283fd5b613a14858286016137ba565b90969095509350505050565b60008060008060008060008060008060008060c08d8f031215613a41578586fd5b6001600160401b038d351115613a55578586fd5b613a628e8e358f016137ba565b909c509a506001600160401b0360208e01351115613a7e578586fd5b613a8e8e60208f01358f016137ba565b909a5098506001600160401b0360408e01351115613aaa578586fd5b613aba8e60408f01358f016137ba565b90985096506001600160401b0360608e01351115613ad6578586fd5b613ae68e60608f01358f016137ba565b90965094506001600160401b0360808e01351115613b02578384fd5b613b128e60808f01358f016137ba565b90945092506001600160401b0360a08e01351115613b2e578081fd5b613b3e8e60a08f01358f016137ba565b81935080925050509295989b509295989b509295989b565b60008060008060408587031215613b6b578182fd5b84356001600160401b0380821115613b81578384fd5b613b8d888389016137ba565b90965094506020870135915080821115613ba5578384fd5b50613bb2878288016137ba565b95989497509550505050565b60008060008060008060608789031215613bd6578384fd5b86356001600160401b0380821115613bec578586fd5b613bf88a838b016137ba565b90985096506020890135915080821115613c10578586fd5b613c1c8a838b016137ba565b90965094506040890135915080821115613c34578384fd5b50613c4189828a016137ba565b979a9699509497509295939492505050565b60008060408385031215613c65578182fd5b82356001600160401b0380821115613c7b578384fd5b818501915085601f830112613c8e578384fd5b8135602082821115613ca257613ca26142ce565b8160051b604051601f19603f83011681018181108682111715613cc757613cc76142ce565b604052838152828101945085830182870184018b1015613ce5578889fd5b8896505b84871015613d0e57613cfa816137aa565b865260019690960195948301948301613ce9565b509650613d1e90508782016137aa565b9450505050509250929050565b600060208284031215613d3c578081fd5b8151801515811461281e578182fd5b600080600060608486031215613d5f578081fd5b8335613d6a816142e4565b92506020840135613d7a816142e4565b929592945050506040919091013590565b600060208284031215613d9c578081fd5b5035919050565b600060208284031215613db4578081fd5b5051919050565b60008060408385031215613dcd578182fd5b50508035926020909101359150565b60008251613dee81846020870161421f565b9190910192915050565b6040815282604082015282846060830137600080606085840101526060601f19601f8601168301019050826020830152949350505050565b60408152600080845482600182811c915080831680613e5057607f831692505b6020808410821415613e7057634e487b7160e01b87526022600452602487fd5b6040880184905260608801828015613e8f5760018114613ea057613eca565b60ff19871682528282019750613eca565b60008c815260209020895b87811015613ec457815484820152908601908401613eab565b83019850505b50509690960196909652509095945050505050565b6020815260008251806020840152613efe81604085016020870161421f565b601f01601f19169190910160400192915050565b60208082526024908201527f4d6963726f6372656469743a2063616c6c6572206973206e6f742061206d616e60408201526330b3b2b960e11b606082015260800190565b60208082526030908201527f4d6963726f6372656469743a2063616c6c6461746120696e666f726d6174696f60408201526f0dc40c2e4d2e8f240dad2e6dac2e8c6d60831b606082015260800190565b60208082526021908201527f4d6963726f6372656469743a204c6f616e20616c726561647920636c61696d656040820152601960fa1b606082015260800190565b6020808252818101527f4f776e61626c653a2063616c6c6572206973206e6f7420746865206f776e6572604082015260600190565b6020808252602b908201527f496e697469616c697a61626c653a20636f6e7472616374206973206e6f74206960408201526a6e697469616c697a696e6760a81b606082015260800190565b6020808252601f908201527f5265656e7472616e637947756172643a207265656e7472616e742063616c6c00604082015260600190565b600061020082019050825182526020830151602083015260408301516040830152606083015160608301526080830151608083015260a083015160a083015260c083015160c083015260e083015160e083015261010080840151818401525061012080840151818401525061014080840151614124828501826001600160a01b03169052565b5050610160838101516001600160a01b03169083015261018080840151908301526101a080840151908301526101c080840151908301526101e092830151929091019190915290565b6000808335601e19843603018112614183578283fd5b8301803591506001600160401b0382111561419c578283fd5b6020019150368190038213156137fc57600080fd5b600082198211156141c4576141c46142b8565b500190565b6000826141e457634e487b7160e01b81526012600452602481fd5b500490565b6000816000190483118215151615614203576142036142b8565b500290565b60008282101561421a5761421a6142b8565b500390565b60005b8381101561423a578181015183820152602001614222565b838111156108975750506000910152565b60008161425a5761425a6142b8565b506000190190565b600181811c9082168061427657607f821691505b6020821081141561429757634e487b7160e01b600052602260045260246000fd5b50919050565b60006000198214156142b1576142b16142b8565b5060010190565b634e487b7160e01b600052601160045260246000fd5b634e487b7160e01b600052604160045260246000fd5b6001600160a01b038116811461255657600080fdfea2646970667358221220cebb0b98f9f31cb03c2350d2d03ee4a9a0c064598ac695aa4a57d5ec404c052d64736f6c63430008040033",
  "devdoc": {
    "events": {
      "ManagerChanged(address,address)": {
        "params": {
          "borrowerAddress": "The address of the borrower",
          "managerAddress": "The address of the new manager"
        }
      }
    },
    "kind": "dev",
    "methods": {
      "addLoan(address,address,uint256,uint256,uint256,uint256)": {
        "params": {
          "_amount": "amount of the loan",
          "_claimDeadline": "claim deadline of the loan",
          "_dailyInterest": "daily interest of the loan",
          "_period": "period of the loan",
          "_tokenAddress": "address of the token",
          "_userAddress": "address of the user"
        }
      },
      "addLoans(address[],address[],uint256[],uint256[],uint256[],uint256[])": {
        "params": {
          "_amounts": "amounts of the loan",
          "_claimDeadlines": "claim deadlines of the loan",
          "_dailyInterests": "daily interests of the loan",
          "_periods": "periods of the loan",
          "_tokenAddresses": "addresses of the tokens",
          "_userAddresses": "addresses of the user"
        }
      },
      "addManagers(address[],uint256[])": {
        "params": {
          "_managerAddresses": "addresses of the managers"
        }
      },
      "addToken(address,address[],bytes[])": {
        "params": {
          "_tokenAddress": "address of the token to be added"
        }
      },
      "cancelLoans(address[],uint256[])": {
        "params": {
          "_loansIds": "Loan ids",
          "_userAddresses": "User addresses"
        }
      },
      "changeManager(address[],address)": {
        "details": "This method doesn't change anything on the contract state, it just emits events to be used by the off-chain system",
        "params": {
          "_borrowerAddresses": "address of the borrowers",
          "_managerAddress": "address of the new manager"
        }
      },
      "changeUserAddress(address,address)": {
        "params": {
          "_newWalletAddress": "New wallet address",
          "_oldWalletAddress": "Old wallet address"
        }
      },
      "claimLoan(uint256)": {
        "params": {
          "_loanId": "Loan ID"
        }
      },
      "editLoan(address,uint256,uint256,uint256,uint256,uint256,uint256)": {
        "params": {
          "_currentLastComputedDate": "used as a control mechanism - if this value doesn't match the loan current lastComputedDate, it means that the user has made a repayment in the mean time so this call is not valid any more"
        }
      },
      "inactivateToken(address)": {
        "params": {
          "_tokenAddress": "address of the token to be added"
        }
      },
      "initialize(address,address)": {
        "params": {
          "_cUSDAddress": "The address of the cUSD token",
          "_revenueAddress": "The address that collects all the interest"
        }
      },
      "managerListAt(uint256)": {
        "params": {
          "_index": "index value"
        },
        "returns": {
          "_0": "address of the manager"
        }
      },
      "owner()": {
        "details": "Returns the address of the current owner."
      },
      "paused()": {
        "details": "Returns true if the contract is paused, and false otherwise."
      },
      "removeManagers(address[])": {
        "params": {
          "_managerAddresses": "addresses of the managers"
        }
      },
      "renounceOwnership()": {
        "details": "Leaves the contract without owner. It will not be possible to call `onlyOwner` functions anymore. Can only be called by the current owner. NOTE: Renouncing ownership will leave the contract without an owner, thereby removing any functionality that is only available to the owner."
      },
      "repayLoan(uint256,uint256)": {
        "params": {
          "_loanId": "Loan ID",
          "_tokenRepaymentAmount": "Repayment amount"
        }
      },
      "tokenListAt(uint256)": {
        "params": {
          "_index": "index value"
        },
        "returns": {
          "_0": "address of the token"
        }
      },
      "transferERC20(address,address,uint256)": {
        "params": {
          "_amount": "amount of the transaction",
          "_to": "address of the receiver",
          "_token": "address of the ERC20 token"
        }
      },
      "transferOwnership(address)": {
        "details": "Transfers ownership of the contract to a new account (`newOwner`). Can only be called by the current owner."
      },
      "walletListAt(uint256)": {
        "params": {
          "_index": "index value"
        },
        "returns": {
          "_0": "address of the user"
        }
      },
      "walletMetadata(address)": {
        "params": {
          "_userAddress": "address of the user"
        },
        "returns": {
          "loansLength": "          the number of the user's loans",
          "movedTo": "              the number of the user's loans",
          "userId": "               the userId"
        }
      }
    },
    "version": 1
  },
  "userdoc": {
    "events": {
      "ManagerChanged(address,address)": {
        "notice": "Triggered when a borrower's manager has been changed"
      }
    },
    "kind": "user",
    "methods": {
      "addLoan(address,address,uint256,uint256,uint256,uint256)": {
        "notice": "Adds a loan"
      },
      "addLoans(address[],address[],uint256[],uint256[],uint256[],uint256[])": {
        "notice": "Adds multiples loans"
      },
      "addManagers(address[],uint256[])": {
        "notice": "Adds managers"
      },
      "addToken(address,address[],bytes[])": {
        "notice": "Adds a new token"
      },
      "cancelLoans(address[],uint256[])": {
        "notice": "Cancel a loan"
      },
      "changeManager(address[],address)": {
        "notice": "Changes the borrowers manager address"
      },
      "changeUserAddress(address,address)": {
        "notice": "Change user address"
      },
      "claimLoan(uint256)": {
        "notice": "Claim a loan"
      },
      "editLoan(address,uint256,uint256,uint256,uint256,uint256,uint256)": {
        "notice": "Used by owner to fix when an active loan has wrong params"
      },
      "getVersion()": {
        "notice": "Returns the current implementation version"
      },
      "inactivateToken(address)": {
        "notice": "Adds a new token"
      },
      "initialize(address,address)": {
        "notice": "Used to initialize the Microcredit contract"
      },
      "managerListAt(uint256)": {
        "notice": "Returns an address from the managerList"
      },
      "managerListLength()": {
        "notice": "Returns the length of the managerList"
      },
      "removeManagers(address[])": {
        "notice": "Removes managers"
      },
      "repayLoan(uint256,uint256)": {
        "notice": "Repay a loan"
      },
      "tokenListAt(uint256)": {
        "notice": "Returns an address from the tokenList"
      },
      "tokenListLength()": {
        "notice": "Returns the length of the tokenList"
      },
      "transferERC20(address,address,uint256)": {
        "notice": "Transfers an amount of an ERC20 from this contract to an address"
      },
      "walletListAt(uint256)": {
        "notice": "Returns an address from the walletList"
      },
      "walletListLength()": {
        "notice": "Returns the length of the walletList"
      },
      "walletMetadata(address)": {
        "notice": "Returns the information of a user"
      }
    },
    "version": 1
  },
  "storageLayout": {
    "storage": [
      {
        "astId": 542,
        "contract": "contracts/microcredit/MicrocreditImplementation.sol:MicrocreditImplementation",
        "label": "_initialized",
        "offset": 0,
        "slot": "0",
        "type": "t_bool"
      },
      {
        "astId": 545,
        "contract": "contracts/microcredit/MicrocreditImplementation.sol:MicrocreditImplementation",
        "label": "_initializing",
        "offset": 1,
        "slot": "0",
        "type": "t_bool"
      },
      {
        "astId": 1370,
        "contract": "contracts/microcredit/MicrocreditImplementation.sol:MicrocreditImplementation",
        "label": "__gap",
        "offset": 0,
        "slot": "1",
        "type": "t_array(t_uint256)50_storage"
      },
      {
        "astId": 420,
        "contract": "contracts/microcredit/MicrocreditImplementation.sol:MicrocreditImplementation",
        "label": "_owner",
        "offset": 0,
        "slot": "51",
        "type": "t_address"
      },
      {
        "astId": 534,
        "contract": "contracts/microcredit/MicrocreditImplementation.sol:MicrocreditImplementation",
        "label": "__gap",
        "offset": 0,
        "slot": "52",
        "type": "t_array(t_uint256)49_storage"
      },
      {
        "astId": 630,
        "contract": "contracts/microcredit/MicrocreditImplementation.sol:MicrocreditImplementation",
        "label": "_paused",
        "offset": 0,
        "slot": "101",
        "type": "t_bool"
      },
      {
        "astId": 721,
        "contract": "contracts/microcredit/MicrocreditImplementation.sol:MicrocreditImplementation",
        "label": "__gap",
        "offset": 0,
        "slot": "102",
        "type": "t_array(t_uint256)49_storage"
      },
      {
        "astId": 736,
        "contract": "contracts/microcredit/MicrocreditImplementation.sol:MicrocreditImplementation",
        "label": "_status",
        "offset": 0,
        "slot": "151",
        "type": "t_uint256"
      },
      {
        "astId": 779,
        "contract": "contracts/microcredit/MicrocreditImplementation.sol:MicrocreditImplementation",
        "label": "__gap",
        "offset": 0,
        "slot": "152",
        "type": "t_array(t_uint256)49_storage"
      },
      {
        "astId": 26662,
        "contract": "contracts/microcredit/MicrocreditImplementation.sol:MicrocreditImplementation",
        "label": "cUSD",
        "offset": 0,
        "slot": "201",
        "type": "t_contract(IERC20Upgradeable)858"
      },
      {
        "astId": 26664,
        "contract": "contracts/microcredit/MicrocreditImplementation.sol:MicrocreditImplementation",
        "label": "_usersLength",
        "offset": 0,
        "slot": "202",
        "type": "t_uint256"
      },
      {
        "astId": 26669,
        "contract": "contracts/microcredit/MicrocreditImplementation.sol:MicrocreditImplementation",
        "label": "_usersOld",
        "offset": 0,
        "slot": "203",
        "type": "t_mapping(t_uint256,t_struct(UserOld)26247_storage)"
      },
      {
        "astId": 26674,
        "contract": "contracts/microcredit/MicrocreditImplementation.sol:MicrocreditImplementation",
        "label": "_walletMetadata",
        "offset": 0,
        "slot": "204",
        "type": "t_mapping(t_address,t_struct(WalletMetadata)26273_storage)"
      },
      {
        "astId": 26677,
        "contract": "contracts/microcredit/MicrocreditImplementation.sol:MicrocreditImplementation",
        "label": "_walletList",
        "offset": 0,
        "slot": "205",
        "type": "t_struct(AddressSet)5505_storage"
      },
      {
        "astId": 26680,
        "contract": "contracts/microcredit/MicrocreditImplementation.sol:MicrocreditImplementation",
        "label": "_managerList",
        "offset": 0,
        "slot": "207",
        "type": "t_struct(AddressSet)5505_storage"
      },
      {
        "astId": 26683,
        "contract": "contracts/microcredit/MicrocreditImplementation.sol:MicrocreditImplementation",
        "label": "revenueAddress",
        "offset": 0,
        "slot": "209",
        "type": "t_address"
      },
      {
        "astId": 26688,
        "contract": "contracts/microcredit/MicrocreditImplementation.sol:MicrocreditImplementation",
        "label": "_managers",
        "offset": 0,
        "slot": "210",
        "type": "t_mapping(t_address,t_struct(Manager)26286_storage)"
      },
      {
        "astId": 26692,
        "contract": "contracts/microcredit/MicrocreditImplementation.sol:MicrocreditImplementation",
        "label": "donationMiner",
        "offset": 0,
        "slot": "211",
        "type": "t_contract(IDonationMiner)18469"
      },
      {
        "astId": 26697,
        "contract": "contracts/microcredit/MicrocreditImplementation.sol:MicrocreditImplementation",
        "label": "_users",
        "offset": 0,
        "slot": "212",
        "type": "t_mapping(t_uint256,t_struct(User)26281_storage)"
      },
      {
        "astId": 26702,
        "contract": "contracts/microcredit/MicrocreditImplementation.sol:MicrocreditImplementation",
        "label": "_tokens",
        "offset": 0,
        "slot": "213",
        "type": "t_mapping(t_address,t_struct(Token)26335_storage)"
      },
      {
        "astId": 26705,
        "contract": "contracts/microcredit/MicrocreditImplementation.sol:MicrocreditImplementation",
        "label": "_tokenList",
        "offset": 0,
        "slot": "214",
        "type": "t_struct(AddressSet)5505_storage"
      },
      {
        "astId": 26709,
        "contract": "contracts/microcredit/MicrocreditImplementation.sol:MicrocreditImplementation",
        "label": "uniswapRouter",
        "offset": 0,
        "slot": "216",
        "type": "t_contract(IUniswapRouter02)19857"
      },
      {
        "astId": 26713,
        "contract": "contracts/microcredit/MicrocreditImplementation.sol:MicrocreditImplementation",
        "label": "uniswapQuoter",
        "offset": 0,
        "slot": "217",
        "type": "t_contract(IQuoter)19811"
      }
    ],
    "types": {
      "t_address": {
        "encoding": "inplace",
        "label": "address",
        "numberOfBytes": "20"
      },
      "t_array(t_bytes32)dyn_storage": {
        "base": "t_bytes32",
        "encoding": "dynamic_array",
        "label": "bytes32[]",
        "numberOfBytes": "32"
      },
      "t_array(t_struct(LoanOld)26268_storage)dyn_storage": {
        "base": "t_struct(LoanOld)26268_storage",
        "encoding": "dynamic_array",
        "label": "struct IMicrocredit.LoanOld[]",
        "numberOfBytes": "32"
      },
      "t_array(t_struct(Repayment)26293_storage)dyn_storage": {
        "base": "t_struct(Repayment)26293_storage",
        "encoding": "dynamic_array",
        "label": "struct IMicrocredit.Repayment[]",
        "numberOfBytes": "32"
      },
      "t_array(t_uint256)49_storage": {
        "base": "t_uint256",
        "encoding": "inplace",
        "label": "uint256[49]",
        "numberOfBytes": "1568"
      },
      "t_array(t_uint256)50_storage": {
        "base": "t_uint256",
        "encoding": "inplace",
        "label": "uint256[50]",
        "numberOfBytes": "1600"
      },
      "t_bool": {
        "encoding": "inplace",
        "label": "bool",
        "numberOfBytes": "1"
      },
      "t_bytes32": {
        "encoding": "inplace",
        "label": "bytes32",
        "numberOfBytes": "32"
      },
      "t_bytes_storage": {
        "encoding": "bytes",
        "label": "bytes",
        "numberOfBytes": "32"
      },
      "t_contract(IDonationMiner)18469": {
        "encoding": "inplace",
        "label": "contract IDonationMiner",
        "numberOfBytes": "20"
      },
      "t_contract(IERC20Upgradeable)858": {
        "encoding": "inplace",
        "label": "contract IERC20Upgradeable",
        "numberOfBytes": "20"
      },
      "t_contract(IQuoter)19811": {
        "encoding": "inplace",
        "label": "contract IQuoter",
        "numberOfBytes": "20"
      },
      "t_contract(IUniswapRouter02)19857": {
        "encoding": "inplace",
        "label": "contract IUniswapRouter02",
        "numberOfBytes": "20"
      },
      "t_mapping(t_address,t_bytes_storage)": {
        "encoding": "mapping",
        "key": "t_address",
        "label": "mapping(address => bytes)",
        "numberOfBytes": "32",
        "value": "t_bytes_storage"
      },
      "t_mapping(t_address,t_struct(Manager)26286_storage)": {
        "encoding": "mapping",
        "key": "t_address",
        "label": "mapping(address => struct IMicrocredit.Manager)",
        "numberOfBytes": "32",
        "value": "t_struct(Manager)26286_storage"
      },
      "t_mapping(t_address,t_struct(Token)26335_storage)": {
        "encoding": "mapping",
        "key": "t_address",
        "label": "mapping(address => struct IMicrocredit.Token)",
        "numberOfBytes": "32",
        "value": "t_struct(Token)26335_storage"
      },
      "t_mapping(t_address,t_struct(WalletMetadata)26273_storage)": {
        "encoding": "mapping",
        "key": "t_address",
        "label": "mapping(address => struct IMicrocredit.WalletMetadata)",
        "numberOfBytes": "32",
        "value": "t_struct(WalletMetadata)26273_storage"
      },
      "t_mapping(t_bytes32,t_uint256)": {
        "encoding": "mapping",
        "key": "t_bytes32",
        "label": "mapping(bytes32 => uint256)",
        "numberOfBytes": "32",
        "value": "t_uint256"
      },
      "t_mapping(t_uint256,t_struct(Loan)26325_storage)": {
        "encoding": "mapping",
        "key": "t_uint256",
        "label": "mapping(uint256 => struct IMicrocredit.Loan)",
        "numberOfBytes": "32",
        "value": "t_struct(Loan)26325_storage"
      },
      "t_mapping(t_uint256,t_struct(Repayment)26293_storage)": {
        "encoding": "mapping",
        "key": "t_uint256",
        "label": "mapping(uint256 => struct IMicrocredit.Repayment)",
        "numberOfBytes": "32",
        "value": "t_struct(Repayment)26293_storage"
      },
      "t_mapping(t_uint256,t_struct(User)26281_storage)": {
        "encoding": "mapping",
        "key": "t_uint256",
        "label": "mapping(uint256 => struct IMicrocredit.User)",
        "numberOfBytes": "32",
        "value": "t_struct(User)26281_storage"
      },
      "t_mapping(t_uint256,t_struct(UserOld)26247_storage)": {
        "encoding": "mapping",
        "key": "t_uint256",
        "label": "mapping(uint256 => struct IMicrocredit.UserOld)",
        "numberOfBytes": "32",
        "value": "t_struct(UserOld)26247_storage"
      },
      "t_struct(AddressSet)5505_storage": {
        "encoding": "inplace",
        "label": "struct EnumerableSet.AddressSet",
        "members": [
          {
            "astId": 5504,
            "contract": "contracts/microcredit/MicrocreditImplementation.sol:MicrocreditImplementation",
            "label": "_inner",
            "offset": 0,
            "slot": "0",
            "type": "t_struct(Set)5204_storage"
          }
        ],
        "numberOfBytes": "64"
      },
      "t_struct(Loan)26325_storage": {
        "encoding": "inplace",
        "label": "struct IMicrocredit.Loan",
        "members": [
          {
            "astId": 26295,
            "contract": "contracts/microcredit/MicrocreditImplementation.sol:MicrocreditImplementation",
            "label": "amountBorrowed",
            "offset": 0,
            "slot": "0",
            "type": "t_uint256"
          },
          {
            "astId": 26297,
            "contract": "contracts/microcredit/MicrocreditImplementation.sol:MicrocreditImplementation",
            "label": "period",
            "offset": 0,
            "slot": "1",
            "type": "t_uint256"
          },
          {
            "astId": 26299,
            "contract": "contracts/microcredit/MicrocreditImplementation.sol:MicrocreditImplementation",
            "label": "dailyInterest",
            "offset": 0,
            "slot": "2",
            "type": "t_uint256"
          },
          {
            "astId": 26301,
            "contract": "contracts/microcredit/MicrocreditImplementation.sol:MicrocreditImplementation",
            "label": "claimDeadline",
            "offset": 0,
            "slot": "3",
            "type": "t_uint256"
          },
          {
            "astId": 26303,
            "contract": "contracts/microcredit/MicrocreditImplementation.sol:MicrocreditImplementation",
            "label": "startDate",
            "offset": 0,
            "slot": "4",
            "type": "t_uint256"
          },
          {
            "astId": 26305,
            "contract": "contracts/microcredit/MicrocreditImplementation.sol:MicrocreditImplementation",
            "label": "lastComputedDebt",
            "offset": 0,
            "slot": "5",
            "type": "t_uint256"
          },
          {
            "astId": 26307,
            "contract": "contracts/microcredit/MicrocreditImplementation.sol:MicrocreditImplementation",
            "label": "amountRepayed",
            "offset": 0,
            "slot": "6",
            "type": "t_uint256"
          },
          {
            "astId": 26309,
            "contract": "contracts/microcredit/MicrocreditImplementation.sol:MicrocreditImplementation",
            "label": "repaymentsLength",
            "offset": 0,
            "slot": "7",
            "type": "t_uint256"
          },
          {
            "astId": 26314,
            "contract": "contracts/microcredit/MicrocreditImplementation.sol:MicrocreditImplementation",
            "label": "repayments",
            "offset": 0,
            "slot": "8",
            "type": "t_mapping(t_uint256,t_struct(Repayment)26293_storage)"
          },
          {
            "astId": 26316,
            "contract": "contracts/microcredit/MicrocreditImplementation.sol:MicrocreditImplementation",
            "label": "lastComputedDate",
            "offset": 0,
            "slot": "9",
            "type": "t_uint256"
          },
          {
            "astId": 26318,
            "contract": "contracts/microcredit/MicrocreditImplementation.sol:MicrocreditImplementation",
            "label": "managerAddress",
            "offset": 0,
            "slot": "10",
            "type": "t_address"
          },
          {
            "astId": 26320,
            "contract": "contracts/microcredit/MicrocreditImplementation.sol:MicrocreditImplementation",
            "label": "tokenAddress",
            "offset": 0,
            "slot": "11",
            "type": "t_address"
          },
          {
            "astId": 26322,
            "contract": "contracts/microcredit/MicrocreditImplementation.sol:MicrocreditImplementation",
            "label": "tokenAmountBorrowed",
            "offset": 0,
            "slot": "12",
            "type": "t_uint256"
          },
          {
            "astId": 26324,
            "contract": "contracts/microcredit/MicrocreditImplementation.sol:MicrocreditImplementation",
            "label": "tokenAmountRepayed",
            "offset": 0,
            "slot": "13",
            "type": "t_uint256"
          }
        ],
        "numberOfBytes": "448"
      },
      "t_struct(LoanOld)26268_storage": {
        "encoding": "inplace",
        "label": "struct IMicrocredit.LoanOld",
        "members": [
          {
            "astId": 26249,
            "contract": "contracts/microcredit/MicrocreditImplementation.sol:MicrocreditImplementation",
            "label": "amountBorrowed",
            "offset": 0,
            "slot": "0",
            "type": "t_uint256"
          },
          {
            "astId": 26251,
            "contract": "contracts/microcredit/MicrocreditImplementation.sol:MicrocreditImplementation",
            "label": "period",
            "offset": 0,
            "slot": "1",
            "type": "t_uint256"
          },
          {
            "astId": 26253,
            "contract": "contracts/microcredit/MicrocreditImplementation.sol:MicrocreditImplementation",
            "label": "dailyInterest",
            "offset": 0,
            "slot": "2",
            "type": "t_uint256"
          },
          {
            "astId": 26255,
            "contract": "contracts/microcredit/MicrocreditImplementation.sol:MicrocreditImplementation",
            "label": "claimDeadline",
            "offset": 0,
            "slot": "3",
            "type": "t_uint256"
          },
          {
            "astId": 26257,
            "contract": "contracts/microcredit/MicrocreditImplementation.sol:MicrocreditImplementation",
            "label": "startDate",
            "offset": 0,
            "slot": "4",
            "type": "t_uint256"
          },
          {
            "astId": 26259,
            "contract": "contracts/microcredit/MicrocreditImplementation.sol:MicrocreditImplementation",
            "label": "lastComputedDebt",
            "offset": 0,
            "slot": "5",
            "type": "t_uint256"
          },
          {
            "astId": 26261,
            "contract": "contracts/microcredit/MicrocreditImplementation.sol:MicrocreditImplementation",
            "label": "amountRepayed",
            "offset": 0,
            "slot": "6",
            "type": "t_uint256"
          },
          {
            "astId": 26265,
            "contract": "contracts/microcredit/MicrocreditImplementation.sol:MicrocreditImplementation",
            "label": "repayments",
            "offset": 0,
            "slot": "7",
            "type": "t_array(t_struct(Repayment)26293_storage)dyn_storage"
          },
          {
            "astId": 26267,
            "contract": "contracts/microcredit/MicrocreditImplementation.sol:MicrocreditImplementation",
            "label": "lastComputedDate",
            "offset": 0,
            "slot": "8",
            "type": "t_uint256"
          }
        ],
        "numberOfBytes": "288"
      },
      "t_struct(Manager)26286_storage": {
        "encoding": "inplace",
        "label": "struct IMicrocredit.Manager",
        "members": [
          {
            "astId": 26283,
            "contract": "contracts/microcredit/MicrocreditImplementation.sol:MicrocreditImplementation",
            "label": "lentAmountLimit",
            "offset": 0,
            "slot": "0",
            "type": "t_uint256"
          },
          {
            "astId": 26285,
            "contract": "contracts/microcredit/MicrocreditImplementation.sol:MicrocreditImplementation",
            "label": "lentAmount",
            "offset": 0,
            "slot": "1",
            "type": "t_uint256"
          }
        ],
        "numberOfBytes": "64"
      },
      "t_struct(Repayment)26293_storage": {
        "encoding": "inplace",
        "label": "struct IMicrocredit.Repayment",
        "members": [
          {
            "astId": 26288,
            "contract": "contracts/microcredit/MicrocreditImplementation.sol:MicrocreditImplementation",
            "label": "date",
            "offset": 0,
            "slot": "0",
            "type": "t_uint256"
          },
          {
            "astId": 26290,
            "contract": "contracts/microcredit/MicrocreditImplementation.sol:MicrocreditImplementation",
            "label": "amount",
            "offset": 0,
            "slot": "1",
            "type": "t_uint256"
          },
          {
            "astId": 26292,
            "contract": "contracts/microcredit/MicrocreditImplementation.sol:MicrocreditImplementation",
            "label": "tokenAmount",
            "offset": 0,
            "slot": "2",
            "type": "t_uint256"
          }
        ],
        "numberOfBytes": "96"
      },
      "t_struct(Set)5204_storage": {
        "encoding": "inplace",
        "label": "struct EnumerableSet.Set",
        "members": [
          {
            "astId": 5199,
            "contract": "contracts/microcredit/MicrocreditImplementation.sol:MicrocreditImplementation",
            "label": "_values",
            "offset": 0,
            "slot": "0",
            "type": "t_array(t_bytes32)dyn_storage"
          },
          {
            "astId": 5203,
            "contract": "contracts/microcredit/MicrocreditImplementation.sol:MicrocreditImplementation",
            "label": "_indexes",
            "offset": 0,
            "slot": "1",
            "type": "t_mapping(t_bytes32,t_uint256)"
          }
        ],
        "numberOfBytes": "64"
      },
      "t_struct(Token)26335_storage": {
        "encoding": "inplace",
        "label": "struct IMicrocredit.Token",
        "members": [
          {
            "astId": 26327,
            "contract": "contracts/microcredit/MicrocreditImplementation.sol:MicrocreditImplementation",
            "label": "active",
            "offset": 0,
            "slot": "0",
            "type": "t_bool"
          },
          {
            "astId": 26330,
            "contract": "contracts/microcredit/MicrocreditImplementation.sol:MicrocreditImplementation",
            "label": "exchangePathList",
            "offset": 0,
            "slot": "1",
            "type": "t_struct(AddressSet)5505_storage"
          },
          {
            "astId": 26334,
            "contract": "contracts/microcredit/MicrocreditImplementation.sol:MicrocreditImplementation",
            "label": "exchangePaths",
            "offset": 0,
            "slot": "3",
            "type": "t_mapping(t_address,t_bytes_storage)"
          }
        ],
        "numberOfBytes": "128"
      },
      "t_struct(User)26281_storage": {
        "encoding": "inplace",
        "label": "struct IMicrocredit.User",
        "members": [
          {
            "astId": 26275,
            "contract": "contracts/microcredit/MicrocreditImplementation.sol:MicrocreditImplementation",
            "label": "loansLength",
            "offset": 0,
            "slot": "0",
            "type": "t_uint256"
          },
          {
            "astId": 26280,
            "contract": "contracts/microcredit/MicrocreditImplementation.sol:MicrocreditImplementation",
            "label": "loans",
            "offset": 0,
            "slot": "1",
            "type": "t_mapping(t_uint256,t_struct(Loan)26325_storage)"
          }
        ],
        "numberOfBytes": "64"
      },
      "t_struct(UserOld)26247_storage": {
        "encoding": "inplace",
        "label": "struct IMicrocredit.UserOld",
        "members": [
          {
            "astId": 26246,
            "contract": "contracts/microcredit/MicrocreditImplementation.sol:MicrocreditImplementation",
            "label": "loans",
            "offset": 0,
            "slot": "0",
            "type": "t_array(t_struct(LoanOld)26268_storage)dyn_storage"
          }
        ],
        "numberOfBytes": "32"
      },
      "t_struct(WalletMetadata)26273_storage": {
        "encoding": "inplace",
        "label": "struct IMicrocredit.WalletMetadata",
        "members": [
          {
            "astId": 26270,
            "contract": "contracts/microcredit/MicrocreditImplementation.sol:MicrocreditImplementation",
            "label": "userId",
            "offset": 0,
            "slot": "0",
            "type": "t_uint256"
          },
          {
            "astId": 26272,
            "contract": "contracts/microcredit/MicrocreditImplementation.sol:MicrocreditImplementation",
            "label": "movedTo",
            "offset": 0,
            "slot": "1",
            "type": "t_address"
          }
        ],
        "numberOfBytes": "64"
      },
      "t_uint256": {
        "encoding": "inplace",
        "label": "uint256",
        "numberOfBytes": "32"
      }
    }
  }
}