{
  "address": "0xEA1971FB9B3642723bB223a1148517447CE54b1b",
  "abi": [
    {
      "anonymous": false,
      "inputs": [
        {
          "indexed": true,
          "internalType": "address",
          "name": "userAddress",
          "type": "address"
        },
        {
          "indexed": false,
          "internalType": "uint256",
          "name": "loanId",
          "type": "uint256"
        },
        {
          "indexed": false,
          "internalType": "uint256",
          "name": "amount",
          "type": "uint256"
        },
        {
          "indexed": false,
          "internalType": "uint256",
          "name": "period",
          "type": "uint256"
        },
        {
          "indexed": false,
          "internalType": "uint256",
          "name": "dailyInterest",
          "type": "uint256"
        },
        {
          "indexed": false,
          "internalType": "uint256",
          "name": "claimDeadline",
          "type": "uint256"
        }
      ],
      "name": "LoanAdded",
      "type": "event"
    },
    {
      "anonymous": false,
      "inputs": [
        {
          "indexed": true,
          "internalType": "address",
          "name": "userAddress",
          "type": "address"
        },
        {
          "indexed": false,
          "internalType": "uint256",
          "name": "loanId",
          "type": "uint256"
        }
      ],
      "name": "LoanCanceled",
      "type": "event"
    },
    {
      "anonymous": false,
      "inputs": [
        {
          "indexed": true,
          "internalType": "address",
          "name": "userAddress",
          "type": "address"
        },
        {
          "indexed": false,
          "internalType": "uint256",
          "name": "loanId",
          "type": "uint256"
        }
      ],
      "name": "LoanClaimed",
      "type": "event"
    },
    {
      "anonymous": false,
      "inputs": [
        {
          "indexed": true,
          "internalType": "address",
          "name": "managerAddress",
          "type": "address"
        },
        {
          "indexed": false,
          "internalType": "uint256",
          "name": "currentLentAmountLimit",
          "type": "uint256"
        }
      ],
      "name": "ManagerAdded",
      "type": "event"
    },
    {
      "anonymous": false,
      "inputs": [
        {
          "indexed": true,
          "internalType": "address",
          "name": "borrowerAddress",
          "type": "address"
        },
        {
          "indexed": true,
          "internalType": "address",
          "name": "managerAddress",
          "type": "address"
        }
      ],
      "name": "ManagerChanged",
      "type": "event"
    },
    {
      "anonymous": false,
      "inputs": [
        {
          "indexed": true,
          "internalType": "address",
          "name": "managerAddress",
          "type": "address"
        }
      ],
      "name": "ManagerRemoved",
      "type": "event"
    },
    {
      "anonymous": false,
      "inputs": [
        {
          "indexed": true,
          "internalType": "address",
          "name": "previousOwner",
          "type": "address"
        },
        {
          "indexed": true,
          "internalType": "address",
          "name": "newOwner",
          "type": "address"
        }
      ],
      "name": "OwnershipTransferred",
      "type": "event"
    },
    {
      "anonymous": false,
      "inputs": [
        {
          "indexed": false,
          "internalType": "address",
          "name": "account",
          "type": "address"
        }
      ],
      "name": "Paused",
      "type": "event"
    },
    {
      "anonymous": false,
      "inputs": [
        {
          "indexed": true,
          "internalType": "address",
          "name": "userAddress",
          "type": "address"
        },
        {
          "indexed": false,
          "internalType": "uint256",
          "name": "loanId",
          "type": "uint256"
        },
        {
          "indexed": false,
          "internalType": "uint256",
          "name": "repaymentAmount",
          "type": "uint256"
        },
        {
          "indexed": false,
          "internalType": "uint256",
          "name": "currentDebt",
          "type": "uint256"
        }
      ],
      "name": "RepaymentAdded",
      "type": "event"
    },
    {
      "anonymous": false,
      "inputs": [
        {
          "indexed": false,
          "internalType": "address",
          "name": "account",
          "type": "address"
        }
      ],
      "name": "Unpaused",
      "type": "event"
    },
    {
      "anonymous": false,
      "inputs": [
        {
          "indexed": true,
          "internalType": "address",
          "name": "oldWalletAddress",
          "type": "address"
        },
        {
          "indexed": true,
          "internalType": "address",
          "name": "newWalletAddress",
          "type": "address"
        }
      ],
      "name": "UserAddressChanged",
      "type": "event"
    },
    {
      "inputs": [
        {
          "internalType": "address",
          "name": "_userAddress",
          "type": "address"
        },
        {
          "internalType": "uint256",
          "name": "_amount",
          "type": "uint256"
        },
        {
          "internalType": "uint256",
          "name": "_period",
          "type": "uint256"
        },
        {
          "internalType": "uint256",
          "name": "_dailyInterest",
          "type": "uint256"
        },
        {
          "internalType": "uint256",
          "name": "_claimDeadline",
          "type": "uint256"
        }
      ],
      "name": "addLoan",
      "outputs": [],
      "stateMutability": "nonpayable",
      "type": "function"
    },
    {
      "inputs": [
        {
          "internalType": "address[]",
          "name": "_userAddresses",
          "type": "address[]"
        },
        {
          "internalType": "uint256[]",
          "name": "_amounts",
          "type": "uint256[]"
        },
        {
          "internalType": "uint256[]",
          "name": "_periods",
          "type": "uint256[]"
        },
        {
          "internalType": "uint256[]",
          "name": "_dailyInterests",
          "type": "uint256[]"
        },
        {
          "internalType": "uint256[]",
          "name": "_claimDeadlines",
          "type": "uint256[]"
        }
      ],
      "name": "addLoans",
      "outputs": [],
      "stateMutability": "nonpayable",
      "type": "function"
    },
    {
      "inputs": [
        {
          "internalType": "address[]",
          "name": "_managerAddresses",
          "type": "address[]"
        },
        {
          "internalType": "uint256[]",
          "name": "_currentLentAmountLimit",
          "type": "uint256[]"
        }
      ],
      "name": "addManagers",
      "outputs": [],
      "stateMutability": "nonpayable",
      "type": "function"
    },
    {
      "inputs": [],
      "name": "cUSD",
      "outputs": [
        {
          "internalType": "contract IERC20Upgradeable",
          "name": "",
          "type": "address"
        }
      ],
      "stateMutability": "view",
      "type": "function"
    },
    {
      "inputs": [
        {
          "internalType": "address[]",
          "name": "_userAddresses",
          "type": "address[]"
        },
        {
          "internalType": "uint256[]",
          "name": "_loansIds",
          "type": "uint256[]"
        }
      ],
      "name": "cancelLoans",
      "outputs": [],
      "stateMutability": "nonpayable",
      "type": "function"
    },
    {
      "inputs": [
        {
          "internalType": "address[]",
          "name": "_borrowerAddresses",
          "type": "address[]"
        },
        {
          "internalType": "address",
          "name": "_managerAddress",
          "type": "address"
        }
      ],
      "name": "changeManager",
      "outputs": [],
      "stateMutability": "nonpayable",
      "type": "function"
    },
    {
      "inputs": [
        {
          "internalType": "address",
          "name": "_oldWalletAddress",
          "type": "address"
        },
        {
          "internalType": "address",
          "name": "_newWalletAddress",
          "type": "address"
        }
      ],
      "name": "changeUserAddress",
      "outputs": [],
      "stateMutability": "nonpayable",
      "type": "function"
    },
    {
      "inputs": [
        {
          "internalType": "uint256",
          "name": "_loanId",
          "type": "uint256"
        }
      ],
      "name": "claimLoan",
      "outputs": [],
      "stateMutability": "nonpayable",
      "type": "function"
    },
    {
      "inputs": [],
      "name": "getVersion",
      "outputs": [
        {
          "internalType": "uint256",
          "name": "",
          "type": "uint256"
        }
      ],
      "stateMutability": "pure",
      "type": "function"
    },
    {
      "inputs": [
        {
          "internalType": "address",
          "name": "_cUSDAddress",
          "type": "address"
        },
        {
          "internalType": "address",
          "name": "_revenueAddress",
          "type": "address"
        }
      ],
      "name": "initialize",
      "outputs": [],
      "stateMutability": "nonpayable",
      "type": "function"
    },
    {
      "inputs": [
        {
          "internalType": "uint256",
          "name": "_index",
          "type": "uint256"
        }
      ],
      "name": "managerListAt",
      "outputs": [
        {
          "internalType": "address",
          "name": "",
          "type": "address"
        }
      ],
      "stateMutability": "view",
      "type": "function"
    },
    {
      "inputs": [],
      "name": "managerListLength",
      "outputs": [
        {
          "internalType": "uint256",
          "name": "",
          "type": "uint256"
        }
      ],
      "stateMutability": "view",
      "type": "function"
    },
    {
      "inputs": [
        {
          "internalType": "address",
          "name": "",
          "type": "address"
        }
      ],
      "name": "managers",
      "outputs": [
        {
          "internalType": "uint256",
          "name": "currentLentAmountLimit",
          "type": "uint256"
        },
        {
          "internalType": "uint256",
          "name": "currentLentAmount",
          "type": "uint256"
        }
      ],
      "stateMutability": "view",
      "type": "function"
    },
    {
      "inputs": [],
      "name": "owner",
      "outputs": [
        {
          "internalType": "address",
          "name": "",
          "type": "address"
        }
      ],
      "stateMutability": "view",
      "type": "function"
    },
    {
      "inputs": [],
      "name": "paused",
      "outputs": [
        {
          "internalType": "bool",
          "name": "",
          "type": "bool"
        }
      ],
      "stateMutability": "view",
      "type": "function"
    },
    {
      "inputs": [
        {
          "internalType": "address[]",
          "name": "_managerAddresses",
          "type": "address[]"
        }
      ],
      "name": "removeManagers",
      "outputs": [],
      "stateMutability": "nonpayable",
      "type": "function"
    },
    {
      "inputs": [],
      "name": "renounceOwnership",
      "outputs": [],
      "stateMutability": "nonpayable",
      "type": "function"
    },
    {
      "inputs": [
        {
          "internalType": "uint256",
          "name": "_loanId",
          "type": "uint256"
        },
        {
          "internalType": "uint256",
          "name": "_repaymentAmount",
          "type": "uint256"
        }
      ],
      "name": "repayLoan",
      "outputs": [],
      "stateMutability": "nonpayable",
      "type": "function"
    },
    {
      "inputs": [],
      "name": "revenueAddress",
      "outputs": [
        {
          "internalType": "address",
          "name": "",
          "type": "address"
        }
      ],
      "stateMutability": "view",
      "type": "function"
    },
    {
      "inputs": [
        {
          "internalType": "contract IERC20Upgradeable",
          "name": "_token",
          "type": "address"
        },
        {
          "internalType": "address",
          "name": "_to",
          "type": "address"
        },
        {
          "internalType": "uint256",
          "name": "_amount",
          "type": "uint256"
        }
      ],
      "name": "transferERC20",
      "outputs": [],
      "stateMutability": "nonpayable",
      "type": "function"
    },
    {
      "inputs": [
        {
          "internalType": "address",
          "name": "newOwner",
          "type": "address"
        }
      ],
      "name": "transferOwnership",
      "outputs": [],
      "stateMutability": "nonpayable",
      "type": "function"
    },
    {
      "inputs": [
        {
          "internalType": "address",
          "name": "_newRevenueAddress",
          "type": "address"
        }
      ],
      "name": "updateRevenueAddress",
      "outputs": [],
      "stateMutability": "nonpayable",
      "type": "function"
    },
    {
      "inputs": [
        {
          "internalType": "address",
          "name": "_userAddress",
          "type": "address"
        },
        {
          "internalType": "uint256",
          "name": "_loanId",
          "type": "uint256"
        },
        {
          "internalType": "uint256",
          "name": "_repaymentId",
          "type": "uint256"
        }
      ],
      "name": "userLoanRepayments",
      "outputs": [
        {
          "internalType": "uint256",
          "name": "date",
          "type": "uint256"
        },
        {
          "internalType": "uint256",
          "name": "amount",
          "type": "uint256"
        }
      ],
      "stateMutability": "view",
      "type": "function"
    },
    {
      "inputs": [
        {
          "internalType": "address",
          "name": "_userAddress",
          "type": "address"
        },
        {
          "internalType": "uint256",
          "name": "_loanId",
          "type": "uint256"
        }
      ],
      "name": "userLoans",
      "outputs": [
        {
          "internalType": "uint256",
          "name": "amountBorrowed",
          "type": "uint256"
        },
        {
          "internalType": "uint256",
          "name": "period",
          "type": "uint256"
        },
        {
          "internalType": "uint256",
          "name": "dailyInterest",
          "type": "uint256"
        },
        {
          "internalType": "uint256",
          "name": "claimDeadline",
          "type": "uint256"
        },
        {
          "internalType": "uint256",
          "name": "startDate",
          "type": "uint256"
        },
        {
          "internalType": "uint256",
          "name": "currentDebt",
          "type": "uint256"
        },
        {
          "internalType": "uint256",
          "name": "lastComputedDebt",
          "type": "uint256"
        },
        {
          "internalType": "uint256",
          "name": "amountRepayed",
          "type": "uint256"
        },
        {
          "internalType": "uint256",
          "name": "repaymentsLength",
          "type": "uint256"
        },
        {
          "internalType": "uint256",
          "name": "lastComputedDate",
          "type": "uint256"
        },
        {
          "internalType": "address",
          "name": "managerAddress",
          "type": "address"
        }
      ],
      "stateMutability": "view",
      "type": "function"
    },
    {
      "inputs": [
        {
          "internalType": "uint256",
          "name": "_index",
          "type": "uint256"
        }
      ],
      "name": "walletListAt",
      "outputs": [
        {
          "internalType": "address",
          "name": "",
          "type": "address"
        }
      ],
      "stateMutability": "view",
      "type": "function"
    },
    {
      "inputs": [],
      "name": "walletListLength",
      "outputs": [
        {
          "internalType": "uint256",
          "name": "",
          "type": "uint256"
        }
      ],
      "stateMutability": "view",
      "type": "function"
    },
    {
      "inputs": [
        {
          "internalType": "address",
          "name": "_userAddress",
          "type": "address"
        }
      ],
      "name": "walletMetadata",
      "outputs": [
        {
          "internalType": "uint256",
          "name": "userId",
          "type": "uint256"
        },
        {
          "internalType": "address",
          "name": "movedTo",
          "type": "address"
        },
        {
          "internalType": "uint256",
          "name": "loansLength",
          "type": "uint256"
        }
      ],
      "stateMutability": "view",
      "type": "function"
    }
  ],
  "transactionHash": "0x63490a78c5610c2baf595c4205f32cf81213a903292c34f057872e243af10fa6",
  "args": [],
  "numDeployments": 4,
  "solcInputHash": "f2a8f1f4bc0ce61c685bdd9e10d2d52e",
  "bytecode": "0x608060405234801561001057600080fd5b506132cb806100206000396000f3fe608060405234801561001057600080fd5b50600436106101a95760003560e01c806378d5bcc1116100f9578063b410908d11610097578063eef1b51511610071578063eef1b51514610436578063f2fde38b14610449578063fdd288591461045c578063fdff9b4d1461046f57600080fd5b8063b410908d146103a1578063d8bad5bd146103b4578063e0c7cf571461042357600080fd5b80638da5cb5b116100d35780638da5cb5b146103575780639a9cb971146103685780639db5dbe41461037b578063adb971261461038e57600080fd5b806378d5bcc11461030957806380407735146103315780638a700b531461034457600080fd5b806353a469b31161016657806360c4477a1161014057806360c4477a1461026e5780636323f5e91461027657806368fcaf84146102ee578063715018a61461030157600080fd5b806353a469b3146102325780635c975abb146102455780635d916afd1461025b57600080fd5b80630d8e6e2c146101ae57806310f3ee29146101c45780631fccf672146101d9578063387d0263146102045780633a17596b1461020c578063485cc9551461021f575b600080fd5b60015b6040519081526020015b60405180910390f35b6101d76101d2366004612ca7565b610496565b005b60c9546101ec906001600160a01b031681565b6040516001600160a01b0390911681526020016101bb565b6101b1610598565b6101d761021a366004612c64565b6105a9565b6101d761022d366004612bcd565b6105e4565b6101d7610240366004612f74565b6106e7565b60655460ff1660405190151581526020016101bb565b6101d7610269366004612d50565b610903565b6101b1610aab565b6102cb610284366004612bb1565b6001600160a01b03908116600090815260cc6020908152604080832081518083018352815480825260019092015490951694830185905280845260cb909252909120549092565b604080519384526001600160a01b039092166020840152908201526060016101bb565b6101ec6102fc366004612f74565b610ab7565b6101d7610aca565b61031c610317366004612c30565b610b00565b604080519283526020830191909152016101bb565b6101d761033f366004612ce7565b610d83565b6101d7610352366004612f8c565b610e4a565b6033546001600160a01b03166101ec565b6101d7610376366004612e3b565b611301565b6101d7610389366004612f34565b6114a8565b6101ec61039c366004612f74565b611518565b60d1546101ec906001600160a01b031681565b6103c76103c2366004612c05565b611525565b604080519b8c5260208c019a909a52988a01979097526060890195909552608088019390935260a087019190915260c086015260e08501526101008401526101208301526001600160a01b0316610140820152610160016101bb565b6101d7610431366004612ce7565b61174e565b6101d7610444366004612bcd565b6118f6565b6101d7610457366004612bb1565b611a9b565b6101d761046a366004612bb1565b611b36565b61031c61047d366004612bb1565b60d2602052600090815260409020805460019091015482565b6033546001600160a01b031633146104c95760405162461bcd60e51b81526004016104c0906130d1565b60405180910390fd5b8060005b81811015610592576105158484838181106104f857634e487b7160e01b600052603260045260246000fd5b905060200201602081019061050d9190612bb1565b60cf90611b82565b5083838281811061053657634e487b7160e01b600052603260045260246000fd5b905060200201602081019061054b9190612bb1565b6001600160a01b03167fef69f7d97228658c92417be1b16b19058315de71fecb435d07b7d23728b6bd3160405160405180910390a28061058a81613239565b9150506104cd565b50505050565b60006105a460cf611b9e565b905090565b6105b460cf33611ba8565b6105d05760405162461bcd60e51b81526004016104c090612ffc565b6105dd8585858585611bca565b5050505050565b600054610100900460ff166105ff5760005460ff1615610603565b303b155b6106665760405162461bcd60e51b815260206004820152602e60248201527f496e697469616c697a61626c653a20636f6e747261637420697320616c72656160448201526d191e481a5b9a5d1a585b1a5e995960921b60648201526084016104c0565b600054610100900460ff16158015610688576000805461ffff19166101011790555b610690612018565b61069861204f565b6106a0612086565b60c980546001600160a01b038086166001600160a01b03199283161790925560d180549285169290911691909117905580156106e2576000805461ff00191690555b505050565b6002609754141561070a5760405162461bcd60e51b81526004016104c090613151565b600260975561071933826120b5565b33600090815260cc602090815260408083208151808301835281548082526001909201546001600160a01b03168185015290845260cb909252822080549192909182908590811061077a57634e487b7160e01b600052603260045260246000fd5b90600052602060002090600a0201905080600401546000146107ae5760405162461bcd60e51b81526004016104c090613090565b60038101546107ff5760405162461bcd60e51b815260206004820152601a60248201527f4d6963726f6372656469743a204c6f616e2063616e63656c656400000000000060448201526064016104c0565b42816003015410156108535760405162461bcd60e51b815260206004820152601960248201527f4d6963726f6372656469743a204c6f616e20657870697265640000000000000060448201526064016104c0565b4260048201556002810154670de0b6b3a764000090610874906064906131a0565b61088690670de0b6b3a7640000613188565b825461089291906131c0565b61089c91906131a0565b6005820155426008820155805460c9546108c3916001600160a01b039091169033906122fb565b60405184815233907fba0cbe8ef8ef3c6984adc684d0c9b9a4d2d4c79b4678b63c38651fa48d21c62c9060200160405180910390a2505060016097555050565b61090e60cf33611ba8565b61092a5760405162461bcd60e51b81526004016104c090612ffc565b8887811461094a5760405162461bcd60e51b81526004016104c090613040565b8086146109695760405162461bcd60e51b81526004016104c090613040565b8084146109885760405162461bcd60e51b81526004016104c090613040565b8082146109a75760405162461bcd60e51b81526004016104c090613040565b60005b81811015610a9d57610a8b8c8c838181106109d557634e487b7160e01b600052603260045260246000fd5b90506020020160208101906109ea9190612bb1565b8b8b84818110610a0a57634e487b7160e01b600052603260045260246000fd5b905060200201358a8a85818110610a3157634e487b7160e01b600052603260045260246000fd5b90506020020135898986818110610a5857634e487b7160e01b600052603260045260246000fd5b90506020020135888887818110610a7f57634e487b7160e01b600052603260045260246000fd5b90506020020135611bca565b80610a9581613239565b9150506109aa565b505050505050505050505050565b60006105a460cd611b9e565b6000610ac460cf8361235e565b92915050565b6033546001600160a01b03163314610af45760405162461bcd60e51b81526004016104c0906130d1565b610afe600061236a565b565b600080610b0d85856120b5565b6001600160a01b03808616600090815260cc6020908152604080832081518083018352815480825260019092015490951685840152835260cb8252808320815181548085028201840184529381018481529093919284928491879085015b82821015610c7a57838290600052602060002090600a0201604051806101400160405290816000820154815260200160018201548152602001600282015481526020016003820154815260200160048201548152602001600582015481526020016006820154815260200160078201805480602002602001604051908101604052809291908181526020016000905b82821015610c4057838290600052602060002090600202016040518060400160405290816000820154815260200160018201548152505081526020019060010190610bfa565b5050509082525060088201546020808301919091526009909201546001600160a01b03166040909101529082526001929092019101610b6b565b50505050815250509050600081600001518781518110610caa57634e487b7160e01b600052603260045260246000fd5b60200260200101519050858160e001515111610d145760405162461bcd60e51b8152602060048201526024808201527f4d6963726f6372656469743a2052657061796d656e7420646f65736e277420656044820152631e1a5cdd60e21b60648201526084016104c0565b8060e001518681518110610d3857634e487b7160e01b600052603260045260246000fd5b60200260200101516000015194508060e001518681518110610d6a57634e487b7160e01b600052603260045260246000fd5b6020026020010151602001519350505050935093915050565b610d8e60cf33611ba8565b610daa5760405162461bcd60e51b81526004016104c090612ffc565b828114610dc95760405162461bcd60e51b81526004016104c090613040565b60005b838110156105dd57610e38858583818110610df757634e487b7160e01b600052603260045260246000fd5b9050602002016020810190610e0c9190612bb1565b848484818110610e2c57634e487b7160e01b600052603260045260246000fd5b905060200201356123bc565b80610e4281613239565b915050610dcc565b60026097541415610e6d5760405162461bcd60e51b81526004016104c090613151565b600260975580610ebf5760405162461bcd60e51b815260206004820152601b60248201527f4d6963726f6372656469743a20496e76616c696420616d6f756e74000000000060448201526064016104c0565b610ec933836120b5565b33600090815260cc602090815260408083208151808301835281548082526001909201546001600160a01b03168185015290845260cb9092528220805491929091829086908110610f2a57634e487b7160e01b600052603260045260246000fd5b90600052602060002090600a020190506000816004015411610f8e5760405162461bcd60e51b815260206004820152601d60248201527f4d6963726f6372656469743a204c6f616e206e6f7420636c61696d656400000060448201526064016104c0565b6000816005015411610ffb5760405162461bcd60e51b815260206004820152603060248201527f4d6963726f6372656469743a204c6f616e2068617320616c726561647920626560448201526f195b88199d5b1b1e481c995c185e595960821b60648201526084016104c0565b60006110e982604051806101400160405290816000820154815260200160018201548152602001600282015481526020016003820154815260200160048201548152602001600582015481526020016006820154815260200160078201805480602002602001604051908101604052809291908181526020016000905b828210156110be57838290600052602060002090600202016040518060400160405290816000820154815260200160018201548152505081526020019060010190611078565b50505090825250600882015460208201526009909101546001600160a01b0316604090910152612540565b9050848110156110f7578094505b81546006830154611109908790613188565b116111435760c954611126906001600160a01b03163330886125db565b600982015461113e906001600160a01b031686612613565b611213565b815460068301541061116e5760d15460c95461113e916001600160a01b0391821691339116886125db565b60068201548254600091611181916131df565b60d1549091506001600160a01b03166111b15760c9546111ac906001600160a01b03163330896125db565b6111f9565b60c9546111c9906001600160a01b03163330846125db565b60d1546111f99033906001600160a01b03166111e5848a6131df565b60c9546001600160a01b03169291906125db565b6009830154611211906001600160a01b031682612613565b505b60078201805460018181018355600092835260209092204260029092020190815590810186905561124486836131df565b8360050181905550858360060160008282546112609190613188565b90915550506008830154600090620151809061127c90426131df565b61128691906131a0565b905061129581620151806131c0565b84600801546112a49190613188565b60088501556005840154604080518a8152602081018a90529081019190915233907f36bd188317b9b3af98bbc5bfd88a0bccb96582fa2c955815ea9916dfeeb02d9e9060600160405180910390a250506001609755505050505050565b61130c60cf33611ba8565b6113285760405162461bcd60e51b81526004016104c090612ffc565b600061133560cf83611ba8565b61138d5760405162461bcd60e51b8152602060048201526024808201527f4d6963726f6372656469743a20696e76616c6964206d616e61676572206164646044820152637265737360e01b60648201526084016104c0565b5060005b82518110156106e2576113d58382815181106113bd57634e487b7160e01b600052603260045260246000fd5b602002602001015160cd611ba890919063ffffffff16565b61142f5760405162461bcd60e51b815260206004820152602560248201527f4d6963726f6372656469743a20696e76616c696420626f72726f776572206164604482015264647265737360d81b60648201526084016104c0565b816001600160a01b031683828151811061145957634e487b7160e01b600052603260045260246000fd5b60200260200101516001600160a01b03167f605c2dbf762e5f7d60a546d42e7205dcb1b011ebc62a61736a57c9089d3a435060405160405180910390a3806114a081613239565b915050611391565b600260975414156114cb5760405162461bcd60e51b81526004016104c090613151565b60026097556033546001600160a01b031633146114fa5760405162461bcd60e51b81526004016104c0906130d1565b61150e6001600160a01b03841683836122fb565b5050600160975550565b6000610ac460cd8361235e565b60008060008060008060008060008060006115408d8d6120b5565b6001600160a01b03808e16600090815260cc6020908152604080832081518083018352815480825260019092015490951685840152835260cb8252808320815181548085028201840184529381018481529093919284928491879085015b828210156116ad57838290600052602060002090600a0201604051806101400160405290816000820154815260200160018201548152602001600282015481526020016003820154815260200160048201548152602001600582015481526020016006820154815260200160078201805480602002602001604051908101604052809291908181526020016000905b828210156116735783829060005260206000209060020201604051806040016040529081600082015481526020016001820154815250508152602001906001019061162d565b5050509082525060088201546020808301919091526009909201546001600160a01b0316604090910152908252600192909201910161159e565b50505050815250509050600081600001518f815181106116dd57634e487b7160e01b600052603260045260246000fd5b6020026020010151905080600001519d5080602001519c5080604001519b5080606001519a50806080015199508060a00151975061171a81612540565b98508060c0015196508060e00151519550806101000151945080610120015193505050509295989b509295989b9093969950565b6033546001600160a01b031633146117785760405162461bcd60e51b81526004016104c0906130d1565b8260005b818110156118ee576117c48686838181106117a757634e487b7160e01b600052603260045260246000fd5b90506020020160208101906117bc9190612bb1565b60cf9061269c565b508383828181106117e557634e487b7160e01b600052603260045260246000fd5b9050602002013560d2600088888581811061181057634e487b7160e01b600052603260045260246000fd5b90506020020160208101906118259190612bb1565b6001600160a01b0316815260208101919091526040016000205585858281811061185f57634e487b7160e01b600052603260045260246000fd5b90506020020160208101906118749190612bb1565b6001600160a01b03167ffae05d1286e3d4cd0db21fce06a66beb75ec586eb923fc0fcc332e69d7ad2e2f8585848181106118be57634e487b7160e01b600052603260045260246000fd5b905060200201356040516118d491815260200190565b60405180910390a2806118e681613239565b91505061177c565b505050505050565b61190160cf33611ba8565b61191d5760405162461bcd60e51b81526004016104c090612ffc565b6001600160a01b038216600090815260cc60205260409020805415801590611950575060018101546001600160a01b0316155b6119ab5760405162461bcd60e51b815260206004820152602660248201527f4d6963726f6372656469743a205468697320757365722063616e6e6f74206265604482015265081b5bdd995960d21b60648201526084016104c0565b6001600160a01b038216600090815260cc60205260409020805415611a285760405162461bcd60e51b815260206004820152602d60248201527f4d6963726f6372656469743a205461726765742077616c6c657420616464726560448201526c1cdcc81a5cc81a5b9d985b1a59609a1b60648201526084016104c0565b6001820180546001600160a01b0319166001600160a01b03851617905581548155611a5460cd8461269c565b50826001600160a01b0316846001600160a01b03167ffe697da51e9b8089b3ac92361b06886b93f48f935848aa4da1148c15b262840a60405160405180910390a350505050565b6033546001600160a01b03163314611ac55760405162461bcd60e51b81526004016104c0906130d1565b6001600160a01b038116611b2a5760405162461bcd60e51b815260206004820152602660248201527f4f776e61626c653a206e6577206f776e657220697320746865207a65726f206160448201526564647265737360d01b60648201526084016104c0565b611b338161236a565b50565b6033546001600160a01b03163314611b605760405162461bcd60e51b81526004016104c0906130d1565b60d180546001600160a01b0319166001600160a01b0392909216919091179055565b6000611b97836001600160a01b0384166126b1565b9392505050565b6000610ac4825490565b6001600160a01b03811660009081526001830160205260408120541515611b97565b428111611c245760405162461bcd60e51b815260206004820152602260248201527f4d6963726f6372656469743a20696e76616c696420636c61696d446561646c696044820152616e6560f01b60648201526084016104c0565b6001600160a01b03808616600090815260cc60205260409020600181015490911615611c9e5760405162461bcd60e51b8152602060048201526024808201527f4d6963726f6372656469743a20546865207573657220686173206265656e206d6044820152631bdd995960e21b60648201526084016104c0565b33600090815260d26020526040902080546001820154611cbf908890613188565b1115611d3e5760405162461bcd60e51b815260206004820152604260248201527f4d6963726f6372656469743a204d616e6167657220646f6e277420686176652060448201527f656e6f7567682066756e647320746f20626f72726f77207468697320616d6f756064820152611b9d60f21b608482015260a4016104c0565b8154611d6b5760ca8054906000611d5483613239565b909155505060ca548255611d6960cd8861269c565b505b8154600090815260cb6020526040902080548015611f4757600082611d916001846131df565b81548110611daf57634e487b7160e01b600052603260045260246000fd5b90600052602060002090600a0201604051806101400160405290816000820154815260200160018201548152602001600282015481526020016003820154815260200160048201548152602001600582015481526020016006820154815260200160078201805480602002602001604051908101604052809291908181526020016000905b82821015611e7a57838290600052602060002090600202016040518060400160405290816000820154815260200160018201548152505081526020019060010190611e34565b50505090825250600882015460208201526009909101546001600160a01b0316604090910152608081015190915015801590611eb8575060a0810151155b80611ed357506080810151158015611ed35750428160600151105b80611ee057506060810151155b611f455760405162461bcd60e51b815260206004820152603060248201527f4d6963726f6372656469743a20546865207573657220616c726561647920686160448201526f399030b71030b1ba34bb32903637b0b760811b60648201526084016104c0565b505b815460018181018455600084815260208120600a9093029092018a81558082018a905560028101899055600381018890556009810180546001600160a01b03191633179055908501805491928b92611fa0908490613188565b909155505082546001600160a01b038b16907fdf5f35c1edc69bc65031bb54e429851779e0db0a2d5f763a0eabdd9bec9429f290611fe0906001906131df565b60408051918252602082018d905281018b9052606081018a90526080810189905260a00160405180910390a250505050505050505050565b600054610100900460ff1661203f5760405162461bcd60e51b81526004016104c090613106565b6120476127ce565b610afe6127f5565b600054610100900460ff166120765760405162461bcd60e51b81526004016104c090613106565b61207e6127ce565b610afe612825565b600054610100900460ff166120ad5760405162461bcd60e51b81526004016104c090613106565b610afe612858565b6001600160a01b03808316600090815260cc602090815260409182902082518084019093528054808452600190910154909316908201529015801590612106575060208101516001600160a01b0316155b61215e5760405162461bcd60e51b815260206004820152602360248201527f4d6963726f6372656469743a20496e76616c69642077616c6c6574206164647260448201526265737360e81b60648201526084016104c0565b8051600090815260cb60209081526040808320815181548085028201840184529381018481529093919284928491879085015b828210156122a057838290600052602060002090600a0201604051806101400160405290816000820154815260200160018201548152602001600282015481526020016003820154815260200160048201548152602001600582015481526020016006820154815260200160078201805480602002602001604051908101604052809291908181526020016000905b8282101561226657838290600052602060002090600202016040518060400160405290816000820154815260200160018201548152505081526020019060010190612220565b5050509082525060088201546020808301919091526009909201546001600160a01b03166040909101529082526001929092019101612191565b5050509152505080515190915083106105925760405162461bcd60e51b815260206004820152601f60248201527f4d6963726f6372656469743a204c6f616e20646f65736e27742065786973740060448201526064016104c0565b6040516001600160a01b0383166024820152604481018290526106e290849063a9059cbb60e01b906064015b60408051601f198184030181529190526020810180516001600160e01b03166001600160e01b031990931692909217909152612886565b6000611b978383612958565b603380546001600160a01b038381166001600160a01b0319831681179093556040519116919082907f8be0079c531659141344cd1fd0a4f28419497f9722a3daafe3b4186f6b6457e090600090a35050565b6123c682826120b5565b6001600160a01b03808316600090815260cc6020908152604080832081518083018352815480825260019092015490951685840152835260cb9091528120805490919082908590811061242957634e487b7160e01b600052603260045260246000fd5b90600052602060002090600a02019050806004015460001461245d5760405162461bcd60e51b81526004016104c090613090565b60038101546124b95760405162461bcd60e51b815260206004820152602260248201527f4d6963726f6372656469743a204c6f616e20616c72656164792063616e63656c604482015261195960f21b60648201526084016104c0565b60006003820181905560098201546001600160a01b0316815260d2602052604081208254600182018054929391929091906124f59084906131df565b90915550506040518581526001600160a01b038716907f2f0f5933c0b9b1d9fee69327e7789ce07ef1be486122748fc2a079742067a8089060200160405180910390a2505050505050565b60008160a001516000141561255757506000919050565b6000620151808361010001514261256e91906131df565b61257891906131a0565b60a08401519091505b8115611b9757670de0b6b3a7640000606485604001516125a191906131a0565b6125b390670de0b6b3a7640000613188565b6125bd90836131c0565b6125c791906131a0565b9050816125d381613222565b925050612581565b6040516001600160a01b03808516602483015283166044820152606481018290526105929085906323b872dd60e01b90608401612327565b6001600160a01b03821615612698576001600160a01b038216600090815260d2602052604090206001015481101561267b576001600160a01b038216600090815260d26020526040812060010180548392906126709084906131df565b909155506126989050565b6001600160a01b038216600090815260d260205260408120600101555b5050565b6000611b97836001600160a01b038416612990565b600081815260018301602052604081205480156127c45760006126d56001836131df565b85549091506000906126e9906001906131df565b905081811461276a57600086600001828154811061271757634e487b7160e01b600052603260045260246000fd5b906000526020600020015490508087600001848154811061274857634e487b7160e01b600052603260045260246000fd5b6000918252602080832090910192909255918252600188019052604090208390555b855486908061278957634e487b7160e01b600052603160045260246000fd5b600190038181906000526020600020016000905590558560010160008681526020019081526020016000206000905560019350505050610ac4565b6000915050610ac4565b600054610100900460ff16610afe5760405162461bcd60e51b81526004016104c090613106565b600054610100900460ff1661281c5760405162461bcd60e51b81526004016104c090613106565b610afe3361236a565b600054610100900460ff1661284c5760405162461bcd60e51b81526004016104c090613106565b6065805460ff19169055565b600054610100900460ff1661287f5760405162461bcd60e51b81526004016104c090613106565b6001609755565b60006128db826040518060400160405280602081526020017f5361666545524332303a206c6f772d6c6576656c2063616c6c206661696c6564815250856001600160a01b03166129df9092919063ffffffff16565b8051909150156106e257808060200190518101906128f99190612f14565b6106e25760405162461bcd60e51b815260206004820152602a60248201527f5361666545524332303a204552433230206f7065726174696f6e20646964206e6044820152691bdd081cdd58d8d9595960b21b60648201526084016104c0565b600082600001828154811061297d57634e487b7160e01b600052603260045260246000fd5b9060005260206000200154905092915050565b60008181526001830160205260408120546129d757508154600181810184556000848152602080822090930184905584548482528286019093526040902091909155610ac4565b506000610ac4565b60606129ee84846000856129f6565b949350505050565b606082471015612a575760405162461bcd60e51b815260206004820152602660248201527f416464726573733a20696e73756666696369656e742062616c616e636520666f6044820152651c8818d85b1b60d21b60648201526084016104c0565b843b612aa55760405162461bcd60e51b815260206004820152601d60248201527f416464726573733a2063616c6c20746f206e6f6e2d636f6e747261637400000060448201526064016104c0565b600080866001600160a01b03168587604051612ac19190612fad565b60006040518083038185875af1925050503d8060008114612afe576040519150601f19603f3d011682016040523d82523d6000602084013e612b03565b606091505b5091509150612b13828286612b1e565b979650505050505050565b60608315612b2d575081611b97565b825115612b3d5782518084602001fd5b8160405162461bcd60e51b81526004016104c09190612fc9565b8035612b6281613280565b919050565b60008083601f840112612b78578081fd5b50813567ffffffffffffffff811115612b8f578182fd5b6020830191508360208260051b8501011115612baa57600080fd5b9250929050565b600060208284031215612bc2578081fd5b8135611b9781613280565b60008060408385031215612bdf578081fd5b8235612bea81613280565b91506020830135612bfa81613280565b809150509250929050565b60008060408385031215612c17578182fd5b8235612c2281613280565b946020939093013593505050565b600080600060608486031215612c44578081fd5b8335612c4f81613280565b95602085013595506040909401359392505050565b600080600080600060a08688031215612c7b578081fd5b8535612c8681613280565b97602087013597506040870135966060810135965060800135945092505050565b60008060208385031215612cb9578182fd5b823567ffffffffffffffff811115612ccf578283fd5b612cdb85828601612b67565b90969095509350505050565b60008060008060408587031215612cfc578384fd5b843567ffffffffffffffff80821115612d13578586fd5b612d1f88838901612b67565b90965094506020870135915080821115612d37578384fd5b50612d4487828801612b67565b95989497509550505050565b60008060008060008060008060008060a08b8d031215612d6e578485fd5b8a3567ffffffffffffffff80821115612d85578687fd5b612d918e838f01612b67565b909c509a5060208d0135915080821115612da9578687fd5b612db58e838f01612b67565b909a50985060408d0135915080821115612dcd578687fd5b612dd98e838f01612b67565b909850965060608d0135915080821115612df1578586fd5b612dfd8e838f01612b67565b909650945060808d0135915080821115612e15578384fd5b50612e228d828e01612b67565b915080935050809150509295989b9194979a5092959850565b60008060408385031215612e4d578182fd5b823567ffffffffffffffff80821115612e64578384fd5b818501915085601f830112612e77578384fd5b8135602082821115612e8b57612e8b61326a565b8160051b604051601f19603f83011681018181108682111715612eb057612eb061326a565b604052838152828101945085830182870184018b1015612ece578889fd5b8896505b84871015612ef757612ee381612b57565b865260019690960195948301948301612ed2565b509650612f079050878201612b57565b9450505050509250929050565b600060208284031215612f25578081fd5b81518015158114611b97578182fd5b600080600060608486031215612f48578283fd5b8335612f5381613280565b92506020840135612f6381613280565b929592945050506040919091013590565b600060208284031215612f85578081fd5b5035919050565b60008060408385031215612f9e578182fd5b50508035926020909101359150565b60008251612fbf8184602087016131f6565b9190910192915050565b6020815260008251806020840152612fe88160408501602087016131f6565b601f01601f19169190910160400192915050565b60208082526024908201527f4d6963726f6372656469743a2063616c6c6572206973206e6f742061206d616e60408201526330b3b2b960e11b606082015260800190565b60208082526030908201527f4d6963726f6372656469743a2063616c6c6461746120696e666f726d6174696f60408201526f0dc40c2e4d2e8f240dad2e6dac2e8c6d60831b606082015260800190565b60208082526021908201527f4d6963726f6372656469743a204c6f616e20616c726561647920636c61696d656040820152601960fa1b606082015260800190565b6020808252818101527f4f776e61626c653a2063616c6c6572206973206e6f7420746865206f776e6572604082015260600190565b6020808252602b908201527f496e697469616c697a61626c653a20636f6e7472616374206973206e6f74206960408201526a6e697469616c697a696e6760a81b606082015260800190565b6020808252601f908201527f5265656e7472616e637947756172643a207265656e7472616e742063616c6c00604082015260600190565b6000821982111561319b5761319b613254565b500190565b6000826131bb57634e487b7160e01b81526012600452602481fd5b500490565b60008160001904831182151516156131da576131da613254565b500290565b6000828210156131f1576131f1613254565b500390565b60005b838110156132115781810151838201526020016131f9565b838111156105925750506000910152565b60008161323157613231613254565b506000190190565b600060001982141561324d5761324d613254565b5060010190565b634e487b7160e01b600052601160045260246000fd5b634e487b7160e01b600052604160045260246000fd5b6001600160a01b0381168114611b3357600080fdfea264697066735822122071873dc20d09ff393b4a6e7948598e7e05a02360f478e6fed18b4299d4a5c2d864736f6c63430008040033",
  "devdoc": {
    "events": {
      "ManagerChanged(address,address)": {
        "params": {
          "borrowerAddress": "The address of the borrower",
          "managerAddress": "The address of the new manager"
        }
      }
    },
    "kind": "dev",
    "methods": {
      "addLoan(address,uint256,uint256,uint256,uint256)": {
        "params": {
          "_amount": "amount of the loan",
          "_claimDeadline": "claim deadline of the loan",
          "_dailyInterest": "daily interest of the loan",
          "_period": "period of the loan",
          "_userAddress": "address of the user"
        }
      },
      "addLoans(address[],uint256[],uint256[],uint256[],uint256[])": {
        "params": {
          "_amounts": "amounts of the loan",
          "_claimDeadlines": "claim deadlines of the loan",
          "_dailyInterests": "daily interests of the loan",
          "_periods": "periods of the loan",
          "_userAddresses": "addresses of the user"
        }
      },
      "addManagers(address[],uint256[])": {
        "params": {
          "_managerAddresses": "addresses of the managers"
        }
      },
      "cancelLoans(address[],uint256[])": {
        "params": {
          "_loansIds": "Loan ids",
          "_userAddresses": "User addresses"
        }
      },
      "changeManager(address[],address)": {
        "details": "This method doesn't change anything on the contract state, it just emits events to be used by the off-chain system",
        "params": {
          "_borrowerAddresses": "address of the borrowers",
          "_managerAddress": "address of the new manager"
        }
      },
      "changeUserAddress(address,address)": {
        "params": {
          "_newWalletAddress": "New wallet address",
          "_oldWalletAddress": "Old wallet address"
        }
      },
      "claimLoan(uint256)": {
        "params": {
          "_loanId": "Loan ID"
        }
      },
      "initialize(address,address)": {
        "params": {
          "_cUSDAddress": "The address of the cUSD token",
          "_revenueAddress": "The address that collects all the interest"
        }
      },
      "managerListAt(uint256)": {
        "params": {
          "_index": "index value"
        },
        "returns": {
          "_0": "address of the manager"
        }
      },
      "owner()": {
        "details": "Returns the address of the current owner."
      },
      "paused()": {
        "details": "Returns true if the contract is paused, and false otherwise."
      },
      "removeManagers(address[])": {
        "params": {
          "_managerAddresses": "addresses of the managers"
        }
      },
      "renounceOwnership()": {
        "details": "Leaves the contract without owner. It will not be possible to call `onlyOwner` functions anymore. Can only be called by the current owner. NOTE: Renouncing ownership will leave the contract without an owner, thereby removing any functionality that is only available to the owner."
      },
      "repayLoan(uint256,uint256)": {
        "params": {
          "_loanId": "Loan ID",
          "_repaymentAmount": "Repayment amount"
        }
      },
      "transferERC20(address,address,uint256)": {
        "params": {
          "_amount": "amount of the transaction",
          "_to": "address of the receiver",
          "_token": "address of the ERC20 token"
        }
      },
      "transferOwnership(address)": {
        "details": "Transfers ownership of the contract to a new account (`newOwner`). Can only be called by the current owner."
      },
      "walletListAt(uint256)": {
        "params": {
          "_index": "index value"
        },
        "returns": {
          "_0": "address of the user"
        }
      },
      "walletMetadata(address)": {
        "params": {
          "_userAddress": "address of the user"
        },
        "returns": {
          "loansLength": "          the number of the user's loans",
          "movedTo": "              the number of the user's loans",
          "userId": "               the userId"
        }
      }
    },
    "version": 1
  },
  "userdoc": {
    "events": {
      "ManagerChanged(address,address)": {
        "notice": "Triggered when a borrower's manager has been changed"
      }
    },
    "kind": "user",
    "methods": {
      "addLoan(address,uint256,uint256,uint256,uint256)": {
        "notice": "Adds a loan"
      },
      "addLoans(address[],uint256[],uint256[],uint256[],uint256[])": {
        "notice": "Adds multiples loans"
      },
      "addManagers(address[],uint256[])": {
        "notice": "Adds managers"
      },
      "cancelLoans(address[],uint256[])": {
        "notice": "Cancel a loan"
      },
      "changeManager(address[],address)": {
        "notice": "Changes the borrowers manager address"
      },
      "changeUserAddress(address,address)": {
        "notice": "Change user address"
      },
      "claimLoan(uint256)": {
        "notice": "Claim a loan"
      },
      "getVersion()": {
        "notice": "Returns the current implementation version"
      },
      "initialize(address,address)": {
        "notice": "Used to initialize the Microcredit contract"
      },
      "managerListAt(uint256)": {
        "notice": "Returns an address from the managerList"
      },
      "managerListLength()": {
        "notice": "Returns the length of the managerList"
      },
      "removeManagers(address[])": {
        "notice": "Removes managers"
      },
      "repayLoan(uint256,uint256)": {
        "notice": "Repay a loan"
      },
      "transferERC20(address,address,uint256)": {
        "notice": "Transfers an amount of an ERC20 from this contract to an address"
      },
      "walletListAt(uint256)": {
        "notice": "Returns an address from the walletList"
      },
      "walletListLength()": {
        "notice": "Returns the length of the walletList"
      },
      "walletMetadata(address)": {
        "notice": "Returns the information of a user"
      }
    },
    "version": 1
  },
  "storageLayout": {
    "storage": [
      {
        "astId": 542,
        "contract": "contracts/microcredit/MicrocreditImplementation.sol:MicrocreditImplementation",
        "label": "_initialized",
        "offset": 0,
        "slot": "0",
        "type": "t_bool"
      },
      {
        "astId": 545,
        "contract": "contracts/microcredit/MicrocreditImplementation.sol:MicrocreditImplementation",
        "label": "_initializing",
        "offset": 1,
        "slot": "0",
        "type": "t_bool"
      },
      {
        "astId": 1370,
        "contract": "contracts/microcredit/MicrocreditImplementation.sol:MicrocreditImplementation",
        "label": "__gap",
        "offset": 0,
        "slot": "1",
        "type": "t_array(t_uint256)50_storage"
      },
      {
        "astId": 420,
        "contract": "contracts/microcredit/MicrocreditImplementation.sol:MicrocreditImplementation",
        "label": "_owner",
        "offset": 0,
        "slot": "51",
        "type": "t_address"
      },
      {
        "astId": 534,
        "contract": "contracts/microcredit/MicrocreditImplementation.sol:MicrocreditImplementation",
        "label": "__gap",
        "offset": 0,
        "slot": "52",
        "type": "t_array(t_uint256)49_storage"
      },
      {
        "astId": 630,
        "contract": "contracts/microcredit/MicrocreditImplementation.sol:MicrocreditImplementation",
        "label": "_paused",
        "offset": 0,
        "slot": "101",
        "type": "t_bool"
      },
      {
        "astId": 721,
        "contract": "contracts/microcredit/MicrocreditImplementation.sol:MicrocreditImplementation",
        "label": "__gap",
        "offset": 0,
        "slot": "102",
        "type": "t_array(t_uint256)49_storage"
      },
      {
        "astId": 736,
        "contract": "contracts/microcredit/MicrocreditImplementation.sol:MicrocreditImplementation",
        "label": "_status",
        "offset": 0,
        "slot": "151",
        "type": "t_uint256"
      },
      {
        "astId": 779,
        "contract": "contracts/microcredit/MicrocreditImplementation.sol:MicrocreditImplementation",
        "label": "__gap",
        "offset": 0,
        "slot": "152",
        "type": "t_array(t_uint256)49_storage"
      },
      {
        "astId": 25652,
        "contract": "contracts/microcredit/MicrocreditImplementation.sol:MicrocreditImplementation",
        "label": "cUSD",
        "offset": 0,
        "slot": "201",
        "type": "t_contract(IERC20Upgradeable)858"
      },
      {
        "astId": 25654,
        "contract": "contracts/microcredit/MicrocreditImplementation.sol:MicrocreditImplementation",
        "label": "_usersLength",
        "offset": 0,
        "slot": "202",
        "type": "t_uint256"
      },
      {
        "astId": 25659,
        "contract": "contracts/microcredit/MicrocreditImplementation.sol:MicrocreditImplementation",
        "label": "_users",
        "offset": 0,
        "slot": "203",
        "type": "t_mapping(t_uint256,t_struct(User)25380_storage)"
      },
      {
        "astId": 25664,
        "contract": "contracts/microcredit/MicrocreditImplementation.sol:MicrocreditImplementation",
        "label": "_walletMetadata",
        "offset": 0,
        "slot": "204",
        "type": "t_mapping(t_address,t_struct(WalletMetadata)25375_storage)"
      },
      {
        "astId": 25667,
        "contract": "contracts/microcredit/MicrocreditImplementation.sol:MicrocreditImplementation",
        "label": "_walletList",
        "offset": 0,
        "slot": "205",
        "type": "t_struct(AddressSet)5505_storage"
      },
      {
        "astId": 25670,
        "contract": "contracts/microcredit/MicrocreditImplementation.sol:MicrocreditImplementation",
        "label": "_managerList",
        "offset": 0,
        "slot": "207",
        "type": "t_struct(AddressSet)5505_storage"
      },
      {
        "astId": 25673,
        "contract": "contracts/microcredit/MicrocreditImplementation.sol:MicrocreditImplementation",
        "label": "revenueAddress",
        "offset": 0,
        "slot": "209",
        "type": "t_address"
      },
      {
        "astId": 25679,
        "contract": "contracts/microcredit/MicrocreditImplementation.sol:MicrocreditImplementation",
        "label": "managers",
        "offset": 0,
        "slot": "210",
        "type": "t_mapping(t_address,t_struct(Manager)25385_storage)"
      }
    ],
    "types": {
      "t_address": {
        "encoding": "inplace",
        "label": "address",
        "numberOfBytes": "20"
      },
      "t_array(t_bytes32)dyn_storage": {
        "base": "t_bytes32",
        "encoding": "dynamic_array",
        "label": "bytes32[]",
        "numberOfBytes": "32"
      },
      "t_array(t_struct(Loan)25413_storage)dyn_storage": {
        "base": "t_struct(Loan)25413_storage",
        "encoding": "dynamic_array",
        "label": "struct IMicrocredit.Loan[]",
        "numberOfBytes": "32"
      },
      "t_array(t_struct(Repayment)25390_storage)dyn_storage": {
        "base": "t_struct(Repayment)25390_storage",
        "encoding": "dynamic_array",
        "label": "struct IMicrocredit.Repayment[]",
        "numberOfBytes": "32"
      },
      "t_array(t_uint256)49_storage": {
        "base": "t_uint256",
        "encoding": "inplace",
        "label": "uint256[49]",
        "numberOfBytes": "1568"
      },
      "t_array(t_uint256)50_storage": {
        "base": "t_uint256",
        "encoding": "inplace",
        "label": "uint256[50]",
        "numberOfBytes": "1600"
      },
      "t_bool": {
        "encoding": "inplace",
        "label": "bool",
        "numberOfBytes": "1"
      },
      "t_bytes32": {
        "encoding": "inplace",
        "label": "bytes32",
        "numberOfBytes": "32"
      },
      "t_contract(IERC20Upgradeable)858": {
        "encoding": "inplace",
        "label": "contract IERC20Upgradeable",
        "numberOfBytes": "20"
      },
      "t_mapping(t_address,t_struct(Manager)25385_storage)": {
        "encoding": "mapping",
        "key": "t_address",
        "label": "mapping(address => struct IMicrocredit.Manager)",
        "numberOfBytes": "32",
        "value": "t_struct(Manager)25385_storage"
      },
      "t_mapping(t_address,t_struct(WalletMetadata)25375_storage)": {
        "encoding": "mapping",
        "key": "t_address",
        "label": "mapping(address => struct IMicrocredit.WalletMetadata)",
        "numberOfBytes": "32",
        "value": "t_struct(WalletMetadata)25375_storage"
      },
      "t_mapping(t_bytes32,t_uint256)": {
        "encoding": "mapping",
        "key": "t_bytes32",
        "label": "mapping(bytes32 => uint256)",
        "numberOfBytes": "32",
        "value": "t_uint256"
      },
      "t_mapping(t_uint256,t_struct(User)25380_storage)": {
        "encoding": "mapping",
        "key": "t_uint256",
        "label": "mapping(uint256 => struct IMicrocredit.User)",
        "numberOfBytes": "32",
        "value": "t_struct(User)25380_storage"
      },
      "t_struct(AddressSet)5505_storage": {
        "encoding": "inplace",
        "label": "struct EnumerableSet.AddressSet",
        "members": [
          {
            "astId": 5504,
            "contract": "contracts/microcredit/MicrocreditImplementation.sol:MicrocreditImplementation",
            "label": "_inner",
            "offset": 0,
            "slot": "0",
            "type": "t_struct(Set)5204_storage"
          }
        ],
        "numberOfBytes": "64"
      },
      "t_struct(Loan)25413_storage": {
        "encoding": "inplace",
        "label": "struct IMicrocredit.Loan",
        "members": [
          {
            "astId": 25392,
            "contract": "contracts/microcredit/MicrocreditImplementation.sol:MicrocreditImplementation",
            "label": "amountBorrowed",
            "offset": 0,
            "slot": "0",
            "type": "t_uint256"
          },
          {
            "astId": 25394,
            "contract": "contracts/microcredit/MicrocreditImplementation.sol:MicrocreditImplementation",
            "label": "period",
            "offset": 0,
            "slot": "1",
            "type": "t_uint256"
          },
          {
            "astId": 25396,
            "contract": "contracts/microcredit/MicrocreditImplementation.sol:MicrocreditImplementation",
            "label": "dailyInterest",
            "offset": 0,
            "slot": "2",
            "type": "t_uint256"
          },
          {
            "astId": 25398,
            "contract": "contracts/microcredit/MicrocreditImplementation.sol:MicrocreditImplementation",
            "label": "claimDeadline",
            "offset": 0,
            "slot": "3",
            "type": "t_uint256"
          },
          {
            "astId": 25400,
            "contract": "contracts/microcredit/MicrocreditImplementation.sol:MicrocreditImplementation",
            "label": "startDate",
            "offset": 0,
            "slot": "4",
            "type": "t_uint256"
          },
          {
            "astId": 25402,
            "contract": "contracts/microcredit/MicrocreditImplementation.sol:MicrocreditImplementation",
            "label": "lastComputedDebt",
            "offset": 0,
            "slot": "5",
            "type": "t_uint256"
          },
          {
            "astId": 25404,
            "contract": "contracts/microcredit/MicrocreditImplementation.sol:MicrocreditImplementation",
            "label": "amountRepayed",
            "offset": 0,
            "slot": "6",
            "type": "t_uint256"
          },
          {
            "astId": 25408,
            "contract": "contracts/microcredit/MicrocreditImplementation.sol:MicrocreditImplementation",
            "label": "repayments",
            "offset": 0,
            "slot": "7",
            "type": "t_array(t_struct(Repayment)25390_storage)dyn_storage"
          },
          {
            "astId": 25410,
            "contract": "contracts/microcredit/MicrocreditImplementation.sol:MicrocreditImplementation",
            "label": "lastComputedDate",
            "offset": 0,
            "slot": "8",
            "type": "t_uint256"
          },
          {
            "astId": 25412,
            "contract": "contracts/microcredit/MicrocreditImplementation.sol:MicrocreditImplementation",
            "label": "managerAddress",
            "offset": 0,
            "slot": "9",
            "type": "t_address"
          }
        ],
        "numberOfBytes": "320"
      },
      "t_struct(Manager)25385_storage": {
        "encoding": "inplace",
        "label": "struct IMicrocredit.Manager",
        "members": [
          {
            "astId": 25382,
            "contract": "contracts/microcredit/MicrocreditImplementation.sol:MicrocreditImplementation",
            "label": "currentLentAmountLimit",
            "offset": 0,
            "slot": "0",
            "type": "t_uint256"
          },
          {
            "astId": 25384,
            "contract": "contracts/microcredit/MicrocreditImplementation.sol:MicrocreditImplementation",
            "label": "currentLentAmount",
            "offset": 0,
            "slot": "1",
            "type": "t_uint256"
          }
        ],
        "numberOfBytes": "64"
      },
      "t_struct(Repayment)25390_storage": {
        "encoding": "inplace",
        "label": "struct IMicrocredit.Repayment",
        "members": [
          {
            "astId": 25387,
            "contract": "contracts/microcredit/MicrocreditImplementation.sol:MicrocreditImplementation",
            "label": "date",
            "offset": 0,
            "slot": "0",
            "type": "t_uint256"
          },
          {
            "astId": 25389,
            "contract": "contracts/microcredit/MicrocreditImplementation.sol:MicrocreditImplementation",
            "label": "amount",
            "offset": 0,
            "slot": "1",
            "type": "t_uint256"
          }
        ],
        "numberOfBytes": "64"
      },
      "t_struct(Set)5204_storage": {
        "encoding": "inplace",
        "label": "struct EnumerableSet.Set",
        "members": [
          {
            "astId": 5199,
            "contract": "contracts/microcredit/MicrocreditImplementation.sol:MicrocreditImplementation",
            "label": "_values",
            "offset": 0,
            "slot": "0",
            "type": "t_array(t_bytes32)dyn_storage"
          },
          {
            "astId": 5203,
            "contract": "contracts/microcredit/MicrocreditImplementation.sol:MicrocreditImplementation",
            "label": "_indexes",
            "offset": 0,
            "slot": "1",
            "type": "t_mapping(t_bytes32,t_uint256)"
          }
        ],
        "numberOfBytes": "64"
      },
      "t_struct(User)25380_storage": {
        "encoding": "inplace",
        "label": "struct IMicrocredit.User",
        "members": [
          {
            "astId": 25379,
            "contract": "contracts/microcredit/MicrocreditImplementation.sol:MicrocreditImplementation",
            "label": "loans",
            "offset": 0,
            "slot": "0",
            "type": "t_array(t_struct(Loan)25413_storage)dyn_storage"
          }
        ],
        "numberOfBytes": "32"
      },
      "t_struct(WalletMetadata)25375_storage": {
        "encoding": "inplace",
        "label": "struct IMicrocredit.WalletMetadata",
        "members": [
          {
            "astId": 25372,
            "contract": "contracts/microcredit/MicrocreditImplementation.sol:MicrocreditImplementation",
            "label": "userId",
            "offset": 0,
            "slot": "0",
            "type": "t_uint256"
          },
          {
            "astId": 25374,
            "contract": "contracts/microcredit/MicrocreditImplementation.sol:MicrocreditImplementation",
            "label": "movedTo",
            "offset": 0,
            "slot": "1",
            "type": "t_address"
          }
        ],
        "numberOfBytes": "64"
      },
      "t_uint256": {
        "encoding": "inplace",
        "label": "uint256",
        "numberOfBytes": "32"
      }
    }
  }
}