{
  "address": "0x81F24e822142216C1A0dEbca17cA952A6C0C1bEb",
  "abi": [
    {
      "anonymous": false,
      "inputs": [
        {
          "indexed": true,
          "internalType": "address",
          "name": "userAddress",
          "type": "address"
        },
        {
          "indexed": false,
          "internalType": "uint256",
          "name": "loanId",
          "type": "uint256"
        },
        {
          "indexed": false,
          "internalType": "uint256",
          "name": "amount",
          "type": "uint256"
        },
        {
          "indexed": false,
          "internalType": "uint256",
          "name": "period",
          "type": "uint256"
        },
        {
          "indexed": false,
          "internalType": "uint256",
          "name": "dailyInterest",
          "type": "uint256"
        },
        {
          "indexed": false,
          "internalType": "uint256",
          "name": "claimDeadline",
          "type": "uint256"
        }
      ],
      "name": "LoanAdded",
      "type": "event"
    },
    {
      "anonymous": false,
      "inputs": [
        {
          "indexed": true,
          "internalType": "address",
          "name": "userAddress",
          "type": "address"
        },
        {
          "indexed": false,
          "internalType": "uint256",
          "name": "loanId",
          "type": "uint256"
        }
      ],
      "name": "LoanCanceled",
      "type": "event"
    },
    {
      "anonymous": false,
      "inputs": [
        {
          "indexed": true,
          "internalType": "address",
          "name": "userAddress",
          "type": "address"
        },
        {
          "indexed": false,
          "internalType": "uint256",
          "name": "loanId",
          "type": "uint256"
        }
      ],
      "name": "LoanClaimed",
      "type": "event"
    },
    {
      "anonymous": false,
      "inputs": [
        {
          "indexed": true,
          "internalType": "address",
          "name": "managerAddress",
          "type": "address"
        }
      ],
      "name": "ManagerAdded",
      "type": "event"
    },
    {
      "anonymous": false,
      "inputs": [
        {
          "indexed": true,
          "internalType": "address",
          "name": "borrowerAddress",
          "type": "address"
        },
        {
          "indexed": true,
          "internalType": "address",
          "name": "managerAddress",
          "type": "address"
        }
      ],
      "name": "ManagerChanged",
      "type": "event"
    },
    {
      "anonymous": false,
      "inputs": [
        {
          "indexed": true,
          "internalType": "address",
          "name": "managerAddress",
          "type": "address"
        }
      ],
      "name": "ManagerRemoved",
      "type": "event"
    },
    {
      "anonymous": false,
      "inputs": [
        {
          "indexed": true,
          "internalType": "address",
          "name": "previousOwner",
          "type": "address"
        },
        {
          "indexed": true,
          "internalType": "address",
          "name": "newOwner",
          "type": "address"
        }
      ],
      "name": "OwnershipTransferred",
      "type": "event"
    },
    {
      "anonymous": false,
      "inputs": [
        {
          "indexed": false,
          "internalType": "address",
          "name": "account",
          "type": "address"
        }
      ],
      "name": "Paused",
      "type": "event"
    },
    {
      "anonymous": false,
      "inputs": [
        {
          "indexed": true,
          "internalType": "address",
          "name": "userAddress",
          "type": "address"
        },
        {
          "indexed": false,
          "internalType": "uint256",
          "name": "loanId",
          "type": "uint256"
        },
        {
          "indexed": false,
          "internalType": "uint256",
          "name": "repaymentAmount",
          "type": "uint256"
        },
        {
          "indexed": false,
          "internalType": "uint256",
          "name": "currentDebt",
          "type": "uint256"
        }
      ],
      "name": "RepaymentAdded",
      "type": "event"
    },
    {
      "anonymous": false,
      "inputs": [
        {
          "indexed": false,
          "internalType": "address",
          "name": "account",
          "type": "address"
        }
      ],
      "name": "Unpaused",
      "type": "event"
    },
    {
      "anonymous": false,
      "inputs": [
        {
          "indexed": true,
          "internalType": "address",
          "name": "oldWalletAddress",
          "type": "address"
        },
        {
          "indexed": true,
          "internalType": "address",
          "name": "newWalletAddress",
          "type": "address"
        }
      ],
      "name": "UserAddressChanged",
      "type": "event"
    },
    {
      "inputs": [
        {
          "internalType": "address",
          "name": "_userAddress",
          "type": "address"
        },
        {
          "internalType": "uint256",
          "name": "_amount",
          "type": "uint256"
        },
        {
          "internalType": "uint256",
          "name": "_period",
          "type": "uint256"
        },
        {
          "internalType": "uint256",
          "name": "_dailyInterest",
          "type": "uint256"
        },
        {
          "internalType": "uint256",
          "name": "_claimDeadline",
          "type": "uint256"
        }
      ],
      "name": "addLoan",
      "outputs": [],
      "stateMutability": "nonpayable",
      "type": "function"
    },
    {
      "inputs": [
        {
          "internalType": "address[]",
          "name": "_userAddresses",
          "type": "address[]"
        },
        {
          "internalType": "uint256[]",
          "name": "_amounts",
          "type": "uint256[]"
        },
        {
          "internalType": "uint256[]",
          "name": "_periods",
          "type": "uint256[]"
        },
        {
          "internalType": "uint256[]",
          "name": "_dailyInterests",
          "type": "uint256[]"
        },
        {
          "internalType": "uint256[]",
          "name": "_claimDeadlines",
          "type": "uint256[]"
        }
      ],
      "name": "addLoans",
      "outputs": [],
      "stateMutability": "nonpayable",
      "type": "function"
    },
    {
      "inputs": [
        {
          "internalType": "address[]",
          "name": "_managerAddresses",
          "type": "address[]"
        }
      ],
      "name": "addManagers",
      "outputs": [],
      "stateMutability": "nonpayable",
      "type": "function"
    },
    {
      "inputs": [],
      "name": "cUSD",
      "outputs": [
        {
          "internalType": "contract IERC20Upgradeable",
          "name": "",
          "type": "address"
        }
      ],
      "stateMutability": "view",
      "type": "function"
    },
    {
      "inputs": [
        {
          "internalType": "address[]",
          "name": "_userAddresses",
          "type": "address[]"
        },
        {
          "internalType": "uint256[]",
          "name": "_loansIds",
          "type": "uint256[]"
        }
      ],
      "name": "cancelLoans",
      "outputs": [],
      "stateMutability": "nonpayable",
      "type": "function"
    },
    {
      "inputs": [
        {
          "internalType": "address[]",
          "name": "_borrowerAddresses",
          "type": "address[]"
        },
        {
          "internalType": "address",
          "name": "_managerAddress",
          "type": "address"
        }
      ],
      "name": "changeManager",
      "outputs": [],
      "stateMutability": "nonpayable",
      "type": "function"
    },
    {
      "inputs": [
        {
          "internalType": "address",
          "name": "_oldWalletAddress",
          "type": "address"
        },
        {
          "internalType": "address",
          "name": "_newWalletAddress",
          "type": "address"
        }
      ],
      "name": "changeUserAddress",
      "outputs": [],
      "stateMutability": "nonpayable",
      "type": "function"
    },
    {
      "inputs": [
        {
          "internalType": "uint256",
          "name": "_loanId",
          "type": "uint256"
        }
      ],
      "name": "claimLoan",
      "outputs": [],
      "stateMutability": "nonpayable",
      "type": "function"
    },
    {
      "inputs": [],
      "name": "getVersion",
      "outputs": [
        {
          "internalType": "uint256",
          "name": "",
          "type": "uint256"
        }
      ],
      "stateMutability": "pure",
      "type": "function"
    },
    {
      "inputs": [
        {
          "internalType": "address",
          "name": "_cUSDAddress",
          "type": "address"
        },
        {
          "internalType": "address",
          "name": "_revenueAddress",
          "type": "address"
        }
      ],
      "name": "initialize",
      "outputs": [],
      "stateMutability": "nonpayable",
      "type": "function"
    },
    {
      "inputs": [
        {
          "internalType": "uint256",
          "name": "_index",
          "type": "uint256"
        }
      ],
      "name": "managerListAt",
      "outputs": [
        {
          "internalType": "address",
          "name": "",
          "type": "address"
        }
      ],
      "stateMutability": "view",
      "type": "function"
    },
    {
      "inputs": [],
      "name": "managerListLength",
      "outputs": [
        {
          "internalType": "uint256",
          "name": "",
          "type": "uint256"
        }
      ],
      "stateMutability": "view",
      "type": "function"
    },
    {
      "inputs": [],
      "name": "owner",
      "outputs": [
        {
          "internalType": "address",
          "name": "",
          "type": "address"
        }
      ],
      "stateMutability": "view",
      "type": "function"
    },
    {
      "inputs": [],
      "name": "paused",
      "outputs": [
        {
          "internalType": "bool",
          "name": "",
          "type": "bool"
        }
      ],
      "stateMutability": "view",
      "type": "function"
    },
    {
      "inputs": [
        {
          "internalType": "address[]",
          "name": "_managerAddresses",
          "type": "address[]"
        }
      ],
      "name": "removeManagers",
      "outputs": [],
      "stateMutability": "nonpayable",
      "type": "function"
    },
    {
      "inputs": [],
      "name": "renounceOwnership",
      "outputs": [],
      "stateMutability": "nonpayable",
      "type": "function"
    },
    {
      "inputs": [
        {
          "internalType": "uint256",
          "name": "_loanId",
          "type": "uint256"
        },
        {
          "internalType": "uint256",
          "name": "_repaymentAmount",
          "type": "uint256"
        }
      ],
      "name": "repayLoan",
      "outputs": [],
      "stateMutability": "nonpayable",
      "type": "function"
    },
    {
      "inputs": [],
      "name": "revenueAddress",
      "outputs": [
        {
          "internalType": "address",
          "name": "",
          "type": "address"
        }
      ],
      "stateMutability": "view",
      "type": "function"
    },
    {
      "inputs": [
        {
          "internalType": "contract IERC20Upgradeable",
          "name": "_token",
          "type": "address"
        },
        {
          "internalType": "address",
          "name": "_to",
          "type": "address"
        },
        {
          "internalType": "uint256",
          "name": "_amount",
          "type": "uint256"
        }
      ],
      "name": "transferERC20",
      "outputs": [],
      "stateMutability": "nonpayable",
      "type": "function"
    },
    {
      "inputs": [
        {
          "internalType": "address",
          "name": "newOwner",
          "type": "address"
        }
      ],
      "name": "transferOwnership",
      "outputs": [],
      "stateMutability": "nonpayable",
      "type": "function"
    },
    {
      "inputs": [
        {
          "internalType": "address",
          "name": "_newRevenueAddress",
          "type": "address"
        }
      ],
      "name": "updateRevenueAddress",
      "outputs": [],
      "stateMutability": "nonpayable",
      "type": "function"
    },
    {
      "inputs": [
        {
          "internalType": "address",
          "name": "_userAddress",
          "type": "address"
        },
        {
          "internalType": "uint256",
          "name": "_loanId",
          "type": "uint256"
        },
        {
          "internalType": "uint256",
          "name": "_repaymentId",
          "type": "uint256"
        }
      ],
      "name": "userLoanRepayments",
      "outputs": [
        {
          "internalType": "uint256",
          "name": "date",
          "type": "uint256"
        },
        {
          "internalType": "uint256",
          "name": "amount",
          "type": "uint256"
        }
      ],
      "stateMutability": "view",
      "type": "function"
    },
    {
      "inputs": [
        {
          "internalType": "address",
          "name": "_userAddress",
          "type": "address"
        },
        {
          "internalType": "uint256",
          "name": "_loanId",
          "type": "uint256"
        }
      ],
      "name": "userLoans",
      "outputs": [
        {
          "internalType": "uint256",
          "name": "amountBorrowed",
          "type": "uint256"
        },
        {
          "internalType": "uint256",
          "name": "period",
          "type": "uint256"
        },
        {
          "internalType": "uint256",
          "name": "dailyInterest",
          "type": "uint256"
        },
        {
          "internalType": "uint256",
          "name": "claimDeadline",
          "type": "uint256"
        },
        {
          "internalType": "uint256",
          "name": "startDate",
          "type": "uint256"
        },
        {
          "internalType": "uint256",
          "name": "currentDebt",
          "type": "uint256"
        },
        {
          "internalType": "uint256",
          "name": "lastComputedDebt",
          "type": "uint256"
        },
        {
          "internalType": "uint256",
          "name": "amountRepayed",
          "type": "uint256"
        },
        {
          "internalType": "uint256",
          "name": "repaymentsLength",
          "type": "uint256"
        },
        {
          "internalType": "uint256",
          "name": "lastComputedDate",
          "type": "uint256"
        }
      ],
      "stateMutability": "view",
      "type": "function"
    },
    {
      "inputs": [
        {
          "internalType": "uint256",
          "name": "_index",
          "type": "uint256"
        }
      ],
      "name": "walletListAt",
      "outputs": [
        {
          "internalType": "address",
          "name": "",
          "type": "address"
        }
      ],
      "stateMutability": "view",
      "type": "function"
    },
    {
      "inputs": [],
      "name": "walletListLength",
      "outputs": [
        {
          "internalType": "uint256",
          "name": "",
          "type": "uint256"
        }
      ],
      "stateMutability": "view",
      "type": "function"
    },
    {
      "inputs": [
        {
          "internalType": "address",
          "name": "_userAddress",
          "type": "address"
        }
      ],
      "name": "walletMetadata",
      "outputs": [
        {
          "internalType": "uint256",
          "name": "userId",
          "type": "uint256"
        },
        {
          "internalType": "address",
          "name": "movedTo",
          "type": "address"
        },
        {
          "internalType": "uint256",
          "name": "loansLength",
          "type": "uint256"
        }
      ],
      "stateMutability": "view",
      "type": "function"
    }
  ],
  "transactionHash": "0x92794611cc4e443d1e6e5f4e77a1aa5ed225c51e52de3a2a6289849b2f32e85d",
  "args": [],
  "numDeployments": 3,
  "solcInputHash": "ad064153b0d4440e97c98aec21fa0fa0",
  "bytecode": "0x608060405234801561001057600080fd5b50612f72806100206000396000f3fe608060405234801561001057600080fd5b506004361061018e5760003560e01c806378d5bcc1116100de5780639db5dbe411610097578063d8bad5bd11610071578063d8bad5bd146103ac578063eef1b51514610409578063f2fde38b1461041c578063fdd288591461042f57600080fd5b80639db5dbe414610373578063adb9712614610386578063b410908d1461039957600080fd5b806378d5bcc1146102ee57806380407735146103165780638a700b53146103295780638c5f9e741461033c5780638da5cb5b1461034f5780639a9cb9711461036057600080fd5b806353a469b31161014b57806360c4477a1161012557806360c4477a146102535780636323f5e91461025b57806368fcaf84146102d3578063715018a6146102e657600080fd5b806353a469b3146102175780635c975abb1461022a5780635d916afd1461024057600080fd5b80630d8e6e2c1461019357806310f3ee29146101a95780631fccf672146101be578063387d0263146101e95780633a17596b146101f1578063485cc95514610204575b600080fd5b60015b6040519081526020015b60405180910390f35b6101bc6101b736600461294e565b610442565b005b60c9546101d1906001600160a01b031681565b6040516001600160a01b0390911681526020016101a0565b610196610544565b6101bc6101ff36600461290b565b610555565b6101bc610212366004612874565b610590565b6101bc610225366004612c1b565b610693565b60655460ff1660405190151581526020016101a0565b6101bc61024e3660046129f7565b6108af565b610196610a57565b6102b0610269366004612858565b6001600160a01b03908116600090815260cc6020908152604080832081518083018352815480825260019092015490951694830185905280845260cb909252909120549092565b604080519384526001600160a01b039092166020840152908201526060016101a0565b6101d16102e1366004612c1b565b610a63565b6101bc610a76565b6103016102fc3660046128d7565b610aac565b604080519283526020830191909152016101a0565b6101bc61032436600461298e565b610d16565b6101bc610337366004612c33565b610ddd565b6101bc61034a36600461294e565b611241565b6033546001600160a01b03166101d1565b6101bc61036e366004612ae2565b611334565b6101bc610381366004612bdb565b6114db565b6101d1610394366004612c1b565b61154b565b60d1546101d1906001600160a01b031681565b6103bf6103ba3660046128ac565b611558565b604080519a8b5260208b0199909952978901969096526060880194909452608087019290925260a086015260c085015260e0840152610100830152610120820152610140016101a0565b6101bc610417366004612874565b61175d565b6101bc61042a366004612858565b611902565b6101bc61043d366004612858565b61199d565b6033546001600160a01b031633146104755760405162461bcd60e51b815260040161046c90612d78565b60405180910390fd5b8060005b8181101561053e576104c18484838181106104a457634e487b7160e01b600052603260045260246000fd5b90506020020160208101906104b99190612858565b60cf906119e9565b508383828181106104e257634e487b7160e01b600052603260045260246000fd5b90506020020160208101906104f79190612858565b6001600160a01b03167fef69f7d97228658c92417be1b16b19058315de71fecb435d07b7d23728b6bd3160405160405180910390a28061053681612ee0565b915050610479565b50505050565b600061055060cf611a05565b905090565b61056060cf33611a0f565b61057c5760405162461bcd60e51b815260040161046c90612ca3565b6105898585858585611a31565b5050505050565b600054610100900460ff166105ab5760005460ff16156105af565b303b155b6106125760405162461bcd60e51b815260206004820152602e60248201527f496e697469616c697a61626c653a20636f6e747261637420697320616c72656160448201526d191e481a5b9a5d1a585b1a5e995960921b606482015260840161046c565b600054610100900460ff16158015610634576000805461ffff19166101011790555b61063c611d9c565b610644611dd3565b61064c611e0a565b60c980546001600160a01b038086166001600160a01b03199283161790925560d1805492851692909116919091179055801561068e576000805461ff00191690555b505050565b600260975414156106b65760405162461bcd60e51b815260040161046c90612df8565b60026097556106c53382611e39565b33600090815260cc602090815260408083208151808301835281548082526001909201546001600160a01b03168185015290845260cb909252822080549192909182908590811061072657634e487b7160e01b600052603260045260246000fd5b90600052602060002090600902019050806004015460001461075a5760405162461bcd60e51b815260040161046c90612d37565b60038101546107ab5760405162461bcd60e51b815260206004820152601a60248201527f4d6963726f6372656469743a204c6f616e2063616e63656c6564000000000000604482015260640161046c565b42816003015410156107ff5760405162461bcd60e51b815260206004820152601960248201527f4d6963726f6372656469743a204c6f616e206578706972656400000000000000604482015260640161046c565b4260048201556002810154670de0b6b3a76400009061082090606490612e47565b61083290670de0b6b3a7640000612e2f565b825461083e9190612e67565b6108489190612e47565b6005820155426008820155805460c95461086f916001600160a01b03909116903390612066565b60405184815233907fba0cbe8ef8ef3c6984adc684d0c9b9a4d2d4c79b4678b63c38651fa48d21c62c9060200160405180910390a2505060016097555050565b6108ba60cf33611a0f565b6108d65760405162461bcd60e51b815260040161046c90612ca3565b888781146108f65760405162461bcd60e51b815260040161046c90612ce7565b8086146109155760405162461bcd60e51b815260040161046c90612ce7565b8084146109345760405162461bcd60e51b815260040161046c90612ce7565b8082146109535760405162461bcd60e51b815260040161046c90612ce7565b60005b81811015610a4957610a378c8c8381811061098157634e487b7160e01b600052603260045260246000fd5b90506020020160208101906109969190612858565b8b8b848181106109b657634e487b7160e01b600052603260045260246000fd5b905060200201358a8a858181106109dd57634e487b7160e01b600052603260045260246000fd5b90506020020135898986818110610a0457634e487b7160e01b600052603260045260246000fd5b90506020020135888887818110610a2b57634e487b7160e01b600052603260045260246000fd5b90506020020135611a31565b80610a4181612ee0565b915050610956565b505050505050505050505050565b600061055060cd611a05565b6000610a7060cf836120c9565b92915050565b6033546001600160a01b03163314610aa05760405162461bcd60e51b815260040161046c90612d78565b610aaa60006120d5565b565b600080610ab98585611e39565b6001600160a01b03808616600090815260cc6020908152604080832081518083018352815480825260019092015490951685840152835260cb8252808320815181548085028201840184529381018481529093919284928491879085015b82821015610c0d5783829060005260206000209060090201604051806101200160405290816000820154815260200160018201548152602001600282015481526020016003820154815260200160048201548152602001600582015481526020016006820154815260200160078201805480602002602001604051908101604052809291908181526020016000905b82821015610bec57838290600052602060002090600202016040518060400160405290816000820154815260200160018201548152505081526020019060010190610ba6565b50505050815260200160088201548152505081526020019060010190610b17565b50505050815250509050600081600001518781518110610c3d57634e487b7160e01b600052603260045260246000fd5b60200260200101519050858160e001515111610ca75760405162461bcd60e51b8152602060048201526024808201527f4d6963726f6372656469743a2052657061796d656e7420646f65736e277420656044820152631e1a5cdd60e21b606482015260840161046c565b8060e001518681518110610ccb57634e487b7160e01b600052603260045260246000fd5b60200260200101516000015194508060e001518681518110610cfd57634e487b7160e01b600052603260045260246000fd5b6020026020010151602001519350505050935093915050565b610d2160cf33611a0f565b610d3d5760405162461bcd60e51b815260040161046c90612ca3565b828114610d5c5760405162461bcd60e51b815260040161046c90612ce7565b60005b8381101561058957610dcb858583818110610d8a57634e487b7160e01b600052603260045260246000fd5b9050602002016020810190610d9f9190612858565b848484818110610dbf57634e487b7160e01b600052603260045260246000fd5b90506020020135612127565b80610dd581612ee0565b915050610d5f565b60026097541415610e005760405162461bcd60e51b815260040161046c90612df8565b600260975580610e525760405162461bcd60e51b815260206004820152601b60248201527f4d6963726f6372656469743a20496e76616c696420616d6f756e740000000000604482015260640161046c565b610e5c3383611e39565b33600090815260cc602090815260408083208151808301835281548082526001909201546001600160a01b03168185015290845260cb9092528220805491929091829086908110610ebd57634e487b7160e01b600052603260045260246000fd5b906000526020600020906009020190506000816004015411610f215760405162461bcd60e51b815260206004820152601d60248201527f4d6963726f6372656469743a204c6f616e206e6f7420636c61696d6564000000604482015260640161046c565b6000816005015411610f8e5760405162461bcd60e51b815260206004820152603060248201527f4d6963726f6372656469743a204c6f616e2068617320616c726561647920626560448201526f195b88199d5b1b1e481c995c185e595960821b606482015260840161046c565b600061106882604051806101200160405290816000820154815260200160018201548152602001600282015481526020016003820154815260200160048201548152602001600582015481526020016006820154815260200160078201805480602002602001604051908101604052809291908181526020016000905b828210156110515783829060005260206000209060020201604051806040016040529081600082015481526020016001820154815250508152602001906001019061100b565b505050508152602001600882015481525050612270565b905084811015611076578094505b600080836000015487856006015461108e9190612e2f565b1115806110a4575060d1546001600160a01b0316155b156110c65760c9546110c1906001600160a01b031633308a61230b565b611151565b83546006850154106110f15760d15460c9546110c1916001600160a01b03918216913391168a61230b565b6006840154845460009161110491612e86565b60c95490915061111f906001600160a01b031633308461230b565b60d15461114f9033906001600160a01b031661113b848c612e86565b60c9546001600160a01b031692919061230b565b505b6007840180546001818101835560009283526020909220426002909202019081559081018890556111828885612e86565b85600501819055508785600601600082825461119e9190612e2f565b9091555050600885015460009062015180906111ba9042612e86565b6111c49190612e47565b90506111d38162015180612e67565b86600801546111e29190612e2f565b60088701556005860154604080518c8152602081018c90529081019190915233907f36bd188317b9b3af98bbc5bfd88a0bccb96582fa2c955815ea9916dfeeb02d9e9060600160405180910390a2505060016097555050505050505050565b6033546001600160a01b0316331461126b5760405162461bcd60e51b815260040161046c90612d78565b8060005b8181101561053e576112b784848381811061129a57634e487b7160e01b600052603260045260246000fd5b90506020020160208101906112af9190612858565b60cf90612343565b508383828181106112d857634e487b7160e01b600052603260045260246000fd5b90506020020160208101906112ed9190612858565b6001600160a01b03167f3b4a40cccf2058c593542587329dd385be4f0b588db5471fbd9598e56dd7093a60405160405180910390a28061132c81612ee0565b91505061126f565b61133f60cf33611a0f565b61135b5760405162461bcd60e51b815260040161046c90612ca3565b600061136860cf83611a0f565b6113c05760405162461bcd60e51b8152602060048201526024808201527f4d6963726f6372656469743a20696e76616c6964206d616e61676572206164646044820152637265737360e01b606482015260840161046c565b5060005b825181101561068e576114088382815181106113f057634e487b7160e01b600052603260045260246000fd5b602002602001015160cd611a0f90919063ffffffff16565b6114625760405162461bcd60e51b815260206004820152602560248201527f4d6963726f6372656469743a20696e76616c696420626f72726f776572206164604482015264647265737360d81b606482015260840161046c565b816001600160a01b031683828151811061148c57634e487b7160e01b600052603260045260246000fd5b60200260200101516001600160a01b03167f605c2dbf762e5f7d60a546d42e7205dcb1b011ebc62a61736a57c9089d3a435060405160405180910390a3806114d381612ee0565b9150506113c4565b600260975414156114fe5760405162461bcd60e51b815260040161046c90612df8565b60026097556033546001600160a01b0316331461152d5760405162461bcd60e51b815260040161046c90612d78565b6115416001600160a01b0384168383612066565b5050600160975550565b6000610a7060cd836120c9565b6000806000806000806000806000806115718c8c611e39565b6001600160a01b03808d16600090815260cc6020908152604080832081518083018352815480825260019092015490951685840152835260cb8252808320815181548085028201840184529381018481529093919284928491879085015b828210156116c55783829060005260206000209060090201604051806101200160405290816000820154815260200160018201548152602001600282015481526020016003820154815260200160048201548152602001600582015481526020016006820154815260200160078201805480602002602001604051908101604052809291908181526020016000905b828210156116a45783829060005260206000209060020201604051806040016040529081600082015481526020016001820154815250508152602001906001019061165e565b505050508152602001600882015481525050815260200190600101906115cf565b50505050815250509050600081600001518e815181106116f557634e487b7160e01b600052603260045260246000fd5b6020026020010151905080600001519c5080602001519b5080604001519a5080606001519950806080015198508060a00151965061173281612270565b97508060c0015195508060e0015151945080610100015193505050509295989b9194979a5092959850565b61176860cf33611a0f565b6117845760405162461bcd60e51b815260040161046c90612ca3565b6001600160a01b038216600090815260cc602052604090208054158015906117b7575060018101546001600160a01b0316155b6118125760405162461bcd60e51b815260206004820152602660248201527f4d6963726f6372656469743a205468697320757365722063616e6e6f74206265604482015265081b5bdd995960d21b606482015260840161046c565b6001600160a01b038216600090815260cc6020526040902080541561188f5760405162461bcd60e51b815260206004820152602d60248201527f4d6963726f6372656469743a205461726765742077616c6c657420616464726560448201526c1cdcc81a5cc81a5b9d985b1a59609a1b606482015260840161046c565b6001820180546001600160a01b0319166001600160a01b038516179055815481556118bb60cd84612343565b50826001600160a01b0316846001600160a01b03167ffe697da51e9b8089b3ac92361b06886b93f48f935848aa4da1148c15b262840a60405160405180910390a350505050565b6033546001600160a01b0316331461192c5760405162461bcd60e51b815260040161046c90612d78565b6001600160a01b0381166119915760405162461bcd60e51b815260206004820152602660248201527f4f776e61626c653a206e6577206f776e657220697320746865207a65726f206160448201526564647265737360d01b606482015260840161046c565b61199a816120d5565b50565b6033546001600160a01b031633146119c75760405162461bcd60e51b815260040161046c90612d78565b60d180546001600160a01b0319166001600160a01b0392909216919091179055565b60006119fe836001600160a01b038416612358565b9392505050565b6000610a70825490565b6001600160a01b038116600090815260018301602052604081205415156119fe565b428111611a8b5760405162461bcd60e51b815260206004820152602260248201527f4d6963726f6372656469743a20696e76616c696420636c61696d446561646c696044820152616e6560f01b606482015260840161046c565b6001600160a01b03808616600090815260cc60205260409020600181015490911615611b055760405162461bcd60e51b8152602060048201526024808201527f4d6963726f6372656469743a20546865207573657220686173206265656e206d6044820152631bdd995960e21b606482015260840161046c565b8054611b325760ca8054906000611b1b83612ee0565b909155505060ca548155611b3060cd87612343565b505b8054600090815260cb6020526040902080548015611cfa57600082611b58600184612e86565b81548110611b7657634e487b7160e01b600052603260045260246000fd5b9060005260206000209060090201604051806101200160405290816000820154815260200160018201548152602001600282015481526020016003820154815260200160048201548152602001600582015481526020016006820154815260200160078201805480602002602001604051908101604052809291908181526020016000905b82821015611c4157838290600052602060002090600202016040518060400160405290816000820154815260200160018201548152505081526020019060010190611bfb565b505050508152602001600882015481525050905060008160800151118015611c6b575060a0810151155b80611c8657506080810151158015611c865750428160600151105b80611c9357506060810151155b611cf85760405162461bcd60e51b815260206004820152603060248201527f4d6963726f6372656469743a20546865207573657220616c726561647920686160448201526f399030b71030b1ba34bb32903637b0b760811b606482015260840161046c565b505b81546001818101845560008481526020902060099092029091018881558082018890556002810187905560038101869055835490916001600160a01b038b16917fdf5f35c1edc69bc65031bb54e429851779e0db0a2d5f763a0eabdd9bec9429f291611d6591612e86565b60408051918252602082018c905281018a9052606081018990526080810188905260a00160405180910390a2505050505050505050565b600054610100900460ff16611dc35760405162461bcd60e51b815260040161046c90612dad565b611dcb612475565b610aaa61249c565b600054610100900460ff16611dfa5760405162461bcd60e51b815260040161046c90612dad565b611e02612475565b610aaa6124cc565b600054610100900460ff16611e315760405162461bcd60e51b815260040161046c90612dad565b610aaa6124ff565b6001600160a01b03808316600090815260cc602090815260409182902082518084019093528054808452600190910154909316908201529015801590611e8a575060208101516001600160a01b0316155b611ee25760405162461bcd60e51b815260206004820152602360248201527f4d6963726f6372656469743a20496e76616c69642077616c6c6574206164647260448201526265737360e81b606482015260840161046c565b8051600090815260cb60209081526040808320815181548085028201840184529381018481529093919284928491879085015b8282101561200b5783829060005260206000209060090201604051806101200160405290816000820154815260200160018201548152602001600282015481526020016003820154815260200160048201548152602001600582015481526020016006820154815260200160078201805480602002602001604051908101604052809291908181526020016000905b82821015611fea57838290600052602060002090600202016040518060400160405290816000820154815260200160018201548152505081526020019060010190611fa4565b50505050815260200160088201548152505081526020019060010190611f15565b50505091525050805151909150831061053e5760405162461bcd60e51b815260206004820152601f60248201527f4d6963726f6372656469743a204c6f616e20646f65736e277420657869737400604482015260640161046c565b6040516001600160a01b03831660248201526044810182905261068e90849063a9059cbb60e01b906064015b60408051601f198184030181529190526020810180516001600160e01b03166001600160e01b03199093169290921790915261252d565b60006119fe83836125ff565b603380546001600160a01b038381166001600160a01b0319831681179093556040519116919082907f8be0079c531659141344cd1fd0a4f28419497f9722a3daafe3b4186f6b6457e090600090a35050565b6121318282611e39565b6001600160a01b03808316600090815260cc6020908152604080832081518083018352815480825260019092015490951685840152835260cb9091528120805490919082908590811061219457634e487b7160e01b600052603260045260246000fd5b9060005260206000209060090201905080600401546000146121c85760405162461bcd60e51b815260040161046c90612d37565b60038101546122245760405162461bcd60e51b815260206004820152602260248201527f4d6963726f6372656469743a204c6f616e20616c72656164792063616e63656c604482015261195960f21b606482015260840161046c565b600060038201556040518481526001600160a01b038616907f2f0f5933c0b9b1d9fee69327e7789ce07ef1be486122748fc2a079742067a8089060200160405180910390a25050505050565b60008160a001516000141561228757506000919050565b6000620151808361010001514261229e9190612e86565b6122a89190612e47565b60a08401519091505b81156119fe57670de0b6b3a7640000606485604001516122d19190612e47565b6122e390670de0b6b3a7640000612e2f565b6122ed9083612e67565b6122f79190612e47565b90508161230381612ec9565b9250506122b1565b6040516001600160a01b038085166024830152831660448201526064810182905261053e9085906323b872dd60e01b90608401612092565b60006119fe836001600160a01b038416612637565b6000818152600183016020526040812054801561246b57600061237c600183612e86565b855490915060009061239090600190612e86565b90508181146124115760008660000182815481106123be57634e487b7160e01b600052603260045260246000fd5b90600052602060002001549050808760000184815481106123ef57634e487b7160e01b600052603260045260246000fd5b6000918252602080832090910192909255918252600188019052604090208390555b855486908061243057634e487b7160e01b600052603160045260246000fd5b600190038181906000526020600020016000905590558560010160008681526020019081526020016000206000905560019350505050610a70565b6000915050610a70565b600054610100900460ff16610aaa5760405162461bcd60e51b815260040161046c90612dad565b600054610100900460ff166124c35760405162461bcd60e51b815260040161046c90612dad565b610aaa336120d5565b600054610100900460ff166124f35760405162461bcd60e51b815260040161046c90612dad565b6065805460ff19169055565b600054610100900460ff166125265760405162461bcd60e51b815260040161046c90612dad565b6001609755565b6000612582826040518060400160405280602081526020017f5361666545524332303a206c6f772d6c6576656c2063616c6c206661696c6564815250856001600160a01b03166126869092919063ffffffff16565b80519091501561068e57808060200190518101906125a09190612bbb565b61068e5760405162461bcd60e51b815260206004820152602a60248201527f5361666545524332303a204552433230206f7065726174696f6e20646964206e6044820152691bdd081cdd58d8d9595960b21b606482015260840161046c565b600082600001828154811061262457634e487b7160e01b600052603260045260246000fd5b9060005260206000200154905092915050565b600081815260018301602052604081205461267e57508154600181810184556000848152602080822090930184905584548482528286019093526040902091909155610a70565b506000610a70565b6060612695848460008561269d565b949350505050565b6060824710156126fe5760405162461bcd60e51b815260206004820152602660248201527f416464726573733a20696e73756666696369656e742062616c616e636520666f6044820152651c8818d85b1b60d21b606482015260840161046c565b843b61274c5760405162461bcd60e51b815260206004820152601d60248201527f416464726573733a2063616c6c20746f206e6f6e2d636f6e7472616374000000604482015260640161046c565b600080866001600160a01b031685876040516127689190612c54565b60006040518083038185875af1925050503d80600081146127a5576040519150601f19603f3d011682016040523d82523d6000602084013e6127aa565b606091505b50915091506127ba8282866127c5565b979650505050505050565b606083156127d45750816119fe565b8251156127e45782518084602001fd5b8160405162461bcd60e51b815260040161046c9190612c70565b803561280981612f27565b919050565b60008083601f84011261281f578081fd5b50813567ffffffffffffffff811115612836578182fd5b6020830191508360208260051b850101111561285157600080fd5b9250929050565b600060208284031215612869578081fd5b81356119fe81612f27565b60008060408385031215612886578081fd5b823561289181612f27565b915060208301356128a181612f27565b809150509250929050565b600080604083850312156128be578182fd5b82356128c981612f27565b946020939093013593505050565b6000806000606084860312156128eb578081fd5b83356128f681612f27565b95602085013595506040909401359392505050565b600080600080600060a08688031215612922578081fd5b853561292d81612f27565b97602087013597506040870135966060810135965060800135945092505050565b60008060208385031215612960578182fd5b823567ffffffffffffffff811115612976578283fd5b6129828582860161280e565b90969095509350505050565b600080600080604085870312156129a3578384fd5b843567ffffffffffffffff808211156129ba578586fd5b6129c68883890161280e565b909650945060208701359150808211156129de578384fd5b506129eb8782880161280e565b95989497509550505050565b60008060008060008060008060008060a08b8d031215612a15578485fd5b8a3567ffffffffffffffff80821115612a2c578687fd5b612a388e838f0161280e565b909c509a5060208d0135915080821115612a50578687fd5b612a5c8e838f0161280e565b909a50985060408d0135915080821115612a74578687fd5b612a808e838f0161280e565b909850965060608d0135915080821115612a98578586fd5b612aa48e838f0161280e565b909650945060808d0135915080821115612abc578384fd5b50612ac98d828e0161280e565b915080935050809150509295989b9194979a5092959850565b60008060408385031215612af4578182fd5b823567ffffffffffffffff80821115612b0b578384fd5b818501915085601f830112612b1e578384fd5b8135602082821115612b3257612b32612f11565b8160051b604051601f19603f83011681018181108682111715612b5757612b57612f11565b604052838152828101945085830182870184018b1015612b75578889fd5b8896505b84871015612b9e57612b8a816127fe565b865260019690960195948301948301612b79565b509650612bae90508782016127fe565b9450505050509250929050565b600060208284031215612bcc578081fd5b815180151581146119fe578182fd5b600080600060608486031215612bef578283fd5b8335612bfa81612f27565b92506020840135612c0a81612f27565b929592945050506040919091013590565b600060208284031215612c2c578081fd5b5035919050565b60008060408385031215612c45578182fd5b50508035926020909101359150565b60008251612c66818460208701612e9d565b9190910192915050565b6020815260008251806020840152612c8f816040850160208701612e9d565b601f01601f19169190910160400192915050565b60208082526024908201527f4d6963726f6372656469743a2063616c6c6572206973206e6f742061206d616e60408201526330b3b2b960e11b606082015260800190565b60208082526030908201527f4d6963726f6372656469743a2063616c6c6461746120696e666f726d6174696f60408201526f0dc40c2e4d2e8f240dad2e6dac2e8c6d60831b606082015260800190565b60208082526021908201527f4d6963726f6372656469743a204c6f616e20616c726561647920636c61696d656040820152601960fa1b606082015260800190565b6020808252818101527f4f776e61626c653a2063616c6c6572206973206e6f7420746865206f776e6572604082015260600190565b6020808252602b908201527f496e697469616c697a61626c653a20636f6e7472616374206973206e6f74206960408201526a6e697469616c697a696e6760a81b606082015260800190565b6020808252601f908201527f5265656e7472616e637947756172643a207265656e7472616e742063616c6c00604082015260600190565b60008219821115612e4257612e42612efb565b500190565b600082612e6257634e487b7160e01b81526012600452602481fd5b500490565b6000816000190483118215151615612e8157612e81612efb565b500290565b600082821015612e9857612e98612efb565b500390565b60005b83811015612eb8578181015183820152602001612ea0565b8381111561053e5750506000910152565b600081612ed857612ed8612efb565b506000190190565b6000600019821415612ef457612ef4612efb565b5060010190565b634e487b7160e01b600052601160045260246000fd5b634e487b7160e01b600052604160045260246000fd5b6001600160a01b038116811461199a57600080fdfea26469706673582212209acbae80b61d32352f0cf583f598d5f02f8166009cdd6bac133bd46d7afa537564736f6c63430008040033",
  "devdoc": {
    "events": {
      "ManagerChanged(address,address)": {
        "params": {
          "borrowerAddress": "The address of the borrower",
          "managerAddress": "The address of the new manager"
        }
      }
    },
    "kind": "dev",
    "methods": {
      "addLoan(address,uint256,uint256,uint256,uint256)": {
        "params": {
          "_amount": "amount of the loan",
          "_claimDeadline": "claim deadline of the loan",
          "_dailyInterest": "daily interest of the loan",
          "_period": "period of the loan",
          "_userAddress": "address of the user"
        }
      },
      "addLoans(address[],uint256[],uint256[],uint256[],uint256[])": {
        "params": {
          "_amounts": "amounts of the loan",
          "_claimDeadlines": "claim deadlines of the loan",
          "_dailyInterests": "daily interests of the loan",
          "_periods": "periods of the loan",
          "_userAddresses": "addresses of the user"
        }
      },
      "addManagers(address[])": {
        "params": {
          "_managerAddresses": "addresses of the managers"
        }
      },
      "cancelLoans(address[],uint256[])": {
        "params": {
          "_loansIds": "Loan ids",
          "_userAddresses": "User addresses"
        }
      },
      "changeManager(address[],address)": {
        "details": "This method doesn't change anything on the contract state, it just emits events to be used by the off-chain system",
        "params": {
          "_borrowerAddresses": "address of the borrowers",
          "_managerAddress": "address of the new manager"
        }
      },
      "changeUserAddress(address,address)": {
        "params": {
          "_newWalletAddress": "New wallet address",
          "_oldWalletAddress": "Old wallet address"
        }
      },
      "claimLoan(uint256)": {
        "params": {
          "_loanId": "Loan ID"
        }
      },
      "initialize(address,address)": {
        "params": {
          "_cUSDAddress": "The address of the cUSD token",
          "_revenueAddress": "The address that collects all the interest"
        }
      },
      "managerListAt(uint256)": {
        "params": {
          "_index": "index value"
        },
        "returns": {
          "_0": "address of the manager"
        }
      },
      "owner()": {
        "details": "Returns the address of the current owner."
      },
      "paused()": {
        "details": "Returns true if the contract is paused, and false otherwise."
      },
      "removeManagers(address[])": {
        "params": {
          "_managerAddresses": "addresses of the managers"
        }
      },
      "renounceOwnership()": {
        "details": "Leaves the contract without owner. It will not be possible to call `onlyOwner` functions anymore. Can only be called by the current owner. NOTE: Renouncing ownership will leave the contract without an owner, thereby removing any functionality that is only available to the owner."
      },
      "repayLoan(uint256,uint256)": {
        "params": {
          "_loanId": "Loan ID",
          "_repaymentAmount": "Repayment amount"
        }
      },
      "transferERC20(address,address,uint256)": {
        "params": {
          "_amount": "amount of the transaction",
          "_to": "address of the receiver",
          "_token": "address of the ERC20 token"
        }
      },
      "transferOwnership(address)": {
        "details": "Transfers ownership of the contract to a new account (`newOwner`). Can only be called by the current owner."
      },
      "walletListAt(uint256)": {
        "params": {
          "_index": "index value"
        },
        "returns": {
          "_0": "address of the user"
        }
      },
      "walletMetadata(address)": {
        "params": {
          "_userAddress": "address of the user"
        },
        "returns": {
          "loansLength": "          the number of the user's loans",
          "movedTo": "              the number of the user's loans",
          "userId": "               the userId"
        }
      }
    },
    "version": 1
  },
  "userdoc": {
    "events": {
      "ManagerChanged(address,address)": {
        "notice": "Triggered when a borrower's manager has been changed"
      }
    },
    "kind": "user",
    "methods": {
      "addLoan(address,uint256,uint256,uint256,uint256)": {
        "notice": "Adds a loan"
      },
      "addLoans(address[],uint256[],uint256[],uint256[],uint256[])": {
        "notice": "Adds multiples loans"
      },
      "addManagers(address[])": {
        "notice": "Adds managers"
      },
      "cancelLoans(address[],uint256[])": {
        "notice": "Cancel a loan"
      },
      "changeManager(address[],address)": {
        "notice": "Changes the borrowers manager address"
      },
      "changeUserAddress(address,address)": {
        "notice": "Change user address"
      },
      "claimLoan(uint256)": {
        "notice": "Claim a loan"
      },
      "getVersion()": {
        "notice": "Returns the current implementation version"
      },
      "initialize(address,address)": {
        "notice": "Used to initialize the Microcredit contract"
      },
      "managerListAt(uint256)": {
        "notice": "Returns an address from the managerList"
      },
      "managerListLength()": {
        "notice": "Returns the length of the managerList"
      },
      "removeManagers(address[])": {
        "notice": "Removes managers"
      },
      "repayLoan(uint256,uint256)": {
        "notice": "Repay a loan"
      },
      "transferERC20(address,address,uint256)": {
        "notice": "Transfers an amount of an ERC20 from this contract to an address"
      },
      "walletListAt(uint256)": {
        "notice": "Returns an address from the walletList"
      },
      "walletListLength()": {
        "notice": "Returns the length of the walletList"
      },
      "walletMetadata(address)": {
        "notice": "Returns the information of a user"
      }
    },
    "version": 1
  },
  "storageLayout": {
    "storage": [
      {
        "astId": 542,
        "contract": "contracts/microcredit/MicrocreditImplementation.sol:MicrocreditImplementation",
        "label": "_initialized",
        "offset": 0,
        "slot": "0",
        "type": "t_bool"
      },
      {
        "astId": 545,
        "contract": "contracts/microcredit/MicrocreditImplementation.sol:MicrocreditImplementation",
        "label": "_initializing",
        "offset": 1,
        "slot": "0",
        "type": "t_bool"
      },
      {
        "astId": 1370,
        "contract": "contracts/microcredit/MicrocreditImplementation.sol:MicrocreditImplementation",
        "label": "__gap",
        "offset": 0,
        "slot": "1",
        "type": "t_array(t_uint256)50_storage"
      },
      {
        "astId": 420,
        "contract": "contracts/microcredit/MicrocreditImplementation.sol:MicrocreditImplementation",
        "label": "_owner",
        "offset": 0,
        "slot": "51",
        "type": "t_address"
      },
      {
        "astId": 534,
        "contract": "contracts/microcredit/MicrocreditImplementation.sol:MicrocreditImplementation",
        "label": "__gap",
        "offset": 0,
        "slot": "52",
        "type": "t_array(t_uint256)49_storage"
      },
      {
        "astId": 630,
        "contract": "contracts/microcredit/MicrocreditImplementation.sol:MicrocreditImplementation",
        "label": "_paused",
        "offset": 0,
        "slot": "101",
        "type": "t_bool"
      },
      {
        "astId": 721,
        "contract": "contracts/microcredit/MicrocreditImplementation.sol:MicrocreditImplementation",
        "label": "__gap",
        "offset": 0,
        "slot": "102",
        "type": "t_array(t_uint256)49_storage"
      },
      {
        "astId": 736,
        "contract": "contracts/microcredit/MicrocreditImplementation.sol:MicrocreditImplementation",
        "label": "_status",
        "offset": 0,
        "slot": "151",
        "type": "t_uint256"
      },
      {
        "astId": 779,
        "contract": "contracts/microcredit/MicrocreditImplementation.sol:MicrocreditImplementation",
        "label": "__gap",
        "offset": 0,
        "slot": "152",
        "type": "t_array(t_uint256)49_storage"
      },
      {
        "astId": 24880,
        "contract": "contracts/microcredit/MicrocreditImplementation.sol:MicrocreditImplementation",
        "label": "cUSD",
        "offset": 0,
        "slot": "201",
        "type": "t_contract(IERC20Upgradeable)858"
      },
      {
        "astId": 24882,
        "contract": "contracts/microcredit/MicrocreditImplementation.sol:MicrocreditImplementation",
        "label": "_usersLength",
        "offset": 0,
        "slot": "202",
        "type": "t_uint256"
      },
      {
        "astId": 24887,
        "contract": "contracts/microcredit/MicrocreditImplementation.sol:MicrocreditImplementation",
        "label": "_users",
        "offset": 0,
        "slot": "203",
        "type": "t_mapping(t_uint256,t_struct(User)24629_storage)"
      },
      {
        "astId": 24892,
        "contract": "contracts/microcredit/MicrocreditImplementation.sol:MicrocreditImplementation",
        "label": "_walletMetadata",
        "offset": 0,
        "slot": "204",
        "type": "t_mapping(t_address,t_struct(WalletMetadata)24624_storage)"
      },
      {
        "astId": 24895,
        "contract": "contracts/microcredit/MicrocreditImplementation.sol:MicrocreditImplementation",
        "label": "_walletList",
        "offset": 0,
        "slot": "205",
        "type": "t_struct(AddressSet)5505_storage"
      },
      {
        "astId": 24898,
        "contract": "contracts/microcredit/MicrocreditImplementation.sol:MicrocreditImplementation",
        "label": "_managerList",
        "offset": 0,
        "slot": "207",
        "type": "t_struct(AddressSet)5505_storage"
      },
      {
        "astId": 24901,
        "contract": "contracts/microcredit/MicrocreditImplementation.sol:MicrocreditImplementation",
        "label": "revenueAddress",
        "offset": 0,
        "slot": "209",
        "type": "t_address"
      }
    ],
    "types": {
      "t_address": {
        "encoding": "inplace",
        "label": "address",
        "numberOfBytes": "20"
      },
      "t_array(t_bytes32)dyn_storage": {
        "base": "t_bytes32",
        "encoding": "dynamic_array",
        "label": "bytes32[]",
        "numberOfBytes": "32"
      },
      "t_array(t_struct(Loan)24655_storage)dyn_storage": {
        "base": "t_struct(Loan)24655_storage",
        "encoding": "dynamic_array",
        "label": "struct IMicrocredit.Loan[]",
        "numberOfBytes": "32"
      },
      "t_array(t_struct(Repayment)24634_storage)dyn_storage": {
        "base": "t_struct(Repayment)24634_storage",
        "encoding": "dynamic_array",
        "label": "struct IMicrocredit.Repayment[]",
        "numberOfBytes": "32"
      },
      "t_array(t_uint256)49_storage": {
        "base": "t_uint256",
        "encoding": "inplace",
        "label": "uint256[49]",
        "numberOfBytes": "1568"
      },
      "t_array(t_uint256)50_storage": {
        "base": "t_uint256",
        "encoding": "inplace",
        "label": "uint256[50]",
        "numberOfBytes": "1600"
      },
      "t_bool": {
        "encoding": "inplace",
        "label": "bool",
        "numberOfBytes": "1"
      },
      "t_bytes32": {
        "encoding": "inplace",
        "label": "bytes32",
        "numberOfBytes": "32"
      },
      "t_contract(IERC20Upgradeable)858": {
        "encoding": "inplace",
        "label": "contract IERC20Upgradeable",
        "numberOfBytes": "20"
      },
      "t_mapping(t_address,t_struct(WalletMetadata)24624_storage)": {
        "encoding": "mapping",
        "key": "t_address",
        "label": "mapping(address => struct IMicrocredit.WalletMetadata)",
        "numberOfBytes": "32",
        "value": "t_struct(WalletMetadata)24624_storage"
      },
      "t_mapping(t_bytes32,t_uint256)": {
        "encoding": "mapping",
        "key": "t_bytes32",
        "label": "mapping(bytes32 => uint256)",
        "numberOfBytes": "32",
        "value": "t_uint256"
      },
      "t_mapping(t_uint256,t_struct(User)24629_storage)": {
        "encoding": "mapping",
        "key": "t_uint256",
        "label": "mapping(uint256 => struct IMicrocredit.User)",
        "numberOfBytes": "32",
        "value": "t_struct(User)24629_storage"
      },
      "t_struct(AddressSet)5505_storage": {
        "encoding": "inplace",
        "label": "struct EnumerableSet.AddressSet",
        "members": [
          {
            "astId": 5504,
            "contract": "contracts/microcredit/MicrocreditImplementation.sol:MicrocreditImplementation",
            "label": "_inner",
            "offset": 0,
            "slot": "0",
            "type": "t_struct(Set)5204_storage"
          }
        ],
        "numberOfBytes": "64"
      },
      "t_struct(Loan)24655_storage": {
        "encoding": "inplace",
        "label": "struct IMicrocredit.Loan",
        "members": [
          {
            "astId": 24636,
            "contract": "contracts/microcredit/MicrocreditImplementation.sol:MicrocreditImplementation",
            "label": "amountBorrowed",
            "offset": 0,
            "slot": "0",
            "type": "t_uint256"
          },
          {
            "astId": 24638,
            "contract": "contracts/microcredit/MicrocreditImplementation.sol:MicrocreditImplementation",
            "label": "period",
            "offset": 0,
            "slot": "1",
            "type": "t_uint256"
          },
          {
            "astId": 24640,
            "contract": "contracts/microcredit/MicrocreditImplementation.sol:MicrocreditImplementation",
            "label": "dailyInterest",
            "offset": 0,
            "slot": "2",
            "type": "t_uint256"
          },
          {
            "astId": 24642,
            "contract": "contracts/microcredit/MicrocreditImplementation.sol:MicrocreditImplementation",
            "label": "claimDeadline",
            "offset": 0,
            "slot": "3",
            "type": "t_uint256"
          },
          {
            "astId": 24644,
            "contract": "contracts/microcredit/MicrocreditImplementation.sol:MicrocreditImplementation",
            "label": "startDate",
            "offset": 0,
            "slot": "4",
            "type": "t_uint256"
          },
          {
            "astId": 24646,
            "contract": "contracts/microcredit/MicrocreditImplementation.sol:MicrocreditImplementation",
            "label": "lastComputedDebt",
            "offset": 0,
            "slot": "5",
            "type": "t_uint256"
          },
          {
            "astId": 24648,
            "contract": "contracts/microcredit/MicrocreditImplementation.sol:MicrocreditImplementation",
            "label": "amountRepayed",
            "offset": 0,
            "slot": "6",
            "type": "t_uint256"
          },
          {
            "astId": 24652,
            "contract": "contracts/microcredit/MicrocreditImplementation.sol:MicrocreditImplementation",
            "label": "repayments",
            "offset": 0,
            "slot": "7",
            "type": "t_array(t_struct(Repayment)24634_storage)dyn_storage"
          },
          {
            "astId": 24654,
            "contract": "contracts/microcredit/MicrocreditImplementation.sol:MicrocreditImplementation",
            "label": "lastComputedDate",
            "offset": 0,
            "slot": "8",
            "type": "t_uint256"
          }
        ],
        "numberOfBytes": "288"
      },
      "t_struct(Repayment)24634_storage": {
        "encoding": "inplace",
        "label": "struct IMicrocredit.Repayment",
        "members": [
          {
            "astId": 24631,
            "contract": "contracts/microcredit/MicrocreditImplementation.sol:MicrocreditImplementation",
            "label": "date",
            "offset": 0,
            "slot": "0",
            "type": "t_uint256"
          },
          {
            "astId": 24633,
            "contract": "contracts/microcredit/MicrocreditImplementation.sol:MicrocreditImplementation",
            "label": "amount",
            "offset": 0,
            "slot": "1",
            "type": "t_uint256"
          }
        ],
        "numberOfBytes": "64"
      },
      "t_struct(Set)5204_storage": {
        "encoding": "inplace",
        "label": "struct EnumerableSet.Set",
        "members": [
          {
            "astId": 5199,
            "contract": "contracts/microcredit/MicrocreditImplementation.sol:MicrocreditImplementation",
            "label": "_values",
            "offset": 0,
            "slot": "0",
            "type": "t_array(t_bytes32)dyn_storage"
          },
          {
            "astId": 5203,
            "contract": "contracts/microcredit/MicrocreditImplementation.sol:MicrocreditImplementation",
            "label": "_indexes",
            "offset": 0,
            "slot": "1",
            "type": "t_mapping(t_bytes32,t_uint256)"
          }
        ],
        "numberOfBytes": "64"
      },
      "t_struct(User)24629_storage": {
        "encoding": "inplace",
        "label": "struct IMicrocredit.User",
        "members": [
          {
            "astId": 24628,
            "contract": "contracts/microcredit/MicrocreditImplementation.sol:MicrocreditImplementation",
            "label": "loans",
            "offset": 0,
            "slot": "0",
            "type": "t_array(t_struct(Loan)24655_storage)dyn_storage"
          }
        ],
        "numberOfBytes": "32"
      },
      "t_struct(WalletMetadata)24624_storage": {
        "encoding": "inplace",
        "label": "struct IMicrocredit.WalletMetadata",
        "members": [
          {
            "astId": 24621,
            "contract": "contracts/microcredit/MicrocreditImplementation.sol:MicrocreditImplementation",
            "label": "userId",
            "offset": 0,
            "slot": "0",
            "type": "t_uint256"
          },
          {
            "astId": 24623,
            "contract": "contracts/microcredit/MicrocreditImplementation.sol:MicrocreditImplementation",
            "label": "movedTo",
            "offset": 0,
            "slot": "1",
            "type": "t_address"
          }
        ],
        "numberOfBytes": "64"
      },
      "t_uint256": {
        "encoding": "inplace",
        "label": "uint256",
        "numberOfBytes": "32"
      }
    }
  }
}