{
  "address": "0x8D3db7E639f53c4FE62D7821b816381a6F6641d2",
  "abi": [
    {
      "anonymous": false,
      "inputs": [
        {
          "indexed": true,
          "internalType": "address",
          "name": "userAddress",
          "type": "address"
        },
        {
          "indexed": false,
          "internalType": "uint256",
          "name": "loanId",
          "type": "uint256"
        },
        {
          "indexed": false,
          "internalType": "uint256",
          "name": "amount",
          "type": "uint256"
        },
        {
          "indexed": false,
          "internalType": "uint256",
          "name": "period",
          "type": "uint256"
        },
        {
          "indexed": false,
          "internalType": "uint256",
          "name": "dailyInterest",
          "type": "uint256"
        },
        {
          "indexed": false,
          "internalType": "uint256",
          "name": "claimDeadline",
          "type": "uint256"
        }
      ],
      "name": "LoanAdded",
      "type": "event"
    },
    {
      "anonymous": false,
      "inputs": [
        {
          "indexed": true,
          "internalType": "address",
          "name": "userAddress",
          "type": "address"
        },
        {
          "indexed": false,
          "internalType": "uint256",
          "name": "loanId",
          "type": "uint256"
        }
      ],
      "name": "LoanCanceled",
      "type": "event"
    },
    {
      "anonymous": false,
      "inputs": [
        {
          "indexed": true,
          "internalType": "address",
          "name": "userAddress",
          "type": "address"
        },
        {
          "indexed": false,
          "internalType": "uint256",
          "name": "loanId",
          "type": "uint256"
        }
      ],
      "name": "LoanClaimed",
      "type": "event"
    },
    {
      "anonymous": false,
      "inputs": [
        {
          "indexed": true,
          "internalType": "address",
          "name": "managerAddress",
          "type": "address"
        },
        {
          "indexed": false,
          "internalType": "uint256",
          "name": "currentLentAmountLimit",
          "type": "uint256"
        }
      ],
      "name": "ManagerAdded",
      "type": "event"
    },
    {
      "anonymous": false,
      "inputs": [
        {
          "indexed": true,
          "internalType": "address",
          "name": "borrowerAddress",
          "type": "address"
        },
        {
          "indexed": true,
          "internalType": "address",
          "name": "managerAddress",
          "type": "address"
        }
      ],
      "name": "ManagerChanged",
      "type": "event"
    },
    {
      "anonymous": false,
      "inputs": [
        {
          "indexed": true,
          "internalType": "address",
          "name": "managerAddress",
          "type": "address"
        }
      ],
      "name": "ManagerRemoved",
      "type": "event"
    },
    {
      "anonymous": false,
      "inputs": [
        {
          "indexed": true,
          "internalType": "address",
          "name": "previousOwner",
          "type": "address"
        },
        {
          "indexed": true,
          "internalType": "address",
          "name": "newOwner",
          "type": "address"
        }
      ],
      "name": "OwnershipTransferred",
      "type": "event"
    },
    {
      "anonymous": false,
      "inputs": [
        {
          "indexed": false,
          "internalType": "address",
          "name": "account",
          "type": "address"
        }
      ],
      "name": "Paused",
      "type": "event"
    },
    {
      "anonymous": false,
      "inputs": [
        {
          "indexed": true,
          "internalType": "address",
          "name": "userAddress",
          "type": "address"
        },
        {
          "indexed": false,
          "internalType": "uint256",
          "name": "loanId",
          "type": "uint256"
        },
        {
          "indexed": false,
          "internalType": "uint256",
          "name": "repaymentAmount",
          "type": "uint256"
        },
        {
          "indexed": false,
          "internalType": "uint256",
          "name": "currentDebt",
          "type": "uint256"
        }
      ],
      "name": "RepaymentAdded",
      "type": "event"
    },
    {
      "anonymous": false,
      "inputs": [
        {
          "indexed": false,
          "internalType": "address",
          "name": "account",
          "type": "address"
        }
      ],
      "name": "Unpaused",
      "type": "event"
    },
    {
      "anonymous": false,
      "inputs": [
        {
          "indexed": true,
          "internalType": "address",
          "name": "oldWalletAddress",
          "type": "address"
        },
        {
          "indexed": true,
          "internalType": "address",
          "name": "newWalletAddress",
          "type": "address"
        }
      ],
      "name": "UserAddressChanged",
      "type": "event"
    },
    {
      "inputs": [
        {
          "internalType": "address",
          "name": "_userAddress",
          "type": "address"
        },
        {
          "internalType": "uint256",
          "name": "_amount",
          "type": "uint256"
        },
        {
          "internalType": "uint256",
          "name": "_period",
          "type": "uint256"
        },
        {
          "internalType": "uint256",
          "name": "_dailyInterest",
          "type": "uint256"
        },
        {
          "internalType": "uint256",
          "name": "_claimDeadline",
          "type": "uint256"
        }
      ],
      "name": "addLoan",
      "outputs": [],
      "stateMutability": "nonpayable",
      "type": "function"
    },
    {
      "inputs": [
        {
          "internalType": "address[]",
          "name": "_userAddresses",
          "type": "address[]"
        },
        {
          "internalType": "uint256[]",
          "name": "_amounts",
          "type": "uint256[]"
        },
        {
          "internalType": "uint256[]",
          "name": "_periods",
          "type": "uint256[]"
        },
        {
          "internalType": "uint256[]",
          "name": "_dailyInterests",
          "type": "uint256[]"
        },
        {
          "internalType": "uint256[]",
          "name": "_claimDeadlines",
          "type": "uint256[]"
        }
      ],
      "name": "addLoans",
      "outputs": [],
      "stateMutability": "nonpayable",
      "type": "function"
    },
    {
      "inputs": [
        {
          "internalType": "address[]",
          "name": "_managerAddresses",
          "type": "address[]"
        },
        {
          "internalType": "uint256[]",
          "name": "_currentLentAmountLimit",
          "type": "uint256[]"
        }
      ],
      "name": "addManagers",
      "outputs": [],
      "stateMutability": "nonpayable",
      "type": "function"
    },
    {
      "inputs": [],
      "name": "cUSD",
      "outputs": [
        {
          "internalType": "contract IERC20Upgradeable",
          "name": "",
          "type": "address"
        }
      ],
      "stateMutability": "view",
      "type": "function"
    },
    {
      "inputs": [
        {
          "internalType": "address[]",
          "name": "_userAddresses",
          "type": "address[]"
        },
        {
          "internalType": "uint256[]",
          "name": "_loansIds",
          "type": "uint256[]"
        }
      ],
      "name": "cancelLoans",
      "outputs": [],
      "stateMutability": "nonpayable",
      "type": "function"
    },
    {
      "inputs": [
        {
          "internalType": "address[]",
          "name": "_borrowerAddresses",
          "type": "address[]"
        },
        {
          "internalType": "address",
          "name": "_managerAddress",
          "type": "address"
        }
      ],
      "name": "changeManager",
      "outputs": [],
      "stateMutability": "nonpayable",
      "type": "function"
    },
    {
      "inputs": [
        {
          "internalType": "address",
          "name": "_oldWalletAddress",
          "type": "address"
        },
        {
          "internalType": "address",
          "name": "_newWalletAddress",
          "type": "address"
        }
      ],
      "name": "changeUserAddress",
      "outputs": [],
      "stateMutability": "nonpayable",
      "type": "function"
    },
    {
      "inputs": [
        {
          "internalType": "uint256",
          "name": "_loanId",
          "type": "uint256"
        }
      ],
      "name": "claimLoan",
      "outputs": [],
      "stateMutability": "nonpayable",
      "type": "function"
    },
    {
      "inputs": [
        {
          "internalType": "uint256",
          "name": "_start",
          "type": "uint256"
        },
        {
          "internalType": "uint256",
          "name": "_end",
          "type": "uint256"
        }
      ],
      "name": "copy1",
      "outputs": [],
      "stateMutability": "nonpayable",
      "type": "function"
    },
    {
      "inputs": [
        {
          "internalType": "uint256",
          "name": "_start",
          "type": "uint256"
        },
        {
          "internalType": "uint256",
          "name": "_end",
          "type": "uint256"
        },
        {
          "internalType": "uint256",
          "name": "_return",
          "type": "uint256"
        }
      ],
      "name": "copy1View",
      "outputs": [
        {
          "internalType": "uint256",
          "name": "",
          "type": "uint256"
        }
      ],
      "stateMutability": "view",
      "type": "function"
    },
    {
      "inputs": [],
      "name": "donationMiner",
      "outputs": [
        {
          "internalType": "contract IDonationMiner",
          "name": "",
          "type": "address"
        }
      ],
      "stateMutability": "view",
      "type": "function"
    },
    {
      "inputs": [],
      "name": "getVersion",
      "outputs": [
        {
          "internalType": "uint256",
          "name": "",
          "type": "uint256"
        }
      ],
      "stateMutability": "pure",
      "type": "function"
    },
    {
      "inputs": [
        {
          "internalType": "address",
          "name": "_cUSDAddress",
          "type": "address"
        },
        {
          "internalType": "address",
          "name": "_revenueAddress",
          "type": "address"
        }
      ],
      "name": "initialize",
      "outputs": [],
      "stateMutability": "nonpayable",
      "type": "function"
    },
    {
      "inputs": [
        {
          "internalType": "uint256",
          "name": "_index",
          "type": "uint256"
        }
      ],
      "name": "managerListAt",
      "outputs": [
        {
          "internalType": "address",
          "name": "",
          "type": "address"
        }
      ],
      "stateMutability": "view",
      "type": "function"
    },
    {
      "inputs": [],
      "name": "managerListLength",
      "outputs": [
        {
          "internalType": "uint256",
          "name": "",
          "type": "uint256"
        }
      ],
      "stateMutability": "view",
      "type": "function"
    },
    {
      "inputs": [
        {
          "internalType": "address",
          "name": "",
          "type": "address"
        }
      ],
      "name": "managers",
      "outputs": [
        {
          "internalType": "uint256",
          "name": "currentLentAmountLimit",
          "type": "uint256"
        },
        {
          "internalType": "uint256",
          "name": "currentLentAmount",
          "type": "uint256"
        }
      ],
      "stateMutability": "view",
      "type": "function"
    },
    {
      "inputs": [],
      "name": "owner",
      "outputs": [
        {
          "internalType": "address",
          "name": "",
          "type": "address"
        }
      ],
      "stateMutability": "view",
      "type": "function"
    },
    {
      "inputs": [],
      "name": "paused",
      "outputs": [
        {
          "internalType": "bool",
          "name": "",
          "type": "bool"
        }
      ],
      "stateMutability": "view",
      "type": "function"
    },
    {
      "inputs": [
        {
          "internalType": "address[]",
          "name": "_managerAddresses",
          "type": "address[]"
        }
      ],
      "name": "removeManagers",
      "outputs": [],
      "stateMutability": "nonpayable",
      "type": "function"
    },
    {
      "inputs": [],
      "name": "renounceOwnership",
      "outputs": [],
      "stateMutability": "nonpayable",
      "type": "function"
    },
    {
      "inputs": [
        {
          "internalType": "uint256",
          "name": "_loanId",
          "type": "uint256"
        },
        {
          "internalType": "uint256",
          "name": "_repaymentAmount",
          "type": "uint256"
        }
      ],
      "name": "repayLoan",
      "outputs": [],
      "stateMutability": "nonpayable",
      "type": "function"
    },
    {
      "inputs": [
        {
          "internalType": "address",
          "name": "_borrowerAddress",
          "type": "address"
        },
        {
          "internalType": "uint256",
          "name": "_loanId",
          "type": "uint256"
        },
        {
          "internalType": "uint256",
          "name": "_repaymentId",
          "type": "uint256"
        }
      ],
      "name": "repayLoan2",
      "outputs": [],
      "stateMutability": "nonpayable",
      "type": "function"
    },
    {
      "inputs": [],
      "name": "revenueAddress",
      "outputs": [
        {
          "internalType": "address",
          "name": "",
          "type": "address"
        }
      ],
      "stateMutability": "view",
      "type": "function"
    },
    {
      "inputs": [
        {
          "internalType": "address[]",
          "name": "_userAddresses",
          "type": "address[]"
        },
        {
          "internalType": "uint256[]",
          "name": "_loanIds",
          "type": "uint256[]"
        },
        {
          "internalType": "address[]",
          "name": "_managersAddresses",
          "type": "address[]"
        }
      ],
      "name": "setManagers",
      "outputs": [],
      "stateMutability": "nonpayable",
      "type": "function"
    },
    {
      "inputs": [
        {
          "internalType": "contract IERC20Upgradeable",
          "name": "_token",
          "type": "address"
        },
        {
          "internalType": "address",
          "name": "_to",
          "type": "address"
        },
        {
          "internalType": "uint256",
          "name": "_amount",
          "type": "uint256"
        }
      ],
      "name": "transferERC20",
      "outputs": [],
      "stateMutability": "nonpayable",
      "type": "function"
    },
    {
      "inputs": [
        {
          "internalType": "address",
          "name": "newOwner",
          "type": "address"
        }
      ],
      "name": "transferOwnership",
      "outputs": [],
      "stateMutability": "nonpayable",
      "type": "function"
    },
    {
      "inputs": [
        {
          "internalType": "contract IDonationMiner",
          "name": "_newDonationMiner",
          "type": "address"
        }
      ],
      "name": "updateDonationMiner",
      "outputs": [],
      "stateMutability": "nonpayable",
      "type": "function"
    },
    {
      "inputs": [
        {
          "internalType": "address",
          "name": "_newRevenueAddress",
          "type": "address"
        }
      ],
      "name": "updateRevenueAddress",
      "outputs": [],
      "stateMutability": "nonpayable",
      "type": "function"
    },
    {
      "inputs": [
        {
          "internalType": "address",
          "name": "_userAddress",
          "type": "address"
        },
        {
          "internalType": "uint256",
          "name": "_loanId",
          "type": "uint256"
        },
        {
          "internalType": "uint256",
          "name": "_repaymentId",
          "type": "uint256"
        }
      ],
      "name": "userLoanRepayments",
      "outputs": [
        {
          "internalType": "uint256",
          "name": "date",
          "type": "uint256"
        },
        {
          "internalType": "uint256",
          "name": "amount",
          "type": "uint256"
        }
      ],
      "stateMutability": "view",
      "type": "function"
    },
    {
      "inputs": [
        {
          "internalType": "address",
          "name": "_userAddress",
          "type": "address"
        },
        {
          "internalType": "uint256",
          "name": "_loanId",
          "type": "uint256"
        },
        {
          "internalType": "uint256",
          "name": "_repaymentId",
          "type": "uint256"
        }
      ],
      "name": "userLoanRepaymentsOld",
      "outputs": [
        {
          "internalType": "uint256",
          "name": "date",
          "type": "uint256"
        },
        {
          "internalType": "uint256",
          "name": "amount",
          "type": "uint256"
        }
      ],
      "stateMutability": "view",
      "type": "function"
    },
    {
      "inputs": [
        {
          "internalType": "address",
          "name": "_userAddress",
          "type": "address"
        },
        {
          "internalType": "uint256",
          "name": "_loanId",
          "type": "uint256"
        }
      ],
      "name": "userLoans",
      "outputs": [
        {
          "internalType": "uint256",
          "name": "amountBorrowed",
          "type": "uint256"
        },
        {
          "internalType": "uint256",
          "name": "period",
          "type": "uint256"
        },
        {
          "internalType": "uint256",
          "name": "dailyInterest",
          "type": "uint256"
        },
        {
          "internalType": "uint256",
          "name": "claimDeadline",
          "type": "uint256"
        },
        {
          "internalType": "uint256",
          "name": "startDate",
          "type": "uint256"
        },
        {
          "internalType": "uint256",
          "name": "currentDebt",
          "type": "uint256"
        },
        {
          "internalType": "uint256",
          "name": "lastComputedDebt",
          "type": "uint256"
        },
        {
          "internalType": "uint256",
          "name": "amountRepayed",
          "type": "uint256"
        },
        {
          "internalType": "uint256",
          "name": "repaymentsLength",
          "type": "uint256"
        },
        {
          "internalType": "uint256",
          "name": "lastComputedDate",
          "type": "uint256"
        },
        {
          "internalType": "address",
          "name": "managerAddress",
          "type": "address"
        }
      ],
      "stateMutability": "view",
      "type": "function"
    },
    {
      "inputs": [
        {
          "internalType": "address",
          "name": "_userAddress",
          "type": "address"
        },
        {
          "internalType": "uint256",
          "name": "_loanId",
          "type": "uint256"
        }
      ],
      "name": "userLoansOld",
      "outputs": [
        {
          "internalType": "uint256",
          "name": "amountBorrowed",
          "type": "uint256"
        },
        {
          "internalType": "uint256",
          "name": "period",
          "type": "uint256"
        },
        {
          "internalType": "uint256",
          "name": "dailyInterest",
          "type": "uint256"
        },
        {
          "internalType": "uint256",
          "name": "claimDeadline",
          "type": "uint256"
        },
        {
          "internalType": "uint256",
          "name": "startDate",
          "type": "uint256"
        },
        {
          "internalType": "uint256",
          "name": "currentDebt",
          "type": "uint256"
        },
        {
          "internalType": "uint256",
          "name": "lastComputedDebt",
          "type": "uint256"
        },
        {
          "internalType": "uint256",
          "name": "amountRepayed",
          "type": "uint256"
        },
        {
          "internalType": "uint256",
          "name": "repaymentsLength",
          "type": "uint256"
        },
        {
          "internalType": "uint256",
          "name": "lastComputedDate",
          "type": "uint256"
        },
        {
          "internalType": "address",
          "name": "managerAddress",
          "type": "address"
        }
      ],
      "stateMutability": "view",
      "type": "function"
    },
    {
      "inputs": [
        {
          "internalType": "uint256",
          "name": "_index",
          "type": "uint256"
        }
      ],
      "name": "walletListAt",
      "outputs": [
        {
          "internalType": "address",
          "name": "",
          "type": "address"
        }
      ],
      "stateMutability": "view",
      "type": "function"
    },
    {
      "inputs": [],
      "name": "walletListLength",
      "outputs": [
        {
          "internalType": "uint256",
          "name": "",
          "type": "uint256"
        }
      ],
      "stateMutability": "view",
      "type": "function"
    },
    {
      "inputs": [
        {
          "internalType": "address",
          "name": "_userAddress",
          "type": "address"
        }
      ],
      "name": "walletMetadata",
      "outputs": [
        {
          "internalType": "uint256",
          "name": "userId",
          "type": "uint256"
        },
        {
          "internalType": "address",
          "name": "movedTo",
          "type": "address"
        },
        {
          "internalType": "uint256",
          "name": "loansLength",
          "type": "uint256"
        }
      ],
      "stateMutability": "view",
      "type": "function"
    },
    {
      "inputs": [
        {
          "internalType": "address",
          "name": "_userAddress",
          "type": "address"
        }
      ],
      "name": "walletMetadataOld",
      "outputs": [
        {
          "internalType": "uint256",
          "name": "userId",
          "type": "uint256"
        },
        {
          "internalType": "address",
          "name": "movedTo",
          "type": "address"
        },
        {
          "internalType": "uint256",
          "name": "loansLength",
          "type": "uint256"
        }
      ],
      "stateMutability": "view",
      "type": "function"
    }
  ],
  "transactionHash": "0x0c640b759322c26a7fadfa5eb51e5bc0d2779a6ffcce17bb7ebe8930d72021bf",
  "args": [],
  "numDeployments": 5,
  "solcInputHash": "3985d09e23a54cb73c9483ff3ab27d85",
  "bytecode": "0x608060405234801561001057600080fd5b50613cd3806100206000396000f3fe608060405234801561001057600080fd5b506004361061021c5760003560e01c8063715018a611610125578063c89fc9a7116100ad578063eef1b5151161007c578063eef1b51514610583578063efaf058b14610596578063f2fde38b146105a9578063fdd28859146105bc578063fdff9b4d146105cf57600080fd5b8063c89fc9a714610537578063d8bad5bd1461054a578063e0c7cf571461055d578063e36d4f3e1461057057600080fd5b80638da5cb5b116100f45780638da5cb5b146104da5780639a9cb971146104eb5780639db5dbe4146104fe578063adb9712614610511578063b410908d1461052457600080fd5b8063715018a61461049957806378d5bcc1146104a157806380407735146104b45780638a700b53146104c757600080fd5b8063485cc955116101a85780635d916afd116101775780635d916afd1461040357806360c4477a146104165780636323f5e91461041e57806366d263d91461047357806368fcaf841461048657600080fd5b8063485cc9551461039f57806353a469b3146103b257806358931913146103c55780635c975abb146103ed57600080fd5b80631fccf672116101ef5780631fccf672146102ce5780632247f745146102f9578063387d0263146103715780633a17596b1461037957806346e22ede1461038c57600080fd5b80630d8e6e2c1461022157806310f3ee29146102375780631af33ba71461024c5780631f9f1766146102bb575b600080fd5b60015b6040519081526020015b60405180910390f35b61024a610245366004613532565b6105f6565b005b61025f61025a366004613490565b6106f8565b604080519b8c5260208c019a909a52988a01979097526060890195909552608088019390935260a087019190915260c086015260e08501526101008401526101208301526001600160a01b03166101408201526101600161022e565b61024a6102c93660046138ad565b6107e4565b60c9546102e1906001600160a01b031681565b6040516001600160a01b03909116815260200161022e565b61034e61030736600461343c565b6001600160a01b03908116600090815260cc6020908152604080832081518083018352815480825260019092015490951694830185905280845260cb909252909120549092565b604080519384526001600160a01b0390921660208401529082015260600161022e565b610224610acb565b61024a6103873660046134ef565b610adc565b61022461039a3660046138ce565b610b10565b61024a6103ad366004613458565b610dfc565b61024a6103c0366004613895565b610eff565b6103d86103d33660046134bb565b6110f0565b6040805192835260208301919091520161022e565b60655460ff16604051901515815260200161022e565b61024a610411366004613671565b61120f565b6102246113b7565b61034e61042c36600461343c565b6001600160a01b03908116600090815260cc6020908152604080832081518083018352815480825260019092015490951694830185905280845260d4909252909120549092565b61024a6104813660046134bb565b6113c3565b6102e1610494366004613895565b6115f2565b61024a611605565b6103d86104af3660046134bb565b61163b565b61024a6104c2366004613572565b6116db565b61024a6104d53660046138ad565b6117a2565b6033546001600160a01b03166102e1565b61024a6104f936600461375c565b611bf1565b61024a61050c366004613855565b611d98565b6102e161051f366004613895565b611e08565b60d1546102e1906001600160a01b031681565b61024a61054536600461343c565b611e15565b61025f610558366004613490565b611e61565b61024a61056b366004613572565b611f8e565b60d3546102e1906001600160a01b031681565b61024a610591366004613458565b612136565b61024a6105a43660046135db565b6122db565b61024a6105b736600461343c565b612464565b61024a6105ca36600461343c565b6124ff565b6103d86105dd36600461343c565b60d2602052600090815260409020805460019091015482565b6033546001600160a01b031633146106295760405162461bcd60e51b815260040161062090613a96565b60405180910390fd5b8060005b818110156106f25761067584848381811061065857634e487b7160e01b600052603260045260246000fd5b905060200201602081019061066d919061343c565b60cf9061254b565b5083838281811061069657634e487b7160e01b600052603260045260246000fd5b90506020020160208101906106ab919061343c565b6001600160a01b03167fef69f7d97228658c92417be1b16b19058315de71fecb435d07b7d23728b6bd3160405160405180910390a2806106ea81613c41565b91505061062d565b50505050565b60008060008060008060008060008060006107138d8d612560565b6001600160a01b03808e16600090815260cc6020908152604080832081518083018352815480825260019092015490951685840152835260cb909152812080548f90811061077157634e487b7160e01b600052603260045260246000fd5b90600052602060002090600a0201905080600001549c5080600101549b5080600201549a508060030154995080600401549850806005015496506107b48161262d565b97508060060154955080600701805490509450806008015493506000925050509295989b509295989b9093969950565b73a34737409091ebd0726a3ab5863fc7ee9243edab33146108175760405162461bcd60e51b815260040161062090613a61565b816000805b838311610ac457600083815260d46020908152604080832060cb83528184208251815480860282018501855294810185815292959490939192849290918491879085015b8282101561096f57838290600052602060002090600a0201604051806101400160405290816000820154815260200160018201548152602001600282015481526020016003820154815260200160048201548152602001600582015481526020016006820154815260200160078201805480602002602001604051908101604052809291908181526020016000905b82821015610935578382906000526020600020906002020160405180604001604052908160008201548152602001600182015481525050815260200190600101906108ef565b5050509082525060088201546020808301919091526009909201546001600160a01b03166040909101529082526001929092019101610860565b5050509152505080515183556000945090505b8154841015610aaf576000848152600183016020526040812082518051919291879081106109c057634e487b7160e01b600052603260045260246000fd5b6020908102919091018101518051845590810151600184015560408101516002840155606081015160038401556080810151600484015560a0810151600584015560c0810151600684015560e081015151600784015561010081015160098401556000955090505b8160070154851015610a9a576000858152600883016020526040812060e0830151805191929188908110610a6c57634e487b7160e01b600052603260045260246000fd5b6020908102919091018101518051845501516001909201919091555084610a9281613c41565b955050610a28565b50508380610aa790613c41565b945050610982565b50508280610abc90613c41565b93505061081c565b5050505050565b6000610ad760cf6126c7565b905090565b610ae760cf336126d1565b610b035760405162461bcd60e51b815260040161062090613948565b610ac485858585856126f3565b600073a34737409091ebd0726a3ab5863fc7ee9243edab3314610b455760405162461bcd60e51b815260040161062090613a61565b60008060008460011415610b5e57849350505050610df5565b8692505b858311610dee578460021415610b7d57849350505050610df5565b600083815260cb60209081526040808320815181548085028201840184529381018481529093919284928491879085015b82821015610cbd57838290600052602060002090600a0201604051806101400160405290816000820154815260200160018201548152602001600282015481526020016003820154815260200160048201548152602001600582015481526020016006820154815260200160078201805480602002602001604051908101604052809291908181526020016000905b82821015610c8357838290600052602060002090600202016040518060400160405290816000820154815260200160018201548152505081526020019060010190610c3d565b5050509082525060088201546020808301919091526009909201546001600160a01b03166040909101529082526001929092019101610bae565b505050508152505090508560031415610cdc5785945050505050610df5565b600092505b805151831015610ddb578560041415610d005785945050505050610df5565b600081600001518481518110610d2657634e487b7160e01b600052603260045260246000fd5b602002602001015190508660051415610d46578695505050505050610df5565b600092505b8060e0015151831015610dc8578660061415610d6e578695505050505050610df5565b60008160e001518481518110610d9457634e487b7160e01b600052603260045260246000fd5b602002602001015190508760071415610db557879650505050505050610df5565b5082610dc081613c41565b935050610d4b565b5082610dd381613c41565b935050610ce1565b5082610de681613c41565b935050610b62565b8493505050505b9392505050565b600054610100900460ff16610e175760005460ff1615610e1b565b303b155b610e7e5760405162461bcd60e51b815260206004820152602e60248201527f496e697469616c697a61626c653a20636f6e747261637420697320616c72656160448201526d191e481a5b9a5d1a585b1a5e995960921b6064820152608401610620565b600054610100900460ff16158015610ea0576000805461ffff19166101011790555b610ea8612a47565b610eb0612a7e565b610eb8612ab5565b60c980546001600160a01b038086166001600160a01b03199283161790925560d18054928516929091169190911790558015610efa576000805461ff00191690555b505050565b60026097541415610f225760405162461bcd60e51b815260040161062090613b59565b6002609755610f313382612ae4565b33600090815260cc602090815260408083208151808301835281548082526001928301546001600160a01b031682860152855260d484528285208686529182019093529220600481015491929115610f9b5760405162461bcd60e51b815260040161062090613a20565b6003810154610fec5760405162461bcd60e51b815260206004820152601a60248201527f4d6963726f6372656469743a204c6f616e2063616e63656c65640000000000006044820152606401610620565b42816003015410156110405760405162461bcd60e51b815260206004820152601960248201527f4d6963726f6372656469743a204c6f616e2065787069726564000000000000006044820152606401610620565b4260048201556002810154670de0b6b3a76400009061106190606490613ba8565b61107390670de0b6b3a7640000613b90565b825461107f9190613bc8565b6110899190613ba8565b6005820155426009820155805460c9546110b0916001600160a01b03909116903390612bb1565b60405184815233907fba0cbe8ef8ef3c6984adc684d0c9b9a4d2d4c79b4678b63c38651fa48d21c62c9060200160405180910390a2505060016097555050565b6000806110fd8585612560565b6001600160a01b03808616600090815260cc6020908152604080832081518083018352815480825260019092015490951685840152835260cb9091528120805490919082908890811061116057634e487b7160e01b600052603260045260246000fd5b90600052602060002090600a02019050858160070180549050116111965760405162461bcd60e51b8152600401610620906139dc565b8060070186815481106111b957634e487b7160e01b600052603260045260246000fd5b90600052602060002090600202016000015494508060070186815481106111f057634e487b7160e01b600052603260045260246000fd5b9060005260206000209060020201600101549350505050935093915050565b61121a60cf336126d1565b6112365760405162461bcd60e51b815260040161062090613948565b888781146112565760405162461bcd60e51b81526004016106209061398c565b8086146112755760405162461bcd60e51b81526004016106209061398c565b8084146112945760405162461bcd60e51b81526004016106209061398c565b8082146112b35760405162461bcd60e51b81526004016106209061398c565b60005b818110156113a9576113978c8c838181106112e157634e487b7160e01b600052603260045260246000fd5b90506020020160208101906112f6919061343c565b8b8b8481811061131657634e487b7160e01b600052603260045260246000fd5b905060200201358a8a8581811061133d57634e487b7160e01b600052603260045260246000fd5b9050602002013589898681811061136457634e487b7160e01b600052603260045260246000fd5b9050602002013588888781811061138b57634e487b7160e01b600052603260045260246000fd5b905060200201356126f3565b806113a181613c41565b9150506112b6565b505050505050505050505050565b6000610ad760cd6126c7565b73a34737409091ebd0726a3ab5863fc7ee9243edab33146113f65760405162461bcd60e51b815260040161062090613a61565b6001600160a01b03808416600090815260cc602090815260408083208151808301835281548082526001928301549096168185015294845260d483528184208785520182528083208451845260cb909252822080549192918690811061146c57634e487b7160e01b600052603260045260246000fd5b90600052602060002090600a0201604051806101400160405290816000820154815260200160018201548152602001600282015481526020016003820154815260200160048201548152602001600582015481526020016006820154815260200160078201805480602002602001604051908101604052809291908181526020016000905b82821015611537578382906000526020600020906002020160405180604001604052908160008201548152602001600182015481525050815260200190600101906114f1565b505050908252506008828101546020808401919091526009909301546001600160a01b03166040928301526000888152908601909252812060e0830151805193945090928790811061159957634e487b7160e01b600052603260045260246000fd5b6020908102919091018101518051845590810151600184015560078501805491925060006115c683613c41565b90915550505060a0820151600584015550610100810151600983015560c0015160069091015550505050565b60006115ff60cf83612c14565b92915050565b6033546001600160a01b0316331461162f5760405162461bcd60e51b815260040161062090613a96565b6116396000612c20565b565b6000806116488585612ae4565b6001600160a01b03808616600090815260cc602090815260408083208151808301835281548082526001928301549096168185015294845260d48352818420898552908101909252909120600781015486106116b65760405162461bcd60e51b8152600401610620906139dc565b6000958652600801602052505060409092208054600190910154909590945092505050565b6116e660cf336126d1565b6117025760405162461bcd60e51b815260040161062090613948565b8281146117215760405162461bcd60e51b81526004016106209061398c565b60005b83811015610ac45761179085858381811061174f57634e487b7160e01b600052603260045260246000fd5b9050602002016020810190611764919061343c565b84848481811061178457634e487b7160e01b600052603260045260246000fd5b90506020020135612c72565b8061179a81613c41565b915050611724565b600260975414156117c55760405162461bcd60e51b815260040161062090613b59565b6002609755806118175760405162461bcd60e51b815260206004820152601b60248201527f4d6963726f6372656469743a20496e76616c696420616d6f756e7400000000006044820152606401610620565b6118213383612ae4565b33600090815260cc602090815260408083208151808301835281548082526001928301546001600160a01b031682860152855260d48452828520878652918201909352922060048101549192916118ba5760405162461bcd60e51b815260206004820152601d60248201527f4d6963726f6372656469743a204c6f616e206e6f7420636c61696d65640000006044820152606401610620565b60008160050154116119275760405162461bcd60e51b815260206004820152603060248201527f4d6963726f6372656469743a204c6f616e2068617320616c726561647920626560448201526f195b88199d5b1b1e481c995c185e595960821b6064820152608401610620565b600061193282612dcc565b905084811015611940578094505b81546006830154611952908790613b90565b1161198c5760c95461196f906001600160a01b0316333088612e66565b600a820154611987906001600160a01b031686612e9e565b611a5c565b81546006830154106119b75760d15460c954611987916001600160a01b039182169133911688612e66565b600682015482546000916119ca91613be7565b60d1549091506001600160a01b03166119fa5760c9546119f5906001600160a01b0316333089612e66565b611a42565b60c954611a12906001600160a01b0316333084612e66565b60d154611a429033906001600160a01b0316611a2e848a613be7565b60c9546001600160a01b0316929190612e66565b600a830154611a5a906001600160a01b031682612e9e565b505b600782018054600081815260088501602052604081209290611a7d83613c41565b909155505042815560018101869055611a968683613be7565b836005018190555085836006016000828254611ab29190613b90565b909155505060098301546000906201518090611ace9042613be7565b611ad89190613ba8565b9050611ae78162015180613bc8565b8460090154611af69190613b90565b60098501556005840154158015611b17575060d3546001600160a01b031615155b15611b995760d354845460068601546001600160a01b039092169163bc4643ee91611b4191613be7565b6040516001600160e01b031960e084901b1681526004810191909152336024820152604401600060405180830381600087803b158015611b8057600080fd5b505af1158015611b94573d6000803e3d6000fd5b505050505b6005840154604080518a8152602081018a90529081019190915233907f36bd188317b9b3af98bbc5bfd88a0bccb96582fa2c955815ea9916dfeeb02d9e9060600160405180910390a250506001609755505050505050565b611bfc60cf336126d1565b611c185760405162461bcd60e51b815260040161062090613948565b6000611c2560cf836126d1565b611c7d5760405162461bcd60e51b8152602060048201526024808201527f4d6963726f6372656469743a20696e76616c6964206d616e61676572206164646044820152637265737360e01b6064820152608401610620565b5060005b8251811015610efa57611cc5838281518110611cad57634e487b7160e01b600052603260045260246000fd5b602002602001015160cd6126d190919063ffffffff16565b611d1f5760405162461bcd60e51b815260206004820152602560248201527f4d6963726f6372656469743a20696e76616c696420626f72726f776572206164604482015264647265737360d81b6064820152608401610620565b816001600160a01b0316838281518110611d4957634e487b7160e01b600052603260045260246000fd5b60200260200101516001600160a01b03167f605c2dbf762e5f7d60a546d42e7205dcb1b011ebc62a61736a57c9089d3a435060405160405180910390a380611d9081613c41565b915050611c81565b60026097541415611dbb5760405162461bcd60e51b815260040161062090613b59565b60026097556033546001600160a01b03163314611dea5760405162461bcd60e51b815260040161062090613a96565b611dfe6001600160a01b0384168383612bb1565b5050600160975550565b60006115ff60cd83612c14565b6033546001600160a01b03163314611e3f5760405162461bcd60e51b815260040161062090613a96565b60d380546001600160a01b0319166001600160a01b0392909216919091179055565b6000806000806000806000806000806000611e7c8d8d612ae4565b600060cc60008f6001600160a01b03166001600160a01b03168152602001908152602001600020604051806040016040529081600082015481526020016001820160009054906101000a90046001600160a01b03166001600160a01b03166001600160a01b0316815250509050600060d460008360000151815260200190815260200160002060010160008f8152602001908152602001600020905080600001549c5080600101549b5080600201549a50806003015499508060040154985080600501549650611f4b81612dcc565b975080600601549550806007015494508060090154935080600a0160009054906101000a90046001600160a01b0316925050509295989b509295989b9093969950565b6033546001600160a01b03163314611fb85760405162461bcd60e51b815260040161062090613a96565b8260005b8181101561212e57612004868683818110611fe757634e487b7160e01b600052603260045260246000fd5b9050602002016020810190611ffc919061343c565b60cf90612f27565b5083838281811061202557634e487b7160e01b600052603260045260246000fd5b9050602002013560d2600088888581811061205057634e487b7160e01b600052603260045260246000fd5b9050602002016020810190612065919061343c565b6001600160a01b0316815260208101919091526040016000205585858281811061209f57634e487b7160e01b600052603260045260246000fd5b90506020020160208101906120b4919061343c565b6001600160a01b03167ffae05d1286e3d4cd0db21fce06a66beb75ec586eb923fc0fcc332e69d7ad2e2f8585848181106120fe57634e487b7160e01b600052603260045260246000fd5b9050602002013560405161211491815260200190565b60405180910390a28061212681613c41565b915050611fbc565b505050505050565b61214160cf336126d1565b61215d5760405162461bcd60e51b815260040161062090613948565b6001600160a01b038216600090815260cc60205260409020805415801590612190575060018101546001600160a01b0316155b6121eb5760405162461bcd60e51b815260206004820152602660248201527f4d6963726f6372656469743a205468697320757365722063616e6e6f74206265604482015265081b5bdd995960d21b6064820152608401610620565b6001600160a01b038216600090815260cc602052604090208054156122685760405162461bcd60e51b815260206004820152602d60248201527f4d6963726f6372656469743a205461726765742077616c6c657420616464726560448201526c1cdcc81a5cc81a5b9d985b1a59609a1b6064820152608401610620565b6001820180546001600160a01b0319166001600160a01b0385161790558154815561229460cd84612f27565b50826001600160a01b0316846001600160a01b03167ffe697da51e9b8089b3ac92361b06886b93f48f935848aa4da1148c15b262840a60405160405180910390a350505050565b6033546001600160a01b031633146123055760405162461bcd60e51b815260040161062090613a96565b8481146123245760405162461bcd60e51b81526004016106209061398c565b60005b8581101561245b57600060cc600089898581811061235557634e487b7160e01b600052603260045260246000fd5b905060200201602081019061236a919061343c565b6001600160a01b039081168252602080830193909352604091820160002082518084019093528054835260010154169181019190915290508383838181106123c257634e487b7160e01b600052603260045260246000fd5b90506020020160208101906123d7919061343c565b8151600090815260d4602052604081206001019088888681811061240b57634e487b7160e01b600052603260045260246000fd5b905060200201358152602001908152602001600020600a0160006101000a8154816001600160a01b0302191690836001600160a01b0316021790555050808061245390613c41565b915050612327565b50505050505050565b6033546001600160a01b0316331461248e5760405162461bcd60e51b815260040161062090613a96565b6001600160a01b0381166124f35760405162461bcd60e51b815260206004820152602660248201527f4f776e61626c653a206e6577206f776e657220697320746865207a65726f206160448201526564647265737360d01b6064820152608401610620565b6124fc81612c20565b50565b6033546001600160a01b031633146125295760405162461bcd60e51b815260040161062090613a96565b60d180546001600160a01b0319166001600160a01b0392909216919091179055565b6000610df5836001600160a01b038416612f3c565b6001600160a01b03808316600090815260cc6020908152604091829020825180840190935280548084526001909101549093169082015290158015906125b1575060208101516001600160a01b0316155b6125cd5760405162461bcd60e51b815260040161062090613acb565b8051600090815260cb60205260409020805483106106f25760405162461bcd60e51b815260206004820152601f60248201527f4d6963726f6372656469743a204c6f616e20646f65736e2774206578697374006044820152606401610620565b600081600501546000141561264457506000919050565b60006201518083600801544261265a9190613be7565b6126649190613ba8565b60058401549091505b8115610df557670de0b6b3a76400006064856002015461268d9190613ba8565b61269f90670de0b6b3a7640000613b90565b6126a99083613bc8565b6126b39190613ba8565b9050816126bf81613c2a565b92505061266d565b60006115ff825490565b6001600160a01b03811660009081526001830160205260408120541515610df5565b42811161274d5760405162461bcd60e51b815260206004820152602260248201527f4d6963726f6372656469743a20696e76616c696420636c61696d446561646c696044820152616e6560f01b6064820152608401610620565b6001600160a01b03808616600090815260cc602052604090206001810154909116156127c75760405162461bcd60e51b8152602060048201526024808201527f4d6963726f6372656469743a20546865207573657220686173206265656e206d6044820152631bdd995960e21b6064820152608401610620565b33600090815260d260205260409020805460018201546127e8908890613b90565b11156128675760405162461bcd60e51b815260206004820152604260248201527f4d6963726f6372656469743a204d616e6167657220646f6e277420686176652060448201527f656e6f7567682066756e647320746f20626f72726f77207468697320616d6f756064820152611b9d60f21b608482015260a401610620565b81546128945760ca805490600061287d83613c41565b909155505060ca54825561289260cd88612f27565b505b8154600090815260d460205260409020805480156129765760008260010160006001846128c19190613be7565b81526020019081526020016000209050600081600401541180156128e757506005810154155b80612902575060048101541580156129025750428160030154105b8061290f57506003810154155b6129745760405162461bcd60e51b815260206004820152603060248201527f4d6963726f6372656469743a20546865207573657220616c726561647920686160448201526f399030b71030b1ba34bb32903637b0b760811b6064820152608401610620565b505b6000818152600183016020526040812083549091849061299583613c41565b909155505088815560018082018990556002820188905560038201879055600a820180546001600160a01b03191633179055840180548a91906000906129dc908490613b90565b909155505060408051838152602081018b905290810189905260608101889052608081018790526001600160a01b038b16907fdf5f35c1edc69bc65031bb54e429851779e0db0a2d5f763a0eabdd9bec9429f29060a00160405180910390a250505050505050505050565b600054610100900460ff16612a6e5760405162461bcd60e51b815260040161062090613b0e565b612a76613059565b611639613080565b600054610100900460ff16612aa55760405162461bcd60e51b815260040161062090613b0e565b612aad613059565b6116396130b0565b600054610100900460ff16612adc5760405162461bcd60e51b815260040161062090613b0e565b6116396130e3565b6001600160a01b03808316600090815260cc602090815260409182902082518084019093528054808452600190910154909316908201529015801590612b35575060208101516001600160a01b0316155b612b515760405162461bcd60e51b815260040161062090613acb565b8051600090815260d460205260409020805483106106f25760405162461bcd60e51b815260206004820152601f60248201527f4d6963726f6372656469743a204c6f616e20646f65736e2774206578697374006044820152606401610620565b6040516001600160a01b038316602482015260448101829052610efa90849063a9059cbb60e01b906064015b60408051601f198184030181529190526020810180516001600160e01b03166001600160e01b031990931692909217909152613111565b6000610df583836131e3565b603380546001600160a01b038381166001600160a01b0319831681179093556040519116919082907f8be0079c531659141344cd1fd0a4f28419497f9722a3daafe3b4186f6b6457e090600090a35050565b612c7c8282612ae4565b6001600160a01b03808316600090815260cc602090815260408083208151808301835281548082526001928301549096168185015294845260d48352818420868552908101909252909120600481015415612ce95760405162461bcd60e51b815260040161062090613a20565b6003810154612d455760405162461bcd60e51b815260206004820152602260248201527f4d6963726f6372656469743a204c6f616e20616c72656164792063616e63656c604482015261195960f21b6064820152608401610620565b600060038201819055600a8201546001600160a01b0316815260d260205260408120825460018201805492939192909190612d81908490613be7565b90915550506040518581526001600160a01b038716907f2f0f5933c0b9b1d9fee69327e7789ce07ef1be486122748fc2a079742067a8089060200160405180910390a2505050505050565b6000816005015460001415612de357506000919050565b600062015180836009015442612df99190613be7565b612e039190613ba8565b60058401549091505b8115610df557670de0b6b3a764000060648560020154612e2c9190613ba8565b612e3e90670de0b6b3a7640000613b90565b612e489083613bc8565b612e529190613ba8565b905081612e5e81613c2a565b925050612e0c565b6040516001600160a01b03808516602483015283166044820152606481018290526106f29085906323b872dd60e01b90608401612bdd565b6001600160a01b03821615612f23576001600160a01b038216600090815260d26020526040902060010154811015612f06576001600160a01b038216600090815260d2602052604081206001018054839290612efb908490613be7565b90915550612f239050565b6001600160a01b038216600090815260d260205260408120600101555b5050565b6000610df5836001600160a01b03841661321b565b6000818152600183016020526040812054801561304f576000612f60600183613be7565b8554909150600090612f7490600190613be7565b9050818114612ff5576000866000018281548110612fa257634e487b7160e01b600052603260045260246000fd5b9060005260206000200154905080876000018481548110612fd357634e487b7160e01b600052603260045260246000fd5b6000918252602080832090910192909255918252600188019052604090208390555b855486908061301457634e487b7160e01b600052603160045260246000fd5b6001900381819060005260206000200160009055905585600101600086815260200190815260200160002060009055600193505050506115ff565b60009150506115ff565b600054610100900460ff166116395760405162461bcd60e51b815260040161062090613b0e565b600054610100900460ff166130a75760405162461bcd60e51b815260040161062090613b0e565b61163933612c20565b600054610100900460ff166130d75760405162461bcd60e51b815260040161062090613b0e565b6065805460ff19169055565b600054610100900460ff1661310a5760405162461bcd60e51b815260040161062090613b0e565b6001609755565b6000613166826040518060400160405280602081526020017f5361666545524332303a206c6f772d6c6576656c2063616c6c206661696c6564815250856001600160a01b031661326a9092919063ffffffff16565b805190915015610efa57808060200190518101906131849190613835565b610efa5760405162461bcd60e51b815260206004820152602a60248201527f5361666545524332303a204552433230206f7065726174696f6e20646964206e6044820152691bdd081cdd58d8d9595960b21b6064820152608401610620565b600082600001828154811061320857634e487b7160e01b600052603260045260246000fd5b9060005260206000200154905092915050565b6000818152600183016020526040812054613262575081546001818101845560008481526020808220909301849055845484825282860190935260409020919091556115ff565b5060006115ff565b60606132798484600085613281565b949350505050565b6060824710156132e25760405162461bcd60e51b815260206004820152602660248201527f416464726573733a20696e73756666696369656e742062616c616e636520666f6044820152651c8818d85b1b60d21b6064820152608401610620565b843b6133305760405162461bcd60e51b815260206004820152601d60248201527f416464726573733a2063616c6c20746f206e6f6e2d636f6e74726163740000006044820152606401610620565b600080866001600160a01b0316858760405161334c91906138f9565b60006040518083038185875af1925050503d8060008114613389576040519150601f19603f3d011682016040523d82523d6000602084013e61338e565b606091505b509150915061339e8282866133a9565b979650505050505050565b606083156133b8575081610df5565b8251156133c85782518084602001fd5b8160405162461bcd60e51b81526004016106209190613915565b80356133ed81613c88565b919050565b60008083601f840112613403578081fd5b50813567ffffffffffffffff81111561341a578182fd5b6020830191508360208260051b850101111561343557600080fd5b9250929050565b60006020828403121561344d578081fd5b8135610df581613c88565b6000806040838503121561346a578081fd5b823561347581613c88565b9150602083013561348581613c88565b809150509250929050565b600080604083850312156134a2578182fd5b82356134ad81613c88565b946020939093013593505050565b6000806000606084860312156134cf578081fd5b83356134da81613c88565b95602085013595506040909401359392505050565b600080600080600060a08688031215613506578081fd5b853561351181613c88565b97602087013597506040870135966060810135965060800135945092505050565b60008060208385031215613544578182fd5b823567ffffffffffffffff81111561355a578283fd5b613566858286016133f2565b90969095509350505050565b60008060008060408587031215613587578384fd5b843567ffffffffffffffff8082111561359e578586fd5b6135aa888389016133f2565b909650945060208701359150808211156135c2578384fd5b506135cf878288016133f2565b95989497509550505050565b600080600080600080606087890312156135f3578081fd5b863567ffffffffffffffff8082111561360a578283fd5b6136168a838b016133f2565b9098509650602089013591508082111561362e578283fd5b61363a8a838b016133f2565b90965094506040890135915080821115613652578283fd5b5061365f89828a016133f2565b979a9699509497509295939492505050565b60008060008060008060008060008060a08b8d03121561368f578384fd5b8a3567ffffffffffffffff808211156136a6578586fd5b6136b28e838f016133f2565b909c509a5060208d01359150808211156136ca578586fd5b6136d68e838f016133f2565b909a50985060408d01359150808211156136ee578586fd5b6136fa8e838f016133f2565b909850965060608d0135915080821115613712578586fd5b61371e8e838f016133f2565b909650945060808d0135915080821115613736578384fd5b506137438d828e016133f2565b915080935050809150509295989b9194979a5092959850565b6000806040838503121561376e578182fd5b823567ffffffffffffffff80821115613785578384fd5b818501915085601f830112613798578384fd5b81356020828211156137ac576137ac613c72565b8160051b604051601f19603f830116810181811086821117156137d1576137d1613c72565b604052838152828101945085830182870184018b10156137ef578889fd5b8896505b8487101561381857613804816133e2565b8652600196909601959483019483016137f3565b50965061382890508782016133e2565b9450505050509250929050565b600060208284031215613846578081fd5b81518015158114610df5578182fd5b600080600060608486031215613869578081fd5b833561387481613c88565b9250602084013561388481613c88565b929592945050506040919091013590565b6000602082840312156138a6578081fd5b5035919050565b600080604083850312156138bf578182fd5b50508035926020909101359150565b6000806000606084860312156138e2578081fd5b505081359360208301359350604090920135919050565b6000825161390b818460208701613bfe565b9190910192915050565b6020815260008251806020840152613934816040850160208701613bfe565b601f01601f19169190910160400192915050565b60208082526024908201527f4d6963726f6372656469743a2063616c6c6572206973206e6f742061206d616e60408201526330b3b2b960e11b606082015260800190565b60208082526030908201527f4d6963726f6372656469743a2063616c6c6461746120696e666f726d6174696f60408201526f0dc40c2e4d2e8f240dad2e6dac2e8c6d60831b606082015260800190565b60208082526024908201527f4d6963726f6372656469743a2052657061796d656e7420646f65736e277420656040820152631e1a5cdd60e21b606082015260800190565b60208082526021908201527f4d6963726f6372656469743a204c6f616e20616c726561647920636c61696d656040820152601960fa1b606082015260800190565b6020808252818101527f4d6963726f6372656469743a2063616c6c6572206973206e6f742061646d696e604082015260600190565b6020808252818101527f4f776e61626c653a2063616c6c6572206973206e6f7420746865206f776e6572604082015260600190565b60208082526023908201527f4d6963726f6372656469743a20496e76616c69642077616c6c6574206164647260408201526265737360e81b606082015260800190565b6020808252602b908201527f496e697469616c697a61626c653a20636f6e7472616374206973206e6f74206960408201526a6e697469616c697a696e6760a81b606082015260800190565b6020808252601f908201527f5265656e7472616e637947756172643a207265656e7472616e742063616c6c00604082015260600190565b60008219821115613ba357613ba3613c5c565b500190565b600082613bc357634e487b7160e01b81526012600452602481fd5b500490565b6000816000190483118215151615613be257613be2613c5c565b500290565b600082821015613bf957613bf9613c5c565b500390565b60005b83811015613c19578181015183820152602001613c01565b838111156106f25750506000910152565b600081613c3957613c39613c5c565b506000190190565b6000600019821415613c5557613c55613c5c565b5060010190565b634e487b7160e01b600052601160045260246000fd5b634e487b7160e01b600052604160045260246000fd5b6001600160a01b03811681146124fc57600080fdfea26469706673582212207b075ef388c9b25ff46515ef47276b3360ee036903119486d235e08c2732c07264736f6c63430008040033",
  "devdoc": {
    "events": {
      "ManagerChanged(address,address)": {
        "params": {
          "borrowerAddress": "The address of the borrower",
          "managerAddress": "The address of the new manager"
        }
      }
    },
    "kind": "dev",
    "methods": {
      "addLoan(address,uint256,uint256,uint256,uint256)": {
        "params": {
          "_amount": "amount of the loan",
          "_claimDeadline": "claim deadline of the loan",
          "_dailyInterest": "daily interest of the loan",
          "_period": "period of the loan",
          "_userAddress": "address of the user"
        }
      },
      "addLoans(address[],uint256[],uint256[],uint256[],uint256[])": {
        "params": {
          "_amounts": "amounts of the loan",
          "_claimDeadlines": "claim deadlines of the loan",
          "_dailyInterests": "daily interests of the loan",
          "_periods": "periods of the loan",
          "_userAddresses": "addresses of the user"
        }
      },
      "addManagers(address[],uint256[])": {
        "params": {
          "_managerAddresses": "addresses of the managers"
        }
      },
      "cancelLoans(address[],uint256[])": {
        "params": {
          "_loansIds": "Loan ids",
          "_userAddresses": "User addresses"
        }
      },
      "changeManager(address[],address)": {
        "details": "This method doesn't change anything on the contract state, it just emits events to be used by the off-chain system",
        "params": {
          "_borrowerAddresses": "address of the borrowers",
          "_managerAddress": "address of the new manager"
        }
      },
      "changeUserAddress(address,address)": {
        "params": {
          "_newWalletAddress": "New wallet address",
          "_oldWalletAddress": "Old wallet address"
        }
      },
      "claimLoan(uint256)": {
        "params": {
          "_loanId": "Loan ID"
        }
      },
      "initialize(address,address)": {
        "params": {
          "_cUSDAddress": "The address of the cUSD token",
          "_revenueAddress": "The address that collects all the interest"
        }
      },
      "managerListAt(uint256)": {
        "params": {
          "_index": "index value"
        },
        "returns": {
          "_0": "address of the manager"
        }
      },
      "owner()": {
        "details": "Returns the address of the current owner."
      },
      "paused()": {
        "details": "Returns true if the contract is paused, and false otherwise."
      },
      "removeManagers(address[])": {
        "params": {
          "_managerAddresses": "addresses of the managers"
        }
      },
      "renounceOwnership()": {
        "details": "Leaves the contract without owner. It will not be possible to call `onlyOwner` functions anymore. Can only be called by the current owner. NOTE: Renouncing ownership will leave the contract without an owner, thereby removing any functionality that is only available to the owner."
      },
      "repayLoan(uint256,uint256)": {
        "params": {
          "_loanId": "Loan ID",
          "_repaymentAmount": "Repayment amount"
        }
      },
      "transferERC20(address,address,uint256)": {
        "params": {
          "_amount": "amount of the transaction",
          "_to": "address of the receiver",
          "_token": "address of the ERC20 token"
        }
      },
      "transferOwnership(address)": {
        "details": "Transfers ownership of the contract to a new account (`newOwner`). Can only be called by the current owner."
      },
      "walletListAt(uint256)": {
        "params": {
          "_index": "index value"
        },
        "returns": {
          "_0": "address of the user"
        }
      },
      "walletMetadata(address)": {
        "params": {
          "_userAddress": "address of the user"
        },
        "returns": {
          "loansLength": "          the number of the user's loans",
          "movedTo": "              the number of the user's loans",
          "userId": "               the userId"
        }
      },
      "walletMetadataOld(address)": {
        "params": {
          "_userAddress": "address of the user"
        },
        "returns": {
          "loansLength": "          the number of the user's loans",
          "movedTo": "              the number of the user's loans",
          "userId": "               the userId"
        }
      }
    },
    "version": 1
  },
  "userdoc": {
    "events": {
      "ManagerChanged(address,address)": {
        "notice": "Triggered when a borrower's manager has been changed"
      }
    },
    "kind": "user",
    "methods": {
      "addLoan(address,uint256,uint256,uint256,uint256)": {
        "notice": "Adds a loan"
      },
      "addLoans(address[],uint256[],uint256[],uint256[],uint256[])": {
        "notice": "Adds multiples loans"
      },
      "addManagers(address[],uint256[])": {
        "notice": "Adds managers"
      },
      "cancelLoans(address[],uint256[])": {
        "notice": "Cancel a loan"
      },
      "changeManager(address[],address)": {
        "notice": "Changes the borrowers manager address"
      },
      "changeUserAddress(address,address)": {
        "notice": "Change user address"
      },
      "claimLoan(uint256)": {
        "notice": "Claim a loan"
      },
      "getVersion()": {
        "notice": "Returns the current implementation version"
      },
      "initialize(address,address)": {
        "notice": "Used to initialize the Microcredit contract"
      },
      "managerListAt(uint256)": {
        "notice": "Returns an address from the managerList"
      },
      "managerListLength()": {
        "notice": "Returns the length of the managerList"
      },
      "removeManagers(address[])": {
        "notice": "Removes managers"
      },
      "repayLoan(uint256,uint256)": {
        "notice": "Repay a loan"
      },
      "transferERC20(address,address,uint256)": {
        "notice": "Transfers an amount of an ERC20 from this contract to an address"
      },
      "walletListAt(uint256)": {
        "notice": "Returns an address from the walletList"
      },
      "walletListLength()": {
        "notice": "Returns the length of the walletList"
      },
      "walletMetadata(address)": {
        "notice": "Returns the information of a user"
      },
      "walletMetadataOld(address)": {
        "notice": "Returns the information of a user"
      }
    },
    "version": 1
  },
  "storageLayout": {
    "storage": [
      {
        "astId": 542,
        "contract": "contracts/microcredit/MicrocreditImplementation.sol:MicrocreditImplementation",
        "label": "_initialized",
        "offset": 0,
        "slot": "0",
        "type": "t_bool"
      },
      {
        "astId": 545,
        "contract": "contracts/microcredit/MicrocreditImplementation.sol:MicrocreditImplementation",
        "label": "_initializing",
        "offset": 1,
        "slot": "0",
        "type": "t_bool"
      },
      {
        "astId": 1370,
        "contract": "contracts/microcredit/MicrocreditImplementation.sol:MicrocreditImplementation",
        "label": "__gap",
        "offset": 0,
        "slot": "1",
        "type": "t_array(t_uint256)50_storage"
      },
      {
        "astId": 420,
        "contract": "contracts/microcredit/MicrocreditImplementation.sol:MicrocreditImplementation",
        "label": "_owner",
        "offset": 0,
        "slot": "51",
        "type": "t_address"
      },
      {
        "astId": 534,
        "contract": "contracts/microcredit/MicrocreditImplementation.sol:MicrocreditImplementation",
        "label": "__gap",
        "offset": 0,
        "slot": "52",
        "type": "t_array(t_uint256)49_storage"
      },
      {
        "astId": 630,
        "contract": "contracts/microcredit/MicrocreditImplementation.sol:MicrocreditImplementation",
        "label": "_paused",
        "offset": 0,
        "slot": "101",
        "type": "t_bool"
      },
      {
        "astId": 721,
        "contract": "contracts/microcredit/MicrocreditImplementation.sol:MicrocreditImplementation",
        "label": "__gap",
        "offset": 0,
        "slot": "102",
        "type": "t_array(t_uint256)49_storage"
      },
      {
        "astId": 736,
        "contract": "contracts/microcredit/MicrocreditImplementation.sol:MicrocreditImplementation",
        "label": "_status",
        "offset": 0,
        "slot": "151",
        "type": "t_uint256"
      },
      {
        "astId": 779,
        "contract": "contracts/microcredit/MicrocreditImplementation.sol:MicrocreditImplementation",
        "label": "__gap",
        "offset": 0,
        "slot": "152",
        "type": "t_array(t_uint256)49_storage"
      },
      {
        "astId": 29084,
        "contract": "contracts/microcredit/MicrocreditImplementation.sol:MicrocreditImplementation",
        "label": "cUSD",
        "offset": 0,
        "slot": "201",
        "type": "t_contract(IERC20Upgradeable)858"
      },
      {
        "astId": 29086,
        "contract": "contracts/microcredit/MicrocreditImplementation.sol:MicrocreditImplementation",
        "label": "_usersLength",
        "offset": 0,
        "slot": "202",
        "type": "t_uint256"
      },
      {
        "astId": 29091,
        "contract": "contracts/microcredit/MicrocreditImplementation.sol:MicrocreditImplementation",
        "label": "_usersOld",
        "offset": 0,
        "slot": "203",
        "type": "t_mapping(t_uint256,t_struct(UserOld)28674_storage)"
      },
      {
        "astId": 29096,
        "contract": "contracts/microcredit/MicrocreditImplementation.sol:MicrocreditImplementation",
        "label": "_walletMetadata",
        "offset": 0,
        "slot": "204",
        "type": "t_mapping(t_address,t_struct(WalletMetadata)28702_storage)"
      },
      {
        "astId": 29099,
        "contract": "contracts/microcredit/MicrocreditImplementation.sol:MicrocreditImplementation",
        "label": "_walletList",
        "offset": 0,
        "slot": "205",
        "type": "t_struct(AddressSet)5505_storage"
      },
      {
        "astId": 29102,
        "contract": "contracts/microcredit/MicrocreditImplementation.sol:MicrocreditImplementation",
        "label": "_managerList",
        "offset": 0,
        "slot": "207",
        "type": "t_struct(AddressSet)5505_storage"
      },
      {
        "astId": 29105,
        "contract": "contracts/microcredit/MicrocreditImplementation.sol:MicrocreditImplementation",
        "label": "revenueAddress",
        "offset": 0,
        "slot": "209",
        "type": "t_address"
      },
      {
        "astId": 29111,
        "contract": "contracts/microcredit/MicrocreditImplementation.sol:MicrocreditImplementation",
        "label": "managers",
        "offset": 0,
        "slot": "210",
        "type": "t_mapping(t_address,t_struct(Manager)28715_storage)"
      },
      {
        "astId": 29115,
        "contract": "contracts/microcredit/MicrocreditImplementation.sol:MicrocreditImplementation",
        "label": "donationMiner",
        "offset": 0,
        "slot": "211",
        "type": "t_contract(IDonationMiner)18469"
      },
      {
        "astId": 29120,
        "contract": "contracts/microcredit/MicrocreditImplementation.sol:MicrocreditImplementation",
        "label": "_users",
        "offset": 0,
        "slot": "212",
        "type": "t_mapping(t_uint256,t_struct(User)28710_storage)"
      }
    ],
    "types": {
      "t_address": {
        "encoding": "inplace",
        "label": "address",
        "numberOfBytes": "20"
      },
      "t_array(t_bytes32)dyn_storage": {
        "base": "t_bytes32",
        "encoding": "dynamic_array",
        "label": "bytes32[]",
        "numberOfBytes": "32"
      },
      "t_array(t_struct(LoanOld)28697_storage)dyn_storage": {
        "base": "t_struct(LoanOld)28697_storage",
        "encoding": "dynamic_array",
        "label": "struct IMicrocredit.LoanOld[]",
        "numberOfBytes": "32"
      },
      "t_array(t_struct(Repayment)28720_storage)dyn_storage": {
        "base": "t_struct(Repayment)28720_storage",
        "encoding": "dynamic_array",
        "label": "struct IMicrocredit.Repayment[]",
        "numberOfBytes": "32"
      },
      "t_array(t_uint256)49_storage": {
        "base": "t_uint256",
        "encoding": "inplace",
        "label": "uint256[49]",
        "numberOfBytes": "1568"
      },
      "t_array(t_uint256)50_storage": {
        "base": "t_uint256",
        "encoding": "inplace",
        "label": "uint256[50]",
        "numberOfBytes": "1600"
      },
      "t_bool": {
        "encoding": "inplace",
        "label": "bool",
        "numberOfBytes": "1"
      },
      "t_bytes32": {
        "encoding": "inplace",
        "label": "bytes32",
        "numberOfBytes": "32"
      },
      "t_contract(IDonationMiner)18469": {
        "encoding": "inplace",
        "label": "contract IDonationMiner",
        "numberOfBytes": "20"
      },
      "t_contract(IERC20Upgradeable)858": {
        "encoding": "inplace",
        "label": "contract IERC20Upgradeable",
        "numberOfBytes": "20"
      },
      "t_mapping(t_address,t_struct(Manager)28715_storage)": {
        "encoding": "mapping",
        "key": "t_address",
        "label": "mapping(address => struct IMicrocredit.Manager)",
        "numberOfBytes": "32",
        "value": "t_struct(Manager)28715_storage"
      },
      "t_mapping(t_address,t_struct(WalletMetadata)28702_storage)": {
        "encoding": "mapping",
        "key": "t_address",
        "label": "mapping(address => struct IMicrocredit.WalletMetadata)",
        "numberOfBytes": "32",
        "value": "t_struct(WalletMetadata)28702_storage"
      },
      "t_mapping(t_bytes32,t_uint256)": {
        "encoding": "mapping",
        "key": "t_bytes32",
        "label": "mapping(bytes32 => uint256)",
        "numberOfBytes": "32",
        "value": "t_uint256"
      },
      "t_mapping(t_uint256,t_struct(Loan)28746_storage)": {
        "encoding": "mapping",
        "key": "t_uint256",
        "label": "mapping(uint256 => struct IMicrocredit.Loan)",
        "numberOfBytes": "32",
        "value": "t_struct(Loan)28746_storage"
      },
      "t_mapping(t_uint256,t_struct(Repayment)28720_storage)": {
        "encoding": "mapping",
        "key": "t_uint256",
        "label": "mapping(uint256 => struct IMicrocredit.Repayment)",
        "numberOfBytes": "32",
        "value": "t_struct(Repayment)28720_storage"
      },
      "t_mapping(t_uint256,t_struct(User)28710_storage)": {
        "encoding": "mapping",
        "key": "t_uint256",
        "label": "mapping(uint256 => struct IMicrocredit.User)",
        "numberOfBytes": "32",
        "value": "t_struct(User)28710_storage"
      },
      "t_mapping(t_uint256,t_struct(UserOld)28674_storage)": {
        "encoding": "mapping",
        "key": "t_uint256",
        "label": "mapping(uint256 => struct IMicrocredit.UserOld)",
        "numberOfBytes": "32",
        "value": "t_struct(UserOld)28674_storage"
      },
      "t_struct(AddressSet)5505_storage": {
        "encoding": "inplace",
        "label": "struct EnumerableSet.AddressSet",
        "members": [
          {
            "astId": 5504,
            "contract": "contracts/microcredit/MicrocreditImplementation.sol:MicrocreditImplementation",
            "label": "_inner",
            "offset": 0,
            "slot": "0",
            "type": "t_struct(Set)5204_storage"
          }
        ],
        "numberOfBytes": "64"
      },
      "t_struct(Loan)28746_storage": {
        "encoding": "inplace",
        "label": "struct IMicrocredit.Loan",
        "members": [
          {
            "astId": 28722,
            "contract": "contracts/microcredit/MicrocreditImplementation.sol:MicrocreditImplementation",
            "label": "amountBorrowed",
            "offset": 0,
            "slot": "0",
            "type": "t_uint256"
          },
          {
            "astId": 28724,
            "contract": "contracts/microcredit/MicrocreditImplementation.sol:MicrocreditImplementation",
            "label": "period",
            "offset": 0,
            "slot": "1",
            "type": "t_uint256"
          },
          {
            "astId": 28726,
            "contract": "contracts/microcredit/MicrocreditImplementation.sol:MicrocreditImplementation",
            "label": "dailyInterest",
            "offset": 0,
            "slot": "2",
            "type": "t_uint256"
          },
          {
            "astId": 28728,
            "contract": "contracts/microcredit/MicrocreditImplementation.sol:MicrocreditImplementation",
            "label": "claimDeadline",
            "offset": 0,
            "slot": "3",
            "type": "t_uint256"
          },
          {
            "astId": 28730,
            "contract": "contracts/microcredit/MicrocreditImplementation.sol:MicrocreditImplementation",
            "label": "startDate",
            "offset": 0,
            "slot": "4",
            "type": "t_uint256"
          },
          {
            "astId": 28732,
            "contract": "contracts/microcredit/MicrocreditImplementation.sol:MicrocreditImplementation",
            "label": "lastComputedDebt",
            "offset": 0,
            "slot": "5",
            "type": "t_uint256"
          },
          {
            "astId": 28734,
            "contract": "contracts/microcredit/MicrocreditImplementation.sol:MicrocreditImplementation",
            "label": "amountRepayed",
            "offset": 0,
            "slot": "6",
            "type": "t_uint256"
          },
          {
            "astId": 28736,
            "contract": "contracts/microcredit/MicrocreditImplementation.sol:MicrocreditImplementation",
            "label": "repaymentsLength",
            "offset": 0,
            "slot": "7",
            "type": "t_uint256"
          },
          {
            "astId": 28741,
            "contract": "contracts/microcredit/MicrocreditImplementation.sol:MicrocreditImplementation",
            "label": "repayments",
            "offset": 0,
            "slot": "8",
            "type": "t_mapping(t_uint256,t_struct(Repayment)28720_storage)"
          },
          {
            "astId": 28743,
            "contract": "contracts/microcredit/MicrocreditImplementation.sol:MicrocreditImplementation",
            "label": "lastComputedDate",
            "offset": 0,
            "slot": "9",
            "type": "t_uint256"
          },
          {
            "astId": 28745,
            "contract": "contracts/microcredit/MicrocreditImplementation.sol:MicrocreditImplementation",
            "label": "managerAddress",
            "offset": 0,
            "slot": "10",
            "type": "t_address"
          }
        ],
        "numberOfBytes": "352"
      },
      "t_struct(LoanOld)28697_storage": {
        "encoding": "inplace",
        "label": "struct IMicrocredit.LoanOld",
        "members": [
          {
            "astId": 28676,
            "contract": "contracts/microcredit/MicrocreditImplementation.sol:MicrocreditImplementation",
            "label": "amountBorrowed",
            "offset": 0,
            "slot": "0",
            "type": "t_uint256"
          },
          {
            "astId": 28678,
            "contract": "contracts/microcredit/MicrocreditImplementation.sol:MicrocreditImplementation",
            "label": "period",
            "offset": 0,
            "slot": "1",
            "type": "t_uint256"
          },
          {
            "astId": 28680,
            "contract": "contracts/microcredit/MicrocreditImplementation.sol:MicrocreditImplementation",
            "label": "dailyInterest",
            "offset": 0,
            "slot": "2",
            "type": "t_uint256"
          },
          {
            "astId": 28682,
            "contract": "contracts/microcredit/MicrocreditImplementation.sol:MicrocreditImplementation",
            "label": "claimDeadline",
            "offset": 0,
            "slot": "3",
            "type": "t_uint256"
          },
          {
            "astId": 28684,
            "contract": "contracts/microcredit/MicrocreditImplementation.sol:MicrocreditImplementation",
            "label": "startDate",
            "offset": 0,
            "slot": "4",
            "type": "t_uint256"
          },
          {
            "astId": 28686,
            "contract": "contracts/microcredit/MicrocreditImplementation.sol:MicrocreditImplementation",
            "label": "lastComputedDebt",
            "offset": 0,
            "slot": "5",
            "type": "t_uint256"
          },
          {
            "astId": 28688,
            "contract": "contracts/microcredit/MicrocreditImplementation.sol:MicrocreditImplementation",
            "label": "amountRepayed",
            "offset": 0,
            "slot": "6",
            "type": "t_uint256"
          },
          {
            "astId": 28692,
            "contract": "contracts/microcredit/MicrocreditImplementation.sol:MicrocreditImplementation",
            "label": "repayments",
            "offset": 0,
            "slot": "7",
            "type": "t_array(t_struct(Repayment)28720_storage)dyn_storage"
          },
          {
            "astId": 28694,
            "contract": "contracts/microcredit/MicrocreditImplementation.sol:MicrocreditImplementation",
            "label": "lastComputedDate",
            "offset": 0,
            "slot": "8",
            "type": "t_uint256"
          },
          {
            "astId": 28696,
            "contract": "contracts/microcredit/MicrocreditImplementation.sol:MicrocreditImplementation",
            "label": "managerAddress",
            "offset": 0,
            "slot": "9",
            "type": "t_address"
          }
        ],
        "numberOfBytes": "320"
      },
      "t_struct(Manager)28715_storage": {
        "encoding": "inplace",
        "label": "struct IMicrocredit.Manager",
        "members": [
          {
            "astId": 28712,
            "contract": "contracts/microcredit/MicrocreditImplementation.sol:MicrocreditImplementation",
            "label": "currentLentAmountLimit",
            "offset": 0,
            "slot": "0",
            "type": "t_uint256"
          },
          {
            "astId": 28714,
            "contract": "contracts/microcredit/MicrocreditImplementation.sol:MicrocreditImplementation",
            "label": "currentLentAmount",
            "offset": 0,
            "slot": "1",
            "type": "t_uint256"
          }
        ],
        "numberOfBytes": "64"
      },
      "t_struct(Repayment)28720_storage": {
        "encoding": "inplace",
        "label": "struct IMicrocredit.Repayment",
        "members": [
          {
            "astId": 28717,
            "contract": "contracts/microcredit/MicrocreditImplementation.sol:MicrocreditImplementation",
            "label": "date",
            "offset": 0,
            "slot": "0",
            "type": "t_uint256"
          },
          {
            "astId": 28719,
            "contract": "contracts/microcredit/MicrocreditImplementation.sol:MicrocreditImplementation",
            "label": "amount",
            "offset": 0,
            "slot": "1",
            "type": "t_uint256"
          }
        ],
        "numberOfBytes": "64"
      },
      "t_struct(Set)5204_storage": {
        "encoding": "inplace",
        "label": "struct EnumerableSet.Set",
        "members": [
          {
            "astId": 5199,
            "contract": "contracts/microcredit/MicrocreditImplementation.sol:MicrocreditImplementation",
            "label": "_values",
            "offset": 0,
            "slot": "0",
            "type": "t_array(t_bytes32)dyn_storage"
          },
          {
            "astId": 5203,
            "contract": "contracts/microcredit/MicrocreditImplementation.sol:MicrocreditImplementation",
            "label": "_indexes",
            "offset": 0,
            "slot": "1",
            "type": "t_mapping(t_bytes32,t_uint256)"
          }
        ],
        "numberOfBytes": "64"
      },
      "t_struct(User)28710_storage": {
        "encoding": "inplace",
        "label": "struct IMicrocredit.User",
        "members": [
          {
            "astId": 28704,
            "contract": "contracts/microcredit/MicrocreditImplementation.sol:MicrocreditImplementation",
            "label": "loansLength",
            "offset": 0,
            "slot": "0",
            "type": "t_uint256"
          },
          {
            "astId": 28709,
            "contract": "contracts/microcredit/MicrocreditImplementation.sol:MicrocreditImplementation",
            "label": "loans",
            "offset": 0,
            "slot": "1",
            "type": "t_mapping(t_uint256,t_struct(Loan)28746_storage)"
          }
        ],
        "numberOfBytes": "64"
      },
      "t_struct(UserOld)28674_storage": {
        "encoding": "inplace",
        "label": "struct IMicrocredit.UserOld",
        "members": [
          {
            "astId": 28673,
            "contract": "contracts/microcredit/MicrocreditImplementation.sol:MicrocreditImplementation",
            "label": "loans",
            "offset": 0,
            "slot": "0",
            "type": "t_array(t_struct(LoanOld)28697_storage)dyn_storage"
          }
        ],
        "numberOfBytes": "32"
      },
      "t_struct(WalletMetadata)28702_storage": {
        "encoding": "inplace",
        "label": "struct IMicrocredit.WalletMetadata",
        "members": [
          {
            "astId": 28699,
            "contract": "contracts/microcredit/MicrocreditImplementation.sol:MicrocreditImplementation",
            "label": "userId",
            "offset": 0,
            "slot": "0",
            "type": "t_uint256"
          },
          {
            "astId": 28701,
            "contract": "contracts/microcredit/MicrocreditImplementation.sol:MicrocreditImplementation",
            "label": "movedTo",
            "offset": 0,
            "slot": "1",
            "type": "t_address"
          }
        ],
        "numberOfBytes": "64"
      },
      "t_uint256": {
        "encoding": "inplace",
        "label": "uint256",
        "numberOfBytes": "32"
      }
    }
  }
}