{
  "address": "0xCe5D0037E0eabBD9B3d45daB47057707a7Df0E9f",
  "abi": [
    {
      "anonymous": false,
      "inputs": [
        {
          "indexed": true,
          "internalType": "address",
          "name": "userAddress",
          "type": "address"
        },
        {
          "indexed": true,
          "internalType": "address",
          "name": "tokenAddress",
          "type": "address"
        },
        {
          "indexed": false,
          "internalType": "uint256",
          "name": "loanId",
          "type": "uint256"
        },
        {
          "indexed": false,
          "internalType": "uint256",
          "name": "amount",
          "type": "uint256"
        },
        {
          "indexed": false,
          "internalType": "uint256",
          "name": "period",
          "type": "uint256"
        },
        {
          "indexed": false,
          "internalType": "uint256",
          "name": "dailyInterest",
          "type": "uint256"
        },
        {
          "indexed": false,
          "internalType": "uint256",
          "name": "claimDeadline",
          "type": "uint256"
        }
      ],
      "name": "LoanAdded",
      "type": "event"
    },
    {
      "anonymous": false,
      "inputs": [
        {
          "indexed": true,
          "internalType": "address",
          "name": "userAddress",
          "type": "address"
        },
        {
          "indexed": false,
          "internalType": "uint256",
          "name": "loanId",
          "type": "uint256"
        }
      ],
      "name": "LoanCanceled",
      "type": "event"
    },
    {
      "anonymous": false,
      "inputs": [
        {
          "indexed": true,
          "internalType": "address",
          "name": "userAddress",
          "type": "address"
        },
        {
          "indexed": false,
          "internalType": "uint256",
          "name": "loanId",
          "type": "uint256"
        }
      ],
      "name": "LoanClaimed",
      "type": "event"
    },
    {
      "anonymous": false,
      "inputs": [
        {
          "indexed": true,
          "internalType": "address",
          "name": "_userAddress",
          "type": "address"
        },
        {
          "indexed": false,
          "internalType": "uint256",
          "name": "_loanId",
          "type": "uint256"
        },
        {
          "indexed": false,
          "internalType": "uint256",
          "name": "_newPeriod",
          "type": "uint256"
        },
        {
          "indexed": false,
          "internalType": "uint256",
          "name": "_newClaimDeadline",
          "type": "uint256"
        },
        {
          "indexed": false,
          "internalType": "uint256",
          "name": "_newDailyInterest",
          "type": "uint256"
        },
        {
          "indexed": false,
          "internalType": "uint256",
          "name": "_newLastComputedDebt",
          "type": "uint256"
        },
        {
          "indexed": false,
          "internalType": "uint256",
          "name": "_newLastComputedDate",
          "type": "uint256"
        }
      ],
      "name": "LoanEdited",
      "type": "event"
    },
    {
      "anonymous": false,
      "inputs": [
        {
          "indexed": true,
          "internalType": "address",
          "name": "managerAddress",
          "type": "address"
        },
        {
          "indexed": false,
          "internalType": "uint256",
          "name": "lentAmountLimit",
          "type": "uint256"
        }
      ],
      "name": "ManagerAdded",
      "type": "event"
    },
    {
      "anonymous": false,
      "inputs": [
        {
          "indexed": true,
          "internalType": "address",
          "name": "borrowerAddress",
          "type": "address"
        },
        {
          "indexed": true,
          "internalType": "address",
          "name": "managerAddress",
          "type": "address"
        }
      ],
      "name": "ManagerChanged",
      "type": "event"
    },
    {
      "anonymous": false,
      "inputs": [
        {
          "indexed": true,
          "internalType": "address",
          "name": "managerAddress",
          "type": "address"
        }
      ],
      "name": "ManagerRemoved",
      "type": "event"
    },
    {
      "anonymous": false,
      "inputs": [
        {
          "indexed": true,
          "internalType": "address",
          "name": "previousOwner",
          "type": "address"
        },
        {
          "indexed": true,
          "internalType": "address",
          "name": "newOwner",
          "type": "address"
        }
      ],
      "name": "OwnershipTransferred",
      "type": "event"
    },
    {
      "anonymous": false,
      "inputs": [
        {
          "indexed": false,
          "internalType": "address",
          "name": "account",
          "type": "address"
        }
      ],
      "name": "Paused",
      "type": "event"
    },
    {
      "anonymous": false,
      "inputs": [
        {
          "indexed": true,
          "internalType": "address",
          "name": "userAddress",
          "type": "address"
        },
        {
          "indexed": false,
          "internalType": "uint256",
          "name": "loanId",
          "type": "uint256"
        },
        {
          "indexed": false,
          "internalType": "uint256",
          "name": "repaymentAmount",
          "type": "uint256"
        },
        {
          "indexed": false,
          "internalType": "uint256",
          "name": "currentDebt",
          "type": "uint256"
        }
      ],
      "name": "RepaymentAdded",
      "type": "event"
    },
    {
      "anonymous": false,
      "inputs": [
        {
          "indexed": true,
          "internalType": "address",
          "name": "tokenAddress",
          "type": "address"
        }
      ],
      "name": "TokenAdded",
      "type": "event"
    },
    {
      "anonymous": false,
      "inputs": [
        {
          "indexed": true,
          "internalType": "address",
          "name": "tokenAddress",
          "type": "address"
        }
      ],
      "name": "TokenRemoved",
      "type": "event"
    },
    {
      "anonymous": false,
      "inputs": [
        {
          "indexed": false,
          "internalType": "address",
          "name": "account",
          "type": "address"
        }
      ],
      "name": "Unpaused",
      "type": "event"
    },
    {
      "anonymous": false,
      "inputs": [
        {
          "indexed": true,
          "internalType": "address",
          "name": "oldWalletAddress",
          "type": "address"
        },
        {
          "indexed": true,
          "internalType": "address",
          "name": "newWalletAddress",
          "type": "address"
        }
      ],
      "name": "UserAddressChanged",
      "type": "event"
    },
    {
      "inputs": [
        {
          "internalType": "address",
          "name": "_tokenAddress",
          "type": "address"
        },
        {
          "internalType": "uint256",
          "name": "_tokenAmount",
          "type": "uint256"
        }
      ],
      "name": "_getCUSDAmountFromExactTokenInput",
      "outputs": [
        {
          "internalType": "uint256",
          "name": "",
          "type": "uint256"
        }
      ],
      "stateMutability": "nonpayable",
      "type": "function"
    },
    {
      "inputs": [
        {
          "internalType": "address",
          "name": "_tokenAddress",
          "type": "address"
        },
        {
          "internalType": "uint256",
          "name": "_cUSDAmount",
          "type": "uint256"
        }
      ],
      "name": "_getTokenAmountFromExactCUSDOutput",
      "outputs": [
        {
          "internalType": "uint256",
          "name": "",
          "type": "uint256"
        }
      ],
      "stateMutability": "nonpayable",
      "type": "function"
    },
    {
      "inputs": [
        {
          "internalType": "address",
          "name": "_userAddress",
          "type": "address"
        },
        {
          "internalType": "address",
          "name": "_tokenAddress",
          "type": "address"
        },
        {
          "internalType": "uint256",
          "name": "_amount",
          "type": "uint256"
        },
        {
          "internalType": "uint256",
          "name": "_period",
          "type": "uint256"
        },
        {
          "internalType": "uint256",
          "name": "_dailyInterest",
          "type": "uint256"
        },
        {
          "internalType": "uint256",
          "name": "_claimDeadline",
          "type": "uint256"
        }
      ],
      "name": "addLoan",
      "outputs": [],
      "stateMutability": "nonpayable",
      "type": "function"
    },
    {
      "inputs": [
        {
          "internalType": "address[]",
          "name": "_userAddresses",
          "type": "address[]"
        },
        {
          "internalType": "address[]",
          "name": "_tokenAddresses",
          "type": "address[]"
        },
        {
          "internalType": "uint256[]",
          "name": "_amounts",
          "type": "uint256[]"
        },
        {
          "internalType": "uint256[]",
          "name": "_periods",
          "type": "uint256[]"
        },
        {
          "internalType": "uint256[]",
          "name": "_dailyInterests",
          "type": "uint256[]"
        },
        {
          "internalType": "uint256[]",
          "name": "_claimDeadlines",
          "type": "uint256[]"
        }
      ],
      "name": "addLoans",
      "outputs": [],
      "stateMutability": "nonpayable",
      "type": "function"
    },
    {
      "inputs": [
        {
          "internalType": "address[]",
          "name": "_managerAddresses",
          "type": "address[]"
        },
        {
          "internalType": "uint256[]",
          "name": "_lentAmountLimits",
          "type": "uint256[]"
        }
      ],
      "name": "addManagers",
      "outputs": [],
      "stateMutability": "nonpayable",
      "type": "function"
    },
    {
      "inputs": [
        {
          "internalType": "address",
          "name": "_tokenAddress",
          "type": "address"
        },
        {
          "internalType": "address[]",
          "name": "_exchangeTokens",
          "type": "address[]"
        },
        {
          "internalType": "uint24[]",
          "name": "_exchangeTokensFees",
          "type": "uint24[]"
        }
      ],
      "name": "addToken",
      "outputs": [],
      "stateMutability": "nonpayable",
      "type": "function"
    },
    {
      "inputs": [],
      "name": "cUSD",
      "outputs": [
        {
          "internalType": "contract IERC20Upgradeable",
          "name": "",
          "type": "address"
        }
      ],
      "stateMutability": "view",
      "type": "function"
    },
    {
      "inputs": [
        {
          "internalType": "address[]",
          "name": "_userAddresses",
          "type": "address[]"
        },
        {
          "internalType": "uint256[]",
          "name": "_loansIds",
          "type": "uint256[]"
        }
      ],
      "name": "cancelLoans",
      "outputs": [],
      "stateMutability": "nonpayable",
      "type": "function"
    },
    {
      "inputs": [
        {
          "internalType": "address[]",
          "name": "_borrowerAddresses",
          "type": "address[]"
        },
        {
          "internalType": "address",
          "name": "_managerAddress",
          "type": "address"
        }
      ],
      "name": "changeManager",
      "outputs": [],
      "stateMutability": "nonpayable",
      "type": "function"
    },
    {
      "inputs": [
        {
          "internalType": "address",
          "name": "_oldWalletAddress",
          "type": "address"
        },
        {
          "internalType": "address",
          "name": "_newWalletAddress",
          "type": "address"
        }
      ],
      "name": "changeUserAddress",
      "outputs": [],
      "stateMutability": "nonpayable",
      "type": "function"
    },
    {
      "inputs": [
        {
          "internalType": "uint256",
          "name": "_loanId",
          "type": "uint256"
        }
      ],
      "name": "claimLoan",
      "outputs": [],
      "stateMutability": "nonpayable",
      "type": "function"
    },
    {
      "inputs": [],
      "name": "donationMiner",
      "outputs": [
        {
          "internalType": "contract IDonationMiner",
          "name": "",
          "type": "address"
        }
      ],
      "stateMutability": "view",
      "type": "function"
    },
    {
      "inputs": [
        {
          "internalType": "address",
          "name": "_userAddress",
          "type": "address"
        },
        {
          "internalType": "uint256",
          "name": "_loanId",
          "type": "uint256"
        },
        {
          "internalType": "uint256",
          "name": "_currentLastComputedDate",
          "type": "uint256"
        },
        {
          "internalType": "uint256",
          "name": "_newPeriod",
          "type": "uint256"
        },
        {
          "internalType": "uint256",
          "name": "_newDailyInterest",
          "type": "uint256"
        },
        {
          "internalType": "uint256",
          "name": "_newLastComputedDebt",
          "type": "uint256"
        },
        {
          "internalType": "uint256",
          "name": "_newLastComputedDate",
          "type": "uint256"
        }
      ],
      "name": "editLoan",
      "outputs": [],
      "stateMutability": "nonpayable",
      "type": "function"
    },
    {
      "inputs": [
        {
          "internalType": "address[]",
          "name": "_userAddresses",
          "type": "address[]"
        },
        {
          "internalType": "uint256[]",
          "name": "_loanIds",
          "type": "uint256[]"
        },
        {
          "internalType": "uint256[]",
          "name": "_newClaimDeadlines",
          "type": "uint256[]"
        }
      ],
      "name": "editLoanClaimDeadlines",
      "outputs": [],
      "stateMutability": "nonpayable",
      "type": "function"
    },
    {
      "inputs": [],
      "name": "getVersion",
      "outputs": [
        {
          "internalType": "uint256",
          "name": "",
          "type": "uint256"
        }
      ],
      "stateMutability": "pure",
      "type": "function"
    },
    {
      "inputs": [
        {
          "internalType": "address",
          "name": "_tokenAddress",
          "type": "address"
        }
      ],
      "name": "inactivateToken",
      "outputs": [],
      "stateMutability": "nonpayable",
      "type": "function"
    },
    {
      "inputs": [
        {
          "internalType": "uint256",
          "name": "_from",
          "type": "uint256"
        },
        {
          "internalType": "uint256",
          "name": "_to",
          "type": "uint256"
        }
      ],
      "name": "initV2",
      "outputs": [],
      "stateMutability": "nonpayable",
      "type": "function"
    },
    {
      "inputs": [
        {
          "internalType": "address",
          "name": "_cUSDAddress",
          "type": "address"
        },
        {
          "internalType": "address",
          "name": "_revenueAddress",
          "type": "address"
        }
      ],
      "name": "initialize",
      "outputs": [],
      "stateMutability": "nonpayable",
      "type": "function"
    },
    {
      "inputs": [
        {
          "internalType": "uint256",
          "name": "_index",
          "type": "uint256"
        }
      ],
      "name": "managerListAt",
      "outputs": [
        {
          "internalType": "address",
          "name": "",
          "type": "address"
        }
      ],
      "stateMutability": "view",
      "type": "function"
    },
    {
      "inputs": [],
      "name": "managerListLength",
      "outputs": [
        {
          "internalType": "uint256",
          "name": "",
          "type": "uint256"
        }
      ],
      "stateMutability": "view",
      "type": "function"
    },
    {
      "inputs": [
        {
          "internalType": "address",
          "name": "_managerAddress",
          "type": "address"
        }
      ],
      "name": "managers",
      "outputs": [
        {
          "components": [
            {
              "internalType": "uint256",
              "name": "lentAmountLimit",
              "type": "uint256"
            },
            {
              "internalType": "uint256",
              "name": "lentAmount",
              "type": "uint256"
            }
          ],
          "internalType": "struct IMicrocredit.Manager",
          "name": "",
          "type": "tuple"
        }
      ],
      "stateMutability": "view",
      "type": "function"
    },
    {
      "inputs": [],
      "name": "owner",
      "outputs": [
        {
          "internalType": "address",
          "name": "",
          "type": "address"
        }
      ],
      "stateMutability": "view",
      "type": "function"
    },
    {
      "inputs": [],
      "name": "paused",
      "outputs": [
        {
          "internalType": "bool",
          "name": "",
          "type": "bool"
        }
      ],
      "stateMutability": "view",
      "type": "function"
    },
    {
      "inputs": [
        {
          "internalType": "address[]",
          "name": "_managerAddresses",
          "type": "address[]"
        }
      ],
      "name": "removeManagers",
      "outputs": [],
      "stateMutability": "nonpayable",
      "type": "function"
    },
    {
      "inputs": [],
      "name": "renounceOwnership",
      "outputs": [],
      "stateMutability": "nonpayable",
      "type": "function"
    },
    {
      "inputs": [
        {
          "internalType": "uint256",
          "name": "_loanId",
          "type": "uint256"
        },
        {
          "internalType": "uint256",
          "name": "_tokenRepaymentAmount",
          "type": "uint256"
        }
      ],
      "name": "repayLoan",
      "outputs": [],
      "stateMutability": "nonpayable",
      "type": "function"
    },
    {
      "inputs": [],
      "name": "revenueAddress",
      "outputs": [
        {
          "internalType": "address",
          "name": "",
          "type": "address"
        }
      ],
      "stateMutability": "view",
      "type": "function"
    },
    {
      "inputs": [
        {
          "internalType": "address[]",
          "name": "_userAddresses",
          "type": "address[]"
        },
        {
          "internalType": "uint256[]",
          "name": "_loanIds",
          "type": "uint256[]"
        },
        {
          "internalType": "address[]",
          "name": "_managersAddresses",
          "type": "address[]"
        }
      ],
      "name": "setManagers",
      "outputs": [],
      "stateMutability": "nonpayable",
      "type": "function"
    },
    {
      "inputs": [
        {
          "internalType": "uint256",
          "name": "_index",
          "type": "uint256"
        }
      ],
      "name": "tokenListAt",
      "outputs": [
        {
          "internalType": "address",
          "name": "",
          "type": "address"
        }
      ],
      "stateMutability": "view",
      "type": "function"
    },
    {
      "inputs": [],
      "name": "tokenListLength",
      "outputs": [
        {
          "internalType": "uint256",
          "name": "",
          "type": "uint256"
        }
      ],
      "stateMutability": "view",
      "type": "function"
    },
    {
      "inputs": [
        {
          "internalType": "address",
          "name": "_tokenAddress",
          "type": "address"
        }
      ],
      "name": "tokens",
      "outputs": [
        {
          "internalType": "bool",
          "name": "active",
          "type": "bool"
        }
      ],
      "stateMutability": "view",
      "type": "function"
    },
    {
      "inputs": [
        {
          "internalType": "contract IERC20Upgradeable",
          "name": "_token",
          "type": "address"
        },
        {
          "internalType": "address",
          "name": "_to",
          "type": "address"
        },
        {
          "internalType": "uint256",
          "name": "_amount",
          "type": "uint256"
        }
      ],
      "name": "transferERC20",
      "outputs": [],
      "stateMutability": "nonpayable",
      "type": "function"
    },
    {
      "inputs": [
        {
          "internalType": "address",
          "name": "newOwner",
          "type": "address"
        }
      ],
      "name": "transferOwnership",
      "outputs": [],
      "stateMutability": "nonpayable",
      "type": "function"
    },
    {
      "inputs": [],
      "name": "uniswapQuoter",
      "outputs": [
        {
          "internalType": "contract IQuoter",
          "name": "",
          "type": "address"
        }
      ],
      "stateMutability": "view",
      "type": "function"
    },
    {
      "inputs": [],
      "name": "uniswapRouter",
      "outputs": [
        {
          "internalType": "contract IUniswapRouter02",
          "name": "",
          "type": "address"
        }
      ],
      "stateMutability": "view",
      "type": "function"
    },
    {
      "inputs": [
        {
          "internalType": "contract IDonationMiner",
          "name": "_newDonationMiner",
          "type": "address"
        }
      ],
      "name": "updateDonationMiner",
      "outputs": [],
      "stateMutability": "nonpayable",
      "type": "function"
    },
    {
      "inputs": [
        {
          "internalType": "address",
          "name": "_newRevenueAddress",
          "type": "address"
        }
      ],
      "name": "updateRevenueAddress",
      "outputs": [],
      "stateMutability": "nonpayable",
      "type": "function"
    },
    {
      "inputs": [
        {
          "internalType": "contract IQuoter",
          "name": "_newUniswapQuoter",
          "type": "address"
        }
      ],
      "name": "updateUniswapQuoter",
      "outputs": [],
      "stateMutability": "nonpayable",
      "type": "function"
    },
    {
      "inputs": [
        {
          "internalType": "contract IUniswapRouter02",
          "name": "_newUniswapRouter",
          "type": "address"
        }
      ],
      "name": "updateUniswapRouter",
      "outputs": [],
      "stateMutability": "nonpayable",
      "type": "function"
    },
    {
      "inputs": [
        {
          "internalType": "address",
          "name": "_userAddress",
          "type": "address"
        },
        {
          "internalType": "uint256",
          "name": "_loanId",
          "type": "uint256"
        },
        {
          "internalType": "uint256",
          "name": "_repaymentId",
          "type": "uint256"
        }
      ],
      "name": "userLoanRepayments",
      "outputs": [
        {
          "components": [
            {
              "internalType": "uint256",
              "name": "date",
              "type": "uint256"
            },
            {
              "internalType": "uint256",
              "name": "amount",
              "type": "uint256"
            },
            {
              "internalType": "uint256",
              "name": "tokenAmount",
              "type": "uint256"
            }
          ],
          "internalType": "struct IMicrocredit.Repayment",
          "name": "repayment",
          "type": "tuple"
        }
      ],
      "stateMutability": "view",
      "type": "function"
    },
    {
      "inputs": [
        {
          "internalType": "address",
          "name": "_userAddress",
          "type": "address"
        },
        {
          "internalType": "uint256",
          "name": "_loanId",
          "type": "uint256"
        }
      ],
      "name": "userLoans",
      "outputs": [
        {
          "components": [
            {
              "internalType": "uint256",
              "name": "amountBorrowed",
              "type": "uint256"
            },
            {
              "internalType": "uint256",
              "name": "period",
              "type": "uint256"
            },
            {
              "internalType": "uint256",
              "name": "dailyInterest",
              "type": "uint256"
            },
            {
              "internalType": "uint256",
              "name": "claimDeadline",
              "type": "uint256"
            },
            {
              "internalType": "uint256",
              "name": "startDate",
              "type": "uint256"
            },
            {
              "internalType": "uint256",
              "name": "currentDebt",
              "type": "uint256"
            },
            {
              "internalType": "uint256",
              "name": "lastComputedDebt",
              "type": "uint256"
            },
            {
              "internalType": "uint256",
              "name": "amountRepayed",
              "type": "uint256"
            },
            {
              "internalType": "uint256",
              "name": "repaymentsLength",
              "type": "uint256"
            },
            {
              "internalType": "uint256",
              "name": "lastComputedDate",
              "type": "uint256"
            },
            {
              "internalType": "address",
              "name": "managerAddress",
              "type": "address"
            },
            {
              "internalType": "address",
              "name": "tokenAddress",
              "type": "address"
            },
            {
              "internalType": "uint256",
              "name": "tokenAmountBorrowed",
              "type": "uint256"
            },
            {
              "internalType": "uint256",
              "name": "tokenAmountRepayed",
              "type": "uint256"
            },
            {
              "internalType": "uint256",
              "name": "tokenLastComputedDebt",
              "type": "uint256"
            },
            {
              "internalType": "uint256",
              "name": "tokenCurrentDebt",
              "type": "uint256"
            }
          ],
          "internalType": "struct IMicrocredit.UserLoanResponse",
          "name": "userLoan",
          "type": "tuple"
        }
      ],
      "stateMutability": "nonpayable",
      "type": "function"
    },
    {
      "inputs": [
        {
          "internalType": "uint256",
          "name": "_index",
          "type": "uint256"
        }
      ],
      "name": "walletListAt",
      "outputs": [
        {
          "internalType": "address",
          "name": "",
          "type": "address"
        }
      ],
      "stateMutability": "view",
      "type": "function"
    },
    {
      "inputs": [],
      "name": "walletListLength",
      "outputs": [
        {
          "internalType": "uint256",
          "name": "",
          "type": "uint256"
        }
      ],
      "stateMutability": "view",
      "type": "function"
    },
    {
      "inputs": [
        {
          "internalType": "address",
          "name": "_userAddress",
          "type": "address"
        }
      ],
      "name": "walletMetadata",
      "outputs": [
        {
          "internalType": "uint256",
          "name": "userId",
          "type": "uint256"
        },
        {
          "internalType": "address",
          "name": "movedTo",
          "type": "address"
        },
        {
          "internalType": "uint256",
          "name": "loansLength",
          "type": "uint256"
        }
      ],
      "stateMutability": "view",
      "type": "function"
    }
  ],
  "transactionHash": "0x1514ea76572742d9361bba682af07d8b5977167a80e858f2e4dfaa6369cc4fda",
  "args": [],
  "numDeployments": 1,
  "solcInputHash": "7b8fee7e5ff416d8b125937d455cc8d1",
  "bytecode": "0x608060405234801561001057600080fd5b506145c0806100206000396000f3fe608060405234801561001057600080fd5b50600436106102745760003560e01c80638a700b5311610151578063d8bad5bd116100c3578063efaf058b11610087578063efaf058b146105eb578063f29ebfef146105fe578063f2fde38b14610611578063fdd2885914610624578063fdf7b37914610637578063fdff9b4d1461064a57600080fd5b8063d8bad5bd14610566578063e0c7cf5714610586578063e36d4f3e14610599578063e4860339146105ac578063eef1b515146105d857600080fd5b80639db5dbe4116101155780639db5dbe4146104f4578063a3745c6814610507578063adb971261461051a578063b410908d1461052d578063c89fc9a714610540578063cef960701461055357600080fd5b80638a700b53146104a25780638da5cb5b146104b5578063908bb2ae146104c65780639a552a29146104d95780639a9cb971146104e157600080fd5b806356bf5ce7116101ea578063715018a6116101ae578063715018a614610419578063735de9f71461042157806378d5bcc11461043457806380407735146104695780638241bb571461047c5780638634e84b1461048f57600080fd5b806356bf5ce71461035c5780635c975abb1461036f57806360c4477a146103865780636323f5e91461038e57806368fcaf841461040657600080fd5b806332b194b51161023c57806332b194b5146102f5578063387d02631461030857806347397a5a14610310578063485cc955146103235780634db4a3521461033657806353a469b31461034957600080fd5b80630d8e6e2c146102795780630e242d5a1461028f57806310f3ee29146102a45780631fccf672146102b75780632e131cf9146102e2575b600080fd5b60025b6040519081526020015b60405180910390f35b6102a261029d366004613b21565b6106ba565b005b6102a26102b2366004613d00565b61070f565b60c9546102ca906001600160a01b031681565b6040516001600160a01b039091168152602001610286565b6102a26102f0366004613b21565b61090f565b6102ca6103033660046140d7565b6109ef565b61027c610a02565b6102a261031e366004614107565b610a13565b6102a2610331366004613b3d565b610b82565b60d9546102ca906001600160a01b031681565b6102a26103573660046140d7565b610ca4565b61027c61036a366004613c4d565b610eb6565b60655460ff165b6040519015158152602001610286565b61027c610fb9565b6103e361039c366004613b21565b6001600160a01b03908116600090815260cc6020908152604080832081518083018352815480825260019092015490951694830185905280845260d4909252909120549092565b604080519384526001600160a01b03909216602084015290820152606001610286565b6102ca6104143660046140d7565b610fc5565b6102a2610fd2565b60d8546102ca906001600160a01b031681565b610447610442366004613c78565b611008565b6040805182518152602080840151908201529181015190820152606001610286565b6102a2610477366004613e7c565b611124565b6102a261048a366004613ee5565b6111f2565b6102a261049d366004613cac565b611539565b6102a26104b0366004614107565b61179a565b6033546001600160a01b03166102ca565b6102a26104d4366004613b21565b611c3e565b61027c611c8a565b6102a26104ef366004613f7b565b611c96565b6102a2610502366004614074565b611e3d565b6102a2610515366004613bcd565b611ead565b6102ca6105283660046140d7565b61229f565b60d1546102ca906001600160a01b031681565b6102a261054e366004613b21565b6122ac565b61027c610561366004613c4d565b6122f8565b610579610574366004613c4d565b612375565b60405161028691906143ae565b6102a2610594366004613e7c565b61256f565b60d3546102ca906001600160a01b031681565b6103766105ba366004613b21565b6001600160a01b0316600090815260d5602052604090205460ff1690565b6102a26105e6366004613b3d565b612717565b6102a26105f9366004613ee5565b6128bc565b6102a261060c366004613b75565b612a45565b6102a261061f366004613b21565b612a7a565b6102a2610632366004613b21565b612b15565b6102a2610645366004613d40565b612bc7565b61069f610658366004613b21565b6040805180820190915260008082526020820152506001600160a01b0316600090815260d26020908152604091829020825180840190935280548352600101549082015290565b60408051825181526020928301519281019290925201610286565b6033546001600160a01b031633146106ed5760405162461bcd60e51b81526004016106e4906142b5565b60405180910390fd5b60d980546001600160a01b0319166001600160a01b0392909216919091179055565b6033546001600160a01b031633146107395760405162461bcd60e51b81526004016106e4906142b5565b8060005b818110156109095760d2600085858481811061076957634e487b7160e01b600052603260045260246000fd5b905060200201602081019061077e9190613b21565b6001600160a01b03168152602081019190915260400160002060010154156107f75760405162461bcd60e51b815260206004820152602660248201527f4d6963726f6372656469743a206d616e6167657220686173206f6e676f696e67604482015265206c6f616e7360d01b60648201526084016106e4565b61083784848381811061081a57634e487b7160e01b600052603260045260246000fd5b905060200201602081019061082f9190613b21565b60cf90612dc5565b50600060d2600086868581811061085e57634e487b7160e01b600052603260045260246000fd5b90506020020160208101906108739190613b21565b6001600160a01b031681526020810191909152604001600020558383828181106108ad57634e487b7160e01b600052603260045260246000fd5b90506020020160208101906108c29190613b21565b6001600160a01b03167fef69f7d97228658c92417be1b16b19058315de71fecb435d07b7d23728b6bd3160405160405180910390a2806109018161452e565b91505061073d565b50505050565b6033546001600160a01b031633146109395760405162461bcd60e51b81526004016106e4906142b5565b6001600160a01b038116600090815260d5602052604090205460ff1615156001146109a65760405162461bcd60e51b815260206004820181905260248201527f4d6963726f6372656469743a20546f6b656e206973206e6f742061637469766560448201526064016106e4565b6001600160a01b038116600081815260d56020526040808220805460ff19169055517f4c910b69fe65a61f7531b9c5042b2329ca7179c77290aa7e2eb3afa3c8511fd39190a250565b60006109fc60d683612dda565b92915050565b6000610a0e60cf612de6565b905090565b6033546001600160a01b03163314610a3d5760405162461bcd60e51b81526004016106e4906142b5565b60008060ca548310610a515760ca54610a53565b825b92508391505b828211610af1575060005b600082815260d46020526040902054811015610adf5760c954600083815260d4602090815260408083208584526001019091529020600b810180546001600160a01b0319166001600160a01b03909316929092179091558054600c8201556006810154600d9091015580610ad78161452e565b915050610a64565b81610ae98161452e565b925050610a59565b60c954610b099060d6906001600160a01b0316612df0565b6109095760c954610b259060d6906001600160a01b0316612e12565b5060c980546001600160a01b03908116600090815260d56020526040808220805460ff191660011790559254925192909116917f784c8f4dbf0ffedd6e72c76501c545a70f8b203b30a26ce542bf92ba87c248a49190a250505050565b600054610100900460ff16610b9d5760005460ff1615610ba1565b303b155b610c045760405162461bcd60e51b815260206004820152602e60248201527f496e697469616c697a61626c653a20636f6e747261637420697320616c72656160448201526d191e481a5b9a5d1a585b1a5e995960921b60648201526084016106e4565b600054610100900460ff16158015610c26576000805461ffff19166101011790555b610c2e612e27565b610c36612e5e565b610c3e612e95565b60c980546001600160a01b0319166001600160a01b0385811691909117909155821615610c6b5781610c6d565b305b60d180546001600160a01b0319166001600160a01b03929092169190911790558015610c9f576000805461ff00191690555b505050565b60026097541415610cc75760405162461bcd60e51b81526004016106e490614377565b6002609755610cd63382612ec4565b33600090815260cc602090815260408083208151808301835281548082526001928301546001600160a01b031682860152855260d484528285208686529182019093529220600481015491929115610d405760405162461bcd60e51b81526004016106e490614274565b6003810154610d915760405162461bcd60e51b815260206004820152601a60248201527f4d6963726f6372656469743a204c6f616e2063616e63656c656400000000000060448201526064016106e4565b4281600301541015610de55760405162461bcd60e51b815260206004820152601960248201527f4d6963726f6372656469743a204c6f616e20657870697265640000000000000060448201526064016106e4565b4260048201556002810154670de0b6b3a764000090610e0690606490614495565b610e1890670de0b6b3a764000061447d565b8254610e2491906144b5565b610e2e9190614495565b6005820155426009820155600b8101548154610e53916001600160a01b0316906122f8565b600c8201819055600b820154610e76916001600160a01b03909116903390612fcd565b60405184815233907fba0cbe8ef8ef3c6984adc684d0c9b9a4d2d4c79b4678b63c38651fa48d21c62c9060200160405180910390a2505060016097555050565b60c9546000906001600160a01b0384811691161480610ed3575081155b15610edf5750806109fc565b6001600160a01b03808416600090815260d56020908152604080832060d95460c9548616808652600383018552948390205492519195169363cdca175393610f32938a9362ffffff909116929101614154565b604051602081830303815290604052856040518363ffffffff1660e01b8152600401610f5f9291906141ab565b602060405180830381600087803b158015610f7957600080fd5b505af1158015610f8d573d6000803e3d6000fd5b505050506040513d601f19601f82011682018060405250810190610fb191906140ef565b949350505050565b6000610a0e60cd612de6565b60006109fc60cf83612dda565b6033546001600160a01b03163314610ffc5760405162461bcd60e51b81526004016106e4906142b5565b6110066000613030565b565b61102c60405180606001604052806000815260200160008152602001600081525090565b6110368484612ec4565b6001600160a01b03808516600090815260cc602090815260408083208151808301835281548082526001928301549096168185015294845260d48352818420888552908101909252909120600781015485106110e05760405162461bcd60e51b8152602060048201526024808201527f4d6963726f6372656469743a2052657061796d656e7420646f65736e277420656044820152631e1a5cdd60e21b60648201526084016106e4565b6000858152600890910160209081526040918290208251606081018452815481526001820154928101929092526002015491810191909152925050505b9392505050565b61112f60cf33612df0565b61114b5760405162461bcd60e51b81526004016106e4906141e0565b82811461116a5760405162461bcd60e51b81526004016106e490614224565b60005b838110156111eb576111d985858381811061119857634e487b7160e01b600052603260045260246000fd5b90506020020160208101906111ad9190613b21565b8484848181106111cd57634e487b7160e01b600052603260045260246000fd5b90506020020135613082565b806111e38161452e565b91505061116d565b5050505050565b6111fd60cf33612df0565b6112195760405162461bcd60e51b81526004016106e4906141e0565b848381146112395760405162461bcd60e51b81526004016106e490614224565b8082146112585760405162461bcd60e51b81526004016106e490614224565b60005b8181101561152f576112c788888381811061128657634e487b7160e01b600052603260045260246000fd5b905060200201602081019061129b9190613b21565b8787848181106112bb57634e487b7160e01b600052603260045260246000fd5b90506020020135612ec4565b600060cc60008a8a858181106112ed57634e487b7160e01b600052603260045260246000fd5b90506020020160208101906113029190613b21565b6001600160a01b039081168252602080830193909352604091820160009081208351808501855281548082526001928301549094168187015292825260d4909452918220909350918201818a8a8781811061136d57634e487b7160e01b600052603260045260246000fd5b905060200201358152602001908152602001600020905080600401546000146113a85760405162461bcd60e51b81526004016106e490614274565b428787868181106113c957634e487b7160e01b600052603260045260246000fd5b90506020020135116113ed5760405162461bcd60e51b81526004016106e4906142ea565b86868581811061140d57634e487b7160e01b600052603260045260246000fd5b60200291909101356003830155508a8a8581811061143b57634e487b7160e01b600052603260045260246000fd5b90506020020160208101906114509190613b21565b6001600160a01b03167fdb20a2888067faf36d2f9c97dd3826224c5c16f269229a776c3bd87453c1f6af8a8a8781811061149a57634e487b7160e01b600052603260045260246000fd5b9050602002013583600101548a8a898181106114c657634e487b7160e01b600052603260045260246000fd5b9050602002013585600201548660050154876009015460405161151196959493929190958652602086019490945260408501929092526060840152608083015260a082015260c00190565b60405180910390a250505080806115279061452e565b91505061125b565b5050505050505050565b6033546001600160a01b031633146115635760405162461bcd60e51b81526004016106e4906142b5565b61156d8787612ec4565b6001600160a01b03808816600090815260cc602090815260408083208151808301835281548082526001928301549096168185015294845260d483528184208b8552908101909252909120600481015461162f5760405162461bcd60e51b815260206004820152603a60248201527f4d6963726f6372656469743a204c6f616e206973206e6f74206163746976652c60448201527f207573652063616e63656c206d6574686f6420696e737465616400000000000060648201526084016106e4565b8781600901541461169a5760405162461bcd60e51b815260206004820152602f60248201527f4d6963726f6372656469743a20546865207573657220686173206a757374206d60448201526e1859194818481c995c185e5b595b9d608a1b60648201526084016106e4565b806004015484101580156116ae5750428411155b61170b5760405162461bcd60e51b815260206004820152602860248201527f4d6963726f6372656469743a20496e76616c6964206e65774c617374436f6d70604482015267757465644461746560c01b60648201526084016106e4565b600181018790556002810186905560058101859055600981018490556003810154604080518b8152602081018a905290810191909152606081018790526080810186905260a081018590526001600160a01b038b16907fdb20a2888067faf36d2f9c97dd3826224c5c16f269229a776c3bd87453c1f6af9060c00160405180910390a250505050505050505050565b600260975414156117bd5760405162461bcd60e51b81526004016106e490614377565b60026097558061180f5760405162461bcd60e51b815260206004820152601b60248201527f4d6963726f6372656469743a20496e76616c696420616d6f756e74000000000060448201526064016106e4565b6118193383612ec4565b33600090815260cc602090815260408083208151808301835281548082526001928301546001600160a01b031682860152855260d48452828520878652918201909352922060048101549192916118b25760405162461bcd60e51b815260206004820152601d60248201527f4d6963726f6372656469743a204c6f616e206e6f7420636c61696d656400000060448201526064016106e4565b600081600501541161191f5760405162461bcd60e51b815260206004820152603060248201527f4d6963726f6372656469743a204c6f616e2068617320616c726561647920626560448201526f195b88199d5b1b1e481c995c185e595960821b60648201526084016106e4565b600061192a826131dc565b600b830154909150600090611948906001600160a01b031687610eb6565b9050808210156119705750600b820154819061196d906001600160a01b0316826122f8565b95505b8254600684015461198290839061447d565b116119be57600b8301546119a1906001600160a01b0316333089613276565b600a8301546119b9906001600160a01b0316826132ae565b611a86565b82546006840154106119eb5760d154600b8401546119b9916001600160a01b039182169133911689613276565b600683015483546000916119fe916144d4565b600b850154909150600090611a1c906001600160a01b0316836122f8565b600b860154909150611a39906001600160a01b0316333084613276565b60d154611a6b9033906001600160a01b0316611a55848c6144d4565b600b8901546001600160a01b0316929190613276565b600a850154611a83906001600160a01b0316836132ae565b50505b600783018054600081815260088601602052604081209290611aa78361452e565b90915550504281556001810182905560028101879055611ac782846144d4565b846005018190555081846006016000828254611ae3919061447d565b925050819055508684600d016000828254611afe919061447d565b909155505060098401546000906201518090611b1a90426144d4565b611b249190614495565b9050611b3381620151806144b5565b8560090154611b42919061447d565b60098601556005850154158015611b63575060d3546001600160a01b031615155b15611be55760d354855460068701546001600160a01b039092169163bc4643ee91611b8d916144d4565b6040516001600160e01b031960e084901b1681526004810191909152336024820152604401600060405180830381600087803b158015611bcc57600080fd5b505af1158015611be0573d6000803e3d6000fd5b505050505b6005850154604080518b8152602081018690529081019190915233907f36bd188317b9b3af98bbc5bfd88a0bccb96582fa2c955815ea9916dfeeb02d9e9060600160405180910390a25050600160975550505050505050565b6033546001600160a01b03163314611c685760405162461bcd60e51b81526004016106e4906142b5565b60d880546001600160a01b0319166001600160a01b0392909216919091179055565b6000610a0e60d6612de6565b611ca160cf33612df0565b611cbd5760405162461bcd60e51b81526004016106e4906141e0565b6000611cca60cf83612df0565b611d225760405162461bcd60e51b8152602060048201526024808201527f4d6963726f6372656469743a20696e76616c6964206d616e61676572206164646044820152637265737360e01b60648201526084016106e4565b5060005b8251811015610c9f57611d6a838281518110611d5257634e487b7160e01b600052603260045260246000fd5b602002602001015160cd612df090919063ffffffff16565b611dc45760405162461bcd60e51b815260206004820152602560248201527f4d6963726f6372656469743a20696e76616c696420626f72726f776572206164604482015264647265737360d81b60648201526084016106e4565b816001600160a01b0316838281518110611dee57634e487b7160e01b600052603260045260246000fd5b60200260200101516001600160a01b03167f605c2dbf762e5f7d60a546d42e7205dcb1b011ebc62a61736a57c9089d3a435060405160405180910390a380611e358161452e565b915050611d26565b60026097541415611e605760405162461bcd60e51b81526004016106e490614377565b60026097556033546001600160a01b03163314611e8f5760405162461bcd60e51b81526004016106e4906142b5565b611ea36001600160a01b0384168383612fcd565b5050600160975550565b6033546001600160a01b03163314611ed75760405162461bcd60e51b81526004016106e4906142b5565b828114611ef65760405162461bcd60e51b81526004016106e490614224565b611f0160d686612e12565b506001600160a01b03808616600081815260d560205260409020805460ff1916600117815560c9549092161415611fa35783158015611f3e575081155b611f9e5760405162461bcd60e51b815260206004820152602b60248201527f4d6963726f6372656469743a20635553442063616e277420686176652065786360448201526a68616e6765546f6b656e7360a81b60648201526084016106e4565b612263565b600184148015611ff9575060c9546001600160a01b03168585600081611fd957634e487b7160e01b600052603260045260246000fd5b9050602002016020810190611fee9190613b21565b6001600160a01b0316145b6120775760405162461bcd60e51b815260206004820152604360248201527f4d6963726f6372656469743a20466f7220746865206d6f6d656e742c206a757360448201527f7420635553442069732061636365707465642061732065786368616e6765546f60648201526235b2b760e91b608482015260a4016106e4565b8160005b818110156121e3578484828181106120a357634e487b7160e01b600052603260045260246000fd5b90506020020160208101906120b891906140b4565b8360030160008989858181106120de57634e487b7160e01b600052603260045260246000fd5b90506020020160208101906120f39190613b21565b6001600160a01b031681526020810191909152604001600020805462ffffff191662ffffff9290921691909117905561216487878381811061214557634e487b7160e01b600052603260045260246000fd5b905060200201602081019061215a9190613b21565b6001850190612e12565b50600061217989670de0b6b3a7640000610eb6565b116121d15760405162461bcd60e51b815260206004820152602260248201527f4d6963726f6372656469743a20696e76616c69642065786368616e6765546f6b60448201526132b760f11b60648201526084016106e4565b806121db8161452e565b91505061207b565b5060c9546121fe9060018401906001600160a01b0316612df0565b6122615760405162461bcd60e51b815260206004820152602e60248201527f4d6963726f6372656469743a2065786368616e6765546f6b656e20746f20635560448201526d14d1081b5d5cdd081899481cd95d60921b60648201526084016106e4565b505b6040516001600160a01b038716907f784c8f4dbf0ffedd6e72c76501c545a70f8b203b30a26ce542bf92ba87c248a490600090a2505050505050565b60006109fc60cd83612dda565b6033546001600160a01b031633146122d65760405162461bcd60e51b81526004016106e4906142b5565b60d380546001600160a01b0319166001600160a01b0392909216919091179055565b60c9546000906001600160a01b0384811691161480612315575081155b156123215750806109fc565b6001600160a01b03808416600090815260d56020908152604080832060d95460c95486168086526003830185529483902054925191951693632f80bb1d93610f3293919262ffffff909216918a9101614154565b6124076040518061020001604052806000815260200160008152602001600081526020016000815260200160008152602001600081526020016000815260200160008152602001600081526020016000815260200160006001600160a01b0316815260200160006001600160a01b03168152602001600081526020016000815260200160008152602001600081525090565b6124118383612ec4565b6001600160a01b03808416600090815260cc602090815260408083208151808301835281548082526001928301549096168185015294845260d4835281842087855281018352928190208054865292830154918501919091526002820154908401526003810154606084015260048101546080840152600581015460c084015261249a816131dc565b60a0840152600681015460e084015260078101546101008401526009810154610120840152600a8101546001600160a01b03908116610140850152600b82015416610160840152600c81015461250957600b8101548154612504916001600160a01b0316906122f8565b61250f565b80600c01545b610180840152600d8101546101a0840152600b81015460c084015161253d916001600160a01b0316906122f8565b6101c0840152600b81015460a0840151612560916001600160a01b0316906122f8565b6101e084015250909392505050565b6033546001600160a01b031633146125995760405162461bcd60e51b81526004016106e4906142b5565b8260005b8181101561270f576125e58686838181106125c857634e487b7160e01b600052603260045260246000fd5b90506020020160208101906125dd9190613b21565b60cf90612e12565b5083838281811061260657634e487b7160e01b600052603260045260246000fd5b9050602002013560d2600088888581811061263157634e487b7160e01b600052603260045260246000fd5b90506020020160208101906126469190613b21565b6001600160a01b0316815260208101919091526040016000205585858281811061268057634e487b7160e01b600052603260045260246000fd5b90506020020160208101906126959190613b21565b6001600160a01b03167ffae05d1286e3d4cd0db21fce06a66beb75ec586eb923fc0fcc332e69d7ad2e2f8585848181106126df57634e487b7160e01b600052603260045260246000fd5b905060200201356040516126f591815260200190565b60405180910390a2806127078161452e565b91505061259d565b505050505050565b61272260cf33612df0565b61273e5760405162461bcd60e51b81526004016106e4906141e0565b6001600160a01b038216600090815260cc60205260409020805415801590612771575060018101546001600160a01b0316155b6127cc5760405162461bcd60e51b815260206004820152602660248201527f4d6963726f6372656469743a205468697320757365722063616e6e6f74206265604482015265081b5bdd995960d21b60648201526084016106e4565b6001600160a01b038216600090815260cc602052604090208054156128495760405162461bcd60e51b815260206004820152602d60248201527f4d6963726f6372656469743a205461726765742077616c6c657420616464726560448201526c1cdcc81a5cc81a5b9d985b1a59609a1b60648201526084016106e4565b6001820180546001600160a01b0319166001600160a01b0385161790558154815561287560cd84612e12565b50826001600160a01b0316846001600160a01b03167ffe697da51e9b8089b3ac92361b06886b93f48f935848aa4da1148c15b262840a60405160405180910390a350505050565b6033546001600160a01b031633146128e65760405162461bcd60e51b81526004016106e4906142b5565b8481146129055760405162461bcd60e51b81526004016106e490614224565b60005b85811015612a3c57600060cc600089898581811061293657634e487b7160e01b600052603260045260246000fd5b905060200201602081019061294b9190613b21565b6001600160a01b039081168252602080830193909352604091820160002082518084019093528054835260010154169181019190915290508383838181106129a357634e487b7160e01b600052603260045260246000fd5b90506020020160208101906129b89190613b21565b8151600090815260d460205260408120600101908888868181106129ec57634e487b7160e01b600052603260045260246000fd5b905060200201358152602001908152602001600020600a0160006101000a8154816001600160a01b0302191690836001600160a01b03160217905550508080612a349061452e565b915050612908565b50505050505050565b612a5060cf33612df0565b612a6c5760405162461bcd60e51b81526004016106e4906141e0565b61270f868686868686613303565b6033546001600160a01b03163314612aa45760405162461bcd60e51b81526004016106e4906142b5565b6001600160a01b038116612b095760405162461bcd60e51b815260206004820152602660248201527f4f776e61626c653a206e6577206f776e657220697320746865207a65726f206160448201526564647265737360d01b60648201526084016106e4565b612b1281613030565b50565b6033546001600160a01b03163314612b3f5760405162461bcd60e51b81526004016106e4906142b5565b6001600160a01b038116612ba55760405162461bcd60e51b815260206004820152602760248201527f4d6963726f6372656469743a20726576656e756541646472657373206d757374604482015266081899481cd95d60ca1b60648201526084016106e4565b60d180546001600160a01b0319166001600160a01b0392909216919091179055565b612bd260cf33612df0565b612bee5760405162461bcd60e51b81526004016106e4906141e0565b8a898114612c0e5760405162461bcd60e51b81526004016106e490614224565b808814612c2d5760405162461bcd60e51b81526004016106e490614224565b808614612c4c5760405162461bcd60e51b81526004016106e490614224565b808414612c6b5760405162461bcd60e51b81526004016106e490614224565b808214612c8a5760405162461bcd60e51b81526004016106e490614224565b60005b81811015612db557612da38e8e83818110612cb857634e487b7160e01b600052603260045260246000fd5b9050602002016020810190612ccd9190613b21565b8d8d84818110612ced57634e487b7160e01b600052603260045260246000fd5b9050602002016020810190612d029190613b21565b8c8c85818110612d2257634e487b7160e01b600052603260045260246000fd5b905060200201358b8b86818110612d4957634e487b7160e01b600052603260045260246000fd5b905060200201358a8a87818110612d7057634e487b7160e01b600052603260045260246000fd5b90506020020135898988818110612d9757634e487b7160e01b600052603260045260246000fd5b90506020020135613303565b80612dad8161452e565b915050612c8d565b5050505050505050505050505050565b600061111d836001600160a01b03841661368e565b600061111d83836137ab565b60006109fc825490565b6001600160a01b0381166000908152600183016020526040812054151561111d565b600061111d836001600160a01b0384166137e3565b600054610100900460ff16612e4e5760405162461bcd60e51b81526004016106e49061432c565b612e56613832565b611006613859565b600054610100900460ff16612e855760405162461bcd60e51b81526004016106e49061432c565b612e8d613832565b611006613889565b600054610100900460ff16612ebc5760405162461bcd60e51b81526004016106e49061432c565b6110066138bc565b6001600160a01b03808316600090815260cc602090815260409182902082518084019093528054808452600190910154909316908201529015801590612f15575060208101516001600160a01b0316155b612f6d5760405162461bcd60e51b815260206004820152602360248201527f4d6963726f6372656469743a20496e76616c69642077616c6c6574206164647260448201526265737360e81b60648201526084016106e4565b8051600090815260d460205260409020805483106109095760405162461bcd60e51b815260206004820152601f60248201527f4d6963726f6372656469743a204c6f616e20646f65736e27742065786973740060448201526064016106e4565b6040516001600160a01b038316602482015260448101829052610c9f90849063a9059cbb60e01b906064015b60408051601f198184030181529190526020810180516001600160e01b03166001600160e01b0319909316929092179091526138ea565b603380546001600160a01b038381166001600160a01b0319831681179093556040519116919082907f8be0079c531659141344cd1fd0a4f28419497f9722a3daafe3b4186f6b6457e090600090a35050565b61308c8282612ec4565b6001600160a01b03808316600090815260cc602090815260408083208151808301835281548082526001928301549096168185015294845260d483528184208685529081019092529091206004810154156130f95760405162461bcd60e51b81526004016106e490614274565b60038101546131555760405162461bcd60e51b815260206004820152602260248201527f4d6963726f6372656469743a204c6f616e20616c72656164792063616e63656c604482015261195960f21b60648201526084016106e4565b600060038201819055600a8201546001600160a01b0316815260d2602052604081208254600182018054929391929091906131919084906144d4565b90915550506040518581526001600160a01b038716907f2f0f5933c0b9b1d9fee69327e7789ce07ef1be486122748fc2a079742067a8089060200160405180910390a2505050505050565b60008160050154600014156131f357506000919050565b60006201518083600901544261320991906144d4565b6132139190614495565b60058401549091505b811561111d57670de0b6b3a76400006064856002015461323c9190614495565b61324e90670de0b6b3a764000061447d565b61325890836144b5565b6132629190614495565b90508161326e81614517565b92505061321c565b6040516001600160a01b03808516602483015283166044820152606481018290526109099085906323b872dd60e01b90608401612ff9565b6001600160a01b038216600081815260d2602052604090209015610c9f5781816001015411156132f757818160010160008282546132ec91906144d4565b90915550610c9f9050565b60006001820155505050565b6001600160a01b038516600090815260d5602052604090205460ff1615156001146133705760405162461bcd60e51b815260206004820152601a60248201527f4d6963726f6372656469743a20696e76616c696420746f6b656e00000000000060448201526064016106e4565b42811161338f5760405162461bcd60e51b81526004016106e4906142ea565b6001600160a01b03808716600090815260cc602052604090206001810154909116156134095760405162461bcd60e51b8152602060048201526024808201527f4d6963726f6372656469743a20546865207573657220686173206265656e206d6044820152631bdd995960e21b60648201526084016106e4565b33600090815260d2602052604090208054600182015461342a90889061447d565b11156134a95760405162461bcd60e51b815260206004820152604260248201527f4d6963726f6372656469743a204d616e6167657220646f6e277420686176652060448201527f656e6f7567682066756e647320746f20626f72726f77207468697320616d6f756064820152611b9d60f21b608482015260a4016106e4565b81546134d65760ca80549060006134bf8361452e565b909155505060ca5482556134d460cd89612e12565b505b8154600090815260d4602052604090208054801561359d57600082600101600060018461350391906144d4565b815260200190815260200160002090506000816004015411801561352957506005810154155b8061353657506003810154155b61359b5760405162461bcd60e51b815260206004820152603060248201527f4d6963726f6372656469743a20546865207573657220616c726561647920686160448201526f399030b71030b1ba34bb32903637b0b760811b60648201526084016106e4565b505b600081815260018301602052604081208354909184906135bc8361452e565b9091555050600b810180546001600160a01b038c166001600160a01b03199182161790915589825560018083018a90556002830189905560038301889055600a830180549092163317909155840180548a919060009061361d90849061447d565b909155505060408051838152602081018b905290810189905260608101889052608081018790526001600160a01b03808c1691908d16907fed40ee432e5ffa2f69dfc2b8c7a11d8182b1ed55bc1c557d71af8e38108d8d919060a00160405180910390a35050505050505050505050565b600081815260018301602052604081205480156137a15760006136b26001836144d4565b85549091506000906136c6906001906144d4565b90508181146137475760008660000182815481106136f457634e487b7160e01b600052603260045260246000fd5b906000526020600020015490508087600001848154811061372557634e487b7160e01b600052603260045260246000fd5b6000918252602080832090910192909255918252600188019052604090208390555b855486908061376657634e487b7160e01b600052603160045260246000fd5b6001900381819060005260206000200160009055905585600101600086815260200190815260200160002060009055600193505050506109fc565b60009150506109fc565b60008260000182815481106137d057634e487b7160e01b600052603260045260246000fd5b9060005260206000200154905092915050565b600081815260018301602052604081205461382a575081546001818101845560008481526020808220909301849055845484825282860190935260409020919091556109fc565b5060006109fc565b600054610100900460ff166110065760405162461bcd60e51b81526004016106e49061432c565b600054610100900460ff166138805760405162461bcd60e51b81526004016106e49061432c565b61100633613030565b600054610100900460ff166138b05760405162461bcd60e51b81526004016106e49061432c565b6065805460ff19169055565b600054610100900460ff166138e35760405162461bcd60e51b81526004016106e49061432c565b6001609755565b600061393f826040518060400160405280602081526020017f5361666545524332303a206c6f772d6c6576656c2063616c6c206661696c6564815250856001600160a01b03166139bc9092919063ffffffff16565b805190915015610c9f578080602001905181019061395d9190614054565b610c9f5760405162461bcd60e51b815260206004820152602a60248201527f5361666545524332303a204552433230206f7065726174696f6e20646964206e6044820152691bdd081cdd58d8d9595960b21b60648201526084016106e4565b6060610fb1848460008585843b613a155760405162461bcd60e51b815260206004820152601d60248201527f416464726573733a2063616c6c20746f206e6f6e2d636f6e747261637400000060448201526064016106e4565b600080866001600160a01b03168587604051613a31919061418f565b60006040518083038185875af1925050503d8060008114613a6e576040519150601f19603f3d011682016040523d82523d6000602084013e613a73565b606091505b5091509150613a83828286613a8e565b979650505050505050565b60608315613a9d57508161111d565b825115613aad5782518084602001fd5b8160405162461bcd60e51b81526004016106e491906141cd565b8035613ad281614575565b919050565b60008083601f840112613ae8578081fd5b50813567ffffffffffffffff811115613aff578182fd5b6020830191508360208260051b8501011115613b1a57600080fd5b9250929050565b600060208284031215613b32578081fd5b813561111d81614575565b60008060408385031215613b4f578081fd5b8235613b5a81614575565b91506020830135613b6a81614575565b809150509250929050565b60008060008060008060c08789031215613b8d578182fd5b8635613b9881614575565b95506020870135613ba881614575565b95989597505050506040840135936060810135936080820135935060a0909101359150565b600080600080600060608688031215613be4578081fd5b8535613bef81614575565b9450602086013567ffffffffffffffff80821115613c0b578283fd5b613c1789838a01613ad7565b90965094506040880135915080821115613c2f578283fd5b50613c3c88828901613ad7565b969995985093965092949392505050565b60008060408385031215613c5f578182fd5b8235613c6a81614575565b946020939093013593505050565b600080600060608486031215613c8c578283fd5b8335613c9781614575565b95602085013595506040909401359392505050565b600080600080600080600060e0888a031215613cc6578081fd5b8735613cd181614575565b9960208901359950604089013598606081013598506080810135975060a0810135965060c00135945092505050565b60008060208385031215613d12578081fd5b823567ffffffffffffffff811115613d28578182fd5b613d3485828601613ad7565b90969095509350505050565b60008060008060008060008060008060008060c08d8f031215613d61578586fd5b67ffffffffffffffff8d351115613d76578586fd5b613d838e8e358f01613ad7565b909c509a5067ffffffffffffffff60208e01351115613da0578586fd5b613db08e60208f01358f01613ad7565b909a50985067ffffffffffffffff60408e01351115613dcd578586fd5b613ddd8e60408f01358f01613ad7565b909850965067ffffffffffffffff60608e01351115613dfa578586fd5b613e0a8e60608f01358f01613ad7565b909650945067ffffffffffffffff60808e01351115613e27578384fd5b613e378e60808f01358f01613ad7565b909450925067ffffffffffffffff60a08e01351115613e54578081fd5b613e648e60a08f01358f01613ad7565b81935080925050509295989b509295989b509295989b565b60008060008060408587031215613e91578182fd5b843567ffffffffffffffff80821115613ea8578384fd5b613eb488838901613ad7565b90965094506020870135915080821115613ecc578384fd5b50613ed987828801613ad7565b95989497509550505050565b60008060008060008060608789031215613efd578384fd5b863567ffffffffffffffff80821115613f14578586fd5b613f208a838b01613ad7565b90985096506020890135915080821115613f38578586fd5b613f448a838b01613ad7565b90965094506040890135915080821115613f5c578384fd5b50613f6989828a01613ad7565b979a9699509497509295939492505050565b60008060408385031215613f8d578182fd5b823567ffffffffffffffff80821115613fa4578384fd5b818501915085601f830112613fb7578384fd5b8135602082821115613fcb57613fcb61455f565b8160051b604051601f19603f83011681018181108682111715613ff057613ff061455f565b604052838152828101945085830182870184018b101561400e578889fd5b8896505b848710156140375761402381613ac7565b865260019690960195948301948301614012565b5096506140479050878201613ac7565b9450505050509250929050565b600060208284031215614065578081fd5b8151801515811461111d578182fd5b600080600060608486031215614088578081fd5b833561409381614575565b925060208401356140a381614575565b929592945050506040919091013590565b6000602082840312156140c5578081fd5b813562ffffff8116811461111d578182fd5b6000602082840312156140e8578081fd5b5035919050565b600060208284031215614100578081fd5b5051919050565b60008060408385031215614119578182fd5b50508035926020909101359150565b600081518084526141408160208601602086016144eb565b601f01601f19169290920160200192915050565b606093841b6bffffffffffffffffffffffff19908116825260e89390931b6001600160e81b0319166014820152921b166017820152602b0190565b600082516141a18184602087016144eb565b9190910192915050565b6040815260006141be6040830185614128565b90508260208301529392505050565b60208152600061111d6020830184614128565b60208082526024908201527f4d6963726f6372656469743a2063616c6c6572206973206e6f742061206d616e60408201526330b3b2b960e11b606082015260800190565b60208082526030908201527f4d6963726f6372656469743a2063616c6c6461746120696e666f726d6174696f60408201526f0dc40c2e4d2e8f240dad2e6dac2e8c6d60831b606082015260800190565b60208082526021908201527f4d6963726f6372656469743a204c6f616e20616c726561647920636c61696d656040820152601960fa1b606082015260800190565b6020808252818101527f4f776e61626c653a2063616c6c6572206973206e6f7420746865206f776e6572604082015260600190565b60208082526022908201527f4d6963726f6372656469743a20696e76616c696420636c61696d446561646c696040820152616e6560f01b606082015260800190565b6020808252602b908201527f496e697469616c697a61626c653a20636f6e7472616374206973206e6f74206960408201526a6e697469616c697a696e6760a81b606082015260800190565b6020808252601f908201527f5265656e7472616e637947756172643a207265656e7472616e742063616c6c00604082015260600190565b600061020082019050825182526020830151602083015260408301516040830152606083015160608301526080830151608083015260a083015160a083015260c083015160c083015260e083015160e083015261010080840151818401525061012080840151818401525061014080840151614434828501826001600160a01b03169052565b5050610160838101516001600160a01b03169083015261018080840151908301526101a080840151908301526101c080840151908301526101e092830151929091019190915290565b6000821982111561449057614490614549565b500190565b6000826144b057634e487b7160e01b81526012600452602481fd5b500490565b60008160001904831182151516156144cf576144cf614549565b500290565b6000828210156144e6576144e6614549565b500390565b60005b838110156145065781810151838201526020016144ee565b838111156109095750506000910152565b60008161452657614526614549565b506000190190565b600060001982141561454257614542614549565b5060010190565b634e487b7160e01b600052601160045260246000fd5b634e487b7160e01b600052604160045260246000fd5b6001600160a01b0381168114612b1257600080fdfea2646970667358221220c5aa82110947c6611ff918318fbea5711c4ec276300553bbf0bd97af8088924064736f6c63430008040033",
  "devdoc": {
    "events": {
      "ManagerChanged(address,address)": {
        "params": {
          "borrowerAddress": "The address of the borrower",
          "managerAddress": "The address of the new manager"
        }
      }
    },
    "kind": "dev",
    "methods": {
      "addLoan(address,address,uint256,uint256,uint256,uint256)": {
        "params": {
          "_amount": "amount of the loan",
          "_claimDeadline": "claim deadline of the loan",
          "_dailyInterest": "daily interest of the loan",
          "_period": "period of the loan",
          "_tokenAddress": "address of the token",
          "_userAddress": "address of the user"
        }
      },
      "addLoans(address[],address[],uint256[],uint256[],uint256[],uint256[])": {
        "params": {
          "_amounts": "amounts of the loan",
          "_claimDeadlines": "claim deadlines of the loan",
          "_dailyInterests": "daily interests of the loan",
          "_periods": "periods of the loan",
          "_tokenAddresses": "addresses of the tokens",
          "_userAddresses": "addresses of the user"
        }
      },
      "addManagers(address[],uint256[])": {
        "params": {
          "_managerAddresses": "addresses of the managers"
        }
      },
      "addToken(address,address[],uint24[])": {
        "params": {
          "_tokenAddress": "address of the token to be added"
        }
      },
      "cancelLoans(address[],uint256[])": {
        "params": {
          "_loansIds": "Loan ids",
          "_userAddresses": "User addresses"
        }
      },
      "changeManager(address[],address)": {
        "details": "This method doesn't change anything on the contract state, it just emits events to be used by the off-chain system",
        "params": {
          "_borrowerAddresses": "address of the borrowers",
          "_managerAddress": "address of the new manager"
        }
      },
      "changeUserAddress(address,address)": {
        "params": {
          "_newWalletAddress": "New wallet address",
          "_oldWalletAddress": "Old wallet address"
        }
      },
      "claimLoan(uint256)": {
        "params": {
          "_loanId": "Loan ID"
        }
      },
      "editLoan(address,uint256,uint256,uint256,uint256,uint256,uint256)": {
        "params": {
          "_currentLastComputedDate": "used as a control mechanism - if this value doesn't match the loan current lastComputedDate, it means that the user has made a repayment in the mean time so this call is not valid any more"
        }
      },
      "editLoanClaimDeadlines(address[],uint256[],uint256[])": {
        "params": {
          "_loanIds": "id of the loans",
          "_newClaimDeadlines": "new claim deadlines of the loan",
          "_userAddresses": "addresses of the user"
        }
      },
      "inactivateToken(address)": {
        "params": {
          "_tokenAddress": "address of the token to be added"
        }
      },
      "initialize(address,address)": {
        "params": {
          "_cUSDAddress": "The address of the cUSD token",
          "_revenueAddress": "The address that collects all the interest"
        }
      },
      "managerListAt(uint256)": {
        "params": {
          "_index": "index value"
        },
        "returns": {
          "_0": "address of the manager"
        }
      },
      "owner()": {
        "details": "Returns the address of the current owner."
      },
      "paused()": {
        "details": "Returns true if the contract is paused, and false otherwise."
      },
      "removeManagers(address[])": {
        "params": {
          "_managerAddresses": "addresses of the managers"
        }
      },
      "renounceOwnership()": {
        "details": "Leaves the contract without owner. It will not be possible to call `onlyOwner` functions anymore. Can only be called by the current owner. NOTE: Renouncing ownership will leave the contract without an owner, thereby removing any functionality that is only available to the owner."
      },
      "repayLoan(uint256,uint256)": {
        "params": {
          "_loanId": "Loan ID",
          "_tokenRepaymentAmount": "Repayment amount"
        }
      },
      "tokenListAt(uint256)": {
        "params": {
          "_index": "index value"
        },
        "returns": {
          "_0": "address of the token"
        }
      },
      "transferERC20(address,address,uint256)": {
        "params": {
          "_amount": "amount of the transaction",
          "_to": "address of the receiver",
          "_token": "address of the ERC20 token"
        }
      },
      "transferOwnership(address)": {
        "details": "Transfers ownership of the contract to a new account (`newOwner`). Can only be called by the current owner."
      },
      "walletListAt(uint256)": {
        "params": {
          "_index": "index value"
        },
        "returns": {
          "_0": "address of the user"
        }
      },
      "walletMetadata(address)": {
        "params": {
          "_userAddress": "address of the user"
        },
        "returns": {
          "loansLength": "          the number of the user's loans",
          "movedTo": "              the number of the user's loans",
          "userId": "               the userId"
        }
      }
    },
    "version": 1
  },
  "userdoc": {
    "events": {
      "ManagerChanged(address,address)": {
        "notice": "Triggered when a borrower's manager has been changed"
      }
    },
    "kind": "user",
    "methods": {
      "addLoan(address,address,uint256,uint256,uint256,uint256)": {
        "notice": "Adds a loan"
      },
      "addLoans(address[],address[],uint256[],uint256[],uint256[],uint256[])": {
        "notice": "Adds multiples loans"
      },
      "addManagers(address[],uint256[])": {
        "notice": "Adds managers"
      },
      "addToken(address,address[],uint24[])": {
        "notice": "Adds a new token"
      },
      "cancelLoans(address[],uint256[])": {
        "notice": "Cancel a loan"
      },
      "changeManager(address[],address)": {
        "notice": "Changes the borrowers manager address"
      },
      "changeUserAddress(address,address)": {
        "notice": "Change user address"
      },
      "claimLoan(uint256)": {
        "notice": "Claim a loan"
      },
      "editLoan(address,uint256,uint256,uint256,uint256,uint256,uint256)": {
        "notice": "Used by owner to fix when an active loan has wrong params"
      },
      "editLoanClaimDeadlines(address[],uint256[],uint256[])": {
        "notice": "Edits multiples loans claim deadline"
      },
      "getVersion()": {
        "notice": "Returns the current implementation version"
      },
      "inactivateToken(address)": {
        "notice": "Adds a new token"
      },
      "initialize(address,address)": {
        "notice": "Used to initialize the Microcredit contract"
      },
      "managerListAt(uint256)": {
        "notice": "Returns an address from the managerList"
      },
      "managerListLength()": {
        "notice": "Returns the length of the managerList"
      },
      "removeManagers(address[])": {
        "notice": "Removes managers"
      },
      "repayLoan(uint256,uint256)": {
        "notice": "Repay a loan"
      },
      "tokenListAt(uint256)": {
        "notice": "Returns an address from the tokenList"
      },
      "tokenListLength()": {
        "notice": "Returns the length of the tokenList"
      },
      "transferERC20(address,address,uint256)": {
        "notice": "Transfers an amount of an ERC20 from this contract to an address"
      },
      "walletListAt(uint256)": {
        "notice": "Returns an address from the walletList"
      },
      "walletListLength()": {
        "notice": "Returns the length of the walletList"
      },
      "walletMetadata(address)": {
        "notice": "Returns the information of a user"
      }
    },
    "version": 1
  },
  "storageLayout": {
    "storage": [
      {
        "astId": 542,
        "contract": "contracts/microcredit/MicrocreditImplementation.sol:MicrocreditImplementation",
        "label": "_initialized",
        "offset": 0,
        "slot": "0",
        "type": "t_bool"
      },
      {
        "astId": 545,
        "contract": "contracts/microcredit/MicrocreditImplementation.sol:MicrocreditImplementation",
        "label": "_initializing",
        "offset": 1,
        "slot": "0",
        "type": "t_bool"
      },
      {
        "astId": 1370,
        "contract": "contracts/microcredit/MicrocreditImplementation.sol:MicrocreditImplementation",
        "label": "__gap",
        "offset": 0,
        "slot": "1",
        "type": "t_array(t_uint256)50_storage"
      },
      {
        "astId": 420,
        "contract": "contracts/microcredit/MicrocreditImplementation.sol:MicrocreditImplementation",
        "label": "_owner",
        "offset": 0,
        "slot": "51",
        "type": "t_address"
      },
      {
        "astId": 534,
        "contract": "contracts/microcredit/MicrocreditImplementation.sol:MicrocreditImplementation",
        "label": "__gap",
        "offset": 0,
        "slot": "52",
        "type": "t_array(t_uint256)49_storage"
      },
      {
        "astId": 630,
        "contract": "contracts/microcredit/MicrocreditImplementation.sol:MicrocreditImplementation",
        "label": "_paused",
        "offset": 0,
        "slot": "101",
        "type": "t_bool"
      },
      {
        "astId": 721,
        "contract": "contracts/microcredit/MicrocreditImplementation.sol:MicrocreditImplementation",
        "label": "__gap",
        "offset": 0,
        "slot": "102",
        "type": "t_array(t_uint256)49_storage"
      },
      {
        "astId": 736,
        "contract": "contracts/microcredit/MicrocreditImplementation.sol:MicrocreditImplementation",
        "label": "_status",
        "offset": 0,
        "slot": "151",
        "type": "t_uint256"
      },
      {
        "astId": 779,
        "contract": "contracts/microcredit/MicrocreditImplementation.sol:MicrocreditImplementation",
        "label": "__gap",
        "offset": 0,
        "slot": "152",
        "type": "t_array(t_uint256)49_storage"
      },
      {
        "astId": 26963,
        "contract": "contracts/microcredit/MicrocreditImplementation.sol:MicrocreditImplementation",
        "label": "cUSD",
        "offset": 0,
        "slot": "201",
        "type": "t_contract(IERC20Upgradeable)858"
      },
      {
        "astId": 26965,
        "contract": "contracts/microcredit/MicrocreditImplementation.sol:MicrocreditImplementation",
        "label": "_usersLength",
        "offset": 0,
        "slot": "202",
        "type": "t_uint256"
      },
      {
        "astId": 26970,
        "contract": "contracts/microcredit/MicrocreditImplementation.sol:MicrocreditImplementation",
        "label": "_usersOld",
        "offset": 0,
        "slot": "203",
        "type": "t_mapping(t_uint256,t_struct(UserOld)26537_storage)"
      },
      {
        "astId": 26975,
        "contract": "contracts/microcredit/MicrocreditImplementation.sol:MicrocreditImplementation",
        "label": "_walletMetadata",
        "offset": 0,
        "slot": "204",
        "type": "t_mapping(t_address,t_struct(WalletMetadata)26563_storage)"
      },
      {
        "astId": 26978,
        "contract": "contracts/microcredit/MicrocreditImplementation.sol:MicrocreditImplementation",
        "label": "_walletList",
        "offset": 0,
        "slot": "205",
        "type": "t_struct(AddressSet)5505_storage"
      },
      {
        "astId": 26981,
        "contract": "contracts/microcredit/MicrocreditImplementation.sol:MicrocreditImplementation",
        "label": "_managerList",
        "offset": 0,
        "slot": "207",
        "type": "t_struct(AddressSet)5505_storage"
      },
      {
        "astId": 26984,
        "contract": "contracts/microcredit/MicrocreditImplementation.sol:MicrocreditImplementation",
        "label": "revenueAddress",
        "offset": 0,
        "slot": "209",
        "type": "t_address"
      },
      {
        "astId": 26989,
        "contract": "contracts/microcredit/MicrocreditImplementation.sol:MicrocreditImplementation",
        "label": "_managers",
        "offset": 0,
        "slot": "210",
        "type": "t_mapping(t_address,t_struct(Manager)26576_storage)"
      },
      {
        "astId": 26993,
        "contract": "contracts/microcredit/MicrocreditImplementation.sol:MicrocreditImplementation",
        "label": "donationMiner",
        "offset": 0,
        "slot": "211",
        "type": "t_contract(IDonationMiner)18572"
      },
      {
        "astId": 26998,
        "contract": "contracts/microcredit/MicrocreditImplementation.sol:MicrocreditImplementation",
        "label": "_users",
        "offset": 0,
        "slot": "212",
        "type": "t_mapping(t_uint256,t_struct(User)26571_storage)"
      },
      {
        "astId": 27003,
        "contract": "contracts/microcredit/MicrocreditImplementation.sol:MicrocreditImplementation",
        "label": "_tokens",
        "offset": 0,
        "slot": "213",
        "type": "t_mapping(t_address,t_struct(Token)26625_storage)"
      },
      {
        "astId": 27006,
        "contract": "contracts/microcredit/MicrocreditImplementation.sol:MicrocreditImplementation",
        "label": "_tokenList",
        "offset": 0,
        "slot": "214",
        "type": "t_struct(AddressSet)5505_storage"
      },
      {
        "astId": 27010,
        "contract": "contracts/microcredit/MicrocreditImplementation.sol:MicrocreditImplementation",
        "label": "uniswapRouter",
        "offset": 0,
        "slot": "216",
        "type": "t_contract(IUniswapRouter02)19960"
      },
      {
        "astId": 27014,
        "contract": "contracts/microcredit/MicrocreditImplementation.sol:MicrocreditImplementation",
        "label": "uniswapQuoter",
        "offset": 0,
        "slot": "217",
        "type": "t_contract(IQuoter)19914"
      }
    ],
    "types": {
      "t_address": {
        "encoding": "inplace",
        "label": "address",
        "numberOfBytes": "20"
      },
      "t_array(t_bytes32)dyn_storage": {
        "base": "t_bytes32",
        "encoding": "dynamic_array",
        "label": "bytes32[]",
        "numberOfBytes": "32"
      },
      "t_array(t_struct(LoanOld)26558_storage)dyn_storage": {
        "base": "t_struct(LoanOld)26558_storage",
        "encoding": "dynamic_array",
        "label": "struct IMicrocredit.LoanOld[]",
        "numberOfBytes": "32"
      },
      "t_array(t_struct(Repayment)26583_storage)dyn_storage": {
        "base": "t_struct(Repayment)26583_storage",
        "encoding": "dynamic_array",
        "label": "struct IMicrocredit.Repayment[]",
        "numberOfBytes": "32"
      },
      "t_array(t_uint256)49_storage": {
        "base": "t_uint256",
        "encoding": "inplace",
        "label": "uint256[49]",
        "numberOfBytes": "1568"
      },
      "t_array(t_uint256)50_storage": {
        "base": "t_uint256",
        "encoding": "inplace",
        "label": "uint256[50]",
        "numberOfBytes": "1600"
      },
      "t_bool": {
        "encoding": "inplace",
        "label": "bool",
        "numberOfBytes": "1"
      },
      "t_bytes32": {
        "encoding": "inplace",
        "label": "bytes32",
        "numberOfBytes": "32"
      },
      "t_contract(IDonationMiner)18572": {
        "encoding": "inplace",
        "label": "contract IDonationMiner",
        "numberOfBytes": "20"
      },
      "t_contract(IERC20Upgradeable)858": {
        "encoding": "inplace",
        "label": "contract IERC20Upgradeable",
        "numberOfBytes": "20"
      },
      "t_contract(IQuoter)19914": {
        "encoding": "inplace",
        "label": "contract IQuoter",
        "numberOfBytes": "20"
      },
      "t_contract(IUniswapRouter02)19960": {
        "encoding": "inplace",
        "label": "contract IUniswapRouter02",
        "numberOfBytes": "20"
      },
      "t_mapping(t_address,t_struct(Manager)26576_storage)": {
        "encoding": "mapping",
        "key": "t_address",
        "label": "mapping(address => struct IMicrocredit.Manager)",
        "numberOfBytes": "32",
        "value": "t_struct(Manager)26576_storage"
      },
      "t_mapping(t_address,t_struct(Token)26625_storage)": {
        "encoding": "mapping",
        "key": "t_address",
        "label": "mapping(address => struct IMicrocredit.Token)",
        "numberOfBytes": "32",
        "value": "t_struct(Token)26625_storage"
      },
      "t_mapping(t_address,t_struct(WalletMetadata)26563_storage)": {
        "encoding": "mapping",
        "key": "t_address",
        "label": "mapping(address => struct IMicrocredit.WalletMetadata)",
        "numberOfBytes": "32",
        "value": "t_struct(WalletMetadata)26563_storage"
      },
      "t_mapping(t_address,t_uint24)": {
        "encoding": "mapping",
        "key": "t_address",
        "label": "mapping(address => uint24)",
        "numberOfBytes": "32",
        "value": "t_uint24"
      },
      "t_mapping(t_bytes32,t_uint256)": {
        "encoding": "mapping",
        "key": "t_bytes32",
        "label": "mapping(bytes32 => uint256)",
        "numberOfBytes": "32",
        "value": "t_uint256"
      },
      "t_mapping(t_uint256,t_struct(Loan)26615_storage)": {
        "encoding": "mapping",
        "key": "t_uint256",
        "label": "mapping(uint256 => struct IMicrocredit.Loan)",
        "numberOfBytes": "32",
        "value": "t_struct(Loan)26615_storage"
      },
      "t_mapping(t_uint256,t_struct(Repayment)26583_storage)": {
        "encoding": "mapping",
        "key": "t_uint256",
        "label": "mapping(uint256 => struct IMicrocredit.Repayment)",
        "numberOfBytes": "32",
        "value": "t_struct(Repayment)26583_storage"
      },
      "t_mapping(t_uint256,t_struct(User)26571_storage)": {
        "encoding": "mapping",
        "key": "t_uint256",
        "label": "mapping(uint256 => struct IMicrocredit.User)",
        "numberOfBytes": "32",
        "value": "t_struct(User)26571_storage"
      },
      "t_mapping(t_uint256,t_struct(UserOld)26537_storage)": {
        "encoding": "mapping",
        "key": "t_uint256",
        "label": "mapping(uint256 => struct IMicrocredit.UserOld)",
        "numberOfBytes": "32",
        "value": "t_struct(UserOld)26537_storage"
      },
      "t_struct(AddressSet)5505_storage": {
        "encoding": "inplace",
        "label": "struct EnumerableSet.AddressSet",
        "members": [
          {
            "astId": 5504,
            "contract": "contracts/microcredit/MicrocreditImplementation.sol:MicrocreditImplementation",
            "label": "_inner",
            "offset": 0,
            "slot": "0",
            "type": "t_struct(Set)5204_storage"
          }
        ],
        "numberOfBytes": "64"
      },
      "t_struct(Loan)26615_storage": {
        "encoding": "inplace",
        "label": "struct IMicrocredit.Loan",
        "members": [
          {
            "astId": 26585,
            "contract": "contracts/microcredit/MicrocreditImplementation.sol:MicrocreditImplementation",
            "label": "amountBorrowed",
            "offset": 0,
            "slot": "0",
            "type": "t_uint256"
          },
          {
            "astId": 26587,
            "contract": "contracts/microcredit/MicrocreditImplementation.sol:MicrocreditImplementation",
            "label": "period",
            "offset": 0,
            "slot": "1",
            "type": "t_uint256"
          },
          {
            "astId": 26589,
            "contract": "contracts/microcredit/MicrocreditImplementation.sol:MicrocreditImplementation",
            "label": "dailyInterest",
            "offset": 0,
            "slot": "2",
            "type": "t_uint256"
          },
          {
            "astId": 26591,
            "contract": "contracts/microcredit/MicrocreditImplementation.sol:MicrocreditImplementation",
            "label": "claimDeadline",
            "offset": 0,
            "slot": "3",
            "type": "t_uint256"
          },
          {
            "astId": 26593,
            "contract": "contracts/microcredit/MicrocreditImplementation.sol:MicrocreditImplementation",
            "label": "startDate",
            "offset": 0,
            "slot": "4",
            "type": "t_uint256"
          },
          {
            "astId": 26595,
            "contract": "contracts/microcredit/MicrocreditImplementation.sol:MicrocreditImplementation",
            "label": "lastComputedDebt",
            "offset": 0,
            "slot": "5",
            "type": "t_uint256"
          },
          {
            "astId": 26597,
            "contract": "contracts/microcredit/MicrocreditImplementation.sol:MicrocreditImplementation",
            "label": "amountRepayed",
            "offset": 0,
            "slot": "6",
            "type": "t_uint256"
          },
          {
            "astId": 26599,
            "contract": "contracts/microcredit/MicrocreditImplementation.sol:MicrocreditImplementation",
            "label": "repaymentsLength",
            "offset": 0,
            "slot": "7",
            "type": "t_uint256"
          },
          {
            "astId": 26604,
            "contract": "contracts/microcredit/MicrocreditImplementation.sol:MicrocreditImplementation",
            "label": "repayments",
            "offset": 0,
            "slot": "8",
            "type": "t_mapping(t_uint256,t_struct(Repayment)26583_storage)"
          },
          {
            "astId": 26606,
            "contract": "contracts/microcredit/MicrocreditImplementation.sol:MicrocreditImplementation",
            "label": "lastComputedDate",
            "offset": 0,
            "slot": "9",
            "type": "t_uint256"
          },
          {
            "astId": 26608,
            "contract": "contracts/microcredit/MicrocreditImplementation.sol:MicrocreditImplementation",
            "label": "managerAddress",
            "offset": 0,
            "slot": "10",
            "type": "t_address"
          },
          {
            "astId": 26610,
            "contract": "contracts/microcredit/MicrocreditImplementation.sol:MicrocreditImplementation",
            "label": "tokenAddress",
            "offset": 0,
            "slot": "11",
            "type": "t_address"
          },
          {
            "astId": 26612,
            "contract": "contracts/microcredit/MicrocreditImplementation.sol:MicrocreditImplementation",
            "label": "tokenAmountBorrowed",
            "offset": 0,
            "slot": "12",
            "type": "t_uint256"
          },
          {
            "astId": 26614,
            "contract": "contracts/microcredit/MicrocreditImplementation.sol:MicrocreditImplementation",
            "label": "tokenAmountRepayed",
            "offset": 0,
            "slot": "13",
            "type": "t_uint256"
          }
        ],
        "numberOfBytes": "448"
      },
      "t_struct(LoanOld)26558_storage": {
        "encoding": "inplace",
        "label": "struct IMicrocredit.LoanOld",
        "members": [
          {
            "astId": 26539,
            "contract": "contracts/microcredit/MicrocreditImplementation.sol:MicrocreditImplementation",
            "label": "amountBorrowed",
            "offset": 0,
            "slot": "0",
            "type": "t_uint256"
          },
          {
            "astId": 26541,
            "contract": "contracts/microcredit/MicrocreditImplementation.sol:MicrocreditImplementation",
            "label": "period",
            "offset": 0,
            "slot": "1",
            "type": "t_uint256"
          },
          {
            "astId": 26543,
            "contract": "contracts/microcredit/MicrocreditImplementation.sol:MicrocreditImplementation",
            "label": "dailyInterest",
            "offset": 0,
            "slot": "2",
            "type": "t_uint256"
          },
          {
            "astId": 26545,
            "contract": "contracts/microcredit/MicrocreditImplementation.sol:MicrocreditImplementation",
            "label": "claimDeadline",
            "offset": 0,
            "slot": "3",
            "type": "t_uint256"
          },
          {
            "astId": 26547,
            "contract": "contracts/microcredit/MicrocreditImplementation.sol:MicrocreditImplementation",
            "label": "startDate",
            "offset": 0,
            "slot": "4",
            "type": "t_uint256"
          },
          {
            "astId": 26549,
            "contract": "contracts/microcredit/MicrocreditImplementation.sol:MicrocreditImplementation",
            "label": "lastComputedDebt",
            "offset": 0,
            "slot": "5",
            "type": "t_uint256"
          },
          {
            "astId": 26551,
            "contract": "contracts/microcredit/MicrocreditImplementation.sol:MicrocreditImplementation",
            "label": "amountRepayed",
            "offset": 0,
            "slot": "6",
            "type": "t_uint256"
          },
          {
            "astId": 26555,
            "contract": "contracts/microcredit/MicrocreditImplementation.sol:MicrocreditImplementation",
            "label": "repayments",
            "offset": 0,
            "slot": "7",
            "type": "t_array(t_struct(Repayment)26583_storage)dyn_storage"
          },
          {
            "astId": 26557,
            "contract": "contracts/microcredit/MicrocreditImplementation.sol:MicrocreditImplementation",
            "label": "lastComputedDate",
            "offset": 0,
            "slot": "8",
            "type": "t_uint256"
          }
        ],
        "numberOfBytes": "288"
      },
      "t_struct(Manager)26576_storage": {
        "encoding": "inplace",
        "label": "struct IMicrocredit.Manager",
        "members": [
          {
            "astId": 26573,
            "contract": "contracts/microcredit/MicrocreditImplementation.sol:MicrocreditImplementation",
            "label": "lentAmountLimit",
            "offset": 0,
            "slot": "0",
            "type": "t_uint256"
          },
          {
            "astId": 26575,
            "contract": "contracts/microcredit/MicrocreditImplementation.sol:MicrocreditImplementation",
            "label": "lentAmount",
            "offset": 0,
            "slot": "1",
            "type": "t_uint256"
          }
        ],
        "numberOfBytes": "64"
      },
      "t_struct(Repayment)26583_storage": {
        "encoding": "inplace",
        "label": "struct IMicrocredit.Repayment",
        "members": [
          {
            "astId": 26578,
            "contract": "contracts/microcredit/MicrocreditImplementation.sol:MicrocreditImplementation",
            "label": "date",
            "offset": 0,
            "slot": "0",
            "type": "t_uint256"
          },
          {
            "astId": 26580,
            "contract": "contracts/microcredit/MicrocreditImplementation.sol:MicrocreditImplementation",
            "label": "amount",
            "offset": 0,
            "slot": "1",
            "type": "t_uint256"
          },
          {
            "astId": 26582,
            "contract": "contracts/microcredit/MicrocreditImplementation.sol:MicrocreditImplementation",
            "label": "tokenAmount",
            "offset": 0,
            "slot": "2",
            "type": "t_uint256"
          }
        ],
        "numberOfBytes": "96"
      },
      "t_struct(Set)5204_storage": {
        "encoding": "inplace",
        "label": "struct EnumerableSet.Set",
        "members": [
          {
            "astId": 5199,
            "contract": "contracts/microcredit/MicrocreditImplementation.sol:MicrocreditImplementation",
            "label": "_values",
            "offset": 0,
            "slot": "0",
            "type": "t_array(t_bytes32)dyn_storage"
          },
          {
            "astId": 5203,
            "contract": "contracts/microcredit/MicrocreditImplementation.sol:MicrocreditImplementation",
            "label": "_indexes",
            "offset": 0,
            "slot": "1",
            "type": "t_mapping(t_bytes32,t_uint256)"
          }
        ],
        "numberOfBytes": "64"
      },
      "t_struct(Token)26625_storage": {
        "encoding": "inplace",
        "label": "struct IMicrocredit.Token",
        "members": [
          {
            "astId": 26617,
            "contract": "contracts/microcredit/MicrocreditImplementation.sol:MicrocreditImplementation",
            "label": "active",
            "offset": 0,
            "slot": "0",
            "type": "t_bool"
          },
          {
            "astId": 26620,
            "contract": "contracts/microcredit/MicrocreditImplementation.sol:MicrocreditImplementation",
            "label": "exchangeTokens",
            "offset": 0,
            "slot": "1",
            "type": "t_struct(AddressSet)5505_storage"
          },
          {
            "astId": 26624,
            "contract": "contracts/microcredit/MicrocreditImplementation.sol:MicrocreditImplementation",
            "label": "exchangeTokensFees",
            "offset": 0,
            "slot": "3",
            "type": "t_mapping(t_address,t_uint24)"
          }
        ],
        "numberOfBytes": "128"
      },
      "t_struct(User)26571_storage": {
        "encoding": "inplace",
        "label": "struct IMicrocredit.User",
        "members": [
          {
            "astId": 26565,
            "contract": "contracts/microcredit/MicrocreditImplementation.sol:MicrocreditImplementation",
            "label": "loansLength",
            "offset": 0,
            "slot": "0",
            "type": "t_uint256"
          },
          {
            "astId": 26570,
            "contract": "contracts/microcredit/MicrocreditImplementation.sol:MicrocreditImplementation",
            "label": "loans",
            "offset": 0,
            "slot": "1",
            "type": "t_mapping(t_uint256,t_struct(Loan)26615_storage)"
          }
        ],
        "numberOfBytes": "64"
      },
      "t_struct(UserOld)26537_storage": {
        "encoding": "inplace",
        "label": "struct IMicrocredit.UserOld",
        "members": [
          {
            "astId": 26536,
            "contract": "contracts/microcredit/MicrocreditImplementation.sol:MicrocreditImplementation",
            "label": "loans",
            "offset": 0,
            "slot": "0",
            "type": "t_array(t_struct(LoanOld)26558_storage)dyn_storage"
          }
        ],
        "numberOfBytes": "32"
      },
      "t_struct(WalletMetadata)26563_storage": {
        "encoding": "inplace",
        "label": "struct IMicrocredit.WalletMetadata",
        "members": [
          {
            "astId": 26560,
            "contract": "contracts/microcredit/MicrocreditImplementation.sol:MicrocreditImplementation",
            "label": "userId",
            "offset": 0,
            "slot": "0",
            "type": "t_uint256"
          },
          {
            "astId": 26562,
            "contract": "contracts/microcredit/MicrocreditImplementation.sol:MicrocreditImplementation",
            "label": "movedTo",
            "offset": 0,
            "slot": "1",
            "type": "t_address"
          }
        ],
        "numberOfBytes": "64"
      },
      "t_uint24": {
        "encoding": "inplace",
        "label": "uint24",
        "numberOfBytes": "3"
      },
      "t_uint256": {
        "encoding": "inplace",
        "label": "uint256",
        "numberOfBytes": "32"
      }
    }
  }
}