{
  "address": "0xEe9bE76B55FF8df5Fc026D21C29F132b4b16DE0e",
  "abi": [
    {
      "anonymous": false,
      "inputs": [
        {
          "indexed": true,
          "internalType": "address",
          "name": "userAddress",
          "type": "address"
        },
        {
          "indexed": false,
          "internalType": "uint256",
          "name": "loanId",
          "type": "uint256"
        },
        {
          "indexed": false,
          "internalType": "uint256",
          "name": "amount",
          "type": "uint256"
        },
        {
          "indexed": false,
          "internalType": "uint256",
          "name": "period",
          "type": "uint256"
        },
        {
          "indexed": false,
          "internalType": "uint256",
          "name": "dailyInterest",
          "type": "uint256"
        },
        {
          "indexed": false,
          "internalType": "uint256",
          "name": "claimDeadline",
          "type": "uint256"
        }
      ],
      "name": "LoanAdded",
      "type": "event"
    },
    {
      "anonymous": false,
      "inputs": [
        {
          "indexed": true,
          "internalType": "address",
          "name": "userAddress",
          "type": "address"
        },
        {
          "indexed": false,
          "internalType": "uint256",
          "name": "loanId",
          "type": "uint256"
        }
      ],
      "name": "LoanClaimed",
      "type": "event"
    },
    {
      "anonymous": false,
      "inputs": [
        {
          "indexed": true,
          "internalType": "address",
          "name": "previousOwner",
          "type": "address"
        },
        {
          "indexed": true,
          "internalType": "address",
          "name": "newOwner",
          "type": "address"
        }
      ],
      "name": "OwnershipTransferred",
      "type": "event"
    },
    {
      "anonymous": false,
      "inputs": [
        {
          "indexed": false,
          "internalType": "address",
          "name": "account",
          "type": "address"
        }
      ],
      "name": "Paused",
      "type": "event"
    },
    {
      "anonymous": false,
      "inputs": [
        {
          "indexed": true,
          "internalType": "address",
          "name": "userAddress",
          "type": "address"
        },
        {
          "indexed": false,
          "internalType": "uint256",
          "name": "loanId",
          "type": "uint256"
        },
        {
          "indexed": false,
          "internalType": "uint256",
          "name": "repaymentAmount",
          "type": "uint256"
        },
        {
          "indexed": false,
          "internalType": "uint256",
          "name": "currentDebt",
          "type": "uint256"
        }
      ],
      "name": "RepaymentAdded",
      "type": "event"
    },
    {
      "anonymous": false,
      "inputs": [
        {
          "indexed": false,
          "internalType": "address",
          "name": "account",
          "type": "address"
        }
      ],
      "name": "Unpaused",
      "type": "event"
    },
    {
      "anonymous": false,
      "inputs": [
        {
          "indexed": true,
          "internalType": "address",
          "name": "oldWalletAddress",
          "type": "address"
        },
        {
          "indexed": true,
          "internalType": "address",
          "name": "newWalletAddress",
          "type": "address"
        }
      ],
      "name": "UserAddressChanged",
      "type": "event"
    },
    {
      "inputs": [
        {
          "internalType": "address",
          "name": "_userAddress",
          "type": "address"
        },
        {
          "internalType": "uint256",
          "name": "_amount",
          "type": "uint256"
        },
        {
          "internalType": "uint256",
          "name": "_period",
          "type": "uint256"
        },
        {
          "internalType": "uint256",
          "name": "_dailyInterest",
          "type": "uint256"
        },
        {
          "internalType": "uint256",
          "name": "_claimDeadline",
          "type": "uint256"
        }
      ],
      "name": "addLoan",
      "outputs": [],
      "stateMutability": "nonpayable",
      "type": "function"
    },
    {
      "inputs": [
        {
          "internalType": "address[]",
          "name": "_userAddresses",
          "type": "address[]"
        },
        {
          "internalType": "uint256[]",
          "name": "_amounts",
          "type": "uint256[]"
        },
        {
          "internalType": "uint256[]",
          "name": "_periods",
          "type": "uint256[]"
        },
        {
          "internalType": "uint256[]",
          "name": "_dailyInterests",
          "type": "uint256[]"
        },
        {
          "internalType": "uint256[]",
          "name": "_claimDeadlines",
          "type": "uint256[]"
        }
      ],
      "name": "addLoans",
      "outputs": [],
      "stateMutability": "nonpayable",
      "type": "function"
    },
    {
      "inputs": [
        {
          "internalType": "address[]",
          "name": "_managerAddresses",
          "type": "address[]"
        }
      ],
      "name": "addManagers",
      "outputs": [],
      "stateMutability": "nonpayable",
      "type": "function"
    },
    {
      "inputs": [],
      "name": "cUSD",
      "outputs": [
        {
          "internalType": "contract IERC20Upgradeable",
          "name": "",
          "type": "address"
        }
      ],
      "stateMutability": "view",
      "type": "function"
    },
    {
      "inputs": [
        {
          "internalType": "address",
          "name": "_oldWalletAddress",
          "type": "address"
        },
        {
          "internalType": "address",
          "name": "_newWalletAddress",
          "type": "address"
        }
      ],
      "name": "changeUserAddress",
      "outputs": [],
      "stateMutability": "nonpayable",
      "type": "function"
    },
    {
      "inputs": [
        {
          "internalType": "uint256",
          "name": "_loanId",
          "type": "uint256"
        }
      ],
      "name": "claimLoan",
      "outputs": [],
      "stateMutability": "nonpayable",
      "type": "function"
    },
    {
      "inputs": [],
      "name": "getVersion",
      "outputs": [
        {
          "internalType": "uint256",
          "name": "",
          "type": "uint256"
        }
      ],
      "stateMutability": "pure",
      "type": "function"
    },
    {
      "inputs": [
        {
          "internalType": "address",
          "name": "_cUSDAddress",
          "type": "address"
        },
        {
          "internalType": "address",
          "name": "_revenueAddress",
          "type": "address"
        }
      ],
      "name": "initialize",
      "outputs": [],
      "stateMutability": "nonpayable",
      "type": "function"
    },
    {
      "inputs": [
        {
          "internalType": "uint256",
          "name": "_index",
          "type": "uint256"
        }
      ],
      "name": "managerListAt",
      "outputs": [
        {
          "internalType": "address",
          "name": "",
          "type": "address"
        }
      ],
      "stateMutability": "view",
      "type": "function"
    },
    {
      "inputs": [],
      "name": "managerListLength",
      "outputs": [
        {
          "internalType": "uint256",
          "name": "",
          "type": "uint256"
        }
      ],
      "stateMutability": "view",
      "type": "function"
    },
    {
      "inputs": [],
      "name": "owner",
      "outputs": [
        {
          "internalType": "address",
          "name": "",
          "type": "address"
        }
      ],
      "stateMutability": "view",
      "type": "function"
    },
    {
      "inputs": [],
      "name": "paused",
      "outputs": [
        {
          "internalType": "bool",
          "name": "",
          "type": "bool"
        }
      ],
      "stateMutability": "view",
      "type": "function"
    },
    {
      "inputs": [
        {
          "internalType": "address[]",
          "name": "_managerAddresses",
          "type": "address[]"
        }
      ],
      "name": "removeManagers",
      "outputs": [],
      "stateMutability": "nonpayable",
      "type": "function"
    },
    {
      "inputs": [],
      "name": "renounceOwnership",
      "outputs": [],
      "stateMutability": "nonpayable",
      "type": "function"
    },
    {
      "inputs": [
        {
          "internalType": "uint256",
          "name": "_loanId",
          "type": "uint256"
        },
        {
          "internalType": "uint256",
          "name": "_repaymentAmount",
          "type": "uint256"
        }
      ],
      "name": "repayLoan",
      "outputs": [],
      "stateMutability": "nonpayable",
      "type": "function"
    },
    {
      "inputs": [],
      "name": "revenueAddress",
      "outputs": [
        {
          "internalType": "address",
          "name": "",
          "type": "address"
        }
      ],
      "stateMutability": "view",
      "type": "function"
    },
    {
      "inputs": [
        {
          "internalType": "contract IERC20Upgradeable",
          "name": "_token",
          "type": "address"
        },
        {
          "internalType": "address",
          "name": "_to",
          "type": "address"
        },
        {
          "internalType": "uint256",
          "name": "_amount",
          "type": "uint256"
        }
      ],
      "name": "transferERC20",
      "outputs": [],
      "stateMutability": "nonpayable",
      "type": "function"
    },
    {
      "inputs": [
        {
          "internalType": "address",
          "name": "newOwner",
          "type": "address"
        }
      ],
      "name": "transferOwnership",
      "outputs": [],
      "stateMutability": "nonpayable",
      "type": "function"
    },
    {
      "inputs": [
        {
          "internalType": "address",
          "name": "_newRevenueAddress",
          "type": "address"
        }
      ],
      "name": "updateRevenueAddress",
      "outputs": [],
      "stateMutability": "nonpayable",
      "type": "function"
    },
    {
      "inputs": [
        {
          "internalType": "address",
          "name": "_userAddress",
          "type": "address"
        },
        {
          "internalType": "uint256",
          "name": "_loanId",
          "type": "uint256"
        },
        {
          "internalType": "uint256",
          "name": "_repaymentId",
          "type": "uint256"
        }
      ],
      "name": "userLoanRepayments",
      "outputs": [
        {
          "internalType": "uint256",
          "name": "date",
          "type": "uint256"
        },
        {
          "internalType": "uint256",
          "name": "amount",
          "type": "uint256"
        }
      ],
      "stateMutability": "view",
      "type": "function"
    },
    {
      "inputs": [
        {
          "internalType": "address",
          "name": "_userAddress",
          "type": "address"
        },
        {
          "internalType": "uint256",
          "name": "_loanId",
          "type": "uint256"
        }
      ],
      "name": "userLoans",
      "outputs": [
        {
          "internalType": "uint256",
          "name": "amountBorrowed",
          "type": "uint256"
        },
        {
          "internalType": "uint256",
          "name": "period",
          "type": "uint256"
        },
        {
          "internalType": "uint256",
          "name": "dailyInterest",
          "type": "uint256"
        },
        {
          "internalType": "uint256",
          "name": "claimDeadline",
          "type": "uint256"
        },
        {
          "internalType": "uint256",
          "name": "startDate",
          "type": "uint256"
        },
        {
          "internalType": "uint256",
          "name": "currentDebt",
          "type": "uint256"
        },
        {
          "internalType": "uint256",
          "name": "lastComputedDebt",
          "type": "uint256"
        },
        {
          "internalType": "uint256",
          "name": "amountRepayed",
          "type": "uint256"
        },
        {
          "internalType": "uint256",
          "name": "repaymentsLength",
          "type": "uint256"
        },
        {
          "internalType": "uint256",
          "name": "lastComputedDate",
          "type": "uint256"
        }
      ],
      "stateMutability": "view",
      "type": "function"
    },
    {
      "inputs": [
        {
          "internalType": "uint256",
          "name": "_index",
          "type": "uint256"
        }
      ],
      "name": "walletListAt",
      "outputs": [
        {
          "internalType": "address",
          "name": "",
          "type": "address"
        }
      ],
      "stateMutability": "view",
      "type": "function"
    },
    {
      "inputs": [],
      "name": "walletListLength",
      "outputs": [
        {
          "internalType": "uint256",
          "name": "",
          "type": "uint256"
        }
      ],
      "stateMutability": "view",
      "type": "function"
    },
    {
      "inputs": [
        {
          "internalType": "address",
          "name": "_userAddress",
          "type": "address"
        }
      ],
      "name": "walletMetadata",
      "outputs": [
        {
          "internalType": "uint256",
          "name": "userId",
          "type": "uint256"
        },
        {
          "internalType": "address",
          "name": "movedTo",
          "type": "address"
        },
        {
          "internalType": "uint256",
          "name": "loansLength",
          "type": "uint256"
        }
      ],
      "stateMutability": "view",
      "type": "function"
    }
  ],
  "transactionHash": "0xd335de77c011b79455952e6ed3acf12365b9e36973e167d73b56059714b7c2e7",
  "args": [],
  "numDeployments": 5,
  "solcInputHash": "5ffb803d827073d68163151f3d550650",
  "bytecode": "0x608060405234801561001057600080fd5b506127ff806100206000396000f3fe608060405234801561001057600080fd5b50600436106101585760003560e01c8063715018a6116100c3578063adb971261161007c578063adb971261461032a578063b410908d1461033d578063d8bad5bd14610350578063eef1b515146103ad578063f2fde38b146103c0578063fdd28859146103d357600080fd5b8063715018a6146102b057806378d5bcc1146102b85780638a700b53146102e05780638c5f9e74146102f35780638da5cb5b146103065780639db5dbe41461031757600080fd5b806353a469b31161011557806353a469b3146101e15780635c975abb146101f45780635d916afd1461020a57806360c4477a1461021d5780636323f5e91461022557806368fcaf841461029d57600080fd5b80630d8e6e2c1461015d57806310f3ee29146101735780631fccf67214610188578063387d0263146101b35780633a17596b146101bb578063485cc955146101ce575b600080fd5b60015b6040519081526020015b60405180910390f35b610186610181366004612374565b6103e6565b005b60c95461019b906001600160a01b031681565b6040516001600160a01b03909116815260200161016a565b61016061047e565b6101866101c9366004612331565b61048f565b6101866101dc36600461229a565b6104ca565b6101866101ef3660046124ff565b6105cd565b60655460ff16604051901515815260200161016a565b6101866102183660046123b4565b61078b565b610160610933565b61027a61023336600461227e565b6001600160a01b03908116600090815260cc6020908152604080832081518083018352815480825260019092015490951694830185905280845260cb909252909120549092565b604080519384526001600160a01b0390921660208401529082015260600161016a565b61019b6102ab3660046124ff565b61093f565b610186610952565b6102cb6102c63660046122fd565b610988565b6040805192835260208301919091520161016a565b6101866102ee366004612517565b610be8565b610186610301366004612374565b610ffd565b6033546001600160a01b031661019b565b6101866103253660046124bf565b611086565b61019b6103383660046124ff565b6110f6565b60d15461019b906001600160a01b031681565b61036361035e3660046122d2565b611103565b604080519a8b5260208b0199909952978901969096526060880194909452608087019290925260a086015260c085015260e08401526101008301526101208201526101400161016a565b6101866103bb36600461229a565b611301565b6101866103ce36600461227e565b6114a6565b6101866103e136600461227e565b611541565b6033546001600160a01b031633146104195760405162461bcd60e51b81526004016104109061261b565b60405180910390fd5b8060005b818110156104785761046584848381811061044857634e487b7160e01b600052603260045260246000fd5b905060200201602081019061045d919061227e565b60cf9061158d565b508061047081612783565b91505061041d565b50505050565b600061048a60cf6115a9565b905090565b61049a60cf336115b3565b6104b65760405162461bcd60e51b815260040161041090612587565b6104c385858585856115d5565b5050505050565b600054610100900460ff166104e55760005460ff16156104e9565b303b155b61054c5760405162461bcd60e51b815260206004820152602e60248201527f496e697469616c697a61626c653a20636f6e747261637420697320616c72656160448201526d191e481a5b9a5d1a585b1a5e995960921b6064820152608401610410565b600054610100900460ff1615801561056e576000805461ffff19166101011790555b610576611929565b61057e611960565b610586611997565b60c980546001600160a01b038086166001600160a01b03199283161790925560d180549285169290911691909117905580156105c8576000805461ff00191690555b505050565b600260975414156105f05760405162461bcd60e51b81526004016104109061269b565b60026097556105ff33826119c6565b33600090815260cc602090815260408083208151808301835281548082526001909201546001600160a01b03168185015290845260cb909252822080549192909182908590811061066057634e487b7160e01b600052603260045260246000fd5b9060005260206000209060080201905080600401546000146106ce5760405162461bcd60e51b815260206004820152602160248201527f4d6963726f6372656469743a204c6f616e20616c726561647920636c61696d656044820152601960fa1b6064820152608401610410565b42816003015410156107225760405162461bcd60e51b815260206004820152601960248201527f4d6963726f6372656469743a204c6f616e2065787069726564000000000000006044820152606401610410565b42600482015580546005820181905560c95461074b916001600160a01b03909116903390611be9565b60405184815233907fba0cbe8ef8ef3c6984adc684d0c9b9a4d2d4c79b4678b63c38651fa48d21c62c9060200160405180910390a2505060016097555050565b61079660cf336115b3565b6107b25760405162461bcd60e51b815260040161041090612587565b888781146107d25760405162461bcd60e51b8152600401610410906125cb565b8086146107f15760405162461bcd60e51b8152600401610410906125cb565b8084146108105760405162461bcd60e51b8152600401610410906125cb565b80821461082f5760405162461bcd60e51b8152600401610410906125cb565b60005b81811015610925576109138c8c8381811061085d57634e487b7160e01b600052603260045260246000fd5b9050602002016020810190610872919061227e565b8b8b8481811061089257634e487b7160e01b600052603260045260246000fd5b905060200201358a8a858181106108b957634e487b7160e01b600052603260045260246000fd5b905060200201358989868181106108e057634e487b7160e01b600052603260045260246000fd5b9050602002013588888781811061090757634e487b7160e01b600052603260045260246000fd5b905060200201356115d5565b8061091d81612783565b915050610832565b505050505050505050505050565b600061048a60cd6115a9565b600061094c60cf83611c4c565b92915050565b6033546001600160a01b0316331461097c5760405162461bcd60e51b81526004016104109061261b565b6109866000611c58565b565b60008061099585856119c6565b6001600160a01b03808616600090815260cc6020908152604080832081518083018352815480825260019092015490951685840152835260cb8252808320815181548085028201840184529381018481529093919284928491879085015b82821015610adf5783829060005260206000209060080201604051806101000160405290816000820154815260200160018201548152602001600282015481526020016003820154815260200160048201548152602001600582015481526020016006820154815260200160078201805480602002602001604051908101604052809291908181526020016000905b82821015610ac857838290600052602060002090600202016040518060400160405290816000820154815260200160018201548152505081526020019060010190610a82565b5050505081525050815260200190600101906109f3565b50505050815250509050600081600001518781518110610b0f57634e487b7160e01b600052603260045260246000fd5b60200260200101519050858160e001515111610b795760405162461bcd60e51b8152602060048201526024808201527f4d6963726f6372656469743a2052657061796d656e7420646f65736e277420656044820152631e1a5cdd60e21b6064820152608401610410565b8060e001518681518110610b9d57634e487b7160e01b600052603260045260246000fd5b60200260200101516000015194508060e001518681518110610bcf57634e487b7160e01b600052603260045260246000fd5b6020026020010151602001519350505050935093915050565b60026097541415610c0b5760405162461bcd60e51b81526004016104109061269b565b600260975580610c5d5760405162461bcd60e51b815260206004820152601b60248201527f4d6963726f6372656469743a20496e76616c696420616d6f756e7400000000006044820152606401610410565b610c6733836119c6565b33600090815260cc602090815260408083208151808301835281548082526001909201546001600160a01b03168185015290845260cb9092528220805491929091829086908110610cc857634e487b7160e01b600052603260045260246000fd5b906000526020600020906008020190506000816004015411610d2c5760405162461bcd60e51b815260206004820152601d60248201527f4d6963726f6372656469743a204c6f616e206e6f7420636c61696d65640000006044820152606401610410565b6000816005015411610d995760405162461bcd60e51b815260206004820152603060248201527f4d6963726f6372656469743a204c6f616e2068617320616c726561647920626560448201526f195b88199d5b1b1e481c995c185e595960821b6064820152608401610410565b6000610e6982604051806101000160405290816000820154815260200160018201548152602001600282015481526020016003820154815260200160048201548152602001600582015481526020016006820154815260200160078201805480602002602001604051908101604052809291908181526020016000905b82821015610e5c57838290600052602060002090600202016040518060400160405290816000820154815260200160018201548152505081526020019060010190610e16565b5050505081525050611caa565b905084811015610e77578094505b6000808360000154878560060154610e8f91906126d2565b111580610ea5575060d1546001600160a01b0316155b15610ec75760c954610ec2906001600160a01b031633308a611d53565b610f52565b8354600685015410610ef25760d15460c954610ec2916001600160a01b03918216913391168a611d53565b60068401548454600091610f0591612729565b60c954909150610f20906001600160a01b0316333084611d53565b60d154610f509033906001600160a01b0316610f3c848c612729565b60c9546001600160a01b0316929190611d53565b505b600784018054600181810183556000928352602090922042600290920201908155908101889055610f838885612729565b856005018190555087856006016000828254610f9f91906126d2565b90915550506005850154604080518b8152602081018b90529081019190915233907f36bd188317b9b3af98bbc5bfd88a0bccb96582fa2c955815ea9916dfeeb02d9e9060600160405180910390a25050600160975550505050505050565b6033546001600160a01b031633146110275760405162461bcd60e51b81526004016104109061261b565b8060005b818110156104785761107384848381811061105657634e487b7160e01b600052603260045260246000fd5b905060200201602081019061106b919061227e565b60cf90611d8b565b508061107e81612783565b91505061102b565b600260975414156110a95760405162461bcd60e51b81526004016104109061269b565b60026097556033546001600160a01b031633146110d85760405162461bcd60e51b81526004016104109061261b565b6110ec6001600160a01b0384168383611be9565b5050600160975550565b600061094c60cd83611c4c565b60008060008060008060008060008061111c8c8c6119c6565b6001600160a01b03808d16600090815260cc6020908152604080832081518083018352815480825260019092015490951685840152835260cb8252808320815181548085028201840184529381018481529093919284928491879085015b828210156112665783829060005260206000209060080201604051806101000160405290816000820154815260200160018201548152602001600282015481526020016003820154815260200160048201548152602001600582015481526020016006820154815260200160078201805480602002602001604051908101604052809291908181526020016000905b8282101561124f57838290600052602060002090600202016040518060400160405290816000820154815260200160018201548152505081526020019060010190611209565b50505050815250508152602001906001019061117a565b50505050815250509050600081600001518e8151811061129657634e487b7160e01b600052603260045260246000fd5b6020026020010151905080600001519c5080602001519b5080604001519a5080606001519950806080015198508060a0015196506112d381611caa565b97508060c0015195508060e001515194506112ed81611da0565b93505050509295989b9194979a5092959850565b61130c60cf336115b3565b6113285760405162461bcd60e51b815260040161041090612587565b6001600160a01b038216600090815260cc6020526040902080541580159061135b575060018101546001600160a01b0316155b6113b65760405162461bcd60e51b815260206004820152602660248201527f4d6963726f6372656469743a205468697320757365722063616e6e6f74206265604482015265081b5bdd995960d21b6064820152608401610410565b6001600160a01b038216600090815260cc602052604090208054156114335760405162461bcd60e51b815260206004820152602d60248201527f4d6963726f6372656469743a205461726765742077616c6c657420616464726560448201526c1cdcc81a5cc81a5b9d985b1a59609a1b6064820152608401610410565b6001820180546001600160a01b0319166001600160a01b0385161790558154815561145f60cd84611d8b565b50826001600160a01b0316846001600160a01b03167ffe697da51e9b8089b3ac92361b06886b93f48f935848aa4da1148c15b262840a60405160405180910390a350505050565b6033546001600160a01b031633146114d05760405162461bcd60e51b81526004016104109061261b565b6001600160a01b0381166115355760405162461bcd60e51b815260206004820152602660248201527f4f776e61626c653a206e6577206f776e657220697320746865207a65726f206160448201526564647265737360d01b6064820152608401610410565b61153e81611c58565b50565b6033546001600160a01b0316331461156b5760405162461bcd60e51b81526004016104109061261b565b60d180546001600160a01b0319166001600160a01b0392909216919091179055565b60006115a2836001600160a01b038416611dfb565b9392505050565b600061094c825490565b6001600160a01b038116600090815260018301602052604081205415156115a2565b42811161162f5760405162461bcd60e51b815260206004820152602260248201527f4d6963726f6372656469743a20696e76616c696420636c61696d446561646c696044820152616e6560f01b6064820152608401610410565b6001600160a01b03808616600090815260cc602052604090206001810154909116156116a95760405162461bcd60e51b8152602060048201526024808201527f4d6963726f6372656469743a20546865207573657220686173206265656e206d6044820152631bdd995960e21b6064820152608401610410565b80546116d65760ca80549060006116bf83612783565b909155505060ca5481556116d460cd87611d8b565b505b8054600090815260cb6020526040902080548015611887576000826116fc600184612729565b8154811061171a57634e487b7160e01b600052603260045260246000fd5b9060005260206000209060080201604051806101000160405290816000820154815260200160018201548152602001600282015481526020016003820154815260200160048201548152602001600582015481526020016006820154815260200160078201805480602002602001604051908101604052809291908181526020016000905b828210156117e55783829060005260206000209060020201604051806040016040529081600082015481526020016001820154815250508152602001906001019061179f565b5050505081525050905060008160800151118015611805575060a0810151155b80611820575060808101511580156118205750428160600151105b6118855760405162461bcd60e51b815260206004820152603060248201527f4d6963726f6372656469743a20546865207573657220616c726561647920686160448201526f399030b71030b1ba34bb32903637b0b760811b6064820152608401610410565b505b81546001818101845560008481526020902060089092029091018881558082018890556002810187905560038101869055835490916001600160a01b038b16917fdf5f35c1edc69bc65031bb54e429851779e0db0a2d5f763a0eabdd9bec9429f2916118f291612729565b60408051918252602082018c905281018a9052606081018990526080810188905260a00160405180910390a2505050505050505050565b600054610100900460ff166119505760405162461bcd60e51b815260040161041090612650565b611958611f18565b610986611f3f565b600054610100900460ff166119875760405162461bcd60e51b815260040161041090612650565b61198f611f18565b610986611f6f565b600054610100900460ff166119be5760405162461bcd60e51b815260040161041090612650565b610986611fa2565b6001600160a01b03808316600090815260cc602090815260409182902082518084019093528054808452600190910154909316908201529015801590611a17575060208101516001600160a01b0316155b611a6f5760405162461bcd60e51b815260206004820152602360248201527f4d6963726f6372656469743a20496e76616c69642077616c6c6574206164647260448201526265737360e81b6064820152608401610410565b8051600090815260cb60209081526040808320815181548085028201840184529381018481529093919284928491879085015b82821015611b8e5783829060005260206000209060080201604051806101000160405290816000820154815260200160018201548152602001600282015481526020016003820154815260200160048201548152602001600582015481526020016006820154815260200160078201805480602002602001604051908101604052809291908181526020016000905b82821015611b7757838290600052602060002090600202016040518060400160405290816000820154815260200160018201548152505081526020019060010190611b31565b505050508152505081526020019060010190611aa2565b5050509152505080515190915083106104785760405162461bcd60e51b815260206004820152601f60248201527f4d6963726f6372656469743a204c6f616e20646f65736e2774206578697374006044820152606401610410565b6040516001600160a01b0383166024820152604481018290526105c890849063a9059cbb60e01b906064015b60408051601f198184030181529190526020810180516001600160e01b03166001600160e01b031990931692909217909152611fd0565b60006115a283836120a2565b603380546001600160a01b038381166001600160a01b0319831681179093556040519116919082907f8be0079c531659141344cd1fd0a4f28419497f9722a3daafe3b4186f6b6457e090600090a35050565b60008160a0015160001415611cc157506000919050565b6000611ccc83611da0565b9050600062015180611cde8342612729565b611ce891906126ea565b60a08501519091505b8115611d4b57670de0b6b3a764000060648660400151611d1191906126ea565b611d2390670de0b6b3a76400006126d2565b611d2d908361270a565b611d3791906126ea565b905081611d438161276c565b925050611cf1565b949350505050565b6040516001600160a01b03808516602483015283166044820152606481018290526104789085906323b872dd60e01b90608401611c15565b60006115a2836001600160a01b0384166120da565b6000808260e001515111611db857816080015161094c565b60e08201518051611dcb90600190612729565b81518110611de957634e487b7160e01b600052603260045260246000fd5b60200260200101516000015192915050565b60008181526001830160205260408120548015611f0e576000611e1f600183612729565b8554909150600090611e3390600190612729565b9050818114611eb4576000866000018281548110611e6157634e487b7160e01b600052603260045260246000fd5b9060005260206000200154905080876000018481548110611e9257634e487b7160e01b600052603260045260246000fd5b6000918252602080832090910192909255918252600188019052604090208390555b8554869080611ed357634e487b7160e01b600052603160045260246000fd5b60019003818190600052602060002001600090559055856001016000868152602001908152602001600020600090556001935050505061094c565b600091505061094c565b600054610100900460ff166109865760405162461bcd60e51b815260040161041090612650565b600054610100900460ff16611f665760405162461bcd60e51b815260040161041090612650565b61098633611c58565b600054610100900460ff16611f965760405162461bcd60e51b815260040161041090612650565b6065805460ff19169055565b600054610100900460ff16611fc95760405162461bcd60e51b815260040161041090612650565b6001609755565b6000612025826040518060400160405280602081526020017f5361666545524332303a206c6f772d6c6576656c2063616c6c206661696c6564815250856001600160a01b03166121299092919063ffffffff16565b8051909150156105c85780806020019051810190612043919061249f565b6105c85760405162461bcd60e51b815260206004820152602a60248201527f5361666545524332303a204552433230206f7065726174696f6e20646964206e6044820152691bdd081cdd58d8d9595960b21b6064820152608401610410565b60008260000182815481106120c757634e487b7160e01b600052603260045260246000fd5b9060005260206000200154905092915050565b60008181526001830160205260408120546121215750815460018181018455600084815260208082209093018490558454848252828601909352604090209190915561094c565b50600061094c565b6060611d4b848460008585843b6121825760405162461bcd60e51b815260206004820152601d60248201527f416464726573733a2063616c6c20746f206e6f6e2d636f6e74726163740000006044820152606401610410565b600080866001600160a01b0316858760405161219e9190612538565b60006040518083038185875af1925050503d80600081146121db576040519150601f19603f3d011682016040523d82523d6000602084013e6121e0565b606091505b50915091506121f08282866121fb565b979650505050505050565b6060831561220a5750816115a2565b82511561221a5782518084602001fd5b8160405162461bcd60e51b81526004016104109190612554565b60008083601f840112612245578182fd5b50813567ffffffffffffffff81111561225c578182fd5b6020830191508360208260051b850101111561227757600080fd5b9250929050565b60006020828403121561228f578081fd5b81356115a2816127b4565b600080604083850312156122ac578081fd5b82356122b7816127b4565b915060208301356122c7816127b4565b809150509250929050565b600080604083850312156122e4578182fd5b82356122ef816127b4565b946020939093013593505050565b600080600060608486031215612311578081fd5b833561231c816127b4565b95602085013595506040909401359392505050565b600080600080600060a08688031215612348578081fd5b8535612353816127b4565b97602087013597506040870135966060810135965060800135945092505050565b60008060208385031215612386578182fd5b823567ffffffffffffffff81111561239c578283fd5b6123a885828601612234565b90969095509350505050565b60008060008060008060008060008060a08b8d0312156123d2578485fd5b8a3567ffffffffffffffff808211156123e9578687fd5b6123f58e838f01612234565b909c509a5060208d013591508082111561240d578687fd5b6124198e838f01612234565b909a50985060408d0135915080821115612431578687fd5b61243d8e838f01612234565b909850965060608d0135915080821115612455578586fd5b6124618e838f01612234565b909650945060808d0135915080821115612479578384fd5b506124868d828e01612234565b915080935050809150509295989b9194979a5092959850565b6000602082840312156124b0578081fd5b815180151581146115a2578182fd5b6000806000606084860312156124d3578283fd5b83356124de816127b4565b925060208401356124ee816127b4565b929592945050506040919091013590565b600060208284031215612510578081fd5b5035919050565b60008060408385031215612529578182fd5b50508035926020909101359150565b6000825161254a818460208701612740565b9190910192915050565b6020815260008251806020840152612573816040850160208701612740565b601f01601f19169190910160400192915050565b60208082526024908201527f4d6963726f6372656469743a2063616c6c6572206973206e6f742061206d616e60408201526330b3b2b960e11b606082015260800190565b60208082526030908201527f4d6963726f6372656469743a2063616c6c6461746120696e666f726d6174696f60408201526f0dc40c2e4d2e8f240dad2e6dac2e8c6d60831b606082015260800190565b6020808252818101527f4f776e61626c653a2063616c6c6572206973206e6f7420746865206f776e6572604082015260600190565b6020808252602b908201527f496e697469616c697a61626c653a20636f6e7472616374206973206e6f74206960408201526a6e697469616c697a696e6760a81b606082015260800190565b6020808252601f908201527f5265656e7472616e637947756172643a207265656e7472616e742063616c6c00604082015260600190565b600082198211156126e5576126e561279e565b500190565b60008261270557634e487b7160e01b81526012600452602481fd5b500490565b60008160001904831182151516156127245761272461279e565b500290565b60008282101561273b5761273b61279e565b500390565b60005b8381101561275b578181015183820152602001612743565b838111156104785750506000910152565b60008161277b5761277b61279e565b506000190190565b60006000198214156127975761279761279e565b5060010190565b634e487b7160e01b600052601160045260246000fd5b6001600160a01b038116811461153e57600080fdfea264697066735822122010019dec127b933650edb3c15b10970297c4ba0eed137c36d2e6ba849c8ddf6164736f6c63430008040033",
  "devdoc": {
    "kind": "dev",
    "methods": {
      "initialize(address,address)": {
        "params": {
          "_cUSDAddress": "The address of the cUSD token",
          "_revenueAddress": "The address that collects all the interest"
        }
      },
      "managerListAt(uint256)": {
        "params": {
          "_index": "index value"
        },
        "returns": {
          "_0": "address of the manager"
        }
      },
      "owner()": {
        "details": "Returns the address of the current owner."
      },
      "paused()": {
        "details": "Returns true if the contract is paused, and false otherwise."
      },
      "renounceOwnership()": {
        "details": "Leaves the contract without owner. It will not be possible to call `onlyOwner` functions anymore. Can only be called by the current owner. NOTE: Renouncing ownership will leave the contract without an owner, thereby removing any functionality that is only available to the owner."
      },
      "transferERC20(address,address,uint256)": {
        "params": {
          "_amount": "amount of the transaction",
          "_to": "address of the receiver",
          "_token": "address of the ERC20 token"
        }
      },
      "transferOwnership(address)": {
        "details": "Transfers ownership of the contract to a new account (`newOwner`). Can only be called by the current owner."
      },
      "walletListAt(uint256)": {
        "params": {
          "_index": "index value"
        },
        "returns": {
          "_0": "address of the user"
        }
      },
      "walletMetadata(address)": {
        "params": {
          "_userAddress": "address of the user"
        },
        "returns": {
          "loansLength": "          the number of the user's loans",
          "movedTo": "              the number of the user's loans",
          "userId": "               the userId"
        }
      }
    },
    "version": 1
  },
  "userdoc": {
    "kind": "user",
    "methods": {
      "getVersion()": {
        "notice": "Returns the current implementation version"
      },
      "initialize(address,address)": {
        "notice": "Used to initialize the Microcredit contract"
      },
      "managerListAt(uint256)": {
        "notice": "Returns an address from the managerList"
      },
      "managerListLength()": {
        "notice": "Returns the length of the managerList"
      },
      "transferERC20(address,address,uint256)": {
        "notice": "Transfers an amount of an ERC20 from this contract to an address"
      },
      "walletListAt(uint256)": {
        "notice": "Returns an address from the walletList"
      },
      "walletListLength()": {
        "notice": "Returns the length of the walletList"
      },
      "walletMetadata(address)": {
        "notice": "Returns the information of a user"
      }
    },
    "version": 1
  },
  "storageLayout": {
    "storage": [
      {
        "astId": 542,
        "contract": "contracts/microcredit/MicrocreditImplementation.sol:MicrocreditImplementation",
        "label": "_initialized",
        "offset": 0,
        "slot": "0",
        "type": "t_bool"
      },
      {
        "astId": 545,
        "contract": "contracts/microcredit/MicrocreditImplementation.sol:MicrocreditImplementation",
        "label": "_initializing",
        "offset": 1,
        "slot": "0",
        "type": "t_bool"
      },
      {
        "astId": 1370,
        "contract": "contracts/microcredit/MicrocreditImplementation.sol:MicrocreditImplementation",
        "label": "__gap",
        "offset": 0,
        "slot": "1",
        "type": "t_array(t_uint256)50_storage"
      },
      {
        "astId": 420,
        "contract": "contracts/microcredit/MicrocreditImplementation.sol:MicrocreditImplementation",
        "label": "_owner",
        "offset": 0,
        "slot": "51",
        "type": "t_address"
      },
      {
        "astId": 534,
        "contract": "contracts/microcredit/MicrocreditImplementation.sol:MicrocreditImplementation",
        "label": "__gap",
        "offset": 0,
        "slot": "52",
        "type": "t_array(t_uint256)49_storage"
      },
      {
        "astId": 630,
        "contract": "contracts/microcredit/MicrocreditImplementation.sol:MicrocreditImplementation",
        "label": "_paused",
        "offset": 0,
        "slot": "101",
        "type": "t_bool"
      },
      {
        "astId": 721,
        "contract": "contracts/microcredit/MicrocreditImplementation.sol:MicrocreditImplementation",
        "label": "__gap",
        "offset": 0,
        "slot": "102",
        "type": "t_array(t_uint256)49_storage"
      },
      {
        "astId": 736,
        "contract": "contracts/microcredit/MicrocreditImplementation.sol:MicrocreditImplementation",
        "label": "_status",
        "offset": 0,
        "slot": "151",
        "type": "t_uint256"
      },
      {
        "astId": 779,
        "contract": "contracts/microcredit/MicrocreditImplementation.sol:MicrocreditImplementation",
        "label": "__gap",
        "offset": 0,
        "slot": "152",
        "type": "t_array(t_uint256)49_storage"
      },
      {
        "astId": 25875,
        "contract": "contracts/microcredit/MicrocreditImplementation.sol:MicrocreditImplementation",
        "label": "cUSD",
        "offset": 0,
        "slot": "201",
        "type": "t_contract(IERC20Upgradeable)858"
      },
      {
        "astId": 25877,
        "contract": "contracts/microcredit/MicrocreditImplementation.sol:MicrocreditImplementation",
        "label": "_usersLength",
        "offset": 0,
        "slot": "202",
        "type": "t_uint256"
      },
      {
        "astId": 25882,
        "contract": "contracts/microcredit/MicrocreditImplementation.sol:MicrocreditImplementation",
        "label": "_users",
        "offset": 0,
        "slot": "203",
        "type": "t_mapping(t_uint256,t_struct(User)25643_storage)"
      },
      {
        "astId": 25887,
        "contract": "contracts/microcredit/MicrocreditImplementation.sol:MicrocreditImplementation",
        "label": "_walletMetadata",
        "offset": 0,
        "slot": "204",
        "type": "t_mapping(t_address,t_struct(WalletMetadata)25638_storage)"
      },
      {
        "astId": 25890,
        "contract": "contracts/microcredit/MicrocreditImplementation.sol:MicrocreditImplementation",
        "label": "_walletList",
        "offset": 0,
        "slot": "205",
        "type": "t_struct(AddressSet)5505_storage"
      },
      {
        "astId": 25893,
        "contract": "contracts/microcredit/MicrocreditImplementation.sol:MicrocreditImplementation",
        "label": "_managerList",
        "offset": 0,
        "slot": "207",
        "type": "t_struct(AddressSet)5505_storage"
      },
      {
        "astId": 25896,
        "contract": "contracts/microcredit/MicrocreditImplementation.sol:MicrocreditImplementation",
        "label": "revenueAddress",
        "offset": 0,
        "slot": "209",
        "type": "t_address"
      }
    ],
    "types": {
      "t_address": {
        "encoding": "inplace",
        "label": "address",
        "numberOfBytes": "20"
      },
      "t_array(t_bytes32)dyn_storage": {
        "base": "t_bytes32",
        "encoding": "dynamic_array",
        "label": "bytes32[]",
        "numberOfBytes": "32"
      },
      "t_array(t_struct(Loan)25667_storage)dyn_storage": {
        "base": "t_struct(Loan)25667_storage",
        "encoding": "dynamic_array",
        "label": "struct IMicrocredit.Loan[]",
        "numberOfBytes": "32"
      },
      "t_array(t_struct(Repayment)25648_storage)dyn_storage": {
        "base": "t_struct(Repayment)25648_storage",
        "encoding": "dynamic_array",
        "label": "struct IMicrocredit.Repayment[]",
        "numberOfBytes": "32"
      },
      "t_array(t_uint256)49_storage": {
        "base": "t_uint256",
        "encoding": "inplace",
        "label": "uint256[49]",
        "numberOfBytes": "1568"
      },
      "t_array(t_uint256)50_storage": {
        "base": "t_uint256",
        "encoding": "inplace",
        "label": "uint256[50]",
        "numberOfBytes": "1600"
      },
      "t_bool": {
        "encoding": "inplace",
        "label": "bool",
        "numberOfBytes": "1"
      },
      "t_bytes32": {
        "encoding": "inplace",
        "label": "bytes32",
        "numberOfBytes": "32"
      },
      "t_contract(IERC20Upgradeable)858": {
        "encoding": "inplace",
        "label": "contract IERC20Upgradeable",
        "numberOfBytes": "20"
      },
      "t_mapping(t_address,t_struct(WalletMetadata)25638_storage)": {
        "encoding": "mapping",
        "key": "t_address",
        "label": "mapping(address => struct IMicrocredit.WalletMetadata)",
        "numberOfBytes": "32",
        "value": "t_struct(WalletMetadata)25638_storage"
      },
      "t_mapping(t_bytes32,t_uint256)": {
        "encoding": "mapping",
        "key": "t_bytes32",
        "label": "mapping(bytes32 => uint256)",
        "numberOfBytes": "32",
        "value": "t_uint256"
      },
      "t_mapping(t_uint256,t_struct(User)25643_storage)": {
        "encoding": "mapping",
        "key": "t_uint256",
        "label": "mapping(uint256 => struct IMicrocredit.User)",
        "numberOfBytes": "32",
        "value": "t_struct(User)25643_storage"
      },
      "t_struct(AddressSet)5505_storage": {
        "encoding": "inplace",
        "label": "struct EnumerableSet.AddressSet",
        "members": [
          {
            "astId": 5504,
            "contract": "contracts/microcredit/MicrocreditImplementation.sol:MicrocreditImplementation",
            "label": "_inner",
            "offset": 0,
            "slot": "0",
            "type": "t_struct(Set)5204_storage"
          }
        ],
        "numberOfBytes": "64"
      },
      "t_struct(Loan)25667_storage": {
        "encoding": "inplace",
        "label": "struct IMicrocredit.Loan",
        "members": [
          {
            "astId": 25650,
            "contract": "contracts/microcredit/MicrocreditImplementation.sol:MicrocreditImplementation",
            "label": "amountBorrowed",
            "offset": 0,
            "slot": "0",
            "type": "t_uint256"
          },
          {
            "astId": 25652,
            "contract": "contracts/microcredit/MicrocreditImplementation.sol:MicrocreditImplementation",
            "label": "period",
            "offset": 0,
            "slot": "1",
            "type": "t_uint256"
          },
          {
            "astId": 25654,
            "contract": "contracts/microcredit/MicrocreditImplementation.sol:MicrocreditImplementation",
            "label": "dailyInterest",
            "offset": 0,
            "slot": "2",
            "type": "t_uint256"
          },
          {
            "astId": 25656,
            "contract": "contracts/microcredit/MicrocreditImplementation.sol:MicrocreditImplementation",
            "label": "claimDeadline",
            "offset": 0,
            "slot": "3",
            "type": "t_uint256"
          },
          {
            "astId": 25658,
            "contract": "contracts/microcredit/MicrocreditImplementation.sol:MicrocreditImplementation",
            "label": "startDate",
            "offset": 0,
            "slot": "4",
            "type": "t_uint256"
          },
          {
            "astId": 25660,
            "contract": "contracts/microcredit/MicrocreditImplementation.sol:MicrocreditImplementation",
            "label": "lastComputedDebt",
            "offset": 0,
            "slot": "5",
            "type": "t_uint256"
          },
          {
            "astId": 25662,
            "contract": "contracts/microcredit/MicrocreditImplementation.sol:MicrocreditImplementation",
            "label": "amountRepayed",
            "offset": 0,
            "slot": "6",
            "type": "t_uint256"
          },
          {
            "astId": 25666,
            "contract": "contracts/microcredit/MicrocreditImplementation.sol:MicrocreditImplementation",
            "label": "repayments",
            "offset": 0,
            "slot": "7",
            "type": "t_array(t_struct(Repayment)25648_storage)dyn_storage"
          }
        ],
        "numberOfBytes": "256"
      },
      "t_struct(Repayment)25648_storage": {
        "encoding": "inplace",
        "label": "struct IMicrocredit.Repayment",
        "members": [
          {
            "astId": 25645,
            "contract": "contracts/microcredit/MicrocreditImplementation.sol:MicrocreditImplementation",
            "label": "date",
            "offset": 0,
            "slot": "0",
            "type": "t_uint256"
          },
          {
            "astId": 25647,
            "contract": "contracts/microcredit/MicrocreditImplementation.sol:MicrocreditImplementation",
            "label": "amount",
            "offset": 0,
            "slot": "1",
            "type": "t_uint256"
          }
        ],
        "numberOfBytes": "64"
      },
      "t_struct(Set)5204_storage": {
        "encoding": "inplace",
        "label": "struct EnumerableSet.Set",
        "members": [
          {
            "astId": 5199,
            "contract": "contracts/microcredit/MicrocreditImplementation.sol:MicrocreditImplementation",
            "label": "_values",
            "offset": 0,
            "slot": "0",
            "type": "t_array(t_bytes32)dyn_storage"
          },
          {
            "astId": 5203,
            "contract": "contracts/microcredit/MicrocreditImplementation.sol:MicrocreditImplementation",
            "label": "_indexes",
            "offset": 0,
            "slot": "1",
            "type": "t_mapping(t_bytes32,t_uint256)"
          }
        ],
        "numberOfBytes": "64"
      },
      "t_struct(User)25643_storage": {
        "encoding": "inplace",
        "label": "struct IMicrocredit.User",
        "members": [
          {
            "astId": 25642,
            "contract": "contracts/microcredit/MicrocreditImplementation.sol:MicrocreditImplementation",
            "label": "loans",
            "offset": 0,
            "slot": "0",
            "type": "t_array(t_struct(Loan)25667_storage)dyn_storage"
          }
        ],
        "numberOfBytes": "32"
      },
      "t_struct(WalletMetadata)25638_storage": {
        "encoding": "inplace",
        "label": "struct IMicrocredit.WalletMetadata",
        "members": [
          {
            "astId": 25635,
            "contract": "contracts/microcredit/MicrocreditImplementation.sol:MicrocreditImplementation",
            "label": "userId",
            "offset": 0,
            "slot": "0",
            "type": "t_uint256"
          },
          {
            "astId": 25637,
            "contract": "contracts/microcredit/MicrocreditImplementation.sol:MicrocreditImplementation",
            "label": "movedTo",
            "offset": 0,
            "slot": "1",
            "type": "t_address"
          }
        ],
        "numberOfBytes": "64"
      },
      "t_uint256": {
        "encoding": "inplace",
        "label": "uint256",
        "numberOfBytes": "32"
      }
    }
  }
}