{
  "address": "0x0854CAA4984b2Ef5F95E8725EAFd1e82c592d82A",
  "abi": [
    {
      "anonymous": false,
      "inputs": [
        {
          "indexed": true,
          "internalType": "address",
          "name": "userAddress",
          "type": "address"
        },
        {
          "indexed": false,
          "internalType": "uint256",
          "name": "loanId",
          "type": "uint256"
        },
        {
          "indexed": false,
          "internalType": "uint256",
          "name": "amount",
          "type": "uint256"
        },
        {
          "indexed": false,
          "internalType": "uint256",
          "name": "period",
          "type": "uint256"
        },
        {
          "indexed": false,
          "internalType": "uint256",
          "name": "dailyInterest",
          "type": "uint256"
        }
      ],
      "name": "LoanAdded",
      "type": "event"
    },
    {
      "anonymous": false,
      "inputs": [
        {
          "indexed": true,
          "internalType": "address",
          "name": "userAddress",
          "type": "address"
        },
        {
          "indexed": false,
          "internalType": "uint256",
          "name": "loanId",
          "type": "uint256"
        }
      ],
      "name": "LoanClaimed",
      "type": "event"
    },
    {
      "anonymous": false,
      "inputs": [
        {
          "indexed": true,
          "internalType": "address",
          "name": "previousOwner",
          "type": "address"
        },
        {
          "indexed": true,
          "internalType": "address",
          "name": "newOwner",
          "type": "address"
        }
      ],
      "name": "OwnershipTransferred",
      "type": "event"
    },
    {
      "anonymous": false,
      "inputs": [
        {
          "indexed": false,
          "internalType": "address",
          "name": "account",
          "type": "address"
        }
      ],
      "name": "Paused",
      "type": "event"
    },
    {
      "anonymous": false,
      "inputs": [
        {
          "indexed": true,
          "internalType": "address",
          "name": "userAddress",
          "type": "address"
        },
        {
          "indexed": false,
          "internalType": "uint256",
          "name": "loanId",
          "type": "uint256"
        },
        {
          "indexed": false,
          "internalType": "uint256",
          "name": "repaymentAmount",
          "type": "uint256"
        },
        {
          "indexed": false,
          "internalType": "uint256",
          "name": "currentDebt",
          "type": "uint256"
        }
      ],
      "name": "RepaymentAdded",
      "type": "event"
    },
    {
      "anonymous": false,
      "inputs": [
        {
          "indexed": false,
          "internalType": "address",
          "name": "account",
          "type": "address"
        }
      ],
      "name": "Unpaused",
      "type": "event"
    },
    {
      "anonymous": false,
      "inputs": [
        {
          "indexed": true,
          "internalType": "address",
          "name": "oldWalletAddress",
          "type": "address"
        },
        {
          "indexed": true,
          "internalType": "address",
          "name": "newWalletAddress",
          "type": "address"
        }
      ],
      "name": "UserAddressChanged",
      "type": "event"
    },
    {
      "inputs": [
        {
          "internalType": "address",
          "name": "_userAddress",
          "type": "address"
        },
        {
          "internalType": "uint256",
          "name": "_amount",
          "type": "uint256"
        },
        {
          "internalType": "uint256",
          "name": "_period",
          "type": "uint256"
        },
        {
          "internalType": "uint256",
          "name": "_dailyInterest",
          "type": "uint256"
        }
      ],
      "name": "addLoan",
      "outputs": [],
      "stateMutability": "nonpayable",
      "type": "function"
    },
    {
      "inputs": [
        {
          "internalType": "address[]",
          "name": "_userAddresses",
          "type": "address[]"
        },
        {
          "internalType": "uint256[]",
          "name": "_amounts",
          "type": "uint256[]"
        },
        {
          "internalType": "uint256[]",
          "name": "_periods",
          "type": "uint256[]"
        },
        {
          "internalType": "uint256[]",
          "name": "_dailyInterests",
          "type": "uint256[]"
        }
      ],
      "name": "addLoans",
      "outputs": [],
      "stateMutability": "nonpayable",
      "type": "function"
    },
    {
      "inputs": [
        {
          "internalType": "address[]",
          "name": "_managerAddresses",
          "type": "address[]"
        }
      ],
      "name": "addManagers",
      "outputs": [],
      "stateMutability": "nonpayable",
      "type": "function"
    },
    {
      "inputs": [],
      "name": "cUSD",
      "outputs": [
        {
          "internalType": "contract IERC20Upgradeable",
          "name": "",
          "type": "address"
        }
      ],
      "stateMutability": "view",
      "type": "function"
    },
    {
      "inputs": [
        {
          "internalType": "address",
          "name": "_oldWalletAddress",
          "type": "address"
        },
        {
          "internalType": "address",
          "name": "_newWalletAddress",
          "type": "address"
        }
      ],
      "name": "changeUserAddress",
      "outputs": [],
      "stateMutability": "nonpayable",
      "type": "function"
    },
    {
      "inputs": [
        {
          "internalType": "uint256",
          "name": "_loanId",
          "type": "uint256"
        }
      ],
      "name": "claimLoan",
      "outputs": [],
      "stateMutability": "nonpayable",
      "type": "function"
    },
    {
      "inputs": [],
      "name": "getVersion",
      "outputs": [
        {
          "internalType": "uint256",
          "name": "",
          "type": "uint256"
        }
      ],
      "stateMutability": "pure",
      "type": "function"
    },
    {
      "inputs": [
        {
          "internalType": "address",
          "name": "_cUSDAddress",
          "type": "address"
        },
        {
          "internalType": "address",
          "name": "_revenueAddress",
          "type": "address"
        }
      ],
      "name": "initialize",
      "outputs": [],
      "stateMutability": "nonpayable",
      "type": "function"
    },
    {
      "inputs": [
        {
          "internalType": "uint256",
          "name": "_index",
          "type": "uint256"
        }
      ],
      "name": "managerListAt",
      "outputs": [
        {
          "internalType": "address",
          "name": "",
          "type": "address"
        }
      ],
      "stateMutability": "view",
      "type": "function"
    },
    {
      "inputs": [],
      "name": "managerListLength",
      "outputs": [
        {
          "internalType": "uint256",
          "name": "",
          "type": "uint256"
        }
      ],
      "stateMutability": "view",
      "type": "function"
    },
    {
      "inputs": [],
      "name": "owner",
      "outputs": [
        {
          "internalType": "address",
          "name": "",
          "type": "address"
        }
      ],
      "stateMutability": "view",
      "type": "function"
    },
    {
      "inputs": [],
      "name": "paused",
      "outputs": [
        {
          "internalType": "bool",
          "name": "",
          "type": "bool"
        }
      ],
      "stateMutability": "view",
      "type": "function"
    },
    {
      "inputs": [
        {
          "internalType": "address[]",
          "name": "_managerAddresses",
          "type": "address[]"
        }
      ],
      "name": "removeManagers",
      "outputs": [],
      "stateMutability": "nonpayable",
      "type": "function"
    },
    {
      "inputs": [],
      "name": "renounceOwnership",
      "outputs": [],
      "stateMutability": "nonpayable",
      "type": "function"
    },
    {
      "inputs": [
        {
          "internalType": "uint256",
          "name": "_loanId",
          "type": "uint256"
        },
        {
          "internalType": "uint256",
          "name": "_repaymentAmount",
          "type": "uint256"
        }
      ],
      "name": "repayLoan",
      "outputs": [],
      "stateMutability": "nonpayable",
      "type": "function"
    },
    {
      "inputs": [],
      "name": "revenueAddress",
      "outputs": [
        {
          "internalType": "address",
          "name": "",
          "type": "address"
        }
      ],
      "stateMutability": "view",
      "type": "function"
    },
    {
      "inputs": [
        {
          "internalType": "contract IERC20Upgradeable",
          "name": "_token",
          "type": "address"
        },
        {
          "internalType": "address",
          "name": "_to",
          "type": "address"
        },
        {
          "internalType": "uint256",
          "name": "_amount",
          "type": "uint256"
        }
      ],
      "name": "transferERC20",
      "outputs": [],
      "stateMutability": "nonpayable",
      "type": "function"
    },
    {
      "inputs": [
        {
          "internalType": "address",
          "name": "newOwner",
          "type": "address"
        }
      ],
      "name": "transferOwnership",
      "outputs": [],
      "stateMutability": "nonpayable",
      "type": "function"
    },
    {
      "inputs": [
        {
          "internalType": "address",
          "name": "_newRevenueAddress",
          "type": "address"
        }
      ],
      "name": "updateRevenueAddress",
      "outputs": [],
      "stateMutability": "nonpayable",
      "type": "function"
    },
    {
      "inputs": [
        {
          "internalType": "address",
          "name": "_userAddress",
          "type": "address"
        },
        {
          "internalType": "uint256",
          "name": "_loanId",
          "type": "uint256"
        },
        {
          "internalType": "uint256",
          "name": "_repaymentId",
          "type": "uint256"
        }
      ],
      "name": "userLoanRepayments",
      "outputs": [
        {
          "internalType": "uint256",
          "name": "date",
          "type": "uint256"
        },
        {
          "internalType": "uint256",
          "name": "amount",
          "type": "uint256"
        }
      ],
      "stateMutability": "view",
      "type": "function"
    },
    {
      "inputs": [
        {
          "internalType": "address",
          "name": "_userAddress",
          "type": "address"
        },
        {
          "internalType": "uint256",
          "name": "_loanId",
          "type": "uint256"
        }
      ],
      "name": "userLoans",
      "outputs": [
        {
          "internalType": "uint256",
          "name": "amountBorrowed",
          "type": "uint256"
        },
        {
          "internalType": "uint256",
          "name": "period",
          "type": "uint256"
        },
        {
          "internalType": "uint256",
          "name": "dailyInterest",
          "type": "uint256"
        },
        {
          "internalType": "uint256",
          "name": "startDate",
          "type": "uint256"
        },
        {
          "internalType": "uint256",
          "name": "currentDebt",
          "type": "uint256"
        },
        {
          "internalType": "uint256",
          "name": "lastComputedDebt",
          "type": "uint256"
        },
        {
          "internalType": "uint256",
          "name": "amountRepayed",
          "type": "uint256"
        },
        {
          "internalType": "uint256",
          "name": "repaymentsLength",
          "type": "uint256"
        },
        {
          "internalType": "uint256",
          "name": "lastComputedDate",
          "type": "uint256"
        }
      ],
      "stateMutability": "view",
      "type": "function"
    },
    {
      "inputs": [
        {
          "internalType": "uint256",
          "name": "_index",
          "type": "uint256"
        }
      ],
      "name": "walletListAt",
      "outputs": [
        {
          "internalType": "address",
          "name": "",
          "type": "address"
        }
      ],
      "stateMutability": "view",
      "type": "function"
    },
    {
      "inputs": [],
      "name": "walletListLength",
      "outputs": [
        {
          "internalType": "uint256",
          "name": "",
          "type": "uint256"
        }
      ],
      "stateMutability": "view",
      "type": "function"
    },
    {
      "inputs": [
        {
          "internalType": "address",
          "name": "_userAddress",
          "type": "address"
        }
      ],
      "name": "walletMetadata",
      "outputs": [
        {
          "internalType": "uint256",
          "name": "userId",
          "type": "uint256"
        },
        {
          "internalType": "address",
          "name": "movedTo",
          "type": "address"
        },
        {
          "internalType": "uint256",
          "name": "loansLength",
          "type": "uint256"
        }
      ],
      "stateMutability": "view",
      "type": "function"
    }
  ],
  "transactionHash": "0x3d2ece44c5316fea50ae8b14e1f1d7834c6dc85a45b785c822a521dd1b492b2e",
  "args": [],
  "numDeployments": 4,
  "solcInputHash": "b9b1524c09e7c8f59bd01ec7f6d9211e",
  "bytecode": "0x608060405234801561001057600080fd5b506124df806100206000396000f3fe608060405234801561001057600080fd5b50600436106101585760003560e01c806378d5bcc1116100c3578063adb971261161007c578063adb971261461032a578063b410908d1461033d578063d8bad5bd14610350578063eef1b515146103a7578063f2fde38b146103ba578063fdd28859146103cd57600080fd5b806378d5bcc1146102a55780638a700b53146102cd5780638c5f9e74146102e05780638da5cb5b146102f35780639db5dbe414610304578063ad24a3361461031757600080fd5b806353a469b31161011557806353a469b3146101e15780635c975abb146101f457806360c4477a1461020a5780636323f5e91461021257806368fcaf841461028a578063715018a61461029d57600080fd5b80630d8e6e2c1461015d57806310f3ee29146101735780631fccf672146101885780632861c704146101b3578063387d0263146101c6578063485cc955146101ce575b600080fd5b60015b6040519081526020015b60405180910390f35b610186610181366004612080565b6103e0565b005b60c95461019b906001600160a01b031681565b6040516001600160a01b03909116815260200161016a565b6101866101c13660046120c0565b610478565b6101606105d8565b6101866101dc366004611faf565b6105e9565b6101866101ef3660046121df565b6106ec565b60655460ff16604051901515815260200161016a565b610160610856565b610267610220366004611f93565b6001600160a01b03908116600090815260cc6020908152604080832081518083018352815480825260019092015490951694830185905280845260cb909252909120549092565b604080519384526001600160a01b0390921660208401529082015260600161016a565b61019b6102983660046121df565b610862565b610186610875565b6102b86102b3366004612012565b6108ab565b6040805192835260208301919091520161016a565b6101866102db3660046121f7565b610b00565b6101866102ee366004612080565b610f0a565b6033546001600160a01b031661019b565b61018661031236600461219f565b610f93565b610186610325366004612046565b611003565b61019b6103383660046121df565b611036565b60d15461019b906001600160a01b031681565b61036361035e366004611fe7565b611043565b60408051998a5260208a0198909852968801959095526060870193909352608086019190915260a085015260c084015260e08301526101008201526101200161016a565b6101866103b5366004611faf565b61122c565b6101866103c8366004611f93565b6113d1565b6101866103db366004611f93565b61146c565b6033546001600160a01b031633146104135760405162461bcd60e51b815260040161040a906122fb565b60405180910390fd5b8060005b818110156104725761045f84848381811061044257634e487b7160e01b600052603260045260246000fd5b90506020020160208101906104579190611f93565b60cf906114b8565b508061046a81612463565b915050610417565b50505050565b61048360cf336114d4565b61049f5760405162461bcd60e51b815260040161040a90612267565b868581146104bf5760405162461bcd60e51b815260040161040a906122ab565b8084146104de5760405162461bcd60e51b815260040161040a906122ab565b8082146104fd5760405162461bcd60e51b815260040161040a906122ab565b60005b818110156105cc576105ba8a8a8381811061052b57634e487b7160e01b600052603260045260246000fd5b90506020020160208101906105409190611f93565b89898481811061056057634e487b7160e01b600052603260045260246000fd5b9050602002013588888581811061058757634e487b7160e01b600052603260045260246000fd5b905060200201358787868181106105ae57634e487b7160e01b600052603260045260246000fd5b905060200201356114f6565b806105c481612463565b915050610500565b50505050505050505050565b60006105e460cf61163f565b905090565b600054610100900460ff166106045760005460ff1615610608565b303b155b61066b5760405162461bcd60e51b815260206004820152602e60248201527f496e697469616c697a61626c653a20636f6e747261637420697320616c72656160448201526d191e481a5b9a5d1a585b1a5e995960921b606482015260840161040a565b600054610100900460ff1615801561068d576000805461ffff19166101011790555b610695611649565b61069d611680565b6106a56116b7565b60c980546001600160a01b038086166001600160a01b03199283161790925560d180549285169290911691909117905580156106e7576000805461ff00191690555b505050565b6002609754141561070f5760405162461bcd60e51b815260040161040a9061237b565b600260975561071e33826116e6565b33600090815260cc602090815260408083208151808301835281548082526001909201546001600160a01b03168185015290845260cb909252822080549192909182908590811061077f57634e487b7160e01b600052603260045260246000fd5b9060005260206000209060070201905080600301546000146107ed5760405162461bcd60e51b815260206004820152602160248201527f4d6963726f6372656469743a204c6f616e20616c726561647920636c61696d656044820152601960fa1b606482015260840161040a565b42600382015580546004820181905560c954610816916001600160a01b039091169033906118fe565b60405184815233907fba0cbe8ef8ef3c6984adc684d0c9b9a4d2d4c79b4678b63c38651fa48d21c62c9060200160405180910390a2505060016097555050565b60006105e460cd61163f565b600061086f60cf83611961565b92915050565b6033546001600160a01b0316331461089f5760405162461bcd60e51b815260040161040a906122fb565b6108a9600061196d565b565b6000806108b885856116e6565b6001600160a01b03808616600090815260cc6020908152604080832081518083018352815480825260019092015490951685840152835260cb8252808320815181548085028201840184529381018481529093919284928491879085015b828210156109f757838290600052602060002090600702016040518060e001604052908160008201548152602001600182015481526020016002820154815260200160038201548152602001600482015481526020016005820154815260200160068201805480602002602001604051908101604052809291908181526020016000905b828210156109e05783829060005260206000209060020201604051806040016040529081600082015481526020016001820154815250508152602001906001019061099a565b505050508152505081526020019060010190610916565b50505050815250509050600081600001518781518110610a2757634e487b7160e01b600052603260045260246000fd5b60200260200101519050858160c001515111610a915760405162461bcd60e51b8152602060048201526024808201527f4d6963726f6372656469743a2052657061796d656e7420646f65736e277420656044820152631e1a5cdd60e21b606482015260840161040a565b8060c001518681518110610ab557634e487b7160e01b600052603260045260246000fd5b60200260200101516000015194508060c001518681518110610ae757634e487b7160e01b600052603260045260246000fd5b6020026020010151602001519350505050935093915050565b60026097541415610b235760405162461bcd60e51b815260040161040a9061237b565b600260975580610b755760405162461bcd60e51b815260206004820152601b60248201527f4d6963726f6372656469743a20496e76616c696420616d6f756e740000000000604482015260640161040a565b610b7f33836116e6565b33600090815260cc602090815260408083208151808301835281548082526001909201546001600160a01b03168185015290845260cb9092528220805491929091829086908110610be057634e487b7160e01b600052603260045260246000fd5b906000526020600020906007020190506000816003015411610c445760405162461bcd60e51b815260206004820152601d60248201527f4d6963726f6372656469743a204c6f616e206e6f7420636c61696d6564000000604482015260640161040a565b6000816004015411610cb15760405162461bcd60e51b815260206004820152603060248201527f4d6963726f6372656469743a204c6f616e2068617320616c726561647920626560448201526f195b88199d5b1b1e481c995c185e595960821b606482015260840161040a565b6000610d76826040518060e001604052908160008201548152602001600182015481526020016002820154815260200160038201548152602001600482015481526020016005820154815260200160068201805480602002602001604051908101604052809291908181526020016000905b82821015610d6957838290600052602060002090600202016040518060400160405290816000820154815260200160018201548152505081526020019060010190610d23565b50505050815250506119bf565b905084811015610d84578094505b6000808360000154878560050154610d9c91906123b2565b111580610db2575060d1546001600160a01b0316155b15610dd45760c954610dcf906001600160a01b031633308a611a68565b610e5f565b8354600585015410610dff5760d15460c954610dcf916001600160a01b03918216913391168a611a68565b60058401548454600091610e1291612409565b60c954909150610e2d906001600160a01b0316333084611a68565b60d154610e5d9033906001600160a01b0316610e49848c612409565b60c9546001600160a01b0316929190611a68565b505b600684018054600181810183556000928352602090922042600290920201908155908101889055610e908885612409565b856004018190555087856005016000828254610eac91906123b2565b90915550506004850154604080518b8152602081018b90529081019190915233907f36bd188317b9b3af98bbc5bfd88a0bccb96582fa2c955815ea9916dfeeb02d9e9060600160405180910390a25050600160975550505050505050565b6033546001600160a01b03163314610f345760405162461bcd60e51b815260040161040a906122fb565b8060005b8181101561047257610f80848483818110610f6357634e487b7160e01b600052603260045260246000fd5b9050602002016020810190610f789190611f93565b60cf90611aa0565b5080610f8b81612463565b915050610f38565b60026097541415610fb65760405162461bcd60e51b815260040161040a9061237b565b60026097556033546001600160a01b03163314610fe55760405162461bcd60e51b815260040161040a906122fb565b610ff96001600160a01b03841683836118fe565b5050600160975550565b61100e60cf336114d4565b61102a5760405162461bcd60e51b815260040161040a90612267565b610472848484846114f6565b600061086f60cd83611961565b600080600080600080600080600061105b8b8b6116e6565b6001600160a01b03808c16600090815260cc6020908152604080832081518083018352815480825260019092015490951685840152835260cb8252808320815181548085028201840184529381018481529093919284928491879085015b8282101561119a57838290600052602060002090600702016040518060e001604052908160008201548152602001600182015481526020016002820154815260200160038201548152602001600482015481526020016005820154815260200160068201805480602002602001604051908101604052809291908181526020016000905b828210156111835783829060005260206000209060020201604051806040016040529081600082015481526020016001820154815250508152602001906001019061113d565b5050505081525050815260200190600101906110b9565b50505050815250509050600081600001518d815181106111ca57634e487b7160e01b600052603260045260246000fd5b6020026020010151905080600001519b5080602001519a50806040015199508060600151985080608001519650611200816119bf565b97508060a0015195508060c0015151945061121a81611ab5565b93505050509295985092959850929598565b61123760cf336114d4565b6112535760405162461bcd60e51b815260040161040a90612267565b6001600160a01b038216600090815260cc60205260409020805415801590611286575060018101546001600160a01b0316155b6112e15760405162461bcd60e51b815260206004820152602660248201527f4d6963726f6372656469743a205468697320757365722063616e6e6f74206265604482015265081b5bdd995960d21b606482015260840161040a565b6001600160a01b038216600090815260cc6020526040902080541561135e5760405162461bcd60e51b815260206004820152602d60248201527f4d6963726f6372656469743a205461726765742077616c6c657420616464726560448201526c1cdcc81a5cc81a5b9d985b1a59609a1b606482015260840161040a565b6001820180546001600160a01b0319166001600160a01b0385161790558154815561138a60cd84611aa0565b50826001600160a01b0316846001600160a01b03167ffe697da51e9b8089b3ac92361b06886b93f48f935848aa4da1148c15b262840a60405160405180910390a350505050565b6033546001600160a01b031633146113fb5760405162461bcd60e51b815260040161040a906122fb565b6001600160a01b0381166114605760405162461bcd60e51b815260206004820152602660248201527f4f776e61626c653a206e6577206f776e657220697320746865207a65726f206160448201526564647265737360d01b606482015260840161040a565b6114698161196d565b50565b6033546001600160a01b031633146114965760405162461bcd60e51b815260040161040a906122fb565b60d180546001600160a01b0319166001600160a01b0392909216919091179055565b60006114cd836001600160a01b038416611b10565b9392505050565b6001600160a01b038116600090815260018301602052604081205415156114cd565b6001600160a01b03808516600090815260cc602052604090206001810154909116156115705760405162461bcd60e51b8152602060048201526024808201527f4d6963726f6372656469743a20546865207573657220686173206265656e206d6044820152631bdd995960e21b606482015260840161040a565b805461159d5760ca805490600061158683612463565b909155505060ca54815561159b60cd86611aa0565b505b8054600090815260cb60209081526040822080546001818101835582855292909320600790930290920186815580820186905560028101859055825490916001600160a01b038916917f28c82544893116bbf3f89cdde52b62687f804335d0e316a8ce0a5dbe74c11ccd9161161191612409565b60408051918252602082018a905281018890526060810187905260800160405180910390a250505050505050565b600061086f825490565b600054610100900460ff166116705760405162461bcd60e51b815260040161040a90612330565b611678611c2d565b6108a9611c54565b600054610100900460ff166116a75760405162461bcd60e51b815260040161040a90612330565b6116af611c2d565b6108a9611c84565b600054610100900460ff166116de5760405162461bcd60e51b815260040161040a90612330565b6108a9611cb7565b6001600160a01b03808316600090815260cc602090815260409182902082518084019093528054808452600190910154909316908201529015801590611737575060208101516001600160a01b0316155b61178f5760405162461bcd60e51b815260206004820152602360248201527f4d6963726f6372656469743a20496e76616c69642077616c6c6574206164647260448201526265737360e81b606482015260840161040a565b8051600090815260cb60209081526040808320815181548085028201840184529381018481529093919284928491879085015b828210156118a357838290600052602060002090600702016040518060e001604052908160008201548152602001600182015481526020016002820154815260200160038201548152602001600482015481526020016005820154815260200160068201805480602002602001604051908101604052809291908181526020016000905b8282101561188c57838290600052602060002090600202016040518060400160405290816000820154815260200160018201548152505081526020019060010190611846565b5050505081525050815260200190600101906117c2565b5050509152505080515190915083106104725760405162461bcd60e51b815260206004820152601f60248201527f4d6963726f6372656469743a204c6f616e20646f65736e277420657869737400604482015260640161040a565b6040516001600160a01b0383166024820152604481018290526106e790849063a9059cbb60e01b906064015b60408051601f198184030181529190526020810180516001600160e01b03166001600160e01b031990931692909217909152611ce5565b60006114cd8383611db7565b603380546001600160a01b038381166001600160a01b0319831681179093556040519116919082907f8be0079c531659141344cd1fd0a4f28419497f9722a3daafe3b4186f6b6457e090600090a35050565b60008160800151600014156119d657506000919050565b60006119e183611ab5565b90506000620151806119f38342612409565b6119fd91906123ca565b60808501519091505b8115611a6057670de0b6b3a764000060648660400151611a2691906123ca565b611a3890670de0b6b3a76400006123b2565b611a4290836123ea565b611a4c91906123ca565b905081611a588161244c565b925050611a06565b949350505050565b6040516001600160a01b03808516602483015283166044820152606481018290526104729085906323b872dd60e01b9060840161192a565b60006114cd836001600160a01b038416611def565b6000808260c001515111611acd57816060015161086f565b60c08201518051611ae090600190612409565b81518110611afe57634e487b7160e01b600052603260045260246000fd5b60200260200101516000015192915050565b60008181526001830160205260408120548015611c23576000611b34600183612409565b8554909150600090611b4890600190612409565b9050818114611bc9576000866000018281548110611b7657634e487b7160e01b600052603260045260246000fd5b9060005260206000200154905080876000018481548110611ba757634e487b7160e01b600052603260045260246000fd5b6000918252602080832090910192909255918252600188019052604090208390555b8554869080611be857634e487b7160e01b600052603160045260246000fd5b60019003818190600052602060002001600090559055856001016000868152602001908152602001600020600090556001935050505061086f565b600091505061086f565b600054610100900460ff166108a95760405162461bcd60e51b815260040161040a90612330565b600054610100900460ff16611c7b5760405162461bcd60e51b815260040161040a90612330565b6108a93361196d565b600054610100900460ff16611cab5760405162461bcd60e51b815260040161040a90612330565b6065805460ff19169055565b600054610100900460ff16611cde5760405162461bcd60e51b815260040161040a90612330565b6001609755565b6000611d3a826040518060400160405280602081526020017f5361666545524332303a206c6f772d6c6576656c2063616c6c206661696c6564815250856001600160a01b0316611e3e9092919063ffffffff16565b8051909150156106e75780806020019051810190611d58919061217f565b6106e75760405162461bcd60e51b815260206004820152602a60248201527f5361666545524332303a204552433230206f7065726174696f6e20646964206e6044820152691bdd081cdd58d8d9595960b21b606482015260840161040a565b6000826000018281548110611ddc57634e487b7160e01b600052603260045260246000fd5b9060005260206000200154905092915050565b6000818152600183016020526040812054611e365750815460018181018455600084815260208082209093018490558454848252828601909352604090209190915561086f565b50600061086f565b6060611a60848460008585843b611e975760405162461bcd60e51b815260206004820152601d60248201527f416464726573733a2063616c6c20746f206e6f6e2d636f6e7472616374000000604482015260640161040a565b600080866001600160a01b03168587604051611eb39190612218565b60006040518083038185875af1925050503d8060008114611ef0576040519150601f19603f3d011682016040523d82523d6000602084013e611ef5565b606091505b5091509150611f05828286611f10565b979650505050505050565b60608315611f1f5750816114cd565b825115611f2f5782518084602001fd5b8160405162461bcd60e51b815260040161040a9190612234565b60008083601f840112611f5a578182fd5b50813567ffffffffffffffff811115611f71578182fd5b6020830191508360208260051b8501011115611f8c57600080fd5b9250929050565b600060208284031215611fa4578081fd5b81356114cd81612494565b60008060408385031215611fc1578081fd5b8235611fcc81612494565b91506020830135611fdc81612494565b809150509250929050565b60008060408385031215611ff9578182fd5b823561200481612494565b946020939093013593505050565b600080600060608486031215612026578081fd5b833561203181612494565b95602085013595506040909401359392505050565b6000806000806080858703121561205b578081fd5b843561206681612494565b966020860135965060408601359560600135945092505050565b60008060208385031215612092578182fd5b823567ffffffffffffffff8111156120a8578283fd5b6120b485828601611f49565b90969095509350505050565b6000806000806000806000806080898b0312156120db578384fd5b883567ffffffffffffffff808211156120f2578586fd5b6120fe8c838d01611f49565b909a50985060208b0135915080821115612116578586fd5b6121228c838d01611f49565b909850965060408b013591508082111561213a578586fd5b6121468c838d01611f49565b909650945060608b013591508082111561215e578384fd5b5061216b8b828c01611f49565b999c989b5096995094979396929594505050565b600060208284031215612190578081fd5b815180151581146114cd578182fd5b6000806000606084860312156121b3578283fd5b83356121be81612494565b925060208401356121ce81612494565b929592945050506040919091013590565b6000602082840312156121f0578081fd5b5035919050565b60008060408385031215612209578182fd5b50508035926020909101359150565b6000825161222a818460208701612420565b9190910192915050565b6020815260008251806020840152612253816040850160208701612420565b601f01601f19169190910160400192915050565b60208082526024908201527f4d6963726f6372656469743a2063616c6c6572206973206e6f742061206d616e60408201526330b3b2b960e11b606082015260800190565b60208082526030908201527f4d6963726f6372656469743a2063616c6c6461746120696e666f726d6174696f60408201526f0dc40c2e4d2e8f240dad2e6dac2e8c6d60831b606082015260800190565b6020808252818101527f4f776e61626c653a2063616c6c6572206973206e6f7420746865206f776e6572604082015260600190565b6020808252602b908201527f496e697469616c697a61626c653a20636f6e7472616374206973206e6f74206960408201526a6e697469616c697a696e6760a81b606082015260800190565b6020808252601f908201527f5265656e7472616e637947756172643a207265656e7472616e742063616c6c00604082015260600190565b600082198211156123c5576123c561247e565b500190565b6000826123e557634e487b7160e01b81526012600452602481fd5b500490565b60008160001904831182151516156124045761240461247e565b500290565b60008282101561241b5761241b61247e565b500390565b60005b8381101561243b578181015183820152602001612423565b838111156104725750506000910152565b60008161245b5761245b61247e565b506000190190565b60006000198214156124775761247761247e565b5060010190565b634e487b7160e01b600052601160045260246000fd5b6001600160a01b038116811461146957600080fdfea264697066735822122094c89e78cb8276d8ca730f8e830499b95914971a7bece852fa01c2040ca4941464736f6c63430008040033",
  "devdoc": {
    "kind": "dev",
    "methods": {
      "initialize(address,address)": {
        "params": {
          "_cUSDAddress": "The address of the cUSD token",
          "_revenueAddress": "The address that collects all the interest"
        }
      },
      "managerListAt(uint256)": {
        "params": {
          "_index": "index value"
        },
        "returns": {
          "_0": "address of the manager"
        }
      },
      "owner()": {
        "details": "Returns the address of the current owner."
      },
      "paused()": {
        "details": "Returns true if the contract is paused, and false otherwise."
      },
      "renounceOwnership()": {
        "details": "Leaves the contract without owner. It will not be possible to call `onlyOwner` functions anymore. Can only be called by the current owner. NOTE: Renouncing ownership will leave the contract without an owner, thereby removing any functionality that is only available to the owner."
      },
      "transferERC20(address,address,uint256)": {
        "params": {
          "_amount": "amount of the transaction",
          "_to": "address of the receiver",
          "_token": "address of the ERC20 token"
        }
      },
      "transferOwnership(address)": {
        "details": "Transfers ownership of the contract to a new account (`newOwner`). Can only be called by the current owner."
      },
      "walletListAt(uint256)": {
        "params": {
          "_index": "index value"
        },
        "returns": {
          "_0": "address of the user"
        }
      },
      "walletMetadata(address)": {
        "params": {
          "_userAddress": "address of the user"
        },
        "returns": {
          "loansLength": "          the number of the user's loans",
          "movedTo": "              the number of the user's loans",
          "userId": "               the userId"
        }
      }
    },
    "version": 1
  },
  "userdoc": {
    "kind": "user",
    "methods": {
      "getVersion()": {
        "notice": "Returns the current implementation version"
      },
      "initialize(address,address)": {
        "notice": "Used to initialize the Microcredit contract"
      },
      "managerListAt(uint256)": {
        "notice": "Returns an address from the managerList"
      },
      "managerListLength()": {
        "notice": "Returns the length of the managerList"
      },
      "transferERC20(address,address,uint256)": {
        "notice": "Transfers an amount of an ERC20 from this contract to an address"
      },
      "walletListAt(uint256)": {
        "notice": "Returns an address from the walletList"
      },
      "walletListLength()": {
        "notice": "Returns the length of the walletList"
      },
      "walletMetadata(address)": {
        "notice": "Returns the information of a user"
      }
    },
    "version": 1
  },
  "storageLayout": {
    "storage": [
      {
        "astId": 542,
        "contract": "contracts/microcredit/MicrocreditImplementation.sol:MicrocreditImplementation",
        "label": "_initialized",
        "offset": 0,
        "slot": "0",
        "type": "t_bool"
      },
      {
        "astId": 545,
        "contract": "contracts/microcredit/MicrocreditImplementation.sol:MicrocreditImplementation",
        "label": "_initializing",
        "offset": 1,
        "slot": "0",
        "type": "t_bool"
      },
      {
        "astId": 1370,
        "contract": "contracts/microcredit/MicrocreditImplementation.sol:MicrocreditImplementation",
        "label": "__gap",
        "offset": 0,
        "slot": "1",
        "type": "t_array(t_uint256)50_storage"
      },
      {
        "astId": 420,
        "contract": "contracts/microcredit/MicrocreditImplementation.sol:MicrocreditImplementation",
        "label": "_owner",
        "offset": 0,
        "slot": "51",
        "type": "t_address"
      },
      {
        "astId": 534,
        "contract": "contracts/microcredit/MicrocreditImplementation.sol:MicrocreditImplementation",
        "label": "__gap",
        "offset": 0,
        "slot": "52",
        "type": "t_array(t_uint256)49_storage"
      },
      {
        "astId": 630,
        "contract": "contracts/microcredit/MicrocreditImplementation.sol:MicrocreditImplementation",
        "label": "_paused",
        "offset": 0,
        "slot": "101",
        "type": "t_bool"
      },
      {
        "astId": 721,
        "contract": "contracts/microcredit/MicrocreditImplementation.sol:MicrocreditImplementation",
        "label": "__gap",
        "offset": 0,
        "slot": "102",
        "type": "t_array(t_uint256)49_storage"
      },
      {
        "astId": 736,
        "contract": "contracts/microcredit/MicrocreditImplementation.sol:MicrocreditImplementation",
        "label": "_status",
        "offset": 0,
        "slot": "151",
        "type": "t_uint256"
      },
      {
        "astId": 779,
        "contract": "contracts/microcredit/MicrocreditImplementation.sol:MicrocreditImplementation",
        "label": "__gap",
        "offset": 0,
        "slot": "152",
        "type": "t_array(t_uint256)49_storage"
      },
      {
        "astId": 25767,
        "contract": "contracts/microcredit/MicrocreditImplementation.sol:MicrocreditImplementation",
        "label": "cUSD",
        "offset": 0,
        "slot": "201",
        "type": "t_contract(IERC20Upgradeable)858"
      },
      {
        "astId": 25769,
        "contract": "contracts/microcredit/MicrocreditImplementation.sol:MicrocreditImplementation",
        "label": "_usersLength",
        "offset": 0,
        "slot": "202",
        "type": "t_uint256"
      },
      {
        "astId": 25774,
        "contract": "contracts/microcredit/MicrocreditImplementation.sol:MicrocreditImplementation",
        "label": "_users",
        "offset": 0,
        "slot": "203",
        "type": "t_mapping(t_uint256,t_struct(User)25544_storage)"
      },
      {
        "astId": 25779,
        "contract": "contracts/microcredit/MicrocreditImplementation.sol:MicrocreditImplementation",
        "label": "_walletMetadata",
        "offset": 0,
        "slot": "204",
        "type": "t_mapping(t_address,t_struct(WalletMetadata)25539_storage)"
      },
      {
        "astId": 25782,
        "contract": "contracts/microcredit/MicrocreditImplementation.sol:MicrocreditImplementation",
        "label": "_walletList",
        "offset": 0,
        "slot": "205",
        "type": "t_struct(AddressSet)5505_storage"
      },
      {
        "astId": 25785,
        "contract": "contracts/microcredit/MicrocreditImplementation.sol:MicrocreditImplementation",
        "label": "_managerList",
        "offset": 0,
        "slot": "207",
        "type": "t_struct(AddressSet)5505_storage"
      },
      {
        "astId": 25788,
        "contract": "contracts/microcredit/MicrocreditImplementation.sol:MicrocreditImplementation",
        "label": "revenueAddress",
        "offset": 0,
        "slot": "209",
        "type": "t_address"
      }
    ],
    "types": {
      "t_address": {
        "encoding": "inplace",
        "label": "address",
        "numberOfBytes": "20"
      },
      "t_array(t_bytes32)dyn_storage": {
        "base": "t_bytes32",
        "encoding": "dynamic_array",
        "label": "bytes32[]",
        "numberOfBytes": "32"
      },
      "t_array(t_struct(Loan)25566_storage)dyn_storage": {
        "base": "t_struct(Loan)25566_storage",
        "encoding": "dynamic_array",
        "label": "struct IMicrocredit.Loan[]",
        "numberOfBytes": "32"
      },
      "t_array(t_struct(Repayment)25549_storage)dyn_storage": {
        "base": "t_struct(Repayment)25549_storage",
        "encoding": "dynamic_array",
        "label": "struct IMicrocredit.Repayment[]",
        "numberOfBytes": "32"
      },
      "t_array(t_uint256)49_storage": {
        "base": "t_uint256",
        "encoding": "inplace",
        "label": "uint256[49]",
        "numberOfBytes": "1568"
      },
      "t_array(t_uint256)50_storage": {
        "base": "t_uint256",
        "encoding": "inplace",
        "label": "uint256[50]",
        "numberOfBytes": "1600"
      },
      "t_bool": {
        "encoding": "inplace",
        "label": "bool",
        "numberOfBytes": "1"
      },
      "t_bytes32": {
        "encoding": "inplace",
        "label": "bytes32",
        "numberOfBytes": "32"
      },
      "t_contract(IERC20Upgradeable)858": {
        "encoding": "inplace",
        "label": "contract IERC20Upgradeable",
        "numberOfBytes": "20"
      },
      "t_mapping(t_address,t_struct(WalletMetadata)25539_storage)": {
        "encoding": "mapping",
        "key": "t_address",
        "label": "mapping(address => struct IMicrocredit.WalletMetadata)",
        "numberOfBytes": "32",
        "value": "t_struct(WalletMetadata)25539_storage"
      },
      "t_mapping(t_bytes32,t_uint256)": {
        "encoding": "mapping",
        "key": "t_bytes32",
        "label": "mapping(bytes32 => uint256)",
        "numberOfBytes": "32",
        "value": "t_uint256"
      },
      "t_mapping(t_uint256,t_struct(User)25544_storage)": {
        "encoding": "mapping",
        "key": "t_uint256",
        "label": "mapping(uint256 => struct IMicrocredit.User)",
        "numberOfBytes": "32",
        "value": "t_struct(User)25544_storage"
      },
      "t_struct(AddressSet)5505_storage": {
        "encoding": "inplace",
        "label": "struct EnumerableSet.AddressSet",
        "members": [
          {
            "astId": 5504,
            "contract": "contracts/microcredit/MicrocreditImplementation.sol:MicrocreditImplementation",
            "label": "_inner",
            "offset": 0,
            "slot": "0",
            "type": "t_struct(Set)5204_storage"
          }
        ],
        "numberOfBytes": "64"
      },
      "t_struct(Loan)25566_storage": {
        "encoding": "inplace",
        "label": "struct IMicrocredit.Loan",
        "members": [
          {
            "astId": 25551,
            "contract": "contracts/microcredit/MicrocreditImplementation.sol:MicrocreditImplementation",
            "label": "amountBorrowed",
            "offset": 0,
            "slot": "0",
            "type": "t_uint256"
          },
          {
            "astId": 25553,
            "contract": "contracts/microcredit/MicrocreditImplementation.sol:MicrocreditImplementation",
            "label": "period",
            "offset": 0,
            "slot": "1",
            "type": "t_uint256"
          },
          {
            "astId": 25555,
            "contract": "contracts/microcredit/MicrocreditImplementation.sol:MicrocreditImplementation",
            "label": "dailyInterest",
            "offset": 0,
            "slot": "2",
            "type": "t_uint256"
          },
          {
            "astId": 25557,
            "contract": "contracts/microcredit/MicrocreditImplementation.sol:MicrocreditImplementation",
            "label": "startDate",
            "offset": 0,
            "slot": "3",
            "type": "t_uint256"
          },
          {
            "astId": 25559,
            "contract": "contracts/microcredit/MicrocreditImplementation.sol:MicrocreditImplementation",
            "label": "lastComputedDebt",
            "offset": 0,
            "slot": "4",
            "type": "t_uint256"
          },
          {
            "astId": 25561,
            "contract": "contracts/microcredit/MicrocreditImplementation.sol:MicrocreditImplementation",
            "label": "amountRepayed",
            "offset": 0,
            "slot": "5",
            "type": "t_uint256"
          },
          {
            "astId": 25565,
            "contract": "contracts/microcredit/MicrocreditImplementation.sol:MicrocreditImplementation",
            "label": "repayments",
            "offset": 0,
            "slot": "6",
            "type": "t_array(t_struct(Repayment)25549_storage)dyn_storage"
          }
        ],
        "numberOfBytes": "224"
      },
      "t_struct(Repayment)25549_storage": {
        "encoding": "inplace",
        "label": "struct IMicrocredit.Repayment",
        "members": [
          {
            "astId": 25546,
            "contract": "contracts/microcredit/MicrocreditImplementation.sol:MicrocreditImplementation",
            "label": "date",
            "offset": 0,
            "slot": "0",
            "type": "t_uint256"
          },
          {
            "astId": 25548,
            "contract": "contracts/microcredit/MicrocreditImplementation.sol:MicrocreditImplementation",
            "label": "amount",
            "offset": 0,
            "slot": "1",
            "type": "t_uint256"
          }
        ],
        "numberOfBytes": "64"
      },
      "t_struct(Set)5204_storage": {
        "encoding": "inplace",
        "label": "struct EnumerableSet.Set",
        "members": [
          {
            "astId": 5199,
            "contract": "contracts/microcredit/MicrocreditImplementation.sol:MicrocreditImplementation",
            "label": "_values",
            "offset": 0,
            "slot": "0",
            "type": "t_array(t_bytes32)dyn_storage"
          },
          {
            "astId": 5203,
            "contract": "contracts/microcredit/MicrocreditImplementation.sol:MicrocreditImplementation",
            "label": "_indexes",
            "offset": 0,
            "slot": "1",
            "type": "t_mapping(t_bytes32,t_uint256)"
          }
        ],
        "numberOfBytes": "64"
      },
      "t_struct(User)25544_storage": {
        "encoding": "inplace",
        "label": "struct IMicrocredit.User",
        "members": [
          {
            "astId": 25543,
            "contract": "contracts/microcredit/MicrocreditImplementation.sol:MicrocreditImplementation",
            "label": "loans",
            "offset": 0,
            "slot": "0",
            "type": "t_array(t_struct(Loan)25566_storage)dyn_storage"
          }
        ],
        "numberOfBytes": "32"
      },
      "t_struct(WalletMetadata)25539_storage": {
        "encoding": "inplace",
        "label": "struct IMicrocredit.WalletMetadata",
        "members": [
          {
            "astId": 25536,
            "contract": "contracts/microcredit/MicrocreditImplementation.sol:MicrocreditImplementation",
            "label": "userId",
            "offset": 0,
            "slot": "0",
            "type": "t_uint256"
          },
          {
            "astId": 25538,
            "contract": "contracts/microcredit/MicrocreditImplementation.sol:MicrocreditImplementation",
            "label": "movedTo",
            "offset": 0,
            "slot": "1",
            "type": "t_address"
          }
        ],
        "numberOfBytes": "64"
      },
      "t_uint256": {
        "encoding": "inplace",
        "label": "uint256",
        "numberOfBytes": "32"
      }
    }
  }
}