{
  "address": "0xA18B57168706eBD6f022735abDf0E95C251159a1",
  "abi": [
    {
      "anonymous": false,
      "inputs": [
        {
          "indexed": true,
          "internalType": "uint256",
          "name": "campaignId",
          "type": "uint256"
        },
        {
          "indexed": false,
          "internalType": "uint256",
          "name": "startTime",
          "type": "uint256"
        },
        {
          "indexed": false,
          "internalType": "uint256",
          "name": "endTime",
          "type": "uint256"
        },
        {
          "indexed": false,
          "internalType": "uint256",
          "name": "rewardAmount",
          "type": "uint256"
        },
        {
          "indexed": false,
          "internalType": "uint256",
          "name": "maxReferralLinks",
          "type": "uint256"
        }
      ],
      "name": "CampaignAdded",
      "type": "event"
    },
    {
      "anonymous": false,
      "inputs": [
        {
          "indexed": true,
          "internalType": "uint256",
          "name": "campaignId",
          "type": "uint256"
        },
        {
          "indexed": true,
          "internalType": "address",
          "name": "sender",
          "type": "address"
        },
        {
          "indexed": false,
          "internalType": "uint256",
          "name": "amount",
          "type": "uint256"
        }
      ],
      "name": "CampaignFunded",
      "type": "event"
    },
    {
      "anonymous": false,
      "inputs": [
        {
          "indexed": true,
          "internalType": "uint256",
          "name": "campaignId",
          "type": "uint256"
        },
        {
          "indexed": true,
          "internalType": "enum IReferralLink.CampaignState",
          "name": "state",
          "type": "uint8"
        }
      ],
      "name": "CampaignStateChanged",
      "type": "event"
    },
    {
      "anonymous": false,
      "inputs": [
        {
          "indexed": true,
          "internalType": "address",
          "name": "previousOwner",
          "type": "address"
        },
        {
          "indexed": true,
          "internalType": "address",
          "name": "newOwner",
          "type": "address"
        }
      ],
      "name": "OwnershipTransferred",
      "type": "event"
    },
    {
      "anonymous": false,
      "inputs": [
        {
          "indexed": false,
          "internalType": "address",
          "name": "account",
          "type": "address"
        }
      ],
      "name": "Paused",
      "type": "event"
    },
    {
      "anonymous": false,
      "inputs": [
        {
          "indexed": true,
          "internalType": "address",
          "name": "sender",
          "type": "address"
        },
        {
          "indexed": true,
          "internalType": "uint256",
          "name": "campaignId",
          "type": "uint256"
        },
        {
          "indexed": false,
          "internalType": "address",
          "name": "receiverAddress",
          "type": "address"
        }
      ],
      "name": "RewardClaimed",
      "type": "event"
    },
    {
      "anonymous": false,
      "inputs": [
        {
          "indexed": false,
          "internalType": "address",
          "name": "account",
          "type": "address"
        }
      ],
      "name": "Unpaused",
      "type": "event"
    },
    {
      "inputs": [
        {
          "internalType": "contract IERC20Upgradeable",
          "name": "_token",
          "type": "address"
        },
        {
          "internalType": "uint256",
          "name": "_startTime",
          "type": "uint256"
        },
        {
          "internalType": "uint256",
          "name": "_endTime",
          "type": "uint256"
        },
        {
          "internalType": "uint256",
          "name": "_rewardAmount",
          "type": "uint256"
        },
        {
          "internalType": "uint256",
          "name": "_maxReferralLinks",
          "type": "uint256"
        }
      ],
      "name": "addCampaign",
      "outputs": [],
      "stateMutability": "nonpayable",
      "type": "function"
    },
    {
      "inputs": [
        {
          "internalType": "uint256",
          "name": "_campaignId",
          "type": "uint256"
        },
        {
          "internalType": "address",
          "name": "_senderAddress",
          "type": "address"
        }
      ],
      "name": "campaignReferralLinks",
      "outputs": [
        {
          "internalType": "uint256",
          "name": "",
          "type": "uint256"
        }
      ],
      "stateMutability": "view",
      "type": "function"
    },
    {
      "inputs": [
        {
          "internalType": "uint256",
          "name": "_campaignId",
          "type": "uint256"
        }
      ],
      "name": "campaigns",
      "outputs": [
        {
          "internalType": "contract IERC20Upgradeable",
          "name": "token",
          "type": "address"
        },
        {
          "internalType": "uint256",
          "name": "balance",
          "type": "uint256"
        },
        {
          "internalType": "enum IReferralLink.CampaignState",
          "name": "state",
          "type": "uint8"
        },
        {
          "internalType": "uint256",
          "name": "startTime",
          "type": "uint256"
        },
        {
          "internalType": "uint256",
          "name": "endTime",
          "type": "uint256"
        },
        {
          "internalType": "uint256",
          "name": "rewardAmount",
          "type": "uint256"
        },
        {
          "internalType": "uint256",
          "name": "maxReferralLinks",
          "type": "uint256"
        }
      ],
      "stateMutability": "view",
      "type": "function"
    },
    {
      "inputs": [],
      "name": "campaignsLength",
      "outputs": [
        {
          "internalType": "uint256",
          "name": "",
          "type": "uint256"
        }
      ],
      "stateMutability": "view",
      "type": "function"
    },
    {
      "inputs": [
        {
          "internalType": "uint256",
          "name": "_campaignId",
          "type": "uint256"
        },
        {
          "internalType": "address",
          "name": "_fundRecipient",
          "type": "address"
        }
      ],
      "name": "cancelCampaign",
      "outputs": [],
      "stateMutability": "nonpayable",
      "type": "function"
    },
    {
      "inputs": [
        {
          "internalType": "address",
          "name": "_sender",
          "type": "address"
        },
        {
          "internalType": "uint256[]",
          "name": "_campaignIds",
          "type": "uint256[]"
        },
        {
          "internalType": "address[]",
          "name": "_newUserAddresses",
          "type": "address[]"
        },
        {
          "internalType": "bytes[]",
          "name": "_signatures",
          "type": "bytes[]"
        }
      ],
      "name": "claimReward",
      "outputs": [],
      "stateMutability": "nonpayable",
      "type": "function"
    },
    {
      "inputs": [
        {
          "internalType": "uint256",
          "name": "_campaignId",
          "type": "uint256"
        },
        {
          "internalType": "uint256",
          "name": "_amount",
          "type": "uint256"
        }
      ],
      "name": "fundCampaign",
      "outputs": [],
      "stateMutability": "nonpayable",
      "type": "function"
    },
    {
      "inputs": [],
      "name": "getVersion",
      "outputs": [
        {
          "internalType": "uint256",
          "name": "",
          "type": "uint256"
        }
      ],
      "stateMutability": "pure",
      "type": "function"
    },
    {
      "inputs": [
        {
          "internalType": "address",
          "name": "_signerWalletAddress",
          "type": "address"
        },
        {
          "internalType": "address",
          "name": "_socialConnectAddress",
          "type": "address"
        },
        {
          "internalType": "address",
          "name": "_socialConnectIssuer",
          "type": "address"
        }
      ],
      "name": "initialize",
      "outputs": [],
      "stateMutability": "nonpayable",
      "type": "function"
    },
    {
      "inputs": [],
      "name": "owner",
      "outputs": [
        {
          "internalType": "address",
          "name": "",
          "type": "address"
        }
      ],
      "stateMutability": "view",
      "type": "function"
    },
    {
      "inputs": [],
      "name": "pause",
      "outputs": [],
      "stateMutability": "nonpayable",
      "type": "function"
    },
    {
      "inputs": [
        {
          "internalType": "uint256",
          "name": "_campaignId",
          "type": "uint256"
        }
      ],
      "name": "pauseCampaign",
      "outputs": [],
      "stateMutability": "nonpayable",
      "type": "function"
    },
    {
      "inputs": [],
      "name": "paused",
      "outputs": [
        {
          "internalType": "bool",
          "name": "",
          "type": "bool"
        }
      ],
      "stateMutability": "view",
      "type": "function"
    },
    {
      "inputs": [],
      "name": "renounceOwnership",
      "outputs": [],
      "stateMutability": "nonpayable",
      "type": "function"
    },
    {
      "inputs": [],
      "name": "signerWalletAddress",
      "outputs": [
        {
          "internalType": "address",
          "name": "",
          "type": "address"
        }
      ],
      "stateMutability": "view",
      "type": "function"
    },
    {
      "inputs": [],
      "name": "socialConnect",
      "outputs": [
        {
          "internalType": "contract ISocialConnect",
          "name": "",
          "type": "address"
        }
      ],
      "stateMutability": "view",
      "type": "function"
    },
    {
      "inputs": [],
      "name": "socialConnectIssuer",
      "outputs": [
        {
          "internalType": "address",
          "name": "",
          "type": "address"
        }
      ],
      "stateMutability": "view",
      "type": "function"
    },
    {
      "inputs": [
        {
          "internalType": "address",
          "name": "newOwner",
          "type": "address"
        }
      ],
      "name": "transferOwnership",
      "outputs": [],
      "stateMutability": "nonpayable",
      "type": "function"
    },
    {
      "inputs": [],
      "name": "unpause",
      "outputs": [],
      "stateMutability": "nonpayable",
      "type": "function"
    },
    {
      "inputs": [
        {
          "internalType": "uint256",
          "name": "_campaignId",
          "type": "uint256"
        }
      ],
      "name": "unpauseCampaign",
      "outputs": [],
      "stateMutability": "nonpayable",
      "type": "function"
    },
    {
      "inputs": [
        {
          "internalType": "address",
          "name": "_newSignerWalletAddress",
          "type": "address"
        }
      ],
      "name": "updateSignerWalletAddress",
      "outputs": [],
      "stateMutability": "nonpayable",
      "type": "function"
    },
    {
      "inputs": [
        {
          "internalType": "uint256",
          "name": "index",
          "type": "uint256"
        }
      ],
      "name": "verifiedUsersAt",
      "outputs": [
        {
          "internalType": "address",
          "name": "",
          "type": "address"
        }
      ],
      "stateMutability": "view",
      "type": "function"
    },
    {
      "inputs": [],
      "name": "verifiedUsersLength",
      "outputs": [
        {
          "internalType": "uint256",
          "name": "",
          "type": "uint256"
        }
      ],
      "stateMutability": "view",
      "type": "function"
    }
  ],
  "transactionHash": "0x7901ea4066867e78489756fa8860cbb404890dfe0a971c3523500b2e417612fb",
  "args": [],
  "numDeployments": 2,
  "solcInputHash": "8eb68639e18274e537dbca16f6c4740f",
  "bytecode": "0x608060405234801561001057600080fd5b50612429806100206000396000f3fe608060405234801561001057600080fd5b506004361061014d5760003560e01c806371305f19116100c3578063af2bc4381161007c578063af2bc43814610308578063b78589a51461031b578063c0c53b8b1461032e578063de99347a14610341578063f2fde38b14610354578063fcd343471461036757600080fd5b806371305f19146102ae578063715018a6146102c15780638456cb59146102c95780638da5cb5b146102d1578063918eab15146102e25780639f2b30cf146102f557600080fd5b80633f4ba83a116101155780633f4ba83a1461022757806343a19a651461022f5780634c010a73146102425780635c975abb146102555780635f3179c31461026b578063653eab451461027457600080fd5b80630d8e6e2c14610152578063141961bc14610168578063172c78ca146101d45780633650eb4a146101e957806339e9412f14610214575b600080fd5b60015b6040519081526020015b60405180910390f35b6101c1610176366004612051565b600090815260cd602052604090208054600182015460028301546003840154600485015460058601546006909601546001600160a01b0390951696939560ff90931694919390929190565b60405161015f9796959493929190612131565b6101e76101e236600461200e565b61036f565b005b6101fc6101f7366004612051565b6104da565b6040516001600160a01b03909116815260200161015f565b6101e7610222366004612069565b6104ed565b6101e76105fe565b6101e761023d366004612051565b610632565b6101e7610250366004611e88565b6106f1565b60335460ff16604051901515815260200161015f565b61015560cc5481565b610155610282366004612069565b600082815260cd602090815260408083206001600160a01b038516845260070190915290205492915050565b60ca546101fc906001600160a01b031681565b6101e7610e15565b6101e7610e49565b6065546001600160a01b03166101fc565b6101e76102f0366004612098565b610e7b565b60c9546101fc906001600160a01b031681565b6101e7610316366004611e22565b610f6b565b60cb546101fc906001600160a01b031681565b6101e761033c366004611e3e565b610fb7565b6101e761034f366004612051565b6110c8565b6101e7610362366004611e22565b61115a565b6101556111f5565b6065546001600160a01b031633146103a25760405162461bcd60e51b815260040161039990612203565b60405180910390fd5b82841080156103b057504283115b6103fc5760405162461bcd60e51b815260206004820152601b60248201527f526566657272616c4c696e6b3a20496e76616c696420646174657300000000006044820152606401610399565b60cc8054600090815260cd60209081526040808320600201805460ff191660011790558354835280832080546001600160a01b038b166001600160a01b031990911617905583548352808320600301889055835483528083206004018790558354835280832060050186905583548352918290206006018490559154815187815292830186905290820184905260608201839052907f5c91d3db3f731617bc1ce767bc4c8472babd00c67525f7be6bd15587a83a114c9060800160405180910390a260cc80549060006104ce83612397565b91905055505050505050565b60006104e760ce83611206565b92915050565b6065546001600160a01b031633146105175760405162461bcd60e51b815260040161039990612203565b600082815260cd602052604090206001600282015460ff16600381111561054e57634e487b7160e01b600052602160045260246000fd5b148061057f575060028082015460ff16600381111561057d57634e487b7160e01b600052602160045260246000fd5b145b61059b5760405162461bcd60e51b8152600401610399906121c2565b60028101805460ff19166003179055600181018054600090915581546105cb906001600160a01b03168483611219565b600360405185907f7c387a42b7678e1b26d65927d4a0176444d9c6509a72583dee248753b768db4190600090a350505050565b6065546001600160a01b031633146106285760405162461bcd60e51b815260040161039990612203565b610630611281565b565b6065546001600160a01b0316331461065c5760405162461bcd60e51b815260040161039990612203565b600081815260cd6020526040902060028082015460ff16600381111561069257634e487b7160e01b600052602160045260246000fd5b146106af5760405162461bcd60e51b8152600401610399906121c2565b60028101805460ff191660019081179091555b60405183907f7c387a42b7678e1b26d65927d4a0176444d9c6509a72583dee248753b768db4190600090a35050565b84831480156106ff57508481145b61074b5760405162461bcd60e51b815260206004820152601a60248201527f526566657272616c4c696e6b3a20496e76616c696420646174610000000000006044820152606401610399565b600080805b87821015610e095760cd60008a8a8581811061077c57634e487b7160e01b600052603260045260246000fd5b9050602002013581526020019081526020016000209250600160038111156107b457634e487b7160e01b600052602160045260246000fd5b600284015460ff1660038111156107db57634e487b7160e01b600052602160045260246000fd5b146107f85760405162461bcd60e51b8152600401610399906121c2565b428360030154111561085f5760405162461bcd60e51b815260206004820152602a60248201527f526566657272616c4c696e6b3a2043616d706169676e20686173206e6f7420736044820152691d185c9d1959081e595d60b21b6064820152608401610399565b42836004015410156108b35760405162461bcd60e51b815260206004820181905260248201527f526566657272616c4c696e6b3a2043616d706169676e2068617320656e6465646044820152606401610399565b60068301546001600160a01b038b166000908152600785016020526040902054106109395760405162461bcd60e51b815260206004820152603060248201527f526566657272616c4c696e6b3a20416c72656164792072656163686564206d6160448201526f7820726566657272616c206c696e6b7360801b6064820152608401610399565b61097987878481811061095c57634e487b7160e01b600052603260045260246000fd5b90506020020160208101906109719190611e22565b60ce90611314565b156109d55760405162461bcd60e51b815260206004820152602660248201527f526566657272616c4c696e6b3a2054686973207573657220616c72656164792060448201526565786973747360d01b6064820152608401610399565b826005015483600101541015610a465760405162461bcd60e51b815260206004820152603060248201527f526566657272616c4c696e6b3a2043616d706169676e20646f65736e2774206860448201526f61766520656e6f7567682066756e647360801b6064820152608401610399565b610a83878784818110610a6957634e487b7160e01b600052603260045260246000fd5b9050602002016020810190610a7e9190611e22565b611336565b610ae05760405162461bcd60e51b815260206004820152602860248201527f526566657272616c4c696e6b3a205573657220686173206e6f74206265656e206044820152671d995c9a599a595960c21b6064820152608401610399565b89898984818110610b0157634e487b7160e01b600052603260045260246000fd5b90506020020135888885818110610b2857634e487b7160e01b600052603260045260246000fd5b9050602002016020810190610b3d9190611e22565b604080516001600160a01b039485166020820152908101929092529091166060820152608001604051602081830303815290604052805190602001209050610bf6858584818110610b9e57634e487b7160e01b600052603260045260246000fd5b9050602002810190610bb09190612283565b8080601f016020809104026020016040519081016040528093929190818152602001838380828437600092019190915250610bf092508591506114599050565b906114ac565b60c9546001600160a01b03908116911614610c535760405162461bcd60e51b815260206004820152601f60248201527f526566657272616c4c696e6b3a20496e76616c6964207369676e6174757265006044820152606401610399565b6001600160a01b038a1660009081526007840160205260408120805491610c7983612397565b9190505550610cbe878784818110610ca157634e487b7160e01b600052603260045260246000fd5b9050602002016020810190610cb69190611e22565b60ce906114d0565b5060058301548354610cdd916001600160a01b03909116908c90611219565b610d2c878784818110610d0057634e487b7160e01b600052603260045260246000fd5b9050602002016020810190610d159190611e22565b600585015485546001600160a01b03169190611219565b6005830154610d3c906002612335565b836001016000828254610d4f9190612354565b909155508990508883818110610d7557634e487b7160e01b600052603260045260246000fd5b905060200201358a6001600160a01b03167ff80b6d248ca65e589d3f24c7ce36e2df22ba16ba4e7656aad67e114abbe971d2898986818110610dc757634e487b7160e01b600052603260045260246000fd5b9050602002016020810190610ddc9190611e22565b6040516001600160a01b03909116815260200160405180910390a381610e0181612397565b925050610750565b50505050505050505050565b6065546001600160a01b03163314610e3f5760405162461bcd60e51b815260040161039990612203565b61063060006114e5565b6065546001600160a01b03163314610e735760405162461bcd60e51b815260040161039990612203565b610630611537565b600082815260cd602052604090206001600282015460ff166003811115610eb257634e487b7160e01b600052602160045260246000fd5b1480610ee3575060028082015460ff166003811115610ee157634e487b7160e01b600052602160045260246000fd5b145b610eff5760405162461bcd60e51b8152600401610399906121c2565b8054610f16906001600160a01b03163330856115b2565b81816001016000828254610f2a919061231d565b9091555050604051828152339084907f8a488dc8cd2ade9e472d438b05d4ca99d4b6eb64c602e26a33888999bcdc7df39060200160405180910390a3505050565b6065546001600160a01b03163314610f955760405162461bcd60e51b815260040161039990612203565b60c980546001600160a01b0319166001600160a01b0392909216919091179055565b600054610100900460ff16610fd25760005460ff1615610fd6565b303b155b6110395760405162461bcd60e51b815260206004820152602e60248201527f496e697469616c697a61626c653a20636f6e747261637420697320616c72656160448201526d191e481a5b9a5d1a585b1a5e995960921b6064820152608401610399565b600054610100900460ff1615801561105b576000805461ffff19166101011790555b6110636115ea565b61106b611621565b611073611650565b60c980546001600160a01b038087166001600160a01b03199283161790925560ca805486841690831617905560cb80549285169290911691909117905580156110c2576000805461ff00191690555b50505050565b6065546001600160a01b031633146110f25760405162461bcd60e51b815260040161039990612203565b600081815260cd602052604090206001600282015460ff16600381111561112957634e487b7160e01b600052602160045260246000fd5b146111465760405162461bcd60e51b8152600401610399906121c2565b6002818101805460ff1916821790556106c2565b6065546001600160a01b031633146111845760405162461bcd60e51b815260040161039990612203565b6001600160a01b0381166111e95760405162461bcd60e51b815260206004820152602660248201527f4f776e61626c653a206e6577206f776e657220697320746865207a65726f206160448201526564647265737360d01b6064820152608401610399565b6111f2816114e5565b50565b600061120160ce611683565b905090565b6000611212838361168d565b9392505050565b6040516001600160a01b03831660248201526044810182905261127c90849063a9059cbb60e01b906064015b60408051601f198184030181529190526020810180516001600160e01b03166001600160e01b0319909316929092179091526116c5565b505050565b60335460ff166112ca5760405162461bcd60e51b815260206004820152601460248201527314185d5cd8589b194e881b9bdd081c185d5cd95960621b6044820152606401610399565b6033805460ff191690557f5db9ee0a495bf2e6ff9c91a7834c1ba4fdd244a5e8aa4e537bd38aeae4b073aa335b6040516001600160a01b03909116815260200160405180910390a1565b6001600160a01b03811660009081526001830160205260408120541515611212565b60408051600180825281830190925260009182919060208083019080368337505060cb5482519293506001600160a01b03169183915060009061138957634e487b7160e01b600052603260045260246000fd5b6001600160a01b03928316602091820292909201015260ca54604051633092d36160e11b81526000929190911690636125a6c2906113cd90879086906004016120d5565b60006040518083038186803b1580156113e557600080fd5b505afa1580156113f9573d6000803e3d6000fd5b505050506040513d6000823e601f3d908101601f191682016040526114219190810190611f31565b50905060008160008151811061144757634e487b7160e01b600052603260045260246000fd5b60200260200101511192505050919050565b6040517f19457468657265756d205369676e6564204d6573736167653a0a3332000000006020820152603c8101829052600090605c01604051602081830303815290604052805190602001209050919050565b60008060006114bb8585611797565b915091506114c881611807565b509392505050565b6000611212836001600160a01b038416611a08565b606580546001600160a01b038381166001600160a01b0319831681179093556040519116919082907f8be0079c531659141344cd1fd0a4f28419497f9722a3daafe3b4186f6b6457e090600090a35050565b60335460ff161561157d5760405162461bcd60e51b815260206004820152601060248201526f14185d5cd8589b194e881c185d5cd95960821b6044820152606401610399565b6033805460ff191660011790557f62e78cea01bee320cd4e420270b5ea74000d11b0c9f74754ebdbfc544b05a2586112f73390565b6040516001600160a01b03808516602483015283166044820152606481018290526110c29085906323b872dd60e01b90608401611245565b600054610100900460ff166116115760405162461bcd60e51b815260040161039990612238565b611619611a57565b610630611a7e565b600054610100900460ff166116485760405162461bcd60e51b815260040161039990612238565b610630611aae565b600054610100900460ff166116775760405162461bcd60e51b815260040161039990612238565b6033805460ff19169055565b60006104e7825490565b60008260000182815481106116b257634e487b7160e01b600052603260045260246000fd5b9060005260206000200154905092915050565b600061171a826040518060400160405280602081526020017f5361666545524332303a206c6f772d6c6576656c2063616c6c206661696c6564815250856001600160a01b0316611adc9092919063ffffffff16565b80519091501561127c57808060200190518101906117389190611fee565b61127c5760405162461bcd60e51b815260206004820152602a60248201527f5361666545524332303a204552433230206f7065726174696f6e20646964206e6044820152691bdd081cdd58d8d9595960b21b6064820152608401610399565b6000808251604114156117ce5760208301516040840151606085015160001a6117c287828585611af3565b94509450505050611800565b8251604014156117f857602083015160408401516117ed868383611be0565b935093505050611800565b506000905060025b9250929050565b600081600481111561182957634e487b7160e01b600052602160045260246000fd5b14156118325750565b600181600481111561185457634e487b7160e01b600052602160045260246000fd5b14156118a25760405162461bcd60e51b815260206004820152601860248201527f45434453413a20696e76616c6964207369676e617475726500000000000000006044820152606401610399565b60028160048111156118c457634e487b7160e01b600052602160045260246000fd5b14156119125760405162461bcd60e51b815260206004820152601f60248201527f45434453413a20696e76616c6964207369676e6174757265206c656e677468006044820152606401610399565b600381600481111561193457634e487b7160e01b600052602160045260246000fd5b141561198d5760405162461bcd60e51b815260206004820152602260248201527f45434453413a20696e76616c6964207369676e6174757265202773272076616c604482015261756560f01b6064820152608401610399565b60048160048111156119af57634e487b7160e01b600052602160045260246000fd5b14156111f25760405162461bcd60e51b815260206004820152602260248201527f45434453413a20696e76616c6964207369676e6174757265202776272076616c604482015261756560f01b6064820152608401610399565b6000818152600183016020526040812054611a4f575081546001818101845560008481526020808220909301849055845484825282860190935260409020919091556104e7565b5060006104e7565b600054610100900460ff166106305760405162461bcd60e51b815260040161039990612238565b600054610100900460ff16611aa55760405162461bcd60e51b815260040161039990612238565b610630336114e5565b600054610100900460ff16611ad55760405162461bcd60e51b815260040161039990612238565b6001609755565b6060611aeb8484600085611c0f565b949350505050565b6000807f7fffffffffffffffffffffffffffffff5d576e7357a4501ddfe92f46681b20a0831115611b2a5750600090506003611bd7565b8460ff16601b14158015611b4257508460ff16601c14155b15611b535750600090506004611bd7565b6040805160008082526020820180845289905260ff881692820192909252606081018690526080810185905260019060a0016020604051602081039080840390855afa158015611ba7573d6000803e3d6000fd5b5050604051601f1901519150506001600160a01b038116611bd057600060019250925050611bd7565b9150600090505b94509492505050565b6000806001600160ff1b03831660ff84901c601b01611c0187828885611af3565b935093505050935093915050565b606082471015611c705760405162461bcd60e51b815260206004820152602660248201527f416464726573733a20696e73756666696369656e742062616c616e636520666f6044820152651c8818d85b1b60d21b6064820152608401610399565b843b611cbe5760405162461bcd60e51b815260206004820152601d60248201527f416464726573733a2063616c6c20746f206e6f6e2d636f6e74726163740000006044820152606401610399565b600080866001600160a01b03168587604051611cda91906120b9565b60006040518083038185875af1925050503d8060008114611d17576040519150601f19603f3d011682016040523d82523d6000602084013e611d1c565b606091505b5091509150611d2c828286611d37565b979650505050505050565b60608315611d46575081611212565b825115611d565782518084602001fd5b8160405162461bcd60e51b8152600401610399919061218f565b60008083601f840112611d81578182fd5b50813567ffffffffffffffff811115611d98578182fd5b6020830191508360208260051b850101111561180057600080fd5b600082601f830112611dc3578081fd5b81516020611dd8611dd3836122f9565b6122c8565b80838252828201915082860187848660051b8901011115611df7578586fd5b855b85811015611e1557815184529284019290840190600101611df9565b5090979650505050505050565b600060208284031215611e33578081fd5b8135611212816123de565b600080600060608486031215611e52578182fd5b8335611e5d816123de565b92506020840135611e6d816123de565b91506040840135611e7d816123de565b809150509250925092565b60008060008060008060006080888a031215611ea2578283fd5b8735611ead816123de565b9650602088013567ffffffffffffffff80821115611ec9578485fd5b611ed58b838c01611d70565b909850965060408a0135915080821115611eed578485fd5b611ef98b838c01611d70565b909650945060608a0135915080821115611f11578384fd5b50611f1e8a828b01611d70565b989b979a50959850939692959293505050565b60008060408385031215611f43578182fd5b825167ffffffffffffffff80821115611f5a578384fd5b818501915085601f830112611f6d578384fd5b81516020611f7d611dd3836122f9565b8083825282820191508286018a848660051b8901011115611f9c578889fd5b8896505b84871015611fbe578051835260019690960195918301918301611fa0565b5091880151919650909350505080821115611fd7578283fd5b50611fe485828601611db3565b9150509250929050565b600060208284031215611fff578081fd5b81518015158114611212578182fd5b600080600080600060a08688031215612025578081fd5b8535612030816123de565b97602087013597506040870135966060810135965060800135945092505050565b600060208284031215612062578081fd5b5035919050565b6000806040838503121561207b578182fd5b82359150602083013561208d816123de565b809150509250929050565b600080604083850312156120aa578182fd5b50508035926020909101359150565b600082516120cb81846020870161236b565b9190910192915050565b6001600160a01b038381168252604060208084018290528451918401829052600092858201929091906060860190855b81811015612123578551851683529483019491830191600101612105565b509098975050505050505050565b6001600160a01b03881681526020810187905260e081016004871061216657634e487b7160e01b600052602160045260246000fd5b60408201969096526060810194909452608084019290925260a083015260c09091015292915050565b60208152600082518060208401526121ae81604085016020870161236b565b601f01601f19169190910160400192915050565b60208082526021908201527f526566657272616c4c696e6b3a20496e76616c69642063616d706169676e20696040820152601960fa1b606082015260800190565b6020808252818101527f4f776e61626c653a2063616c6c6572206973206e6f7420746865206f776e6572604082015260600190565b6020808252602b908201527f496e697469616c697a61626c653a20636f6e7472616374206973206e6f74206960408201526a6e697469616c697a696e6760a81b606082015260800190565b6000808335601e19843603018112612299578283fd5b83018035915067ffffffffffffffff8211156122b3578283fd5b60200191503681900382131561180057600080fd5b604051601f8201601f1916810167ffffffffffffffff811182821017156122f1576122f16123c8565b604052919050565b600067ffffffffffffffff821115612313576123136123c8565b5060051b60200190565b60008219821115612330576123306123b2565b500190565b600081600019048311821515161561234f5761234f6123b2565b500290565b600082821015612366576123666123b2565b500390565b60005b8381101561238657818101518382015260200161236e565b838111156110c25750506000910152565b60006000198214156123ab576123ab6123b2565b5060010190565b634e487b7160e01b600052601160045260246000fd5b634e487b7160e01b600052604160045260246000fd5b6001600160a01b03811681146111f257600080fdfea26469706673582212206a4b8c918876e23ea542d252e9fb5a9b4e106f6326d228649669eb470e8d1b8a64736f6c63430008040033",
  "devdoc": {
    "events": {
      "CampaignAdded(uint256,uint256,uint256,uint256,uint256)": {
        "params": {
          "campaignId": "Id of the campaign",
          "endTime": "End date of the campaign",
          "maxReferralLinks": "Maximum number of referral links for an user",
          "rewardAmount": "Reward amount of the campaign",
          "startTime": "Start date of the campaign"
        }
      },
      "CampaignFunded(uint256,address,uint256)": {
        "params": {
          "amount": "Amount of the fund",
          "campaignId": "Id of the campaign",
          "sender": "Address of the sender"
        }
      },
      "CampaignStateChanged(uint256,uint8)": {
        "params": {
          "campaignId": "Id of the campaign",
          "state": "New state of the campaign"
        }
      },
      "RewardClaimed(address,uint256,address)": {
        "params": {
          "campaignId": "the id of the campaign",
          "receiverAddress": "address of the receiver",
          "sender": "address of the sender to be rewarded"
        }
      }
    },
    "kind": "dev",
    "methods": {
      "addCampaign(address,uint256,uint256,uint256,uint256)": {
        "params": {
          "_endTime": "the end date of the campaign",
          "_rewardAmount": "the reward amount of the campaign",
          "_startTime": "the start date of the campaign",
          "_token": "the token used for reward"
        }
      },
      "campaignReferralLinks(uint256,address)": {
        "params": {
          "_campaignId": "id of the campaign",
          "_senderAddress": "address of the token"
        },
        "returns": {
          "_0": "the number of referral links used by a sender"
        }
      },
      "campaigns(uint256)": {
        "params": {
          "_campaignId": "id of the campaign"
        },
        "returns": {
          "balance": "balance of the campaign",
          "endTime": "end date of the campaign",
          "maxReferralLinks": "maximum number of referral links",
          "rewardAmount": "reward amount of the campaign",
          "startTime": "start date of the campaign",
          "state": "state of the campaign",
          "token": "address of the token"
        }
      },
      "cancelCampaign(uint256,address)": {
        "params": {
          "_campaignId": "id of the campaign",
          "_fundRecipient": "the address of the recipient who will receive the funds allocated for this campaign"
        }
      },
      "claimReward(address,uint256[],address[],bytes[])": {
        "params": {
          "_campaignIds": "ids of the campaigns",
          "_newUserAddresses": "addresses of the new users",
          "_sender": "address of the sender",
          "_signatures": "signatures from the backend"
        }
      },
      "fundCampaign(uint256,uint256)": {
        "params": {
          "_amount": "the amount to be funded",
          "_campaignId": "the id of the campaign"
        }
      },
      "initialize(address,address,address)": {
        "params": {
          "_signerWalletAddress": "Address of the backend wallet"
        }
      },
      "owner()": {
        "details": "Returns the address of the current owner."
      },
      "pause()": {
        "details": "Pauses the contract"
      },
      "pauseCampaign(uint256)": {
        "params": {
          "_campaignId": "id of the campaign"
        }
      },
      "paused()": {
        "details": "Returns true if the contract is paused, and false otherwise."
      },
      "renounceOwnership()": {
        "details": "Leaves the contract without owner. It will not be possible to call `onlyOwner` functions anymore. Can only be called by the current owner. NOTE: Renouncing ownership will leave the contract without an owner, thereby removing any functionality that is only available to the owner."
      },
      "transferOwnership(address)": {
        "details": "Transfers ownership of the contract to a new account (`newOwner`). Can only be called by the current owner."
      },
      "unpause()": {
        "details": "Unpauses the contract"
      },
      "unpauseCampaign(uint256)": {
        "params": {
          "_campaignId": "id of the campaign"
        }
      },
      "updateSignerWalletAddress(address)": {
        "params": {
          "_newSignerWalletAddress": "address of the new backend wallet"
        }
      },
      "verifiedUsersAt(uint256)": {
        "params": {
          "index": "index of the verified user"
        },
        "returns": {
          "_0": "the address of an verified user at a given index"
        }
      },
      "verifiedUsersLength()": {
        "returns": {
          "_0": "the number of verified users"
        }
      }
    },
    "version": 1
  },
  "userdoc": {
    "events": {
      "CampaignAdded(uint256,uint256,uint256,uint256,uint256)": {
        "notice": "Triggered when a campaign state has been changed"
      },
      "CampaignFunded(uint256,address,uint256)": {
        "notice": "Triggered when a campaign has been funded"
      },
      "CampaignStateChanged(uint256,uint8)": {
        "notice": "Triggered when a campaign state has been changed"
      },
      "RewardClaimed(address,uint256,address)": {
        "notice": "Triggered when a reward has been claimed"
      }
    },
    "kind": "user",
    "methods": {
      "addCampaign(address,uint256,uint256,uint256,uint256)": {
        "notice": "Adds a new campaign"
      },
      "campaignReferralLinks(uint256,address)": {
        "notice": "Returns the number of referral links used by a sender"
      },
      "campaigns(uint256)": {
        "notice": "Returns the details of a campaign"
      },
      "cancelCampaign(uint256,address)": {
        "notice": "Cancels a campaign"
      },
      "claimReward(address,uint256[],address[],bytes[])": {
        "notice": "Allows users to claim the reward for a campaign using a signature"
      },
      "fundCampaign(uint256,uint256)": {
        "notice": "Funds a campaign"
      },
      "getVersion()": {
        "notice": "Returns the current implementation version"
      },
      "initialize(address,address,address)": {
        "notice": "Used to initialize a new contract"
      },
      "pauseCampaign(uint256)": {
        "notice": "Pauses a campaign"
      },
      "unpauseCampaign(uint256)": {
        "notice": "Unpauses a campaign"
      },
      "updateSignerWalletAddress(address)": {
        "notice": "Updates the address of the backend wallet"
      },
      "verifiedUsersAt(uint256)": {
        "notice": "Returns the address of an verified user at a given index"
      },
      "verifiedUsersLength()": {
        "notice": "Returns the number of verified users"
      }
    },
    "version": 1
  },
  "storageLayout": {
    "storage": [
      {
        "astId": 542,
        "contract": "contracts/referralLink/ReferralLinkImplementation.sol:ReferralLinkImplementation",
        "label": "_initialized",
        "offset": 0,
        "slot": "0",
        "type": "t_bool"
      },
      {
        "astId": 545,
        "contract": "contracts/referralLink/ReferralLinkImplementation.sol:ReferralLinkImplementation",
        "label": "_initializing",
        "offset": 1,
        "slot": "0",
        "type": "t_bool"
      },
      {
        "astId": 1370,
        "contract": "contracts/referralLink/ReferralLinkImplementation.sol:ReferralLinkImplementation",
        "label": "__gap",
        "offset": 0,
        "slot": "1",
        "type": "t_array(t_uint256)50_storage"
      },
      {
        "astId": 630,
        "contract": "contracts/referralLink/ReferralLinkImplementation.sol:ReferralLinkImplementation",
        "label": "_paused",
        "offset": 0,
        "slot": "51",
        "type": "t_bool"
      },
      {
        "astId": 721,
        "contract": "contracts/referralLink/ReferralLinkImplementation.sol:ReferralLinkImplementation",
        "label": "__gap",
        "offset": 0,
        "slot": "52",
        "type": "t_array(t_uint256)49_storage"
      },
      {
        "astId": 420,
        "contract": "contracts/referralLink/ReferralLinkImplementation.sol:ReferralLinkImplementation",
        "label": "_owner",
        "offset": 0,
        "slot": "101",
        "type": "t_address"
      },
      {
        "astId": 534,
        "contract": "contracts/referralLink/ReferralLinkImplementation.sol:ReferralLinkImplementation",
        "label": "__gap",
        "offset": 0,
        "slot": "102",
        "type": "t_array(t_uint256)49_storage"
      },
      {
        "astId": 736,
        "contract": "contracts/referralLink/ReferralLinkImplementation.sol:ReferralLinkImplementation",
        "label": "_status",
        "offset": 0,
        "slot": "151",
        "type": "t_uint256"
      },
      {
        "astId": 779,
        "contract": "contracts/referralLink/ReferralLinkImplementation.sol:ReferralLinkImplementation",
        "label": "__gap",
        "offset": 0,
        "slot": "152",
        "type": "t_array(t_uint256)49_storage"
      },
      {
        "astId": 33265,
        "contract": "contracts/referralLink/ReferralLinkImplementation.sol:ReferralLinkImplementation",
        "label": "signerWalletAddress",
        "offset": 0,
        "slot": "201",
        "type": "t_address"
      },
      {
        "astId": 33269,
        "contract": "contracts/referralLink/ReferralLinkImplementation.sol:ReferralLinkImplementation",
        "label": "socialConnect",
        "offset": 0,
        "slot": "202",
        "type": "t_contract(ISocialConnect)19486"
      },
      {
        "astId": 33272,
        "contract": "contracts/referralLink/ReferralLinkImplementation.sol:ReferralLinkImplementation",
        "label": "socialConnectIssuer",
        "offset": 0,
        "slot": "203",
        "type": "t_address"
      },
      {
        "astId": 33275,
        "contract": "contracts/referralLink/ReferralLinkImplementation.sol:ReferralLinkImplementation",
        "label": "campaignsLength",
        "offset": 0,
        "slot": "204",
        "type": "t_uint256"
      },
      {
        "astId": 33280,
        "contract": "contracts/referralLink/ReferralLinkImplementation.sol:ReferralLinkImplementation",
        "label": "_campaigns",
        "offset": 0,
        "slot": "205",
        "type": "t_mapping(t_uint256,t_struct(Campaign)33129_storage)"
      },
      {
        "astId": 33283,
        "contract": "contracts/referralLink/ReferralLinkImplementation.sol:ReferralLinkImplementation",
        "label": "_verifiedUsers",
        "offset": 0,
        "slot": "206",
        "type": "t_struct(AddressSet)5505_storage"
      }
    ],
    "types": {
      "t_address": {
        "encoding": "inplace",
        "label": "address",
        "numberOfBytes": "20"
      },
      "t_array(t_bytes32)dyn_storage": {
        "base": "t_bytes32",
        "encoding": "dynamic_array",
        "label": "bytes32[]",
        "numberOfBytes": "32"
      },
      "t_array(t_uint256)49_storage": {
        "base": "t_uint256",
        "encoding": "inplace",
        "label": "uint256[49]",
        "numberOfBytes": "1568"
      },
      "t_array(t_uint256)50_storage": {
        "base": "t_uint256",
        "encoding": "inplace",
        "label": "uint256[50]",
        "numberOfBytes": "1600"
      },
      "t_bool": {
        "encoding": "inplace",
        "label": "bool",
        "numberOfBytes": "1"
      },
      "t_bytes32": {
        "encoding": "inplace",
        "label": "bytes32",
        "numberOfBytes": "32"
      },
      "t_contract(IERC20Upgradeable)858": {
        "encoding": "inplace",
        "label": "contract IERC20Upgradeable",
        "numberOfBytes": "20"
      },
      "t_contract(ISocialConnect)19486": {
        "encoding": "inplace",
        "label": "contract ISocialConnect",
        "numberOfBytes": "20"
      },
      "t_enum(CampaignState)33108": {
        "encoding": "inplace",
        "label": "enum IReferralLink.CampaignState",
        "numberOfBytes": "1"
      },
      "t_mapping(t_address,t_uint256)": {
        "encoding": "mapping",
        "key": "t_address",
        "label": "mapping(address => uint256)",
        "numberOfBytes": "32",
        "value": "t_uint256"
      },
      "t_mapping(t_bytes32,t_uint256)": {
        "encoding": "mapping",
        "key": "t_bytes32",
        "label": "mapping(bytes32 => uint256)",
        "numberOfBytes": "32",
        "value": "t_uint256"
      },
      "t_mapping(t_uint256,t_struct(Campaign)33129_storage)": {
        "encoding": "mapping",
        "key": "t_uint256",
        "label": "mapping(uint256 => struct IReferralLink.Campaign)",
        "numberOfBytes": "32",
        "value": "t_struct(Campaign)33129_storage"
      },
      "t_struct(AddressSet)5505_storage": {
        "encoding": "inplace",
        "label": "struct EnumerableSet.AddressSet",
        "members": [
          {
            "astId": 5504,
            "contract": "contracts/referralLink/ReferralLinkImplementation.sol:ReferralLinkImplementation",
            "label": "_inner",
            "offset": 0,
            "slot": "0",
            "type": "t_struct(Set)5204_storage"
          }
        ],
        "numberOfBytes": "64"
      },
      "t_struct(Campaign)33129_storage": {
        "encoding": "inplace",
        "label": "struct IReferralLink.Campaign",
        "members": [
          {
            "astId": 33111,
            "contract": "contracts/referralLink/ReferralLinkImplementation.sol:ReferralLinkImplementation",
            "label": "token",
            "offset": 0,
            "slot": "0",
            "type": "t_contract(IERC20Upgradeable)858"
          },
          {
            "astId": 33113,
            "contract": "contracts/referralLink/ReferralLinkImplementation.sol:ReferralLinkImplementation",
            "label": "balance",
            "offset": 0,
            "slot": "1",
            "type": "t_uint256"
          },
          {
            "astId": 33116,
            "contract": "contracts/referralLink/ReferralLinkImplementation.sol:ReferralLinkImplementation",
            "label": "state",
            "offset": 0,
            "slot": "2",
            "type": "t_enum(CampaignState)33108"
          },
          {
            "astId": 33118,
            "contract": "contracts/referralLink/ReferralLinkImplementation.sol:ReferralLinkImplementation",
            "label": "startTime",
            "offset": 0,
            "slot": "3",
            "type": "t_uint256"
          },
          {
            "astId": 33120,
            "contract": "contracts/referralLink/ReferralLinkImplementation.sol:ReferralLinkImplementation",
            "label": "endTime",
            "offset": 0,
            "slot": "4",
            "type": "t_uint256"
          },
          {
            "astId": 33122,
            "contract": "contracts/referralLink/ReferralLinkImplementation.sol:ReferralLinkImplementation",
            "label": "rewardAmount",
            "offset": 0,
            "slot": "5",
            "type": "t_uint256"
          },
          {
            "astId": 33124,
            "contract": "contracts/referralLink/ReferralLinkImplementation.sol:ReferralLinkImplementation",
            "label": "maxReferralLinks",
            "offset": 0,
            "slot": "6",
            "type": "t_uint256"
          },
          {
            "astId": 33128,
            "contract": "contracts/referralLink/ReferralLinkImplementation.sol:ReferralLinkImplementation",
            "label": "referralLinks",
            "offset": 0,
            "slot": "7",
            "type": "t_mapping(t_address,t_uint256)"
          }
        ],
        "numberOfBytes": "256"
      },
      "t_struct(Set)5204_storage": {
        "encoding": "inplace",
        "label": "struct EnumerableSet.Set",
        "members": [
          {
            "astId": 5199,
            "contract": "contracts/referralLink/ReferralLinkImplementation.sol:ReferralLinkImplementation",
            "label": "_values",
            "offset": 0,
            "slot": "0",
            "type": "t_array(t_bytes32)dyn_storage"
          },
          {
            "astId": 5203,
            "contract": "contracts/referralLink/ReferralLinkImplementation.sol:ReferralLinkImplementation",
            "label": "_indexes",
            "offset": 0,
            "slot": "1",
            "type": "t_mapping(t_bytes32,t_uint256)"
          }
        ],
        "numberOfBytes": "64"
      },
      "t_uint256": {
        "encoding": "inplace",
        "label": "uint256",
        "numberOfBytes": "32"
      }
    }
  }
}