{
  "address": "0x242d75C9B2d79a7B5B70Ea009cDed173D38cE836",
  "abi": [
    {
      "anonymous": false,
      "inputs": [
        {
          "indexed": true,
          "internalType": "address",
          "name": "tokenAddress",
          "type": "address"
        },
        {
          "indexed": false,
          "internalType": "uint256",
          "name": "amountIn",
          "type": "uint256"
        },
        {
          "indexed": false,
          "internalType": "uint256",
          "name": "amountOutMin",
          "type": "uint256"
        },
        {
          "indexed": false,
          "internalType": "bytes",
          "name": "exchangePath",
          "type": "bytes"
        },
        {
          "indexed": false,
          "internalType": "uint256",
          "name": "amountsOut",
          "type": "uint256"
        }
      ],
      "name": "AmountConverted",
      "type": "event"
    },
    {
      "anonymous": false,
      "inputs": [
        {
          "indexed": true,
          "internalType": "address",
          "name": "oldCommunityAdmin",
          "type": "address"
        },
        {
          "indexed": true,
          "internalType": "address",
          "name": "newCommunityAdmin",
          "type": "address"
        }
      ],
      "name": "CommunityAdminUpdated",
      "type": "event"
    },
    {
      "anonymous": false,
      "inputs": [
        {
          "indexed": true,
          "internalType": "address",
          "name": "previousOwner",
          "type": "address"
        },
        {
          "indexed": true,
          "internalType": "address",
          "name": "newOwner",
          "type": "address"
        }
      ],
      "name": "OwnershipTransferred",
      "type": "event"
    },
    {
      "anonymous": false,
      "inputs": [
        {
          "indexed": true,
          "internalType": "address",
          "name": "tokenAddress",
          "type": "address"
        }
      ],
      "name": "TokenRemoved",
      "type": "event"
    },
    {
      "anonymous": false,
      "inputs": [
        {
          "indexed": true,
          "internalType": "address",
          "name": "tokenAddress",
          "type": "address"
        }
      ],
      "name": "TokenSet",
      "type": "event"
    },
    {
      "anonymous": false,
      "inputs": [
        {
          "indexed": true,
          "internalType": "address",
          "name": "token",
          "type": "address"
        },
        {
          "indexed": true,
          "internalType": "address",
          "name": "to",
          "type": "address"
        },
        {
          "indexed": false,
          "internalType": "uint256",
          "name": "amount",
          "type": "uint256"
        }
      ],
      "name": "TransferERC20",
      "type": "event"
    },
    {
      "inputs": [],
      "name": "PACT",
      "outputs": [
        {
          "internalType": "contract IERC20Upgradeable",
          "name": "",
          "type": "address"
        }
      ],
      "stateMutability": "view",
      "type": "function"
    },
    {
      "inputs": [
        {
          "internalType": "uint256",
          "name": "_uniswapNFTPositionManagerId",
          "type": "uint256"
        }
      ],
      "name": "collectFees",
      "outputs": [],
      "stateMutability": "nonpayable",
      "type": "function"
    },
    {
      "inputs": [],
      "name": "communityAdmin",
      "outputs": [
        {
          "internalType": "contract ICommunityAdmin",
          "name": "",
          "type": "address"
        }
      ],
      "stateMutability": "view",
      "type": "function"
    },
    {
      "inputs": [
        {
          "internalType": "address",
          "name": "_tokenAddress",
          "type": "address"
        },
        {
          "internalType": "uint256",
          "name": "_amountIn",
          "type": "uint256"
        },
        {
          "internalType": "uint256",
          "name": "_amountOutMin",
          "type": "uint256"
        },
        {
          "internalType": "bytes",
          "name": "_exchangePath",
          "type": "bytes"
        }
      ],
      "name": "convertAmount",
      "outputs": [],
      "stateMutability": "nonpayable",
      "type": "function"
    },
    {
      "inputs": [],
      "name": "donationMiner",
      "outputs": [
        {
          "internalType": "contract IDonationMiner",
          "name": "",
          "type": "address"
        }
      ],
      "stateMutability": "view",
      "type": "function"
    },
    {
      "inputs": [
        {
          "internalType": "address",
          "name": "_tokenAddress",
          "type": "address"
        },
        {
          "internalType": "uint256",
          "name": "_amount",
          "type": "uint256"
        }
      ],
      "name": "getConvertedAmount",
      "outputs": [
        {
          "internalType": "uint256",
          "name": "",
          "type": "uint256"
        }
      ],
      "stateMutability": "nonpayable",
      "type": "function"
    },
    {
      "inputs": [],
      "name": "getVersion",
      "outputs": [
        {
          "internalType": "uint256",
          "name": "",
          "type": "uint256"
        }
      ],
      "stateMutability": "pure",
      "type": "function"
    },
    {
      "inputs": [
        {
          "internalType": "contract ICommunityAdmin",
          "name": "_communityAdmin",
          "type": "address"
        }
      ],
      "name": "initialize",
      "outputs": [],
      "stateMutability": "nonpayable",
      "type": "function"
    },
    {
      "inputs": [
        {
          "internalType": "address",
          "name": "_tokenAddress",
          "type": "address"
        }
      ],
      "name": "isToken",
      "outputs": [
        {
          "internalType": "bool",
          "name": "",
          "type": "bool"
        }
      ],
      "stateMutability": "view",
      "type": "function"
    },
    {
      "inputs": [],
      "name": "lpSwap",
      "outputs": [
        {
          "internalType": "contract ITreasuryLpSwap",
          "name": "",
          "type": "address"
        }
      ],
      "stateMutability": "view",
      "type": "function"
    },
    {
      "inputs": [],
      "name": "owner",
      "outputs": [
        {
          "internalType": "address",
          "name": "",
          "type": "address"
        }
      ],
      "stateMutability": "view",
      "type": "function"
    },
    {
      "inputs": [
        {
          "internalType": "address",
          "name": "_tokenAddress",
          "type": "address"
        }
      ],
      "name": "removeToken",
      "outputs": [],
      "stateMutability": "nonpayable",
      "type": "function"
    },
    {
      "inputs": [],
      "name": "renounceOwnership",
      "outputs": [],
      "stateMutability": "nonpayable",
      "type": "function"
    },
    {
      "inputs": [
        {
          "internalType": "address",
          "name": "_tokenAddress",
          "type": "address"
        },
        {
          "internalType": "uint256",
          "name": "_rate",
          "type": "uint256"
        },
        {
          "internalType": "enum ITreasury.LpStrategy",
          "name": "_lpStrategy",
          "type": "uint8"
        },
        {
          "internalType": "uint256",
          "name": "_lpPercentage",
          "type": "uint256"
        },
        {
          "internalType": "uint256",
          "name": "_lpMinLimit",
          "type": "uint256"
        },
        {
          "internalType": "uint256",
          "name": "_uniswapNFTPositionManagerId",
          "type": "uint256"
        },
        {
          "internalType": "bytes",
          "name": "_exchangePathToCUSD",
          "type": "bytes"
        },
        {
          "internalType": "bytes",
          "name": "_exchangePathToPACT",
          "type": "bytes"
        }
      ],
      "name": "setToken",
      "outputs": [],
      "stateMutability": "nonpayable",
      "type": "function"
    },
    {
      "inputs": [
        {
          "internalType": "uint256",
          "name": "_index",
          "type": "uint256"
        }
      ],
      "name": "tokenListAt",
      "outputs": [
        {
          "internalType": "address",
          "name": "",
          "type": "address"
        }
      ],
      "stateMutability": "view",
      "type": "function"
    },
    {
      "inputs": [],
      "name": "tokenListLength",
      "outputs": [
        {
          "internalType": "uint256",
          "name": "",
          "type": "uint256"
        }
      ],
      "stateMutability": "view",
      "type": "function"
    },
    {
      "inputs": [
        {
          "internalType": "address",
          "name": "",
          "type": "address"
        }
      ],
      "name": "tokens",
      "outputs": [
        {
          "internalType": "uint256",
          "name": "rate",
          "type": "uint256"
        },
        {
          "internalType": "enum ITreasury.LpStrategy",
          "name": "lpStrategy",
          "type": "uint8"
        },
        {
          "internalType": "uint256",
          "name": "lpPercentage",
          "type": "uint256"
        },
        {
          "internalType": "uint256",
          "name": "lpMinLimit",
          "type": "uint256"
        },
        {
          "internalType": "uint256",
          "name": "uniswapNFTPositionManagerId",
          "type": "uint256"
        },
        {
          "internalType": "bytes",
          "name": "exchangePathToCUSD",
          "type": "bytes"
        },
        {
          "internalType": "bytes",
          "name": "exchangePathToPACT",
          "type": "bytes"
        }
      ],
      "stateMutability": "view",
      "type": "function"
    },
    {
      "inputs": [
        {
          "internalType": "contract IERC20Upgradeable",
          "name": "_token",
          "type": "address"
        },
        {
          "internalType": "address",
          "name": "_to",
          "type": "address"
        },
        {
          "internalType": "uint256",
          "name": "_amount",
          "type": "uint256"
        }
      ],
      "name": "transfer",
      "outputs": [],
      "stateMutability": "nonpayable",
      "type": "function"
    },
    {
      "inputs": [
        {
          "internalType": "address",
          "name": "newOwner",
          "type": "address"
        }
      ],
      "name": "transferOwnership",
      "outputs": [],
      "stateMutability": "nonpayable",
      "type": "function"
    },
    {
      "inputs": [
        {
          "internalType": "contract ICommunityAdmin",
          "name": "_newCommunityAdmin",
          "type": "address"
        }
      ],
      "name": "updateCommunityAdmin",
      "outputs": [],
      "stateMutability": "nonpayable",
      "type": "function"
    },
    {
      "inputs": [
        {
          "internalType": "contract IDonationMiner",
          "name": "_newDonationMiner",
          "type": "address"
        }
      ],
      "name": "updateDonationMiner",
      "outputs": [],
      "stateMutability": "nonpayable",
      "type": "function"
    },
    {
      "inputs": [
        {
          "internalType": "contract ITreasuryLpSwap",
          "name": "_newLpSwap",
          "type": "address"
        }
      ],
      "name": "updateLpSwap",
      "outputs": [],
      "stateMutability": "nonpayable",
      "type": "function"
    },
    {
      "inputs": [
        {
          "internalType": "contract IERC20Upgradeable",
          "name": "_newPACT",
          "type": "address"
        }
      ],
      "name": "updatePACT",
      "outputs": [],
      "stateMutability": "nonpayable",
      "type": "function"
    },
    {
      "inputs": [],
      "name": "useFundsForLP",
      "outputs": [],
      "stateMutability": "nonpayable",
      "type": "function"
    }
  ],
  "transactionHash": "0xe2eb5a0f87317d02b98e7c1b7b5f7180762a5c13081aea783775fc254344cf20",
  "args": [],
  "numDeployments": 4,
  "solcInputHash": "86c3022e3b12214e126013e0ac826021",
  "bytecode": "0x608060405234801561001057600080fd5b50613988806100206000396000f3fe608060405234801561001057600080fd5b50600436106101585760003560e01c80639a552a29116100c3578063d33d4ec61161007c578063d33d4ec6146102bd578063e36d4f3e146102d0578063e4860339146102e3578063eb15d91414610309578063f2b899511461031c578063f2fde38b1461032f57600080fd5b80639a552a2914610256578063b17acdcd1461025e578063beabacc814610271578063c1eda8bb14610284578063c4d66de814610297578063c89fc9a7146102aa57600080fd5b80633b9a0176116101155780633b9a0176146101fc5780635093141f1461020f5780635fa7b584146102175780635fac917a1461022a578063715018a61461023d5780638da5cb5b1461024557600080fd5b80630d8e6e2c1461015d57806319f37361146101735780631bf1cf4114610196578063240bf363146101ab57806332b194b5146101be57806338a2e3e2146101e9575b600080fd5b60025b6040519081526020015b60405180910390f35b610186610181366004613307565b610342565b604051901515815260200161016a565b6101a96101a436600461336a565b610355565b005b6101a96101b9366004613307565b610a14565b6101d16101cc3660046134db565b610b01565b6040516001600160a01b03909116815260200161016a565b6099546101d1906001600160a01b031681565b609d546101d1906001600160a01b031681565b6101a9610b0e565b6101a9610225366004613307565b610f97565b6097546101d1906001600160a01b031681565b6101a9611181565b6033546001600160a01b03166101d1565b6101606111e7565b6101a961026c3660046134db565b6111f8565b6101a961027f36600461349b565b611c43565b6101a961029236600461341a565b611d89565b6101a96102a5366004613307565b6121f3565b6101a96102b8366004613307565b6122d8565b6101a96102cb366004613307565b6123c5565b6098546101d1906001600160a01b031681565b6102f66102f1366004613307565b6124ec565b60405161016a9796959493929190613780565b6101a9610317366004613307565b61263f565b61016061032a36600461333f565b61272c565b6101a961033d366004613307565b612ab2565b600061034f609b83612b7a565b92915050565b6033546001600160a01b03163314806104045750609760009054906101000a90046001600160a01b03166001600160a01b031663502791b66040518163ffffffff1660e01b815260040160206040518083038186803b1580156103b757600080fd5b505afa1580156103cb573d6000803e3d6000fd5b505050506040513d601f19601f820116820180604052508101906103ef9190613323565b6001600160a01b0316336001600160a01b0316145b6104295760405162461bcd60e51b81526004016104209061368a565b60405180910390fd5b600087116104795760405162461bcd60e51b815260206004820181905260248201527f54726561737572793a3a736574546f6b656e3a20496e76616c696420726174656044820152606401610420565b6040516001600160a01b038916907fa07c91c183e42229e705a9795a1c06d76528b673788b849597364528c96eefb790600090a26001600160a01b0388166000908152609a6020526040902087815560019081018054889260ff19909116908360028111156104f857634e487b7160e01b600052602160045260246000fd5b02179055506001600160a01b0388166000908152609a602052604090206002810186905560030184905582156106be5760995460408051637da4edf960e11b815290516001600160a01b0390921691829163fb49dbf2916004808301926020929190829003018186803b15801561056e57600080fd5b505afa158015610582573d6000803e3d6000fd5b505050506040513d601f19601f820116820180604052508101906105a69190613323565b6001600160a01b0316636352211e856040518263ffffffff1660e01b81526004016105d391815260200190565b60206040518083038186803b1580156105eb57600080fd5b505afa1580156105ff573d6000803e3d6000fd5b505050506040513d601f19601f820116820180604052508101906106239190613323565b6001600160a01b03161461069f5760405162461bcd60e51b815260206004820152603760248201527f54726561737572793a3a736574546f6b656e3a20696e76616c696420756e697360448201527f7761704e4654506f736974696f6e4d616e6167657249640000000000000000006064820152608401610420565b6001600160a01b0388166000908152609a602052604090206004018390555b81511561085e57609954604080516326da51a960e11b815290516000926001600160a01b031691634db4a352916004808301926020929190829003018186803b15801561070a57600080fd5b505afa15801561071e573d6000803e3d6000fd5b505050506040513d601f19601f820116820180604052508101906107429190613323565b6001600160a01b031663cdca175384670de0b6b3a76400006040518363ffffffff1660e01b8152600401610777929190613655565b602060405180830381600087803b15801561079157600080fd5b505af11580156107a5573d6000803e3d6000fd5b505050506040513d601f19601f820116820180604052508101906107c991906134f3565b1161082d5760405162461bcd60e51b815260206004820152602e60248201527f54726561737572793a3a736574546f6b656e3a20696e76616c6964206578636860448201526d185b99d954185d1a151bd0d554d160921b6064820152608401610420565b6001600160a01b0388166000908152609a60209081526040909120835161085c9260059092019185019061315c565b505b8051156109fe57609954604080516326da51a960e11b815290516000926001600160a01b031691634db4a352916004808301926020929190829003018186803b1580156108aa57600080fd5b505afa1580156108be573d6000803e3d6000fd5b505050506040513d601f19601f820116820180604052508101906108e29190613323565b6001600160a01b031663cdca175383670de0b6b3a76400006040518363ffffffff1660e01b8152600401610917929190613655565b602060405180830381600087803b15801561093157600080fd5b505af1158015610945573d6000803e3d6000fd5b505050506040513d601f19601f8201168201806040525081019061096991906134f3565b116109cd5760405162461bcd60e51b815260206004820152602e60248201527f54726561737572793a3a736574546f6b656e3a20696e76616c6964206578636860448201526d185b99d954185d1a151bd41050d560921b6064820152608401610420565b6001600160a01b0388166000908152609a6020908152604090912082516109fc9260069092019184019061315c565b505b610a09609b89612b9f565b505050505050505050565b6033546001600160a01b0316331480610ac35750609760009054906101000a90046001600160a01b03166001600160a01b031663502791b66040518163ffffffff1660e01b815260040160206040518083038186803b158015610a7657600080fd5b505afa158015610a8a573d6000803e3d6000fd5b505050506040513d601f19601f82011682018060405250810190610aae9190613323565b6001600160a01b0316336001600160a01b0316145b610adf5760405162461bcd60e51b81526004016104209061368a565b609980546001600160a01b0319166001600160a01b0392909216919091179055565b600061034f609b83612bb4565b6033546001600160a01b0316331480610b3157506098546001600160a01b031633145b610b995760405162461bcd60e51b815260206004820152603360248201527f54726561737572793a2063616c6c6572206973206e6f7420746865206f776e6560448201527239103737b9103237b730ba34b7b726b4b732b960691b6064820152608401610420565b6000610ba5609b612bc0565b9050610be86040805160e0810190915260008082526020820190815260200160008152602001600081526020016000815260200160608152602001606081525090565b60005b82811015610f9257609a6000610c02609b84612bb4565b6001600160a01b031681526020808201929092526040908101600020815160e08101909252805482526001810154919290919083019060ff166002811115610c5a57634e487b7160e01b600052602160045260246000fd5b6002811115610c7957634e487b7160e01b600052602160045260246000fd5b8152602001600282015481526020016003820154815260200160048201548152602001600582018054610cab906138bb565b80601f0160208091040260200160405190810160405280929190818152602001828054610cd7906138bb565b8015610d245780601f10610cf957610100808354040283529160200191610d24565b820191906000526020600020905b815481529060010190602001808311610d0757829003601f168201915b50505050508152602001600682018054610d3d906138bb565b80601f0160208091040260200160405190810160405280929190818152602001828054610d69906138bb565b8015610db65780601f10610d8b57610100808354040283529160200191610db6565b820191906000526020600020905b815481529060010190602001808311610d9957829003601f168201915b5050505050815250509150600082604001511115610f80576000610ddb609b83612bb4565b6040516370a0823160e01b81523060048201529091506000906001600160a01b038316906370a082319060240160206040518083038186803b158015610e2057600080fd5b505afa158015610e34573d6000803e3d6000fd5b505050506040513d601f19601f82011682018060405250810190610e5891906134f3565b90508360600151811115610f7d57600068056bc75e2d63100000856040015183610e829190613855565b610e8c9190613835565b60995460405163095ea7b360e01b81526001600160a01b0391821660048201526024810183905291925084169063095ea7b390604401602060405180830381600087803b158015610edc57600080fd5b505af1158015610ef0573d6000803e3d6000fd5b505050506040513d601f19601f82011682018060405250810190610f14919061347b565b506099546040516328eb619f60e21b81526001600160a01b038581166004830152602482018490529091169063a3ad867c90604401600060405180830381600087803b158015610f6357600080fd5b505af1158015610f77573d6000803e3d6000fd5b50505050505b50505b80610f8a816138f6565b915050610beb565b505050565b6033546001600160a01b03163314806110465750609760009054906101000a90046001600160a01b03166001600160a01b031663502791b66040518163ffffffff1660e01b815260040160206040518083038186803b158015610ff957600080fd5b505afa15801561100d573d6000803e3d6000fd5b505050506040513d601f19601f820116820180604052508101906110319190613323565b6001600160a01b0316336001600160a01b0316145b6110625760405162461bcd60e51b81526004016104209061368a565b61106d609b82612b7a565b6110cc5760405162461bcd60e51b815260206004820152602a60248201527f54726561737572793a3a72656d6f7665546f6b656e3a2074686973206973206e60448201526937ba1030903a37b5b2b760b11b6064820152608401610420565b6001600160a01b0381166000908152609a6020526040812081815560018101805460ff19169055600281018290556003810182905560048101829055611117916005909101906131e0565b6001600160a01b0381166000908152609a6020526040812061113e916006909101906131e0565b611149609b82612bca565b506040516001600160a01b038216907f4c910b69fe65a61f7531b9c5042b2329ca7179c77290aa7e2eb3afa3c8511fd390600090a250565b6033546001600160a01b031633146111db5760405162461bcd60e51b815260206004820181905260248201527f4f776e61626c653a2063616c6c6572206973206e6f7420746865206f776e65726044820152606401610420565b6111e56000612bdf565b565b60006111f3609b612bc0565b905090565b6033546001600160a01b03163314806112a75750609760009054906101000a90046001600160a01b03166001600160a01b031663502791b66040518163ffffffff1660e01b815260040160206040518083038186803b15801561125a57600080fd5b505afa15801561126e573d6000803e3d6000fd5b505050506040513d601f19601f820116820180604052508101906112929190613323565b6001600160a01b0316336001600160a01b0316145b6112c35760405162461bcd60e51b81526004016104209061368a565b600080609960009054906101000a90046001600160a01b03166001600160a01b031663fb49dbf26040518163ffffffff1660e01b815260040160206040518083038186803b15801561131457600080fd5b505afa158015611328573d6000803e3d6000fd5b505050506040513d601f19601f8201168201806040525081019061134c9190613323565b6001600160a01b03166399fbab88846040518263ffffffff1660e01b815260040161137991815260200190565b6101806040518083038186803b15801561139257600080fd5b505afa1580156113a6573d6000803e3d6000fd5b505050506040513d601f19601f820116820180604052508101906113ca919061352e565b5050505050505050935093505050609d60009054906101000a90046001600160a01b03166001600160a01b0316826001600160a01b0316148061141a5750609d546001600160a01b038281169116145b61148c5760405162461bcd60e51b815260206004820152603960248201527f54726561737572793a3a636f6c6c6563744665657320696e76616c696420756e60448201527f69737761704e4654506f736974696f6e4d616e616765724964000000000000006064820152608401610420565b60995460405163b17acdcd60e01b81526004810185905260009182916001600160a01b039091169063b17acdcd906024016040805180830381600087803b1580156114d657600080fd5b505af11580156114ea573d6000803e3d6000fd5b505050506040513d601f19601f8201168201806040525081019061150e919061350b565b609d549193509150600090819081906001600160a01b038881169116141561153d575084915083905082611546565b50859150829050835b6001600160a01b0383166000908152609a60209081526040808320815160e08101909252805482526001810154919290919083019060ff16600281111561159d57634e487b7160e01b600052602160045260246000fd5b60028111156115bc57634e487b7160e01b600052602160045260246000fd5b81526020016002820154815260200160038201548152602001600482015481526020016005820180546115ee906138bb565b80601f016020809104026020016040519081016040528092919081815260200182805461161a906138bb565b80156116675780601f1061163c57610100808354040283529160200191611667565b820191906000526020600020905b81548152906001019060200180831161164a57829003601f168201915b50505050508152602001600682018054611680906138bb565b80601f01602080910402602001604051908101604052809291908181526020018280546116ac906138bb565b80156116f95780601f106116ce576101008083540402835291602001916116f9565b820191906000526020600020905b8154815290600101906020018083116116dc57829003601f168201915b50505050508152505090506001600281111561172557634e487b7160e01b600052602160045260246000fd5b8160200151600281111561174957634e487b7160e01b600052602160045260246000fd5b14156117db57609d5460405163a9059cbb60e01b815261dead6004820152602481018590526001600160a01b039091169063a9059cbb90604401602060405180830381600087803b15801561179d57600080fd5b505af11580156117b1573d6000803e3d6000fd5b505050506040513d601f19601f820116820180604052508101906117d5919061347b565b50610a09565b60028160200151600281111561180157634e487b7160e01b600052602160045260246000fd5b1415610a09576000846001600160a01b031663095ea7b3609960009054906101000a90046001600160a01b03166001600160a01b031663735de9f76040518163ffffffff1660e01b815260040160206040518083038186803b15801561186657600080fd5b505afa15801561187a573d6000803e3d6000fd5b505050506040513d601f19601f8201168201806040525081019061189e9190613323565b6040516001600160e01b031960e084901b1681526001600160a01b03909116600482015260248101869052604401602060405180830381600087803b1580156118e657600080fd5b505af11580156118fa573d6000803e3d6000fd5b505050506040513d601f19601f8201168201806040525081019061191e919061347b565b50609960009054906101000a90046001600160a01b03166001600160a01b031663735de9f76040518163ffffffff1660e01b815260040160206040518083038186803b15801561196d57600080fd5b505afa158015611981573d6000803e3d6000fd5b505050506040513d601f19601f820116820180604052508101906119a59190613323565b6001600160a01b031663b858183f60405180608001604052808560a001518152602001306001600160a01b031681526020016002876119e49190613835565b815260200160008152506040518263ffffffff1660e01b8152600401611a0a9190613732565b602060405180830381600087803b158015611a2457600080fd5b505af1158015611a38573d6000803e3d6000fd5b505050506040513d601f19601f82011682018060405250810190611a5c91906134f3565b50609960009054906101000a90046001600160a01b03166001600160a01b031663735de9f76040518163ffffffff1660e01b815260040160206040518083038186803b158015611aab57600080fd5b505afa158015611abf573d6000803e3d6000fd5b505050506040513d601f19601f82011682018060405250810190611ae39190613323565b6001600160a01b031663b858183f60405180608001604052808560c001518152602001306001600160a01b03168152602001600287611b229190613835565b815260200160008152506040518263ffffffff1660e01b8152600401611b489190613732565b602060405180830381600087803b158015611b6257600080fd5b505af1158015611b76573d6000803e3d6000fd5b505050506040513d601f19601f82011682018060405250810190611b9a91906134f3565b609d549091506001600160a01b031663a9059cbb61dead611bbb878561381d565b6040516001600160e01b031960e085901b1681526001600160a01b0390921660048301526024820152604401602060405180830381600087803b158015611c0157600080fd5b505af1158015611c15573d6000803e3d6000fd5b505050506040513d601f19601f82011682018060405250810190611c39919061347b565b5050610a09565b50565b6097546001600160a01b0316331480611c6657506033546001600160a01b031633145b611cc65760405162461bcd60e51b815260206004820152602b60248201527f54726561737572793a204e4f545f434f4d4d554e4954595f41444d494e20414e60448201526a22102727aa2fa7aba722a960a91b6064820152608401610420565b60026065541415611d195760405162461bcd60e51b815260206004820152601f60248201527f5265656e7472616e637947756172643a207265656e7472616e742063616c6c006044820152606401610420565b6002606555611d326001600160a01b0384168383612c31565b816001600160a01b0316836001600160a01b03167f9b035625e569d1d2bf54830a290aefba7ab11610ba8490871dc62b86b63a895683604051611d7791815260200190565b60405180910390a35050600160655550565b6033546001600160a01b0316331480611e385750609760009054906101000a90046001600160a01b03166001600160a01b031663502791b66040518163ffffffff1660e01b815260040160206040518083038186803b158015611deb57600080fd5b505afa158015611dff573d6000803e3d6000fd5b505050506040513d601f19601f82011682018060405250810190611e239190613323565b6001600160a01b0316336001600160a01b0316145b611e545760405162461bcd60e51b81526004016104209061368a565b611e5f609b85612b7a565b611ec65760405162461bcd60e51b815260206004820152603260248201527f54726561737572793a3a636f6e76657274416d6f756e743a2074686973206973604482015271103737ba1030903b30b634b2103a37b5b2b760711b6064820152608401610420565b8051611f73576001600160a01b0384166000908152609a602052604090206005018054611ef2906138bb565b80601f0160208091040260200160405190810160405280929190818152602001828054611f1e906138bb565b8015611f6b5780601f10611f4057610100808354040283529160200191611f6b565b820191906000526020600020905b815481529060010190602001808311611f4e57829003601f168201915b505050505090505b836001600160a01b031663095ea7b3609960009054906101000a90046001600160a01b03166001600160a01b031663735de9f76040518163ffffffff1660e01b815260040160206040518083038186803b158015611fd057600080fd5b505afa158015611fe4573d6000803e3d6000fd5b505050506040513d601f19601f820116820180604052508101906120089190613323565b6040516001600160e01b031960e084901b1681526001600160a01b03909116600482015260248101869052604401602060405180830381600087803b15801561205057600080fd5b505af1158015612064573d6000803e3d6000fd5b505050506040513d601f19601f82011682018060405250810190612088919061347b565b506099546040805163735de9f760e01b815290516000926001600160a01b03169163735de9f7916004808301926020929190829003018186803b1580156120ce57600080fd5b505afa1580156120e2573d6000803e3d6000fd5b505050506040513d601f19601f820116820180604052508101906121069190613323565b6040805160808101825284815230602082015280820187905260608101869052905163b858183f60e01b81526001600160a01b03929092169163b858183f9161215191600401613732565b602060405180830381600087803b15801561216b57600080fd5b505af115801561217f573d6000803e3d6000fd5b505050506040513d601f19601f820116820180604052508101906121a391906134f3565b9050846001600160a01b03167f8cf0160167000e9c6c54bfc6c2ef2c6895eeecc31fbd147d5d070b4408662b39858585856040516121e494939291906137ed565b60405180910390a25050505050565b600054610100900460ff1661220e5760005460ff1615612212565b303b155b6122755760405162461bcd60e51b815260206004820152602e60248201527f496e697469616c697a61626c653a20636f6e747261637420697320616c72656160448201526d191e481a5b9a5d1a585b1a5e995960921b6064820152608401610420565b600054610100900460ff16158015612297576000805461ffff19166101011790555b61229f612c83565b6122a7612cba565b609780546001600160a01b0319166001600160a01b03841617905580156122d4576000805461ff00191690555b5050565b6033546001600160a01b03163314806123875750609760009054906101000a90046001600160a01b03166001600160a01b031663502791b66040518163ffffffff1660e01b815260040160206040518083038186803b15801561233a57600080fd5b505afa15801561234e573d6000803e3d6000fd5b505050506040513d601f19601f820116820180604052508101906123729190613323565b6001600160a01b0316336001600160a01b0316145b6123a35760405162461bcd60e51b81526004016104209061368a565b609880546001600160a01b0319166001600160a01b0392909216919091179055565b6033546001600160a01b03163314806124745750609760009054906101000a90046001600160a01b03166001600160a01b031663502791b66040518163ffffffff1660e01b815260040160206040518083038186803b15801561242757600080fd5b505afa15801561243b573d6000803e3d6000fd5b505050506040513d601f19601f8201168201806040525081019061245f9190613323565b6001600160a01b0316336001600160a01b0316145b6124905760405162461bcd60e51b81526004016104209061368a565b6097546040516001600160a01b038084169216907fdd8d3b7b0badfc5d636d48e71e28015b4b8554b64d2cffba6f0a90bf7693ec0090600090a3609780546001600160a01b0319166001600160a01b0392909216919091179055565b609a60205260009081526040902080546001820154600283015460038401546004850154600586018054959660ff909516959394929391929161252e906138bb565b80601f016020809104026020016040519081016040528092919081815260200182805461255a906138bb565b80156125a75780601f1061257c576101008083540402835291602001916125a7565b820191906000526020600020905b81548152906001019060200180831161258a57829003601f168201915b5050505050908060060180546125bc906138bb565b80601f01602080910402602001604051908101604052809291908181526020018280546125e8906138bb565b80156126355780601f1061260a57610100808354040283529160200191612635565b820191906000526020600020905b81548152906001019060200180831161261857829003601f168201915b5050505050905087565b6033546001600160a01b03163314806126ee5750609760009054906101000a90046001600160a01b03166001600160a01b031663502791b66040518163ffffffff1660e01b815260040160206040518083038186803b1580156126a157600080fd5b505afa1580156126b5573d6000803e3d6000fd5b505050506040513d601f19601f820116820180604052508101906126d99190613323565b6001600160a01b0316336001600160a01b0316145b61270a5760405162461bcd60e51b81526004016104209061368a565b609d80546001600160a01b0319166001600160a01b0392909216919091179055565b600061273783610342565b6127a95760405162461bcd60e51b815260206004820152603760248201527f54726561737572793a3a676574436f6e766572746564416d6f756e743a20746860448201527f6973206973206e6f7420612076616c696420746f6b656e0000000000000000006064820152608401610420565b6001600160a01b0383166000908152609a60209081526040808320815160e08101909252805482526001810154919290919083019060ff16600281111561280057634e487b7160e01b600052602160045260246000fd5b600281111561281f57634e487b7160e01b600052602160045260246000fd5b8152602001600282015481526020016003820154815260200160048201548152602001600582018054612851906138bb565b80601f016020809104026020016040519081016040528092919081815260200182805461287d906138bb565b80156128ca5780601f1061289f576101008083540402835291602001916128ca565b820191906000526020600020905b8154815290600101906020018083116128ad57829003601f168201915b505050505081526020016006820180546128e3906138bb565b80601f016020809104026020016040519081016040528092919081815260200182805461290f906138bb565b801561295c5780601f106129315761010080835404028352916020019161295c565b820191906000526020600020905b81548152906001019060200180831161293f57829003601f168201915b505050505081525050905060008160a0015151600014612a8457609960009054906101000a90046001600160a01b03166001600160a01b0316634db4a3526040518163ffffffff1660e01b815260040160206040518083038186803b1580156129c457600080fd5b505afa1580156129d8573d6000803e3d6000fd5b505050506040513d601f19601f820116820180604052508101906129fc9190613323565b6001600160a01b031663cdca17538360a00151866040518363ffffffff1660e01b8152600401612a2d929190613655565b602060405180830381600087803b158015612a4757600080fd5b505af1158015612a5b573d6000803e3d6000fd5b505050506040513d601f19601f82011682018060405250810190612a7f91906134f3565b612a86565b835b8251909150670de0b6b3a764000090612a9f9083613855565b612aa99190613835565b95945050505050565b6033546001600160a01b03163314612b0c5760405162461bcd60e51b815260206004820181905260248201527f4f776e61626c653a2063616c6c6572206973206e6f7420746865206f776e65726044820152606401610420565b6001600160a01b038116612b715760405162461bcd60e51b815260206004820152602660248201527f4f776e61626c653a206e6577206f776e657220697320746865207a65726f206160448201526564647265737360d01b6064820152608401610420565b611c4081612bdf565b6001600160a01b038116600090815260018301602052604081205415155b9392505050565b6000612b98836001600160a01b038416612ce9565b6000612b988383612d38565b600061034f825490565b6000612b98836001600160a01b038416612d70565b603380546001600160a01b038381166001600160a01b0319831681179093556040519116919082907f8be0079c531659141344cd1fd0a4f28419497f9722a3daafe3b4186f6b6457e090600090a35050565b604080516001600160a01b038416602482015260448082018490528251808303909101815260649091019091526020810180516001600160e01b031663a9059cbb60e01b179052610f92908490612e8d565b600054610100900460ff16612caa5760405162461bcd60e51b8152600401610420906136e7565b612cb2612f5f565b6111e5612f86565b600054610100900460ff16612ce15760405162461bcd60e51b8152600401610420906136e7565b6111e5612fb6565b6000818152600183016020526040812054612d305750815460018181018455600084815260208082209093018490558454848252828601909352604090209190915561034f565b50600061034f565b6000826000018281548110612d5d57634e487b7160e01b600052603260045260246000fd5b9060005260206000200154905092915050565b60008181526001830160205260408120548015612e83576000612d94600183613874565b8554909150600090612da890600190613874565b9050818114612e29576000866000018281548110612dd657634e487b7160e01b600052603260045260246000fd5b9060005260206000200154905080876000018481548110612e0757634e487b7160e01b600052603260045260246000fd5b6000918252602080832090910192909255918252600188019052604090208390555b8554869080612e4857634e487b7160e01b600052603160045260246000fd5b60019003818190600052602060002001600090559055856001016000868152602001908152602001600020600090556001935050505061034f565b600091505061034f565b6000612ee2826040518060400160405280602081526020017f5361666545524332303a206c6f772d6c6576656c2063616c6c206661696c6564815250856001600160a01b0316612fe49092919063ffffffff16565b805190915015610f925780806020019051810190612f00919061347b565b610f925760405162461bcd60e51b815260206004820152602a60248201527f5361666545524332303a204552433230206f7065726174696f6e20646964206e6044820152691bdd081cdd58d8d9595960b21b6064820152608401610420565b600054610100900460ff166111e55760405162461bcd60e51b8152600401610420906136e7565b600054610100900460ff16612fad5760405162461bcd60e51b8152600401610420906136e7565b6111e533612bdf565b600054610100900460ff16612fdd5760405162461bcd60e51b8152600401610420906136e7565b6001606555565b6060612ff38484600085612ffb565b949350505050565b60608247101561305c5760405162461bcd60e51b815260206004820152602660248201527f416464726573733a20696e73756666696369656e742062616c616e636520666f6044820152651c8818d85b1b60d21b6064820152608401610420565b843b6130aa5760405162461bcd60e51b815260206004820152601d60248201527f416464726573733a2063616c6c20746f206e6f6e2d636f6e74726163740000006044820152606401610420565b600080866001600160a01b031685876040516130c69190613639565b60006040518083038185875af1925050503d8060008114613103576040519150601f19603f3d011682016040523d82523d6000602084013e613108565b606091505b5091509150613118828286613123565b979650505050505050565b60608315613132575081612b98565b8251156131425782518084602001fd5b8160405162461bcd60e51b81526004016104209190613677565b828054613168906138bb565b90600052602060002090601f01602090048101928261318a57600085556131d0565b82601f106131a357805160ff19168380011785556131d0565b828001600101855582156131d0579182015b828111156131d05782518255916020019190600101906131b5565b506131dc929150613216565b5090565b5080546131ec906138bb565b6000825580601f106131fc575050565b601f016020900490600052602060002090810190611c4091905b5b808211156131dc5760008155600101613217565b80516132368161393d565b919050565b600082601f83011261324b578081fd5b813567ffffffffffffffff8082111561326657613266613927565b604051601f8301601f19908116603f0116810190828211818310171561328e5761328e613927565b816040528381528660208588010111156132a6578485fd5b8360208701602083013792830160200193909352509392505050565b8051600281900b811461323657600080fd5b80516fffffffffffffffffffffffffffffffff8116811461323657600080fd5b805162ffffff8116811461323657600080fd5b600060208284031215613318578081fd5b8135612b988161393d565b600060208284031215613334578081fd5b8151612b988161393d565b60008060408385031215613351578081fd5b823561335c8161393d565b946020939093013593505050565b600080600080600080600080610100898b031215613386578384fd5b88356133918161393d565b9750602089013596506040890135600381106133ab578485fd5b9550606089013594506080890135935060a0890135925060c089013567ffffffffffffffff808211156133dc578384fd5b6133e88c838d0161323b565b935060e08b01359150808211156133fd578283fd5b5061340a8b828c0161323b565b9150509295985092959890939650565b6000806000806080858703121561342f578384fd5b843561343a8161393d565b93506020850135925060408501359150606085013567ffffffffffffffff811115613463578182fd5b61346f8782880161323b565b91505092959194509250565b60006020828403121561348c578081fd5b81518015158114612b98578182fd5b6000806000606084860312156134af578081fd5b83356134ba8161393d565b925060208401356134ca8161393d565b929592945050506040919091013590565b6000602082840312156134ec578081fd5b5035919050565b600060208284031215613504578081fd5b5051919050565b6000806040838503121561351d578182fd5b505080516020909101519092909150565b6000806000806000806000806000806000806101808d8f031215613550578586fd5b8c516bffffffffffffffffffffffff8116811461356b578687fd5b9b5061357960208e0161322b565b9a5061358760408e0161322b565b995061359560608e0161322b565b98506135a360808e016132f4565b97506135b160a08e016132c2565b96506135bf60c08e016132c2565b95506135cd60e08e016132d4565b94506101008d015193506101208d015192506135ec6101408e016132d4565b91506135fb6101608e016132d4565b90509295989b509295989b509295989b565b6000815180845261362581602086016020860161388b565b601f01601f19169290920160200192915050565b6000825161364b81846020870161388b565b9190910192915050565b604081526000613668604083018561360d565b90508260208301529392505050565b602081526000612b98602083018461360d565b60208082526039908201527f54726561737572793a2063616c6c6572206973206e6f7420746865206f776e6560408201527f72206e6f7220496d706163744d61726b6574436f756e63696c00000000000000606082015260800190565b6020808252602b908201527f496e697469616c697a61626c653a20636f6e7472616374206973206e6f74206960408201526a6e697469616c697a696e6760a81b606082015260800190565b60208152600082516080602084015261374e60a084018261360d565b905060018060a01b03602085015116604084015260408401516060840152606084015160808401528091505092915050565b8781526000600388106137a157634e487b7160e01b81526021600452602481fd5b87602083015286604083015285606083015284608083015260e060a08301526137cd60e083018561360d565b82810360c08401526137df818561360d565b9a9950505050505050505050565b84815283602082015260806040820152600061380c608083018561360d565b905082606083015295945050505050565b6000821982111561383057613830613911565b500190565b60008261385057634e487b7160e01b81526012600452602481fd5b500490565b600081600019048311821515161561386f5761386f613911565b500290565b60008282101561388657613886613911565b500390565b60005b838110156138a657818101518382015260200161388e565b838111156138b5576000848401525b50505050565b600181811c908216806138cf57607f821691505b602082108114156138f057634e487b7160e01b600052602260045260246000fd5b50919050565b600060001982141561390a5761390a613911565b5060010190565b634e487b7160e01b600052601160045260246000fd5b634e487b7160e01b600052604160045260246000fd5b6001600160a01b0381168114611c4057600080fdfea264697066735822122094c2990891fd150d94fd3ed858b7cd7283cdc853de720e1b3f9e0c78540f046164736f6c63430008040033",
  "devdoc": {
    "events": {
      "AmountConverted(address,uint256,uint256,bytes,uint256)": {
        "params": {
          "amountIn": "Amount changed",
          "amountOutMin": "Minimum amount out",
          "amountsOut": "Value of the final amount out",
          "exchangePath": "Exchange path",
          "tokenAddress": "Address of the token"
        }
      },
      "CommunityAdminUpdated(address,address)": {
        "params": {
          "newCommunityAdmin": "New communityAdmin address",
          "oldCommunityAdmin": "Old communityAdmin address"
        }
      },
      "TokenRemoved(address)": {
        "params": {
          "tokenAddress": "Address of the token"
        }
      },
      "TokenSet(address)": {
        "params": {
          "tokenAddress": "Address of the token"
        }
      },
      "TransferERC20(address,address,uint256)": {
        "params": {
          "amount": "Amount of the transaction",
          "to": "Address of the receiver",
          "token": "ERC20 token address"
        }
      }
    },
    "kind": "dev",
    "methods": {
      "collectFees(uint256)": {
        "params": {
          "_uniswapNFTPositionManagerId": "is the id of the Uniswap NFT position*"
        }
      },
      "convertAmount(address,uint256,uint256,bytes)": {
        "params": {
          "_amountIn": "is the amount of the token to convert",
          "_amountOutMin": "is used to prevent the transaction from failing if the price of the token changes - 0 for no check",
          "_exchangePath": "is the path to use for the swap - empty for the default path*",
          "_tokenAddress": "is the address of the token to convert"
        }
      },
      "initialize(address)": {
        "params": {
          "_communityAdmin": "Address of the CommunityAdmin contract"
        }
      },
      "isToken(address)": {
        "params": {
          "_tokenAddress": "token address to be checked"
        },
        "returns": {
          "_0": "bool true if the tokenAddress is an accepted token"
        }
      },
      "owner()": {
        "details": "Returns the address of the current owner."
      },
      "removeToken(address)": {
        "params": {
          "_tokenAddress": "address of the token*"
        }
      },
      "renounceOwnership()": {
        "details": "Leaves the contract without owner. It will not be possible to call `onlyOwner` functions anymore. Can only be called by the current owner. NOTE: Renouncing ownership will leave the contract without an owner, thereby removing any functionality that is only available to the owner."
      },
      "setToken(address,uint256,uint8,uint256,uint256,uint256,bytes,bytes)": {
        "params": {
          "_exchangePathToCUSD": "uniswap path to exchange the token to CUSD",
          "_exchangePathToPACT": "uniswap path to exchange the token to PACT*",
          "_lpMinLimit": "minimum amount of funds that need to be in the treasury (and not to be used for LP)",
          "_lpPercentage": "percentage of the funds to be used for LP",
          "_lpStrategy": "strategy to use for splitting the LP fees between treasury and buyback",
          "_rate": "rate of the token in CUSD",
          "_tokenAddress": "address of the token",
          "_uniswapNFTPositionManagerId": "id of the NFT position manager"
        }
      },
      "tokenListAt(uint256)": {
        "params": {
          "_index": "index of the token"
        },
        "returns": {
          "_0": "address of the token"
        }
      },
      "tokenListLength()": {
        "returns": {
          "_0": "uint256 number of tokens"
        }
      },
      "transfer(address,address,uint256)": {
        "params": {
          "_amount": "amount of the transaction",
          "_to": "address of the receiver",
          "_token": "address of the ERC20 token"
        }
      },
      "transferOwnership(address)": {
        "details": "Transfers ownership of the contract to a new account (`newOwner`). Can only be called by the current owner."
      },
      "updateCommunityAdmin(address)": {
        "params": {
          "_newCommunityAdmin": "address of the new CommunityAdmin contract"
        }
      },
      "updateDonationMiner(address)": {
        "params": {
          "_newDonationMiner": "address of the new DonationMiner contract"
        }
      },
      "updateLpSwap(address)": {
        "params": {
          "_newLpSwap": "address of the new LpSwap contract"
        }
      },
      "updatePACT(address)": {
        "params": {
          "_newPACT": "address of the new PACT contract"
        }
      }
    },
    "version": 1
  },
  "userdoc": {
    "events": {
      "AmountConverted(address,uint256,uint256,bytes,uint256)": {
        "notice": "Triggered when a token has been set"
      },
      "CommunityAdminUpdated(address,address)": {
        "notice": "Triggered when CommunityAdmin has been updated"
      },
      "TokenRemoved(address)": {
        "notice": "Triggered when a token has been removed"
      },
      "TokenSet(address)": {
        "notice": "Triggered when a token has been set"
      },
      "TransferERC20(address,address,uint256)": {
        "notice": "Triggered when an amount of an ERC20 has been transferred from this contract to an address"
      }
    },
    "kind": "user",
    "methods": {
      "collectFees(uint256)": {
        "notice": "Collects the fees of a Uniswap NFT position"
      },
      "convertAmount(address,uint256,uint256,bytes)": {
        "notice": "Converts an amount of a token to cUSDs"
      },
      "getConvertedAmount(address,uint256)": {
        "notice": "Gets the amount of cUSDs that can be obtained from a converting the given amount of a token*"
      },
      "getVersion()": {
        "notice": "Returns the current implementation version"
      },
      "initialize(address)": {
        "notice": "Used to initialize a new Treasury contract"
      },
      "isToken(address)": {
        "notice": "Returns if an address is an accepted token"
      },
      "removeToken(address)": {
        "notice": "Used to remove a token"
      },
      "setToken(address,uint256,uint8,uint256,uint256,uint256,bytes,bytes)": {
        "notice": "Used to set a new token"
      },
      "tokenListAt(uint256)": {
        "notice": "Returns the address of a token from tokenList"
      },
      "tokenListLength()": {
        "notice": "Returns the number of tokens"
      },
      "transfer(address,address,uint256)": {
        "notice": "Transfers an amount of an ERC20 from this contract to an address"
      },
      "updateCommunityAdmin(address)": {
        "notice": "Updates the CommunityAdmin contract address"
      },
      "updateDonationMiner(address)": {
        "notice": "Updates the DonationMiner contract address"
      },
      "updateLpSwap(address)": {
        "notice": "Updates the LpSwap contract address"
      },
      "updatePACT(address)": {
        "notice": "Updates the PACT contract address"
      },
      "useFundsForLP()": {
        "notice": "Uses part of the funds of a token to add liquidity to the Uniswap pool it is used by the DonationMiner when creating a new epoch it can also been used by the DAO when there are too many funds in the treasury*"
      }
    },
    "version": 1
  },
  "storageLayout": {
    "storage": [
      {
        "astId": 542,
        "contract": "contracts/treasury/TreasuryImplementation.sol:TreasuryImplementation",
        "label": "_initialized",
        "offset": 0,
        "slot": "0",
        "type": "t_bool"
      },
      {
        "astId": 545,
        "contract": "contracts/treasury/TreasuryImplementation.sol:TreasuryImplementation",
        "label": "_initializing",
        "offset": 1,
        "slot": "0",
        "type": "t_bool"
      },
      {
        "astId": 1370,
        "contract": "contracts/treasury/TreasuryImplementation.sol:TreasuryImplementation",
        "label": "__gap",
        "offset": 0,
        "slot": "1",
        "type": "t_array(t_uint256)50_storage"
      },
      {
        "astId": 420,
        "contract": "contracts/treasury/TreasuryImplementation.sol:TreasuryImplementation",
        "label": "_owner",
        "offset": 0,
        "slot": "51",
        "type": "t_address"
      },
      {
        "astId": 534,
        "contract": "contracts/treasury/TreasuryImplementation.sol:TreasuryImplementation",
        "label": "__gap",
        "offset": 0,
        "slot": "52",
        "type": "t_array(t_uint256)49_storage"
      },
      {
        "astId": 736,
        "contract": "contracts/treasury/TreasuryImplementation.sol:TreasuryImplementation",
        "label": "_status",
        "offset": 0,
        "slot": "101",
        "type": "t_uint256"
      },
      {
        "astId": 779,
        "contract": "contracts/treasury/TreasuryImplementation.sol:TreasuryImplementation",
        "label": "__gap",
        "offset": 0,
        "slot": "102",
        "type": "t_array(t_uint256)49_storage"
      },
      {
        "astId": 35148,
        "contract": "contracts/treasury/TreasuryImplementation.sol:TreasuryImplementation",
        "label": "communityAdmin",
        "offset": 0,
        "slot": "151",
        "type": "t_contract(ICommunityAdmin)13678"
      },
      {
        "astId": 35161,
        "contract": "contracts/treasury/TreasuryImplementation.sol:TreasuryImplementation",
        "label": "donationMiner",
        "offset": 0,
        "slot": "152",
        "type": "t_contract(IDonationMiner)17894"
      },
      {
        "astId": 35165,
        "contract": "contracts/treasury/TreasuryImplementation.sol:TreasuryImplementation",
        "label": "lpSwap",
        "offset": 0,
        "slot": "153",
        "type": "t_contract(ITreasuryLpSwap)35986"
      },
      {
        "astId": 35171,
        "contract": "contracts/treasury/TreasuryImplementation.sol:TreasuryImplementation",
        "label": "tokens",
        "offset": 0,
        "slot": "154",
        "type": "t_mapping(t_address,t_struct(Token)34982_storage)"
      },
      {
        "astId": 35174,
        "contract": "contracts/treasury/TreasuryImplementation.sol:TreasuryImplementation",
        "label": "_tokenList",
        "offset": 0,
        "slot": "155",
        "type": "t_struct(AddressSet)5505_storage"
      },
      {
        "astId": 35178,
        "contract": "contracts/treasury/TreasuryImplementation.sol:TreasuryImplementation",
        "label": "PACT",
        "offset": 0,
        "slot": "157",
        "type": "t_contract(IERC20Upgradeable)858"
      }
    ],
    "types": {
      "t_address": {
        "encoding": "inplace",
        "label": "address",
        "numberOfBytes": "20"
      },
      "t_array(t_bytes32)dyn_storage": {
        "base": "t_bytes32",
        "encoding": "dynamic_array",
        "label": "bytes32[]",
        "numberOfBytes": "32"
      },
      "t_array(t_uint256)49_storage": {
        "base": "t_uint256",
        "encoding": "inplace",
        "label": "uint256[49]",
        "numberOfBytes": "1568"
      },
      "t_array(t_uint256)50_storage": {
        "base": "t_uint256",
        "encoding": "inplace",
        "label": "uint256[50]",
        "numberOfBytes": "1600"
      },
      "t_bool": {
        "encoding": "inplace",
        "label": "bool",
        "numberOfBytes": "1"
      },
      "t_bytes32": {
        "encoding": "inplace",
        "label": "bytes32",
        "numberOfBytes": "32"
      },
      "t_bytes_storage": {
        "encoding": "bytes",
        "label": "bytes",
        "numberOfBytes": "32"
      },
      "t_contract(ICommunityAdmin)13678": {
        "encoding": "inplace",
        "label": "contract ICommunityAdmin",
        "numberOfBytes": "20"
      },
      "t_contract(IDonationMiner)17894": {
        "encoding": "inplace",
        "label": "contract IDonationMiner",
        "numberOfBytes": "20"
      },
      "t_contract(IERC20Upgradeable)858": {
        "encoding": "inplace",
        "label": "contract IERC20Upgradeable",
        "numberOfBytes": "20"
      },
      "t_contract(ITreasuryLpSwap)35986": {
        "encoding": "inplace",
        "label": "contract ITreasuryLpSwap",
        "numberOfBytes": "20"
      },
      "t_enum(LpStrategy)34966": {
        "encoding": "inplace",
        "label": "enum ITreasury.LpStrategy",
        "numberOfBytes": "1"
      },
      "t_mapping(t_address,t_struct(Token)34982_storage)": {
        "encoding": "mapping",
        "key": "t_address",
        "label": "mapping(address => struct ITreasury.Token)",
        "numberOfBytes": "32",
        "value": "t_struct(Token)34982_storage"
      },
      "t_mapping(t_bytes32,t_uint256)": {
        "encoding": "mapping",
        "key": "t_bytes32",
        "label": "mapping(bytes32 => uint256)",
        "numberOfBytes": "32",
        "value": "t_uint256"
      },
      "t_struct(AddressSet)5505_storage": {
        "encoding": "inplace",
        "label": "struct EnumerableSet.AddressSet",
        "members": [
          {
            "astId": 5504,
            "contract": "contracts/treasury/TreasuryImplementation.sol:TreasuryImplementation",
            "label": "_inner",
            "offset": 0,
            "slot": "0",
            "type": "t_struct(Set)5204_storage"
          }
        ],
        "numberOfBytes": "64"
      },
      "t_struct(Set)5204_storage": {
        "encoding": "inplace",
        "label": "struct EnumerableSet.Set",
        "members": [
          {
            "astId": 5199,
            "contract": "contracts/treasury/TreasuryImplementation.sol:TreasuryImplementation",
            "label": "_values",
            "offset": 0,
            "slot": "0",
            "type": "t_array(t_bytes32)dyn_storage"
          },
          {
            "astId": 5203,
            "contract": "contracts/treasury/TreasuryImplementation.sol:TreasuryImplementation",
            "label": "_indexes",
            "offset": 0,
            "slot": "1",
            "type": "t_mapping(t_bytes32,t_uint256)"
          }
        ],
        "numberOfBytes": "64"
      },
      "t_struct(Token)34982_storage": {
        "encoding": "inplace",
        "label": "struct ITreasury.Token",
        "members": [
          {
            "astId": 34968,
            "contract": "contracts/treasury/TreasuryImplementation.sol:TreasuryImplementation",
            "label": "rate",
            "offset": 0,
            "slot": "0",
            "type": "t_uint256"
          },
          {
            "astId": 34971,
            "contract": "contracts/treasury/TreasuryImplementation.sol:TreasuryImplementation",
            "label": "lpStrategy",
            "offset": 0,
            "slot": "1",
            "type": "t_enum(LpStrategy)34966"
          },
          {
            "astId": 34973,
            "contract": "contracts/treasury/TreasuryImplementation.sol:TreasuryImplementation",
            "label": "lpPercentage",
            "offset": 0,
            "slot": "2",
            "type": "t_uint256"
          },
          {
            "astId": 34975,
            "contract": "contracts/treasury/TreasuryImplementation.sol:TreasuryImplementation",
            "label": "lpMinLimit",
            "offset": 0,
            "slot": "3",
            "type": "t_uint256"
          },
          {
            "astId": 34977,
            "contract": "contracts/treasury/TreasuryImplementation.sol:TreasuryImplementation",
            "label": "uniswapNFTPositionManagerId",
            "offset": 0,
            "slot": "4",
            "type": "t_uint256"
          },
          {
            "astId": 34979,
            "contract": "contracts/treasury/TreasuryImplementation.sol:TreasuryImplementation",
            "label": "exchangePathToCUSD",
            "offset": 0,
            "slot": "5",
            "type": "t_bytes_storage"
          },
          {
            "astId": 34981,
            "contract": "contracts/treasury/TreasuryImplementation.sol:TreasuryImplementation",
            "label": "exchangePathToPACT",
            "offset": 0,
            "slot": "6",
            "type": "t_bytes_storage"
          }
        ],
        "numberOfBytes": "224"
      },
      "t_uint256": {
        "encoding": "inplace",
        "label": "uint256",
        "numberOfBytes": "32"
      }
    }
  }
}