{
  "address": "0xc0348c6cd28f07076ab4Ae6B2eE594C4e4Abb00F",
  "abi": [
    {
      "inputs": [
        {
          "internalType": "contract ICommunityAdmin",
          "name": "communityAdmin_",
          "type": "address"
        }
      ],
      "stateMutability": "nonpayable",
      "type": "constructor"
    },
    {
      "anonymous": false,
      "inputs": [
        {
          "indexed": true,
          "internalType": "address",
          "name": "previousOwner",
          "type": "address"
        },
        {
          "indexed": true,
          "internalType": "address",
          "name": "newOwner",
          "type": "address"
        }
      ],
      "name": "OwnershipTransferred",
      "type": "event"
    },
    {
      "inputs": [],
      "name": "communityAdmin",
      "outputs": [
        {
          "internalType": "contract ICommunityAdmin",
          "name": "",
          "type": "address"
        }
      ],
      "stateMutability": "view",
      "type": "function"
    },
    {
      "inputs": [],
      "name": "owner",
      "outputs": [
        {
          "internalType": "address",
          "name": "",
          "type": "address"
        }
      ],
      "stateMutability": "view",
      "type": "function"
    },
    {
      "inputs": [],
      "name": "renounceOwnership",
      "outputs": [],
      "stateMutability": "nonpayable",
      "type": "function"
    },
    {
      "inputs": [
        {
          "internalType": "contract ICommunityAdmin",
          "name": "communityAdmin_",
          "type": "address"
        }
      ],
      "name": "setCommunityAdmin",
      "outputs": [],
      "stateMutability": "nonpayable",
      "type": "function"
    },
    {
      "inputs": [
        {
          "internalType": "contract IERC20",
          "name": "token_",
          "type": "address"
        },
        {
          "internalType": "address",
          "name": "to_",
          "type": "address"
        },
        {
          "internalType": "uint256",
          "name": "amount_",
          "type": "uint256"
        }
      ],
      "name": "transfer",
      "outputs": [],
      "stateMutability": "nonpayable",
      "type": "function"
    },
    {
      "inputs": [
        {
          "internalType": "address",
          "name": "newOwner",
          "type": "address"
        }
      ],
      "name": "transferOwnership",
      "outputs": [],
      "stateMutability": "nonpayable",
      "type": "function"
    }
  ],
  "transactionHash": "0x50c362694312fec53fd562baab407fff1946aa45d4dcb277a2a33d90c4b156fc",
  "args": [
    "0x0000000000000000000000000000000000000000"
  ],
  "solcInputHash": "9c20b7d0ef3c95f34061765f16360135",
  "bytecode": "0x60806040523480156200001157600080fd5b50604051620011c1380380620011c1833981810160405281019062000037919062000182565b620000576200004b6200009f60201b60201c565b620000a760201b60201c565b80600160006101000a81548173ffffffffffffffffffffffffffffffffffffffff021916908373ffffffffffffffffffffffffffffffffffffffff160217905550506200021b565b600033905090565b60008060009054906101000a900473ffffffffffffffffffffffffffffffffffffffff169050816000806101000a81548173ffffffffffffffffffffffffffffffffffffffff021916908373ffffffffffffffffffffffffffffffffffffffff1602179055508173ffffffffffffffffffffffffffffffffffffffff168173ffffffffffffffffffffffffffffffffffffffff167f8be0079c531659141344cd1fd0a4f28419497f9722a3daafe3b4186f6b6457e060405160405180910390a35050565b6000815190506200017c8162000201565b92915050565b6000602082840312156200019b576200019a620001fc565b5b6000620001ab848285016200016b565b91505092915050565b6000620001c182620001dc565b9050919050565b6000620001d582620001b4565b9050919050565b600073ffffffffffffffffffffffffffffffffffffffff82169050919050565b600080fd5b6200020c81620001c8565b81146200021857600080fd5b50565b610f96806200022b6000396000f3fe608060405234801561001057600080fd5b50600436106100625760003560e01c806335c611b2146100675780635fac917a14610083578063715018a6146100a15780638da5cb5b146100ab578063beabacc8146100c9578063f2fde38b146100e5575b600080fd5b610081600480360381019061007c9190610913565b610101565b005b61008b6101c1565b6040516100989190610b57565b60405180910390f35b6100a96101eb565b005b6100b3610273565b6040516100c09190610b13565b60405180910390f35b6100e360048036038101906100de9190610940565b61029c565b005b6100ff60048036038101906100fa91906108b9565b610399565b005b610109610491565b73ffffffffffffffffffffffffffffffffffffffff16610127610273565b73ffffffffffffffffffffffffffffffffffffffff161461017d576040517f08c379a000000000000000000000000000000000000000000000000000000000815260040161017490610bd4565b60405180910390fd5b80600160006101000a81548173ffffffffffffffffffffffffffffffffffffffff021916908373ffffffffffffffffffffffffffffffffffffffff16021790555050565b6000600160009054906101000a900473ffffffffffffffffffffffffffffffffffffffff16905090565b6101f3610491565b73ffffffffffffffffffffffffffffffffffffffff16610211610273565b73ffffffffffffffffffffffffffffffffffffffff1614610267576040517f08c379a000000000000000000000000000000000000000000000000000000000815260040161025e90610bd4565b60405180910390fd5b6102716000610499565b565b60008060009054906101000a900473ffffffffffffffffffffffffffffffffffffffff16905090565b600160009054906101000a900473ffffffffffffffffffffffffffffffffffffffff1673ffffffffffffffffffffffffffffffffffffffff163373ffffffffffffffffffffffffffffffffffffffff16148061032a57506102fb610273565b73ffffffffffffffffffffffffffffffffffffffff163373ffffffffffffffffffffffffffffffffffffffff16145b610369576040517f08c379a000000000000000000000000000000000000000000000000000000000815260040161036090610bf4565b60405180910390fd5b61039482828573ffffffffffffffffffffffffffffffffffffffff1661055d9092919063ffffffff16565b505050565b6103a1610491565b73ffffffffffffffffffffffffffffffffffffffff166103bf610273565b73ffffffffffffffffffffffffffffffffffffffff1614610415576040517f08c379a000000000000000000000000000000000000000000000000000000000815260040161040c90610bd4565b60405180910390fd5b600073ffffffffffffffffffffffffffffffffffffffff168173ffffffffffffffffffffffffffffffffffffffff161415610485576040517f08c379a000000000000000000000000000000000000000000000000000000000815260040161047c90610b94565b60405180910390fd5b61048e81610499565b50565b600033905090565b60008060009054906101000a900473ffffffffffffffffffffffffffffffffffffffff169050816000806101000a81548173ffffffffffffffffffffffffffffffffffffffff021916908373ffffffffffffffffffffffffffffffffffffffff1602179055508173ffffffffffffffffffffffffffffffffffffffff168173ffffffffffffffffffffffffffffffffffffffff167f8be0079c531659141344cd1fd0a4f28419497f9722a3daafe3b4186f6b6457e060405160405180910390a35050565b6105de8363a9059cbb60e01b848460405160240161057c929190610b2e565b604051602081830303815290604052907bffffffffffffffffffffffffffffffffffffffffffffffffffffffff19166020820180517bffffffffffffffffffffffffffffffffffffffffffffffffffffffff83818316178352505050506105e3565b505050565b6000610645826040518060400160405280602081526020017f5361666545524332303a206c6f772d6c6576656c2063616c6c206661696c65648152508573ffffffffffffffffffffffffffffffffffffffff166106aa9092919063ffffffff16565b90506000815111156106a5578080602001905181019061066591906108e6565b6106a4576040517f08c379a000000000000000000000000000000000000000000000000000000000815260040161069b90610c34565b60405180910390fd5b5b505050565b60606106b984846000856106c2565b90509392505050565b606082471015610707576040517f08c379a00000000000000000000000000000000000000000000000000000000081526004016106fe90610bb4565b60405180910390fd5b610710856107d6565b61074f576040517f08c379a000000000000000000000000000000000000000000000000000000000815260040161074690610c14565b60405180910390fd5b6000808673ffffffffffffffffffffffffffffffffffffffff1685876040516107789190610afc565b60006040518083038185875af1925050503d80600081146107b5576040519150601f19603f3d011682016040523d82523d6000602084013e6107ba565b606091505b50915091506107ca8282866107e9565b92505050949350505050565b600080823b905060008111915050919050565b606083156107f957829050610849565b60008351111561080c5782518084602001fd5b816040517f08c379a00000000000000000000000000000000000000000000000000000000081526004016108409190610b72565b60405180910390fd5b9392505050565b60008135905061085f81610eed565b92915050565b60008151905061087481610f04565b92915050565b60008135905061088981610f1b565b92915050565b60008135905061089e81610f32565b92915050565b6000813590506108b381610f49565b92915050565b6000602082840312156108cf576108ce610d49565b5b60006108dd84828501610850565b91505092915050565b6000602082840312156108fc576108fb610d49565b5b600061090a84828501610865565b91505092915050565b60006020828403121561092957610928610d49565b5b60006109378482850161087a565b91505092915050565b60008060006060848603121561095957610958610d49565b5b60006109678682870161088f565b935050602061097886828701610850565b9250506040610989868287016108a4565b9150509250925092565b61099c81610c86565b82525050565b60006109ad82610c54565b6109b78185610c6a565b93506109c7818560208601610d16565b80840191505092915050565b6109dc81610cf2565b82525050565b60006109ed82610c5f565b6109f78185610c75565b9350610a07818560208601610d16565b610a1081610d4e565b840191505092915050565b6000610a28602683610c75565b9150610a3382610d5f565b604082019050919050565b6000610a4b602683610c75565b9150610a5682610dae565b604082019050919050565b6000610a6e602083610c75565b9150610a7982610dfd565b602082019050919050565b6000610a91602b83610c75565b9150610a9c82610e26565b604082019050919050565b6000610ab4601d83610c75565b9150610abf82610e75565b602082019050919050565b6000610ad7602a83610c75565b9150610ae282610e9e565b604082019050919050565b610af681610ce8565b82525050565b6000610b0882846109a2565b915081905092915050565b6000602082019050610b286000830184610993565b92915050565b6000604082019050610b436000830185610993565b610b506020830184610aed565b9392505050565b6000602082019050610b6c60008301846109d3565b92915050565b60006020820190508181036000830152610b8c81846109e2565b905092915050565b60006020820190508181036000830152610bad81610a1b565b9050919050565b60006020820190508181036000830152610bcd81610a3e565b9050919050565b60006020820190508181036000830152610bed81610a61565b9050919050565b60006020820190508181036000830152610c0d81610a84565b9050919050565b60006020820190508181036000830152610c2d81610aa7565b9050919050565b60006020820190508181036000830152610c4d81610aca565b9050919050565b600081519050919050565b600081519050919050565b600081905092915050565b600082825260208201905092915050565b6000610c9182610cc8565b9050919050565b60008115159050919050565b6000610caf82610c86565b9050919050565b6000610cc182610c86565b9050919050565b600073ffffffffffffffffffffffffffffffffffffffff82169050919050565b6000819050919050565b6000610cfd82610d04565b9050919050565b6000610d0f82610cc8565b9050919050565b60005b83811015610d34578082015181840152602081019050610d19565b83811115610d43576000848401525b50505050565b600080fd5b6000601f19601f8301169050919050565b7f4f776e61626c653a206e6577206f776e657220697320746865207a65726f206160008201527f6464726573730000000000000000000000000000000000000000000000000000602082015250565b7f416464726573733a20696e73756666696369656e742062616c616e636520666f60008201527f722063616c6c0000000000000000000000000000000000000000000000000000602082015250565b7f4f776e61626c653a2063616c6c6572206973206e6f7420746865206f776e6572600082015250565b7f54726561737572793a204e4f545f434f4d4d554e4954595f41444d494e20414e60008201527f44204e4f545f4f574e4552000000000000000000000000000000000000000000602082015250565b7f416464726573733a2063616c6c20746f206e6f6e2d636f6e7472616374000000600082015250565b7f5361666545524332303a204552433230206f7065726174696f6e20646964206e60008201527f6f74207375636365656400000000000000000000000000000000000000000000602082015250565b610ef681610c86565b8114610f0157600080fd5b50565b610f0d81610c98565b8114610f1857600080fd5b50565b610f2481610ca4565b8114610f2f57600080fd5b50565b610f3b81610cb6565b8114610f4657600080fd5b50565b610f5281610ce8565b8114610f5d57600080fd5b5056fea26469706673582212203a028f58bbdf2924ba48ade7c7177a7255acf195edcb85fda1c9846543539c9e64736f6c63430008050033",
  "devdoc": {
    "kind": "dev",
    "methods": {
      "owner()": {
        "details": "Returns the address of the current owner."
      },
      "renounceOwnership()": {
        "details": "Leaves the contract without owner. It will not be possible to call `onlyOwner` functions anymore. Can only be called by the current owner. NOTE: Renouncing ownership will leave the contract without an owner, thereby removing any functionality that is only available to the owner."
      },
      "transferOwnership(address)": {
        "details": "Transfers ownership of the contract to a new account (`newOwner`). Can only be called by the current owner."
      }
    },
    "version": 1
  },
  "userdoc": {
    "kind": "user",
    "methods": {},
    "version": 1
  },
  "storageLayout": {
    "storage": [
      {
        "astId": 1449,
        "contract": "contracts/token/Treasury.sol:Treasury",
        "label": "_owner",
        "offset": 0,
        "slot": "0",
        "type": "t_address"
      },
      {
        "astId": 12280,
        "contract": "contracts/token/Treasury.sol:Treasury",
        "label": "_communityAdmin",
        "offset": 0,
        "slot": "1",
        "type": "t_contract(ICommunityAdmin)8954"
      }
    ],
    "types": {
      "t_address": {
        "encoding": "inplace",
        "label": "address",
        "numberOfBytes": "20"
      },
      "t_contract(ICommunityAdmin)8954": {
        "encoding": "inplace",
        "label": "contract ICommunityAdmin",
        "numberOfBytes": "20"
      }
    }
  }
}