{
  "address": "0xa60427fa60E0c3e6D3DEa9728E2efE60b4d8E25a",
  "abi": [
    {
      "anonymous": false,
      "inputs": [
        {
          "indexed": true,
          "internalType": "address",
          "name": "oldCommunityAdmin",
          "type": "address"
        },
        {
          "indexed": true,
          "internalType": "address",
          "name": "newCommunityAdmin",
          "type": "address"
        }
      ],
      "name": "CommunityAdminUpdated",
      "type": "event"
    },
    {
      "anonymous": false,
      "inputs": [
        {
          "indexed": true,
          "internalType": "address",
          "name": "previousOwner",
          "type": "address"
        },
        {
          "indexed": true,
          "internalType": "address",
          "name": "newOwner",
          "type": "address"
        }
      ],
      "name": "OwnershipTransferred",
      "type": "event"
    },
    {
      "anonymous": false,
      "inputs": [
        {
          "indexed": true,
          "internalType": "address",
          "name": "token",
          "type": "address"
        },
        {
          "indexed": true,
          "internalType": "address",
          "name": "to",
          "type": "address"
        },
        {
          "indexed": false,
          "internalType": "uint256",
          "name": "amount",
          "type": "uint256"
        }
      ],
      "name": "TransferERC20",
      "type": "event"
    },
    {
      "inputs": [],
      "name": "communityAdmin",
      "outputs": [
        {
          "internalType": "contract ICommunityAdmin",
          "name": "",
          "type": "address"
        }
      ],
      "stateMutability": "view",
      "type": "function"
    },
    {
      "inputs": [],
      "name": "getVersion",
      "outputs": [
        {
          "internalType": "uint256",
          "name": "",
          "type": "uint256"
        }
      ],
      "stateMutability": "pure",
      "type": "function"
    },
    {
      "inputs": [
        {
          "internalType": "contract ICommunityAdmin",
          "name": "_communityAdmin",
          "type": "address"
        }
      ],
      "name": "initialize",
      "outputs": [],
      "stateMutability": "nonpayable",
      "type": "function"
    },
    {
      "inputs": [],
      "name": "owner",
      "outputs": [
        {
          "internalType": "address",
          "name": "",
          "type": "address"
        }
      ],
      "stateMutability": "view",
      "type": "function"
    },
    {
      "inputs": [],
      "name": "renounceOwnership",
      "outputs": [],
      "stateMutability": "nonpayable",
      "type": "function"
    },
    {
      "inputs": [
        {
          "internalType": "contract IERC20",
          "name": "_token",
          "type": "address"
        },
        {
          "internalType": "address",
          "name": "_to",
          "type": "address"
        },
        {
          "internalType": "uint256",
          "name": "_amount",
          "type": "uint256"
        }
      ],
      "name": "transfer",
      "outputs": [],
      "stateMutability": "nonpayable",
      "type": "function"
    },
    {
      "inputs": [
        {
          "internalType": "address",
          "name": "newOwner",
          "type": "address"
        }
      ],
      "name": "transferOwnership",
      "outputs": [],
      "stateMutability": "nonpayable",
      "type": "function"
    },
    {
      "inputs": [
        {
          "internalType": "contract ICommunityAdmin",
          "name": "_newCommunityAdmin",
          "type": "address"
        }
      ],
      "name": "updateCommunityAdmin",
      "outputs": [],
      "stateMutability": "nonpayable",
      "type": "function"
    }
  ],
  "transactionHash": "0x75c13801e69ef44068bb314239fff4a43df2cf36b76bb31761774f2eae7ac3f6",
  "args": [],
  "solcInputHash": "bc78398ad6ba86cebe8213030fed1011",
  "bytecode": "0x608060405234801561001057600080fd5b50610b39806100206000396000f3fe608060405234801561001057600080fd5b50600436106100885760003560e01c8063beabacc81161005b578063beabacc8146100e7578063c4d66de8146100fa578063d33d4ec61461010d578063f2fde38b1461012057600080fd5b80630d8e6e2c1461008d5780635fac917a146100a1578063715018a6146100cc5780638da5cb5b146100d6575b600080fd5b604051600181526020015b60405180910390f35b6097546100b4906001600160a01b031681565b6040516001600160a01b039091168152602001610098565b6100d4610133565b005b6033546001600160a01b03166100b4565b6100d46100f53660046109ac565b610172565b6100d4610108366004610970565b6102b8565b6100d461011b366004610970565b610350565b6100d461012e366004610970565b6103cc565b6033546001600160a01b031633146101665760405162461bcd60e51b815260040161015d90610a89565b60405180910390fd5b6101706000610467565b565b6097546001600160a01b031633148061019557506033546001600160a01b031633145b6101f55760405162461bcd60e51b815260206004820152602b60248201527f54726561737572793a204e4f545f434f4d4d554e4954595f41444d494e20414e60448201526a22102727aa2fa7aba722a960a91b606482015260840161015d565b600260655414156102485760405162461bcd60e51b815260206004820152601f60248201527f5265656e7472616e637947756172643a207265656e7472616e742063616c6c00604482015260640161015d565b60026065556102616001600160a01b03841683836104b9565b816001600160a01b0316836001600160a01b03167f9b035625e569d1d2bf54830a290aefba7ab11610ba8490871dc62b86b63a8956836040516102a691815260200190565b60405180910390a35050600160655550565b600054610100900460ff16806102d1575060005460ff16155b6102ed5760405162461bcd60e51b815260040161015d90610a3b565b600054610100900460ff1615801561030f576000805461ffff19166101011790555b610317610510565b61031f61058b565b609780546001600160a01b0319166001600160a01b038416179055801561034c576000805461ff00191690555b5050565b6033546001600160a01b0316331461037a5760405162461bcd60e51b815260040161015d90610a89565b609780546001600160a01b038381166001600160a01b0319831681179093556040519116919082907fdd8d3b7b0badfc5d636d48e71e28015b4b8554b64d2cffba6f0a90bf7693ec0090600090a35050565b6033546001600160a01b031633146103f65760405162461bcd60e51b815260040161015d90610a89565b6001600160a01b03811661045b5760405162461bcd60e51b815260206004820152602660248201527f4f776e61626c653a206e6577206f776e657220697320746865207a65726f206160448201526564647265737360d01b606482015260840161015d565b61046481610467565b50565b603380546001600160a01b038381166001600160a01b0319831681179093556040519116919082907f8be0079c531659141344cd1fd0a4f28419497f9722a3daafe3b4186f6b6457e090600090a35050565b604080516001600160a01b038416602482015260448082018490528251808303909101815260649091019091526020810180516001600160e01b031663a9059cbb60e01b17905261050b9084906105ea565b505050565b600054610100900460ff1680610529575060005460ff16155b6105455760405162461bcd60e51b815260040161015d90610a3b565b600054610100900460ff16158015610567576000805461ffff19166101011790555b61056f6106bc565b610577610726565b8015610464576000805461ff001916905550565b600054610100900460ff16806105a4575060005460ff16155b6105c05760405162461bcd60e51b815260040161015d90610a3b565b600054610100900460ff161580156105e2576000805461ffff19166101011790555b610577610786565b600061063f826040518060400160405280602081526020017f5361666545524332303a206c6f772d6c6576656c2063616c6c206661696c6564815250856001600160a01b03166107f69092919063ffffffff16565b80519091501561050b578080602001905181019061065d919061098c565b61050b5760405162461bcd60e51b815260206004820152602a60248201527f5361666545524332303a204552433230206f7065726174696f6e20646964206e6044820152691bdd081cdd58d8d9595960b21b606482015260840161015d565b600054610100900460ff16806106d5575060005460ff16155b6106f15760405162461bcd60e51b815260040161015d90610a3b565b600054610100900460ff16158015610577576000805461ffff19166101011790558015610464576000805461ff001916905550565b600054610100900460ff168061073f575060005460ff16155b61075b5760405162461bcd60e51b815260040161015d90610a3b565b600054610100900460ff1615801561077d576000805461ffff19166101011790555b61057733610467565b600054610100900460ff168061079f575060005460ff16155b6107bb5760405162461bcd60e51b815260040161015d90610a3b565b600054610100900460ff161580156107dd576000805461ffff19166101011790555b60016065558015610464576000805461ff001916905550565b6060610805848460008561080f565b90505b9392505050565b6060824710156108705760405162461bcd60e51b815260206004820152602660248201527f416464726573733a20696e73756666696369656e742062616c616e636520666f6044820152651c8818d85b1b60d21b606482015260840161015d565b843b6108be5760405162461bcd60e51b815260206004820152601d60248201527f416464726573733a2063616c6c20746f206e6f6e2d636f6e7472616374000000604482015260640161015d565b600080866001600160a01b031685876040516108da91906109ec565b60006040518083038185875af1925050503d8060008114610917576040519150601f19603f3d011682016040523d82523d6000602084013e61091c565b606091505b509150915061092c828286610937565b979650505050505050565b60608315610946575081610808565b8251156109565782518084602001fd5b8160405162461bcd60e51b815260040161015d9190610a08565b600060208284031215610981578081fd5b813561080881610aee565b60006020828403121561099d578081fd5b81518015158114610808578182fd5b6000806000606084860312156109c0578182fd5b83356109cb81610aee565b925060208401356109db81610aee565b929592945050506040919091013590565b600082516109fe818460208701610abe565b9190910192915050565b6020815260008251806020840152610a27816040850160208701610abe565b601f01601f19169190910160400192915050565b6020808252602e908201527f496e697469616c697a61626c653a20636f6e747261637420697320616c72656160408201526d191e481a5b9a5d1a585b1a5e995960921b606082015260800190565b6020808252818101527f4f776e61626c653a2063616c6c6572206973206e6f7420746865206f776e6572604082015260600190565b60005b83811015610ad9578181015183820152602001610ac1565b83811115610ae8576000848401525b50505050565b6001600160a01b038116811461046457600080fdfea264697066735822122014e6499d50443c99548ec969c334cc7199d37df9e8a23c2f67ac408f105a068f64736f6c63430008040033",
  "devdoc": {
    "events": {
      "CommunityAdminUpdated(address,address)": {
        "params": {
          "newCommunityAdmin": "New communityAdmin address",
          "oldCommunityAdmin": "Old communityAdmin address"
        }
      },
      "TransferERC20(address,address,uint256)": {
        "params": {
          "amount": "Amount of the transaction",
          "to": "Address of the receiver",
          "token": "ERC20 token address"
        }
      }
    },
    "kind": "dev",
    "methods": {
      "initialize(address)": {
        "params": {
          "_communityAdmin": "Address of the CommunityAdmin contract"
        }
      },
      "owner()": {
        "details": "Returns the address of the current owner."
      },
      "renounceOwnership()": {
        "details": "Leaves the contract without owner. It will not be possible to call `onlyOwner` functions anymore. Can only be called by the current owner. NOTE: Renouncing ownership will leave the contract without an owner, thereby removing any functionality that is only available to the owner."
      },
      "transfer(address,address,uint256)": {
        "params": {
          "_amount": "amount of the transaction",
          "_to": "address of the receiver",
          "_token": "address of the ERC20 token"
        }
      },
      "transferOwnership(address)": {
        "details": "Transfers ownership of the contract to a new account (`newOwner`). Can only be called by the current owner."
      },
      "updateCommunityAdmin(address)": {
        "params": {
          "_newCommunityAdmin": "address of the new CommunityAdmin contract"
        }
      }
    },
    "version": 1
  },
  "userdoc": {
    "events": {
      "CommunityAdminUpdated(address,address)": {
        "notice": "Triggered when CommunityAdmin has been updated"
      },
      "TransferERC20(address,address,uint256)": {
        "notice": "Triggered when an amount of an ERC20 has been transferred from this contract to an address"
      }
    },
    "kind": "user",
    "methods": {
      "getVersion()": {
        "notice": "Returns the current implementation version"
      },
      "initialize(address)": {
        "notice": "Used to initialize a new Treasury contract"
      },
      "transfer(address,address,uint256)": {
        "notice": "Transfers an amount of an ERC20 from this contract to an address"
      },
      "updateCommunityAdmin(address)": {
        "notice": "Updates the CommunityAdmin contract address"
      }
    },
    "version": 1
  },
  "storageLayout": {
    "storage": [
      {
        "astId": 538,
        "contract": "contracts/token/TreasuryImplementation.sol:TreasuryImplementation",
        "label": "_initialized",
        "offset": 0,
        "slot": "0",
        "type": "t_bool"
      },
      {
        "astId": 541,
        "contract": "contracts/token/TreasuryImplementation.sol:TreasuryImplementation",
        "label": "_initializing",
        "offset": 1,
        "slot": "0",
        "type": "t_bool"
      },
      {
        "astId": 792,
        "contract": "contracts/token/TreasuryImplementation.sol:TreasuryImplementation",
        "label": "__gap",
        "offset": 0,
        "slot": "1",
        "type": "t_array(t_uint256)50_storage"
      },
      {
        "astId": 418,
        "contract": "contracts/token/TreasuryImplementation.sol:TreasuryImplementation",
        "label": "_owner",
        "offset": 0,
        "slot": "51",
        "type": "t_address"
      },
      {
        "astId": 531,
        "contract": "contracts/token/TreasuryImplementation.sol:TreasuryImplementation",
        "label": "__gap",
        "offset": 0,
        "slot": "52",
        "type": "t_array(t_uint256)49_storage"
      },
      {
        "astId": 705,
        "contract": "contracts/token/TreasuryImplementation.sol:TreasuryImplementation",
        "label": "_status",
        "offset": 0,
        "slot": "101",
        "type": "t_uint256"
      },
      {
        "astId": 748,
        "contract": "contracts/token/TreasuryImplementation.sol:TreasuryImplementation",
        "label": "__gap",
        "offset": 0,
        "slot": "102",
        "type": "t_array(t_uint256)49_storage"
      },
      {
        "astId": 18673,
        "contract": "contracts/token/TreasuryImplementation.sol:TreasuryImplementation",
        "label": "communityAdmin",
        "offset": 0,
        "slot": "151",
        "type": "t_contract(ICommunityAdmin)10187"
      }
    ],
    "types": {
      "t_address": {
        "encoding": "inplace",
        "label": "address",
        "numberOfBytes": "20"
      },
      "t_array(t_uint256)49_storage": {
        "base": "t_uint256",
        "encoding": "inplace",
        "label": "uint256[49]",
        "numberOfBytes": "1568"
      },
      "t_array(t_uint256)50_storage": {
        "base": "t_uint256",
        "encoding": "inplace",
        "label": "uint256[50]",
        "numberOfBytes": "1600"
      },
      "t_bool": {
        "encoding": "inplace",
        "label": "bool",
        "numberOfBytes": "1"
      },
      "t_contract(ICommunityAdmin)10187": {
        "encoding": "inplace",
        "label": "contract ICommunityAdmin",
        "numberOfBytes": "20"
      },
      "t_uint256": {
        "encoding": "inplace",
        "label": "uint256",
        "numberOfBytes": "32"
      }
    }
  }
}