{
  "address": "0x7AE1ea355908ab7C57EdCb9d38206A7418ca8Af4",
  "abi": [
    {
      "anonymous": false,
      "inputs": [
        {
          "indexed": true,
          "internalType": "address",
          "name": "previousOwner",
          "type": "address"
        },
        {
          "indexed": true,
          "internalType": "address",
          "name": "newOwner",
          "type": "address"
        }
      ],
      "name": "OwnershipTransferred",
      "type": "event"
    },
    {
      "inputs": [],
      "name": "communityAdmin",
      "outputs": [
        {
          "internalType": "contract ICommunityAdmin",
          "name": "",
          "type": "address"
        }
      ],
      "stateMutability": "view",
      "type": "function"
    },
    {
      "inputs": [
        {
          "internalType": "contract ICommunityAdmin",
          "name": "communityAdmin_",
          "type": "address"
        }
      ],
      "name": "initialize",
      "outputs": [],
      "stateMutability": "nonpayable",
      "type": "function"
    },
    {
      "inputs": [],
      "name": "owner",
      "outputs": [
        {
          "internalType": "address",
          "name": "",
          "type": "address"
        }
      ],
      "stateMutability": "view",
      "type": "function"
    },
    {
      "inputs": [],
      "name": "renounceOwnership",
      "outputs": [],
      "stateMutability": "nonpayable",
      "type": "function"
    },
    {
      "inputs": [
        {
          "internalType": "contract ICommunityAdmin",
          "name": "communityAdmin_",
          "type": "address"
        }
      ],
      "name": "setCommunityAdmin",
      "outputs": [],
      "stateMutability": "nonpayable",
      "type": "function"
    },
    {
      "inputs": [
        {
          "internalType": "contract IERC20",
          "name": "token_",
          "type": "address"
        },
        {
          "internalType": "address",
          "name": "to_",
          "type": "address"
        },
        {
          "internalType": "uint256",
          "name": "amount_",
          "type": "uint256"
        }
      ],
      "name": "transfer",
      "outputs": [],
      "stateMutability": "nonpayable",
      "type": "function"
    },
    {
      "inputs": [
        {
          "internalType": "address",
          "name": "newOwner",
          "type": "address"
        }
      ],
      "name": "transferOwnership",
      "outputs": [],
      "stateMutability": "nonpayable",
      "type": "function"
    }
  ],
  "transactionHash": "0x96048a8021f113bc22d96bea1470ec179343c3447f32f41b0a75325f07287f07",
  "args": [],
  "solcInputHash": "3bc71f9a138f3878c759acccb5102221",
  "bytecode": "0x608060405234801561001057600080fd5b50611437806100206000396000f3fe608060405234801561001057600080fd5b506004361061007d5760003560e01c80638da5cb5b1161005b5780638da5cb5b146100c6578063beabacc8146100e4578063c4d66de814610100578063f2fde38b1461011c5761007d565b806335c611b2146100825780635fac917a1461009e578063715018a6146100bc575b600080fd5b61009c60048036038101906100979190610d22565b610138565b005b6100a66101f7565b6040516100b39190610f89565b60405180910390f35b6100c4610220565b005b6100ce6102a8565b6040516100db9190610f45565b60405180910390f35b6100fe60048036038101906100f99190610d4f565b6102d2565b005b61011a60048036038101906101159190610d22565b6103cd565b005b61013660048036038101906101319190610cc8565b6104f2565b005b6101406105ea565b73ffffffffffffffffffffffffffffffffffffffff1661015e6102a8565b73ffffffffffffffffffffffffffffffffffffffff16146101b4576040517f08c379a00000000000000000000000000000000000000000000000000000000081526004016101ab90611026565b60405180910390fd5b806000806101000a81548173ffffffffffffffffffffffffffffffffffffffff021916908373ffffffffffffffffffffffffffffffffffffffff16021790555050565b60008060009054906101000a900473ffffffffffffffffffffffffffffffffffffffff16905090565b6102286105ea565b73ffffffffffffffffffffffffffffffffffffffff166102466102a8565b73ffffffffffffffffffffffffffffffffffffffff161461029c576040517f08c379a000000000000000000000000000000000000000000000000000000000815260040161029390611026565b60405180910390fd5b6102a660006105f2565b565b6000603360009054906101000a900473ffffffffffffffffffffffffffffffffffffffff16905090565b60008054906101000a900473ffffffffffffffffffffffffffffffffffffffff1673ffffffffffffffffffffffffffffffffffffffff163373ffffffffffffffffffffffffffffffffffffffff16148061035e575061032f6102a8565b73ffffffffffffffffffffffffffffffffffffffff163373ffffffffffffffffffffffffffffffffffffffff16145b61039d576040517f08c379a000000000000000000000000000000000000000000000000000000000815260040161039490611046565b60405180910390fd5b6103c882828573ffffffffffffffffffffffffffffffffffffffff166106b89092919063ffffffff16565b505050565b600060159054906101000a900460ff16806103f55750600060149054906101000a900460ff16155b610434576040517f08c379a000000000000000000000000000000000000000000000000000000000815260040161042b90611006565b60405180910390fd5b60008060159054906101000a900460ff161590508015610485576001600060156101000a81548160ff0219169083151502179055506001600060146101000a81548160ff0219169083151502179055505b61048d61073e565b816000806101000a81548173ffffffffffffffffffffffffffffffffffffffff021916908373ffffffffffffffffffffffffffffffffffffffff16021790555080156104ee5760008060156101000a81548160ff0219169083151502179055505b5050565b6104fa6105ea565b73ffffffffffffffffffffffffffffffffffffffff166105186102a8565b73ffffffffffffffffffffffffffffffffffffffff161461056e576040517f08c379a000000000000000000000000000000000000000000000000000000000815260040161056590611026565b60405180910390fd5b600073ffffffffffffffffffffffffffffffffffffffff168173ffffffffffffffffffffffffffffffffffffffff1614156105de576040517f08c379a00000000000000000000000000000000000000000000000000000000081526004016105d590610fc6565b60405180910390fd5b6105e7816105f2565b50565b600033905090565b6000603360009054906101000a900473ffffffffffffffffffffffffffffffffffffffff16905081603360006101000a81548173ffffffffffffffffffffffffffffffffffffffff021916908373ffffffffffffffffffffffffffffffffffffffff1602179055508173ffffffffffffffffffffffffffffffffffffffff168173ffffffffffffffffffffffffffffffffffffffff167f8be0079c531659141344cd1fd0a4f28419497f9722a3daafe3b4186f6b6457e060405160405180910390a35050565b6107398363a9059cbb60e01b84846040516024016106d7929190610f60565b604051602081830303815290604052907bffffffffffffffffffffffffffffffffffffffffffffffffffffffff19166020820180517bffffffffffffffffffffffffffffffffffffffffffffffffffffffff838183161783525050505061082a565b505050565b600060159054906101000a900460ff16806107665750600060149054906101000a900460ff16155b6107a5576040517f08c379a000000000000000000000000000000000000000000000000000000000815260040161079c90611006565b60405180910390fd5b60008060159054906101000a900460ff1615905080156107f6576001600060156101000a81548160ff0219169083151502179055506001600060146101000a81548160ff0219169083151502179055505b6107fe6108f1565b6108066109cd565b80156108275760008060156101000a81548160ff0219169083151502179055505b50565b600061088c826040518060400160405280602081526020017f5361666545524332303a206c6f772d6c6576656c2063616c6c206661696c65648152508573ffffffffffffffffffffffffffffffffffffffff16610ab99092919063ffffffff16565b90506000815111156108ec57808060200190518101906108ac9190610cf5565b6108eb576040517f08c379a00000000000000000000000000000000000000000000000000000000081526004016108e290611086565b60405180910390fd5b5b505050565b600060159054906101000a900460ff16806109195750600060149054906101000a900460ff16155b610958576040517f08c379a000000000000000000000000000000000000000000000000000000000815260040161094f90611006565b60405180910390fd5b60008060159054906101000a900460ff1615905080156109a9576001600060156101000a81548160ff0219169083151502179055506001600060146101000a81548160ff0219169083151502179055505b80156109ca5760008060156101000a81548160ff0219169083151502179055505b50565b600060159054906101000a900460ff16806109f55750600060149054906101000a900460ff16155b610a34576040517f08c379a0000000000000000000000000000000000000000000000000000000008152600401610a2b90611006565b60405180910390fd5b60008060159054906101000a900460ff161590508015610a85576001600060156101000a81548160ff0219169083151502179055506001600060146101000a81548160ff0219169083151502179055505b610a95610a906105ea565b6105f2565b8015610ab65760008060156101000a81548160ff0219169083151502179055505b50565b6060610ac88484600085610ad1565b90509392505050565b606082471015610b16576040517f08c379a0000000000000000000000000000000000000000000000000000000008152600401610b0d90610fe6565b60405180910390fd5b610b1f85610be5565b610b5e576040517f08c379a0000000000000000000000000000000000000000000000000000000008152600401610b5590611066565b60405180910390fd5b6000808673ffffffffffffffffffffffffffffffffffffffff168587604051610b879190610f2e565b60006040518083038185875af1925050503d8060008114610bc4576040519150601f19603f3d011682016040523d82523d6000602084013e610bc9565b606091505b5091509150610bd9828286610bf8565b92505050949350505050565b600080823b905060008111915050919050565b60608315610c0857829050610c58565b600083511115610c1b5782518084602001fd5b816040517f08c379a0000000000000000000000000000000000000000000000000000000008152600401610c4f9190610fa4565b60405180910390fd5b9392505050565b600081359050610c6e8161138e565b92915050565b600081519050610c83816113a5565b92915050565b600081359050610c98816113bc565b92915050565b600081359050610cad816113d3565b92915050565b600081359050610cc2816113ea565b92915050565b600060208284031215610cde57610cdd61119b565b5b6000610cec84828501610c5f565b91505092915050565b600060208284031215610d0b57610d0a61119b565b5b6000610d1984828501610c74565b91505092915050565b600060208284031215610d3857610d3761119b565b5b6000610d4684828501610c89565b91505092915050565b600080600060608486031215610d6857610d6761119b565b5b6000610d7686828701610c9e565b9350506020610d8786828701610c5f565b9250506040610d9886828701610cb3565b9150509250925092565b610dab816110d8565b82525050565b6000610dbc826110a6565b610dc681856110bc565b9350610dd6818560208601611168565b80840191505092915050565b610deb81611144565b82525050565b6000610dfc826110b1565b610e0681856110c7565b9350610e16818560208601611168565b610e1f816111a0565b840191505092915050565b6000610e376026836110c7565b9150610e42826111b1565b604082019050919050565b6000610e5a6026836110c7565b9150610e6582611200565b604082019050919050565b6000610e7d602e836110c7565b9150610e888261124f565b604082019050919050565b6000610ea06020836110c7565b9150610eab8261129e565b602082019050919050565b6000610ec3602b836110c7565b9150610ece826112c7565b604082019050919050565b6000610ee6601d836110c7565b9150610ef182611316565b602082019050919050565b6000610f09602a836110c7565b9150610f148261133f565b604082019050919050565b610f288161113a565b82525050565b6000610f3a8284610db1565b915081905092915050565b6000602082019050610f5a6000830184610da2565b92915050565b6000604082019050610f756000830185610da2565b610f826020830184610f1f565b9392505050565b6000602082019050610f9e6000830184610de2565b92915050565b60006020820190508181036000830152610fbe8184610df1565b905092915050565b60006020820190508181036000830152610fdf81610e2a565b9050919050565b60006020820190508181036000830152610fff81610e4d565b9050919050565b6000602082019050818103600083015261101f81610e70565b9050919050565b6000602082019050818103600083015261103f81610e93565b9050919050565b6000602082019050818103600083015261105f81610eb6565b9050919050565b6000602082019050818103600083015261107f81610ed9565b9050919050565b6000602082019050818103600083015261109f81610efc565b9050919050565b600081519050919050565b600081519050919050565b600081905092915050565b600082825260208201905092915050565b60006110e38261111a565b9050919050565b60008115159050919050565b6000611101826110d8565b9050919050565b6000611113826110d8565b9050919050565b600073ffffffffffffffffffffffffffffffffffffffff82169050919050565b6000819050919050565b600061114f82611156565b9050919050565b60006111618261111a565b9050919050565b60005b8381101561118657808201518184015260208101905061116b565b83811115611195576000848401525b50505050565b600080fd5b6000601f19601f8301169050919050565b7f4f776e61626c653a206e6577206f776e657220697320746865207a65726f206160008201527f6464726573730000000000000000000000000000000000000000000000000000602082015250565b7f416464726573733a20696e73756666696369656e742062616c616e636520666f60008201527f722063616c6c0000000000000000000000000000000000000000000000000000602082015250565b7f496e697469616c697a61626c653a20636f6e747261637420697320616c72656160008201527f647920696e697469616c697a6564000000000000000000000000000000000000602082015250565b7f4f776e61626c653a2063616c6c6572206973206e6f7420746865206f776e6572600082015250565b7f54726561737572793a204e4f545f434f4d4d554e4954595f41444d494e20414e60008201527f44204e4f545f4f574e4552000000000000000000000000000000000000000000602082015250565b7f416464726573733a2063616c6c20746f206e6f6e2d636f6e7472616374000000600082015250565b7f5361666545524332303a204552433230206f7065726174696f6e20646964206e60008201527f6f74207375636365656400000000000000000000000000000000000000000000602082015250565b611397816110d8565b81146113a257600080fd5b50565b6113ae816110ea565b81146113b957600080fd5b50565b6113c5816110f6565b81146113d057600080fd5b50565b6113dc81611108565b81146113e757600080fd5b50565b6113f38161113a565b81146113fe57600080fd5b5056fea26469706673582212206eb2b4c310999c822794caca070afe3378c2eb65759dfe53c87b748979004a7364736f6c63430008050033",
  "devdoc": {
    "kind": "dev",
    "methods": {
      "owner()": {
        "details": "Returns the address of the current owner."
      },
      "renounceOwnership()": {
        "details": "Leaves the contract without owner. It will not be possible to call `onlyOwner` functions anymore. Can only be called by the current owner. NOTE: Renouncing ownership will leave the contract without an owner, thereby removing any functionality that is only available to the owner."
      },
      "transferOwnership(address)": {
        "details": "Transfers ownership of the contract to a new account (`newOwner`). Can only be called by the current owner."
      }
    },
    "version": 1
  },
  "userdoc": {
    "kind": "user",
    "methods": {},
    "version": 1
  },
  "storageLayout": {
    "storage": [
      {
        "astId": 12739,
        "contract": "contracts/token/TreasuryImplementation.sol:TreasuryImplementation",
        "label": "_communityAdmin",
        "offset": 0,
        "slot": "0",
        "type": "t_contract(ICommunityAdmin)9063"
      },
      {
        "astId": 538,
        "contract": "contracts/token/TreasuryImplementation.sol:TreasuryImplementation",
        "label": "_initialized",
        "offset": 20,
        "slot": "0",
        "type": "t_bool"
      },
      {
        "astId": 541,
        "contract": "contracts/token/TreasuryImplementation.sol:TreasuryImplementation",
        "label": "_initializing",
        "offset": 21,
        "slot": "0",
        "type": "t_bool"
      },
      {
        "astId": 792,
        "contract": "contracts/token/TreasuryImplementation.sol:TreasuryImplementation",
        "label": "__gap",
        "offset": 0,
        "slot": "1",
        "type": "t_array(t_uint256)50_storage"
      },
      {
        "astId": 418,
        "contract": "contracts/token/TreasuryImplementation.sol:TreasuryImplementation",
        "label": "_owner",
        "offset": 0,
        "slot": "51",
        "type": "t_address"
      },
      {
        "astId": 531,
        "contract": "contracts/token/TreasuryImplementation.sol:TreasuryImplementation",
        "label": "__gap",
        "offset": 0,
        "slot": "52",
        "type": "t_array(t_uint256)49_storage"
      }
    ],
    "types": {
      "t_address": {
        "encoding": "inplace",
        "label": "address",
        "numberOfBytes": "20"
      },
      "t_array(t_uint256)49_storage": {
        "base": "t_uint256",
        "encoding": "inplace",
        "label": "uint256[49]",
        "numberOfBytes": "1568"
      },
      "t_array(t_uint256)50_storage": {
        "base": "t_uint256",
        "encoding": "inplace",
        "label": "uint256[50]",
        "numberOfBytes": "1600"
      },
      "t_bool": {
        "encoding": "inplace",
        "label": "bool",
        "numberOfBytes": "1"
      },
      "t_contract(ICommunityAdmin)9063": {
        "encoding": "inplace",
        "label": "contract ICommunityAdmin",
        "numberOfBytes": "20"
      },
      "t_uint256": {
        "encoding": "inplace",
        "label": "uint256",
        "numberOfBytes": "32"
      }
    }
  }
}