{
  "address": "0x59916829f0d01d8F05a2389928CaC6FecBAd4937",
  "abi": [
    {
      "anonymous": false,
      "inputs": [
        {
          "indexed": false,
          "internalType": "address",
          "name": "member",
          "type": "address"
        }
      ],
      "name": "MemberAdded",
      "type": "event"
    },
    {
      "anonymous": false,
      "inputs": [
        {
          "indexed": false,
          "internalType": "address",
          "name": "member",
          "type": "address"
        }
      ],
      "name": "MemberRemoved",
      "type": "event"
    },
    {
      "anonymous": false,
      "inputs": [
        {
          "indexed": false,
          "internalType": "address",
          "name": "oldImplementation",
          "type": "address"
        },
        {
          "indexed": false,
          "internalType": "address",
          "name": "newImplementation",
          "type": "address"
        }
      ],
      "name": "NewImplementation",
      "type": "event"
    },
    {
      "anonymous": false,
      "inputs": [
        {
          "indexed": true,
          "internalType": "address",
          "name": "previousOwner",
          "type": "address"
        },
        {
          "indexed": true,
          "internalType": "address",
          "name": "newOwner",
          "type": "address"
        }
      ],
      "name": "OwnershipTransferred",
      "type": "event"
    },
    {
      "anonymous": false,
      "inputs": [
        {
          "indexed": false,
          "internalType": "uint256",
          "name": "id",
          "type": "uint256"
        }
      ],
      "name": "ProposalCanceled",
      "type": "event"
    },
    {
      "anonymous": false,
      "inputs": [
        {
          "indexed": false,
          "internalType": "uint256",
          "name": "id",
          "type": "uint256"
        },
        {
          "indexed": false,
          "internalType": "address",
          "name": "proposer",
          "type": "address"
        },
        {
          "indexed": false,
          "internalType": "string[]",
          "name": "signatures",
          "type": "string[]"
        },
        {
          "indexed": false,
          "internalType": "bytes[]",
          "name": "calldatas",
          "type": "bytes[]"
        },
        {
          "indexed": false,
          "internalType": "uint256",
          "name": "endBlock",
          "type": "uint256"
        },
        {
          "indexed": false,
          "internalType": "string",
          "name": "description",
          "type": "string"
        }
      ],
      "name": "ProposalCreated",
      "type": "event"
    },
    {
      "anonymous": false,
      "inputs": [
        {
          "indexed": false,
          "internalType": "uint256",
          "name": "id",
          "type": "uint256"
        }
      ],
      "name": "ProposalExecuted",
      "type": "event"
    },
    {
      "anonymous": false,
      "inputs": [
        {
          "indexed": false,
          "internalType": "uint256",
          "name": "oldQuorumVotes",
          "type": "uint256"
        },
        {
          "indexed": false,
          "internalType": "uint256",
          "name": "newQuorumVotes",
          "type": "uint256"
        }
      ],
      "name": "QuorumVotesSet",
      "type": "event"
    },
    {
      "anonymous": false,
      "inputs": [
        {
          "indexed": true,
          "internalType": "address",
          "name": "token",
          "type": "address"
        },
        {
          "indexed": true,
          "internalType": "address",
          "name": "to",
          "type": "address"
        },
        {
          "indexed": false,
          "internalType": "uint256",
          "name": "amount",
          "type": "uint256"
        }
      ],
      "name": "TransferERC20",
      "type": "event"
    },
    {
      "anonymous": false,
      "inputs": [
        {
          "indexed": true,
          "internalType": "address",
          "name": "voter",
          "type": "address"
        },
        {
          "indexed": false,
          "internalType": "uint256",
          "name": "proposalId",
          "type": "uint256"
        },
        {
          "indexed": false,
          "internalType": "uint8",
          "name": "support",
          "type": "uint8"
        },
        {
          "indexed": false,
          "internalType": "uint256",
          "name": "votes",
          "type": "uint256"
        },
        {
          "indexed": false,
          "internalType": "string",
          "name": "reason",
          "type": "string"
        }
      ],
      "name": "VoteCast",
      "type": "event"
    },
    {
      "inputs": [],
      "name": "MAX_VOTING_PERIOD",
      "outputs": [
        {
          "internalType": "uint256",
          "name": "",
          "type": "uint256"
        }
      ],
      "stateMutability": "view",
      "type": "function"
    },
    {
      "inputs": [],
      "name": "PROPOSAL_MAX_OPERATIONS",
      "outputs": [
        {
          "internalType": "uint256",
          "name": "",
          "type": "uint256"
        }
      ],
      "stateMutability": "view",
      "type": "function"
    },
    {
      "inputs": [
        {
          "internalType": "address",
          "name": "_member",
          "type": "address"
        }
      ],
      "name": "addMember",
      "outputs": [],
      "stateMutability": "nonpayable",
      "type": "function"
    },
    {
      "inputs": [
        {
          "internalType": "uint256",
          "name": "_proposalId",
          "type": "uint256"
        }
      ],
      "name": "cancel",
      "outputs": [],
      "stateMutability": "nonpayable",
      "type": "function"
    },
    {
      "inputs": [
        {
          "internalType": "uint256",
          "name": "_proposalId",
          "type": "uint256"
        },
        {
          "internalType": "uint8",
          "name": "_support",
          "type": "uint8"
        }
      ],
      "name": "castVote",
      "outputs": [],
      "stateMutability": "nonpayable",
      "type": "function"
    },
    {
      "inputs": [],
      "name": "communityAdmin",
      "outputs": [
        {
          "internalType": "contract ICommunityAdmin",
          "name": "",
          "type": "address"
        }
      ],
      "stateMutability": "view",
      "type": "function"
    },
    {
      "inputs": [],
      "name": "communityProxyAdmin",
      "outputs": [
        {
          "internalType": "contract ProxyAdmin",
          "name": "",
          "type": "address"
        }
      ],
      "stateMutability": "view",
      "type": "function"
    },
    {
      "inputs": [
        {
          "internalType": "uint256",
          "name": "_proposalId",
          "type": "uint256"
        }
      ],
      "name": "execute",
      "outputs": [],
      "stateMutability": "payable",
      "type": "function"
    },
    {
      "inputs": [
        {
          "internalType": "uint256",
          "name": "_proposalId",
          "type": "uint256"
        }
      ],
      "name": "getActions",
      "outputs": [
        {
          "internalType": "string[]",
          "name": "signatures",
          "type": "string[]"
        },
        {
          "internalType": "bytes[]",
          "name": "calldatas",
          "type": "bytes[]"
        }
      ],
      "stateMutability": "view",
      "type": "function"
    },
    {
      "inputs": [
        {
          "internalType": "uint256",
          "name": "_proposalId",
          "type": "uint256"
        },
        {
          "internalType": "address",
          "name": "_voter",
          "type": "address"
        }
      ],
      "name": "getReceipt",
      "outputs": [
        {
          "components": [
            {
              "internalType": "bool",
              "name": "hasVoted",
              "type": "bool"
            },
            {
              "internalType": "uint8",
              "name": "support",
              "type": "uint8"
            },
            {
              "internalType": "uint96",
              "name": "votes",
              "type": "uint96"
            }
          ],
          "internalType": "struct UBICommitteeStorageV1.Receipt",
          "name": "",
          "type": "tuple"
        }
      ],
      "stateMutability": "view",
      "type": "function"
    },
    {
      "inputs": [
        {
          "internalType": "uint256",
          "name": "_quorumVotes",
          "type": "uint256"
        },
        {
          "internalType": "contract ICommunityAdmin",
          "name": "_communityAdmin",
          "type": "address"
        },
        {
          "internalType": "address[]",
          "name": "_members",
          "type": "address[]"
        }
      ],
      "name": "initialize",
      "outputs": [],
      "stateMutability": "nonpayable",
      "type": "function"
    },
    {
      "inputs": [
        {
          "internalType": "address",
          "name": "",
          "type": "address"
        }
      ],
      "name": "latestProposalIds",
      "outputs": [
        {
          "internalType": "uint256",
          "name": "",
          "type": "uint256"
        }
      ],
      "stateMutability": "view",
      "type": "function"
    },
    {
      "inputs": [
        {
          "internalType": "address",
          "name": "",
          "type": "address"
        }
      ],
      "name": "members",
      "outputs": [
        {
          "internalType": "bool",
          "name": "",
          "type": "bool"
        }
      ],
      "stateMutability": "view",
      "type": "function"
    },
    {
      "inputs": [],
      "name": "owner",
      "outputs": [
        {
          "internalType": "address",
          "name": "",
          "type": "address"
        }
      ],
      "stateMutability": "view",
      "type": "function"
    },
    {
      "inputs": [
        {
          "internalType": "uint256",
          "name": "",
          "type": "uint256"
        },
        {
          "internalType": "uint256",
          "name": "",
          "type": "uint256"
        }
      ],
      "name": "proposalCalldatas",
      "outputs": [
        {
          "internalType": "bytes",
          "name": "",
          "type": "bytes"
        }
      ],
      "stateMutability": "view",
      "type": "function"
    },
    {
      "inputs": [],
      "name": "proposalCount",
      "outputs": [
        {
          "internalType": "uint256",
          "name": "",
          "type": "uint256"
        }
      ],
      "stateMutability": "view",
      "type": "function"
    },
    {
      "inputs": [
        {
          "internalType": "uint256",
          "name": "",
          "type": "uint256"
        },
        {
          "internalType": "address",
          "name": "",
          "type": "address"
        }
      ],
      "name": "proposalReceipts",
      "outputs": [
        {
          "internalType": "bool",
          "name": "hasVoted",
          "type": "bool"
        },
        {
          "internalType": "uint8",
          "name": "support",
          "type": "uint8"
        },
        {
          "internalType": "uint96",
          "name": "votes",
          "type": "uint96"
        }
      ],
      "stateMutability": "view",
      "type": "function"
    },
    {
      "inputs": [
        {
          "internalType": "uint256",
          "name": "",
          "type": "uint256"
        },
        {
          "internalType": "uint256",
          "name": "",
          "type": "uint256"
        }
      ],
      "name": "proposalSignatures",
      "outputs": [
        {
          "internalType": "string",
          "name": "",
          "type": "string"
        }
      ],
      "stateMutability": "view",
      "type": "function"
    },
    {
      "inputs": [
        {
          "internalType": "uint256",
          "name": "",
          "type": "uint256"
        }
      ],
      "name": "proposals",
      "outputs": [
        {
          "internalType": "uint256",
          "name": "id",
          "type": "uint256"
        },
        {
          "internalType": "address",
          "name": "proposer",
          "type": "address"
        },
        {
          "internalType": "uint256",
          "name": "endBlock",
          "type": "uint256"
        },
        {
          "internalType": "uint256",
          "name": "forVotes",
          "type": "uint256"
        },
        {
          "internalType": "uint256",
          "name": "againstVotes",
          "type": "uint256"
        },
        {
          "internalType": "uint256",
          "name": "abstainVotes",
          "type": "uint256"
        },
        {
          "internalType": "bool",
          "name": "canceled",
          "type": "bool"
        },
        {
          "internalType": "bool",
          "name": "executed",
          "type": "bool"
        }
      ],
      "stateMutability": "view",
      "type": "function"
    },
    {
      "inputs": [
        {
          "internalType": "string[]",
          "name": "_signatures",
          "type": "string[]"
        },
        {
          "internalType": "bytes[]",
          "name": "_calldatas",
          "type": "bytes[]"
        },
        {
          "internalType": "string",
          "name": "_description",
          "type": "string"
        }
      ],
      "name": "propose",
      "outputs": [
        {
          "internalType": "uint256",
          "name": "",
          "type": "uint256"
        }
      ],
      "stateMutability": "nonpayable",
      "type": "function"
    },
    {
      "inputs": [],
      "name": "quorumVotes",
      "outputs": [
        {
          "internalType": "uint256",
          "name": "",
          "type": "uint256"
        }
      ],
      "stateMutability": "view",
      "type": "function"
    },
    {
      "inputs": [
        {
          "internalType": "address",
          "name": "_member",
          "type": "address"
        }
      ],
      "name": "removeMember",
      "outputs": [],
      "stateMutability": "nonpayable",
      "type": "function"
    },
    {
      "inputs": [],
      "name": "renounceOwnership",
      "outputs": [],
      "stateMutability": "nonpayable",
      "type": "function"
    },
    {
      "inputs": [
        {
          "internalType": "uint256",
          "name": "_newQuorumVotes",
          "type": "uint256"
        }
      ],
      "name": "setQuorumVotes",
      "outputs": [],
      "stateMutability": "nonpayable",
      "type": "function"
    },
    {
      "inputs": [
        {
          "internalType": "uint256",
          "name": "_proposalId",
          "type": "uint256"
        }
      ],
      "name": "state",
      "outputs": [
        {
          "internalType": "enum UBICommitteeStorageV1.ProposalState",
          "name": "",
          "type": "uint8"
        }
      ],
      "stateMutability": "view",
      "type": "function"
    },
    {
      "inputs": [
        {
          "internalType": "address",
          "name": "newOwner",
          "type": "address"
        }
      ],
      "name": "transferOwnership",
      "outputs": [],
      "stateMutability": "nonpayable",
      "type": "function"
    }
  ],
  "transactionHash": "0x16dfe5b5fdbb34d952122020dbfadad80ba2f6a0139d8ac67ca7270657ac7b15",
  "args": [],
  "numDeployments": 1,
  "solcInputHash": "9eb897b604538ee3c093b3f66f713a0d",
  "bytecode": "0x608060405234801561001057600080fd5b506134b7806100206000396000f3fe608060405260043610620001a15760003560e01c80635678138811620000e2578063a64e024a1162000095578063da35c664116200006c578063da35c6641462000610578063e23a9a521462000628578063f2fde38b14620006f3578063fe0d94c1146200071857600080fd5b8063a64e024a14620005ad578063c8eb690214620005c6578063ca6d56dc14620005eb57600080fd5b80635678138814620004865780635fac917a14620004ab5780636617674314620004cd578063715018a614620005505780638da5cb5b1462000568578063a4a53a13146200058857600080fd5b806324bc1a6411620001585780633e4f49e6116200012f5780633e4f49e614620003d457806340e58ee51462000408578063463e34be146200042d5780634e42b06d146200045257600080fd5b806324bc1a641462000370578063328dd982146200038857806336e7048a14620003bd57600080fd5b8063013cf08b14620001a6578063016a0416146200026457806302ec8f9e146200029f57806308ae4b0c14620002c65780630b1ca49a146200030b57806317977c611462000330575b600080fd5b348015620001b357600080fd5b5062000218620001c5366004620025e5565b609c60205260009081526040902080546001820154600283015460038401546004850154600586015460069096015494956001600160a01b03909416949293919290919060ff8082169161010090041688565b604080519889526001600160a01b039097166020890152958701949094526060860192909252608085015260a0840152151560c0830152151560e0820152610100015b60405180910390f35b3480156200027157600080fd5b5060975462000286906001600160a01b031681565b6040516001600160a01b0390911681526020016200025b565b348015620002ac57600080fd5b50620002c4620002be366004620025e5565b6200072f565b005b348015620002d357600080fd5b50620002fa620002e5366004620024be565b609b6020526000908152604090205460ff1681565b60405190151581526020016200025b565b3480156200031857600080fd5b50620002c46200032a366004620024be565b62000812565b3480156200033d57600080fd5b50620003616200034f366004620024be565b60a06020526000908152604090205481565b6040519081526020016200025b565b3480156200037d57600080fd5b506200036160995481565b3480156200039557600080fd5b50620003ad620003a7366004620025e5565b62000906565b6040516200025b92919062002971565b348015620003ca57600080fd5b5062000361600a81565b348015620003e157600080fd5b50620003f9620003f3366004620025e5565b62000ae1565b6040516200025b9190620029b8565b3480156200041557600080fd5b50620002c462000427366004620025e5565b62000bc9565b3480156200043a57600080fd5b50620002c46200044c36600462002630565b62000d4c565b3480156200045f57600080fd5b506200047762000471366004620026be565b62001193565b6040516200025b9190620029a3565b3480156200049357600080fd5b50620002c4620004a5366004620026e0565b62001255565b348015620004b857600080fd5b5060985462000286906001600160a01b031681565b348015620004da57600080fd5b5062000527620004ec366004620025fe565b609f60209081526000928352604080842090915290825290205460ff808216916101008104909116906201000090046001600160601b031683565b60408051931515845260ff90921660208401526001600160601b0316908201526060016200025b565b3480156200055d57600080fd5b50620002c4620012f9565b3480156200057557600080fd5b506033546001600160a01b031662000286565b3480156200059557600080fd5b5062000477620005a7366004620026be565b62001334565b348015620005ba57600080fd5b50620003616207e90081565b348015620005d357600080fd5b5062000361620005e5366004620024dd565b62001351565b348015620005f857600080fd5b50620002c46200060a366004620024be565b620017ed565b3480156200061d57600080fd5b5062000361609a5481565b3480156200063557600080fd5b50620006c262000647366004620025fe565b6040805160608101825260008082526020820181905291810191909152506000918252609f602090815260408084206001600160a01b03939093168452918152918190208151606081018352905460ff8082161515835261010082041693820193909352620100009092046001600160601b03169082015290565b6040805182511515815260208084015160ff1690820152918101516001600160601b0316908201526060016200025b565b3480156200070057600080fd5b50620002c462000712366004620024be565b620018e4565b620002c462000729366004620025e5565b62001986565b6033546001600160a01b03163314620007655760405162461bcd60e51b81526004016200075c90620029e1565b60405180910390fd5b6001811015620007cc5760405162461bcd60e51b815260206004820152602b60248201527f504143543a3a5f73657451756f72756d566f7465733a20696e76616c6964207160448201526a756f72756d20766f74657360a81b60648201526084016200075c565b609980549082905560408051828152602081018490527fffff0a251408cb8f05a4fc2ab0bdffe28e1519cb8ee5bdb6531e5d6ca51aaf7591015b60405180910390a15050565b6033546001600160a01b031633146200083f5760405162461bcd60e51b81526004016200075c90620029e1565b6001600160a01b0381166000908152609b602052604090205460ff161515600114620008ae5760405162461bcd60e51b815260206004820181905260248201527f504143543a3a72656d6f76654d656d6265723a206e6f742061206d656d62657260448201526064016200075c565b6001600160a01b0381166000818152609b6020908152604091829020805460ff1916905590519182527f6e76fb4c77256006d9c38ec7d82b45a8c8f3c27b1d6766fffc42dfb8de68449291015b60405180910390a150565b6000818152609d60209081526040808320609e835281842081548351818602810186019094528084526060958695939492938592919084015b82821015620009f5578382906000526020600020018054620009619062002c53565b80601f01602080910402602001604051908101604052809291908181526020018280546200098f9062002c53565b8015620009e05780601f10620009b457610100808354040283529160200191620009e0565b820191906000526020600020905b815481529060010190602001808311620009c257829003601f168201915b5050505050815260200190600101906200093f565b50505050915080805480602002602001604051908101604052809291908181526020016000905b8282101562000ad257838290600052602060002001805462000a3e9062002c53565b80601f016020809104026020016040519081016040528092919081815260200182805462000a6c9062002c53565b801562000abd5780601f1062000a915761010080835404028352916020019162000abd565b820191906000526020600020905b81548152906001019060200180831162000a9f57829003601f168201915b50505050508152602001906001019062000a1c565b50505050905091509150915091565b600081609a541162000b365760405162461bcd60e51b815260206004820181905260248201527f504143543a3a73746174653a20696e76616c69642070726f706f73616c20696460448201526064016200075c565b6000828152609c60205260409020600681015460ff161562000b5b5750600292915050565b6006810154610100900460ff161562000b775750600592915050565b806002015443111562000b8d5750600392915050565b8060040154816003015411801562000bab5750609954816003015410155b1562000bba5750600492915050565b50600192915050565b50919050565b336000908152609b602052604090205460ff16151560011462000c005760405162461bcd60e51b81526004016200075c9062002a16565b600562000c0d8262000ae1565b600581111562000c2d57634e487b7160e01b600052602160045260246000fd5b141562000c935760405162461bcd60e51b815260206004820152602d60248201527f504143543a3a63616e63656c3a2063616e6e6f742063616e63656c206578656360448201526c1d5d1959081c1c9bdc1bdcd85b609a1b60648201526084016200075c565b6000818152609c6020526040902060018101546001600160a01b0316331462000d0a5760405162461bcd60e51b815260206004820152602260248201527f504143543a3a63616e63656c3a2070726f706f736572206e6f7420616c6c6f77604482015261195960f21b60648201526084016200075c565b60068101805460ff191660011790556040517f789cf55be980739dad1d0699b93b58e806b51c9d96619bfa8fe0a28abaa7b30c90620008069084815260200190565b600054610100900460ff1662000d695760005460ff161562000d6d565b303b155b62000dd25760405162461bcd60e51b815260206004820152602e60248201527f496e697469616c697a61626c653a20636f6e747261637420697320616c72656160448201526d191e481a5b9a5d1a585b1a5e995960921b60648201526084016200075c565b600054610100900460ff1615801562000df5576000805461ffff19166101011790555b600185101562000e5d5760405162461bcd60e51b815260206004820152602c60248201527f504143543a3a696e697469616c697a653a20696e76616c69642070726f706f7360448201526b185b081d1a1c995cda1bdb1960a21b60648201526084016200075c565b8185111562000eb95760405162461bcd60e51b815260206004820152602160248201527f504143543a3a696e697469616c697a653a20706172616d73206d69736d6174636044820152600d60fb1b60648201526084016200075c565b62000ec362001d88565b62000ecd62001dc6565b60405162000edb9062002198565b604051809103906000f08015801562000ef8573d6000803e3d6000fd5b50609780546001600160a01b03199081166001600160a01b03938416179091556098805490911691861691909117905560998590556040805161010081018252609a80548083523060208401526000938301849052606083018490526080830184905260a08301849052600160c084015260e08301849052919262000f7d8362002c8a565b909155505080516000908152609c602090815260408083208451808255838601516001830180546001600160a01b039092166001600160a01b031990921682179055838701516002840155606087015160038401556080870151600484015560a080880151600585015560c08801516006909401805460e08a015115156101000261ff00199615159690961661ffff199091161794909417909355855292528220555b8381101562001118576001609b60008787858181106200105057634e487b7160e01b600052603260045260246000fd5b9050602002016020810190620010679190620024be565b6001600160a01b031681526020810191909152604001600020805460ff19169115159190911790557fb251eb052afc73ffd02ffe85ad79990a8b3fed60d76dbc2fa2fdd7123dffd914858583818110620010d157634e487b7160e01b600052603260045260246000fd5b9050602002016020810190620010e89190620024be565b6040516001600160a01b03909116815260200160405180910390a1806200110f8162002c8a565b91505062001020565b5080516000818152609d6020908152604080832085518452609e90925280832090517fd21260fef4e3a940974fea60f4f0358e0c66662bfca670bbbc844c9d6077f87994620011709490933093909290919062002af7565b60405180910390a15080156200118c576000805461ff00191690555b5050505050565b609e6020528160005260406000208181548110620011b057600080fd5b90600052602060002001600091509150508054620011ce9062002c53565b80601f0160208091040260200160405190810160405280929190818152602001828054620011fc9062002c53565b80156200124d5780601f1062001221576101008083540402835291602001916200124d565b820191906000526020600020905b8154815290600101906020018083116200122f57829003601f168201915b505050505081565b336000908152609b602052604090205460ff1615156001146200128c5760405162461bcd60e51b81526004016200075c9062002a16565b337fb8e138887d0aa13bab447e82de9d5c1777041ecd21ca36ba824ff1e6c07ddda48383620012bd84838362001dfa565b6040805193845260ff90921660208401526001600160601b03169082015260806060820181905260009082015260a00160405180910390a25050565b6033546001600160a01b03163314620013265760405162461bcd60e51b81526004016200075c90620029e1565b62001332600062002058565b565b609d6020528160005260406000208181548110620011b057600080fd5b336000908152609b602052604081205460ff161515600114620013885760405162461bcd60e51b81526004016200075c9062002a16565b8251845114620014015760405162461bcd60e51b815260206004820152603b60248201527f504143543a3a70726f706f73653a2070726f706f73616c2066756e6374696f6e60448201527f20696e666f726d6174696f6e206172697479206d69736d61746368000000000060648201526084016200075c565b83516200145d5760405162461bcd60e51b815260206004820152602360248201527f504143543a3a70726f706f73653a206d7573742070726f7669646520616374696044820152626f6e7360e81b60648201526084016200075c565b600a84511115620014b15760405162461bcd60e51b815260206004820152601f60248201527f504143543a3a70726f706f73653a20746f6f206d616e7920616374696f6e730060448201526064016200075c565b33600090815260a0602052604090205480156200163c576000620014d58262000ae1565b90506001816005811115620014fa57634e487b7160e01b600052602160045260246000fd5b1415620015885760405162461bcd60e51b815260206004820152604f60248201527f504143543a3a70726f706f73653a206f6e65206c6976652070726f706f73616c60448201527f207065722070726f706f7365722c20666f756e6420616e20616c72656164792060648201526e1858dd1a5d99481c1c9bdc1bdcd85b608a1b608482015260a4016200075c565b6000816005811115620015ab57634e487b7160e01b600052602160045260246000fd5b14156200163a5760405162461bcd60e51b815260206004820152605060248201527f504143543a3a70726f706f73653a206f6e65206c6976652070726f706f73616c60448201527f207065722070726f706f7365722c20666f756e6420616e20616c72656164792060648201526f1c195b991a5b99c81c1c9bdc1bdcd85b60821b608482015260a4016200075c565b505b60006200164d436207e900620020aa565b6040805161010081018252609a80548083523360208401529282018490526000606083018190526080830181905260a0830181905260c0830181905260e083018190529394509092620016a08362002c8a565b909155505080516000908152609c602090815260408083208451808255838601516001830180546001600160a01b039092166001600160a01b0319909216919091179055828601516002830155606086015160038301556080860151600483015560a0860151600583015560c08601516006909201805460e088015115156101000261ff00199415159490941661ffff1990911617929092179091558352609d8252909120885162001755928a0190620021a6565b5080516000908152609e60209081526040909120875162001779928901906200220a565b5080516020808301516001600160a01b0316600090815260a090915260409081902091909155815190517fd21260fef4e3a940974fea60f4f0358e0c66662bfca670bbbc844c9d6077f87991620017da9133908b908b9088908c9062002a8e565b60405180910390a1519695505050505050565b6033546001600160a01b031633146200181a5760405162461bcd60e51b81526004016200075c90620029e1565b6001600160a01b0381166000908152609b602052604090205460ff16156200188f5760405162461bcd60e51b815260206004820152602160248201527f504143543a3a6164644d656d6265723a20616c72656164792061206d656d62656044820152603960f91b60648201526084016200075c565b6001600160a01b0381166000818152609b6020908152604091829020805460ff1916600117905590519182527fb251eb052afc73ffd02ffe85ad79990a8b3fed60d76dbc2fa2fdd7123dffd9149101620008fb565b6033546001600160a01b03163314620019115760405162461bcd60e51b81526004016200075c90620029e1565b6001600160a01b038116620019785760405162461bcd60e51b815260206004820152602660248201527f4f776e61626c653a206e6577206f776e657220697320746865207a65726f206160448201526564647265737360d01b60648201526084016200075c565b620019838162002058565b50565b336000908152609b602052604090205460ff161515600114620019bd5760405162461bcd60e51b81526004016200075c9062002a16565b6004620019ca8262000ae1565b6005811115620019ea57634e487b7160e01b600052602160045260246000fd5b1462001a5f5760405162461bcd60e51b815260206004820152603f60248201527f504143543a3a657865637574653a2070726f706f73616c2063616e206f6e6c7960448201527f206265206578656375746564206966206974206973207375636365656465640060648201526084016200075c565b6000818152609c6020526040812060068101805461ff001916610100179055905b6000838152609e602052604090205481101562001d56576000838152609d602052604090208054606091908390811062001aca57634e487b7160e01b600052603260045260246000fd5b90600052602060002001805462001ae19062002c53565b1515905062001bbc576000848152609e6020526040902080548390811062001b1957634e487b7160e01b600052603260045260246000fd5b90600052602060002001805462001b309062002c53565b80601f016020809104026020016040519081016040528092919081815260200182805462001b5e9062002c53565b801562001baf5780601f1062001b835761010080835404028352916020019162001baf565b820191906000526020600020905b81548152906001019060200180831162001b9157829003601f168201915b5050505050905062001c6e565b6000848152609d6020526040902080548390811062001beb57634e487b7160e01b600052603260045260246000fd5b9060005260206000200160405162001c04919062002963565b6040518091039020609e6000868152602001908152602001600020838154811062001c3f57634e487b7160e01b600052603260045260246000fd5b9060005260206000200160405160200162001c5c9291906200291f565b60405160208183030381529060405290505b6098546040516000916001600160a01b031690829062001c9090859062002945565b60006040518083038185875af1925050503d806000811462001ccf576040519150601f19603f3d011682016040523d82523d6000602084013e62001cd4565b606091505b505090508062001d3e5760405162461bcd60e51b815260206004820152602e60248201527f504143543a3a657865637574653a205472616e73616374696f6e20657865637560448201526d3a34b7b7103932bb32b93a32b21760911b60648201526084016200075c565b5050808062001d4d9062002c8a565b91505062001a80565b506040518281527f712ae1383f79ac853f8d882153778e0260ef8f03b504e2866e0593e04d2b291f9060200162000806565b600054610100900460ff1662001db25760405162461bcd60e51b81526004016200075c9062002a43565b62001dbc62002108565b6200133262002132565b600054610100900460ff1662001df05760405162461bcd60e51b81526004016200075c9062002a43565b6200133262002167565b6000600162001e098462000ae1565b600581111562001e2957634e487b7160e01b600052602160045260246000fd5b1462001e895760405162461bcd60e51b815260206004820152602860248201527f504143543a3a63617374566f7465496e7465726e616c3a20766f74696e6720696044820152671cc818db1bdcd95960c21b60648201526084016200075c565b60028260ff16111562001ef15760405162461bcd60e51b815260206004820152602960248201527f504143543a3a63617374566f7465496e7465726e616c3a20696e76616c696420604482015268766f7465207479706560b81b60648201526084016200075c565b6000838152609c60209081526040808320609f83528184206001600160a01b0389168552909252909120805460ff161562001f835760405162461bcd60e51b815260206004820152602b60248201527f504143543a3a63617374566f7465496e7465726e616c3a20766f74657220616c60448201526a1c9958591e481d9bdd195960aa1b60648201526084016200075c565b600160ff851662001fb25762001fa78360040154826001600160601b0316620020aa565b60048401556200200f565b8460ff166001141562001fe35762001fd88360030154826001600160601b0316620020aa565b60038401556200200f565b8460ff16600214156200200f57620020098360050154826001600160601b0316620020aa565b60058401555b81546001600160601b03821662010000026dffffffffffffffffffffffff00001960ff88166101000261ffff199093169290921760011791909116179091559150509392505050565b603380546001600160a01b038381166001600160a01b0319831681179093556040519116919082907f8be0079c531659141344cd1fd0a4f28419497f9722a3daafe3b4186f6b6457e090600090a35050565b600080620020b9838562002c05565b905083811015620021015760405162461bcd60e51b81526020600482015260116024820152706164646974696f6e206f766572666c6f7760781b60448201526064016200075c565b9392505050565b600054610100900460ff16620013325760405162461bcd60e51b81526004016200075c9062002a43565b600054610100900460ff166200215c5760405162461bcd60e51b81526004016200075c9062002a43565b620013323362002058565b600054610100900460ff16620021915760405162461bcd60e51b81526004016200075c9062002a43565b6001606555565b6107978062002ceb83390190565b828054828255906000526020600020908101928215620021f8579160200282015b82811115620021f85782518051620021e79184916020909101906200226a565b5091602001919060010190620021c7565b5062002206929150620022f5565b5090565b8280548282559060005260206000209081019282156200225c579160200282015b828111156200225c57825180516200224b9184916020909101906200226a565b50916020019190600101906200222b565b506200220692915062002316565b828054620022789062002c53565b90600052602060002090601f0160209004810192826200229c5760008555620022e7565b82601f10620022b757805160ff1916838001178555620022e7565b82800160010185558215620022e7579182015b82811115620022e7578251825591602001919060010190620022ca565b506200220692915062002337565b80821115620022065760006200230c82826200234e565b50600101620022f5565b80821115620022065760006200232d82826200234e565b5060010162002316565b5b8082111562002206576000815560010162002338565b5080546200235c9062002c53565b6000825580601f106200236d575050565b601f01602090049060005260206000209081019062001983919062002337565b600067ffffffffffffffff831115620023aa57620023aa62002cbe565b620023bf601f8401601f191660200162002baa565b9050828152838383011115620023d457600080fd5b828260208301376000602084830101529392505050565b600082601f830112620023fc578081fd5b81356020620024156200240f8362002bde565b62002baa565b80838252828201915082860187848660051b890101111562002435578586fd5b855b858110156200248f57813567ffffffffffffffff81111562002457578788fd5b8801603f81018a1362002468578788fd5b6200247b8a87830135604084016200238d565b855250928401929084019060010162002437565b5090979650505050505050565b600082601f830112620024ad578081fd5b62002101838335602085016200238d565b600060208284031215620024d0578081fd5b8135620021018162002cd4565b600080600060608486031215620024f2578182fd5b833567ffffffffffffffff808211156200250a578384fd5b818601915086601f8301126200251e578384fd5b81356020620025316200240f8362002bde565b8083825282820191508286018b848660051b890101111562002551578889fd5b885b858110156200258f578135878111156200256b578a8bfd5b6200257b8e87838c01016200249c565b855250928401929084019060010162002553565b50909850505087013592505080821115620025a8578384fd5b620025b687838801620023eb565b93506040860135915080821115620025cc578283fd5b50620025db868287016200249c565b9150509250925092565b600060208284031215620025f7578081fd5b5035919050565b6000806040838503121562002611578182fd5b823591506020830135620026258162002cd4565b809150509250929050565b6000806000806060858703121562002646578081fd5b8435935060208501356200265a8162002cd4565b9250604085013567ffffffffffffffff8082111562002677578283fd5b818701915087601f8301126200268b578283fd5b8135818111156200269a578384fd5b8860208260051b8501011115620026af578384fd5b95989497505060200194505050565b60008060408385031215620026d1578182fd5b50508035926020909101359150565b60008060408385031215620026f3578182fd5b82359150602083013560ff8116811462002625578182fd5b600081518084526020808501808196508360051b81019150828601855b858110156200275657828403895262002743848351620027fb565b9885019893509084019060010162002728565b5091979650505050505050565b600081548084526020808501808196508360051b81019150858552828520855b85811015620027565782840389526200279d8483620028a0565b9885019893506001918201910162002783565b600081518084526020808501808196508360051b81019150828601855b8581101562002756578284038952620027e8848351620027fb565b98850198935090840190600101620027cd565b600081518084526200281581602086016020860162002c20565b601f01601f19169290920160200192915050565b60008154620028388162002c53565b60018281168015620028535760018114620028655762002896565b60ff1984168752828701945062002896565b8560005260208060002060005b858110156200288d5781548a82015290840190820162002872565b50505082870194505b5050505092915050565b60008154620028af8162002c53565b808552602060018381168015620028cf5760018114620028e45762002914565b60ff1985168884015260408801955062002914565b866000528260002060005b858110156200290c5781548a8201860152908301908401620028ef565b890184019650505b505050505092915050565b6001600160e01b03198316815260006200293d600483018462002829565b949350505050565b600082516200295981846020870162002c20565b9190910192915050565b600062002101828462002829565b604081526000620029866040830185620027b0565b82810360208401526200299a81856200270b565b95945050505050565b602081526000620021016020830184620027fb565b6020810160068310620029db57634e487b7160e01b600052602160045260246000fd5b91905290565b6020808252818101527f4f776e61626c653a2063616c6c6572206973206e6f7420746865206f776e6572604082015260600190565b6020808252601390820152722820a1aa1d1d102737ba10309036b2b6b132b960691b604082015260600190565b6020808252602b908201527f496e697469616c697a61626c653a20636f6e7472616374206973206e6f74206960408201526a6e697469616c697a696e6760a81b606082015260800190565b8681526001600160a01b038616602082015260c06040820181905260009062002aba90830187620027b0565b828103606084015262002ace81876200270b565b905084608084015282810360a084015262002aea8185620027fb565b9998505050505050505050565b600060c08201878352602060018060a01b0388168185015260c0604085015281875480845260e08601915060e08160051b8701019350888552828520855b8281101562002b665787860360df1901845262002b538683620028a0565b9550928401926001918201910162002b35565b5050505050828103606084015262002b7f818662002763565b905083608084015282810360a084015262002b9e816000815260200190565b98975050505050505050565b604051601f8201601f1916810167ffffffffffffffff8111828210171562002bd65762002bd662002cbe565b604052919050565b600067ffffffffffffffff82111562002bfb5762002bfb62002cbe565b5060051b60200190565b6000821982111562002c1b5762002c1b62002ca8565b500190565b60005b8381101562002c3d57818101518382015260200162002c23565b8381111562002c4d576000848401525b50505050565b600181811c9082168062002c6857607f821691505b6020821081141562000bc357634e487b7160e01b600052602260045260246000fd5b600060001982141562002ca15762002ca162002ca8565b5060010190565b634e487b7160e01b600052601160045260246000fd5b634e487b7160e01b600052604160045260246000fd5b6001600160a01b03811681146200198357600080fdfe608060405234801561001057600080fd5b5061001a3361001f565b61006f565b600080546001600160a01b038381166001600160a01b0319831681178455604051919092169283917f8be0079c531659141344cd1fd0a4f28419497f9722a3daafe3b4186f6b6457e09190a35050565b6107198061007e6000396000f3fe60806040526004361061007b5760003560e01c80639623609d1161004e5780639623609d1461011157806399a88ec414610124578063f2fde38b14610144578063f3b7dead1461016457600080fd5b8063204e1c7a14610080578063715018a6146100bc5780637eff275e146100d35780638da5cb5b146100f3575b600080fd5b34801561008c57600080fd5b506100a061009b3660046104d8565b610184565b6040516001600160a01b03909116815260200160405180910390f35b3480156100c857600080fd5b506100d1610215565b005b3480156100df57600080fd5b506100d16100ee366004610517565b610254565b3480156100ff57600080fd5b506000546001600160a01b03166100a0565b6100d161011f36600461054f565b6102de565b34801561013057600080fd5b506100d161013f366004610517565b61036f565b34801561015057600080fd5b506100d161015f3660046104d8565b6103c7565b34801561017057600080fd5b506100a061017f3660046104d8565b610462565b6000806000836001600160a01b03166040516101aa90635c60da1b60e01b815260040190565b600060405180830381855afa9150503d80600081146101e5576040519150601f19603f3d011682016040523d82523d6000602084013e6101ea565b606091505b5091509150816101f957600080fd5b8080602001905181019061020d91906104fb565b949350505050565b6000546001600160a01b031633146102485760405162461bcd60e51b815260040161023f90610683565b60405180910390fd5b6102526000610488565b565b6000546001600160a01b0316331461027e5760405162461bcd60e51b815260040161023f90610683565b6040516308f2839760e41b81526001600160a01b038281166004830152831690638f283970906024015b600060405180830381600087803b1580156102c257600080fd5b505af11580156102d6573d6000803e3d6000fd5b505050505050565b6000546001600160a01b031633146103085760405162461bcd60e51b815260040161023f90610683565b60405163278f794360e11b81526001600160a01b03841690634f1ef2869034906103389086908690600401610620565b6000604051808303818588803b15801561035157600080fd5b505af1158015610365573d6000803e3d6000fd5b5050505050505050565b6000546001600160a01b031633146103995760405162461bcd60e51b815260040161023f90610683565b604051631b2ce7f360e11b81526001600160a01b038281166004830152831690633659cfe6906024016102a8565b6000546001600160a01b031633146103f15760405162461bcd60e51b815260040161023f90610683565b6001600160a01b0381166104565760405162461bcd60e51b815260206004820152602660248201527f4f776e61626c653a206e6577206f776e657220697320746865207a65726f206160448201526564647265737360d01b606482015260840161023f565b61045f81610488565b50565b6000806000836001600160a01b03166040516101aa906303e1469160e61b815260040190565b600080546001600160a01b038381166001600160a01b0319831681178455604051919092169283917f8be0079c531659141344cd1fd0a4f28419497f9722a3daafe3b4186f6b6457e09190a35050565b6000602082840312156104e9578081fd5b81356104f4816106ce565b9392505050565b60006020828403121561050c578081fd5b81516104f4816106ce565b60008060408385031215610529578081fd5b8235610534816106ce565b91506020830135610544816106ce565b809150509250929050565b600080600060608486031215610563578081fd5b833561056e816106ce565b9250602084013561057e816106ce565b9150604084013567ffffffffffffffff8082111561059a578283fd5b818601915086601f8301126105ad578283fd5b8135818111156105bf576105bf6106b8565b604051601f8201601f19908116603f011681019083821181831017156105e7576105e76106b8565b816040528281528960208487010111156105ff578586fd5b82602086016020830137856020848301015280955050505050509250925092565b60018060a01b0383168152600060206040818401528351806040850152825b8181101561065b5785810183015185820160600152820161063f565b8181111561066c5783606083870101525b50601f01601f191692909201606001949350505050565b6020808252818101527f4f776e61626c653a2063616c6c6572206973206e6f7420746865206f776e6572604082015260600190565b634e487b7160e01b600052604160045260246000fd5b6001600160a01b038116811461045f57600080fdfea2646970667358221220e38caf5ca305d28cfea5924808a41fd6f9ab62ed165ed1becf8858d95ea882a264736f6c63430008040033a2646970667358221220351cdc72e3479b3f5b44323faeb5c7372e1fd37bff4b52aa6938eb4c6544247364736f6c63430008040033",
  "devdoc": {
    "events": {
      "TransferERC20(address,address,uint256)": {
        "params": {
          "amount": "Amount of the transaction",
          "to": "Address of the receiver",
          "token": "ERC20 token address"
        }
      },
      "VoteCast(address,uint256,uint8,uint256,string)": {
        "params": {
          "proposalId": "The proposal id which was voted on",
          "reason": "The reason given for the vote by the voter",
          "support": "Support value for the vote. 0=against, 1=for, 2=abstain",
          "voter": "The address which casted a vote",
          "votes": "Number of votes which were cast by the voter"
        }
      }
    },
    "kind": "dev",
    "methods": {
      "addMember(address)": {
        "params": {
          "_member": "Member address."
        }
      },
      "cancel(uint256)": {
        "params": {
          "_proposalId": "The id of the proposal to cancel"
        }
      },
      "castVote(uint256,uint8)": {
        "params": {
          "_proposalId": "The id of the proposal to vote on",
          "_support": "The support value for the vote. 0=against, 1=for, 2=abstain"
        }
      },
      "execute(uint256)": {
        "params": {
          "_proposalId": "The id of the proposal to execute"
        }
      },
      "getActions(uint256)": {
        "params": {
          "_proposalId": "Proposal to query."
        },
        "returns": {
          "calldatas": "Calldatas for proposal calls.",
          "signatures": "Function signatures for proposal calls."
        }
      },
      "getReceipt(uint256,address)": {
        "params": {
          "_proposalId": "the id of proposal",
          "_voter": "The address of the voter"
        },
        "returns": {
          "_0": "The voting receipt"
        }
      },
      "initialize(uint256,address,address[])": {
        "params": {
          "_quorumVotes": "The initial quorum votes"
        }
      },
      "owner()": {
        "details": "Returns the address of the current owner."
      },
      "propose(string[],bytes[],string)": {
        "params": {
          "_calldatas": "Calldatas for proposal calls.",
          "_description": "String description of the proposal.",
          "_signatures": "Function signatures for proposal calls."
        },
        "returns": {
          "_0": "Proposal id of new proposal."
        }
      },
      "removeMember(address)": {
        "params": {
          "_member": "Member address."
        }
      },
      "renounceOwnership()": {
        "details": "Leaves the contract without owner. It will not be possible to call `onlyOwner` functions anymore. Can only be called by the current owner. NOTE: Renouncing ownership will leave the contract without an owner, thereby removing any functionality that is only available to the owner."
      },
      "setQuorumVotes(uint256)": {
        "params": {
          "_newQuorumVotes": "new quorum votes"
        }
      },
      "state(uint256)": {
        "params": {
          "_proposalId": "The id of the proposal"
        },
        "returns": {
          "_0": "Proposal state"
        }
      },
      "transferOwnership(address)": {
        "details": "Transfers ownership of the contract to a new account (`newOwner`). Can only be called by the current owner."
      }
    },
    "version": 1
  },
  "userdoc": {
    "events": {
      "MemberAdded(address)": {
        "notice": "An event emitted when a member is added"
      },
      "MemberRemoved(address)": {
        "notice": "An event emitted when a member is removed"
      },
      "NewImplementation(address,address)": {
        "notice": "Emitted when implementation is changed"
      },
      "ProposalCanceled(uint256)": {
        "notice": "An event emitted when a proposal has been canceled"
      },
      "ProposalCreated(uint256,address,string[],bytes[],uint256,string)": {
        "notice": "An event emitted when a new proposal is created"
      },
      "ProposalExecuted(uint256)": {
        "notice": "An event emitted when a proposal has been executed in the Timelock"
      },
      "QuorumVotesSet(uint256,uint256)": {
        "notice": "An event emitted when the quorum votes is set"
      },
      "TransferERC20(address,address,uint256)": {
        "notice": "Triggered when an amount of an ERC20 has been transferred from this contract to an address"
      },
      "VoteCast(address,uint256,uint8,uint256,string)": {
        "notice": "An event emitted when a vote has been cast on a proposal"
      }
    },
    "kind": "user",
    "methods": {
      "MAX_VOTING_PERIOD()": {
        "notice": "The max setable voting period"
      },
      "PROPOSAL_MAX_OPERATIONS()": {
        "notice": "The maximum number of actions that can be included in a proposal"
      },
      "addMember(address)": {
        "notice": "Function used to add new members to the committee."
      },
      "cancel(uint256)": {
        "notice": "Cancels a proposal only if sender is the proposer, or proposer delegates dropped below proposal threshold"
      },
      "castVote(uint256,uint8)": {
        "notice": "Cast a vote for a proposal"
      },
      "execute(uint256)": {
        "notice": "Executes a queued proposal if eta has passed"
      },
      "getActions(uint256)": {
        "notice": "Gets actions of a proposal."
      },
      "getReceipt(uint256,address)": {
        "notice": "Gets the receipt for a voter on a given proposal"
      },
      "initialize(uint256,address,address[])": {
        "notice": "Used to initialize the contract during delegator contructor"
      },
      "latestProposalIds(address)": {
        "notice": "The latest proposal for each proposer"
      },
      "members(address)": {
        "notice": "The committee members"
      },
      "proposalCalldatas(uint256,uint256)": {
        "notice": "The official each proposal's calldatas: An ordered list of calldata to be passed to each call"
      },
      "proposalCount()": {
        "notice": "The total number of proposals"
      },
      "proposalReceipts(uint256,address)": {
        "notice": "The official each proposal's receipts: Receipts of ballots for the entire set of voters"
      },
      "proposalSignatures(uint256,uint256)": {
        "notice": "The official each proposal's signatures: An ordered list of function signatures to be called"
      },
      "proposals(uint256)": {
        "notice": "The official record of all proposals ever proposed"
      },
      "propose(string[],bytes[],string)": {
        "notice": "Function used to propose a new proposal. Sender must have delegates above the proposal threshold."
      },
      "quorumVotes()": {
        "notice": "The number of votes in support of a proposal required in order for a quorum to be reached and for a vote to succeed"
      },
      "removeMember(address)": {
        "notice": "Function used to remove members from the committee."
      },
      "setQuorumVotes(uint256)": {
        "notice": "Owner function for setting the quorum votes"
      },
      "state(uint256)": {
        "notice": "Gets the state of a proposal"
      }
    },
    "version": 1
  },
  "storageLayout": {
    "storage": [
      {
        "astId": 542,
        "contract": "contracts/governor/ubiCommittee/UBICommitteeImplementation.sol:UBICommitteeImplementation",
        "label": "_initialized",
        "offset": 0,
        "slot": "0",
        "type": "t_bool"
      },
      {
        "astId": 545,
        "contract": "contracts/governor/ubiCommittee/UBICommitteeImplementation.sol:UBICommitteeImplementation",
        "label": "_initializing",
        "offset": 1,
        "slot": "0",
        "type": "t_bool"
      },
      {
        "astId": 1068,
        "contract": "contracts/governor/ubiCommittee/UBICommitteeImplementation.sol:UBICommitteeImplementation",
        "label": "__gap",
        "offset": 0,
        "slot": "1",
        "type": "t_array(t_uint256)50_storage"
      },
      {
        "astId": 420,
        "contract": "contracts/governor/ubiCommittee/UBICommitteeImplementation.sol:UBICommitteeImplementation",
        "label": "_owner",
        "offset": 0,
        "slot": "51",
        "type": "t_address"
      },
      {
        "astId": 534,
        "contract": "contracts/governor/ubiCommittee/UBICommitteeImplementation.sol:UBICommitteeImplementation",
        "label": "__gap",
        "offset": 0,
        "slot": "52",
        "type": "t_array(t_uint256)49_storage"
      },
      {
        "astId": 736,
        "contract": "contracts/governor/ubiCommittee/UBICommitteeImplementation.sol:UBICommitteeImplementation",
        "label": "_status",
        "offset": 0,
        "slot": "101",
        "type": "t_uint256"
      },
      {
        "astId": 779,
        "contract": "contracts/governor/ubiCommittee/UBICommitteeImplementation.sol:UBICommitteeImplementation",
        "label": "__gap",
        "offset": 0,
        "slot": "102",
        "type": "t_array(t_uint256)49_storage"
      },
      {
        "astId": 18127,
        "contract": "contracts/governor/ubiCommittee/UBICommitteeImplementation.sol:UBICommitteeImplementation",
        "label": "communityProxyAdmin",
        "offset": 0,
        "slot": "151",
        "type": "t_contract(ProxyAdmin)2567"
      },
      {
        "astId": 18130,
        "contract": "contracts/governor/ubiCommittee/UBICommitteeImplementation.sol:UBICommitteeImplementation",
        "label": "communityAdmin",
        "offset": 0,
        "slot": "152",
        "type": "t_contract(ICommunityAdmin)12085"
      },
      {
        "astId": 18133,
        "contract": "contracts/governor/ubiCommittee/UBICommitteeImplementation.sol:UBICommitteeImplementation",
        "label": "quorumVotes",
        "offset": 0,
        "slot": "153",
        "type": "t_uint256"
      },
      {
        "astId": 18136,
        "contract": "contracts/governor/ubiCommittee/UBICommitteeImplementation.sol:UBICommitteeImplementation",
        "label": "proposalCount",
        "offset": 0,
        "slot": "154",
        "type": "t_uint256"
      },
      {
        "astId": 18141,
        "contract": "contracts/governor/ubiCommittee/UBICommitteeImplementation.sol:UBICommitteeImplementation",
        "label": "members",
        "offset": 0,
        "slot": "155",
        "type": "t_mapping(t_address,t_bool)"
      },
      {
        "astId": 18147,
        "contract": "contracts/governor/ubiCommittee/UBICommitteeImplementation.sol:UBICommitteeImplementation",
        "label": "proposals",
        "offset": 0,
        "slot": "156",
        "type": "t_mapping(t_uint256,t_struct(Proposal)18189_storage)"
      },
      {
        "astId": 18153,
        "contract": "contracts/governor/ubiCommittee/UBICommitteeImplementation.sol:UBICommitteeImplementation",
        "label": "proposalSignatures",
        "offset": 0,
        "slot": "157",
        "type": "t_mapping(t_uint256,t_array(t_string_storage)dyn_storage)"
      },
      {
        "astId": 18159,
        "contract": "contracts/governor/ubiCommittee/UBICommitteeImplementation.sol:UBICommitteeImplementation",
        "label": "proposalCalldatas",
        "offset": 0,
        "slot": "158",
        "type": "t_mapping(t_uint256,t_array(t_bytes_storage)dyn_storage)"
      },
      {
        "astId": 18167,
        "contract": "contracts/governor/ubiCommittee/UBICommitteeImplementation.sol:UBICommitteeImplementation",
        "label": "proposalReceipts",
        "offset": 0,
        "slot": "159",
        "type": "t_mapping(t_uint256,t_mapping(t_address,t_struct(Receipt)18196_storage))"
      },
      {
        "astId": 18172,
        "contract": "contracts/governor/ubiCommittee/UBICommitteeImplementation.sol:UBICommitteeImplementation",
        "label": "latestProposalIds",
        "offset": 0,
        "slot": "160",
        "type": "t_mapping(t_address,t_uint256)"
      }
    ],
    "types": {
      "t_address": {
        "encoding": "inplace",
        "label": "address",
        "numberOfBytes": "20"
      },
      "t_array(t_bytes_storage)dyn_storage": {
        "base": "t_bytes_storage",
        "encoding": "dynamic_array",
        "label": "bytes[]",
        "numberOfBytes": "32"
      },
      "t_array(t_string_storage)dyn_storage": {
        "base": "t_string_storage",
        "encoding": "dynamic_array",
        "label": "string[]",
        "numberOfBytes": "32"
      },
      "t_array(t_uint256)49_storage": {
        "base": "t_uint256",
        "encoding": "inplace",
        "label": "uint256[49]",
        "numberOfBytes": "1568"
      },
      "t_array(t_uint256)50_storage": {
        "base": "t_uint256",
        "encoding": "inplace",
        "label": "uint256[50]",
        "numberOfBytes": "1600"
      },
      "t_bool": {
        "encoding": "inplace",
        "label": "bool",
        "numberOfBytes": "1"
      },
      "t_bytes_storage": {
        "encoding": "bytes",
        "label": "bytes",
        "numberOfBytes": "32"
      },
      "t_contract(ICommunityAdmin)12085": {
        "encoding": "inplace",
        "label": "contract ICommunityAdmin",
        "numberOfBytes": "20"
      },
      "t_contract(ProxyAdmin)2567": {
        "encoding": "inplace",
        "label": "contract ProxyAdmin",
        "numberOfBytes": "20"
      },
      "t_mapping(t_address,t_bool)": {
        "encoding": "mapping",
        "key": "t_address",
        "label": "mapping(address => bool)",
        "numberOfBytes": "32",
        "value": "t_bool"
      },
      "t_mapping(t_address,t_struct(Receipt)18196_storage)": {
        "encoding": "mapping",
        "key": "t_address",
        "label": "mapping(address => struct UBICommitteeStorageV1.Receipt)",
        "numberOfBytes": "32",
        "value": "t_struct(Receipt)18196_storage"
      },
      "t_mapping(t_address,t_uint256)": {
        "encoding": "mapping",
        "key": "t_address",
        "label": "mapping(address => uint256)",
        "numberOfBytes": "32",
        "value": "t_uint256"
      },
      "t_mapping(t_uint256,t_array(t_bytes_storage)dyn_storage)": {
        "encoding": "mapping",
        "key": "t_uint256",
        "label": "mapping(uint256 => bytes[])",
        "numberOfBytes": "32",
        "value": "t_array(t_bytes_storage)dyn_storage"
      },
      "t_mapping(t_uint256,t_array(t_string_storage)dyn_storage)": {
        "encoding": "mapping",
        "key": "t_uint256",
        "label": "mapping(uint256 => string[])",
        "numberOfBytes": "32",
        "value": "t_array(t_string_storage)dyn_storage"
      },
      "t_mapping(t_uint256,t_mapping(t_address,t_struct(Receipt)18196_storage))": {
        "encoding": "mapping",
        "key": "t_uint256",
        "label": "mapping(uint256 => mapping(address => struct UBICommitteeStorageV1.Receipt))",
        "numberOfBytes": "32",
        "value": "t_mapping(t_address,t_struct(Receipt)18196_storage)"
      },
      "t_mapping(t_uint256,t_struct(Proposal)18189_storage)": {
        "encoding": "mapping",
        "key": "t_uint256",
        "label": "mapping(uint256 => struct UBICommitteeStorageV1.Proposal)",
        "numberOfBytes": "32",
        "value": "t_struct(Proposal)18189_storage"
      },
      "t_string_storage": {
        "encoding": "bytes",
        "label": "string",
        "numberOfBytes": "32"
      },
      "t_struct(Proposal)18189_storage": {
        "encoding": "inplace",
        "label": "struct UBICommitteeStorageV1.Proposal",
        "members": [
          {
            "astId": 18174,
            "contract": "contracts/governor/ubiCommittee/UBICommitteeImplementation.sol:UBICommitteeImplementation",
            "label": "id",
            "offset": 0,
            "slot": "0",
            "type": "t_uint256"
          },
          {
            "astId": 18176,
            "contract": "contracts/governor/ubiCommittee/UBICommitteeImplementation.sol:UBICommitteeImplementation",
            "label": "proposer",
            "offset": 0,
            "slot": "1",
            "type": "t_address"
          },
          {
            "astId": 18178,
            "contract": "contracts/governor/ubiCommittee/UBICommitteeImplementation.sol:UBICommitteeImplementation",
            "label": "endBlock",
            "offset": 0,
            "slot": "2",
            "type": "t_uint256"
          },
          {
            "astId": 18180,
            "contract": "contracts/governor/ubiCommittee/UBICommitteeImplementation.sol:UBICommitteeImplementation",
            "label": "forVotes",
            "offset": 0,
            "slot": "3",
            "type": "t_uint256"
          },
          {
            "astId": 18182,
            "contract": "contracts/governor/ubiCommittee/UBICommitteeImplementation.sol:UBICommitteeImplementation",
            "label": "againstVotes",
            "offset": 0,
            "slot": "4",
            "type": "t_uint256"
          },
          {
            "astId": 18184,
            "contract": "contracts/governor/ubiCommittee/UBICommitteeImplementation.sol:UBICommitteeImplementation",
            "label": "abstainVotes",
            "offset": 0,
            "slot": "5",
            "type": "t_uint256"
          },
          {
            "astId": 18186,
            "contract": "contracts/governor/ubiCommittee/UBICommitteeImplementation.sol:UBICommitteeImplementation",
            "label": "canceled",
            "offset": 0,
            "slot": "6",
            "type": "t_bool"
          },
          {
            "astId": 18188,
            "contract": "contracts/governor/ubiCommittee/UBICommitteeImplementation.sol:UBICommitteeImplementation",
            "label": "executed",
            "offset": 1,
            "slot": "6",
            "type": "t_bool"
          }
        ],
        "numberOfBytes": "224"
      },
      "t_struct(Receipt)18196_storage": {
        "encoding": "inplace",
        "label": "struct UBICommitteeStorageV1.Receipt",
        "members": [
          {
            "astId": 18191,
            "contract": "contracts/governor/ubiCommittee/UBICommitteeImplementation.sol:UBICommitteeImplementation",
            "label": "hasVoted",
            "offset": 0,
            "slot": "0",
            "type": "t_bool"
          },
          {
            "astId": 18193,
            "contract": "contracts/governor/ubiCommittee/UBICommitteeImplementation.sol:UBICommitteeImplementation",
            "label": "support",
            "offset": 1,
            "slot": "0",
            "type": "t_uint8"
          },
          {
            "astId": 18195,
            "contract": "contracts/governor/ubiCommittee/UBICommitteeImplementation.sol:UBICommitteeImplementation",
            "label": "votes",
            "offset": 2,
            "slot": "0",
            "type": "t_uint96"
          }
        ],
        "numberOfBytes": "32"
      },
      "t_uint256": {
        "encoding": "inplace",
        "label": "uint256",
        "numberOfBytes": "32"
      },
      "t_uint8": {
        "encoding": "inplace",
        "label": "uint8",
        "numberOfBytes": "1"
      },
      "t_uint96": {
        "encoding": "inplace",
        "label": "uint96",
        "numberOfBytes": "12"
      }
    }
  }
}