{
  "_format": "hh-sol-artifact-1",
  "contractName": "UniswapV2Router02",
  "sourceName": "contracts/mocks/uniswapv2/UniswapV2Router02.sol",
  "abi": [
    {
      "inputs": [
        {
          "internalType": "address",
          "name": "_factory",
          "type": "address"
        }
      ],
      "stateMutability": "nonpayable",
      "type": "constructor"
    },
    {
      "inputs": [
        {
          "internalType": "address",
          "name": "tokenA",
          "type": "address"
        },
        {
          "internalType": "address",
          "name": "tokenB",
          "type": "address"
        },
        {
          "internalType": "uint256",
          "name": "amountADesired",
          "type": "uint256"
        },
        {
          "internalType": "uint256",
          "name": "amountBDesired",
          "type": "uint256"
        },
        {
          "internalType": "uint256",
          "name": "amountAMin",
          "type": "uint256"
        },
        {
          "internalType": "uint256",
          "name": "amountBMin",
          "type": "uint256"
        },
        {
          "internalType": "address",
          "name": "to",
          "type": "address"
        },
        {
          "internalType": "uint256",
          "name": "deadline",
          "type": "uint256"
        }
      ],
      "name": "addLiquidity",
      "outputs": [
        {
          "internalType": "uint256",
          "name": "amountA",
          "type": "uint256"
        },
        {
          "internalType": "uint256",
          "name": "amountB",
          "type": "uint256"
        },
        {
          "internalType": "uint256",
          "name": "liquidity",
          "type": "uint256"
        }
      ],
      "stateMutability": "nonpayable",
      "type": "function"
    },
    {
      "inputs": [],
      "name": "factory",
      "outputs": [
        {
          "internalType": "address",
          "name": "",
          "type": "address"
        }
      ],
      "stateMutability": "view",
      "type": "function"
    },
    {
      "inputs": [
        {
          "internalType": "uint256",
          "name": "amountOut",
          "type": "uint256"
        },
        {
          "internalType": "uint256",
          "name": "reserveIn",
          "type": "uint256"
        },
        {
          "internalType": "uint256",
          "name": "reserveOut",
          "type": "uint256"
        }
      ],
      "name": "getAmountIn",
      "outputs": [
        {
          "internalType": "uint256",
          "name": "amountIn",
          "type": "uint256"
        }
      ],
      "stateMutability": "pure",
      "type": "function"
    },
    {
      "inputs": [
        {
          "internalType": "uint256",
          "name": "amountIn",
          "type": "uint256"
        },
        {
          "internalType": "uint256",
          "name": "reserveIn",
          "type": "uint256"
        },
        {
          "internalType": "uint256",
          "name": "reserveOut",
          "type": "uint256"
        }
      ],
      "name": "getAmountOut",
      "outputs": [
        {
          "internalType": "uint256",
          "name": "amountOut",
          "type": "uint256"
        }
      ],
      "stateMutability": "pure",
      "type": "function"
    },
    {
      "inputs": [
        {
          "internalType": "uint256",
          "name": "amountOut",
          "type": "uint256"
        },
        {
          "internalType": "address[]",
          "name": "path",
          "type": "address[]"
        }
      ],
      "name": "getAmountsIn",
      "outputs": [
        {
          "internalType": "uint256[]",
          "name": "amounts",
          "type": "uint256[]"
        }
      ],
      "stateMutability": "view",
      "type": "function"
    },
    {
      "inputs": [
        {
          "internalType": "uint256",
          "name": "amountIn",
          "type": "uint256"
        },
        {
          "internalType": "address[]",
          "name": "path",
          "type": "address[]"
        }
      ],
      "name": "getAmountsOut",
      "outputs": [
        {
          "internalType": "uint256[]",
          "name": "amounts",
          "type": "uint256[]"
        }
      ],
      "stateMutability": "view",
      "type": "function"
    },
    {
      "inputs": [
        {
          "internalType": "address",
          "name": "tokenA",
          "type": "address"
        },
        {
          "internalType": "address",
          "name": "tokenB",
          "type": "address"
        }
      ],
      "name": "pairFor",
      "outputs": [
        {
          "internalType": "address",
          "name": "",
          "type": "address"
        }
      ],
      "stateMutability": "view",
      "type": "function"
    },
    {
      "inputs": [
        {
          "internalType": "uint256",
          "name": "amountA",
          "type": "uint256"
        },
        {
          "internalType": "uint256",
          "name": "reserveA",
          "type": "uint256"
        },
        {
          "internalType": "uint256",
          "name": "reserveB",
          "type": "uint256"
        }
      ],
      "name": "quote",
      "outputs": [
        {
          "internalType": "uint256",
          "name": "amountB",
          "type": "uint256"
        }
      ],
      "stateMutability": "pure",
      "type": "function"
    },
    {
      "inputs": [
        {
          "internalType": "address",
          "name": "tokenA",
          "type": "address"
        },
        {
          "internalType": "address",
          "name": "tokenB",
          "type": "address"
        },
        {
          "internalType": "uint256",
          "name": "liquidity",
          "type": "uint256"
        },
        {
          "internalType": "uint256",
          "name": "amountAMin",
          "type": "uint256"
        },
        {
          "internalType": "uint256",
          "name": "amountBMin",
          "type": "uint256"
        },
        {
          "internalType": "address",
          "name": "to",
          "type": "address"
        },
        {
          "internalType": "uint256",
          "name": "deadline",
          "type": "uint256"
        }
      ],
      "name": "removeLiquidity",
      "outputs": [
        {
          "internalType": "uint256",
          "name": "amountA",
          "type": "uint256"
        },
        {
          "internalType": "uint256",
          "name": "amountB",
          "type": "uint256"
        }
      ],
      "stateMutability": "nonpayable",
      "type": "function"
    },
    {
      "inputs": [
        {
          "internalType": "address",
          "name": "tokenA",
          "type": "address"
        },
        {
          "internalType": "address",
          "name": "tokenB",
          "type": "address"
        },
        {
          "internalType": "uint256",
          "name": "liquidity",
          "type": "uint256"
        },
        {
          "internalType": "uint256",
          "name": "amountAMin",
          "type": "uint256"
        },
        {
          "internalType": "uint256",
          "name": "amountBMin",
          "type": "uint256"
        },
        {
          "internalType": "address",
          "name": "to",
          "type": "address"
        },
        {
          "internalType": "uint256",
          "name": "deadline",
          "type": "uint256"
        },
        {
          "internalType": "bool",
          "name": "approveMax",
          "type": "bool"
        },
        {
          "internalType": "uint8",
          "name": "v",
          "type": "uint8"
        },
        {
          "internalType": "bytes32",
          "name": "r",
          "type": "bytes32"
        },
        {
          "internalType": "bytes32",
          "name": "s",
          "type": "bytes32"
        }
      ],
      "name": "removeLiquidityWithPermit",
      "outputs": [
        {
          "internalType": "uint256",
          "name": "amountA",
          "type": "uint256"
        },
        {
          "internalType": "uint256",
          "name": "amountB",
          "type": "uint256"
        }
      ],
      "stateMutability": "nonpayable",
      "type": "function"
    },
    {
      "inputs": [
        {
          "internalType": "uint256",
          "name": "amountIn",
          "type": "uint256"
        },
        {
          "internalType": "uint256",
          "name": "amountOutMin",
          "type": "uint256"
        },
        {
          "internalType": "address[]",
          "name": "path",
          "type": "address[]"
        },
        {
          "internalType": "address",
          "name": "to",
          "type": "address"
        },
        {
          "internalType": "uint256",
          "name": "deadline",
          "type": "uint256"
        }
      ],
      "name": "swapExactTokensForTokens",
      "outputs": [
        {
          "internalType": "uint256[]",
          "name": "amounts",
          "type": "uint256[]"
        }
      ],
      "stateMutability": "nonpayable",
      "type": "function"
    },
    {
      "inputs": [
        {
          "internalType": "uint256",
          "name": "amountIn",
          "type": "uint256"
        },
        {
          "internalType": "uint256",
          "name": "amountOutMin",
          "type": "uint256"
        },
        {
          "internalType": "address[]",
          "name": "path",
          "type": "address[]"
        },
        {
          "internalType": "address",
          "name": "to",
          "type": "address"
        },
        {
          "internalType": "uint256",
          "name": "deadline",
          "type": "uint256"
        }
      ],
      "name": "swapExactTokensForTokensSupportingFeeOnTransferTokens",
      "outputs": [],
      "stateMutability": "nonpayable",
      "type": "function"
    },
    {
      "inputs": [
        {
          "internalType": "uint256",
          "name": "amountOut",
          "type": "uint256"
        },
        {
          "internalType": "uint256",
          "name": "amountInMax",
          "type": "uint256"
        },
        {
          "internalType": "address[]",
          "name": "path",
          "type": "address[]"
        },
        {
          "internalType": "address",
          "name": "to",
          "type": "address"
        },
        {
          "internalType": "uint256",
          "name": "deadline",
          "type": "uint256"
        }
      ],
      "name": "swapTokensForExactTokens",
      "outputs": [
        {
          "internalType": "uint256[]",
          "name": "amounts",
          "type": "uint256[]"
        }
      ],
      "stateMutability": "nonpayable",
      "type": "function"
    }
  ],
  "bytecode": "0x60a060405234801561001057600080fd5b506040516133e53803806133e58339818101604052602081101561003357600080fd5b81019080805190602001909291905050508073ffffffffffffffffffffffffffffffffffffffff1660808173ffffffffffffffffffffffffffffffffffffffff1660601b815250505060805160601c6132f26100f360003980610a475280610a7f5280610c495280610d555280610ee8528061125d52806113665280611456528061151b52806117db528061180452806118cb528061216252806121a6528061238552806125d65280612bb15280612cad5280612d9752506132f26000f3fe608060405234801561001057600080fd5b50600436106100cf5760003560e01c80638803dbee1161008c578063baa2abde11610066578063baa2abde1461073f578063c45a015514610806578063d06ca61f1461083a578063e8e3370014610951576100cf565b80638803dbee1461054f57806396ed28f91461065b578063ad615dec146106e9576100cf565b8063054d50d4146100d45780631f00ca741461012a5780632195995c1461024157806338ed1739146103365780635c11d7951461044257806385f8c259146104f9575b600080fd5b610114600480360360608110156100ea57600080fd5b81019080803590602001909291908035906020019092919080359060200190929190505050610a2a565b6040518082815260200191505060405180910390f35b6101ea6004803603604081101561014057600080fd5b81019080803590602001909291908035906020019064010000000081111561016757600080fd5b82018360208201111561017957600080fd5b8035906020019184602083028401116401000000008311171561019b57600080fd5b919080806020026020016040519081016040528093929190818152602001838360200280828437600081840152601f19601f820116905080830192505050505050509192919290505050610a40565b6040518080602001828103825283818151815260200191508051906020019060200280838360005b8381101561022d578082015181840152602081019050610212565b505050509050019250505060405180910390f35b610319600480360361016081101561025857600080fd5b81019080803573ffffffffffffffffffffffffffffffffffffffff169060200190929190803573ffffffffffffffffffffffffffffffffffffffff169060200190929190803590602001909291908035906020019092919080359060200190929190803573ffffffffffffffffffffffffffffffffffffffff16906020019092919080359060200190929190803515159060200190929190803560ff1690602001909291908035906020019092919080359060200190929190505050610a75565b604051808381526020018281526020019250505060405180910390f35b6103eb600480360360a081101561034c57600080fd5b8101908080359060200190929190803590602001909291908035906020019064010000000081111561037d57600080fd5b82018360208201111561038f57600080fd5b803590602001918460208302840111640100000000831117156103b157600080fd5b9091929391929390803573ffffffffffffffffffffffffffffffffffffffff16906020019092919080359060200190929190505050610bcb565b6040518080602001828103825283818151815260200191508051906020019060200280838360005b8381101561042e578082015181840152602081019050610413565b505050509050019250505060405180910390f35b6104f7600480360360a081101561045857600080fd5b8101908080359060200190929190803590602001909291908035906020019064010000000081111561048957600080fd5b82018360208201111561049b57600080fd5b803590602001918460208302840111640100000000831117156104bd57600080fd5b9091929391929390803573ffffffffffffffffffffffffffffffffffffffff16906020019092919080359060200190929190505050610e3e565b005b6105396004803603606081101561050f57600080fd5b810190808035906020019092919080359060200190929190803590602001909291905050506111c9565b6040518082815260200191505060405180910390f35b610604600480360360a081101561056557600080fd5b8101908080359060200190929190803590602001909291908035906020019064010000000081111561059657600080fd5b8201836020820111156105a857600080fd5b803590602001918460208302840111640100000000831117156105ca57600080fd5b9091929391929390803573ffffffffffffffffffffffffffffffffffffffff169060200190929190803590602001909291905050506111df565b6040518080602001828103825283818151815260200191508051906020019060200280838360005b8381101561064757808201518184015260208101905061062c565b505050509050019250505060405180910390f35b6106bd6004803603604081101561067157600080fd5b81019080803573ffffffffffffffffffffffffffffffffffffffff169060200190929190803573ffffffffffffffffffffffffffffffffffffffff16906020019092919050505061144f565b604051808273ffffffffffffffffffffffffffffffffffffffff16815260200191505060405180910390f35b610729600480360360608110156106ff57600080fd5b81019080803590602001909291908035906020019092919080359060200190929190505050611484565b6040518082815260200191505060405180910390f35b6107e9600480360360e081101561075557600080fd5b81019080803573ffffffffffffffffffffffffffffffffffffffff169060200190929190803573ffffffffffffffffffffffffffffffffffffffff169060200190929190803590602001909291908035906020019092919080359060200190929190803573ffffffffffffffffffffffffffffffffffffffff1690602001909291908035906020019092919050505061149a565b604051808381526020018281526020019250505060405180910390f35b61080e6117d9565b604051808273ffffffffffffffffffffffffffffffffffffffff16815260200191505060405180910390f35b6108fa6004803603604081101561085057600080fd5b81019080803590602001909291908035906020019064010000000081111561087757600080fd5b82018360208201111561088957600080fd5b803590602001918460208302840111640100000000831117156108ab57600080fd5b919080806020026020016040519081016040528093929190818152602001838360200280828437600081840152601f19601f8201169050808301925050505050505091929192905050506117fd565b6040518080602001828103825283818151815260200191508051906020019060200280838360005b8381101561093d578082015181840152602081019050610922565b505050509050019250505060405180910390f35b610a06600480360361010081101561096857600080fd5b81019080803573ffffffffffffffffffffffffffffffffffffffff169060200190929190803573ffffffffffffffffffffffffffffffffffffffff16906020019092919080359060200190929190803590602001909291908035906020019092919080359060200190929190803573ffffffffffffffffffffffffffffffffffffffff16906020019092919080359060200190929190505050611832565b60405180848152602001838152602001828152602001935050505060405180910390f35b6000610a378484846119c1565b90509392505050565b6060610a6d7f00000000000000000000000000000000000000000000000000000000000000008484611af1565b905092915050565b6000806000610aa57f00000000000000000000000000000000000000000000000000000000000000008f8f611c71565b9050600087610ab4578c610ad6565b7fffffffffffffffffffffffffffffffffffffffffffffffffffffffffffffffff5b90508173ffffffffffffffffffffffffffffffffffffffff1663d505accf3330848d8c8c8c6040518863ffffffff1660e01b8152600401808873ffffffffffffffffffffffffffffffffffffffff1681526020018773ffffffffffffffffffffffffffffffffffffffff1681526020018681526020018581526020018460ff168152602001838152602001828152602001975050505050505050600060405180830381600087803b158015610b8a57600080fd5b505af1158015610b9e573d6000803e3d6000fd5b50505050610bb18f8f8f8f8f8f8f61149a565b809450819550505050509b509b9950505050505050505050565b60608142811015610c44576040517f08c379a00000000000000000000000000000000000000000000000000000000081526004018080602001828103825260188152602001807f556e69737761705632526f757465723a2045585049524544000000000000000081525060200191505060405180910390fd5b610cb07f000000000000000000000000000000000000000000000000000000000000000089888880806020026020016040519081016040528093929190818152602001838360200280828437600081840152601f19601f82011690508083019250505050505050611d3c565b91508682600184510381518110610cc357fe5b60200260200101511015610d22576040517f08c379a000000000000000000000000000000000000000000000000000000000815260040180806020018281038252602b815260200180613243602b913960400191505060405180910390fd5b610de786866000818110610d3257fe5b9050602002013573ffffffffffffffffffffffffffffffffffffffff1633610dcd7f00000000000000000000000000000000000000000000000000000000000000008a8a6000818110610d8157fe5b9050602002013573ffffffffffffffffffffffffffffffffffffffff168b8b6001818110610dab57fe5b9050602002013573ffffffffffffffffffffffffffffffffffffffff16611c71565b85600081518110610dda57fe5b6020026020010151611eb4565b610e3382878780806020026020016040519081016040528093929190818152602001838360200280828437600081840152601f19601f8201169050808301925050505050505086612099565b509695505050505050565b8042811015610eb5576040517f08c379a00000000000000000000000000000000000000000000000000000000081526004018080602001828103825260188152602001807f556e69737761705632526f757465723a2045585049524544000000000000000081525060200191505060405180910390fd5b610f6685856000818110610ec557fe5b9050602002013573ffffffffffffffffffffffffffffffffffffffff1633610f607f000000000000000000000000000000000000000000000000000000000000000089896000818110610f1457fe5b9050602002013573ffffffffffffffffffffffffffffffffffffffff168a8a6001818110610f3e57fe5b9050602002013573ffffffffffffffffffffffffffffffffffffffff16611c71565b8a611eb4565b6000858560018888905003818110610f7a57fe5b9050602002013573ffffffffffffffffffffffffffffffffffffffff1673ffffffffffffffffffffffffffffffffffffffff166370a08231856040518263ffffffff1660e01b8152600401808273ffffffffffffffffffffffffffffffffffffffff16815260200191505060206040518083038186803b158015610ffd57600080fd5b505afa158015611011573d6000803e3d6000fd5b505050506040513d602081101561102757600080fd5b81019080805190602001909291905050509050611085868680806020026020016040519081016040528093929190818152602001838360200280828437600081840152601f19601f820116905080830192505050505050508561232e565b8661116882888860018b8b90500381811061109c57fe5b9050602002013573ffffffffffffffffffffffffffffffffffffffff1673ffffffffffffffffffffffffffffffffffffffff166370a08231886040518263ffffffff1660e01b8152600401808273ffffffffffffffffffffffffffffffffffffffff16815260200191505060206040518083038186803b15801561111f57600080fd5b505afa158015611133573d6000803e3d6000fd5b505050506040513d602081101561114957600080fd5b810190808051906020019092919050505061277990919063ffffffff16565b10156111bf576040517f08c379a000000000000000000000000000000000000000000000000000000000815260040180806020018281038252602b815260200180613243602b913960400191505060405180910390fd5b5050505050505050565b60006111d68484846127fc565b90509392505050565b60608142811015611258576040517f08c379a00000000000000000000000000000000000000000000000000000000081526004018080602001828103825260188152602001807f556e69737761705632526f757465723a2045585049524544000000000000000081525060200191505060405180910390fd5b6112c47f000000000000000000000000000000000000000000000000000000000000000089888880806020026020016040519081016040528093929190818152602001838360200280828437600081840152601f19601f82011690508083019250505050505050611af1565b915086826000815181106112d457fe5b60200260200101511115611333576040517f08c379a00000000000000000000000000000000000000000000000000000000081526004018080602001828103825260278152602001806131f66027913960400191505060405180910390fd5b6113f88686600081811061134357fe5b9050602002013573ffffffffffffffffffffffffffffffffffffffff16336113de7f00000000000000000000000000000000000000000000000000000000000000008a8a600081811061139257fe5b9050602002013573ffffffffffffffffffffffffffffffffffffffff168b8b60018181106113bc57fe5b9050602002013573ffffffffffffffffffffffffffffffffffffffff16611c71565b856000815181106113eb57fe5b6020026020010151611eb4565b61144482878780806020026020016040519081016040528093929190818152602001838360200280828437600081840152601f19601f8201169050808301925050505050505086612099565b509695505050505050565b600061147c7f00000000000000000000000000000000000000000000000000000000000000008484611c71565b905092915050565b6000611491848484612939565b90509392505050565b6000808242811015611514576040517f08c379a00000000000000000000000000000000000000000000000000000000081526004018080602001828103825260188152602001807f556e69737761705632526f757465723a2045585049524544000000000000000081525060200191505060405180910390fd5b60006115417f00000000000000000000000000000000000000000000000000000000000000008c8c611c71565b90508073ffffffffffffffffffffffffffffffffffffffff166323b872dd33838c6040518463ffffffff1660e01b8152600401808473ffffffffffffffffffffffffffffffffffffffff1681526020018373ffffffffffffffffffffffffffffffffffffffff1681526020018281526020019350505050602060405180830381600087803b1580156115d257600080fd5b505af11580156115e6573d6000803e3d6000fd5b505050506040513d60208110156115fc57600080fd5b8101908080519060200190929190505050506000808273ffffffffffffffffffffffffffffffffffffffff166389afcb44896040518263ffffffff1660e01b8152600401808273ffffffffffffffffffffffffffffffffffffffff1681526020019150506040805180830381600087803b15801561167957600080fd5b505af115801561168d573d6000803e3d6000fd5b505050506040513d60408110156116a357600080fd5b8101908080519060200190929190805190602001909291905050509150915060006116ce8e8e612a1d565b5090508073ffffffffffffffffffffffffffffffffffffffff168e73ffffffffffffffffffffffffffffffffffffffff161461170b57818361170e565b82825b80975081985050508a87101561176f576040517f08c379a000000000000000000000000000000000000000000000000000000000815260040180806020018281038252602681526020018061321d6026913960400191505060405180910390fd5b898610156117c8576040517f08c379a00000000000000000000000000000000000000000000000000000000081526004018080602001828103825260268152602001806131836026913960400191505060405180910390fd5b505050505097509795505050505050565b7f000000000000000000000000000000000000000000000000000000000000000081565b606061182a7f00000000000000000000000000000000000000000000000000000000000000008484611d3c565b905092915050565b600080600083428110156118ae576040517f08c379a00000000000000000000000000000000000000000000000000000000081526004018080602001828103825260188152602001807f556e69737761705632526f757465723a2045585049524544000000000000000081525060200191505060405180910390fd5b6118bc8c8c8c8c8c8c612b94565b809450819550505060006118f17f00000000000000000000000000000000000000000000000000000000000000008e8e611c71565b90506118ff8d338388611eb4565b61190b8c338387611eb4565b8073ffffffffffffffffffffffffffffffffffffffff16636a627842886040518263ffffffff1660e01b8152600401808273ffffffffffffffffffffffffffffffffffffffff168152602001915050602060405180830381600087803b15801561197457600080fd5b505af1158015611988573d6000803e3d6000fd5b505050506040513d602081101561199e57600080fd5b810190808051906020019092919050505092505050985098509895505050505050565b6000808411611a1b576040517f08c379a000000000000000000000000000000000000000000000000000000000815260040180806020018281038252602b815260200180613292602b913960400191505060405180910390fd5b600083118015611a2b5750600082115b611a80576040517f08c379a00000000000000000000000000000000000000000000000000000000081526004018080602001828103825260288152602001806131a96028913960400191505060405180910390fd5b6000611a976103e586612ef090919063ffffffff16565b90506000611aae8483612ef090919063ffffffff16565b90506000611ad983611acb6103e889612ef090919063ffffffff16565b612f8590919063ffffffff16565b9050808281611ae457fe5b0493505050509392505050565b6060600282511015611b6b576040517f08c379a000000000000000000000000000000000000000000000000000000000815260040180806020018281038252601e8152602001807f556e697377617056324c6962726172793a20494e56414c49445f50415448000081525060200191505060405180910390fd5b815167ffffffffffffffff81118015611b8357600080fd5b50604051908082528060200260200182016040528015611bb25781602001602082028036833780820191505090505b5090508281600183510381518110611bc657fe5b6020026020010181815250506000600183510390505b6000811115611c6957600080611c1c87866001860381518110611bfb57fe5b6020026020010151878681518110611c0f57fe5b6020026020010151613008565b91509150611c3e848481518110611c2f57fe5b602002602001015183836127fc565b846001850381518110611c4d57fe5b6020026020010181815250505050808060019003915050611bdc565b509392505050565b60008373ffffffffffffffffffffffffffffffffffffffff1663e6a4390584846040518363ffffffff1660e01b8152600401808373ffffffffffffffffffffffffffffffffffffffff1681526020018273ffffffffffffffffffffffffffffffffffffffff1681526020019250505060206040518083038186803b158015611cf857600080fd5b505afa158015611d0c573d6000803e3d6000fd5b505050506040513d6020811015611d2257600080fd5b810190808051906020019092919050505090509392505050565b6060600282511015611db6576040517f08c379a000000000000000000000000000000000000000000000000000000000815260040180806020018281038252601e8152602001807f556e697377617056324c6962726172793a20494e56414c49445f50415448000081525060200191505060405180910390fd5b815167ffffffffffffffff81118015611dce57600080fd5b50604051908082528060200260200182016040528015611dfd5781602001602082028036833780820191505090505b5090508281600081518110611e0e57fe5b60200260200101818152505060005b6001835103811015611eac57600080611e6087868581518110611e3c57fe5b6020026020010151876001870181518110611e5357fe5b6020026020010151613008565b91509150611e82848481518110611e7357fe5b602002602001015183836119c1565b846001850181518110611e9157fe5b60200260200101818152505050508080600101915050611e1d565b509392505050565b600060608573ffffffffffffffffffffffffffffffffffffffff166323b872dd868686604051602401808473ffffffffffffffffffffffffffffffffffffffff1681526020018373ffffffffffffffffffffffffffffffffffffffff16815260200182815260200193505050506040516020818303038152906040529060e01b6020820180517bffffffffffffffffffffffffffffffffffffffffffffffffffffffff83818316178352505050506040518082805190602001908083835b60208310611f955780518252602082019150602081019050602083039250611f72565b6001836020036101000a0380198251168184511680821785525050505050509050019150506000604051808303816000865af19150503d8060008114611ff7576040519150601f19603f3d011682016040523d82523d6000602084013e611ffc565b606091505b509150915081801561203c575060008151148061203b575080806020019051602081101561202957600080fd5b81019080805190602001909291905050505b5b612091576040517f08c379a000000000000000000000000000000000000000000000000000000000815260040180806020018281038252602481526020018061326e6024913960400191505060405180910390fd5b505050505050565b60005b6001835103811015612328576000808483815181106120b757fe5b60200260200101518560018501815181106120ce57fe5b60200260200101519150915060006120e68383612a1d565b50905060008760018601815181106120fa57fe5b602002602001015190506000808373ffffffffffffffffffffffffffffffffffffffff168673ffffffffffffffffffffffffffffffffffffffff161461214257826000612146565b6000835b91509150600060028a5103881061215d578861219f565b61219e7f0000000000000000000000000000000000000000000000000000000000000000878c60028c018151811061219157fe5b6020026020010151611c71565b5b90506121cc7f00000000000000000000000000000000000000000000000000000000000000008888611c71565b73ffffffffffffffffffffffffffffffffffffffff1663022c0d9f848484600067ffffffffffffffff8111801561220257600080fd5b506040519080825280601f01601f1916602001820160405280156122355781602001600182028036833780820191505090505b506040518563ffffffff1660e01b8152600401808581526020018481526020018373ffffffffffffffffffffffffffffffffffffffff16815260200180602001828103825283818151815260200191508051906020019080838360005b838110156122ad578082015181840152602081019050612292565b50505050905090810190601f1680156122da5780820380516001836020036101000a031916815260200191505b5095505050505050600060405180830381600087803b1580156122fc57600080fd5b505af1158015612310573d6000803e3d6000fd5b5050505050505050505050808060010191505061209c565b50505050565b60005b60018351038110156127745760008084838151811061234c57fe5b602002602001015185600185018151811061236357fe5b602002602001015191509150600061237b8383612a1d565b50905060006123ab7f00000000000000000000000000000000000000000000000000000000000000008585611c71565b90506000806000808473ffffffffffffffffffffffffffffffffffffffff16630902f1ac6040518163ffffffff1660e01b815260040160606040518083038186803b1580156123f957600080fd5b505afa15801561240d573d6000803e3d6000fd5b505050506040513d606081101561242357600080fd5b81019080805190602001909291908051906020019092919080519060200190929190505050506dffffffffffffffffffffffffffff1691506dffffffffffffffffffffffffffff1691506000808773ffffffffffffffffffffffffffffffffffffffff168a73ffffffffffffffffffffffffffffffffffffffff16146124aa5782846124ad565b83835b91509150612565828b73ffffffffffffffffffffffffffffffffffffffff166370a082318a6040518263ffffffff1660e01b8152600401808273ffffffffffffffffffffffffffffffffffffffff16815260200191505060206040518083038186803b15801561251c57600080fd5b505afa158015612530573d6000803e3d6000fd5b505050506040513d602081101561254657600080fd5b810190808051906020019092919050505061277990919063ffffffff16565b95506125728683836119c1565b9450505050506000808573ffffffffffffffffffffffffffffffffffffffff168873ffffffffffffffffffffffffffffffffffffffff16146125b6578260006125ba565b6000835b91509150600060028c51038a106125d1578a612613565b6126127f0000000000000000000000000000000000000000000000000000000000000000898e60028e018151811061260557fe5b6020026020010151611c71565b5b90508573ffffffffffffffffffffffffffffffffffffffff1663022c0d9f848484600067ffffffffffffffff8111801561264c57600080fd5b506040519080825280601f01601f19166020018201604052801561267f5781602001600182028036833780820191505090505b506040518563ffffffff1660e01b8152600401808581526020018481526020018373ffffffffffffffffffffffffffffffffffffffff16815260200180602001828103825283818151815260200191508051906020019080838360005b838110156126f75780820151818401526020810190506126dc565b50505050905090810190601f1680156127245780820380516001836020036101000a031916815260200191505b5095505050505050600060405180830381600087803b15801561274657600080fd5b505af115801561275a573d6000803e3d6000fd5b505050505050505050505050508080600101915050612331565b505050565b60008282840391508111156127f6576040517f08c379a00000000000000000000000000000000000000000000000000000000081526004018080602001828103825260158152602001807f64732d6d6174682d7375622d756e646572666c6f77000000000000000000000081525060200191505060405180910390fd5b92915050565b6000808411612856576040517f08c379a000000000000000000000000000000000000000000000000000000000815260040180806020018281038252602c815260200180613132602c913960400191505060405180910390fd5b6000831180156128665750600082115b6128bb576040517f08c379a00000000000000000000000000000000000000000000000000000000081526004018080602001828103825260288152602001806131a96028913960400191505060405180910390fd5b60006128e46103e86128d68787612ef090919063ffffffff16565b612ef090919063ffffffff16565b9050600061290f6103e5612901888761277990919063ffffffff16565b612ef090919063ffffffff16565b905061292e600182848161291f57fe5b04612f8590919063ffffffff16565b925050509392505050565b6000808411612993576040517f08c379a00000000000000000000000000000000000000000000000000000000081526004018080602001828103825260258152602001806131d16025913960400191505060405180910390fd5b6000831180156129a35750600082115b6129f8576040517f08c379a00000000000000000000000000000000000000000000000000000000081526004018080602001828103825260288152602001806131a96028913960400191505060405180910390fd5b82612a0c8386612ef090919063ffffffff16565b81612a1357fe5b0490509392505050565b6000808273ffffffffffffffffffffffffffffffffffffffff168473ffffffffffffffffffffffffffffffffffffffff161415612aa5576040517f08c379a000000000000000000000000000000000000000000000000000000000815260040180806020018281038252602581526020018061315e6025913960400191505060405180910390fd5b8273ffffffffffffffffffffffffffffffffffffffff168473ffffffffffffffffffffffffffffffffffffffff1610612adf578284612ae2565b83835b8092508193505050600073ffffffffffffffffffffffffffffffffffffffff168273ffffffffffffffffffffffffffffffffffffffff161415612b8d576040517f08c379a000000000000000000000000000000000000000000000000000000000815260040180806020018281038252601e8152602001807f556e697377617056324c6962726172793a205a45524f5f41444452455353000081525060200191505060405180910390fd5b9250929050565b600080600073ffffffffffffffffffffffffffffffffffffffff167f000000000000000000000000000000000000000000000000000000000000000073ffffffffffffffffffffffffffffffffffffffff1663e6a439058a8a6040518363ffffffff1660e01b8152600401808373ffffffffffffffffffffffffffffffffffffffff1681526020018273ffffffffffffffffffffffffffffffffffffffff1681526020019250505060206040518083038186803b158015612c5457600080fd5b505afa158015612c68573d6000803e3d6000fd5b505050506040513d6020811015612c7e57600080fd5b810190808051906020019092919050505073ffffffffffffffffffffffffffffffffffffffff161415612d8f577f000000000000000000000000000000000000000000000000000000000000000073ffffffffffffffffffffffffffffffffffffffff1663c9c6539689896040518363ffffffff1660e01b8152600401808373ffffffffffffffffffffffffffffffffffffffff1681526020018273ffffffffffffffffffffffffffffffffffffffff16815260200192505050602060405180830381600087803b158015612d5257600080fd5b505af1158015612d66573d6000803e3d6000fd5b505050506040513d6020811015612d7c57600080fd5b8101908080519060200190929190505050505b600080612dbd7f00000000000000000000000000000000000000000000000000000000000000008b8b613008565b91509150600082148015612dd15750600081145b15612de55787878094508195505050612ee3565b6000612df2898484612939565b9050878111612e635785811015612e54576040517f08c379a00000000000000000000000000000000000000000000000000000000081526004018080602001828103825260268152602001806131836026913960400191505060405180910390fd5b88818095508196505050612ee1565b6000612e70898486612939565b905089811115612e7c57fe5b87811015612ed5576040517f08c379a000000000000000000000000000000000000000000000000000000000815260040180806020018281038252602681526020018061321d6026913960400191505060405180910390fd5b80898096508197505050505b505b5050965096945050505050565b600080821480612f0d5750828283850292508281612f0a57fe5b04145b612f7f576040517f08c379a00000000000000000000000000000000000000000000000000000000081526004018080602001828103825260148152602001807f64732d6d6174682d6d756c2d6f766572666c6f7700000000000000000000000081525060200191505060405180910390fd5b92915050565b6000828284019150811015613002576040517f08c379a00000000000000000000000000000000000000000000000000000000081526004018080602001828103825260148152602001807f64732d6d6174682d6164642d6f766572666c6f7700000000000000000000000081525060200191505060405180910390fd5b92915050565b60008060006130178585612a1d565b509050600080613028888888611c71565b73ffffffffffffffffffffffffffffffffffffffff16630902f1ac6040518163ffffffff1660e01b815260040160606040518083038186803b15801561306d57600080fd5b505afa158015613081573d6000803e3d6000fd5b505050506040513d606081101561309757600080fd5b81019080805190602001909291908051906020019092919080519060200190929190505050506dffffffffffffffffffffffffffff1691506dffffffffffffffffffffffffffff1691508273ffffffffffffffffffffffffffffffffffffffff168773ffffffffffffffffffffffffffffffffffffffff161461311b57808261311e565b81815b809550819650505050505093509391505056fe556e697377617056324c6962726172793a20494e53554646494349454e545f4f55545055545f414d4f554e54556e697377617056324c6962726172793a204944454e544943414c5f414444524553534553556e69737761705632526f757465723a20494e53554646494349454e545f425f414d4f554e54556e697377617056324c6962726172793a20494e53554646494349454e545f4c4951554944495459556e697377617056324c6962726172793a20494e53554646494349454e545f414d4f554e54556e69737761705632526f757465723a204558434553534956455f494e5055545f414d4f554e54556e69737761705632526f757465723a20494e53554646494349454e545f415f414d4f554e54556e69737761705632526f757465723a20494e53554646494349454e545f4f55545055545f414d4f554e545472616e7366657248656c7065723a205452414e534645525f46524f4d5f4641494c4544556e697377617056324c6962726172793a20494e53554646494349454e545f494e5055545f414d4f554e54a2646970667358221220745b340cf1900669e3344a7e9c1f6c57aa5b264fc2fb28b9ea92f11c3907c26a64736f6c634300060c0033",
  "linkReferences": {},
  "deployedLinkReferences": {}
}