{
  "address": "0x3AD01e831E56EDB5fe2Ed5Ed9b70c7917c71E1BF",
  "abi": [
    {
      "anonymous": false,
      "inputs": [
        {
          "indexed": true,
          "internalType": "address",
          "name": "manager",
          "type": "address"
        },
        {
          "indexed": true,
          "internalType": "address",
          "name": "beneficiary",
          "type": "address"
        }
      ],
      "name": "BeneficiaryAdded",
      "type": "event"
    },
    {
      "anonymous": false,
      "inputs": [
        {
          "indexed": true,
          "internalType": "address",
          "name": "beneficiary",
          "type": "address"
        },
        {
          "indexed": false,
          "internalType": "uint256",
          "name": "amount",
          "type": "uint256"
        }
      ],
      "name": "BeneficiaryClaim",
      "type": "event"
    },
    {
      "anonymous": false,
      "inputs": [
        {
          "indexed": true,
          "internalType": "address",
          "name": "beneficiary",
          "type": "address"
        }
      ],
      "name": "BeneficiaryJoined",
      "type": "event"
    },
    {
      "anonymous": false,
      "inputs": [
        {
          "indexed": true,
          "internalType": "address",
          "name": "manager",
          "type": "address"
        },
        {
          "indexed": true,
          "internalType": "address",
          "name": "beneficiary",
          "type": "address"
        }
      ],
      "name": "BeneficiaryLocked",
      "type": "event"
    },
    {
      "anonymous": false,
      "inputs": [
        {
          "indexed": false,
          "internalType": "uint256",
          "name": "oldClaimAmount",
          "type": "uint256"
        },
        {
          "indexed": false,
          "internalType": "uint256",
          "name": "oldMaxClaim",
          "type": "uint256"
        },
        {
          "indexed": false,
          "internalType": "uint256",
          "name": "oldDecreaseStep",
          "type": "uint256"
        },
        {
          "indexed": false,
          "internalType": "uint256",
          "name": "oldBaseInterval",
          "type": "uint256"
        },
        {
          "indexed": false,
          "internalType": "uint256",
          "name": "oldIncrementInterval",
          "type": "uint256"
        },
        {
          "indexed": false,
          "internalType": "uint256",
          "name": "newClaimAmount",
          "type": "uint256"
        },
        {
          "indexed": false,
          "internalType": "uint256",
          "name": "newMaxClaim",
          "type": "uint256"
        },
        {
          "indexed": false,
          "internalType": "uint256",
          "name": "newDecreaseStep",
          "type": "uint256"
        },
        {
          "indexed": false,
          "internalType": "uint256",
          "name": "newBaseInterval",
          "type": "uint256"
        },
        {
          "indexed": false,
          "internalType": "uint256",
          "name": "newIncrementInterval",
          "type": "uint256"
        }
      ],
      "name": "BeneficiaryParamsUpdated",
      "type": "event"
    },
    {
      "anonymous": false,
      "inputs": [
        {
          "indexed": true,
          "internalType": "address",
          "name": "manager",
          "type": "address"
        },
        {
          "indexed": true,
          "internalType": "address",
          "name": "beneficiary",
          "type": "address"
        }
      ],
      "name": "BeneficiaryRemoved",
      "type": "event"
    },
    {
      "anonymous": false,
      "inputs": [
        {
          "indexed": true,
          "internalType": "address",
          "name": "manager",
          "type": "address"
        },
        {
          "indexed": true,
          "internalType": "address",
          "name": "beneficiary",
          "type": "address"
        }
      ],
      "name": "BeneficiaryUnlocked",
      "type": "event"
    },
    {
      "anonymous": false,
      "inputs": [
        {
          "indexed": true,
          "internalType": "address",
          "name": "oldCommunityAdmin",
          "type": "address"
        },
        {
          "indexed": true,
          "internalType": "address",
          "name": "newCommunityAdmin",
          "type": "address"
        }
      ],
      "name": "CommunityAdminUpdated",
      "type": "event"
    },
    {
      "anonymous": false,
      "inputs": [
        {
          "indexed": true,
          "internalType": "address",
          "name": "manager",
          "type": "address"
        }
      ],
      "name": "CommunityLocked",
      "type": "event"
    },
    {
      "anonymous": false,
      "inputs": [
        {
          "indexed": false,
          "internalType": "uint256",
          "name": "oldMinTranche",
          "type": "uint256"
        },
        {
          "indexed": false,
          "internalType": "uint256",
          "name": "oldMaxTranche",
          "type": "uint256"
        },
        {
          "indexed": false,
          "internalType": "uint256",
          "name": "newMinTranche",
          "type": "uint256"
        },
        {
          "indexed": false,
          "internalType": "uint256",
          "name": "newMaxTranche",
          "type": "uint256"
        }
      ],
      "name": "CommunityParamsUpdated",
      "type": "event"
    },
    {
      "anonymous": false,
      "inputs": [
        {
          "indexed": true,
          "internalType": "address",
          "name": "manager",
          "type": "address"
        }
      ],
      "name": "CommunityUnlocked",
      "type": "event"
    },
    {
      "anonymous": false,
      "inputs": [
        {
          "indexed": true,
          "internalType": "address",
          "name": "donor",
          "type": "address"
        },
        {
          "indexed": false,
          "internalType": "uint256",
          "name": "amount",
          "type": "uint256"
        }
      ],
      "name": "Donate",
      "type": "event"
    },
    {
      "anonymous": false,
      "inputs": [
        {
          "indexed": true,
          "internalType": "address",
          "name": "manager",
          "type": "address"
        }
      ],
      "name": "FundsRequested",
      "type": "event"
    },
    {
      "anonymous": false,
      "inputs": [
        {
          "indexed": true,
          "internalType": "address",
          "name": "manager",
          "type": "address"
        },
        {
          "indexed": true,
          "internalType": "address",
          "name": "account",
          "type": "address"
        }
      ],
      "name": "ManagerAdded",
      "type": "event"
    },
    {
      "anonymous": false,
      "inputs": [
        {
          "indexed": true,
          "internalType": "address",
          "name": "manager",
          "type": "address"
        },
        {
          "indexed": true,
          "internalType": "address",
          "name": "account",
          "type": "address"
        }
      ],
      "name": "ManagerRemoved",
      "type": "event"
    },
    {
      "anonymous": false,
      "inputs": [
        {
          "indexed": true,
          "internalType": "uint256",
          "name": "oldMaxBeneficiaries",
          "type": "uint256"
        },
        {
          "indexed": true,
          "internalType": "uint256",
          "name": "newMaxBeneficiaries",
          "type": "uint256"
        }
      ],
      "name": "MaxBeneficiariesUpdated",
      "type": "event"
    },
    {
      "anonymous": false,
      "inputs": [
        {
          "indexed": true,
          "internalType": "address",
          "name": "previousOwner",
          "type": "address"
        },
        {
          "indexed": true,
          "internalType": "address",
          "name": "newOwner",
          "type": "address"
        }
      ],
      "name": "OwnershipTransferred",
      "type": "event"
    },
    {
      "anonymous": false,
      "inputs": [
        {
          "indexed": true,
          "internalType": "address",
          "name": "oldPreviousCommunity",
          "type": "address"
        },
        {
          "indexed": true,
          "internalType": "address",
          "name": "newPreviousCommunity",
          "type": "address"
        }
      ],
      "name": "PreviousCommunityUpdated",
      "type": "event"
    },
    {
      "anonymous": false,
      "inputs": [
        {
          "indexed": true,
          "internalType": "bytes32",
          "name": "role",
          "type": "bytes32"
        },
        {
          "indexed": true,
          "internalType": "bytes32",
          "name": "previousAdminRole",
          "type": "bytes32"
        },
        {
          "indexed": true,
          "internalType": "bytes32",
          "name": "newAdminRole",
          "type": "bytes32"
        }
      ],
      "name": "RoleAdminChanged",
      "type": "event"
    },
    {
      "anonymous": false,
      "inputs": [
        {
          "indexed": true,
          "internalType": "bytes32",
          "name": "role",
          "type": "bytes32"
        },
        {
          "indexed": true,
          "internalType": "address",
          "name": "account",
          "type": "address"
        },
        {
          "indexed": true,
          "internalType": "address",
          "name": "sender",
          "type": "address"
        }
      ],
      "name": "RoleGranted",
      "type": "event"
    },
    {
      "anonymous": false,
      "inputs": [
        {
          "indexed": true,
          "internalType": "bytes32",
          "name": "role",
          "type": "bytes32"
        },
        {
          "indexed": true,
          "internalType": "address",
          "name": "account",
          "type": "address"
        },
        {
          "indexed": true,
          "internalType": "address",
          "name": "sender",
          "type": "address"
        }
      ],
      "name": "RoleRevoked",
      "type": "event"
    },
    {
      "anonymous": false,
      "inputs": [
        {
          "indexed": true,
          "internalType": "address",
          "name": "oldTokenAddress",
          "type": "address"
        },
        {
          "indexed": true,
          "internalType": "address",
          "name": "newTokenAddress",
          "type": "address"
        }
      ],
      "name": "TokenUpdated",
      "type": "event"
    },
    {
      "anonymous": false,
      "inputs": [
        {
          "indexed": true,
          "internalType": "address",
          "name": "token",
          "type": "address"
        },
        {
          "indexed": true,
          "internalType": "address",
          "name": "to",
          "type": "address"
        },
        {
          "indexed": false,
          "internalType": "uint256",
          "name": "amount",
          "type": "uint256"
        }
      ],
      "name": "TransferERC20",
      "type": "event"
    },
    {
      "inputs": [],
      "name": "DEFAULT_ADMIN_ROLE",
      "outputs": [
        {
          "internalType": "bytes32",
          "name": "",
          "type": "bytes32"
        }
      ],
      "stateMutability": "view",
      "type": "function"
    },
    {
      "inputs": [],
      "name": "_firstBlockTimestamp",
      "outputs": [
        {
          "internalType": "uint256",
          "name": "",
          "type": "uint256"
        }
      ],
      "stateMutability": "view",
      "type": "function"
    },
    {
      "inputs": [],
      "name": "_token",
      "outputs": [
        {
          "internalType": "contract IERC20",
          "name": "",
          "type": "address"
        }
      ],
      "stateMutability": "view",
      "type": "function"
    },
    {
      "inputs": [
        {
          "internalType": "address[]",
          "name": "_beneficiaryAddresses",
          "type": "address[]"
        }
      ],
      "name": "addBeneficiaries",
      "outputs": [],
      "stateMutability": "nonpayable",
      "type": "function"
    },
    {
      "inputs": [
        {
          "internalType": "address",
          "name": "_account",
          "type": "address"
        }
      ],
      "name": "addManager",
      "outputs": [],
      "stateMutability": "nonpayable",
      "type": "function"
    },
    {
      "inputs": [
        {
          "internalType": "uint256",
          "name": "_amount",
          "type": "uint256"
        }
      ],
      "name": "addTreasuryFunds",
      "outputs": [],
      "stateMutability": "nonpayable",
      "type": "function"
    },
    {
      "inputs": [],
      "name": "baseInterval",
      "outputs": [
        {
          "internalType": "uint256",
          "name": "",
          "type": "uint256"
        }
      ],
      "stateMutability": "view",
      "type": "function"
    },
    {
      "inputs": [
        {
          "internalType": "address",
          "name": "",
          "type": "address"
        }
      ],
      "name": "beneficiaries",
      "outputs": [
        {
          "internalType": "enum ICommunity.BeneficiaryState",
          "name": "state",
          "type": "uint8"
        },
        {
          "internalType": "uint256",
          "name": "claims",
          "type": "uint256"
        },
        {
          "internalType": "uint256",
          "name": "claimedAmount",
          "type": "uint256"
        },
        {
          "internalType": "uint256",
          "name": "lastClaim",
          "type": "uint256"
        }
      ],
      "stateMutability": "view",
      "type": "function"
    },
    {
      "inputs": [
        {
          "internalType": "address",
          "name": "_beneficiaryAddress",
          "type": "address"
        }
      ],
      "name": "beneficiaryJoinFromMigrated",
      "outputs": [],
      "stateMutability": "nonpayable",
      "type": "function"
    },
    {
      "inputs": [
        {
          "internalType": "uint256",
          "name": "index_",
          "type": "uint256"
        }
      ],
      "name": "beneficiaryListAt",
      "outputs": [
        {
          "internalType": "address",
          "name": "",
          "type": "address"
        }
      ],
      "stateMutability": "view",
      "type": "function"
    },
    {
      "inputs": [],
      "name": "beneficiaryListLength",
      "outputs": [
        {
          "internalType": "uint256",
          "name": "",
          "type": "uint256"
        }
      ],
      "stateMutability": "view",
      "type": "function"
    },
    {
      "inputs": [],
      "name": "cUSD",
      "outputs": [
        {
          "internalType": "contract IERC20",
          "name": "",
          "type": "address"
        }
      ],
      "stateMutability": "view",
      "type": "function"
    },
    {
      "inputs": [],
      "name": "claim",
      "outputs": [],
      "stateMutability": "nonpayable",
      "type": "function"
    },
    {
      "inputs": [],
      "name": "claimAmount",
      "outputs": [
        {
          "internalType": "uint256",
          "name": "",
          "type": "uint256"
        }
      ],
      "stateMutability": "view",
      "type": "function"
    },
    {
      "inputs": [
        {
          "internalType": "address",
          "name": "_beneficiaryAddress",
          "type": "address"
        }
      ],
      "name": "claimCooldown",
      "outputs": [
        {
          "internalType": "uint256",
          "name": "",
          "type": "uint256"
        }
      ],
      "stateMutability": "view",
      "type": "function"
    },
    {
      "inputs": [],
      "name": "communityAdmin",
      "outputs": [
        {
          "internalType": "contract ICommunityAdmin",
          "name": "",
          "type": "address"
        }
      ],
      "stateMutability": "view",
      "type": "function"
    },
    {
      "inputs": [],
      "name": "decreaseStep",
      "outputs": [
        {
          "internalType": "uint256",
          "name": "",
          "type": "uint256"
        }
      ],
      "stateMutability": "view",
      "type": "function"
    },
    {
      "inputs": [
        {
          "internalType": "address",
          "name": "_sender",
          "type": "address"
        },
        {
          "internalType": "uint256",
          "name": "_amount",
          "type": "uint256"
        }
      ],
      "name": "donate",
      "outputs": [],
      "stateMutability": "nonpayable",
      "type": "function"
    },
    {
      "inputs": [],
      "name": "getInitialMaxClaim",
      "outputs": [
        {
          "internalType": "uint256",
          "name": "",
          "type": "uint256"
        }
      ],
      "stateMutability": "view",
      "type": "function"
    },
    {
      "inputs": [
        {
          "internalType": "bytes32",
          "name": "role",
          "type": "bytes32"
        }
      ],
      "name": "getRoleAdmin",
      "outputs": [
        {
          "internalType": "bytes32",
          "name": "",
          "type": "bytes32"
        }
      ],
      "stateMutability": "view",
      "type": "function"
    },
    {
      "inputs": [],
      "name": "getVersion",
      "outputs": [
        {
          "internalType": "uint256",
          "name": "",
          "type": "uint256"
        }
      ],
      "stateMutability": "pure",
      "type": "function"
    },
    {
      "inputs": [
        {
          "internalType": "bytes32",
          "name": "",
          "type": "bytes32"
        },
        {
          "internalType": "address",
          "name": "",
          "type": "address"
        }
      ],
      "name": "grantRole",
      "outputs": [],
      "stateMutability": "pure",
      "type": "function"
    },
    {
      "inputs": [
        {
          "internalType": "bytes32",
          "name": "role",
          "type": "bytes32"
        },
        {
          "internalType": "address",
          "name": "account",
          "type": "address"
        }
      ],
      "name": "hasRole",
      "outputs": [
        {
          "internalType": "bool",
          "name": "",
          "type": "bool"
        }
      ],
      "stateMutability": "view",
      "type": "function"
    },
    {
      "inputs": [],
      "name": "impactMarketAddress",
      "outputs": [
        {
          "internalType": "address",
          "name": "",
          "type": "address"
        }
      ],
      "stateMutability": "pure",
      "type": "function"
    },
    {
      "inputs": [],
      "name": "incrementInterval",
      "outputs": [
        {
          "internalType": "uint256",
          "name": "",
          "type": "uint256"
        }
      ],
      "stateMutability": "view",
      "type": "function"
    },
    {
      "inputs": [
        {
          "internalType": "address[]",
          "name": "_managers",
          "type": "address[]"
        },
        {
          "internalType": "uint256",
          "name": "_claimAmount",
          "type": "uint256"
        },
        {
          "internalType": "uint256",
          "name": "_maxClaim",
          "type": "uint256"
        },
        {
          "internalType": "uint256",
          "name": "_decreaseStep",
          "type": "uint256"
        },
        {
          "internalType": "uint256",
          "name": "_baseInterval",
          "type": "uint256"
        },
        {
          "internalType": "uint256",
          "name": "_incrementInterval",
          "type": "uint256"
        },
        {
          "internalType": "uint256",
          "name": "_minTranche",
          "type": "uint256"
        },
        {
          "internalType": "uint256",
          "name": "_maxTranche",
          "type": "uint256"
        },
        {
          "internalType": "uint256",
          "name": "_maxBeneficiaries",
          "type": "uint256"
        },
        {
          "internalType": "contract ICommunity",
          "name": "_previousCommunity",
          "type": "address"
        }
      ],
      "name": "initialize",
      "outputs": [],
      "stateMutability": "nonpayable",
      "type": "function"
    },
    {
      "inputs": [],
      "name": "lastFundRequest",
      "outputs": [
        {
          "internalType": "uint256",
          "name": "",
          "type": "uint256"
        }
      ],
      "stateMutability": "view",
      "type": "function"
    },
    {
      "inputs": [
        {
          "internalType": "address",
          "name": "_beneficiaryAddress",
          "type": "address"
        }
      ],
      "name": "lastInterval",
      "outputs": [
        {
          "internalType": "uint256",
          "name": "",
          "type": "uint256"
        }
      ],
      "stateMutability": "view",
      "type": "function"
    },
    {
      "inputs": [],
      "name": "lock",
      "outputs": [],
      "stateMutability": "nonpayable",
      "type": "function"
    },
    {
      "inputs": [
        {
          "internalType": "address",
          "name": "_beneficiaryAddress",
          "type": "address"
        }
      ],
      "name": "lockBeneficiary",
      "outputs": [],
      "stateMutability": "nonpayable",
      "type": "function"
    },
    {
      "inputs": [],
      "name": "locked",
      "outputs": [
        {
          "internalType": "bool",
          "name": "",
          "type": "bool"
        }
      ],
      "stateMutability": "view",
      "type": "function"
    },
    {
      "inputs": [],
      "name": "maxBeneficiaries",
      "outputs": [
        {
          "internalType": "uint256",
          "name": "",
          "type": "uint256"
        }
      ],
      "stateMutability": "view",
      "type": "function"
    },
    {
      "inputs": [],
      "name": "maxClaim",
      "outputs": [
        {
          "internalType": "uint256",
          "name": "",
          "type": "uint256"
        }
      ],
      "stateMutability": "view",
      "type": "function"
    },
    {
      "inputs": [],
      "name": "maxTranche",
      "outputs": [
        {
          "internalType": "uint256",
          "name": "",
          "type": "uint256"
        }
      ],
      "stateMutability": "view",
      "type": "function"
    },
    {
      "inputs": [],
      "name": "minTranche",
      "outputs": [
        {
          "internalType": "uint256",
          "name": "",
          "type": "uint256"
        }
      ],
      "stateMutability": "view",
      "type": "function"
    },
    {
      "inputs": [],
      "name": "owner",
      "outputs": [
        {
          "internalType": "address",
          "name": "",
          "type": "address"
        }
      ],
      "stateMutability": "view",
      "type": "function"
    },
    {
      "inputs": [],
      "name": "previousCommunity",
      "outputs": [
        {
          "internalType": "contract ICommunity",
          "name": "",
          "type": "address"
        }
      ],
      "stateMutability": "view",
      "type": "function"
    },
    {
      "inputs": [],
      "name": "privateFunds",
      "outputs": [
        {
          "internalType": "uint256",
          "name": "",
          "type": "uint256"
        }
      ],
      "stateMutability": "view",
      "type": "function"
    },
    {
      "inputs": [
        {
          "internalType": "address",
          "name": "_beneficiaryAddress",
          "type": "address"
        }
      ],
      "name": "removeBeneficiary",
      "outputs": [],
      "stateMutability": "nonpayable",
      "type": "function"
    },
    {
      "inputs": [
        {
          "internalType": "address",
          "name": "_account",
          "type": "address"
        }
      ],
      "name": "removeManager",
      "outputs": [],
      "stateMutability": "nonpayable",
      "type": "function"
    },
    {
      "inputs": [],
      "name": "renounceOwnership",
      "outputs": [],
      "stateMutability": "nonpayable",
      "type": "function"
    },
    {
      "inputs": [
        {
          "internalType": "bytes32",
          "name": "role",
          "type": "bytes32"
        },
        {
          "internalType": "address",
          "name": "account",
          "type": "address"
        }
      ],
      "name": "renounceRole",
      "outputs": [],
      "stateMutability": "nonpayable",
      "type": "function"
    },
    {
      "inputs": [],
      "name": "requestFunds",
      "outputs": [],
      "stateMutability": "nonpayable",
      "type": "function"
    },
    {
      "inputs": [
        {
          "internalType": "bytes32",
          "name": "",
          "type": "bytes32"
        },
        {
          "internalType": "address",
          "name": "",
          "type": "address"
        }
      ],
      "name": "revokeRole",
      "outputs": [],
      "stateMutability": "pure",
      "type": "function"
    },
    {
      "inputs": [
        {
          "internalType": "bytes4",
          "name": "interfaceId",
          "type": "bytes4"
        }
      ],
      "name": "supportsInterface",
      "outputs": [
        {
          "internalType": "bool",
          "name": "",
          "type": "bool"
        }
      ],
      "stateMutability": "view",
      "type": "function"
    },
    {
      "inputs": [],
      "name": "token",
      "outputs": [
        {
          "internalType": "contract IERC20",
          "name": "",
          "type": "address"
        }
      ],
      "stateMutability": "view",
      "type": "function"
    },
    {
      "inputs": [
        {
          "internalType": "contract IERC20",
          "name": "_token",
          "type": "address"
        },
        {
          "internalType": "address",
          "name": "_to",
          "type": "address"
        },
        {
          "internalType": "uint256",
          "name": "_amount",
          "type": "uint256"
        }
      ],
      "name": "transfer",
      "outputs": [],
      "stateMutability": "nonpayable",
      "type": "function"
    },
    {
      "inputs": [
        {
          "internalType": "address",
          "name": "newOwner",
          "type": "address"
        }
      ],
      "name": "transferOwnership",
      "outputs": [],
      "stateMutability": "nonpayable",
      "type": "function"
    },
    {
      "inputs": [],
      "name": "treasuryFunds",
      "outputs": [
        {
          "internalType": "uint256",
          "name": "",
          "type": "uint256"
        }
      ],
      "stateMutability": "view",
      "type": "function"
    },
    {
      "inputs": [],
      "name": "unlock",
      "outputs": [],
      "stateMutability": "nonpayable",
      "type": "function"
    },
    {
      "inputs": [
        {
          "internalType": "address",
          "name": "_beneficiaryAddress",
          "type": "address"
        }
      ],
      "name": "unlockBeneficiary",
      "outputs": [],
      "stateMutability": "nonpayable",
      "type": "function"
    },
    {
      "inputs": [
        {
          "internalType": "uint256",
          "name": "_claimAmount",
          "type": "uint256"
        },
        {
          "internalType": "uint256",
          "name": "_maxClaim",
          "type": "uint256"
        },
        {
          "internalType": "uint256",
          "name": "_decreaseStep",
          "type": "uint256"
        },
        {
          "internalType": "uint256",
          "name": "_baseInterval",
          "type": "uint256"
        },
        {
          "internalType": "uint256",
          "name": "_incrementInterval",
          "type": "uint256"
        }
      ],
      "name": "updateBeneficiaryParams",
      "outputs": [],
      "stateMutability": "nonpayable",
      "type": "function"
    },
    {
      "inputs": [
        {
          "internalType": "contract ICommunityAdmin",
          "name": "_newCommunityAdmin",
          "type": "address"
        }
      ],
      "name": "updateCommunityAdmin",
      "outputs": [],
      "stateMutability": "nonpayable",
      "type": "function"
    },
    {
      "inputs": [
        {
          "internalType": "uint256",
          "name": "_minTranche",
          "type": "uint256"
        },
        {
          "internalType": "uint256",
          "name": "_maxTranche",
          "type": "uint256"
        }
      ],
      "name": "updateCommunityParams",
      "outputs": [],
      "stateMutability": "nonpayable",
      "type": "function"
    },
    {
      "inputs": [
        {
          "internalType": "uint256",
          "name": "_newMaxBeneficiaries",
          "type": "uint256"
        }
      ],
      "name": "updateMaxBeneficiaries",
      "outputs": [],
      "stateMutability": "nonpayable",
      "type": "function"
    },
    {
      "inputs": [
        {
          "internalType": "contract ICommunity",
          "name": "_newPreviousCommunity",
          "type": "address"
        }
      ],
      "name": "updatePreviousCommunity",
      "outputs": [],
      "stateMutability": "nonpayable",
      "type": "function"
    },
    {
      "inputs": [
        {
          "internalType": "contract IERC20",
          "name": "_newToken",
          "type": "address"
        },
        {
          "internalType": "address[]",
          "name": "_exchangePath",
          "type": "address[]"
        }
      ],
      "name": "updateToken",
      "outputs": [],
      "stateMutability": "nonpayable",
      "type": "function"
    },
    {
      "inputs": [],
      "name": "validBeneficiaryCount",
      "outputs": [
        {
          "internalType": "uint256",
          "name": "",
          "type": "uint256"
        }
      ],
      "stateMutability": "view",
      "type": "function"
    }
  ],
  "transactionHash": "0x2587036db760af96849c619ac8545f70a44d35f5c988244dea9643c3bcde8119",
  "args": [],
  "numDeployments": 2,
  "solcInputHash": "9f7bffa15693d61510860eff6ced8ff8",
  "bytecode": "0x608060405234801561001057600080fd5b50614148806100206000396000f3fe608060405234801561001057600080fd5b506004361061038e5760003560e01c80638f4a6269116101de578063c0e27b6b1161010f578063d6dbd972116100ad578063ecd0c0c31161007c578063ecd0c0c31461072c578063f2fde38b14610740578063f83d08ba14610753578063fc0c546a1461044657600080fd5b8063d6dbd972146106fd578063dd4414bb14610707578063e69d849d14610711578063eb0376b11461072457600080fd5b8063d10f5107116100e9578063d10f5107146106bb578063d33d4ec6146106ce578063d4938db3146106e1578063d547741f146106ea57600080fd5b8063c0e27b6b14610691578063c51fab3c146106a4578063cf309012146106ae57600080fd5b8063a69df4b51161017c578063b026ba5711610156578063b026ba571461065c578063b809ee8214610664578063beabacc814610677578063c041fdc51461068a57600080fd5b8063a69df4b51461062e578063a8f3e06314610636578063ac18de431461064957600080fd5b80639cecf572116101b85780639cecf572146105f6578063a0f93a1714610609578063a217fddf14610613578063a57e08ca1461061b57600080fd5b80638f4a6269146105c657806391d14854146105d95780639c01a401146105ec57600080fd5b806336568abe116102c3578063597be18b1161026157806378ba280f1161023057806378ba280f146105915780637e2959dc14610599578063830953ab146105ac5780638da5cb5b146105b557600080fd5b8063597be18b146105595780635fac917a14610562578063715018a614610576578063785393db1461057e57600080fd5b8063431a801a1161029d578063431a801a146105215780634e71d92d1461052b578063590411da1461053357806359633a1c1461054657600080fd5b806336568abe146104e75780633a578a0c146104fa5780633c19c2d31461050e57600080fd5b8063248a9ca3116103305780632d06177a1161030a5780632d06177a1461049b5780632f2ff15d146104ae5780632fd79103146104c1578063305ff654146104d457600080fd5b8063248a9ca3146104665780632a7eabf6146104895780632b2711171461049157600080fd5b80630d8e6e2c1161036c5780630d8e6e2c146104215780630e5b7c53146104285780631912cdb4146104315780631fccf6721461044657600080fd5b8063015677391461039357806301ffc9a7146103e657806309c338c314610409575b600080fd5b6103cd6103a1366004613a98565b61010960205260009081526040902080546001820154600283015460039093015460ff90921692909184565b6040516103dd9493929190613dba565b60405180910390f35b6103f96103f4366004613c34565b61075b565b60405190151581526020016103dd565b6104136101065481565b6040519081526020016103dd565b6002610413565b61041360fd5481565b61044461043f366004613d43565b610792565b005b61044e6108b3565b6040516001600160a01b0390911681526020016103dd565b610413610474366004613bed565b60009081526065602052604090206001015490565b610413610964565b6104136101055481565b6104446104a9366004613a98565b6109a9565b6104446104bc366004613c05565b610ab5565b6104446104cf366004613d64565b610b27565b6104446104e2366004613bed565b610d24565b6104446104f5366004613c05565b610e51565b6101075461044e906001600160a01b031681565b61044461051c366004613b2e565b610ecb565b6104136101005481565b610444611244565b610444610541366004613afb565b6114af565b610444610554366004613a98565b6116ee565b61041360fe5481565b6101085461044e906001600160a01b031681565b61044461182f565b61044e61058c366004613bed565b611865565b610413611873565b6104446105a7366004613a98565b611894565b61041360fc5481565b6097546001600160a01b031661044e565b6104446105d4366004613c9c565b61191c565b6103f96105e7366004613c05565b612023565b6104136101015481565b610413610604366004613a98565b61204e565b61041361010d5481565b610413600081565b610444610629366004613a98565b612080565b610444612660565b610413610644366004613a98565b612735565b610444610657366004613a98565b612792565b6104446129a0565b610444610672366004613bed565b612a92565b610444610685366004613c5c565b612ad7565b600061044e565b61044461069f366004613a98565b612b94565b6104136101035481565b60fb546103f99060ff1681565b6104446106c9366004613a98565b612cc8565b6104446106dc366004613a98565b612dfe565b61041360ff5481565b6104446106f8366004613c05565b612e8b565b6104136101025481565b6104136101045481565b61044461071f366004613ad0565b612ef9565b610413612f8a565b61010c5461044e906001600160a01b031681565b61044461074e366004613a98565b612f97565b61044461302f565b60006001600160e01b03198216637965db0b60e01b148061078c57506301ffc9a760e01b6001600160e01b03198316145b92915050565b6097546001600160a01b031633146107c55760405162461bcd60e51b81526004016107bc90613e6e565b60405180910390fd5b808211156108565760405162461bcd60e51b815260206004820152605260248201527f436f6d6d756e6974793a3a757064617465436f6d6d756e697479506172616d7360448201527f3a206d696e5472616e6368652073686f756c64206e6f742062652067726561746064820152716572207468616e206d61785472616e63686560701b608482015260a4016107bc565b61010454610105546040805192835260208301919091528101839052606081018290527fcd922a6f0ad842d84e08eb5df24c029b63c60167fb37cff24adf95c4832e32589060800160405180910390a16101049190915561010555565b61010c546000906001600160a01b03166109535761010860009054906101000a90046001600160a01b03166001600160a01b0316631fccf6726040518163ffffffff1660e01b815260040160206040518083038186803b15801561091657600080fd5b505afa15801561092a573d6000803e3d6000fd5b505050506040513d601f19601f8201168201806040525081019061094e9190613ab4565b905090565b5061010c546001600160a01b031690565b60004661a4ec14156109795750635ea06a0590565b4661aef3141561098c5750635f10925490565b4661aef3141561099f5750635ef3704190565b61094e434261403c565b61010854604051636b0de23f60e01b81523060048201523360248201526001600160a01b0390911690636b0de23f9060440160206040518083038186803b1580156109f357600080fd5b505afa158015610a07573d6000803e3d6000fd5b505050506040513d601f19601f82011682018060405250810190610a2b9190613bcd565b610a475760405162461bcd60e51b81526004016107bc90613e2b565b610a5f6000805160206140f383398151915282612023565b610ab257610a7b6000805160206140f383398151915282613107565b6040516001600160a01b0382169033907f05a4006f300442cf8b7fdb885f5ee958812020bffb5c5a8e655fde64e5f987ed90600090a35b50565b60405162461bcd60e51b815260206004820152603a60248201527f436f6d6d756e6974793a3a6772616e74526f6c653a20596f7520617265206e6f60448201527f7420616c6c6f7720746f207573652074686973206d6574686f6400000000000060648201526084016107bc565b5050565b6097546001600160a01b03163314610b515760405162461bcd60e51b81526004016107bc90613e6e565b808211610bda5760405162461bcd60e51b815260206004820152604b60248201527f436f6d6d756e6974793a3a636f6e7374727563746f723a2062617365496e746560448201527f7276616c206d7573742062652067726561746572207468616e20696e6372656d60648201526a195b9d125b9d195c9d985b60aa1b608482015260a4016107bc565b8261010054610be9919061401d565b610bf39086613fe5565b8411610c715760405162461bcd60e51b815260206004820152604160248201527f436f6d6d756e6974793a3a636f6e7374727563746f723a206d6178436c61696d60448201527f206d7573742062652067726561746572207468616e20636c61696d416d6f756e6064820152601d60fa1b608482015260a4016107bc565b60fc5460ff546101035460fd5460fe54604080519586526020860194909452848401929092526060840152608083015260a0820187905260c0820186905260e0820185905261010082018490526101208201839052517fa19f450cd68c70f728b0c4b75befd202ea5ebb1ae78b6aca47365934b5008750918190036101400190a160fc85905561010054610d0690849061401d565b610d10908561403c565b60ff556101039290925560fd5560fe555050565b6097546001600160a01b0316331480610dba575061010854604051636b0de23f60e01b81523060048201523360248201526001600160a01b0390911690636b0de23f9060440160206040518083038186803b158015610d8257600080fd5b505afa158015610d96573d6000803e3d6000fd5b505050506040513d601f19601f82011682018060405250810190610dba9190613bcd565b610e1b5760405162461bcd60e51b815260206004820152602c60248201527f436f6d6d756e6974793a204e4f545f4f574e45525f4f525f414d42415353414460448201526b4f525f4f525f454e5449545960a01b60648201526084016107bc565b61010d546040518291907f6672b7064fe522fa09a8078f6d967272e0a379beb2270817417c9f023251b65790600090a361010d55565b6001600160a01b0381163314610ec15760405162461bcd60e51b815260206004820152602f60248201527f416363657373436f6e74726f6c3a2063616e206f6e6c792072656e6f756e636560448201526e103937b632b9903337b91039b2b63360891b60648201526084016107bc565b610b23828261318d565b600054610100900460ff16610ee65760005460ff1615610eea565b303b155b610f4d5760405162461bcd60e51b815260206004820152602e60248201527f496e697469616c697a61626c653a20636f6e747261637420697320616c72656160448201526d191e481a5b9a5d1a585b1a5e995960921b60648201526084016107bc565b600054610100900460ff16158015610f6f576000805461ffff19166101011790555b858711610ff75760405162461bcd60e51b815260206004820152604a60248201527f436f6d6d756e6974793a3a696e697469616c697a653a2062617365496e74657260448201527f76616c206d7573742062652067726561746572207468616e20696e6372656d656064820152691b9d125b9d195c9d985b60b21b608482015260a4016107bc565b89891161106e576040805162461bcd60e51b81526020600482015260248101919091527f436f6d6d756e6974793a3a696e697469616c697a653a206d6178436c61696d2060448201527f6d7573742062652067726561746572207468616e20636c61696d416d6f756e7460648201526084016107bc565b838511156110f45760405162461bcd60e51b815260206004820152604760248201527f436f6d6d756e6974793a3a696e697469616c697a653a206d696e5472616e636860448201527f652073686f756c64206e6f742062652067726561746572207468616e206d61786064820152665472616e63686560c81b608482015260a4016107bc565b6110fc6131f4565b611104613233565b61110c61326a565b60fc8a905560fd87905560fe86905560ff89905561010485905561010584905561010780546001600160a01b03199081166001600160a01b0385161790915561010880543392168217905561010389905561010d84905560fb805460ff1916905561117690612f97565b61118e6000805160206140f383398151915280613299565b6111a66000805160206140f3833981519152336132e4565b604051339081907f05a4006f300442cf8b7fdb885f5ee958812020bffb5c5a8e655fde64e5f987ed90600090a38a516000905b80821015611223576112118d838151811061120457634e487b7160e01b600052603260045260246000fd5b60200260200101516109a9565b8161121b81614096565b9250506111d9565b50508015611237576000805461ff00191690555b5050505050505050505050565b6001336000908152610109602052604090205460ff16600381111561127957634e487b7160e01b600052602160045260246000fd5b146112c65760405162461bcd60e51b815260206004820181905260248201527f436f6d6d756e6974793a204e4f545f56414c49445f42454e454649434941525960448201526064016107bc565b600260c95414156112e95760405162461bcd60e51b81526004016107bc90613f3e565b600260c9553360009081526101096020526040902060fb5460ff16156113215760405162461bcd60e51b81526004016107bc90613f1e565b4361132b3361204e565b11156113795760405162461bcd60e51b815260206004820152601960248201527f436f6d6d756e6974793a3a636c61696d3a204e4f545f5945540000000000000060448201526064016107bc565b60ff548160020154106113e35760405162461bcd60e51b815260206004820152602c60248201527f436f6d6d756e6974793a3a636c61696d3a20416c726561647920636c61696d6560448201526b642065766572797468696e6760a01b60648201526084016107bc565b6000816002015460ff546113f7919061403c565b60fc54111561141757816002015460ff54611412919061403c565b61141b565b60fc545b9050808260020160008282546114319190613fe5565b909155505060018201805490600061144883614096565b909155505043600383015561147033826114606108b3565b6001600160a01b031691906132ee565b60405181815233907fd54e03b214b3e8c17e98044f98554b6f1b18dd2a3163a2619afea7e9b2a6eb97906020015b60405180910390a25050600160c955565b6114c76000805160206140f383398151915233612023565b6114e35760405162461bcd60e51b81526004016107bc90613ea3565b600260c95414156115065760405162461bcd60e51b81526004016107bc90613f3e565b600260c95560fb5460ff161561152e5760405162461bcd60e51b81526004016107bc90613f1e565b80516000905b808210156116e4576000610109600085858151811061156357634e487b7160e01b600052603260045260246000fd5b60200260200101516001600160a01b03166001600160a01b031681526020019081526020016000209050600060038111156115ae57634e487b7160e01b600052602160045260246000fd5b815460ff1660038111156115d257634e487b7160e01b600052602160045260246000fd5b146115dd57506116d2565b6115e8816001613356565b43816003018190555061162d84848151811061161457634e487b7160e01b600052603260045260246000fd5b602002602001015161010a6135d290919063ffffffff16565b5061166984848151811061165157634e487b7160e01b600052603260045260246000fd5b602002602001015166b1a2bc2ec500006114606108b3565b83838151811061168957634e487b7160e01b600052603260045260246000fd5b60200260200101516001600160a01b0316336001600160a01b03167fbb39c36a7502b7256e1a687254146a9a2ea7b146c77cb9e40eb0e2b8793781e160405160405180910390a3505b816116dc81614096565b925050611534565b5050600160c95550565b6117066000805160206140f383398151915233612023565b6117225760405162461bcd60e51b81526004016107bc90613ea3565b6001600160a01b0381166000908152610109602052604090206001815460ff16600381111561176157634e487b7160e01b600052602160045260246000fd5b148061179057506002815460ff16600381111561178e57634e487b7160e01b600052602160045260246000fd5b145b6117ea5760405162461bcd60e51b815260206004820152602560248201527f436f6d6d756e6974793a3a72656d6f766542656e65666963696172793a204e4f6044820152641517d6515560da1b60648201526084016107bc565b6117f5816003613356565b6040516001600160a01b0383169033907f1a6590bd0cabbfcc7c86bef99e1034054e179905cfcc294598fcd426c092244290600090a35050565b6097546001600160a01b031633146118595760405162461bcd60e51b81526004016107bc90613e6e565b61186360006135e7565b565b600061078c61010a83613639565b60006101035461010054611887919061401d565b60ff5461094e9190613fe5565b6097546001600160a01b031633146118be5760405162461bcd60e51b81526004016107bc90613e6e565b610107546040516001600160a01b038084169216907f0d6a84e94da4b619dd0d993b5689ec82db4b1095da99ee0f3e7bb046c647e6ad90600090a361010780546001600160a01b0319166001600160a01b0392909216919091179055565b6097546001600160a01b031633146119465760405162461bcd60e51b81526004016107bc90613e6e565b61010860009054906101000a90046001600160a01b03166001600160a01b0316631fccf6726040518163ffffffff1660e01b815260040160206040518083038186803b15801561199557600080fd5b505afa1580156119a9573d6000803e3d6000fd5b505050506040513d601f19601f820116820180604052508101906119cd9190613ab4565b6001600160a01b0316826001600160a01b03161480611ae9575061010860009054906101000a90046001600160a01b03166001600160a01b03166361d027b36040518163ffffffff1660e01b815260040160206040518083038186803b158015611a3657600080fd5b505afa158015611a4a573d6000803e3d6000fd5b505050506040513d601f19601f82011682018060405250810190611a6e9190613ab4565b6040516319f3736160e01b81526001600160a01b03848116600483015291909116906319f373619060240160206040518083038186803b158015611ab157600080fd5b505afa158015611ac5573d6000803e3d6000fd5b505050506040513d601f19601f82011682018060405250810190611ae99190613bcd565b611b435760405162461bcd60e51b815260206004820152602560248201527f436f6d6d756e6974793a3a757064617465546f6b656e3a20496e76616c6964206044820152643a37b5b2b760d91b60648201526084016107bc565b60018151118015611b945750611b576108b3565b6001600160a01b031681600081518110611b8157634e487b7160e01b600052603260045260246000fd5b60200260200101516001600160a01b0316145b8015611be55750816001600160a01b03168160018351611bb4919061403c565b81518110611bd257634e487b7160e01b600052603260045260246000fd5b60200260200101516001600160a01b0316145b611c465760405162461bcd60e51b815260206004820152602c60248201527f436f6d6d756e6974793a3a757064617465546f6b656e3a20696e76616c69642060448201526b0caf0c6d0c2dccecaa0c2e8d60a31b60648201526084016107bc565b6000611c506108b3565b6040516370a0823160e01b81523060048201526001600160a01b0391909116906370a082319060240160206040518083038186803b158015611c9157600080fd5b505afa158015611ca5573d6000803e3d6000fd5b505050506040513d601f19601f82011682018060405250810190611cc99190613d2b565b9050611cd36108b3565b6001600160a01b031663095ea7b361010860009054906101000a90046001600160a01b03166001600160a01b03166361d027b36040518163ffffffff1660e01b815260040160206040518083038186803b158015611d3057600080fd5b505afa158015611d44573d6000803e3d6000fd5b505050506040513d601f19601f82011682018060405250810190611d689190613ab4565b6001600160a01b031663735de9f76040518163ffffffff1660e01b815260040160206040518083038186803b158015611da057600080fd5b505afa158015611db4573d6000803e3d6000fd5b505050506040513d601f19601f82011682018060405250810190611dd89190613ab4565b6040516001600160e01b031960e084901b1681526001600160a01b03909116600482015260248101849052604401602060405180830381600087803b158015611e2057600080fd5b505af1158015611e34573d6000803e3d6000fd5b505050506040513d601f19601f82011682018060405250810190611e589190613bcd565b5061010860009054906101000a90046001600160a01b03166001600160a01b03166361d027b36040518163ffffffff1660e01b815260040160206040518083038186803b158015611ea857600080fd5b505afa158015611ebc573d6000803e3d6000fd5b505050506040513d601f19601f82011682018060405250810190611ee09190613ab4565b6001600160a01b031663735de9f76040518163ffffffff1660e01b815260040160206040518083038186803b158015611f1857600080fd5b505afa158015611f2c573d6000803e3d6000fd5b505050506040513d601f19601f82011682018060405250810190611f509190613ab4565b6001600160a01b0316635c11d7958260008530611f6f42610e10613fe5565b6040518663ffffffff1660e01b8152600401611f8f959493929190613f75565b600060405180830381600087803b158015611fa957600080fd5b505af1158015611fbd573d6000803e3d6000fd5b505061010c546040516001600160a01b03878116945090911691507f0b1186973f810894b87ab0bfbee422fddcaad21b46dc705a561451bbb6bac11790600090a3505061010c80546001600160a01b0319166001600160a01b0392909216919091179055565b60009182526065602090815260408084206001600160a01b0393909316845291905290205460ff1690565b600061205982612735565b6001600160a01b0383166000908152610109602052604090206003015461078c9190613fe5565b6001600160a01b03811660009081526101096020526040812090815460ff1660038111156120be57634e487b7160e01b600052602160045260246000fd5b146121315760405162461bcd60e51b815260206004820152603a60248201527f436f6d6d756e6974793a3a62656e65666963696172794a6f696e46726f6d4d6960448201527f6772617465643a2042656e65666963696172792065786973747300000000000060648201526084016107bc565b610107546040805163c041fdc560e01b815290516000926001600160a01b03169163c041fdc5916004808301926020929190829003018186803b15801561217757600080fd5b505afa15801561218b573d6000803e3d6000fd5b505050506040513d601f19601f820116820180604052508101906121af9190613ab4565b6001600160a01b031614156122705761010754604051630156773960e01b81526001600160a01b038481166004830152600092839283928392169063015677399060240160806040518083038186803b15801561220b57600080fd5b505afa15801561221f573d6000803e3d6000fd5b505050506040513d601f19601f820116820180604052508101906122439190613cea565b93509350935093506122558585613356565b6001850192909255600384019190915560028301555061261b565b6101075460405163a8f3e06360e01b81526001600160a01b03848116600483015290911690600090829063a8f3e06390602401602060405180830381600087803b1580156122bd57600080fd5b505af11580156122d1573d6000803e3d6000fd5b505050506040513d601f19601f820116820180604052508101906122f59190613d2b565b604051630156773960e01b81526001600160a01b03868116600483015291925061239e91859190851690630156773990602401602060405180830381600087803b15801561234257600080fd5b505af1158015612356573d6000803e3d6000fd5b505050506040513d601f19601f8201168201806040525081019061237a9190613d2b565b600381111561239957634e487b7160e01b600052602160045260246000fd5b613356565b604051635911706160e11b81526001600160a01b0385811660048301526000919084169063b222e0c290602401602060405180830381600087803b1580156123e557600080fd5b505af11580156123f9573d6000803e3d6000fd5b505050506040513d601f19601f8201168201806040525081019061241d9190613d2b565b9050612427610964565b6124319083613fe5565b8110612469576005612441610964565b61244b848461403c565b612455919061403c565b61245f9190613ffd565b6003850155612471565b600060038501555b60405163c884ef8360e01b81526001600160a01b03868116600483015284169063c884ef8390602401602060405180830381600087803b1580156124b457600080fd5b505af11580156124c8573d6000803e3d6000fd5b505050506040513d601f19601f820116820180604052508101906124ec9190613d2b565b84600201819055506000836001600160a01b0316630e5b7c536040518163ffffffff1660e01b8152600401602060405180830381600087803b15801561253157600080fd5b505af1158015612545573d6000803e3d6000fd5b505050506040513d601f19601f820116820180604052508101906125699190613d2b565b905080831061260e57836001600160a01b031663597be18b6040518163ffffffff1660e01b8152600401602060405180830381600087803b1580156125ad57600080fd5b505af11580156125c1573d6000803e3d6000fd5b505050506040513d601f19601f820116820180604052508101906125e59190613d2b565b6125ef828561403c565b6125f99190613ffd565b612604906001613fe5565b6001860155612616565b600060018601555b505050505b61262761010a836135d2565b506040516001600160a01b038316907f505fe088fef0d1fb451ccfed842b55a86af1ee6208502f4bc3327dcb9032082990600090a25050565b61010854604051636b0de23f60e01b81523060048201523360248201526001600160a01b0390911690636b0de23f9060440160206040518083038186803b1580156126aa57600080fd5b505afa1580156126be573d6000803e3d6000fd5b505050506040513d601f19601f820116820180604052508101906126e29190613bcd565b6126fe5760405162461bcd60e51b81526004016107bc90613e2b565b60fb805460ff1916905560405133907f4e50048c25972c85ad169c2302967f1e633e8dc6108d6aca51a90d2a59d4934d90600090a2565b6001600160a01b03811660009081526101096020526040812060018101546127605750600092915050565b60fe5460018260010154612774919061403c565b61277e919061401d565b60fd5461278b9190613fe5565b9392505050565b61010854604051636b0de23f60e01b81523060048201523360248201526001600160a01b0390911690636b0de23f9060440160206040518083038186803b1580156127dc57600080fd5b505afa1580156127f0573d6000803e3d6000fd5b505050506040513d601f19601f820116820180604052508101906128149190613bcd565b6128305760405162461bcd60e51b81526004016107bc90613e2b565b6128486000805160206140f383398151915282612023565b6128bc576040805162461bcd60e51b81526020600482015260248101919091527f436f6d6d756e6974793a3a72656d6f76654d616e616765723a2054686973206160448201527f63636f756e7420646f65736e27742068617665206d616e6167657220726f6c6560648201526084016107bc565b610108546001600160a01b038281169116141561294f5760405162461bcd60e51b8152602060048201526044602482018190527f436f6d6d756e6974793a3a72656d6f76654d616e616765723a20596f75206172908201527f65206e6f7420616c6c6f7720746f2072656d6f766520636f6d6d756e697479416064820152633236b4b760e11b608482015260a4016107bc565b6129676000805160206140f38339815191528261318d565b6040516001600160a01b0382169033907f3e902a6ee93dd5b2d48bd1009c7701a481be512b1ef73dbed2f95ea44c59ea8890600090a350565b6129b86000805160206140f383398151915233612023565b6129d45760405162461bcd60e51b81526004016107bc90613ea3565b60fb5460ff16156129f75760405162461bcd60e51b81526004016107bc90613f1e565b61010860009054906101000a90046001600160a01b03166001600160a01b031663174a71d76040518163ffffffff1660e01b8152600401600060405180830381600087803b158015612a4857600080fd5b505af1158015612a5c573d6000803e3d6000fd5b50504361010655505060405133907f16a8b794d4e2ed6ffef50d78af3d4372ce4bfe8a399bfc23f59b7832ee47539090600090a2565b6097546001600160a01b03163314612abc5760405162461bcd60e51b81526004016107bc90613e6e565b806101016000828254612acf9190613fe5565b909155505050565b6097546001600160a01b03163314612b015760405162461bcd60e51b81526004016107bc90613e6e565b600260c9541415612b245760405162461bcd60e51b81526004016107bc90613f3e565b600260c955612b3d6001600160a01b03841683836132ee565b816001600160a01b0316836001600160a01b03167f9b035625e569d1d2bf54830a290aefba7ab11610ba8490871dc62b86b63a895683604051612b8291815260200190565b60405180910390a35050600160c95550565b612bac6000805160206140f383398151915233612023565b612bc85760405162461bcd60e51b81526004016107bc90613ea3565b60fb5460ff1615612beb5760405162461bcd60e51b81526004016107bc90613f1e565b6001600160a01b0381166000908152610109602052604090206001815460ff166003811115612c2a57634e487b7160e01b600052602160045260246000fd5b14612c835760405162461bcd60e51b815260206004820152602360248201527f436f6d6d756e6974793a3a6c6f636b42656e65666963696172793a204e4f545f60448201526216515560ea1b60648201526084016107bc565b612c8e816002613356565b6040516001600160a01b0383169033907f2b9ef93c7856b47a1b624fa3fcc4b651d388dd6d16327f3ad22b05f3da8b0f1590600090a35050565b612ce06000805160206140f383398151915233612023565b612cfc5760405162461bcd60e51b81526004016107bc90613ea3565b60fb5460ff1615612d1f5760405162461bcd60e51b81526004016107bc90613f1e565b6001600160a01b0381166000908152610109602052604090206002815460ff166003811115612d5e57634e487b7160e01b600052602160045260246000fd5b14612db95760405162461bcd60e51b815260206004820152602560248201527f436f6d6d756e6974793a3a756e6c6f636b42656e65666963696172793a204e4f6044820152641517d6515560da1b60648201526084016107bc565b612dc4816001613356565b6040516001600160a01b0383169033907fa589fb4f2925123e7a030dd6bbe76be46a03f8ce0ea53a78dbb3383c7797db2c90600090a35050565b6097546001600160a01b03163314612e285760405162461bcd60e51b81526004016107bc90613e6e565b610108546040516001600160a01b038084169216907fdd8d3b7b0badfc5d636d48e71e28015b4b8554b64d2cffba6f0a90bf7693ec0090600090a361010880546001600160a01b0319166001600160a01b038316908117909155610ab2906109a9565b60405162461bcd60e51b815260206004820152603b60248201527f436f6d6d756e6974793a3a7265766f6b65526f6c653a20596f7520617265206e60448201527f6f7420616c6c6f7720746f207573652074686973206d6574686f64000000000060648201526084016107bc565b600260c9541415612f1c5760405162461bcd60e51b81526004016107bc90613f3e565b600260c955612f40823083612f2f6108b3565b6001600160a01b0316929190613645565b806101026000828254612f539190613fe5565b909155505060405181815233907f0553260a2e46b0577270d8992db02d30856ca880144c72d6e9503760946aef139060200161149e565b600061094e61010a613683565b6097546001600160a01b03163314612fc15760405162461bcd60e51b81526004016107bc90613e6e565b6001600160a01b0381166130265760405162461bcd60e51b815260206004820152602660248201527f4f776e61626c653a206e6577206f776e657220697320746865207a65726f206160448201526564647265737360d01b60648201526084016107bc565b610ab2816135e7565b61010854604051636b0de23f60e01b81523060048201523360248201526001600160a01b0390911690636b0de23f9060440160206040518083038186803b15801561307957600080fd5b505afa15801561308d573d6000803e3d6000fd5b505050506040513d601f19601f820116820180604052508101906130b19190613bcd565b6130cd5760405162461bcd60e51b81526004016107bc90613e2b565b60fb805460ff1916600117905560405133907fe1e6bc10311f2f958d6cd2d0ab7308c32089aa1acb8ab11a2ccb60028e332bd090600090a2565b6131118282612023565b610b235760008281526065602090815260408083206001600160a01b03851684529091529020805460ff191660011790556131493390565b6001600160a01b0316816001600160a01b0316837f2f8788117e7eff1d82e926ec794901d17c78024a50270940304540a733656f0d60405160405180910390a45050565b6131978282612023565b15610b235760008281526065602090815260408083206001600160a01b0385168085529252808320805460ff1916905551339285917ff6391f5c32d9c69d2a47ea670b442974b53935d1edc7fd64eb21e047a839171b9190a45050565b600054610100900460ff1661321b5760405162461bcd60e51b81526004016107bc90613ed3565b61322361368d565b61322b61368d565b61186361368d565b600054610100900460ff1661325a5760405162461bcd60e51b81526004016107bc90613ed3565b61326261368d565b6118636136b4565b600054610100900460ff166132915760405162461bcd60e51b81526004016107bc90613ed3565b6118636136e4565b600082815260656020526040808220600101805490849055905190918391839186917fbd79b86ffe0ab8e8776151514217cd7cacd52c909f66475c3af44e129f0b00ff9190a4505050565b610b238282613107565b6040516001600160a01b03831660248201526044810182905261335190849063a9059cbb60e01b906064015b60408051601f198184030181529190526020810180516001600160e01b03166001600160e01b031990931692909217909152613712565b505050565b80600381111561337657634e487b7160e01b600052602160045260246000fd5b825460ff16600381111561339a57634e487b7160e01b600052602160045260246000fd5b14156133a4575050565b60018160038111156133c657634e487b7160e01b600052602160045260246000fd5b14156135405760fc546101035460ff546133e0919061403c565b101561344c5760405162461bcd60e51b815260206004820152603560248201527f436f6d6d756e6974793a3a5f6368616e676542656e656669636961727953746160448201527474653a204d617820636c61696d20746f6f206c6f7760581b60648201526084016107bc565b61010d541580613461575061010d5461010054105b61350a5760405162461bcd60e51b815260206004820152606860248201527f436f6d6d756e6974793a3a5f6368616e676542656e656669636961727953746160448201527f74653a205468697320636f6d6d756e697479206861732072656163686564207460648201527f6865206d6178696d756d206e756d626572206f662076616c69642062656e6566608482015267696369617269657360c01b60a482015260c4016107bc565b610100805490600061351b83614096565b91905055506101035460ff6000828254613535919061403c565b9091555061359d9050565b6001825460ff16600381111561356657634e487b7160e01b600052602160045260246000fd5b141561359d57610100805490600061357d8361407f565b91905055506101035460ff60008282546135979190613fe5565b90915550505b81548190839060ff191660018360038111156135c957634e487b7160e01b600052602160045260246000fd5b02179055505050565b600061278b836001600160a01b0384166137e4565b609780546001600160a01b038381166001600160a01b0319831681179093556040519116919082907f8be0079c531659141344cd1fd0a4f28419497f9722a3daafe3b4186f6b6457e090600090a35050565b600061278b8383613833565b6040516001600160a01b038085166024830152831660448201526064810182905261367d9085906323b872dd60e01b9060840161331a565b50505050565b600061078c825490565b600054610100900460ff166118635760405162461bcd60e51b81526004016107bc90613ed3565b600054610100900460ff166136db5760405162461bcd60e51b81526004016107bc90613ed3565b611863336135e7565b600054610100900460ff1661370b5760405162461bcd60e51b81526004016107bc90613ed3565b600160c955565b6000613767826040518060400160405280602081526020017f5361666545524332303a206c6f772d6c6576656c2063616c6c206661696c6564815250856001600160a01b031661386b9092919063ffffffff16565b80519091501561335157808060200190518101906137859190613bcd565b6133515760405162461bcd60e51b815260206004820152602a60248201527f5361666545524332303a204552433230206f7065726174696f6e20646964206e6044820152691bdd081cdd58d8d9595960b21b60648201526084016107bc565b600081815260018301602052604081205461382b5750815460018181018455600084815260208082209093018490558454848252828601909352604090209190915561078c565b50600061078c565b600082600001828154811061385857634e487b7160e01b600052603260045260246000fd5b9060005260206000200154905092915050565b606061387a8484600085613882565b949350505050565b6060824710156138e35760405162461bcd60e51b815260206004820152602660248201527f416464726573733a20696e73756666696369656e742062616c616e636520666f6044820152651c8818d85b1b60d21b60648201526084016107bc565b843b6139315760405162461bcd60e51b815260206004820152601d60248201527f416464726573733a2063616c6c20746f206e6f6e2d636f6e747261637400000060448201526064016107bc565b600080866001600160a01b0316858760405161394d9190613d9e565b60006040518083038185875af1925050503d806000811461398a576040519150601f19603f3d011682016040523d82523d6000602084013e61398f565b606091505b509150915061399f8282866139aa565b979650505050505050565b606083156139b957508161278b565b8251156139c95782518084602001fd5b8160405162461bcd60e51b81526004016107bc9190613df8565b80356139ee816140dd565b919050565b600082601f830112613a03578081fd5b8135602067ffffffffffffffff80831115613a2057613a206140c7565b8260051b604051601f19603f83011681018181108482111715613a4557613a456140c7565b60405284815283810192508684018288018501891015613a63578687fd5b8692505b85831015613a8c57613a78816139e3565b845292840192600192909201918401613a67565b50979650505050505050565b600060208284031215613aa9578081fd5b813561278b816140dd565b600060208284031215613ac5578081fd5b815161278b816140dd565b60008060408385031215613ae2578081fd5b8235613aed816140dd565b946020939093013593505050565b600060208284031215613b0c578081fd5b813567ffffffffffffffff811115613b22578182fd5b61387a848285016139f3565b6000806000806000806000806000806101408b8d031215613b4d578586fd5b8a3567ffffffffffffffff811115613b63578687fd5b613b6f8d828e016139f3565b9a505060208b0135985060408b0135975060608b0135965060808b0135955060a08b0135945060c08b0135935060e08b013592506101008b013591506101208b0135613bba816140dd565b809150509295989b9194979a5092959850565b600060208284031215613bde578081fd5b8151801515811461278b578182fd5b600060208284031215613bfe578081fd5b5035919050565b60008060408385031215613c17578182fd5b823591506020830135613c29816140dd565b809150509250929050565b600060208284031215613c45578081fd5b81356001600160e01b03198116811461278b578182fd5b600080600060608486031215613c70578081fd5b8335613c7b816140dd565b92506020840135613c8b816140dd565b929592945050506040919091013590565b60008060408385031215613cae578182fd5b8235613cb9816140dd565b9150602083013567ffffffffffffffff811115613cd4578182fd5b613ce0858286016139f3565b9150509250929050565b60008060008060808587031215613cff578182fd5b845160048110613d0d578283fd5b60208601516040870151606090970151919890975090945092505050565b600060208284031215613d3c578081fd5b5051919050565b60008060408385031215613d55578182fd5b50508035926020909101359150565b600080600080600060a08688031215613d7b578283fd5b505083359560208501359550604085013594606081013594506080013592509050565b60008251613db0818460208701614053565b9190910192915050565b6080810160048610613ddc57634e487b7160e01b600052602160045260246000fd5b9481526020810193909352604083019190915260609091015290565b6020815260008251806020840152613e17816040850160208701614053565b601f01601f19169190910160400192915050565b60208082526023908201527f436f6d6d756e6974793a204e4f545f414d4241535341444f525f4f525f454e5460408201526249545960e81b606082015260800190565b6020808252818101527f4f776e61626c653a2063616c6c6572206973206e6f7420746865206f776e6572604082015260600190565b60208082526016908201527521b7b6b6bab734ba3c9d102727aa2fa6a0a720a3a2a960511b604082015260600190565b6020808252602b908201527f496e697469616c697a61626c653a20636f6e7472616374206973206e6f74206960408201526a6e697469616c697a696e6760a81b606082015260800190565b6020808252600690820152651313d0d2d15160d21b604082015260600190565b6020808252601f908201527f5265656e7472616e637947756172643a207265656e7472616e742063616c6c00604082015260600190565b600060a082018783526020878185015260a0604085015281875180845260c0860191508289019350845b81811015613fc45784516001600160a01b031683529383019391830191600101613f9f565b50506001600160a01b03969096166060850152505050608001529392505050565b60008219821115613ff857613ff86140b1565b500190565b60008261401857634e487b7160e01b81526012600452602481fd5b500490565b6000816000190483118215151615614037576140376140b1565b500290565b60008282101561404e5761404e6140b1565b500390565b60005b8381101561406e578181015183820152602001614056565b8381111561367d5750506000910152565b60008161408e5761408e6140b1565b506000190190565b60006000198214156140aa576140aa6140b1565b5060010190565b634e487b7160e01b600052601160045260246000fd5b634e487b7160e01b600052604160045260246000fd5b6001600160a01b0381168114610ab257600080fdfe241ecf16d79d0f8dbfb92cbc07fe17840425976cf0667f022fe9877caa831b08a2646970667358221220bcc65317a57f6d3196691254ee4a18d9feaea3c2bfc914440f5fca740a32c57864736f6c63430008040033",
  "devdoc": {
    "events": {
      "BeneficiaryAdded(address,address)": {
        "params": {
          "beneficiary": "Address of the beneficiary that has been added",
          "manager": "Address of the manager that triggered the event"
        }
      },
      "BeneficiaryClaim(address,uint256)": {
        "params": {
          "amount": "Amount of the claim",
          "beneficiary": "Address of the beneficiary that has claimed"
        }
      },
      "BeneficiaryJoined(address)": {
        "params": {
          "beneficiary": "Address of the beneficiary"
        }
      },
      "BeneficiaryLocked(address,address)": {
        "params": {
          "beneficiary": "Address of the beneficiary that has been locked",
          "manager": "Address of the manager that triggered the event"
        }
      },
      "BeneficiaryParamsUpdated(uint256,uint256,uint256,uint256,uint256,uint256,uint256,uint256,uint256,uint256)": {
        "params": {
          "newBaseInterval": "New baseInterval value",
          "newClaimAmount": "New claimAmount value",
          "newDecreaseStep": "New decreaseStep value",
          "newIncrementInterval": "New incrementInterval value For further information regarding each parameter, see *Community* smart contract initialize method.",
          "newMaxClaim": "New maxClaim value",
          "oldBaseInterval": "Old baseInterval value",
          "oldClaimAmount": "Old claimAmount value",
          "oldDecreaseStep": "Old decreaseStep value",
          "oldIncrementInterval": "Old incrementInterval value",
          "oldMaxClaim": "Old maxClaim value"
        }
      },
      "BeneficiaryRemoved(address,address)": {
        "params": {
          "beneficiary": "Address of the beneficiary that has been removed",
          "manager": "Address of the manager that triggered the event"
        }
      },
      "BeneficiaryUnlocked(address,address)": {
        "params": {
          "beneficiary": "Address of the beneficiary that has been unlocked",
          "manager": "Address of the manager that triggered the event"
        }
      },
      "CommunityAdminUpdated(address,address)": {
        "params": {
          "newCommunityAdmin": "New communityAdmin address",
          "oldCommunityAdmin": "Old communityAdmin address"
        }
      },
      "CommunityLocked(address)": {
        "params": {
          "manager": "Address of the manager that triggered the event"
        }
      },
      "CommunityParamsUpdated(uint256,uint256,uint256,uint256)": {
        "params": {
          "newMaxTranche": "New maxTranche value For further information regarding each parameter, see *Community* smart contract initialize method.",
          "newMinTranche": "New minTranche value",
          "oldMaxTranche": "Old maxTranche value",
          "oldMinTranche": "Old minTranche value"
        }
      },
      "CommunityUnlocked(address)": {
        "params": {
          "manager": "Address of the manager that triggered the event"
        }
      },
      "Donate(address,uint256)": {
        "params": {
          "amount": "Amount of the donation",
          "donor": "Address of the donor"
        }
      },
      "FundsRequested(address)": {
        "params": {
          "manager": "Address of the manager that triggered the event"
        }
      },
      "ManagerAdded(address,address)": {
        "params": {
          "account": "Address of the manager that has been added",
          "manager": "Address of the manager that triggered the event                          or address of the CommunityAdmin if it's first manager"
        }
      },
      "ManagerRemoved(address,address)": {
        "params": {
          "account": "Address of the manager that has been removed",
          "manager": "Address of the manager that triggered the event"
        }
      },
      "MaxBeneficiariesUpdated(uint256,uint256)": {
        "params": {
          "newMaxBeneficiaries": "New maxBeneficiaries value",
          "oldMaxBeneficiaries": "Old maxBeneficiaries value"
        }
      },
      "PreviousCommunityUpdated(address,address)": {
        "params": {
          "newPreviousCommunity": "New previousCommunity address",
          "oldPreviousCommunity": "Old previousCommunity address"
        }
      },
      "TokenUpdated(address,address)": {
        "params": {
          "newTokenAddress": "New token address",
          "oldTokenAddress": "Old token address"
        }
      },
      "TransferERC20(address,address,uint256)": {
        "params": {
          "amount": "Amount of the transaction",
          "to": "Address of the receiver",
          "token": "ERC20 token address"
        }
      }
    },
    "kind": "dev",
    "methods": {
      "addBeneficiaries(address[])": {
        "params": {
          "_beneficiaryAddresses": "addresses of the beneficiaries to be added"
        }
      },
      "addManager(address)": {
        "params": {
          "_account": "address of the manager to be added"
        }
      },
      "addTreasuryFunds(uint256)": {
        "params": {
          "_amount": "amount to be added to treasuryFunds"
        }
      },
      "beneficiaryListAt(uint256)": {
        "params": {
          "index_": "index value"
        },
        "returns": {
          "_0": "address of the beneficiary"
        }
      },
      "claim()": {
        "details": "Transfers tokens to a valid beneficiary"
      },
      "claimCooldown(address)": {
        "params": {
          "_beneficiaryAddress": "address of the beneficiary"
        },
        "returns": {
          "_0": "uint256 number of block when the beneficiary can claim"
        }
      },
      "donate(address,uint256)": {
        "params": {
          "_amount": "amount to be donated",
          "_sender": "address of the sender"
        }
      },
      "getRoleAdmin(bytes32)": {
        "details": "Returns the admin role that controls `role`. See {grantRole} and {revokeRole}. To change a role's admin, use {_setRoleAdmin}."
      },
      "hasRole(bytes32,address)": {
        "details": "Returns `true` if `account` has been granted `role`."
      },
      "initialize(address[],uint256,uint256,uint256,uint256,uint256,uint256,uint256,uint256,address)": {
        "params": {
          "_baseInterval": "Base interval to start claiming",
          "_claimAmount": "Base amount to be claim by the beneficiary",
          "_decreaseStep": "Value decreased from maxClaim each time a beneficiary is added",
          "_incrementInterval": "Increment interval used in each claim",
          "_managers": "Community's initial managers.                             Will be able to add others",
          "_maxBeneficiaries": "Maximum valid beneficiaries number",
          "_maxClaim": "Limit that a beneficiary can claim in total",
          "_maxTranche": "Maximum amount that the community will receive when requesting funds",
          "_minTranche": "Minimum amount that the community will receive when requesting funds",
          "_previousCommunity": "Previous smart contract address of community"
        }
      },
      "lastInterval(address)": {
        "params": {
          "_beneficiaryAddress": "address of the beneficiary"
        },
        "returns": {
          "_0": "uint256 number of blocks for the lastInterval"
        }
      },
      "lockBeneficiary(address)": {
        "params": {
          "_beneficiaryAddress": "address of the beneficiary to be locked"
        }
      },
      "owner()": {
        "details": "Returns the address of the current owner."
      },
      "removeBeneficiary(address)": {
        "params": {
          "_beneficiaryAddress": "address of the beneficiary to be removed"
        }
      },
      "removeManager(address)": {
        "params": {
          "_account": "address of the manager to be removed"
        }
      },
      "renounceOwnership()": {
        "details": "Leaves the contract without owner. It will not be possible to call `onlyOwner` functions anymore. Can only be called by the current owner. NOTE: Renouncing ownership will leave the contract without an owner, thereby removing any functionality that is only available to the owner."
      },
      "renounceRole(bytes32,address)": {
        "details": "Revokes `role` from the calling account. Roles are often managed via {grantRole} and {revokeRole}: this function's purpose is to provide a mechanism for accounts to lose their privileges if they are compromised (such as when a trusted device is misplaced). If the calling account had been revoked `role`, emits a {RoleRevoked} event. Requirements: - the caller must be `account`."
      },
      "supportsInterface(bytes4)": {
        "details": "See {IERC165-supportsInterface}."
      },
      "transfer(address,address,uint256)": {
        "params": {
          "_amount": "amount of the transaction",
          "_to": "address of the receiver",
          "_token": "address of the ERC20 token"
        }
      },
      "transferOwnership(address)": {
        "details": "Transfers ownership of the contract to a new account (`newOwner`). Can only be called by the current owner."
      },
      "unlockBeneficiary(address)": {
        "params": {
          "_beneficiaryAddress": "address of the beneficiary to be unlocked"
        }
      },
      "updateBeneficiaryParams(uint256,uint256,uint256,uint256,uint256)": {
        "params": {
          "_baseInterval": "base interval to start claiming",
          "_claimAmount": "base amount to be claim by the beneficiary",
          "_decreaseStep": "value decreased from maxClaim each time a is beneficiary added",
          "_incrementInterval": "increment interval used in each claim",
          "_maxClaim": "limit that a beneficiary can claim  in total"
        }
      },
      "updateCommunityAdmin(address)": {
        "params": {
          "_newCommunityAdmin": "address of the new communityAdmin"
        }
      },
      "updateCommunityParams(uint256,uint256)": {
        "params": {
          "_maxTranche": "maximum amount that the community will receive when requesting funds",
          "_minTranche": "minimum amount that the community will receive when requesting funds"
        }
      },
      "updateMaxBeneficiaries(uint256)": {
        "params": {
          "_newMaxBeneficiaries": "new _maxBeneficiaries value"
        }
      },
      "updatePreviousCommunity(address)": {
        "params": {
          "_newPreviousCommunity": "address of the new previousCommunity"
        }
      },
      "updateToken(address,address[])": {
        "params": {
          "_exchangePath": "path used by uniswap to exchange the current tokens to the new tokens",
          "_newToken": "new token address"
        }
      }
    },
    "version": 1
  },
  "userdoc": {
    "events": {
      "BeneficiaryAdded(address,address)": {
        "notice": "Triggered when a beneficiary has been added"
      },
      "BeneficiaryClaim(address,uint256)": {
        "notice": "Triggered when a beneficiary has claimed"
      },
      "BeneficiaryJoined(address)": {
        "notice": "Triggered when a beneficiary from previous community has joined in the current community"
      },
      "BeneficiaryLocked(address,address)": {
        "notice": "Triggered when a beneficiary has been locked"
      },
      "BeneficiaryParamsUpdated(uint256,uint256,uint256,uint256,uint256,uint256,uint256,uint256,uint256,uint256)": {
        "notice": "Triggered when beneficiary params has been updated"
      },
      "BeneficiaryRemoved(address,address)": {
        "notice": "Triggered when a beneficiary has been removed"
      },
      "BeneficiaryUnlocked(address,address)": {
        "notice": "Triggered when a beneficiary has been unlocked"
      },
      "CommunityAdminUpdated(address,address)": {
        "notice": "Triggered when communityAdmin has been updated"
      },
      "CommunityLocked(address)": {
        "notice": "Triggered when a community has been locked"
      },
      "CommunityParamsUpdated(uint256,uint256,uint256,uint256)": {
        "notice": "Triggered when community params has been updated"
      },
      "CommunityUnlocked(address)": {
        "notice": "Triggered when a community has been unlocked"
      },
      "Donate(address,uint256)": {
        "notice": "Triggered when someone has donated token"
      },
      "FundsRequested(address)": {
        "notice": "Triggered when a manager has requested funds for community"
      },
      "ManagerAdded(address,address)": {
        "notice": "Triggered when a manager has been added"
      },
      "ManagerRemoved(address,address)": {
        "notice": "Triggered when a manager has been removed"
      },
      "MaxBeneficiariesUpdated(uint256,uint256)": {
        "notice": "Triggered when maxBeneficiaries has been updated"
      },
      "PreviousCommunityUpdated(address,address)": {
        "notice": "Triggered when previousCommunity has been updated"
      },
      "TokenUpdated(address,address)": {
        "notice": "Triggered when token address has been updated"
      },
      "TransferERC20(address,address,uint256)": {
        "notice": "Triggered when an amount of an ERC20 has been transferred from this contract to an address"
      }
    },
    "kind": "user",
    "methods": {
      "addBeneficiaries(address[])": {
        "notice": "Adds new beneficiaries"
      },
      "addManager(address)": {
        "notice": "Adds a new manager"
      },
      "addTreasuryFunds(uint256)": {
        "notice": "Increases the treasuryFunds value Used by communityAdmin after an amount of tokens are sent from the treasury"
      },
      "beneficiaryJoinFromMigrated(address)": {
        "notice": "Allows a beneficiary from the previousCommunity to join in this community"
      },
      "beneficiaryListAt(uint256)": {
        "notice": "Returns an address from the beneficiaryList"
      },
      "beneficiaryListLength()": {
        "notice": "Returns the length of the beneficiaryList"
      },
      "cUSD()": {
        "notice": "Returns the cUSD contract address todo: to be removed, use token() instead"
      },
      "claimCooldown(address)": {
        "notice": "Returns the block number when a beneficiary can claim again"
      },
      "donate(address,uint256)": {
        "notice": "Transfers tokens from donor to this community Used by donationToCommunity method from DonationMiner contract"
      },
      "getInitialMaxClaim()": {
        "notice": "Returns the initial maxClaim"
      },
      "getVersion()": {
        "notice": "Returns the current implementation version"
      },
      "grantRole(bytes32,address)": {
        "notice": "Enforces managers to use addManager method"
      },
      "impactMarketAddress()": {
        "notice": "Returns the 0 address only used for backwards compatibility"
      },
      "initialize(address[],uint256,uint256,uint256,uint256,uint256,uint256,uint256,uint256,address)": {
        "notice": "Used to initialize a new Community contract"
      },
      "lastInterval(address)": {
        "notice": "Returns the number of blocks that a beneficiary have to wait between claims"
      },
      "lock()": {
        "notice": "Locks the community"
      },
      "lockBeneficiary(address)": {
        "notice": "Locks a valid beneficiary"
      },
      "removeBeneficiary(address)": {
        "notice": "Remove an existing beneficiary"
      },
      "removeManager(address)": {
        "notice": "Remove an existing manager"
      },
      "requestFunds()": {
        "notice": "Requests treasury funds from the communityAdmin"
      },
      "revokeRole(bytes32,address)": {
        "notice": "Enforces managers to use removeManager method"
      },
      "token()": {
        "notice": "Returns the address of the token used by this community"
      },
      "transfer(address,address,uint256)": {
        "notice": "Transfers an amount of an ERC20 from this contract to an address"
      },
      "unlock()": {
        "notice": "Unlocks the community"
      },
      "unlockBeneficiary(address)": {
        "notice": "Unlocks a locked beneficiary"
      },
      "updateBeneficiaryParams(uint256,uint256,uint256,uint256,uint256)": {
        "notice": "Updates beneficiary params"
      },
      "updateCommunityAdmin(address)": {
        "notice": "Updates the address of the communityAdmin"
      },
      "updateCommunityParams(uint256,uint256)": {
        "notice": "Updates params of a community"
      },
      "updateMaxBeneficiaries(uint256)": {
        "notice": "Updates maxBeneficiaries"
      },
      "updatePreviousCommunity(address)": {
        "notice": "Updates the address of the previousCommunity"
      },
      "updateToken(address,address[])": {
        "notice": "Updates token address"
      }
    },
    "notice": "Welcome to the Community contract. For each community there will be one proxy contract deployed by CommunityAdmin. The implementation of the proxy is this contract. This enable us to save tokens on the contract itself, and avoid the problems of having everything in one single contract. Each community has it's own members and and managers.",
    "version": 1
  },
  "storageLayout": {
    "storage": [
      {
        "astId": 542,
        "contract": "contracts/community/CommunityImplementation.sol:CommunityImplementation",
        "label": "_initialized",
        "offset": 0,
        "slot": "0",
        "type": "t_bool"
      },
      {
        "astId": 545,
        "contract": "contracts/community/CommunityImplementation.sol:CommunityImplementation",
        "label": "_initializing",
        "offset": 1,
        "slot": "0",
        "type": "t_bool"
      },
      {
        "astId": 1068,
        "contract": "contracts/community/CommunityImplementation.sol:CommunityImplementation",
        "label": "__gap",
        "offset": 0,
        "slot": "1",
        "type": "t_array(t_uint256)50_storage"
      },
      {
        "astId": 1317,
        "contract": "contracts/community/CommunityImplementation.sol:CommunityImplementation",
        "label": "__gap",
        "offset": 0,
        "slot": "51",
        "type": "t_array(t_uint256)50_storage"
      },
      {
        "astId": 48,
        "contract": "contracts/community/CommunityImplementation.sol:CommunityImplementation",
        "label": "_roles",
        "offset": 0,
        "slot": "101",
        "type": "t_mapping(t_bytes32,t_struct(RoleData)43_storage)"
      },
      {
        "astId": 335,
        "contract": "contracts/community/CommunityImplementation.sol:CommunityImplementation",
        "label": "__gap",
        "offset": 0,
        "slot": "102",
        "type": "t_array(t_uint256)49_storage"
      },
      {
        "astId": 420,
        "contract": "contracts/community/CommunityImplementation.sol:CommunityImplementation",
        "label": "_owner",
        "offset": 0,
        "slot": "151",
        "type": "t_address"
      },
      {
        "astId": 534,
        "contract": "contracts/community/CommunityImplementation.sol:CommunityImplementation",
        "label": "__gap",
        "offset": 0,
        "slot": "152",
        "type": "t_array(t_uint256)49_storage"
      },
      {
        "astId": 736,
        "contract": "contracts/community/CommunityImplementation.sol:CommunityImplementation",
        "label": "_status",
        "offset": 0,
        "slot": "201",
        "type": "t_uint256"
      },
      {
        "astId": 779,
        "contract": "contracts/community/CommunityImplementation.sol:CommunityImplementation",
        "label": "__gap",
        "offset": 0,
        "slot": "202",
        "type": "t_array(t_uint256)49_storage"
      },
      {
        "astId": 11477,
        "contract": "contracts/community/CommunityImplementation.sol:CommunityImplementation",
        "label": "locked",
        "offset": 0,
        "slot": "251",
        "type": "t_bool"
      },
      {
        "astId": 11480,
        "contract": "contracts/community/CommunityImplementation.sol:CommunityImplementation",
        "label": "claimAmount",
        "offset": 0,
        "slot": "252",
        "type": "t_uint256"
      },
      {
        "astId": 11483,
        "contract": "contracts/community/CommunityImplementation.sol:CommunityImplementation",
        "label": "baseInterval",
        "offset": 0,
        "slot": "253",
        "type": "t_uint256"
      },
      {
        "astId": 11486,
        "contract": "contracts/community/CommunityImplementation.sol:CommunityImplementation",
        "label": "incrementInterval",
        "offset": 0,
        "slot": "254",
        "type": "t_uint256"
      },
      {
        "astId": 11489,
        "contract": "contracts/community/CommunityImplementation.sol:CommunityImplementation",
        "label": "maxClaim",
        "offset": 0,
        "slot": "255",
        "type": "t_uint256"
      },
      {
        "astId": 11492,
        "contract": "contracts/community/CommunityImplementation.sol:CommunityImplementation",
        "label": "validBeneficiaryCount",
        "offset": 0,
        "slot": "256",
        "type": "t_uint256"
      },
      {
        "astId": 11495,
        "contract": "contracts/community/CommunityImplementation.sol:CommunityImplementation",
        "label": "treasuryFunds",
        "offset": 0,
        "slot": "257",
        "type": "t_uint256"
      },
      {
        "astId": 11498,
        "contract": "contracts/community/CommunityImplementation.sol:CommunityImplementation",
        "label": "privateFunds",
        "offset": 0,
        "slot": "258",
        "type": "t_uint256"
      },
      {
        "astId": 11501,
        "contract": "contracts/community/CommunityImplementation.sol:CommunityImplementation",
        "label": "decreaseStep",
        "offset": 0,
        "slot": "259",
        "type": "t_uint256"
      },
      {
        "astId": 11504,
        "contract": "contracts/community/CommunityImplementation.sol:CommunityImplementation",
        "label": "minTranche",
        "offset": 0,
        "slot": "260",
        "type": "t_uint256"
      },
      {
        "astId": 11507,
        "contract": "contracts/community/CommunityImplementation.sol:CommunityImplementation",
        "label": "maxTranche",
        "offset": 0,
        "slot": "261",
        "type": "t_uint256"
      },
      {
        "astId": 11510,
        "contract": "contracts/community/CommunityImplementation.sol:CommunityImplementation",
        "label": "lastFundRequest",
        "offset": 0,
        "slot": "262",
        "type": "t_uint256"
      },
      {
        "astId": 11514,
        "contract": "contracts/community/CommunityImplementation.sol:CommunityImplementation",
        "label": "previousCommunity",
        "offset": 0,
        "slot": "263",
        "type": "t_contract(ICommunity)11847"
      },
      {
        "astId": 11518,
        "contract": "contracts/community/CommunityImplementation.sol:CommunityImplementation",
        "label": "communityAdmin",
        "offset": 0,
        "slot": "264",
        "type": "t_contract(ICommunityAdmin)12077"
      },
      {
        "astId": 11524,
        "contract": "contracts/community/CommunityImplementation.sol:CommunityImplementation",
        "label": "beneficiaries",
        "offset": 0,
        "slot": "265",
        "type": "t_mapping(t_address,t_struct(Beneficiary)11561_storage)"
      },
      {
        "astId": 11527,
        "contract": "contracts/community/CommunityImplementation.sol:CommunityImplementation",
        "label": "beneficiaryList",
        "offset": 0,
        "slot": "266",
        "type": "t_struct(AddressSet)5037_storage"
      },
      {
        "astId": 11537,
        "contract": "contracts/community/CommunityImplementation.sol:CommunityImplementation",
        "label": "_token",
        "offset": 0,
        "slot": "268",
        "type": "t_contract(IERC20)3447"
      },
      {
        "astId": 11540,
        "contract": "contracts/community/CommunityImplementation.sol:CommunityImplementation",
        "label": "maxBeneficiaries",
        "offset": 0,
        "slot": "269",
        "type": "t_uint256"
      }
    ],
    "types": {
      "t_address": {
        "encoding": "inplace",
        "label": "address",
        "numberOfBytes": "20"
      },
      "t_array(t_bytes32)dyn_storage": {
        "base": "t_bytes32",
        "encoding": "dynamic_array",
        "label": "bytes32[]",
        "numberOfBytes": "32"
      },
      "t_array(t_uint256)49_storage": {
        "base": "t_uint256",
        "encoding": "inplace",
        "label": "uint256[49]",
        "numberOfBytes": "1568"
      },
      "t_array(t_uint256)50_storage": {
        "base": "t_uint256",
        "encoding": "inplace",
        "label": "uint256[50]",
        "numberOfBytes": "1600"
      },
      "t_bool": {
        "encoding": "inplace",
        "label": "bool",
        "numberOfBytes": "1"
      },
      "t_bytes32": {
        "encoding": "inplace",
        "label": "bytes32",
        "numberOfBytes": "32"
      },
      "t_contract(ICommunity)11847": {
        "encoding": "inplace",
        "label": "contract ICommunity",
        "numberOfBytes": "20"
      },
      "t_contract(ICommunityAdmin)12077": {
        "encoding": "inplace",
        "label": "contract ICommunityAdmin",
        "numberOfBytes": "20"
      },
      "t_contract(IERC20)3447": {
        "encoding": "inplace",
        "label": "contract IERC20",
        "numberOfBytes": "20"
      },
      "t_enum(BeneficiaryState)11551": {
        "encoding": "inplace",
        "label": "enum ICommunity.BeneficiaryState",
        "numberOfBytes": "1"
      },
      "t_mapping(t_address,t_bool)": {
        "encoding": "mapping",
        "key": "t_address",
        "label": "mapping(address => bool)",
        "numberOfBytes": "32",
        "value": "t_bool"
      },
      "t_mapping(t_address,t_struct(Beneficiary)11561_storage)": {
        "encoding": "mapping",
        "key": "t_address",
        "label": "mapping(address => struct ICommunity.Beneficiary)",
        "numberOfBytes": "32",
        "value": "t_struct(Beneficiary)11561_storage"
      },
      "t_mapping(t_bytes32,t_struct(RoleData)43_storage)": {
        "encoding": "mapping",
        "key": "t_bytes32",
        "label": "mapping(bytes32 => struct AccessControlUpgradeable.RoleData)",
        "numberOfBytes": "32",
        "value": "t_struct(RoleData)43_storage"
      },
      "t_mapping(t_bytes32,t_uint256)": {
        "encoding": "mapping",
        "key": "t_bytes32",
        "label": "mapping(bytes32 => uint256)",
        "numberOfBytes": "32",
        "value": "t_uint256"
      },
      "t_struct(AddressSet)5037_storage": {
        "encoding": "inplace",
        "label": "struct EnumerableSet.AddressSet",
        "members": [
          {
            "astId": 5036,
            "contract": "contracts/community/CommunityImplementation.sol:CommunityImplementation",
            "label": "_inner",
            "offset": 0,
            "slot": "0",
            "type": "t_struct(Set)4736_storage"
          }
        ],
        "numberOfBytes": "64"
      },
      "t_struct(Beneficiary)11561_storage": {
        "encoding": "inplace",
        "label": "struct ICommunity.Beneficiary",
        "members": [
          {
            "astId": 11554,
            "contract": "contracts/community/CommunityImplementation.sol:CommunityImplementation",
            "label": "state",
            "offset": 0,
            "slot": "0",
            "type": "t_enum(BeneficiaryState)11551"
          },
          {
            "astId": 11556,
            "contract": "contracts/community/CommunityImplementation.sol:CommunityImplementation",
            "label": "claims",
            "offset": 0,
            "slot": "1",
            "type": "t_uint256"
          },
          {
            "astId": 11558,
            "contract": "contracts/community/CommunityImplementation.sol:CommunityImplementation",
            "label": "claimedAmount",
            "offset": 0,
            "slot": "2",
            "type": "t_uint256"
          },
          {
            "astId": 11560,
            "contract": "contracts/community/CommunityImplementation.sol:CommunityImplementation",
            "label": "lastClaim",
            "offset": 0,
            "slot": "3",
            "type": "t_uint256"
          }
        ],
        "numberOfBytes": "128"
      },
      "t_struct(RoleData)43_storage": {
        "encoding": "inplace",
        "label": "struct AccessControlUpgradeable.RoleData",
        "members": [
          {
            "astId": 40,
            "contract": "contracts/community/CommunityImplementation.sol:CommunityImplementation",
            "label": "members",
            "offset": 0,
            "slot": "0",
            "type": "t_mapping(t_address,t_bool)"
          },
          {
            "astId": 42,
            "contract": "contracts/community/CommunityImplementation.sol:CommunityImplementation",
            "label": "adminRole",
            "offset": 0,
            "slot": "1",
            "type": "t_bytes32"
          }
        ],
        "numberOfBytes": "64"
      },
      "t_struct(Set)4736_storage": {
        "encoding": "inplace",
        "label": "struct EnumerableSet.Set",
        "members": [
          {
            "astId": 4731,
            "contract": "contracts/community/CommunityImplementation.sol:CommunityImplementation",
            "label": "_values",
            "offset": 0,
            "slot": "0",
            "type": "t_array(t_bytes32)dyn_storage"
          },
          {
            "astId": 4735,
            "contract": "contracts/community/CommunityImplementation.sol:CommunityImplementation",
            "label": "_indexes",
            "offset": 0,
            "slot": "1",
            "type": "t_mapping(t_bytes32,t_uint256)"
          }
        ],
        "numberOfBytes": "64"
      },
      "t_uint256": {
        "encoding": "inplace",
        "label": "uint256",
        "numberOfBytes": "32"
      }
    }
  }
}