{
  "address": "0x02c79D1d360732e23Cf135996E91E10fC0C5e23e",
  "abi": [
    {
      "anonymous": false,
      "inputs": [
        {
          "indexed": true,
          "internalType": "address",
          "name": "manager",
          "type": "address"
        },
        {
          "indexed": true,
          "internalType": "address",
          "name": "beneficiary",
          "type": "address"
        }
      ],
      "name": "BeneficiaryAdded",
      "type": "event"
    },
    {
      "anonymous": false,
      "inputs": [
        {
          "indexed": true,
          "internalType": "address",
          "name": "beneficiary",
          "type": "address"
        },
        {
          "indexed": false,
          "internalType": "uint256",
          "name": "amount",
          "type": "uint256"
        }
      ],
      "name": "BeneficiaryClaim",
      "type": "event"
    },
    {
      "anonymous": false,
      "inputs": [
        {
          "indexed": true,
          "internalType": "address",
          "name": "beneficiary",
          "type": "address"
        }
      ],
      "name": "BeneficiaryJoined",
      "type": "event"
    },
    {
      "anonymous": false,
      "inputs": [
        {
          "indexed": true,
          "internalType": "address",
          "name": "manager",
          "type": "address"
        },
        {
          "indexed": true,
          "internalType": "address",
          "name": "beneficiary",
          "type": "address"
        }
      ],
      "name": "BeneficiaryLocked",
      "type": "event"
    },
    {
      "anonymous": false,
      "inputs": [
        {
          "indexed": false,
          "internalType": "uint256",
          "name": "oldOriginalClaimAmount",
          "type": "uint256"
        },
        {
          "indexed": false,
          "internalType": "uint256",
          "name": "oldMaxTotalClaim",
          "type": "uint256"
        },
        {
          "indexed": false,
          "internalType": "uint256",
          "name": "oldDecreaseStep",
          "type": "uint256"
        },
        {
          "indexed": false,
          "internalType": "uint256",
          "name": "oldBaseInterval",
          "type": "uint256"
        },
        {
          "indexed": false,
          "internalType": "uint256",
          "name": "oldIncrementInterval",
          "type": "uint256"
        },
        {
          "indexed": false,
          "internalType": "uint256",
          "name": "newOriginalClaimAmount",
          "type": "uint256"
        },
        {
          "indexed": false,
          "internalType": "uint256",
          "name": "newMaxTotalClaim",
          "type": "uint256"
        },
        {
          "indexed": false,
          "internalType": "uint256",
          "name": "newDecreaseStep",
          "type": "uint256"
        },
        {
          "indexed": false,
          "internalType": "uint256",
          "name": "newBaseInterval",
          "type": "uint256"
        },
        {
          "indexed": false,
          "internalType": "uint256",
          "name": "newIncrementInterval",
          "type": "uint256"
        }
      ],
      "name": "BeneficiaryParamsUpdated",
      "type": "event"
    },
    {
      "anonymous": false,
      "inputs": [
        {
          "indexed": true,
          "internalType": "address",
          "name": "manager",
          "type": "address"
        },
        {
          "indexed": true,
          "internalType": "address",
          "name": "beneficiary",
          "type": "address"
        }
      ],
      "name": "BeneficiaryRemoved",
      "type": "event"
    },
    {
      "anonymous": false,
      "inputs": [
        {
          "indexed": true,
          "internalType": "address",
          "name": "manager",
          "type": "address"
        },
        {
          "indexed": true,
          "internalType": "address",
          "name": "beneficiary",
          "type": "address"
        }
      ],
      "name": "BeneficiaryUnlocked",
      "type": "event"
    },
    {
      "anonymous": false,
      "inputs": [
        {
          "indexed": false,
          "internalType": "uint256",
          "name": "oldClaimAmount",
          "type": "uint256"
        },
        {
          "indexed": false,
          "internalType": "uint256",
          "name": "newClaimAmount",
          "type": "uint256"
        }
      ],
      "name": "ClaimAmountUpdated",
      "type": "event"
    },
    {
      "anonymous": false,
      "inputs": [
        {
          "indexed": true,
          "internalType": "address",
          "name": "oldCommunityAdmin",
          "type": "address"
        },
        {
          "indexed": true,
          "internalType": "address",
          "name": "newCommunityAdmin",
          "type": "address"
        }
      ],
      "name": "CommunityAdminUpdated",
      "type": "event"
    },
    {
      "anonymous": false,
      "inputs": [
        {
          "indexed": true,
          "internalType": "address",
          "name": "manager",
          "type": "address"
        }
      ],
      "name": "CommunityLocked",
      "type": "event"
    },
    {
      "anonymous": false,
      "inputs": [
        {
          "indexed": false,
          "internalType": "uint256",
          "name": "oldMinTranche",
          "type": "uint256"
        },
        {
          "indexed": false,
          "internalType": "uint256",
          "name": "oldMaxTranche",
          "type": "uint256"
        },
        {
          "indexed": false,
          "internalType": "uint256",
          "name": "newMinTranche",
          "type": "uint256"
        },
        {
          "indexed": false,
          "internalType": "uint256",
          "name": "newMaxTranche",
          "type": "uint256"
        }
      ],
      "name": "CommunityParamsUpdated",
      "type": "event"
    },
    {
      "anonymous": false,
      "inputs": [
        {
          "indexed": true,
          "internalType": "address",
          "name": "manager",
          "type": "address"
        }
      ],
      "name": "CommunityUnlocked",
      "type": "event"
    },
    {
      "anonymous": false,
      "inputs": [
        {
          "indexed": true,
          "internalType": "address",
          "name": "donor",
          "type": "address"
        },
        {
          "indexed": false,
          "internalType": "uint256",
          "name": "amount",
          "type": "uint256"
        }
      ],
      "name": "Donate",
      "type": "event"
    },
    {
      "anonymous": false,
      "inputs": [
        {
          "indexed": true,
          "internalType": "address",
          "name": "manager",
          "type": "address"
        }
      ],
      "name": "FundsRequested",
      "type": "event"
    },
    {
      "anonymous": false,
      "inputs": [
        {
          "indexed": true,
          "internalType": "address",
          "name": "manager",
          "type": "address"
        },
        {
          "indexed": true,
          "internalType": "address",
          "name": "account",
          "type": "address"
        }
      ],
      "name": "ManagerAdded",
      "type": "event"
    },
    {
      "anonymous": false,
      "inputs": [
        {
          "indexed": true,
          "internalType": "address",
          "name": "manager",
          "type": "address"
        },
        {
          "indexed": true,
          "internalType": "address",
          "name": "account",
          "type": "address"
        }
      ],
      "name": "ManagerRemoved",
      "type": "event"
    },
    {
      "anonymous": false,
      "inputs": [
        {
          "indexed": false,
          "internalType": "uint256",
          "name": "oldMaxBeneficiaries",
          "type": "uint256"
        },
        {
          "indexed": false,
          "internalType": "uint256",
          "name": "newMaxBeneficiaries",
          "type": "uint256"
        }
      ],
      "name": "MaxBeneficiariesUpdated",
      "type": "event"
    },
    {
      "anonymous": false,
      "inputs": [
        {
          "indexed": true,
          "internalType": "address",
          "name": "previousOwner",
          "type": "address"
        },
        {
          "indexed": true,
          "internalType": "address",
          "name": "newOwner",
          "type": "address"
        }
      ],
      "name": "OwnershipTransferred",
      "type": "event"
    },
    {
      "anonymous": false,
      "inputs": [
        {
          "indexed": true,
          "internalType": "address",
          "name": "oldPreviousCommunity",
          "type": "address"
        },
        {
          "indexed": true,
          "internalType": "address",
          "name": "newPreviousCommunity",
          "type": "address"
        }
      ],
      "name": "PreviousCommunityUpdated",
      "type": "event"
    },
    {
      "anonymous": false,
      "inputs": [
        {
          "indexed": true,
          "internalType": "bytes32",
          "name": "role",
          "type": "bytes32"
        },
        {
          "indexed": true,
          "internalType": "bytes32",
          "name": "previousAdminRole",
          "type": "bytes32"
        },
        {
          "indexed": true,
          "internalType": "bytes32",
          "name": "newAdminRole",
          "type": "bytes32"
        }
      ],
      "name": "RoleAdminChanged",
      "type": "event"
    },
    {
      "anonymous": false,
      "inputs": [
        {
          "indexed": true,
          "internalType": "bytes32",
          "name": "role",
          "type": "bytes32"
        },
        {
          "indexed": true,
          "internalType": "address",
          "name": "account",
          "type": "address"
        },
        {
          "indexed": true,
          "internalType": "address",
          "name": "sender",
          "type": "address"
        }
      ],
      "name": "RoleGranted",
      "type": "event"
    },
    {
      "anonymous": false,
      "inputs": [
        {
          "indexed": true,
          "internalType": "bytes32",
          "name": "role",
          "type": "bytes32"
        },
        {
          "indexed": true,
          "internalType": "address",
          "name": "account",
          "type": "address"
        },
        {
          "indexed": true,
          "internalType": "address",
          "name": "sender",
          "type": "address"
        }
      ],
      "name": "RoleRevoked",
      "type": "event"
    },
    {
      "anonymous": false,
      "inputs": [
        {
          "indexed": true,
          "internalType": "address",
          "name": "oldTokenAddress",
          "type": "address"
        },
        {
          "indexed": true,
          "internalType": "address",
          "name": "newTokenAddress",
          "type": "address"
        }
      ],
      "name": "TokenUpdated",
      "type": "event"
    },
    {
      "anonymous": false,
      "inputs": [
        {
          "indexed": true,
          "internalType": "address",
          "name": "token",
          "type": "address"
        },
        {
          "indexed": true,
          "internalType": "address",
          "name": "to",
          "type": "address"
        },
        {
          "indexed": false,
          "internalType": "uint256",
          "name": "amount",
          "type": "uint256"
        }
      ],
      "name": "TransferERC20",
      "type": "event"
    },
    {
      "inputs": [],
      "name": "DEFAULT_ADMIN_ROLE",
      "outputs": [
        {
          "internalType": "bytes32",
          "name": "",
          "type": "bytes32"
        }
      ],
      "stateMutability": "view",
      "type": "function"
    },
    {
      "inputs": [],
      "name": "_token",
      "outputs": [
        {
          "internalType": "contract IERC20Upgradeable",
          "name": "",
          "type": "address"
        }
      ],
      "stateMutability": "view",
      "type": "function"
    },
    {
      "inputs": [
        {
          "internalType": "address[]",
          "name": "_beneficiaryAddresses",
          "type": "address[]"
        }
      ],
      "name": "addBeneficiaries",
      "outputs": [],
      "stateMutability": "nonpayable",
      "type": "function"
    },
    {
      "inputs": [
        {
          "internalType": "address[]",
          "name": "_beneficiaryAddresses",
          "type": "address[]"
        },
        {
          "internalType": "uint256",
          "name": "_expirationTimestamp",
          "type": "uint256"
        },
        {
          "internalType": "bytes",
          "name": "_signature",
          "type": "bytes"
        }
      ],
      "name": "addBeneficiariesUsingSignature",
      "outputs": [],
      "stateMutability": "nonpayable",
      "type": "function"
    },
    {
      "inputs": [
        {
          "internalType": "address",
          "name": "_beneficiaryAddress",
          "type": "address"
        }
      ],
      "name": "addBeneficiary",
      "outputs": [],
      "stateMutability": "nonpayable",
      "type": "function"
    },
    {
      "inputs": [
        {
          "internalType": "address",
          "name": "_account",
          "type": "address"
        }
      ],
      "name": "addManager",
      "outputs": [],
      "stateMutability": "nonpayable",
      "type": "function"
    },
    {
      "inputs": [
        {
          "internalType": "uint256",
          "name": "_amount",
          "type": "uint256"
        }
      ],
      "name": "addTreasuryFunds",
      "outputs": [],
      "stateMutability": "nonpayable",
      "type": "function"
    },
    {
      "inputs": [],
      "name": "baseInterval",
      "outputs": [
        {
          "internalType": "uint256",
          "name": "",
          "type": "uint256"
        }
      ],
      "stateMutability": "view",
      "type": "function"
    },
    {
      "inputs": [
        {
          "internalType": "address",
          "name": "_beneficiaryAddress",
          "type": "address"
        }
      ],
      "name": "beneficiaries",
      "outputs": [
        {
          "internalType": "enum ICommunity.BeneficiaryState",
          "name": "state",
          "type": "uint8"
        },
        {
          "internalType": "uint256",
          "name": "claims",
          "type": "uint256"
        },
        {
          "internalType": "uint256",
          "name": "claimedAmount",
          "type": "uint256"
        },
        {
          "internalType": "uint256",
          "name": "lastClaim",
          "type": "uint256"
        }
      ],
      "stateMutability": "view",
      "type": "function"
    },
    {
      "inputs": [
        {
          "internalType": "address",
          "name": "_beneficiaryAddress",
          "type": "address"
        }
      ],
      "name": "beneficiaryClaimedAmounts",
      "outputs": [
        {
          "internalType": "uint256[]",
          "name": "claimedAmounts",
          "type": "uint256[]"
        }
      ],
      "stateMutability": "view",
      "type": "function"
    },
    {
      "inputs": [
        {
          "internalType": "address",
          "name": "_beneficiaryAddress",
          "type": "address"
        }
      ],
      "name": "beneficiaryJoinFromMigrated",
      "outputs": [],
      "stateMutability": "nonpayable",
      "type": "function"
    },
    {
      "inputs": [
        {
          "internalType": "uint256",
          "name": "index_",
          "type": "uint256"
        }
      ],
      "name": "beneficiaryListAt",
      "outputs": [
        {
          "internalType": "address",
          "name": "",
          "type": "address"
        }
      ],
      "stateMutability": "view",
      "type": "function"
    },
    {
      "inputs": [],
      "name": "beneficiaryListLength",
      "outputs": [
        {
          "internalType": "uint256",
          "name": "",
          "type": "uint256"
        }
      ],
      "stateMutability": "view",
      "type": "function"
    },
    {
      "inputs": [],
      "name": "cUSD",
      "outputs": [
        {
          "internalType": "contract IERC20Upgradeable",
          "name": "",
          "type": "address"
        }
      ],
      "stateMutability": "view",
      "type": "function"
    },
    {
      "inputs": [],
      "name": "claim",
      "outputs": [],
      "stateMutability": "nonpayable",
      "type": "function"
    },
    {
      "inputs": [],
      "name": "claimAmount",
      "outputs": [
        {
          "internalType": "uint256",
          "name": "",
          "type": "uint256"
        }
      ],
      "stateMutability": "view",
      "type": "function"
    },
    {
      "inputs": [
        {
          "internalType": "address",
          "name": "_beneficiaryAddress",
          "type": "address"
        }
      ],
      "name": "claimCooldown",
      "outputs": [
        {
          "internalType": "uint256",
          "name": "",
          "type": "uint256"
        }
      ],
      "stateMutability": "view",
      "type": "function"
    },
    {
      "inputs": [],
      "name": "communityAdmin",
      "outputs": [
        {
          "internalType": "contract ICommunityAdmin",
          "name": "",
          "type": "address"
        }
      ],
      "stateMutability": "view",
      "type": "function"
    },
    {
      "inputs": [],
      "name": "decreaseStep",
      "outputs": [
        {
          "internalType": "uint256",
          "name": "",
          "type": "uint256"
        }
      ],
      "stateMutability": "view",
      "type": "function"
    },
    {
      "inputs": [
        {
          "internalType": "address",
          "name": "_sender",
          "type": "address"
        },
        {
          "internalType": "uint256",
          "name": "_amount",
          "type": "uint256"
        }
      ],
      "name": "donate",
      "outputs": [],
      "stateMutability": "nonpayable",
      "type": "function"
    },
    {
      "inputs": [],
      "name": "getInitialMaxClaim",
      "outputs": [
        {
          "internalType": "uint256",
          "name": "",
          "type": "uint256"
        }
      ],
      "stateMutability": "view",
      "type": "function"
    },
    {
      "inputs": [],
      "name": "getInitialMaxTotalClaim",
      "outputs": [
        {
          "internalType": "uint256",
          "name": "",
          "type": "uint256"
        }
      ],
      "stateMutability": "view",
      "type": "function"
    },
    {
      "inputs": [
        {
          "internalType": "bytes32",
          "name": "role",
          "type": "bytes32"
        }
      ],
      "name": "getRoleAdmin",
      "outputs": [
        {
          "internalType": "bytes32",
          "name": "",
          "type": "bytes32"
        }
      ],
      "stateMutability": "view",
      "type": "function"
    },
    {
      "inputs": [],
      "name": "getVersion",
      "outputs": [
        {
          "internalType": "uint256",
          "name": "",
          "type": "uint256"
        }
      ],
      "stateMutability": "pure",
      "type": "function"
    },
    {
      "inputs": [
        {
          "internalType": "bytes32",
          "name": "",
          "type": "bytes32"
        },
        {
          "internalType": "address",
          "name": "",
          "type": "address"
        }
      ],
      "name": "grantRole",
      "outputs": [],
      "stateMutability": "pure",
      "type": "function"
    },
    {
      "inputs": [
        {
          "internalType": "bytes32",
          "name": "role",
          "type": "bytes32"
        },
        {
          "internalType": "address",
          "name": "account",
          "type": "address"
        }
      ],
      "name": "hasRole",
      "outputs": [
        {
          "internalType": "bool",
          "name": "",
          "type": "bool"
        }
      ],
      "stateMutability": "view",
      "type": "function"
    },
    {
      "inputs": [],
      "name": "impactMarketAddress",
      "outputs": [
        {
          "internalType": "address",
          "name": "",
          "type": "address"
        }
      ],
      "stateMutability": "pure",
      "type": "function"
    },
    {
      "inputs": [],
      "name": "incrementInterval",
      "outputs": [
        {
          "internalType": "uint256",
          "name": "",
          "type": "uint256"
        }
      ],
      "stateMutability": "view",
      "type": "function"
    },
    {
      "inputs": [
        {
          "internalType": "address",
          "name": "_tokenAddress",
          "type": "address"
        },
        {
          "internalType": "address[]",
          "name": "_managers",
          "type": "address[]"
        },
        {
          "internalType": "uint256",
          "name": "_originalClaimAmount",
          "type": "uint256"
        },
        {
          "internalType": "uint256",
          "name": "_maxTotalClaim",
          "type": "uint256"
        },
        {
          "internalType": "uint256",
          "name": "_decreaseStep",
          "type": "uint256"
        },
        {
          "internalType": "uint256",
          "name": "_baseInterval",
          "type": "uint256"
        },
        {
          "internalType": "uint256",
          "name": "_incrementInterval",
          "type": "uint256"
        },
        {
          "internalType": "uint256",
          "name": "_minTranche",
          "type": "uint256"
        },
        {
          "internalType": "uint256",
          "name": "_maxTranche",
          "type": "uint256"
        },
        {
          "internalType": "uint256",
          "name": "_maxBeneficiaries",
          "type": "uint256"
        },
        {
          "internalType": "contract ICommunity",
          "name": "_previousCommunity",
          "type": "address"
        }
      ],
      "name": "initialize",
      "outputs": [],
      "stateMutability": "nonpayable",
      "type": "function"
    },
    {
      "inputs": [],
      "name": "isSelfFunding",
      "outputs": [
        {
          "internalType": "bool",
          "name": "",
          "type": "bool"
        }
      ],
      "stateMutability": "view",
      "type": "function"
    },
    {
      "inputs": [],
      "name": "lastFundRequest",
      "outputs": [
        {
          "internalType": "uint256",
          "name": "",
          "type": "uint256"
        }
      ],
      "stateMutability": "view",
      "type": "function"
    },
    {
      "inputs": [
        {
          "internalType": "address",
          "name": "_beneficiaryAddress",
          "type": "address"
        }
      ],
      "name": "lastInterval",
      "outputs": [
        {
          "internalType": "uint256",
          "name": "",
          "type": "uint256"
        }
      ],
      "stateMutability": "view",
      "type": "function"
    },
    {
      "inputs": [],
      "name": "lock",
      "outputs": [],
      "stateMutability": "nonpayable",
      "type": "function"
    },
    {
      "inputs": [
        {
          "internalType": "address[]",
          "name": "_beneficiaryAddresses",
          "type": "address[]"
        }
      ],
      "name": "lockBeneficiaries",
      "outputs": [],
      "stateMutability": "nonpayable",
      "type": "function"
    },
    {
      "inputs": [
        {
          "internalType": "address[]",
          "name": "_beneficiaryAddresses",
          "type": "address[]"
        },
        {
          "internalType": "uint256",
          "name": "_expirationTimestamp",
          "type": "uint256"
        },
        {
          "internalType": "bytes",
          "name": "_signature",
          "type": "bytes"
        }
      ],
      "name": "lockBeneficiariesUsingSignature",
      "outputs": [],
      "stateMutability": "nonpayable",
      "type": "function"
    },
    {
      "inputs": [
        {
          "internalType": "address",
          "name": "_beneficiaryAddress",
          "type": "address"
        }
      ],
      "name": "lockBeneficiary",
      "outputs": [],
      "stateMutability": "nonpayable",
      "type": "function"
    },
    {
      "inputs": [],
      "name": "locked",
      "outputs": [
        {
          "internalType": "bool",
          "name": "",
          "type": "bool"
        }
      ],
      "stateMutability": "view",
      "type": "function"
    },
    {
      "inputs": [],
      "name": "maxBeneficiaries",
      "outputs": [
        {
          "internalType": "uint256",
          "name": "",
          "type": "uint256"
        }
      ],
      "stateMutability": "view",
      "type": "function"
    },
    {
      "inputs": [],
      "name": "maxClaim",
      "outputs": [
        {
          "internalType": "uint256",
          "name": "",
          "type": "uint256"
        }
      ],
      "stateMutability": "view",
      "type": "function"
    },
    {
      "inputs": [],
      "name": "maxTotalClaim",
      "outputs": [
        {
          "internalType": "uint256",
          "name": "",
          "type": "uint256"
        }
      ],
      "stateMutability": "view",
      "type": "function"
    },
    {
      "inputs": [],
      "name": "maxTranche",
      "outputs": [
        {
          "internalType": "uint256",
          "name": "",
          "type": "uint256"
        }
      ],
      "stateMutability": "view",
      "type": "function"
    },
    {
      "inputs": [],
      "name": "minTranche",
      "outputs": [
        {
          "internalType": "uint256",
          "name": "",
          "type": "uint256"
        }
      ],
      "stateMutability": "view",
      "type": "function"
    },
    {
      "inputs": [],
      "name": "originalClaimAmount",
      "outputs": [
        {
          "internalType": "uint256",
          "name": "",
          "type": "uint256"
        }
      ],
      "stateMutability": "view",
      "type": "function"
    },
    {
      "inputs": [],
      "name": "owner",
      "outputs": [
        {
          "internalType": "address",
          "name": "",
          "type": "address"
        }
      ],
      "stateMutability": "view",
      "type": "function"
    },
    {
      "inputs": [],
      "name": "previousCommunity",
      "outputs": [
        {
          "internalType": "contract ICommunity",
          "name": "",
          "type": "address"
        }
      ],
      "stateMutability": "view",
      "type": "function"
    },
    {
      "inputs": [],
      "name": "privateFunds",
      "outputs": [
        {
          "internalType": "uint256",
          "name": "",
          "type": "uint256"
        }
      ],
      "stateMutability": "view",
      "type": "function"
    },
    {
      "inputs": [
        {
          "internalType": "address[]",
          "name": "_beneficiaryAddresses",
          "type": "address[]"
        }
      ],
      "name": "removeBeneficiaries",
      "outputs": [],
      "stateMutability": "nonpayable",
      "type": "function"
    },
    {
      "inputs": [
        {
          "internalType": "address[]",
          "name": "_beneficiaryAddresses",
          "type": "address[]"
        },
        {
          "internalType": "uint256",
          "name": "_expirationTimestamp",
          "type": "uint256"
        },
        {
          "internalType": "bytes",
          "name": "_signature",
          "type": "bytes"
        }
      ],
      "name": "removeBeneficiariesUsingSignature",
      "outputs": [],
      "stateMutability": "nonpayable",
      "type": "function"
    },
    {
      "inputs": [
        {
          "internalType": "address",
          "name": "_beneficiaryAddress",
          "type": "address"
        }
      ],
      "name": "removeBeneficiary",
      "outputs": [],
      "stateMutability": "nonpayable",
      "type": "function"
    },
    {
      "inputs": [
        {
          "internalType": "address",
          "name": "_account",
          "type": "address"
        }
      ],
      "name": "removeManager",
      "outputs": [],
      "stateMutability": "nonpayable",
      "type": "function"
    },
    {
      "inputs": [],
      "name": "renounceOwnership",
      "outputs": [],
      "stateMutability": "nonpayable",
      "type": "function"
    },
    {
      "inputs": [
        {
          "internalType": "bytes32",
          "name": "role",
          "type": "bytes32"
        },
        {
          "internalType": "address",
          "name": "account",
          "type": "address"
        }
      ],
      "name": "renounceRole",
      "outputs": [],
      "stateMutability": "nonpayable",
      "type": "function"
    },
    {
      "inputs": [],
      "name": "requestFunds",
      "outputs": [],
      "stateMutability": "nonpayable",
      "type": "function"
    },
    {
      "inputs": [
        {
          "internalType": "bytes32",
          "name": "",
          "type": "bytes32"
        },
        {
          "internalType": "address",
          "name": "",
          "type": "address"
        }
      ],
      "name": "revokeRole",
      "outputs": [],
      "stateMutability": "pure",
      "type": "function"
    },
    {
      "inputs": [
        {
          "internalType": "bytes4",
          "name": "interfaceId",
          "type": "bytes4"
        }
      ],
      "name": "supportsInterface",
      "outputs": [
        {
          "internalType": "bool",
          "name": "",
          "type": "bool"
        }
      ],
      "stateMutability": "view",
      "type": "function"
    },
    {
      "inputs": [],
      "name": "token",
      "outputs": [
        {
          "internalType": "contract IERC20Upgradeable",
          "name": "",
          "type": "address"
        }
      ],
      "stateMutability": "view",
      "type": "function"
    },
    {
      "inputs": [],
      "name": "tokenList",
      "outputs": [
        {
          "internalType": "address[]",
          "name": "",
          "type": "address[]"
        }
      ],
      "stateMutability": "view",
      "type": "function"
    },
    {
      "inputs": [
        {
          "internalType": "uint256",
          "name": "",
          "type": "uint256"
        }
      ],
      "name": "tokens",
      "outputs": [
        {
          "internalType": "address",
          "name": "tokenAddress",
          "type": "address"
        },
        {
          "internalType": "uint256",
          "name": "ratio",
          "type": "uint256"
        },
        {
          "internalType": "uint256",
          "name": "startBlock",
          "type": "uint256"
        }
      ],
      "stateMutability": "view",
      "type": "function"
    },
    {
      "inputs": [],
      "name": "tokensLength",
      "outputs": [
        {
          "internalType": "uint256",
          "name": "",
          "type": "uint256"
        }
      ],
      "stateMutability": "view",
      "type": "function"
    },
    {
      "inputs": [
        {
          "internalType": "contract IERC20Upgradeable",
          "name": "_token",
          "type": "address"
        },
        {
          "internalType": "address",
          "name": "_to",
          "type": "address"
        },
        {
          "internalType": "uint256",
          "name": "_amount",
          "type": "uint256"
        }
      ],
      "name": "transfer",
      "outputs": [],
      "stateMutability": "nonpayable",
      "type": "function"
    },
    {
      "inputs": [
        {
          "internalType": "address",
          "name": "newOwner",
          "type": "address"
        }
      ],
      "name": "transferOwnership",
      "outputs": [],
      "stateMutability": "nonpayable",
      "type": "function"
    },
    {
      "inputs": [],
      "name": "treasuryFunds",
      "outputs": [
        {
          "internalType": "uint256",
          "name": "",
          "type": "uint256"
        }
      ],
      "stateMutability": "view",
      "type": "function"
    },
    {
      "inputs": [],
      "name": "unlock",
      "outputs": [],
      "stateMutability": "nonpayable",
      "type": "function"
    },
    {
      "inputs": [
        {
          "internalType": "address[]",
          "name": "_beneficiaryAddresses",
          "type": "address[]"
        }
      ],
      "name": "unlockBeneficiaries",
      "outputs": [],
      "stateMutability": "nonpayable",
      "type": "function"
    },
    {
      "inputs": [
        {
          "internalType": "address[]",
          "name": "_beneficiaryAddresses",
          "type": "address[]"
        },
        {
          "internalType": "uint256",
          "name": "_expirationTimestamp",
          "type": "uint256"
        },
        {
          "internalType": "bytes",
          "name": "_signature",
          "type": "bytes"
        }
      ],
      "name": "unlockBeneficiariesUsingSignature",
      "outputs": [],
      "stateMutability": "nonpayable",
      "type": "function"
    },
    {
      "inputs": [
        {
          "internalType": "address",
          "name": "_beneficiaryAddress",
          "type": "address"
        }
      ],
      "name": "unlockBeneficiary",
      "outputs": [],
      "stateMutability": "nonpayable",
      "type": "function"
    },
    {
      "inputs": [
        {
          "internalType": "uint256",
          "name": "_originalClaimAmount",
          "type": "uint256"
        },
        {
          "internalType": "uint256",
          "name": "_maxTotalClaim",
          "type": "uint256"
        },
        {
          "internalType": "uint256",
          "name": "_decreaseStep",
          "type": "uint256"
        },
        {
          "internalType": "uint256",
          "name": "_baseInterval",
          "type": "uint256"
        },
        {
          "internalType": "uint256",
          "name": "_incrementInterval",
          "type": "uint256"
        }
      ],
      "name": "updateBeneficiaryParams",
      "outputs": [],
      "stateMutability": "nonpayable",
      "type": "function"
    },
    {
      "inputs": [
        {
          "internalType": "contract ICommunityAdmin",
          "name": "_newCommunityAdmin",
          "type": "address"
        }
      ],
      "name": "updateCommunityAdmin",
      "outputs": [],
      "stateMutability": "nonpayable",
      "type": "function"
    },
    {
      "inputs": [
        {
          "internalType": "uint256",
          "name": "_minTranche",
          "type": "uint256"
        },
        {
          "internalType": "uint256",
          "name": "_maxTranche",
          "type": "uint256"
        }
      ],
      "name": "updateCommunityParams",
      "outputs": [],
      "stateMutability": "nonpayable",
      "type": "function"
    },
    {
      "inputs": [
        {
          "internalType": "uint256",
          "name": "_newMaxBeneficiaries",
          "type": "uint256"
        }
      ],
      "name": "updateMaxBeneficiaries",
      "outputs": [],
      "stateMutability": "nonpayable",
      "type": "function"
    },
    {
      "inputs": [
        {
          "internalType": "contract ICommunity",
          "name": "_newPreviousCommunity",
          "type": "address"
        }
      ],
      "name": "updatePreviousCommunity",
      "outputs": [],
      "stateMutability": "nonpayable",
      "type": "function"
    },
    {
      "inputs": [
        {
          "internalType": "contract IERC20Upgradeable",
          "name": "_newToken",
          "type": "address"
        },
        {
          "internalType": "address[]",
          "name": "_exchangePath",
          "type": "address[]"
        },
        {
          "internalType": "uint256",
          "name": "_originalClaimAmount",
          "type": "uint256"
        },
        {
          "internalType": "uint256",
          "name": "_maxTotalClaim",
          "type": "uint256"
        },
        {
          "internalType": "uint256",
          "name": "_decreaseStep",
          "type": "uint256"
        },
        {
          "internalType": "uint256",
          "name": "_baseInterval",
          "type": "uint256"
        },
        {
          "internalType": "uint256",
          "name": "_incrementInterval",
          "type": "uint256"
        }
      ],
      "name": "updateToken",
      "outputs": [],
      "stateMutability": "nonpayable",
      "type": "function"
    },
    {
      "inputs": [],
      "name": "validBeneficiaryCount",
      "outputs": [
        {
          "internalType": "uint256",
          "name": "",
          "type": "uint256"
        }
      ],
      "stateMutability": "view",
      "type": "function"
    }
  ],
  "transactionHash": "0x3f843437fe8de4e379913fdaec88576d1fca4aa1d72eb6db3386d554cd068fe5",
  "args": [],
  "numDeployments": 6,
  "solcInputHash": "3ae7c941010c35d9f148918e80fea9b9",
  "bytecode": "0x608060405234801561001057600080fd5b5061523d806100206000396000f3fe608060405234801561001057600080fd5b50600436106104335760003560e01c806391d1485411610236578063c51fab3c1161013b578063d92fc67b116100c3578063ecd0c0c311610087578063ecd0c0c3146108c3578063f2fde38b146108d7578063f83d08ba146108ea578063fb7b0a0c146108f2578063fc0c546a146104d757600080fd5b8063d92fc67b14610882578063dd4414bb1461088b578063e25c25f314610895578063e69d849d146108a8578063eb0376b1146108bb57600080fd5b8063d10f51071161010a578063d10f510714610837578063d33d4ec61461084a578063d4938db31461085d578063d547741f14610865578063d6dbd9721461087857600080fd5b8063c51fab3c146107fa578063c76a890c14610804578063cf30901214610817578063d04c41b61461082457600080fd5b8063a57e08ca116101be578063b026ba571161018d578063b026ba57146107b2578063b809ee82146107ba578063beabacc8146107cd578063c041fdc5146107e0578063c0e27b6b146107e757600080fd5b8063a57e08ca14610771578063a69df4b514610784578063a8f3e0631461078c578063ac18de431461079f57600080fd5b80639e2c58ca116102055780639e2c58ca1461072e578063a0f93a1714610743578063a217fddf1461074d578063a38540ee14610755578063a3c6e4111461075e57600080fd5b806391d14854146106eb57806394e13748146106fe5780639c01a401146107115780639cecf5721461071b57600080fd5b80633a578a0c1161033c5780635fac917a116102c457806378ba280f1161029357806378ba280f146106115780637e2959dc146106aa578063830953ab146106bd57806389554f17146106c75780638da5cb5b146106da57600080fd5b80635fac917a1461065b5780636b31f2ad1461066f578063715018a61461068f578063785393db1461069757600080fd5b806357c363271161030b57806357c3632714610611578063590411da146106195780635926651d1461062c57806359633a1c1461063f578063597be18b1461065257600080fd5b80633a578a0c146105b3578063431a801a146105c75780634e71d92d146105d15780634f64b2be146105d957600080fd5b80632b271117116103bf578063300c12fe1161038e578063300c12fe1461055d578063305ff6541461056757806336568abe1461057a5780633783946a1461058d57806337e556dd146105a057600080fd5b80632b2711171461051a5780632d06177a146105245780632f2ff15d146105375780632fd791031461054a57600080fd5b80630d8e6e2c116104065780630d8e6e2c146104b45780630e5b7c53146104bb5780631912cdb4146104c45780631fccf672146104d7578063248a9ca3146104f757600080fd5b8063015677391461043857806301ffc9a71461046457806309c338c3146104875780630b4e78171461049f575b600080fd5b61044b6104463660046149f4565b6108fb565b60405161045b9493929190614ea1565b60405180910390f35b610477610472366004614c39565b610945565b604051901515815260200161045b565b6104916101065481565b60405190815260200161045b565b6104b26104ad366004614a2c565b61097c565b005b6003610491565b61049160fd5481565b6104b26104d2366004614da5565b610d0e565b6104df610e26565b6040516001600160a01b03909116815260200161045b565b610491610505366004614bf2565b60009081526065602052604090206001015490565b6104916101055481565b6104b26105323660046149f4565b610ed7565b6104b2610545366004614c0a565b610f81565b6104b2610558366004614dc6565b610ff3565b6101055415610477565b6104b2610575366004614bf2565b611207565b6104b2610588366004614c0a565b611341565b6104b261059b366004614ca1565b6113bb565b6104b26105ae366004614b3d565b611c0b565b610107546104df906001600160a01b031681565b6104916101005481565b6104b2611c25565b6105ec6105e7366004614bf2565b611f97565b604080516001600160a01b03909416845260208401929092529082015260600161045b565b610491611fd5565b6104b2610627366004614b0a565b611ff6565b6104b261063a3660046149f4565b612086565b6104b261064d3660046149f4565b61214c565b61049160fe5481565b610108546104df906001600160a01b031681565b61068261067d3660046149f4565b612189565b60405161045b9190614e69565b6104b26122ee565b6104df6106a5366004614bf2565b612324565b6104b26106b83660046149f4565b612332565b6104916101115481565b6104b26106d5366004614b0a565b6123ba565b6097546001600160a01b03166104df565b6104776106f9366004614c0a565b61241a565b6104b261070c366004614b3d565b612445565b6104916101015481565b6104916107293660046149f4565b61247c565b6107366124ae565b60405161045b9190614e1c565b61049161010d5481565b610491600081565b61049160ff5481565b6104b261076c366004614b3d565b6125f6565b6104b261077f3660046149f4565b61262d565b6104b26127d3565b61049161079a3660046149f4565b6128a8565b6104b26107ad3660046149f4565b612905565b6104b2612b13565b6104b26107c8366004614bf2565b612c84565b6104b26107db366004614c61565b612cc9565b60006104df565b6104b26107f53660046149f4565b612daf565b6104916101035481565b6104b2610812366004614b0a565b612e0f565b60fb546104779060ff1681565b6104b2610832366004614b0a565b612e4c565b6104b26108453660046149f4565b612eac565b6104b26108583660046149f4565b612f0c565b60ff54610491565b6104b2610873366004614c0a565b612f99565b6104916101025481565b61010e54610491565b6104916101045481565b6104b26108a3366004614b3d565b613007565b6104b26108b6366004614adf565b613071565b610491613117565b61010c546104df906001600160a01b031681565b6104b26108e53660046149f4565b613124565b6104b26131bc565b61049160fc5481565b6001600160a01b0381166000908152610109602052604081208054600182015483928392839260ff9091169061093083613294565b83600301549450945094509450509193509193565b60006001600160e01b03198216637965db0b60e01b148061097657506301ffc9a760e01b6001600160e01b03198316145b92915050565b600054610100900460ff166109975760005460ff161561099b565b303b155b610a035760405162461bcd60e51b815260206004820152602e60248201527f496e697469616c697a61626c653a20636f6e747261637420697320616c72656160448201526d191e481a5b9a5d1a585b1a5e995960921b60648201526084015b60405180910390fd5b600054610100900460ff16158015610a25576000805461ffff19166101011790555b858711610aad5760405162461bcd60e51b815260206004820152604a60248201527f436f6d6d756e6974793a3a696e697469616c697a653a2062617365496e74657260448201527f76616c206d7573742062652067726561746572207468616e20696e6372656d656064820152691b9d125b9d195c9d985b60b21b608482015260a4016109fa565b89891015610b175760405162461bcd60e51b815260206004820152603160248201527f436f6d6d756e6974793a3a696e697469616c697a653a206f726967696e616c436044820152706c61696d416d6f756e7420746f2062696760781b60648201526084016109fa565b83851115610b9d5760405162461bcd60e51b815260206004820152604760248201527f436f6d6d756e6974793a3a696e697469616c697a653a206d696e5472616e636860448201527f652073686f756c64206e6f742062652067726561746572207468616e206d61786064820152665472616e63686560c81b608482015260a4016109fa565b61010880546001600160a01b03191633179055610bb8613367565b610bc06133a6565b610bc86133dd565b61010c80546001600160a01b03808f166001600160a01b03199283161790925560fc8c90556101118c905560fd89905560fe88905560ff8b905561010487905561010586905561010780549285169290911691909117905561010388905561010d83905560fb805460ff19169055610c3f33613124565b610c576000805160206151e88339815191528061340c565b610c6f6000805160206151e883398151915233613457565b604051339081907f05a4006f300442cf8b7fdb885f5ee958812020bffb5c5a8e655fde64e5f987ed90600090a38a516000905b80821015610cec57610cda8d8381518110610ccd57634e487b7160e01b600052603260045260246000fd5b6020026020010151613461565b81610ce48161518b565b925050610ca2565b50508015610d00576000805461ff00191690555b505050505050505050505050565b6097546001600160a01b03163314610d385760405162461bcd60e51b81526004016109fa90614f80565b80821115610dc95760405162461bcd60e51b815260206004820152605260248201527f436f6d6d756e6974793a3a757064617465436f6d6d756e697479506172616d7360448201527f3a206d696e5472616e6368652073686f756c64206e6f742062652067726561746064820152716572207468616e206d61785472616e63686560701b608482015260a4016109fa565b61010454610105546040805192835260208301919091528101839052606081018290527fcd922a6f0ad842d84e08eb5df24c029b63c60167fb37cff24adf95c4832e32589060800160405180910390a16101049190915561010555565b61010c546000906001600160a01b0316610ec65761010860009054906101000a90046001600160a01b03166001600160a01b0316631fccf6726040518163ffffffff1660e01b815260040160206040518083038186803b158015610e8957600080fd5b505afa158015610e9d573d6000803e3d6000fd5b505050506040513d601f19601f82011682018060405250810190610ec19190614a10565b905090565b5061010c546001600160a01b031690565b61010854604051636b0de23f60e01b81523060048201523360248201526001600160a01b0390911690636b0de23f9060440160206040518083038186803b158015610f2157600080fd5b505afa158015610f35573d6000803e3d6000fd5b505050506040513d601f19601f82011682018060405250810190610f599190614bd2565b610f755760405162461bcd60e51b81526004016109fa90614f3d565b610f7e81613461565b50565b60405162461bcd60e51b815260206004820152603a60248201527f436f6d6d756e6974793a3a6772616e74526f6c653a20596f7520617265206e6f60448201527f7420616c6c6f7720746f207573652074686973206d6574686f6400000000000060648201526084016109fa565b5050565b6097546001600160a01b0316331461101d5760405162461bcd60e51b81526004016109fa90614f80565b8082116110b85760405162461bcd60e51b815260206004820152605760248201527f436f6d6d756e6974793a3a75706461746542656e65666963696172795061726160448201527f6d733a2062617365496e74657276616c206d757374206265206772656174657260648201527f207468616e20696e6372656d656e74496e74657276616c000000000000000000608482015260a4016109fa565b82610100546110c79190615112565b6110d190866150da565b8410156111465760405162461bcd60e51b815260206004820152603f60248201527f436f6d6d756e6974793a3a75706461746542656e65666963696172795061726160448201527f6d733a206f726967696e616c436c61696d416d6f756e7420746f6f206269670060648201526084016109fa565b60fc5460ff546101035460fd5460fe54604080519586526020860194909452848401929092526060840152608083015260a0820187905260c0820186905260e0820185905261010082018490526101208201839052517fa19f450cd68c70f728b0c4b75befd202ea5ebb1ae78b6aca47365934b5008750918190036101400190a160fc859055610100546111db908490615112565b6111e59085615131565b60ff5561010383905560fd82905560fe8190556112006134ce565b5050505050565b6097546001600160a01b031633148061129d575061010854604051636b0de23f60e01b81523060048201523360248201526001600160a01b0390911690636b0de23f9060440160206040518083038186803b15801561126557600080fd5b505afa158015611279573d6000803e3d6000fd5b505050506040513d601f19601f8201168201806040525081019061129d9190614bd2565b6112fe5760405162461bcd60e51b815260206004820152602c60248201527f436f6d6d756e6974793a204e4f545f4f574e45525f4f525f414d42415353414460448201526b4f525f4f525f454e5449545960a01b60648201526084016109fa565b61010d5460408051918252602082018390527f6672b7064fe522fa09a8078f6d967272e0a379beb2270817417c9f023251b657910160405180910390a161010d55565b6001600160a01b03811633146113b15760405162461bcd60e51b815260206004820152602f60248201527f416363657373436f6e74726f6c3a2063616e206f6e6c792072656e6f756e636560448201526e103937b632b9903337b91039b2b63360891b60648201526084016109fa565b610fef8282613735565b6097546001600160a01b031633146113e55760405162461bcd60e51b81526004016109fa90614f80565b61010854604080516361d027b360e01b815290516000926001600160a01b0316916361d027b3916004808301926020929190829003018186803b15801561142b57600080fd5b505afa15801561143f573d6000803e3d6000fd5b505050506040513d601f19601f820116820180604052508101906114639190614a10565b61010e54909150600a116114d35760405162461bcd60e51b815260206004820152603160248201527f436f6d6d756e6974793a3a757064617465546f6b656e3a20546f6b656e206c696044820152707374206c656e67746820746f6f2062696760781b60648201526084016109fa565b6114db610e26565b6001600160a01b0316896001600160a01b031614156115745760405162461bcd60e51b815260206004820152604960248201527f436f6d6d756e6974793a3a757064617465546f6b656e3a204e657720746f6b6560448201527f6e2063616e6e6f74206265207468652073616d6520617320746865206375727260648201526832b73a103a37b5b2b760b91b608482015260a4016109fa565b61010860009054906101000a90046001600160a01b03166001600160a01b0316631fccf6726040518163ffffffff1660e01b815260040160206040518083038186803b1580156115c357600080fd5b505afa1580156115d7573d6000803e3d6000fd5b505050506040513d601f19601f820116820180604052508101906115fb9190614a10565b6001600160a01b0316896001600160a01b0316148061168e57506040516319f3736160e01b81526001600160a01b038a811660048301528216906319f373619060240160206040518083038186803b15801561165657600080fd5b505afa15801561166a573d6000803e3d6000fd5b505050506040513d601f19601f8201168201806040525081019061168e9190614bd2565b6116e85760405162461bcd60e51b815260206004820152602560248201527f436f6d6d756e6974793a3a757064617465546f6b656e3a20496e76616c6964206044820152643a37b5b2b760d91b60648201526084016109fa565b60018711801561174557506116fb610e26565b6001600160a01b03168888600081811061172557634e487b7160e01b600052603260045260246000fd5b905060200201602081019061173a91906149f4565b6001600160a01b0316145b80156117a057506001600160a01b0389168888611763600182615131565b81811061178057634e487b7160e01b600052603260045260246000fd5b905060200201602081019061179591906149f4565b6001600160a01b0316145b6118015760405162461bcd60e51b815260206004820152602c60248201527f436f6d6d756e6974793a3a757064617465546f6b656e3a20696e76616c69642060448201526b0caf0c6d0c2dccecaa0c2e8d60a31b60648201526084016109fa565b61010e5461189b5761010e604051806060016040528061181f610e26565b6001600160a01b039081168252670de0b6b3a76400006020808401919091526000604093840181905285546001808201885596825290829020855160039092020180546001600160a01b03191691909316178255830151938101939093550151600290910155611899611890610e26565b61010f9061379c565b505b60006118a5611fd5565b6118b787670de0b6b3a7640000615112565b6118c191906150f2565b604080516060810182526001600160a01b038d81168252602082018481524393830193845261010e805460018101825560009190915292517f44731785622d53a842eeb261a70df6f2b61b9624656157b6168597f0656f4805600390940293840180546001600160a01b0319169190931617909155517f44731785622d53a842eeb261a70df6f2b61b9624656157b6168597f0656f480682015590517f44731785622d53a842eeb261a70df6f2b61b9624656157b6168597f0656f480790910155905061199061010f8b61379c565b506000826001600160a01b031663735de9f76040518163ffffffff1660e01b815260040160206040518083038186803b1580156119cc57600080fd5b505afa1580156119e0573d6000803e3d6000fd5b505050506040513d601f19601f82011682018060405250810190611a049190614a10565b90506000611a10610e26565b6040516370a0823160e01b81523060048201526001600160a01b0391909116906370a082319060240160206040518083038186803b158015611a5157600080fd5b505afa158015611a65573d6000803e3d6000fd5b505050506040513d601f19601f82011682018060405250810190611a899190614d8d565b9050611a93610e26565b60405163095ea7b360e01b81526001600160a01b03848116600483015260248201849052919091169063095ea7b390604401602060405180830381600087803b158015611adf57600080fd5b505af1158015611af3573d6000803e3d6000fd5b505050506040513d601f19601f82011682018060405250810190611b179190614bd2565b506001600160a01b038216635c11d7958260008e8e30611b3942610e106150da565b6040518763ffffffff1660e01b8152600401611b5a96959493929190615067565b600060405180830381600087803b158015611b7457600080fd5b505af1158015611b88573d6000803e3d6000fd5b505050508b6001600160a01b031661010c60009054906101000a90046001600160a01b03166001600160a01b03167f0b1186973f810894b87ab0bfbee422fddcaad21b46dc705a561451bbb6bac11760405160405180910390a361010c80546001600160a01b0319166001600160a01b038e16179055610d008989898989610ff3565b611c168383836137b1565b611c1f846139fc565b50505050565b60fb5460ff1615611c485760405162461bcd60e51b81526004016109fa90614f12565b6001336000908152610109602052604090205460ff166003811115611c7d57634e487b7160e01b600052602160045260246000fd5b14611cca5760405162461bcd60e51b815260206004820181905260248201527f436f6d6d756e6974793a204e4f545f56414c49445f42454e454649434941525960448201526064016109fa565b600260c9541415611ced5760405162461bcd60e51b81526004016109fa90615030565b600260c9553360009081526101096020526040812090611d0c82613294565b905043611d183361247c565b1115611d665760405162461bcd60e51b815260206004820152601960248201527f436f6d6d756e6974793a3a636c61696d3a204e4f545f5945540000000000000060448201526064016109fa565b60ff548110611dcc5760405162461bcd60e51b815260206004820152602c60248201527f436f6d6d756e6974793a3a636c61696d3a20416c726561647920636c61696d6560448201526b642065766572797468696e6760a01b60648201526084016109fa565b6000806101115411611de05760fc54611de5565b610111545b905060008260ff54611df79190615131565b821115611e11578260ff54611e0c9190615131565b611e13565b815b61010e549091506001108015611e60575061010e600181548110611e4757634e487b7160e01b600052603260045260246000fd5b9060005260206000209060030201600201548460030154105b15611ebe57836002015484600401600061010e600081548110611e9357634e487b7160e01b600052603260045260246000fd5b600091825260208083206003909202909101546001600160a01b031683528201929092526040019020555b611ec881846150da565b6002850155600184018054906000611edf8361518b565b909155505043600385015561010e5460011015611f3a5780846004016000611f05610e26565b6001600160a01b03166001600160a01b031681526020019081526020016000206000828254611f3491906150da565b90915550505b611f573382611f47610e26565b6001600160a01b03169190613a4c565b60405181815233907fd54e03b214b3e8c17e98044f98554b6f1b18dd2a3163a2619afea7e9b2a6eb979060200160405180910390a25050600160c9555050565b61010e8181548110611fa857600080fd5b60009182526020909120600390910201805460018201546002909201546001600160a01b03909116925083565b60006101035461010054611fe99190615112565b60ff54610ec191906150da565b60fb5460ff16156120195760405162461bcd60e51b81526004016109fa90614f12565b6120316000805160206151e88339815191523361241a565b61204d5760405162461bcd60e51b81526004016109fa90614fb5565b600260c95414156120705760405162461bcd60e51b81526004016109fa90615030565b600260c95561207e81613aaf565b50600160c955565b60fb5460ff16156120a95760405162461bcd60e51b81526004016109fa90614f12565b6120c16000805160206151e88339815191523361241a565b6120dd5760405162461bcd60e51b81526004016109fa90614fb5565b600260c95414156121005760405162461bcd60e51b81526004016109fa90615030565b600260c95561210e81613b66565b6040516001600160a01b0382169033907fbb39c36a7502b7256e1a687254146a9a2ea7b146c77cb9e40eb0e2b8793781e190600090a350600160c955565b6121646000805160206151e88339815191523361241a565b6121805760405162461bcd60e51b81526004016109fa90614fb5565b610f7e81613bdf565b6001600160a01b0381166000908152610109602052604081206060916121b061010f613c97565b67ffffffffffffffff8111156121d657634e487b7160e01b600052604160045260246000fd5b6040519080825280602002602001820160405280156121ff578160200160208202803683370190505b509050600061220f61010f613c97565b905060005b8181101561228c5760048401600061222e61010f84613ca1565b6001600160a01b03166001600160a01b031681526020019081526020016000205483828151811061226f57634e487b7160e01b600052603260045260246000fd5b6020908102919091010152806122848161518b565b915050612214565b5081516122e65760408051600180825281830190925290602080830190803683370190505091508260020154826000815181106122d957634e487b7160e01b600052603260045260246000fd5b6020026020010181815250505b509392505050565b6097546001600160a01b031633146123185760405162461bcd60e51b81526004016109fa90614f80565b6123226000613cad565b565b600061097661010a83613ca1565b6097546001600160a01b0316331461235c5760405162461bcd60e51b81526004016109fa90614f80565b610107546040516001600160a01b038084169216907f0d6a84e94da4b619dd0d993b5689ec82db4b1095da99ee0f3e7bb046c647e6ad90600090a361010780546001600160a01b0319166001600160a01b0392909216919091179055565b60fb5460ff16156123dd5760405162461bcd60e51b81526004016109fa90614f12565b6123f56000805160206151e88339815191523361241a565b6124115760405162461bcd60e51b81526004016109fa90614fb5565b610f7e81613cff565b60009182526065602090815260408084206001600160a01b0393909316845291905290205460ff1690565b60fb5460ff16156124685760405162461bcd60e51b81526004016109fa90614f12565b6124738383836137b1565b611c1f84613d4f565b6000612487826128a8565b6001600160a01b0383166000908152610109602052604090206003015461097691906150da565b606060006124bd61010f613c97565b67ffffffffffffffff8111156124e357634e487b7160e01b600052604160045260246000fd5b60405190808252806020026020018201604052801561250c578160200160208202803683370190505b509050600061251c61010f613c97565b905060005b8181101561257f5761253561010f82613ca1565b83828151811061255557634e487b7160e01b600052603260045260246000fd5b6001600160a01b0390921660209283029190910190910152806125778161518b565b915050612521565b5081516125f05760408051600180825281830190925290602080830190803683370190505091506125ae610e26565b826000815181106125cf57634e487b7160e01b600052603260045260246000fd5b60200260200101906001600160a01b031690816001600160a01b0316815250505b50919050565b60fb5460ff16156126195760405162461bcd60e51b81526004016109fa90614f12565b6126248383836137b1565b611c1f84613cff565b6001600160a01b03811660009081526101096020526040812090815460ff16600381111561266b57634e487b7160e01b600052602160045260246000fd5b146126de5760405162461bcd60e51b815260206004820152603a60248201527f436f6d6d756e6974793a3a62656e65666963696172794a6f696e46726f6d4d6960448201527f6772617465643a2042656e65666963696172792065786973747300000000000060648201526084016109fa565b61010754604051630156773960e01b81526001600160a01b038481166004830152600092839283928392169063015677399060240160806040518083038186803b15801561272b57600080fd5b505afa15801561273f573d6000803e3d6000fd5b505050506040513d601f19601f820116820180604052508101906127639190614d4c565b93509350935093506127758585613d9f565b60018501839055600385018190556002850182905561279661010a8761379c565b506040516001600160a01b038716907f505fe088fef0d1fb451ccfed842b55a86af1ee6208502f4bc3327dcb9032082990600090a2505050505050565b61010854604051636b0de23f60e01b81523060048201523360248201526001600160a01b0390911690636b0de23f9060440160206040518083038186803b15801561281d57600080fd5b505afa158015612831573d6000803e3d6000fd5b505050506040513d601f19601f820116820180604052508101906128559190614bd2565b6128715760405162461bcd60e51b81526004016109fa90614f3d565b60fb805460ff1916905560405133907f4e50048c25972c85ad169c2302967f1e633e8dc6108d6aca51a90d2a59d4934d90600090a2565b6001600160a01b03811660009081526101096020526040812060018101546128d35750600092915050565b60fe54600182600101546128e79190615131565b6128f19190615112565b60fd546128fe91906150da565b9392505050565b61010854604051636b0de23f60e01b81523060048201523360248201526001600160a01b0390911690636b0de23f9060440160206040518083038186803b15801561294f57600080fd5b505afa158015612963573d6000803e3d6000fd5b505050506040513d601f19601f820116820180604052508101906129879190614bd2565b6129a35760405162461bcd60e51b81526004016109fa90614f3d565b6129bb6000805160206151e88339815191528261241a565b612a2f576040805162461bcd60e51b81526020600482015260248101919091527f436f6d6d756e6974793a3a72656d6f76654d616e616765723a2054686973206160448201527f63636f756e7420646f65736e27742068617665206d616e6167657220726f6c6560648201526084016109fa565b610108546001600160a01b0382811691161415612ac25760405162461bcd60e51b8152602060048201526044602482018190527f436f6d6d756e6974793a3a72656d6f76654d616e616765723a20596f75206172908201527f65206e6f7420616c6c6f7720746f2072656d6f766520636f6d6d756e697479416064820152633236b4b760e11b608482015260a4016109fa565b612ada6000805160206151e883398151915282613735565b6040516001600160a01b0382169033907f3e902a6ee93dd5b2d48bd1009c7701a481be512b1ef73dbed2f95ea44c59ea8890600090a350565b60fb5460ff1615612b365760405162461bcd60e51b81526004016109fa90614f12565b612b4e6000805160206151e88339815191523361241a565b612b6a5760405162461bcd60e51b81526004016109fa90614fb5565b61010554612be05760405162461bcd60e51b815260206004820152603760248201527f436f6d6d756e6974793a3a7265717565737446756e64733a205468697320636f60448201527f6d6d756e6974792069732073656c662d66756e64696e6700000000000000000060648201526084016109fa565b61010860009054906101000a90046001600160a01b03166001600160a01b031663174a71d76040518163ffffffff1660e01b8152600401600060405180830381600087803b158015612c3157600080fd5b505af1158015612c45573d6000803e3d6000fd5b5050436101065550612c5790506134ce565b60405133907f16a8b794d4e2ed6ffef50d78af3d4372ce4bfe8a399bfc23f59b7832ee47539090600090a2565b6097546001600160a01b03163314612cae5760405162461bcd60e51b81526004016109fa90614f80565b806101016000828254612cc191906150da565b909155505050565b6097546001600160a01b03163314612cf35760405162461bcd60e51b81526004016109fa90614f80565b600260c9541415612d165760405162461bcd60e51b81526004016109fa90615030565b600260c955612d2f6001600160a01b0384168383613a4c565b612d37610e26565b6001600160a01b0316836001600160a01b03161415612d5857612d586134ce565b816001600160a01b0316836001600160a01b03167f9b035625e569d1d2bf54830a290aefba7ab11610ba8490871dc62b86b63a895683604051612d9d91815260200190565b60405180910390a35050600160c95550565b60fb5460ff1615612dd25760405162461bcd60e51b81526004016109fa90614f12565b612dea6000805160206151e88339815191523361241a565b612e065760405162461bcd60e51b81526004016109fa90614fb5565b610f7e8161401b565b612e276000805160206151e88339815191523361241a565b612e435760405162461bcd60e51b81526004016109fa90614fb5565b610f7e816139fc565b60fb5460ff1615612e6f5760405162461bcd60e51b81526004016109fa90614f12565b612e876000805160206151e88339815191523361241a565b612ea35760405162461bcd60e51b81526004016109fa90614fb5565b610f7e81613d4f565b60fb5460ff1615612ecf5760405162461bcd60e51b81526004016109fa90614f12565b612ee76000805160206151e88339815191523361241a565b612f035760405162461bcd60e51b81526004016109fa90614fb5565b610f7e816140a5565b6097546001600160a01b03163314612f365760405162461bcd60e51b81526004016109fa90614f80565b610108546040516001600160a01b038084169216907fdd8d3b7b0badfc5d636d48e71e28015b4b8554b64d2cffba6f0a90bf7693ec0090600090a361010880546001600160a01b0319166001600160a01b038316908117909155610f7e90613461565b60405162461bcd60e51b815260206004820152603b60248201527f436f6d6d756e6974793a3a7265766f6b65526f6c653a20596f7520617265206e60448201527f6f7420616c6c6f7720746f207573652074686973206d6574686f64000000000060648201526084016109fa565b60fb5460ff161561302a5760405162461bcd60e51b81526004016109fa90614f12565b600260c954141561304d5760405162461bcd60e51b81526004016109fa90615030565b600260c95561305d8383836137b1565b61306684613aaf565b5050600160c9555050565b600260c95414156130945760405162461bcd60e51b81526004016109fa90615030565b600260c9556130b88230836130a7610e26565b6001600160a01b031692919061412f565b8061010260008282546130cb91906150da565b909155506130d990506134ce565b60405181815233907f0553260a2e46b0577270d8992db02d30856ca880144c72d6e9503760946aef139060200160405180910390a25050600160c955565b6000610ec161010a613c97565b6097546001600160a01b0316331461314e5760405162461bcd60e51b81526004016109fa90614f80565b6001600160a01b0381166131b35760405162461bcd60e51b815260206004820152602660248201527f4f776e61626c653a206e6577206f776e657220697320746865207a65726f206160448201526564647265737360d01b60648201526084016109fa565b610f7e81613cad565b61010854604051636b0de23f60e01b81523060048201523360248201526001600160a01b0390911690636b0de23f9060440160206040518083038186803b15801561320657600080fd5b505afa15801561321a573d6000803e3d6000fd5b505050506040513d601f19601f8201168201806040525081019061323e9190614bd2565b61325a5760405162461bcd60e51b81526004016109fa90614f3d565b60fb805460ff1916600117905560405133907fe1e6bc10311f2f958d6cd2d0ab7308c32089aa1acb8ab11a2ccb60028e332bd090600090a2565b61010e5460009060028110156132ad5750506002015490565b600283015460006132bf600184615131565b90505b846003015461010e82815481106132e957634e487b7160e01b600052603260045260246000fd5b90600052602060002090600302016002015411156122e657670de0b6b3a764000061010e828154811061332c57634e487b7160e01b600052603260045260246000fd5b906000526020600020906003020160010154836133499190615112565b61335391906150f2565b91508061335f81615174565b9150506132c2565b600054610100900460ff1661338e5760405162461bcd60e51b81526004016109fa90614fe5565b613396614167565b61339e614167565b612322614167565b600054610100900460ff166133cd5760405162461bcd60e51b81526004016109fa90614fe5565b6133d5614167565b61232261418e565b600054610100900460ff166134045760405162461bcd60e51b81526004016109fa90614fe5565b6123226141be565b600082815260656020526040808220600101805490849055905190918391839186917fbd79b86ffe0ab8e8776151514217cd7cacd52c909f66475c3af44e129f0b00ff9190a4505050565b610fef82826141ec565b6134796000805160206151e88339815191528261241a565b610f7e576134956000805160206151e8833981519152826141ec565b6040516001600160a01b0382169033907f05a4006f300442cf8b7fdb885f5ee958812020bffb5c5a8e655fde64e5f987ed90600090a350565b60008061010860009054906101000a90046001600160a01b03166001600160a01b0316636b68b2ef6040518163ffffffff1660e01b815260040160206040518083038186803b15801561352057600080fd5b505afa158015613534573d6000803e3d6000fd5b505050506040513d601f19601f820116820180604052508101906135589190614d8d565b9050600061010860009054906101000a90046001600160a01b03166001600160a01b031663afae65be6040518163ffffffff1660e01b815260040160206040518083038186803b1580156135ab57600080fd5b505afa1580156135bf573d6000803e3d6000fd5b505050506040513d601f19601f820116820180604052508101906135e39190614d8d565b905061010054600014806135f8575061010554155b806136035750808211155b156136125760fc5492506136e2565b6101005461361e610e26565b6040516370a0823160e01b81523060048201526001600160a01b0391909116906370a082319060240160206040518083038186803b15801561365f57600080fd5b505afa158015613673573d6000803e3d6000fd5b505050506040513d601f19601f820116820180604052508101906136979190614d8d565b6136a191906150f2565b92506000828260fc546136b49190615112565b6136be91906150f2565b9050808410156136d0578093506136e0565b60fc548411156136e05760fc5493505b505b610111548314613730576101115460408051918252602082018590527fc22e16deec6f587d0a1aad7275c1621e6c24431fea14dd71e8f3243e9fbc5ca3910160405180910390a16101118390555b505050565b61373f828261241a565b15610fef5760008281526065602090815260408083206001600160a01b0385168085529252808320805460ff1916905551339285917ff6391f5c32d9c69d2a47ea670b442974b53935d1edc7fd64eb21e047a839171b9190a45050565b60006128fe836001600160a01b038416614272565b61010860009054906101000a90046001600160a01b03166001600160a01b031663af2d77f86040518163ffffffff1660e01b815260040160206040518083038186803b15801561380057600080fd5b505afa158015613814573d6000803e3d6000fd5b505050506040513d601f19601f820116820180604052508101906138389190614a10565b6001600160a01b0316336001600160a01b0316146138ad5760405162461bcd60e51b815260206004820152602c60248201527f436f6d6d756e6974793a2053656e646572206d7573742062652074686520626160448201526b18dad95b99081dd85b1b195d60a21b60648201526084016109fa565b428310156138fd5760405162461bcd60e51b815260206004820152601c60248201527f436f6d6d756e6974793a205369676e617475726520746f6f206f6c640000000060448201526064016109fa565b6040516bffffffffffffffffffffffff1933606090811b8216602084015230901b16603482015260488101849052600090606801604051602081830303815290604052805190602001209050600061399684848080601f01602080910402602001604051908101604052809392919081815260200183838082843760009201919091525061399092508691506142c19050565b90614314565b90506139b06000805160206151e88339815191528261241a565b6112005760405162461bcd60e51b815260206004820152601c60248201527f436f6d6d756e6974793a20496e76616c6964207369676e61747572650000000060448201526064016109fa565b80516000905b8082101561373057613a3a838381518110613a2d57634e487b7160e01b600052603260045260246000fd5b6020026020010151613bdf565b81613a448161518b565b925050613a02565b6040516001600160a01b03831660248201526044810182905261373090849063a9059cbb60e01b906064015b60408051601f198184030181529190526020810180516001600160e01b03166001600160e01b031990931692909217909152614330565b80516000905b8082101561373057613aed838381518110613ae057634e487b7160e01b600052603260045260246000fd5b6020026020010151613b66565b828281518110613b0d57634e487b7160e01b600052603260045260246000fd5b60200260200101516001600160a01b0316336001600160a01b03167fbb39c36a7502b7256e1a687254146a9a2ea7b146c77cb9e40eb0e2b8793781e160405160405180910390a381613b5e8161518b565b925050613ab5565b6001600160a01b03811660009081526101096020526040812090815460ff166003811115613ba457634e487b7160e01b600052602160045260246000fd5b14613bad575050565b613bb8816001613d9f565b436003820155613bca61010a8361379c565b50610fef82662386f26fc10000611f47610e26565b6001600160a01b0381166000908152610109602052604090206001815460ff166003811115613c1e57634e487b7160e01b600052602160045260246000fd5b1480613c4d57506002815460ff166003811115613c4b57634e487b7160e01b600052602160045260246000fd5b145b15610fef57613c5d816003613d9f565b6040516001600160a01b0383169033907f1a6590bd0cabbfcc7c86bef99e1034054e179905cfcc294598fcd426c092244290600090a35050565b6000610976825490565b60006128fe8383614402565b609780546001600160a01b038381166001600160a01b0319831681179093556040519116919082907f8be0079c531659141344cd1fd0a4f28419497f9722a3daafe3b4186f6b6457e090600090a35050565b80516000905b8082101561373057613d3d838381518110613d3057634e487b7160e01b600052603260045260246000fd5b602002602001015161401b565b81613d478161518b565b925050613d05565b80516000905b8082101561373057613d8d838381518110613d8057634e487b7160e01b600052603260045260246000fd5b60200260200101516140a5565b81613d978161518b565b925050613d55565b806003811115613dbf57634e487b7160e01b600052602160045260246000fd5b825460ff166003811115613de357634e487b7160e01b600052602160045260246000fd5b1415613ded575050565b6001816003811115613e0f57634e487b7160e01b600052602160045260246000fd5b1415613f895760fc546101035460ff54613e299190615131565b1015613e955760405162461bcd60e51b815260206004820152603560248201527f436f6d6d756e6974793a3a5f6368616e676542656e656669636961727953746160448201527474653a204d617820636c61696d20746f6f206c6f7760581b60648201526084016109fa565b61010d541580613eaa575061010d5461010054105b613f535760405162461bcd60e51b815260206004820152606860248201527f436f6d6d756e6974793a3a5f6368616e676542656e656669636961727953746160448201527f74653a205468697320636f6d6d756e697479206861732072656163686564207460648201527f6865206d6178696d756d206e756d626572206f662076616c69642062656e6566608482015267696369617269657360c01b60a482015260c4016109fa565b6101008054906000613f648361518b565b91905055506101035460ff6000828254613f7e9190615131565b90915550613fe69050565b6001825460ff166003811115613faf57634e487b7160e01b600052602160045260246000fd5b1415613fe6576101008054906000613fc683615174565b91905055506101035460ff6000828254613fe091906150da565b90915550505b81548190839060ff1916600183600381111561401257634e487b7160e01b600052602160045260246000fd5b02179055505050565b6001600160a01b0381166000908152610109602052604090206001815460ff16600381111561405a57634e487b7160e01b600052602160045260246000fd5b1415610fef5761406b816002613d9f565b6040516001600160a01b0383169033907f2b9ef93c7856b47a1b624fa3fcc4b651d388dd6d16327f3ad22b05f3da8b0f1590600090a35050565b6001600160a01b0381166000908152610109602052604090206002815460ff1660038111156140e457634e487b7160e01b600052602160045260246000fd5b1415610fef576140f5816001613d9f565b6040516001600160a01b0383169033907fa589fb4f2925123e7a030dd6bbe76be46a03f8ce0ea53a78dbb3383c7797db2c90600090a35050565b6040516001600160a01b0380851660248301528316604482015260648101829052611c1f9085906323b872dd60e01b90608401613a78565b600054610100900460ff166123225760405162461bcd60e51b81526004016109fa90614fe5565b600054610100900460ff166141b55760405162461bcd60e51b81526004016109fa90614fe5565b61232233613cad565b600054610100900460ff166141e55760405162461bcd60e51b81526004016109fa90614fe5565b600160c955565b6141f6828261241a565b610fef5760008281526065602090815260408083206001600160a01b03851684529091529020805460ff1916600117905561422e3390565b6001600160a01b0316816001600160a01b0316837f2f8788117e7eff1d82e926ec794901d17c78024a50270940304540a733656f0d60405160405180910390a45050565b60008181526001830160205260408120546142b957508154600181810184556000848152602080822090930184905584548482528286019093526040902091909155610976565b506000610976565b6040517f19457468657265756d205369676e6564204d6573736167653a0a3332000000006020820152603c8101829052600090605c01604051602081830303815290604052805190602001209050919050565b6000806000614323858561443a565b915091506122e6816144aa565b6000614385826040518060400160405280602081526020017f5361666545524332303a206c6f772d6c6576656c2063616c6c206661696c6564815250856001600160a01b03166146ab9092919063ffffffff16565b80519091501561373057808060200190518101906143a39190614bd2565b6137305760405162461bcd60e51b815260206004820152602a60248201527f5361666545524332303a204552433230206f7065726174696f6e20646964206e6044820152691bdd081cdd58d8d9595960b21b60648201526084016109fa565b600082600001828154811061442757634e487b7160e01b600052603260045260246000fd5b9060005260206000200154905092915050565b6000808251604114156144715760208301516040840151606085015160001a614465878285856146c2565b945094505050506144a3565b82516040141561449b57602083015160408401516144908683836147af565b9350935050506144a3565b506000905060025b9250929050565b60008160048111156144cc57634e487b7160e01b600052602160045260246000fd5b14156144d55750565b60018160048111156144f757634e487b7160e01b600052602160045260246000fd5b14156145455760405162461bcd60e51b815260206004820152601860248201527f45434453413a20696e76616c6964207369676e6174757265000000000000000060448201526064016109fa565b600281600481111561456757634e487b7160e01b600052602160045260246000fd5b14156145b55760405162461bcd60e51b815260206004820152601f60248201527f45434453413a20696e76616c6964207369676e6174757265206c656e6774680060448201526064016109fa565b60038160048111156145d757634e487b7160e01b600052602160045260246000fd5b14156146305760405162461bcd60e51b815260206004820152602260248201527f45434453413a20696e76616c6964207369676e6174757265202773272076616c604482015261756560f01b60648201526084016109fa565b600481600481111561465257634e487b7160e01b600052602160045260246000fd5b1415610f7e5760405162461bcd60e51b815260206004820152602260248201527f45434453413a20696e76616c6964207369676e6174757265202776272076616c604482015261756560f01b60648201526084016109fa565b60606146ba84846000856147de565b949350505050565b6000807f7fffffffffffffffffffffffffffffff5d576e7357a4501ddfe92f46681b20a08311156146f957506000905060036147a6565b8460ff16601b1415801561471157508460ff16601c14155b1561472257506000905060046147a6565b6040805160008082526020820180845289905260ff881692820192909252606081018690526080810185905260019060a0016020604051602081039080840390855afa158015614776573d6000803e3d6000fd5b5050604051601f1901519150506001600160a01b03811661479f576000600192509250506147a6565b9150600090505b94509492505050565b6000806001600160ff1b03831660ff84901c601b016147d0878288856146c2565b935093505050935093915050565b60608247101561483f5760405162461bcd60e51b815260206004820152602660248201527f416464726573733a20696e73756666696369656e742062616c616e636520666f6044820152651c8818d85b1b60d21b60648201526084016109fa565b843b61488d5760405162461bcd60e51b815260206004820152601d60248201527f416464726573733a2063616c6c20746f206e6f6e2d636f6e747261637400000060448201526064016109fa565b600080866001600160a01b031685876040516148a99190614e00565b60006040518083038185875af1925050503d80600081146148e6576040519150601f19603f3d011682016040523d82523d6000602084013e6148eb565b606091505b50915091506148fb828286614906565b979650505050505050565b606083156149155750816128fe565b8251156149255782518084602001fd5b8160405162461bcd60e51b81526004016109fa9190614edf565b803561494a816151d2565b919050565b600082601f83011261495f578081fd5b8135602067ffffffffffffffff8083111561497c5761497c6151bc565b8260051b604051601f19603f830116810181811084821117156149a1576149a16151bc565b604052848152838101925086840182880185018910156149bf578687fd5b8692505b858310156149e8576149d48161493f565b8452928401926001929092019184016149c3565b50979650505050505050565b600060208284031215614a05578081fd5b81356128fe816151d2565b600060208284031215614a21578081fd5b81516128fe816151d2565b60008060008060008060008060008060006101608c8e031215614a4d578687fd5b8b35614a58816151d2565b9a5060208c013567ffffffffffffffff811115614a73578788fd5b614a7f8e828f0161494f565b9a505060408c0135985060608c0135975060808c0135965060a08c0135955060c08c0135945060e08c013593506101008c013592506101208c013591506101408c0135614acb816151d2565b809150509295989b509295989b9093969950565b60008060408385031215614af1578182fd5b8235614afc816151d2565b946020939093013593505050565b600060208284031215614b1b578081fd5b813567ffffffffffffffff811115614b31578182fd5b6146ba8482850161494f565b60008060008060608587031215614b52578384fd5b843567ffffffffffffffff80821115614b69578586fd5b614b758883890161494f565b9550602087013594506040870135915080821115614b91578384fd5b818701915087601f830112614ba4578384fd5b813581811115614bb2578485fd5b886020828501011115614bc3578485fd5b95989497505060200194505050565b600060208284031215614be3578081fd5b815180151581146128fe578182fd5b600060208284031215614c03578081fd5b5035919050565b60008060408385031215614c1c578182fd5b823591506020830135614c2e816151d2565b809150509250929050565b600060208284031215614c4a578081fd5b81356001600160e01b0319811681146128fe578182fd5b600080600060608486031215614c75578081fd5b8335614c80816151d2565b92506020840135614c90816151d2565b929592945050506040919091013590565b60008060008060008060008060e0898b031215614cbc578182fd5b8835614cc7816151d2565b9750602089013567ffffffffffffffff80821115614ce3578384fd5b818b0191508b601f830112614cf6578384fd5b813581811115614d04578485fd5b8c60208260051b8501011115614d18578485fd5b999c6020929092019b50989960408101359950606081013598506080810135975060a0810135965060c00135945092505050565b60008060008060808587031215614d61578182fd5b845160048110614d6f578283fd5b60208601516040870151606090970151919890975090945092505050565b600060208284031215614d9e578081fd5b5051919050565b60008060408385031215614db7578182fd5b50508035926020909101359150565b600080600080600060a08688031215614ddd578283fd5b505083359560208501359550604085013594606081013594506080013592509050565b60008251614e12818460208701615148565b9190910192915050565b6020808252825182820181905260009190848201906040850190845b81811015614e5d5783516001600160a01b031683529284019291840191600101614e38565b50909695505050505050565b6020808252825182820181905260009190848201906040850190845b81811015614e5d57835183529284019291840191600101614e85565b6080810160048610614ec357634e487b7160e01b600052602160045260246000fd5b9481526020810193909352604083019190915260609091015290565b6020815260008251806020840152614efe816040850160208701615148565b601f01601f19169190910160400192915050565b60208082526011908201527010dbdb5b5d5b9a5d1e4e881b1bd8dad959607a1b604082015260600190565b60208082526023908201527f436f6d6d756e6974793a204e4f545f414d4241535341444f525f4f525f454e5460408201526249545960e81b606082015260800190565b6020808252818101527f4f776e61626c653a2063616c6c6572206973206e6f7420746865206f776e6572604082015260600190565b60208082526016908201527521b7b6b6bab734ba3c9d102727aa2fa6a0a720a3a2a960511b604082015260600190565b6020808252602b908201527f496e697469616c697a61626c653a20636f6e7472616374206973206e6f74206960408201526a6e697469616c697a696e6760a81b606082015260800190565b6020808252601f908201527f5265656e7472616e637947756172643a207265656e7472616e742063616c6c00604082015260600190565b868152602080820187905260a0604083018190528201859052600090869060c08401835b888110156150b957833561509e816151d2565b6001600160a01b03168252928201929082019060010161508b565b506001600160a01b0396909616606085015250505060800152949350505050565b600082198211156150ed576150ed6151a6565b500190565b60008261510d57634e487b7160e01b81526012600452602481fd5b500490565b600081600019048311821515161561512c5761512c6151a6565b500290565b600082821015615143576151436151a6565b500390565b60005b8381101561516357818101518382015260200161514b565b83811115611c1f5750506000910152565b600081615183576151836151a6565b506000190190565b600060001982141561519f5761519f6151a6565b5060010190565b634e487b7160e01b600052601160045260246000fd5b634e487b7160e01b600052604160045260246000fd5b6001600160a01b0381168114610f7e57600080fdfe241ecf16d79d0f8dbfb92cbc07fe17840425976cf0667f022fe9877caa831b08a2646970667358221220444a0eacae9680cb11857602406b626d8db0f66743a730b0dcad741131ad2df564736f6c63430008040033",
  "devdoc": {
    "events": {
      "BeneficiaryAdded(address,address)": {
        "params": {
          "beneficiary": "Address of the beneficiary that has been added",
          "manager": "Address of the manager that triggered the event"
        }
      },
      "BeneficiaryClaim(address,uint256)": {
        "params": {
          "amount": "Amount of the claim",
          "beneficiary": "Address of the beneficiary that has claimed"
        }
      },
      "BeneficiaryJoined(address)": {
        "params": {
          "beneficiary": "Address of the beneficiary"
        }
      },
      "BeneficiaryLocked(address,address)": {
        "params": {
          "beneficiary": "Address of the beneficiary that has been locked",
          "manager": "Address of the manager that triggered the event"
        }
      },
      "BeneficiaryParamsUpdated(uint256,uint256,uint256,uint256,uint256,uint256,uint256,uint256,uint256,uint256)": {
        "params": {
          "newBaseInterval": "New baseInterval value",
          "newDecreaseStep": "New decreaseStep value",
          "newIncrementInterval": "New incrementInterval value For further information regarding each parameter, see *Community* smart contract initialize method.",
          "newMaxTotalClaim": "New maxTotalClaim value",
          "newOriginalClaimAmount": "New originalClaimAmount value",
          "oldBaseInterval": "Old baseInterval value",
          "oldDecreaseStep": "Old decreaseStep value",
          "oldIncrementInterval": "Old incrementInterval value",
          "oldMaxTotalClaim": "Old maxTotalClaim value",
          "oldOriginalClaimAmount": "Old originalClaimAmount value"
        }
      },
      "BeneficiaryRemoved(address,address)": {
        "params": {
          "beneficiary": "Address of the beneficiary that has been removed",
          "manager": "Address of the manager that triggered the event"
        }
      },
      "BeneficiaryUnlocked(address,address)": {
        "params": {
          "beneficiary": "Address of the beneficiary that has been unlocked",
          "manager": "Address of the manager that triggered the event"
        }
      },
      "ClaimAmountUpdated(uint256,uint256)": {
        "params": {
          "newClaimAmount": "New claimAmount value",
          "oldClaimAmount": "Old claimAmount value"
        }
      },
      "CommunityAdminUpdated(address,address)": {
        "params": {
          "newCommunityAdmin": "New communityAdmin address",
          "oldCommunityAdmin": "Old communityAdmin address"
        }
      },
      "CommunityLocked(address)": {
        "params": {
          "manager": "Address of the manager that triggered the event"
        }
      },
      "CommunityParamsUpdated(uint256,uint256,uint256,uint256)": {
        "params": {
          "newMaxTranche": "New maxTranche value For further information regarding each parameter, see *Community* smart contract initialize method.",
          "newMinTranche": "New minTranche value",
          "oldMaxTranche": "Old maxTranche value",
          "oldMinTranche": "Old minTranche value"
        }
      },
      "CommunityUnlocked(address)": {
        "params": {
          "manager": "Address of the manager that triggered the event"
        }
      },
      "Donate(address,uint256)": {
        "params": {
          "amount": "Amount of the donation",
          "donor": "Address of the donor"
        }
      },
      "FundsRequested(address)": {
        "params": {
          "manager": "Address of the manager that triggered the event"
        }
      },
      "ManagerAdded(address,address)": {
        "params": {
          "account": "Address of the manager that has been added",
          "manager": "Address of the manager that triggered the event                          or address of the CommunityAdmin if it's first manager"
        }
      },
      "ManagerRemoved(address,address)": {
        "params": {
          "account": "Address of the manager that has been removed",
          "manager": "Address of the manager that triggered the event"
        }
      },
      "MaxBeneficiariesUpdated(uint256,uint256)": {
        "params": {
          "newMaxBeneficiaries": "New maxBeneficiaries value",
          "oldMaxBeneficiaries": "Old maxBeneficiaries value"
        }
      },
      "PreviousCommunityUpdated(address,address)": {
        "params": {
          "newPreviousCommunity": "New previousCommunity address",
          "oldPreviousCommunity": "Old previousCommunity address"
        }
      },
      "TokenUpdated(address,address)": {
        "params": {
          "newTokenAddress": "New token address",
          "oldTokenAddress": "Old token address"
        }
      },
      "TransferERC20(address,address,uint256)": {
        "params": {
          "amount": "Amount of the transaction",
          "to": "Address of the receiver",
          "token": "ERC20 token address"
        }
      }
    },
    "kind": "dev",
    "methods": {
      "addBeneficiaries(address[])": {
        "params": {
          "_beneficiaryAddresses": "addresses of the beneficiaries to be added"
        }
      },
      "addBeneficiariesUsingSignature(address[],uint256,bytes)": {
        "params": {
          "_beneficiaryAddresses": "addresses of the beneficiaries to be added",
          "_expirationTimestamp": "timestamp when the signature will expire/expired",
          "_signature": "the signature of a manager"
        }
      },
      "addBeneficiary(address)": {
        "params": {
          "_beneficiaryAddress": "address of the beneficiary to be added"
        }
      },
      "addManager(address)": {
        "params": {
          "_account": "address of the manager to be added"
        }
      },
      "addTreasuryFunds(uint256)": {
        "params": {
          "_amount": "amount to be added to treasuryFunds"
        }
      },
      "beneficiaries(address)": {
        "params": {
          "_beneficiaryAddress": "address of the beneficiary"
        },
        "returns": {
          "claimedAmount": "        the amount he has claimed",
          "claims": "               how many times the beneficiary has claimed",
          "lastClaim": "            block number of the last claim",
          "state": "                the status of the beneficiary"
        }
      },
      "beneficiaryClaimedAmounts(address)": {
        "params": {
          "_beneficiaryAddress": "address of the beneficiary"
        },
        "returns": {
          "claimedAmounts": "       a uint256 array with all claimed amounts in the same order as tokenList array"
        }
      },
      "beneficiaryListAt(uint256)": {
        "params": {
          "index_": "index value"
        },
        "returns": {
          "_0": "address of the beneficiary"
        }
      },
      "claim()": {
        "details": "Transfers tokens to a valid beneficiary"
      },
      "claimCooldown(address)": {
        "params": {
          "_beneficiaryAddress": "address of the beneficiary"
        },
        "returns": {
          "_0": "uint256 number of block when the beneficiary can claim"
        }
      },
      "donate(address,uint256)": {
        "params": {
          "_amount": "amount to be donated",
          "_sender": "address of the sender"
        }
      },
      "getRoleAdmin(bytes32)": {
        "details": "Returns the admin role that controls `role`. See {grantRole} and {revokeRole}. To change a role's admin, use {_setRoleAdmin}."
      },
      "hasRole(bytes32,address)": {
        "details": "Returns `true` if `account` has been granted `role`."
      },
      "initialize(address,address[],uint256,uint256,uint256,uint256,uint256,uint256,uint256,uint256,address)": {
        "params": {
          "_baseInterval": "Base interval to start claiming",
          "_decreaseStep": "Value decreased from maxTotalClaim each time a beneficiary is added",
          "_incrementInterval": "Increment interval used in each claim",
          "_managers": "Community's initial managers                             Will be able to add others",
          "_maxBeneficiaries": "Maximum valid beneficiaries number",
          "_maxTotalClaim": "Limit that a beneficiary can claim in total",
          "_maxTranche": "Maximum amount that the community will receive when requesting funds",
          "_minTranche": "Minimum amount that the community will receive when requesting funds",
          "_originalClaimAmount": "Maximum base amount to be claim by the beneficiary",
          "_previousCommunity": "Previous smart contract address of community",
          "_tokenAddress": "Address of the token used by the community"
        }
      },
      "lastInterval(address)": {
        "params": {
          "_beneficiaryAddress": "address of the beneficiary"
        },
        "returns": {
          "_0": "uint256 number of blocks for the lastInterval"
        }
      },
      "lockBeneficiaries(address[])": {
        "params": {
          "_beneficiaryAddresses": "addresses of the beneficiaries to be locked"
        }
      },
      "lockBeneficiariesUsingSignature(address[],uint256,bytes)": {
        "params": {
          "_beneficiaryAddresses": "addresses of the beneficiaries to be locked",
          "_expirationTimestamp": "timestamp when the signature will expire/expired",
          "_signature": "the signature of a manager"
        }
      },
      "lockBeneficiary(address)": {
        "params": {
          "_beneficiaryAddress": "address of the beneficiary to be locked"
        }
      },
      "owner()": {
        "details": "Returns the address of the current owner."
      },
      "removeBeneficiaries(address[])": {
        "params": {
          "_beneficiaryAddresses": "addresses of the beneficiaries to be removed"
        }
      },
      "removeBeneficiariesUsingSignature(address[],uint256,bytes)": {
        "params": {
          "_beneficiaryAddresses": "addresses of the beneficiaries to be removed",
          "_expirationTimestamp": "timestamp when the signature will expire/expired",
          "_signature": "the signature of a manager"
        }
      },
      "removeBeneficiary(address)": {
        "params": {
          "_beneficiaryAddress": "address of the beneficiary to be removed"
        }
      },
      "removeManager(address)": {
        "params": {
          "_account": "address of the manager to be removed"
        }
      },
      "renounceOwnership()": {
        "details": "Leaves the contract without owner. It will not be possible to call `onlyOwner` functions anymore. Can only be called by the current owner. NOTE: Renouncing ownership will leave the contract without an owner, thereby removing any functionality that is only available to the owner."
      },
      "renounceRole(bytes32,address)": {
        "details": "Revokes `role` from the calling account. Roles are often managed via {grantRole} and {revokeRole}: this function's purpose is to provide a mechanism for accounts to lose their privileges if they are compromised (such as when a trusted device is misplaced). If the calling account had been revoked `role`, emits a {RoleRevoked} event. Requirements: - the caller must be `account`."
      },
      "supportsInterface(bytes4)": {
        "details": "See {IERC165-supportsInterface}."
      },
      "transfer(address,address,uint256)": {
        "params": {
          "_amount": "amount of the transaction",
          "_to": "address of the receiver",
          "_token": "address of the ERC20 token"
        }
      },
      "transferOwnership(address)": {
        "details": "Transfers ownership of the contract to a new account (`newOwner`). Can only be called by the current owner."
      },
      "unlockBeneficiaries(address[])": {
        "params": {
          "_beneficiaryAddresses": "addresses of the beneficiaries to be unlocked"
        }
      },
      "unlockBeneficiariesUsingSignature(address[],uint256,bytes)": {
        "params": {
          "_beneficiaryAddresses": "addresses of the beneficiaries to be unlocked",
          "_expirationTimestamp": "timestamp when the signature will expire/expired",
          "_signature": "the signature of a manager"
        }
      },
      "unlockBeneficiary(address)": {
        "params": {
          "_beneficiaryAddress": "address of the beneficiary to be unlocked"
        }
      },
      "updateBeneficiaryParams(uint256,uint256,uint256,uint256,uint256)": {
        "params": {
          "_baseInterval": "base interval to start claiming",
          "_decreaseStep": "value decreased from maxTotalClaim each time a is beneficiary added",
          "_incrementInterval": "increment interval used in each claim",
          "_maxTotalClaim": "limit that a beneficiary can claim  in total",
          "_originalClaimAmount": "maximum base amount to be claim by the beneficiary"
        }
      },
      "updateCommunityAdmin(address)": {
        "params": {
          "_newCommunityAdmin": "address of the new communityAdmin"
        }
      },
      "updateCommunityParams(uint256,uint256)": {
        "params": {
          "_maxTranche": "maximum amount that the community will receive when requesting funds",
          "_minTranche": "minimum amount that the community will receive when requesting funds"
        }
      },
      "updateMaxBeneficiaries(uint256)": {
        "params": {
          "_newMaxBeneficiaries": "new _maxBeneficiaries value"
        }
      },
      "updatePreviousCommunity(address)": {
        "params": {
          "_newPreviousCommunity": "address of the new previousCommunity"
        }
      }
    },
    "version": 1
  },
  "userdoc": {
    "events": {
      "BeneficiaryAdded(address,address)": {
        "notice": "Triggered when a beneficiary has been added"
      },
      "BeneficiaryClaim(address,uint256)": {
        "notice": "Triggered when a beneficiary has claimed"
      },
      "BeneficiaryJoined(address)": {
        "notice": "Triggered when a beneficiary from previous community has joined in the current community"
      },
      "BeneficiaryLocked(address,address)": {
        "notice": "Triggered when a beneficiary has been locked"
      },
      "BeneficiaryParamsUpdated(uint256,uint256,uint256,uint256,uint256,uint256,uint256,uint256,uint256,uint256)": {
        "notice": "Triggered when beneficiary params has been updated"
      },
      "BeneficiaryRemoved(address,address)": {
        "notice": "Triggered when a beneficiary has been removed"
      },
      "BeneficiaryUnlocked(address,address)": {
        "notice": "Triggered when a beneficiary has been unlocked"
      },
      "ClaimAmountUpdated(uint256,uint256)": {
        "notice": "Triggered when claimAmount has been changed"
      },
      "CommunityAdminUpdated(address,address)": {
        "notice": "Triggered when communityAdmin has been updated"
      },
      "CommunityLocked(address)": {
        "notice": "Triggered when a community has been locked"
      },
      "CommunityParamsUpdated(uint256,uint256,uint256,uint256)": {
        "notice": "Triggered when community params has been updated"
      },
      "CommunityUnlocked(address)": {
        "notice": "Triggered when a community has been unlocked"
      },
      "Donate(address,uint256)": {
        "notice": "Triggered when someone has donated token"
      },
      "FundsRequested(address)": {
        "notice": "Triggered when a manager has requested funds for community"
      },
      "ManagerAdded(address,address)": {
        "notice": "Triggered when a manager has been added"
      },
      "ManagerRemoved(address,address)": {
        "notice": "Triggered when a manager has been removed"
      },
      "MaxBeneficiariesUpdated(uint256,uint256)": {
        "notice": "Triggered when maxBeneficiaries has been updated"
      },
      "PreviousCommunityUpdated(address,address)": {
        "notice": "Triggered when previousCommunity has been updated"
      },
      "TokenUpdated(address,address)": {
        "notice": "Triggered when token address has been updated"
      },
      "TransferERC20(address,address,uint256)": {
        "notice": "Triggered when an amount of an ERC20 has been transferred from this contract to an address"
      }
    },
    "kind": "user",
    "methods": {
      "addBeneficiaries(address[])": {
        "notice": "Adds new beneficiaries"
      },
      "addBeneficiariesUsingSignature(address[],uint256,bytes)": {
        "notice": "Adds new beneficiaries using a manager signature"
      },
      "addBeneficiary(address)": {
        "notice": "Adds a new beneficiary"
      },
      "addManager(address)": {
        "notice": "Adds a new manager"
      },
      "addTreasuryFunds(uint256)": {
        "notice": "Increases the treasuryFunds value Used by communityAdmin after an amount of tokens are sent from the treasury"
      },
      "beneficiaries(address)": {
        "notice": "Returns the data of a beneficiary"
      },
      "beneficiaryClaimedAmounts(address)": {
        "notice": "Returns the beneficiary's claimed amounts for each token"
      },
      "beneficiaryJoinFromMigrated(address)": {
        "notice": "Allows a beneficiary from the previousCommunity to join in this community"
      },
      "beneficiaryListAt(uint256)": {
        "notice": "Returns an address from the beneficiaryList"
      },
      "beneficiaryListLength()": {
        "notice": "Returns the length of the beneficiaryList"
      },
      "cUSD()": {
        "notice": "Returns the cUSD contract address todo: to be removed, use token() instead"
      },
      "claimCooldown(address)": {
        "notice": "Returns the block number when a beneficiary can claim again"
      },
      "donate(address,uint256)": {
        "notice": "Transfers tokens from donor to this community Used by donationToCommunity method from DonationMiner contract"
      },
      "getInitialMaxClaim()": {
        "notice": "Returns the initial maxTotalClaim todo: do be deleted after updating all communities to v3"
      },
      "getInitialMaxTotalClaim()": {
        "notice": "Returns the initial maxTotalClaim"
      },
      "getVersion()": {
        "notice": "Returns the current implementation version"
      },
      "grantRole(bytes32,address)": {
        "notice": "Enforces managers to use addManager method"
      },
      "impactMarketAddress()": {
        "notice": "Returns the 0 address only used for backwards compatibility"
      },
      "initialize(address,address[],uint256,uint256,uint256,uint256,uint256,uint256,uint256,uint256,address)": {
        "notice": "Used to initialize a new Community contract"
      },
      "lastInterval(address)": {
        "notice": "Returns the number of blocks that a beneficiary have to wait between claims"
      },
      "lock()": {
        "notice": "Locks the community"
      },
      "lockBeneficiaries(address[])": {
        "notice": "Locks a list of beneficiaries"
      },
      "lockBeneficiariesUsingSignature(address[],uint256,bytes)": {
        "notice": "Locks a list of beneficiaries using a manager signature"
      },
      "lockBeneficiary(address)": {
        "notice": "Locks a valid beneficiary"
      },
      "maxClaim()": {
        "notice": "Returns the amount that can be claimed by a beneficiary in total todo: remove it after the frontend is updated to the new function: maxTotalClaim()"
      },
      "removeBeneficiaries(address[])": {
        "notice": "Removes a list of beneficiaries"
      },
      "removeBeneficiariesUsingSignature(address[],uint256,bytes)": {
        "notice": "Removes a list of beneficiaries using a manager signature"
      },
      "removeBeneficiary(address)": {
        "notice": "Remove an existing beneficiary"
      },
      "removeManager(address)": {
        "notice": "Remove an existing manager"
      },
      "requestFunds()": {
        "notice": "Requests treasury funds from the communityAdmin"
      },
      "revokeRole(bytes32,address)": {
        "notice": "Enforces managers to use removeManager method"
      },
      "token()": {
        "notice": "Returns the address of the token used by this community"
      },
      "tokensLength()": {
        "notice": "Returns the length of the tokenList"
      },
      "transfer(address,address,uint256)": {
        "notice": "Transfers an amount of an ERC20 from this contract to an address"
      },
      "unlock()": {
        "notice": "Unlocks the community"
      },
      "unlockBeneficiaries(address[])": {
        "notice": "Unlocks a list of beneficiaries"
      },
      "unlockBeneficiariesUsingSignature(address[],uint256,bytes)": {
        "notice": "Unlocks a list of beneficiaries using a manager signature"
      },
      "unlockBeneficiary(address)": {
        "notice": "Unlocks a locked beneficiary"
      },
      "updateBeneficiaryParams(uint256,uint256,uint256,uint256,uint256)": {
        "notice": "Updates beneficiary paramsbe aware that max claim will not be the same with the value you've provided             maxTotalClaim = _maxTotalClaim - validBeneficiaryCount * _decreaseStep"
      },
      "updateCommunityAdmin(address)": {
        "notice": "Updates the address of the communityAdmin"
      },
      "updateCommunityParams(uint256,uint256)": {
        "notice": "Updates params of a community"
      },
      "updateMaxBeneficiaries(uint256)": {
        "notice": "Updates maxBeneficiaries"
      },
      "updatePreviousCommunity(address)": {
        "notice": "Updates the address of the previousCommunity"
      },
      "updateToken(address,address[],uint256,uint256,uint256,uint256,uint256)": {
        "notice": "Updates token address   !!!!!! you must be careful about _maxTotalClaim value. This value determines all beneficiaries claimedAmounts"
      }
    },
    "notice": "Welcome to the Community contract. For each community there will be one proxy contract deployed by CommunityAdmin. The implementation of the proxy is this contract. This enable us to save tokens on the contract itself, and avoid the problems of having everything in one single contract. Each community has it's own members and and managers.",
    "version": 1
  },
  "storageLayout": {
    "storage": [
      {
        "astId": 542,
        "contract": "contracts/community/CommunityImplementation.sol:CommunityImplementation",
        "label": "_initialized",
        "offset": 0,
        "slot": "0",
        "type": "t_bool"
      },
      {
        "astId": 545,
        "contract": "contracts/community/CommunityImplementation.sol:CommunityImplementation",
        "label": "_initializing",
        "offset": 1,
        "slot": "0",
        "type": "t_bool"
      },
      {
        "astId": 1370,
        "contract": "contracts/community/CommunityImplementation.sol:CommunityImplementation",
        "label": "__gap",
        "offset": 0,
        "slot": "1",
        "type": "t_array(t_uint256)50_storage"
      },
      {
        "astId": 1619,
        "contract": "contracts/community/CommunityImplementation.sol:CommunityImplementation",
        "label": "__gap",
        "offset": 0,
        "slot": "51",
        "type": "t_array(t_uint256)50_storage"
      },
      {
        "astId": 48,
        "contract": "contracts/community/CommunityImplementation.sol:CommunityImplementation",
        "label": "_roles",
        "offset": 0,
        "slot": "101",
        "type": "t_mapping(t_bytes32,t_struct(RoleData)43_storage)"
      },
      {
        "astId": 335,
        "contract": "contracts/community/CommunityImplementation.sol:CommunityImplementation",
        "label": "__gap",
        "offset": 0,
        "slot": "102",
        "type": "t_array(t_uint256)49_storage"
      },
      {
        "astId": 420,
        "contract": "contracts/community/CommunityImplementation.sol:CommunityImplementation",
        "label": "_owner",
        "offset": 0,
        "slot": "151",
        "type": "t_address"
      },
      {
        "astId": 534,
        "contract": "contracts/community/CommunityImplementation.sol:CommunityImplementation",
        "label": "__gap",
        "offset": 0,
        "slot": "152",
        "type": "t_array(t_uint256)49_storage"
      },
      {
        "astId": 736,
        "contract": "contracts/community/CommunityImplementation.sol:CommunityImplementation",
        "label": "_status",
        "offset": 0,
        "slot": "201",
        "type": "t_uint256"
      },
      {
        "astId": 779,
        "contract": "contracts/community/CommunityImplementation.sol:CommunityImplementation",
        "label": "__gap",
        "offset": 0,
        "slot": "202",
        "type": "t_array(t_uint256)49_storage"
      },
      {
        "astId": 13468,
        "contract": "contracts/community/CommunityImplementation.sol:CommunityImplementation",
        "label": "locked",
        "offset": 0,
        "slot": "251",
        "type": "t_bool"
      },
      {
        "astId": 13471,
        "contract": "contracts/community/CommunityImplementation.sol:CommunityImplementation",
        "label": "originalClaimAmount",
        "offset": 0,
        "slot": "252",
        "type": "t_uint256"
      },
      {
        "astId": 13474,
        "contract": "contracts/community/CommunityImplementation.sol:CommunityImplementation",
        "label": "baseInterval",
        "offset": 0,
        "slot": "253",
        "type": "t_uint256"
      },
      {
        "astId": 13477,
        "contract": "contracts/community/CommunityImplementation.sol:CommunityImplementation",
        "label": "incrementInterval",
        "offset": 0,
        "slot": "254",
        "type": "t_uint256"
      },
      {
        "astId": 13480,
        "contract": "contracts/community/CommunityImplementation.sol:CommunityImplementation",
        "label": "maxTotalClaim",
        "offset": 0,
        "slot": "255",
        "type": "t_uint256"
      },
      {
        "astId": 13483,
        "contract": "contracts/community/CommunityImplementation.sol:CommunityImplementation",
        "label": "validBeneficiaryCount",
        "offset": 0,
        "slot": "256",
        "type": "t_uint256"
      },
      {
        "astId": 13486,
        "contract": "contracts/community/CommunityImplementation.sol:CommunityImplementation",
        "label": "treasuryFunds",
        "offset": 0,
        "slot": "257",
        "type": "t_uint256"
      },
      {
        "astId": 13489,
        "contract": "contracts/community/CommunityImplementation.sol:CommunityImplementation",
        "label": "privateFunds",
        "offset": 0,
        "slot": "258",
        "type": "t_uint256"
      },
      {
        "astId": 13492,
        "contract": "contracts/community/CommunityImplementation.sol:CommunityImplementation",
        "label": "decreaseStep",
        "offset": 0,
        "slot": "259",
        "type": "t_uint256"
      },
      {
        "astId": 13495,
        "contract": "contracts/community/CommunityImplementation.sol:CommunityImplementation",
        "label": "minTranche",
        "offset": 0,
        "slot": "260",
        "type": "t_uint256"
      },
      {
        "astId": 13498,
        "contract": "contracts/community/CommunityImplementation.sol:CommunityImplementation",
        "label": "maxTranche",
        "offset": 0,
        "slot": "261",
        "type": "t_uint256"
      },
      {
        "astId": 13501,
        "contract": "contracts/community/CommunityImplementation.sol:CommunityImplementation",
        "label": "lastFundRequest",
        "offset": 0,
        "slot": "262",
        "type": "t_uint256"
      },
      {
        "astId": 13505,
        "contract": "contracts/community/CommunityImplementation.sol:CommunityImplementation",
        "label": "previousCommunity",
        "offset": 0,
        "slot": "263",
        "type": "t_contract(ICommunity)13987"
      },
      {
        "astId": 13509,
        "contract": "contracts/community/CommunityImplementation.sol:CommunityImplementation",
        "label": "communityAdmin",
        "offset": 0,
        "slot": "264",
        "type": "t_contract(ICommunityAdmin)14298"
      },
      {
        "astId": 13514,
        "contract": "contracts/community/CommunityImplementation.sol:CommunityImplementation",
        "label": "_beneficiaries",
        "offset": 0,
        "slot": "265",
        "type": "t_mapping(t_address,t_struct(Beneficiary)13574_storage)"
      },
      {
        "astId": 13517,
        "contract": "contracts/community/CommunityImplementation.sol:CommunityImplementation",
        "label": "beneficiaryList",
        "offset": 0,
        "slot": "266",
        "type": "t_struct(AddressSet)5505_storage"
      },
      {
        "astId": 13527,
        "contract": "contracts/community/CommunityImplementation.sol:CommunityImplementation",
        "label": "_token",
        "offset": 0,
        "slot": "268",
        "type": "t_contract(IERC20Upgradeable)858"
      },
      {
        "astId": 13530,
        "contract": "contracts/community/CommunityImplementation.sol:CommunityImplementation",
        "label": "maxBeneficiaries",
        "offset": 0,
        "slot": "269",
        "type": "t_uint256"
      },
      {
        "astId": 13542,
        "contract": "contracts/community/CommunityImplementation.sol:CommunityImplementation",
        "label": "tokens",
        "offset": 0,
        "slot": "270",
        "type": "t_array(t_struct(Token)13581_storage)dyn_storage"
      },
      {
        "astId": 13545,
        "contract": "contracts/community/CommunityImplementation.sol:CommunityImplementation",
        "label": "_tokenList",
        "offset": 0,
        "slot": "271",
        "type": "t_struct(AddressSet)5505_storage"
      },
      {
        "astId": 13548,
        "contract": "contracts/community/CommunityImplementation.sol:CommunityImplementation",
        "label": "claimAmount",
        "offset": 0,
        "slot": "273",
        "type": "t_uint256"
      }
    ],
    "types": {
      "t_address": {
        "encoding": "inplace",
        "label": "address",
        "numberOfBytes": "20"
      },
      "t_array(t_bytes32)dyn_storage": {
        "base": "t_bytes32",
        "encoding": "dynamic_array",
        "label": "bytes32[]",
        "numberOfBytes": "32"
      },
      "t_array(t_struct(Token)13581_storage)dyn_storage": {
        "base": "t_struct(Token)13581_storage",
        "encoding": "dynamic_array",
        "label": "struct ICommunity.Token[]",
        "numberOfBytes": "32"
      },
      "t_array(t_uint256)49_storage": {
        "base": "t_uint256",
        "encoding": "inplace",
        "label": "uint256[49]",
        "numberOfBytes": "1568"
      },
      "t_array(t_uint256)50_storage": {
        "base": "t_uint256",
        "encoding": "inplace",
        "label": "uint256[50]",
        "numberOfBytes": "1600"
      },
      "t_bool": {
        "encoding": "inplace",
        "label": "bool",
        "numberOfBytes": "1"
      },
      "t_bytes32": {
        "encoding": "inplace",
        "label": "bytes32",
        "numberOfBytes": "32"
      },
      "t_contract(ICommunity)13987": {
        "encoding": "inplace",
        "label": "contract ICommunity",
        "numberOfBytes": "20"
      },
      "t_contract(ICommunityAdmin)14298": {
        "encoding": "inplace",
        "label": "contract ICommunityAdmin",
        "numberOfBytes": "20"
      },
      "t_contract(IERC20Upgradeable)858": {
        "encoding": "inplace",
        "label": "contract IERC20Upgradeable",
        "numberOfBytes": "20"
      },
      "t_enum(BeneficiaryState)13560": {
        "encoding": "inplace",
        "label": "enum ICommunity.BeneficiaryState",
        "numberOfBytes": "1"
      },
      "t_mapping(t_address,t_bool)": {
        "encoding": "mapping",
        "key": "t_address",
        "label": "mapping(address => bool)",
        "numberOfBytes": "32",
        "value": "t_bool"
      },
      "t_mapping(t_address,t_struct(Beneficiary)13574_storage)": {
        "encoding": "mapping",
        "key": "t_address",
        "label": "mapping(address => struct ICommunity.Beneficiary)",
        "numberOfBytes": "32",
        "value": "t_struct(Beneficiary)13574_storage"
      },
      "t_mapping(t_address,t_uint256)": {
        "encoding": "mapping",
        "key": "t_address",
        "label": "mapping(address => uint256)",
        "numberOfBytes": "32",
        "value": "t_uint256"
      },
      "t_mapping(t_bytes32,t_struct(RoleData)43_storage)": {
        "encoding": "mapping",
        "key": "t_bytes32",
        "label": "mapping(bytes32 => struct AccessControlUpgradeable.RoleData)",
        "numberOfBytes": "32",
        "value": "t_struct(RoleData)43_storage"
      },
      "t_mapping(t_bytes32,t_uint256)": {
        "encoding": "mapping",
        "key": "t_bytes32",
        "label": "mapping(bytes32 => uint256)",
        "numberOfBytes": "32",
        "value": "t_uint256"
      },
      "t_struct(AddressSet)5505_storage": {
        "encoding": "inplace",
        "label": "struct EnumerableSet.AddressSet",
        "members": [
          {
            "astId": 5504,
            "contract": "contracts/community/CommunityImplementation.sol:CommunityImplementation",
            "label": "_inner",
            "offset": 0,
            "slot": "0",
            "type": "t_struct(Set)5204_storage"
          }
        ],
        "numberOfBytes": "64"
      },
      "t_struct(Beneficiary)13574_storage": {
        "encoding": "inplace",
        "label": "struct ICommunity.Beneficiary",
        "members": [
          {
            "astId": 13563,
            "contract": "contracts/community/CommunityImplementation.sol:CommunityImplementation",
            "label": "state",
            "offset": 0,
            "slot": "0",
            "type": "t_enum(BeneficiaryState)13560"
          },
          {
            "astId": 13565,
            "contract": "contracts/community/CommunityImplementation.sol:CommunityImplementation",
            "label": "claims",
            "offset": 0,
            "slot": "1",
            "type": "t_uint256"
          },
          {
            "astId": 13567,
            "contract": "contracts/community/CommunityImplementation.sol:CommunityImplementation",
            "label": "claimedAmount",
            "offset": 0,
            "slot": "2",
            "type": "t_uint256"
          },
          {
            "astId": 13569,
            "contract": "contracts/community/CommunityImplementation.sol:CommunityImplementation",
            "label": "lastClaim",
            "offset": 0,
            "slot": "3",
            "type": "t_uint256"
          },
          {
            "astId": 13573,
            "contract": "contracts/community/CommunityImplementation.sol:CommunityImplementation",
            "label": "claimedAmounts",
            "offset": 0,
            "slot": "4",
            "type": "t_mapping(t_address,t_uint256)"
          }
        ],
        "numberOfBytes": "160"
      },
      "t_struct(RoleData)43_storage": {
        "encoding": "inplace",
        "label": "struct AccessControlUpgradeable.RoleData",
        "members": [
          {
            "astId": 40,
            "contract": "contracts/community/CommunityImplementation.sol:CommunityImplementation",
            "label": "members",
            "offset": 0,
            "slot": "0",
            "type": "t_mapping(t_address,t_bool)"
          },
          {
            "astId": 42,
            "contract": "contracts/community/CommunityImplementation.sol:CommunityImplementation",
            "label": "adminRole",
            "offset": 0,
            "slot": "1",
            "type": "t_bytes32"
          }
        ],
        "numberOfBytes": "64"
      },
      "t_struct(Set)5204_storage": {
        "encoding": "inplace",
        "label": "struct EnumerableSet.Set",
        "members": [
          {
            "astId": 5199,
            "contract": "contracts/community/CommunityImplementation.sol:CommunityImplementation",
            "label": "_values",
            "offset": 0,
            "slot": "0",
            "type": "t_array(t_bytes32)dyn_storage"
          },
          {
            "astId": 5203,
            "contract": "contracts/community/CommunityImplementation.sol:CommunityImplementation",
            "label": "_indexes",
            "offset": 0,
            "slot": "1",
            "type": "t_mapping(t_bytes32,t_uint256)"
          }
        ],
        "numberOfBytes": "64"
      },
      "t_struct(Token)13581_storage": {
        "encoding": "inplace",
        "label": "struct ICommunity.Token",
        "members": [
          {
            "astId": 13576,
            "contract": "contracts/community/CommunityImplementation.sol:CommunityImplementation",
            "label": "tokenAddress",
            "offset": 0,
            "slot": "0",
            "type": "t_address"
          },
          {
            "astId": 13578,
            "contract": "contracts/community/CommunityImplementation.sol:CommunityImplementation",
            "label": "ratio",
            "offset": 0,
            "slot": "1",
            "type": "t_uint256"
          },
          {
            "astId": 13580,
            "contract": "contracts/community/CommunityImplementation.sol:CommunityImplementation",
            "label": "startBlock",
            "offset": 0,
            "slot": "2",
            "type": "t_uint256"
          }
        ],
        "numberOfBytes": "96"
      },
      "t_uint256": {
        "encoding": "inplace",
        "label": "uint256",
        "numberOfBytes": "32"
      }
    }
  }
}