{
  "address": "0xF9163f95DF91ad103659cb7C8936Aceb63c7E410",
  "abi": [
    {
      "anonymous": false,
      "inputs": [
        {
          "indexed": true,
          "internalType": "address",
          "name": "depositorAddress",
          "type": "address"
        },
        {
          "indexed": true,
          "internalType": "address",
          "name": "token",
          "type": "address"
        },
        {
          "indexed": false,
          "internalType": "uint256",
          "name": "amount",
          "type": "uint256"
        }
      ],
      "name": "DepositAdded",
      "type": "event"
    },
    {
      "anonymous": false,
      "inputs": [
        {
          "indexed": true,
          "internalType": "address",
          "name": "depositorAddress",
          "type": "address"
        },
        {
          "indexed": true,
          "internalType": "address",
          "name": "token",
          "type": "address"
        },
        {
          "indexed": false,
          "internalType": "uint256",
          "name": "amount",
          "type": "uint256"
        },
        {
          "indexed": false,
          "internalType": "uint256",
          "name": "interest",
          "type": "uint256"
        }
      ],
      "name": "DonateInterest",
      "type": "event"
    },
    {
      "anonymous": false,
      "inputs": [
        {
          "indexed": true,
          "internalType": "address",
          "name": "oldDonationMiner",
          "type": "address"
        },
        {
          "indexed": true,
          "internalType": "address",
          "name": "newDonationMiner",
          "type": "address"
        }
      ],
      "name": "DonationMinerUpdated",
      "type": "event"
    },
    {
      "anonymous": false,
      "inputs": [
        {
          "indexed": true,
          "internalType": "address",
          "name": "oldLendingPool",
          "type": "address"
        },
        {
          "indexed": true,
          "internalType": "address",
          "name": "newLendingPool",
          "type": "address"
        }
      ],
      "name": "LendingPoolUpdated",
      "type": "event"
    },
    {
      "anonymous": false,
      "inputs": [
        {
          "indexed": true,
          "internalType": "address",
          "name": "previousOwner",
          "type": "address"
        },
        {
          "indexed": true,
          "internalType": "address",
          "name": "newOwner",
          "type": "address"
        }
      ],
      "name": "OwnershipTransferred",
      "type": "event"
    },
    {
      "anonymous": false,
      "inputs": [
        {
          "indexed": false,
          "internalType": "address",
          "name": "account",
          "type": "address"
        }
      ],
      "name": "Paused",
      "type": "event"
    },
    {
      "anonymous": false,
      "inputs": [
        {
          "indexed": true,
          "internalType": "address",
          "name": "tokenAddress",
          "type": "address"
        }
      ],
      "name": "TokenAdded",
      "type": "event"
    },
    {
      "anonymous": false,
      "inputs": [
        {
          "indexed": true,
          "internalType": "address",
          "name": "tokenAddress",
          "type": "address"
        }
      ],
      "name": "TokenRemoved",
      "type": "event"
    },
    {
      "anonymous": false,
      "inputs": [
        {
          "indexed": true,
          "internalType": "address",
          "name": "oldTreasury",
          "type": "address"
        },
        {
          "indexed": true,
          "internalType": "address",
          "name": "newTreasury",
          "type": "address"
        }
      ],
      "name": "TreasuryUpdated",
      "type": "event"
    },
    {
      "anonymous": false,
      "inputs": [
        {
          "indexed": false,
          "internalType": "address",
          "name": "account",
          "type": "address"
        }
      ],
      "name": "Unpaused",
      "type": "event"
    },
    {
      "anonymous": false,
      "inputs": [
        {
          "indexed": true,
          "internalType": "address",
          "name": "depositorAddress",
          "type": "address"
        },
        {
          "indexed": true,
          "internalType": "address",
          "name": "token",
          "type": "address"
        },
        {
          "indexed": false,
          "internalType": "uint256",
          "name": "amount",
          "type": "uint256"
        },
        {
          "indexed": false,
          "internalType": "uint256",
          "name": "interest",
          "type": "uint256"
        }
      ],
      "name": "Withdraw",
      "type": "event"
    },
    {
      "inputs": [
        {
          "internalType": "address",
          "name": "_tokenAddress",
          "type": "address"
        }
      ],
      "name": "addToken",
      "outputs": [],
      "stateMutability": "nonpayable",
      "type": "function"
    },
    {
      "inputs": [
        {
          "internalType": "address",
          "name": "_tokenAddress",
          "type": "address"
        },
        {
          "internalType": "uint256",
          "name": "_amount",
          "type": "uint256"
        }
      ],
      "name": "deposit",
      "outputs": [],
      "stateMutability": "nonpayable",
      "type": "function"
    },
    {
      "inputs": [
        {
          "internalType": "address",
          "name": "_depositorAddress",
          "type": "address"
        },
        {
          "internalType": "address",
          "name": "_tokenAddress",
          "type": "address"
        },
        {
          "internalType": "uint256",
          "name": "_amount",
          "type": "uint256"
        }
      ],
      "name": "donateInterest",
      "outputs": [],
      "stateMutability": "nonpayable",
      "type": "function"
    },
    {
      "inputs": [],
      "name": "donationMiner",
      "outputs": [
        {
          "internalType": "contract IDonationMiner",
          "name": "",
          "type": "address"
        }
      ],
      "stateMutability": "view",
      "type": "function"
    },
    {
      "inputs": [],
      "name": "getVersion",
      "outputs": [
        {
          "internalType": "uint256",
          "name": "",
          "type": "uint256"
        }
      ],
      "stateMutability": "pure",
      "type": "function"
    },
    {
      "inputs": [
        {
          "internalType": "contract ITreasury",
          "name": "_treasury",
          "type": "address"
        },
        {
          "internalType": "contract IDonationMiner",
          "name": "_donationMiner",
          "type": "address"
        },
        {
          "internalType": "contract ILendingPool",
          "name": "_lendingPool",
          "type": "address"
        },
        {
          "internalType": "address[]",
          "name": "_tokenListAddresses",
          "type": "address[]"
        }
      ],
      "name": "initialize",
      "outputs": [],
      "stateMutability": "nonpayable",
      "type": "function"
    },
    {
      "inputs": [
        {
          "internalType": "address",
          "name": "_depositorAddress",
          "type": "address"
        },
        {
          "internalType": "address",
          "name": "_tokenAddress",
          "type": "address"
        },
        {
          "internalType": "uint256",
          "name": "_amount",
          "type": "uint256"
        }
      ],
      "name": "interest",
      "outputs": [
        {
          "internalType": "uint256",
          "name": "",
          "type": "uint256"
        }
      ],
      "stateMutability": "view",
      "type": "function"
    },
    {
      "inputs": [
        {
          "internalType": "address",
          "name": "_tokenAddress",
          "type": "address"
        }
      ],
      "name": "isToken",
      "outputs": [
        {
          "internalType": "bool",
          "name": "",
          "type": "bool"
        }
      ],
      "stateMutability": "view",
      "type": "function"
    },
    {
      "inputs": [],
      "name": "lendingPool",
      "outputs": [
        {
          "internalType": "contract ILendingPool",
          "name": "",
          "type": "address"
        }
      ],
      "stateMutability": "view",
      "type": "function"
    },
    {
      "inputs": [],
      "name": "owner",
      "outputs": [
        {
          "internalType": "address",
          "name": "",
          "type": "address"
        }
      ],
      "stateMutability": "view",
      "type": "function"
    },
    {
      "inputs": [],
      "name": "paused",
      "outputs": [
        {
          "internalType": "bool",
          "name": "",
          "type": "bool"
        }
      ],
      "stateMutability": "view",
      "type": "function"
    },
    {
      "inputs": [
        {
          "internalType": "address",
          "name": "_tokenAddress",
          "type": "address"
        }
      ],
      "name": "removeToken",
      "outputs": [],
      "stateMutability": "nonpayable",
      "type": "function"
    },
    {
      "inputs": [],
      "name": "renounceOwnership",
      "outputs": [],
      "stateMutability": "nonpayable",
      "type": "function"
    },
    {
      "inputs": [
        {
          "internalType": "address",
          "name": "_tokenAddress",
          "type": "address"
        }
      ],
      "name": "token",
      "outputs": [
        {
          "internalType": "uint256",
          "name": "totalAmount",
          "type": "uint256"
        },
        {
          "internalType": "uint256",
          "name": "depositorListLength",
          "type": "uint256"
        }
      ],
      "stateMutability": "view",
      "type": "function"
    },
    {
      "inputs": [
        {
          "internalType": "address",
          "name": "_tokenAddress",
          "type": "address"
        },
        {
          "internalType": "address",
          "name": "_depositorAddress",
          "type": "address"
        }
      ],
      "name": "tokenDepositor",
      "outputs": [
        {
          "internalType": "uint256",
          "name": "amount",
          "type": "uint256"
        },
        {
          "internalType": "uint256",
          "name": "scaledBalance",
          "type": "uint256"
        }
      ],
      "stateMutability": "view",
      "type": "function"
    },
    {
      "inputs": [
        {
          "internalType": "address",
          "name": "_tokenAddress",
          "type": "address"
        },
        {
          "internalType": "uint256",
          "name": "_index",
          "type": "uint256"
        }
      ],
      "name": "tokenDepositorListAt",
      "outputs": [
        {
          "internalType": "address",
          "name": "",
          "type": "address"
        }
      ],
      "stateMutability": "view",
      "type": "function"
    },
    {
      "inputs": [
        {
          "internalType": "uint256",
          "name": "_index",
          "type": "uint256"
        }
      ],
      "name": "tokenListAt",
      "outputs": [
        {
          "internalType": "address",
          "name": "",
          "type": "address"
        }
      ],
      "stateMutability": "view",
      "type": "function"
    },
    {
      "inputs": [],
      "name": "tokenListLength",
      "outputs": [
        {
          "internalType": "uint256",
          "name": "",
          "type": "uint256"
        }
      ],
      "stateMutability": "view",
      "type": "function"
    },
    {
      "inputs": [
        {
          "internalType": "address",
          "name": "newOwner",
          "type": "address"
        }
      ],
      "name": "transferOwnership",
      "outputs": [],
      "stateMutability": "nonpayable",
      "type": "function"
    },
    {
      "inputs": [],
      "name": "treasury",
      "outputs": [
        {
          "internalType": "contract ITreasury",
          "name": "",
          "type": "address"
        }
      ],
      "stateMutability": "view",
      "type": "function"
    },
    {
      "inputs": [
        {
          "internalType": "contract IDonationMiner",
          "name": "_newDonationMiner",
          "type": "address"
        }
      ],
      "name": "updateDonationMiner",
      "outputs": [],
      "stateMutability": "nonpayable",
      "type": "function"
    },
    {
      "inputs": [
        {
          "internalType": "contract ILendingPool",
          "name": "_newLendingPool",
          "type": "address"
        }
      ],
      "name": "updateLendingPool",
      "outputs": [],
      "stateMutability": "nonpayable",
      "type": "function"
    },
    {
      "inputs": [
        {
          "internalType": "contract ITreasury",
          "name": "_newTreasury",
          "type": "address"
        }
      ],
      "name": "updateTreasury",
      "outputs": [],
      "stateMutability": "nonpayable",
      "type": "function"
    },
    {
      "inputs": [
        {
          "internalType": "address",
          "name": "_tokenAddress",
          "type": "address"
        },
        {
          "internalType": "uint256",
          "name": "_amount",
          "type": "uint256"
        }
      ],
      "name": "withdraw",
      "outputs": [],
      "stateMutability": "nonpayable",
      "type": "function"
    }
  ],
  "transactionHash": "0x0e12f1673c695eaa6320f3e5c6e493d9016144db6c8ae5477cce6f2c21df8b2d",
  "args": [],
  "numDeployments": 1,
  "solcInputHash": "97b94cf3a3290cd67b53d36394d9f1bb",
  "bytecode": "0x608060405234801561001057600080fd5b50612b34806100206000396000f3fe608060405234801561001057600080fd5b50600436106101585760003560e01c80637f51bb1f116100c3578063d48bfca71161007c578063d48bfca714610319578063e36d4f3e1461032c578063e6bfbfd81461033f578063f0367db514610352578063f2fde38b14610365578063f3fef3a31461037857600080fd5b80637f51bb1f146102b457806383912426146102c75780638da5cb5b146102da5780639a552a29146102eb578063a59a9973146102f3578063c89fc9a71461030657600080fd5b806347e7ef241161011557806347e7ef24146102555780635c975abb146102685780635fa7b5841461027357806361d027b3146102865780636d46a1db14610299578063715018a6146102ac57600080fd5b80630b9b1f9a1461015d5780630d8e6e2c1461017257806312cf28841461018857806319f373611461019b57806332b194b5146101be5780633ede2d67146101e9575b600080fd5b61017061016b36600461252c565b61038b565b005b60015b6040519081526020015b60405180910390f35b610175610196366004612580565b61041a565b6101ae6101a936600461252c565b610638565b604051901515815260200161017f565b6101d16101cc3660046127e3565b61064b565b6040516001600160a01b03909116815260200161017f565b6102406101f7366004612548565b6001600160a01b03918216600090815260ce6020908152604080832093909416825260039092018252829020825180840190935280548084526001909101549290910182905291565b6040805192835260208301919091520161017f565b6101706102633660046125c0565b610658565b60655460ff166101ae565b61017061028136600461252c565b610a37565b60c9546101d1906001600160a01b031681565b6102406102a736600461252c565b610b0b565b610170610b3e565b6101706102c236600461252c565b610b74565b6101d16102d53660046125c0565b610bfa565b6033546001600160a01b03166101d1565b610175610c1f565b60cb546101d1906001600160a01b031681565b61017061031436600461252c565b610c30565b61017061032736600461252c565b610cb6565b60ca546101d1906001600160a01b031681565b61017061034d36600461260b565b61107e565b610170610360366004612580565b61148c565b61017061037336600461252c565b6118de565b6101706103863660046125c0565b611979565b6033546001600160a01b031633146103be5760405162461bcd60e51b81526004016103b5906128af565b60405180910390fd5b60cb546040516001600160a01b038084169216907fb8852e851bdabda04c25661cfbfa7b09b3019206382f067a349af593e883214a90600090a360cb80546001600160a01b0319166001600160a01b0392909216919091179055565b6001600160a01b03808316600090815260ce60209081526040808320938716835260038401909152812080549192918411156104685760405162461bcd60e51b81526004016103b5906128e4565b60cb546040516335ea6a7560e01b81526001600160a01b03878116600483015260009216906335ea6a75906024016101806040518083038186803b1580156104af57600080fd5b505afa1580156104c3573d6000803e3d6000fd5b505050506040513d601f19601f820116820180604052508101906104e791906126f7565b60e00151604051630ed1279f60e11b81523060048201529091506000906001600160a01b03831690631da24f3e9060240160206040518083038186803b15801561053057600080fd5b505afa158015610544573d6000803e3d6000fd5b505050506040513d601f19601f8201168201806040525081019061056891906127fb565b8354600185015491925060009161057f9089612a40565b6105899190612a20565b6040516370a0823160e01b815230600482015290915060009083906001600160a01b038616906370a082319060240160206040518083038186803b1580156105d057600080fd5b505afa1580156105e4573d6000803e3d6000fd5b505050506040513d601f19601f8201168201806040525081019061060891906127fb565b6106129084612a40565b61061c9190612a20565b90506106288882612a5f565b96505050505050505b9392505050565b600061064560cc83611e39565b92915050565b600061064560cc83611e5b565b60655460ff161561067b5760405162461bcd60e51b81526004016103b590612885565b6002609754141561069e5760405162461bcd60e51b81526004016103b590612976565b60026097556106ac82610638565b6107065760405162461bcd60e51b815260206004820152602560248201527f4465706f7369743a3a6465706f7369743a2074686973206973206e6f742061206044820152643a37b5b2b760d91b60648201526084016103b5565b600081116107565760405162461bcd60e51b815260206004820181905260248201527f4465706f7369743a3a6465706f7369743a20696e76616c696420616d6f756e7460448201526064016103b5565b61076b6001600160a01b038316333084611e67565b60cb546040516335ea6a7560e01b81526001600160a01b03848116600483015260009216906335ea6a75906024016101806040518083038186803b1580156107b257600080fd5b505afa1580156107c6573d6000803e3d6000fd5b505050506040513d601f19601f820116820180604052508101906107ea91906126f7565b60e00151604051630ed1279f60e11b81523060048201529091506000906001600160a01b03831690631da24f3e9060240160206040518083038186803b15801561083357600080fd5b505afa158015610847573d6000803e3d6000fd5b505050506040513d601f19601f8201168201806040525081019061086b91906127fb565b60cb5460405163e8eda9df60e01b81526001600160a01b038781166004830152602482018790523060448301526000606483015292935091169063e8eda9df90608401600060405180830381600087803b1580156108c857600080fd5b505af11580156108dc573d6000803e3d6000fd5b5050604051630ed1279f60e11b8152306004820152600092506001600160a01b0385169150631da24f3e9060240160206040518083038186803b15801561092257600080fd5b505afa158015610936573d6000803e3d6000fd5b505050506040513d601f19601f8201168201806040525081019061095a91906127fb565b6001600160a01b038616600090815260ce602052604090209091506109826001820133611ec7565b50848160000160008282546109979190612a08565b909155505033600090815260038201602052604081208054909187918391906109c1908490612a08565b909155506109d190508484612a5f565b8160010160008282546109e49190612a08565b90915550506040518681526001600160a01b0388169033907f63d8d7d5e63e9840ec91a12a160d27b7cfab294f6ba070b7359692acfe6b03bf9060200160405180910390a3505060016097555050505050565b6033546001600160a01b03163314610a615760405162461bcd60e51b81526004016103b5906128af565b610a6a81610638565b610ac85760405162461bcd60e51b815260206004820152602960248201527f4465706f7369743a3a72656d6f7665546f6b656e3a2074686973206973206e6f6044820152683a1030903a37b5b2b760b91b60648201526084016103b5565b610ad360cc82611edc565b506040516001600160a01b038216907f4c910b69fe65a61f7531b9c5042b2329ca7179c77290aa7e2eb3afa3c8511fd390600090a250565b6001600160a01b038116600090815260ce602052604081208054829190610b3460018301611ef1565b9250925050915091565b6033546001600160a01b03163314610b685760405162461bcd60e51b81526004016103b5906128af565b610b726000611efb565b565b6033546001600160a01b03163314610b9e5760405162461bcd60e51b81526004016103b5906128af565b60c9546040516001600160a01b038084169216907f4ab5be82436d353e61ca18726e984e561f5c1cc7c6d38b29d2553c790434705a90600090a360c980546001600160a01b0319166001600160a01b0392909216919091179055565b6001600160a01b038216600090815260ce602052604081206106319060010183611e5b565b6000610c2b60cc611ef1565b905090565b6033546001600160a01b03163314610c5a5760405162461bcd60e51b81526004016103b5906128af565b60ca546040516001600160a01b038084169216907f9ee32924c063f6e43d6d525cb33e456e4c81879e8b46e925685714c3273f554990600090a360ca80546001600160a01b0319166001600160a01b0392909216919091179055565b6033546001600160a01b03163314610ce05760405162461bcd60e51b81526004016103b5906128af565b610ce981610638565b15610d455760405162461bcd60e51b815260206004820152602660248201527f4465706f7369743a3a616464546f6b656e3a20746f6b656e20616c726561647960448201526508185919195960d21b60648201526084016103b5565b60c9546040516319f3736160e01b81526001600160a01b038381166004830152909116906319f373619060240160206040518083038186803b158015610d8a57600080fd5b505afa158015610d9e573d6000803e3d6000fd5b505050506040513d601f19601f82011682018060405250810190610dc291906125eb565b610e2b5760405162461bcd60e51b815260206004820152603460248201527f4465706f7369743a3a616464546f6b656e3a206974206d7573742062652061206044820152733b30b634b2103a3932b0b9bab93c903a37b5b2b760611b60648201526084016103b5565b60cb546040516335ea6a7560e01b81526001600160a01b03838116600483015260009216906335ea6a75906024016101806040518083038186803b158015610e7257600080fd5b505afa158015610e86573d6000803e3d6000fd5b505050506040513d601f19601f82011682018060405250810190610eaa91906126f7565b60e001516001600160a01b03161415610f2b5760405162461bcd60e51b815260206004820152603760248201527f4465706f7369743a3a616464546f6b656e3a206974206d75737420626520612060448201527f76616c6964206c656e64696e67506f6f6c20746f6b656e00000000000000000060648201526084016103b5565b610f3660cc82611ec7565b5060cb5460405163095ea7b360e01b81526001600160a01b03918216600482015260001960248201529082169063095ea7b390604401602060405180830381600087803b158015610f8657600080fd5b505af1158015610f9a573d6000803e3d6000fd5b505050506040513d601f19601f82011682018060405250810190610fbe91906125eb565b5060ca5460405163095ea7b360e01b81526001600160a01b03918216600482015260001960248201529082169063095ea7b390604401602060405180830381600087803b15801561100e57600080fd5b505af1158015611022573d6000803e3d6000fd5b505050506040513d601f19601f8201168201806040525081019061104691906125eb565b506040516001600160a01b038216907f784c8f4dbf0ffedd6e72c76501c545a70f8b203b30a26ce542bf92ba87c248a490600090a250565b600054610100900460ff166110995760005460ff161561109d565b303b155b6111005760405162461bcd60e51b815260206004820152602e60248201527f496e697469616c697a61626c653a20636f6e747261637420697320616c72656160448201526d191e481a5b9a5d1a585b1a5e995960921b60648201526084016103b5565b600054610100900460ff16158015611122576000805461ffff19166101011790555b6001600160a01b03851661118f5760405162461bcd60e51b815260206004820152602e60248201527f4465706f7369743a3a696e697469616c697a653a20696e76616c6964205f747260448201526d656173757279206164647265737360901b60648201526084016103b5565b6001600160a01b0383166111ff5760405162461bcd60e51b815260206004820152603160248201527f4465706f7369743a3a696e697469616c697a653a20696e76616c6964205f6c656044820152706e64696e67506f6f6c206164647265737360781b60648201526084016103b5565b611207611f4d565b61120f611f84565b611217611fbb565b60c980546001600160a01b038088166001600160a01b03199283161790925560ca805487841690831617905560cb80549286169290911691909117905581516000905b808210156114715761129d84838151811061128557634e487b7160e01b600052603260045260246000fd5b602002602001015160cc611ec790919063ffffffff16565b508382815181106112be57634e487b7160e01b600052603260045260246000fd5b602090810291909101015160cb5460405163095ea7b360e01b81526001600160a01b039182166004820152600019602482015291169063095ea7b390604401602060405180830381600087803b15801561131757600080fd5b505af115801561132b573d6000803e3d6000fd5b505050506040513d601f19601f8201168201806040525081019061134f91906125eb565b5083828151811061137057634e487b7160e01b600052603260045260246000fd5b602090810291909101015160ca5460405163095ea7b360e01b81526001600160a01b039182166004820152600019602482015291169063095ea7b390604401602060405180830381600087803b1580156113c957600080fd5b505af11580156113dd573d6000803e3d6000fd5b505050506040513d601f19601f8201168201806040525081019061140191906125eb565b5083828151811061142257634e487b7160e01b600052603260045260246000fd5b60200260200101516001600160a01b03167f784c8f4dbf0ffedd6e72c76501c545a70f8b203b30a26ce542bf92ba87c248a460405160405180910390a28161146981612aa2565b92505061125a565b50508015611485576000805461ff00191690555b5050505050565b60655460ff16156114af5760405162461bcd60e51b81526004016103b590612885565b600260975414156114d25760405162461bcd60e51b81526004016103b590612976565b60026097556001600160a01b03808316600090815260ce60209081526040808320938716835260038401909152902080548311156115225760405162461bcd60e51b81526004016103b5906128e4565b60cb546040516335ea6a7560e01b81526001600160a01b03868116600483015260009216906335ea6a75906024016101806040518083038186803b15801561156957600080fd5b505afa15801561157d573d6000803e3d6000fd5b505050506040513d601f19601f820116820180604052508101906115a191906126f7565b60e00151604051630ed1279f60e11b81523060048201529091506000906001600160a01b03831690631da24f3e9060240160206040518083038186803b1580156115ea57600080fd5b505afa1580156115fe573d6000803e3d6000fd5b505050506040513d601f19601f8201168201806040525081019061162291906127fb565b835460018501549192506000916116399088612a40565b6116439190612a20565b6040516370a0823160e01b815230600482015290915060009083906001600160a01b038616906370a082319060240160206040518083038186803b15801561168a57600080fd5b505afa15801561169e573d6000803e3d6000fd5b505050506040513d601f19601f820116820180604052508101906116c291906127fb565b6116cc9084612a40565b6116d69190612a20565b905060006116e48883612a5f565b60cb54604051631a4ca37b60e21b81529192506001600160a01b0316906369328dec90611719908c908590309060040161282f565b602060405180830381600087803b15801561173357600080fd5b505af1158015611747573d6000803e3d6000fd5b505050506040513d601f19601f8201168201806040525081019061176b91906127fb565b50604051630ed1279f60e11b81523060048201526000906001600160a01b03871690631da24f3e9060240160206040518083038186803b1580156117ae57600080fd5b505afa1580156117c2573d6000803e3d6000fd5b505050506040513d601f19601f820116820180604052508101906117e691906127fb565b905060ca60009054906101000a90046001600160a01b03166001600160a01b0316630d1e9b4a8b848e6040518463ffffffff1660e01b815260040161182d9392919061282f565b600060405180830381600087803b15801561184757600080fd5b505af115801561185b573d6000803e3d6000fd5b50505050808561186b9190612a5f565b87600101600082825461187e9190612a5f565b9091555050604080518a8152602081018490526001600160a01b03808d1692908e16917f29bac1f9afd8b3833ccc04f651c41fc95c0dde3b19f65d1f2a334afa69e8166a910160405180910390a350506001609755505050505050505050565b6033546001600160a01b031633146119085760405162461bcd60e51b81526004016103b5906128af565b6001600160a01b03811661196d5760405162461bcd60e51b815260206004820152602660248201527f4f776e61626c653a206e6577206f776e657220697320746865207a65726f206160448201526564647265737360d01b60648201526084016103b5565b61197681611efb565b50565b60655460ff161561199c5760405162461bcd60e51b81526004016103b590612885565b600260975414156119bf5760405162461bcd60e51b81526004016103b590612976565b60026097556001600160a01b038216600090815260ce60209081526040808320338452600381019092529091208054831115611a475760405162461bcd60e51b815260206004820152602160248201527f4465706f7369743a3a77697468647261773a20696e76616c696420616d6f756e6044820152601d60fa1b60648201526084016103b5565b8054831415611a5f57611a5d6001830133611edc565b505b60cb546040516335ea6a7560e01b81526001600160a01b03868116600483015260009216906335ea6a75906024016101806040518083038186803b158015611aa657600080fd5b505afa158015611aba573d6000803e3d6000fd5b505050506040513d601f19601f82011682018060405250810190611ade91906126f7565b60e00151604051630ed1279f60e11b81523060048201529091506000906001600160a01b03831690631da24f3e9060240160206040518083038186803b158015611b2757600080fd5b505afa158015611b3b573d6000803e3d6000fd5b505050506040513d601f19601f82011682018060405250810190611b5f91906127fb565b83546001850154919250600091611b769088612a40565b611b809190612a20565b6040516370a0823160e01b815230600482015290915060009083906001600160a01b038616906370a082319060240160206040518083038186803b158015611bc757600080fd5b505afa158015611bdb573d6000803e3d6000fd5b505050506040513d601f19601f82011682018060405250810190611bff91906127fb565b611c099084612a40565b611c139190612a20565b90506000611c218883612a5f565b60cb54604051631a4ca37b60e21b81529192506001600160a01b0316906369328dec90611c56908c908c90339060040161282f565b602060405180830381600087803b158015611c7057600080fd5b505af1158015611c84573d6000803e3d6000fd5b505050506040513d601f19601f82011682018060405250810190611ca891906127fb565b5060cb54604051631a4ca37b60e21b81526001600160a01b03909116906369328dec90611cdd908c908590309060040161282f565b602060405180830381600087803b158015611cf757600080fd5b505af1158015611d0b573d6000803e3d6000fd5b505050506040513d601f19601f82011682018060405250810190611d2f91906127fb565b5060ca5460405163068f4da560e11b81526001600160a01b0390911690630d1e9b4a90611d64908c908590339060040161282f565b600060405180830381600087803b158015611d7e57600080fd5b505af1158015611d92573d6000803e3d6000fd5b5050505087876000016000828254611daa9190612a5f565b9091555050855488908790600090611dc3908490612a5f565b9250508190555082866001016000828254611dde9190612a5f565b909155505060408051898152602081018390526001600160a01b038b169133917ff341246adaac6f497bc2a656f546ab9e182111d630394f0c57c710a59a2cb567910160405180910390a35050600160975550505050505050565b6001600160a01b03811660009081526001830160205260408120541515610631565b60006106318383611fea565b604080516001600160a01b0385811660248301528416604482015260648082018490528251808303909101815260849091019091526020810180516001600160e01b03166323b872dd60e01b179052611ec1908590612022565b50505050565b6000610631836001600160a01b0384166120f9565b6000610631836001600160a01b038416612148565b6000610645825490565b603380546001600160a01b038381166001600160a01b0319831681179093556040519116919082907f8be0079c531659141344cd1fd0a4f28419497f9722a3daafe3b4186f6b6457e090600090a35050565b600054610100900460ff16611f745760405162461bcd60e51b81526004016103b59061292b565b611f7c612265565b610b7261228c565b600054610100900460ff16611fab5760405162461bcd60e51b81526004016103b59061292b565b611fb3612265565b610b726122bc565b600054610100900460ff16611fe25760405162461bcd60e51b81526004016103b59061292b565b610b726122ef565b600082600001828154811061200f57634e487b7160e01b600052603260045260246000fd5b9060005260206000200154905092915050565b6000612077826040518060400160405280602081526020017f5361666545524332303a206c6f772d6c6576656c2063616c6c206661696c6564815250856001600160a01b031661231d9092919063ffffffff16565b8051909150156120f4578080602001905181019061209591906125eb565b6120f45760405162461bcd60e51b815260206004820152602a60248201527f5361666545524332303a204552433230206f7065726174696f6e20646964206e6044820152691bdd081cdd58d8d9595960b21b60648201526084016103b5565b505050565b600081815260018301602052604081205461214057508154600181810184556000848152602080822090930184905584548482528286019093526040902091909155610645565b506000610645565b6000818152600183016020526040812054801561225b57600061216c600183612a5f565b855490915060009061218090600190612a5f565b90508181146122015760008660000182815481106121ae57634e487b7160e01b600052603260045260246000fd5b90600052602060002001549050808760000184815481106121df57634e487b7160e01b600052603260045260246000fd5b6000918252602080832090910192909255918252600188019052604090208390555b855486908061222057634e487b7160e01b600052603160045260246000fd5b600190038181906000526020600020016000905590558560010160008681526020019081526020016000206000905560019350505050610645565b6000915050610645565b600054610100900460ff16610b725760405162461bcd60e51b81526004016103b59061292b565b600054610100900460ff166122b35760405162461bcd60e51b81526004016103b59061292b565b610b7233611efb565b600054610100900460ff166122e35760405162461bcd60e51b81526004016103b59061292b565b6065805460ff19169055565b600054610100900460ff166123165760405162461bcd60e51b81526004016103b59061292b565b6001609755565b606061232c8484600085612334565b949350505050565b6060824710156123955760405162461bcd60e51b815260206004820152602660248201527f416464726573733a20696e73756666696369656e742062616c616e636520666f6044820152651c8818d85b1b60d21b60648201526084016103b5565b843b6123e35760405162461bcd60e51b815260206004820152601d60248201527f416464726573733a2063616c6c20746f206e6f6e2d636f6e747261637400000060448201526064016103b5565b600080866001600160a01b031685876040516123ff9190612813565b60006040518083038185875af1925050503d806000811461243c576040519150601f19603f3d011682016040523d82523d6000602084013e612441565b606091505b509150915061245182828661245c565b979650505050505050565b6060831561246b575081610631565b82511561247b5782518084602001fd5b8160405162461bcd60e51b81526004016103b59190612852565b80516124a081612ae9565b919050565b6000602082840312156124b6578081fd5b6040516020810181811067ffffffffffffffff821117156124d9576124d9612ad3565b6040529151825250919050565b80516fffffffffffffffffffffffffffffffff811681146124a057600080fd5b805164ffffffffff811681146124a057600080fd5b805160ff811681146124a057600080fd5b60006020828403121561253d578081fd5b813561063181612ae9565b6000806040838503121561255a578081fd5b823561256581612ae9565b9150602083013561257581612ae9565b809150509250929050565b600080600060608486031215612594578081fd5b833561259f81612ae9565b925060208401356125af81612ae9565b929592945050506040919091013590565b600080604083850312156125d2578182fd5b82356125dd81612ae9565b946020939093013593505050565b6000602082840312156125fc578081fd5b81518015158114610631578182fd5b60008060008060808587031215612620578081fd5b843561262b81612ae9565b935060208581013561263c81612ae9565b9350604086013561264c81612ae9565b9250606086013567ffffffffffffffff80821115612668578384fd5b818801915088601f83011261267b578384fd5b81358181111561268d5761268d612ad3565b8060051b915061269e8483016129d7565b8181528481019084860184860187018d10156126b8578788fd5b8795505b838610156126e657803594506126d185612ae9565b848352600195909501949186019186016126bc565b50989b979a50959850505050505050565b60006101808284031215612709578081fd5b6127116129ad565b61271b84846124a5565b8152612729602084016124e6565b602082015261273a604084016124e6565b604082015261274b606084016124e6565b606082015261275c608084016124e6565b608082015261276d60a084016124e6565b60a082015261277e60c08401612506565b60c082015261278f60e08401612495565b60e08201526101006127a2818501612495565b908201526101206127b4848201612495565b908201526101406127c6848201612495565b908201526101606127d884820161251b565b908201529392505050565b6000602082840312156127f4578081fd5b5035919050565b60006020828403121561280c578081fd5b5051919050565b60008251612825818460208701612a76565b9190910192915050565b6001600160a01b0393841681526020810192909252909116604082015260600190565b6020815260008251806020840152612871816040850160208701612a76565b601f01601f19169190910160400192915050565b60208082526010908201526f14185d5cd8589b194e881c185d5cd95960821b604082015260600190565b6020808252818101527f4f776e61626c653a2063616c6c6572206973206e6f7420746865206f776e6572604082015260600190565b60208082526027908201527f4465706f7369743a3a646f6e617465496e7465726573743a20696e76616c696460408201526608185b5bdd5b9d60ca1b606082015260800190565b6020808252602b908201527f496e697469616c697a61626c653a20636f6e7472616374206973206e6f74206960408201526a6e697469616c697a696e6760a81b606082015260800190565b6020808252601f908201527f5265656e7472616e637947756172643a207265656e7472616e742063616c6c00604082015260600190565b604051610180810167ffffffffffffffff811182821017156129d1576129d1612ad3565b60405290565b604051601f8201601f1916810167ffffffffffffffff81118282101715612a0057612a00612ad3565b604052919050565b60008219821115612a1b57612a1b612abd565b500190565b600082612a3b57634e487b7160e01b81526012600452602481fd5b500490565b6000816000190483118215151615612a5a57612a5a612abd565b500290565b600082821015612a7157612a71612abd565b500390565b60005b83811015612a91578181015183820152602001612a79565b83811115611ec15750506000910152565b6000600019821415612ab657612ab6612abd565b5060010190565b634e487b7160e01b600052601160045260246000fd5b634e487b7160e01b600052604160045260246000fd5b6001600160a01b038116811461197657600080fdfea264697066735822122013af2458f075989876465212728a9c1ab3e60b12298a194e960053965899493a64736f6c63430008040033",
  "devdoc": {
    "events": {
      "DepositAdded(address,address,uint256)": {
        "params": {
          "amount": "Amount of the deposit",
          "depositorAddress": "The address of the depositor that makes the deposit",
          "token": "ERC20 token address"
        }
      },
      "DonateInterest(address,address,uint256,uint256)": {
        "params": {
          "amount": "Amount of the withdrawal",
          "depositorAddress": "The address of the depositor",
          "interest": "Interest earned (and donated to DonationMiner)",
          "token": "ERC20 token address"
        }
      },
      "DonationMinerUpdated(address,address)": {
        "params": {
          "newDonationMiner": "New donationMiner address",
          "oldDonationMiner": "Old donationMiner address"
        }
      },
      "LendingPoolUpdated(address,address)": {
        "params": {
          "newLendingPool": "New lendingPool address",
          "oldLendingPool": "Old lendingPool address"
        }
      },
      "TokenAdded(address)": {
        "params": {
          "tokenAddress": "Address of the token"
        }
      },
      "TokenRemoved(address)": {
        "params": {
          "tokenAddress": "Address of the token"
        }
      },
      "TreasuryUpdated(address,address)": {
        "params": {
          "newTreasury": "New treasury address",
          "oldTreasury": "Old treasury address"
        }
      },
      "Withdraw(address,address,uint256,uint256)": {
        "params": {
          "amount": "Amount of the withdrawal",
          "depositorAddress": "The address of the depositor that makes the withdrawal",
          "interest": "Interest earned (and donated to DonationMiner)",
          "token": "ERC20 token address"
        }
      }
    },
    "kind": "dev",
    "methods": {
      "initialize(address,address,address,address[])": {
        "params": {
          "_lendingPool": "Address of the LendingPool",
          "_treasury": "Address of the Treasury"
        }
      },
      "isToken(address)": {
        "params": {
          "_tokenAddress": "token address to be checked"
        },
        "returns": {
          "_0": "bool true if the tokenAddress is an accepted token"
        }
      },
      "owner()": {
        "details": "Returns the address of the current owner."
      },
      "paused()": {
        "details": "Returns true if the contract is paused, and false otherwise."
      },
      "renounceOwnership()": {
        "details": "Leaves the contract without owner. It will not be possible to call `onlyOwner` functions anymore. Can only be called by the current owner. NOTE: Renouncing ownership will leave the contract without an owner, thereby removing any functionality that is only available to the owner."
      },
      "tokenListAt(uint256)": {
        "params": {
          "_index": "index of the token"
        },
        "returns": {
          "_0": "address of the token"
        }
      },
      "tokenListLength()": {
        "returns": {
          "_0": "uint256 number of tokens"
        }
      },
      "transferOwnership(address)": {
        "details": "Transfers ownership of the contract to a new account (`newOwner`). Can only be called by the current owner."
      },
      "updateDonationMiner(address)": {
        "params": {
          "_newDonationMiner": "address of new donationMiner contract"
        }
      },
      "updateLendingPool(address)": {
        "params": {
          "_newLendingPool": "address of the new LendingPool contract"
        }
      },
      "updateTreasury(address)": {
        "params": {
          "_newTreasury": "address of new treasury contract"
        }
      }
    },
    "version": 1
  },
  "userdoc": {
    "events": {
      "DepositAdded(address,address,uint256)": {
        "notice": "Triggered when an amount of an ERC20 has been deposited"
      },
      "DonateInterest(address,address,uint256,uint256)": {
        "notice": "Triggered when the interest of an amount of an ERC20 has been donated"
      },
      "DonationMinerUpdated(address,address)": {
        "notice": "Triggered when the donationMiner address has been updated"
      },
      "LendingPoolUpdated(address,address)": {
        "notice": "Triggered when LendingPool has been updated"
      },
      "TokenAdded(address)": {
        "notice": "Triggered when a token has been added"
      },
      "TokenRemoved(address)": {
        "notice": "Triggered when a token has been removed"
      },
      "TreasuryUpdated(address,address)": {
        "notice": "Triggered when the treasury address has been updated"
      },
      "Withdraw(address,address,uint256,uint256)": {
        "notice": "Triggered when an amount of an ERC20 has been withdrawn"
      }
    },
    "kind": "user",
    "methods": {
      "getVersion()": {
        "notice": "Returns the current implementation version"
      },
      "initialize(address,address,address,address[])": {
        "notice": "Used to initialize a new DonationMiner contract"
      },
      "isToken(address)": {
        "notice": "Returns if an address is an accepted token"
      },
      "tokenListAt(uint256)": {
        "notice": "Returns the address of a token from tokenList"
      },
      "tokenListLength()": {
        "notice": "Returns the number of tokens"
      },
      "updateDonationMiner(address)": {
        "notice": "Updates DonationMiner address"
      },
      "updateLendingPool(address)": {
        "notice": "Updates the LendingPool contract address"
      },
      "updateTreasury(address)": {
        "notice": "Updates Treasury address"
      }
    },
    "version": 1
  },
  "storageLayout": {
    "storage": [
      {
        "astId": 542,
        "contract": "contracts/deposit/DepositImplementation.sol:DepositImplementation",
        "label": "_initialized",
        "offset": 0,
        "slot": "0",
        "type": "t_bool"
      },
      {
        "astId": 545,
        "contract": "contracts/deposit/DepositImplementation.sol:DepositImplementation",
        "label": "_initializing",
        "offset": 1,
        "slot": "0",
        "type": "t_bool"
      },
      {
        "astId": 1370,
        "contract": "contracts/deposit/DepositImplementation.sol:DepositImplementation",
        "label": "__gap",
        "offset": 0,
        "slot": "1",
        "type": "t_array(t_uint256)50_storage"
      },
      {
        "astId": 420,
        "contract": "contracts/deposit/DepositImplementation.sol:DepositImplementation",
        "label": "_owner",
        "offset": 0,
        "slot": "51",
        "type": "t_address"
      },
      {
        "astId": 534,
        "contract": "contracts/deposit/DepositImplementation.sol:DepositImplementation",
        "label": "__gap",
        "offset": 0,
        "slot": "52",
        "type": "t_array(t_uint256)49_storage"
      },
      {
        "astId": 630,
        "contract": "contracts/deposit/DepositImplementation.sol:DepositImplementation",
        "label": "_paused",
        "offset": 0,
        "slot": "101",
        "type": "t_bool"
      },
      {
        "astId": 721,
        "contract": "contracts/deposit/DepositImplementation.sol:DepositImplementation",
        "label": "__gap",
        "offset": 0,
        "slot": "102",
        "type": "t_array(t_uint256)49_storage"
      },
      {
        "astId": 736,
        "contract": "contracts/deposit/DepositImplementation.sol:DepositImplementation",
        "label": "_status",
        "offset": 0,
        "slot": "151",
        "type": "t_uint256"
      },
      {
        "astId": 779,
        "contract": "contracts/deposit/DepositImplementation.sol:DepositImplementation",
        "label": "__gap",
        "offset": 0,
        "slot": "152",
        "type": "t_array(t_uint256)49_storage"
      },
      {
        "astId": 16315,
        "contract": "contracts/deposit/DepositImplementation.sol:DepositImplementation",
        "label": "treasury",
        "offset": 0,
        "slot": "201",
        "type": "t_contract(ITreasury)32687"
      },
      {
        "astId": 16319,
        "contract": "contracts/deposit/DepositImplementation.sol:DepositImplementation",
        "label": "donationMiner",
        "offset": 0,
        "slot": "202",
        "type": "t_contract(IDonationMiner)19430"
      },
      {
        "astId": 16323,
        "contract": "contracts/deposit/DepositImplementation.sol:DepositImplementation",
        "label": "lendingPool",
        "offset": 0,
        "slot": "203",
        "type": "t_contract(ILendingPool)20184"
      },
      {
        "astId": 16326,
        "contract": "contracts/deposit/DepositImplementation.sol:DepositImplementation",
        "label": "_tokenList",
        "offset": 0,
        "slot": "204",
        "type": "t_struct(AddressSet)5505_storage"
      },
      {
        "astId": 16331,
        "contract": "contracts/deposit/DepositImplementation.sol:DepositImplementation",
        "label": "_tokens",
        "offset": 0,
        "slot": "206",
        "type": "t_mapping(t_address,t_struct(Token)16355_storage)"
      }
    ],
    "types": {
      "t_address": {
        "encoding": "inplace",
        "label": "address",
        "numberOfBytes": "20"
      },
      "t_array(t_bytes32)dyn_storage": {
        "base": "t_bytes32",
        "encoding": "dynamic_array",
        "label": "bytes32[]",
        "numberOfBytes": "32"
      },
      "t_array(t_uint256)49_storage": {
        "base": "t_uint256",
        "encoding": "inplace",
        "label": "uint256[49]",
        "numberOfBytes": "1568"
      },
      "t_array(t_uint256)50_storage": {
        "base": "t_uint256",
        "encoding": "inplace",
        "label": "uint256[50]",
        "numberOfBytes": "1600"
      },
      "t_bool": {
        "encoding": "inplace",
        "label": "bool",
        "numberOfBytes": "1"
      },
      "t_bytes32": {
        "encoding": "inplace",
        "label": "bytes32",
        "numberOfBytes": "32"
      },
      "t_contract(IDonationMiner)19430": {
        "encoding": "inplace",
        "label": "contract IDonationMiner",
        "numberOfBytes": "20"
      },
      "t_contract(ILendingPool)20184": {
        "encoding": "inplace",
        "label": "contract ILendingPool",
        "numberOfBytes": "20"
      },
      "t_contract(ITreasury)32687": {
        "encoding": "inplace",
        "label": "contract ITreasury",
        "numberOfBytes": "20"
      },
      "t_mapping(t_address,t_struct(Depositor)16344_storage)": {
        "encoding": "mapping",
        "key": "t_address",
        "label": "mapping(address => struct IDeposit.Depositor)",
        "numberOfBytes": "32",
        "value": "t_struct(Depositor)16344_storage"
      },
      "t_mapping(t_address,t_struct(Token)16355_storage)": {
        "encoding": "mapping",
        "key": "t_address",
        "label": "mapping(address => struct IDeposit.Token)",
        "numberOfBytes": "32",
        "value": "t_struct(Token)16355_storage"
      },
      "t_mapping(t_bytes32,t_uint256)": {
        "encoding": "mapping",
        "key": "t_bytes32",
        "label": "mapping(bytes32 => uint256)",
        "numberOfBytes": "32",
        "value": "t_uint256"
      },
      "t_struct(AddressSet)5505_storage": {
        "encoding": "inplace",
        "label": "struct EnumerableSet.AddressSet",
        "members": [
          {
            "astId": 5504,
            "contract": "contracts/deposit/DepositImplementation.sol:DepositImplementation",
            "label": "_inner",
            "offset": 0,
            "slot": "0",
            "type": "t_struct(Set)5204_storage"
          }
        ],
        "numberOfBytes": "64"
      },
      "t_struct(Depositor)16344_storage": {
        "encoding": "inplace",
        "label": "struct IDeposit.Depositor",
        "members": [
          {
            "astId": 16341,
            "contract": "contracts/deposit/DepositImplementation.sol:DepositImplementation",
            "label": "amount",
            "offset": 0,
            "slot": "0",
            "type": "t_uint256"
          },
          {
            "astId": 16343,
            "contract": "contracts/deposit/DepositImplementation.sol:DepositImplementation",
            "label": "scaledBalance",
            "offset": 0,
            "slot": "1",
            "type": "t_uint256"
          }
        ],
        "numberOfBytes": "64"
      },
      "t_struct(Set)5204_storage": {
        "encoding": "inplace",
        "label": "struct EnumerableSet.Set",
        "members": [
          {
            "astId": 5199,
            "contract": "contracts/deposit/DepositImplementation.sol:DepositImplementation",
            "label": "_values",
            "offset": 0,
            "slot": "0",
            "type": "t_array(t_bytes32)dyn_storage"
          },
          {
            "astId": 5203,
            "contract": "contracts/deposit/DepositImplementation.sol:DepositImplementation",
            "label": "_indexes",
            "offset": 0,
            "slot": "1",
            "type": "t_mapping(t_bytes32,t_uint256)"
          }
        ],
        "numberOfBytes": "64"
      },
      "t_struct(Token)16355_storage": {
        "encoding": "inplace",
        "label": "struct IDeposit.Token",
        "members": [
          {
            "astId": 16346,
            "contract": "contracts/deposit/DepositImplementation.sol:DepositImplementation",
            "label": "totalAmount",
            "offset": 0,
            "slot": "0",
            "type": "t_uint256"
          },
          {
            "astId": 16349,
            "contract": "contracts/deposit/DepositImplementation.sol:DepositImplementation",
            "label": "depositorList",
            "offset": 0,
            "slot": "1",
            "type": "t_struct(AddressSet)5505_storage"
          },
          {
            "astId": 16354,
            "contract": "contracts/deposit/DepositImplementation.sol:DepositImplementation",
            "label": "depositors",
            "offset": 0,
            "slot": "3",
            "type": "t_mapping(t_address,t_struct(Depositor)16344_storage)"
          }
        ],
        "numberOfBytes": "128"
      },
      "t_uint256": {
        "encoding": "inplace",
        "label": "uint256",
        "numberOfBytes": "32"
      }
    }
  }
}