{
  "address": "0xBB04D738e013D5336B64352BFb428306b333530b",
  "abi": [
    {
      "anonymous": false,
      "inputs": [
        {
          "indexed": false,
          "internalType": "uint256",
          "name": "oldAgainstPeriods",
          "type": "uint256"
        },
        {
          "indexed": false,
          "internalType": "uint256",
          "name": "newAgainstPeriods",
          "type": "uint256"
        }
      ],
      "name": "AgainstPeriodsUpdated",
      "type": "event"
    },
    {
      "anonymous": false,
      "inputs": [
        {
          "indexed": false,
          "internalType": "uint256",
          "name": "oldClaimDelay",
          "type": "uint256"
        },
        {
          "indexed": false,
          "internalType": "uint256",
          "name": "newClaimDelay",
          "type": "uint256"
        }
      ],
      "name": "ClaimDelayUpdated",
      "type": "event"
    },
    {
      "anonymous": false,
      "inputs": [
        {
          "indexed": false,
          "internalType": "uint256",
          "name": "oldCommunityDonationRatio",
          "type": "uint256"
        },
        {
          "indexed": false,
          "internalType": "uint256",
          "name": "newCommunityDonationRatio",
          "type": "uint256"
        }
      ],
      "name": "CommunityDonationRatioUpdated",
      "type": "event"
    },
    {
      "anonymous": false,
      "inputs": [
        {
          "indexed": true,
          "internalType": "uint256",
          "name": "donationId",
          "type": "uint256"
        },
        {
          "indexed": true,
          "internalType": "address",
          "name": "delegateAddress",
          "type": "address"
        },
        {
          "indexed": false,
          "internalType": "uint256",
          "name": "amount",
          "type": "uint256"
        },
        {
          "indexed": false,
          "internalType": "address",
          "name": "token",
          "type": "address"
        },
        {
          "indexed": false,
          "internalType": "uint256",
          "name": "initialAmount",
          "type": "uint256"
        },
        {
          "indexed": true,
          "internalType": "address",
          "name": "target",
          "type": "address"
        }
      ],
      "name": "DonationAdded",
      "type": "event"
    },
    {
      "anonymous": false,
      "inputs": [
        {
          "indexed": true,
          "internalType": "address",
          "name": "previousOwner",
          "type": "address"
        },
        {
          "indexed": true,
          "internalType": "address",
          "name": "newOwner",
          "type": "address"
        }
      ],
      "name": "OwnershipTransferred",
      "type": "event"
    },
    {
      "anonymous": false,
      "inputs": [
        {
          "indexed": false,
          "internalType": "address",
          "name": "account",
          "type": "address"
        }
      ],
      "name": "Paused",
      "type": "event"
    },
    {
      "anonymous": false,
      "inputs": [
        {
          "indexed": true,
          "internalType": "address",
          "name": "donor",
          "type": "address"
        },
        {
          "indexed": false,
          "internalType": "uint256",
          "name": "amount",
          "type": "uint256"
        }
      ],
      "name": "RewardClaimed",
      "type": "event"
    },
    {
      "anonymous": false,
      "inputs": [
        {
          "indexed": true,
          "internalType": "address",
          "name": "donor",
          "type": "address"
        },
        {
          "indexed": false,
          "internalType": "uint256",
          "name": "amount",
          "type": "uint256"
        },
        {
          "indexed": false,
          "internalType": "uint256",
          "name": "lastRewardPeriod",
          "type": "uint256"
        }
      ],
      "name": "RewardClaimedPartial",
      "type": "event"
    },
    {
      "anonymous": false,
      "inputs": [
        {
          "indexed": false,
          "internalType": "uint256",
          "name": "oldRewardPeriodSize",
          "type": "uint256"
        },
        {
          "indexed": false,
          "internalType": "uint256",
          "name": "oldDecayNumerator",
          "type": "uint256"
        },
        {
          "indexed": false,
          "internalType": "uint256",
          "name": "oldDecayDenominator",
          "type": "uint256"
        },
        {
          "indexed": false,
          "internalType": "uint256",
          "name": "newRewardPeriodSize",
          "type": "uint256"
        },
        {
          "indexed": false,
          "internalType": "uint256",
          "name": "newDecayNumerator",
          "type": "uint256"
        },
        {
          "indexed": false,
          "internalType": "uint256",
          "name": "newDecayDenominator",
          "type": "uint256"
        }
      ],
      "name": "RewardPeriodParamsUpdated",
      "type": "event"
    },
    {
      "anonymous": false,
      "inputs": [
        {
          "indexed": true,
          "internalType": "address",
          "name": "donor",
          "type": "address"
        },
        {
          "indexed": false,
          "internalType": "uint256",
          "name": "amount",
          "type": "uint256"
        }
      ],
      "name": "RewardStaked",
      "type": "event"
    },
    {
      "anonymous": false,
      "inputs": [
        {
          "indexed": true,
          "internalType": "address",
          "name": "donor",
          "type": "address"
        },
        {
          "indexed": false,
          "internalType": "uint256",
          "name": "amount",
          "type": "uint256"
        },
        {
          "indexed": false,
          "internalType": "uint256",
          "name": "lastRewardPeriod",
          "type": "uint256"
        }
      ],
      "name": "RewardStakedPartial",
      "type": "event"
    },
    {
      "anonymous": false,
      "inputs": [
        {
          "indexed": false,
          "internalType": "uint256",
          "name": "oldStakingDonationRatio",
          "type": "uint256"
        },
        {
          "indexed": false,
          "internalType": "uint256",
          "name": "newStakingDonationRatio",
          "type": "uint256"
        }
      ],
      "name": "StakingDonationRatioUpdated",
      "type": "event"
    },
    {
      "anonymous": false,
      "inputs": [
        {
          "indexed": true,
          "internalType": "address",
          "name": "oldStaking",
          "type": "address"
        },
        {
          "indexed": true,
          "internalType": "address",
          "name": "newStaking",
          "type": "address"
        }
      ],
      "name": "StakingUpdated",
      "type": "event"
    },
    {
      "anonymous": false,
      "inputs": [
        {
          "indexed": true,
          "internalType": "address",
          "name": "token",
          "type": "address"
        },
        {
          "indexed": true,
          "internalType": "address",
          "name": "to",
          "type": "address"
        },
        {
          "indexed": false,
          "internalType": "uint256",
          "name": "amount",
          "type": "uint256"
        }
      ],
      "name": "TransferERC20",
      "type": "event"
    },
    {
      "anonymous": false,
      "inputs": [
        {
          "indexed": true,
          "internalType": "address",
          "name": "oldTreasury",
          "type": "address"
        },
        {
          "indexed": true,
          "internalType": "address",
          "name": "newTreasury",
          "type": "address"
        }
      ],
      "name": "TreasuryUpdated",
      "type": "event"
    },
    {
      "anonymous": false,
      "inputs": [
        {
          "indexed": false,
          "internalType": "address",
          "name": "account",
          "type": "address"
        }
      ],
      "name": "Unpaused",
      "type": "event"
    },
    {
      "inputs": [],
      "name": "PACT",
      "outputs": [
        {
          "internalType": "contract IERC20",
          "name": "",
          "type": "address"
        }
      ],
      "stateMutability": "view",
      "type": "function"
    },
    {
      "inputs": [],
      "name": "againstPeriods",
      "outputs": [
        {
          "internalType": "uint256",
          "name": "",
          "type": "uint256"
        }
      ],
      "stateMutability": "view",
      "type": "function"
    },
    {
      "inputs": [
        {
          "internalType": "address",
          "name": "_stakeholderAddress",
          "type": "address"
        }
      ],
      "name": "apr",
      "outputs": [
        {
          "internalType": "uint256",
          "name": "",
          "type": "uint256"
        }
      ],
      "stateMutability": "view",
      "type": "function"
    },
    {
      "inputs": [],
      "name": "cUSD",
      "outputs": [
        {
          "internalType": "contract IERC20",
          "name": "",
          "type": "address"
        }
      ],
      "stateMutability": "view",
      "type": "function"
    },
    {
      "inputs": [
        {
          "internalType": "address",
          "name": "_donorAddress",
          "type": "address"
        }
      ],
      "name": "calculateClaimableRewards",
      "outputs": [
        {
          "internalType": "uint256",
          "name": "",
          "type": "uint256"
        }
      ],
      "stateMutability": "view",
      "type": "function"
    },
    {
      "inputs": [
        {
          "internalType": "address",
          "name": "_donorAddress",
          "type": "address"
        },
        {
          "internalType": "uint256",
          "name": "_lastPeriodNumber",
          "type": "uint256"
        }
      ],
      "name": "calculateClaimableRewardsByPeriodNumber",
      "outputs": [
        {
          "internalType": "uint256",
          "name": "",
          "type": "uint256"
        }
      ],
      "stateMutability": "view",
      "type": "function"
    },
    {
      "inputs": [],
      "name": "claimDelay",
      "outputs": [
        {
          "internalType": "uint256",
          "name": "",
          "type": "uint256"
        }
      ],
      "stateMutability": "view",
      "type": "function"
    },
    {
      "inputs": [],
      "name": "claimRewards",
      "outputs": [],
      "stateMutability": "nonpayable",
      "type": "function"
    },
    {
      "inputs": [
        {
          "internalType": "uint256",
          "name": "_lastPeriodNumber",
          "type": "uint256"
        }
      ],
      "name": "claimRewardsPartial",
      "outputs": [],
      "stateMutability": "nonpayable",
      "type": "function"
    },
    {
      "inputs": [],
      "name": "communityDonationRatio",
      "outputs": [
        {
          "internalType": "uint256",
          "name": "",
          "type": "uint256"
        }
      ],
      "stateMutability": "view",
      "type": "function"
    },
    {
      "inputs": [],
      "name": "currentRewardPeriodNumber",
      "outputs": [
        {
          "internalType": "uint256",
          "name": "",
          "type": "uint256"
        }
      ],
      "stateMutability": "view",
      "type": "function"
    },
    {
      "inputs": [],
      "name": "decayDenominator",
      "outputs": [
        {
          "internalType": "uint256",
          "name": "",
          "type": "uint256"
        }
      ],
      "stateMutability": "view",
      "type": "function"
    },
    {
      "inputs": [],
      "name": "decayNumerator",
      "outputs": [
        {
          "internalType": "uint256",
          "name": "",
          "type": "uint256"
        }
      ],
      "stateMutability": "view",
      "type": "function"
    },
    {
      "inputs": [
        {
          "internalType": "contract IERC20",
          "name": "_token",
          "type": "address"
        },
        {
          "internalType": "uint256",
          "name": "_amount",
          "type": "uint256"
        },
        {
          "internalType": "address",
          "name": "_delegateAddress",
          "type": "address"
        }
      ],
      "name": "donate",
      "outputs": [],
      "stateMutability": "nonpayable",
      "type": "function"
    },
    {
      "inputs": [
        {
          "internalType": "contract ICommunity",
          "name": "_community",
          "type": "address"
        },
        {
          "internalType": "contract IERC20",
          "name": "_token",
          "type": "address"
        },
        {
          "internalType": "uint256",
          "name": "_amount",
          "type": "uint256"
        },
        {
          "internalType": "address",
          "name": "_delegateAddress",
          "type": "address"
        }
      ],
      "name": "donateToCommunity",
      "outputs": [],
      "stateMutability": "nonpayable",
      "type": "function"
    },
    {
      "inputs": [],
      "name": "donationCount",
      "outputs": [
        {
          "internalType": "uint256",
          "name": "",
          "type": "uint256"
        }
      ],
      "stateMutability": "view",
      "type": "function"
    },
    {
      "inputs": [
        {
          "internalType": "uint256",
          "name": "",
          "type": "uint256"
        }
      ],
      "name": "donations",
      "outputs": [
        {
          "internalType": "address",
          "name": "donor",
          "type": "address"
        },
        {
          "internalType": "address",
          "name": "target",
          "type": "address"
        },
        {
          "internalType": "uint256",
          "name": "rewardPeriod",
          "type": "uint256"
        },
        {
          "internalType": "uint256",
          "name": "blockNumber",
          "type": "uint256"
        },
        {
          "internalType": "uint256",
          "name": "amount",
          "type": "uint256"
        },
        {
          "internalType": "contract IERC20",
          "name": "token",
          "type": "address"
        },
        {
          "internalType": "uint256",
          "name": "initialAmount",
          "type": "uint256"
        }
      ],
      "stateMutability": "view",
      "type": "function"
    },
    {
      "inputs": [
        {
          "internalType": "address",
          "name": "_donor",
          "type": "address"
        },
        {
          "internalType": "uint256",
          "name": "_rewardPeriodIndex",
          "type": "uint256"
        }
      ],
      "name": "donorRewardPeriod",
      "outputs": [
        {
          "internalType": "uint256",
          "name": "",
          "type": "uint256"
        }
      ],
      "stateMutability": "view",
      "type": "function"
    },
    {
      "inputs": [
        {
          "internalType": "address",
          "name": "_donorAddress",
          "type": "address"
        }
      ],
      "name": "donorScore",
      "outputs": [
        {
          "internalType": "uint256",
          "name": "",
          "type": "uint256"
        }
      ],
      "stateMutability": "view",
      "type": "function"
    },
    {
      "inputs": [
        {
          "internalType": "address",
          "name": "",
          "type": "address"
        }
      ],
      "name": "donors",
      "outputs": [
        {
          "internalType": "uint256",
          "name": "lastClaim",
          "type": "uint256"
        },
        {
          "internalType": "uint256",
          "name": "rewardPeriodsCount",
          "type": "uint256"
        },
        {
          "internalType": "uint256",
          "name": "lastClaimPeriod",
          "type": "uint256"
        }
      ],
      "stateMutability": "view",
      "type": "function"
    },
    {
      "inputs": [
        {
          "internalType": "address",
          "name": "_donorAddress",
          "type": "address"
        }
      ],
      "name": "estimateClaimableReward",
      "outputs": [
        {
          "internalType": "uint256",
          "name": "",
          "type": "uint256"
        }
      ],
      "stateMutability": "view",
      "type": "function"
    },
    {
      "inputs": [
        {
          "internalType": "address",
          "name": "_donorAddress",
          "type": "address"
        }
      ],
      "name": "estimateClaimableRewardAdvance",
      "outputs": [
        {
          "internalType": "uint256",
          "name": "",
          "type": "uint256"
        }
      ],
      "stateMutability": "view",
      "type": "function"
    },
    {
      "inputs": [
        {
          "internalType": "address",
          "name": "_donorAddress",
          "type": "address"
        }
      ],
      "name": "estimateClaimableRewardByStaking",
      "outputs": [
        {
          "internalType": "uint256",
          "name": "",
          "type": "uint256"
        }
      ],
      "stateMutability": "view",
      "type": "function"
    },
    {
      "inputs": [],
      "name": "generalApr",
      "outputs": [
        {
          "internalType": "uint256",
          "name": "",
          "type": "uint256"
        }
      ],
      "stateMutability": "view",
      "type": "function"
    },
    {
      "inputs": [],
      "name": "getVersion",
      "outputs": [
        {
          "internalType": "uint256",
          "name": "",
          "type": "uint256"
        }
      ],
      "stateMutability": "pure",
      "type": "function"
    },
    {
      "inputs": [
        {
          "internalType": "contract IERC20",
          "name": "_cUSD",
          "type": "address"
        },
        {
          "internalType": "contract IERC20",
          "name": "_PACT",
          "type": "address"
        },
        {
          "internalType": "contract ITreasury",
          "name": "_treasury",
          "type": "address"
        },
        {
          "internalType": "uint256",
          "name": "_firstRewardPerBlock",
          "type": "uint256"
        },
        {
          "internalType": "uint256",
          "name": "_rewardPeriodSize",
          "type": "uint256"
        },
        {
          "internalType": "uint256",
          "name": "_startingBlock",
          "type": "uint256"
        },
        {
          "internalType": "uint256",
          "name": "_decayNumerator",
          "type": "uint256"
        },
        {
          "internalType": "uint256",
          "name": "_decayDenominator",
          "type": "uint256"
        }
      ],
      "name": "initialize",
      "outputs": [],
      "stateMutability": "nonpayable",
      "type": "function"
    },
    {
      "inputs": [
        {
          "internalType": "address",
          "name": "_donorAddress",
          "type": "address"
        }
      ],
      "name": "lastPeriodsDonations",
      "outputs": [
        {
          "internalType": "uint256",
          "name": "donorAmount",
          "type": "uint256"
        },
        {
          "internalType": "uint256",
          "name": "totalAmount",
          "type": "uint256"
        }
      ],
      "stateMutability": "view",
      "type": "function"
    },
    {
      "inputs": [],
      "name": "owner",
      "outputs": [
        {
          "internalType": "address",
          "name": "",
          "type": "address"
        }
      ],
      "stateMutability": "view",
      "type": "function"
    },
    {
      "inputs": [],
      "name": "paused",
      "outputs": [
        {
          "internalType": "bool",
          "name": "",
          "type": "bool"
        }
      ],
      "stateMutability": "view",
      "type": "function"
    },
    {
      "inputs": [],
      "name": "renounceOwnership",
      "outputs": [],
      "stateMutability": "nonpayable",
      "type": "function"
    },
    {
      "inputs": [],
      "name": "rewardPeriodCount",
      "outputs": [
        {
          "internalType": "uint256",
          "name": "",
          "type": "uint256"
        }
      ],
      "stateMutability": "view",
      "type": "function"
    },
    {
      "inputs": [
        {
          "internalType": "uint256",
          "name": "_period",
          "type": "uint256"
        },
        {
          "internalType": "address",
          "name": "_donor",
          "type": "address"
        }
      ],
      "name": "rewardPeriodDonorAmount",
      "outputs": [
        {
          "internalType": "uint256",
          "name": "",
          "type": "uint256"
        }
      ],
      "stateMutability": "view",
      "type": "function"
    },
    {
      "inputs": [
        {
          "internalType": "uint256",
          "name": "_period",
          "type": "uint256"
        },
        {
          "internalType": "address",
          "name": "_donor",
          "type": "address"
        }
      ],
      "name": "rewardPeriodDonorStakeAmounts",
      "outputs": [
        {
          "internalType": "uint256",
          "name": "",
          "type": "uint256"
        }
      ],
      "stateMutability": "view",
      "type": "function"
    },
    {
      "inputs": [],
      "name": "rewardPeriodSize",
      "outputs": [
        {
          "internalType": "uint256",
          "name": "",
          "type": "uint256"
        }
      ],
      "stateMutability": "view",
      "type": "function"
    },
    {
      "inputs": [
        {
          "internalType": "uint256",
          "name": "",
          "type": "uint256"
        }
      ],
      "name": "rewardPeriods",
      "outputs": [
        {
          "internalType": "uint256",
          "name": "rewardPerBlock",
          "type": "uint256"
        },
        {
          "internalType": "uint256",
          "name": "rewardAmount",
          "type": "uint256"
        },
        {
          "internalType": "uint256",
          "name": "startBlock",
          "type": "uint256"
        },
        {
          "internalType": "uint256",
          "name": "endBlock",
          "type": "uint256"
        },
        {
          "internalType": "uint256",
          "name": "donationsAmount",
          "type": "uint256"
        },
        {
          "internalType": "uint256",
          "name": "againstPeriods",
          "type": "uint256"
        },
        {
          "internalType": "uint256",
          "name": "stakesAmount",
          "type": "uint256"
        },
        {
          "internalType": "uint256",
          "name": "stakingDonationRatio",
          "type": "uint256"
        }
      ],
      "stateMutability": "view",
      "type": "function"
    },
    {
      "inputs": [
        {
          "internalType": "address",
          "name": "_holderAddress",
          "type": "address"
        },
        {
          "internalType": "uint256",
          "name": "_holderAmount",
          "type": "uint256"
        },
        {
          "internalType": "uint256",
          "name": "_totalAmount",
          "type": "uint256"
        }
      ],
      "name": "setStakingAmounts",
      "outputs": [],
      "stateMutability": "nonpayable",
      "type": "function"
    },
    {
      "inputs": [],
      "name": "stakeRewards",
      "outputs": [],
      "stateMutability": "nonpayable",
      "type": "function"
    },
    {
      "inputs": [
        {
          "internalType": "uint256",
          "name": "_lastPeriodNumber",
          "type": "uint256"
        }
      ],
      "name": "stakeRewardsPartial",
      "outputs": [],
      "stateMutability": "nonpayable",
      "type": "function"
    },
    {
      "inputs": [],
      "name": "staking",
      "outputs": [
        {
          "internalType": "contract IStaking",
          "name": "",
          "type": "address"
        }
      ],
      "stateMutability": "view",
      "type": "function"
    },
    {
      "inputs": [],
      "name": "stakingDonationRatio",
      "outputs": [
        {
          "internalType": "uint256",
          "name": "",
          "type": "uint256"
        }
      ],
      "stateMutability": "view",
      "type": "function"
    },
    {
      "inputs": [
        {
          "internalType": "contract IERC20",
          "name": "_token",
          "type": "address"
        },
        {
          "internalType": "address",
          "name": "_to",
          "type": "address"
        },
        {
          "internalType": "uint256",
          "name": "_amount",
          "type": "uint256"
        }
      ],
      "name": "transfer",
      "outputs": [],
      "stateMutability": "nonpayable",
      "type": "function"
    },
    {
      "inputs": [
        {
          "internalType": "address",
          "name": "newOwner",
          "type": "address"
        }
      ],
      "name": "transferOwnership",
      "outputs": [],
      "stateMutability": "nonpayable",
      "type": "function"
    },
    {
      "inputs": [],
      "name": "treasury",
      "outputs": [
        {
          "internalType": "contract ITreasury",
          "name": "",
          "type": "address"
        }
      ],
      "stateMutability": "view",
      "type": "function"
    },
    {
      "inputs": [
        {
          "internalType": "uint256",
          "name": "_newAgainstPeriods",
          "type": "uint256"
        }
      ],
      "name": "updateAgainstPeriods",
      "outputs": [],
      "stateMutability": "nonpayable",
      "type": "function"
    },
    {
      "inputs": [
        {
          "internalType": "uint256",
          "name": "_newClaimDelay",
          "type": "uint256"
        }
      ],
      "name": "updateClaimDelay",
      "outputs": [],
      "stateMutability": "nonpayable",
      "type": "function"
    },
    {
      "inputs": [
        {
          "internalType": "uint256",
          "name": "_newCommunityDonationRatio",
          "type": "uint256"
        }
      ],
      "name": "updateCommunityDonationRatio",
      "outputs": [],
      "stateMutability": "nonpayable",
      "type": "function"
    },
    {
      "inputs": [
        {
          "internalType": "uint256",
          "name": "_newRewardPeriodSize",
          "type": "uint256"
        },
        {
          "internalType": "uint256",
          "name": "_newDecayNumerator",
          "type": "uint256"
        },
        {
          "internalType": "uint256",
          "name": "_newDecayDenominator",
          "type": "uint256"
        }
      ],
      "name": "updateRewardPeriodParams",
      "outputs": [],
      "stateMutability": "nonpayable",
      "type": "function"
    },
    {
      "inputs": [
        {
          "internalType": "contract IStaking",
          "name": "_newStaking",
          "type": "address"
        }
      ],
      "name": "updateStaking",
      "outputs": [],
      "stateMutability": "nonpayable",
      "type": "function"
    },
    {
      "inputs": [
        {
          "internalType": "uint256",
          "name": "_newStakingDonationRatio",
          "type": "uint256"
        }
      ],
      "name": "updateStakingDonationRatio",
      "outputs": [],
      "stateMutability": "nonpayable",
      "type": "function"
    },
    {
      "inputs": [
        {
          "internalType": "contract ITreasury",
          "name": "_newTreasury",
          "type": "address"
        }
      ],
      "name": "updateTreasury",
      "outputs": [],
      "stateMutability": "nonpayable",
      "type": "function"
    }
  ],
  "transactionHash": "0x7bfcce02aac67fe77ceaf6ff49c5edcd854605e3937810fcae5466bb909df6c0",
  "args": [],
  "numDeployments": 3,
  "solcInputHash": "5408a662603e4ce8274f3d0cd48428ec",
  "bytecode": "0x608060405234801561001057600080fd5b50613e52806100206000396000f3fe608060405234801561001057600080fd5b50600436106102d65760003560e01c806396990e6e11610182578063cf428795116100e9578063e57919d6116100a2578063f2fde38b1161007c578063f2fde38b146106d4578063f8626af8146106e7578063fa86590914610785578063fef4af861461079857600080fd5b8063e57919d6146106b0578063ed409ff3146106b8578063f223c973146106c157600080fd5b8063cf42879514610622578063cf9d0b5f1461065c578063de8f41ba14610664578063df8fa43014610677578063e247b8d81461068a578063e48508df1461069d57600080fd5b8063ad3e48c51161013b578063ad3e48c514610583578063beabacc814610596578063c38474c0146105a9578063c89d1a8e146105b2578063ca0cdea8146105c5578063cd75000c1461060f57600080fd5b806396990e6e1461052f578063a345f38d14610542578063a4b01bf514610555578063a70e940b14610568578063a915da5614610571578063ac9e03881461057a57600080fd5b806353d541c111610241578063715018a6116101fa5780638252097d116101d45780638252097d146104765780638901e985146105025780638da5cb5b1461051557806392ade2991461052657600080fd5b8063715018a6146104485780637f51bb1f14610450578063821787ec1461046357600080fd5b806353d541c1146103d357806359d0bfff146103e65780635c975abb146103f957806361d027b31461040f5780636cc40c2c146104225780636d0acb431461043557600080fd5b80632abfab4d116102935780632abfab4d1461034f5780632bef5eef14610358578063372500ab1461036b5780633b9a0176146103735780633ddec531146103865780634cf088d9146103c057600080fd5b806307ea4e57146102db5780630d1e9b4a146102f75780630d8e6e2c1461030c5780631569cc95146103135780631c8ec2991461031b5780631fccf67214610324575b600080fd5b6102e460cf5481565b6040519081526020015b60405180910390f35b61030a61030536600461396c565b6107c0565b005b60046102e4565b6102e461097a565b6102e460d45481565b60c954610337906001600160a01b031681565b6040516001600160a01b0390911681526020016102ee565b6102e460cd5481565b6102e46103663660046139fc565b6109d4565b61030a610a01565b60ca54610337906001600160a01b031681565b6102e46103943660046137c9565b6001600160a01b0391909116600090815260d36020908152604080832093835260029093019052205490565b60d654610337906001600160a01b031681565b6102e46103e13660046137ad565b610af0565b61030a6103f4366004613864565b610ca2565b60655460ff1660405190151581526020016102ee565b60cb54610337906001600160a01b031681565b61030a6104303660046139cc565b611023565b61030a6104433660046139cc565b611273565b61030a6112de565b61030a61045e3660046137ad565b611314565b6102e46104713660046137c9565b61139a565b6104c76104843660046139cc565b60d2602052600090815260409020805460018201546002830154600384015460048501546006860154600787015460089097015495969495939492939192909188565b604080519889526020890197909752958701949094526060860192909252608085015260a084015260c083015260e0820152610100016102ee565b61030a6105103660046139cc565b6114bf565b6033546001600160a01b0316610337565b6102e460d05481565b6102e461053d3660046137ad565b611532565b61030a6105503660046137ad565b61164f565b61030a6105633660046139cc565b6116d5565b6102e460d55481565b6102e460d85481565b6102e460d75481565b61030a6105913660046137f4565b611748565b61030a6105a43660046138b6565b61188a565b6102e460ce5481565b6102e46105c03660046137ad565b611947565b6105f46105d33660046137ad565b60d36020526000908152604090208054600182015460039092015490919083565b604080519384526020840192909252908201526060016102ee565b6102e461061d3660046137ad565b6119b0565b6102e46106303660046139fc565b600082815260d2602090815260408083206001600160a01b0385168452600a0190915290205492915050565b61030a6119d8565b61030a6106723660046139cc565b611b9a565b61030a6106853660046138f6565b611d0c565b61030a6106983660046139cc565b61208a565b61030a6106ab366004613a2b565b6120f5565b6102e46121ae565b6102e460cc5481565b6102e46106cf3660046137ad565b612335565b61030a6106e23660046137ad565b612349565b6107416106f53660046139cc565b60d16020526000908152604090208054600182015460028301546003840154600485015460058601546006909601546001600160a01b0395861696948616959394929391929091169087565b604080516001600160a01b03988916815296881660208801528601949094526060850192909252608084015290921660a082015260c081019190915260e0016102ee565b6102e46107933660046137ad565b6123e4565b6107ab6107a63660046137ad565b61244e565b604080519283526020830191909152016102ee565b60655460ff16156107ec5760405162461bcd60e51b81526004016107e390613adc565b60405180910390fd5b600160005260d2602052600080516020613dfd833981519152544310156108255760405162461bcd60e51b81526004016107e390613aa5565b600260975414156108485760405162461bcd60e51b81526004016107e390613be3565b600260975560c9546001600160a01b03848116911614806108e1575060cb546040516319f3736160e01b81526001600160a01b038581166004830152909116906319f373619060240160206040518083038186803b1580156108a957600080fd5b505afa1580156108bd573d6000803e3d6000fd5b505050506040513d601f19601f820116820180604052508101906108e19190613828565b6109395760405162461bcd60e51b8152602060048201526024808201527f446f6e6174696f6e4d696e65723a3a646f6e6174653a20496e76616c6964207460448201526337b5b2b760e11b60648201526084016107e3565b60cb54610955906001600160a01b0385811691339116856124a1565b60cb54610970908290859085906001600160a01b0316612512565b5050600160975550565b60ce54600090815260d260205260408120600301544381116109ca5760cc546109a38243613d5c565b6109ad9190613c32565b60ce546109ba9190613c1a565b6109c5906001613c1a565b6109ce565b60ce545b91505090565b600082815260d2602090815260408083206001600160a01b03851684526005019091529020545b92915050565b60655460ff1615610a245760405162461bcd60e51b81526004016107e390613adc565b600160005260d2602052600080516020613dfd83398151915254431015610a5d5760405162461bcd60e51b81526004016107e390613aa5565b60026097541415610a805760405162461bcd60e51b81526004016107e390613be3565b60026097556000610a9833610a936126d6565b61271d565b60ca54909150610ab2906001600160a01b0316338361289a565b60405181815233907f106f923f993c2149d49b4255ff723acafa1f2d94393f561d3eda32ae348f7241906020015b60405180910390a2506001609755565b6001600090815260d2602052600080516020613dfd83398151915254431015610b2b5760405162461bcd60e51b81526004016107e390613aa5565b60655460ff1615610b4e5760405162461bcd60e51b81526004016107e390613adc565b600080610b5b600061244e565b915060009050610b696128cf565b905060d660009054906101000a90046001600160a01b03166001600160a01b0316638c58d0a96040518163ffffffff1660e01b815260040160206040518083038186803b158015610bb957600080fd5b505afa158015610bcd573d6000803e3d6000fd5b505050506040513d601f19601f82011682018060405250810190610bf191906139e4565b60d754610bfe9084613d3d565b610c089190613c1a565b60d654604051631aefa86d60e21b81526001600160a01b03888116600483015290911690636bbea1b49060240160206040518083038186803b158015610c4d57600080fd5b505afa158015610c61573d6000803e3d6000fd5b505050506040513d601f19601f82011682018060405250810190610c8591906139e4565b610c8f9083613d3d565b610c999190613c32565b95945050505050565b60655460ff1615610cc55760405162461bcd60e51b81526004016107e390613adc565b600160005260d2602052600080516020613dfd83398151915254431015610cfe5760405162461bcd60e51b81526004016107e390613aa5565b60026097541415610d215760405162461bcd60e51b81526004016107e390613be3565b600260975560cb5460408051632fd648bd60e11b815290516000926001600160a01b031691635fac917a916004808301926020929190829003018186803b158015610d6b57600080fd5b505afa158015610d7f573d6000803e3d6000fd5b505050506040513d601f19601f82011682018060405250810190610da39190613848565b90506001604051633f9409e960e11b81526001600160a01b038781166004830152831690637f2813d29060240160206040518083038186803b158015610de857600080fd5b505afa158015610dfc573d6000803e3d6000fd5b505050506040513d601f19601f82011682018060405250810190610e2091906139ad565b6003811115610e3f57634e487b7160e01b600052602160045260246000fd5b14610ec25760405162461bcd60e51b815260206004820152604760248201527f446f6e6174696f6e4d696e65723a3a646f6e617465546f436f6d6d756e69747960448201527f3a2054686973206973206e6f7420612076616c696420636f6d6d756e697479206064820152666164647265737360c81b608482015260a4016107e3565b846001600160a01b0316631fccf6726040518163ffffffff1660e01b815260040160206040518083038186803b158015610efb57600080fd5b505afa158015610f0f573d6000803e3d6000fd5b505050506040513d601f19601f82011682018060405250810190610f339190613848565b6001600160a01b0316846001600160a01b031614610fab5760405162461bcd60e51b815260206004820152602f60248201527f446f6e6174696f6e4d696e65723a3a646f6e617465546f436f6d6d756e69747960448201526e1d1024b73b30b634b2103a37b5b2b760891b60648201526084016107e3565b60405163e69d849d60e01b8152336004820152602481018490526001600160a01b0386169063e69d849d90604401600060405180830381600087803b158015610ff357600080fd5b505af1158015611007573d6000803e3d6000fd5b5050505061101782858588612512565b50506001609755505050565b60655460ff16156110465760405162461bcd60e51b81526004016107e390613adc565b600160005260d2602052600080516020613dfd8339815191525443101561107f5760405162461bcd60e51b81526004016107e390613aa5565b600260975414156110a25760405162461bcd60e51b81526004016107e390613be3565b60026097556110af612950565b60ce5481106111395760405162461bcd60e51b815260206004820152604a60248201527f446f6e6174696f6e4d696e65723a3a7374616b6552657761726473506172746960448201527f616c3a20546869732072657761726420706572696f642069736e277420636c616064820152691a5b58589b19481e595d60b21b608482015260a4016107e3565b6000611145338361271d565b60ca5460d65460405163095ea7b360e01b81526001600160a01b03918216600482015260248101849052929350169063095ea7b390604401602060405180830381600087803b15801561119757600080fd5b505af11580156111ab573d6000803e3d6000fd5b505050506040513d601f19601f820116820180604052508101906111cf9190613828565b5060d6546040516356e4bb9760e11b8152336004820152602481018390526001600160a01b039091169063adc9772e90604401600060405180830381600087803b15801561121c57600080fd5b505af1158015611230573d6000803e3d6000fd5b50506040518381523392507f7d3a0ab251dfd8c04c691239edd99d2c124cce6971cebc4c2ed96a378d13d50091506020015b60405180910390a250506001609755565b6033546001600160a01b0316331461129d5760405162461bcd60e51b81526004016107e390613b06565b60d85460408051918252602082018390527f300b3540c99261403e527f171e281f3dfb0705395e1902af7e9badcddce56e5e910160405180910390a160d855565b6033546001600160a01b031633146113085760405162461bcd60e51b81526004016107e390613b06565b6113126000612a91565b565b6033546001600160a01b0316331461133e5760405162461bcd60e51b81526004016107e390613b06565b60cb546040516001600160a01b038084169216907f4ab5be82436d353e61ca18726e984e561f5c1cc7c6d38b29d2553c790434705a90600090a360cb80546001600160a01b0319166001600160a01b0392909216919091179055565b60ce54600090815260d2602052604081206003015481904311156113fb5760cc5460ce54600090815260d260205260409020600301546113da9043613d5c565b6113e49190613c32565b905060ce54816113f49190613c1a565b905061140d565b600160ce5461140a9190613d5c565b90505b808311156114a95760405162461bcd60e51b815260206004820152605e60248201527f446f6e6174696f6e4d696e65723a3a63616c63756c617465436c61696d61626c60448201527f65526577617264734279506572696f644e756d6265723a20546869732072657760648201527f61726420706572696f642069736e277420617661696c61626c65207965740000608482015260a4016107e3565b60006114b58585612ae3565b5095945050505050565b6033546001600160a01b031633146114e95760405162461bcd60e51b81526004016107e390613b06565b6114f1612950565b60d75460408051918252602082018390527fb7ce19da4d8265c844e0fa744e3429c62104c793f8ecb52d1b418b47eb9f8555910160405180910390a160d755565b6001600090815260d2602052600080516020613dfd8339815191525443101561156d5760405162461bcd60e51b81526004016107e390613aa5565b60655460ff16156115905760405162461bcd60e51b81526004016107e390613adc565b60d654604051631aefa86d60e21b81526001600160a01b0384811660048301526000921690636bbea1b49060240160206040518083038186803b1580156115d657600080fd5b505afa1580156115ea573d6000803e3d6000fd5b505050506040513d601f19601f8201168201806040525081019061160e91906139e4565b90508061161e5750600092915050565b8061162a846000612f09565b61163e90694d501c54214bcd300000613d3d565b6116489190613c32565b9392505050565b6033546001600160a01b031633146116795760405162461bcd60e51b81526004016107e390613b06565b60d6546040516001600160a01b038084169216907fcfa056eb826b2a28817aa38ccb94f12ba8a1309598f7ea19bef6fd67fe04b61e90600090a360d680546001600160a01b0319166001600160a01b0392909216919091179055565b6033546001600160a01b031633146116ff5760405162461bcd60e51b81526004016107e390613b06565b611707612950565b60d55460408051918252602082018390527fd6a28c11ae992e0014e83eaaa6f0023a04c0787848134e8b4e43f44b7d7d8e30910160405180910390a160d555565b60655460ff161561176b5760405162461bcd60e51b81526004016107e390613adc565b600160005260d2602052600080516020613dfd833981519152544310156117a45760405162461bcd60e51b81526004016107e390613aa5565b60d6546001600160a01b031633146117fe5760405162461bcd60e51b815260206004820152601a60248201527f446f6e6174696f6e4d696e65723a204e4f545f5354414b494e4700000000000060448201526064016107e3565b611806612950565b60ce54600090815260d2602090815260408083206001600160a01b0387168452600981018352818420805460ff19166001179055600a810183528184208690556007810185905560d3909252909120600381015415801561186957506001810154155b1561188357600160ce5461187d9190613d5c565b60038201555b5050505050565b6033546001600160a01b031633146118b45760405162461bcd60e51b81526004016107e390613b06565b600260975414156118d75760405162461bcd60e51b81526004016107e390613be3565b60026097556118f06001600160a01b038416838361289a565b816001600160a01b0316836001600160a01b03167f9b035625e569d1d2bf54830a290aefba7ab11610ba8490871dc62b86b63a89568360405161193591815260200190565b60405180910390a35050600160975550565b6001600090815260d2602052600080516020613dfd833981519152544310156119825760405162461bcd60e51b81526004016107e390613aa5565b60655460ff16156119a55760405162461bcd60e51b81526004016107e390613adc565b6109fb826000612f09565b6000806119d08360016119c161097a565b6119cb9190613d5c565b612ae3565b509392505050565b60655460ff16156119fb5760405162461bcd60e51b81526004016107e390613adc565b600160005260d2602052600080516020613dfd83398151915254431015611a345760405162461bcd60e51b81526004016107e390613aa5565b60026097541415611a575760405162461bcd60e51b81526004016107e390613be3565b6002609755611a64612950565b6000611a7933600160ce54610a939190613d5c565b60ca5460d65460405163095ea7b360e01b81526001600160a01b03918216600482015260248101849052929350169063095ea7b390604401602060405180830381600087803b158015611acb57600080fd5b505af1158015611adf573d6000803e3d6000fd5b505050506040513d601f19601f82011682018060405250810190611b039190613828565b5060d6546040516356e4bb9760e11b8152336004820152602481018390526001600160a01b039091169063adc9772e90604401600060405180830381600087803b158015611b5057600080fd5b505af1158015611b64573d6000803e3d6000fd5b50506040518381523392507f7d3a0ab251dfd8c04c691239edd99d2c124cce6971cebc4c2ed96a378d13d5009150602001610ae0565b60655460ff1615611bbd5760405162461bcd60e51b81526004016107e390613adc565b600160005260d2602052600080516020613dfd83398151915254431015611bf65760405162461bcd60e51b81526004016107e390613aa5565b60026097541415611c195760405162461bcd60e51b81526004016107e390613be3565b6002609755611c266126d6565b811115611cae5760405162461bcd60e51b815260206004820152604a60248201527f446f6e6174696f6e4d696e65723a3a636c61696d52657761726473506172746960448201527f616c3a20546869732072657761726420706572696f642069736e277420636c616064820152691a5b58589b19481e595d60b21b608482015260a4016107e3565b6000611cba338361271d565b60ca54909150611cd4906001600160a01b0316338361289a565b604080518281526020810184905233917f2233b4bbf378b3d984acd0e36cea96f66bc81012a683e81929ed96df5287ba3d9101611262565b600054610100900460ff16611d275760005460ff1615611d2b565b303b155b611d8e5760405162461bcd60e51b815260206004820152602e60248201527f496e697469616c697a61626c653a20636f6e747261637420697320616c72656160448201526d191e481a5b9a5d1a585b1a5e995960921b60648201526084016107e3565b600054610100900460ff16158015611db0576000805461ffff19166101011790555b6001600160a01b038916611e1e5760405162461bcd60e51b815260206004820152602f60248201527f446f6e6174696f6e4d696e65723a3a696e697469616c697a653a20635553442060448201526e1859191c995cdcc81b9bdd081cd95d608a1b60648201526084016107e3565b6001600160a01b038816611e8c5760405162461bcd60e51b815260206004820152602f60248201527f446f6e6174696f6e4d696e65723a3a696e697469616c697a653a20504143542060448201526e1859191c995cdcc81b9bdd081cd95d608a1b60648201526084016107e3565b6001600160a01b038716611ef75760405162461bcd60e51b815260206004820152602c60248201527f446f6e6174696f6e4d696e65723a3a696e697469616c697a653a20747265617360448201526b1d5c9e57c81b9bdd081cd95d60a21b60648201526084016107e3565b85611f6a5760405162461bcd60e51b815260206004820152603760248201527f446f6e6174696f6e4d696e65723a3a696e697469616c697a653a20666972737460448201527f526577617264506572426c6f636b206e6f74207365742100000000000000000060648201526084016107e3565b83611fdd5760405162461bcd60e51b815260206004820152603860248201527f446f6e6174696f6e4d696e65723a3a696e697469616c697a653a20737461727460448201527f696e67526577617264506572696f64206e6f742073657421000000000000000060648201526084016107e3565b84611ffa5760405162461bcd60e51b81526004016107e390613b3b565b612002612f62565b61200a612f99565b612012612fd0565b60c980546001600160a01b03808c166001600160a01b03199283161790925560ca80548b841690831617905560cb8054928a169290911691909117905560cc85905560cf83905560d0829055600160ce5561206d8487612fff565b801561207f576000805461ff00191690555b505050505050505050565b6033546001600160a01b031633146120b45760405162461bcd60e51b81526004016107e390613b06565b60d45460408051918252602082018390527f7625e5482008771a414881eb4c957803f2ab46e99e6da60df6e1310f0f009fec910160405180910390a160d455565b6033546001600160a01b0316331461211f5760405162461bcd60e51b81526004016107e390613b06565b8261213c5760405162461bcd60e51b81526004016107e390613b3b565b612144612950565b60cc5460cf5460d05460408051938452602084019290925282820152606082018590526080820184905260a08201839052517f8fb29c6ced5ce51696c08668df816fab7e60c674a6c36e167d5df9b8a5f499849181900360c00190a160cc9290925560cf5560d055565b6001600090815260d2602052600080516020613dfd833981519152544310156121e95760405162461bcd60e51b81526004016107e390613aa5565b60655460ff161561220c5760405162461bcd60e51b81526004016107e390613adc565b600080612219600061244e565b9150600090506122276128cf565b90508060005b61016c8110156122715760d05460cf546122479085613d3d565b6122519190613c32565b925061225d8383613c1a565b91508061226981613db6565b91505061222d565b60d660009054906101000a90046001600160a01b03166001600160a01b0316638c58d0a96040518163ffffffff1660e01b815260040160206040518083038186803b1580156122bf57600080fd5b505afa1580156122d3573d6000803e3d6000fd5b505050506040513d601f19601f820116820180604052508101906122f791906139e4565b60d7546123049086613d3d565b61230e9190613c1a565b6123218368056bc75e2d63100000613d3d565b61232b9190613c32565b9550505050505090565b60006109fb82670de0b6b3a7640000613076565b6033546001600160a01b031633146123735760405162461bcd60e51b81526004016107e390613b06565b6001600160a01b0381166123d85760405162461bcd60e51b815260206004820152602660248201527f4f776e61626c653a206e6577206f776e657220697320746865207a65726f206160448201526564647265737360d01b60648201526084016107e3565b6123e181612a91565b50565b6001600090815260d2602052600080516020613dfd8339815191525443101561241f5760405162461bcd60e51b81526004016107e390613aa5565b60655460ff16156124425760405162461bcd60e51b81526004016107e390613adc565b6109fb8260d554612f09565b600080600061245b61097a565b9050600060d554821161246f57600161247c565b60d55461247c9083613d5c565b90508060ce541061249a57612494858260ce546132fa565b90945092505b5050915091565b6040516001600160a01b038085166024830152831660448201526064810182905261250c9085906323b872dd60e01b906084015b60408051601f198184030181529190526020810180516001600160e01b03166001600160e01b03199093169290921790915261336f565b50505050565b61251a612950565b60cd805490600061252a83613db6565b909155505060cd54600090815260d16020526040902080546001600160a01b038087166001600160a01b0319928316178355600183018054858316908416811790915543600385015560ce5460028501556005840180548884169416939093179092556006830185905560cb541614156126485760c9546001600160a01b0385811691161461263c5760cb5460405163f2b8995160e01b81526001600160a01b038681166004830152602482018690529091169063f2b899519060440160206040518083038186803b1580156125ff57600080fd5b505afa158015612613573d6000803e3d6000fd5b505050506040513d601f19601f8201168201806040525081019061263791906139e4565b61263e565b825b600482015561265b565b60d8546126559084613c32565b60048201555b61266c60ce54868360040154613441565b6126758561349e565b60cd546004820154604080519182526001600160a01b03878116602084015290820186905280851692908816917f3d2fa2b84d5f2000d605401d563ba60e2e44f62701fdbe9f9101c59b3c215f299060600160405180910390a45050505050565b60006126e0612950565b60d4546126ee906001613c1a565b60ce54116126fc5750600090565b60d454600160ce5461270e9190613d5c565b6127189190613d5c565b905090565b6001600160a01b038216600090815260d36020526040812081806127418686612ae3565b6003850154919350915085111561275a57600383018590555b600085815260d2602090815260408083206001600160a01b038a168452600a01909152902081905581612791575091506109fb9050565b60ca546040516370a0823160e01b81523060048201526001600160a01b03909116906370a082319060240160206040518083038186803b1580156127d457600080fd5b505afa1580156127e8573d6000803e3d6000fd5b505050506040513d601f19601f8201168201806040525081019061280c91906139e4565b8211156128915760ca546040516370a0823160e01b81523060048201526001600160a01b03909116906370a082319060240160206040518083038186803b15801561285657600080fd5b505afa15801561286a573d6000803e3d6000fd5b505050506040513d601f19601f8201168201806040525081019061288e91906139e4565b91505b50949350505050565b6040516001600160a01b0383166024820152604481018290526128ca90849063a9059cbb60e01b906064016124d5565b505050565b6000806128da61097a565b9050600060ce54826128ec9190613d5c565b60d0546128f99190613c95565b60ce546129069084613d5c565b60cf546129139190613c95565b60ce54600090815260d2602052604090205461292f9190613d3d565b6129399190613c32565b905060cc54816129499190613d3d565b9250505090565b60ce54600090815260d2602052604090205b43816003015410156123e15760ce805490600061297e83613db6565b909155505060ce54600090815260d26020526040902060d554600682015560038201546129ac906001613c1a565b6002820181905560cc546001916129c39190613c1a565b6129cd9190613d5c565b600382015560d05460cf5483546129e49190613d3d565b6129ee9190613c32565b8082556007808401549083015560d754600883015560cc54600091612a1291613d3d565b905060008360060154600160ce54612a2a9190613d5c565b11612a36576001612a54565b8360060154600160ce54612a4a9190613d5c565b612a549190613d5c565b9050612a6e81600160ce54612a699190613d5c565b613537565b612a84576001840154612a819083613c1a565b91505b5060018201559050612962565b603380546001600160a01b038381166001600160a01b0319831681179093556040519116919082907f8be0079c531659141344cd1fd0a4f28419497f9722a3daafe3b4186f6b6457e090600090a35050565b6001600160a01b038216600090815260d36020526040812060038101548291908290612b10906001613c1a565b90508060011415612b3c5781546000908152600283016020526040902054612b39906001613c1a565b90505b60d26020819052600082815260408120818052909182918291829182917f20791b593a776a2631a28f4a3f62a14ad18db22add38130c4f4a8fdfa46398859190829084612b8a60018c613d5c565b8152602001908152602001600020600a0160008f6001600160a01b03166001600160a01b03168152602001908152602001600020549a505b8c8911612ef857600282015415612d53576006820154612c06576001600160a01b038e16600090815260058301602052604090205460048301549098509650612d25565b816006015483600601541415612ce3576006820154612c26906001613c1a565b891115612ca55760d26000836006015460018c612c439190613d5c565b612c4d9190613d5c565b815260200190815260200160002090508060050160008f6001600160a01b03166001600160a01b031681526020019081526020016000205488612c909190613d5c565b9750806004015487612ca29190613d5c565b96505b6001600160a01b038e166000908152600583016020526040902054612cca9089613c1a565b9750816004015487612cdc9190613c1a565b9650612d25565b8160060154891115612d1357612d098e83600601548b612d039190613d5c565b8b6132fa565b9098509650612d25565b612d1f8e60008b6132fa565b90985096505b81600101549550816007015494506000826008015411612d46576001612d4c565b81600801545b9350612e35565b60d554612d61906001613c1a565b891115612dde5760d2600060d55460018c612d7c9190613d5c565b612d869190613d5c565b815260200190815260200160002090508060050160008f6001600160a01b03166001600160a01b031681526020019081526020016000205488612dc99190613d5c565b9750806004015487612ddb9190613d5c565b96505b6001600160a01b038e166000908152600583016020526040902054612e039089613c1a565b9750816004015487612e159190613c1a565b965060d05460cf5487612e289190613d3d565b612e329190613c32565b95505b6001600160a01b038e16600090815260098301602052604090205460ff1615612e76576001600160a01b038e166000908152600a830160205260409020549a505b6000612e828c8a613c1a565b1115612ed35784612e938589613d3d565b612e9d9190613c1a565b8b612ea8868b613d3d565b612eb29190613c1a565b612ebc9088613d3d565b612ec69190613c32565b612ed0908d613c1a565b9b505b88612edd81613db6565b600081815260d260205260409020909a50929350612bc29050565b505050505050505050509250929050565b600080612f146128cf565b9050805b8315612f585760d05460cf54612f2e9084613d3d565b612f389190613c32565b9150612f448282613c1a565b905083612f5081613d9f565b945050612f18565b610c998582613076565b600054610100900460ff16612f895760405162461bcd60e51b81526004016107e390613b98565b612f9161358d565b6113126135b4565b600054610100900460ff16612fc05760405162461bcd60e51b81526004016107e390613b98565b612fc861358d565b6113126135e4565b600054610100900460ff16612ff75760405162461bcd60e51b81526004016107e390613b98565b611312613617565b6001600081905260d2602052600080516020613dfd83398151915283905560cc547fb7404ce2b5a52e61a6b5c9b4585ed65d8cb4b8848d3ee262a356d0c2c46c5f35919061304d9085613c1a565b6130579190613d5c565b600382015581815560cc5461306c9083613d3d565b6001909101555050565b60008060006130848561244e565b60d654604080516319e815f960e01b815290519395509193506000926001600160a01b03909116916319e815f9916004808301926020929190829003018186803b1580156130d157600080fd5b505afa1580156130e5573d6000803e3d6000fd5b505050506040513d601f19601f820116820180604052508101906131099190613848565b6001600160a01b03166318160ddd6040518163ffffffff1660e01b815260040160206040518083038186803b15801561314157600080fd5b505afa158015613155573d6000803e3d6000fd5b505050506040513d601f19601f8201168201806040525081019061317991906139e4565b905080158015613187575081155b1561319857600093505050506109fb565b60008060d754116131aa5760016131ae565b60d7545b905060d660009054906101000a90046001600160a01b03166001600160a01b0316638c58d0a96040518163ffffffff1660e01b815260040160206040518083038186803b1580156131fe57600080fd5b505afa158015613212573d6000803e3d6000fd5b505050506040513d601f19601f8201168201806040525081019061323691906139e4565b6132408285613d3d565b61324a9190613c1a565b60d654604051631aefa86d60e21b81526001600160a01b038a8116600483015290911690636bbea1b49060240160206040518083038186803b15801561328f57600080fd5b505afa1580156132a3573d6000803e3d6000fd5b505050506040513d601f19601f820116820180604052508101906132c791906139e4565b6132d18387613d3d565b6132db9190613c1a565b6132e59088613d3d565b6132ef9190613c32565b979650505050505050565b6000808080855b85811161336257600081815260d2602090815260408083206001600160a01b038c168452600581019092529091205461333a9085613c1a565b935080600401548361334c9190613c1a565b925050808061335a90613db6565b915050613301565b5090969095509350505050565b60006133c4826040518060400160405280602081526020017f5361666545524332303a206c6f772d6c6576656c2063616c6c206661696c6564815250856001600160a01b03166136459092919063ffffffff16565b8051909150156128ca57808060200190518101906133e29190613828565b6128ca5760405162461bcd60e51b815260206004820152602a60248201527f5361666545524332303a204552433230206f7065726174696f6e20646964206e6044820152691bdd081cdd58d8d9595960b21b60648201526084016107e3565b600083815260d26020526040812060048101805491928492613464908490613c1a565b90915550506001600160a01b038316600090815260058201602052604081208054849290613493908490613c1a565b909155505050505050565b6001600160a01b038116600090815260d36020908152604080832060018101548452600281019092529091205460ce548114613505576001820180549060006134e683613db6565b909155505060ce54600183015460009081526002840160205260409020555b600382015415801561351957506001820154155b156128ca57600160ce5461352d9190613d5c565b6003830155505050565b60005b81831161358457600083815260d26020526040812060078101546004909101546135649190613c1a565b1115613572575060016109fb565b8261357c81613db6565b93505061353a565b50600092915050565b600054610100900460ff166113125760405162461bcd60e51b81526004016107e390613b98565b600054610100900460ff166135db5760405162461bcd60e51b81526004016107e390613b98565b61131233612a91565b600054610100900460ff1661360b5760405162461bcd60e51b81526004016107e390613b98565b6065805460ff19169055565b600054610100900460ff1661363e5760405162461bcd60e51b81526004016107e390613b98565b6001609755565b6060613654848460008561365c565b949350505050565b6060824710156136bd5760405162461bcd60e51b815260206004820152602660248201527f416464726573733a20696e73756666696369656e742062616c616e636520666f6044820152651c8818d85b1b60d21b60648201526084016107e3565b843b61370b5760405162461bcd60e51b815260206004820152601d60248201527f416464726573733a2063616c6c20746f206e6f6e2d636f6e747261637400000060448201526064016107e3565b600080866001600160a01b031685876040516137279190613a56565b60006040518083038185875af1925050503d8060008114613764576040519150601f19603f3d011682016040523d82523d6000602084013e613769565b606091505b50915091506132ef82828660608315613783575081611648565b8251156137935782518084602001fd5b8160405162461bcd60e51b81526004016107e39190613a72565b6000602082840312156137be578081fd5b813561164881613de7565b600080604083850312156137db578081fd5b82356137e681613de7565b946020939093013593505050565b600080600060608486031215613808578081fd5b833561381381613de7565b95602085013595506040909401359392505050565b600060208284031215613839578081fd5b81518015158114611648578182fd5b600060208284031215613859578081fd5b815161164881613de7565b60008060008060808587031215613879578081fd5b843561388481613de7565b9350602085013561389481613de7565b92506040850135915060608501356138ab81613de7565b939692955090935050565b6000806000606084860312156138ca578283fd5b83356138d581613de7565b925060208401356138e581613de7565b929592945050506040919091013590565b600080600080600080600080610100898b031215613912578384fd5b883561391d81613de7565b9750602089013561392d81613de7565b9650604089013561393d81613de7565b979a96995096976060810135975060808101359660a0820135965060c0820135955060e0909101359350915050565b600080600060608486031215613980578283fd5b833561398b81613de7565b92506020840135915060408401356139a281613de7565b809150509250925092565b6000602082840312156139be578081fd5b815160048110611648578182fd5b6000602082840312156139dd578081fd5b5035919050565b6000602082840312156139f5578081fd5b5051919050565b60008060408385031215613a0e578182fd5b823591506020830135613a2081613de7565b809150509250929050565b600080600060608486031215613a3f578081fd5b505081359360208301359350604090920135919050565b60008251613a68818460208701613d73565b9190910192915050565b6020815260008251806020840152613a91816040850160208701613d73565b601f01601f19169190910160400192915050565b6020808252601e908201527f446f6e6174696f6e4d696e65723a204552525f4e4f545f535441525445440000604082015260600190565b60208082526010908201526f14185d5cd8589b194e881c185d5cd95960821b604082015260600190565b6020808252818101527f4f776e61626c653a2063616c6c6572206973206e6f7420746865206f776e6572604082015260600190565b60208082526037908201527f446f6e6174696f6e4d696e65723a3a696e697469616c697a653a20726577617260408201527f64506572696f6453697a6520697320696e76616c696421000000000000000000606082015260800190565b6020808252602b908201527f496e697469616c697a61626c653a20636f6e7472616374206973206e6f74206960408201526a6e697469616c697a696e6760a81b606082015260800190565b6020808252601f908201527f5265656e7472616e637947756172643a207265656e7472616e742063616c6c00604082015260600190565b60008219821115613c2d57613c2d613dd1565b500190565b600082613c4d57634e487b7160e01b81526012600452602481fd5b500490565b600181815b80851115613c8d578160001904821115613c7357613c73613dd1565b80851615613c8057918102915b93841c9390800290613c57565b509250929050565b60006116488383600082613cab575060016109fb565b81613cb8575060006109fb565b8160018114613cce5760028114613cd857613cf4565b60019150506109fb565b60ff841115613ce957613ce9613dd1565b50506001821b6109fb565b5060208310610133831016604e8410600b8410161715613d17575081810a6109fb565b613d218383613c52565b8060001904821115613d3557613d35613dd1565b029392505050565b6000816000190483118215151615613d5757613d57613dd1565b500290565b600082821015613d6e57613d6e613dd1565b500390565b60005b83811015613d8e578181015183820152602001613d76565b8381111561250c5750506000910152565b600081613dae57613dae613dd1565b506000190190565b6000600019821415613dca57613dca613dd1565b5060010190565b634e487b7160e01b600052601160045260246000fd5b6001600160a01b03811681146123e157600080fdfeb7404ce2b5a52e61a6b5c9b4585ed65d8cb4b8848d3ee262a356d0c2c46c5f37a2646970667358221220b3c6bc9de5d3dbdc8e396416dc80a33a577de2bf5c209de702a65de9f3b9070b64736f6c63430008040033",
  "devdoc": {
    "events": {
      "AgainstPeriodsUpdated(uint256,uint256)": {
        "params": {
          "newAgainstPeriods": "New againstPeriods value",
          "oldAgainstPeriods": "Old againstPeriods value"
        }
      },
      "ClaimDelayUpdated(uint256,uint256)": {
        "params": {
          "newClaimDelay": "New claimDelay value",
          "oldClaimDelay": "Old claimDelay value"
        }
      },
      "CommunityDonationRatioUpdated(uint256,uint256)": {
        "params": {
          "newCommunityDonationRatio": "New communityDonationRatio value",
          "oldCommunityDonationRatio": "Old communityDonationRatio value"
        }
      },
      "DonationAdded(uint256,address,uint256,address,uint256,address)": {
        "params": {
          "amount": "Number of token donated",
          "delegateAddress": "Address of the delegate",
          "donationId": "Id of the donation",
          "target": "Address of the receiver (community or treasury)                          or address of the DonationMiner contract otherwise",
          "token": "Address of the token after conversion"
        }
      },
      "RewardClaimed(address,uint256)": {
        "params": {
          "amount": "Value of the reward",
          "donor": "Address of the donner"
        }
      },
      "RewardClaimedPartial(address,uint256,uint256)": {
        "params": {
          "amount": "Value of the reward",
          "donor": "Address of the donner",
          "lastRewardPeriod": "Number of the last reward period for witch the claim was made"
        }
      },
      "RewardPeriodParamsUpdated(uint256,uint256,uint256,uint256,uint256,uint256)": {
        "params": {
          "newDecayDenominator": "New decayDenominator value For further information regarding each parameter, see *DonationMiner* smart contract initialize method.",
          "newDecayNumerator": "New decayNumerator value",
          "newRewardPeriodSize": "New rewardPeriodSize value",
          "oldDecayDenominator": "Old decayDenominator value",
          "oldDecayNumerator": "Old decayNumerator value",
          "oldRewardPeriodSize": "Old rewardPeriodSize value"
        }
      },
      "RewardStaked(address,uint256)": {
        "params": {
          "amount": "Value of the reward",
          "donor": "Address of the donner"
        }
      },
      "RewardStakedPartial(address,uint256,uint256)": {
        "params": {
          "amount": "Value of the reward",
          "donor": "Address of the donner",
          "lastRewardPeriod": "Number of the last reward period for witch tha stake was made"
        }
      },
      "StakingDonationRatioUpdated(uint256,uint256)": {
        "params": {
          "newStakingDonationRatio": "New stakingDonationRatio value",
          "oldStakingDonationRatio": "Old stakingDonationRatio value"
        }
      },
      "StakingUpdated(address,address)": {
        "params": {
          "newStaking": "New staking address",
          "oldStaking": "Old staking address"
        }
      },
      "TransferERC20(address,address,uint256)": {
        "params": {
          "amount": "Amount of the transaction",
          "to": "Address of the receiver",
          "token": "ERC20 token address"
        }
      },
      "TreasuryUpdated(address,address)": {
        "params": {
          "newTreasury": "New treasury address",
          "oldTreasury": "Old treasury address"
        }
      }
    },
    "kind": "dev",
    "methods": {
      "apr(address)": {
        "params": {
          "_stakeholderAddress": "address of the stakeHolder"
        },
        "returns": {
          "_0": "uint256 APR of the user"
        }
      },
      "calculateClaimableRewards(address)": {
        "params": {
          "_donorAddress": "address of the donor"
        },
        "returns": {
          "_0": "claimAmount uint256 sum of all donor's rewards that has not been claimed until _lastPeriodNumber"
        }
      },
      "calculateClaimableRewardsByPeriodNumber(address,uint256)": {
        "params": {
          "_donorAddress": "address of the donor",
          "_lastPeriodNumber": "last reward period number to be computed"
        },
        "returns": {
          "_0": "uint256 sum of all donor's rewards that has not been claimed until _lastPeriodNumber"
        }
      },
      "donate(address,uint256,address)": {
        "params": {
          "_amount": "Amount of cUSD tokens to deposit.",
          "_delegateAddress": "the address that will claim the reward for the donation",
          "_token": "address of the token"
        }
      },
      "donateToCommunity(address,address,uint256,address)": {
        "details": "Transfers tokens to the community contract",
        "params": {
          "_amount": "amount of cUSD tokens to deposit",
          "_community": "address of the community",
          "_delegateAddress": "the address that will claim the reward for the donation",
          "_token": "address of the token"
        }
      },
      "donorRewardPeriod(address,uint256)": {
        "params": {
          "_donor": "address of the donor",
          "_rewardPeriodIndex": "index of the reward period"
        },
        "returns": {
          "_0": "uint256 number of the reward period"
        }
      },
      "donorScore(address)": {
        "details": "Calculate the score of a user based as this ratio (his donation and staking) / (all donation and staking) E.G. score = 0.01 * 1e18 => the donor have have 1% score      so he will get 1% of the reward",
        "params": {
          "_donorAddress": "address of the donor"
        },
        "returns": {
          "_0": "uint256    donor's score"
        }
      },
      "estimateClaimableReward(address)": {
        "params": {
          "_donorAddress": "address of the donor"
        },
        "returns": {
          "_0": "uint256 reward that donor will receive in current reward period if there isn't another donation"
        }
      },
      "estimateClaimableRewardAdvance(address)": {
        "params": {
          "_donorAddress": "address of the donor"
        },
        "returns": {
          "_0": "uint256 reward that donor will receive in current reward period if there isn't another donation"
        }
      },
      "estimateClaimableRewardByStaking(address)": {
        "returns": {
          "_0": "uint256 estimated reward by donor stakes"
        }
      },
      "generalApr()": {
        "returns": {
          "_0": "uint256 APR"
        }
      },
      "initialize(address,address,address,uint256,uint256,uint256,uint256,uint256)": {
        "params": {
          "_PACT": "Address of the PACT Token",
          "_cUSD": "Address of the cUSD token",
          "_decayDenominator": "Decay denominator used for calculating the new reward per block based on the previous reward per block",
          "_decayNumerator": "Decay numerator used for calculating the new reward per block based on the previous reward per block",
          "_firstRewardPerBlock": "Number of PACTs given for each block                              from the first reward period",
          "_rewardPeriodSize": "Number of blocks of the reward period",
          "_startingBlock": "First block of the first reward period",
          "_treasury": "Address of the Treasury"
        }
      },
      "lastPeriodsDonations(address)": {
        "details": "Calculate all donations on the last X epochs as well as everyone else in the same period.",
        "params": {
          "_donorAddress": "address of the donor"
        },
        "returns": {
          "donorAmount": "uint256    sum of donor's donations",
          "totalAmount": "uint256    sum of all donations"
        }
      },
      "owner()": {
        "details": "Returns the address of the current owner."
      },
      "paused()": {
        "details": "Returns true if the contract is paused, and false otherwise."
      },
      "renounceOwnership()": {
        "details": "Leaves the contract without owner. It will not be possible to call `onlyOwner` functions anymore. Can only be called by the current owner. NOTE: Renouncing ownership will leave the contract without an owner, thereby removing any functionality that is only available to the owner."
      },
      "rewardPeriodDonorAmount(uint256,address)": {
        "params": {
          "_donor": "address of the donor",
          "_period": "number of the reward period"
        },
        "returns": {
          "_0": "uint256 amount of cUSD donated by the user in this reward period"
        }
      },
      "rewardPeriodDonorStakeAmounts(uint256,address)": {
        "params": {
          "_donor": "address of the donor",
          "_period": "reward period number"
        },
        "returns": {
          "_0": "uint256 amount of PACT staked by a user at the and of the reward period"
        }
      },
      "transfer(address,address,uint256)": {
        "params": {
          "_amount": "amount of the transaction",
          "_to": "address of the receiver",
          "_token": "address of the ERC20 token"
        }
      },
      "transferOwnership(address)": {
        "details": "Transfers ownership of the contract to a new account (`newOwner`). Can only be called by the current owner."
      },
      "updateAgainstPeriods(uint256)": {
        "params": {
          "_newAgainstPeriods": "Number of reward periods for the backward computation"
        }
      },
      "updateClaimDelay(uint256)": {
        "params": {
          "_newClaimDelay": "Number of reward periods a donor has to wait after                            a donation until he will be able to claim his reward"
        }
      },
      "updateCommunityDonationRatio(uint256)": {
        "params": {
          "_newCommunityDonationRatio": "Ratio between 1USD donated into the treasury vs 1USD donated to a community"
        }
      },
      "updateRewardPeriodParams(uint256,uint256,uint256)": {
        "params": {
          "_newDecayDenominator": "value of new decayDenominator",
          "_newDecayNumerator": "value of new decayNumerator",
          "_newRewardPeriodSize": "value of new rewardPeriodSize"
        }
      },
      "updateStaking(address)": {
        "params": {
          "_newStaking": "address of new Staking contract"
        }
      },
      "updateStakingDonationRatio(uint256)": {
        "params": {
          "_newStakingDonationRatio": "Number of tokens that need to be staked to be counted as 1 PACT donated"
        }
      },
      "updateTreasury(address)": {
        "params": {
          "_newTreasury": "address of new treasury_ contract"
        }
      }
    },
    "version": 1
  },
  "userdoc": {
    "events": {
      "AgainstPeriodsUpdated(uint256,uint256)": {
        "notice": "Triggered when the againstPeriods value has been updated"
      },
      "ClaimDelayUpdated(uint256,uint256)": {
        "notice": "Triggered when the claimDelay value has been updated"
      },
      "CommunityDonationRatioUpdated(uint256,uint256)": {
        "notice": "Triggered when the communityDonationRatio value has been updated"
      },
      "DonationAdded(uint256,address,uint256,address,uint256,address)": {
        "notice": "Triggered when a donation has been added"
      },
      "RewardClaimed(address,uint256)": {
        "notice": "Triggered when a donor has claimed his reward"
      },
      "RewardClaimedPartial(address,uint256,uint256)": {
        "notice": "Triggered when a donor has claimed his reward"
      },
      "RewardPeriodParamsUpdated(uint256,uint256,uint256,uint256,uint256,uint256)": {
        "notice": "Triggered when reward period params have been updated"
      },
      "RewardStaked(address,uint256)": {
        "notice": "Triggered when a donor has staked his reward"
      },
      "RewardStakedPartial(address,uint256,uint256)": {
        "notice": "Triggered when a donor has staked his reward"
      },
      "StakingDonationRatioUpdated(uint256,uint256)": {
        "notice": "Triggered when the stakingDonationRatio value has been updated"
      },
      "StakingUpdated(address,address)": {
        "notice": "Triggered when the staking address has been updated"
      },
      "TransferERC20(address,address,uint256)": {
        "notice": "Triggered when an amount of an ERC20 has been transferred from this contract to an address"
      },
      "TreasuryUpdated(address,address)": {
        "notice": "Triggered when the treasury address has been updated"
      }
    },
    "kind": "user",
    "methods": {
      "apr(address)": {
        "notice": "Calculates the APR of a user based on his staking"
      },
      "calculateClaimableRewards(address)": {
        "notice": "Calculates the rewards from ended reward periods of a donor"
      },
      "calculateClaimableRewardsByPeriodNumber(address,uint256)": {
        "notice": "Calculates the rewards from ended reward periods of a donor"
      },
      "claimRewards()": {
        "notice": "Transfers to the sender the rewards"
      },
      "claimRewardsPartial(uint256)": {
        "notice": "Transfers to the sender the rewards"
      },
      "donate(address,uint256,address)": {
        "notice": "Transfers cUSD tokens to the treasury contract"
      },
      "donorRewardPeriod(address,uint256)": {
        "notice": "Returns a reward period number from a donor reward period list"
      },
      "estimateClaimableReward(address)": {
        "notice": "Calculates the estimate reward of a donor for current reward period"
      },
      "estimateClaimableRewardAdvance(address)": {
        "notice": "Calculates the estimate reward of a donor for the next x reward periods"
      },
      "estimateClaimableRewardByStaking(address)": {
        "notice": "Calculates the estimate reward of a donor for current reward period based on his staking"
      },
      "generalApr()": {
        "notice": "Calculates the APR"
      },
      "getVersion()": {
        "notice": "Returns the current implementation version"
      },
      "initialize(address,address,address,uint256,uint256,uint256,uint256,uint256)": {
        "notice": "Used to initialize a new DonationMiner contract"
      },
      "rewardPeriodDonorAmount(uint256,address)": {
        "notice": "Returns the amount of cUSD donated by a user in a reward period"
      },
      "rewardPeriodDonorStakeAmounts(uint256,address)": {
        "notice": "Returns the amount of PACT staked by a user at the and of the reward period"
      },
      "stakeRewards()": {
        "notice": "Stakes the reward"
      },
      "stakeRewardsPartial(uint256)": {
        "notice": "Stakes the reward"
      },
      "transfer(address,address,uint256)": {
        "notice": "Transfers an amount of an ERC20 from this contract to an address"
      },
      "updateAgainstPeriods(uint256)": {
        "notice": "Updates againstPeriods value"
      },
      "updateClaimDelay(uint256)": {
        "notice": "Updates claimDelay value"
      },
      "updateCommunityDonationRatio(uint256)": {
        "notice": "Updates communityDonationRatio value"
      },
      "updateRewardPeriodParams(uint256,uint256,uint256)": {
        "notice": "Updates reward period default params"
      },
      "updateStaking(address)": {
        "notice": "Updates Staking address"
      },
      "updateStakingDonationRatio(uint256)": {
        "notice": "Updates stakingDonationRatio value"
      },
      "updateTreasury(address)": {
        "notice": "Updates Treasury address"
      }
    },
    "version": 1
  },
  "storageLayout": {
    "storage": [
      {
        "astId": 542,
        "contract": "contracts/donationMiner/DonationMinerImplementation.sol:DonationMinerImplementation",
        "label": "_initialized",
        "offset": 0,
        "slot": "0",
        "type": "t_bool"
      },
      {
        "astId": 545,
        "contract": "contracts/donationMiner/DonationMinerImplementation.sol:DonationMinerImplementation",
        "label": "_initializing",
        "offset": 1,
        "slot": "0",
        "type": "t_bool"
      },
      {
        "astId": 1068,
        "contract": "contracts/donationMiner/DonationMinerImplementation.sol:DonationMinerImplementation",
        "label": "__gap",
        "offset": 0,
        "slot": "1",
        "type": "t_array(t_uint256)50_storage"
      },
      {
        "astId": 420,
        "contract": "contracts/donationMiner/DonationMinerImplementation.sol:DonationMinerImplementation",
        "label": "_owner",
        "offset": 0,
        "slot": "51",
        "type": "t_address"
      },
      {
        "astId": 534,
        "contract": "contracts/donationMiner/DonationMinerImplementation.sol:DonationMinerImplementation",
        "label": "__gap",
        "offset": 0,
        "slot": "52",
        "type": "t_array(t_uint256)49_storage"
      },
      {
        "astId": 630,
        "contract": "contracts/donationMiner/DonationMinerImplementation.sol:DonationMinerImplementation",
        "label": "_paused",
        "offset": 0,
        "slot": "101",
        "type": "t_bool"
      },
      {
        "astId": 721,
        "contract": "contracts/donationMiner/DonationMinerImplementation.sol:DonationMinerImplementation",
        "label": "__gap",
        "offset": 0,
        "slot": "102",
        "type": "t_array(t_uint256)49_storage"
      },
      {
        "astId": 736,
        "contract": "contracts/donationMiner/DonationMinerImplementation.sol:DonationMinerImplementation",
        "label": "_status",
        "offset": 0,
        "slot": "151",
        "type": "t_uint256"
      },
      {
        "astId": 779,
        "contract": "contracts/donationMiner/DonationMinerImplementation.sol:DonationMinerImplementation",
        "label": "__gap",
        "offset": 0,
        "slot": "152",
        "type": "t_array(t_uint256)49_storage"
      },
      {
        "astId": 15162,
        "contract": "contracts/donationMiner/DonationMinerImplementation.sol:DonationMinerImplementation",
        "label": "cUSD",
        "offset": 0,
        "slot": "201",
        "type": "t_contract(IERC20)3447"
      },
      {
        "astId": 15166,
        "contract": "contracts/donationMiner/DonationMinerImplementation.sol:DonationMinerImplementation",
        "label": "PACT",
        "offset": 0,
        "slot": "202",
        "type": "t_contract(IERC20)3447"
      },
      {
        "astId": 15170,
        "contract": "contracts/donationMiner/DonationMinerImplementation.sol:DonationMinerImplementation",
        "label": "treasury",
        "offset": 0,
        "slot": "203",
        "type": "t_contract(ITreasury)28329"
      },
      {
        "astId": 15173,
        "contract": "contracts/donationMiner/DonationMinerImplementation.sol:DonationMinerImplementation",
        "label": "rewardPeriodSize",
        "offset": 0,
        "slot": "204",
        "type": "t_uint256"
      },
      {
        "astId": 15176,
        "contract": "contracts/donationMiner/DonationMinerImplementation.sol:DonationMinerImplementation",
        "label": "donationCount",
        "offset": 0,
        "slot": "205",
        "type": "t_uint256"
      },
      {
        "astId": 15179,
        "contract": "contracts/donationMiner/DonationMinerImplementation.sol:DonationMinerImplementation",
        "label": "rewardPeriodCount",
        "offset": 0,
        "slot": "206",
        "type": "t_uint256"
      },
      {
        "astId": 15182,
        "contract": "contracts/donationMiner/DonationMinerImplementation.sol:DonationMinerImplementation",
        "label": "decayNumerator",
        "offset": 0,
        "slot": "207",
        "type": "t_uint256"
      },
      {
        "astId": 15185,
        "contract": "contracts/donationMiner/DonationMinerImplementation.sol:DonationMinerImplementation",
        "label": "decayDenominator",
        "offset": 0,
        "slot": "208",
        "type": "t_uint256"
      },
      {
        "astId": 15191,
        "contract": "contracts/donationMiner/DonationMinerImplementation.sol:DonationMinerImplementation",
        "label": "donations",
        "offset": 0,
        "slot": "209",
        "type": "t_mapping(t_uint256,t_struct(Donation)15303_storage)"
      },
      {
        "astId": 15197,
        "contract": "contracts/donationMiner/DonationMinerImplementation.sol:DonationMinerImplementation",
        "label": "rewardPeriods",
        "offset": 0,
        "slot": "210",
        "type": "t_mapping(t_uint256,t_struct(RewardPeriod)15276_storage)"
      },
      {
        "astId": 15203,
        "contract": "contracts/donationMiner/DonationMinerImplementation.sol:DonationMinerImplementation",
        "label": "donors",
        "offset": 0,
        "slot": "211",
        "type": "t_mapping(t_address,t_struct(Donor)15287_storage)"
      },
      {
        "astId": 15213,
        "contract": "contracts/donationMiner/DonationMinerImplementation.sol:DonationMinerImplementation",
        "label": "claimDelay",
        "offset": 0,
        "slot": "212",
        "type": "t_uint256"
      },
      {
        "astId": 15223,
        "contract": "contracts/donationMiner/DonationMinerImplementation.sol:DonationMinerImplementation",
        "label": "againstPeriods",
        "offset": 0,
        "slot": "213",
        "type": "t_uint256"
      },
      {
        "astId": 15234,
        "contract": "contracts/donationMiner/DonationMinerImplementation.sol:DonationMinerImplementation",
        "label": "staking",
        "offset": 0,
        "slot": "214",
        "type": "t_contract(IStaking)27458"
      },
      {
        "astId": 15237,
        "contract": "contracts/donationMiner/DonationMinerImplementation.sol:DonationMinerImplementation",
        "label": "stakingDonationRatio",
        "offset": 0,
        "slot": "215",
        "type": "t_uint256"
      },
      {
        "astId": 15240,
        "contract": "contracts/donationMiner/DonationMinerImplementation.sol:DonationMinerImplementation",
        "label": "communityDonationRatio",
        "offset": 0,
        "slot": "216",
        "type": "t_uint256"
      }
    ],
    "types": {
      "t_address": {
        "encoding": "inplace",
        "label": "address",
        "numberOfBytes": "20"
      },
      "t_array(t_uint256)49_storage": {
        "base": "t_uint256",
        "encoding": "inplace",
        "label": "uint256[49]",
        "numberOfBytes": "1568"
      },
      "t_array(t_uint256)50_storage": {
        "base": "t_uint256",
        "encoding": "inplace",
        "label": "uint256[50]",
        "numberOfBytes": "1600"
      },
      "t_bool": {
        "encoding": "inplace",
        "label": "bool",
        "numberOfBytes": "1"
      },
      "t_contract(IERC20)3447": {
        "encoding": "inplace",
        "label": "contract IERC20",
        "numberOfBytes": "20"
      },
      "t_contract(IStaking)27458": {
        "encoding": "inplace",
        "label": "contract IStaking",
        "numberOfBytes": "20"
      },
      "t_contract(ITreasury)28329": {
        "encoding": "inplace",
        "label": "contract ITreasury",
        "numberOfBytes": "20"
      },
      "t_mapping(t_address,t_bool)": {
        "encoding": "mapping",
        "key": "t_address",
        "label": "mapping(address => bool)",
        "numberOfBytes": "32",
        "value": "t_bool"
      },
      "t_mapping(t_address,t_struct(Donor)15287_storage)": {
        "encoding": "mapping",
        "key": "t_address",
        "label": "mapping(address => struct IDonationMiner.Donor)",
        "numberOfBytes": "32",
        "value": "t_struct(Donor)15287_storage"
      },
      "t_mapping(t_address,t_uint256)": {
        "encoding": "mapping",
        "key": "t_address",
        "label": "mapping(address => uint256)",
        "numberOfBytes": "32",
        "value": "t_uint256"
      },
      "t_mapping(t_uint256,t_struct(Donation)15303_storage)": {
        "encoding": "mapping",
        "key": "t_uint256",
        "label": "mapping(uint256 => struct IDonationMiner.Donation)",
        "numberOfBytes": "32",
        "value": "t_struct(Donation)15303_storage"
      },
      "t_mapping(t_uint256,t_struct(RewardPeriod)15276_storage)": {
        "encoding": "mapping",
        "key": "t_uint256",
        "label": "mapping(uint256 => struct IDonationMiner.RewardPeriod)",
        "numberOfBytes": "32",
        "value": "t_struct(RewardPeriod)15276_storage"
      },
      "t_mapping(t_uint256,t_uint256)": {
        "encoding": "mapping",
        "key": "t_uint256",
        "label": "mapping(uint256 => uint256)",
        "numberOfBytes": "32",
        "value": "t_uint256"
      },
      "t_struct(Donation)15303_storage": {
        "encoding": "inplace",
        "label": "struct IDonationMiner.Donation",
        "members": [
          {
            "astId": 15289,
            "contract": "contracts/donationMiner/DonationMinerImplementation.sol:DonationMinerImplementation",
            "label": "donor",
            "offset": 0,
            "slot": "0",
            "type": "t_address"
          },
          {
            "astId": 15291,
            "contract": "contracts/donationMiner/DonationMinerImplementation.sol:DonationMinerImplementation",
            "label": "target",
            "offset": 0,
            "slot": "1",
            "type": "t_address"
          },
          {
            "astId": 15293,
            "contract": "contracts/donationMiner/DonationMinerImplementation.sol:DonationMinerImplementation",
            "label": "rewardPeriod",
            "offset": 0,
            "slot": "2",
            "type": "t_uint256"
          },
          {
            "astId": 15295,
            "contract": "contracts/donationMiner/DonationMinerImplementation.sol:DonationMinerImplementation",
            "label": "blockNumber",
            "offset": 0,
            "slot": "3",
            "type": "t_uint256"
          },
          {
            "astId": 15297,
            "contract": "contracts/donationMiner/DonationMinerImplementation.sol:DonationMinerImplementation",
            "label": "amount",
            "offset": 0,
            "slot": "4",
            "type": "t_uint256"
          },
          {
            "astId": 15300,
            "contract": "contracts/donationMiner/DonationMinerImplementation.sol:DonationMinerImplementation",
            "label": "token",
            "offset": 0,
            "slot": "5",
            "type": "t_contract(IERC20)3447"
          },
          {
            "astId": 15302,
            "contract": "contracts/donationMiner/DonationMinerImplementation.sol:DonationMinerImplementation",
            "label": "initialAmount",
            "offset": 0,
            "slot": "6",
            "type": "t_uint256"
          }
        ],
        "numberOfBytes": "224"
      },
      "t_struct(Donor)15287_storage": {
        "encoding": "inplace",
        "label": "struct IDonationMiner.Donor",
        "members": [
          {
            "astId": 15278,
            "contract": "contracts/donationMiner/DonationMinerImplementation.sol:DonationMinerImplementation",
            "label": "lastClaim",
            "offset": 0,
            "slot": "0",
            "type": "t_uint256"
          },
          {
            "astId": 15280,
            "contract": "contracts/donationMiner/DonationMinerImplementation.sol:DonationMinerImplementation",
            "label": "rewardPeriodsCount",
            "offset": 0,
            "slot": "1",
            "type": "t_uint256"
          },
          {
            "astId": 15284,
            "contract": "contracts/donationMiner/DonationMinerImplementation.sol:DonationMinerImplementation",
            "label": "rewardPeriods",
            "offset": 0,
            "slot": "2",
            "type": "t_mapping(t_uint256,t_uint256)"
          },
          {
            "astId": 15286,
            "contract": "contracts/donationMiner/DonationMinerImplementation.sol:DonationMinerImplementation",
            "label": "lastClaimPeriod",
            "offset": 0,
            "slot": "3",
            "type": "t_uint256"
          }
        ],
        "numberOfBytes": "128"
      },
      "t_struct(RewardPeriod)15276_storage": {
        "encoding": "inplace",
        "label": "struct IDonationMiner.RewardPeriod",
        "members": [
          {
            "astId": 15249,
            "contract": "contracts/donationMiner/DonationMinerImplementation.sol:DonationMinerImplementation",
            "label": "rewardPerBlock",
            "offset": 0,
            "slot": "0",
            "type": "t_uint256"
          },
          {
            "astId": 15251,
            "contract": "contracts/donationMiner/DonationMinerImplementation.sol:DonationMinerImplementation",
            "label": "rewardAmount",
            "offset": 0,
            "slot": "1",
            "type": "t_uint256"
          },
          {
            "astId": 15253,
            "contract": "contracts/donationMiner/DonationMinerImplementation.sol:DonationMinerImplementation",
            "label": "startBlock",
            "offset": 0,
            "slot": "2",
            "type": "t_uint256"
          },
          {
            "astId": 15255,
            "contract": "contracts/donationMiner/DonationMinerImplementation.sol:DonationMinerImplementation",
            "label": "endBlock",
            "offset": 0,
            "slot": "3",
            "type": "t_uint256"
          },
          {
            "astId": 15257,
            "contract": "contracts/donationMiner/DonationMinerImplementation.sol:DonationMinerImplementation",
            "label": "donationsAmount",
            "offset": 0,
            "slot": "4",
            "type": "t_uint256"
          },
          {
            "astId": 15261,
            "contract": "contracts/donationMiner/DonationMinerImplementation.sol:DonationMinerImplementation",
            "label": "donorAmounts",
            "offset": 0,
            "slot": "5",
            "type": "t_mapping(t_address,t_uint256)"
          },
          {
            "astId": 15263,
            "contract": "contracts/donationMiner/DonationMinerImplementation.sol:DonationMinerImplementation",
            "label": "againstPeriods",
            "offset": 0,
            "slot": "6",
            "type": "t_uint256"
          },
          {
            "astId": 15265,
            "contract": "contracts/donationMiner/DonationMinerImplementation.sol:DonationMinerImplementation",
            "label": "stakesAmount",
            "offset": 0,
            "slot": "7",
            "type": "t_uint256"
          },
          {
            "astId": 15267,
            "contract": "contracts/donationMiner/DonationMinerImplementation.sol:DonationMinerImplementation",
            "label": "stakingDonationRatio",
            "offset": 0,
            "slot": "8",
            "type": "t_uint256"
          },
          {
            "astId": 15271,
            "contract": "contracts/donationMiner/DonationMinerImplementation.sol:DonationMinerImplementation",
            "label": "hasSetStakeAmount",
            "offset": 0,
            "slot": "9",
            "type": "t_mapping(t_address,t_bool)"
          },
          {
            "astId": 15275,
            "contract": "contracts/donationMiner/DonationMinerImplementation.sol:DonationMinerImplementation",
            "label": "donorStakeAmounts",
            "offset": 0,
            "slot": "10",
            "type": "t_mapping(t_address,t_uint256)"
          }
        ],
        "numberOfBytes": "352"
      },
      "t_uint256": {
        "encoding": "inplace",
        "label": "uint256",
        "numberOfBytes": "32"
      }
    }
  }
}