{
  "address": "0x6904FCC0D5fb328918D6fC76C6e895978bc7bC2d",
  "abi": [
    {
      "anonymous": false,
      "inputs": [
        {
          "indexed": false,
          "internalType": "uint256",
          "name": "oldAgainstPeriods",
          "type": "uint256"
        },
        {
          "indexed": false,
          "internalType": "uint256",
          "name": "newAgainstPeriods",
          "type": "uint256"
        }
      ],
      "name": "AgainstPeriodsUpdated",
      "type": "event"
    },
    {
      "anonymous": false,
      "inputs": [
        {
          "indexed": false,
          "internalType": "uint256",
          "name": "oldClaimDelay",
          "type": "uint256"
        },
        {
          "indexed": false,
          "internalType": "uint256",
          "name": "newClaimDelay",
          "type": "uint256"
        }
      ],
      "name": "ClaimDelayUpdated",
      "type": "event"
    },
    {
      "anonymous": false,
      "inputs": [
        {
          "indexed": false,
          "internalType": "uint256",
          "name": "oldCommunityDonationRatio",
          "type": "uint256"
        },
        {
          "indexed": false,
          "internalType": "uint256",
          "name": "newCommunityDonationRatio",
          "type": "uint256"
        }
      ],
      "name": "CommunityDonationRatioUpdated",
      "type": "event"
    },
    {
      "anonymous": false,
      "inputs": [
        {
          "indexed": true,
          "internalType": "uint256",
          "name": "donationId",
          "type": "uint256"
        },
        {
          "indexed": true,
          "internalType": "address",
          "name": "delegateAddress",
          "type": "address"
        },
        {
          "indexed": false,
          "internalType": "uint256",
          "name": "amount",
          "type": "uint256"
        },
        {
          "indexed": false,
          "internalType": "address",
          "name": "token",
          "type": "address"
        },
        {
          "indexed": false,
          "internalType": "uint256",
          "name": "initialAmount",
          "type": "uint256"
        },
        {
          "indexed": true,
          "internalType": "address",
          "name": "target",
          "type": "address"
        }
      ],
      "name": "DonationAdded",
      "type": "event"
    },
    {
      "anonymous": false,
      "inputs": [
        {
          "indexed": true,
          "internalType": "address",
          "name": "previousOwner",
          "type": "address"
        },
        {
          "indexed": true,
          "internalType": "address",
          "name": "newOwner",
          "type": "address"
        }
      ],
      "name": "OwnershipTransferred",
      "type": "event"
    },
    {
      "anonymous": false,
      "inputs": [
        {
          "indexed": false,
          "internalType": "address",
          "name": "account",
          "type": "address"
        }
      ],
      "name": "Paused",
      "type": "event"
    },
    {
      "anonymous": false,
      "inputs": [
        {
          "indexed": true,
          "internalType": "address",
          "name": "donor",
          "type": "address"
        },
        {
          "indexed": false,
          "internalType": "uint256",
          "name": "amount",
          "type": "uint256"
        }
      ],
      "name": "RewardClaimed",
      "type": "event"
    },
    {
      "anonymous": false,
      "inputs": [
        {
          "indexed": true,
          "internalType": "address",
          "name": "donor",
          "type": "address"
        },
        {
          "indexed": false,
          "internalType": "uint256",
          "name": "amount",
          "type": "uint256"
        },
        {
          "indexed": false,
          "internalType": "uint256",
          "name": "lastRewardPeriod",
          "type": "uint256"
        }
      ],
      "name": "RewardClaimedPartial",
      "type": "event"
    },
    {
      "anonymous": false,
      "inputs": [
        {
          "indexed": false,
          "internalType": "uint256",
          "name": "oldRewardPeriodSize",
          "type": "uint256"
        },
        {
          "indexed": false,
          "internalType": "uint256",
          "name": "oldDecayNumerator",
          "type": "uint256"
        },
        {
          "indexed": false,
          "internalType": "uint256",
          "name": "oldDecayDenominator",
          "type": "uint256"
        },
        {
          "indexed": false,
          "internalType": "uint256",
          "name": "newRewardPeriodSize",
          "type": "uint256"
        },
        {
          "indexed": false,
          "internalType": "uint256",
          "name": "newDecayNumerator",
          "type": "uint256"
        },
        {
          "indexed": false,
          "internalType": "uint256",
          "name": "newDecayDenominator",
          "type": "uint256"
        }
      ],
      "name": "RewardPeriodParamsUpdated",
      "type": "event"
    },
    {
      "anonymous": false,
      "inputs": [
        {
          "indexed": true,
          "internalType": "address",
          "name": "donor",
          "type": "address"
        },
        {
          "indexed": false,
          "internalType": "uint256",
          "name": "amount",
          "type": "uint256"
        }
      ],
      "name": "RewardStaked",
      "type": "event"
    },
    {
      "anonymous": false,
      "inputs": [
        {
          "indexed": true,
          "internalType": "address",
          "name": "donor",
          "type": "address"
        },
        {
          "indexed": false,
          "internalType": "uint256",
          "name": "amount",
          "type": "uint256"
        },
        {
          "indexed": false,
          "internalType": "uint256",
          "name": "lastRewardPeriod",
          "type": "uint256"
        }
      ],
      "name": "RewardStakedPartial",
      "type": "event"
    },
    {
      "anonymous": false,
      "inputs": [
        {
          "indexed": false,
          "internalType": "uint256",
          "name": "oldStakingDonationRatio",
          "type": "uint256"
        },
        {
          "indexed": false,
          "internalType": "uint256",
          "name": "newStakingDonationRatio",
          "type": "uint256"
        }
      ],
      "name": "StakingDonationRatioUpdated",
      "type": "event"
    },
    {
      "anonymous": false,
      "inputs": [
        {
          "indexed": true,
          "internalType": "address",
          "name": "oldStaking",
          "type": "address"
        },
        {
          "indexed": true,
          "internalType": "address",
          "name": "newStaking",
          "type": "address"
        }
      ],
      "name": "StakingUpdated",
      "type": "event"
    },
    {
      "anonymous": false,
      "inputs": [
        {
          "indexed": true,
          "internalType": "address",
          "name": "token",
          "type": "address"
        },
        {
          "indexed": true,
          "internalType": "address",
          "name": "to",
          "type": "address"
        },
        {
          "indexed": false,
          "internalType": "uint256",
          "name": "amount",
          "type": "uint256"
        }
      ],
      "name": "TransferERC20",
      "type": "event"
    },
    {
      "anonymous": false,
      "inputs": [
        {
          "indexed": true,
          "internalType": "address",
          "name": "oldTreasury",
          "type": "address"
        },
        {
          "indexed": true,
          "internalType": "address",
          "name": "newTreasury",
          "type": "address"
        }
      ],
      "name": "TreasuryUpdated",
      "type": "event"
    },
    {
      "anonymous": false,
      "inputs": [
        {
          "indexed": false,
          "internalType": "address",
          "name": "account",
          "type": "address"
        }
      ],
      "name": "Unpaused",
      "type": "event"
    },
    {
      "inputs": [],
      "name": "PACT",
      "outputs": [
        {
          "internalType": "contract IERC20",
          "name": "",
          "type": "address"
        }
      ],
      "stateMutability": "view",
      "type": "function"
    },
    {
      "inputs": [],
      "name": "againstPeriods",
      "outputs": [
        {
          "internalType": "uint256",
          "name": "",
          "type": "uint256"
        }
      ],
      "stateMutability": "view",
      "type": "function"
    },
    {
      "inputs": [
        {
          "internalType": "address",
          "name": "_stakeholderAddress",
          "type": "address"
        }
      ],
      "name": "apr",
      "outputs": [
        {
          "internalType": "uint256",
          "name": "",
          "type": "uint256"
        }
      ],
      "stateMutability": "view",
      "type": "function"
    },
    {
      "inputs": [],
      "name": "cUSD",
      "outputs": [
        {
          "internalType": "contract IERC20",
          "name": "",
          "type": "address"
        }
      ],
      "stateMutability": "view",
      "type": "function"
    },
    {
      "inputs": [
        {
          "internalType": "address",
          "name": "_donorAddress",
          "type": "address"
        }
      ],
      "name": "calculateClaimableRewards",
      "outputs": [
        {
          "internalType": "uint256",
          "name": "",
          "type": "uint256"
        }
      ],
      "stateMutability": "view",
      "type": "function"
    },
    {
      "inputs": [
        {
          "internalType": "address",
          "name": "_donorAddress",
          "type": "address"
        },
        {
          "internalType": "uint256",
          "name": "_lastPeriodNumber",
          "type": "uint256"
        }
      ],
      "name": "calculateClaimableRewardsByPeriodNumber",
      "outputs": [
        {
          "internalType": "uint256",
          "name": "",
          "type": "uint256"
        }
      ],
      "stateMutability": "view",
      "type": "function"
    },
    {
      "inputs": [],
      "name": "claimDelay",
      "outputs": [
        {
          "internalType": "uint256",
          "name": "",
          "type": "uint256"
        }
      ],
      "stateMutability": "view",
      "type": "function"
    },
    {
      "inputs": [],
      "name": "claimRewards",
      "outputs": [],
      "stateMutability": "nonpayable",
      "type": "function"
    },
    {
      "inputs": [
        {
          "internalType": "uint256",
          "name": "_lastPeriodNumber",
          "type": "uint256"
        }
      ],
      "name": "claimRewardsPartial",
      "outputs": [],
      "stateMutability": "nonpayable",
      "type": "function"
    },
    {
      "inputs": [],
      "name": "communityDonationRatio",
      "outputs": [
        {
          "internalType": "uint256",
          "name": "",
          "type": "uint256"
        }
      ],
      "stateMutability": "view",
      "type": "function"
    },
    {
      "inputs": [],
      "name": "currentRewardPeriodNumber",
      "outputs": [
        {
          "internalType": "uint256",
          "name": "",
          "type": "uint256"
        }
      ],
      "stateMutability": "view",
      "type": "function"
    },
    {
      "inputs": [],
      "name": "decayDenominator",
      "outputs": [
        {
          "internalType": "uint256",
          "name": "",
          "type": "uint256"
        }
      ],
      "stateMutability": "view",
      "type": "function"
    },
    {
      "inputs": [],
      "name": "decayNumerator",
      "outputs": [
        {
          "internalType": "uint256",
          "name": "",
          "type": "uint256"
        }
      ],
      "stateMutability": "view",
      "type": "function"
    },
    {
      "inputs": [
        {
          "internalType": "contract IERC20",
          "name": "_token",
          "type": "address"
        },
        {
          "internalType": "uint256",
          "name": "_amount",
          "type": "uint256"
        },
        {
          "internalType": "address",
          "name": "_delegateAddress",
          "type": "address"
        }
      ],
      "name": "donate",
      "outputs": [],
      "stateMutability": "nonpayable",
      "type": "function"
    },
    {
      "inputs": [
        {
          "internalType": "contract ICommunity",
          "name": "_community",
          "type": "address"
        },
        {
          "internalType": "contract IERC20",
          "name": "_token",
          "type": "address"
        },
        {
          "internalType": "uint256",
          "name": "_amount",
          "type": "uint256"
        },
        {
          "internalType": "address",
          "name": "_delegateAddress",
          "type": "address"
        }
      ],
      "name": "donateToCommunity",
      "outputs": [],
      "stateMutability": "nonpayable",
      "type": "function"
    },
    {
      "inputs": [],
      "name": "donationCount",
      "outputs": [
        {
          "internalType": "uint256",
          "name": "",
          "type": "uint256"
        }
      ],
      "stateMutability": "view",
      "type": "function"
    },
    {
      "inputs": [
        {
          "internalType": "uint256",
          "name": "",
          "type": "uint256"
        }
      ],
      "name": "donations",
      "outputs": [
        {
          "internalType": "address",
          "name": "donor",
          "type": "address"
        },
        {
          "internalType": "address",
          "name": "target",
          "type": "address"
        },
        {
          "internalType": "uint256",
          "name": "rewardPeriod",
          "type": "uint256"
        },
        {
          "internalType": "uint256",
          "name": "blockNumber",
          "type": "uint256"
        },
        {
          "internalType": "uint256",
          "name": "amount",
          "type": "uint256"
        },
        {
          "internalType": "contract IERC20",
          "name": "token",
          "type": "address"
        },
        {
          "internalType": "uint256",
          "name": "initialAmount",
          "type": "uint256"
        }
      ],
      "stateMutability": "view",
      "type": "function"
    },
    {
      "inputs": [
        {
          "internalType": "address",
          "name": "_donor",
          "type": "address"
        },
        {
          "internalType": "uint256",
          "name": "_rewardPeriodIndex",
          "type": "uint256"
        }
      ],
      "name": "donorRewardPeriod",
      "outputs": [
        {
          "internalType": "uint256",
          "name": "",
          "type": "uint256"
        }
      ],
      "stateMutability": "view",
      "type": "function"
    },
    {
      "inputs": [
        {
          "internalType": "address",
          "name": "_donorAddress",
          "type": "address"
        }
      ],
      "name": "donorScore",
      "outputs": [
        {
          "internalType": "uint256",
          "name": "",
          "type": "uint256"
        }
      ],
      "stateMutability": "view",
      "type": "function"
    },
    {
      "inputs": [
        {
          "internalType": "address",
          "name": "",
          "type": "address"
        }
      ],
      "name": "donors",
      "outputs": [
        {
          "internalType": "uint256",
          "name": "lastClaim",
          "type": "uint256"
        },
        {
          "internalType": "uint256",
          "name": "rewardPeriodsCount",
          "type": "uint256"
        },
        {
          "internalType": "uint256",
          "name": "lastClaimPeriod",
          "type": "uint256"
        }
      ],
      "stateMutability": "view",
      "type": "function"
    },
    {
      "inputs": [
        {
          "internalType": "address",
          "name": "_donorAddress",
          "type": "address"
        }
      ],
      "name": "estimateClaimableReward",
      "outputs": [
        {
          "internalType": "uint256",
          "name": "",
          "type": "uint256"
        }
      ],
      "stateMutability": "view",
      "type": "function"
    },
    {
      "inputs": [
        {
          "internalType": "address",
          "name": "_donorAddress",
          "type": "address"
        }
      ],
      "name": "estimateClaimableRewardAdvance",
      "outputs": [
        {
          "internalType": "uint256",
          "name": "",
          "type": "uint256"
        }
      ],
      "stateMutability": "view",
      "type": "function"
    },
    {
      "inputs": [],
      "name": "getVersion",
      "outputs": [
        {
          "internalType": "uint256",
          "name": "",
          "type": "uint256"
        }
      ],
      "stateMutability": "pure",
      "type": "function"
    },
    {
      "inputs": [
        {
          "internalType": "contract IERC20",
          "name": "_cUSD",
          "type": "address"
        },
        {
          "internalType": "contract IERC20",
          "name": "_PACT",
          "type": "address"
        },
        {
          "internalType": "contract ITreasury",
          "name": "_treasury",
          "type": "address"
        },
        {
          "internalType": "uint256",
          "name": "_firstRewardPerBlock",
          "type": "uint256"
        },
        {
          "internalType": "uint256",
          "name": "_rewardPeriodSize",
          "type": "uint256"
        },
        {
          "internalType": "uint256",
          "name": "_startingBlock",
          "type": "uint256"
        },
        {
          "internalType": "uint256",
          "name": "_decayNumerator",
          "type": "uint256"
        },
        {
          "internalType": "uint256",
          "name": "_decayDenominator",
          "type": "uint256"
        }
      ],
      "name": "initialize",
      "outputs": [],
      "stateMutability": "nonpayable",
      "type": "function"
    },
    {
      "inputs": [
        {
          "internalType": "address",
          "name": "_donorAddress",
          "type": "address"
        }
      ],
      "name": "lastPeriodsDonations",
      "outputs": [
        {
          "internalType": "uint256",
          "name": "donorAmount",
          "type": "uint256"
        },
        {
          "internalType": "uint256",
          "name": "totalAmount",
          "type": "uint256"
        }
      ],
      "stateMutability": "view",
      "type": "function"
    },
    {
      "inputs": [],
      "name": "owner",
      "outputs": [
        {
          "internalType": "address",
          "name": "",
          "type": "address"
        }
      ],
      "stateMutability": "view",
      "type": "function"
    },
    {
      "inputs": [],
      "name": "paused",
      "outputs": [
        {
          "internalType": "bool",
          "name": "",
          "type": "bool"
        }
      ],
      "stateMutability": "view",
      "type": "function"
    },
    {
      "inputs": [],
      "name": "renounceOwnership",
      "outputs": [],
      "stateMutability": "nonpayable",
      "type": "function"
    },
    {
      "inputs": [],
      "name": "rewardPeriodCount",
      "outputs": [
        {
          "internalType": "uint256",
          "name": "",
          "type": "uint256"
        }
      ],
      "stateMutability": "view",
      "type": "function"
    },
    {
      "inputs": [
        {
          "internalType": "uint256",
          "name": "_period",
          "type": "uint256"
        },
        {
          "internalType": "address",
          "name": "_donor",
          "type": "address"
        }
      ],
      "name": "rewardPeriodDonorAmount",
      "outputs": [
        {
          "internalType": "uint256",
          "name": "",
          "type": "uint256"
        }
      ],
      "stateMutability": "view",
      "type": "function"
    },
    {
      "inputs": [
        {
          "internalType": "uint256",
          "name": "_period",
          "type": "uint256"
        },
        {
          "internalType": "address",
          "name": "_donor",
          "type": "address"
        }
      ],
      "name": "rewardPeriodDonorStakeAmounts",
      "outputs": [
        {
          "internalType": "uint256",
          "name": "",
          "type": "uint256"
        }
      ],
      "stateMutability": "view",
      "type": "function"
    },
    {
      "inputs": [],
      "name": "rewardPeriodSize",
      "outputs": [
        {
          "internalType": "uint256",
          "name": "",
          "type": "uint256"
        }
      ],
      "stateMutability": "view",
      "type": "function"
    },
    {
      "inputs": [
        {
          "internalType": "uint256",
          "name": "",
          "type": "uint256"
        }
      ],
      "name": "rewardPeriods",
      "outputs": [
        {
          "internalType": "uint256",
          "name": "rewardPerBlock",
          "type": "uint256"
        },
        {
          "internalType": "uint256",
          "name": "rewardAmount",
          "type": "uint256"
        },
        {
          "internalType": "uint256",
          "name": "startBlock",
          "type": "uint256"
        },
        {
          "internalType": "uint256",
          "name": "endBlock",
          "type": "uint256"
        },
        {
          "internalType": "uint256",
          "name": "donationsAmount",
          "type": "uint256"
        },
        {
          "internalType": "uint256",
          "name": "againstPeriods",
          "type": "uint256"
        },
        {
          "internalType": "uint256",
          "name": "stakesAmount",
          "type": "uint256"
        },
        {
          "internalType": "uint256",
          "name": "stakingDonationRatio",
          "type": "uint256"
        }
      ],
      "stateMutability": "view",
      "type": "function"
    },
    {
      "inputs": [
        {
          "internalType": "address",
          "name": "_holderAddress",
          "type": "address"
        },
        {
          "internalType": "uint256",
          "name": "_holderAmount",
          "type": "uint256"
        },
        {
          "internalType": "uint256",
          "name": "_totalAmount",
          "type": "uint256"
        }
      ],
      "name": "setStakingAmounts",
      "outputs": [],
      "stateMutability": "nonpayable",
      "type": "function"
    },
    {
      "inputs": [],
      "name": "stakeRewards",
      "outputs": [],
      "stateMutability": "nonpayable",
      "type": "function"
    },
    {
      "inputs": [
        {
          "internalType": "uint256",
          "name": "_lastPeriodNumber",
          "type": "uint256"
        }
      ],
      "name": "stakeRewardsPartial",
      "outputs": [],
      "stateMutability": "nonpayable",
      "type": "function"
    },
    {
      "inputs": [],
      "name": "staking",
      "outputs": [
        {
          "internalType": "contract IStaking",
          "name": "",
          "type": "address"
        }
      ],
      "stateMutability": "view",
      "type": "function"
    },
    {
      "inputs": [],
      "name": "stakingDonationRatio",
      "outputs": [
        {
          "internalType": "uint256",
          "name": "",
          "type": "uint256"
        }
      ],
      "stateMutability": "view",
      "type": "function"
    },
    {
      "inputs": [
        {
          "internalType": "contract IERC20",
          "name": "_token",
          "type": "address"
        },
        {
          "internalType": "address",
          "name": "_to",
          "type": "address"
        },
        {
          "internalType": "uint256",
          "name": "_amount",
          "type": "uint256"
        }
      ],
      "name": "transfer",
      "outputs": [],
      "stateMutability": "nonpayable",
      "type": "function"
    },
    {
      "inputs": [
        {
          "internalType": "address",
          "name": "newOwner",
          "type": "address"
        }
      ],
      "name": "transferOwnership",
      "outputs": [],
      "stateMutability": "nonpayable",
      "type": "function"
    },
    {
      "inputs": [],
      "name": "treasury",
      "outputs": [
        {
          "internalType": "contract ITreasury",
          "name": "",
          "type": "address"
        }
      ],
      "stateMutability": "view",
      "type": "function"
    },
    {
      "inputs": [
        {
          "internalType": "uint256",
          "name": "_newAgainstPeriods",
          "type": "uint256"
        }
      ],
      "name": "updateAgainstPeriods",
      "outputs": [],
      "stateMutability": "nonpayable",
      "type": "function"
    },
    {
      "inputs": [
        {
          "internalType": "uint256",
          "name": "_newClaimDelay",
          "type": "uint256"
        }
      ],
      "name": "updateClaimDelay",
      "outputs": [],
      "stateMutability": "nonpayable",
      "type": "function"
    },
    {
      "inputs": [
        {
          "internalType": "uint256",
          "name": "_newCommunityDonationRatio",
          "type": "uint256"
        }
      ],
      "name": "updateCommunityDonationRatio",
      "outputs": [],
      "stateMutability": "nonpayable",
      "type": "function"
    },
    {
      "inputs": [
        {
          "internalType": "uint256",
          "name": "_newRewardPeriodSize",
          "type": "uint256"
        },
        {
          "internalType": "uint256",
          "name": "_newDecayNumerator",
          "type": "uint256"
        },
        {
          "internalType": "uint256",
          "name": "_newDecayDenominator",
          "type": "uint256"
        }
      ],
      "name": "updateRewardPeriodParams",
      "outputs": [],
      "stateMutability": "nonpayable",
      "type": "function"
    },
    {
      "inputs": [
        {
          "internalType": "contract IStaking",
          "name": "_newStaking",
          "type": "address"
        }
      ],
      "name": "updateStaking",
      "outputs": [],
      "stateMutability": "nonpayable",
      "type": "function"
    },
    {
      "inputs": [
        {
          "internalType": "uint256",
          "name": "_newStakingDonationRatio",
          "type": "uint256"
        }
      ],
      "name": "updateStakingDonationRatio",
      "outputs": [],
      "stateMutability": "nonpayable",
      "type": "function"
    },
    {
      "inputs": [
        {
          "internalType": "contract ITreasury",
          "name": "_newTreasury",
          "type": "address"
        }
      ],
      "name": "updateTreasury",
      "outputs": [],
      "stateMutability": "nonpayable",
      "type": "function"
    }
  ],
  "transactionHash": "0xe6b7e1275f585d3d8c5c2baf9f3ab5c025e6d39dcc9dc05f91da31b6dfe6e851",
  "args": [],
  "numDeployments": 1,
  "solcInputHash": "fccc3166fc54459c9b82e50d634ae714",
  "bytecode": "0x608060405234801561001057600080fd5b50613b55806100206000396000f3fe608060405234801561001057600080fd5b50600436106102a05760003560e01c806396990e6e11610167578063cf428795116100ce578063ed409ff311610087578063ed409ff314610667578063f223c97314610670578063f2fde38b14610683578063f8626af814610696578063fa86590914610734578063fef4af861461074757600080fd5b8063cf428795146105d9578063cf9d0b5f14610613578063de8f41ba1461061b578063df8fa4301461062e578063e247b8d814610641578063e48508df1461065457600080fd5b8063ad3e48c511610120578063ad3e48c51461053a578063beabacc81461054d578063c38474c014610560578063c89d1a8e14610569578063ca0cdea81461057c578063cd75000c146105c657600080fd5b806396990e6e146104e6578063a345f38d146104f9578063a4b01bf51461050c578063a70e940b1461051f578063a915da5614610528578063ac9e03881461053157600080fd5b806359d0bfff1161020b5780637f51bb1f116101c45780637f51bb1f14610407578063821787ec1461041a5780638252097d1461042d5780638901e985146104b95780638da5cb5b146104cc57806392ade299146104dd57600080fd5b806359d0bfff1461039d5780635c975abb146103b057806361d027b3146103c65780636cc40c2c146103d95780636d0acb43146103ec578063715018a6146103ff57600080fd5b80632abfab4d1161025d5780632abfab4d146103195780632bef5eef14610322578063372500ab146103355780633b9a01761461033d5780633ddec531146103505780634cf088d91461038a57600080fd5b806307ea4e57146102a55780630d1e9b4a146102c15780630d8e6e2c146102d65780631569cc95146102dd5780631c8ec299146102e55780631fccf672146102ee575b600080fd5b6102ae60cf5481565b6040519081526020015b60405180910390f35b6102d46102cf36600461366f565b61076f565b005b60046102ae565b6102ae610929565b6102ae60d45481565b60c954610301906001600160a01b031681565b6040516001600160a01b0390911681526020016102b8565b6102ae60cd5481565b6102ae6103303660046136ff565b610983565b6102d46109b0565b60ca54610301906001600160a01b031681565b6102ae61035e3660046134cc565b6001600160a01b0391909116600090815260d36020908152604080832093835260029093019052205490565b60d654610301906001600160a01b031681565b6102d46103ab366004613567565b610a9f565b60655460ff1660405190151581526020016102b8565b60cb54610301906001600160a01b031681565b6102d46103e73660046136cf565b610e20565b6102d46103fa3660046136cf565b611070565b6102d46110db565b6102d46104153660046134b0565b611111565b6102ae6104283660046134cc565b611197565b61047e61043b3660046136cf565b60d2602052600090815260409020805460018201546002830154600384015460048501546006860154600787015460089097015495969495939492939192909188565b604080519889526020890197909752958701949094526060860192909252608085015260a084015260c083015260e0820152610100016102b8565b6102d46104c73660046136cf565b6112bc565b6033546001600160a01b0316610301565b6102ae60d05481565b6102ae6104f43660046134b0565b61132f565b6102d46105073660046134b0565b61144c565b6102d461051a3660046136cf565b6114d2565b6102ae60d55481565b6102ae60d85481565b6102ae60d75481565b6102d46105483660046134f7565b611545565b6102d461055b3660046135b9565b611687565b6102ae60ce5481565b6102ae6105773660046134b0565b6117c8565b6105ab61058a3660046134b0565b60d36020526000908152604090208054600182015460039092015490919083565b604080519384526020840192909252908201526060016102b8565b6102ae6105d43660046134b0565b611831565b6102ae6105e73660046136ff565b600082815260d2602090815260408083206001600160a01b0385168452600a0190915290205492915050565b6102d4611859565b6102d46106293660046136cf565b611a1b565b6102d461063c3660046135f9565b611b8d565b6102d461064f3660046136cf565b611f0b565b6102d461066236600461372e565b611f76565b6102ae60cc5481565b6102ae61067e3660046134b0565b61202f565b6102d46106913660046134b0565b612043565b6106f06106a43660046136cf565b60d16020526000908152604090208054600182015460028301546003840154600485015460058601546006909601546001600160a01b0395861696948616959394929391929091169087565b604080516001600160a01b03988916815296881660208801528601949094526060850192909252608084015290921660a082015260c081019190915260e0016102b8565b6102ae6107423660046134b0565b6120de565b61075a6107553660046134b0565b612148565b604080519283526020830191909152016102b8565b60655460ff161561079b5760405162461bcd60e51b8152600401610792906137df565b60405180910390fd5b600160005260d2602052600080516020613b00833981519152544310156107d45760405162461bcd60e51b8152600401610792906137a8565b600260975414156107f75760405162461bcd60e51b8152600401610792906138e6565b600260975560c9546001600160a01b0384811691161480610890575060cb546040516319f3736160e01b81526001600160a01b038581166004830152909116906319f373619060240160206040518083038186803b15801561085857600080fd5b505afa15801561086c573d6000803e3d6000fd5b505050506040513d601f19601f82011682018060405250810190610890919061352b565b6108e85760405162461bcd60e51b8152602060048201526024808201527f446f6e6174696f6e4d696e65723a3a646f6e6174653a20496e76616c6964207460448201526337b5b2b760e11b6064820152608401610792565b60cb54610904906001600160a01b03858116913391168561219b565b60cb5461091f908290859085906001600160a01b031661220c565b5050600160975550565b60ce54600090815260d260205260408120600301544381116109795760cc546109528243613a5f565b61095c9190613935565b60ce54610969919061391d565b61097490600161391d565b61097d565b60ce545b91505090565b600082815260d2602090815260408083206001600160a01b03851684526005019091529020545b92915050565b60655460ff16156109d35760405162461bcd60e51b8152600401610792906137df565b600160005260d2602052600080516020613b0083398151915254431015610a0c5760405162461bcd60e51b8152600401610792906137a8565b60026097541415610a2f5760405162461bcd60e51b8152600401610792906138e6565b60026097556000610a4733610a426123d0565b612417565b60ca54909150610a61906001600160a01b03163383612594565b60405181815233907f106f923f993c2149d49b4255ff723acafa1f2d94393f561d3eda32ae348f7241906020015b60405180910390a2506001609755565b60655460ff1615610ac25760405162461bcd60e51b8152600401610792906137df565b600160005260d2602052600080516020613b0083398151915254431015610afb5760405162461bcd60e51b8152600401610792906137a8565b60026097541415610b1e5760405162461bcd60e51b8152600401610792906138e6565b600260975560cb5460408051632fd648bd60e11b815290516000926001600160a01b031691635fac917a916004808301926020929190829003018186803b158015610b6857600080fd5b505afa158015610b7c573d6000803e3d6000fd5b505050506040513d601f19601f82011682018060405250810190610ba0919061354b565b90506001604051633f9409e960e11b81526001600160a01b038781166004830152831690637f2813d29060240160206040518083038186803b158015610be557600080fd5b505afa158015610bf9573d6000803e3d6000fd5b505050506040513d601f19601f82011682018060405250810190610c1d91906136b0565b6003811115610c3c57634e487b7160e01b600052602160045260246000fd5b14610cbf5760405162461bcd60e51b815260206004820152604760248201527f446f6e6174696f6e4d696e65723a3a646f6e617465546f436f6d6d756e69747960448201527f3a2054686973206973206e6f7420612076616c696420636f6d6d756e697479206064820152666164647265737360c81b608482015260a401610792565b846001600160a01b0316631fccf6726040518163ffffffff1660e01b815260040160206040518083038186803b158015610cf857600080fd5b505afa158015610d0c573d6000803e3d6000fd5b505050506040513d601f19601f82011682018060405250810190610d30919061354b565b6001600160a01b0316846001600160a01b031614610da85760405162461bcd60e51b815260206004820152602f60248201527f446f6e6174696f6e4d696e65723a3a646f6e617465546f436f6d6d756e69747960448201526e1d1024b73b30b634b2103a37b5b2b760891b6064820152608401610792565b60405163e69d849d60e01b8152336004820152602481018490526001600160a01b0386169063e69d849d90604401600060405180830381600087803b158015610df057600080fd5b505af1158015610e04573d6000803e3d6000fd5b50505050610e148285858861220c565b50506001609755505050565b60655460ff1615610e435760405162461bcd60e51b8152600401610792906137df565b600160005260d2602052600080516020613b0083398151915254431015610e7c5760405162461bcd60e51b8152600401610792906137a8565b60026097541415610e9f5760405162461bcd60e51b8152600401610792906138e6565b6002609755610eac6125c9565b60ce548110610f365760405162461bcd60e51b815260206004820152604a60248201527f446f6e6174696f6e4d696e65723a3a7374616b6552657761726473506172746960448201527f616c3a20546869732072657761726420706572696f642069736e277420636c616064820152691a5b58589b19481e595d60b21b608482015260a401610792565b6000610f423383612417565b60ca5460d65460405163095ea7b360e01b81526001600160a01b03918216600482015260248101849052929350169063095ea7b390604401602060405180830381600087803b158015610f9457600080fd5b505af1158015610fa8573d6000803e3d6000fd5b505050506040513d601f19601f82011682018060405250810190610fcc919061352b565b5060d6546040516356e4bb9760e11b8152336004820152602481018390526001600160a01b039091169063adc9772e90604401600060405180830381600087803b15801561101957600080fd5b505af115801561102d573d6000803e3d6000fd5b50506040518381523392507f7d3a0ab251dfd8c04c691239edd99d2c124cce6971cebc4c2ed96a378d13d50091506020015b60405180910390a250506001609755565b6033546001600160a01b0316331461109a5760405162461bcd60e51b815260040161079290613809565b60d85460408051918252602082018390527f300b3540c99261403e527f171e281f3dfb0705395e1902af7e9badcddce56e5e910160405180910390a160d855565b6033546001600160a01b031633146111055760405162461bcd60e51b815260040161079290613809565b61110f600061270a565b565b6033546001600160a01b0316331461113b5760405162461bcd60e51b815260040161079290613809565b60cb546040516001600160a01b038084169216907f4ab5be82436d353e61ca18726e984e561f5c1cc7c6d38b29d2553c790434705a90600090a360cb80546001600160a01b0319166001600160a01b0392909216919091179055565b60ce54600090815260d2602052604081206003015481904311156111f85760cc5460ce54600090815260d260205260409020600301546111d79043613a5f565b6111e19190613935565b905060ce54816111f1919061391d565b905061120a565b600160ce546112079190613a5f565b90505b808311156112a65760405162461bcd60e51b815260206004820152605e60248201527f446f6e6174696f6e4d696e65723a3a63616c63756c617465436c61696d61626c60448201527f65526577617264734279506572696f644e756d6265723a20546869732072657760648201527f61726420706572696f642069736e277420617661696c61626c65207965740000608482015260a401610792565b60006112b2858561275c565b5095945050505050565b6033546001600160a01b031633146112e65760405162461bcd60e51b815260040161079290613809565b6112ee6125c9565b60d75460408051918252602082018390527fb7ce19da4d8265c844e0fa744e3429c62104c793f8ecb52d1b418b47eb9f8555910160405180910390a160d755565b6001600090815260d2602052600080516020613b008339815191525443101561136a5760405162461bcd60e51b8152600401610792906137a8565b60655460ff161561138d5760405162461bcd60e51b8152600401610792906137df565b60d654604051631aefa86d60e21b81526001600160a01b0384811660048301526000921690636bbea1b49060240160206040518083038186803b1580156113d357600080fd5b505afa1580156113e7573d6000803e3d6000fd5b505050506040513d601f19601f8201168201806040525081019061140b91906136e7565b90508061141b5750600092915050565b80611427846000612b82565b61143b90694d501c54214bcd300000613a40565b6114459190613935565b9392505050565b6033546001600160a01b031633146114765760405162461bcd60e51b815260040161079290613809565b60d6546040516001600160a01b038084169216907fcfa056eb826b2a28817aa38ccb94f12ba8a1309598f7ea19bef6fd67fe04b61e90600090a360d680546001600160a01b0319166001600160a01b0392909216919091179055565b6033546001600160a01b031633146114fc5760405162461bcd60e51b815260040161079290613809565b6115046125c9565b60d55460408051918252602082018390527fd6a28c11ae992e0014e83eaaa6f0023a04c0787848134e8b4e43f44b7d7d8e30910160405180910390a160d555565b60655460ff16156115685760405162461bcd60e51b8152600401610792906137df565b600160005260d2602052600080516020613b00833981519152544310156115a15760405162461bcd60e51b8152600401610792906137a8565b60d6546001600160a01b031633146115fb5760405162461bcd60e51b815260206004820152601a60248201527f446f6e6174696f6e4d696e65723a204e4f545f5354414b494e470000000000006044820152606401610792565b6116036125c9565b60ce54600090815260d2602090815260408083206001600160a01b0387168452600981018352818420805460ff19166001179055600a810183528184208690556007810185905560d3909252909120600381015415801561166657506001810154155b1561168057600160ce5461167a9190613a5f565b60038201555b5050505050565b6033546001600160a01b031633146116b15760405162461bcd60e51b815260040161079290613809565b600260975414156116d45760405162461bcd60e51b8152600401610792906138e6565b600260975560ca546001600160a01b038481169116141561175d5760405162461bcd60e51b815260206004820152603b60248201527f446f6e6174696f6e4d696e65723a3a7472616e7366657220796f75206172652060448201527f6e6f7420616c6c6f7720746f207472616e7366657220504143547300000000006064820152608401610792565b6117716001600160a01b0384168383612594565b816001600160a01b0316836001600160a01b03167f9b035625e569d1d2bf54830a290aefba7ab11610ba8490871dc62b86b63a8956836040516117b691815260200190565b60405180910390a35050600160975550565b6001600090815260d2602052600080516020613b00833981519152544310156118035760405162461bcd60e51b8152600401610792906137a8565b60655460ff16156118265760405162461bcd60e51b8152600401610792906137df565b6109aa826000612b82565b600080611851836001611842610929565b61184c9190613a5f565b61275c565b509392505050565b60655460ff161561187c5760405162461bcd60e51b8152600401610792906137df565b600160005260d2602052600080516020613b00833981519152544310156118b55760405162461bcd60e51b8152600401610792906137a8565b600260975414156118d85760405162461bcd60e51b8152600401610792906138e6565b60026097556118e56125c9565b60006118fa33600160ce54610a429190613a5f565b60ca5460d65460405163095ea7b360e01b81526001600160a01b03918216600482015260248101849052929350169063095ea7b390604401602060405180830381600087803b15801561194c57600080fd5b505af1158015611960573d6000803e3d6000fd5b505050506040513d601f19601f82011682018060405250810190611984919061352b565b5060d6546040516356e4bb9760e11b8152336004820152602481018390526001600160a01b039091169063adc9772e90604401600060405180830381600087803b1580156119d157600080fd5b505af11580156119e5573d6000803e3d6000fd5b50506040518381523392507f7d3a0ab251dfd8c04c691239edd99d2c124cce6971cebc4c2ed96a378d13d5009150602001610a8f565b60655460ff1615611a3e5760405162461bcd60e51b8152600401610792906137df565b600160005260d2602052600080516020613b0083398151915254431015611a775760405162461bcd60e51b8152600401610792906137a8565b60026097541415611a9a5760405162461bcd60e51b8152600401610792906138e6565b6002609755611aa76123d0565b811115611b2f5760405162461bcd60e51b815260206004820152604a60248201527f446f6e6174696f6e4d696e65723a3a636c61696d52657761726473506172746960448201527f616c3a20546869732072657761726420706572696f642069736e277420636c616064820152691a5b58589b19481e595d60b21b608482015260a401610792565b6000611b3b3383612417565b60ca54909150611b55906001600160a01b03163383612594565b604080518281526020810184905233917f2233b4bbf378b3d984acd0e36cea96f66bc81012a683e81929ed96df5287ba3d910161105f565b600054610100900460ff16611ba85760005460ff1615611bac565b303b155b611c0f5760405162461bcd60e51b815260206004820152602e60248201527f496e697469616c697a61626c653a20636f6e747261637420697320616c72656160448201526d191e481a5b9a5d1a585b1a5e995960921b6064820152608401610792565b600054610100900460ff16158015611c31576000805461ffff19166101011790555b6001600160a01b038916611c9f5760405162461bcd60e51b815260206004820152602f60248201527f446f6e6174696f6e4d696e65723a3a696e697469616c697a653a20635553442060448201526e1859191c995cdcc81b9bdd081cd95d608a1b6064820152608401610792565b6001600160a01b038816611d0d5760405162461bcd60e51b815260206004820152602f60248201527f446f6e6174696f6e4d696e65723a3a696e697469616c697a653a20504143542060448201526e1859191c995cdcc81b9bdd081cd95d608a1b6064820152608401610792565b6001600160a01b038716611d785760405162461bcd60e51b815260206004820152602c60248201527f446f6e6174696f6e4d696e65723a3a696e697469616c697a653a20747265617360448201526b1d5c9e57c81b9bdd081cd95d60a21b6064820152608401610792565b85611deb5760405162461bcd60e51b815260206004820152603760248201527f446f6e6174696f6e4d696e65723a3a696e697469616c697a653a20666972737460448201527f526577617264506572426c6f636b206e6f7420736574210000000000000000006064820152608401610792565b83611e5e5760405162461bcd60e51b815260206004820152603860248201527f446f6e6174696f6e4d696e65723a3a696e697469616c697a653a20737461727460448201527f696e67526577617264506572696f64206e6f74207365742100000000000000006064820152608401610792565b84611e7b5760405162461bcd60e51b81526004016107929061383e565b611e83612be4565b611e8b612c1b565b611e93612c52565b60c980546001600160a01b03808c166001600160a01b03199283161790925560ca80548b841690831617905560cb8054928a169290911691909117905560cc85905560cf83905560d0829055600160ce55611eee8487612c81565b8015611f00576000805461ff00191690555b505050505050505050565b6033546001600160a01b03163314611f355760405162461bcd60e51b815260040161079290613809565b60d45460408051918252602082018390527f7625e5482008771a414881eb4c957803f2ab46e99e6da60df6e1310f0f009fec910160405180910390a160d455565b6033546001600160a01b03163314611fa05760405162461bcd60e51b815260040161079290613809565b82611fbd5760405162461bcd60e51b81526004016107929061383e565b611fc56125c9565b60cc5460cf5460d05460408051938452602084019290925282820152606082018590526080820184905260a08201839052517f8fb29c6ced5ce51696c08668df816fab7e60c674a6c36e167d5df9b8a5f499849181900360c00190a160cc9290925560cf5560d055565b60006109aa82670de0b6b3a7640000612cf8565b6033546001600160a01b0316331461206d5760405162461bcd60e51b815260040161079290613809565b6001600160a01b0381166120d25760405162461bcd60e51b815260206004820152602660248201527f4f776e61626c653a206e6577206f776e657220697320746865207a65726f206160448201526564647265737360d01b6064820152608401610792565b6120db8161270a565b50565b6001600090815260d2602052600080516020613b00833981519152544310156121195760405162461bcd60e51b8152600401610792906137a8565b60655460ff161561213c5760405162461bcd60e51b8152600401610792906137df565b6109aa8260d554612b82565b6000806000612155610929565b9050600060d5548211612169576001612176565b60d5546121769083613a5f565b90508060ce54106121945761218e858260ce54612f7c565b90945092505b5050915091565b6040516001600160a01b03808516602483015283166044820152606481018290526122069085906323b872dd60e01b906084015b60408051601f198184030181529190526020810180516001600160e01b03166001600160e01b031990931692909217909152612ff1565b50505050565b6122146125c9565b60cd805490600061222483613ab9565b909155505060cd54600090815260d16020526040902080546001600160a01b038087166001600160a01b0319928316178355600183018054858316908416811790915543600385015560ce5460028501556005840180548884169416939093179092556006830185905560cb541614156123425760c9546001600160a01b038581169116146123365760cb5460405163f2b8995160e01b81526001600160a01b038681166004830152602482018690529091169063f2b899519060440160206040518083038186803b1580156122f957600080fd5b505afa15801561230d573d6000803e3d6000fd5b505050506040513d601f19601f8201168201806040525081019061233191906136e7565b612338565b825b6004820155612355565b60d85461234f9084613935565b60048201555b61236660ce548683600401546130c3565b61236f85613120565b60cd546004820154604080519182526001600160a01b03878116602084015290820186905280851692908816917f3d2fa2b84d5f2000d605401d563ba60e2e44f62701fdbe9f9101c59b3c215f299060600160405180910390a45050505050565b60006123da6125c9565b60d4546123e890600161391d565b60ce54116123f65750600090565b60d454600160ce546124089190613a5f565b6124129190613a5f565b905090565b6001600160a01b038216600090815260d360205260408120818061243b868661275c565b6003850154919350915085111561245457600383018590555b600085815260d2602090815260408083206001600160a01b038a168452600a0190915290208190558161248b575091506109aa9050565b60ca546040516370a0823160e01b81523060048201526001600160a01b03909116906370a082319060240160206040518083038186803b1580156124ce57600080fd5b505afa1580156124e2573d6000803e3d6000fd5b505050506040513d601f19601f8201168201806040525081019061250691906136e7565b82111561258b5760ca546040516370a0823160e01b81523060048201526001600160a01b03909116906370a082319060240160206040518083038186803b15801561255057600080fd5b505afa158015612564573d6000803e3d6000fd5b505050506040513d601f19601f8201168201806040525081019061258891906136e7565b91505b50949350505050565b6040516001600160a01b0383166024820152604481018290526125c490849063a9059cbb60e01b906064016121cf565b505050565b60ce54600090815260d2602052604090205b43816003015410156120db5760ce80549060006125f783613ab9565b909155505060ce54600090815260d26020526040902060d5546006820155600382015461262590600161391d565b6002820181905560cc5460019161263c919061391d565b6126469190613a5f565b600382015560d05460cf54835461265d9190613a40565b6126679190613935565b8082556007808401549083015560d754600883015560cc5460009161268b91613a40565b905060008360060154600160ce546126a39190613a5f565b116126af5760016126cd565b8360060154600160ce546126c39190613a5f565b6126cd9190613a5f565b90506126e781600160ce546126e29190613a5f565b6131b9565b6126fd5760018401546126fa908361391d565b91505b50600182015590506125db565b603380546001600160a01b038381166001600160a01b0319831681179093556040519116919082907f8be0079c531659141344cd1fd0a4f28419497f9722a3daafe3b4186f6b6457e090600090a35050565b6001600160a01b038216600090815260d3602052604081206003810154829190829061278990600161391d565b905080600114156127b557815460009081526002830160205260409020546127b290600161391d565b90505b60d26020819052600082815260408120818052909182918291829182917f20791b593a776a2631a28f4a3f62a14ad18db22add38130c4f4a8fdfa4639885919082908461280360018c613a5f565b8152602001908152602001600020600a0160008f6001600160a01b03166001600160a01b03168152602001908152602001600020549a505b8c8911612b71576002820154156129cc57600682015461287f576001600160a01b038e1660009081526005830160205260409020546004830154909850965061299e565b81600601548360060154141561295c57600682015461289f90600161391d565b89111561291e5760d26000836006015460018c6128bc9190613a5f565b6128c69190613a5f565b815260200190815260200160002090508060050160008f6001600160a01b03166001600160a01b0316815260200190815260200160002054886129099190613a5f565b975080600401548761291b9190613a5f565b96505b6001600160a01b038e166000908152600583016020526040902054612943908961391d565b9750816004015487612955919061391d565b965061299e565b816006015489111561298c576129828e83600601548b61297c9190613a5f565b8b612f7c565b909850965061299e565b6129988e60008b612f7c565b90985096505b816001015495508160070154945060008260080154116129bf5760016129c5565b81600801545b9350612aae565b60d5546129da90600161391d565b891115612a575760d2600060d55460018c6129f59190613a5f565b6129ff9190613a5f565b815260200190815260200160002090508060050160008f6001600160a01b03166001600160a01b031681526020019081526020016000205488612a429190613a5f565b9750806004015487612a549190613a5f565b96505b6001600160a01b038e166000908152600583016020526040902054612a7c908961391d565b9750816004015487612a8e919061391d565b965060d05460cf5487612aa19190613a40565b612aab9190613935565b95505b6001600160a01b038e16600090815260098301602052604090205460ff1615612aef576001600160a01b038e166000908152600a830160205260409020549a505b6000612afb8c8a61391d565b1115612b4c5784612b0c8589613a40565b612b16919061391d565b8b612b21868b613a40565b612b2b919061391d565b612b359088613a40565b612b3f9190613935565b612b49908d61391d565b9b505b88612b5681613ab9565b600081815260d260205260409020909a5092935061283b9050565b505050505050505050509250929050565b600080612b8d61320f565b9050805b8315612bd15760d05460cf54612ba79084613a40565b612bb19190613935565b9150612bbd828261391d565b905083612bc981613aa2565b945050612b91565b612bdb8582612cf8565b95945050505050565b600054610100900460ff16612c0b5760405162461bcd60e51b81526004016107929061389b565b612c13613290565b61110f6132b7565b600054610100900460ff16612c425760405162461bcd60e51b81526004016107929061389b565b612c4a613290565b61110f6132e7565b600054610100900460ff16612c795760405162461bcd60e51b81526004016107929061389b565b61110f61331a565b6001600081905260d2602052600080516020613b0083398151915283905560cc547fb7404ce2b5a52e61a6b5c9b4585ed65d8cb4b8848d3ee262a356d0c2c46c5f359190612ccf908561391d565b612cd99190613a5f565b600382015581815560cc54612cee9083613a40565b6001909101555050565b6000806000612d0685612148565b60d654604080516319e815f960e01b815290519395509193506000926001600160a01b03909116916319e815f9916004808301926020929190829003018186803b158015612d5357600080fd5b505afa158015612d67573d6000803e3d6000fd5b505050506040513d601f19601f82011682018060405250810190612d8b919061354b565b6001600160a01b03166318160ddd6040518163ffffffff1660e01b815260040160206040518083038186803b158015612dc357600080fd5b505afa158015612dd7573d6000803e3d6000fd5b505050506040513d601f19601f82011682018060405250810190612dfb91906136e7565b905080158015612e09575081155b15612e1a57600093505050506109aa565b60008060d75411612e2c576001612e30565b60d7545b905060d660009054906101000a90046001600160a01b03166001600160a01b0316638c58d0a96040518163ffffffff1660e01b815260040160206040518083038186803b158015612e8057600080fd5b505afa158015612e94573d6000803e3d6000fd5b505050506040513d601f19601f82011682018060405250810190612eb891906136e7565b612ec28285613a40565b612ecc919061391d565b60d654604051631aefa86d60e21b81526001600160a01b038a8116600483015290911690636bbea1b49060240160206040518083038186803b158015612f1157600080fd5b505afa158015612f25573d6000803e3d6000fd5b505050506040513d601f19601f82011682018060405250810190612f4991906136e7565b612f538387613a40565b612f5d919061391d565b612f679088613a40565b612f719190613935565b979650505050505050565b6000808080855b858111612fe457600081815260d2602090815260408083206001600160a01b038c1684526005810190925290912054612fbc908561391d565b9350806004015483612fce919061391d565b9250508080612fdc90613ab9565b915050612f83565b5090969095509350505050565b6000613046826040518060400160405280602081526020017f5361666545524332303a206c6f772d6c6576656c2063616c6c206661696c6564815250856001600160a01b03166133489092919063ffffffff16565b8051909150156125c45780806020019051810190613064919061352b565b6125c45760405162461bcd60e51b815260206004820152602a60248201527f5361666545524332303a204552433230206f7065726174696f6e20646964206e6044820152691bdd081cdd58d8d9595960b21b6064820152608401610792565b600083815260d260205260408120600481018054919284926130e690849061391d565b90915550506001600160a01b03831660009081526005820160205260408120805484929061311590849061391d565b909155505050505050565b6001600160a01b038116600090815260d36020908152604080832060018101548452600281019092529091205460ce5481146131875760018201805490600061316883613ab9565b909155505060ce54600183015460009081526002840160205260409020555b600382015415801561319b57506001820154155b156125c457600160ce546131af9190613a5f565b6003830155505050565b60005b81831161320657600083815260d26020526040812060078101546004909101546131e6919061391d565b11156131f4575060016109aa565b826131fe81613ab9565b9350506131bc565b50600092915050565b60008061321a610929565b9050600060ce548261322c9190613a5f565b60d0546132399190613998565b60ce546132469084613a5f565b60cf546132539190613998565b60ce54600090815260d2602052604090205461326f9190613a40565b6132799190613935565b905060cc54816132899190613a40565b9250505090565b600054610100900460ff1661110f5760405162461bcd60e51b81526004016107929061389b565b600054610100900460ff166132de5760405162461bcd60e51b81526004016107929061389b565b61110f3361270a565b600054610100900460ff1661330e5760405162461bcd60e51b81526004016107929061389b565b6065805460ff19169055565b600054610100900460ff166133415760405162461bcd60e51b81526004016107929061389b565b6001609755565b6060613357848460008561335f565b949350505050565b6060824710156133c05760405162461bcd60e51b815260206004820152602660248201527f416464726573733a20696e73756666696369656e742062616c616e636520666f6044820152651c8818d85b1b60d21b6064820152608401610792565b843b61340e5760405162461bcd60e51b815260206004820152601d60248201527f416464726573733a2063616c6c20746f206e6f6e2d636f6e74726163740000006044820152606401610792565b600080866001600160a01b0316858760405161342a9190613759565b60006040518083038185875af1925050503d8060008114613467576040519150601f19603f3d011682016040523d82523d6000602084013e61346c565b606091505b5091509150612f7182828660608315613486575081611445565b8251156134965782518084602001fd5b8160405162461bcd60e51b81526004016107929190613775565b6000602082840312156134c1578081fd5b813561144581613aea565b600080604083850312156134de578081fd5b82356134e981613aea565b946020939093013593505050565b60008060006060848603121561350b578081fd5b833561351681613aea565b95602085013595506040909401359392505050565b60006020828403121561353c578081fd5b81518015158114611445578182fd5b60006020828403121561355c578081fd5b815161144581613aea565b6000806000806080858703121561357c578081fd5b843561358781613aea565b9350602085013561359781613aea565b92506040850135915060608501356135ae81613aea565b939692955090935050565b6000806000606084860312156135cd578283fd5b83356135d881613aea565b925060208401356135e881613aea565b929592945050506040919091013590565b600080600080600080600080610100898b031215613615578384fd5b883561362081613aea565b9750602089013561363081613aea565b9650604089013561364081613aea565b979a96995096976060810135975060808101359660a0820135965060c0820135955060e0909101359350915050565b600080600060608486031215613683578283fd5b833561368e81613aea565b92506020840135915060408401356136a581613aea565b809150509250925092565b6000602082840312156136c1578081fd5b815160048110611445578182fd5b6000602082840312156136e0578081fd5b5035919050565b6000602082840312156136f8578081fd5b5051919050565b60008060408385031215613711578182fd5b82359150602083013561372381613aea565b809150509250929050565b600080600060608486031215613742578081fd5b505081359360208301359350604090920135919050565b6000825161376b818460208701613a76565b9190910192915050565b6020815260008251806020840152613794816040850160208701613a76565b601f01601f19169190910160400192915050565b6020808252601e908201527f446f6e6174696f6e4d696e65723a204552525f4e4f545f535441525445440000604082015260600190565b60208082526010908201526f14185d5cd8589b194e881c185d5cd95960821b604082015260600190565b6020808252818101527f4f776e61626c653a2063616c6c6572206973206e6f7420746865206f776e6572604082015260600190565b60208082526037908201527f446f6e6174696f6e4d696e65723a3a696e697469616c697a653a20726577617260408201527f64506572696f6453697a6520697320696e76616c696421000000000000000000606082015260800190565b6020808252602b908201527f496e697469616c697a61626c653a20636f6e7472616374206973206e6f74206960408201526a6e697469616c697a696e6760a81b606082015260800190565b6020808252601f908201527f5265656e7472616e637947756172643a207265656e7472616e742063616c6c00604082015260600190565b6000821982111561393057613930613ad4565b500190565b60008261395057634e487b7160e01b81526012600452602481fd5b500490565b600181815b8085111561399057816000190482111561397657613976613ad4565b8085161561398357918102915b93841c939080029061395a565b509250929050565b600061144583836000826139ae575060016109aa565b816139bb575060006109aa565b81600181146139d157600281146139db576139f7565b60019150506109aa565b60ff8411156139ec576139ec613ad4565b50506001821b6109aa565b5060208310610133831016604e8410600b8410161715613a1a575081810a6109aa565b613a248383613955565b8060001904821115613a3857613a38613ad4565b029392505050565b6000816000190483118215151615613a5a57613a5a613ad4565b500290565b600082821015613a7157613a71613ad4565b500390565b60005b83811015613a91578181015183820152602001613a79565b838111156122065750506000910152565b600081613ab157613ab1613ad4565b506000190190565b6000600019821415613acd57613acd613ad4565b5060010190565b634e487b7160e01b600052601160045260246000fd5b6001600160a01b03811681146120db57600080fdfeb7404ce2b5a52e61a6b5c9b4585ed65d8cb4b8848d3ee262a356d0c2c46c5f37a26469706673582212206df486f23b27a4e7efec837d4300f7f3833108caaabb2e9414cd8a2c7fe79df464736f6c63430008040033",
  "devdoc": {
    "events": {
      "AgainstPeriodsUpdated(uint256,uint256)": {
        "params": {
          "newAgainstPeriods": "New againstPeriods value",
          "oldAgainstPeriods": "Old againstPeriods value"
        }
      },
      "ClaimDelayUpdated(uint256,uint256)": {
        "params": {
          "newClaimDelay": "New claimDelay value",
          "oldClaimDelay": "Old claimDelay value"
        }
      },
      "CommunityDonationRatioUpdated(uint256,uint256)": {
        "params": {
          "newCommunityDonationRatio": "New communityDonationRatio value",
          "oldCommunityDonationRatio": "Old communityDonationRatio value"
        }
      },
      "DonationAdded(uint256,address,uint256,address,uint256,address)": {
        "params": {
          "amount": "Number of token donated",
          "delegateAddress": "Address of the delegate",
          "donationId": "Id of the donation",
          "target": "Address of the receiver (community or treasury)                          or address of the DonationMiner contract otherwise",
          "token": "Address of the token after conversion"
        }
      },
      "RewardClaimed(address,uint256)": {
        "params": {
          "amount": "Value of the reward",
          "donor": "Address of the donner"
        }
      },
      "RewardClaimedPartial(address,uint256,uint256)": {
        "params": {
          "amount": "Value of the reward",
          "donor": "Address of the donner",
          "lastRewardPeriod": "Number of the last reward period for witch the claim was made"
        }
      },
      "RewardPeriodParamsUpdated(uint256,uint256,uint256,uint256,uint256,uint256)": {
        "params": {
          "newDecayDenominator": "New decayDenominator value For further information regarding each parameter, see *DonationMiner* smart contract initialize method.",
          "newDecayNumerator": "New decayNumerator value",
          "newRewardPeriodSize": "New rewardPeriodSize value",
          "oldDecayDenominator": "Old decayDenominator value",
          "oldDecayNumerator": "Old decayNumerator value",
          "oldRewardPeriodSize": "Old rewardPeriodSize value"
        }
      },
      "RewardStaked(address,uint256)": {
        "params": {
          "amount": "Value of the reward",
          "donor": "Address of the donner"
        }
      },
      "RewardStakedPartial(address,uint256,uint256)": {
        "params": {
          "amount": "Value of the reward",
          "donor": "Address of the donner",
          "lastRewardPeriod": "Number of the last reward period for witch tha stake was made"
        }
      },
      "StakingDonationRatioUpdated(uint256,uint256)": {
        "params": {
          "newStakingDonationRatio": "New stakingDonationRatio value",
          "oldStakingDonationRatio": "Old stakingDonationRatio value"
        }
      },
      "StakingUpdated(address,address)": {
        "params": {
          "newStaking": "New staking address",
          "oldStaking": "Old staking address"
        }
      },
      "TransferERC20(address,address,uint256)": {
        "params": {
          "amount": "Amount of the transaction",
          "to": "Address of the receiver",
          "token": "ERC20 token address"
        }
      },
      "TreasuryUpdated(address,address)": {
        "params": {
          "newTreasury": "New treasury address",
          "oldTreasury": "Old treasury address"
        }
      }
    },
    "kind": "dev",
    "methods": {
      "apr(address)": {
        "params": {
          "_stakeholderAddress": "address of the stakeHolder"
        },
        "returns": {
          "_0": "uint256 APR of the user"
        }
      },
      "calculateClaimableRewards(address)": {
        "params": {
          "_donorAddress": "address of the donor"
        },
        "returns": {
          "_0": "claimAmount uint256 sum of all donor's rewards that has not been claimed until _lastPeriodNumber"
        }
      },
      "calculateClaimableRewardsByPeriodNumber(address,uint256)": {
        "params": {
          "_donorAddress": "address of the donor",
          "_lastPeriodNumber": "last reward period number to be computed"
        },
        "returns": {
          "_0": "uint256 sum of all donor's rewards that has not been claimed until _lastPeriodNumber"
        }
      },
      "donate(address,uint256,address)": {
        "params": {
          "_amount": "Amount of cUSD tokens to deposit.",
          "_delegateAddress": "the address that will claim the reward for the donation",
          "_token": "address of the token"
        }
      },
      "donateToCommunity(address,address,uint256,address)": {
        "details": "Transfers tokens to the community contract",
        "params": {
          "_amount": "amount of cUSD tokens to deposit",
          "_community": "address of the community",
          "_delegateAddress": "the address that will claim the reward for the donation",
          "_token": "address of the token"
        }
      },
      "donorRewardPeriod(address,uint256)": {
        "params": {
          "_donor": "address of the donor",
          "_rewardPeriodIndex": "index of the reward period"
        },
        "returns": {
          "_0": "uint256 number of the reward period"
        }
      },
      "donorScore(address)": {
        "details": "Calculate the score of a user based as this ratio (his donation and staking) / (all donation and staking) E.G. score = 0.01 * 1e18 => the donor have have 1% score      so he will get 1% of the reward",
        "params": {
          "_donorAddress": "address of the donor"
        },
        "returns": {
          "_0": "uint256    donor's score"
        }
      },
      "estimateClaimableReward(address)": {
        "params": {
          "_donorAddress": "address of the donor"
        },
        "returns": {
          "_0": "uint256 reward that donor will receive in current reward period if there isn't another donation"
        }
      },
      "estimateClaimableRewardAdvance(address)": {
        "params": {
          "_donorAddress": "address of the donor"
        },
        "returns": {
          "_0": "uint256 reward that donor will receive in current reward period if there isn't another donation"
        }
      },
      "initialize(address,address,address,uint256,uint256,uint256,uint256,uint256)": {
        "params": {
          "_PACT": "Address of the PACT Token",
          "_cUSD": "Address of the cUSD token",
          "_decayDenominator": "Decay denominator used for calculating the new reward per block based on the previous reward per block",
          "_decayNumerator": "Decay numerator used for calculating the new reward per block based on the previous reward per block",
          "_firstRewardPerBlock": "Number of PACTs given for each block                              from the first reward period",
          "_rewardPeriodSize": "Number of blocks of the reward period",
          "_startingBlock": "First block of the first reward period",
          "_treasury": "Address of the Treasury"
        }
      },
      "lastPeriodsDonations(address)": {
        "details": "Calculate all donations on the last X epochs as well as everyone else in the same period.",
        "params": {
          "_donorAddress": "address of the donor"
        },
        "returns": {
          "donorAmount": "uint256    sum of donor's donations",
          "totalAmount": "uint256    sum of all donations"
        }
      },
      "owner()": {
        "details": "Returns the address of the current owner."
      },
      "paused()": {
        "details": "Returns true if the contract is paused, and false otherwise."
      },
      "renounceOwnership()": {
        "details": "Leaves the contract without owner. It will not be possible to call `onlyOwner` functions anymore. Can only be called by the current owner. NOTE: Renouncing ownership will leave the contract without an owner, thereby removing any functionality that is only available to the owner."
      },
      "rewardPeriodDonorAmount(uint256,address)": {
        "params": {
          "_donor": "address of the donor",
          "_period": "number of the reward period"
        },
        "returns": {
          "_0": "uint256 amount of cUSD donated by the user in this reward period"
        }
      },
      "rewardPeriodDonorStakeAmounts(uint256,address)": {
        "params": {
          "_donor": "address of the donor",
          "_period": "reward period number"
        },
        "returns": {
          "_0": "uint256 amount of PACT staked by a user at the and of the reward period"
        }
      },
      "transfer(address,address,uint256)": {
        "params": {
          "_amount": "amount of the transaction",
          "_to": "address of the receiver",
          "_token": "address of the ERC20 token"
        }
      },
      "transferOwnership(address)": {
        "details": "Transfers ownership of the contract to a new account (`newOwner`). Can only be called by the current owner."
      },
      "updateAgainstPeriods(uint256)": {
        "params": {
          "_newAgainstPeriods": "Number of reward periods for the backward computation"
        }
      },
      "updateClaimDelay(uint256)": {
        "params": {
          "_newClaimDelay": "Number of reward periods a donor has to wait after                            a donation until he will be able to claim his reward"
        }
      },
      "updateCommunityDonationRatio(uint256)": {
        "params": {
          "_newCommunityDonationRatio": "Ratio between 1USD donated into the treasury vs 1USD donated to a community"
        }
      },
      "updateRewardPeriodParams(uint256,uint256,uint256)": {
        "params": {
          "_newDecayDenominator": "value of new decayDenominator",
          "_newDecayNumerator": "value of new decayNumerator",
          "_newRewardPeriodSize": "value of new rewardPeriodSize"
        }
      },
      "updateStaking(address)": {
        "params": {
          "_newStaking": "address of new Staking contract"
        }
      },
      "updateStakingDonationRatio(uint256)": {
        "params": {
          "_newStakingDonationRatio": "Number of tokens that need to be staked to be counted as 1 PACT donated"
        }
      },
      "updateTreasury(address)": {
        "params": {
          "_newTreasury": "address of new treasury_ contract"
        }
      }
    },
    "version": 1
  },
  "userdoc": {
    "events": {
      "AgainstPeriodsUpdated(uint256,uint256)": {
        "notice": "Triggered when the againstPeriods value has been updated"
      },
      "ClaimDelayUpdated(uint256,uint256)": {
        "notice": "Triggered when the claimDelay value has been updated"
      },
      "CommunityDonationRatioUpdated(uint256,uint256)": {
        "notice": "Triggered when the communityDonationRatio value has been updated"
      },
      "DonationAdded(uint256,address,uint256,address,uint256,address)": {
        "notice": "Triggered when a donation has been added"
      },
      "RewardClaimed(address,uint256)": {
        "notice": "Triggered when a donor has claimed his reward"
      },
      "RewardClaimedPartial(address,uint256,uint256)": {
        "notice": "Triggered when a donor has claimed his reward"
      },
      "RewardPeriodParamsUpdated(uint256,uint256,uint256,uint256,uint256,uint256)": {
        "notice": "Triggered when reward period params have been updated"
      },
      "RewardStaked(address,uint256)": {
        "notice": "Triggered when a donor has staked his reward"
      },
      "RewardStakedPartial(address,uint256,uint256)": {
        "notice": "Triggered when a donor has staked his reward"
      },
      "StakingDonationRatioUpdated(uint256,uint256)": {
        "notice": "Triggered when the stakingDonationRatio value has been updated"
      },
      "StakingUpdated(address,address)": {
        "notice": "Triggered when the staking address has been updated"
      },
      "TransferERC20(address,address,uint256)": {
        "notice": "Triggered when an amount of an ERC20 has been transferred from this contract to an address"
      },
      "TreasuryUpdated(address,address)": {
        "notice": "Triggered when the treasury address has been updated"
      }
    },
    "kind": "user",
    "methods": {
      "apr(address)": {
        "notice": "Calculates the APR of a user based on his staking"
      },
      "calculateClaimableRewards(address)": {
        "notice": "Calculates the rewards from ended reward periods of a donor"
      },
      "calculateClaimableRewardsByPeriodNumber(address,uint256)": {
        "notice": "Calculates the rewards from ended reward periods of a donor"
      },
      "claimRewards()": {
        "notice": "Transfers to the sender the rewards"
      },
      "claimRewardsPartial(uint256)": {
        "notice": "Transfers to the sender the rewards"
      },
      "donate(address,uint256,address)": {
        "notice": "Transfers cUSD tokens to the treasury contract"
      },
      "donorRewardPeriod(address,uint256)": {
        "notice": "Returns a reward period number from a donor reward period list"
      },
      "estimateClaimableReward(address)": {
        "notice": "Calculates the estimate reward of a donor for current reward period"
      },
      "estimateClaimableRewardAdvance(address)": {
        "notice": "Calculates the estimate reward of a donor for the next x reward periods"
      },
      "getVersion()": {
        "notice": "Returns the current implementation version"
      },
      "initialize(address,address,address,uint256,uint256,uint256,uint256,uint256)": {
        "notice": "Used to initialize a new DonationMiner contract"
      },
      "rewardPeriodDonorAmount(uint256,address)": {
        "notice": "Returns the amount of cUSD donated by a user in a reward period"
      },
      "rewardPeriodDonorStakeAmounts(uint256,address)": {
        "notice": "Returns the amount of PACT staked by a user at the and of the reward period"
      },
      "stakeRewards()": {
        "notice": "Stakes the reward"
      },
      "stakeRewardsPartial(uint256)": {
        "notice": "Stakes the reward"
      },
      "transfer(address,address,uint256)": {
        "notice": "Transfers an amount of an ERC20 from this contract to an address"
      },
      "updateAgainstPeriods(uint256)": {
        "notice": "Updates againstPeriods value"
      },
      "updateClaimDelay(uint256)": {
        "notice": "Updates claimDelay value"
      },
      "updateCommunityDonationRatio(uint256)": {
        "notice": "Updates communityDonationRatio value"
      },
      "updateRewardPeriodParams(uint256,uint256,uint256)": {
        "notice": "Updates reward period default params"
      },
      "updateStaking(address)": {
        "notice": "Updates Staking address"
      },
      "updateStakingDonationRatio(uint256)": {
        "notice": "Updates stakingDonationRatio value"
      },
      "updateTreasury(address)": {
        "notice": "Updates Treasury address"
      }
    },
    "version": 1
  },
  "storageLayout": {
    "storage": [
      {
        "astId": 542,
        "contract": "contracts/donationMiner/DonationMinerImplementation.sol:DonationMinerImplementation",
        "label": "_initialized",
        "offset": 0,
        "slot": "0",
        "type": "t_bool"
      },
      {
        "astId": 545,
        "contract": "contracts/donationMiner/DonationMinerImplementation.sol:DonationMinerImplementation",
        "label": "_initializing",
        "offset": 1,
        "slot": "0",
        "type": "t_bool"
      },
      {
        "astId": 1068,
        "contract": "contracts/donationMiner/DonationMinerImplementation.sol:DonationMinerImplementation",
        "label": "__gap",
        "offset": 0,
        "slot": "1",
        "type": "t_array(t_uint256)50_storage"
      },
      {
        "astId": 420,
        "contract": "contracts/donationMiner/DonationMinerImplementation.sol:DonationMinerImplementation",
        "label": "_owner",
        "offset": 0,
        "slot": "51",
        "type": "t_address"
      },
      {
        "astId": 534,
        "contract": "contracts/donationMiner/DonationMinerImplementation.sol:DonationMinerImplementation",
        "label": "__gap",
        "offset": 0,
        "slot": "52",
        "type": "t_array(t_uint256)49_storage"
      },
      {
        "astId": 630,
        "contract": "contracts/donationMiner/DonationMinerImplementation.sol:DonationMinerImplementation",
        "label": "_paused",
        "offset": 0,
        "slot": "101",
        "type": "t_bool"
      },
      {
        "astId": 721,
        "contract": "contracts/donationMiner/DonationMinerImplementation.sol:DonationMinerImplementation",
        "label": "__gap",
        "offset": 0,
        "slot": "102",
        "type": "t_array(t_uint256)49_storage"
      },
      {
        "astId": 736,
        "contract": "contracts/donationMiner/DonationMinerImplementation.sol:DonationMinerImplementation",
        "label": "_status",
        "offset": 0,
        "slot": "151",
        "type": "t_uint256"
      },
      {
        "astId": 779,
        "contract": "contracts/donationMiner/DonationMinerImplementation.sol:DonationMinerImplementation",
        "label": "__gap",
        "offset": 0,
        "slot": "152",
        "type": "t_array(t_uint256)49_storage"
      },
      {
        "astId": 14249,
        "contract": "contracts/donationMiner/DonationMinerImplementation.sol:DonationMinerImplementation",
        "label": "cUSD",
        "offset": 0,
        "slot": "201",
        "type": "t_contract(IERC20)3447"
      },
      {
        "astId": 14253,
        "contract": "contracts/donationMiner/DonationMinerImplementation.sol:DonationMinerImplementation",
        "label": "PACT",
        "offset": 0,
        "slot": "202",
        "type": "t_contract(IERC20)3447"
      },
      {
        "astId": 14257,
        "contract": "contracts/donationMiner/DonationMinerImplementation.sol:DonationMinerImplementation",
        "label": "treasury",
        "offset": 0,
        "slot": "203",
        "type": "t_contract(ITreasury)28207"
      },
      {
        "astId": 14260,
        "contract": "contracts/donationMiner/DonationMinerImplementation.sol:DonationMinerImplementation",
        "label": "rewardPeriodSize",
        "offset": 0,
        "slot": "204",
        "type": "t_uint256"
      },
      {
        "astId": 14263,
        "contract": "contracts/donationMiner/DonationMinerImplementation.sol:DonationMinerImplementation",
        "label": "donationCount",
        "offset": 0,
        "slot": "205",
        "type": "t_uint256"
      },
      {
        "astId": 14266,
        "contract": "contracts/donationMiner/DonationMinerImplementation.sol:DonationMinerImplementation",
        "label": "rewardPeriodCount",
        "offset": 0,
        "slot": "206",
        "type": "t_uint256"
      },
      {
        "astId": 14269,
        "contract": "contracts/donationMiner/DonationMinerImplementation.sol:DonationMinerImplementation",
        "label": "decayNumerator",
        "offset": 0,
        "slot": "207",
        "type": "t_uint256"
      },
      {
        "astId": 14272,
        "contract": "contracts/donationMiner/DonationMinerImplementation.sol:DonationMinerImplementation",
        "label": "decayDenominator",
        "offset": 0,
        "slot": "208",
        "type": "t_uint256"
      },
      {
        "astId": 14278,
        "contract": "contracts/donationMiner/DonationMinerImplementation.sol:DonationMinerImplementation",
        "label": "donations",
        "offset": 0,
        "slot": "209",
        "type": "t_mapping(t_uint256,t_struct(Donation)14390_storage)"
      },
      {
        "astId": 14284,
        "contract": "contracts/donationMiner/DonationMinerImplementation.sol:DonationMinerImplementation",
        "label": "rewardPeriods",
        "offset": 0,
        "slot": "210",
        "type": "t_mapping(t_uint256,t_struct(RewardPeriod)14363_storage)"
      },
      {
        "astId": 14290,
        "contract": "contracts/donationMiner/DonationMinerImplementation.sol:DonationMinerImplementation",
        "label": "donors",
        "offset": 0,
        "slot": "211",
        "type": "t_mapping(t_address,t_struct(Donor)14374_storage)"
      },
      {
        "astId": 14300,
        "contract": "contracts/donationMiner/DonationMinerImplementation.sol:DonationMinerImplementation",
        "label": "claimDelay",
        "offset": 0,
        "slot": "212",
        "type": "t_uint256"
      },
      {
        "astId": 14310,
        "contract": "contracts/donationMiner/DonationMinerImplementation.sol:DonationMinerImplementation",
        "label": "againstPeriods",
        "offset": 0,
        "slot": "213",
        "type": "t_uint256"
      },
      {
        "astId": 14321,
        "contract": "contracts/donationMiner/DonationMinerImplementation.sol:DonationMinerImplementation",
        "label": "staking",
        "offset": 0,
        "slot": "214",
        "type": "t_contract(IStaking)27336"
      },
      {
        "astId": 14324,
        "contract": "contracts/donationMiner/DonationMinerImplementation.sol:DonationMinerImplementation",
        "label": "stakingDonationRatio",
        "offset": 0,
        "slot": "215",
        "type": "t_uint256"
      },
      {
        "astId": 14327,
        "contract": "contracts/donationMiner/DonationMinerImplementation.sol:DonationMinerImplementation",
        "label": "communityDonationRatio",
        "offset": 0,
        "slot": "216",
        "type": "t_uint256"
      }
    ],
    "types": {
      "t_address": {
        "encoding": "inplace",
        "label": "address",
        "numberOfBytes": "20"
      },
      "t_array(t_uint256)49_storage": {
        "base": "t_uint256",
        "encoding": "inplace",
        "label": "uint256[49]",
        "numberOfBytes": "1568"
      },
      "t_array(t_uint256)50_storage": {
        "base": "t_uint256",
        "encoding": "inplace",
        "label": "uint256[50]",
        "numberOfBytes": "1600"
      },
      "t_bool": {
        "encoding": "inplace",
        "label": "bool",
        "numberOfBytes": "1"
      },
      "t_contract(IERC20)3447": {
        "encoding": "inplace",
        "label": "contract IERC20",
        "numberOfBytes": "20"
      },
      "t_contract(IStaking)27336": {
        "encoding": "inplace",
        "label": "contract IStaking",
        "numberOfBytes": "20"
      },
      "t_contract(ITreasury)28207": {
        "encoding": "inplace",
        "label": "contract ITreasury",
        "numberOfBytes": "20"
      },
      "t_mapping(t_address,t_bool)": {
        "encoding": "mapping",
        "key": "t_address",
        "label": "mapping(address => bool)",
        "numberOfBytes": "32",
        "value": "t_bool"
      },
      "t_mapping(t_address,t_struct(Donor)14374_storage)": {
        "encoding": "mapping",
        "key": "t_address",
        "label": "mapping(address => struct IDonationMiner.Donor)",
        "numberOfBytes": "32",
        "value": "t_struct(Donor)14374_storage"
      },
      "t_mapping(t_address,t_uint256)": {
        "encoding": "mapping",
        "key": "t_address",
        "label": "mapping(address => uint256)",
        "numberOfBytes": "32",
        "value": "t_uint256"
      },
      "t_mapping(t_uint256,t_struct(Donation)14390_storage)": {
        "encoding": "mapping",
        "key": "t_uint256",
        "label": "mapping(uint256 => struct IDonationMiner.Donation)",
        "numberOfBytes": "32",
        "value": "t_struct(Donation)14390_storage"
      },
      "t_mapping(t_uint256,t_struct(RewardPeriod)14363_storage)": {
        "encoding": "mapping",
        "key": "t_uint256",
        "label": "mapping(uint256 => struct IDonationMiner.RewardPeriod)",
        "numberOfBytes": "32",
        "value": "t_struct(RewardPeriod)14363_storage"
      },
      "t_mapping(t_uint256,t_uint256)": {
        "encoding": "mapping",
        "key": "t_uint256",
        "label": "mapping(uint256 => uint256)",
        "numberOfBytes": "32",
        "value": "t_uint256"
      },
      "t_struct(Donation)14390_storage": {
        "encoding": "inplace",
        "label": "struct IDonationMiner.Donation",
        "members": [
          {
            "astId": 14376,
            "contract": "contracts/donationMiner/DonationMinerImplementation.sol:DonationMinerImplementation",
            "label": "donor",
            "offset": 0,
            "slot": "0",
            "type": "t_address"
          },
          {
            "astId": 14378,
            "contract": "contracts/donationMiner/DonationMinerImplementation.sol:DonationMinerImplementation",
            "label": "target",
            "offset": 0,
            "slot": "1",
            "type": "t_address"
          },
          {
            "astId": 14380,
            "contract": "contracts/donationMiner/DonationMinerImplementation.sol:DonationMinerImplementation",
            "label": "rewardPeriod",
            "offset": 0,
            "slot": "2",
            "type": "t_uint256"
          },
          {
            "astId": 14382,
            "contract": "contracts/donationMiner/DonationMinerImplementation.sol:DonationMinerImplementation",
            "label": "blockNumber",
            "offset": 0,
            "slot": "3",
            "type": "t_uint256"
          },
          {
            "astId": 14384,
            "contract": "contracts/donationMiner/DonationMinerImplementation.sol:DonationMinerImplementation",
            "label": "amount",
            "offset": 0,
            "slot": "4",
            "type": "t_uint256"
          },
          {
            "astId": 14387,
            "contract": "contracts/donationMiner/DonationMinerImplementation.sol:DonationMinerImplementation",
            "label": "token",
            "offset": 0,
            "slot": "5",
            "type": "t_contract(IERC20)3447"
          },
          {
            "astId": 14389,
            "contract": "contracts/donationMiner/DonationMinerImplementation.sol:DonationMinerImplementation",
            "label": "initialAmount",
            "offset": 0,
            "slot": "6",
            "type": "t_uint256"
          }
        ],
        "numberOfBytes": "224"
      },
      "t_struct(Donor)14374_storage": {
        "encoding": "inplace",
        "label": "struct IDonationMiner.Donor",
        "members": [
          {
            "astId": 14365,
            "contract": "contracts/donationMiner/DonationMinerImplementation.sol:DonationMinerImplementation",
            "label": "lastClaim",
            "offset": 0,
            "slot": "0",
            "type": "t_uint256"
          },
          {
            "astId": 14367,
            "contract": "contracts/donationMiner/DonationMinerImplementation.sol:DonationMinerImplementation",
            "label": "rewardPeriodsCount",
            "offset": 0,
            "slot": "1",
            "type": "t_uint256"
          },
          {
            "astId": 14371,
            "contract": "contracts/donationMiner/DonationMinerImplementation.sol:DonationMinerImplementation",
            "label": "rewardPeriods",
            "offset": 0,
            "slot": "2",
            "type": "t_mapping(t_uint256,t_uint256)"
          },
          {
            "astId": 14373,
            "contract": "contracts/donationMiner/DonationMinerImplementation.sol:DonationMinerImplementation",
            "label": "lastClaimPeriod",
            "offset": 0,
            "slot": "3",
            "type": "t_uint256"
          }
        ],
        "numberOfBytes": "128"
      },
      "t_struct(RewardPeriod)14363_storage": {
        "encoding": "inplace",
        "label": "struct IDonationMiner.RewardPeriod",
        "members": [
          {
            "astId": 14336,
            "contract": "contracts/donationMiner/DonationMinerImplementation.sol:DonationMinerImplementation",
            "label": "rewardPerBlock",
            "offset": 0,
            "slot": "0",
            "type": "t_uint256"
          },
          {
            "astId": 14338,
            "contract": "contracts/donationMiner/DonationMinerImplementation.sol:DonationMinerImplementation",
            "label": "rewardAmount",
            "offset": 0,
            "slot": "1",
            "type": "t_uint256"
          },
          {
            "astId": 14340,
            "contract": "contracts/donationMiner/DonationMinerImplementation.sol:DonationMinerImplementation",
            "label": "startBlock",
            "offset": 0,
            "slot": "2",
            "type": "t_uint256"
          },
          {
            "astId": 14342,
            "contract": "contracts/donationMiner/DonationMinerImplementation.sol:DonationMinerImplementation",
            "label": "endBlock",
            "offset": 0,
            "slot": "3",
            "type": "t_uint256"
          },
          {
            "astId": 14344,
            "contract": "contracts/donationMiner/DonationMinerImplementation.sol:DonationMinerImplementation",
            "label": "donationsAmount",
            "offset": 0,
            "slot": "4",
            "type": "t_uint256"
          },
          {
            "astId": 14348,
            "contract": "contracts/donationMiner/DonationMinerImplementation.sol:DonationMinerImplementation",
            "label": "donorAmounts",
            "offset": 0,
            "slot": "5",
            "type": "t_mapping(t_address,t_uint256)"
          },
          {
            "astId": 14350,
            "contract": "contracts/donationMiner/DonationMinerImplementation.sol:DonationMinerImplementation",
            "label": "againstPeriods",
            "offset": 0,
            "slot": "6",
            "type": "t_uint256"
          },
          {
            "astId": 14352,
            "contract": "contracts/donationMiner/DonationMinerImplementation.sol:DonationMinerImplementation",
            "label": "stakesAmount",
            "offset": 0,
            "slot": "7",
            "type": "t_uint256"
          },
          {
            "astId": 14354,
            "contract": "contracts/donationMiner/DonationMinerImplementation.sol:DonationMinerImplementation",
            "label": "stakingDonationRatio",
            "offset": 0,
            "slot": "8",
            "type": "t_uint256"
          },
          {
            "astId": 14358,
            "contract": "contracts/donationMiner/DonationMinerImplementation.sol:DonationMinerImplementation",
            "label": "hasSetStakeAmount",
            "offset": 0,
            "slot": "9",
            "type": "t_mapping(t_address,t_bool)"
          },
          {
            "astId": 14362,
            "contract": "contracts/donationMiner/DonationMinerImplementation.sol:DonationMinerImplementation",
            "label": "donorStakeAmounts",
            "offset": 0,
            "slot": "10",
            "type": "t_mapping(t_address,t_uint256)"
          }
        ],
        "numberOfBytes": "352"
      },
      "t_uint256": {
        "encoding": "inplace",
        "label": "uint256",
        "numberOfBytes": "32"
      }
    }
  }
}