{
  "address": "0x696BBD1Cb8c49510651521a571e6b57B876727a0",
  "abi": [
    {
      "anonymous": false,
      "inputs": [
        {
          "indexed": false,
          "internalType": "uint256",
          "name": "oldAgainstPeriods",
          "type": "uint256"
        },
        {
          "indexed": false,
          "internalType": "uint256",
          "name": "newAgainstPeriods",
          "type": "uint256"
        }
      ],
      "name": "AgainstPeriodsUpdated",
      "type": "event"
    },
    {
      "anonymous": false,
      "inputs": [
        {
          "indexed": false,
          "internalType": "uint256",
          "name": "oldClaimDelay",
          "type": "uint256"
        },
        {
          "indexed": false,
          "internalType": "uint256",
          "name": "newClaimDelay",
          "type": "uint256"
        }
      ],
      "name": "ClaimDelayUpdated",
      "type": "event"
    },
    {
      "anonymous": false,
      "inputs": [
        {
          "indexed": false,
          "internalType": "uint256",
          "name": "oldCommunityDonationRatio",
          "type": "uint256"
        },
        {
          "indexed": false,
          "internalType": "uint256",
          "name": "newCommunityDonationRatio",
          "type": "uint256"
        }
      ],
      "name": "CommunityDonationRatioUpdated",
      "type": "event"
    },
    {
      "anonymous": false,
      "inputs": [
        {
          "indexed": true,
          "internalType": "uint256",
          "name": "donationId",
          "type": "uint256"
        },
        {
          "indexed": true,
          "internalType": "address",
          "name": "delegateAddress",
          "type": "address"
        },
        {
          "indexed": false,
          "internalType": "uint256",
          "name": "amount",
          "type": "uint256"
        },
        {
          "indexed": false,
          "internalType": "address",
          "name": "token",
          "type": "address"
        },
        {
          "indexed": false,
          "internalType": "uint256",
          "name": "initialAmount",
          "type": "uint256"
        },
        {
          "indexed": true,
          "internalType": "address",
          "name": "target",
          "type": "address"
        }
      ],
      "name": "DonationAdded",
      "type": "event"
    },
    {
      "anonymous": false,
      "inputs": [
        {
          "indexed": true,
          "internalType": "address",
          "name": "previousOwner",
          "type": "address"
        },
        {
          "indexed": true,
          "internalType": "address",
          "name": "newOwner",
          "type": "address"
        }
      ],
      "name": "OwnershipTransferred",
      "type": "event"
    },
    {
      "anonymous": false,
      "inputs": [
        {
          "indexed": false,
          "internalType": "address",
          "name": "account",
          "type": "address"
        }
      ],
      "name": "Paused",
      "type": "event"
    },
    {
      "anonymous": false,
      "inputs": [
        {
          "indexed": true,
          "internalType": "address",
          "name": "donor",
          "type": "address"
        },
        {
          "indexed": false,
          "internalType": "uint256",
          "name": "amount",
          "type": "uint256"
        }
      ],
      "name": "RewardClaimed",
      "type": "event"
    },
    {
      "anonymous": false,
      "inputs": [
        {
          "indexed": true,
          "internalType": "address",
          "name": "donor",
          "type": "address"
        },
        {
          "indexed": false,
          "internalType": "uint256",
          "name": "amount",
          "type": "uint256"
        },
        {
          "indexed": false,
          "internalType": "uint256",
          "name": "lastRewardPeriod",
          "type": "uint256"
        }
      ],
      "name": "RewardClaimedPartial",
      "type": "event"
    },
    {
      "anonymous": false,
      "inputs": [
        {
          "indexed": false,
          "internalType": "uint256",
          "name": "oldRewardPeriodSize",
          "type": "uint256"
        },
        {
          "indexed": false,
          "internalType": "uint256",
          "name": "oldDecayNumerator",
          "type": "uint256"
        },
        {
          "indexed": false,
          "internalType": "uint256",
          "name": "oldDecayDenominator",
          "type": "uint256"
        },
        {
          "indexed": false,
          "internalType": "uint256",
          "name": "newRewardPeriodSize",
          "type": "uint256"
        },
        {
          "indexed": false,
          "internalType": "uint256",
          "name": "newDecayNumerator",
          "type": "uint256"
        },
        {
          "indexed": false,
          "internalType": "uint256",
          "name": "newDecayDenominator",
          "type": "uint256"
        }
      ],
      "name": "RewardPeriodParamsUpdated",
      "type": "event"
    },
    {
      "anonymous": false,
      "inputs": [
        {
          "indexed": true,
          "internalType": "address",
          "name": "donor",
          "type": "address"
        },
        {
          "indexed": false,
          "internalType": "uint256",
          "name": "amount",
          "type": "uint256"
        }
      ],
      "name": "RewardStaked",
      "type": "event"
    },
    {
      "anonymous": false,
      "inputs": [
        {
          "indexed": true,
          "internalType": "address",
          "name": "donor",
          "type": "address"
        },
        {
          "indexed": false,
          "internalType": "uint256",
          "name": "amount",
          "type": "uint256"
        },
        {
          "indexed": false,
          "internalType": "uint256",
          "name": "lastRewardPeriod",
          "type": "uint256"
        }
      ],
      "name": "RewardStakedPartial",
      "type": "event"
    },
    {
      "anonymous": false,
      "inputs": [
        {
          "indexed": false,
          "internalType": "uint256",
          "name": "oldStakingDonationRatio",
          "type": "uint256"
        },
        {
          "indexed": false,
          "internalType": "uint256",
          "name": "newStakingDonationRatio",
          "type": "uint256"
        }
      ],
      "name": "StakingDonationRatioUpdated",
      "type": "event"
    },
    {
      "anonymous": false,
      "inputs": [
        {
          "indexed": true,
          "internalType": "address",
          "name": "oldStaking",
          "type": "address"
        },
        {
          "indexed": true,
          "internalType": "address",
          "name": "newStaking",
          "type": "address"
        }
      ],
      "name": "StakingUpdated",
      "type": "event"
    },
    {
      "anonymous": false,
      "inputs": [
        {
          "indexed": true,
          "internalType": "address",
          "name": "token",
          "type": "address"
        },
        {
          "indexed": true,
          "internalType": "address",
          "name": "to",
          "type": "address"
        },
        {
          "indexed": false,
          "internalType": "uint256",
          "name": "amount",
          "type": "uint256"
        }
      ],
      "name": "TransferERC20",
      "type": "event"
    },
    {
      "anonymous": false,
      "inputs": [
        {
          "indexed": true,
          "internalType": "address",
          "name": "oldTreasury",
          "type": "address"
        },
        {
          "indexed": true,
          "internalType": "address",
          "name": "newTreasury",
          "type": "address"
        }
      ],
      "name": "TreasuryUpdated",
      "type": "event"
    },
    {
      "anonymous": false,
      "inputs": [
        {
          "indexed": false,
          "internalType": "address",
          "name": "account",
          "type": "address"
        }
      ],
      "name": "Unpaused",
      "type": "event"
    },
    {
      "inputs": [],
      "name": "PACT",
      "outputs": [
        {
          "internalType": "contract IERC20Upgradeable",
          "name": "",
          "type": "address"
        }
      ],
      "stateMutability": "view",
      "type": "function"
    },
    {
      "inputs": [],
      "name": "againstPeriods",
      "outputs": [
        {
          "internalType": "uint256",
          "name": "",
          "type": "uint256"
        }
      ],
      "stateMutability": "view",
      "type": "function"
    },
    {
      "inputs": [],
      "name": "airdropV3",
      "outputs": [
        {
          "internalType": "contract IAirdropV3",
          "name": "",
          "type": "address"
        }
      ],
      "stateMutability": "view",
      "type": "function"
    },
    {
      "inputs": [
        {
          "internalType": "address",
          "name": "_stakeholderAddress",
          "type": "address"
        }
      ],
      "name": "apr",
      "outputs": [
        {
          "internalType": "uint256",
          "name": "",
          "type": "uint256"
        }
      ],
      "stateMutability": "view",
      "type": "function"
    },
    {
      "inputs": [],
      "name": "cUSD",
      "outputs": [
        {
          "internalType": "contract IERC20Upgradeable",
          "name": "",
          "type": "address"
        }
      ],
      "stateMutability": "view",
      "type": "function"
    },
    {
      "inputs": [
        {
          "internalType": "address",
          "name": "_donorAddress",
          "type": "address"
        }
      ],
      "name": "calculateClaimableRewards",
      "outputs": [
        {
          "internalType": "uint256",
          "name": "",
          "type": "uint256"
        }
      ],
      "stateMutability": "view",
      "type": "function"
    },
    {
      "inputs": [
        {
          "internalType": "address",
          "name": "_donorAddress",
          "type": "address"
        },
        {
          "internalType": "uint256",
          "name": "_lastPeriodNumber",
          "type": "uint256"
        }
      ],
      "name": "calculateClaimableRewardsByPeriodNumber",
      "outputs": [
        {
          "internalType": "uint256",
          "name": "",
          "type": "uint256"
        }
      ],
      "stateMutability": "view",
      "type": "function"
    },
    {
      "inputs": [],
      "name": "claimDelay",
      "outputs": [
        {
          "internalType": "uint256",
          "name": "",
          "type": "uint256"
        }
      ],
      "stateMutability": "view",
      "type": "function"
    },
    {
      "inputs": [],
      "name": "claimRewards",
      "outputs": [],
      "stateMutability": "nonpayable",
      "type": "function"
    },
    {
      "inputs": [
        {
          "internalType": "uint256",
          "name": "_lastPeriodNumber",
          "type": "uint256"
        }
      ],
      "name": "claimRewardsPartial",
      "outputs": [],
      "stateMutability": "nonpayable",
      "type": "function"
    },
    {
      "inputs": [],
      "name": "communityDonationRatio",
      "outputs": [
        {
          "internalType": "uint256",
          "name": "",
          "type": "uint256"
        }
      ],
      "stateMutability": "view",
      "type": "function"
    },
    {
      "inputs": [],
      "name": "currentRewardPeriodNumber",
      "outputs": [
        {
          "internalType": "uint256",
          "name": "",
          "type": "uint256"
        }
      ],
      "stateMutability": "view",
      "type": "function"
    },
    {
      "inputs": [],
      "name": "decayDenominator",
      "outputs": [
        {
          "internalType": "uint256",
          "name": "",
          "type": "uint256"
        }
      ],
      "stateMutability": "view",
      "type": "function"
    },
    {
      "inputs": [],
      "name": "decayNumerator",
      "outputs": [
        {
          "internalType": "uint256",
          "name": "",
          "type": "uint256"
        }
      ],
      "stateMutability": "view",
      "type": "function"
    },
    {
      "inputs": [
        {
          "internalType": "contract IERC20Upgradeable",
          "name": "_token",
          "type": "address"
        },
        {
          "internalType": "uint256",
          "name": "_amount",
          "type": "uint256"
        },
        {
          "internalType": "address",
          "name": "_delegateAddress",
          "type": "address"
        }
      ],
      "name": "donate",
      "outputs": [],
      "stateMutability": "nonpayable",
      "type": "function"
    },
    {
      "inputs": [
        {
          "internalType": "address",
          "name": "_from",
          "type": "address"
        },
        {
          "internalType": "contract IERC20Upgradeable",
          "name": "_token",
          "type": "address"
        },
        {
          "internalType": "uint256",
          "name": "_amount",
          "type": "uint256"
        },
        {
          "internalType": "address",
          "name": "_delegateAddress",
          "type": "address"
        }
      ],
      "name": "donateFrom",
      "outputs": [],
      "stateMutability": "nonpayable",
      "type": "function"
    },
    {
      "inputs": [
        {
          "internalType": "contract ICommunity",
          "name": "_community",
          "type": "address"
        },
        {
          "internalType": "contract IERC20Upgradeable",
          "name": "_token",
          "type": "address"
        },
        {
          "internalType": "uint256",
          "name": "_amount",
          "type": "uint256"
        },
        {
          "internalType": "address",
          "name": "_delegateAddress",
          "type": "address"
        }
      ],
      "name": "donateToCommunity",
      "outputs": [],
      "stateMutability": "nonpayable",
      "type": "function"
    },
    {
      "inputs": [
        {
          "internalType": "uint256",
          "name": "_amount",
          "type": "uint256"
        },
        {
          "internalType": "address",
          "name": "_delegateAddress",
          "type": "address"
        }
      ],
      "name": "donateVirtual",
      "outputs": [],
      "stateMutability": "nonpayable",
      "type": "function"
    },
    {
      "inputs": [],
      "name": "donationCount",
      "outputs": [
        {
          "internalType": "uint256",
          "name": "",
          "type": "uint256"
        }
      ],
      "stateMutability": "view",
      "type": "function"
    },
    {
      "inputs": [
        {
          "internalType": "uint256",
          "name": "",
          "type": "uint256"
        }
      ],
      "name": "donations",
      "outputs": [
        {
          "internalType": "address",
          "name": "donor",
          "type": "address"
        },
        {
          "internalType": "address",
          "name": "target",
          "type": "address"
        },
        {
          "internalType": "uint256",
          "name": "rewardPeriod",
          "type": "uint256"
        },
        {
          "internalType": "uint256",
          "name": "blockNumber",
          "type": "uint256"
        },
        {
          "internalType": "uint256",
          "name": "amount",
          "type": "uint256"
        },
        {
          "internalType": "contract IERC20Upgradeable",
          "name": "token",
          "type": "address"
        },
        {
          "internalType": "uint256",
          "name": "initialAmount",
          "type": "uint256"
        }
      ],
      "stateMutability": "view",
      "type": "function"
    },
    {
      "inputs": [
        {
          "internalType": "address",
          "name": "_donor",
          "type": "address"
        },
        {
          "internalType": "uint256",
          "name": "_rewardPeriodIndex",
          "type": "uint256"
        }
      ],
      "name": "donorRewardPeriod",
      "outputs": [
        {
          "internalType": "uint256",
          "name": "",
          "type": "uint256"
        }
      ],
      "stateMutability": "view",
      "type": "function"
    },
    {
      "inputs": [
        {
          "internalType": "address",
          "name": "_donorAddress",
          "type": "address"
        }
      ],
      "name": "donorScore",
      "outputs": [
        {
          "internalType": "uint256",
          "name": "",
          "type": "uint256"
        }
      ],
      "stateMutability": "view",
      "type": "function"
    },
    {
      "inputs": [
        {
          "internalType": "address",
          "name": "",
          "type": "address"
        }
      ],
      "name": "donors",
      "outputs": [
        {
          "internalType": "uint256",
          "name": "lastClaim",
          "type": "uint256"
        },
        {
          "internalType": "uint256",
          "name": "rewardPeriodsCount",
          "type": "uint256"
        },
        {
          "internalType": "uint256",
          "name": "lastClaimPeriod",
          "type": "uint256"
        }
      ],
      "stateMutability": "view",
      "type": "function"
    },
    {
      "inputs": [
        {
          "internalType": "address",
          "name": "_donorAddress",
          "type": "address"
        }
      ],
      "name": "estimateClaimableReward",
      "outputs": [
        {
          "internalType": "uint256",
          "name": "",
          "type": "uint256"
        }
      ],
      "stateMutability": "view",
      "type": "function"
    },
    {
      "inputs": [
        {
          "internalType": "address",
          "name": "_donorAddress",
          "type": "address"
        }
      ],
      "name": "estimateClaimableRewardAdvance",
      "outputs": [
        {
          "internalType": "uint256",
          "name": "",
          "type": "uint256"
        }
      ],
      "stateMutability": "view",
      "type": "function"
    },
    {
      "inputs": [
        {
          "internalType": "address",
          "name": "_donorAddress",
          "type": "address"
        }
      ],
      "name": "estimateClaimableRewardByStaking",
      "outputs": [
        {
          "internalType": "uint256",
          "name": "",
          "type": "uint256"
        }
      ],
      "stateMutability": "view",
      "type": "function"
    },
    {
      "inputs": [
        {
          "internalType": "uint256",
          "name": "_donationAmount",
          "type": "uint256"
        }
      ],
      "name": "estimateNewDonationClaimableRewardAdvance",
      "outputs": [
        {
          "internalType": "uint256",
          "name": "",
          "type": "uint256"
        }
      ],
      "stateMutability": "view",
      "type": "function"
    },
    {
      "inputs": [],
      "name": "generalApr",
      "outputs": [
        {
          "internalType": "uint256",
          "name": "",
          "type": "uint256"
        }
      ],
      "stateMutability": "view",
      "type": "function"
    },
    {
      "inputs": [],
      "name": "getVersion",
      "outputs": [
        {
          "internalType": "uint256",
          "name": "",
          "type": "uint256"
        }
      ],
      "stateMutability": "pure",
      "type": "function"
    },
    {
      "inputs": [
        {
          "internalType": "contract IERC20Upgradeable",
          "name": "_cUSD",
          "type": "address"
        },
        {
          "internalType": "contract IERC20Upgradeable",
          "name": "_PACT",
          "type": "address"
        },
        {
          "internalType": "contract ITreasury",
          "name": "_treasury",
          "type": "address"
        },
        {
          "internalType": "uint256",
          "name": "_firstRewardPerBlock",
          "type": "uint256"
        },
        {
          "internalType": "uint256",
          "name": "_rewardPeriodSize",
          "type": "uint256"
        },
        {
          "internalType": "uint256",
          "name": "_startingBlock",
          "type": "uint256"
        },
        {
          "internalType": "uint256",
          "name": "_decayNumerator",
          "type": "uint256"
        },
        {
          "internalType": "uint256",
          "name": "_decayDenominator",
          "type": "uint256"
        }
      ],
      "name": "initialize",
      "outputs": [],
      "stateMutability": "nonpayable",
      "type": "function"
    },
    {
      "inputs": [
        {
          "internalType": "address",
          "name": "_donorAddress",
          "type": "address"
        }
      ],
      "name": "lastPeriodsDonations",
      "outputs": [
        {
          "internalType": "uint256",
          "name": "donorAmount",
          "type": "uint256"
        },
        {
          "internalType": "uint256",
          "name": "totalAmount",
          "type": "uint256"
        }
      ],
      "stateMutability": "view",
      "type": "function"
    },
    {
      "inputs": [],
      "name": "microcredit",
      "outputs": [
        {
          "internalType": "contract IMicrocredit",
          "name": "",
          "type": "address"
        }
      ],
      "stateMutability": "view",
      "type": "function"
    },
    {
      "inputs": [],
      "name": "owner",
      "outputs": [
        {
          "internalType": "address",
          "name": "",
          "type": "address"
        }
      ],
      "stateMutability": "view",
      "type": "function"
    },
    {
      "inputs": [],
      "name": "paused",
      "outputs": [
        {
          "internalType": "bool",
          "name": "",
          "type": "bool"
        }
      ],
      "stateMutability": "view",
      "type": "function"
    },
    {
      "inputs": [],
      "name": "recurringCronAddress",
      "outputs": [
        {
          "internalType": "address",
          "name": "",
          "type": "address"
        }
      ],
      "stateMutability": "view",
      "type": "function"
    },
    {
      "inputs": [],
      "name": "renounceOwnership",
      "outputs": [],
      "stateMutability": "nonpayable",
      "type": "function"
    },
    {
      "inputs": [],
      "name": "rewardPeriodCount",
      "outputs": [
        {
          "internalType": "uint256",
          "name": "",
          "type": "uint256"
        }
      ],
      "stateMutability": "view",
      "type": "function"
    },
    {
      "inputs": [
        {
          "internalType": "uint256",
          "name": "_period",
          "type": "uint256"
        },
        {
          "internalType": "address",
          "name": "_donor",
          "type": "address"
        }
      ],
      "name": "rewardPeriodDonorAmount",
      "outputs": [
        {
          "internalType": "uint256",
          "name": "",
          "type": "uint256"
        }
      ],
      "stateMutability": "view",
      "type": "function"
    },
    {
      "inputs": [
        {
          "internalType": "uint256",
          "name": "_period",
          "type": "uint256"
        },
        {
          "internalType": "address",
          "name": "_donor",
          "type": "address"
        }
      ],
      "name": "rewardPeriodDonorStakeAmounts",
      "outputs": [
        {
          "internalType": "uint256",
          "name": "",
          "type": "uint256"
        }
      ],
      "stateMutability": "view",
      "type": "function"
    },
    {
      "inputs": [],
      "name": "rewardPeriodSize",
      "outputs": [
        {
          "internalType": "uint256",
          "name": "",
          "type": "uint256"
        }
      ],
      "stateMutability": "view",
      "type": "function"
    },
    {
      "inputs": [
        {
          "internalType": "uint256",
          "name": "",
          "type": "uint256"
        }
      ],
      "name": "rewardPeriods",
      "outputs": [
        {
          "internalType": "uint256",
          "name": "rewardPerBlock",
          "type": "uint256"
        },
        {
          "internalType": "uint256",
          "name": "rewardAmount",
          "type": "uint256"
        },
        {
          "internalType": "uint256",
          "name": "startBlock",
          "type": "uint256"
        },
        {
          "internalType": "uint256",
          "name": "endBlock",
          "type": "uint256"
        },
        {
          "internalType": "uint256",
          "name": "donationsAmount",
          "type": "uint256"
        },
        {
          "internalType": "uint256",
          "name": "againstPeriods",
          "type": "uint256"
        },
        {
          "internalType": "uint256",
          "name": "stakesAmount",
          "type": "uint256"
        },
        {
          "internalType": "uint256",
          "name": "stakingDonationRatio",
          "type": "uint256"
        }
      ],
      "stateMutability": "view",
      "type": "function"
    },
    {
      "inputs": [
        {
          "internalType": "address",
          "name": "_holderAddress",
          "type": "address"
        },
        {
          "internalType": "uint256",
          "name": "_holderAmount",
          "type": "uint256"
        },
        {
          "internalType": "uint256",
          "name": "_totalAmount",
          "type": "uint256"
        }
      ],
      "name": "setStakingAmounts",
      "outputs": [],
      "stateMutability": "nonpayable",
      "type": "function"
    },
    {
      "inputs": [],
      "name": "stakeRewards",
      "outputs": [],
      "stateMutability": "nonpayable",
      "type": "function"
    },
    {
      "inputs": [
        {
          "internalType": "uint256",
          "name": "_lastPeriodNumber",
          "type": "uint256"
        }
      ],
      "name": "stakeRewardsPartial",
      "outputs": [],
      "stateMutability": "nonpayable",
      "type": "function"
    },
    {
      "inputs": [],
      "name": "staking",
      "outputs": [
        {
          "internalType": "contract IStaking",
          "name": "",
          "type": "address"
        }
      ],
      "stateMutability": "view",
      "type": "function"
    },
    {
      "inputs": [],
      "name": "stakingDonationRatio",
      "outputs": [
        {
          "internalType": "uint256",
          "name": "",
          "type": "uint256"
        }
      ],
      "stateMutability": "view",
      "type": "function"
    },
    {
      "inputs": [
        {
          "internalType": "contract IERC20Upgradeable",
          "name": "_token",
          "type": "address"
        },
        {
          "internalType": "address",
          "name": "_to",
          "type": "address"
        },
        {
          "internalType": "uint256",
          "name": "_amount",
          "type": "uint256"
        }
      ],
      "name": "transfer",
      "outputs": [],
      "stateMutability": "nonpayable",
      "type": "function"
    },
    {
      "inputs": [
        {
          "internalType": "address",
          "name": "newOwner",
          "type": "address"
        }
      ],
      "name": "transferOwnership",
      "outputs": [],
      "stateMutability": "nonpayable",
      "type": "function"
    },
    {
      "inputs": [],
      "name": "treasury",
      "outputs": [
        {
          "internalType": "contract ITreasury",
          "name": "",
          "type": "address"
        }
      ],
      "stateMutability": "view",
      "type": "function"
    },
    {
      "inputs": [
        {
          "internalType": "uint256",
          "name": "_newAgainstPeriods",
          "type": "uint256"
        }
      ],
      "name": "updateAgainstPeriods",
      "outputs": [],
      "stateMutability": "nonpayable",
      "type": "function"
    },
    {
      "inputs": [
        {
          "internalType": "contract IAirdropV3",
          "name": "_newAirdropV3",
          "type": "address"
        }
      ],
      "name": "updateAirdropV3",
      "outputs": [],
      "stateMutability": "nonpayable",
      "type": "function"
    },
    {
      "inputs": [
        {
          "internalType": "uint256",
          "name": "_newClaimDelay",
          "type": "uint256"
        }
      ],
      "name": "updateClaimDelay",
      "outputs": [],
      "stateMutability": "nonpayable",
      "type": "function"
    },
    {
      "inputs": [
        {
          "internalType": "uint256",
          "name": "_newCommunityDonationRatio",
          "type": "uint256"
        }
      ],
      "name": "updateCommunityDonationRatio",
      "outputs": [],
      "stateMutability": "nonpayable",
      "type": "function"
    },
    {
      "inputs": [
        {
          "internalType": "contract IMicrocredit",
          "name": "_newMicrocredit",
          "type": "address"
        }
      ],
      "name": "updateMicrocredit",
      "outputs": [],
      "stateMutability": "nonpayable",
      "type": "function"
    },
    {
      "inputs": [
        {
          "internalType": "address",
          "name": "_newRecurringCronAddress",
          "type": "address"
        }
      ],
      "name": "updateRecurringCronAddress",
      "outputs": [],
      "stateMutability": "nonpayable",
      "type": "function"
    },
    {
      "inputs": [
        {
          "internalType": "uint256",
          "name": "_newRewardPeriodSize",
          "type": "uint256"
        },
        {
          "internalType": "uint256",
          "name": "_newDecayNumerator",
          "type": "uint256"
        },
        {
          "internalType": "uint256",
          "name": "_newDecayDenominator",
          "type": "uint256"
        }
      ],
      "name": "updateRewardPeriodParams",
      "outputs": [],
      "stateMutability": "nonpayable",
      "type": "function"
    },
    {
      "inputs": [
        {
          "internalType": "contract IStaking",
          "name": "_newStaking",
          "type": "address"
        }
      ],
      "name": "updateStaking",
      "outputs": [],
      "stateMutability": "nonpayable",
      "type": "function"
    },
    {
      "inputs": [
        {
          "internalType": "uint256",
          "name": "_newStakingDonationRatio",
          "type": "uint256"
        }
      ],
      "name": "updateStakingDonationRatio",
      "outputs": [],
      "stateMutability": "nonpayable",
      "type": "function"
    },
    {
      "inputs": [
        {
          "internalType": "contract ITreasury",
          "name": "_newTreasury",
          "type": "address"
        }
      ],
      "name": "updateTreasury",
      "outputs": [],
      "stateMutability": "nonpayable",
      "type": "function"
    }
  ],
  "transactionHash": "0x4038858df933bf8141c651b131dec9abbf255f77bde1dbb895d99a1f61de1bb5",
  "args": [],
  "numDeployments": 6,
  "solcInputHash": "e1582369c4f1ad16581fb893b90fec58",
  "bytecode": "0x608060405234801561001057600080fd5b506144ff806100206000396000f3fe608060405234801561001057600080fd5b50600436106103995760003560e01c806392ade299116101e9578063cf9d0b5f1161010f578063ed409ff3116100ad578063f8626af81161007c578063f8626af814610842578063fa865909146108e0578063fc115992146108f3578063fef4af861461090657600080fd5b8063ed409ff314610800578063efcf98e614610809578063f223c9731461081c578063f2fde38b1461082f57600080fd5b8063df8fa430116100e9578063df8fa430146107bf578063e247b8d8146107d2578063e48508df146107e5578063e57919d6146107f857600080fd5b8063cf9d0b5f14610791578063de709c9414610799578063de8f41ba146107ac57600080fd5b8063ad3e48c511610187578063c89d1a8e11610156578063c89d1a8e146106e7578063ca0cdea8146106fa578063cd75000c14610744578063cf4287951461075757600080fd5b8063ad3e48c5146106a5578063bc4643ee146106b8578063beabacc8146106cb578063c38474c0146106de57600080fd5b8063a4b01bf5116101c3578063a4b01bf514610677578063a70e940b1461068a578063a915da5614610693578063ac9e03881461069c57600080fd5b806392ade2991461064857806396990e6e14610651578063a345f38d1461066457600080fd5b806353d5a0cf116102ce578063747004281161026c5780638901e9851161023b5780638901e985146105fe5780638a15e40f146106115780638da5cb5b1461062457806390cc1d7d1461063557600080fd5b806374700428146105395780637f51bb1f1461054c578063821787ec1461055f5780638252097d1461057257600080fd5b806361d027b3116102a857806361d027b3146104f85780636cc40c2c1461050b5780636d0acb431461051e578063715018a61461053157600080fd5b806353d5a0cf146104bc57806359d0bfff146104cf5780635c975abb146104e257600080fd5b80632bef5eef1161033b5780633b9a0176116103155780633b9a0176146104495780633ddec5311461045c5780634cf088d91461049657806353d541c1146104a957600080fd5b80632bef5eef1461041b57806336ae5c981461042e578063372500ab1461044157600080fd5b80631569cc95116103775780631569cc95146103d65780631c8ec299146103de5780631fccf672146103e75780632abfab4d1461041257600080fd5b806307ea4e571461039e5780630d1e9b4a146103ba5780630d8e6e2c146103cf575b600080fd5b6103a760cf5481565b6040519081526020015b60405180910390f35b6103cd6103c8366004613fc5565b61092e565b005b60056103a7565b6103a7610ad1565b6103a760d45481565b60c9546103fa906001600160a01b031681565b6040516001600160a01b0390911681526020016103b1565b6103a760cd5481565b6103a7610429366004614055565b610b2b565b60da546103fa906001600160a01b031681565b6103cd610b58565b60ca546103fa906001600160a01b031681565b6103a761046a366004613e5f565b6001600160a01b0391909116600090815260d36020908152604080832093835260029093019052205490565b60d6546103fa906001600160a01b031681565b6103a76104b7366004613df1565b610c47565b6103cd6104ca366004613df1565b610d9d565b6103cd6104dd366004613efa565b610de9565b60655460ff1660405190151581526020016103b1565b60cb546103fa906001600160a01b031681565b6103cd610519366004614025565b61116a565b6103cd61052c366004614025565b6113ba565b6103cd611425565b6103cd610547366004613df1565b61145b565b6103cd61055a366004613df1565b6114a7565b6103a761056d366004613e5f565b61152d565b6105c3610580366004614025565b60d2602052600090815260409020805460018201546002830154600384015460048501546006860154600787015460089097015495969495939492939192909188565b604080519889526020890197909752958701949094526060860192909252608085015260a084015260c083015260e0820152610100016103b1565b6103cd61060c366004614025565b611652565b6103cd61061f366004613e0d565b6116c5565b6033546001600160a01b03166103fa565b60db546103fa906001600160a01b031681565b6103a760d05481565b6103a761065f366004613df1565b61187e565b6103cd610672366004613df1565b611940565b6103cd610685366004614025565b6119c6565b6103a760d55481565b6103a760d85481565b6103a760d75481565b6103cd6106b3366004613e8a565b611a39565b6103cd6106c6366004614055565b611be3565b6103cd6106d9366004613f0f565b611c80565b6103a760ce5481565b6103a76106f5366004613df1565b611d3d565b610729610708366004613df1565b60d36020526000908152604090208054600182015460039092015490919083565b604080519384526020840192909252908201526060016103b1565b6103a7610752366004613df1565b611d4a565b6103a7610765366004614055565b600082815260d2602090815260408083206001600160a01b0385168452600a0190915290205492915050565b6103cd611d72565b6103cd6107a7366004613df1565b611f34565b6103cd6107ba366004614025565b611f80565b6103cd6107cd366004613f4f565b6120f2565b6103cd6107e0366004614025565b61246f565b6103cd6107f3366004614084565b6124da565b6103a7612593565b6103a760cc5481565b60d9546103fa906001600160a01b031681565b6103a761082a366004613df1565b6126be565b6103cd61083d366004613df1565b6126d2565b61089c610850366004614025565b60d16020526000908152604090208054600182015460028301546003840154600485015460058601546006909601546001600160a01b0395861696948616959394929391929091169087565b604080516001600160a01b03988916815296881660208801528601949094526060850192909252608084015290921660a082015260c081019190915260e0016103b1565b6103a76108ee366004613df1565b61276d565b6103a7610901366004614025565b61277b565b610919610914366004613df1565b612789565b604080519283526020830191909152016103b1565b60655460ff161561095a5760405162461bcd60e51b815260040161095190614135565b60405180910390fd5b600160005260d26020526000805160206144aa833981519152544310156109935760405162461bcd60e51b8152600401610951906140fe565b600260975414156109b65760405162461bcd60e51b815260040161095190614290565b600260975560cb546040516319f3736160e01b81526001600160a01b038581166004830152909116906319f373619060240160206040518083038186803b158015610a0057600080fd5b505afa158015610a14573d6000803e3d6000fd5b505050506040513d601f19601f82011682018060405250810190610a389190613ebe565b610a905760405162461bcd60e51b8152602060048201526024808201527f446f6e6174696f6e4d696e65723a3a646f6e6174653a20496e76616c6964207460448201526337b5b2b760e11b6064820152608401610951565b60cb54610aac906001600160a01b0385811691339116856127dc565b60cb54610ac7908290859085906001600160a01b031661284d565b5050600160975550565b60ce54600090815260d26020526040812060030154438111610b215760cc54610afa8243614409565b610b0491906142df565b60ce54610b1191906142c7565b610b1c9060016142c7565b610b25565b60ce545b91505090565b600082815260d2602090815260408083206001600160a01b03851684526005019091529020545b92915050565b60655460ff1615610b7b5760405162461bcd60e51b815260040161095190614135565b600160005260d26020526000805160206144aa83398151915254431015610bb45760405162461bcd60e51b8152600401610951906140fe565b60026097541415610bd75760405162461bcd60e51b815260040161095190614290565b60026097556000610bef33610bea612aa3565b612aea565b60ca54909150610c09906001600160a01b03163383612c67565b60405181815233907f106f923f993c2149d49b4255ff723acafa1f2d94393f561d3eda32ae348f7241906020015b60405180910390a2506001609755565b6000806000610c566000612789565b915060009050610c64612c9c565b905060d660009054906101000a90046001600160a01b03166001600160a01b0316638c58d0a96040518163ffffffff1660e01b815260040160206040518083038186803b158015610cb457600080fd5b505afa158015610cc8573d6000803e3d6000fd5b505050506040513d601f19601f82011682018060405250810190610cec919061403d565b60d754610cf990846143ea565b610d0391906142c7565b60d654604051631aefa86d60e21b81526001600160a01b03888116600483015290911690636bbea1b49060240160206040518083038186803b158015610d4857600080fd5b505afa158015610d5c573d6000803e3d6000fd5b505050506040513d601f19601f82011682018060405250810190610d80919061403d565b610d8a90836143ea565b610d9491906142df565b95945050505050565b6033546001600160a01b03163314610dc75760405162461bcd60e51b81526004016109519061415f565b60db80546001600160a01b0319166001600160a01b0392909216919091179055565b60655460ff1615610e0c5760405162461bcd60e51b815260040161095190614135565b600160005260d26020526000805160206144aa83398151915254431015610e455760405162461bcd60e51b8152600401610951906140fe565b60026097541415610e685760405162461bcd60e51b815260040161095190614290565b600260975560cb5460408051632fd648bd60e11b815290516000926001600160a01b031691635fac917a916004808301926020929190829003018186803b158015610eb257600080fd5b505afa158015610ec6573d6000803e3d6000fd5b505050506040513d601f19601f82011682018060405250810190610eea9190613ede565b90506001604051633f9409e960e11b81526001600160a01b038781166004830152831690637f2813d29060240160206040518083038186803b158015610f2f57600080fd5b505afa158015610f43573d6000803e3d6000fd5b505050506040513d601f19601f82011682018060405250810190610f679190614006565b6003811115610f8657634e487b7160e01b600052602160045260246000fd5b146110095760405162461bcd60e51b815260206004820152604760248201527f446f6e6174696f6e4d696e65723a3a646f6e617465546f436f6d6d756e69747960448201527f3a2054686973206973206e6f7420612076616c696420636f6d6d756e697479206064820152666164647265737360c81b608482015260a401610951565b846001600160a01b0316631fccf6726040518163ffffffff1660e01b815260040160206040518083038186803b15801561104257600080fd5b505afa158015611056573d6000803e3d6000fd5b505050506040513d601f19601f8201168201806040525081019061107a9190613ede565b6001600160a01b0316846001600160a01b0316146110f25760405162461bcd60e51b815260206004820152602f60248201527f446f6e6174696f6e4d696e65723a3a646f6e617465546f436f6d6d756e69747960448201526e1d1024b73b30b634b2103a37b5b2b760891b6064820152608401610951565b60405163e69d849d60e01b8152336004820152602481018490526001600160a01b0386169063e69d849d90604401600060405180830381600087803b15801561113a57600080fd5b505af115801561114e573d6000803e3d6000fd5b5050505061115e8285858861284d565b50506001609755505050565b60655460ff161561118d5760405162461bcd60e51b815260040161095190614135565b600160005260d26020526000805160206144aa833981519152544310156111c65760405162461bcd60e51b8152600401610951906140fe565b600260975414156111e95760405162461bcd60e51b815260040161095190614290565b60026097556111f6612d1d565b60ce5481106112805760405162461bcd60e51b815260206004820152604a60248201527f446f6e6174696f6e4d696e65723a3a7374616b6552657761726473506172746960448201527f616c3a20546869732072657761726420706572696f642069736e277420636c616064820152691a5b58589b19481e595d60b21b608482015260a401610951565b600061128c3383612aea565b60ca5460d65460405163095ea7b360e01b81526001600160a01b03918216600482015260248101849052929350169063095ea7b390604401602060405180830381600087803b1580156112de57600080fd5b505af11580156112f2573d6000803e3d6000fd5b505050506040513d601f19601f820116820180604052508101906113169190613ebe565b5060d6546040516356e4bb9760e11b8152336004820152602481018390526001600160a01b039091169063adc9772e90604401600060405180830381600087803b15801561136357600080fd5b505af1158015611377573d6000803e3d6000fd5b50506040518381523392507f7d3a0ab251dfd8c04c691239edd99d2c124cce6971cebc4c2ed96a378d13d50091506020015b60405180910390a250506001609755565b6033546001600160a01b031633146113e45760405162461bcd60e51b81526004016109519061415f565b60d85460408051918252602082018390527f300b3540c99261403e527f171e281f3dfb0705395e1902af7e9badcddce56e5e910160405180910390a160d855565b6033546001600160a01b0316331461144f5760405162461bcd60e51b81526004016109519061415f565b6114596000612e5e565b565b6033546001600160a01b031633146114855760405162461bcd60e51b81526004016109519061415f565b60da80546001600160a01b0319166001600160a01b0392909216919091179055565b6033546001600160a01b031633146114d15760405162461bcd60e51b81526004016109519061415f565b60cb546040516001600160a01b038084169216907f4ab5be82436d353e61ca18726e984e561f5c1cc7c6d38b29d2553c790434705a90600090a360cb80546001600160a01b0319166001600160a01b0392909216919091179055565b60ce54600090815260d26020526040812060030154819043111561158e5760cc5460ce54600090815260d2602052604090206003015461156d9043614409565b61157791906142df565b905060ce548161158791906142c7565b90506115a0565b600160ce5461159d9190614409565b90505b8083111561163c5760405162461bcd60e51b815260206004820152605e60248201527f446f6e6174696f6e4d696e65723a3a63616c63756c617465436c61696d61626c60448201527f65526577617264734279506572696f644e756d6265723a20546869732072657760648201527f61726420706572696f642069736e277420617661696c61626c65207965740000608482015260a401610951565b60006116488585612eb0565b5095945050505050565b6033546001600160a01b0316331461167c5760405162461bcd60e51b81526004016109519061415f565b611684612d1d565b60d75460408051918252602082018390527fb7ce19da4d8265c844e0fa744e3429c62104c793f8ecb52d1b418b47eb9f8555910160405180910390a160d755565b60db546001600160a01b031633146116ef5760405162461bcd60e51b815260040161095190614194565b60655460ff16156117125760405162461bcd60e51b815260040161095190614135565b600160005260d26020526000805160206144aa8339815191525443101561174b5760405162461bcd60e51b8152600401610951906140fe565b6002609754141561176e5760405162461bcd60e51b815260040161095190614290565b600260975560cb546040516319f3736160e01b81526001600160a01b038581166004830152909116906319f373619060240160206040518083038186803b1580156117b857600080fd5b505afa1580156117cc573d6000803e3d6000fd5b505050506040513d601f19601f820116820180604052508101906117f09190613ebe565b61183c5760405162461bcd60e51b815260206004820152601c60248201527f446f6e6174696f6e4d696e65723a20496e76616c696420746f6b656e000000006044820152606401610951565b60cb54611858906001600160a01b0385811691879116856127dc565b60cb54611873908290859085906001600160a01b031661284d565b505060016097555050565b60d654604051631aefa86d60e21b81526001600160a01b0383811660048301526000928392911690636bbea1b49060240160206040518083038186803b1580156118c757600080fd5b505afa1580156118db573d6000803e3d6000fd5b505050506040513d601f19601f820116820180604052508101906118ff919061403d565b90508061190f5750600092915050565b8061191b8460006132fe565b61192f90694d501c54214bcd3000006143ea565b61193991906142df565b9392505050565b6033546001600160a01b0316331461196a5760405162461bcd60e51b81526004016109519061415f565b60d6546040516001600160a01b038084169216907fcfa056eb826b2a28817aa38ccb94f12ba8a1309598f7ea19bef6fd67fe04b61e90600090a360d680546001600160a01b0319166001600160a01b0392909216919091179055565b6033546001600160a01b031633146119f05760405162461bcd60e51b81526004016109519061415f565b6119f8612d1d565b60d55460408051918252602082018390527fd6a28c11ae992e0014e83eaaa6f0023a04c0787848134e8b4e43f44b7d7d8e30910160405180910390a160d555565b60655460ff1615611a5c5760405162461bcd60e51b815260040161095190614135565b600160005260d26020526000805160206144aa83398151915254431015611a955760405162461bcd60e51b8152600401610951906140fe565b60d6546001600160a01b03163314611aef5760405162461bcd60e51b815260206004820152601a60248201527f446f6e6174696f6e4d696e65723a204e4f545f5354414b494e470000000000006044820152606401610951565b611af7612d1d565b60ce54600090815260d2602090815260408083206001600160a01b0387168452600981018352818420805460ff19166001179055600a810183528184208690556007810185905560d39092529091206003810154158015611b5a57506001810154155b15611b7457600160ce54611b6e9190614409565b60038201555b60cb60009054906101000a90046001600160a01b03166001600160a01b0316635093141f6040518163ffffffff1660e01b8152600401600060405180830381600087803b158015611bc457600080fd5b505af1158015611bd8573d6000803e3d6000fd5b505050505050505050565b60655460ff1615611c065760405162461bcd60e51b815260040161095190614135565b60d9546001600160a01b0316331415611c395760cb54611c3590829060a39085906001600160a01b031661284d565b5050565b60da546001600160a01b0316331415611c685760cb54611c3590829060c19085906001600160a01b031661284d565b60405162461bcd60e51b815260040161095190614194565b6033546001600160a01b03163314611caa5760405162461bcd60e51b81526004016109519061415f565b60026097541415611ccd5760405162461bcd60e51b815260040161095190614290565b6002609755611ce66001600160a01b0384168383612c67565b816001600160a01b0316836001600160a01b03167f9b035625e569d1d2bf54830a290aefba7ab11610ba8490871dc62b86b63a895683604051611d2b91815260200190565b60405180910390a35050600160975550565b6000610b528260006132fe565b600080611d6a836001611d5b610ad1565b611d659190614409565b612eb0565b509392505050565b60655460ff1615611d955760405162461bcd60e51b815260040161095190614135565b600160005260d26020526000805160206144aa83398151915254431015611dce5760405162461bcd60e51b8152600401610951906140fe565b60026097541415611df15760405162461bcd60e51b815260040161095190614290565b6002609755611dfe612d1d565b6000611e1333600160ce54610bea9190614409565b60ca5460d65460405163095ea7b360e01b81526001600160a01b03918216600482015260248101849052929350169063095ea7b390604401602060405180830381600087803b158015611e6557600080fd5b505af1158015611e79573d6000803e3d6000fd5b505050506040513d601f19601f82011682018060405250810190611e9d9190613ebe565b5060d6546040516356e4bb9760e11b8152336004820152602481018390526001600160a01b039091169063adc9772e90604401600060405180830381600087803b158015611eea57600080fd5b505af1158015611efe573d6000803e3d6000fd5b50506040518381523392507f7d3a0ab251dfd8c04c691239edd99d2c124cce6971cebc4c2ed96a378d13d5009150602001610c37565b6033546001600160a01b03163314611f5e5760405162461bcd60e51b81526004016109519061415f565b60d980546001600160a01b0319166001600160a01b0392909216919091179055565b60655460ff1615611fa35760405162461bcd60e51b815260040161095190614135565b600160005260d26020526000805160206144aa83398151915254431015611fdc5760405162461bcd60e51b8152600401610951906140fe565b60026097541415611fff5760405162461bcd60e51b815260040161095190614290565b600260975561200c612aa3565b8111156120945760405162461bcd60e51b815260206004820152604a60248201527f446f6e6174696f6e4d696e65723a3a636c61696d52657761726473506172746960448201527f616c3a20546869732072657761726420706572696f642069736e277420636c616064820152691a5b58589b19481e595d60b21b608482015260a401610951565b60006120a03383612aea565b60ca549091506120ba906001600160a01b03163383612c67565b604080518281526020810184905233917f2233b4bbf378b3d984acd0e36cea96f66bc81012a683e81929ed96df5287ba3d91016113a9565b600054610100900460ff1661210d5760005460ff1615612111565b303b155b6121745760405162461bcd60e51b815260206004820152602e60248201527f496e697469616c697a61626c653a20636f6e747261637420697320616c72656160448201526d191e481a5b9a5d1a585b1a5e995960921b6064820152608401610951565b600054610100900460ff16158015612196576000805461ffff19166101011790555b6001600160a01b0389166122045760405162461bcd60e51b815260206004820152602f60248201527f446f6e6174696f6e4d696e65723a3a696e697469616c697a653a20635553442060448201526e1859191c995cdcc81b9bdd081cd95d608a1b6064820152608401610951565b6001600160a01b0388166122725760405162461bcd60e51b815260206004820152602f60248201527f446f6e6174696f6e4d696e65723a3a696e697469616c697a653a20504143542060448201526e1859191c995cdcc81b9bdd081cd95d608a1b6064820152608401610951565b6001600160a01b0387166122dd5760405162461bcd60e51b815260206004820152602c60248201527f446f6e6174696f6e4d696e65723a3a696e697469616c697a653a20747265617360448201526b1d5c9e57c81b9bdd081cd95d60a21b6064820152608401610951565b856123505760405162461bcd60e51b815260206004820152603760248201527f446f6e6174696f6e4d696e65723a3a696e697469616c697a653a20666972737460448201527f526577617264506572426c6f636b206e6f7420736574210000000000000000006064820152608401610951565b836123c35760405162461bcd60e51b815260206004820152603860248201527f446f6e6174696f6e4d696e65723a3a696e697469616c697a653a20737461727460448201527f696e67526577617264506572696f64206e6f74207365742100000000000000006064820152608401610951565b846123e05760405162461bcd60e51b8152600401610951906141e8565b6123e8613398565b6123f06133cf565b6123f8613406565b60c980546001600160a01b03808c166001600160a01b03199283161790925560ca80548b841690831617905560cb8054928a169290911691909117905560cc85905560cf83905560d0829055600160ce556124538487613435565b8015611bd8576000805461ff0019169055505050505050505050565b6033546001600160a01b031633146124995760405162461bcd60e51b81526004016109519061415f565b60d45460408051918252602082018390527f7625e5482008771a414881eb4c957803f2ab46e99e6da60df6e1310f0f009fec910160405180910390a160d455565b6033546001600160a01b031633146125045760405162461bcd60e51b81526004016109519061415f565b826125215760405162461bcd60e51b8152600401610951906141e8565b612529612d1d565b60cc5460cf5460d05460408051938452602084019290925282820152606082018590526080820184905260a08201839052517f8fb29c6ced5ce51696c08668df816fab7e60c674a6c36e167d5df9b8a5f499849181900360c00190a160cc9290925560cf5560d055565b60008060006125a26000612789565b9150600090506125b0612c9c565b90508060005b61016c8110156125fa5760d05460cf546125d090856143ea565b6125da91906142df565b92506125e683836142c7565b9150806125f281614463565b9150506125b6565b60d660009054906101000a90046001600160a01b03166001600160a01b0316638c58d0a96040518163ffffffff1660e01b815260040160206040518083038186803b15801561264857600080fd5b505afa15801561265c573d6000803e3d6000fd5b505050506040513d601f19601f82011682018060405250810190612680919061403d565b60d75461268d90866143ea565b61269791906142c7565b6126aa8368056bc75e2d631000006143ea565b6126b491906142df565b9550505050505090565b6000610b5282670de0b6b3a76400006134ac565b6033546001600160a01b031633146126fc5760405162461bcd60e51b81526004016109519061415f565b6001600160a01b0381166127615760405162461bcd60e51b815260206004820152602660248201527f4f776e61626c653a206e6577206f776e657220697320746865207a65726f206160448201526564647265737360d01b6064820152608401610951565b61276a81612e5e565b50565b6000610b528260d5546132fe565b6000610b528260d554613730565b6000806000612796610ad1565b9050600060d55482116127aa5760016127b7565b60d5546127b79083614409565b90508060ce54106127d5576127cf858260ce54613750565b90945092505b5050915091565b6040516001600160a01b03808516602483015283166044820152606481018290526128479085906323b872dd60e01b906084015b60408051601f198184030181529190526020810180516001600160e01b03166001600160e01b0319909316929092179091526137c5565b50505050565b612855612d1d565b60cd805490600061286583614463565b909155505060cd54600090815260d16020526040902080546001600160a01b038087166001600160a01b031992831617835560018301805485831690841617905543600384015560ce5460028401556005830180548783169316831790556006830185905560c9541614806128e357506001600160a01b03841660a3145b806128f757506001600160a01b03841660c1145b156129085760048101839055612994565b60cb5460405163f2b8995160e01b81526001600160a01b038681166004830152602482018690529091169063f2b8995190604401602060405180830381600087803b15801561295657600080fd5b505af115801561296a573d6000803e3d6000fd5b505050506040513d601f19601f8201168201806040525081019061298e919061403d565b60048201555b60cb546001600160a01b038381169116146129c15760d85481600401546129bb91906142df565b60048201555b6129d260ce54868360040154613897565b6129db856138f4565b60cb60009054906101000a90046001600160a01b03166001600160a01b0316635093141f6040518163ffffffff1660e01b8152600401600060405180830381600087803b158015612a2b57600080fd5b505af1158015612a3f573d6000803e3d6000fd5b505060cd546004840154604080519182526001600160a01b0389811660208401529082018890528087169450891692507f3d2fa2b84d5f2000d605401d563ba60e2e44f62701fdbe9f9101c59b3c215f299060600160405180910390a45050505050565b6000612aad612d1d565b60d454612abb9060016142c7565b60ce5411612ac95750600090565b60d454600160ce54612adb9190614409565b612ae59190614409565b905090565b6001600160a01b038216600090815260d3602052604081208180612b0e8686612eb0565b60038501549193509150851115612b2757600383018590555b600085815260d2602090815260408083206001600160a01b038a168452600a01909152902081905581612b5e57509150610b529050565b60ca546040516370a0823160e01b81523060048201526001600160a01b03909116906370a082319060240160206040518083038186803b158015612ba157600080fd5b505afa158015612bb5573d6000803e3d6000fd5b505050506040513d601f19601f82011682018060405250810190612bd9919061403d565b821115612c5e5760ca546040516370a0823160e01b81523060048201526001600160a01b03909116906370a082319060240160206040518083038186803b158015612c2357600080fd5b505afa158015612c37573d6000803e3d6000fd5b505050506040513d601f19601f82011682018060405250810190612c5b919061403d565b91505b50949350505050565b6040516001600160a01b038316602482015260448101829052612c9790849063a9059cbb60e01b90606401612810565b505050565b600080612ca7610ad1565b9050600060ce5482612cb99190614409565b60d054612cc69190614342565b60ce54612cd39084614409565b60cf54612ce09190614342565b60ce54600090815260d26020526040902054612cfc91906143ea565b612d0691906142df565b905060cc5481612d1691906143ea565b9250505090565b60ce54600090815260d2602052604090205b438160030154101561276a5760ce8054906000612d4b83614463565b909155505060ce54600090815260d26020526040902060d55460068201556003820154612d799060016142c7565b6002820181905560cc54600191612d9091906142c7565b612d9a9190614409565b600382015560d05460cf548354612db191906143ea565b612dbb91906142df565b8082556007808401549083015560d754600883015560cc54600091612ddf916143ea565b905060008360060154600160ce54612df79190614409565b11612e03576001612e21565b8360060154600160ce54612e179190614409565b612e219190614409565b9050612e3b81600160ce54612e369190614409565b61398d565b612e51576001840154612e4e90836142c7565b91505b5060018201559050612d2f565b603380546001600160a01b038381166001600160a01b0319831681179093556040519116919082907f8be0079c531659141344cd1fd0a4f28419497f9722a3daafe3b4186f6b6457e090600090a35050565b6001600160a01b038216600090815260d3602052604081206003810154829190158015612edf57506001810154155b15612ef15760008092509250506132f7565b600081600301546001612f0491906142c7565b90508060011415612f305781546000908152600283016020526040902054612f2d9060016142c7565b90505b60d26020819052600082815260408120818052909182918291829182917f20791b593a776a2631a28f4a3f62a14ad18db22add38130c4f4a8fdfa46398859190829084612f7e60018c614409565b8152602001908152602001600020600a0160008f6001600160a01b03166001600160a01b03168152602001908152602001600020549a505b8c89116132ec57600282015415613147576006820154612ffa576001600160a01b038e16600090815260058301602052604090205460048301549098509650613119565b8160060154836006015414156130d757600682015461301a9060016142c7565b8911156130995760d26000836006015460018c6130379190614409565b6130419190614409565b815260200190815260200160002090508060050160008f6001600160a01b03166001600160a01b0316815260200190815260200160002054886130849190614409565b97508060040154876130969190614409565b96505b6001600160a01b038e1660009081526005830160205260409020546130be90896142c7565b97508160040154876130d091906142c7565b9650613119565b8160060154891115613107576130fd8e83600601548b6130f79190614409565b8b613750565b9098509650613119565b6131138e60008b613750565b90985096505b8160010154955081600701549450600082600801541161313a576001613140565b81600801545b9350613229565b60d5546131559060016142c7565b8911156131d25760d2600060d55460018c6131709190614409565b61317a9190614409565b815260200190815260200160002090508060050160008f6001600160a01b03166001600160a01b0316815260200190815260200160002054886131bd9190614409565b97508060040154876131cf9190614409565b96505b6001600160a01b038e1660009081526005830160205260409020546131f790896142c7565b975081600401548761320991906142c7565b965060d05460cf548761321c91906143ea565b61322691906142df565b95505b6001600160a01b038e16600090815260098301602052604090205460ff161561326a576001600160a01b038e166000908152600a830160205260409020549a505b60006132768c8a6142c7565b11156132c7578461328785896143ea565b61329191906142c7565b8b61329c868b6143ea565b6132a691906142c7565b6132b090886143ea565b6132ba91906142df565b6132c4908d6142c7565b9b505b886132d181614463565b600081815260d260205260409020909a50929350612fb69050565b505050505050505050505b9250929050565b6001600160a01b038216600090815260d3602090815260408083206001810154845260028101909252822054613332610ad1565b61333c9190614409565b83111561337c5760018101546000908152600282016020526040902054613361610ad1565b61336b9190614409565b6133759084614409565b9250613381565b600092505b600061338c846139e3565b9050610d9485826134ac565b600054610100900460ff166133bf5760405162461bcd60e51b815260040161095190614245565b6133c7613a32565b611459613a59565b600054610100900460ff166133f65760405162461bcd60e51b815260040161095190614245565b6133fe613a32565b611459613a89565b600054610100900460ff1661342d5760405162461bcd60e51b815260040161095190614245565b611459613abc565b6001600081905260d26020526000805160206144aa83398151915283905560cc547fb7404ce2b5a52e61a6b5c9b4585ed65d8cb4b8848d3ee262a356d0c2c46c5f35919061348390856142c7565b61348d9190614409565b600382015581815560cc546134a290836143ea565b6001909101555050565b60008060006134ba85612789565b60d654604080516319e815f960e01b815290519395509193506000926001600160a01b03909116916319e815f9916004808301926020929190829003018186803b15801561350757600080fd5b505afa15801561351b573d6000803e3d6000fd5b505050506040513d601f19601f8201168201806040525081019061353f9190613ede565b6001600160a01b03166318160ddd6040518163ffffffff1660e01b815260040160206040518083038186803b15801561357757600080fd5b505afa15801561358b573d6000803e3d6000fd5b505050506040513d601f19601f820116820180604052508101906135af919061403d565b9050801580156135bd575081155b156135ce5760009350505050610b52565b60008060d754116135e05760016135e4565b60d7545b905060d660009054906101000a90046001600160a01b03166001600160a01b0316638c58d0a96040518163ffffffff1660e01b815260040160206040518083038186803b15801561363457600080fd5b505afa158015613648573d6000803e3d6000fd5b505050506040513d601f19601f8201168201806040525081019061366c919061403d565b61367682856143ea565b61368091906142c7565b60d654604051631aefa86d60e21b81526001600160a01b038a8116600483015290911690636bbea1b49060240160206040518083038186803b1580156136c557600080fd5b505afa1580156136d9573d6000803e3d6000fd5b505050506040513d601f19601f820116820180604052508101906136fd919061403d565b61370783876143ea565b61371191906142c7565b61371b90886143ea565b61372591906142df565b979650505050505050565b60008061373c836139e3565b90506137488482613aea565b949350505050565b6000808080855b8581116137b857600081815260d2602090815260408083206001600160a01b038c168452600581019092529091205461379090856142c7565b93508060040154836137a291906142c7565b92505080806137b090614463565b915050613757565b5090969095509350505050565b600061381a826040518060400160405280602081526020017f5361666545524332303a206c6f772d6c6576656c2063616c6c206661696c6564815250856001600160a01b0316613cf69092919063ffffffff16565b805190915015612c9757808060200190518101906138389190613ebe565b612c975760405162461bcd60e51b815260206004820152602a60248201527f5361666545524332303a204552433230206f7065726174696f6e20646964206e6044820152691bdd081cdd58d8d9595960b21b6064820152608401610951565b600083815260d260205260408120600481018054919284926138ba9084906142c7565b90915550506001600160a01b0383166000908152600582016020526040812080548492906138e99084906142c7565b909155505050505050565b6001600160a01b038116600090815260d36020908152604080832060018101548452600281019092529091205460ce54811461395b5760018201805490600061393c83614463565b909155505060ce54600183015460009081526002840160205260409020555b600382015415801561396f57506001820154155b15612c9757600160ce546139839190614409565b6003830155505050565b60005b8183116139da57600083815260d26020526040812060078101546004909101546139ba91906142c7565b11156139c857506001610b52565b826139d281614463565b935050613990565b50600092915050565b6000806139ee612c9c565b9050805b83156119395760d05460cf54613a0890846143ea565b613a1291906142df565b9150613a1e82826142c7565b905083613a2a8161444c565b9450506139f2565b600054610100900460ff166114595760405162461bcd60e51b815260040161095190614245565b600054610100900460ff16613a805760405162461bcd60e51b815260040161095190614245565b61145933612e5e565b600054610100900460ff16613ab05760405162461bcd60e51b815260040161095190614245565b6065805460ff19169055565b600054610100900460ff16613ae35760405162461bcd60e51b815260040161095190614245565b6001609755565b600080613af633612789565b9150613b04905084826142c7565b9050600060d660009054906101000a90046001600160a01b03166001600160a01b03166319e815f96040518163ffffffff1660e01b815260040160206040518083038186803b158015613b5657600080fd5b505afa158015613b6a573d6000803e3d6000fd5b505050506040513d601f19601f82011682018060405250810190613b8e9190613ede565b6001600160a01b03166318160ddd6040518163ffffffff1660e01b815260040160206040518083038186803b158015613bc657600080fd5b505afa158015613bda573d6000803e3d6000fd5b505050506040513d601f19601f82011682018060405250810190613bfe919061403d565b905080158015613c0c575081155b15613c1c57600092505050610b52565b60008060d75411613c2e576001613c32565b60d7545b905060d660009054906101000a90046001600160a01b03166001600160a01b0316638c58d0a96040518163ffffffff1660e01b815260040160206040518083038186803b158015613c8257600080fd5b505afa158015613c96573d6000803e3d6000fd5b505050506040513d601f19601f82011682018060405250810190613cba919061403d565b613cc482856143ea565b613cce91906142c7565b613cd882886143ea565b613ce290876143ea565b613cec91906142df565b9695505050505050565b6060613748848460008585843b613d4f5760405162461bcd60e51b815260206004820152601d60248201527f416464726573733a2063616c6c20746f206e6f6e2d636f6e74726163740000006044820152606401610951565b600080866001600160a01b03168587604051613d6b91906140af565b60006040518083038185875af1925050503d8060008114613da8576040519150601f19603f3d011682016040523d82523d6000602084013e613dad565b606091505b509150915061372582828660608315613dc7575081611939565b825115613dd75782518084602001fd5b8160405162461bcd60e51b815260040161095191906140cb565b600060208284031215613e02578081fd5b813561193981614494565b60008060008060808587031215613e22578283fd5b8435613e2d81614494565b93506020850135613e3d81614494565b9250604085013591506060850135613e5481614494565b939692955090935050565b60008060408385031215613e71578182fd5b8235613e7c81614494565b946020939093013593505050565b600080600060608486031215613e9e578283fd5b8335613ea981614494565b95602085013595506040909401359392505050565b600060208284031215613ecf578081fd5b81518015158114611939578182fd5b600060208284031215613eef578081fd5b815161193981614494565b60008060008060808587031215613e22578384fd5b600080600060608486031215613f23578283fd5b8335613f2e81614494565b92506020840135613f3e81614494565b929592945050506040919091013590565b600080600080600080600080610100898b031215613f6b578586fd5b8835613f7681614494565b97506020890135613f8681614494565b96506040890135613f9681614494565b979a96995096976060810135975060808101359660a0820135965060c0820135955060e0909101359350915050565b600080600060608486031215613fd9578081fd5b8335613fe481614494565b9250602084013591506040840135613ffb81614494565b809150509250925092565b600060208284031215614017578081fd5b815160048110611939578182fd5b600060208284031215614036578081fd5b5035919050565b60006020828403121561404e578081fd5b5051919050565b60008060408385031215614067578182fd5b82359150602083013561407981614494565b809150509250929050565b600080600060608486031215614098578081fd5b505081359360208301359350604090920135919050565b600082516140c1818460208701614420565b9190910192915050565b60208152600082518060208401526140ea816040850160208701614420565b601f01601f19169190910160400192915050565b6020808252601e908201527f446f6e6174696f6e4d696e65723a204552525f4e4f545f535441525445440000604082015260600190565b60208082526010908201526f14185d5cd8589b194e881c185d5cd95960821b604082015260600190565b6020808252818101527f4f776e61626c653a2063616c6c6572206973206e6f7420746865206f776e6572604082015260600190565b60208082526034908201527f446f6e6174696f6e4d696e65723a20596f7520617265206e6f7420616c6c6f77604082015273081d1bc818d85b1b081d1a1a5cc81b595d1a1bd960621b606082015260800190565b60208082526037908201527f446f6e6174696f6e4d696e65723a3a696e697469616c697a653a20726577617260408201527f64506572696f6453697a6520697320696e76616c696421000000000000000000606082015260800190565b6020808252602b908201527f496e697469616c697a61626c653a20636f6e7472616374206973206e6f74206960408201526a6e697469616c697a696e6760a81b606082015260800190565b6020808252601f908201527f5265656e7472616e637947756172643a207265656e7472616e742063616c6c00604082015260600190565b600082198211156142da576142da61447e565b500190565b6000826142fa57634e487b7160e01b81526012600452602481fd5b500490565b600181815b8085111561433a5781600019048211156143205761432061447e565b8085161561432d57918102915b93841c9390800290614304565b509250929050565b6000611939838360008261435857506001610b52565b8161436557506000610b52565b816001811461437b5760028114614385576143a1565b6001915050610b52565b60ff8411156143965761439661447e565b50506001821b610b52565b5060208310610133831016604e8410600b84101617156143c4575081810a610b52565b6143ce83836142ff565b80600019048211156143e2576143e261447e565b029392505050565b60008160001904831182151516156144045761440461447e565b500290565b60008282101561441b5761441b61447e565b500390565b60005b8381101561443b578181015183820152602001614423565b838111156128475750506000910152565b60008161445b5761445b61447e565b506000190190565b60006000198214156144775761447761447e565b5060010190565b634e487b7160e01b600052601160045260246000fd5b6001600160a01b038116811461276a57600080fdfeb7404ce2b5a52e61a6b5c9b4585ed65d8cb4b8848d3ee262a356d0c2c46c5f37a26469706673582212200b86cad229e7a28302fa48c5718ba42882d6629aef22defe20001fdc197fb37164736f6c63430008040033",
  "devdoc": {
    "events": {
      "AgainstPeriodsUpdated(uint256,uint256)": {
        "params": {
          "newAgainstPeriods": "New againstPeriods value",
          "oldAgainstPeriods": "Old againstPeriods value"
        }
      },
      "ClaimDelayUpdated(uint256,uint256)": {
        "params": {
          "newClaimDelay": "New claimDelay value",
          "oldClaimDelay": "Old claimDelay value"
        }
      },
      "CommunityDonationRatioUpdated(uint256,uint256)": {
        "params": {
          "newCommunityDonationRatio": "New communityDonationRatio value",
          "oldCommunityDonationRatio": "Old communityDonationRatio value"
        }
      },
      "DonationAdded(uint256,address,uint256,address,uint256,address)": {
        "params": {
          "amount": "Number of token donated",
          "delegateAddress": "Address of the delegate",
          "donationId": "Id of the donation",
          "target": "Address of the receiver (community or treasury)                          or address of the DonationMiner contract otherwise",
          "token": "Address of the token after conversion"
        }
      },
      "RewardClaimed(address,uint256)": {
        "params": {
          "amount": "Value of the reward",
          "donor": "Address of the donner"
        }
      },
      "RewardClaimedPartial(address,uint256,uint256)": {
        "params": {
          "amount": "Value of the reward",
          "donor": "Address of the donner",
          "lastRewardPeriod": "Number of the last reward period for witch the claim was made"
        }
      },
      "RewardPeriodParamsUpdated(uint256,uint256,uint256,uint256,uint256,uint256)": {
        "params": {
          "newDecayDenominator": "New decayDenominator value For further information regarding each parameter, see *DonationMiner* smart contract initialize method.",
          "newDecayNumerator": "New decayNumerator value",
          "newRewardPeriodSize": "New rewardPeriodSize value",
          "oldDecayDenominator": "Old decayDenominator value",
          "oldDecayNumerator": "Old decayNumerator value",
          "oldRewardPeriodSize": "Old rewardPeriodSize value"
        }
      },
      "RewardStaked(address,uint256)": {
        "params": {
          "amount": "Value of the reward",
          "donor": "Address of the donner"
        }
      },
      "RewardStakedPartial(address,uint256,uint256)": {
        "params": {
          "amount": "Value of the reward",
          "donor": "Address of the donner",
          "lastRewardPeriod": "Number of the last reward period for witch tha stake was made"
        }
      },
      "StakingDonationRatioUpdated(uint256,uint256)": {
        "params": {
          "newStakingDonationRatio": "New stakingDonationRatio value",
          "oldStakingDonationRatio": "Old stakingDonationRatio value"
        }
      },
      "StakingUpdated(address,address)": {
        "params": {
          "newStaking": "New staking address",
          "oldStaking": "Old staking address"
        }
      },
      "TransferERC20(address,address,uint256)": {
        "params": {
          "amount": "Amount of the transaction",
          "to": "Address of the receiver",
          "token": "ERC20 token address"
        }
      },
      "TreasuryUpdated(address,address)": {
        "params": {
          "newTreasury": "New treasury address",
          "oldTreasury": "Old treasury address"
        }
      }
    },
    "kind": "dev",
    "methods": {
      "apr(address)": {
        "params": {
          "_stakeholderAddress": "address of the stakeHolder"
        },
        "returns": {
          "_0": "uint256 APR of the user"
        }
      },
      "calculateClaimableRewards(address)": {
        "params": {
          "_donorAddress": "address of the donor"
        },
        "returns": {
          "_0": "claimAmount uint256 sum of all donor's rewards that has not been claimed until _lastPeriodNumber"
        }
      },
      "calculateClaimableRewardsByPeriodNumber(address,uint256)": {
        "params": {
          "_donorAddress": "address of the donor",
          "_lastPeriodNumber": "last reward period number to be computed"
        },
        "returns": {
          "_0": "uint256 sum of all donor's rewards that has not been claimed until _lastPeriodNumber"
        }
      },
      "donate(address,uint256,address)": {
        "params": {
          "_amount": "Amount of tokens to deposit.",
          "_delegateAddress": "the address that will claim the reward for the donation",
          "_token": "address of the token"
        }
      },
      "donateFrom(address,address,uint256,address)": {
        "params": {
          "_amount": "Amount of tokens to deposit.",
          "_delegateAddress": "the address that will claim the reward for the donation",
          "_from": "address of the user",
          "_token": "address of the token"
        }
      },
      "donateToCommunity(address,address,uint256,address)": {
        "details": "Transfers tokens to the community contract",
        "params": {
          "_amount": "amount of tokens to deposit",
          "_community": "address of the community",
          "_delegateAddress": "the address that will claim the reward for the donation",
          "_token": "address of the token"
        }
      },
      "donateVirtual(uint256,address)": {
        "params": {
          "_amount": "Amount of tokens to fake deposit.",
          "_delegateAddress": "the address that will claim the reward for the donation"
        }
      },
      "donorRewardPeriod(address,uint256)": {
        "params": {
          "_donor": "address of the donor",
          "_rewardPeriodIndex": "index of the reward period"
        },
        "returns": {
          "_0": "uint256 number of the reward period"
        }
      },
      "donorScore(address)": {
        "details": "Calculate the score of a user based as this ratio (his donation and staking) / (all donation and staking) E.G. score = 0.01 * 1e18 => the donor have have 1% score      so he will get 1% of the reward",
        "params": {
          "_donorAddress": "address of the donor"
        },
        "returns": {
          "_0": "uint256    donor's score"
        }
      },
      "estimateClaimableReward(address)": {
        "params": {
          "_donorAddress": "address of the donor"
        },
        "returns": {
          "_0": "uint256 reward that donor will receive in current reward period if there isn't another donation"
        }
      },
      "estimateClaimableRewardAdvance(address)": {
        "params": {
          "_donorAddress": "address of the donor"
        },
        "returns": {
          "_0": "uint256 the estimate reward donor will receive after against periods based on the current donations and stakings"
        }
      },
      "estimateClaimableRewardByStaking(address)": {
        "returns": {
          "_0": "uint256 estimated reward by donor stakes"
        }
      },
      "estimateNewDonationClaimableRewardAdvance(uint256)": {
        "params": {
          "_donationAmount": "amount of the donation"
        },
        "returns": {
          "_0": "uint256 the estimate reward donor will receive after against periods based on the current donations and stakings"
        }
      },
      "generalApr()": {
        "returns": {
          "_0": "uint256 APR"
        }
      },
      "initialize(address,address,address,uint256,uint256,uint256,uint256,uint256)": {
        "params": {
          "_PACT": "Address of the PACT Token",
          "_cUSD": "Address of the cUSD token",
          "_decayDenominator": "Decay denominator used for calculating the new reward per block based on the previous reward per block",
          "_decayNumerator": "Decay numerator used for calculating the new reward per block based on the previous reward per block",
          "_firstRewardPerBlock": "Number of PACTs given for each block                              from the first reward period",
          "_rewardPeriodSize": "Number of blocks of the reward period",
          "_startingBlock": "First block of the first reward period",
          "_treasury": "Address of the Treasury"
        }
      },
      "lastPeriodsDonations(address)": {
        "details": "Calculate all donations on the last X epochs as well as everyone else in the same period.",
        "params": {
          "_donorAddress": "address of the donor"
        },
        "returns": {
          "donorAmount": "uint256    sum of donor's donations",
          "totalAmount": "uint256    sum of all donations"
        }
      },
      "owner()": {
        "details": "Returns the address of the current owner."
      },
      "paused()": {
        "details": "Returns true if the contract is paused, and false otherwise."
      },
      "renounceOwnership()": {
        "details": "Leaves the contract without owner. It will not be possible to call `onlyOwner` functions anymore. Can only be called by the current owner. NOTE: Renouncing ownership will leave the contract without an owner, thereby removing any functionality that is only available to the owner."
      },
      "rewardPeriodDonorAmount(uint256,address)": {
        "params": {
          "_donor": "address of the donor",
          "_period": "number of the reward period"
        },
        "returns": {
          "_0": "uint256 amount of cUSD donated by the user in this reward period"
        }
      },
      "rewardPeriodDonorStakeAmounts(uint256,address)": {
        "params": {
          "_donor": "address of the donor",
          "_period": "reward period number"
        },
        "returns": {
          "_0": "uint256 amount of PACT staked by a user at the and of the reward period"
        }
      },
      "transfer(address,address,uint256)": {
        "params": {
          "_amount": "amount of the transaction",
          "_to": "address of the receiver",
          "_token": "address of the ERC20 token"
        }
      },
      "transferOwnership(address)": {
        "details": "Transfers ownership of the contract to a new account (`newOwner`). Can only be called by the current owner."
      },
      "updateAgainstPeriods(uint256)": {
        "params": {
          "_newAgainstPeriods": "Number of reward periods for the backward computation"
        }
      },
      "updateAirdropV3(address)": {
        "params": {
          "_newAirdropV3": "address of new AirdropV3 contract"
        }
      },
      "updateClaimDelay(uint256)": {
        "params": {
          "_newClaimDelay": "Number of reward periods a donor has to wait after                            a donation until he will be able to claim his reward"
        }
      },
      "updateCommunityDonationRatio(uint256)": {
        "params": {
          "_newCommunityDonationRatio": "Ratio between 1USD donated into the treasury vs 1USD donated to a community"
        }
      },
      "updateMicrocredit(address)": {
        "params": {
          "_newMicrocredit": "address of new Microcredit contract"
        }
      },
      "updateRecurringCronAddress(address)": {
        "params": {
          "_newRecurringCronAddress": "new address of recurring cron"
        }
      },
      "updateRewardPeriodParams(uint256,uint256,uint256)": {
        "params": {
          "_newDecayDenominator": "value of new decayDenominator",
          "_newDecayNumerator": "value of new decayNumerator",
          "_newRewardPeriodSize": "value of new rewardPeriodSize"
        }
      },
      "updateStaking(address)": {
        "params": {
          "_newStaking": "address of new Staking contract"
        }
      },
      "updateStakingDonationRatio(uint256)": {
        "params": {
          "_newStakingDonationRatio": "Number of tokens that need to be staked to be counted as 1 PACT donated"
        }
      },
      "updateTreasury(address)": {
        "params": {
          "_newTreasury": "address of new treasury_ contract"
        }
      }
    },
    "version": 1
  },
  "userdoc": {
    "events": {
      "AgainstPeriodsUpdated(uint256,uint256)": {
        "notice": "Triggered when the againstPeriods value has been updated"
      },
      "ClaimDelayUpdated(uint256,uint256)": {
        "notice": "Triggered when the claimDelay value has been updated"
      },
      "CommunityDonationRatioUpdated(uint256,uint256)": {
        "notice": "Triggered when the communityDonationRatio value has been updated"
      },
      "DonationAdded(uint256,address,uint256,address,uint256,address)": {
        "notice": "Triggered when a donation has been added"
      },
      "RewardClaimed(address,uint256)": {
        "notice": "Triggered when a donor has claimed his reward"
      },
      "RewardClaimedPartial(address,uint256,uint256)": {
        "notice": "Triggered when a donor has claimed his reward"
      },
      "RewardPeriodParamsUpdated(uint256,uint256,uint256,uint256,uint256,uint256)": {
        "notice": "Triggered when reward period params have been updated"
      },
      "RewardStaked(address,uint256)": {
        "notice": "Triggered when a donor has staked his reward"
      },
      "RewardStakedPartial(address,uint256,uint256)": {
        "notice": "Triggered when a donor has staked his reward"
      },
      "StakingDonationRatioUpdated(uint256,uint256)": {
        "notice": "Triggered when the stakingDonationRatio value has been updated"
      },
      "StakingUpdated(address,address)": {
        "notice": "Triggered when the staking address has been updated"
      },
      "TransferERC20(address,address,uint256)": {
        "notice": "Triggered when an amount of an ERC20 has been transferred from this contract to an address"
      },
      "TreasuryUpdated(address,address)": {
        "notice": "Triggered when the treasury address has been updated"
      }
    },
    "kind": "user",
    "methods": {
      "apr(address)": {
        "notice": "Calculates the APR of a user based on his staking"
      },
      "calculateClaimableRewards(address)": {
        "notice": "Calculates the rewards from ended reward periods of a donor"
      },
      "calculateClaimableRewardsByPeriodNumber(address,uint256)": {
        "notice": "Calculates the rewards from ended reward periods of a donor"
      },
      "claimRewards()": {
        "notice": "Transfers to the sender the rewards"
      },
      "claimRewardsPartial(uint256)": {
        "notice": "Transfers to the sender the rewards"
      },
      "donate(address,uint256,address)": {
        "notice": "Transfers tokens to the treasury contract"
      },
      "donateFrom(address,address,uint256,address)": {
        "notice": "Transfers tokens from the _from to the treasury contract"
      },
      "donateVirtual(uint256,address)": {
        "notice": "Virtual donate tokens to the treasury contract"
      },
      "donorRewardPeriod(address,uint256)": {
        "notice": "Returns a reward period number from a donor reward period list"
      },
      "estimateClaimableReward(address)": {
        "notice": "Calculates the estimate reward of a donor for current reward period"
      },
      "estimateClaimableRewardAdvance(address)": {
        "notice": "Calculates the estimate reward of a donor for the next x reward periods"
      },
      "estimateClaimableRewardByStaking(address)": {
        "notice": "Calculates the estimate reward of a donor for current reward period based on his staking"
      },
      "estimateNewDonationClaimableRewardAdvance(uint256)": {
        "notice": "Calculates the estimate reward of a possible new donation  for the next againstPeriods reward periods"
      },
      "generalApr()": {
        "notice": "Calculates the APR"
      },
      "getVersion()": {
        "notice": "Returns the current implementation version"
      },
      "initialize(address,address,address,uint256,uint256,uint256,uint256,uint256)": {
        "notice": "Used to initialize a new DonationMiner contract"
      },
      "rewardPeriodDonorAmount(uint256,address)": {
        "notice": "Returns the amount of cUSD donated by a user in a reward period"
      },
      "rewardPeriodDonorStakeAmounts(uint256,address)": {
        "notice": "Returns the amount of PACT staked by a user at the and of the reward period"
      },
      "stakeRewards()": {
        "notice": "Stakes the reward"
      },
      "stakeRewardsPartial(uint256)": {
        "notice": "Stakes the reward"
      },
      "transfer(address,address,uint256)": {
        "notice": "Transfers an amount of an ERC20 from this contract to an address"
      },
      "updateAgainstPeriods(uint256)": {
        "notice": "Updates againstPeriods value"
      },
      "updateAirdropV3(address)": {
        "notice": "Updates AirdropV3 address"
      },
      "updateClaimDelay(uint256)": {
        "notice": "Updates claimDelay value"
      },
      "updateCommunityDonationRatio(uint256)": {
        "notice": "Updates communityDonationRatio value"
      },
      "updateMicrocredit(address)": {
        "notice": "Updates Microcredit address"
      },
      "updateRecurringCronAddress(address)": {
        "notice": "Updates recurring cron address address"
      },
      "updateRewardPeriodParams(uint256,uint256,uint256)": {
        "notice": "Updates reward period default params"
      },
      "updateStaking(address)": {
        "notice": "Updates Staking address"
      },
      "updateStakingDonationRatio(uint256)": {
        "notice": "Updates stakingDonationRatio value"
      },
      "updateTreasury(address)": {
        "notice": "Updates Treasury address"
      }
    },
    "version": 1
  },
  "storageLayout": {
    "storage": [
      {
        "astId": 542,
        "contract": "contracts/donationMiner/DonationMinerImplementation.sol:DonationMinerImplementation",
        "label": "_initialized",
        "offset": 0,
        "slot": "0",
        "type": "t_bool"
      },
      {
        "astId": 545,
        "contract": "contracts/donationMiner/DonationMinerImplementation.sol:DonationMinerImplementation",
        "label": "_initializing",
        "offset": 1,
        "slot": "0",
        "type": "t_bool"
      },
      {
        "astId": 1370,
        "contract": "contracts/donationMiner/DonationMinerImplementation.sol:DonationMinerImplementation",
        "label": "__gap",
        "offset": 0,
        "slot": "1",
        "type": "t_array(t_uint256)50_storage"
      },
      {
        "astId": 420,
        "contract": "contracts/donationMiner/DonationMinerImplementation.sol:DonationMinerImplementation",
        "label": "_owner",
        "offset": 0,
        "slot": "51",
        "type": "t_address"
      },
      {
        "astId": 534,
        "contract": "contracts/donationMiner/DonationMinerImplementation.sol:DonationMinerImplementation",
        "label": "__gap",
        "offset": 0,
        "slot": "52",
        "type": "t_array(t_uint256)49_storage"
      },
      {
        "astId": 630,
        "contract": "contracts/donationMiner/DonationMinerImplementation.sol:DonationMinerImplementation",
        "label": "_paused",
        "offset": 0,
        "slot": "101",
        "type": "t_bool"
      },
      {
        "astId": 721,
        "contract": "contracts/donationMiner/DonationMinerImplementation.sol:DonationMinerImplementation",
        "label": "__gap",
        "offset": 0,
        "slot": "102",
        "type": "t_array(t_uint256)49_storage"
      },
      {
        "astId": 736,
        "contract": "contracts/donationMiner/DonationMinerImplementation.sol:DonationMinerImplementation",
        "label": "_status",
        "offset": 0,
        "slot": "151",
        "type": "t_uint256"
      },
      {
        "astId": 779,
        "contract": "contracts/donationMiner/DonationMinerImplementation.sol:DonationMinerImplementation",
        "label": "__gap",
        "offset": 0,
        "slot": "152",
        "type": "t_array(t_uint256)49_storage"
      },
      {
        "astId": 18195,
        "contract": "contracts/donationMiner/DonationMinerImplementation.sol:DonationMinerImplementation",
        "label": "cUSD",
        "offset": 0,
        "slot": "201",
        "type": "t_contract(IERC20Upgradeable)858"
      },
      {
        "astId": 18199,
        "contract": "contracts/donationMiner/DonationMinerImplementation.sol:DonationMinerImplementation",
        "label": "PACT",
        "offset": 0,
        "slot": "202",
        "type": "t_contract(IERC20Upgradeable)858"
      },
      {
        "astId": 18203,
        "contract": "contracts/donationMiner/DonationMinerImplementation.sol:DonationMinerImplementation",
        "label": "treasury",
        "offset": 0,
        "slot": "203",
        "type": "t_contract(ITreasury)40281"
      },
      {
        "astId": 18206,
        "contract": "contracts/donationMiner/DonationMinerImplementation.sol:DonationMinerImplementation",
        "label": "rewardPeriodSize",
        "offset": 0,
        "slot": "204",
        "type": "t_uint256"
      },
      {
        "astId": 18209,
        "contract": "contracts/donationMiner/DonationMinerImplementation.sol:DonationMinerImplementation",
        "label": "donationCount",
        "offset": 0,
        "slot": "205",
        "type": "t_uint256"
      },
      {
        "astId": 18212,
        "contract": "contracts/donationMiner/DonationMinerImplementation.sol:DonationMinerImplementation",
        "label": "rewardPeriodCount",
        "offset": 0,
        "slot": "206",
        "type": "t_uint256"
      },
      {
        "astId": 18215,
        "contract": "contracts/donationMiner/DonationMinerImplementation.sol:DonationMinerImplementation",
        "label": "decayNumerator",
        "offset": 0,
        "slot": "207",
        "type": "t_uint256"
      },
      {
        "astId": 18218,
        "contract": "contracts/donationMiner/DonationMinerImplementation.sol:DonationMinerImplementation",
        "label": "decayDenominator",
        "offset": 0,
        "slot": "208",
        "type": "t_uint256"
      },
      {
        "astId": 18224,
        "contract": "contracts/donationMiner/DonationMinerImplementation.sol:DonationMinerImplementation",
        "label": "donations",
        "offset": 0,
        "slot": "209",
        "type": "t_mapping(t_uint256,t_struct(Donation)18358_storage)"
      },
      {
        "astId": 18230,
        "contract": "contracts/donationMiner/DonationMinerImplementation.sol:DonationMinerImplementation",
        "label": "rewardPeriods",
        "offset": 0,
        "slot": "210",
        "type": "t_mapping(t_uint256,t_struct(RewardPeriod)18331_storage)"
      },
      {
        "astId": 18236,
        "contract": "contracts/donationMiner/DonationMinerImplementation.sol:DonationMinerImplementation",
        "label": "donors",
        "offset": 0,
        "slot": "211",
        "type": "t_mapping(t_address,t_struct(Donor)18342_storage)"
      },
      {
        "astId": 18246,
        "contract": "contracts/donationMiner/DonationMinerImplementation.sol:DonationMinerImplementation",
        "label": "claimDelay",
        "offset": 0,
        "slot": "212",
        "type": "t_uint256"
      },
      {
        "astId": 18256,
        "contract": "contracts/donationMiner/DonationMinerImplementation.sol:DonationMinerImplementation",
        "label": "againstPeriods",
        "offset": 0,
        "slot": "213",
        "type": "t_uint256"
      },
      {
        "astId": 18267,
        "contract": "contracts/donationMiner/DonationMinerImplementation.sol:DonationMinerImplementation",
        "label": "staking",
        "offset": 0,
        "slot": "214",
        "type": "t_contract(IStaking)37502"
      },
      {
        "astId": 18270,
        "contract": "contracts/donationMiner/DonationMinerImplementation.sol:DonationMinerImplementation",
        "label": "stakingDonationRatio",
        "offset": 0,
        "slot": "215",
        "type": "t_uint256"
      },
      {
        "astId": 18273,
        "contract": "contracts/donationMiner/DonationMinerImplementation.sol:DonationMinerImplementation",
        "label": "communityDonationRatio",
        "offset": 0,
        "slot": "216",
        "type": "t_uint256"
      },
      {
        "astId": 18284,
        "contract": "contracts/donationMiner/DonationMinerImplementation.sol:DonationMinerImplementation",
        "label": "airdropV3",
        "offset": 0,
        "slot": "217",
        "type": "t_contract(IAirdropV3)6913"
      },
      {
        "astId": 18288,
        "contract": "contracts/donationMiner/DonationMinerImplementation.sol:DonationMinerImplementation",
        "label": "microcredit",
        "offset": 0,
        "slot": "218",
        "type": "t_contract(IMicrocredit)27311"
      },
      {
        "astId": 18291,
        "contract": "contracts/donationMiner/DonationMinerImplementation.sol:DonationMinerImplementation",
        "label": "recurringCronAddress",
        "offset": 0,
        "slot": "219",
        "type": "t_address"
      }
    ],
    "types": {
      "t_address": {
        "encoding": "inplace",
        "label": "address",
        "numberOfBytes": "20"
      },
      "t_array(t_uint256)49_storage": {
        "base": "t_uint256",
        "encoding": "inplace",
        "label": "uint256[49]",
        "numberOfBytes": "1568"
      },
      "t_array(t_uint256)50_storage": {
        "base": "t_uint256",
        "encoding": "inplace",
        "label": "uint256[50]",
        "numberOfBytes": "1600"
      },
      "t_bool": {
        "encoding": "inplace",
        "label": "bool",
        "numberOfBytes": "1"
      },
      "t_contract(IAirdropV3)6913": {
        "encoding": "inplace",
        "label": "contract IAirdropV3",
        "numberOfBytes": "20"
      },
      "t_contract(IERC20Upgradeable)858": {
        "encoding": "inplace",
        "label": "contract IERC20Upgradeable",
        "numberOfBytes": "20"
      },
      "t_contract(IMicrocredit)27311": {
        "encoding": "inplace",
        "label": "contract IMicrocredit",
        "numberOfBytes": "20"
      },
      "t_contract(IStaking)37502": {
        "encoding": "inplace",
        "label": "contract IStaking",
        "numberOfBytes": "20"
      },
      "t_contract(ITreasury)40281": {
        "encoding": "inplace",
        "label": "contract ITreasury",
        "numberOfBytes": "20"
      },
      "t_mapping(t_address,t_bool)": {
        "encoding": "mapping",
        "key": "t_address",
        "label": "mapping(address => bool)",
        "numberOfBytes": "32",
        "value": "t_bool"
      },
      "t_mapping(t_address,t_struct(Donor)18342_storage)": {
        "encoding": "mapping",
        "key": "t_address",
        "label": "mapping(address => struct IDonationMiner.Donor)",
        "numberOfBytes": "32",
        "value": "t_struct(Donor)18342_storage"
      },
      "t_mapping(t_address,t_uint256)": {
        "encoding": "mapping",
        "key": "t_address",
        "label": "mapping(address => uint256)",
        "numberOfBytes": "32",
        "value": "t_uint256"
      },
      "t_mapping(t_uint256,t_struct(Donation)18358_storage)": {
        "encoding": "mapping",
        "key": "t_uint256",
        "label": "mapping(uint256 => struct IDonationMiner.Donation)",
        "numberOfBytes": "32",
        "value": "t_struct(Donation)18358_storage"
      },
      "t_mapping(t_uint256,t_struct(RewardPeriod)18331_storage)": {
        "encoding": "mapping",
        "key": "t_uint256",
        "label": "mapping(uint256 => struct IDonationMiner.RewardPeriod)",
        "numberOfBytes": "32",
        "value": "t_struct(RewardPeriod)18331_storage"
      },
      "t_mapping(t_uint256,t_uint256)": {
        "encoding": "mapping",
        "key": "t_uint256",
        "label": "mapping(uint256 => uint256)",
        "numberOfBytes": "32",
        "value": "t_uint256"
      },
      "t_struct(Donation)18358_storage": {
        "encoding": "inplace",
        "label": "struct IDonationMiner.Donation",
        "members": [
          {
            "astId": 18344,
            "contract": "contracts/donationMiner/DonationMinerImplementation.sol:DonationMinerImplementation",
            "label": "donor",
            "offset": 0,
            "slot": "0",
            "type": "t_address"
          },
          {
            "astId": 18346,
            "contract": "contracts/donationMiner/DonationMinerImplementation.sol:DonationMinerImplementation",
            "label": "target",
            "offset": 0,
            "slot": "1",
            "type": "t_address"
          },
          {
            "astId": 18348,
            "contract": "contracts/donationMiner/DonationMinerImplementation.sol:DonationMinerImplementation",
            "label": "rewardPeriod",
            "offset": 0,
            "slot": "2",
            "type": "t_uint256"
          },
          {
            "astId": 18350,
            "contract": "contracts/donationMiner/DonationMinerImplementation.sol:DonationMinerImplementation",
            "label": "blockNumber",
            "offset": 0,
            "slot": "3",
            "type": "t_uint256"
          },
          {
            "astId": 18352,
            "contract": "contracts/donationMiner/DonationMinerImplementation.sol:DonationMinerImplementation",
            "label": "amount",
            "offset": 0,
            "slot": "4",
            "type": "t_uint256"
          },
          {
            "astId": 18355,
            "contract": "contracts/donationMiner/DonationMinerImplementation.sol:DonationMinerImplementation",
            "label": "token",
            "offset": 0,
            "slot": "5",
            "type": "t_contract(IERC20Upgradeable)858"
          },
          {
            "astId": 18357,
            "contract": "contracts/donationMiner/DonationMinerImplementation.sol:DonationMinerImplementation",
            "label": "initialAmount",
            "offset": 0,
            "slot": "6",
            "type": "t_uint256"
          }
        ],
        "numberOfBytes": "224"
      },
      "t_struct(Donor)18342_storage": {
        "encoding": "inplace",
        "label": "struct IDonationMiner.Donor",
        "members": [
          {
            "astId": 18333,
            "contract": "contracts/donationMiner/DonationMinerImplementation.sol:DonationMinerImplementation",
            "label": "lastClaim",
            "offset": 0,
            "slot": "0",
            "type": "t_uint256"
          },
          {
            "astId": 18335,
            "contract": "contracts/donationMiner/DonationMinerImplementation.sol:DonationMinerImplementation",
            "label": "rewardPeriodsCount",
            "offset": 0,
            "slot": "1",
            "type": "t_uint256"
          },
          {
            "astId": 18339,
            "contract": "contracts/donationMiner/DonationMinerImplementation.sol:DonationMinerImplementation",
            "label": "rewardPeriods",
            "offset": 0,
            "slot": "2",
            "type": "t_mapping(t_uint256,t_uint256)"
          },
          {
            "astId": 18341,
            "contract": "contracts/donationMiner/DonationMinerImplementation.sol:DonationMinerImplementation",
            "label": "lastClaimPeriod",
            "offset": 0,
            "slot": "3",
            "type": "t_uint256"
          }
        ],
        "numberOfBytes": "128"
      },
      "t_struct(RewardPeriod)18331_storage": {
        "encoding": "inplace",
        "label": "struct IDonationMiner.RewardPeriod",
        "members": [
          {
            "astId": 18304,
            "contract": "contracts/donationMiner/DonationMinerImplementation.sol:DonationMinerImplementation",
            "label": "rewardPerBlock",
            "offset": 0,
            "slot": "0",
            "type": "t_uint256"
          },
          {
            "astId": 18306,
            "contract": "contracts/donationMiner/DonationMinerImplementation.sol:DonationMinerImplementation",
            "label": "rewardAmount",
            "offset": 0,
            "slot": "1",
            "type": "t_uint256"
          },
          {
            "astId": 18308,
            "contract": "contracts/donationMiner/DonationMinerImplementation.sol:DonationMinerImplementation",
            "label": "startBlock",
            "offset": 0,
            "slot": "2",
            "type": "t_uint256"
          },
          {
            "astId": 18310,
            "contract": "contracts/donationMiner/DonationMinerImplementation.sol:DonationMinerImplementation",
            "label": "endBlock",
            "offset": 0,
            "slot": "3",
            "type": "t_uint256"
          },
          {
            "astId": 18312,
            "contract": "contracts/donationMiner/DonationMinerImplementation.sol:DonationMinerImplementation",
            "label": "donationsAmount",
            "offset": 0,
            "slot": "4",
            "type": "t_uint256"
          },
          {
            "astId": 18316,
            "contract": "contracts/donationMiner/DonationMinerImplementation.sol:DonationMinerImplementation",
            "label": "donorAmounts",
            "offset": 0,
            "slot": "5",
            "type": "t_mapping(t_address,t_uint256)"
          },
          {
            "astId": 18318,
            "contract": "contracts/donationMiner/DonationMinerImplementation.sol:DonationMinerImplementation",
            "label": "againstPeriods",
            "offset": 0,
            "slot": "6",
            "type": "t_uint256"
          },
          {
            "astId": 18320,
            "contract": "contracts/donationMiner/DonationMinerImplementation.sol:DonationMinerImplementation",
            "label": "stakesAmount",
            "offset": 0,
            "slot": "7",
            "type": "t_uint256"
          },
          {
            "astId": 18322,
            "contract": "contracts/donationMiner/DonationMinerImplementation.sol:DonationMinerImplementation",
            "label": "stakingDonationRatio",
            "offset": 0,
            "slot": "8",
            "type": "t_uint256"
          },
          {
            "astId": 18326,
            "contract": "contracts/donationMiner/DonationMinerImplementation.sol:DonationMinerImplementation",
            "label": "hasSetStakeAmount",
            "offset": 0,
            "slot": "9",
            "type": "t_mapping(t_address,t_bool)"
          },
          {
            "astId": 18330,
            "contract": "contracts/donationMiner/DonationMinerImplementation.sol:DonationMinerImplementation",
            "label": "donorStakeAmounts",
            "offset": 0,
            "slot": "10",
            "type": "t_mapping(t_address,t_uint256)"
          }
        ],
        "numberOfBytes": "352"
      },
      "t_uint256": {
        "encoding": "inplace",
        "label": "uint256",
        "numberOfBytes": "32"
      }
    }
  }
}