{
  "address": "0x05483De7fE073DdB6f1Dddd7661d4136Af8Af99a",
  "abi": [
    {
      "anonymous": false,
      "inputs": [
        {
          "indexed": false,
          "internalType": "address",
          "name": "member",
          "type": "address"
        }
      ],
      "name": "MemberAdded",
      "type": "event"
    },
    {
      "anonymous": false,
      "inputs": [
        {
          "indexed": false,
          "internalType": "address",
          "name": "member",
          "type": "address"
        }
      ],
      "name": "MemberRemoved",
      "type": "event"
    },
    {
      "anonymous": false,
      "inputs": [
        {
          "indexed": false,
          "internalType": "address",
          "name": "oldImplementation",
          "type": "address"
        },
        {
          "indexed": false,
          "internalType": "address",
          "name": "newImplementation",
          "type": "address"
        }
      ],
      "name": "NewImplementation",
      "type": "event"
    },
    {
      "anonymous": false,
      "inputs": [
        {
          "indexed": true,
          "internalType": "address",
          "name": "previousOwner",
          "type": "address"
        },
        {
          "indexed": true,
          "internalType": "address",
          "name": "newOwner",
          "type": "address"
        }
      ],
      "name": "OwnershipTransferred",
      "type": "event"
    },
    {
      "anonymous": false,
      "inputs": [
        {
          "indexed": false,
          "internalType": "uint256",
          "name": "id",
          "type": "uint256"
        }
      ],
      "name": "ProposalCanceled",
      "type": "event"
    },
    {
      "anonymous": false,
      "inputs": [
        {
          "indexed": false,
          "internalType": "uint256",
          "name": "id",
          "type": "uint256"
        },
        {
          "indexed": false,
          "internalType": "address",
          "name": "proposer",
          "type": "address"
        },
        {
          "indexed": false,
          "internalType": "string[]",
          "name": "signatures",
          "type": "string[]"
        },
        {
          "indexed": false,
          "internalType": "bytes[]",
          "name": "calldatas",
          "type": "bytes[]"
        },
        {
          "indexed": false,
          "internalType": "uint256",
          "name": "endBlock",
          "type": "uint256"
        },
        {
          "indexed": false,
          "internalType": "string",
          "name": "description",
          "type": "string"
        }
      ],
      "name": "ProposalCreated",
      "type": "event"
    },
    {
      "anonymous": false,
      "inputs": [
        {
          "indexed": false,
          "internalType": "uint256",
          "name": "id",
          "type": "uint256"
        }
      ],
      "name": "ProposalExecuted",
      "type": "event"
    },
    {
      "anonymous": false,
      "inputs": [
        {
          "indexed": false,
          "internalType": "uint256",
          "name": "oldQuorumVotes",
          "type": "uint256"
        },
        {
          "indexed": false,
          "internalType": "uint256",
          "name": "newQuorumVotes",
          "type": "uint256"
        }
      ],
      "name": "QuorumVotesSet",
      "type": "event"
    },
    {
      "anonymous": false,
      "inputs": [
        {
          "indexed": true,
          "internalType": "address",
          "name": "token",
          "type": "address"
        },
        {
          "indexed": true,
          "internalType": "address",
          "name": "to",
          "type": "address"
        },
        {
          "indexed": false,
          "internalType": "uint256",
          "name": "amount",
          "type": "uint256"
        }
      ],
      "name": "TransferERC20",
      "type": "event"
    },
    {
      "anonymous": false,
      "inputs": [
        {
          "indexed": true,
          "internalType": "address",
          "name": "voter",
          "type": "address"
        },
        {
          "indexed": false,
          "internalType": "uint256",
          "name": "proposalId",
          "type": "uint256"
        },
        {
          "indexed": false,
          "internalType": "uint8",
          "name": "support",
          "type": "uint8"
        },
        {
          "indexed": false,
          "internalType": "uint256",
          "name": "votes",
          "type": "uint256"
        },
        {
          "indexed": false,
          "internalType": "string",
          "name": "reason",
          "type": "string"
        }
      ],
      "name": "VoteCast",
      "type": "event"
    },
    {
      "inputs": [],
      "name": "MAX_VOTING_PERIOD",
      "outputs": [
        {
          "internalType": "uint256",
          "name": "",
          "type": "uint256"
        }
      ],
      "stateMutability": "view",
      "type": "function"
    },
    {
      "inputs": [],
      "name": "PROPOSAL_MAX_OPERATIONS",
      "outputs": [
        {
          "internalType": "uint256",
          "name": "",
          "type": "uint256"
        }
      ],
      "stateMutability": "view",
      "type": "function"
    },
    {
      "inputs": [
        {
          "internalType": "address",
          "name": "_member",
          "type": "address"
        }
      ],
      "name": "addMember",
      "outputs": [],
      "stateMutability": "nonpayable",
      "type": "function"
    },
    {
      "inputs": [
        {
          "internalType": "uint256",
          "name": "_proposalId",
          "type": "uint256"
        }
      ],
      "name": "cancel",
      "outputs": [],
      "stateMutability": "nonpayable",
      "type": "function"
    },
    {
      "inputs": [
        {
          "internalType": "uint256",
          "name": "_proposalId",
          "type": "uint256"
        },
        {
          "internalType": "uint8",
          "name": "_support",
          "type": "uint8"
        }
      ],
      "name": "castVote",
      "outputs": [],
      "stateMutability": "nonpayable",
      "type": "function"
    },
    {
      "inputs": [],
      "name": "communityAdmin",
      "outputs": [
        {
          "internalType": "contract ICommunityAdmin",
          "name": "",
          "type": "address"
        }
      ],
      "stateMutability": "view",
      "type": "function"
    },
    {
      "inputs": [],
      "name": "communityProxyAdmin",
      "outputs": [
        {
          "internalType": "contract ProxyAdmin",
          "name": "",
          "type": "address"
        }
      ],
      "stateMutability": "view",
      "type": "function"
    },
    {
      "inputs": [
        {
          "internalType": "uint256",
          "name": "_proposalId",
          "type": "uint256"
        }
      ],
      "name": "execute",
      "outputs": [],
      "stateMutability": "payable",
      "type": "function"
    },
    {
      "inputs": [
        {
          "internalType": "uint256",
          "name": "_proposalId",
          "type": "uint256"
        }
      ],
      "name": "getActions",
      "outputs": [
        {
          "internalType": "string[]",
          "name": "signatures",
          "type": "string[]"
        },
        {
          "internalType": "bytes[]",
          "name": "calldatas",
          "type": "bytes[]"
        }
      ],
      "stateMutability": "view",
      "type": "function"
    },
    {
      "inputs": [
        {
          "internalType": "uint256",
          "name": "_proposalId",
          "type": "uint256"
        },
        {
          "internalType": "address",
          "name": "_voter",
          "type": "address"
        }
      ],
      "name": "getReceipt",
      "outputs": [
        {
          "components": [
            {
              "internalType": "bool",
              "name": "hasVoted",
              "type": "bool"
            },
            {
              "internalType": "uint8",
              "name": "support",
              "type": "uint8"
            },
            {
              "internalType": "uint96",
              "name": "votes",
              "type": "uint96"
            }
          ],
          "internalType": "struct ImpactMarketCouncilStorageV1.Receipt",
          "name": "",
          "type": "tuple"
        }
      ],
      "stateMutability": "view",
      "type": "function"
    },
    {
      "inputs": [
        {
          "internalType": "uint256",
          "name": "_quorumVotes",
          "type": "uint256"
        },
        {
          "internalType": "contract ICommunityAdmin",
          "name": "_communityAdmin",
          "type": "address"
        },
        {
          "internalType": "address[]",
          "name": "_members",
          "type": "address[]"
        }
      ],
      "name": "initialize",
      "outputs": [],
      "stateMutability": "nonpayable",
      "type": "function"
    },
    {
      "inputs": [
        {
          "internalType": "address",
          "name": "",
          "type": "address"
        }
      ],
      "name": "latestProposalIds",
      "outputs": [
        {
          "internalType": "uint256",
          "name": "",
          "type": "uint256"
        }
      ],
      "stateMutability": "view",
      "type": "function"
    },
    {
      "inputs": [
        {
          "internalType": "address",
          "name": "",
          "type": "address"
        }
      ],
      "name": "members",
      "outputs": [
        {
          "internalType": "bool",
          "name": "",
          "type": "bool"
        }
      ],
      "stateMutability": "view",
      "type": "function"
    },
    {
      "inputs": [],
      "name": "owner",
      "outputs": [
        {
          "internalType": "address",
          "name": "",
          "type": "address"
        }
      ],
      "stateMutability": "view",
      "type": "function"
    },
    {
      "inputs": [
        {
          "internalType": "uint256",
          "name": "",
          "type": "uint256"
        },
        {
          "internalType": "uint256",
          "name": "",
          "type": "uint256"
        }
      ],
      "name": "proposalCalldatas",
      "outputs": [
        {
          "internalType": "bytes",
          "name": "",
          "type": "bytes"
        }
      ],
      "stateMutability": "view",
      "type": "function"
    },
    {
      "inputs": [],
      "name": "proposalCount",
      "outputs": [
        {
          "internalType": "uint256",
          "name": "",
          "type": "uint256"
        }
      ],
      "stateMutability": "view",
      "type": "function"
    },
    {
      "inputs": [
        {
          "internalType": "uint256",
          "name": "",
          "type": "uint256"
        },
        {
          "internalType": "address",
          "name": "",
          "type": "address"
        }
      ],
      "name": "proposalReceipts",
      "outputs": [
        {
          "internalType": "bool",
          "name": "hasVoted",
          "type": "bool"
        },
        {
          "internalType": "uint8",
          "name": "support",
          "type": "uint8"
        },
        {
          "internalType": "uint96",
          "name": "votes",
          "type": "uint96"
        }
      ],
      "stateMutability": "view",
      "type": "function"
    },
    {
      "inputs": [
        {
          "internalType": "uint256",
          "name": "",
          "type": "uint256"
        },
        {
          "internalType": "uint256",
          "name": "",
          "type": "uint256"
        }
      ],
      "name": "proposalSignatures",
      "outputs": [
        {
          "internalType": "string",
          "name": "",
          "type": "string"
        }
      ],
      "stateMutability": "view",
      "type": "function"
    },
    {
      "inputs": [
        {
          "internalType": "uint256",
          "name": "",
          "type": "uint256"
        }
      ],
      "name": "proposals",
      "outputs": [
        {
          "internalType": "uint256",
          "name": "id",
          "type": "uint256"
        },
        {
          "internalType": "address",
          "name": "proposer",
          "type": "address"
        },
        {
          "internalType": "uint256",
          "name": "endBlock",
          "type": "uint256"
        },
        {
          "internalType": "uint256",
          "name": "forVotes",
          "type": "uint256"
        },
        {
          "internalType": "uint256",
          "name": "againstVotes",
          "type": "uint256"
        },
        {
          "internalType": "uint256",
          "name": "abstainVotes",
          "type": "uint256"
        },
        {
          "internalType": "bool",
          "name": "canceled",
          "type": "bool"
        },
        {
          "internalType": "bool",
          "name": "executed",
          "type": "bool"
        }
      ],
      "stateMutability": "view",
      "type": "function"
    },
    {
      "inputs": [
        {
          "internalType": "string[]",
          "name": "_signatures",
          "type": "string[]"
        },
        {
          "internalType": "bytes[]",
          "name": "_calldatas",
          "type": "bytes[]"
        },
        {
          "internalType": "string",
          "name": "_description",
          "type": "string"
        }
      ],
      "name": "propose",
      "outputs": [
        {
          "internalType": "uint256",
          "name": "",
          "type": "uint256"
        }
      ],
      "stateMutability": "nonpayable",
      "type": "function"
    },
    {
      "inputs": [],
      "name": "quorumVotes",
      "outputs": [
        {
          "internalType": "uint256",
          "name": "",
          "type": "uint256"
        }
      ],
      "stateMutability": "view",
      "type": "function"
    },
    {
      "inputs": [
        {
          "internalType": "address",
          "name": "_member",
          "type": "address"
        }
      ],
      "name": "removeMember",
      "outputs": [],
      "stateMutability": "nonpayable",
      "type": "function"
    },
    {
      "inputs": [],
      "name": "renounceOwnership",
      "outputs": [],
      "stateMutability": "nonpayable",
      "type": "function"
    },
    {
      "inputs": [
        {
          "internalType": "uint256",
          "name": "_newQuorumVotes",
          "type": "uint256"
        }
      ],
      "name": "setQuorumVotes",
      "outputs": [],
      "stateMutability": "nonpayable",
      "type": "function"
    },
    {
      "inputs": [
        {
          "internalType": "uint256",
          "name": "_proposalId",
          "type": "uint256"
        }
      ],
      "name": "state",
      "outputs": [
        {
          "internalType": "enum ImpactMarketCouncilStorageV1.ProposalState",
          "name": "",
          "type": "uint8"
        }
      ],
      "stateMutability": "view",
      "type": "function"
    },
    {
      "inputs": [
        {
          "internalType": "address",
          "name": "newOwner",
          "type": "address"
        }
      ],
      "name": "transferOwnership",
      "outputs": [],
      "stateMutability": "nonpayable",
      "type": "function"
    }
  ],
  "transactionHash": "0xe6c3dfa9fe7638625fb8804d6d72ceed2eee0d401eac9045ac73661c9fe01556",
  "args": [],
  "numDeployments": 1,
  "solcInputHash": "9f7bffa15693d61510860eff6ced8ff8",
  "bytecode": "0x608060405234801561001057600080fd5b50613334806100206000396000f3fe608060405260043610620001a15760003560e01c80635678138811620000e2578063a64e024a1162000095578063da35c664116200006c578063da35c6641462000610578063e23a9a521462000628578063f2fde38b14620006f3578063fe0d94c1146200071857600080fd5b8063a64e024a14620005ad578063c8eb690214620005c6578063ca6d56dc14620005eb57600080fd5b80635678138814620004865780635fac917a14620004ab5780636617674314620004cd578063715018a614620005505780638da5cb5b1462000568578063a4a53a13146200058857600080fd5b806324bc1a6411620001585780633e4f49e6116200012f5780633e4f49e614620003d457806340e58ee51462000408578063463e34be146200042d5780634e42b06d146200045257600080fd5b806324bc1a641462000370578063328dd982146200038857806336e7048a14620003bd57600080fd5b8063013cf08b14620001a6578063016a0416146200026457806302ec8f9e146200029f57806308ae4b0c14620002c65780630b1ca49a146200030b57806317977c611462000330575b600080fd5b348015620001b357600080fd5b5062000218620001c536600462002468565b609c60205260009081526040902080546001820154600283015460038401546004850154600586015460069096015494956001600160a01b03909416949293919290919060ff8082169161010090041688565b604080519889526001600160a01b039097166020890152958701949094526060860192909252608085015260a0840152151560c0830152151560e0820152610100015b60405180910390f35b3480156200027157600080fd5b5060975462000286906001600160a01b031681565b6040516001600160a01b0390911681526020016200025b565b348015620002ac57600080fd5b50620002c4620002be36600462002468565b6200072f565b005b348015620002d357600080fd5b50620002fa620002e536600462002341565b609b6020526000908152604090205460ff1681565b60405190151581526020016200025b565b3480156200031857600080fd5b50620002c46200032a36600462002341565b6200080d565b3480156200033d57600080fd5b50620003616200034f36600462002341565b60a06020526000908152604090205481565b6040519081526020016200025b565b3480156200037d57600080fd5b506200036160995481565b3480156200039557600080fd5b50620003ad620003a736600462002468565b62000901565b6040516200025b929190620027ee565b348015620003ca57600080fd5b5062000361600a81565b348015620003e157600080fd5b50620003f9620003f336600462002468565b62000adc565b6040516200025b919062002835565b3480156200041557600080fd5b50620002c46200042736600462002468565b62000bc4565b3480156200043a57600080fd5b50620002c46200044c366004620024b3565b62000d53565b3480156200045f57600080fd5b50620004776200047136600462002541565b6200119c565b6040516200025b919062002820565b3480156200049357600080fd5b50620002c4620004a536600462002563565b6200125e565b348015620004b857600080fd5b5060985462000286906001600160a01b031681565b348015620004da57600080fd5b5062000527620004ec36600462002481565b609f60209081526000928352604080842090915290825290205460ff808216916101008104909116906201000090046001600160601b031683565b60408051931515845260ff90921660208401526001600160601b0316908201526060016200025b565b3480156200055d57600080fd5b50620002c462001302565b3480156200057557600080fd5b506033546001600160a01b031662000286565b3480156200059557600080fd5b5062000477620005a736600462002541565b6200133d565b348015620005ba57600080fd5b50620003616207e90081565b348015620005d357600080fd5b5062000361620005e536600462002360565b6200135a565b348015620005f857600080fd5b50620002c46200060a36600462002341565b6200166a565b3480156200061d57600080fd5b5062000361609a5481565b3480156200063557600080fd5b50620006c26200064736600462002481565b6040805160608101825260008082526020820181905291810191909152506000918252609f602090815260408084206001600160a01b03939093168452918152918190208151606081018352905460ff8082161515835261010082041693820193909352620100009092046001600160601b03169082015290565b6040805182511515815260208084015160ff1690820152918101516001600160601b0316908201526060016200025b565b3480156200070057600080fd5b50620002c46200071236600462002341565b62001761565b620002c46200072936600462002468565b62001803565b6033546001600160a01b03163314620007655760405162461bcd60e51b81526004016200075c906200285e565b60405180910390fd5b6001811015620007cc5760405162461bcd60e51b815260206004820152602b60248201527f504143543a3a5f73657451756f72756d566f7465733a20696e76616c6964207160448201526a756f72756d20766f74657360a81b60648201526084016200075c565b60995460408051918252602082018390527fffff0a251408cb8f05a4fc2ab0bdffe28e1519cb8ee5bdb6531e5d6ca51aaf75910160405180910390a1609955565b6033546001600160a01b031633146200083a5760405162461bcd60e51b81526004016200075c906200285e565b6001600160a01b0381166000908152609b602052604090205460ff161515600114620008a95760405162461bcd60e51b815260206004820181905260248201527f504143543a3a72656d6f76654d656d6265723a206e6f742061206d656d62657260448201526064016200075c565b6001600160a01b0381166000818152609b6020908152604091829020805460ff1916905590519182527f6e76fb4c77256006d9c38ec7d82b45a8c8f3c27b1d6766fffc42dfb8de68449291015b60405180910390a150565b6000818152609d60209081526040808320609e835281842081548351818602810186019094528084526060958695939492938592919084015b82821015620009f05783829060005260206000200180546200095c9062002ad0565b80601f01602080910402602001604051908101604052809291908181526020018280546200098a9062002ad0565b8015620009db5780601f10620009af57610100808354040283529160200191620009db565b820191906000526020600020905b815481529060010190602001808311620009bd57829003601f168201915b5050505050815260200190600101906200093a565b50505050915080805480602002602001604051908101604052809291908181526020016000905b8282101562000acd57838290600052602060002001805462000a399062002ad0565b80601f016020809104026020016040519081016040528092919081815260200182805462000a679062002ad0565b801562000ab85780601f1062000a8c5761010080835404028352916020019162000ab8565b820191906000526020600020905b81548152906001019060200180831162000a9a57829003601f168201915b50505050508152602001906001019062000a17565b50505050905091509150915091565b600081609a541162000b315760405162461bcd60e51b815260206004820181905260248201527f504143543a3a73746174653a20696e76616c69642070726f706f73616c20696460448201526064016200075c565b6000828152609c60205260409020600681015460ff161562000b565750600292915050565b6006810154610100900460ff161562000b725750600592915050565b806002015443111562000b885750600392915050565b8060040154816003015411801562000ba65750609954816003015410155b1562000bb55750600492915050565b50600192915050565b50919050565b336000908152609b602052604090205460ff16151560011462000bfb5760405162461bcd60e51b81526004016200075c9062002893565b600562000c088262000adc565b600581111562000c2857634e487b7160e01b600052602160045260246000fd5b141562000c8e5760405162461bcd60e51b815260206004820152602d60248201527f504143543a3a63616e63656c3a2063616e6e6f742063616e63656c206578656360448201526c1d5d1959081c1c9bdc1bdcd85b609a1b60648201526084016200075c565b6000818152609c6020526040902060018101546001600160a01b0316331462000d055760405162461bcd60e51b815260206004820152602260248201527f504143543a3a63616e63656c3a2070726f706f736572206e6f7420616c6c6f77604482015261195960f21b60648201526084016200075c565b60068101805460ff191660011790556040517f789cf55be980739dad1d0699b93b58e806b51c9d96619bfa8fe0a28abaa7b30c9062000d479084815260200190565b60405180910390a15050565b600054610100900460ff1662000d705760005460ff161562000d74565b303b155b62000dd95760405162461bcd60e51b815260206004820152602e60248201527f496e697469616c697a61626c653a20636f6e747261637420697320616c72656160448201526d191e481a5b9a5d1a585b1a5e995960921b60648201526084016200075c565b600054610100900460ff1615801562000dfc576000805461ffff19166101011790555b600185101562000e645760405162461bcd60e51b815260206004820152602c60248201527f504143543a3a696e697469616c697a653a20696e76616c69642070726f706f7360448201526b185b081d1a1c995cda1bdb1960a21b60648201526084016200075c565b8185111562000ec05760405162461bcd60e51b815260206004820152602160248201527f504143543a3a696e697469616c697a653a20706172616d73206d69736d6174636044820152600d60fb1b60648201526084016200075c565b62000eca62001c0b565b62000ed462001c49565b60405162000ee2906200201b565b604051809103906000f08015801562000eff573d6000803e3d6000fd5b50609780546001600160a01b03199081166001600160a01b03938416179091556098805490911691861691909117905560998590556040805161010081018252609a80548083523060208401526000938301849052606083018490526080830184905260a08301849052600160c084015260e08301849052919262000f848362002b07565b909155505080516000908152609c602090815260408083208451808255838601516001830180546001600160a01b039092166001600160a01b031990921682179055838701516002840155606087015160038401556080870151600484015560a080880151600585015560c08801516006909401805460e08a015115156101000261ff00199615159690961661ffff19909116179490941790935585529252822055835b8082101562001120576001609b60008888868181106200105857634e487b7160e01b600052603260045260246000fd5b90506020020160208101906200106f919062002341565b6001600160a01b031681526020810191909152604001600020805460ff19169115159190911790557fb251eb052afc73ffd02ffe85ad79990a8b3fed60d76dbc2fa2fdd7123dffd914868684818110620010d957634e487b7160e01b600052603260045260246000fd5b9050602002016020810190620010f0919062002341565b6040516001600160a01b03909116815260200160405180910390a181620011178162002b07565b92505062001028565b82516000818152609d6020908152604080832087518452609e90925280832090517fd21260fef4e3a940974fea60f4f0358e0c66662bfca670bbbc844c9d6077f87994620011779490933093909290919062002974565b60405180910390a1505050801562001195576000805461ff00191690555b5050505050565b609e6020528160005260406000208181548110620011b957600080fd5b90600052602060002001600091509150508054620011d79062002ad0565b80601f0160208091040260200160405190810160405280929190818152602001828054620012059062002ad0565b8015620012565780601f106200122a5761010080835404028352916020019162001256565b820191906000526020600020905b8154815290600101906020018083116200123857829003601f168201915b505050505081565b336000908152609b602052604090205460ff161515600114620012955760405162461bcd60e51b81526004016200075c9062002893565b337fb8e138887d0aa13bab447e82de9d5c1777041ecd21ca36ba824ff1e6c07ddda48383620012c684838362001c7d565b6040805193845260ff90921660208401526001600160601b03169082015260806060820181905260009082015260a00160405180910390a25050565b6033546001600160a01b031633146200132f5760405162461bcd60e51b81526004016200075c906200285e565b6200133b600062001edb565b565b609d6020528160005260406000208181548110620011b957600080fd5b336000908152609b602052604081205460ff161515600114620013915760405162461bcd60e51b81526004016200075c9062002893565b82518451146200140a5760405162461bcd60e51b815260206004820152603b60248201527f504143543a3a70726f706f73653a2070726f706f73616c2066756e6374696f6e60448201527f20696e666f726d6174696f6e206172697479206d69736d61746368000000000060648201526084016200075c565b8351620014665760405162461bcd60e51b815260206004820152602360248201527f504143543a3a70726f706f73653a206d7573742070726f7669646520616374696044820152626f6e7360e81b60648201526084016200075c565b600a84511115620014ba5760405162461bcd60e51b815260206004820152601f60248201527f504143543a3a70726f706f73653a20746f6f206d616e7920616374696f6e730060448201526064016200075c565b6000620014cb436207e90062001f2d565b6040805161010081018252609a80548083523360208401529282018490526000606083018190526080830181905260a0830181905260c0830181905260e0830181905293945090926200151e8362002b07565b909155505080516000908152609c602090815260408083208451808255838601516001830180546001600160a01b039092166001600160a01b0319909216919091179055828601516002830155606086015160038301556080860151600483015560a0860151600583015560c08601516006909201805460e088015115156101000261ff00199415159490941661ffff1990911617929092179091558352609d82529091208751620015d39289019062002029565b5080516000908152609e602090815260409091208651620015f7928801906200208d565b5080516020808301516001600160a01b0316600090815260a090915260409081902091909155815190517fd21260fef4e3a940974fea60f4f0358e0c66662bfca670bbbc844c9d6077f87991620016589133908a908a9088908b906200290b565b60405180910390a15195945050505050565b6033546001600160a01b03163314620016975760405162461bcd60e51b81526004016200075c906200285e565b6001600160a01b0381166000908152609b602052604090205460ff16156200170c5760405162461bcd60e51b815260206004820152602160248201527f504143543a3a6164644d656d6265723a20616c72656164792061206d656d62656044820152603960f91b60648201526084016200075c565b6001600160a01b0381166000818152609b6020908152604091829020805460ff1916600117905590519182527fb251eb052afc73ffd02ffe85ad79990a8b3fed60d76dbc2fa2fdd7123dffd9149101620008f6565b6033546001600160a01b031633146200178e5760405162461bcd60e51b81526004016200075c906200285e565b6001600160a01b038116620017f55760405162461bcd60e51b815260206004820152602660248201527f4f776e61626c653a206e6577206f776e657220697320746865207a65726f206160448201526564647265737360d01b60648201526084016200075c565b620018008162001edb565b50565b336000908152609b602052604090205460ff1615156001146200183a5760405162461bcd60e51b81526004016200075c9062002893565b6004620018478262000adc565b60058111156200186757634e487b7160e01b600052602160045260246000fd5b14620018dc5760405162461bcd60e51b815260206004820152603f60248201527f504143543a3a657865637574653a2070726f706f73616c2063616e206f6e6c7960448201527f206265206578656375746564206966206974206973207375636365656465640060648201526084016200075c565b6000818152609c6020908152604080832060068101805461ff001916610100179055609e9092528220549091905b8082101562001bd2576000848152609d60205260409020805460609190849081106200194657634e487b7160e01b600052603260045260246000fd5b9060005260206000200180546200195d9062002ad0565b1515905062001a38576000858152609e602052604090208054849081106200199557634e487b7160e01b600052603260045260246000fd5b906000526020600020018054620019ac9062002ad0565b80601f0160208091040260200160405190810160405280929190818152602001828054620019da9062002ad0565b801562001a2b5780601f10620019ff5761010080835404028352916020019162001a2b565b820191906000526020600020905b81548152906001019060200180831162001a0d57829003601f168201915b5050505050905062001aea565b6000858152609d6020526040902080548490811062001a6757634e487b7160e01b600052603260045260246000fd5b9060005260206000200160405162001a809190620027e0565b6040518091039020609e6000878152602001908152602001600020848154811062001abb57634e487b7160e01b600052603260045260246000fd5b9060005260206000200160405160200162001ad89291906200279c565b60405160208183030381529060405290505b6098546040516000916001600160a01b031690829062001b0c908590620027c2565b60006040518083038185875af1925050503d806000811462001b4b576040519150601f19603f3d011682016040523d82523d6000602084013e62001b50565b606091505b505090508062001bba5760405162461bcd60e51b815260206004820152602e60248201527f504143543a3a657865637574653a205472616e73616374696f6e20657865637560448201526d3a34b7b7103932bb32b93a32b21760911b60648201526084016200075c565b5050818062001bc99062002b07565b9250506200190a565b6040518481527f712ae1383f79ac853f8d882153778e0260ef8f03b504e2866e0593e04d2b291f9060200160405180910390a150505050565b600054610100900460ff1662001c355760405162461bcd60e51b81526004016200075c90620028c0565b62001c3f62001f8b565b6200133b62001fb5565b600054610100900460ff1662001c735760405162461bcd60e51b81526004016200075c90620028c0565b6200133b62001fea565b6000600162001c8c8462000adc565b600581111562001cac57634e487b7160e01b600052602160045260246000fd5b1462001d0c5760405162461bcd60e51b815260206004820152602860248201527f504143543a3a63617374566f7465496e7465726e616c3a20766f74696e6720696044820152671cc818db1bdcd95960c21b60648201526084016200075c565b60028260ff16111562001d745760405162461bcd60e51b815260206004820152602960248201527f504143543a3a63617374566f7465496e7465726e616c3a20696e76616c696420604482015268766f7465207479706560b81b60648201526084016200075c565b6000838152609c60209081526040808320609f83528184206001600160a01b0389168552909252909120805460ff161562001e065760405162461bcd60e51b815260206004820152602b60248201527f504143543a3a63617374566f7465496e7465726e616c3a20766f74657220616c60448201526a1c9958591e481d9bdd195960aa1b60648201526084016200075c565b600160ff851662001e355762001e2a8360040154826001600160601b031662001f2d565b600484015562001e92565b8460ff166001141562001e665762001e5b8360030154826001600160601b031662001f2d565b600384015562001e92565b8460ff166002141562001e925762001e8c8360050154826001600160601b031662001f2d565b60058401555b81546001600160601b03821662010000026dffffffffffffffffffffffff00001960ff88166101000261ffff199093169290921760011791909116179091559150509392505050565b603380546001600160a01b038381166001600160a01b0319831681179093556040519116919082907f8be0079c531659141344cd1fd0a4f28419497f9722a3daafe3b4186f6b6457e090600090a35050565b60008062001f3c838562002a82565b90508381101562001f845760405162461bcd60e51b81526020600482015260116024820152706164646974696f6e206f766572666c6f7760781b60448201526064016200075c565b9392505050565b600054610100900460ff166200133b5760405162461bcd60e51b81526004016200075c90620028c0565b600054610100900460ff1662001fdf5760405162461bcd60e51b81526004016200075c90620028c0565b6200133b3362001edb565b600054610100900460ff16620020145760405162461bcd60e51b81526004016200075c90620028c0565b6001606555565b6107978062002b6883390190565b8280548282559060005260206000209081019282156200207b579160200282015b828111156200207b57825180516200206a918491602090910190620020ed565b50916020019190600101906200204a565b506200208992915062002178565b5090565b828054828255906000526020600020908101928215620020df579160200282015b82811115620020df5782518051620020ce918491602090910190620020ed565b5091602001919060010190620020ae565b506200208992915062002199565b828054620020fb9062002ad0565b90600052602060002090601f0160209004810192826200211f57600085556200216a565b82601f106200213a57805160ff19168380011785556200216a565b828001600101855582156200216a579182015b828111156200216a5782518255916020019190600101906200214d565b5062002089929150620021ba565b80821115620020895760006200218f8282620021d1565b5060010162002178565b8082111562002089576000620021b08282620021d1565b5060010162002199565b5b80821115620020895760008155600101620021bb565b508054620021df9062002ad0565b6000825580601f10620021f0575050565b601f016020900490600052602060002090810190620018009190620021ba565b600067ffffffffffffffff8311156200222d576200222d62002b3b565b62002242601f8401601f191660200162002a27565b90508281528383830111156200225757600080fd5b828260208301376000602084830101529392505050565b600082601f8301126200227f578081fd5b8135602062002298620022928362002a5b565b62002a27565b80838252828201915082860187848660051b8901011115620022b8578586fd5b855b858110156200231257813567ffffffffffffffff811115620022da578788fd5b8801603f81018a13620022eb578788fd5b620022fe8a878301356040840162002210565b8552509284019290840190600101620022ba565b5090979650505050505050565b600082601f83011262002330578081fd5b62001f848383356020850162002210565b60006020828403121562002353578081fd5b813562001f848162002b51565b60008060006060848603121562002375578182fd5b833567ffffffffffffffff808211156200238d578384fd5b818601915086601f830112620023a1578384fd5b81356020620023b4620022928362002a5b565b8083825282820191508286018b848660051b8901011115620023d4578889fd5b885b858110156200241257813587811115620023ee578a8bfd5b620023fe8e87838c01016200231f565b8552509284019290840190600101620023d6565b509098505050870135925050808211156200242b578384fd5b62002439878388016200226e565b935060408601359150808211156200244f578283fd5b506200245e868287016200231f565b9150509250925092565b6000602082840312156200247a578081fd5b5035919050565b6000806040838503121562002494578182fd5b823591506020830135620024a88162002b51565b809150509250929050565b60008060008060608587031215620024c9578081fd5b843593506020850135620024dd8162002b51565b9250604085013567ffffffffffffffff80821115620024fa578283fd5b818701915087601f8301126200250e578283fd5b8135818111156200251d578384fd5b8860208260051b850101111562002532578384fd5b95989497505060200194505050565b6000806040838503121562002554578182fd5b50508035926020909101359150565b6000806040838503121562002576578182fd5b82359150602083013560ff81168114620024a8578182fd5b6000815180845260208085019450848260051b8601828601855b8581101562002312578383038952620025c383835162002678565b98850198925090840190600101620025a8565b600081548084526020808501808196508360051b81019150858552828520855b85811015620026235782840389526200261084836200271d565b98850198935060019182019101620025f6565b5091979650505050505050565b6000815180845260208085019450848260051b8601828601855b85811015620023125783830389526200266583835162002678565b988501989250908401906001016200264a565b600081518084526200269281602086016020860162002a9d565b601f01601f19169290920160200192915050565b60008154620026b58162002ad0565b60018281168015620026d05760018114620026e25762002713565b60ff1984168752828701945062002713565b8560005260208060002060005b858110156200270a5781548a820152908401908201620026ef565b50505082870194505b5050505092915050565b600081546200272c8162002ad0565b8085526020600183811680156200274c5760018114620027615762002791565b60ff1985168884015260408801955062002791565b866000528260002060005b85811015620027895781548a82018601529083019084016200276c565b890184019650505b505050505092915050565b6001600160e01b0319831681526000620027ba6004830184620026a6565b949350505050565b60008251620027d681846020870162002a9d565b9190910192915050565b600062001f848284620026a6565b60408152600062002803604083018562002630565b82810360208401526200281781856200258e565b95945050505050565b60208152600062001f84602083018462002678565b60208101600683106200285857634e487b7160e01b600052602160045260246000fd5b91905290565b6020808252818101527f4f776e61626c653a2063616c6c6572206973206e6f7420746865206f776e6572604082015260600190565b6020808252601390820152722820a1aa1d1d102737ba10309036b2b6b132b960691b604082015260600190565b6020808252602b908201527f496e697469616c697a61626c653a20636f6e7472616374206973206e6f74206960408201526a6e697469616c697a696e6760a81b606082015260800190565b8681526001600160a01b038616602082015260c060408201819052600090620029379083018762002630565b82810360608401526200294b81876200258e565b905084608084015282810360a084015262002967818562002678565b9998505050505050505050565b600060c08201878352602060018060a01b0388168185015260c0604085015281875480845260e08601915060e08160051b8701019350888552828520855b82811015620029e35787860360df19018452620029d086836200271d565b95509284019260019182019101620029b2565b50505050508281036060840152620029fc8186620025d6565b905083608084015282810360a084015262002a1b816000815260200190565b98975050505050505050565b604051601f8201601f1916810167ffffffffffffffff8111828210171562002a535762002a5362002b3b565b604052919050565b600067ffffffffffffffff82111562002a785762002a7862002b3b565b5060051b60200190565b6000821982111562002a985762002a9862002b25565b500190565b60005b8381101562002aba57818101518382015260200162002aa0565b8381111562002aca576000848401525b50505050565b600181811c9082168062002ae557607f821691505b6020821081141562000bbe57634e487b7160e01b600052602260045260246000fd5b600060001982141562002b1e5762002b1e62002b25565b5060010190565b634e487b7160e01b600052601160045260246000fd5b634e487b7160e01b600052604160045260246000fd5b6001600160a01b03811681146200180057600080fdfe608060405234801561001057600080fd5b5061001a3361001f565b61006f565b600080546001600160a01b038381166001600160a01b0319831681178455604051919092169283917f8be0079c531659141344cd1fd0a4f28419497f9722a3daafe3b4186f6b6457e09190a35050565b6107198061007e6000396000f3fe60806040526004361061007b5760003560e01c80639623609d1161004e5780639623609d1461011157806399a88ec414610124578063f2fde38b14610144578063f3b7dead1461016457600080fd5b8063204e1c7a14610080578063715018a6146100bc5780637eff275e146100d35780638da5cb5b146100f3575b600080fd5b34801561008c57600080fd5b506100a061009b3660046104d8565b610184565b6040516001600160a01b03909116815260200160405180910390f35b3480156100c857600080fd5b506100d1610215565b005b3480156100df57600080fd5b506100d16100ee366004610517565b610254565b3480156100ff57600080fd5b506000546001600160a01b03166100a0565b6100d161011f36600461054f565b6102de565b34801561013057600080fd5b506100d161013f366004610517565b61036f565b34801561015057600080fd5b506100d161015f3660046104d8565b6103c7565b34801561017057600080fd5b506100a061017f3660046104d8565b610462565b6000806000836001600160a01b03166040516101aa90635c60da1b60e01b815260040190565b600060405180830381855afa9150503d80600081146101e5576040519150601f19603f3d011682016040523d82523d6000602084013e6101ea565b606091505b5091509150816101f957600080fd5b8080602001905181019061020d91906104fb565b949350505050565b6000546001600160a01b031633146102485760405162461bcd60e51b815260040161023f90610683565b60405180910390fd5b6102526000610488565b565b6000546001600160a01b0316331461027e5760405162461bcd60e51b815260040161023f90610683565b6040516308f2839760e41b81526001600160a01b038281166004830152831690638f283970906024015b600060405180830381600087803b1580156102c257600080fd5b505af11580156102d6573d6000803e3d6000fd5b505050505050565b6000546001600160a01b031633146103085760405162461bcd60e51b815260040161023f90610683565b60405163278f794360e11b81526001600160a01b03841690634f1ef2869034906103389086908690600401610620565b6000604051808303818588803b15801561035157600080fd5b505af1158015610365573d6000803e3d6000fd5b5050505050505050565b6000546001600160a01b031633146103995760405162461bcd60e51b815260040161023f90610683565b604051631b2ce7f360e11b81526001600160a01b038281166004830152831690633659cfe6906024016102a8565b6000546001600160a01b031633146103f15760405162461bcd60e51b815260040161023f90610683565b6001600160a01b0381166104565760405162461bcd60e51b815260206004820152602660248201527f4f776e61626c653a206e6577206f776e657220697320746865207a65726f206160448201526564647265737360d01b606482015260840161023f565b61045f81610488565b50565b6000806000836001600160a01b03166040516101aa906303e1469160e61b815260040190565b600080546001600160a01b038381166001600160a01b0319831681178455604051919092169283917f8be0079c531659141344cd1fd0a4f28419497f9722a3daafe3b4186f6b6457e09190a35050565b6000602082840312156104e9578081fd5b81356104f4816106ce565b9392505050565b60006020828403121561050c578081fd5b81516104f4816106ce565b60008060408385031215610529578081fd5b8235610534816106ce565b91506020830135610544816106ce565b809150509250929050565b600080600060608486031215610563578081fd5b833561056e816106ce565b9250602084013561057e816106ce565b9150604084013567ffffffffffffffff8082111561059a578283fd5b818601915086601f8301126105ad578283fd5b8135818111156105bf576105bf6106b8565b604051601f8201601f19908116603f011681019083821181831017156105e7576105e76106b8565b816040528281528960208487010111156105ff578586fd5b82602086016020830137856020848301015280955050505050509250925092565b60018060a01b0383168152600060206040818401528351806040850152825b8181101561065b5785810183015185820160600152820161063f565b8181111561066c5783606083870101525b50601f01601f191692909201606001949350505050565b6020808252818101527f4f776e61626c653a2063616c6c6572206973206e6f7420746865206f776e6572604082015260600190565b634e487b7160e01b600052604160045260246000fd5b6001600160a01b038116811461045f57600080fdfea2646970667358221220e38caf5ca305d28cfea5924808a41fd6f9ab62ed165ed1becf8858d95ea882a264736f6c63430008040033a26469706673582212203ecb24101f36f011bda805d33e3bf235cfcb91cfe657917f83394c8a264b939064736f6c63430008040033",
  "devdoc": {
    "events": {
      "TransferERC20(address,address,uint256)": {
        "params": {
          "amount": "Amount of the transaction",
          "to": "Address of the receiver",
          "token": "ERC20 token address"
        }
      },
      "VoteCast(address,uint256,uint8,uint256,string)": {
        "params": {
          "proposalId": "The proposal id which was voted on",
          "reason": "The reason given for the vote by the voter",
          "support": "Support value for the vote. 0=against, 1=for, 2=abstain",
          "voter": "The address which casted a vote",
          "votes": "Number of votes which were cast by the voter"
        }
      }
    },
    "kind": "dev",
    "methods": {
      "addMember(address)": {
        "params": {
          "_member": "Member address."
        }
      },
      "cancel(uint256)": {
        "params": {
          "_proposalId": "The id of the proposal to cancel"
        }
      },
      "castVote(uint256,uint8)": {
        "params": {
          "_proposalId": "The id of the proposal to vote on",
          "_support": "The support value for the vote. 0=against, 1=for, 2=abstain"
        }
      },
      "execute(uint256)": {
        "params": {
          "_proposalId": "The id of the proposal to execute"
        }
      },
      "getActions(uint256)": {
        "params": {
          "_proposalId": "Proposal to query."
        },
        "returns": {
          "calldatas": "Calldatas for proposal calls.",
          "signatures": "Function signatures for proposal calls."
        }
      },
      "getReceipt(uint256,address)": {
        "params": {
          "_proposalId": "the id of proposal",
          "_voter": "The address of the voter"
        },
        "returns": {
          "_0": "The voting receipt"
        }
      },
      "initialize(uint256,address,address[])": {
        "params": {
          "_quorumVotes": "The initial quorum votes"
        }
      },
      "owner()": {
        "details": "Returns the address of the current owner."
      },
      "propose(string[],bytes[],string)": {
        "params": {
          "_calldatas": "Calldatas for proposal calls.",
          "_description": "String description of the proposal.",
          "_signatures": "Function signatures for proposal calls."
        },
        "returns": {
          "_0": "Proposal id of new proposal."
        }
      },
      "removeMember(address)": {
        "params": {
          "_member": "Member address."
        }
      },
      "renounceOwnership()": {
        "details": "Leaves the contract without owner. It will not be possible to call `onlyOwner` functions anymore. Can only be called by the current owner. NOTE: Renouncing ownership will leave the contract without an owner, thereby removing any functionality that is only available to the owner."
      },
      "setQuorumVotes(uint256)": {
        "params": {
          "_newQuorumVotes": "new quorum votes"
        }
      },
      "state(uint256)": {
        "params": {
          "_proposalId": "The id of the proposal"
        },
        "returns": {
          "_0": "Proposal state"
        }
      },
      "transferOwnership(address)": {
        "details": "Transfers ownership of the contract to a new account (`newOwner`). Can only be called by the current owner."
      }
    },
    "version": 1
  },
  "userdoc": {
    "events": {
      "MemberAdded(address)": {
        "notice": "An event emitted when a member is added"
      },
      "MemberRemoved(address)": {
        "notice": "An event emitted when a member is removed"
      },
      "NewImplementation(address,address)": {
        "notice": "Emitted when implementation is changed"
      },
      "ProposalCanceled(uint256)": {
        "notice": "An event emitted when a proposal has been canceled"
      },
      "ProposalCreated(uint256,address,string[],bytes[],uint256,string)": {
        "notice": "An event emitted when a new proposal is created"
      },
      "ProposalExecuted(uint256)": {
        "notice": "An event emitted when a proposal has been executed in the Timelock"
      },
      "QuorumVotesSet(uint256,uint256)": {
        "notice": "An event emitted when the quorum votes is set"
      },
      "TransferERC20(address,address,uint256)": {
        "notice": "Triggered when an amount of an ERC20 has been transferred from this contract to an address"
      },
      "VoteCast(address,uint256,uint8,uint256,string)": {
        "notice": "An event emitted when a vote has been cast on a proposal"
      }
    },
    "kind": "user",
    "methods": {
      "MAX_VOTING_PERIOD()": {
        "notice": "The max setable voting period"
      },
      "PROPOSAL_MAX_OPERATIONS()": {
        "notice": "The maximum number of actions that can be included in a proposal"
      },
      "addMember(address)": {
        "notice": "Function used to add new members to the impactMarket Council."
      },
      "cancel(uint256)": {
        "notice": "Cancels a proposal only if sender is the proposer, or proposer delegates dropped below proposal threshold"
      },
      "castVote(uint256,uint8)": {
        "notice": "Cast a vote for a proposal"
      },
      "execute(uint256)": {
        "notice": "Executes a queued proposal if eta has passed"
      },
      "getActions(uint256)": {
        "notice": "Gets actions of a proposal."
      },
      "getReceipt(uint256,address)": {
        "notice": "Gets the receipt for a voter on a given proposal"
      },
      "initialize(uint256,address,address[])": {
        "notice": "Used to initialize the contract during delegator constructor"
      },
      "latestProposalIds(address)": {
        "notice": "The latest proposal for each proposer"
      },
      "members(address)": {
        "notice": "The council members"
      },
      "proposalCalldatas(uint256,uint256)": {
        "notice": "The official each proposal's calldatas: An ordered list of calldata to be passed to each call"
      },
      "proposalCount()": {
        "notice": "The total number of proposals"
      },
      "proposalReceipts(uint256,address)": {
        "notice": "The official each proposal's receipts: Receipts of ballots for the entire set of voters"
      },
      "proposalSignatures(uint256,uint256)": {
        "notice": "The official each proposal's signatures: An ordered list of function signatures to be called"
      },
      "proposals(uint256)": {
        "notice": "The official record of all proposals ever proposed"
      },
      "propose(string[],bytes[],string)": {
        "notice": "Function used to propose a new proposal. Sender must have delegates above the proposal threshold."
      },
      "quorumVotes()": {
        "notice": "The number of votes in support of a proposal required in order for a quorum to be reached and for a vote to succeed"
      },
      "removeMember(address)": {
        "notice": "Function used to remove members from the impactMarket Council."
      },
      "setQuorumVotes(uint256)": {
        "notice": "Owner function for setting the quorum votes"
      },
      "state(uint256)": {
        "notice": "Gets the state of a proposal"
      }
    },
    "version": 1
  },
  "storageLayout": {
    "storage": [
      {
        "astId": 542,
        "contract": "contracts/governor/impactMarketCouncil/ImpactMarketCouncilImplementation.sol:ImpactMarketCouncilImplementation",
        "label": "_initialized",
        "offset": 0,
        "slot": "0",
        "type": "t_bool"
      },
      {
        "astId": 545,
        "contract": "contracts/governor/impactMarketCouncil/ImpactMarketCouncilImplementation.sol:ImpactMarketCouncilImplementation",
        "label": "_initializing",
        "offset": 1,
        "slot": "0",
        "type": "t_bool"
      },
      {
        "astId": 1068,
        "contract": "contracts/governor/impactMarketCouncil/ImpactMarketCouncilImplementation.sol:ImpactMarketCouncilImplementation",
        "label": "__gap",
        "offset": 0,
        "slot": "1",
        "type": "t_array(t_uint256)50_storage"
      },
      {
        "astId": 420,
        "contract": "contracts/governor/impactMarketCouncil/ImpactMarketCouncilImplementation.sol:ImpactMarketCouncilImplementation",
        "label": "_owner",
        "offset": 0,
        "slot": "51",
        "type": "t_address"
      },
      {
        "astId": 534,
        "contract": "contracts/governor/impactMarketCouncil/ImpactMarketCouncilImplementation.sol:ImpactMarketCouncilImplementation",
        "label": "__gap",
        "offset": 0,
        "slot": "52",
        "type": "t_array(t_uint256)49_storage"
      },
      {
        "astId": 736,
        "contract": "contracts/governor/impactMarketCouncil/ImpactMarketCouncilImplementation.sol:ImpactMarketCouncilImplementation",
        "label": "_status",
        "offset": 0,
        "slot": "101",
        "type": "t_uint256"
      },
      {
        "astId": 779,
        "contract": "contracts/governor/impactMarketCouncil/ImpactMarketCouncilImplementation.sol:ImpactMarketCouncilImplementation",
        "label": "__gap",
        "offset": 0,
        "slot": "102",
        "type": "t_array(t_uint256)49_storage"
      },
      {
        "astId": 17650,
        "contract": "contracts/governor/impactMarketCouncil/ImpactMarketCouncilImplementation.sol:ImpactMarketCouncilImplementation",
        "label": "communityProxyAdmin",
        "offset": 0,
        "slot": "151",
        "type": "t_contract(ProxyAdmin)2567"
      },
      {
        "astId": 17653,
        "contract": "contracts/governor/impactMarketCouncil/ImpactMarketCouncilImplementation.sol:ImpactMarketCouncilImplementation",
        "label": "communityAdmin",
        "offset": 0,
        "slot": "152",
        "type": "t_contract(ICommunityAdmin)12077"
      },
      {
        "astId": 17656,
        "contract": "contracts/governor/impactMarketCouncil/ImpactMarketCouncilImplementation.sol:ImpactMarketCouncilImplementation",
        "label": "quorumVotes",
        "offset": 0,
        "slot": "153",
        "type": "t_uint256"
      },
      {
        "astId": 17659,
        "contract": "contracts/governor/impactMarketCouncil/ImpactMarketCouncilImplementation.sol:ImpactMarketCouncilImplementation",
        "label": "proposalCount",
        "offset": 0,
        "slot": "154",
        "type": "t_uint256"
      },
      {
        "astId": 17664,
        "contract": "contracts/governor/impactMarketCouncil/ImpactMarketCouncilImplementation.sol:ImpactMarketCouncilImplementation",
        "label": "members",
        "offset": 0,
        "slot": "155",
        "type": "t_mapping(t_address,t_bool)"
      },
      {
        "astId": 17670,
        "contract": "contracts/governor/impactMarketCouncil/ImpactMarketCouncilImplementation.sol:ImpactMarketCouncilImplementation",
        "label": "proposals",
        "offset": 0,
        "slot": "156",
        "type": "t_mapping(t_uint256,t_struct(Proposal)17712_storage)"
      },
      {
        "astId": 17676,
        "contract": "contracts/governor/impactMarketCouncil/ImpactMarketCouncilImplementation.sol:ImpactMarketCouncilImplementation",
        "label": "proposalSignatures",
        "offset": 0,
        "slot": "157",
        "type": "t_mapping(t_uint256,t_array(t_string_storage)dyn_storage)"
      },
      {
        "astId": 17682,
        "contract": "contracts/governor/impactMarketCouncil/ImpactMarketCouncilImplementation.sol:ImpactMarketCouncilImplementation",
        "label": "proposalCalldatas",
        "offset": 0,
        "slot": "158",
        "type": "t_mapping(t_uint256,t_array(t_bytes_storage)dyn_storage)"
      },
      {
        "astId": 17690,
        "contract": "contracts/governor/impactMarketCouncil/ImpactMarketCouncilImplementation.sol:ImpactMarketCouncilImplementation",
        "label": "proposalReceipts",
        "offset": 0,
        "slot": "159",
        "type": "t_mapping(t_uint256,t_mapping(t_address,t_struct(Receipt)17719_storage))"
      },
      {
        "astId": 17695,
        "contract": "contracts/governor/impactMarketCouncil/ImpactMarketCouncilImplementation.sol:ImpactMarketCouncilImplementation",
        "label": "latestProposalIds",
        "offset": 0,
        "slot": "160",
        "type": "t_mapping(t_address,t_uint256)"
      }
    ],
    "types": {
      "t_address": {
        "encoding": "inplace",
        "label": "address",
        "numberOfBytes": "20"
      },
      "t_array(t_bytes_storage)dyn_storage": {
        "base": "t_bytes_storage",
        "encoding": "dynamic_array",
        "label": "bytes[]",
        "numberOfBytes": "32"
      },
      "t_array(t_string_storage)dyn_storage": {
        "base": "t_string_storage",
        "encoding": "dynamic_array",
        "label": "string[]",
        "numberOfBytes": "32"
      },
      "t_array(t_uint256)49_storage": {
        "base": "t_uint256",
        "encoding": "inplace",
        "label": "uint256[49]",
        "numberOfBytes": "1568"
      },
      "t_array(t_uint256)50_storage": {
        "base": "t_uint256",
        "encoding": "inplace",
        "label": "uint256[50]",
        "numberOfBytes": "1600"
      },
      "t_bool": {
        "encoding": "inplace",
        "label": "bool",
        "numberOfBytes": "1"
      },
      "t_bytes_storage": {
        "encoding": "bytes",
        "label": "bytes",
        "numberOfBytes": "32"
      },
      "t_contract(ICommunityAdmin)12077": {
        "encoding": "inplace",
        "label": "contract ICommunityAdmin",
        "numberOfBytes": "20"
      },
      "t_contract(ProxyAdmin)2567": {
        "encoding": "inplace",
        "label": "contract ProxyAdmin",
        "numberOfBytes": "20"
      },
      "t_mapping(t_address,t_bool)": {
        "encoding": "mapping",
        "key": "t_address",
        "label": "mapping(address => bool)",
        "numberOfBytes": "32",
        "value": "t_bool"
      },
      "t_mapping(t_address,t_struct(Receipt)17719_storage)": {
        "encoding": "mapping",
        "key": "t_address",
        "label": "mapping(address => struct ImpactMarketCouncilStorageV1.Receipt)",
        "numberOfBytes": "32",
        "value": "t_struct(Receipt)17719_storage"
      },
      "t_mapping(t_address,t_uint256)": {
        "encoding": "mapping",
        "key": "t_address",
        "label": "mapping(address => uint256)",
        "numberOfBytes": "32",
        "value": "t_uint256"
      },
      "t_mapping(t_uint256,t_array(t_bytes_storage)dyn_storage)": {
        "encoding": "mapping",
        "key": "t_uint256",
        "label": "mapping(uint256 => bytes[])",
        "numberOfBytes": "32",
        "value": "t_array(t_bytes_storage)dyn_storage"
      },
      "t_mapping(t_uint256,t_array(t_string_storage)dyn_storage)": {
        "encoding": "mapping",
        "key": "t_uint256",
        "label": "mapping(uint256 => string[])",
        "numberOfBytes": "32",
        "value": "t_array(t_string_storage)dyn_storage"
      },
      "t_mapping(t_uint256,t_mapping(t_address,t_struct(Receipt)17719_storage))": {
        "encoding": "mapping",
        "key": "t_uint256",
        "label": "mapping(uint256 => mapping(address => struct ImpactMarketCouncilStorageV1.Receipt))",
        "numberOfBytes": "32",
        "value": "t_mapping(t_address,t_struct(Receipt)17719_storage)"
      },
      "t_mapping(t_uint256,t_struct(Proposal)17712_storage)": {
        "encoding": "mapping",
        "key": "t_uint256",
        "label": "mapping(uint256 => struct ImpactMarketCouncilStorageV1.Proposal)",
        "numberOfBytes": "32",
        "value": "t_struct(Proposal)17712_storage"
      },
      "t_string_storage": {
        "encoding": "bytes",
        "label": "string",
        "numberOfBytes": "32"
      },
      "t_struct(Proposal)17712_storage": {
        "encoding": "inplace",
        "label": "struct ImpactMarketCouncilStorageV1.Proposal",
        "members": [
          {
            "astId": 17697,
            "contract": "contracts/governor/impactMarketCouncil/ImpactMarketCouncilImplementation.sol:ImpactMarketCouncilImplementation",
            "label": "id",
            "offset": 0,
            "slot": "0",
            "type": "t_uint256"
          },
          {
            "astId": 17699,
            "contract": "contracts/governor/impactMarketCouncil/ImpactMarketCouncilImplementation.sol:ImpactMarketCouncilImplementation",
            "label": "proposer",
            "offset": 0,
            "slot": "1",
            "type": "t_address"
          },
          {
            "astId": 17701,
            "contract": "contracts/governor/impactMarketCouncil/ImpactMarketCouncilImplementation.sol:ImpactMarketCouncilImplementation",
            "label": "endBlock",
            "offset": 0,
            "slot": "2",
            "type": "t_uint256"
          },
          {
            "astId": 17703,
            "contract": "contracts/governor/impactMarketCouncil/ImpactMarketCouncilImplementation.sol:ImpactMarketCouncilImplementation",
            "label": "forVotes",
            "offset": 0,
            "slot": "3",
            "type": "t_uint256"
          },
          {
            "astId": 17705,
            "contract": "contracts/governor/impactMarketCouncil/ImpactMarketCouncilImplementation.sol:ImpactMarketCouncilImplementation",
            "label": "againstVotes",
            "offset": 0,
            "slot": "4",
            "type": "t_uint256"
          },
          {
            "astId": 17707,
            "contract": "contracts/governor/impactMarketCouncil/ImpactMarketCouncilImplementation.sol:ImpactMarketCouncilImplementation",
            "label": "abstainVotes",
            "offset": 0,
            "slot": "5",
            "type": "t_uint256"
          },
          {
            "astId": 17709,
            "contract": "contracts/governor/impactMarketCouncil/ImpactMarketCouncilImplementation.sol:ImpactMarketCouncilImplementation",
            "label": "canceled",
            "offset": 0,
            "slot": "6",
            "type": "t_bool"
          },
          {
            "astId": 17711,
            "contract": "contracts/governor/impactMarketCouncil/ImpactMarketCouncilImplementation.sol:ImpactMarketCouncilImplementation",
            "label": "executed",
            "offset": 1,
            "slot": "6",
            "type": "t_bool"
          }
        ],
        "numberOfBytes": "224"
      },
      "t_struct(Receipt)17719_storage": {
        "encoding": "inplace",
        "label": "struct ImpactMarketCouncilStorageV1.Receipt",
        "members": [
          {
            "astId": 17714,
            "contract": "contracts/governor/impactMarketCouncil/ImpactMarketCouncilImplementation.sol:ImpactMarketCouncilImplementation",
            "label": "hasVoted",
            "offset": 0,
            "slot": "0",
            "type": "t_bool"
          },
          {
            "astId": 17716,
            "contract": "contracts/governor/impactMarketCouncil/ImpactMarketCouncilImplementation.sol:ImpactMarketCouncilImplementation",
            "label": "support",
            "offset": 1,
            "slot": "0",
            "type": "t_uint8"
          },
          {
            "astId": 17718,
            "contract": "contracts/governor/impactMarketCouncil/ImpactMarketCouncilImplementation.sol:ImpactMarketCouncilImplementation",
            "label": "votes",
            "offset": 2,
            "slot": "0",
            "type": "t_uint96"
          }
        ],
        "numberOfBytes": "32"
      },
      "t_uint256": {
        "encoding": "inplace",
        "label": "uint256",
        "numberOfBytes": "32"
      },
      "t_uint8": {
        "encoding": "inplace",
        "label": "uint8",
        "numberOfBytes": "1"
      },
      "t_uint96": {
        "encoding": "inplace",
        "label": "uint96",
        "numberOfBytes": "12"
      }
    }
  }
}