{
  "address": "0x6dB8df7e3B471Da88Fdf98C90097Ac05Cc5F3FdD",
  "abi": [
    {
      "anonymous": false,
      "inputs": [
        {
          "indexed": false,
          "internalType": "address",
          "name": "member",
          "type": "address"
        }
      ],
      "name": "MemberAdded",
      "type": "event"
    },
    {
      "anonymous": false,
      "inputs": [
        {
          "indexed": false,
          "internalType": "address",
          "name": "member",
          "type": "address"
        }
      ],
      "name": "MemberRemoved",
      "type": "event"
    },
    {
      "anonymous": false,
      "inputs": [
        {
          "indexed": false,
          "internalType": "address",
          "name": "oldImplementation",
          "type": "address"
        },
        {
          "indexed": false,
          "internalType": "address",
          "name": "newImplementation",
          "type": "address"
        }
      ],
      "name": "NewImplementation",
      "type": "event"
    },
    {
      "anonymous": false,
      "inputs": [
        {
          "indexed": true,
          "internalType": "address",
          "name": "previousOwner",
          "type": "address"
        },
        {
          "indexed": true,
          "internalType": "address",
          "name": "newOwner",
          "type": "address"
        }
      ],
      "name": "OwnershipTransferred",
      "type": "event"
    },
    {
      "anonymous": false,
      "inputs": [
        {
          "indexed": false,
          "internalType": "uint256",
          "name": "id",
          "type": "uint256"
        }
      ],
      "name": "ProposalCanceled",
      "type": "event"
    },
    {
      "anonymous": false,
      "inputs": [
        {
          "indexed": false,
          "internalType": "uint256",
          "name": "id",
          "type": "uint256"
        },
        {
          "indexed": false,
          "internalType": "address",
          "name": "proposer",
          "type": "address"
        },
        {
          "indexed": false,
          "internalType": "address[]",
          "name": "targets",
          "type": "address[]"
        },
        {
          "indexed": false,
          "internalType": "string[]",
          "name": "signatures",
          "type": "string[]"
        },
        {
          "indexed": false,
          "internalType": "bytes[]",
          "name": "calldatas",
          "type": "bytes[]"
        },
        {
          "indexed": false,
          "internalType": "uint256",
          "name": "endBlock",
          "type": "uint256"
        },
        {
          "indexed": false,
          "internalType": "string",
          "name": "description",
          "type": "string"
        }
      ],
      "name": "ProposalCreated",
      "type": "event"
    },
    {
      "anonymous": false,
      "inputs": [
        {
          "indexed": false,
          "internalType": "uint256",
          "name": "id",
          "type": "uint256"
        }
      ],
      "name": "ProposalExecuted",
      "type": "event"
    },
    {
      "anonymous": false,
      "inputs": [
        {
          "indexed": false,
          "internalType": "uint256",
          "name": "oldQuorumVotes",
          "type": "uint256"
        },
        {
          "indexed": false,
          "internalType": "uint256",
          "name": "newQuorumVotes",
          "type": "uint256"
        }
      ],
      "name": "QuorumVotesSet",
      "type": "event"
    },
    {
      "anonymous": false,
      "inputs": [
        {
          "indexed": true,
          "internalType": "address",
          "name": "token",
          "type": "address"
        },
        {
          "indexed": true,
          "internalType": "address",
          "name": "to",
          "type": "address"
        },
        {
          "indexed": false,
          "internalType": "uint256",
          "name": "amount",
          "type": "uint256"
        }
      ],
      "name": "TransferERC20",
      "type": "event"
    },
    {
      "anonymous": false,
      "inputs": [
        {
          "indexed": true,
          "internalType": "address",
          "name": "voter",
          "type": "address"
        },
        {
          "indexed": false,
          "internalType": "uint256",
          "name": "proposalId",
          "type": "uint256"
        },
        {
          "indexed": false,
          "internalType": "uint8",
          "name": "support",
          "type": "uint8"
        },
        {
          "indexed": false,
          "internalType": "uint256",
          "name": "votes",
          "type": "uint256"
        },
        {
          "indexed": false,
          "internalType": "string",
          "name": "reason",
          "type": "string"
        }
      ],
      "name": "VoteCast",
      "type": "event"
    },
    {
      "inputs": [],
      "name": "MAX_VOTING_PERIOD",
      "outputs": [
        {
          "internalType": "uint256",
          "name": "",
          "type": "uint256"
        }
      ],
      "stateMutability": "view",
      "type": "function"
    },
    {
      "inputs": [],
      "name": "PROPOSAL_MAX_OPERATIONS",
      "outputs": [
        {
          "internalType": "uint256",
          "name": "",
          "type": "uint256"
        }
      ],
      "stateMutability": "view",
      "type": "function"
    },
    {
      "inputs": [
        {
          "internalType": "address",
          "name": "_member",
          "type": "address"
        }
      ],
      "name": "addMember",
      "outputs": [],
      "stateMutability": "nonpayable",
      "type": "function"
    },
    {
      "inputs": [
        {
          "internalType": "uint256",
          "name": "_proposalId",
          "type": "uint256"
        }
      ],
      "name": "cancel",
      "outputs": [],
      "stateMutability": "nonpayable",
      "type": "function"
    },
    {
      "inputs": [
        {
          "internalType": "uint256",
          "name": "_proposalId",
          "type": "uint256"
        },
        {
          "internalType": "uint8",
          "name": "_support",
          "type": "uint8"
        }
      ],
      "name": "castVote",
      "outputs": [],
      "stateMutability": "nonpayable",
      "type": "function"
    },
    {
      "inputs": [],
      "name": "communityAdmin",
      "outputs": [
        {
          "internalType": "contract ICommunityAdmin",
          "name": "",
          "type": "address"
        }
      ],
      "stateMutability": "view",
      "type": "function"
    },
    {
      "inputs": [],
      "name": "communityProxyAdmin",
      "outputs": [
        {
          "internalType": "contract ProxyAdmin",
          "name": "",
          "type": "address"
        }
      ],
      "stateMutability": "view",
      "type": "function"
    },
    {
      "inputs": [
        {
          "internalType": "uint256",
          "name": "_proposalId",
          "type": "uint256"
        }
      ],
      "name": "execute",
      "outputs": [],
      "stateMutability": "payable",
      "type": "function"
    },
    {
      "inputs": [
        {
          "internalType": "uint256",
          "name": "_proposalId",
          "type": "uint256"
        }
      ],
      "name": "getActions",
      "outputs": [
        {
          "internalType": "string[]",
          "name": "signatures",
          "type": "string[]"
        },
        {
          "internalType": "bytes[]",
          "name": "calldatas",
          "type": "bytes[]"
        }
      ],
      "stateMutability": "view",
      "type": "function"
    },
    {
      "inputs": [
        {
          "internalType": "uint256",
          "name": "_proposalId",
          "type": "uint256"
        },
        {
          "internalType": "address",
          "name": "_voter",
          "type": "address"
        }
      ],
      "name": "getReceipt",
      "outputs": [
        {
          "components": [
            {
              "internalType": "bool",
              "name": "hasVoted",
              "type": "bool"
            },
            {
              "internalType": "uint8",
              "name": "support",
              "type": "uint8"
            },
            {
              "internalType": "uint96",
              "name": "votes",
              "type": "uint96"
            }
          ],
          "internalType": "struct IImpactMarketCouncil.Receipt",
          "name": "",
          "type": "tuple"
        }
      ],
      "stateMutability": "view",
      "type": "function"
    },
    {
      "inputs": [
        {
          "internalType": "uint256",
          "name": "_quorumVotes",
          "type": "uint256"
        },
        {
          "internalType": "contract ICommunityAdmin",
          "name": "_communityAdmin",
          "type": "address"
        },
        {
          "internalType": "address[]",
          "name": "_members",
          "type": "address[]"
        }
      ],
      "name": "initialize",
      "outputs": [],
      "stateMutability": "nonpayable",
      "type": "function"
    },
    {
      "inputs": [
        {
          "internalType": "address",
          "name": "",
          "type": "address"
        }
      ],
      "name": "latestProposalIds",
      "outputs": [
        {
          "internalType": "uint256",
          "name": "",
          "type": "uint256"
        }
      ],
      "stateMutability": "view",
      "type": "function"
    },
    {
      "inputs": [
        {
          "internalType": "address",
          "name": "",
          "type": "address"
        }
      ],
      "name": "members",
      "outputs": [
        {
          "internalType": "bool",
          "name": "",
          "type": "bool"
        }
      ],
      "stateMutability": "view",
      "type": "function"
    },
    {
      "inputs": [],
      "name": "owner",
      "outputs": [
        {
          "internalType": "address",
          "name": "",
          "type": "address"
        }
      ],
      "stateMutability": "view",
      "type": "function"
    },
    {
      "inputs": [
        {
          "internalType": "uint256",
          "name": "",
          "type": "uint256"
        },
        {
          "internalType": "uint256",
          "name": "",
          "type": "uint256"
        }
      ],
      "name": "proposalCalldatas",
      "outputs": [
        {
          "internalType": "bytes",
          "name": "",
          "type": "bytes"
        }
      ],
      "stateMutability": "view",
      "type": "function"
    },
    {
      "inputs": [],
      "name": "proposalCount",
      "outputs": [
        {
          "internalType": "uint256",
          "name": "",
          "type": "uint256"
        }
      ],
      "stateMutability": "view",
      "type": "function"
    },
    {
      "inputs": [
        {
          "internalType": "uint256",
          "name": "",
          "type": "uint256"
        },
        {
          "internalType": "address",
          "name": "",
          "type": "address"
        }
      ],
      "name": "proposalReceipts",
      "outputs": [
        {
          "internalType": "bool",
          "name": "hasVoted",
          "type": "bool"
        },
        {
          "internalType": "uint8",
          "name": "support",
          "type": "uint8"
        },
        {
          "internalType": "uint96",
          "name": "votes",
          "type": "uint96"
        }
      ],
      "stateMutability": "view",
      "type": "function"
    },
    {
      "inputs": [
        {
          "internalType": "uint256",
          "name": "",
          "type": "uint256"
        },
        {
          "internalType": "uint256",
          "name": "",
          "type": "uint256"
        }
      ],
      "name": "proposalSignatures",
      "outputs": [
        {
          "internalType": "string",
          "name": "",
          "type": "string"
        }
      ],
      "stateMutability": "view",
      "type": "function"
    },
    {
      "inputs": [
        {
          "internalType": "uint256",
          "name": "",
          "type": "uint256"
        },
        {
          "internalType": "uint256",
          "name": "",
          "type": "uint256"
        }
      ],
      "name": "proposalTargets",
      "outputs": [
        {
          "internalType": "address",
          "name": "",
          "type": "address"
        }
      ],
      "stateMutability": "view",
      "type": "function"
    },
    {
      "inputs": [
        {
          "internalType": "uint256",
          "name": "",
          "type": "uint256"
        }
      ],
      "name": "proposals",
      "outputs": [
        {
          "internalType": "uint256",
          "name": "id",
          "type": "uint256"
        },
        {
          "internalType": "address",
          "name": "proposer",
          "type": "address"
        },
        {
          "internalType": "uint256",
          "name": "endBlock",
          "type": "uint256"
        },
        {
          "internalType": "uint256",
          "name": "forVotes",
          "type": "uint256"
        },
        {
          "internalType": "uint256",
          "name": "againstVotes",
          "type": "uint256"
        },
        {
          "internalType": "uint256",
          "name": "abstainVotes",
          "type": "uint256"
        },
        {
          "internalType": "bool",
          "name": "canceled",
          "type": "bool"
        },
        {
          "internalType": "bool",
          "name": "executed",
          "type": "bool"
        }
      ],
      "stateMutability": "view",
      "type": "function"
    },
    {
      "inputs": [
        {
          "internalType": "address[]",
          "name": "_targets",
          "type": "address[]"
        },
        {
          "internalType": "string[]",
          "name": "_signatures",
          "type": "string[]"
        },
        {
          "internalType": "bytes[]",
          "name": "_calldatas",
          "type": "bytes[]"
        },
        {
          "internalType": "string",
          "name": "_description",
          "type": "string"
        }
      ],
      "name": "propose",
      "outputs": [
        {
          "internalType": "uint256",
          "name": "",
          "type": "uint256"
        }
      ],
      "stateMutability": "nonpayable",
      "type": "function"
    },
    {
      "inputs": [],
      "name": "quorumVotes",
      "outputs": [
        {
          "internalType": "uint256",
          "name": "",
          "type": "uint256"
        }
      ],
      "stateMutability": "view",
      "type": "function"
    },
    {
      "inputs": [
        {
          "internalType": "address",
          "name": "_member",
          "type": "address"
        }
      ],
      "name": "removeMember",
      "outputs": [],
      "stateMutability": "nonpayable",
      "type": "function"
    },
    {
      "inputs": [],
      "name": "renounceOwnership",
      "outputs": [],
      "stateMutability": "nonpayable",
      "type": "function"
    },
    {
      "inputs": [
        {
          "internalType": "uint256",
          "name": "_newQuorumVotes",
          "type": "uint256"
        }
      ],
      "name": "setQuorumVotes",
      "outputs": [],
      "stateMutability": "nonpayable",
      "type": "function"
    },
    {
      "inputs": [
        {
          "internalType": "uint256",
          "name": "_proposalId",
          "type": "uint256"
        }
      ],
      "name": "state",
      "outputs": [
        {
          "internalType": "enum IImpactMarketCouncil.ProposalState",
          "name": "",
          "type": "uint8"
        }
      ],
      "stateMutability": "view",
      "type": "function"
    },
    {
      "inputs": [
        {
          "internalType": "address",
          "name": "newOwner",
          "type": "address"
        }
      ],
      "name": "transferOwnership",
      "outputs": [],
      "stateMutability": "nonpayable",
      "type": "function"
    }
  ],
  "transactionHash": "0x82f65cc9837323ef27877f248e88e33d104e6f82768a43e6bb38328b90a547d1",
  "args": [],
  "numDeployments": 2,
  "solcInputHash": "50aaf976acb26e2b0d3a1c433155d544",
  "bytecode": "0x608060405234801561001057600080fd5b5061351e806100206000396000f3fe608060405260043610620001be5760003560e01c80634e42b06d11620000ff578063a64e024a1162000095578063da35c664116200006c578063da35c6641462000652578063e23a9a52146200066a578063f2fde38b1462000735578063fe0d94c1146200075a57600080fd5b8063a64e024a14620005ef578063ac6746641462000608578063ca6d56dc146200062d57600080fd5b80636617674311620000d657806366176743146200050f578063715018a614620005925780638da5cb5b14620005aa578063a4a53a1314620005ca57600080fd5b80634e42b06d14620004945780635678138814620004c85780635fac917a14620004ed57600080fd5b806317977c61116200017557806336e7048a116200014c57806336e7048a14620003ff5780633e4f49e6146200041657806340e58ee5146200044a578063463e34be146200046f57600080fd5b806317977c61146200038157806324bc1a6414620003b2578063328dd98214620003ca57600080fd5b8063013cf08b14620001c3578063016a0416146200028157806302ec8f9e14620002bc57806308ae4b0c14620002e35780630b1ca49a146200032857806311e91b9a146200034d575b600080fd5b348015620001d057600080fd5b5062000235620001e236600462002650565b609c60205260009081526040902080546001820154600283015460038401546004850154600586015460069096015494956001600160a01b03909416949293919290919060ff8082169161010090041688565b604080519889526001600160a01b039097166020890152958701949094526060860192909252608085015260a0840152151560c0830152151560e0820152610100015b60405180910390f35b3480156200028e57600080fd5b50609754620002a3906001600160a01b031681565b6040516001600160a01b03909116815260200162000278565b348015620002c957600080fd5b50620002e1620002db36600462002650565b62000771565b005b348015620002f057600080fd5b50620003176200030236600462002513565b609b6020526000908152604090205460ff1681565b604051901515815260200162000278565b3480156200033557600080fd5b50620002e16200034736600462002513565b6200084f565b3480156200035a57600080fd5b50620003726200036c36600462002532565b62000943565b60405190815260200162000278565b3480156200038e57600080fd5b5062000372620003a036600462002513565b60a06020526000908152604090205481565b348015620003bf57600080fd5b506200037260995481565b348015620003d757600080fd5b50620003ef620003e936600462002650565b62000c88565b6040516200027892919062002979565b3480156200040c57600080fd5b5062000372600a81565b3480156200042357600080fd5b506200043b6200043536600462002650565b62000e63565b604051620002789190620029c0565b3480156200045757600080fd5b50620002e16200046936600462002650565b62000f4b565b3480156200047c57600080fd5b50620002e16200048e3660046200269b565b620010da565b348015620004a157600080fd5b50620004b9620004b336600462002729565b6200152e565b604051620002789190620029ab565b348015620004d557600080fd5b50620002e1620004e73660046200274b565b620015f0565b348015620004fa57600080fd5b50609854620002a3906001600160a01b031681565b3480156200051c57600080fd5b50620005696200052e36600462002669565b609f60209081526000928352604080842090915290825290205460ff808216916101008104909116906201000090046001600160601b031683565b60408051931515845260ff90921660208401526001600160601b03169082015260600162000278565b3480156200059f57600080fd5b50620002e162001694565b348015620005b757600080fd5b506033546001600160a01b0316620002a3565b348015620005d757600080fd5b50620004b9620005e936600462002729565b620016cf565b348015620005fc57600080fd5b50620003726207e90081565b3480156200061557600080fd5b50620002a36200062736600462002729565b620016ec565b3480156200063a57600080fd5b50620002e16200064c36600462002513565b62001725565b3480156200065f57600080fd5b5062000372609a5481565b3480156200067757600080fd5b50620007046200068936600462002669565b6040805160608101825260008082526020820181905291810191909152506000918252609f602090815260408084206001600160a01b03939093168452918152918190208151606081018352905460ff8082161515835261010082041693820193909352620100009092046001600160601b03169082015290565b6040805182511515815260208084015160ff1690820152918101516001600160601b03169082015260600162000278565b3480156200074257600080fd5b50620002e16200075436600462002513565b6200181c565b620002e16200076b36600462002650565b620018be565b6033546001600160a01b03163314620007a75760405162461bcd60e51b81526004016200079e90620029e9565b60405180910390fd5b60018110156200080e5760405162461bcd60e51b815260206004820152602b60248201527f504143543a3a5f73657451756f72756d566f7465733a20696e76616c6964207160448201526a756f72756d20766f74657360a81b60648201526084016200079e565b60995460408051918252602082018390527fffff0a251408cb8f05a4fc2ab0bdffe28e1519cb8ee5bdb6531e5d6ca51aaf75910160405180910390a1609955565b6033546001600160a01b031633146200087c5760405162461bcd60e51b81526004016200079e90620029e9565b6001600160a01b0381166000908152609b602052604090205460ff161515600114620008eb5760405162461bcd60e51b815260206004820181905260248201527f504143543a3a72656d6f76654d656d6265723a206e6f742061206d656d62657260448201526064016200079e565b6001600160a01b0381166000818152609b6020908152604091829020805460ff1916905590519182527f6e76fb4c77256006d9c38ec7d82b45a8c8f3c27b1d6766fffc42dfb8de68449291015b60405180910390a150565b336000908152609b602052604081205460ff1615156001146200097a5760405162461bcd60e51b81526004016200079e9062002a1e565b825185511480156200098d575082518451145b62000a015760405162461bcd60e51b815260206004820152603b60248201527f504143543a3a70726f706f73653a2070726f706f73616c2066756e6374696f6e60448201527f20696e666f726d6174696f6e206172697479206d69736d61746368000000000060648201526084016200079e565b835162000a5d5760405162461bcd60e51b815260206004820152602360248201527f504143543a3a70726f706f73653a206d7573742070726f7669646520616374696044820152626f6e7360e81b60648201526084016200079e565b600a8451111562000ab15760405162461bcd60e51b815260206004820152601f60248201527f504143543a3a70726f706f73653a20746f6f206d616e7920616374696f6e730060448201526064016200079e565b600062000ac2436207e90062001cfb565b6040805161010081018252609a80548083523360208401529282018490526000606083018190526080830181905260a0830181905260c0830181905260e08301819052939450909262000b158362002cf1565b909155505080516000908152609c602090815260408083208451808255838601516001830180546001600160a01b039092166001600160a01b0319909216919091179055828601516002830155606086015160038301556080860151600483015560a0860151600583015560c08601516006909201805460e088015115156101000261ff00199415159490941661ffff199091161792909217909155835260a18252909120885162000bca928a01906200210b565b5080516000908152609d60209081526040909120875162000bee9289019062002175565b5080516000908152609e60209081526040909120865162000c1292880190620021d5565b5080516020808301516001600160a01b0316600090815260a090915260409081902091909155815190517f52e57357458ad3ae6b8f4c5f1bf4aa2faca39f6020ff350a7b5db813633d4aed9162000c759133908b908b908b9089908c9062002a96565b60405180910390a1519695505050505050565b6000818152609d60209081526040808320609e835281842081548351818602810186019094528084526060958695939492938592919084015b8282101562000d7757838290600052602060002001805462000ce39062002cba565b80601f016020809104026020016040519081016040528092919081815260200182805462000d119062002cba565b801562000d625780601f1062000d365761010080835404028352916020019162000d62565b820191906000526020600020905b81548152906001019060200180831162000d4457829003601f168201915b50505050508152602001906001019062000cc1565b50505050915080805480602002602001604051908101604052809291908181526020016000905b8282101562000e5457838290600052602060002001805462000dc09062002cba565b80601f016020809104026020016040519081016040528092919081815260200182805462000dee9062002cba565b801562000e3f5780601f1062000e135761010080835404028352916020019162000e3f565b820191906000526020600020905b81548152906001019060200180831162000e2157829003601f168201915b50505050508152602001906001019062000d9e565b50505050905091509150915091565b600081609a541162000eb85760405162461bcd60e51b815260206004820181905260248201527f504143543a3a73746174653a20696e76616c69642070726f706f73616c20696460448201526064016200079e565b6000828152609c60205260409020600681015460ff161562000edd5750600292915050565b6006810154610100900460ff161562000ef95750600592915050565b806002015443111562000f0f5750600392915050565b8060040154816003015411801562000f2d5750609954816003015410155b1562000f3c5750600492915050565b50600192915050565b50919050565b336000908152609b602052604090205460ff16151560011462000f825760405162461bcd60e51b81526004016200079e9062002a1e565b600562000f8f8262000e63565b600581111562000faf57634e487b7160e01b600052602160045260246000fd5b1415620010155760405162461bcd60e51b815260206004820152602d60248201527f504143543a3a63616e63656c3a2063616e6e6f742063616e63656c206578656360448201526c1d5d1959081c1c9bdc1bdcd85b609a1b60648201526084016200079e565b6000818152609c6020526040902060018101546001600160a01b031633146200108c5760405162461bcd60e51b815260206004820152602260248201527f504143543a3a63616e63656c3a2070726f706f736572206e6f7420616c6c6f77604482015261195960f21b60648201526084016200079e565b60068101805460ff191660011790556040517f789cf55be980739dad1d0699b93b58e806b51c9d96619bfa8fe0a28abaa7b30c90620010ce9084815260200190565b60405180910390a15050565b600054610100900460ff16620010f75760005460ff1615620010fb565b303b155b620011605760405162461bcd60e51b815260206004820152602e60248201527f496e697469616c697a61626c653a20636f6e747261637420697320616c72656160448201526d191e481a5b9a5d1a585b1a5e995960921b60648201526084016200079e565b600054610100900460ff1615801562001183576000805461ffff19166101011790555b6001851015620011eb5760405162461bcd60e51b815260206004820152602c60248201527f504143543a3a696e697469616c697a653a20696e76616c69642070726f706f7360448201526b185b081d1a1c995cda1bdb1960a21b60648201526084016200079e565b81851115620012475760405162461bcd60e51b815260206004820152602160248201527f504143543a3a696e697469616c697a653a20706172616d73206d69736d6174636044820152600d60fb1b60648201526084016200079e565b6200125162001d59565b6200125b62001d97565b604051620012699062002235565b604051809103906000f08015801562001286573d6000803e3d6000fd5b50609780546001600160a01b03199081166001600160a01b03938416179091556098805490911691861691909117905560998590556040805161010081018252609a80548083523060208401526000938301849052606083018490526080830184905260a08301849052600160c084015260e0830184905291926200130b8362002cf1565b909155505080516000908152609c602090815260408083208451808255838601516001830180546001600160a01b039092166001600160a01b031990921682179055838701516002840155606087015160038401556080870151600484015560a080880151600585015560c08801516006909401805460e08a015115156101000261ff00199615159690961661ffff19909116179490941790935585529252822055835b80821015620014a7576001609b6000888886818110620013df57634e487b7160e01b600052603260045260246000fd5b9050602002016020810190620013f6919062002513565b6001600160a01b031681526020810191909152604001600020805460ff19169115159190911790557fb251eb052afc73ffd02ffe85ad79990a8b3fed60d76dbc2fa2fdd7123dffd9148686848181106200146057634e487b7160e01b600052603260045260246000fd5b905060200201602081019062001477919062002513565b6040516001600160a01b03909116815260200160405180910390a1816200149e8162002cf1565b925050620013af565b8251600081815260a16020908152604080832087518452609d835281842088518552609e90935281842091517f52e57357458ad3ae6b8f4c5f1bf4aa2faca39f6020ff350a7b5db813633d4aed95620015099590943094909290919062002b4d565b60405180910390a1505050801562001527576000805461ff00191690555b5050505050565b609e60205281600052604060002081815481106200154b57600080fd5b90600052602060002001600091509150508054620015699062002cba565b80601f0160208091040260200160405190810160405280929190818152602001828054620015979062002cba565b8015620015e85780601f10620015bc57610100808354040283529160200191620015e8565b820191906000526020600020905b815481529060010190602001808311620015ca57829003601f168201915b505050505081565b336000908152609b602052604090205460ff161515600114620016275760405162461bcd60e51b81526004016200079e9062002a1e565b337fb8e138887d0aa13bab447e82de9d5c1777041ecd21ca36ba824ff1e6c07ddda483836200165884838362001dcb565b6040805193845260ff90921660208401526001600160601b03169082015260806060820181905260009082015260a00160405180910390a25050565b6033546001600160a01b03163314620016c15760405162461bcd60e51b81526004016200079e90620029e9565b620016cd600062002029565b565b609d60205281600052604060002081815481106200154b57600080fd5b60a160205281600052604060002081815481106200170957600080fd5b6000918252602090912001546001600160a01b03169150829050565b6033546001600160a01b03163314620017525760405162461bcd60e51b81526004016200079e90620029e9565b6001600160a01b0381166000908152609b602052604090205460ff1615620017c75760405162461bcd60e51b815260206004820152602160248201527f504143543a3a6164644d656d6265723a20616c72656164792061206d656d62656044820152603960f91b60648201526084016200079e565b6001600160a01b0381166000818152609b6020908152604091829020805460ff1916600117905590519182527fb251eb052afc73ffd02ffe85ad79990a8b3fed60d76dbc2fa2fdd7123dffd914910162000938565b6033546001600160a01b03163314620018495760405162461bcd60e51b81526004016200079e90620029e9565b6001600160a01b038116620018b05760405162461bcd60e51b815260206004820152602660248201527f4f776e61626c653a206e6577206f776e657220697320746865207a65726f206160448201526564647265737360d01b60648201526084016200079e565b620018bb8162002029565b50565b336000908152609b602052604090205460ff161515600114620018f55760405162461bcd60e51b81526004016200079e9062002a1e565b6004620019028262000e63565b60058111156200192257634e487b7160e01b600052602160045260246000fd5b14620019975760405162461bcd60e51b815260206004820152603f60248201527f504143543a3a657865637574653a2070726f706f73616c2063616e206f6e6c7960448201527f206265206578656375746564206966206974206973207375636365656465640060648201526084016200079e565b6000818152609c6020908152604080832060068101805461ff001916610100179055609e9092528220549091905b8082101562001cc2576000848152609d602052604090208054606091908490811062001a0157634e487b7160e01b600052603260045260246000fd5b90600052602060002001805462001a189062002cba565b1515905062001af3576000858152609e6020526040902080548490811062001a5057634e487b7160e01b600052603260045260246000fd5b90600052602060002001805462001a679062002cba565b80601f016020809104026020016040519081016040528092919081815260200182805462001a959062002cba565b801562001ae65780601f1062001aba5761010080835404028352916020019162001ae6565b820191906000526020600020905b81548152906001019060200180831162001ac857829003601f168201915b5050505050905062001ba5565b6000858152609d6020526040902080548490811062001b2257634e487b7160e01b600052603260045260246000fd5b9060005260206000200160405162001b3b91906200296b565b6040518091039020609e6000878152602001908152602001600020848154811062001b7657634e487b7160e01b600052603260045260246000fd5b9060005260206000200160405160200162001b9392919062002927565b60405160208183030381529060405290505b600085815260a16020526040812080548590811062001bd457634e487b7160e01b600052603260045260246000fd5b60009182526020822001546040516001600160a01b03909116919062001bfc9085906200294d565b60006040518083038185875af1925050503d806000811462001c3b576040519150601f19603f3d011682016040523d82523d6000602084013e62001c40565b606091505b505090508062001caa5760405162461bcd60e51b815260206004820152602e60248201527f504143543a3a657865637574653a205472616e73616374696f6e20657865637560448201526d3a34b7b7103932bb32b93a32b21760911b60648201526084016200079e565b5050818062001cb99062002cf1565b925050620019c5565b6040518481527f712ae1383f79ac853f8d882153778e0260ef8f03b504e2866e0593e04d2b291f9060200160405180910390a150505050565b60008062001d0a838562002c6c565b90508381101562001d525760405162461bcd60e51b81526020600482015260116024820152706164646974696f6e206f766572666c6f7760781b60448201526064016200079e565b9392505050565b600054610100900460ff1662001d835760405162461bcd60e51b81526004016200079e9062002a4b565b62001d8d6200207b565b620016cd620020a5565b600054610100900460ff1662001dc15760405162461bcd60e51b81526004016200079e9062002a4b565b620016cd620020da565b6000600162001dda8462000e63565b600581111562001dfa57634e487b7160e01b600052602160045260246000fd5b1462001e5a5760405162461bcd60e51b815260206004820152602860248201527f504143543a3a63617374566f7465496e7465726e616c3a20766f74696e6720696044820152671cc818db1bdcd95960c21b60648201526084016200079e565b60028260ff16111562001ec25760405162461bcd60e51b815260206004820152602960248201527f504143543a3a63617374566f7465496e7465726e616c3a20696e76616c696420604482015268766f7465207479706560b81b60648201526084016200079e565b6000838152609c60209081526040808320609f83528184206001600160a01b0389168552909252909120805460ff161562001f545760405162461bcd60e51b815260206004820152602b60248201527f504143543a3a63617374566f7465496e7465726e616c3a20766f74657220616c60448201526a1c9958591e481d9bdd195960aa1b60648201526084016200079e565b600160ff851662001f835762001f788360040154826001600160601b031662001cfb565b600484015562001fe0565b8460ff166001141562001fb45762001fa98360030154826001600160601b031662001cfb565b600384015562001fe0565b8460ff166002141562001fe05762001fda8360050154826001600160601b031662001cfb565b60058401555b81546001600160601b03821662010000026dffffffffffffffffffffffff00001960ff88166101000261ffff199093169290921760011791909116179091559150509392505050565b603380546001600160a01b038381166001600160a01b0319831681179093556040519116919082907f8be0079c531659141344cd1fd0a4f28419497f9722a3daafe3b4186f6b6457e090600090a35050565b600054610100900460ff16620016cd5760405162461bcd60e51b81526004016200079e9062002a4b565b600054610100900460ff16620020cf5760405162461bcd60e51b81526004016200079e9062002a4b565b620016cd3362002029565b600054610100900460ff16620021045760405162461bcd60e51b81526004016200079e9062002a4b565b6001606555565b82805482825590600052602060002090810192821562002163579160200282015b828111156200216357825182546001600160a01b0319166001600160a01b039091161782556020909201916001909101906200212c565b506200217192915062002243565b5090565b828054828255906000526020600020908101928215620021c7579160200282015b82811115620021c75782518051620021b69184916020909101906200225a565b509160200191906001019062002196565b5062002171929150620022d7565b82805482825590600052602060002090810192821562002227579160200282015b82811115620022275782518051620022169184916020909101906200225a565b5091602001919060010190620021f6565b5062002171929150620022f8565b6107978062002d5283390190565b5b8082111562002171576000815560010162002244565b828054620022689062002cba565b90600052602060002090601f0160209004810192826200228c576000855562002163565b82601f10620022a757805160ff191683800117855562002163565b8280016001018555821562002163579182015b8281111562002163578251825591602001919060010190620022ba565b8082111562002171576000620022ee828262002319565b50600101620022d7565b80821115620021715760006200230f828262002319565b50600101620022f8565b508054620023279062002cba565b6000825580601f1062002338575050565b601f016020900490600052602060002090810190620018bb919062002243565b600067ffffffffffffffff83111562002375576200237562002d25565b6200238a601f8401601f191660200162002c11565b90508281528383830111156200239f57600080fd5b828260208301376000602084830101529392505050565b600082601f830112620023c7578081fd5b81356020620023e0620023da8362002c45565b62002c11565b80838252828201915082860187848660051b890101111562002400578586fd5b855b858110156200245a57813567ffffffffffffffff81111562002422578788fd5b8801603f81018a1362002433578788fd5b620024468a878301356040840162002358565b855250928401929084019060010162002402565b5090979650505050505050565b600082601f83011262002478578081fd5b813560206200248b620023da8362002c45565b80838252828201915082860187848660051b8901011115620024ab578586fd5b855b858110156200245a57813567ffffffffffffffff811115620024cd578788fd5b620024dd8a87838c0101620024f1565b8552509284019290840190600101620024ad565b600082601f83011262002502578081fd5b62001d528383356020850162002358565b60006020828403121562002525578081fd5b813562001d528162002d3b565b6000806000806080858703121562002548578283fd5b843567ffffffffffffffff8082111562002560578485fd5b818701915087601f83011262002574578485fd5b8135602062002587620023da8362002c45565b8083825282820191508286018c848660051b8901011115620025a757898afd5b8996505b84871015620025d6578035620025c18162002d3b565b835260019690960195918301918301620025ab565b5098505088013592505080821115620025ed578485fd5b620025fb8883890162002467565b9450604087013591508082111562002611578384fd5b6200261f88838901620023b6565b9350606087013591508082111562002635578283fd5b506200264487828801620024f1565b91505092959194509250565b60006020828403121562002662578081fd5b5035919050565b600080604083850312156200267c578182fd5b823591506020830135620026908162002d3b565b809150509250929050565b60008060008060608587031215620026b1578384fd5b843593506020850135620026c58162002d3b565b9250604085013567ffffffffffffffff80821115620026e2578384fd5b818701915087601f830112620026f6578384fd5b81358181111562002705578485fd5b8860208260051b85010111156200271a578485fd5b95989497505060200194505050565b600080604083850312156200273c578182fd5b50508035926020909101359150565b600080604083850312156200275e578182fd5b82359150602083013560ff8116811462002690578182fd5b600081518084526020808501808196508360051b81019150828601855b85811015620027c1578284038952620027ae84835162002882565b9885019893509084019060010162002793565b5091979650505050505050565b600081548084526020808501808196508360051b81019150858552828520855b85811015620027c15782840389528682546200280a8162002cba565b808752600182811680156200282857600181146200283d576200286a565b60ff198416898b01526040890194506200286a565b868c52898c208c5b84811015620028625781548b82018d0152908301908b0162002845565b8a018b019550505b509b88019b92965050509190910190600101620027ee565b600081518084526200289c81602086016020860162002c87565b601f01601f19169290920160200192915050565b60008154620028bf8162002cba565b60018281168015620028da5760018114620028ec576200291d565b60ff198416875282870194506200291d565b8560005260208060002060005b85811015620029145781548a820152908401908201620028f9565b50505082870194505b5050505092915050565b6001600160e01b0319831681526000620029456004830184620028b0565b949350505050565b600082516200296181846020870162002c87565b9190910192915050565b600062001d528284620028b0565b6040815260006200298e604083018562002776565b8281036020840152620029a2818562002776565b95945050505050565b60208152600062001d52602083018462002882565b6020810160068310620029e357634e487b7160e01b600052602160045260246000fd5b91905290565b6020808252818101527f4f776e61626c653a2063616c6c6572206973206e6f7420746865206f776e6572604082015260600190565b6020808252601390820152722820a1aa1d1d102737ba10309036b2b6b132b960691b604082015260600190565b6020808252602b908201527f496e697469616c697a61626c653a20636f6e7472616374206973206e6f74206960408201526a6e697469616c697a696e6760a81b606082015260800190565b8781526001600160a01b03871660208083019190915260e060408301819052875190830181905260009188810191610100850190845b8181101562002af55784516001600160a01b031683526020830194840194925060010162002acc565b5050848103606086015262002b0b818a62002776565b92505050828103608084015262002b23818762002776565b90508460a084015282810360c084015262002b3f818562002882565b9a9950505050505050505050565b600060e0820188835260018060a01b03808916602085015260e0604085015281885480845261010086019150898552602085209350845b8181101562002bb75762002ba783858754166001600160a01b0316815260200190565b6001958601959093500162002b84565b5050848103606086015262002bcd8189620027ce565b92505050828103608084015262002be58186620027ce565b90508360a084015282810360c084015262002c04816000815260200190565b9998505050505050505050565b604051601f8201601f1916810167ffffffffffffffff8111828210171562002c3d5762002c3d62002d25565b604052919050565b600067ffffffffffffffff82111562002c625762002c6262002d25565b5060051b60200190565b6000821982111562002c825762002c8262002d0f565b500190565b60005b8381101562002ca457818101518382015260200162002c8a565b8381111562002cb4576000848401525b50505050565b600181811c9082168062002ccf57607f821691505b6020821081141562000f4557634e487b7160e01b600052602260045260246000fd5b600060001982141562002d085762002d0862002d0f565b5060010190565b634e487b7160e01b600052601160045260246000fd5b634e487b7160e01b600052604160045260246000fd5b6001600160a01b0381168114620018bb57600080fdfe608060405234801561001057600080fd5b5061001a3361001f565b61006f565b600080546001600160a01b038381166001600160a01b0319831681178455604051919092169283917f8be0079c531659141344cd1fd0a4f28419497f9722a3daafe3b4186f6b6457e09190a35050565b6107198061007e6000396000f3fe60806040526004361061007b5760003560e01c80639623609d1161004e5780639623609d1461011157806399a88ec414610124578063f2fde38b14610144578063f3b7dead1461016457600080fd5b8063204e1c7a14610080578063715018a6146100bc5780637eff275e146100d35780638da5cb5b146100f3575b600080fd5b34801561008c57600080fd5b506100a061009b3660046104d8565b610184565b6040516001600160a01b03909116815260200160405180910390f35b3480156100c857600080fd5b506100d1610215565b005b3480156100df57600080fd5b506100d16100ee366004610517565b610254565b3480156100ff57600080fd5b506000546001600160a01b03166100a0565b6100d161011f36600461054f565b6102de565b34801561013057600080fd5b506100d161013f366004610517565b61036f565b34801561015057600080fd5b506100d161015f3660046104d8565b6103c7565b34801561017057600080fd5b506100a061017f3660046104d8565b610462565b6000806000836001600160a01b03166040516101aa90635c60da1b60e01b815260040190565b600060405180830381855afa9150503d80600081146101e5576040519150601f19603f3d011682016040523d82523d6000602084013e6101ea565b606091505b5091509150816101f957600080fd5b8080602001905181019061020d91906104fb565b949350505050565b6000546001600160a01b031633146102485760405162461bcd60e51b815260040161023f90610683565b60405180910390fd5b6102526000610488565b565b6000546001600160a01b0316331461027e5760405162461bcd60e51b815260040161023f90610683565b6040516308f2839760e41b81526001600160a01b038281166004830152831690638f283970906024015b600060405180830381600087803b1580156102c257600080fd5b505af11580156102d6573d6000803e3d6000fd5b505050505050565b6000546001600160a01b031633146103085760405162461bcd60e51b815260040161023f90610683565b60405163278f794360e11b81526001600160a01b03841690634f1ef2869034906103389086908690600401610620565b6000604051808303818588803b15801561035157600080fd5b505af1158015610365573d6000803e3d6000fd5b5050505050505050565b6000546001600160a01b031633146103995760405162461bcd60e51b815260040161023f90610683565b604051631b2ce7f360e11b81526001600160a01b038281166004830152831690633659cfe6906024016102a8565b6000546001600160a01b031633146103f15760405162461bcd60e51b815260040161023f90610683565b6001600160a01b0381166104565760405162461bcd60e51b815260206004820152602660248201527f4f776e61626c653a206e6577206f776e657220697320746865207a65726f206160448201526564647265737360d01b606482015260840161023f565b61045f81610488565b50565b6000806000836001600160a01b03166040516101aa906303e1469160e61b815260040190565b600080546001600160a01b038381166001600160a01b0319831681178455604051919092169283917f8be0079c531659141344cd1fd0a4f28419497f9722a3daafe3b4186f6b6457e09190a35050565b6000602082840312156104e9578081fd5b81356104f4816106ce565b9392505050565b60006020828403121561050c578081fd5b81516104f4816106ce565b60008060408385031215610529578081fd5b8235610534816106ce565b91506020830135610544816106ce565b809150509250929050565b600080600060608486031215610563578081fd5b833561056e816106ce565b9250602084013561057e816106ce565b9150604084013567ffffffffffffffff8082111561059a578283fd5b818601915086601f8301126105ad578283fd5b8135818111156105bf576105bf6106b8565b604051601f8201601f19908116603f011681019083821181831017156105e7576105e76106b8565b816040528281528960208487010111156105ff578586fd5b82602086016020830137856020848301015280955050505050509250925092565b60018060a01b0383168152600060206040818401528351806040850152825b8181101561065b5785810183015185820160600152820161063f565b8181111561066c5783606083870101525b50601f01601f191692909201606001949350505050565b6020808252818101527f4f776e61626c653a2063616c6c6572206973206e6f7420746865206f776e6572604082015260600190565b634e487b7160e01b600052604160045260246000fd5b6001600160a01b038116811461045f57600080fdfea2646970667358221220e38caf5ca305d28cfea5924808a41fd6f9ab62ed165ed1becf8858d95ea882a264736f6c63430008040033a264697066735822122021b9d93eb31554b79a3333de11dee2e3734f3a1f648f068cfa676c0982e45c9664736f6c63430008040033",
  "devdoc": {
    "events": {
      "TransferERC20(address,address,uint256)": {
        "params": {
          "amount": "Amount of the transaction",
          "to": "Address of the receiver",
          "token": "ERC20 token address"
        }
      },
      "VoteCast(address,uint256,uint8,uint256,string)": {
        "params": {
          "proposalId": "The proposal id which was voted on",
          "reason": "The reason given for the vote by the voter",
          "support": "Support value for the vote. 0=against, 1=for, 2=abstain",
          "voter": "The address which casted a vote",
          "votes": "Number of votes which were cast by the voter"
        }
      }
    },
    "kind": "dev",
    "methods": {
      "addMember(address)": {
        "params": {
          "_member": "Member address."
        }
      },
      "cancel(uint256)": {
        "params": {
          "_proposalId": "The id of the proposal to cancel"
        }
      },
      "castVote(uint256,uint8)": {
        "params": {
          "_proposalId": "The id of the proposal to vote on",
          "_support": "The support value for the vote. 0=against, 1=for, 2=abstain"
        }
      },
      "execute(uint256)": {
        "params": {
          "_proposalId": "The id of the proposal to execute"
        }
      },
      "getActions(uint256)": {
        "params": {
          "_proposalId": "Proposal to query."
        },
        "returns": {
          "calldatas": "Calldatas for proposal calls.",
          "signatures": "Function signatures for proposal calls."
        }
      },
      "getReceipt(uint256,address)": {
        "params": {
          "_proposalId": "the id of proposal",
          "_voter": "The address of the voter"
        },
        "returns": {
          "_0": "The voting receipt"
        }
      },
      "initialize(uint256,address,address[])": {
        "params": {
          "_quorumVotes": "The initial quorum votes"
        }
      },
      "owner()": {
        "details": "Returns the address of the current owner."
      },
      "propose(address[],string[],bytes[],string)": {
        "params": {
          "_calldatas": "Calldatas for proposal calls.",
          "_description": "String description of the proposal.",
          "_signatures": "Function signatures for proposal calls.",
          "_targets": "Target addresses for proposal calls."
        },
        "returns": {
          "_0": "Proposal id of new proposal."
        }
      },
      "removeMember(address)": {
        "params": {
          "_member": "Member address."
        }
      },
      "renounceOwnership()": {
        "details": "Leaves the contract without owner. It will not be possible to call `onlyOwner` functions anymore. Can only be called by the current owner. NOTE: Renouncing ownership will leave the contract without an owner, thereby removing any functionality that is only available to the owner."
      },
      "setQuorumVotes(uint256)": {
        "params": {
          "_newQuorumVotes": "new quorum votes"
        }
      },
      "state(uint256)": {
        "params": {
          "_proposalId": "The id of the proposal"
        },
        "returns": {
          "_0": "Proposal state"
        }
      },
      "transferOwnership(address)": {
        "details": "Transfers ownership of the contract to a new account (`newOwner`). Can only be called by the current owner."
      }
    },
    "version": 1
  },
  "userdoc": {
    "events": {
      "MemberAdded(address)": {
        "notice": "An event emitted when a member is added"
      },
      "MemberRemoved(address)": {
        "notice": "An event emitted when a member is removed"
      },
      "NewImplementation(address,address)": {
        "notice": "Emitted when implementation is changed"
      },
      "ProposalCanceled(uint256)": {
        "notice": "An event emitted when a proposal has been canceled"
      },
      "ProposalCreated(uint256,address,address[],string[],bytes[],uint256,string)": {
        "notice": "An event emitted when a new proposal is created"
      },
      "ProposalExecuted(uint256)": {
        "notice": "An event emitted when a proposal has been executed in the Timelock"
      },
      "QuorumVotesSet(uint256,uint256)": {
        "notice": "An event emitted when the quorum votes is set"
      },
      "TransferERC20(address,address,uint256)": {
        "notice": "Triggered when an amount of an ERC20 has been transferred from this contract to an address"
      },
      "VoteCast(address,uint256,uint8,uint256,string)": {
        "notice": "An event emitted when a vote has been cast on a proposal"
      }
    },
    "kind": "user",
    "methods": {
      "MAX_VOTING_PERIOD()": {
        "notice": "The max setable voting period"
      },
      "PROPOSAL_MAX_OPERATIONS()": {
        "notice": "The maximum number of actions that can be included in a proposal"
      },
      "addMember(address)": {
        "notice": "Function used to add new members to the impactMarket Council."
      },
      "cancel(uint256)": {
        "notice": "Cancels a proposal only if sender is the proposer, or proposer delegates dropped below proposal threshold"
      },
      "castVote(uint256,uint8)": {
        "notice": "Cast a vote for a proposal"
      },
      "execute(uint256)": {
        "notice": "Executes a queued proposal if eta has passed"
      },
      "getActions(uint256)": {
        "notice": "Gets actions of a proposal."
      },
      "getReceipt(uint256,address)": {
        "notice": "Gets the receipt for a voter on a given proposal"
      },
      "initialize(uint256,address,address[])": {
        "notice": "Used to initialize the contract during delegator constructor"
      },
      "latestProposalIds(address)": {
        "notice": "The latest proposal for each proposer"
      },
      "members(address)": {
        "notice": "The council members"
      },
      "proposalCalldatas(uint256,uint256)": {
        "notice": "The official each proposal's calldatas: An ordered list of calldata to be passed to each call"
      },
      "proposalCount()": {
        "notice": "The total number of proposals"
      },
      "proposalReceipts(uint256,address)": {
        "notice": "The official each proposal's receipts: Receipts of ballots for the entire set of voters"
      },
      "proposalSignatures(uint256,uint256)": {
        "notice": "The official each proposal's signatures: An ordered list of function signatures to be called"
      },
      "proposalTargets(uint256,uint256)": {
        "notice": "The official each proposal's targets: An ordered list of target addresses for calls to be made"
      },
      "proposals(uint256)": {
        "notice": "The official record of all proposals ever proposed"
      },
      "propose(address[],string[],bytes[],string)": {
        "notice": "Function used to propose a new proposal. Sender must have delegates above the proposal threshold."
      },
      "quorumVotes()": {
        "notice": "The number of votes in support of a proposal required in order for a quorum to be reached and for a vote to succeed"
      },
      "removeMember(address)": {
        "notice": "Function used to remove members from the impactMarket Council."
      },
      "setQuorumVotes(uint256)": {
        "notice": "Owner function for setting the quorum votes"
      },
      "state(uint256)": {
        "notice": "Gets the state of a proposal"
      }
    },
    "version": 1
  },
  "storageLayout": {
    "storage": [
      {
        "astId": 542,
        "contract": "contracts/governor/impactMarketCouncil/ImpactMarketCouncilImplementation.sol:ImpactMarketCouncilImplementation",
        "label": "_initialized",
        "offset": 0,
        "slot": "0",
        "type": "t_bool"
      },
      {
        "astId": 545,
        "contract": "contracts/governor/impactMarketCouncil/ImpactMarketCouncilImplementation.sol:ImpactMarketCouncilImplementation",
        "label": "_initializing",
        "offset": 1,
        "slot": "0",
        "type": "t_bool"
      },
      {
        "astId": 1370,
        "contract": "contracts/governor/impactMarketCouncil/ImpactMarketCouncilImplementation.sol:ImpactMarketCouncilImplementation",
        "label": "__gap",
        "offset": 0,
        "slot": "1",
        "type": "t_array(t_uint256)50_storage"
      },
      {
        "astId": 420,
        "contract": "contracts/governor/impactMarketCouncil/ImpactMarketCouncilImplementation.sol:ImpactMarketCouncilImplementation",
        "label": "_owner",
        "offset": 0,
        "slot": "51",
        "type": "t_address"
      },
      {
        "astId": 534,
        "contract": "contracts/governor/impactMarketCouncil/ImpactMarketCouncilImplementation.sol:ImpactMarketCouncilImplementation",
        "label": "__gap",
        "offset": 0,
        "slot": "52",
        "type": "t_array(t_uint256)49_storage"
      },
      {
        "astId": 736,
        "contract": "contracts/governor/impactMarketCouncil/ImpactMarketCouncilImplementation.sol:ImpactMarketCouncilImplementation",
        "label": "_status",
        "offset": 0,
        "slot": "101",
        "type": "t_uint256"
      },
      {
        "astId": 779,
        "contract": "contracts/governor/impactMarketCouncil/ImpactMarketCouncilImplementation.sol:ImpactMarketCouncilImplementation",
        "label": "__gap",
        "offset": 0,
        "slot": "102",
        "type": "t_array(t_uint256)49_storage"
      },
      {
        "astId": 23035,
        "contract": "contracts/governor/impactMarketCouncil/ImpactMarketCouncilImplementation.sol:ImpactMarketCouncilImplementation",
        "label": "communityProxyAdmin",
        "offset": 0,
        "slot": "151",
        "type": "t_contract(ProxyAdmin)2869"
      },
      {
        "astId": 23038,
        "contract": "contracts/governor/impactMarketCouncil/ImpactMarketCouncilImplementation.sol:ImpactMarketCouncilImplementation",
        "label": "communityAdmin",
        "offset": 0,
        "slot": "152",
        "type": "t_contract(ICommunityAdmin)15216"
      },
      {
        "astId": 23041,
        "contract": "contracts/governor/impactMarketCouncil/ImpactMarketCouncilImplementation.sol:ImpactMarketCouncilImplementation",
        "label": "quorumVotes",
        "offset": 0,
        "slot": "153",
        "type": "t_uint256"
      },
      {
        "astId": 23044,
        "contract": "contracts/governor/impactMarketCouncil/ImpactMarketCouncilImplementation.sol:ImpactMarketCouncilImplementation",
        "label": "proposalCount",
        "offset": 0,
        "slot": "154",
        "type": "t_uint256"
      },
      {
        "astId": 23049,
        "contract": "contracts/governor/impactMarketCouncil/ImpactMarketCouncilImplementation.sol:ImpactMarketCouncilImplementation",
        "label": "members",
        "offset": 0,
        "slot": "155",
        "type": "t_mapping(t_address,t_bool)"
      },
      {
        "astId": 23055,
        "contract": "contracts/governor/impactMarketCouncil/ImpactMarketCouncilImplementation.sol:ImpactMarketCouncilImplementation",
        "label": "proposals",
        "offset": 0,
        "slot": "156",
        "type": "t_mapping(t_uint256,t_struct(Proposal)23009_storage)"
      },
      {
        "astId": 23061,
        "contract": "contracts/governor/impactMarketCouncil/ImpactMarketCouncilImplementation.sol:ImpactMarketCouncilImplementation",
        "label": "proposalSignatures",
        "offset": 0,
        "slot": "157",
        "type": "t_mapping(t_uint256,t_array(t_string_storage)dyn_storage)"
      },
      {
        "astId": 23067,
        "contract": "contracts/governor/impactMarketCouncil/ImpactMarketCouncilImplementation.sol:ImpactMarketCouncilImplementation",
        "label": "proposalCalldatas",
        "offset": 0,
        "slot": "158",
        "type": "t_mapping(t_uint256,t_array(t_bytes_storage)dyn_storage)"
      },
      {
        "astId": 23075,
        "contract": "contracts/governor/impactMarketCouncil/ImpactMarketCouncilImplementation.sol:ImpactMarketCouncilImplementation",
        "label": "proposalReceipts",
        "offset": 0,
        "slot": "159",
        "type": "t_mapping(t_uint256,t_mapping(t_address,t_struct(Receipt)23016_storage))"
      },
      {
        "astId": 23080,
        "contract": "contracts/governor/impactMarketCouncil/ImpactMarketCouncilImplementation.sol:ImpactMarketCouncilImplementation",
        "label": "latestProposalIds",
        "offset": 0,
        "slot": "160",
        "type": "t_mapping(t_address,t_uint256)"
      },
      {
        "astId": 23086,
        "contract": "contracts/governor/impactMarketCouncil/ImpactMarketCouncilImplementation.sol:ImpactMarketCouncilImplementation",
        "label": "proposalTargets",
        "offset": 0,
        "slot": "161",
        "type": "t_mapping(t_uint256,t_array(t_address)dyn_storage)"
      }
    ],
    "types": {
      "t_address": {
        "encoding": "inplace",
        "label": "address",
        "numberOfBytes": "20"
      },
      "t_array(t_address)dyn_storage": {
        "base": "t_address",
        "encoding": "dynamic_array",
        "label": "address[]",
        "numberOfBytes": "32"
      },
      "t_array(t_bytes_storage)dyn_storage": {
        "base": "t_bytes_storage",
        "encoding": "dynamic_array",
        "label": "bytes[]",
        "numberOfBytes": "32"
      },
      "t_array(t_string_storage)dyn_storage": {
        "base": "t_string_storage",
        "encoding": "dynamic_array",
        "label": "string[]",
        "numberOfBytes": "32"
      },
      "t_array(t_uint256)49_storage": {
        "base": "t_uint256",
        "encoding": "inplace",
        "label": "uint256[49]",
        "numberOfBytes": "1568"
      },
      "t_array(t_uint256)50_storage": {
        "base": "t_uint256",
        "encoding": "inplace",
        "label": "uint256[50]",
        "numberOfBytes": "1600"
      },
      "t_bool": {
        "encoding": "inplace",
        "label": "bool",
        "numberOfBytes": "1"
      },
      "t_bytes_storage": {
        "encoding": "bytes",
        "label": "bytes",
        "numberOfBytes": "32"
      },
      "t_contract(ICommunityAdmin)15216": {
        "encoding": "inplace",
        "label": "contract ICommunityAdmin",
        "numberOfBytes": "20"
      },
      "t_contract(ProxyAdmin)2869": {
        "encoding": "inplace",
        "label": "contract ProxyAdmin",
        "numberOfBytes": "20"
      },
      "t_mapping(t_address,t_bool)": {
        "encoding": "mapping",
        "key": "t_address",
        "label": "mapping(address => bool)",
        "numberOfBytes": "32",
        "value": "t_bool"
      },
      "t_mapping(t_address,t_struct(Receipt)23016_storage)": {
        "encoding": "mapping",
        "key": "t_address",
        "label": "mapping(address => struct IImpactMarketCouncil.Receipt)",
        "numberOfBytes": "32",
        "value": "t_struct(Receipt)23016_storage"
      },
      "t_mapping(t_address,t_uint256)": {
        "encoding": "mapping",
        "key": "t_address",
        "label": "mapping(address => uint256)",
        "numberOfBytes": "32",
        "value": "t_uint256"
      },
      "t_mapping(t_uint256,t_array(t_address)dyn_storage)": {
        "encoding": "mapping",
        "key": "t_uint256",
        "label": "mapping(uint256 => address[])",
        "numberOfBytes": "32",
        "value": "t_array(t_address)dyn_storage"
      },
      "t_mapping(t_uint256,t_array(t_bytes_storage)dyn_storage)": {
        "encoding": "mapping",
        "key": "t_uint256",
        "label": "mapping(uint256 => bytes[])",
        "numberOfBytes": "32",
        "value": "t_array(t_bytes_storage)dyn_storage"
      },
      "t_mapping(t_uint256,t_array(t_string_storage)dyn_storage)": {
        "encoding": "mapping",
        "key": "t_uint256",
        "label": "mapping(uint256 => string[])",
        "numberOfBytes": "32",
        "value": "t_array(t_string_storage)dyn_storage"
      },
      "t_mapping(t_uint256,t_mapping(t_address,t_struct(Receipt)23016_storage))": {
        "encoding": "mapping",
        "key": "t_uint256",
        "label": "mapping(uint256 => mapping(address => struct IImpactMarketCouncil.Receipt))",
        "numberOfBytes": "32",
        "value": "t_mapping(t_address,t_struct(Receipt)23016_storage)"
      },
      "t_mapping(t_uint256,t_struct(Proposal)23009_storage)": {
        "encoding": "mapping",
        "key": "t_uint256",
        "label": "mapping(uint256 => struct IImpactMarketCouncil.Proposal)",
        "numberOfBytes": "32",
        "value": "t_struct(Proposal)23009_storage"
      },
      "t_string_storage": {
        "encoding": "bytes",
        "label": "string",
        "numberOfBytes": "32"
      },
      "t_struct(Proposal)23009_storage": {
        "encoding": "inplace",
        "label": "struct IImpactMarketCouncil.Proposal",
        "members": [
          {
            "astId": 22994,
            "contract": "contracts/governor/impactMarketCouncil/ImpactMarketCouncilImplementation.sol:ImpactMarketCouncilImplementation",
            "label": "id",
            "offset": 0,
            "slot": "0",
            "type": "t_uint256"
          },
          {
            "astId": 22996,
            "contract": "contracts/governor/impactMarketCouncil/ImpactMarketCouncilImplementation.sol:ImpactMarketCouncilImplementation",
            "label": "proposer",
            "offset": 0,
            "slot": "1",
            "type": "t_address"
          },
          {
            "astId": 22998,
            "contract": "contracts/governor/impactMarketCouncil/ImpactMarketCouncilImplementation.sol:ImpactMarketCouncilImplementation",
            "label": "endBlock",
            "offset": 0,
            "slot": "2",
            "type": "t_uint256"
          },
          {
            "astId": 23000,
            "contract": "contracts/governor/impactMarketCouncil/ImpactMarketCouncilImplementation.sol:ImpactMarketCouncilImplementation",
            "label": "forVotes",
            "offset": 0,
            "slot": "3",
            "type": "t_uint256"
          },
          {
            "astId": 23002,
            "contract": "contracts/governor/impactMarketCouncil/ImpactMarketCouncilImplementation.sol:ImpactMarketCouncilImplementation",
            "label": "againstVotes",
            "offset": 0,
            "slot": "4",
            "type": "t_uint256"
          },
          {
            "astId": 23004,
            "contract": "contracts/governor/impactMarketCouncil/ImpactMarketCouncilImplementation.sol:ImpactMarketCouncilImplementation",
            "label": "abstainVotes",
            "offset": 0,
            "slot": "5",
            "type": "t_uint256"
          },
          {
            "astId": 23006,
            "contract": "contracts/governor/impactMarketCouncil/ImpactMarketCouncilImplementation.sol:ImpactMarketCouncilImplementation",
            "label": "canceled",
            "offset": 0,
            "slot": "6",
            "type": "t_bool"
          },
          {
            "astId": 23008,
            "contract": "contracts/governor/impactMarketCouncil/ImpactMarketCouncilImplementation.sol:ImpactMarketCouncilImplementation",
            "label": "executed",
            "offset": 1,
            "slot": "6",
            "type": "t_bool"
          }
        ],
        "numberOfBytes": "224"
      },
      "t_struct(Receipt)23016_storage": {
        "encoding": "inplace",
        "label": "struct IImpactMarketCouncil.Receipt",
        "members": [
          {
            "astId": 23011,
            "contract": "contracts/governor/impactMarketCouncil/ImpactMarketCouncilImplementation.sol:ImpactMarketCouncilImplementation",
            "label": "hasVoted",
            "offset": 0,
            "slot": "0",
            "type": "t_bool"
          },
          {
            "astId": 23013,
            "contract": "contracts/governor/impactMarketCouncil/ImpactMarketCouncilImplementation.sol:ImpactMarketCouncilImplementation",
            "label": "support",
            "offset": 1,
            "slot": "0",
            "type": "t_uint8"
          },
          {
            "astId": 23015,
            "contract": "contracts/governor/impactMarketCouncil/ImpactMarketCouncilImplementation.sol:ImpactMarketCouncilImplementation",
            "label": "votes",
            "offset": 2,
            "slot": "0",
            "type": "t_uint96"
          }
        ],
        "numberOfBytes": "32"
      },
      "t_uint256": {
        "encoding": "inplace",
        "label": "uint256",
        "numberOfBytes": "32"
      },
      "t_uint8": {
        "encoding": "inplace",
        "label": "uint8",
        "numberOfBytes": "1"
      },
      "t_uint96": {
        "encoding": "inplace",
        "label": "uint96",
        "numberOfBytes": "12"
      }
    }
  }
}