{
  "address": "0xf73F4Ca21A86F41330073C4C7D9b5367eCC208C0",
  "abi": [
    {
      "anonymous": false,
      "inputs": [
        {
          "indexed": true,
          "internalType": "uint256",
          "name": "levelId",
          "type": "uint256"
        },
        {
          "indexed": true,
          "internalType": "address",
          "name": "sender",
          "type": "address"
        },
        {
          "indexed": false,
          "internalType": "uint256",
          "name": "amount",
          "type": "uint256"
        }
      ],
      "name": "LevelFunded",
      "type": "event"
    },
    {
      "anonymous": false,
      "inputs": [
        {
          "indexed": true,
          "internalType": "uint256",
          "name": "levelId",
          "type": "uint256"
        },
        {
          "indexed": true,
          "internalType": "enum ILearnAndEarn.LevelState",
          "name": "state",
          "type": "uint8"
        }
      ],
      "name": "LevelStateChanged",
      "type": "event"
    },
    {
      "anonymous": false,
      "inputs": [
        {
          "indexed": true,
          "internalType": "uint256",
          "name": "levelId",
          "type": "uint256"
        },
        {
          "indexed": false,
          "internalType": "address",
          "name": "newTokenAddress",
          "type": "address"
        }
      ],
      "name": "LevelUpdated",
      "type": "event"
    },
    {
      "anonymous": false,
      "inputs": [
        {
          "indexed": true,
          "internalType": "address",
          "name": "previousOwner",
          "type": "address"
        },
        {
          "indexed": true,
          "internalType": "address",
          "name": "newOwner",
          "type": "address"
        }
      ],
      "name": "OwnershipTransferred",
      "type": "event"
    },
    {
      "anonymous": false,
      "inputs": [
        {
          "indexed": false,
          "internalType": "address",
          "name": "account",
          "type": "address"
        }
      ],
      "name": "Paused",
      "type": "event"
    },
    {
      "anonymous": false,
      "inputs": [
        {
          "indexed": true,
          "internalType": "address",
          "name": "beneficiary",
          "type": "address"
        },
        {
          "indexed": true,
          "internalType": "uint256",
          "name": "levelId",
          "type": "uint256"
        }
      ],
      "name": "RewardClaimed",
      "type": "event"
    },
    {
      "anonymous": false,
      "inputs": [
        {
          "indexed": false,
          "internalType": "address",
          "name": "account",
          "type": "address"
        }
      ],
      "name": "Unpaused",
      "type": "event"
    },
    {
      "inputs": [
        {
          "internalType": "uint256",
          "name": "_levelId",
          "type": "uint256"
        },
        {
          "internalType": "contract IERC20Upgradeable",
          "name": "_token",
          "type": "address"
        }
      ],
      "name": "addLevel",
      "outputs": [],
      "stateMutability": "nonpayable",
      "type": "function"
    },
    {
      "inputs": [
        {
          "internalType": "uint256",
          "name": "_levelId",
          "type": "uint256"
        },
        {
          "internalType": "address",
          "name": "_fundRecipient",
          "type": "address"
        }
      ],
      "name": "cancelLevel",
      "outputs": [],
      "stateMutability": "nonpayable",
      "type": "function"
    },
    {
      "inputs": [
        {
          "internalType": "address",
          "name": "_beneficiary",
          "type": "address"
        },
        {
          "internalType": "uint256[]",
          "name": "_levelIds",
          "type": "uint256[]"
        },
        {
          "internalType": "uint256[]",
          "name": "_rewardAmounts",
          "type": "uint256[]"
        },
        {
          "internalType": "bytes[]",
          "name": "_signatures",
          "type": "bytes[]"
        }
      ],
      "name": "claimRewardForLevels",
      "outputs": [],
      "stateMutability": "nonpayable",
      "type": "function"
    },
    {
      "inputs": [],
      "name": "communityAdmin",
      "outputs": [
        {
          "internalType": "contract ICommunityAdmin",
          "name": "",
          "type": "address"
        }
      ],
      "stateMutability": "view",
      "type": "function"
    },
    {
      "inputs": [
        {
          "internalType": "uint256",
          "name": "_levelId",
          "type": "uint256"
        },
        {
          "internalType": "uint256",
          "name": "_amount",
          "type": "uint256"
        }
      ],
      "name": "fundLevel",
      "outputs": [],
      "stateMutability": "nonpayable",
      "type": "function"
    },
    {
      "inputs": [],
      "name": "getVersion",
      "outputs": [
        {
          "internalType": "uint256",
          "name": "",
          "type": "uint256"
        }
      ],
      "stateMutability": "pure",
      "type": "function"
    },
    {
      "inputs": [
        {
          "internalType": "address",
          "name": "_signerWalletAddress",
          "type": "address"
        },
        {
          "internalType": "contract ICommunityAdmin",
          "name": "_communityAdmin",
          "type": "address"
        }
      ],
      "name": "initialize",
      "outputs": [],
      "stateMutability": "nonpayable",
      "type": "function"
    },
    {
      "inputs": [
        {
          "internalType": "uint256",
          "name": "_levelId",
          "type": "uint256"
        },
        {
          "internalType": "address",
          "name": "_beneficiary",
          "type": "address"
        }
      ],
      "name": "levelClaims",
      "outputs": [
        {
          "internalType": "uint256",
          "name": "",
          "type": "uint256"
        }
      ],
      "stateMutability": "view",
      "type": "function"
    },
    {
      "inputs": [
        {
          "internalType": "uint256",
          "name": "_index",
          "type": "uint256"
        }
      ],
      "name": "levelListAt",
      "outputs": [
        {
          "internalType": "uint256",
          "name": "",
          "type": "uint256"
        }
      ],
      "stateMutability": "view",
      "type": "function"
    },
    {
      "inputs": [],
      "name": "levelListLength",
      "outputs": [
        {
          "internalType": "uint256",
          "name": "",
          "type": "uint256"
        }
      ],
      "stateMutability": "view",
      "type": "function"
    },
    {
      "inputs": [
        {
          "internalType": "uint256",
          "name": "",
          "type": "uint256"
        }
      ],
      "name": "levels",
      "outputs": [
        {
          "internalType": "contract IERC20Upgradeable",
          "name": "token",
          "type": "address"
        },
        {
          "internalType": "uint256",
          "name": "balance",
          "type": "uint256"
        },
        {
          "internalType": "enum ILearnAndEarn.LevelState",
          "name": "state",
          "type": "uint8"
        }
      ],
      "stateMutability": "view",
      "type": "function"
    },
    {
      "inputs": [],
      "name": "owner",
      "outputs": [
        {
          "internalType": "address",
          "name": "",
          "type": "address"
        }
      ],
      "stateMutability": "view",
      "type": "function"
    },
    {
      "inputs": [],
      "name": "pause",
      "outputs": [],
      "stateMutability": "nonpayable",
      "type": "function"
    },
    {
      "inputs": [
        {
          "internalType": "uint256",
          "name": "_levelId",
          "type": "uint256"
        }
      ],
      "name": "pauseLevel",
      "outputs": [],
      "stateMutability": "nonpayable",
      "type": "function"
    },
    {
      "inputs": [],
      "name": "paused",
      "outputs": [
        {
          "internalType": "bool",
          "name": "",
          "type": "bool"
        }
      ],
      "stateMutability": "view",
      "type": "function"
    },
    {
      "inputs": [],
      "name": "renounceOwnership",
      "outputs": [],
      "stateMutability": "nonpayable",
      "type": "function"
    },
    {
      "inputs": [],
      "name": "signerWalletAddress",
      "outputs": [
        {
          "internalType": "address",
          "name": "",
          "type": "address"
        }
      ],
      "stateMutability": "view",
      "type": "function"
    },
    {
      "inputs": [
        {
          "internalType": "address",
          "name": "newOwner",
          "type": "address"
        }
      ],
      "name": "transferOwnership",
      "outputs": [],
      "stateMutability": "nonpayable",
      "type": "function"
    },
    {
      "inputs": [],
      "name": "unpause",
      "outputs": [],
      "stateMutability": "nonpayable",
      "type": "function"
    },
    {
      "inputs": [
        {
          "internalType": "uint256",
          "name": "_levelId",
          "type": "uint256"
        }
      ],
      "name": "unpauseLevel",
      "outputs": [],
      "stateMutability": "nonpayable",
      "type": "function"
    },
    {
      "inputs": [
        {
          "internalType": "contract ICommunityAdmin",
          "name": "_newCommunityAdmin",
          "type": "address"
        }
      ],
      "name": "updateCommunityAdmin",
      "outputs": [],
      "stateMutability": "nonpayable",
      "type": "function"
    },
    {
      "inputs": [
        {
          "internalType": "uint256",
          "name": "_levelId",
          "type": "uint256"
        },
        {
          "internalType": "contract IERC20Upgradeable",
          "name": "_token",
          "type": "address"
        }
      ],
      "name": "updateLevel",
      "outputs": [],
      "stateMutability": "nonpayable",
      "type": "function"
    },
    {
      "inputs": [
        {
          "internalType": "address",
          "name": "_newSignerWalletAddress",
          "type": "address"
        }
      ],
      "name": "updateSignerWalletAddress",
      "outputs": [],
      "stateMutability": "nonpayable",
      "type": "function"
    }
  ],
  "transactionHash": "0xd4a4e2e28d241e17f1e9934a9aca52aa25a59f990d0ce31f9441d9719062d73a",
  "args": [],
  "numDeployments": 2,
  "solcInputHash": "46273fb56ccd4190df96b3d31b75a1e5",
  "bytecode": "0x608060405234801561001057600080fd5b506125f8806100206000396000f3fe608060405234801561001057600080fd5b506004361061014d5760003560e01c80636a896a65116100c3578063af2bc4381161007c578063af2bc43814610287578063b2596a671461029a578063b53fe8a5146102e5578063d33d4ec6146102f8578063ec6f02451461030b578063f2fde38b1461031e57600080fd5b80636a896a651461022d578063715018a6146102405780638456cb5914610248578063886b7767146102505780638da5cb5b146102635780639f2b30cf1461027457600080fd5b80632effa6b5116101155780632effa6b5146101ab5780633833a5fd146101be5780633f4ba83a146101d1578063485cc955146101d95780635c975abb146101ec5780635fac917a1461020257600080fd5b80630b4a76a6146101525780630d8e6e2c146101675780630dca76671461017d57806315edc9381461018557806318a1d32f14610198575b600080fd5b61016561016036600461232c565b610331565b005b60015b6040519081526020015b60405180910390f35b61016a610468565b610165610193366004612308565b610479565b6101656101a6366004612308565b6106b8565b6101656101b93660046122f0565b6108ae565b6101656101cc3660046122f0565b610a4f565b610165610bc9565b6101656101e736600461227c565b610c9e565b60335460ff166040519015158152602001610174565b60ca54610215906001600160a01b031681565b6040516001600160a01b039091168152602001610174565b61016561023b366004612308565b610da1565b610165610f4a565b610165610f7e565b61016a61025e366004612308565b611051565b6065546001600160a01b0316610215565b60c954610215906001600160a01b031681565b6101656102953660046121b7565b61107e565b6102d66102a83660046122f0565b60cd602052600090815260409020805460018201546002909201546001600160a01b03909116919060ff1683565b60405161017493929190612369565b6101656102f33660046121d3565b61116b565b6101656103063660046121b7565b611663565b61016a6103193660046122f0565b6116af565b61016561032c3660046121b7565b6116bc565b600082815260cd602052604090206001600282015460ff16600381111561036857634e487b7160e01b600052602160045260246000fd5b1480610399575060028082015460ff16600381111561039757634e487b7160e01b600052602160045260246000fd5b145b6103fc5760405162461bcd60e51b815260206004820152602960248201527f4c6561726e416e644561726e3a3a66756e644c6576656c3a20496e76616c6964604482015268081b195d995b081a5960ba1b60648201526084015b60405180910390fd5b8054610413906001600160a01b0316333085611757565b818160010160008282546104279190612501565b9091555050604051828152339084907f2696a4597f56434a70ba48071ab5cd017c463335fae57a7dfa522bf0344266c19060200160405180910390a3505050565b600061047460cb6117c8565b905090565b6065546001600160a01b0316331480610528575060ca60009054906101000a90046001600160a01b03166001600160a01b031663502791b66040518163ffffffff1660e01b815260040160206040518083038186803b1580156104db57600080fd5b505afa1580156104ef573d6000803e3d6000fd5b505050506040513d601f19601f8201168201806040525081019061051391906122d4565b6001600160a01b0316336001600160a01b0316145b6105445760405162461bcd60e51b81526004016103f3906123df565b6001600083815260cd602052604090206002015460ff16600381111561057a57634e487b7160e01b600052602160045260246000fd5b146105dc5760405162461bcd60e51b815260206004820152602c60248201527f4c6561726e416e644c6561726e3a3a7570646174654c6576656c3a20496e766160448201526b1b1a59081b195d995b081a5960a21b60648201526084016103f3565b600082815260cd6020526040902060010154156106545760405162461bcd60e51b815260206004820152603060248201527f4c6561726e416e644c6561726e3a3a7570646174654c6576656c3a205468697360448201526f206c6576656c206861732066756e647360801b60648201526084016103f3565b600082815260cd602090815260409182902080546001600160a01b0319166001600160a01b038516908117909155915191825283917fe5c837cf28347598a75438274123226d0816a8c3b9d25cb2477600d7708e4c05910160405180910390a25050565b6065546001600160a01b0316331480610767575060ca60009054906101000a90046001600160a01b03166001600160a01b031663502791b66040518163ffffffff1660e01b815260040160206040518083038186803b15801561071a57600080fd5b505afa15801561072e573d6000803e3d6000fd5b505050506040513d601f19601f8201168201806040525081019061075291906122d4565b6001600160a01b0316336001600160a01b0316145b6107835760405162461bcd60e51b81526004016103f3906123df565b600082815260cd602052604090206001600282015460ff1660038111156107ba57634e487b7160e01b600052602160045260246000fd5b14806107eb575060028082015460ff1660038111156107e957634e487b7160e01b600052602160045260246000fd5b145b61084b5760405162461bcd60e51b815260206004820152602b60248201527f4c6561726e416e644561726e3a3a63616e63656c4c6576656c3a20496e76616c60448201526a1a59081b195d995b081a5960aa1b60648201526084016103f3565b60028101805460ff191660031790556001810180546000909155815461087b906001600160a01b031684836117d2565b600360405185907fd0f7851c679986391b7a6be75abf87357c7efad81350b7a10a256a22e729292f90600090a350505050565b6065546001600160a01b031633148061095d575060ca60009054906101000a90046001600160a01b03166001600160a01b031663502791b66040518163ffffffff1660e01b815260040160206040518083038186803b15801561091057600080fd5b505afa158015610924573d6000803e3d6000fd5b505050506040513d601f19601f8201168201806040525081019061094891906122d4565b6001600160a01b0316336001600160a01b0316145b6109795760405162461bcd60e51b81526004016103f3906123df565b600081815260cd602052604090206001600282015460ff1660038111156109b057634e487b7160e01b600052602160045260246000fd5b14610a105760405162461bcd60e51b815260206004820152602a60248201527f4c6561726e416e644561726e3a3a70617573654c6576656c3a20496e76616c6960448201526919081b195d995b081a5960b21b60648201526084016103f3565b6002818101805460ff1916821790555b60405183907fd0f7851c679986391b7a6be75abf87357c7efad81350b7a10a256a22e729292f90600090a35050565b6065546001600160a01b0316331480610afe575060ca60009054906101000a90046001600160a01b03166001600160a01b031663502791b66040518163ffffffff1660e01b815260040160206040518083038186803b158015610ab157600080fd5b505afa158015610ac5573d6000803e3d6000fd5b505050506040513d601f19601f82011682018060405250810190610ae991906122d4565b6001600160a01b0316336001600160a01b0316145b610b1a5760405162461bcd60e51b81526004016103f3906123df565b600081815260cd6020526040902060028082015460ff166003811115610b5057634e487b7160e01b600052602160045260246000fd5b14610bb25760405162461bcd60e51b815260206004820152602c60248201527f4c6561726e416e644561726e3a3a756e70617573654c6576656c3a20496e766160448201526b1b1a59081b195d995b081a5960a21b60648201526084016103f3565b60028101805460ff19166001908117909155610a20565b6065546001600160a01b0316331480610c78575060ca60009054906101000a90046001600160a01b03166001600160a01b031663502791b66040518163ffffffff1660e01b815260040160206040518083038186803b158015610c2b57600080fd5b505afa158015610c3f573d6000803e3d6000fd5b505050506040513d601f19601f82011682018060405250810190610c6391906122d4565b6001600160a01b0316336001600160a01b0316145b610c945760405162461bcd60e51b81526004016103f3906123df565b610c9c611802565b565b600054610100900460ff16610cb95760005460ff1615610cbd565b303b155b610d205760405162461bcd60e51b815260206004820152602e60248201527f496e697469616c697a61626c653a20636f6e747261637420697320616c72656160448201526d191e481a5b9a5d1a585b1a5e995960921b60648201526084016103f3565b600054610100900460ff16158015610d42576000805461ffff19166101011790555b610d4a611895565b610d526118cc565b610d5a6118fb565b60c980546001600160a01b038086166001600160a01b03199283161790925560ca8054928516929091169190911790558015610d9c576000805461ff00191690555b505050565b6065546001600160a01b0316331480610e50575060ca60009054906101000a90046001600160a01b03166001600160a01b031663502791b66040518163ffffffff1660e01b815260040160206040518083038186803b158015610e0357600080fd5b505afa158015610e17573d6000803e3d6000fd5b505050506040513d601f19601f82011682018060405250810190610e3b91906122d4565b6001600160a01b0316336001600160a01b0316145b610e6c5760405162461bcd60e51b81526004016103f3906123df565b600082815260cd602052604081206002015460ff166003811115610ea057634e487b7160e01b600052602160045260246000fd5b14610eff5760405162461bcd60e51b815260206004820152602960248201527f4c6561726e416e644c6561726e3a3a6164644c6576656c3a20496e76616c6964604482015268081b195d995b081a5960ba1b60648201526084016103f3565b600082815260cd6020526040902060028101805460ff1916600117905580546001600160a01b0383166001600160a01b0319909116179055610f4260cb8361192e565b506001610a20565b6065546001600160a01b03163314610f745760405162461bcd60e51b81526004016103f39061243c565b610c9c6000611941565b6065546001600160a01b031633148061102d575060ca60009054906101000a90046001600160a01b03166001600160a01b031663502791b66040518163ffffffff1660e01b815260040160206040518083038186803b158015610fe057600080fd5b505afa158015610ff4573d6000803e3d6000fd5b505050506040513d601f19601f8201168201806040525081019061101891906122d4565b6001600160a01b0316336001600160a01b0316145b6110495760405162461bcd60e51b81526004016103f3906123df565b610c9c611993565b600082815260cd602090815260408083206001600160a01b03851684526003019091529020545b92915050565b6065546001600160a01b031633148061112d575060ca60009054906101000a90046001600160a01b03166001600160a01b031663502791b66040518163ffffffff1660e01b815260040160206040518083038186803b1580156110e057600080fd5b505afa1580156110f4573d6000803e3d6000fd5b505050506040513d601f19601f8201168201806040525081019061111891906122d4565b6001600160a01b0316336001600160a01b0316145b6111495760405162461bcd60e51b81526004016103f3906123df565b60c980546001600160a01b0319166001600160a01b0392909216919091179055565b6000858414801561117b57508582145b6111ce5760405162461bcd60e51b815260206004820152603060248201526000805160206125a383398151915260448201526f6c733a20496e76616c6964206461746160801b60648201526084016103f3565b6000805b878210156116575760cd60008a8a858181106111fe57634e487b7160e01b600052603260045260246000fd5b90506020020135815260200190815260200160002092506001600381111561123657634e487b7160e01b600052602160045260246000fd5b600284015460ff16600381111561125d57634e487b7160e01b600052602160045260246000fd5b146112b55760405162461bcd60e51b815260206004820152603460248201526000805160206125a38339815191526044820152731b1cce88125b9d985b1a59081b195d995b081a5960621b60648201526084016103f3565b6001600160a01b038a16600090815260038401602052604090205415158061130357508686838181106112f857634e487b7160e01b600052603260045260246000fd5b905060200201356000145b1561130d57611645565b8989898481811061132e57634e487b7160e01b600052603260045260246000fd5b9050602002013588888581811061135557634e487b7160e01b600052603260045260246000fd5b9050602002013560405160200161138a939291906001600160a01b039390931683526020830191909152604082015260600190565b60405160208183030381529060405280519060200120905061141d8585848181106113c557634e487b7160e01b600052603260045260246000fd5b90506020028101906113d791906124bc565b8080601f0160208091040260200160405190810160405280939291908181526020018383808284376000920191909152506114179250859150611a0e9050565b90611a61565b60c9546001600160a01b039081169116146114865760405162461bcd60e51b815260206004820152603560248201526000805160206125a38339815191526044820152746c733a20496e76616c6964207369676e617475726560581b60648201526084016103f3565b8686838181106114a657634e487b7160e01b600052603260045260246000fd5b6001600160a01b038d166000908152600387016020908152604090912091029290920135909155508686838181106114ee57634e487b7160e01b600052603260045260246000fd5b90506020020135836001015410156115685760405162461bcd60e51b815260206004820152604360248201526000805160206125a383398151915260448201527f6c733a204c6576656c20646f65736e2774206861766520656e6f7567682066756064820152626e647360e81b608482015260a4016103f3565b6115a78a88888581811061158c57634e487b7160e01b600052603260045260246000fd5b87546001600160a01b031693926020909102013590506117d2565b8686838181106115c757634e487b7160e01b600052603260045260246000fd5b905060200201358360010160008282546115e19190612519565b90915550899050888381811061160757634e487b7160e01b600052603260045260246000fd5b905060200201358a6001600160a01b03167f106f923f993c2149d49b4255ff723acafa1f2d94393f561d3eda32ae348f724160405160405180910390a35b8161164f8161255c565b9250506111d2565b50505050505050505050565b6065546001600160a01b0316331461168d5760405162461bcd60e51b81526004016103f39061243c565b60ca80546001600160a01b0319166001600160a01b0392909216919091179055565b600061107860cb83611a85565b6065546001600160a01b031633146116e65760405162461bcd60e51b81526004016103f39061243c565b6001600160a01b03811661174b5760405162461bcd60e51b815260206004820152602660248201527f4f776e61626c653a206e6577206f776e657220697320746865207a65726f206160448201526564647265737360d01b60648201526084016103f3565b61175481611941565b50565b6040516001600160a01b03808516602483015283166044820152606481018290526117c29085906323b872dd60e01b906084015b60408051601f198184030181529190526020810180516001600160e01b03166001600160e01b031990931692909217909152611a91565b50505050565b6000611078825490565b6040516001600160a01b038316602482015260448101829052610d9c90849063a9059cbb60e01b9060640161178b565b60335460ff1661184b5760405162461bcd60e51b815260206004820152601460248201527314185d5cd8589b194e881b9bdd081c185d5cd95960621b60448201526064016103f3565b6033805460ff191690557f5db9ee0a495bf2e6ff9c91a7834c1ba4fdd244a5e8aa4e537bd38aeae4b073aa335b6040516001600160a01b03909116815260200160405180910390a1565b600054610100900460ff166118bc5760405162461bcd60e51b81526004016103f390612471565b6118c4611b63565b610c9c611b8a565b600054610100900460ff166118f35760405162461bcd60e51b81526004016103f390612471565b610c9c611bba565b600054610100900460ff166119225760405162461bcd60e51b81526004016103f390612471565b6033805460ff19169055565b600061193a8383611be8565b9392505050565b606580546001600160a01b038381166001600160a01b0319831681179093556040519116919082907f8be0079c531659141344cd1fd0a4f28419497f9722a3daafe3b4186f6b6457e090600090a35050565b60335460ff16156119d95760405162461bcd60e51b815260206004820152601060248201526f14185d5cd8589b194e881c185d5cd95960821b60448201526064016103f3565b6033805460ff191660011790557f62e78cea01bee320cd4e420270b5ea74000d11b0c9f74754ebdbfc544b05a2586118783390565b6040517f19457468657265756d205369676e6564204d6573736167653a0a3332000000006020820152603c8101829052600090605c01604051602081830303815290604052805190602001209050919050565b6000806000611a708585611c37565b91509150611a7d81611ca7565b509392505050565b600061193a8383611ea8565b6000611ae6826040518060400160405280602081526020017f5361666545524332303a206c6f772d6c6576656c2063616c6c206661696c6564815250856001600160a01b0316611ee09092919063ffffffff16565b805190915015610d9c5780806020019051810190611b0491906122b4565b610d9c5760405162461bcd60e51b815260206004820152602a60248201527f5361666545524332303a204552433230206f7065726174696f6e20646964206e6044820152691bdd081cdd58d8d9595960b21b60648201526084016103f3565b600054610100900460ff16610c9c5760405162461bcd60e51b81526004016103f390612471565b600054610100900460ff16611bb15760405162461bcd60e51b81526004016103f390612471565b610c9c33611941565b600054610100900460ff16611be15760405162461bcd60e51b81526004016103f390612471565b6001609755565b6000818152600183016020526040812054611c2f57508154600181810184556000848152602080822090930184905584548482528286019093526040902091909155611078565b506000611078565b600080825160411415611c6e5760208301516040840151606085015160001a611c6287828585611ef7565b94509450505050611ca0565b825160401415611c985760208301516040840151611c8d868383611fe4565b935093505050611ca0565b506000905060025b9250929050565b6000816004811115611cc957634e487b7160e01b600052602160045260246000fd5b1415611cd25750565b6001816004811115611cf457634e487b7160e01b600052602160045260246000fd5b1415611d425760405162461bcd60e51b815260206004820152601860248201527f45434453413a20696e76616c6964207369676e6174757265000000000000000060448201526064016103f3565b6002816004811115611d6457634e487b7160e01b600052602160045260246000fd5b1415611db25760405162461bcd60e51b815260206004820152601f60248201527f45434453413a20696e76616c6964207369676e6174757265206c656e6774680060448201526064016103f3565b6003816004811115611dd457634e487b7160e01b600052602160045260246000fd5b1415611e2d5760405162461bcd60e51b815260206004820152602260248201527f45434453413a20696e76616c6964207369676e6174757265202773272076616c604482015261756560f01b60648201526084016103f3565b6004816004811115611e4f57634e487b7160e01b600052602160045260246000fd5b14156117545760405162461bcd60e51b815260206004820152602260248201527f45434453413a20696e76616c6964207369676e6174757265202776272076616c604482015261756560f01b60648201526084016103f3565b6000826000018281548110611ecd57634e487b7160e01b600052603260045260246000fd5b9060005260206000200154905092915050565b6060611eef8484600085612013565b949350505050565b6000807f7fffffffffffffffffffffffffffffff5d576e7357a4501ddfe92f46681b20a0831115611f2e5750600090506003611fdb565b8460ff16601b14158015611f4657508460ff16601c14155b15611f575750600090506004611fdb565b6040805160008082526020820180845289905260ff881692820192909252606081018690526080810185905260019060a0016020604051602081039080840390855afa158015611fab573d6000803e3d6000fd5b5050604051601f1901519150506001600160a01b038116611fd457600060019250925050611fdb565b9150600090505b94509492505050565b6000806001600160ff1b03831660ff84901c601b0161200587828885611ef7565b935093505050935093915050565b6060824710156120745760405162461bcd60e51b815260206004820152602660248201527f416464726573733a20696e73756666696369656e742062616c616e636520666f6044820152651c8818d85b1b60d21b60648201526084016103f3565b843b6120c25760405162461bcd60e51b815260206004820152601d60248201527f416464726573733a2063616c6c20746f206e6f6e2d636f6e747261637400000060448201526064016103f3565b600080866001600160a01b031685876040516120de919061234d565b60006040518083038185875af1925050503d806000811461211b576040519150601f19603f3d011682016040523d82523d6000602084013e612120565b606091505b509150915061213082828661213b565b979650505050505050565b6060831561214a57508161193a565b82511561215a5782518084602001fd5b8160405162461bcd60e51b81526004016103f391906123ac565b60008083601f840112612185578182fd5b50813567ffffffffffffffff81111561219c578182fd5b6020830191508360208260051b8501011115611ca057600080fd5b6000602082840312156121c8578081fd5b813561193a8161258d565b60008060008060008060006080888a0312156121ed578283fd5b87356121f88161258d565b9650602088013567ffffffffffffffff80821115612214578485fd5b6122208b838c01612174565b909850965060408a0135915080821115612238578485fd5b6122448b838c01612174565b909650945060608a013591508082111561225c578384fd5b506122698a828b01612174565b989b979a50959850939692959293505050565b6000806040838503121561228e578182fd5b82356122998161258d565b915060208301356122a98161258d565b809150509250929050565b6000602082840312156122c5578081fd5b8151801515811461193a578182fd5b6000602082840312156122e5578081fd5b815161193a8161258d565b600060208284031215612301578081fd5b5035919050565b6000806040838503121561231a578182fd5b8235915060208301356122a98161258d565b6000806040838503121561233e578182fd5b50508035926020909101359150565b6000825161235f818460208701612530565b9190910192915050565b6001600160a01b038416815260208101839052606081016004831061239e57634e487b7160e01b600052602160045260246000fd5b826040830152949350505050565b60208152600082518060208401526123cb816040850160208701612530565b601f01601f19169190910160400192915050565b6020808252603d908201527f4c6561726e416e644561726e3a2063616c6c6572206973206e6f74207468652060408201527f6f776e6572206e6f7220496d706163744d61726b6574436f756e63696c000000606082015260800190565b6020808252818101527f4f776e61626c653a2063616c6c6572206973206e6f7420746865206f776e6572604082015260600190565b6020808252602b908201527f496e697469616c697a61626c653a20636f6e7472616374206973206e6f74206960408201526a6e697469616c697a696e6760a81b606082015260800190565b6000808335601e198436030181126124d2578283fd5b83018035915067ffffffffffffffff8211156124ec578283fd5b602001915036819003821315611ca057600080fd5b6000821982111561251457612514612577565b500190565b60008282101561252b5761252b612577565b500390565b60005b8381101561254b578181015183820152602001612533565b838111156117c25750506000910152565b600060001982141561257057612570612577565b5060010190565b634e487b7160e01b600052601160045260246000fd5b6001600160a01b038116811461175457600080fdfe4c6561726e416e644561726e3a3a636c61696d526577617264466f724c657665a26469706673582212209635a507fc28137da605cc6f8110ebac52a02e3416798259131dde3619e5518764736f6c63430008040033",
  "devdoc": {
    "events": {
      "LevelFunded(uint256,address,uint256)": {
        "params": {
          "amount": "Amount of the fund",
          "levelId": "Id of the level",
          "sender": "Address of the sender"
        }
      },
      "LevelStateChanged(uint256,uint8)": {
        "params": {
          "levelId": "Id of the level",
          "state": "New state of the level"
        }
      },
      "LevelUpdated(uint256,address)": {
        "params": {
          "levelId": "Id of the level",
          "newTokenAddress": "New token address"
        }
      },
      "RewardClaimed(address,uint256)": {
        "params": {
          "beneficiary": "address of the beneficiary to be rewarded",
          "levelId": "the id of the level"
        }
      }
    },
    "kind": "dev",
    "methods": {
      "addLevel(uint256,address)": {
        "params": {
          "_levelId": "the id of the level",
          "_token": "the token used for reward"
        }
      },
      "cancelLevel(uint256,address)": {
        "params": {
          "_fundRecipient": "the address of the recipient who will receive the funds allocated for this level",
          "_levelId": "id of the level"
        }
      },
      "claimRewardForLevels(address,uint256[],uint256[],bytes[])": {
        "params": {
          "_beneficiary": "address of the beneficiary to be rewarded",
          "_levelIds": "the ids of the levels",
          "_rewardAmounts": "the amounts of the tokens to be send to the beneficiary as reward for each level",
          "_signatures": "the signatures from the backend"
        }
      },
      "fundLevel(uint256,uint256)": {
        "params": {
          "_amount": "the amount to be funded",
          "_levelId": "the id of the level"
        }
      },
      "initialize(address,address)": {
        "params": {
          "_signerWalletAddress": "Address of the backend wallet"
        }
      },
      "levelClaims(uint256,address)": {
        "params": {
          "_beneficiary": "address of the beneficiary",
          "_levelId": "id of the level"
        },
        "returns": {
          "_0": "reward amount claimed by the beneficiary for a level"
        }
      },
      "levelListAt(uint256)": {
        "params": {
          "_index": "index of the level"
        },
        "returns": {
          "_0": "id of the level"
        }
      },
      "levelListLength()": {
        "returns": {
          "_0": "uint256 number of levels"
        }
      },
      "owner()": {
        "details": "Returns the address of the current owner."
      },
      "pause()": {
        "details": "Pauses the contract"
      },
      "pauseLevel(uint256)": {
        "params": {
          "_levelId": "id of the level"
        }
      },
      "paused()": {
        "details": "Returns true if the contract is paused, and false otherwise."
      },
      "renounceOwnership()": {
        "details": "Leaves the contract without owner. It will not be possible to call `onlyOwner` functions anymore. Can only be called by the current owner. NOTE: Renouncing ownership will leave the contract without an owner, thereby removing any functionality that is only available to the owner."
      },
      "transferOwnership(address)": {
        "details": "Transfers ownership of the contract to a new account (`newOwner`). Can only be called by the current owner."
      },
      "unpause()": {
        "details": "Unpauses the contract"
      },
      "unpauseLevel(uint256)": {
        "params": {
          "_levelId": "id of the level"
        }
      },
      "updateCommunityAdmin(address)": {
        "params": {
          "_newCommunityAdmin": "address of the new CommunityAdmin contract"
        }
      },
      "updateLevel(uint256,address)": {
        "params": {
          "_levelId": "the id of the level",
          "_token": "the token used for reward"
        }
      },
      "updateSignerWalletAddress(address)": {
        "params": {
          "_newSignerWalletAddress": "address of the new backend wallet"
        }
      }
    },
    "version": 1
  },
  "userdoc": {
    "events": {
      "LevelFunded(uint256,address,uint256)": {
        "notice": "Triggered when a level has been funded"
      },
      "LevelStateChanged(uint256,uint8)": {
        "notice": "Triggered when a level state has been changed"
      },
      "LevelUpdated(uint256,address)": {
        "notice": "Triggered when a level has been updated"
      },
      "RewardClaimed(address,uint256)": {
        "notice": "Triggered when a reward has been claimed"
      }
    },
    "kind": "user",
    "methods": {
      "addLevel(uint256,address)": {
        "notice": "Adds a new level"
      },
      "cancelLevel(uint256,address)": {
        "notice": "Cancels a level"
      },
      "claimRewardForLevels(address,uint256[],uint256[],bytes[])": {
        "notice": "Allows beneficiaries to claim the reward for a list of levels using a signature"
      },
      "fundLevel(uint256,uint256)": {
        "notice": "Funds a level"
      },
      "getVersion()": {
        "notice": "Returns the current implementation version"
      },
      "initialize(address,address)": {
        "notice": "Used to initialize a new CommunityAdmin contract"
      },
      "levelClaims(uint256,address)": {
        "notice": "Returns the reward amount claimed by a beneficiary for a level"
      },
      "levelListAt(uint256)": {
        "notice": "Returns the id of a level from levelList"
      },
      "levelListLength()": {
        "notice": "Returns the number of levels"
      },
      "pauseLevel(uint256)": {
        "notice": "Pauses a level"
      },
      "unpauseLevel(uint256)": {
        "notice": "Unpauses a level"
      },
      "updateCommunityAdmin(address)": {
        "notice": "Updates the CommunityAdmin contract address"
      },
      "updateLevel(uint256,address)": {
        "notice": "Updates a level"
      },
      "updateSignerWalletAddress(address)": {
        "notice": "Updates the address of the backend wallet"
      }
    },
    "version": 1
  },
  "storageLayout": {
    "storage": [
      {
        "astId": 542,
        "contract": "contracts/learnAndEarn/LearnAndEarnImplementation.sol:LearnAndEarnImplementation",
        "label": "_initialized",
        "offset": 0,
        "slot": "0",
        "type": "t_bool"
      },
      {
        "astId": 545,
        "contract": "contracts/learnAndEarn/LearnAndEarnImplementation.sol:LearnAndEarnImplementation",
        "label": "_initializing",
        "offset": 1,
        "slot": "0",
        "type": "t_bool"
      },
      {
        "astId": 1370,
        "contract": "contracts/learnAndEarn/LearnAndEarnImplementation.sol:LearnAndEarnImplementation",
        "label": "__gap",
        "offset": 0,
        "slot": "1",
        "type": "t_array(t_uint256)50_storage"
      },
      {
        "astId": 630,
        "contract": "contracts/learnAndEarn/LearnAndEarnImplementation.sol:LearnAndEarnImplementation",
        "label": "_paused",
        "offset": 0,
        "slot": "51",
        "type": "t_bool"
      },
      {
        "astId": 721,
        "contract": "contracts/learnAndEarn/LearnAndEarnImplementation.sol:LearnAndEarnImplementation",
        "label": "__gap",
        "offset": 0,
        "slot": "52",
        "type": "t_array(t_uint256)49_storage"
      },
      {
        "astId": 420,
        "contract": "contracts/learnAndEarn/LearnAndEarnImplementation.sol:LearnAndEarnImplementation",
        "label": "_owner",
        "offset": 0,
        "slot": "101",
        "type": "t_address"
      },
      {
        "astId": 534,
        "contract": "contracts/learnAndEarn/LearnAndEarnImplementation.sol:LearnAndEarnImplementation",
        "label": "__gap",
        "offset": 0,
        "slot": "102",
        "type": "t_array(t_uint256)49_storage"
      },
      {
        "astId": 736,
        "contract": "contracts/learnAndEarn/LearnAndEarnImplementation.sol:LearnAndEarnImplementation",
        "label": "_status",
        "offset": 0,
        "slot": "151",
        "type": "t_uint256"
      },
      {
        "astId": 779,
        "contract": "contracts/learnAndEarn/LearnAndEarnImplementation.sol:LearnAndEarnImplementation",
        "label": "__gap",
        "offset": 0,
        "slot": "152",
        "type": "t_array(t_uint256)49_storage"
      },
      {
        "astId": 23044,
        "contract": "contracts/learnAndEarn/LearnAndEarnImplementation.sol:LearnAndEarnImplementation",
        "label": "signerWalletAddress",
        "offset": 0,
        "slot": "201",
        "type": "t_address"
      },
      {
        "astId": 23048,
        "contract": "contracts/learnAndEarn/LearnAndEarnImplementation.sol:LearnAndEarnImplementation",
        "label": "communityAdmin",
        "offset": 0,
        "slot": "202",
        "type": "t_contract(ICommunityAdmin)13678"
      },
      {
        "astId": 23051,
        "contract": "contracts/learnAndEarn/LearnAndEarnImplementation.sol:LearnAndEarnImplementation",
        "label": "_levelList",
        "offset": 0,
        "slot": "203",
        "type": "t_struct(UintSet)5662_storage"
      },
      {
        "astId": 23057,
        "contract": "contracts/learnAndEarn/LearnAndEarnImplementation.sol:LearnAndEarnImplementation",
        "label": "levels",
        "offset": 0,
        "slot": "205",
        "type": "t_mapping(t_uint256,t_struct(Level)22918_storage)"
      }
    ],
    "types": {
      "t_address": {
        "encoding": "inplace",
        "label": "address",
        "numberOfBytes": "20"
      },
      "t_array(t_bytes32)dyn_storage": {
        "base": "t_bytes32",
        "encoding": "dynamic_array",
        "label": "bytes32[]",
        "numberOfBytes": "32"
      },
      "t_array(t_uint256)49_storage": {
        "base": "t_uint256",
        "encoding": "inplace",
        "label": "uint256[49]",
        "numberOfBytes": "1568"
      },
      "t_array(t_uint256)50_storage": {
        "base": "t_uint256",
        "encoding": "inplace",
        "label": "uint256[50]",
        "numberOfBytes": "1600"
      },
      "t_bool": {
        "encoding": "inplace",
        "label": "bool",
        "numberOfBytes": "1"
      },
      "t_bytes32": {
        "encoding": "inplace",
        "label": "bytes32",
        "numberOfBytes": "32"
      },
      "t_contract(ICommunityAdmin)13678": {
        "encoding": "inplace",
        "label": "contract ICommunityAdmin",
        "numberOfBytes": "20"
      },
      "t_contract(IERC20Upgradeable)858": {
        "encoding": "inplace",
        "label": "contract IERC20Upgradeable",
        "numberOfBytes": "20"
      },
      "t_enum(LevelState)22905": {
        "encoding": "inplace",
        "label": "enum ILearnAndEarn.LevelState",
        "numberOfBytes": "1"
      },
      "t_mapping(t_address,t_uint256)": {
        "encoding": "mapping",
        "key": "t_address",
        "label": "mapping(address => uint256)",
        "numberOfBytes": "32",
        "value": "t_uint256"
      },
      "t_mapping(t_bytes32,t_uint256)": {
        "encoding": "mapping",
        "key": "t_bytes32",
        "label": "mapping(bytes32 => uint256)",
        "numberOfBytes": "32",
        "value": "t_uint256"
      },
      "t_mapping(t_uint256,t_struct(Level)22918_storage)": {
        "encoding": "mapping",
        "key": "t_uint256",
        "label": "mapping(uint256 => struct ILearnAndEarn.Level)",
        "numberOfBytes": "32",
        "value": "t_struct(Level)22918_storage"
      },
      "t_struct(Level)22918_storage": {
        "encoding": "inplace",
        "label": "struct ILearnAndEarn.Level",
        "members": [
          {
            "astId": 22908,
            "contract": "contracts/learnAndEarn/LearnAndEarnImplementation.sol:LearnAndEarnImplementation",
            "label": "token",
            "offset": 0,
            "slot": "0",
            "type": "t_contract(IERC20Upgradeable)858"
          },
          {
            "astId": 22910,
            "contract": "contracts/learnAndEarn/LearnAndEarnImplementation.sol:LearnAndEarnImplementation",
            "label": "balance",
            "offset": 0,
            "slot": "1",
            "type": "t_uint256"
          },
          {
            "astId": 22913,
            "contract": "contracts/learnAndEarn/LearnAndEarnImplementation.sol:LearnAndEarnImplementation",
            "label": "state",
            "offset": 0,
            "slot": "2",
            "type": "t_enum(LevelState)22905"
          },
          {
            "astId": 22917,
            "contract": "contracts/learnAndEarn/LearnAndEarnImplementation.sol:LearnAndEarnImplementation",
            "label": "claims",
            "offset": 0,
            "slot": "3",
            "type": "t_mapping(t_address,t_uint256)"
          }
        ],
        "numberOfBytes": "128"
      },
      "t_struct(Set)5204_storage": {
        "encoding": "inplace",
        "label": "struct EnumerableSet.Set",
        "members": [
          {
            "astId": 5199,
            "contract": "contracts/learnAndEarn/LearnAndEarnImplementation.sol:LearnAndEarnImplementation",
            "label": "_values",
            "offset": 0,
            "slot": "0",
            "type": "t_array(t_bytes32)dyn_storage"
          },
          {
            "astId": 5203,
            "contract": "contracts/learnAndEarn/LearnAndEarnImplementation.sol:LearnAndEarnImplementation",
            "label": "_indexes",
            "offset": 0,
            "slot": "1",
            "type": "t_mapping(t_bytes32,t_uint256)"
          }
        ],
        "numberOfBytes": "64"
      },
      "t_struct(UintSet)5662_storage": {
        "encoding": "inplace",
        "label": "struct EnumerableSet.UintSet",
        "members": [
          {
            "astId": 5661,
            "contract": "contracts/learnAndEarn/LearnAndEarnImplementation.sol:LearnAndEarnImplementation",
            "label": "_inner",
            "offset": 0,
            "slot": "0",
            "type": "t_struct(Set)5204_storage"
          }
        ],
        "numberOfBytes": "64"
      },
      "t_uint256": {
        "encoding": "inplace",
        "label": "uint256",
        "numberOfBytes": "32"
      }
    }
  }
}