{
  "address": "0xcB18703a14307D82d424187dc2491CA62af25d95",
  "abi": [
    {
      "anonymous": false,
      "inputs": [
        {
          "indexed": true,
          "internalType": "address",
          "name": "userAddress",
          "type": "address"
        },
        {
          "indexed": false,
          "internalType": "uint256",
          "name": "loanId",
          "type": "uint256"
        },
        {
          "indexed": false,
          "internalType": "uint256",
          "name": "amount",
          "type": "uint256"
        },
        {
          "indexed": false,
          "internalType": "uint256",
          "name": "period",
          "type": "uint256"
        },
        {
          "indexed": false,
          "internalType": "uint256",
          "name": "dailyInterest",
          "type": "uint256"
        },
        {
          "indexed": false,
          "internalType": "uint256",
          "name": "claimDeadline",
          "type": "uint256"
        }
      ],
      "name": "LoanAdded",
      "type": "event"
    },
    {
      "anonymous": false,
      "inputs": [
        {
          "indexed": true,
          "internalType": "address",
          "name": "userAddress",
          "type": "address"
        },
        {
          "indexed": false,
          "internalType": "uint256",
          "name": "loanId",
          "type": "uint256"
        }
      ],
      "name": "LoanClaimed",
      "type": "event"
    },
    {
      "anonymous": false,
      "inputs": [
        {
          "indexed": true,
          "internalType": "address",
          "name": "previousOwner",
          "type": "address"
        },
        {
          "indexed": true,
          "internalType": "address",
          "name": "newOwner",
          "type": "address"
        }
      ],
      "name": "OwnershipTransferred",
      "type": "event"
    },
    {
      "anonymous": false,
      "inputs": [
        {
          "indexed": false,
          "internalType": "address",
          "name": "account",
          "type": "address"
        }
      ],
      "name": "Paused",
      "type": "event"
    },
    {
      "anonymous": false,
      "inputs": [
        {
          "indexed": true,
          "internalType": "address",
          "name": "userAddress",
          "type": "address"
        },
        {
          "indexed": false,
          "internalType": "uint256",
          "name": "loanId",
          "type": "uint256"
        },
        {
          "indexed": false,
          "internalType": "uint256",
          "name": "repaymentAmount",
          "type": "uint256"
        },
        {
          "indexed": false,
          "internalType": "uint256",
          "name": "currentDebt",
          "type": "uint256"
        }
      ],
      "name": "RepaymentAdded",
      "type": "event"
    },
    {
      "anonymous": false,
      "inputs": [
        {
          "indexed": false,
          "internalType": "address",
          "name": "account",
          "type": "address"
        }
      ],
      "name": "Unpaused",
      "type": "event"
    },
    {
      "anonymous": false,
      "inputs": [
        {
          "indexed": true,
          "internalType": "address",
          "name": "oldWalletAddress",
          "type": "address"
        },
        {
          "indexed": true,
          "internalType": "address",
          "name": "newWalletAddress",
          "type": "address"
        }
      ],
      "name": "UserAddressChanged",
      "type": "event"
    },
    {
      "inputs": [
        {
          "internalType": "address",
          "name": "_userAddress",
          "type": "address"
        },
        {
          "internalType": "uint256",
          "name": "_amount",
          "type": "uint256"
        },
        {
          "internalType": "uint256",
          "name": "_period",
          "type": "uint256"
        },
        {
          "internalType": "uint256",
          "name": "_dailyInterest",
          "type": "uint256"
        },
        {
          "internalType": "uint256",
          "name": "_claimDeadline",
          "type": "uint256"
        }
      ],
      "name": "addLoan",
      "outputs": [],
      "stateMutability": "nonpayable",
      "type": "function"
    },
    {
      "inputs": [
        {
          "internalType": "address[]",
          "name": "_userAddresses",
          "type": "address[]"
        },
        {
          "internalType": "uint256[]",
          "name": "_amounts",
          "type": "uint256[]"
        },
        {
          "internalType": "uint256[]",
          "name": "_periods",
          "type": "uint256[]"
        },
        {
          "internalType": "uint256[]",
          "name": "_dailyInterests",
          "type": "uint256[]"
        },
        {
          "internalType": "uint256[]",
          "name": "_claimDeadlines",
          "type": "uint256[]"
        }
      ],
      "name": "addLoans",
      "outputs": [],
      "stateMutability": "nonpayable",
      "type": "function"
    },
    {
      "inputs": [
        {
          "internalType": "address[]",
          "name": "_managerAddresses",
          "type": "address[]"
        }
      ],
      "name": "addManagers",
      "outputs": [],
      "stateMutability": "nonpayable",
      "type": "function"
    },
    {
      "inputs": [],
      "name": "cUSD",
      "outputs": [
        {
          "internalType": "contract IERC20Upgradeable",
          "name": "",
          "type": "address"
        }
      ],
      "stateMutability": "view",
      "type": "function"
    },
    {
      "inputs": [
        {
          "internalType": "address",
          "name": "_oldWalletAddress",
          "type": "address"
        },
        {
          "internalType": "address",
          "name": "_newWalletAddress",
          "type": "address"
        }
      ],
      "name": "changeUserAddress",
      "outputs": [],
      "stateMutability": "nonpayable",
      "type": "function"
    },
    {
      "inputs": [
        {
          "internalType": "uint256",
          "name": "_loanId",
          "type": "uint256"
        }
      ],
      "name": "claimLoan",
      "outputs": [],
      "stateMutability": "nonpayable",
      "type": "function"
    },
    {
      "inputs": [],
      "name": "getVersion",
      "outputs": [
        {
          "internalType": "uint256",
          "name": "",
          "type": "uint256"
        }
      ],
      "stateMutability": "pure",
      "type": "function"
    },
    {
      "inputs": [
        {
          "internalType": "address",
          "name": "_cUSDAddress",
          "type": "address"
        },
        {
          "internalType": "address",
          "name": "_revenueAddress",
          "type": "address"
        }
      ],
      "name": "initialize",
      "outputs": [],
      "stateMutability": "nonpayable",
      "type": "function"
    },
    {
      "inputs": [
        {
          "internalType": "uint256",
          "name": "_index",
          "type": "uint256"
        }
      ],
      "name": "managerListAt",
      "outputs": [
        {
          "internalType": "address",
          "name": "",
          "type": "address"
        }
      ],
      "stateMutability": "view",
      "type": "function"
    },
    {
      "inputs": [],
      "name": "managerListLength",
      "outputs": [
        {
          "internalType": "uint256",
          "name": "",
          "type": "uint256"
        }
      ],
      "stateMutability": "view",
      "type": "function"
    },
    {
      "inputs": [],
      "name": "owner",
      "outputs": [
        {
          "internalType": "address",
          "name": "",
          "type": "address"
        }
      ],
      "stateMutability": "view",
      "type": "function"
    },
    {
      "inputs": [],
      "name": "paused",
      "outputs": [
        {
          "internalType": "bool",
          "name": "",
          "type": "bool"
        }
      ],
      "stateMutability": "view",
      "type": "function"
    },
    {
      "inputs": [
        {
          "internalType": "address[]",
          "name": "_managerAddresses",
          "type": "address[]"
        }
      ],
      "name": "removeManagers",
      "outputs": [],
      "stateMutability": "nonpayable",
      "type": "function"
    },
    {
      "inputs": [],
      "name": "renounceOwnership",
      "outputs": [],
      "stateMutability": "nonpayable",
      "type": "function"
    },
    {
      "inputs": [
        {
          "internalType": "uint256",
          "name": "_loanId",
          "type": "uint256"
        },
        {
          "internalType": "uint256",
          "name": "_repaymentAmount",
          "type": "uint256"
        }
      ],
      "name": "repayLoan",
      "outputs": [],
      "stateMutability": "nonpayable",
      "type": "function"
    },
    {
      "inputs": [],
      "name": "revenueAddress",
      "outputs": [
        {
          "internalType": "address",
          "name": "",
          "type": "address"
        }
      ],
      "stateMutability": "view",
      "type": "function"
    },
    {
      "inputs": [
        {
          "internalType": "contract IERC20Upgradeable",
          "name": "_token",
          "type": "address"
        },
        {
          "internalType": "address",
          "name": "_to",
          "type": "address"
        },
        {
          "internalType": "uint256",
          "name": "_amount",
          "type": "uint256"
        }
      ],
      "name": "transferERC20",
      "outputs": [],
      "stateMutability": "nonpayable",
      "type": "function"
    },
    {
      "inputs": [
        {
          "internalType": "address",
          "name": "newOwner",
          "type": "address"
        }
      ],
      "name": "transferOwnership",
      "outputs": [],
      "stateMutability": "nonpayable",
      "type": "function"
    },
    {
      "inputs": [
        {
          "internalType": "address",
          "name": "_newRevenueAddress",
          "type": "address"
        }
      ],
      "name": "updateRevenueAddress",
      "outputs": [],
      "stateMutability": "nonpayable",
      "type": "function"
    },
    {
      "inputs": [
        {
          "internalType": "address",
          "name": "_userAddress",
          "type": "address"
        },
        {
          "internalType": "uint256",
          "name": "_loanId",
          "type": "uint256"
        },
        {
          "internalType": "uint256",
          "name": "_repaymentId",
          "type": "uint256"
        }
      ],
      "name": "userLoanRepayments",
      "outputs": [
        {
          "internalType": "uint256",
          "name": "date",
          "type": "uint256"
        },
        {
          "internalType": "uint256",
          "name": "amount",
          "type": "uint256"
        }
      ],
      "stateMutability": "view",
      "type": "function"
    },
    {
      "inputs": [
        {
          "internalType": "address",
          "name": "_userAddress",
          "type": "address"
        },
        {
          "internalType": "uint256",
          "name": "_loanId",
          "type": "uint256"
        }
      ],
      "name": "userLoans",
      "outputs": [
        {
          "internalType": "uint256",
          "name": "amountBorrowed",
          "type": "uint256"
        },
        {
          "internalType": "uint256",
          "name": "period",
          "type": "uint256"
        },
        {
          "internalType": "uint256",
          "name": "dailyInterest",
          "type": "uint256"
        },
        {
          "internalType": "uint256",
          "name": "claimDeadline",
          "type": "uint256"
        },
        {
          "internalType": "uint256",
          "name": "startDate",
          "type": "uint256"
        },
        {
          "internalType": "uint256",
          "name": "currentDebt",
          "type": "uint256"
        },
        {
          "internalType": "uint256",
          "name": "lastComputedDebt",
          "type": "uint256"
        },
        {
          "internalType": "uint256",
          "name": "amountRepayed",
          "type": "uint256"
        },
        {
          "internalType": "uint256",
          "name": "repaymentsLength",
          "type": "uint256"
        },
        {
          "internalType": "uint256",
          "name": "lastComputedDate",
          "type": "uint256"
        }
      ],
      "stateMutability": "view",
      "type": "function"
    },
    {
      "inputs": [
        {
          "internalType": "uint256",
          "name": "_index",
          "type": "uint256"
        }
      ],
      "name": "walletListAt",
      "outputs": [
        {
          "internalType": "address",
          "name": "",
          "type": "address"
        }
      ],
      "stateMutability": "view",
      "type": "function"
    },
    {
      "inputs": [],
      "name": "walletListLength",
      "outputs": [
        {
          "internalType": "uint256",
          "name": "",
          "type": "uint256"
        }
      ],
      "stateMutability": "view",
      "type": "function"
    },
    {
      "inputs": [
        {
          "internalType": "address",
          "name": "_userAddress",
          "type": "address"
        }
      ],
      "name": "walletMetadata",
      "outputs": [
        {
          "internalType": "uint256",
          "name": "userId",
          "type": "uint256"
        },
        {
          "internalType": "address",
          "name": "movedTo",
          "type": "address"
        },
        {
          "internalType": "uint256",
          "name": "loansLength",
          "type": "uint256"
        }
      ],
      "stateMutability": "view",
      "type": "function"
    }
  ],
  "transactionHash": "0x37c2ea3e9b1364c6ec74e952b237071f0544907a52a32042134fd08fabc1bffe",
  "args": [],
  "numDeployments": 2,
  "solcInputHash": "356da70808aa0e86d59ccc2f48c0ddb4",
  "bytecode": "0x608060405234801561001057600080fd5b506128be806100206000396000f3fe608060405234801561001057600080fd5b50600436106101585760003560e01c8063715018a6116100c3578063adb971261161007c578063adb971261461032a578063b410908d1461033d578063d8bad5bd14610350578063eef1b515146103ad578063f2fde38b146103c0578063fdd28859146103d357600080fd5b8063715018a6146102b057806378d5bcc1146102b85780638a700b53146102e05780638c5f9e74146102f35780638da5cb5b146103065780639db5dbe41461031757600080fd5b806353a469b31161011557806353a469b3146101e15780635c975abb146101f45780635d916afd1461020a57806360c4477a1461021d5780636323f5e91461022557806368fcaf841461029d57600080fd5b80630d8e6e2c1461015d57806310f3ee29146101735780631fccf67214610188578063387d0263146101b35780633a17596b146101bb578063485cc955146101ce575b600080fd5b60015b6040519081526020015b60405180910390f35b610186610181366004612433565b6103e6565b005b60c95461019b906001600160a01b031681565b6040516001600160a01b03909116815260200161016a565b61016061047e565b6101866101c93660046123f0565b61048f565b6101866101dc366004612359565b6104ca565b6101866101ef3660046125be565b6105cd565b60655460ff16604051901515815260200161016a565b610186610218366004612473565b6107d2565b61016061097a565b61027a61023336600461233d565b6001600160a01b03908116600090815260cc6020908152604080832081518083018352815480825260019092015490951694830185905280845260cb909252909120549092565b604080519384526001600160a01b0390921660208401529082015260600161016a565b61019b6102ab3660046125be565b610986565b610186610999565b6102cb6102c63660046123bc565b6109cf565b6040805192835260208301919091520161016a565b6101866102ee3660046125d6565b610c39565b610186610301366004612433565b61109d565b6033546001600160a01b031661019b565b61018661032536600461257e565b611126565b61019b6103383660046125be565b611196565b60d15461019b906001600160a01b031681565b61036361035e366004612391565b6111a3565b604080519a8b5260208b0199909952978901969096526060880194909452608087019290925260a086015260c085015260e08401526101008301526101208201526101400161016a565b6101866103bb366004612359565b6113a8565b6101866103ce36600461233d565b61154d565b6101866103e136600461233d565b6115e8565b6033546001600160a01b031633146104195760405162461bcd60e51b8152600401610410906126da565b60405180910390fd5b8060005b818110156104785761046584848381811061044857634e487b7160e01b600052603260045260246000fd5b905060200201602081019061045d919061233d565b60cf90611634565b508061047081612842565b91505061041d565b50505050565b600061048a60cf611650565b905090565b61049a60cf3361165a565b6104b65760405162461bcd60e51b815260040161041090612646565b6104c3858585858561167c565b5050505050565b600054610100900460ff166104e55760005460ff16156104e9565b303b155b61054c5760405162461bcd60e51b815260206004820152602e60248201527f496e697469616c697a61626c653a20636f6e747261637420697320616c72656160448201526d191e481a5b9a5d1a585b1a5e995960921b6064820152608401610410565b600054610100900460ff1615801561056e576000805461ffff19166101011790555b6105766119da565b61057e611a11565b610586611a48565b60c980546001600160a01b038086166001600160a01b03199283161790925560d180549285169290911691909117905580156105c8576000805461ff00191690555b505050565b600260975414156105f05760405162461bcd60e51b81526004016104109061275a565b60026097556105ff3382611a77565b33600090815260cc602090815260408083208151808301835281548082526001909201546001600160a01b03168185015290845260cb909252822080549192909182908590811061066057634e487b7160e01b600052603260045260246000fd5b9060005260206000209060090201905080600401546000146106ce5760405162461bcd60e51b815260206004820152602160248201527f4d6963726f6372656469743a204c6f616e20616c726561647920636c61696d656044820152601960fa1b6064820152608401610410565b42816003015410156107225760405162461bcd60e51b815260206004820152601960248201527f4d6963726f6372656469743a204c6f616e2065787069726564000000000000006044820152606401610410565b4260048201556002810154670de0b6b3a764000090610743906064906127a9565b61075590670de0b6b3a7640000612791565b825461076191906127c9565b61076b91906127a9565b6005820155426008820155805460c954610792916001600160a01b03909116903390611ca4565b60405184815233907fba0cbe8ef8ef3c6984adc684d0c9b9a4d2d4c79b4678b63c38651fa48d21c62c9060200160405180910390a2505060016097555050565b6107dd60cf3361165a565b6107f95760405162461bcd60e51b815260040161041090612646565b888781146108195760405162461bcd60e51b81526004016104109061268a565b8086146108385760405162461bcd60e51b81526004016104109061268a565b8084146108575760405162461bcd60e51b81526004016104109061268a565b8082146108765760405162461bcd60e51b81526004016104109061268a565b60005b8181101561096c5761095a8c8c838181106108a457634e487b7160e01b600052603260045260246000fd5b90506020020160208101906108b9919061233d565b8b8b848181106108d957634e487b7160e01b600052603260045260246000fd5b905060200201358a8a8581811061090057634e487b7160e01b600052603260045260246000fd5b9050602002013589898681811061092757634e487b7160e01b600052603260045260246000fd5b9050602002013588888781811061094e57634e487b7160e01b600052603260045260246000fd5b9050602002013561167c565b8061096481612842565b915050610879565b505050505050505050505050565b600061048a60cd611650565b600061099360cf83611d07565b92915050565b6033546001600160a01b031633146109c35760405162461bcd60e51b8152600401610410906126da565b6109cd6000611d13565b565b6000806109dc8585611a77565b6001600160a01b03808616600090815260cc6020908152604080832081518083018352815480825260019092015490951685840152835260cb8252808320815181548085028201840184529381018481529093919284928491879085015b82821015610b305783829060005260206000209060090201604051806101200160405290816000820154815260200160018201548152602001600282015481526020016003820154815260200160048201548152602001600582015481526020016006820154815260200160078201805480602002602001604051908101604052809291908181526020016000905b82821015610b0f57838290600052602060002090600202016040518060400160405290816000820154815260200160018201548152505081526020019060010190610ac9565b50505050815260200160088201548152505081526020019060010190610a3a565b50505050815250509050600081600001518781518110610b6057634e487b7160e01b600052603260045260246000fd5b60200260200101519050858160e001515111610bca5760405162461bcd60e51b8152602060048201526024808201527f4d6963726f6372656469743a2052657061796d656e7420646f65736e277420656044820152631e1a5cdd60e21b6064820152608401610410565b8060e001518681518110610bee57634e487b7160e01b600052603260045260246000fd5b60200260200101516000015194508060e001518681518110610c2057634e487b7160e01b600052603260045260246000fd5b6020026020010151602001519350505050935093915050565b60026097541415610c5c5760405162461bcd60e51b81526004016104109061275a565b600260975580610cae5760405162461bcd60e51b815260206004820152601b60248201527f4d6963726f6372656469743a20496e76616c696420616d6f756e7400000000006044820152606401610410565b610cb83383611a77565b33600090815260cc602090815260408083208151808301835281548082526001909201546001600160a01b03168185015290845260cb9092528220805491929091829086908110610d1957634e487b7160e01b600052603260045260246000fd5b906000526020600020906009020190506000816004015411610d7d5760405162461bcd60e51b815260206004820152601d60248201527f4d6963726f6372656469743a204c6f616e206e6f7420636c61696d65640000006044820152606401610410565b6000816005015411610dea5760405162461bcd60e51b815260206004820152603060248201527f4d6963726f6372656469743a204c6f616e2068617320616c726561647920626560448201526f195b88199d5b1b1e481c995c185e595960821b6064820152608401610410565b6000610ec482604051806101200160405290816000820154815260200160018201548152602001600282015481526020016003820154815260200160048201548152602001600582015481526020016006820154815260200160078201805480602002602001604051908101604052809291908181526020016000905b82821015610ead57838290600052602060002090600202016040518060400160405290816000820154815260200160018201548152505081526020019060010190610e67565b505050508152602001600882015481525050611d65565b905084811015610ed2578094505b6000808360000154878560060154610eea9190612791565b111580610f00575060d1546001600160a01b0316155b15610f225760c954610f1d906001600160a01b031633308a611e00565b610fad565b8354600685015410610f4d5760d15460c954610f1d916001600160a01b03918216913391168a611e00565b60068401548454600091610f60916127e8565b60c954909150610f7b906001600160a01b0316333084611e00565b60d154610fab9033906001600160a01b0316610f97848c6127e8565b60c9546001600160a01b0316929190611e00565b505b600784018054600181810183556000928352602090922042600290920201908155908101889055610fde88856127e8565b856005018190555087856006016000828254610ffa9190612791565b90915550506008850154600090620151809061101690426127e8565b61102091906127a9565b905061102f81620151806127c9565b866008015461103e9190612791565b60088701556005860154604080518c8152602081018c90529081019190915233907f36bd188317b9b3af98bbc5bfd88a0bccb96582fa2c955815ea9916dfeeb02d9e9060600160405180910390a2505060016097555050505050505050565b6033546001600160a01b031633146110c75760405162461bcd60e51b8152600401610410906126da565b8060005b81811015610478576111138484838181106110f657634e487b7160e01b600052603260045260246000fd5b905060200201602081019061110b919061233d565b60cf90611e38565b508061111e81612842565b9150506110cb565b600260975414156111495760405162461bcd60e51b81526004016104109061275a565b60026097556033546001600160a01b031633146111785760405162461bcd60e51b8152600401610410906126da565b61118c6001600160a01b0384168383611ca4565b5050600160975550565b600061099360cd83611d07565b6000806000806000806000806000806111bc8c8c611a77565b6001600160a01b03808d16600090815260cc6020908152604080832081518083018352815480825260019092015490951685840152835260cb8252808320815181548085028201840184529381018481529093919284928491879085015b828210156113105783829060005260206000209060090201604051806101200160405290816000820154815260200160018201548152602001600282015481526020016003820154815260200160048201548152602001600582015481526020016006820154815260200160078201805480602002602001604051908101604052809291908181526020016000905b828210156112ef578382906000526020600020906002020160405180604001604052908160008201548152602001600182015481525050815260200190600101906112a9565b5050505081526020016008820154815250508152602001906001019061121a565b50505050815250509050600081600001518e8151811061134057634e487b7160e01b600052603260045260246000fd5b6020026020010151905080600001519c5080602001519b5080604001519a5080606001519950806080015198508060a00151965061137d81611d65565b97508060c0015195508060e0015151945080610100015193505050509295989b9194979a5092959850565b6113b360cf3361165a565b6113cf5760405162461bcd60e51b815260040161041090612646565b6001600160a01b038216600090815260cc60205260409020805415801590611402575060018101546001600160a01b0316155b61145d5760405162461bcd60e51b815260206004820152602660248201527f4d6963726f6372656469743a205468697320757365722063616e6e6f74206265604482015265081b5bdd995960d21b6064820152608401610410565b6001600160a01b038216600090815260cc602052604090208054156114da5760405162461bcd60e51b815260206004820152602d60248201527f4d6963726f6372656469743a205461726765742077616c6c657420616464726560448201526c1cdcc81a5cc81a5b9d985b1a59609a1b6064820152608401610410565b6001820180546001600160a01b0319166001600160a01b0385161790558154815561150660cd84611e38565b50826001600160a01b0316846001600160a01b03167ffe697da51e9b8089b3ac92361b06886b93f48f935848aa4da1148c15b262840a60405160405180910390a350505050565b6033546001600160a01b031633146115775760405162461bcd60e51b8152600401610410906126da565b6001600160a01b0381166115dc5760405162461bcd60e51b815260206004820152602660248201527f4f776e61626c653a206e6577206f776e657220697320746865207a65726f206160448201526564647265737360d01b6064820152608401610410565b6115e581611d13565b50565b6033546001600160a01b031633146116125760405162461bcd60e51b8152600401610410906126da565b60d180546001600160a01b0319166001600160a01b0392909216919091179055565b6000611649836001600160a01b038416611e4d565b9392505050565b6000610993825490565b6001600160a01b03811660009081526001830160205260408120541515611649565b4281116116d65760405162461bcd60e51b815260206004820152602260248201527f4d6963726f6372656469743a20696e76616c696420636c61696d446561646c696044820152616e6560f01b6064820152608401610410565b6001600160a01b03808616600090815260cc602052604090206001810154909116156117505760405162461bcd60e51b8152602060048201526024808201527f4d6963726f6372656469743a20546865207573657220686173206265656e206d6044820152631bdd995960e21b6064820152608401610410565b805461177d5760ca805490600061176683612842565b909155505060ca54815561177b60cd87611e38565b505b8054600090815260cb6020526040902080548015611938576000826117a36001846127e8565b815481106117c157634e487b7160e01b600052603260045260246000fd5b9060005260206000209060090201604051806101200160405290816000820154815260200160018201548152602001600282015481526020016003820154815260200160048201548152602001600582015481526020016006820154815260200160078201805480602002602001604051908101604052809291908181526020016000905b8282101561188c57838290600052602060002090600202016040518060400160405290816000820154815260200160018201548152505081526020019060010190611846565b5050505081526020016008820154815250509050600081608001511180156118b6575060a0810151155b806118d1575060808101511580156118d15750428160600151105b6119365760405162461bcd60e51b815260206004820152603060248201527f4d6963726f6372656469743a20546865207573657220616c726561647920686160448201526f399030b71030b1ba34bb32903637b0b760811b6064820152608401610410565b505b81546001818101845560008481526020902060099092029091018881558082018890556002810187905560038101869055835490916001600160a01b038b16917fdf5f35c1edc69bc65031bb54e429851779e0db0a2d5f763a0eabdd9bec9429f2916119a3916127e8565b60408051918252602082018c905281018a9052606081018990526080810188905260a00160405180910390a2505050505050505050565b600054610100900460ff16611a015760405162461bcd60e51b81526004016104109061270f565b611a09611f6a565b6109cd611f91565b600054610100900460ff16611a385760405162461bcd60e51b81526004016104109061270f565b611a40611f6a565b6109cd611fc1565b600054610100900460ff16611a6f5760405162461bcd60e51b81526004016104109061270f565b6109cd611ff4565b6001600160a01b03808316600090815260cc602090815260409182902082518084019093528054808452600190910154909316908201529015801590611ac8575060208101516001600160a01b0316155b611b205760405162461bcd60e51b815260206004820152602360248201527f4d6963726f6372656469743a20496e76616c69642077616c6c6574206164647260448201526265737360e81b6064820152608401610410565b8051600090815260cb60209081526040808320815181548085028201840184529381018481529093919284928491879085015b82821015611c495783829060005260206000209060090201604051806101200160405290816000820154815260200160018201548152602001600282015481526020016003820154815260200160048201548152602001600582015481526020016006820154815260200160078201805480602002602001604051908101604052809291908181526020016000905b82821015611c2857838290600052602060002090600202016040518060400160405290816000820154815260200160018201548152505081526020019060010190611be2565b50505050815260200160088201548152505081526020019060010190611b53565b5050509152505080515190915083106104785760405162461bcd60e51b815260206004820152601f60248201527f4d6963726f6372656469743a204c6f616e20646f65736e2774206578697374006044820152606401610410565b6040516001600160a01b0383166024820152604481018290526105c890849063a9059cbb60e01b906064015b60408051601f198184030181529190526020810180516001600160e01b03166001600160e01b031990931692909217909152612022565b600061164983836120f4565b603380546001600160a01b038381166001600160a01b0319831681179093556040519116919082907f8be0079c531659141344cd1fd0a4f28419497f9722a3daafe3b4186f6b6457e090600090a35050565b60008160a0015160001415611d7c57506000919050565b60006201518083610100015142611d9391906127e8565b611d9d91906127a9565b60a08401519091505b811561164957670de0b6b3a764000060648560400151611dc691906127a9565b611dd890670de0b6b3a7640000612791565b611de290836127c9565b611dec91906127a9565b905081611df88161282b565b925050611da6565b6040516001600160a01b03808516602483015283166044820152606481018290526104789085906323b872dd60e01b90608401611cd0565b6000611649836001600160a01b03841661212c565b60008181526001830160205260408120548015611f60576000611e716001836127e8565b8554909150600090611e85906001906127e8565b9050818114611f06576000866000018281548110611eb357634e487b7160e01b600052603260045260246000fd5b9060005260206000200154905080876000018481548110611ee457634e487b7160e01b600052603260045260246000fd5b6000918252602080832090910192909255918252600188019052604090208390555b8554869080611f2557634e487b7160e01b600052603160045260246000fd5b600190038181906000526020600020016000905590558560010160008681526020019081526020016000206000905560019350505050610993565b6000915050610993565b600054610100900460ff166109cd5760405162461bcd60e51b81526004016104109061270f565b600054610100900460ff16611fb85760405162461bcd60e51b81526004016104109061270f565b6109cd33611d13565b600054610100900460ff16611fe85760405162461bcd60e51b81526004016104109061270f565b6065805460ff19169055565b600054610100900460ff1661201b5760405162461bcd60e51b81526004016104109061270f565b6001609755565b6000612077826040518060400160405280602081526020017f5361666545524332303a206c6f772d6c6576656c2063616c6c206661696c6564815250856001600160a01b031661217b9092919063ffffffff16565b8051909150156105c85780806020019051810190612095919061255e565b6105c85760405162461bcd60e51b815260206004820152602a60248201527f5361666545524332303a204552433230206f7065726174696f6e20646964206e6044820152691bdd081cdd58d8d9595960b21b6064820152608401610410565b600082600001828154811061211957634e487b7160e01b600052603260045260246000fd5b9060005260206000200154905092915050565b600081815260018301602052604081205461217357508154600181810184556000848152602080822090930184905584548482528286019093526040902091909155610993565b506000610993565b606061218a8484600085612192565b949350505050565b6060824710156121f35760405162461bcd60e51b815260206004820152602660248201527f416464726573733a20696e73756666696369656e742062616c616e636520666f6044820152651c8818d85b1b60d21b6064820152608401610410565b843b6122415760405162461bcd60e51b815260206004820152601d60248201527f416464726573733a2063616c6c20746f206e6f6e2d636f6e74726163740000006044820152606401610410565b600080866001600160a01b0316858760405161225d91906125f7565b60006040518083038185875af1925050503d806000811461229a576040519150601f19603f3d011682016040523d82523d6000602084013e61229f565b606091505b50915091506122af8282866122ba565b979650505050505050565b606083156122c9575081611649565b8251156122d95782518084602001fd5b8160405162461bcd60e51b81526004016104109190612613565b60008083601f840112612304578182fd5b50813567ffffffffffffffff81111561231b578182fd5b6020830191508360208260051b850101111561233657600080fd5b9250929050565b60006020828403121561234e578081fd5b813561164981612873565b6000806040838503121561236b578081fd5b823561237681612873565b9150602083013561238681612873565b809150509250929050565b600080604083850312156123a3578182fd5b82356123ae81612873565b946020939093013593505050565b6000806000606084860312156123d0578081fd5b83356123db81612873565b95602085013595506040909401359392505050565b600080600080600060a08688031215612407578081fd5b853561241281612873565b97602087013597506040870135966060810135965060800135945092505050565b60008060208385031215612445578182fd5b823567ffffffffffffffff81111561245b578283fd5b612467858286016122f3565b90969095509350505050565b60008060008060008060008060008060a08b8d031215612491578485fd5b8a3567ffffffffffffffff808211156124a8578687fd5b6124b48e838f016122f3565b909c509a5060208d01359150808211156124cc578687fd5b6124d88e838f016122f3565b909a50985060408d01359150808211156124f0578687fd5b6124fc8e838f016122f3565b909850965060608d0135915080821115612514578586fd5b6125208e838f016122f3565b909650945060808d0135915080821115612538578384fd5b506125458d828e016122f3565b915080935050809150509295989b9194979a5092959850565b60006020828403121561256f578081fd5b81518015158114611649578182fd5b600080600060608486031215612592578283fd5b833561259d81612873565b925060208401356125ad81612873565b929592945050506040919091013590565b6000602082840312156125cf578081fd5b5035919050565b600080604083850312156125e8578182fd5b50508035926020909101359150565b600082516126098184602087016127ff565b9190910192915050565b60208152600082518060208401526126328160408501602087016127ff565b601f01601f19169190910160400192915050565b60208082526024908201527f4d6963726f6372656469743a2063616c6c6572206973206e6f742061206d616e60408201526330b3b2b960e11b606082015260800190565b60208082526030908201527f4d6963726f6372656469743a2063616c6c6461746120696e666f726d6174696f60408201526f0dc40c2e4d2e8f240dad2e6dac2e8c6d60831b606082015260800190565b6020808252818101527f4f776e61626c653a2063616c6c6572206973206e6f7420746865206f776e6572604082015260600190565b6020808252602b908201527f496e697469616c697a61626c653a20636f6e7472616374206973206e6f74206960408201526a6e697469616c697a696e6760a81b606082015260800190565b6020808252601f908201527f5265656e7472616e637947756172643a207265656e7472616e742063616c6c00604082015260600190565b600082198211156127a4576127a461285d565b500190565b6000826127c457634e487b7160e01b81526012600452602481fd5b500490565b60008160001904831182151516156127e3576127e361285d565b500290565b6000828210156127fa576127fa61285d565b500390565b60005b8381101561281a578181015183820152602001612802565b838111156104785750506000910152565b60008161283a5761283a61285d565b506000190190565b60006000198214156128565761285661285d565b5060010190565b634e487b7160e01b600052601160045260246000fd5b6001600160a01b03811681146115e557600080fdfea264697066735822122089058e1ec7b19cfbf81ee77d97771379c7d8ba5f684d7f4ceef82bdeed4ddf7664736f6c63430008040033",
  "devdoc": {
    "kind": "dev",
    "methods": {
      "initialize(address,address)": {
        "params": {
          "_cUSDAddress": "The address of the cUSD token",
          "_revenueAddress": "The address that collects all the interest"
        }
      },
      "managerListAt(uint256)": {
        "params": {
          "_index": "index value"
        },
        "returns": {
          "_0": "address of the manager"
        }
      },
      "owner()": {
        "details": "Returns the address of the current owner."
      },
      "paused()": {
        "details": "Returns true if the contract is paused, and false otherwise."
      },
      "renounceOwnership()": {
        "details": "Leaves the contract without owner. It will not be possible to call `onlyOwner` functions anymore. Can only be called by the current owner. NOTE: Renouncing ownership will leave the contract without an owner, thereby removing any functionality that is only available to the owner."
      },
      "transferERC20(address,address,uint256)": {
        "params": {
          "_amount": "amount of the transaction",
          "_to": "address of the receiver",
          "_token": "address of the ERC20 token"
        }
      },
      "transferOwnership(address)": {
        "details": "Transfers ownership of the contract to a new account (`newOwner`). Can only be called by the current owner."
      },
      "walletListAt(uint256)": {
        "params": {
          "_index": "index value"
        },
        "returns": {
          "_0": "address of the user"
        }
      },
      "walletMetadata(address)": {
        "params": {
          "_userAddress": "address of the user"
        },
        "returns": {
          "loansLength": "          the number of the user's loans",
          "movedTo": "              the number of the user's loans",
          "userId": "               the userId"
        }
      }
    },
    "version": 1
  },
  "userdoc": {
    "kind": "user",
    "methods": {
      "getVersion()": {
        "notice": "Returns the current implementation version"
      },
      "initialize(address,address)": {
        "notice": "Used to initialize the Microcredit contract"
      },
      "managerListAt(uint256)": {
        "notice": "Returns an address from the managerList"
      },
      "managerListLength()": {
        "notice": "Returns the length of the managerList"
      },
      "transferERC20(address,address,uint256)": {
        "notice": "Transfers an amount of an ERC20 from this contract to an address"
      },
      "walletListAt(uint256)": {
        "notice": "Returns an address from the walletList"
      },
      "walletListLength()": {
        "notice": "Returns the length of the walletList"
      },
      "walletMetadata(address)": {
        "notice": "Returns the information of a user"
      }
    },
    "version": 1
  },
  "storageLayout": {
    "storage": [
      {
        "astId": 542,
        "contract": "contracts/microcredit/MicrocreditImplementation.sol:MicrocreditImplementation",
        "label": "_initialized",
        "offset": 0,
        "slot": "0",
        "type": "t_bool"
      },
      {
        "astId": 545,
        "contract": "contracts/microcredit/MicrocreditImplementation.sol:MicrocreditImplementation",
        "label": "_initializing",
        "offset": 1,
        "slot": "0",
        "type": "t_bool"
      },
      {
        "astId": 1370,
        "contract": "contracts/microcredit/MicrocreditImplementation.sol:MicrocreditImplementation",
        "label": "__gap",
        "offset": 0,
        "slot": "1",
        "type": "t_array(t_uint256)50_storage"
      },
      {
        "astId": 420,
        "contract": "contracts/microcredit/MicrocreditImplementation.sol:MicrocreditImplementation",
        "label": "_owner",
        "offset": 0,
        "slot": "51",
        "type": "t_address"
      },
      {
        "astId": 534,
        "contract": "contracts/microcredit/MicrocreditImplementation.sol:MicrocreditImplementation",
        "label": "__gap",
        "offset": 0,
        "slot": "52",
        "type": "t_array(t_uint256)49_storage"
      },
      {
        "astId": 630,
        "contract": "contracts/microcredit/MicrocreditImplementation.sol:MicrocreditImplementation",
        "label": "_paused",
        "offset": 0,
        "slot": "101",
        "type": "t_bool"
      },
      {
        "astId": 721,
        "contract": "contracts/microcredit/MicrocreditImplementation.sol:MicrocreditImplementation",
        "label": "__gap",
        "offset": 0,
        "slot": "102",
        "type": "t_array(t_uint256)49_storage"
      },
      {
        "astId": 736,
        "contract": "contracts/microcredit/MicrocreditImplementation.sol:MicrocreditImplementation",
        "label": "_status",
        "offset": 0,
        "slot": "151",
        "type": "t_uint256"
      },
      {
        "astId": 779,
        "contract": "contracts/microcredit/MicrocreditImplementation.sol:MicrocreditImplementation",
        "label": "__gap",
        "offset": 0,
        "slot": "152",
        "type": "t_array(t_uint256)49_storage"
      },
      {
        "astId": 25890,
        "contract": "contracts/microcredit/MicrocreditImplementation.sol:MicrocreditImplementation",
        "label": "cUSD",
        "offset": 0,
        "slot": "201",
        "type": "t_contract(IERC20Upgradeable)858"
      },
      {
        "astId": 25892,
        "contract": "contracts/microcredit/MicrocreditImplementation.sol:MicrocreditImplementation",
        "label": "_usersLength",
        "offset": 0,
        "slot": "202",
        "type": "t_uint256"
      },
      {
        "astId": 25897,
        "contract": "contracts/microcredit/MicrocreditImplementation.sol:MicrocreditImplementation",
        "label": "_users",
        "offset": 0,
        "slot": "203",
        "type": "t_mapping(t_uint256,t_struct(User)25656_storage)"
      },
      {
        "astId": 25902,
        "contract": "contracts/microcredit/MicrocreditImplementation.sol:MicrocreditImplementation",
        "label": "_walletMetadata",
        "offset": 0,
        "slot": "204",
        "type": "t_mapping(t_address,t_struct(WalletMetadata)25651_storage)"
      },
      {
        "astId": 25905,
        "contract": "contracts/microcredit/MicrocreditImplementation.sol:MicrocreditImplementation",
        "label": "_walletList",
        "offset": 0,
        "slot": "205",
        "type": "t_struct(AddressSet)5505_storage"
      },
      {
        "astId": 25908,
        "contract": "contracts/microcredit/MicrocreditImplementation.sol:MicrocreditImplementation",
        "label": "_managerList",
        "offset": 0,
        "slot": "207",
        "type": "t_struct(AddressSet)5505_storage"
      },
      {
        "astId": 25911,
        "contract": "contracts/microcredit/MicrocreditImplementation.sol:MicrocreditImplementation",
        "label": "revenueAddress",
        "offset": 0,
        "slot": "209",
        "type": "t_address"
      }
    ],
    "types": {
      "t_address": {
        "encoding": "inplace",
        "label": "address",
        "numberOfBytes": "20"
      },
      "t_array(t_bytes32)dyn_storage": {
        "base": "t_bytes32",
        "encoding": "dynamic_array",
        "label": "bytes32[]",
        "numberOfBytes": "32"
      },
      "t_array(t_struct(Loan)25682_storage)dyn_storage": {
        "base": "t_struct(Loan)25682_storage",
        "encoding": "dynamic_array",
        "label": "struct IMicrocredit.Loan[]",
        "numberOfBytes": "32"
      },
      "t_array(t_struct(Repayment)25661_storage)dyn_storage": {
        "base": "t_struct(Repayment)25661_storage",
        "encoding": "dynamic_array",
        "label": "struct IMicrocredit.Repayment[]",
        "numberOfBytes": "32"
      },
      "t_array(t_uint256)49_storage": {
        "base": "t_uint256",
        "encoding": "inplace",
        "label": "uint256[49]",
        "numberOfBytes": "1568"
      },
      "t_array(t_uint256)50_storage": {
        "base": "t_uint256",
        "encoding": "inplace",
        "label": "uint256[50]",
        "numberOfBytes": "1600"
      },
      "t_bool": {
        "encoding": "inplace",
        "label": "bool",
        "numberOfBytes": "1"
      },
      "t_bytes32": {
        "encoding": "inplace",
        "label": "bytes32",
        "numberOfBytes": "32"
      },
      "t_contract(IERC20Upgradeable)858": {
        "encoding": "inplace",
        "label": "contract IERC20Upgradeable",
        "numberOfBytes": "20"
      },
      "t_mapping(t_address,t_struct(WalletMetadata)25651_storage)": {
        "encoding": "mapping",
        "key": "t_address",
        "label": "mapping(address => struct IMicrocredit.WalletMetadata)",
        "numberOfBytes": "32",
        "value": "t_struct(WalletMetadata)25651_storage"
      },
      "t_mapping(t_bytes32,t_uint256)": {
        "encoding": "mapping",
        "key": "t_bytes32",
        "label": "mapping(bytes32 => uint256)",
        "numberOfBytes": "32",
        "value": "t_uint256"
      },
      "t_mapping(t_uint256,t_struct(User)25656_storage)": {
        "encoding": "mapping",
        "key": "t_uint256",
        "label": "mapping(uint256 => struct IMicrocredit.User)",
        "numberOfBytes": "32",
        "value": "t_struct(User)25656_storage"
      },
      "t_struct(AddressSet)5505_storage": {
        "encoding": "inplace",
        "label": "struct EnumerableSet.AddressSet",
        "members": [
          {
            "astId": 5504,
            "contract": "contracts/microcredit/MicrocreditImplementation.sol:MicrocreditImplementation",
            "label": "_inner",
            "offset": 0,
            "slot": "0",
            "type": "t_struct(Set)5204_storage"
          }
        ],
        "numberOfBytes": "64"
      },
      "t_struct(Loan)25682_storage": {
        "encoding": "inplace",
        "label": "struct IMicrocredit.Loan",
        "members": [
          {
            "astId": 25663,
            "contract": "contracts/microcredit/MicrocreditImplementation.sol:MicrocreditImplementation",
            "label": "amountBorrowed",
            "offset": 0,
            "slot": "0",
            "type": "t_uint256"
          },
          {
            "astId": 25665,
            "contract": "contracts/microcredit/MicrocreditImplementation.sol:MicrocreditImplementation",
            "label": "period",
            "offset": 0,
            "slot": "1",
            "type": "t_uint256"
          },
          {
            "astId": 25667,
            "contract": "contracts/microcredit/MicrocreditImplementation.sol:MicrocreditImplementation",
            "label": "dailyInterest",
            "offset": 0,
            "slot": "2",
            "type": "t_uint256"
          },
          {
            "astId": 25669,
            "contract": "contracts/microcredit/MicrocreditImplementation.sol:MicrocreditImplementation",
            "label": "claimDeadline",
            "offset": 0,
            "slot": "3",
            "type": "t_uint256"
          },
          {
            "astId": 25671,
            "contract": "contracts/microcredit/MicrocreditImplementation.sol:MicrocreditImplementation",
            "label": "startDate",
            "offset": 0,
            "slot": "4",
            "type": "t_uint256"
          },
          {
            "astId": 25673,
            "contract": "contracts/microcredit/MicrocreditImplementation.sol:MicrocreditImplementation",
            "label": "lastComputedDebt",
            "offset": 0,
            "slot": "5",
            "type": "t_uint256"
          },
          {
            "astId": 25675,
            "contract": "contracts/microcredit/MicrocreditImplementation.sol:MicrocreditImplementation",
            "label": "amountRepayed",
            "offset": 0,
            "slot": "6",
            "type": "t_uint256"
          },
          {
            "astId": 25679,
            "contract": "contracts/microcredit/MicrocreditImplementation.sol:MicrocreditImplementation",
            "label": "repayments",
            "offset": 0,
            "slot": "7",
            "type": "t_array(t_struct(Repayment)25661_storage)dyn_storage"
          },
          {
            "astId": 25681,
            "contract": "contracts/microcredit/MicrocreditImplementation.sol:MicrocreditImplementation",
            "label": "lastComputedDate",
            "offset": 0,
            "slot": "8",
            "type": "t_uint256"
          }
        ],
        "numberOfBytes": "288"
      },
      "t_struct(Repayment)25661_storage": {
        "encoding": "inplace",
        "label": "struct IMicrocredit.Repayment",
        "members": [
          {
            "astId": 25658,
            "contract": "contracts/microcredit/MicrocreditImplementation.sol:MicrocreditImplementation",
            "label": "date",
            "offset": 0,
            "slot": "0",
            "type": "t_uint256"
          },
          {
            "astId": 25660,
            "contract": "contracts/microcredit/MicrocreditImplementation.sol:MicrocreditImplementation",
            "label": "amount",
            "offset": 0,
            "slot": "1",
            "type": "t_uint256"
          }
        ],
        "numberOfBytes": "64"
      },
      "t_struct(Set)5204_storage": {
        "encoding": "inplace",
        "label": "struct EnumerableSet.Set",
        "members": [
          {
            "astId": 5199,
            "contract": "contracts/microcredit/MicrocreditImplementation.sol:MicrocreditImplementation",
            "label": "_values",
            "offset": 0,
            "slot": "0",
            "type": "t_array(t_bytes32)dyn_storage"
          },
          {
            "astId": 5203,
            "contract": "contracts/microcredit/MicrocreditImplementation.sol:MicrocreditImplementation",
            "label": "_indexes",
            "offset": 0,
            "slot": "1",
            "type": "t_mapping(t_bytes32,t_uint256)"
          }
        ],
        "numberOfBytes": "64"
      },
      "t_struct(User)25656_storage": {
        "encoding": "inplace",
        "label": "struct IMicrocredit.User",
        "members": [
          {
            "astId": 25655,
            "contract": "contracts/microcredit/MicrocreditImplementation.sol:MicrocreditImplementation",
            "label": "loans",
            "offset": 0,
            "slot": "0",
            "type": "t_array(t_struct(Loan)25682_storage)dyn_storage"
          }
        ],
        "numberOfBytes": "32"
      },
      "t_struct(WalletMetadata)25651_storage": {
        "encoding": "inplace",
        "label": "struct IMicrocredit.WalletMetadata",
        "members": [
          {
            "astId": 25648,
            "contract": "contracts/microcredit/MicrocreditImplementation.sol:MicrocreditImplementation",
            "label": "userId",
            "offset": 0,
            "slot": "0",
            "type": "t_uint256"
          },
          {
            "astId": 25650,
            "contract": "contracts/microcredit/MicrocreditImplementation.sol:MicrocreditImplementation",
            "label": "movedTo",
            "offset": 0,
            "slot": "1",
            "type": "t_address"
          }
        ],
        "numberOfBytes": "64"
      },
      "t_uint256": {
        "encoding": "inplace",
        "label": "uint256",
        "numberOfBytes": "32"
      }
    }
  }
}