{
  "address": "0xcBDBA6ba1FD1d03Acae1B74A8d428c2DC79e84cC",
  "abi": [
    {
      "anonymous": false,
      "inputs": [
        {
          "indexed": true,
          "internalType": "address",
          "name": "userAddress",
          "type": "address"
        },
        {
          "indexed": true,
          "internalType": "address",
          "name": "tokenAddress",
          "type": "address"
        },
        {
          "indexed": false,
          "internalType": "uint256",
          "name": "loanId",
          "type": "uint256"
        },
        {
          "indexed": false,
          "internalType": "uint256",
          "name": "amount",
          "type": "uint256"
        },
        {
          "indexed": false,
          "internalType": "uint256",
          "name": "period",
          "type": "uint256"
        },
        {
          "indexed": false,
          "internalType": "uint256",
          "name": "dailyInterest",
          "type": "uint256"
        },
        {
          "indexed": false,
          "internalType": "uint256",
          "name": "claimDeadline",
          "type": "uint256"
        }
      ],
      "name": "LoanAdded",
      "type": "event"
    },
    {
      "anonymous": false,
      "inputs": [
        {
          "indexed": true,
          "internalType": "address",
          "name": "userAddress",
          "type": "address"
        },
        {
          "indexed": false,
          "internalType": "uint256",
          "name": "loanId",
          "type": "uint256"
        }
      ],
      "name": "LoanCanceled",
      "type": "event"
    },
    {
      "anonymous": false,
      "inputs": [
        {
          "indexed": true,
          "internalType": "address",
          "name": "userAddress",
          "type": "address"
        },
        {
          "indexed": false,
          "internalType": "uint256",
          "name": "loanId",
          "type": "uint256"
        }
      ],
      "name": "LoanClaimed",
      "type": "event"
    },
    {
      "anonymous": false,
      "inputs": [
        {
          "indexed": true,
          "internalType": "address",
          "name": "_userAddress",
          "type": "address"
        },
        {
          "indexed": false,
          "internalType": "uint256",
          "name": "_loanId",
          "type": "uint256"
        },
        {
          "indexed": false,
          "internalType": "uint256",
          "name": "_newPeriod",
          "type": "uint256"
        },
        {
          "indexed": false,
          "internalType": "uint256",
          "name": "_newClaimDeadline",
          "type": "uint256"
        },
        {
          "indexed": false,
          "internalType": "uint256",
          "name": "_newDailyInterest",
          "type": "uint256"
        },
        {
          "indexed": false,
          "internalType": "uint256",
          "name": "_newLastComputedDebt",
          "type": "uint256"
        },
        {
          "indexed": false,
          "internalType": "uint256",
          "name": "_newLastComputedDate",
          "type": "uint256"
        }
      ],
      "name": "LoanEdited",
      "type": "event"
    },
    {
      "anonymous": false,
      "inputs": [
        {
          "indexed": true,
          "internalType": "address",
          "name": "managerAddress",
          "type": "address"
        },
        {
          "indexed": false,
          "internalType": "uint256",
          "name": "lentAmountLimit",
          "type": "uint256"
        }
      ],
      "name": "ManagerAdded",
      "type": "event"
    },
    {
      "anonymous": false,
      "inputs": [
        {
          "indexed": true,
          "internalType": "address",
          "name": "borrowerAddress",
          "type": "address"
        },
        {
          "indexed": true,
          "internalType": "address",
          "name": "managerAddress",
          "type": "address"
        }
      ],
      "name": "ManagerChanged",
      "type": "event"
    },
    {
      "anonymous": false,
      "inputs": [
        {
          "indexed": true,
          "internalType": "address",
          "name": "managerAddress",
          "type": "address"
        }
      ],
      "name": "ManagerRemoved",
      "type": "event"
    },
    {
      "anonymous": false,
      "inputs": [
        {
          "indexed": true,
          "internalType": "address",
          "name": "previousOwner",
          "type": "address"
        },
        {
          "indexed": true,
          "internalType": "address",
          "name": "newOwner",
          "type": "address"
        }
      ],
      "name": "OwnershipTransferred",
      "type": "event"
    },
    {
      "anonymous": false,
      "inputs": [
        {
          "indexed": false,
          "internalType": "address",
          "name": "account",
          "type": "address"
        }
      ],
      "name": "Paused",
      "type": "event"
    },
    {
      "anonymous": false,
      "inputs": [
        {
          "indexed": true,
          "internalType": "address",
          "name": "userAddress",
          "type": "address"
        },
        {
          "indexed": false,
          "internalType": "uint256",
          "name": "loanId",
          "type": "uint256"
        },
        {
          "indexed": false,
          "internalType": "uint256",
          "name": "repaymentAmount",
          "type": "uint256"
        },
        {
          "indexed": false,
          "internalType": "uint256",
          "name": "currentDebt",
          "type": "uint256"
        }
      ],
      "name": "RepaymentAdded",
      "type": "event"
    },
    {
      "anonymous": false,
      "inputs": [
        {
          "indexed": true,
          "internalType": "address",
          "name": "tokenAddress",
          "type": "address"
        }
      ],
      "name": "TokenAdded",
      "type": "event"
    },
    {
      "anonymous": false,
      "inputs": [
        {
          "indexed": true,
          "internalType": "address",
          "name": "tokenAddress",
          "type": "address"
        }
      ],
      "name": "TokenRemoved",
      "type": "event"
    },
    {
      "anonymous": false,
      "inputs": [
        {
          "indexed": false,
          "internalType": "address",
          "name": "account",
          "type": "address"
        }
      ],
      "name": "Unpaused",
      "type": "event"
    },
    {
      "anonymous": false,
      "inputs": [
        {
          "indexed": true,
          "internalType": "address",
          "name": "oldWalletAddress",
          "type": "address"
        },
        {
          "indexed": true,
          "internalType": "address",
          "name": "newWalletAddress",
          "type": "address"
        }
      ],
      "name": "UserAddressChanged",
      "type": "event"
    },
    {
      "inputs": [
        {
          "internalType": "address",
          "name": "_tokenAddress",
          "type": "address"
        },
        {
          "internalType": "uint256",
          "name": "_tokenAmount",
          "type": "uint256"
        }
      ],
      "name": "_getCUSDAmountFromExactTokenInput",
      "outputs": [
        {
          "internalType": "uint256",
          "name": "",
          "type": "uint256"
        }
      ],
      "stateMutability": "nonpayable",
      "type": "function"
    },
    {
      "inputs": [
        {
          "internalType": "address",
          "name": "_tokenAddress",
          "type": "address"
        },
        {
          "internalType": "uint256",
          "name": "_cUSDAmount",
          "type": "uint256"
        }
      ],
      "name": "_getTokenAmountFromExactCUSDOutput",
      "outputs": [
        {
          "internalType": "uint256",
          "name": "",
          "type": "uint256"
        }
      ],
      "stateMutability": "nonpayable",
      "type": "function"
    },
    {
      "inputs": [
        {
          "internalType": "address",
          "name": "_userAddress",
          "type": "address"
        },
        {
          "internalType": "uint256",
          "name": "_amount",
          "type": "uint256"
        },
        {
          "internalType": "uint256",
          "name": "_period",
          "type": "uint256"
        },
        {
          "internalType": "uint256",
          "name": "_dailyInterest",
          "type": "uint256"
        },
        {
          "internalType": "uint256",
          "name": "_claimDeadline",
          "type": "uint256"
        }
      ],
      "name": "addLoan",
      "outputs": [],
      "stateMutability": "nonpayable",
      "type": "function"
    },
    {
      "inputs": [
        {
          "internalType": "address",
          "name": "_userAddress",
          "type": "address"
        },
        {
          "internalType": "address",
          "name": "_tokenAddress",
          "type": "address"
        },
        {
          "internalType": "uint256",
          "name": "_amount",
          "type": "uint256"
        },
        {
          "internalType": "uint256",
          "name": "_period",
          "type": "uint256"
        },
        {
          "internalType": "uint256",
          "name": "_dailyInterest",
          "type": "uint256"
        },
        {
          "internalType": "uint256",
          "name": "_claimDeadline",
          "type": "uint256"
        }
      ],
      "name": "addLoan",
      "outputs": [],
      "stateMutability": "nonpayable",
      "type": "function"
    },
    {
      "inputs": [
        {
          "internalType": "address[]",
          "name": "_userAddresses",
          "type": "address[]"
        },
        {
          "internalType": "address[]",
          "name": "_tokenAddresses",
          "type": "address[]"
        },
        {
          "internalType": "uint256[]",
          "name": "_amounts",
          "type": "uint256[]"
        },
        {
          "internalType": "uint256[]",
          "name": "_periods",
          "type": "uint256[]"
        },
        {
          "internalType": "uint256[]",
          "name": "_dailyInterests",
          "type": "uint256[]"
        },
        {
          "internalType": "uint256[]",
          "name": "_claimDeadlines",
          "type": "uint256[]"
        }
      ],
      "name": "addLoans",
      "outputs": [],
      "stateMutability": "nonpayable",
      "type": "function"
    },
    {
      "inputs": [
        {
          "internalType": "address[]",
          "name": "_managerAddresses",
          "type": "address[]"
        },
        {
          "internalType": "uint256[]",
          "name": "_lentAmountLimits",
          "type": "uint256[]"
        }
      ],
      "name": "addManagers",
      "outputs": [],
      "stateMutability": "nonpayable",
      "type": "function"
    },
    {
      "inputs": [
        {
          "internalType": "address",
          "name": "_tokenAddress",
          "type": "address"
        },
        {
          "internalType": "address[]",
          "name": "_exchangeTokens",
          "type": "address[]"
        },
        {
          "internalType": "uint24[]",
          "name": "_exchangeTokensFees",
          "type": "uint24[]"
        }
      ],
      "name": "addToken",
      "outputs": [],
      "stateMutability": "nonpayable",
      "type": "function"
    },
    {
      "inputs": [],
      "name": "cUSD",
      "outputs": [
        {
          "internalType": "contract IERC20Upgradeable",
          "name": "",
          "type": "address"
        }
      ],
      "stateMutability": "view",
      "type": "function"
    },
    {
      "inputs": [
        {
          "internalType": "address[]",
          "name": "_userAddresses",
          "type": "address[]"
        },
        {
          "internalType": "uint256[]",
          "name": "_loansIds",
          "type": "uint256[]"
        }
      ],
      "name": "cancelLoans",
      "outputs": [],
      "stateMutability": "nonpayable",
      "type": "function"
    },
    {
      "inputs": [
        {
          "internalType": "address[]",
          "name": "_borrowerAddresses",
          "type": "address[]"
        },
        {
          "internalType": "address",
          "name": "_managerAddress",
          "type": "address"
        }
      ],
      "name": "changeManager",
      "outputs": [],
      "stateMutability": "nonpayable",
      "type": "function"
    },
    {
      "inputs": [
        {
          "internalType": "address",
          "name": "_oldWalletAddress",
          "type": "address"
        },
        {
          "internalType": "address",
          "name": "_newWalletAddress",
          "type": "address"
        }
      ],
      "name": "changeUserAddress",
      "outputs": [],
      "stateMutability": "nonpayable",
      "type": "function"
    },
    {
      "inputs": [
        {
          "internalType": "uint256",
          "name": "_loanId",
          "type": "uint256"
        }
      ],
      "name": "claimLoan",
      "outputs": [],
      "stateMutability": "nonpayable",
      "type": "function"
    },
    {
      "inputs": [],
      "name": "donationMiner",
      "outputs": [
        {
          "internalType": "contract IDonationMiner",
          "name": "",
          "type": "address"
        }
      ],
      "stateMutability": "view",
      "type": "function"
    },
    {
      "inputs": [
        {
          "internalType": "address",
          "name": "_userAddress",
          "type": "address"
        },
        {
          "internalType": "uint256",
          "name": "_loanId",
          "type": "uint256"
        },
        {
          "internalType": "uint256",
          "name": "_currentLastComputedDate",
          "type": "uint256"
        },
        {
          "internalType": "uint256",
          "name": "_newPeriod",
          "type": "uint256"
        },
        {
          "internalType": "uint256",
          "name": "_newDailyInterest",
          "type": "uint256"
        },
        {
          "internalType": "uint256",
          "name": "_newLastComputedDebt",
          "type": "uint256"
        },
        {
          "internalType": "uint256",
          "name": "_newLastComputedDate",
          "type": "uint256"
        }
      ],
      "name": "editLoan",
      "outputs": [],
      "stateMutability": "nonpayable",
      "type": "function"
    },
    {
      "inputs": [
        {
          "internalType": "address[]",
          "name": "_userAddresses",
          "type": "address[]"
        },
        {
          "internalType": "uint256[]",
          "name": "_loanIds",
          "type": "uint256[]"
        },
        {
          "internalType": "uint256[]",
          "name": "_newClaimDeadlines",
          "type": "uint256[]"
        }
      ],
      "name": "editLoanClaimDeadlines",
      "outputs": [],
      "stateMutability": "nonpayable",
      "type": "function"
    },
    {
      "inputs": [],
      "name": "getVersion",
      "outputs": [
        {
          "internalType": "uint256",
          "name": "",
          "type": "uint256"
        }
      ],
      "stateMutability": "pure",
      "type": "function"
    },
    {
      "inputs": [
        {
          "internalType": "address",
          "name": "_tokenAddress",
          "type": "address"
        }
      ],
      "name": "inactivateToken",
      "outputs": [],
      "stateMutability": "nonpayable",
      "type": "function"
    },
    {
      "inputs": [
        {
          "internalType": "uint256",
          "name": "_from",
          "type": "uint256"
        },
        {
          "internalType": "uint256",
          "name": "_to",
          "type": "uint256"
        }
      ],
      "name": "initV2",
      "outputs": [],
      "stateMutability": "nonpayable",
      "type": "function"
    },
    {
      "inputs": [
        {
          "internalType": "address",
          "name": "_cUSDAddress",
          "type": "address"
        },
        {
          "internalType": "address",
          "name": "_revenueAddress",
          "type": "address"
        }
      ],
      "name": "initialize",
      "outputs": [],
      "stateMutability": "nonpayable",
      "type": "function"
    },
    {
      "inputs": [
        {
          "internalType": "uint256",
          "name": "_index",
          "type": "uint256"
        }
      ],
      "name": "managerListAt",
      "outputs": [
        {
          "internalType": "address",
          "name": "",
          "type": "address"
        }
      ],
      "stateMutability": "view",
      "type": "function"
    },
    {
      "inputs": [],
      "name": "managerListLength",
      "outputs": [
        {
          "internalType": "uint256",
          "name": "",
          "type": "uint256"
        }
      ],
      "stateMutability": "view",
      "type": "function"
    },
    {
      "inputs": [
        {
          "internalType": "address",
          "name": "_managerAddress",
          "type": "address"
        }
      ],
      "name": "managers",
      "outputs": [
        {
          "components": [
            {
              "internalType": "uint256",
              "name": "lentAmountLimit",
              "type": "uint256"
            },
            {
              "internalType": "uint256",
              "name": "lentAmount",
              "type": "uint256"
            }
          ],
          "internalType": "struct IMicrocredit.Manager",
          "name": "",
          "type": "tuple"
        }
      ],
      "stateMutability": "view",
      "type": "function"
    },
    {
      "inputs": [],
      "name": "owner",
      "outputs": [
        {
          "internalType": "address",
          "name": "",
          "type": "address"
        }
      ],
      "stateMutability": "view",
      "type": "function"
    },
    {
      "inputs": [],
      "name": "paused",
      "outputs": [
        {
          "internalType": "bool",
          "name": "",
          "type": "bool"
        }
      ],
      "stateMutability": "view",
      "type": "function"
    },
    {
      "inputs": [
        {
          "internalType": "address[]",
          "name": "_managerAddresses",
          "type": "address[]"
        }
      ],
      "name": "removeManagers",
      "outputs": [],
      "stateMutability": "nonpayable",
      "type": "function"
    },
    {
      "inputs": [],
      "name": "renounceOwnership",
      "outputs": [],
      "stateMutability": "nonpayable",
      "type": "function"
    },
    {
      "inputs": [
        {
          "internalType": "uint256",
          "name": "_loanId",
          "type": "uint256"
        },
        {
          "internalType": "uint256",
          "name": "_tokenRepaymentAmount",
          "type": "uint256"
        }
      ],
      "name": "repayLoan",
      "outputs": [],
      "stateMutability": "nonpayable",
      "type": "function"
    },
    {
      "inputs": [],
      "name": "revenueAddress",
      "outputs": [
        {
          "internalType": "address",
          "name": "",
          "type": "address"
        }
      ],
      "stateMutability": "view",
      "type": "function"
    },
    {
      "inputs": [
        {
          "internalType": "address[]",
          "name": "_userAddresses",
          "type": "address[]"
        },
        {
          "internalType": "uint256[]",
          "name": "_loanIds",
          "type": "uint256[]"
        },
        {
          "internalType": "address[]",
          "name": "_managersAddresses",
          "type": "address[]"
        }
      ],
      "name": "setManagers",
      "outputs": [],
      "stateMutability": "nonpayable",
      "type": "function"
    },
    {
      "inputs": [
        {
          "internalType": "uint256",
          "name": "_index",
          "type": "uint256"
        }
      ],
      "name": "tokenListAt",
      "outputs": [
        {
          "internalType": "address",
          "name": "",
          "type": "address"
        }
      ],
      "stateMutability": "view",
      "type": "function"
    },
    {
      "inputs": [],
      "name": "tokenListLength",
      "outputs": [
        {
          "internalType": "uint256",
          "name": "",
          "type": "uint256"
        }
      ],
      "stateMutability": "view",
      "type": "function"
    },
    {
      "inputs": [
        {
          "internalType": "address",
          "name": "_tokenAddress",
          "type": "address"
        }
      ],
      "name": "tokens",
      "outputs": [
        {
          "internalType": "bool",
          "name": "active",
          "type": "bool"
        }
      ],
      "stateMutability": "view",
      "type": "function"
    },
    {
      "inputs": [
        {
          "internalType": "contract IERC20Upgradeable",
          "name": "_token",
          "type": "address"
        },
        {
          "internalType": "address",
          "name": "_to",
          "type": "address"
        },
        {
          "internalType": "uint256",
          "name": "_amount",
          "type": "uint256"
        }
      ],
      "name": "transferERC20",
      "outputs": [],
      "stateMutability": "nonpayable",
      "type": "function"
    },
    {
      "inputs": [
        {
          "internalType": "address",
          "name": "newOwner",
          "type": "address"
        }
      ],
      "name": "transferOwnership",
      "outputs": [],
      "stateMutability": "nonpayable",
      "type": "function"
    },
    {
      "inputs": [],
      "name": "uniswapQuoter",
      "outputs": [
        {
          "internalType": "contract IQuoter",
          "name": "",
          "type": "address"
        }
      ],
      "stateMutability": "view",
      "type": "function"
    },
    {
      "inputs": [],
      "name": "uniswapRouter",
      "outputs": [
        {
          "internalType": "contract IUniswapRouter02",
          "name": "",
          "type": "address"
        }
      ],
      "stateMutability": "view",
      "type": "function"
    },
    {
      "inputs": [
        {
          "internalType": "contract IDonationMiner",
          "name": "_newDonationMiner",
          "type": "address"
        }
      ],
      "name": "updateDonationMiner",
      "outputs": [],
      "stateMutability": "nonpayable",
      "type": "function"
    },
    {
      "inputs": [
        {
          "internalType": "address",
          "name": "_newRevenueAddress",
          "type": "address"
        }
      ],
      "name": "updateRevenueAddress",
      "outputs": [],
      "stateMutability": "nonpayable",
      "type": "function"
    },
    {
      "inputs": [
        {
          "internalType": "contract IQuoter",
          "name": "_newUniswapQuoter",
          "type": "address"
        }
      ],
      "name": "updateUniswapQuoter",
      "outputs": [],
      "stateMutability": "nonpayable",
      "type": "function"
    },
    {
      "inputs": [
        {
          "internalType": "contract IUniswapRouter02",
          "name": "_newUniswapRouter",
          "type": "address"
        }
      ],
      "name": "updateUniswapRouter",
      "outputs": [],
      "stateMutability": "nonpayable",
      "type": "function"
    },
    {
      "inputs": [
        {
          "internalType": "address",
          "name": "_userAddress",
          "type": "address"
        },
        {
          "internalType": "uint256",
          "name": "_loanId",
          "type": "uint256"
        },
        {
          "internalType": "uint256",
          "name": "_repaymentId",
          "type": "uint256"
        }
      ],
      "name": "userLoanRepayments",
      "outputs": [
        {
          "components": [
            {
              "internalType": "uint256",
              "name": "date",
              "type": "uint256"
            },
            {
              "internalType": "uint256",
              "name": "amount",
              "type": "uint256"
            },
            {
              "internalType": "uint256",
              "name": "tokenAmount",
              "type": "uint256"
            }
          ],
          "internalType": "struct IMicrocredit.Repayment",
          "name": "repayment",
          "type": "tuple"
        }
      ],
      "stateMutability": "view",
      "type": "function"
    },
    {
      "inputs": [
        {
          "internalType": "address",
          "name": "_userAddress",
          "type": "address"
        },
        {
          "internalType": "uint256",
          "name": "_loanId",
          "type": "uint256"
        }
      ],
      "name": "userLoans",
      "outputs": [
        {
          "components": [
            {
              "internalType": "uint256",
              "name": "amountBorrowed",
              "type": "uint256"
            },
            {
              "internalType": "uint256",
              "name": "period",
              "type": "uint256"
            },
            {
              "internalType": "uint256",
              "name": "dailyInterest",
              "type": "uint256"
            },
            {
              "internalType": "uint256",
              "name": "claimDeadline",
              "type": "uint256"
            },
            {
              "internalType": "uint256",
              "name": "startDate",
              "type": "uint256"
            },
            {
              "internalType": "uint256",
              "name": "currentDebt",
              "type": "uint256"
            },
            {
              "internalType": "uint256",
              "name": "lastComputedDebt",
              "type": "uint256"
            },
            {
              "internalType": "uint256",
              "name": "amountRepayed",
              "type": "uint256"
            },
            {
              "internalType": "uint256",
              "name": "repaymentsLength",
              "type": "uint256"
            },
            {
              "internalType": "uint256",
              "name": "lastComputedDate",
              "type": "uint256"
            },
            {
              "internalType": "address",
              "name": "managerAddress",
              "type": "address"
            },
            {
              "internalType": "address",
              "name": "tokenAddress",
              "type": "address"
            },
            {
              "internalType": "uint256",
              "name": "tokenAmountBorrowed",
              "type": "uint256"
            },
            {
              "internalType": "uint256",
              "name": "tokenAmountRepayed",
              "type": "uint256"
            },
            {
              "internalType": "uint256",
              "name": "tokenLastComputedDebt",
              "type": "uint256"
            },
            {
              "internalType": "uint256",
              "name": "tokenCurrentDebt",
              "type": "uint256"
            }
          ],
          "internalType": "struct IMicrocredit.UserLoanResponse",
          "name": "userLoan",
          "type": "tuple"
        }
      ],
      "stateMutability": "nonpayable",
      "type": "function"
    },
    {
      "inputs": [
        {
          "internalType": "uint256",
          "name": "_index",
          "type": "uint256"
        }
      ],
      "name": "walletListAt",
      "outputs": [
        {
          "internalType": "address",
          "name": "",
          "type": "address"
        }
      ],
      "stateMutability": "view",
      "type": "function"
    },
    {
      "inputs": [],
      "name": "walletListLength",
      "outputs": [
        {
          "internalType": "uint256",
          "name": "",
          "type": "uint256"
        }
      ],
      "stateMutability": "view",
      "type": "function"
    },
    {
      "inputs": [
        {
          "internalType": "address",
          "name": "_userAddress",
          "type": "address"
        }
      ],
      "name": "walletMetadata",
      "outputs": [
        {
          "internalType": "uint256",
          "name": "userId",
          "type": "uint256"
        },
        {
          "internalType": "address",
          "name": "movedTo",
          "type": "address"
        },
        {
          "internalType": "uint256",
          "name": "loansLength",
          "type": "uint256"
        }
      ],
      "stateMutability": "view",
      "type": "function"
    }
  ],
  "transactionHash": "0x96c31473c99ff1a9a2bda3eb1bfe6de1079d4930bdfdaab3ce32cfcac8d8c145",
  "args": [],
  "numDeployments": 15,
  "solcInputHash": "c43e13599213df2fbc72b65ae8039e23",
  "bytecode": "0x608060405234801561001057600080fd5b50614663806100206000396000f3fe608060405234801561001057600080fd5b506004361061027f5760003560e01c80638634e84b1161015c578063cef96070116100ce578063efaf058b11610087578063efaf058b14610609578063f29ebfef1461061c578063f2fde38b1461062f578063fdd2885914610642578063fdf7b37914610655578063fdff9b4d1461066857600080fd5b8063cef9607014610571578063d8bad5bd14610584578063e0c7cf57146105a4578063e36d4f3e146105b7578063e4860339146105ca578063eef1b515146105f657600080fd5b80639a9cb971116101205780639a9cb971146104ff5780639db5dbe414610512578063a3745c6814610525578063adb9712614610538578063b410908d1461054b578063c89fc9a71461055e57600080fd5b80638634e84b146104ad5780638a700b53146104c05780638da5cb5b146104d3578063908bb2ae146104e45780639a552a29146104f757600080fd5b806353a469b3116101f557806368fcaf84116101b957806368fcaf8414610424578063715018a614610437578063735de9f71461043f57806378d5bcc11461045257806380407735146104875780638241bb571461049a57600080fd5b806353a469b31461036757806356bf5ce71461037a5780635c975abb1461038d57806360c4477a146103a45780636323f5e9146103ac57600080fd5b806332b194b51161024757806332b194b514610300578063387d0263146103135780633a17596b1461031b57806347397a5a1461032e578063485cc955146103415780634db4a3521461035457600080fd5b80630d8e6e2c146102845780630e242d5a1461029a57806310f3ee29146102af5780631fccf672146102c25780632e131cf9146102ed575b600080fd5b60025b6040519081526020015b60405180910390f35b6102ad6102a8366004613b81565b6106d8565b005b6102ad6102bd366004613da3565b61072d565b60c9546102d5906001600160a01b031681565b6040516001600160a01b039091168152602001610291565b6102ad6102fb366004613b81565b61092d565b6102d561030e36600461417a565b610a0d565b610287610a20565b6102ad610329366004613d0c565b610a31565b6102ad61033c3660046141aa565b610a7a565b6102ad61034f366004613b9d565b610be9565b60d9546102d5906001600160a01b031681565b6102ad61037536600461417a565b610d0b565b610287610388366004613cad565b610f1d565b60655460ff165b6040519015158152602001610291565b610287611020565b6104016103ba366004613b81565b6001600160a01b03908116600090815260cc6020908152604080832081518083018352815480825260019092015490951694830185905280845260d4909252909120549092565b604080519384526001600160a01b03909216602084015290820152606001610291565b6102d561043236600461417a565b61102c565b6102ad611039565b60d8546102d5906001600160a01b031681565b610465610460366004613cd8565b61106f565b6040805182518152602080840151908201529181015190820152606001610291565b6102ad610495366004613f1f565b61118b565b6102ad6104a8366004613f88565b611252565b6102ad6104bb366004613d4f565b611599565b6102ad6104ce3660046141aa565b6117fa565b6033546001600160a01b03166102d5565b6102ad6104f2366004613b81565b611c9e565b610287611cea565b6102ad61050d36600461401e565b611cf6565b6102ad610520366004614117565b611e9d565b6102ad610533366004613c2d565b611f0d565b6102d561054636600461417a565b6122ff565b60d1546102d5906001600160a01b031681565b6102ad61056c366004613b81565b61230c565b61028761057f366004613cad565b612358565b610597610592366004613cad565b6123d5565b6040516102919190614451565b6102ad6105b2366004613f1f565b6125cf565b60d3546102d5906001600160a01b031681565b6103946105d8366004613b81565b6001600160a01b0316600090815260d5602052604090205460ff1690565b6102ad610604366004613b9d565b612777565b6102ad610617366004613f88565b61291c565b6102ad61062a366004613bd5565b612aa5565b6102ad61063d366004613b81565b612ada565b6102ad610650366004613b81565b612b75565b6102ad610663366004613de3565b612c27565b6106bd610676366004613b81565b6040805180820190915260008082526020820152506001600160a01b0316600090815260d26020908152604091829020825180840190935280548352600101549082015290565b60408051825181526020928301519281019290925201610291565b6033546001600160a01b0316331461070b5760405162461bcd60e51b815260040161070290614358565b60405180910390fd5b60d980546001600160a01b0319166001600160a01b0392909216919091179055565b6033546001600160a01b031633146107575760405162461bcd60e51b815260040161070290614358565b8060005b818110156109275760d2600085858481811061078757634e487b7160e01b600052603260045260246000fd5b905060200201602081019061079c9190613b81565b6001600160a01b03168152602081019190915260400160002060010154156108155760405162461bcd60e51b815260206004820152602660248201527f4d6963726f6372656469743a206d616e6167657220686173206f6e676f696e67604482015265206c6f616e7360d01b6064820152608401610702565b61085584848381811061083857634e487b7160e01b600052603260045260246000fd5b905060200201602081019061084d9190613b81565b60cf90612e25565b50600060d2600086868581811061087c57634e487b7160e01b600052603260045260246000fd5b90506020020160208101906108919190613b81565b6001600160a01b031681526020810191909152604001600020558383828181106108cb57634e487b7160e01b600052603260045260246000fd5b90506020020160208101906108e09190613b81565b6001600160a01b03167fef69f7d97228658c92417be1b16b19058315de71fecb435d07b7d23728b6bd3160405160405180910390a28061091f816145d1565b91505061075b565b50505050565b6033546001600160a01b031633146109575760405162461bcd60e51b815260040161070290614358565b6001600160a01b038116600090815260d5602052604090205460ff1615156001146109c45760405162461bcd60e51b815260206004820181905260248201527f4d6963726f6372656469743a20546f6b656e206973206e6f74206163746976656044820152606401610702565b6001600160a01b038116600081815260d56020526040808220805460ff19169055517f4c910b69fe65a61f7531b9c5042b2329ca7179c77290aa7e2eb3afa3c8511fd39190a250565b6000610a1a60d683612e3a565b92915050565b6000610a2c60cf612e46565b905090565b610a3c60cf33612e50565b610a585760405162461bcd60e51b815260040161070290614283565b60c954610a739086906001600160a01b031686868686612e72565b5050505050565b6033546001600160a01b03163314610aa45760405162461bcd60e51b815260040161070290614358565b60008060ca548310610ab85760ca54610aba565b825b92508391505b828211610b58575060005b600082815260d46020526040902054811015610b465760c954600083815260d4602090815260408083208584526001019091529020600b810180546001600160a01b0319166001600160a01b03909316929092179091558054600c8201556006810154600d9091015580610b3e816145d1565b915050610acb565b81610b50816145d1565b925050610ac0565b60c954610b709060d6906001600160a01b0316612e50565b6109275760c954610b8c9060d6906001600160a01b03166131fd565b5060c980546001600160a01b03908116600090815260d56020526040808220805460ff191660011790559254925192909116917f784c8f4dbf0ffedd6e72c76501c545a70f8b203b30a26ce542bf92ba87c248a49190a250505050565b600054610100900460ff16610c045760005460ff1615610c08565b303b155b610c6b5760405162461bcd60e51b815260206004820152602e60248201527f496e697469616c697a61626c653a20636f6e747261637420697320616c72656160448201526d191e481a5b9a5d1a585b1a5e995960921b6064820152608401610702565b600054610100900460ff16158015610c8d576000805461ffff19166101011790555b610c95613212565b610c9d613249565b610ca5613280565b60c980546001600160a01b0319166001600160a01b0385811691909117909155821615610cd25781610cd4565b305b60d180546001600160a01b0319166001600160a01b03929092169190911790558015610d06576000805461ff00191690555b505050565b60026097541415610d2e5760405162461bcd60e51b81526004016107029061441a565b6002609755610d3d33826132af565b33600090815260cc602090815260408083208151808301835281548082526001928301546001600160a01b031682860152855260d484528285208686529182019093529220600481015491929115610da75760405162461bcd60e51b815260040161070290614317565b6003810154610df85760405162461bcd60e51b815260206004820152601a60248201527f4d6963726f6372656469743a204c6f616e2063616e63656c65640000000000006044820152606401610702565b4281600301541015610e4c5760405162461bcd60e51b815260206004820152601960248201527f4d6963726f6372656469743a204c6f616e2065787069726564000000000000006044820152606401610702565b4260048201556002810154670de0b6b3a764000090610e6d90606490614538565b610e7f90670de0b6b3a7640000614520565b8254610e8b9190614558565b610e959190614538565b6005820155426009820155600b8101548154610eba916001600160a01b031690612358565b600c8201819055600b820154610edd916001600160a01b039091169033906133b8565b60405184815233907fba0cbe8ef8ef3c6984adc684d0c9b9a4d2d4c79b4678b63c38651fa48d21c62c9060200160405180910390a2505060016097555050565b60c9546000906001600160a01b0384811691161480610f3a575081155b15610f46575080610a1a565b6001600160a01b03808416600090815260d56020908152604080832060d95460c9548616808652600383018552948390205492519195169363cdca175393610f99938a9362ffffff9091169291016141f7565b604051602081830303815290604052856040518363ffffffff1660e01b8152600401610fc692919061424e565b602060405180830381600087803b158015610fe057600080fd5b505af1158015610ff4573d6000803e3d6000fd5b505050506040513d601f19601f820116820180604052508101906110189190614192565b949350505050565b6000610a2c60cd612e46565b6000610a1a60cf83612e3a565b6033546001600160a01b031633146110635760405162461bcd60e51b815260040161070290614358565b61106d600061341b565b565b61109360405180606001604052806000815260200160008152602001600081525090565b61109d84846132af565b6001600160a01b03808516600090815260cc602090815260408083208151808301835281548082526001928301549096168185015294845260d48352818420888552908101909252909120600781015485106111475760405162461bcd60e51b8152602060048201526024808201527f4d6963726f6372656469743a2052657061796d656e7420646f65736e277420656044820152631e1a5cdd60e21b6064820152608401610702565b6000858152600890910160209081526040918290208251606081018452815481526001820154928101929092526002015491810191909152925050505b9392505050565b61119660cf33612e50565b6111b25760405162461bcd60e51b815260040161070290614283565b8281146111d15760405162461bcd60e51b8152600401610702906142c7565b60005b83811015610a73576112408585838181106111ff57634e487b7160e01b600052603260045260246000fd5b90506020020160208101906112149190613b81565b84848481811061123457634e487b7160e01b600052603260045260246000fd5b9050602002013561346d565b8061124a816145d1565b9150506111d4565b61125d60cf33612e50565b6112795760405162461bcd60e51b815260040161070290614283565b848381146112995760405162461bcd60e51b8152600401610702906142c7565b8082146112b85760405162461bcd60e51b8152600401610702906142c7565b60005b8181101561158f576113278888838181106112e657634e487b7160e01b600052603260045260246000fd5b90506020020160208101906112fb9190613b81565b87878481811061131b57634e487b7160e01b600052603260045260246000fd5b905060200201356132af565b600060cc60008a8a8581811061134d57634e487b7160e01b600052603260045260246000fd5b90506020020160208101906113629190613b81565b6001600160a01b039081168252602080830193909352604091820160009081208351808501855281548082526001928301549094168187015292825260d4909452918220909350918201818a8a878181106113cd57634e487b7160e01b600052603260045260246000fd5b905060200201358152602001908152602001600020905080600401546000146114085760405162461bcd60e51b815260040161070290614317565b4287878681811061142957634e487b7160e01b600052603260045260246000fd5b905060200201351161144d5760405162461bcd60e51b81526004016107029061438d565b86868581811061146d57634e487b7160e01b600052603260045260246000fd5b60200291909101356003830155508a8a8581811061149b57634e487b7160e01b600052603260045260246000fd5b90506020020160208101906114b09190613b81565b6001600160a01b03167fdb20a2888067faf36d2f9c97dd3826224c5c16f269229a776c3bd87453c1f6af8a8a878181106114fa57634e487b7160e01b600052603260045260246000fd5b9050602002013583600101548a8a8981811061152657634e487b7160e01b600052603260045260246000fd5b9050602002013585600201548660050154876009015460405161157196959493929190958652602086019490945260408501929092526060840152608083015260a082015260c00190565b60405180910390a25050508080611587906145d1565b9150506112bb565b5050505050505050565b6033546001600160a01b031633146115c35760405162461bcd60e51b815260040161070290614358565b6115cd87876132af565b6001600160a01b03808816600090815260cc602090815260408083208151808301835281548082526001928301549096168185015294845260d483528184208b8552908101909252909120600481015461168f5760405162461bcd60e51b815260206004820152603a60248201527f4d6963726f6372656469743a204c6f616e206973206e6f74206163746976652c60448201527f207573652063616e63656c206d6574686f6420696e73746561640000000000006064820152608401610702565b878160090154146116fa5760405162461bcd60e51b815260206004820152602f60248201527f4d6963726f6372656469743a20546865207573657220686173206a757374206d60448201526e1859194818481c995c185e5b595b9d608a1b6064820152608401610702565b8060040154841015801561170e5750428411155b61176b5760405162461bcd60e51b815260206004820152602860248201527f4d6963726f6372656469743a20496e76616c6964206e65774c617374436f6d70604482015267757465644461746560c01b6064820152608401610702565b600181018790556002810186905560058101859055600981018490556003810154604080518b8152602081018a905290810191909152606081018790526080810186905260a081018590526001600160a01b038b16907fdb20a2888067faf36d2f9c97dd3826224c5c16f269229a776c3bd87453c1f6af9060c00160405180910390a250505050505050505050565b6002609754141561181d5760405162461bcd60e51b81526004016107029061441a565b60026097558061186f5760405162461bcd60e51b815260206004820152601b60248201527f4d6963726f6372656469743a20496e76616c696420616d6f756e7400000000006044820152606401610702565b61187933836132af565b33600090815260cc602090815260408083208151808301835281548082526001928301546001600160a01b031682860152855260d48452828520878652918201909352922060048101549192916119125760405162461bcd60e51b815260206004820152601d60248201527f4d6963726f6372656469743a204c6f616e206e6f7420636c61696d65640000006044820152606401610702565b600081600501541161197f5760405162461bcd60e51b815260206004820152603060248201527f4d6963726f6372656469743a204c6f616e2068617320616c726561647920626560448201526f195b88199d5b1b1e481c995c185e595960821b6064820152608401610702565b600061198a826135c7565b600b8301549091506000906119a8906001600160a01b031687610f1d565b9050808210156119d05750600b82015481906119cd906001600160a01b031682612358565b95505b825460068401546119e2908390614520565b11611a1e57600b830154611a01906001600160a01b0316333089613661565b600a830154611a19906001600160a01b031682613699565b611ae6565b8254600684015410611a4b5760d154600b840154611a19916001600160a01b039182169133911689613661565b60068301548354600091611a5e91614577565b600b850154909150600090611a7c906001600160a01b031683612358565b600b860154909150611a99906001600160a01b0316333084613661565b60d154611acb9033906001600160a01b0316611ab5848c614577565b600b8901546001600160a01b0316929190613661565b600a850154611ae3906001600160a01b031683613699565b50505b600783018054600081815260088601602052604081209290611b07836145d1565b90915550504281556001810182905560028101879055611b278284614577565b846005018190555081846006016000828254611b439190614520565b925050819055508684600d016000828254611b5e9190614520565b909155505060098401546000906201518090611b7a9042614577565b611b849190614538565b9050611b938162015180614558565b8560090154611ba29190614520565b60098601556005850154158015611bc3575060d3546001600160a01b031615155b15611c455760d354855460068701546001600160a01b039092169163bc4643ee91611bed91614577565b6040516001600160e01b031960e084901b1681526004810191909152336024820152604401600060405180830381600087803b158015611c2c57600080fd5b505af1158015611c40573d6000803e3d6000fd5b505050505b6005850154604080518b8152602081018690529081019190915233907f36bd188317b9b3af98bbc5bfd88a0bccb96582fa2c955815ea9916dfeeb02d9e9060600160405180910390a25050600160975550505050505050565b6033546001600160a01b03163314611cc85760405162461bcd60e51b815260040161070290614358565b60d880546001600160a01b0319166001600160a01b0392909216919091179055565b6000610a2c60d6612e46565b611d0160cf33612e50565b611d1d5760405162461bcd60e51b815260040161070290614283565b6000611d2a60cf83612e50565b611d825760405162461bcd60e51b8152602060048201526024808201527f4d6963726f6372656469743a20696e76616c6964206d616e61676572206164646044820152637265737360e01b6064820152608401610702565b5060005b8251811015610d0657611dca838281518110611db257634e487b7160e01b600052603260045260246000fd5b602002602001015160cd612e5090919063ffffffff16565b611e245760405162461bcd60e51b815260206004820152602560248201527f4d6963726f6372656469743a20696e76616c696420626f72726f776572206164604482015264647265737360d81b6064820152608401610702565b816001600160a01b0316838281518110611e4e57634e487b7160e01b600052603260045260246000fd5b60200260200101516001600160a01b03167f605c2dbf762e5f7d60a546d42e7205dcb1b011ebc62a61736a57c9089d3a435060405160405180910390a380611e95816145d1565b915050611d86565b60026097541415611ec05760405162461bcd60e51b81526004016107029061441a565b60026097556033546001600160a01b03163314611eef5760405162461bcd60e51b815260040161070290614358565b611f036001600160a01b03841683836133b8565b5050600160975550565b6033546001600160a01b03163314611f375760405162461bcd60e51b815260040161070290614358565b828114611f565760405162461bcd60e51b8152600401610702906142c7565b611f6160d6866131fd565b506001600160a01b03808616600081815260d560205260409020805460ff1916600117815560c95490921614156120035783158015611f9e575081155b611ffe5760405162461bcd60e51b815260206004820152602b60248201527f4d6963726f6372656469743a20635553442063616e277420686176652065786360448201526a68616e6765546f6b656e7360a81b6064820152608401610702565b6122c3565b600184148015612059575060c9546001600160a01b0316858560008161203957634e487b7160e01b600052603260045260246000fd5b905060200201602081019061204e9190613b81565b6001600160a01b0316145b6120d75760405162461bcd60e51b815260206004820152604360248201527f4d6963726f6372656469743a20466f7220746865206d6f6d656e742c206a757360448201527f7420635553442069732061636365707465642061732065786368616e6765546f60648201526235b2b760e91b608482015260a401610702565b8160005b818110156122435784848281811061210357634e487b7160e01b600052603260045260246000fd5b90506020020160208101906121189190614157565b83600301600089898581811061213e57634e487b7160e01b600052603260045260246000fd5b90506020020160208101906121539190613b81565b6001600160a01b031681526020810191909152604001600020805462ffffff191662ffffff929092169190911790556121c48787838181106121a557634e487b7160e01b600052603260045260246000fd5b90506020020160208101906121ba9190613b81565b60018501906131fd565b5060006121d989670de0b6b3a7640000610f1d565b116122315760405162461bcd60e51b815260206004820152602260248201527f4d6963726f6372656469743a20696e76616c69642065786368616e6765546f6b60448201526132b760f11b6064820152608401610702565b8061223b816145d1565b9150506120db565b5060c95461225e9060018401906001600160a01b0316612e50565b6122c15760405162461bcd60e51b815260206004820152602e60248201527f4d6963726f6372656469743a2065786368616e6765546f6b656e20746f20635560448201526d14d1081b5d5cdd081899481cd95d60921b6064820152608401610702565b505b6040516001600160a01b038716907f784c8f4dbf0ffedd6e72c76501c545a70f8b203b30a26ce542bf92ba87c248a490600090a2505050505050565b6000610a1a60cd83612e3a565b6033546001600160a01b031633146123365760405162461bcd60e51b815260040161070290614358565b60d380546001600160a01b0319166001600160a01b0392909216919091179055565b60c9546000906001600160a01b0384811691161480612375575081155b15612381575080610a1a565b6001600160a01b03808416600090815260d56020908152604080832060d95460c95486168086526003830185529483902054925191951693632f80bb1d93610f9993919262ffffff909216918a91016141f7565b6124676040518061020001604052806000815260200160008152602001600081526020016000815260200160008152602001600081526020016000815260200160008152602001600081526020016000815260200160006001600160a01b0316815260200160006001600160a01b03168152602001600081526020016000815260200160008152602001600081525090565b61247183836132af565b6001600160a01b03808416600090815260cc602090815260408083208151808301835281548082526001928301549096168185015294845260d4835281842087855281018352928190208054865292830154918501919091526002820154908401526003810154606084015260048101546080840152600581015460c08401526124fa816135c7565b60a0840152600681015460e084015260078101546101008401526009810154610120840152600a8101546001600160a01b03908116610140850152600b82015416610160840152600c81015461256957600b8101548154612564916001600160a01b031690612358565b61256f565b80600c01545b610180840152600d8101546101a0840152600b81015460c084015161259d916001600160a01b031690612358565b6101c0840152600b81015460a08401516125c0916001600160a01b031690612358565b6101e084015250909392505050565b6033546001600160a01b031633146125f95760405162461bcd60e51b815260040161070290614358565b8260005b8181101561276f5761264586868381811061262857634e487b7160e01b600052603260045260246000fd5b905060200201602081019061263d9190613b81565b60cf906131fd565b5083838281811061266657634e487b7160e01b600052603260045260246000fd5b9050602002013560d2600088888581811061269157634e487b7160e01b600052603260045260246000fd5b90506020020160208101906126a69190613b81565b6001600160a01b031681526020810191909152604001600020558585828181106126e057634e487b7160e01b600052603260045260246000fd5b90506020020160208101906126f59190613b81565b6001600160a01b03167ffae05d1286e3d4cd0db21fce06a66beb75ec586eb923fc0fcc332e69d7ad2e2f85858481811061273f57634e487b7160e01b600052603260045260246000fd5b9050602002013560405161275591815260200190565b60405180910390a280612767816145d1565b9150506125fd565b505050505050565b61278260cf33612e50565b61279e5760405162461bcd60e51b815260040161070290614283565b6001600160a01b038216600090815260cc602052604090208054158015906127d1575060018101546001600160a01b0316155b61282c5760405162461bcd60e51b815260206004820152602660248201527f4d6963726f6372656469743a205468697320757365722063616e6e6f74206265604482015265081b5bdd995960d21b6064820152608401610702565b6001600160a01b038216600090815260cc602052604090208054156128a95760405162461bcd60e51b815260206004820152602d60248201527f4d6963726f6372656469743a205461726765742077616c6c657420616464726560448201526c1cdcc81a5cc81a5b9d985b1a59609a1b6064820152608401610702565b6001820180546001600160a01b0319166001600160a01b038516179055815481556128d560cd846131fd565b50826001600160a01b0316846001600160a01b03167ffe697da51e9b8089b3ac92361b06886b93f48f935848aa4da1148c15b262840a60405160405180910390a350505050565b6033546001600160a01b031633146129465760405162461bcd60e51b815260040161070290614358565b8481146129655760405162461bcd60e51b8152600401610702906142c7565b60005b85811015612a9c57600060cc600089898581811061299657634e487b7160e01b600052603260045260246000fd5b90506020020160208101906129ab9190613b81565b6001600160a01b03908116825260208083019390935260409182016000208251808401909352805483526001015416918101919091529050838383818110612a0357634e487b7160e01b600052603260045260246000fd5b9050602002016020810190612a189190613b81565b8151600090815260d46020526040812060010190888886818110612a4c57634e487b7160e01b600052603260045260246000fd5b905060200201358152602001908152602001600020600a0160006101000a8154816001600160a01b0302191690836001600160a01b03160217905550508080612a94906145d1565b915050612968565b50505050505050565b612ab060cf33612e50565b612acc5760405162461bcd60e51b815260040161070290614283565b61276f868686868686612e72565b6033546001600160a01b03163314612b045760405162461bcd60e51b815260040161070290614358565b6001600160a01b038116612b695760405162461bcd60e51b815260206004820152602660248201527f4f776e61626c653a206e6577206f776e657220697320746865207a65726f206160448201526564647265737360d01b6064820152608401610702565b612b728161341b565b50565b6033546001600160a01b03163314612b9f5760405162461bcd60e51b815260040161070290614358565b6001600160a01b038116612c055760405162461bcd60e51b815260206004820152602760248201527f4d6963726f6372656469743a20726576656e756541646472657373206d757374604482015266081899481cd95d60ca1b6064820152608401610702565b60d180546001600160a01b0319166001600160a01b0392909216919091179055565b612c3260cf33612e50565b612c4e5760405162461bcd60e51b815260040161070290614283565b8a898114612c6e5760405162461bcd60e51b8152600401610702906142c7565b808814612c8d5760405162461bcd60e51b8152600401610702906142c7565b808614612cac5760405162461bcd60e51b8152600401610702906142c7565b808414612ccb5760405162461bcd60e51b8152600401610702906142c7565b808214612cea5760405162461bcd60e51b8152600401610702906142c7565b60005b81811015612e1557612e038e8e83818110612d1857634e487b7160e01b600052603260045260246000fd5b9050602002016020810190612d2d9190613b81565b8d8d84818110612d4d57634e487b7160e01b600052603260045260246000fd5b9050602002016020810190612d629190613b81565b8c8c85818110612d8257634e487b7160e01b600052603260045260246000fd5b905060200201358b8b86818110612da957634e487b7160e01b600052603260045260246000fd5b905060200201358a8a87818110612dd057634e487b7160e01b600052603260045260246000fd5b90506020020135898988818110612df757634e487b7160e01b600052603260045260246000fd5b90506020020135612e72565b80612e0d816145d1565b915050612ced565b5050505050505050505050505050565b6000611184836001600160a01b0384166136ee565b6000611184838361380b565b6000610a1a825490565b6001600160a01b03811660009081526001830160205260408120541515611184565b6001600160a01b038516600090815260d5602052604090205460ff161515600114612edf5760405162461bcd60e51b815260206004820152601a60248201527f4d6963726f6372656469743a20696e76616c696420746f6b656e0000000000006044820152606401610702565b428111612efe5760405162461bcd60e51b81526004016107029061438d565b6001600160a01b03808716600090815260cc60205260409020600181015490911615612f785760405162461bcd60e51b8152602060048201526024808201527f4d6963726f6372656469743a20546865207573657220686173206265656e206d6044820152631bdd995960e21b6064820152608401610702565b33600090815260d26020526040902080546001820154612f99908890614520565b11156130185760405162461bcd60e51b815260206004820152604260248201527f4d6963726f6372656469743a204d616e6167657220646f6e277420686176652060448201527f656e6f7567682066756e647320746f20626f72726f77207468697320616d6f756064820152611b9d60f21b608482015260a401610702565b81546130455760ca805490600061302e836145d1565b909155505060ca54825561304360cd896131fd565b505b8154600090815260d4602052604090208054801561310c5760008260010160006001846130729190614577565b815260200190815260200160002090506000816004015411801561309857506005810154155b806130a557506003810154155b61310a5760405162461bcd60e51b815260206004820152603060248201527f4d6963726f6372656469743a20546865207573657220616c726561647920686160448201526f399030b71030b1ba34bb32903637b0b760811b6064820152608401610702565b505b6000818152600183016020526040812083549091849061312b836145d1565b9091555050600b810180546001600160a01b038c166001600160a01b03199182161790915589825560018083018a90556002830189905560038301889055600a830180549092163317909155840180548a919060009061318c908490614520565b909155505060408051838152602081018b905290810189905260608101889052608081018790526001600160a01b03808c1691908d16907fed40ee432e5ffa2f69dfc2b8c7a11d8182b1ed55bc1c557d71af8e38108d8d919060a00160405180910390a35050505050505050505050565b6000611184836001600160a01b038416613843565b600054610100900460ff166132395760405162461bcd60e51b8152600401610702906143cf565b613241613892565b61106d6138b9565b600054610100900460ff166132705760405162461bcd60e51b8152600401610702906143cf565b613278613892565b61106d6138e9565b600054610100900460ff166132a75760405162461bcd60e51b8152600401610702906143cf565b61106d61391c565b6001600160a01b03808316600090815260cc602090815260409182902082518084019093528054808452600190910154909316908201529015801590613300575060208101516001600160a01b0316155b6133585760405162461bcd60e51b815260206004820152602360248201527f4d6963726f6372656469743a20496e76616c69642077616c6c6574206164647260448201526265737360e81b6064820152608401610702565b8051600090815260d460205260409020805483106109275760405162461bcd60e51b815260206004820152601f60248201527f4d6963726f6372656469743a204c6f616e20646f65736e2774206578697374006044820152606401610702565b6040516001600160a01b038316602482015260448101829052610d0690849063a9059cbb60e01b906064015b60408051601f198184030181529190526020810180516001600160e01b03166001600160e01b03199093169290921790915261394a565b603380546001600160a01b038381166001600160a01b0319831681179093556040519116919082907f8be0079c531659141344cd1fd0a4f28419497f9722a3daafe3b4186f6b6457e090600090a35050565b61347782826132af565b6001600160a01b03808316600090815260cc602090815260408083208151808301835281548082526001928301549096168185015294845260d483528184208685529081019092529091206004810154156134e45760405162461bcd60e51b815260040161070290614317565b60038101546135405760405162461bcd60e51b815260206004820152602260248201527f4d6963726f6372656469743a204c6f616e20616c72656164792063616e63656c604482015261195960f21b6064820152608401610702565b600060038201819055600a8201546001600160a01b0316815260d26020526040812082546001820180549293919290919061357c908490614577565b90915550506040518581526001600160a01b038716907f2f0f5933c0b9b1d9fee69327e7789ce07ef1be486122748fc2a079742067a8089060200160405180910390a2505050505050565b60008160050154600014156135de57506000919050565b6000620151808360090154426135f49190614577565b6135fe9190614538565b60058401549091505b811561118457670de0b6b3a7640000606485600201546136279190614538565b61363990670de0b6b3a7640000614520565b6136439083614558565b61364d9190614538565b905081613659816145ba565b925050613607565b6040516001600160a01b03808516602483015283166044820152606481018290526109279085906323b872dd60e01b906084016133e4565b6001600160a01b038216600081815260d2602052604090209015610d065781816001015411156136e257818160010160008282546136d79190614577565b90915550610d069050565b60006001820155505050565b60008181526001830160205260408120548015613801576000613712600183614577565b855490915060009061372690600190614577565b90508181146137a757600086600001828154811061375457634e487b7160e01b600052603260045260246000fd5b906000526020600020015490508087600001848154811061378557634e487b7160e01b600052603260045260246000fd5b6000918252602080832090910192909255918252600188019052604090208390555b85548690806137c657634e487b7160e01b600052603160045260246000fd5b600190038181906000526020600020016000905590558560010160008681526020019081526020016000206000905560019350505050610a1a565b6000915050610a1a565b600082600001828154811061383057634e487b7160e01b600052603260045260246000fd5b9060005260206000200154905092915050565b600081815260018301602052604081205461388a57508154600181810184556000848152602080822090930184905584548482528286019093526040902091909155610a1a565b506000610a1a565b600054610100900460ff1661106d5760405162461bcd60e51b8152600401610702906143cf565b600054610100900460ff166138e05760405162461bcd60e51b8152600401610702906143cf565b61106d3361341b565b600054610100900460ff166139105760405162461bcd60e51b8152600401610702906143cf565b6065805460ff19169055565b600054610100900460ff166139435760405162461bcd60e51b8152600401610702906143cf565b6001609755565b600061399f826040518060400160405280602081526020017f5361666545524332303a206c6f772d6c6576656c2063616c6c206661696c6564815250856001600160a01b0316613a1c9092919063ffffffff16565b805190915015610d0657808060200190518101906139bd91906140f7565b610d065760405162461bcd60e51b815260206004820152602a60248201527f5361666545524332303a204552433230206f7065726174696f6e20646964206e6044820152691bdd081cdd58d8d9595960b21b6064820152608401610702565b6060611018848460008585843b613a755760405162461bcd60e51b815260206004820152601d60248201527f416464726573733a2063616c6c20746f206e6f6e2d636f6e74726163740000006044820152606401610702565b600080866001600160a01b03168587604051613a919190614232565b60006040518083038185875af1925050503d8060008114613ace576040519150601f19603f3d011682016040523d82523d6000602084013e613ad3565b606091505b5091509150613ae3828286613aee565b979650505050505050565b60608315613afd575081611184565b825115613b0d5782518084602001fd5b8160405162461bcd60e51b81526004016107029190614270565b8035613b3281614618565b919050565b60008083601f840112613b48578081fd5b50813567ffffffffffffffff811115613b5f578182fd5b6020830191508360208260051b8501011115613b7a57600080fd5b9250929050565b600060208284031215613b92578081fd5b813561118481614618565b60008060408385031215613baf578081fd5b8235613bba81614618565b91506020830135613bca81614618565b809150509250929050565b60008060008060008060c08789031215613bed578182fd5b8635613bf881614618565b95506020870135613c0881614618565b95989597505050506040840135936060810135936080820135935060a0909101359150565b600080600080600060608688031215613c44578081fd5b8535613c4f81614618565b9450602086013567ffffffffffffffff80821115613c6b578283fd5b613c7789838a01613b37565b90965094506040880135915080821115613c8f578283fd5b50613c9c88828901613b37565b969995985093965092949392505050565b60008060408385031215613cbf578182fd5b8235613cca81614618565b946020939093013593505050565b600080600060608486031215613cec578283fd5b8335613cf781614618565b95602085013595506040909401359392505050565b600080600080600060a08688031215613d23578081fd5b8535613d2e81614618565b97602087013597506040870135966060810135965060800135945092505050565b600080600080600080600060e0888a031215613d69578081fd5b8735613d7481614618565b9960208901359950604089013598606081013598506080810135975060a0810135965060c00135945092505050565b60008060208385031215613db5578182fd5b823567ffffffffffffffff811115613dcb578283fd5b613dd785828601613b37565b90969095509350505050565b60008060008060008060008060008060008060c08d8f031215613e04578586fd5b67ffffffffffffffff8d351115613e19578586fd5b613e268e8e358f01613b37565b909c509a5067ffffffffffffffff60208e01351115613e43578586fd5b613e538e60208f01358f01613b37565b909a50985067ffffffffffffffff60408e01351115613e70578586fd5b613e808e60408f01358f01613b37565b909850965067ffffffffffffffff60608e01351115613e9d578586fd5b613ead8e60608f01358f01613b37565b909650945067ffffffffffffffff60808e01351115613eca578384fd5b613eda8e60808f01358f01613b37565b909450925067ffffffffffffffff60a08e01351115613ef7578081fd5b613f078e60a08f01358f01613b37565b81935080925050509295989b509295989b509295989b565b60008060008060408587031215613f34578182fd5b843567ffffffffffffffff80821115613f4b578384fd5b613f5788838901613b37565b90965094506020870135915080821115613f6f578384fd5b50613f7c87828801613b37565b95989497509550505050565b60008060008060008060608789031215613fa0578384fd5b863567ffffffffffffffff80821115613fb7578586fd5b613fc38a838b01613b37565b90985096506020890135915080821115613fdb578586fd5b613fe78a838b01613b37565b90965094506040890135915080821115613fff578384fd5b5061400c89828a01613b37565b979a9699509497509295939492505050565b60008060408385031215614030578182fd5b823567ffffffffffffffff80821115614047578384fd5b818501915085601f83011261405a578384fd5b813560208282111561406e5761406e614602565b8160051b604051601f19603f8301168101818110868211171561409357614093614602565b604052838152828101945085830182870184018b10156140b1578889fd5b8896505b848710156140da576140c681613b27565b8652600196909601959483019483016140b5565b5096506140ea9050878201613b27565b9450505050509250929050565b600060208284031215614108578081fd5b81518015158114611184578182fd5b60008060006060848603121561412b578081fd5b833561413681614618565b9250602084013561414681614618565b929592945050506040919091013590565b600060208284031215614168578081fd5b813562ffffff81168114611184578182fd5b60006020828403121561418b578081fd5b5035919050565b6000602082840312156141a3578081fd5b5051919050565b600080604083850312156141bc578182fd5b50508035926020909101359150565b600081518084526141e381602086016020860161458e565b601f01601f19169290920160200192915050565b606093841b6bffffffffffffffffffffffff19908116825260e89390931b6001600160e81b0319166014820152921b166017820152602b0190565b6000825161424481846020870161458e565b9190910192915050565b60408152600061426160408301856141cb565b90508260208301529392505050565b60208152600061118460208301846141cb565b60208082526024908201527f4d6963726f6372656469743a2063616c6c6572206973206e6f742061206d616e60408201526330b3b2b960e11b606082015260800190565b60208082526030908201527f4d6963726f6372656469743a2063616c6c6461746120696e666f726d6174696f60408201526f0dc40c2e4d2e8f240dad2e6dac2e8c6d60831b606082015260800190565b60208082526021908201527f4d6963726f6372656469743a204c6f616e20616c726561647920636c61696d656040820152601960fa1b606082015260800190565b6020808252818101527f4f776e61626c653a2063616c6c6572206973206e6f7420746865206f776e6572604082015260600190565b60208082526022908201527f4d6963726f6372656469743a20696e76616c696420636c61696d446561646c696040820152616e6560f01b606082015260800190565b6020808252602b908201527f496e697469616c697a61626c653a20636f6e7472616374206973206e6f74206960408201526a6e697469616c697a696e6760a81b606082015260800190565b6020808252601f908201527f5265656e7472616e637947756172643a207265656e7472616e742063616c6c00604082015260600190565b600061020082019050825182526020830151602083015260408301516040830152606083015160608301526080830151608083015260a083015160a083015260c083015160c083015260e083015160e0830152610100808401518184015250610120808401518184015250610140808401516144d7828501826001600160a01b03169052565b5050610160838101516001600160a01b03169083015261018080840151908301526101a080840151908301526101c080840151908301526101e092830151929091019190915290565b60008219821115614533576145336145ec565b500190565b60008261455357634e487b7160e01b81526012600452602481fd5b500490565b6000816000190483118215151615614572576145726145ec565b500290565b600082821015614589576145896145ec565b500390565b60005b838110156145a9578181015183820152602001614591565b838111156109275750506000910152565b6000816145c9576145c96145ec565b506000190190565b60006000198214156145e5576145e56145ec565b5060010190565b634e487b7160e01b600052601160045260246000fd5b634e487b7160e01b600052604160045260246000fd5b6001600160a01b0381168114612b7257600080fdfea264697066735822122096fbecdf7b064180211313989f284a9bd178e3f29956df04947d0fc5935bf34564736f6c63430008040033",
  "devdoc": {
    "events": {
      "ManagerChanged(address,address)": {
        "params": {
          "borrowerAddress": "The address of the borrower",
          "managerAddress": "The address of the new manager"
        }
      }
    },
    "kind": "dev",
    "methods": {
      "addLoan(address,address,uint256,uint256,uint256,uint256)": {
        "params": {
          "_amount": "amount of the loan",
          "_claimDeadline": "claim deadline of the loan",
          "_dailyInterest": "daily interest of the loan",
          "_period": "period of the loan",
          "_tokenAddress": "address of the token",
          "_userAddress": "address of the user"
        }
      },
      "addLoan(address,uint256,uint256,uint256,uint256)": {
        "params": {
          "_amount": "amount of the loan",
          "_claimDeadline": "claim deadline of the loan",
          "_dailyInterest": "daily interest of the loan",
          "_period": "period of the loan",
          "_userAddress": "address of the user"
        }
      },
      "addLoans(address[],address[],uint256[],uint256[],uint256[],uint256[])": {
        "params": {
          "_amounts": "amounts of the loan",
          "_claimDeadlines": "claim deadlines of the loan",
          "_dailyInterests": "daily interests of the loan",
          "_periods": "periods of the loan",
          "_tokenAddresses": "addresses of the tokens",
          "_userAddresses": "addresses of the user"
        }
      },
      "addManagers(address[],uint256[])": {
        "params": {
          "_managerAddresses": "addresses of the managers"
        }
      },
      "addToken(address,address[],uint24[])": {
        "params": {
          "_tokenAddress": "address of the token to be added"
        }
      },
      "cancelLoans(address[],uint256[])": {
        "params": {
          "_loansIds": "Loan ids",
          "_userAddresses": "User addresses"
        }
      },
      "changeManager(address[],address)": {
        "details": "This method doesn't change anything on the contract state, it just emits events to be used by the off-chain system",
        "params": {
          "_borrowerAddresses": "address of the borrowers",
          "_managerAddress": "address of the new manager"
        }
      },
      "changeUserAddress(address,address)": {
        "params": {
          "_newWalletAddress": "New wallet address",
          "_oldWalletAddress": "Old wallet address"
        }
      },
      "claimLoan(uint256)": {
        "params": {
          "_loanId": "Loan ID"
        }
      },
      "editLoan(address,uint256,uint256,uint256,uint256,uint256,uint256)": {
        "params": {
          "_currentLastComputedDate": "used as a control mechanism - if this value doesn't match the loan current lastComputedDate, it means that the user has made a repayment in the mean time so this call is not valid any more"
        }
      },
      "editLoanClaimDeadlines(address[],uint256[],uint256[])": {
        "params": {
          "_loanIds": "id of the loans",
          "_newClaimDeadlines": "new claim deadlines of the loan",
          "_userAddresses": "addresses of the user"
        }
      },
      "inactivateToken(address)": {
        "params": {
          "_tokenAddress": "address of the token to be added"
        }
      },
      "initialize(address,address)": {
        "params": {
          "_cUSDAddress": "The address of the cUSD token",
          "_revenueAddress": "The address that collects all the interest"
        }
      },
      "managerListAt(uint256)": {
        "params": {
          "_index": "index value"
        },
        "returns": {
          "_0": "address of the manager"
        }
      },
      "owner()": {
        "details": "Returns the address of the current owner."
      },
      "paused()": {
        "details": "Returns true if the contract is paused, and false otherwise."
      },
      "removeManagers(address[])": {
        "params": {
          "_managerAddresses": "addresses of the managers"
        }
      },
      "renounceOwnership()": {
        "details": "Leaves the contract without owner. It will not be possible to call `onlyOwner` functions anymore. Can only be called by the current owner. NOTE: Renouncing ownership will leave the contract without an owner, thereby removing any functionality that is only available to the owner."
      },
      "repayLoan(uint256,uint256)": {
        "params": {
          "_loanId": "Loan ID",
          "_tokenRepaymentAmount": "Repayment amount"
        }
      },
      "tokenListAt(uint256)": {
        "params": {
          "_index": "index value"
        },
        "returns": {
          "_0": "address of the token"
        }
      },
      "transferERC20(address,address,uint256)": {
        "params": {
          "_amount": "amount of the transaction",
          "_to": "address of the receiver",
          "_token": "address of the ERC20 token"
        }
      },
      "transferOwnership(address)": {
        "details": "Transfers ownership of the contract to a new account (`newOwner`). Can only be called by the current owner."
      },
      "walletListAt(uint256)": {
        "params": {
          "_index": "index value"
        },
        "returns": {
          "_0": "address of the user"
        }
      },
      "walletMetadata(address)": {
        "params": {
          "_userAddress": "address of the user"
        },
        "returns": {
          "loansLength": "          the number of the user's loans",
          "movedTo": "              the number of the user's loans",
          "userId": "               the userId"
        }
      }
    },
    "version": 1
  },
  "userdoc": {
    "events": {
      "ManagerChanged(address,address)": {
        "notice": "Triggered when a borrower's manager has been changed"
      }
    },
    "kind": "user",
    "methods": {
      "addLoan(address,address,uint256,uint256,uint256,uint256)": {
        "notice": "Adds a loan"
      },
      "addLoan(address,uint256,uint256,uint256,uint256)": {
        "notice": "Adds a loan"
      },
      "addLoans(address[],address[],uint256[],uint256[],uint256[],uint256[])": {
        "notice": "Adds multiples loans"
      },
      "addManagers(address[],uint256[])": {
        "notice": "Adds managers"
      },
      "addToken(address,address[],uint24[])": {
        "notice": "Adds a new token"
      },
      "cancelLoans(address[],uint256[])": {
        "notice": "Cancel a loan"
      },
      "changeManager(address[],address)": {
        "notice": "Changes the borrowers manager address"
      },
      "changeUserAddress(address,address)": {
        "notice": "Change user address"
      },
      "claimLoan(uint256)": {
        "notice": "Claim a loan"
      },
      "editLoan(address,uint256,uint256,uint256,uint256,uint256,uint256)": {
        "notice": "Used by owner to fix when an active loan has wrong params"
      },
      "editLoanClaimDeadlines(address[],uint256[],uint256[])": {
        "notice": "Edits multiples loans claim deadline"
      },
      "getVersion()": {
        "notice": "Returns the current implementation version"
      },
      "inactivateToken(address)": {
        "notice": "Adds a new token"
      },
      "initialize(address,address)": {
        "notice": "Used to initialize the Microcredit contract"
      },
      "managerListAt(uint256)": {
        "notice": "Returns an address from the managerList"
      },
      "managerListLength()": {
        "notice": "Returns the length of the managerList"
      },
      "removeManagers(address[])": {
        "notice": "Removes managers"
      },
      "repayLoan(uint256,uint256)": {
        "notice": "Repay a loan"
      },
      "tokenListAt(uint256)": {
        "notice": "Returns an address from the tokenList"
      },
      "tokenListLength()": {
        "notice": "Returns the length of the tokenList"
      },
      "transferERC20(address,address,uint256)": {
        "notice": "Transfers an amount of an ERC20 from this contract to an address"
      },
      "walletListAt(uint256)": {
        "notice": "Returns an address from the walletList"
      },
      "walletListLength()": {
        "notice": "Returns the length of the walletList"
      },
      "walletMetadata(address)": {
        "notice": "Returns the information of a user"
      }
    },
    "version": 1
  },
  "storageLayout": {
    "storage": [
      {
        "astId": 542,
        "contract": "contracts/microcredit/MicrocreditImplementation.sol:MicrocreditImplementation",
        "label": "_initialized",
        "offset": 0,
        "slot": "0",
        "type": "t_bool"
      },
      {
        "astId": 545,
        "contract": "contracts/microcredit/MicrocreditImplementation.sol:MicrocreditImplementation",
        "label": "_initializing",
        "offset": 1,
        "slot": "0",
        "type": "t_bool"
      },
      {
        "astId": 1370,
        "contract": "contracts/microcredit/MicrocreditImplementation.sol:MicrocreditImplementation",
        "label": "__gap",
        "offset": 0,
        "slot": "1",
        "type": "t_array(t_uint256)50_storage"
      },
      {
        "astId": 420,
        "contract": "contracts/microcredit/MicrocreditImplementation.sol:MicrocreditImplementation",
        "label": "_owner",
        "offset": 0,
        "slot": "51",
        "type": "t_address"
      },
      {
        "astId": 534,
        "contract": "contracts/microcredit/MicrocreditImplementation.sol:MicrocreditImplementation",
        "label": "__gap",
        "offset": 0,
        "slot": "52",
        "type": "t_array(t_uint256)49_storage"
      },
      {
        "astId": 630,
        "contract": "contracts/microcredit/MicrocreditImplementation.sol:MicrocreditImplementation",
        "label": "_paused",
        "offset": 0,
        "slot": "101",
        "type": "t_bool"
      },
      {
        "astId": 721,
        "contract": "contracts/microcredit/MicrocreditImplementation.sol:MicrocreditImplementation",
        "label": "__gap",
        "offset": 0,
        "slot": "102",
        "type": "t_array(t_uint256)49_storage"
      },
      {
        "astId": 736,
        "contract": "contracts/microcredit/MicrocreditImplementation.sol:MicrocreditImplementation",
        "label": "_status",
        "offset": 0,
        "slot": "151",
        "type": "t_uint256"
      },
      {
        "astId": 779,
        "contract": "contracts/microcredit/MicrocreditImplementation.sol:MicrocreditImplementation",
        "label": "__gap",
        "offset": 0,
        "slot": "152",
        "type": "t_array(t_uint256)49_storage"
      },
      {
        "astId": 27006,
        "contract": "contracts/microcredit/MicrocreditImplementation.sol:MicrocreditImplementation",
        "label": "cUSD",
        "offset": 0,
        "slot": "201",
        "type": "t_contract(IERC20Upgradeable)858"
      },
      {
        "astId": 27008,
        "contract": "contracts/microcredit/MicrocreditImplementation.sol:MicrocreditImplementation",
        "label": "_usersLength",
        "offset": 0,
        "slot": "202",
        "type": "t_uint256"
      },
      {
        "astId": 27013,
        "contract": "contracts/microcredit/MicrocreditImplementation.sol:MicrocreditImplementation",
        "label": "_usersOld",
        "offset": 0,
        "slot": "203",
        "type": "t_mapping(t_uint256,t_struct(UserOld)26567_storage)"
      },
      {
        "astId": 27018,
        "contract": "contracts/microcredit/MicrocreditImplementation.sol:MicrocreditImplementation",
        "label": "_walletMetadata",
        "offset": 0,
        "slot": "204",
        "type": "t_mapping(t_address,t_struct(WalletMetadata)26593_storage)"
      },
      {
        "astId": 27021,
        "contract": "contracts/microcredit/MicrocreditImplementation.sol:MicrocreditImplementation",
        "label": "_walletList",
        "offset": 0,
        "slot": "205",
        "type": "t_struct(AddressSet)5505_storage"
      },
      {
        "astId": 27024,
        "contract": "contracts/microcredit/MicrocreditImplementation.sol:MicrocreditImplementation",
        "label": "_managerList",
        "offset": 0,
        "slot": "207",
        "type": "t_struct(AddressSet)5505_storage"
      },
      {
        "astId": 27027,
        "contract": "contracts/microcredit/MicrocreditImplementation.sol:MicrocreditImplementation",
        "label": "revenueAddress",
        "offset": 0,
        "slot": "209",
        "type": "t_address"
      },
      {
        "astId": 27032,
        "contract": "contracts/microcredit/MicrocreditImplementation.sol:MicrocreditImplementation",
        "label": "_managers",
        "offset": 0,
        "slot": "210",
        "type": "t_mapping(t_address,t_struct(Manager)26606_storage)"
      },
      {
        "astId": 27036,
        "contract": "contracts/microcredit/MicrocreditImplementation.sol:MicrocreditImplementation",
        "label": "donationMiner",
        "offset": 0,
        "slot": "211",
        "type": "t_contract(IDonationMiner)18572"
      },
      {
        "astId": 27041,
        "contract": "contracts/microcredit/MicrocreditImplementation.sol:MicrocreditImplementation",
        "label": "_users",
        "offset": 0,
        "slot": "212",
        "type": "t_mapping(t_uint256,t_struct(User)26601_storage)"
      },
      {
        "astId": 27046,
        "contract": "contracts/microcredit/MicrocreditImplementation.sol:MicrocreditImplementation",
        "label": "_tokens",
        "offset": 0,
        "slot": "213",
        "type": "t_mapping(t_address,t_struct(Token)26655_storage)"
      },
      {
        "astId": 27049,
        "contract": "contracts/microcredit/MicrocreditImplementation.sol:MicrocreditImplementation",
        "label": "_tokenList",
        "offset": 0,
        "slot": "214",
        "type": "t_struct(AddressSet)5505_storage"
      },
      {
        "astId": 27053,
        "contract": "contracts/microcredit/MicrocreditImplementation.sol:MicrocreditImplementation",
        "label": "uniswapRouter",
        "offset": 0,
        "slot": "216",
        "type": "t_contract(IUniswapRouter02)19960"
      },
      {
        "astId": 27057,
        "contract": "contracts/microcredit/MicrocreditImplementation.sol:MicrocreditImplementation",
        "label": "uniswapQuoter",
        "offset": 0,
        "slot": "217",
        "type": "t_contract(IQuoter)19914"
      }
    ],
    "types": {
      "t_address": {
        "encoding": "inplace",
        "label": "address",
        "numberOfBytes": "20"
      },
      "t_array(t_bytes32)dyn_storage": {
        "base": "t_bytes32",
        "encoding": "dynamic_array",
        "label": "bytes32[]",
        "numberOfBytes": "32"
      },
      "t_array(t_struct(LoanOld)26588_storage)dyn_storage": {
        "base": "t_struct(LoanOld)26588_storage",
        "encoding": "dynamic_array",
        "label": "struct IMicrocredit.LoanOld[]",
        "numberOfBytes": "32"
      },
      "t_array(t_struct(Repayment)26613_storage)dyn_storage": {
        "base": "t_struct(Repayment)26613_storage",
        "encoding": "dynamic_array",
        "label": "struct IMicrocredit.Repayment[]",
        "numberOfBytes": "32"
      },
      "t_array(t_uint256)49_storage": {
        "base": "t_uint256",
        "encoding": "inplace",
        "label": "uint256[49]",
        "numberOfBytes": "1568"
      },
      "t_array(t_uint256)50_storage": {
        "base": "t_uint256",
        "encoding": "inplace",
        "label": "uint256[50]",
        "numberOfBytes": "1600"
      },
      "t_bool": {
        "encoding": "inplace",
        "label": "bool",
        "numberOfBytes": "1"
      },
      "t_bytes32": {
        "encoding": "inplace",
        "label": "bytes32",
        "numberOfBytes": "32"
      },
      "t_contract(IDonationMiner)18572": {
        "encoding": "inplace",
        "label": "contract IDonationMiner",
        "numberOfBytes": "20"
      },
      "t_contract(IERC20Upgradeable)858": {
        "encoding": "inplace",
        "label": "contract IERC20Upgradeable",
        "numberOfBytes": "20"
      },
      "t_contract(IQuoter)19914": {
        "encoding": "inplace",
        "label": "contract IQuoter",
        "numberOfBytes": "20"
      },
      "t_contract(IUniswapRouter02)19960": {
        "encoding": "inplace",
        "label": "contract IUniswapRouter02",
        "numberOfBytes": "20"
      },
      "t_mapping(t_address,t_struct(Manager)26606_storage)": {
        "encoding": "mapping",
        "key": "t_address",
        "label": "mapping(address => struct IMicrocredit.Manager)",
        "numberOfBytes": "32",
        "value": "t_struct(Manager)26606_storage"
      },
      "t_mapping(t_address,t_struct(Token)26655_storage)": {
        "encoding": "mapping",
        "key": "t_address",
        "label": "mapping(address => struct IMicrocredit.Token)",
        "numberOfBytes": "32",
        "value": "t_struct(Token)26655_storage"
      },
      "t_mapping(t_address,t_struct(WalletMetadata)26593_storage)": {
        "encoding": "mapping",
        "key": "t_address",
        "label": "mapping(address => struct IMicrocredit.WalletMetadata)",
        "numberOfBytes": "32",
        "value": "t_struct(WalletMetadata)26593_storage"
      },
      "t_mapping(t_address,t_uint24)": {
        "encoding": "mapping",
        "key": "t_address",
        "label": "mapping(address => uint24)",
        "numberOfBytes": "32",
        "value": "t_uint24"
      },
      "t_mapping(t_bytes32,t_uint256)": {
        "encoding": "mapping",
        "key": "t_bytes32",
        "label": "mapping(bytes32 => uint256)",
        "numberOfBytes": "32",
        "value": "t_uint256"
      },
      "t_mapping(t_uint256,t_struct(Loan)26645_storage)": {
        "encoding": "mapping",
        "key": "t_uint256",
        "label": "mapping(uint256 => struct IMicrocredit.Loan)",
        "numberOfBytes": "32",
        "value": "t_struct(Loan)26645_storage"
      },
      "t_mapping(t_uint256,t_struct(Repayment)26613_storage)": {
        "encoding": "mapping",
        "key": "t_uint256",
        "label": "mapping(uint256 => struct IMicrocredit.Repayment)",
        "numberOfBytes": "32",
        "value": "t_struct(Repayment)26613_storage"
      },
      "t_mapping(t_uint256,t_struct(User)26601_storage)": {
        "encoding": "mapping",
        "key": "t_uint256",
        "label": "mapping(uint256 => struct IMicrocredit.User)",
        "numberOfBytes": "32",
        "value": "t_struct(User)26601_storage"
      },
      "t_mapping(t_uint256,t_struct(UserOld)26567_storage)": {
        "encoding": "mapping",
        "key": "t_uint256",
        "label": "mapping(uint256 => struct IMicrocredit.UserOld)",
        "numberOfBytes": "32",
        "value": "t_struct(UserOld)26567_storage"
      },
      "t_struct(AddressSet)5505_storage": {
        "encoding": "inplace",
        "label": "struct EnumerableSet.AddressSet",
        "members": [
          {
            "astId": 5504,
            "contract": "contracts/microcredit/MicrocreditImplementation.sol:MicrocreditImplementation",
            "label": "_inner",
            "offset": 0,
            "slot": "0",
            "type": "t_struct(Set)5204_storage"
          }
        ],
        "numberOfBytes": "64"
      },
      "t_struct(Loan)26645_storage": {
        "encoding": "inplace",
        "label": "struct IMicrocredit.Loan",
        "members": [
          {
            "astId": 26615,
            "contract": "contracts/microcredit/MicrocreditImplementation.sol:MicrocreditImplementation",
            "label": "amountBorrowed",
            "offset": 0,
            "slot": "0",
            "type": "t_uint256"
          },
          {
            "astId": 26617,
            "contract": "contracts/microcredit/MicrocreditImplementation.sol:MicrocreditImplementation",
            "label": "period",
            "offset": 0,
            "slot": "1",
            "type": "t_uint256"
          },
          {
            "astId": 26619,
            "contract": "contracts/microcredit/MicrocreditImplementation.sol:MicrocreditImplementation",
            "label": "dailyInterest",
            "offset": 0,
            "slot": "2",
            "type": "t_uint256"
          },
          {
            "astId": 26621,
            "contract": "contracts/microcredit/MicrocreditImplementation.sol:MicrocreditImplementation",
            "label": "claimDeadline",
            "offset": 0,
            "slot": "3",
            "type": "t_uint256"
          },
          {
            "astId": 26623,
            "contract": "contracts/microcredit/MicrocreditImplementation.sol:MicrocreditImplementation",
            "label": "startDate",
            "offset": 0,
            "slot": "4",
            "type": "t_uint256"
          },
          {
            "astId": 26625,
            "contract": "contracts/microcredit/MicrocreditImplementation.sol:MicrocreditImplementation",
            "label": "lastComputedDebt",
            "offset": 0,
            "slot": "5",
            "type": "t_uint256"
          },
          {
            "astId": 26627,
            "contract": "contracts/microcredit/MicrocreditImplementation.sol:MicrocreditImplementation",
            "label": "amountRepayed",
            "offset": 0,
            "slot": "6",
            "type": "t_uint256"
          },
          {
            "astId": 26629,
            "contract": "contracts/microcredit/MicrocreditImplementation.sol:MicrocreditImplementation",
            "label": "repaymentsLength",
            "offset": 0,
            "slot": "7",
            "type": "t_uint256"
          },
          {
            "astId": 26634,
            "contract": "contracts/microcredit/MicrocreditImplementation.sol:MicrocreditImplementation",
            "label": "repayments",
            "offset": 0,
            "slot": "8",
            "type": "t_mapping(t_uint256,t_struct(Repayment)26613_storage)"
          },
          {
            "astId": 26636,
            "contract": "contracts/microcredit/MicrocreditImplementation.sol:MicrocreditImplementation",
            "label": "lastComputedDate",
            "offset": 0,
            "slot": "9",
            "type": "t_uint256"
          },
          {
            "astId": 26638,
            "contract": "contracts/microcredit/MicrocreditImplementation.sol:MicrocreditImplementation",
            "label": "managerAddress",
            "offset": 0,
            "slot": "10",
            "type": "t_address"
          },
          {
            "astId": 26640,
            "contract": "contracts/microcredit/MicrocreditImplementation.sol:MicrocreditImplementation",
            "label": "tokenAddress",
            "offset": 0,
            "slot": "11",
            "type": "t_address"
          },
          {
            "astId": 26642,
            "contract": "contracts/microcredit/MicrocreditImplementation.sol:MicrocreditImplementation",
            "label": "tokenAmountBorrowed",
            "offset": 0,
            "slot": "12",
            "type": "t_uint256"
          },
          {
            "astId": 26644,
            "contract": "contracts/microcredit/MicrocreditImplementation.sol:MicrocreditImplementation",
            "label": "tokenAmountRepayed",
            "offset": 0,
            "slot": "13",
            "type": "t_uint256"
          }
        ],
        "numberOfBytes": "448"
      },
      "t_struct(LoanOld)26588_storage": {
        "encoding": "inplace",
        "label": "struct IMicrocredit.LoanOld",
        "members": [
          {
            "astId": 26569,
            "contract": "contracts/microcredit/MicrocreditImplementation.sol:MicrocreditImplementation",
            "label": "amountBorrowed",
            "offset": 0,
            "slot": "0",
            "type": "t_uint256"
          },
          {
            "astId": 26571,
            "contract": "contracts/microcredit/MicrocreditImplementation.sol:MicrocreditImplementation",
            "label": "period",
            "offset": 0,
            "slot": "1",
            "type": "t_uint256"
          },
          {
            "astId": 26573,
            "contract": "contracts/microcredit/MicrocreditImplementation.sol:MicrocreditImplementation",
            "label": "dailyInterest",
            "offset": 0,
            "slot": "2",
            "type": "t_uint256"
          },
          {
            "astId": 26575,
            "contract": "contracts/microcredit/MicrocreditImplementation.sol:MicrocreditImplementation",
            "label": "claimDeadline",
            "offset": 0,
            "slot": "3",
            "type": "t_uint256"
          },
          {
            "astId": 26577,
            "contract": "contracts/microcredit/MicrocreditImplementation.sol:MicrocreditImplementation",
            "label": "startDate",
            "offset": 0,
            "slot": "4",
            "type": "t_uint256"
          },
          {
            "astId": 26579,
            "contract": "contracts/microcredit/MicrocreditImplementation.sol:MicrocreditImplementation",
            "label": "lastComputedDebt",
            "offset": 0,
            "slot": "5",
            "type": "t_uint256"
          },
          {
            "astId": 26581,
            "contract": "contracts/microcredit/MicrocreditImplementation.sol:MicrocreditImplementation",
            "label": "amountRepayed",
            "offset": 0,
            "slot": "6",
            "type": "t_uint256"
          },
          {
            "astId": 26585,
            "contract": "contracts/microcredit/MicrocreditImplementation.sol:MicrocreditImplementation",
            "label": "repayments",
            "offset": 0,
            "slot": "7",
            "type": "t_array(t_struct(Repayment)26613_storage)dyn_storage"
          },
          {
            "astId": 26587,
            "contract": "contracts/microcredit/MicrocreditImplementation.sol:MicrocreditImplementation",
            "label": "lastComputedDate",
            "offset": 0,
            "slot": "8",
            "type": "t_uint256"
          }
        ],
        "numberOfBytes": "288"
      },
      "t_struct(Manager)26606_storage": {
        "encoding": "inplace",
        "label": "struct IMicrocredit.Manager",
        "members": [
          {
            "astId": 26603,
            "contract": "contracts/microcredit/MicrocreditImplementation.sol:MicrocreditImplementation",
            "label": "lentAmountLimit",
            "offset": 0,
            "slot": "0",
            "type": "t_uint256"
          },
          {
            "astId": 26605,
            "contract": "contracts/microcredit/MicrocreditImplementation.sol:MicrocreditImplementation",
            "label": "lentAmount",
            "offset": 0,
            "slot": "1",
            "type": "t_uint256"
          }
        ],
        "numberOfBytes": "64"
      },
      "t_struct(Repayment)26613_storage": {
        "encoding": "inplace",
        "label": "struct IMicrocredit.Repayment",
        "members": [
          {
            "astId": 26608,
            "contract": "contracts/microcredit/MicrocreditImplementation.sol:MicrocreditImplementation",
            "label": "date",
            "offset": 0,
            "slot": "0",
            "type": "t_uint256"
          },
          {
            "astId": 26610,
            "contract": "contracts/microcredit/MicrocreditImplementation.sol:MicrocreditImplementation",
            "label": "amount",
            "offset": 0,
            "slot": "1",
            "type": "t_uint256"
          },
          {
            "astId": 26612,
            "contract": "contracts/microcredit/MicrocreditImplementation.sol:MicrocreditImplementation",
            "label": "tokenAmount",
            "offset": 0,
            "slot": "2",
            "type": "t_uint256"
          }
        ],
        "numberOfBytes": "96"
      },
      "t_struct(Set)5204_storage": {
        "encoding": "inplace",
        "label": "struct EnumerableSet.Set",
        "members": [
          {
            "astId": 5199,
            "contract": "contracts/microcredit/MicrocreditImplementation.sol:MicrocreditImplementation",
            "label": "_values",
            "offset": 0,
            "slot": "0",
            "type": "t_array(t_bytes32)dyn_storage"
          },
          {
            "astId": 5203,
            "contract": "contracts/microcredit/MicrocreditImplementation.sol:MicrocreditImplementation",
            "label": "_indexes",
            "offset": 0,
            "slot": "1",
            "type": "t_mapping(t_bytes32,t_uint256)"
          }
        ],
        "numberOfBytes": "64"
      },
      "t_struct(Token)26655_storage": {
        "encoding": "inplace",
        "label": "struct IMicrocredit.Token",
        "members": [
          {
            "astId": 26647,
            "contract": "contracts/microcredit/MicrocreditImplementation.sol:MicrocreditImplementation",
            "label": "active",
            "offset": 0,
            "slot": "0",
            "type": "t_bool"
          },
          {
            "astId": 26650,
            "contract": "contracts/microcredit/MicrocreditImplementation.sol:MicrocreditImplementation",
            "label": "exchangeTokens",
            "offset": 0,
            "slot": "1",
            "type": "t_struct(AddressSet)5505_storage"
          },
          {
            "astId": 26654,
            "contract": "contracts/microcredit/MicrocreditImplementation.sol:MicrocreditImplementation",
            "label": "exchangeTokensFees",
            "offset": 0,
            "slot": "3",
            "type": "t_mapping(t_address,t_uint24)"
          }
        ],
        "numberOfBytes": "128"
      },
      "t_struct(User)26601_storage": {
        "encoding": "inplace",
        "label": "struct IMicrocredit.User",
        "members": [
          {
            "astId": 26595,
            "contract": "contracts/microcredit/MicrocreditImplementation.sol:MicrocreditImplementation",
            "label": "loansLength",
            "offset": 0,
            "slot": "0",
            "type": "t_uint256"
          },
          {
            "astId": 26600,
            "contract": "contracts/microcredit/MicrocreditImplementation.sol:MicrocreditImplementation",
            "label": "loans",
            "offset": 0,
            "slot": "1",
            "type": "t_mapping(t_uint256,t_struct(Loan)26645_storage)"
          }
        ],
        "numberOfBytes": "64"
      },
      "t_struct(UserOld)26567_storage": {
        "encoding": "inplace",
        "label": "struct IMicrocredit.UserOld",
        "members": [
          {
            "astId": 26566,
            "contract": "contracts/microcredit/MicrocreditImplementation.sol:MicrocreditImplementation",
            "label": "loans",
            "offset": 0,
            "slot": "0",
            "type": "t_array(t_struct(LoanOld)26588_storage)dyn_storage"
          }
        ],
        "numberOfBytes": "32"
      },
      "t_struct(WalletMetadata)26593_storage": {
        "encoding": "inplace",
        "label": "struct IMicrocredit.WalletMetadata",
        "members": [
          {
            "astId": 26590,
            "contract": "contracts/microcredit/MicrocreditImplementation.sol:MicrocreditImplementation",
            "label": "userId",
            "offset": 0,
            "slot": "0",
            "type": "t_uint256"
          },
          {
            "astId": 26592,
            "contract": "contracts/microcredit/MicrocreditImplementation.sol:MicrocreditImplementation",
            "label": "movedTo",
            "offset": 0,
            "slot": "1",
            "type": "t_address"
          }
        ],
        "numberOfBytes": "64"
      },
      "t_uint24": {
        "encoding": "inplace",
        "label": "uint24",
        "numberOfBytes": "3"
      },
      "t_uint256": {
        "encoding": "inplace",
        "label": "uint256",
        "numberOfBytes": "32"
      }
    }
  }
}