{
  "address": "0x6f237CD666bD0B76e2AC72ec32F42d8a1c03C785",
  "abi": [
    {
      "anonymous": false,
      "inputs": [
        {
          "indexed": true,
          "internalType": "address",
          "name": "userAddress",
          "type": "address"
        },
        {
          "indexed": false,
          "internalType": "uint256",
          "name": "loanId",
          "type": "uint256"
        },
        {
          "indexed": false,
          "internalType": "uint256",
          "name": "amount",
          "type": "uint256"
        },
        {
          "indexed": false,
          "internalType": "uint256",
          "name": "period",
          "type": "uint256"
        },
        {
          "indexed": false,
          "internalType": "uint256",
          "name": "dailyInterest",
          "type": "uint256"
        },
        {
          "indexed": false,
          "internalType": "uint256",
          "name": "claimDeadline",
          "type": "uint256"
        }
      ],
      "name": "LoanAdded",
      "type": "event"
    },
    {
      "anonymous": false,
      "inputs": [
        {
          "indexed": true,
          "internalType": "address",
          "name": "userAddress",
          "type": "address"
        },
        {
          "indexed": false,
          "internalType": "uint256",
          "name": "loanId",
          "type": "uint256"
        }
      ],
      "name": "LoanCanceled",
      "type": "event"
    },
    {
      "anonymous": false,
      "inputs": [
        {
          "indexed": true,
          "internalType": "address",
          "name": "userAddress",
          "type": "address"
        },
        {
          "indexed": false,
          "internalType": "uint256",
          "name": "loanId",
          "type": "uint256"
        }
      ],
      "name": "LoanClaimed",
      "type": "event"
    },
    {
      "anonymous": false,
      "inputs": [
        {
          "indexed": true,
          "internalType": "address",
          "name": "managerAddress",
          "type": "address"
        },
        {
          "indexed": false,
          "internalType": "uint256",
          "name": "currentLentAmountLimit",
          "type": "uint256"
        }
      ],
      "name": "ManagerAdded",
      "type": "event"
    },
    {
      "anonymous": false,
      "inputs": [
        {
          "indexed": true,
          "internalType": "address",
          "name": "borrowerAddress",
          "type": "address"
        },
        {
          "indexed": true,
          "internalType": "address",
          "name": "managerAddress",
          "type": "address"
        }
      ],
      "name": "ManagerChanged",
      "type": "event"
    },
    {
      "anonymous": false,
      "inputs": [
        {
          "indexed": true,
          "internalType": "address",
          "name": "managerAddress",
          "type": "address"
        }
      ],
      "name": "ManagerRemoved",
      "type": "event"
    },
    {
      "anonymous": false,
      "inputs": [
        {
          "indexed": true,
          "internalType": "address",
          "name": "previousOwner",
          "type": "address"
        },
        {
          "indexed": true,
          "internalType": "address",
          "name": "newOwner",
          "type": "address"
        }
      ],
      "name": "OwnershipTransferred",
      "type": "event"
    },
    {
      "anonymous": false,
      "inputs": [
        {
          "indexed": false,
          "internalType": "address",
          "name": "account",
          "type": "address"
        }
      ],
      "name": "Paused",
      "type": "event"
    },
    {
      "anonymous": false,
      "inputs": [
        {
          "indexed": true,
          "internalType": "address",
          "name": "userAddress",
          "type": "address"
        },
        {
          "indexed": false,
          "internalType": "uint256",
          "name": "loanId",
          "type": "uint256"
        },
        {
          "indexed": false,
          "internalType": "uint256",
          "name": "repaymentAmount",
          "type": "uint256"
        },
        {
          "indexed": false,
          "internalType": "uint256",
          "name": "currentDebt",
          "type": "uint256"
        }
      ],
      "name": "RepaymentAdded",
      "type": "event"
    },
    {
      "anonymous": false,
      "inputs": [
        {
          "indexed": false,
          "internalType": "address",
          "name": "account",
          "type": "address"
        }
      ],
      "name": "Unpaused",
      "type": "event"
    },
    {
      "anonymous": false,
      "inputs": [
        {
          "indexed": true,
          "internalType": "address",
          "name": "oldWalletAddress",
          "type": "address"
        },
        {
          "indexed": true,
          "internalType": "address",
          "name": "newWalletAddress",
          "type": "address"
        }
      ],
      "name": "UserAddressChanged",
      "type": "event"
    },
    {
      "inputs": [
        {
          "internalType": "address",
          "name": "_userAddress",
          "type": "address"
        },
        {
          "internalType": "uint256",
          "name": "_amount",
          "type": "uint256"
        },
        {
          "internalType": "uint256",
          "name": "_period",
          "type": "uint256"
        },
        {
          "internalType": "uint256",
          "name": "_dailyInterest",
          "type": "uint256"
        },
        {
          "internalType": "uint256",
          "name": "_claimDeadline",
          "type": "uint256"
        }
      ],
      "name": "addLoan",
      "outputs": [],
      "stateMutability": "nonpayable",
      "type": "function"
    },
    {
      "inputs": [
        {
          "internalType": "address[]",
          "name": "_userAddresses",
          "type": "address[]"
        },
        {
          "internalType": "uint256[]",
          "name": "_amounts",
          "type": "uint256[]"
        },
        {
          "internalType": "uint256[]",
          "name": "_periods",
          "type": "uint256[]"
        },
        {
          "internalType": "uint256[]",
          "name": "_dailyInterests",
          "type": "uint256[]"
        },
        {
          "internalType": "uint256[]",
          "name": "_claimDeadlines",
          "type": "uint256[]"
        }
      ],
      "name": "addLoans",
      "outputs": [],
      "stateMutability": "nonpayable",
      "type": "function"
    },
    {
      "inputs": [
        {
          "internalType": "address[]",
          "name": "_managerAddresses",
          "type": "address[]"
        },
        {
          "internalType": "uint256[]",
          "name": "_currentLentAmountLimit",
          "type": "uint256[]"
        }
      ],
      "name": "addManagers",
      "outputs": [],
      "stateMutability": "nonpayable",
      "type": "function"
    },
    {
      "inputs": [],
      "name": "cUSD",
      "outputs": [
        {
          "internalType": "contract IERC20Upgradeable",
          "name": "",
          "type": "address"
        }
      ],
      "stateMutability": "view",
      "type": "function"
    },
    {
      "inputs": [
        {
          "internalType": "address[]",
          "name": "_userAddresses",
          "type": "address[]"
        },
        {
          "internalType": "uint256[]",
          "name": "_loansIds",
          "type": "uint256[]"
        }
      ],
      "name": "cancelLoans",
      "outputs": [],
      "stateMutability": "nonpayable",
      "type": "function"
    },
    {
      "inputs": [
        {
          "internalType": "address[]",
          "name": "_borrowerAddresses",
          "type": "address[]"
        },
        {
          "internalType": "address",
          "name": "_managerAddress",
          "type": "address"
        }
      ],
      "name": "changeManager",
      "outputs": [],
      "stateMutability": "nonpayable",
      "type": "function"
    },
    {
      "inputs": [
        {
          "internalType": "address",
          "name": "_oldWalletAddress",
          "type": "address"
        },
        {
          "internalType": "address",
          "name": "_newWalletAddress",
          "type": "address"
        }
      ],
      "name": "changeUserAddress",
      "outputs": [],
      "stateMutability": "nonpayable",
      "type": "function"
    },
    {
      "inputs": [
        {
          "internalType": "uint256",
          "name": "_loanId",
          "type": "uint256"
        }
      ],
      "name": "claimLoan",
      "outputs": [],
      "stateMutability": "nonpayable",
      "type": "function"
    },
    {
      "inputs": [],
      "name": "donationMiner",
      "outputs": [
        {
          "internalType": "contract IDonationMiner",
          "name": "",
          "type": "address"
        }
      ],
      "stateMutability": "view",
      "type": "function"
    },
    {
      "inputs": [],
      "name": "getVersion",
      "outputs": [
        {
          "internalType": "uint256",
          "name": "",
          "type": "uint256"
        }
      ],
      "stateMutability": "pure",
      "type": "function"
    },
    {
      "inputs": [
        {
          "internalType": "address",
          "name": "_cUSDAddress",
          "type": "address"
        },
        {
          "internalType": "address",
          "name": "_revenueAddress",
          "type": "address"
        }
      ],
      "name": "initialize",
      "outputs": [],
      "stateMutability": "nonpayable",
      "type": "function"
    },
    {
      "inputs": [
        {
          "internalType": "uint256",
          "name": "_index",
          "type": "uint256"
        }
      ],
      "name": "managerListAt",
      "outputs": [
        {
          "internalType": "address",
          "name": "",
          "type": "address"
        }
      ],
      "stateMutability": "view",
      "type": "function"
    },
    {
      "inputs": [],
      "name": "managerListLength",
      "outputs": [
        {
          "internalType": "uint256",
          "name": "",
          "type": "uint256"
        }
      ],
      "stateMutability": "view",
      "type": "function"
    },
    {
      "inputs": [
        {
          "internalType": "address",
          "name": "",
          "type": "address"
        }
      ],
      "name": "managers",
      "outputs": [
        {
          "internalType": "uint256",
          "name": "currentLentAmountLimit",
          "type": "uint256"
        },
        {
          "internalType": "uint256",
          "name": "currentLentAmount",
          "type": "uint256"
        }
      ],
      "stateMutability": "view",
      "type": "function"
    },
    {
      "inputs": [],
      "name": "owner",
      "outputs": [
        {
          "internalType": "address",
          "name": "",
          "type": "address"
        }
      ],
      "stateMutability": "view",
      "type": "function"
    },
    {
      "inputs": [],
      "name": "paused",
      "outputs": [
        {
          "internalType": "bool",
          "name": "",
          "type": "bool"
        }
      ],
      "stateMutability": "view",
      "type": "function"
    },
    {
      "inputs": [
        {
          "internalType": "address[]",
          "name": "_managerAddresses",
          "type": "address[]"
        }
      ],
      "name": "removeManagers",
      "outputs": [],
      "stateMutability": "nonpayable",
      "type": "function"
    },
    {
      "inputs": [],
      "name": "renounceOwnership",
      "outputs": [],
      "stateMutability": "nonpayable",
      "type": "function"
    },
    {
      "inputs": [
        {
          "internalType": "uint256",
          "name": "_loanId",
          "type": "uint256"
        },
        {
          "internalType": "uint256",
          "name": "_repaymentAmount",
          "type": "uint256"
        }
      ],
      "name": "repayLoan",
      "outputs": [],
      "stateMutability": "nonpayable",
      "type": "function"
    },
    {
      "inputs": [],
      "name": "revenueAddress",
      "outputs": [
        {
          "internalType": "address",
          "name": "",
          "type": "address"
        }
      ],
      "stateMutability": "view",
      "type": "function"
    },
    {
      "inputs": [
        {
          "internalType": "contract IERC20Upgradeable",
          "name": "_token",
          "type": "address"
        },
        {
          "internalType": "address",
          "name": "_to",
          "type": "address"
        },
        {
          "internalType": "uint256",
          "name": "_amount",
          "type": "uint256"
        }
      ],
      "name": "transferERC20",
      "outputs": [],
      "stateMutability": "nonpayable",
      "type": "function"
    },
    {
      "inputs": [
        {
          "internalType": "address",
          "name": "newOwner",
          "type": "address"
        }
      ],
      "name": "transferOwnership",
      "outputs": [],
      "stateMutability": "nonpayable",
      "type": "function"
    },
    {
      "inputs": [
        {
          "internalType": "contract IDonationMiner",
          "name": "_newDonationMiner",
          "type": "address"
        }
      ],
      "name": "updateDonationMiner",
      "outputs": [],
      "stateMutability": "nonpayable",
      "type": "function"
    },
    {
      "inputs": [
        {
          "internalType": "address",
          "name": "_newRevenueAddress",
          "type": "address"
        }
      ],
      "name": "updateRevenueAddress",
      "outputs": [],
      "stateMutability": "nonpayable",
      "type": "function"
    },
    {
      "inputs": [
        {
          "internalType": "address",
          "name": "_userAddress",
          "type": "address"
        },
        {
          "internalType": "uint256",
          "name": "_loanId",
          "type": "uint256"
        },
        {
          "internalType": "uint256",
          "name": "_repaymentId",
          "type": "uint256"
        }
      ],
      "name": "userLoanRepayments",
      "outputs": [
        {
          "internalType": "uint256",
          "name": "date",
          "type": "uint256"
        },
        {
          "internalType": "uint256",
          "name": "amount",
          "type": "uint256"
        }
      ],
      "stateMutability": "view",
      "type": "function"
    },
    {
      "inputs": [
        {
          "internalType": "address",
          "name": "_userAddress",
          "type": "address"
        },
        {
          "internalType": "uint256",
          "name": "_loanId",
          "type": "uint256"
        }
      ],
      "name": "userLoans",
      "outputs": [
        {
          "internalType": "uint256",
          "name": "amountBorrowed",
          "type": "uint256"
        },
        {
          "internalType": "uint256",
          "name": "period",
          "type": "uint256"
        },
        {
          "internalType": "uint256",
          "name": "dailyInterest",
          "type": "uint256"
        },
        {
          "internalType": "uint256",
          "name": "claimDeadline",
          "type": "uint256"
        },
        {
          "internalType": "uint256",
          "name": "startDate",
          "type": "uint256"
        },
        {
          "internalType": "uint256",
          "name": "currentDebt",
          "type": "uint256"
        },
        {
          "internalType": "uint256",
          "name": "lastComputedDebt",
          "type": "uint256"
        },
        {
          "internalType": "uint256",
          "name": "amountRepayed",
          "type": "uint256"
        },
        {
          "internalType": "uint256",
          "name": "repaymentsLength",
          "type": "uint256"
        },
        {
          "internalType": "uint256",
          "name": "lastComputedDate",
          "type": "uint256"
        },
        {
          "internalType": "address",
          "name": "managerAddress",
          "type": "address"
        }
      ],
      "stateMutability": "view",
      "type": "function"
    },
    {
      "inputs": [
        {
          "internalType": "uint256",
          "name": "_index",
          "type": "uint256"
        }
      ],
      "name": "walletListAt",
      "outputs": [
        {
          "internalType": "address",
          "name": "",
          "type": "address"
        }
      ],
      "stateMutability": "view",
      "type": "function"
    },
    {
      "inputs": [],
      "name": "walletListLength",
      "outputs": [
        {
          "internalType": "uint256",
          "name": "",
          "type": "uint256"
        }
      ],
      "stateMutability": "view",
      "type": "function"
    },
    {
      "inputs": [
        {
          "internalType": "address",
          "name": "_userAddress",
          "type": "address"
        }
      ],
      "name": "walletMetadata",
      "outputs": [
        {
          "internalType": "uint256",
          "name": "userId",
          "type": "uint256"
        },
        {
          "internalType": "address",
          "name": "movedTo",
          "type": "address"
        },
        {
          "internalType": "uint256",
          "name": "loansLength",
          "type": "uint256"
        }
      ],
      "stateMutability": "view",
      "type": "function"
    }
  ],
  "transactionHash": "0x03d0473dba3bc50810dd02f0c01d959d4778e4d8f0067409afaca0d96659dea0",
  "args": [],
  "numDeployments": 3,
  "solcInputHash": "e16e429958661dbf5d7e6794e94ff042",
  "bytecode": "0x608060405234801561001057600080fd5b50613401806100206000396000f3fe608060405234801561001057600080fd5b50600436106101cf5760003560e01c80638040773511610104578063c89fc9a7116100a2578063eef1b51511610071578063eef1b51514610482578063f2fde38b14610495578063fdd28859146104a8578063fdff9b4d146104bb57600080fd5b8063c89fc9a7146103da578063d8bad5bd146103ed578063e0c7cf571461045c578063e36d4f3e1461046f57600080fd5b80639a9cb971116100de5780639a9cb9711461038e5780639db5dbe4146103a1578063adb97126146103b4578063b410908d146103c757600080fd5b806380407735146103575780638a700b531461036a5780638da5cb5b1461037d57600080fd5b80635c975abb116101715780636323f5e91161014b5780636323f5e91461029c57806368fcaf8414610314578063715018a61461032757806378d5bcc11461032f57600080fd5b80635c975abb1461026b5780635d916afd1461028157806360c4477a1461029457600080fd5b8063387d0263116101ad578063387d02631461022a5780633a17596b14610232578063485cc9551461024557806353a469b31461025857600080fd5b80630d8e6e2c146101d457806310f3ee29146101ea5780631fccf672146101ff575b600080fd5b60015b6040519081526020015b60405180910390f35b6101fd6101f8366004612ddd565b6104e2565b005b60c954610212906001600160a01b031681565b6040516001600160a01b0390911681526020016101e1565b6101d76105e4565b6101fd610240366004612d9a565b6105f5565b6101fd610253366004612d03565b610630565b6101fd6102663660046130aa565b610733565b60655460ff1660405190151581526020016101e1565b6101fd61028f366004612e86565b61094f565b6101d7610af7565b6102f16102aa366004612ce7565b6001600160a01b03908116600090815260cc6020908152604080832081518083018352815480825260019092015490951694830185905280845260cb909252909120549092565b604080519384526001600160a01b039092166020840152908201526060016101e1565b6102126103223660046130aa565b610b03565b6101fd610b16565b61034261033d366004612d66565b610b4c565b604080519283526020830191909152016101e1565b6101fd610365366004612e1d565b610dcf565b6101fd6103783660046130c2565b610e96565b6033546001600160a01b0316610212565b6101fd61039c366004612f71565b6113eb565b6101fd6103af36600461306a565b611592565b6102126103c23660046130aa565b611602565b60d154610212906001600160a01b031681565b6101fd6103e8366004612ce7565b61160f565b6104006103fb366004612d3b565b61165b565b604080519b8c5260208c019a909a52988a01979097526060890195909552608088019390935260a087019190915260c086015260e08501526101008401526101208301526001600160a01b0316610140820152610160016101e1565b6101fd61046a366004612e1d565b611884565b60d354610212906001600160a01b031681565b6101fd610490366004612d03565b611a2c565b6101fd6104a3366004612ce7565b611bd1565b6101fd6104b6366004612ce7565b611c6c565b6103426104c9366004612ce7565b60d2602052600090815260409020805460019091015482565b6033546001600160a01b031633146105155760405162461bcd60e51b815260040161050c90613207565b60405180910390fd5b8060005b818110156105de5761056184848381811061054457634e487b7160e01b600052603260045260246000fd5b90506020020160208101906105599190612ce7565b60cf90611cb8565b5083838281811061058257634e487b7160e01b600052603260045260246000fd5b90506020020160208101906105979190612ce7565b6001600160a01b03167fef69f7d97228658c92417be1b16b19058315de71fecb435d07b7d23728b6bd3160405160405180910390a2806105d68161336f565b915050610519565b50505050565b60006105f060cf611cd4565b905090565b61060060cf33611cde565b61061c5760405162461bcd60e51b815260040161050c90613132565b6106298585858585611d00565b5050505050565b600054610100900460ff1661064b5760005460ff161561064f565b303b155b6106b25760405162461bcd60e51b815260206004820152602e60248201527f496e697469616c697a61626c653a20636f6e747261637420697320616c72656160448201526d191e481a5b9a5d1a585b1a5e995960921b606482015260840161050c565b600054610100900460ff161580156106d4576000805461ffff19166101011790555b6106dc61214e565b6106e4612185565b6106ec6121bc565b60c980546001600160a01b038086166001600160a01b03199283161790925560d1805492851692909116919091179055801561072e576000805461ff00191690555b505050565b600260975414156107565760405162461bcd60e51b815260040161050c90613287565b600260975561076533826121eb565b33600090815260cc602090815260408083208151808301835281548082526001909201546001600160a01b03168185015290845260cb90925282208054919290918290859081106107c657634e487b7160e01b600052603260045260246000fd5b90600052602060002090600a0201905080600401546000146107fa5760405162461bcd60e51b815260040161050c906131c6565b600381015461084b5760405162461bcd60e51b815260206004820152601a60248201527f4d6963726f6372656469743a204c6f616e2063616e63656c6564000000000000604482015260640161050c565b428160030154101561089f5760405162461bcd60e51b815260206004820152601960248201527f4d6963726f6372656469743a204c6f616e206578706972656400000000000000604482015260640161050c565b4260048201556002810154670de0b6b3a7640000906108c0906064906132d6565b6108d290670de0b6b3a76400006132be565b82546108de91906132f6565b6108e891906132d6565b6005820155426008820155805460c95461090f916001600160a01b03909116903390612431565b60405184815233907fba0cbe8ef8ef3c6984adc684d0c9b9a4d2d4c79b4678b63c38651fa48d21c62c9060200160405180910390a2505060016097555050565b61095a60cf33611cde565b6109765760405162461bcd60e51b815260040161050c90613132565b888781146109965760405162461bcd60e51b815260040161050c90613176565b8086146109b55760405162461bcd60e51b815260040161050c90613176565b8084146109d45760405162461bcd60e51b815260040161050c90613176565b8082146109f35760405162461bcd60e51b815260040161050c90613176565b60005b81811015610ae957610ad78c8c83818110610a2157634e487b7160e01b600052603260045260246000fd5b9050602002016020810190610a369190612ce7565b8b8b84818110610a5657634e487b7160e01b600052603260045260246000fd5b905060200201358a8a85818110610a7d57634e487b7160e01b600052603260045260246000fd5b90506020020135898986818110610aa457634e487b7160e01b600052603260045260246000fd5b90506020020135888887818110610acb57634e487b7160e01b600052603260045260246000fd5b90506020020135611d00565b80610ae18161336f565b9150506109f6565b505050505050505050505050565b60006105f060cd611cd4565b6000610b1060cf83612494565b92915050565b6033546001600160a01b03163314610b405760405162461bcd60e51b815260040161050c90613207565b610b4a60006124a0565b565b600080610b5985856121eb565b6001600160a01b03808616600090815260cc6020908152604080832081518083018352815480825260019092015490951685840152835260cb8252808320815181548085028201840184529381018481529093919284928491879085015b82821015610cc657838290600052602060002090600a0201604051806101400160405290816000820154815260200160018201548152602001600282015481526020016003820154815260200160048201548152602001600582015481526020016006820154815260200160078201805480602002602001604051908101604052809291908181526020016000905b82821015610c8c57838290600052602060002090600202016040518060400160405290816000820154815260200160018201548152505081526020019060010190610c46565b5050509082525060088201546020808301919091526009909201546001600160a01b03166040909101529082526001929092019101610bb7565b50505050815250509050600081600001518781518110610cf657634e487b7160e01b600052603260045260246000fd5b60200260200101519050858160e001515111610d605760405162461bcd60e51b8152602060048201526024808201527f4d6963726f6372656469743a2052657061796d656e7420646f65736e277420656044820152631e1a5cdd60e21b606482015260840161050c565b8060e001518681518110610d8457634e487b7160e01b600052603260045260246000fd5b60200260200101516000015194508060e001518681518110610db657634e487b7160e01b600052603260045260246000fd5b6020026020010151602001519350505050935093915050565b610dda60cf33611cde565b610df65760405162461bcd60e51b815260040161050c90613132565b828114610e155760405162461bcd60e51b815260040161050c90613176565b60005b8381101561062957610e84858583818110610e4357634e487b7160e01b600052603260045260246000fd5b9050602002016020810190610e589190612ce7565b848484818110610e7857634e487b7160e01b600052603260045260246000fd5b905060200201356124f2565b80610e8e8161336f565b915050610e18565b60026097541415610eb95760405162461bcd60e51b815260040161050c90613287565b600260975580610f0b5760405162461bcd60e51b815260206004820152601b60248201527f4d6963726f6372656469743a20496e76616c696420616d6f756e740000000000604482015260640161050c565b610f1533836121eb565b33600090815260cc602090815260408083208151808301835281548082526001909201546001600160a01b03168185015290845260cb9092528220805491929091829086908110610f7657634e487b7160e01b600052603260045260246000fd5b90600052602060002090600a020190506000816004015411610fda5760405162461bcd60e51b815260206004820152601d60248201527f4d6963726f6372656469743a204c6f616e206e6f7420636c61696d6564000000604482015260640161050c565b60008160050154116110475760405162461bcd60e51b815260206004820152603060248201527f4d6963726f6372656469743a204c6f616e2068617320616c726561647920626560448201526f195b88199d5b1b1e481c995c185e595960821b606482015260840161050c565b600061113582604051806101400160405290816000820154815260200160018201548152602001600282015481526020016003820154815260200160048201548152602001600582015481526020016006820154815260200160078201805480602002602001604051908101604052809291908181526020016000905b8282101561110a578382906000526020600020906002020160405180604001604052908160008201548152602001600182015481525050815260200190600101906110c4565b50505090825250600882015460208201526009909101546001600160a01b0316604090910152612676565b905084811015611143578094505b815460068301546111559087906132be565b1161118f5760c954611172906001600160a01b0316333088612711565b600982015461118a906001600160a01b031686612749565b61125f565b81546006830154106111ba5760d15460c95461118a916001600160a01b039182169133911688612711565b600682015482546000916111cd91613315565b60d1549091506001600160a01b03166111fd5760c9546111f8906001600160a01b0316333089612711565b611245565b60c954611215906001600160a01b0316333084612711565b60d1546112459033906001600160a01b0316611231848a613315565b60c9546001600160a01b0316929190612711565b600983015461125d906001600160a01b031682612749565b505b6007820180546001818101835560009283526020909220426002909202019081559081018690556112908683613315565b8360050181905550858360060160008282546112ac91906132be565b9091555050600883015460009062015180906112c89042613315565b6112d291906132d6565b90506112e181620151806132f6565b84600801546112f091906132be565b60088501556005840154158015611311575060d3546001600160a01b031615155b156113935760d354845460068601546001600160a01b039092169163bc4643ee9161133b91613315565b6040516001600160e01b031960e084901b1681526004810191909152336024820152604401600060405180830381600087803b15801561137a57600080fd5b505af115801561138e573d6000803e3d6000fd5b505050505b6005840154604080518a8152602081018a90529081019190915233907f36bd188317b9b3af98bbc5bfd88a0bccb96582fa2c955815ea9916dfeeb02d9e9060600160405180910390a250506001609755505050505050565b6113f660cf33611cde565b6114125760405162461bcd60e51b815260040161050c90613132565b600061141f60cf83611cde565b6114775760405162461bcd60e51b8152602060048201526024808201527f4d6963726f6372656469743a20696e76616c6964206d616e61676572206164646044820152637265737360e01b606482015260840161050c565b5060005b825181101561072e576114bf8382815181106114a757634e487b7160e01b600052603260045260246000fd5b602002602001015160cd611cde90919063ffffffff16565b6115195760405162461bcd60e51b815260206004820152602560248201527f4d6963726f6372656469743a20696e76616c696420626f72726f776572206164604482015264647265737360d81b606482015260840161050c565b816001600160a01b031683828151811061154357634e487b7160e01b600052603260045260246000fd5b60200260200101516001600160a01b03167f605c2dbf762e5f7d60a546d42e7205dcb1b011ebc62a61736a57c9089d3a435060405160405180910390a38061158a8161336f565b91505061147b565b600260975414156115b55760405162461bcd60e51b815260040161050c90613287565b60026097556033546001600160a01b031633146115e45760405162461bcd60e51b815260040161050c90613207565b6115f86001600160a01b0384168383612431565b5050600160975550565b6000610b1060cd83612494565b6033546001600160a01b031633146116395760405162461bcd60e51b815260040161050c90613207565b60d380546001600160a01b0319166001600160a01b0392909216919091179055565b60008060008060008060008060008060006116768d8d6121eb565b6001600160a01b03808e16600090815260cc6020908152604080832081518083018352815480825260019092015490951685840152835260cb8252808320815181548085028201840184529381018481529093919284928491879085015b828210156117e357838290600052602060002090600a0201604051806101400160405290816000820154815260200160018201548152602001600282015481526020016003820154815260200160048201548152602001600582015481526020016006820154815260200160078201805480602002602001604051908101604052809291908181526020016000905b828210156117a957838290600052602060002090600202016040518060400160405290816000820154815260200160018201548152505081526020019060010190611763565b5050509082525060088201546020808301919091526009909201546001600160a01b031660409091015290825260019290920191016116d4565b50505050815250509050600081600001518f8151811061181357634e487b7160e01b600052603260045260246000fd5b6020026020010151905080600001519d5080602001519c5080604001519b5080606001519a50806080015199508060a00151975061185081612676565b98508060c0015196508060e00151519550806101000151945080610120015193505050509295989b509295989b9093969950565b6033546001600160a01b031633146118ae5760405162461bcd60e51b815260040161050c90613207565b8260005b81811015611a24576118fa8686838181106118dd57634e487b7160e01b600052603260045260246000fd5b90506020020160208101906118f29190612ce7565b60cf906127d2565b5083838281811061191b57634e487b7160e01b600052603260045260246000fd5b9050602002013560d2600088888581811061194657634e487b7160e01b600052603260045260246000fd5b905060200201602081019061195b9190612ce7565b6001600160a01b0316815260208101919091526040016000205585858281811061199557634e487b7160e01b600052603260045260246000fd5b90506020020160208101906119aa9190612ce7565b6001600160a01b03167ffae05d1286e3d4cd0db21fce06a66beb75ec586eb923fc0fcc332e69d7ad2e2f8585848181106119f457634e487b7160e01b600052603260045260246000fd5b90506020020135604051611a0a91815260200190565b60405180910390a280611a1c8161336f565b9150506118b2565b505050505050565b611a3760cf33611cde565b611a535760405162461bcd60e51b815260040161050c90613132565b6001600160a01b038216600090815260cc60205260409020805415801590611a86575060018101546001600160a01b0316155b611ae15760405162461bcd60e51b815260206004820152602660248201527f4d6963726f6372656469743a205468697320757365722063616e6e6f74206265604482015265081b5bdd995960d21b606482015260840161050c565b6001600160a01b038216600090815260cc60205260409020805415611b5e5760405162461bcd60e51b815260206004820152602d60248201527f4d6963726f6372656469743a205461726765742077616c6c657420616464726560448201526c1cdcc81a5cc81a5b9d985b1a59609a1b606482015260840161050c565b6001820180546001600160a01b0319166001600160a01b03851617905581548155611b8a60cd846127d2565b50826001600160a01b0316846001600160a01b03167ffe697da51e9b8089b3ac92361b06886b93f48f935848aa4da1148c15b262840a60405160405180910390a350505050565b6033546001600160a01b03163314611bfb5760405162461bcd60e51b815260040161050c90613207565b6001600160a01b038116611c605760405162461bcd60e51b815260206004820152602660248201527f4f776e61626c653a206e6577206f776e657220697320746865207a65726f206160448201526564647265737360d01b606482015260840161050c565b611c69816124a0565b50565b6033546001600160a01b03163314611c965760405162461bcd60e51b815260040161050c90613207565b60d180546001600160a01b0319166001600160a01b0392909216919091179055565b6000611ccd836001600160a01b0384166127e7565b9392505050565b6000610b10825490565b6001600160a01b03811660009081526001830160205260408120541515611ccd565b428111611d5a5760405162461bcd60e51b815260206004820152602260248201527f4d6963726f6372656469743a20696e76616c696420636c61696d446561646c696044820152616e6560f01b606482015260840161050c565b6001600160a01b03808616600090815260cc60205260409020600181015490911615611dd45760405162461bcd60e51b8152602060048201526024808201527f4d6963726f6372656469743a20546865207573657220686173206265656e206d6044820152631bdd995960e21b606482015260840161050c565b33600090815260d26020526040902080546001820154611df59088906132be565b1115611e745760405162461bcd60e51b815260206004820152604260248201527f4d6963726f6372656469743a204d616e6167657220646f6e277420686176652060448201527f656e6f7567682066756e647320746f20626f72726f77207468697320616d6f756064820152611b9d60f21b608482015260a40161050c565b8154611ea15760ca8054906000611e8a8361336f565b909155505060ca548255611e9f60cd886127d2565b505b8154600090815260cb602052604090208054801561207d57600082611ec7600184613315565b81548110611ee557634e487b7160e01b600052603260045260246000fd5b90600052602060002090600a0201604051806101400160405290816000820154815260200160018201548152602001600282015481526020016003820154815260200160048201548152602001600582015481526020016006820154815260200160078201805480602002602001604051908101604052809291908181526020016000905b82821015611fb057838290600052602060002090600202016040518060400160405290816000820154815260200160018201548152505081526020019060010190611f6a565b50505090825250600882015460208201526009909101546001600160a01b0316604090910152608081015190915015801590611fee575060a0810151155b80612009575060808101511580156120095750428160600151105b8061201657506060810151155b61207b5760405162461bcd60e51b815260206004820152603060248201527f4d6963726f6372656469743a20546865207573657220616c726561647920686160448201526f399030b71030b1ba34bb32903637b0b760811b606482015260840161050c565b505b815460018181018455600084815260208120600a9093029092018a81558082018a905560028101899055600381018890556009810180546001600160a01b03191633179055908501805491928b926120d69084906132be565b909155505082546001600160a01b038b16907fdf5f35c1edc69bc65031bb54e429851779e0db0a2d5f763a0eabdd9bec9429f29061211690600190613315565b60408051918252602082018d905281018b9052606081018a90526080810189905260a00160405180910390a250505050505050505050565b600054610100900460ff166121755760405162461bcd60e51b815260040161050c9061323c565b61217d612904565b610b4a61292b565b600054610100900460ff166121ac5760405162461bcd60e51b815260040161050c9061323c565b6121b4612904565b610b4a61295b565b600054610100900460ff166121e35760405162461bcd60e51b815260040161050c9061323c565b610b4a61298e565b6001600160a01b03808316600090815260cc60209081526040918290208251808401909352805480845260019091015490931690820152901580159061223c575060208101516001600160a01b0316155b6122945760405162461bcd60e51b815260206004820152602360248201527f4d6963726f6372656469743a20496e76616c69642077616c6c6574206164647260448201526265737360e81b606482015260840161050c565b8051600090815260cb60209081526040808320815181548085028201840184529381018481529093919284928491879085015b828210156123d657838290600052602060002090600a0201604051806101400160405290816000820154815260200160018201548152602001600282015481526020016003820154815260200160048201548152602001600582015481526020016006820154815260200160078201805480602002602001604051908101604052809291908181526020016000905b8282101561239c57838290600052602060002090600202016040518060400160405290816000820154815260200160018201548152505081526020019060010190612356565b5050509082525060088201546020808301919091526009909201546001600160a01b031660409091015290825260019290920191016122c7565b5050509152505080515190915083106105de5760405162461bcd60e51b815260206004820152601f60248201527f4d6963726f6372656469743a204c6f616e20646f65736e277420657869737400604482015260640161050c565b6040516001600160a01b03831660248201526044810182905261072e90849063a9059cbb60e01b906064015b60408051601f198184030181529190526020810180516001600160e01b03166001600160e01b0319909316929092179091526129bc565b6000611ccd8383612a8e565b603380546001600160a01b038381166001600160a01b0319831681179093556040519116919082907f8be0079c531659141344cd1fd0a4f28419497f9722a3daafe3b4186f6b6457e090600090a35050565b6124fc82826121eb565b6001600160a01b03808316600090815260cc6020908152604080832081518083018352815480825260019092015490951685840152835260cb9091528120805490919082908590811061255f57634e487b7160e01b600052603260045260246000fd5b90600052602060002090600a0201905080600401546000146125935760405162461bcd60e51b815260040161050c906131c6565b60038101546125ef5760405162461bcd60e51b815260206004820152602260248201527f4d6963726f6372656469743a204c6f616e20616c72656164792063616e63656c604482015261195960f21b606482015260840161050c565b60006003820181905560098201546001600160a01b0316815260d26020526040812082546001820180549293919290919061262b908490613315565b90915550506040518581526001600160a01b038716907f2f0f5933c0b9b1d9fee69327e7789ce07ef1be486122748fc2a079742067a8089060200160405180910390a2505050505050565b60008160a001516000141561268d57506000919050565b600062015180836101000151426126a49190613315565b6126ae91906132d6565b60a08401519091505b8115611ccd57670de0b6b3a7640000606485604001516126d791906132d6565b6126e990670de0b6b3a76400006132be565b6126f390836132f6565b6126fd91906132d6565b90508161270981613358565b9250506126b7565b6040516001600160a01b03808516602483015283166044820152606481018290526105de9085906323b872dd60e01b9060840161245d565b6001600160a01b038216156127ce576001600160a01b038216600090815260d260205260409020600101548110156127b1576001600160a01b038216600090815260d26020526040812060010180548392906127a6908490613315565b909155506127ce9050565b6001600160a01b038216600090815260d260205260408120600101555b5050565b6000611ccd836001600160a01b038416612ac6565b600081815260018301602052604081205480156128fa57600061280b600183613315565b855490915060009061281f90600190613315565b90508181146128a057600086600001828154811061284d57634e487b7160e01b600052603260045260246000fd5b906000526020600020015490508087600001848154811061287e57634e487b7160e01b600052603260045260246000fd5b6000918252602080832090910192909255918252600188019052604090208390555b85548690806128bf57634e487b7160e01b600052603160045260246000fd5b600190038181906000526020600020016000905590558560010160008681526020019081526020016000206000905560019350505050610b10565b6000915050610b10565b600054610100900460ff16610b4a5760405162461bcd60e51b815260040161050c9061323c565b600054610100900460ff166129525760405162461bcd60e51b815260040161050c9061323c565b610b4a336124a0565b600054610100900460ff166129825760405162461bcd60e51b815260040161050c9061323c565b6065805460ff19169055565b600054610100900460ff166129b55760405162461bcd60e51b815260040161050c9061323c565b6001609755565b6000612a11826040518060400160405280602081526020017f5361666545524332303a206c6f772d6c6576656c2063616c6c206661696c6564815250856001600160a01b0316612b159092919063ffffffff16565b80519091501561072e5780806020019051810190612a2f919061304a565b61072e5760405162461bcd60e51b815260206004820152602a60248201527f5361666545524332303a204552433230206f7065726174696f6e20646964206e6044820152691bdd081cdd58d8d9595960b21b606482015260840161050c565b6000826000018281548110612ab357634e487b7160e01b600052603260045260246000fd5b9060005260206000200154905092915050565b6000818152600183016020526040812054612b0d57508154600181810184556000848152602080822090930184905584548482528286019093526040902091909155610b10565b506000610b10565b6060612b248484600085612b2c565b949350505050565b606082471015612b8d5760405162461bcd60e51b815260206004820152602660248201527f416464726573733a20696e73756666696369656e742062616c616e636520666f6044820152651c8818d85b1b60d21b606482015260840161050c565b843b612bdb5760405162461bcd60e51b815260206004820152601d60248201527f416464726573733a2063616c6c20746f206e6f6e2d636f6e7472616374000000604482015260640161050c565b600080866001600160a01b03168587604051612bf791906130e3565b60006040518083038185875af1925050503d8060008114612c34576040519150601f19603f3d011682016040523d82523d6000602084013e612c39565b606091505b5091509150612c49828286612c54565b979650505050505050565b60608315612c63575081611ccd565b825115612c735782518084602001fd5b8160405162461bcd60e51b815260040161050c91906130ff565b8035612c98816133b6565b919050565b60008083601f840112612cae578081fd5b50813567ffffffffffffffff811115612cc5578182fd5b6020830191508360208260051b8501011115612ce057600080fd5b9250929050565b600060208284031215612cf8578081fd5b8135611ccd816133b6565b60008060408385031215612d15578081fd5b8235612d20816133b6565b91506020830135612d30816133b6565b809150509250929050565b60008060408385031215612d4d578182fd5b8235612d58816133b6565b946020939093013593505050565b600080600060608486031215612d7a578081fd5b8335612d85816133b6565b95602085013595506040909401359392505050565b600080600080600060a08688031215612db1578081fd5b8535612dbc816133b6565b97602087013597506040870135966060810135965060800135945092505050565b60008060208385031215612def578182fd5b823567ffffffffffffffff811115612e05578283fd5b612e1185828601612c9d565b90969095509350505050565b60008060008060408587031215612e32578384fd5b843567ffffffffffffffff80821115612e49578586fd5b612e5588838901612c9d565b90965094506020870135915080821115612e6d578384fd5b50612e7a87828801612c9d565b95989497509550505050565b60008060008060008060008060008060a08b8d031215612ea4578485fd5b8a3567ffffffffffffffff80821115612ebb578687fd5b612ec78e838f01612c9d565b909c509a5060208d0135915080821115612edf578687fd5b612eeb8e838f01612c9d565b909a50985060408d0135915080821115612f03578687fd5b612f0f8e838f01612c9d565b909850965060608d0135915080821115612f27578586fd5b612f338e838f01612c9d565b909650945060808d0135915080821115612f4b578384fd5b50612f588d828e01612c9d565b915080935050809150509295989b9194979a5092959850565b60008060408385031215612f83578182fd5b823567ffffffffffffffff80821115612f9a578384fd5b818501915085601f830112612fad578384fd5b8135602082821115612fc157612fc16133a0565b8160051b604051601f19603f83011681018181108682111715612fe657612fe66133a0565b604052838152828101945085830182870184018b1015613004578889fd5b8896505b8487101561302d5761301981612c8d565b865260019690960195948301948301613008565b50965061303d9050878201612c8d565b9450505050509250929050565b60006020828403121561305b578081fd5b81518015158114611ccd578182fd5b60008060006060848603121561307e578283fd5b8335613089816133b6565b92506020840135613099816133b6565b929592945050506040919091013590565b6000602082840312156130bb578081fd5b5035919050565b600080604083850312156130d4578182fd5b50508035926020909101359150565b600082516130f581846020870161332c565b9190910192915050565b602081526000825180602084015261311e81604085016020870161332c565b601f01601f19169190910160400192915050565b60208082526024908201527f4d6963726f6372656469743a2063616c6c6572206973206e6f742061206d616e60408201526330b3b2b960e11b606082015260800190565b60208082526030908201527f4d6963726f6372656469743a2063616c6c6461746120696e666f726d6174696f60408201526f0dc40c2e4d2e8f240dad2e6dac2e8c6d60831b606082015260800190565b60208082526021908201527f4d6963726f6372656469743a204c6f616e20616c726561647920636c61696d656040820152601960fa1b606082015260800190565b6020808252818101527f4f776e61626c653a2063616c6c6572206973206e6f7420746865206f776e6572604082015260600190565b6020808252602b908201527f496e697469616c697a61626c653a20636f6e7472616374206973206e6f74206960408201526a6e697469616c697a696e6760a81b606082015260800190565b6020808252601f908201527f5265656e7472616e637947756172643a207265656e7472616e742063616c6c00604082015260600190565b600082198211156132d1576132d161338a565b500190565b6000826132f157634e487b7160e01b81526012600452602481fd5b500490565b60008160001904831182151516156133105761331061338a565b500290565b6000828210156133275761332761338a565b500390565b60005b8381101561334757818101518382015260200161332f565b838111156105de5750506000910152565b6000816133675761336761338a565b506000190190565b60006000198214156133835761338361338a565b5060010190565b634e487b7160e01b600052601160045260246000fd5b634e487b7160e01b600052604160045260246000fd5b6001600160a01b0381168114611c6957600080fdfea2646970667358221220ceb89ccb3e1a392d49ad2c16205d97318cf18a4f2dd5c50a0fd9e5cfa88771a564736f6c63430008040033",
  "devdoc": {
    "events": {
      "ManagerChanged(address,address)": {
        "params": {
          "borrowerAddress": "The address of the borrower",
          "managerAddress": "The address of the new manager"
        }
      }
    },
    "kind": "dev",
    "methods": {
      "addLoan(address,uint256,uint256,uint256,uint256)": {
        "params": {
          "_amount": "amount of the loan",
          "_claimDeadline": "claim deadline of the loan",
          "_dailyInterest": "daily interest of the loan",
          "_period": "period of the loan",
          "_userAddress": "address of the user"
        }
      },
      "addLoans(address[],uint256[],uint256[],uint256[],uint256[])": {
        "params": {
          "_amounts": "amounts of the loan",
          "_claimDeadlines": "claim deadlines of the loan",
          "_dailyInterests": "daily interests of the loan",
          "_periods": "periods of the loan",
          "_userAddresses": "addresses of the user"
        }
      },
      "addManagers(address[],uint256[])": {
        "params": {
          "_managerAddresses": "addresses of the managers"
        }
      },
      "cancelLoans(address[],uint256[])": {
        "params": {
          "_loansIds": "Loan ids",
          "_userAddresses": "User addresses"
        }
      },
      "changeManager(address[],address)": {
        "details": "This method doesn't change anything on the contract state, it just emits events to be used by the off-chain system",
        "params": {
          "_borrowerAddresses": "address of the borrowers",
          "_managerAddress": "address of the new manager"
        }
      },
      "changeUserAddress(address,address)": {
        "params": {
          "_newWalletAddress": "New wallet address",
          "_oldWalletAddress": "Old wallet address"
        }
      },
      "claimLoan(uint256)": {
        "params": {
          "_loanId": "Loan ID"
        }
      },
      "initialize(address,address)": {
        "params": {
          "_cUSDAddress": "The address of the cUSD token",
          "_revenueAddress": "The address that collects all the interest"
        }
      },
      "managerListAt(uint256)": {
        "params": {
          "_index": "index value"
        },
        "returns": {
          "_0": "address of the manager"
        }
      },
      "owner()": {
        "details": "Returns the address of the current owner."
      },
      "paused()": {
        "details": "Returns true if the contract is paused, and false otherwise."
      },
      "removeManagers(address[])": {
        "params": {
          "_managerAddresses": "addresses of the managers"
        }
      },
      "renounceOwnership()": {
        "details": "Leaves the contract without owner. It will not be possible to call `onlyOwner` functions anymore. Can only be called by the current owner. NOTE: Renouncing ownership will leave the contract without an owner, thereby removing any functionality that is only available to the owner."
      },
      "repayLoan(uint256,uint256)": {
        "params": {
          "_loanId": "Loan ID",
          "_repaymentAmount": "Repayment amount"
        }
      },
      "transferERC20(address,address,uint256)": {
        "params": {
          "_amount": "amount of the transaction",
          "_to": "address of the receiver",
          "_token": "address of the ERC20 token"
        }
      },
      "transferOwnership(address)": {
        "details": "Transfers ownership of the contract to a new account (`newOwner`). Can only be called by the current owner."
      },
      "walletListAt(uint256)": {
        "params": {
          "_index": "index value"
        },
        "returns": {
          "_0": "address of the user"
        }
      },
      "walletMetadata(address)": {
        "params": {
          "_userAddress": "address of the user"
        },
        "returns": {
          "loansLength": "          the number of the user's loans",
          "movedTo": "              the number of the user's loans",
          "userId": "               the userId"
        }
      }
    },
    "version": 1
  },
  "userdoc": {
    "events": {
      "ManagerChanged(address,address)": {
        "notice": "Triggered when a borrower's manager has been changed"
      }
    },
    "kind": "user",
    "methods": {
      "addLoan(address,uint256,uint256,uint256,uint256)": {
        "notice": "Adds a loan"
      },
      "addLoans(address[],uint256[],uint256[],uint256[],uint256[])": {
        "notice": "Adds multiples loans"
      },
      "addManagers(address[],uint256[])": {
        "notice": "Adds managers"
      },
      "cancelLoans(address[],uint256[])": {
        "notice": "Cancel a loan"
      },
      "changeManager(address[],address)": {
        "notice": "Changes the borrowers manager address"
      },
      "changeUserAddress(address,address)": {
        "notice": "Change user address"
      },
      "claimLoan(uint256)": {
        "notice": "Claim a loan"
      },
      "getVersion()": {
        "notice": "Returns the current implementation version"
      },
      "initialize(address,address)": {
        "notice": "Used to initialize the Microcredit contract"
      },
      "managerListAt(uint256)": {
        "notice": "Returns an address from the managerList"
      },
      "managerListLength()": {
        "notice": "Returns the length of the managerList"
      },
      "removeManagers(address[])": {
        "notice": "Removes managers"
      },
      "repayLoan(uint256,uint256)": {
        "notice": "Repay a loan"
      },
      "transferERC20(address,address,uint256)": {
        "notice": "Transfers an amount of an ERC20 from this contract to an address"
      },
      "walletListAt(uint256)": {
        "notice": "Returns an address from the walletList"
      },
      "walletListLength()": {
        "notice": "Returns the length of the walletList"
      },
      "walletMetadata(address)": {
        "notice": "Returns the information of a user"
      }
    },
    "version": 1
  },
  "storageLayout": {
    "storage": [
      {
        "astId": 542,
        "contract": "contracts/microcredit/MicrocreditImplementation.sol:MicrocreditImplementation",
        "label": "_initialized",
        "offset": 0,
        "slot": "0",
        "type": "t_bool"
      },
      {
        "astId": 545,
        "contract": "contracts/microcredit/MicrocreditImplementation.sol:MicrocreditImplementation",
        "label": "_initializing",
        "offset": 1,
        "slot": "0",
        "type": "t_bool"
      },
      {
        "astId": 1370,
        "contract": "contracts/microcredit/MicrocreditImplementation.sol:MicrocreditImplementation",
        "label": "__gap",
        "offset": 0,
        "slot": "1",
        "type": "t_array(t_uint256)50_storage"
      },
      {
        "astId": 420,
        "contract": "contracts/microcredit/MicrocreditImplementation.sol:MicrocreditImplementation",
        "label": "_owner",
        "offset": 0,
        "slot": "51",
        "type": "t_address"
      },
      {
        "astId": 534,
        "contract": "contracts/microcredit/MicrocreditImplementation.sol:MicrocreditImplementation",
        "label": "__gap",
        "offset": 0,
        "slot": "52",
        "type": "t_array(t_uint256)49_storage"
      },
      {
        "astId": 630,
        "contract": "contracts/microcredit/MicrocreditImplementation.sol:MicrocreditImplementation",
        "label": "_paused",
        "offset": 0,
        "slot": "101",
        "type": "t_bool"
      },
      {
        "astId": 721,
        "contract": "contracts/microcredit/MicrocreditImplementation.sol:MicrocreditImplementation",
        "label": "__gap",
        "offset": 0,
        "slot": "102",
        "type": "t_array(t_uint256)49_storage"
      },
      {
        "astId": 736,
        "contract": "contracts/microcredit/MicrocreditImplementation.sol:MicrocreditImplementation",
        "label": "_status",
        "offset": 0,
        "slot": "151",
        "type": "t_uint256"
      },
      {
        "astId": 779,
        "contract": "contracts/microcredit/MicrocreditImplementation.sol:MicrocreditImplementation",
        "label": "__gap",
        "offset": 0,
        "slot": "152",
        "type": "t_array(t_uint256)49_storage"
      },
      {
        "astId": 25740,
        "contract": "contracts/microcredit/MicrocreditImplementation.sol:MicrocreditImplementation",
        "label": "cUSD",
        "offset": 0,
        "slot": "201",
        "type": "t_contract(IERC20Upgradeable)858"
      },
      {
        "astId": 25742,
        "contract": "contracts/microcredit/MicrocreditImplementation.sol:MicrocreditImplementation",
        "label": "_usersLength",
        "offset": 0,
        "slot": "202",
        "type": "t_uint256"
      },
      {
        "astId": 25747,
        "contract": "contracts/microcredit/MicrocreditImplementation.sol:MicrocreditImplementation",
        "label": "_users",
        "offset": 0,
        "slot": "203",
        "type": "t_mapping(t_uint256,t_struct(User)25456_storage)"
      },
      {
        "astId": 25752,
        "contract": "contracts/microcredit/MicrocreditImplementation.sol:MicrocreditImplementation",
        "label": "_walletMetadata",
        "offset": 0,
        "slot": "204",
        "type": "t_mapping(t_address,t_struct(WalletMetadata)25451_storage)"
      },
      {
        "astId": 25755,
        "contract": "contracts/microcredit/MicrocreditImplementation.sol:MicrocreditImplementation",
        "label": "_walletList",
        "offset": 0,
        "slot": "205",
        "type": "t_struct(AddressSet)5505_storage"
      },
      {
        "astId": 25758,
        "contract": "contracts/microcredit/MicrocreditImplementation.sol:MicrocreditImplementation",
        "label": "_managerList",
        "offset": 0,
        "slot": "207",
        "type": "t_struct(AddressSet)5505_storage"
      },
      {
        "astId": 25761,
        "contract": "contracts/microcredit/MicrocreditImplementation.sol:MicrocreditImplementation",
        "label": "revenueAddress",
        "offset": 0,
        "slot": "209",
        "type": "t_address"
      },
      {
        "astId": 25767,
        "contract": "contracts/microcredit/MicrocreditImplementation.sol:MicrocreditImplementation",
        "label": "managers",
        "offset": 0,
        "slot": "210",
        "type": "t_mapping(t_address,t_struct(Manager)25461_storage)"
      },
      {
        "astId": 25771,
        "contract": "contracts/microcredit/MicrocreditImplementation.sol:MicrocreditImplementation",
        "label": "donationMiner",
        "offset": 0,
        "slot": "211",
        "type": "t_contract(IDonationMiner)18464"
      }
    ],
    "types": {
      "t_address": {
        "encoding": "inplace",
        "label": "address",
        "numberOfBytes": "20"
      },
      "t_array(t_bytes32)dyn_storage": {
        "base": "t_bytes32",
        "encoding": "dynamic_array",
        "label": "bytes32[]",
        "numberOfBytes": "32"
      },
      "t_array(t_struct(Loan)25489_storage)dyn_storage": {
        "base": "t_struct(Loan)25489_storage",
        "encoding": "dynamic_array",
        "label": "struct IMicrocredit.Loan[]",
        "numberOfBytes": "32"
      },
      "t_array(t_struct(Repayment)25466_storage)dyn_storage": {
        "base": "t_struct(Repayment)25466_storage",
        "encoding": "dynamic_array",
        "label": "struct IMicrocredit.Repayment[]",
        "numberOfBytes": "32"
      },
      "t_array(t_uint256)49_storage": {
        "base": "t_uint256",
        "encoding": "inplace",
        "label": "uint256[49]",
        "numberOfBytes": "1568"
      },
      "t_array(t_uint256)50_storage": {
        "base": "t_uint256",
        "encoding": "inplace",
        "label": "uint256[50]",
        "numberOfBytes": "1600"
      },
      "t_bool": {
        "encoding": "inplace",
        "label": "bool",
        "numberOfBytes": "1"
      },
      "t_bytes32": {
        "encoding": "inplace",
        "label": "bytes32",
        "numberOfBytes": "32"
      },
      "t_contract(IDonationMiner)18464": {
        "encoding": "inplace",
        "label": "contract IDonationMiner",
        "numberOfBytes": "20"
      },
      "t_contract(IERC20Upgradeable)858": {
        "encoding": "inplace",
        "label": "contract IERC20Upgradeable",
        "numberOfBytes": "20"
      },
      "t_mapping(t_address,t_struct(Manager)25461_storage)": {
        "encoding": "mapping",
        "key": "t_address",
        "label": "mapping(address => struct IMicrocredit.Manager)",
        "numberOfBytes": "32",
        "value": "t_struct(Manager)25461_storage"
      },
      "t_mapping(t_address,t_struct(WalletMetadata)25451_storage)": {
        "encoding": "mapping",
        "key": "t_address",
        "label": "mapping(address => struct IMicrocredit.WalletMetadata)",
        "numberOfBytes": "32",
        "value": "t_struct(WalletMetadata)25451_storage"
      },
      "t_mapping(t_bytes32,t_uint256)": {
        "encoding": "mapping",
        "key": "t_bytes32",
        "label": "mapping(bytes32 => uint256)",
        "numberOfBytes": "32",
        "value": "t_uint256"
      },
      "t_mapping(t_uint256,t_struct(User)25456_storage)": {
        "encoding": "mapping",
        "key": "t_uint256",
        "label": "mapping(uint256 => struct IMicrocredit.User)",
        "numberOfBytes": "32",
        "value": "t_struct(User)25456_storage"
      },
      "t_struct(AddressSet)5505_storage": {
        "encoding": "inplace",
        "label": "struct EnumerableSet.AddressSet",
        "members": [
          {
            "astId": 5504,
            "contract": "contracts/microcredit/MicrocreditImplementation.sol:MicrocreditImplementation",
            "label": "_inner",
            "offset": 0,
            "slot": "0",
            "type": "t_struct(Set)5204_storage"
          }
        ],
        "numberOfBytes": "64"
      },
      "t_struct(Loan)25489_storage": {
        "encoding": "inplace",
        "label": "struct IMicrocredit.Loan",
        "members": [
          {
            "astId": 25468,
            "contract": "contracts/microcredit/MicrocreditImplementation.sol:MicrocreditImplementation",
            "label": "amountBorrowed",
            "offset": 0,
            "slot": "0",
            "type": "t_uint256"
          },
          {
            "astId": 25470,
            "contract": "contracts/microcredit/MicrocreditImplementation.sol:MicrocreditImplementation",
            "label": "period",
            "offset": 0,
            "slot": "1",
            "type": "t_uint256"
          },
          {
            "astId": 25472,
            "contract": "contracts/microcredit/MicrocreditImplementation.sol:MicrocreditImplementation",
            "label": "dailyInterest",
            "offset": 0,
            "slot": "2",
            "type": "t_uint256"
          },
          {
            "astId": 25474,
            "contract": "contracts/microcredit/MicrocreditImplementation.sol:MicrocreditImplementation",
            "label": "claimDeadline",
            "offset": 0,
            "slot": "3",
            "type": "t_uint256"
          },
          {
            "astId": 25476,
            "contract": "contracts/microcredit/MicrocreditImplementation.sol:MicrocreditImplementation",
            "label": "startDate",
            "offset": 0,
            "slot": "4",
            "type": "t_uint256"
          },
          {
            "astId": 25478,
            "contract": "contracts/microcredit/MicrocreditImplementation.sol:MicrocreditImplementation",
            "label": "lastComputedDebt",
            "offset": 0,
            "slot": "5",
            "type": "t_uint256"
          },
          {
            "astId": 25480,
            "contract": "contracts/microcredit/MicrocreditImplementation.sol:MicrocreditImplementation",
            "label": "amountRepayed",
            "offset": 0,
            "slot": "6",
            "type": "t_uint256"
          },
          {
            "astId": 25484,
            "contract": "contracts/microcredit/MicrocreditImplementation.sol:MicrocreditImplementation",
            "label": "repayments",
            "offset": 0,
            "slot": "7",
            "type": "t_array(t_struct(Repayment)25466_storage)dyn_storage"
          },
          {
            "astId": 25486,
            "contract": "contracts/microcredit/MicrocreditImplementation.sol:MicrocreditImplementation",
            "label": "lastComputedDate",
            "offset": 0,
            "slot": "8",
            "type": "t_uint256"
          },
          {
            "astId": 25488,
            "contract": "contracts/microcredit/MicrocreditImplementation.sol:MicrocreditImplementation",
            "label": "managerAddress",
            "offset": 0,
            "slot": "9",
            "type": "t_address"
          }
        ],
        "numberOfBytes": "320"
      },
      "t_struct(Manager)25461_storage": {
        "encoding": "inplace",
        "label": "struct IMicrocredit.Manager",
        "members": [
          {
            "astId": 25458,
            "contract": "contracts/microcredit/MicrocreditImplementation.sol:MicrocreditImplementation",
            "label": "currentLentAmountLimit",
            "offset": 0,
            "slot": "0",
            "type": "t_uint256"
          },
          {
            "astId": 25460,
            "contract": "contracts/microcredit/MicrocreditImplementation.sol:MicrocreditImplementation",
            "label": "currentLentAmount",
            "offset": 0,
            "slot": "1",
            "type": "t_uint256"
          }
        ],
        "numberOfBytes": "64"
      },
      "t_struct(Repayment)25466_storage": {
        "encoding": "inplace",
        "label": "struct IMicrocredit.Repayment",
        "members": [
          {
            "astId": 25463,
            "contract": "contracts/microcredit/MicrocreditImplementation.sol:MicrocreditImplementation",
            "label": "date",
            "offset": 0,
            "slot": "0",
            "type": "t_uint256"
          },
          {
            "astId": 25465,
            "contract": "contracts/microcredit/MicrocreditImplementation.sol:MicrocreditImplementation",
            "label": "amount",
            "offset": 0,
            "slot": "1",
            "type": "t_uint256"
          }
        ],
        "numberOfBytes": "64"
      },
      "t_struct(Set)5204_storage": {
        "encoding": "inplace",
        "label": "struct EnumerableSet.Set",
        "members": [
          {
            "astId": 5199,
            "contract": "contracts/microcredit/MicrocreditImplementation.sol:MicrocreditImplementation",
            "label": "_values",
            "offset": 0,
            "slot": "0",
            "type": "t_array(t_bytes32)dyn_storage"
          },
          {
            "astId": 5203,
            "contract": "contracts/microcredit/MicrocreditImplementation.sol:MicrocreditImplementation",
            "label": "_indexes",
            "offset": 0,
            "slot": "1",
            "type": "t_mapping(t_bytes32,t_uint256)"
          }
        ],
        "numberOfBytes": "64"
      },
      "t_struct(User)25456_storage": {
        "encoding": "inplace",
        "label": "struct IMicrocredit.User",
        "members": [
          {
            "astId": 25455,
            "contract": "contracts/microcredit/MicrocreditImplementation.sol:MicrocreditImplementation",
            "label": "loans",
            "offset": 0,
            "slot": "0",
            "type": "t_array(t_struct(Loan)25489_storage)dyn_storage"
          }
        ],
        "numberOfBytes": "32"
      },
      "t_struct(WalletMetadata)25451_storage": {
        "encoding": "inplace",
        "label": "struct IMicrocredit.WalletMetadata",
        "members": [
          {
            "astId": 25448,
            "contract": "contracts/microcredit/MicrocreditImplementation.sol:MicrocreditImplementation",
            "label": "userId",
            "offset": 0,
            "slot": "0",
            "type": "t_uint256"
          },
          {
            "astId": 25450,
            "contract": "contracts/microcredit/MicrocreditImplementation.sol:MicrocreditImplementation",
            "label": "movedTo",
            "offset": 0,
            "slot": "1",
            "type": "t_address"
          }
        ],
        "numberOfBytes": "64"
      },
      "t_uint256": {
        "encoding": "inplace",
        "label": "uint256",
        "numberOfBytes": "32"
      }
    }
  }
}