{
  "address": "0x8622f364a3513f1544e15102571f1D59FfA1943f",
  "abi": [
    {
      "anonymous": false,
      "inputs": [
        {
          "indexed": true,
          "internalType": "address",
          "name": "previousOwner",
          "type": "address"
        },
        {
          "indexed": true,
          "internalType": "address",
          "name": "newOwner",
          "type": "address"
        }
      ],
      "name": "OwnershipTransferred",
      "type": "event"
    },
    {
      "inputs": [],
      "name": "getVersion",
      "outputs": [
        {
          "internalType": "uint256",
          "name": "",
          "type": "uint256"
        }
      ],
      "stateMutability": "pure",
      "type": "function"
    },
    {
      "inputs": [],
      "name": "initialize",
      "outputs": [],
      "stateMutability": "nonpayable",
      "type": "function"
    },
    {
      "inputs": [],
      "name": "owner",
      "outputs": [
        {
          "internalType": "address",
          "name": "",
          "type": "address"
        }
      ],
      "stateMutability": "view",
      "type": "function"
    },
    {
      "inputs": [],
      "name": "renounceOwnership",
      "outputs": [],
      "stateMutability": "nonpayable",
      "type": "function"
    },
    {
      "inputs": [
        {
          "internalType": "contract IERC20Upgradeable",
          "name": "_token",
          "type": "address"
        },
        {
          "internalType": "address",
          "name": "_to",
          "type": "address"
        },
        {
          "internalType": "uint256",
          "name": "_amount",
          "type": "uint256"
        }
      ],
      "name": "transferERC20",
      "outputs": [],
      "stateMutability": "nonpayable",
      "type": "function"
    },
    {
      "inputs": [
        {
          "internalType": "address",
          "name": "newOwner",
          "type": "address"
        }
      ],
      "name": "transferOwnership",
      "outputs": [],
      "stateMutability": "nonpayable",
      "type": "function"
    }
  ],
  "transactionHash": "0xd5b29a251be2437f1afe4613c854e5406a28afc0eb2e1cf8fe3d2ded9f343bcc",
  "args": [],
  "numDeployments": 1,
  "solcInputHash": "bdb7dce5328b212082e953f0187ba590",
  "bytecode": "0x608060405234801561001057600080fd5b506108b0806100206000396000f3fe608060405234801561001057600080fd5b50600436106100625760003560e01c80630d8e6e2c14610067578063715018a61461007b5780638129fc1c146100855780638da5cb5b1461008d5780639db5dbe4146100a8578063f2fde38b146100bb575b600080fd5b604051600181526020015b60405180910390f35b6100836100ce565b005b61008361010d565b6033546040516001600160a01b039091168152602001610072565b6100836100b6366004610726565b6101d6565b6100836100c93660046106ea565b610276565b6033546001600160a01b031633146101015760405162461bcd60e51b81526004016100f8906107b5565b60405180910390fd5b61010b600061030a565b565b600054610100900460ff166101285760005460ff161561012c565b303b155b61018f5760405162461bcd60e51b815260206004820152602e60248201527f496e697469616c697a61626c653a20636f6e747261637420697320616c72656160448201526d191e481a5b9a5d1a585b1a5e995960921b60648201526084016100f8565b600054610100900460ff161580156101b1576000805461ffff19166101011790555b6101b961035c565b6101c1610393565b80156101d3576000805461ff00191690555b50565b6033546001600160a01b031633146102005760405162461bcd60e51b81526004016100f8906107b5565b600260655414156102535760405162461bcd60e51b815260206004820152601f60248201527f5265656e7472616e637947756172643a207265656e7472616e742063616c6c0060448201526064016100f8565b600260655561026c6001600160a01b03841683836103c2565b5050600160655550565b6033546001600160a01b031633146102a05760405162461bcd60e51b81526004016100f8906107b5565b6001600160a01b0381166103055760405162461bcd60e51b815260206004820152602660248201527f4f776e61626c653a206e6577206f776e657220697320746865207a65726f206160448201526564647265737360d01b60648201526084016100f8565b6101d3815b603380546001600160a01b038381166001600160a01b0319831681179093556040519116919082907f8be0079c531659141344cd1fd0a4f28419497f9722a3daafe3b4186f6b6457e090600090a35050565b600054610100900460ff166103835760405162461bcd60e51b81526004016100f8906107ea565b61038b610419565b61010b610440565b600054610100900460ff166103ba5760405162461bcd60e51b81526004016100f8906107ea565b61010b610470565b604080516001600160a01b038416602482015260448082018490528251808303909101815260649091019091526020810180516001600160e01b031663a9059cbb60e01b17905261041490849061049e565b505050565b600054610100900460ff1661010b5760405162461bcd60e51b81526004016100f8906107ea565b600054610100900460ff166104675760405162461bcd60e51b81526004016100f8906107ea565b61010b3361030a565b600054610100900460ff166104975760405162461bcd60e51b81526004016100f8906107ea565b6001606555565b60006104f3826040518060400160405280602081526020017f5361666545524332303a206c6f772d6c6576656c2063616c6c206661696c6564815250856001600160a01b03166105709092919063ffffffff16565b80519091501561041457808060200190518101906105119190610706565b6104145760405162461bcd60e51b815260206004820152602a60248201527f5361666545524332303a204552433230206f7065726174696f6e20646964206e6044820152691bdd081cdd58d8d9595960b21b60648201526084016100f8565b606061057f8484600085610589565b90505b9392505050565b6060824710156105ea5760405162461bcd60e51b815260206004820152602660248201527f416464726573733a20696e73756666696369656e742062616c616e636520666f6044820152651c8818d85b1b60d21b60648201526084016100f8565b843b6106385760405162461bcd60e51b815260206004820152601d60248201527f416464726573733a2063616c6c20746f206e6f6e2d636f6e747261637400000060448201526064016100f8565b600080866001600160a01b031685876040516106549190610766565b60006040518083038185875af1925050503d8060008114610691576040519150601f19603f3d011682016040523d82523d6000602084013e610696565b606091505b50915091506106a68282866106b1565b979650505050505050565b606083156106c0575081610582565b8251156106d05782518084602001fd5b8160405162461bcd60e51b81526004016100f89190610782565b6000602082840312156106fb578081fd5b813561058281610865565b600060208284031215610717578081fd5b81518015158114610582578182fd5b60008060006060848603121561073a578182fd5b833561074581610865565b9250602084013561075581610865565b929592945050506040919091013590565b60008251610778818460208701610835565b9190910192915050565b60208152600082518060208401526107a1816040850160208701610835565b601f01601f19169190910160400192915050565b6020808252818101527f4f776e61626c653a2063616c6c6572206973206e6f7420746865206f776e6572604082015260600190565b6020808252602b908201527f496e697469616c697a61626c653a20636f6e7472616374206973206e6f74206960408201526a6e697469616c697a696e6760a81b606082015260800190565b60005b83811015610850578181015183820152602001610838565b8381111561085f576000848401525b50505050565b6001600160a01b03811681146101d357600080fdfea26469706673582212209c64f5d0015887bba1a01499b2d20c8404ec446ffa03c27c530e62d8ce68094f64736f6c63430008040033",
  "devdoc": {
    "kind": "dev",
    "methods": {
      "owner()": {
        "details": "Returns the address of the current owner."
      },
      "renounceOwnership()": {
        "details": "Leaves the contract without owner. It will not be possible to call `onlyOwner` functions anymore. Can only be called by the current owner. NOTE: Renouncing ownership will leave the contract without an owner, thereby removing any functionality that is only available to the owner."
      },
      "transferERC20(address,address,uint256)": {
        "params": {
          "_amount": "amount of the transaction",
          "_to": "address of the receiver",
          "_token": "address of the ERC20 token"
        }
      },
      "transferOwnership(address)": {
        "details": "Transfers ownership of the contract to a new account (`newOwner`). Can only be called by the current owner."
      }
    },
    "version": 1
  },
  "userdoc": {
    "kind": "user",
    "methods": {
      "getVersion()": {
        "notice": "Returns the current implementation version"
      },
      "initialize()": {
        "notice": "Used to initialize the MicrocreditRevenue contract"
      },
      "transferERC20(address,address,uint256)": {
        "notice": "Transfers an amount of an ERC20 from this contract to an address"
      }
    },
    "version": 1
  },
  "storageLayout": {
    "storage": [
      {
        "astId": 542,
        "contract": "contracts/microcredit/MicrocreditRevenueImplementation.sol:MicrocreditRevenueImplementation",
        "label": "_initialized",
        "offset": 0,
        "slot": "0",
        "type": "t_bool"
      },
      {
        "astId": 545,
        "contract": "contracts/microcredit/MicrocreditRevenueImplementation.sol:MicrocreditRevenueImplementation",
        "label": "_initializing",
        "offset": 1,
        "slot": "0",
        "type": "t_bool"
      },
      {
        "astId": 1370,
        "contract": "contracts/microcredit/MicrocreditRevenueImplementation.sol:MicrocreditRevenueImplementation",
        "label": "__gap",
        "offset": 0,
        "slot": "1",
        "type": "t_array(t_uint256)50_storage"
      },
      {
        "astId": 420,
        "contract": "contracts/microcredit/MicrocreditRevenueImplementation.sol:MicrocreditRevenueImplementation",
        "label": "_owner",
        "offset": 0,
        "slot": "51",
        "type": "t_address"
      },
      {
        "astId": 534,
        "contract": "contracts/microcredit/MicrocreditRevenueImplementation.sol:MicrocreditRevenueImplementation",
        "label": "__gap",
        "offset": 0,
        "slot": "52",
        "type": "t_array(t_uint256)49_storage"
      },
      {
        "astId": 736,
        "contract": "contracts/microcredit/MicrocreditRevenueImplementation.sol:MicrocreditRevenueImplementation",
        "label": "_status",
        "offset": 0,
        "slot": "101",
        "type": "t_uint256"
      },
      {
        "astId": 779,
        "contract": "contracts/microcredit/MicrocreditRevenueImplementation.sol:MicrocreditRevenueImplementation",
        "label": "__gap",
        "offset": 0,
        "slot": "102",
        "type": "t_array(t_uint256)49_storage"
      }
    ],
    "types": {
      "t_address": {
        "encoding": "inplace",
        "label": "address",
        "numberOfBytes": "20"
      },
      "t_array(t_uint256)49_storage": {
        "base": "t_uint256",
        "encoding": "inplace",
        "label": "uint256[49]",
        "numberOfBytes": "1568"
      },
      "t_array(t_uint256)50_storage": {
        "base": "t_uint256",
        "encoding": "inplace",
        "label": "uint256[50]",
        "numberOfBytes": "1600"
      },
      "t_bool": {
        "encoding": "inplace",
        "label": "bool",
        "numberOfBytes": "1"
      },
      "t_uint256": {
        "encoding": "inplace",
        "label": "uint256",
        "numberOfBytes": "32"
      }
    }
  }
}