{
  "address": "0xff237aB978AF7f15Fc3eBDac87026fd9de851340",
  "abi": [
    {
      "anonymous": false,
      "inputs": [
        {
          "indexed": true,
          "internalType": "address",
          "name": "userAddress",
          "type": "address"
        },
        {
          "indexed": false,
          "internalType": "uint256",
          "name": "loanId",
          "type": "uint256"
        },
        {
          "indexed": false,
          "internalType": "uint256",
          "name": "amount",
          "type": "uint256"
        },
        {
          "indexed": false,
          "internalType": "uint256",
          "name": "period",
          "type": "uint256"
        },
        {
          "indexed": false,
          "internalType": "uint256",
          "name": "dailyInterest",
          "type": "uint256"
        },
        {
          "indexed": false,
          "internalType": "uint256",
          "name": "claimDeadline",
          "type": "uint256"
        }
      ],
      "name": "LoanAdded",
      "type": "event"
    },
    {
      "anonymous": false,
      "inputs": [
        {
          "indexed": true,
          "internalType": "address",
          "name": "userAddress",
          "type": "address"
        },
        {
          "indexed": false,
          "internalType": "uint256",
          "name": "loanId",
          "type": "uint256"
        }
      ],
      "name": "LoanCanceled",
      "type": "event"
    },
    {
      "anonymous": false,
      "inputs": [
        {
          "indexed": true,
          "internalType": "address",
          "name": "userAddress",
          "type": "address"
        },
        {
          "indexed": false,
          "internalType": "uint256",
          "name": "loanId",
          "type": "uint256"
        }
      ],
      "name": "LoanClaimed",
      "type": "event"
    },
    {
      "anonymous": false,
      "inputs": [
        {
          "indexed": true,
          "internalType": "address",
          "name": "managerAddress",
          "type": "address"
        },
        {
          "indexed": false,
          "internalType": "uint256",
          "name": "currentLentAmountLimit",
          "type": "uint256"
        }
      ],
      "name": "ManagerAdded",
      "type": "event"
    },
    {
      "anonymous": false,
      "inputs": [
        {
          "indexed": true,
          "internalType": "address",
          "name": "borrowerAddress",
          "type": "address"
        },
        {
          "indexed": true,
          "internalType": "address",
          "name": "managerAddress",
          "type": "address"
        }
      ],
      "name": "ManagerChanged",
      "type": "event"
    },
    {
      "anonymous": false,
      "inputs": [
        {
          "indexed": true,
          "internalType": "address",
          "name": "managerAddress",
          "type": "address"
        }
      ],
      "name": "ManagerRemoved",
      "type": "event"
    },
    {
      "anonymous": false,
      "inputs": [
        {
          "indexed": true,
          "internalType": "address",
          "name": "previousOwner",
          "type": "address"
        },
        {
          "indexed": true,
          "internalType": "address",
          "name": "newOwner",
          "type": "address"
        }
      ],
      "name": "OwnershipTransferred",
      "type": "event"
    },
    {
      "anonymous": false,
      "inputs": [
        {
          "indexed": false,
          "internalType": "address",
          "name": "account",
          "type": "address"
        }
      ],
      "name": "Paused",
      "type": "event"
    },
    {
      "anonymous": false,
      "inputs": [
        {
          "indexed": true,
          "internalType": "address",
          "name": "userAddress",
          "type": "address"
        },
        {
          "indexed": false,
          "internalType": "uint256",
          "name": "loanId",
          "type": "uint256"
        },
        {
          "indexed": false,
          "internalType": "uint256",
          "name": "repaymentAmount",
          "type": "uint256"
        },
        {
          "indexed": false,
          "internalType": "uint256",
          "name": "currentDebt",
          "type": "uint256"
        }
      ],
      "name": "RepaymentAdded",
      "type": "event"
    },
    {
      "anonymous": false,
      "inputs": [
        {
          "indexed": false,
          "internalType": "address",
          "name": "account",
          "type": "address"
        }
      ],
      "name": "Unpaused",
      "type": "event"
    },
    {
      "anonymous": false,
      "inputs": [
        {
          "indexed": true,
          "internalType": "address",
          "name": "oldWalletAddress",
          "type": "address"
        },
        {
          "indexed": true,
          "internalType": "address",
          "name": "newWalletAddress",
          "type": "address"
        }
      ],
      "name": "UserAddressChanged",
      "type": "event"
    },
    {
      "inputs": [
        {
          "internalType": "address",
          "name": "_userAddress",
          "type": "address"
        },
        {
          "internalType": "uint256",
          "name": "_amount",
          "type": "uint256"
        },
        {
          "internalType": "uint256",
          "name": "_period",
          "type": "uint256"
        },
        {
          "internalType": "uint256",
          "name": "_dailyInterest",
          "type": "uint256"
        },
        {
          "internalType": "uint256",
          "name": "_claimDeadline",
          "type": "uint256"
        }
      ],
      "name": "addLoan",
      "outputs": [],
      "stateMutability": "nonpayable",
      "type": "function"
    },
    {
      "inputs": [
        {
          "internalType": "address[]",
          "name": "_userAddresses",
          "type": "address[]"
        },
        {
          "internalType": "uint256[]",
          "name": "_amounts",
          "type": "uint256[]"
        },
        {
          "internalType": "uint256[]",
          "name": "_periods",
          "type": "uint256[]"
        },
        {
          "internalType": "uint256[]",
          "name": "_dailyInterests",
          "type": "uint256[]"
        },
        {
          "internalType": "uint256[]",
          "name": "_claimDeadlines",
          "type": "uint256[]"
        }
      ],
      "name": "addLoans",
      "outputs": [],
      "stateMutability": "nonpayable",
      "type": "function"
    },
    {
      "inputs": [
        {
          "internalType": "address[]",
          "name": "_managerAddresses",
          "type": "address[]"
        },
        {
          "internalType": "uint256[]",
          "name": "_currentLentAmountLimit",
          "type": "uint256[]"
        }
      ],
      "name": "addManagers",
      "outputs": [],
      "stateMutability": "nonpayable",
      "type": "function"
    },
    {
      "inputs": [
        {
          "internalType": "address[]",
          "name": "_managerAddresses",
          "type": "address[]"
        },
        {
          "internalType": "uint256[]",
          "name": "_currentLentAmountLimit",
          "type": "uint256[]"
        },
        {
          "internalType": "uint256[]",
          "name": "_currentLentAmount",
          "type": "uint256[]"
        }
      ],
      "name": "addManagers2",
      "outputs": [],
      "stateMutability": "nonpayable",
      "type": "function"
    },
    {
      "inputs": [],
      "name": "cUSD",
      "outputs": [
        {
          "internalType": "contract IERC20Upgradeable",
          "name": "",
          "type": "address"
        }
      ],
      "stateMutability": "view",
      "type": "function"
    },
    {
      "inputs": [
        {
          "internalType": "address[]",
          "name": "_userAddresses",
          "type": "address[]"
        },
        {
          "internalType": "uint256[]",
          "name": "_loansIds",
          "type": "uint256[]"
        }
      ],
      "name": "cancelLoans",
      "outputs": [],
      "stateMutability": "nonpayable",
      "type": "function"
    },
    {
      "inputs": [
        {
          "internalType": "address[]",
          "name": "_borrowerAddresses",
          "type": "address[]"
        },
        {
          "internalType": "address",
          "name": "_managerAddress",
          "type": "address"
        }
      ],
      "name": "changeManager",
      "outputs": [],
      "stateMutability": "nonpayable",
      "type": "function"
    },
    {
      "inputs": [
        {
          "internalType": "address",
          "name": "_oldWalletAddress",
          "type": "address"
        },
        {
          "internalType": "address",
          "name": "_newWalletAddress",
          "type": "address"
        }
      ],
      "name": "changeUserAddress",
      "outputs": [],
      "stateMutability": "nonpayable",
      "type": "function"
    },
    {
      "inputs": [
        {
          "internalType": "uint256",
          "name": "_loanId",
          "type": "uint256"
        }
      ],
      "name": "claimLoan",
      "outputs": [],
      "stateMutability": "nonpayable",
      "type": "function"
    },
    {
      "inputs": [
        {
          "internalType": "uint256",
          "name": "_start",
          "type": "uint256"
        },
        {
          "internalType": "uint256",
          "name": "_end",
          "type": "uint256"
        }
      ],
      "name": "copy1",
      "outputs": [],
      "stateMutability": "nonpayable",
      "type": "function"
    },
    {
      "inputs": [
        {
          "internalType": "uint256",
          "name": "_start",
          "type": "uint256"
        },
        {
          "internalType": "uint256",
          "name": "_end",
          "type": "uint256"
        }
      ],
      "name": "copy2",
      "outputs": [],
      "stateMutability": "nonpayable",
      "type": "function"
    },
    {
      "inputs": [],
      "name": "copyTest1",
      "outputs": [
        {
          "internalType": "uint256",
          "name": "",
          "type": "uint256"
        }
      ],
      "stateMutability": "view",
      "type": "function"
    },
    {
      "inputs": [],
      "name": "donationMiner",
      "outputs": [
        {
          "internalType": "contract IDonationMiner",
          "name": "",
          "type": "address"
        }
      ],
      "stateMutability": "view",
      "type": "function"
    },
    {
      "inputs": [],
      "name": "getVersion",
      "outputs": [
        {
          "internalType": "uint256",
          "name": "",
          "type": "uint256"
        }
      ],
      "stateMutability": "pure",
      "type": "function"
    },
    {
      "inputs": [
        {
          "internalType": "address",
          "name": "_cUSDAddress",
          "type": "address"
        },
        {
          "internalType": "address",
          "name": "_revenueAddress",
          "type": "address"
        }
      ],
      "name": "initialize",
      "outputs": [],
      "stateMutability": "nonpayable",
      "type": "function"
    },
    {
      "inputs": [
        {
          "internalType": "uint256",
          "name": "_index",
          "type": "uint256"
        }
      ],
      "name": "managerListAt",
      "outputs": [
        {
          "internalType": "address",
          "name": "",
          "type": "address"
        }
      ],
      "stateMutability": "view",
      "type": "function"
    },
    {
      "inputs": [],
      "name": "managerListLength",
      "outputs": [
        {
          "internalType": "uint256",
          "name": "",
          "type": "uint256"
        }
      ],
      "stateMutability": "view",
      "type": "function"
    },
    {
      "inputs": [
        {
          "internalType": "address",
          "name": "",
          "type": "address"
        }
      ],
      "name": "managers",
      "outputs": [
        {
          "internalType": "uint256",
          "name": "currentLentAmountLimit",
          "type": "uint256"
        },
        {
          "internalType": "uint256",
          "name": "currentLentAmount",
          "type": "uint256"
        }
      ],
      "stateMutability": "view",
      "type": "function"
    },
    {
      "inputs": [],
      "name": "owner",
      "outputs": [
        {
          "internalType": "address",
          "name": "",
          "type": "address"
        }
      ],
      "stateMutability": "view",
      "type": "function"
    },
    {
      "inputs": [],
      "name": "paused",
      "outputs": [
        {
          "internalType": "bool",
          "name": "",
          "type": "bool"
        }
      ],
      "stateMutability": "view",
      "type": "function"
    },
    {
      "inputs": [
        {
          "internalType": "address[]",
          "name": "_managerAddresses",
          "type": "address[]"
        }
      ],
      "name": "removeManagers",
      "outputs": [],
      "stateMutability": "nonpayable",
      "type": "function"
    },
    {
      "inputs": [],
      "name": "renounceOwnership",
      "outputs": [],
      "stateMutability": "nonpayable",
      "type": "function"
    },
    {
      "inputs": [
        {
          "internalType": "uint256",
          "name": "_loanId",
          "type": "uint256"
        },
        {
          "internalType": "uint256",
          "name": "_repaymentAmount",
          "type": "uint256"
        }
      ],
      "name": "repayLoan",
      "outputs": [],
      "stateMutability": "nonpayable",
      "type": "function"
    },
    {
      "inputs": [],
      "name": "revenueAddress",
      "outputs": [
        {
          "internalType": "address",
          "name": "",
          "type": "address"
        }
      ],
      "stateMutability": "view",
      "type": "function"
    },
    {
      "inputs": [
        {
          "internalType": "contract IERC20Upgradeable",
          "name": "_token",
          "type": "address"
        },
        {
          "internalType": "address",
          "name": "_to",
          "type": "address"
        },
        {
          "internalType": "uint256",
          "name": "_amount",
          "type": "uint256"
        }
      ],
      "name": "transferERC20",
      "outputs": [],
      "stateMutability": "nonpayable",
      "type": "function"
    },
    {
      "inputs": [
        {
          "internalType": "address",
          "name": "newOwner",
          "type": "address"
        }
      ],
      "name": "transferOwnership",
      "outputs": [],
      "stateMutability": "nonpayable",
      "type": "function"
    },
    {
      "inputs": [
        {
          "internalType": "contract IDonationMiner",
          "name": "_newDonationMiner",
          "type": "address"
        }
      ],
      "name": "updateDonationMiner",
      "outputs": [],
      "stateMutability": "nonpayable",
      "type": "function"
    },
    {
      "inputs": [
        {
          "internalType": "address",
          "name": "_newRevenueAddress",
          "type": "address"
        }
      ],
      "name": "updateRevenueAddress",
      "outputs": [],
      "stateMutability": "nonpayable",
      "type": "function"
    },
    {
      "inputs": [
        {
          "internalType": "address",
          "name": "_userAddress",
          "type": "address"
        },
        {
          "internalType": "uint256",
          "name": "_loanId",
          "type": "uint256"
        },
        {
          "internalType": "uint256",
          "name": "_repaymentId",
          "type": "uint256"
        }
      ],
      "name": "userLoanRepayments",
      "outputs": [
        {
          "internalType": "uint256",
          "name": "date",
          "type": "uint256"
        },
        {
          "internalType": "uint256",
          "name": "amount",
          "type": "uint256"
        }
      ],
      "stateMutability": "view",
      "type": "function"
    },
    {
      "inputs": [
        {
          "internalType": "address",
          "name": "_userAddress",
          "type": "address"
        },
        {
          "internalType": "uint256",
          "name": "_loanId",
          "type": "uint256"
        }
      ],
      "name": "userLoans",
      "outputs": [
        {
          "internalType": "uint256",
          "name": "amountBorrowed",
          "type": "uint256"
        },
        {
          "internalType": "uint256",
          "name": "period",
          "type": "uint256"
        },
        {
          "internalType": "uint256",
          "name": "dailyInterest",
          "type": "uint256"
        },
        {
          "internalType": "uint256",
          "name": "claimDeadline",
          "type": "uint256"
        },
        {
          "internalType": "uint256",
          "name": "startDate",
          "type": "uint256"
        },
        {
          "internalType": "uint256",
          "name": "currentDebt",
          "type": "uint256"
        },
        {
          "internalType": "uint256",
          "name": "lastComputedDebt",
          "type": "uint256"
        },
        {
          "internalType": "uint256",
          "name": "amountRepayed",
          "type": "uint256"
        },
        {
          "internalType": "uint256",
          "name": "repaymentsLength",
          "type": "uint256"
        },
        {
          "internalType": "uint256",
          "name": "lastComputedDate",
          "type": "uint256"
        },
        {
          "internalType": "address",
          "name": "managerAddress",
          "type": "address"
        }
      ],
      "stateMutability": "view",
      "type": "function"
    },
    {
      "inputs": [
        {
          "internalType": "uint256",
          "name": "_index",
          "type": "uint256"
        }
      ],
      "name": "walletListAt",
      "outputs": [
        {
          "internalType": "address",
          "name": "",
          "type": "address"
        }
      ],
      "stateMutability": "view",
      "type": "function"
    },
    {
      "inputs": [],
      "name": "walletListLength",
      "outputs": [
        {
          "internalType": "uint256",
          "name": "",
          "type": "uint256"
        }
      ],
      "stateMutability": "view",
      "type": "function"
    },
    {
      "inputs": [
        {
          "internalType": "address",
          "name": "_userAddress",
          "type": "address"
        }
      ],
      "name": "walletMetadata",
      "outputs": [
        {
          "internalType": "uint256",
          "name": "userId",
          "type": "uint256"
        },
        {
          "internalType": "address",
          "name": "movedTo",
          "type": "address"
        },
        {
          "internalType": "uint256",
          "name": "loansLength",
          "type": "uint256"
        }
      ],
      "stateMutability": "view",
      "type": "function"
    }
  ],
  "transactionHash": "0xb5c20355306bb350ca5611c2baba9b5af39da3f3a40c4885e1374ef649408779",
  "args": [],
  "numDeployments": 4,
  "solcInputHash": "8dbf6f70e440b3df60fd0799fb45c99d",
  "bytecode": "0x608060405234801561001057600080fd5b50613965806100206000396000f3fe608060405234801561001057600080fd5b50600436106101fb5760003560e01c806378d5bcc11161011a578063ba6a7787116100ad578063e36d4f3e1161007c578063e36d4f3e146104dc578063eef1b515146104ef578063f2fde38b14610502578063fdd2885914610515578063fdff9b4d1461052857600080fd5b8063ba6a77871461043f578063c89fc9a714610447578063d8bad5bd1461045a578063e0c7cf57146104c957600080fd5b80639a9cb971116100e95780639a9cb971146103f35780639db5dbe414610406578063adb9712614610419578063b410908d1461042c57600080fd5b806378d5bcc11461039457806380407735146103bc5780638a700b53146103cf5780638da5cb5b146103e257600080fd5b8063485cc9551161019257806360c4477a1161016157806360c4477a146102f95780636323f5e91461030157806368fcaf8414610379578063715018a61461038c57600080fd5b8063485cc955146102aa57806353a469b3146102bd5780635c975abb146102d05780635d916afd146102e657600080fd5b806321992a9d116101ce57806321992a9d14610269578063387d02631461027c5780633a17596b146102845780634252d7741461029757600080fd5b80630d8e6e2c1461020057806310f3ee29146102165780631f9f17661461022b5780631fccf6721461023e575b600080fd5b60015b6040519081526020015b60405180910390f35b6102296102243660046131c5565b61054f565b005b610229610239366004613590565b610651565b60c954610251906001600160a01b031681565b6040516001600160a01b03909116815260200161020d565b61022961027736600461326e565b6109f7565b610203610bd4565b610229610292366004613182565b610be5565b6102296102a5366004613590565b610c20565b6102296102b83660046130eb565b610f82565b6102296102cb366004613528565b611085565b60655460ff16604051901515815260200161020d565b6102296102f4366004613304565b611276565b61020361141e565b61035661030f3660046130b3565b6001600160a01b03908116600090815260cc6020908152604080832081518083018352815480825260019092015490951694830185905280845260cb909252909120549092565b604080519384526001600160a01b0390921660208401529082015260600161020d565b610251610387366004613528565b61142a565b61022961143d565b6103a76103a236600461314e565b611473565b6040805192835260208301919091520161020d565b6102296103ca366004613205565b61154f565b6102296103dd366004613590565b611616565b6033546001600160a01b0316610251565b6102296104013660046133ef565b611a65565b6102296104143660046134e8565b611c0c565b610251610427366004613528565b611c7c565b60d154610251906001600160a01b031681565b610203611c89565b6102296104553660046130b3565b611d49565b61046d610468366004613123565b611d95565b604080519b8c5260208c019a909a52988a01979097526060890195909552608088019390935260a087019190915260c086015260e08501526101008401526101208301526001600160a01b03166101408201526101600161020d565b6102296104d7366004613205565b611ec2565b60d354610251906001600160a01b031681565b6102296104fd3660046130eb565b61204d565b6102296105103660046130b3565b6121f2565b6102296105233660046130b3565b61228d565b6103a76105363660046130b3565b60d2602052600090815260409020805460019091015482565b6033546001600160a01b031633146105825760405162461bcd60e51b81526004016105799061376b565b60405180910390fd5b8060005b8181101561064b576105ce8484838181106105b157634e487b7160e01b600052603260045260246000fd5b90506020020160208101906105c691906130b3565b60cf906122d9565b508383828181106105ef57634e487b7160e01b600052603260045260246000fd5b905060200201602081019061060491906130b3565b6001600160a01b03167fef69f7d97228658c92417be1b16b19058315de71fecb435d07b7d23728b6bd3160405160405180910390a280610643816138d3565b915050610586565b50505050565b6033546001600160a01b0316331461067b5760405162461bcd60e51b81526004016105799061376b565b600073ea4d67c757a6f50974e7fd7b5b1cc7e7910b80bb90506000806000806000856001600160a01b03166360c4477a6040518163ffffffff1660e01b815260040160206040518083038186803b1580156106d557600080fd5b505afa1580156106e9573d6000803e3d6000fd5b505050506040513d601f19601f8201168201806040525081019061070d9190613540565b60ca81905588935090505b8683116109ed576040516356dcb89360e11b8152600481018490526001600160a01b0387169063adb971269060240160206040518083038186803b15801561075f57600080fd5b505afa158015610773573d6000803e3d6000fd5b505050506040513d601f19601f8201168201806040525081019061079791906130cf565b94506107a460cd866122f5565b506001600160a01b03858116600081815260cc6020526040908190209051636323f5e960e01b8152600481019290925291881690636323f5e99060240160606040518083038186803b1580156107f957600080fd5b505afa15801561080d573d6000803e3d6000fd5b505050506040513d601f19601f820116820180604052508101906108319190613558565b6001840180546001600160a01b0319166001600160a01b039390931692909217909155818355600091825260cb602052604082208181559096509093505b858410156109d857600084815260018201602052604090819020905163d8bad5bd60e01b81526001600160a01b038981166004830152602482018790528a169063d8bad5bd906044016101406040518083038186803b1580156108d157600080fd5b505afa1580156108e5573d6000803e3d6000fd5b505050506040513d601f19601f8201168201806040525081019061090991906135d4565b50505050506004860155600385018190556002850182905560018501839055838555604080518a81526020810195909552840192909252606083015260808201526001600160a01b038916907fdf5f35c1edc69bc65031bb54e429851779e0db0a2d5f763a0eabdd9bec9429f29060a00160405180910390a2876001600160a01b03167fba0cbe8ef8ef3c6984adc684d0c9b9a4d2d4c79b4678b63c38651fa48d21c62c866040516109bd91815260200190565b60405180910390a250836109d0816138d3565b94505061086f565b505082806109e5906138d3565b935050610718565b5050505050505050565b6033546001600160a01b03163314610a215760405162461bcd60e51b81526004016105799061376b565b8460005b818110156109ed57610a6d888883818110610a5057634e487b7160e01b600052603260045260246000fd5b9050602002016020810190610a6591906130b3565b60cf906122f5565b50600060d260008a8a85818110610a9457634e487b7160e01b600052603260045260246000fd5b9050602002016020810190610aa991906130b3565b6001600160a01b03166001600160a01b031681526020019081526020016000209050868683818110610aeb57634e487b7160e01b600052603260045260246000fd5b6020029190910135825550848483818110610b1657634e487b7160e01b600052603260045260246000fd5b6020029190910135600183015550888883818110610b4457634e487b7160e01b600052603260045260246000fd5b9050602002016020810190610b5991906130b3565b6001600160a01b03167ffae05d1286e3d4cd0db21fce06a66beb75ec586eb923fc0fcc332e69d7ad2e2f888885818110610ba357634e487b7160e01b600052603260045260246000fd5b90506020020135604051610bb991815260200190565b60405180910390a25080610bcc816138d3565b915050610a25565b6000610be060cf61230a565b905090565b610bf060cf33612314565b610c0c5760405162461bcd60e51b815260040161057990613696565b610c198585858585612336565b5050505050565b6033546001600160a01b03163314610c4a5760405162461bcd60e51b81526004016105799061376b565b73ea4d67c757a6f50974e7fd7b5b1cc7e7910b80bb600080808581805b878311610f77576040516356dcb89360e11b8152600481018490526001600160a01b0388169063adb971269060240160206040518083038186803b158015610cae57600080fd5b505afa158015610cc2573d6000803e3d6000fd5b505050506040513d601f19601f82011682018060405250810190610ce691906130cf565b604051636323f5e960e01b81526001600160a01b03808316600483015291975090881690636323f5e99060240160606040518083038186803b158015610d2b57600080fd5b505afa158015610d3f573d6000803e3d6000fd5b505050506040513d601f19601f82011682018060405250810190610d639190613558565b600083815260cb60205260408120919850929650919350505b85831015610f6457600083815260018201602052604090819020905163d8bad5bd60e01b81526001600160a01b038981166004830152602482018690528a169063d8bad5bd906044016101406040518083038186803b158015610dde57600080fd5b505afa158015610df2573d6000803e3d6000fd5b505050506040513d601f19601f82011682018060405250810190610e1691906135d4565b60098b015560078a015560068901555060058701555060009650505050505b6000848152600183016020526040902060070154831015610f515760008381526008820160205260409081902090516378d5bcc160e01b81526001600160a01b038a8116600483015260248201879052604482018690528b16906378d5bcc190606401604080518083038186803b158015610eaf57600080fd5b505afa158015610ec3573d6000803e3d6000fd5b505050506040513d601f19601f82011682018060405250810190610ee791906135b1565b600183018190558183556040805188815260208101929092528101919091526001600160a01b038a16907f36bd188317b9b3af98bbc5bfd88a0bccb96582fa2c955815ea9916dfeeb02d9e9060600160405180910390a25082610f49816138d3565b935050610e35565b5082610f5c816138d3565b935050610d7c565b5082610f6f816138d3565b935050610c67565b505050505050505050565b600054610100900460ff16610f9d5760005460ff1615610fa1565b303b155b6110045760405162461bcd60e51b815260206004820152602e60248201527f496e697469616c697a61626c653a20636f6e747261637420697320616c72656160448201526d191e481a5b9a5d1a585b1a5e995960921b6064820152608401610579565b600054610100900460ff16158015611026576000805461ffff19166101011790555b61102e612697565b6110366126ce565b61103e612705565b60c980546001600160a01b038086166001600160a01b03199283161790925560d18054928516929091169190911790558015611080576000805461ff00191690555b505050565b600260975414156110a85760405162461bcd60e51b8152600401610579906137eb565b60026097556110b73382612734565b33600090815260cc602090815260408083208151808301835281548082526001928301546001600160a01b031682860152855260cb845282852086865291820190935292206004810154919291156111215760405162461bcd60e51b81526004016105799061372a565b60038101546111725760405162461bcd60e51b815260206004820152601a60248201527f4d6963726f6372656469743a204c6f616e2063616e63656c65640000000000006044820152606401610579565b42816003015410156111c65760405162461bcd60e51b815260206004820152601960248201527f4d6963726f6372656469743a204c6f616e2065787069726564000000000000006044820152606401610579565b4260048201556002810154670de0b6b3a7640000906111e79060649061383a565b6111f990670de0b6b3a7640000613822565b8254611205919061385a565b61120f919061383a565b6005820155426009820155805460c954611236916001600160a01b0390911690339061283d565b60405184815233907fba0cbe8ef8ef3c6984adc684d0c9b9a4d2d4c79b4678b63c38651fa48d21c62c9060200160405180910390a2505060016097555050565b61128160cf33612314565b61129d5760405162461bcd60e51b815260040161057990613696565b888781146112bd5760405162461bcd60e51b8152600401610579906136da565b8086146112dc5760405162461bcd60e51b8152600401610579906136da565b8084146112fb5760405162461bcd60e51b8152600401610579906136da565b80821461131a5760405162461bcd60e51b8152600401610579906136da565b60005b81811015611410576113fe8c8c8381811061134857634e487b7160e01b600052603260045260246000fd5b905060200201602081019061135d91906130b3565b8b8b8481811061137d57634e487b7160e01b600052603260045260246000fd5b905060200201358a8a858181106113a457634e487b7160e01b600052603260045260246000fd5b905060200201358989868181106113cb57634e487b7160e01b600052603260045260246000fd5b905060200201358888878181106113f257634e487b7160e01b600052603260045260246000fd5b90506020020135612336565b80611408816138d3565b91505061131d565b505050505050505050505050565b6000610be060cd61230a565b600061143760cf836128a0565b92915050565b6033546001600160a01b031633146114675760405162461bcd60e51b81526004016105799061376b565b61147160006128ac565b565b6000806114808585612734565b6001600160a01b03808616600090815260cc602090815260408083208151808301835281548082526001928301549096168185015294845260cb83528184208985529081019092529091206007810154861061152a5760405162461bcd60e51b8152602060048201526024808201527f4d6963726f6372656469743a2052657061796d656e7420646f65736e277420656044820152631e1a5cdd60e21b6064820152608401610579565b6000958652600801602052505060409092208054600190910154909590945092505050565b61155a60cf33612314565b6115765760405162461bcd60e51b815260040161057990613696565b8281146115955760405162461bcd60e51b8152600401610579906136da565b60005b83811015610c19576116048585838181106115c357634e487b7160e01b600052603260045260246000fd5b90506020020160208101906115d891906130b3565b8484848181106115f857634e487b7160e01b600052603260045260246000fd5b905060200201356128fe565b8061160e816138d3565b915050611598565b600260975414156116395760405162461bcd60e51b8152600401610579906137eb565b60026097558061168b5760405162461bcd60e51b815260206004820152601b60248201527f4d6963726f6372656469743a20496e76616c696420616d6f756e7400000000006044820152606401610579565b6116953383612734565b33600090815260cc602090815260408083208151808301835281548082526001928301546001600160a01b031682860152855260cb84528285208786529182019093529220600481015491929161172e5760405162461bcd60e51b815260206004820152601d60248201527f4d6963726f6372656469743a204c6f616e206e6f7420636c61696d65640000006044820152606401610579565b600081600501541161179b5760405162461bcd60e51b815260206004820152603060248201527f4d6963726f6372656469743a204c6f616e2068617320616c726561647920626560448201526f195b88199d5b1b1e481c995c185e595960821b6064820152608401610579565b60006117a682612a58565b9050848110156117b4578094505b815460068301546117c6908790613822565b116118005760c9546117e3906001600160a01b0316333088612af2565b600a8201546117fb906001600160a01b031686612b2a565b6118d0565b815460068301541061182b5760d15460c9546117fb916001600160a01b039182169133911688612af2565b6006820154825460009161183e91613879565b60d1549091506001600160a01b031661186e5760c954611869906001600160a01b0316333089612af2565b6118b6565b60c954611886906001600160a01b0316333084612af2565b60d1546118b69033906001600160a01b03166118a2848a613879565b60c9546001600160a01b0316929190612af2565b600a8301546118ce906001600160a01b031682612b2a565b505b6007820180546000818152600885016020526040812092906118f1836138d3565b90915550504281556001810186905561190a8683613879565b8360050181905550858360060160008282546119269190613822565b9091555050600983015460009062015180906119429042613879565b61194c919061383a565b905061195b816201518061385a565b846009015461196a9190613822565b6009850155600584015415801561198b575060d3546001600160a01b031615155b15611a0d5760d354845460068601546001600160a01b039092169163bc4643ee916119b591613879565b6040516001600160e01b031960e084901b1681526004810191909152336024820152604401600060405180830381600087803b1580156119f457600080fd5b505af1158015611a08573d6000803e3d6000fd5b505050505b6005840154604080518a8152602081018a90529081019190915233907f36bd188317b9b3af98bbc5bfd88a0bccb96582fa2c955815ea9916dfeeb02d9e9060600160405180910390a250506001609755505050505050565b611a7060cf33612314565b611a8c5760405162461bcd60e51b815260040161057990613696565b6000611a9960cf83612314565b611af15760405162461bcd60e51b8152602060048201526024808201527f4d6963726f6372656469743a20696e76616c6964206d616e61676572206164646044820152637265737360e01b6064820152608401610579565b5060005b825181101561108057611b39838281518110611b2157634e487b7160e01b600052603260045260246000fd5b602002602001015160cd61231490919063ffffffff16565b611b935760405162461bcd60e51b815260206004820152602560248201527f4d6963726f6372656469743a20696e76616c696420626f72726f776572206164604482015264647265737360d81b6064820152608401610579565b816001600160a01b0316838281518110611bbd57634e487b7160e01b600052603260045260246000fd5b60200260200101516001600160a01b03167f605c2dbf762e5f7d60a546d42e7205dcb1b011ebc62a61736a57c9089d3a435060405160405180910390a380611c04816138d3565b915050611af5565b60026097541415611c2f5760405162461bcd60e51b8152600401610579906137eb565b60026097556033546001600160a01b03163314611c5e5760405162461bcd60e51b81526004016105799061376b565b611c726001600160a01b038416838361283d565b5050600160975550565b600061143760cd836128a0565b6033546000906001600160a01b03163314611cb65760405162461bcd60e51b81526004016105799061376b565b600073ea4d67c757a6f50974e7fd7b5b1cc7e7910b80bb90506000816001600160a01b03166360c4477a6040518163ffffffff1660e01b815260040160206040518083038186803b158015611d0a57600080fd5b505afa158015611d1e573d6000803e3d6000fd5b505050506040513d601f19601f82011682018060405250810190611d429190613540565b9250505090565b6033546001600160a01b03163314611d735760405162461bcd60e51b81526004016105799061376b565b60d380546001600160a01b0319166001600160a01b0392909216919091179055565b6000806000806000806000806000806000611db08d8d612734565b600060cc60008f6001600160a01b03166001600160a01b03168152602001908152602001600020604051806040016040529081600082015481526020016001820160009054906101000a90046001600160a01b03166001600160a01b03166001600160a01b0316815250509050600060cb60008360000151815260200190815260200160002060010160008f8152602001908152602001600020905080600001549c5080600101549b5080600201549a50806003015499508060040154985080600501549650611e7f81612a58565b975080600601549550806007015494508060090154935080600a0160009054906101000a90046001600160a01b0316925050509295989b509295989b9093969950565b6033546001600160a01b03163314611eec5760405162461bcd60e51b81526004016105799061376b565b8260005b8181101561204557611f1b868683818110610a5057634e487b7160e01b600052603260045260246000fd5b50838382818110611f3c57634e487b7160e01b600052603260045260246000fd5b9050602002013560d26000888885818110611f6757634e487b7160e01b600052603260045260246000fd5b9050602002016020810190611f7c91906130b3565b6001600160a01b03168152602081019190915260400160002055858582818110611fb657634e487b7160e01b600052603260045260246000fd5b9050602002016020810190611fcb91906130b3565b6001600160a01b03167ffae05d1286e3d4cd0db21fce06a66beb75ec586eb923fc0fcc332e69d7ad2e2f85858481811061201557634e487b7160e01b600052603260045260246000fd5b9050602002013560405161202b91815260200190565b60405180910390a28061203d816138d3565b915050611ef0565b505050505050565b61205860cf33612314565b6120745760405162461bcd60e51b815260040161057990613696565b6001600160a01b038216600090815260cc602052604090208054158015906120a7575060018101546001600160a01b0316155b6121025760405162461bcd60e51b815260206004820152602660248201527f4d6963726f6372656469743a205468697320757365722063616e6e6f74206265604482015265081b5bdd995960d21b6064820152608401610579565b6001600160a01b038216600090815260cc6020526040902080541561217f5760405162461bcd60e51b815260206004820152602d60248201527f4d6963726f6372656469743a205461726765742077616c6c657420616464726560448201526c1cdcc81a5cc81a5b9d985b1a59609a1b6064820152608401610579565b6001820180546001600160a01b0319166001600160a01b038516179055815481556121ab60cd846122f5565b50826001600160a01b0316846001600160a01b03167ffe697da51e9b8089b3ac92361b06886b93f48f935848aa4da1148c15b262840a60405160405180910390a350505050565b6033546001600160a01b0316331461221c5760405162461bcd60e51b81526004016105799061376b565b6001600160a01b0381166122815760405162461bcd60e51b815260206004820152602660248201527f4f776e61626c653a206e6577206f776e657220697320746865207a65726f206160448201526564647265737360d01b6064820152608401610579565b61228a816128ac565b50565b6033546001600160a01b031633146122b75760405162461bcd60e51b81526004016105799061376b565b60d180546001600160a01b0319166001600160a01b0392909216919091179055565b60006122ee836001600160a01b038416612bb3565b9392505050565b60006122ee836001600160a01b038416612cd0565b6000611437825490565b6001600160a01b038116600090815260018301602052604081205415156122ee565b4281116123905760405162461bcd60e51b815260206004820152602260248201527f4d6963726f6372656469743a20696e76616c696420636c61696d446561646c696044820152616e6560f01b6064820152608401610579565b6001600160a01b03808616600090815260cc6020526040902060018101549091161561240a5760405162461bcd60e51b8152602060048201526024808201527f4d6963726f6372656469743a20546865207573657220686173206265656e206d6044820152631bdd995960e21b6064820152608401610579565b33600090815260d2602052604090208054600182015461242b908890613822565b11156124aa5760405162461bcd60e51b815260206004820152604260248201527f4d6963726f6372656469743a204d616e6167657220646f6e277420686176652060448201527f656e6f7567682066756e647320746f20626f72726f77207468697320616d6f756064820152611b9d60f21b608482015260a401610579565b81546124d75760ca80549060006124c0836138d3565b909155505060ca5482556124d560cd886122f5565b505b8154600090815260cb60205260409020805480156125b95760008260010160006001846125049190613879565b815260200190815260200160002090506000816004015411801561252a57506005810154155b80612545575060048101541580156125455750428160030154105b8061255257506003810154155b6125b75760405162461bcd60e51b815260206004820152603060248201527f4d6963726f6372656469743a20546865207573657220616c726561647920686160448201526f399030b71030b1ba34bb32903637b0b760811b6064820152608401610579565b505b815460008181526001840160205260408120919084906125d8836138d3565b909155505088815560018082018990556002820188905560038201879055600a820180546001600160a01b03191633179055840180548a919060009061261f908490613822565b909155505082546001600160a01b038b16907fdf5f35c1edc69bc65031bb54e429851779e0db0a2d5f763a0eabdd9bec9429f29061265f90600190613879565b60408051918252602082018d905281018b9052606081018a90526080810189905260a00160405180910390a250505050505050505050565b600054610100900460ff166126be5760405162461bcd60e51b8152600401610579906137a0565b6126c6612d1f565b611471612d46565b600054610100900460ff166126f55760405162461bcd60e51b8152600401610579906137a0565b6126fd612d1f565b611471612d76565b600054610100900460ff1661272c5760405162461bcd60e51b8152600401610579906137a0565b611471612da9565b6001600160a01b03808316600090815260cc602090815260409182902082518084019093528054808452600190910154909316908201529015801590612785575060208101516001600160a01b0316155b6127dd5760405162461bcd60e51b815260206004820152602360248201527f4d6963726f6372656469743a20496e76616c69642077616c6c6574206164647260448201526265737360e81b6064820152608401610579565b8051600090815260cb602052604090208054831061064b5760405162461bcd60e51b815260206004820152601f60248201527f4d6963726f6372656469743a204c6f616e20646f65736e2774206578697374006044820152606401610579565b6040516001600160a01b03831660248201526044810182905261108090849063a9059cbb60e01b906064015b60408051601f198184030181529190526020810180516001600160e01b03166001600160e01b031990931692909217909152612dd7565b60006122ee8383612ea9565b603380546001600160a01b038381166001600160a01b0319831681179093556040519116919082907f8be0079c531659141344cd1fd0a4f28419497f9722a3daafe3b4186f6b6457e090600090a35050565b6129088282612734565b6001600160a01b03808316600090815260cc602090815260408083208151808301835281548082526001928301549096168185015294845260cb83528184208685529081019092529091206004810154156129755760405162461bcd60e51b81526004016105799061372a565b60038101546129d15760405162461bcd60e51b815260206004820152602260248201527f4d6963726f6372656469743a204c6f616e20616c72656164792063616e63656c604482015261195960f21b6064820152608401610579565b600060038201819055600a8201546001600160a01b0316815260d260205260408120825460018201805492939192909190612a0d908490613879565b90915550506040518581526001600160a01b038716907f2f0f5933c0b9b1d9fee69327e7789ce07ef1be486122748fc2a079742067a8089060200160405180910390a2505050505050565b6000816005015460001415612a6f57506000919050565b600062015180836009015442612a859190613879565b612a8f919061383a565b60058401549091505b81156122ee57670de0b6b3a764000060648560020154612ab8919061383a565b612aca90670de0b6b3a7640000613822565b612ad4908361385a565b612ade919061383a565b905081612aea816138bc565b925050612a98565b6040516001600160a01b038085166024830152831660448201526064810182905261064b9085906323b872dd60e01b90608401612869565b6001600160a01b03821615612baf576001600160a01b038216600090815260d26020526040902060010154811015612b92576001600160a01b038216600090815260d2602052604081206001018054839290612b87908490613879565b90915550612baf9050565b6001600160a01b038216600090815260d260205260408120600101555b5050565b60008181526001830160205260408120548015612cc6576000612bd7600183613879565b8554909150600090612beb90600190613879565b9050818114612c6c576000866000018281548110612c1957634e487b7160e01b600052603260045260246000fd5b9060005260206000200154905080876000018481548110612c4a57634e487b7160e01b600052603260045260246000fd5b6000918252602080832090910192909255918252600188019052604090208390555b8554869080612c8b57634e487b7160e01b600052603160045260246000fd5b600190038181906000526020600020016000905590558560010160008681526020019081526020016000206000905560019350505050611437565b6000915050611437565b6000818152600183016020526040812054612d1757508154600181810184556000848152602080822090930184905584548482528286019093526040902091909155611437565b506000611437565b600054610100900460ff166114715760405162461bcd60e51b8152600401610579906137a0565b600054610100900460ff16612d6d5760405162461bcd60e51b8152600401610579906137a0565b611471336128ac565b600054610100900460ff16612d9d5760405162461bcd60e51b8152600401610579906137a0565b6065805460ff19169055565b600054610100900460ff16612dd05760405162461bcd60e51b8152600401610579906137a0565b6001609755565b6000612e2c826040518060400160405280602081526020017f5361666545524332303a206c6f772d6c6576656c2063616c6c206661696c6564815250856001600160a01b0316612ee19092919063ffffffff16565b8051909150156110805780806020019051810190612e4a91906134c8565b6110805760405162461bcd60e51b815260206004820152602a60248201527f5361666545524332303a204552433230206f7065726174696f6e20646964206e6044820152691bdd081cdd58d8d9595960b21b6064820152608401610579565b6000826000018281548110612ece57634e487b7160e01b600052603260045260246000fd5b9060005260206000200154905092915050565b6060612ef08484600085612ef8565b949350505050565b606082471015612f595760405162461bcd60e51b815260206004820152602660248201527f416464726573733a20696e73756666696369656e742062616c616e636520666f6044820152651c8818d85b1b60d21b6064820152608401610579565b843b612fa75760405162461bcd60e51b815260206004820152601d60248201527f416464726573733a2063616c6c20746f206e6f6e2d636f6e74726163740000006044820152606401610579565b600080866001600160a01b03168587604051612fc39190613647565b60006040518083038185875af1925050503d8060008114613000576040519150601f19603f3d011682016040523d82523d6000602084013e613005565b606091505b5091509150613015828286613020565b979650505050505050565b6060831561302f5750816122ee565b82511561303f5782518084602001fd5b8160405162461bcd60e51b81526004016105799190613663565b80356130648161391a565b919050565b60008083601f84011261307a578081fd5b50813567ffffffffffffffff811115613091578182fd5b6020830191508360208260051b85010111156130ac57600080fd5b9250929050565b6000602082840312156130c4578081fd5b81356122ee8161391a565b6000602082840312156130e0578081fd5b81516122ee8161391a565b600080604083850312156130fd578081fd5b82356131088161391a565b915060208301356131188161391a565b809150509250929050565b60008060408385031215613135578182fd5b82356131408161391a565b946020939093013593505050565b600080600060608486031215613162578081fd5b833561316d8161391a565b95602085013595506040909401359392505050565b600080600080600060a08688031215613199578081fd5b85356131a48161391a565b97602087013597506040870135966060810135965060800135945092505050565b600080602083850312156131d7578182fd5b823567ffffffffffffffff8111156131ed578283fd5b6131f985828601613069565b90969095509350505050565b6000806000806040858703121561321a578384fd5b843567ffffffffffffffff80821115613231578586fd5b61323d88838901613069565b90965094506020870135915080821115613255578384fd5b5061326287828801613069565b95989497509550505050565b60008060008060008060608789031215613286578081fd5b863567ffffffffffffffff8082111561329d578283fd5b6132a98a838b01613069565b909850965060208901359150808211156132c1578283fd5b6132cd8a838b01613069565b909650945060408901359150808211156132e5578283fd5b506132f289828a01613069565b979a9699509497509295939492505050565b60008060008060008060008060008060a08b8d031215613322578384fd5b8a3567ffffffffffffffff80821115613339578586fd5b6133458e838f01613069565b909c509a5060208d013591508082111561335d578586fd5b6133698e838f01613069565b909a50985060408d0135915080821115613381578586fd5b61338d8e838f01613069565b909850965060608d01359150808211156133a5578586fd5b6133b18e838f01613069565b909650945060808d01359150808211156133c9578384fd5b506133d68d828e01613069565b915080935050809150509295989b9194979a5092959850565b60008060408385031215613401578182fd5b823567ffffffffffffffff80821115613418578384fd5b818501915085601f83011261342b578384fd5b813560208282111561343f5761343f613904565b8160051b604051601f19603f8301168101818110868211171561346457613464613904565b604052838152828101945085830182870184018b1015613482578889fd5b8896505b848710156134ab5761349781613059565b865260019690960195948301948301613486565b5096506134bb9050878201613059565b9450505050509250929050565b6000602082840312156134d9578081fd5b815180151581146122ee578182fd5b6000806000606084860312156134fc578081fd5b83356135078161391a565b925060208401356135178161391a565b929592945050506040919091013590565b600060208284031215613539578081fd5b5035919050565b600060208284031215613551578081fd5b5051919050565b60008060006060848603121561356c578081fd5b83519250602084015161357e8161391a565b80925050604084015190509250925092565b600080604083850312156135a2578182fd5b50508035926020909101359150565b600080604083850312156135c3578182fd5b505080516020909101519092909150565b6000806000806000806000806000806101408b8d0312156135f3578384fd5b8a51995060208b0151985060408b0151975060608b0151965060808b0151955060a08b0151945060c08b0151935060e08b015192506101008b015191506101208b015190509295989b9194979a5092959850565b60008251613659818460208701613890565b9190910192915050565b6020815260008251806020840152613682816040850160208701613890565b601f01601f19169190910160400192915050565b60208082526024908201527f4d6963726f6372656469743a2063616c6c6572206973206e6f742061206d616e60408201526330b3b2b960e11b606082015260800190565b60208082526030908201527f4d6963726f6372656469743a2063616c6c6461746120696e666f726d6174696f60408201526f0dc40c2e4d2e8f240dad2e6dac2e8c6d60831b606082015260800190565b60208082526021908201527f4d6963726f6372656469743a204c6f616e20616c726561647920636c61696d656040820152601960fa1b606082015260800190565b6020808252818101527f4f776e61626c653a2063616c6c6572206973206e6f7420746865206f776e6572604082015260600190565b6020808252602b908201527f496e697469616c697a61626c653a20636f6e7472616374206973206e6f74206960408201526a6e697469616c697a696e6760a81b606082015260800190565b6020808252601f908201527f5265656e7472616e637947756172643a207265656e7472616e742063616c6c00604082015260600190565b60008219821115613835576138356138ee565b500190565b60008261385557634e487b7160e01b81526012600452602481fd5b500490565b6000816000190483118215151615613874576138746138ee565b500290565b60008282101561388b5761388b6138ee565b500390565b60005b838110156138ab578181015183820152602001613893565b8381111561064b5750506000910152565b6000816138cb576138cb6138ee565b506000190190565b60006000198214156138e7576138e76138ee565b5060010190565b634e487b7160e01b600052601160045260246000fd5b634e487b7160e01b600052604160045260246000fd5b6001600160a01b038116811461228a57600080fdfea26469706673582212208ad9b2c21bb5ff9ec4abbe1f3a794f6839221e51e3bb8f2361c41970f5abb43764736f6c63430008040033",
  "devdoc": {
    "events": {
      "ManagerChanged(address,address)": {
        "params": {
          "borrowerAddress": "The address of the borrower",
          "managerAddress": "The address of the new manager"
        }
      }
    },
    "kind": "dev",
    "methods": {
      "addLoan(address,uint256,uint256,uint256,uint256)": {
        "params": {
          "_amount": "amount of the loan",
          "_claimDeadline": "claim deadline of the loan",
          "_dailyInterest": "daily interest of the loan",
          "_period": "period of the loan",
          "_userAddress": "address of the user"
        }
      },
      "addLoans(address[],uint256[],uint256[],uint256[],uint256[])": {
        "params": {
          "_amounts": "amounts of the loan",
          "_claimDeadlines": "claim deadlines of the loan",
          "_dailyInterests": "daily interests of the loan",
          "_periods": "periods of the loan",
          "_userAddresses": "addresses of the user"
        }
      },
      "addManagers(address[],uint256[])": {
        "params": {
          "_managerAddresses": "addresses of the managers"
        }
      },
      "cancelLoans(address[],uint256[])": {
        "params": {
          "_loansIds": "Loan ids",
          "_userAddresses": "User addresses"
        }
      },
      "changeManager(address[],address)": {
        "details": "This method doesn't change anything on the contract state, it just emits events to be used by the off-chain system",
        "params": {
          "_borrowerAddresses": "address of the borrowers",
          "_managerAddress": "address of the new manager"
        }
      },
      "changeUserAddress(address,address)": {
        "params": {
          "_newWalletAddress": "New wallet address",
          "_oldWalletAddress": "Old wallet address"
        }
      },
      "claimLoan(uint256)": {
        "params": {
          "_loanId": "Loan ID"
        }
      },
      "initialize(address,address)": {
        "params": {
          "_cUSDAddress": "The address of the cUSD token",
          "_revenueAddress": "The address that collects all the interest"
        }
      },
      "managerListAt(uint256)": {
        "params": {
          "_index": "index value"
        },
        "returns": {
          "_0": "address of the manager"
        }
      },
      "owner()": {
        "details": "Returns the address of the current owner."
      },
      "paused()": {
        "details": "Returns true if the contract is paused, and false otherwise."
      },
      "removeManagers(address[])": {
        "params": {
          "_managerAddresses": "addresses of the managers"
        }
      },
      "renounceOwnership()": {
        "details": "Leaves the contract without owner. It will not be possible to call `onlyOwner` functions anymore. Can only be called by the current owner. NOTE: Renouncing ownership will leave the contract without an owner, thereby removing any functionality that is only available to the owner."
      },
      "repayLoan(uint256,uint256)": {
        "params": {
          "_loanId": "Loan ID",
          "_repaymentAmount": "Repayment amount"
        }
      },
      "transferERC20(address,address,uint256)": {
        "params": {
          "_amount": "amount of the transaction",
          "_to": "address of the receiver",
          "_token": "address of the ERC20 token"
        }
      },
      "transferOwnership(address)": {
        "details": "Transfers ownership of the contract to a new account (`newOwner`). Can only be called by the current owner."
      },
      "walletListAt(uint256)": {
        "params": {
          "_index": "index value"
        },
        "returns": {
          "_0": "address of the user"
        }
      },
      "walletMetadata(address)": {
        "params": {
          "_userAddress": "address of the user"
        },
        "returns": {
          "loansLength": "          the number of the user's loans",
          "movedTo": "              the number of the user's loans",
          "userId": "               the userId"
        }
      }
    },
    "version": 1
  },
  "userdoc": {
    "events": {
      "ManagerChanged(address,address)": {
        "notice": "Triggered when a borrower's manager has been changed"
      }
    },
    "kind": "user",
    "methods": {
      "addLoan(address,uint256,uint256,uint256,uint256)": {
        "notice": "Adds a loan"
      },
      "addLoans(address[],uint256[],uint256[],uint256[],uint256[])": {
        "notice": "Adds multiples loans"
      },
      "addManagers(address[],uint256[])": {
        "notice": "Adds managers"
      },
      "cancelLoans(address[],uint256[])": {
        "notice": "Cancel a loan"
      },
      "changeManager(address[],address)": {
        "notice": "Changes the borrowers manager address"
      },
      "changeUserAddress(address,address)": {
        "notice": "Change user address"
      },
      "claimLoan(uint256)": {
        "notice": "Claim a loan"
      },
      "getVersion()": {
        "notice": "Returns the current implementation version"
      },
      "initialize(address,address)": {
        "notice": "Used to initialize the Microcredit contract"
      },
      "managerListAt(uint256)": {
        "notice": "Returns an address from the managerList"
      },
      "managerListLength()": {
        "notice": "Returns the length of the managerList"
      },
      "removeManagers(address[])": {
        "notice": "Removes managers"
      },
      "repayLoan(uint256,uint256)": {
        "notice": "Repay a loan"
      },
      "transferERC20(address,address,uint256)": {
        "notice": "Transfers an amount of an ERC20 from this contract to an address"
      },
      "walletListAt(uint256)": {
        "notice": "Returns an address from the walletList"
      },
      "walletListLength()": {
        "notice": "Returns the length of the walletList"
      },
      "walletMetadata(address)": {
        "notice": "Returns the information of a user"
      }
    },
    "version": 1
  },
  "storageLayout": {
    "storage": [
      {
        "astId": 542,
        "contract": "contracts/microcredit/MicrocreditImplementation.sol:MicrocreditImplementation",
        "label": "_initialized",
        "offset": 0,
        "slot": "0",
        "type": "t_bool"
      },
      {
        "astId": 545,
        "contract": "contracts/microcredit/MicrocreditImplementation.sol:MicrocreditImplementation",
        "label": "_initializing",
        "offset": 1,
        "slot": "0",
        "type": "t_bool"
      },
      {
        "astId": 1370,
        "contract": "contracts/microcredit/MicrocreditImplementation.sol:MicrocreditImplementation",
        "label": "__gap",
        "offset": 0,
        "slot": "1",
        "type": "t_array(t_uint256)50_storage"
      },
      {
        "astId": 420,
        "contract": "contracts/microcredit/MicrocreditImplementation.sol:MicrocreditImplementation",
        "label": "_owner",
        "offset": 0,
        "slot": "51",
        "type": "t_address"
      },
      {
        "astId": 534,
        "contract": "contracts/microcredit/MicrocreditImplementation.sol:MicrocreditImplementation",
        "label": "__gap",
        "offset": 0,
        "slot": "52",
        "type": "t_array(t_uint256)49_storage"
      },
      {
        "astId": 630,
        "contract": "contracts/microcredit/MicrocreditImplementation.sol:MicrocreditImplementation",
        "label": "_paused",
        "offset": 0,
        "slot": "101",
        "type": "t_bool"
      },
      {
        "astId": 721,
        "contract": "contracts/microcredit/MicrocreditImplementation.sol:MicrocreditImplementation",
        "label": "__gap",
        "offset": 0,
        "slot": "102",
        "type": "t_array(t_uint256)49_storage"
      },
      {
        "astId": 736,
        "contract": "contracts/microcredit/MicrocreditImplementation.sol:MicrocreditImplementation",
        "label": "_status",
        "offset": 0,
        "slot": "151",
        "type": "t_uint256"
      },
      {
        "astId": 779,
        "contract": "contracts/microcredit/MicrocreditImplementation.sol:MicrocreditImplementation",
        "label": "__gap",
        "offset": 0,
        "slot": "152",
        "type": "t_array(t_uint256)49_storage"
      },
      {
        "astId": 26249,
        "contract": "contracts/microcredit/MicrocreditImplementation.sol:MicrocreditImplementation",
        "label": "cUSD",
        "offset": 0,
        "slot": "201",
        "type": "t_contract(IERC20Upgradeable)858"
      },
      {
        "astId": 26251,
        "contract": "contracts/microcredit/MicrocreditImplementation.sol:MicrocreditImplementation",
        "label": "_usersLength",
        "offset": 0,
        "slot": "202",
        "type": "t_uint256"
      },
      {
        "astId": 26256,
        "contract": "contracts/microcredit/MicrocreditImplementation.sol:MicrocreditImplementation",
        "label": "_users",
        "offset": 0,
        "slot": "203",
        "type": "t_mapping(t_uint256,t_struct(User)25875_storage)"
      },
      {
        "astId": 26261,
        "contract": "contracts/microcredit/MicrocreditImplementation.sol:MicrocreditImplementation",
        "label": "_walletMetadata",
        "offset": 0,
        "slot": "204",
        "type": "t_mapping(t_address,t_struct(WalletMetadata)25867_storage)"
      },
      {
        "astId": 26264,
        "contract": "contracts/microcredit/MicrocreditImplementation.sol:MicrocreditImplementation",
        "label": "_walletList",
        "offset": 0,
        "slot": "205",
        "type": "t_struct(AddressSet)5505_storage"
      },
      {
        "astId": 26267,
        "contract": "contracts/microcredit/MicrocreditImplementation.sol:MicrocreditImplementation",
        "label": "_managerList",
        "offset": 0,
        "slot": "207",
        "type": "t_struct(AddressSet)5505_storage"
      },
      {
        "astId": 26270,
        "contract": "contracts/microcredit/MicrocreditImplementation.sol:MicrocreditImplementation",
        "label": "revenueAddress",
        "offset": 0,
        "slot": "209",
        "type": "t_address"
      },
      {
        "astId": 26276,
        "contract": "contracts/microcredit/MicrocreditImplementation.sol:MicrocreditImplementation",
        "label": "managers",
        "offset": 0,
        "slot": "210",
        "type": "t_mapping(t_address,t_struct(Manager)25880_storage)"
      },
      {
        "astId": 26280,
        "contract": "contracts/microcredit/MicrocreditImplementation.sol:MicrocreditImplementation",
        "label": "donationMiner",
        "offset": 0,
        "slot": "211",
        "type": "t_contract(IDonationMiner)18469"
      }
    ],
    "types": {
      "t_address": {
        "encoding": "inplace",
        "label": "address",
        "numberOfBytes": "20"
      },
      "t_array(t_bytes32)dyn_storage": {
        "base": "t_bytes32",
        "encoding": "dynamic_array",
        "label": "bytes32[]",
        "numberOfBytes": "32"
      },
      "t_array(t_uint256)49_storage": {
        "base": "t_uint256",
        "encoding": "inplace",
        "label": "uint256[49]",
        "numberOfBytes": "1568"
      },
      "t_array(t_uint256)50_storage": {
        "base": "t_uint256",
        "encoding": "inplace",
        "label": "uint256[50]",
        "numberOfBytes": "1600"
      },
      "t_bool": {
        "encoding": "inplace",
        "label": "bool",
        "numberOfBytes": "1"
      },
      "t_bytes32": {
        "encoding": "inplace",
        "label": "bytes32",
        "numberOfBytes": "32"
      },
      "t_contract(IDonationMiner)18469": {
        "encoding": "inplace",
        "label": "contract IDonationMiner",
        "numberOfBytes": "20"
      },
      "t_contract(IERC20Upgradeable)858": {
        "encoding": "inplace",
        "label": "contract IERC20Upgradeable",
        "numberOfBytes": "20"
      },
      "t_mapping(t_address,t_struct(Manager)25880_storage)": {
        "encoding": "mapping",
        "key": "t_address",
        "label": "mapping(address => struct IMicrocredit.Manager)",
        "numberOfBytes": "32",
        "value": "t_struct(Manager)25880_storage"
      },
      "t_mapping(t_address,t_struct(WalletMetadata)25867_storage)": {
        "encoding": "mapping",
        "key": "t_address",
        "label": "mapping(address => struct IMicrocredit.WalletMetadata)",
        "numberOfBytes": "32",
        "value": "t_struct(WalletMetadata)25867_storage"
      },
      "t_mapping(t_bytes32,t_uint256)": {
        "encoding": "mapping",
        "key": "t_bytes32",
        "label": "mapping(bytes32 => uint256)",
        "numberOfBytes": "32",
        "value": "t_uint256"
      },
      "t_mapping(t_uint256,t_struct(Loan)25911_storage)": {
        "encoding": "mapping",
        "key": "t_uint256",
        "label": "mapping(uint256 => struct IMicrocredit.Loan)",
        "numberOfBytes": "32",
        "value": "t_struct(Loan)25911_storage"
      },
      "t_mapping(t_uint256,t_struct(Repayment)25885_storage)": {
        "encoding": "mapping",
        "key": "t_uint256",
        "label": "mapping(uint256 => struct IMicrocredit.Repayment)",
        "numberOfBytes": "32",
        "value": "t_struct(Repayment)25885_storage"
      },
      "t_mapping(t_uint256,t_struct(User)25875_storage)": {
        "encoding": "mapping",
        "key": "t_uint256",
        "label": "mapping(uint256 => struct IMicrocredit.User)",
        "numberOfBytes": "32",
        "value": "t_struct(User)25875_storage"
      },
      "t_struct(AddressSet)5505_storage": {
        "encoding": "inplace",
        "label": "struct EnumerableSet.AddressSet",
        "members": [
          {
            "astId": 5504,
            "contract": "contracts/microcredit/MicrocreditImplementation.sol:MicrocreditImplementation",
            "label": "_inner",
            "offset": 0,
            "slot": "0",
            "type": "t_struct(Set)5204_storage"
          }
        ],
        "numberOfBytes": "64"
      },
      "t_struct(Loan)25911_storage": {
        "encoding": "inplace",
        "label": "struct IMicrocredit.Loan",
        "members": [
          {
            "astId": 25887,
            "contract": "contracts/microcredit/MicrocreditImplementation.sol:MicrocreditImplementation",
            "label": "amountBorrowed",
            "offset": 0,
            "slot": "0",
            "type": "t_uint256"
          },
          {
            "astId": 25889,
            "contract": "contracts/microcredit/MicrocreditImplementation.sol:MicrocreditImplementation",
            "label": "period",
            "offset": 0,
            "slot": "1",
            "type": "t_uint256"
          },
          {
            "astId": 25891,
            "contract": "contracts/microcredit/MicrocreditImplementation.sol:MicrocreditImplementation",
            "label": "dailyInterest",
            "offset": 0,
            "slot": "2",
            "type": "t_uint256"
          },
          {
            "astId": 25893,
            "contract": "contracts/microcredit/MicrocreditImplementation.sol:MicrocreditImplementation",
            "label": "claimDeadline",
            "offset": 0,
            "slot": "3",
            "type": "t_uint256"
          },
          {
            "astId": 25895,
            "contract": "contracts/microcredit/MicrocreditImplementation.sol:MicrocreditImplementation",
            "label": "startDate",
            "offset": 0,
            "slot": "4",
            "type": "t_uint256"
          },
          {
            "astId": 25897,
            "contract": "contracts/microcredit/MicrocreditImplementation.sol:MicrocreditImplementation",
            "label": "lastComputedDebt",
            "offset": 0,
            "slot": "5",
            "type": "t_uint256"
          },
          {
            "astId": 25899,
            "contract": "contracts/microcredit/MicrocreditImplementation.sol:MicrocreditImplementation",
            "label": "amountRepayed",
            "offset": 0,
            "slot": "6",
            "type": "t_uint256"
          },
          {
            "astId": 25901,
            "contract": "contracts/microcredit/MicrocreditImplementation.sol:MicrocreditImplementation",
            "label": "repaymentsLength",
            "offset": 0,
            "slot": "7",
            "type": "t_uint256"
          },
          {
            "astId": 25906,
            "contract": "contracts/microcredit/MicrocreditImplementation.sol:MicrocreditImplementation",
            "label": "repayments",
            "offset": 0,
            "slot": "8",
            "type": "t_mapping(t_uint256,t_struct(Repayment)25885_storage)"
          },
          {
            "astId": 25908,
            "contract": "contracts/microcredit/MicrocreditImplementation.sol:MicrocreditImplementation",
            "label": "lastComputedDate",
            "offset": 0,
            "slot": "9",
            "type": "t_uint256"
          },
          {
            "astId": 25910,
            "contract": "contracts/microcredit/MicrocreditImplementation.sol:MicrocreditImplementation",
            "label": "managerAddress",
            "offset": 0,
            "slot": "10",
            "type": "t_address"
          }
        ],
        "numberOfBytes": "352"
      },
      "t_struct(Manager)25880_storage": {
        "encoding": "inplace",
        "label": "struct IMicrocredit.Manager",
        "members": [
          {
            "astId": 25877,
            "contract": "contracts/microcredit/MicrocreditImplementation.sol:MicrocreditImplementation",
            "label": "currentLentAmountLimit",
            "offset": 0,
            "slot": "0",
            "type": "t_uint256"
          },
          {
            "astId": 25879,
            "contract": "contracts/microcredit/MicrocreditImplementation.sol:MicrocreditImplementation",
            "label": "currentLentAmount",
            "offset": 0,
            "slot": "1",
            "type": "t_uint256"
          }
        ],
        "numberOfBytes": "64"
      },
      "t_struct(Repayment)25885_storage": {
        "encoding": "inplace",
        "label": "struct IMicrocredit.Repayment",
        "members": [
          {
            "astId": 25882,
            "contract": "contracts/microcredit/MicrocreditImplementation.sol:MicrocreditImplementation",
            "label": "date",
            "offset": 0,
            "slot": "0",
            "type": "t_uint256"
          },
          {
            "astId": 25884,
            "contract": "contracts/microcredit/MicrocreditImplementation.sol:MicrocreditImplementation",
            "label": "amount",
            "offset": 0,
            "slot": "1",
            "type": "t_uint256"
          }
        ],
        "numberOfBytes": "64"
      },
      "t_struct(Set)5204_storage": {
        "encoding": "inplace",
        "label": "struct EnumerableSet.Set",
        "members": [
          {
            "astId": 5199,
            "contract": "contracts/microcredit/MicrocreditImplementation.sol:MicrocreditImplementation",
            "label": "_values",
            "offset": 0,
            "slot": "0",
            "type": "t_array(t_bytes32)dyn_storage"
          },
          {
            "astId": 5203,
            "contract": "contracts/microcredit/MicrocreditImplementation.sol:MicrocreditImplementation",
            "label": "_indexes",
            "offset": 0,
            "slot": "1",
            "type": "t_mapping(t_bytes32,t_uint256)"
          }
        ],
        "numberOfBytes": "64"
      },
      "t_struct(User)25875_storage": {
        "encoding": "inplace",
        "label": "struct IMicrocredit.User",
        "members": [
          {
            "astId": 25869,
            "contract": "contracts/microcredit/MicrocreditImplementation.sol:MicrocreditImplementation",
            "label": "loansLength",
            "offset": 0,
            "slot": "0",
            "type": "t_uint256"
          },
          {
            "astId": 25874,
            "contract": "contracts/microcredit/MicrocreditImplementation.sol:MicrocreditImplementation",
            "label": "loans",
            "offset": 0,
            "slot": "1",
            "type": "t_mapping(t_uint256,t_struct(Loan)25911_storage)"
          }
        ],
        "numberOfBytes": "64"
      },
      "t_struct(WalletMetadata)25867_storage": {
        "encoding": "inplace",
        "label": "struct IMicrocredit.WalletMetadata",
        "members": [
          {
            "astId": 25864,
            "contract": "contracts/microcredit/MicrocreditImplementation.sol:MicrocreditImplementation",
            "label": "userId",
            "offset": 0,
            "slot": "0",
            "type": "t_uint256"
          },
          {
            "astId": 25866,
            "contract": "contracts/microcredit/MicrocreditImplementation.sol:MicrocreditImplementation",
            "label": "movedTo",
            "offset": 0,
            "slot": "1",
            "type": "t_address"
          }
        ],
        "numberOfBytes": "64"
      },
      "t_uint256": {
        "encoding": "inplace",
        "label": "uint256",
        "numberOfBytes": "32"
      }
    }
  }
}