{
  "address": "0x7b560A22D69A4f92836c5bb416Abd9C6D30779e0",
  "abi": [
    {
      "anonymous": false,
      "inputs": [
        {
          "indexed": true,
          "internalType": "address",
          "name": "userAddress",
          "type": "address"
        },
        {
          "indexed": true,
          "internalType": "address",
          "name": "tokenAddress",
          "type": "address"
        },
        {
          "indexed": false,
          "internalType": "uint256",
          "name": "loanId",
          "type": "uint256"
        },
        {
          "indexed": false,
          "internalType": "uint256",
          "name": "amount",
          "type": "uint256"
        },
        {
          "indexed": false,
          "internalType": "uint256",
          "name": "period",
          "type": "uint256"
        },
        {
          "indexed": false,
          "internalType": "uint256",
          "name": "dailyInterest",
          "type": "uint256"
        },
        {
          "indexed": false,
          "internalType": "uint256",
          "name": "claimDeadline",
          "type": "uint256"
        }
      ],
      "name": "LoanAdded",
      "type": "event"
    },
    {
      "anonymous": false,
      "inputs": [
        {
          "indexed": true,
          "internalType": "address",
          "name": "userAddress",
          "type": "address"
        },
        {
          "indexed": false,
          "internalType": "uint256",
          "name": "loanId",
          "type": "uint256"
        }
      ],
      "name": "LoanCanceled",
      "type": "event"
    },
    {
      "anonymous": false,
      "inputs": [
        {
          "indexed": true,
          "internalType": "address",
          "name": "userAddress",
          "type": "address"
        },
        {
          "indexed": false,
          "internalType": "uint256",
          "name": "loanId",
          "type": "uint256"
        }
      ],
      "name": "LoanClaimed",
      "type": "event"
    },
    {
      "anonymous": false,
      "inputs": [
        {
          "indexed": true,
          "internalType": "address",
          "name": "_userAddress",
          "type": "address"
        },
        {
          "indexed": false,
          "internalType": "uint256",
          "name": "_loanId",
          "type": "uint256"
        },
        {
          "indexed": false,
          "internalType": "uint256",
          "name": "_newPeriod",
          "type": "uint256"
        },
        {
          "indexed": false,
          "internalType": "uint256",
          "name": "_newClaimDeadline",
          "type": "uint256"
        },
        {
          "indexed": false,
          "internalType": "uint256",
          "name": "_newDailyInterest",
          "type": "uint256"
        },
        {
          "indexed": false,
          "internalType": "uint256",
          "name": "_newLastComputedDebt",
          "type": "uint256"
        },
        {
          "indexed": false,
          "internalType": "uint256",
          "name": "_newLastComputedDate",
          "type": "uint256"
        }
      ],
      "name": "LoanEdited",
      "type": "event"
    },
    {
      "anonymous": false,
      "inputs": [
        {
          "indexed": true,
          "internalType": "address",
          "name": "maintainerAddress",
          "type": "address"
        }
      ],
      "name": "MaintainerAdded",
      "type": "event"
    },
    {
      "anonymous": false,
      "inputs": [
        {
          "indexed": true,
          "internalType": "address",
          "name": "maintainerRemovedAddress",
          "type": "address"
        }
      ],
      "name": "MaintainerRemoved",
      "type": "event"
    },
    {
      "anonymous": false,
      "inputs": [
        {
          "indexed": true,
          "internalType": "address",
          "name": "managerAddress",
          "type": "address"
        },
        {
          "indexed": false,
          "internalType": "uint256",
          "name": "lentAmountLimit",
          "type": "uint256"
        }
      ],
      "name": "ManagerAdded",
      "type": "event"
    },
    {
      "anonymous": false,
      "inputs": [
        {
          "indexed": true,
          "internalType": "address",
          "name": "borrowerAddress",
          "type": "address"
        },
        {
          "indexed": true,
          "internalType": "address",
          "name": "managerAddress",
          "type": "address"
        }
      ],
      "name": "ManagerChanged",
      "type": "event"
    },
    {
      "anonymous": false,
      "inputs": [
        {
          "indexed": true,
          "internalType": "address",
          "name": "managerAddress",
          "type": "address"
        }
      ],
      "name": "ManagerRemoved",
      "type": "event"
    },
    {
      "anonymous": false,
      "inputs": [
        {
          "indexed": true,
          "internalType": "address",
          "name": "previousOwner",
          "type": "address"
        },
        {
          "indexed": true,
          "internalType": "address",
          "name": "newOwner",
          "type": "address"
        }
      ],
      "name": "OwnershipTransferred",
      "type": "event"
    },
    {
      "anonymous": false,
      "inputs": [
        {
          "indexed": false,
          "internalType": "address",
          "name": "account",
          "type": "address"
        }
      ],
      "name": "Paused",
      "type": "event"
    },
    {
      "anonymous": false,
      "inputs": [
        {
          "indexed": true,
          "internalType": "address",
          "name": "userAddress",
          "type": "address"
        },
        {
          "indexed": false,
          "internalType": "uint256",
          "name": "loanId",
          "type": "uint256"
        },
        {
          "indexed": false,
          "internalType": "uint256",
          "name": "repaymentAmount",
          "type": "uint256"
        },
        {
          "indexed": false,
          "internalType": "uint256",
          "name": "currentDebt",
          "type": "uint256"
        }
      ],
      "name": "RepaymentAdded",
      "type": "event"
    },
    {
      "anonymous": false,
      "inputs": [
        {
          "indexed": true,
          "internalType": "address",
          "name": "tokenAddress",
          "type": "address"
        }
      ],
      "name": "TokenAdded",
      "type": "event"
    },
    {
      "anonymous": false,
      "inputs": [
        {
          "indexed": true,
          "internalType": "address",
          "name": "tokenAddress",
          "type": "address"
        }
      ],
      "name": "TokenRemoved",
      "type": "event"
    },
    {
      "anonymous": false,
      "inputs": [
        {
          "indexed": false,
          "internalType": "address",
          "name": "account",
          "type": "address"
        }
      ],
      "name": "Unpaused",
      "type": "event"
    },
    {
      "anonymous": false,
      "inputs": [
        {
          "indexed": true,
          "internalType": "address",
          "name": "oldWalletAddress",
          "type": "address"
        },
        {
          "indexed": true,
          "internalType": "address",
          "name": "newWalletAddress",
          "type": "address"
        }
      ],
      "name": "UserAddressChanged",
      "type": "event"
    },
    {
      "inputs": [],
      "name": "DEFAULT_LENDER_ADDRESS",
      "outputs": [
        {
          "internalType": "address",
          "name": "",
          "type": "address"
        }
      ],
      "stateMutability": "view",
      "type": "function"
    },
    {
      "inputs": [],
      "name": "REWARD_MULTIPLIER",
      "outputs": [
        {
          "internalType": "uint256",
          "name": "",
          "type": "uint256"
        }
      ],
      "stateMutability": "view",
      "type": "function"
    },
    {
      "inputs": [
        {
          "internalType": "address",
          "name": "_tokenAddress",
          "type": "address"
        },
        {
          "internalType": "uint256",
          "name": "_tokenAmount",
          "type": "uint256"
        }
      ],
      "name": "_getCUSDAmountFromExactTokenInput",
      "outputs": [
        {
          "internalType": "uint256",
          "name": "",
          "type": "uint256"
        }
      ],
      "stateMutability": "nonpayable",
      "type": "function"
    },
    {
      "inputs": [
        {
          "internalType": "address",
          "name": "_tokenAddress",
          "type": "address"
        },
        {
          "internalType": "uint256",
          "name": "_cUSDAmount",
          "type": "uint256"
        }
      ],
      "name": "_getTokenAmountFromExactCUSDOutput",
      "outputs": [
        {
          "internalType": "uint256",
          "name": "",
          "type": "uint256"
        }
      ],
      "stateMutability": "nonpayable",
      "type": "function"
    },
    {
      "inputs": [
        {
          "internalType": "address",
          "name": "_userAddress",
          "type": "address"
        },
        {
          "internalType": "address",
          "name": "_tokenAddress",
          "type": "address"
        },
        {
          "internalType": "uint256",
          "name": "_amount",
          "type": "uint256"
        },
        {
          "internalType": "uint256",
          "name": "_period",
          "type": "uint256"
        },
        {
          "internalType": "uint256",
          "name": "_dailyInterest",
          "type": "uint256"
        },
        {
          "internalType": "uint256",
          "name": "_claimDeadline",
          "type": "uint256"
        }
      ],
      "name": "addLoan",
      "outputs": [],
      "stateMutability": "nonpayable",
      "type": "function"
    },
    {
      "inputs": [
        {
          "internalType": "address[]",
          "name": "_userAddresses",
          "type": "address[]"
        },
        {
          "internalType": "address[]",
          "name": "_tokenAddresses",
          "type": "address[]"
        },
        {
          "internalType": "uint256[]",
          "name": "_amounts",
          "type": "uint256[]"
        },
        {
          "internalType": "uint256[]",
          "name": "_periods",
          "type": "uint256[]"
        },
        {
          "internalType": "uint256[]",
          "name": "_dailyInterests",
          "type": "uint256[]"
        },
        {
          "internalType": "uint256[]",
          "name": "_claimDeadlines",
          "type": "uint256[]"
        }
      ],
      "name": "addLoans",
      "outputs": [],
      "stateMutability": "nonpayable",
      "type": "function"
    },
    {
      "inputs": [
        {
          "internalType": "address[]",
          "name": "_maintainerAddresses",
          "type": "address[]"
        }
      ],
      "name": "addMaintainers",
      "outputs": [],
      "stateMutability": "nonpayable",
      "type": "function"
    },
    {
      "inputs": [
        {
          "internalType": "address[]",
          "name": "_managerAddresses",
          "type": "address[]"
        },
        {
          "internalType": "uint256[]",
          "name": "_lentAmountLimits",
          "type": "uint256[]"
        }
      ],
      "name": "addManagers",
      "outputs": [],
      "stateMutability": "nonpayable",
      "type": "function"
    },
    {
      "inputs": [
        {
          "internalType": "address",
          "name": "_tokenAddress",
          "type": "address"
        },
        {
          "internalType": "address[]",
          "name": "_exchangeTokens",
          "type": "address[]"
        },
        {
          "internalType": "uint24[]",
          "name": "_exchangeTokensFees",
          "type": "uint24[]"
        }
      ],
      "name": "addToken",
      "outputs": [],
      "stateMutability": "nonpayable",
      "type": "function"
    },
    {
      "inputs": [],
      "name": "cUSD",
      "outputs": [
        {
          "internalType": "contract IERC20Upgradeable",
          "name": "",
          "type": "address"
        }
      ],
      "stateMutability": "view",
      "type": "function"
    },
    {
      "inputs": [
        {
          "internalType": "address[]",
          "name": "_userAddresses",
          "type": "address[]"
        },
        {
          "internalType": "uint256[]",
          "name": "_loansIds",
          "type": "uint256[]"
        }
      ],
      "name": "cancelLoans",
      "outputs": [],
      "stateMutability": "nonpayable",
      "type": "function"
    },
    {
      "inputs": [
        {
          "internalType": "address[]",
          "name": "_borrowerAddresses",
          "type": "address[]"
        },
        {
          "internalType": "address",
          "name": "_managerAddress",
          "type": "address"
        }
      ],
      "name": "changeManager",
      "outputs": [],
      "stateMutability": "nonpayable",
      "type": "function"
    },
    {
      "inputs": [
        {
          "internalType": "address",
          "name": "_oldWalletAddress",
          "type": "address"
        },
        {
          "internalType": "address",
          "name": "_newWalletAddress",
          "type": "address"
        }
      ],
      "name": "changeUserAddress",
      "outputs": [],
      "stateMutability": "nonpayable",
      "type": "function"
    },
    {
      "inputs": [
        {
          "internalType": "uint256",
          "name": "_loanId",
          "type": "uint256"
        }
      ],
      "name": "claimLoan",
      "outputs": [],
      "stateMutability": "nonpayable",
      "type": "function"
    },
    {
      "inputs": [],
      "name": "donationMiner",
      "outputs": [
        {
          "internalType": "contract IDonationMiner",
          "name": "",
          "type": "address"
        }
      ],
      "stateMutability": "view",
      "type": "function"
    },
    {
      "inputs": [
        {
          "internalType": "address",
          "name": "_userAddress",
          "type": "address"
        },
        {
          "internalType": "uint256",
          "name": "_loanId",
          "type": "uint256"
        },
        {
          "internalType": "uint256",
          "name": "_currentLastComputedDate",
          "type": "uint256"
        },
        {
          "internalType": "uint256",
          "name": "_newPeriod",
          "type": "uint256"
        },
        {
          "internalType": "uint256",
          "name": "_newDailyInterest",
          "type": "uint256"
        },
        {
          "internalType": "uint256",
          "name": "_newLastComputedDebt",
          "type": "uint256"
        },
        {
          "internalType": "uint256",
          "name": "_newLastComputedDate",
          "type": "uint256"
        }
      ],
      "name": "editLoan",
      "outputs": [],
      "stateMutability": "nonpayable",
      "type": "function"
    },
    {
      "inputs": [
        {
          "internalType": "address[]",
          "name": "_userAddresses",
          "type": "address[]"
        },
        {
          "internalType": "uint256[]",
          "name": "_loanIds",
          "type": "uint256[]"
        },
        {
          "internalType": "uint256[]",
          "name": "_newClaimDeadlines",
          "type": "uint256[]"
        }
      ],
      "name": "editLoanClaimDeadlines",
      "outputs": [],
      "stateMutability": "nonpayable",
      "type": "function"
    },
    {
      "inputs": [],
      "name": "getVersion",
      "outputs": [
        {
          "internalType": "uint256",
          "name": "",
          "type": "uint256"
        }
      ],
      "stateMutability": "pure",
      "type": "function"
    },
    {
      "inputs": [
        {
          "internalType": "address",
          "name": "_tokenAddress",
          "type": "address"
        }
      ],
      "name": "inactivateToken",
      "outputs": [],
      "stateMutability": "nonpayable",
      "type": "function"
    },
    {
      "inputs": [
        {
          "internalType": "uint256",
          "name": "_from",
          "type": "uint256"
        },
        {
          "internalType": "uint256",
          "name": "_to",
          "type": "uint256"
        }
      ],
      "name": "initV2",
      "outputs": [],
      "stateMutability": "nonpayable",
      "type": "function"
    },
    {
      "inputs": [
        {
          "internalType": "address",
          "name": "_cUSDAddress",
          "type": "address"
        },
        {
          "internalType": "address",
          "name": "_revenueAddress",
          "type": "address"
        }
      ],
      "name": "initialize",
      "outputs": [],
      "stateMutability": "nonpayable",
      "type": "function"
    },
    {
      "inputs": [
        {
          "internalType": "uint256",
          "name": "_index",
          "type": "uint256"
        }
      ],
      "name": "maintainerListAt",
      "outputs": [
        {
          "internalType": "address",
          "name": "",
          "type": "address"
        }
      ],
      "stateMutability": "view",
      "type": "function"
    },
    {
      "inputs": [],
      "name": "maintainerListLength",
      "outputs": [
        {
          "internalType": "uint256",
          "name": "",
          "type": "uint256"
        }
      ],
      "stateMutability": "view",
      "type": "function"
    },
    {
      "inputs": [
        {
          "internalType": "uint256",
          "name": "_index",
          "type": "uint256"
        }
      ],
      "name": "managerListAt",
      "outputs": [
        {
          "internalType": "address",
          "name": "",
          "type": "address"
        }
      ],
      "stateMutability": "view",
      "type": "function"
    },
    {
      "inputs": [],
      "name": "managerListLength",
      "outputs": [
        {
          "internalType": "uint256",
          "name": "",
          "type": "uint256"
        }
      ],
      "stateMutability": "view",
      "type": "function"
    },
    {
      "inputs": [
        {
          "internalType": "address",
          "name": "_managerAddress",
          "type": "address"
        }
      ],
      "name": "managers",
      "outputs": [
        {
          "components": [
            {
              "internalType": "uint256",
              "name": "lentAmountLimit",
              "type": "uint256"
            },
            {
              "internalType": "uint256",
              "name": "lentAmount",
              "type": "uint256"
            }
          ],
          "internalType": "struct IMicrocredit.Manager",
          "name": "",
          "type": "tuple"
        }
      ],
      "stateMutability": "view",
      "type": "function"
    },
    {
      "inputs": [],
      "name": "microcreditManager",
      "outputs": [
        {
          "internalType": "contract IMicrocreditManager",
          "name": "",
          "type": "address"
        }
      ],
      "stateMutability": "view",
      "type": "function"
    },
    {
      "inputs": [],
      "name": "owner",
      "outputs": [
        {
          "internalType": "address",
          "name": "",
          "type": "address"
        }
      ],
      "stateMutability": "view",
      "type": "function"
    },
    {
      "inputs": [],
      "name": "paused",
      "outputs": [
        {
          "internalType": "bool",
          "name": "",
          "type": "bool"
        }
      ],
      "stateMutability": "view",
      "type": "function"
    },
    {
      "inputs": [
        {
          "internalType": "address[]",
          "name": "_maintainerAddresses",
          "type": "address[]"
        }
      ],
      "name": "removeMaintainers",
      "outputs": [],
      "stateMutability": "nonpayable",
      "type": "function"
    },
    {
      "inputs": [
        {
          "internalType": "address[]",
          "name": "_managerAddresses",
          "type": "address[]"
        }
      ],
      "name": "removeManagers",
      "outputs": [],
      "stateMutability": "nonpayable",
      "type": "function"
    },
    {
      "inputs": [],
      "name": "renounceOwnership",
      "outputs": [],
      "stateMutability": "nonpayable",
      "type": "function"
    },
    {
      "inputs": [
        {
          "internalType": "uint256",
          "name": "_loanId",
          "type": "uint256"
        },
        {
          "internalType": "uint256",
          "name": "_tokenRepaymentAmount",
          "type": "uint256"
        }
      ],
      "name": "repayLoan",
      "outputs": [],
      "stateMutability": "nonpayable",
      "type": "function"
    },
    {
      "inputs": [],
      "name": "revenueAddress",
      "outputs": [
        {
          "internalType": "address",
          "name": "",
          "type": "address"
        }
      ],
      "stateMutability": "view",
      "type": "function"
    },
    {
      "inputs": [
        {
          "internalType": "address[]",
          "name": "_userAddresses",
          "type": "address[]"
        },
        {
          "internalType": "uint256[]",
          "name": "_loanIds",
          "type": "uint256[]"
        },
        {
          "internalType": "address[]",
          "name": "_managersAddresses",
          "type": "address[]"
        }
      ],
      "name": "setManagers",
      "outputs": [],
      "stateMutability": "nonpayable",
      "type": "function"
    },
    {
      "inputs": [
        {
          "internalType": "uint256",
          "name": "_index",
          "type": "uint256"
        }
      ],
      "name": "tokenListAt",
      "outputs": [
        {
          "internalType": "address",
          "name": "",
          "type": "address"
        }
      ],
      "stateMutability": "view",
      "type": "function"
    },
    {
      "inputs": [],
      "name": "tokenListLength",
      "outputs": [
        {
          "internalType": "uint256",
          "name": "",
          "type": "uint256"
        }
      ],
      "stateMutability": "view",
      "type": "function"
    },
    {
      "inputs": [
        {
          "internalType": "address",
          "name": "_tokenAddress",
          "type": "address"
        }
      ],
      "name": "tokens",
      "outputs": [
        {
          "internalType": "bool",
          "name": "active",
          "type": "bool"
        }
      ],
      "stateMutability": "view",
      "type": "function"
    },
    {
      "inputs": [
        {
          "internalType": "contract IERC20Upgradeable",
          "name": "_token",
          "type": "address"
        },
        {
          "internalType": "address",
          "name": "_to",
          "type": "address"
        },
        {
          "internalType": "uint256",
          "name": "_amount",
          "type": "uint256"
        }
      ],
      "name": "transferERC20",
      "outputs": [],
      "stateMutability": "nonpayable",
      "type": "function"
    },
    {
      "inputs": [
        {
          "internalType": "address",
          "name": "newOwner",
          "type": "address"
        }
      ],
      "name": "transferOwnership",
      "outputs": [],
      "stateMutability": "nonpayable",
      "type": "function"
    },
    {
      "inputs": [],
      "name": "uniswapQuoter",
      "outputs": [
        {
          "internalType": "contract IQuoter",
          "name": "",
          "type": "address"
        }
      ],
      "stateMutability": "view",
      "type": "function"
    },
    {
      "inputs": [],
      "name": "uniswapRouter",
      "outputs": [
        {
          "internalType": "contract IUniswapRouter02",
          "name": "",
          "type": "address"
        }
      ],
      "stateMutability": "view",
      "type": "function"
    },
    {
      "inputs": [
        {
          "internalType": "contract IDonationMiner",
          "name": "_newDonationMiner",
          "type": "address"
        }
      ],
      "name": "updateDonationMiner",
      "outputs": [],
      "stateMutability": "nonpayable",
      "type": "function"
    },
    {
      "inputs": [
        {
          "internalType": "contract IMicrocreditManager",
          "name": "_newMicrocreditManager",
          "type": "address"
        }
      ],
      "name": "updateMicrocreditManager",
      "outputs": [],
      "stateMutability": "nonpayable",
      "type": "function"
    },
    {
      "inputs": [
        {
          "internalType": "address",
          "name": "_newRevenueAddress",
          "type": "address"
        }
      ],
      "name": "updateRevenueAddress",
      "outputs": [],
      "stateMutability": "nonpayable",
      "type": "function"
    },
    {
      "inputs": [
        {
          "internalType": "contract IQuoter",
          "name": "_newUniswapQuoter",
          "type": "address"
        }
      ],
      "name": "updateUniswapQuoter",
      "outputs": [],
      "stateMutability": "nonpayable",
      "type": "function"
    },
    {
      "inputs": [
        {
          "internalType": "contract IUniswapRouter02",
          "name": "_newUniswapRouter",
          "type": "address"
        }
      ],
      "name": "updateUniswapRouter",
      "outputs": [],
      "stateMutability": "nonpayable",
      "type": "function"
    },
    {
      "inputs": [
        {
          "internalType": "address",
          "name": "_userAddress",
          "type": "address"
        },
        {
          "internalType": "uint256",
          "name": "_loanId",
          "type": "uint256"
        },
        {
          "internalType": "uint256",
          "name": "_repaymentId",
          "type": "uint256"
        }
      ],
      "name": "userLoanRepayments",
      "outputs": [
        {
          "components": [
            {
              "internalType": "uint256",
              "name": "date",
              "type": "uint256"
            },
            {
              "internalType": "uint256",
              "name": "amount",
              "type": "uint256"
            },
            {
              "internalType": "uint256",
              "name": "tokenAmount",
              "type": "uint256"
            }
          ],
          "internalType": "struct IMicrocredit.Repayment",
          "name": "repayment",
          "type": "tuple"
        }
      ],
      "stateMutability": "view",
      "type": "function"
    },
    {
      "inputs": [
        {
          "internalType": "address",
          "name": "_userAddress",
          "type": "address"
        },
        {
          "internalType": "uint256",
          "name": "_loanId",
          "type": "uint256"
        }
      ],
      "name": "userLoans",
      "outputs": [
        {
          "components": [
            {
              "internalType": "uint256",
              "name": "amountBorrowed",
              "type": "uint256"
            },
            {
              "internalType": "uint256",
              "name": "period",
              "type": "uint256"
            },
            {
              "internalType": "uint256",
              "name": "dailyInterest",
              "type": "uint256"
            },
            {
              "internalType": "uint256",
              "name": "claimDeadline",
              "type": "uint256"
            },
            {
              "internalType": "uint256",
              "name": "startDate",
              "type": "uint256"
            },
            {
              "internalType": "uint256",
              "name": "currentDebt",
              "type": "uint256"
            },
            {
              "internalType": "uint256",
              "name": "lastComputedDebt",
              "type": "uint256"
            },
            {
              "internalType": "uint256",
              "name": "amountRepayed",
              "type": "uint256"
            },
            {
              "internalType": "uint256",
              "name": "repaymentsLength",
              "type": "uint256"
            },
            {
              "internalType": "uint256",
              "name": "lastComputedDate",
              "type": "uint256"
            },
            {
              "internalType": "address",
              "name": "managerAddress",
              "type": "address"
            },
            {
              "internalType": "address",
              "name": "tokenAddress",
              "type": "address"
            },
            {
              "internalType": "uint256",
              "name": "tokenAmountBorrowed",
              "type": "uint256"
            },
            {
              "internalType": "uint256",
              "name": "tokenAmountRepayed",
              "type": "uint256"
            },
            {
              "internalType": "uint256",
              "name": "tokenLastComputedDebt",
              "type": "uint256"
            },
            {
              "internalType": "uint256",
              "name": "tokenCurrentDebt",
              "type": "uint256"
            }
          ],
          "internalType": "struct IMicrocredit.UserLoanResponse",
          "name": "userLoan",
          "type": "tuple"
        }
      ],
      "stateMutability": "nonpayable",
      "type": "function"
    },
    {
      "inputs": [
        {
          "internalType": "uint256",
          "name": "_index",
          "type": "uint256"
        }
      ],
      "name": "walletListAt",
      "outputs": [
        {
          "internalType": "address",
          "name": "",
          "type": "address"
        }
      ],
      "stateMutability": "view",
      "type": "function"
    },
    {
      "inputs": [],
      "name": "walletListLength",
      "outputs": [
        {
          "internalType": "uint256",
          "name": "",
          "type": "uint256"
        }
      ],
      "stateMutability": "view",
      "type": "function"
    },
    {
      "inputs": [
        {
          "internalType": "address",
          "name": "_userAddress",
          "type": "address"
        }
      ],
      "name": "walletMetadata",
      "outputs": [
        {
          "internalType": "uint256",
          "name": "userId",
          "type": "uint256"
        },
        {
          "internalType": "address",
          "name": "movedTo",
          "type": "address"
        },
        {
          "internalType": "uint256",
          "name": "loansLength",
          "type": "uint256"
        }
      ],
      "stateMutability": "view",
      "type": "function"
    }
  ],
  "transactionHash": "0x04bd6784a797295e9dab437728dff90f4a0d245eac1d46d807f7256bdc62cc9b",
  "args": [],
  "numDeployments": 18,
  "solcInputHash": "00d7f201e9e35168bcffa782ee784db9",
  "bytecode": "0x608060405234801561001057600080fd5b50614a82806100206000396000f3fe608060405234801561001057600080fd5b506004361061030c5760003560e01c8063841c27d31161019d578063cef96070116100e9578063eef1b515116100a2578063f2fde38b1161007c578063f2fde38b14610733578063fdd2885914610746578063fdf7b37914610759578063fdff9b4d1461076c57600080fd5b8063eef1b515146106fa578063efaf058b1461070d578063f29ebfef1461072057600080fd5b8063cef960701461066d578063d8bad5bd14610680578063db266f4f146106a0578063e0c7cf57146106a8578063e36d4f3e146106bb578063e4860339146106ce57600080fd5b80639a9cb97111610156578063a3745c6811610130578063a3745c6814610621578063adb9712614610634578063b410908d14610647578063c89fc9a71461065a57600080fd5b80639a9cb971146105e85780639b03310a146105fb5780639db5dbe41461060e57600080fd5b8063841c27d3146105835780638634e84b146105965780638a700b53146105a95780638da5cb5b146105bc578063908bb2ae146105cd5780639a552a29146105e057600080fd5b806356bf5ce71161025c578063705a483b1161021557806378d5bcc1116101ef57806378d5bcc11461050d578063804077351461054257806380cc6950146105555780638241bb571461057057600080fd5b8063705a483b146104df578063715018a6146104f2578063735de9f7146104fa57600080fd5b806356bf5ce71461041a578063598b47dd1461042d5780635c975abb1461043557806360c4477a1461044c5780636323f5e91461045457806368fcaf84146104cc57600080fd5b80632e131cf9116102c957806347397a5a116102a357806347397a5a146103ce578063485cc955146103e15780634db4a352146103f457806353a469b31461040757600080fd5b80632e131cf9146103a057806332b194b5146103b3578063387d0263146103c657600080fd5b80630d8e6e2c146103115780630e242d5a14610327578063108c5c6e1461033c57806310f3ee29146103675780631d4bf2c91461037a5780631fccf6721461038d575b600080fd5b60025b6040519081526020015b60405180910390f35b61033a610335366004613f9c565b6107dc565b005b60da5461034f906001600160a01b031681565b6040516001600160a01b03909116815260200161031e565b61033a61037536600461417b565b610831565b61033a61038836600461417b565b610a43565b60c95461034f906001600160a01b031681565b61033a6103ae366004613f9c565b610b36565b61034f6103c1366004614552565b610c16565b610314610c29565b61033a6103dc366004614582565b610c3a565b61033a6103ef366004613fb8565b610da9565b60d95461034f906001600160a01b031681565b61033a610415366004614552565b610ecb565b6103146104283660046140c8565b6110dd565b610314600a81565b60655460ff165b604051901515815260200161031e565b6103146111e0565b6104a9610462366004613f9c565b6001600160a01b03908116600090815260cc6020908152604080832081518083018352815480825260019092015490951694830185905280845260d4909252909120549092565b604080519384526001600160a01b0390921660208401529082015260600161031e565b61034f6104da366004614552565b6111ec565b61033a6104ed36600461417b565b6111f9565b61033a6112ec565b60d85461034f906001600160a01b031681565b61052061051b3660046140f3565b611322565b604080518251815260208084015190820152918101519082015260600161031e565b61033a6105503660046142f7565b61143e565b61034f73e6662e970cd54c154af8b9ded54c95a69b133a5a81565b61033a61057e366004614360565b61150c565b61033a610591366004613f9c565b611853565b61033a6105a4366004614127565b61189f565b61033a6105b7366004614582565b611b00565b6033546001600160a01b031661034f565b61033a6105db366004613f9c565b61208e565b6103146120da565b61033a6105f63660046143f6565b6120e6565b61034f610609366004614552565b61228d565b61033a61061c3660046144ef565b61229a565b61033a61062f366004614048565b61230a565b61034f610642366004614552565b6126fc565b60d15461034f906001600160a01b031681565b61033a610668366004613f9c565b612709565b61031461067b3660046140c8565b612755565b61069361068e3660046140c8565b6127d2565b60405161031e9190614870565b6103146129cc565b61033a6106b63660046142f7565b6129d8565b60d35461034f906001600160a01b031681565b61043c6106dc366004613f9c565b6001600160a01b0316600090815260d5602052604090205460ff1690565b61033a610708366004613fb8565b612b92565b61033a61071b366004614360565b612d37565b61033a61072e366004613ff0565b612ec0565b61033a610741366004613f9c565b612ef5565b61033a610754366004613f9c565b612f90565b61033a6107673660046141bb565b613042565b6107c161077a366004613f9c565b6040805180820190915260008082526020820152506001600160a01b0316600090815260d26020908152604091829020825180840190935280548352600101549082015290565b6040805182518152602092830151928101929092520161031e565b6033546001600160a01b0316331461080f5760405162461bcd60e51b815260040161080690614730565b60405180910390fd5b60d980546001600160a01b0319166001600160a01b0392909216919091179055565b61083c60db33613240565b8061085157506033546001600160a01b031633145b61086d5760405162461bcd60e51b8152600401610806906147f2565b8060005b81811015610a3d5760d2600085858481811061089d57634e487b7160e01b600052603260045260246000fd5b90506020020160208101906108b29190613f9c565b6001600160a01b031681526020810191909152604001600020600101541561092b5760405162461bcd60e51b815260206004820152602660248201527f4d6963726f6372656469743a206d616e6167657220686173206f6e676f696e67604482015265206c6f616e7360d01b6064820152608401610806565b61096b84848381811061094e57634e487b7160e01b600052603260045260246000fd5b90506020020160208101906109639190613f9c565b60cf90613262565b50600060d2600086868581811061099257634e487b7160e01b600052603260045260246000fd5b90506020020160208101906109a79190613f9c565b6001600160a01b031681526020810191909152604001600020558383828181106109e157634e487b7160e01b600052603260045260246000fd5b90506020020160208101906109f69190613f9c565b6001600160a01b03167fef69f7d97228658c92417be1b16b19058315de71fecb435d07b7d23728b6bd3160405160405180910390a280610a35816149f0565b915050610871565b50505050565b6033546001600160a01b03163314610a6d5760405162461bcd60e51b815260040161080690614730565b8060005b81811015610a3d57610ab9848483818110610a9c57634e487b7160e01b600052603260045260246000fd5b9050602002016020810190610ab19190613f9c565b60db90613277565b50838382818110610ada57634e487b7160e01b600052603260045260246000fd5b9050602002016020810190610aef9190613f9c565b6001600160a01b03167f1390a149489c82e9e2e89927bdb17ad1ea3f0cc314fce06c96369721d3afb8f060405160405180910390a280610b2e816149f0565b915050610a71565b6033546001600160a01b03163314610b605760405162461bcd60e51b815260040161080690614730565b6001600160a01b038116600090815260d5602052604090205460ff161515600114610bcd5760405162461bcd60e51b815260206004820181905260248201527f4d6963726f6372656469743a20546f6b656e206973206e6f74206163746976656044820152606401610806565b6001600160a01b038116600081815260d56020526040808220805460ff19169055517f4c910b69fe65a61f7531b9c5042b2329ca7179c77290aa7e2eb3afa3c8511fd39190a250565b6000610c2360d68361328c565b92915050565b6000610c3560cf613298565b905090565b6033546001600160a01b03163314610c645760405162461bcd60e51b815260040161080690614730565b60008060ca548310610c785760ca54610c7a565b825b92508391505b828211610d18575060005b600082815260d46020526040902054811015610d065760c954600083815260d4602090815260408083208584526001019091529020600b810180546001600160a01b0319166001600160a01b03909316929092179091558054600c8201556006810154600d9091015580610cfe816149f0565b915050610c8b565b81610d10816149f0565b925050610c80565b60c954610d309060d6906001600160a01b0316613240565b610a3d5760c954610d4c9060d6906001600160a01b0316613277565b5060c980546001600160a01b03908116600090815260d56020526040808220805460ff191660011790559254925192909116917f784c8f4dbf0ffedd6e72c76501c545a70f8b203b30a26ce542bf92ba87c248a49190a250505050565b600054610100900460ff16610dc45760005460ff1615610dc8565b303b155b610e2b5760405162461bcd60e51b815260206004820152602e60248201527f496e697469616c697a61626c653a20636f6e747261637420697320616c72656160448201526d191e481a5b9a5d1a585b1a5e995960921b6064820152608401610806565b600054610100900460ff16158015610e4d576000805461ffff19166101011790555b610e556132a2565b610e5d6132d9565b610e65613310565b60c980546001600160a01b0319166001600160a01b0385811691909117909155821615610e925781610e94565b305b60d180546001600160a01b0319166001600160a01b03929092169190911790558015610ec6576000805461ff00191690555b505050565b60026097541415610eee5760405162461bcd60e51b815260040161080690614839565b6002609755610efd338261333f565b33600090815260cc602090815260408083208151808301835281548082526001928301546001600160a01b031682860152855260d484528285208686529182019093529220600481015491929115610f675760405162461bcd60e51b8152600401610806906146ef565b6003810154610fb85760405162461bcd60e51b815260206004820152601a60248201527f4d6963726f6372656469743a204c6f616e2063616e63656c65640000000000006044820152606401610806565b428160030154101561100c5760405162461bcd60e51b815260206004820152601960248201527f4d6963726f6372656469743a204c6f616e2065787069726564000000000000006044820152606401610806565b4260048201556002810154670de0b6b3a76400009061102d90606490614957565b61103f90670de0b6b3a764000061493f565b825461104b9190614977565b6110559190614957565b6005820155426009820155600b810154815461107a916001600160a01b031690612755565b600c8201819055600b82015461109d916001600160a01b03909116903390613448565b60405184815233907fba0cbe8ef8ef3c6984adc684d0c9b9a4d2d4c79b4678b63c38651fa48d21c62c9060200160405180910390a2505060016097555050565b60c9546000906001600160a01b03848116911614806110fa575081155b15611106575080610c23565b6001600160a01b03808416600090815260d56020908152604080832060d95460c9548616808652600383018552948390205492519195169363cdca175393611159938a9362ffffff9091169291016145cf565b604051602081830303815290604052856040518363ffffffff1660e01b8152600401611186929190614626565b602060405180830381600087803b1580156111a057600080fd5b505af11580156111b4573d6000803e3d6000fd5b505050506040513d601f19601f820116820180604052508101906111d8919061456a565b949350505050565b6000610c3560cd613298565b6000610c2360cf8361328c565b6033546001600160a01b031633146112235760405162461bcd60e51b815260040161080690614730565b8060005b81811015610a3d5761126f84848381811061125257634e487b7160e01b600052603260045260246000fd5b90506020020160208101906112679190613f9c565b60db90613262565b5083838281811061129057634e487b7160e01b600052603260045260246000fd5b90506020020160208101906112a59190613f9c565b6001600160a01b03167fa7b36d52bea726c3aa90d876d0e52a1089a347b3e3408a03f08eae32f96fdbb460405160405180910390a2806112e4816149f0565b915050611227565b6033546001600160a01b031633146113165760405162461bcd60e51b815260040161080690614730565b61132060006134ab565b565b61134660405180606001604052806000815260200160008152602001600081525090565b611350848461333f565b6001600160a01b03808516600090815260cc602090815260408083208151808301835281548082526001928301549096168185015294845260d48352818420888552908101909252909120600781015485106113fa5760405162461bcd60e51b8152602060048201526024808201527f4d6963726f6372656469743a2052657061796d656e7420646f65736e277420656044820152631e1a5cdd60e21b6064820152608401610806565b6000858152600890910160209081526040918290208251606081018452815481526001820154928101929092526002015491810191909152925050505b9392505050565b61144960cf33613240565b6114655760405162461bcd60e51b81526004016108069061465b565b8281146114845760405162461bcd60e51b81526004016108069061469f565b60005b83811015611505576114f38585838181106114b257634e487b7160e01b600052603260045260246000fd5b90506020020160208101906114c79190613f9c565b8484848181106114e757634e487b7160e01b600052603260045260246000fd5b905060200201356134fd565b806114fd816149f0565b915050611487565b5050505050565b61151760cf33613240565b6115335760405162461bcd60e51b81526004016108069061465b565b848381146115535760405162461bcd60e51b81526004016108069061469f565b8082146115725760405162461bcd60e51b81526004016108069061469f565b60005b81811015611849576115e18888838181106115a057634e487b7160e01b600052603260045260246000fd5b90506020020160208101906115b59190613f9c565b8787848181106115d557634e487b7160e01b600052603260045260246000fd5b9050602002013561333f565b600060cc60008a8a8581811061160757634e487b7160e01b600052603260045260246000fd5b905060200201602081019061161c9190613f9c565b6001600160a01b039081168252602080830193909352604091820160009081208351808501855281548082526001928301549094168187015292825260d4909452918220909350918201818a8a8781811061168757634e487b7160e01b600052603260045260246000fd5b905060200201358152602001908152602001600020905080600401546000146116c25760405162461bcd60e51b8152600401610806906146ef565b428787868181106116e357634e487b7160e01b600052603260045260246000fd5b90506020020135116117075760405162461bcd60e51b815260040161080690614765565b86868581811061172757634e487b7160e01b600052603260045260246000fd5b60200291909101356003830155508a8a8581811061175557634e487b7160e01b600052603260045260246000fd5b905060200201602081019061176a9190613f9c565b6001600160a01b03167fdb20a2888067faf36d2f9c97dd3826224c5c16f269229a776c3bd87453c1f6af8a8a878181106117b457634e487b7160e01b600052603260045260246000fd5b9050602002013583600101548a8a898181106117e057634e487b7160e01b600052603260045260246000fd5b9050602002013585600201548660050154876009015460405161182b96959493929190958652602086019490945260408501929092526060840152608083015260a082015260c00190565b60405180910390a25050508080611841906149f0565b915050611575565b5050505050505050565b6033546001600160a01b0316331461187d5760405162461bcd60e51b815260040161080690614730565b60da80546001600160a01b0319166001600160a01b0392909216919091179055565b6033546001600160a01b031633146118c95760405162461bcd60e51b815260040161080690614730565b6118d3878761333f565b6001600160a01b03808816600090815260cc602090815260408083208151808301835281548082526001928301549096168185015294845260d483528184208b855290810190925290912060048101546119955760405162461bcd60e51b815260206004820152603a60248201527f4d6963726f6372656469743a204c6f616e206973206e6f74206163746976652c60448201527f207573652063616e63656c206d6574686f6420696e73746561640000000000006064820152608401610806565b87816009015414611a005760405162461bcd60e51b815260206004820152602f60248201527f4d6963726f6372656469743a20546865207573657220686173206a757374206d60448201526e1859194818481c995c185e5b595b9d608a1b6064820152608401610806565b80600401548410158015611a145750428411155b611a715760405162461bcd60e51b815260206004820152602860248201527f4d6963726f6372656469743a20496e76616c6964206e65774c617374436f6d70604482015267757465644461746560c01b6064820152608401610806565b600181018790556002810186905560058101859055600981018490556003810154604080518b8152602081018a905290810191909152606081018790526080810186905260a081018590526001600160a01b038b16907fdb20a2888067faf36d2f9c97dd3826224c5c16f269229a776c3bd87453c1f6af9060c00160405180910390a250505050505050505050565b60026097541415611b235760405162461bcd60e51b815260040161080690614839565b600260975580611b755760405162461bcd60e51b815260206004820152601b60248201527f4d6963726f6372656469743a20496e76616c696420616d6f756e7400000000006044820152606401610806565b611b7f338361333f565b33600090815260cc602090815260408083208151808301835281548082526001928301546001600160a01b031682860152855260d4845282852087865291820190935292206004810154919291611c185760405162461bcd60e51b815260206004820152601d60248201527f4d6963726f6372656469743a204c6f616e206e6f7420636c61696d65640000006044820152606401610806565b6000816005015411611c855760405162461bcd60e51b815260206004820152603060248201527f4d6963726f6372656469743a204c6f616e2068617320616c726561647920626560448201526f195b88199d5b1b1e481c995c185e595960821b6064820152608401610806565b6000611c9082613657565b600b830154909150600090611cae906001600160a01b0316876110dd565b905080821015611cd65750600b8201548190611cd3906001600160a01b031682612755565b95505b82546006840154611ce890839061493f565b11611d2457600b830154611d07906001600160a01b03163330896136f1565b600a830154611d1f906001600160a01b031682613729565b611dec565b8254600684015410611d515760d154600b840154611d1f916001600160a01b0391821691339116896136f1565b60068301548354600091611d6491614996565b600b850154909150600090611d82906001600160a01b031683612755565b600b860154909150611d9f906001600160a01b03163330846136f1565b60d154611dd19033906001600160a01b0316611dbb848c614996565b600b8901546001600160a01b03169291906136f1565b600a850154611de9906001600160a01b031683613729565b50505b600783018054600081815260088601602052604081209290611e0d836149f0565b90915550504281556001810182905560028101879055611e2d8284614996565b846005018190555081846006016000828254611e49919061493f565b925050819055508684600d016000828254611e64919061493f565b909155505060098401546000906201518090611e809042614996565b611e8a9190614957565b9050611e998162015180614977565b8560090154611ea8919061493f565b60098601556005850154612035576000600a86600001548760060154611ece9190614996565b611ed89190614977565b60d3549091506001600160a01b0316156120335760d354604051635e2321f760e11b8152600481018390523360248201526001600160a01b039091169063bc4643ee90604401600060405180830381600087803b158015611f3857600080fd5b505af1158015611f4c573d6000803e3d6000fd5b505060d354600a890154604051635e2321f760e11b8152600481018690526001600160a01b0391821660248201529116925063bc4643ee9150604401600060405180830381600087803b158015611fa257600080fd5b505af1158015611fb6573d6000803e3d6000fd5b505060d354604051635e2321f760e11b81526004810185905273e6662e970cd54c154af8b9ded54c95a69b133a5a60248201526001600160a01b03909116925063bc4643ee9150604401600060405180830381600087803b15801561201a57600080fd5b505af115801561202e573d6000803e3d6000fd5b505050505b505b6005850154604080518b8152602081018690529081019190915233907f36bd188317b9b3af98bbc5bfd88a0bccb96582fa2c955815ea9916dfeeb02d9e9060600160405180910390a25050600160975550505050505050565b6033546001600160a01b031633146120b85760405162461bcd60e51b815260040161080690614730565b60d880546001600160a01b0319166001600160a01b0392909216919091179055565b6000610c3560d6613298565b6120f160cf33613240565b61210d5760405162461bcd60e51b81526004016108069061465b565b600061211a60cf83613240565b6121725760405162461bcd60e51b8152602060048201526024808201527f4d6963726f6372656469743a20696e76616c6964206d616e61676572206164646044820152637265737360e01b6064820152608401610806565b5060005b8251811015610ec6576121ba8382815181106121a257634e487b7160e01b600052603260045260246000fd5b602002602001015160cd61324090919063ffffffff16565b6122145760405162461bcd60e51b815260206004820152602560248201527f4d6963726f6372656469743a20696e76616c696420626f72726f776572206164604482015264647265737360d81b6064820152608401610806565b816001600160a01b031683828151811061223e57634e487b7160e01b600052603260045260246000fd5b60200260200101516001600160a01b03167f605c2dbf762e5f7d60a546d42e7205dcb1b011ebc62a61736a57c9089d3a435060405160405180910390a380612285816149f0565b915050612176565b6000610c2360db8361328c565b600260975414156122bd5760405162461bcd60e51b815260040161080690614839565b60026097556033546001600160a01b031633146122ec5760405162461bcd60e51b815260040161080690614730565b6123006001600160a01b0384168383613448565b5050600160975550565b6033546001600160a01b031633146123345760405162461bcd60e51b815260040161080690614730565b8281146123535760405162461bcd60e51b81526004016108069061469f565b61235e60d686613277565b506001600160a01b03808616600081815260d560205260409020805460ff1916600117815560c9549092161415612400578315801561239b575081155b6123fb5760405162461bcd60e51b815260206004820152602b60248201527f4d6963726f6372656469743a20635553442063616e277420686176652065786360448201526a68616e6765546f6b656e7360a81b6064820152608401610806565b6126c0565b600184148015612456575060c9546001600160a01b0316858560008161243657634e487b7160e01b600052603260045260246000fd5b905060200201602081019061244b9190613f9c565b6001600160a01b0316145b6124d45760405162461bcd60e51b815260206004820152604360248201527f4d6963726f6372656469743a20466f7220746865206d6f6d656e742c206a757360448201527f7420635553442069732061636365707465642061732065786368616e6765546f60648201526235b2b760e91b608482015260a401610806565b8160005b818110156126405784848281811061250057634e487b7160e01b600052603260045260246000fd5b9050602002016020810190612515919061452f565b83600301600089898581811061253b57634e487b7160e01b600052603260045260246000fd5b90506020020160208101906125509190613f9c565b6001600160a01b031681526020810191909152604001600020805462ffffff191662ffffff929092169190911790556125c18787838181106125a257634e487b7160e01b600052603260045260246000fd5b90506020020160208101906125b79190613f9c565b6001850190613277565b5060006125d689670de0b6b3a76400006110dd565b1161262e5760405162461bcd60e51b815260206004820152602260248201527f4d6963726f6372656469743a20696e76616c69642065786368616e6765546f6b60448201526132b760f11b6064820152608401610806565b80612638816149f0565b9150506124d8565b5060c95461265b9060018401906001600160a01b0316613240565b6126be5760405162461bcd60e51b815260206004820152602e60248201527f4d6963726f6372656469743a2065786368616e6765546f6b656e20746f20635560448201526d14d1081b5d5cdd081899481cd95d60921b6064820152608401610806565b505b6040516001600160a01b038716907f784c8f4dbf0ffedd6e72c76501c545a70f8b203b30a26ce542bf92ba87c248a490600090a2505050505050565b6000610c2360cd8361328c565b6033546001600160a01b031633146127335760405162461bcd60e51b815260040161080690614730565b60d380546001600160a01b0319166001600160a01b0392909216919091179055565b60c9546000906001600160a01b0384811691161480612772575081155b1561277e575080610c23565b6001600160a01b03808416600090815260d56020908152604080832060d95460c95486168086526003830185529483902054925191951693632f80bb1d9361115993919262ffffff909216918a91016145cf565b6128646040518061020001604052806000815260200160008152602001600081526020016000815260200160008152602001600081526020016000815260200160008152602001600081526020016000815260200160006001600160a01b0316815260200160006001600160a01b03168152602001600081526020016000815260200160008152602001600081525090565b61286e838361333f565b6001600160a01b03808416600090815260cc602090815260408083208151808301835281548082526001928301549096168185015294845260d4835281842087855281018352928190208054865292830154918501919091526002820154908401526003810154606084015260048101546080840152600581015460c08401526128f781613657565b60a0840152600681015460e084015260078101546101008401526009810154610120840152600a8101546001600160a01b03908116610140850152600b82015416610160840152600c81015461296657600b8101548154612961916001600160a01b031690612755565b61296c565b80600c01545b610180840152600d8101546101a0840152600b81015460c084015161299a916001600160a01b031690612755565b6101c0840152600b81015460a08401516129bd916001600160a01b031690612755565b6101e084015250909392505050565b6000610c3560db613298565b6129e360db33613240565b806129f857506033546001600160a01b031633145b612a145760405162461bcd60e51b8152600401610806906147f2565b8260005b81811015612b8a57612a60868683818110612a4357634e487b7160e01b600052603260045260246000fd5b9050602002016020810190612a589190613f9c565b60cf90613277565b50838382818110612a8157634e487b7160e01b600052603260045260246000fd5b9050602002013560d26000888885818110612aac57634e487b7160e01b600052603260045260246000fd5b9050602002016020810190612ac19190613f9c565b6001600160a01b03168152602081019190915260400160002055858582818110612afb57634e487b7160e01b600052603260045260246000fd5b9050602002016020810190612b109190613f9c565b6001600160a01b03167ffae05d1286e3d4cd0db21fce06a66beb75ec586eb923fc0fcc332e69d7ad2e2f858584818110612b5a57634e487b7160e01b600052603260045260246000fd5b90506020020135604051612b7091815260200190565b60405180910390a280612b82816149f0565b915050612a18565b505050505050565b612b9d60cf33613240565b612bb95760405162461bcd60e51b81526004016108069061465b565b6001600160a01b038216600090815260cc60205260409020805415801590612bec575060018101546001600160a01b0316155b612c475760405162461bcd60e51b815260206004820152602660248201527f4d6963726f6372656469743a205468697320757365722063616e6e6f74206265604482015265081b5bdd995960d21b6064820152608401610806565b6001600160a01b038216600090815260cc60205260409020805415612cc45760405162461bcd60e51b815260206004820152602d60248201527f4d6963726f6372656469743a205461726765742077616c6c657420616464726560448201526c1cdcc81a5cc81a5b9d985b1a59609a1b6064820152608401610806565b6001820180546001600160a01b0319166001600160a01b03851617905581548155612cf060cd84613277565b50826001600160a01b0316846001600160a01b03167ffe697da51e9b8089b3ac92361b06886b93f48f935848aa4da1148c15b262840a60405160405180910390a350505050565b6033546001600160a01b03163314612d615760405162461bcd60e51b815260040161080690614730565b848114612d805760405162461bcd60e51b81526004016108069061469f565b60005b85811015612eb757600060cc6000898985818110612db157634e487b7160e01b600052603260045260246000fd5b9050602002016020810190612dc69190613f9c565b6001600160a01b03908116825260208083019390935260409182016000208251808401909352805483526001015416918101919091529050838383818110612e1e57634e487b7160e01b600052603260045260246000fd5b9050602002016020810190612e339190613f9c565b8151600090815260d46020526040812060010190888886818110612e6757634e487b7160e01b600052603260045260246000fd5b905060200201358152602001908152602001600020600a0160006101000a8154816001600160a01b0302191690836001600160a01b03160217905550508080612eaf906149f0565b915050612d83565b50505050505050565b612ecb60cf33613240565b612ee75760405162461bcd60e51b81526004016108069061465b565b612b8a86868686868661377e565b6033546001600160a01b03163314612f1f5760405162461bcd60e51b815260040161080690614730565b6001600160a01b038116612f845760405162461bcd60e51b815260206004820152602660248201527f4f776e61626c653a206e6577206f776e657220697320746865207a65726f206160448201526564647265737360d01b6064820152608401610806565b612f8d816134ab565b50565b6033546001600160a01b03163314612fba5760405162461bcd60e51b815260040161080690614730565b6001600160a01b0381166130205760405162461bcd60e51b815260206004820152602760248201527f4d6963726f6372656469743a20726576656e756541646472657373206d757374604482015266081899481cd95d60ca1b6064820152608401610806565b60d180546001600160a01b0319166001600160a01b0392909216919091179055565b61304d60cf33613240565b6130695760405162461bcd60e51b81526004016108069061465b565b8a8981146130895760405162461bcd60e51b81526004016108069061469f565b8088146130a85760405162461bcd60e51b81526004016108069061469f565b8086146130c75760405162461bcd60e51b81526004016108069061469f565b8084146130e65760405162461bcd60e51b81526004016108069061469f565b8082146131055760405162461bcd60e51b81526004016108069061469f565b60005b818110156132305761321e8e8e8381811061313357634e487b7160e01b600052603260045260246000fd5b90506020020160208101906131489190613f9c565b8d8d8481811061316857634e487b7160e01b600052603260045260246000fd5b905060200201602081019061317d9190613f9c565b8c8c8581811061319d57634e487b7160e01b600052603260045260246000fd5b905060200201358b8b868181106131c457634e487b7160e01b600052603260045260246000fd5b905060200201358a8a878181106131eb57634e487b7160e01b600052603260045260246000fd5b9050602002013589898881811061321257634e487b7160e01b600052603260045260246000fd5b9050602002013561377e565b80613228816149f0565b915050613108565b5050505050505050505050505050565b6001600160a01b03811660009081526001830160205260408120541515611437565b6000611437836001600160a01b038416613b09565b6000611437836001600160a01b038416613c26565b60006114378383613c75565b6000610c23825490565b600054610100900460ff166132c95760405162461bcd60e51b8152600401610806906147a7565b6132d1613cad565b611320613cd4565b600054610100900460ff166133005760405162461bcd60e51b8152600401610806906147a7565b613308613cad565b611320613d04565b600054610100900460ff166133375760405162461bcd60e51b8152600401610806906147a7565b611320613d37565b6001600160a01b03808316600090815260cc602090815260409182902082518084019093528054808452600190910154909316908201529015801590613390575060208101516001600160a01b0316155b6133e85760405162461bcd60e51b815260206004820152602360248201527f4d6963726f6372656469743a20496e76616c69642077616c6c6574206164647260448201526265737360e81b6064820152608401610806565b8051600090815260d46020526040902080548310610a3d5760405162461bcd60e51b815260206004820152601f60248201527f4d6963726f6372656469743a204c6f616e20646f65736e2774206578697374006044820152606401610806565b6040516001600160a01b038316602482015260448101829052610ec690849063a9059cbb60e01b906064015b60408051601f198184030181529190526020810180516001600160e01b03166001600160e01b031990931692909217909152613d65565b603380546001600160a01b038381166001600160a01b0319831681179093556040519116919082907f8be0079c531659141344cd1fd0a4f28419497f9722a3daafe3b4186f6b6457e090600090a35050565b613507828261333f565b6001600160a01b03808316600090815260cc602090815260408083208151808301835281548082526001928301549096168185015294845260d483528184208685529081019092529091206004810154156135745760405162461bcd60e51b8152600401610806906146ef565b60038101546135d05760405162461bcd60e51b815260206004820152602260248201527f4d6963726f6372656469743a204c6f616e20616c72656164792063616e63656c604482015261195960f21b6064820152608401610806565b600060038201819055600a8201546001600160a01b0316815260d26020526040812082546001820180549293919290919061360c908490614996565b90915550506040518581526001600160a01b038716907f2f0f5933c0b9b1d9fee69327e7789ce07ef1be486122748fc2a079742067a8089060200160405180910390a2505050505050565b600081600501546000141561366e57506000919050565b6000620151808360090154426136849190614996565b61368e9190614957565b60058401549091505b811561143757670de0b6b3a7640000606485600201546136b79190614957565b6136c990670de0b6b3a764000061493f565b6136d39083614977565b6136dd9190614957565b9050816136e9816149d9565b925050613697565b6040516001600160a01b0380851660248301528316604482015260648101829052610a3d9085906323b872dd60e01b90608401613474565b6001600160a01b038216600081815260d2602052604090209015610ec657818160010154111561377257818160010160008282546137679190614996565b90915550610ec69050565b60006001820155505050565b6001600160a01b038516600090815260d5602052604090205460ff1615156001146137eb5760405162461bcd60e51b815260206004820152601a60248201527f4d6963726f6372656469743a20696e76616c696420746f6b656e0000000000006044820152606401610806565b42811161380a5760405162461bcd60e51b815260040161080690614765565b6001600160a01b03808716600090815260cc602052604090206001810154909116156138845760405162461bcd60e51b8152602060048201526024808201527f4d6963726f6372656469743a20546865207573657220686173206265656e206d6044820152631bdd995960e21b6064820152608401610806565b33600090815260d260205260409020805460018201546138a590889061493f565b11156139245760405162461bcd60e51b815260206004820152604260248201527f4d6963726f6372656469743a204d616e6167657220646f6e277420686176652060448201527f656e6f7567682066756e647320746f20626f72726f77207468697320616d6f756064820152611b9d60f21b608482015260a401610806565b81546139515760ca805490600061393a836149f0565b909155505060ca54825561394f60cd89613277565b505b8154600090815260d46020526040902080548015613a1857600082600101600060018461397e9190614996565b81526020019081526020016000209050600081600401541180156139a457506005810154155b806139b157506003810154155b613a165760405162461bcd60e51b815260206004820152603060248201527f4d6963726f6372656469743a20546865207573657220616c726561647920686160448201526f399030b71030b1ba34bb32903637b0b760811b6064820152608401610806565b505b60008181526001830160205260408120835490918490613a37836149f0565b9091555050600b810180546001600160a01b038c166001600160a01b03199182161790915589825560018083018a90556002830189905560038301889055600a830180549092163317909155840180548a9190600090613a9890849061493f565b909155505060408051838152602081018b905290810189905260608101889052608081018790526001600160a01b03808c1691908d16907fed40ee432e5ffa2f69dfc2b8c7a11d8182b1ed55bc1c557d71af8e38108d8d919060a00160405180910390a35050505050505050505050565b60008181526001830160205260408120548015613c1c576000613b2d600183614996565b8554909150600090613b4190600190614996565b9050818114613bc2576000866000018281548110613b6f57634e487b7160e01b600052603260045260246000fd5b9060005260206000200154905080876000018481548110613ba057634e487b7160e01b600052603260045260246000fd5b6000918252602080832090910192909255918252600188019052604090208390555b8554869080613be157634e487b7160e01b600052603160045260246000fd5b600190038181906000526020600020016000905590558560010160008681526020019081526020016000206000905560019350505050610c23565b6000915050610c23565b6000818152600183016020526040812054613c6d57508154600181810184556000848152602080822090930184905584548482528286019093526040902091909155610c23565b506000610c23565b6000826000018281548110613c9a57634e487b7160e01b600052603260045260246000fd5b9060005260206000200154905092915050565b600054610100900460ff166113205760405162461bcd60e51b8152600401610806906147a7565b600054610100900460ff16613cfb5760405162461bcd60e51b8152600401610806906147a7565b611320336134ab565b600054610100900460ff16613d2b5760405162461bcd60e51b8152600401610806906147a7565b6065805460ff19169055565b600054610100900460ff16613d5e5760405162461bcd60e51b8152600401610806906147a7565b6001609755565b6000613dba826040518060400160405280602081526020017f5361666545524332303a206c6f772d6c6576656c2063616c6c206661696c6564815250856001600160a01b0316613e379092919063ffffffff16565b805190915015610ec65780806020019051810190613dd891906144cf565b610ec65760405162461bcd60e51b815260206004820152602a60248201527f5361666545524332303a204552433230206f7065726174696f6e20646964206e6044820152691bdd081cdd58d8d9595960b21b6064820152608401610806565b60606111d8848460008585843b613e905760405162461bcd60e51b815260206004820152601d60248201527f416464726573733a2063616c6c20746f206e6f6e2d636f6e74726163740000006044820152606401610806565b600080866001600160a01b03168587604051613eac919061460a565b60006040518083038185875af1925050503d8060008114613ee9576040519150601f19603f3d011682016040523d82523d6000602084013e613eee565b606091505b5091509150613efe828286613f09565b979650505050505050565b60608315613f18575081611437565b825115613f285782518084602001fd5b8160405162461bcd60e51b81526004016108069190614648565b8035613f4d81614a37565b919050565b60008083601f840112613f63578081fd5b50813567ffffffffffffffff811115613f7a578182fd5b6020830191508360208260051b8501011115613f9557600080fd5b9250929050565b600060208284031215613fad578081fd5b813561143781614a37565b60008060408385031215613fca578081fd5b8235613fd581614a37565b91506020830135613fe581614a37565b809150509250929050565b60008060008060008060c08789031215614008578182fd5b863561401381614a37565b9550602087013561402381614a37565b95989597505050506040840135936060810135936080820135935060a0909101359150565b60008060008060006060868803121561405f578081fd5b853561406a81614a37565b9450602086013567ffffffffffffffff80821115614086578283fd5b61409289838a01613f52565b909650945060408801359150808211156140aa578283fd5b506140b788828901613f52565b969995985093965092949392505050565b600080604083850312156140da578182fd5b82356140e581614a37565b946020939093013593505050565b600080600060608486031215614107578283fd5b833561411281614a37565b95602085013595506040909401359392505050565b600080600080600080600060e0888a031215614141578081fd5b873561414c81614a37565b9960208901359950604089013598606081013598506080810135975060a0810135965060c00135945092505050565b6000806020838503121561418d578182fd5b823567ffffffffffffffff8111156141a3578283fd5b6141af85828601613f52565b90969095509350505050565b60008060008060008060008060008060008060c08d8f0312156141dc578586fd5b67ffffffffffffffff8d3511156141f1578586fd5b6141fe8e8e358f01613f52565b909c509a5067ffffffffffffffff60208e0135111561421b578586fd5b61422b8e60208f01358f01613f52565b909a50985067ffffffffffffffff60408e01351115614248578586fd5b6142588e60408f01358f01613f52565b909850965067ffffffffffffffff60608e01351115614275578586fd5b6142858e60608f01358f01613f52565b909650945067ffffffffffffffff60808e013511156142a2578384fd5b6142b28e60808f01358f01613f52565b909450925067ffffffffffffffff60a08e013511156142cf578081fd5b6142df8e60a08f01358f01613f52565b81935080925050509295989b509295989b509295989b565b6000806000806040858703121561430c578182fd5b843567ffffffffffffffff80821115614323578384fd5b61432f88838901613f52565b90965094506020870135915080821115614347578384fd5b5061435487828801613f52565b95989497509550505050565b60008060008060008060608789031215614378578384fd5b863567ffffffffffffffff8082111561438f578586fd5b61439b8a838b01613f52565b909850965060208901359150808211156143b3578586fd5b6143bf8a838b01613f52565b909650945060408901359150808211156143d7578384fd5b506143e489828a01613f52565b979a9699509497509295939492505050565b60008060408385031215614408578182fd5b823567ffffffffffffffff8082111561441f578384fd5b818501915085601f830112614432578384fd5b813560208282111561444657614446614a21565b8160051b604051601f19603f8301168101818110868211171561446b5761446b614a21565b604052838152828101945085830182870184018b1015614489578889fd5b8896505b848710156144b25761449e81613f42565b86526001969096019594830194830161448d565b5096506144c29050878201613f42565b9450505050509250929050565b6000602082840312156144e0578081fd5b81518015158114611437578182fd5b600080600060608486031215614503578081fd5b833561450e81614a37565b9250602084013561451e81614a37565b929592945050506040919091013590565b600060208284031215614540578081fd5b813562ffffff81168114611437578182fd5b600060208284031215614563578081fd5b5035919050565b60006020828403121561457b578081fd5b5051919050565b60008060408385031215614594578182fd5b50508035926020909101359150565b600081518084526145bb8160208601602086016149ad565b601f01601f19169290920160200192915050565b606093841b6bffffffffffffffffffffffff19908116825260e89390931b6001600160e81b0319166014820152921b166017820152602b0190565b6000825161461c8184602087016149ad565b9190910192915050565b60408152600061463960408301856145a3565b90508260208301529392505050565b60208152600061143760208301846145a3565b60208082526024908201527f4d6963726f6372656469743a2063616c6c6572206973206e6f742061206d616e60408201526330b3b2b960e11b606082015260800190565b60208082526030908201527f4d6963726f6372656469743a2063616c6c6461746120696e666f726d6174696f60408201526f0dc40c2e4d2e8f240dad2e6dac2e8c6d60831b606082015260800190565b60208082526021908201527f4d6963726f6372656469743a204c6f616e20616c726561647920636c61696d656040820152601960fa1b606082015260800190565b6020808252818101527f4f776e61626c653a2063616c6c6572206973206e6f7420746865206f776e6572604082015260600190565b60208082526022908201527f4d6963726f6372656469743a20696e76616c696420636c61696d446561646c696040820152616e6560f01b606082015260800190565b6020808252602b908201527f496e697469616c697a61626c653a20636f6e7472616374206973206e6f74206960408201526a6e697469616c697a696e6760a81b606082015260800190565b60208082526027908201527f4d6963726f6372656469743a2063616c6c6572206973206e6f742061206d6169604082015266373a30b4b732b960c91b606082015260800190565b6020808252601f908201527f5265656e7472616e637947756172643a207265656e7472616e742063616c6c00604082015260600190565b600061020082019050825182526020830151602083015260408301516040830152606083015160608301526080830151608083015260a083015160a083015260c083015160c083015260e083015160e0830152610100808401518184015250610120808401518184015250610140808401516148f6828501826001600160a01b03169052565b5050610160838101516001600160a01b03169083015261018080840151908301526101a080840151908301526101c080840151908301526101e092830151929091019190915290565b6000821982111561495257614952614a0b565b500190565b60008261497257634e487b7160e01b81526012600452602481fd5b500490565b600081600019048311821515161561499157614991614a0b565b500290565b6000828210156149a8576149a8614a0b565b500390565b60005b838110156149c85781810151838201526020016149b0565b83811115610a3d5750506000910152565b6000816149e8576149e8614a0b565b506000190190565b6000600019821415614a0457614a04614a0b565b5060010190565b634e487b7160e01b600052601160045260246000fd5b634e487b7160e01b600052604160045260246000fd5b6001600160a01b0381168114612f8d57600080fdfea264697066735822122011e0fe44bc9597491ac069f2f84f20ee23ebaf87729230d73c0f2ddfabb1b5c164736f6c63430008040033",
  "devdoc": {
    "events": {
      "ManagerChanged(address,address)": {
        "params": {
          "borrowerAddress": "The address of the borrower",
          "managerAddress": "The address of the new manager"
        }
      }
    },
    "kind": "dev",
    "methods": {
      "addLoan(address,address,uint256,uint256,uint256,uint256)": {
        "params": {
          "_amount": "amount of the loan",
          "_claimDeadline": "claim deadline of the loan",
          "_dailyInterest": "daily interest of the loan",
          "_period": "period of the loan",
          "_tokenAddress": "address of the token",
          "_userAddress": "address of the user"
        }
      },
      "addLoans(address[],address[],uint256[],uint256[],uint256[],uint256[])": {
        "params": {
          "_amounts": "amounts of the loan",
          "_claimDeadlines": "claim deadlines of the loan",
          "_dailyInterests": "daily interests of the loan",
          "_periods": "periods of the loan",
          "_tokenAddresses": "addresses of the tokens",
          "_userAddresses": "addresses of the user"
        }
      },
      "addMaintainers(address[])": {
        "params": {
          "_maintainerAddresses": "addresses of the maintainers"
        }
      },
      "addManagers(address[],uint256[])": {
        "params": {
          "_managerAddresses": "addresses of the managers"
        }
      },
      "addToken(address,address[],uint24[])": {
        "params": {
          "_tokenAddress": "address of the token to be added"
        }
      },
      "cancelLoans(address[],uint256[])": {
        "params": {
          "_loansIds": "Loan ids",
          "_userAddresses": "User addresses"
        }
      },
      "changeManager(address[],address)": {
        "details": "This method doesn't change anything on the contract state, it just emits events to be used by the off-chain system",
        "params": {
          "_borrowerAddresses": "address of the borrowers",
          "_managerAddress": "address of the new manager"
        }
      },
      "changeUserAddress(address,address)": {
        "params": {
          "_newWalletAddress": "New wallet address",
          "_oldWalletAddress": "Old wallet address"
        }
      },
      "claimLoan(uint256)": {
        "params": {
          "_loanId": "Loan ID"
        }
      },
      "editLoan(address,uint256,uint256,uint256,uint256,uint256,uint256)": {
        "params": {
          "_currentLastComputedDate": "used as a control mechanism - if this value doesn't match the loan current lastComputedDate, it means that the user has made a repayment in the mean time so this call is not valid any more"
        }
      },
      "editLoanClaimDeadlines(address[],uint256[],uint256[])": {
        "params": {
          "_loanIds": "id of the loans",
          "_newClaimDeadlines": "new claim deadlines of the loan",
          "_userAddresses": "addresses of the user"
        }
      },
      "inactivateToken(address)": {
        "params": {
          "_tokenAddress": "address of the token to be added"
        }
      },
      "initialize(address,address)": {
        "params": {
          "_cUSDAddress": "The address of the cUSD token",
          "_revenueAddress": "The address that collects all the interest"
        }
      },
      "maintainerListAt(uint256)": {
        "params": {
          "_index": "index value"
        },
        "returns": {
          "_0": "address of the maintainer"
        }
      },
      "managerListAt(uint256)": {
        "params": {
          "_index": "index value"
        },
        "returns": {
          "_0": "address of the manager"
        }
      },
      "owner()": {
        "details": "Returns the address of the current owner."
      },
      "paused()": {
        "details": "Returns true if the contract is paused, and false otherwise."
      },
      "removeMaintainers(address[])": {
        "params": {
          "_maintainerAddresses": "addresses of the maintainers"
        }
      },
      "removeManagers(address[])": {
        "params": {
          "_managerAddresses": "addresses of the managers"
        }
      },
      "renounceOwnership()": {
        "details": "Leaves the contract without owner. It will not be possible to call `onlyOwner` functions anymore. Can only be called by the current owner. NOTE: Renouncing ownership will leave the contract without an owner, thereby removing any functionality that is only available to the owner."
      },
      "repayLoan(uint256,uint256)": {
        "params": {
          "_loanId": "Loan ID",
          "_tokenRepaymentAmount": "Repayment amount"
        }
      },
      "tokenListAt(uint256)": {
        "params": {
          "_index": "index value"
        },
        "returns": {
          "_0": "address of the token"
        }
      },
      "transferERC20(address,address,uint256)": {
        "params": {
          "_amount": "amount of the transaction",
          "_to": "address of the receiver",
          "_token": "address of the ERC20 token"
        }
      },
      "transferOwnership(address)": {
        "details": "Transfers ownership of the contract to a new account (`newOwner`). Can only be called by the current owner."
      },
      "walletListAt(uint256)": {
        "params": {
          "_index": "index value"
        },
        "returns": {
          "_0": "address of the user"
        }
      },
      "walletMetadata(address)": {
        "params": {
          "_userAddress": "address of the user"
        },
        "returns": {
          "loansLength": "          the number of the user's loans",
          "movedTo": "              the number of the user's loans",
          "userId": "               the userId"
        }
      }
    },
    "version": 1
  },
  "userdoc": {
    "events": {
      "ManagerChanged(address,address)": {
        "notice": "Triggered when a borrower's manager has been changed"
      }
    },
    "kind": "user",
    "methods": {
      "addLoan(address,address,uint256,uint256,uint256,uint256)": {
        "notice": "Adds a loan"
      },
      "addLoans(address[],address[],uint256[],uint256[],uint256[],uint256[])": {
        "notice": "Adds multiples loans"
      },
      "addMaintainers(address[])": {
        "notice": "Adds maintainers"
      },
      "addManagers(address[],uint256[])": {
        "notice": "Adds managers"
      },
      "addToken(address,address[],uint24[])": {
        "notice": "Adds a new token"
      },
      "cancelLoans(address[],uint256[])": {
        "notice": "Cancel a loan"
      },
      "changeManager(address[],address)": {
        "notice": "Changes the borrowers manager address"
      },
      "changeUserAddress(address,address)": {
        "notice": "Change user address"
      },
      "claimLoan(uint256)": {
        "notice": "Claim a loan"
      },
      "editLoan(address,uint256,uint256,uint256,uint256,uint256,uint256)": {
        "notice": "Used by owner to fix when an active loan has wrong params"
      },
      "editLoanClaimDeadlines(address[],uint256[],uint256[])": {
        "notice": "Edits multiples loans claim deadline"
      },
      "getVersion()": {
        "notice": "Returns the current implementation version"
      },
      "inactivateToken(address)": {
        "notice": "Adds a new token"
      },
      "initialize(address,address)": {
        "notice": "Used to initialize the Microcredit contract"
      },
      "maintainerListAt(uint256)": {
        "notice": "Returns an address from the maintainerList"
      },
      "maintainerListLength()": {
        "notice": "Returns the length of the maintainerList"
      },
      "managerListAt(uint256)": {
        "notice": "Returns an address from the managerList"
      },
      "managerListLength()": {
        "notice": "Returns the length of the managerList"
      },
      "removeMaintainers(address[])": {
        "notice": "Removes maintainers"
      },
      "removeManagers(address[])": {
        "notice": "Removes managers"
      },
      "repayLoan(uint256,uint256)": {
        "notice": "Repay a loan"
      },
      "tokenListAt(uint256)": {
        "notice": "Returns an address from the tokenList"
      },
      "tokenListLength()": {
        "notice": "Returns the length of the tokenList"
      },
      "transferERC20(address,address,uint256)": {
        "notice": "Transfers an amount of an ERC20 from this contract to an address"
      },
      "walletListAt(uint256)": {
        "notice": "Returns an address from the walletList"
      },
      "walletListLength()": {
        "notice": "Returns the length of the walletList"
      },
      "walletMetadata(address)": {
        "notice": "Returns the information of a user"
      }
    },
    "version": 1
  },
  "storageLayout": {
    "storage": [
      {
        "astId": 205,
        "contract": "contracts/microcredit/MicrocreditImplementation.sol:MicrocreditImplementation",
        "label": "_initialized",
        "offset": 0,
        "slot": "0",
        "type": "t_bool"
      },
      {
        "astId": 208,
        "contract": "contracts/microcredit/MicrocreditImplementation.sol:MicrocreditImplementation",
        "label": "_initializing",
        "offset": 1,
        "slot": "0",
        "type": "t_bool"
      },
      {
        "astId": 1033,
        "contract": "contracts/microcredit/MicrocreditImplementation.sol:MicrocreditImplementation",
        "label": "__gap",
        "offset": 0,
        "slot": "1",
        "type": "t_array(t_uint256)50_storage"
      },
      {
        "astId": 83,
        "contract": "contracts/microcredit/MicrocreditImplementation.sol:MicrocreditImplementation",
        "label": "_owner",
        "offset": 0,
        "slot": "51",
        "type": "t_address"
      },
      {
        "astId": 197,
        "contract": "contracts/microcredit/MicrocreditImplementation.sol:MicrocreditImplementation",
        "label": "__gap",
        "offset": 0,
        "slot": "52",
        "type": "t_array(t_uint256)49_storage"
      },
      {
        "astId": 293,
        "contract": "contracts/microcredit/MicrocreditImplementation.sol:MicrocreditImplementation",
        "label": "_paused",
        "offset": 0,
        "slot": "101",
        "type": "t_bool"
      },
      {
        "astId": 384,
        "contract": "contracts/microcredit/MicrocreditImplementation.sol:MicrocreditImplementation",
        "label": "__gap",
        "offset": 0,
        "slot": "102",
        "type": "t_array(t_uint256)49_storage"
      },
      {
        "astId": 399,
        "contract": "contracts/microcredit/MicrocreditImplementation.sol:MicrocreditImplementation",
        "label": "_status",
        "offset": 0,
        "slot": "151",
        "type": "t_uint256"
      },
      {
        "astId": 442,
        "contract": "contracts/microcredit/MicrocreditImplementation.sol:MicrocreditImplementation",
        "label": "__gap",
        "offset": 0,
        "slot": "152",
        "type": "t_array(t_uint256)49_storage"
      },
      {
        "astId": 8016,
        "contract": "contracts/microcredit/MicrocreditImplementation.sol:MicrocreditImplementation",
        "label": "cUSD",
        "offset": 0,
        "slot": "201",
        "type": "t_contract(IERC20Upgradeable)521"
      },
      {
        "astId": 8018,
        "contract": "contracts/microcredit/MicrocreditImplementation.sol:MicrocreditImplementation",
        "label": "_usersLength",
        "offset": 0,
        "slot": "202",
        "type": "t_uint256"
      },
      {
        "astId": 8023,
        "contract": "contracts/microcredit/MicrocreditImplementation.sol:MicrocreditImplementation",
        "label": "_usersOld",
        "offset": 0,
        "slot": "203",
        "type": "t_mapping(t_uint256,t_struct(UserOld)7582_storage)"
      },
      {
        "astId": 8028,
        "contract": "contracts/microcredit/MicrocreditImplementation.sol:MicrocreditImplementation",
        "label": "_walletMetadata",
        "offset": 0,
        "slot": "204",
        "type": "t_mapping(t_address,t_struct(WalletMetadata)7608_storage)"
      },
      {
        "astId": 8031,
        "contract": "contracts/microcredit/MicrocreditImplementation.sol:MicrocreditImplementation",
        "label": "_walletList",
        "offset": 0,
        "slot": "205",
        "type": "t_struct(AddressSet)2594_storage"
      },
      {
        "astId": 8034,
        "contract": "contracts/microcredit/MicrocreditImplementation.sol:MicrocreditImplementation",
        "label": "_managerList",
        "offset": 0,
        "slot": "207",
        "type": "t_struct(AddressSet)2594_storage"
      },
      {
        "astId": 8037,
        "contract": "contracts/microcredit/MicrocreditImplementation.sol:MicrocreditImplementation",
        "label": "revenueAddress",
        "offset": 0,
        "slot": "209",
        "type": "t_address"
      },
      {
        "astId": 8042,
        "contract": "contracts/microcredit/MicrocreditImplementation.sol:MicrocreditImplementation",
        "label": "_managers",
        "offset": 0,
        "slot": "210",
        "type": "t_mapping(t_address,t_struct(Manager)7621_storage)"
      },
      {
        "astId": 8046,
        "contract": "contracts/microcredit/MicrocreditImplementation.sol:MicrocreditImplementation",
        "label": "donationMiner",
        "offset": 0,
        "slot": "211",
        "type": "t_contract(IDonationMiner)4305"
      },
      {
        "astId": 8051,
        "contract": "contracts/microcredit/MicrocreditImplementation.sol:MicrocreditImplementation",
        "label": "_users",
        "offset": 0,
        "slot": "212",
        "type": "t_mapping(t_uint256,t_struct(User)7616_storage)"
      },
      {
        "astId": 8056,
        "contract": "contracts/microcredit/MicrocreditImplementation.sol:MicrocreditImplementation",
        "label": "_tokens",
        "offset": 0,
        "slot": "213",
        "type": "t_mapping(t_address,t_struct(Token)7670_storage)"
      },
      {
        "astId": 8059,
        "contract": "contracts/microcredit/MicrocreditImplementation.sol:MicrocreditImplementation",
        "label": "_tokenList",
        "offset": 0,
        "slot": "214",
        "type": "t_struct(AddressSet)2594_storage"
      },
      {
        "astId": 8063,
        "contract": "contracts/microcredit/MicrocreditImplementation.sol:MicrocreditImplementation",
        "label": "uniswapRouter",
        "offset": 0,
        "slot": "216",
        "type": "t_contract(IUniswapRouter02)4680"
      },
      {
        "astId": 8067,
        "contract": "contracts/microcredit/MicrocreditImplementation.sol:MicrocreditImplementation",
        "label": "uniswapQuoter",
        "offset": 0,
        "slot": "217",
        "type": "t_contract(IQuoter)4634"
      },
      {
        "astId": 8071,
        "contract": "contracts/microcredit/MicrocreditImplementation.sol:MicrocreditImplementation",
        "label": "microcreditManager",
        "offset": 0,
        "slot": "218",
        "type": "t_contract(IMicrocreditManager)8297"
      },
      {
        "astId": 8074,
        "contract": "contracts/microcredit/MicrocreditImplementation.sol:MicrocreditImplementation",
        "label": "_maintainerList",
        "offset": 0,
        "slot": "219",
        "type": "t_struct(AddressSet)2594_storage"
      }
    ],
    "types": {
      "t_address": {
        "encoding": "inplace",
        "label": "address",
        "numberOfBytes": "20"
      },
      "t_array(t_bytes32)dyn_storage": {
        "base": "t_bytes32",
        "encoding": "dynamic_array",
        "label": "bytes32[]",
        "numberOfBytes": "32"
      },
      "t_array(t_struct(LoanOld)7603_storage)dyn_storage": {
        "base": "t_struct(LoanOld)7603_storage",
        "encoding": "dynamic_array",
        "label": "struct IMicrocredit.LoanOld[]",
        "numberOfBytes": "32"
      },
      "t_array(t_struct(Repayment)7628_storage)dyn_storage": {
        "base": "t_struct(Repayment)7628_storage",
        "encoding": "dynamic_array",
        "label": "struct IMicrocredit.Repayment[]",
        "numberOfBytes": "32"
      },
      "t_array(t_uint256)49_storage": {
        "base": "t_uint256",
        "encoding": "inplace",
        "label": "uint256[49]",
        "numberOfBytes": "1568"
      },
      "t_array(t_uint256)50_storage": {
        "base": "t_uint256",
        "encoding": "inplace",
        "label": "uint256[50]",
        "numberOfBytes": "1600"
      },
      "t_bool": {
        "encoding": "inplace",
        "label": "bool",
        "numberOfBytes": "1"
      },
      "t_bytes32": {
        "encoding": "inplace",
        "label": "bytes32",
        "numberOfBytes": "32"
      },
      "t_contract(IDonationMiner)4305": {
        "encoding": "inplace",
        "label": "contract IDonationMiner",
        "numberOfBytes": "20"
      },
      "t_contract(IERC20Upgradeable)521": {
        "encoding": "inplace",
        "label": "contract IERC20Upgradeable",
        "numberOfBytes": "20"
      },
      "t_contract(IMicrocreditManager)8297": {
        "encoding": "inplace",
        "label": "contract IMicrocreditManager",
        "numberOfBytes": "20"
      },
      "t_contract(IQuoter)4634": {
        "encoding": "inplace",
        "label": "contract IQuoter",
        "numberOfBytes": "20"
      },
      "t_contract(IUniswapRouter02)4680": {
        "encoding": "inplace",
        "label": "contract IUniswapRouter02",
        "numberOfBytes": "20"
      },
      "t_mapping(t_address,t_struct(Manager)7621_storage)": {
        "encoding": "mapping",
        "key": "t_address",
        "label": "mapping(address => struct IMicrocredit.Manager)",
        "numberOfBytes": "32",
        "value": "t_struct(Manager)7621_storage"
      },
      "t_mapping(t_address,t_struct(Token)7670_storage)": {
        "encoding": "mapping",
        "key": "t_address",
        "label": "mapping(address => struct IMicrocredit.Token)",
        "numberOfBytes": "32",
        "value": "t_struct(Token)7670_storage"
      },
      "t_mapping(t_address,t_struct(WalletMetadata)7608_storage)": {
        "encoding": "mapping",
        "key": "t_address",
        "label": "mapping(address => struct IMicrocredit.WalletMetadata)",
        "numberOfBytes": "32",
        "value": "t_struct(WalletMetadata)7608_storage"
      },
      "t_mapping(t_address,t_uint24)": {
        "encoding": "mapping",
        "key": "t_address",
        "label": "mapping(address => uint24)",
        "numberOfBytes": "32",
        "value": "t_uint24"
      },
      "t_mapping(t_bytes32,t_uint256)": {
        "encoding": "mapping",
        "key": "t_bytes32",
        "label": "mapping(bytes32 => uint256)",
        "numberOfBytes": "32",
        "value": "t_uint256"
      },
      "t_mapping(t_uint256,t_struct(Loan)7660_storage)": {
        "encoding": "mapping",
        "key": "t_uint256",
        "label": "mapping(uint256 => struct IMicrocredit.Loan)",
        "numberOfBytes": "32",
        "value": "t_struct(Loan)7660_storage"
      },
      "t_mapping(t_uint256,t_struct(Repayment)7628_storage)": {
        "encoding": "mapping",
        "key": "t_uint256",
        "label": "mapping(uint256 => struct IMicrocredit.Repayment)",
        "numberOfBytes": "32",
        "value": "t_struct(Repayment)7628_storage"
      },
      "t_mapping(t_uint256,t_struct(User)7616_storage)": {
        "encoding": "mapping",
        "key": "t_uint256",
        "label": "mapping(uint256 => struct IMicrocredit.User)",
        "numberOfBytes": "32",
        "value": "t_struct(User)7616_storage"
      },
      "t_mapping(t_uint256,t_struct(UserOld)7582_storage)": {
        "encoding": "mapping",
        "key": "t_uint256",
        "label": "mapping(uint256 => struct IMicrocredit.UserOld)",
        "numberOfBytes": "32",
        "value": "t_struct(UserOld)7582_storage"
      },
      "t_struct(AddressSet)2594_storage": {
        "encoding": "inplace",
        "label": "struct EnumerableSet.AddressSet",
        "members": [
          {
            "astId": 2593,
            "contract": "contracts/microcredit/MicrocreditImplementation.sol:MicrocreditImplementation",
            "label": "_inner",
            "offset": 0,
            "slot": "0",
            "type": "t_struct(Set)2293_storage"
          }
        ],
        "numberOfBytes": "64"
      },
      "t_struct(Loan)7660_storage": {
        "encoding": "inplace",
        "label": "struct IMicrocredit.Loan",
        "members": [
          {
            "astId": 7630,
            "contract": "contracts/microcredit/MicrocreditImplementation.sol:MicrocreditImplementation",
            "label": "amountBorrowed",
            "offset": 0,
            "slot": "0",
            "type": "t_uint256"
          },
          {
            "astId": 7632,
            "contract": "contracts/microcredit/MicrocreditImplementation.sol:MicrocreditImplementation",
            "label": "period",
            "offset": 0,
            "slot": "1",
            "type": "t_uint256"
          },
          {
            "astId": 7634,
            "contract": "contracts/microcredit/MicrocreditImplementation.sol:MicrocreditImplementation",
            "label": "dailyInterest",
            "offset": 0,
            "slot": "2",
            "type": "t_uint256"
          },
          {
            "astId": 7636,
            "contract": "contracts/microcredit/MicrocreditImplementation.sol:MicrocreditImplementation",
            "label": "claimDeadline",
            "offset": 0,
            "slot": "3",
            "type": "t_uint256"
          },
          {
            "astId": 7638,
            "contract": "contracts/microcredit/MicrocreditImplementation.sol:MicrocreditImplementation",
            "label": "startDate",
            "offset": 0,
            "slot": "4",
            "type": "t_uint256"
          },
          {
            "astId": 7640,
            "contract": "contracts/microcredit/MicrocreditImplementation.sol:MicrocreditImplementation",
            "label": "lastComputedDebt",
            "offset": 0,
            "slot": "5",
            "type": "t_uint256"
          },
          {
            "astId": 7642,
            "contract": "contracts/microcredit/MicrocreditImplementation.sol:MicrocreditImplementation",
            "label": "amountRepayed",
            "offset": 0,
            "slot": "6",
            "type": "t_uint256"
          },
          {
            "astId": 7644,
            "contract": "contracts/microcredit/MicrocreditImplementation.sol:MicrocreditImplementation",
            "label": "repaymentsLength",
            "offset": 0,
            "slot": "7",
            "type": "t_uint256"
          },
          {
            "astId": 7649,
            "contract": "contracts/microcredit/MicrocreditImplementation.sol:MicrocreditImplementation",
            "label": "repayments",
            "offset": 0,
            "slot": "8",
            "type": "t_mapping(t_uint256,t_struct(Repayment)7628_storage)"
          },
          {
            "astId": 7651,
            "contract": "contracts/microcredit/MicrocreditImplementation.sol:MicrocreditImplementation",
            "label": "lastComputedDate",
            "offset": 0,
            "slot": "9",
            "type": "t_uint256"
          },
          {
            "astId": 7653,
            "contract": "contracts/microcredit/MicrocreditImplementation.sol:MicrocreditImplementation",
            "label": "managerAddress",
            "offset": 0,
            "slot": "10",
            "type": "t_address"
          },
          {
            "astId": 7655,
            "contract": "contracts/microcredit/MicrocreditImplementation.sol:MicrocreditImplementation",
            "label": "tokenAddress",
            "offset": 0,
            "slot": "11",
            "type": "t_address"
          },
          {
            "astId": 7657,
            "contract": "contracts/microcredit/MicrocreditImplementation.sol:MicrocreditImplementation",
            "label": "tokenAmountBorrowed",
            "offset": 0,
            "slot": "12",
            "type": "t_uint256"
          },
          {
            "astId": 7659,
            "contract": "contracts/microcredit/MicrocreditImplementation.sol:MicrocreditImplementation",
            "label": "tokenAmountRepayed",
            "offset": 0,
            "slot": "13",
            "type": "t_uint256"
          }
        ],
        "numberOfBytes": "448"
      },
      "t_struct(LoanOld)7603_storage": {
        "encoding": "inplace",
        "label": "struct IMicrocredit.LoanOld",
        "members": [
          {
            "astId": 7584,
            "contract": "contracts/microcredit/MicrocreditImplementation.sol:MicrocreditImplementation",
            "label": "amountBorrowed",
            "offset": 0,
            "slot": "0",
            "type": "t_uint256"
          },
          {
            "astId": 7586,
            "contract": "contracts/microcredit/MicrocreditImplementation.sol:MicrocreditImplementation",
            "label": "period",
            "offset": 0,
            "slot": "1",
            "type": "t_uint256"
          },
          {
            "astId": 7588,
            "contract": "contracts/microcredit/MicrocreditImplementation.sol:MicrocreditImplementation",
            "label": "dailyInterest",
            "offset": 0,
            "slot": "2",
            "type": "t_uint256"
          },
          {
            "astId": 7590,
            "contract": "contracts/microcredit/MicrocreditImplementation.sol:MicrocreditImplementation",
            "label": "claimDeadline",
            "offset": 0,
            "slot": "3",
            "type": "t_uint256"
          },
          {
            "astId": 7592,
            "contract": "contracts/microcredit/MicrocreditImplementation.sol:MicrocreditImplementation",
            "label": "startDate",
            "offset": 0,
            "slot": "4",
            "type": "t_uint256"
          },
          {
            "astId": 7594,
            "contract": "contracts/microcredit/MicrocreditImplementation.sol:MicrocreditImplementation",
            "label": "lastComputedDebt",
            "offset": 0,
            "slot": "5",
            "type": "t_uint256"
          },
          {
            "astId": 7596,
            "contract": "contracts/microcredit/MicrocreditImplementation.sol:MicrocreditImplementation",
            "label": "amountRepayed",
            "offset": 0,
            "slot": "6",
            "type": "t_uint256"
          },
          {
            "astId": 7600,
            "contract": "contracts/microcredit/MicrocreditImplementation.sol:MicrocreditImplementation",
            "label": "repayments",
            "offset": 0,
            "slot": "7",
            "type": "t_array(t_struct(Repayment)7628_storage)dyn_storage"
          },
          {
            "astId": 7602,
            "contract": "contracts/microcredit/MicrocreditImplementation.sol:MicrocreditImplementation",
            "label": "lastComputedDate",
            "offset": 0,
            "slot": "8",
            "type": "t_uint256"
          }
        ],
        "numberOfBytes": "288"
      },
      "t_struct(Manager)7621_storage": {
        "encoding": "inplace",
        "label": "struct IMicrocredit.Manager",
        "members": [
          {
            "astId": 7618,
            "contract": "contracts/microcredit/MicrocreditImplementation.sol:MicrocreditImplementation",
            "label": "lentAmountLimit",
            "offset": 0,
            "slot": "0",
            "type": "t_uint256"
          },
          {
            "astId": 7620,
            "contract": "contracts/microcredit/MicrocreditImplementation.sol:MicrocreditImplementation",
            "label": "lentAmount",
            "offset": 0,
            "slot": "1",
            "type": "t_uint256"
          }
        ],
        "numberOfBytes": "64"
      },
      "t_struct(Repayment)7628_storage": {
        "encoding": "inplace",
        "label": "struct IMicrocredit.Repayment",
        "members": [
          {
            "astId": 7623,
            "contract": "contracts/microcredit/MicrocreditImplementation.sol:MicrocreditImplementation",
            "label": "date",
            "offset": 0,
            "slot": "0",
            "type": "t_uint256"
          },
          {
            "astId": 7625,
            "contract": "contracts/microcredit/MicrocreditImplementation.sol:MicrocreditImplementation",
            "label": "amount",
            "offset": 0,
            "slot": "1",
            "type": "t_uint256"
          },
          {
            "astId": 7627,
            "contract": "contracts/microcredit/MicrocreditImplementation.sol:MicrocreditImplementation",
            "label": "tokenAmount",
            "offset": 0,
            "slot": "2",
            "type": "t_uint256"
          }
        ],
        "numberOfBytes": "96"
      },
      "t_struct(Set)2293_storage": {
        "encoding": "inplace",
        "label": "struct EnumerableSet.Set",
        "members": [
          {
            "astId": 2288,
            "contract": "contracts/microcredit/MicrocreditImplementation.sol:MicrocreditImplementation",
            "label": "_values",
            "offset": 0,
            "slot": "0",
            "type": "t_array(t_bytes32)dyn_storage"
          },
          {
            "astId": 2292,
            "contract": "contracts/microcredit/MicrocreditImplementation.sol:MicrocreditImplementation",
            "label": "_indexes",
            "offset": 0,
            "slot": "1",
            "type": "t_mapping(t_bytes32,t_uint256)"
          }
        ],
        "numberOfBytes": "64"
      },
      "t_struct(Token)7670_storage": {
        "encoding": "inplace",
        "label": "struct IMicrocredit.Token",
        "members": [
          {
            "astId": 7662,
            "contract": "contracts/microcredit/MicrocreditImplementation.sol:MicrocreditImplementation",
            "label": "active",
            "offset": 0,
            "slot": "0",
            "type": "t_bool"
          },
          {
            "astId": 7665,
            "contract": "contracts/microcredit/MicrocreditImplementation.sol:MicrocreditImplementation",
            "label": "exchangeTokens",
            "offset": 0,
            "slot": "1",
            "type": "t_struct(AddressSet)2594_storage"
          },
          {
            "astId": 7669,
            "contract": "contracts/microcredit/MicrocreditImplementation.sol:MicrocreditImplementation",
            "label": "exchangeTokensFees",
            "offset": 0,
            "slot": "3",
            "type": "t_mapping(t_address,t_uint24)"
          }
        ],
        "numberOfBytes": "128"
      },
      "t_struct(User)7616_storage": {
        "encoding": "inplace",
        "label": "struct IMicrocredit.User",
        "members": [
          {
            "astId": 7610,
            "contract": "contracts/microcredit/MicrocreditImplementation.sol:MicrocreditImplementation",
            "label": "loansLength",
            "offset": 0,
            "slot": "0",
            "type": "t_uint256"
          },
          {
            "astId": 7615,
            "contract": "contracts/microcredit/MicrocreditImplementation.sol:MicrocreditImplementation",
            "label": "loans",
            "offset": 0,
            "slot": "1",
            "type": "t_mapping(t_uint256,t_struct(Loan)7660_storage)"
          }
        ],
        "numberOfBytes": "64"
      },
      "t_struct(UserOld)7582_storage": {
        "encoding": "inplace",
        "label": "struct IMicrocredit.UserOld",
        "members": [
          {
            "astId": 7581,
            "contract": "contracts/microcredit/MicrocreditImplementation.sol:MicrocreditImplementation",
            "label": "loans",
            "offset": 0,
            "slot": "0",
            "type": "t_array(t_struct(LoanOld)7603_storage)dyn_storage"
          }
        ],
        "numberOfBytes": "32"
      },
      "t_struct(WalletMetadata)7608_storage": {
        "encoding": "inplace",
        "label": "struct IMicrocredit.WalletMetadata",
        "members": [
          {
            "astId": 7605,
            "contract": "contracts/microcredit/MicrocreditImplementation.sol:MicrocreditImplementation",
            "label": "userId",
            "offset": 0,
            "slot": "0",
            "type": "t_uint256"
          },
          {
            "astId": 7607,
            "contract": "contracts/microcredit/MicrocreditImplementation.sol:MicrocreditImplementation",
            "label": "movedTo",
            "offset": 0,
            "slot": "1",
            "type": "t_address"
          }
        ],
        "numberOfBytes": "64"
      },
      "t_uint24": {
        "encoding": "inplace",
        "label": "uint24",
        "numberOfBytes": "3"
      },
      "t_uint256": {
        "encoding": "inplace",
        "label": "uint256",
        "numberOfBytes": "32"
      }
    }
  }
}