{
  "address": "0x6e6b29711A6544cf928708EE0FAA1021FC0DBbEc",
  "abi": [
    {
      "anonymous": false,
      "inputs": [
        {
          "indexed": true,
          "internalType": "address",
          "name": "holder",
          "type": "address"
        },
        {
          "indexed": false,
          "internalType": "uint256",
          "name": "amount",
          "type": "uint256"
        }
      ],
      "name": "Claimed",
      "type": "event"
    },
    {
      "anonymous": false,
      "inputs": [
        {
          "indexed": true,
          "internalType": "address",
          "name": "holder",
          "type": "address"
        },
        {
          "indexed": false,
          "internalType": "uint256",
          "name": "amount",
          "type": "uint256"
        },
        {
          "indexed": false,
          "internalType": "uint256",
          "name": "lastUnstakeId",
          "type": "uint256"
        }
      ],
      "name": "ClaimedPartial",
      "type": "event"
    },
    {
      "anonymous": false,
      "inputs": [
        {
          "indexed": false,
          "internalType": "uint256",
          "name": "oldCooldown",
          "type": "uint256"
        },
        {
          "indexed": false,
          "internalType": "uint256",
          "name": "newCooldown",
          "type": "uint256"
        }
      ],
      "name": "CooldownUpdated",
      "type": "event"
    },
    {
      "anonymous": false,
      "inputs": [
        {
          "indexed": true,
          "internalType": "address",
          "name": "previousOwner",
          "type": "address"
        },
        {
          "indexed": true,
          "internalType": "address",
          "name": "newOwner",
          "type": "address"
        }
      ],
      "name": "OwnershipTransferred",
      "type": "event"
    },
    {
      "anonymous": false,
      "inputs": [
        {
          "indexed": true,
          "internalType": "address",
          "name": "holder",
          "type": "address"
        },
        {
          "indexed": false,
          "internalType": "uint256",
          "name": "amount",
          "type": "uint256"
        }
      ],
      "name": "Staked",
      "type": "event"
    },
    {
      "anonymous": false,
      "inputs": [
        {
          "indexed": true,
          "internalType": "address",
          "name": "holder",
          "type": "address"
        },
        {
          "indexed": false,
          "internalType": "uint256",
          "name": "amount",
          "type": "uint256"
        }
      ],
      "name": "Unstaked",
      "type": "event"
    },
    {
      "inputs": [],
      "name": "PACT",
      "outputs": [
        {
          "internalType": "contract IERC20",
          "name": "",
          "type": "address"
        }
      ],
      "stateMutability": "view",
      "type": "function"
    },
    {
      "inputs": [],
      "name": "SPACT",
      "outputs": [
        {
          "internalType": "contract IMintableERC20",
          "name": "",
          "type": "address"
        }
      ],
      "stateMutability": "view",
      "type": "function"
    },
    {
      "inputs": [],
      "name": "claim",
      "outputs": [],
      "stateMutability": "nonpayable",
      "type": "function"
    },
    {
      "inputs": [
        {
          "internalType": "address",
          "name": "_holderAddress",
          "type": "address"
        }
      ],
      "name": "claimAmount",
      "outputs": [
        {
          "internalType": "uint256",
          "name": "",
          "type": "uint256"
        }
      ],
      "stateMutability": "view",
      "type": "function"
    },
    {
      "inputs": [
        {
          "internalType": "uint256",
          "name": "_lastUnstakeId",
          "type": "uint256"
        }
      ],
      "name": "claimPartial",
      "outputs": [],
      "stateMutability": "nonpayable",
      "type": "function"
    },
    {
      "inputs": [],
      "name": "cooldown",
      "outputs": [
        {
          "internalType": "uint256",
          "name": "",
          "type": "uint256"
        }
      ],
      "stateMutability": "view",
      "type": "function"
    },
    {
      "inputs": [],
      "name": "currentTotalAmount",
      "outputs": [
        {
          "internalType": "uint256",
          "name": "",
          "type": "uint256"
        }
      ],
      "stateMutability": "view",
      "type": "function"
    },
    {
      "inputs": [],
      "name": "donationMiner",
      "outputs": [
        {
          "internalType": "contract IDonationMiner",
          "name": "",
          "type": "address"
        }
      ],
      "stateMutability": "view",
      "type": "function"
    },
    {
      "inputs": [],
      "name": "getVersion",
      "outputs": [
        {
          "internalType": "uint256",
          "name": "",
          "type": "uint256"
        }
      ],
      "stateMutability": "pure",
      "type": "function"
    },
    {
      "inputs": [
        {
          "internalType": "contract IERC20",
          "name": "_PACT",
          "type": "address"
        },
        {
          "internalType": "contract IMintableERC20",
          "name": "_SPACT",
          "type": "address"
        },
        {
          "internalType": "contract IDonationMiner",
          "name": "_donationMiner",
          "type": "address"
        },
        {
          "internalType": "uint256",
          "name": "_cooldown",
          "type": "uint256"
        }
      ],
      "name": "initialize",
      "outputs": [],
      "stateMutability": "nonpayable",
      "type": "function"
    },
    {
      "inputs": [],
      "name": "owner",
      "outputs": [
        {
          "internalType": "address",
          "name": "",
          "type": "address"
        }
      ],
      "stateMutability": "view",
      "type": "function"
    },
    {
      "inputs": [],
      "name": "renounceOwnership",
      "outputs": [],
      "stateMutability": "nonpayable",
      "type": "function"
    },
    {
      "inputs": [
        {
          "internalType": "address",
          "name": "_holderAddress",
          "type": "address"
        },
        {
          "internalType": "uint256",
          "name": "_amount",
          "type": "uint256"
        }
      ],
      "name": "stake",
      "outputs": [],
      "stateMutability": "nonpayable",
      "type": "function"
    },
    {
      "inputs": [
        {
          "internalType": "address",
          "name": "_holderAddress",
          "type": "address"
        }
      ],
      "name": "stakeholderAmount",
      "outputs": [
        {
          "internalType": "uint256",
          "name": "",
          "type": "uint256"
        }
      ],
      "stateMutability": "view",
      "type": "function"
    },
    {
      "inputs": [
        {
          "internalType": "uint256",
          "name": "_index",
          "type": "uint256"
        }
      ],
      "name": "stakeholdersListAt",
      "outputs": [
        {
          "internalType": "address",
          "name": "",
          "type": "address"
        }
      ],
      "stateMutability": "view",
      "type": "function"
    },
    {
      "inputs": [],
      "name": "stakeholdersListLength",
      "outputs": [
        {
          "internalType": "uint256",
          "name": "",
          "type": "uint256"
        }
      ],
      "stateMutability": "view",
      "type": "function"
    },
    {
      "inputs": [
        {
          "internalType": "address",
          "name": "newOwner",
          "type": "address"
        }
      ],
      "name": "transferOwnership",
      "outputs": [],
      "stateMutability": "nonpayable",
      "type": "function"
    },
    {
      "inputs": [
        {
          "internalType": "uint256",
          "name": "_amount",
          "type": "uint256"
        }
      ],
      "name": "unstake",
      "outputs": [],
      "stateMutability": "nonpayable",
      "type": "function"
    },
    {
      "inputs": [
        {
          "internalType": "uint256",
          "name": "_newCooldown",
          "type": "uint256"
        }
      ],
      "name": "updateCooldown",
      "outputs": [],
      "stateMutability": "nonpayable",
      "type": "function"
    }
  ],
  "transactionHash": "0x68c971a371fe755b61c8f8489bb9e863066705eb0a7da755bd7eba5a816b8f02",
  "args": [],
  "numDeployments": 1,
  "solcInputHash": "fccc3166fc54459c9b82e50d634ae714",
  "bytecode": "0x608060405234801561001057600080fd5b50611661806100206000396000f3fe608060405234801561001057600080fd5b50600436106101215760003560e01c806378317be7116100ad578063adc9772e11610071578063adc9772e1461022c578063cf756fdf1461023f578063e36d4f3e14610252578063ec98518e14610265578063f2fde38b1461027857600080fd5b806378317be7146101ee578063787a08a61461020157806384f1265b1461020a5780638c58d0a9146102125780638da5cb5b1461021b57600080fd5b80634e71d92d116100f45780634e71d92d1461018f57806352a8088f1461019757806355119df9146101aa5780636bbea1b4146101bd578063715018a6146101e657600080fd5b80630d8e6e2c1461012657806319e815f91461013c5780632e17de78146101675780633b9a01761461017c575b600080fd5b60015b6040519081526020015b60405180910390f35b60985461014f906001600160a01b031681565b6040516001600160a01b039091168152602001610133565b61017a61017536600461146c565b61028b565b005b60975461014f906001600160a01b031681565b61017a6104de565b61017a6101a536600461146c565b6105c7565b61017a6101b836600461146c565b6106ad565b6101296101cb3660046113b5565b6001600160a01b03166000908152609c602052604090205490565b61017a610718565b6101296101fc3660046113b5565b61074e565b610129609a5481565b610129610827565b610129609b5481565b6033546001600160a01b031661014f565b61017a61023a3660046113d1565b610838565b61017a61024d36600461141c565b610ab3565b60995461014f906001600160a01b031681565b61014f61027336600461146c565b610d01565b61017a6102863660046113b5565b610d14565b600081116102f75760405162461bcd60e51b815260206004820152602e60248201527f5374616b653a3a756e7374616b653a20556e7374616b6520616d6f756e74207360448201526d0686f756c64206e6f7420626520360941b60648201526084015b60405180910390fd5b6001600160601b0381111561035d5760405162461bcd60e51b815260206004820152602660248201527f5374616b653a3a756e7374616b653a20556e7374616b6520616d6f756e7420746044820152656f6f2062696760d01b60648201526084016102ee565b336000908152609c6020526040902080548211156103bd5760405162461bcd60e51b815260206004820181905260248201527f5374616b653a3a756e7374616b653a204e6f7420656e6f7567682066756e647360448201526064016102ee565b806002016040518060400160405280848152602001609a54436103e0919061158a565b9052815460018181018455600093845260208085208451600290940201928355909201519101558154839183916104189084906115a2565b9250508190555081609b600082825461043191906115a2565b90915550506099548154609b5460405163ad3e48c560e01b8152336004820152602481019290925260448201526001600160a01b039091169063ad3e48c590606401600060405180830381600087803b15801561048d57600080fd5b505af11580156104a1573d6000803e3d6000fd5b50506040518481523392507f0f5bb82176feb1b5e747e28471aa92156a04d9f3ab9f45f28e2d704232b93f75915060200160405180910390a25050565b600260655414156105015760405162461bcd60e51b81526004016102ee90611553565b60026065819055336000908152609c6020526040902001546105655760405162461bcd60e51b815260206004820152601f60248201527f5374616b653a3a636c61696d3a204e6f2066756e647320746f20636c61696d0060448201526064016102ee565b336000818152609c60205260409020600201547fd8138f8a3f377c5259ca548e70e4c2de94f129f5a11036a15b69513cba2b426a906105af906105aa906001906115a2565b610daf565b60405190815260200160405180910390a26001606555565b600260655414156105ea5760405162461bcd60e51b81526004016102ee90611553565b60026065819055336000908152609c60205260409020015481106106635760405162461bcd60e51b815260206004820152602a60248201527f5374616b653a3a636c61696d5061727469616c3a206c617374556e7374616b65604482015269496420746f6f2062696760b01b60648201526084016102ee565b337f5239dcc98d7316a9bcc086298a1940913af527d281cb606f3d6de92008fa2c5461068e83610daf565b60408051918252602082018590520160405180910390a2506001606555565b6033546001600160a01b031633146106d75760405162461bcd60e51b81526004016102ee906114d3565b609a5460408051918252602082018390527f5953b565c074c2cce1866b4e69c9efc4908556bb6fca70f735907c94d9405515910160405180910390a1609a55565b6033546001600160a01b031633146107425760405162461bcd60e51b81526004016102ee906114d3565b61074c6000610f3c565b565b6001600160a01b0381166000908152609c6020526040812060028101546107785750600092915050565b600181015460005b6002830154821080156107c65750438360020183815481106107b257634e487b7160e01b600052603260045260246000fd5b906000526020600020906002020160010154105b1561081f578260020182815481106107ee57634e487b7160e01b600052603260045260246000fd5b9060005260206000209060020201600001548161080b919061158a565b905081610817816115e5565b925050610780565b949350505050565b6000610833609d610f8e565b905090565b6002606554141561085b5760405162461bcd60e51b81526004016102ee90611553565b6002606555806108ad5760405162461bcd60e51b815260206004820152601f60248201527f5374616b653a3a7374616b653a20416d6f756e742063616e277420626520300060448201526064016102ee565b6001600160601b0381111561090f5760405162461bcd60e51b815260206004820152602260248201527f5374616b653a3a7374616b653a205374616b6520616d6f756e7420746f6f2062604482015261696760f01b60648201526084016102ee565b609754610927906001600160a01b0316333084610f98565b609854604051626c096960e61b81526001600160a01b0384811660048301526001600160601b038416602483015290911690631b025a4090604401600060405180830381600087803b15801561097c57600080fd5b505af1158015610990573d6000803e3d6000fd5b505050506109a882609d61100990919063ffffffff16565b506001600160a01b0382166000908152609c602052604081208054909183918391906109d590849061158a565b9250508190555081609b60008282546109ee919061158a565b90915550506099548154609b5460405163ad3e48c560e01b81526001600160a01b0387811660048301526024820193909352604481019190915291169063ad3e48c590606401600060405180830381600087803b158015610a4e57600080fd5b505af1158015610a62573d6000803e3d6000fd5b50505050826001600160a01b03167f9e71bc8eea02a63969f509818f2dafb9254532904319f9dbda79b67bd34a5f3d83604051610aa191815260200190565b60405180910390a25050600160655550565b600054610100900460ff16610ace5760005460ff1615610ad2565b303b155b610b355760405162461bcd60e51b815260206004820152602e60248201527f496e697469616c697a61626c653a20636f6e747261637420697320616c72656160448201526d191e481a5b9a5d1a585b1a5e995960921b60648201526084016102ee565b600054610100900460ff16158015610b57576000805461ffff19166101011790555b6001600160a01b038516610bbe5760405162461bcd60e51b815260206004820152602860248201527f5374616b653a3a696e697469616c697a653a20696e76616c6964205f50414354604482015267206164647265737360c01b60648201526084016102ee565b6001600160a01b038416610c265760405162461bcd60e51b815260206004820152602960248201527f5374616b653a3a696e697469616c697a653a20696e76616c6964205f5350414360448201526854206164647265737360b81b60648201526084016102ee565b6001600160a01b038316610c965760405162461bcd60e51b815260206004820152603160248201527f5374616b653a3a696e697469616c697a653a20696e76616c6964205f646f6e6160448201527074696f6e4d696e6572206164647265737360781b60648201526084016102ee565b610c9e611025565b610ca661105c565b609780546001600160a01b038088166001600160a01b031992831617909255609880548784169083161790556099805492861692909116919091179055609a8290558015610cfa576000805461ff00191690555b5050505050565b6000610d0e609d8361108b565b92915050565b6033546001600160a01b03163314610d3e5760405162461bcd60e51b81526004016102ee906114d3565b6001600160a01b038116610da35760405162461bcd60e51b815260206004820152602660248201527f4f776e61626c653a206e6577206f776e657220697320746865207a65726f206160448201526564647265737360d01b60648201526084016102ee565b610dac81610f3c565b50565b336000908152609c602052604081206001810154825b848211158015610e08575043836002018381548110610df457634e487b7160e01b600052603260045260246000fd5b906000526020600020906002020160010154105b15610e6157826002018281548110610e3057634e487b7160e01b600052603260045260246000fd5b90600052602060002090600202016000015481610e4d919061158a565b905081610e59816115e5565b925050610dc5565b60008111610eb15760405162461bcd60e51b815260206004820152601f60248201527f5374616b653a3a636c61696d3a204e6f2066756e647320746f20636c61696d0060448201526064016102ee565b600183018290556098546040516346f9647360e11b81523360048201526001600160601b03831660248201526001600160a01b0390911690638df2c8e690604401600060405180830381600087803b158015610f0c57600080fd5b505af1158015610f20573d6000803e3d6000fd5b505060975461081f92506001600160a01b031690503383611097565b603380546001600160a01b038381166001600160a01b0319831681179093556040519116919082907f8be0079c531659141344cd1fd0a4f28419497f9722a3daafe3b4186f6b6457e090600090a35050565b6000610d0e825490565b6040516001600160a01b03808516602483015283166044820152606481018290526110039085906323b872dd60e01b906084015b60408051601f198184030181529190526020810180516001600160e01b03166001600160e01b0319909316929092179091526110cc565b50505050565b600061101e836001600160a01b03841661119e565b9392505050565b600054610100900460ff1661104c5760405162461bcd60e51b81526004016102ee90611508565b6110546111ed565b61074c611214565b600054610100900460ff166110835760405162461bcd60e51b81526004016102ee90611508565b61074c611244565b600061101e8383611272565b6040516001600160a01b0383166024820152604481018290526110c790849063a9059cbb60e01b90606401610fcc565b505050565b6000611121826040518060400160405280602081526020017f5361666545524332303a206c6f772d6c6576656c2063616c6c206661696c6564815250856001600160a01b03166112aa9092919063ffffffff16565b8051909150156110c7578080602001905181019061113f91906113fc565b6110c75760405162461bcd60e51b815260206004820152602a60248201527f5361666545524332303a204552433230206f7065726174696f6e20646964206e6044820152691bdd081cdd58d8d9595960b21b60648201526084016102ee565b60008181526001830160205260408120546111e557508154600181810184556000848152602080822090930184905584548482528286019093526040902091909155610d0e565b506000610d0e565b600054610100900460ff1661074c5760405162461bcd60e51b81526004016102ee90611508565b600054610100900460ff1661123b5760405162461bcd60e51b81526004016102ee90611508565b61074c33610f3c565b600054610100900460ff1661126b5760405162461bcd60e51b81526004016102ee90611508565b6001606555565b600082600001828154811061129757634e487b7160e01b600052603260045260246000fd5b9060005260206000200154905092915050565b606061081f848460008585843b6113035760405162461bcd60e51b815260206004820152601d60248201527f416464726573733a2063616c6c20746f206e6f6e2d636f6e747261637400000060448201526064016102ee565b600080866001600160a01b0316858760405161131f9190611484565b60006040518083038185875af1925050503d806000811461135c576040519150601f19603f3d011682016040523d82523d6000602084013e611361565b606091505b509150915061137182828661137c565b979650505050505050565b6060831561138b57508161101e565b82511561139b5782518084602001fd5b8160405162461bcd60e51b81526004016102ee91906114a0565b6000602082840312156113c6578081fd5b813561101e81611616565b600080604083850312156113e3578081fd5b82356113ee81611616565b946020939093013593505050565b60006020828403121561140d578081fd5b8151801515811461101e578182fd5b60008060008060808587031215611431578182fd5b843561143c81611616565b9350602085013561144c81611616565b9250604085013561145c81611616565b9396929550929360600135925050565b60006020828403121561147d578081fd5b5035919050565b600082516114968184602087016115b9565b9190910192915050565b60208152600082518060208401526114bf8160408501602087016115b9565b601f01601f19169190910160400192915050565b6020808252818101527f4f776e61626c653a2063616c6c6572206973206e6f7420746865206f776e6572604082015260600190565b6020808252602b908201527f496e697469616c697a61626c653a20636f6e7472616374206973206e6f74206960408201526a6e697469616c697a696e6760a81b606082015260800190565b6020808252601f908201527f5265656e7472616e637947756172643a207265656e7472616e742063616c6c00604082015260600190565b6000821982111561159d5761159d611600565b500190565b6000828210156115b4576115b4611600565b500390565b60005b838110156115d45781810151838201526020016115bc565b838111156110035750506000910152565b60006000198214156115f9576115f9611600565b5060010190565b634e487b7160e01b600052601160045260246000fd5b6001600160a01b0381168114610dac57600080fdfea2646970667358221220aa348b8aa2cea3ac9415619f4dde226ae4d3a168fa9221ff8a08d50a92dcfbe764736f6c63430008040033",
  "devdoc": {
    "events": {
      "Claimed(address,uint256)": {
        "params": {
          "amount": "Claim amount",
          "holder": "Address of the holder"
        }
      },
      "ClaimedPartial(address,uint256,uint256)": {
        "params": {
          "amount": "Claim amount",
          "holder": "Address of the holder",
          "lastUnstakeId": "Last unstake is to be claimed (if possible)"
        }
      },
      "CooldownUpdated(uint256,uint256)": {
        "params": {
          "newCooldown": "New cooldown value",
          "oldCooldown": "Old cooldown value"
        }
      },
      "Staked(address,uint256)": {
        "params": {
          "amount": "Stake amount",
          "holder": "Address of the holder"
        }
      },
      "Unstaked(address,uint256)": {
        "params": {
          "amount": "Unstake amount",
          "holder": "Address of the holder"
        }
      }
    },
    "kind": "dev",
    "methods": {
      "initialize(address,address,address,uint256)": {
        "params": {
          "_PACT": "Address of the PACT Token",
          "_SPACT": "Address of the SPACT Token",
          "_cooldown": "Number of blocks after a user can claim an unstake",
          "_donationMiner": "Address of the DonationMiner"
        }
      },
      "owner()": {
        "details": "Returns the address of the current owner."
      },
      "renounceOwnership()": {
        "details": "Leaves the contract without owner. It will not be possible to call `onlyOwner` functions anymore. Can only be called by the current owner. NOTE: Renouncing ownership will leave the contract without an owner, thereby removing any functionality that is only available to the owner."
      },
      "stake(address,uint256)": {
        "params": {
          "_amount": "Amount of cUSD tokens to stake",
          "_holderAddress": "Address of the holder"
        }
      },
      "stakeholdersListAt(uint256)": {
        "params": {
          "_index": "index of the stakeholder"
        },
        "returns": {
          "_0": "address of the stakeholder"
        }
      },
      "stakeholdersListLength()": {
        "returns": {
          "_0": "uint256 number of stakeholders"
        }
      },
      "transferOwnership(address)": {
        "details": "Transfers ownership of the contract to a new account (`newOwner`). Can only be called by the current owner."
      },
      "unstake(uint256)": {
        "params": {
          "_amount": "number of tokens to be unstaked"
        }
      },
      "updateCooldown(uint256)": {
        "params": {
          "_newCooldown": "Number of blocks after a user can claim an unstake"
        }
      }
    },
    "version": 1
  },
  "userdoc": {
    "events": {
      "Claimed(address,uint256)": {
        "notice": "Triggered when some tokens have been claimed"
      },
      "ClaimedPartial(address,uint256,uint256)": {
        "notice": "Triggered when some tokens have been partially claimed"
      },
      "CooldownUpdated(uint256,uint256)": {
        "notice": "Triggered when the cooldown value has been updated"
      },
      "Staked(address,uint256)": {
        "notice": "Triggered when some tokens have been staked"
      },
      "Unstaked(address,uint256)": {
        "notice": "Triggered when some tokens have been unstaked"
      }
    },
    "kind": "user",
    "methods": {
      "claim()": {
        "notice": "Claim all unstakes that are older than cooldown"
      },
      "claimPartial(uint256)": {
        "notice": "Claim all unstakes until _lastUnstakeId"
      },
      "getVersion()": {
        "notice": "Returns the current implementation version"
      },
      "initialize(address,address,address,uint256)": {
        "notice": "Used to initialize a new DonationMiner contract"
      },
      "stake(address,uint256)": {
        "notice": "Stakes new founds for the holder"
      },
      "stakeholdersListAt(uint256)": {
        "notice": "Returns the address of a stakeholder from stakeholdersList"
      },
      "stakeholdersListLength()": {
        "notice": "Returns the number of stakeholders"
      },
      "unstake(uint256)": {
        "notice": "Unstake"
      },
      "updateCooldown(uint256)": {
        "notice": "Updates cooldown value"
      }
    },
    "version": 1
  },
  "storageLayout": {
    "storage": [
      {
        "astId": 542,
        "contract": "contracts/staking/StakingImplementation.sol:StakingImplementation",
        "label": "_initialized",
        "offset": 0,
        "slot": "0",
        "type": "t_bool"
      },
      {
        "astId": 545,
        "contract": "contracts/staking/StakingImplementation.sol:StakingImplementation",
        "label": "_initializing",
        "offset": 1,
        "slot": "0",
        "type": "t_bool"
      },
      {
        "astId": 1068,
        "contract": "contracts/staking/StakingImplementation.sol:StakingImplementation",
        "label": "__gap",
        "offset": 0,
        "slot": "1",
        "type": "t_array(t_uint256)50_storage"
      },
      {
        "astId": 420,
        "contract": "contracts/staking/StakingImplementation.sol:StakingImplementation",
        "label": "_owner",
        "offset": 0,
        "slot": "51",
        "type": "t_address"
      },
      {
        "astId": 534,
        "contract": "contracts/staking/StakingImplementation.sol:StakingImplementation",
        "label": "__gap",
        "offset": 0,
        "slot": "52",
        "type": "t_array(t_uint256)49_storage"
      },
      {
        "astId": 736,
        "contract": "contracts/staking/StakingImplementation.sol:StakingImplementation",
        "label": "_status",
        "offset": 0,
        "slot": "101",
        "type": "t_uint256"
      },
      {
        "astId": 779,
        "contract": "contracts/staking/StakingImplementation.sol:StakingImplementation",
        "label": "__gap",
        "offset": 0,
        "slot": "102",
        "type": "t_array(t_uint256)49_storage"
      },
      {
        "astId": 27347,
        "contract": "contracts/staking/StakingImplementation.sol:StakingImplementation",
        "label": "PACT",
        "offset": 0,
        "slot": "151",
        "type": "t_contract(IERC20)3447"
      },
      {
        "astId": 27351,
        "contract": "contracts/staking/StakingImplementation.sol:StakingImplementation",
        "label": "SPACT",
        "offset": 0,
        "slot": "152",
        "type": "t_contract(IMintableERC20)17650"
      },
      {
        "astId": 27355,
        "contract": "contracts/staking/StakingImplementation.sol:StakingImplementation",
        "label": "donationMiner",
        "offset": 0,
        "slot": "153",
        "type": "t_contract(IDonationMiner)14694"
      },
      {
        "astId": 27358,
        "contract": "contracts/staking/StakingImplementation.sol:StakingImplementation",
        "label": "cooldown",
        "offset": 0,
        "slot": "154",
        "type": "t_uint256"
      },
      {
        "astId": 27361,
        "contract": "contracts/staking/StakingImplementation.sol:StakingImplementation",
        "label": "currentTotalAmount",
        "offset": 0,
        "slot": "155",
        "type": "t_uint256"
      },
      {
        "astId": 27366,
        "contract": "contracts/staking/StakingImplementation.sol:StakingImplementation",
        "label": "holders",
        "offset": 0,
        "slot": "156",
        "type": "t_mapping(t_address,t_struct(Holder)27251_storage)"
      },
      {
        "astId": 27369,
        "contract": "contracts/staking/StakingImplementation.sol:StakingImplementation",
        "label": "stakeholdersList",
        "offset": 0,
        "slot": "157",
        "type": "t_struct(AddressSet)5037_storage"
      }
    ],
    "types": {
      "t_address": {
        "encoding": "inplace",
        "label": "address",
        "numberOfBytes": "20"
      },
      "t_array(t_bytes32)dyn_storage": {
        "base": "t_bytes32",
        "encoding": "dynamic_array",
        "label": "bytes32[]",
        "numberOfBytes": "32"
      },
      "t_array(t_struct(Unstake)27242_storage)dyn_storage": {
        "base": "t_struct(Unstake)27242_storage",
        "encoding": "dynamic_array",
        "label": "struct IStaking.Unstake[]",
        "numberOfBytes": "32"
      },
      "t_array(t_uint256)49_storage": {
        "base": "t_uint256",
        "encoding": "inplace",
        "label": "uint256[49]",
        "numberOfBytes": "1568"
      },
      "t_array(t_uint256)50_storage": {
        "base": "t_uint256",
        "encoding": "inplace",
        "label": "uint256[50]",
        "numberOfBytes": "1600"
      },
      "t_bool": {
        "encoding": "inplace",
        "label": "bool",
        "numberOfBytes": "1"
      },
      "t_bytes32": {
        "encoding": "inplace",
        "label": "bytes32",
        "numberOfBytes": "32"
      },
      "t_contract(IDonationMiner)14694": {
        "encoding": "inplace",
        "label": "contract IDonationMiner",
        "numberOfBytes": "20"
      },
      "t_contract(IERC20)3447": {
        "encoding": "inplace",
        "label": "contract IERC20",
        "numberOfBytes": "20"
      },
      "t_contract(IMintableERC20)17650": {
        "encoding": "inplace",
        "label": "contract IMintableERC20",
        "numberOfBytes": "20"
      },
      "t_mapping(t_address,t_struct(Holder)27251_storage)": {
        "encoding": "mapping",
        "key": "t_address",
        "label": "mapping(address => struct IStaking.Holder)",
        "numberOfBytes": "32",
        "value": "t_struct(Holder)27251_storage"
      },
      "t_mapping(t_bytes32,t_uint256)": {
        "encoding": "mapping",
        "key": "t_bytes32",
        "label": "mapping(bytes32 => uint256)",
        "numberOfBytes": "32",
        "value": "t_uint256"
      },
      "t_struct(AddressSet)5037_storage": {
        "encoding": "inplace",
        "label": "struct EnumerableSet.AddressSet",
        "members": [
          {
            "astId": 5036,
            "contract": "contracts/staking/StakingImplementation.sol:StakingImplementation",
            "label": "_inner",
            "offset": 0,
            "slot": "0",
            "type": "t_struct(Set)4736_storage"
          }
        ],
        "numberOfBytes": "64"
      },
      "t_struct(Holder)27251_storage": {
        "encoding": "inplace",
        "label": "struct IStaking.Holder",
        "members": [
          {
            "astId": 27244,
            "contract": "contracts/staking/StakingImplementation.sol:StakingImplementation",
            "label": "amount",
            "offset": 0,
            "slot": "0",
            "type": "t_uint256"
          },
          {
            "astId": 27246,
            "contract": "contracts/staking/StakingImplementation.sol:StakingImplementation",
            "label": "nextUnstakeId",
            "offset": 0,
            "slot": "1",
            "type": "t_uint256"
          },
          {
            "astId": 27250,
            "contract": "contracts/staking/StakingImplementation.sol:StakingImplementation",
            "label": "unstakes",
            "offset": 0,
            "slot": "2",
            "type": "t_array(t_struct(Unstake)27242_storage)dyn_storage"
          }
        ],
        "numberOfBytes": "96"
      },
      "t_struct(Set)4736_storage": {
        "encoding": "inplace",
        "label": "struct EnumerableSet.Set",
        "members": [
          {
            "astId": 4731,
            "contract": "contracts/staking/StakingImplementation.sol:StakingImplementation",
            "label": "_values",
            "offset": 0,
            "slot": "0",
            "type": "t_array(t_bytes32)dyn_storage"
          },
          {
            "astId": 4735,
            "contract": "contracts/staking/StakingImplementation.sol:StakingImplementation",
            "label": "_indexes",
            "offset": 0,
            "slot": "1",
            "type": "t_mapping(t_bytes32,t_uint256)"
          }
        ],
        "numberOfBytes": "64"
      },
      "t_struct(Unstake)27242_storage": {
        "encoding": "inplace",
        "label": "struct IStaking.Unstake",
        "members": [
          {
            "astId": 27239,
            "contract": "contracts/staking/StakingImplementation.sol:StakingImplementation",
            "label": "amount",
            "offset": 0,
            "slot": "0",
            "type": "t_uint256"
          },
          {
            "astId": 27241,
            "contract": "contracts/staking/StakingImplementation.sol:StakingImplementation",
            "label": "cooldownBlock",
            "offset": 0,
            "slot": "1",
            "type": "t_uint256"
          }
        ],
        "numberOfBytes": "64"
      },
      "t_uint256": {
        "encoding": "inplace",
        "label": "uint256",
        "numberOfBytes": "32"
      }
    }
  }
}