{
  "address": "0x764bb9F7232EED556Ec36beCADf1F783833cF553",
  "abi": [
    {
      "anonymous": false,
      "inputs": [
        {
          "indexed": true,
          "internalType": "address",
          "name": "tokenAddress",
          "type": "address"
        },
        {
          "indexed": false,
          "internalType": "uint256",
          "name": "amountIn",
          "type": "uint256"
        },
        {
          "indexed": false,
          "internalType": "uint256",
          "name": "amountOutMin",
          "type": "uint256"
        },
        {
          "indexed": false,
          "internalType": "address[]",
          "name": "exchangePath",
          "type": "address[]"
        },
        {
          "indexed": false,
          "internalType": "uint256",
          "name": "approximateAmountsOut",
          "type": "uint256"
        }
      ],
      "name": "AmountConverted",
      "type": "event"
    },
    {
      "anonymous": false,
      "inputs": [
        {
          "indexed": true,
          "internalType": "address",
          "name": "oldCommunityAdmin",
          "type": "address"
        },
        {
          "indexed": true,
          "internalType": "address",
          "name": "newCommunityAdmin",
          "type": "address"
        }
      ],
      "name": "CommunityAdminUpdated",
      "type": "event"
    },
    {
      "anonymous": false,
      "inputs": [
        {
          "indexed": true,
          "internalType": "address",
          "name": "previousOwner",
          "type": "address"
        },
        {
          "indexed": true,
          "internalType": "address",
          "name": "newOwner",
          "type": "address"
        }
      ],
      "name": "OwnershipTransferred",
      "type": "event"
    },
    {
      "anonymous": false,
      "inputs": [
        {
          "indexed": true,
          "internalType": "address",
          "name": "tokenAddress",
          "type": "address"
        }
      ],
      "name": "TokenRemoved",
      "type": "event"
    },
    {
      "anonymous": false,
      "inputs": [
        {
          "indexed": true,
          "internalType": "address",
          "name": "tokenAddress",
          "type": "address"
        },
        {
          "indexed": false,
          "internalType": "uint256",
          "name": "oldRate",
          "type": "uint256"
        },
        {
          "indexed": false,
          "internalType": "address[]",
          "name": "oldExchangePath",
          "type": "address[]"
        },
        {
          "indexed": false,
          "internalType": "uint256",
          "name": "newRate",
          "type": "uint256"
        },
        {
          "indexed": false,
          "internalType": "address[]",
          "name": "newExchangePath",
          "type": "address[]"
        }
      ],
      "name": "TokenSet",
      "type": "event"
    },
    {
      "anonymous": false,
      "inputs": [
        {
          "indexed": true,
          "internalType": "address",
          "name": "token",
          "type": "address"
        },
        {
          "indexed": true,
          "internalType": "address",
          "name": "to",
          "type": "address"
        },
        {
          "indexed": false,
          "internalType": "uint256",
          "name": "amount",
          "type": "uint256"
        }
      ],
      "name": "TransferERC20",
      "type": "event"
    },
    {
      "anonymous": false,
      "inputs": [
        {
          "indexed": true,
          "internalType": "address",
          "name": "oldUniswapRouter",
          "type": "address"
        },
        {
          "indexed": true,
          "internalType": "address",
          "name": "newUniswapRouter",
          "type": "address"
        }
      ],
      "name": "UniswapRouterUpdated",
      "type": "event"
    },
    {
      "inputs": [],
      "name": "communityAdmin",
      "outputs": [
        {
          "internalType": "contract ICommunityAdmin",
          "name": "",
          "type": "address"
        }
      ],
      "stateMutability": "view",
      "type": "function"
    },
    {
      "inputs": [
        {
          "internalType": "address",
          "name": "_tokenAddress",
          "type": "address"
        },
        {
          "internalType": "uint256",
          "name": "_amountIn",
          "type": "uint256"
        },
        {
          "internalType": "uint256",
          "name": "_amountOutMin",
          "type": "uint256"
        },
        {
          "internalType": "address[]",
          "name": "_exchangePath",
          "type": "address[]"
        },
        {
          "internalType": "uint256",
          "name": "_deadline",
          "type": "uint256"
        }
      ],
      "name": "convertAmount",
      "outputs": [],
      "stateMutability": "nonpayable",
      "type": "function"
    },
    {
      "inputs": [
        {
          "internalType": "address",
          "name": "_tokenAddress",
          "type": "address"
        },
        {
          "internalType": "uint256",
          "name": "_amount",
          "type": "uint256"
        }
      ],
      "name": "getConvertedAmount",
      "outputs": [
        {
          "internalType": "uint256",
          "name": "",
          "type": "uint256"
        }
      ],
      "stateMutability": "view",
      "type": "function"
    },
    {
      "inputs": [],
      "name": "getVersion",
      "outputs": [
        {
          "internalType": "uint256",
          "name": "",
          "type": "uint256"
        }
      ],
      "stateMutability": "pure",
      "type": "function"
    },
    {
      "inputs": [
        {
          "internalType": "contract ICommunityAdmin",
          "name": "_communityAdmin",
          "type": "address"
        }
      ],
      "name": "initialize",
      "outputs": [],
      "stateMutability": "nonpayable",
      "type": "function"
    },
    {
      "inputs": [
        {
          "internalType": "address",
          "name": "_tokenAddress",
          "type": "address"
        }
      ],
      "name": "isToken",
      "outputs": [
        {
          "internalType": "bool",
          "name": "",
          "type": "bool"
        }
      ],
      "stateMutability": "view",
      "type": "function"
    },
    {
      "inputs": [],
      "name": "owner",
      "outputs": [
        {
          "internalType": "address",
          "name": "",
          "type": "address"
        }
      ],
      "stateMutability": "view",
      "type": "function"
    },
    {
      "inputs": [
        {
          "internalType": "address",
          "name": "_tokenAddress",
          "type": "address"
        }
      ],
      "name": "removeToken",
      "outputs": [],
      "stateMutability": "nonpayable",
      "type": "function"
    },
    {
      "inputs": [],
      "name": "renounceOwnership",
      "outputs": [],
      "stateMutability": "nonpayable",
      "type": "function"
    },
    {
      "inputs": [
        {
          "internalType": "address",
          "name": "_tokenAddress",
          "type": "address"
        },
        {
          "internalType": "uint256",
          "name": "_rate",
          "type": "uint256"
        },
        {
          "internalType": "address[]",
          "name": "_exchangePath",
          "type": "address[]"
        }
      ],
      "name": "setToken",
      "outputs": [],
      "stateMutability": "nonpayable",
      "type": "function"
    },
    {
      "inputs": [
        {
          "internalType": "uint256",
          "name": "_index",
          "type": "uint256"
        }
      ],
      "name": "tokenListAt",
      "outputs": [
        {
          "internalType": "address",
          "name": "",
          "type": "address"
        }
      ],
      "stateMutability": "view",
      "type": "function"
    },
    {
      "inputs": [],
      "name": "tokenListLength",
      "outputs": [
        {
          "internalType": "uint256",
          "name": "",
          "type": "uint256"
        }
      ],
      "stateMutability": "view",
      "type": "function"
    },
    {
      "inputs": [
        {
          "internalType": "address",
          "name": "_tokenAddress",
          "type": "address"
        }
      ],
      "name": "tokens",
      "outputs": [
        {
          "internalType": "uint256",
          "name": "rate",
          "type": "uint256"
        },
        {
          "internalType": "address[]",
          "name": "exchangePath",
          "type": "address[]"
        }
      ],
      "stateMutability": "view",
      "type": "function"
    },
    {
      "inputs": [
        {
          "internalType": "contract IERC20",
          "name": "_token",
          "type": "address"
        },
        {
          "internalType": "address",
          "name": "_to",
          "type": "address"
        },
        {
          "internalType": "uint256",
          "name": "_amount",
          "type": "uint256"
        }
      ],
      "name": "transfer",
      "outputs": [],
      "stateMutability": "nonpayable",
      "type": "function"
    },
    {
      "inputs": [
        {
          "internalType": "address",
          "name": "newOwner",
          "type": "address"
        }
      ],
      "name": "transferOwnership",
      "outputs": [],
      "stateMutability": "nonpayable",
      "type": "function"
    },
    {
      "inputs": [],
      "name": "uniswapRouter",
      "outputs": [
        {
          "internalType": "contract IUniswapV2Router",
          "name": "",
          "type": "address"
        }
      ],
      "stateMutability": "view",
      "type": "function"
    },
    {
      "inputs": [
        {
          "internalType": "contract ICommunityAdmin",
          "name": "_newCommunityAdmin",
          "type": "address"
        }
      ],
      "name": "updateCommunityAdmin",
      "outputs": [],
      "stateMutability": "nonpayable",
      "type": "function"
    },
    {
      "inputs": [
        {
          "internalType": "contract IUniswapV2Router",
          "name": "_newUniswapRouter",
          "type": "address"
        }
      ],
      "name": "updateUniswapRouter",
      "outputs": [],
      "stateMutability": "nonpayable",
      "type": "function"
    }
  ],
  "transactionHash": "0x3adf947a55e00d046baf617dd4268ba96e64da261efb57d36c76b391be451a0c",
  "args": [],
  "numDeployments": 2,
  "solcInputHash": "757cf202b4a9648c9c256c9cb53dbf45",
  "bytecode": "0x608060405234801561001057600080fd5b50611d3d806100206000396000f3fe608060405234801561001057600080fd5b50600436106101165760003560e01c80638da5cb5b116100a2578063c4d66de811610071578063c4d66de814610227578063d33d4ec61461023a578063e48603391461024d578063f2b899511461026e578063f2fde38b1461028157600080fd5b80638da5cb5b146101e8578063908bb2ae146101f95780639a552a291461020c578063beabacc81461021457600080fd5b806346f31bc0116100e957806346f31bc0146101945780635fa7b584146101a75780635fac917a146101ba578063715018a6146101cd578063735de9f7146101d557600080fd5b80630d8e6e2c1461011b57806319f373611461013157806332b194b5146101545780634122cd991461017f575b600080fd5b60025b6040519081526020015b60405180910390f35b61014461013f366004611680565b610294565b6040519015158152602001610128565b610167610162366004611910565b6102a7565b6040516001600160a01b039091168152602001610128565b61019261018d36600461174e565b6102b4565b005b6101926101a23660046116c7565b6105e3565b6101926101b5366004611680565b610859565b609754610167906001600160a01b031681565b61019261095a565b609854610167906001600160a01b031681565b6033546001600160a01b0316610167565b610192610207366004611680565b610990565b61011e610a16565b6101926102223660046118d0565b610a27565b610192610235366004611680565b610b6d565b610192610248366004611680565b610c52565b61026061025b366004611680565b610cd8565b604051610128929190611ad9565b61011e61027c36600461169c565b610d5e565b61019261028f366004611680565b610f6c565b60006102a1609a83611007565b92915050565b60006102a1609a8361102c565b6033546001600160a01b031633146102e75760405162461bcd60e51b81526004016102de90611a59565b60405180910390fd5b6102f2609a86611007565b6103595760405162461bcd60e51b815260206004820152603260248201527f54726561737572793a3a636f6e76657274416d6f756e743a2074686973206973604482015271103737ba1030903b30b634b2103a37b5b2b760711b60648201526084016102de565b81516103d2576001600160a01b038516600090815260996020908152604091829020600101805483518184028101840190945280845290918301828280156103ca57602002820191906000526020600020905b81546001600160a01b031681526001909101906020018083116103ac575b505050505091505b806103e6576103e342610e10611c28565b90505b60985460405163d06ca61f60e01b81526000916001600160a01b03169063d06ca61f906104199088908790600401611ad9565b60006040518083038186803b15801561043157600080fd5b505afa158015610445573d6000803e3d6000fd5b505050506040513d6000823e601f3d908101601f1916820160405261046d919081019061181d565b60985460405163095ea7b360e01b81526001600160a01b0391821660048201526024810188905291925087169063095ea7b390604401602060405180830381600087803b1580156104bd57600080fd5b505af11580156104d1573d6000803e3d6000fd5b505050506040513d601f19601f820116820180604052508101906104f591906118b0565b50609854604051635c11d79560e01b81526001600160a01b0390911690635c11d7959061052e9088908890889030908990600401611b67565b600060405180830381600087803b15801561054857600080fd5b505af115801561055c573d6000803e3d6000fd5b50505050856001600160a01b03167f88c4f55733a8a263a64c45eeffa61037c9782c51dee2ea7f67dc24365dfd45c1868686856001875161059d9190611c7f565b815181106105bb57634e487b7160e01b600052603260045260246000fd5b60200260200101516040516105d39493929190611ba3565b60405180910390a2505050505050565b6033546001600160a01b0316331461060d5760405162461bcd60e51b81526004016102de90611a59565b6000831161065d5760405162461bcd60e51b815260206004820181905260248201527f54726561737572793a3a736574546f6b656e3a20696e76616c6964207261746560448201526064016102de565b80156107be576001811180156106b95750836001600160a01b03168282600081811061069957634e487b7160e01b600052603260045260246000fd5b90506020020160208101906106ae9190611680565b6001600160a01b0316145b6106d55760405162461bcd60e51b81526004016102de90611a11565b60985460405163d06ca61f60e01b81526000916001600160a01b03169063d06ca61f9061071290670de0b6b3a764000090879087906004016119c4565b60006040518083038186803b15801561072a57600080fd5b505afa15801561073e573d6000803e3d6000fd5b505050506040513d6000823e601f3d908101601f19168201604052610766919081019061181d565b9050600081600183516107799190611c7f565b8151811061079757634e487b7160e01b600052603260045260246000fd5b6020026020010151116107bc5760405162461bcd60e51b81526004016102de90611a11565b505b6001600160a01b03841660008181526099602052604090819020805491517ff61ed5d71dab8083df43f2ff44efc2921f232aad7b7065b72f555b235d3fdcc792610815929091600190910190889088908890611af2565b60405180910390a26001600160a01b03841660009081526099602052604090208381556108469060010183836115ee565b50610852609a85611038565b5050505050565b6033546001600160a01b031633146108835760405162461bcd60e51b81526004016102de90611a59565b61088e609a82611007565b6108ed5760405162461bcd60e51b815260206004820152602a60248201527f54726561737572793a3a72656d6f7665546f6b656e3a2074686973206973206e60448201526937ba1030903a37b5b2b760b11b60648201526084016102de565b6001600160a01b038116600090815260996020526040812081815561091791600190910190611651565b610922609a8261104d565b506040516001600160a01b038216907f4c910b69fe65a61f7531b9c5042b2329ca7179c77290aa7e2eb3afa3c8511fd390600090a250565b6033546001600160a01b031633146109845760405162461bcd60e51b81526004016102de90611a59565b61098e6000611062565b565b6033546001600160a01b031633146109ba5760405162461bcd60e51b81526004016102de90611a59565b6098546040516001600160a01b038084169216907fe7295f605b21e8c0803de3b127af76ce45d81732d075acf86e5959e923605bdc90600090a3609880546001600160a01b0319166001600160a01b0392909216919091179055565b6000610a22609a6110b4565b905090565b6097546001600160a01b0316331480610a4a57506033546001600160a01b031633145b610aaa5760405162461bcd60e51b815260206004820152602b60248201527f54726561737572793a204e4f545f434f4d4d554e4954595f41444d494e20414e60448201526a22102727aa2fa7aba722a960a91b60648201526084016102de565b60026065541415610afd5760405162461bcd60e51b815260206004820152601f60248201527f5265656e7472616e637947756172643a207265656e7472616e742063616c6c0060448201526064016102de565b6002606555610b166001600160a01b03841683836110be565b816001600160a01b0316836001600160a01b03167f9b035625e569d1d2bf54830a290aefba7ab11610ba8490871dc62b86b63a895683604051610b5b91815260200190565b60405180910390a35050600160655550565b600054610100900460ff16610b885760005460ff1615610b8c565b303b155b610bef5760405162461bcd60e51b815260206004820152602e60248201527f496e697469616c697a61626c653a20636f6e747261637420697320616c72656160448201526d191e481a5b9a5d1a585b1a5e995960921b60648201526084016102de565b600054610100900460ff16158015610c11576000805461ffff19166101011790555b610c19611115565b610c2161114c565b609780546001600160a01b0319166001600160a01b0384161790558015610c4e576000805461ff00191690555b5050565b6033546001600160a01b03163314610c7c5760405162461bcd60e51b81526004016102de90611a59565b6097546040516001600160a01b038084169216907fdd8d3b7b0badfc5d636d48e71e28015b4b8554b64d2cffba6f0a90bf7693ec0090600090a3609780546001600160a01b0319166001600160a01b0392909216919091179055565b6001600160a01b038116600090815260996020908152604080832080546001909101805483518186028101860190945280845260609492939192839190830182828015610d4e57602002820191906000526020600020905b81546001600160a01b03168152600190910190602001808311610d30575b5050505050905091509150915091565b6000610d6b609a84611007565b610ddd5760405162461bcd60e51b815260206004820152603760248201527f54726561737572793a3a676574436f6e766572746564416d6f756e743a20746860448201527f6973206973206e6f7420612076616c696420746f6b656e00000000000000000060648201526084016102de565b6001600160a01b038316600090815260996020908152604080832081518083018352815481526001820180548451818702810187019095528085529194929385840193909290830182828015610e5c57602002820191906000526020600020905b81546001600160a01b03168152600190910190602001808311610e3e575b5050505050815250509050600081602001515160001415610e7e575082610f43565b609854602083015160405163d06ca61f60e01b81526000926001600160a01b03169163d06ca61f91610eb4918991600401611ad9565b60006040518083038186803b158015610ecc57600080fd5b505afa158015610ee0573d6000803e3d6000fd5b505050506040513d6000823e601f3d908101601f19168201604052610f08919081019061181d565b90508060018251610f199190611c7f565b81518110610f3757634e487b7160e01b600052603260045260246000fd5b60200260200101519150505b8151670de0b6b3a764000090610f599083611c60565b610f639190611c40565b95945050505050565b6033546001600160a01b03163314610f965760405162461bcd60e51b81526004016102de90611a59565b6001600160a01b038116610ffb5760405162461bcd60e51b815260206004820152602660248201527f4f776e61626c653a206e6577206f776e657220697320746865207a65726f206160448201526564647265737360d01b60648201526084016102de565b61100481611062565b50565b6001600160a01b038116600090815260018301602052604081205415155b9392505050565b6000611025838361117b565b6000611025836001600160a01b0384166111b3565b6000611025836001600160a01b038416611202565b603380546001600160a01b038381166001600160a01b0319831681179093556040519116919082907f8be0079c531659141344cd1fd0a4f28419497f9722a3daafe3b4186f6b6457e090600090a35050565b60006102a1825490565b604080516001600160a01b038416602482015260448082018490528251808303909101815260649091019091526020810180516001600160e01b031663a9059cbb60e01b17905261111090849061131f565b505050565b600054610100900460ff1661113c5760405162461bcd60e51b81526004016102de90611a8e565b6111446113f1565b61098e611418565b600054610100900460ff166111735760405162461bcd60e51b81526004016102de90611a8e565b61098e611448565b60008260000182815481106111a057634e487b7160e01b600052603260045260246000fd5b9060005260206000200154905092915050565b60008181526001830160205260408120546111fa575081546001818101845560008481526020808220909301849055845484825282860190935260409020919091556102a1565b5060006102a1565b60008181526001830160205260408120548015611315576000611226600183611c7f565b855490915060009061123a90600190611c7f565b90508181146112bb57600086600001828154811061126857634e487b7160e01b600052603260045260246000fd5b906000526020600020015490508087600001848154811061129957634e487b7160e01b600052603260045260246000fd5b6000918252602080832090910192909255918252600188019052604090208390555b85548690806112da57634e487b7160e01b600052603160045260246000fd5b6001900381819060005260206000200160009055905585600101600086815260200190815260200160002060009055600193505050506102a1565b60009150506102a1565b6000611374826040518060400160405280602081526020017f5361666545524332303a206c6f772d6c6576656c2063616c6c206661696c6564815250856001600160a01b03166114769092919063ffffffff16565b805190915015611110578080602001905181019061139291906118b0565b6111105760405162461bcd60e51b815260206004820152602a60248201527f5361666545524332303a204552433230206f7065726174696f6e20646964206e6044820152691bdd081cdd58d8d9595960b21b60648201526084016102de565b600054610100900460ff1661098e5760405162461bcd60e51b81526004016102de90611a8e565b600054610100900460ff1661143f5760405162461bcd60e51b81526004016102de90611a8e565b61098e33611062565b600054610100900460ff1661146f5760405162461bcd60e51b81526004016102de90611a8e565b6001606555565b6060611485848460008561148d565b949350505050565b6060824710156114ee5760405162461bcd60e51b815260206004820152602660248201527f416464726573733a20696e73756666696369656e742062616c616e636520666f6044820152651c8818d85b1b60d21b60648201526084016102de565b843b61153c5760405162461bcd60e51b815260206004820152601d60248201527f416464726573733a2063616c6c20746f206e6f6e2d636f6e747261637400000060448201526064016102de565b600080866001600160a01b0316858760405161155891906119a8565b60006040518083038185875af1925050503d8060008114611595576040519150601f19603f3d011682016040523d82523d6000602084013e61159a565b606091505b50915091506115aa8282866115b5565b979650505050505050565b606083156115c4575081611025565b8251156115d45782518084602001fd5b8160405162461bcd60e51b81526004016102de91906119de565b828054828255906000526020600020908101928215611641579160200282015b828111156116415781546001600160a01b0319166001600160a01b0384351617825560209092019160019091019061160e565b5061164d92915061166b565b5090565b508054600082559060005260206000209081019061100491905b5b8082111561164d576000815560010161166c565b600060208284031215611691578081fd5b813561102581611cf2565b600080604083850312156116ae578081fd5b82356116b981611cf2565b946020939093013593505050565b600080600080606085870312156116dc578182fd5b84356116e781611cf2565b935060208501359250604085013567ffffffffffffffff8082111561170a578384fd5b818701915087601f83011261171d578384fd5b81358181111561172b578485fd5b8860208260051b850101111561173f578485fd5b95989497505060200194505050565b600080600080600060a08688031215611765578081fd5b853561177081611cf2565b9450602086810135945060408701359350606087013567ffffffffffffffff81111561179a578283fd5b8701601f810189136117aa578283fd5b80356117bd6117b882611c04565b611bd3565b8082825284820191508484018c868560051b87010111156117dc578687fd5b8694505b838510156118075780356117f381611cf2565b8352600194909401939185019185016117e0565b50989b979a509598608001359695505050505050565b6000602080838503121561182f578182fd5b825167ffffffffffffffff811115611845578283fd5b8301601f81018513611855578283fd5b80516118636117b882611c04565b80828252848201915084840188868560051b8701011115611882578687fd5b8694505b838510156118a4578051835260019490940193918501918501611886565b50979650505050505050565b6000602082840312156118c1578081fd5b81518015158114611025578182fd5b6000806000606084860312156118e4578283fd5b83356118ef81611cf2565b925060208401356118ff81611cf2565b929592945050506040919091013590565b600060208284031215611921578081fd5b5035919050565b81835260006020808501945082825b8581101561196557813561194a81611cf2565b6001600160a01b031687529582019590820190600101611937565b509495945050505050565b6000815180845260208085019450808401835b838110156119655781516001600160a01b031687529582019590820190600101611983565b600082516119ba818460208701611c96565b9190910192915050565b838152604060208201526000610f63604083018486611928565b60208152600082518060208401526119fd816040850160208701611c96565b601f01601f19169190910160400192915050565b60208082526028908201527f54726561737572793a3a736574546f6b656e3a20696e76616c696420657863686040820152670c2dccecaa0c2e8d60c31b606082015260800190565b6020808252818101527f4f776e61626c653a2063616c6c6572206973206e6f7420746865206f776e6572604082015260600190565b6020808252602b908201527f496e697469616c697a61626c653a20636f6e7472616374206973206e6f74206960408201526a6e697469616c697a696e6760a81b606082015260800190565b8281526040602082015260006114856040830184611970565b600060808201878352602060808185015281885480845260a0860191508985528285209350845b81811015611b3e5784546001600160a01b031683526001948501949284019201611b19565b50508760408601528481036060860152611b59818789611928565b9a9950505050505050505050565b85815284602082015260a060408201526000611b8660a0830186611970565b6001600160a01b0394909416606083015250608001529392505050565b848152836020820152608060408201526000611bc26080830185611970565b905082606083015295945050505050565b604051601f8201601f1916810167ffffffffffffffff81118282101715611bfc57611bfc611cdc565b604052919050565b600067ffffffffffffffff821115611c1e57611c1e611cdc565b5060051b60200190565b60008219821115611c3b57611c3b611cc6565b500190565b600082611c5b57634e487b7160e01b81526012600452602481fd5b500490565b6000816000190483118215151615611c7a57611c7a611cc6565b500290565b600082821015611c9157611c91611cc6565b500390565b60005b83811015611cb1578181015183820152602001611c99565b83811115611cc0576000848401525b50505050565b634e487b7160e01b600052601160045260246000fd5b634e487b7160e01b600052604160045260246000fd5b6001600160a01b038116811461100457600080fdfea2646970667358221220edaa1dfba7438fab81420d83e164e2346c3db2851e6bb029951a34ace0cfc2a064736f6c63430008040033",
  "devdoc": {
    "events": {
      "AmountConverted(address,uint256,uint256,address[],uint256)": {
        "params": {
          "amountIn": "Amount changed",
          "amountOutMin": "Minimum amount out",
          "approximateAmountsOut": "Approximate value of the final amount out",
          "exchangePath": "Exchange path",
          "tokenAddress": "Address of the token"
        }
      },
      "CommunityAdminUpdated(address,address)": {
        "params": {
          "newCommunityAdmin": "New communityAdmin address",
          "oldCommunityAdmin": "Old communityAdmin address"
        }
      },
      "TokenRemoved(address)": {
        "params": {
          "tokenAddress": "Address of the token"
        }
      },
      "TokenSet(address,uint256,address[],uint256,address[])": {
        "params": {
          "newExchangePath": "New token exchange path",
          "newRate": "New token rate value",
          "oldExchangePath": "Old token exchange path",
          "oldRate": "Old token rate value",
          "tokenAddress": "Address of the token"
        }
      },
      "TransferERC20(address,address,uint256)": {
        "params": {
          "amount": "Amount of the transaction",
          "to": "Address of the receiver",
          "token": "ERC20 token address"
        }
      },
      "UniswapRouterUpdated(address,address)": {
        "params": {
          "newUniswapRouter": "New uniswapRouter address",
          "oldUniswapRouter": "Old uniswapRouter address"
        }
      }
    },
    "kind": "dev",
    "methods": {
      "initialize(address)": {
        "params": {
          "_communityAdmin": "Address of the CommunityAdmin contract"
        }
      },
      "isToken(address)": {
        "params": {
          "_tokenAddress": "token address to be checked"
        },
        "returns": {
          "_0": "bool true if the tokenAddress is an accepted token"
        }
      },
      "owner()": {
        "details": "Returns the address of the current owner."
      },
      "renounceOwnership()": {
        "details": "Leaves the contract without owner. It will not be possible to call `onlyOwner` functions anymore. Can only be called by the current owner. NOTE: Renouncing ownership will leave the contract without an owner, thereby removing any functionality that is only available to the owner."
      },
      "tokenListAt(uint256)": {
        "params": {
          "_index": "index of the token"
        },
        "returns": {
          "_0": "address of the token"
        }
      },
      "tokenListLength()": {
        "returns": {
          "_0": "uint256 number of tokens"
        }
      },
      "tokens(address)": {
        "params": {
          "_tokenAddress": "address of the token"
        },
        "returns": {
          "exchangePath": "of the token",
          "rate": "of the token"
        }
      },
      "transfer(address,address,uint256)": {
        "params": {
          "_amount": "amount of the transaction",
          "_to": "address of the receiver",
          "_token": "address of the ERC20 token"
        }
      },
      "transferOwnership(address)": {
        "details": "Transfers ownership of the contract to a new account (`newOwner`). Can only be called by the current owner."
      },
      "updateCommunityAdmin(address)": {
        "params": {
          "_newCommunityAdmin": "address of the new CommunityAdmin contract"
        }
      },
      "updateUniswapRouter(address)": {
        "params": {
          "_newUniswapRouter": "address of the new UniswapRouter contract"
        }
      }
    },
    "version": 1
  },
  "userdoc": {
    "events": {
      "AmountConverted(address,uint256,uint256,address[],uint256)": {
        "notice": "Triggered when a token has been set"
      },
      "CommunityAdminUpdated(address,address)": {
        "notice": "Triggered when CommunityAdmin has been updated"
      },
      "TokenRemoved(address)": {
        "notice": "Triggered when a token has been removed"
      },
      "TokenSet(address,uint256,address[],uint256,address[])": {
        "notice": "Triggered when a token has been set"
      },
      "TransferERC20(address,address,uint256)": {
        "notice": "Triggered when an amount of an ERC20 has been transferred from this contract to an address"
      },
      "UniswapRouterUpdated(address,address)": {
        "notice": "Triggered when UniswapRouter has been updated"
      }
    },
    "kind": "user",
    "methods": {
      "getVersion()": {
        "notice": "Returns the current implementation version"
      },
      "initialize(address)": {
        "notice": "Used to initialize a new Treasury contract"
      },
      "isToken(address)": {
        "notice": "Returns if an address is an accepted token"
      },
      "tokenListAt(uint256)": {
        "notice": "Returns the address of a token from tokenList"
      },
      "tokenListLength()": {
        "notice": "Returns the number of tokens"
      },
      "tokens(address)": {
        "notice": "Returns the details of a token"
      },
      "transfer(address,address,uint256)": {
        "notice": "Transfers an amount of an ERC20 from this contract to an address"
      },
      "updateCommunityAdmin(address)": {
        "notice": "Updates the CommunityAdmin contract address"
      },
      "updateUniswapRouter(address)": {
        "notice": "Updates the UniswapRouter contract address"
      }
    },
    "version": 1
  },
  "storageLayout": {
    "storage": [
      {
        "astId": 542,
        "contract": "contracts/treasury/TreasuryImplementation.sol:TreasuryImplementation",
        "label": "_initialized",
        "offset": 0,
        "slot": "0",
        "type": "t_bool"
      },
      {
        "astId": 545,
        "contract": "contracts/treasury/TreasuryImplementation.sol:TreasuryImplementation",
        "label": "_initializing",
        "offset": 1,
        "slot": "0",
        "type": "t_bool"
      },
      {
        "astId": 1068,
        "contract": "contracts/treasury/TreasuryImplementation.sol:TreasuryImplementation",
        "label": "__gap",
        "offset": 0,
        "slot": "1",
        "type": "t_array(t_uint256)50_storage"
      },
      {
        "astId": 420,
        "contract": "contracts/treasury/TreasuryImplementation.sol:TreasuryImplementation",
        "label": "_owner",
        "offset": 0,
        "slot": "51",
        "type": "t_address"
      },
      {
        "astId": 534,
        "contract": "contracts/treasury/TreasuryImplementation.sol:TreasuryImplementation",
        "label": "__gap",
        "offset": 0,
        "slot": "52",
        "type": "t_array(t_uint256)49_storage"
      },
      {
        "astId": 736,
        "contract": "contracts/treasury/TreasuryImplementation.sol:TreasuryImplementation",
        "label": "_status",
        "offset": 0,
        "slot": "101",
        "type": "t_uint256"
      },
      {
        "astId": 779,
        "contract": "contracts/treasury/TreasuryImplementation.sol:TreasuryImplementation",
        "label": "__gap",
        "offset": 0,
        "slot": "102",
        "type": "t_array(t_uint256)49_storage"
      },
      {
        "astId": 28412,
        "contract": "contracts/treasury/TreasuryImplementation.sol:TreasuryImplementation",
        "label": "communityAdmin",
        "offset": 0,
        "slot": "151",
        "type": "t_contract(ICommunityAdmin)11767"
      },
      {
        "astId": 28425,
        "contract": "contracts/treasury/TreasuryImplementation.sol:TreasuryImplementation",
        "label": "uniswapRouter",
        "offset": 0,
        "slot": "152",
        "type": "t_contract(IUniswapV2Router)28402"
      },
      {
        "astId": 28430,
        "contract": "contracts/treasury/TreasuryImplementation.sol:TreasuryImplementation",
        "label": "_tokens",
        "offset": 0,
        "slot": "153",
        "type": "t_mapping(t_address,t_struct(Token)28100_storage)"
      },
      {
        "astId": 28433,
        "contract": "contracts/treasury/TreasuryImplementation.sol:TreasuryImplementation",
        "label": "_tokenList",
        "offset": 0,
        "slot": "154",
        "type": "t_struct(AddressSet)5037_storage"
      }
    ],
    "types": {
      "t_address": {
        "encoding": "inplace",
        "label": "address",
        "numberOfBytes": "20"
      },
      "t_array(t_address)dyn_storage": {
        "base": "t_address",
        "encoding": "dynamic_array",
        "label": "address[]",
        "numberOfBytes": "32"
      },
      "t_array(t_bytes32)dyn_storage": {
        "base": "t_bytes32",
        "encoding": "dynamic_array",
        "label": "bytes32[]",
        "numberOfBytes": "32"
      },
      "t_array(t_uint256)49_storage": {
        "base": "t_uint256",
        "encoding": "inplace",
        "label": "uint256[49]",
        "numberOfBytes": "1568"
      },
      "t_array(t_uint256)50_storage": {
        "base": "t_uint256",
        "encoding": "inplace",
        "label": "uint256[50]",
        "numberOfBytes": "1600"
      },
      "t_bool": {
        "encoding": "inplace",
        "label": "bool",
        "numberOfBytes": "1"
      },
      "t_bytes32": {
        "encoding": "inplace",
        "label": "bytes32",
        "numberOfBytes": "32"
      },
      "t_contract(ICommunityAdmin)11767": {
        "encoding": "inplace",
        "label": "contract ICommunityAdmin",
        "numberOfBytes": "20"
      },
      "t_contract(IUniswapV2Router)28402": {
        "encoding": "inplace",
        "label": "contract IUniswapV2Router",
        "numberOfBytes": "20"
      },
      "t_mapping(t_address,t_struct(Token)28100_storage)": {
        "encoding": "mapping",
        "key": "t_address",
        "label": "mapping(address => struct ITreasury.Token)",
        "numberOfBytes": "32",
        "value": "t_struct(Token)28100_storage"
      },
      "t_mapping(t_bytes32,t_uint256)": {
        "encoding": "mapping",
        "key": "t_bytes32",
        "label": "mapping(bytes32 => uint256)",
        "numberOfBytes": "32",
        "value": "t_uint256"
      },
      "t_struct(AddressSet)5037_storage": {
        "encoding": "inplace",
        "label": "struct EnumerableSet.AddressSet",
        "members": [
          {
            "astId": 5036,
            "contract": "contracts/treasury/TreasuryImplementation.sol:TreasuryImplementation",
            "label": "_inner",
            "offset": 0,
            "slot": "0",
            "type": "t_struct(Set)4736_storage"
          }
        ],
        "numberOfBytes": "64"
      },
      "t_struct(Set)4736_storage": {
        "encoding": "inplace",
        "label": "struct EnumerableSet.Set",
        "members": [
          {
            "astId": 4731,
            "contract": "contracts/treasury/TreasuryImplementation.sol:TreasuryImplementation",
            "label": "_values",
            "offset": 0,
            "slot": "0",
            "type": "t_array(t_bytes32)dyn_storage"
          },
          {
            "astId": 4735,
            "contract": "contracts/treasury/TreasuryImplementation.sol:TreasuryImplementation",
            "label": "_indexes",
            "offset": 0,
            "slot": "1",
            "type": "t_mapping(t_bytes32,t_uint256)"
          }
        ],
        "numberOfBytes": "64"
      },
      "t_struct(Token)28100_storage": {
        "encoding": "inplace",
        "label": "struct ITreasury.Token",
        "members": [
          {
            "astId": 28096,
            "contract": "contracts/treasury/TreasuryImplementation.sol:TreasuryImplementation",
            "label": "rate",
            "offset": 0,
            "slot": "0",
            "type": "t_uint256"
          },
          {
            "astId": 28099,
            "contract": "contracts/treasury/TreasuryImplementation.sol:TreasuryImplementation",
            "label": "exchangePath",
            "offset": 0,
            "slot": "1",
            "type": "t_array(t_address)dyn_storage"
          }
        ],
        "numberOfBytes": "64"
      },
      "t_uint256": {
        "encoding": "inplace",
        "label": "uint256",
        "numberOfBytes": "32"
      }
    }
  }
}