{
  "address": "0xa282647b1aB1d1d3A39FF2776efddC14Ef692E34",
  "abi": [
    {
      "anonymous": false,
      "inputs": [
        {
          "indexed": true,
          "internalType": "address",
          "name": "tokenAddress",
          "type": "address"
        },
        {
          "indexed": false,
          "internalType": "uint256",
          "name": "amountIn",
          "type": "uint256"
        },
        {
          "indexed": false,
          "internalType": "uint256",
          "name": "amountOutMin",
          "type": "uint256"
        },
        {
          "indexed": false,
          "internalType": "bytes",
          "name": "exchangePath",
          "type": "bytes"
        },
        {
          "indexed": false,
          "internalType": "uint256",
          "name": "amountsOut",
          "type": "uint256"
        }
      ],
      "name": "AmountConverted",
      "type": "event"
    },
    {
      "anonymous": false,
      "inputs": [
        {
          "indexed": false,
          "internalType": "uint256",
          "name": "uniswapNFTPositionManagerId",
          "type": "uint256"
        },
        {
          "indexed": false,
          "internalType": "uint256",
          "name": "pactFee",
          "type": "uint256"
        },
        {
          "indexed": false,
          "internalType": "uint256",
          "name": "tokenFee",
          "type": "uint256"
        }
      ],
      "name": "FeesCollected",
      "type": "event"
    },
    {
      "anonymous": false,
      "inputs": [
        {
          "indexed": false,
          "internalType": "uint256",
          "name": "uniswapNFTPositionManagerId",
          "type": "uint256"
        },
        {
          "indexed": false,
          "internalType": "uint256",
          "name": "liquidityDecreased",
          "type": "uint256"
        },
        {
          "indexed": false,
          "internalType": "uint256",
          "name": "liquidityLeft",
          "type": "uint256"
        },
        {
          "indexed": false,
          "internalType": "uint256",
          "name": "pactDecreased",
          "type": "uint256"
        },
        {
          "indexed": false,
          "internalType": "uint256",
          "name": "tokenDecreased",
          "type": "uint256"
        }
      ],
      "name": "LiquidityDecreased",
      "type": "event"
    },
    {
      "anonymous": false,
      "inputs": [
        {
          "indexed": false,
          "internalType": "uint256",
          "name": "uniswapNFTPositionManagerId",
          "type": "uint256"
        },
        {
          "indexed": false,
          "internalType": "uint256",
          "name": "pactToAdd",
          "type": "uint256"
        },
        {
          "indexed": false,
          "internalType": "uint256",
          "name": "tokenToAdd",
          "type": "uint256"
        },
        {
          "indexed": false,
          "internalType": "uint256",
          "name": "pactSpent",
          "type": "uint256"
        },
        {
          "indexed": false,
          "internalType": "uint256",
          "name": "tokenSpent",
          "type": "uint256"
        }
      ],
      "name": "LiquidityIncreased",
      "type": "event"
    },
    {
      "anonymous": false,
      "inputs": [
        {
          "indexed": true,
          "internalType": "address",
          "name": "previousOwner",
          "type": "address"
        },
        {
          "indexed": true,
          "internalType": "address",
          "name": "newOwner",
          "type": "address"
        }
      ],
      "name": "OwnershipTransferred",
      "type": "event"
    },
    {
      "anonymous": false,
      "inputs": [
        {
          "indexed": true,
          "internalType": "address",
          "name": "token",
          "type": "address"
        },
        {
          "indexed": true,
          "internalType": "address",
          "name": "to",
          "type": "address"
        },
        {
          "indexed": false,
          "internalType": "uint256",
          "name": "amount",
          "type": "uint256"
        }
      ],
      "name": "TransferERC20",
      "type": "event"
    },
    {
      "inputs": [
        {
          "internalType": "contract IERC20Upgradeable",
          "name": "_erc20Token",
          "type": "address"
        },
        {
          "internalType": "uint256",
          "name": "_amount",
          "type": "uint256"
        }
      ],
      "name": "addToLp",
      "outputs": [],
      "stateMutability": "nonpayable",
      "type": "function"
    },
    {
      "inputs": [
        {
          "internalType": "uint256",
          "name": "_uniswapNFTPositionManagerId",
          "type": "uint256"
        }
      ],
      "name": "collectFees",
      "outputs": [
        {
          "internalType": "uint256",
          "name": "amount0",
          "type": "uint256"
        },
        {
          "internalType": "uint256",
          "name": "amount1",
          "type": "uint256"
        }
      ],
      "stateMutability": "nonpayable",
      "type": "function"
    },
    {
      "inputs": [
        {
          "internalType": "address",
          "name": "_tokenAddress",
          "type": "address"
        },
        {
          "internalType": "uint256",
          "name": "_amountIn",
          "type": "uint256"
        },
        {
          "internalType": "uint256",
          "name": "_amountOutMin",
          "type": "uint256"
        },
        {
          "internalType": "bytes",
          "name": "_exchangePath",
          "type": "bytes"
        }
      ],
      "name": "convertAmount",
      "outputs": [],
      "stateMutability": "nonpayable",
      "type": "function"
    },
    {
      "inputs": [
        {
          "internalType": "uint256",
          "name": "_uniswapNFTPositionManagerId",
          "type": "uint256"
        },
        {
          "internalType": "uint128",
          "name": "_liquidityAmount",
          "type": "uint128"
        }
      ],
      "name": "decreaseLiquidity",
      "outputs": [
        {
          "internalType": "uint256",
          "name": "amount0",
          "type": "uint256"
        },
        {
          "internalType": "uint256",
          "name": "amount1",
          "type": "uint256"
        }
      ],
      "stateMutability": "nonpayable",
      "type": "function"
    },
    {
      "inputs": [],
      "name": "getVersion",
      "outputs": [
        {
          "internalType": "uint256",
          "name": "",
          "type": "uint256"
        }
      ],
      "stateMutability": "pure",
      "type": "function"
    },
    {
      "inputs": [
        {
          "internalType": "contract ITreasury",
          "name": "_treasury",
          "type": "address"
        },
        {
          "internalType": "contract IUniswapRouter02",
          "name": "_uniswapRouter",
          "type": "address"
        },
        {
          "internalType": "contract IQuoter",
          "name": "_uniswapQuoter",
          "type": "address"
        },
        {
          "internalType": "contract INonfungiblePositionManager",
          "name": "_uniswapNFTPositionManager",
          "type": "address"
        }
      ],
      "name": "initialize",
      "outputs": [],
      "stateMutability": "nonpayable",
      "type": "function"
    },
    {
      "inputs": [],
      "name": "owner",
      "outputs": [
        {
          "internalType": "address",
          "name": "",
          "type": "address"
        }
      ],
      "stateMutability": "view",
      "type": "function"
    },
    {
      "inputs": [],
      "name": "renounceOwnership",
      "outputs": [],
      "stateMutability": "nonpayable",
      "type": "function"
    },
    {
      "inputs": [
        {
          "internalType": "contract IERC20Upgradeable",
          "name": "_token",
          "type": "address"
        },
        {
          "internalType": "address",
          "name": "_to",
          "type": "address"
        },
        {
          "internalType": "uint256",
          "name": "_amount",
          "type": "uint256"
        }
      ],
      "name": "transfer",
      "outputs": [],
      "stateMutability": "nonpayable",
      "type": "function"
    },
    {
      "inputs": [
        {
          "internalType": "address",
          "name": "newOwner",
          "type": "address"
        }
      ],
      "name": "transferOwnership",
      "outputs": [],
      "stateMutability": "nonpayable",
      "type": "function"
    },
    {
      "inputs": [],
      "name": "treasury",
      "outputs": [
        {
          "internalType": "contract ITreasury",
          "name": "",
          "type": "address"
        }
      ],
      "stateMutability": "view",
      "type": "function"
    },
    {
      "inputs": [],
      "name": "uniswapNFTPositionManager",
      "outputs": [
        {
          "internalType": "contract INonfungiblePositionManager",
          "name": "",
          "type": "address"
        }
      ],
      "stateMutability": "view",
      "type": "function"
    },
    {
      "inputs": [],
      "name": "uniswapQuoter",
      "outputs": [
        {
          "internalType": "contract IQuoter",
          "name": "",
          "type": "address"
        }
      ],
      "stateMutability": "view",
      "type": "function"
    },
    {
      "inputs": [],
      "name": "uniswapRouter",
      "outputs": [
        {
          "internalType": "contract IUniswapRouter02",
          "name": "",
          "type": "address"
        }
      ],
      "stateMutability": "view",
      "type": "function"
    },
    {
      "inputs": [
        {
          "internalType": "contract ITreasury",
          "name": "_newTreasury",
          "type": "address"
        }
      ],
      "name": "updateTreasury",
      "outputs": [],
      "stateMutability": "nonpayable",
      "type": "function"
    },
    {
      "inputs": [
        {
          "internalType": "contract INonfungiblePositionManager",
          "name": "_newUniswapNFTPositionManager",
          "type": "address"
        }
      ],
      "name": "updateUniswapNFTPositionManager",
      "outputs": [],
      "stateMutability": "nonpayable",
      "type": "function"
    },
    {
      "inputs": [
        {
          "internalType": "contract IQuoter",
          "name": "_newUniswapQuoter",
          "type": "address"
        }
      ],
      "name": "updateUniswapQuoter",
      "outputs": [],
      "stateMutability": "nonpayable",
      "type": "function"
    },
    {
      "inputs": [
        {
          "internalType": "contract IUniswapRouter02",
          "name": "_newUniswapRouter",
          "type": "address"
        }
      ],
      "name": "updateUniswapRouter",
      "outputs": [],
      "stateMutability": "nonpayable",
      "type": "function"
    }
  ],
  "transactionHash": "0x6ce719f4369876e8ca39dede80c2983137019bd04eb944c80ef2de2cd545a66d",
  "args": [],
  "numDeployments": 1,
  "solcInputHash": "70538770171e2b57fb222009e7aad8a4",
  "bytecode": "0x608060405234801561001057600080fd5b50612aa1806100206000396000f3fe608060405234801561001057600080fd5b50600436106101165760003560e01c8063908bb2ae116100a2578063beabacc811610071578063beabacc814610235578063c1eda8bb14610248578063f2fde38b1461025b578063f8c8765e1461026e578063fb49dbf21461028157600080fd5b8063908bb2ae146101d457806399d7b594146101e7578063a3ad867c1461020f578063b17acdcd1461022257600080fd5b8063715018a6116100e9578063715018a614610182578063735de9f71461018a5780637f51bb1f1461019d578063836621cf146101b05780638da5cb5b146101c357600080fd5b80630d8e6e2c1461011b5780630e242d5a1461012f5780634db4a3521461014457806361d027b31461016f575b600080fd5b604051600181526020015b60405180910390f35b61014261013d3660046123c0565b610294565b005b609954610157906001600160a01b031681565b6040516001600160a01b039091168152602001610126565b609754610157906001600160a01b031681565b6101426103fa565b609854610157906001600160a01b031681565b6101426101ab3660046123c0565b610430565b6101426101be3660046123c0565b61058d565b6033546001600160a01b0316610157565b6101426101e23660046123c0565b6106ea565b6101fa6101f536600461267c565b610847565b60408051928352602083019190915201610126565b61014261021d3660046124f1565b610c65565b6101fa6102303660046125ad565b611536565b6101426102433660046124b1565b61182e565b6101426102563660046123dc565b61191b565b6101426102693660046123c0565b611d4f565b61014261027c36600461251c565b611dea565b609a54610157906001600160a01b031681565b6033546001600160a01b03163314806103b35750609760009054906101000a90046001600160a01b03166001600160a01b0316635fac917a6040518163ffffffff1660e01b815260040160206040518083038186803b1580156102f657600080fd5b505afa15801561030a573d6000803e3d6000fd5b505050506040513d601f19601f8201168201806040525081019061032e9190612495565b6001600160a01b031663502791b66040518163ffffffff1660e01b815260040160206040518083038186803b15801561036657600080fd5b505afa15801561037a573d6000803e3d6000fd5b505050506040513d601f19601f8201168201806040525081019061039e9190612495565b6001600160a01b0316336001600160a01b0316145b6103d85760405162461bcd60e51b81526004016103cf9061283d565b60405180910390fd5b609980546001600160a01b0319166001600160a01b0392909216919091179055565b6033546001600160a01b031633146104245760405162461bcd60e51b81526004016103cf90612808565b61042e6000611f01565b565b6033546001600160a01b031633148061054f5750609760009054906101000a90046001600160a01b03166001600160a01b0316635fac917a6040518163ffffffff1660e01b815260040160206040518083038186803b15801561049257600080fd5b505afa1580156104a6573d6000803e3d6000fd5b505050506040513d601f19601f820116820180604052508101906104ca9190612495565b6001600160a01b031663502791b66040518163ffffffff1660e01b815260040160206040518083038186803b15801561050257600080fd5b505afa158015610516573d6000803e3d6000fd5b505050506040513d601f19601f8201168201806040525081019061053a9190612495565b6001600160a01b0316336001600160a01b0316145b61056b5760405162461bcd60e51b81526004016103cf9061283d565b609780546001600160a01b0319166001600160a01b0392909216919091179055565b6033546001600160a01b03163314806106ac5750609760009054906101000a90046001600160a01b03166001600160a01b0316635fac917a6040518163ffffffff1660e01b815260040160206040518083038186803b1580156105ef57600080fd5b505afa158015610603573d6000803e3d6000fd5b505050506040513d601f19601f820116820180604052508101906106279190612495565b6001600160a01b031663502791b66040518163ffffffff1660e01b815260040160206040518083038186803b15801561065f57600080fd5b505afa158015610673573d6000803e3d6000fd5b505050506040513d601f19601f820116820180604052508101906106979190612495565b6001600160a01b0316336001600160a01b0316145b6106c85760405162461bcd60e51b81526004016103cf9061283d565b609a80546001600160a01b0319166001600160a01b0392909216919091179055565b6033546001600160a01b03163314806108095750609760009054906101000a90046001600160a01b03166001600160a01b0316635fac917a6040518163ffffffff1660e01b815260040160206040518083038186803b15801561074c57600080fd5b505afa158015610760573d6000803e3d6000fd5b505050506040513d601f19601f820116820180604052508101906107849190612495565b6001600160a01b031663502791b66040518163ffffffff1660e01b815260040160206040518083038186803b1580156107bc57600080fd5b505afa1580156107d0573d6000803e3d6000fd5b505050506040513d601f19601f820116820180604052508101906107f49190612495565b6001600160a01b0316336001600160a01b0316145b6108255760405162461bcd60e51b81526004016103cf9061283d565b609880546001600160a01b0319166001600160a01b0392909216919091179055565b60008061085c6033546001600160a01b031690565b6001600160a01b0316336001600160a01b031614806109815750609760009054906101000a90046001600160a01b03166001600160a01b0316635fac917a6040518163ffffffff1660e01b815260040160206040518083038186803b1580156108c457600080fd5b505afa1580156108d8573d6000803e3d6000fd5b505050506040513d601f19601f820116820180604052508101906108fc9190612495565b6001600160a01b031663502791b66040518163ffffffff1660e01b815260040160206040518083038186803b15801561093457600080fd5b505afa158015610948573d6000803e3d6000fd5b505050506040513d601f19601f8201168201806040525081019061096c9190612495565b6001600160a01b0316336001600160a01b0316145b61099d5760405162461bcd60e51b81526004016103cf9061283d565b609a546040805160a0810182528681526001600160801b038681166020830190815260008385018181526060850191825242608086019081529551630624e65f60e11b81529451600486015291519092166024840152516044830152516064820152905160848201526001600160a01b0390911690630c49ccbe9060a4016040805180830381600087803b158015610a3457600080fd5b505af1158015610a48573d6000803e3d6000fd5b505050506040513d601f19601f82011682018060405250810190610a6c91906126ab565b609a5460405163133f757160e31b81526004810188905292945090925060009182916001600160a01b0316906399fbab88906024016101806040518083038186803b158015610aba57600080fd5b505afa158015610ace573d6000803e3d6000fd5b505050506040513d601f19601f82011682018060405250810190610af291906126ce565b505050506001600160801b031697505050505093505050609760009054906101000a90046001600160a01b03166001600160a01b0316633b9a01766040518163ffffffff1660e01b815260040160206040518083038186803b158015610b5757600080fd5b505afa158015610b6b573d6000803e3d6000fd5b505050506040513d601f19601f82011682018060405250810190610b8f9190612495565b6001600160a01b0316826001600160a01b03161415610c0457604080518781526001600160801b038716602082015290810182905260608101859052608081018490527f96908f55949ad4ff07283a739ddc4c8f9d1222ac6dd27de78c61936c65c26ec79060a00160405180910390a1610c5c565b604080518781526001600160801b038716602082015290810182905260608101849052608081018590527f96908f55949ad4ff07283a739ddc4c8f9d1222ac6dd27de78c61936c65c26ec79060a00160405180910390a15b50509250929050565b60026065541415610cb85760405162461bcd60e51b815260206004820152601f60248201527f5265656e7472616e637947756172643a207265656e7472616e742063616c6c0060448201526064016103cf565b600260655580610cc75761152d565b610cdc6001600160a01b038316333084611f53565b60975460405163e486033960e01b81526001600160a01b038481166004830152600092839291169063e48603399060240160006040518083038186803b158015610d2557600080fd5b505afa158015610d39573d6000803e3d6000fd5b505050506040513d6000823e601f3d908101601f19168201604052610d6191908101906125dd565b9650509550505050506000600284610d7991906129bc565b60985460405163095ea7b360e01b81526001600160a01b0391821660048201526024810183905291925086169063095ea7b390604401602060405180830381600087803b158015610dc957600080fd5b505af1158015610ddd573d6000803e3d6000fd5b505050506040513d601f19601f82011682018060405250810190610e019190612475565b5060985460408051608081018252848152306020820152808201849052600060608201819052915163b858183f60e01b815291926001600160a01b03169163b858183f91610e51916004016128e5565b602060405180830381600087803b158015610e6b57600080fd5b505af1158015610e7f573d6000803e3d6000fd5b505050506040513d601f19601f82011682018060405250810190610ea391906125c5565b90506000609760009054906101000a90046001600160a01b03166001600160a01b0316633b9a01766040518163ffffffff1660e01b815260040160206040518083038186803b158015610ef557600080fd5b505afa158015610f09573d6000803e3d6000fd5b505050506040513d601f19601f82011682018060405250810190610f2d9190612495565b6040516370a0823160e01b81523060048201526001600160a01b0391909116906370a082319060240160206040518083038186803b158015610f6e57600080fd5b505afa158015610f82573d6000803e3d6000fd5b505050506040513d601f19601f82011682018060405250810190610fa691906125c5565b6040516370a0823160e01b81523060048201529091506000906001600160a01b038916906370a082319060240160206040518083038186803b158015610feb57600080fd5b505afa158015610fff573d6000803e3d6000fd5b505050506040513d601f19601f8201168201806040525081019061102391906125c5565b9050600080896001600160a01b0316609760009054906101000a90046001600160a01b03166001600160a01b0316633b9a01766040518163ffffffff1660e01b815260040160206040518083038186803b15801561108057600080fd5b505afa158015611094573d6000803e3d6000fd5b505050506040513d601f19601f820116820180604052508101906110b89190612495565b6001600160a01b031610156110d15750839050846110d7565b50849050835b609760009054906101000a90046001600160a01b03166001600160a01b0316633b9a01766040518163ffffffff1660e01b815260040160206040518083038186803b15801561112557600080fd5b505afa158015611139573d6000803e3d6000fd5b505050506040513d601f19601f8201168201806040525081019061115d9190612495565b609a5460405163095ea7b360e01b81526001600160a01b0391821660048201526024810188905291169063095ea7b390604401602060405180830381600087803b1580156111aa57600080fd5b505af11580156111be573d6000803e3d6000fd5b505050506040513d601f19601f820116820180604052508101906111e29190612475565b50609a5460405163095ea7b360e01b81526001600160a01b03918216600482015260248101889052908b169063095ea7b390604401602060405180830381600087803b15801561123157600080fd5b505af1158015611245573d6000803e3d6000fd5b505050506040513d601f19601f820116820180604052508101906112699190612475565b50609a546040805160c0810182528a815260208101858152818301858152600060608401818152608085019182524260a08601908152955163219f5d1760e01b815294516004860152925160248501529051604484015290516064830152516084820152905160a48201526001600160a01b039091169063219f5d179060c401606060405180830381600087803b15801561130357600080fd5b505af1158015611317573d6000803e3d6000fd5b505050506040513d601f19601f8201168201806040525081019061133b9190612577565b5050506000609760009054906101000a90046001600160a01b03166001600160a01b0316633b9a01766040518163ffffffff1660e01b815260040160206040518083038186803b15801561138e57600080fd5b505afa1580156113a2573d6000803e3d6000fd5b505050506040513d601f19601f820116820180604052508101906113c69190612495565b6040516370a0823160e01b81523060048201526001600160a01b0391909116906370a082319060240160206040518083038186803b15801561140757600080fd5b505afa15801561141b573d6000803e3d6000fd5b505050506040513d601f19601f8201168201806040525081019061143f91906125c5565b61144990866129dc565b6040516370a0823160e01b81523060048201529091506000906001600160a01b038d16906370a082319060240160206040518083038186803b15801561148e57600080fd5b505afa1580156114a2573d6000803e3d6000fd5b505050506040513d601f19601f820116820180604052508101906114c691906125c5565b6114d090866129dc565b604080518c8152602081018a90529081018a905260608101849052608081018290529091507ffeecc6a8af396844068aade6ea370965365907c9d4e712c2e7d82e7979ae6d6d9060a00160405180910390a1505050505050505050505b50506001606555565b60975460009081906001600160a01b031633146115a85760405162461bcd60e51b815260206004820152602a60248201527f54726561737572794c70537761703a2063616c6c6572206973206e6f742074686044820152696520747265617375727960b01b60648201526084016103cf565b609a54604080516080810182528581526097546001600160a01b03908116602083019081526001600160801b0383850181815260608501828152955163fc6f786560e01b8152945160048601529151831660248501529051811660448401529251909216606482015291169063fc6f7865906084016040805180830381600087803b15801561163657600080fd5b505af115801561164a573d6000803e3d6000fd5b505050506040513d601f19601f8201168201806040525081019061166e91906126ab565b609a5460405163133f757160e31b8152600481018790529294509092506000916001600160a01b03909116906399fbab88906024016101806040518083038186803b1580156116bc57600080fd5b505afa1580156116d0573d6000803e3d6000fd5b505050506040513d601f19601f820116820180604052508101906116f491906126ce565b50505050505050505092505050609760009054906101000a90046001600160a01b03166001600160a01b0316633b9a01766040518163ffffffff1660e01b815260040160206040518083038186803b15801561174f57600080fd5b505afa158015611763573d6000803e3d6000fd5b505050506040513d601f19601f820116820180604052508101906117879190612495565b6001600160a01b0316816001600160a01b031614156117e65760408051858152602081018590529081018390527fa54e6c2fc0861aa9c991b26891d71059d517983b9e84b91020f42609c452eb9d9060600160405180910390a1611828565b60408051858152602081018490529081018490527fa54e6c2fc0861aa9c991b26891d71059d517983b9e84b91020f42609c452eb9d9060600160405180910390a15b50915091565b6033546001600160a01b031633146118585760405162461bcd60e51b81526004016103cf90612808565b600260655414156118ab5760405162461bcd60e51b815260206004820152601f60248201527f5265656e7472616e637947756172643a207265656e7472616e742063616c6c0060448201526064016103cf565b60026065556118c46001600160a01b0384168383611fc4565b816001600160a01b0316836001600160a01b03167f9b035625e569d1d2bf54830a290aefba7ab11610ba8490871dc62b86b63a89568360405161190991815260200190565b60405180910390a35050600160655550565b6033546001600160a01b0316331480611a3a5750609760009054906101000a90046001600160a01b03166001600160a01b0316635fac917a6040518163ffffffff1660e01b815260040160206040518083038186803b15801561197d57600080fd5b505afa158015611991573d6000803e3d6000fd5b505050506040513d601f19601f820116820180604052508101906119b59190612495565b6001600160a01b031663502791b66040518163ffffffff1660e01b815260040160206040518083038186803b1580156119ed57600080fd5b505afa158015611a01573d6000803e3d6000fd5b505050506040513d601f19601f82011682018060405250810190611a259190612495565b6001600160a01b0316336001600160a01b0316145b611a565760405162461bcd60e51b81526004016103cf9061283d565b6097546040516319f3736160e01b81526001600160a01b038681166004830152909116906319f373619060240160206040518083038186803b158015611a9b57600080fd5b505afa158015611aaf573d6000803e3d6000fd5b505050506040513d601f19601f82011682018060405250810190611ad39190612475565b611b455760405162461bcd60e51b815260206004820152603860248201527f54726561737572794c70537761703a3a636f6e76657274416d6f756e743a207460448201527f686973206973206e6f7420612076616c696420746f6b656e000000000000000060648201526084016103cf565b8051611bd75760975460405163e486033960e01b81526001600160a01b038681166004830152600092169063e48603399060240160006040518083038186803b158015611b9157600080fd5b505afa158015611ba5573d6000803e3d6000fd5b505050506040513d6000823e601f3d908101601f19168201604052611bcd91908101906125dd565b5096505050505050505b60985460405163095ea7b360e01b81526001600160a01b039182166004820152602481018590529085169063095ea7b390604401602060405180830381600087803b158015611c2557600080fd5b505af1158015611c39573d6000803e3d6000fd5b505050506040513d601f19601f82011682018060405250810190611c5d9190612475565b506098546040805160808101825283815230602082015280820186905260608101859052905163b858183f60e01b81526000926001600160a01b03169163b858183f91611cad91906004016128e5565b602060405180830381600087803b158015611cc757600080fd5b505af1158015611cdb573d6000803e3d6000fd5b505050506040513d601f19601f82011682018060405250810190611cff91906125c5565b9050846001600160a01b03167f8cf0160167000e9c6c54bfc6c2ef2c6895eeecc31fbd147d5d070b4408662b3985858585604051611d409493929190612933565b60405180910390a25050505050565b6033546001600160a01b03163314611d795760405162461bcd60e51b81526004016103cf90612808565b6001600160a01b038116611dde5760405162461bcd60e51b815260206004820152602660248201527f4f776e61626c653a206e6577206f776e657220697320746865207a65726f206160448201526564647265737360d01b60648201526084016103cf565b611de781611f01565b50565b600054610100900460ff16611e055760005460ff1615611e09565b303b155b611e6c5760405162461bcd60e51b815260206004820152602e60248201527f496e697469616c697a61626c653a20636f6e747261637420697320616c72656160448201526d191e481a5b9a5d1a585b1a5e995960921b60648201526084016103cf565b600054610100900460ff16158015611e8e576000805461ffff19166101011790555b611e96611ff9565b611e9e612030565b609780546001600160a01b038088166001600160a01b0319928316179092556098805487841690831617905560998054868416908316179055609a8054928516929091169190911790558015611efa576000805461ff00191690555b5050505050565b603380546001600160a01b038381166001600160a01b0319831681179093556040519116919082907f8be0079c531659141344cd1fd0a4f28419497f9722a3daafe3b4186f6b6457e090600090a35050565b6040516001600160a01b0380851660248301528316604482015260648101829052611fbe9085906323b872dd60e01b906084015b60408051601f198184030181529190526020810180516001600160e01b03166001600160e01b03199093169290921790915261205f565b50505050565b6040516001600160a01b038316602482015260448101829052611ff490849063a9059cbb60e01b90606401611f87565b505050565b600054610100900460ff166120205760405162461bcd60e51b81526004016103cf9061289a565b612028612131565b61042e612158565b600054610100900460ff166120575760405162461bcd60e51b81526004016103cf9061289a565b61042e612188565b60006120b4826040518060400160405280602081526020017f5361666545524332303a206c6f772d6c6576656c2063616c6c206661696c6564815250856001600160a01b03166121b69092919063ffffffff16565b805190915015611ff457808060200190518101906120d29190612475565b611ff45760405162461bcd60e51b815260206004820152602a60248201527f5361666545524332303a204552433230206f7065726174696f6e20646964206e6044820152691bdd081cdd58d8d9595960b21b60648201526084016103cf565b600054610100900460ff1661042e5760405162461bcd60e51b81526004016103cf9061289a565b600054610100900460ff1661217f5760405162461bcd60e51b81526004016103cf9061289a565b61042e33611f01565b600054610100900460ff166121af5760405162461bcd60e51b81526004016103cf9061289a565b6001606555565b60606121c584846000856121cf565b90505b9392505050565b6060824710156122305760405162461bcd60e51b815260206004820152602660248201527f416464726573733a20696e73756666696369656e742062616c616e636520666f6044820152651c8818d85b1b60d21b60648201526084016103cf565b843b61227e5760405162461bcd60e51b815260206004820152601d60248201527f416464726573733a2063616c6c20746f206e6f6e2d636f6e747261637400000060448201526064016103cf565b600080866001600160a01b0316858760405161229a91906127d9565b60006040518083038185875af1925050503d80600081146122d7576040519150601f19603f3d011682016040523d82523d6000602084013e6122dc565b606091505b50915091506122ec8282866122f7565b979650505050505050565b606083156123065750816121c8565b8251156123165782518084602001fd5b8160405162461bcd60e51b81526004016103cf91906127f5565b805161233b81612a41565b919050565b600082601f830112612350578081fd5b815161236361235e82612994565b612963565b818152846020838601011115612377578283fd5b6123888260208301602087016129ff565b949350505050565b8051600281900b811461233b57600080fd5b805161233b81612a56565b805162ffffff8116811461233b57600080fd5b6000602082840312156123d1578081fd5b81356121c881612a41565b600080600080608085870312156123f1578283fd5b84356123fc81612a41565b93506020850135925060408501359150606085013567ffffffffffffffff811115612425578182fd5b8501601f81018713612435578182fd5b803561244361235e82612994565b818152886020838501011115612457578384fd5b81602084016020830137908101602001929092525092959194509250565b600060208284031215612486578081fd5b815180151581146121c8578182fd5b6000602082840312156124a6578081fd5b81516121c881612a41565b6000806000606084860312156124c5578283fd5b83356124d081612a41565b925060208401356124e081612a41565b929592945050506040919091013590565b60008060408385031215612503578081fd5b823561250e81612a41565b946020939093013593505050565b60008060008060808587031215612531578182fd5b843561253c81612a41565b9350602085013561254c81612a41565b9250604085013561255c81612a41565b9150606085013561256c81612a41565b939692955090935050565b60008060006060848603121561258b578081fd5b835161259681612a56565b602085015160409095015190969495509392505050565b6000602082840312156125be578081fd5b5035919050565b6000602082840312156125d6578081fd5b5051919050565b600080600080600080600060e0888a0312156125f7578485fd5b8751965060208801516003811061260c578586fd5b8096505060408801519450606088015193506080880151925060a088015167ffffffffffffffff8082111561263f578384fd5b61264b8b838c01612340565b935060c08a0151915080821115612660578283fd5b5061266d8a828b01612340565b91505092959891949750929550565b6000806040838503121561268e578182fd5b8235915060208301356126a081612a56565b809150509250929050565b600080604083850312156126bd578182fd5b505080516020909101519092909150565b6000806000806000806000806000806000806101808d8f0312156126f0578586fd5b8c516bffffffffffffffffffffffff8116811461270b578687fd5b9b5061271960208e01612330565b9a5061272760408e01612330565b995061273560608e01612330565b985061274360808e016123ad565b975061275160a08e01612390565b965061275f60c08e01612390565b955061276d60e08e016123a2565b94506101008d015193506101208d0151925061278c6101408e016123a2565b915061279b6101608e016123a2565b90509295989b509295989b509295989b565b600081518084526127c58160208601602086016129ff565b601f01601f19169290920160200192915050565b600082516127eb8184602087016129ff565b9190910192915050565b6020815260006121c860208301846127ad565b6020808252818101527f4f776e61626c653a2063616c6c6572206973206e6f7420746865206f776e6572604082015260600190565b6020808252603f908201527f54726561737572794c70537761703a2063616c6c6572206973206e6f7420746860408201527f65206f776e6572206e6f7220496d706163744d61726b6574436f756e63696c00606082015260800190565b6020808252602b908201527f496e697469616c697a61626c653a20636f6e7472616374206973206e6f74206960408201526a6e697469616c697a696e6760a81b606082015260800190565b60208152600082516080602084015261290160a08401826127ad565b905060018060a01b03602085015116604084015260408401516060840152606084015160808401528091505092915050565b84815283602082015260806040820152600061295260808301856127ad565b905082606083015295945050505050565b604051601f8201601f1916810167ffffffffffffffff8111828210171561298c5761298c612a2b565b604052919050565b600067ffffffffffffffff8211156129ae576129ae612a2b565b50601f01601f191660200190565b6000826129d757634e487b7160e01b81526012600452602481fd5b500490565b6000828210156129fa57634e487b7160e01b81526011600452602481fd5b500390565b60005b83811015612a1a578181015183820152602001612a02565b83811115611fbe5750506000910152565b634e487b7160e01b600052604160045260246000fd5b6001600160a01b0381168114611de757600080fd5b6001600160801b0381168114611de757600080fdfea264697066735822122010f40246b94a9d8661e12d0f16adf3b08e9a6b14cc9246954ea665d9f8a3032764736f6c63430008040033",
  "devdoc": {
    "events": {
      "AmountConverted(address,uint256,uint256,bytes,uint256)": {
        "params": {
          "amountIn": "Amount changed",
          "amountOutMin": "Minimum amount out",
          "amountsOut": "Value of the final amount out",
          "exchangePath": "Exchange path",
          "tokenAddress": "Address of the token"
        }
      },
      "FeesCollected(uint256,uint256,uint256)": {
        "params": {
          "pactFee": "pactFee",
          "tokenFee": "tokenFee",
          "uniswapNFTPositionManagerId": "Position manager tokenId"
        }
      },
      "LiquidityDecreased(uint256,uint256,uint256,uint256,uint256)": {
        "params": {
          "liquidityDecreased": "Liquidity amount that was decreased from LP",
          "liquidityLeft": "Liquidity amount that was left in LP",
          "pactDecreased": "Amount of PACT that was decreased from LP",
          "tokenDecreased": "Amount of token that was decreased from LP",
          "uniswapNFTPositionManagerId": "Position manager tokenId"
        }
      },
      "LiquidityIncreased(uint256,uint256,uint256,uint256,uint256)": {
        "params": {
          "pactSpent": "Amount of PACT that have been added in LP",
          "pactToAdd": "Amount of PACT that should have been added in LP",
          "tokenSpent": "Amount of token that have been added in LP",
          "tokenToAdd": "Amount of token that should have been added in LP",
          "uniswapNFTPositionManagerId": "Position manager tokenId"
        }
      },
      "TransferERC20(address,address,uint256)": {
        "params": {
          "amount": "Amount of the transaction",
          "to": "Address of the receiver",
          "token": "ERC20 token address"
        }
      }
    },
    "kind": "dev",
    "methods": {
      "addToLp(address,uint256)": {
        "params": {
          "_amount": "amount to be added in lp",
          "_erc20Token": "address of the ERC20 token"
        }
      },
      "collectFees(uint256)": {
        "params": {
          "_uniswapNFTPositionManagerId": "id of the lp"
        }
      },
      "convertAmount(address,uint256,uint256,bytes)": {
        "params": {
          "_amountIn": "amount of the token to convert",
          "_amountOutMin": "minimum amount of the token to receive",
          "_exchangePath": "exchange path - if empty, it will use the default exchange path",
          "_tokenAddress": "address of the token to convert"
        }
      },
      "owner()": {
        "details": "Returns the address of the current owner."
      },
      "renounceOwnership()": {
        "details": "Leaves the contract without owner. It will not be possible to call `onlyOwner` functions anymore. Can only be called by the current owner. NOTE: Renouncing ownership will leave the contract without an owner, thereby removing any functionality that is only available to the owner."
      },
      "transfer(address,address,uint256)": {
        "params": {
          "_amount": "amount of the transaction",
          "_to": "address of the receiver",
          "_token": "address of the ERC20 token"
        }
      },
      "transferOwnership(address)": {
        "details": "Transfers ownership of the contract to a new account (`newOwner`). Can only be called by the current owner."
      },
      "updateTreasury(address)": {
        "params": {
          "_newTreasury": "address of the new Treasury contract"
        }
      },
      "updateUniswapNFTPositionManager(address)": {
        "params": {
          "_newUniswapNFTPositionManager": "address of the new UniswapNFTPositionManager contract"
        }
      },
      "updateUniswapQuoter(address)": {
        "params": {
          "_newUniswapQuoter": "address of the new UniswapQuoter contract"
        }
      },
      "updateUniswapRouter(address)": {
        "params": {
          "_newUniswapRouter": "address of the new UniswapRouter contract"
        }
      }
    },
    "version": 1
  },
  "userdoc": {
    "events": {
      "AmountConverted(address,uint256,uint256,bytes,uint256)": {
        "notice": "Triggered when a token has been set"
      },
      "FeesCollected(uint256,uint256,uint256)": {
        "notice": "Triggered when the fees of an LP has been decreased"
      },
      "LiquidityDecreased(uint256,uint256,uint256,uint256,uint256)": {
        "notice": "Triggered when a LP has been decreased"
      },
      "LiquidityIncreased(uint256,uint256,uint256,uint256,uint256)": {
        "notice": "Triggered when a LP has been increased"
      },
      "TransferERC20(address,address,uint256)": {
        "notice": "Triggered when an amount of an ERC20 has been transferred from this contract to an address"
      }
    },
    "kind": "user",
    "methods": {
      "addToLp(address,uint256)": {
        "notice": "Adds tokens to lp"
      },
      "collectFees(uint256)": {
        "notice": "Collects fees from lp"
      },
      "convertAmount(address,uint256,uint256,bytes)": {
        "notice": "Converts an amount of a token to another token"
      },
      "getVersion()": {
        "notice": "Returns the current implementation version"
      },
      "transfer(address,address,uint256)": {
        "notice": "Transfers an amount of an ERC20 from this contract to an address"
      },
      "updateTreasury(address)": {
        "notice": "Updates the Treasury contract address"
      },
      "updateUniswapNFTPositionManager(address)": {
        "notice": "Updates the UniswapNFTPositionManager contract address"
      },
      "updateUniswapQuoter(address)": {
        "notice": "Updates the UniswapQuoter contract address"
      },
      "updateUniswapRouter(address)": {
        "notice": "Updates the UniswapRouter contract address"
      }
    },
    "version": 1
  },
  "storageLayout": {
    "storage": [
      {
        "astId": 542,
        "contract": "contracts/treasuryLpSwap/TreasuryLpSwapImplementation.sol:TreasuryLpSwapImplementation",
        "label": "_initialized",
        "offset": 0,
        "slot": "0",
        "type": "t_bool"
      },
      {
        "astId": 545,
        "contract": "contracts/treasuryLpSwap/TreasuryLpSwapImplementation.sol:TreasuryLpSwapImplementation",
        "label": "_initializing",
        "offset": 1,
        "slot": "0",
        "type": "t_bool"
      },
      {
        "astId": 1370,
        "contract": "contracts/treasuryLpSwap/TreasuryLpSwapImplementation.sol:TreasuryLpSwapImplementation",
        "label": "__gap",
        "offset": 0,
        "slot": "1",
        "type": "t_array(t_uint256)50_storage"
      },
      {
        "astId": 420,
        "contract": "contracts/treasuryLpSwap/TreasuryLpSwapImplementation.sol:TreasuryLpSwapImplementation",
        "label": "_owner",
        "offset": 0,
        "slot": "51",
        "type": "t_address"
      },
      {
        "astId": 534,
        "contract": "contracts/treasuryLpSwap/TreasuryLpSwapImplementation.sol:TreasuryLpSwapImplementation",
        "label": "__gap",
        "offset": 0,
        "slot": "52",
        "type": "t_array(t_uint256)49_storage"
      },
      {
        "astId": 736,
        "contract": "contracts/treasuryLpSwap/TreasuryLpSwapImplementation.sol:TreasuryLpSwapImplementation",
        "label": "_status",
        "offset": 0,
        "slot": "101",
        "type": "t_uint256"
      },
      {
        "astId": 779,
        "contract": "contracts/treasuryLpSwap/TreasuryLpSwapImplementation.sol:TreasuryLpSwapImplementation",
        "label": "__gap",
        "offset": 0,
        "slot": "102",
        "type": "t_array(t_uint256)49_storage"
      },
      {
        "astId": 36139,
        "contract": "contracts/treasuryLpSwap/TreasuryLpSwapImplementation.sol:TreasuryLpSwapImplementation",
        "label": "treasury",
        "offset": 0,
        "slot": "151",
        "type": "t_contract(ITreasury)35281"
      },
      {
        "astId": 36143,
        "contract": "contracts/treasuryLpSwap/TreasuryLpSwapImplementation.sol:TreasuryLpSwapImplementation",
        "label": "uniswapRouter",
        "offset": 0,
        "slot": "152",
        "type": "t_contract(IUniswapRouter02)19264"
      },
      {
        "astId": 36147,
        "contract": "contracts/treasuryLpSwap/TreasuryLpSwapImplementation.sol:TreasuryLpSwapImplementation",
        "label": "uniswapQuoter",
        "offset": 0,
        "slot": "153",
        "type": "t_contract(IQuoter)19218"
      },
      {
        "astId": 36151,
        "contract": "contracts/treasuryLpSwap/TreasuryLpSwapImplementation.sol:TreasuryLpSwapImplementation",
        "label": "uniswapNFTPositionManager",
        "offset": 0,
        "slot": "154",
        "type": "t_contract(INonfungiblePositionManager)19161"
      }
    ],
    "types": {
      "t_address": {
        "encoding": "inplace",
        "label": "address",
        "numberOfBytes": "20"
      },
      "t_array(t_uint256)49_storage": {
        "base": "t_uint256",
        "encoding": "inplace",
        "label": "uint256[49]",
        "numberOfBytes": "1568"
      },
      "t_array(t_uint256)50_storage": {
        "base": "t_uint256",
        "encoding": "inplace",
        "label": "uint256[50]",
        "numberOfBytes": "1600"
      },
      "t_bool": {
        "encoding": "inplace",
        "label": "bool",
        "numberOfBytes": "1"
      },
      "t_contract(INonfungiblePositionManager)19161": {
        "encoding": "inplace",
        "label": "contract INonfungiblePositionManager",
        "numberOfBytes": "20"
      },
      "t_contract(IQuoter)19218": {
        "encoding": "inplace",
        "label": "contract IQuoter",
        "numberOfBytes": "20"
      },
      "t_contract(ITreasury)35281": {
        "encoding": "inplace",
        "label": "contract ITreasury",
        "numberOfBytes": "20"
      },
      "t_contract(IUniswapRouter02)19264": {
        "encoding": "inplace",
        "label": "contract IUniswapRouter02",
        "numberOfBytes": "20"
      },
      "t_uint256": {
        "encoding": "inplace",
        "label": "uint256",
        "numberOfBytes": "32"
      }
    }
  }
}