{
  "_format": "hh-sol-artifact-1",
  "contractName": "DepositImplementation",
  "sourceName": "contracts/deposit/DepositImplementation.sol",
  "abi": [
    {
      "anonymous": false,
      "inputs": [
        {
          "indexed": true,
          "internalType": "address",
          "name": "depositorAddress",
          "type": "address"
        },
        {
          "indexed": true,
          "internalType": "address",
          "name": "token",
          "type": "address"
        },
        {
          "indexed": false,
          "internalType": "uint256",
          "name": "amount",
          "type": "uint256"
        }
      ],
      "name": "DepositAdded",
      "type": "event"
    },
    {
      "anonymous": false,
      "inputs": [
        {
          "indexed": true,
          "internalType": "address",
          "name": "depositorAddress",
          "type": "address"
        },
        {
          "indexed": true,
          "internalType": "address",
          "name": "token",
          "type": "address"
        },
        {
          "indexed": false,
          "internalType": "uint256",
          "name": "amount",
          "type": "uint256"
        },
        {
          "indexed": false,
          "internalType": "uint256",
          "name": "interest",
          "type": "uint256"
        }
      ],
      "name": "DonateInterest",
      "type": "event"
    },
    {
      "anonymous": false,
      "inputs": [
        {
          "indexed": true,
          "internalType": "address",
          "name": "oldDonationMiner",
          "type": "address"
        },
        {
          "indexed": true,
          "internalType": "address",
          "name": "newDonationMiner",
          "type": "address"
        }
      ],
      "name": "DonationMinerUpdated",
      "type": "event"
    },
    {
      "anonymous": false,
      "inputs": [
        {
          "indexed": true,
          "internalType": "address",
          "name": "oldLendingPool",
          "type": "address"
        },
        {
          "indexed": true,
          "internalType": "address",
          "name": "newLendingPool",
          "type": "address"
        }
      ],
      "name": "LendingPoolUpdated",
      "type": "event"
    },
    {
      "anonymous": false,
      "inputs": [
        {
          "indexed": true,
          "internalType": "address",
          "name": "previousOwner",
          "type": "address"
        },
        {
          "indexed": true,
          "internalType": "address",
          "name": "newOwner",
          "type": "address"
        }
      ],
      "name": "OwnershipTransferred",
      "type": "event"
    },
    {
      "anonymous": false,
      "inputs": [
        {
          "indexed": false,
          "internalType": "address",
          "name": "account",
          "type": "address"
        }
      ],
      "name": "Paused",
      "type": "event"
    },
    {
      "anonymous": false,
      "inputs": [
        {
          "indexed": true,
          "internalType": "address",
          "name": "tokenAddress",
          "type": "address"
        }
      ],
      "name": "TokenAdded",
      "type": "event"
    },
    {
      "anonymous": false,
      "inputs": [
        {
          "indexed": true,
          "internalType": "address",
          "name": "tokenAddress",
          "type": "address"
        }
      ],
      "name": "TokenRemoved",
      "type": "event"
    },
    {
      "anonymous": false,
      "inputs": [
        {
          "indexed": true,
          "internalType": "address",
          "name": "oldTreasury",
          "type": "address"
        },
        {
          "indexed": true,
          "internalType": "address",
          "name": "newTreasury",
          "type": "address"
        }
      ],
      "name": "TreasuryUpdated",
      "type": "event"
    },
    {
      "anonymous": false,
      "inputs": [
        {
          "indexed": false,
          "internalType": "address",
          "name": "account",
          "type": "address"
        }
      ],
      "name": "Unpaused",
      "type": "event"
    },
    {
      "anonymous": false,
      "inputs": [
        {
          "indexed": true,
          "internalType": "address",
          "name": "depositorAddress",
          "type": "address"
        },
        {
          "indexed": true,
          "internalType": "address",
          "name": "token",
          "type": "address"
        },
        {
          "indexed": false,
          "internalType": "uint256",
          "name": "amount",
          "type": "uint256"
        },
        {
          "indexed": false,
          "internalType": "uint256",
          "name": "interest",
          "type": "uint256"
        }
      ],
      "name": "Withdraw",
      "type": "event"
    },
    {
      "inputs": [
        {
          "internalType": "address",
          "name": "_tokenAddress",
          "type": "address"
        }
      ],
      "name": "addToken",
      "outputs": [],
      "stateMutability": "nonpayable",
      "type": "function"
    },
    {
      "inputs": [
        {
          "internalType": "address",
          "name": "_tokenAddress",
          "type": "address"
        },
        {
          "internalType": "uint256",
          "name": "_amount",
          "type": "uint256"
        }
      ],
      "name": "deposit",
      "outputs": [],
      "stateMutability": "nonpayable",
      "type": "function"
    },
    {
      "inputs": [
        {
          "internalType": "address",
          "name": "_depositorAddress",
          "type": "address"
        },
        {
          "internalType": "address",
          "name": "_tokenAddress",
          "type": "address"
        },
        {
          "internalType": "uint256",
          "name": "_amount",
          "type": "uint256"
        }
      ],
      "name": "donateInterest",
      "outputs": [],
      "stateMutability": "nonpayable",
      "type": "function"
    },
    {
      "inputs": [],
      "name": "donationMiner",
      "outputs": [
        {
          "internalType": "contract IDonationMiner",
          "name": "",
          "type": "address"
        }
      ],
      "stateMutability": "view",
      "type": "function"
    },
    {
      "inputs": [],
      "name": "getVersion",
      "outputs": [
        {
          "internalType": "uint256",
          "name": "",
          "type": "uint256"
        }
      ],
      "stateMutability": "pure",
      "type": "function"
    },
    {
      "inputs": [
        {
          "internalType": "contract ITreasury",
          "name": "_treasury",
          "type": "address"
        },
        {
          "internalType": "contract IDonationMiner",
          "name": "_donationMiner",
          "type": "address"
        },
        {
          "internalType": "contract ILendingPool",
          "name": "_lendingPool",
          "type": "address"
        },
        {
          "internalType": "address[]",
          "name": "_tokenList",
          "type": "address[]"
        }
      ],
      "name": "initialize",
      "outputs": [],
      "stateMutability": "nonpayable",
      "type": "function"
    },
    {
      "inputs": [
        {
          "internalType": "address",
          "name": "_depositorAddress",
          "type": "address"
        },
        {
          "internalType": "address",
          "name": "_tokenAddress",
          "type": "address"
        },
        {
          "internalType": "uint256",
          "name": "_amount",
          "type": "uint256"
        }
      ],
      "name": "interest",
      "outputs": [
        {
          "internalType": "uint256",
          "name": "",
          "type": "uint256"
        }
      ],
      "stateMutability": "view",
      "type": "function"
    },
    {
      "inputs": [
        {
          "internalType": "address",
          "name": "_tokenAddress",
          "type": "address"
        }
      ],
      "name": "isToken",
      "outputs": [
        {
          "internalType": "bool",
          "name": "",
          "type": "bool"
        }
      ],
      "stateMutability": "view",
      "type": "function"
    },
    {
      "inputs": [],
      "name": "lendingPool",
      "outputs": [
        {
          "internalType": "contract ILendingPool",
          "name": "",
          "type": "address"
        }
      ],
      "stateMutability": "view",
      "type": "function"
    },
    {
      "inputs": [],
      "name": "owner",
      "outputs": [
        {
          "internalType": "address",
          "name": "",
          "type": "address"
        }
      ],
      "stateMutability": "view",
      "type": "function"
    },
    {
      "inputs": [],
      "name": "paused",
      "outputs": [
        {
          "internalType": "bool",
          "name": "",
          "type": "bool"
        }
      ],
      "stateMutability": "view",
      "type": "function"
    },
    {
      "inputs": [
        {
          "internalType": "address",
          "name": "_tokenAddress",
          "type": "address"
        }
      ],
      "name": "removeToken",
      "outputs": [],
      "stateMutability": "nonpayable",
      "type": "function"
    },
    {
      "inputs": [],
      "name": "renounceOwnership",
      "outputs": [],
      "stateMutability": "nonpayable",
      "type": "function"
    },
    {
      "inputs": [
        {
          "internalType": "address",
          "name": "_tokenAddress",
          "type": "address"
        }
      ],
      "name": "token",
      "outputs": [
        {
          "internalType": "uint256",
          "name": "totalAmount",
          "type": "uint256"
        },
        {
          "internalType": "uint256",
          "name": "depositorListLength",
          "type": "uint256"
        }
      ],
      "stateMutability": "view",
      "type": "function"
    },
    {
      "inputs": [
        {
          "internalType": "address",
          "name": "_tokenAddress",
          "type": "address"
        },
        {
          "internalType": "address",
          "name": "_depositorAddress",
          "type": "address"
        }
      ],
      "name": "tokenDepositor",
      "outputs": [
        {
          "internalType": "uint256",
          "name": "amount",
          "type": "uint256"
        },
        {
          "internalType": "uint256",
          "name": "scaledBalance",
          "type": "uint256"
        }
      ],
      "stateMutability": "view",
      "type": "function"
    },
    {
      "inputs": [
        {
          "internalType": "address",
          "name": "_tokenAddress",
          "type": "address"
        },
        {
          "internalType": "uint256",
          "name": "_index",
          "type": "uint256"
        }
      ],
      "name": "tokenDepositorListAt",
      "outputs": [
        {
          "internalType": "address",
          "name": "",
          "type": "address"
        }
      ],
      "stateMutability": "view",
      "type": "function"
    },
    {
      "inputs": [
        {
          "internalType": "uint256",
          "name": "_index",
          "type": "uint256"
        }
      ],
      "name": "tokenListAt",
      "outputs": [
        {
          "internalType": "address",
          "name": "",
          "type": "address"
        }
      ],
      "stateMutability": "view",
      "type": "function"
    },
    {
      "inputs": [],
      "name": "tokenListLength",
      "outputs": [
        {
          "internalType": "uint256",
          "name": "",
          "type": "uint256"
        }
      ],
      "stateMutability": "view",
      "type": "function"
    },
    {
      "inputs": [
        {
          "internalType": "address",
          "name": "newOwner",
          "type": "address"
        }
      ],
      "name": "transferOwnership",
      "outputs": [],
      "stateMutability": "nonpayable",
      "type": "function"
    },
    {
      "inputs": [],
      "name": "treasury",
      "outputs": [
        {
          "internalType": "contract ITreasury",
          "name": "",
          "type": "address"
        }
      ],
      "stateMutability": "view",
      "type": "function"
    },
    {
      "inputs": [
        {
          "internalType": "contract IDonationMiner",
          "name": "_newDonationMiner",
          "type": "address"
        }
      ],
      "name": "updateDonationMiner",
      "outputs": [],
      "stateMutability": "nonpayable",
      "type": "function"
    },
    {
      "inputs": [
        {
          "internalType": "contract ILendingPool",
          "name": "_newLendingPool",
          "type": "address"
        }
      ],
      "name": "updateLendingPool",
      "outputs": [],
      "stateMutability": "nonpayable",
      "type": "function"
    },
    {
      "inputs": [
        {
          "internalType": "contract ITreasury",
          "name": "_newTreasury",
          "type": "address"
        }
      ],
      "name": "updateTreasury",
      "outputs": [],
      "stateMutability": "nonpayable",
      "type": "function"
    },
    {
      "inputs": [
        {
          "internalType": "address",
          "name": "_tokenAddress",
          "type": "address"
        },
        {
          "internalType": "uint256",
          "name": "_amount",
          "type": "uint256"
        }
      ],
      "name": "withdraw",
      "outputs": [],
      "stateMutability": "nonpayable",
      "type": "function"
    }
  ],
  "bytecode": "0x608060405234801561001057600080fd5b50612967806100206000396000f3fe608060405234801561001057600080fd5b50600436106101585760003560e01c80637f51bb1f116100c3578063d48bfca71161007c578063d48bfca714610319578063e36d4f3e1461032c578063e6bfbfd81461033f578063f0367db514610352578063f2fde38b14610365578063f3fef3a31461037857600080fd5b80637f51bb1f146102b457806383912426146102c75780638da5cb5b146102da5780639a552a29146102eb578063a59a9973146102f3578063c89fc9a71461030657600080fd5b806347e7ef241161011557806347e7ef24146102555780635c975abb146102685780635fa7b5841461027357806361d027b3146102865780636d46a1db14610299578063715018a6146102ac57600080fd5b80630b9b1f9a1461015d5780630d8e6e2c1461017257806312cf28841461018857806319f373611461019b57806332b194b5146101be5780633ede2d67146101e9575b600080fd5b61017061016b36600461235f565b61038b565b005b60015b6040519081526020015b60405180910390f35b6101756101963660046123b3565b61041a565b6101ae6101a936600461235f565b610638565b604051901515815260200161017f565b6101d16101cc366004612616565b61064b565b6040516001600160a01b03909116815260200161017f565b6102406101f736600461237b565b6001600160a01b03918216600090815260ce6020908152604080832093909416825260039092018252829020825180840190935280548084526001909101549290910182905291565b6040805192835260208301919091520161017f565b6101706102633660046123f3565b610658565b60655460ff166101ae565b61017061028136600461235f565b610a37565b60c9546101d1906001600160a01b031681565b6102406102a736600461235f565b610b0b565b610170610b3e565b6101706102c236600461235f565b610b74565b6101d16102d53660046123f3565b610bfa565b6033546001600160a01b03166101d1565b610175610c1f565b60cb546101d1906001600160a01b031681565b61017061031436600461235f565b610c30565b61017061032736600461235f565b610cb6565b60ca546101d1906001600160a01b031681565b61017061034d36600461243e565b61107e565b6101706103603660046123b3565b6112bf565b61017061037336600461235f565b611711565b6101706103863660046123f3565b6117ac565b6033546001600160a01b031633146103be5760405162461bcd60e51b81526004016103b5906126e2565b60405180910390fd5b60cb546040516001600160a01b038084169216907fb8852e851bdabda04c25661cfbfa7b09b3019206382f067a349af593e883214a90600090a360cb80546001600160a01b0319166001600160a01b0392909216919091179055565b6001600160a01b03808316600090815260ce60209081526040808320938716835260038401909152812080549192918411156104685760405162461bcd60e51b81526004016103b590612717565b60cb546040516335ea6a7560e01b81526001600160a01b03878116600483015260009216906335ea6a75906024016101806040518083038186803b1580156104af57600080fd5b505afa1580156104c3573d6000803e3d6000fd5b505050506040513d601f19601f820116820180604052508101906104e7919061252a565b60e00151604051630ed1279f60e11b81523060048201529091506000906001600160a01b03831690631da24f3e9060240160206040518083038186803b15801561053057600080fd5b505afa158015610544573d6000803e3d6000fd5b505050506040513d601f19601f82011682018060405250810190610568919061262e565b8354600185015491925060009161057f9089612873565b6105899190612853565b6040516370a0823160e01b815230600482015290915060009083906001600160a01b038616906370a082319060240160206040518083038186803b1580156105d057600080fd5b505afa1580156105e4573d6000803e3d6000fd5b505050506040513d601f19601f82011682018060405250810190610608919061262e565b6106129084612873565b61061c9190612853565b90506106288882612892565b96505050505050505b9392505050565b600061064560cc83611c6c565b92915050565b600061064560cc83611c8e565b60655460ff161561067b5760405162461bcd60e51b81526004016103b5906126b8565b6002609754141561069e5760405162461bcd60e51b81526004016103b5906127a9565b60026097556106ac82610638565b6107065760405162461bcd60e51b815260206004820152602560248201527f4465706f7369743a3a6465706f7369743a2074686973206973206e6f742061206044820152643a37b5b2b760d91b60648201526084016103b5565b600081116107565760405162461bcd60e51b815260206004820181905260248201527f4465706f7369743a3a6465706f7369743a20696e76616c696420616d6f756e7460448201526064016103b5565b61076b6001600160a01b038316333084611c9a565b60cb546040516335ea6a7560e01b81526001600160a01b03848116600483015260009216906335ea6a75906024016101806040518083038186803b1580156107b257600080fd5b505afa1580156107c6573d6000803e3d6000fd5b505050506040513d601f19601f820116820180604052508101906107ea919061252a565b60e00151604051630ed1279f60e11b81523060048201529091506000906001600160a01b03831690631da24f3e9060240160206040518083038186803b15801561083357600080fd5b505afa158015610847573d6000803e3d6000fd5b505050506040513d601f19601f8201168201806040525081019061086b919061262e565b60cb5460405163e8eda9df60e01b81526001600160a01b038781166004830152602482018790523060448301526000606483015292935091169063e8eda9df90608401600060405180830381600087803b1580156108c857600080fd5b505af11580156108dc573d6000803e3d6000fd5b5050604051630ed1279f60e11b8152306004820152600092506001600160a01b0385169150631da24f3e9060240160206040518083038186803b15801561092257600080fd5b505afa158015610936573d6000803e3d6000fd5b505050506040513d601f19601f8201168201806040525081019061095a919061262e565b6001600160a01b038616600090815260ce602052604090209091506109826001820133611cfa565b5084816000016000828254610997919061283b565b909155505033600090815260038201602052604081208054909187918391906109c190849061283b565b909155506109d190508484612892565b8160010160008282546109e4919061283b565b90915550506040518681526001600160a01b0388169033907f63d8d7d5e63e9840ec91a12a160d27b7cfab294f6ba070b7359692acfe6b03bf9060200160405180910390a3505060016097555050505050565b6033546001600160a01b03163314610a615760405162461bcd60e51b81526004016103b5906126e2565b610a6a81610638565b610ac85760405162461bcd60e51b815260206004820152602960248201527f4465706f7369743a3a72656d6f7665546f6b656e3a2074686973206973206e6f6044820152683a1030903a37b5b2b760b91b60648201526084016103b5565b610ad360cc82611d0f565b506040516001600160a01b038216907f4c910b69fe65a61f7531b9c5042b2329ca7179c77290aa7e2eb3afa3c8511fd390600090a250565b6001600160a01b038116600090815260ce602052604081208054829190610b3460018301611d24565b9250925050915091565b6033546001600160a01b03163314610b685760405162461bcd60e51b81526004016103b5906126e2565b610b726000611d2e565b565b6033546001600160a01b03163314610b9e5760405162461bcd60e51b81526004016103b5906126e2565b60c9546040516001600160a01b038084169216907f4ab5be82436d353e61ca18726e984e561f5c1cc7c6d38b29d2553c790434705a90600090a360c980546001600160a01b0319166001600160a01b0392909216919091179055565b6001600160a01b038216600090815260ce602052604081206106319060010183611c8e565b6000610c2b60cc611d24565b905090565b6033546001600160a01b03163314610c5a5760405162461bcd60e51b81526004016103b5906126e2565b60ca546040516001600160a01b038084169216907f9ee32924c063f6e43d6d525cb33e456e4c81879e8b46e925685714c3273f554990600090a360ca80546001600160a01b0319166001600160a01b0392909216919091179055565b6033546001600160a01b03163314610ce05760405162461bcd60e51b81526004016103b5906126e2565b610ce981610638565b15610d455760405162461bcd60e51b815260206004820152602660248201527f4465706f7369743a3a616464546f6b656e3a20746f6b656e20616c726561647960448201526508185919195960d21b60648201526084016103b5565b60c9546040516319f3736160e01b81526001600160a01b038381166004830152909116906319f373619060240160206040518083038186803b158015610d8a57600080fd5b505afa158015610d9e573d6000803e3d6000fd5b505050506040513d601f19601f82011682018060405250810190610dc2919061241e565b610e2b5760405162461bcd60e51b815260206004820152603460248201527f4465706f7369743a3a616464546f6b656e3a206974206d7573742062652061206044820152733b30b634b2103a3932b0b9bab93c903a37b5b2b760611b60648201526084016103b5565b60cb546040516335ea6a7560e01b81526001600160a01b03838116600483015260009216906335ea6a75906024016101806040518083038186803b158015610e7257600080fd5b505afa158015610e86573d6000803e3d6000fd5b505050506040513d601f19601f82011682018060405250810190610eaa919061252a565b60e001516001600160a01b03161415610f2b5760405162461bcd60e51b815260206004820152603760248201527f4465706f7369743a3a616464546f6b656e3a206974206d75737420626520612060448201527f76616c6964206c656e64696e67506f6f6c20746f6b656e00000000000000000060648201526084016103b5565b610f3660cc82611cfa565b5060cb5460405163095ea7b360e01b81526001600160a01b03918216600482015260001960248201529082169063095ea7b390604401602060405180830381600087803b158015610f8657600080fd5b505af1158015610f9a573d6000803e3d6000fd5b505050506040513d601f19601f82011682018060405250810190610fbe919061241e565b5060ca5460405163095ea7b360e01b81526001600160a01b03918216600482015260001960248201529082169063095ea7b390604401602060405180830381600087803b15801561100e57600080fd5b505af1158015611022573d6000803e3d6000fd5b505050506040513d601f19601f82011682018060405250810190611046919061241e565b506040516001600160a01b038216907f784c8f4dbf0ffedd6e72c76501c545a70f8b203b30a26ce542bf92ba87c248a490600090a250565b600054610100900460ff166110995760005460ff161561109d565b303b155b6111005760405162461bcd60e51b815260206004820152602e60248201527f496e697469616c697a61626c653a20636f6e747261637420697320616c72656160448201526d191e481a5b9a5d1a585b1a5e995960921b60648201526084016103b5565b600054610100900460ff16158015611122576000805461ffff19166101011790555b6001600160a01b03851661118f5760405162461bcd60e51b815260206004820152602e60248201527f4465706f7369743a3a696e697469616c697a653a20696e76616c6964205f747260448201526d656173757279206164647265737360901b60648201526084016103b5565b6001600160a01b0383166111ff5760405162461bcd60e51b815260206004820152603160248201527f4465706f7369743a3a696e697469616c697a653a20696e76616c6964205f6c656044820152706e64696e67506f6f6c206164647265737360781b60648201526084016103b5565b611207611d80565b61120f611db7565b611217611dee565b60c980546001600160a01b038088166001600160a01b03199283161790925560ca805487841690831617905560cb80549286169290911691909117905581516000905b808210156112a45761129284838151811061128557634e487b7160e01b600052603260045260246000fd5b6020026020010151610cb6565b8161129c816128d5565b92505061125a565b505080156112b8576000805461ff00191690555b5050505050565b60655460ff16156112e25760405162461bcd60e51b81526004016103b5906126b8565b600260975414156113055760405162461bcd60e51b81526004016103b5906127a9565b60026097556001600160a01b03808316600090815260ce60209081526040808320938716835260038401909152902080548311156113555760405162461bcd60e51b81526004016103b590612717565b60cb546040516335ea6a7560e01b81526001600160a01b03868116600483015260009216906335ea6a75906024016101806040518083038186803b15801561139c57600080fd5b505afa1580156113b0573d6000803e3d6000fd5b505050506040513d601f19601f820116820180604052508101906113d4919061252a565b60e00151604051630ed1279f60e11b81523060048201529091506000906001600160a01b03831690631da24f3e9060240160206040518083038186803b15801561141d57600080fd5b505afa158015611431573d6000803e3d6000fd5b505050506040513d601f19601f82011682018060405250810190611455919061262e565b8354600185015491925060009161146c9088612873565b6114769190612853565b6040516370a0823160e01b815230600482015290915060009083906001600160a01b038616906370a082319060240160206040518083038186803b1580156114bd57600080fd5b505afa1580156114d1573d6000803e3d6000fd5b505050506040513d601f19601f820116820180604052508101906114f5919061262e565b6114ff9084612873565b6115099190612853565b905060006115178883612892565b60cb54604051631a4ca37b60e21b81529192506001600160a01b0316906369328dec9061154c908c9085903090600401612662565b602060405180830381600087803b15801561156657600080fd5b505af115801561157a573d6000803e3d6000fd5b505050506040513d601f19601f8201168201806040525081019061159e919061262e565b50604051630ed1279f60e11b81523060048201526000906001600160a01b03871690631da24f3e9060240160206040518083038186803b1580156115e157600080fd5b505afa1580156115f5573d6000803e3d6000fd5b505050506040513d601f19601f82011682018060405250810190611619919061262e565b905060ca60009054906101000a90046001600160a01b03166001600160a01b0316630d1e9b4a8b848e6040518463ffffffff1660e01b815260040161166093929190612662565b600060405180830381600087803b15801561167a57600080fd5b505af115801561168e573d6000803e3d6000fd5b50505050808561169e9190612892565b8760010160008282546116b19190612892565b9091555050604080518a8152602081018490526001600160a01b03808d1692908e16917f29bac1f9afd8b3833ccc04f651c41fc95c0dde3b19f65d1f2a334afa69e8166a910160405180910390a350506001609755505050505050505050565b6033546001600160a01b0316331461173b5760405162461bcd60e51b81526004016103b5906126e2565b6001600160a01b0381166117a05760405162461bcd60e51b815260206004820152602660248201527f4f776e61626c653a206e6577206f776e657220697320746865207a65726f206160448201526564647265737360d01b60648201526084016103b5565b6117a981611d2e565b50565b60655460ff16156117cf5760405162461bcd60e51b81526004016103b5906126b8565b600260975414156117f25760405162461bcd60e51b81526004016103b5906127a9565b60026097556001600160a01b038216600090815260ce6020908152604080832033845260038101909252909120805483111561187a5760405162461bcd60e51b815260206004820152602160248201527f4465706f7369743a3a77697468647261773a20696e76616c696420616d6f756e6044820152601d60fa1b60648201526084016103b5565b8054831415611892576118906001830133611d0f565b505b60cb546040516335ea6a7560e01b81526001600160a01b03868116600483015260009216906335ea6a75906024016101806040518083038186803b1580156118d957600080fd5b505afa1580156118ed573d6000803e3d6000fd5b505050506040513d601f19601f82011682018060405250810190611911919061252a565b60e00151604051630ed1279f60e11b81523060048201529091506000906001600160a01b03831690631da24f3e9060240160206040518083038186803b15801561195a57600080fd5b505afa15801561196e573d6000803e3d6000fd5b505050506040513d601f19601f82011682018060405250810190611992919061262e565b835460018501549192506000916119a99088612873565b6119b39190612853565b6040516370a0823160e01b815230600482015290915060009083906001600160a01b038616906370a082319060240160206040518083038186803b1580156119fa57600080fd5b505afa158015611a0e573d6000803e3d6000fd5b505050506040513d601f19601f82011682018060405250810190611a32919061262e565b611a3c9084612873565b611a469190612853565b90506000611a548883612892565b60cb54604051631a4ca37b60e21b81529192506001600160a01b0316906369328dec90611a89908c908c903390600401612662565b602060405180830381600087803b158015611aa357600080fd5b505af1158015611ab7573d6000803e3d6000fd5b505050506040513d601f19601f82011682018060405250810190611adb919061262e565b5060cb54604051631a4ca37b60e21b81526001600160a01b03909116906369328dec90611b10908c9085903090600401612662565b602060405180830381600087803b158015611b2a57600080fd5b505af1158015611b3e573d6000803e3d6000fd5b505050506040513d601f19601f82011682018060405250810190611b62919061262e565b5060ca5460405163068f4da560e11b81526001600160a01b0390911690630d1e9b4a90611b97908c9085903390600401612662565b600060405180830381600087803b158015611bb157600080fd5b505af1158015611bc5573d6000803e3d6000fd5b5050505087876000016000828254611bdd9190612892565b9091555050855488908790600090611bf6908490612892565b9250508190555082866001016000828254611c119190612892565b909155505060408051898152602081018390526001600160a01b038b169133917ff341246adaac6f497bc2a656f546ab9e182111d630394f0c57c710a59a2cb567910160405180910390a35050600160975550505050505050565b6001600160a01b03811660009081526001830160205260408120541515610631565b60006106318383611e1d565b604080516001600160a01b0385811660248301528416604482015260648082018490528251808303909101815260849091019091526020810180516001600160e01b03166323b872dd60e01b179052611cf4908590611e55565b50505050565b6000610631836001600160a01b038416611f2c565b6000610631836001600160a01b038416611f7b565b6000610645825490565b603380546001600160a01b038381166001600160a01b0319831681179093556040519116919082907f8be0079c531659141344cd1fd0a4f28419497f9722a3daafe3b4186f6b6457e090600090a35050565b600054610100900460ff16611da75760405162461bcd60e51b81526004016103b59061275e565b611daf612098565b610b726120bf565b600054610100900460ff16611dde5760405162461bcd60e51b81526004016103b59061275e565b611de6612098565b610b726120ef565b600054610100900460ff16611e155760405162461bcd60e51b81526004016103b59061275e565b610b72612122565b6000826000018281548110611e4257634e487b7160e01b600052603260045260246000fd5b9060005260206000200154905092915050565b6000611eaa826040518060400160405280602081526020017f5361666545524332303a206c6f772d6c6576656c2063616c6c206661696c6564815250856001600160a01b03166121509092919063ffffffff16565b805190915015611f275780806020019051810190611ec8919061241e565b611f275760405162461bcd60e51b815260206004820152602a60248201527f5361666545524332303a204552433230206f7065726174696f6e20646964206e6044820152691bdd081cdd58d8d9595960b21b60648201526084016103b5565b505050565b6000818152600183016020526040812054611f7357508154600181810184556000848152602080822090930184905584548482528286019093526040902091909155610645565b506000610645565b6000818152600183016020526040812054801561208e576000611f9f600183612892565b8554909150600090611fb390600190612892565b9050818114612034576000866000018281548110611fe157634e487b7160e01b600052603260045260246000fd5b906000526020600020015490508087600001848154811061201257634e487b7160e01b600052603260045260246000fd5b6000918252602080832090910192909255918252600188019052604090208390555b855486908061205357634e487b7160e01b600052603160045260246000fd5b600190038181906000526020600020016000905590558560010160008681526020019081526020016000206000905560019350505050610645565b6000915050610645565b600054610100900460ff16610b725760405162461bcd60e51b81526004016103b59061275e565b600054610100900460ff166120e65760405162461bcd60e51b81526004016103b59061275e565b610b7233611d2e565b600054610100900460ff166121165760405162461bcd60e51b81526004016103b59061275e565b6065805460ff19169055565b600054610100900460ff166121495760405162461bcd60e51b81526004016103b59061275e565b6001609755565b606061215f8484600085612167565b949350505050565b6060824710156121c85760405162461bcd60e51b815260206004820152602660248201527f416464726573733a20696e73756666696369656e742062616c616e636520666f6044820152651c8818d85b1b60d21b60648201526084016103b5565b843b6122165760405162461bcd60e51b815260206004820152601d60248201527f416464726573733a2063616c6c20746f206e6f6e2d636f6e747261637400000060448201526064016103b5565b600080866001600160a01b031685876040516122329190612646565b60006040518083038185875af1925050503d806000811461226f576040519150601f19603f3d011682016040523d82523d6000602084013e612274565b606091505b509150915061228482828661228f565b979650505050505050565b6060831561229e575081610631565b8251156122ae5782518084602001fd5b8160405162461bcd60e51b81526004016103b59190612685565b80516122d38161291c565b919050565b6000602082840312156122e9578081fd5b6040516020810181811067ffffffffffffffff8211171561230c5761230c612906565b6040529151825250919050565b80516fffffffffffffffffffffffffffffffff811681146122d357600080fd5b805164ffffffffff811681146122d357600080fd5b805160ff811681146122d357600080fd5b600060208284031215612370578081fd5b81356106318161291c565b6000806040838503121561238d578081fd5b82356123988161291c565b915060208301356123a88161291c565b809150509250929050565b6000806000606084860312156123c7578081fd5b83356123d28161291c565b925060208401356123e28161291c565b929592945050506040919091013590565b60008060408385031215612405578182fd5b82356124108161291c565b946020939093013593505050565b60006020828403121561242f578081fd5b81518015158114610631578182fd5b60008060008060808587031215612453578081fd5b843561245e8161291c565b935060208581013561246f8161291c565b9350604086013561247f8161291c565b9250606086013567ffffffffffffffff8082111561249b578384fd5b818801915088601f8301126124ae578384fd5b8135818111156124c0576124c0612906565b8060051b91506124d184830161280a565b8181528481019084860184860187018d10156124eb578788fd5b8795505b8386101561251957803594506125048561291c565b848352600195909501949186019186016124ef565b50989b979a50959850505050505050565b6000610180828403121561253c578081fd5b6125446127e0565b61254e84846122d8565b815261255c60208401612319565b602082015261256d60408401612319565b604082015261257e60608401612319565b606082015261258f60808401612319565b60808201526125a060a08401612319565b60a08201526125b160c08401612339565b60c08201526125c260e084016122c8565b60e08201526101006125d58185016122c8565b908201526101206125e78482016122c8565b908201526101406125f98482016122c8565b9082015261016061260b84820161234e565b908201529392505050565b600060208284031215612627578081fd5b5035919050565b60006020828403121561263f578081fd5b5051919050565b600082516126588184602087016128a9565b9190910192915050565b6001600160a01b0393841681526020810192909252909116604082015260600190565b60208152600082518060208401526126a48160408501602087016128a9565b601f01601f19169190910160400192915050565b60208082526010908201526f14185d5cd8589b194e881c185d5cd95960821b604082015260600190565b6020808252818101527f4f776e61626c653a2063616c6c6572206973206e6f7420746865206f776e6572604082015260600190565b60208082526027908201527f4465706f7369743a3a646f6e617465496e7465726573743a20696e76616c696460408201526608185b5bdd5b9d60ca1b606082015260800190565b6020808252602b908201527f496e697469616c697a61626c653a20636f6e7472616374206973206e6f74206960408201526a6e697469616c697a696e6760a81b606082015260800190565b6020808252601f908201527f5265656e7472616e637947756172643a207265656e7472616e742063616c6c00604082015260600190565b604051610180810167ffffffffffffffff8111828210171561280457612804612906565b60405290565b604051601f8201601f1916810167ffffffffffffffff8111828210171561283357612833612906565b604052919050565b6000821982111561284e5761284e6128f0565b500190565b60008261286e57634e487b7160e01b81526012600452602481fd5b500490565b600081600019048311821515161561288d5761288d6128f0565b500290565b6000828210156128a4576128a46128f0565b500390565b60005b838110156128c45781810151838201526020016128ac565b83811115611cf45750506000910152565b60006000198214156128e9576128e96128f0565b5060010190565b634e487b7160e01b600052601160045260246000fd5b634e487b7160e01b600052604160045260246000fd5b6001600160a01b03811681146117a957600080fdfea2646970667358221220fb8d6a473685cc6ec1233da55154976ccb987c904af7f69bef27e378ff75d47c64736f6c63430008040033",
  "linkReferences": {},
  "deployedLinkReferences": {}
}